{
  "contractName": "AdminChain",
  "abi": [
    {
      "inputs": [],
      "stateMutability": "nonpayable",
      "type": "constructor"
    },
    {
      "inputs": [
        {
          "internalType": "string",
          "name": "_firstname",
          "type": "string"
        },
        {
          "internalType": "string",
          "name": "_lastname",
          "type": "string"
        },
        {
          "internalType": "uint256",
          "name": "_role",
          "type": "uint256"
        },
        {
          "internalType": "address",
          "name": "_wallet",
          "type": "address"
        }
      ],
      "name": "createtAdmin",
      "outputs": [
        {
          "internalType": "string",
          "name": "",
          "type": "string"
        }
      ],
      "stateMutability": "nonpayable",
      "type": "function"
    },
    {
      "inputs": [],
      "name": "getAdminInfo",
      "outputs": [
        {
          "components": [
            {
              "internalType": "string",
              "name": "_firstname",
              "type": "string"
            },
            {
              "internalType": "string",
              "name": "_lastname",
              "type": "string"
            },
            {
              "internalType": "enum AdminChain.AdminRoles",
              "name": "_role",
              "type": "uint8"
            },
            {
              "internalType": "address",
              "name": "_walletAddress",
              "type": "address"
            }
          ],
          "internalType": "struct AdminChain.Admin",
          "name": "",
          "type": "tuple"
        }
      ],
      "stateMutability": "view",
      "type": "function",
      "constant": true
    }
  ],
  "bytecode": "0x6080604052600060015534801561001557600080fd5b50610e93806100256000396000f3fe608060405234801561001057600080fd5b50600436106100365760003560e01c80634b6ddb141461003b578063c3d5fd391461006b575b600080fd5b6100556004803603810190610050919061095f565b610089565b6040516100629190610a86565b60405180910390f35b61007361039e565b6040516100809190610be2565b60405180910390f35b60603373ffffffffffffffffffffffffffffffffffffffff16600073ffffffffffffffffffffffffffffffffffffffff1614156100fb576040517f08c379a00000000000000000000000000000000000000000000000000000000081526004016100f290610c50565b60405180910390fd5b3373ffffffffffffffffffffffffffffffffffffffff1673f08b741073b3cb01ef6fb3b412e71c977f276faa73ffffffffffffffffffffffffffffffffffffffff161461017d576040517f08c379a000000000000000000000000000000000000000000000000000000000815260040161017490610cbc565b60405180910390fd5b6000600154146101c2576040517f08c379a00000000000000000000000000000000000000000000000000000000081526004016101b990610d28565b60405180910390fd5b6000600154141561035d57600060405180608001604052808781526020018681526020018560008111156101f9576101f8610af2565b5b600081111561020b5761020a610af2565b5b81526020018473ffffffffffffffffffffffffffffffffffffffff168152509080600181540180825580915050600190039060005260206000209060030201600090919091909150600082015181600001908051906020019061026f92919061067f565b50602082015181600101908051906020019061028c92919061067f565b5060408201518160020160006101000a81548160ff021916908360008111156102b8576102b7610af2565b5b021790555060608201518160020160016101000a81548173ffffffffffffffffffffffffffffffffffffffff021916908373ffffffffffffffffffffffffffffffffffffffff16021790555050506066600160008282546103199190610d77565b925050819055506040518060400160405280600a81526020017f437265617465642e2e2e000000000000000000000000000000000000000000008152509050610396565b6040518060400160405280601181526020017f4974206469646e277420776f726b2e2e2e00000000000000000000000000000081525090505b949350505050565b6103a6610705565b3373ffffffffffffffffffffffffffffffffffffffff16600073ffffffffffffffffffffffffffffffffffffffff161415610416576040517f08c379a000000000000000000000000000000000000000000000000000000000815260040161040d90610c50565b60405180910390fd5b3373ffffffffffffffffffffffffffffffffffffffff1673f08b741073b3cb01ef6fb3b412e71c977f276faa73ffffffffffffffffffffffffffffffffffffffff1614610498576040517f08c379a000000000000000000000000000000000000000000000000000000000815260040161048f90610cbc565b60405180910390fd5b600080815481106104ac576104ab610dcd565b5b90600052602060002090600302016040518060800160405290816000820180546104d590610e2b565b80601f016020809104026020016040519081016040528092919081815260200182805461050190610e2b565b801561054e5780601f106105235761010080835404028352916020019161054e565b820191906000526020600020905b81548152906001019060200180831161053157829003601f168201915b5050505050815260200160018201805461056790610e2b565b80601f016020809104026020016040519081016040528092919081815260200182805461059390610e2b565b80156105e05780601f106105b5576101008083540402835291602001916105e0565b820191906000526020600020905b8154815290600101906020018083116105c357829003601f168201915b505050505081526020016002820160009054906101000a900460ff16600081111561060e5761060d610af2565b5b60008111156106205761061f610af2565b5b81526020016002820160019054906101000a900473ffffffffffffffffffffffffffffffffffffffff1673ffffffffffffffffffffffffffffffffffffffff1673ffffffffffffffffffffffffffffffffffffffff1681525050905090565b82805461068b90610e2b565b90600052602060002090601f0160209004810192826106ad57600085556106f4565b82601f106106c657805160ff19168380011785556106f4565b828001600101855582156106f4579182015b828111156106f35782518255916020019190600101906106d8565b5b5090506107019190610754565b5090565b6040518060800160405280606081526020016060815260200160008081111561073157610730610af2565b5b8152602001600073ffffffffffffffffffffffffffffffffffffffff1681525090565b5b8082111561076d576000816000905550600101610755565b5090565b6000604051905090565b600080fd5b600080fd5b600080fd5b600080fd5b6000601f19601f8301169050919050565b7f4e487b7100000000000000000000000000000000000000000000000000000000600052604160045260246000fd5b6107d88261078f565b810181811067ffffffffffffffff821117156107f7576107f66107a0565b5b80604052505050565b600061080a610771565b905061081682826107cf565b919050565b600067ffffffffffffffff821115610836576108356107a0565b5b61083f8261078f565b9050602081019050919050565b82818337600083830152505050565b600061086e6108698461081b565b610800565b90508281526020810184848401111561088a5761088961078a565b5b61089584828561084c565b509392505050565b600082601f8301126108b2576108b1610785565b5b81356108c284826020860161085b565b91505092915050565b6000819050919050565b6108de816108cb565b81146108e957600080fd5b50565b6000813590506108fb816108d5565b92915050565b600073ffffffffffffffffffffffffffffffffffffffff82169050919050565b600061092c82610901565b9050919050565b61093c81610921565b811461094757600080fd5b50565b60008135905061095981610933565b92915050565b600080600080608085870312156109795761097861077b565b5b600085013567ffffffffffffffff81111561099757610996610780565b5b6109a38782880161089d565b945050602085013567ffffffffffffffff8111156109c4576109c3610780565b5b6109d08782880161089d565b93505060406109e1878288016108ec565b92505060606109f28782880161094a565b91505092959194509250565b600081519050919050565b600082825260208201905092915050565b60005b83811015610a38578082015181840152602081019050610a1d565b83811115610a47576000848401525b50505050565b6000610a58826109fe565b610a628185610a09565b9350610a72818560208601610a1a565b610a7b8161078f565b840191505092915050565b60006020820190508181036000830152610aa08184610a4d565b905092915050565b600082825260208201905092915050565b6000610ac4826109fe565b610ace8185610aa8565b9350610ade818560208601610a1a565b610ae78161078f565b840191505092915050565b7f4e487b7100000000000000000000000000000000000000000000000000000000600052602160045260246000fd5b60018110610b3257610b31610af2565b5b50565b6000819050610b4382610b21565b919050565b6000610b5382610b35565b9050919050565b610b6381610b48565b82525050565b610b7281610921565b82525050565b60006080830160008301518482036000860152610b958282610ab9565b91505060208301518482036020860152610baf8282610ab9565b9150506040830151610bc46040860182610b5a565b506060830151610bd76060860182610b69565b508091505092915050565b60006020820190508181036000830152610bfc8184610b78565b905092915050565b7f41646472657373206973206e6f742076616c69642e0000000000000000000000600082015250565b6000610c3a601583610a09565b9150610c4582610c04565b602082019050919050565b60006020820190508181036000830152610c6981610c2d565b9050919050565b7f596f7520617265206e6f742074686520726967687420757365722e0000000000600082015250565b6000610ca6601b83610a09565b9150610cb182610c70565b602082019050919050565b60006020820190508181036000830152610cd581610c99565b9050919050565b7f4163636573732044656e696564212e2e2e000000000000000000000000000000600082015250565b6000610d12601183610a09565b9150610d1d82610cdc565b602082019050919050565b60006020820190508181036000830152610d4181610d05565b9050919050565b7f4e487b7100000000000000000000000000000000000000000000000000000000600052601160045260246000fd5b6000610d82826108cb565b9150610d8d836108cb565b9250827fffffffffffffffffffffffffffffffffffffffffffffffffffffffffffffffff03821115610dc257610dc1610d48565b5b828201905092915050565b7f4e487b7100000000000000000000000000000000000000000000000000000000600052603260045260246000fd5b7f4e487b7100000000000000000000000000000000000000000000000000000000600052602260045260246000fd5b60006002820490506001821680610e4357607f821691505b60208210811415610e5757610e56610dfc565b5b5091905056fea26469706673582212207e10a072672bb7532c5de8405b0acb6d5f3854cdba1c5d5e61bfb285cb70125564736f6c634300080a0033",
  "immutableReferences": {},
  "source": "// SPDX-License-Identifier: MIT\r\npragma solidity >=0.8.0 <0.9.0;\r\n\r\ncontract AdminChain {\r\n    Admin[] private admins;\r\n    uint256 private adminNumbers = 0;\r\n\r\n    struct Admin {\r\n        string _firstname;\r\n        string _lastname;\r\n        AdminRoles _role;\r\n        address _walletAddress;\r\n    }\r\n\r\n    enum AdminRoles {\r\n        AdminMighty\r\n    }\r\n\r\n    constructor() {}\r\n\r\n    modifier onlyAdmin() {\r\n        require(address(0x0) != msg.sender, \"Address is not valid.\");\r\n        require(address(0xf08B741073b3Cb01ef6fB3B412E71C977F276fAa) == msg.sender, \"You are not the right user.\");\r\n        _;\r\n    }\r\n\r\n    function createtAdmin(string memory _firstname, string memory _lastname, uint256 _role, address _wallet) public onlyAdmin returns (string memory) {\r\n        require(adminNumbers == 0, \"Access Denied!...\");\r\n        if (adminNumbers == 0) {\r\n            admins.push(Admin(_firstname, _lastname, AdminRoles(_role), _wallet));\r\n            adminNumbers += 102;\r\n            return \"Created...\";\r\n        }\r\n        return \"It didn't work...\";\r\n    }\r\n\r\n    function getAdminInfo() public view onlyAdmin returns (Admin memory) {\r\n        return admins[0];\r\n    }\r\n}\r\n",
  "sourcePath": "/mnt/c/Users/Beniamin/source/repos/DissertationProject/contracts/AdminChain.sol",
  "compiler": {
    "name": "solc",
    "version": "0.8.10+commit.fc410830.Emscripten.clang"
  },
  "schemaVersion": "3.4.3",
  "updatedAt": "2021-12-15T07:39:13.471Z",
  "networkType": "ethereum",
  "devdoc": {
    "kind": "dev",
    "methods": {},
    "version": 1
  },
  "userdoc": {
    "kind": "user",
    "methods": {},
    "version": 1
  }
}