{
	"contractName": "AdminChain",
	"abi": [
		{
			"inputs": [],
			"stateMutability": "nonpayable",
			"type": "constructor"
		},
		{
			"inputs": [],
			"name": "owner",
			"outputs": [
				{
					"internalType": "address",
					"name": "",
					"type": "address"
				}
			],
			"stateMutability": "view",
			"type": "function",
			"constant": true
		},
		{
			"inputs": [
				{
					"internalType": "string",
					"name": "_firstname",
					"type": "string"
				},
				{
					"internalType": "string",
					"name": "_lastname",
					"type": "string"
				},
				{
					"internalType": "uint256",
					"name": "_role",
					"type": "uint256"
				},
				{
					"internalType": "address",
					"name": "_wallet",
					"type": "address"
				}
			],
			"name": "createtAdmin",
			"outputs": [],
			"stateMutability": "nonpayable",
			"type": "function"
		},
		{
			"inputs": [],
			"name": "getAdminInfo",
			"outputs": [
				{
					"components": [
						{
							"internalType": "string",
							"name": "_firstname",
							"type": "string"
						},
						{
							"internalType": "string",
							"name": "_lastname",
							"type": "string"
						},
						{
							"internalType": "enum AdminChain.AdminRoles",
							"name": "_role",
							"type": "uint8"
						},
						{
							"internalType": "address",
							"name": "_walletAddress",
							"type": "address"
						}
					],
					"internalType": "struct AdminChain.Admin",
					"name": "",
					"type": "tuple"
				}
			],
			"stateMutability": "view",
			"type": "function",
			"constant": true
		}
	],
	"bytecode": "0x6080604052600060015533600260006101000a81548173ffffffffffffffffffffffffffffffffffffffff021916908373ffffffffffffffffffffffffffffffffffffffff16021790555034801561005657600080fd5b50610ca8806100666000396000f3fe608060405234801561001057600080fd5b50600436106100415760003560e01c80634b6ddb14146100465780638da5cb5b14610062578063c3d5fd3914610080575b600080fd5b610060600480360381019061005b9190610811565b61009e565b005b61006a6102ac565b60405161007791906108bf565b60405180910390f35b6100886102d2565b6040516100959190610a52565b60405180910390f35b3373ffffffffffffffffffffffffffffffffffffffff16600073ffffffffffffffffffffffffffffffffffffffff16141561010e576040517f08c379a000000000000000000000000000000000000000000000000000000000815260040161010590610ad1565b60405180910390fd5b600060015414610153576040517f08c379a000000000000000000000000000000000000000000000000000000000815260040161014a90610b3d565b60405180910390fd5b6000604051806080016040528086815260200185815260200184600081111561017f5761017e610962565b5b600081111561019157610190610962565b5b81526020018373ffffffffffffffffffffffffffffffffffffffff16815250908060018154018082558091505060019003906000526020600020906003020160009091909190915060008201518160000190805190602001906101f5929190610531565b506020820151816001019080519060200190610212929190610531565b5060408201518160020160006101000a81548160ff0219169083600081111561023e5761023d610962565b5b021790555060608201518160020160016101000a81548173ffffffffffffffffffffffffffffffffffffffff021916908373ffffffffffffffffffffffffffffffffffffffff160217905550505060666001600082825461029f9190610b8c565b9250508190555050505050565b600260009054906101000a900473ffffffffffffffffffffffffffffffffffffffff1681565b6102da6105b7565b3373ffffffffffffffffffffffffffffffffffffffff16600073ffffffffffffffffffffffffffffffffffffffff16141561034a576040517f08c379a000000000000000000000000000000000000000000000000000000000815260040161034190610ad1565b60405180910390fd5b6000808154811061035e5761035d610be2565b5b906000526020600020906003020160405180608001604052908160008201805461038790610c40565b80601f01602080910402602001604051908101604052809291908181526020018280546103b390610c40565b80156104005780601f106103d557610100808354040283529160200191610400565b820191906000526020600020905b8154815290600101906020018083116103e357829003601f168201915b5050505050815260200160018201805461041990610c40565b80601f016020809104026020016040519081016040528092919081815260200182805461044590610c40565b80156104925780601f1061046757610100808354040283529160200191610492565b820191906000526020600020905b81548152906001019060200180831161047557829003601f168201915b505050505081526020016002820160009054906101000a900460ff1660008111156104c0576104bf610962565b5b60008111156104d2576104d1610962565b5b81526020016002820160019054906101000a900473ffffffffffffffffffffffffffffffffffffffff1673ffffffffffffffffffffffffffffffffffffffff1673ffffffffffffffffffffffffffffffffffffffff1681525050905090565b82805461053d90610c40565b90600052602060002090601f01602090048101928261055f57600085556105a6565b82601f1061057857805160ff19168380011785556105a6565b828001600101855582156105a6579182015b828111156105a557825182559160200191906001019061058a565b5b5090506105b39190610606565b5090565b604051806080016040528060608152602001606081526020016000808111156105e3576105e2610962565b5b8152602001600073ffffffffffffffffffffffffffffffffffffffff1681525090565b5b8082111561061f576000816000905550600101610607565b5090565b6000604051905090565b600080fd5b600080fd5b600080fd5b600080fd5b6000601f19601f8301169050919050565b7f4e487b7100000000000000000000000000000000000000000000000000000000600052604160045260246000fd5b61068a82610641565b810181811067ffffffffffffffff821117156106a9576106a8610652565b5b80604052505050565b60006106bc610623565b90506106c88282610681565b919050565b600067ffffffffffffffff8211156106e8576106e7610652565b5b6106f182610641565b9050602081019050919050565b82818337600083830152505050565b600061072061071b846106cd565b6106b2565b90508281526020810184848401111561073c5761073b61063c565b5b6107478482856106fe565b509392505050565b600082601f83011261076457610763610637565b5b813561077484826020860161070d565b91505092915050565b6000819050919050565b6107908161077d565b811461079b57600080fd5b50565b6000813590506107ad81610787565b92915050565b600073ffffffffffffffffffffffffffffffffffffffff82169050919050565b60006107de826107b3565b9050919050565b6107ee816107d3565b81146107f957600080fd5b50565b60008135905061080b816107e5565b92915050565b6000806000806080858703121561082b5761082a61062d565b5b600085013567ffffffffffffffff81111561084957610848610632565b5b6108558782880161074f565b945050602085013567ffffffffffffffff81111561087657610875610632565b5b6108828782880161074f565b93505060406108938782880161079e565b92505060606108a4878288016107fc565b91505092959194509250565b6108b9816107d3565b82525050565b60006020820190506108d460008301846108b0565b92915050565b600081519050919050565b600082825260208201905092915050565b60005b838110156109145780820151818401526020810190506108f9565b83811115610923576000848401525b50505050565b6000610934826108da565b61093e81856108e5565b935061094e8185602086016108f6565b61095781610641565b840191505092915050565b7f4e487b7100000000000000000000000000000000000000000000000000000000600052602160045260246000fd5b600181106109a2576109a1610962565b5b50565b60008190506109b382610991565b919050565b60006109c3826109a5565b9050919050565b6109d3816109b8565b82525050565b6109e2816107d3565b82525050565b60006080830160008301518482036000860152610a058282610929565b91505060208301518482036020860152610a1f8282610929565b9150506040830151610a3460408601826109ca565b506060830151610a4760608601826109d9565b508091505092915050565b60006020820190508181036000830152610a6c81846109e8565b905092915050565b600082825260208201905092915050565b7f41646472657373206973206e6f742076616c69642e0000000000000000000000600082015250565b6000610abb601583610a74565b9150610ac682610a85565b602082019050919050565b60006020820190508181036000830152610aea81610aae565b9050919050565b7f4163636573732044656e696564212e2e2e000000000000000000000000000000600082015250565b6000610b27601183610a74565b9150610b3282610af1565b602082019050919050565b60006020820190508181036000830152610b5681610b1a565b9050919050565b7f4e487b7100000000000000000000000000000000000000000000000000000000600052601160045260246000fd5b6000610b978261077d565b9150610ba28361077d565b9250827fffffffffffffffffffffffffffffffffffffffffffffffffffffffffffffffff03821115610bd757610bd6610b5d565b5b828201905092915050565b7f4e487b7100000000000000000000000000000000000000000000000000000000600052603260045260246000fd5b7f4e487b7100000000000000000000000000000000000000000000000000000000600052602260045260246000fd5b60006002820490506001821680610c5857607f821691505b60208210811415610c6c57610c6b610c11565b5b5091905056fea2646970667358221220274db8be5f0cb723929b2a7b2304cba28f02d1737c30e37d8a21741ec267ac7c64736f6c634300080b0033",
	"immutableReferences": {},
	"source": "// SPDX-License-Identifier: MIT\r\npragma solidity >=0.8.0 <0.9.0;\r\n\r\ncontract AdminChain {\r\n    Admin[] private admins;\r\n    uint256 private adminNumbers = 0;\r\n    address public owner = msg.sender;\r\n\r\n    struct Admin {\r\n        string _firstname;\r\n        string _lastname;\r\n        AdminRoles _role;\r\n        address _walletAddress;\r\n    }\r\n\r\n    enum AdminRoles {\r\n        AdminMighty\r\n    }\r\n\r\n    constructor() {}\r\n\r\n    modifier onlyAdmin() {\r\n        require(address(0x0) != msg.sender, \"Address is not valid.\");\r\n        _;\r\n    }\r\n\r\n    function createtAdmin(string memory _firstname, string memory _lastname, uint256 _role, address _wallet) public onlyAdmin {\r\n        require(adminNumbers == 0, \"Access Denied!...\");\r\n        admins.push(Admin(_firstname, _lastname, AdminRoles(_role), _wallet));\r\n        adminNumbers += 102;\r\n    }\r\n\r\n    function getAdminInfo() public view onlyAdmin returns (Admin memory) {\r\n        return admins[0];\r\n    }\r\n}\r\n",
	"sourcePath": "/mnt/c/Users/Beniamin/source/repos/DissertationProject/contracts/AdminChain.sol",
	"compiler": {
		"name": "solc",
		"version": "0.8.11+commit.d7f03943.Emscripten.clang"
	},
	"schemaVersion": "3.4.3",
	"updatedAt": "2022-01-12T08:32:47.366Z",
	"networkType": "ethereum",
	"devdoc": {
		"kind": "dev",
		"methods": {},
		"version": 1
	},
	"userdoc": {
		"kind": "user",
		"methods": {},
		"version": 1
	}
}