{
  "contractName": "AdminChain",
  "abi": [
    {
      "inputs": [
        {
          "internalType": "string",
          "name": "_username",
          "type": "string"
        },
        {
          "internalType": "bytes32",
          "name": "_email",
          "type": "bytes32"
        },
        {
          "internalType": "bytes32",
          "name": "_firstname",
          "type": "bytes32"
        },
        {
          "internalType": "bytes32",
          "name": "_lastname",
          "type": "bytes32"
        },
        {
          "internalType": "uint256",
          "name": "_role",
          "type": "uint256"
        },
        {
          "internalType": "address",
          "name": "_walletAddress",
          "type": "address"
        }
      ],
      "stateMutability": "nonpayable",
      "type": "constructor"
    },
    {
      "anonymous": false,
      "inputs": [
        {
          "indexed": false,
          "internalType": "uint256",
          "name": "_index",
          "type": "uint256"
        },
        {
          "indexed": true,
          "internalType": "string",
          "name": "_username",
          "type": "string"
        },
        {
          "indexed": false,
          "internalType": "bytes32",
          "name": "_email",
          "type": "bytes32"
        },
        {
          "indexed": false,
          "internalType": "bytes32",
          "name": "_firstname",
          "type": "bytes32"
        },
        {
          "indexed": false,
          "internalType": "bytes32",
          "name": "_lastname",
          "type": "bytes32"
        },
        {
          "indexed": true,
          "internalType": "enum UserChain.Roles",
          "name": "_role",
          "type": "uint8"
        },
        {
          "indexed": true,
          "internalType": "address",
          "name": "_walletAddress",
          "type": "address"
        },
        {
          "indexed": false,
          "internalType": "uint256",
          "name": "_timestamp",
          "type": "uint256"
        }
      ],
      "name": "UserEvent",
      "type": "event"
    },
    {
      "inputs": [
        {
          "internalType": "uint256",
          "name": "_role",
          "type": "uint256"
        },
        {
          "internalType": "address",
          "name": "_walletAddress",
          "type": "address"
        }
      ],
      "name": "changeUserRole",
      "outputs": [],
      "stateMutability": "nonpayable",
      "type": "function"
    },
    {
      "inputs": [],
      "name": "email",
      "outputs": [
        {
          "internalType": "bytes32",
          "name": "",
          "type": "bytes32"
        }
      ],
      "stateMutability": "view",
      "type": "function",
      "constant": true
    },
    {
      "inputs": [],
      "name": "firstname",
      "outputs": [
        {
          "internalType": "bytes32",
          "name": "",
          "type": "bytes32"
        }
      ],
      "stateMutability": "view",
      "type": "function",
      "constant": true
    },
    {
      "inputs": [],
      "name": "getAllUsers",
      "outputs": [
        {
          "components": [
            {
              "internalType": "uint256",
              "name": "_index",
              "type": "uint256"
            },
            {
              "internalType": "string",
              "name": "_username",
              "type": "string"
            },
            {
              "internalType": "bytes32",
              "name": "_email",
              "type": "bytes32"
            },
            {
              "internalType": "bytes32",
              "name": "_firstname",
              "type": "bytes32"
            },
            {
              "internalType": "bytes32",
              "name": "_lastname",
              "type": "bytes32"
            },
            {
              "internalType": "enum UserChain.Roles",
              "name": "_role",
              "type": "uint8"
            },
            {
              "internalType": "address",
              "name": "_walletAddress",
              "type": "address"
            },
            {
              "internalType": "uint256",
              "name": "_timestamp",
              "type": "uint256"
            }
          ],
          "internalType": "struct UserChain.User[]",
          "name": "",
          "type": "tuple[]"
        }
      ],
      "stateMutability": "view",
      "type": "function",
      "constant": true
    },
    {
      "inputs": [
        {
          "internalType": "address",
          "name": "_walletAddress",
          "type": "address"
        }
      ],
      "name": "getUserInfo",
      "outputs": [
        {
          "components": [
            {
              "internalType": "uint256",
              "name": "_index",
              "type": "uint256"
            },
            {
              "internalType": "string",
              "name": "_username",
              "type": "string"
            },
            {
              "internalType": "bytes32",
              "name": "_email",
              "type": "bytes32"
            },
            {
              "internalType": "bytes32",
              "name": "_firstname",
              "type": "bytes32"
            },
            {
              "internalType": "bytes32",
              "name": "_lastname",
              "type": "bytes32"
            },
            {
              "internalType": "enum UserChain.Roles",
              "name": "_role",
              "type": "uint8"
            },
            {
              "internalType": "address",
              "name": "_walletAddress",
              "type": "address"
            },
            {
              "internalType": "uint256",
              "name": "_timestamp",
              "type": "uint256"
            }
          ],
          "internalType": "struct UserChain.User",
          "name": "",
          "type": "tuple"
        }
      ],
      "stateMutability": "view",
      "type": "function",
      "constant": true
    },
    {
      "inputs": [],
      "name": "lastname",
      "outputs": [
        {
          "internalType": "bytes32",
          "name": "",
          "type": "bytes32"
        }
      ],
      "stateMutability": "view",
      "type": "function",
      "constant": true
    },
    {
      "inputs": [],
      "name": "owner",
      "outputs": [
        {
          "internalType": "address",
          "name": "",
          "type": "address"
        }
      ],
      "stateMutability": "view",
      "type": "function",
      "constant": true
    },
    {
      "inputs": [
        {
          "internalType": "string",
          "name": "_username",
          "type": "string"
        },
        {
          "internalType": "bytes32",
          "name": "_email",
          "type": "bytes32"
        },
        {
          "internalType": "bytes32",
          "name": "_firstname",
          "type": "bytes32"
        },
        {
          "internalType": "bytes32",
          "name": "_lastname",
          "type": "bytes32"
        },
        {
          "internalType": "uint256",
          "name": "_role",
          "type": "uint256"
        },
        {
          "internalType": "address",
          "name": "_walletAddress",
          "type": "address"
        }
      ],
      "name": "registerUser",
      "outputs": [],
      "stateMutability": "nonpayable",
      "type": "function"
    },
    {
      "inputs": [],
      "name": "role",
      "outputs": [
        {
          "internalType": "enum UserChain.Roles",
          "name": "",
          "type": "uint8"
        }
      ],
      "stateMutability": "view",
      "type": "function",
      "constant": true
    },
    {
      "inputs": [],
      "name": "username",
      "outputs": [
        {
          "internalType": "string",
          "name": "",
          "type": "string"
        }
      ],
      "stateMutability": "view",
      "type": "function",
      "constant": true
    },
    {
      "inputs": [
        {
          "internalType": "address",
          "name": "",
          "type": "address"
        }
      ],
      "name": "users",
      "outputs": [
        {
          "internalType": "uint256",
          "name": "_index",
          "type": "uint256"
        },
        {
          "internalType": "string",
          "name": "_username",
          "type": "string"
        },
        {
          "internalType": "bytes32",
          "name": "_email",
          "type": "bytes32"
        },
        {
          "internalType": "bytes32",
          "name": "_firstname",
          "type": "bytes32"
        },
        {
          "internalType": "bytes32",
          "name": "_lastname",
          "type": "bytes32"
        },
        {
          "internalType": "enum UserChain.Roles",
          "name": "_role",
          "type": "uint8"
        },
        {
          "internalType": "address",
          "name": "_walletAddress",
          "type": "address"
        },
        {
          "internalType": "uint256",
          "name": "_timestamp",
          "type": "uint256"
        }
      ],
      "stateMutability": "view",
      "type": "function",
      "constant": true
    },
    {
      "inputs": [
        {
          "internalType": "uint256",
          "name": "",
          "type": "uint256"
        }
      ],
      "name": "usersAddress",
      "outputs": [
        {
          "internalType": "address",
          "name": "",
          "type": "address"
        }
      ],
      "stateMutability": "view",
      "type": "function",
      "constant": true
    },
    {
      "inputs": [],
      "name": "usersCounter",
      "outputs": [
        {
          "internalType": "uint256",
          "name": "",
          "type": "uint256"
        }
      ],
      "stateMutability": "view",
      "type": "function",
      "constant": true
    },
    {
      "inputs": [],
      "name": "walletAddress",
      "outputs": [
        {
          "internalType": "address",
          "name": "",
          "type": "address"
        }
      ],
      "stateMutability": "view",
      "type": "function",
      "constant": true
    },
    {
      "inputs": [],
      "name": "getAdminData",
      "outputs": [
        {
          "components": [
            {
              "internalType": "uint256",
              "name": "_index",
              "type": "uint256"
            },
            {
              "internalType": "string",
              "name": "_username",
              "type": "string"
            },
            {
              "internalType": "bytes32",
              "name": "_email",
              "type": "bytes32"
            },
            {
              "internalType": "bytes32",
              "name": "_firstname",
              "type": "bytes32"
            },
            {
              "internalType": "bytes32",
              "name": "_lastname",
              "type": "bytes32"
            },
            {
              "internalType": "enum UserChain.Roles",
              "name": "_role",
              "type": "uint8"
            },
            {
              "internalType": "address",
              "name": "_walletAddress",
              "type": "address"
            },
            {
              "internalType": "uint256",
              "name": "_timestamp",
              "type": "uint256"
            }
          ],
          "internalType": "struct UserChain.User",
          "name": "",
          "type": "tuple"
        }
      ],
      "stateMutability": "view",
      "type": "function",
      "constant": true
    }
  ],
  "bytecode": "0x608060405260006003553480156200001657600080fd5b50604051620022b8380380620022b883398181016040528101906200003c919062000461565b336000806101000a81548173ffffffffffffffffffffffffffffffffffffffff021916908373ffffffffffffffffffffffffffffffffffffffff16021790555085600490805190602001906200009492919062000139565b50846005819055508360068190555082600781905550816003811115620000c057620000bf6200051c565b5b600860006101000a81548160ff02191690836003811115620000e757620000e66200051c565b5b021790555080600860016101000a81548173ffffffffffffffffffffffffffffffffffffffff021916908373ffffffffffffffffffffffffffffffffffffffff160217905550505050505050620005b0565b82805462000147906200057a565b90600052602060002090601f0160209004810192826200016b5760008555620001b7565b82601f106200018657805160ff1916838001178555620001b7565b82800160010185558215620001b7579182015b82811115620001b657825182559160200191906001019062000199565b5b509050620001c69190620001ca565b5090565b5b80821115620001e5576000816000905550600101620001cb565b5090565b6000604051905090565b600080fd5b600080fd5b600080fd5b600080fd5b6000601f19601f8301169050919050565b7f4e487b7100000000000000000000000000000000000000000000000000000000600052604160045260246000fd5b620002528262000207565b810181811067ffffffffffffffff8211171562000274576200027362000218565b5b80604052505050565b600062000289620001e9565b905062000297828262000247565b919050565b600067ffffffffffffffff821115620002ba57620002b962000218565b5b620002c58262000207565b9050602081019050919050565b60005b83811015620002f2578082015181840152602081019050620002d5565b8381111562000302576000848401525b50505050565b60006200031f62000319846200029c565b6200027d565b9050828152602081018484840111156200033e576200033d62000202565b5b6200034b848285620002d2565b509392505050565b600082601f8301126200036b576200036a620001fd565b5b81516200037d84826020860162000308565b91505092915050565b6000819050919050565b6200039b8162000386565b8114620003a757600080fd5b50565b600081519050620003bb8162000390565b92915050565b6000819050919050565b620003d681620003c1565b8114620003e257600080fd5b50565b600081519050620003f681620003cb565b92915050565b600073ffffffffffffffffffffffffffffffffffffffff82169050919050565b60006200042982620003fc565b9050919050565b6200043b816200041c565b81146200044757600080fd5b50565b6000815190506200045b8162000430565b92915050565b60008060008060008060c08789031215620004815762000480620001f3565b5b600087015167ffffffffffffffff811115620004a257620004a1620001f8565b5b620004b089828a0162000353565b9650506020620004c389828a01620003aa565b9550506040620004d689828a01620003aa565b9450506060620004e989828a01620003aa565b9350506080620004fc89828a01620003e5565b92505060a06200050f89828a016200044a565b9150509295509295509295565b7f4e487b7100000000000000000000000000000000000000000000000000000000600052602160045260246000fd5b7f4e487b7100000000000000000000000000000000000000000000000000000000600052602260045260246000fd5b600060028204905060018216806200059357607f821691505b60208210811415620005aa57620005a96200054b565b5b50919050565b611cf880620005c06000396000f3fe608060405234801561001057600080fd5b50600436106100f55760003560e01c80638da5cb5b11610097578063cf13f5d411610066578063cf13f5d41461027f578063d67b1b991461029b578063e2842d79146102b9578063ffbee270146102d7576100f5565b80638da5cb5b146101f05780638f7a844b1461020e578063910097861461022c578063a87430ba14610248576100f5565b80636386c1c7116100d35780636386c1c7146101665780636ad5b3ea14610196578063820e93f5146101b45780638417ad85146101d2576100f5565b806310055c1d146100fa5780632c91324c1461011857806361fac54d14610148575b600080fd5b6101026102f5565b60405161010f91906111e2565b60405180910390f35b610132600480360381019061012d9190611247565b610308565b60405161013f91906112b5565b60405180910390f35b610150610347565b60405161015d9190611369565b60405180910390f35b610180600480360381019061017b91906113b7565b6103d5565b60405161018d9190611524565b60405180910390f35b61019e610584565b6040516101ab91906112b5565b60405180910390f35b6101bc6105aa565b6040516101c99190611555565b60405180910390f35b6101da6105b0565b6040516101e79190611555565b60405180910390f35b6101f86105b6565b60405161020591906112b5565b60405180910390f35b6102166105da565b6040516102239190611524565b60405180910390f35b61024660048036038101906102419190611570565b610741565b005b610262600480360381019061025d91906113b7565b61099b565b6040516102769897969594939291906115bf565b60405180910390f35b610299600480360381019061029491906117a5565b610a98565b005b6102a3610dba565b6040516102b0919061184e565b60405180910390f35b6102c1610dc0565b6040516102ce91906119db565b60405180910390f35b6102df61104c565b6040516102ec9190611555565b60405180910390f35b600860009054906101000a900460ff1681565b6002818154811061031857600080fd5b906000526020600020016000915054906101000a900473ffffffffffffffffffffffffffffffffffffffff1681565b6004805461035490611a2c565b80601f016020809104026020016040519081016040528092919081815260200182805461038090611a2c565b80156103cd5780601f106103a2576101008083540402835291602001916103cd565b820191906000526020600020905b8154815290600101906020018083116103b057829003601f168201915b505050505081565b6103dd611052565b600160008373ffffffffffffffffffffffffffffffffffffffff1673ffffffffffffffffffffffffffffffffffffffff168152602001908152602001600020604051806101000160405290816000820154815260200160018201805461044290611a2c565b80601f016020809104026020016040519081016040528092919081815260200182805461046e90611a2c565b80156104bb5780601f10610490576101008083540402835291602001916104bb565b820191906000526020600020905b81548152906001019060200180831161049e57829003601f168201915b505050505081526020016002820154815260200160038201548152602001600482015481526020016005820160009054906101000a900460ff1660038111156105075761050661116b565b5b60038111156105195761051861116b565b5b81526020016005820160019054906101000a900473ffffffffffffffffffffffffffffffffffffffff1673ffffffffffffffffffffffffffffffffffffffff1673ffffffffffffffffffffffffffffffffffffffff1681526020016006820154815250509050919050565b600860019054906101000a900473ffffffffffffffffffffffffffffffffffffffff1681565b60055481565b60065481565b60008054906101000a900473ffffffffffffffffffffffffffffffffffffffff1681565b6105e2611052565b6105ea611052565b600480546105f790611a2c565b80601f016020809104026020016040519081016040528092919081815260200182805461062390611a2c565b80156106705780601f1061064557610100808354040283529160200191610670565b820191906000526020600020905b81548152906001019060200180831161065357829003601f168201915b50505050508160200181905250600554816040018181525050600654816060018181525050600754816080018181525050600860009054906101000a900460ff168160a0019060038111156106c8576106c761116b565b5b908160038111156106dc576106db61116b565b5b81525050600860019054906101000a900473ffffffffffffffffffffffffffffffffffffffff168160c0019073ffffffffffffffffffffffffffffffffffffffff16908173ffffffffffffffffffffffffffffffffffffffff16815250508091505090565b8160038111156107545761075361116b565b5b600160008373ffffffffffffffffffffffffffffffffffffffff1673ffffffffffffffffffffffffffffffffffffffff16815260200190815260200160002060050160006101000a81548160ff021916908360038111156107b8576107b761116b565b5b02179055508073ffffffffffffffffffffffffffffffffffffffff168260038111156107e7576107e661116b565b5b60038111156107f9576107f861116b565b5b600160008473ffffffffffffffffffffffffffffffffffffffff1673ffffffffffffffffffffffffffffffffffffffff1681526020019081526020016000206001016040516108489190611afd565b60405180910390207ff17f3effabbd51830c4ffa8b6910ac12573d210009e0aedb1a55ae5026192e9a600160008673ffffffffffffffffffffffffffffffffffffffff1673ffffffffffffffffffffffffffffffffffffffff16815260200190815260200160002060000154600160008773ffffffffffffffffffffffffffffffffffffffff1673ffffffffffffffffffffffffffffffffffffffff16815260200190815260200160002060020154600160008873ffffffffffffffffffffffffffffffffffffffff1673ffffffffffffffffffffffffffffffffffffffff16815260200190815260200160002060030154600160008973ffffffffffffffffffffffffffffffffffffffff1673ffffffffffffffffffffffffffffffffffffffff168152602001908152602001600020600401544260405161098f959493929190611b14565b60405180910390a45050565b60016020528060005260406000206000915090508060000154908060010180546109c490611a2c565b80601f01602080910402602001604051908101604052809291908181526020018280546109f090611a2c565b8015610a3d5780601f10610a1257610100808354040283529160200191610a3d565b820191906000526020600020905b815481529060010190602001808311610a2057829003601f168201915b5050505050908060020154908060030154908060040154908060050160009054906101000a900460ff16908060050160019054906101000a900473ffffffffffffffffffffffffffffffffffffffff16908060060154905088565b3373ffffffffffffffffffffffffffffffffffffffff1660008054906101000a900473ffffffffffffffffffffffffffffffffffffffff1673ffffffffffffffffffffffffffffffffffffffff1614610b26576040517f08c379a0000000000000000000000000000000000000000000000000000000008152600401610b1d90611bb3565b60405180910390fd5b6040518061010001604052806003548152602001878152602001868152602001858152602001848152602001836003811115610b6557610b6461116b565b5b6003811115610b7757610b7661116b565b5b81526020018273ffffffffffffffffffffffffffffffffffffffff16815260200142815250600160008373ffffffffffffffffffffffffffffffffffffffff1673ffffffffffffffffffffffffffffffffffffffff168152602001908152602001600020600082015181600001556020820151816001019080519060200190610c019291906110c8565b5060408201518160020155606082015181600301556080820151816004015560a08201518160050160006101000a81548160ff02191690836003811115610c4b57610c4a61116b565b5b021790555060c08201518160050160016101000a81548173ffffffffffffffffffffffffffffffffffffffff021916908373ffffffffffffffffffffffffffffffffffffffff16021790555060e082015181600601559050508073ffffffffffffffffffffffffffffffffffffffff16826003811115610cce57610ccd61116b565b5b6003811115610ce057610cdf61116b565b5b87604051610cee9190611c04565b60405180910390207ff17f3effabbd51830c4ffa8b6910ac12573d210009e0aedb1a55ae5026192e9a60035489898942604051610d2f959493929190611b14565b60405180910390a46002819080600181540180825580915050600190039060005260206000200160009091909190916101000a81548173ffffffffffffffffffffffffffffffffffffffff021916908373ffffffffffffffffffffffffffffffffffffffff16021790555060036000815480929190610dad90611c4a565b9190505550505050505050565b60035481565b6060600060035467ffffffffffffffff811115610de057610ddf61164e565b5b604051908082528060200260200182016040528015610e1957816020015b610e06611052565b815260200190600190039081610dfe5790505b50905060005b60035481101561104457600060028281548110610e3f57610e3e611c93565b5b9060005260206000200160009054906101000a900473ffffffffffffffffffffffffffffffffffffffff1690506000600160008373ffffffffffffffffffffffffffffffffffffffff1673ffffffffffffffffffffffffffffffffffffffff1681526020019081526020016000209050806040518061010001604052908160008201548152602001600182018054610ed690611a2c565b80601f0160208091040260200160405190810160405280929190818152602001828054610f0290611a2c565b8015610f4f5780601f10610f2457610100808354040283529160200191610f4f565b820191906000526020600020905b815481529060010190602001808311610f3257829003601f168201915b505050505081526020016002820154815260200160038201548152602001600482015481526020016005820160009054906101000a900460ff166003811115610f9b57610f9a61116b565b5b6003811115610fad57610fac61116b565b5b81526020016005820160019054906101000a900473ffffffffffffffffffffffffffffffffffffffff1673ffffffffffffffffffffffffffffffffffffffff1673ffffffffffffffffffffffffffffffffffffffff16815260200160068201548152505084848151811061102457611023611c93565b5b60200260200101819052505050808061103c90611c4a565b915050610e1f565b508091505090565b60075481565b60405180610100016040528060008152602001606081526020016000801916815260200160008019168152602001600080191681526020016000600381111561109e5761109d61116b565b5b8152602001600073ffffffffffffffffffffffffffffffffffffffff168152602001600081525090565b8280546110d490611a2c565b90600052602060002090601f0160209004810192826110f6576000855561113d565b82601f1061110f57805160ff191683800117855561113d565b8280016001018555821561113d579182015b8281111561113c578251825591602001919060010190611121565b5b50905061114a919061114e565b5090565b5b8082111561116757600081600090555060010161114f565b5090565b7f4e487b7100000000000000000000000000000000000000000000000000000000600052602160045260246000fd5b600481106111ab576111aa61116b565b5b50565b60008190506111bc8261119a565b919050565b60006111cc826111ae565b9050919050565b6111dc816111c1565b82525050565b60006020820190506111f760008301846111d3565b92915050565b6000604051905090565b600080fd5b600080fd5b6000819050919050565b61122481611211565b811461122f57600080fd5b50565b6000813590506112418161121b565b92915050565b60006020828403121561125d5761125c611207565b5b600061126b84828501611232565b91505092915050565b600073ffffffffffffffffffffffffffffffffffffffff82169050919050565b600061129f82611274565b9050919050565b6112af81611294565b82525050565b60006020820190506112ca60008301846112a6565b92915050565b600081519050919050565b600082825260208201905092915050565b60005b8381101561130a5780820151818401526020810190506112ef565b83811115611319576000848401525b50505050565b6000601f19601f8301169050919050565b600061133b826112d0565b61134581856112db565b93506113558185602086016112ec565b61135e8161131f565b840191505092915050565b600060208201905081810360008301526113838184611330565b905092915050565b61139481611294565b811461139f57600080fd5b50565b6000813590506113b18161138b565b92915050565b6000602082840312156113cd576113cc611207565b5b60006113db848285016113a2565b91505092915050565b6113ed81611211565b82525050565b600082825260208201905092915050565b600061140f826112d0565b61141981856113f3565b93506114298185602086016112ec565b6114328161131f565b840191505092915050565b6000819050919050565b6114508161143d565b82525050565b61145f816111c1565b82525050565b61146e81611294565b82525050565b60006101008301600083015161148d60008601826113e4565b50602083015184820360208601526114a58282611404565b91505060408301516114ba6040860182611447565b5060608301516114cd6060860182611447565b5060808301516114e06080860182611447565b5060a08301516114f360a0860182611456565b5060c083015161150660c0860182611465565b5060e083015161151960e08601826113e4565b508091505092915050565b6000602082019050818103600083015261153e8184611474565b905092915050565b61154f8161143d565b82525050565b600060208201905061156a6000830184611546565b92915050565b6000806040838503121561158757611586611207565b5b600061159585828601611232565b92505060206115a6858286016113a2565b9150509250929050565b6115b981611211565b82525050565b6000610100820190506115d5600083018b6115b0565b81810360208301526115e7818a611330565b90506115f66040830189611546565b6116036060830188611546565b6116106080830187611546565b61161d60a08301866111d3565b61162a60c08301856112a6565b61163760e08301846115b0565b9998505050505050505050565b600080fd5b600080fd5b7f4e487b7100000000000000000000000000000000000000000000000000000000600052604160045260246000fd5b6116868261131f565b810181811067ffffffffffffffff821117156116a5576116a461164e565b5b80604052505050565b60006116b86111fd565b90506116c4828261167d565b919050565b600067ffffffffffffffff8211156116e4576116e361164e565b5b6116ed8261131f565b9050602081019050919050565b82818337600083830152505050565b600061171c611717846116c9565b6116ae565b90508281526020810184848401111561173857611737611649565b5b6117438482856116fa565b509392505050565b600082601f8301126117605761175f611644565b5b8135611770848260208601611709565b91505092915050565b6117828161143d565b811461178d57600080fd5b50565b60008135905061179f81611779565b92915050565b60008060008060008060c087890312156117c2576117c1611207565b5b600087013567ffffffffffffffff8111156117e0576117df61120c565b5b6117ec89828a0161174b565b96505060206117fd89828a01611790565b955050604061180e89828a01611790565b945050606061181f89828a01611790565b935050608061183089828a01611232565b92505060a061184189828a016113a2565b9150509295509295509295565b600060208201905061186360008301846115b0565b92915050565b600081519050919050565b600082825260208201905092915050565b6000819050602082019050919050565b6000610100830160008301516118ae60008601826113e4565b50602083015184820360208601526118c68282611404565b91505060408301516118db6040860182611447565b5060608301516118ee6060860182611447565b5060808301516119016080860182611447565b5060a083015161191460a0860182611456565b5060c083015161192760c0860182611465565b5060e083015161193a60e08601826113e4565b508091505092915050565b60006119518383611895565b905092915050565b6000602082019050919050565b600061197182611869565b61197b8185611874565b93508360208202850161198d85611885565b8060005b858110156119c957848403895281516119aa8582611945565b94506119b583611959565b925060208a01995050600181019050611991565b50829750879550505050505092915050565b600060208201905081810360008301526119f58184611966565b905092915050565b7f4e487b7100000000000000000000000000000000000000000000000000000000600052602260045260246000fd5b60006002820490506001821680611a4457607f821691505b60208210811415611a5857611a576119fd565b5b50919050565b600081905092915050565b60008190508160005260206000209050919050565b60008154611a8b81611a2c565b611a958186611a5e565b94506001821660008114611ab05760018114611ac157611af4565b60ff19831686528186019350611af4565b611aca85611a69565b60005b83811015611aec57815481890152600182019150602081019050611acd565b838801955050505b50505092915050565b6000611b098284611a7e565b915081905092915050565b600060a082019050611b2960008301886115b0565b611b366020830187611546565b611b436040830186611546565b611b506060830185611546565b611b5d60808301846115b0565b9695505050505050565b7f596f7520617265206e6f7420616e206f776e6572000000000000000000000000600082015250565b6000611b9d6014836112db565b9150611ba882611b67565b602082019050919050565b60006020820190508181036000830152611bcc81611b90565b9050919050565b6000611bde826112d0565b611be88185611a5e565b9350611bf88185602086016112ec565b80840191505092915050565b6000611c108284611bd3565b915081905092915050565b7f4e487b7100000000000000000000000000000000000000000000000000000000600052601160045260246000fd5b6000611c5582611211565b91507fffffffffffffffffffffffffffffffffffffffffffffffffffffffffffffffff821415611c8857611c87611c1b565b5b600182019050919050565b7f4e487b7100000000000000000000000000000000000000000000000000000000600052603260045260246000fdfea2646970667358221220dc8a2ce4dbe07649035c8051a9d9c6383dccee461d9c9d695e490c958c62879964736f6c634300080a0033",
  "immutableReferences": {},
  "source": "// SPDX-License-Identifier: MIT\r\npragma solidity >=0.8.0 <0.9.0;\r\n\r\nimport \"./UserChain.sol\";\r\n\r\ncontract AdminChain is UserChain {\r\n\r\n    string public username;\r\n    bytes32 public email;\r\n    bytes32 public firstname;\r\n    bytes32 public lastname;\r\n    Roles public role;\r\n    address public walletAddress;\r\n\r\n    constructor(\r\n        string memory _username,\r\n        bytes32 _email,\r\n        bytes32 _firstname,\r\n        bytes32 _lastname,\r\n        uint _role,\r\n        address _walletAddress\r\n    ) {\r\n        username = _username;\r\n        email = _email;\r\n        firstname= _firstname;\r\n        lastname = _lastname;\r\n        role = Roles(_role);\r\n        walletAddress = _walletAddress;\r\n    }\r\n\r\n    function getAdminData() public view returns(User memory) {\r\n        User memory user;\r\n\r\n        user._username = username;\r\n        user._email = email;\r\n        user._firstname = firstname;\r\n        user._lastname = lastname;\r\n        user._role = Roles(role);\r\n        user._walletAddress = walletAddress;\r\n\r\n        return user;\r\n    }\r\n}\r\n",
  "sourcePath": "/mnt/c/Users/Beniamin/source/repos/DissertationProject/contracts/AdminChain.sol",
  "compiler": {
    "name": "solc",
    "version": "0.8.10+commit.fc410830.Emscripten.clang"
  },
  "schemaVersion": "3.4.3",
  "updatedAt": "2021-11-26T14:30:34.135Z",
  "networkType": "ethereum",
  "devdoc": {
    "kind": "dev",
    "methods": {},
    "version": 1
  },
  "userdoc": {
    "kind": "user",
    "methods": {},
    "version": 1
  }
}