{
  "contractName": "AdminChain",
  "abi": [
    {
      "inputs": [],
      "stateMutability": "nonpayable",
      "type": "constructor"
    },
    {
      "inputs": [
        {
          "internalType": "string",
          "name": "_username",
          "type": "string"
        },
        {
          "internalType": "uint256",
          "name": "_role",
          "type": "uint256"
        },
        {
          "internalType": "address",
          "name": "_wallet",
          "type": "address"
        }
      ],
      "name": "createtAdmin",
      "outputs": [
        {
          "internalType": "string",
          "name": "",
          "type": "string"
        }
      ],
      "stateMutability": "nonpayable",
      "type": "function"
    },
    {
      "inputs": [],
      "name": "getAdminInfo",
      "outputs": [
        {
          "components": [
            {
              "internalType": "string",
              "name": "_username",
              "type": "string"
            },
            {
              "internalType": "enum AdminChain.AdminRoles",
              "name": "_role",
              "type": "uint8"
            },
            {
              "internalType": "address",
              "name": "_walletAddress",
              "type": "address"
            }
          ],
          "internalType": "struct AdminChain.Admin",
          "name": "",
          "type": "tuple"
        }
      ],
      "stateMutability": "view",
      "type": "function",
      "constant": true
    }
  ],
  "bytecode": "0x6080604052600060015534801561001557600080fd5b50610a1f806100256000396000f3fe608060405234801561001057600080fd5b50600436106100365760003560e01c8063338212101461003b578063c3d5fd391461006b575b600080fd5b61005560048036038101906100509190610679565b610089565b6040516100629190610770565b60405180910390f35b610073610243565b60405161008091906108b2565b60405180910390f35b60606000600154141561020357600060405180606001604052808681526020018560008111156100bc576100bb6107dc565b5b60008111156100ce576100cd6107dc565b5b81526020018473ffffffffffffffffffffffffffffffffffffffff16815250908060018154018082558091505060019003906000526020600020906002020160009091909190915060008201518160000190805190602001906101329291906103a0565b5060208201518160010160006101000a81548160ff0219169083600081111561015e5761015d6107dc565b5b021790555060408201518160010160016101000a81548173ffffffffffffffffffffffffffffffffffffffff021916908373ffffffffffffffffffffffffffffffffffffffff16021790555050506066600160008282546101bf9190610903565b925050819055506040518060400160405280600a81526020017f437265617465642e2e2e00000000000000000000000000000000000000000000815250905061023c565b6040518060400160405280601181526020017f4974206469646e277420776f726b2e2e2e00000000000000000000000000000081525090505b9392505050565b61024b610426565b6000808154811061025f5761025e610959565b5b9060005260206000209060020201604051806060016040529081600082018054610288906109b7565b80601f01602080910402602001604051908101604052809291908181526020018280546102b4906109b7565b80156103015780601f106102d657610100808354040283529160200191610301565b820191906000526020600020905b8154815290600101906020018083116102e457829003601f168201915b505050505081526020016001820160009054906101000a900460ff16600081111561032f5761032e6107dc565b5b6000811115610341576103406107dc565b5b81526020016001820160019054906101000a900473ffffffffffffffffffffffffffffffffffffffff1673ffffffffffffffffffffffffffffffffffffffff1673ffffffffffffffffffffffffffffffffffffffff1681525050905090565b8280546103ac906109b7565b90600052602060002090601f0160209004810192826103ce5760008555610415565b82601f106103e757805160ff1916838001178555610415565b82800160010185558215610415579182015b828111156104145782518255916020019190600101906103f9565b5b509050610422919061046e565b5090565b60405180606001604052806060815260200160008081111561044b5761044a6107dc565b5b8152602001600073ffffffffffffffffffffffffffffffffffffffff1681525090565b5b8082111561048757600081600090555060010161046f565b5090565b6000604051905090565b600080fd5b600080fd5b600080fd5b600080fd5b6000601f19601f8301169050919050565b7f4e487b7100000000000000000000000000000000000000000000000000000000600052604160045260246000fd5b6104f2826104a9565b810181811067ffffffffffffffff82111715610511576105106104ba565b5b80604052505050565b600061052461048b565b905061053082826104e9565b919050565b600067ffffffffffffffff8211156105505761054f6104ba565b5b610559826104a9565b9050602081019050919050565b82818337600083830152505050565b600061058861058384610535565b61051a565b9050828152602081018484840111156105a4576105a36104a4565b5b6105af848285610566565b509392505050565b600082601f8301126105cc576105cb61049f565b5b81356105dc848260208601610575565b91505092915050565b6000819050919050565b6105f8816105e5565b811461060357600080fd5b50565b600081359050610615816105ef565b92915050565b600073ffffffffffffffffffffffffffffffffffffffff82169050919050565b60006106468261061b565b9050919050565b6106568161063b565b811461066157600080fd5b50565b6000813590506106738161064d565b92915050565b60008060006060848603121561069257610691610495565b5b600084013567ffffffffffffffff8111156106b0576106af61049a565b5b6106bc868287016105b7565b93505060206106cd86828701610606565b92505060406106de86828701610664565b9150509250925092565b600081519050919050565b600082825260208201905092915050565b60005b83811015610722578082015181840152602081019050610707565b83811115610731576000848401525b50505050565b6000610742826106e8565b61074c81856106f3565b935061075c818560208601610704565b610765816104a9565b840191505092915050565b6000602082019050818103600083015261078a8184610737565b905092915050565b600082825260208201905092915050565b60006107ae826106e8565b6107b88185610792565b93506107c8818560208601610704565b6107d1816104a9565b840191505092915050565b7f4e487b7100000000000000000000000000000000000000000000000000000000600052602160045260246000fd5b6001811061081c5761081b6107dc565b5b50565b600081905061082d8261080b565b919050565b600061083d8261081f565b9050919050565b61084d81610832565b82525050565b61085c8161063b565b82525050565b6000606083016000830151848203600086015261087f82826107a3565b91505060208301516108946020860182610844565b5060408301516108a76040860182610853565b508091505092915050565b600060208201905081810360008301526108cc8184610862565b905092915050565b7f4e487b7100000000000000000000000000000000000000000000000000000000600052601160045260246000fd5b600061090e826105e5565b9150610919836105e5565b9250827fffffffffffffffffffffffffffffffffffffffffffffffffffffffffffffffff0382111561094e5761094d6108d4565b5b828201905092915050565b7f4e487b7100000000000000000000000000000000000000000000000000000000600052603260045260246000fd5b7f4e487b7100000000000000000000000000000000000000000000000000000000600052602260045260246000fd5b600060028204905060018216806109cf57607f821691505b602082108114156109e3576109e2610988565b5b5091905056fea26469706673582212203b1be1878a8f58074630c2e9903f19c95599e2619ee6bcbf4aeb3c189986728964736f6c634300080a0033",
  "immutableReferences": {},
  "source": "// SPDX-License-Identifier: MIT\r\npragma solidity >=0.8.0 <0.9.0;\r\n\r\ncontract AdminChain {\r\n    Admin[] private admins;\r\n    uint256 private adminNumbers = 0;\r\n\r\n    struct Admin {\r\n        string _username;\r\n        AdminRoles _role;\r\n        address _walletAddress;\r\n    }\r\n\r\n    enum AdminRoles {\r\n        AdminMighty\r\n    }\r\n\r\n    constructor() {}\r\n\r\n    modifier onlyAdmin() {\r\n        //require(address(0xf08B741073b3Cb01ef6fB3B412E71C977F276fAa) == msg.sender, \"You are not the right user.\");\r\n        _;\r\n    }\r\n\r\n    function createtAdmin(string memory _username, uint256 _role, address _wallet) public onlyAdmin returns (string memory) {\r\n        //require(adminNumbers == 0, \"Access Denied!...\");\r\n        if (adminNumbers == 0) {\r\n            admins.push(Admin(_username, AdminRoles(_role), _wallet));\r\n            adminNumbers += 102;\r\n            return \"Created...\";\r\n        }\r\n        return \"It didn't work...\";\r\n    }\r\n\r\n    function getAdminInfo() public view onlyAdmin returns (Admin memory) {\r\n        return admins[0];\r\n    }\r\n}\r\n",
  "sourcePath": "/mnt/c/Users/Beniamin/source/repos/DissertationProject/contracts/AdminChain.sol",
  "compiler": {
    "name": "solc",
    "version": "0.8.10+commit.fc410830.Emscripten.clang"
  },
  "schemaVersion": "3.4.3",
  "updatedAt": "2021-12-11T17:56:40.804Z",
  "networkType": "ethereum",
  "devdoc": {
    "kind": "dev",
    "methods": {},
    "version": 1
  },
  "userdoc": {
    "kind": "user",
    "methods": {},
    "version": 1
  }
}