{
  "contractName": "AdminChain",
  "abi": [
    {
      "inputs": [],
      "stateMutability": "nonpayable",
      "type": "constructor"
    },
    {
      "inputs": [
        {
          "internalType": "uint256",
          "name": "",
          "type": "uint256"
        }
      ],
      "name": "admins",
      "outputs": [
        {
          "internalType": "string",
          "name": "_username",
          "type": "string"
        },
        {
          "internalType": "enum AdminChain.AdminRoles",
          "name": "_role",
          "type": "uint8"
        },
        {
          "internalType": "address",
          "name": "_walletAddress",
          "type": "address"
        }
      ],
      "stateMutability": "view",
      "type": "function",
      "constant": true
    },
    {
      "inputs": [
        {
          "internalType": "string",
          "name": "_username",
          "type": "string"
        },
        {
          "internalType": "uint256",
          "name": "_role",
          "type": "uint256"
        },
        {
          "internalType": "address",
          "name": "_wallet",
          "type": "address"
        }
      ],
      "name": "createtAdmin",
      "outputs": [
        {
          "internalType": "string",
          "name": "",
          "type": "string"
        }
      ],
      "stateMutability": "nonpayable",
      "type": "function"
    },
    {
      "inputs": [],
      "name": "getAdminInfo",
      "outputs": [
        {
          "components": [
            {
              "internalType": "string",
              "name": "_username",
              "type": "string"
            },
            {
              "internalType": "enum AdminChain.AdminRoles",
              "name": "_role",
              "type": "uint8"
            },
            {
              "internalType": "address",
              "name": "_walletAddress",
              "type": "address"
            }
          ],
          "internalType": "struct AdminChain.Admin",
          "name": "",
          "type": "tuple"
        }
      ],
      "stateMutability": "view",
      "type": "function",
      "constant": true
    },
    {
      "inputs": [],
      "name": "getRequestTypeDropdown",
      "outputs": [
        {
          "components": [
            {
              "internalType": "uint256",
              "name": "id",
              "type": "uint256"
            },
            {
              "internalType": "string",
              "name": "value",
              "type": "string"
            }
          ],
          "internalType": "struct AdminChain.RequestTypeDropdown[]",
          "name": "",
          "type": "tuple[]"
        }
      ],
      "stateMutability": "pure",
      "type": "function",
      "constant": true
    },
    {
      "inputs": [],
      "name": "getAddressZero",
      "outputs": [
        {
          "internalType": "string",
          "name": "",
          "type": "string"
        }
      ],
      "stateMutability": "pure",
      "type": "function",
      "constant": true
    }
  ],
  "bytecode": "0x6080604052600060015534801561001557600080fd5b50610ef0806100256000396000f3fe608060405234801561001057600080fd5b50600436106100575760003560e01c806314bfd6d01461005c578063338212101461008e578063757c0044146100be578063bc53a794146100dc578063c3d5fd39146100fa575b600080fd5b610076600480360381019061007191906107c3565b610118565b60405161008593929190610941565b60405180910390f35b6100a860048036038101906100a39190610ae0565b610207565b6040516100b59190610b4f565b60405180910390f35b6100c66103c1565b6040516100d39190610cc9565b60405180910390f35b6100e46104f7565b6040516100f19190610b4f565b60405180910390f35b610102610517565b60405161010f9190610d59565b60405180910390f35b6000818154811061012857600080fd5b906000526020600020906002020160009150905080600001805461014b90610daa565b80601f016020809104026020016040519081016040528092919081815260200182805461017790610daa565b80156101c45780601f10610199576101008083540402835291602001916101c4565b820191906000526020600020905b8154815290600101906020018083116101a757829003601f168201915b5050505050908060010160009054906101000a900460ff16908060010160019054906101000a900473ffffffffffffffffffffffffffffffffffffffff16905083565b606060006001541415610381576000604051806060016040528086815260200185600081111561023a57610239610889565b5b600081111561024c5761024b610889565b5b81526020018473ffffffffffffffffffffffffffffffffffffffff16815250908060018154018082558091505060019003906000526020600020906002020160009091909190915060008201518160000190805190602001906102b0929190610674565b5060208201518160010160006101000a81548160ff021916908360008111156102dc576102db610889565b5b021790555060408201518160010160016101000a81548173ffffffffffffffffffffffffffffffffffffffff021916908373ffffffffffffffffffffffffffffffffffffffff160217905550505060666001600082825461033d9190610e0b565b925050819055506040518060400160405280600e81526020017f41646d696e2041646465642e2e2e00000000000000000000000000000000000081525090506103ba565b6040518060400160405280601181526020017f4974206469646e277420776f726b2e2e2e00000000000000000000000000000081525090505b9392505050565b60606000600367ffffffffffffffff8111156103e0576103df610989565b5b60405190808252806020026020018201604052801561041957816020015b6104066106fa565b8152602001906001900390816103fe5790505b5090506040518060400160405280600081526020016040518060400160405280600d81526020017f53757065727669736f72526571000000000000000000000000000000000000008152508152508160008151811061047b5761047a610e61565b5b60200260200101819052506040518060400160405280600181526020016040518060400160405280600a81526020017f436f6d70616e7952657100000000000000000000000000000000000000000000815250815250816001815181106104e5576104e4610e61565b5b60200260200101819052508091505090565b60606040518060600160405280602a8152602001610e91602a9139905090565b61051f610714565b6000808154811061053357610532610e61565b5b906000526020600020906002020160405180606001604052908160008201805461055c90610daa565b80601f016020809104026020016040519081016040528092919081815260200182805461058890610daa565b80156105d55780601f106105aa576101008083540402835291602001916105d5565b820191906000526020600020905b8154815290600101906020018083116105b857829003601f168201915b505050505081526020016001820160009054906101000a900460ff16600081111561060357610602610889565b5b600081111561061557610614610889565b5b81526020016001820160019054906101000a900473ffffffffffffffffffffffffffffffffffffffff1673ffffffffffffffffffffffffffffffffffffffff1673ffffffffffffffffffffffffffffffffffffffff1681525050905090565b82805461068090610daa565b90600052602060002090601f0160209004810192826106a257600085556106e9565b82601f106106bb57805160ff19168380011785556106e9565b828001600101855582156106e9579182015b828111156106e85782518255916020019190600101906106cd565b5b5090506106f6919061075c565b5090565b604051806040016040528060008152602001606081525090565b60405180606001604052806060815260200160008081111561073957610738610889565b5b8152602001600073ffffffffffffffffffffffffffffffffffffffff1681525090565b5b8082111561077557600081600090555060010161075d565b5090565b6000604051905090565b600080fd5b600080fd5b6000819050919050565b6107a08161078d565b81146107ab57600080fd5b50565b6000813590506107bd81610797565b92915050565b6000602082840312156107d9576107d8610783565b5b60006107e7848285016107ae565b91505092915050565b600081519050919050565b600082825260208201905092915050565b60005b8381101561082a57808201518184015260208101905061080f565b83811115610839576000848401525b50505050565b6000601f19601f8301169050919050565b600061085b826107f0565b61086581856107fb565b935061087581856020860161080c565b61087e8161083f565b840191505092915050565b7f4e487b7100000000000000000000000000000000000000000000000000000000600052602160045260246000fd5b600181106108c9576108c8610889565b5b50565b60008190506108da826108b8565b919050565b60006108ea826108cc565b9050919050565b6108fa816108df565b82525050565b600073ffffffffffffffffffffffffffffffffffffffff82169050919050565b600061092b82610900565b9050919050565b61093b81610920565b82525050565b6000606082019050818103600083015261095b8186610850565b905061096a60208301856108f1565b6109776040830184610932565b949350505050565b600080fd5b600080fd5b7f4e487b7100000000000000000000000000000000000000000000000000000000600052604160045260246000fd5b6109c18261083f565b810181811067ffffffffffffffff821117156109e0576109df610989565b5b80604052505050565b60006109f3610779565b90506109ff82826109b8565b919050565b600067ffffffffffffffff821115610a1f57610a1e610989565b5b610a288261083f565b9050602081019050919050565b82818337600083830152505050565b6000610a57610a5284610a04565b6109e9565b905082815260208101848484011115610a7357610a72610984565b5b610a7e848285610a35565b509392505050565b600082601f830112610a9b57610a9a61097f565b5b8135610aab848260208601610a44565b91505092915050565b610abd81610920565b8114610ac857600080fd5b50565b600081359050610ada81610ab4565b92915050565b600080600060608486031215610af957610af8610783565b5b600084013567ffffffffffffffff811115610b1757610b16610788565b5b610b2386828701610a86565b9350506020610b34868287016107ae565b9250506040610b4586828701610acb565b9150509250925092565b60006020820190508181036000830152610b698184610850565b905092915050565b600081519050919050565b600082825260208201905092915050565b6000819050602082019050919050565b610ba68161078d565b82525050565b600082825260208201905092915050565b6000610bc8826107f0565b610bd28185610bac565b9350610be281856020860161080c565b610beb8161083f565b840191505092915050565b6000604083016000830151610c0e6000860182610b9d565b5060208301518482036020860152610c268282610bbd565b9150508091505092915050565b6000610c3f8383610bf6565b905092915050565b6000602082019050919050565b6000610c5f82610b71565b610c698185610b7c565b935083602082028501610c7b85610b8d565b8060005b85811015610cb75784840389528151610c988582610c33565b9450610ca383610c47565b925060208a01995050600181019050610c7f565b50829750879550505050505092915050565b60006020820190508181036000830152610ce38184610c54565b905092915050565b610cf4816108df565b82525050565b610d0381610920565b82525050565b60006060830160008301518482036000860152610d268282610bbd565b9150506020830151610d3b6020860182610ceb565b506040830151610d4e6040860182610cfa565b508091505092915050565b60006020820190508181036000830152610d738184610d09565b905092915050565b7f4e487b7100000000000000000000000000000000000000000000000000000000600052602260045260246000fd5b60006002820490506001821680610dc257607f821691505b60208210811415610dd657610dd5610d7b565b5b50919050565b7f4e487b7100000000000000000000000000000000000000000000000000000000600052601160045260246000fd5b6000610e168261078d565b9150610e218361078d565b9250827fffffffffffffffffffffffffffffffffffffffffffffffffffffffffffffffff03821115610e5657610e55610ddc565b5b828201905092915050565b7f4e487b7100000000000000000000000000000000000000000000000000000000600052603260045260246000fdfe307830303030303030303030303030303030303030303030303030303030303030303030303030303030a2646970667358221220bcaaaa5a7e230c1afbf8fdc02b168144df90532c823b5d2a9f371961af9be6ec64736f6c634300080a0033",
  "immutableReferences": {},
  "source": "// SPDX-License-Identifier: MIT\r\npragma solidity >=0.8.0 <0.9.0;\r\n\r\ncontract AdminChain {\r\n    Admin[] public admins;\r\n    uint private adminNumbers = 0;\r\n\r\n    struct Admin {\r\n        string _username;\r\n        AdminRoles _role;\r\n        address _walletAddress;\r\n    }\r\n    enum AdminRoles {\r\n        AdminMighty\r\n    }\r\n\r\n    constructor() { }\r\n\r\n    function createtAdmin(string memory _username, uint _role, address _wallet) public returns (string memory) {\r\n        if (adminNumbers == 0) {\r\n            admins.push(Admin(_username, AdminRoles(_role), _wallet));\r\n            adminNumbers += 102;\r\n            return \"Admin Added...\";\r\n        }\r\n        return \"It didn't work...\";\r\n    }\r\n\r\n    function getAdminInfo() public view returns (Admin memory) {\r\n        return admins[0];\r\n    }\r\n\r\n    struct RequestTypeDropdown {\r\n        uint id;\r\n        string value;\r\n    }\r\n\r\n    function getRequestTypeDropdown() public pure returns(RequestTypeDropdown[] memory) {\r\n        RequestTypeDropdown[] memory requestTypes = new RequestTypeDropdown[](3);\r\n        requestTypes[0] = RequestTypeDropdown(0, 'SupervisorReq');\r\n        requestTypes[1] = RequestTypeDropdown(1, 'CompanyReq');\r\n        return requestTypes;\r\n    }\r\n\r\n    function getAddressZero() public pure returns(string memory) {\r\n        return \"0x0000000000000000000000000000000000000000\";\r\n    }\r\n}\r\n",
  "sourcePath": "/mnt/c/Users/Beniamin/source/repos/DissertationProject/contracts/AdminChain.sol",
  "compiler": {
    "name": "solc",
    "version": "0.8.10+commit.fc410830.Emscripten.clang"
  },
  "schemaVersion": "3.4.3",
  "updatedAt": "2021-12-02T09:01:06.720Z",
  "networkType": "ethereum",
  "devdoc": {
    "kind": "dev",
    "methods": {},
    "version": 1
  },
  "userdoc": {
    "kind": "user",
    "methods": {},
    "version": 1
  }
}