{
  "contractName": "AdminChain",
  "abi": [
    {
      "inputs": [],
      "stateMutability": "nonpayable",
      "type": "constructor"
    },
    {
      "inputs": [
        {
          "internalType": "string",
          "name": "_firstname",
          "type": "string"
        },
        {
          "internalType": "string",
          "name": "_lastname",
          "type": "string"
        },
        {
          "internalType": "uint256",
          "name": "_role",
          "type": "uint256"
        },
        {
          "internalType": "address",
          "name": "_wallet",
          "type": "address"
        }
      ],
      "name": "createtAdmin",
      "outputs": [
        {
          "internalType": "string",
          "name": "",
          "type": "string"
        }
      ],
      "stateMutability": "nonpayable",
      "type": "function"
    },
    {
      "inputs": [],
      "name": "getAdminInfo",
      "outputs": [
        {
          "components": [
            {
              "internalType": "string",
              "name": "_firstname",
              "type": "string"
            },
            {
              "internalType": "string",
              "name": "_lastname",
              "type": "string"
            },
            {
              "internalType": "enum AdminChain.AdminRoles",
              "name": "_role",
              "type": "uint8"
            },
            {
              "internalType": "address",
              "name": "_walletAddress",
              "type": "address"
            }
          ],
          "internalType": "struct AdminChain.Admin",
          "name": "",
          "type": "tuple"
        }
      ],
      "stateMutability": "view",
      "type": "function",
      "constant": true
    }
  ],
  "bytecode": "0x6080604052600060015534801561001557600080fd5b50610b26806100256000396000f3fe608060405234801561001057600080fd5b50600436106100365760003560e01c80634b6ddb141461003b578063c3d5fd391461006b575b600080fd5b61005560048036038101906100509190610736565b610089565b604051610062919061085d565b60405180910390f35b610073610267565b60405161008091906109b9565b60405180910390f35b60606000600154141561022657600060405180608001604052808781526020018681526020018560008111156100c2576100c16108c9565b5b60008111156100d4576100d36108c9565b5b81526020018473ffffffffffffffffffffffffffffffffffffffff1681525090806001815401808255809150506001900390600052602060002090600302016000909190919091506000820151816000019080519060200190610138929190610456565b506020820151816001019080519060200190610155929190610456565b5060408201518160020160006101000a81548160ff02191690836000811115610181576101806108c9565b5b021790555060608201518160020160016101000a81548173ffffffffffffffffffffffffffffffffffffffff021916908373ffffffffffffffffffffffffffffffffffffffff16021790555050506066600160008282546101e29190610a0a565b925050819055506040518060400160405280600a81526020017f437265617465642e2e2e00000000000000000000000000000000000000000000815250905061025f565b6040518060400160405280601181526020017f4974206469646e277420776f726b2e2e2e00000000000000000000000000000081525090505b949350505050565b61026f6104dc565b6000808154811061028357610282610a60565b5b90600052602060002090600302016040518060800160405290816000820180546102ac90610abe565b80601f01602080910402602001604051908101604052809291908181526020018280546102d890610abe565b80156103255780601f106102fa57610100808354040283529160200191610325565b820191906000526020600020905b81548152906001019060200180831161030857829003601f168201915b5050505050815260200160018201805461033e90610abe565b80601f016020809104026020016040519081016040528092919081815260200182805461036a90610abe565b80156103b75780601f1061038c576101008083540402835291602001916103b7565b820191906000526020600020905b81548152906001019060200180831161039a57829003601f168201915b505050505081526020016002820160009054906101000a900460ff1660008111156103e5576103e46108c9565b5b60008111156103f7576103f66108c9565b5b81526020016002820160019054906101000a900473ffffffffffffffffffffffffffffffffffffffff1673ffffffffffffffffffffffffffffffffffffffff1673ffffffffffffffffffffffffffffffffffffffff1681525050905090565b82805461046290610abe565b90600052602060002090601f01602090048101928261048457600085556104cb565b82601f1061049d57805160ff19168380011785556104cb565b828001600101855582156104cb579182015b828111156104ca5782518255916020019190600101906104af565b5b5090506104d8919061052b565b5090565b60405180608001604052806060815260200160608152602001600080811115610508576105076108c9565b5b8152602001600073ffffffffffffffffffffffffffffffffffffffff1681525090565b5b8082111561054457600081600090555060010161052c565b5090565b6000604051905090565b600080fd5b600080fd5b600080fd5b600080fd5b6000601f19601f8301169050919050565b7f4e487b7100000000000000000000000000000000000000000000000000000000600052604160045260246000fd5b6105af82610566565b810181811067ffffffffffffffff821117156105ce576105cd610577565b5b80604052505050565b60006105e1610548565b90506105ed82826105a6565b919050565b600067ffffffffffffffff82111561060d5761060c610577565b5b61061682610566565b9050602081019050919050565b82818337600083830152505050565b6000610645610640846105f2565b6105d7565b90508281526020810184848401111561066157610660610561565b5b61066c848285610623565b509392505050565b600082601f8301126106895761068861055c565b5b8135610699848260208601610632565b91505092915050565b6000819050919050565b6106b5816106a2565b81146106c057600080fd5b50565b6000813590506106d2816106ac565b92915050565b600073ffffffffffffffffffffffffffffffffffffffff82169050919050565b6000610703826106d8565b9050919050565b610713816106f8565b811461071e57600080fd5b50565b6000813590506107308161070a565b92915050565b600080600080608085870312156107505761074f610552565b5b600085013567ffffffffffffffff81111561076e5761076d610557565b5b61077a87828801610674565b945050602085013567ffffffffffffffff81111561079b5761079a610557565b5b6107a787828801610674565b93505060406107b8878288016106c3565b92505060606107c987828801610721565b91505092959194509250565b600081519050919050565b600082825260208201905092915050565b60005b8381101561080f5780820151818401526020810190506107f4565b8381111561081e576000848401525b50505050565b600061082f826107d5565b61083981856107e0565b93506108498185602086016107f1565b61085281610566565b840191505092915050565b600060208201905081810360008301526108778184610824565b905092915050565b600082825260208201905092915050565b600061089b826107d5565b6108a5818561087f565b93506108b58185602086016107f1565b6108be81610566565b840191505092915050565b7f4e487b7100000000000000000000000000000000000000000000000000000000600052602160045260246000fd5b60018110610909576109086108c9565b5b50565b600081905061091a826108f8565b919050565b600061092a8261090c565b9050919050565b61093a8161091f565b82525050565b610949816106f8565b82525050565b6000608083016000830151848203600086015261096c8282610890565b915050602083015184820360208601526109868282610890565b915050604083015161099b6040860182610931565b5060608301516109ae6060860182610940565b508091505092915050565b600060208201905081810360008301526109d3818461094f565b905092915050565b7f4e487b7100000000000000000000000000000000000000000000000000000000600052601160045260246000fd5b6000610a15826106a2565b9150610a20836106a2565b9250827fffffffffffffffffffffffffffffffffffffffffffffffffffffffffffffffff03821115610a5557610a546109db565b5b828201905092915050565b7f4e487b7100000000000000000000000000000000000000000000000000000000600052603260045260246000fd5b7f4e487b7100000000000000000000000000000000000000000000000000000000600052602260045260246000fd5b60006002820490506001821680610ad657607f821691505b60208210811415610aea57610ae9610a8f565b5b5091905056fea264697066735822122021ebb1266dc9536c8a4755c194ba6e983bbbd39fed835e0ac3f8b741d2029aaf64736f6c634300080a0033",
  "immutableReferences": {},
  "source": "// SPDX-License-Identifier: MIT\r\npragma solidity >=0.8.0 <0.9.0;\r\n\r\ncontract AdminChain {\r\n    Admin[] private admins;\r\n    uint256 private adminNumbers = 0;\r\n\r\n    struct Admin {\r\n        string _firstname;\r\n        string _lastname;\r\n        AdminRoles _role;\r\n        address _walletAddress;\r\n    }\r\n\r\n    enum AdminRoles {\r\n        AdminMighty\r\n    }\r\n\r\n    constructor() {}\r\n\r\n    modifier onlyAdmin() {\r\n        //require(address(0xf08B741073b3Cb01ef6fB3B412E71C977F276fAa) == msg.sender, \"You are not the right user.\");\r\n        _;\r\n    }\r\n\r\n    function createtAdmin(string memory _firstname, string memory _lastname, uint256 _role, address _wallet) public onlyAdmin returns (string memory) {\r\n        //require(adminNumbers == 0, \"Access Denied!...\");\r\n        if (adminNumbers == 0) {\r\n            admins.push(Admin(_firstname, _lastname, AdminRoles(_role), _wallet));\r\n            adminNumbers += 102;\r\n            return \"Created...\";\r\n        }\r\n        return \"It didn't work...\";\r\n    }\r\n\r\n    function getAdminInfo() public view onlyAdmin returns (Admin memory) {\r\n        return admins[0];\r\n    }\r\n}\r\n",
  "sourcePath": "/mnt/c/Users/Beniamin/source/repos/DissertationProject/contracts/AdminChain.sol",
  "compiler": {
    "name": "solc",
    "version": "0.8.10+commit.fc410830.Emscripten.clang"
  },
  "schemaVersion": "3.4.3",
  "updatedAt": "2021-12-13T06:29:53.392Z",
  "networkType": "ethereum",
  "devdoc": {
    "kind": "dev",
    "methods": {},
    "version": 1
  },
  "userdoc": {
    "kind": "user",
    "methods": {},
    "version": 1
  }
}