{
  "contractName": "AdminChain",
  "abi": [
    {
      "inputs": [],
      "stateMutability": "nonpayable",
      "type": "constructor"
    },
    {
      "inputs": [
        {
          "internalType": "uint256",
          "name": "",
          "type": "uint256"
        }
      ],
      "name": "admins",
      "outputs": [
        {
          "internalType": "string",
          "name": "_username",
          "type": "string"
        },
        {
          "internalType": "enum AdminChain.AdminRoles",
          "name": "_role",
          "type": "uint8"
        },
        {
          "internalType": "address",
          "name": "_walletAddress",
          "type": "address"
        }
      ],
      "stateMutability": "view",
      "type": "function",
      "constant": true
    },
    {
      "inputs": [
        {
          "internalType": "string",
          "name": "_username",
          "type": "string"
        },
        {
          "internalType": "uint256",
          "name": "_role",
          "type": "uint256"
        },
        {
          "internalType": "address",
          "name": "_wallet",
          "type": "address"
        }
      ],
      "name": "createtAdmin",
      "outputs": [
        {
          "internalType": "string",
          "name": "",
          "type": "string"
        }
      ],
      "stateMutability": "nonpayable",
      "type": "function"
    },
    {
      "inputs": [],
      "name": "getAdminInfo",
      "outputs": [
        {
          "components": [
            {
              "internalType": "string",
              "name": "_username",
              "type": "string"
            },
            {
              "internalType": "enum AdminChain.AdminRoles",
              "name": "_role",
              "type": "uint8"
            },
            {
              "internalType": "address",
              "name": "_walletAddress",
              "type": "address"
            }
          ],
          "internalType": "struct AdminChain.Admin",
          "name": "",
          "type": "tuple"
        }
      ],
      "stateMutability": "view",
      "type": "function",
      "constant": true
    }
  ],
  "bytecode": "0x6080604052600060015534801561001557600080fd5b50610bd4806100256000396000f3fe608060405234801561001057600080fd5b50600436106100415760003560e01c806314bfd6d0146100465780633382121014610078578063c3d5fd39146100a8575b600080fd5b610060600480360381019061005b9190610601565b6100c6565b60405161006f9392919061077f565b60405180910390f35b610092600480360381019061008d919061091e565b6101b5565b60405161009f919061098d565b60405180910390f35b6100b061036f565b6040516100bd9190610a67565b60405180910390f35b600081815481106100d657600080fd5b90600052602060002090600202016000915090508060000180546100f990610ab8565b80601f016020809104026020016040519081016040528092919081815260200182805461012590610ab8565b80156101725780601f1061014757610100808354040283529160200191610172565b820191906000526020600020905b81548152906001019060200180831161015557829003601f168201915b5050505050908060010160009054906101000a900460ff16908060010160019054906101000a900473ffffffffffffffffffffffffffffffffffffffff16905083565b60606000600154141561032f57600060405180606001604052808681526020018560008111156101e8576101e76106c7565b5b60008111156101fa576101f96106c7565b5b81526020018473ffffffffffffffffffffffffffffffffffffffff168152509080600181540180825580915050600190039060005260206000209060020201600090919091909150600082015181600001908051906020019061025e9291906104cc565b5060208201518160010160006101000a81548160ff0219169083600081111561028a576102896106c7565b5b021790555060408201518160010160016101000a81548173ffffffffffffffffffffffffffffffffffffffff021916908373ffffffffffffffffffffffffffffffffffffffff16021790555050506066600160008282546102eb9190610b19565b925050819055506040518060400160405280600e81526020017f41646d696e2041646465642e2e2e0000000000000000000000000000000000008152509050610368565b6040518060400160405280601181526020017f4974206469646e277420776f726b2e2e2e00000000000000000000000000000081525090505b9392505050565b610377610552565b6000808154811061038b5761038a610b6f565b5b90600052602060002090600202016040518060600160405290816000820180546103b490610ab8565b80601f01602080910402602001604051908101604052809291908181526020018280546103e090610ab8565b801561042d5780601f106104025761010080835404028352916020019161042d565b820191906000526020600020905b81548152906001019060200180831161041057829003601f168201915b505050505081526020016001820160009054906101000a900460ff16600081111561045b5761045a6106c7565b5b600081111561046d5761046c6106c7565b5b81526020016001820160019054906101000a900473ffffffffffffffffffffffffffffffffffffffff1673ffffffffffffffffffffffffffffffffffffffff1673ffffffffffffffffffffffffffffffffffffffff1681525050905090565b8280546104d890610ab8565b90600052602060002090601f0160209004810192826104fa5760008555610541565b82601f1061051357805160ff1916838001178555610541565b82800160010185558215610541579182015b82811115610540578251825591602001919060010190610525565b5b50905061054e919061059a565b5090565b604051806060016040528060608152602001600080811115610577576105766106c7565b5b8152602001600073ffffffffffffffffffffffffffffffffffffffff1681525090565b5b808211156105b357600081600090555060010161059b565b5090565b6000604051905090565b600080fd5b600080fd5b6000819050919050565b6105de816105cb565b81146105e957600080fd5b50565b6000813590506105fb816105d5565b92915050565b600060208284031215610617576106166105c1565b5b6000610625848285016105ec565b91505092915050565b600081519050919050565b600082825260208201905092915050565b60005b8381101561066857808201518184015260208101905061064d565b83811115610677576000848401525b50505050565b6000601f19601f8301169050919050565b60006106998261062e565b6106a38185610639565b93506106b381856020860161064a565b6106bc8161067d565b840191505092915050565b7f4e487b7100000000000000000000000000000000000000000000000000000000600052602160045260246000fd5b60018110610707576107066106c7565b5b50565b6000819050610718826106f6565b919050565b60006107288261070a565b9050919050565b6107388161071d565b82525050565b600073ffffffffffffffffffffffffffffffffffffffff82169050919050565b60006107698261073e565b9050919050565b6107798161075e565b82525050565b60006060820190508181036000830152610799818661068e565b90506107a8602083018561072f565b6107b56040830184610770565b949350505050565b600080fd5b600080fd5b7f4e487b7100000000000000000000000000000000000000000000000000000000600052604160045260246000fd5b6107ff8261067d565b810181811067ffffffffffffffff8211171561081e5761081d6107c7565b5b80604052505050565b60006108316105b7565b905061083d82826107f6565b919050565b600067ffffffffffffffff82111561085d5761085c6107c7565b5b6108668261067d565b9050602081019050919050565b82818337600083830152505050565b600061089561089084610842565b610827565b9050828152602081018484840111156108b1576108b06107c2565b5b6108bc848285610873565b509392505050565b600082601f8301126108d9576108d86107bd565b5b81356108e9848260208601610882565b91505092915050565b6108fb8161075e565b811461090657600080fd5b50565b600081359050610918816108f2565b92915050565b600080600060608486031215610937576109366105c1565b5b600084013567ffffffffffffffff811115610955576109546105c6565b5b610961868287016108c4565b9350506020610972868287016105ec565b925050604061098386828701610909565b9150509250925092565b600060208201905081810360008301526109a7818461068e565b905092915050565b600082825260208201905092915050565b60006109cb8261062e565b6109d581856109af565b93506109e581856020860161064a565b6109ee8161067d565b840191505092915050565b610a028161071d565b82525050565b610a118161075e565b82525050565b60006060830160008301518482036000860152610a3482826109c0565b9150506020830151610a4960208601826109f9565b506040830151610a5c6040860182610a08565b508091505092915050565b60006020820190508181036000830152610a818184610a17565b905092915050565b7f4e487b7100000000000000000000000000000000000000000000000000000000600052602260045260246000fd5b60006002820490506001821680610ad057607f821691505b60208210811415610ae457610ae3610a89565b5b50919050565b7f4e487b7100000000000000000000000000000000000000000000000000000000600052601160045260246000fd5b6000610b24826105cb565b9150610b2f836105cb565b9250827fffffffffffffffffffffffffffffffffffffffffffffffffffffffffffffffff03821115610b6457610b63610aea565b5b828201905092915050565b7f4e487b7100000000000000000000000000000000000000000000000000000000600052603260045260246000fdfea264697066735822122058b20cdaa77d9aeaac57d423a07a27a2f19678bcb36c5018661840a1bc7296bb64736f6c634300080a0033",
  "immutableReferences": {},
  "source": "// SPDX-License-Identifier: MIT\r\npragma solidity >=0.8.0 <0.9.0;\r\n\r\ncontract AdminChain {\r\n    Admin[] public admins;\r\n    uint private adminNumbers = 0;\r\n\r\n    struct Admin {\r\n        string _username;\r\n        AdminRoles _role;\r\n        address _walletAddress;\r\n    }\r\n    enum AdminRoles {\r\n        AdminMighty\r\n    }\r\n\r\n    constructor() {}\r\n\r\n    function createtAdmin(string memory _username, uint _role, address _wallet) public returns (string memory) {\r\n        if (adminNumbers == 0) {\r\n            admins.push(Admin(_username, AdminRoles(_role), _wallet));\r\n            adminNumbers += 102;\r\n            return \"Admin Added...\";\r\n        }\r\n        return \"It didn't work...\";\r\n    }\r\n\r\n    function getAdminInfo() public view returns (Admin memory) {\r\n        return admins[0];\r\n    }\r\n}\r\n",
  "sourcePath": "/mnt/c/Users/Beniamin/source/repos/DissertationProject/contracts/AdminChain.sol",
  "compiler": {
    "name": "solc",
    "version": "0.8.10+commit.fc410830.Emscripten.clang"
  },
  "schemaVersion": "3.4.3",
  "updatedAt": "2021-12-03T17:22:59.950Z",
  "networkType": "ethereum",
  "devdoc": {
    "kind": "dev",
    "methods": {},
    "version": 1
  },
  "userdoc": {
    "kind": "user",
    "methods": {},
    "version": 1
  }
}