{
  "contractName": "AdminChain",
  "abi": [
    {
      "inputs": [],
      "stateMutability": "nonpayable",
      "type": "constructor"
    },
    {
      "inputs": [
        {
          "internalType": "string",
          "name": "_username",
          "type": "string"
        },
        {
          "internalType": "uint256",
          "name": "_role",
          "type": "uint256"
        },
        {
          "internalType": "address",
          "name": "_wallet",
          "type": "address"
        }
      ],
      "name": "createtAdmin",
      "outputs": [
        {
          "internalType": "string",
          "name": "",
          "type": "string"
        }
      ],
      "stateMutability": "nonpayable",
      "type": "function"
    },
    {
      "inputs": [],
      "name": "getAdminInfo",
      "outputs": [
        {
          "components": [
            {
              "internalType": "string",
              "name": "_username",
              "type": "string"
            },
            {
              "internalType": "enum AdminChain.AdminRoles",
              "name": "_role",
              "type": "uint8"
            },
            {
              "internalType": "address",
              "name": "_walletAddress",
              "type": "address"
            }
          ],
          "internalType": "struct AdminChain.Admin",
          "name": "",
          "type": "tuple"
        }
      ],
      "stateMutability": "view",
      "type": "function",
      "constant": true
    }
  ],
  "bytecode": "0x6080604052600060015534801561001557600080fd5b50610c40806100256000396000f3fe608060405234801561001057600080fd5b50600436106100365760003560e01c8063338212101461003b578063c3d5fd391461006b575b600080fd5b610055600480360381019061005091906107c2565b610089565b60405161006291906108b9565b60405180910390f35b61007361030a565b60405161008091906109fb565b60405180910390f35b60603373ffffffffffffffffffffffffffffffffffffffff1673f08b741073b3cb01ef6fb3b412e71c977f276faa73ffffffffffffffffffffffffffffffffffffffff161461010d576040517f08c379a000000000000000000000000000000000000000000000000000000000815260040161010490610a69565b60405180910390fd5b600060015414610152576040517f08c379a000000000000000000000000000000000000000000000000000000000815260040161014990610ad5565b60405180910390fd5b600060015414156102ca576000604051806060016040528086815260200185600081111561018357610182610925565b5b600081111561019557610194610925565b5b81526020018473ffffffffffffffffffffffffffffffffffffffff16815250908060018154018082558091505060019003906000526020600020906002020160009091909190915060008201518160000190805190602001906101f99291906104e9565b5060208201518160010160006101000a81548160ff0219169083600081111561022557610224610925565b5b021790555060408201518160010160016101000a81548173ffffffffffffffffffffffffffffffffffffffff021916908373ffffffffffffffffffffffffffffffffffffffff16021790555050506066600160008282546102869190610b24565b925050819055506040518060400160405280600a81526020017f437265617465642e2e2e000000000000000000000000000000000000000000008152509050610303565b6040518060400160405280601181526020017f4974206469646e277420776f726b2e2e2e00000000000000000000000000000081525090505b9392505050565b61031261056f565b3373ffffffffffffffffffffffffffffffffffffffff1673f08b741073b3cb01ef6fb3b412e71c977f276faa73ffffffffffffffffffffffffffffffffffffffff1614610394576040517f08c379a000000000000000000000000000000000000000000000000000000000815260040161038b90610a69565b60405180910390fd5b600080815481106103a8576103a7610b7a565b5b90600052602060002090600202016040518060600160405290816000820180546103d190610bd8565b80601f01602080910402602001604051908101604052809291908181526020018280546103fd90610bd8565b801561044a5780601f1061041f5761010080835404028352916020019161044a565b820191906000526020600020905b81548152906001019060200180831161042d57829003601f168201915b505050505081526020016001820160009054906101000a900460ff16600081111561047857610477610925565b5b600081111561048a57610489610925565b5b81526020016001820160019054906101000a900473ffffffffffffffffffffffffffffffffffffffff1673ffffffffffffffffffffffffffffffffffffffff1673ffffffffffffffffffffffffffffffffffffffff1681525050905090565b8280546104f590610bd8565b90600052602060002090601f016020900481019282610517576000855561055e565b82601f1061053057805160ff191683800117855561055e565b8280016001018555821561055e579182015b8281111561055d578251825591602001919060010190610542565b5b50905061056b91906105b7565b5090565b60405180606001604052806060815260200160008081111561059457610593610925565b5b8152602001600073ffffffffffffffffffffffffffffffffffffffff1681525090565b5b808211156105d05760008160009055506001016105b8565b5090565b6000604051905090565b600080fd5b600080fd5b600080fd5b600080fd5b6000601f19601f8301169050919050565b7f4e487b7100000000000000000000000000000000000000000000000000000000600052604160045260246000fd5b61063b826105f2565b810181811067ffffffffffffffff8211171561065a57610659610603565b5b80604052505050565b600061066d6105d4565b90506106798282610632565b919050565b600067ffffffffffffffff82111561069957610698610603565b5b6106a2826105f2565b9050602081019050919050565b82818337600083830152505050565b60006106d16106cc8461067e565b610663565b9050828152602081018484840111156106ed576106ec6105ed565b5b6106f88482856106af565b509392505050565b600082601f830112610715576107146105e8565b5b81356107258482602086016106be565b91505092915050565b6000819050919050565b6107418161072e565b811461074c57600080fd5b50565b60008135905061075e81610738565b92915050565b600073ffffffffffffffffffffffffffffffffffffffff82169050919050565b600061078f82610764565b9050919050565b61079f81610784565b81146107aa57600080fd5b50565b6000813590506107bc81610796565b92915050565b6000806000606084860312156107db576107da6105de565b5b600084013567ffffffffffffffff8111156107f9576107f86105e3565b5b61080586828701610700565b93505060206108168682870161074f565b9250506040610827868287016107ad565b9150509250925092565b600081519050919050565b600082825260208201905092915050565b60005b8381101561086b578082015181840152602081019050610850565b8381111561087a576000848401525b50505050565b600061088b82610831565b610895818561083c565b93506108a581856020860161084d565b6108ae816105f2565b840191505092915050565b600060208201905081810360008301526108d38184610880565b905092915050565b600082825260208201905092915050565b60006108f782610831565b61090181856108db565b935061091181856020860161084d565b61091a816105f2565b840191505092915050565b7f4e487b7100000000000000000000000000000000000000000000000000000000600052602160045260246000fd5b6001811061096557610964610925565b5b50565b600081905061097682610954565b919050565b600061098682610968565b9050919050565b6109968161097b565b82525050565b6109a581610784565b82525050565b600060608301600083015184820360008601526109c882826108ec565b91505060208301516109dd602086018261098d565b5060408301516109f0604086018261099c565b508091505092915050565b60006020820190508181036000830152610a1581846109ab565b905092915050565b7f596f7520617265206e6f742074686520726967687420757365722e0000000000600082015250565b6000610a53601b8361083c565b9150610a5e82610a1d565b602082019050919050565b60006020820190508181036000830152610a8281610a46565b9050919050565b7f4163636573732044656e696564212e2e2e000000000000000000000000000000600082015250565b6000610abf60118361083c565b9150610aca82610a89565b602082019050919050565b60006020820190508181036000830152610aee81610ab2565b9050919050565b7f4e487b7100000000000000000000000000000000000000000000000000000000600052601160045260246000fd5b6000610b2f8261072e565b9150610b3a8361072e565b9250827fffffffffffffffffffffffffffffffffffffffffffffffffffffffffffffffff03821115610b6f57610b6e610af5565b5b828201905092915050565b7f4e487b7100000000000000000000000000000000000000000000000000000000600052603260045260246000fd5b7f4e487b7100000000000000000000000000000000000000000000000000000000600052602260045260246000fd5b60006002820490506001821680610bf057607f821691505b60208210811415610c0457610c03610ba9565b5b5091905056fea26469706673582212209e8ac0882fe5b1dba0b9126c11e2b8f041500c8c9e9c00ad1a681c58462bfad164736f6c634300080a0033",
  "immutableReferences": {},
  "source": "// SPDX-License-Identifier: MIT\r\npragma solidity >=0.8.0 <0.9.0;\r\n\r\ncontract AdminChain {\r\n    Admin[] private admins;\r\n    uint private adminNumbers = 0;\r\n\r\n    struct Admin {\r\n        string _username;\r\n        AdminRoles _role;\r\n        address _walletAddress;\r\n    }\r\n\r\n    enum AdminRoles {\r\n        AdminMighty\r\n    }\r\n\r\n    constructor() {}\r\n\r\n    modifier onlyAdmin() {\r\n        require(address(0xf08B741073b3Cb01ef6fB3B412E71C977F276fAa) == msg.sender, \"You are not the right user.\");\r\n        _;\r\n    }\r\n\r\n    function createtAdmin(string memory _username, uint _role, address _wallet) public onlyAdmin returns (string memory) {\r\n        require(adminNumbers == 0, \"Access Denied!...\");\r\n        if (adminNumbers == 0) {\r\n            admins.push(Admin(_username, AdminRoles(_role), _wallet));\r\n            adminNumbers += 102;\r\n            return \"Created...\";\r\n        }\r\n        return \"It didn't work...\";\r\n    }\r\n\r\n    function getAdminInfo() public view onlyAdmin returns (Admin memory) {\r\n        return admins[0];\r\n    }\r\n}\r\n",
  "sourcePath": "/mnt/c/Users/Beniamin/source/repos/DissertationProject/contracts/AdminChain.sol",
  "compiler": {
    "name": "solc",
    "version": "0.8.10+commit.fc410830.Emscripten.clang"
  },
  "schemaVersion": "3.4.3",
  "updatedAt": "2021-12-10T17:28:41.523Z",
  "networkType": "ethereum",
  "devdoc": {
    "kind": "dev",
    "methods": {},
    "version": 1
  },
  "userdoc": {
    "kind": "user",
    "methods": {},
    "version": 1
  }
}