{
  "contractName": "AdminChain",
  "abi": [
    {
      "inputs": [],
      "stateMutability": "nonpayable",
      "type": "constructor"
    },
    {
      "inputs": [],
      "name": "owner",
      "outputs": [
        {
          "internalType": "address",
          "name": "",
          "type": "address"
        }
      ],
      "stateMutability": "view",
      "type": "function",
      "constant": true
    },
    {
      "inputs": [
        {
          "internalType": "string",
          "name": "_firstname",
          "type": "string"
        },
        {
          "internalType": "string",
          "name": "_lastname",
          "type": "string"
        },
        {
          "internalType": "uint256",
          "name": "_role",
          "type": "uint256"
        },
        {
          "internalType": "address",
          "name": "_wallet",
          "type": "address"
        }
      ],
      "name": "createtAdmin",
      "outputs": [
        {
          "internalType": "string",
          "name": "",
          "type": "string"
        }
      ],
      "stateMutability": "nonpayable",
      "type": "function"
    },
    {
      "inputs": [],
      "name": "getAdminInfo",
      "outputs": [
        {
          "components": [
            {
              "internalType": "string",
              "name": "_firstname",
              "type": "string"
            },
            {
              "internalType": "string",
              "name": "_lastname",
              "type": "string"
            },
            {
              "internalType": "enum AdminChain.AdminRoles",
              "name": "_role",
              "type": "uint8"
            },
            {
              "internalType": "address",
              "name": "_walletAddress",
              "type": "address"
            }
          ],
          "internalType": "struct AdminChain.Admin",
          "name": "",
          "type": "tuple"
        }
      ],
      "stateMutability": "view",
      "type": "function",
      "constant": true
    }
  ],
  "bytecode": "0x6080604052600060015533600260006101000a81548173ffffffffffffffffffffffffffffffffffffffff021916908373ffffffffffffffffffffffffffffffffffffffff16021790555034801561005657600080fd5b50610d9c806100666000396000f3fe608060405234801561001057600080fd5b50600436106100415760003560e01c80634b6ddb14146100465780638da5cb5b14610076578063c3d5fd3914610094575b600080fd5b610060600480360381019061005b91906108aa565b6100b2565b60405161006d91906109d1565b60405180910390f35b61007e610345565b60405161008b9190610a02565b60405180910390f35b61009c61036b565b6040516100a99190610b57565b60405180910390f35b60603373ffffffffffffffffffffffffffffffffffffffff16600073ffffffffffffffffffffffffffffffffffffffff161415610124576040517f08c379a000000000000000000000000000000000000000000000000000000000815260040161011b90610bc5565b60405180910390fd5b600060015414610169576040517f08c379a000000000000000000000000000000000000000000000000000000000815260040161016090610c31565b60405180910390fd5b6000600154141561030457600060405180608001604052808781526020018681526020018560008111156101a05761019f610a67565b5b60008111156101b2576101b1610a67565b5b81526020018473ffffffffffffffffffffffffffffffffffffffff16815250908060018154018082558091505060019003906000526020600020906003020160009091909190915060008201518160000190805190602001906102169291906105ca565b5060208201518160010190805190602001906102339291906105ca565b5060408201518160020160006101000a81548160ff0219169083600081111561025f5761025e610a67565b5b021790555060608201518160020160016101000a81548173ffffffffffffffffffffffffffffffffffffffff021916908373ffffffffffffffffffffffffffffffffffffffff16021790555050506066600160008282546102c09190610c80565b925050819055506040518060400160405280600a81526020017f437265617465642e2e2e00000000000000000000000000000000000000000000815250905061033d565b6040518060400160405280601181526020017f4974206469646e277420776f726b2e2e2e00000000000000000000000000000081525090505b949350505050565b600260009054906101000a900473ffffffffffffffffffffffffffffffffffffffff1681565b610373610650565b3373ffffffffffffffffffffffffffffffffffffffff16600073ffffffffffffffffffffffffffffffffffffffff1614156103e3576040517f08c379a00000000000000000000000000000000000000000000000000000000081526004016103da90610bc5565b60405180910390fd5b600080815481106103f7576103f6610cd6565b5b906000526020600020906003020160405180608001604052908160008201805461042090610d34565b80601f016020809104026020016040519081016040528092919081815260200182805461044c90610d34565b80156104995780601f1061046e57610100808354040283529160200191610499565b820191906000526020600020905b81548152906001019060200180831161047c57829003601f168201915b505050505081526020016001820180546104b290610d34565b80601f01602080910402602001604051908101604052809291908181526020018280546104de90610d34565b801561052b5780601f106105005761010080835404028352916020019161052b565b820191906000526020600020905b81548152906001019060200180831161050e57829003601f168201915b505050505081526020016002820160009054906101000a900460ff16600081111561055957610558610a67565b5b600081111561056b5761056a610a67565b5b81526020016002820160019054906101000a900473ffffffffffffffffffffffffffffffffffffffff1673ffffffffffffffffffffffffffffffffffffffff1673ffffffffffffffffffffffffffffffffffffffff1681525050905090565b8280546105d690610d34565b90600052602060002090601f0160209004810192826105f8576000855561063f565b82601f1061061157805160ff191683800117855561063f565b8280016001018555821561063f579182015b8281111561063e578251825591602001919060010190610623565b5b50905061064c919061069f565b5090565b6040518060800160405280606081526020016060815260200160008081111561067c5761067b610a67565b5b8152602001600073ffffffffffffffffffffffffffffffffffffffff1681525090565b5b808211156106b85760008160009055506001016106a0565b5090565b6000604051905090565b600080fd5b600080fd5b600080fd5b600080fd5b6000601f19601f8301169050919050565b7f4e487b7100000000000000000000000000000000000000000000000000000000600052604160045260246000fd5b610723826106da565b810181811067ffffffffffffffff82111715610742576107416106eb565b5b80604052505050565b60006107556106bc565b9050610761828261071a565b919050565b600067ffffffffffffffff821115610781576107806106eb565b5b61078a826106da565b9050602081019050919050565b82818337600083830152505050565b60006107b96107b484610766565b61074b565b9050828152602081018484840111156107d5576107d46106d5565b5b6107e0848285610797565b509392505050565b600082601f8301126107fd576107fc6106d0565b5b813561080d8482602086016107a6565b91505092915050565b6000819050919050565b61082981610816565b811461083457600080fd5b50565b60008135905061084681610820565b92915050565b600073ffffffffffffffffffffffffffffffffffffffff82169050919050565b60006108778261084c565b9050919050565b6108878161086c565b811461089257600080fd5b50565b6000813590506108a48161087e565b92915050565b600080600080608085870312156108c4576108c36106c6565b5b600085013567ffffffffffffffff8111156108e2576108e16106cb565b5b6108ee878288016107e8565b945050602085013567ffffffffffffffff81111561090f5761090e6106cb565b5b61091b878288016107e8565b935050604061092c87828801610837565b925050606061093d87828801610895565b91505092959194509250565b600081519050919050565b600082825260208201905092915050565b60005b83811015610983578082015181840152602081019050610968565b83811115610992576000848401525b50505050565b60006109a382610949565b6109ad8185610954565b93506109bd818560208601610965565b6109c6816106da565b840191505092915050565b600060208201905081810360008301526109eb8184610998565b905092915050565b6109fc8161086c565b82525050565b6000602082019050610a1760008301846109f3565b92915050565b600082825260208201905092915050565b6000610a3982610949565b610a438185610a1d565b9350610a53818560208601610965565b610a5c816106da565b840191505092915050565b7f4e487b7100000000000000000000000000000000000000000000000000000000600052602160045260246000fd5b60018110610aa757610aa6610a67565b5b50565b6000819050610ab882610a96565b919050565b6000610ac882610aaa565b9050919050565b610ad881610abd565b82525050565b610ae78161086c565b82525050565b60006080830160008301518482036000860152610b0a8282610a2e565b91505060208301518482036020860152610b248282610a2e565b9150506040830151610b396040860182610acf565b506060830151610b4c6060860182610ade565b508091505092915050565b60006020820190508181036000830152610b718184610aed565b905092915050565b7f41646472657373206973206e6f742076616c69642e0000000000000000000000600082015250565b6000610baf601583610954565b9150610bba82610b79565b602082019050919050565b60006020820190508181036000830152610bde81610ba2565b9050919050565b7f4163636573732044656e696564212e2e2e000000000000000000000000000000600082015250565b6000610c1b601183610954565b9150610c2682610be5565b602082019050919050565b60006020820190508181036000830152610c4a81610c0e565b9050919050565b7f4e487b7100000000000000000000000000000000000000000000000000000000600052601160045260246000fd5b6000610c8b82610816565b9150610c9683610816565b9250827fffffffffffffffffffffffffffffffffffffffffffffffffffffffffffffffff03821115610ccb57610cca610c51565b5b828201905092915050565b7f4e487b7100000000000000000000000000000000000000000000000000000000600052603260045260246000fd5b7f4e487b7100000000000000000000000000000000000000000000000000000000600052602260045260246000fd5b60006002820490506001821680610d4c57607f821691505b60208210811415610d6057610d5f610d05565b5b5091905056fea264697066735822122036c38dfb685fdb3f607d25fd7436d235e593d036942b7f82e8f5222cd8836c3d64736f6c634300080a0033",
  "immutableReferences": {},
  "source": "// SPDX-License-Identifier: MIT\r\npragma solidity >=0.8.0 <0.9.0;\r\n\r\ncontract AdminChain {\r\n    Admin[] private admins;\r\n    uint256 private adminNumbers = 0;\r\n    address public owner = msg.sender;\r\n\r\n    struct Admin {\r\n        string _firstname;\r\n        string _lastname;\r\n        AdminRoles _role;\r\n        address _walletAddress;\r\n    }\r\n\r\n    enum AdminRoles {\r\n        AdminMighty\r\n    }\r\n\r\n    constructor() {}\r\n\r\n    modifier onlyAdmin() {\r\n        require(address(0x0) != msg.sender, \"Address is not valid.\");\r\n        _;\r\n    }\r\n\r\n    function createtAdmin(string memory _firstname, string memory _lastname, uint256 _role, address _wallet) public onlyAdmin returns (string memory) {\r\n        require(adminNumbers == 0, \"Access Denied!...\");\r\n        if (adminNumbers == 0) {\r\n            admins.push(Admin(_firstname, _lastname, AdminRoles(_role), _wallet));\r\n            adminNumbers += 102;\r\n            return \"Created...\";\r\n        }\r\n        return \"It didn't work...\";\r\n    }\r\n\r\n    function getAdminInfo() public view onlyAdmin returns (Admin memory) {\r\n        return admins[0];\r\n    }\r\n}\r\n",
  "sourcePath": "/mnt/c/Users/Beniamin/source/repos/DissertationProject/contracts/AdminChain.sol",
  "compiler": {
    "name": "solc",
    "version": "0.8.10+commit.fc410830.Emscripten.clang"
  },
  "schemaVersion": "3.4.3",
  "updatedAt": "2021-12-17T18:03:41.896Z",
  "networkType": "ethereum",
  "devdoc": {
    "kind": "dev",
    "methods": {},
    "version": 1
  },
  "userdoc": {
    "kind": "user",
    "methods": {},
    "version": 1
  }
}