{
  "contractName": "CompanyChain",
  "abi": [
    {
      "inputs": [],
      "stateMutability": "nonpayable",
      "type": "constructor"
    },
    {
      "anonymous": false,
      "inputs": [
        {
          "indexed": false,
          "internalType": "uint256",
          "name": "_index",
          "type": "uint256"
        },
        {
          "indexed": false,
          "internalType": "bytes32",
          "name": "_name",
          "type": "bytes32"
        },
        {
          "indexed": false,
          "internalType": "enum SharedChain.ProjectStatus",
          "name": "_status",
          "type": "uint8"
        },
        {
          "indexed": false,
          "internalType": "string",
          "name": "_ipfsFileCID",
          "type": "string"
        },
        {
          "indexed": false,
          "internalType": "address",
          "name": "_projectAddress",
          "type": "address"
        },
        {
          "indexed": false,
          "internalType": "address",
          "name": "_userAddress",
          "type": "address"
        },
        {
          "indexed": false,
          "internalType": "uint256",
          "name": "_timestamp",
          "type": "uint256"
        },
        {
          "indexed": false,
          "internalType": "bytes32",
          "name": "_signature",
          "type": "bytes32"
        }
      ],
      "name": "ProjectEvent",
      "type": "event"
    },
    {
      "anonymous": false,
      "inputs": [
        {
          "indexed": false,
          "internalType": "uint256",
          "name": "_index",
          "type": "uint256"
        },
        {
          "indexed": false,
          "internalType": "bytes32",
          "name": "_title",
          "type": "bytes32"
        },
        {
          "indexed": false,
          "internalType": "string",
          "name": "_comments",
          "type": "string"
        },
        {
          "indexed": false,
          "internalType": "enum SharedChain.ProjectStatus",
          "name": "_status",
          "type": "uint8"
        },
        {
          "indexed": false,
          "internalType": "enum SharedChain.RequestStatus",
          "name": "_requestStatus",
          "type": "uint8"
        },
        {
          "indexed": false,
          "internalType": "address",
          "name": "_projectAddress",
          "type": "address"
        },
        {
          "indexed": false,
          "internalType": "address",
          "name": "_userAddress",
          "type": "address"
        },
        {
          "indexed": false,
          "internalType": "address",
          "name": "_requestAddress",
          "type": "address"
        },
        {
          "indexed": false,
          "internalType": "uint256",
          "name": "_timestamp",
          "type": "uint256"
        },
        {
          "indexed": false,
          "internalType": "bytes32",
          "name": "_signature",
          "type": "bytes32"
        }
      ],
      "name": "ProjectRequestEvent",
      "type": "event"
    },
    {
      "anonymous": false,
      "inputs": [
        {
          "indexed": false,
          "internalType": "uint256",
          "name": "_index",
          "type": "uint256"
        },
        {
          "indexed": false,
          "internalType": "uint256",
          "name": "_indexProjectRequest",
          "type": "uint256"
        },
        {
          "indexed": false,
          "internalType": "bytes32",
          "name": "_title",
          "type": "bytes32"
        },
        {
          "indexed": false,
          "internalType": "enum SharedChain.RequestStatus",
          "name": "_status",
          "type": "uint8"
        },
        {
          "indexed": false,
          "internalType": "enum SharedChain.ProjectStatus",
          "name": "_projectStatus",
          "type": "uint8"
        },
        {
          "indexed": false,
          "internalType": "enum SharedChain.RequestType",
          "name": "_requestType",
          "type": "uint8"
        },
        {
          "indexed": false,
          "internalType": "address",
          "name": "_projectAddress",
          "type": "address"
        },
        {
          "indexed": false,
          "internalType": "address",
          "name": "_userAddress",
          "type": "address"
        },
        {
          "indexed": false,
          "internalType": "address",
          "name": "_requestAddress",
          "type": "address"
        },
        {
          "indexed": false,
          "internalType": "uint256",
          "name": "_timestamp",
          "type": "uint256"
        },
        {
          "indexed": false,
          "internalType": "bytes32",
          "name": "_signature",
          "type": "bytes32"
        }
      ],
      "name": "RequestEvent",
      "type": "event"
    },
    {
      "inputs": [
        {
          "internalType": "uint256",
          "name": "",
          "type": "uint256"
        }
      ],
      "name": "allCompanyRequests",
      "outputs": [
        {
          "internalType": "uint256",
          "name": "_index",
          "type": "uint256"
        },
        {
          "internalType": "uint256",
          "name": "_indexProjectRequest",
          "type": "uint256"
        },
        {
          "internalType": "bytes32",
          "name": "_title",
          "type": "bytes32"
        },
        {
          "internalType": "enum SharedChain.RequestStatus",
          "name": "_requestStatus",
          "type": "uint8"
        },
        {
          "internalType": "enum SharedChain.ProjectStatus",
          "name": "_projectStatus",
          "type": "uint8"
        },
        {
          "internalType": "enum SharedChain.RequestType",
          "name": "_requestType",
          "type": "uint8"
        },
        {
          "internalType": "address",
          "name": "_projectAddress",
          "type": "address"
        },
        {
          "internalType": "address",
          "name": "_userAddress",
          "type": "address"
        },
        {
          "internalType": "address",
          "name": "_requestAddress",
          "type": "address"
        },
        {
          "internalType": "uint256",
          "name": "_timestamp",
          "type": "uint256"
        },
        {
          "internalType": "bytes32",
          "name": "_signature",
          "type": "bytes32"
        }
      ],
      "stateMutability": "view",
      "type": "function"
    },
    {
      "inputs": [
        {
          "internalType": "uint256",
          "name": "",
          "type": "uint256"
        }
      ],
      "name": "requestsCompany",
      "outputs": [
        {
          "internalType": "uint256",
          "name": "_index",
          "type": "uint256"
        },
        {
          "internalType": "uint256",
          "name": "_indexProjectRequest",
          "type": "uint256"
        },
        {
          "internalType": "bytes32",
          "name": "_title",
          "type": "bytes32"
        },
        {
          "internalType": "enum SharedChain.RequestStatus",
          "name": "_requestStatus",
          "type": "uint8"
        },
        {
          "internalType": "enum SharedChain.ProjectStatus",
          "name": "_projectStatus",
          "type": "uint8"
        },
        {
          "internalType": "enum SharedChain.RequestType",
          "name": "_requestType",
          "type": "uint8"
        },
        {
          "internalType": "address",
          "name": "_projectAddress",
          "type": "address"
        },
        {
          "internalType": "address",
          "name": "_userAddress",
          "type": "address"
        },
        {
          "internalType": "address",
          "name": "_requestAddress",
          "type": "address"
        },
        {
          "internalType": "uint256",
          "name": "_timestamp",
          "type": "uint256"
        },
        {
          "internalType": "bytes32",
          "name": "_signature",
          "type": "bytes32"
        }
      ],
      "stateMutability": "view",
      "type": "function"
    },
    {
      "inputs": [],
      "name": "requestsCompanyCounter",
      "outputs": [
        {
          "internalType": "uint256",
          "name": "",
          "type": "uint256"
        }
      ],
      "stateMutability": "view",
      "type": "function"
    }
  ],
  "bytecode": "0x6080604052600060025534801561001557600080fd5b50336000806101000a81548173ffffffffffffffffffffffffffffffffffffffff021916908373ffffffffffffffffffffffffffffffffffffffff160217905550610584806100656000396000f3fe608060405234801561001057600080fd5b50600436106100415760003560e01c8063af21684f14610046578063e7418dc214610064578063f9cf86491461009e575b600080fd5b61004e6100d8565b60405161005b91906102c9565b60405180910390f35b61007e60048036038101906100799190610315565b6100de565b6040516100959b9a999897969594939291906104a3565b60405180910390f35b6100b860048036038101906100b39190610315565b6101bf565b6040516100cf9b9a999897969594939291906104a3565b60405180910390f35b60025481565b60016020528060005260406000206000915090508060000154908060010154908060020154908060030160009054906101000a900460ff16908060030160019054906101000a900460ff16908060030160029054906101000a900460ff16908060030160039054906101000a900473ffffffffffffffffffffffffffffffffffffffff16908060040160009054906101000a900473ffffffffffffffffffffffffffffffffffffffff16908060050160009054906101000a900473ffffffffffffffffffffffffffffffffffffffff1690806006015490806007015490508b565b600381815481106101cf57600080fd5b90600052602060002090600802016000915090508060000154908060010154908060020154908060030160009054906101000a900460ff16908060030160019054906101000a900460ff16908060030160029054906101000a900460ff16908060030160039054906101000a900473ffffffffffffffffffffffffffffffffffffffff16908060040160009054906101000a900473ffffffffffffffffffffffffffffffffffffffff16908060050160009054906101000a900473ffffffffffffffffffffffffffffffffffffffff1690806006015490806007015490508b565b6000819050919050565b6102c3816102b0565b82525050565b60006020820190506102de60008301846102ba565b92915050565b600080fd5b6102f2816102b0565b81146102fd57600080fd5b50565b60008135905061030f816102e9565b92915050565b60006020828403121561032b5761032a6102e4565b5b600061033984828501610300565b91505092915050565b6000819050919050565b61035581610342565b82525050565b7f4e487b7100000000000000000000000000000000000000000000000000000000600052602160045260246000fd5b6003811061039b5761039a61035b565b5b50565b60008190506103ac8261038a565b919050565b60006103bc8261039e565b9050919050565b6103cc816103b1565b82525050565b600581106103e3576103e261035b565b5b50565b60008190506103f4826103d2565b919050565b6000610404826103e6565b9050919050565b610414816103f9565b82525050565b6002811061042b5761042a61035b565b5b50565b600081905061043c8261041a565b919050565b600061044c8261042e565b9050919050565b61045c81610441565b82525050565b600073ffffffffffffffffffffffffffffffffffffffff82169050919050565b600061048d82610462565b9050919050565b61049d81610482565b82525050565b6000610160820190506104b9600083018e6102ba565b6104c6602083018d6102ba565b6104d3604083018c61034c565b6104e0606083018b6103c3565b6104ed608083018a61040b565b6104fa60a0830189610453565b61050760c0830188610494565b61051460e0830187610494565b610522610100830186610494565b6105306101208301856102ba565b61053e61014083018461034c565b9c9b50505050505050505050505056fea264697066735822122073c2c5dab7ee92e5ba44689ff8ada65495d3510411aa8f95292867e50e4ca6df64736f6c634300080a0033",
  "immutableReferences": {},
  "source": "// SPDX-License-Identifier: MIT\r\npragma solidity >=0.8.0 <0.9.0;\r\n\r\nimport \"../SharedChain.sol\";\r\n\r\ncontract CompanyChain is SharedChain {\r\n    address _companyAddress;\r\n\r\n    mapping(uint => Request) public requestsCompany;\r\n    uint public requestsCompanyCounter = 0;\r\n    Request[] public allCompanyRequests;\r\n\r\n    constructor() {\r\n        _companyAddress = msg.sender;\r\n    }\r\n\r\n    modifier onlyCompany {\r\n        require(_companyAddress == msg.sender, \"You are not a company builder\");\r\n        _;\r\n    }\r\n/*\r\n    function createRequestCompany(\r\n        bytes32 _title,\r\n        uint _requestStatus,\r\n        uint _projectStatus,\r\n        address _projectAddress\r\n    ) public {\r\n        requestsCompany[requestsCompanyCounter]._index = requestsCompanyCounter;\r\n        requestsCompany[requestsCompanyCounter]._title = _title;\r\n        requestsCompany[requestsCompanyCounter]._requestStatus = RequestStatus(_requestStatus);\r\n        requestsCompany[requestsCompanyCounter]._projectStatus = ProjectStatus(_projectStatus);\r\n        requestsCompany[requestsCompanyCounter]._projectAddress = _projectAddress;\r\n        // change to companyAddress\r\n        requestsCompany[requestsCompanyCounter]._userAddress = _companyAddress;\r\n\r\n        emit RequestEvent(requestsCompanyCounter, _title, RequestStatus(_requestStatus), ProjectStatus(_projectStatus), _projectAddress, _companyAddress, block.timestamp);\r\n        allCompanyRequests.push(Request(requestsCompanyCounter, _title,  RequestStatus(_requestStatus), ProjectStatus(_projectStatus), _projectAddress, _companyAddress));\r\n        requestsCompanyCounter++;\r\n    }\r\n\r\n    function updateRequestCompany(uint _requestStatus, uint _index) public {\r\n        requestsCompany[_index]._requestStatus = RequestStatus(_requestStatus);\r\n        //uint index = requestsCompany[_index]._index;\r\n        //allCompanyRequests[index]._requestStatus = RequestStatus(_requestStatus);\r\n    }\r\n\r\n    function getAllRequestsCompany() public view returns(Request[] memory) {\r\n        return allCompanyRequests;\r\n    }\r\n*/\r\n}\r\n",
  "sourcePath": "/mnt/c/Users/Beniamin/source/repos/DissertationProject/contracts/others/CompanyChain.sol",
  "compiler": {
    "name": "solc",
    "version": "0.8.10+commit.fc410830.Emscripten.clang"
  },
  "schemaVersion": "3.4.3",
  "updatedAt": "2021-11-23T08:06:47.815Z",
  "devdoc": {
    "kind": "dev",
    "methods": {},
    "version": 1
  },
  "userdoc": {
    "kind": "user",
    "methods": {},
    "version": 1
  }
}