{
  "contractName": "CompanyChain",
  "abi": [
    {
      "inputs": [],
      "stateMutability": "nonpayable",
      "type": "constructor"
    },
    {
      "anonymous": false,
      "inputs": [
        {
          "indexed": false,
          "internalType": "uint256",
          "name": "_index",
          "type": "uint256"
        },
        {
          "indexed": false,
          "internalType": "string",
          "name": "_name",
          "type": "string"
        },
        {
          "indexed": false,
          "internalType": "enum SharedChain.ProjectStatus",
          "name": "_status",
          "type": "uint8"
        },
        {
          "indexed": false,
          "internalType": "string",
          "name": "_ipfsFileCID",
          "type": "string"
        },
        {
          "indexed": false,
          "internalType": "address",
          "name": "_projectAddress",
          "type": "address"
        },
        {
          "indexed": false,
          "internalType": "address",
          "name": "_userAddress",
          "type": "address"
        },
        {
          "indexed": false,
          "internalType": "uint256",
          "name": "_timestamp",
          "type": "uint256"
        }
      ],
      "name": "ProjectEvent",
      "type": "event"
    },
    {
      "anonymous": false,
      "inputs": [
        {
          "indexed": false,
          "internalType": "uint256",
          "name": "_index",
          "type": "uint256"
        },
        {
          "indexed": false,
          "internalType": "string",
          "name": "_title",
          "type": "string"
        },
        {
          "indexed": false,
          "internalType": "string",
          "name": "_comments",
          "type": "string"
        },
        {
          "indexed": false,
          "internalType": "enum SharedChain.ProjectStatus",
          "name": "_status",
          "type": "uint8"
        },
        {
          "indexed": false,
          "internalType": "enum SharedChain.RequestStatus",
          "name": "_requestStatus",
          "type": "uint8"
        },
        {
          "indexed": false,
          "internalType": "address",
          "name": "_projectAddress",
          "type": "address"
        },
        {
          "indexed": false,
          "internalType": "address",
          "name": "_userAddress",
          "type": "address"
        },
        {
          "indexed": false,
          "internalType": "uint256",
          "name": "_timestamp",
          "type": "uint256"
        }
      ],
      "name": "ProjectRequestEvent",
      "type": "event"
    },
    {
      "anonymous": false,
      "inputs": [
        {
          "indexed": false,
          "internalType": "uint256",
          "name": "_index",
          "type": "uint256"
        },
        {
          "indexed": false,
          "internalType": "string",
          "name": "_title",
          "type": "string"
        },
        {
          "indexed": false,
          "internalType": "enum SharedChain.RequestStatus",
          "name": "_status",
          "type": "uint8"
        },
        {
          "indexed": false,
          "internalType": "enum SharedChain.ProjectStatus",
          "name": "_projectStatus",
          "type": "uint8"
        },
        {
          "indexed": false,
          "internalType": "address",
          "name": "_projectAddress",
          "type": "address"
        },
        {
          "indexed": false,
          "internalType": "address",
          "name": "_userAddress",
          "type": "address"
        },
        {
          "indexed": false,
          "internalType": "uint256",
          "name": "_timestamp",
          "type": "uint256"
        }
      ],
      "name": "RequestEvent",
      "type": "event"
    },
    {
      "inputs": [
        {
          "internalType": "uint256",
          "name": "",
          "type": "uint256"
        }
      ],
      "name": "allCompanyRequests",
      "outputs": [
        {
          "internalType": "uint256",
          "name": "_index",
          "type": "uint256"
        },
        {
          "internalType": "string",
          "name": "_title",
          "type": "string"
        },
        {
          "internalType": "enum SharedChain.RequestStatus",
          "name": "_requestStatus",
          "type": "uint8"
        },
        {
          "internalType": "enum SharedChain.ProjectStatus",
          "name": "_projectStatus",
          "type": "uint8"
        },
        {
          "internalType": "address",
          "name": "_projectAddress",
          "type": "address"
        },
        {
          "internalType": "address",
          "name": "_userAddress",
          "type": "address"
        }
      ],
      "stateMutability": "view",
      "type": "function"
    },
    {
      "inputs": [
        {
          "internalType": "uint256",
          "name": "",
          "type": "uint256"
        }
      ],
      "name": "requestsCompany",
      "outputs": [
        {
          "internalType": "uint256",
          "name": "_index",
          "type": "uint256"
        },
        {
          "internalType": "string",
          "name": "_title",
          "type": "string"
        },
        {
          "internalType": "enum SharedChain.RequestStatus",
          "name": "_requestStatus",
          "type": "uint8"
        },
        {
          "internalType": "enum SharedChain.ProjectStatus",
          "name": "_projectStatus",
          "type": "uint8"
        },
        {
          "internalType": "address",
          "name": "_projectAddress",
          "type": "address"
        },
        {
          "internalType": "address",
          "name": "_userAddress",
          "type": "address"
        }
      ],
      "stateMutability": "view",
      "type": "function"
    },
    {
      "inputs": [],
      "name": "requestsCompanyCounter",
      "outputs": [
        {
          "internalType": "uint256",
          "name": "",
          "type": "uint256"
        }
      ],
      "stateMutability": "view",
      "type": "function"
    },
    {
      "inputs": [
        {
          "internalType": "string",
          "name": "_title",
          "type": "string"
        },
        {
          "internalType": "uint256",
          "name": "_requestStatus",
          "type": "uint256"
        },
        {
          "internalType": "uint256",
          "name": "_projectStatus",
          "type": "uint256"
        },
        {
          "internalType": "address",
          "name": "_projectAddress",
          "type": "address"
        }
      ],
      "name": "createRequestCompany",
      "outputs": [],
      "stateMutability": "nonpayable",
      "type": "function"
    },
    {
      "inputs": [
        {
          "internalType": "uint256",
          "name": "_requestStatus",
          "type": "uint256"
        },
        {
          "internalType": "uint256",
          "name": "_index",
          "type": "uint256"
        }
      ],
      "name": "updateRequestCompany",
      "outputs": [],
      "stateMutability": "nonpayable",
      "type": "function"
    },
    {
      "inputs": [],
      "name": "getAllRequestsCompany",
      "outputs": [
        {
          "components": [
            {
              "internalType": "uint256",
              "name": "_index",
              "type": "uint256"
            },
            {
              "internalType": "string",
              "name": "_title",
              "type": "string"
            },
            {
              "internalType": "enum SharedChain.RequestStatus",
              "name": "_requestStatus",
              "type": "uint8"
            },
            {
              "internalType": "enum SharedChain.ProjectStatus",
              "name": "_projectStatus",
              "type": "uint8"
            },
            {
              "internalType": "address",
              "name": "_projectAddress",
              "type": "address"
            },
            {
              "internalType": "address",
              "name": "_userAddress",
              "type": "address"
            }
          ],
          "internalType": "struct SharedChain.Request[]",
          "name": "",
          "type": "tuple[]"
        }
      ],
      "stateMutability": "view",
      "type": "function"
    }
  ],
  "bytecode": "0x6080604052600060025534801561001557600080fd5b50336000806101000a81548173ffffffffffffffffffffffffffffffffffffffff021916908373ffffffffffffffffffffffffffffffffffffffff160217905550611353806100656000396000f3fe608060405234801561001057600080fd5b50600436106100625760003560e01c80632361931b14610067578063503a3f9e14610083578063af21684f1461009f578063b2423c1e146100bd578063e7418dc2146100db578063f9cf864914610110575b600080fd5b610081600480360381019061007c9190610d03565b610145565b005b61009d60048036038101906100989190610d86565b6105af565b005b6100a7610603565b6040516100b49190610dd5565b60405180910390f35b6100c5610609565b6040516100d291906110a0565b60405180910390f35b6100f560048036038101906100f091906110c2565b610826565b60405161010796959493929190611166565b60405180910390f35b61012a600480360381019061012591906110c2565b610944565b60405161013c96959493929190611166565b60405180910390f35b60025460016000600254815260200190815260200160002060000181905550836001600060025481526020019081526020016000206001019080519060200190610190929190610a72565b508260028111156101a4576101a3610eb3565b5b60016000600254815260200190815260200160002060020160006101000a81548160ff021916908360028111156101de576101dd610eb3565b5b02179055508160048111156101f6576101f5610eb3565b5b60016000600254815260200190815260200160002060020160016101000a81548160ff021916908360048111156102305761022f610eb3565b5b02179055508060016000600254815260200190815260200160002060020160026101000a81548173ffffffffffffffffffffffffffffffffffffffff021916908373ffffffffffffffffffffffffffffffffffffffff16021790555060008054906101000a900473ffffffffffffffffffffffffffffffffffffffff1660016000600254815260200190815260200160002060030160006101000a81548173ffffffffffffffffffffffffffffffffffffffff021916908373ffffffffffffffffffffffffffffffffffffffff1602179055507f384425faf43fd1f730f8ae6503cf1641e4c13931dfe4409d227bd9c1b73f2a956002548585600281111561033b5761033a610eb3565b5b85600481111561034e5761034d610eb3565b5b8560008054906101000a900473ffffffffffffffffffffffffffffffffffffffff164260405161038497969594939291906111ce565b60405180910390a160036040518060c0016040528060025481526020018681526020018560028111156103ba576103b9610eb3565b5b60028111156103cc576103cb610eb3565b5b81526020018460048111156103e4576103e3610eb3565b5b60048111156103f6576103f5610eb3565b5b81526020018373ffffffffffffffffffffffffffffffffffffffff16815260200160008054906101000a900473ffffffffffffffffffffffffffffffffffffffff1673ffffffffffffffffffffffffffffffffffffffff1681525090806001815401808255809150506001900390600052602060002090600402016000909190919091506000820151816000015560208201518160010190805190602001906104a0929190610a72565b5060408201518160020160006101000a81548160ff021916908360028111156104cc576104cb610eb3565b5b021790555060608201518160020160016101000a81548160ff021916908360048111156104fc576104fb610eb3565b5b021790555060808201518160020160026101000a81548173ffffffffffffffffffffffffffffffffffffffff021916908373ffffffffffffffffffffffffffffffffffffffff16021790555060a08201518160030160006101000a81548173ffffffffffffffffffffffffffffffffffffffff021916908373ffffffffffffffffffffffffffffffffffffffff1602179055505050600260008154809291906105a490611273565b919050555050505050565b8160028111156105c2576105c1610eb3565b5b6001600083815260200190815260200160002060020160006101000a81548160ff021916908360028111156105fa576105f9610eb3565b5b02179055505050565b60025481565b60606003805480602002602001604051908101604052809291908181526020016000905b8282101561081d57838290600052602060002090600402016040518060c00160405290816000820154815260200160018201805461066a906112eb565b80601f0160208091040260200160405190810160405280929190818152602001828054610696906112eb565b80156106e35780601f106106b8576101008083540402835291602001916106e3565b820191906000526020600020905b8154815290600101906020018083116106c657829003601f168201915b505050505081526020016002820160009054906101000a900460ff16600281111561071157610710610eb3565b5b600281111561072357610722610eb3565b5b81526020016002820160019054906101000a900460ff16600481111561074c5761074b610eb3565b5b600481111561075e5761075d610eb3565b5b81526020016002820160029054906101000a900473ffffffffffffffffffffffffffffffffffffffff1673ffffffffffffffffffffffffffffffffffffffff1673ffffffffffffffffffffffffffffffffffffffff1681526020016003820160009054906101000a900473ffffffffffffffffffffffffffffffffffffffff1673ffffffffffffffffffffffffffffffffffffffff1673ffffffffffffffffffffffffffffffffffffffff16815250508152602001906001019061062d565b50505050905090565b600160205280600052604060002060009150905080600001549080600101805461084f906112eb565b80601f016020809104026020016040519081016040528092919081815260200182805461087b906112eb565b80156108c85780601f1061089d576101008083540402835291602001916108c8565b820191906000526020600020905b8154815290600101906020018083116108ab57829003601f168201915b5050505050908060020160009054906101000a900460ff16908060020160019054906101000a900460ff16908060020160029054906101000a900473ffffffffffffffffffffffffffffffffffffffff16908060030160009054906101000a900473ffffffffffffffffffffffffffffffffffffffff16905086565b6003818154811061095457600080fd5b906000526020600020906004020160009150905080600001549080600101805461097d906112eb565b80601f01602080910402602001604051908101604052809291908181526020018280546109a9906112eb565b80156109f65780601f106109cb576101008083540402835291602001916109f6565b820191906000526020600020905b8154815290600101906020018083116109d957829003601f168201915b5050505050908060020160009054906101000a900460ff16908060020160019054906101000a900460ff16908060020160029054906101000a900473ffffffffffffffffffffffffffffffffffffffff16908060030160009054906101000a900473ffffffffffffffffffffffffffffffffffffffff16905086565b828054610a7e906112eb565b90600052602060002090601f016020900481019282610aa05760008555610ae7565b82601f10610ab957805160ff1916838001178555610ae7565b82800160010185558215610ae7579182015b82811115610ae6578251825591602001919060010190610acb565b5b509050610af49190610af8565b5090565b5b80821115610b11576000816000905550600101610af9565b5090565b6000604051905090565b600080fd5b600080fd5b600080fd5b600080fd5b6000601f19601f8301169050919050565b7f4e487b7100000000000000000000000000000000000000000000000000000000600052604160045260246000fd5b610b7c82610b33565b810181811067ffffffffffffffff82111715610b9b57610b9a610b44565b5b80604052505050565b6000610bae610b15565b9050610bba8282610b73565b919050565b600067ffffffffffffffff821115610bda57610bd9610b44565b5b610be382610b33565b9050602081019050919050565b82818337600083830152505050565b6000610c12610c0d84610bbf565b610ba4565b905082815260208101848484011115610c2e57610c2d610b2e565b5b610c39848285610bf0565b509392505050565b600082601f830112610c5657610c55610b29565b5b8135610c66848260208601610bff565b91505092915050565b6000819050919050565b610c8281610c6f565b8114610c8d57600080fd5b50565b600081359050610c9f81610c79565b92915050565b600073ffffffffffffffffffffffffffffffffffffffff82169050919050565b6000610cd082610ca5565b9050919050565b610ce081610cc5565b8114610ceb57600080fd5b50565b600081359050610cfd81610cd7565b92915050565b60008060008060808587031215610d1d57610d1c610b1f565b5b600085013567ffffffffffffffff811115610d3b57610d3a610b24565b5b610d4787828801610c41565b9450506020610d5887828801610c90565b9350506040610d6987828801610c90565b9250506060610d7a87828801610cee565b91505092959194509250565b60008060408385031215610d9d57610d9c610b1f565b5b6000610dab85828601610c90565b9250506020610dbc85828601610c90565b9150509250929050565b610dcf81610c6f565b82525050565b6000602082019050610dea6000830184610dc6565b92915050565b600081519050919050565b600082825260208201905092915050565b6000819050602082019050919050565b610e2581610c6f565b82525050565b600081519050919050565b600082825260208201905092915050565b60005b83811015610e65578082015181840152602081019050610e4a565b83811115610e74576000848401525b50505050565b6000610e8582610e2b565b610e8f8185610e36565b9350610e9f818560208601610e47565b610ea881610b33565b840191505092915050565b7f4e487b7100000000000000000000000000000000000000000000000000000000600052602160045260246000fd5b60038110610ef357610ef2610eb3565b5b50565b6000819050610f0482610ee2565b919050565b6000610f1482610ef6565b9050919050565b610f2481610f09565b82525050565b60058110610f3b57610f3a610eb3565b5b50565b6000819050610f4c82610f2a565b919050565b6000610f5c82610f3e565b9050919050565b610f6c81610f51565b82525050565b610f7b81610cc5565b82525050565b600060c083016000830151610f996000860182610e1c565b5060208301518482036020860152610fb18282610e7a565b9150506040830151610fc66040860182610f1b565b506060830151610fd96060860182610f63565b506080830151610fec6080860182610f72565b5060a0830151610fff60a0860182610f72565b508091505092915050565b60006110168383610f81565b905092915050565b6000602082019050919050565b600061103682610df0565b6110408185610dfb565b93508360208202850161105285610e0c565b8060005b8581101561108e578484038952815161106f858261100a565b945061107a8361101e565b925060208a01995050600181019050611056565b50829750879550505050505092915050565b600060208201905081810360008301526110ba818461102b565b905092915050565b6000602082840312156110d8576110d7610b1f565b5b60006110e684828501610c90565b91505092915050565b600082825260208201905092915050565b600061110b82610e2b565b61111581856110ef565b9350611125818560208601610e47565b61112e81610b33565b840191505092915050565b61114281610f09565b82525050565b61115181610f51565b82525050565b61116081610cc5565b82525050565b600060c08201905061117b6000830189610dc6565b818103602083015261118d8188611100565b905061119c6040830187611139565b6111a96060830186611148565b6111b66080830185611157565b6111c360a0830184611157565b979650505050505050565b600060e0820190506111e3600083018a610dc6565b81810360208301526111f58189611100565b90506112046040830188611139565b6112116060830187611148565b61121e6080830186611157565b61122b60a0830185611157565b61123860c0830184610dc6565b98975050505050505050565b7f4e487b7100000000000000000000000000000000000000000000000000000000600052601160045260246000fd5b600061127e82610c6f565b91507fffffffffffffffffffffffffffffffffffffffffffffffffffffffffffffffff8214156112b1576112b0611244565b5b600182019050919050565b7f4e487b7100000000000000000000000000000000000000000000000000000000600052602260045260246000fd5b6000600282049050600182168061130357607f821691505b60208210811415611317576113166112bc565b5b5091905056fea26469706673582212205333a7e56ebfedb4282c6a0139a0ac0b20bddeaf999d342a1d85dc07f873d1ff64736f6c634300080a0033",
  "immutableReferences": {},
  "source": "// SPDX-License-Identifier: MIT\r\npragma solidity >=0.8.0 <0.9.0;\r\n\r\nimport \"./SharedChain.sol\";\r\n\r\ncontract CompanyChain is SharedChain {\r\n    address _companyAddress;\r\n\r\n    mapping(uint => Request) public requestsCompany;\r\n    uint public requestsCompanyCounter = 0;\r\n    Request[] public allCompanyRequests;\r\n\r\n    constructor() {\r\n        _companyAddress = msg.sender;\r\n    }\r\n\r\n    modifier onlyCompany {\r\n        require(_companyAddress == msg.sender, \"You are not a company builder\");\r\n        _;\r\n    }\r\n\r\n    function createRequestCompany(\r\n        string memory _title,\r\n        uint _requestStatus,\r\n        uint _projectStatus,\r\n        address _projectAddress\r\n    ) public {\r\n        requestsCompany[requestsCompanyCounter]._index = requestsCompanyCounter;\r\n        requestsCompany[requestsCompanyCounter]._title = _title;\r\n        requestsCompany[requestsCompanyCounter]._requestStatus = RequestStatus(_requestStatus);\r\n        requestsCompany[requestsCompanyCounter]._projectStatus = ProjectStatus(_projectStatus);\r\n        requestsCompany[requestsCompanyCounter]._projectAddress = _projectAddress;\r\n        // change to companyAddress\r\n        requestsCompany[requestsCompanyCounter]._userAddress = _companyAddress;\r\n\r\n        emit RequestEvent(requestsCompanyCounter, _title, RequestStatus(_requestStatus), ProjectStatus(_projectStatus), _projectAddress, _companyAddress, block.timestamp);\r\n        allCompanyRequests.push(Request(requestsCompanyCounter, _title,  RequestStatus(_requestStatus), ProjectStatus(_projectStatus), _projectAddress, _companyAddress));\r\n        requestsCompanyCounter++;\r\n    }\r\n\r\n    function updateRequestCompany(uint _requestStatus, uint _index) public {\r\n        requestsCompany[_index]._requestStatus = RequestStatus(_requestStatus);\r\n        //uint index = requestsCompany[_index]._index;\r\n        //allCompanyRequests[index]._requestStatus = RequestStatus(_requestStatus);\r\n    }\r\n\r\n    function getAllRequestsCompany() public view returns(Request[] memory) {\r\n        return allCompanyRequests;\r\n    }\r\n}\r\n",
  "sourcePath": "/mnt/c/users/beniamin/source/repos/dissertationproject/contracts/CompanyChain.sol",
  "compiler": {
    "name": "solc",
    "version": "0.8.10+commit.fc410830.Emscripten.clang"
  },
  "schemaVersion": "3.4.3",
  "updatedAt": "2021-11-21T08:14:09.054Z",
  "devdoc": {
    "kind": "dev",
    "methods": {},
    "version": 1
  },
  "userdoc": {
    "kind": "user",
    "methods": {},
    "version": 1
  }
}