{
  "contractName": "CompanyBuilder",
  "abi": [
    {
      "inputs": [],
      "stateMutability": "nonpayable",
      "type": "constructor"
    },
    {
      "anonymous": false,
      "inputs": [
        {
          "indexed": false,
          "internalType": "enum Project.ProjectStatus",
          "name": "_status",
          "type": "uint8"
        },
        {
          "components": [
            {
              "internalType": "uint256",
              "name": "index",
              "type": "uint256"
            },
            {
              "internalType": "bytes32",
              "name": "identifier",
              "type": "bytes32"
            },
            {
              "internalType": "string",
              "name": "description",
              "type": "string"
            },
            {
              "internalType": "enum Project.ProjectStatus",
              "name": "projectStatus",
              "type": "uint8"
            }
          ],
          "indexed": false,
          "internalType": "struct Project.S_Project",
          "name": "_project",
          "type": "tuple"
        },
        {
          "indexed": false,
          "internalType": "address",
          "name": "_subjectAddress",
          "type": "address"
        }
      ],
      "name": "ApproveProjectRequestByCompany",
      "type": "event"
    },
    {
      "anonymous": false,
      "inputs": [
        {
          "indexed": false,
          "internalType": "enum Project.ProjectStatus",
          "name": "_status",
          "type": "uint8"
        },
        {
          "components": [
            {
              "internalType": "uint256",
              "name": "index",
              "type": "uint256"
            },
            {
              "internalType": "bytes32",
              "name": "identifier",
              "type": "bytes32"
            },
            {
              "internalType": "string",
              "name": "description",
              "type": "string"
            },
            {
              "internalType": "enum Project.ProjectStatus",
              "name": "projectStatus",
              "type": "uint8"
            }
          ],
          "indexed": false,
          "internalType": "struct Project.S_Project",
          "name": "_project",
          "type": "tuple"
        },
        {
          "indexed": false,
          "internalType": "address",
          "name": "_subjectAddress",
          "type": "address"
        }
      ],
      "name": "BeforeFinalizationProjectRequestByCompany",
      "type": "event"
    },
    {
      "anonymous": false,
      "inputs": [
        {
          "indexed": false,
          "internalType": "uint256",
          "name": "_indexProject",
          "type": "uint256"
        },
        {
          "indexed": false,
          "internalType": "enum Project.ProjectStatus",
          "name": "_projectStatus",
          "type": "uint8"
        },
        {
          "indexed": false,
          "internalType": "address",
          "name": "_address",
          "type": "address"
        }
      ],
      "name": "CreateProject",
      "type": "event"
    },
    {
      "anonymous": false,
      "inputs": [
        {
          "indexed": false,
          "internalType": "string",
          "name": "_description",
          "type": "string"
        },
        {
          "indexed": false,
          "internalType": "enum Project.ProjectStatus",
          "name": "_status",
          "type": "uint8"
        },
        {
          "components": [
            {
              "internalType": "uint256",
              "name": "index",
              "type": "uint256"
            },
            {
              "internalType": "bytes32",
              "name": "identifier",
              "type": "bytes32"
            },
            {
              "internalType": "string",
              "name": "description",
              "type": "string"
            },
            {
              "internalType": "enum Project.ProjectStatus",
              "name": "projectStatus",
              "type": "uint8"
            }
          ],
          "indexed": false,
          "internalType": "struct Project.S_Project",
          "name": "_project",
          "type": "tuple"
        },
        {
          "indexed": false,
          "internalType": "address",
          "name": "_subjectAddress",
          "type": "address"
        }
      ],
      "name": "RejectProjectRequestByCompany",
      "type": "event"
    },
    {
      "anonymous": false,
      "inputs": [
        {
          "indexed": false,
          "internalType": "uint256",
          "name": "_indexRequest",
          "type": "uint256"
        },
        {
          "indexed": false,
          "internalType": "enum Project.RequestStatus",
          "name": "_status",
          "type": "uint8"
        },
        {
          "components": [
            {
              "internalType": "uint256",
              "name": "index",
              "type": "uint256"
            },
            {
              "internalType": "bytes32",
              "name": "identifier",
              "type": "bytes32"
            },
            {
              "internalType": "string",
              "name": "description",
              "type": "string"
            },
            {
              "internalType": "enum Project.ProjectStatus",
              "name": "projectStatus",
              "type": "uint8"
            }
          ],
          "indexed": false,
          "internalType": "struct Project.S_Project",
          "name": "_project",
          "type": "tuple"
        },
        {
          "indexed": false,
          "internalType": "enum Project.ProjectStatus",
          "name": "_projectStatus",
          "type": "uint8"
        },
        {
          "indexed": false,
          "internalType": "address",
          "name": "_subjectAddress",
          "type": "address"
        }
      ],
      "name": "UpdateCompanyRequestStatus",
      "type": "event"
    },
    {
      "anonymous": false,
      "inputs": [
        {
          "indexed": false,
          "internalType": "uint256",
          "name": "_indexRequest",
          "type": "uint256"
        },
        {
          "indexed": false,
          "internalType": "enum Project.RequestStatus",
          "name": "_status",
          "type": "uint8"
        },
        {
          "components": [
            {
              "internalType": "uint256",
              "name": "index",
              "type": "uint256"
            },
            {
              "internalType": "bytes32",
              "name": "identifier",
              "type": "bytes32"
            },
            {
              "internalType": "string",
              "name": "description",
              "type": "string"
            },
            {
              "internalType": "enum Project.ProjectStatus",
              "name": "projectStatus",
              "type": "uint8"
            }
          ],
          "indexed": false,
          "internalType": "struct Project.S_Project",
          "name": "_project",
          "type": "tuple"
        },
        {
          "indexed": false,
          "internalType": "enum Project.ProjectStatus",
          "name": "_projectStatus",
          "type": "uint8"
        },
        {
          "indexed": false,
          "internalType": "address",
          "name": "_subjectAddress",
          "type": "address"
        }
      ],
      "name": "UpdateSupervisorRequestStatus",
      "type": "event"
    },
    {
      "anonymous": false,
      "inputs": [
        {
          "indexed": true,
          "internalType": "address",
          "name": "_walletAddress",
          "type": "address"
        },
        {
          "indexed": false,
          "internalType": "bytes32",
          "name": "_username",
          "type": "bytes32"
        },
        {
          "indexed": false,
          "internalType": "bytes32",
          "name": "_email",
          "type": "bytes32"
        },
        {
          "indexed": false,
          "internalType": "bytes32",
          "name": "_firstname",
          "type": "bytes32"
        },
        {
          "indexed": false,
          "internalType": "bytes32",
          "name": "_lastname",
          "type": "bytes32"
        },
        {
          "indexed": false,
          "internalType": "enum User.Roles",
          "name": "_role",
          "type": "uint8"
        }
      ],
      "name": "UserRegistered",
      "type": "event"
    },
    {
      "inputs": [
        {
          "internalType": "uint256",
          "name": "",
          "type": "uint256"
        }
      ],
      "name": "companyRequests",
      "outputs": [
        {
          "internalType": "uint256",
          "name": "index",
          "type": "uint256"
        },
        {
          "internalType": "string",
          "name": "description",
          "type": "string"
        },
        {
          "internalType": "enum Project.RequestStatus",
          "name": "status",
          "type": "uint8"
        },
        {
          "components": [
            {
              "internalType": "uint256",
              "name": "index",
              "type": "uint256"
            },
            {
              "internalType": "bytes32",
              "name": "identifier",
              "type": "bytes32"
            },
            {
              "internalType": "string",
              "name": "description",
              "type": "string"
            },
            {
              "internalType": "enum Project.ProjectStatus",
              "name": "projectStatus",
              "type": "uint8"
            }
          ],
          "internalType": "struct Project.S_Project",
          "name": "project",
          "type": "tuple"
        },
        {
          "internalType": "address",
          "name": "subjectAddress",
          "type": "address"
        }
      ],
      "stateMutability": "view",
      "type": "function"
    },
    {
      "inputs": [
        {
          "internalType": "uint256",
          "name": "_index",
          "type": "uint256"
        },
        {
          "internalType": "string",
          "name": "_description",
          "type": "string"
        },
        {
          "internalType": "enum Project.ProjectStatus",
          "name": "_status",
          "type": "uint8"
        },
        {
          "internalType": "string",
          "name": "_hashStringValue",
          "type": "string"
        }
      ],
      "name": "createProject",
      "outputs": [],
      "stateMutability": "nonpayable",
      "type": "function"
    },
    {
      "inputs": [
        {
          "internalType": "string",
          "name": "_text",
          "type": "string"
        },
        {
          "internalType": "address",
          "name": "_addr",
          "type": "address"
        }
      ],
      "name": "createUniqueIdentifier",
      "outputs": [
        {
          "internalType": "bytes32",
          "name": "",
          "type": "bytes32"
        }
      ],
      "stateMutability": "pure",
      "type": "function"
    },
    {
      "inputs": [],
      "name": "getUserIds",
      "outputs": [
        {
          "internalType": "uint256[]",
          "name": "",
          "type": "uint256[]"
        }
      ],
      "stateMutability": "view",
      "type": "function"
    },
    {
      "inputs": [
        {
          "internalType": "uint256",
          "name": "_index",
          "type": "uint256"
        }
      ],
      "name": "getUserInfo",
      "outputs": [
        {
          "components": [
            {
              "internalType": "uint256",
              "name": "index",
              "type": "uint256"
            },
            {
              "internalType": "bytes32",
              "name": "username",
              "type": "bytes32"
            },
            {
              "internalType": "bytes32",
              "name": "email",
              "type": "bytes32"
            },
            {
              "internalType": "bytes32",
              "name": "firstname",
              "type": "bytes32"
            },
            {
              "internalType": "bytes32",
              "name": "lastname",
              "type": "bytes32"
            },
            {
              "internalType": "enum User.Roles",
              "name": "role",
              "type": "uint8"
            },
            {
              "internalType": "address",
              "name": "walletAddress",
              "type": "address"
            }
          ],
          "internalType": "struct User.S_UserData",
          "name": "",
          "type": "tuple"
        }
      ],
      "stateMutability": "view",
      "type": "function"
    },
    {
      "inputs": [],
      "name": "owner",
      "outputs": [
        {
          "internalType": "address",
          "name": "",
          "type": "address"
        }
      ],
      "stateMutability": "view",
      "type": "function"
    },
    {
      "inputs": [
        {
          "internalType": "uint256",
          "name": "",
          "type": "uint256"
        }
      ],
      "name": "projects",
      "outputs": [
        {
          "internalType": "uint256",
          "name": "index",
          "type": "uint256"
        },
        {
          "internalType": "bytes32",
          "name": "identifier",
          "type": "bytes32"
        },
        {
          "internalType": "string",
          "name": "description",
          "type": "string"
        },
        {
          "internalType": "enum Project.ProjectStatus",
          "name": "projectStatus",
          "type": "uint8"
        }
      ],
      "stateMutability": "view",
      "type": "function"
    },
    {
      "inputs": [
        {
          "internalType": "bytes32",
          "name": "_username",
          "type": "bytes32"
        },
        {
          "internalType": "bytes32",
          "name": "_email",
          "type": "bytes32"
        },
        {
          "internalType": "bytes32",
          "name": "_firstname",
          "type": "bytes32"
        },
        {
          "internalType": "bytes32",
          "name": "_lastname",
          "type": "bytes32"
        },
        {
          "internalType": "uint256",
          "name": "_role",
          "type": "uint256"
        },
        {
          "internalType": "address",
          "name": "_walletAddress",
          "type": "address"
        }
      ],
      "name": "registerUser",
      "outputs": [],
      "stateMutability": "nonpayable",
      "type": "function"
    },
    {
      "inputs": [
        {
          "internalType": "string",
          "name": "_description",
          "type": "string"
        },
        {
          "components": [
            {
              "internalType": "uint256",
              "name": "index",
              "type": "uint256"
            },
            {
              "internalType": "bytes32",
              "name": "identifier",
              "type": "bytes32"
            },
            {
              "internalType": "string",
              "name": "description",
              "type": "string"
            },
            {
              "internalType": "enum Project.ProjectStatus",
              "name": "projectStatus",
              "type": "uint8"
            }
          ],
          "internalType": "struct Project.S_Project",
          "name": "_project",
          "type": "tuple"
        },
        {
          "internalType": "address",
          "name": "_subjectAddress",
          "type": "address"
        }
      ],
      "name": "requestProjectApprovalFromSupervisor",
      "outputs": [],
      "stateMutability": "nonpayable",
      "type": "function"
    },
    {
      "inputs": [
        {
          "internalType": "string",
          "name": "_description",
          "type": "string"
        },
        {
          "components": [
            {
              "internalType": "uint256",
              "name": "index",
              "type": "uint256"
            },
            {
              "internalType": "bytes32",
              "name": "identifier",
              "type": "bytes32"
            },
            {
              "internalType": "string",
              "name": "description",
              "type": "string"
            },
            {
              "internalType": "enum Project.ProjectStatus",
              "name": "projectStatus",
              "type": "uint8"
            }
          ],
          "internalType": "struct Project.S_Project",
          "name": "_project",
          "type": "tuple"
        },
        {
          "internalType": "address",
          "name": "_subjectAddress",
          "type": "address"
        }
      ],
      "name": "requestProjectCompleteFromSupervisor",
      "outputs": [],
      "stateMutability": "nonpayable",
      "type": "function"
    },
    {
      "inputs": [
        {
          "internalType": "string",
          "name": "_description",
          "type": "string"
        },
        {
          "components": [
            {
              "internalType": "uint256",
              "name": "index",
              "type": "uint256"
            },
            {
              "internalType": "bytes32",
              "name": "identifier",
              "type": "bytes32"
            },
            {
              "internalType": "string",
              "name": "description",
              "type": "string"
            },
            {
              "internalType": "enum Project.ProjectStatus",
              "name": "projectStatus",
              "type": "uint8"
            }
          ],
          "internalType": "struct Project.S_Project",
          "name": "_project",
          "type": "tuple"
        },
        {
          "internalType": "address",
          "name": "_subjectAddress",
          "type": "address"
        }
      ],
      "name": "requestStartProjectToCompanyBuilder",
      "outputs": [],
      "stateMutability": "nonpayable",
      "type": "function"
    },
    {
      "inputs": [
        {
          "internalType": "uint256",
          "name": "",
          "type": "uint256"
        }
      ],
      "name": "supervisorRequests",
      "outputs": [
        {
          "internalType": "uint256",
          "name": "index",
          "type": "uint256"
        },
        {
          "internalType": "string",
          "name": "description",
          "type": "string"
        },
        {
          "internalType": "enum Project.RequestStatus",
          "name": "status",
          "type": "uint8"
        },
        {
          "components": [
            {
              "internalType": "uint256",
              "name": "index",
              "type": "uint256"
            },
            {
              "internalType": "bytes32",
              "name": "identifier",
              "type": "bytes32"
            },
            {
              "internalType": "string",
              "name": "description",
              "type": "string"
            },
            {
              "internalType": "enum Project.ProjectStatus",
              "name": "projectStatus",
              "type": "uint8"
            }
          ],
          "internalType": "struct Project.S_Project",
          "name": "project",
          "type": "tuple"
        },
        {
          "internalType": "address",
          "name": "subjectAddress",
          "type": "address"
        }
      ],
      "stateMutability": "view",
      "type": "function"
    },
    {
      "inputs": [
        {
          "internalType": "uint256",
          "name": "",
          "type": "uint256"
        }
      ],
      "name": "userIds",
      "outputs": [
        {
          "internalType": "uint256",
          "name": "",
          "type": "uint256"
        }
      ],
      "stateMutability": "view",
      "type": "function"
    },
    {
      "inputs": [
        {
          "internalType": "uint256",
          "name": "",
          "type": "uint256"
        }
      ],
      "name": "userInfo",
      "outputs": [
        {
          "internalType": "uint256",
          "name": "index",
          "type": "uint256"
        },
        {
          "internalType": "bytes32",
          "name": "username",
          "type": "bytes32"
        },
        {
          "internalType": "bytes32",
          "name": "email",
          "type": "bytes32"
        },
        {
          "internalType": "bytes32",
          "name": "firstname",
          "type": "bytes32"
        },
        {
          "internalType": "bytes32",
          "name": "lastname",
          "type": "bytes32"
        },
        {
          "internalType": "enum User.Roles",
          "name": "role",
          "type": "uint8"
        },
        {
          "internalType": "address",
          "name": "walletAddress",
          "type": "address"
        }
      ],
      "stateMutability": "view",
      "type": "function"
    },
    {
      "inputs": [],
      "name": "usersCount",
      "outputs": [
        {
          "internalType": "uint256",
          "name": "",
          "type": "uint256"
        }
      ],
      "stateMutability": "view",
      "type": "function"
    },
    {
      "inputs": [
        {
          "components": [
            {
              "internalType": "uint256",
              "name": "index",
              "type": "uint256"
            },
            {
              "internalType": "bytes32",
              "name": "identifier",
              "type": "bytes32"
            },
            {
              "internalType": "string",
              "name": "description",
              "type": "string"
            },
            {
              "internalType": "enum Project.ProjectStatus",
              "name": "projectStatus",
              "type": "uint8"
            }
          ],
          "internalType": "struct Project.S_Project",
          "name": "_project",
          "type": "tuple"
        }
      ],
      "name": "setProjectRequestToOnGoingStatus",
      "outputs": [],
      "stateMutability": "nonpayable",
      "type": "function"
    },
    {
      "inputs": [
        {
          "internalType": "string",
          "name": "_description",
          "type": "string"
        },
        {
          "components": [
            {
              "internalType": "uint256",
              "name": "index",
              "type": "uint256"
            },
            {
              "internalType": "bytes32",
              "name": "identifier",
              "type": "bytes32"
            },
            {
              "internalType": "string",
              "name": "description",
              "type": "string"
            },
            {
              "internalType": "enum Project.ProjectStatus",
              "name": "projectStatus",
              "type": "uint8"
            }
          ],
          "internalType": "struct Project.S_Project",
          "name": "_project",
          "type": "tuple"
        }
      ],
      "name": "setProjectRequestToRejectStatus",
      "outputs": [],
      "stateMutability": "nonpayable",
      "type": "function"
    },
    {
      "inputs": [
        {
          "components": [
            {
              "internalType": "uint256",
              "name": "index",
              "type": "uint256"
            },
            {
              "internalType": "bytes32",
              "name": "identifier",
              "type": "bytes32"
            },
            {
              "internalType": "string",
              "name": "description",
              "type": "string"
            },
            {
              "internalType": "enum Project.ProjectStatus",
              "name": "projectStatus",
              "type": "uint8"
            }
          ],
          "internalType": "struct Project.S_Project",
          "name": "_project",
          "type": "tuple"
        }
      ],
      "name": "setProjectRequestToBeforeFinalizationStatus",
      "outputs": [],
      "stateMutability": "nonpayable",
      "type": "function"
    }
  ],
  "bytecode": "0x6080604052600060025534801561001557600080fd5b5033600160006101000a81548173ffffffffffffffffffffffffffffffffffffffff021916908373ffffffffffffffffffffffffffffffffffffffff16021790555033600460006101000a81548173ffffffffffffffffffffffffffffffffffffffff021916908373ffffffffffffffffffffffffffffffffffffffff16021790555033600b60006101000a81548173ffffffffffffffffffffffffffffffffffffffff021916908373ffffffffffffffffffffffffffffffffffffffff160217905550612979806100e86000396000f3fe608060405234801561001057600080fd5b50600436106101165760003560e01c80638c86a1d7116100a2578063b512559911610071578063b5125599146102fc578063d379dadf14610318578063d40d4a8014610348578063d892e4c81461037c578063e01da11e1461039857610116565b80638c86a1d7146102725780638da5cb5b146102a6578063934f91c5146102c4578063afb6da0e146102e057610116565b806351d70bc4116100e957806351d70bc4146101b65780635502fc65146101ec5780636132844f146102085780636ba13a821461023857806381f274d41461025657610116565b8063065ea2d31461011b578063107046bd14610137578063332ba3cd1461016a5780634635fd6814610186575b600080fd5b610135600480360381019061013091906119c7565b6103b6565b005b610151600480360381019061014c9190611a66565b6104c9565b6040516101619493929190611bba565b60405180910390f35b610184600480360381019061017f9190611cd0565b61058e565b005b6101a0600480360381019061019b9190611a66565b6106b3565b6040516101ad9190611d48565b60405180910390f35b6101d060048036038101906101cb9190611a66565b6106d7565b6040516101e39796959493929190611dec565b60405180910390f35b61020660048036038101906102019190611e87565b610746565b005b610222600480360381019061021d9190611f12565b610920565b60405161022f9190611f6e565b60405180910390f35b610240610953565b60405161024d9190611d48565b60405180910390f35b610270600480360381019061026b9190611f89565b610959565b005b61028c60048036038101906102879190611a66565b610a7b565b60405161029d9594939291906120f4565b60405180910390f35b6102ae610c51565b6040516102bb9190612155565b60405180910390f35b6102de60048036038101906102d99190611f89565b610c77565b005b6102fa60048036038101906102f59190611e87565b610d99565b005b61031660048036038101906103119190611e87565b610f73565b005b610332600480360381019061032d9190611a66565b61114d565b60405161033f919061221c565b60405180910390f35b610362600480360381019061035d9190611a66565b61123c565b6040516103739594939291906120f4565b60405180910390f35b61039660048036038101906103919190612237565b611412565b005b6103a06116a6565b6040516103ad9190612373565b60405180910390f35b60006103c3826000610920565b90508460056000600854815260200190815260200160002060000181905550806005600060085481526020019081526020016000206001018190555083600560006008548152602001908152602001600020600201908051906020019061042b9291906116fe565b508260056000600854815260200190815260200160002060030160006101000a81548160ff0219169083600581111561046757610466611b43565b5b02179055507fa33c40728c332bcc45ac23baebf405684a95db2bcea19967f32f1c59384c0e886008546000806040516104a293929190612395565b60405180910390a1600860008154809291906104bd906123fb565b91905055505050505050565b60056020528060005260406000206000915090508060000154908060010154908060020180546104f890612473565b80601f016020809104026020016040519081016040528092919081815260200182805461052490612473565b80156105715780601f1061054657610100808354040283529160200191610571565b820191906000526020600020905b81548152906001019060200180831161055457829003601f168201915b5050505050908060030160009054906101000a900460ff16905084565b3373ffffffffffffffffffffffffffffffffffffffff16600b60009054906101000a900473ffffffffffffffffffffffffffffffffffffffff1673ffffffffffffffffffffffffffffffffffffffff161461061e576040517f08c379a0000000000000000000000000000000000000000000000000000000008152600401610615906124f1565b60405180910390fd5b60028160600190600581111561063757610636611b43565b5b9081600581111561064b5761064a611b43565b5b815250507f8108f5496edb06907306692c6d3a9a8d2d8793ae509ca2fe6d60d9c3ad58eddb82600283600b60009054906101000a900473ffffffffffffffffffffffffffffffffffffffff166040516106a79493929190612511565b60405180910390a15050565b600381815481106106c357600080fd5b906000526020600020016000915090505481565b60006020528060005260406000206000915090508060000154908060010154908060020154908060030154908060040154908060050160009054906101000a900460ff16908060050160019054906101000a900473ffffffffffffffffffffffffffffffffffffffff16905087565b6001600581111561075a57610759611b43565b5b8260600151600581111561077157610770611b43565b5b146107b1576040517f08c379a00000000000000000000000000000000000000000000000000000000081526004016107a8906125d6565b60405180910390fd5b60006006600060095481526020019081526020016000209050838160010190805190602001906107e29291906116fe565b5060008160020160006101000a81548160ff0219169083600181111561080b5761080a611b43565b5b02179055508281600301600082015181600001556020820151816001015560408201518160020190805190602001906108459291906116fe565b5060608201518160030160006101000a81548160ff0219169083600581111561087157610870611b43565b5b0217905550905050818160070160006101000a81548173ffffffffffffffffffffffffffffffffffffffff021916908373ffffffffffffffffffffffffffffffffffffffff1602179055507f7404f36b7a730bc20c8cc7e0e75c80d8d9af6bc8bca29829d01437c8f27e64156009546000858660600151866040516108fa9594939291906125f6565b60405180910390a160096000815480929190610915906123fb565b919050555050505050565b600082826040516020016109359291906126d4565b60405160208183030381529060405280519060200120905092915050565b60025481565b3373ffffffffffffffffffffffffffffffffffffffff16600b60009054906101000a900473ffffffffffffffffffffffffffffffffffffffff1673ffffffffffffffffffffffffffffffffffffffff16146109e9576040517f08c379a00000000000000000000000000000000000000000000000000000000081526004016109e0906124f1565b60405180910390fd5b600381606001906005811115610a0257610a01611b43565b5b90816005811115610a1657610a15611b43565b5b815250507f57bc09cafd26d2cee9005dad3fd9defde747d769d7dafd4063e8ff35270b8698600382600b60009054906101000a900473ffffffffffffffffffffffffffffffffffffffff16604051610a70939291906126fc565b60405180910390a150565b6007602052806000526040600020600091509050806000015490806001018054610aa490612473565b80601f0160208091040260200160405190810160405280929190818152602001828054610ad090612473565b8015610b1d5780601f10610af257610100808354040283529160200191610b1d565b820191906000526020600020905b815481529060010190602001808311610b0057829003601f168201915b5050505050908060020160009054906101000a900460ff1690806003016040518060800160405290816000820154815260200160018201548152602001600282018054610b6990612473565b80601f0160208091040260200160405190810160405280929190818152602001828054610b9590612473565b8015610be25780601f10610bb757610100808354040283529160200191610be2565b820191906000526020600020905b815481529060010190602001808311610bc557829003601f168201915b505050505081526020016003820160009054906101000a900460ff166005811115610c1057610c0f611b43565b5b6005811115610c2257610c21611b43565b5b81525050908060070160009054906101000a900473ffffffffffffffffffffffffffffffffffffffff16905085565b600160009054906101000a900473ffffffffffffffffffffffffffffffffffffffff1681565b3373ffffffffffffffffffffffffffffffffffffffff16600b60009054906101000a900473ffffffffffffffffffffffffffffffffffffffff1673ffffffffffffffffffffffffffffffffffffffff1614610d07576040517f08c379a0000000000000000000000000000000000000000000000000000000008152600401610cfe906124f1565b60405180910390fd5b600481606001906005811115610d2057610d1f611b43565b5b90816005811115610d3457610d33611b43565b5b815250507f6587420eb83bf328fdaec553e9e53a98827d494deeaddeaa5e5a998433c08da7600482600b60009054906101000a900473ffffffffffffffffffffffffffffffffffffffff16604051610d8e939291906126fc565b60405180910390a150565b60006005811115610dad57610dac611b43565b5b82606001516005811115610dc457610dc3611b43565b5b14610e04576040517f08c379a0000000000000000000000000000000000000000000000000000000008152600401610dfb906127ac565b60405180910390fd5b600060076000600a548152602001908152602001600020905083816001019080519060200190610e359291906116fe565b5060008160020160006101000a81548160ff02191690836001811115610e5e57610e5d611b43565b5b0217905550828160030160008201518160000155602082015181600101556040820151816002019080519060200190610e989291906116fe565b5060608201518160030160006101000a81548160ff02191690836005811115610ec457610ec3611b43565b5b0217905550905050818160070160006101000a81548173ffffffffffffffffffffffffffffffffffffffff021916908373ffffffffffffffffffffffffffffffffffffffff1602179055507fea116f66bfca993e06ec3531e54d6fdd056bed479a873a351b5ff4c23124595b600a54600085866060015186604051610f4d9594939291906125f6565b60405180910390a1600a6000815480929190610f68906123fb565b919050555050505050565b60046005811115610f8757610f86611b43565b5b82606001516005811115610f9e57610f9d611b43565b5b14610fde576040517f08c379a0000000000000000000000000000000000000000000000000000000008152600401610fd590612864565b60405180910390fd5b600060076000600a54815260200190815260200160002090508381600101908051906020019061100f9291906116fe565b5060008160020160006101000a81548160ff0219169083600181111561103857611037611b43565b5b02179055508281600301600082015181600001556020820151816001015560408201518160020190805190602001906110729291906116fe565b5060608201518160030160006101000a81548160ff0219169083600581111561109e5761109d611b43565b5b0217905550905050818160070160006101000a81548173ffffffffffffffffffffffffffffffffffffffff021916908373ffffffffffffffffffffffffffffffffffffffff1602179055507fea116f66bfca993e06ec3531e54d6fdd056bed479a873a351b5ff4c23124595b600a546000858660600151866040516111279594939291906125f6565b60405180910390a1600a6000815480929190611142906123fb565b919050555050505050565b611155611784565b6000808381526020019081526020016000206040518060e001604052908160008201548152602001600182015481526020016002820154815260200160038201548152602001600482015481526020016005820160009054906101000a900460ff1660038111156111c9576111c8611b43565b5b60038111156111db576111da611b43565b5b81526020016005820160019054906101000a900473ffffffffffffffffffffffffffffffffffffffff1673ffffffffffffffffffffffffffffffffffffffff1673ffffffffffffffffffffffffffffffffffffffff16815250509050919050565b600660205280600052604060002060009150905080600001549080600101805461126590612473565b80601f016020809104026020016040519081016040528092919081815260200182805461129190612473565b80156112de5780601f106112b3576101008083540402835291602001916112de565b820191906000526020600020905b8154815290600101906020018083116112c157829003601f168201915b5050505050908060020160009054906101000a900460ff169080600301604051806080016040529081600082015481526020016001820154815260200160028201805461132a90612473565b80601f016020809104026020016040519081016040528092919081815260200182805461135690612473565b80156113a35780601f10611378576101008083540402835291602001916113a3565b820191906000526020600020905b81548152906001019060200180831161138657829003601f168201915b505050505081526020016003820160009054906101000a900460ff1660058111156113d1576113d0611b43565b5b60058111156113e3576113e2611b43565b5b81525050908060070160009054906101000a900473ffffffffffffffffffffffffffffffffffffffff16905085565b3373ffffffffffffffffffffffffffffffffffffffff16600160009054906101000a900473ffffffffffffffffffffffffffffffffffffffff1673ffffffffffffffffffffffffffffffffffffffff16146114a2576040517f08c379a0000000000000000000000000000000000000000000000000000000008152600401611499906128d0565b60405180910390fd5b600254600080600254815260200190815260200160002060000181905550856000806002548152602001908152602001600020600101819055508560008060025481526020019081526020016000206001018190555084600080600254815260200190815260200160002060020181905550836000806002548152602001908152602001600020600301819055508260008060025481526020019081526020016000206004018190555081600381111561155f5761155e611b43565b5b600080600254815260200190815260200160002060050160006101000a81548160ff0219169083600381111561159857611597611b43565b5b021790555080600080600254815260200190815260200160002060050160016101000a81548173ffffffffffffffffffffffffffffffffffffffff021916908373ffffffffffffffffffffffffffffffffffffffff1602179055508073ffffffffffffffffffffffffffffffffffffffff167fbeea9d474a1b3ffdbc323f82fd679909c87968191b551f189f010d992cc34d958787878787600381111561164257611641611b43565b5b6040516116539594939291906128f0565b60405180910390a26003600254908060018154018082558091505060019003906000526020600020016000909190919091505560026000815480929190611699906123fb565b9190505550505050505050565b606060038054806020026020016040519081016040528092919081815260200182805480156116f457602002820191906000526020600020905b8154815260200190600101908083116116e0575b5050505050905090565b82805461170a90612473565b90600052602060002090601f01602090048101928261172c5760008555611773565b82601f1061174557805160ff1916838001178555611773565b82800160010185558215611773579182015b82811115611772578251825591602001919060010190611757565b5b50905061178091906117f5565b5090565b6040518060e001604052806000815260200160008019168152602001600080191681526020016000801916815260200160008019168152602001600060038111156117d2576117d1611b43565b5b8152602001600073ffffffffffffffffffffffffffffffffffffffff1681525090565b5b8082111561180e5760008160009055506001016117f6565b5090565b6000604051905090565b600080fd5b600080fd5b6000819050919050565b61183981611826565b811461184457600080fd5b50565b60008135905061185681611830565b92915050565b600080fd5b600080fd5b6000601f19601f8301169050919050565b7f4e487b7100000000000000000000000000000000000000000000000000000000600052604160045260246000fd5b6118af82611866565b810181811067ffffffffffffffff821117156118ce576118cd611877565b5b80604052505050565b60006118e1611812565b90506118ed82826118a6565b919050565b600067ffffffffffffffff82111561190d5761190c611877565b5b61191682611866565b9050602081019050919050565b82818337600083830152505050565b6000611945611940846118f2565b6118d7565b90508281526020810184848401111561196157611960611861565b5b61196c848285611923565b509392505050565b600082601f8301126119895761198861185c565b5b8135611999848260208601611932565b91505092915050565b600681106119af57600080fd5b50565b6000813590506119c1816119a2565b92915050565b600080600080608085870312156119e1576119e061181c565b5b60006119ef87828801611847565b945050602085013567ffffffffffffffff811115611a1057611a0f611821565b5b611a1c87828801611974565b9350506040611a2d878288016119b2565b925050606085013567ffffffffffffffff811115611a4e57611a4d611821565b5b611a5a87828801611974565b91505092959194509250565b600060208284031215611a7c57611a7b61181c565b5b6000611a8a84828501611847565b91505092915050565b611a9c81611826565b82525050565b6000819050919050565b611ab581611aa2565b82525050565b600081519050919050565b600082825260208201905092915050565b60005b83811015611af5578082015181840152602081019050611ada565b83811115611b04576000848401525b50505050565b6000611b1582611abb565b611b1f8185611ac6565b9350611b2f818560208601611ad7565b611b3881611866565b840191505092915050565b7f4e487b7100000000000000000000000000000000000000000000000000000000600052602160045260246000fd5b60068110611b8357611b82611b43565b5b50565b6000819050611b9482611b72565b919050565b6000611ba482611b86565b9050919050565b611bb481611b99565b82525050565b6000608082019050611bcf6000830187611a93565b611bdc6020830186611aac565b8181036040830152611bee8185611b0a565b9050611bfd6060830184611bab565b95945050505050565b600080fd5b600080fd5b611c1981611aa2565b8114611c2457600080fd5b50565b600081359050611c3681611c10565b92915050565b600060808284031215611c5257611c51611c06565b5b611c5c60806118d7565b90506000611c6c84828501611847565b6000830152506020611c8084828501611c27565b602083015250604082013567ffffffffffffffff811115611ca457611ca3611c0b565b5b611cb084828501611974565b6040830152506060611cc4848285016119b2565b60608301525092915050565b60008060408385031215611ce757611ce661181c565b5b600083013567ffffffffffffffff811115611d0557611d04611821565b5b611d1185828601611974565b925050602083013567ffffffffffffffff811115611d3257611d31611821565b5b611d3e85828601611c3c565b9150509250929050565b6000602082019050611d5d6000830184611a93565b92915050565b60048110611d7457611d73611b43565b5b50565b6000819050611d8582611d63565b919050565b6000611d9582611d77565b9050919050565b611da581611d8a565b82525050565b600073ffffffffffffffffffffffffffffffffffffffff82169050919050565b6000611dd682611dab565b9050919050565b611de681611dcb565b82525050565b600060e082019050611e01600083018a611a93565b611e0e6020830189611aac565b611e1b6040830188611aac565b611e286060830187611aac565b611e356080830186611aac565b611e4260a0830185611d9c565b611e4f60c0830184611ddd565b98975050505050505050565b611e6481611dcb565b8114611e6f57600080fd5b50565b600081359050611e8181611e5b565b92915050565b600080600060608486031215611ea057611e9f61181c565b5b600084013567ffffffffffffffff811115611ebe57611ebd611821565b5b611eca86828701611974565b935050602084013567ffffffffffffffff811115611eeb57611eea611821565b5b611ef786828701611c3c565b9250506040611f0886828701611e72565b9150509250925092565b60008060408385031215611f2957611f2861181c565b5b600083013567ffffffffffffffff811115611f4757611f46611821565b5b611f5385828601611974565b9250506020611f6485828601611e72565b9150509250929050565b6000602082019050611f836000830184611aac565b92915050565b600060208284031215611f9f57611f9e61181c565b5b600082013567ffffffffffffffff811115611fbd57611fbc611821565b5b611fc984828501611c3c565b91505092915050565b60028110611fe357611fe2611b43565b5b50565b6000819050611ff482611fd2565b919050565b600061200482611fe6565b9050919050565b61201481611ff9565b82525050565b61202381611826565b82525050565b61203281611aa2565b82525050565b600082825260208201905092915050565b600061205482611abb565b61205e8185612038565b935061206e818560208601611ad7565b61207781611866565b840191505092915050565b61208b81611b99565b82525050565b60006080830160008301516120a9600086018261201a565b5060208301516120bc6020860182612029565b50604083015184820360408601526120d48282612049565b91505060608301516120e96060860182612082565b508091505092915050565b600060a0820190506121096000830188611a93565b818103602083015261211b8187611b0a565b905061212a604083018661200b565b818103606083015261213c8185612091565b905061214b6080830184611ddd565b9695505050505050565b600060208201905061216a6000830184611ddd565b92915050565b61217981611d8a565b82525050565b61218881611dcb565b82525050565b60e0820160008201516121a4600085018261201a565b5060208201516121b76020850182612029565b5060408201516121ca6040850182612029565b5060608201516121dd6060850182612029565b5060808201516121f06080850182612029565b5060a082015161220360a0850182612170565b5060c082015161221660c085018261217f565b50505050565b600060e082019050612231600083018461218e565b92915050565b60008060008060008060c087890312156122545761225361181c565b5b600061226289828a01611c27565b965050602061227389828a01611c27565b955050604061228489828a01611c27565b945050606061229589828a01611c27565b93505060806122a689828a01611847565b92505060a06122b789828a01611e72565b9150509295509295509295565b600081519050919050565b600082825260208201905092915050565b6000819050602082019050919050565b60006122fc838361201a565b60208301905092915050565b6000602082019050919050565b6000612320826122c4565b61232a81856122cf565b9350612335836122e0565b8060005b8381101561236657815161234d88826122f0565b975061235883612308565b925050600181019050612339565b5085935050505092915050565b6000602082019050818103600083015261238d8184612315565b905092915050565b60006060820190506123aa6000830186611a93565b6123b76020830185611bab565b6123c46040830184611ddd565b949350505050565b7f4e487b7100000000000000000000000000000000000000000000000000000000600052601160045260246000fd5b600061240682611826565b91507fffffffffffffffffffffffffffffffffffffffffffffffffffffffffffffffff821415612439576124386123cc565b5b600182019050919050565b7f4e487b7100000000000000000000000000000000000000000000000000000000600052602260045260246000fd5b6000600282049050600182168061248b57607f821691505b6020821081141561249f5761249e612444565b5b50919050565b7f596f7520617265206e6f74206120636f6d70616e79206275696c646572000000600082015250565b60006124db601d83611ac6565b91506124e6826124a5565b602082019050919050565b6000602082019050818103600083015261250a816124ce565b9050919050565b6000608082019050818103600083015261252b8187611b0a565b905061253a6020830186611bab565b818103604083015261254c8185612091565b905061255b6060830184611ddd565b95945050505050565b7f5468652070726f6a656374206973206e6f7420617070726f7665642c2074686560008201527f206f7065726174696f6e2063616e6e6f7420626520646f6e652e000000000000602082015250565b60006125c0603a83611ac6565b91506125cb82612564565b604082019050919050565b600060208201905081810360008301526125ef816125b3565b9050919050565b600060a08201905061260b6000830188611a93565b612618602083018761200b565b818103604083015261262a8186612091565b90506126396060830185611bab565b6126466080830184611ddd565b9695505050505050565b600081905092915050565b600061266682611abb565b6126708185612650565b9350612680818560208601611ad7565b80840191505092915050565b60008160601b9050919050565b60006126a48261268c565b9050919050565b60006126b682612699565b9050919050565b6126ce6126c982611dcb565b6126ab565b82525050565b60006126e0828561265b565b91506126ec82846126bd565b6014820191508190509392505050565b60006060820190506127116000830186611bab565b81810360208301526127238185612091565b90506127326040830184611ddd565b949350505050565b7f5468652070726f6a656374206973206e6f7420637265617465642c207468652060008201527f6f7065726174696f6e2063616e6e6f7420626520646f6e652e00000000000000602082015250565b6000612796603983611ac6565b91506127a18261273a565b604082019050919050565b600060208201905081810360008301526127c581612789565b9050919050565b7f5468652070726f6a656374206973206e6f7420696e2074686520274265666f7260008201527f6546696e616c697a6174696f6e436865636b27207374617475732c207468652060208201527f6f7065726174696f6e2063616e6e6f7420626520646f6e652e00000000000000604082015250565b600061284e605983611ac6565b9150612859826127cc565b606082019050919050565b6000602082019050818103600083015261287d81612841565b9050919050565b7f596f7520617265206e6f7420616e206f776e6572000000000000000000000000600082015250565b60006128ba601483611ac6565b91506128c582612884565b602082019050919050565b600060208201905081810360008301526128e9816128ad565b9050919050565b600060a0820190506129056000830188611aac565b6129126020830187611aac565b61291f6040830186611aac565b61292c6060830185611aac565b6129396080830184611d9c565b969550505050505056fea264697066735822122087afe3d19c8052d8f9f8dba03e3f861c574d0e0ac421aea147ecc7fefb75643764736f6c63430008090033",
  "immutableReferences": {},
  "source": "// SPDX-License-Identifier: MIT\r\npragma solidity >=0.8.0 <0.9.0;\r\n\r\nimport \"./Project.sol\";\r\n\r\ncontract CompanyBuilder is Project {\r\n\r\n    address _companyAddress;\r\n\r\n    event ApproveProjectRequestByCompany(ProjectStatus _status, S_Project _project, address _subjectAddress);\r\n    event RejectProjectRequestByCompany(string _description, ProjectStatus _status, S_Project _project, address _subjectAddress);\r\n    event BeforeFinalizationProjectRequestByCompany(ProjectStatus _status, S_Project _project, address _subjectAddress);\r\n\r\n    constructor() {\r\n        _companyAddress = msg.sender;\r\n    }\r\n\r\n    modifier onlyCompany {\r\n        require(_companyAddress == msg.sender, \"You are not a company builder\");\r\n        _;\r\n    }\r\n\r\n    // Add some contrainst / verification TOOO DOOO -> LATER\r\n\r\n    function setProjectRequestToOnGoingStatus(S_Project memory _project) public onlyCompany {\r\n        _project.projectStatus = ProjectStatus.OnGoing;\r\n        emit ApproveProjectRequestByCompany(ProjectStatus.OnGoing, _project, _companyAddress);\r\n    }\r\n\r\n    function setProjectRequestToRejectStatus(string memory _description, S_Project memory _project) public onlyCompany {\r\n        _project.projectStatus = ProjectStatus.Rejected;\r\n        emit RejectProjectRequestByCompany(_description, ProjectStatus.Rejected, _project, _companyAddress);\r\n    }\r\n\r\n    function setProjectRequestToBeforeFinalizationStatus(S_Project memory _project)  public onlyCompany {\r\n        _project.projectStatus = ProjectStatus.BeforeFinalizationCheck;\r\n        emit BeforeFinalizationProjectRequestByCompany(ProjectStatus.BeforeFinalizationCheck, _project, _companyAddress);\r\n    }\r\n}\r\n",
  "sourcePath": "/mnt/c/users/beniamin/source/repos/dissertationproject/contracts/CompanyBuilder.sol",
  "compiler": {
    "name": "solc",
    "version": "0.8.9+commit.e5eed63a.Emscripten.clang"
  },
  "schemaVersion": "3.4.3",
  "updatedAt": "2021-11-06T21:04:58.020Z",
  "devdoc": {
    "kind": "dev",
    "methods": {},
    "version": 1
  },
  "userdoc": {
    "kind": "user",
    "methods": {},
    "version": 1
  }
}