{
  "contractName": "CompanyBuilder",
  "abi": [
    {
      "inputs": [],
      "stateMutability": "nonpayable",
      "type": "constructor"
    },
    {
      "anonymous": false,
      "inputs": [
        {
          "indexed": false,
          "internalType": "enum Project.ProjectStatus",
          "name": "_status",
          "type": "uint8"
        },
        {
          "components": [
            {
              "internalType": "uint256",
              "name": "index",
              "type": "uint256"
            },
            {
              "internalType": "string",
              "name": "name",
              "type": "string"
            },
            {
              "internalType": "string",
              "name": "description",
              "type": "string"
            },
            {
              "internalType": "enum Project.ProjectStatus",
              "name": "projectStatus",
              "type": "uint8"
            },
            {
              "internalType": "string",
              "name": "ipfsFileCID",
              "type": "string"
            }
          ],
          "indexed": false,
          "internalType": "struct Project.S_Project",
          "name": "_project",
          "type": "tuple"
        },
        {
          "indexed": false,
          "internalType": "address",
          "name": "_subjectAddress",
          "type": "address"
        }
      ],
      "name": "ApproveProjectRequestByCompany",
      "type": "event"
    },
    {
      "anonymous": false,
      "inputs": [
        {
          "indexed": false,
          "internalType": "enum Project.ProjectStatus",
          "name": "_status",
          "type": "uint8"
        },
        {
          "components": [
            {
              "internalType": "uint256",
              "name": "index",
              "type": "uint256"
            },
            {
              "internalType": "string",
              "name": "name",
              "type": "string"
            },
            {
              "internalType": "string",
              "name": "description",
              "type": "string"
            },
            {
              "internalType": "enum Project.ProjectStatus",
              "name": "projectStatus",
              "type": "uint8"
            },
            {
              "internalType": "string",
              "name": "ipfsFileCID",
              "type": "string"
            }
          ],
          "indexed": false,
          "internalType": "struct Project.S_Project",
          "name": "_project",
          "type": "tuple"
        },
        {
          "indexed": false,
          "internalType": "address",
          "name": "_subjectAddress",
          "type": "address"
        }
      ],
      "name": "BeforeFinalizationProjectRequestByCompany",
      "type": "event"
    },
    {
      "anonymous": false,
      "inputs": [
        {
          "indexed": false,
          "internalType": "string",
          "name": "_name",
          "type": "string"
        },
        {
          "indexed": false,
          "internalType": "string",
          "name": "_description",
          "type": "string"
        },
        {
          "indexed": false,
          "internalType": "enum Project.ProjectStatus",
          "name": "_status",
          "type": "uint8"
        }
      ],
      "name": "CreateProject",
      "type": "event"
    },
    {
      "anonymous": false,
      "inputs": [
        {
          "indexed": false,
          "internalType": "string",
          "name": "_description",
          "type": "string"
        },
        {
          "indexed": false,
          "internalType": "enum Project.ProjectStatus",
          "name": "_status",
          "type": "uint8"
        },
        {
          "components": [
            {
              "internalType": "uint256",
              "name": "index",
              "type": "uint256"
            },
            {
              "internalType": "string",
              "name": "name",
              "type": "string"
            },
            {
              "internalType": "string",
              "name": "description",
              "type": "string"
            },
            {
              "internalType": "enum Project.ProjectStatus",
              "name": "projectStatus",
              "type": "uint8"
            },
            {
              "internalType": "string",
              "name": "ipfsFileCID",
              "type": "string"
            }
          ],
          "indexed": false,
          "internalType": "struct Project.S_Project",
          "name": "_project",
          "type": "tuple"
        },
        {
          "indexed": false,
          "internalType": "address",
          "name": "_subjectAddress",
          "type": "address"
        }
      ],
      "name": "RejectProjectRequestByCompany",
      "type": "event"
    },
    {
      "anonymous": false,
      "inputs": [
        {
          "indexed": false,
          "internalType": "uint256",
          "name": "_indexRequest",
          "type": "uint256"
        },
        {
          "indexed": false,
          "internalType": "enum Project.RequestStatus",
          "name": "_status",
          "type": "uint8"
        },
        {
          "components": [
            {
              "internalType": "uint256",
              "name": "index",
              "type": "uint256"
            },
            {
              "internalType": "string",
              "name": "name",
              "type": "string"
            },
            {
              "internalType": "string",
              "name": "description",
              "type": "string"
            },
            {
              "internalType": "enum Project.ProjectStatus",
              "name": "projectStatus",
              "type": "uint8"
            },
            {
              "internalType": "string",
              "name": "ipfsFileCID",
              "type": "string"
            }
          ],
          "indexed": false,
          "internalType": "struct Project.S_Project",
          "name": "_project",
          "type": "tuple"
        },
        {
          "indexed": false,
          "internalType": "enum Project.ProjectStatus",
          "name": "_projectStatus",
          "type": "uint8"
        },
        {
          "indexed": false,
          "internalType": "address",
          "name": "_subjectAddress",
          "type": "address"
        }
      ],
      "name": "UpdateCompanyRequestStatus",
      "type": "event"
    },
    {
      "anonymous": false,
      "inputs": [
        {
          "indexed": false,
          "internalType": "uint256",
          "name": "_indexRequest",
          "type": "uint256"
        },
        {
          "indexed": false,
          "internalType": "enum Project.RequestStatus",
          "name": "_status",
          "type": "uint8"
        },
        {
          "components": [
            {
              "internalType": "uint256",
              "name": "index",
              "type": "uint256"
            },
            {
              "internalType": "string",
              "name": "name",
              "type": "string"
            },
            {
              "internalType": "string",
              "name": "description",
              "type": "string"
            },
            {
              "internalType": "enum Project.ProjectStatus",
              "name": "projectStatus",
              "type": "uint8"
            },
            {
              "internalType": "string",
              "name": "ipfsFileCID",
              "type": "string"
            }
          ],
          "indexed": false,
          "internalType": "struct Project.S_Project",
          "name": "_project",
          "type": "tuple"
        },
        {
          "indexed": false,
          "internalType": "enum Project.ProjectStatus",
          "name": "_projectStatus",
          "type": "uint8"
        },
        {
          "indexed": false,
          "internalType": "address",
          "name": "_subjectAddress",
          "type": "address"
        }
      ],
      "name": "UpdateSupervisorRequestStatus",
      "type": "event"
    },
    {
      "anonymous": false,
      "inputs": [
        {
          "indexed": false,
          "internalType": "string",
          "name": "username",
          "type": "string"
        },
        {
          "indexed": false,
          "internalType": "string",
          "name": "firstname",
          "type": "string"
        },
        {
          "indexed": false,
          "internalType": "string",
          "name": "lastname",
          "type": "string"
        },
        {
          "indexed": false,
          "internalType": "string",
          "name": "email",
          "type": "string"
        },
        {
          "indexed": false,
          "internalType": "enum User.Roles",
          "name": "role",
          "type": "uint8"
        },
        {
          "indexed": false,
          "internalType": "address",
          "name": "walletAddress",
          "type": "address"
        }
      ],
      "name": "UserChanges",
      "type": "event"
    },
    {
      "anonymous": false,
      "inputs": [
        {
          "indexed": true,
          "internalType": "address",
          "name": "_walletAddress",
          "type": "address"
        },
        {
          "indexed": true,
          "internalType": "string",
          "name": "_username",
          "type": "string"
        },
        {
          "indexed": false,
          "internalType": "string",
          "name": "_email",
          "type": "string"
        },
        {
          "indexed": false,
          "internalType": "string",
          "name": "_firstname",
          "type": "string"
        },
        {
          "indexed": false,
          "internalType": "string",
          "name": "_lastname",
          "type": "string"
        },
        {
          "indexed": true,
          "internalType": "enum User.Roles",
          "name": "_role",
          "type": "uint8"
        }
      ],
      "name": "UserRegistered",
      "type": "event"
    },
    {
      "inputs": [
        {
          "internalType": "uint256",
          "name": "",
          "type": "uint256"
        }
      ],
      "name": "allProjects",
      "outputs": [
        {
          "internalType": "uint256",
          "name": "index",
          "type": "uint256"
        },
        {
          "internalType": "string",
          "name": "name",
          "type": "string"
        },
        {
          "internalType": "string",
          "name": "description",
          "type": "string"
        },
        {
          "internalType": "enum Project.ProjectStatus",
          "name": "projectStatus",
          "type": "uint8"
        },
        {
          "internalType": "string",
          "name": "ipfsFileCID",
          "type": "string"
        }
      ],
      "stateMutability": "view",
      "type": "function"
    },
    {
      "inputs": [
        {
          "internalType": "uint256",
          "name": "",
          "type": "uint256"
        }
      ],
      "name": "allUsers",
      "outputs": [
        {
          "internalType": "string",
          "name": "username",
          "type": "string"
        },
        {
          "internalType": "string",
          "name": "email",
          "type": "string"
        },
        {
          "internalType": "string",
          "name": "firstname",
          "type": "string"
        },
        {
          "internalType": "string",
          "name": "lastname",
          "type": "string"
        },
        {
          "internalType": "enum User.Roles",
          "name": "role",
          "type": "uint8"
        },
        {
          "internalType": "address",
          "name": "walletAddress",
          "type": "address"
        }
      ],
      "stateMutability": "view",
      "type": "function"
    },
    {
      "inputs": [
        {
          "internalType": "uint256",
          "name": "_role",
          "type": "uint256"
        },
        {
          "internalType": "address",
          "name": "_walletAddress",
          "type": "address"
        }
      ],
      "name": "changeUserRole",
      "outputs": [
        {
          "internalType": "string",
          "name": "",
          "type": "string"
        }
      ],
      "stateMutability": "nonpayable",
      "type": "function"
    },
    {
      "inputs": [
        {
          "internalType": "uint256",
          "name": "",
          "type": "uint256"
        }
      ],
      "name": "companyRequests",
      "outputs": [
        {
          "internalType": "uint256",
          "name": "index",
          "type": "uint256"
        },
        {
          "internalType": "string",
          "name": "description",
          "type": "string"
        },
        {
          "internalType": "enum Project.RequestStatus",
          "name": "status",
          "type": "uint8"
        },
        {
          "components": [
            {
              "internalType": "uint256",
              "name": "index",
              "type": "uint256"
            },
            {
              "internalType": "string",
              "name": "name",
              "type": "string"
            },
            {
              "internalType": "string",
              "name": "description",
              "type": "string"
            },
            {
              "internalType": "enum Project.ProjectStatus",
              "name": "projectStatus",
              "type": "uint8"
            },
            {
              "internalType": "string",
              "name": "ipfsFileCID",
              "type": "string"
            }
          ],
          "internalType": "struct Project.S_Project",
          "name": "project",
          "type": "tuple"
        },
        {
          "internalType": "address",
          "name": "subjectAddress",
          "type": "address"
        }
      ],
      "stateMutability": "view",
      "type": "function"
    },
    {
      "inputs": [
        {
          "internalType": "string",
          "name": "_name",
          "type": "string"
        },
        {
          "internalType": "string",
          "name": "_description",
          "type": "string"
        },
        {
          "internalType": "uint256",
          "name": "_status",
          "type": "uint256"
        },
        {
          "internalType": "string",
          "name": "_ipfsFileCID",
          "type": "string"
        }
      ],
      "name": "createProject",
      "outputs": [],
      "stateMutability": "nonpayable",
      "type": "function"
    },
    {
      "inputs": [
        {
          "internalType": "string",
          "name": "_text",
          "type": "string"
        },
        {
          "internalType": "address",
          "name": "_addr",
          "type": "address"
        }
      ],
      "name": "createUniqueHexAddress",
      "outputs": [
        {
          "internalType": "address",
          "name": "",
          "type": "address"
        }
      ],
      "stateMutability": "pure",
      "type": "function"
    },
    {
      "inputs": [
        {
          "internalType": "string",
          "name": "_text",
          "type": "string"
        },
        {
          "internalType": "address",
          "name": "_addr",
          "type": "address"
        }
      ],
      "name": "createUniqueIdentifier",
      "outputs": [
        {
          "internalType": "bytes32",
          "name": "",
          "type": "bytes32"
        }
      ],
      "stateMutability": "pure",
      "type": "function"
    },
    {
      "inputs": [],
      "name": "getAllProjects",
      "outputs": [
        {
          "components": [
            {
              "internalType": "uint256",
              "name": "index",
              "type": "uint256"
            },
            {
              "internalType": "string",
              "name": "name",
              "type": "string"
            },
            {
              "internalType": "string",
              "name": "description",
              "type": "string"
            },
            {
              "internalType": "enum Project.ProjectStatus",
              "name": "projectStatus",
              "type": "uint8"
            },
            {
              "internalType": "string",
              "name": "ipfsFileCID",
              "type": "string"
            }
          ],
          "internalType": "struct Project.S_Project[]",
          "name": "",
          "type": "tuple[]"
        }
      ],
      "stateMutability": "view",
      "type": "function"
    },
    {
      "inputs": [],
      "name": "getAllUsers",
      "outputs": [
        {
          "components": [
            {
              "internalType": "string",
              "name": "username",
              "type": "string"
            },
            {
              "internalType": "string",
              "name": "email",
              "type": "string"
            },
            {
              "internalType": "string",
              "name": "firstname",
              "type": "string"
            },
            {
              "internalType": "string",
              "name": "lastname",
              "type": "string"
            },
            {
              "internalType": "enum User.Roles",
              "name": "role",
              "type": "uint8"
            },
            {
              "internalType": "address",
              "name": "walletAddress",
              "type": "address"
            }
          ],
          "internalType": "struct User.S_UserData[]",
          "name": "",
          "type": "tuple[]"
        }
      ],
      "stateMutability": "view",
      "type": "function"
    },
    {
      "inputs": [],
      "name": "getProjectIds",
      "outputs": [
        {
          "internalType": "uint256[]",
          "name": "",
          "type": "uint256[]"
        }
      ],
      "stateMutability": "view",
      "type": "function"
    },
    {
      "inputs": [
        {
          "internalType": "uint256",
          "name": "_index",
          "type": "uint256"
        }
      ],
      "name": "getProjectInfo",
      "outputs": [
        {
          "components": [
            {
              "internalType": "uint256",
              "name": "index",
              "type": "uint256"
            },
            {
              "internalType": "string",
              "name": "name",
              "type": "string"
            },
            {
              "internalType": "string",
              "name": "description",
              "type": "string"
            },
            {
              "internalType": "enum Project.ProjectStatus",
              "name": "projectStatus",
              "type": "uint8"
            },
            {
              "internalType": "string",
              "name": "ipfsFileCID",
              "type": "string"
            }
          ],
          "internalType": "struct Project.S_Project",
          "name": "",
          "type": "tuple"
        }
      ],
      "stateMutability": "view",
      "type": "function"
    },
    {
      "inputs": [],
      "name": "getUserAddresses",
      "outputs": [
        {
          "internalType": "address[]",
          "name": "",
          "type": "address[]"
        }
      ],
      "stateMutability": "view",
      "type": "function"
    },
    {
      "inputs": [
        {
          "internalType": "address",
          "name": "_address",
          "type": "address"
        }
      ],
      "name": "getUserInfo",
      "outputs": [
        {
          "components": [
            {
              "internalType": "string",
              "name": "username",
              "type": "string"
            },
            {
              "internalType": "string",
              "name": "email",
              "type": "string"
            },
            {
              "internalType": "string",
              "name": "firstname",
              "type": "string"
            },
            {
              "internalType": "string",
              "name": "lastname",
              "type": "string"
            },
            {
              "internalType": "enum User.Roles",
              "name": "role",
              "type": "uint8"
            },
            {
              "internalType": "address",
              "name": "walletAddress",
              "type": "address"
            }
          ],
          "internalType": "struct User.S_UserData",
          "name": "",
          "type": "tuple"
        }
      ],
      "stateMutability": "view",
      "type": "function"
    },
    {
      "inputs": [],
      "name": "owner",
      "outputs": [
        {
          "internalType": "address",
          "name": "",
          "type": "address"
        }
      ],
      "stateMutability": "view",
      "type": "function"
    },
    {
      "inputs": [
        {
          "internalType": "uint256",
          "name": "",
          "type": "uint256"
        }
      ],
      "name": "projectIds",
      "outputs": [
        {
          "internalType": "uint256",
          "name": "",
          "type": "uint256"
        }
      ],
      "stateMutability": "view",
      "type": "function"
    },
    {
      "inputs": [
        {
          "internalType": "uint256",
          "name": "",
          "type": "uint256"
        }
      ],
      "name": "projects",
      "outputs": [
        {
          "internalType": "uint256",
          "name": "index",
          "type": "uint256"
        },
        {
          "internalType": "string",
          "name": "name",
          "type": "string"
        },
        {
          "internalType": "string",
          "name": "description",
          "type": "string"
        },
        {
          "internalType": "enum Project.ProjectStatus",
          "name": "projectStatus",
          "type": "uint8"
        },
        {
          "internalType": "string",
          "name": "ipfsFileCID",
          "type": "string"
        }
      ],
      "stateMutability": "view",
      "type": "function"
    },
    {
      "inputs": [],
      "name": "projectsCount",
      "outputs": [
        {
          "internalType": "uint256",
          "name": "",
          "type": "uint256"
        }
      ],
      "stateMutability": "view",
      "type": "function"
    },
    {
      "inputs": [
        {
          "internalType": "string",
          "name": "_username",
          "type": "string"
        },
        {
          "internalType": "string",
          "name": "_email",
          "type": "string"
        },
        {
          "internalType": "string",
          "name": "_firstname",
          "type": "string"
        },
        {
          "internalType": "string",
          "name": "_lastname",
          "type": "string"
        },
        {
          "internalType": "uint256",
          "name": "_role",
          "type": "uint256"
        },
        {
          "internalType": "address",
          "name": "_walletAddress",
          "type": "address"
        }
      ],
      "name": "registerUser",
      "outputs": [],
      "stateMutability": "nonpayable",
      "type": "function"
    },
    {
      "inputs": [
        {
          "internalType": "string",
          "name": "_description",
          "type": "string"
        },
        {
          "components": [
            {
              "internalType": "uint256",
              "name": "index",
              "type": "uint256"
            },
            {
              "internalType": "string",
              "name": "name",
              "type": "string"
            },
            {
              "internalType": "string",
              "name": "description",
              "type": "string"
            },
            {
              "internalType": "enum Project.ProjectStatus",
              "name": "projectStatus",
              "type": "uint8"
            },
            {
              "internalType": "string",
              "name": "ipfsFileCID",
              "type": "string"
            }
          ],
          "internalType": "struct Project.S_Project",
          "name": "_project",
          "type": "tuple"
        },
        {
          "internalType": "address",
          "name": "_subjectAddress",
          "type": "address"
        }
      ],
      "name": "requestProjectApprovalFromSupervisor",
      "outputs": [],
      "stateMutability": "nonpayable",
      "type": "function"
    },
    {
      "inputs": [
        {
          "internalType": "string",
          "name": "_description",
          "type": "string"
        },
        {
          "components": [
            {
              "internalType": "uint256",
              "name": "index",
              "type": "uint256"
            },
            {
              "internalType": "string",
              "name": "name",
              "type": "string"
            },
            {
              "internalType": "string",
              "name": "description",
              "type": "string"
            },
            {
              "internalType": "enum Project.ProjectStatus",
              "name": "projectStatus",
              "type": "uint8"
            },
            {
              "internalType": "string",
              "name": "ipfsFileCID",
              "type": "string"
            }
          ],
          "internalType": "struct Project.S_Project",
          "name": "_project",
          "type": "tuple"
        },
        {
          "internalType": "address",
          "name": "_subjectAddress",
          "type": "address"
        }
      ],
      "name": "requestProjectCompleteFromSupervisor",
      "outputs": [],
      "stateMutability": "nonpayable",
      "type": "function"
    },
    {
      "inputs": [
        {
          "internalType": "string",
          "name": "_description",
          "type": "string"
        },
        {
          "components": [
            {
              "internalType": "uint256",
              "name": "index",
              "type": "uint256"
            },
            {
              "internalType": "string",
              "name": "name",
              "type": "string"
            },
            {
              "internalType": "string",
              "name": "description",
              "type": "string"
            },
            {
              "internalType": "enum Project.ProjectStatus",
              "name": "projectStatus",
              "type": "uint8"
            },
            {
              "internalType": "string",
              "name": "ipfsFileCID",
              "type": "string"
            }
          ],
          "internalType": "struct Project.S_Project",
          "name": "_project",
          "type": "tuple"
        },
        {
          "internalType": "address",
          "name": "_subjectAddress",
          "type": "address"
        }
      ],
      "name": "requestStartProjectToCompanyBuilder",
      "outputs": [],
      "stateMutability": "nonpayable",
      "type": "function"
    },
    {
      "inputs": [
        {
          "internalType": "uint256",
          "name": "",
          "type": "uint256"
        }
      ],
      "name": "supervisorRequests",
      "outputs": [
        {
          "internalType": "uint256",
          "name": "index",
          "type": "uint256"
        },
        {
          "internalType": "string",
          "name": "description",
          "type": "string"
        },
        {
          "internalType": "enum Project.RequestStatus",
          "name": "status",
          "type": "uint8"
        },
        {
          "components": [
            {
              "internalType": "uint256",
              "name": "index",
              "type": "uint256"
            },
            {
              "internalType": "string",
              "name": "name",
              "type": "string"
            },
            {
              "internalType": "string",
              "name": "description",
              "type": "string"
            },
            {
              "internalType": "enum Project.ProjectStatus",
              "name": "projectStatus",
              "type": "uint8"
            },
            {
              "internalType": "string",
              "name": "ipfsFileCID",
              "type": "string"
            }
          ],
          "internalType": "struct Project.S_Project",
          "name": "project",
          "type": "tuple"
        },
        {
          "internalType": "address",
          "name": "subjectAddress",
          "type": "address"
        }
      ],
      "stateMutability": "view",
      "type": "function"
    },
    {
      "inputs": [
        {
          "internalType": "uint256",
          "name": "",
          "type": "uint256"
        }
      ],
      "name": "userAddresses",
      "outputs": [
        {
          "internalType": "address",
          "name": "",
          "type": "address"
        }
      ],
      "stateMutability": "view",
      "type": "function"
    },
    {
      "inputs": [
        {
          "internalType": "address",
          "name": "",
          "type": "address"
        }
      ],
      "name": "userInfo",
      "outputs": [
        {
          "internalType": "string",
          "name": "username",
          "type": "string"
        },
        {
          "internalType": "string",
          "name": "email",
          "type": "string"
        },
        {
          "internalType": "string",
          "name": "firstname",
          "type": "string"
        },
        {
          "internalType": "string",
          "name": "lastname",
          "type": "string"
        },
        {
          "internalType": "enum User.Roles",
          "name": "role",
          "type": "uint8"
        },
        {
          "internalType": "address",
          "name": "walletAddress",
          "type": "address"
        }
      ],
      "stateMutability": "view",
      "type": "function"
    },
    {
      "inputs": [],
      "name": "usersCount",
      "outputs": [
        {
          "internalType": "uint256",
          "name": "",
          "type": "uint256"
        }
      ],
      "stateMutability": "view",
      "type": "function"
    },
    {
      "inputs": [
        {
          "components": [
            {
              "internalType": "uint256",
              "name": "index",
              "type": "uint256"
            },
            {
              "internalType": "string",
              "name": "name",
              "type": "string"
            },
            {
              "internalType": "string",
              "name": "description",
              "type": "string"
            },
            {
              "internalType": "enum Project.ProjectStatus",
              "name": "projectStatus",
              "type": "uint8"
            },
            {
              "internalType": "string",
              "name": "ipfsFileCID",
              "type": "string"
            }
          ],
          "internalType": "struct Project.S_Project",
          "name": "_project",
          "type": "tuple"
        }
      ],
      "name": "setProjectRequestToOnGoingStatus",
      "outputs": [],
      "stateMutability": "nonpayable",
      "type": "function"
    },
    {
      "inputs": [
        {
          "internalType": "string",
          "name": "_description",
          "type": "string"
        },
        {
          "components": [
            {
              "internalType": "uint256",
              "name": "index",
              "type": "uint256"
            },
            {
              "internalType": "string",
              "name": "name",
              "type": "string"
            },
            {
              "internalType": "string",
              "name": "description",
              "type": "string"
            },
            {
              "internalType": "enum Project.ProjectStatus",
              "name": "projectStatus",
              "type": "uint8"
            },
            {
              "internalType": "string",
              "name": "ipfsFileCID",
              "type": "string"
            }
          ],
          "internalType": "struct Project.S_Project",
          "name": "_project",
          "type": "tuple"
        }
      ],
      "name": "setProjectRequestToRejectStatus",
      "outputs": [],
      "stateMutability": "nonpayable",
      "type": "function"
    },
    {
      "inputs": [
        {
          "components": [
            {
              "internalType": "uint256",
              "name": "index",
              "type": "uint256"
            },
            {
              "internalType": "string",
              "name": "name",
              "type": "string"
            },
            {
              "internalType": "string",
              "name": "description",
              "type": "string"
            },
            {
              "internalType": "enum Project.ProjectStatus",
              "name": "projectStatus",
              "type": "uint8"
            },
            {
              "internalType": "string",
              "name": "ipfsFileCID",
              "type": "string"
            }
          ],
          "internalType": "struct Project.S_Project",
          "name": "_project",
          "type": "tuple"
        }
      ],
      "name": "setProjectRequestToBeforeFinalizationStatus",
      "outputs": [],
      "stateMutability": "nonpayable",
      "type": "function"
    }
  ],
  "bytecode": "0x60806040526000600255600060095534801561001a57600080fd5b5033600160006101000a81548173ffffffffffffffffffffffffffffffffffffffff021916908373ffffffffffffffffffffffffffffffffffffffff16021790555033600560006101000a81548173ffffffffffffffffffffffffffffffffffffffff021916908373ffffffffffffffffffffffffffffffffffffffff16021790555033600e60006101000a81548173ffffffffffffffffffffffffffffffffffffffff021916908373ffffffffffffffffffffffffffffffffffffffff160217905550614f1d806100ed6000396000f3fe608060405234801561001057600080fd5b50600436106101c45760003560e01c80637748587f116100f9578063a2bdedf411610097578063cb2d316411610071578063cb2d316414610567578063d40d4a8014610583578063e2842d79146105b7578063fabf5968146105d5576101c4565b8063a2bdedf4146104f6578063a591efde1461052b578063c73b302e14610549576101c4565b80638da5cb5b116100d35780638da5cb5b14610470578063910097861461048e578063911c29a6146104be578063953dcd2a146104da576101c4565b80637748587f1461040257806380d038291461041e5780638c86a1d71461043c576101c4565b8063502c9bd5116101665780636386c1c7116101405780636386c1c71461037c5780636ba13a82146103ac5780636cce6ff1146103ca5780636fe3d194146103e6576101c4565b8063502c9bd5146102e857806353b3194c146103185780636132844f1461034c576101c4565b806329a613b5116101a257806329a613b5146102625780632de5f99614610280578063465757141461029c57806348c35ad4146102b8576101c4565b8063107046bd146101c957806313b4078f146101fd5780631959a0021461022d575b600080fd5b6101e360048036038101906101de9190613765565b610605565b6040516101f49594939291906138b1565b60405180910390f35b61021760048036038101906102129190613aac565b6107e0565b6040516102249190613b17565b60405180910390f35b61024760048036038101906102429190613b32565b610816565b60405161025996959493929190613ba7565b60405180910390f35b61026a610a9f565b6040516102779190613ce2565b60405180910390f35b61029a60048036038101906102959190613e13565b610af7565b005b6102b660048036038101906102b19190613e5c565b610c19565b005b6102d260048036038101906102cd9190613765565b610eb2565b6040516102df9190613f17565b60405180910390f35b61030260048036038101906102fd9190613765565b610ed6565b60405161030f9190613b17565b60405180910390f35b610332600480360381019061032d9190613765565b610f15565b6040516103439594939291906138b1565b60405180910390f35b61036660048036038101906103619190613aac565b611100565b6040516103739190613f4b565b60405180910390f35b61039660048036038101906103919190613b32565b611133565b6040516103a3919061406c565b60405180910390f35b6103b4611464565b6040516103c19190613f17565b60405180910390f35b6103e460048036038101906103df9190613e13565b61146a565b005b61040060048036038101906103fb919061408e565b61158c565b005b61041c6004803603810190610417919061408e565b611796565b005b6104266119a0565b604051610433919061426e565b60405180910390f35b61045660048036038101906104519190613765565b611bfa565b60405161046795949392919061435c565b60405180910390f35b610478611eea565b6040516104859190613b17565b60405180910390f35b6104a860048036038101906104a391906143bd565b611f10565b6040516104b591906143fd565b60405180910390f35b6104d860048036038101906104d3919061441f565b6121bb565b005b6104f460048036038101906104ef919061408e565b61272d565b005b610510600480360381019061050b9190613765565b612937565b60405161052296959493929190613ba7565b60405180910390f35b610533612bd0565b60405161054091906145cb565b60405180910390f35b610551612c5e565b60405161055e9190613f17565b60405180910390f35b610581600480360381019061057c91906145ed565b612c64565b005b61059d60048036038101906105989190613765565b612d89565b6040516105ae95949392919061435c565b60405180910390f35b6105bf613079565b6040516105cc91906147c5565b60405180910390f35b6105ef60048036038101906105ea9190613765565b6133b1565b6040516105fc91906147e7565b60405180910390f35b600660205280600052604060002060009150905080600001549080600101805461062e90614838565b80601f016020809104026020016040519081016040528092919081815260200182805461065a90614838565b80156106a75780601f1061067c576101008083540402835291602001916106a7565b820191906000526020600020905b81548152906001019060200180831161068a57829003601f168201915b5050505050908060020180546106bc90614838565b80601f01602080910402602001604051908101604052809291908181526020018280546106e890614838565b80156107355780601f1061070a57610100808354040283529160200191610735565b820191906000526020600020905b81548152906001019060200180831161071857829003601f168201915b5050505050908060030160009054906101000a900460ff169080600401805461075d90614838565b80601f016020809104026020016040519081016040528092919081815260200182805461078990614838565b80156107d65780601f106107ab576101008083540402835291602001916107d6565b820191906000526020600020905b8154815290600101906020018083116107b957829003601f168201915b5050505050905085565b600082826040516020016107f59291906148ee565b6040516020818303038152906040528051906020012060001c905092915050565b600060205280600052604060002060009150905080600001805461083990614838565b80601f016020809104026020016040519081016040528092919081815260200182805461086590614838565b80156108b25780601f10610887576101008083540402835291602001916108b2565b820191906000526020600020905b81548152906001019060200180831161089557829003601f168201915b5050505050908060010180546108c790614838565b80601f01602080910402602001604051908101604052809291908181526020018280546108f390614838565b80156109405780601f1061091557610100808354040283529160200191610940565b820191906000526020600020905b81548152906001019060200180831161092357829003601f168201915b50505050509080600201805461095590614838565b80601f016020809104026020016040519081016040528092919081815260200182805461098190614838565b80156109ce5780601f106109a3576101008083540402835291602001916109ce565b820191906000526020600020905b8154815290600101906020018083116109b157829003601f168201915b5050505050908060030180546109e390614838565b80601f0160208091040260200160405190810160405280929190818152602001828054610a0f90614838565b8015610a5c5780601f10610a3157610100808354040283529160200191610a5c565b820191906000526020600020905b815481529060010190602001808311610a3f57829003601f168201915b5050505050908060040160009054906101000a900460ff16908060040160019054906101000a900473ffffffffffffffffffffffffffffffffffffffff16905086565b6060600a805480602002602001604051908101604052809291908181526020018280548015610aed57602002820191906000526020600020905b815481526020019060010190808311610ad9575b5050505050905090565b3373ffffffffffffffffffffffffffffffffffffffff16600e60009054906101000a900473ffffffffffffffffffffffffffffffffffffffff1673ffffffffffffffffffffffffffffffffffffffff1614610b87576040517f08c379a0000000000000000000000000000000000000000000000000000000008152600401610b7e90614962565b60405180910390fd5b600481606001906005811115610ba057610b9f61383a565b5b90816005811115610bb457610bb361383a565b5b815250507ff8bb4358ad47552bf64034c3974f8d87f4628d3d227987cfcd5b19fc7cedc6e0600482600e60009054906101000a900473ffffffffffffffffffffffffffffffffffffffff16604051610c0e93929190614982565b60405180910390a150565b60095460066000600954815260200190815260200160002060000181905550836006600060095481526020019081526020016000206001019080519060200190610c649291906135d9565b50826006600060095481526020019081526020016000206002019080519060200190610c919291906135d9565b50816005811115610ca557610ca461383a565b5b60066000600954815260200190815260200160002060030160006101000a81548160ff02191690836005811115610cdf57610cde61383a565b5b0217905550806006600060095481526020019081526020016000206004019080519060200190610d109291906135d9565b507f274f009187cb91dd70ef9fd455c66e7263b5fc9746490cba15a3be400f580fa88484846005811115610d4757610d4661383a565b5b604051610d56939291906149c0565b60405180910390a1600a6009549080600181540180825580915050600190039060005260206000200160009091909190915055600b6040518060a001604052806009548152602001868152602001858152602001846005811115610dbd57610dbc61383a565b5b6005811115610dcf57610dce61383a565b5b8152602001838152509080600181540180825580915050600190039060005260206000209060050201600090919091909150600082015181600001556020820151816001019080519060200190610e279291906135d9565b506040820151816002019080519060200190610e449291906135d9565b5060608201518160030160006101000a81548160ff02191690836005811115610e7057610e6f61383a565b5b02179055506080820151816004019080519060200190610e919291906135d9565b50505060096000815480929190610ea790614a34565b919050555050505050565b600a8181548110610ec257600080fd5b906000526020600020016000915090505481565b60038181548110610ee657600080fd5b906000526020600020016000915054906101000a900473ffffffffffffffffffffffffffffffffffffffff1681565b600b8181548110610f2557600080fd5b9060005260206000209060050201600091509050806000015490806001018054610f4e90614838565b80601f0160208091040260200160405190810160405280929190818152602001828054610f7a90614838565b8015610fc75780601f10610f9c57610100808354040283529160200191610fc7565b820191906000526020600020905b815481529060010190602001808311610faa57829003601f168201915b505050505090806002018054610fdc90614838565b80601f016020809104026020016040519081016040528092919081815260200182805461100890614838565b80156110555780601f1061102a57610100808354040283529160200191611055565b820191906000526020600020905b81548152906001019060200180831161103857829003601f168201915b5050505050908060030160009054906101000a900460ff169080600401805461107d90614838565b80601f01602080910402602001604051908101604052809291908181526020018280546110a990614838565b80156110f65780601f106110cb576101008083540402835291602001916110f6565b820191906000526020600020905b8154815290600101906020018083116110d957829003601f168201915b5050505050905085565b600082826040516020016111159291906148ee565b60405160208183030381529060405280519060200120905092915050565b61113b61365f565b6000808373ffffffffffffffffffffffffffffffffffffffff1673ffffffffffffffffffffffffffffffffffffffff1681526020019081526020016000206040518060c001604052908160008201805461119490614838565b80601f01602080910402602001604051908101604052809291908181526020018280546111c090614838565b801561120d5780601f106111e25761010080835404028352916020019161120d565b820191906000526020600020905b8154815290600101906020018083116111f057829003601f168201915b5050505050815260200160018201805461122690614838565b80601f016020809104026020016040519081016040528092919081815260200182805461125290614838565b801561129f5780601f106112745761010080835404028352916020019161129f565b820191906000526020600020905b81548152906001019060200180831161128257829003601f168201915b505050505081526020016002820180546112b890614838565b80601f01602080910402602001604051908101604052809291908181526020018280546112e490614838565b80156113315780601f1061130657610100808354040283529160200191611331565b820191906000526020600020905b81548152906001019060200180831161131457829003601f168201915b5050505050815260200160038201805461134a90614838565b80601f016020809104026020016040519081016040528092919081815260200182805461137690614838565b80156113c35780601f10611398576101008083540402835291602001916113c3565b820191906000526020600020905b8154815290600101906020018083116113a657829003601f168201915b505050505081526020016004820160009054906101000a900460ff1660038111156113f1576113f061383a565b5b60038111156114035761140261383a565b5b81526020016004820160019054906101000a900473ffffffffffffffffffffffffffffffffffffffff1673ffffffffffffffffffffffffffffffffffffffff1673ffffffffffffffffffffffffffffffffffffffff16815250509050919050565b60025481565b3373ffffffffffffffffffffffffffffffffffffffff16600e60009054906101000a900473ffffffffffffffffffffffffffffffffffffffff1673ffffffffffffffffffffffffffffffffffffffff16146114fa576040517f08c379a00000000000000000000000000000000000000000000000000000000081526004016114f190614962565b60405180910390fd5b6003816060019060058111156115135761151261383a565b5b908160058111156115275761152661383a565b5b815250507f36bbf2c4635dd5bbc3747e4089ade2d34883ac6bd195c47bffd310a685ce6eec600382600e60009054906101000a900473ffffffffffffffffffffffffffffffffffffffff1660405161158193929190614982565b60405180910390a150565b600460058111156115a05761159f61383a565b5b826060015160058111156115b7576115b661383a565b5b146115f7576040517f08c379a00000000000000000000000000000000000000000000000000000000081526004016115ee90614b15565b60405180910390fd5b600060086000600d5481526020019081526020016000209050838160010190805190602001906116289291906135d9565b5060008160020160006101000a81548160ff021916908360018111156116515761165061383a565b5b021790555082816003016000820151816000015560208201518160010190805190602001906116819291906135d9565b50604082015181600201908051906020019061169e9291906135d9565b5060608201518160030160006101000a81548160ff021916908360058111156116ca576116c961383a565b5b021790555060808201518160040190805190602001906116eb9291906135d9565b50905050818160080160006101000a81548173ffffffffffffffffffffffffffffffffffffffff021916908373ffffffffffffffffffffffffffffffffffffffff1602179055507fc0a7086e05590c8d9160aba8dc6a29b754eda15e93d2a2578429bc2fda6bdec3600d54600085866060015186604051611770959493929190614b35565b60405180910390a1600d600081548092919061178b90614a34565b919050555050505050565b600060058111156117aa576117a961383a565b5b826060015160058111156117c1576117c061383a565b5b14611801576040517f08c379a00000000000000000000000000000000000000000000000000000000081526004016117f890614c01565b60405180910390fd5b600060086000600d5481526020019081526020016000209050838160010190805190602001906118329291906135d9565b5060008160020160006101000a81548160ff0219169083600181111561185b5761185a61383a565b5b0217905550828160030160008201518160000155602082015181600101908051906020019061188b9291906135d9565b5060408201518160020190805190602001906118a89291906135d9565b5060608201518160030160006101000a81548160ff021916908360058111156118d4576118d361383a565b5b021790555060808201518160040190805190602001906118f59291906135d9565b50905050818160080160006101000a81548173ffffffffffffffffffffffffffffffffffffffff021916908373ffffffffffffffffffffffffffffffffffffffff1602179055507fc0a7086e05590c8d9160aba8dc6a29b754eda15e93d2a2578429bc2fda6bdec3600d5460008586606001518660405161197a959493929190614b35565b60405180910390a1600d600081548092919061199590614a34565b919050555050505050565b6060600b805480602002602001604051908101604052809291908181526020016000905b82821015611bf157838290600052602060002090600502016040518060a001604052908160008201548152602001600182018054611a0190614838565b80601f0160208091040260200160405190810160405280929190818152602001828054611a2d90614838565b8015611a7a5780601f10611a4f57610100808354040283529160200191611a7a565b820191906000526020600020905b815481529060010190602001808311611a5d57829003601f168201915b50505050508152602001600282018054611a9390614838565b80601f0160208091040260200160405190810160405280929190818152602001828054611abf90614838565b8015611b0c5780601f10611ae157610100808354040283529160200191611b0c565b820191906000526020600020905b815481529060010190602001808311611aef57829003601f168201915b505050505081526020016003820160009054906101000a900460ff166005811115611b3a57611b3961383a565b5b6005811115611b4c57611b4b61383a565b5b8152602001600482018054611b6090614838565b80601f0160208091040260200160405190810160405280929190818152602001828054611b8c90614838565b8015611bd95780601f10611bae57610100808354040283529160200191611bd9565b820191906000526020600020905b815481529060010190602001808311611bbc57829003601f168201915b505050505081525050815260200190600101906119c4565b50505050905090565b6008602052806000526040600020600091509050806000015490806001018054611c2390614838565b80601f0160208091040260200160405190810160405280929190818152602001828054611c4f90614838565b8015611c9c5780601f10611c7157610100808354040283529160200191611c9c565b820191906000526020600020905b815481529060010190602001808311611c7f57829003601f168201915b5050505050908060020160009054906101000a900460ff1690806003016040518060a001604052908160008201548152602001600182018054611cde90614838565b80601f0160208091040260200160405190810160405280929190818152602001828054611d0a90614838565b8015611d575780601f10611d2c57610100808354040283529160200191611d57565b820191906000526020600020905b815481529060010190602001808311611d3a57829003601f168201915b50505050508152602001600282018054611d7090614838565b80601f0160208091040260200160405190810160405280929190818152602001828054611d9c90614838565b8015611de95780601f10611dbe57610100808354040283529160200191611de9565b820191906000526020600020905b815481529060010190602001808311611dcc57829003601f168201915b505050505081526020016003820160009054906101000a900460ff166005811115611e1757611e1661383a565b5b6005811115611e2957611e2861383a565b5b8152602001600482018054611e3d90614838565b80601f0160208091040260200160405190810160405280929190818152602001828054611e6990614838565b8015611eb65780601f10611e8b57610100808354040283529160200191611eb6565b820191906000526020600020905b815481529060010190602001808311611e9957829003601f168201915b505050505081525050908060080160009054906101000a900473ffffffffffffffffffffffffffffffffffffffff16905085565b600160009054906101000a900473ffffffffffffffffffffffffffffffffffffffff1681565b6060826003811115611f2557611f2461383a565b5b6000808473ffffffffffffffffffffffffffffffffffffffff1673ffffffffffffffffffffffffffffffffffffffff16815260200190815260200160002060040160006101000a81548160ff02191690836003811115611f8857611f8761383a565b5b02179055507f1a3c779520e15f878f9eff134a72cf200f4361dde45a0d32a7eb989665bbfb286000808473ffffffffffffffffffffffffffffffffffffffff1673ffffffffffffffffffffffffffffffffffffffff1681526020019081526020016000206000016000808573ffffffffffffffffffffffffffffffffffffffff1673ffffffffffffffffffffffffffffffffffffffff1681526020019081526020016000206002016000808673ffffffffffffffffffffffffffffffffffffffff1673ffffffffffffffffffffffffffffffffffffffff1681526020019081526020016000206003016000808773ffffffffffffffffffffffffffffffffffffffff1673ffffffffffffffffffffffffffffffffffffffff1681526020019081526020016000206001016000808873ffffffffffffffffffffffffffffffffffffffff1673ffffffffffffffffffffffffffffffffffffffff16815260200190815260200160002060040160009054906101000a900460ff166000808973ffffffffffffffffffffffffffffffffffffffff1673ffffffffffffffffffffffffffffffffffffffff16815260200190815260200160002060040160019054906101000a900473ffffffffffffffffffffffffffffffffffffffff1660405161217596959493929190614cb6565b60405180910390a16040518060400160405280600d81526020017f526f6c6520557064617465642100000000000000000000000000000000000000815250905092915050565b3373ffffffffffffffffffffffffffffffffffffffff16600160009054906101000a900473ffffffffffffffffffffffffffffffffffffffff1673ffffffffffffffffffffffffffffffffffffffff161461224b576040517f08c379a000000000000000000000000000000000000000000000000000000000815260040161224290614d7f565b60405180910390fd5b856000808373ffffffffffffffffffffffffffffffffffffffff1673ffffffffffffffffffffffffffffffffffffffff16815260200190815260200160002060000190805190602001906122a09291906135d9565b50846000808373ffffffffffffffffffffffffffffffffffffffff1673ffffffffffffffffffffffffffffffffffffffff16815260200190815260200160002060010190805190602001906122f69291906135d9565b50836000808373ffffffffffffffffffffffffffffffffffffffff1673ffffffffffffffffffffffffffffffffffffffff168152602001908152602001600020600201908051906020019061234c9291906135d9565b50826000808373ffffffffffffffffffffffffffffffffffffffff1673ffffffffffffffffffffffffffffffffffffffff16815260200190815260200160002060030190805190602001906123a29291906135d9565b508160038111156123b6576123b561383a565b5b6000808373ffffffffffffffffffffffffffffffffffffffff1673ffffffffffffffffffffffffffffffffffffffff16815260200190815260200160002060040160006101000a81548160ff021916908360038111156124195761241861383a565b5b0217905550806000808373ffffffffffffffffffffffffffffffffffffffff1673ffffffffffffffffffffffffffffffffffffffff16815260200190815260200160002060040160016101000a81548173ffffffffffffffffffffffffffffffffffffffff021916908373ffffffffffffffffffffffffffffffffffffffff1602179055508160038111156124b1576124b061383a565b5b60038111156124c3576124c261383a565b5b866040516124d19190614d9f565b60405180910390208273ffffffffffffffffffffffffffffffffffffffff167fddb5d1667467713eb503e7e133811c91a231cb6b63f11930889c6004f36c35ee88888860405161252393929190614db6565b60405180910390a46003819080600181540180825580915050600190039060005260206000200160009091909190916101000a81548173ffffffffffffffffffffffffffffffffffffffff021916908373ffffffffffffffffffffffffffffffffffffffff16021790555060046040518060c001604052808881526020018781526020018681526020018581526020018460038111156125c6576125c561383a565b5b60038111156125d8576125d761383a565b5b81526020018373ffffffffffffffffffffffffffffffffffffffff168152509080600181540180825580915050600190039060005260206000209060050201600090919091909150600082015181600001908051906020019061263c9291906135d9565b5060208201518160010190805190602001906126599291906135d9565b5060408201518160020190805190602001906126769291906135d9565b5060608201518160030190805190602001906126939291906135d9565b5060808201518160040160006101000a81548160ff021916908360038111156126bf576126be61383a565b5b021790555060a08201518160040160016101000a81548173ffffffffffffffffffffffffffffffffffffffff021916908373ffffffffffffffffffffffffffffffffffffffff16021790555050506002600081548092919061272090614a34565b9190505550505050505050565b600160058111156127415761274061383a565b5b826060015160058111156127585761275761383a565b5b14612798576040517f08c379a000000000000000000000000000000000000000000000000000000000815260040161278f90614e74565b60405180910390fd5b600060076000600c5481526020019081526020016000209050838160010190805190602001906127c99291906135d9565b5060008160020160006101000a81548160ff021916908360018111156127f2576127f161383a565b5b021790555082816003016000820151816000015560208201518160010190805190602001906128229291906135d9565b50604082015181600201908051906020019061283f9291906135d9565b5060608201518160030160006101000a81548160ff0219169083600581111561286b5761286a61383a565b5b0217905550608082015181600401908051906020019061288c9291906135d9565b50905050818160080160006101000a81548173ffffffffffffffffffffffffffffffffffffffff021916908373ffffffffffffffffffffffffffffffffffffffff1602179055507f56cef5b605de75dde94390e0903b843a7c7203544ad094da5db5ecdafb897cb8600c54600085866060015186604051612911959493929190614b35565b60405180910390a1600c600081548092919061292c90614a34565b919050555050505050565b6004818154811061294757600080fd5b906000526020600020906005020160009150905080600001805461296a90614838565b80601f016020809104026020016040519081016040528092919081815260200182805461299690614838565b80156129e35780601f106129b8576101008083540402835291602001916129e3565b820191906000526020600020905b8154815290600101906020018083116129c657829003601f168201915b5050505050908060010180546129f890614838565b80601f0160208091040260200160405190810160405280929190818152602001828054612a2490614838565b8015612a715780601f10612a4657610100808354040283529160200191612a71565b820191906000526020600020905b815481529060010190602001808311612a5457829003601f168201915b505050505090806002018054612a8690614838565b80601f0160208091040260200160405190810160405280929190818152602001828054612ab290614838565b8015612aff5780601f10612ad457610100808354040283529160200191612aff565b820191906000526020600020905b815481529060010190602001808311612ae257829003601f168201915b505050505090806003018054612b1490614838565b80601f0160208091040260200160405190810160405280929190818152602001828054612b4090614838565b8015612b8d5780601f10612b6257610100808354040283529160200191612b8d565b820191906000526020600020905b815481529060010190602001808311612b7057829003601f168201915b5050505050908060040160009054906101000a900460ff16908060040160019054906101000a900473ffffffffffffffffffffffffffffffffffffffff16905086565b60606003805480602002602001604051908101604052809291908181526020018280548015612c5457602002820191906000526020600020905b8160009054906101000a900473ffffffffffffffffffffffffffffffffffffffff1673ffffffffffffffffffffffffffffffffffffffff1681526020019060010190808311612c0a575b5050505050905090565b60095481565b3373ffffffffffffffffffffffffffffffffffffffff16600e60009054906101000a900473ffffffffffffffffffffffffffffffffffffffff1673ffffffffffffffffffffffffffffffffffffffff1614612cf4576040517f08c379a0000000000000000000000000000000000000000000000000000000008152600401612ceb90614962565b60405180910390fd5b600281606001906005811115612d0d57612d0c61383a565b5b90816005811115612d2157612d2061383a565b5b815250507fe3b6ce34d92d54525c86b075ac7ee860f397bf04357137b90aa44a80419a45c382600283600e60009054906101000a900473ffffffffffffffffffffffffffffffffffffffff16604051612d7d9493929190614e94565b60405180910390a15050565b6007602052806000526040600020600091509050806000015490806001018054612db290614838565b80601f0160208091040260200160405190810160405280929190818152602001828054612dde90614838565b8015612e2b5780601f10612e0057610100808354040283529160200191612e2b565b820191906000526020600020905b815481529060010190602001808311612e0e57829003601f168201915b5050505050908060020160009054906101000a900460ff1690806003016040518060a001604052908160008201548152602001600182018054612e6d90614838565b80601f0160208091040260200160405190810160405280929190818152602001828054612e9990614838565b8015612ee65780601f10612ebb57610100808354040283529160200191612ee6565b820191906000526020600020905b815481529060010190602001808311612ec957829003601f168201915b50505050508152602001600282018054612eff90614838565b80601f0160208091040260200160405190810160405280929190818152602001828054612f2b90614838565b8015612f785780601f10612f4d57610100808354040283529160200191612f78565b820191906000526020600020905b815481529060010190602001808311612f5b57829003601f168201915b505050505081526020016003820160009054906101000a900460ff166005811115612fa657612fa561383a565b5b6005811115612fb857612fb761383a565b5b8152602001600482018054612fcc90614838565b80601f0160208091040260200160405190810160405280929190818152602001828054612ff890614838565b80156130455780601f1061301a57610100808354040283529160200191613045565b820191906000526020600020905b81548152906001019060200180831161302857829003601f168201915b505050505081525050908060080160009054906101000a900473ffffffffffffffffffffffffffffffffffffffff16905085565b60606004805480602002602001604051908101604052809291908181526020016000905b828210156133a857838290600052602060002090600502016040518060c00160405290816000820180546130d090614838565b80601f01602080910402602001604051908101604052809291908181526020018280546130fc90614838565b80156131495780601f1061311e57610100808354040283529160200191613149565b820191906000526020600020905b81548152906001019060200180831161312c57829003601f168201915b5050505050815260200160018201805461316290614838565b80601f016020809104026020016040519081016040528092919081815260200182805461318e90614838565b80156131db5780601f106131b0576101008083540402835291602001916131db565b820191906000526020600020905b8154815290600101906020018083116131be57829003601f168201915b505050505081526020016002820180546131f490614838565b80601f016020809104026020016040519081016040528092919081815260200182805461322090614838565b801561326d5780601f106132425761010080835404028352916020019161326d565b820191906000526020600020905b81548152906001019060200180831161325057829003601f168201915b5050505050815260200160038201805461328690614838565b80601f01602080910402602001604051908101604052809291908181526020018280546132b290614838565b80156132ff5780601f106132d4576101008083540402835291602001916132ff565b820191906000526020600020905b8154815290600101906020018083116132e257829003601f168201915b505050505081526020016004820160009054906101000a900460ff16600381111561332d5761332c61383a565b5b600381111561333f5761333e61383a565b5b81526020016004820160019054906101000a900473ffffffffffffffffffffffffffffffffffffffff1673ffffffffffffffffffffffffffffffffffffffff1673ffffffffffffffffffffffffffffffffffffffff16815250508152602001906001019061309d565b50505050905090565b6133b96136bd565b600660008381526020019081526020016000206040518060a0016040529081600082015481526020016001820180546133f190614838565b80601f016020809104026020016040519081016040528092919081815260200182805461341d90614838565b801561346a5780601f1061343f5761010080835404028352916020019161346a565b820191906000526020600020905b81548152906001019060200180831161344d57829003601f168201915b5050505050815260200160028201805461348390614838565b80601f01602080910402602001604051908101604052809291908181526020018280546134af90614838565b80156134fc5780601f106134d1576101008083540402835291602001916134fc565b820191906000526020600020905b8154815290600101906020018083116134df57829003601f168201915b505050505081526020016003820160009054906101000a900460ff16600581111561352a5761352961383a565b5b600581111561353c5761353b61383a565b5b815260200160048201805461355090614838565b80601f016020809104026020016040519081016040528092919081815260200182805461357c90614838565b80156135c95780601f1061359e576101008083540402835291602001916135c9565b820191906000526020600020905b8154815290600101906020018083116135ac57829003601f168201915b5050505050815250509050919050565b8280546135e590614838565b90600052602060002090601f016020900481019282613607576000855561364e565b82601f1061362057805160ff191683800117855561364e565b8280016001018555821561364e579182015b8281111561364d578251825591602001919060010190613632565b5b50905061365b91906136fe565b5090565b6040518060c00160405280606081526020016060815260200160608152602001606081526020016000600381111561369a5761369961383a565b5b8152602001600073ffffffffffffffffffffffffffffffffffffffff1681525090565b6040518060a00160405280600081526020016060815260200160608152602001600060058111156136f1576136f061383a565b5b8152602001606081525090565b5b808211156137175760008160009055506001016136ff565b5090565b6000604051905090565b600080fd5b600080fd5b6000819050919050565b6137428161372f565b811461374d57600080fd5b50565b60008135905061375f81613739565b92915050565b60006020828403121561377b5761377a613725565b5b600061378984828501613750565b91505092915050565b61379b8161372f565b82525050565b600081519050919050565b600082825260208201905092915050565b60005b838110156137db5780820151818401526020810190506137c0565b838111156137ea576000848401525b50505050565b6000601f19601f8301169050919050565b600061380c826137a1565b61381681856137ac565b93506138268185602086016137bd565b61382f816137f0565b840191505092915050565b7f4e487b7100000000000000000000000000000000000000000000000000000000600052602160045260246000fd5b6006811061387a5761387961383a565b5b50565b600081905061388b82613869565b919050565b600061389b8261387d565b9050919050565b6138ab81613890565b82525050565b600060a0820190506138c66000830188613792565b81810360208301526138d88187613801565b905081810360408301526138ec8186613801565b90506138fb60608301856138a2565b818103608083015261390d8184613801565b90509695505050505050565b600080fd5b600080fd5b7f4e487b7100000000000000000000000000000000000000000000000000000000600052604160045260246000fd5b61395b826137f0565b810181811067ffffffffffffffff8211171561397a57613979613923565b5b80604052505050565b600061398d61371b565b90506139998282613952565b919050565b600067ffffffffffffffff8211156139b9576139b8613923565b5b6139c2826137f0565b9050602081019050919050565b82818337600083830152505050565b60006139f16139ec8461399e565b613983565b905082815260208101848484011115613a0d57613a0c61391e565b5b613a188482856139cf565b509392505050565b600082601f830112613a3557613a34613919565b5b8135613a458482602086016139de565b91505092915050565b600073ffffffffffffffffffffffffffffffffffffffff82169050919050565b6000613a7982613a4e565b9050919050565b613a8981613a6e565b8114613a9457600080fd5b50565b600081359050613aa681613a80565b92915050565b60008060408385031215613ac357613ac2613725565b5b600083013567ffffffffffffffff811115613ae157613ae061372a565b5b613aed85828601613a20565b9250506020613afe85828601613a97565b9150509250929050565b613b1181613a6e565b82525050565b6000602082019050613b2c6000830184613b08565b92915050565b600060208284031215613b4857613b47613725565b5b6000613b5684828501613a97565b91505092915050565b60048110613b7057613b6f61383a565b5b50565b6000819050613b8182613b5f565b919050565b6000613b9182613b73565b9050919050565b613ba181613b86565b82525050565b600060c0820190508181036000830152613bc18189613801565b90508181036020830152613bd58188613801565b90508181036040830152613be98187613801565b90508181036060830152613bfd8186613801565b9050613c0c6080830185613b98565b613c1960a0830184613b08565b979650505050505050565b600081519050919050565b600082825260208201905092915050565b6000819050602082019050919050565b613c598161372f565b82525050565b6000613c6b8383613c50565b60208301905092915050565b6000602082019050919050565b6000613c8f82613c24565b613c998185613c2f565b9350613ca483613c40565b8060005b83811015613cd5578151613cbc8882613c5f565b9750613cc783613c77565b925050600181019050613ca8565b5085935050505092915050565b60006020820190508181036000830152613cfc8184613c84565b905092915050565b600080fd5b600080fd5b60068110613d1b57600080fd5b50565b600081359050613d2d81613d0e565b92915050565b600060a08284031215613d4957613d48613d04565b5b613d5360a0613983565b90506000613d6384828501613750565b600083015250602082013567ffffffffffffffff811115613d8757613d86613d09565b5b613d9384828501613a20565b602083015250604082013567ffffffffffffffff811115613db757613db6613d09565b5b613dc384828501613a20565b6040830152506060613dd784828501613d1e565b606083015250608082013567ffffffffffffffff811115613dfb57613dfa613d09565b5b613e0784828501613a20565b60808301525092915050565b600060208284031215613e2957613e28613725565b5b600082013567ffffffffffffffff811115613e4757613e4661372a565b5b613e5384828501613d33565b91505092915050565b60008060008060808587031215613e7657613e75613725565b5b600085013567ffffffffffffffff811115613e9457613e9361372a565b5b613ea087828801613a20565b945050602085013567ffffffffffffffff811115613ec157613ec061372a565b5b613ecd87828801613a20565b9350506040613ede87828801613750565b925050606085013567ffffffffffffffff811115613eff57613efe61372a565b5b613f0b87828801613a20565b91505092959194509250565b6000602082019050613f2c6000830184613792565b92915050565b6000819050919050565b613f4581613f32565b82525050565b6000602082019050613f606000830184613f3c565b92915050565b600082825260208201905092915050565b6000613f82826137a1565b613f8c8185613f66565b9350613f9c8185602086016137bd565b613fa5816137f0565b840191505092915050565b613fb981613b86565b82525050565b613fc881613a6e565b82525050565b600060c0830160008301518482036000860152613feb8282613f77565b915050602083015184820360208601526140058282613f77565b9150506040830151848203604086015261401f8282613f77565b915050606083015184820360608601526140398282613f77565b915050608083015161404e6080860182613fb0565b5060a083015161406160a0860182613fbf565b508091505092915050565b600060208201905081810360008301526140868184613fce565b905092915050565b6000806000606084860312156140a7576140a6613725565b5b600084013567ffffffffffffffff8111156140c5576140c461372a565b5b6140d186828701613a20565b935050602084013567ffffffffffffffff8111156140f2576140f161372a565b5b6140fe86828701613d33565b925050604061410f86828701613a97565b9150509250925092565b600081519050919050565b600082825260208201905092915050565b6000819050602082019050919050565b61414e81613890565b82525050565b600060a08301600083015161416c6000860182613c50565b50602083015184820360208601526141848282613f77565b9150506040830151848203604086015261419e8282613f77565b91505060608301516141b36060860182614145565b50608083015184820360808601526141cb8282613f77565b9150508091505092915050565b60006141e48383614154565b905092915050565b6000602082019050919050565b600061420482614119565b61420e8185614124565b93508360208202850161422085614135565b8060005b8581101561425c578484038952815161423d85826141d8565b9450614248836141ec565b925060208a01995050600181019050614224565b50829750879550505050505092915050565b6000602082019050818103600083015261428881846141f9565b905092915050565b600281106142a1576142a061383a565b5b50565b60008190506142b282614290565b919050565b60006142c2826142a4565b9050919050565b6142d2816142b7565b82525050565b600060a0830160008301516142f06000860182613c50565b50602083015184820360208601526143088282613f77565b915050604083015184820360408601526143228282613f77565b91505060608301516143376060860182614145565b506080830151848203608086015261434f8282613f77565b9150508091505092915050565b600060a0820190506143716000830188613792565b81810360208301526143838187613801565b905061439260408301866142c9565b81810360608301526143a481856142d8565b90506143b36080830184613b08565b9695505050505050565b600080604083850312156143d4576143d3613725565b5b60006143e285828601613750565b92505060206143f385828601613a97565b9150509250929050565b600060208201905081810360008301526144178184613801565b905092915050565b60008060008060008060c0878903121561443c5761443b613725565b5b600087013567ffffffffffffffff81111561445a5761445961372a565b5b61446689828a01613a20565b965050602087013567ffffffffffffffff8111156144875761448661372a565b5b61449389828a01613a20565b955050604087013567ffffffffffffffff8111156144b4576144b361372a565b5b6144c089828a01613a20565b945050606087013567ffffffffffffffff8111156144e1576144e061372a565b5b6144ed89828a01613a20565b93505060806144fe89828a01613750565b92505060a061450f89828a01613a97565b9150509295509295509295565b600081519050919050565b600082825260208201905092915050565b6000819050602082019050919050565b60006145548383613fbf565b60208301905092915050565b6000602082019050919050565b60006145788261451c565b6145828185614527565b935061458d83614538565b8060005b838110156145be5781516145a58882614548565b97506145b083614560565b925050600181019050614591565b5085935050505092915050565b600060208201905081810360008301526145e5818461456d565b905092915050565b6000806040838503121561460457614603613725565b5b600083013567ffffffffffffffff8111156146225761462161372a565b5b61462e85828601613a20565b925050602083013567ffffffffffffffff81111561464f5761464e61372a565b5b61465b85828601613d33565b9150509250929050565b600081519050919050565b600082825260208201905092915050565b6000819050602082019050919050565b600060c08301600083015184820360008601526146ae8282613f77565b915050602083015184820360208601526146c88282613f77565b915050604083015184820360408601526146e28282613f77565b915050606083015184820360608601526146fc8282613f77565b91505060808301516147116080860182613fb0565b5060a083015161472460a0860182613fbf565b508091505092915050565b600061473b8383614691565b905092915050565b6000602082019050919050565b600061475b82614665565b6147658185614670565b93508360208202850161477785614681565b8060005b858110156147b35784840389528151614794858261472f565b945061479f83614743565b925060208a0199505060018101905061477b565b50829750879550505050505092915050565b600060208201905081810360008301526147df8184614750565b905092915050565b6000602082019050818103600083015261480181846142d8565b905092915050565b7f4e487b7100000000000000000000000000000000000000000000000000000000600052602260045260246000fd5b6000600282049050600182168061485057607f821691505b6020821081141561486457614863614809565b5b50919050565b600081905092915050565b6000614880826137a1565b61488a818561486a565b935061489a8185602086016137bd565b80840191505092915050565b60008160601b9050919050565b60006148be826148a6565b9050919050565b60006148d0826148b3565b9050919050565b6148e86148e382613a6e565b6148c5565b82525050565b60006148fa8285614875565b915061490682846148d7565b6014820191508190509392505050565b7f596f7520617265206e6f74206120636f6d70616e79206275696c646572000000600082015250565b600061494c601d836137ac565b915061495782614916565b602082019050919050565b6000602082019050818103600083015261497b8161493f565b9050919050565b600060608201905061499760008301866138a2565b81810360208301526149a981856142d8565b90506149b86040830184613b08565b949350505050565b600060608201905081810360008301526149da8186613801565b905081810360208301526149ee8185613801565b90506149fd60408301846138a2565b949350505050565b7f4e487b7100000000000000000000000000000000000000000000000000000000600052601160045260246000fd5b6000614a3f8261372f565b91507fffffffffffffffffffffffffffffffffffffffffffffffffffffffffffffffff821415614a7257614a71614a05565b5b600182019050919050565b7f5468652070726f6a656374206973206e6f7420696e2074686520274265666f7260008201527f6546696e616c697a6174696f6e436865636b27207374617475732c207468652060208201527f6f7065726174696f6e2063616e6e6f7420626520646f6e652e00000000000000604082015250565b6000614aff6059836137ac565b9150614b0a82614a7d565b606082019050919050565b60006020820190508181036000830152614b2e81614af2565b9050919050565b600060a082019050614b4a6000830188613792565b614b5760208301876142c9565b8181036040830152614b6981866142d8565b9050614b7860608301856138a2565b614b856080830184613b08565b9695505050505050565b7f5468652070726f6a656374206973206e6f7420637265617465642c207468652060008201527f6f7065726174696f6e2063616e6e6f7420626520646f6e652e00000000000000602082015250565b6000614beb6039836137ac565b9150614bf682614b8f565b604082019050919050565b60006020820190508181036000830152614c1a81614bde565b9050919050565b60008190508160005260206000209050919050565b60008154614c4381614838565b614c4d81866137ac565b94506001821660008114614c685760018114614c7a57614cad565b60ff1983168652602086019350614cad565b614c8385614c21565b60005b83811015614ca557815481890152600182019150602081019050614c86565b808801955050505b50505092915050565b600060c0820190508181036000830152614cd08189614c36565b90508181036020830152614ce48188614c36565b90508181036040830152614cf88187614c36565b90508181036060830152614d0c8186614c36565b9050614d1b6080830185613b98565b614d2860a0830184613b08565b979650505050505050565b7f596f7520617265206e6f7420616e206f776e6572000000000000000000000000600082015250565b6000614d696014836137ac565b9150614d7482614d33565b602082019050919050565b60006020820190508181036000830152614d9881614d5c565b9050919050565b6000614dab8284614875565b915081905092915050565b60006060820190508181036000830152614dd08186613801565b90508181036020830152614de48185613801565b90508181036040830152614df88184613801565b9050949350505050565b7f5468652070726f6a656374206973206e6f7420617070726f7665642c2074686560008201527f206f7065726174696f6e2063616e6e6f7420626520646f6e652e000000000000602082015250565b6000614e5e603a836137ac565b9150614e6982614e02565b604082019050919050565b60006020820190508181036000830152614e8d81614e51565b9050919050565b60006080820190508181036000830152614eae8187613801565b9050614ebd60208301866138a2565b8181036040830152614ecf81856142d8565b9050614ede6060830184613b08565b9594505050505056fea26469706673582212209e0cd5ef84385377ac8675647f18bf088e950306675ad1bbf89a32622bc86bd964736f6c634300080a0033",
  "immutableReferences": {},
  "source": "// SPDX-License-Identifier: MIT\r\npragma solidity >=0.8.0 <0.9.0;\r\n\r\nimport \"./Project.sol\";\r\n\r\ncontract CompanyBuilder is Project {\r\n\r\n    address _companyAddress;\r\n\r\n    event ApproveProjectRequestByCompany(ProjectStatus _status, S_Project _project, address _subjectAddress);\r\n    event RejectProjectRequestByCompany(string _description, ProjectStatus _status, S_Project _project, address _subjectAddress);\r\n    event BeforeFinalizationProjectRequestByCompany(ProjectStatus _status, S_Project _project, address _subjectAddress);\r\n\r\n    constructor() {\r\n        _companyAddress = msg.sender;\r\n    }\r\n\r\n    modifier onlyCompany {\r\n        require(_companyAddress == msg.sender, \"You are not a company builder\");\r\n        _;\r\n    }\r\n\r\n    // Add some contrainst / verification TOOO DOOO -> LATER\r\n\r\n    function setProjectRequestToOnGoingStatus(S_Project memory _project) public onlyCompany {\r\n        _project.projectStatus = ProjectStatus.OnGoing;\r\n        emit ApproveProjectRequestByCompany(ProjectStatus.OnGoing, _project, _companyAddress);\r\n    }\r\n\r\n    function setProjectRequestToRejectStatus(string memory _description, S_Project memory _project) public onlyCompany {\r\n        _project.projectStatus = ProjectStatus.Rejected;\r\n        emit RejectProjectRequestByCompany(_description, ProjectStatus.Rejected, _project, _companyAddress);\r\n    }\r\n\r\n    function setProjectRequestToBeforeFinalizationStatus(S_Project memory _project)  public onlyCompany {\r\n        _project.projectStatus = ProjectStatus.BeforeFinalizationCheck;\r\n        emit BeforeFinalizationProjectRequestByCompany(ProjectStatus.BeforeFinalizationCheck, _project, _companyAddress);\r\n    }\r\n}\r\n",
  "sourcePath": "/mnt/c/users/beniamin/source/repos/dissertationproject/contracts/CompanyBuilder.sol",
  "compiler": {
    "name": "solc",
    "version": "0.8.10+commit.fc410830.Emscripten.clang"
  },
  "schemaVersion": "3.4.3",
  "updatedAt": "2021-11-17T14:48:02.097Z",
  "devdoc": {
    "kind": "dev",
    "methods": {},
    "version": 1
  },
  "userdoc": {
    "kind": "user",
    "methods": {},
    "version": 1
  }
}