{
  "contractName": "CompanyChain",
  "abi": [
    {
      "inputs": [],
      "stateMutability": "nonpayable",
      "type": "constructor"
    },
    {
      "anonymous": false,
      "inputs": [
        {
          "indexed": false,
          "internalType": "uint256",
          "name": "_index",
          "type": "uint256"
        },
        {
          "indexed": false,
          "internalType": "bytes32",
          "name": "_name",
          "type": "bytes32"
        },
        {
          "indexed": false,
          "internalType": "enum SharedChain.ProjectStatus",
          "name": "_status",
          "type": "uint8"
        },
        {
          "indexed": false,
          "internalType": "bytes32",
          "name": "_ipfsFileCID",
          "type": "bytes32"
        },
        {
          "indexed": false,
          "internalType": "address",
          "name": "_projectAddress",
          "type": "address"
        },
        {
          "indexed": false,
          "internalType": "address",
          "name": "_userAddress",
          "type": "address"
        },
        {
          "indexed": false,
          "internalType": "uint256",
          "name": "_timestamp",
          "type": "uint256"
        }
      ],
      "name": "ProjectEvent",
      "type": "event"
    },
    {
      "anonymous": false,
      "inputs": [
        {
          "indexed": false,
          "internalType": "uint256",
          "name": "_index",
          "type": "uint256"
        },
        {
          "indexed": false,
          "internalType": "bytes32",
          "name": "_title",
          "type": "bytes32"
        },
        {
          "indexed": false,
          "internalType": "bytes32",
          "name": "_comments",
          "type": "bytes32"
        },
        {
          "indexed": false,
          "internalType": "enum SharedChain.ProjectStatus",
          "name": "_status",
          "type": "uint8"
        },
        {
          "indexed": false,
          "internalType": "enum SharedChain.RequestStatus",
          "name": "_requestStatus",
          "type": "uint8"
        },
        {
          "indexed": false,
          "internalType": "address",
          "name": "_projectAddress",
          "type": "address"
        },
        {
          "indexed": false,
          "internalType": "address",
          "name": "_userAddress",
          "type": "address"
        },
        {
          "indexed": false,
          "internalType": "uint256",
          "name": "_timestamp",
          "type": "uint256"
        }
      ],
      "name": "ProjectRequestEvent",
      "type": "event"
    },
    {
      "anonymous": false,
      "inputs": [
        {
          "indexed": false,
          "internalType": "uint256",
          "name": "_index",
          "type": "uint256"
        },
        {
          "indexed": false,
          "internalType": "bytes32",
          "name": "_title",
          "type": "bytes32"
        },
        {
          "indexed": false,
          "internalType": "enum SharedChain.RequestStatus",
          "name": "_status",
          "type": "uint8"
        },
        {
          "indexed": false,
          "internalType": "enum SharedChain.ProjectStatus",
          "name": "_projectStatus",
          "type": "uint8"
        },
        {
          "indexed": false,
          "internalType": "address",
          "name": "_projectAddress",
          "type": "address"
        },
        {
          "indexed": false,
          "internalType": "address",
          "name": "_userAddress",
          "type": "address"
        },
        {
          "indexed": false,
          "internalType": "uint256",
          "name": "_timestamp",
          "type": "uint256"
        }
      ],
      "name": "RequestEvent",
      "type": "event"
    },
    {
      "inputs": [
        {
          "internalType": "uint256",
          "name": "",
          "type": "uint256"
        }
      ],
      "name": "allCompanyRequests",
      "outputs": [
        {
          "internalType": "uint256",
          "name": "_index",
          "type": "uint256"
        },
        {
          "internalType": "bytes32",
          "name": "_title",
          "type": "bytes32"
        },
        {
          "internalType": "enum SharedChain.RequestStatus",
          "name": "_requestStatus",
          "type": "uint8"
        },
        {
          "internalType": "enum SharedChain.ProjectStatus",
          "name": "_projectStatus",
          "type": "uint8"
        },
        {
          "internalType": "address",
          "name": "_projectAddress",
          "type": "address"
        },
        {
          "internalType": "address",
          "name": "_userAddress",
          "type": "address"
        }
      ],
      "stateMutability": "view",
      "type": "function"
    },
    {
      "inputs": [
        {
          "internalType": "uint256",
          "name": "",
          "type": "uint256"
        }
      ],
      "name": "requestsCompany",
      "outputs": [
        {
          "internalType": "uint256",
          "name": "_index",
          "type": "uint256"
        },
        {
          "internalType": "bytes32",
          "name": "_title",
          "type": "bytes32"
        },
        {
          "internalType": "enum SharedChain.RequestStatus",
          "name": "_requestStatus",
          "type": "uint8"
        },
        {
          "internalType": "enum SharedChain.ProjectStatus",
          "name": "_projectStatus",
          "type": "uint8"
        },
        {
          "internalType": "address",
          "name": "_projectAddress",
          "type": "address"
        },
        {
          "internalType": "address",
          "name": "_userAddress",
          "type": "address"
        }
      ],
      "stateMutability": "view",
      "type": "function"
    },
    {
      "inputs": [],
      "name": "requestsCompanyCounter",
      "outputs": [
        {
          "internalType": "uint256",
          "name": "",
          "type": "uint256"
        }
      ],
      "stateMutability": "view",
      "type": "function"
    },
    {
      "inputs": [
        {
          "internalType": "bytes32",
          "name": "_title",
          "type": "bytes32"
        },
        {
          "internalType": "uint256",
          "name": "_requestStatus",
          "type": "uint256"
        },
        {
          "internalType": "uint256",
          "name": "_projectStatus",
          "type": "uint256"
        },
        {
          "internalType": "address",
          "name": "_projectAddress",
          "type": "address"
        }
      ],
      "name": "createRequestCompany",
      "outputs": [],
      "stateMutability": "nonpayable",
      "type": "function"
    },
    {
      "inputs": [
        {
          "internalType": "uint256",
          "name": "_requestStatus",
          "type": "uint256"
        },
        {
          "internalType": "uint256",
          "name": "_index",
          "type": "uint256"
        }
      ],
      "name": "updateRequestCompany",
      "outputs": [],
      "stateMutability": "nonpayable",
      "type": "function"
    },
    {
      "inputs": [],
      "name": "getAllRequestsCompany",
      "outputs": [
        {
          "components": [
            {
              "internalType": "uint256",
              "name": "_index",
              "type": "uint256"
            },
            {
              "internalType": "bytes32",
              "name": "_title",
              "type": "bytes32"
            },
            {
              "internalType": "enum SharedChain.RequestStatus",
              "name": "_requestStatus",
              "type": "uint8"
            },
            {
              "internalType": "enum SharedChain.ProjectStatus",
              "name": "_projectStatus",
              "type": "uint8"
            },
            {
              "internalType": "address",
              "name": "_projectAddress",
              "type": "address"
            },
            {
              "internalType": "address",
              "name": "_userAddress",
              "type": "address"
            }
          ],
          "internalType": "struct SharedChain.Request[]",
          "name": "",
          "type": "tuple[]"
        }
      ],
      "stateMutability": "view",
      "type": "function"
    }
  ],
  "bytecode": "0x6080604052600060025534801561001557600080fd5b50336000806101000a81548173ffffffffffffffffffffffffffffffffffffffff021916908373ffffffffffffffffffffffffffffffffffffffff160217905550610e76806100656000396000f3fe608060405234801561001057600080fd5b50600436106100625760003560e01c8063503a3f9e14610067578063923e53fa14610083578063af21684f1461009f578063b2423c1e146100bd578063e7418dc2146100db578063f9cf864914610110575b600080fd5b610081600480360381019061007c91906108f2565b610145565b005b61009d600480360381019061009891906109c6565b610199565b005b6100a76105e0565b6040516100b49190610a3c565b60405180910390f35b6100c56105e6565b6040516100d29190610c6d565b60405180910390f35b6100f560048036038101906100f09190610c8f565b61077b565b60405161010796959493929190610cf8565b60405180910390f35b61012a60048036038101906101259190610c8f565b610811565b60405161013c96959493929190610cf8565b60405180910390f35b81600281111561015857610157610aa1565b5b6001600083815260200190815260200160002060020160006101000a81548160ff021916908360028111156101905761018f610aa1565b5b02179055505050565b6002546001600060025481526020019081526020016000206000018190555083600160006002548152602001908152602001600020600101819055508260028111156101e8576101e7610aa1565b5b60016000600254815260200190815260200160002060020160006101000a81548160ff0219169083600281111561022257610221610aa1565b5b021790555081600481111561023a57610239610aa1565b5b60016000600254815260200190815260200160002060020160016101000a81548160ff0219169083600481111561027457610273610aa1565b5b02179055508060016000600254815260200190815260200160002060020160026101000a81548173ffffffffffffffffffffffffffffffffffffffff021916908373ffffffffffffffffffffffffffffffffffffffff16021790555060008054906101000a900473ffffffffffffffffffffffffffffffffffffffff1660016000600254815260200190815260200160002060030160006101000a81548173ffffffffffffffffffffffffffffffffffffffff021916908373ffffffffffffffffffffffffffffffffffffffff1602179055507fa37382c33b9b24804052be2a7acff5b9a3825a23f2aa5762318ee66b171cf84d6002548585600281111561037f5761037e610aa1565b5b85600481111561039257610391610aa1565b5b8560008054906101000a900473ffffffffffffffffffffffffffffffffffffffff16426040516103c89796959493929190610d59565b60405180910390a160036040518060c0016040528060025481526020018681526020018560028111156103fe576103fd610aa1565b5b60028111156104105761040f610aa1565b5b815260200184600481111561042857610427610aa1565b5b600481111561043a57610439610aa1565b5b81526020018373ffffffffffffffffffffffffffffffffffffffff16815260200160008054906101000a900473ffffffffffffffffffffffffffffffffffffffff1673ffffffffffffffffffffffffffffffffffffffff168152509080600181540180825580915050600190039060005260206000209060040201600090919091909150600082015181600001556020820151816001015560408201518160020160006101000a81548160ff021916908360028111156104fd576104fc610aa1565b5b021790555060608201518160020160016101000a81548160ff0219169083600481111561052d5761052c610aa1565b5b021790555060808201518160020160026101000a81548173ffffffffffffffffffffffffffffffffffffffff021916908373ffffffffffffffffffffffffffffffffffffffff16021790555060a08201518160030160006101000a81548173ffffffffffffffffffffffffffffffffffffffff021916908373ffffffffffffffffffffffffffffffffffffffff1602179055505050600260008154809291906105d590610df7565b919050555050505050565b60025481565b60606003805480602002602001604051908101604052809291908181526020016000905b8282101561077257838290600052602060002090600402016040518060c001604052908160008201548152602001600182015481526020016002820160009054906101000a900460ff16600281111561066657610665610aa1565b5b600281111561067857610677610aa1565b5b81526020016002820160019054906101000a900460ff1660048111156106a1576106a0610aa1565b5b60048111156106b3576106b2610aa1565b5b81526020016002820160029054906101000a900473ffffffffffffffffffffffffffffffffffffffff1673ffffffffffffffffffffffffffffffffffffffff1673ffffffffffffffffffffffffffffffffffffffff1681526020016003820160009054906101000a900473ffffffffffffffffffffffffffffffffffffffff1673ffffffffffffffffffffffffffffffffffffffff1673ffffffffffffffffffffffffffffffffffffffff16815250508152602001906001019061060a565b50505050905090565b60016020528060005260406000206000915090508060000154908060010154908060020160009054906101000a900460ff16908060020160019054906101000a900460ff16908060020160029054906101000a900473ffffffffffffffffffffffffffffffffffffffff16908060030160009054906101000a900473ffffffffffffffffffffffffffffffffffffffff16905086565b6003818154811061082157600080fd5b90600052602060002090600402016000915090508060000154908060010154908060020160009054906101000a900460ff16908060020160019054906101000a900460ff16908060020160029054906101000a900473ffffffffffffffffffffffffffffffffffffffff16908060030160009054906101000a900473ffffffffffffffffffffffffffffffffffffffff16905086565b600080fd5b6000819050919050565b6108cf816108bc565b81146108da57600080fd5b50565b6000813590506108ec816108c6565b92915050565b60008060408385031215610909576109086108b7565b5b6000610917858286016108dd565b9250506020610928858286016108dd565b9150509250929050565b6000819050919050565b61094581610932565b811461095057600080fd5b50565b6000813590506109628161093c565b92915050565b600073ffffffffffffffffffffffffffffffffffffffff82169050919050565b600061099382610968565b9050919050565b6109a381610988565b81146109ae57600080fd5b50565b6000813590506109c08161099a565b92915050565b600080600080608085870312156109e0576109df6108b7565b5b60006109ee87828801610953565b94505060206109ff878288016108dd565b9350506040610a10878288016108dd565b9250506060610a21878288016109b1565b91505092959194509250565b610a36816108bc565b82525050565b6000602082019050610a516000830184610a2d565b92915050565b600081519050919050565b600082825260208201905092915050565b6000819050602082019050919050565b610a8c816108bc565b82525050565b610a9b81610932565b82525050565b7f4e487b7100000000000000000000000000000000000000000000000000000000600052602160045260246000fd5b60038110610ae157610ae0610aa1565b5b50565b6000819050610af282610ad0565b919050565b6000610b0282610ae4565b9050919050565b610b1281610af7565b82525050565b60058110610b2957610b28610aa1565b5b50565b6000819050610b3a82610b18565b919050565b6000610b4a82610b2c565b9050919050565b610b5a81610b3f565b82525050565b610b6981610988565b82525050565b60c082016000820151610b856000850182610a83565b506020820151610b986020850182610a92565b506040820151610bab6040850182610b09565b506060820151610bbe6060850182610b51565b506080820151610bd16080850182610b60565b5060a0820151610be460a0850182610b60565b50505050565b6000610bf68383610b6f565b60c08301905092915050565b6000602082019050919050565b6000610c1a82610a57565b610c248185610a62565b9350610c2f83610a73565b8060005b83811015610c60578151610c478882610bea565b9750610c5283610c02565b925050600181019050610c33565b5085935050505092915050565b60006020820190508181036000830152610c878184610c0f565b905092915050565b600060208284031215610ca557610ca46108b7565b5b6000610cb3848285016108dd565b91505092915050565b610cc581610932565b82525050565b610cd481610af7565b82525050565b610ce381610b3f565b82525050565b610cf281610988565b82525050565b600060c082019050610d0d6000830189610a2d565b610d1a6020830188610cbc565b610d276040830187610ccb565b610d346060830186610cda565b610d416080830185610ce9565b610d4e60a0830184610ce9565b979650505050505050565b600060e082019050610d6e600083018a610a2d565b610d7b6020830189610cbc565b610d886040830188610ccb565b610d956060830187610cda565b610da26080830186610ce9565b610daf60a0830185610ce9565b610dbc60c0830184610a2d565b98975050505050505050565b7f4e487b7100000000000000000000000000000000000000000000000000000000600052601160045260246000fd5b6000610e02826108bc565b91507fffffffffffffffffffffffffffffffffffffffffffffffffffffffffffffffff821415610e3557610e34610dc8565b5b60018201905091905056fea264697066735822122098af13c5fae716dc69fdd7dbf1e95321ede5870e684520d06928890aaf65cdde64736f6c634300080a0033",
  "immutableReferences": {},
  "source": "// SPDX-License-Identifier: MIT\r\npragma solidity >=0.8.0 <0.9.0;\r\n\r\nimport \"./SharedChain.sol\";\r\n\r\ncontract CompanyChain is SharedChain {\r\n    address _companyAddress;\r\n\r\n    mapping(uint => Request) public requestsCompany;\r\n    uint public requestsCompanyCounter = 0;\r\n    Request[] public allCompanyRequests;\r\n\r\n    constructor() {\r\n        _companyAddress = msg.sender;\r\n    }\r\n\r\n    modifier onlyCompany {\r\n        require(_companyAddress == msg.sender, \"You are not a company builder\");\r\n        _;\r\n    }\r\n\r\n    function createRequestCompany(\r\n        bytes32 _title,\r\n        uint _requestStatus,\r\n        uint _projectStatus,\r\n        address _projectAddress\r\n    ) public {\r\n        requestsCompany[requestsCompanyCounter]._index = requestsCompanyCounter;\r\n        requestsCompany[requestsCompanyCounter]._title = _title;\r\n        requestsCompany[requestsCompanyCounter]._requestStatus = RequestStatus(_requestStatus);\r\n        requestsCompany[requestsCompanyCounter]._projectStatus = ProjectStatus(_projectStatus);\r\n        requestsCompany[requestsCompanyCounter]._projectAddress = _projectAddress;\r\n        // change to companyAddress\r\n        requestsCompany[requestsCompanyCounter]._userAddress = _companyAddress;\r\n\r\n        emit RequestEvent(requestsCompanyCounter, _title, RequestStatus(_requestStatus), ProjectStatus(_projectStatus), _projectAddress, _companyAddress, block.timestamp);\r\n        allCompanyRequests.push(Request(requestsCompanyCounter, _title,  RequestStatus(_requestStatus), ProjectStatus(_projectStatus), _projectAddress, _companyAddress));\r\n        requestsCompanyCounter++;\r\n    }\r\n\r\n    function updateRequestCompany(uint _requestStatus, uint _index) public {\r\n        requestsCompany[_index]._requestStatus = RequestStatus(_requestStatus);\r\n        //uint index = requestsCompany[_index]._index;\r\n        //allCompanyRequests[index]._requestStatus = RequestStatus(_requestStatus);\r\n    }\r\n\r\n    function getAllRequestsCompany() public view returns(Request[] memory) {\r\n        return allCompanyRequests;\r\n    }\r\n}\r\n",
  "sourcePath": "/mnt/c/users/beniamin/source/repos/dissertationproject/contracts/CompanyChain.sol",
  "compiler": {
    "name": "solc",
    "version": "0.8.10+commit.fc410830.Emscripten.clang"
  },
  "schemaVersion": "3.4.3",
  "updatedAt": "2021-11-21T08:17:34.593Z",
  "devdoc": {
    "kind": "dev",
    "methods": {},
    "version": 1
  },
  "userdoc": {
    "kind": "user",
    "methods": {},
    "version": 1
  }
}