{
  "contractName": "CompanyChain",
  "abi": [
    {
      "inputs": [],
      "stateMutability": "nonpayable",
      "type": "constructor"
    },
    {
      "anonymous": false,
      "inputs": [
        {
          "indexed": false,
          "internalType": "enum ProjectChain.ProjectStatus",
          "name": "_status",
          "type": "uint8"
        },
        {
          "components": [
            {
              "internalType": "uint256",
              "name": "_index",
              "type": "uint256"
            },
            {
              "internalType": "string",
              "name": "_name",
              "type": "string"
            },
            {
              "internalType": "string",
              "name": "_description",
              "type": "string"
            },
            {
              "internalType": "enum ProjectChain.ProjectStatus",
              "name": "_status",
              "type": "uint8"
            },
            {
              "internalType": "string",
              "name": "_ipfsFileCID",
              "type": "string"
            },
            {
              "internalType": "address",
              "name": "_projectAddress",
              "type": "address"
            },
            {
              "internalType": "address",
              "name": "_userAddress",
              "type": "address"
            }
          ],
          "indexed": false,
          "internalType": "struct ProjectChain.Project",
          "name": "_project",
          "type": "tuple"
        },
        {
          "indexed": false,
          "internalType": "address",
          "name": "_subjectAddress",
          "type": "address"
        }
      ],
      "name": "ApproveProjectRequestByCompany",
      "type": "event"
    },
    {
      "anonymous": false,
      "inputs": [
        {
          "indexed": false,
          "internalType": "enum ProjectChain.ProjectStatus",
          "name": "_status",
          "type": "uint8"
        },
        {
          "components": [
            {
              "internalType": "uint256",
              "name": "_index",
              "type": "uint256"
            },
            {
              "internalType": "string",
              "name": "_name",
              "type": "string"
            },
            {
              "internalType": "string",
              "name": "_description",
              "type": "string"
            },
            {
              "internalType": "enum ProjectChain.ProjectStatus",
              "name": "_status",
              "type": "uint8"
            },
            {
              "internalType": "string",
              "name": "_ipfsFileCID",
              "type": "string"
            },
            {
              "internalType": "address",
              "name": "_projectAddress",
              "type": "address"
            },
            {
              "internalType": "address",
              "name": "_userAddress",
              "type": "address"
            }
          ],
          "indexed": false,
          "internalType": "struct ProjectChain.Project",
          "name": "_project",
          "type": "tuple"
        },
        {
          "indexed": false,
          "internalType": "address",
          "name": "_subjectAddress",
          "type": "address"
        }
      ],
      "name": "BeforeFinalizationProjectRequestByCompany",
      "type": "event"
    },
    {
      "anonymous": false,
      "inputs": [
        {
          "indexed": false,
          "internalType": "uint256",
          "name": "_index",
          "type": "uint256"
        },
        {
          "indexed": false,
          "internalType": "string",
          "name": "_name",
          "type": "string"
        },
        {
          "indexed": false,
          "internalType": "string",
          "name": "_description",
          "type": "string"
        },
        {
          "indexed": false,
          "internalType": "enum ProjectChain.ProjectStatus",
          "name": "_status",
          "type": "uint8"
        },
        {
          "indexed": false,
          "internalType": "string",
          "name": "_ipfsFileCID",
          "type": "string"
        },
        {
          "indexed": false,
          "internalType": "address",
          "name": "_projectAddress",
          "type": "address"
        },
        {
          "indexed": false,
          "internalType": "address",
          "name": "_userAddress",
          "type": "address"
        }
      ],
      "name": "ProjectEvent",
      "type": "event"
    },
    {
      "anonymous": false,
      "inputs": [
        {
          "indexed": false,
          "internalType": "uint256",
          "name": "_index",
          "type": "uint256"
        },
        {
          "indexed": false,
          "internalType": "string",
          "name": "_title",
          "type": "string"
        },
        {
          "indexed": false,
          "internalType": "string",
          "name": "_description",
          "type": "string"
        },
        {
          "indexed": false,
          "internalType": "string",
          "name": "_comments",
          "type": "string"
        },
        {
          "indexed": false,
          "internalType": "enum ProjectChain.ProjectStatus",
          "name": "_status",
          "type": "uint8"
        },
        {
          "indexed": false,
          "internalType": "enum ProjectChain.RequestStatus",
          "name": "_requestStatus",
          "type": "uint8"
        },
        {
          "indexed": false,
          "internalType": "address",
          "name": "_projectAddress",
          "type": "address"
        },
        {
          "indexed": false,
          "internalType": "address",
          "name": "_userAddress",
          "type": "address"
        }
      ],
      "name": "ProjectStatusEvent",
      "type": "event"
    },
    {
      "anonymous": false,
      "inputs": [
        {
          "indexed": false,
          "internalType": "string",
          "name": "_description",
          "type": "string"
        },
        {
          "indexed": false,
          "internalType": "enum ProjectChain.ProjectStatus",
          "name": "_status",
          "type": "uint8"
        },
        {
          "components": [
            {
              "internalType": "uint256",
              "name": "_index",
              "type": "uint256"
            },
            {
              "internalType": "string",
              "name": "_name",
              "type": "string"
            },
            {
              "internalType": "string",
              "name": "_description",
              "type": "string"
            },
            {
              "internalType": "enum ProjectChain.ProjectStatus",
              "name": "_status",
              "type": "uint8"
            },
            {
              "internalType": "string",
              "name": "_ipfsFileCID",
              "type": "string"
            },
            {
              "internalType": "address",
              "name": "_projectAddress",
              "type": "address"
            },
            {
              "internalType": "address",
              "name": "_userAddress",
              "type": "address"
            }
          ],
          "indexed": false,
          "internalType": "struct ProjectChain.Project",
          "name": "_project",
          "type": "tuple"
        },
        {
          "indexed": false,
          "internalType": "address",
          "name": "_subjectAddress",
          "type": "address"
        }
      ],
      "name": "RejectProjectRequestByCompany",
      "type": "event"
    },
    {
      "anonymous": false,
      "inputs": [
        {
          "indexed": false,
          "internalType": "string",
          "name": "_username",
          "type": "string"
        },
        {
          "indexed": false,
          "internalType": "string",
          "name": "_firstname",
          "type": "string"
        },
        {
          "indexed": false,
          "internalType": "string",
          "name": "_lastname",
          "type": "string"
        },
        {
          "indexed": false,
          "internalType": "string",
          "name": "_email",
          "type": "string"
        },
        {
          "indexed": false,
          "internalType": "enum UserChain.Roles",
          "name": "_role",
          "type": "uint8"
        },
        {
          "indexed": false,
          "internalType": "address",
          "name": "_walletAddress",
          "type": "address"
        }
      ],
      "name": "UserChanges",
      "type": "event"
    },
    {
      "anonymous": false,
      "inputs": [
        {
          "indexed": true,
          "internalType": "address",
          "name": "_walletAddress",
          "type": "address"
        },
        {
          "indexed": true,
          "internalType": "string",
          "name": "_username",
          "type": "string"
        },
        {
          "indexed": false,
          "internalType": "string",
          "name": "_email",
          "type": "string"
        },
        {
          "indexed": false,
          "internalType": "string",
          "name": "_firstname",
          "type": "string"
        },
        {
          "indexed": false,
          "internalType": "string",
          "name": "_lastname",
          "type": "string"
        },
        {
          "indexed": true,
          "internalType": "enum UserChain.Roles",
          "name": "_role",
          "type": "uint8"
        }
      ],
      "name": "UserRegistered",
      "type": "event"
    },
    {
      "inputs": [
        {
          "internalType": "uint256",
          "name": "",
          "type": "uint256"
        }
      ],
      "name": "allCompanyRequests",
      "outputs": [
        {
          "internalType": "uint256",
          "name": "index",
          "type": "uint256"
        },
        {
          "internalType": "string",
          "name": "description",
          "type": "string"
        },
        {
          "internalType": "enum ProjectChain.RequestStatus",
          "name": "status",
          "type": "uint8"
        },
        {
          "internalType": "enum ProjectChain.ProjectStatus",
          "name": "projectStatus",
          "type": "uint8"
        },
        {
          "internalType": "address",
          "name": "projectAddress",
          "type": "address"
        },
        {
          "internalType": "address",
          "name": "_userAddress",
          "type": "address"
        }
      ],
      "stateMutability": "view",
      "type": "function"
    },
    {
      "inputs": [
        {
          "internalType": "uint256",
          "name": "",
          "type": "uint256"
        }
      ],
      "name": "allProjectRequests",
      "outputs": [
        {
          "internalType": "uint256",
          "name": "_index",
          "type": "uint256"
        },
        {
          "internalType": "string",
          "name": "_title",
          "type": "string"
        },
        {
          "internalType": "string",
          "name": "_description",
          "type": "string"
        },
        {
          "internalType": "string",
          "name": "_comments",
          "type": "string"
        },
        {
          "internalType": "enum ProjectChain.ProjectStatus",
          "name": "_status",
          "type": "uint8"
        },
        {
          "internalType": "enum ProjectChain.RequestStatus",
          "name": "_requestStatus",
          "type": "uint8"
        },
        {
          "internalType": "address",
          "name": "_projectAddress",
          "type": "address"
        },
        {
          "internalType": "address",
          "name": "_userAddress",
          "type": "address"
        }
      ],
      "stateMutability": "view",
      "type": "function"
    },
    {
      "inputs": [
        {
          "internalType": "uint256",
          "name": "",
          "type": "uint256"
        }
      ],
      "name": "allProjects",
      "outputs": [
        {
          "internalType": "uint256",
          "name": "_index",
          "type": "uint256"
        },
        {
          "internalType": "string",
          "name": "_name",
          "type": "string"
        },
        {
          "internalType": "string",
          "name": "_description",
          "type": "string"
        },
        {
          "internalType": "enum ProjectChain.ProjectStatus",
          "name": "_status",
          "type": "uint8"
        },
        {
          "internalType": "string",
          "name": "_ipfsFileCID",
          "type": "string"
        },
        {
          "internalType": "address",
          "name": "_projectAddress",
          "type": "address"
        },
        {
          "internalType": "address",
          "name": "_userAddress",
          "type": "address"
        }
      ],
      "stateMutability": "view",
      "type": "function"
    },
    {
      "inputs": [
        {
          "internalType": "uint256",
          "name": "",
          "type": "uint256"
        }
      ],
      "name": "allSupervisorRequests",
      "outputs": [
        {
          "internalType": "uint256",
          "name": "index",
          "type": "uint256"
        },
        {
          "internalType": "string",
          "name": "description",
          "type": "string"
        },
        {
          "internalType": "enum ProjectChain.RequestStatus",
          "name": "status",
          "type": "uint8"
        },
        {
          "internalType": "enum ProjectChain.ProjectStatus",
          "name": "projectStatus",
          "type": "uint8"
        },
        {
          "internalType": "address",
          "name": "projectAddress",
          "type": "address"
        },
        {
          "internalType": "address",
          "name": "_userAddress",
          "type": "address"
        }
      ],
      "stateMutability": "view",
      "type": "function"
    },
    {
      "inputs": [
        {
          "internalType": "uint256",
          "name": "",
          "type": "uint256"
        }
      ],
      "name": "allUsers",
      "outputs": [
        {
          "internalType": "uint256",
          "name": "_index",
          "type": "uint256"
        },
        {
          "internalType": "string",
          "name": "_username",
          "type": "string"
        },
        {
          "internalType": "string",
          "name": "_email",
          "type": "string"
        },
        {
          "internalType": "string",
          "name": "_firstname",
          "type": "string"
        },
        {
          "internalType": "string",
          "name": "_lastname",
          "type": "string"
        },
        {
          "internalType": "enum UserChain.Roles",
          "name": "_role",
          "type": "uint8"
        },
        {
          "internalType": "address",
          "name": "_walletAddress",
          "type": "address"
        }
      ],
      "stateMutability": "view",
      "type": "function"
    },
    {
      "inputs": [
        {
          "internalType": "uint256",
          "name": "_role",
          "type": "uint256"
        },
        {
          "internalType": "address",
          "name": "_walletAddress",
          "type": "address"
        }
      ],
      "name": "changeUserRole",
      "outputs": [],
      "stateMutability": "nonpayable",
      "type": "function"
    },
    {
      "inputs": [
        {
          "internalType": "uint256",
          "name": "",
          "type": "uint256"
        }
      ],
      "name": "companyRequests",
      "outputs": [
        {
          "internalType": "uint256",
          "name": "index",
          "type": "uint256"
        },
        {
          "internalType": "string",
          "name": "description",
          "type": "string"
        },
        {
          "internalType": "enum ProjectChain.RequestStatus",
          "name": "status",
          "type": "uint8"
        },
        {
          "internalType": "enum ProjectChain.ProjectStatus",
          "name": "projectStatus",
          "type": "uint8"
        },
        {
          "internalType": "address",
          "name": "projectAddress",
          "type": "address"
        },
        {
          "internalType": "address",
          "name": "_userAddress",
          "type": "address"
        }
      ],
      "stateMutability": "view",
      "type": "function"
    },
    {
      "inputs": [
        {
          "internalType": "string",
          "name": "_name",
          "type": "string"
        },
        {
          "internalType": "string",
          "name": "_description",
          "type": "string"
        },
        {
          "internalType": "uint256",
          "name": "_status",
          "type": "uint256"
        },
        {
          "internalType": "string",
          "name": "_ipfsFileCID",
          "type": "string"
        }
      ],
      "name": "createProject",
      "outputs": [],
      "stateMutability": "nonpayable",
      "type": "function"
    },
    {
      "inputs": [
        {
          "internalType": "string",
          "name": "_title",
          "type": "string"
        },
        {
          "internalType": "string",
          "name": "_description",
          "type": "string"
        },
        {
          "internalType": "enum ProjectChain.ProjectStatus",
          "name": "_status",
          "type": "uint8"
        },
        {
          "internalType": "enum ProjectChain.RequestStatus",
          "name": "_requestStatus",
          "type": "uint8"
        },
        {
          "internalType": "address",
          "name": "_projectAddress",
          "type": "address"
        }
      ],
      "name": "createProjectRequest",
      "outputs": [],
      "stateMutability": "nonpayable",
      "type": "function"
    },
    {
      "inputs": [
        {
          "internalType": "string",
          "name": "_text",
          "type": "string"
        },
        {
          "internalType": "uint256",
          "name": "_index",
          "type": "uint256"
        }
      ],
      "name": "createUniqueHexAddress",
      "outputs": [
        {
          "internalType": "address",
          "name": "",
          "type": "address"
        }
      ],
      "stateMutability": "view",
      "type": "function"
    },
    {
      "inputs": [],
      "name": "getAllProjectRequests",
      "outputs": [
        {
          "components": [
            {
              "internalType": "uint256",
              "name": "_index",
              "type": "uint256"
            },
            {
              "internalType": "string",
              "name": "_title",
              "type": "string"
            },
            {
              "internalType": "string",
              "name": "_description",
              "type": "string"
            },
            {
              "internalType": "string",
              "name": "_comments",
              "type": "string"
            },
            {
              "internalType": "enum ProjectChain.ProjectStatus",
              "name": "_status",
              "type": "uint8"
            },
            {
              "internalType": "enum ProjectChain.RequestStatus",
              "name": "_requestStatus",
              "type": "uint8"
            },
            {
              "internalType": "address",
              "name": "_projectAddress",
              "type": "address"
            },
            {
              "internalType": "address",
              "name": "_userAddress",
              "type": "address"
            }
          ],
          "internalType": "struct ProjectChain.ProjectRequest[]",
          "name": "",
          "type": "tuple[]"
        }
      ],
      "stateMutability": "view",
      "type": "function"
    },
    {
      "inputs": [],
      "name": "getAllProjects",
      "outputs": [
        {
          "components": [
            {
              "internalType": "uint256",
              "name": "_index",
              "type": "uint256"
            },
            {
              "internalType": "string",
              "name": "_name",
              "type": "string"
            },
            {
              "internalType": "string",
              "name": "_description",
              "type": "string"
            },
            {
              "internalType": "enum ProjectChain.ProjectStatus",
              "name": "_status",
              "type": "uint8"
            },
            {
              "internalType": "string",
              "name": "_ipfsFileCID",
              "type": "string"
            },
            {
              "internalType": "address",
              "name": "_projectAddress",
              "type": "address"
            },
            {
              "internalType": "address",
              "name": "_userAddress",
              "type": "address"
            }
          ],
          "internalType": "struct ProjectChain.Project[]",
          "name": "",
          "type": "tuple[]"
        }
      ],
      "stateMutability": "view",
      "type": "function"
    },
    {
      "inputs": [],
      "name": "getAllUsers",
      "outputs": [
        {
          "components": [
            {
              "internalType": "uint256",
              "name": "_index",
              "type": "uint256"
            },
            {
              "internalType": "string",
              "name": "_username",
              "type": "string"
            },
            {
              "internalType": "string",
              "name": "_email",
              "type": "string"
            },
            {
              "internalType": "string",
              "name": "_firstname",
              "type": "string"
            },
            {
              "internalType": "string",
              "name": "_lastname",
              "type": "string"
            },
            {
              "internalType": "enum UserChain.Roles",
              "name": "_role",
              "type": "uint8"
            },
            {
              "internalType": "address",
              "name": "_walletAddress",
              "type": "address"
            }
          ],
          "internalType": "struct UserChain.User[]",
          "name": "",
          "type": "tuple[]"
        }
      ],
      "stateMutability": "view",
      "type": "function"
    },
    {
      "inputs": [
        {
          "internalType": "address",
          "name": "_address",
          "type": "address"
        }
      ],
      "name": "getProjectInfo",
      "outputs": [
        {
          "components": [
            {
              "internalType": "uint256",
              "name": "_index",
              "type": "uint256"
            },
            {
              "internalType": "string",
              "name": "_name",
              "type": "string"
            },
            {
              "internalType": "string",
              "name": "_description",
              "type": "string"
            },
            {
              "internalType": "enum ProjectChain.ProjectStatus",
              "name": "_status",
              "type": "uint8"
            },
            {
              "internalType": "string",
              "name": "_ipfsFileCID",
              "type": "string"
            },
            {
              "internalType": "address",
              "name": "_projectAddress",
              "type": "address"
            },
            {
              "internalType": "address",
              "name": "_userAddress",
              "type": "address"
            }
          ],
          "internalType": "struct ProjectChain.Project",
          "name": "",
          "type": "tuple"
        }
      ],
      "stateMutability": "view",
      "type": "function"
    },
    {
      "inputs": [
        {
          "internalType": "address",
          "name": "_walletAddress",
          "type": "address"
        }
      ],
      "name": "getUserInfo",
      "outputs": [
        {
          "components": [
            {
              "internalType": "uint256",
              "name": "_index",
              "type": "uint256"
            },
            {
              "internalType": "string",
              "name": "_username",
              "type": "string"
            },
            {
              "internalType": "string",
              "name": "_email",
              "type": "string"
            },
            {
              "internalType": "string",
              "name": "_firstname",
              "type": "string"
            },
            {
              "internalType": "string",
              "name": "_lastname",
              "type": "string"
            },
            {
              "internalType": "enum UserChain.Roles",
              "name": "_role",
              "type": "uint8"
            },
            {
              "internalType": "address",
              "name": "_walletAddress",
              "type": "address"
            }
          ],
          "internalType": "struct UserChain.User",
          "name": "",
          "type": "tuple"
        }
      ],
      "stateMutability": "view",
      "type": "function"
    },
    {
      "inputs": [],
      "name": "owner",
      "outputs": [
        {
          "internalType": "address",
          "name": "",
          "type": "address"
        }
      ],
      "stateMutability": "view",
      "type": "function"
    },
    {
      "inputs": [
        {
          "internalType": "address",
          "name": "",
          "type": "address"
        }
      ],
      "name": "projectRequests",
      "outputs": [
        {
          "internalType": "uint256",
          "name": "_index",
          "type": "uint256"
        },
        {
          "internalType": "string",
          "name": "_title",
          "type": "string"
        },
        {
          "internalType": "string",
          "name": "_description",
          "type": "string"
        },
        {
          "internalType": "string",
          "name": "_comments",
          "type": "string"
        },
        {
          "internalType": "enum ProjectChain.ProjectStatus",
          "name": "_status",
          "type": "uint8"
        },
        {
          "internalType": "enum ProjectChain.RequestStatus",
          "name": "_requestStatus",
          "type": "uint8"
        },
        {
          "internalType": "address",
          "name": "_projectAddress",
          "type": "address"
        },
        {
          "internalType": "address",
          "name": "_userAddress",
          "type": "address"
        }
      ],
      "stateMutability": "view",
      "type": "function"
    },
    {
      "inputs": [],
      "name": "projectRequestsCounter",
      "outputs": [
        {
          "internalType": "uint256",
          "name": "",
          "type": "uint256"
        }
      ],
      "stateMutability": "view",
      "type": "function"
    },
    {
      "inputs": [
        {
          "internalType": "address",
          "name": "",
          "type": "address"
        }
      ],
      "name": "projects",
      "outputs": [
        {
          "internalType": "uint256",
          "name": "_index",
          "type": "uint256"
        },
        {
          "internalType": "string",
          "name": "_name",
          "type": "string"
        },
        {
          "internalType": "string",
          "name": "_description",
          "type": "string"
        },
        {
          "internalType": "enum ProjectChain.ProjectStatus",
          "name": "_status",
          "type": "uint8"
        },
        {
          "internalType": "string",
          "name": "_ipfsFileCID",
          "type": "string"
        },
        {
          "internalType": "address",
          "name": "_projectAddress",
          "type": "address"
        },
        {
          "internalType": "address",
          "name": "_userAddress",
          "type": "address"
        }
      ],
      "stateMutability": "view",
      "type": "function"
    },
    {
      "inputs": [],
      "name": "projectsCounter",
      "outputs": [
        {
          "internalType": "uint256",
          "name": "",
          "type": "uint256"
        }
      ],
      "stateMutability": "view",
      "type": "function"
    },
    {
      "inputs": [
        {
          "internalType": "string",
          "name": "_username",
          "type": "string"
        },
        {
          "internalType": "string",
          "name": "_email",
          "type": "string"
        },
        {
          "internalType": "string",
          "name": "_firstname",
          "type": "string"
        },
        {
          "internalType": "string",
          "name": "_lastname",
          "type": "string"
        },
        {
          "internalType": "uint256",
          "name": "_role",
          "type": "uint256"
        },
        {
          "internalType": "address",
          "name": "_walletAddress",
          "type": "address"
        }
      ],
      "name": "registerUser",
      "outputs": [],
      "stateMutability": "nonpayable",
      "type": "function"
    },
    {
      "inputs": [],
      "name": "requestsCompanyCounter",
      "outputs": [
        {
          "internalType": "uint256",
          "name": "",
          "type": "uint256"
        }
      ],
      "stateMutability": "view",
      "type": "function"
    },
    {
      "inputs": [
        {
          "internalType": "address",
          "name": "",
          "type": "address"
        }
      ],
      "name": "requestsForCompany",
      "outputs": [
        {
          "internalType": "uint256",
          "name": "index",
          "type": "uint256"
        },
        {
          "internalType": "string",
          "name": "description",
          "type": "string"
        },
        {
          "internalType": "enum ProjectChain.RequestStatus",
          "name": "status",
          "type": "uint8"
        },
        {
          "internalType": "enum ProjectChain.ProjectStatus",
          "name": "projectStatus",
          "type": "uint8"
        },
        {
          "internalType": "address",
          "name": "projectAddress",
          "type": "address"
        },
        {
          "internalType": "address",
          "name": "_userAddress",
          "type": "address"
        }
      ],
      "stateMutability": "view",
      "type": "function"
    },
    {
      "inputs": [
        {
          "internalType": "address",
          "name": "",
          "type": "address"
        }
      ],
      "name": "requestsForSupervisor",
      "outputs": [
        {
          "internalType": "uint256",
          "name": "index",
          "type": "uint256"
        },
        {
          "internalType": "string",
          "name": "description",
          "type": "string"
        },
        {
          "internalType": "enum ProjectChain.RequestStatus",
          "name": "status",
          "type": "uint8"
        },
        {
          "internalType": "enum ProjectChain.ProjectStatus",
          "name": "projectStatus",
          "type": "uint8"
        },
        {
          "internalType": "address",
          "name": "projectAddress",
          "type": "address"
        },
        {
          "internalType": "address",
          "name": "_userAddress",
          "type": "address"
        }
      ],
      "stateMutability": "view",
      "type": "function"
    },
    {
      "inputs": [],
      "name": "requestsSupervisorCounter",
      "outputs": [
        {
          "internalType": "uint256",
          "name": "",
          "type": "uint256"
        }
      ],
      "stateMutability": "view",
      "type": "function"
    },
    {
      "inputs": [
        {
          "internalType": "uint256",
          "name": "",
          "type": "uint256"
        }
      ],
      "name": "supervisorRequests",
      "outputs": [
        {
          "internalType": "uint256",
          "name": "index",
          "type": "uint256"
        },
        {
          "internalType": "string",
          "name": "description",
          "type": "string"
        },
        {
          "internalType": "enum ProjectChain.RequestStatus",
          "name": "status",
          "type": "uint8"
        },
        {
          "internalType": "enum ProjectChain.ProjectStatus",
          "name": "projectStatus",
          "type": "uint8"
        },
        {
          "internalType": "address",
          "name": "projectAddress",
          "type": "address"
        },
        {
          "internalType": "address",
          "name": "_userAddress",
          "type": "address"
        }
      ],
      "stateMutability": "view",
      "type": "function"
    },
    {
      "inputs": [
        {
          "internalType": "address",
          "name": "",
          "type": "address"
        }
      ],
      "name": "users",
      "outputs": [
        {
          "internalType": "uint256",
          "name": "_index",
          "type": "uint256"
        },
        {
          "internalType": "string",
          "name": "_username",
          "type": "string"
        },
        {
          "internalType": "string",
          "name": "_email",
          "type": "string"
        },
        {
          "internalType": "string",
          "name": "_firstname",
          "type": "string"
        },
        {
          "internalType": "string",
          "name": "_lastname",
          "type": "string"
        },
        {
          "internalType": "enum UserChain.Roles",
          "name": "_role",
          "type": "uint8"
        },
        {
          "internalType": "address",
          "name": "_walletAddress",
          "type": "address"
        }
      ],
      "stateMutability": "view",
      "type": "function"
    },
    {
      "inputs": [],
      "name": "usersCounter",
      "outputs": [
        {
          "internalType": "uint256",
          "name": "",
          "type": "uint256"
        }
      ],
      "stateMutability": "view",
      "type": "function"
    }
  ],
  "bytecode": "0x60806040526000600355600060065560006009556000600c556000600f5534801561002957600080fd5b50336000806101000a81548173ffffffffffffffffffffffffffffffffffffffff021916908373ffffffffffffffffffffffffffffffffffffffff16021790555033600460006101000a81548173ffffffffffffffffffffffffffffffffffffffff021916908373ffffffffffffffffffffffffffffffffffffffff16021790555033601360006101000a81548173ffffffffffffffffffffffffffffffffffffffff021916908373ffffffffffffffffffffffffffffffffffffffff1602179055506153ac806100fb6000396000f3fe608060405234801561001057600080fd5b50600436106101c45760003560e01c806391009786116100f9578063c43dff5311610097578063d67b1b9911610071578063d67b1b99146105cc578063e2842d79146105ea578063f9cf864914610608578063fe360ea51461063d576101c4565b8063c43dff5314610544578063cc1ee4db14610579578063d40d4a8014610597576101c4565b8063a5aef997116100d3578063a5aef9971461049f578063a87430ba146104d4578063af21684f1461050a578063b664bb2514610528576101c4565b80639100978614610431578063911c29a61461044d578063a2bdedf414610469576101c4565b806380d03829116101665780638a5ec651116101405780638a5ec6511461038b5780638c86a1d7146103c05780638da5cb5b146103f55780638e2661bb14610413576101c4565b806380d0382914610307578063840e78fd1461032557806384afb5bb1461035b576101c4565b806353b3194c116101a257806353b3194c146102335780636386c1c71461026957806363c163c4146102995780637e571188146102d0576101c4565b8063400003db146101c957806346575714146101e757806347ee45b914610203575b600080fd5b6101d161065b565b6040516101de91906142bd565b60405180910390f35b61020160048036038101906101fc9190614454565b61099d565b005b61021d6004803603810190610218919061453b565b610f5b565b60405161022a9190614612565b60405180910390f35b61024d60048036038101906102489190614634565b61125b565b60405161026097969594939291906146d8565b60405180910390f35b610283600480360381019061027e919061453b565b611492565b6040516102909190614855565b60405180910390f35b6102b360048036038101906102ae919061453b565b6117ce565b6040516102c7989796959493929190614886565b60405180910390f35b6102ea60048036038101906102e59190614634565b611a08565b6040516102fe989796959493929190614886565b60405180910390f35b61030f611c52565b60405161031c9190614a85565b60405180910390f35b61033f600480360381019061033a919061453b565b611f58565b60405161035297969594939291906146d8565b60405180910390f35b61037560048036038101906103709190614aa7565b61217f565b6040516103829190614b03565b60405180910390f35b6103a560048036038101906103a0919061453b565b6121d9565b6040516103b796959493929190614b1e565b60405180910390f35b6103da60048036038101906103d59190614634565b6122f7565b6040516103ec96959493929190614b1e565b60405180910390f35b6103fd612415565b60405161040a9190614b03565b60405180910390f35b61041b612439565b6040516104289190614b86565b60405180910390f35b61044b60048036038101906104469190614ba1565b61243f565b005b61046760048036038101906104629190614be1565b612566565b005b610483600480360381019061047e9190614634565b612ad4565b6040516104969796959493929190614ced565b60405180910390f35b6104b960048036038101906104b4919061453b565b612d73565b6040516104cb96959493929190614b1e565b60405180910390f35b6104ee60048036038101906104e9919061453b565b612e91565b6040516105019796959493929190614ced565b60405180910390f35b610512613120565b60405161051f9190614b86565b60405180910390f35b610542600480360381019061053d9190614dc2565b613126565b005b61055e60048036038101906105599190614634565b61373a565b60405161057096959493929190614b1e565b60405180910390f35b610581613868565b60405161058e9190614b86565b60405180910390f35b6105b160048036038101906105ac9190614634565b61386e565b6040516105c396959493929190614b1e565b60405180910390f35b6105d461398c565b6040516105e19190614b86565b60405180910390f35b6105f2613992565b6040516105ff9190614fe8565b60405180910390f35b610622600480360381019061061d9190614634565b613cd4565b60405161063496959493929190614b1e565b60405180910390f35b610645613e02565b6040516106529190614b86565b60405180910390f35b6060600a805480602002602001604051908101604052809291908181526020016000905b82821015610994578382906000526020600020906006020160405180610100016040529081600082015481526020016001820180546106bd90615039565b80601f01602080910402602001604051908101604052809291908181526020018280546106e990615039565b80156107365780601f1061070b57610100808354040283529160200191610736565b820191906000526020600020905b81548152906001019060200180831161071957829003601f168201915b5050505050815260200160028201805461074f90615039565b80601f016020809104026020016040519081016040528092919081815260200182805461077b90615039565b80156107c85780601f1061079d576101008083540402835291602001916107c8565b820191906000526020600020905b8154815290600101906020018083116107ab57829003601f168201915b505050505081526020016003820180546107e190615039565b80601f016020809104026020016040519081016040528092919081815260200182805461080d90615039565b801561085a5780601f1061082f5761010080835404028352916020019161085a565b820191906000526020600020905b81548152906001019060200180831161083d57829003601f168201915b505050505081526020016004820160009054906101000a900460ff16600481111561088857610887614069565b5b600481111561089a57610899614069565b5b81526020016004820160019054906101000a900460ff1660028111156108c3576108c2614069565b5b60028111156108d5576108d4614069565b5b81526020016004820160029054906101000a900473ffffffffffffffffffffffffffffffffffffffff1673ffffffffffffffffffffffffffffffffffffffff1673ffffffffffffffffffffffffffffffffffffffff1681526020016005820160009054906101000a900473ffffffffffffffffffffffffffffffffffffffff1673ffffffffffffffffffffffffffffffffffffffff1673ffffffffffffffffffffffffffffffffffffffff16815250508152602001906001019061067f565b50505050905090565b60006109e06040518060400160405280601a81526020017f6373643f534073616c61733b646c413233345f442e3b735f617300000000000081525060065461217f565b9050600654600560008373ffffffffffffffffffffffffffffffffffffffff1673ffffffffffffffffffffffffffffffffffffffff1681526020019081526020016000206000018190555084600560008373ffffffffffffffffffffffffffffffffffffffff1673ffffffffffffffffffffffffffffffffffffffff1681526020019081526020016000206001019080519060200190610a81929190613e08565b5083600560008373ffffffffffffffffffffffffffffffffffffffff1673ffffffffffffffffffffffffffffffffffffffff1681526020019081526020016000206002019080519060200190610ad8929190613e08565b50826004811115610aec57610aeb614069565b5b600560008373ffffffffffffffffffffffffffffffffffffffff1673ffffffffffffffffffffffffffffffffffffffff16815260200190815260200160002060030160006101000a81548160ff02191690836004811115610b5057610b4f614069565b5b021790555081600560008373ffffffffffffffffffffffffffffffffffffffff1673ffffffffffffffffffffffffffffffffffffffff1681526020019081526020016000206004019080519060200190610bab929190613e08565b5080600560008373ffffffffffffffffffffffffffffffffffffffff1673ffffffffffffffffffffffffffffffffffffffff16815260200190815260200160002060050160006101000a81548173ffffffffffffffffffffffffffffffffffffffff021916908373ffffffffffffffffffffffffffffffffffffffff160217905550600460009054906101000a900473ffffffffffffffffffffffffffffffffffffffff16600560008373ffffffffffffffffffffffffffffffffffffffff1673ffffffffffffffffffffffffffffffffffffffff16815260200190815260200160002060060160006101000a81548173ffffffffffffffffffffffffffffffffffffffff021916908373ffffffffffffffffffffffffffffffffffffffff1602179055507f26dcd90797c08da6e2f8f632e15a194aa091dfdbda0db17125d4ab5bece391d56006548686866004811115610d0957610d08614069565b5b8686600460009054906101000a900473ffffffffffffffffffffffffffffffffffffffff16604051610d4197969594939291906146d8565b60405180910390a160076040518060e001604052806006548152602001878152602001868152602001856004811115610d7d57610d7c614069565b5b6004811115610d8f57610d8e614069565b5b81526020018481526020018373ffffffffffffffffffffffffffffffffffffffff168152602001600460009054906101000a900473ffffffffffffffffffffffffffffffffffffffff1673ffffffffffffffffffffffffffffffffffffffff168152509080600181540180825580915050600190039060005260206000209060070201600090919091909150600082015181600001556020820151816001019080519060200190610e41929190613e08565b506040820151816002019080519060200190610e5e929190613e08565b5060608201518160030160006101000a81548160ff02191690836004811115610e8a57610e89614069565b5b02179055506080820151816004019080519060200190610eab929190613e08565b5060a08201518160050160006101000a81548173ffffffffffffffffffffffffffffffffffffffff021916908373ffffffffffffffffffffffffffffffffffffffff16021790555060c08201518160060160006101000a81548173ffffffffffffffffffffffffffffffffffffffff021916908373ffffffffffffffffffffffffffffffffffffffff160217905550505060066000815480929190610f4f9061509a565b91905055505050505050565b610f63613e8e565b600560008373ffffffffffffffffffffffffffffffffffffffff1673ffffffffffffffffffffffffffffffffffffffff1681526020019081526020016000206040518060e001604052908160008201548152602001600182018054610fc790615039565b80601f0160208091040260200160405190810160405280929190818152602001828054610ff390615039565b80156110405780601f1061101557610100808354040283529160200191611040565b820191906000526020600020905b81548152906001019060200180831161102357829003601f168201915b5050505050815260200160028201805461105990615039565b80601f016020809104026020016040519081016040528092919081815260200182805461108590615039565b80156110d25780601f106110a7576101008083540402835291602001916110d2565b820191906000526020600020905b8154815290600101906020018083116110b557829003601f168201915b505050505081526020016003820160009054906101000a900460ff166004811115611100576110ff614069565b5b600481111561111257611111614069565b5b815260200160048201805461112690615039565b80601f016020809104026020016040519081016040528092919081815260200182805461115290615039565b801561119f5780601f106111745761010080835404028352916020019161119f565b820191906000526020600020905b81548152906001019060200180831161118257829003601f168201915b505050505081526020016005820160009054906101000a900473ffffffffffffffffffffffffffffffffffffffff1673ffffffffffffffffffffffffffffffffffffffff1673ffffffffffffffffffffffffffffffffffffffff1681526020016006820160009054906101000a900473ffffffffffffffffffffffffffffffffffffffff1673ffffffffffffffffffffffffffffffffffffffff1673ffffffffffffffffffffffffffffffffffffffff16815250509050919050565b6007818154811061126b57600080fd5b906000526020600020906007020160009150905080600001549080600101805461129490615039565b80601f01602080910402602001604051908101604052809291908181526020018280546112c090615039565b801561130d5780601f106112e25761010080835404028352916020019161130d565b820191906000526020600020905b8154815290600101906020018083116112f057829003601f168201915b50505050509080600201805461132290615039565b80601f016020809104026020016040519081016040528092919081815260200182805461134e90615039565b801561139b5780601f106113705761010080835404028352916020019161139b565b820191906000526020600020905b81548152906001019060200180831161137e57829003601f168201915b5050505050908060030160009054906101000a900460ff16908060040180546113c390615039565b80601f01602080910402602001604051908101604052809291908181526020018280546113ef90615039565b801561143c5780601f106114115761010080835404028352916020019161143c565b820191906000526020600020905b81548152906001019060200180831161141f57829003601f168201915b5050505050908060050160009054906101000a900473ffffffffffffffffffffffffffffffffffffffff16908060060160009054906101000a900473ffffffffffffffffffffffffffffffffffffffff16905087565b61149a613f09565b600160008373ffffffffffffffffffffffffffffffffffffffff1673ffffffffffffffffffffffffffffffffffffffff1681526020019081526020016000206040518060e0016040529081600082015481526020016001820180546114fe90615039565b80601f016020809104026020016040519081016040528092919081815260200182805461152a90615039565b80156115775780601f1061154c57610100808354040283529160200191611577565b820191906000526020600020905b81548152906001019060200180831161155a57829003601f168201915b5050505050815260200160028201805461159090615039565b80601f01602080910402602001604051908101604052809291908181526020018280546115bc90615039565b80156116095780601f106115de57610100808354040283529160200191611609565b820191906000526020600020905b8154815290600101906020018083116115ec57829003601f168201915b5050505050815260200160038201805461162290615039565b80601f016020809104026020016040519081016040528092919081815260200182805461164e90615039565b801561169b5780601f106116705761010080835404028352916020019161169b565b820191906000526020600020905b81548152906001019060200180831161167e57829003601f168201915b505050505081526020016004820180546116b490615039565b80601f01602080910402602001604051908101604052809291908181526020018280546116e090615039565b801561172d5780601f106117025761010080835404028352916020019161172d565b820191906000526020600020905b81548152906001019060200180831161171057829003601f168201915b505050505081526020016005820160009054906101000a900460ff16600381111561175b5761175a614069565b5b600381111561176d5761176c614069565b5b81526020016005820160019054906101000a900473ffffffffffffffffffffffffffffffffffffffff1673ffffffffffffffffffffffffffffffffffffffff1673ffffffffffffffffffffffffffffffffffffffff16815250509050919050565b60086020528060005260406000206000915090508060000154908060010180546117f790615039565b80601f016020809104026020016040519081016040528092919081815260200182805461182390615039565b80156118705780601f1061184557610100808354040283529160200191611870565b820191906000526020600020905b81548152906001019060200180831161185357829003601f168201915b50505050509080600201805461188590615039565b80601f01602080910402602001604051908101604052809291908181526020018280546118b190615039565b80156118fe5780601f106118d3576101008083540402835291602001916118fe565b820191906000526020600020905b8154815290600101906020018083116118e157829003601f168201915b50505050509080600301805461191390615039565b80601f016020809104026020016040519081016040528092919081815260200182805461193f90615039565b801561198c5780601f106119615761010080835404028352916020019161198c565b820191906000526020600020905b81548152906001019060200180831161196f57829003601f168201915b5050505050908060040160009054906101000a900460ff16908060040160019054906101000a900460ff16908060040160029054906101000a900473ffffffffffffffffffffffffffffffffffffffff16908060050160009054906101000a900473ffffffffffffffffffffffffffffffffffffffff16905088565b600a8181548110611a1857600080fd5b9060005260206000209060060201600091509050806000015490806001018054611a4190615039565b80601f0160208091040260200160405190810160405280929190818152602001828054611a6d90615039565b8015611aba5780601f10611a8f57610100808354040283529160200191611aba565b820191906000526020600020905b815481529060010190602001808311611a9d57829003601f168201915b505050505090806002018054611acf90615039565b80601f0160208091040260200160405190810160405280929190818152602001828054611afb90615039565b8015611b485780601f10611b1d57610100808354040283529160200191611b48565b820191906000526020600020905b815481529060010190602001808311611b2b57829003601f168201915b505050505090806003018054611b5d90615039565b80601f0160208091040260200160405190810160405280929190818152602001828054611b8990615039565b8015611bd65780601f10611bab57610100808354040283529160200191611bd6565b820191906000526020600020905b815481529060010190602001808311611bb957829003601f168201915b5050505050908060040160009054906101000a900460ff16908060040160019054906101000a900460ff16908060040160029054906101000a900473ffffffffffffffffffffffffffffffffffffffff16908060050160009054906101000a900473ffffffffffffffffffffffffffffffffffffffff16905088565b60606007805480602002602001604051908101604052809291908181526020016000905b82821015611f4f57838290600052602060002090600702016040518060e001604052908160008201548152602001600182018054611cb390615039565b80601f0160208091040260200160405190810160405280929190818152602001828054611cdf90615039565b8015611d2c5780601f10611d0157610100808354040283529160200191611d2c565b820191906000526020600020905b815481529060010190602001808311611d0f57829003601f168201915b50505050508152602001600282018054611d4590615039565b80601f0160208091040260200160405190810160405280929190818152602001828054611d7190615039565b8015611dbe5780601f10611d9357610100808354040283529160200191611dbe565b820191906000526020600020905b815481529060010190602001808311611da157829003601f168201915b505050505081526020016003820160009054906101000a900460ff166004811115611dec57611deb614069565b5b6004811115611dfe57611dfd614069565b5b8152602001600482018054611e1290615039565b80601f0160208091040260200160405190810160405280929190818152602001828054611e3e90615039565b8015611e8b5780601f10611e6057610100808354040283529160200191611e8b565b820191906000526020600020905b815481529060010190602001808311611e6e57829003601f168201915b505050505081526020016005820160009054906101000a900473ffffffffffffffffffffffffffffffffffffffff1673ffffffffffffffffffffffffffffffffffffffff1673ffffffffffffffffffffffffffffffffffffffff1681526020016006820160009054906101000a900473ffffffffffffffffffffffffffffffffffffffff1673ffffffffffffffffffffffffffffffffffffffff1673ffffffffffffffffffffffffffffffffffffffff168152505081526020019060010190611c76565b50505050905090565b6005602052806000526040600020600091509050806000015490806001018054611f8190615039565b80601f0160208091040260200160405190810160405280929190818152602001828054611fad90615039565b8015611ffa5780601f10611fcf57610100808354040283529160200191611ffa565b820191906000526020600020905b815481529060010190602001808311611fdd57829003601f168201915b50505050509080600201805461200f90615039565b80601f016020809104026020016040519081016040528092919081815260200182805461203b90615039565b80156120885780601f1061205d57610100808354040283529160200191612088565b820191906000526020600020905b81548152906001019060200180831161206b57829003601f168201915b5050505050908060030160009054906101000a900460ff16908060040180546120b090615039565b80601f01602080910402602001604051908101604052809291908181526020018280546120dc90615039565b80156121295780601f106120fe57610100808354040283529160200191612129565b820191906000526020600020905b81548152906001019060200180831161210c57829003601f168201915b5050505050908060050160009054906101000a900473ffffffffffffffffffffffffffffffffffffffff16908060060160009054906101000a900473ffffffffffffffffffffffffffffffffffffffff16905087565b600082600460009054906101000a900473ffffffffffffffffffffffffffffffffffffffff16836040516020016121b893929190615188565b6040516020818303038152906040528051906020012060001c905092915050565b600b60205280600052604060002060009150905080600001549080600101805461220290615039565b80601f016020809104026020016040519081016040528092919081815260200182805461222e90615039565b801561227b5780601f106122505761010080835404028352916020019161227b565b820191906000526020600020905b81548152906001019060200180831161225e57829003601f168201915b5050505050908060020160009054906101000a900460ff16908060020160019054906101000a900460ff16908060020160029054906101000a900473ffffffffffffffffffffffffffffffffffffffff16908060030160009054906101000a900473ffffffffffffffffffffffffffffffffffffffff16905086565b601260205280600052604060002060009150905080600001549080600101805461232090615039565b80601f016020809104026020016040519081016040528092919081815260200182805461234c90615039565b80156123995780601f1061236e57610100808354040283529160200191612399565b820191906000526020600020905b81548152906001019060200180831161237c57829003601f168201915b5050505050908060020160009054906101000a900460ff16908060020160019054906101000a900460ff16908060020160029054906101000a900473ffffffffffffffffffffffffffffffffffffffff16908060030160009054906101000a900473ffffffffffffffffffffffffffffffffffffffff16905086565b60008054906101000a900473ffffffffffffffffffffffffffffffffffffffff1681565b600c5481565b81600381111561245257612451614069565b5b600160008373ffffffffffffffffffffffffffffffffffffffff1673ffffffffffffffffffffffffffffffffffffffff16815260200190815260200160002060050160006101000a81548160ff021916908360038111156124b6576124b5614069565b5b02179055506000600160008373ffffffffffffffffffffffffffffffffffffffff1673ffffffffffffffffffffffffffffffffffffffff16815260200190815260200160002060000154905082600381111561251557612514614069565b5b60028281548110612529576125286151c1565b5b906000526020600020906006020160050160006101000a81548160ff0219169083600381111561255c5761255b614069565b5b0217905550505050565b3373ffffffffffffffffffffffffffffffffffffffff1660008054906101000a900473ffffffffffffffffffffffffffffffffffffffff1673ffffffffffffffffffffffffffffffffffffffff16146125f4576040517f08c379a00000000000000000000000000000000000000000000000000000000081526004016125eb9061523c565b60405180910390fd5b600354600160008373ffffffffffffffffffffffffffffffffffffffff1673ffffffffffffffffffffffffffffffffffffffff1681526020019081526020016000206000018190555085600160008373ffffffffffffffffffffffffffffffffffffffff1673ffffffffffffffffffffffffffffffffffffffff1681526020019081526020016000206001019080519060200190612693929190613e08565b5084600160008373ffffffffffffffffffffffffffffffffffffffff1673ffffffffffffffffffffffffffffffffffffffff16815260200190815260200160002060020190805190602001906126ea929190613e08565b5083600160008373ffffffffffffffffffffffffffffffffffffffff1673ffffffffffffffffffffffffffffffffffffffff1681526020019081526020016000206003019080519060200190612741929190613e08565b5082600160008373ffffffffffffffffffffffffffffffffffffffff1673ffffffffffffffffffffffffffffffffffffffff1681526020019081526020016000206004019080519060200190612798929190613e08565b508160038111156127ac576127ab614069565b5b600160008373ffffffffffffffffffffffffffffffffffffffff1673ffffffffffffffffffffffffffffffffffffffff16815260200190815260200160002060050160006101000a81548160ff021916908360038111156128105761280f614069565b5b021790555080600160008373ffffffffffffffffffffffffffffffffffffffff1673ffffffffffffffffffffffffffffffffffffffff16815260200190815260200160002060050160016101000a81548173ffffffffffffffffffffffffffffffffffffffff021916908373ffffffffffffffffffffffffffffffffffffffff1602179055508160038111156128a9576128a8614069565b5b60038111156128bb576128ba614069565b5b866040516128c9919061525c565b60405180910390208273ffffffffffffffffffffffffffffffffffffffff167fddb5d1667467713eb503e7e133811c91a231cb6b63f11930889c6004f36c35ee88888860405161291b93929190615273565b60405180910390a460026040518060e00160405280600354815260200188815260200187815260200186815260200185815260200184600381111561296357612962614069565b5b600381111561297557612974614069565b5b81526020018373ffffffffffffffffffffffffffffffffffffffff1681525090806001815401808255809150506001900390600052602060002090600602016000909190919091506000820151816000015560208201518160010190805190602001906129e3929190613e08565b506040820151816002019080519060200190612a00929190613e08565b506060820151816003019080519060200190612a1d929190613e08565b506080820151816004019080519060200190612a3a929190613e08565b5060a08201518160050160006101000a81548160ff02191690836003811115612a6657612a65614069565b5b021790555060c08201518160050160016101000a81548173ffffffffffffffffffffffffffffffffffffffff021916908373ffffffffffffffffffffffffffffffffffffffff160217905550505060036000815480929190612ac79061509a565b9190505550505050505050565b60028181548110612ae457600080fd5b9060005260206000209060060201600091509050806000015490806001018054612b0d90615039565b80601f0160208091040260200160405190810160405280929190818152602001828054612b3990615039565b8015612b865780601f10612b5b57610100808354040283529160200191612b86565b820191906000526020600020905b815481529060010190602001808311612b6957829003601f168201915b505050505090806002018054612b9b90615039565b80601f0160208091040260200160405190810160405280929190818152602001828054612bc790615039565b8015612c145780601f10612be957610100808354040283529160200191612c14565b820191906000526020600020905b815481529060010190602001808311612bf757829003601f168201915b505050505090806003018054612c2990615039565b80601f0160208091040260200160405190810160405280929190818152602001828054612c5590615039565b8015612ca25780601f10612c7757610100808354040283529160200191612ca2565b820191906000526020600020905b815481529060010190602001808311612c8557829003601f168201915b505050505090806004018054612cb790615039565b80601f0160208091040260200160405190810160405280929190818152602001828054612ce390615039565b8015612d305780601f10612d0557610100808354040283529160200191612d30565b820191906000526020600020905b815481529060010190602001808311612d1357829003601f168201915b5050505050908060050160009054906101000a900460ff16908060050160019054906101000a900473ffffffffffffffffffffffffffffffffffffffff16905087565b600e602052806000526040600020600091509050806000015490806001018054612d9c90615039565b80601f0160208091040260200160405190810160405280929190818152602001828054612dc890615039565b8015612e155780601f10612dea57610100808354040283529160200191612e15565b820191906000526020600020905b815481529060010190602001808311612df857829003601f168201915b5050505050908060020160009054906101000a900460ff16908060020160019054906101000a900460ff16908060020160029054906101000a900473ffffffffffffffffffffffffffffffffffffffff16908060030160009054906101000a900473ffffffffffffffffffffffffffffffffffffffff16905086565b6001602052806000526040600020600091509050806000015490806001018054612eba90615039565b80601f0160208091040260200160405190810160405280929190818152602001828054612ee690615039565b8015612f335780601f10612f0857610100808354040283529160200191612f33565b820191906000526020600020905b815481529060010190602001808311612f1657829003601f168201915b505050505090806002018054612f4890615039565b80601f0160208091040260200160405190810160405280929190818152602001828054612f7490615039565b8015612fc15780601f10612f9657610100808354040283529160200191612fc1565b820191906000526020600020905b815481529060010190602001808311612fa457829003601f168201915b505050505090806003018054612fd690615039565b80601f016020809104026020016040519081016040528092919081815260200182805461300290615039565b801561304f5780601f106130245761010080835404028352916020019161304f565b820191906000526020600020905b81548152906001019060200180831161303257829003601f168201915b50505050509080600401805461306490615039565b80601f016020809104026020016040519081016040528092919081815260200182805461309090615039565b80156130dd5780601f106130b2576101008083540402835291602001916130dd565b820191906000526020600020905b8154815290600101906020018083116130c057829003601f168201915b5050505050908060050160009054906101000a900460ff16908060050160019054906101000a900473ffffffffffffffffffffffffffffffffffffffff16905087565b600f5481565b600954600860008373ffffffffffffffffffffffffffffffffffffffff1673ffffffffffffffffffffffffffffffffffffffff1681526020019081526020016000206000018190555084600860008373ffffffffffffffffffffffffffffffffffffffff1673ffffffffffffffffffffffffffffffffffffffff16815260200190815260200160002060010190805190602001906131c5929190613e08565b5083600860008373ffffffffffffffffffffffffffffffffffffffff1673ffffffffffffffffffffffffffffffffffffffff168152602001908152602001600020600201908051906020019061321c929190613e08565b5060405180602001604052806000815250600860008373ffffffffffffffffffffffffffffffffffffffff1673ffffffffffffffffffffffffffffffffffffffff1681526020019081526020016000206003019080519060200190613282929190613e08565b5082600860008373ffffffffffffffffffffffffffffffffffffffff1673ffffffffffffffffffffffffffffffffffffffff16815260200190815260200160002060040160006101000a81548160ff021916908360048111156132e8576132e7614069565b5b021790555081600860008373ffffffffffffffffffffffffffffffffffffffff1673ffffffffffffffffffffffffffffffffffffffff16815260200190815260200160002060040160016101000a81548160ff0219169083600281111561335257613351614069565b5b021790555080600860008373ffffffffffffffffffffffffffffffffffffffff1673ffffffffffffffffffffffffffffffffffffffff16815260200190815260200160002060040160026101000a81548173ffffffffffffffffffffffffffffffffffffffff021916908373ffffffffffffffffffffffffffffffffffffffff160217905550600460009054906101000a900473ffffffffffffffffffffffffffffffffffffffff16600860008373ffffffffffffffffffffffffffffffffffffffff1673ffffffffffffffffffffffffffffffffffffffff16815260200190815260200160002060050160006101000a81548173ffffffffffffffffffffffffffffffffffffffff021916908373ffffffffffffffffffffffffffffffffffffffff1602179055507f1e6759037abd29f5a329863e8d1eb53427efcbc5c8fd3c8091384640fc3392956009548686868686600460009054906101000a900473ffffffffffffffffffffffffffffffffffffffff166040516134da97969594939291906152e5565b60405180910390a1600a604051806101000160405280600954815260200187815260200186815260200160405180602001604052806000815250815260200185600481111561352c5761352b614069565b5b815260200184600281111561354457613543614069565b5b81526020018373ffffffffffffffffffffffffffffffffffffffff168152602001600460009054906101000a900473ffffffffffffffffffffffffffffffffffffffff1673ffffffffffffffffffffffffffffffffffffffff1681525090806001815401808255809150506001900390600052602060002090600602016000909190919091506000820151816000015560208201518160010190805190602001906135f0929190613e08565b50604082015181600201908051906020019061360d929190613e08565b50606082015181600301908051906020019061362a929190613e08565b5060808201518160040160006101000a81548160ff0219169083600481111561365657613655614069565b5b021790555060a08201518160040160016101000a81548160ff0219169083600281111561368657613685614069565b5b021790555060c08201518160040160026101000a81548173ffffffffffffffffffffffffffffffffffffffff021916908373ffffffffffffffffffffffffffffffffffffffff16021790555060e08201518160050160006101000a81548173ffffffffffffffffffffffffffffffffffffffff021916908373ffffffffffffffffffffffffffffffffffffffff16021790555050506009600081548092919061372e9061509a565b91905055505050505050565b600d818154811061374a57600080fd5b906000526020600020906004020160009150905080600001549080600101805461377390615039565b80601f016020809104026020016040519081016040528092919081815260200182805461379f90615039565b80156137ec5780601f106137c1576101008083540402835291602001916137ec565b820191906000526020600020905b8154815290600101906020018083116137cf57829003601f168201915b5050505050908060020160009054906101000a900460ff16908060020160019054906101000a900460ff16908060020160029054906101000a900473ffffffffffffffffffffffffffffffffffffffff16908060030160009054906101000a900473ffffffffffffffffffffffffffffffffffffffff16905086565b60095481565b601160205280600052604060002060009150905080600001549080600101805461389790615039565b80601f01602080910402602001604051908101604052809291908181526020018280546138c390615039565b80156139105780601f106138e557610100808354040283529160200191613910565b820191906000526020600020905b8154815290600101906020018083116138f357829003601f168201915b5050505050908060020160009054906101000a900460ff16908060020160019054906101000a900460ff16908060020160029054906101000a900473ffffffffffffffffffffffffffffffffffffffff16908060030160009054906101000a900473ffffffffffffffffffffffffffffffffffffffff16905086565b60035481565b60606002805480602002602001604051908101604052809291908181526020016000905b82821015613ccb57838290600052602060002090600602016040518060e0016040529081600082015481526020016001820180546139f390615039565b80601f0160208091040260200160405190810160405280929190818152602001828054613a1f90615039565b8015613a6c5780601f10613a4157610100808354040283529160200191613a6c565b820191906000526020600020905b815481529060010190602001808311613a4f57829003601f168201915b50505050508152602001600282018054613a8590615039565b80601f0160208091040260200160405190810160405280929190818152602001828054613ab190615039565b8015613afe5780601f10613ad357610100808354040283529160200191613afe565b820191906000526020600020905b815481529060010190602001808311613ae157829003601f168201915b50505050508152602001600382018054613b1790615039565b80601f0160208091040260200160405190810160405280929190818152602001828054613b4390615039565b8015613b905780601f10613b6557610100808354040283529160200191613b90565b820191906000526020600020905b815481529060010190602001808311613b7357829003601f168201915b50505050508152602001600482018054613ba990615039565b80601f0160208091040260200160405190810160405280929190818152602001828054613bd590615039565b8015613c225780601f10613bf757610100808354040283529160200191613c22565b820191906000526020600020905b815481529060010190602001808311613c0557829003601f168201915b505050505081526020016005820160009054906101000a900460ff166003811115613c5057613c4f614069565b5b6003811115613c6257613c61614069565b5b81526020016005820160019054906101000a900473ffffffffffffffffffffffffffffffffffffffff1673ffffffffffffffffffffffffffffffffffffffff1673ffffffffffffffffffffffffffffffffffffffff1681525050815260200190600101906139b6565b50505050905090565b60108181548110613ce457600080fd5b9060005260206000209060040201600091509050806000015490806001018054613d0d90615039565b80601f0160208091040260200160405190810160405280929190818152602001828054613d3990615039565b8015613d865780601f10613d5b57610100808354040283529160200191613d86565b820191906000526020600020905b815481529060010190602001808311613d6957829003601f168201915b5050505050908060020160009054906101000a900460ff16908060020160019054906101000a900460ff16908060020160029054906101000a900473ffffffffffffffffffffffffffffffffffffffff16908060030160009054906101000a900473ffffffffffffffffffffffffffffffffffffffff16905086565b60065481565b828054613e1490615039565b90600052602060002090601f016020900481019282613e365760008555613e7d565b82601f10613e4f57805160ff1916838001178555613e7d565b82800160010185558215613e7d579182015b82811115613e7c578251825591602001919060010190613e61565b5b509050613e8a9190613f6e565b5090565b6040518060e0016040528060008152602001606081526020016060815260200160006004811115613ec257613ec1614069565b5b815260200160608152602001600073ffffffffffffffffffffffffffffffffffffffff168152602001600073ffffffffffffffffffffffffffffffffffffffff1681525090565b6040518060e00160405280600081526020016060815260200160608152602001606081526020016060815260200160006003811115613f4b57613f4a614069565b5b8152602001600073ffffffffffffffffffffffffffffffffffffffff1681525090565b5b80821115613f87576000816000905550600101613f6f565b5090565b600081519050919050565b600082825260208201905092915050565b6000819050602082019050919050565b6000819050919050565b613fca81613fb7565b82525050565b600081519050919050565b600082825260208201905092915050565b60005b8381101561400a578082015181840152602081019050613fef565b83811115614019576000848401525b50505050565b6000601f19601f8301169050919050565b600061403b82613fd0565b6140458185613fdb565b9350614055818560208601613fec565b61405e8161401f565b840191505092915050565b7f4e487b7100000000000000000000000000000000000000000000000000000000600052602160045260246000fd5b600581106140a9576140a8614069565b5b50565b60008190506140ba82614098565b919050565b60006140ca826140ac565b9050919050565b6140da816140bf565b82525050565b600381106140f1576140f0614069565b5b50565b6000819050614102826140e0565b919050565b6000614112826140f4565b9050919050565b61412281614107565b82525050565b600073ffffffffffffffffffffffffffffffffffffffff82169050919050565b600061415382614128565b9050919050565b61416381614148565b82525050565b6000610100830160008301516141826000860182613fc1565b506020830151848203602086015261419a8282614030565b915050604083015184820360408601526141b48282614030565b915050606083015184820360608601526141ce8282614030565b91505060808301516141e360808601826140d1565b5060a08301516141f660a0860182614119565b5060c083015161420960c086018261415a565b5060e083015161421c60e086018261415a565b508091505092915050565b60006142338383614169565b905092915050565b6000602082019050919050565b600061425382613f8b565b61425d8185613f96565b93508360208202850161426f85613fa7565b8060005b858110156142ab578484038952815161428c8582614227565b94506142978361423b565b925060208a01995050600181019050614273565b50829750879550505050505092915050565b600060208201905081810360008301526142d78184614248565b905092915050565b6000604051905090565b600080fd5b600080fd5b600080fd5b600080fd5b7f4e487b7100000000000000000000000000000000000000000000000000000000600052604160045260246000fd5b6143358261401f565b810181811067ffffffffffffffff82111715614354576143536142fd565b5b80604052505050565b60006143676142df565b9050614373828261432c565b919050565b600067ffffffffffffffff821115614393576143926142fd565b5b61439c8261401f565b9050602081019050919050565b82818337600083830152505050565b60006143cb6143c684614378565b61435d565b9050828152602081018484840111156143e7576143e66142f8565b5b6143f28482856143a9565b509392505050565b600082601f83011261440f5761440e6142f3565b5b813561441f8482602086016143b8565b91505092915050565b61443181613fb7565b811461443c57600080fd5b50565b60008135905061444e81614428565b92915050565b6000806000806080858703121561446e5761446d6142e9565b5b600085013567ffffffffffffffff81111561448c5761448b6142ee565b5b614498878288016143fa565b945050602085013567ffffffffffffffff8111156144b9576144b86142ee565b5b6144c5878288016143fa565b93505060406144d68782880161443f565b925050606085013567ffffffffffffffff8111156144f7576144f66142ee565b5b614503878288016143fa565b91505092959194509250565b61451881614148565b811461452357600080fd5b50565b6000813590506145358161450f565b92915050565b600060208284031215614551576145506142e9565b5b600061455f84828501614526565b91505092915050565b600060e0830160008301516145806000860182613fc1565b50602083015184820360208601526145988282614030565b915050604083015184820360408601526145b28282614030565b91505060608301516145c760608601826140d1565b50608083015184820360808601526145df8282614030565b91505060a08301516145f460a086018261415a565b5060c083015161460760c086018261415a565b508091505092915050565b6000602082019050818103600083015261462c8184614568565b905092915050565b60006020828403121561464a576146496142e9565b5b60006146588482850161443f565b91505092915050565b61466a81613fb7565b82525050565b600082825260208201905092915050565b600061468c82613fd0565b6146968185614670565b93506146a6818560208601613fec565b6146af8161401f565b840191505092915050565b6146c3816140bf565b82525050565b6146d281614148565b82525050565b600060e0820190506146ed600083018a614661565b81810360208301526146ff8189614681565b905081810360408301526147138188614681565b905061472260608301876146ba565b81810360808301526147348186614681565b905061474360a08301856146c9565b61475060c08301846146c9565b98975050505050505050565b6004811061476d5761476c614069565b5b50565b600081905061477e8261475c565b919050565b600061478e82614770565b9050919050565b61479e81614783565b82525050565b600060e0830160008301516147bc6000860182613fc1565b50602083015184820360208601526147d48282614030565b915050604083015184820360408601526147ee8282614030565b915050606083015184820360608601526148088282614030565b915050608083015184820360808601526148228282614030565b91505060a083015161483760a0860182614795565b5060c083015161484a60c086018261415a565b508091505092915050565b6000602082019050818103600083015261486f81846147a4565b905092915050565b61488081614107565b82525050565b60006101008201905061489c600083018b614661565b81810360208301526148ae818a614681565b905081810360408301526148c28189614681565b905081810360608301526148d68188614681565b90506148e560808301876146ba565b6148f260a0830186614877565b6148ff60c08301856146c9565b61490c60e08301846146c9565b9998505050505050505050565b600081519050919050565b600082825260208201905092915050565b6000819050602082019050919050565b600060e08301600083015161495d6000860182613fc1565b50602083015184820360208601526149758282614030565b9150506040830151848203604086015261498f8282614030565b91505060608301516149a460608601826140d1565b50608083015184820360808601526149bc8282614030565b91505060a08301516149d160a086018261415a565b5060c08301516149e460c086018261415a565b508091505092915050565b60006149fb8383614945565b905092915050565b6000602082019050919050565b6000614a1b82614919565b614a258185614924565b935083602082028501614a3785614935565b8060005b85811015614a735784840389528151614a5485826149ef565b9450614a5f83614a03565b925060208a01995050600181019050614a3b565b50829750879550505050505092915050565b60006020820190508181036000830152614a9f8184614a10565b905092915050565b60008060408385031215614abe57614abd6142e9565b5b600083013567ffffffffffffffff811115614adc57614adb6142ee565b5b614ae8858286016143fa565b9250506020614af98582860161443f565b9150509250929050565b6000602082019050614b1860008301846146c9565b92915050565b600060c082019050614b336000830189614661565b8181036020830152614b458188614681565b9050614b546040830187614877565b614b6160608301866146ba565b614b6e60808301856146c9565b614b7b60a08301846146c9565b979650505050505050565b6000602082019050614b9b6000830184614661565b92915050565b60008060408385031215614bb857614bb76142e9565b5b6000614bc68582860161443f565b9250506020614bd785828601614526565b9150509250929050565b60008060008060008060c08789031215614bfe57614bfd6142e9565b5b600087013567ffffffffffffffff811115614c1c57614c1b6142ee565b5b614c2889828a016143fa565b965050602087013567ffffffffffffffff811115614c4957614c486142ee565b5b614c5589828a016143fa565b955050604087013567ffffffffffffffff811115614c7657614c756142ee565b5b614c8289828a016143fa565b945050606087013567ffffffffffffffff811115614ca357614ca26142ee565b5b614caf89828a016143fa565b9350506080614cc089828a0161443f565b92505060a0614cd189828a01614526565b9150509295509295509295565b614ce781614783565b82525050565b600060e082019050614d02600083018a614661565b8181036020830152614d148189614681565b90508181036040830152614d288188614681565b90508181036060830152614d3c8187614681565b90508181036080830152614d508186614681565b9050614d5f60a0830185614cde565b614d6c60c08301846146c9565b98975050505050505050565b60058110614d8557600080fd5b50565b600081359050614d9781614d78565b92915050565b60038110614daa57600080fd5b50565b600081359050614dbc81614d9d565b92915050565b600080600080600060a08688031215614dde57614ddd6142e9565b5b600086013567ffffffffffffffff811115614dfc57614dfb6142ee565b5b614e08888289016143fa565b955050602086013567ffffffffffffffff811115614e2957614e286142ee565b5b614e35888289016143fa565b9450506040614e4688828901614d88565b9350506060614e5788828901614dad565b9250506080614e6888828901614526565b9150509295509295909350565b600081519050919050565b600082825260208201905092915050565b6000819050602082019050919050565b600060e083016000830151614eb96000860182613fc1565b5060208301518482036020860152614ed18282614030565b91505060408301518482036040860152614eeb8282614030565b91505060608301518482036060860152614f058282614030565b91505060808301518482036080860152614f1f8282614030565b91505060a0830151614f3460a0860182614795565b5060c0830151614f4760c086018261415a565b508091505092915050565b6000614f5e8383614ea1565b905092915050565b6000602082019050919050565b6000614f7e82614e75565b614f888185614e80565b935083602082028501614f9a85614e91565b8060005b85811015614fd65784840389528151614fb78582614f52565b9450614fc283614f66565b925060208a01995050600181019050614f9e565b50829750879550505050505092915050565b600060208201905081810360008301526150028184614f73565b905092915050565b7f4e487b7100000000000000000000000000000000000000000000000000000000600052602260045260246000fd5b6000600282049050600182168061505157607f821691505b602082108114156150655761506461500a565b5b50919050565b7f4e487b7100000000000000000000000000000000000000000000000000000000600052601160045260246000fd5b60006150a582613fb7565b91507fffffffffffffffffffffffffffffffffffffffffffffffffffffffffffffffff8214156150d8576150d761506b565b5b600182019050919050565b600081905092915050565b60006150f982613fd0565b61510381856150e3565b9350615113818560208601613fec565b80840191505092915050565b60008160601b9050919050565b60006151378261511f565b9050919050565b60006151498261512c565b9050919050565b61516161515c82614148565b61513e565b82525050565b6000819050919050565b61518261517d82613fb7565b615167565b82525050565b600061519482866150ee565b91506151a08285615150565b6014820191506151b08284615171565b602082019150819050949350505050565b7f4e487b7100000000000000000000000000000000000000000000000000000000600052603260045260246000fd5b7f596f7520617265206e6f7420616e206f776e6572000000000000000000000000600082015250565b6000615226601483614670565b9150615231826151f0565b602082019050919050565b6000602082019050818103600083015261525581615219565b9050919050565b600061526882846150ee565b915081905092915050565b6000606082019050818103600083015261528d8186614681565b905081810360208301526152a18185614681565b905081810360408301526152b58184614681565b9050949350505050565b50565b60006152cf600083614670565b91506152da826152bf565b600082019050919050565b6000610100820190506152fb600083018a614661565b818103602083015261530d8189614681565b905081810360408301526153218188614681565b90508181036060830152615334816152c2565b905061534360808301876146ba565b61535060a0830186614877565b61535d60c08301856146c9565b61536a60e08301846146c9565b9897505050505050505056fea2646970667358221220e68d846949c6bb95f7a590e096ea12c295f1f30679787e838d117e5889f460d764736f6c634300080a0033",
  "immutableReferences": {},
  "source": "// SPDX-License-Identifier: MIT\r\npragma solidity >=0.8.0 <0.9.0;\r\n\r\nimport \"./ProjectChain.sol\";\r\n\r\ncontract CompanyChain is ProjectChain {\r\n\r\n    address _companyAddress;\r\n\r\n    event ApproveProjectRequestByCompany(ProjectStatus _status, Project _project, address _subjectAddress);\r\n    event RejectProjectRequestByCompany(string _description, ProjectStatus _status, Project _project, address _subjectAddress);\r\n    event BeforeFinalizationProjectRequestByCompany(ProjectStatus _status, Project _project, address _subjectAddress);\r\n\r\n    constructor() {\r\n        _companyAddress = msg.sender;\r\n    }\r\n\r\n    modifier onlyCompany {\r\n        require(_companyAddress == msg.sender, \"You are not a company builder\");\r\n        _;\r\n    }\r\n\r\n    // Add some contrainst / verification TOOO DOOO -> LATER\r\n\r\n/*\r\n    function setProjectRequestToOnGoingStatus(Project memory _project) public onlyCompany {\r\n        _project._status = ProjectStatus.OnGoing;\r\n        emit ApproveProjectRequestByCompany(ProjectStatus.OnGoing, _project, _companyAddress);\r\n    }\r\n\r\n    function setProjectRequestToRejectStatus(string memory _description, Project memory _project) public onlyCompany {\r\n        _project._status = ProjectStatus.Rejected;\r\n        emit RejectProjectRequestByCompany(_description, ProjectStatus.Rejected, _project, _companyAddress);\r\n    }\r\n\r\n    function setProjectRequestToBeforeFinalizationStatus(Project memory _project)  public onlyCompany {\r\n        _project._status = ProjectStatus.FinalizationCheck;\r\n        emit BeforeFinalizationProjectRequestByCompany(ProjectStatus.FinalizationCheck, _project, _companyAddress);\r\n    }\r\n*/\r\n\r\n}\r\n",
  "sourcePath": "/mnt/c/users/beniamin/source/repos/dissertationproject/contracts/CompanyChain.sol",
  "compiler": {
    "name": "solc",
    "version": "0.8.10+commit.fc410830.Emscripten.clang"
  },
  "schemaVersion": "3.4.3",
  "updatedAt": "2021-11-20T17:31:18.917Z",
  "devdoc": {
    "kind": "dev",
    "methods": {},
    "version": 1
  },
  "userdoc": {
    "kind": "user",
    "methods": {},
    "version": 1
  }
}