{
  "contractName": "CompanyBuilder",
  "abi": [
    {
      "inputs": [],
      "stateMutability": "nonpayable",
      "type": "constructor"
    },
    {
      "anonymous": false,
      "inputs": [
        {
          "indexed": false,
          "internalType": "enum Project.ProjectStatus",
          "name": "_status",
          "type": "uint8"
        },
        {
          "components": [
            {
              "internalType": "uint256",
              "name": "index",
              "type": "uint256"
            },
            {
              "internalType": "string",
              "name": "name",
              "type": "string"
            },
            {
              "internalType": "string",
              "name": "description",
              "type": "string"
            },
            {
              "internalType": "enum Project.ProjectStatus",
              "name": "projectStatus",
              "type": "uint8"
            },
            {
              "internalType": "string",
              "name": "ipfsFileCID",
              "type": "string"
            }
          ],
          "indexed": false,
          "internalType": "struct Project.S_Project",
          "name": "_project",
          "type": "tuple"
        },
        {
          "indexed": false,
          "internalType": "address",
          "name": "_subjectAddress",
          "type": "address"
        }
      ],
      "name": "ApproveProjectRequestByCompany",
      "type": "event"
    },
    {
      "anonymous": false,
      "inputs": [
        {
          "indexed": false,
          "internalType": "enum Project.ProjectStatus",
          "name": "_status",
          "type": "uint8"
        },
        {
          "components": [
            {
              "internalType": "uint256",
              "name": "index",
              "type": "uint256"
            },
            {
              "internalType": "string",
              "name": "name",
              "type": "string"
            },
            {
              "internalType": "string",
              "name": "description",
              "type": "string"
            },
            {
              "internalType": "enum Project.ProjectStatus",
              "name": "projectStatus",
              "type": "uint8"
            },
            {
              "internalType": "string",
              "name": "ipfsFileCID",
              "type": "string"
            }
          ],
          "indexed": false,
          "internalType": "struct Project.S_Project",
          "name": "_project",
          "type": "tuple"
        },
        {
          "indexed": false,
          "internalType": "address",
          "name": "_subjectAddress",
          "type": "address"
        }
      ],
      "name": "BeforeFinalizationProjectRequestByCompany",
      "type": "event"
    },
    {
      "anonymous": false,
      "inputs": [
        {
          "indexed": false,
          "internalType": "string",
          "name": "_name",
          "type": "string"
        },
        {
          "indexed": false,
          "internalType": "string",
          "name": "_description",
          "type": "string"
        },
        {
          "indexed": false,
          "internalType": "enum Project.ProjectStatus",
          "name": "_status",
          "type": "uint8"
        }
      ],
      "name": "CreateProject",
      "type": "event"
    },
    {
      "anonymous": false,
      "inputs": [
        {
          "indexed": false,
          "internalType": "string",
          "name": "_description",
          "type": "string"
        },
        {
          "indexed": false,
          "internalType": "enum Project.ProjectStatus",
          "name": "_status",
          "type": "uint8"
        },
        {
          "components": [
            {
              "internalType": "uint256",
              "name": "index",
              "type": "uint256"
            },
            {
              "internalType": "string",
              "name": "name",
              "type": "string"
            },
            {
              "internalType": "string",
              "name": "description",
              "type": "string"
            },
            {
              "internalType": "enum Project.ProjectStatus",
              "name": "projectStatus",
              "type": "uint8"
            },
            {
              "internalType": "string",
              "name": "ipfsFileCID",
              "type": "string"
            }
          ],
          "indexed": false,
          "internalType": "struct Project.S_Project",
          "name": "_project",
          "type": "tuple"
        },
        {
          "indexed": false,
          "internalType": "address",
          "name": "_subjectAddress",
          "type": "address"
        }
      ],
      "name": "RejectProjectRequestByCompany",
      "type": "event"
    },
    {
      "anonymous": false,
      "inputs": [
        {
          "indexed": false,
          "internalType": "uint256",
          "name": "_indexRequest",
          "type": "uint256"
        },
        {
          "indexed": false,
          "internalType": "enum Project.RequestStatus",
          "name": "_status",
          "type": "uint8"
        },
        {
          "components": [
            {
              "internalType": "uint256",
              "name": "index",
              "type": "uint256"
            },
            {
              "internalType": "string",
              "name": "name",
              "type": "string"
            },
            {
              "internalType": "string",
              "name": "description",
              "type": "string"
            },
            {
              "internalType": "enum Project.ProjectStatus",
              "name": "projectStatus",
              "type": "uint8"
            },
            {
              "internalType": "string",
              "name": "ipfsFileCID",
              "type": "string"
            }
          ],
          "indexed": false,
          "internalType": "struct Project.S_Project",
          "name": "_project",
          "type": "tuple"
        },
        {
          "indexed": false,
          "internalType": "enum Project.ProjectStatus",
          "name": "_projectStatus",
          "type": "uint8"
        },
        {
          "indexed": false,
          "internalType": "address",
          "name": "_subjectAddress",
          "type": "address"
        }
      ],
      "name": "UpdateCompanyRequestStatus",
      "type": "event"
    },
    {
      "anonymous": false,
      "inputs": [
        {
          "indexed": false,
          "internalType": "uint256",
          "name": "_indexRequest",
          "type": "uint256"
        },
        {
          "indexed": false,
          "internalType": "enum Project.RequestStatus",
          "name": "_status",
          "type": "uint8"
        },
        {
          "components": [
            {
              "internalType": "uint256",
              "name": "index",
              "type": "uint256"
            },
            {
              "internalType": "string",
              "name": "name",
              "type": "string"
            },
            {
              "internalType": "string",
              "name": "description",
              "type": "string"
            },
            {
              "internalType": "enum Project.ProjectStatus",
              "name": "projectStatus",
              "type": "uint8"
            },
            {
              "internalType": "string",
              "name": "ipfsFileCID",
              "type": "string"
            }
          ],
          "indexed": false,
          "internalType": "struct Project.S_Project",
          "name": "_project",
          "type": "tuple"
        },
        {
          "indexed": false,
          "internalType": "enum Project.ProjectStatus",
          "name": "_projectStatus",
          "type": "uint8"
        },
        {
          "indexed": false,
          "internalType": "address",
          "name": "_subjectAddress",
          "type": "address"
        }
      ],
      "name": "UpdateSupervisorRequestStatus",
      "type": "event"
    },
    {
      "anonymous": false,
      "inputs": [
        {
          "indexed": true,
          "internalType": "address",
          "name": "_walletAddress",
          "type": "address"
        },
        {
          "indexed": true,
          "internalType": "string",
          "name": "_username",
          "type": "string"
        },
        {
          "indexed": false,
          "internalType": "string",
          "name": "_email",
          "type": "string"
        },
        {
          "indexed": false,
          "internalType": "string",
          "name": "_firstname",
          "type": "string"
        },
        {
          "indexed": false,
          "internalType": "string",
          "name": "_lastname",
          "type": "string"
        },
        {
          "indexed": true,
          "internalType": "enum User.Roles",
          "name": "_role",
          "type": "uint8"
        }
      ],
      "name": "UserRegistered",
      "type": "event"
    },
    {
      "inputs": [
        {
          "internalType": "uint256",
          "name": "",
          "type": "uint256"
        }
      ],
      "name": "allProjects",
      "outputs": [
        {
          "internalType": "uint256",
          "name": "index",
          "type": "uint256"
        },
        {
          "internalType": "string",
          "name": "name",
          "type": "string"
        },
        {
          "internalType": "string",
          "name": "description",
          "type": "string"
        },
        {
          "internalType": "enum Project.ProjectStatus",
          "name": "projectStatus",
          "type": "uint8"
        },
        {
          "internalType": "string",
          "name": "ipfsFileCID",
          "type": "string"
        }
      ],
      "stateMutability": "view",
      "type": "function"
    },
    {
      "inputs": [
        {
          "internalType": "uint256",
          "name": "_role",
          "type": "uint256"
        },
        {
          "internalType": "address",
          "name": "_walletAddress",
          "type": "address"
        }
      ],
      "name": "changeUserRole",
      "outputs": [
        {
          "internalType": "string",
          "name": "",
          "type": "string"
        }
      ],
      "stateMutability": "nonpayable",
      "type": "function"
    },
    {
      "inputs": [
        {
          "internalType": "uint256",
          "name": "",
          "type": "uint256"
        }
      ],
      "name": "companyRequests",
      "outputs": [
        {
          "internalType": "uint256",
          "name": "index",
          "type": "uint256"
        },
        {
          "internalType": "string",
          "name": "description",
          "type": "string"
        },
        {
          "internalType": "enum Project.RequestStatus",
          "name": "status",
          "type": "uint8"
        },
        {
          "components": [
            {
              "internalType": "uint256",
              "name": "index",
              "type": "uint256"
            },
            {
              "internalType": "string",
              "name": "name",
              "type": "string"
            },
            {
              "internalType": "string",
              "name": "description",
              "type": "string"
            },
            {
              "internalType": "enum Project.ProjectStatus",
              "name": "projectStatus",
              "type": "uint8"
            },
            {
              "internalType": "string",
              "name": "ipfsFileCID",
              "type": "string"
            }
          ],
          "internalType": "struct Project.S_Project",
          "name": "project",
          "type": "tuple"
        },
        {
          "internalType": "address",
          "name": "subjectAddress",
          "type": "address"
        }
      ],
      "stateMutability": "view",
      "type": "function"
    },
    {
      "inputs": [
        {
          "internalType": "string",
          "name": "_name",
          "type": "string"
        },
        {
          "internalType": "string",
          "name": "_description",
          "type": "string"
        },
        {
          "internalType": "uint256",
          "name": "_status",
          "type": "uint256"
        },
        {
          "internalType": "string",
          "name": "_ipfsFileCID",
          "type": "string"
        }
      ],
      "name": "createProject",
      "outputs": [],
      "stateMutability": "nonpayable",
      "type": "function"
    },
    {
      "inputs": [
        {
          "internalType": "string",
          "name": "_text",
          "type": "string"
        },
        {
          "internalType": "address",
          "name": "_addr",
          "type": "address"
        }
      ],
      "name": "createUniqueIdentifier",
      "outputs": [
        {
          "internalType": "bytes32",
          "name": "",
          "type": "bytes32"
        }
      ],
      "stateMutability": "pure",
      "type": "function"
    },
    {
      "inputs": [],
      "name": "getAllProjects",
      "outputs": [
        {
          "components": [
            {
              "internalType": "uint256",
              "name": "index",
              "type": "uint256"
            },
            {
              "internalType": "string",
              "name": "name",
              "type": "string"
            },
            {
              "internalType": "string",
              "name": "description",
              "type": "string"
            },
            {
              "internalType": "enum Project.ProjectStatus",
              "name": "projectStatus",
              "type": "uint8"
            },
            {
              "internalType": "string",
              "name": "ipfsFileCID",
              "type": "string"
            }
          ],
          "internalType": "struct Project.S_Project[]",
          "name": "",
          "type": "tuple[]"
        }
      ],
      "stateMutability": "view",
      "type": "function"
    },
    {
      "inputs": [],
      "name": "getProjectIds",
      "outputs": [
        {
          "internalType": "uint256[]",
          "name": "",
          "type": "uint256[]"
        }
      ],
      "stateMutability": "view",
      "type": "function"
    },
    {
      "inputs": [
        {
          "internalType": "uint256",
          "name": "_index",
          "type": "uint256"
        }
      ],
      "name": "getProjectInfo",
      "outputs": [
        {
          "components": [
            {
              "internalType": "uint256",
              "name": "index",
              "type": "uint256"
            },
            {
              "internalType": "string",
              "name": "name",
              "type": "string"
            },
            {
              "internalType": "string",
              "name": "description",
              "type": "string"
            },
            {
              "internalType": "enum Project.ProjectStatus",
              "name": "projectStatus",
              "type": "uint8"
            },
            {
              "internalType": "string",
              "name": "ipfsFileCID",
              "type": "string"
            }
          ],
          "internalType": "struct Project.S_Project",
          "name": "",
          "type": "tuple"
        }
      ],
      "stateMutability": "view",
      "type": "function"
    },
    {
      "inputs": [],
      "name": "getUserAddresses",
      "outputs": [
        {
          "internalType": "address[]",
          "name": "",
          "type": "address[]"
        }
      ],
      "stateMutability": "view",
      "type": "function"
    },
    {
      "inputs": [
        {
          "internalType": "address",
          "name": "_address",
          "type": "address"
        }
      ],
      "name": "getUserInfo",
      "outputs": [
        {
          "components": [
            {
              "internalType": "string",
              "name": "username",
              "type": "string"
            },
            {
              "internalType": "string",
              "name": "email",
              "type": "string"
            },
            {
              "internalType": "string",
              "name": "firstname",
              "type": "string"
            },
            {
              "internalType": "string",
              "name": "lastname",
              "type": "string"
            },
            {
              "internalType": "enum User.Roles",
              "name": "role",
              "type": "uint8"
            },
            {
              "internalType": "address",
              "name": "walletAddress",
              "type": "address"
            }
          ],
          "internalType": "struct User.S_UserData",
          "name": "",
          "type": "tuple"
        }
      ],
      "stateMutability": "view",
      "type": "function"
    },
    {
      "inputs": [],
      "name": "owner",
      "outputs": [
        {
          "internalType": "address",
          "name": "",
          "type": "address"
        }
      ],
      "stateMutability": "view",
      "type": "function"
    },
    {
      "inputs": [
        {
          "internalType": "uint256",
          "name": "",
          "type": "uint256"
        }
      ],
      "name": "projectIds",
      "outputs": [
        {
          "internalType": "uint256",
          "name": "",
          "type": "uint256"
        }
      ],
      "stateMutability": "view",
      "type": "function"
    },
    {
      "inputs": [
        {
          "internalType": "uint256",
          "name": "",
          "type": "uint256"
        }
      ],
      "name": "projects",
      "outputs": [
        {
          "internalType": "uint256",
          "name": "index",
          "type": "uint256"
        },
        {
          "internalType": "string",
          "name": "name",
          "type": "string"
        },
        {
          "internalType": "string",
          "name": "description",
          "type": "string"
        },
        {
          "internalType": "enum Project.ProjectStatus",
          "name": "projectStatus",
          "type": "uint8"
        },
        {
          "internalType": "string",
          "name": "ipfsFileCID",
          "type": "string"
        }
      ],
      "stateMutability": "view",
      "type": "function"
    },
    {
      "inputs": [],
      "name": "projectsCount",
      "outputs": [
        {
          "internalType": "uint256",
          "name": "",
          "type": "uint256"
        }
      ],
      "stateMutability": "view",
      "type": "function"
    },
    {
      "inputs": [
        {
          "internalType": "string",
          "name": "_username",
          "type": "string"
        },
        {
          "internalType": "string",
          "name": "_email",
          "type": "string"
        },
        {
          "internalType": "string",
          "name": "_firstname",
          "type": "string"
        },
        {
          "internalType": "string",
          "name": "_lastname",
          "type": "string"
        },
        {
          "internalType": "uint256",
          "name": "_role",
          "type": "uint256"
        },
        {
          "internalType": "address",
          "name": "_walletAddress",
          "type": "address"
        }
      ],
      "name": "registerUser",
      "outputs": [],
      "stateMutability": "nonpayable",
      "type": "function"
    },
    {
      "inputs": [
        {
          "internalType": "string",
          "name": "_description",
          "type": "string"
        },
        {
          "components": [
            {
              "internalType": "uint256",
              "name": "index",
              "type": "uint256"
            },
            {
              "internalType": "string",
              "name": "name",
              "type": "string"
            },
            {
              "internalType": "string",
              "name": "description",
              "type": "string"
            },
            {
              "internalType": "enum Project.ProjectStatus",
              "name": "projectStatus",
              "type": "uint8"
            },
            {
              "internalType": "string",
              "name": "ipfsFileCID",
              "type": "string"
            }
          ],
          "internalType": "struct Project.S_Project",
          "name": "_project",
          "type": "tuple"
        },
        {
          "internalType": "address",
          "name": "_subjectAddress",
          "type": "address"
        }
      ],
      "name": "requestProjectApprovalFromSupervisor",
      "outputs": [],
      "stateMutability": "nonpayable",
      "type": "function"
    },
    {
      "inputs": [
        {
          "internalType": "string",
          "name": "_description",
          "type": "string"
        },
        {
          "components": [
            {
              "internalType": "uint256",
              "name": "index",
              "type": "uint256"
            },
            {
              "internalType": "string",
              "name": "name",
              "type": "string"
            },
            {
              "internalType": "string",
              "name": "description",
              "type": "string"
            },
            {
              "internalType": "enum Project.ProjectStatus",
              "name": "projectStatus",
              "type": "uint8"
            },
            {
              "internalType": "string",
              "name": "ipfsFileCID",
              "type": "string"
            }
          ],
          "internalType": "struct Project.S_Project",
          "name": "_project",
          "type": "tuple"
        },
        {
          "internalType": "address",
          "name": "_subjectAddress",
          "type": "address"
        }
      ],
      "name": "requestProjectCompleteFromSupervisor",
      "outputs": [],
      "stateMutability": "nonpayable",
      "type": "function"
    },
    {
      "inputs": [
        {
          "internalType": "string",
          "name": "_description",
          "type": "string"
        },
        {
          "components": [
            {
              "internalType": "uint256",
              "name": "index",
              "type": "uint256"
            },
            {
              "internalType": "string",
              "name": "name",
              "type": "string"
            },
            {
              "internalType": "string",
              "name": "description",
              "type": "string"
            },
            {
              "internalType": "enum Project.ProjectStatus",
              "name": "projectStatus",
              "type": "uint8"
            },
            {
              "internalType": "string",
              "name": "ipfsFileCID",
              "type": "string"
            }
          ],
          "internalType": "struct Project.S_Project",
          "name": "_project",
          "type": "tuple"
        },
        {
          "internalType": "address",
          "name": "_subjectAddress",
          "type": "address"
        }
      ],
      "name": "requestStartProjectToCompanyBuilder",
      "outputs": [],
      "stateMutability": "nonpayable",
      "type": "function"
    },
    {
      "inputs": [
        {
          "internalType": "uint256",
          "name": "",
          "type": "uint256"
        }
      ],
      "name": "supervisorRequests",
      "outputs": [
        {
          "internalType": "uint256",
          "name": "index",
          "type": "uint256"
        },
        {
          "internalType": "string",
          "name": "description",
          "type": "string"
        },
        {
          "internalType": "enum Project.RequestStatus",
          "name": "status",
          "type": "uint8"
        },
        {
          "components": [
            {
              "internalType": "uint256",
              "name": "index",
              "type": "uint256"
            },
            {
              "internalType": "string",
              "name": "name",
              "type": "string"
            },
            {
              "internalType": "string",
              "name": "description",
              "type": "string"
            },
            {
              "internalType": "enum Project.ProjectStatus",
              "name": "projectStatus",
              "type": "uint8"
            },
            {
              "internalType": "string",
              "name": "ipfsFileCID",
              "type": "string"
            }
          ],
          "internalType": "struct Project.S_Project",
          "name": "project",
          "type": "tuple"
        },
        {
          "internalType": "address",
          "name": "subjectAddress",
          "type": "address"
        }
      ],
      "stateMutability": "view",
      "type": "function"
    },
    {
      "inputs": [
        {
          "internalType": "uint256",
          "name": "",
          "type": "uint256"
        }
      ],
      "name": "userAddresses",
      "outputs": [
        {
          "internalType": "address",
          "name": "",
          "type": "address"
        }
      ],
      "stateMutability": "view",
      "type": "function"
    },
    {
      "inputs": [
        {
          "internalType": "address",
          "name": "",
          "type": "address"
        }
      ],
      "name": "userInfo",
      "outputs": [
        {
          "internalType": "string",
          "name": "username",
          "type": "string"
        },
        {
          "internalType": "string",
          "name": "email",
          "type": "string"
        },
        {
          "internalType": "string",
          "name": "firstname",
          "type": "string"
        },
        {
          "internalType": "string",
          "name": "lastname",
          "type": "string"
        },
        {
          "internalType": "enum User.Roles",
          "name": "role",
          "type": "uint8"
        },
        {
          "internalType": "address",
          "name": "walletAddress",
          "type": "address"
        }
      ],
      "stateMutability": "view",
      "type": "function"
    },
    {
      "inputs": [],
      "name": "usersCount",
      "outputs": [
        {
          "internalType": "uint256",
          "name": "",
          "type": "uint256"
        }
      ],
      "stateMutability": "view",
      "type": "function"
    },
    {
      "inputs": [
        {
          "components": [
            {
              "internalType": "uint256",
              "name": "index",
              "type": "uint256"
            },
            {
              "internalType": "string",
              "name": "name",
              "type": "string"
            },
            {
              "internalType": "string",
              "name": "description",
              "type": "string"
            },
            {
              "internalType": "enum Project.ProjectStatus",
              "name": "projectStatus",
              "type": "uint8"
            },
            {
              "internalType": "string",
              "name": "ipfsFileCID",
              "type": "string"
            }
          ],
          "internalType": "struct Project.S_Project",
          "name": "_project",
          "type": "tuple"
        }
      ],
      "name": "setProjectRequestToOnGoingStatus",
      "outputs": [],
      "stateMutability": "nonpayable",
      "type": "function"
    },
    {
      "inputs": [
        {
          "internalType": "string",
          "name": "_description",
          "type": "string"
        },
        {
          "components": [
            {
              "internalType": "uint256",
              "name": "index",
              "type": "uint256"
            },
            {
              "internalType": "string",
              "name": "name",
              "type": "string"
            },
            {
              "internalType": "string",
              "name": "description",
              "type": "string"
            },
            {
              "internalType": "enum Project.ProjectStatus",
              "name": "projectStatus",
              "type": "uint8"
            },
            {
              "internalType": "string",
              "name": "ipfsFileCID",
              "type": "string"
            }
          ],
          "internalType": "struct Project.S_Project",
          "name": "_project",
          "type": "tuple"
        }
      ],
      "name": "setProjectRequestToRejectStatus",
      "outputs": [],
      "stateMutability": "nonpayable",
      "type": "function"
    },
    {
      "inputs": [
        {
          "components": [
            {
              "internalType": "uint256",
              "name": "index",
              "type": "uint256"
            },
            {
              "internalType": "string",
              "name": "name",
              "type": "string"
            },
            {
              "internalType": "string",
              "name": "description",
              "type": "string"
            },
            {
              "internalType": "enum Project.ProjectStatus",
              "name": "projectStatus",
              "type": "uint8"
            },
            {
              "internalType": "string",
              "name": "ipfsFileCID",
              "type": "string"
            }
          ],
          "internalType": "struct Project.S_Project",
          "name": "_project",
          "type": "tuple"
        }
      ],
      "name": "setProjectRequestToBeforeFinalizationStatus",
      "outputs": [],
      "stateMutability": "nonpayable",
      "type": "function"
    }
  ],
  "bytecode": "0x60806040526000600255600060085534801561001a57600080fd5b5033600160006101000a81548173ffffffffffffffffffffffffffffffffffffffff021916908373ffffffffffffffffffffffffffffffffffffffff16021790555033600460006101000a81548173ffffffffffffffffffffffffffffffffffffffff021916908373ffffffffffffffffffffffffffffffffffffffff16021790555033600d60006101000a81548173ffffffffffffffffffffffffffffffffffffffff021916908373ffffffffffffffffffffffffffffffffffffffff160217905550614325806100ed6000396000f3fe608060405234801561001057600080fd5b50600436106101735760003560e01c80636fe3d194116100de578063911c29a611610097578063c73b302e11610071578063c73b302e14610493578063cb2d3164146104b1578063d40d4a80146104cd578063fabf59681461050157610173565b8063911c29a61461043d578063953dcd2a14610459578063a591efde1461047557610173565b80636fe3d194146103655780637748587f1461038157806380d038291461039d5780638c86a1d7146103bb5780638da5cb5b146103ef578063910097861461040d57610173565b8063502c9bd511610130578063502c9bd51461026757806353b3194c146102975780636132844f146102cb5780636386c1c7146102fb5780636ba13a821461032b5780636cce6ff11461034957610173565b8063107046bd146101785780631959a002146101ac57806329a613b5146101e15780632de5f996146101ff578063465757141461021b57806348c35ad414610237575b600080fd5b610192600480360381019061018d9190612e01565b610531565b6040516101a3959493929190612f4d565b60405180910390f35b6101c660048036038101906101c19190613013565b61070c565b6040516101d896959493929190613097565b60405180910390f35b6101e9610995565b6040516101f691906131d2565b60405180910390f35b61021960048036038101906102149190613438565b6109ed565b005b61023560048036038101906102309190613481565b610b0f565b005b610251600480360381019061024c9190612e01565b610da8565b60405161025e919061353c565b60405180910390f35b610281600480360381019061027c9190612e01565b610dcc565b60405161028e9190613557565b60405180910390f35b6102b160048036038101906102ac9190612e01565b610e0b565b6040516102c2959493929190612f4d565b60405180910390f35b6102e560048036038101906102e09190613572565b610ff6565b6040516102f291906135e7565b60405180910390f35b61031560048036038101906103109190613013565b611029565b6040516103229190613708565b60405180910390f35b61033361135a565b604051610340919061353c565b60405180910390f35b610363600480360381019061035e9190613438565b611360565b005b61037f600480360381019061037a919061372a565b611482565b005b61039b6004803603810190610396919061372a565b61168c565b005b6103a5611896565b6040516103b2919061390a565b60405180910390f35b6103d560048036038101906103d09190612e01565b611af0565b6040516103e69594939291906139f8565b60405180910390f35b6103f7611de0565b6040516104049190613557565b60405180910390f35b61042760048036038101906104229190613a59565b611e06565b6040516104349190613a99565b60405180910390f35b61045760048036038101906104529190613abb565b611f51565b005b610473600480360381019061046e919061372a565b61239a565b005b61047d6125a4565b60405161048a9190613c67565b60405180910390f35b61049b612632565b6040516104a8919061353c565b60405180910390f35b6104cb60048036038101906104c69190613c89565b612638565b005b6104e760048036038101906104e29190612e01565b61275d565b6040516104f89594939291906139f8565b60405180910390f35b61051b60048036038101906105169190612e01565b612a4d565b6040516105289190613d01565b60405180910390f35b600560205280600052604060002060009150905080600001549080600101805461055a90613d52565b80601f016020809104026020016040519081016040528092919081815260200182805461058690613d52565b80156105d35780601f106105a8576101008083540402835291602001916105d3565b820191906000526020600020905b8154815290600101906020018083116105b657829003601f168201915b5050505050908060020180546105e890613d52565b80601f016020809104026020016040519081016040528092919081815260200182805461061490613d52565b80156106615780601f1061063657610100808354040283529160200191610661565b820191906000526020600020905b81548152906001019060200180831161064457829003601f168201915b5050505050908060030160009054906101000a900460ff169080600401805461068990613d52565b80601f01602080910402602001604051908101604052809291908181526020018280546106b590613d52565b80156107025780601f106106d757610100808354040283529160200191610702565b820191906000526020600020905b8154815290600101906020018083116106e557829003601f168201915b5050505050905085565b600060205280600052604060002060009150905080600001805461072f90613d52565b80601f016020809104026020016040519081016040528092919081815260200182805461075b90613d52565b80156107a85780601f1061077d576101008083540402835291602001916107a8565b820191906000526020600020905b81548152906001019060200180831161078b57829003601f168201915b5050505050908060010180546107bd90613d52565b80601f01602080910402602001604051908101604052809291908181526020018280546107e990613d52565b80156108365780601f1061080b57610100808354040283529160200191610836565b820191906000526020600020905b81548152906001019060200180831161081957829003601f168201915b50505050509080600201805461084b90613d52565b80601f016020809104026020016040519081016040528092919081815260200182805461087790613d52565b80156108c45780601f10610899576101008083540402835291602001916108c4565b820191906000526020600020905b8154815290600101906020018083116108a757829003601f168201915b5050505050908060030180546108d990613d52565b80601f016020809104026020016040519081016040528092919081815260200182805461090590613d52565b80156109525780601f1061092757610100808354040283529160200191610952565b820191906000526020600020905b81548152906001019060200180831161093557829003601f168201915b5050505050908060040160009054906101000a900460ff16908060040160019054906101000a900473ffffffffffffffffffffffffffffffffffffffff16905086565b606060098054806020026020016040519081016040528092919081815260200182805480156109e357602002820191906000526020600020905b8154815260200190600101908083116109cf575b5050505050905090565b3373ffffffffffffffffffffffffffffffffffffffff16600d60009054906101000a900473ffffffffffffffffffffffffffffffffffffffff1673ffffffffffffffffffffffffffffffffffffffff1614610a7d576040517f08c379a0000000000000000000000000000000000000000000000000000000008152600401610a7490613dd0565b60405180910390fd5b600481606001906005811115610a9657610a95612ed6565b5b90816005811115610aaa57610aa9612ed6565b5b815250507ff8bb4358ad47552bf64034c3974f8d87f4628d3d227987cfcd5b19fc7cedc6e0600482600d60009054906101000a900473ffffffffffffffffffffffffffffffffffffffff16604051610b0493929190613df0565b60405180910390a150565b60085460056000600854815260200190815260200160002060000181905550836005600060085481526020019081526020016000206001019080519060200190610b5a929190612c75565b50826005600060085481526020019081526020016000206002019080519060200190610b87929190612c75565b50816005811115610b9b57610b9a612ed6565b5b60056000600854815260200190815260200160002060030160006101000a81548160ff02191690836005811115610bd557610bd4612ed6565b5b0217905550806005600060085481526020019081526020016000206004019080519060200190610c06929190612c75565b507f274f009187cb91dd70ef9fd455c66e7263b5fc9746490cba15a3be400f580fa88484846005811115610c3d57610c3c612ed6565b5b604051610c4c93929190613e2e565b60405180910390a160096008549080600181540180825580915050600190039060005260206000200160009091909190915055600a6040518060a001604052806008548152602001868152602001858152602001846005811115610cb357610cb2612ed6565b5b6005811115610cc557610cc4612ed6565b5b8152602001838152509080600181540180825580915050600190039060005260206000209060050201600090919091909150600082015181600001556020820151816001019080519060200190610d1d929190612c75565b506040820151816002019080519060200190610d3a929190612c75565b5060608201518160030160006101000a81548160ff02191690836005811115610d6657610d65612ed6565b5b02179055506080820151816004019080519060200190610d87929190612c75565b50505060086000815480929190610d9d90613ea2565b919050555050505050565b60098181548110610db857600080fd5b906000526020600020016000915090505481565b60038181548110610ddc57600080fd5b906000526020600020016000915054906101000a900473ffffffffffffffffffffffffffffffffffffffff1681565b600a8181548110610e1b57600080fd5b9060005260206000209060050201600091509050806000015490806001018054610e4490613d52565b80601f0160208091040260200160405190810160405280929190818152602001828054610e7090613d52565b8015610ebd5780601f10610e9257610100808354040283529160200191610ebd565b820191906000526020600020905b815481529060010190602001808311610ea057829003601f168201915b505050505090806002018054610ed290613d52565b80601f0160208091040260200160405190810160405280929190818152602001828054610efe90613d52565b8015610f4b5780601f10610f2057610100808354040283529160200191610f4b565b820191906000526020600020905b815481529060010190602001808311610f2e57829003601f168201915b5050505050908060030160009054906101000a900460ff1690806004018054610f7390613d52565b80601f0160208091040260200160405190810160405280929190818152602001828054610f9f90613d52565b8015610fec5780601f10610fc157610100808354040283529160200191610fec565b820191906000526020600020905b815481529060010190602001808311610fcf57829003601f168201915b5050505050905085565b6000828260405160200161100b929190613f6f565b60405160208183030381529060405280519060200120905092915050565b611031612cfb565b6000808373ffffffffffffffffffffffffffffffffffffffff1673ffffffffffffffffffffffffffffffffffffffff1681526020019081526020016000206040518060c001604052908160008201805461108a90613d52565b80601f01602080910402602001604051908101604052809291908181526020018280546110b690613d52565b80156111035780601f106110d857610100808354040283529160200191611103565b820191906000526020600020905b8154815290600101906020018083116110e657829003601f168201915b5050505050815260200160018201805461111c90613d52565b80601f016020809104026020016040519081016040528092919081815260200182805461114890613d52565b80156111955780601f1061116a57610100808354040283529160200191611195565b820191906000526020600020905b81548152906001019060200180831161117857829003601f168201915b505050505081526020016002820180546111ae90613d52565b80601f01602080910402602001604051908101604052809291908181526020018280546111da90613d52565b80156112275780601f106111fc57610100808354040283529160200191611227565b820191906000526020600020905b81548152906001019060200180831161120a57829003601f168201915b5050505050815260200160038201805461124090613d52565b80601f016020809104026020016040519081016040528092919081815260200182805461126c90613d52565b80156112b95780601f1061128e576101008083540402835291602001916112b9565b820191906000526020600020905b81548152906001019060200180831161129c57829003601f168201915b505050505081526020016004820160009054906101000a900460ff1660038111156112e7576112e6612ed6565b5b60038111156112f9576112f8612ed6565b5b81526020016004820160019054906101000a900473ffffffffffffffffffffffffffffffffffffffff1673ffffffffffffffffffffffffffffffffffffffff1673ffffffffffffffffffffffffffffffffffffffff16815250509050919050565b60025481565b3373ffffffffffffffffffffffffffffffffffffffff16600d60009054906101000a900473ffffffffffffffffffffffffffffffffffffffff1673ffffffffffffffffffffffffffffffffffffffff16146113f0576040517f08c379a00000000000000000000000000000000000000000000000000000000081526004016113e790613dd0565b60405180910390fd5b60038160600190600581111561140957611408612ed6565b5b9081600581111561141d5761141c612ed6565b5b815250507f36bbf2c4635dd5bbc3747e4089ade2d34883ac6bd195c47bffd310a685ce6eec600382600d60009054906101000a900473ffffffffffffffffffffffffffffffffffffffff1660405161147793929190613df0565b60405180910390a150565b6004600581111561149657611495612ed6565b5b826060015160058111156114ad576114ac612ed6565b5b146114ed576040517f08c379a00000000000000000000000000000000000000000000000000000000081526004016114e49061402f565b60405180910390fd5b600060076000600c54815260200190815260200160002090508381600101908051906020019061151e929190612c75565b5060008160020160006101000a81548160ff0219169083600181111561154757611546612ed6565b5b02179055508281600301600082015181600001556020820151816001019080519060200190611577929190612c75565b506040820151816002019080519060200190611594929190612c75565b5060608201518160030160006101000a81548160ff021916908360058111156115c0576115bf612ed6565b5b021790555060808201518160040190805190602001906115e1929190612c75565b50905050818160080160006101000a81548173ffffffffffffffffffffffffffffffffffffffff021916908373ffffffffffffffffffffffffffffffffffffffff1602179055507fc0a7086e05590c8d9160aba8dc6a29b754eda15e93d2a2578429bc2fda6bdec3600c5460008586606001518660405161166695949392919061404f565b60405180910390a1600c600081548092919061168190613ea2565b919050555050505050565b600060058111156116a05761169f612ed6565b5b826060015160058111156116b7576116b6612ed6565b5b146116f7576040517f08c379a00000000000000000000000000000000000000000000000000000000081526004016116ee9061411b565b60405180910390fd5b600060076000600c548152602001908152602001600020905083816001019080519060200190611728929190612c75565b5060008160020160006101000a81548160ff0219169083600181111561175157611750612ed6565b5b02179055508281600301600082015181600001556020820151816001019080519060200190611781929190612c75565b50604082015181600201908051906020019061179e929190612c75565b5060608201518160030160006101000a81548160ff021916908360058111156117ca576117c9612ed6565b5b021790555060808201518160040190805190602001906117eb929190612c75565b50905050818160080160006101000a81548173ffffffffffffffffffffffffffffffffffffffff021916908373ffffffffffffffffffffffffffffffffffffffff1602179055507fc0a7086e05590c8d9160aba8dc6a29b754eda15e93d2a2578429bc2fda6bdec3600c5460008586606001518660405161187095949392919061404f565b60405180910390a1600c600081548092919061188b90613ea2565b919050555050505050565b6060600a805480602002602001604051908101604052809291908181526020016000905b82821015611ae757838290600052602060002090600502016040518060a0016040529081600082015481526020016001820180546118f790613d52565b80601f016020809104026020016040519081016040528092919081815260200182805461192390613d52565b80156119705780601f1061194557610100808354040283529160200191611970565b820191906000526020600020905b81548152906001019060200180831161195357829003601f168201915b5050505050815260200160028201805461198990613d52565b80601f01602080910402602001604051908101604052809291908181526020018280546119b590613d52565b8015611a025780601f106119d757610100808354040283529160200191611a02565b820191906000526020600020905b8154815290600101906020018083116119e557829003601f168201915b505050505081526020016003820160009054906101000a900460ff166005811115611a3057611a2f612ed6565b5b6005811115611a4257611a41612ed6565b5b8152602001600482018054611a5690613d52565b80601f0160208091040260200160405190810160405280929190818152602001828054611a8290613d52565b8015611acf5780601f10611aa457610100808354040283529160200191611acf565b820191906000526020600020905b815481529060010190602001808311611ab257829003601f168201915b505050505081525050815260200190600101906118ba565b50505050905090565b6007602052806000526040600020600091509050806000015490806001018054611b1990613d52565b80601f0160208091040260200160405190810160405280929190818152602001828054611b4590613d52565b8015611b925780601f10611b6757610100808354040283529160200191611b92565b820191906000526020600020905b815481529060010190602001808311611b7557829003601f168201915b5050505050908060020160009054906101000a900460ff1690806003016040518060a001604052908160008201548152602001600182018054611bd490613d52565b80601f0160208091040260200160405190810160405280929190818152602001828054611c0090613d52565b8015611c4d5780601f10611c2257610100808354040283529160200191611c4d565b820191906000526020600020905b815481529060010190602001808311611c3057829003601f168201915b50505050508152602001600282018054611c6690613d52565b80601f0160208091040260200160405190810160405280929190818152602001828054611c9290613d52565b8015611cdf5780601f10611cb457610100808354040283529160200191611cdf565b820191906000526020600020905b815481529060010190602001808311611cc257829003601f168201915b505050505081526020016003820160009054906101000a900460ff166005811115611d0d57611d0c612ed6565b5b6005811115611d1f57611d1e612ed6565b5b8152602001600482018054611d3390613d52565b80601f0160208091040260200160405190810160405280929190818152602001828054611d5f90613d52565b8015611dac5780601f10611d8157610100808354040283529160200191611dac565b820191906000526020600020905b815481529060010190602001808311611d8f57829003601f168201915b505050505081525050908060080160009054906101000a900473ffffffffffffffffffffffffffffffffffffffff16905085565b600160009054906101000a900473ffffffffffffffffffffffffffffffffffffffff1681565b60603373ffffffffffffffffffffffffffffffffffffffff16600160009054906101000a900473ffffffffffffffffffffffffffffffffffffffff1673ffffffffffffffffffffffffffffffffffffffff1614611e98576040517f08c379a0000000000000000000000000000000000000000000000000000000008152600401611e8f90614187565b60405180910390fd5b826003811115611eab57611eaa612ed6565b5b6000808473ffffffffffffffffffffffffffffffffffffffff1673ffffffffffffffffffffffffffffffffffffffff16815260200190815260200160002060040160006101000a81548160ff02191690836003811115611f0e57611f0d612ed6565b5b02179055506040518060400160405280600d81526020017f526f6c6520557064617465642100000000000000000000000000000000000000815250905092915050565b3373ffffffffffffffffffffffffffffffffffffffff16600160009054906101000a900473ffffffffffffffffffffffffffffffffffffffff1673ffffffffffffffffffffffffffffffffffffffff1614611fe1576040517f08c379a0000000000000000000000000000000000000000000000000000000008152600401611fd890614187565b60405180910390fd5b856000808373ffffffffffffffffffffffffffffffffffffffff1673ffffffffffffffffffffffffffffffffffffffff1681526020019081526020016000206000019080519060200190612036929190612c75565b50856000808373ffffffffffffffffffffffffffffffffffffffff1673ffffffffffffffffffffffffffffffffffffffff168152602001908152602001600020600001908051906020019061208c929190612c75565b50846000808373ffffffffffffffffffffffffffffffffffffffff1673ffffffffffffffffffffffffffffffffffffffff16815260200190815260200160002060010190805190602001906120e2929190612c75565b50836000808373ffffffffffffffffffffffffffffffffffffffff1673ffffffffffffffffffffffffffffffffffffffff1681526020019081526020016000206002019080519060200190612138929190612c75565b50826000808373ffffffffffffffffffffffffffffffffffffffff1673ffffffffffffffffffffffffffffffffffffffff168152602001908152602001600020600301908051906020019061218e929190612c75565b508160038111156121a2576121a1612ed6565b5b6000808373ffffffffffffffffffffffffffffffffffffffff1673ffffffffffffffffffffffffffffffffffffffff16815260200190815260200160002060040160006101000a81548160ff0219169083600381111561220557612204612ed6565b5b0217905550806000808373ffffffffffffffffffffffffffffffffffffffff1673ffffffffffffffffffffffffffffffffffffffff16815260200190815260200160002060040160016101000a81548173ffffffffffffffffffffffffffffffffffffffff021916908373ffffffffffffffffffffffffffffffffffffffff16021790555081600381111561229d5761229c612ed6565b5b60038111156122af576122ae612ed6565b5b866040516122bd91906141a7565b60405180910390208273ffffffffffffffffffffffffffffffffffffffff167fddb5d1667467713eb503e7e133811c91a231cb6b63f11930889c6004f36c35ee88888860405161230f939291906141be565b60405180910390a46003819080600181540180825580915050600190039060005260206000200160009091909190916101000a81548173ffffffffffffffffffffffffffffffffffffffff021916908373ffffffffffffffffffffffffffffffffffffffff1602179055506002600081548092919061238d90613ea2565b9190505550505050505050565b600160058111156123ae576123ad612ed6565b5b826060015160058111156123c5576123c4612ed6565b5b14612405576040517f08c379a00000000000000000000000000000000000000000000000000000000081526004016123fc9061427c565b60405180910390fd5b600060066000600b548152602001908152602001600020905083816001019080519060200190612436929190612c75565b5060008160020160006101000a81548160ff0219169083600181111561245f5761245e612ed6565b5b0217905550828160030160008201518160000155602082015181600101908051906020019061248f929190612c75565b5060408201518160020190805190602001906124ac929190612c75565b5060608201518160030160006101000a81548160ff021916908360058111156124d8576124d7612ed6565b5b021790555060808201518160040190805190602001906124f9929190612c75565b50905050818160080160006101000a81548173ffffffffffffffffffffffffffffffffffffffff021916908373ffffffffffffffffffffffffffffffffffffffff1602179055507f56cef5b605de75dde94390e0903b843a7c7203544ad094da5db5ecdafb897cb8600b5460008586606001518660405161257e95949392919061404f565b60405180910390a1600b600081548092919061259990613ea2565b919050555050505050565b6060600380548060200260200160405190810160405280929190818152602001828054801561262857602002820191906000526020600020905b8160009054906101000a900473ffffffffffffffffffffffffffffffffffffffff1673ffffffffffffffffffffffffffffffffffffffff16815260200190600101908083116125de575b5050505050905090565b60085481565b3373ffffffffffffffffffffffffffffffffffffffff16600d60009054906101000a900473ffffffffffffffffffffffffffffffffffffffff1673ffffffffffffffffffffffffffffffffffffffff16146126c8576040517f08c379a00000000000000000000000000000000000000000000000000000000081526004016126bf90613dd0565b60405180910390fd5b6002816060019060058111156126e1576126e0612ed6565b5b908160058111156126f5576126f4612ed6565b5b815250507fe3b6ce34d92d54525c86b075ac7ee860f397bf04357137b90aa44a80419a45c382600283600d60009054906101000a900473ffffffffffffffffffffffffffffffffffffffff16604051612751949392919061429c565b60405180910390a15050565b600660205280600052604060002060009150905080600001549080600101805461278690613d52565b80601f01602080910402602001604051908101604052809291908181526020018280546127b290613d52565b80156127ff5780601f106127d4576101008083540402835291602001916127ff565b820191906000526020600020905b8154815290600101906020018083116127e257829003601f168201915b5050505050908060020160009054906101000a900460ff1690806003016040518060a00160405290816000820154815260200160018201805461284190613d52565b80601f016020809104026020016040519081016040528092919081815260200182805461286d90613d52565b80156128ba5780601f1061288f576101008083540402835291602001916128ba565b820191906000526020600020905b81548152906001019060200180831161289d57829003601f168201915b505050505081526020016002820180546128d390613d52565b80601f01602080910402602001604051908101604052809291908181526020018280546128ff90613d52565b801561294c5780601f106129215761010080835404028352916020019161294c565b820191906000526020600020905b81548152906001019060200180831161292f57829003601f168201915b505050505081526020016003820160009054906101000a900460ff16600581111561297a57612979612ed6565b5b600581111561298c5761298b612ed6565b5b81526020016004820180546129a090613d52565b80601f01602080910402602001604051908101604052809291908181526020018280546129cc90613d52565b8015612a195780601f106129ee57610100808354040283529160200191612a19565b820191906000526020600020905b8154815290600101906020018083116129fc57829003601f168201915b505050505081525050908060080160009054906101000a900473ffffffffffffffffffffffffffffffffffffffff16905085565b612a55612d59565b600560008381526020019081526020016000206040518060a001604052908160008201548152602001600182018054612a8d90613d52565b80601f0160208091040260200160405190810160405280929190818152602001828054612ab990613d52565b8015612b065780601f10612adb57610100808354040283529160200191612b06565b820191906000526020600020905b815481529060010190602001808311612ae957829003601f168201915b50505050508152602001600282018054612b1f90613d52565b80601f0160208091040260200160405190810160405280929190818152602001828054612b4b90613d52565b8015612b985780601f10612b6d57610100808354040283529160200191612b98565b820191906000526020600020905b815481529060010190602001808311612b7b57829003601f168201915b505050505081526020016003820160009054906101000a900460ff166005811115612bc657612bc5612ed6565b5b6005811115612bd857612bd7612ed6565b5b8152602001600482018054612bec90613d52565b80601f0160208091040260200160405190810160405280929190818152602001828054612c1890613d52565b8015612c655780601f10612c3a57610100808354040283529160200191612c65565b820191906000526020600020905b815481529060010190602001808311612c4857829003601f168201915b5050505050815250509050919050565b828054612c8190613d52565b90600052602060002090601f016020900481019282612ca35760008555612cea565b82601f10612cbc57805160ff1916838001178555612cea565b82800160010185558215612cea579182015b82811115612ce9578251825591602001919060010190612cce565b5b509050612cf79190612d9a565b5090565b6040518060c001604052806060815260200160608152602001606081526020016060815260200160006003811115612d3657612d35612ed6565b5b8152602001600073ffffffffffffffffffffffffffffffffffffffff1681525090565b6040518060a0016040528060008152602001606081526020016060815260200160006005811115612d8d57612d8c612ed6565b5b8152602001606081525090565b5b80821115612db3576000816000905550600101612d9b565b5090565b6000604051905090565b600080fd5b600080fd5b6000819050919050565b612dde81612dcb565b8114612de957600080fd5b50565b600081359050612dfb81612dd5565b92915050565b600060208284031215612e1757612e16612dc1565b5b6000612e2584828501612dec565b91505092915050565b612e3781612dcb565b82525050565b600081519050919050565b600082825260208201905092915050565b60005b83811015612e77578082015181840152602081019050612e5c565b83811115612e86576000848401525b50505050565b6000601f19601f8301169050919050565b6000612ea882612e3d565b612eb28185612e48565b9350612ec2818560208601612e59565b612ecb81612e8c565b840191505092915050565b7f4e487b7100000000000000000000000000000000000000000000000000000000600052602160045260246000fd5b60068110612f1657612f15612ed6565b5b50565b6000819050612f2782612f05565b919050565b6000612f3782612f19565b9050919050565b612f4781612f2c565b82525050565b600060a082019050612f626000830188612e2e565b8181036020830152612f748187612e9d565b90508181036040830152612f888186612e9d565b9050612f976060830185612f3e565b8181036080830152612fa98184612e9d565b90509695505050505050565b600073ffffffffffffffffffffffffffffffffffffffff82169050919050565b6000612fe082612fb5565b9050919050565b612ff081612fd5565b8114612ffb57600080fd5b50565b60008135905061300d81612fe7565b92915050565b60006020828403121561302957613028612dc1565b5b600061303784828501612ffe565b91505092915050565b6004811061305157613050612ed6565b5b50565b600081905061306282613040565b919050565b600061307282613054565b9050919050565b61308281613067565b82525050565b61309181612fd5565b82525050565b600060c08201905081810360008301526130b18189612e9d565b905081810360208301526130c58188612e9d565b905081810360408301526130d98187612e9d565b905081810360608301526130ed8186612e9d565b90506130fc6080830185613079565b61310960a0830184613088565b979650505050505050565b600081519050919050565b600082825260208201905092915050565b6000819050602082019050919050565b61314981612dcb565b82525050565b600061315b8383613140565b60208301905092915050565b6000602082019050919050565b600061317f82613114565b613189818561311f565b935061319483613130565b8060005b838110156131c55781516131ac888261314f565b97506131b783613167565b925050600181019050613198565b5085935050505092915050565b600060208201905081810360008301526131ec8184613174565b905092915050565b600080fd5b7f4e487b7100000000000000000000000000000000000000000000000000000000600052604160045260246000fd5b61323182612e8c565b810181811067ffffffffffffffff821117156132505761324f6131f9565b5b80604052505050565b6000613263612db7565b905061326f8282613228565b919050565b600080fd5b600080fd5b600080fd5b600067ffffffffffffffff82111561329e5761329d6131f9565b5b6132a782612e8c565b9050602081019050919050565b82818337600083830152505050565b60006132d66132d184613283565b613259565b9050828152602081018484840111156132f2576132f161327e565b5b6132fd8482856132b4565b509392505050565b600082601f83011261331a57613319613279565b5b813561332a8482602086016132c3565b91505092915050565b6006811061334057600080fd5b50565b60008135905061335281613333565b92915050565b600060a0828403121561336e5761336d6131f4565b5b61337860a0613259565b9050600061338884828501612dec565b600083015250602082013567ffffffffffffffff8111156133ac576133ab613274565b5b6133b884828501613305565b602083015250604082013567ffffffffffffffff8111156133dc576133db613274565b5b6133e884828501613305565b60408301525060606133fc84828501613343565b606083015250608082013567ffffffffffffffff8111156134205761341f613274565b5b61342c84828501613305565b60808301525092915050565b60006020828403121561344e5761344d612dc1565b5b600082013567ffffffffffffffff81111561346c5761346b612dc6565b5b61347884828501613358565b91505092915050565b6000806000806080858703121561349b5761349a612dc1565b5b600085013567ffffffffffffffff8111156134b9576134b8612dc6565b5b6134c587828801613305565b945050602085013567ffffffffffffffff8111156134e6576134e5612dc6565b5b6134f287828801613305565b935050604061350387828801612dec565b925050606085013567ffffffffffffffff81111561352457613523612dc6565b5b61353087828801613305565b91505092959194509250565b60006020820190506135516000830184612e2e565b92915050565b600060208201905061356c6000830184613088565b92915050565b6000806040838503121561358957613588612dc1565b5b600083013567ffffffffffffffff8111156135a7576135a6612dc6565b5b6135b385828601613305565b92505060206135c485828601612ffe565b9150509250929050565b6000819050919050565b6135e1816135ce565b82525050565b60006020820190506135fc60008301846135d8565b92915050565b600082825260208201905092915050565b600061361e82612e3d565b6136288185613602565b9350613638818560208601612e59565b61364181612e8c565b840191505092915050565b61365581613067565b82525050565b61366481612fd5565b82525050565b600060c08301600083015184820360008601526136878282613613565b915050602083015184820360208601526136a18282613613565b915050604083015184820360408601526136bb8282613613565b915050606083015184820360608601526136d58282613613565b91505060808301516136ea608086018261364c565b5060a08301516136fd60a086018261365b565b508091505092915050565b60006020820190508181036000830152613722818461366a565b905092915050565b60008060006060848603121561374357613742612dc1565b5b600084013567ffffffffffffffff81111561376157613760612dc6565b5b61376d86828701613305565b935050602084013567ffffffffffffffff81111561378e5761378d612dc6565b5b61379a86828701613358565b92505060406137ab86828701612ffe565b9150509250925092565b600081519050919050565b600082825260208201905092915050565b6000819050602082019050919050565b6137ea81612f2c565b82525050565b600060a0830160008301516138086000860182613140565b50602083015184820360208601526138208282613613565b9150506040830151848203604086015261383a8282613613565b915050606083015161384f60608601826137e1565b50608083015184820360808601526138678282613613565b9150508091505092915050565b600061388083836137f0565b905092915050565b6000602082019050919050565b60006138a0826137b5565b6138aa81856137c0565b9350836020820285016138bc856137d1565b8060005b858110156138f857848403895281516138d98582613874565b94506138e483613888565b925060208a019950506001810190506138c0565b50829750879550505050505092915050565b600060208201905081810360008301526139248184613895565b905092915050565b6002811061393d5761393c612ed6565b5b50565b600081905061394e8261392c565b919050565b600061395e82613940565b9050919050565b61396e81613953565b82525050565b600060a08301600083015161398c6000860182613140565b50602083015184820360208601526139a48282613613565b915050604083015184820360408601526139be8282613613565b91505060608301516139d360608601826137e1565b50608083015184820360808601526139eb8282613613565b9150508091505092915050565b600060a082019050613a0d6000830188612e2e565b8181036020830152613a1f8187612e9d565b9050613a2e6040830186613965565b8181036060830152613a408185613974565b9050613a4f6080830184613088565b9695505050505050565b60008060408385031215613a7057613a6f612dc1565b5b6000613a7e85828601612dec565b9250506020613a8f85828601612ffe565b9150509250929050565b60006020820190508181036000830152613ab38184612e9d565b905092915050565b60008060008060008060c08789031215613ad857613ad7612dc1565b5b600087013567ffffffffffffffff811115613af657613af5612dc6565b5b613b0289828a01613305565b965050602087013567ffffffffffffffff811115613b2357613b22612dc6565b5b613b2f89828a01613305565b955050604087013567ffffffffffffffff811115613b5057613b4f612dc6565b5b613b5c89828a01613305565b945050606087013567ffffffffffffffff811115613b7d57613b7c612dc6565b5b613b8989828a01613305565b9350506080613b9a89828a01612dec565b92505060a0613bab89828a01612ffe565b9150509295509295509295565b600081519050919050565b600082825260208201905092915050565b6000819050602082019050919050565b6000613bf0838361365b565b60208301905092915050565b6000602082019050919050565b6000613c1482613bb8565b613c1e8185613bc3565b9350613c2983613bd4565b8060005b83811015613c5a578151613c418882613be4565b9750613c4c83613bfc565b925050600181019050613c2d565b5085935050505092915050565b60006020820190508181036000830152613c818184613c09565b905092915050565b60008060408385031215613ca057613c9f612dc1565b5b600083013567ffffffffffffffff811115613cbe57613cbd612dc6565b5b613cca85828601613305565b925050602083013567ffffffffffffffff811115613ceb57613cea612dc6565b5b613cf785828601613358565b9150509250929050565b60006020820190508181036000830152613d1b8184613974565b905092915050565b7f4e487b7100000000000000000000000000000000000000000000000000000000600052602260045260246000fd5b60006002820490506001821680613d6a57607f821691505b60208210811415613d7e57613d7d613d23565b5b50919050565b7f596f7520617265206e6f74206120636f6d70616e79206275696c646572000000600082015250565b6000613dba601d83612e48565b9150613dc582613d84565b602082019050919050565b60006020820190508181036000830152613de981613dad565b9050919050565b6000606082019050613e056000830186612f3e565b8181036020830152613e178185613974565b9050613e266040830184613088565b949350505050565b60006060820190508181036000830152613e488186612e9d565b90508181036020830152613e5c8185612e9d565b9050613e6b6040830184612f3e565b949350505050565b7f4e487b7100000000000000000000000000000000000000000000000000000000600052601160045260246000fd5b6000613ead82612dcb565b91507fffffffffffffffffffffffffffffffffffffffffffffffffffffffffffffffff821415613ee057613edf613e73565b5b600182019050919050565b600081905092915050565b6000613f0182612e3d565b613f0b8185613eeb565b9350613f1b818560208601612e59565b80840191505092915050565b60008160601b9050919050565b6000613f3f82613f27565b9050919050565b6000613f5182613f34565b9050919050565b613f69613f6482612fd5565b613f46565b82525050565b6000613f7b8285613ef6565b9150613f878284613f58565b6014820191508190509392505050565b7f5468652070726f6a656374206973206e6f7420696e2074686520274265666f7260008201527f6546696e616c697a6174696f6e436865636b27207374617475732c207468652060208201527f6f7065726174696f6e2063616e6e6f7420626520646f6e652e00000000000000604082015250565b6000614019605983612e48565b915061402482613f97565b606082019050919050565b600060208201905081810360008301526140488161400c565b9050919050565b600060a0820190506140646000830188612e2e565b6140716020830187613965565b81810360408301526140838186613974565b90506140926060830185612f3e565b61409f6080830184613088565b9695505050505050565b7f5468652070726f6a656374206973206e6f7420637265617465642c207468652060008201527f6f7065726174696f6e2063616e6e6f7420626520646f6e652e00000000000000602082015250565b6000614105603983612e48565b9150614110826140a9565b604082019050919050565b60006020820190508181036000830152614134816140f8565b9050919050565b7f596f7520617265206e6f7420616e206f776e6572000000000000000000000000600082015250565b6000614171601483612e48565b915061417c8261413b565b602082019050919050565b600060208201905081810360008301526141a081614164565b9050919050565b60006141b38284613ef6565b915081905092915050565b600060608201905081810360008301526141d88186612e9d565b905081810360208301526141ec8185612e9d565b905081810360408301526142008184612e9d565b9050949350505050565b7f5468652070726f6a656374206973206e6f7420617070726f7665642c2074686560008201527f206f7065726174696f6e2063616e6e6f7420626520646f6e652e000000000000602082015250565b6000614266603a83612e48565b91506142718261420a565b604082019050919050565b6000602082019050818103600083015261429581614259565b9050919050565b600060808201905081810360008301526142b68187612e9d565b90506142c56020830186612f3e565b81810360408301526142d78185613974565b90506142e66060830184613088565b9594505050505056fea264697066735822122086ce15040e20f998461628deab7c441e044ceb4cab86ca97a942b26dbd72659464736f6c634300080a0033",
  "immutableReferences": {},
  "source": "// SPDX-License-Identifier: MIT\r\npragma solidity >=0.8.0 <0.9.0;\r\n\r\nimport \"./Project.sol\";\r\n\r\ncontract CompanyBuilder is Project {\r\n\r\n    address _companyAddress;\r\n\r\n    event ApproveProjectRequestByCompany(ProjectStatus _status, S_Project _project, address _subjectAddress);\r\n    event RejectProjectRequestByCompany(string _description, ProjectStatus _status, S_Project _project, address _subjectAddress);\r\n    event BeforeFinalizationProjectRequestByCompany(ProjectStatus _status, S_Project _project, address _subjectAddress);\r\n\r\n    constructor() {\r\n        _companyAddress = msg.sender;\r\n    }\r\n\r\n    modifier onlyCompany {\r\n        require(_companyAddress == msg.sender, \"You are not a company builder\");\r\n        _;\r\n    }\r\n\r\n    // Add some contrainst / verification TOOO DOOO -> LATER\r\n\r\n    function setProjectRequestToOnGoingStatus(S_Project memory _project) public onlyCompany {\r\n        _project.projectStatus = ProjectStatus.OnGoing;\r\n        emit ApproveProjectRequestByCompany(ProjectStatus.OnGoing, _project, _companyAddress);\r\n    }\r\n\r\n    function setProjectRequestToRejectStatus(string memory _description, S_Project memory _project) public onlyCompany {\r\n        _project.projectStatus = ProjectStatus.Rejected;\r\n        emit RejectProjectRequestByCompany(_description, ProjectStatus.Rejected, _project, _companyAddress);\r\n    }\r\n\r\n    function setProjectRequestToBeforeFinalizationStatus(S_Project memory _project)  public onlyCompany {\r\n        _project.projectStatus = ProjectStatus.BeforeFinalizationCheck;\r\n        emit BeforeFinalizationProjectRequestByCompany(ProjectStatus.BeforeFinalizationCheck, _project, _companyAddress);\r\n    }\r\n}\r\n",
  "sourcePath": "/mnt/c/users/beniamin/source/repos/dissertationproject/contracts/CompanyBuilder.sol",
  "compiler": {
    "name": "solc",
    "version": "0.8.10+commit.fc410830.Emscripten.clang"
  },
  "schemaVersion": "3.4.3",
  "updatedAt": "2021-11-17T06:46:07.652Z",
  "devdoc": {
    "kind": "dev",
    "methods": {},
    "version": 1
  },
  "userdoc": {
    "kind": "user",
    "methods": {},
    "version": 1
  }
}