{
  "contractName": "CompanyChain",
  "abi": [
    {
      "inputs": [],
      "stateMutability": "nonpayable",
      "type": "constructor"
    },
    {
      "anonymous": false,
      "inputs": [
        {
          "indexed": false,
          "internalType": "enum ProjectChain.ProjectStatus",
          "name": "_status",
          "type": "uint8"
        },
        {
          "components": [
            {
              "internalType": "uint256",
              "name": "_index",
              "type": "uint256"
            },
            {
              "internalType": "string",
              "name": "_name",
              "type": "string"
            },
            {
              "internalType": "string",
              "name": "_description",
              "type": "string"
            },
            {
              "internalType": "enum ProjectChain.ProjectStatus",
              "name": "_status",
              "type": "uint8"
            },
            {
              "internalType": "string",
              "name": "_ipfsFileCID",
              "type": "string"
            },
            {
              "internalType": "address",
              "name": "_projectAddress",
              "type": "address"
            },
            {
              "internalType": "address",
              "name": "_projectInitiator",
              "type": "address"
            }
          ],
          "indexed": false,
          "internalType": "struct ProjectChain.Project",
          "name": "_project",
          "type": "tuple"
        },
        {
          "indexed": false,
          "internalType": "address",
          "name": "_subjectAddress",
          "type": "address"
        }
      ],
      "name": "ApproveProjectRequestByCompany",
      "type": "event"
    },
    {
      "anonymous": false,
      "inputs": [
        {
          "indexed": false,
          "internalType": "enum ProjectChain.ProjectStatus",
          "name": "_status",
          "type": "uint8"
        },
        {
          "components": [
            {
              "internalType": "uint256",
              "name": "_index",
              "type": "uint256"
            },
            {
              "internalType": "string",
              "name": "_name",
              "type": "string"
            },
            {
              "internalType": "string",
              "name": "_description",
              "type": "string"
            },
            {
              "internalType": "enum ProjectChain.ProjectStatus",
              "name": "_status",
              "type": "uint8"
            },
            {
              "internalType": "string",
              "name": "_ipfsFileCID",
              "type": "string"
            },
            {
              "internalType": "address",
              "name": "_projectAddress",
              "type": "address"
            },
            {
              "internalType": "address",
              "name": "_projectInitiator",
              "type": "address"
            }
          ],
          "indexed": false,
          "internalType": "struct ProjectChain.Project",
          "name": "_project",
          "type": "tuple"
        },
        {
          "indexed": false,
          "internalType": "address",
          "name": "_subjectAddress",
          "type": "address"
        }
      ],
      "name": "BeforeFinalizationProjectRequestByCompany",
      "type": "event"
    },
    {
      "anonymous": false,
      "inputs": [
        {
          "indexed": false,
          "internalType": "uint256",
          "name": "_index",
          "type": "uint256"
        },
        {
          "indexed": false,
          "internalType": "string",
          "name": "_name",
          "type": "string"
        },
        {
          "indexed": false,
          "internalType": "string",
          "name": "_description",
          "type": "string"
        },
        {
          "indexed": false,
          "internalType": "enum ProjectChain.ProjectStatus",
          "name": "_status",
          "type": "uint8"
        },
        {
          "indexed": false,
          "internalType": "string",
          "name": "_ipfsFileCID",
          "type": "string"
        },
        {
          "indexed": false,
          "internalType": "address",
          "name": "_projectAddress",
          "type": "address"
        },
        {
          "indexed": false,
          "internalType": "address",
          "name": "_projectInitiator",
          "type": "address"
        }
      ],
      "name": "ProjectEvent",
      "type": "event"
    },
    {
      "anonymous": false,
      "inputs": [
        {
          "indexed": false,
          "internalType": "uint256",
          "name": "_index",
          "type": "uint256"
        },
        {
          "indexed": false,
          "internalType": "string",
          "name": "_name",
          "type": "string"
        },
        {
          "indexed": false,
          "internalType": "string",
          "name": "_description",
          "type": "string"
        },
        {
          "indexed": false,
          "internalType": "string",
          "name": "_comments",
          "type": "string"
        },
        {
          "indexed": false,
          "internalType": "enum ProjectChain.ProjectStatus",
          "name": "_status",
          "type": "uint8"
        },
        {
          "indexed": false,
          "internalType": "enum ProjectChain.ProjectRequestStatus",
          "name": "_requestStatus",
          "type": "uint8"
        },
        {
          "indexed": false,
          "internalType": "string",
          "name": "_ipfsFileCID",
          "type": "string"
        },
        {
          "indexed": false,
          "internalType": "address",
          "name": "_projectAddress",
          "type": "address"
        },
        {
          "indexed": false,
          "internalType": "address",
          "name": "_projectInitiator",
          "type": "address"
        },
        {
          "indexed": false,
          "internalType": "string",
          "name": "signature",
          "type": "string"
        }
      ],
      "name": "ProjectStatusEvent",
      "type": "event"
    },
    {
      "anonymous": false,
      "inputs": [
        {
          "indexed": false,
          "internalType": "string",
          "name": "_description",
          "type": "string"
        },
        {
          "indexed": false,
          "internalType": "enum ProjectChain.ProjectStatus",
          "name": "_status",
          "type": "uint8"
        },
        {
          "components": [
            {
              "internalType": "uint256",
              "name": "_index",
              "type": "uint256"
            },
            {
              "internalType": "string",
              "name": "_name",
              "type": "string"
            },
            {
              "internalType": "string",
              "name": "_description",
              "type": "string"
            },
            {
              "internalType": "enum ProjectChain.ProjectStatus",
              "name": "_status",
              "type": "uint8"
            },
            {
              "internalType": "string",
              "name": "_ipfsFileCID",
              "type": "string"
            },
            {
              "internalType": "address",
              "name": "_projectAddress",
              "type": "address"
            },
            {
              "internalType": "address",
              "name": "_projectInitiator",
              "type": "address"
            }
          ],
          "indexed": false,
          "internalType": "struct ProjectChain.Project",
          "name": "_project",
          "type": "tuple"
        },
        {
          "indexed": false,
          "internalType": "address",
          "name": "_subjectAddress",
          "type": "address"
        }
      ],
      "name": "RejectProjectRequestByCompany",
      "type": "event"
    },
    {
      "anonymous": false,
      "inputs": [
        {
          "indexed": false,
          "internalType": "uint256",
          "name": "_indexRequest",
          "type": "uint256"
        },
        {
          "indexed": false,
          "internalType": "enum ProjectChain.RequestStatus",
          "name": "_status",
          "type": "uint8"
        },
        {
          "components": [
            {
              "internalType": "uint256",
              "name": "_index",
              "type": "uint256"
            },
            {
              "internalType": "string",
              "name": "_name",
              "type": "string"
            },
            {
              "internalType": "string",
              "name": "_description",
              "type": "string"
            },
            {
              "internalType": "enum ProjectChain.ProjectStatus",
              "name": "_status",
              "type": "uint8"
            },
            {
              "internalType": "string",
              "name": "_ipfsFileCID",
              "type": "string"
            },
            {
              "internalType": "address",
              "name": "_projectAddress",
              "type": "address"
            },
            {
              "internalType": "address",
              "name": "_projectInitiator",
              "type": "address"
            }
          ],
          "indexed": false,
          "internalType": "struct ProjectChain.Project",
          "name": "_project",
          "type": "tuple"
        },
        {
          "indexed": false,
          "internalType": "enum ProjectChain.ProjectStatus",
          "name": "_projectStatus",
          "type": "uint8"
        },
        {
          "indexed": false,
          "internalType": "address",
          "name": "_subjectAddress",
          "type": "address"
        }
      ],
      "name": "UpdateCompanyRequestStatus",
      "type": "event"
    },
    {
      "anonymous": false,
      "inputs": [
        {
          "indexed": false,
          "internalType": "uint256",
          "name": "_indexRequest",
          "type": "uint256"
        },
        {
          "indexed": false,
          "internalType": "enum ProjectChain.RequestStatus",
          "name": "_status",
          "type": "uint8"
        },
        {
          "components": [
            {
              "internalType": "uint256",
              "name": "_index",
              "type": "uint256"
            },
            {
              "internalType": "string",
              "name": "_name",
              "type": "string"
            },
            {
              "internalType": "string",
              "name": "_description",
              "type": "string"
            },
            {
              "internalType": "enum ProjectChain.ProjectStatus",
              "name": "_status",
              "type": "uint8"
            },
            {
              "internalType": "string",
              "name": "_ipfsFileCID",
              "type": "string"
            },
            {
              "internalType": "address",
              "name": "_projectAddress",
              "type": "address"
            },
            {
              "internalType": "address",
              "name": "_projectInitiator",
              "type": "address"
            }
          ],
          "indexed": false,
          "internalType": "struct ProjectChain.Project",
          "name": "_project",
          "type": "tuple"
        },
        {
          "indexed": false,
          "internalType": "enum ProjectChain.ProjectStatus",
          "name": "_projectStatus",
          "type": "uint8"
        },
        {
          "indexed": false,
          "internalType": "address",
          "name": "_subjectAddress",
          "type": "address"
        }
      ],
      "name": "UpdateSupervisorRequestStatus",
      "type": "event"
    },
    {
      "anonymous": false,
      "inputs": [
        {
          "indexed": false,
          "internalType": "string",
          "name": "_username",
          "type": "string"
        },
        {
          "indexed": false,
          "internalType": "string",
          "name": "_firstname",
          "type": "string"
        },
        {
          "indexed": false,
          "internalType": "string",
          "name": "_lastname",
          "type": "string"
        },
        {
          "indexed": false,
          "internalType": "string",
          "name": "_email",
          "type": "string"
        },
        {
          "indexed": false,
          "internalType": "enum UserChain.Roles",
          "name": "_role",
          "type": "uint8"
        },
        {
          "indexed": false,
          "internalType": "address",
          "name": "_walletAddress",
          "type": "address"
        }
      ],
      "name": "UserChanges",
      "type": "event"
    },
    {
      "anonymous": false,
      "inputs": [
        {
          "indexed": true,
          "internalType": "address",
          "name": "_walletAddress",
          "type": "address"
        },
        {
          "indexed": true,
          "internalType": "string",
          "name": "_username",
          "type": "string"
        },
        {
          "indexed": false,
          "internalType": "string",
          "name": "_email",
          "type": "string"
        },
        {
          "indexed": false,
          "internalType": "string",
          "name": "_firstname",
          "type": "string"
        },
        {
          "indexed": false,
          "internalType": "string",
          "name": "_lastname",
          "type": "string"
        },
        {
          "indexed": true,
          "internalType": "enum UserChain.Roles",
          "name": "_role",
          "type": "uint8"
        }
      ],
      "name": "UserRegistered",
      "type": "event"
    },
    {
      "inputs": [
        {
          "internalType": "uint256",
          "name": "",
          "type": "uint256"
        }
      ],
      "name": "allProjects",
      "outputs": [
        {
          "internalType": "uint256",
          "name": "_index",
          "type": "uint256"
        },
        {
          "internalType": "string",
          "name": "_name",
          "type": "string"
        },
        {
          "internalType": "string",
          "name": "_description",
          "type": "string"
        },
        {
          "internalType": "enum ProjectChain.ProjectStatus",
          "name": "_status",
          "type": "uint8"
        },
        {
          "internalType": "string",
          "name": "_ipfsFileCID",
          "type": "string"
        },
        {
          "internalType": "address",
          "name": "_projectAddress",
          "type": "address"
        },
        {
          "internalType": "address",
          "name": "_projectInitiator",
          "type": "address"
        }
      ],
      "stateMutability": "view",
      "type": "function"
    },
    {
      "inputs": [
        {
          "internalType": "uint256",
          "name": "",
          "type": "uint256"
        }
      ],
      "name": "allUsers",
      "outputs": [
        {
          "internalType": "uint256",
          "name": "_index",
          "type": "uint256"
        },
        {
          "internalType": "string",
          "name": "_username",
          "type": "string"
        },
        {
          "internalType": "string",
          "name": "_email",
          "type": "string"
        },
        {
          "internalType": "string",
          "name": "_firstname",
          "type": "string"
        },
        {
          "internalType": "string",
          "name": "_lastname",
          "type": "string"
        },
        {
          "internalType": "enum UserChain.Roles",
          "name": "_role",
          "type": "uint8"
        },
        {
          "internalType": "address",
          "name": "_walletAddress",
          "type": "address"
        }
      ],
      "stateMutability": "view",
      "type": "function"
    },
    {
      "inputs": [
        {
          "internalType": "uint256",
          "name": "_role",
          "type": "uint256"
        },
        {
          "internalType": "address",
          "name": "_walletAddress",
          "type": "address"
        }
      ],
      "name": "changeUserRole",
      "outputs": [],
      "stateMutability": "nonpayable",
      "type": "function"
    },
    {
      "inputs": [
        {
          "internalType": "uint256",
          "name": "",
          "type": "uint256"
        }
      ],
      "name": "companyRequests",
      "outputs": [
        {
          "internalType": "uint256",
          "name": "index",
          "type": "uint256"
        },
        {
          "internalType": "string",
          "name": "description",
          "type": "string"
        },
        {
          "internalType": "enum ProjectChain.RequestStatus",
          "name": "status",
          "type": "uint8"
        },
        {
          "components": [
            {
              "internalType": "uint256",
              "name": "_index",
              "type": "uint256"
            },
            {
              "internalType": "string",
              "name": "_name",
              "type": "string"
            },
            {
              "internalType": "string",
              "name": "_description",
              "type": "string"
            },
            {
              "internalType": "enum ProjectChain.ProjectStatus",
              "name": "_status",
              "type": "uint8"
            },
            {
              "internalType": "string",
              "name": "_ipfsFileCID",
              "type": "string"
            },
            {
              "internalType": "address",
              "name": "_projectAddress",
              "type": "address"
            },
            {
              "internalType": "address",
              "name": "_projectInitiator",
              "type": "address"
            }
          ],
          "internalType": "struct ProjectChain.Project",
          "name": "project",
          "type": "tuple"
        },
        {
          "internalType": "address",
          "name": "subjectAddress",
          "type": "address"
        }
      ],
      "stateMutability": "view",
      "type": "function"
    },
    {
      "inputs": [
        {
          "internalType": "string",
          "name": "_name",
          "type": "string"
        },
        {
          "internalType": "string",
          "name": "_description",
          "type": "string"
        },
        {
          "internalType": "uint256",
          "name": "_status",
          "type": "uint256"
        },
        {
          "internalType": "string",
          "name": "_ipfsFileCID",
          "type": "string"
        }
      ],
      "name": "createProject",
      "outputs": [],
      "stateMutability": "nonpayable",
      "type": "function"
    },
    {
      "inputs": [
        {
          "internalType": "string",
          "name": "_text",
          "type": "string"
        }
      ],
      "name": "createUniqueHexAddress",
      "outputs": [
        {
          "internalType": "address",
          "name": "",
          "type": "address"
        }
      ],
      "stateMutability": "view",
      "type": "function"
    },
    {
      "inputs": [],
      "name": "getAllProjects",
      "outputs": [
        {
          "components": [
            {
              "internalType": "uint256",
              "name": "_index",
              "type": "uint256"
            },
            {
              "internalType": "string",
              "name": "_name",
              "type": "string"
            },
            {
              "internalType": "string",
              "name": "_description",
              "type": "string"
            },
            {
              "internalType": "enum ProjectChain.ProjectStatus",
              "name": "_status",
              "type": "uint8"
            },
            {
              "internalType": "string",
              "name": "_ipfsFileCID",
              "type": "string"
            },
            {
              "internalType": "address",
              "name": "_projectAddress",
              "type": "address"
            },
            {
              "internalType": "address",
              "name": "_projectInitiator",
              "type": "address"
            }
          ],
          "internalType": "struct ProjectChain.Project[]",
          "name": "",
          "type": "tuple[]"
        }
      ],
      "stateMutability": "view",
      "type": "function"
    },
    {
      "inputs": [],
      "name": "getAllUsers",
      "outputs": [
        {
          "components": [
            {
              "internalType": "uint256",
              "name": "_index",
              "type": "uint256"
            },
            {
              "internalType": "string",
              "name": "_username",
              "type": "string"
            },
            {
              "internalType": "string",
              "name": "_email",
              "type": "string"
            },
            {
              "internalType": "string",
              "name": "_firstname",
              "type": "string"
            },
            {
              "internalType": "string",
              "name": "_lastname",
              "type": "string"
            },
            {
              "internalType": "enum UserChain.Roles",
              "name": "_role",
              "type": "uint8"
            },
            {
              "internalType": "address",
              "name": "_walletAddress",
              "type": "address"
            }
          ],
          "internalType": "struct UserChain.User[]",
          "name": "",
          "type": "tuple[]"
        }
      ],
      "stateMutability": "view",
      "type": "function"
    },
    {
      "inputs": [
        {
          "internalType": "address",
          "name": "_address",
          "type": "address"
        }
      ],
      "name": "getProjectInfo",
      "outputs": [
        {
          "components": [
            {
              "internalType": "uint256",
              "name": "_index",
              "type": "uint256"
            },
            {
              "internalType": "string",
              "name": "_name",
              "type": "string"
            },
            {
              "internalType": "string",
              "name": "_description",
              "type": "string"
            },
            {
              "internalType": "enum ProjectChain.ProjectStatus",
              "name": "_status",
              "type": "uint8"
            },
            {
              "internalType": "string",
              "name": "_ipfsFileCID",
              "type": "string"
            },
            {
              "internalType": "address",
              "name": "_projectAddress",
              "type": "address"
            },
            {
              "internalType": "address",
              "name": "_projectInitiator",
              "type": "address"
            }
          ],
          "internalType": "struct ProjectChain.Project",
          "name": "",
          "type": "tuple"
        }
      ],
      "stateMutability": "view",
      "type": "function"
    },
    {
      "inputs": [
        {
          "internalType": "address",
          "name": "_walletAddress",
          "type": "address"
        }
      ],
      "name": "getUserInfo",
      "outputs": [
        {
          "components": [
            {
              "internalType": "uint256",
              "name": "_index",
              "type": "uint256"
            },
            {
              "internalType": "string",
              "name": "_username",
              "type": "string"
            },
            {
              "internalType": "string",
              "name": "_email",
              "type": "string"
            },
            {
              "internalType": "string",
              "name": "_firstname",
              "type": "string"
            },
            {
              "internalType": "string",
              "name": "_lastname",
              "type": "string"
            },
            {
              "internalType": "enum UserChain.Roles",
              "name": "_role",
              "type": "uint8"
            },
            {
              "internalType": "address",
              "name": "_walletAddress",
              "type": "address"
            }
          ],
          "internalType": "struct UserChain.User",
          "name": "",
          "type": "tuple"
        }
      ],
      "stateMutability": "view",
      "type": "function"
    },
    {
      "inputs": [],
      "name": "owner",
      "outputs": [
        {
          "internalType": "address",
          "name": "",
          "type": "address"
        }
      ],
      "stateMutability": "view",
      "type": "function"
    },
    {
      "inputs": [
        {
          "internalType": "address",
          "name": "",
          "type": "address"
        }
      ],
      "name": "projects",
      "outputs": [
        {
          "internalType": "uint256",
          "name": "_index",
          "type": "uint256"
        },
        {
          "internalType": "string",
          "name": "_name",
          "type": "string"
        },
        {
          "internalType": "string",
          "name": "_description",
          "type": "string"
        },
        {
          "internalType": "enum ProjectChain.ProjectStatus",
          "name": "_status",
          "type": "uint8"
        },
        {
          "internalType": "string",
          "name": "_ipfsFileCID",
          "type": "string"
        },
        {
          "internalType": "address",
          "name": "_projectAddress",
          "type": "address"
        },
        {
          "internalType": "address",
          "name": "_projectInitiator",
          "type": "address"
        }
      ],
      "stateMutability": "view",
      "type": "function"
    },
    {
      "inputs": [],
      "name": "projectsCounter",
      "outputs": [
        {
          "internalType": "uint256",
          "name": "",
          "type": "uint256"
        }
      ],
      "stateMutability": "view",
      "type": "function"
    },
    {
      "inputs": [
        {
          "internalType": "string",
          "name": "_username",
          "type": "string"
        },
        {
          "internalType": "string",
          "name": "_email",
          "type": "string"
        },
        {
          "internalType": "string",
          "name": "_firstname",
          "type": "string"
        },
        {
          "internalType": "string",
          "name": "_lastname",
          "type": "string"
        },
        {
          "internalType": "uint256",
          "name": "_role",
          "type": "uint256"
        },
        {
          "internalType": "address",
          "name": "_walletAddress",
          "type": "address"
        }
      ],
      "name": "registerUser",
      "outputs": [],
      "stateMutability": "nonpayable",
      "type": "function"
    },
    {
      "inputs": [
        {
          "internalType": "string",
          "name": "_description",
          "type": "string"
        },
        {
          "components": [
            {
              "internalType": "uint256",
              "name": "_index",
              "type": "uint256"
            },
            {
              "internalType": "string",
              "name": "_name",
              "type": "string"
            },
            {
              "internalType": "string",
              "name": "_description",
              "type": "string"
            },
            {
              "internalType": "enum ProjectChain.ProjectStatus",
              "name": "_status",
              "type": "uint8"
            },
            {
              "internalType": "string",
              "name": "_ipfsFileCID",
              "type": "string"
            },
            {
              "internalType": "address",
              "name": "_projectAddress",
              "type": "address"
            },
            {
              "internalType": "address",
              "name": "_projectInitiator",
              "type": "address"
            }
          ],
          "internalType": "struct ProjectChain.Project",
          "name": "_project",
          "type": "tuple"
        },
        {
          "internalType": "address",
          "name": "_subjectAddress",
          "type": "address"
        }
      ],
      "name": "requestProjectApprovalFromSupervisor",
      "outputs": [],
      "stateMutability": "nonpayable",
      "type": "function"
    },
    {
      "inputs": [
        {
          "internalType": "string",
          "name": "_description",
          "type": "string"
        },
        {
          "components": [
            {
              "internalType": "uint256",
              "name": "_index",
              "type": "uint256"
            },
            {
              "internalType": "string",
              "name": "_name",
              "type": "string"
            },
            {
              "internalType": "string",
              "name": "_description",
              "type": "string"
            },
            {
              "internalType": "enum ProjectChain.ProjectStatus",
              "name": "_status",
              "type": "uint8"
            },
            {
              "internalType": "string",
              "name": "_ipfsFileCID",
              "type": "string"
            },
            {
              "internalType": "address",
              "name": "_projectAddress",
              "type": "address"
            },
            {
              "internalType": "address",
              "name": "_projectInitiator",
              "type": "address"
            }
          ],
          "internalType": "struct ProjectChain.Project",
          "name": "_project",
          "type": "tuple"
        },
        {
          "internalType": "address",
          "name": "_subjectAddress",
          "type": "address"
        }
      ],
      "name": "requestProjectCompleteFromSupervisor",
      "outputs": [],
      "stateMutability": "nonpayable",
      "type": "function"
    },
    {
      "inputs": [
        {
          "internalType": "string",
          "name": "_description",
          "type": "string"
        },
        {
          "components": [
            {
              "internalType": "uint256",
              "name": "_index",
              "type": "uint256"
            },
            {
              "internalType": "string",
              "name": "_name",
              "type": "string"
            },
            {
              "internalType": "string",
              "name": "_description",
              "type": "string"
            },
            {
              "internalType": "enum ProjectChain.ProjectStatus",
              "name": "_status",
              "type": "uint8"
            },
            {
              "internalType": "string",
              "name": "_ipfsFileCID",
              "type": "string"
            },
            {
              "internalType": "address",
              "name": "_projectAddress",
              "type": "address"
            },
            {
              "internalType": "address",
              "name": "_projectInitiator",
              "type": "address"
            }
          ],
          "internalType": "struct ProjectChain.Project",
          "name": "_project",
          "type": "tuple"
        },
        {
          "internalType": "address",
          "name": "_subjectAddress",
          "type": "address"
        }
      ],
      "name": "requestStartProjectToCompanyBuilder",
      "outputs": [],
      "stateMutability": "nonpayable",
      "type": "function"
    },
    {
      "inputs": [
        {
          "internalType": "uint256",
          "name": "",
          "type": "uint256"
        }
      ],
      "name": "supervisorRequests",
      "outputs": [
        {
          "internalType": "uint256",
          "name": "index",
          "type": "uint256"
        },
        {
          "internalType": "string",
          "name": "description",
          "type": "string"
        },
        {
          "internalType": "enum ProjectChain.RequestStatus",
          "name": "status",
          "type": "uint8"
        },
        {
          "components": [
            {
              "internalType": "uint256",
              "name": "_index",
              "type": "uint256"
            },
            {
              "internalType": "string",
              "name": "_name",
              "type": "string"
            },
            {
              "internalType": "string",
              "name": "_description",
              "type": "string"
            },
            {
              "internalType": "enum ProjectChain.ProjectStatus",
              "name": "_status",
              "type": "uint8"
            },
            {
              "internalType": "string",
              "name": "_ipfsFileCID",
              "type": "string"
            },
            {
              "internalType": "address",
              "name": "_projectAddress",
              "type": "address"
            },
            {
              "internalType": "address",
              "name": "_projectInitiator",
              "type": "address"
            }
          ],
          "internalType": "struct ProjectChain.Project",
          "name": "project",
          "type": "tuple"
        },
        {
          "internalType": "address",
          "name": "subjectAddress",
          "type": "address"
        }
      ],
      "stateMutability": "view",
      "type": "function"
    },
    {
      "inputs": [
        {
          "internalType": "address",
          "name": "",
          "type": "address"
        }
      ],
      "name": "users",
      "outputs": [
        {
          "internalType": "uint256",
          "name": "_index",
          "type": "uint256"
        },
        {
          "internalType": "string",
          "name": "_username",
          "type": "string"
        },
        {
          "internalType": "string",
          "name": "_email",
          "type": "string"
        },
        {
          "internalType": "string",
          "name": "_firstname",
          "type": "string"
        },
        {
          "internalType": "string",
          "name": "_lastname",
          "type": "string"
        },
        {
          "internalType": "enum UserChain.Roles",
          "name": "_role",
          "type": "uint8"
        },
        {
          "internalType": "address",
          "name": "_walletAddress",
          "type": "address"
        }
      ],
      "stateMutability": "view",
      "type": "function"
    },
    {
      "inputs": [],
      "name": "usersCounter",
      "outputs": [
        {
          "internalType": "uint256",
          "name": "",
          "type": "uint256"
        }
      ],
      "stateMutability": "view",
      "type": "function"
    },
    {
      "inputs": [
        {
          "components": [
            {
              "internalType": "uint256",
              "name": "_index",
              "type": "uint256"
            },
            {
              "internalType": "string",
              "name": "_name",
              "type": "string"
            },
            {
              "internalType": "string",
              "name": "_description",
              "type": "string"
            },
            {
              "internalType": "enum ProjectChain.ProjectStatus",
              "name": "_status",
              "type": "uint8"
            },
            {
              "internalType": "string",
              "name": "_ipfsFileCID",
              "type": "string"
            },
            {
              "internalType": "address",
              "name": "_projectAddress",
              "type": "address"
            },
            {
              "internalType": "address",
              "name": "_projectInitiator",
              "type": "address"
            }
          ],
          "internalType": "struct ProjectChain.Project",
          "name": "_project",
          "type": "tuple"
        }
      ],
      "name": "setProjectRequestToOnGoingStatus",
      "outputs": [],
      "stateMutability": "nonpayable",
      "type": "function"
    },
    {
      "inputs": [
        {
          "internalType": "string",
          "name": "_description",
          "type": "string"
        },
        {
          "components": [
            {
              "internalType": "uint256",
              "name": "_index",
              "type": "uint256"
            },
            {
              "internalType": "string",
              "name": "_name",
              "type": "string"
            },
            {
              "internalType": "string",
              "name": "_description",
              "type": "string"
            },
            {
              "internalType": "enum ProjectChain.ProjectStatus",
              "name": "_status",
              "type": "uint8"
            },
            {
              "internalType": "string",
              "name": "_ipfsFileCID",
              "type": "string"
            },
            {
              "internalType": "address",
              "name": "_projectAddress",
              "type": "address"
            },
            {
              "internalType": "address",
              "name": "_projectInitiator",
              "type": "address"
            }
          ],
          "internalType": "struct ProjectChain.Project",
          "name": "_project",
          "type": "tuple"
        }
      ],
      "name": "setProjectRequestToRejectStatus",
      "outputs": [],
      "stateMutability": "nonpayable",
      "type": "function"
    },
    {
      "inputs": [
        {
          "components": [
            {
              "internalType": "uint256",
              "name": "_index",
              "type": "uint256"
            },
            {
              "internalType": "string",
              "name": "_name",
              "type": "string"
            },
            {
              "internalType": "string",
              "name": "_description",
              "type": "string"
            },
            {
              "internalType": "enum ProjectChain.ProjectStatus",
              "name": "_status",
              "type": "uint8"
            },
            {
              "internalType": "string",
              "name": "_ipfsFileCID",
              "type": "string"
            },
            {
              "internalType": "address",
              "name": "_projectAddress",
              "type": "address"
            },
            {
              "internalType": "address",
              "name": "_projectInitiator",
              "type": "address"
            }
          ],
          "internalType": "struct ProjectChain.Project",
          "name": "_project",
          "type": "tuple"
        }
      ],
      "name": "setProjectRequestToBeforeFinalizationStatus",
      "outputs": [],
      "stateMutability": "nonpayable",
      "type": "function"
    }
  ],
  "bytecode": "0x60806040526000600355600060065534801561001a57600080fd5b50336000806101000a81548173ffffffffffffffffffffffffffffffffffffffff021916908373ffffffffffffffffffffffffffffffffffffffff16021790555033600460006101000a81548173ffffffffffffffffffffffffffffffffffffffff021916908373ffffffffffffffffffffffffffffffffffffffff16021790555033600c60006101000a81548173ffffffffffffffffffffffffffffffffffffffff021916908373ffffffffffffffffffffffffffffffffffffffff16021790555061514e806100ec6000396000f3fe608060405234801561001057600080fd5b506004361061014d5760003560e01c80638da5cb5b116100c3578063c8daf7891161007c578063c8daf789146103ee578063d40d4a801461040a578063d67b1b991461043e578063e2842d791461045c578063fa9bd9a21461047a578063fe360ea5146104965761014d565b80638da5cb5b14610310578063910097861461032e578063911c29a61461034a578063a2bdedf414610366578063a87430ba1461039c578063b179e140146103d25761014d565b806347ee45b91161011557806347ee45b9146101f257806353b3194c146102225780636386c1c71461025857806380d0382914610288578063840e78fd146102a65780638c86a1d7146102dc5761014d565b806302d04053146101525780630d2c16cb1461016e5780632d1ed0d91461019e578063387b81f3146101ba57806346575714146101d6575b600080fd5b61016c60048036038101906101679190613eae565b6104b4565b005b61018860048036038101906101839190613ef7565b6105d6565b6040516101959190613f4f565b60405180910390f35b6101b860048036038101906101b39190613eae565b61062f565b005b6101d460048036038101906101cf9190613f6a565b610751565b005b6101f060048036038101906101eb9190613ff5565b6109e9565b005b61020c600480360381019061020791906140b0565b610fa4565b60405161021991906142a4565b60405180910390f35b61023c600480360381019061023791906142c6565b6112a4565b60405161024f979695949392919061435b565b60405180910390f35b610272600480360381019061026d91906140b0565b6114db565b60405161027f91906144d8565b60405180910390f35b610290611817565b60405161029d9190614666565b60405180910390f35b6102c060048036038101906102bb91906140b0565b611b1d565b6040516102d3979695949392919061435b565b60405180910390f35b6102f660048036038101906102f191906142c6565b611d44565b6040516103079594939291906146d0565b60405180910390f35b6103186120e0565b6040516103259190613f4f565b60405180910390f35b61034860048036038101906103439190614731565b612104565b005b610364600480360381019061035f9190614771565b61222b565b005b610380600480360381019061037b91906142c6565b612799565b604051610393979695949392919061487d565b60405180910390f35b6103b660048036038101906103b191906140b0565b612a38565b6040516103c9979695949392919061487d565b60405180910390f35b6103ec60048036038101906103e79190613f6a565b612cc7565b005b61040860048036038101906104039190614908565b612f5f565b005b610424600480360381019061041f91906142c6565b613084565b6040516104359594939291906146d0565b60405180910390f35b610446613420565b6040516104539190614980565b60405180910390f35b610464613426565b6040516104719190614b0e565b60405180910390f35b610494600480360381019061048f9190613f6a565b613768565b005b61049e613a00565b6040516104ab9190614980565b60405180910390f35b3373ffffffffffffffffffffffffffffffffffffffff16600c60009054906101000a900473ffffffffffffffffffffffffffffffffffffffff1673ffffffffffffffffffffffffffffffffffffffff1614610544576040517f08c379a000000000000000000000000000000000000000000000000000000000815260040161053b90614b7c565b60405180910390fd5b60038160600190600581111561055d5761055c614174565b5b9081600581111561057157610570614174565b5b815250507f2701397c60b473fdd73c900cf0732702a4ea37e76f1f0c454b6dda7a0b6aefba600382600c60009054906101000a900473ffffffffffffffffffffffffffffffffffffffff166040516105cb93929190614b9c565b60405180910390a150565b600081600460009054906101000a900473ffffffffffffffffffffffffffffffffffffffff164260405160200161060f93929190614c7f565b6040516020818303038152906040528051906020012060001c9050919050565b3373ffffffffffffffffffffffffffffffffffffffff16600c60009054906101000a900473ffffffffffffffffffffffffffffffffffffffff1673ffffffffffffffffffffffffffffffffffffffff16146106bf576040517f08c379a00000000000000000000000000000000000000000000000000000000081526004016106b690614b7c565b60405180910390fd5b6004816060019060058111156106d8576106d7614174565b5b908160058111156106ec576106eb614174565b5b815250507ff6571d93ead48985ba2d96d9dc083cd998e277ceecf0c83b9be57e9363cd415e600482600c60009054906101000a900473ffffffffffffffffffffffffffffffffffffffff1660405161074693929190614b9c565b60405180910390a150565b6000600581111561076557610764614174565b5b8260600151600581111561077c5761077b614174565b5b146107bc576040517f08c379a00000000000000000000000000000000000000000000000000000000081526004016107b390614d2a565b60405180910390fd5b600060096000600b5481526020019081526020016000209050838160010190805190602001906107ed929190613a06565b5060008160020160006101000a81548160ff0219169083600181111561081657610815614174565b5b02179055508281600301600082015181600001556020820151816001019080519060200190610846929190613a06565b506040820151816002019080519060200190610863929190613a06565b5060608201518160030160006101000a81548160ff0219169083600581111561088f5761088e614174565b5b021790555060808201518160040190805190602001906108b0929190613a06565b5060a08201518160050160006101000a81548173ffffffffffffffffffffffffffffffffffffffff021916908373ffffffffffffffffffffffffffffffffffffffff16021790555060c08201518160060160006101000a81548173ffffffffffffffffffffffffffffffffffffffff021916908373ffffffffffffffffffffffffffffffffffffffff1602179055509050508181600a0160006101000a81548173ffffffffffffffffffffffffffffffffffffffff021916908373ffffffffffffffffffffffffffffffffffffffff1602179055507f33c92d8d5321f326b7d8ea72d246102a87d3a90cd054dd73f9f838d15d563922600b546000858660600151866040516109c3959493929190614d4a565b60405180910390a1600b60008154809291906109de90614dd3565b919050555050505050565b6000610a296040518060400160405280601a81526020017f6373643f534073616c61733b646c413233345f442e3b735f61730000000000008152506105d6565b9050600654600560008373ffffffffffffffffffffffffffffffffffffffff1673ffffffffffffffffffffffffffffffffffffffff1681526020019081526020016000206000018190555084600560008373ffffffffffffffffffffffffffffffffffffffff1673ffffffffffffffffffffffffffffffffffffffff1681526020019081526020016000206001019080519060200190610aca929190613a06565b5083600560008373ffffffffffffffffffffffffffffffffffffffff1673ffffffffffffffffffffffffffffffffffffffff1681526020019081526020016000206002019080519060200190610b21929190613a06565b50826005811115610b3557610b34614174565b5b600560008373ffffffffffffffffffffffffffffffffffffffff1673ffffffffffffffffffffffffffffffffffffffff16815260200190815260200160002060030160006101000a81548160ff02191690836005811115610b9957610b98614174565b5b021790555081600560008373ffffffffffffffffffffffffffffffffffffffff1673ffffffffffffffffffffffffffffffffffffffff1681526020019081526020016000206004019080519060200190610bf4929190613a06565b5080600560008373ffffffffffffffffffffffffffffffffffffffff1673ffffffffffffffffffffffffffffffffffffffff16815260200190815260200160002060050160006101000a81548173ffffffffffffffffffffffffffffffffffffffff021916908373ffffffffffffffffffffffffffffffffffffffff160217905550600460009054906101000a900473ffffffffffffffffffffffffffffffffffffffff16600560008373ffffffffffffffffffffffffffffffffffffffff1673ffffffffffffffffffffffffffffffffffffffff16815260200190815260200160002060060160006101000a81548173ffffffffffffffffffffffffffffffffffffffff021916908373ffffffffffffffffffffffffffffffffffffffff1602179055507f26dcd90797c08da6e2f8f632e15a194aa091dfdbda0db17125d4ab5bece391d56006548686866005811115610d5257610d51614174565b5b8686600460009054906101000a900473ffffffffffffffffffffffffffffffffffffffff16604051610d8a979695949392919061435b565b60405180910390a160076040518060e001604052806006548152602001878152602001868152602001856005811115610dc657610dc5614174565b5b6005811115610dd857610dd7614174565b5b81526020018481526020018373ffffffffffffffffffffffffffffffffffffffff168152602001600460009054906101000a900473ffffffffffffffffffffffffffffffffffffffff1673ffffffffffffffffffffffffffffffffffffffff168152509080600181540180825580915050600190039060005260206000209060070201600090919091909150600082015181600001556020820151816001019080519060200190610e8a929190613a06565b506040820151816002019080519060200190610ea7929190613a06565b5060608201518160030160006101000a81548160ff02191690836005811115610ed357610ed2614174565b5b02179055506080820151816004019080519060200190610ef4929190613a06565b5060a08201518160050160006101000a81548173ffffffffffffffffffffffffffffffffffffffff021916908373ffffffffffffffffffffffffffffffffffffffff16021790555060c08201518160060160006101000a81548173ffffffffffffffffffffffffffffffffffffffff021916908373ffffffffffffffffffffffffffffffffffffffff160217905550505060066000815480929190610f9890614dd3565b91905055505050505050565b610fac613a8c565b600560008373ffffffffffffffffffffffffffffffffffffffff1673ffffffffffffffffffffffffffffffffffffffff1681526020019081526020016000206040518060e00160405290816000820154815260200160018201805461101090614e4b565b80601f016020809104026020016040519081016040528092919081815260200182805461103c90614e4b565b80156110895780601f1061105e57610100808354040283529160200191611089565b820191906000526020600020905b81548152906001019060200180831161106c57829003601f168201915b505050505081526020016002820180546110a290614e4b565b80601f01602080910402602001604051908101604052809291908181526020018280546110ce90614e4b565b801561111b5780601f106110f05761010080835404028352916020019161111b565b820191906000526020600020905b8154815290600101906020018083116110fe57829003601f168201915b505050505081526020016003820160009054906101000a900460ff16600581111561114957611148614174565b5b600581111561115b5761115a614174565b5b815260200160048201805461116f90614e4b565b80601f016020809104026020016040519081016040528092919081815260200182805461119b90614e4b565b80156111e85780601f106111bd576101008083540402835291602001916111e8565b820191906000526020600020905b8154815290600101906020018083116111cb57829003601f168201915b505050505081526020016005820160009054906101000a900473ffffffffffffffffffffffffffffffffffffffff1673ffffffffffffffffffffffffffffffffffffffff1673ffffffffffffffffffffffffffffffffffffffff1681526020016006820160009054906101000a900473ffffffffffffffffffffffffffffffffffffffff1673ffffffffffffffffffffffffffffffffffffffff1673ffffffffffffffffffffffffffffffffffffffff16815250509050919050565b600781815481106112b457600080fd5b90600052602060002090600702016000915090508060000154908060010180546112dd90614e4b565b80601f016020809104026020016040519081016040528092919081815260200182805461130990614e4b565b80156113565780601f1061132b57610100808354040283529160200191611356565b820191906000526020600020905b81548152906001019060200180831161133957829003601f168201915b50505050509080600201805461136b90614e4b565b80601f016020809104026020016040519081016040528092919081815260200182805461139790614e4b565b80156113e45780601f106113b9576101008083540402835291602001916113e4565b820191906000526020600020905b8154815290600101906020018083116113c757829003601f168201915b5050505050908060030160009054906101000a900460ff169080600401805461140c90614e4b565b80601f016020809104026020016040519081016040528092919081815260200182805461143890614e4b565b80156114855780601f1061145a57610100808354040283529160200191611485565b820191906000526020600020905b81548152906001019060200180831161146857829003601f168201915b5050505050908060050160009054906101000a900473ffffffffffffffffffffffffffffffffffffffff16908060060160009054906101000a900473ffffffffffffffffffffffffffffffffffffffff16905087565b6114e3613b07565b600160008373ffffffffffffffffffffffffffffffffffffffff1673ffffffffffffffffffffffffffffffffffffffff1681526020019081526020016000206040518060e00160405290816000820154815260200160018201805461154790614e4b565b80601f016020809104026020016040519081016040528092919081815260200182805461157390614e4b565b80156115c05780601f10611595576101008083540402835291602001916115c0565b820191906000526020600020905b8154815290600101906020018083116115a357829003601f168201915b505050505081526020016002820180546115d990614e4b565b80601f016020809104026020016040519081016040528092919081815260200182805461160590614e4b565b80156116525780601f1061162757610100808354040283529160200191611652565b820191906000526020600020905b81548152906001019060200180831161163557829003601f168201915b5050505050815260200160038201805461166b90614e4b565b80601f016020809104026020016040519081016040528092919081815260200182805461169790614e4b565b80156116e45780601f106116b9576101008083540402835291602001916116e4565b820191906000526020600020905b8154815290600101906020018083116116c757829003601f168201915b505050505081526020016004820180546116fd90614e4b565b80601f016020809104026020016040519081016040528092919081815260200182805461172990614e4b565b80156117765780601f1061174b57610100808354040283529160200191611776565b820191906000526020600020905b81548152906001019060200180831161175957829003601f168201915b505050505081526020016005820160009054906101000a900460ff1660038111156117a4576117a3614174565b5b60038111156117b6576117b5614174565b5b81526020016005820160019054906101000a900473ffffffffffffffffffffffffffffffffffffffff1673ffffffffffffffffffffffffffffffffffffffff1673ffffffffffffffffffffffffffffffffffffffff16815250509050919050565b60606007805480602002602001604051908101604052809291908181526020016000905b82821015611b1457838290600052602060002090600702016040518060e00160405290816000820154815260200160018201805461187890614e4b565b80601f01602080910402602001604051908101604052809291908181526020018280546118a490614e4b565b80156118f15780601f106118c6576101008083540402835291602001916118f1565b820191906000526020600020905b8154815290600101906020018083116118d457829003601f168201915b5050505050815260200160028201805461190a90614e4b565b80601f016020809104026020016040519081016040528092919081815260200182805461193690614e4b565b80156119835780601f1061195857610100808354040283529160200191611983565b820191906000526020600020905b81548152906001019060200180831161196657829003601f168201915b505050505081526020016003820160009054906101000a900460ff1660058111156119b1576119b0614174565b5b60058111156119c3576119c2614174565b5b81526020016004820180546119d790614e4b565b80601f0160208091040260200160405190810160405280929190818152602001828054611a0390614e4b565b8015611a505780601f10611a2557610100808354040283529160200191611a50565b820191906000526020600020905b815481529060010190602001808311611a3357829003601f168201915b505050505081526020016005820160009054906101000a900473ffffffffffffffffffffffffffffffffffffffff1673ffffffffffffffffffffffffffffffffffffffff1673ffffffffffffffffffffffffffffffffffffffff1681526020016006820160009054906101000a900473ffffffffffffffffffffffffffffffffffffffff1673ffffffffffffffffffffffffffffffffffffffff1673ffffffffffffffffffffffffffffffffffffffff16815250508152602001906001019061183b565b50505050905090565b6005602052806000526040600020600091509050806000015490806001018054611b4690614e4b565b80601f0160208091040260200160405190810160405280929190818152602001828054611b7290614e4b565b8015611bbf5780601f10611b9457610100808354040283529160200191611bbf565b820191906000526020600020905b815481529060010190602001808311611ba257829003601f168201915b505050505090806002018054611bd490614e4b565b80601f0160208091040260200160405190810160405280929190818152602001828054611c0090614e4b565b8015611c4d5780601f10611c2257610100808354040283529160200191611c4d565b820191906000526020600020905b815481529060010190602001808311611c3057829003601f168201915b5050505050908060030160009054906101000a900460ff1690806004018054611c7590614e4b565b80601f0160208091040260200160405190810160405280929190818152602001828054611ca190614e4b565b8015611cee5780601f10611cc357610100808354040283529160200191611cee565b820191906000526020600020905b815481529060010190602001808311611cd157829003601f168201915b5050505050908060050160009054906101000a900473ffffffffffffffffffffffffffffffffffffffff16908060060160009054906101000a900473ffffffffffffffffffffffffffffffffffffffff16905087565b6009602052806000526040600020600091509050806000015490806001018054611d6d90614e4b565b80601f0160208091040260200160405190810160405280929190818152602001828054611d9990614e4b565b8015611de65780601f10611dbb57610100808354040283529160200191611de6565b820191906000526020600020905b815481529060010190602001808311611dc957829003601f168201915b5050505050908060020160009054906101000a900460ff1690806003016040518060e001604052908160008201548152602001600182018054611e2890614e4b565b80601f0160208091040260200160405190810160405280929190818152602001828054611e5490614e4b565b8015611ea15780601f10611e7657610100808354040283529160200191611ea1565b820191906000526020600020905b815481529060010190602001808311611e8457829003601f168201915b50505050508152602001600282018054611eba90614e4b565b80601f0160208091040260200160405190810160405280929190818152602001828054611ee690614e4b565b8015611f335780601f10611f0857610100808354040283529160200191611f33565b820191906000526020600020905b815481529060010190602001808311611f1657829003601f168201915b505050505081526020016003820160009054906101000a900460ff166005811115611f6157611f60614174565b5b6005811115611f7357611f72614174565b5b8152602001600482018054611f8790614e4b565b80601f0160208091040260200160405190810160405280929190818152602001828054611fb390614e4b565b80156120005780601f10611fd557610100808354040283529160200191612000565b820191906000526020600020905b815481529060010190602001808311611fe357829003601f168201915b505050505081526020016005820160009054906101000a900473ffffffffffffffffffffffffffffffffffffffff1673ffffffffffffffffffffffffffffffffffffffff1673ffffffffffffffffffffffffffffffffffffffff1681526020016006820160009054906101000a900473ffffffffffffffffffffffffffffffffffffffff1673ffffffffffffffffffffffffffffffffffffffff1673ffffffffffffffffffffffffffffffffffffffff16815250509080600a0160009054906101000a900473ffffffffffffffffffffffffffffffffffffffff16905085565b60008054906101000a900473ffffffffffffffffffffffffffffffffffffffff1681565b81600381111561211757612116614174565b5b600160008373ffffffffffffffffffffffffffffffffffffffff1673ffffffffffffffffffffffffffffffffffffffff16815260200190815260200160002060050160006101000a81548160ff0219169083600381111561217b5761217a614174565b5b02179055506000600160008373ffffffffffffffffffffffffffffffffffffffff1673ffffffffffffffffffffffffffffffffffffffff1681526020019081526020016000206000015490508260038111156121da576121d9614174565b5b600282815481106121ee576121ed614e7d565b5b906000526020600020906006020160050160006101000a81548160ff0219169083600381111561222157612220614174565b5b0217905550505050565b3373ffffffffffffffffffffffffffffffffffffffff1660008054906101000a900473ffffffffffffffffffffffffffffffffffffffff1673ffffffffffffffffffffffffffffffffffffffff16146122b9576040517f08c379a00000000000000000000000000000000000000000000000000000000081526004016122b090614ef8565b60405180910390fd5b600354600160008373ffffffffffffffffffffffffffffffffffffffff1673ffffffffffffffffffffffffffffffffffffffff1681526020019081526020016000206000018190555085600160008373ffffffffffffffffffffffffffffffffffffffff1673ffffffffffffffffffffffffffffffffffffffff1681526020019081526020016000206001019080519060200190612358929190613a06565b5084600160008373ffffffffffffffffffffffffffffffffffffffff1673ffffffffffffffffffffffffffffffffffffffff16815260200190815260200160002060020190805190602001906123af929190613a06565b5083600160008373ffffffffffffffffffffffffffffffffffffffff1673ffffffffffffffffffffffffffffffffffffffff1681526020019081526020016000206003019080519060200190612406929190613a06565b5082600160008373ffffffffffffffffffffffffffffffffffffffff1673ffffffffffffffffffffffffffffffffffffffff168152602001908152602001600020600401908051906020019061245d929190613a06565b5081600381111561247157612470614174565b5b600160008373ffffffffffffffffffffffffffffffffffffffff1673ffffffffffffffffffffffffffffffffffffffff16815260200190815260200160002060050160006101000a81548160ff021916908360038111156124d5576124d4614174565b5b021790555080600160008373ffffffffffffffffffffffffffffffffffffffff1673ffffffffffffffffffffffffffffffffffffffff16815260200190815260200160002060050160016101000a81548173ffffffffffffffffffffffffffffffffffffffff021916908373ffffffffffffffffffffffffffffffffffffffff16021790555081600381111561256e5761256d614174565b5b60038111156125805761257f614174565b5b8660405161258e9190614f18565b60405180910390208273ffffffffffffffffffffffffffffffffffffffff167fddb5d1667467713eb503e7e133811c91a231cb6b63f11930889c6004f36c35ee8888886040516125e093929190614f2f565b60405180910390a460026040518060e00160405280600354815260200188815260200187815260200186815260200185815260200184600381111561262857612627614174565b5b600381111561263a57612639614174565b5b81526020018373ffffffffffffffffffffffffffffffffffffffff1681525090806001815401808255809150506001900390600052602060002090600602016000909190919091506000820151816000015560208201518160010190805190602001906126a8929190613a06565b5060408201518160020190805190602001906126c5929190613a06565b5060608201518160030190805190602001906126e2929190613a06565b5060808201518160040190805190602001906126ff929190613a06565b5060a08201518160050160006101000a81548160ff0219169083600381111561272b5761272a614174565b5b021790555060c08201518160050160016101000a81548173ffffffffffffffffffffffffffffffffffffffff021916908373ffffffffffffffffffffffffffffffffffffffff16021790555050506003600081548092919061278c90614dd3565b9190505550505050505050565b600281815481106127a957600080fd5b90600052602060002090600602016000915090508060000154908060010180546127d290614e4b565b80601f01602080910402602001604051908101604052809291908181526020018280546127fe90614e4b565b801561284b5780601f106128205761010080835404028352916020019161284b565b820191906000526020600020905b81548152906001019060200180831161282e57829003601f168201915b50505050509080600201805461286090614e4b565b80601f016020809104026020016040519081016040528092919081815260200182805461288c90614e4b565b80156128d95780601f106128ae576101008083540402835291602001916128d9565b820191906000526020600020905b8154815290600101906020018083116128bc57829003601f168201915b5050505050908060030180546128ee90614e4b565b80601f016020809104026020016040519081016040528092919081815260200182805461291a90614e4b565b80156129675780601f1061293c57610100808354040283529160200191612967565b820191906000526020600020905b81548152906001019060200180831161294a57829003601f168201915b50505050509080600401805461297c90614e4b565b80601f01602080910402602001604051908101604052809291908181526020018280546129a890614e4b565b80156129f55780601f106129ca576101008083540402835291602001916129f5565b820191906000526020600020905b8154815290600101906020018083116129d857829003601f168201915b5050505050908060050160009054906101000a900460ff16908060050160019054906101000a900473ffffffffffffffffffffffffffffffffffffffff16905087565b6001602052806000526040600020600091509050806000015490806001018054612a6190614e4b565b80601f0160208091040260200160405190810160405280929190818152602001828054612a8d90614e4b565b8015612ada5780601f10612aaf57610100808354040283529160200191612ada565b820191906000526020600020905b815481529060010190602001808311612abd57829003601f168201915b505050505090806002018054612aef90614e4b565b80601f0160208091040260200160405190810160405280929190818152602001828054612b1b90614e4b565b8015612b685780601f10612b3d57610100808354040283529160200191612b68565b820191906000526020600020905b815481529060010190602001808311612b4b57829003601f168201915b505050505090806003018054612b7d90614e4b565b80601f0160208091040260200160405190810160405280929190818152602001828054612ba990614e4b565b8015612bf65780601f10612bcb57610100808354040283529160200191612bf6565b820191906000526020600020905b815481529060010190602001808311612bd957829003601f168201915b505050505090806004018054612c0b90614e4b565b80601f0160208091040260200160405190810160405280929190818152602001828054612c3790614e4b565b8015612c845780601f10612c5957610100808354040283529160200191612c84565b820191906000526020600020905b815481529060010190602001808311612c6757829003601f168201915b5050505050908060050160009054906101000a900460ff16908060050160019054906101000a900473ffffffffffffffffffffffffffffffffffffffff16905087565b60046005811115612cdb57612cda614174565b5b82606001516005811115612cf257612cf1614174565b5b14612d32576040517f08c379a0000000000000000000000000000000000000000000000000000000008152600401612d2990615013565b60405180910390fd5b600060096000600b548152602001908152602001600020905083816001019080519060200190612d63929190613a06565b5060008160020160006101000a81548160ff02191690836001811115612d8c57612d8b614174565b5b02179055508281600301600082015181600001556020820151816001019080519060200190612dbc929190613a06565b506040820151816002019080519060200190612dd9929190613a06565b5060608201518160030160006101000a81548160ff02191690836005811115612e0557612e04614174565b5b02179055506080820151816004019080519060200190612e26929190613a06565b5060a08201518160050160006101000a81548173ffffffffffffffffffffffffffffffffffffffff021916908373ffffffffffffffffffffffffffffffffffffffff16021790555060c08201518160060160006101000a81548173ffffffffffffffffffffffffffffffffffffffff021916908373ffffffffffffffffffffffffffffffffffffffff1602179055509050508181600a0160006101000a81548173ffffffffffffffffffffffffffffffffffffffff021916908373ffffffffffffffffffffffffffffffffffffffff1602179055507f33c92d8d5321f326b7d8ea72d246102a87d3a90cd054dd73f9f838d15d563922600b54600085866060015186604051612f39959493929190614d4a565b60405180910390a1600b6000815480929190612f5490614dd3565b919050555050505050565b3373ffffffffffffffffffffffffffffffffffffffff16600c60009054906101000a900473ffffffffffffffffffffffffffffffffffffffff1673ffffffffffffffffffffffffffffffffffffffff1614612fef576040517f08c379a0000000000000000000000000000000000000000000000000000000008152600401612fe690614b7c565b60405180910390fd5b60028160600190600581111561300857613007614174565b5b9081600581111561301c5761301b614174565b5b815250507f40d01b14078ab996f7adcb952248f25f6d0d544786fd14be9eab809b9a245b9b82600283600c60009054906101000a900473ffffffffffffffffffffffffffffffffffffffff166040516130789493929190615033565b60405180910390a15050565b60086020528060005260406000206000915090508060000154908060010180546130ad90614e4b565b80601f01602080910402602001604051908101604052809291908181526020018280546130d990614e4b565b80156131265780601f106130fb57610100808354040283529160200191613126565b820191906000526020600020905b81548152906001019060200180831161310957829003601f168201915b5050505050908060020160009054906101000a900460ff1690806003016040518060e00160405290816000820154815260200160018201805461316890614e4b565b80601f016020809104026020016040519081016040528092919081815260200182805461319490614e4b565b80156131e15780601f106131b6576101008083540402835291602001916131e1565b820191906000526020600020905b8154815290600101906020018083116131c457829003601f168201915b505050505081526020016002820180546131fa90614e4b565b80601f016020809104026020016040519081016040528092919081815260200182805461322690614e4b565b80156132735780601f1061324857610100808354040283529160200191613273565b820191906000526020600020905b81548152906001019060200180831161325657829003601f168201915b505050505081526020016003820160009054906101000a900460ff1660058111156132a1576132a0614174565b5b60058111156132b3576132b2614174565b5b81526020016004820180546132c790614e4b565b80601f01602080910402602001604051908101604052809291908181526020018280546132f390614e4b565b80156133405780601f1061331557610100808354040283529160200191613340565b820191906000526020600020905b81548152906001019060200180831161332357829003601f168201915b505050505081526020016005820160009054906101000a900473ffffffffffffffffffffffffffffffffffffffff1673ffffffffffffffffffffffffffffffffffffffff1673ffffffffffffffffffffffffffffffffffffffff1681526020016006820160009054906101000a900473ffffffffffffffffffffffffffffffffffffffff1673ffffffffffffffffffffffffffffffffffffffff1673ffffffffffffffffffffffffffffffffffffffff16815250509080600a0160009054906101000a900473ffffffffffffffffffffffffffffffffffffffff16905085565b60035481565b60606002805480602002602001604051908101604052809291908181526020016000905b8282101561375f57838290600052602060002090600602016040518060e00160405290816000820154815260200160018201805461348790614e4b565b80601f01602080910402602001604051908101604052809291908181526020018280546134b390614e4b565b80156135005780601f106134d557610100808354040283529160200191613500565b820191906000526020600020905b8154815290600101906020018083116134e357829003601f168201915b5050505050815260200160028201805461351990614e4b565b80601f016020809104026020016040519081016040528092919081815260200182805461354590614e4b565b80156135925780601f1061356757610100808354040283529160200191613592565b820191906000526020600020905b81548152906001019060200180831161357557829003601f168201915b505050505081526020016003820180546135ab90614e4b565b80601f01602080910402602001604051908101604052809291908181526020018280546135d790614e4b565b80156136245780601f106135f957610100808354040283529160200191613624565b820191906000526020600020905b81548152906001019060200180831161360757829003601f168201915b5050505050815260200160048201805461363d90614e4b565b80601f016020809104026020016040519081016040528092919081815260200182805461366990614e4b565b80156136b65780601f1061368b576101008083540402835291602001916136b6565b820191906000526020600020905b81548152906001019060200180831161369957829003601f168201915b505050505081526020016005820160009054906101000a900460ff1660038111156136e4576136e3614174565b5b60038111156136f6576136f5614174565b5b81526020016005820160019054906101000a900473ffffffffffffffffffffffffffffffffffffffff1673ffffffffffffffffffffffffffffffffffffffff1673ffffffffffffffffffffffffffffffffffffffff16815250508152602001906001019061344a565b50505050905090565b6001600581111561377c5761377b614174565b5b8260600151600581111561379357613792614174565b5b146137d3576040517f08c379a00000000000000000000000000000000000000000000000000000000081526004016137ca906150f8565b60405180910390fd5b600060086000600a548152602001908152602001600020905083816001019080519060200190613804929190613a06565b5060008160020160006101000a81548160ff0219169083600181111561382d5761382c614174565b5b0217905550828160030160008201518160000155602082015181600101908051906020019061385d929190613a06565b50604082015181600201908051906020019061387a929190613a06565b5060608201518160030160006101000a81548160ff021916908360058111156138a6576138a5614174565b5b021790555060808201518160040190805190602001906138c7929190613a06565b5060a08201518160050160006101000a81548173ffffffffffffffffffffffffffffffffffffffff021916908373ffffffffffffffffffffffffffffffffffffffff16021790555060c08201518160060160006101000a81548173ffffffffffffffffffffffffffffffffffffffff021916908373ffffffffffffffffffffffffffffffffffffffff1602179055509050508181600a0160006101000a81548173ffffffffffffffffffffffffffffffffffffffff021916908373ffffffffffffffffffffffffffffffffffffffff1602179055507fd1e03eeb3d8ec297426fd80db06effebb2b279248ffa875069c1dc83489c449b600a546000858660600151866040516139da959493929190614d4a565b60405180910390a1600a60008154809291906139f590614dd3565b919050555050505050565b60065481565b828054613a1290614e4b565b90600052602060002090601f016020900481019282613a345760008555613a7b565b82601f10613a4d57805160ff1916838001178555613a7b565b82800160010185558215613a7b579182015b82811115613a7a578251825591602001919060010190613a5f565b5b509050613a889190613b6c565b5090565b6040518060e0016040528060008152602001606081526020016060815260200160006005811115613ac057613abf614174565b5b815260200160608152602001600073ffffffffffffffffffffffffffffffffffffffff168152602001600073ffffffffffffffffffffffffffffffffffffffff1681525090565b6040518060e00160405280600081526020016060815260200160608152602001606081526020016060815260200160006003811115613b4957613b48614174565b5b8152602001600073ffffffffffffffffffffffffffffffffffffffff1681525090565b5b80821115613b85576000816000905550600101613b6d565b5090565b6000604051905090565b600080fd5b600080fd5b600080fd5b6000601f19601f8301169050919050565b7f4e487b7100000000000000000000000000000000000000000000000000000000600052604160045260246000fd5b613beb82613ba2565b810181811067ffffffffffffffff82111715613c0a57613c09613bb3565b5b80604052505050565b6000613c1d613b89565b9050613c298282613be2565b919050565b600080fd5b6000819050919050565b613c4681613c33565b8114613c5157600080fd5b50565b600081359050613c6381613c3d565b92915050565b600080fd5b600080fd5b600067ffffffffffffffff821115613c8e57613c8d613bb3565b5b613c9782613ba2565b9050602081019050919050565b82818337600083830152505050565b6000613cc6613cc184613c73565b613c13565b905082815260208101848484011115613ce257613ce1613c6e565b5b613ced848285613ca4565b509392505050565b600082601f830112613d0a57613d09613c69565b5b8135613d1a848260208601613cb3565b91505092915050565b60068110613d3057600080fd5b50565b600081359050613d4281613d23565b92915050565b600073ffffffffffffffffffffffffffffffffffffffff82169050919050565b6000613d7382613d48565b9050919050565b613d8381613d68565b8114613d8e57600080fd5b50565b600081359050613da081613d7a565b92915050565b600060e08284031215613dbc57613dbb613b9d565b5b613dc660e0613c13565b90506000613dd684828501613c54565b600083015250602082013567ffffffffffffffff811115613dfa57613df9613c2e565b5b613e0684828501613cf5565b602083015250604082013567ffffffffffffffff811115613e2a57613e29613c2e565b5b613e3684828501613cf5565b6040830152506060613e4a84828501613d33565b606083015250608082013567ffffffffffffffff811115613e6e57613e6d613c2e565b5b613e7a84828501613cf5565b60808301525060a0613e8e84828501613d91565b60a08301525060c0613ea284828501613d91565b60c08301525092915050565b600060208284031215613ec457613ec3613b93565b5b600082013567ffffffffffffffff811115613ee257613ee1613b98565b5b613eee84828501613da6565b91505092915050565b600060208284031215613f0d57613f0c613b93565b5b600082013567ffffffffffffffff811115613f2b57613f2a613b98565b5b613f3784828501613cf5565b91505092915050565b613f4981613d68565b82525050565b6000602082019050613f646000830184613f40565b92915050565b600080600060608486031215613f8357613f82613b93565b5b600084013567ffffffffffffffff811115613fa157613fa0613b98565b5b613fad86828701613cf5565b935050602084013567ffffffffffffffff811115613fce57613fcd613b98565b5b613fda86828701613da6565b9250506040613feb86828701613d91565b9150509250925092565b6000806000806080858703121561400f5761400e613b93565b5b600085013567ffffffffffffffff81111561402d5761402c613b98565b5b61403987828801613cf5565b945050602085013567ffffffffffffffff81111561405a57614059613b98565b5b61406687828801613cf5565b935050604061407787828801613c54565b925050606085013567ffffffffffffffff81111561409857614097613b98565b5b6140a487828801613cf5565b91505092959194509250565b6000602082840312156140c6576140c5613b93565b5b60006140d484828501613d91565b91505092915050565b6140e681613c33565b82525050565b600081519050919050565b600082825260208201905092915050565b60005b8381101561412657808201518184015260208101905061410b565b83811115614135576000848401525b50505050565b6000614146826140ec565b61415081856140f7565b9350614160818560208601614108565b61416981613ba2565b840191505092915050565b7f4e487b7100000000000000000000000000000000000000000000000000000000600052602160045260246000fd5b600681106141b4576141b3614174565b5b50565b60008190506141c5826141a3565b919050565b60006141d5826141b7565b9050919050565b6141e5816141ca565b82525050565b6141f481613d68565b82525050565b600060e08301600083015161421260008601826140dd565b506020830151848203602086015261422a828261413b565b91505060408301518482036040860152614244828261413b565b915050606083015161425960608601826141dc565b5060808301518482036080860152614271828261413b565b91505060a083015161428660a08601826141eb565b5060c083015161429960c08601826141eb565b508091505092915050565b600060208201905081810360008301526142be81846141fa565b905092915050565b6000602082840312156142dc576142db613b93565b5b60006142ea84828501613c54565b91505092915050565b6142fc81613c33565b82525050565b600082825260208201905092915050565b600061431e826140ec565b6143288185614302565b9350614338818560208601614108565b61434181613ba2565b840191505092915050565b614355816141ca565b82525050565b600060e082019050614370600083018a6142f3565b81810360208301526143828189614313565b905081810360408301526143968188614313565b90506143a5606083018761434c565b81810360808301526143b78186614313565b90506143c660a0830185613f40565b6143d360c0830184613f40565b98975050505050505050565b600481106143f0576143ef614174565b5b50565b6000819050614401826143df565b919050565b6000614411826143f3565b9050919050565b61442181614406565b82525050565b600060e08301600083015161443f60008601826140dd565b5060208301518482036020860152614457828261413b565b91505060408301518482036040860152614471828261413b565b9150506060830151848203606086015261448b828261413b565b915050608083015184820360808601526144a5828261413b565b91505060a08301516144ba60a0860182614418565b5060c08301516144cd60c08601826141eb565b508091505092915050565b600060208201905081810360008301526144f28184614427565b905092915050565b600081519050919050565b600082825260208201905092915050565b6000819050602082019050919050565b600060e08301600083015161453e60008601826140dd565b5060208301518482036020860152614556828261413b565b91505060408301518482036040860152614570828261413b565b915050606083015161458560608601826141dc565b506080830151848203608086015261459d828261413b565b91505060a08301516145b260a08601826141eb565b5060c08301516145c560c08601826141eb565b508091505092915050565b60006145dc8383614526565b905092915050565b6000602082019050919050565b60006145fc826144fa565b6146068185614505565b93508360208202850161461885614516565b8060005b85811015614654578484038952815161463585826145d0565b9450614640836145e4565b925060208a0199505060018101905061461c565b50829750879550505050505092915050565b6000602082019050818103600083015261468081846145f1565b905092915050565b6002811061469957614698614174565b5b50565b60008190506146aa82614688565b919050565b60006146ba8261469c565b9050919050565b6146ca816146af565b82525050565b600060a0820190506146e560008301886142f3565b81810360208301526146f78187614313565b905061470660408301866146c1565b818103606083015261471881856141fa565b90506147276080830184613f40565b9695505050505050565b6000806040838503121561474857614747613b93565b5b600061475685828601613c54565b925050602061476785828601613d91565b9150509250929050565b60008060008060008060c0878903121561478e5761478d613b93565b5b600087013567ffffffffffffffff8111156147ac576147ab613b98565b5b6147b889828a01613cf5565b965050602087013567ffffffffffffffff8111156147d9576147d8613b98565b5b6147e589828a01613cf5565b955050604087013567ffffffffffffffff81111561480657614805613b98565b5b61481289828a01613cf5565b945050606087013567ffffffffffffffff81111561483357614832613b98565b5b61483f89828a01613cf5565b935050608061485089828a01613c54565b92505060a061486189828a01613d91565b9150509295509295509295565b61487781614406565b82525050565b600060e082019050614892600083018a6142f3565b81810360208301526148a48189614313565b905081810360408301526148b88188614313565b905081810360608301526148cc8187614313565b905081810360808301526148e08186614313565b90506148ef60a083018561486e565b6148fc60c0830184613f40565b98975050505050505050565b6000806040838503121561491f5761491e613b93565b5b600083013567ffffffffffffffff81111561493d5761493c613b98565b5b61494985828601613cf5565b925050602083013567ffffffffffffffff81111561496a57614969613b98565b5b61497685828601613da6565b9150509250929050565b600060208201905061499560008301846142f3565b92915050565b600081519050919050565b600082825260208201905092915050565b6000819050602082019050919050565b600060e0830160008301516149df60008601826140dd565b50602083015184820360208601526149f7828261413b565b91505060408301518482036040860152614a11828261413b565b91505060608301518482036060860152614a2b828261413b565b91505060808301518482036080860152614a45828261413b565b91505060a0830151614a5a60a0860182614418565b5060c0830151614a6d60c08601826141eb565b508091505092915050565b6000614a8483836149c7565b905092915050565b6000602082019050919050565b6000614aa48261499b565b614aae81856149a6565b935083602082028501614ac0856149b7565b8060005b85811015614afc5784840389528151614add8582614a78565b9450614ae883614a8c565b925060208a01995050600181019050614ac4565b50829750879550505050505092915050565b60006020820190508181036000830152614b288184614a99565b905092915050565b7f596f7520617265206e6f74206120636f6d70616e79206275696c646572000000600082015250565b6000614b66601d83614302565b9150614b7182614b30565b602082019050919050565b60006020820190508181036000830152614b9581614b59565b9050919050565b6000606082019050614bb1600083018661434c565b8181036020830152614bc381856141fa565b9050614bd26040830184613f40565b949350505050565b600081905092915050565b6000614bf0826140ec565b614bfa8185614bda565b9350614c0a818560208601614108565b80840191505092915050565b60008160601b9050919050565b6000614c2e82614c16565b9050919050565b6000614c4082614c23565b9050919050565b614c58614c5382613d68565b614c35565b82525050565b6000819050919050565b614c79614c7482613c33565b614c5e565b82525050565b6000614c8b8286614be5565b9150614c978285614c47565b601482019150614ca78284614c68565b602082019150819050949350505050565b7f5468652070726f6a656374206973206e6f7420637265617465642c207468652060008201527f6f7065726174696f6e2063616e6e6f7420626520646f6e652e00000000000000602082015250565b6000614d14603983614302565b9150614d1f82614cb8565b604082019050919050565b60006020820190508181036000830152614d4381614d07565b9050919050565b600060a082019050614d5f60008301886142f3565b614d6c60208301876146c1565b8181036040830152614d7e81866141fa565b9050614d8d606083018561434c565b614d9a6080830184613f40565b9695505050505050565b7f4e487b7100000000000000000000000000000000000000000000000000000000600052601160045260246000fd5b6000614dde82613c33565b91507fffffffffffffffffffffffffffffffffffffffffffffffffffffffffffffffff821415614e1157614e10614da4565b5b600182019050919050565b7f4e487b7100000000000000000000000000000000000000000000000000000000600052602260045260246000fd5b60006002820490506001821680614e6357607f821691505b60208210811415614e7757614e76614e1c565b5b50919050565b7f4e487b7100000000000000000000000000000000000000000000000000000000600052603260045260246000fd5b7f596f7520617265206e6f7420616e206f776e6572000000000000000000000000600082015250565b6000614ee2601483614302565b9150614eed82614eac565b602082019050919050565b60006020820190508181036000830152614f1181614ed5565b9050919050565b6000614f248284614be5565b915081905092915050565b60006060820190508181036000830152614f498186614313565b90508181036020830152614f5d8185614313565b90508181036040830152614f718184614313565b9050949350505050565b7f5468652070726f6a656374206973206e6f7420696e2074686520274265666f7260008201527f6546696e616c697a6174696f6e436865636b27207374617475732c207468652060208201527f6f7065726174696f6e2063616e6e6f7420626520646f6e652e00000000000000604082015250565b6000614ffd605983614302565b915061500882614f7b565b606082019050919050565b6000602082019050818103600083015261502c81614ff0565b9050919050565b6000608082019050818103600083015261504d8187614313565b905061505c602083018661434c565b818103604083015261506e81856141fa565b905061507d6060830184613f40565b95945050505050565b7f5468652070726f6a656374206973206e6f7420617070726f7665642c2074686560008201527f206f7065726174696f6e2063616e6e6f7420626520646f6e652e000000000000602082015250565b60006150e2603a83614302565b91506150ed82615086565b604082019050919050565b60006020820190508181036000830152615111816150d5565b905091905056fea2646970667358221220a0de95572d3c03e52faeb6c2f1d32815ed666d5953fa2b706292e833a082b64064736f6c634300080a0033",
  "immutableReferences": {},
  "source": "// SPDX-License-Identifier: MIT\r\npragma solidity >=0.8.0 <0.9.0;\r\n\r\nimport \"./ProjectChain.sol\";\r\n\r\ncontract CompanyChain is ProjectChain {\r\n\r\n    address _companyAddress;\r\n\r\n    event ApproveProjectRequestByCompany(ProjectStatus _status, Project _project, address _subjectAddress);\r\n    event RejectProjectRequestByCompany(string _description, ProjectStatus _status, Project _project, address _subjectAddress);\r\n    event BeforeFinalizationProjectRequestByCompany(ProjectStatus _status, Project _project, address _subjectAddress);\r\n\r\n    constructor() {\r\n        _companyAddress = msg.sender;\r\n    }\r\n\r\n    modifier onlyCompany {\r\n        require(_companyAddress == msg.sender, \"You are not a company builder\");\r\n        _;\r\n    }\r\n\r\n    // Add some contrainst / verification TOOO DOOO -> LATER\r\n\r\n    function setProjectRequestToOnGoingStatus(Project memory _project) public onlyCompany {\r\n        _project._status = ProjectStatus.OnGoing;\r\n        emit ApproveProjectRequestByCompany(ProjectStatus.OnGoing, _project, _companyAddress);\r\n    }\r\n\r\n    function setProjectRequestToRejectStatus(string memory _description, Project memory _project) public onlyCompany {\r\n        _project._status = ProjectStatus.Rejected;\r\n        emit RejectProjectRequestByCompany(_description, ProjectStatus.Rejected, _project, _companyAddress);\r\n    }\r\n\r\n    function setProjectRequestToBeforeFinalizationStatus(Project memory _project)  public onlyCompany {\r\n        _project._status = ProjectStatus.FinalizationCheck;\r\n        emit BeforeFinalizationProjectRequestByCompany(ProjectStatus.FinalizationCheck, _project, _companyAddress);\r\n    }\r\n}\r\n",
  "sourcePath": "/mnt/c/users/beniamin/source/repos/dissertationproject/contracts/CompanyChain.sol",
  "compiler": {
    "name": "solc",
    "version": "0.8.10+commit.fc410830.Emscripten.clang"
  },
  "schemaVersion": "3.4.3",
  "updatedAt": "2021-11-20T05:59:28.618Z",
  "devdoc": {
    "kind": "dev",
    "methods": {},
    "version": 1
  },
  "userdoc": {
    "kind": "user",
    "methods": {},
    "version": 1
  }
}