{
  "contractName": "CompanyBuilder",
  "abi": [
    {
      "inputs": [],
      "stateMutability": "nonpayable",
      "type": "constructor"
    },
    {
      "anonymous": false,
      "inputs": [
        {
          "indexed": false,
          "internalType": "enum Project.ProjectStatus",
          "name": "_status",
          "type": "uint8"
        },
        {
          "components": [
            {
              "internalType": "uint256",
              "name": "index",
              "type": "uint256"
            },
            {
              "internalType": "bytes32",
              "name": "identifier",
              "type": "bytes32"
            },
            {
              "internalType": "string",
              "name": "description",
              "type": "string"
            },
            {
              "internalType": "enum Project.ProjectStatus",
              "name": "projectStatus",
              "type": "uint8"
            }
          ],
          "indexed": false,
          "internalType": "struct Project.S_Project",
          "name": "_project",
          "type": "tuple"
        },
        {
          "indexed": false,
          "internalType": "address",
          "name": "_subjectAddress",
          "type": "address"
        }
      ],
      "name": "ApproveProjectRequestByCompany",
      "type": "event"
    },
    {
      "anonymous": false,
      "inputs": [
        {
          "indexed": false,
          "internalType": "enum Project.ProjectStatus",
          "name": "_status",
          "type": "uint8"
        },
        {
          "components": [
            {
              "internalType": "uint256",
              "name": "index",
              "type": "uint256"
            },
            {
              "internalType": "bytes32",
              "name": "identifier",
              "type": "bytes32"
            },
            {
              "internalType": "string",
              "name": "description",
              "type": "string"
            },
            {
              "internalType": "enum Project.ProjectStatus",
              "name": "projectStatus",
              "type": "uint8"
            }
          ],
          "indexed": false,
          "internalType": "struct Project.S_Project",
          "name": "_project",
          "type": "tuple"
        },
        {
          "indexed": false,
          "internalType": "address",
          "name": "_subjectAddress",
          "type": "address"
        }
      ],
      "name": "BeforeFinalizationProjectRequestByCompany",
      "type": "event"
    },
    {
      "anonymous": false,
      "inputs": [
        {
          "indexed": false,
          "internalType": "uint256",
          "name": "_indexProject",
          "type": "uint256"
        },
        {
          "indexed": false,
          "internalType": "enum Project.ProjectStatus",
          "name": "_projectStatus",
          "type": "uint8"
        },
        {
          "indexed": false,
          "internalType": "address",
          "name": "_address",
          "type": "address"
        }
      ],
      "name": "CreateProject",
      "type": "event"
    },
    {
      "anonymous": false,
      "inputs": [
        {
          "indexed": false,
          "internalType": "string",
          "name": "_description",
          "type": "string"
        },
        {
          "indexed": false,
          "internalType": "enum Project.ProjectStatus",
          "name": "_status",
          "type": "uint8"
        },
        {
          "components": [
            {
              "internalType": "uint256",
              "name": "index",
              "type": "uint256"
            },
            {
              "internalType": "bytes32",
              "name": "identifier",
              "type": "bytes32"
            },
            {
              "internalType": "string",
              "name": "description",
              "type": "string"
            },
            {
              "internalType": "enum Project.ProjectStatus",
              "name": "projectStatus",
              "type": "uint8"
            }
          ],
          "indexed": false,
          "internalType": "struct Project.S_Project",
          "name": "_project",
          "type": "tuple"
        },
        {
          "indexed": false,
          "internalType": "address",
          "name": "_subjectAddress",
          "type": "address"
        }
      ],
      "name": "RejectProjectRequestByCompany",
      "type": "event"
    },
    {
      "anonymous": false,
      "inputs": [
        {
          "indexed": false,
          "internalType": "uint256",
          "name": "_indexRequest",
          "type": "uint256"
        },
        {
          "indexed": false,
          "internalType": "enum Project.RequestStatus",
          "name": "_status",
          "type": "uint8"
        },
        {
          "components": [
            {
              "internalType": "uint256",
              "name": "index",
              "type": "uint256"
            },
            {
              "internalType": "bytes32",
              "name": "identifier",
              "type": "bytes32"
            },
            {
              "internalType": "string",
              "name": "description",
              "type": "string"
            },
            {
              "internalType": "enum Project.ProjectStatus",
              "name": "projectStatus",
              "type": "uint8"
            }
          ],
          "indexed": false,
          "internalType": "struct Project.S_Project",
          "name": "_project",
          "type": "tuple"
        },
        {
          "indexed": false,
          "internalType": "enum Project.ProjectStatus",
          "name": "_projectStatus",
          "type": "uint8"
        },
        {
          "indexed": false,
          "internalType": "address",
          "name": "_subjectAddress",
          "type": "address"
        }
      ],
      "name": "UpdateCompanyRequestStatus",
      "type": "event"
    },
    {
      "anonymous": false,
      "inputs": [
        {
          "indexed": false,
          "internalType": "uint256",
          "name": "_indexRequest",
          "type": "uint256"
        },
        {
          "indexed": false,
          "internalType": "enum Project.RequestStatus",
          "name": "_status",
          "type": "uint8"
        },
        {
          "components": [
            {
              "internalType": "uint256",
              "name": "index",
              "type": "uint256"
            },
            {
              "internalType": "bytes32",
              "name": "identifier",
              "type": "bytes32"
            },
            {
              "internalType": "string",
              "name": "description",
              "type": "string"
            },
            {
              "internalType": "enum Project.ProjectStatus",
              "name": "projectStatus",
              "type": "uint8"
            }
          ],
          "indexed": false,
          "internalType": "struct Project.S_Project",
          "name": "_project",
          "type": "tuple"
        },
        {
          "indexed": false,
          "internalType": "enum Project.ProjectStatus",
          "name": "_projectStatus",
          "type": "uint8"
        },
        {
          "indexed": false,
          "internalType": "address",
          "name": "_subjectAddress",
          "type": "address"
        }
      ],
      "name": "UpdateSupervisorRequestStatus",
      "type": "event"
    },
    {
      "anonymous": false,
      "inputs": [
        {
          "indexed": true,
          "internalType": "address",
          "name": "_walletAddress",
          "type": "address"
        },
        {
          "indexed": true,
          "internalType": "string",
          "name": "_username",
          "type": "string"
        },
        {
          "indexed": false,
          "internalType": "string",
          "name": "_email",
          "type": "string"
        },
        {
          "indexed": false,
          "internalType": "string",
          "name": "_firstname",
          "type": "string"
        },
        {
          "indexed": false,
          "internalType": "string",
          "name": "_lastname",
          "type": "string"
        },
        {
          "indexed": true,
          "internalType": "enum User.Roles",
          "name": "_role",
          "type": "uint8"
        }
      ],
      "name": "UserRegistered",
      "type": "event"
    },
    {
      "inputs": [
        {
          "internalType": "uint256",
          "name": "_role",
          "type": "uint256"
        },
        {
          "internalType": "address",
          "name": "_walletAddress",
          "type": "address"
        }
      ],
      "name": "changeUserRole",
      "outputs": [
        {
          "internalType": "string",
          "name": "",
          "type": "string"
        }
      ],
      "stateMutability": "nonpayable",
      "type": "function"
    },
    {
      "inputs": [
        {
          "internalType": "uint256",
          "name": "",
          "type": "uint256"
        }
      ],
      "name": "companyRequests",
      "outputs": [
        {
          "internalType": "uint256",
          "name": "index",
          "type": "uint256"
        },
        {
          "internalType": "string",
          "name": "description",
          "type": "string"
        },
        {
          "internalType": "enum Project.RequestStatus",
          "name": "status",
          "type": "uint8"
        },
        {
          "components": [
            {
              "internalType": "uint256",
              "name": "index",
              "type": "uint256"
            },
            {
              "internalType": "bytes32",
              "name": "identifier",
              "type": "bytes32"
            },
            {
              "internalType": "string",
              "name": "description",
              "type": "string"
            },
            {
              "internalType": "enum Project.ProjectStatus",
              "name": "projectStatus",
              "type": "uint8"
            }
          ],
          "internalType": "struct Project.S_Project",
          "name": "project",
          "type": "tuple"
        },
        {
          "internalType": "address",
          "name": "subjectAddress",
          "type": "address"
        }
      ],
      "stateMutability": "view",
      "type": "function"
    },
    {
      "inputs": [
        {
          "internalType": "uint256",
          "name": "_index",
          "type": "uint256"
        },
        {
          "internalType": "string",
          "name": "_description",
          "type": "string"
        },
        {
          "internalType": "enum Project.ProjectStatus",
          "name": "_status",
          "type": "uint8"
        },
        {
          "internalType": "string",
          "name": "_hashStringValue",
          "type": "string"
        }
      ],
      "name": "createProject",
      "outputs": [],
      "stateMutability": "nonpayable",
      "type": "function"
    },
    {
      "inputs": [
        {
          "internalType": "string",
          "name": "_text",
          "type": "string"
        },
        {
          "internalType": "address",
          "name": "_addr",
          "type": "address"
        }
      ],
      "name": "createUniqueIdentifier",
      "outputs": [
        {
          "internalType": "bytes32",
          "name": "",
          "type": "bytes32"
        }
      ],
      "stateMutability": "pure",
      "type": "function"
    },
    {
      "inputs": [],
      "name": "getUserAddresses",
      "outputs": [
        {
          "internalType": "address[]",
          "name": "",
          "type": "address[]"
        }
      ],
      "stateMutability": "view",
      "type": "function"
    },
    {
      "inputs": [
        {
          "internalType": "address",
          "name": "_address",
          "type": "address"
        }
      ],
      "name": "getUserInfo",
      "outputs": [
        {
          "components": [
            {
              "internalType": "string",
              "name": "username",
              "type": "string"
            },
            {
              "internalType": "string",
              "name": "email",
              "type": "string"
            },
            {
              "internalType": "string",
              "name": "firstname",
              "type": "string"
            },
            {
              "internalType": "string",
              "name": "lastname",
              "type": "string"
            },
            {
              "internalType": "enum User.Roles",
              "name": "role",
              "type": "uint8"
            },
            {
              "internalType": "address",
              "name": "walletAddress",
              "type": "address"
            }
          ],
          "internalType": "struct User.S_UserData",
          "name": "",
          "type": "tuple"
        }
      ],
      "stateMutability": "view",
      "type": "function"
    },
    {
      "inputs": [],
      "name": "owner",
      "outputs": [
        {
          "internalType": "address",
          "name": "",
          "type": "address"
        }
      ],
      "stateMutability": "view",
      "type": "function"
    },
    {
      "inputs": [
        {
          "internalType": "uint256",
          "name": "",
          "type": "uint256"
        }
      ],
      "name": "projects",
      "outputs": [
        {
          "internalType": "uint256",
          "name": "index",
          "type": "uint256"
        },
        {
          "internalType": "bytes32",
          "name": "identifier",
          "type": "bytes32"
        },
        {
          "internalType": "string",
          "name": "description",
          "type": "string"
        },
        {
          "internalType": "enum Project.ProjectStatus",
          "name": "projectStatus",
          "type": "uint8"
        }
      ],
      "stateMutability": "view",
      "type": "function"
    },
    {
      "inputs": [
        {
          "internalType": "string",
          "name": "_username",
          "type": "string"
        },
        {
          "internalType": "string",
          "name": "_email",
          "type": "string"
        },
        {
          "internalType": "string",
          "name": "_firstname",
          "type": "string"
        },
        {
          "internalType": "string",
          "name": "_lastname",
          "type": "string"
        },
        {
          "internalType": "uint256",
          "name": "_role",
          "type": "uint256"
        },
        {
          "internalType": "address",
          "name": "_walletAddress",
          "type": "address"
        }
      ],
      "name": "registerUser",
      "outputs": [],
      "stateMutability": "nonpayable",
      "type": "function"
    },
    {
      "inputs": [
        {
          "internalType": "string",
          "name": "_description",
          "type": "string"
        },
        {
          "components": [
            {
              "internalType": "uint256",
              "name": "index",
              "type": "uint256"
            },
            {
              "internalType": "bytes32",
              "name": "identifier",
              "type": "bytes32"
            },
            {
              "internalType": "string",
              "name": "description",
              "type": "string"
            },
            {
              "internalType": "enum Project.ProjectStatus",
              "name": "projectStatus",
              "type": "uint8"
            }
          ],
          "internalType": "struct Project.S_Project",
          "name": "_project",
          "type": "tuple"
        },
        {
          "internalType": "address",
          "name": "_subjectAddress",
          "type": "address"
        }
      ],
      "name": "requestProjectApprovalFromSupervisor",
      "outputs": [],
      "stateMutability": "nonpayable",
      "type": "function"
    },
    {
      "inputs": [
        {
          "internalType": "string",
          "name": "_description",
          "type": "string"
        },
        {
          "components": [
            {
              "internalType": "uint256",
              "name": "index",
              "type": "uint256"
            },
            {
              "internalType": "bytes32",
              "name": "identifier",
              "type": "bytes32"
            },
            {
              "internalType": "string",
              "name": "description",
              "type": "string"
            },
            {
              "internalType": "enum Project.ProjectStatus",
              "name": "projectStatus",
              "type": "uint8"
            }
          ],
          "internalType": "struct Project.S_Project",
          "name": "_project",
          "type": "tuple"
        },
        {
          "internalType": "address",
          "name": "_subjectAddress",
          "type": "address"
        }
      ],
      "name": "requestProjectCompleteFromSupervisor",
      "outputs": [],
      "stateMutability": "nonpayable",
      "type": "function"
    },
    {
      "inputs": [
        {
          "internalType": "string",
          "name": "_description",
          "type": "string"
        },
        {
          "components": [
            {
              "internalType": "uint256",
              "name": "index",
              "type": "uint256"
            },
            {
              "internalType": "bytes32",
              "name": "identifier",
              "type": "bytes32"
            },
            {
              "internalType": "string",
              "name": "description",
              "type": "string"
            },
            {
              "internalType": "enum Project.ProjectStatus",
              "name": "projectStatus",
              "type": "uint8"
            }
          ],
          "internalType": "struct Project.S_Project",
          "name": "_project",
          "type": "tuple"
        },
        {
          "internalType": "address",
          "name": "_subjectAddress",
          "type": "address"
        }
      ],
      "name": "requestStartProjectToCompanyBuilder",
      "outputs": [],
      "stateMutability": "nonpayable",
      "type": "function"
    },
    {
      "inputs": [
        {
          "internalType": "uint256",
          "name": "",
          "type": "uint256"
        }
      ],
      "name": "supervisorRequests",
      "outputs": [
        {
          "internalType": "uint256",
          "name": "index",
          "type": "uint256"
        },
        {
          "internalType": "string",
          "name": "description",
          "type": "string"
        },
        {
          "internalType": "enum Project.RequestStatus",
          "name": "status",
          "type": "uint8"
        },
        {
          "components": [
            {
              "internalType": "uint256",
              "name": "index",
              "type": "uint256"
            },
            {
              "internalType": "bytes32",
              "name": "identifier",
              "type": "bytes32"
            },
            {
              "internalType": "string",
              "name": "description",
              "type": "string"
            },
            {
              "internalType": "enum Project.ProjectStatus",
              "name": "projectStatus",
              "type": "uint8"
            }
          ],
          "internalType": "struct Project.S_Project",
          "name": "project",
          "type": "tuple"
        },
        {
          "internalType": "address",
          "name": "subjectAddress",
          "type": "address"
        }
      ],
      "stateMutability": "view",
      "type": "function"
    },
    {
      "inputs": [
        {
          "internalType": "uint256",
          "name": "",
          "type": "uint256"
        }
      ],
      "name": "userAddresses",
      "outputs": [
        {
          "internalType": "address",
          "name": "",
          "type": "address"
        }
      ],
      "stateMutability": "view",
      "type": "function"
    },
    {
      "inputs": [
        {
          "internalType": "address",
          "name": "",
          "type": "address"
        }
      ],
      "name": "userInfo",
      "outputs": [
        {
          "internalType": "string",
          "name": "username",
          "type": "string"
        },
        {
          "internalType": "string",
          "name": "email",
          "type": "string"
        },
        {
          "internalType": "string",
          "name": "firstname",
          "type": "string"
        },
        {
          "internalType": "string",
          "name": "lastname",
          "type": "string"
        },
        {
          "internalType": "enum User.Roles",
          "name": "role",
          "type": "uint8"
        },
        {
          "internalType": "address",
          "name": "walletAddress",
          "type": "address"
        }
      ],
      "stateMutability": "view",
      "type": "function"
    },
    {
      "inputs": [],
      "name": "usersCount",
      "outputs": [
        {
          "internalType": "uint256",
          "name": "",
          "type": "uint256"
        }
      ],
      "stateMutability": "view",
      "type": "function"
    },
    {
      "inputs": [
        {
          "components": [
            {
              "internalType": "uint256",
              "name": "index",
              "type": "uint256"
            },
            {
              "internalType": "bytes32",
              "name": "identifier",
              "type": "bytes32"
            },
            {
              "internalType": "string",
              "name": "description",
              "type": "string"
            },
            {
              "internalType": "enum Project.ProjectStatus",
              "name": "projectStatus",
              "type": "uint8"
            }
          ],
          "internalType": "struct Project.S_Project",
          "name": "_project",
          "type": "tuple"
        }
      ],
      "name": "setProjectRequestToOnGoingStatus",
      "outputs": [],
      "stateMutability": "nonpayable",
      "type": "function"
    },
    {
      "inputs": [
        {
          "internalType": "string",
          "name": "_description",
          "type": "string"
        },
        {
          "components": [
            {
              "internalType": "uint256",
              "name": "index",
              "type": "uint256"
            },
            {
              "internalType": "bytes32",
              "name": "identifier",
              "type": "bytes32"
            },
            {
              "internalType": "string",
              "name": "description",
              "type": "string"
            },
            {
              "internalType": "enum Project.ProjectStatus",
              "name": "projectStatus",
              "type": "uint8"
            }
          ],
          "internalType": "struct Project.S_Project",
          "name": "_project",
          "type": "tuple"
        }
      ],
      "name": "setProjectRequestToRejectStatus",
      "outputs": [],
      "stateMutability": "nonpayable",
      "type": "function"
    },
    {
      "inputs": [
        {
          "components": [
            {
              "internalType": "uint256",
              "name": "index",
              "type": "uint256"
            },
            {
              "internalType": "bytes32",
              "name": "identifier",
              "type": "bytes32"
            },
            {
              "internalType": "string",
              "name": "description",
              "type": "string"
            },
            {
              "internalType": "enum Project.ProjectStatus",
              "name": "projectStatus",
              "type": "uint8"
            }
          ],
          "internalType": "struct Project.S_Project",
          "name": "_project",
          "type": "tuple"
        }
      ],
      "name": "setProjectRequestToBeforeFinalizationStatus",
      "outputs": [],
      "stateMutability": "nonpayable",
      "type": "function"
    }
  ],
  "bytecode": "0x6080604052600060025534801561001557600080fd5b5033600160006101000a81548173ffffffffffffffffffffffffffffffffffffffff021916908373ffffffffffffffffffffffffffffffffffffffff16021790555033600460006101000a81548173ffffffffffffffffffffffffffffffffffffffff021916908373ffffffffffffffffffffffffffffffffffffffff16021790555033600b60006101000a81548173ffffffffffffffffffffffffffffffffffffffff021916908373ffffffffffffffffffffffffffffffffffffffff160217905550613281806100e86000396000f3fe608060405234801561001057600080fd5b50600436106101215760003560e01c806381f274d4116100ad578063934f91c511610071578063934f91c51461034a578063a591efde14610366578063afb6da0e14610384578063b5125599146103a0578063d40d4a80146103bc57610121565b806381f274d4146102905780638c86a1d7146102ac5780638da5cb5b146102e057806391009786146102fe578063911c29a61461032e57610121565b8063502c9bd5116100f4578063502c9bd5146101c65780635502fc65146101f65780636132844f146102125780636386c1c7146102425780636ba13a821461027257610121565b8063065ea2d314610126578063107046bd146101425780631959a00214610175578063332ba3cd146101aa575b600080fd5b610140600480360381019061013b919061219b565b6103f0565b005b61015c6004803603810190610157919061223a565b610503565b60405161016c949392919061238e565b60405180910390f35b61018f600480360381019061018a9190612438565b6105c8565b6040516101a1969594939291906124bc565b60405180910390f35b6101c460048036038101906101bf9190612603565b610851565b005b6101e060048036038101906101db919061223a565b610976565b6040516101ed919061267b565b60405180910390f35b610210600480360381019061020b9190612696565b6109b5565b005b61022c60048036038101906102279190612721565b610b8f565b604051610239919061277d565b60405180910390f35b61025c60048036038101906102579190612438565b610bc2565b604051610269919061289e565b60405180910390f35b61027a610ef3565b60405161028791906128c0565b60405180910390f35b6102aa60048036038101906102a591906128db565b610ef9565b005b6102c660048036038101906102c1919061223a565b61101b565b6040516102d79594939291906129fc565b60405180910390f35b6102e86111f1565b6040516102f5919061267b565b60405180910390f35b61031860048036038101906103139190612a5d565b611217565b6040516103259190612a9d565b60405180910390f35b61034860048036038101906103439190612abf565b611362565b005b610364600480360381019061035f91906128db565b6117ab565b005b61036e6118cd565b60405161037b9190612c6b565b60405180910390f35b61039e60048036038101906103999190612696565b61195b565b005b6103ba60048036038101906103b59190612696565b611b35565b005b6103d660048036038101906103d1919061223a565b611d0f565b6040516103e79594939291906129fc565b60405180910390f35b60006103fd826000610b8f565b905084600560006008548152602001908152602001600020600001819055508060056000600854815260200190815260200160002060010181905550836005600060085481526020019081526020016000206002019080519060200190610465929190611ee5565b508260056000600854815260200190815260200160002060030160006101000a81548160ff021916908360058111156104a1576104a0612317565b5b02179055507fa33c40728c332bcc45ac23baebf405684a95db2bcea19967f32f1c59384c0e886008546000806040516104dc93929190612c8d565b60405180910390a1600860008154809291906104f790612cf3565b91905055505050505050565b600560205280600052604060002060009150905080600001549080600101549080600201805461053290612d6b565b80601f016020809104026020016040519081016040528092919081815260200182805461055e90612d6b565b80156105ab5780601f10610580576101008083540402835291602001916105ab565b820191906000526020600020905b81548152906001019060200180831161058e57829003601f168201915b5050505050908060030160009054906101000a900460ff16905084565b60006020528060005260406000206000915090508060000180546105eb90612d6b565b80601f016020809104026020016040519081016040528092919081815260200182805461061790612d6b565b80156106645780601f1061063957610100808354040283529160200191610664565b820191906000526020600020905b81548152906001019060200180831161064757829003601f168201915b50505050509080600101805461067990612d6b565b80601f01602080910402602001604051908101604052809291908181526020018280546106a590612d6b565b80156106f25780601f106106c7576101008083540402835291602001916106f2565b820191906000526020600020905b8154815290600101906020018083116106d557829003601f168201915b50505050509080600201805461070790612d6b565b80601f016020809104026020016040519081016040528092919081815260200182805461073390612d6b565b80156107805780601f1061075557610100808354040283529160200191610780565b820191906000526020600020905b81548152906001019060200180831161076357829003601f168201915b50505050509080600301805461079590612d6b565b80601f01602080910402602001604051908101604052809291908181526020018280546107c190612d6b565b801561080e5780601f106107e35761010080835404028352916020019161080e565b820191906000526020600020905b8154815290600101906020018083116107f157829003601f168201915b5050505050908060040160009054906101000a900460ff16908060040160019054906101000a900473ffffffffffffffffffffffffffffffffffffffff16905086565b3373ffffffffffffffffffffffffffffffffffffffff16600b60009054906101000a900473ffffffffffffffffffffffffffffffffffffffff1673ffffffffffffffffffffffffffffffffffffffff16146108e1576040517f08c379a00000000000000000000000000000000000000000000000000000000081526004016108d890612de9565b60405180910390fd5b6002816060019060058111156108fa576108f9612317565b5b9081600581111561090e5761090d612317565b5b815250507f8108f5496edb06907306692c6d3a9a8d2d8793ae509ca2fe6d60d9c3ad58eddb82600283600b60009054906101000a900473ffffffffffffffffffffffffffffffffffffffff1660405161096a9493929190612e09565b60405180910390a15050565b6003818154811061098657600080fd5b906000526020600020016000915054906101000a900473ffffffffffffffffffffffffffffffffffffffff1681565b600160058111156109c9576109c8612317565b5b826060015160058111156109e0576109df612317565b5b14610a20576040517f08c379a0000000000000000000000000000000000000000000000000000000008152600401610a1790612ece565b60405180910390fd5b6000600660006009548152602001908152602001600020905083816001019080519060200190610a51929190611ee5565b5060008160020160006101000a81548160ff02191690836001811115610a7a57610a79612317565b5b0217905550828160030160008201518160000155602082015181600101556040820151816002019080519060200190610ab4929190611ee5565b5060608201518160030160006101000a81548160ff02191690836005811115610ae057610adf612317565b5b0217905550905050818160070160006101000a81548173ffffffffffffffffffffffffffffffffffffffff021916908373ffffffffffffffffffffffffffffffffffffffff1602179055507f7404f36b7a730bc20c8cc7e0e75c80d8d9af6bc8bca29829d01437c8f27e6415600954600085866060015186604051610b69959493929190612eee565b60405180910390a160096000815480929190610b8490612cf3565b919050555050505050565b60008282604051602001610ba4929190612fcc565b60405160208183030381529060405280519060200120905092915050565b610bca611f6b565b6000808373ffffffffffffffffffffffffffffffffffffffff1673ffffffffffffffffffffffffffffffffffffffff1681526020019081526020016000206040518060c0016040529081600082018054610c2390612d6b565b80601f0160208091040260200160405190810160405280929190818152602001828054610c4f90612d6b565b8015610c9c5780601f10610c7157610100808354040283529160200191610c9c565b820191906000526020600020905b815481529060010190602001808311610c7f57829003601f168201915b50505050508152602001600182018054610cb590612d6b565b80601f0160208091040260200160405190810160405280929190818152602001828054610ce190612d6b565b8015610d2e5780601f10610d0357610100808354040283529160200191610d2e565b820191906000526020600020905b815481529060010190602001808311610d1157829003601f168201915b50505050508152602001600282018054610d4790612d6b565b80601f0160208091040260200160405190810160405280929190818152602001828054610d7390612d6b565b8015610dc05780601f10610d9557610100808354040283529160200191610dc0565b820191906000526020600020905b815481529060010190602001808311610da357829003601f168201915b50505050508152602001600382018054610dd990612d6b565b80601f0160208091040260200160405190810160405280929190818152602001828054610e0590612d6b565b8015610e525780601f10610e2757610100808354040283529160200191610e52565b820191906000526020600020905b815481529060010190602001808311610e3557829003601f168201915b505050505081526020016004820160009054906101000a900460ff166003811115610e8057610e7f612317565b5b6003811115610e9257610e91612317565b5b81526020016004820160019054906101000a900473ffffffffffffffffffffffffffffffffffffffff1673ffffffffffffffffffffffffffffffffffffffff1673ffffffffffffffffffffffffffffffffffffffff16815250509050919050565b60025481565b3373ffffffffffffffffffffffffffffffffffffffff16600b60009054906101000a900473ffffffffffffffffffffffffffffffffffffffff1673ffffffffffffffffffffffffffffffffffffffff1614610f89576040517f08c379a0000000000000000000000000000000000000000000000000000000008152600401610f8090612de9565b60405180910390fd5b600381606001906005811115610fa257610fa1612317565b5b90816005811115610fb657610fb5612317565b5b815250507f57bc09cafd26d2cee9005dad3fd9defde747d769d7dafd4063e8ff35270b8698600382600b60009054906101000a900473ffffffffffffffffffffffffffffffffffffffff1660405161101093929190612ff4565b60405180910390a150565b600760205280600052604060002060009150905080600001549080600101805461104490612d6b565b80601f016020809104026020016040519081016040528092919081815260200182805461107090612d6b565b80156110bd5780601f10611092576101008083540402835291602001916110bd565b820191906000526020600020905b8154815290600101906020018083116110a057829003601f168201915b5050505050908060020160009054906101000a900460ff169080600301604051806080016040529081600082015481526020016001820154815260200160028201805461110990612d6b565b80601f016020809104026020016040519081016040528092919081815260200182805461113590612d6b565b80156111825780601f1061115757610100808354040283529160200191611182565b820191906000526020600020905b81548152906001019060200180831161116557829003601f168201915b505050505081526020016003820160009054906101000a900460ff1660058111156111b0576111af612317565b5b60058111156111c2576111c1612317565b5b81525050908060070160009054906101000a900473ffffffffffffffffffffffffffffffffffffffff16905085565b600160009054906101000a900473ffffffffffffffffffffffffffffffffffffffff1681565b60603373ffffffffffffffffffffffffffffffffffffffff16600160009054906101000a900473ffffffffffffffffffffffffffffffffffffffff1673ffffffffffffffffffffffffffffffffffffffff16146112a9576040517f08c379a00000000000000000000000000000000000000000000000000000000081526004016112a09061307e565b60405180910390fd5b8260038111156112bc576112bb612317565b5b6000808473ffffffffffffffffffffffffffffffffffffffff1673ffffffffffffffffffffffffffffffffffffffff16815260200190815260200160002060040160006101000a81548160ff0219169083600381111561131f5761131e612317565b5b02179055506040518060400160405280600d81526020017f526f6c6520557064617465642100000000000000000000000000000000000000815250905092915050565b3373ffffffffffffffffffffffffffffffffffffffff16600160009054906101000a900473ffffffffffffffffffffffffffffffffffffffff1673ffffffffffffffffffffffffffffffffffffffff16146113f2576040517f08c379a00000000000000000000000000000000000000000000000000000000081526004016113e99061307e565b60405180910390fd5b856000808373ffffffffffffffffffffffffffffffffffffffff1673ffffffffffffffffffffffffffffffffffffffff1681526020019081526020016000206000019080519060200190611447929190611ee5565b50856000808373ffffffffffffffffffffffffffffffffffffffff1673ffffffffffffffffffffffffffffffffffffffff168152602001908152602001600020600001908051906020019061149d929190611ee5565b50846000808373ffffffffffffffffffffffffffffffffffffffff1673ffffffffffffffffffffffffffffffffffffffff16815260200190815260200160002060010190805190602001906114f3929190611ee5565b50836000808373ffffffffffffffffffffffffffffffffffffffff1673ffffffffffffffffffffffffffffffffffffffff1681526020019081526020016000206002019080519060200190611549929190611ee5565b50826000808373ffffffffffffffffffffffffffffffffffffffff1673ffffffffffffffffffffffffffffffffffffffff168152602001908152602001600020600301908051906020019061159f929190611ee5565b508160038111156115b3576115b2612317565b5b6000808373ffffffffffffffffffffffffffffffffffffffff1673ffffffffffffffffffffffffffffffffffffffff16815260200190815260200160002060040160006101000a81548160ff0219169083600381111561161657611615612317565b5b0217905550806000808373ffffffffffffffffffffffffffffffffffffffff1673ffffffffffffffffffffffffffffffffffffffff16815260200190815260200160002060040160016101000a81548173ffffffffffffffffffffffffffffffffffffffff021916908373ffffffffffffffffffffffffffffffffffffffff1602179055508160038111156116ae576116ad612317565b5b60038111156116c0576116bf612317565b5b866040516116ce919061309e565b60405180910390208273ffffffffffffffffffffffffffffffffffffffff167fddb5d1667467713eb503e7e133811c91a231cb6b63f11930889c6004f36c35ee888888604051611720939291906130b5565b60405180910390a46003819080600181540180825580915050600190039060005260206000200160009091909190916101000a81548173ffffffffffffffffffffffffffffffffffffffff021916908373ffffffffffffffffffffffffffffffffffffffff1602179055506002600081548092919061179e90612cf3565b9190505550505050505050565b3373ffffffffffffffffffffffffffffffffffffffff16600b60009054906101000a900473ffffffffffffffffffffffffffffffffffffffff1673ffffffffffffffffffffffffffffffffffffffff161461183b576040517f08c379a000000000000000000000000000000000000000000000000000000000815260040161183290612de9565b60405180910390fd5b60048160600190600581111561185457611853612317565b5b9081600581111561186857611867612317565b5b815250507f6587420eb83bf328fdaec553e9e53a98827d494deeaddeaa5e5a998433c08da7600482600b60009054906101000a900473ffffffffffffffffffffffffffffffffffffffff166040516118c293929190612ff4565b60405180910390a150565b6060600380548060200260200160405190810160405280929190818152602001828054801561195157602002820191906000526020600020905b8160009054906101000a900473ffffffffffffffffffffffffffffffffffffffff1673ffffffffffffffffffffffffffffffffffffffff1681526020019060010190808311611907575b5050505050905090565b6000600581111561196f5761196e612317565b5b8260600151600581111561198657611985612317565b5b146119c6576040517f08c379a00000000000000000000000000000000000000000000000000000000081526004016119bd90613173565b60405180910390fd5b600060076000600a5481526020019081526020016000209050838160010190805190602001906119f7929190611ee5565b5060008160020160006101000a81548160ff02191690836001811115611a2057611a1f612317565b5b0217905550828160030160008201518160000155602082015181600101556040820151816002019080519060200190611a5a929190611ee5565b5060608201518160030160006101000a81548160ff02191690836005811115611a8657611a85612317565b5b0217905550905050818160070160006101000a81548173ffffffffffffffffffffffffffffffffffffffff021916908373ffffffffffffffffffffffffffffffffffffffff1602179055507fea116f66bfca993e06ec3531e54d6fdd056bed479a873a351b5ff4c23124595b600a54600085866060015186604051611b0f959493929190612eee565b60405180910390a1600a6000815480929190611b2a90612cf3565b919050555050505050565b60046005811115611b4957611b48612317565b5b82606001516005811115611b6057611b5f612317565b5b14611ba0576040517f08c379a0000000000000000000000000000000000000000000000000000000008152600401611b979061322b565b60405180910390fd5b600060076000600a548152602001908152602001600020905083816001019080519060200190611bd1929190611ee5565b5060008160020160006101000a81548160ff02191690836001811115611bfa57611bf9612317565b5b0217905550828160030160008201518160000155602082015181600101556040820151816002019080519060200190611c34929190611ee5565b5060608201518160030160006101000a81548160ff02191690836005811115611c6057611c5f612317565b5b0217905550905050818160070160006101000a81548173ffffffffffffffffffffffffffffffffffffffff021916908373ffffffffffffffffffffffffffffffffffffffff1602179055507fea116f66bfca993e06ec3531e54d6fdd056bed479a873a351b5ff4c23124595b600a54600085866060015186604051611ce9959493929190612eee565b60405180910390a1600a6000815480929190611d0490612cf3565b919050555050505050565b6006602052806000526040600020600091509050806000015490806001018054611d3890612d6b565b80601f0160208091040260200160405190810160405280929190818152602001828054611d6490612d6b565b8015611db15780601f10611d8657610100808354040283529160200191611db1565b820191906000526020600020905b815481529060010190602001808311611d9457829003601f168201915b5050505050908060020160009054906101000a900460ff1690806003016040518060800160405290816000820154815260200160018201548152602001600282018054611dfd90612d6b565b80601f0160208091040260200160405190810160405280929190818152602001828054611e2990612d6b565b8015611e765780601f10611e4b57610100808354040283529160200191611e76565b820191906000526020600020905b815481529060010190602001808311611e5957829003601f168201915b505050505081526020016003820160009054906101000a900460ff166005811115611ea457611ea3612317565b5b6005811115611eb657611eb5612317565b5b81525050908060070160009054906101000a900473ffffffffffffffffffffffffffffffffffffffff16905085565b828054611ef190612d6b565b90600052602060002090601f016020900481019282611f135760008555611f5a565b82601f10611f2c57805160ff1916838001178555611f5a565b82800160010185558215611f5a579182015b82811115611f59578251825591602001919060010190611f3e565b5b509050611f679190611fc9565b5090565b6040518060c001604052806060815260200160608152602001606081526020016060815260200160006003811115611fa657611fa5612317565b5b8152602001600073ffffffffffffffffffffffffffffffffffffffff1681525090565b5b80821115611fe2576000816000905550600101611fca565b5090565b6000604051905090565b600080fd5b600080fd5b6000819050919050565b61200d81611ffa565b811461201857600080fd5b50565b60008135905061202a81612004565b92915050565b600080fd5b600080fd5b6000601f19601f8301169050919050565b7f4e487b7100000000000000000000000000000000000000000000000000000000600052604160045260246000fd5b6120838261203a565b810181811067ffffffffffffffff821117156120a2576120a161204b565b5b80604052505050565b60006120b5611fe6565b90506120c1828261207a565b919050565b600067ffffffffffffffff8211156120e1576120e061204b565b5b6120ea8261203a565b9050602081019050919050565b82818337600083830152505050565b6000612119612114846120c6565b6120ab565b90508281526020810184848401111561213557612134612035565b5b6121408482856120f7565b509392505050565b600082601f83011261215d5761215c612030565b5b813561216d848260208601612106565b91505092915050565b6006811061218357600080fd5b50565b60008135905061219581612176565b92915050565b600080600080608085870312156121b5576121b4611ff0565b5b60006121c38782880161201b565b945050602085013567ffffffffffffffff8111156121e4576121e3611ff5565b5b6121f087828801612148565b935050604061220187828801612186565b925050606085013567ffffffffffffffff81111561222257612221611ff5565b5b61222e87828801612148565b91505092959194509250565b6000602082840312156122505761224f611ff0565b5b600061225e8482850161201b565b91505092915050565b61227081611ffa565b82525050565b6000819050919050565b61228981612276565b82525050565b600081519050919050565b600082825260208201905092915050565b60005b838110156122c95780820151818401526020810190506122ae565b838111156122d8576000848401525b50505050565b60006122e98261228f565b6122f3818561229a565b93506123038185602086016122ab565b61230c8161203a565b840191505092915050565b7f4e487b7100000000000000000000000000000000000000000000000000000000600052602160045260246000fd5b6006811061235757612356612317565b5b50565b600081905061236882612346565b919050565b60006123788261235a565b9050919050565b6123888161236d565b82525050565b60006080820190506123a36000830187612267565b6123b06020830186612280565b81810360408301526123c281856122de565b90506123d1606083018461237f565b95945050505050565b600073ffffffffffffffffffffffffffffffffffffffff82169050919050565b6000612405826123da565b9050919050565b612415816123fa565b811461242057600080fd5b50565b6000813590506124328161240c565b92915050565b60006020828403121561244e5761244d611ff0565b5b600061245c84828501612423565b91505092915050565b6004811061247657612475612317565b5b50565b600081905061248782612465565b919050565b600061249782612479565b9050919050565b6124a78161248c565b82525050565b6124b6816123fa565b82525050565b600060c08201905081810360008301526124d681896122de565b905081810360208301526124ea81886122de565b905081810360408301526124fe81876122de565b9050818103606083015261251281866122de565b9050612521608083018561249e565b61252e60a08301846124ad565b979650505050505050565b600080fd5b600080fd5b61254c81612276565b811461255757600080fd5b50565b60008135905061256981612543565b92915050565b60006080828403121561258557612584612539565b5b61258f60806120ab565b9050600061259f8482850161201b565b60008301525060206125b38482850161255a565b602083015250604082013567ffffffffffffffff8111156125d7576125d661253e565b5b6125e384828501612148565b60408301525060606125f784828501612186565b60608301525092915050565b6000806040838503121561261a57612619611ff0565b5b600083013567ffffffffffffffff81111561263857612637611ff5565b5b61264485828601612148565b925050602083013567ffffffffffffffff81111561266557612664611ff5565b5b6126718582860161256f565b9150509250929050565b600060208201905061269060008301846124ad565b92915050565b6000806000606084860312156126af576126ae611ff0565b5b600084013567ffffffffffffffff8111156126cd576126cc611ff5565b5b6126d986828701612148565b935050602084013567ffffffffffffffff8111156126fa576126f9611ff5565b5b6127068682870161256f565b925050604061271786828701612423565b9150509250925092565b6000806040838503121561273857612737611ff0565b5b600083013567ffffffffffffffff81111561275657612755611ff5565b5b61276285828601612148565b925050602061277385828601612423565b9150509250929050565b60006020820190506127926000830184612280565b92915050565b600082825260208201905092915050565b60006127b48261228f565b6127be8185612798565b93506127ce8185602086016122ab565b6127d78161203a565b840191505092915050565b6127eb8161248c565b82525050565b6127fa816123fa565b82525050565b600060c083016000830151848203600086015261281d82826127a9565b9150506020830151848203602086015261283782826127a9565b9150506040830151848203604086015261285182826127a9565b9150506060830151848203606086015261286b82826127a9565b915050608083015161288060808601826127e2565b5060a083015161289360a08601826127f1565b508091505092915050565b600060208201905081810360008301526128b88184612800565b905092915050565b60006020820190506128d56000830184612267565b92915050565b6000602082840312156128f1576128f0611ff0565b5b600082013567ffffffffffffffff81111561290f5761290e611ff5565b5b61291b8482850161256f565b91505092915050565b6002811061293557612934612317565b5b50565b600081905061294682612924565b919050565b600061295682612938565b9050919050565b6129668161294b565b82525050565b61297581611ffa565b82525050565b61298481612276565b82525050565b6129938161236d565b82525050565b60006080830160008301516129b1600086018261296c565b5060208301516129c4602086018261297b565b50604083015184820360408601526129dc82826127a9565b91505060608301516129f1606086018261298a565b508091505092915050565b600060a082019050612a116000830188612267565b8181036020830152612a2381876122de565b9050612a32604083018661295d565b8181036060830152612a448185612999565b9050612a5360808301846124ad565b9695505050505050565b60008060408385031215612a7457612a73611ff0565b5b6000612a828582860161201b565b9250506020612a9385828601612423565b9150509250929050565b60006020820190508181036000830152612ab781846122de565b905092915050565b60008060008060008060c08789031215612adc57612adb611ff0565b5b600087013567ffffffffffffffff811115612afa57612af9611ff5565b5b612b0689828a01612148565b965050602087013567ffffffffffffffff811115612b2757612b26611ff5565b5b612b3389828a01612148565b955050604087013567ffffffffffffffff811115612b5457612b53611ff5565b5b612b6089828a01612148565b945050606087013567ffffffffffffffff811115612b8157612b80611ff5565b5b612b8d89828a01612148565b9350506080612b9e89828a0161201b565b92505060a0612baf89828a01612423565b9150509295509295509295565b600081519050919050565b600082825260208201905092915050565b6000819050602082019050919050565b6000612bf483836127f1565b60208301905092915050565b6000602082019050919050565b6000612c1882612bbc565b612c228185612bc7565b9350612c2d83612bd8565b8060005b83811015612c5e578151612c458882612be8565b9750612c5083612c00565b925050600181019050612c31565b5085935050505092915050565b60006020820190508181036000830152612c858184612c0d565b905092915050565b6000606082019050612ca26000830186612267565b612caf602083018561237f565b612cbc60408301846124ad565b949350505050565b7f4e487b7100000000000000000000000000000000000000000000000000000000600052601160045260246000fd5b6000612cfe82611ffa565b91507fffffffffffffffffffffffffffffffffffffffffffffffffffffffffffffffff821415612d3157612d30612cc4565b5b600182019050919050565b7f4e487b7100000000000000000000000000000000000000000000000000000000600052602260045260246000fd5b60006002820490506001821680612d8357607f821691505b60208210811415612d9757612d96612d3c565b5b50919050565b7f596f7520617265206e6f74206120636f6d70616e79206275696c646572000000600082015250565b6000612dd3601d8361229a565b9150612dde82612d9d565b602082019050919050565b60006020820190508181036000830152612e0281612dc6565b9050919050565b60006080820190508181036000830152612e2381876122de565b9050612e32602083018661237f565b8181036040830152612e448185612999565b9050612e5360608301846124ad565b95945050505050565b7f5468652070726f6a656374206973206e6f7420617070726f7665642c2074686560008201527f206f7065726174696f6e2063616e6e6f7420626520646f6e652e000000000000602082015250565b6000612eb8603a8361229a565b9150612ec382612e5c565b604082019050919050565b60006020820190508181036000830152612ee781612eab565b9050919050565b600060a082019050612f036000830188612267565b612f10602083018761295d565b8181036040830152612f228186612999565b9050612f31606083018561237f565b612f3e60808301846124ad565b9695505050505050565b600081905092915050565b6000612f5e8261228f565b612f688185612f48565b9350612f788185602086016122ab565b80840191505092915050565b60008160601b9050919050565b6000612f9c82612f84565b9050919050565b6000612fae82612f91565b9050919050565b612fc6612fc1826123fa565b612fa3565b82525050565b6000612fd88285612f53565b9150612fe48284612fb5565b6014820191508190509392505050565b6000606082019050613009600083018661237f565b818103602083015261301b8185612999565b905061302a60408301846124ad565b949350505050565b7f596f7520617265206e6f7420616e206f776e6572000000000000000000000000600082015250565b600061306860148361229a565b915061307382613032565b602082019050919050565b600060208201905081810360008301526130978161305b565b9050919050565b60006130aa8284612f53565b915081905092915050565b600060608201905081810360008301526130cf81866122de565b905081810360208301526130e381856122de565b905081810360408301526130f781846122de565b9050949350505050565b7f5468652070726f6a656374206973206e6f7420637265617465642c207468652060008201527f6f7065726174696f6e2063616e6e6f7420626520646f6e652e00000000000000602082015250565b600061315d60398361229a565b915061316882613101565b604082019050919050565b6000602082019050818103600083015261318c81613150565b9050919050565b7f5468652070726f6a656374206973206e6f7420696e2074686520274265666f7260008201527f6546696e616c697a6174696f6e436865636b27207374617475732c207468652060208201527f6f7065726174696f6e2063616e6e6f7420626520646f6e652e00000000000000604082015250565b600061321560598361229a565b915061322082613193565b606082019050919050565b6000602082019050818103600083015261324481613208565b905091905056fea2646970667358221220a604ba90071387e06503be4e93b6158118b25dda0f1853b49ab93440d7a3a33664736f6c634300080a0033",
  "immutableReferences": {},
  "source": "// SPDX-License-Identifier: MIT\r\npragma solidity >=0.8.0 <0.9.0;\r\n\r\nimport \"./Project.sol\";\r\n\r\ncontract CompanyBuilder is Project {\r\n\r\n    address _companyAddress;\r\n\r\n    event ApproveProjectRequestByCompany(ProjectStatus _status, S_Project _project, address _subjectAddress);\r\n    event RejectProjectRequestByCompany(string _description, ProjectStatus _status, S_Project _project, address _subjectAddress);\r\n    event BeforeFinalizationProjectRequestByCompany(ProjectStatus _status, S_Project _project, address _subjectAddress);\r\n\r\n    constructor() {\r\n        _companyAddress = msg.sender;\r\n    }\r\n\r\n    modifier onlyCompany {\r\n        require(_companyAddress == msg.sender, \"You are not a company builder\");\r\n        _;\r\n    }\r\n\r\n    // Add some contrainst / verification TOOO DOOO -> LATER\r\n\r\n    function setProjectRequestToOnGoingStatus(S_Project memory _project) public onlyCompany {\r\n        _project.projectStatus = ProjectStatus.OnGoing;\r\n        emit ApproveProjectRequestByCompany(ProjectStatus.OnGoing, _project, _companyAddress);\r\n    }\r\n\r\n    function setProjectRequestToRejectStatus(string memory _description, S_Project memory _project) public onlyCompany {\r\n        _project.projectStatus = ProjectStatus.Rejected;\r\n        emit RejectProjectRequestByCompany(_description, ProjectStatus.Rejected, _project, _companyAddress);\r\n    }\r\n\r\n    function setProjectRequestToBeforeFinalizationStatus(S_Project memory _project)  public onlyCompany {\r\n        _project.projectStatus = ProjectStatus.BeforeFinalizationCheck;\r\n        emit BeforeFinalizationProjectRequestByCompany(ProjectStatus.BeforeFinalizationCheck, _project, _companyAddress);\r\n    }\r\n}\r\n",
  "sourcePath": "/mnt/c/users/beniamin/source/repos/dissertationproject/contracts/CompanyBuilder.sol",
  "compiler": {
    "name": "solc",
    "version": "0.8.10+commit.fc410830.Emscripten.clang"
  },
  "schemaVersion": "3.4.3",
  "updatedAt": "2021-11-13T09:43:03.289Z",
  "devdoc": {
    "kind": "dev",
    "methods": {},
    "version": 1
  },
  "userdoc": {
    "kind": "user",
    "methods": {},
    "version": 1
  }
}