{
  "contractName": "CompanyBuilder",
  "abi": [
    {
      "inputs": [],
      "stateMutability": "nonpayable",
      "type": "constructor"
    },
    {
      "anonymous": false,
      "inputs": [
        {
          "indexed": false,
          "internalType": "enum Project.ProjectStatus",
          "name": "_status",
          "type": "uint8"
        },
        {
          "components": [
            {
              "internalType": "uint256",
              "name": "index",
              "type": "uint256"
            },
            {
              "internalType": "bytes32",
              "name": "identifier",
              "type": "bytes32"
            },
            {
              "internalType": "string",
              "name": "name",
              "type": "string"
            },
            {
              "internalType": "string",
              "name": "description",
              "type": "string"
            },
            {
              "internalType": "enum Project.ProjectStatus",
              "name": "projectStatus",
              "type": "uint8"
            }
          ],
          "indexed": false,
          "internalType": "struct Project.S_Project",
          "name": "_project",
          "type": "tuple"
        },
        {
          "indexed": false,
          "internalType": "address",
          "name": "_subjectAddress",
          "type": "address"
        }
      ],
      "name": "ApproveProjectRequestByCompany",
      "type": "event"
    },
    {
      "anonymous": false,
      "inputs": [
        {
          "indexed": false,
          "internalType": "enum Project.ProjectStatus",
          "name": "_status",
          "type": "uint8"
        },
        {
          "components": [
            {
              "internalType": "uint256",
              "name": "index",
              "type": "uint256"
            },
            {
              "internalType": "bytes32",
              "name": "identifier",
              "type": "bytes32"
            },
            {
              "internalType": "string",
              "name": "name",
              "type": "string"
            },
            {
              "internalType": "string",
              "name": "description",
              "type": "string"
            },
            {
              "internalType": "enum Project.ProjectStatus",
              "name": "projectStatus",
              "type": "uint8"
            }
          ],
          "indexed": false,
          "internalType": "struct Project.S_Project",
          "name": "_project",
          "type": "tuple"
        },
        {
          "indexed": false,
          "internalType": "address",
          "name": "_subjectAddress",
          "type": "address"
        }
      ],
      "name": "BeforeFinalizationProjectRequestByCompany",
      "type": "event"
    },
    {
      "anonymous": false,
      "inputs": [
        {
          "indexed": false,
          "internalType": "string",
          "name": "_name",
          "type": "string"
        },
        {
          "indexed": false,
          "internalType": "string",
          "name": "_description",
          "type": "string"
        },
        {
          "indexed": false,
          "internalType": "enum Project.ProjectStatus",
          "name": "_status",
          "type": "uint8"
        },
        {
          "indexed": false,
          "internalType": "bytes32",
          "name": "_identifier",
          "type": "bytes32"
        }
      ],
      "name": "CreateProject",
      "type": "event"
    },
    {
      "anonymous": false,
      "inputs": [
        {
          "indexed": false,
          "internalType": "string",
          "name": "_description",
          "type": "string"
        },
        {
          "indexed": false,
          "internalType": "enum Project.ProjectStatus",
          "name": "_status",
          "type": "uint8"
        },
        {
          "components": [
            {
              "internalType": "uint256",
              "name": "index",
              "type": "uint256"
            },
            {
              "internalType": "bytes32",
              "name": "identifier",
              "type": "bytes32"
            },
            {
              "internalType": "string",
              "name": "name",
              "type": "string"
            },
            {
              "internalType": "string",
              "name": "description",
              "type": "string"
            },
            {
              "internalType": "enum Project.ProjectStatus",
              "name": "projectStatus",
              "type": "uint8"
            }
          ],
          "indexed": false,
          "internalType": "struct Project.S_Project",
          "name": "_project",
          "type": "tuple"
        },
        {
          "indexed": false,
          "internalType": "address",
          "name": "_subjectAddress",
          "type": "address"
        }
      ],
      "name": "RejectProjectRequestByCompany",
      "type": "event"
    },
    {
      "anonymous": false,
      "inputs": [
        {
          "indexed": false,
          "internalType": "uint256",
          "name": "_indexRequest",
          "type": "uint256"
        },
        {
          "indexed": false,
          "internalType": "enum Project.RequestStatus",
          "name": "_status",
          "type": "uint8"
        },
        {
          "components": [
            {
              "internalType": "uint256",
              "name": "index",
              "type": "uint256"
            },
            {
              "internalType": "bytes32",
              "name": "identifier",
              "type": "bytes32"
            },
            {
              "internalType": "string",
              "name": "name",
              "type": "string"
            },
            {
              "internalType": "string",
              "name": "description",
              "type": "string"
            },
            {
              "internalType": "enum Project.ProjectStatus",
              "name": "projectStatus",
              "type": "uint8"
            }
          ],
          "indexed": false,
          "internalType": "struct Project.S_Project",
          "name": "_project",
          "type": "tuple"
        },
        {
          "indexed": false,
          "internalType": "enum Project.ProjectStatus",
          "name": "_projectStatus",
          "type": "uint8"
        },
        {
          "indexed": false,
          "internalType": "address",
          "name": "_subjectAddress",
          "type": "address"
        }
      ],
      "name": "UpdateCompanyRequestStatus",
      "type": "event"
    },
    {
      "anonymous": false,
      "inputs": [
        {
          "indexed": false,
          "internalType": "uint256",
          "name": "_indexRequest",
          "type": "uint256"
        },
        {
          "indexed": false,
          "internalType": "enum Project.RequestStatus",
          "name": "_status",
          "type": "uint8"
        },
        {
          "components": [
            {
              "internalType": "uint256",
              "name": "index",
              "type": "uint256"
            },
            {
              "internalType": "bytes32",
              "name": "identifier",
              "type": "bytes32"
            },
            {
              "internalType": "string",
              "name": "name",
              "type": "string"
            },
            {
              "internalType": "string",
              "name": "description",
              "type": "string"
            },
            {
              "internalType": "enum Project.ProjectStatus",
              "name": "projectStatus",
              "type": "uint8"
            }
          ],
          "indexed": false,
          "internalType": "struct Project.S_Project",
          "name": "_project",
          "type": "tuple"
        },
        {
          "indexed": false,
          "internalType": "enum Project.ProjectStatus",
          "name": "_projectStatus",
          "type": "uint8"
        },
        {
          "indexed": false,
          "internalType": "address",
          "name": "_subjectAddress",
          "type": "address"
        }
      ],
      "name": "UpdateSupervisorRequestStatus",
      "type": "event"
    },
    {
      "anonymous": false,
      "inputs": [
        {
          "indexed": true,
          "internalType": "address",
          "name": "_walletAddress",
          "type": "address"
        },
        {
          "indexed": true,
          "internalType": "string",
          "name": "_username",
          "type": "string"
        },
        {
          "indexed": false,
          "internalType": "string",
          "name": "_email",
          "type": "string"
        },
        {
          "indexed": false,
          "internalType": "string",
          "name": "_firstname",
          "type": "string"
        },
        {
          "indexed": false,
          "internalType": "string",
          "name": "_lastname",
          "type": "string"
        },
        {
          "indexed": true,
          "internalType": "enum User.Roles",
          "name": "_role",
          "type": "uint8"
        }
      ],
      "name": "UserRegistered",
      "type": "event"
    },
    {
      "inputs": [
        {
          "internalType": "uint256",
          "name": "_role",
          "type": "uint256"
        },
        {
          "internalType": "address",
          "name": "_walletAddress",
          "type": "address"
        }
      ],
      "name": "changeUserRole",
      "outputs": [
        {
          "internalType": "string",
          "name": "",
          "type": "string"
        }
      ],
      "stateMutability": "nonpayable",
      "type": "function"
    },
    {
      "inputs": [
        {
          "internalType": "uint256",
          "name": "",
          "type": "uint256"
        }
      ],
      "name": "companyRequests",
      "outputs": [
        {
          "internalType": "uint256",
          "name": "index",
          "type": "uint256"
        },
        {
          "internalType": "string",
          "name": "description",
          "type": "string"
        },
        {
          "internalType": "enum Project.RequestStatus",
          "name": "status",
          "type": "uint8"
        },
        {
          "components": [
            {
              "internalType": "uint256",
              "name": "index",
              "type": "uint256"
            },
            {
              "internalType": "bytes32",
              "name": "identifier",
              "type": "bytes32"
            },
            {
              "internalType": "string",
              "name": "name",
              "type": "string"
            },
            {
              "internalType": "string",
              "name": "description",
              "type": "string"
            },
            {
              "internalType": "enum Project.ProjectStatus",
              "name": "projectStatus",
              "type": "uint8"
            }
          ],
          "internalType": "struct Project.S_Project",
          "name": "project",
          "type": "tuple"
        },
        {
          "internalType": "address",
          "name": "subjectAddress",
          "type": "address"
        }
      ],
      "stateMutability": "view",
      "type": "function"
    },
    {
      "inputs": [
        {
          "internalType": "string",
          "name": "_name",
          "type": "string"
        },
        {
          "internalType": "string",
          "name": "_description",
          "type": "string"
        },
        {
          "internalType": "uint256",
          "name": "_status",
          "type": "uint256"
        },
        {
          "internalType": "string",
          "name": "_hashStringValue",
          "type": "string"
        }
      ],
      "name": "createProject",
      "outputs": [],
      "stateMutability": "nonpayable",
      "type": "function"
    },
    {
      "inputs": [
        {
          "internalType": "string",
          "name": "_text",
          "type": "string"
        },
        {
          "internalType": "address",
          "name": "_addr",
          "type": "address"
        }
      ],
      "name": "createUniqueIdentifier",
      "outputs": [
        {
          "internalType": "bytes32",
          "name": "",
          "type": "bytes32"
        }
      ],
      "stateMutability": "pure",
      "type": "function"
    },
    {
      "inputs": [],
      "name": "getProjectIds",
      "outputs": [
        {
          "internalType": "uint256[]",
          "name": "",
          "type": "uint256[]"
        }
      ],
      "stateMutability": "view",
      "type": "function"
    },
    {
      "inputs": [
        {
          "internalType": "uint256",
          "name": "_index",
          "type": "uint256"
        }
      ],
      "name": "getProjectInfo",
      "outputs": [
        {
          "components": [
            {
              "internalType": "uint256",
              "name": "index",
              "type": "uint256"
            },
            {
              "internalType": "bytes32",
              "name": "identifier",
              "type": "bytes32"
            },
            {
              "internalType": "string",
              "name": "name",
              "type": "string"
            },
            {
              "internalType": "string",
              "name": "description",
              "type": "string"
            },
            {
              "internalType": "enum Project.ProjectStatus",
              "name": "projectStatus",
              "type": "uint8"
            }
          ],
          "internalType": "struct Project.S_Project",
          "name": "",
          "type": "tuple"
        }
      ],
      "stateMutability": "view",
      "type": "function"
    },
    {
      "inputs": [],
      "name": "getUserAddresses",
      "outputs": [
        {
          "internalType": "address[]",
          "name": "",
          "type": "address[]"
        }
      ],
      "stateMutability": "view",
      "type": "function"
    },
    {
      "inputs": [
        {
          "internalType": "address",
          "name": "_address",
          "type": "address"
        }
      ],
      "name": "getUserInfo",
      "outputs": [
        {
          "components": [
            {
              "internalType": "string",
              "name": "username",
              "type": "string"
            },
            {
              "internalType": "string",
              "name": "email",
              "type": "string"
            },
            {
              "internalType": "string",
              "name": "firstname",
              "type": "string"
            },
            {
              "internalType": "string",
              "name": "lastname",
              "type": "string"
            },
            {
              "internalType": "enum User.Roles",
              "name": "role",
              "type": "uint8"
            },
            {
              "internalType": "address",
              "name": "walletAddress",
              "type": "address"
            }
          ],
          "internalType": "struct User.S_UserData",
          "name": "",
          "type": "tuple"
        }
      ],
      "stateMutability": "view",
      "type": "function"
    },
    {
      "inputs": [],
      "name": "owner",
      "outputs": [
        {
          "internalType": "address",
          "name": "",
          "type": "address"
        }
      ],
      "stateMutability": "view",
      "type": "function"
    },
    {
      "inputs": [
        {
          "internalType": "uint256",
          "name": "",
          "type": "uint256"
        }
      ],
      "name": "projectIds",
      "outputs": [
        {
          "internalType": "uint256",
          "name": "",
          "type": "uint256"
        }
      ],
      "stateMutability": "view",
      "type": "function"
    },
    {
      "inputs": [
        {
          "internalType": "uint256",
          "name": "",
          "type": "uint256"
        }
      ],
      "name": "projects",
      "outputs": [
        {
          "internalType": "uint256",
          "name": "index",
          "type": "uint256"
        },
        {
          "internalType": "bytes32",
          "name": "identifier",
          "type": "bytes32"
        },
        {
          "internalType": "string",
          "name": "name",
          "type": "string"
        },
        {
          "internalType": "string",
          "name": "description",
          "type": "string"
        },
        {
          "internalType": "enum Project.ProjectStatus",
          "name": "projectStatus",
          "type": "uint8"
        }
      ],
      "stateMutability": "view",
      "type": "function"
    },
    {
      "inputs": [],
      "name": "projectsCount",
      "outputs": [
        {
          "internalType": "uint256",
          "name": "",
          "type": "uint256"
        }
      ],
      "stateMutability": "view",
      "type": "function"
    },
    {
      "inputs": [
        {
          "internalType": "string",
          "name": "_username",
          "type": "string"
        },
        {
          "internalType": "string",
          "name": "_email",
          "type": "string"
        },
        {
          "internalType": "string",
          "name": "_firstname",
          "type": "string"
        },
        {
          "internalType": "string",
          "name": "_lastname",
          "type": "string"
        },
        {
          "internalType": "uint256",
          "name": "_role",
          "type": "uint256"
        },
        {
          "internalType": "address",
          "name": "_walletAddress",
          "type": "address"
        }
      ],
      "name": "registerUser",
      "outputs": [],
      "stateMutability": "nonpayable",
      "type": "function"
    },
    {
      "inputs": [
        {
          "internalType": "string",
          "name": "_description",
          "type": "string"
        },
        {
          "components": [
            {
              "internalType": "uint256",
              "name": "index",
              "type": "uint256"
            },
            {
              "internalType": "bytes32",
              "name": "identifier",
              "type": "bytes32"
            },
            {
              "internalType": "string",
              "name": "name",
              "type": "string"
            },
            {
              "internalType": "string",
              "name": "description",
              "type": "string"
            },
            {
              "internalType": "enum Project.ProjectStatus",
              "name": "projectStatus",
              "type": "uint8"
            }
          ],
          "internalType": "struct Project.S_Project",
          "name": "_project",
          "type": "tuple"
        },
        {
          "internalType": "address",
          "name": "_subjectAddress",
          "type": "address"
        }
      ],
      "name": "requestProjectApprovalFromSupervisor",
      "outputs": [],
      "stateMutability": "nonpayable",
      "type": "function"
    },
    {
      "inputs": [
        {
          "internalType": "string",
          "name": "_description",
          "type": "string"
        },
        {
          "components": [
            {
              "internalType": "uint256",
              "name": "index",
              "type": "uint256"
            },
            {
              "internalType": "bytes32",
              "name": "identifier",
              "type": "bytes32"
            },
            {
              "internalType": "string",
              "name": "name",
              "type": "string"
            },
            {
              "internalType": "string",
              "name": "description",
              "type": "string"
            },
            {
              "internalType": "enum Project.ProjectStatus",
              "name": "projectStatus",
              "type": "uint8"
            }
          ],
          "internalType": "struct Project.S_Project",
          "name": "_project",
          "type": "tuple"
        },
        {
          "internalType": "address",
          "name": "_subjectAddress",
          "type": "address"
        }
      ],
      "name": "requestProjectCompleteFromSupervisor",
      "outputs": [],
      "stateMutability": "nonpayable",
      "type": "function"
    },
    {
      "inputs": [
        {
          "internalType": "string",
          "name": "_description",
          "type": "string"
        },
        {
          "components": [
            {
              "internalType": "uint256",
              "name": "index",
              "type": "uint256"
            },
            {
              "internalType": "bytes32",
              "name": "identifier",
              "type": "bytes32"
            },
            {
              "internalType": "string",
              "name": "name",
              "type": "string"
            },
            {
              "internalType": "string",
              "name": "description",
              "type": "string"
            },
            {
              "internalType": "enum Project.ProjectStatus",
              "name": "projectStatus",
              "type": "uint8"
            }
          ],
          "internalType": "struct Project.S_Project",
          "name": "_project",
          "type": "tuple"
        },
        {
          "internalType": "address",
          "name": "_subjectAddress",
          "type": "address"
        }
      ],
      "name": "requestStartProjectToCompanyBuilder",
      "outputs": [],
      "stateMutability": "nonpayable",
      "type": "function"
    },
    {
      "inputs": [
        {
          "internalType": "uint256",
          "name": "",
          "type": "uint256"
        }
      ],
      "name": "supervisorRequests",
      "outputs": [
        {
          "internalType": "uint256",
          "name": "index",
          "type": "uint256"
        },
        {
          "internalType": "string",
          "name": "description",
          "type": "string"
        },
        {
          "internalType": "enum Project.RequestStatus",
          "name": "status",
          "type": "uint8"
        },
        {
          "components": [
            {
              "internalType": "uint256",
              "name": "index",
              "type": "uint256"
            },
            {
              "internalType": "bytes32",
              "name": "identifier",
              "type": "bytes32"
            },
            {
              "internalType": "string",
              "name": "name",
              "type": "string"
            },
            {
              "internalType": "string",
              "name": "description",
              "type": "string"
            },
            {
              "internalType": "enum Project.ProjectStatus",
              "name": "projectStatus",
              "type": "uint8"
            }
          ],
          "internalType": "struct Project.S_Project",
          "name": "project",
          "type": "tuple"
        },
        {
          "internalType": "address",
          "name": "subjectAddress",
          "type": "address"
        }
      ],
      "stateMutability": "view",
      "type": "function"
    },
    {
      "inputs": [
        {
          "internalType": "uint256",
          "name": "",
          "type": "uint256"
        }
      ],
      "name": "userAddresses",
      "outputs": [
        {
          "internalType": "address",
          "name": "",
          "type": "address"
        }
      ],
      "stateMutability": "view",
      "type": "function"
    },
    {
      "inputs": [
        {
          "internalType": "address",
          "name": "",
          "type": "address"
        }
      ],
      "name": "userInfo",
      "outputs": [
        {
          "internalType": "string",
          "name": "username",
          "type": "string"
        },
        {
          "internalType": "string",
          "name": "email",
          "type": "string"
        },
        {
          "internalType": "string",
          "name": "firstname",
          "type": "string"
        },
        {
          "internalType": "string",
          "name": "lastname",
          "type": "string"
        },
        {
          "internalType": "enum User.Roles",
          "name": "role",
          "type": "uint8"
        },
        {
          "internalType": "address",
          "name": "walletAddress",
          "type": "address"
        }
      ],
      "stateMutability": "view",
      "type": "function"
    },
    {
      "inputs": [],
      "name": "usersCount",
      "outputs": [
        {
          "internalType": "uint256",
          "name": "",
          "type": "uint256"
        }
      ],
      "stateMutability": "view",
      "type": "function"
    },
    {
      "inputs": [
        {
          "components": [
            {
              "internalType": "uint256",
              "name": "index",
              "type": "uint256"
            },
            {
              "internalType": "bytes32",
              "name": "identifier",
              "type": "bytes32"
            },
            {
              "internalType": "string",
              "name": "name",
              "type": "string"
            },
            {
              "internalType": "string",
              "name": "description",
              "type": "string"
            },
            {
              "internalType": "enum Project.ProjectStatus",
              "name": "projectStatus",
              "type": "uint8"
            }
          ],
          "internalType": "struct Project.S_Project",
          "name": "_project",
          "type": "tuple"
        }
      ],
      "name": "setProjectRequestToOnGoingStatus",
      "outputs": [],
      "stateMutability": "nonpayable",
      "type": "function"
    },
    {
      "inputs": [
        {
          "internalType": "string",
          "name": "_description",
          "type": "string"
        },
        {
          "components": [
            {
              "internalType": "uint256",
              "name": "index",
              "type": "uint256"
            },
            {
              "internalType": "bytes32",
              "name": "identifier",
              "type": "bytes32"
            },
            {
              "internalType": "string",
              "name": "name",
              "type": "string"
            },
            {
              "internalType": "string",
              "name": "description",
              "type": "string"
            },
            {
              "internalType": "enum Project.ProjectStatus",
              "name": "projectStatus",
              "type": "uint8"
            }
          ],
          "internalType": "struct Project.S_Project",
          "name": "_project",
          "type": "tuple"
        }
      ],
      "name": "setProjectRequestToRejectStatus",
      "outputs": [],
      "stateMutability": "nonpayable",
      "type": "function"
    },
    {
      "inputs": [
        {
          "components": [
            {
              "internalType": "uint256",
              "name": "index",
              "type": "uint256"
            },
            {
              "internalType": "bytes32",
              "name": "identifier",
              "type": "bytes32"
            },
            {
              "internalType": "string",
              "name": "name",
              "type": "string"
            },
            {
              "internalType": "string",
              "name": "description",
              "type": "string"
            },
            {
              "internalType": "enum Project.ProjectStatus",
              "name": "projectStatus",
              "type": "uint8"
            }
          ],
          "internalType": "struct Project.S_Project",
          "name": "_project",
          "type": "tuple"
        }
      ],
      "name": "setProjectRequestToBeforeFinalizationStatus",
      "outputs": [],
      "stateMutability": "nonpayable",
      "type": "function"
    }
  ],
  "bytecode": "0x60806040526000600255600060085534801561001a57600080fd5b5033600160006101000a81548173ffffffffffffffffffffffffffffffffffffffff021916908373ffffffffffffffffffffffffffffffffffffffff16021790555033600460006101000a81548173ffffffffffffffffffffffffffffffffffffffff021916908373ffffffffffffffffffffffffffffffffffffffff16021790555033600c60006101000a81548173ffffffffffffffffffffffffffffffffffffffff021916908373ffffffffffffffffffffffffffffffffffffffff1602179055506139bf806100ed6000396000f3fe608060405234801561001057600080fd5b506004361061014d5760003560e01c80636386c1c7116100c3578063a591efde1161007c578063a591efde146103e1578063aff76377146103ff578063c73b302e1461041b578063d3f59bac14610439578063d40d4a8014610455578063fabf5968146104895761014d565b80636386c1c7146102f55780636ba13a82146103255780638c86a1d7146103435780638da5cb5b146103775780639100978614610395578063911c29a6146103c55761014d565b80634657571411610115578063465757141461021157806348c35ad41461022d578063502c9bd51461025d578063584058fc1461028d5780636132844f146102a957806361bfd9f4146102d95761014d565b8063107046bd1461015257806313fb1040146101865780631959a002146101a257806329a613b5146101d75780633fb3ae38146101f5575b600080fd5b61016c600480360381019061016791906125e4565b6104b9565b60405161017d959493929190612749565b60405180910390f35b6101a0600480360381019061019b9190612a5c565b61060c565b005b6101bc60048036038101906101b79190612ae7565b610803565b6040516101ce96959493929190612b6b565b60405180910390f35b6101df610a8c565b6040516101ec9190612ca6565b60405180910390f35b61020f600480360381019061020a9190612cc8565b610ae4565b005b61022b60048036038101906102269190612d11565b610c06565b005b610247600480360381019061024291906125e4565b610d95565b6040516102549190612dcc565b60405180910390f35b610277600480360381019061027291906125e4565b610db9565b6040516102849190612de7565b60405180910390f35b6102a760048036038101906102a29190612e02565b610df8565b005b6102c360048036038101906102be9190612e7a565b610f1d565b6040516102d09190612ed6565b60405180910390f35b6102f360048036038101906102ee9190612a5c565b610f50565b005b61030f600480360381019061030a9190612ae7565b611147565b60405161031c9190612ff7565b60405180910390f35b61032d611478565b60405161033a9190612dcc565b60405180910390f35b61035d600480360381019061035891906125e4565b61147e565b60405161036e9594939291906130fc565b60405180910390f35b61037f6116e6565b60405161038c9190612de7565b60405180910390f35b6103af60048036038101906103aa919061315d565b61170c565b6040516103bc919061319d565b60405180910390f35b6103df60048036038101906103da91906131bf565b611857565b005b6103e9611ca0565b6040516103f6919061336b565b60405180910390f35b61041960048036038101906104149190612a5c565b611d2e565b005b610423611f25565b6040516104309190612dcc565b60405180910390f35b610453600480360381019061044e9190612cc8565b611f2b565b005b61046f600480360381019061046a91906125e4565b61204d565b6040516104809594939291906130fc565b60405180910390f35b6104a3600480360381019061049e91906125e4565b6122b5565b6040516104b0919061338d565b60405180910390f35b60056020528060005260406000206000915090508060000154908060010154908060020180546104e8906133de565b80601f0160208091040260200160405190810160405280929190818152602001828054610514906133de565b80156105615780601f1061053657610100808354040283529160200191610561565b820191906000526020600020905b81548152906001019060200180831161054457829003601f168201915b505050505090806003018054610576906133de565b80601f01602080910402602001604051908101604052809291908181526020018280546105a2906133de565b80156105ef5780601f106105c4576101008083540402835291602001916105ef565b820191906000526020600020905b8154815290600101906020018083116105d257829003601f168201915b5050505050908060040160009054906101000a900460ff16905085565b600460058111156106205761061f6126d2565b5b82608001516005811115610637576106366126d2565b5b14610677576040517f08c379a000000000000000000000000000000000000000000000000000000000815260040161066e906134a8565b60405180910390fd5b600060076000600b5481526020019081526020016000209050838160010190805190602001906106a8929190612455565b5060008160020160006101000a81548160ff021916908360018111156106d1576106d06126d2565b5b021790555082816003016000820151816000015560208201518160010155604082015181600201908051906020019061070b929190612455565b506060820151816003019080519060200190610728929190612455565b5060808201518160040160006101000a81548160ff02191690836005811115610754576107536126d2565b5b0217905550905050818160080160006101000a81548173ffffffffffffffffffffffffffffffffffffffff021916908373ffffffffffffffffffffffffffffffffffffffff1602179055507f4b8881d6c5de21f0eca02f6cbf55d3306f121c2437f684657e1fd0e48c17d63b600b546000858660800151866040516107dd9594939291906134c8565b60405180910390a1600b60008154809291906107f890613551565b919050555050505050565b6000602052806000526040600020600091509050806000018054610826906133de565b80601f0160208091040260200160405190810160405280929190818152602001828054610852906133de565b801561089f5780601f106108745761010080835404028352916020019161089f565b820191906000526020600020905b81548152906001019060200180831161088257829003601f168201915b5050505050908060010180546108b4906133de565b80601f01602080910402602001604051908101604052809291908181526020018280546108e0906133de565b801561092d5780601f106109025761010080835404028352916020019161092d565b820191906000526020600020905b81548152906001019060200180831161091057829003601f168201915b505050505090806002018054610942906133de565b80601f016020809104026020016040519081016040528092919081815260200182805461096e906133de565b80156109bb5780601f10610990576101008083540402835291602001916109bb565b820191906000526020600020905b81548152906001019060200180831161099e57829003601f168201915b5050505050908060030180546109d0906133de565b80601f01602080910402602001604051908101604052809291908181526020018280546109fc906133de565b8015610a495780601f10610a1e57610100808354040283529160200191610a49565b820191906000526020600020905b815481529060010190602001808311610a2c57829003601f168201915b5050505050908060040160009054906101000a900460ff16908060040160019054906101000a900473ffffffffffffffffffffffffffffffffffffffff16905086565b60606009805480602002602001604051908101604052809291908181526020018280548015610ada57602002820191906000526020600020905b815481526020019060010190808311610ac6575b5050505050905090565b3373ffffffffffffffffffffffffffffffffffffffff16600c60009054906101000a900473ffffffffffffffffffffffffffffffffffffffff1673ffffffffffffffffffffffffffffffffffffffff1614610b74576040517f08c379a0000000000000000000000000000000000000000000000000000000008152600401610b6b906135e6565b60405180910390fd5b600381608001906005811115610b8d57610b8c6126d2565b5b90816005811115610ba157610ba06126d2565b5b815250507f8278a16fcd1a5619c5c65f1da86c647942b88125e1e9e02b2184a2636e313344600382600c60009054906101000a900473ffffffffffffffffffffffffffffffffffffffff16604051610bfb93929190613606565b60405180910390a150565b6000610c128233610f1d565b9050600854600560006008548152602001908152602001600020600001819055508060056000600854815260200190815260200160002060010181905550846005600060085481526020019081526020016000206002019080519060200190610c7c929190612455565b50836005600060085481526020019081526020016000206003019080519060200190610ca9929190612455565b50826005811115610cbd57610cbc6126d2565b5b60056000600854815260200190815260200160002060040160006101000a81548160ff02191690836005811115610cf757610cf66126d2565b5b02179055507f4656bb678dd0b427f71c9f70d273c2c1cb8ebd0add8063549243d64bd3ed369a8585856005811115610d3257610d316126d2565b5b84604051610d439493929190613644565b60405180910390a16009600854908060018154018082558091505060019003906000526020600020016000909190919091505560086000815480929190610d8990613551565b91905055505050505050565b60098181548110610da557600080fd5b906000526020600020016000915090505481565b60038181548110610dc957600080fd5b906000526020600020016000915054906101000a900473ffffffffffffffffffffffffffffffffffffffff1681565b3373ffffffffffffffffffffffffffffffffffffffff16600c60009054906101000a900473ffffffffffffffffffffffffffffffffffffffff1673ffffffffffffffffffffffffffffffffffffffff1614610e88576040517f08c379a0000000000000000000000000000000000000000000000000000000008152600401610e7f906135e6565b60405180910390fd5b600281608001906005811115610ea157610ea06126d2565b5b90816005811115610eb557610eb46126d2565b5b815250507f490363d6703dc86e0506d5bbb3e6acdbc68d089dc839ac451c7b0822f23ee93a82600283600c60009054906101000a900473ffffffffffffffffffffffffffffffffffffffff16604051610f119493929190613697565b60405180910390a15050565b60008282604051602001610f3292919061376e565b60405160208183030381529060405280519060200120905092915050565b60006005811115610f6457610f636126d2565b5b82608001516005811115610f7b57610f7a6126d2565b5b14610fbb576040517f08c379a0000000000000000000000000000000000000000000000000000000008152600401610fb290613808565b60405180910390fd5b600060076000600b548152602001908152602001600020905083816001019080519060200190610fec929190612455565b5060008160020160006101000a81548160ff02191690836001811115611015576110146126d2565b5b021790555082816003016000820151816000015560208201518160010155604082015181600201908051906020019061104f929190612455565b50606082015181600301908051906020019061106c929190612455565b5060808201518160040160006101000a81548160ff02191690836005811115611098576110976126d2565b5b0217905550905050818160080160006101000a81548173ffffffffffffffffffffffffffffffffffffffff021916908373ffffffffffffffffffffffffffffffffffffffff1602179055507f4b8881d6c5de21f0eca02f6cbf55d3306f121c2437f684657e1fd0e48c17d63b600b546000858660800151866040516111219594939291906134c8565b60405180910390a1600b600081548092919061113c90613551565b919050555050505050565b61114f6124db565b6000808373ffffffffffffffffffffffffffffffffffffffff1673ffffffffffffffffffffffffffffffffffffffff1681526020019081526020016000206040518060c00160405290816000820180546111a8906133de565b80601f01602080910402602001604051908101604052809291908181526020018280546111d4906133de565b80156112215780601f106111f657610100808354040283529160200191611221565b820191906000526020600020905b81548152906001019060200180831161120457829003601f168201915b5050505050815260200160018201805461123a906133de565b80601f0160208091040260200160405190810160405280929190818152602001828054611266906133de565b80156112b35780601f10611288576101008083540402835291602001916112b3565b820191906000526020600020905b81548152906001019060200180831161129657829003601f168201915b505050505081526020016002820180546112cc906133de565b80601f01602080910402602001604051908101604052809291908181526020018280546112f8906133de565b80156113455780601f1061131a57610100808354040283529160200191611345565b820191906000526020600020905b81548152906001019060200180831161132857829003601f168201915b5050505050815260200160038201805461135e906133de565b80601f016020809104026020016040519081016040528092919081815260200182805461138a906133de565b80156113d75780601f106113ac576101008083540402835291602001916113d7565b820191906000526020600020905b8154815290600101906020018083116113ba57829003601f168201915b505050505081526020016004820160009054906101000a900460ff166003811115611405576114046126d2565b5b6003811115611417576114166126d2565b5b81526020016004820160019054906101000a900473ffffffffffffffffffffffffffffffffffffffff1673ffffffffffffffffffffffffffffffffffffffff1673ffffffffffffffffffffffffffffffffffffffff16815250509050919050565b60025481565b60076020528060005260406000206000915090508060000154908060010180546114a7906133de565b80601f01602080910402602001604051908101604052809291908181526020018280546114d3906133de565b80156115205780601f106114f557610100808354040283529160200191611520565b820191906000526020600020905b81548152906001019060200180831161150357829003601f168201915b5050505050908060020160009054906101000a900460ff1690806003016040518060a0016040529081600082015481526020016001820154815260200160028201805461156c906133de565b80601f0160208091040260200160405190810160405280929190818152602001828054611598906133de565b80156115e55780601f106115ba576101008083540402835291602001916115e5565b820191906000526020600020905b8154815290600101906020018083116115c857829003601f168201915b505050505081526020016003820180546115fe906133de565b80601f016020809104026020016040519081016040528092919081815260200182805461162a906133de565b80156116775780601f1061164c57610100808354040283529160200191611677565b820191906000526020600020905b81548152906001019060200180831161165a57829003601f168201915b505050505081526020016004820160009054906101000a900460ff1660058111156116a5576116a46126d2565b5b60058111156116b7576116b66126d2565b5b81525050908060080160009054906101000a900473ffffffffffffffffffffffffffffffffffffffff16905085565b600160009054906101000a900473ffffffffffffffffffffffffffffffffffffffff1681565b60603373ffffffffffffffffffffffffffffffffffffffff16600160009054906101000a900473ffffffffffffffffffffffffffffffffffffffff1673ffffffffffffffffffffffffffffffffffffffff161461179e576040517f08c379a000000000000000000000000000000000000000000000000000000000815260040161179590613874565b60405180910390fd5b8260038111156117b1576117b06126d2565b5b6000808473ffffffffffffffffffffffffffffffffffffffff1673ffffffffffffffffffffffffffffffffffffffff16815260200190815260200160002060040160006101000a81548160ff02191690836003811115611814576118136126d2565b5b02179055506040518060400160405280600d81526020017f526f6c6520557064617465642100000000000000000000000000000000000000815250905092915050565b3373ffffffffffffffffffffffffffffffffffffffff16600160009054906101000a900473ffffffffffffffffffffffffffffffffffffffff1673ffffffffffffffffffffffffffffffffffffffff16146118e7576040517f08c379a00000000000000000000000000000000000000000000000000000000081526004016118de90613874565b60405180910390fd5b856000808373ffffffffffffffffffffffffffffffffffffffff1673ffffffffffffffffffffffffffffffffffffffff168152602001908152602001600020600001908051906020019061193c929190612455565b50856000808373ffffffffffffffffffffffffffffffffffffffff1673ffffffffffffffffffffffffffffffffffffffff1681526020019081526020016000206000019080519060200190611992929190612455565b50846000808373ffffffffffffffffffffffffffffffffffffffff1673ffffffffffffffffffffffffffffffffffffffff16815260200190815260200160002060010190805190602001906119e8929190612455565b50836000808373ffffffffffffffffffffffffffffffffffffffff1673ffffffffffffffffffffffffffffffffffffffff1681526020019081526020016000206002019080519060200190611a3e929190612455565b50826000808373ffffffffffffffffffffffffffffffffffffffff1673ffffffffffffffffffffffffffffffffffffffff1681526020019081526020016000206003019080519060200190611a94929190612455565b50816003811115611aa857611aa76126d2565b5b6000808373ffffffffffffffffffffffffffffffffffffffff1673ffffffffffffffffffffffffffffffffffffffff16815260200190815260200160002060040160006101000a81548160ff02191690836003811115611b0b57611b0a6126d2565b5b0217905550806000808373ffffffffffffffffffffffffffffffffffffffff1673ffffffffffffffffffffffffffffffffffffffff16815260200190815260200160002060040160016101000a81548173ffffffffffffffffffffffffffffffffffffffff021916908373ffffffffffffffffffffffffffffffffffffffff160217905550816003811115611ba357611ba26126d2565b5b6003811115611bb557611bb46126d2565b5b86604051611bc39190613894565b60405180910390208273ffffffffffffffffffffffffffffffffffffffff167fddb5d1667467713eb503e7e133811c91a231cb6b63f11930889c6004f36c35ee888888604051611c15939291906138ab565b60405180910390a46003819080600181540180825580915050600190039060005260206000200160009091909190916101000a81548173ffffffffffffffffffffffffffffffffffffffff021916908373ffffffffffffffffffffffffffffffffffffffff16021790555060026000815480929190611c9390613551565b9190505550505050505050565b60606003805480602002602001604051908101604052809291908181526020018280548015611d2457602002820191906000526020600020905b8160009054906101000a900473ffffffffffffffffffffffffffffffffffffffff1673ffffffffffffffffffffffffffffffffffffffff1681526020019060010190808311611cda575b5050505050905090565b60016005811115611d4257611d416126d2565b5b82608001516005811115611d5957611d586126d2565b5b14611d99576040517f08c379a0000000000000000000000000000000000000000000000000000000008152600401611d9090613969565b60405180910390fd5b600060066000600a548152602001908152602001600020905083816001019080519060200190611dca929190612455565b5060008160020160006101000a81548160ff02191690836001811115611df357611df26126d2565b5b0217905550828160030160008201518160000155602082015181600101556040820151816002019080519060200190611e2d929190612455565b506060820151816003019080519060200190611e4a929190612455565b5060808201518160040160006101000a81548160ff02191690836005811115611e7657611e756126d2565b5b0217905550905050818160080160006101000a81548173ffffffffffffffffffffffffffffffffffffffff021916908373ffffffffffffffffffffffffffffffffffffffff1602179055507fca0c364958c7d564ad7994d0597c1d116da141cb386cde965c866eecd5e7d687600a54600085866080015186604051611eff9594939291906134c8565b60405180910390a1600a6000815480929190611f1a90613551565b919050555050505050565b60085481565b3373ffffffffffffffffffffffffffffffffffffffff16600c60009054906101000a900473ffffffffffffffffffffffffffffffffffffffff1673ffffffffffffffffffffffffffffffffffffffff1614611fbb576040517f08c379a0000000000000000000000000000000000000000000000000000000008152600401611fb2906135e6565b60405180910390fd5b600481608001906005811115611fd457611fd36126d2565b5b90816005811115611fe857611fe76126d2565b5b815250507fd68cd240af7e95aff75cb415af1af977450288fcb895f442461909ddb150140e600482600c60009054906101000a900473ffffffffffffffffffffffffffffffffffffffff1660405161204293929190613606565b60405180910390a150565b6006602052806000526040600020600091509050806000015490806001018054612076906133de565b80601f01602080910402602001604051908101604052809291908181526020018280546120a2906133de565b80156120ef5780601f106120c4576101008083540402835291602001916120ef565b820191906000526020600020905b8154815290600101906020018083116120d257829003601f168201915b5050505050908060020160009054906101000a900460ff1690806003016040518060a0016040529081600082015481526020016001820154815260200160028201805461213b906133de565b80601f0160208091040260200160405190810160405280929190818152602001828054612167906133de565b80156121b45780601f10612189576101008083540402835291602001916121b4565b820191906000526020600020905b81548152906001019060200180831161219757829003601f168201915b505050505081526020016003820180546121cd906133de565b80601f01602080910402602001604051908101604052809291908181526020018280546121f9906133de565b80156122465780601f1061221b57610100808354040283529160200191612246565b820191906000526020600020905b81548152906001019060200180831161222957829003601f168201915b505050505081526020016004820160009054906101000a900460ff166005811115612274576122736126d2565b5b6005811115612286576122856126d2565b5b81525050908060080160009054906101000a900473ffffffffffffffffffffffffffffffffffffffff16905085565b6122bd612539565b600560008381526020019081526020016000206040518060a001604052908160008201548152602001600182015481526020016002820180546122ff906133de565b80601f016020809104026020016040519081016040528092919081815260200182805461232b906133de565b80156123785780601f1061234d57610100808354040283529160200191612378565b820191906000526020600020905b81548152906001019060200180831161235b57829003601f168201915b50505050508152602001600382018054612391906133de565b80601f01602080910402602001604051908101604052809291908181526020018280546123bd906133de565b801561240a5780601f106123df5761010080835404028352916020019161240a565b820191906000526020600020905b8154815290600101906020018083116123ed57829003601f168201915b505050505081526020016004820160009054906101000a900460ff166005811115612438576124376126d2565b5b600581111561244a576124496126d2565b5b815250509050919050565b828054612461906133de565b90600052602060002090601f01602090048101928261248357600085556124ca565b82601f1061249c57805160ff19168380011785556124ca565b828001600101855582156124ca579182015b828111156124c95782518255916020019190600101906124ae565b5b5090506124d7919061257d565b5090565b6040518060c001604052806060815260200160608152602001606081526020016060815260200160006003811115612516576125156126d2565b5b8152602001600073ffffffffffffffffffffffffffffffffffffffff1681525090565b6040518060a001604052806000815260200160008019168152602001606081526020016060815260200160006005811115612577576125766126d2565b5b81525090565b5b8082111561259657600081600090555060010161257e565b5090565b6000604051905090565b600080fd5b600080fd5b6000819050919050565b6125c1816125ae565b81146125cc57600080fd5b50565b6000813590506125de816125b8565b92915050565b6000602082840312156125fa576125f96125a4565b5b6000612608848285016125cf565b91505092915050565b61261a816125ae565b82525050565b6000819050919050565b61263381612620565b82525050565b600081519050919050565b600082825260208201905092915050565b60005b83811015612673578082015181840152602081019050612658565b83811115612682576000848401525b50505050565b6000601f19601f8301169050919050565b60006126a482612639565b6126ae8185612644565b93506126be818560208601612655565b6126c781612688565b840191505092915050565b7f4e487b7100000000000000000000000000000000000000000000000000000000600052602160045260246000fd5b60068110612712576127116126d2565b5b50565b600081905061272382612701565b919050565b600061273382612715565b9050919050565b61274381612728565b82525050565b600060a08201905061275e6000830188612611565b61276b602083018761262a565b818103604083015261277d8186612699565b905081810360608301526127918185612699565b90506127a0608083018461273a565b9695505050505050565b600080fd5b600080fd5b7f4e487b7100000000000000000000000000000000000000000000000000000000600052604160045260246000fd5b6127ec82612688565b810181811067ffffffffffffffff8211171561280b5761280a6127b4565b5b80604052505050565b600061281e61259a565b905061282a82826127e3565b919050565b600067ffffffffffffffff82111561284a576128496127b4565b5b61285382612688565b9050602081019050919050565b82818337600083830152505050565b600061288261287d8461282f565b612814565b90508281526020810184848401111561289e5761289d6127af565b5b6128a9848285612860565b509392505050565b600082601f8301126128c6576128c56127aa565b5b81356128d684826020860161286f565b91505092915050565b600080fd5b600080fd5b6128f281612620565b81146128fd57600080fd5b50565b60008135905061290f816128e9565b92915050565b6006811061292257600080fd5b50565b60008135905061293481612915565b92915050565b600060a082840312156129505761294f6128df565b5b61295a60a0612814565b9050600061296a848285016125cf565b600083015250602061297e84828501612900565b602083015250604082013567ffffffffffffffff8111156129a2576129a16128e4565b5b6129ae848285016128b1565b604083015250606082013567ffffffffffffffff8111156129d2576129d16128e4565b5b6129de848285016128b1565b60608301525060806129f284828501612925565b60808301525092915050565b600073ffffffffffffffffffffffffffffffffffffffff82169050919050565b6000612a29826129fe565b9050919050565b612a3981612a1e565b8114612a4457600080fd5b50565b600081359050612a5681612a30565b92915050565b600080600060608486031215612a7557612a746125a4565b5b600084013567ffffffffffffffff811115612a9357612a926125a9565b5b612a9f868287016128b1565b935050602084013567ffffffffffffffff811115612ac057612abf6125a9565b5b612acc8682870161293a565b9250506040612add86828701612a47565b9150509250925092565b600060208284031215612afd57612afc6125a4565b5b6000612b0b84828501612a47565b91505092915050565b60048110612b2557612b246126d2565b5b50565b6000819050612b3682612b14565b919050565b6000612b4682612b28565b9050919050565b612b5681612b3b565b82525050565b612b6581612a1e565b82525050565b600060c0820190508181036000830152612b858189612699565b90508181036020830152612b998188612699565b90508181036040830152612bad8187612699565b90508181036060830152612bc18186612699565b9050612bd06080830185612b4d565b612bdd60a0830184612b5c565b979650505050505050565b600081519050919050565b600082825260208201905092915050565b6000819050602082019050919050565b612c1d816125ae565b82525050565b6000612c2f8383612c14565b60208301905092915050565b6000602082019050919050565b6000612c5382612be8565b612c5d8185612bf3565b9350612c6883612c04565b8060005b83811015612c99578151612c808882612c23565b9750612c8b83612c3b565b925050600181019050612c6c565b5085935050505092915050565b60006020820190508181036000830152612cc08184612c48565b905092915050565b600060208284031215612cde57612cdd6125a4565b5b600082013567ffffffffffffffff811115612cfc57612cfb6125a9565b5b612d088482850161293a565b91505092915050565b60008060008060808587031215612d2b57612d2a6125a4565b5b600085013567ffffffffffffffff811115612d4957612d486125a9565b5b612d55878288016128b1565b945050602085013567ffffffffffffffff811115612d7657612d756125a9565b5b612d82878288016128b1565b9350506040612d93878288016125cf565b925050606085013567ffffffffffffffff811115612db457612db36125a9565b5b612dc0878288016128b1565b91505092959194509250565b6000602082019050612de16000830184612611565b92915050565b6000602082019050612dfc6000830184612b5c565b92915050565b60008060408385031215612e1957612e186125a4565b5b600083013567ffffffffffffffff811115612e3757612e366125a9565b5b612e43858286016128b1565b925050602083013567ffffffffffffffff811115612e6457612e636125a9565b5b612e708582860161293a565b9150509250929050565b60008060408385031215612e9157612e906125a4565b5b600083013567ffffffffffffffff811115612eaf57612eae6125a9565b5b612ebb858286016128b1565b9250506020612ecc85828601612a47565b9150509250929050565b6000602082019050612eeb600083018461262a565b92915050565b600082825260208201905092915050565b6000612f0d82612639565b612f178185612ef1565b9350612f27818560208601612655565b612f3081612688565b840191505092915050565b612f4481612b3b565b82525050565b612f5381612a1e565b82525050565b600060c0830160008301518482036000860152612f768282612f02565b91505060208301518482036020860152612f908282612f02565b91505060408301518482036040860152612faa8282612f02565b91505060608301518482036060860152612fc48282612f02565b9150506080830151612fd96080860182612f3b565b5060a0830151612fec60a0860182612f4a565b508091505092915050565b600060208201905081810360008301526130118184612f59565b905092915050565b6002811061302a576130296126d2565b5b50565b600081905061303b82613019565b919050565b600061304b8261302d565b9050919050565b61305b81613040565b82525050565b61306a81612620565b82525050565b61307981612728565b82525050565b600060a0830160008301516130976000860182612c14565b5060208301516130aa6020860182613061565b50604083015184820360408601526130c28282612f02565b915050606083015184820360608601526130dc8282612f02565b91505060808301516130f16080860182613070565b508091505092915050565b600060a0820190506131116000830188612611565b81810360208301526131238187612699565b90506131326040830186613052565b8181036060830152613144818561307f565b90506131536080830184612b5c565b9695505050505050565b60008060408385031215613174576131736125a4565b5b6000613182858286016125cf565b925050602061319385828601612a47565b9150509250929050565b600060208201905081810360008301526131b78184612699565b905092915050565b60008060008060008060c087890312156131dc576131db6125a4565b5b600087013567ffffffffffffffff8111156131fa576131f96125a9565b5b61320689828a016128b1565b965050602087013567ffffffffffffffff811115613227576132266125a9565b5b61323389828a016128b1565b955050604087013567ffffffffffffffff811115613254576132536125a9565b5b61326089828a016128b1565b945050606087013567ffffffffffffffff811115613281576132806125a9565b5b61328d89828a016128b1565b935050608061329e89828a016125cf565b92505060a06132af89828a01612a47565b9150509295509295509295565b600081519050919050565b600082825260208201905092915050565b6000819050602082019050919050565b60006132f48383612f4a565b60208301905092915050565b6000602082019050919050565b6000613318826132bc565b61332281856132c7565b935061332d836132d8565b8060005b8381101561335e57815161334588826132e8565b975061335083613300565b925050600181019050613331565b5085935050505092915050565b60006020820190508181036000830152613385818461330d565b905092915050565b600060208201905081810360008301526133a7818461307f565b905092915050565b7f4e487b7100000000000000000000000000000000000000000000000000000000600052602260045260246000fd5b600060028204905060018216806133f657607f821691505b6020821081141561340a576134096133af565b5b50919050565b7f5468652070726f6a656374206973206e6f7420696e2074686520274265666f7260008201527f6546696e616c697a6174696f6e436865636b27207374617475732c207468652060208201527f6f7065726174696f6e2063616e6e6f7420626520646f6e652e00000000000000604082015250565b6000613492605983612644565b915061349d82613410565b606082019050919050565b600060208201905081810360008301526134c181613485565b9050919050565b600060a0820190506134dd6000830188612611565b6134ea6020830187613052565b81810360408301526134fc818661307f565b905061350b606083018561273a565b6135186080830184612b5c565b9695505050505050565b7f4e487b7100000000000000000000000000000000000000000000000000000000600052601160045260246000fd5b600061355c826125ae565b91507fffffffffffffffffffffffffffffffffffffffffffffffffffffffffffffffff82141561358f5761358e613522565b5b600182019050919050565b7f596f7520617265206e6f74206120636f6d70616e79206275696c646572000000600082015250565b60006135d0601d83612644565b91506135db8261359a565b602082019050919050565b600060208201905081810360008301526135ff816135c3565b9050919050565b600060608201905061361b600083018661273a565b818103602083015261362d818561307f565b905061363c6040830184612b5c565b949350505050565b6000608082019050818103600083015261365e8187612699565b905081810360208301526136728186612699565b9050613681604083018561273a565b61368e606083018461262a565b95945050505050565b600060808201905081810360008301526136b18187612699565b90506136c0602083018661273a565b81810360408301526136d2818561307f565b90506136e16060830184612b5c565b95945050505050565b600081905092915050565b600061370082612639565b61370a81856136ea565b935061371a818560208601612655565b80840191505092915050565b60008160601b9050919050565b600061373e82613726565b9050919050565b600061375082613733565b9050919050565b61376861376382612a1e565b613745565b82525050565b600061377a82856136f5565b91506137868284613757565b6014820191508190509392505050565b7f5468652070726f6a656374206973206e6f7420637265617465642c207468652060008201527f6f7065726174696f6e2063616e6e6f7420626520646f6e652e00000000000000602082015250565b60006137f2603983612644565b91506137fd82613796565b604082019050919050565b60006020820190508181036000830152613821816137e5565b9050919050565b7f596f7520617265206e6f7420616e206f776e6572000000000000000000000000600082015250565b600061385e601483612644565b915061386982613828565b602082019050919050565b6000602082019050818103600083015261388d81613851565b9050919050565b60006138a082846136f5565b915081905092915050565b600060608201905081810360008301526138c58186612699565b905081810360208301526138d98185612699565b905081810360408301526138ed8184612699565b9050949350505050565b7f5468652070726f6a656374206973206e6f7420617070726f7665642c2074686560008201527f206f7065726174696f6e2063616e6e6f7420626520646f6e652e000000000000602082015250565b6000613953603a83612644565b915061395e826138f7565b604082019050919050565b6000602082019050818103600083015261398281613946565b905091905056fea2646970667358221220f5823befa15becf21fd1af271be6b8c160c35b4d96d57ac843cb0217084b9b2464736f6c634300080a0033",
  "immutableReferences": {},
  "source": "// SPDX-License-Identifier: MIT\r\npragma solidity >=0.8.0 <0.9.0;\r\n\r\nimport \"./Project.sol\";\r\n\r\ncontract CompanyBuilder is Project {\r\n\r\n    address _companyAddress;\r\n\r\n    event ApproveProjectRequestByCompany(ProjectStatus _status, S_Project _project, address _subjectAddress);\r\n    event RejectProjectRequestByCompany(string _description, ProjectStatus _status, S_Project _project, address _subjectAddress);\r\n    event BeforeFinalizationProjectRequestByCompany(ProjectStatus _status, S_Project _project, address _subjectAddress);\r\n\r\n    constructor() {\r\n        _companyAddress = msg.sender;\r\n    }\r\n\r\n    modifier onlyCompany {\r\n        require(_companyAddress == msg.sender, \"You are not a company builder\");\r\n        _;\r\n    }\r\n\r\n    // Add some contrainst / verification TOOO DOOO -> LATER\r\n\r\n    function setProjectRequestToOnGoingStatus(S_Project memory _project) public onlyCompany {\r\n        _project.projectStatus = ProjectStatus.OnGoing;\r\n        emit ApproveProjectRequestByCompany(ProjectStatus.OnGoing, _project, _companyAddress);\r\n    }\r\n\r\n    function setProjectRequestToRejectStatus(string memory _description, S_Project memory _project) public onlyCompany {\r\n        _project.projectStatus = ProjectStatus.Rejected;\r\n        emit RejectProjectRequestByCompany(_description, ProjectStatus.Rejected, _project, _companyAddress);\r\n    }\r\n\r\n    function setProjectRequestToBeforeFinalizationStatus(S_Project memory _project)  public onlyCompany {\r\n        _project.projectStatus = ProjectStatus.BeforeFinalizationCheck;\r\n        emit BeforeFinalizationProjectRequestByCompany(ProjectStatus.BeforeFinalizationCheck, _project, _companyAddress);\r\n    }\r\n}\r\n",
  "sourcePath": "/mnt/c/users/beniamin/source/repos/dissertationproject/contracts/CompanyBuilder.sol",
  "compiler": {
    "name": "solc",
    "version": "0.8.10+commit.fc410830.Emscripten.clang"
  },
  "schemaVersion": "3.4.3",
  "updatedAt": "2021-11-14T15:08:02.606Z",
  "devdoc": {
    "kind": "dev",
    "methods": {},
    "version": 1
  },
  "userdoc": {
    "kind": "user",
    "methods": {},
    "version": 1
  }
}