{
  "contractName": "CompanyBuilder",
  "abi": [
    {
      "inputs": [],
      "stateMutability": "nonpayable",
      "type": "constructor"
    },
    {
      "anonymous": false,
      "inputs": [
        {
          "indexed": false,
          "internalType": "enum Project.ProjectStatus",
          "name": "_status",
          "type": "uint8"
        },
        {
          "components": [
            {
              "internalType": "uint256",
              "name": "index",
              "type": "uint256"
            },
            {
              "internalType": "string",
              "name": "name",
              "type": "string"
            },
            {
              "internalType": "string",
              "name": "description",
              "type": "string"
            },
            {
              "internalType": "enum Project.ProjectStatus",
              "name": "projectStatus",
              "type": "uint8"
            },
            {
              "internalType": "string",
              "name": "ipfsFileCID",
              "type": "string"
            }
          ],
          "indexed": false,
          "internalType": "struct Project.S_Project",
          "name": "_project",
          "type": "tuple"
        },
        {
          "indexed": false,
          "internalType": "address",
          "name": "_subjectAddress",
          "type": "address"
        }
      ],
      "name": "ApproveProjectRequestByCompany",
      "type": "event"
    },
    {
      "anonymous": false,
      "inputs": [
        {
          "indexed": false,
          "internalType": "enum Project.ProjectStatus",
          "name": "_status",
          "type": "uint8"
        },
        {
          "components": [
            {
              "internalType": "uint256",
              "name": "index",
              "type": "uint256"
            },
            {
              "internalType": "string",
              "name": "name",
              "type": "string"
            },
            {
              "internalType": "string",
              "name": "description",
              "type": "string"
            },
            {
              "internalType": "enum Project.ProjectStatus",
              "name": "projectStatus",
              "type": "uint8"
            },
            {
              "internalType": "string",
              "name": "ipfsFileCID",
              "type": "string"
            }
          ],
          "indexed": false,
          "internalType": "struct Project.S_Project",
          "name": "_project",
          "type": "tuple"
        },
        {
          "indexed": false,
          "internalType": "address",
          "name": "_subjectAddress",
          "type": "address"
        }
      ],
      "name": "BeforeFinalizationProjectRequestByCompany",
      "type": "event"
    },
    {
      "anonymous": false,
      "inputs": [
        {
          "indexed": false,
          "internalType": "string",
          "name": "_name",
          "type": "string"
        },
        {
          "indexed": false,
          "internalType": "string",
          "name": "_description",
          "type": "string"
        },
        {
          "indexed": false,
          "internalType": "enum Project.ProjectStatus",
          "name": "_status",
          "type": "uint8"
        }
      ],
      "name": "CreateProject",
      "type": "event"
    },
    {
      "anonymous": false,
      "inputs": [
        {
          "indexed": false,
          "internalType": "uint256",
          "name": "index",
          "type": "uint256"
        },
        {
          "indexed": true,
          "internalType": "enum Project.ProjectStatus",
          "name": "status",
          "type": "uint8"
        },
        {
          "indexed": true,
          "internalType": "address",
          "name": "projectAddress",
          "type": "address"
        }
      ],
      "name": "ProjectStatusChanged",
      "type": "event"
    },
    {
      "anonymous": false,
      "inputs": [
        {
          "indexed": false,
          "internalType": "string",
          "name": "_description",
          "type": "string"
        },
        {
          "indexed": false,
          "internalType": "enum Project.ProjectStatus",
          "name": "_status",
          "type": "uint8"
        },
        {
          "components": [
            {
              "internalType": "uint256",
              "name": "index",
              "type": "uint256"
            },
            {
              "internalType": "string",
              "name": "name",
              "type": "string"
            },
            {
              "internalType": "string",
              "name": "description",
              "type": "string"
            },
            {
              "internalType": "enum Project.ProjectStatus",
              "name": "projectStatus",
              "type": "uint8"
            },
            {
              "internalType": "string",
              "name": "ipfsFileCID",
              "type": "string"
            }
          ],
          "indexed": false,
          "internalType": "struct Project.S_Project",
          "name": "_project",
          "type": "tuple"
        },
        {
          "indexed": false,
          "internalType": "address",
          "name": "_subjectAddress",
          "type": "address"
        }
      ],
      "name": "RejectProjectRequestByCompany",
      "type": "event"
    },
    {
      "anonymous": false,
      "inputs": [
        {
          "indexed": false,
          "internalType": "uint256",
          "name": "_indexRequest",
          "type": "uint256"
        },
        {
          "indexed": false,
          "internalType": "enum Project.RequestStatus",
          "name": "_status",
          "type": "uint8"
        },
        {
          "components": [
            {
              "internalType": "uint256",
              "name": "index",
              "type": "uint256"
            },
            {
              "internalType": "string",
              "name": "name",
              "type": "string"
            },
            {
              "internalType": "string",
              "name": "description",
              "type": "string"
            },
            {
              "internalType": "enum Project.ProjectStatus",
              "name": "projectStatus",
              "type": "uint8"
            },
            {
              "internalType": "string",
              "name": "ipfsFileCID",
              "type": "string"
            }
          ],
          "indexed": false,
          "internalType": "struct Project.S_Project",
          "name": "_project",
          "type": "tuple"
        },
        {
          "indexed": false,
          "internalType": "enum Project.ProjectStatus",
          "name": "_projectStatus",
          "type": "uint8"
        },
        {
          "indexed": false,
          "internalType": "address",
          "name": "_subjectAddress",
          "type": "address"
        }
      ],
      "name": "UpdateCompanyRequestStatus",
      "type": "event"
    },
    {
      "anonymous": false,
      "inputs": [
        {
          "indexed": false,
          "internalType": "uint256",
          "name": "_indexRequest",
          "type": "uint256"
        },
        {
          "indexed": false,
          "internalType": "enum Project.RequestStatus",
          "name": "_status",
          "type": "uint8"
        },
        {
          "components": [
            {
              "internalType": "uint256",
              "name": "index",
              "type": "uint256"
            },
            {
              "internalType": "string",
              "name": "name",
              "type": "string"
            },
            {
              "internalType": "string",
              "name": "description",
              "type": "string"
            },
            {
              "internalType": "enum Project.ProjectStatus",
              "name": "projectStatus",
              "type": "uint8"
            },
            {
              "internalType": "string",
              "name": "ipfsFileCID",
              "type": "string"
            }
          ],
          "indexed": false,
          "internalType": "struct Project.S_Project",
          "name": "_project",
          "type": "tuple"
        },
        {
          "indexed": false,
          "internalType": "enum Project.ProjectStatus",
          "name": "_projectStatus",
          "type": "uint8"
        },
        {
          "indexed": false,
          "internalType": "address",
          "name": "_subjectAddress",
          "type": "address"
        }
      ],
      "name": "UpdateSupervisorRequestStatus",
      "type": "event"
    },
    {
      "anonymous": false,
      "inputs": [
        {
          "indexed": false,
          "internalType": "string",
          "name": "username",
          "type": "string"
        },
        {
          "indexed": false,
          "internalType": "string",
          "name": "firstname",
          "type": "string"
        },
        {
          "indexed": false,
          "internalType": "string",
          "name": "lastname",
          "type": "string"
        },
        {
          "indexed": false,
          "internalType": "string",
          "name": "email",
          "type": "string"
        },
        {
          "indexed": false,
          "internalType": "enum User.Roles",
          "name": "role",
          "type": "uint8"
        },
        {
          "indexed": false,
          "internalType": "address",
          "name": "walletAddress",
          "type": "address"
        }
      ],
      "name": "UserChanges",
      "type": "event"
    },
    {
      "anonymous": false,
      "inputs": [
        {
          "indexed": true,
          "internalType": "address",
          "name": "_walletAddress",
          "type": "address"
        },
        {
          "indexed": true,
          "internalType": "string",
          "name": "_username",
          "type": "string"
        },
        {
          "indexed": false,
          "internalType": "string",
          "name": "_email",
          "type": "string"
        },
        {
          "indexed": false,
          "internalType": "string",
          "name": "_firstname",
          "type": "string"
        },
        {
          "indexed": false,
          "internalType": "string",
          "name": "_lastname",
          "type": "string"
        },
        {
          "indexed": true,
          "internalType": "enum User.Roles",
          "name": "_role",
          "type": "uint8"
        }
      ],
      "name": "UserRegistered",
      "type": "event"
    },
    {
      "inputs": [
        {
          "internalType": "uint256",
          "name": "",
          "type": "uint256"
        }
      ],
      "name": "allProjects",
      "outputs": [
        {
          "internalType": "uint256",
          "name": "index",
          "type": "uint256"
        },
        {
          "internalType": "string",
          "name": "name",
          "type": "string"
        },
        {
          "internalType": "string",
          "name": "description",
          "type": "string"
        },
        {
          "internalType": "enum Project.ProjectStatus",
          "name": "projectStatus",
          "type": "uint8"
        },
        {
          "internalType": "string",
          "name": "ipfsFileCID",
          "type": "string"
        }
      ],
      "stateMutability": "view",
      "type": "function"
    },
    {
      "inputs": [
        {
          "internalType": "uint256",
          "name": "",
          "type": "uint256"
        }
      ],
      "name": "allUsers",
      "outputs": [
        {
          "internalType": "string",
          "name": "username",
          "type": "string"
        },
        {
          "internalType": "string",
          "name": "email",
          "type": "string"
        },
        {
          "internalType": "string",
          "name": "firstname",
          "type": "string"
        },
        {
          "internalType": "string",
          "name": "lastname",
          "type": "string"
        },
        {
          "internalType": "enum User.Roles",
          "name": "role",
          "type": "uint8"
        },
        {
          "internalType": "address",
          "name": "walletAddress",
          "type": "address"
        }
      ],
      "stateMutability": "view",
      "type": "function"
    },
    {
      "inputs": [
        {
          "internalType": "uint256",
          "name": "_status",
          "type": "uint256"
        },
        {
          "internalType": "address",
          "name": "_address",
          "type": "address"
        }
      ],
      "name": "changeProjectStatus",
      "outputs": [],
      "stateMutability": "nonpayable",
      "type": "function"
    },
    {
      "inputs": [
        {
          "internalType": "uint256",
          "name": "_role",
          "type": "uint256"
        },
        {
          "internalType": "address",
          "name": "_walletAddress",
          "type": "address"
        }
      ],
      "name": "changeUserRole",
      "outputs": [],
      "stateMutability": "nonpayable",
      "type": "function"
    },
    {
      "inputs": [
        {
          "internalType": "uint256",
          "name": "",
          "type": "uint256"
        }
      ],
      "name": "companyRequests",
      "outputs": [
        {
          "internalType": "uint256",
          "name": "index",
          "type": "uint256"
        },
        {
          "internalType": "string",
          "name": "description",
          "type": "string"
        },
        {
          "internalType": "enum Project.RequestStatus",
          "name": "status",
          "type": "uint8"
        },
        {
          "components": [
            {
              "internalType": "uint256",
              "name": "index",
              "type": "uint256"
            },
            {
              "internalType": "string",
              "name": "name",
              "type": "string"
            },
            {
              "internalType": "string",
              "name": "description",
              "type": "string"
            },
            {
              "internalType": "enum Project.ProjectStatus",
              "name": "projectStatus",
              "type": "uint8"
            },
            {
              "internalType": "string",
              "name": "ipfsFileCID",
              "type": "string"
            }
          ],
          "internalType": "struct Project.S_Project",
          "name": "project",
          "type": "tuple"
        },
        {
          "internalType": "address",
          "name": "subjectAddress",
          "type": "address"
        }
      ],
      "stateMutability": "view",
      "type": "function"
    },
    {
      "inputs": [
        {
          "internalType": "string",
          "name": "_name",
          "type": "string"
        },
        {
          "internalType": "string",
          "name": "_description",
          "type": "string"
        },
        {
          "internalType": "uint256",
          "name": "_status",
          "type": "uint256"
        },
        {
          "internalType": "string",
          "name": "_ipfsFileCID",
          "type": "string"
        }
      ],
      "name": "createProject",
      "outputs": [],
      "stateMutability": "nonpayable",
      "type": "function"
    },
    {
      "inputs": [
        {
          "internalType": "string",
          "name": "_text",
          "type": "string"
        },
        {
          "internalType": "address",
          "name": "_addr",
          "type": "address"
        }
      ],
      "name": "createUniqueHexAddress",
      "outputs": [
        {
          "internalType": "address",
          "name": "",
          "type": "address"
        }
      ],
      "stateMutability": "pure",
      "type": "function"
    },
    {
      "inputs": [
        {
          "internalType": "string",
          "name": "_text",
          "type": "string"
        },
        {
          "internalType": "address",
          "name": "_addr",
          "type": "address"
        }
      ],
      "name": "createUniqueIdentifier",
      "outputs": [
        {
          "internalType": "bytes32",
          "name": "",
          "type": "bytes32"
        }
      ],
      "stateMutability": "pure",
      "type": "function"
    },
    {
      "inputs": [],
      "name": "getAllProjects",
      "outputs": [
        {
          "components": [
            {
              "internalType": "uint256",
              "name": "index",
              "type": "uint256"
            },
            {
              "internalType": "string",
              "name": "name",
              "type": "string"
            },
            {
              "internalType": "string",
              "name": "description",
              "type": "string"
            },
            {
              "internalType": "enum Project.ProjectStatus",
              "name": "projectStatus",
              "type": "uint8"
            },
            {
              "internalType": "string",
              "name": "ipfsFileCID",
              "type": "string"
            }
          ],
          "internalType": "struct Project.S_Project[]",
          "name": "",
          "type": "tuple[]"
        }
      ],
      "stateMutability": "view",
      "type": "function"
    },
    {
      "inputs": [],
      "name": "getAllUsers",
      "outputs": [
        {
          "components": [
            {
              "internalType": "string",
              "name": "username",
              "type": "string"
            },
            {
              "internalType": "string",
              "name": "email",
              "type": "string"
            },
            {
              "internalType": "string",
              "name": "firstname",
              "type": "string"
            },
            {
              "internalType": "string",
              "name": "lastname",
              "type": "string"
            },
            {
              "internalType": "enum User.Roles",
              "name": "role",
              "type": "uint8"
            },
            {
              "internalType": "address",
              "name": "walletAddress",
              "type": "address"
            }
          ],
          "internalType": "struct User.S_UserData[]",
          "name": "",
          "type": "tuple[]"
        }
      ],
      "stateMutability": "view",
      "type": "function"
    },
    {
      "inputs": [],
      "name": "getProjectIds",
      "outputs": [
        {
          "internalType": "uint256[]",
          "name": "",
          "type": "uint256[]"
        }
      ],
      "stateMutability": "view",
      "type": "function"
    },
    {
      "inputs": [
        {
          "internalType": "uint256",
          "name": "_index",
          "type": "uint256"
        }
      ],
      "name": "getProjectInfo",
      "outputs": [
        {
          "components": [
            {
              "internalType": "uint256",
              "name": "index",
              "type": "uint256"
            },
            {
              "internalType": "string",
              "name": "name",
              "type": "string"
            },
            {
              "internalType": "string",
              "name": "description",
              "type": "string"
            },
            {
              "internalType": "enum Project.ProjectStatus",
              "name": "projectStatus",
              "type": "uint8"
            },
            {
              "internalType": "string",
              "name": "ipfsFileCID",
              "type": "string"
            }
          ],
          "internalType": "struct Project.S_Project",
          "name": "",
          "type": "tuple"
        }
      ],
      "stateMutability": "view",
      "type": "function"
    },
    {
      "inputs": [
        {
          "internalType": "address",
          "name": "_address",
          "type": "address"
        }
      ],
      "name": "getUserInfo",
      "outputs": [
        {
          "components": [
            {
              "internalType": "string",
              "name": "username",
              "type": "string"
            },
            {
              "internalType": "string",
              "name": "email",
              "type": "string"
            },
            {
              "internalType": "string",
              "name": "firstname",
              "type": "string"
            },
            {
              "internalType": "string",
              "name": "lastname",
              "type": "string"
            },
            {
              "internalType": "enum User.Roles",
              "name": "role",
              "type": "uint8"
            },
            {
              "internalType": "address",
              "name": "walletAddress",
              "type": "address"
            }
          ],
          "internalType": "struct User.S_UserData",
          "name": "",
          "type": "tuple"
        }
      ],
      "stateMutability": "view",
      "type": "function"
    },
    {
      "inputs": [],
      "name": "owner",
      "outputs": [
        {
          "internalType": "address",
          "name": "",
          "type": "address"
        }
      ],
      "stateMutability": "view",
      "type": "function"
    },
    {
      "inputs": [
        {
          "internalType": "uint256",
          "name": "",
          "type": "uint256"
        }
      ],
      "name": "projectIds",
      "outputs": [
        {
          "internalType": "uint256",
          "name": "",
          "type": "uint256"
        }
      ],
      "stateMutability": "view",
      "type": "function"
    },
    {
      "inputs": [
        {
          "internalType": "uint256",
          "name": "",
          "type": "uint256"
        }
      ],
      "name": "projects",
      "outputs": [
        {
          "internalType": "uint256",
          "name": "index",
          "type": "uint256"
        },
        {
          "internalType": "string",
          "name": "name",
          "type": "string"
        },
        {
          "internalType": "string",
          "name": "description",
          "type": "string"
        },
        {
          "internalType": "enum Project.ProjectStatus",
          "name": "projectStatus",
          "type": "uint8"
        },
        {
          "internalType": "string",
          "name": "ipfsFileCID",
          "type": "string"
        }
      ],
      "stateMutability": "view",
      "type": "function"
    },
    {
      "inputs": [],
      "name": "projectsCount",
      "outputs": [
        {
          "internalType": "uint256",
          "name": "",
          "type": "uint256"
        }
      ],
      "stateMutability": "view",
      "type": "function"
    },
    {
      "inputs": [
        {
          "internalType": "uint256",
          "name": "",
          "type": "uint256"
        }
      ],
      "name": "projectsStatus",
      "outputs": [
        {
          "internalType": "uint256",
          "name": "_index",
          "type": "uint256"
        },
        {
          "internalType": "enum Project.ProjectStatus",
          "name": "_status",
          "type": "uint8"
        },
        {
          "internalType": "address",
          "name": "_address",
          "type": "address"
        }
      ],
      "stateMutability": "view",
      "type": "function"
    },
    {
      "inputs": [
        {
          "internalType": "string",
          "name": "_username",
          "type": "string"
        },
        {
          "internalType": "string",
          "name": "_email",
          "type": "string"
        },
        {
          "internalType": "string",
          "name": "_firstname",
          "type": "string"
        },
        {
          "internalType": "string",
          "name": "_lastname",
          "type": "string"
        },
        {
          "internalType": "uint256",
          "name": "_role",
          "type": "uint256"
        },
        {
          "internalType": "address",
          "name": "_walletAddress",
          "type": "address"
        }
      ],
      "name": "registerUser",
      "outputs": [],
      "stateMutability": "nonpayable",
      "type": "function"
    },
    {
      "inputs": [
        {
          "internalType": "string",
          "name": "_description",
          "type": "string"
        },
        {
          "components": [
            {
              "internalType": "uint256",
              "name": "index",
              "type": "uint256"
            },
            {
              "internalType": "string",
              "name": "name",
              "type": "string"
            },
            {
              "internalType": "string",
              "name": "description",
              "type": "string"
            },
            {
              "internalType": "enum Project.ProjectStatus",
              "name": "projectStatus",
              "type": "uint8"
            },
            {
              "internalType": "string",
              "name": "ipfsFileCID",
              "type": "string"
            }
          ],
          "internalType": "struct Project.S_Project",
          "name": "_project",
          "type": "tuple"
        },
        {
          "internalType": "address",
          "name": "_subjectAddress",
          "type": "address"
        }
      ],
      "name": "requestProjectApprovalFromSupervisor",
      "outputs": [],
      "stateMutability": "nonpayable",
      "type": "function"
    },
    {
      "inputs": [
        {
          "internalType": "string",
          "name": "_description",
          "type": "string"
        },
        {
          "components": [
            {
              "internalType": "uint256",
              "name": "index",
              "type": "uint256"
            },
            {
              "internalType": "string",
              "name": "name",
              "type": "string"
            },
            {
              "internalType": "string",
              "name": "description",
              "type": "string"
            },
            {
              "internalType": "enum Project.ProjectStatus",
              "name": "projectStatus",
              "type": "uint8"
            },
            {
              "internalType": "string",
              "name": "ipfsFileCID",
              "type": "string"
            }
          ],
          "internalType": "struct Project.S_Project",
          "name": "_project",
          "type": "tuple"
        },
        {
          "internalType": "address",
          "name": "_subjectAddress",
          "type": "address"
        }
      ],
      "name": "requestProjectCompleteFromSupervisor",
      "outputs": [],
      "stateMutability": "nonpayable",
      "type": "function"
    },
    {
      "inputs": [
        {
          "internalType": "string",
          "name": "_description",
          "type": "string"
        },
        {
          "components": [
            {
              "internalType": "uint256",
              "name": "index",
              "type": "uint256"
            },
            {
              "internalType": "string",
              "name": "name",
              "type": "string"
            },
            {
              "internalType": "string",
              "name": "description",
              "type": "string"
            },
            {
              "internalType": "enum Project.ProjectStatus",
              "name": "projectStatus",
              "type": "uint8"
            },
            {
              "internalType": "string",
              "name": "ipfsFileCID",
              "type": "string"
            }
          ],
          "internalType": "struct Project.S_Project",
          "name": "_project",
          "type": "tuple"
        },
        {
          "internalType": "address",
          "name": "_subjectAddress",
          "type": "address"
        }
      ],
      "name": "requestStartProjectToCompanyBuilder",
      "outputs": [],
      "stateMutability": "nonpayable",
      "type": "function"
    },
    {
      "inputs": [],
      "name": "statusChangedIndex",
      "outputs": [
        {
          "internalType": "uint256",
          "name": "",
          "type": "uint256"
        }
      ],
      "stateMutability": "view",
      "type": "function"
    },
    {
      "inputs": [
        {
          "internalType": "uint256",
          "name": "",
          "type": "uint256"
        }
      ],
      "name": "supervisorRequests",
      "outputs": [
        {
          "internalType": "uint256",
          "name": "index",
          "type": "uint256"
        },
        {
          "internalType": "string",
          "name": "description",
          "type": "string"
        },
        {
          "internalType": "enum Project.RequestStatus",
          "name": "status",
          "type": "uint8"
        },
        {
          "components": [
            {
              "internalType": "uint256",
              "name": "index",
              "type": "uint256"
            },
            {
              "internalType": "string",
              "name": "name",
              "type": "string"
            },
            {
              "internalType": "string",
              "name": "description",
              "type": "string"
            },
            {
              "internalType": "enum Project.ProjectStatus",
              "name": "projectStatus",
              "type": "uint8"
            },
            {
              "internalType": "string",
              "name": "ipfsFileCID",
              "type": "string"
            }
          ],
          "internalType": "struct Project.S_Project",
          "name": "project",
          "type": "tuple"
        },
        {
          "internalType": "address",
          "name": "subjectAddress",
          "type": "address"
        }
      ],
      "stateMutability": "view",
      "type": "function"
    },
    {
      "inputs": [
        {
          "internalType": "address",
          "name": "",
          "type": "address"
        }
      ],
      "name": "userInfo",
      "outputs": [
        {
          "internalType": "string",
          "name": "username",
          "type": "string"
        },
        {
          "internalType": "string",
          "name": "email",
          "type": "string"
        },
        {
          "internalType": "string",
          "name": "firstname",
          "type": "string"
        },
        {
          "internalType": "string",
          "name": "lastname",
          "type": "string"
        },
        {
          "internalType": "enum User.Roles",
          "name": "role",
          "type": "uint8"
        },
        {
          "internalType": "address",
          "name": "walletAddress",
          "type": "address"
        }
      ],
      "stateMutability": "view",
      "type": "function"
    },
    {
      "inputs": [],
      "name": "usersCount",
      "outputs": [
        {
          "internalType": "uint256",
          "name": "",
          "type": "uint256"
        }
      ],
      "stateMutability": "view",
      "type": "function"
    },
    {
      "inputs": [
        {
          "components": [
            {
              "internalType": "uint256",
              "name": "index",
              "type": "uint256"
            },
            {
              "internalType": "string",
              "name": "name",
              "type": "string"
            },
            {
              "internalType": "string",
              "name": "description",
              "type": "string"
            },
            {
              "internalType": "enum Project.ProjectStatus",
              "name": "projectStatus",
              "type": "uint8"
            },
            {
              "internalType": "string",
              "name": "ipfsFileCID",
              "type": "string"
            }
          ],
          "internalType": "struct Project.S_Project",
          "name": "_project",
          "type": "tuple"
        }
      ],
      "name": "setProjectRequestToOnGoingStatus",
      "outputs": [],
      "stateMutability": "nonpayable",
      "type": "function"
    },
    {
      "inputs": [
        {
          "internalType": "string",
          "name": "_description",
          "type": "string"
        },
        {
          "components": [
            {
              "internalType": "uint256",
              "name": "index",
              "type": "uint256"
            },
            {
              "internalType": "string",
              "name": "name",
              "type": "string"
            },
            {
              "internalType": "string",
              "name": "description",
              "type": "string"
            },
            {
              "internalType": "enum Project.ProjectStatus",
              "name": "projectStatus",
              "type": "uint8"
            },
            {
              "internalType": "string",
              "name": "ipfsFileCID",
              "type": "string"
            }
          ],
          "internalType": "struct Project.S_Project",
          "name": "_project",
          "type": "tuple"
        }
      ],
      "name": "setProjectRequestToRejectStatus",
      "outputs": [],
      "stateMutability": "nonpayable",
      "type": "function"
    },
    {
      "inputs": [
        {
          "components": [
            {
              "internalType": "uint256",
              "name": "index",
              "type": "uint256"
            },
            {
              "internalType": "string",
              "name": "name",
              "type": "string"
            },
            {
              "internalType": "string",
              "name": "description",
              "type": "string"
            },
            {
              "internalType": "enum Project.ProjectStatus",
              "name": "projectStatus",
              "type": "uint8"
            },
            {
              "internalType": "string",
              "name": "ipfsFileCID",
              "type": "string"
            }
          ],
          "internalType": "struct Project.S_Project",
          "name": "_project",
          "type": "tuple"
        }
      ],
      "name": "setProjectRequestToBeforeFinalizationStatus",
      "outputs": [],
      "stateMutability": "nonpayable",
      "type": "function"
    }
  ],
  "bytecode": "0x6080604052600060025560006004556000600a5534801561001f57600080fd5b5033600160006101000a81548173ffffffffffffffffffffffffffffffffffffffff021916908373ffffffffffffffffffffffffffffffffffffffff16021790555033600660006101000a81548173ffffffffffffffffffffffffffffffffffffffff021916908373ffffffffffffffffffffffffffffffffffffffff16021790555033600f60006101000a81548173ffffffffffffffffffffffffffffffffffffffff021916908373ffffffffffffffffffffffffffffffffffffffff160217905550614cea806100f26000396000f3fe608060405234801561001057600080fd5b50600436106101cf5760003560e01c80636fe3d19411610104578063953dcd2a116100a2578063cb2d316411610071578063cb2d31641461057c578063d40d4a8014610598578063e2842d79146105cc578063fabf5968146105ea576101cf565b8063953dcd2a146104db578063a2bdedf4146104f7578063b42302a21461052c578063c73b302e1461055e576101cf565b80638c86a1d7116100de5780638c86a1d7146104515780638da5cb5b1461048557806391009786146104a3578063911c29a6146104bf576101cf565b80636fe3d194146103fb5780637748587f1461041757806380d0382914610433576101cf565b806348c35ad4116101715780636386c1c71161014b5780636386c1c714610375578063644fa658146103a55780636ba13a82146103c15780636cce6ff1146103df576101cf565b806348c35ad4146102e157806353b3194c146103115780636132844f14610345576101cf565b80631a6cee2f116101ad5780631a6cee2f1461026d57806329a613b51461028b5780632de5f996146102a957806346575714146102c5576101cf565b8063107046bd146101d457806313b4078f146102085780631959a00214610238575b600080fd5b6101ee60048036038101906101e991906136d1565b61061a565b6040516101ff95949392919061381d565b60405180910390f35b610222600480360381019061021d9190613a18565b6107f5565b60405161022f9190613a83565b60405180910390f35b610252600480360381019061024d9190613a9e565b61082b565b60405161026496959493929190613b13565b60405180910390f35b610275610ab4565b6040516102829190613b90565b60405180910390f35b610293610aba565b6040516102a09190613c69565b60405180910390f35b6102c360048036038101906102be9190613d9a565b610b12565b005b6102df60048036038101906102da9190613de3565b610c34565b005b6102fb60048036038101906102f691906136d1565b610ecd565b6040516103089190613b90565b60405180910390f35b61032b600480360381019061032691906136d1565b610ef1565b60405161033c95949392919061381d565b60405180910390f35b61035f600480360381019061035a9190613a18565b6110dc565b60405161036c9190613eb7565b60405180910390f35b61038f600480360381019061038a9190613a9e565b61110f565b60405161039c9190613fd8565b60405180910390f35b6103bf60048036038101906103ba9190613ffa565b611440565b005b6103c9611599565b6040516103d69190613b90565b60405180910390f35b6103f960048036038101906103f49190613d9a565b61159f565b005b6104156004803603810190610410919061403a565b6116c1565b005b610431600480360381019061042c919061403a565b6118cb565b005b61043b611ad5565b604051610448919061421a565b60405180910390f35b61046b600480360381019061046691906136d1565b611d2f565b60405161047c959493929190614308565b60405180910390f35b61048d61201f565b60405161049a9190613a83565b60405180910390f35b6104bd60048036038101906104b89190613ffa565b612045565b005b6104d960048036038101906104d49190614369565b6121c1565b005b6104f560048036038101906104f0919061403a565b6126d0565b005b610511600480360381019061050c91906136d1565b6128da565b60405161052396959493929190613b13565b60405180910390f35b610546600480360381019061054191906136d1565b612b73565b60405161055593929190614466565b60405180910390f35b610566612bca565b6040516105739190613b90565b60405180910390f35b6105966004803603810190610591919061449d565b612bd0565b005b6105b260048036038101906105ad91906136d1565b612cf5565b6040516105c3959493929190614308565b60405180910390f35b6105d4612fe5565b6040516105e19190614675565b60405180910390f35b61060460048036038101906105ff91906136d1565b61331d565b6040516106119190614697565b60405180910390f35b6007602052806000526040600020600091509050806000015490806001018054610643906146e8565b80601f016020809104026020016040519081016040528092919081815260200182805461066f906146e8565b80156106bc5780601f10610691576101008083540402835291602001916106bc565b820191906000526020600020905b81548152906001019060200180831161069f57829003601f168201915b5050505050908060020180546106d1906146e8565b80601f01602080910402602001604051908101604052809291908181526020018280546106fd906146e8565b801561074a5780601f1061071f5761010080835404028352916020019161074a565b820191906000526020600020905b81548152906001019060200180831161072d57829003601f168201915b5050505050908060030160009054906101000a900460ff1690806004018054610772906146e8565b80601f016020809104026020016040519081016040528092919081815260200182805461079e906146e8565b80156107eb5780601f106107c0576101008083540402835291602001916107eb565b820191906000526020600020905b8154815290600101906020018083116107ce57829003601f168201915b5050505050905085565b6000828260405160200161080a92919061479e565b6040516020818303038152906040528051906020012060001c905092915050565b600060205280600052604060002060009150905080600001805461084e906146e8565b80601f016020809104026020016040519081016040528092919081815260200182805461087a906146e8565b80156108c75780601f1061089c576101008083540402835291602001916108c7565b820191906000526020600020905b8154815290600101906020018083116108aa57829003601f168201915b5050505050908060010180546108dc906146e8565b80601f0160208091040260200160405190810160405280929190818152602001828054610908906146e8565b80156109555780601f1061092a57610100808354040283529160200191610955565b820191906000526020600020905b81548152906001019060200180831161093857829003601f168201915b50505050509080600201805461096a906146e8565b80601f0160208091040260200160405190810160405280929190818152602001828054610996906146e8565b80156109e35780601f106109b8576101008083540402835291602001916109e3565b820191906000526020600020905b8154815290600101906020018083116109c657829003601f168201915b5050505050908060030180546109f8906146e8565b80601f0160208091040260200160405190810160405280929190818152602001828054610a24906146e8565b8015610a715780601f10610a4657610100808354040283529160200191610a71565b820191906000526020600020905b815481529060010190602001808311610a5457829003601f168201915b5050505050908060040160009054906101000a900460ff16908060040160019054906101000a900473ffffffffffffffffffffffffffffffffffffffff16905086565b60045481565b6060600b805480602002602001604051908101604052809291908181526020018280548015610b0857602002820191906000526020600020905b815481526020019060010190808311610af4575b5050505050905090565b3373ffffffffffffffffffffffffffffffffffffffff16600f60009054906101000a900473ffffffffffffffffffffffffffffffffffffffff1673ffffffffffffffffffffffffffffffffffffffff1614610ba2576040517f08c379a0000000000000000000000000000000000000000000000000000000008152600401610b9990614812565b60405180910390fd5b600481606001906005811115610bbb57610bba6137a6565b5b90816005811115610bcf57610bce6137a6565b5b815250507ff8bb4358ad47552bf64034c3974f8d87f4628d3d227987cfcd5b19fc7cedc6e0600482600f60009054906101000a900473ffffffffffffffffffffffffffffffffffffffff16604051610c2993929190614832565b60405180910390a150565b600a5460076000600a548152602001908152602001600020600001819055508360076000600a5481526020019081526020016000206001019080519060200190610c7f929190613545565b508260076000600a5481526020019081526020016000206002019080519060200190610cac929190613545565b50816005811115610cc057610cbf6137a6565b5b60076000600a54815260200190815260200160002060030160006101000a81548160ff02191690836005811115610cfa57610cf96137a6565b5b02179055508060076000600a5481526020019081526020016000206004019080519060200190610d2b929190613545565b507f274f009187cb91dd70ef9fd455c66e7263b5fc9746490cba15a3be400f580fa88484846005811115610d6257610d616137a6565b5b604051610d7193929190614870565b60405180910390a1600b600a549080600181540180825580915050600190039060005260206000200160009091909190915055600c6040518060a00160405280600a548152602001868152602001858152602001846005811115610dd857610dd76137a6565b5b6005811115610dea57610de96137a6565b5b8152602001838152509080600181540180825580915050600190039060005260206000209060050201600090919091909150600082015181600001556020820151816001019080519060200190610e42929190613545565b506040820151816002019080519060200190610e5f929190613545565b5060608201518160030160006101000a81548160ff02191690836005811115610e8b57610e8a6137a6565b5b02179055506080820151816004019080519060200190610eac929190613545565b505050600a6000815480929190610ec2906148e4565b919050555050505050565b600b8181548110610edd57600080fd5b906000526020600020016000915090505481565b600c8181548110610f0157600080fd5b9060005260206000209060050201600091509050806000015490806001018054610f2a906146e8565b80601f0160208091040260200160405190810160405280929190818152602001828054610f56906146e8565b8015610fa35780601f10610f7857610100808354040283529160200191610fa3565b820191906000526020600020905b815481529060010190602001808311610f8657829003601f168201915b505050505090806002018054610fb8906146e8565b80601f0160208091040260200160405190810160405280929190818152602001828054610fe4906146e8565b80156110315780601f1061100657610100808354040283529160200191611031565b820191906000526020600020905b81548152906001019060200180831161101457829003601f168201915b5050505050908060030160009054906101000a900460ff1690806004018054611059906146e8565b80601f0160208091040260200160405190810160405280929190818152602001828054611085906146e8565b80156110d25780601f106110a7576101008083540402835291602001916110d2565b820191906000526020600020905b8154815290600101906020018083116110b557829003601f168201915b5050505050905085565b600082826040516020016110f192919061479e565b60405160208183030381529060405280519060200120905092915050565b6111176135cb565b6000808373ffffffffffffffffffffffffffffffffffffffff1673ffffffffffffffffffffffffffffffffffffffff1681526020019081526020016000206040518060c0016040529081600082018054611170906146e8565b80601f016020809104026020016040519081016040528092919081815260200182805461119c906146e8565b80156111e95780601f106111be576101008083540402835291602001916111e9565b820191906000526020600020905b8154815290600101906020018083116111cc57829003601f168201915b50505050508152602001600182018054611202906146e8565b80601f016020809104026020016040519081016040528092919081815260200182805461122e906146e8565b801561127b5780601f106112505761010080835404028352916020019161127b565b820191906000526020600020905b81548152906001019060200180831161125e57829003601f168201915b50505050508152602001600282018054611294906146e8565b80601f01602080910402602001604051908101604052809291908181526020018280546112c0906146e8565b801561130d5780601f106112e25761010080835404028352916020019161130d565b820191906000526020600020905b8154815290600101906020018083116112f057829003601f168201915b50505050508152602001600382018054611326906146e8565b80601f0160208091040260200160405190810160405280929190818152602001828054611352906146e8565b801561139f5780601f106113745761010080835404028352916020019161139f565b820191906000526020600020905b81548152906001019060200180831161138257829003601f168201915b505050505081526020016004820160009054906101000a900460ff1660038111156113cd576113cc6137a6565b5b60038111156113df576113de6137a6565b5b81526020016004820160019054906101000a900473ffffffffffffffffffffffffffffffffffffffff1673ffffffffffffffffffffffffffffffffffffffff1673ffffffffffffffffffffffffffffffffffffffff16815250509050919050565b60045460056000600454815260200190815260200160002060000181905550816005811115611472576114716137a6565b5b60056000600454815260200190815260200160002060010160006101000a81548160ff021916908360058111156114ac576114ab6137a6565b5b02179055508060056000600454815260200190815260200160002060010160016101000a81548173ffffffffffffffffffffffffffffffffffffffff021916908373ffffffffffffffffffffffffffffffffffffffff1602179055508073ffffffffffffffffffffffffffffffffffffffff16826005811115611532576115316137a6565b5b6005811115611544576115436137a6565b5b7f119b71e0e33421c153e29c9cf62d53667313969e57a1cffd506f579e87267d926004546040516115759190613b90565b60405180910390a360046000815480929190611590906148e4565b91905055505050565b60025481565b3373ffffffffffffffffffffffffffffffffffffffff16600f60009054906101000a900473ffffffffffffffffffffffffffffffffffffffff1673ffffffffffffffffffffffffffffffffffffffff161461162f576040517f08c379a000000000000000000000000000000000000000000000000000000000815260040161162690614812565b60405180910390fd5b600381606001906005811115611648576116476137a6565b5b9081600581111561165c5761165b6137a6565b5b815250507f36bbf2c4635dd5bbc3747e4089ade2d34883ac6bd195c47bffd310a685ce6eec600382600f60009054906101000a900473ffffffffffffffffffffffffffffffffffffffff166040516116b693929190614832565b60405180910390a150565b600460058111156116d5576116d46137a6565b5b826060015160058111156116ec576116eb6137a6565b5b1461172c576040517f08c379a0000000000000000000000000000000000000000000000000000000008152600401611723906149c5565b60405180910390fd5b600060096000600e54815260200190815260200160002090508381600101908051906020019061175d929190613545565b5060008160020160006101000a81548160ff02191690836001811115611786576117856137a6565b5b021790555082816003016000820151816000015560208201518160010190805190602001906117b6929190613545565b5060408201518160020190805190602001906117d3929190613545565b5060608201518160030160006101000a81548160ff021916908360058111156117ff576117fe6137a6565b5b02179055506080820151816004019080519060200190611820929190613545565b50905050818160080160006101000a81548173ffffffffffffffffffffffffffffffffffffffff021916908373ffffffffffffffffffffffffffffffffffffffff1602179055507fc0a7086e05590c8d9160aba8dc6a29b754eda15e93d2a2578429bc2fda6bdec3600e546000858660600151866040516118a59594939291906149e5565b60405180910390a1600e60008154809291906118c0906148e4565b919050555050505050565b600060058111156118df576118de6137a6565b5b826060015160058111156118f6576118f56137a6565b5b14611936576040517f08c379a000000000000000000000000000000000000000000000000000000000815260040161192d90614ab1565b60405180910390fd5b600060096000600e548152602001908152602001600020905083816001019080519060200190611967929190613545565b5060008160020160006101000a81548160ff021916908360018111156119905761198f6137a6565b5b021790555082816003016000820151816000015560208201518160010190805190602001906119c0929190613545565b5060408201518160020190805190602001906119dd929190613545565b5060608201518160030160006101000a81548160ff02191690836005811115611a0957611a086137a6565b5b02179055506080820151816004019080519060200190611a2a929190613545565b50905050818160080160006101000a81548173ffffffffffffffffffffffffffffffffffffffff021916908373ffffffffffffffffffffffffffffffffffffffff1602179055507fc0a7086e05590c8d9160aba8dc6a29b754eda15e93d2a2578429bc2fda6bdec3600e54600085866060015186604051611aaf9594939291906149e5565b60405180910390a1600e6000815480929190611aca906148e4565b919050555050505050565b6060600c805480602002602001604051908101604052809291908181526020016000905b82821015611d2657838290600052602060002090600502016040518060a001604052908160008201548152602001600182018054611b36906146e8565b80601f0160208091040260200160405190810160405280929190818152602001828054611b62906146e8565b8015611baf5780601f10611b8457610100808354040283529160200191611baf565b820191906000526020600020905b815481529060010190602001808311611b9257829003601f168201915b50505050508152602001600282018054611bc8906146e8565b80601f0160208091040260200160405190810160405280929190818152602001828054611bf4906146e8565b8015611c415780601f10611c1657610100808354040283529160200191611c41565b820191906000526020600020905b815481529060010190602001808311611c2457829003601f168201915b505050505081526020016003820160009054906101000a900460ff166005811115611c6f57611c6e6137a6565b5b6005811115611c8157611c806137a6565b5b8152602001600482018054611c95906146e8565b80601f0160208091040260200160405190810160405280929190818152602001828054611cc1906146e8565b8015611d0e5780601f10611ce357610100808354040283529160200191611d0e565b820191906000526020600020905b815481529060010190602001808311611cf157829003601f168201915b50505050508152505081526020019060010190611af9565b50505050905090565b6009602052806000526040600020600091509050806000015490806001018054611d58906146e8565b80601f0160208091040260200160405190810160405280929190818152602001828054611d84906146e8565b8015611dd15780601f10611da657610100808354040283529160200191611dd1565b820191906000526020600020905b815481529060010190602001808311611db457829003601f168201915b5050505050908060020160009054906101000a900460ff1690806003016040518060a001604052908160008201548152602001600182018054611e13906146e8565b80601f0160208091040260200160405190810160405280929190818152602001828054611e3f906146e8565b8015611e8c5780601f10611e6157610100808354040283529160200191611e8c565b820191906000526020600020905b815481529060010190602001808311611e6f57829003601f168201915b50505050508152602001600282018054611ea5906146e8565b80601f0160208091040260200160405190810160405280929190818152602001828054611ed1906146e8565b8015611f1e5780601f10611ef357610100808354040283529160200191611f1e565b820191906000526020600020905b815481529060010190602001808311611f0157829003601f168201915b505050505081526020016003820160009054906101000a900460ff166005811115611f4c57611f4b6137a6565b5b6005811115611f5e57611f5d6137a6565b5b8152602001600482018054611f72906146e8565b80601f0160208091040260200160405190810160405280929190818152602001828054611f9e906146e8565b8015611feb5780601f10611fc057610100808354040283529160200191611feb565b820191906000526020600020905b815481529060010190602001808311611fce57829003601f168201915b505050505081525050908060080160009054906101000a900473ffffffffffffffffffffffffffffffffffffffff16905085565b600160009054906101000a900473ffffffffffffffffffffffffffffffffffffffff1681565b816003811115612058576120576137a6565b5b6000808373ffffffffffffffffffffffffffffffffffffffff1673ffffffffffffffffffffffffffffffffffffffff16815260200190815260200160002060040160006101000a81548160ff021916908360038111156120bb576120ba6137a6565b5b021790555060005b6003805490508110156121bc578173ffffffffffffffffffffffffffffffffffffffff16600382815481106120fb576120fa614ad1565b5b906000526020600020906005020160040160019054906101000a900473ffffffffffffffffffffffffffffffffffffffff1673ffffffffffffffffffffffffffffffffffffffff1614156121a95782600381111561215c5761215b6137a6565b5b600382815481106121705761216f614ad1565b5b906000526020600020906005020160040160006101000a81548160ff021916908360038111156121a3576121a26137a6565b5b02179055505b80806121b4906148e4565b9150506120c3565b505050565b3373ffffffffffffffffffffffffffffffffffffffff16600160009054906101000a900473ffffffffffffffffffffffffffffffffffffffff1673ffffffffffffffffffffffffffffffffffffffff1614612251576040517f08c379a000000000000000000000000000000000000000000000000000000000815260040161224890614b4c565b60405180910390fd5b856000808373ffffffffffffffffffffffffffffffffffffffff1673ffffffffffffffffffffffffffffffffffffffff16815260200190815260200160002060000190805190602001906122a6929190613545565b50846000808373ffffffffffffffffffffffffffffffffffffffff1673ffffffffffffffffffffffffffffffffffffffff16815260200190815260200160002060010190805190602001906122fc929190613545565b50836000808373ffffffffffffffffffffffffffffffffffffffff1673ffffffffffffffffffffffffffffffffffffffff1681526020019081526020016000206002019080519060200190612352929190613545565b50826000808373ffffffffffffffffffffffffffffffffffffffff1673ffffffffffffffffffffffffffffffffffffffff16815260200190815260200160002060030190805190602001906123a8929190613545565b508160038111156123bc576123bb6137a6565b5b6000808373ffffffffffffffffffffffffffffffffffffffff1673ffffffffffffffffffffffffffffffffffffffff16815260200190815260200160002060040160006101000a81548160ff0219169083600381111561241f5761241e6137a6565b5b0217905550806000808373ffffffffffffffffffffffffffffffffffffffff1673ffffffffffffffffffffffffffffffffffffffff16815260200190815260200160002060040160016101000a81548173ffffffffffffffffffffffffffffffffffffffff021916908373ffffffffffffffffffffffffffffffffffffffff1602179055508160038111156124b7576124b66137a6565b5b60038111156124c9576124c86137a6565b5b866040516124d79190614b6c565b60405180910390208273ffffffffffffffffffffffffffffffffffffffff167fddb5d1667467713eb503e7e133811c91a231cb6b63f11930889c6004f36c35ee88888860405161252993929190614b83565b60405180910390a460036040518060c00160405280888152602001878152602001868152602001858152602001846003811115612569576125686137a6565b5b600381111561257b5761257a6137a6565b5b81526020018373ffffffffffffffffffffffffffffffffffffffff16815250908060018154018082558091505060019003906000526020600020906005020160009091909190915060008201518160000190805190602001906125df929190613545565b5060208201518160010190805190602001906125fc929190613545565b506040820151816002019080519060200190612619929190613545565b506060820151816003019080519060200190612636929190613545565b5060808201518160040160006101000a81548160ff02191690836003811115612662576126616137a6565b5b021790555060a08201518160040160016101000a81548173ffffffffffffffffffffffffffffffffffffffff021916908373ffffffffffffffffffffffffffffffffffffffff1602179055505050600260008154809291906126c3906148e4565b9190505550505050505050565b600160058111156126e4576126e36137a6565b5b826060015160058111156126fb576126fa6137a6565b5b1461273b576040517f08c379a000000000000000000000000000000000000000000000000000000000815260040161273290614c41565b60405180910390fd5b600060086000600d54815260200190815260200160002090508381600101908051906020019061276c929190613545565b5060008160020160006101000a81548160ff02191690836001811115612795576127946137a6565b5b021790555082816003016000820151816000015560208201518160010190805190602001906127c5929190613545565b5060408201518160020190805190602001906127e2929190613545565b5060608201518160030160006101000a81548160ff0219169083600581111561280e5761280d6137a6565b5b0217905550608082015181600401908051906020019061282f929190613545565b50905050818160080160006101000a81548173ffffffffffffffffffffffffffffffffffffffff021916908373ffffffffffffffffffffffffffffffffffffffff1602179055507f56cef5b605de75dde94390e0903b843a7c7203544ad094da5db5ecdafb897cb8600d546000858660600151866040516128b49594939291906149e5565b60405180910390a1600d60008154809291906128cf906148e4565b919050555050505050565b600381815481106128ea57600080fd5b906000526020600020906005020160009150905080600001805461290d906146e8565b80601f0160208091040260200160405190810160405280929190818152602001828054612939906146e8565b80156129865780601f1061295b57610100808354040283529160200191612986565b820191906000526020600020905b81548152906001019060200180831161296957829003601f168201915b50505050509080600101805461299b906146e8565b80601f01602080910402602001604051908101604052809291908181526020018280546129c7906146e8565b8015612a145780601f106129e957610100808354040283529160200191612a14565b820191906000526020600020905b8154815290600101906020018083116129f757829003601f168201915b505050505090806002018054612a29906146e8565b80601f0160208091040260200160405190810160405280929190818152602001828054612a55906146e8565b8015612aa25780601f10612a7757610100808354040283529160200191612aa2565b820191906000526020600020905b815481529060010190602001808311612a8557829003601f168201915b505050505090806003018054612ab7906146e8565b80601f0160208091040260200160405190810160405280929190818152602001828054612ae3906146e8565b8015612b305780601f10612b0557610100808354040283529160200191612b30565b820191906000526020600020905b815481529060010190602001808311612b1357829003601f168201915b5050505050908060040160009054906101000a900460ff16908060040160019054906101000a900473ffffffffffffffffffffffffffffffffffffffff16905086565b60056020528060005260406000206000915090508060000154908060010160009054906101000a900460ff16908060010160019054906101000a900473ffffffffffffffffffffffffffffffffffffffff16905083565b600a5481565b3373ffffffffffffffffffffffffffffffffffffffff16600f60009054906101000a900473ffffffffffffffffffffffffffffffffffffffff1673ffffffffffffffffffffffffffffffffffffffff1614612c60576040517f08c379a0000000000000000000000000000000000000000000000000000000008152600401612c5790614812565b60405180910390fd5b600281606001906005811115612c7957612c786137a6565b5b90816005811115612c8d57612c8c6137a6565b5b815250507fe3b6ce34d92d54525c86b075ac7ee860f397bf04357137b90aa44a80419a45c382600283600f60009054906101000a900473ffffffffffffffffffffffffffffffffffffffff16604051612ce99493929190614c61565b60405180910390a15050565b6008602052806000526040600020600091509050806000015490806001018054612d1e906146e8565b80601f0160208091040260200160405190810160405280929190818152602001828054612d4a906146e8565b8015612d975780601f10612d6c57610100808354040283529160200191612d97565b820191906000526020600020905b815481529060010190602001808311612d7a57829003601f168201915b5050505050908060020160009054906101000a900460ff1690806003016040518060a001604052908160008201548152602001600182018054612dd9906146e8565b80601f0160208091040260200160405190810160405280929190818152602001828054612e05906146e8565b8015612e525780601f10612e2757610100808354040283529160200191612e52565b820191906000526020600020905b815481529060010190602001808311612e3557829003601f168201915b50505050508152602001600282018054612e6b906146e8565b80601f0160208091040260200160405190810160405280929190818152602001828054612e97906146e8565b8015612ee45780601f10612eb957610100808354040283529160200191612ee4565b820191906000526020600020905b815481529060010190602001808311612ec757829003601f168201915b505050505081526020016003820160009054906101000a900460ff166005811115612f1257612f116137a6565b5b6005811115612f2457612f236137a6565b5b8152602001600482018054612f38906146e8565b80601f0160208091040260200160405190810160405280929190818152602001828054612f64906146e8565b8015612fb15780601f10612f8657610100808354040283529160200191612fb1565b820191906000526020600020905b815481529060010190602001808311612f9457829003601f168201915b505050505081525050908060080160009054906101000a900473ffffffffffffffffffffffffffffffffffffffff16905085565b60606003805480602002602001604051908101604052809291908181526020016000905b8282101561331457838290600052602060002090600502016040518060c001604052908160008201805461303c906146e8565b80601f0160208091040260200160405190810160405280929190818152602001828054613068906146e8565b80156130b55780601f1061308a576101008083540402835291602001916130b5565b820191906000526020600020905b81548152906001019060200180831161309857829003601f168201915b505050505081526020016001820180546130ce906146e8565b80601f01602080910402602001604051908101604052809291908181526020018280546130fa906146e8565b80156131475780601f1061311c57610100808354040283529160200191613147565b820191906000526020600020905b81548152906001019060200180831161312a57829003601f168201915b50505050508152602001600282018054613160906146e8565b80601f016020809104026020016040519081016040528092919081815260200182805461318c906146e8565b80156131d95780601f106131ae576101008083540402835291602001916131d9565b820191906000526020600020905b8154815290600101906020018083116131bc57829003601f168201915b505050505081526020016003820180546131f2906146e8565b80601f016020809104026020016040519081016040528092919081815260200182805461321e906146e8565b801561326b5780601f106132405761010080835404028352916020019161326b565b820191906000526020600020905b81548152906001019060200180831161324e57829003601f168201915b505050505081526020016004820160009054906101000a900460ff166003811115613299576132986137a6565b5b60038111156132ab576132aa6137a6565b5b81526020016004820160019054906101000a900473ffffffffffffffffffffffffffffffffffffffff1673ffffffffffffffffffffffffffffffffffffffff1673ffffffffffffffffffffffffffffffffffffffff168152505081526020019060010190613009565b50505050905090565b613325613629565b600760008381526020019081526020016000206040518060a00160405290816000820154815260200160018201805461335d906146e8565b80601f0160208091040260200160405190810160405280929190818152602001828054613389906146e8565b80156133d65780601f106133ab576101008083540402835291602001916133d6565b820191906000526020600020905b8154815290600101906020018083116133b957829003601f168201915b505050505081526020016002820180546133ef906146e8565b80601f016020809104026020016040519081016040528092919081815260200182805461341b906146e8565b80156134685780601f1061343d57610100808354040283529160200191613468565b820191906000526020600020905b81548152906001019060200180831161344b57829003601f168201915b505050505081526020016003820160009054906101000a900460ff166005811115613496576134956137a6565b5b60058111156134a8576134a76137a6565b5b81526020016004820180546134bc906146e8565b80601f01602080910402602001604051908101604052809291908181526020018280546134e8906146e8565b80156135355780601f1061350a57610100808354040283529160200191613535565b820191906000526020600020905b81548152906001019060200180831161351857829003601f168201915b5050505050815250509050919050565b828054613551906146e8565b90600052602060002090601f01602090048101928261357357600085556135ba565b82601f1061358c57805160ff19168380011785556135ba565b828001600101855582156135ba579182015b828111156135b957825182559160200191906001019061359e565b5b5090506135c7919061366a565b5090565b6040518060c001604052806060815260200160608152602001606081526020016060815260200160006003811115613606576136056137a6565b5b8152602001600073ffffffffffffffffffffffffffffffffffffffff1681525090565b6040518060a001604052806000815260200160608152602001606081526020016000600581111561365d5761365c6137a6565b5b8152602001606081525090565b5b8082111561368357600081600090555060010161366b565b5090565b6000604051905090565b600080fd5b600080fd5b6000819050919050565b6136ae8161369b565b81146136b957600080fd5b50565b6000813590506136cb816136a5565b92915050565b6000602082840312156136e7576136e6613691565b5b60006136f5848285016136bc565b91505092915050565b6137078161369b565b82525050565b600081519050919050565b600082825260208201905092915050565b60005b8381101561374757808201518184015260208101905061372c565b83811115613756576000848401525b50505050565b6000601f19601f8301169050919050565b60006137788261370d565b6137828185613718565b9350613792818560208601613729565b61379b8161375c565b840191505092915050565b7f4e487b7100000000000000000000000000000000000000000000000000000000600052602160045260246000fd5b600681106137e6576137e56137a6565b5b50565b60008190506137f7826137d5565b919050565b6000613807826137e9565b9050919050565b613817816137fc565b82525050565b600060a08201905061383260008301886136fe565b8181036020830152613844818761376d565b90508181036040830152613858818661376d565b9050613867606083018561380e565b8181036080830152613879818461376d565b90509695505050505050565b600080fd5b600080fd5b7f4e487b7100000000000000000000000000000000000000000000000000000000600052604160045260246000fd5b6138c78261375c565b810181811067ffffffffffffffff821117156138e6576138e561388f565b5b80604052505050565b60006138f9613687565b905061390582826138be565b919050565b600067ffffffffffffffff8211156139255761392461388f565b5b61392e8261375c565b9050602081019050919050565b82818337600083830152505050565b600061395d6139588461390a565b6138ef565b9050828152602081018484840111156139795761397861388a565b5b61398484828561393b565b509392505050565b600082601f8301126139a1576139a0613885565b5b81356139b184826020860161394a565b91505092915050565b600073ffffffffffffffffffffffffffffffffffffffff82169050919050565b60006139e5826139ba565b9050919050565b6139f5816139da565b8114613a0057600080fd5b50565b600081359050613a12816139ec565b92915050565b60008060408385031215613a2f57613a2e613691565b5b600083013567ffffffffffffffff811115613a4d57613a4c613696565b5b613a598582860161398c565b9250506020613a6a85828601613a03565b9150509250929050565b613a7d816139da565b82525050565b6000602082019050613a986000830184613a74565b92915050565b600060208284031215613ab457613ab3613691565b5b6000613ac284828501613a03565b91505092915050565b60048110613adc57613adb6137a6565b5b50565b6000819050613aed82613acb565b919050565b6000613afd82613adf565b9050919050565b613b0d81613af2565b82525050565b600060c0820190508181036000830152613b2d818961376d565b90508181036020830152613b41818861376d565b90508181036040830152613b55818761376d565b90508181036060830152613b69818661376d565b9050613b786080830185613b04565b613b8560a0830184613a74565b979650505050505050565b6000602082019050613ba560008301846136fe565b92915050565b600081519050919050565b600082825260208201905092915050565b6000819050602082019050919050565b613be08161369b565b82525050565b6000613bf28383613bd7565b60208301905092915050565b6000602082019050919050565b6000613c1682613bab565b613c208185613bb6565b9350613c2b83613bc7565b8060005b83811015613c5c578151613c438882613be6565b9750613c4e83613bfe565b925050600181019050613c2f565b5085935050505092915050565b60006020820190508181036000830152613c838184613c0b565b905092915050565b600080fd5b600080fd5b60068110613ca257600080fd5b50565b600081359050613cb481613c95565b92915050565b600060a08284031215613cd057613ccf613c8b565b5b613cda60a06138ef565b90506000613cea848285016136bc565b600083015250602082013567ffffffffffffffff811115613d0e57613d0d613c90565b5b613d1a8482850161398c565b602083015250604082013567ffffffffffffffff811115613d3e57613d3d613c90565b5b613d4a8482850161398c565b6040830152506060613d5e84828501613ca5565b606083015250608082013567ffffffffffffffff811115613d8257613d81613c90565b5b613d8e8482850161398c565b60808301525092915050565b600060208284031215613db057613daf613691565b5b600082013567ffffffffffffffff811115613dce57613dcd613696565b5b613dda84828501613cba565b91505092915050565b60008060008060808587031215613dfd57613dfc613691565b5b600085013567ffffffffffffffff811115613e1b57613e1a613696565b5b613e278782880161398c565b945050602085013567ffffffffffffffff811115613e4857613e47613696565b5b613e548782880161398c565b9350506040613e65878288016136bc565b925050606085013567ffffffffffffffff811115613e8657613e85613696565b5b613e928782880161398c565b91505092959194509250565b6000819050919050565b613eb181613e9e565b82525050565b6000602082019050613ecc6000830184613ea8565b92915050565b600082825260208201905092915050565b6000613eee8261370d565b613ef88185613ed2565b9350613f08818560208601613729565b613f118161375c565b840191505092915050565b613f2581613af2565b82525050565b613f34816139da565b82525050565b600060c0830160008301518482036000860152613f578282613ee3565b91505060208301518482036020860152613f718282613ee3565b91505060408301518482036040860152613f8b8282613ee3565b91505060608301518482036060860152613fa58282613ee3565b9150506080830151613fba6080860182613f1c565b5060a0830151613fcd60a0860182613f2b565b508091505092915050565b60006020820190508181036000830152613ff28184613f3a565b905092915050565b6000806040838503121561401157614010613691565b5b600061401f858286016136bc565b925050602061403085828601613a03565b9150509250929050565b60008060006060848603121561405357614052613691565b5b600084013567ffffffffffffffff81111561407157614070613696565b5b61407d8682870161398c565b935050602084013567ffffffffffffffff81111561409e5761409d613696565b5b6140aa86828701613cba565b92505060406140bb86828701613a03565b9150509250925092565b600081519050919050565b600082825260208201905092915050565b6000819050602082019050919050565b6140fa816137fc565b82525050565b600060a0830160008301516141186000860182613bd7565b50602083015184820360208601526141308282613ee3565b9150506040830151848203604086015261414a8282613ee3565b915050606083015161415f60608601826140f1565b50608083015184820360808601526141778282613ee3565b9150508091505092915050565b60006141908383614100565b905092915050565b6000602082019050919050565b60006141b0826140c5565b6141ba81856140d0565b9350836020820285016141cc856140e1565b8060005b8581101561420857848403895281516141e98582614184565b94506141f483614198565b925060208a019950506001810190506141d0565b50829750879550505050505092915050565b6000602082019050818103600083015261423481846141a5565b905092915050565b6002811061424d5761424c6137a6565b5b50565b600081905061425e8261423c565b919050565b600061426e82614250565b9050919050565b61427e81614263565b82525050565b600060a08301600083015161429c6000860182613bd7565b50602083015184820360208601526142b48282613ee3565b915050604083015184820360408601526142ce8282613ee3565b91505060608301516142e360608601826140f1565b50608083015184820360808601526142fb8282613ee3565b9150508091505092915050565b600060a08201905061431d60008301886136fe565b818103602083015261432f818761376d565b905061433e6040830186614275565b81810360608301526143508185614284565b905061435f6080830184613a74565b9695505050505050565b60008060008060008060c0878903121561438657614385613691565b5b600087013567ffffffffffffffff8111156143a4576143a3613696565b5b6143b089828a0161398c565b965050602087013567ffffffffffffffff8111156143d1576143d0613696565b5b6143dd89828a0161398c565b955050604087013567ffffffffffffffff8111156143fe576143fd613696565b5b61440a89828a0161398c565b945050606087013567ffffffffffffffff81111561442b5761442a613696565b5b61443789828a0161398c565b935050608061444889828a016136bc565b92505060a061445989828a01613a03565b9150509295509295509295565b600060608201905061447b60008301866136fe565b614488602083018561380e565b6144956040830184613a74565b949350505050565b600080604083850312156144b4576144b3613691565b5b600083013567ffffffffffffffff8111156144d2576144d1613696565b5b6144de8582860161398c565b925050602083013567ffffffffffffffff8111156144ff576144fe613696565b5b61450b85828601613cba565b9150509250929050565b600081519050919050565b600082825260208201905092915050565b6000819050602082019050919050565b600060c083016000830151848203600086015261455e8282613ee3565b915050602083015184820360208601526145788282613ee3565b915050604083015184820360408601526145928282613ee3565b915050606083015184820360608601526145ac8282613ee3565b91505060808301516145c16080860182613f1c565b5060a08301516145d460a0860182613f2b565b508091505092915050565b60006145eb8383614541565b905092915050565b6000602082019050919050565b600061460b82614515565b6146158185614520565b93508360208202850161462785614531565b8060005b85811015614663578484038952815161464485826145df565b945061464f836145f3565b925060208a0199505060018101905061462b565b50829750879550505050505092915050565b6000602082019050818103600083015261468f8184614600565b905092915050565b600060208201905081810360008301526146b18184614284565b905092915050565b7f4e487b7100000000000000000000000000000000000000000000000000000000600052602260045260246000fd5b6000600282049050600182168061470057607f821691505b60208210811415614714576147136146b9565b5b50919050565b600081905092915050565b60006147308261370d565b61473a818561471a565b935061474a818560208601613729565b80840191505092915050565b60008160601b9050919050565b600061476e82614756565b9050919050565b600061478082614763565b9050919050565b614798614793826139da565b614775565b82525050565b60006147aa8285614725565b91506147b68284614787565b6014820191508190509392505050565b7f596f7520617265206e6f74206120636f6d70616e79206275696c646572000000600082015250565b60006147fc601d83613718565b9150614807826147c6565b602082019050919050565b6000602082019050818103600083015261482b816147ef565b9050919050565b6000606082019050614847600083018661380e565b81810360208301526148598185614284565b90506148686040830184613a74565b949350505050565b6000606082019050818103600083015261488a818661376d565b9050818103602083015261489e818561376d565b90506148ad604083018461380e565b949350505050565b7f4e487b7100000000000000000000000000000000000000000000000000000000600052601160045260246000fd5b60006148ef8261369b565b91507fffffffffffffffffffffffffffffffffffffffffffffffffffffffffffffffff821415614922576149216148b5565b5b600182019050919050565b7f5468652070726f6a656374206973206e6f7420696e2074686520274265666f7260008201527f6546696e616c697a6174696f6e436865636b27207374617475732c207468652060208201527f6f7065726174696f6e2063616e6e6f7420626520646f6e652e00000000000000604082015250565b60006149af605983613718565b91506149ba8261492d565b606082019050919050565b600060208201905081810360008301526149de816149a2565b9050919050565b600060a0820190506149fa60008301886136fe565b614a076020830187614275565b8181036040830152614a198186614284565b9050614a28606083018561380e565b614a356080830184613a74565b9695505050505050565b7f5468652070726f6a656374206973206e6f7420637265617465642c207468652060008201527f6f7065726174696f6e2063616e6e6f7420626520646f6e652e00000000000000602082015250565b6000614a9b603983613718565b9150614aa682614a3f565b604082019050919050565b60006020820190508181036000830152614aca81614a8e565b9050919050565b7f4e487b7100000000000000000000000000000000000000000000000000000000600052603260045260246000fd5b7f596f7520617265206e6f7420616e206f776e6572000000000000000000000000600082015250565b6000614b36601483613718565b9150614b4182614b00565b602082019050919050565b60006020820190508181036000830152614b6581614b29565b9050919050565b6000614b788284614725565b915081905092915050565b60006060820190508181036000830152614b9d818661376d565b90508181036020830152614bb1818561376d565b90508181036040830152614bc5818461376d565b9050949350505050565b7f5468652070726f6a656374206973206e6f7420617070726f7665642c2074686560008201527f206f7065726174696f6e2063616e6e6f7420626520646f6e652e000000000000602082015250565b6000614c2b603a83613718565b9150614c3682614bcf565b604082019050919050565b60006020820190508181036000830152614c5a81614c1e565b9050919050565b60006080820190508181036000830152614c7b818761376d565b9050614c8a602083018661380e565b8181036040830152614c9c8185614284565b9050614cab6060830184613a74565b9594505050505056fea26469706673582212200d627587d055e5fded9b24460028d8d213e0c03e7bd3f8b2cde90024a686c23564736f6c634300080a0033",
  "immutableReferences": {},
  "source": "// SPDX-License-Identifier: MIT\r\npragma solidity >=0.8.0 <0.9.0;\r\n\r\nimport \"./Project.sol\";\r\n\r\ncontract CompanyBuilder is Project {\r\n\r\n    address _companyAddress;\r\n\r\n    event ApproveProjectRequestByCompany(ProjectStatus _status, S_Project _project, address _subjectAddress);\r\n    event RejectProjectRequestByCompany(string _description, ProjectStatus _status, S_Project _project, address _subjectAddress);\r\n    event BeforeFinalizationProjectRequestByCompany(ProjectStatus _status, S_Project _project, address _subjectAddress);\r\n\r\n    constructor() {\r\n        _companyAddress = msg.sender;\r\n    }\r\n\r\n    modifier onlyCompany {\r\n        require(_companyAddress == msg.sender, \"You are not a company builder\");\r\n        _;\r\n    }\r\n\r\n    // Add some contrainst / verification TOOO DOOO -> LATER\r\n\r\n    function setProjectRequestToOnGoingStatus(S_Project memory _project) public onlyCompany {\r\n        _project.projectStatus = ProjectStatus.OnGoing;\r\n        emit ApproveProjectRequestByCompany(ProjectStatus.OnGoing, _project, _companyAddress);\r\n    }\r\n\r\n    function setProjectRequestToRejectStatus(string memory _description, S_Project memory _project) public onlyCompany {\r\n        _project.projectStatus = ProjectStatus.Rejected;\r\n        emit RejectProjectRequestByCompany(_description, ProjectStatus.Rejected, _project, _companyAddress);\r\n    }\r\n\r\n    function setProjectRequestToBeforeFinalizationStatus(S_Project memory _project)  public onlyCompany {\r\n        _project.projectStatus = ProjectStatus.BeforeFinalizationCheck;\r\n        emit BeforeFinalizationProjectRequestByCompany(ProjectStatus.BeforeFinalizationCheck, _project, _companyAddress);\r\n    }\r\n}\r\n",
  "sourcePath": "/mnt/c/users/beniamin/source/repos/dissertationproject/contracts/CompanyBuilder.sol",
  "compiler": {
    "name": "solc",
    "version": "0.8.10+commit.fc410830.Emscripten.clang"
  },
  "schemaVersion": "3.4.3",
  "updatedAt": "2021-11-18T19:21:31.458Z",
  "devdoc": {
    "kind": "dev",
    "methods": {},
    "version": 1
  },
  "userdoc": {
    "kind": "user",
    "methods": {},
    "version": 1
  }
}