{
  "contractName": "CompanyBuilder",
  "abi": [
    {
      "inputs": [],
      "stateMutability": "nonpayable",
      "type": "constructor"
    },
    {
      "anonymous": false,
      "inputs": [
        {
          "indexed": false,
          "internalType": "enum Project.ProjectStatus",
          "name": "_status",
          "type": "uint8"
        },
        {
          "components": [
            {
              "internalType": "uint256",
              "name": "index",
              "type": "uint256"
            },
            {
              "internalType": "string",
              "name": "name",
              "type": "string"
            },
            {
              "internalType": "string",
              "name": "description",
              "type": "string"
            },
            {
              "internalType": "enum Project.ProjectStatus",
              "name": "projectStatus",
              "type": "uint8"
            },
            {
              "internalType": "string",
              "name": "ipfsFileCID",
              "type": "string"
            }
          ],
          "indexed": false,
          "internalType": "struct Project.S_Project",
          "name": "_project",
          "type": "tuple"
        },
        {
          "indexed": false,
          "internalType": "address",
          "name": "_subjectAddress",
          "type": "address"
        }
      ],
      "name": "ApproveProjectRequestByCompany",
      "type": "event"
    },
    {
      "anonymous": false,
      "inputs": [
        {
          "indexed": false,
          "internalType": "enum Project.ProjectStatus",
          "name": "_status",
          "type": "uint8"
        },
        {
          "components": [
            {
              "internalType": "uint256",
              "name": "index",
              "type": "uint256"
            },
            {
              "internalType": "string",
              "name": "name",
              "type": "string"
            },
            {
              "internalType": "string",
              "name": "description",
              "type": "string"
            },
            {
              "internalType": "enum Project.ProjectStatus",
              "name": "projectStatus",
              "type": "uint8"
            },
            {
              "internalType": "string",
              "name": "ipfsFileCID",
              "type": "string"
            }
          ],
          "indexed": false,
          "internalType": "struct Project.S_Project",
          "name": "_project",
          "type": "tuple"
        },
        {
          "indexed": false,
          "internalType": "address",
          "name": "_subjectAddress",
          "type": "address"
        }
      ],
      "name": "BeforeFinalizationProjectRequestByCompany",
      "type": "event"
    },
    {
      "anonymous": false,
      "inputs": [
        {
          "indexed": false,
          "internalType": "string",
          "name": "_name",
          "type": "string"
        },
        {
          "indexed": false,
          "internalType": "string",
          "name": "_description",
          "type": "string"
        },
        {
          "indexed": false,
          "internalType": "enum Project.ProjectStatus",
          "name": "_status",
          "type": "uint8"
        }
      ],
      "name": "CreateProject",
      "type": "event"
    },
    {
      "anonymous": false,
      "inputs": [
        {
          "indexed": false,
          "internalType": "uint256",
          "name": "index",
          "type": "uint256"
        },
        {
          "indexed": true,
          "internalType": "enum Project.ProjectStatus",
          "name": "status",
          "type": "uint8"
        },
        {
          "indexed": true,
          "internalType": "address",
          "name": "projectAddress",
          "type": "address"
        }
      ],
      "name": "ProjectStatusChanged",
      "type": "event"
    },
    {
      "anonymous": false,
      "inputs": [
        {
          "indexed": false,
          "internalType": "string",
          "name": "_description",
          "type": "string"
        },
        {
          "indexed": false,
          "internalType": "enum Project.ProjectStatus",
          "name": "_status",
          "type": "uint8"
        },
        {
          "components": [
            {
              "internalType": "uint256",
              "name": "index",
              "type": "uint256"
            },
            {
              "internalType": "string",
              "name": "name",
              "type": "string"
            },
            {
              "internalType": "string",
              "name": "description",
              "type": "string"
            },
            {
              "internalType": "enum Project.ProjectStatus",
              "name": "projectStatus",
              "type": "uint8"
            },
            {
              "internalType": "string",
              "name": "ipfsFileCID",
              "type": "string"
            }
          ],
          "indexed": false,
          "internalType": "struct Project.S_Project",
          "name": "_project",
          "type": "tuple"
        },
        {
          "indexed": false,
          "internalType": "address",
          "name": "_subjectAddress",
          "type": "address"
        }
      ],
      "name": "RejectProjectRequestByCompany",
      "type": "event"
    },
    {
      "anonymous": false,
      "inputs": [
        {
          "indexed": false,
          "internalType": "uint256",
          "name": "_indexRequest",
          "type": "uint256"
        },
        {
          "indexed": false,
          "internalType": "enum Project.RequestStatus",
          "name": "_status",
          "type": "uint8"
        },
        {
          "components": [
            {
              "internalType": "uint256",
              "name": "index",
              "type": "uint256"
            },
            {
              "internalType": "string",
              "name": "name",
              "type": "string"
            },
            {
              "internalType": "string",
              "name": "description",
              "type": "string"
            },
            {
              "internalType": "enum Project.ProjectStatus",
              "name": "projectStatus",
              "type": "uint8"
            },
            {
              "internalType": "string",
              "name": "ipfsFileCID",
              "type": "string"
            }
          ],
          "indexed": false,
          "internalType": "struct Project.S_Project",
          "name": "_project",
          "type": "tuple"
        },
        {
          "indexed": false,
          "internalType": "enum Project.ProjectStatus",
          "name": "_projectStatus",
          "type": "uint8"
        },
        {
          "indexed": false,
          "internalType": "address",
          "name": "_subjectAddress",
          "type": "address"
        }
      ],
      "name": "UpdateCompanyRequestStatus",
      "type": "event"
    },
    {
      "anonymous": false,
      "inputs": [
        {
          "indexed": false,
          "internalType": "uint256",
          "name": "_indexRequest",
          "type": "uint256"
        },
        {
          "indexed": false,
          "internalType": "enum Project.RequestStatus",
          "name": "_status",
          "type": "uint8"
        },
        {
          "components": [
            {
              "internalType": "uint256",
              "name": "index",
              "type": "uint256"
            },
            {
              "internalType": "string",
              "name": "name",
              "type": "string"
            },
            {
              "internalType": "string",
              "name": "description",
              "type": "string"
            },
            {
              "internalType": "enum Project.ProjectStatus",
              "name": "projectStatus",
              "type": "uint8"
            },
            {
              "internalType": "string",
              "name": "ipfsFileCID",
              "type": "string"
            }
          ],
          "indexed": false,
          "internalType": "struct Project.S_Project",
          "name": "_project",
          "type": "tuple"
        },
        {
          "indexed": false,
          "internalType": "enum Project.ProjectStatus",
          "name": "_projectStatus",
          "type": "uint8"
        },
        {
          "indexed": false,
          "internalType": "address",
          "name": "_subjectAddress",
          "type": "address"
        }
      ],
      "name": "UpdateSupervisorRequestStatus",
      "type": "event"
    },
    {
      "anonymous": false,
      "inputs": [
        {
          "indexed": false,
          "internalType": "string",
          "name": "username",
          "type": "string"
        },
        {
          "indexed": false,
          "internalType": "string",
          "name": "firstname",
          "type": "string"
        },
        {
          "indexed": false,
          "internalType": "string",
          "name": "lastname",
          "type": "string"
        },
        {
          "indexed": false,
          "internalType": "string",
          "name": "email",
          "type": "string"
        },
        {
          "indexed": false,
          "internalType": "enum User.Roles",
          "name": "role",
          "type": "uint8"
        },
        {
          "indexed": false,
          "internalType": "address",
          "name": "walletAddress",
          "type": "address"
        }
      ],
      "name": "UserChanges",
      "type": "event"
    },
    {
      "anonymous": false,
      "inputs": [
        {
          "indexed": true,
          "internalType": "address",
          "name": "_walletAddress",
          "type": "address"
        },
        {
          "indexed": true,
          "internalType": "string",
          "name": "_username",
          "type": "string"
        },
        {
          "indexed": false,
          "internalType": "string",
          "name": "_email",
          "type": "string"
        },
        {
          "indexed": false,
          "internalType": "string",
          "name": "_firstname",
          "type": "string"
        },
        {
          "indexed": false,
          "internalType": "string",
          "name": "_lastname",
          "type": "string"
        },
        {
          "indexed": true,
          "internalType": "enum User.Roles",
          "name": "_role",
          "type": "uint8"
        }
      ],
      "name": "UserRegistered",
      "type": "event"
    },
    {
      "inputs": [
        {
          "internalType": "uint256",
          "name": "",
          "type": "uint256"
        }
      ],
      "name": "allProjects",
      "outputs": [
        {
          "internalType": "uint256",
          "name": "index",
          "type": "uint256"
        },
        {
          "internalType": "string",
          "name": "name",
          "type": "string"
        },
        {
          "internalType": "string",
          "name": "description",
          "type": "string"
        },
        {
          "internalType": "enum Project.ProjectStatus",
          "name": "projectStatus",
          "type": "uint8"
        },
        {
          "internalType": "string",
          "name": "ipfsFileCID",
          "type": "string"
        }
      ],
      "stateMutability": "view",
      "type": "function"
    },
    {
      "inputs": [
        {
          "internalType": "uint256",
          "name": "",
          "type": "uint256"
        }
      ],
      "name": "allUsers",
      "outputs": [
        {
          "internalType": "string",
          "name": "username",
          "type": "string"
        },
        {
          "internalType": "string",
          "name": "email",
          "type": "string"
        },
        {
          "internalType": "string",
          "name": "firstname",
          "type": "string"
        },
        {
          "internalType": "string",
          "name": "lastname",
          "type": "string"
        },
        {
          "internalType": "enum User.Roles",
          "name": "role",
          "type": "uint8"
        },
        {
          "internalType": "address",
          "name": "walletAddress",
          "type": "address"
        }
      ],
      "stateMutability": "view",
      "type": "function"
    },
    {
      "inputs": [
        {
          "internalType": "uint256",
          "name": "_status",
          "type": "uint256"
        },
        {
          "internalType": "address",
          "name": "_address",
          "type": "address"
        }
      ],
      "name": "changeProjectStatus",
      "outputs": [],
      "stateMutability": "nonpayable",
      "type": "function"
    },
    {
      "inputs": [
        {
          "internalType": "uint256",
          "name": "_role",
          "type": "uint256"
        },
        {
          "internalType": "address",
          "name": "_walletAddress",
          "type": "address"
        }
      ],
      "name": "changeUserRole",
      "outputs": [
        {
          "internalType": "string",
          "name": "",
          "type": "string"
        }
      ],
      "stateMutability": "nonpayable",
      "type": "function"
    },
    {
      "inputs": [
        {
          "internalType": "uint256",
          "name": "",
          "type": "uint256"
        }
      ],
      "name": "companyRequests",
      "outputs": [
        {
          "internalType": "uint256",
          "name": "index",
          "type": "uint256"
        },
        {
          "internalType": "string",
          "name": "description",
          "type": "string"
        },
        {
          "internalType": "enum Project.RequestStatus",
          "name": "status",
          "type": "uint8"
        },
        {
          "components": [
            {
              "internalType": "uint256",
              "name": "index",
              "type": "uint256"
            },
            {
              "internalType": "string",
              "name": "name",
              "type": "string"
            },
            {
              "internalType": "string",
              "name": "description",
              "type": "string"
            },
            {
              "internalType": "enum Project.ProjectStatus",
              "name": "projectStatus",
              "type": "uint8"
            },
            {
              "internalType": "string",
              "name": "ipfsFileCID",
              "type": "string"
            }
          ],
          "internalType": "struct Project.S_Project",
          "name": "project",
          "type": "tuple"
        },
        {
          "internalType": "address",
          "name": "subjectAddress",
          "type": "address"
        }
      ],
      "stateMutability": "view",
      "type": "function"
    },
    {
      "inputs": [
        {
          "internalType": "string",
          "name": "_name",
          "type": "string"
        },
        {
          "internalType": "string",
          "name": "_description",
          "type": "string"
        },
        {
          "internalType": "uint256",
          "name": "_status",
          "type": "uint256"
        },
        {
          "internalType": "string",
          "name": "_ipfsFileCID",
          "type": "string"
        }
      ],
      "name": "createProject",
      "outputs": [],
      "stateMutability": "nonpayable",
      "type": "function"
    },
    {
      "inputs": [
        {
          "internalType": "string",
          "name": "_text",
          "type": "string"
        },
        {
          "internalType": "address",
          "name": "_addr",
          "type": "address"
        }
      ],
      "name": "createUniqueHexAddress",
      "outputs": [
        {
          "internalType": "address",
          "name": "",
          "type": "address"
        }
      ],
      "stateMutability": "pure",
      "type": "function"
    },
    {
      "inputs": [
        {
          "internalType": "string",
          "name": "_text",
          "type": "string"
        },
        {
          "internalType": "address",
          "name": "_addr",
          "type": "address"
        }
      ],
      "name": "createUniqueIdentifier",
      "outputs": [
        {
          "internalType": "bytes32",
          "name": "",
          "type": "bytes32"
        }
      ],
      "stateMutability": "pure",
      "type": "function"
    },
    {
      "inputs": [],
      "name": "getAllProjects",
      "outputs": [
        {
          "components": [
            {
              "internalType": "uint256",
              "name": "index",
              "type": "uint256"
            },
            {
              "internalType": "string",
              "name": "name",
              "type": "string"
            },
            {
              "internalType": "string",
              "name": "description",
              "type": "string"
            },
            {
              "internalType": "enum Project.ProjectStatus",
              "name": "projectStatus",
              "type": "uint8"
            },
            {
              "internalType": "string",
              "name": "ipfsFileCID",
              "type": "string"
            }
          ],
          "internalType": "struct Project.S_Project[]",
          "name": "",
          "type": "tuple[]"
        }
      ],
      "stateMutability": "view",
      "type": "function"
    },
    {
      "inputs": [],
      "name": "getAllUsers",
      "outputs": [
        {
          "components": [
            {
              "internalType": "string",
              "name": "username",
              "type": "string"
            },
            {
              "internalType": "string",
              "name": "email",
              "type": "string"
            },
            {
              "internalType": "string",
              "name": "firstname",
              "type": "string"
            },
            {
              "internalType": "string",
              "name": "lastname",
              "type": "string"
            },
            {
              "internalType": "enum User.Roles",
              "name": "role",
              "type": "uint8"
            },
            {
              "internalType": "address",
              "name": "walletAddress",
              "type": "address"
            }
          ],
          "internalType": "struct User.S_UserData[]",
          "name": "",
          "type": "tuple[]"
        }
      ],
      "stateMutability": "view",
      "type": "function"
    },
    {
      "inputs": [],
      "name": "getProjectIds",
      "outputs": [
        {
          "internalType": "uint256[]",
          "name": "",
          "type": "uint256[]"
        }
      ],
      "stateMutability": "view",
      "type": "function"
    },
    {
      "inputs": [
        {
          "internalType": "uint256",
          "name": "_index",
          "type": "uint256"
        }
      ],
      "name": "getProjectInfo",
      "outputs": [
        {
          "components": [
            {
              "internalType": "uint256",
              "name": "index",
              "type": "uint256"
            },
            {
              "internalType": "string",
              "name": "name",
              "type": "string"
            },
            {
              "internalType": "string",
              "name": "description",
              "type": "string"
            },
            {
              "internalType": "enum Project.ProjectStatus",
              "name": "projectStatus",
              "type": "uint8"
            },
            {
              "internalType": "string",
              "name": "ipfsFileCID",
              "type": "string"
            }
          ],
          "internalType": "struct Project.S_Project",
          "name": "",
          "type": "tuple"
        }
      ],
      "stateMutability": "view",
      "type": "function"
    },
    {
      "inputs": [],
      "name": "getUserAddresses",
      "outputs": [
        {
          "internalType": "address[]",
          "name": "",
          "type": "address[]"
        }
      ],
      "stateMutability": "view",
      "type": "function"
    },
    {
      "inputs": [
        {
          "internalType": "address",
          "name": "_address",
          "type": "address"
        }
      ],
      "name": "getUserInfo",
      "outputs": [
        {
          "components": [
            {
              "internalType": "string",
              "name": "username",
              "type": "string"
            },
            {
              "internalType": "string",
              "name": "email",
              "type": "string"
            },
            {
              "internalType": "string",
              "name": "firstname",
              "type": "string"
            },
            {
              "internalType": "string",
              "name": "lastname",
              "type": "string"
            },
            {
              "internalType": "enum User.Roles",
              "name": "role",
              "type": "uint8"
            },
            {
              "internalType": "address",
              "name": "walletAddress",
              "type": "address"
            }
          ],
          "internalType": "struct User.S_UserData",
          "name": "",
          "type": "tuple"
        }
      ],
      "stateMutability": "view",
      "type": "function"
    },
    {
      "inputs": [],
      "name": "owner",
      "outputs": [
        {
          "internalType": "address",
          "name": "",
          "type": "address"
        }
      ],
      "stateMutability": "view",
      "type": "function"
    },
    {
      "inputs": [
        {
          "internalType": "uint256",
          "name": "",
          "type": "uint256"
        }
      ],
      "name": "projectIds",
      "outputs": [
        {
          "internalType": "uint256",
          "name": "",
          "type": "uint256"
        }
      ],
      "stateMutability": "view",
      "type": "function"
    },
    {
      "inputs": [
        {
          "internalType": "uint256",
          "name": "",
          "type": "uint256"
        }
      ],
      "name": "projects",
      "outputs": [
        {
          "internalType": "uint256",
          "name": "index",
          "type": "uint256"
        },
        {
          "internalType": "string",
          "name": "name",
          "type": "string"
        },
        {
          "internalType": "string",
          "name": "description",
          "type": "string"
        },
        {
          "internalType": "enum Project.ProjectStatus",
          "name": "projectStatus",
          "type": "uint8"
        },
        {
          "internalType": "string",
          "name": "ipfsFileCID",
          "type": "string"
        }
      ],
      "stateMutability": "view",
      "type": "function"
    },
    {
      "inputs": [],
      "name": "projectsCount",
      "outputs": [
        {
          "internalType": "uint256",
          "name": "",
          "type": "uint256"
        }
      ],
      "stateMutability": "view",
      "type": "function"
    },
    {
      "inputs": [
        {
          "internalType": "uint256",
          "name": "",
          "type": "uint256"
        }
      ],
      "name": "projectsStatus",
      "outputs": [
        {
          "internalType": "uint256",
          "name": "_index",
          "type": "uint256"
        },
        {
          "internalType": "enum Project.ProjectStatus",
          "name": "_status",
          "type": "uint8"
        },
        {
          "internalType": "address",
          "name": "_address",
          "type": "address"
        }
      ],
      "stateMutability": "view",
      "type": "function"
    },
    {
      "inputs": [
        {
          "internalType": "string",
          "name": "_username",
          "type": "string"
        },
        {
          "internalType": "string",
          "name": "_email",
          "type": "string"
        },
        {
          "internalType": "string",
          "name": "_firstname",
          "type": "string"
        },
        {
          "internalType": "string",
          "name": "_lastname",
          "type": "string"
        },
        {
          "internalType": "uint256",
          "name": "_role",
          "type": "uint256"
        },
        {
          "internalType": "address",
          "name": "_walletAddress",
          "type": "address"
        }
      ],
      "name": "registerUser",
      "outputs": [],
      "stateMutability": "nonpayable",
      "type": "function"
    },
    {
      "inputs": [
        {
          "internalType": "string",
          "name": "_description",
          "type": "string"
        },
        {
          "components": [
            {
              "internalType": "uint256",
              "name": "index",
              "type": "uint256"
            },
            {
              "internalType": "string",
              "name": "name",
              "type": "string"
            },
            {
              "internalType": "string",
              "name": "description",
              "type": "string"
            },
            {
              "internalType": "enum Project.ProjectStatus",
              "name": "projectStatus",
              "type": "uint8"
            },
            {
              "internalType": "string",
              "name": "ipfsFileCID",
              "type": "string"
            }
          ],
          "internalType": "struct Project.S_Project",
          "name": "_project",
          "type": "tuple"
        },
        {
          "internalType": "address",
          "name": "_subjectAddress",
          "type": "address"
        }
      ],
      "name": "requestProjectApprovalFromSupervisor",
      "outputs": [],
      "stateMutability": "nonpayable",
      "type": "function"
    },
    {
      "inputs": [
        {
          "internalType": "string",
          "name": "_description",
          "type": "string"
        },
        {
          "components": [
            {
              "internalType": "uint256",
              "name": "index",
              "type": "uint256"
            },
            {
              "internalType": "string",
              "name": "name",
              "type": "string"
            },
            {
              "internalType": "string",
              "name": "description",
              "type": "string"
            },
            {
              "internalType": "enum Project.ProjectStatus",
              "name": "projectStatus",
              "type": "uint8"
            },
            {
              "internalType": "string",
              "name": "ipfsFileCID",
              "type": "string"
            }
          ],
          "internalType": "struct Project.S_Project",
          "name": "_project",
          "type": "tuple"
        },
        {
          "internalType": "address",
          "name": "_subjectAddress",
          "type": "address"
        }
      ],
      "name": "requestProjectCompleteFromSupervisor",
      "outputs": [],
      "stateMutability": "nonpayable",
      "type": "function"
    },
    {
      "inputs": [
        {
          "internalType": "string",
          "name": "_description",
          "type": "string"
        },
        {
          "components": [
            {
              "internalType": "uint256",
              "name": "index",
              "type": "uint256"
            },
            {
              "internalType": "string",
              "name": "name",
              "type": "string"
            },
            {
              "internalType": "string",
              "name": "description",
              "type": "string"
            },
            {
              "internalType": "enum Project.ProjectStatus",
              "name": "projectStatus",
              "type": "uint8"
            },
            {
              "internalType": "string",
              "name": "ipfsFileCID",
              "type": "string"
            }
          ],
          "internalType": "struct Project.S_Project",
          "name": "_project",
          "type": "tuple"
        },
        {
          "internalType": "address",
          "name": "_subjectAddress",
          "type": "address"
        }
      ],
      "name": "requestStartProjectToCompanyBuilder",
      "outputs": [],
      "stateMutability": "nonpayable",
      "type": "function"
    },
    {
      "inputs": [],
      "name": "statusChangedIndex",
      "outputs": [
        {
          "internalType": "uint256",
          "name": "",
          "type": "uint256"
        }
      ],
      "stateMutability": "view",
      "type": "function"
    },
    {
      "inputs": [
        {
          "internalType": "uint256",
          "name": "",
          "type": "uint256"
        }
      ],
      "name": "supervisorRequests",
      "outputs": [
        {
          "internalType": "uint256",
          "name": "index",
          "type": "uint256"
        },
        {
          "internalType": "string",
          "name": "description",
          "type": "string"
        },
        {
          "internalType": "enum Project.RequestStatus",
          "name": "status",
          "type": "uint8"
        },
        {
          "components": [
            {
              "internalType": "uint256",
              "name": "index",
              "type": "uint256"
            },
            {
              "internalType": "string",
              "name": "name",
              "type": "string"
            },
            {
              "internalType": "string",
              "name": "description",
              "type": "string"
            },
            {
              "internalType": "enum Project.ProjectStatus",
              "name": "projectStatus",
              "type": "uint8"
            },
            {
              "internalType": "string",
              "name": "ipfsFileCID",
              "type": "string"
            }
          ],
          "internalType": "struct Project.S_Project",
          "name": "project",
          "type": "tuple"
        },
        {
          "internalType": "address",
          "name": "subjectAddress",
          "type": "address"
        }
      ],
      "stateMutability": "view",
      "type": "function"
    },
    {
      "inputs": [
        {
          "internalType": "uint256",
          "name": "",
          "type": "uint256"
        }
      ],
      "name": "userAddresses",
      "outputs": [
        {
          "internalType": "address",
          "name": "",
          "type": "address"
        }
      ],
      "stateMutability": "view",
      "type": "function"
    },
    {
      "inputs": [
        {
          "internalType": "address",
          "name": "",
          "type": "address"
        }
      ],
      "name": "userInfo",
      "outputs": [
        {
          "internalType": "string",
          "name": "username",
          "type": "string"
        },
        {
          "internalType": "string",
          "name": "email",
          "type": "string"
        },
        {
          "internalType": "string",
          "name": "firstname",
          "type": "string"
        },
        {
          "internalType": "string",
          "name": "lastname",
          "type": "string"
        },
        {
          "internalType": "enum User.Roles",
          "name": "role",
          "type": "uint8"
        },
        {
          "internalType": "address",
          "name": "walletAddress",
          "type": "address"
        }
      ],
      "stateMutability": "view",
      "type": "function"
    },
    {
      "inputs": [],
      "name": "usersCount",
      "outputs": [
        {
          "internalType": "uint256",
          "name": "",
          "type": "uint256"
        }
      ],
      "stateMutability": "view",
      "type": "function"
    },
    {
      "inputs": [
        {
          "components": [
            {
              "internalType": "uint256",
              "name": "index",
              "type": "uint256"
            },
            {
              "internalType": "string",
              "name": "name",
              "type": "string"
            },
            {
              "internalType": "string",
              "name": "description",
              "type": "string"
            },
            {
              "internalType": "enum Project.ProjectStatus",
              "name": "projectStatus",
              "type": "uint8"
            },
            {
              "internalType": "string",
              "name": "ipfsFileCID",
              "type": "string"
            }
          ],
          "internalType": "struct Project.S_Project",
          "name": "_project",
          "type": "tuple"
        }
      ],
      "name": "setProjectRequestToOnGoingStatus",
      "outputs": [],
      "stateMutability": "nonpayable",
      "type": "function"
    },
    {
      "inputs": [
        {
          "internalType": "string",
          "name": "_description",
          "type": "string"
        },
        {
          "components": [
            {
              "internalType": "uint256",
              "name": "index",
              "type": "uint256"
            },
            {
              "internalType": "string",
              "name": "name",
              "type": "string"
            },
            {
              "internalType": "string",
              "name": "description",
              "type": "string"
            },
            {
              "internalType": "enum Project.ProjectStatus",
              "name": "projectStatus",
              "type": "uint8"
            },
            {
              "internalType": "string",
              "name": "ipfsFileCID",
              "type": "string"
            }
          ],
          "internalType": "struct Project.S_Project",
          "name": "_project",
          "type": "tuple"
        }
      ],
      "name": "setProjectRequestToRejectStatus",
      "outputs": [],
      "stateMutability": "nonpayable",
      "type": "function"
    },
    {
      "inputs": [
        {
          "components": [
            {
              "internalType": "uint256",
              "name": "index",
              "type": "uint256"
            },
            {
              "internalType": "string",
              "name": "name",
              "type": "string"
            },
            {
              "internalType": "string",
              "name": "description",
              "type": "string"
            },
            {
              "internalType": "enum Project.ProjectStatus",
              "name": "projectStatus",
              "type": "uint8"
            },
            {
              "internalType": "string",
              "name": "ipfsFileCID",
              "type": "string"
            }
          ],
          "internalType": "struct Project.S_Project",
          "name": "_project",
          "type": "tuple"
        }
      ],
      "name": "setProjectRequestToBeforeFinalizationStatus",
      "outputs": [],
      "stateMutability": "nonpayable",
      "type": "function"
    }
  ],
  "bytecode": "0x6080604052600060025560006005556000600b5534801561001f57600080fd5b5033600160006101000a81548173ffffffffffffffffffffffffffffffffffffffff021916908373ffffffffffffffffffffffffffffffffffffffff16021790555033600760006101000a81548173ffffffffffffffffffffffffffffffffffffffff021916908373ffffffffffffffffffffffffffffffffffffffff16021790555033601060006101000a81548173ffffffffffffffffffffffffffffffffffffffff021916908373ffffffffffffffffffffffffffffffffffffffff160217905550615197806100f26000396000f3fe608060405234801561001057600080fd5b50600436106101e55760003560e01c80636fe3d1941161010f578063a2bdedf4116100a2578063cb2d316411610071578063cb2d3164146105f4578063d40d4a8014610610578063e2842d7914610644578063fabf596814610662576101e5565b8063a2bdedf414610551578063a591efde14610586578063b42302a2146105a4578063c73b302e146105d6576101e5565b80638da5cb5b116100de5780638da5cb5b146104cb57806391009786146104e9578063911c29a614610519578063953dcd2a14610535576101e5565b80636fe3d194146104415780637748587f1461045d57806380d03829146104795780638c86a1d714610497576101e5565b806348c35ad4116101875780636386c1c7116101565780636386c1c7146103bb578063644fa658146103eb5780636ba13a82146104075780636cce6ff114610425576101e5565b806348c35ad4146102f7578063502c9bd51461032757806353b3194c146103575780636132844f1461038b576101e5565b80631a6cee2f116101c35780631a6cee2f1461028357806329a613b5146102a15780632de5f996146102bf57806346575714146102db576101e5565b8063107046bd146101ea57806313b4078f1461021e5780631959a0021461024e575b600080fd5b61020460048036038101906101ff91906139a8565b610692565b604051610215959493929190613af4565b60405180910390f35b61023860048036038101906102339190613cef565b61086d565b6040516102459190613d5a565b60405180910390f35b61026860048036038101906102639190613d75565b6108a3565b60405161027a96959493929190613dea565b60405180910390f35b61028b610b2c565b6040516102989190613e67565b60405180910390f35b6102a9610b32565b6040516102b69190613f40565b60405180910390f35b6102d960048036038101906102d49190614071565b610b8a565b005b6102f560048036038101906102f091906140ba565b610cac565b005b610311600480360381019061030c91906139a8565b610f45565b60405161031e9190613e67565b60405180910390f35b610341600480360381019061033c91906139a8565b610f69565b60405161034e9190613d5a565b60405180910390f35b610371600480360381019061036c91906139a8565b610fa8565b604051610382959493929190613af4565b60405180910390f35b6103a560048036038101906103a09190613cef565b611193565b6040516103b2919061418e565b60405180910390f35b6103d560048036038101906103d09190613d75565b6111c6565b6040516103e291906142af565b60405180910390f35b610405600480360381019061040091906142d1565b6114f7565b005b61040f611650565b60405161041c9190613e67565b60405180910390f35b61043f600480360381019061043a9190614071565b611656565b005b61045b60048036038101906104569190614311565b611778565b005b61047760048036038101906104729190614311565b611982565b005b610481611b8c565b60405161048e91906144f1565b60405180910390f35b6104b160048036038101906104ac91906139a8565b611de6565b6040516104c29594939291906145df565b60405180910390f35b6104d36120d6565b6040516104e09190613d5a565b60405180910390f35b61050360048036038101906104fe91906142d1565b6120fc565b6040516105109190614640565b60405180910390f35b610533600480360381019061052e9190614662565b6123a7565b005b61054f600480360381019061054a9190614311565b612919565b005b61056b600480360381019061056691906139a8565b612b23565b60405161057d96959493929190613dea565b60405180910390f35b61058e612dbc565b60405161059b919061480e565b60405180910390f35b6105be60048036038101906105b991906139a8565b612e4a565b6040516105cd93929190614830565b60405180910390f35b6105de612ea1565b6040516105eb9190613e67565b60405180910390f35b61060e60048036038101906106099190614867565b612ea7565b005b61062a600480360381019061062591906139a8565b612fcc565b60405161063b9594939291906145df565b60405180910390f35b61064c6132bc565b6040516106599190614a3f565b60405180910390f35b61067c600480360381019061067791906139a8565b6135f4565b6040516106899190614a61565b60405180910390f35b60086020528060005260406000206000915090508060000154908060010180546106bb90614ab2565b80601f01602080910402602001604051908101604052809291908181526020018280546106e790614ab2565b80156107345780601f1061070957610100808354040283529160200191610734565b820191906000526020600020905b81548152906001019060200180831161071757829003601f168201915b50505050509080600201805461074990614ab2565b80601f016020809104026020016040519081016040528092919081815260200182805461077590614ab2565b80156107c25780601f10610797576101008083540402835291602001916107c2565b820191906000526020600020905b8154815290600101906020018083116107a557829003601f168201915b5050505050908060030160009054906101000a900460ff16908060040180546107ea90614ab2565b80601f016020809104026020016040519081016040528092919081815260200182805461081690614ab2565b80156108635780601f1061083857610100808354040283529160200191610863565b820191906000526020600020905b81548152906001019060200180831161084657829003601f168201915b5050505050905085565b60008282604051602001610882929190614b68565b6040516020818303038152906040528051906020012060001c905092915050565b60006020528060005260406000206000915090508060000180546108c690614ab2565b80601f01602080910402602001604051908101604052809291908181526020018280546108f290614ab2565b801561093f5780601f106109145761010080835404028352916020019161093f565b820191906000526020600020905b81548152906001019060200180831161092257829003601f168201915b50505050509080600101805461095490614ab2565b80601f016020809104026020016040519081016040528092919081815260200182805461098090614ab2565b80156109cd5780601f106109a2576101008083540402835291602001916109cd565b820191906000526020600020905b8154815290600101906020018083116109b057829003601f168201915b5050505050908060020180546109e290614ab2565b80601f0160208091040260200160405190810160405280929190818152602001828054610a0e90614ab2565b8015610a5b5780601f10610a3057610100808354040283529160200191610a5b565b820191906000526020600020905b815481529060010190602001808311610a3e57829003601f168201915b505050505090806003018054610a7090614ab2565b80601f0160208091040260200160405190810160405280929190818152602001828054610a9c90614ab2565b8015610ae95780601f10610abe57610100808354040283529160200191610ae9565b820191906000526020600020905b815481529060010190602001808311610acc57829003601f168201915b5050505050908060040160009054906101000a900460ff16908060040160019054906101000a900473ffffffffffffffffffffffffffffffffffffffff16905086565b60055481565b6060600c805480602002602001604051908101604052809291908181526020018280548015610b8057602002820191906000526020600020905b815481526020019060010190808311610b6c575b5050505050905090565b3373ffffffffffffffffffffffffffffffffffffffff16601060009054906101000a900473ffffffffffffffffffffffffffffffffffffffff1673ffffffffffffffffffffffffffffffffffffffff1614610c1a576040517f08c379a0000000000000000000000000000000000000000000000000000000008152600401610c1190614bdc565b60405180910390fd5b600481606001906005811115610c3357610c32613a7d565b5b90816005811115610c4757610c46613a7d565b5b815250507ff8bb4358ad47552bf64034c3974f8d87f4628d3d227987cfcd5b19fc7cedc6e0600482601060009054906101000a900473ffffffffffffffffffffffffffffffffffffffff16604051610ca193929190614bfc565b60405180910390a150565b600b5460086000600b548152602001908152602001600020600001819055508360086000600b5481526020019081526020016000206001019080519060200190610cf792919061381c565b508260086000600b5481526020019081526020016000206002019080519060200190610d2492919061381c565b50816005811115610d3857610d37613a7d565b5b60086000600b54815260200190815260200160002060030160006101000a81548160ff02191690836005811115610d7257610d71613a7d565b5b02179055508060086000600b5481526020019081526020016000206004019080519060200190610da392919061381c565b507f274f009187cb91dd70ef9fd455c66e7263b5fc9746490cba15a3be400f580fa88484846005811115610dda57610dd9613a7d565b5b604051610de993929190614c3a565b60405180910390a1600c600b549080600181540180825580915050600190039060005260206000200160009091909190915055600d6040518060a00160405280600b548152602001868152602001858152602001846005811115610e5057610e4f613a7d565b5b6005811115610e6257610e61613a7d565b5b8152602001838152509080600181540180825580915050600190039060005260206000209060050201600090919091909150600082015181600001556020820151816001019080519060200190610eba92919061381c565b506040820151816002019080519060200190610ed792919061381c565b5060608201518160030160006101000a81548160ff02191690836005811115610f0357610f02613a7d565b5b02179055506080820151816004019080519060200190610f2492919061381c565b505050600b6000815480929190610f3a90614cae565b919050555050505050565b600c8181548110610f5557600080fd5b906000526020600020016000915090505481565b60038181548110610f7957600080fd5b906000526020600020016000915054906101000a900473ffffffffffffffffffffffffffffffffffffffff1681565b600d8181548110610fb857600080fd5b9060005260206000209060050201600091509050806000015490806001018054610fe190614ab2565b80601f016020809104026020016040519081016040528092919081815260200182805461100d90614ab2565b801561105a5780601f1061102f5761010080835404028352916020019161105a565b820191906000526020600020905b81548152906001019060200180831161103d57829003601f168201915b50505050509080600201805461106f90614ab2565b80601f016020809104026020016040519081016040528092919081815260200182805461109b90614ab2565b80156110e85780601f106110bd576101008083540402835291602001916110e8565b820191906000526020600020905b8154815290600101906020018083116110cb57829003601f168201915b5050505050908060030160009054906101000a900460ff169080600401805461111090614ab2565b80601f016020809104026020016040519081016040528092919081815260200182805461113c90614ab2565b80156111895780601f1061115e57610100808354040283529160200191611189565b820191906000526020600020905b81548152906001019060200180831161116c57829003601f168201915b5050505050905085565b600082826040516020016111a8929190614b68565b60405160208183030381529060405280519060200120905092915050565b6111ce6138a2565b6000808373ffffffffffffffffffffffffffffffffffffffff1673ffffffffffffffffffffffffffffffffffffffff1681526020019081526020016000206040518060c001604052908160008201805461122790614ab2565b80601f016020809104026020016040519081016040528092919081815260200182805461125390614ab2565b80156112a05780601f10611275576101008083540402835291602001916112a0565b820191906000526020600020905b81548152906001019060200180831161128357829003601f168201915b505050505081526020016001820180546112b990614ab2565b80601f01602080910402602001604051908101604052809291908181526020018280546112e590614ab2565b80156113325780601f1061130757610100808354040283529160200191611332565b820191906000526020600020905b81548152906001019060200180831161131557829003601f168201915b5050505050815260200160028201805461134b90614ab2565b80601f016020809104026020016040519081016040528092919081815260200182805461137790614ab2565b80156113c45780601f10611399576101008083540402835291602001916113c4565b820191906000526020600020905b8154815290600101906020018083116113a757829003601f168201915b505050505081526020016003820180546113dd90614ab2565b80601f016020809104026020016040519081016040528092919081815260200182805461140990614ab2565b80156114565780601f1061142b57610100808354040283529160200191611456565b820191906000526020600020905b81548152906001019060200180831161143957829003601f168201915b505050505081526020016004820160009054906101000a900460ff16600381111561148457611483613a7d565b5b600381111561149657611495613a7d565b5b81526020016004820160019054906101000a900473ffffffffffffffffffffffffffffffffffffffff1673ffffffffffffffffffffffffffffffffffffffff1673ffffffffffffffffffffffffffffffffffffffff16815250509050919050565b6005546006600060055481526020019081526020016000206000018190555081600581111561152957611528613a7d565b5b60066000600554815260200190815260200160002060010160006101000a81548160ff0219169083600581111561156357611562613a7d565b5b02179055508060066000600554815260200190815260200160002060010160016101000a81548173ffffffffffffffffffffffffffffffffffffffff021916908373ffffffffffffffffffffffffffffffffffffffff1602179055508073ffffffffffffffffffffffffffffffffffffffff168260058111156115e9576115e8613a7d565b5b60058111156115fb576115fa613a7d565b5b7f119b71e0e33421c153e29c9cf62d53667313969e57a1cffd506f579e87267d9260055460405161162c9190613e67565b60405180910390a36005600081548092919061164790614cae565b91905055505050565b60025481565b3373ffffffffffffffffffffffffffffffffffffffff16601060009054906101000a900473ffffffffffffffffffffffffffffffffffffffff1673ffffffffffffffffffffffffffffffffffffffff16146116e6576040517f08c379a00000000000000000000000000000000000000000000000000000000081526004016116dd90614bdc565b60405180910390fd5b6003816060019060058111156116ff576116fe613a7d565b5b9081600581111561171357611712613a7d565b5b815250507f36bbf2c4635dd5bbc3747e4089ade2d34883ac6bd195c47bffd310a685ce6eec600382601060009054906101000a900473ffffffffffffffffffffffffffffffffffffffff1660405161176d93929190614bfc565b60405180910390a150565b6004600581111561178c5761178b613a7d565b5b826060015160058111156117a3576117a2613a7d565b5b146117e3576040517f08c379a00000000000000000000000000000000000000000000000000000000081526004016117da90614d8f565b60405180910390fd5b6000600a6000600f54815260200190815260200160002090508381600101908051906020019061181492919061381c565b5060008160020160006101000a81548160ff0219169083600181111561183d5761183c613a7d565b5b0217905550828160030160008201518160000155602082015181600101908051906020019061186d92919061381c565b50604082015181600201908051906020019061188a92919061381c565b5060608201518160030160006101000a81548160ff021916908360058111156118b6576118b5613a7d565b5b021790555060808201518160040190805190602001906118d792919061381c565b50905050818160080160006101000a81548173ffffffffffffffffffffffffffffffffffffffff021916908373ffffffffffffffffffffffffffffffffffffffff1602179055507fc0a7086e05590c8d9160aba8dc6a29b754eda15e93d2a2578429bc2fda6bdec3600f5460008586606001518660405161195c959493929190614daf565b60405180910390a1600f600081548092919061197790614cae565b919050555050505050565b6000600581111561199657611995613a7d565b5b826060015160058111156119ad576119ac613a7d565b5b146119ed576040517f08c379a00000000000000000000000000000000000000000000000000000000081526004016119e490614e7b565b60405180910390fd5b6000600a6000600f548152602001908152602001600020905083816001019080519060200190611a1e92919061381c565b5060008160020160006101000a81548160ff02191690836001811115611a4757611a46613a7d565b5b02179055508281600301600082015181600001556020820151816001019080519060200190611a7792919061381c565b506040820151816002019080519060200190611a9492919061381c565b5060608201518160030160006101000a81548160ff02191690836005811115611ac057611abf613a7d565b5b02179055506080820151816004019080519060200190611ae192919061381c565b50905050818160080160006101000a81548173ffffffffffffffffffffffffffffffffffffffff021916908373ffffffffffffffffffffffffffffffffffffffff1602179055507fc0a7086e05590c8d9160aba8dc6a29b754eda15e93d2a2578429bc2fda6bdec3600f54600085866060015186604051611b66959493929190614daf565b60405180910390a1600f6000815480929190611b8190614cae565b919050555050505050565b6060600d805480602002602001604051908101604052809291908181526020016000905b82821015611ddd57838290600052602060002090600502016040518060a001604052908160008201548152602001600182018054611bed90614ab2565b80601f0160208091040260200160405190810160405280929190818152602001828054611c1990614ab2565b8015611c665780601f10611c3b57610100808354040283529160200191611c66565b820191906000526020600020905b815481529060010190602001808311611c4957829003601f168201915b50505050508152602001600282018054611c7f90614ab2565b80601f0160208091040260200160405190810160405280929190818152602001828054611cab90614ab2565b8015611cf85780601f10611ccd57610100808354040283529160200191611cf8565b820191906000526020600020905b815481529060010190602001808311611cdb57829003601f168201915b505050505081526020016003820160009054906101000a900460ff166005811115611d2657611d25613a7d565b5b6005811115611d3857611d37613a7d565b5b8152602001600482018054611d4c90614ab2565b80601f0160208091040260200160405190810160405280929190818152602001828054611d7890614ab2565b8015611dc55780601f10611d9a57610100808354040283529160200191611dc5565b820191906000526020600020905b815481529060010190602001808311611da857829003601f168201915b50505050508152505081526020019060010190611bb0565b50505050905090565b600a602052806000526040600020600091509050806000015490806001018054611e0f90614ab2565b80601f0160208091040260200160405190810160405280929190818152602001828054611e3b90614ab2565b8015611e885780601f10611e5d57610100808354040283529160200191611e88565b820191906000526020600020905b815481529060010190602001808311611e6b57829003601f168201915b5050505050908060020160009054906101000a900460ff1690806003016040518060a001604052908160008201548152602001600182018054611eca90614ab2565b80601f0160208091040260200160405190810160405280929190818152602001828054611ef690614ab2565b8015611f435780601f10611f1857610100808354040283529160200191611f43565b820191906000526020600020905b815481529060010190602001808311611f2657829003601f168201915b50505050508152602001600282018054611f5c90614ab2565b80601f0160208091040260200160405190810160405280929190818152602001828054611f8890614ab2565b8015611fd55780601f10611faa57610100808354040283529160200191611fd5565b820191906000526020600020905b815481529060010190602001808311611fb857829003601f168201915b505050505081526020016003820160009054906101000a900460ff16600581111561200357612002613a7d565b5b600581111561201557612014613a7d565b5b815260200160048201805461202990614ab2565b80601f016020809104026020016040519081016040528092919081815260200182805461205590614ab2565b80156120a25780601f10612077576101008083540402835291602001916120a2565b820191906000526020600020905b81548152906001019060200180831161208557829003601f168201915b505050505081525050908060080160009054906101000a900473ffffffffffffffffffffffffffffffffffffffff16905085565b600160009054906101000a900473ffffffffffffffffffffffffffffffffffffffff1681565b606082600381111561211157612110613a7d565b5b6000808473ffffffffffffffffffffffffffffffffffffffff1673ffffffffffffffffffffffffffffffffffffffff16815260200190815260200160002060040160006101000a81548160ff0219169083600381111561217457612173613a7d565b5b02179055507f1a3c779520e15f878f9eff134a72cf200f4361dde45a0d32a7eb989665bbfb286000808473ffffffffffffffffffffffffffffffffffffffff1673ffffffffffffffffffffffffffffffffffffffff1681526020019081526020016000206000016000808573ffffffffffffffffffffffffffffffffffffffff1673ffffffffffffffffffffffffffffffffffffffff1681526020019081526020016000206002016000808673ffffffffffffffffffffffffffffffffffffffff1673ffffffffffffffffffffffffffffffffffffffff1681526020019081526020016000206003016000808773ffffffffffffffffffffffffffffffffffffffff1673ffffffffffffffffffffffffffffffffffffffff1681526020019081526020016000206001016000808873ffffffffffffffffffffffffffffffffffffffff1673ffffffffffffffffffffffffffffffffffffffff16815260200190815260200160002060040160009054906101000a900460ff166000808973ffffffffffffffffffffffffffffffffffffffff1673ffffffffffffffffffffffffffffffffffffffff16815260200190815260200160002060040160019054906101000a900473ffffffffffffffffffffffffffffffffffffffff1660405161236196959493929190614f30565b60405180910390a16040518060400160405280600d81526020017f526f6c6520557064617465642100000000000000000000000000000000000000815250905092915050565b3373ffffffffffffffffffffffffffffffffffffffff16600160009054906101000a900473ffffffffffffffffffffffffffffffffffffffff1673ffffffffffffffffffffffffffffffffffffffff1614612437576040517f08c379a000000000000000000000000000000000000000000000000000000000815260040161242e90614ff9565b60405180910390fd5b856000808373ffffffffffffffffffffffffffffffffffffffff1673ffffffffffffffffffffffffffffffffffffffff168152602001908152602001600020600001908051906020019061248c92919061381c565b50846000808373ffffffffffffffffffffffffffffffffffffffff1673ffffffffffffffffffffffffffffffffffffffff16815260200190815260200160002060010190805190602001906124e292919061381c565b50836000808373ffffffffffffffffffffffffffffffffffffffff1673ffffffffffffffffffffffffffffffffffffffff168152602001908152602001600020600201908051906020019061253892919061381c565b50826000808373ffffffffffffffffffffffffffffffffffffffff1673ffffffffffffffffffffffffffffffffffffffff168152602001908152602001600020600301908051906020019061258e92919061381c565b508160038111156125a2576125a1613a7d565b5b6000808373ffffffffffffffffffffffffffffffffffffffff1673ffffffffffffffffffffffffffffffffffffffff16815260200190815260200160002060040160006101000a81548160ff0219169083600381111561260557612604613a7d565b5b0217905550806000808373ffffffffffffffffffffffffffffffffffffffff1673ffffffffffffffffffffffffffffffffffffffff16815260200190815260200160002060040160016101000a81548173ffffffffffffffffffffffffffffffffffffffff021916908373ffffffffffffffffffffffffffffffffffffffff16021790555081600381111561269d5761269c613a7d565b5b60038111156126af576126ae613a7d565b5b866040516126bd9190615019565b60405180910390208273ffffffffffffffffffffffffffffffffffffffff167fddb5d1667467713eb503e7e133811c91a231cb6b63f11930889c6004f36c35ee88888860405161270f93929190615030565b60405180910390a46003819080600181540180825580915050600190039060005260206000200160009091909190916101000a81548173ffffffffffffffffffffffffffffffffffffffff021916908373ffffffffffffffffffffffffffffffffffffffff16021790555060046040518060c001604052808881526020018781526020018681526020018581526020018460038111156127b2576127b1613a7d565b5b60038111156127c4576127c3613a7d565b5b81526020018373ffffffffffffffffffffffffffffffffffffffff168152509080600181540180825580915050600190039060005260206000209060050201600090919091909150600082015181600001908051906020019061282892919061381c565b50602082015181600101908051906020019061284592919061381c565b50604082015181600201908051906020019061286292919061381c565b50606082015181600301908051906020019061287f92919061381c565b5060808201518160040160006101000a81548160ff021916908360038111156128ab576128aa613a7d565b5b021790555060a08201518160040160016101000a81548173ffffffffffffffffffffffffffffffffffffffff021916908373ffffffffffffffffffffffffffffffffffffffff16021790555050506002600081548092919061290c90614cae565b9190505550505050505050565b6001600581111561292d5761292c613a7d565b5b8260600151600581111561294457612943613a7d565b5b14612984576040517f08c379a000000000000000000000000000000000000000000000000000000000815260040161297b906150ee565b60405180910390fd5b600060096000600e5481526020019081526020016000209050838160010190805190602001906129b592919061381c565b5060008160020160006101000a81548160ff021916908360018111156129de576129dd613a7d565b5b02179055508281600301600082015181600001556020820151816001019080519060200190612a0e92919061381c565b506040820151816002019080519060200190612a2b92919061381c565b5060608201518160030160006101000a81548160ff02191690836005811115612a5757612a56613a7d565b5b02179055506080820151816004019080519060200190612a7892919061381c565b50905050818160080160006101000a81548173ffffffffffffffffffffffffffffffffffffffff021916908373ffffffffffffffffffffffffffffffffffffffff1602179055507f56cef5b605de75dde94390e0903b843a7c7203544ad094da5db5ecdafb897cb8600e54600085866060015186604051612afd959493929190614daf565b60405180910390a1600e6000815480929190612b1890614cae565b919050555050505050565b60048181548110612b3357600080fd5b9060005260206000209060050201600091509050806000018054612b5690614ab2565b80601f0160208091040260200160405190810160405280929190818152602001828054612b8290614ab2565b8015612bcf5780601f10612ba457610100808354040283529160200191612bcf565b820191906000526020600020905b815481529060010190602001808311612bb257829003601f168201915b505050505090806001018054612be490614ab2565b80601f0160208091040260200160405190810160405280929190818152602001828054612c1090614ab2565b8015612c5d5780601f10612c3257610100808354040283529160200191612c5d565b820191906000526020600020905b815481529060010190602001808311612c4057829003601f168201915b505050505090806002018054612c7290614ab2565b80601f0160208091040260200160405190810160405280929190818152602001828054612c9e90614ab2565b8015612ceb5780601f10612cc057610100808354040283529160200191612ceb565b820191906000526020600020905b815481529060010190602001808311612cce57829003601f168201915b505050505090806003018054612d0090614ab2565b80601f0160208091040260200160405190810160405280929190818152602001828054612d2c90614ab2565b8015612d795780601f10612d4e57610100808354040283529160200191612d79565b820191906000526020600020905b815481529060010190602001808311612d5c57829003601f168201915b5050505050908060040160009054906101000a900460ff16908060040160019054906101000a900473ffffffffffffffffffffffffffffffffffffffff16905086565b60606003805480602002602001604051908101604052809291908181526020018280548015612e4057602002820191906000526020600020905b8160009054906101000a900473ffffffffffffffffffffffffffffffffffffffff1673ffffffffffffffffffffffffffffffffffffffff1681526020019060010190808311612df6575b5050505050905090565b60066020528060005260406000206000915090508060000154908060010160009054906101000a900460ff16908060010160019054906101000a900473ffffffffffffffffffffffffffffffffffffffff16905083565b600b5481565b3373ffffffffffffffffffffffffffffffffffffffff16601060009054906101000a900473ffffffffffffffffffffffffffffffffffffffff1673ffffffffffffffffffffffffffffffffffffffff1614612f37576040517f08c379a0000000000000000000000000000000000000000000000000000000008152600401612f2e90614bdc565b60405180910390fd5b600281606001906005811115612f5057612f4f613a7d565b5b90816005811115612f6457612f63613a7d565b5b815250507fe3b6ce34d92d54525c86b075ac7ee860f397bf04357137b90aa44a80419a45c382600283601060009054906101000a900473ffffffffffffffffffffffffffffffffffffffff16604051612fc0949392919061510e565b60405180910390a15050565b6009602052806000526040600020600091509050806000015490806001018054612ff590614ab2565b80601f016020809104026020016040519081016040528092919081815260200182805461302190614ab2565b801561306e5780601f106130435761010080835404028352916020019161306e565b820191906000526020600020905b81548152906001019060200180831161305157829003601f168201915b5050505050908060020160009054906101000a900460ff1690806003016040518060a0016040529081600082015481526020016001820180546130b090614ab2565b80601f01602080910402602001604051908101604052809291908181526020018280546130dc90614ab2565b80156131295780601f106130fe57610100808354040283529160200191613129565b820191906000526020600020905b81548152906001019060200180831161310c57829003601f168201915b5050505050815260200160028201805461314290614ab2565b80601f016020809104026020016040519081016040528092919081815260200182805461316e90614ab2565b80156131bb5780601f10613190576101008083540402835291602001916131bb565b820191906000526020600020905b81548152906001019060200180831161319e57829003601f168201915b505050505081526020016003820160009054906101000a900460ff1660058111156131e9576131e8613a7d565b5b60058111156131fb576131fa613a7d565b5b815260200160048201805461320f90614ab2565b80601f016020809104026020016040519081016040528092919081815260200182805461323b90614ab2565b80156132885780601f1061325d57610100808354040283529160200191613288565b820191906000526020600020905b81548152906001019060200180831161326b57829003601f168201915b505050505081525050908060080160009054906101000a900473ffffffffffffffffffffffffffffffffffffffff16905085565b60606004805480602002602001604051908101604052809291908181526020016000905b828210156135eb57838290600052602060002090600502016040518060c001604052908160008201805461331390614ab2565b80601f016020809104026020016040519081016040528092919081815260200182805461333f90614ab2565b801561338c5780601f106133615761010080835404028352916020019161338c565b820191906000526020600020905b81548152906001019060200180831161336f57829003601f168201915b505050505081526020016001820180546133a590614ab2565b80601f01602080910402602001604051908101604052809291908181526020018280546133d190614ab2565b801561341e5780601f106133f35761010080835404028352916020019161341e565b820191906000526020600020905b81548152906001019060200180831161340157829003601f168201915b5050505050815260200160028201805461343790614ab2565b80601f016020809104026020016040519081016040528092919081815260200182805461346390614ab2565b80156134b05780601f10613485576101008083540402835291602001916134b0565b820191906000526020600020905b81548152906001019060200180831161349357829003601f168201915b505050505081526020016003820180546134c990614ab2565b80601f01602080910402602001604051908101604052809291908181526020018280546134f590614ab2565b80156135425780601f1061351757610100808354040283529160200191613542565b820191906000526020600020905b81548152906001019060200180831161352557829003601f168201915b505050505081526020016004820160009054906101000a900460ff1660038111156135705761356f613a7d565b5b600381111561358257613581613a7d565b5b81526020016004820160019054906101000a900473ffffffffffffffffffffffffffffffffffffffff1673ffffffffffffffffffffffffffffffffffffffff1673ffffffffffffffffffffffffffffffffffffffff1681525050815260200190600101906132e0565b50505050905090565b6135fc613900565b600860008381526020019081526020016000206040518060a00160405290816000820154815260200160018201805461363490614ab2565b80601f016020809104026020016040519081016040528092919081815260200182805461366090614ab2565b80156136ad5780601f10613682576101008083540402835291602001916136ad565b820191906000526020600020905b81548152906001019060200180831161369057829003601f168201915b505050505081526020016002820180546136c690614ab2565b80601f01602080910402602001604051908101604052809291908181526020018280546136f290614ab2565b801561373f5780601f106137145761010080835404028352916020019161373f565b820191906000526020600020905b81548152906001019060200180831161372257829003601f168201915b505050505081526020016003820160009054906101000a900460ff16600581111561376d5761376c613a7d565b5b600581111561377f5761377e613a7d565b5b815260200160048201805461379390614ab2565b80601f01602080910402602001604051908101604052809291908181526020018280546137bf90614ab2565b801561380c5780601f106137e15761010080835404028352916020019161380c565b820191906000526020600020905b8154815290600101906020018083116137ef57829003601f168201915b5050505050815250509050919050565b82805461382890614ab2565b90600052602060002090601f01602090048101928261384a5760008555613891565b82601f1061386357805160ff1916838001178555613891565b82800160010185558215613891579182015b82811115613890578251825591602001919060010190613875565b5b50905061389e9190613941565b5090565b6040518060c0016040528060608152602001606081526020016060815260200160608152602001600060038111156138dd576138dc613a7d565b5b8152602001600073ffffffffffffffffffffffffffffffffffffffff1681525090565b6040518060a001604052806000815260200160608152602001606081526020016000600581111561393457613933613a7d565b5b8152602001606081525090565b5b8082111561395a576000816000905550600101613942565b5090565b6000604051905090565b600080fd5b600080fd5b6000819050919050565b61398581613972565b811461399057600080fd5b50565b6000813590506139a28161397c565b92915050565b6000602082840312156139be576139bd613968565b5b60006139cc84828501613993565b91505092915050565b6139de81613972565b82525050565b600081519050919050565b600082825260208201905092915050565b60005b83811015613a1e578082015181840152602081019050613a03565b83811115613a2d576000848401525b50505050565b6000601f19601f8301169050919050565b6000613a4f826139e4565b613a5981856139ef565b9350613a69818560208601613a00565b613a7281613a33565b840191505092915050565b7f4e487b7100000000000000000000000000000000000000000000000000000000600052602160045260246000fd5b60068110613abd57613abc613a7d565b5b50565b6000819050613ace82613aac565b919050565b6000613ade82613ac0565b9050919050565b613aee81613ad3565b82525050565b600060a082019050613b0960008301886139d5565b8181036020830152613b1b8187613a44565b90508181036040830152613b2f8186613a44565b9050613b3e6060830185613ae5565b8181036080830152613b508184613a44565b90509695505050505050565b600080fd5b600080fd5b7f4e487b7100000000000000000000000000000000000000000000000000000000600052604160045260246000fd5b613b9e82613a33565b810181811067ffffffffffffffff82111715613bbd57613bbc613b66565b5b80604052505050565b6000613bd061395e565b9050613bdc8282613b95565b919050565b600067ffffffffffffffff821115613bfc57613bfb613b66565b5b613c0582613a33565b9050602081019050919050565b82818337600083830152505050565b6000613c34613c2f84613be1565b613bc6565b905082815260208101848484011115613c5057613c4f613b61565b5b613c5b848285613c12565b509392505050565b600082601f830112613c7857613c77613b5c565b5b8135613c88848260208601613c21565b91505092915050565b600073ffffffffffffffffffffffffffffffffffffffff82169050919050565b6000613cbc82613c91565b9050919050565b613ccc81613cb1565b8114613cd757600080fd5b50565b600081359050613ce981613cc3565b92915050565b60008060408385031215613d0657613d05613968565b5b600083013567ffffffffffffffff811115613d2457613d2361396d565b5b613d3085828601613c63565b9250506020613d4185828601613cda565b9150509250929050565b613d5481613cb1565b82525050565b6000602082019050613d6f6000830184613d4b565b92915050565b600060208284031215613d8b57613d8a613968565b5b6000613d9984828501613cda565b91505092915050565b60048110613db357613db2613a7d565b5b50565b6000819050613dc482613da2565b919050565b6000613dd482613db6565b9050919050565b613de481613dc9565b82525050565b600060c0820190508181036000830152613e048189613a44565b90508181036020830152613e188188613a44565b90508181036040830152613e2c8187613a44565b90508181036060830152613e408186613a44565b9050613e4f6080830185613ddb565b613e5c60a0830184613d4b565b979650505050505050565b6000602082019050613e7c60008301846139d5565b92915050565b600081519050919050565b600082825260208201905092915050565b6000819050602082019050919050565b613eb781613972565b82525050565b6000613ec98383613eae565b60208301905092915050565b6000602082019050919050565b6000613eed82613e82565b613ef78185613e8d565b9350613f0283613e9e565b8060005b83811015613f33578151613f1a8882613ebd565b9750613f2583613ed5565b925050600181019050613f06565b5085935050505092915050565b60006020820190508181036000830152613f5a8184613ee2565b905092915050565b600080fd5b600080fd5b60068110613f7957600080fd5b50565b600081359050613f8b81613f6c565b92915050565b600060a08284031215613fa757613fa6613f62565b5b613fb160a0613bc6565b90506000613fc184828501613993565b600083015250602082013567ffffffffffffffff811115613fe557613fe4613f67565b5b613ff184828501613c63565b602083015250604082013567ffffffffffffffff81111561401557614014613f67565b5b61402184828501613c63565b604083015250606061403584828501613f7c565b606083015250608082013567ffffffffffffffff81111561405957614058613f67565b5b61406584828501613c63565b60808301525092915050565b60006020828403121561408757614086613968565b5b600082013567ffffffffffffffff8111156140a5576140a461396d565b5b6140b184828501613f91565b91505092915050565b600080600080608085870312156140d4576140d3613968565b5b600085013567ffffffffffffffff8111156140f2576140f161396d565b5b6140fe87828801613c63565b945050602085013567ffffffffffffffff81111561411f5761411e61396d565b5b61412b87828801613c63565b935050604061413c87828801613993565b925050606085013567ffffffffffffffff81111561415d5761415c61396d565b5b61416987828801613c63565b91505092959194509250565b6000819050919050565b61418881614175565b82525050565b60006020820190506141a3600083018461417f565b92915050565b600082825260208201905092915050565b60006141c5826139e4565b6141cf81856141a9565b93506141df818560208601613a00565b6141e881613a33565b840191505092915050565b6141fc81613dc9565b82525050565b61420b81613cb1565b82525050565b600060c083016000830151848203600086015261422e82826141ba565b9150506020830151848203602086015261424882826141ba565b9150506040830151848203604086015261426282826141ba565b9150506060830151848203606086015261427c82826141ba565b915050608083015161429160808601826141f3565b5060a08301516142a460a0860182614202565b508091505092915050565b600060208201905081810360008301526142c98184614211565b905092915050565b600080604083850312156142e8576142e7613968565b5b60006142f685828601613993565b925050602061430785828601613cda565b9150509250929050565b60008060006060848603121561432a57614329613968565b5b600084013567ffffffffffffffff8111156143485761434761396d565b5b61435486828701613c63565b935050602084013567ffffffffffffffff8111156143755761437461396d565b5b61438186828701613f91565b925050604061439286828701613cda565b9150509250925092565b600081519050919050565b600082825260208201905092915050565b6000819050602082019050919050565b6143d181613ad3565b82525050565b600060a0830160008301516143ef6000860182613eae565b506020830151848203602086015261440782826141ba565b9150506040830151848203604086015261442182826141ba565b915050606083015161443660608601826143c8565b506080830151848203608086015261444e82826141ba565b9150508091505092915050565b600061446783836143d7565b905092915050565b6000602082019050919050565b60006144878261439c565b61449181856143a7565b9350836020820285016144a3856143b8565b8060005b858110156144df57848403895281516144c0858261445b565b94506144cb8361446f565b925060208a019950506001810190506144a7565b50829750879550505050505092915050565b6000602082019050818103600083015261450b818461447c565b905092915050565b6002811061452457614523613a7d565b5b50565b600081905061453582614513565b919050565b600061454582614527565b9050919050565b6145558161453a565b82525050565b600060a0830160008301516145736000860182613eae565b506020830151848203602086015261458b82826141ba565b915050604083015184820360408601526145a582826141ba565b91505060608301516145ba60608601826143c8565b50608083015184820360808601526145d282826141ba565b9150508091505092915050565b600060a0820190506145f460008301886139d5565b81810360208301526146068187613a44565b9050614615604083018661454c565b8181036060830152614627818561455b565b90506146366080830184613d4b565b9695505050505050565b6000602082019050818103600083015261465a8184613a44565b905092915050565b60008060008060008060c0878903121561467f5761467e613968565b5b600087013567ffffffffffffffff81111561469d5761469c61396d565b5b6146a989828a01613c63565b965050602087013567ffffffffffffffff8111156146ca576146c961396d565b5b6146d689828a01613c63565b955050604087013567ffffffffffffffff8111156146f7576146f661396d565b5b61470389828a01613c63565b945050606087013567ffffffffffffffff8111156147245761472361396d565b5b61473089828a01613c63565b935050608061474189828a01613993565b92505060a061475289828a01613cda565b9150509295509295509295565b600081519050919050565b600082825260208201905092915050565b6000819050602082019050919050565b60006147978383614202565b60208301905092915050565b6000602082019050919050565b60006147bb8261475f565b6147c5818561476a565b93506147d08361477b565b8060005b838110156148015781516147e8888261478b565b97506147f3836147a3565b9250506001810190506147d4565b5085935050505092915050565b6000602082019050818103600083015261482881846147b0565b905092915050565b600060608201905061484560008301866139d5565b6148526020830185613ae5565b61485f6040830184613d4b565b949350505050565b6000806040838503121561487e5761487d613968565b5b600083013567ffffffffffffffff81111561489c5761489b61396d565b5b6148a885828601613c63565b925050602083013567ffffffffffffffff8111156148c9576148c861396d565b5b6148d585828601613f91565b9150509250929050565b600081519050919050565b600082825260208201905092915050565b6000819050602082019050919050565b600060c083016000830151848203600086015261492882826141ba565b9150506020830151848203602086015261494282826141ba565b9150506040830151848203604086015261495c82826141ba565b9150506060830151848203606086015261497682826141ba565b915050608083015161498b60808601826141f3565b5060a083015161499e60a0860182614202565b508091505092915050565b60006149b5838361490b565b905092915050565b6000602082019050919050565b60006149d5826148df565b6149df81856148ea565b9350836020820285016149f1856148fb565b8060005b85811015614a2d5784840389528151614a0e85826149a9565b9450614a19836149bd565b925060208a019950506001810190506149f5565b50829750879550505050505092915050565b60006020820190508181036000830152614a5981846149ca565b905092915050565b60006020820190508181036000830152614a7b818461455b565b905092915050565b7f4e487b7100000000000000000000000000000000000000000000000000000000600052602260045260246000fd5b60006002820490506001821680614aca57607f821691505b60208210811415614ade57614add614a83565b5b50919050565b600081905092915050565b6000614afa826139e4565b614b048185614ae4565b9350614b14818560208601613a00565b80840191505092915050565b60008160601b9050919050565b6000614b3882614b20565b9050919050565b6000614b4a82614b2d565b9050919050565b614b62614b5d82613cb1565b614b3f565b82525050565b6000614b748285614aef565b9150614b808284614b51565b6014820191508190509392505050565b7f596f7520617265206e6f74206120636f6d70616e79206275696c646572000000600082015250565b6000614bc6601d836139ef565b9150614bd182614b90565b602082019050919050565b60006020820190508181036000830152614bf581614bb9565b9050919050565b6000606082019050614c116000830186613ae5565b8181036020830152614c23818561455b565b9050614c326040830184613d4b565b949350505050565b60006060820190508181036000830152614c548186613a44565b90508181036020830152614c688185613a44565b9050614c776040830184613ae5565b949350505050565b7f4e487b7100000000000000000000000000000000000000000000000000000000600052601160045260246000fd5b6000614cb982613972565b91507fffffffffffffffffffffffffffffffffffffffffffffffffffffffffffffffff821415614cec57614ceb614c7f565b5b600182019050919050565b7f5468652070726f6a656374206973206e6f7420696e2074686520274265666f7260008201527f6546696e616c697a6174696f6e436865636b27207374617475732c207468652060208201527f6f7065726174696f6e2063616e6e6f7420626520646f6e652e00000000000000604082015250565b6000614d796059836139ef565b9150614d8482614cf7565b606082019050919050565b60006020820190508181036000830152614da881614d6c565b9050919050565b600060a082019050614dc460008301886139d5565b614dd1602083018761454c565b8181036040830152614de3818661455b565b9050614df26060830185613ae5565b614dff6080830184613d4b565b9695505050505050565b7f5468652070726f6a656374206973206e6f7420637265617465642c207468652060008201527f6f7065726174696f6e2063616e6e6f7420626520646f6e652e00000000000000602082015250565b6000614e656039836139ef565b9150614e7082614e09565b604082019050919050565b60006020820190508181036000830152614e9481614e58565b9050919050565b60008190508160005260206000209050919050565b60008154614ebd81614ab2565b614ec781866139ef565b94506001821660008114614ee25760018114614ef457614f27565b60ff1983168652602086019350614f27565b614efd85614e9b565b60005b83811015614f1f57815481890152600182019150602081019050614f00565b808801955050505b50505092915050565b600060c0820190508181036000830152614f4a8189614eb0565b90508181036020830152614f5e8188614eb0565b90508181036040830152614f728187614eb0565b90508181036060830152614f868186614eb0565b9050614f956080830185613ddb565b614fa260a0830184613d4b565b979650505050505050565b7f596f7520617265206e6f7420616e206f776e6572000000000000000000000000600082015250565b6000614fe36014836139ef565b9150614fee82614fad565b602082019050919050565b6000602082019050818103600083015261501281614fd6565b9050919050565b60006150258284614aef565b915081905092915050565b6000606082019050818103600083015261504a8186613a44565b9050818103602083015261505e8185613a44565b905081810360408301526150728184613a44565b9050949350505050565b7f5468652070726f6a656374206973206e6f7420617070726f7665642c2074686560008201527f206f7065726174696f6e2063616e6e6f7420626520646f6e652e000000000000602082015250565b60006150d8603a836139ef565b91506150e38261507c565b604082019050919050565b60006020820190508181036000830152615107816150cb565b9050919050565b600060808201905081810360008301526151288187613a44565b90506151376020830186613ae5565b8181036040830152615149818561455b565b90506151586060830184613d4b565b9594505050505056fea2646970667358221220e48bb1b846326e18f46258d65ab64bd433415099f8d55ab3144f065db2e48e1764736f6c634300080a0033",
  "immutableReferences": {},
  "source": "// SPDX-License-Identifier: MIT\r\npragma solidity >=0.8.0 <0.9.0;\r\n\r\nimport \"./Project.sol\";\r\n\r\ncontract CompanyBuilder is Project {\r\n\r\n    address _companyAddress;\r\n\r\n    event ApproveProjectRequestByCompany(ProjectStatus _status, S_Project _project, address _subjectAddress);\r\n    event RejectProjectRequestByCompany(string _description, ProjectStatus _status, S_Project _project, address _subjectAddress);\r\n    event BeforeFinalizationProjectRequestByCompany(ProjectStatus _status, S_Project _project, address _subjectAddress);\r\n\r\n    constructor() {\r\n        _companyAddress = msg.sender;\r\n    }\r\n\r\n    modifier onlyCompany {\r\n        require(_companyAddress == msg.sender, \"You are not a company builder\");\r\n        _;\r\n    }\r\n\r\n    // Add some contrainst / verification TOOO DOOO -> LATER\r\n\r\n    function setProjectRequestToOnGoingStatus(S_Project memory _project) public onlyCompany {\r\n        _project.projectStatus = ProjectStatus.OnGoing;\r\n        emit ApproveProjectRequestByCompany(ProjectStatus.OnGoing, _project, _companyAddress);\r\n    }\r\n\r\n    function setProjectRequestToRejectStatus(string memory _description, S_Project memory _project) public onlyCompany {\r\n        _project.projectStatus = ProjectStatus.Rejected;\r\n        emit RejectProjectRequestByCompany(_description, ProjectStatus.Rejected, _project, _companyAddress);\r\n    }\r\n\r\n    function setProjectRequestToBeforeFinalizationStatus(S_Project memory _project)  public onlyCompany {\r\n        _project.projectStatus = ProjectStatus.BeforeFinalizationCheck;\r\n        emit BeforeFinalizationProjectRequestByCompany(ProjectStatus.BeforeFinalizationCheck, _project, _companyAddress);\r\n    }\r\n}\r\n",
  "sourcePath": "/mnt/c/users/beniamin/source/repos/dissertationproject/contracts/CompanyBuilder.sol",
  "compiler": {
    "name": "solc",
    "version": "0.8.10+commit.fc410830.Emscripten.clang"
  },
  "schemaVersion": "3.4.3",
  "updatedAt": "2021-11-17T20:04:30.580Z",
  "devdoc": {
    "kind": "dev",
    "methods": {},
    "version": 1
  },
  "userdoc": {
    "kind": "user",
    "methods": {},
    "version": 1
  }
}