{
  "contractName": "CompanyBuilder",
  "abi": [
    {
      "inputs": [],
      "stateMutability": "nonpayable",
      "type": "constructor"
    },
    {
      "anonymous": false,
      "inputs": [
        {
          "indexed": false,
          "internalType": "enum Project.ProjectStatus",
          "name": "_status",
          "type": "uint8"
        },
        {
          "components": [
            {
              "internalType": "uint256",
              "name": "index",
              "type": "uint256"
            },
            {
              "internalType": "bytes32",
              "name": "identifier",
              "type": "bytes32"
            },
            {
              "internalType": "string",
              "name": "description",
              "type": "string"
            },
            {
              "internalType": "enum Project.ProjectStatus",
              "name": "projectStatus",
              "type": "uint8"
            }
          ],
          "indexed": false,
          "internalType": "struct Project.S_Project",
          "name": "_project",
          "type": "tuple"
        },
        {
          "indexed": false,
          "internalType": "address",
          "name": "_subjectAddress",
          "type": "address"
        }
      ],
      "name": "ApproveProjectRequestByCompany",
      "type": "event"
    },
    {
      "anonymous": false,
      "inputs": [
        {
          "indexed": false,
          "internalType": "enum Project.ProjectStatus",
          "name": "_status",
          "type": "uint8"
        },
        {
          "components": [
            {
              "internalType": "uint256",
              "name": "index",
              "type": "uint256"
            },
            {
              "internalType": "bytes32",
              "name": "identifier",
              "type": "bytes32"
            },
            {
              "internalType": "string",
              "name": "description",
              "type": "string"
            },
            {
              "internalType": "enum Project.ProjectStatus",
              "name": "projectStatus",
              "type": "uint8"
            }
          ],
          "indexed": false,
          "internalType": "struct Project.S_Project",
          "name": "_project",
          "type": "tuple"
        },
        {
          "indexed": false,
          "internalType": "address",
          "name": "_subjectAddress",
          "type": "address"
        }
      ],
      "name": "BeforeFinalizationProjectRequestByCompany",
      "type": "event"
    },
    {
      "anonymous": false,
      "inputs": [
        {
          "indexed": false,
          "internalType": "uint256",
          "name": "_indexProject",
          "type": "uint256"
        },
        {
          "indexed": false,
          "internalType": "enum Project.ProjectStatus",
          "name": "_projectStatus",
          "type": "uint8"
        },
        {
          "indexed": false,
          "internalType": "address",
          "name": "_address",
          "type": "address"
        }
      ],
      "name": "CreateProject",
      "type": "event"
    },
    {
      "anonymous": false,
      "inputs": [
        {
          "indexed": false,
          "internalType": "string",
          "name": "_description",
          "type": "string"
        },
        {
          "indexed": false,
          "internalType": "enum Project.ProjectStatus",
          "name": "_status",
          "type": "uint8"
        },
        {
          "components": [
            {
              "internalType": "uint256",
              "name": "index",
              "type": "uint256"
            },
            {
              "internalType": "bytes32",
              "name": "identifier",
              "type": "bytes32"
            },
            {
              "internalType": "string",
              "name": "description",
              "type": "string"
            },
            {
              "internalType": "enum Project.ProjectStatus",
              "name": "projectStatus",
              "type": "uint8"
            }
          ],
          "indexed": false,
          "internalType": "struct Project.S_Project",
          "name": "_project",
          "type": "tuple"
        },
        {
          "indexed": false,
          "internalType": "address",
          "name": "_subjectAddress",
          "type": "address"
        }
      ],
      "name": "RejectProjectRequestByCompany",
      "type": "event"
    },
    {
      "anonymous": false,
      "inputs": [
        {
          "indexed": false,
          "internalType": "uint256",
          "name": "_indexRequest",
          "type": "uint256"
        },
        {
          "indexed": false,
          "internalType": "enum Project.RequestStatus",
          "name": "_status",
          "type": "uint8"
        },
        {
          "components": [
            {
              "internalType": "uint256",
              "name": "index",
              "type": "uint256"
            },
            {
              "internalType": "bytes32",
              "name": "identifier",
              "type": "bytes32"
            },
            {
              "internalType": "string",
              "name": "description",
              "type": "string"
            },
            {
              "internalType": "enum Project.ProjectStatus",
              "name": "projectStatus",
              "type": "uint8"
            }
          ],
          "indexed": false,
          "internalType": "struct Project.S_Project",
          "name": "_project",
          "type": "tuple"
        },
        {
          "indexed": false,
          "internalType": "enum Project.ProjectStatus",
          "name": "_projectStatus",
          "type": "uint8"
        },
        {
          "indexed": false,
          "internalType": "address",
          "name": "_subjectAddress",
          "type": "address"
        }
      ],
      "name": "UpdateCompanyRequestStatus",
      "type": "event"
    },
    {
      "anonymous": false,
      "inputs": [
        {
          "indexed": false,
          "internalType": "uint256",
          "name": "_indexRequest",
          "type": "uint256"
        },
        {
          "indexed": false,
          "internalType": "enum Project.RequestStatus",
          "name": "_status",
          "type": "uint8"
        },
        {
          "components": [
            {
              "internalType": "uint256",
              "name": "index",
              "type": "uint256"
            },
            {
              "internalType": "bytes32",
              "name": "identifier",
              "type": "bytes32"
            },
            {
              "internalType": "string",
              "name": "description",
              "type": "string"
            },
            {
              "internalType": "enum Project.ProjectStatus",
              "name": "projectStatus",
              "type": "uint8"
            }
          ],
          "indexed": false,
          "internalType": "struct Project.S_Project",
          "name": "_project",
          "type": "tuple"
        },
        {
          "indexed": false,
          "internalType": "enum Project.ProjectStatus",
          "name": "_projectStatus",
          "type": "uint8"
        },
        {
          "indexed": false,
          "internalType": "address",
          "name": "_subjectAddress",
          "type": "address"
        }
      ],
      "name": "UpdateSupervisorRequestStatus",
      "type": "event"
    },
    {
      "anonymous": false,
      "inputs": [
        {
          "indexed": true,
          "internalType": "address",
          "name": "_address",
          "type": "address"
        },
        {
          "indexed": false,
          "internalType": "bytes32",
          "name": "_username",
          "type": "bytes32"
        }
      ],
      "name": "UserRegistered",
      "type": "event"
    },
    {
      "inputs": [
        {
          "internalType": "uint256",
          "name": "_role",
          "type": "uint256"
        },
        {
          "internalType": "address",
          "name": "_userAddress",
          "type": "address"
        }
      ],
      "name": "changeUserRole",
      "outputs": [
        {
          "internalType": "string",
          "name": "",
          "type": "string"
        }
      ],
      "stateMutability": "nonpayable",
      "type": "function"
    },
    {
      "inputs": [
        {
          "internalType": "uint256",
          "name": "",
          "type": "uint256"
        }
      ],
      "name": "companyRequests",
      "outputs": [
        {
          "internalType": "uint256",
          "name": "index",
          "type": "uint256"
        },
        {
          "internalType": "string",
          "name": "description",
          "type": "string"
        },
        {
          "internalType": "enum Project.RequestStatus",
          "name": "status",
          "type": "uint8"
        },
        {
          "components": [
            {
              "internalType": "uint256",
              "name": "index",
              "type": "uint256"
            },
            {
              "internalType": "bytes32",
              "name": "identifier",
              "type": "bytes32"
            },
            {
              "internalType": "string",
              "name": "description",
              "type": "string"
            },
            {
              "internalType": "enum Project.ProjectStatus",
              "name": "projectStatus",
              "type": "uint8"
            }
          ],
          "internalType": "struct Project.S_Project",
          "name": "project",
          "type": "tuple"
        },
        {
          "internalType": "address",
          "name": "subjectAddress",
          "type": "address"
        }
      ],
      "stateMutability": "view",
      "type": "function"
    },
    {
      "inputs": [
        {
          "internalType": "uint256",
          "name": "_index",
          "type": "uint256"
        },
        {
          "internalType": "string",
          "name": "_description",
          "type": "string"
        },
        {
          "internalType": "enum Project.ProjectStatus",
          "name": "_status",
          "type": "uint8"
        },
        {
          "internalType": "string",
          "name": "_hashStringValue",
          "type": "string"
        }
      ],
      "name": "createProject",
      "outputs": [],
      "stateMutability": "nonpayable",
      "type": "function"
    },
    {
      "inputs": [
        {
          "internalType": "string",
          "name": "_text",
          "type": "string"
        },
        {
          "internalType": "address",
          "name": "_addr",
          "type": "address"
        }
      ],
      "name": "createUniqueIdentifier",
      "outputs": [
        {
          "internalType": "bytes32",
          "name": "",
          "type": "bytes32"
        }
      ],
      "stateMutability": "pure",
      "type": "function"
    },
    {
      "inputs": [],
      "name": "getUser",
      "outputs": [
        {
          "internalType": "string",
          "name": "",
          "type": "string"
        }
      ],
      "stateMutability": "view",
      "type": "function"
    },
    {
      "inputs": [
        {
          "internalType": "address",
          "name": "_userAddress",
          "type": "address"
        }
      ],
      "name": "getUserInfo",
      "outputs": [
        {
          "components": [
            {
              "internalType": "bytes32",
              "name": "username",
              "type": "bytes32"
            },
            {
              "internalType": "enum User.Roles",
              "name": "role",
              "type": "uint8"
            },
            {
              "internalType": "address",
              "name": "userAddress",
              "type": "address"
            }
          ],
          "internalType": "struct User.S_UserData",
          "name": "",
          "type": "tuple"
        }
      ],
      "stateMutability": "view",
      "type": "function"
    },
    {
      "inputs": [],
      "name": "owner",
      "outputs": [
        {
          "internalType": "address",
          "name": "",
          "type": "address"
        }
      ],
      "stateMutability": "view",
      "type": "function"
    },
    {
      "inputs": [
        {
          "internalType": "uint256",
          "name": "",
          "type": "uint256"
        }
      ],
      "name": "projects",
      "outputs": [
        {
          "internalType": "uint256",
          "name": "index",
          "type": "uint256"
        },
        {
          "internalType": "bytes32",
          "name": "identifier",
          "type": "bytes32"
        },
        {
          "internalType": "string",
          "name": "description",
          "type": "string"
        },
        {
          "internalType": "enum Project.ProjectStatus",
          "name": "projectStatus",
          "type": "uint8"
        }
      ],
      "stateMutability": "view",
      "type": "function"
    },
    {
      "inputs": [
        {
          "internalType": "bytes32",
          "name": "_username",
          "type": "bytes32"
        },
        {
          "internalType": "uint256",
          "name": "_role",
          "type": "uint256"
        },
        {
          "internalType": "address",
          "name": "_userAddress",
          "type": "address"
        }
      ],
      "name": "registerUser",
      "outputs": [],
      "stateMutability": "nonpayable",
      "type": "function"
    },
    {
      "inputs": [
        {
          "internalType": "string",
          "name": "_description",
          "type": "string"
        },
        {
          "components": [
            {
              "internalType": "uint256",
              "name": "index",
              "type": "uint256"
            },
            {
              "internalType": "bytes32",
              "name": "identifier",
              "type": "bytes32"
            },
            {
              "internalType": "string",
              "name": "description",
              "type": "string"
            },
            {
              "internalType": "enum Project.ProjectStatus",
              "name": "projectStatus",
              "type": "uint8"
            }
          ],
          "internalType": "struct Project.S_Project",
          "name": "_project",
          "type": "tuple"
        },
        {
          "internalType": "address",
          "name": "_subjectAddress",
          "type": "address"
        }
      ],
      "name": "requestProjectApprovalFromSupervisor",
      "outputs": [],
      "stateMutability": "nonpayable",
      "type": "function"
    },
    {
      "inputs": [
        {
          "internalType": "string",
          "name": "_description",
          "type": "string"
        },
        {
          "components": [
            {
              "internalType": "uint256",
              "name": "index",
              "type": "uint256"
            },
            {
              "internalType": "bytes32",
              "name": "identifier",
              "type": "bytes32"
            },
            {
              "internalType": "string",
              "name": "description",
              "type": "string"
            },
            {
              "internalType": "enum Project.ProjectStatus",
              "name": "projectStatus",
              "type": "uint8"
            }
          ],
          "internalType": "struct Project.S_Project",
          "name": "_project",
          "type": "tuple"
        },
        {
          "internalType": "address",
          "name": "_subjectAddress",
          "type": "address"
        }
      ],
      "name": "requestProjectCompleteFromSupervisor",
      "outputs": [],
      "stateMutability": "nonpayable",
      "type": "function"
    },
    {
      "inputs": [
        {
          "internalType": "string",
          "name": "_description",
          "type": "string"
        },
        {
          "components": [
            {
              "internalType": "uint256",
              "name": "index",
              "type": "uint256"
            },
            {
              "internalType": "bytes32",
              "name": "identifier",
              "type": "bytes32"
            },
            {
              "internalType": "string",
              "name": "description",
              "type": "string"
            },
            {
              "internalType": "enum Project.ProjectStatus",
              "name": "projectStatus",
              "type": "uint8"
            }
          ],
          "internalType": "struct Project.S_Project",
          "name": "_project",
          "type": "tuple"
        },
        {
          "internalType": "address",
          "name": "_subjectAddress",
          "type": "address"
        }
      ],
      "name": "requestStartProjectToCompanyBuilder",
      "outputs": [],
      "stateMutability": "nonpayable",
      "type": "function"
    },
    {
      "inputs": [
        {
          "internalType": "uint256",
          "name": "",
          "type": "uint256"
        }
      ],
      "name": "supervisorRequests",
      "outputs": [
        {
          "internalType": "uint256",
          "name": "index",
          "type": "uint256"
        },
        {
          "internalType": "string",
          "name": "description",
          "type": "string"
        },
        {
          "internalType": "enum Project.RequestStatus",
          "name": "status",
          "type": "uint8"
        },
        {
          "components": [
            {
              "internalType": "uint256",
              "name": "index",
              "type": "uint256"
            },
            {
              "internalType": "bytes32",
              "name": "identifier",
              "type": "bytes32"
            },
            {
              "internalType": "string",
              "name": "description",
              "type": "string"
            },
            {
              "internalType": "enum Project.ProjectStatus",
              "name": "projectStatus",
              "type": "uint8"
            }
          ],
          "internalType": "struct Project.S_Project",
          "name": "project",
          "type": "tuple"
        },
        {
          "internalType": "address",
          "name": "subjectAddress",
          "type": "address"
        }
      ],
      "stateMutability": "view",
      "type": "function"
    },
    {
      "inputs": [
        {
          "internalType": "address",
          "name": "",
          "type": "address"
        }
      ],
      "name": "userInfo",
      "outputs": [
        {
          "internalType": "bytes32",
          "name": "username",
          "type": "bytes32"
        },
        {
          "internalType": "enum User.Roles",
          "name": "role",
          "type": "uint8"
        },
        {
          "internalType": "address",
          "name": "userAddress",
          "type": "address"
        }
      ],
      "stateMutability": "view",
      "type": "function"
    },
    {
      "inputs": [
        {
          "components": [
            {
              "internalType": "uint256",
              "name": "index",
              "type": "uint256"
            },
            {
              "internalType": "bytes32",
              "name": "identifier",
              "type": "bytes32"
            },
            {
              "internalType": "string",
              "name": "description",
              "type": "string"
            },
            {
              "internalType": "enum Project.ProjectStatus",
              "name": "projectStatus",
              "type": "uint8"
            }
          ],
          "internalType": "struct Project.S_Project",
          "name": "_project",
          "type": "tuple"
        }
      ],
      "name": "setProjectRequestToOnGoingStatus",
      "outputs": [],
      "stateMutability": "nonpayable",
      "type": "function"
    },
    {
      "inputs": [
        {
          "internalType": "string",
          "name": "_description",
          "type": "string"
        },
        {
          "components": [
            {
              "internalType": "uint256",
              "name": "index",
              "type": "uint256"
            },
            {
              "internalType": "bytes32",
              "name": "identifier",
              "type": "bytes32"
            },
            {
              "internalType": "string",
              "name": "description",
              "type": "string"
            },
            {
              "internalType": "enum Project.ProjectStatus",
              "name": "projectStatus",
              "type": "uint8"
            }
          ],
          "internalType": "struct Project.S_Project",
          "name": "_project",
          "type": "tuple"
        }
      ],
      "name": "setProjectRequestToRejectStatus",
      "outputs": [],
      "stateMutability": "nonpayable",
      "type": "function"
    },
    {
      "inputs": [
        {
          "components": [
            {
              "internalType": "uint256",
              "name": "index",
              "type": "uint256"
            },
            {
              "internalType": "bytes32",
              "name": "identifier",
              "type": "bytes32"
            },
            {
              "internalType": "string",
              "name": "description",
              "type": "string"
            },
            {
              "internalType": "enum Project.ProjectStatus",
              "name": "projectStatus",
              "type": "uint8"
            }
          ],
          "internalType": "struct Project.S_Project",
          "name": "_project",
          "type": "tuple"
        }
      ],
      "name": "setProjectRequestToBeforeFinalizationStatus",
      "outputs": [],
      "stateMutability": "nonpayable",
      "type": "function"
    }
  ],
  "bytecode": "0x608060405234801561001057600080fd5b5033600160006101000a81548173ffffffffffffffffffffffffffffffffffffffff021916908373ffffffffffffffffffffffffffffffffffffffff16021790555033600260006101000a81548173ffffffffffffffffffffffffffffffffffffffff021916908373ffffffffffffffffffffffffffffffffffffffff16021790555033600960006101000a81548173ffffffffffffffffffffffffffffffffffffffff021916908373ffffffffffffffffffffffffffffffffffffffff160217905550612ff5806100e36000396000f3fe608060405234801561001057600080fd5b506004361061010b5760003560e01c8063832880e7116100a2578063934f91c511610071578063934f91c5146102e5578063afb6da0e14610301578063b51255991461031d578063d3bca1d514610339578063d40d4a80146103555761010b565b8063832880e7146102455780638c86a1d7146102635780638da5cb5b1461029757806391009786146102b55761010b565b80635502fc65116100de5780635502fc65146101ad5780636132844f146101c95780636386c1c7146101f957806381f274d4146102295761010b565b8063065ea2d314610110578063107046bd1461012c5780631959a0021461015f578063332ba3cd14610191575b600080fd5b61012a600480360381019061012591906120b3565b610389565b005b61014660048036038101906101419190612152565b610603565b60405161015694939291906122a6565b60405180910390f35b61017960048036038101906101749190612350565b6106c8565b604051610188939291906123d4565b60405180910390f35b6101ab60048036038101906101a691906124d5565b61071f565b005b6101c760048036038101906101c2919061254d565b610844565b005b6101e360048036038101906101de91906125d8565b610b85565b6040516101f09190612634565b60405180910390f35b610213600480360381019061020e9190612350565b610bb8565b60405161022091906126be565b60405180910390f35b610243600480360381019061023e91906126d9565b610d3b565b005b61024d610e5d565b60405161025a9190612722565b60405180910390f35b61027d60048036038101906102789190612152565b610f2a565b60405161028e959493929190612857565b60405180910390f35b61029f611100565b6040516102ac91906128b8565b60405180910390f35b6102cf60048036038101906102ca91906128d3565b611126565b6040516102dc9190612722565b60405180910390f35b6102ff60048036038101906102fa91906126d9565b611271565b005b61031b6004803603810190610316919061254d565b611393565b005b6103376004803603810190610332919061254d565b6116d4565b005b610353600480360381019061034e9190612913565b611a15565b005b61036f600480360381019061036a9190612152565b611c39565b604051610380959493929190612857565b60405180910390f35b6001600381111561039d5761039c61222f565b5b600080600260009054906101000a900473ffffffffffffffffffffffffffffffffffffffff1673ffffffffffffffffffffffffffffffffffffffff1673ffffffffffffffffffffffffffffffffffffffff16815260200190815260200160002060010160009054906101000a900460ff1660038111156104205761041f61222f565b5b14610460576040517f08c379a0000000000000000000000000000000000000000000000000000000008152600401610457906129d8565b60405180910390fd5b3373ffffffffffffffffffffffffffffffffffffffff16600260009054906101000a900473ffffffffffffffffffffffffffffffffffffffff1673ffffffffffffffffffffffffffffffffffffffff16146104f0576040517f08c379a00000000000000000000000000000000000000000000000000000000081526004016104e790612a44565b60405180910390fd5b60006104fd826000610b85565b905084600360006006548152602001908152602001600020600001819055508060036000600654815260200190815260200160002060010181905550836003600060065481526020019081526020016000206002019080519060200190610565929190611e0f565b508260036000600654815260200190815260200160002060030160006101000a81548160ff021916908360058111156105a1576105a061222f565b5b02179055507fa33c40728c332bcc45ac23baebf405684a95db2bcea19967f32f1c59384c0e886006546000806040516105dc93929190612a64565b60405180910390a1600660008154809291906105f790612aca565b91905055505050505050565b600360205280600052604060002060009150905080600001549080600101549080600201805461063290612b42565b80601f016020809104026020016040519081016040528092919081815260200182805461065e90612b42565b80156106ab5780601f10610680576101008083540402835291602001916106ab565b820191906000526020600020905b81548152906001019060200180831161068e57829003601f168201915b5050505050908060030160009054906101000a900460ff16905084565b60006020528060005260406000206000915090508060000154908060010160009054906101000a900460ff16908060010160019054906101000a900473ffffffffffffffffffffffffffffffffffffffff16905083565b3373ffffffffffffffffffffffffffffffffffffffff16600960009054906101000a900473ffffffffffffffffffffffffffffffffffffffff1673ffffffffffffffffffffffffffffffffffffffff16146107af576040517f08c379a00000000000000000000000000000000000000000000000000000000081526004016107a690612bc0565b60405180910390fd5b6002816060019060058111156107c8576107c761222f565b5b908160058111156107dc576107db61222f565b5b815250507f8108f5496edb06907306692c6d3a9a8d2d8793ae509ca2fe6d60d9c3ad58eddb82600283600960009054906101000a900473ffffffffffffffffffffffffffffffffffffffff166040516108389493929190612be0565b60405180910390a15050565b600160038111156108585761085761222f565b5b600080600260009054906101000a900473ffffffffffffffffffffffffffffffffffffffff1673ffffffffffffffffffffffffffffffffffffffff1673ffffffffffffffffffffffffffffffffffffffff16815260200190815260200160002060010160009054906101000a900460ff1660038111156108db576108da61222f565b5b1461091b576040517f08c379a0000000000000000000000000000000000000000000000000000000008152600401610912906129d8565b60405180910390fd5b3373ffffffffffffffffffffffffffffffffffffffff16600260009054906101000a900473ffffffffffffffffffffffffffffffffffffffff1673ffffffffffffffffffffffffffffffffffffffff16146109ab576040517f08c379a00000000000000000000000000000000000000000000000000000000081526004016109a290612a44565b60405180910390fd5b600160058111156109bf576109be61222f565b5b826060015160058111156109d6576109d561222f565b5b14610a16576040517f08c379a0000000000000000000000000000000000000000000000000000000008152600401610a0d90612ca5565b60405180910390fd5b6000600460006007548152602001908152602001600020905083816001019080519060200190610a47929190611e0f565b5060008160020160006101000a81548160ff02191690836001811115610a7057610a6f61222f565b5b0217905550828160030160008201518160000155602082015181600101556040820151816002019080519060200190610aaa929190611e0f565b5060608201518160030160006101000a81548160ff02191690836005811115610ad657610ad561222f565b5b0217905550905050818160070160006101000a81548173ffffffffffffffffffffffffffffffffffffffff021916908373ffffffffffffffffffffffffffffffffffffffff1602179055507f7404f36b7a730bc20c8cc7e0e75c80d8d9af6bc8bca29829d01437c8f27e6415600754600085866060015186604051610b5f959493929190612cc5565b60405180910390a160076000815480929190610b7a90612aca565b919050555050505050565b60008282604051602001610b9a929190612da3565b60405160208183030381529060405280519060200120905092915050565b610bc0611e95565b3373ffffffffffffffffffffffffffffffffffffffff16600160009054906101000a900473ffffffffffffffffffffffffffffffffffffffff1673ffffffffffffffffffffffffffffffffffffffff1614610c50576040517f08c379a0000000000000000000000000000000000000000000000000000000008152600401610c4790612e17565b60405180910390fd5b6000808373ffffffffffffffffffffffffffffffffffffffff1673ffffffffffffffffffffffffffffffffffffffff168152602001908152602001600020604051806060016040529081600082015481526020016001820160009054906101000a900460ff166003811115610cc857610cc761222f565b5b6003811115610cda57610cd961222f565b5b81526020016001820160019054906101000a900473ffffffffffffffffffffffffffffffffffffffff1673ffffffffffffffffffffffffffffffffffffffff1673ffffffffffffffffffffffffffffffffffffffff16815250509050919050565b3373ffffffffffffffffffffffffffffffffffffffff16600960009054906101000a900473ffffffffffffffffffffffffffffffffffffffff1673ffffffffffffffffffffffffffffffffffffffff1614610dcb576040517f08c379a0000000000000000000000000000000000000000000000000000000008152600401610dc290612bc0565b60405180910390fd5b600381606001906005811115610de457610de361222f565b5b90816005811115610df857610df761222f565b5b815250507f57bc09cafd26d2cee9005dad3fd9defde747d769d7dafd4063e8ff35270b8698600382600960009054906101000a900473ffffffffffffffffffffffffffffffffffffffff16604051610e5293929190612e37565b60405180910390a150565b60603373ffffffffffffffffffffffffffffffffffffffff16600160009054906101000a900473ffffffffffffffffffffffffffffffffffffffff1673ffffffffffffffffffffffffffffffffffffffff1614610eef576040517f08c379a0000000000000000000000000000000000000000000000000000000008152600401610ee690612e17565b60405180910390fd5b6040518060400160405280600881526020017f42656e69616d696e000000000000000000000000000000000000000000000000815250905090565b6005602052806000526040600020600091509050806000015490806001018054610f5390612b42565b80601f0160208091040260200160405190810160405280929190818152602001828054610f7f90612b42565b8015610fcc5780601f10610fa157610100808354040283529160200191610fcc565b820191906000526020600020905b815481529060010190602001808311610faf57829003601f168201915b5050505050908060020160009054906101000a900460ff169080600301604051806080016040529081600082015481526020016001820154815260200160028201805461101890612b42565b80601f016020809104026020016040519081016040528092919081815260200182805461104490612b42565b80156110915780601f1061106657610100808354040283529160200191611091565b820191906000526020600020905b81548152906001019060200180831161107457829003601f168201915b505050505081526020016003820160009054906101000a900460ff1660058111156110bf576110be61222f565b5b60058111156110d1576110d061222f565b5b81525050908060070160009054906101000a900473ffffffffffffffffffffffffffffffffffffffff16905085565b600160009054906101000a900473ffffffffffffffffffffffffffffffffffffffff1681565b60603373ffffffffffffffffffffffffffffffffffffffff16600160009054906101000a900473ffffffffffffffffffffffffffffffffffffffff1673ffffffffffffffffffffffffffffffffffffffff16146111b8576040517f08c379a00000000000000000000000000000000000000000000000000000000081526004016111af90612e17565b60405180910390fd5b8260038111156111cb576111ca61222f565b5b6000808473ffffffffffffffffffffffffffffffffffffffff1673ffffffffffffffffffffffffffffffffffffffff16815260200190815260200160002060010160006101000a81548160ff0219169083600381111561122e5761122d61222f565b5b02179055506040518060400160405280600d81526020017f526f6c6520557064617465642100000000000000000000000000000000000000815250905092915050565b3373ffffffffffffffffffffffffffffffffffffffff16600960009054906101000a900473ffffffffffffffffffffffffffffffffffffffff1673ffffffffffffffffffffffffffffffffffffffff1614611301576040517f08c379a00000000000000000000000000000000000000000000000000000000081526004016112f890612bc0565b60405180910390fd5b60048160600190600581111561131a5761131961222f565b5b9081600581111561132e5761132d61222f565b5b815250507f6587420eb83bf328fdaec553e9e53a98827d494deeaddeaa5e5a998433c08da7600482600960009054906101000a900473ffffffffffffffffffffffffffffffffffffffff1660405161138893929190612e37565b60405180910390a150565b600160038111156113a7576113a661222f565b5b600080600260009054906101000a900473ffffffffffffffffffffffffffffffffffffffff1673ffffffffffffffffffffffffffffffffffffffff1673ffffffffffffffffffffffffffffffffffffffff16815260200190815260200160002060010160009054906101000a900460ff16600381111561142a5761142961222f565b5b1461146a576040517f08c379a0000000000000000000000000000000000000000000000000000000008152600401611461906129d8565b60405180910390fd5b3373ffffffffffffffffffffffffffffffffffffffff16600260009054906101000a900473ffffffffffffffffffffffffffffffffffffffff1673ffffffffffffffffffffffffffffffffffffffff16146114fa576040517f08c379a00000000000000000000000000000000000000000000000000000000081526004016114f190612a44565b60405180910390fd5b6000600581111561150e5761150d61222f565b5b826060015160058111156115255761152461222f565b5b14611565576040517f08c379a000000000000000000000000000000000000000000000000000000000815260040161155c90612ee7565b60405180910390fd5b6000600560006008548152602001908152602001600020905083816001019080519060200190611596929190611e0f565b5060008160020160006101000a81548160ff021916908360018111156115bf576115be61222f565b5b02179055508281600301600082015181600001556020820151816001015560408201518160020190805190602001906115f9929190611e0f565b5060608201518160030160006101000a81548160ff021916908360058111156116255761162461222f565b5b0217905550905050818160070160006101000a81548173ffffffffffffffffffffffffffffffffffffffff021916908373ffffffffffffffffffffffffffffffffffffffff1602179055507fea116f66bfca993e06ec3531e54d6fdd056bed479a873a351b5ff4c23124595b6008546000858660600151866040516116ae959493929190612cc5565b60405180910390a1600860008154809291906116c990612aca565b919050555050505050565b600160038111156116e8576116e761222f565b5b600080600260009054906101000a900473ffffffffffffffffffffffffffffffffffffffff1673ffffffffffffffffffffffffffffffffffffffff1673ffffffffffffffffffffffffffffffffffffffff16815260200190815260200160002060010160009054906101000a900460ff16600381111561176b5761176a61222f565b5b146117ab576040517f08c379a00000000000000000000000000000000000000000000000000000000081526004016117a2906129d8565b60405180910390fd5b3373ffffffffffffffffffffffffffffffffffffffff16600260009054906101000a900473ffffffffffffffffffffffffffffffffffffffff1673ffffffffffffffffffffffffffffffffffffffff161461183b576040517f08c379a000000000000000000000000000000000000000000000000000000000815260040161183290612a44565b60405180910390fd5b6004600581111561184f5761184e61222f565b5b826060015160058111156118665761186561222f565b5b146118a6576040517f08c379a000000000000000000000000000000000000000000000000000000000815260040161189d90612f9f565b60405180910390fd5b60006005600060085481526020019081526020016000209050838160010190805190602001906118d7929190611e0f565b5060008160020160006101000a81548160ff02191690836001811115611900576118ff61222f565b5b021790555082816003016000820151816000015560208201518160010155604082015181600201908051906020019061193a929190611e0f565b5060608201518160030160006101000a81548160ff021916908360058111156119665761196561222f565b5b0217905550905050818160070160006101000a81548173ffffffffffffffffffffffffffffffffffffffff021916908373ffffffffffffffffffffffffffffffffffffffff1602179055507fea116f66bfca993e06ec3531e54d6fdd056bed479a873a351b5ff4c23124595b6008546000858660600151866040516119ef959493929190612cc5565b60405180910390a160086000815480929190611a0a90612aca565b919050555050505050565b3373ffffffffffffffffffffffffffffffffffffffff16600160009054906101000a900473ffffffffffffffffffffffffffffffffffffffff1673ffffffffffffffffffffffffffffffffffffffff1614611aa5576040517f08c379a0000000000000000000000000000000000000000000000000000000008152600401611a9c90612e17565b60405180910390fd5b826000808373ffffffffffffffffffffffffffffffffffffffff1673ffffffffffffffffffffffffffffffffffffffff16815260200190815260200160002060000181905550816003811115611afe57611afd61222f565b5b6000808373ffffffffffffffffffffffffffffffffffffffff1673ffffffffffffffffffffffffffffffffffffffff16815260200190815260200160002060010160006101000a81548160ff02191690836003811115611b6157611b6061222f565b5b0217905550806000808373ffffffffffffffffffffffffffffffffffffffff1673ffffffffffffffffffffffffffffffffffffffff16815260200190815260200160002060010160016101000a81548173ffffffffffffffffffffffffffffffffffffffff021916908373ffffffffffffffffffffffffffffffffffffffff1602179055508073ffffffffffffffffffffffffffffffffffffffff167f4c5d15f5779ae1ecd7d55bd3283d898e29c35743d172bd7b83a16e17bc0afe2a84604051611c2c9190612634565b60405180910390a2505050565b6004602052806000526040600020600091509050806000015490806001018054611c6290612b42565b80601f0160208091040260200160405190810160405280929190818152602001828054611c8e90612b42565b8015611cdb5780601f10611cb057610100808354040283529160200191611cdb565b820191906000526020600020905b815481529060010190602001808311611cbe57829003601f168201915b5050505050908060020160009054906101000a900460ff1690806003016040518060800160405290816000820154815260200160018201548152602001600282018054611d2790612b42565b80601f0160208091040260200160405190810160405280929190818152602001828054611d5390612b42565b8015611da05780601f10611d7557610100808354040283529160200191611da0565b820191906000526020600020905b815481529060010190602001808311611d8357829003601f168201915b505050505081526020016003820160009054906101000a900460ff166005811115611dce57611dcd61222f565b5b6005811115611de057611ddf61222f565b5b81525050908060070160009054906101000a900473ffffffffffffffffffffffffffffffffffffffff16905085565b828054611e1b90612b42565b90600052602060002090601f016020900481019282611e3d5760008555611e84565b82601f10611e5657805160ff1916838001178555611e84565b82800160010185558215611e84579182015b82811115611e83578251825591602001919060010190611e68565b5b509050611e919190611ee1565b5090565b60405180606001604052806000801916815260200160006003811115611ebe57611ebd61222f565b5b8152602001600073ffffffffffffffffffffffffffffffffffffffff1681525090565b5b80821115611efa576000816000905550600101611ee2565b5090565b6000604051905090565b600080fd5b600080fd5b6000819050919050565b611f2581611f12565b8114611f3057600080fd5b50565b600081359050611f4281611f1c565b92915050565b600080fd5b600080fd5b6000601f19601f8301169050919050565b7f4e487b7100000000000000000000000000000000000000000000000000000000600052604160045260246000fd5b611f9b82611f52565b810181811067ffffffffffffffff82111715611fba57611fb9611f63565b5b80604052505050565b6000611fcd611efe565b9050611fd98282611f92565b919050565b600067ffffffffffffffff821115611ff957611ff8611f63565b5b61200282611f52565b9050602081019050919050565b82818337600083830152505050565b600061203161202c84611fde565b611fc3565b90508281526020810184848401111561204d5761204c611f4d565b5b61205884828561200f565b509392505050565b600082601f83011261207557612074611f48565b5b813561208584826020860161201e565b91505092915050565b6006811061209b57600080fd5b50565b6000813590506120ad8161208e565b92915050565b600080600080608085870312156120cd576120cc611f08565b5b60006120db87828801611f33565b945050602085013567ffffffffffffffff8111156120fc576120fb611f0d565b5b61210887828801612060565b93505060406121198782880161209e565b925050606085013567ffffffffffffffff81111561213a57612139611f0d565b5b61214687828801612060565b91505092959194509250565b60006020828403121561216857612167611f08565b5b600061217684828501611f33565b91505092915050565b61218881611f12565b82525050565b6000819050919050565b6121a18161218e565b82525050565b600081519050919050565b600082825260208201905092915050565b60005b838110156121e15780820151818401526020810190506121c6565b838111156121f0576000848401525b50505050565b6000612201826121a7565b61220b81856121b2565b935061221b8185602086016121c3565b61222481611f52565b840191505092915050565b7f4e487b7100000000000000000000000000000000000000000000000000000000600052602160045260246000fd5b6006811061226f5761226e61222f565b5b50565b60008190506122808261225e565b919050565b600061229082612272565b9050919050565b6122a081612285565b82525050565b60006080820190506122bb600083018761217f565b6122c86020830186612198565b81810360408301526122da81856121f6565b90506122e96060830184612297565b95945050505050565b600073ffffffffffffffffffffffffffffffffffffffff82169050919050565b600061231d826122f2565b9050919050565b61232d81612312565b811461233857600080fd5b50565b60008135905061234a81612324565b92915050565b60006020828403121561236657612365611f08565b5b60006123748482850161233b565b91505092915050565b6004811061238e5761238d61222f565b5b50565b600081905061239f8261237d565b919050565b60006123af82612391565b9050919050565b6123bf816123a4565b82525050565b6123ce81612312565b82525050565b60006060820190506123e96000830186612198565b6123f660208301856123b6565b61240360408301846123c5565b949350505050565b600080fd5b600080fd5b61241e8161218e565b811461242957600080fd5b50565b60008135905061243b81612415565b92915050565b6000608082840312156124575761245661240b565b5b6124616080611fc3565b9050600061247184828501611f33565b60008301525060206124858482850161242c565b602083015250604082013567ffffffffffffffff8111156124a9576124a8612410565b5b6124b584828501612060565b60408301525060606124c98482850161209e565b60608301525092915050565b600080604083850312156124ec576124eb611f08565b5b600083013567ffffffffffffffff81111561250a57612509611f0d565b5b61251685828601612060565b925050602083013567ffffffffffffffff81111561253757612536611f0d565b5b61254385828601612441565b9150509250929050565b60008060006060848603121561256657612565611f08565b5b600084013567ffffffffffffffff81111561258457612583611f0d565b5b61259086828701612060565b935050602084013567ffffffffffffffff8111156125b1576125b0611f0d565b5b6125bd86828701612441565b92505060406125ce8682870161233b565b9150509250925092565b600080604083850312156125ef576125ee611f08565b5b600083013567ffffffffffffffff81111561260d5761260c611f0d565b5b61261985828601612060565b925050602061262a8582860161233b565b9150509250929050565b60006020820190506126496000830184612198565b92915050565b6126588161218e565b82525050565b612667816123a4565b82525050565b61267681612312565b82525050565b606082016000820151612692600085018261264f565b5060208201516126a5602085018261265e565b5060408201516126b8604085018261266d565b50505050565b60006060820190506126d3600083018461267c565b92915050565b6000602082840312156126ef576126ee611f08565b5b600082013567ffffffffffffffff81111561270d5761270c611f0d565b5b61271984828501612441565b91505092915050565b6000602082019050818103600083015261273c81846121f6565b905092915050565b600281106127555761275461222f565b5b50565b600081905061276682612744565b919050565b600061277682612758565b9050919050565b6127868161276b565b82525050565b61279581611f12565b82525050565b600082825260208201905092915050565b60006127b7826121a7565b6127c1818561279b565b93506127d18185602086016121c3565b6127da81611f52565b840191505092915050565b6127ee81612285565b82525050565b600060808301600083015161280c600086018261278c565b50602083015161281f602086018261264f565b506040830151848203604086015261283782826127ac565b915050606083015161284c60608601826127e5565b508091505092915050565b600060a08201905061286c600083018861217f565b818103602083015261287e81876121f6565b905061288d604083018661277d565b818103606083015261289f81856127f4565b90506128ae60808301846123c5565b9695505050505050565b60006020820190506128cd60008301846123c5565b92915050565b600080604083850312156128ea576128e9611f08565b5b60006128f885828601611f33565b92505060206129098582860161233b565b9150509250929050565b60008060006060848603121561292c5761292b611f08565b5b600061293a8682870161242c565b935050602061294b86828701611f33565b925050604061295c8682870161233b565b9150509250925092565b7f596f7520646f6e27742068617665207468652072696768747320666f7220746860008201527f6973207265736f75726365732e00000000000000000000000000000000000000602082015250565b60006129c2602d836121b2565b91506129cd82612966565b604082019050919050565b600060208201905081810360008301526129f1816129b5565b9050919050565b7f596f7520617265206e6f7420612070726f6a65637420696e69746961746f7200600082015250565b6000612a2e601f836121b2565b9150612a39826129f8565b602082019050919050565b60006020820190508181036000830152612a5d81612a21565b9050919050565b6000606082019050612a79600083018661217f565b612a866020830185612297565b612a9360408301846123c5565b949350505050565b7f4e487b7100000000000000000000000000000000000000000000000000000000600052601160045260246000fd5b6000612ad582611f12565b91507fffffffffffffffffffffffffffffffffffffffffffffffffffffffffffffffff821415612b0857612b07612a9b565b5b600182019050919050565b7f4e487b7100000000000000000000000000000000000000000000000000000000600052602260045260246000fd5b60006002820490506001821680612b5a57607f821691505b60208210811415612b6e57612b6d612b13565b5b50919050565b7f596f7520617265206e6f74206120636f6d70616e79206275696c646572000000600082015250565b6000612baa601d836121b2565b9150612bb582612b74565b602082019050919050565b60006020820190508181036000830152612bd981612b9d565b9050919050565b60006080820190508181036000830152612bfa81876121f6565b9050612c096020830186612297565b8181036040830152612c1b81856127f4565b9050612c2a60608301846123c5565b95945050505050565b7f5468652070726f6a656374206973206e6f7420617070726f7665642c2074686560008201527f206f7065726174696f6e2063616e6e6f7420626520646f6e652e000000000000602082015250565b6000612c8f603a836121b2565b9150612c9a82612c33565b604082019050919050565b60006020820190508181036000830152612cbe81612c82565b9050919050565b600060a082019050612cda600083018861217f565b612ce7602083018761277d565b8181036040830152612cf981866127f4565b9050612d086060830185612297565b612d1560808301846123c5565b9695505050505050565b600081905092915050565b6000612d35826121a7565b612d3f8185612d1f565b9350612d4f8185602086016121c3565b80840191505092915050565b60008160601b9050919050565b6000612d7382612d5b565b9050919050565b6000612d8582612d68565b9050919050565b612d9d612d9882612312565b612d7a565b82525050565b6000612daf8285612d2a565b9150612dbb8284612d8c565b6014820191508190509392505050565b7f596f7520617265206e6f7420616e206f776e6572000000000000000000000000600082015250565b6000612e016014836121b2565b9150612e0c82612dcb565b602082019050919050565b60006020820190508181036000830152612e3081612df4565b9050919050565b6000606082019050612e4c6000830186612297565b8181036020830152612e5e81856127f4565b9050612e6d60408301846123c5565b949350505050565b7f5468652070726f6a656374206973206e6f7420637265617465642c207468652060008201527f6f7065726174696f6e2063616e6e6f7420626520646f6e652e00000000000000602082015250565b6000612ed16039836121b2565b9150612edc82612e75565b604082019050919050565b60006020820190508181036000830152612f0081612ec4565b9050919050565b7f5468652070726f6a656374206973206e6f7420696e2074686520274265666f7260008201527f6546696e616c697a6174696f6e436865636b27207374617475732c207468652060208201527f6f7065726174696f6e2063616e6e6f7420626520646f6e652e00000000000000604082015250565b6000612f896059836121b2565b9150612f9482612f07565b606082019050919050565b60006020820190508181036000830152612fb881612f7c565b905091905056fea2646970667358221220dd6a8e5b6e9cbe2e4b19a13587d745fb0422861c852b6617d12aedd59d60242f64736f6c63430008090033",
  "immutableReferences": {},
  "source": "// SPDX-License-Identifier: MIT\r\npragma solidity >=0.8.0 <0.9.0;\r\n\r\nimport \"./Project.sol\";\r\n\r\ncontract CompanyBuilder is Project {\r\n\r\n    address _companyAddress;\r\n\r\n    event ApproveProjectRequestByCompany(ProjectStatus _status, S_Project _project, address _subjectAddress);\r\n    event RejectProjectRequestByCompany(string _description, ProjectStatus _status, S_Project _project, address _subjectAddress);\r\n    event BeforeFinalizationProjectRequestByCompany(ProjectStatus _status, S_Project _project, address _subjectAddress);\r\n\r\n    constructor() {\r\n        _companyAddress = msg.sender;\r\n    }\r\n\r\n    modifier onlyCompany {\r\n        require(_companyAddress == msg.sender, \"You are not a company builder\");\r\n        _;\r\n    }\r\n\r\n    // Add some contrainst / verification TOOO DOOO -> LATER\r\n\r\n    function setProjectRequestToOnGoingStatus(S_Project memory _project) public onlyCompany {\r\n        _project.projectStatus = ProjectStatus.OnGoing;\r\n        emit ApproveProjectRequestByCompany(ProjectStatus.OnGoing, _project, _companyAddress);\r\n    }\r\n\r\n    function setProjectRequestToRejectStatus(string memory _description, S_Project memory _project) public onlyCompany {\r\n        _project.projectStatus = ProjectStatus.Rejected;\r\n        emit RejectProjectRequestByCompany(_description, ProjectStatus.Rejected, _project, _companyAddress);\r\n    }\r\n\r\n    function setProjectRequestToBeforeFinalizationStatus(S_Project memory _project)  public onlyCompany {\r\n        _project.projectStatus = ProjectStatus.BeforeFinalizationCheck;\r\n        emit BeforeFinalizationProjectRequestByCompany(ProjectStatus.BeforeFinalizationCheck, _project, _companyAddress);\r\n    }\r\n}\r\n",
  "sourcePath": "/mnt/c/users/beniamin/source/repos/dissertationproject/contracts/CompanyBuilder.sol",
  "compiler": {
    "name": "solc",
    "version": "0.8.9+commit.e5eed63a.Emscripten.clang"
  },
  "schemaVersion": "3.4.3",
  "updatedAt": "2021-10-27T09:36:40.340Z",
  "devdoc": {
    "kind": "dev",
    "methods": {},
    "version": 1
  },
  "userdoc": {
    "kind": "user",
    "methods": {},
    "version": 1
  }
}