{
  "contractName": "CompanyChain",
  "abi": [
    {
      "inputs": [],
      "stateMutability": "nonpayable",
      "type": "constructor"
    },
    {
      "anonymous": false,
      "inputs": [
        {
          "indexed": false,
          "internalType": "enum ProjectChain.ProjectStatus",
          "name": "_status",
          "type": "uint8"
        },
        {
          "components": [
            {
              "internalType": "uint256",
              "name": "_index",
              "type": "uint256"
            },
            {
              "internalType": "string",
              "name": "_name",
              "type": "string"
            },
            {
              "internalType": "string",
              "name": "_description",
              "type": "string"
            },
            {
              "internalType": "enum ProjectChain.ProjectStatus",
              "name": "_status",
              "type": "uint8"
            },
            {
              "internalType": "string",
              "name": "_ipfsFileCID",
              "type": "string"
            },
            {
              "internalType": "address",
              "name": "_address",
              "type": "address"
            }
          ],
          "indexed": false,
          "internalType": "struct ProjectChain.Project",
          "name": "_project",
          "type": "tuple"
        },
        {
          "indexed": false,
          "internalType": "address",
          "name": "_subjectAddress",
          "type": "address"
        }
      ],
      "name": "ApproveProjectRequestByCompany",
      "type": "event"
    },
    {
      "anonymous": false,
      "inputs": [
        {
          "indexed": false,
          "internalType": "enum ProjectChain.ProjectStatus",
          "name": "_status",
          "type": "uint8"
        },
        {
          "components": [
            {
              "internalType": "uint256",
              "name": "_index",
              "type": "uint256"
            },
            {
              "internalType": "string",
              "name": "_name",
              "type": "string"
            },
            {
              "internalType": "string",
              "name": "_description",
              "type": "string"
            },
            {
              "internalType": "enum ProjectChain.ProjectStatus",
              "name": "_status",
              "type": "uint8"
            },
            {
              "internalType": "string",
              "name": "_ipfsFileCID",
              "type": "string"
            },
            {
              "internalType": "address",
              "name": "_address",
              "type": "address"
            }
          ],
          "indexed": false,
          "internalType": "struct ProjectChain.Project",
          "name": "_project",
          "type": "tuple"
        },
        {
          "indexed": false,
          "internalType": "address",
          "name": "_subjectAddress",
          "type": "address"
        }
      ],
      "name": "BeforeFinalizationProjectRequestByCompany",
      "type": "event"
    },
    {
      "anonymous": false,
      "inputs": [
        {
          "indexed": false,
          "internalType": "uint256",
          "name": "_index",
          "type": "uint256"
        },
        {
          "indexed": false,
          "internalType": "string",
          "name": "_name",
          "type": "string"
        },
        {
          "indexed": false,
          "internalType": "string",
          "name": "_description",
          "type": "string"
        },
        {
          "indexed": false,
          "internalType": "enum ProjectChain.ProjectStatus",
          "name": "_status",
          "type": "uint8"
        },
        {
          "indexed": false,
          "internalType": "string",
          "name": "_ipfsFileCID",
          "type": "string"
        },
        {
          "indexed": false,
          "internalType": "address",
          "name": "_address",
          "type": "address"
        }
      ],
      "name": "CreateProject",
      "type": "event"
    },
    {
      "anonymous": false,
      "inputs": [
        {
          "indexed": false,
          "internalType": "string",
          "name": "_description",
          "type": "string"
        },
        {
          "indexed": false,
          "internalType": "enum ProjectChain.ProjectStatus",
          "name": "_status",
          "type": "uint8"
        },
        {
          "components": [
            {
              "internalType": "uint256",
              "name": "_index",
              "type": "uint256"
            },
            {
              "internalType": "string",
              "name": "_name",
              "type": "string"
            },
            {
              "internalType": "string",
              "name": "_description",
              "type": "string"
            },
            {
              "internalType": "enum ProjectChain.ProjectStatus",
              "name": "_status",
              "type": "uint8"
            },
            {
              "internalType": "string",
              "name": "_ipfsFileCID",
              "type": "string"
            },
            {
              "internalType": "address",
              "name": "_address",
              "type": "address"
            }
          ],
          "indexed": false,
          "internalType": "struct ProjectChain.Project",
          "name": "_project",
          "type": "tuple"
        },
        {
          "indexed": false,
          "internalType": "address",
          "name": "_subjectAddress",
          "type": "address"
        }
      ],
      "name": "RejectProjectRequestByCompany",
      "type": "event"
    },
    {
      "anonymous": false,
      "inputs": [
        {
          "indexed": false,
          "internalType": "uint256",
          "name": "_indexRequest",
          "type": "uint256"
        },
        {
          "indexed": false,
          "internalType": "enum ProjectChain.RequestStatus",
          "name": "_status",
          "type": "uint8"
        },
        {
          "components": [
            {
              "internalType": "uint256",
              "name": "_index",
              "type": "uint256"
            },
            {
              "internalType": "string",
              "name": "_name",
              "type": "string"
            },
            {
              "internalType": "string",
              "name": "_description",
              "type": "string"
            },
            {
              "internalType": "enum ProjectChain.ProjectStatus",
              "name": "_status",
              "type": "uint8"
            },
            {
              "internalType": "string",
              "name": "_ipfsFileCID",
              "type": "string"
            },
            {
              "internalType": "address",
              "name": "_address",
              "type": "address"
            }
          ],
          "indexed": false,
          "internalType": "struct ProjectChain.Project",
          "name": "_project",
          "type": "tuple"
        },
        {
          "indexed": false,
          "internalType": "enum ProjectChain.ProjectStatus",
          "name": "_projectStatus",
          "type": "uint8"
        },
        {
          "indexed": false,
          "internalType": "address",
          "name": "_subjectAddress",
          "type": "address"
        }
      ],
      "name": "UpdateCompanyRequestStatus",
      "type": "event"
    },
    {
      "anonymous": false,
      "inputs": [
        {
          "indexed": false,
          "internalType": "uint256",
          "name": "_indexRequest",
          "type": "uint256"
        },
        {
          "indexed": false,
          "internalType": "enum ProjectChain.RequestStatus",
          "name": "_status",
          "type": "uint8"
        },
        {
          "components": [
            {
              "internalType": "uint256",
              "name": "_index",
              "type": "uint256"
            },
            {
              "internalType": "string",
              "name": "_name",
              "type": "string"
            },
            {
              "internalType": "string",
              "name": "_description",
              "type": "string"
            },
            {
              "internalType": "enum ProjectChain.ProjectStatus",
              "name": "_status",
              "type": "uint8"
            },
            {
              "internalType": "string",
              "name": "_ipfsFileCID",
              "type": "string"
            },
            {
              "internalType": "address",
              "name": "_address",
              "type": "address"
            }
          ],
          "indexed": false,
          "internalType": "struct ProjectChain.Project",
          "name": "_project",
          "type": "tuple"
        },
        {
          "indexed": false,
          "internalType": "enum ProjectChain.ProjectStatus",
          "name": "_projectStatus",
          "type": "uint8"
        },
        {
          "indexed": false,
          "internalType": "address",
          "name": "_subjectAddress",
          "type": "address"
        }
      ],
      "name": "UpdateSupervisorRequestStatus",
      "type": "event"
    },
    {
      "anonymous": false,
      "inputs": [
        {
          "indexed": false,
          "internalType": "string",
          "name": "username",
          "type": "string"
        },
        {
          "indexed": false,
          "internalType": "string",
          "name": "firstname",
          "type": "string"
        },
        {
          "indexed": false,
          "internalType": "string",
          "name": "lastname",
          "type": "string"
        },
        {
          "indexed": false,
          "internalType": "string",
          "name": "email",
          "type": "string"
        },
        {
          "indexed": false,
          "internalType": "enum UserChain.Roles",
          "name": "role",
          "type": "uint8"
        },
        {
          "indexed": false,
          "internalType": "address",
          "name": "walletAddress",
          "type": "address"
        }
      ],
      "name": "UserChanges",
      "type": "event"
    },
    {
      "anonymous": false,
      "inputs": [
        {
          "indexed": true,
          "internalType": "address",
          "name": "_walletAddress",
          "type": "address"
        },
        {
          "indexed": true,
          "internalType": "string",
          "name": "_username",
          "type": "string"
        },
        {
          "indexed": false,
          "internalType": "string",
          "name": "_email",
          "type": "string"
        },
        {
          "indexed": false,
          "internalType": "string",
          "name": "_firstname",
          "type": "string"
        },
        {
          "indexed": false,
          "internalType": "string",
          "name": "_lastname",
          "type": "string"
        },
        {
          "indexed": true,
          "internalType": "enum UserChain.Roles",
          "name": "_role",
          "type": "uint8"
        }
      ],
      "name": "UserRegistered",
      "type": "event"
    },
    {
      "inputs": [
        {
          "internalType": "uint256",
          "name": "",
          "type": "uint256"
        }
      ],
      "name": "allProjects",
      "outputs": [
        {
          "internalType": "uint256",
          "name": "_index",
          "type": "uint256"
        },
        {
          "internalType": "string",
          "name": "_name",
          "type": "string"
        },
        {
          "internalType": "string",
          "name": "_description",
          "type": "string"
        },
        {
          "internalType": "enum ProjectChain.ProjectStatus",
          "name": "_status",
          "type": "uint8"
        },
        {
          "internalType": "string",
          "name": "_ipfsFileCID",
          "type": "string"
        },
        {
          "internalType": "address",
          "name": "_address",
          "type": "address"
        }
      ],
      "stateMutability": "view",
      "type": "function"
    },
    {
      "inputs": [
        {
          "internalType": "uint256",
          "name": "",
          "type": "uint256"
        }
      ],
      "name": "allUsers",
      "outputs": [
        {
          "internalType": "string",
          "name": "username",
          "type": "string"
        },
        {
          "internalType": "string",
          "name": "email",
          "type": "string"
        },
        {
          "internalType": "string",
          "name": "firstname",
          "type": "string"
        },
        {
          "internalType": "string",
          "name": "lastname",
          "type": "string"
        },
        {
          "internalType": "enum UserChain.Roles",
          "name": "role",
          "type": "uint8"
        },
        {
          "internalType": "address",
          "name": "walletAddress",
          "type": "address"
        }
      ],
      "stateMutability": "view",
      "type": "function"
    },
    {
      "inputs": [
        {
          "internalType": "uint256",
          "name": "_role",
          "type": "uint256"
        },
        {
          "internalType": "address",
          "name": "_walletAddress",
          "type": "address"
        }
      ],
      "name": "changeUserRole",
      "outputs": [],
      "stateMutability": "nonpayable",
      "type": "function"
    },
    {
      "inputs": [
        {
          "internalType": "uint256",
          "name": "",
          "type": "uint256"
        }
      ],
      "name": "companyRequests",
      "outputs": [
        {
          "internalType": "uint256",
          "name": "index",
          "type": "uint256"
        },
        {
          "internalType": "string",
          "name": "description",
          "type": "string"
        },
        {
          "internalType": "enum ProjectChain.RequestStatus",
          "name": "status",
          "type": "uint8"
        },
        {
          "components": [
            {
              "internalType": "uint256",
              "name": "_index",
              "type": "uint256"
            },
            {
              "internalType": "string",
              "name": "_name",
              "type": "string"
            },
            {
              "internalType": "string",
              "name": "_description",
              "type": "string"
            },
            {
              "internalType": "enum ProjectChain.ProjectStatus",
              "name": "_status",
              "type": "uint8"
            },
            {
              "internalType": "string",
              "name": "_ipfsFileCID",
              "type": "string"
            },
            {
              "internalType": "address",
              "name": "_address",
              "type": "address"
            }
          ],
          "internalType": "struct ProjectChain.Project",
          "name": "project",
          "type": "tuple"
        },
        {
          "internalType": "address",
          "name": "subjectAddress",
          "type": "address"
        }
      ],
      "stateMutability": "view",
      "type": "function"
    },
    {
      "inputs": [
        {
          "internalType": "string",
          "name": "_name",
          "type": "string"
        },
        {
          "internalType": "string",
          "name": "_description",
          "type": "string"
        },
        {
          "internalType": "uint256",
          "name": "_status",
          "type": "uint256"
        },
        {
          "internalType": "string",
          "name": "_ipfsFileCID",
          "type": "string"
        }
      ],
      "name": "createProject",
      "outputs": [],
      "stateMutability": "nonpayable",
      "type": "function"
    },
    {
      "inputs": [
        {
          "internalType": "string",
          "name": "_text",
          "type": "string"
        },
        {
          "internalType": "address",
          "name": "_addr",
          "type": "address"
        }
      ],
      "name": "createUniqueHexAddress",
      "outputs": [
        {
          "internalType": "address",
          "name": "",
          "type": "address"
        }
      ],
      "stateMutability": "view",
      "type": "function"
    },
    {
      "inputs": [
        {
          "internalType": "string",
          "name": "_text",
          "type": "string"
        },
        {
          "internalType": "address",
          "name": "_addr",
          "type": "address"
        }
      ],
      "name": "createUniqueIdentifier",
      "outputs": [
        {
          "internalType": "bytes32",
          "name": "",
          "type": "bytes32"
        }
      ],
      "stateMutability": "pure",
      "type": "function"
    },
    {
      "inputs": [],
      "name": "getAllProjects",
      "outputs": [
        {
          "components": [
            {
              "internalType": "uint256",
              "name": "_index",
              "type": "uint256"
            },
            {
              "internalType": "string",
              "name": "_name",
              "type": "string"
            },
            {
              "internalType": "string",
              "name": "_description",
              "type": "string"
            },
            {
              "internalType": "enum ProjectChain.ProjectStatus",
              "name": "_status",
              "type": "uint8"
            },
            {
              "internalType": "string",
              "name": "_ipfsFileCID",
              "type": "string"
            },
            {
              "internalType": "address",
              "name": "_address",
              "type": "address"
            }
          ],
          "internalType": "struct ProjectChain.Project[]",
          "name": "",
          "type": "tuple[]"
        }
      ],
      "stateMutability": "view",
      "type": "function"
    },
    {
      "inputs": [],
      "name": "getAllUsers",
      "outputs": [
        {
          "components": [
            {
              "internalType": "string",
              "name": "username",
              "type": "string"
            },
            {
              "internalType": "string",
              "name": "email",
              "type": "string"
            },
            {
              "internalType": "string",
              "name": "firstname",
              "type": "string"
            },
            {
              "internalType": "string",
              "name": "lastname",
              "type": "string"
            },
            {
              "internalType": "enum UserChain.Roles",
              "name": "role",
              "type": "uint8"
            },
            {
              "internalType": "address",
              "name": "walletAddress",
              "type": "address"
            }
          ],
          "internalType": "struct UserChain.S_UserData[]",
          "name": "",
          "type": "tuple[]"
        }
      ],
      "stateMutability": "view",
      "type": "function"
    },
    {
      "inputs": [
        {
          "internalType": "address",
          "name": "_address",
          "type": "address"
        }
      ],
      "name": "getProjectInfo",
      "outputs": [
        {
          "components": [
            {
              "internalType": "uint256",
              "name": "_index",
              "type": "uint256"
            },
            {
              "internalType": "string",
              "name": "_name",
              "type": "string"
            },
            {
              "internalType": "string",
              "name": "_description",
              "type": "string"
            },
            {
              "internalType": "enum ProjectChain.ProjectStatus",
              "name": "_status",
              "type": "uint8"
            },
            {
              "internalType": "string",
              "name": "_ipfsFileCID",
              "type": "string"
            },
            {
              "internalType": "address",
              "name": "_address",
              "type": "address"
            }
          ],
          "internalType": "struct ProjectChain.Project",
          "name": "",
          "type": "tuple"
        }
      ],
      "stateMutability": "view",
      "type": "function"
    },
    {
      "inputs": [
        {
          "internalType": "address",
          "name": "_address",
          "type": "address"
        }
      ],
      "name": "getUserInfo",
      "outputs": [
        {
          "components": [
            {
              "internalType": "string",
              "name": "username",
              "type": "string"
            },
            {
              "internalType": "string",
              "name": "email",
              "type": "string"
            },
            {
              "internalType": "string",
              "name": "firstname",
              "type": "string"
            },
            {
              "internalType": "string",
              "name": "lastname",
              "type": "string"
            },
            {
              "internalType": "enum UserChain.Roles",
              "name": "role",
              "type": "uint8"
            },
            {
              "internalType": "address",
              "name": "walletAddress",
              "type": "address"
            }
          ],
          "internalType": "struct UserChain.S_UserData",
          "name": "",
          "type": "tuple"
        }
      ],
      "stateMutability": "view",
      "type": "function"
    },
    {
      "inputs": [],
      "name": "owner",
      "outputs": [
        {
          "internalType": "address",
          "name": "",
          "type": "address"
        }
      ],
      "stateMutability": "view",
      "type": "function"
    },
    {
      "inputs": [
        {
          "internalType": "address",
          "name": "",
          "type": "address"
        }
      ],
      "name": "projects",
      "outputs": [
        {
          "internalType": "uint256",
          "name": "_index",
          "type": "uint256"
        },
        {
          "internalType": "string",
          "name": "_name",
          "type": "string"
        },
        {
          "internalType": "string",
          "name": "_description",
          "type": "string"
        },
        {
          "internalType": "enum ProjectChain.ProjectStatus",
          "name": "_status",
          "type": "uint8"
        },
        {
          "internalType": "string",
          "name": "_ipfsFileCID",
          "type": "string"
        },
        {
          "internalType": "address",
          "name": "_address",
          "type": "address"
        }
      ],
      "stateMutability": "view",
      "type": "function"
    },
    {
      "inputs": [],
      "name": "projectsCounter",
      "outputs": [
        {
          "internalType": "uint256",
          "name": "",
          "type": "uint256"
        }
      ],
      "stateMutability": "view",
      "type": "function"
    },
    {
      "inputs": [
        {
          "internalType": "string",
          "name": "_username",
          "type": "string"
        },
        {
          "internalType": "string",
          "name": "_email",
          "type": "string"
        },
        {
          "internalType": "string",
          "name": "_firstname",
          "type": "string"
        },
        {
          "internalType": "string",
          "name": "_lastname",
          "type": "string"
        },
        {
          "internalType": "uint256",
          "name": "_role",
          "type": "uint256"
        },
        {
          "internalType": "address",
          "name": "_walletAddress",
          "type": "address"
        }
      ],
      "name": "registerUser",
      "outputs": [],
      "stateMutability": "nonpayable",
      "type": "function"
    },
    {
      "inputs": [
        {
          "internalType": "string",
          "name": "_description",
          "type": "string"
        },
        {
          "components": [
            {
              "internalType": "uint256",
              "name": "_index",
              "type": "uint256"
            },
            {
              "internalType": "string",
              "name": "_name",
              "type": "string"
            },
            {
              "internalType": "string",
              "name": "_description",
              "type": "string"
            },
            {
              "internalType": "enum ProjectChain.ProjectStatus",
              "name": "_status",
              "type": "uint8"
            },
            {
              "internalType": "string",
              "name": "_ipfsFileCID",
              "type": "string"
            },
            {
              "internalType": "address",
              "name": "_address",
              "type": "address"
            }
          ],
          "internalType": "struct ProjectChain.Project",
          "name": "_project",
          "type": "tuple"
        },
        {
          "internalType": "address",
          "name": "_subjectAddress",
          "type": "address"
        }
      ],
      "name": "requestProjectApprovalFromSupervisor",
      "outputs": [],
      "stateMutability": "nonpayable",
      "type": "function"
    },
    {
      "inputs": [
        {
          "internalType": "string",
          "name": "_description",
          "type": "string"
        },
        {
          "components": [
            {
              "internalType": "uint256",
              "name": "_index",
              "type": "uint256"
            },
            {
              "internalType": "string",
              "name": "_name",
              "type": "string"
            },
            {
              "internalType": "string",
              "name": "_description",
              "type": "string"
            },
            {
              "internalType": "enum ProjectChain.ProjectStatus",
              "name": "_status",
              "type": "uint8"
            },
            {
              "internalType": "string",
              "name": "_ipfsFileCID",
              "type": "string"
            },
            {
              "internalType": "address",
              "name": "_address",
              "type": "address"
            }
          ],
          "internalType": "struct ProjectChain.Project",
          "name": "_project",
          "type": "tuple"
        },
        {
          "internalType": "address",
          "name": "_subjectAddress",
          "type": "address"
        }
      ],
      "name": "requestProjectCompleteFromSupervisor",
      "outputs": [],
      "stateMutability": "nonpayable",
      "type": "function"
    },
    {
      "inputs": [
        {
          "internalType": "string",
          "name": "_description",
          "type": "string"
        },
        {
          "components": [
            {
              "internalType": "uint256",
              "name": "_index",
              "type": "uint256"
            },
            {
              "internalType": "string",
              "name": "_name",
              "type": "string"
            },
            {
              "internalType": "string",
              "name": "_description",
              "type": "string"
            },
            {
              "internalType": "enum ProjectChain.ProjectStatus",
              "name": "_status",
              "type": "uint8"
            },
            {
              "internalType": "string",
              "name": "_ipfsFileCID",
              "type": "string"
            },
            {
              "internalType": "address",
              "name": "_address",
              "type": "address"
            }
          ],
          "internalType": "struct ProjectChain.Project",
          "name": "_project",
          "type": "tuple"
        },
        {
          "internalType": "address",
          "name": "_subjectAddress",
          "type": "address"
        }
      ],
      "name": "requestStartProjectToCompanyBuilder",
      "outputs": [],
      "stateMutability": "nonpayable",
      "type": "function"
    },
    {
      "inputs": [
        {
          "internalType": "uint256",
          "name": "",
          "type": "uint256"
        }
      ],
      "name": "supervisorRequests",
      "outputs": [
        {
          "internalType": "uint256",
          "name": "index",
          "type": "uint256"
        },
        {
          "internalType": "string",
          "name": "description",
          "type": "string"
        },
        {
          "internalType": "enum ProjectChain.RequestStatus",
          "name": "status",
          "type": "uint8"
        },
        {
          "components": [
            {
              "internalType": "uint256",
              "name": "_index",
              "type": "uint256"
            },
            {
              "internalType": "string",
              "name": "_name",
              "type": "string"
            },
            {
              "internalType": "string",
              "name": "_description",
              "type": "string"
            },
            {
              "internalType": "enum ProjectChain.ProjectStatus",
              "name": "_status",
              "type": "uint8"
            },
            {
              "internalType": "string",
              "name": "_ipfsFileCID",
              "type": "string"
            },
            {
              "internalType": "address",
              "name": "_address",
              "type": "address"
            }
          ],
          "internalType": "struct ProjectChain.Project",
          "name": "project",
          "type": "tuple"
        },
        {
          "internalType": "address",
          "name": "subjectAddress",
          "type": "address"
        }
      ],
      "stateMutability": "view",
      "type": "function"
    },
    {
      "inputs": [
        {
          "internalType": "address",
          "name": "",
          "type": "address"
        }
      ],
      "name": "userInfo",
      "outputs": [
        {
          "internalType": "string",
          "name": "username",
          "type": "string"
        },
        {
          "internalType": "string",
          "name": "email",
          "type": "string"
        },
        {
          "internalType": "string",
          "name": "firstname",
          "type": "string"
        },
        {
          "internalType": "string",
          "name": "lastname",
          "type": "string"
        },
        {
          "internalType": "enum UserChain.Roles",
          "name": "role",
          "type": "uint8"
        },
        {
          "internalType": "address",
          "name": "walletAddress",
          "type": "address"
        }
      ],
      "stateMutability": "view",
      "type": "function"
    },
    {
      "inputs": [],
      "name": "usersCount",
      "outputs": [
        {
          "internalType": "uint256",
          "name": "",
          "type": "uint256"
        }
      ],
      "stateMutability": "view",
      "type": "function"
    },
    {
      "inputs": [
        {
          "components": [
            {
              "internalType": "uint256",
              "name": "_index",
              "type": "uint256"
            },
            {
              "internalType": "string",
              "name": "_name",
              "type": "string"
            },
            {
              "internalType": "string",
              "name": "_description",
              "type": "string"
            },
            {
              "internalType": "enum ProjectChain.ProjectStatus",
              "name": "_status",
              "type": "uint8"
            },
            {
              "internalType": "string",
              "name": "_ipfsFileCID",
              "type": "string"
            },
            {
              "internalType": "address",
              "name": "_address",
              "type": "address"
            }
          ],
          "internalType": "struct ProjectChain.Project",
          "name": "_project",
          "type": "tuple"
        }
      ],
      "name": "setProjectRequestToOnGoingStatus",
      "outputs": [],
      "stateMutability": "nonpayable",
      "type": "function"
    },
    {
      "inputs": [
        {
          "internalType": "string",
          "name": "_description",
          "type": "string"
        },
        {
          "components": [
            {
              "internalType": "uint256",
              "name": "_index",
              "type": "uint256"
            },
            {
              "internalType": "string",
              "name": "_name",
              "type": "string"
            },
            {
              "internalType": "string",
              "name": "_description",
              "type": "string"
            },
            {
              "internalType": "enum ProjectChain.ProjectStatus",
              "name": "_status",
              "type": "uint8"
            },
            {
              "internalType": "string",
              "name": "_ipfsFileCID",
              "type": "string"
            },
            {
              "internalType": "address",
              "name": "_address",
              "type": "address"
            }
          ],
          "internalType": "struct ProjectChain.Project",
          "name": "_project",
          "type": "tuple"
        }
      ],
      "name": "setProjectRequestToRejectStatus",
      "outputs": [],
      "stateMutability": "nonpayable",
      "type": "function"
    },
    {
      "inputs": [
        {
          "components": [
            {
              "internalType": "uint256",
              "name": "_index",
              "type": "uint256"
            },
            {
              "internalType": "string",
              "name": "_name",
              "type": "string"
            },
            {
              "internalType": "string",
              "name": "_description",
              "type": "string"
            },
            {
              "internalType": "enum ProjectChain.ProjectStatus",
              "name": "_status",
              "type": "uint8"
            },
            {
              "internalType": "string",
              "name": "_ipfsFileCID",
              "type": "string"
            },
            {
              "internalType": "address",
              "name": "_address",
              "type": "address"
            }
          ],
          "internalType": "struct ProjectChain.Project",
          "name": "_project",
          "type": "tuple"
        }
      ],
      "name": "setProjectRequestToBeforeFinalizationStatus",
      "outputs": [],
      "stateMutability": "nonpayable",
      "type": "function"
    }
  ],
  "bytecode": "0x60806040526000600255600060065534801561001a57600080fd5b5033600160006101000a81548173ffffffffffffffffffffffffffffffffffffffff021916908373ffffffffffffffffffffffffffffffffffffffff16021790555033600460006101000a81548173ffffffffffffffffffffffffffffffffffffffff021916908373ffffffffffffffffffffffffffffffffffffffff16021790555033600c60006101000a81548173ffffffffffffffffffffffffffffffffffffffff021916908373ffffffffffffffffffffffffffffffffffffffff160217905550614d9b806100ed6000396000f3fe608060405234801561001057600080fd5b50600436106101585760003560e01c8063840e78fd116100c3578063a2bdedf41161007c578063a2bdedf41461040e578063cdc180cb14610443578063d3e7f4e81461045f578063d40d4a801461047b578063e2842d79146104af578063fe360ea5146104cd57610158565b8063840e78fd146103335780638c86a1d7146103685780638da5cb5b1461039c57806391009786146103ba578063911c29a6146103d65780639d927205146103f257610158565b806353b3194c1161011557806353b3194c146102465780636132844f1461027b5780636386c1c7146102ab5780636ba13a82146102db57806380d03829146102f957806383f87c0d1461031757610158565b8063048c3a2e1461015d578063130868b41461017957806313b4078f146101955780631959a002146101c557806346575714146101fa57806347ee45b914610216575b600080fd5b61017760048036038101906101729190613af4565b6104eb565b005b610193600480360381019061018e9190613b7f565b61073c565b005b6101af60048036038101906101aa9190613bc8565b61085e565b6040516101bc9190613c33565b60405180910390f35b6101df60048036038101906101da9190613c4e565b610896565b6040516101f196959493929190613d7a565b60405180910390f35b610214600480360381019061020f9190613df7565b610b1f565b005b610230600480360381019061022b9190613c4e565b610fb1565b60405161023d9190613ff9565b60405180910390f35b610260600480360381019061025b919061401b565b61125b565b60405161027296959493929190614066565b60405180910390f35b61029560048036038101906102909190613bc8565b61146c565b6040516102a291906140f5565b60405180910390f35b6102c560048036038101906102c09190613c4e565b61149f565b6040516102d291906141bd565b60405180910390f35b6102e36117d0565b6040516102f091906141df565b60405180910390f35b6103016117d6565b60405161030e9190614353565b60405180910390f35b610331600480360381019061032c9190613af4565b611a86565b005b61034d60048036038101906103489190613c4e565b611cd7565b60405161035f96959493929190614066565b60405180910390f35b610382600480360381019061037d919061401b565b611ed8565b6040516103939594939291906143bd565b60405180910390f35b6103a461221e565b6040516103b19190613c33565b60405180910390f35b6103d460048036038101906103cf919061441e565b612244565b005b6103f060048036038101906103eb919061445e565b6123c0565b005b61040c6004803603810190610407919061455b565b6128cf565b005b6104286004803603810190610423919061401b565b6129f4565b60405161043a96959493929190613d7a565b60405180910390f35b61045d60048036038101906104589190613b7f565b612c8d565b005b61047960048036038101906104749190613af4565b612daf565b005b6104956004803603810190610490919061401b565b613000565b6040516104a69594939291906143bd565b60405180910390f35b6104b7613346565b6040516104c49190614733565b60405180910390f35b6104d561367e565b6040516104e291906141df565b60405180910390f35b600460058111156104ff576104fe613d03565b5b8260600151600581111561051657610515613d03565b5b14610556576040517f08c379a000000000000000000000000000000000000000000000000000000000815260040161054d906147ed565b60405180910390fd5b600060096000600b548152602001908152602001600020905083816001019080519060200190610587929190613684565b5060008160020160006101000a81548160ff021916908360018111156105b0576105af613d03565b5b021790555082816003016000820151816000015560208201518160010190805190602001906105e0929190613684565b5060408201518160020190805190602001906105fd929190613684565b5060608201518160030160006101000a81548160ff0219169083600581111561062957610628613d03565b5b0217905550608082015181600401908051906020019061064a929190613684565b5060a08201518160050160006101000a81548173ffffffffffffffffffffffffffffffffffffffff021916908373ffffffffffffffffffffffffffffffffffffffff160217905550905050818160090160006101000a81548173ffffffffffffffffffffffffffffffffffffffff021916908373ffffffffffffffffffffffffffffffffffffffff1602179055507f48d2c722e86622dfab313859655df596660f6f83e7b5ee428d6c019e161fa56a600b5460008586606001518660405161071695949392919061480d565b60405180910390a1600b600081548092919061073190614896565b919050555050505050565b3373ffffffffffffffffffffffffffffffffffffffff16600c60009054906101000a900473ffffffffffffffffffffffffffffffffffffffff1673ffffffffffffffffffffffffffffffffffffffff16146107cc576040517f08c379a00000000000000000000000000000000000000000000000000000000081526004016107c39061492b565b60405180910390fd5b6004816060019060058111156107e5576107e4613d03565b5b908160058111156107f9576107f8613d03565b5b815250507fa837a6ad3b749a03376fbde35c5aabb54260b713ab3bac0e7b6e9bd8af3efe51600482600c60009054906101000a900473ffffffffffffffffffffffffffffffffffffffff166040516108539392919061494b565b60405180910390a150565b600082824260405160200161087593929190614a2e565b6040516020818303038152906040528051906020012060001c905092915050565b60006020528060005260406000206000915090508060000180546108b990614a96565b80601f01602080910402602001604051908101604052809291908181526020018280546108e590614a96565b80156109325780601f1061090757610100808354040283529160200191610932565b820191906000526020600020905b81548152906001019060200180831161091557829003601f168201915b50505050509080600101805461094790614a96565b80601f016020809104026020016040519081016040528092919081815260200182805461097390614a96565b80156109c05780601f10610995576101008083540402835291602001916109c0565b820191906000526020600020905b8154815290600101906020018083116109a357829003601f168201915b5050505050908060020180546109d590614a96565b80601f0160208091040260200160405190810160405280929190818152602001828054610a0190614a96565b8015610a4e5780601f10610a2357610100808354040283529160200191610a4e565b820191906000526020600020905b815481529060010190602001808311610a3157829003601f168201915b505050505090806003018054610a6390614a96565b80601f0160208091040260200160405190810160405280929190818152602001828054610a8f90614a96565b8015610adc5780601f10610ab157610100808354040283529160200191610adc565b820191906000526020600020905b815481529060010190602001808311610abf57829003601f168201915b5050505050908060040160009054906101000a900460ff16908060040160019054906101000a900473ffffffffffffffffffffffffffffffffffffffff16905086565b6000610b826040518060400160405280601a81526020017f6373643f534073616c61733b646c413233345f442e3b735f6173000000000000815250600460009054906101000a900473ffffffffffffffffffffffffffffffffffffffff1661085e565b9050600654600560008373ffffffffffffffffffffffffffffffffffffffff1673ffffffffffffffffffffffffffffffffffffffff1681526020019081526020016000206000018190555084600560008373ffffffffffffffffffffffffffffffffffffffff1673ffffffffffffffffffffffffffffffffffffffff1681526020019081526020016000206001019080519060200190610c23929190613684565b5083600560008373ffffffffffffffffffffffffffffffffffffffff1673ffffffffffffffffffffffffffffffffffffffff1681526020019081526020016000206002019080519060200190610c7a929190613684565b50826005811115610c8e57610c8d613d03565b5b600560008373ffffffffffffffffffffffffffffffffffffffff1673ffffffffffffffffffffffffffffffffffffffff16815260200190815260200160002060030160006101000a81548160ff02191690836005811115610cf257610cf1613d03565b5b021790555081600560008373ffffffffffffffffffffffffffffffffffffffff1673ffffffffffffffffffffffffffffffffffffffff1681526020019081526020016000206004019080519060200190610d4d929190613684565b5080600560008373ffffffffffffffffffffffffffffffffffffffff1673ffffffffffffffffffffffffffffffffffffffff16815260200190815260200160002060050160006101000a81548173ffffffffffffffffffffffffffffffffffffffff021916908373ffffffffffffffffffffffffffffffffffffffff1602179055507f26cf3e2385bf59fc4a84bd544581b8beea8ce32fe45f441759ce9212b52949286006548686866005811115610e0857610e07613d03565b5b8686604051610e1c96959493929190614066565b60405180910390a160076040518060c001604052806006548152602001878152602001868152602001856005811115610e5857610e57613d03565b5b6005811115610e6a57610e69613d03565b5b81526020018481526020018373ffffffffffffffffffffffffffffffffffffffff168152509080600181540180825580915050600190039060005260206000209060060201600090919091909150600082015181600001556020820151816001019080519060200190610ede929190613684565b506040820151816002019080519060200190610efb929190613684565b5060608201518160030160006101000a81548160ff02191690836005811115610f2757610f26613d03565b5b02179055506080820151816004019080519060200190610f48929190613684565b5060a08201518160050160006101000a81548173ffffffffffffffffffffffffffffffffffffffff021916908373ffffffffffffffffffffffffffffffffffffffff160217905550505060066000815480929190610fa590614896565b91905055505050505050565b610fb961370a565b600560008373ffffffffffffffffffffffffffffffffffffffff1673ffffffffffffffffffffffffffffffffffffffff1681526020019081526020016000206040518060c00160405290816000820154815260200160018201805461101d90614a96565b80601f016020809104026020016040519081016040528092919081815260200182805461104990614a96565b80156110965780601f1061106b57610100808354040283529160200191611096565b820191906000526020600020905b81548152906001019060200180831161107957829003601f168201915b505050505081526020016002820180546110af90614a96565b80601f01602080910402602001604051908101604052809291908181526020018280546110db90614a96565b80156111285780601f106110fd57610100808354040283529160200191611128565b820191906000526020600020905b81548152906001019060200180831161110b57829003601f168201915b505050505081526020016003820160009054906101000a900460ff16600581111561115657611155613d03565b5b600581111561116857611167613d03565b5b815260200160048201805461117c90614a96565b80601f01602080910402602001604051908101604052809291908181526020018280546111a890614a96565b80156111f55780601f106111ca576101008083540402835291602001916111f5565b820191906000526020600020905b8154815290600101906020018083116111d857829003601f168201915b505050505081526020016005820160009054906101000a900473ffffffffffffffffffffffffffffffffffffffff1673ffffffffffffffffffffffffffffffffffffffff1673ffffffffffffffffffffffffffffffffffffffff16815250509050919050565b6007818154811061126b57600080fd5b906000526020600020906006020160009150905080600001549080600101805461129490614a96565b80601f01602080910402602001604051908101604052809291908181526020018280546112c090614a96565b801561130d5780601f106112e25761010080835404028352916020019161130d565b820191906000526020600020905b8154815290600101906020018083116112f057829003601f168201915b50505050509080600201805461132290614a96565b80601f016020809104026020016040519081016040528092919081815260200182805461134e90614a96565b801561139b5780601f106113705761010080835404028352916020019161139b565b820191906000526020600020905b81548152906001019060200180831161137e57829003601f168201915b5050505050908060030160009054906101000a900460ff16908060040180546113c390614a96565b80601f01602080910402602001604051908101604052809291908181526020018280546113ef90614a96565b801561143c5780601f106114115761010080835404028352916020019161143c565b820191906000526020600020905b81548152906001019060200180831161141f57829003601f168201915b5050505050908060050160009054906101000a900473ffffffffffffffffffffffffffffffffffffffff16905086565b60008282604051602001611481929190614ac8565b60405160208183030381529060405280519060200120905092915050565b6114a7613768565b6000808373ffffffffffffffffffffffffffffffffffffffff1673ffffffffffffffffffffffffffffffffffffffff1681526020019081526020016000206040518060c001604052908160008201805461150090614a96565b80601f016020809104026020016040519081016040528092919081815260200182805461152c90614a96565b80156115795780601f1061154e57610100808354040283529160200191611579565b820191906000526020600020905b81548152906001019060200180831161155c57829003601f168201915b5050505050815260200160018201805461159290614a96565b80601f01602080910402602001604051908101604052809291908181526020018280546115be90614a96565b801561160b5780601f106115e05761010080835404028352916020019161160b565b820191906000526020600020905b8154815290600101906020018083116115ee57829003601f168201915b5050505050815260200160028201805461162490614a96565b80601f016020809104026020016040519081016040528092919081815260200182805461165090614a96565b801561169d5780601f106116725761010080835404028352916020019161169d565b820191906000526020600020905b81548152906001019060200180831161168057829003601f168201915b505050505081526020016003820180546116b690614a96565b80601f01602080910402602001604051908101604052809291908181526020018280546116e290614a96565b801561172f5780601f106117045761010080835404028352916020019161172f565b820191906000526020600020905b81548152906001019060200180831161171257829003601f168201915b505050505081526020016004820160009054906101000a900460ff16600381111561175d5761175c613d03565b5b600381111561176f5761176e613d03565b5b81526020016004820160019054906101000a900473ffffffffffffffffffffffffffffffffffffffff1673ffffffffffffffffffffffffffffffffffffffff1673ffffffffffffffffffffffffffffffffffffffff16815250509050919050565b60025481565b60606007805480602002602001604051908101604052809291908181526020016000905b82821015611a7d57838290600052602060002090600602016040518060c00160405290816000820154815260200160018201805461183790614a96565b80601f016020809104026020016040519081016040528092919081815260200182805461186390614a96565b80156118b05780601f10611885576101008083540402835291602001916118b0565b820191906000526020600020905b81548152906001019060200180831161189357829003601f168201915b505050505081526020016002820180546118c990614a96565b80601f01602080910402602001604051908101604052809291908181526020018280546118f590614a96565b80156119425780601f1061191757610100808354040283529160200191611942565b820191906000526020600020905b81548152906001019060200180831161192557829003601f168201915b505050505081526020016003820160009054906101000a900460ff1660058111156119705761196f613d03565b5b600581111561198257611981613d03565b5b815260200160048201805461199690614a96565b80601f01602080910402602001604051908101604052809291908181526020018280546119c290614a96565b8015611a0f5780601f106119e457610100808354040283529160200191611a0f565b820191906000526020600020905b8154815290600101906020018083116119f257829003601f168201915b505050505081526020016005820160009054906101000a900473ffffffffffffffffffffffffffffffffffffffff1673ffffffffffffffffffffffffffffffffffffffff1673ffffffffffffffffffffffffffffffffffffffff1681525050815260200190600101906117fa565b50505050905090565b60006005811115611a9a57611a99613d03565b5b82606001516005811115611ab157611ab0613d03565b5b14611af1576040517f08c379a0000000000000000000000000000000000000000000000000000000008152600401611ae890614b62565b60405180910390fd5b600060096000600b548152602001908152602001600020905083816001019080519060200190611b22929190613684565b5060008160020160006101000a81548160ff02191690836001811115611b4b57611b4a613d03565b5b02179055508281600301600082015181600001556020820151816001019080519060200190611b7b929190613684565b506040820151816002019080519060200190611b98929190613684565b5060608201518160030160006101000a81548160ff02191690836005811115611bc457611bc3613d03565b5b02179055506080820151816004019080519060200190611be5929190613684565b5060a08201518160050160006101000a81548173ffffffffffffffffffffffffffffffffffffffff021916908373ffffffffffffffffffffffffffffffffffffffff160217905550905050818160090160006101000a81548173ffffffffffffffffffffffffffffffffffffffff021916908373ffffffffffffffffffffffffffffffffffffffff1602179055507f48d2c722e86622dfab313859655df596660f6f83e7b5ee428d6c019e161fa56a600b54600085866060015186604051611cb195949392919061480d565b60405180910390a1600b6000815480929190611ccc90614896565b919050555050505050565b6005602052806000526040600020600091509050806000015490806001018054611d0090614a96565b80601f0160208091040260200160405190810160405280929190818152602001828054611d2c90614a96565b8015611d795780601f10611d4e57610100808354040283529160200191611d79565b820191906000526020600020905b815481529060010190602001808311611d5c57829003601f168201915b505050505090806002018054611d8e90614a96565b80601f0160208091040260200160405190810160405280929190818152602001828054611dba90614a96565b8015611e075780601f10611ddc57610100808354040283529160200191611e07565b820191906000526020600020905b815481529060010190602001808311611dea57829003601f168201915b5050505050908060030160009054906101000a900460ff1690806004018054611e2f90614a96565b80601f0160208091040260200160405190810160405280929190818152602001828054611e5b90614a96565b8015611ea85780601f10611e7d57610100808354040283529160200191611ea8565b820191906000526020600020905b815481529060010190602001808311611e8b57829003601f168201915b5050505050908060050160009054906101000a900473ffffffffffffffffffffffffffffffffffffffff16905086565b6009602052806000526040600020600091509050806000015490806001018054611f0190614a96565b80601f0160208091040260200160405190810160405280929190818152602001828054611f2d90614a96565b8015611f7a5780601f10611f4f57610100808354040283529160200191611f7a565b820191906000526020600020905b815481529060010190602001808311611f5d57829003601f168201915b5050505050908060020160009054906101000a900460ff1690806003016040518060c001604052908160008201548152602001600182018054611fbc90614a96565b80601f0160208091040260200160405190810160405280929190818152602001828054611fe890614a96565b80156120355780601f1061200a57610100808354040283529160200191612035565b820191906000526020600020905b81548152906001019060200180831161201857829003601f168201915b5050505050815260200160028201805461204e90614a96565b80601f016020809104026020016040519081016040528092919081815260200182805461207a90614a96565b80156120c75780601f1061209c576101008083540402835291602001916120c7565b820191906000526020600020905b8154815290600101906020018083116120aa57829003601f168201915b505050505081526020016003820160009054906101000a900460ff1660058111156120f5576120f4613d03565b5b600581111561210757612106613d03565b5b815260200160048201805461211b90614a96565b80601f016020809104026020016040519081016040528092919081815260200182805461214790614a96565b80156121945780601f1061216957610100808354040283529160200191612194565b820191906000526020600020905b81548152906001019060200180831161217757829003601f168201915b505050505081526020016005820160009054906101000a900473ffffffffffffffffffffffffffffffffffffffff1673ffffffffffffffffffffffffffffffffffffffff1673ffffffffffffffffffffffffffffffffffffffff1681525050908060090160009054906101000a900473ffffffffffffffffffffffffffffffffffffffff16905085565b600160009054906101000a900473ffffffffffffffffffffffffffffffffffffffff1681565b81600381111561225757612256613d03565b5b6000808373ffffffffffffffffffffffffffffffffffffffff1673ffffffffffffffffffffffffffffffffffffffff16815260200190815260200160002060040160006101000a81548160ff021916908360038111156122ba576122b9613d03565b5b021790555060005b6003805490508110156123bb578173ffffffffffffffffffffffffffffffffffffffff16600382815481106122fa576122f9614b82565b5b906000526020600020906005020160040160019054906101000a900473ffffffffffffffffffffffffffffffffffffffff1673ffffffffffffffffffffffffffffffffffffffff1614156123a85782600381111561235b5761235a613d03565b5b6003828154811061236f5761236e614b82565b5b906000526020600020906005020160040160006101000a81548160ff021916908360038111156123a2576123a1613d03565b5b02179055505b80806123b390614896565b9150506122c2565b505050565b3373ffffffffffffffffffffffffffffffffffffffff16600160009054906101000a900473ffffffffffffffffffffffffffffffffffffffff1673ffffffffffffffffffffffffffffffffffffffff1614612450576040517f08c379a000000000000000000000000000000000000000000000000000000000815260040161244790614bfd565b60405180910390fd5b856000808373ffffffffffffffffffffffffffffffffffffffff1673ffffffffffffffffffffffffffffffffffffffff16815260200190815260200160002060000190805190602001906124a5929190613684565b50846000808373ffffffffffffffffffffffffffffffffffffffff1673ffffffffffffffffffffffffffffffffffffffff16815260200190815260200160002060010190805190602001906124fb929190613684565b50836000808373ffffffffffffffffffffffffffffffffffffffff1673ffffffffffffffffffffffffffffffffffffffff1681526020019081526020016000206002019080519060200190612551929190613684565b50826000808373ffffffffffffffffffffffffffffffffffffffff1673ffffffffffffffffffffffffffffffffffffffff16815260200190815260200160002060030190805190602001906125a7929190613684565b508160038111156125bb576125ba613d03565b5b6000808373ffffffffffffffffffffffffffffffffffffffff1673ffffffffffffffffffffffffffffffffffffffff16815260200190815260200160002060040160006101000a81548160ff0219169083600381111561261e5761261d613d03565b5b0217905550806000808373ffffffffffffffffffffffffffffffffffffffff1673ffffffffffffffffffffffffffffffffffffffff16815260200190815260200160002060040160016101000a81548173ffffffffffffffffffffffffffffffffffffffff021916908373ffffffffffffffffffffffffffffffffffffffff1602179055508160038111156126b6576126b5613d03565b5b60038111156126c8576126c7613d03565b5b866040516126d69190614c1d565b60405180910390208273ffffffffffffffffffffffffffffffffffffffff167fddb5d1667467713eb503e7e133811c91a231cb6b63f11930889c6004f36c35ee88888860405161272893929190614c34565b60405180910390a460036040518060c0016040528088815260200187815260200186815260200185815260200184600381111561276857612767613d03565b5b600381111561277a57612779613d03565b5b81526020018373ffffffffffffffffffffffffffffffffffffffff16815250908060018154018082558091505060019003906000526020600020906005020160009091909190915060008201518160000190805190602001906127de929190613684565b5060208201518160010190805190602001906127fb929190613684565b506040820151816002019080519060200190612818929190613684565b506060820151816003019080519060200190612835929190613684565b5060808201518160040160006101000a81548160ff0219169083600381111561286157612860613d03565b5b021790555060a08201518160040160016101000a81548173ffffffffffffffffffffffffffffffffffffffff021916908373ffffffffffffffffffffffffffffffffffffffff1602179055505050600260008154809291906128c290614896565b9190505550505050505050565b3373ffffffffffffffffffffffffffffffffffffffff16600c60009054906101000a900473ffffffffffffffffffffffffffffffffffffffff1673ffffffffffffffffffffffffffffffffffffffff161461295f576040517f08c379a00000000000000000000000000000000000000000000000000000000081526004016129569061492b565b60405180910390fd5b60028160600190600581111561297857612977613d03565b5b9081600581111561298c5761298b613d03565b5b815250507fc8152cabb2d63eef83a435cb5c6b42007abcb0308e13dafb56480537ecc03e2182600283600c60009054906101000a900473ffffffffffffffffffffffffffffffffffffffff166040516129e89493929190614c80565b60405180910390a15050565b60038181548110612a0457600080fd5b9060005260206000209060050201600091509050806000018054612a2790614a96565b80601f0160208091040260200160405190810160405280929190818152602001828054612a5390614a96565b8015612aa05780601f10612a7557610100808354040283529160200191612aa0565b820191906000526020600020905b815481529060010190602001808311612a8357829003601f168201915b505050505090806001018054612ab590614a96565b80601f0160208091040260200160405190810160405280929190818152602001828054612ae190614a96565b8015612b2e5780601f10612b0357610100808354040283529160200191612b2e565b820191906000526020600020905b815481529060010190602001808311612b1157829003601f168201915b505050505090806002018054612b4390614a96565b80601f0160208091040260200160405190810160405280929190818152602001828054612b6f90614a96565b8015612bbc5780601f10612b9157610100808354040283529160200191612bbc565b820191906000526020600020905b815481529060010190602001808311612b9f57829003601f168201915b505050505090806003018054612bd190614a96565b80601f0160208091040260200160405190810160405280929190818152602001828054612bfd90614a96565b8015612c4a5780601f10612c1f57610100808354040283529160200191612c4a565b820191906000526020600020905b815481529060010190602001808311612c2d57829003601f168201915b5050505050908060040160009054906101000a900460ff16908060040160019054906101000a900473ffffffffffffffffffffffffffffffffffffffff16905086565b3373ffffffffffffffffffffffffffffffffffffffff16600c60009054906101000a900473ffffffffffffffffffffffffffffffffffffffff1673ffffffffffffffffffffffffffffffffffffffff1614612d1d576040517f08c379a0000000000000000000000000000000000000000000000000000000008152600401612d149061492b565b60405180910390fd5b600381606001906005811115612d3657612d35613d03565b5b90816005811115612d4a57612d49613d03565b5b815250507f4a0e12f440c380019a66ccd6f96249ce6b5a39d25c6f594591505477cf6b8b28600382600c60009054906101000a900473ffffffffffffffffffffffffffffffffffffffff16604051612da49392919061494b565b60405180910390a150565b60016005811115612dc357612dc2613d03565b5b82606001516005811115612dda57612dd9613d03565b5b14612e1a576040517f08c379a0000000000000000000000000000000000000000000000000000000008152600401612e1190614d45565b60405180910390fd5b600060086000600a548152602001908152602001600020905083816001019080519060200190612e4b929190613684565b5060008160020160006101000a81548160ff02191690836001811115612e7457612e73613d03565b5b02179055508281600301600082015181600001556020820151816001019080519060200190612ea4929190613684565b506040820151816002019080519060200190612ec1929190613684565b5060608201518160030160006101000a81548160ff02191690836005811115612eed57612eec613d03565b5b02179055506080820151816004019080519060200190612f0e929190613684565b5060a08201518160050160006101000a81548173ffffffffffffffffffffffffffffffffffffffff021916908373ffffffffffffffffffffffffffffffffffffffff160217905550905050818160090160006101000a81548173ffffffffffffffffffffffffffffffffffffffff021916908373ffffffffffffffffffffffffffffffffffffffff1602179055507f64b02907c8ce4134f7a1449275fbd940c2864b337a1435321c41815c9bba9823600a54600085866060015186604051612fda95949392919061480d565b60405180910390a1600a6000815480929190612ff590614896565b919050555050505050565b600860205280600052604060002060009150905080600001549080600101805461302990614a96565b80601f016020809104026020016040519081016040528092919081815260200182805461305590614a96565b80156130a25780601f10613077576101008083540402835291602001916130a2565b820191906000526020600020905b81548152906001019060200180831161308557829003601f168201915b5050505050908060020160009054906101000a900460ff1690806003016040518060c0016040529081600082015481526020016001820180546130e490614a96565b80601f016020809104026020016040519081016040528092919081815260200182805461311090614a96565b801561315d5780601f106131325761010080835404028352916020019161315d565b820191906000526020600020905b81548152906001019060200180831161314057829003601f168201915b5050505050815260200160028201805461317690614a96565b80601f01602080910402602001604051908101604052809291908181526020018280546131a290614a96565b80156131ef5780601f106131c4576101008083540402835291602001916131ef565b820191906000526020600020905b8154815290600101906020018083116131d257829003601f168201915b505050505081526020016003820160009054906101000a900460ff16600581111561321d5761321c613d03565b5b600581111561322f5761322e613d03565b5b815260200160048201805461324390614a96565b80601f016020809104026020016040519081016040528092919081815260200182805461326f90614a96565b80156132bc5780601f10613291576101008083540402835291602001916132bc565b820191906000526020600020905b81548152906001019060200180831161329f57829003601f168201915b505050505081526020016005820160009054906101000a900473ffffffffffffffffffffffffffffffffffffffff1673ffffffffffffffffffffffffffffffffffffffff1673ffffffffffffffffffffffffffffffffffffffff1681525050908060090160009054906101000a900473ffffffffffffffffffffffffffffffffffffffff16905085565b60606003805480602002602001604051908101604052809291908181526020016000905b8282101561367557838290600052602060002090600502016040518060c001604052908160008201805461339d90614a96565b80601f01602080910402602001604051908101604052809291908181526020018280546133c990614a96565b80156134165780601f106133eb57610100808354040283529160200191613416565b820191906000526020600020905b8154815290600101906020018083116133f957829003601f168201915b5050505050815260200160018201805461342f90614a96565b80601f016020809104026020016040519081016040528092919081815260200182805461345b90614a96565b80156134a85780601f1061347d576101008083540402835291602001916134a8565b820191906000526020600020905b81548152906001019060200180831161348b57829003601f168201915b505050505081526020016002820180546134c190614a96565b80601f01602080910402602001604051908101604052809291908181526020018280546134ed90614a96565b801561353a5780601f1061350f5761010080835404028352916020019161353a565b820191906000526020600020905b81548152906001019060200180831161351d57829003601f168201915b5050505050815260200160038201805461355390614a96565b80601f016020809104026020016040519081016040528092919081815260200182805461357f90614a96565b80156135cc5780601f106135a1576101008083540402835291602001916135cc565b820191906000526020600020905b8154815290600101906020018083116135af57829003601f168201915b505050505081526020016004820160009054906101000a900460ff1660038111156135fa576135f9613d03565b5b600381111561360c5761360b613d03565b5b81526020016004820160019054906101000a900473ffffffffffffffffffffffffffffffffffffffff1673ffffffffffffffffffffffffffffffffffffffff1673ffffffffffffffffffffffffffffffffffffffff16815250508152602001906001019061336a565b50505050905090565b60065481565b82805461369090614a96565b90600052602060002090601f0160209004810192826136b257600085556136f9565b82601f106136cb57805160ff19168380011785556136f9565b828001600101855582156136f9579182015b828111156136f85782518255916020019190600101906136dd565b5b50905061370691906137c6565b5090565b6040518060c001604052806000815260200160608152602001606081526020016000600581111561373e5761373d613d03565b5b815260200160608152602001600073ffffffffffffffffffffffffffffffffffffffff1681525090565b6040518060c0016040528060608152602001606081526020016060815260200160608152602001600060038111156137a3576137a2613d03565b5b8152602001600073ffffffffffffffffffffffffffffffffffffffff1681525090565b5b808211156137df5760008160009055506001016137c7565b5090565b6000604051905090565b600080fd5b600080fd5b600080fd5b600080fd5b6000601f19601f8301169050919050565b7f4e487b7100000000000000000000000000000000000000000000000000000000600052604160045260246000fd5b61384a82613801565b810181811067ffffffffffffffff8211171561386957613868613812565b5b80604052505050565b600061387c6137e3565b90506138888282613841565b919050565b600067ffffffffffffffff8211156138a8576138a7613812565b5b6138b182613801565b9050602081019050919050565b82818337600083830152505050565b60006138e06138db8461388d565b613872565b9050828152602081018484840111156138fc576138fb6137fc565b5b6139078482856138be565b509392505050565b600082601f830112613924576139236137f7565b5b81356139348482602086016138cd565b91505092915050565b600080fd5b600080fd5b6000819050919050565b61395a81613947565b811461396557600080fd5b50565b60008135905061397781613951565b92915050565b6006811061398a57600080fd5b50565b60008135905061399c8161397d565b92915050565b600073ffffffffffffffffffffffffffffffffffffffff82169050919050565b60006139cd826139a2565b9050919050565b6139dd816139c2565b81146139e857600080fd5b50565b6000813590506139fa816139d4565b92915050565b600060c08284031215613a1657613a1561393d565b5b613a2060c0613872565b90506000613a3084828501613968565b600083015250602082013567ffffffffffffffff811115613a5457613a53613942565b5b613a608482850161390f565b602083015250604082013567ffffffffffffffff811115613a8457613a83613942565b5b613a908482850161390f565b6040830152506060613aa48482850161398d565b606083015250608082013567ffffffffffffffff811115613ac857613ac7613942565b5b613ad48482850161390f565b60808301525060a0613ae8848285016139eb565b60a08301525092915050565b600080600060608486031215613b0d57613b0c6137ed565b5b600084013567ffffffffffffffff811115613b2b57613b2a6137f2565b5b613b378682870161390f565b935050602084013567ffffffffffffffff811115613b5857613b576137f2565b5b613b6486828701613a00565b9250506040613b75868287016139eb565b9150509250925092565b600060208284031215613b9557613b946137ed565b5b600082013567ffffffffffffffff811115613bb357613bb26137f2565b5b613bbf84828501613a00565b91505092915050565b60008060408385031215613bdf57613bde6137ed565b5b600083013567ffffffffffffffff811115613bfd57613bfc6137f2565b5b613c098582860161390f565b9250506020613c1a858286016139eb565b9150509250929050565b613c2d816139c2565b82525050565b6000602082019050613c486000830184613c24565b92915050565b600060208284031215613c6457613c636137ed565b5b6000613c72848285016139eb565b91505092915050565b600081519050919050565b600082825260208201905092915050565b60005b83811015613cb5578082015181840152602081019050613c9a565b83811115613cc4576000848401525b50505050565b6000613cd582613c7b565b613cdf8185613c86565b9350613cef818560208601613c97565b613cf881613801565b840191505092915050565b7f4e487b7100000000000000000000000000000000000000000000000000000000600052602160045260246000fd5b60048110613d4357613d42613d03565b5b50565b6000819050613d5482613d32565b919050565b6000613d6482613d46565b9050919050565b613d7481613d59565b82525050565b600060c0820190508181036000830152613d948189613cca565b90508181036020830152613da88188613cca565b90508181036040830152613dbc8187613cca565b90508181036060830152613dd08186613cca565b9050613ddf6080830185613d6b565b613dec60a0830184613c24565b979650505050505050565b60008060008060808587031215613e1157613e106137ed565b5b600085013567ffffffffffffffff811115613e2f57613e2e6137f2565b5b613e3b8782880161390f565b945050602085013567ffffffffffffffff811115613e5c57613e5b6137f2565b5b613e688782880161390f565b9350506040613e7987828801613968565b925050606085013567ffffffffffffffff811115613e9a57613e996137f2565b5b613ea68782880161390f565b91505092959194509250565b613ebb81613947565b82525050565b600082825260208201905092915050565b6000613edd82613c7b565b613ee78185613ec1565b9350613ef7818560208601613c97565b613f0081613801565b840191505092915050565b60068110613f1c57613f1b613d03565b5b50565b6000819050613f2d82613f0b565b919050565b6000613f3d82613f1f565b9050919050565b613f4d81613f32565b82525050565b613f5c816139c2565b82525050565b600060c083016000830151613f7a6000860182613eb2565b5060208301518482036020860152613f928282613ed2565b91505060408301518482036040860152613fac8282613ed2565b9150506060830151613fc16060860182613f44565b5060808301518482036080860152613fd98282613ed2565b91505060a0830151613fee60a0860182613f53565b508091505092915050565b600060208201905081810360008301526140138184613f62565b905092915050565b600060208284031215614031576140306137ed565b5b600061403f84828501613968565b91505092915050565b61405181613947565b82525050565b61406081613f32565b82525050565b600060c08201905061407b6000830189614048565b818103602083015261408d8188613cca565b905081810360408301526140a18187613cca565b90506140b06060830186614057565b81810360808301526140c28185613cca565b90506140d160a0830184613c24565b979650505050505050565b6000819050919050565b6140ef816140dc565b82525050565b600060208201905061410a60008301846140e6565b92915050565b61411981613d59565b82525050565b600060c083016000830151848203600086015261413c8282613ed2565b915050602083015184820360208601526141568282613ed2565b915050604083015184820360408601526141708282613ed2565b9150506060830151848203606086015261418a8282613ed2565b915050608083015161419f6080860182614110565b5060a08301516141b260a0860182613f53565b508091505092915050565b600060208201905081810360008301526141d7818461411f565b905092915050565b60006020820190506141f46000830184614048565b92915050565b600081519050919050565b600082825260208201905092915050565b6000819050602082019050919050565b600060c08301600083015161423e6000860182613eb2565b50602083015184820360208601526142568282613ed2565b915050604083015184820360408601526142708282613ed2565b91505060608301516142856060860182613f44565b506080830151848203608086015261429d8282613ed2565b91505060a08301516142b260a0860182613f53565b508091505092915050565b60006142c98383614226565b905092915050565b6000602082019050919050565b60006142e9826141fa565b6142f38185614205565b93508360208202850161430585614216565b8060005b85811015614341578484038952815161432285826142bd565b945061432d836142d1565b925060208a01995050600181019050614309565b50829750879550505050505092915050565b6000602082019050818103600083015261436d81846142de565b905092915050565b6002811061438657614385613d03565b5b50565b600081905061439782614375565b919050565b60006143a782614389565b9050919050565b6143b78161439c565b82525050565b600060a0820190506143d26000830188614048565b81810360208301526143e48187613cca565b90506143f360408301866143ae565b81810360608301526144058185613f62565b90506144146080830184613c24565b9695505050505050565b60008060408385031215614435576144346137ed565b5b600061444385828601613968565b9250506020614454858286016139eb565b9150509250929050565b60008060008060008060c0878903121561447b5761447a6137ed565b5b600087013567ffffffffffffffff811115614499576144986137f2565b5b6144a589828a0161390f565b965050602087013567ffffffffffffffff8111156144c6576144c56137f2565b5b6144d289828a0161390f565b955050604087013567ffffffffffffffff8111156144f3576144f26137f2565b5b6144ff89828a0161390f565b945050606087013567ffffffffffffffff8111156145205761451f6137f2565b5b61452c89828a0161390f565b935050608061453d89828a01613968565b92505060a061454e89828a016139eb565b9150509295509295509295565b60008060408385031215614572576145716137ed565b5b600083013567ffffffffffffffff8111156145905761458f6137f2565b5b61459c8582860161390f565b925050602083013567ffffffffffffffff8111156145bd576145bc6137f2565b5b6145c985828601613a00565b9150509250929050565b600081519050919050565b600082825260208201905092915050565b6000819050602082019050919050565b600060c083016000830151848203600086015261461c8282613ed2565b915050602083015184820360208601526146368282613ed2565b915050604083015184820360408601526146508282613ed2565b9150506060830151848203606086015261466a8282613ed2565b915050608083015161467f6080860182614110565b5060a083015161469260a0860182613f53565b508091505092915050565b60006146a983836145ff565b905092915050565b6000602082019050919050565b60006146c9826145d3565b6146d381856145de565b9350836020820285016146e5856145ef565b8060005b858110156147215784840389528151614702858261469d565b945061470d836146b1565b925060208a019950506001810190506146e9565b50829750879550505050505092915050565b6000602082019050818103600083015261474d81846146be565b905092915050565b7f5468652070726f6a656374206973206e6f7420696e2074686520274265666f7260008201527f6546696e616c697a6174696f6e436865636b27207374617475732c207468652060208201527f6f7065726174696f6e2063616e6e6f7420626520646f6e652e00000000000000604082015250565b60006147d7605983613c86565b91506147e282614755565b606082019050919050565b60006020820190508181036000830152614806816147ca565b9050919050565b600060a0820190506148226000830188614048565b61482f60208301876143ae565b81810360408301526148418186613f62565b90506148506060830185614057565b61485d6080830184613c24565b9695505050505050565b7f4e487b7100000000000000000000000000000000000000000000000000000000600052601160045260246000fd5b60006148a182613947565b91507fffffffffffffffffffffffffffffffffffffffffffffffffffffffffffffffff8214156148d4576148d3614867565b5b600182019050919050565b7f596f7520617265206e6f74206120636f6d70616e79206275696c646572000000600082015250565b6000614915601d83613c86565b9150614920826148df565b602082019050919050565b6000602082019050818103600083015261494481614908565b9050919050565b60006060820190506149606000830186614057565b81810360208301526149728185613f62565b90506149816040830184613c24565b949350505050565b600081905092915050565b600061499f82613c7b565b6149a98185614989565b93506149b9818560208601613c97565b80840191505092915050565b60008160601b9050919050565b60006149dd826149c5565b9050919050565b60006149ef826149d2565b9050919050565b614a07614a02826139c2565b6149e4565b82525050565b6000819050919050565b614a28614a2382613947565b614a0d565b82525050565b6000614a3a8286614994565b9150614a4682856149f6565b601482019150614a568284614a17565b602082019150819050949350505050565b7f4e487b7100000000000000000000000000000000000000000000000000000000600052602260045260246000fd5b60006002820490506001821680614aae57607f821691505b60208210811415614ac257614ac1614a67565b5b50919050565b6000614ad48285614994565b9150614ae082846149f6565b6014820191508190509392505050565b7f5468652070726f6a656374206973206e6f7420637265617465642c207468652060008201527f6f7065726174696f6e2063616e6e6f7420626520646f6e652e00000000000000602082015250565b6000614b4c603983613c86565b9150614b5782614af0565b604082019050919050565b60006020820190508181036000830152614b7b81614b3f565b9050919050565b7f4e487b7100000000000000000000000000000000000000000000000000000000600052603260045260246000fd5b7f596f7520617265206e6f7420616e206f776e6572000000000000000000000000600082015250565b6000614be7601483613c86565b9150614bf282614bb1565b602082019050919050565b60006020820190508181036000830152614c1681614bda565b9050919050565b6000614c298284614994565b915081905092915050565b60006060820190508181036000830152614c4e8186613cca565b90508181036020830152614c628185613cca565b90508181036040830152614c768184613cca565b9050949350505050565b60006080820190508181036000830152614c9a8187613cca565b9050614ca96020830186614057565b8181036040830152614cbb8185613f62565b9050614cca6060830184613c24565b95945050505050565b7f5468652070726f6a656374206973206e6f7420617070726f7665642c2074686560008201527f206f7065726174696f6e2063616e6e6f7420626520646f6e652e000000000000602082015250565b6000614d2f603a83613c86565b9150614d3a82614cd3565b604082019050919050565b60006020820190508181036000830152614d5e81614d22565b905091905056fea2646970667358221220ba0bd405d4085bb3834c7f65aff202ba8598efd9998941713a49476cbbb3ee9a64736f6c634300080a0033",
  "immutableReferences": {},
  "source": "// SPDX-License-Identifier: MIT\r\npragma solidity >=0.8.0 <0.9.0;\r\n\r\nimport \"./ProjectChain.sol\";\r\n\r\ncontract CompanyChain is ProjectChain {\r\n\r\n    address _companyAddress;\r\n\r\n    event ApproveProjectRequestByCompany(ProjectStatus _status, Project _project, address _subjectAddress);\r\n    event RejectProjectRequestByCompany(string _description, ProjectStatus _status, Project _project, address _subjectAddress);\r\n    event BeforeFinalizationProjectRequestByCompany(ProjectStatus _status, Project _project, address _subjectAddress);\r\n\r\n    constructor() {\r\n        _companyAddress = msg.sender;\r\n    }\r\n\r\n    modifier onlyCompany {\r\n        require(_companyAddress == msg.sender, \"You are not a company builder\");\r\n        _;\r\n    }\r\n\r\n    // Add some contrainst / verification TOOO DOOO -> LATER\r\n\r\n    function setProjectRequestToOnGoingStatus(Project memory _project) public onlyCompany {\r\n        _project._status = ProjectStatus.OnGoing;\r\n        emit ApproveProjectRequestByCompany(ProjectStatus.OnGoing, _project, _companyAddress);\r\n    }\r\n\r\n    function setProjectRequestToRejectStatus(string memory _description, Project memory _project) public onlyCompany {\r\n        _project._status = ProjectStatus.Rejected;\r\n        emit RejectProjectRequestByCompany(_description, ProjectStatus.Rejected, _project, _companyAddress);\r\n    }\r\n\r\n    function setProjectRequestToBeforeFinalizationStatus(Project memory _project)  public onlyCompany {\r\n        _project._status = ProjectStatus.FinalizationCheck;\r\n        emit BeforeFinalizationProjectRequestByCompany(ProjectStatus.FinalizationCheck, _project, _companyAddress);\r\n    }\r\n}\r\n",
  "sourcePath": "/mnt/c/users/beniamin/source/repos/dissertationproject/contracts/CompanyChain.sol",
  "compiler": {
    "name": "solc",
    "version": "0.8.10+commit.fc410830.Emscripten.clang"
  },
  "schemaVersion": "3.4.3",
  "updatedAt": "2021-11-19T10:04:54.875Z",
  "devdoc": {
    "kind": "dev",
    "methods": {},
    "version": 1
  },
  "userdoc": {
    "kind": "user",
    "methods": {},
    "version": 1
  }
}