{
  "contractName": "ProjectChain",
  "abi": [
    {
      "inputs": [],
      "stateMutability": "nonpayable",
      "type": "constructor"
    },
    {
      "anonymous": false,
      "inputs": [
        {
          "indexed": false,
          "internalType": "uint256",
          "name": "_index",
          "type": "uint256"
        },
        {
          "indexed": false,
          "internalType": "bytes32",
          "name": "_name",
          "type": "bytes32"
        },
        {
          "indexed": false,
          "internalType": "enum SharedChain.ProjectStatus",
          "name": "_status",
          "type": "uint8"
        },
        {
          "indexed": false,
          "internalType": "string",
          "name": "_ipfsFileCID",
          "type": "string"
        },
        {
          "indexed": false,
          "internalType": "address",
          "name": "_projectAddress",
          "type": "address"
        },
        {
          "indexed": false,
          "internalType": "address",
          "name": "_userAddress",
          "type": "address"
        },
        {
          "indexed": false,
          "internalType": "uint256",
          "name": "_timestamp",
          "type": "uint256"
        }
      ],
      "name": "ProjectEvent",
      "type": "event"
    },
    {
      "anonymous": false,
      "inputs": [
        {
          "indexed": false,
          "internalType": "uint256",
          "name": "_index",
          "type": "uint256"
        },
        {
          "indexed": false,
          "internalType": "bytes32",
          "name": "_title",
          "type": "bytes32"
        },
        {
          "indexed": false,
          "internalType": "string",
          "name": "_comments",
          "type": "string"
        },
        {
          "indexed": false,
          "internalType": "enum SharedChain.ProjectStatus",
          "name": "_status",
          "type": "uint8"
        },
        {
          "indexed": false,
          "internalType": "enum SharedChain.RequestStatus",
          "name": "_requestStatus",
          "type": "uint8"
        },
        {
          "indexed": false,
          "internalType": "address",
          "name": "_projectAddress",
          "type": "address"
        },
        {
          "indexed": false,
          "internalType": "address",
          "name": "_userAddress",
          "type": "address"
        },
        {
          "indexed": false,
          "internalType": "uint256",
          "name": "_timestamp",
          "type": "uint256"
        }
      ],
      "name": "ProjectRequestEvent",
      "type": "event"
    },
    {
      "anonymous": false,
      "inputs": [
        {
          "indexed": false,
          "internalType": "uint256",
          "name": "_index",
          "type": "uint256"
        },
        {
          "indexed": false,
          "internalType": "bytes32",
          "name": "_title",
          "type": "bytes32"
        },
        {
          "indexed": false,
          "internalType": "enum SharedChain.RequestStatus",
          "name": "_status",
          "type": "uint8"
        },
        {
          "indexed": false,
          "internalType": "enum SharedChain.ProjectStatus",
          "name": "_projectStatus",
          "type": "uint8"
        },
        {
          "indexed": false,
          "internalType": "address",
          "name": "_projectAddress",
          "type": "address"
        },
        {
          "indexed": false,
          "internalType": "address",
          "name": "_userAddress",
          "type": "address"
        },
        {
          "indexed": false,
          "internalType": "uint256",
          "name": "_timestamp",
          "type": "uint256"
        }
      ],
      "name": "RequestEvent",
      "type": "event"
    },
    {
      "anonymous": false,
      "inputs": [
        {
          "indexed": true,
          "internalType": "address",
          "name": "_walletAddress",
          "type": "address"
        },
        {
          "indexed": true,
          "internalType": "string",
          "name": "_username",
          "type": "string"
        },
        {
          "indexed": false,
          "internalType": "bytes32",
          "name": "_email",
          "type": "bytes32"
        },
        {
          "indexed": false,
          "internalType": "bytes32",
          "name": "_firstname",
          "type": "bytes32"
        },
        {
          "indexed": false,
          "internalType": "bytes32",
          "name": "_lastname",
          "type": "bytes32"
        },
        {
          "indexed": true,
          "internalType": "enum UserChain.Roles",
          "name": "_role",
          "type": "uint8"
        }
      ],
      "name": "UserEvent",
      "type": "event"
    },
    {
      "inputs": [
        {
          "internalType": "uint256",
          "name": "",
          "type": "uint256"
        }
      ],
      "name": "allProjectRequests",
      "outputs": [
        {
          "internalType": "uint256",
          "name": "_index",
          "type": "uint256"
        },
        {
          "internalType": "bytes32",
          "name": "_title",
          "type": "bytes32"
        },
        {
          "internalType": "string",
          "name": "_comments",
          "type": "string"
        },
        {
          "internalType": "enum SharedChain.ProjectStatus",
          "name": "_status",
          "type": "uint8"
        },
        {
          "internalType": "enum SharedChain.RequestStatus",
          "name": "_requestStatus",
          "type": "uint8"
        },
        {
          "internalType": "address",
          "name": "_projectAddress",
          "type": "address"
        },
        {
          "internalType": "address",
          "name": "_userAddress",
          "type": "address"
        }
      ],
      "stateMutability": "view",
      "type": "function",
      "constant": true
    },
    {
      "inputs": [
        {
          "internalType": "uint256",
          "name": "",
          "type": "uint256"
        }
      ],
      "name": "allProjects",
      "outputs": [
        {
          "internalType": "uint256",
          "name": "_index",
          "type": "uint256"
        },
        {
          "internalType": "bytes32",
          "name": "_name",
          "type": "bytes32"
        },
        {
          "internalType": "enum SharedChain.ProjectStatus",
          "name": "_status",
          "type": "uint8"
        },
        {
          "internalType": "string",
          "name": "_ipfsFileCID",
          "type": "string"
        },
        {
          "internalType": "address",
          "name": "_projectAddress",
          "type": "address"
        },
        {
          "internalType": "address",
          "name": "_userAddress",
          "type": "address"
        }
      ],
      "stateMutability": "view",
      "type": "function",
      "constant": true
    },
    {
      "inputs": [
        {
          "internalType": "uint256",
          "name": "",
          "type": "uint256"
        }
      ],
      "name": "allRequests",
      "outputs": [
        {
          "internalType": "uint256",
          "name": "_index",
          "type": "uint256"
        },
        {
          "internalType": "bytes32",
          "name": "_title",
          "type": "bytes32"
        },
        {
          "internalType": "enum SharedChain.RequestStatus",
          "name": "_requestStatus",
          "type": "uint8"
        },
        {
          "internalType": "enum SharedChain.ProjectStatus",
          "name": "_projectStatus",
          "type": "uint8"
        },
        {
          "internalType": "address",
          "name": "_projectAddress",
          "type": "address"
        },
        {
          "internalType": "address",
          "name": "_userAddress",
          "type": "address"
        }
      ],
      "stateMutability": "view",
      "type": "function",
      "constant": true
    },
    {
      "inputs": [
        {
          "internalType": "uint256",
          "name": "",
          "type": "uint256"
        }
      ],
      "name": "allUsers",
      "outputs": [
        {
          "internalType": "uint256",
          "name": "_index",
          "type": "uint256"
        },
        {
          "internalType": "string",
          "name": "_username",
          "type": "string"
        },
        {
          "internalType": "bytes32",
          "name": "_email",
          "type": "bytes32"
        },
        {
          "internalType": "bytes32",
          "name": "_firstname",
          "type": "bytes32"
        },
        {
          "internalType": "bytes32",
          "name": "_lastname",
          "type": "bytes32"
        },
        {
          "internalType": "enum UserChain.Roles",
          "name": "_role",
          "type": "uint8"
        },
        {
          "internalType": "address",
          "name": "_walletAddress",
          "type": "address"
        }
      ],
      "stateMutability": "view",
      "type": "function",
      "constant": true
    },
    {
      "inputs": [
        {
          "internalType": "uint256",
          "name": "_role",
          "type": "uint256"
        },
        {
          "internalType": "address",
          "name": "_walletAddress",
          "type": "address"
        }
      ],
      "name": "changeUserRole",
      "outputs": [],
      "stateMutability": "nonpayable",
      "type": "function"
    },
    {
      "inputs": [],
      "name": "getAllUsers",
      "outputs": [
        {
          "components": [
            {
              "internalType": "uint256",
              "name": "_index",
              "type": "uint256"
            },
            {
              "internalType": "string",
              "name": "_username",
              "type": "string"
            },
            {
              "internalType": "bytes32",
              "name": "_email",
              "type": "bytes32"
            },
            {
              "internalType": "bytes32",
              "name": "_firstname",
              "type": "bytes32"
            },
            {
              "internalType": "bytes32",
              "name": "_lastname",
              "type": "bytes32"
            },
            {
              "internalType": "enum UserChain.Roles",
              "name": "_role",
              "type": "uint8"
            },
            {
              "internalType": "address",
              "name": "_walletAddress",
              "type": "address"
            }
          ],
          "internalType": "struct UserChain.User[]",
          "name": "",
          "type": "tuple[]"
        }
      ],
      "stateMutability": "view",
      "type": "function",
      "constant": true
    },
    {
      "inputs": [
        {
          "internalType": "address",
          "name": "_walletAddress",
          "type": "address"
        }
      ],
      "name": "getUserInfo",
      "outputs": [
        {
          "components": [
            {
              "internalType": "uint256",
              "name": "_index",
              "type": "uint256"
            },
            {
              "internalType": "string",
              "name": "_username",
              "type": "string"
            },
            {
              "internalType": "bytes32",
              "name": "_email",
              "type": "bytes32"
            },
            {
              "internalType": "bytes32",
              "name": "_firstname",
              "type": "bytes32"
            },
            {
              "internalType": "bytes32",
              "name": "_lastname",
              "type": "bytes32"
            },
            {
              "internalType": "enum UserChain.Roles",
              "name": "_role",
              "type": "uint8"
            },
            {
              "internalType": "address",
              "name": "_walletAddress",
              "type": "address"
            }
          ],
          "internalType": "struct UserChain.User",
          "name": "",
          "type": "tuple"
        }
      ],
      "stateMutability": "view",
      "type": "function",
      "constant": true
    },
    {
      "inputs": [],
      "name": "owner",
      "outputs": [
        {
          "internalType": "address",
          "name": "",
          "type": "address"
        }
      ],
      "stateMutability": "view",
      "type": "function",
      "constant": true
    },
    {
      "inputs": [
        {
          "internalType": "address",
          "name": "",
          "type": "address"
        }
      ],
      "name": "projectRequests",
      "outputs": [
        {
          "internalType": "uint256",
          "name": "_index",
          "type": "uint256"
        },
        {
          "internalType": "bytes32",
          "name": "_title",
          "type": "bytes32"
        },
        {
          "internalType": "string",
          "name": "_comments",
          "type": "string"
        },
        {
          "internalType": "enum SharedChain.ProjectStatus",
          "name": "_status",
          "type": "uint8"
        },
        {
          "internalType": "enum SharedChain.RequestStatus",
          "name": "_requestStatus",
          "type": "uint8"
        },
        {
          "internalType": "address",
          "name": "_projectAddress",
          "type": "address"
        },
        {
          "internalType": "address",
          "name": "_userAddress",
          "type": "address"
        }
      ],
      "stateMutability": "view",
      "type": "function",
      "constant": true
    },
    {
      "inputs": [],
      "name": "projectRequestsCounter",
      "outputs": [
        {
          "internalType": "uint256",
          "name": "",
          "type": "uint256"
        }
      ],
      "stateMutability": "view",
      "type": "function",
      "constant": true
    },
    {
      "inputs": [
        {
          "internalType": "address",
          "name": "",
          "type": "address"
        }
      ],
      "name": "projects",
      "outputs": [
        {
          "internalType": "uint256",
          "name": "_index",
          "type": "uint256"
        },
        {
          "internalType": "bytes32",
          "name": "_name",
          "type": "bytes32"
        },
        {
          "internalType": "enum SharedChain.ProjectStatus",
          "name": "_status",
          "type": "uint8"
        },
        {
          "internalType": "string",
          "name": "_ipfsFileCID",
          "type": "string"
        },
        {
          "internalType": "address",
          "name": "_projectAddress",
          "type": "address"
        },
        {
          "internalType": "address",
          "name": "_userAddress",
          "type": "address"
        }
      ],
      "stateMutability": "view",
      "type": "function",
      "constant": true
    },
    {
      "inputs": [],
      "name": "projectsCounter",
      "outputs": [
        {
          "internalType": "uint256",
          "name": "",
          "type": "uint256"
        }
      ],
      "stateMutability": "view",
      "type": "function",
      "constant": true
    },
    {
      "inputs": [
        {
          "internalType": "string",
          "name": "_username",
          "type": "string"
        },
        {
          "internalType": "bytes32",
          "name": "_email",
          "type": "bytes32"
        },
        {
          "internalType": "bytes32",
          "name": "_firstname",
          "type": "bytes32"
        },
        {
          "internalType": "bytes32",
          "name": "_lastname",
          "type": "bytes32"
        },
        {
          "internalType": "uint256",
          "name": "_role",
          "type": "uint256"
        },
        {
          "internalType": "address",
          "name": "_walletAddress",
          "type": "address"
        }
      ],
      "name": "registerUser",
      "outputs": [],
      "stateMutability": "nonpayable",
      "type": "function"
    },
    {
      "inputs": [
        {
          "internalType": "uint256",
          "name": "",
          "type": "uint256"
        }
      ],
      "name": "requests",
      "outputs": [
        {
          "internalType": "uint256",
          "name": "_index",
          "type": "uint256"
        },
        {
          "internalType": "bytes32",
          "name": "_title",
          "type": "bytes32"
        },
        {
          "internalType": "enum SharedChain.RequestStatus",
          "name": "_requestStatus",
          "type": "uint8"
        },
        {
          "internalType": "enum SharedChain.ProjectStatus",
          "name": "_projectStatus",
          "type": "uint8"
        },
        {
          "internalType": "address",
          "name": "_projectAddress",
          "type": "address"
        },
        {
          "internalType": "address",
          "name": "_userAddress",
          "type": "address"
        }
      ],
      "stateMutability": "view",
      "type": "function",
      "constant": true
    },
    {
      "inputs": [],
      "name": "requestsCounter",
      "outputs": [
        {
          "internalType": "uint256",
          "name": "",
          "type": "uint256"
        }
      ],
      "stateMutability": "view",
      "type": "function",
      "constant": true
    },
    {
      "inputs": [
        {
          "internalType": "address",
          "name": "",
          "type": "address"
        }
      ],
      "name": "users",
      "outputs": [
        {
          "internalType": "uint256",
          "name": "_index",
          "type": "uint256"
        },
        {
          "internalType": "string",
          "name": "_username",
          "type": "string"
        },
        {
          "internalType": "bytes32",
          "name": "_email",
          "type": "bytes32"
        },
        {
          "internalType": "bytes32",
          "name": "_firstname",
          "type": "bytes32"
        },
        {
          "internalType": "bytes32",
          "name": "_lastname",
          "type": "bytes32"
        },
        {
          "internalType": "enum UserChain.Roles",
          "name": "_role",
          "type": "uint8"
        },
        {
          "internalType": "address",
          "name": "_walletAddress",
          "type": "address"
        }
      ],
      "stateMutability": "view",
      "type": "function",
      "constant": true
    },
    {
      "inputs": [],
      "name": "usersCounter",
      "outputs": [
        {
          "internalType": "uint256",
          "name": "",
          "type": "uint256"
        }
      ],
      "stateMutability": "view",
      "type": "function",
      "constant": true
    },
    {
      "inputs": [
        {
          "internalType": "string",
          "name": "_text",
          "type": "string"
        },
        {
          "internalType": "uint256",
          "name": "_index",
          "type": "uint256"
        }
      ],
      "name": "createUniqueHexAddress",
      "outputs": [
        {
          "internalType": "address",
          "name": "",
          "type": "address"
        }
      ],
      "stateMutability": "view",
      "type": "function",
      "constant": true
    },
    {
      "inputs": [
        {
          "internalType": "bytes32",
          "name": "_name",
          "type": "bytes32"
        },
        {
          "internalType": "uint256",
          "name": "_status",
          "type": "uint256"
        },
        {
          "internalType": "string",
          "name": "_ipfsFileCID",
          "type": "string"
        }
      ],
      "name": "createProject",
      "outputs": [],
      "stateMutability": "nonpayable",
      "type": "function"
    },
    {
      "inputs": [
        {
          "internalType": "address",
          "name": "_address",
          "type": "address"
        }
      ],
      "name": "getProjectInfo",
      "outputs": [
        {
          "components": [
            {
              "internalType": "uint256",
              "name": "_index",
              "type": "uint256"
            },
            {
              "internalType": "bytes32",
              "name": "_name",
              "type": "bytes32"
            },
            {
              "internalType": "enum SharedChain.ProjectStatus",
              "name": "_status",
              "type": "uint8"
            },
            {
              "internalType": "string",
              "name": "_ipfsFileCID",
              "type": "string"
            },
            {
              "internalType": "address",
              "name": "_projectAddress",
              "type": "address"
            },
            {
              "internalType": "address",
              "name": "_userAddress",
              "type": "address"
            }
          ],
          "internalType": "struct SharedChain.Project",
          "name": "",
          "type": "tuple"
        }
      ],
      "stateMutability": "view",
      "type": "function",
      "constant": true
    },
    {
      "inputs": [],
      "name": "getAllProjects",
      "outputs": [
        {
          "components": [
            {
              "internalType": "uint256",
              "name": "_index",
              "type": "uint256"
            },
            {
              "internalType": "bytes32",
              "name": "_name",
              "type": "bytes32"
            },
            {
              "internalType": "enum SharedChain.ProjectStatus",
              "name": "_status",
              "type": "uint8"
            },
            {
              "internalType": "string",
              "name": "_ipfsFileCID",
              "type": "string"
            },
            {
              "internalType": "address",
              "name": "_projectAddress",
              "type": "address"
            },
            {
              "internalType": "address",
              "name": "_userAddress",
              "type": "address"
            }
          ],
          "internalType": "struct SharedChain.Project[]",
          "name": "",
          "type": "tuple[]"
        }
      ],
      "stateMutability": "view",
      "type": "function",
      "constant": true
    },
    {
      "inputs": [
        {
          "internalType": "bytes32",
          "name": "_title",
          "type": "bytes32"
        },
        {
          "internalType": "uint256",
          "name": "_status",
          "type": "uint256"
        },
        {
          "internalType": "uint256",
          "name": "_requestStatus",
          "type": "uint256"
        },
        {
          "internalType": "address",
          "name": "_projectAddress",
          "type": "address"
        }
      ],
      "name": "createProjectRequest",
      "outputs": [],
      "stateMutability": "nonpayable",
      "type": "function"
    },
    {
      "inputs": [],
      "name": "getAllProjectRequests",
      "outputs": [
        {
          "components": [
            {
              "internalType": "uint256",
              "name": "_index",
              "type": "uint256"
            },
            {
              "internalType": "bytes32",
              "name": "_title",
              "type": "bytes32"
            },
            {
              "internalType": "string",
              "name": "_comments",
              "type": "string"
            },
            {
              "internalType": "enum SharedChain.ProjectStatus",
              "name": "_status",
              "type": "uint8"
            },
            {
              "internalType": "enum SharedChain.RequestStatus",
              "name": "_requestStatus",
              "type": "uint8"
            },
            {
              "internalType": "address",
              "name": "_projectAddress",
              "type": "address"
            },
            {
              "internalType": "address",
              "name": "_userAddress",
              "type": "address"
            }
          ],
          "internalType": "struct SharedChain.ProjectRequest[]",
          "name": "",
          "type": "tuple[]"
        }
      ],
      "stateMutability": "view",
      "type": "function",
      "constant": true
    },
    {
      "inputs": [
        {
          "internalType": "bytes32",
          "name": "_title",
          "type": "bytes32"
        },
        {
          "internalType": "uint256",
          "name": "_projectStatus",
          "type": "uint256"
        },
        {
          "internalType": "uint256",
          "name": "_requestStatus",
          "type": "uint256"
        },
        {
          "internalType": "address",
          "name": "_projectAddress",
          "type": "address"
        }
      ],
      "name": "createRequest",
      "outputs": [],
      "stateMutability": "nonpayable",
      "type": "function"
    },
    {
      "inputs": [
        {
          "internalType": "uint256",
          "name": "_requestStatus",
          "type": "uint256"
        },
        {
          "internalType": "uint256",
          "name": "_index",
          "type": "uint256"
        }
      ],
      "name": "updateRequest",
      "outputs": [],
      "stateMutability": "nonpayable",
      "type": "function"
    },
    {
      "inputs": [],
      "name": "getAllRequests",
      "outputs": [
        {
          "components": [
            {
              "internalType": "uint256",
              "name": "_index",
              "type": "uint256"
            },
            {
              "internalType": "bytes32",
              "name": "_title",
              "type": "bytes32"
            },
            {
              "internalType": "enum SharedChain.RequestStatus",
              "name": "_requestStatus",
              "type": "uint8"
            },
            {
              "internalType": "enum SharedChain.ProjectStatus",
              "name": "_projectStatus",
              "type": "uint8"
            },
            {
              "internalType": "address",
              "name": "_projectAddress",
              "type": "address"
            },
            {
              "internalType": "address",
              "name": "_userAddress",
              "type": "address"
            }
          ],
          "internalType": "struct SharedChain.Request[]",
          "name": "",
          "type": "tuple[]"
        }
      ],
      "stateMutability": "view",
      "type": "function",
      "constant": true
    }
  ],
  "bytecode": "0x60806040526000600355600060065560006009556000600c5534801561002457600080fd5b50336000806101000a81548173ffffffffffffffffffffffffffffffffffffffff021916908373ffffffffffffffffffffffffffffffffffffffff16021790555033600460006101000a81548173ffffffffffffffffffffffffffffffffffffffff021916908373ffffffffffffffffffffffffffffffffffffffff160217905550614781806100b56000396000f3fe608060405234801561001057600080fd5b506004361061018e5760003560e01c806391009786116100de578063cc1ee4db11610097578063e2842d7911610071578063e2842d791461050f578063e9fcdf101461052d578063fb1a002a14610549578063fe360ea5146105675761018e565b8063cc1ee4db146104b7578063cf13f5d4146104d5578063d67b1b99146104f15761018e565b806391009786146103c25780639bf4ec2f146103de578063a2bdedf414610413578063a87430ba14610449578063acf60a211461047f578063af1b7f491461049b5761018e565b8063663c22691161014b57806381d12c581161012557806381d12c581461030a578063840e78fd1461033f57806384afb5bb146103745780638da5cb5b146103a45761018e565b8063663c2269146102985780637e571188146102b657806380d03829146102ec5761018e565b8063400003db1461019357806347ee45b9146101b157806353b3194c146101e15780635cdb4642146102165780636386c1c71461023257806363c163c414610262575b600080fd5b61019b610585565b6040516101a89190613555565b60405180910390f35b6101cb60048036038101906101c691906135b7565b6107ac565b6040516101d8919061366d565b60405180910390f35b6101fb60048036038101906101f691906136bb565b610992565b60405161020d9695949392919061376e565b60405180910390f35b610230600480360381019061022b91906137d6565b610ab3565b005b61024c600480360381019061024791906135b7565b610b82565b60405161025991906138fa565b60405180910390f35b61027c600480360381019061027791906135b7565b610d26565b60405161028f979695949392919061392b565b60405180910390f35b6102a0610e4a565b6040516102ad91906139a1565b60405180910390f35b6102d060048036038101906102cb91906136bb565b610e50565b6040516102e3979695949392919061392b565b60405180910390f35b6102f4610f84565b6040516103019190613b07565b60405180910390f35b610324600480360381019061031f91906136bb565b611170565b60405161033696959493929190613b29565b60405180910390f35b610359600480360381019061035491906135b7565b611206565b60405161036b9695949392919061376e565b60405180910390f35b61038e60048036038101906103899190613cbf565b611317565b60405161039b9190613d1b565b60405180910390f35b6103ac611371565b6040516103b99190613d1b565b60405180910390f35b6103dc60048036038101906103d79190613d36565b611395565b005b6103f860048036038101906103f391906136bb565b611650565b60405161040a96959493929190613b29565b60405180910390f35b61042d600480360381019061042891906136bb565b6116f6565b6040516104409796959493929190613d85565b60405180910390f35b610463600480360381019061045e91906135b7565b6117fd565b6040516104769796959493929190613d85565b60405180910390f35b61049960048036038101906104949190613e27565b6118f4565b005b6104b560048036038101906104b09190613e8e565b611d41565b005b6104bf612261565b6040516104cc91906139a1565b60405180910390f35b6104ef60048036038101906104ea9190613efd565b612267565b005b6104f961276c565b60405161050691906139a1565b60405180910390f35b610517612772565b6040516105249190614104565b60405180910390f35b61054760048036038101906105429190613e27565b61291c565b005b610551612f09565b60405161055e9190614250565b60405180910390f35b61056f61309e565b60405161057c91906139a1565b60405180910390f35b6060600a805480602002602001604051908101604052809291908181526020016000905b828210156107a357838290600052602060002090600502016040518060e001604052908160008201548152602001600182015481526020016002820180546105f0906142a1565b80601f016020809104026020016040519081016040528092919081815260200182805461061c906142a1565b80156106695780601f1061063e57610100808354040283529160200191610669565b820191906000526020600020905b81548152906001019060200180831161064c57829003601f168201915b505050505081526020016003820160009054906101000a900460ff16600481111561069757610696613323565b5b60048111156106a9576106a8613323565b5b81526020016003820160019054906101000a900460ff1660028111156106d2576106d1613323565b5b60028111156106e4576106e3613323565b5b81526020016003820160029054906101000a900473ffffffffffffffffffffffffffffffffffffffff1673ffffffffffffffffffffffffffffffffffffffff1673ffffffffffffffffffffffffffffffffffffffff1681526020016004820160009054906101000a900473ffffffffffffffffffffffffffffffffffffffff1673ffffffffffffffffffffffffffffffffffffffff1673ffffffffffffffffffffffffffffffffffffffff1681525050815260200190600101906105a9565b50505050905090565b6107b46130a4565b600560008373ffffffffffffffffffffffffffffffffffffffff1673ffffffffffffffffffffffffffffffffffffffff1681526020019081526020016000206040518060c001604052908160008201548152602001600182015481526020016002820160009054906101000a900460ff16600481111561083757610836613323565b5b600481111561084957610848613323565b5b815260200160038201805461085d906142a1565b80601f0160208091040260200160405190810160405280929190818152602001828054610889906142a1565b80156108d65780601f106108ab576101008083540402835291602001916108d6565b820191906000526020600020905b8154815290600101906020018083116108b957829003601f168201915b505050505081526020016004820160009054906101000a900473ffffffffffffffffffffffffffffffffffffffff1673ffffffffffffffffffffffffffffffffffffffff1673ffffffffffffffffffffffffffffffffffffffff1681526020016005820160009054906101000a900473ffffffffffffffffffffffffffffffffffffffff1673ffffffffffffffffffffffffffffffffffffffff1673ffffffffffffffffffffffffffffffffffffffff16815250509050919050565b600781815481106109a257600080fd5b90600052602060002090600602016000915090508060000154908060010154908060020160009054906101000a900460ff16908060030180546109e4906142a1565b80601f0160208091040260200160405190810160405280929190818152602001828054610a10906142a1565b8015610a5d5780601f10610a3257610100808354040283529160200191610a5d565b820191906000526020600020905b815481529060010190602001808311610a4057829003601f168201915b5050505050908060040160009054906101000a900473ffffffffffffffffffffffffffffffffffffffff16908060050160009054906101000a900473ffffffffffffffffffffffffffffffffffffffff16905086565b816002811115610ac657610ac5613323565b5b600b600083815260200190815260200160002060020160006101000a81548160ff02191690836002811115610afe57610afd613323565b5b02179055506000600b6000838152602001908152602001600020600001549050826002811115610b3157610b30613323565b5b600d8281548110610b4557610b446142d3565b5b906000526020600020906004020160020160006101000a81548160ff02191690836002811115610b7857610b77613323565b5b0217905550505050565b610b8a61311b565b600160008373ffffffffffffffffffffffffffffffffffffffff1673ffffffffffffffffffffffffffffffffffffffff1681526020019081526020016000206040518060e001604052908160008201548152602001600182018054610bee906142a1565b80601f0160208091040260200160405190810160405280929190818152602001828054610c1a906142a1565b8015610c675780601f10610c3c57610100808354040283529160200191610c67565b820191906000526020600020905b815481529060010190602001808311610c4a57829003601f168201915b505050505081526020016002820154815260200160038201548152602001600482015481526020016005820160009054906101000a900460ff166003811115610cb357610cb2613323565b5b6003811115610cc557610cc4613323565b5b81526020016005820160019054906101000a900473ffffffffffffffffffffffffffffffffffffffff1673ffffffffffffffffffffffffffffffffffffffff1673ffffffffffffffffffffffffffffffffffffffff16815250509050919050565b6008602052806000526040600020600091509050806000015490806001015490806002018054610d55906142a1565b80601f0160208091040260200160405190810160405280929190818152602001828054610d81906142a1565b8015610dce5780601f10610da357610100808354040283529160200191610dce565b820191906000526020600020905b815481529060010190602001808311610db157829003601f168201915b5050505050908060030160009054906101000a900460ff16908060030160019054906101000a900460ff16908060030160029054906101000a900473ffffffffffffffffffffffffffffffffffffffff16908060040160009054906101000a900473ffffffffffffffffffffffffffffffffffffffff16905087565b600c5481565b600a8181548110610e6057600080fd5b9060005260206000209060050201600091509050806000015490806001015490806002018054610e8f906142a1565b80601f0160208091040260200160405190810160405280929190818152602001828054610ebb906142a1565b8015610f085780601f10610edd57610100808354040283529160200191610f08565b820191906000526020600020905b815481529060010190602001808311610eeb57829003601f168201915b5050505050908060030160009054906101000a900460ff16908060030160019054906101000a900460ff16908060030160029054906101000a900473ffffffffffffffffffffffffffffffffffffffff16908060040160009054906101000a900473ffffffffffffffffffffffffffffffffffffffff16905087565b60606007805480602002602001604051908101604052809291908181526020016000905b8282101561116757838290600052602060002090600602016040518060c001604052908160008201548152602001600182015481526020016002820160009054906101000a900460ff16600481111561100457611003613323565b5b600481111561101657611015613323565b5b815260200160038201805461102a906142a1565b80601f0160208091040260200160405190810160405280929190818152602001828054611056906142a1565b80156110a35780601f10611078576101008083540402835291602001916110a3565b820191906000526020600020905b81548152906001019060200180831161108657829003601f168201915b505050505081526020016004820160009054906101000a900473ffffffffffffffffffffffffffffffffffffffff1673ffffffffffffffffffffffffffffffffffffffff1673ffffffffffffffffffffffffffffffffffffffff1681526020016005820160009054906101000a900473ffffffffffffffffffffffffffffffffffffffff1673ffffffffffffffffffffffffffffffffffffffff1673ffffffffffffffffffffffffffffffffffffffff168152505081526020019060010190610fa8565b50505050905090565b600b6020528060005260406000206000915090508060000154908060010154908060020160009054906101000a900460ff16908060020160019054906101000a900460ff16908060020160029054906101000a900473ffffffffffffffffffffffffffffffffffffffff16908060030160009054906101000a900473ffffffffffffffffffffffffffffffffffffffff16905086565b60056020528060005260406000206000915090508060000154908060010154908060020160009054906101000a900460ff1690806003018054611248906142a1565b80601f0160208091040260200160405190810160405280929190818152602001828054611274906142a1565b80156112c15780601f10611296576101008083540402835291602001916112c1565b820191906000526020600020905b8154815290600101906020018083116112a457829003601f168201915b5050505050908060040160009054906101000a900473ffffffffffffffffffffffffffffffffffffffff16908060050160009054906101000a900473ffffffffffffffffffffffffffffffffffffffff16905086565b600082600460009054906101000a900473ffffffffffffffffffffffffffffffffffffffff1683604051602001611350939291906143a7565b6040516020818303038152906040528051906020012060001c905092915050565b60008054906101000a900473ffffffffffffffffffffffffffffffffffffffff1681565b8160038111156113a8576113a7613323565b5b600160008373ffffffffffffffffffffffffffffffffffffffff1673ffffffffffffffffffffffffffffffffffffffff16815260200190815260200160002060050160006101000a81548160ff0219169083600381111561140c5761140b613323565b5b02179055506000600160008373ffffffffffffffffffffffffffffffffffffffff1673ffffffffffffffffffffffffffffffffffffffff16815260200190815260200160002060000154905082600381111561146b5761146a613323565b5b6002828154811061147f5761147e6142d3565b5b906000526020600020906006020160050160006101000a81548160ff021916908360038111156114b2576114b1613323565b5b02179055508260038111156114ca576114c9613323565b5b60038111156114dc576114db613323565b5b600160008473ffffffffffffffffffffffffffffffffffffffff1673ffffffffffffffffffffffffffffffffffffffff16815260200190815260200160002060010160405161152b9190614474565b60405180910390208373ffffffffffffffffffffffffffffffffffffffff167f2a5f7967c96cddc740f1a8ce989263f3f3c239229941ff452b1b77f79e6a6d7d600160008773ffffffffffffffffffffffffffffffffffffffff1673ffffffffffffffffffffffffffffffffffffffff16815260200190815260200160002060020154600160008873ffffffffffffffffffffffffffffffffffffffff1673ffffffffffffffffffffffffffffffffffffffff16815260200190815260200160002060030154600160008973ffffffffffffffffffffffffffffffffffffffff1673ffffffffffffffffffffffffffffffffffffffff168152602001908152602001600020600401546040516116439392919061448b565b60405180910390a4505050565b600d818154811061166057600080fd5b90600052602060002090600402016000915090508060000154908060010154908060020160009054906101000a900460ff16908060020160019054906101000a900460ff16908060020160029054906101000a900473ffffffffffffffffffffffffffffffffffffffff16908060030160009054906101000a900473ffffffffffffffffffffffffffffffffffffffff16905086565b6002818154811061170657600080fd5b906000526020600020906006020160009150905080600001549080600101805461172f906142a1565b80601f016020809104026020016040519081016040528092919081815260200182805461175b906142a1565b80156117a85780601f1061177d576101008083540402835291602001916117a8565b820191906000526020600020905b81548152906001019060200180831161178b57829003601f168201915b5050505050908060020154908060030154908060040154908060050160009054906101000a900460ff16908060050160019054906101000a900473ffffffffffffffffffffffffffffffffffffffff16905087565b6001602052806000526040600020600091509050806000015490806001018054611826906142a1565b80601f0160208091040260200160405190810160405280929190818152602001828054611852906142a1565b801561189f5780601f106118745761010080835404028352916020019161189f565b820191906000526020600020905b81548152906001019060200180831161188257829003601f168201915b5050505050908060020154908060030154908060040154908060050160009054906101000a900460ff16908060050160019054906101000a900473ffffffffffffffffffffffffffffffffffffffff16905087565b600c54600b6000600c5481526020019081526020016000206000018190555083600b6000600c5481526020019081526020016000206001018190555081600281111561194357611942613323565b5b600b6000600c54815260200190815260200160002060020160006101000a81548160ff0219169083600281111561197d5761197c613323565b5b021790555082600481111561199557611994613323565b5b600b6000600c54815260200190815260200160002060020160016101000a81548160ff021916908360048111156119cf576119ce613323565b5b021790555080600b6000600c54815260200190815260200160002060020160026101000a81548173ffffffffffffffffffffffffffffffffffffffff021916908373ffffffffffffffffffffffffffffffffffffffff160217905550600460009054906101000a900473ffffffffffffffffffffffffffffffffffffffff16600b6000600c54815260200190815260200160002060030160006101000a81548173ffffffffffffffffffffffffffffffffffffffff021916908373ffffffffffffffffffffffffffffffffffffffff1602179055507fa37382c33b9b24804052be2a7acff5b9a3825a23f2aa5762318ee66b171cf84d600c5485846002811115611adc57611adb613323565b5b866004811115611aef57611aee613323565b5b85600460009054906101000a900473ffffffffffffffffffffffffffffffffffffffff1642604051611b2797969594939291906144c2565b60405180910390a1600d6040518060c00160405280600c548152602001868152602001846002811115611b5d57611b5c613323565b5b6002811115611b6f57611b6e613323565b5b8152602001856004811115611b8757611b86613323565b5b6004811115611b9957611b98613323565b5b81526020018373ffffffffffffffffffffffffffffffffffffffff168152602001600460009054906101000a900473ffffffffffffffffffffffffffffffffffffffff1673ffffffffffffffffffffffffffffffffffffffff168152509080600181540180825580915050600190039060005260206000209060040201600090919091909150600082015181600001556020820151816001015560408201518160020160006101000a81548160ff02191690836002811115611c5e57611c5d613323565b5b021790555060608201518160020160016101000a81548160ff02191690836004811115611c8e57611c8d613323565b5b021790555060808201518160020160026101000a81548173ffffffffffffffffffffffffffffffffffffffff021916908373ffffffffffffffffffffffffffffffffffffffff16021790555060a08201518160030160006101000a81548173ffffffffffffffffffffffffffffffffffffffff021916908373ffffffffffffffffffffffffffffffffffffffff1602179055505050600c6000815480929190611d3690614560565b919050555050505050565b6000611d846040518060400160405280601a81526020017f6373643f534073616c61733b646c413233345f442e3b735f6173000000000000815250600654611317565b9050600654600560008373ffffffffffffffffffffffffffffffffffffffff1673ffffffffffffffffffffffffffffffffffffffff1681526020019081526020016000206000018190555083600560008373ffffffffffffffffffffffffffffffffffffffff1673ffffffffffffffffffffffffffffffffffffffff16815260200190815260200160002060010181905550826004811115611e2957611e28613323565b5b600560008373ffffffffffffffffffffffffffffffffffffffff1673ffffffffffffffffffffffffffffffffffffffff16815260200190815260200160002060020160006101000a81548160ff02191690836004811115611e8d57611e8c613323565b5b021790555081600560008373ffffffffffffffffffffffffffffffffffffffff1673ffffffffffffffffffffffffffffffffffffffff1681526020019081526020016000206003019080519060200190611ee8929190613189565b5080600560008373ffffffffffffffffffffffffffffffffffffffff1673ffffffffffffffffffffffffffffffffffffffff16815260200190815260200160002060040160006101000a81548173ffffffffffffffffffffffffffffffffffffffff021916908373ffffffffffffffffffffffffffffffffffffffff160217905550600460009054906101000a900473ffffffffffffffffffffffffffffffffffffffff16600560008373ffffffffffffffffffffffffffffffffffffffff1673ffffffffffffffffffffffffffffffffffffffff16815260200190815260200160002060050160006101000a81548173ffffffffffffffffffffffffffffffffffffffff021916908373ffffffffffffffffffffffffffffffffffffffff1602179055507fb4d7cf766344f0dab6a272ab11f55b042f020c99154e4e44f886d87c15a296696006548585600481111561204557612044613323565b5b8585600460009054906101000a900473ffffffffffffffffffffffffffffffffffffffff164260405161207e97969594939291906145a9565b60405180910390a160076040518060c0016040528060065481526020018681526020018560048111156120b4576120b3613323565b5b60048111156120c6576120c5613323565b5b81526020018481526020018373ffffffffffffffffffffffffffffffffffffffff168152602001600460009054906101000a900473ffffffffffffffffffffffffffffffffffffffff1673ffffffffffffffffffffffffffffffffffffffff168152509080600181540180825580915050600190039060005260206000209060060201600090919091909150600082015181600001556020820151816001015560408201518160020160006101000a81548160ff0219169083600481111561219157612190613323565b5b021790555060608201518160030190805190602001906121b2929190613189565b5060808201518160040160006101000a81548173ffffffffffffffffffffffffffffffffffffffff021916908373ffffffffffffffffffffffffffffffffffffffff16021790555060a08201518160050160006101000a81548173ffffffffffffffffffffffffffffffffffffffff021916908373ffffffffffffffffffffffffffffffffffffffff16021790555050506006600081548092919061225690614560565b919050555050505050565b60095481565b3373ffffffffffffffffffffffffffffffffffffffff1660008054906101000a900473ffffffffffffffffffffffffffffffffffffffff1673ffffffffffffffffffffffffffffffffffffffff16146122f5576040517f08c379a00000000000000000000000000000000000000000000000000000000081526004016122ec9061466b565b60405180910390fd5b600354600160008373ffffffffffffffffffffffffffffffffffffffff1673ffffffffffffffffffffffffffffffffffffffff1681526020019081526020016000206000018190555085600160008373ffffffffffffffffffffffffffffffffffffffff1673ffffffffffffffffffffffffffffffffffffffff1681526020019081526020016000206001019080519060200190612394929190613189565b5084600160008373ffffffffffffffffffffffffffffffffffffffff1673ffffffffffffffffffffffffffffffffffffffff1681526020019081526020016000206002018190555083600160008373ffffffffffffffffffffffffffffffffffffffff1673ffffffffffffffffffffffffffffffffffffffff1681526020019081526020016000206003018190555082600160008373ffffffffffffffffffffffffffffffffffffffff1673ffffffffffffffffffffffffffffffffffffffff1681526020019081526020016000206004018190555081600381111561247d5761247c613323565b5b600160008373ffffffffffffffffffffffffffffffffffffffff1673ffffffffffffffffffffffffffffffffffffffff16815260200190815260200160002060050160006101000a81548160ff021916908360038111156124e1576124e0613323565b5b021790555080600160008373ffffffffffffffffffffffffffffffffffffffff1673ffffffffffffffffffffffffffffffffffffffff16815260200190815260200160002060050160016101000a81548173ffffffffffffffffffffffffffffffffffffffff021916908373ffffffffffffffffffffffffffffffffffffffff16021790555081600381111561257a57612579613323565b5b600381111561258c5761258b613323565b5b8660405161259a919061468b565b60405180910390208273ffffffffffffffffffffffffffffffffffffffff167f2a5f7967c96cddc740f1a8ce989263f3f3c239229941ff452b1b77f79e6a6d7d8888886040516125ec9392919061448b565b60405180910390a460026040518060e00160405280600354815260200188815260200187815260200186815260200185815260200184600381111561263457612633613323565b5b600381111561264657612645613323565b5b81526020018373ffffffffffffffffffffffffffffffffffffffff1681525090806001815401808255809150506001900390600052602060002090600602016000909190919091506000820151816000015560208201518160010190805190602001906126b4929190613189565b5060408201518160020155606082015181600301556080820151816004015560a08201518160050160006101000a81548160ff021916908360038111156126fe576126fd613323565b5b021790555060c08201518160050160016101000a81548173ffffffffffffffffffffffffffffffffffffffff021916908373ffffffffffffffffffffffffffffffffffffffff16021790555050506003600081548092919061275f90614560565b9190505550505050505050565b60035481565b60606002805480602002602001604051908101604052809291908181526020016000905b8282101561291357838290600052602060002090600602016040518060e0016040529081600082015481526020016001820180546127d3906142a1565b80601f01602080910402602001604051908101604052809291908181526020018280546127ff906142a1565b801561284c5780601f106128215761010080835404028352916020019161284c565b820191906000526020600020905b81548152906001019060200180831161282f57829003601f168201915b505050505081526020016002820154815260200160038201548152602001600482015481526020016005820160009054906101000a900460ff16600381111561289857612897613323565b5b60038111156128aa576128a9613323565b5b81526020016005820160019054906101000a900473ffffffffffffffffffffffffffffffffffffffff1673ffffffffffffffffffffffffffffffffffffffff1673ffffffffffffffffffffffffffffffffffffffff168152505081526020019060010190612796565b50505050905090565b600954600860008373ffffffffffffffffffffffffffffffffffffffff1673ffffffffffffffffffffffffffffffffffffffff1681526020019081526020016000206000018190555083600860008373ffffffffffffffffffffffffffffffffffffffff1673ffffffffffffffffffffffffffffffffffffffff1681526020019081526020016000206001018190555060405180602001604052806000815250600860008373ffffffffffffffffffffffffffffffffffffffff1673ffffffffffffffffffffffffffffffffffffffff1681526020019081526020016000206002019080519060200190612a11929190613189565b50826004811115612a2557612a24613323565b5b600860008373ffffffffffffffffffffffffffffffffffffffff1673ffffffffffffffffffffffffffffffffffffffff16815260200190815260200160002060030160006101000a81548160ff02191690836004811115612a8957612a88613323565b5b0217905550816002811115612aa157612aa0613323565b5b600860008373ffffffffffffffffffffffffffffffffffffffff1673ffffffffffffffffffffffffffffffffffffffff16815260200190815260200160002060030160016101000a81548160ff02191690836002811115612b0557612b04613323565b5b021790555080600860008373ffffffffffffffffffffffffffffffffffffffff1673ffffffffffffffffffffffffffffffffffffffff16815260200190815260200160002060030160026101000a81548173ffffffffffffffffffffffffffffffffffffffff021916908373ffffffffffffffffffffffffffffffffffffffff160217905550600460009054906101000a900473ffffffffffffffffffffffffffffffffffffffff16600860008373ffffffffffffffffffffffffffffffffffffffff1673ffffffffffffffffffffffffffffffffffffffff16815260200190815260200160002060040160006101000a81548173ffffffffffffffffffffffffffffffffffffffff021916908373ffffffffffffffffffffffffffffffffffffffff160217905550612c3a848484846118f4565b7f87be34239a6efbc76467dfcce1a731d31788afcf9f57c4d8dc9fc04fe871101360095485856004811115612c7257612c71613323565b5b856002811115612c8557612c84613323565b5b85600460009054906101000a900473ffffffffffffffffffffffffffffffffffffffff1642604051612cbd97969594939291906146c8565b60405180910390a1600a6040518060e001604052806009548152602001868152602001604051806020016040528060008152508152602001856004811115612d0857612d07613323565b5b6004811115612d1a57612d19613323565b5b8152602001846002811115612d3257612d31613323565b5b6002811115612d4457612d43613323565b5b81526020018373ffffffffffffffffffffffffffffffffffffffff168152602001600460009054906101000a900473ffffffffffffffffffffffffffffffffffffffff1673ffffffffffffffffffffffffffffffffffffffff16815250908060018154018082558091505060019003906000526020600020906005020160009091909190915060008201518160000155602082015181600101556040820151816002019080519060200190612dfa929190613189565b5060608201518160030160006101000a81548160ff02191690836004811115612e2657612e25613323565b5b021790555060808201518160030160016101000a81548160ff02191690836002811115612e5657612e55613323565b5b021790555060a08201518160030160026101000a81548173ffffffffffffffffffffffffffffffffffffffff021916908373ffffffffffffffffffffffffffffffffffffffff16021790555060c08201518160040160006101000a81548173ffffffffffffffffffffffffffffffffffffffff021916908373ffffffffffffffffffffffffffffffffffffffff160217905550505060096000815480929190612efe90614560565b919050555050505050565b6060600d805480602002602001604051908101604052809291908181526020016000905b8282101561309557838290600052602060002090600402016040518060c001604052908160008201548152602001600182015481526020016002820160009054906101000a900460ff166002811115612f8957612f88613323565b5b6002811115612f9b57612f9a613323565b5b81526020016002820160019054906101000a900460ff166004811115612fc457612fc3613323565b5b6004811115612fd657612fd5613323565b5b81526020016002820160029054906101000a900473ffffffffffffffffffffffffffffffffffffffff1673ffffffffffffffffffffffffffffffffffffffff1673ffffffffffffffffffffffffffffffffffffffff1681526020016003820160009054906101000a900473ffffffffffffffffffffffffffffffffffffffff1673ffffffffffffffffffffffffffffffffffffffff1673ffffffffffffffffffffffffffffffffffffffff168152505081526020019060010190612f2d565b50505050905090565b60065481565b6040518060c001604052806000815260200160008019168152602001600060048111156130d4576130d3613323565b5b815260200160608152602001600073ffffffffffffffffffffffffffffffffffffffff168152602001600073ffffffffffffffffffffffffffffffffffffffff1681525090565b6040518060e0016040528060008152602001606081526020016000801916815260200160008019168152602001600080191681526020016000600381111561316657613165613323565b5b8152602001600073ffffffffffffffffffffffffffffffffffffffff1681525090565b828054613195906142a1565b90600052602060002090601f0160209004810192826131b757600085556131fe565b82601f106131d057805160ff19168380011785556131fe565b828001600101855582156131fe579182015b828111156131fd5782518255916020019190600101906131e2565b5b50905061320b919061320f565b5090565b5b80821115613228576000816000905550600101613210565b5090565b600081519050919050565b600082825260208201905092915050565b6000819050602082019050919050565b6000819050919050565b61326b81613258565b82525050565b6000819050919050565b61328481613271565b82525050565b600081519050919050565b600082825260208201905092915050565b60005b838110156132c45780820151818401526020810190506132a9565b838111156132d3576000848401525b50505050565b6000601f19601f8301169050919050565b60006132f58261328a565b6132ff8185613295565b935061330f8185602086016132a6565b613318816132d9565b840191505092915050565b7f4e487b7100000000000000000000000000000000000000000000000000000000600052602160045260246000fd5b6005811061336357613362613323565b5b50565b600081905061337482613352565b919050565b600061338482613366565b9050919050565b61339481613379565b82525050565b600381106133ab576133aa613323565b5b50565b60008190506133bc8261339a565b919050565b60006133cc826133ae565b9050919050565b6133dc816133c1565b82525050565b600073ffffffffffffffffffffffffffffffffffffffff82169050919050565b600061340d826133e2565b9050919050565b61341d81613402565b82525050565b600060e08301600083015161343b6000860182613262565b50602083015161344e602086018261327b565b506040830151848203604086015261346682826132ea565b915050606083015161347b606086018261338b565b50608083015161348e60808601826133d3565b5060a08301516134a160a0860182613414565b5060c08301516134b460c0860182613414565b508091505092915050565b60006134cb8383613423565b905092915050565b6000602082019050919050565b60006134eb8261322c565b6134f58185613237565b93508360208202850161350785613248565b8060005b85811015613543578484038952815161352485826134bf565b945061352f836134d3565b925060208a0199505060018101905061350b565b50829750879550505050505092915050565b6000602082019050818103600083015261356f81846134e0565b905092915050565b6000604051905090565b600080fd5b600080fd5b61359481613402565b811461359f57600080fd5b50565b6000813590506135b18161358b565b92915050565b6000602082840312156135cd576135cc613581565b5b60006135db848285016135a2565b91505092915050565b600060c0830160008301516135fc6000860182613262565b50602083015161360f602086018261327b565b506040830151613622604086018261338b565b506060830151848203606086015261363a82826132ea565b915050608083015161364f6080860182613414565b5060a083015161366260a0860182613414565b508091505092915050565b6000602082019050818103600083015261368781846135e4565b905092915050565b61369881613258565b81146136a357600080fd5b50565b6000813590506136b58161368f565b92915050565b6000602082840312156136d1576136d0613581565b5b60006136df848285016136a6565b91505092915050565b6136f181613258565b82525050565b61370081613271565b82525050565b61370f81613379565b82525050565b600082825260208201905092915050565b60006137318261328a565b61373b8185613715565b935061374b8185602086016132a6565b613754816132d9565b840191505092915050565b61376881613402565b82525050565b600060c08201905061378360008301896136e8565b61379060208301886136f7565b61379d6040830187613706565b81810360608301526137af8186613726565b90506137be608083018561375f565b6137cb60a083018461375f565b979650505050505050565b600080604083850312156137ed576137ec613581565b5b60006137fb858286016136a6565b925050602061380c858286016136a6565b9150509250929050565b6004811061382757613826613323565b5b50565b600081905061383882613816565b919050565b60006138488261382a565b9050919050565b6138588161383d565b82525050565b600060e0830160008301516138766000860182613262565b506020830151848203602086015261388e82826132ea565b91505060408301516138a3604086018261327b565b5060608301516138b6606086018261327b565b5060808301516138c9608086018261327b565b5060a08301516138dc60a086018261384f565b5060c08301516138ef60c0860182613414565b508091505092915050565b60006020820190508181036000830152613914818461385e565b905092915050565b613925816133c1565b82525050565b600060e082019050613940600083018a6136e8565b61394d60208301896136f7565b818103604083015261395f8188613726565b905061396e6060830187613706565b61397b608083018661391c565b61398860a083018561375f565b61399560c083018461375f565b98975050505050505050565b60006020820190506139b660008301846136e8565b92915050565b600081519050919050565b600082825260208201905092915050565b6000819050602082019050919050565b600060c083016000830151613a006000860182613262565b506020830151613a13602086018261327b565b506040830151613a26604086018261338b565b5060608301518482036060860152613a3e82826132ea565b9150506080830151613a536080860182613414565b5060a0830151613a6660a0860182613414565b508091505092915050565b6000613a7d83836139e8565b905092915050565b6000602082019050919050565b6000613a9d826139bc565b613aa781856139c7565b935083602082028501613ab9856139d8565b8060005b85811015613af55784840389528151613ad68582613a71565b9450613ae183613a85565b925060208a01995050600181019050613abd565b50829750879550505050505092915050565b60006020820190508181036000830152613b218184613a92565b905092915050565b600060c082019050613b3e60008301896136e8565b613b4b60208301886136f7565b613b58604083018761391c565b613b656060830186613706565b613b72608083018561375f565b613b7f60a083018461375f565b979650505050505050565b600080fd5b600080fd5b7f4e487b7100000000000000000000000000000000000000000000000000000000600052604160045260246000fd5b613bcc826132d9565b810181811067ffffffffffffffff82111715613beb57613bea613b94565b5b80604052505050565b6000613bfe613577565b9050613c0a8282613bc3565b919050565b600067ffffffffffffffff821115613c2a57613c29613b94565b5b613c33826132d9565b9050602081019050919050565b82818337600083830152505050565b6000613c62613c5d84613c0f565b613bf4565b905082815260208101848484011115613c7e57613c7d613b8f565b5b613c89848285613c40565b509392505050565b600082601f830112613ca657613ca5613b8a565b5b8135613cb6848260208601613c4f565b91505092915050565b60008060408385031215613cd657613cd5613581565b5b600083013567ffffffffffffffff811115613cf457613cf3613586565b5b613d0085828601613c91565b9250506020613d11858286016136a6565b9150509250929050565b6000602082019050613d30600083018461375f565b92915050565b60008060408385031215613d4d57613d4c613581565b5b6000613d5b858286016136a6565b9250506020613d6c858286016135a2565b9150509250929050565b613d7f8161383d565b82525050565b600060e082019050613d9a600083018a6136e8565b8181036020830152613dac8189613726565b9050613dbb60408301886136f7565b613dc860608301876136f7565b613dd560808301866136f7565b613de260a0830185613d76565b613def60c083018461375f565b98975050505050505050565b613e0481613271565b8114613e0f57600080fd5b50565b600081359050613e2181613dfb565b92915050565b60008060008060808587031215613e4157613e40613581565b5b6000613e4f87828801613e12565b9450506020613e60878288016136a6565b9350506040613e71878288016136a6565b9250506060613e82878288016135a2565b91505092959194509250565b600080600060608486031215613ea757613ea6613581565b5b6000613eb586828701613e12565b9350506020613ec6868287016136a6565b925050604084013567ffffffffffffffff811115613ee757613ee6613586565b5b613ef386828701613c91565b9150509250925092565b60008060008060008060c08789031215613f1a57613f19613581565b5b600087013567ffffffffffffffff811115613f3857613f37613586565b5b613f4489828a01613c91565b9650506020613f5589828a01613e12565b9550506040613f6689828a01613e12565b9450506060613f7789828a01613e12565b9350506080613f8889828a016136a6565b92505060a0613f9989828a016135a2565b9150509295509295509295565b600081519050919050565b600082825260208201905092915050565b6000819050602082019050919050565b600060e083016000830151613fea6000860182613262565b506020830151848203602086015261400282826132ea565b9150506040830151614017604086018261327b565b50606083015161402a606086018261327b565b50608083015161403d608086018261327b565b5060a083015161405060a086018261384f565b5060c083015161406360c0860182613414565b508091505092915050565b600061407a8383613fd2565b905092915050565b6000602082019050919050565b600061409a82613fa6565b6140a48185613fb1565b9350836020820285016140b685613fc2565b8060005b858110156140f257848403895281516140d3858261406e565b94506140de83614082565b925060208a019950506001810190506140ba565b50829750879550505050505092915050565b6000602082019050818103600083015261411e818461408f565b905092915050565b600081519050919050565b600082825260208201905092915050565b6000819050602082019050919050565b60c0820160008201516141686000850182613262565b50602082015161417b602085018261327b565b50604082015161418e60408501826133d3565b5060608201516141a1606085018261338b565b5060808201516141b46080850182613414565b5060a08201516141c760a0850182613414565b50505050565b60006141d98383614152565b60c08301905092915050565b6000602082019050919050565b60006141fd82614126565b6142078185614131565b935061421283614142565b8060005b8381101561424357815161422a88826141cd565b9750614235836141e5565b925050600181019050614216565b5085935050505092915050565b6000602082019050818103600083015261426a81846141f2565b905092915050565b7f4e487b7100000000000000000000000000000000000000000000000000000000600052602260045260246000fd5b600060028204905060018216806142b957607f821691505b602082108114156142cd576142cc614272565b5b50919050565b7f4e487b7100000000000000000000000000000000000000000000000000000000600052603260045260246000fd5b600081905092915050565b60006143188261328a565b6143228185614302565b93506143328185602086016132a6565b80840191505092915050565b60008160601b9050919050565b60006143568261433e565b9050919050565b60006143688261434b565b9050919050565b61438061437b82613402565b61435d565b82525050565b6000819050919050565b6143a161439c82613258565b614386565b82525050565b60006143b3828661430d565b91506143bf828561436f565b6014820191506143cf8284614390565b602082019150819050949350505050565b60008190508160005260206000209050919050565b60008154614402816142a1565b61440c8186614302565b9450600182166000811461442757600181146144385761446b565b60ff1983168652818601935061446b565b614441856143e0565b60005b8381101561446357815481890152600182019150602081019050614444565b838801955050505b50505092915050565b600061448082846143f5565b915081905092915050565b60006060820190506144a060008301866136f7565b6144ad60208301856136f7565b6144ba60408301846136f7565b949350505050565b600060e0820190506144d7600083018a6136e8565b6144e460208301896136f7565b6144f1604083018861391c565b6144fe6060830187613706565b61450b608083018661375f565b61451860a083018561375f565b61452560c08301846136e8565b98975050505050505050565b7f4e487b7100000000000000000000000000000000000000000000000000000000600052601160045260246000fd5b600061456b82613258565b91507fffffffffffffffffffffffffffffffffffffffffffffffffffffffffffffffff82141561459e5761459d614531565b5b600182019050919050565b600060e0820190506145be600083018a6136e8565b6145cb60208301896136f7565b6145d86040830188613706565b81810360608301526145ea8187613726565b90506145f9608083018661375f565b61460660a083018561375f565b61461360c08301846136e8565b98975050505050505050565b7f596f7520617265206e6f7420616e206f776e6572000000000000000000000000600082015250565b6000614655601483613715565b91506146608261461f565b602082019050919050565b6000602082019050818103600083015261468481614648565b9050919050565b6000614697828461430d565b915081905092915050565b50565b60006146b2600083613715565b91506146bd826146a2565b600082019050919050565b6000610100820190506146de600083018a6136e8565b6146eb60208301896136f7565b81810360408301526146fc816146a5565b905061470b6060830188613706565b614718608083018761391c565b61472560a083018661375f565b61473260c083018561375f565b61473f60e08301846136e8565b9897505050505050505056fea26469706673582212206e55d8cf4c80cb72512e129a07d05c606830a5262fc6a428c92406b6bf72d39564736f6c634300080a0033",
  "immutableReferences": {},
  "source": "// SPDX-License-Identifier: MIT\r\npragma solidity >=0.8.0 <0.9.0;\r\n\r\nimport \"./UserChain.sol\";\r\nimport \"./CompanyChain.sol\";\r\nimport \"./SupervisorChain.sol\";\r\n\r\nimport \"./SharedChain.sol\";\r\n\r\n// Put constraints on the app based on role not address......\r\n\r\ncontract ProjectChain is UserChain, SharedChain {\r\n    string constant HASH_bytes32_VALUE = \"csd?S@salas;dlA234_D.;s_as\";\r\n    address _projectInitiator;\r\n\r\n    // Project Contract Data\r\n    mapping(address => Project) public projects;\r\n    uint public projectsCounter = 0;\r\n    Project[] public allProjects;\r\n\r\n    mapping(address => ProjectRequest) public projectRequests;\r\n    uint public projectRequestsCounter = 0;\r\n    ProjectRequest[] public allProjectRequests;\r\n\r\n    constructor() {\r\n        _projectInitiator = msg.sender;\r\n    }\r\n\r\n    modifier onlyProjectInitiator {\r\n        require(users[_projectInitiator]._role == Roles.ProjectInitiator, \"You don't have the rights for this resources.\");\r\n        require(_projectInitiator == msg.sender, \"You are not a project initiator\");\r\n        _;\r\n    }\r\n\r\n    function createUniqueHexAddress(string memory _text, uint _index) public view returns (address) {\r\n        return address(uint160(uint256(keccak256(abi.encodePacked(_text, _projectInitiator, _index)))));\r\n    }\r\n\r\n    function createProject(bytes32 _name, uint _status, string memory _ipfsFileCID) public {\r\n        address _projectAddress = createUniqueHexAddress(HASH_bytes32_VALUE, projectsCounter);\r\n\r\n        projects[_projectAddress]._index = projectsCounter;\r\n        projects[_projectAddress]._name = _name;\r\n        projects[_projectAddress]._status = ProjectStatus(_status);\r\n        projects[_projectAddress]._ipfsFileCID = _ipfsFileCID;\r\n        projects[_projectAddress]._projectAddress = _projectAddress;\r\n        projects[_projectAddress]._userAddress = _projectInitiator;\r\n\r\n        emit ProjectEvent(projectsCounter, _name, ProjectStatus(_status), _ipfsFileCID, _projectAddress, _projectInitiator, block.timestamp);\r\n        allProjects.push(Project(projectsCounter, _name, ProjectStatus(_status), _ipfsFileCID, _projectAddress, _projectInitiator));\r\n        projectsCounter++;\r\n    }\r\n\r\n    function getProjectInfo(address _address) public view returns (Project memory) {\r\n        return projects[_address];\r\n    }\r\n\r\n    function getAllProjects() public view returns(Project[] memory) {\r\n        return allProjects;\r\n    }\r\n\r\n    function createProjectRequest(\r\n        bytes32 _title, uint _status,\r\n        uint _requestStatus, address _projectAddress\r\n    ) public {\r\n        projectRequests[_projectAddress]._index = projectRequestsCounter;\r\n        projectRequests[_projectAddress]._title = _title;\r\n        projectRequests[_projectAddress]._comments = '';\r\n        projectRequests[_projectAddress]._status = ProjectStatus(_status);\r\n        projectRequests[_projectAddress]._requestStatus = RequestStatus(_requestStatus);\r\n        projectRequests[_projectAddress]._projectAddress = _projectAddress;\r\n        projectRequests[_projectAddress]._userAddress = _projectInitiator;\r\n\r\n        createRequest(_title, _status, _requestStatus, _projectAddress);\r\n\r\n        emit ProjectRequestEvent(projectRequestsCounter, _title, '', ProjectStatus(_status), RequestStatus(_requestStatus), _projectAddress, _projectInitiator, block.timestamp);\r\n        allProjectRequests.push(ProjectRequest(projectRequestsCounter, _title, '', ProjectStatus(_status), RequestStatus(_requestStatus), _projectAddress, _projectInitiator));\r\n        projectRequestsCounter++;\r\n    }\r\n\r\n    function getAllProjectRequests() external view returns(ProjectRequest[] memory) {\r\n        return allProjectRequests;\r\n    }\r\n\r\n    // They will be filter after the status of the requests\r\n    mapping(uint => Request) public requests;\r\n    uint public requestsCounter = 0;\r\n    Request[] public allRequests;\r\n\r\n    function createRequest(\r\n        bytes32 _title,\r\n        uint _projectStatus,\r\n        uint _requestStatus,\r\n        address _projectAddress\r\n    ) public {\r\n        requests[requestsCounter]._index = requestsCounter;\r\n        requests[requestsCounter]._title = _title;\r\n        requests[requestsCounter]._requestStatus = RequestStatus(_requestStatus);\r\n        requests[requestsCounter]._projectStatus = ProjectStatus(_projectStatus);\r\n        requests[requestsCounter]._projectAddress = _projectAddress;\r\n        // change to supervisorAddress\r\n        requests[requestsCounter]._userAddress = _projectInitiator;\r\n\r\n        emit RequestEvent(requestsCounter, _title, RequestStatus(_requestStatus), ProjectStatus(_projectStatus), _projectAddress, _projectInitiator, block.timestamp);\r\n        allRequests.push(Request(requestsCounter, _title,  RequestStatus(_requestStatus), ProjectStatus(_projectStatus), _projectAddress, _projectInitiator));\r\n        requestsCounter++;\r\n    }\r\n\r\n    function updateRequest(uint _requestStatus, uint _index) public {\r\n        requests[_index]._requestStatus = RequestStatus(_requestStatus);\r\n        uint index = requests[_index]._index;\r\n        allRequests[index]._requestStatus = RequestStatus(_requestStatus);\r\n    }\r\n\r\n    function getAllRequests() public view returns(Request[] memory) {\r\n        return allRequests;\r\n    }\r\n\r\n}\r\n",
  "sourcePath": "/mnt/c/users/beniamin/source/repos/dissertationproject/contracts/ProjectChain.sol",
  "compiler": {
    "name": "solc",
    "version": "0.8.10+commit.fc410830.Emscripten.clang"
  },
  "schemaVersion": "3.4.3",
  "updatedAt": "2021-11-21T14:44:48.537Z",
  "networkType": "ethereum",
  "devdoc": {
    "kind": "dev",
    "methods": {},
    "version": 1
  },
  "userdoc": {
    "kind": "user",
    "methods": {},
    "version": 1
  }
}