{
  "contractName": "ProjectChain",
  "abi": [
    {
      "inputs": [],
      "stateMutability": "nonpayable",
      "type": "constructor"
    },
    {
      "anonymous": false,
      "inputs": [
        {
          "components": [
            {
              "internalType": "uint256",
              "name": "_index",
              "type": "uint256"
            },
            {
              "internalType": "string",
              "name": "_name",
              "type": "string"
            },
            {
              "internalType": "enum SharedChain.ProjectStatus",
              "name": "_status",
              "type": "uint8"
            },
            {
              "internalType": "string",
              "name": "_ipfsFileCID",
              "type": "string"
            },
            {
              "internalType": "address",
              "name": "_projectAddress",
              "type": "address"
            },
            {
              "internalType": "address",
              "name": "_signerAddress",
              "type": "address"
            },
            {
              "internalType": "uint256",
              "name": "_timestamp",
              "type": "uint256"
            },
            {
              "internalType": "string",
              "name": "_signature",
              "type": "string"
            }
          ],
          "indexed": false,
          "internalType": "struct SharedChain.Project",
          "name": "_project",
          "type": "tuple"
        },
        {
          "indexed": true,
          "internalType": "address",
          "name": "_projectAddress",
          "type": "address"
        }
      ],
      "name": "ProjectEvent",
      "type": "event"
    },
    {
      "anonymous": false,
      "inputs": [
        {
          "components": [
            {
              "internalType": "uint256",
              "name": "_index",
              "type": "uint256"
            },
            {
              "internalType": "string",
              "name": "_title",
              "type": "string"
            },
            {
              "internalType": "string",
              "name": "_comments",
              "type": "string"
            },
            {
              "internalType": "enum SharedChain.ProjectStatus",
              "name": "_status",
              "type": "uint8"
            },
            {
              "internalType": "enum SharedChain.RequestStatus",
              "name": "_requestStatus",
              "type": "uint8"
            },
            {
              "internalType": "address",
              "name": "_projectAddress",
              "type": "address"
            },
            {
              "internalType": "address",
              "name": "_signerAddress",
              "type": "address"
            },
            {
              "internalType": "address",
              "name": "_requestAddress",
              "type": "address"
            },
            {
              "internalType": "uint256",
              "name": "_timestamp",
              "type": "uint256"
            },
            {
              "internalType": "string",
              "name": "_signature",
              "type": "string"
            }
          ],
          "indexed": false,
          "internalType": "struct SharedChain.ProjectRequest",
          "name": "_projectRequest",
          "type": "tuple"
        },
        {
          "indexed": true,
          "internalType": "address",
          "name": "_projectAddress",
          "type": "address"
        }
      ],
      "name": "ProjectRequestEvent",
      "type": "event"
    },
    {
      "anonymous": false,
      "inputs": [
        {
          "components": [
            {
              "internalType": "uint256",
              "name": "_index",
              "type": "uint256"
            },
            {
              "internalType": "uint256",
              "name": "_indexProjectRequest",
              "type": "uint256"
            },
            {
              "internalType": "string",
              "name": "_title",
              "type": "string"
            },
            {
              "internalType": "enum SharedChain.RequestStatus",
              "name": "_requestStatus",
              "type": "uint8"
            },
            {
              "internalType": "enum SharedChain.ProjectStatus",
              "name": "_projectStatus",
              "type": "uint8"
            },
            {
              "internalType": "enum SharedChain.RequestType",
              "name": "_requestType",
              "type": "uint8"
            },
            {
              "internalType": "address",
              "name": "_projectAddress",
              "type": "address"
            },
            {
              "internalType": "address",
              "name": "_signerAddress",
              "type": "address"
            },
            {
              "internalType": "address",
              "name": "_requestAddress",
              "type": "address"
            },
            {
              "internalType": "uint256",
              "name": "_timestamp",
              "type": "uint256"
            },
            {
              "internalType": "string",
              "name": "_signature",
              "type": "string"
            }
          ],
          "indexed": false,
          "internalType": "struct SharedChain.Request",
          "name": "_request",
          "type": "tuple"
        }
      ],
      "name": "RequestEvent",
      "type": "event"
    },
    {
      "anonymous": false,
      "inputs": [
        {
          "components": [
            {
              "internalType": "uint256",
              "name": "_index",
              "type": "uint256"
            },
            {
              "internalType": "string",
              "name": "_username",
              "type": "string"
            },
            {
              "internalType": "bytes32",
              "name": "_email",
              "type": "bytes32"
            },
            {
              "internalType": "bytes32",
              "name": "_firstname",
              "type": "bytes32"
            },
            {
              "internalType": "bytes32",
              "name": "_lastname",
              "type": "bytes32"
            },
            {
              "internalType": "enum SharedChain.Roles",
              "name": "_role",
              "type": "uint8"
            },
            {
              "internalType": "address",
              "name": "_walletAddress",
              "type": "address"
            },
            {
              "internalType": "uint256",
              "name": "_timestamp",
              "type": "uint256"
            },
            {
              "internalType": "string",
              "name": "_signature",
              "type": "string"
            }
          ],
          "indexed": false,
          "internalType": "struct SharedChain.User",
          "name": "_user",
          "type": "tuple"
        },
        {
          "indexed": true,
          "internalType": "address",
          "name": "_walletAddress",
          "type": "address"
        }
      ],
      "name": "UserEvent",
      "type": "event"
    },
    {
      "inputs": [
        {
          "internalType": "uint256",
          "name": "_role",
          "type": "uint256"
        },
        {
          "internalType": "address",
          "name": "_walletAddress",
          "type": "address"
        },
        {
          "internalType": "string",
          "name": "_signature",
          "type": "string"
        }
      ],
      "name": "changeUserRole",
      "outputs": [],
      "stateMutability": "nonpayable",
      "type": "function"
    },
    {
      "inputs": [],
      "name": "getAllUsers",
      "outputs": [
        {
          "components": [
            {
              "internalType": "uint256",
              "name": "_index",
              "type": "uint256"
            },
            {
              "internalType": "string",
              "name": "_username",
              "type": "string"
            },
            {
              "internalType": "bytes32",
              "name": "_email",
              "type": "bytes32"
            },
            {
              "internalType": "bytes32",
              "name": "_firstname",
              "type": "bytes32"
            },
            {
              "internalType": "bytes32",
              "name": "_lastname",
              "type": "bytes32"
            },
            {
              "internalType": "enum SharedChain.Roles",
              "name": "_role",
              "type": "uint8"
            },
            {
              "internalType": "address",
              "name": "_walletAddress",
              "type": "address"
            },
            {
              "internalType": "uint256",
              "name": "_timestamp",
              "type": "uint256"
            },
            {
              "internalType": "string",
              "name": "_signature",
              "type": "string"
            }
          ],
          "internalType": "struct SharedChain.User[]",
          "name": "",
          "type": "tuple[]"
        }
      ],
      "stateMutability": "view",
      "type": "function"
    },
    {
      "inputs": [
        {
          "internalType": "address",
          "name": "_walletAddress",
          "type": "address"
        }
      ],
      "name": "getUserInfo",
      "outputs": [
        {
          "components": [
            {
              "internalType": "uint256",
              "name": "_index",
              "type": "uint256"
            },
            {
              "internalType": "string",
              "name": "_username",
              "type": "string"
            },
            {
              "internalType": "bytes32",
              "name": "_email",
              "type": "bytes32"
            },
            {
              "internalType": "bytes32",
              "name": "_firstname",
              "type": "bytes32"
            },
            {
              "internalType": "bytes32",
              "name": "_lastname",
              "type": "bytes32"
            },
            {
              "internalType": "enum SharedChain.Roles",
              "name": "_role",
              "type": "uint8"
            },
            {
              "internalType": "address",
              "name": "_walletAddress",
              "type": "address"
            },
            {
              "internalType": "uint256",
              "name": "_timestamp",
              "type": "uint256"
            },
            {
              "internalType": "string",
              "name": "_signature",
              "type": "string"
            }
          ],
          "internalType": "struct SharedChain.User",
          "name": "",
          "type": "tuple"
        }
      ],
      "stateMutability": "view",
      "type": "function"
    },
    {
      "inputs": [],
      "name": "owner",
      "outputs": [
        {
          "internalType": "address",
          "name": "",
          "type": "address"
        }
      ],
      "stateMutability": "view",
      "type": "function"
    },
    {
      "inputs": [
        {
          "internalType": "uint256",
          "name": "",
          "type": "uint256"
        }
      ],
      "name": "projectRequests",
      "outputs": [
        {
          "internalType": "uint256",
          "name": "_index",
          "type": "uint256"
        },
        {
          "internalType": "string",
          "name": "_title",
          "type": "string"
        },
        {
          "internalType": "string",
          "name": "_comments",
          "type": "string"
        },
        {
          "internalType": "enum SharedChain.ProjectStatus",
          "name": "_status",
          "type": "uint8"
        },
        {
          "internalType": "enum SharedChain.RequestStatus",
          "name": "_requestStatus",
          "type": "uint8"
        },
        {
          "internalType": "address",
          "name": "_projectAddress",
          "type": "address"
        },
        {
          "internalType": "address",
          "name": "_signerAddress",
          "type": "address"
        },
        {
          "internalType": "address",
          "name": "_requestAddress",
          "type": "address"
        },
        {
          "internalType": "uint256",
          "name": "_timestamp",
          "type": "uint256"
        },
        {
          "internalType": "string",
          "name": "_signature",
          "type": "string"
        }
      ],
      "stateMutability": "view",
      "type": "function"
    },
    {
      "inputs": [
        {
          "internalType": "uint256",
          "name": "",
          "type": "uint256"
        }
      ],
      "name": "projectRequestsAddress",
      "outputs": [
        {
          "internalType": "address",
          "name": "",
          "type": "address"
        }
      ],
      "stateMutability": "view",
      "type": "function"
    },
    {
      "inputs": [],
      "name": "projectRequestsCounter",
      "outputs": [
        {
          "internalType": "uint256",
          "name": "",
          "type": "uint256"
        }
      ],
      "stateMutability": "view",
      "type": "function"
    },
    {
      "inputs": [
        {
          "internalType": "address",
          "name": "",
          "type": "address"
        }
      ],
      "name": "projects",
      "outputs": [
        {
          "internalType": "uint256",
          "name": "_index",
          "type": "uint256"
        },
        {
          "internalType": "string",
          "name": "_name",
          "type": "string"
        },
        {
          "internalType": "enum SharedChain.ProjectStatus",
          "name": "_status",
          "type": "uint8"
        },
        {
          "internalType": "string",
          "name": "_ipfsFileCID",
          "type": "string"
        },
        {
          "internalType": "address",
          "name": "_projectAddress",
          "type": "address"
        },
        {
          "internalType": "address",
          "name": "_signerAddress",
          "type": "address"
        },
        {
          "internalType": "uint256",
          "name": "_timestamp",
          "type": "uint256"
        },
        {
          "internalType": "string",
          "name": "_signature",
          "type": "string"
        }
      ],
      "stateMutability": "view",
      "type": "function"
    },
    {
      "inputs": [
        {
          "internalType": "uint256",
          "name": "",
          "type": "uint256"
        }
      ],
      "name": "projectsAddress",
      "outputs": [
        {
          "internalType": "address",
          "name": "",
          "type": "address"
        }
      ],
      "stateMutability": "view",
      "type": "function"
    },
    {
      "inputs": [],
      "name": "projectsCounter",
      "outputs": [
        {
          "internalType": "uint256",
          "name": "",
          "type": "uint256"
        }
      ],
      "stateMutability": "view",
      "type": "function"
    },
    {
      "inputs": [
        {
          "internalType": "string",
          "name": "_username",
          "type": "string"
        },
        {
          "internalType": "bytes32",
          "name": "_email",
          "type": "bytes32"
        },
        {
          "internalType": "bytes32",
          "name": "_firstname",
          "type": "bytes32"
        },
        {
          "internalType": "bytes32",
          "name": "_lastname",
          "type": "bytes32"
        },
        {
          "internalType": "uint256",
          "name": "_role",
          "type": "uint256"
        },
        {
          "internalType": "address",
          "name": "_walletAddress",
          "type": "address"
        },
        {
          "internalType": "string",
          "name": "_signature",
          "type": "string"
        }
      ],
      "name": "registerUser",
      "outputs": [],
      "stateMutability": "nonpayable",
      "type": "function"
    },
    {
      "inputs": [
        {
          "internalType": "uint256",
          "name": "",
          "type": "uint256"
        }
      ],
      "name": "requests",
      "outputs": [
        {
          "internalType": "uint256",
          "name": "_index",
          "type": "uint256"
        },
        {
          "internalType": "uint256",
          "name": "_indexProjectRequest",
          "type": "uint256"
        },
        {
          "internalType": "string",
          "name": "_title",
          "type": "string"
        },
        {
          "internalType": "enum SharedChain.RequestStatus",
          "name": "_requestStatus",
          "type": "uint8"
        },
        {
          "internalType": "enum SharedChain.ProjectStatus",
          "name": "_projectStatus",
          "type": "uint8"
        },
        {
          "internalType": "enum SharedChain.RequestType",
          "name": "_requestType",
          "type": "uint8"
        },
        {
          "internalType": "address",
          "name": "_projectAddress",
          "type": "address"
        },
        {
          "internalType": "address",
          "name": "_signerAddress",
          "type": "address"
        },
        {
          "internalType": "address",
          "name": "_requestAddress",
          "type": "address"
        },
        {
          "internalType": "uint256",
          "name": "_timestamp",
          "type": "uint256"
        },
        {
          "internalType": "string",
          "name": "_signature",
          "type": "string"
        }
      ],
      "stateMutability": "view",
      "type": "function"
    },
    {
      "inputs": [],
      "name": "requestsCounter",
      "outputs": [
        {
          "internalType": "uint256",
          "name": "",
          "type": "uint256"
        }
      ],
      "stateMutability": "view",
      "type": "function"
    },
    {
      "inputs": [
        {
          "internalType": "address",
          "name": "",
          "type": "address"
        }
      ],
      "name": "users",
      "outputs": [
        {
          "internalType": "uint256",
          "name": "_index",
          "type": "uint256"
        },
        {
          "internalType": "string",
          "name": "_username",
          "type": "string"
        },
        {
          "internalType": "bytes32",
          "name": "_email",
          "type": "bytes32"
        },
        {
          "internalType": "bytes32",
          "name": "_firstname",
          "type": "bytes32"
        },
        {
          "internalType": "bytes32",
          "name": "_lastname",
          "type": "bytes32"
        },
        {
          "internalType": "enum SharedChain.Roles",
          "name": "_role",
          "type": "uint8"
        },
        {
          "internalType": "address",
          "name": "_walletAddress",
          "type": "address"
        },
        {
          "internalType": "uint256",
          "name": "_timestamp",
          "type": "uint256"
        },
        {
          "internalType": "string",
          "name": "_signature",
          "type": "string"
        }
      ],
      "stateMutability": "view",
      "type": "function"
    },
    {
      "inputs": [
        {
          "internalType": "uint256",
          "name": "",
          "type": "uint256"
        }
      ],
      "name": "usersAddress",
      "outputs": [
        {
          "internalType": "address",
          "name": "",
          "type": "address"
        }
      ],
      "stateMutability": "view",
      "type": "function"
    },
    {
      "inputs": [],
      "name": "usersCounter",
      "outputs": [
        {
          "internalType": "uint256",
          "name": "",
          "type": "uint256"
        }
      ],
      "stateMutability": "view",
      "type": "function"
    },
    {
      "inputs": [
        {
          "internalType": "string",
          "name": "_name",
          "type": "string"
        },
        {
          "internalType": "uint256",
          "name": "_index",
          "type": "uint256"
        }
      ],
      "name": "createUniqueProjectAddress",
      "outputs": [
        {
          "internalType": "address",
          "name": "",
          "type": "address"
        }
      ],
      "stateMutability": "view",
      "type": "function"
    },
    {
      "inputs": [
        {
          "internalType": "address",
          "name": "_projectAddress",
          "type": "address"
        },
        {
          "internalType": "string",
          "name": "_name",
          "type": "string"
        },
        {
          "internalType": "uint256",
          "name": "_status",
          "type": "uint256"
        },
        {
          "internalType": "string",
          "name": "_ipfsFileCID",
          "type": "string"
        },
        {
          "internalType": "string",
          "name": "_signature",
          "type": "string"
        }
      ],
      "name": "createProject",
      "outputs": [],
      "stateMutability": "nonpayable",
      "type": "function"
    },
    {
      "inputs": [
        {
          "internalType": "address",
          "name": "_projectAddress",
          "type": "address"
        },
        {
          "internalType": "string",
          "name": "_ipfsFileCID",
          "type": "string"
        },
        {
          "internalType": "string",
          "name": "_signature",
          "type": "string"
        }
      ],
      "name": "updateProject",
      "outputs": [],
      "stateMutability": "nonpayable",
      "type": "function"
    },
    {
      "inputs": [
        {
          "internalType": "address",
          "name": "_address",
          "type": "address"
        }
      ],
      "name": "getProjectInfo",
      "outputs": [
        {
          "components": [
            {
              "internalType": "uint256",
              "name": "_index",
              "type": "uint256"
            },
            {
              "internalType": "string",
              "name": "_name",
              "type": "string"
            },
            {
              "internalType": "enum SharedChain.ProjectStatus",
              "name": "_status",
              "type": "uint8"
            },
            {
              "internalType": "string",
              "name": "_ipfsFileCID",
              "type": "string"
            },
            {
              "internalType": "address",
              "name": "_projectAddress",
              "type": "address"
            },
            {
              "internalType": "address",
              "name": "_signerAddress",
              "type": "address"
            },
            {
              "internalType": "uint256",
              "name": "_timestamp",
              "type": "uint256"
            },
            {
              "internalType": "string",
              "name": "_signature",
              "type": "string"
            }
          ],
          "internalType": "struct SharedChain.Project",
          "name": "",
          "type": "tuple"
        }
      ],
      "stateMutability": "view",
      "type": "function"
    },
    {
      "inputs": [],
      "name": "getAllProjects",
      "outputs": [
        {
          "components": [
            {
              "internalType": "uint256",
              "name": "_index",
              "type": "uint256"
            },
            {
              "internalType": "string",
              "name": "_name",
              "type": "string"
            },
            {
              "internalType": "enum SharedChain.ProjectStatus",
              "name": "_status",
              "type": "uint8"
            },
            {
              "internalType": "string",
              "name": "_ipfsFileCID",
              "type": "string"
            },
            {
              "internalType": "address",
              "name": "_projectAddress",
              "type": "address"
            },
            {
              "internalType": "address",
              "name": "_signerAddress",
              "type": "address"
            },
            {
              "internalType": "uint256",
              "name": "_timestamp",
              "type": "uint256"
            },
            {
              "internalType": "string",
              "name": "_signature",
              "type": "string"
            }
          ],
          "internalType": "struct SharedChain.Project[]",
          "name": "",
          "type": "tuple[]"
        }
      ],
      "stateMutability": "view",
      "type": "function"
    },
    {
      "inputs": [
        {
          "internalType": "string",
          "name": "_title",
          "type": "string"
        },
        {
          "internalType": "uint256",
          "name": "_index",
          "type": "uint256"
        }
      ],
      "name": "createUniqueProjectRequestAddress",
      "outputs": [
        {
          "internalType": "address",
          "name": "",
          "type": "address"
        }
      ],
      "stateMutability": "view",
      "type": "function"
    },
    {
      "inputs": [
        {
          "internalType": "string",
          "name": "_title",
          "type": "string"
        },
        {
          "internalType": "uint256",
          "name": "_status",
          "type": "uint256"
        },
        {
          "internalType": "uint256",
          "name": "_requestStatus",
          "type": "uint256"
        },
        {
          "internalType": "address",
          "name": "_projectAddress",
          "type": "address"
        },
        {
          "internalType": "address",
          "name": "_projectReqAddress",
          "type": "address"
        },
        {
          "internalType": "string",
          "name": "_signature",
          "type": "string"
        }
      ],
      "name": "createProjectRequest",
      "outputs": [],
      "stateMutability": "nonpayable",
      "type": "function"
    },
    {
      "inputs": [],
      "name": "getAllProjectRequests",
      "outputs": [
        {
          "components": [
            {
              "internalType": "uint256",
              "name": "_index",
              "type": "uint256"
            },
            {
              "internalType": "string",
              "name": "_title",
              "type": "string"
            },
            {
              "internalType": "string",
              "name": "_comments",
              "type": "string"
            },
            {
              "internalType": "enum SharedChain.ProjectStatus",
              "name": "_status",
              "type": "uint8"
            },
            {
              "internalType": "enum SharedChain.RequestStatus",
              "name": "_requestStatus",
              "type": "uint8"
            },
            {
              "internalType": "address",
              "name": "_projectAddress",
              "type": "address"
            },
            {
              "internalType": "address",
              "name": "_signerAddress",
              "type": "address"
            },
            {
              "internalType": "address",
              "name": "_requestAddress",
              "type": "address"
            },
            {
              "internalType": "uint256",
              "name": "_timestamp",
              "type": "uint256"
            },
            {
              "internalType": "string",
              "name": "_signature",
              "type": "string"
            }
          ],
          "internalType": "struct SharedChain.ProjectRequest[]",
          "name": "",
          "type": "tuple[]"
        }
      ],
      "stateMutability": "view",
      "type": "function"
    },
    {
      "inputs": [
        {
          "internalType": "address",
          "name": "_projectAddress",
          "type": "address"
        }
      ],
      "name": "getLastProjectRequest",
      "outputs": [
        {
          "components": [
            {
              "internalType": "uint256",
              "name": "_index",
              "type": "uint256"
            },
            {
              "internalType": "string",
              "name": "_title",
              "type": "string"
            },
            {
              "internalType": "string",
              "name": "_comments",
              "type": "string"
            },
            {
              "internalType": "enum SharedChain.ProjectStatus",
              "name": "_status",
              "type": "uint8"
            },
            {
              "internalType": "enum SharedChain.RequestStatus",
              "name": "_requestStatus",
              "type": "uint8"
            },
            {
              "internalType": "address",
              "name": "_projectAddress",
              "type": "address"
            },
            {
              "internalType": "address",
              "name": "_signerAddress",
              "type": "address"
            },
            {
              "internalType": "address",
              "name": "_requestAddress",
              "type": "address"
            },
            {
              "internalType": "uint256",
              "name": "_timestamp",
              "type": "uint256"
            },
            {
              "internalType": "string",
              "name": "_signature",
              "type": "string"
            }
          ],
          "internalType": "struct SharedChain.ProjectRequest",
          "name": "",
          "type": "tuple"
        }
      ],
      "stateMutability": "view",
      "type": "function"
    },
    {
      "inputs": [
        {
          "internalType": "uint256",
          "name": "_index",
          "type": "uint256"
        },
        {
          "internalType": "uint256",
          "name": "_indexProjectRequest",
          "type": "uint256"
        },
        {
          "internalType": "string",
          "name": "_comments",
          "type": "string"
        },
        {
          "internalType": "uint256",
          "name": "_requestStatus",
          "type": "uint256"
        },
        {
          "internalType": "uint256",
          "name": "_projectStatus",
          "type": "uint256"
        },
        {
          "internalType": "address",
          "name": "_projectAddress",
          "type": "address"
        },
        {
          "internalType": "string",
          "name": "_signature",
          "type": "string"
        }
      ],
      "name": "updateRequest",
      "outputs": [],
      "stateMutability": "nonpayable",
      "type": "function"
    },
    {
      "inputs": [],
      "name": "getAllRequests",
      "outputs": [
        {
          "components": [
            {
              "internalType": "uint256",
              "name": "_index",
              "type": "uint256"
            },
            {
              "internalType": "uint256",
              "name": "_indexProjectRequest",
              "type": "uint256"
            },
            {
              "internalType": "string",
              "name": "_title",
              "type": "string"
            },
            {
              "internalType": "enum SharedChain.RequestStatus",
              "name": "_requestStatus",
              "type": "uint8"
            },
            {
              "internalType": "enum SharedChain.ProjectStatus",
              "name": "_projectStatus",
              "type": "uint8"
            },
            {
              "internalType": "enum SharedChain.RequestType",
              "name": "_requestType",
              "type": "uint8"
            },
            {
              "internalType": "address",
              "name": "_projectAddress",
              "type": "address"
            },
            {
              "internalType": "address",
              "name": "_signerAddress",
              "type": "address"
            },
            {
              "internalType": "address",
              "name": "_requestAddress",
              "type": "address"
            },
            {
              "internalType": "uint256",
              "name": "_timestamp",
              "type": "uint256"
            },
            {
              "internalType": "string",
              "name": "_signature",
              "type": "string"
            }
          ],
          "internalType": "struct SharedChain.Request[]",
          "name": "",
          "type": "tuple[]"
        }
      ],
      "stateMutability": "view",
      "type": "function"
    }
  ],
  "bytecode": "0x60806040526000600355600060065560006009556000600c5534801561002457600080fd5b50336000806101000a81548173ffffffffffffffffffffffffffffffffffffffff021916908373ffffffffffffffffffffffffffffffffffffffff16021790555033600460006101000a81548173ffffffffffffffffffffffffffffffffffffffff021916908373ffffffffffffffffffffffffffffffffffffffff1602179055506160a980620000b66000396000f3fe608060405234801561001057600080fd5b50600436106101a95760003560e01c8063840e78fd116100f9578063d67b1b9911610097578063e2842d7911610071578063e2842d7914610550578063fb1a002a1461056e578063fbdd64601461058c578063fe360ea5146105a8576101a9565b8063d67b1b99146104fa578063d6a6982314610518578063e1592c0d14610534576101a9565b8063a87430ba116100d3578063a87430ba1461044f578063b2ddb90714610487578063c19ded13146104a3578063cc1ee4db146104dc576101a9565b8063840e78fd146103de57806384485563146104155780638da5cb5b14610431576101a9565b80636386c1c71161016657806378e8cd851161014057806378e8cd85146103265780637bc406ec1461035657806380d038291461038657806381d12c58146103a4576101a9565b80636386c1c7146102a8578063663c2269146102d857806376c932e0146102f6576101a9565b80630b287892146101ae578063191e1645146101de5780632c91324c1461020e5780632d757d8e1461023e578063400003db1461025a57806347ee45b914610278575b600080fd5b6101c860048036038101906101c39190614069565b6105c6565b6040516101d591906142fe565b60405180910390f35b6101f860048036038101906101f39190614481565b610a16565b60405161020591906144ec565b60405180910390f35b61022860048036038101906102239190614507565b610a70565b60405161023591906144ec565b60405180910390f35b61025860048036038101906102539190614534565b610aaf565b005b610262610dc9565b60405161026f91906147b8565b60405180910390f35b610292600480360381019061028d9190614069565b6111e6565b60405161029f9190614898565b60405180910390f35b6102c260048036038101906102bd9190614069565b6114f1565b6040516102cf91906149e7565b60405180910390f35b6102e0611732565b6040516102ed9190614a18565b60405180910390f35b610310600480360381019061030b9190614507565b611738565b60405161031d91906144ec565b60405180910390f35b610340600480360381019061033b9190614507565b611777565b60405161034d91906144ec565b60405180910390f35b610370600480360381019061036b9190614481565b6117b6565b60405161037d91906144ec565b60405180910390f35b61038e611810565b60405161039b9190614bb3565b60405180910390f35b6103be60048036038101906103b99190614507565b611c0c565b6040516103d59b9a99989796959493929190614c85565b60405180910390f35b6103f860048036038101906103f39190614069565b611dfd565b60405161040c989796959493929190614d3e565b60405180910390f35b61042f600480360381019061042a9190614dd1565b61202a565b005b610439612351565b60405161044691906144ec565b60405180910390f35b61046960048036038101906104649190614069565b612375565b60405161047e99989796959493929190614ebe565b60405180910390f35b6104a1600480360381019061049c9190614f59565b612500565b005b6104bd60048036038101906104b89190614507565b6126ab565b6040516104d39a99989796959493929190614fc8565b60405180910390f35b6104e4612911565b6040516104f19190614a18565b60405180910390f35b610502612917565b60405161050f9190614a18565b60405180910390f35b610532600480360381019061052d91906150a5565b61291d565b005b61054e6004803603810190610549919061517f565b612c5d565b005b610558612d9c565b6040516105659190615398565b60405180910390f35b6105766130ba565b6040516105839190615581565b60405180910390f35b6105a660048036038101906105a191906155a3565b61348a565b005b6105b061383c565b6040516105bd9190614a18565b60405180910390f35b6105ce613cc9565b6105d6613cc9565b60006009541115610a0c57600060016009546105f29190615697565b90505b60008110610a0a576008600082815260200190815260200160002060030160029054906101000a900473ffffffffffffffffffffffffffffffffffffffff1673ffffffffffffffffffffffffffffffffffffffff168473ffffffffffffffffffffffffffffffffffffffff1614156109f757604051806101400160405280600860008481526020019081526020016000206000015481526020016008600084815260200190815260200160002060010180546106b0906156fa565b80601f01602080910402602001604051908101604052809291908181526020018280546106dc906156fa565b80156107295780601f106106fe57610100808354040283529160200191610729565b820191906000526020600020905b81548152906001019060200180831161070c57829003601f168201915b50505050508152602001600860008481526020019081526020016000206002018054610754906156fa565b80601f0160208091040260200160405190810160405280929190818152602001828054610780906156fa565b80156107cd5780601f106107a2576101008083540402835291602001916107cd565b820191906000526020600020905b8154815290600101906020018083116107b057829003601f168201915b505050505081526020016008600084815260200190815260200160002060030160009054906101000a900460ff16600481111561080d5761080c614148565b5b81526020016008600084815260200190815260200160002060030160019054906101000a900460ff16600281111561084857610847614148565b5b81526020016008600084815260200190815260200160002060030160029054906101000a900473ffffffffffffffffffffffffffffffffffffffff1673ffffffffffffffffffffffffffffffffffffffff1681526020016008600084815260200190815260200160002060040160009054906101000a900473ffffffffffffffffffffffffffffffffffffffff1673ffffffffffffffffffffffffffffffffffffffff1681526020016008600084815260200190815260200160002060050160009054906101000a900473ffffffffffffffffffffffffffffffffffffffff1673ffffffffffffffffffffffffffffffffffffffff16815260200142815260200160086000848152602001908152602001600020600701805461096a906156fa565b80601f0160208091040260200160405190810160405280929190818152602001828054610996906156fa565b80156109e35780601f106109b8576101008083540402835291602001916109e3565b820191906000526020600020905b8154815290600101906020018083116109c657829003601f168201915b505050505081525091508192505050610a11565b8080610a029061572c565b9150506105f5565b505b809150505b919050565b600082600460009054906101000a900473ffffffffffffffffffffffffffffffffffffffff1683604051602001610a4f939291906157fb565b6040516020818303038152906040528051906020012060001c905092915050565b60028181548110610a8057600080fd5b906000526020600020016000915054906101000a900473ffffffffffffffffffffffffffffffffffffffff1681565b836002811115610ac257610ac1614148565b5b600b600089815260200190815260200160002060030160006101000a81548160ff02191690836002811115610afa57610af9614148565b5b021790555080600b60008981526020019081526020016000206007019080519060200190610b29929190613d82565b507ff6ce78692ad338bc638c20ce19f064d65feafa9df8ee93c26325f243c24f714e600b6000898152602001908152602001600020604051610b6b9190615b2b565b60405180910390a184600860008881526020019081526020016000206002019080519060200190610b9d929190613d82565b50836002811115610bb157610bb0614148565b5b6008600088815260200190815260200160002060030160016101000a81548160ff02191690836002811115610be957610be8614148565b5b021790555080600860008881526020019081526020016000206007019080519060200190610c18929190613d82565b508173ffffffffffffffffffffffffffffffffffffffff167fb503855b01edd8caf0051e68bacef096056daa0d24478362eaa8a4f4b8a7130e60086000898152602001908152602001600020604051610c719190615cbf565b60405180910390a2836002811115610c8c57610c8b614148565b5b6002811115610c9e57610c9d614148565b5b600280811115610cb157610cb0614148565b5b1415610dc057826004811115610cca57610cc9614148565b5b600560008473ffffffffffffffffffffffffffffffffffffffff1673ffffffffffffffffffffffffffffffffffffffff16815260200190815260200160002060020160006101000a81548160ff02191690836004811115610d2e57610d2d614148565b5b02179055508173ffffffffffffffffffffffffffffffffffffffff167fac85378acf27ea180ea9b66d81dac89bcc984812edf7111c9413f708da4ca37a600560008573ffffffffffffffffffffffffffffffffffffffff1673ffffffffffffffffffffffffffffffffffffffff168152602001908152602001600020604051610db79190615dd5565b60405180910390a25b50505050505050565b60608060006009541415610de057809150506111e3565b60095467ffffffffffffffff811115610dfc57610dfb61432a565b5b604051908082528060200260200182016040528015610e3557816020015b610e22613cc9565b815260200190600190039081610e1a5790505b50905060005b6009548110156111dd576000600860008381526020019081526020016000209050806040518061014001604052908160008201548152602001600182018054610e83906156fa565b80601f0160208091040260200160405190810160405280929190818152602001828054610eaf906156fa565b8015610efc5780601f10610ed157610100808354040283529160200191610efc565b820191906000526020600020905b815481529060010190602001808311610edf57829003601f168201915b50505050508152602001600282018054610f15906156fa565b80601f0160208091040260200160405190810160405280929190818152602001828054610f41906156fa565b8015610f8e5780601f10610f6357610100808354040283529160200191610f8e565b820191906000526020600020905b815481529060010190602001808311610f7157829003601f168201915b505050505081526020016003820160009054906101000a900460ff166004811115610fbc57610fbb614148565b5b6004811115610fce57610fcd614148565b5b81526020016003820160019054906101000a900460ff166002811115610ff757610ff6614148565b5b600281111561100957611008614148565b5b81526020016003820160029054906101000a900473ffffffffffffffffffffffffffffffffffffffff1673ffffffffffffffffffffffffffffffffffffffff1673ffffffffffffffffffffffffffffffffffffffff1681526020016004820160009054906101000a900473ffffffffffffffffffffffffffffffffffffffff1673ffffffffffffffffffffffffffffffffffffffff1673ffffffffffffffffffffffffffffffffffffffff1681526020016005820160009054906101000a900473ffffffffffffffffffffffffffffffffffffffff1673ffffffffffffffffffffffffffffffffffffffff1673ffffffffffffffffffffffffffffffffffffffff16815260200160068201548152602001600782018054611129906156fa565b80601f0160208091040260200160405190810160405280929190818152602001828054611155906156fa565b80156111a25780601f10611177576101008083540402835291602001916111a2565b820191906000526020600020905b81548152906001019060200180831161118557829003601f168201915b5050505050815250508383815181106111be576111bd615df7565b5b60200260200101819052505080806111d590615e26565b915050610e3b565b50809150505b90565b6111ee613e08565b600560008373ffffffffffffffffffffffffffffffffffffffff1673ffffffffffffffffffffffffffffffffffffffff1681526020019081526020016000206040518061010001604052908160008201548152602001600182018054611253906156fa565b80601f016020809104026020016040519081016040528092919081815260200182805461127f906156fa565b80156112cc5780601f106112a1576101008083540402835291602001916112cc565b820191906000526020600020905b8154815290600101906020018083116112af57829003601f168201915b505050505081526020016002820160009054906101000a900460ff1660048111156112fa576112f9614148565b5b600481111561130c5761130b614148565b5b8152602001600382018054611320906156fa565b80601f016020809104026020016040519081016040528092919081815260200182805461134c906156fa565b80156113995780601f1061136e57610100808354040283529160200191611399565b820191906000526020600020905b81548152906001019060200180831161137c57829003601f168201915b505050505081526020016004820160009054906101000a900473ffffffffffffffffffffffffffffffffffffffff1673ffffffffffffffffffffffffffffffffffffffff1673ffffffffffffffffffffffffffffffffffffffff1681526020016005820160009054906101000a900473ffffffffffffffffffffffffffffffffffffffff1673ffffffffffffffffffffffffffffffffffffffff1673ffffffffffffffffffffffffffffffffffffffff16815260200160068201548152602001600782018054611468906156fa565b80601f0160208091040260200160405190810160405280929190818152602001828054611494906156fa565b80156114e15780601f106114b6576101008083540402835291602001916114e1565b820191906000526020600020905b8154815290600101906020018083116114c457829003601f168201915b5050505050815250509050919050565b6114f9613e8b565b600160008373ffffffffffffffffffffffffffffffffffffffff1673ffffffffffffffffffffffffffffffffffffffff168152602001908152602001600020604051806101200160405290816000820154815260200160018201805461155e906156fa565b80601f016020809104026020016040519081016040528092919081815260200182805461158a906156fa565b80156115d75780601f106115ac576101008083540402835291602001916115d7565b820191906000526020600020905b8154815290600101906020018083116115ba57829003601f168201915b505050505081526020016002820154815260200160038201548152602001600482015481526020016005820160009054906101000a900460ff16600381111561162357611622614148565b5b600381111561163557611634614148565b5b81526020016005820160019054906101000a900473ffffffffffffffffffffffffffffffffffffffff1673ffffffffffffffffffffffffffffffffffffffff1673ffffffffffffffffffffffffffffffffffffffff168152602001600682015481526020016007820180546116a9906156fa565b80601f01602080910402602001604051908101604052809291908181526020018280546116d5906156fa565b80156117225780601f106116f757610100808354040283529160200191611722565b820191906000526020600020905b81548152906001019060200180831161170557829003601f168201915b5050505050815250509050919050565b600c5481565b6007818154811061174857600080fd5b906000526020600020016000915054906101000a900473ffffffffffffffffffffffffffffffffffffffff1681565b600a818154811061178757600080fd5b906000526020600020016000915054906101000a900473ffffffffffffffffffffffffffffffffffffffff1681565b600082600460009054906101000a900473ffffffffffffffffffffffffffffffffffffffff16836040516020016117ef939291906157fb565b6040516020818303038152906040528051906020012060001c905092915050565b606080600060065414156118275780915050611c09565b60065467ffffffffffffffff8111156118435761184261432a565b5b60405190808252806020026020018201604052801561187c57816020015b611869613e08565b8152602001906001900390816118615790505b50905060005b600654811015611c03576000600782815481106118a2576118a1615df7565b5b9060005260206000200160009054906101000a900473ffffffffffffffffffffffffffffffffffffffff1690506000600560008373ffffffffffffffffffffffffffffffffffffffff1673ffffffffffffffffffffffffffffffffffffffff1681526020019081526020016000209050806040518061010001604052908160008201548152602001600182018054611939906156fa565b80601f0160208091040260200160405190810160405280929190818152602001828054611965906156fa565b80156119b25780601f10611987576101008083540402835291602001916119b2565b820191906000526020600020905b81548152906001019060200180831161199557829003601f168201915b505050505081526020016002820160009054906101000a900460ff1660048111156119e0576119df614148565b5b60048111156119f2576119f1614148565b5b8152602001600382018054611a06906156fa565b80601f0160208091040260200160405190810160405280929190818152602001828054611a32906156fa565b8015611a7f5780601f10611a5457610100808354040283529160200191611a7f565b820191906000526020600020905b815481529060010190602001808311611a6257829003601f168201915b505050505081526020016004820160009054906101000a900473ffffffffffffffffffffffffffffffffffffffff1673ffffffffffffffffffffffffffffffffffffffff1673ffffffffffffffffffffffffffffffffffffffff1681526020016005820160009054906101000a900473ffffffffffffffffffffffffffffffffffffffff1673ffffffffffffffffffffffffffffffffffffffff1673ffffffffffffffffffffffffffffffffffffffff16815260200160068201548152602001600782018054611b4e906156fa565b80601f0160208091040260200160405190810160405280929190818152602001828054611b7a906156fa565b8015611bc75780601f10611b9c57610100808354040283529160200191611bc7565b820191906000526020600020905b815481529060010190602001808311611baa57829003601f168201915b505050505081525050848481518110611be357611be2615df7565b5b602002602001018190525050508080611bfb90615e26565b915050611882565b50809150505b90565b600b602052806000526040600020600091509050806000015490806001015490806002018054611c3b906156fa565b80601f0160208091040260200160405190810160405280929190818152602001828054611c67906156fa565b8015611cb45780601f10611c8957610100808354040283529160200191611cb4565b820191906000526020600020905b815481529060010190602001808311611c9757829003601f168201915b5050505050908060030160009054906101000a900460ff16908060030160019054906101000a900460ff16908060030160029054906101000a900460ff16908060030160039054906101000a900473ffffffffffffffffffffffffffffffffffffffff16908060040160009054906101000a900473ffffffffffffffffffffffffffffffffffffffff16908060050160009054906101000a900473ffffffffffffffffffffffffffffffffffffffff1690806006015490806007018054611d7a906156fa565b80601f0160208091040260200160405190810160405280929190818152602001828054611da6906156fa565b8015611df35780601f10611dc857610100808354040283529160200191611df3565b820191906000526020600020905b815481529060010190602001808311611dd657829003601f168201915b505050505090508b565b6005602052806000526040600020600091509050806000015490806001018054611e26906156fa565b80601f0160208091040260200160405190810160405280929190818152602001828054611e52906156fa565b8015611e9f5780601f10611e7457610100808354040283529160200191611e9f565b820191906000526020600020905b815481529060010190602001808311611e8257829003601f168201915b5050505050908060020160009054906101000a900460ff1690806003018054611ec7906156fa565b80601f0160208091040260200160405190810160405280929190818152602001828054611ef3906156fa565b8015611f405780601f10611f1557610100808354040283529160200191611f40565b820191906000526020600020905b815481529060010190602001808311611f2357829003601f168201915b5050505050908060040160009054906101000a900473ffffffffffffffffffffffffffffffffffffffff16908060050160009054906101000a900473ffffffffffffffffffffffffffffffffffffffff1690806006015490806007018054611fa7906156fa565b80601f0160208091040260200160405190810160405280929190818152602001828054611fd3906156fa565b80156120205780601f10611ff557610100808354040283529160200191612020565b820191906000526020600020905b81548152906001019060200180831161200357829003601f168201915b5050505050905088565b604051806101000160405280600654815260200185815260200184600481111561205757612056614148565b5b600481111561206957612068614148565b5b81526020018381526020018673ffffffffffffffffffffffffffffffffffffffff168152602001600460009054906101000a900473ffffffffffffffffffffffffffffffffffffffff1673ffffffffffffffffffffffffffffffffffffffff16815260200142815260200182815250600560008773ffffffffffffffffffffffffffffffffffffffff1673ffffffffffffffffffffffffffffffffffffffff16815260200190815260200160002060008201518160000155602082015181600101908051906020019061213d929190613d82565b5060408201518160020160006101000a81548160ff0219169083600481111561216957612168614148565b5b0217905550606082015181600301908051906020019061218a929190613d82565b5060808201518160040160006101000a81548173ffffffffffffffffffffffffffffffffffffffff021916908373ffffffffffffffffffffffffffffffffffffffff16021790555060a08201518160050160006101000a81548173ffffffffffffffffffffffffffffffffffffffff021916908373ffffffffffffffffffffffffffffffffffffffff16021790555060c0820151816006015560e082015181600701908051906020019061223f929190613d82565b509050508473ffffffffffffffffffffffffffffffffffffffff167fac85378acf27ea180ea9b66d81dac89bcc984812edf7111c9413f708da4ca37a600560008873ffffffffffffffffffffffffffffffffffffffff1673ffffffffffffffffffffffffffffffffffffffff1681526020019081526020016000206040516122c79190615dd5565b60405180910390a26007859080600181540180825580915050600190039060005260206000200160009091909190916101000a81548173ffffffffffffffffffffffffffffffffffffffff021916908373ffffffffffffffffffffffffffffffffffffffff1602179055506006600081548092919061234590615e26565b91905055505050505050565b60008054906101000a900473ffffffffffffffffffffffffffffffffffffffff1681565b600160205280600052604060002060009150905080600001549080600101805461239e906156fa565b80601f01602080910402602001604051908101604052809291908181526020018280546123ca906156fa565b80156124175780601f106123ec57610100808354040283529160200191612417565b820191906000526020600020905b8154815290600101906020018083116123fa57829003601f168201915b5050505050908060020154908060030154908060040154908060050160009054906101000a900460ff16908060050160019054906101000a900473ffffffffffffffffffffffffffffffffffffffff169080600601549080600701805461247d906156fa565b80601f01602080910402602001604051908101604052809291908181526020018280546124a9906156fa565b80156124f65780601f106124cb576101008083540402835291602001916124f6565b820191906000526020600020905b8154815290600101906020018083116124d957829003601f168201915b5050505050905089565b82600381111561251357612512614148565b5b600160008473ffffffffffffffffffffffffffffffffffffffff1673ffffffffffffffffffffffffffffffffffffffff16815260200190815260200160002060050160006101000a81548160ff0219169083600381111561257757612576614148565b5b021790555042600160008473ffffffffffffffffffffffffffffffffffffffff1673ffffffffffffffffffffffffffffffffffffffff1681526020019081526020016000206006018190555080600160008473ffffffffffffffffffffffffffffffffffffffff1673ffffffffffffffffffffffffffffffffffffffff1681526020019081526020016000206007019080519060200190612619929190613d82565b508173ffffffffffffffffffffffffffffffffffffffff167fea397c4f2735f95720bbf4d2e061d639bec950d2f3e162d0b19e02a2354c7cca600160008573ffffffffffffffffffffffffffffffffffffffff1673ffffffffffffffffffffffffffffffffffffffff16815260200190815260200160002060405161269e9190615fe5565b60405180910390a2505050565b60086020528060005260406000206000915090508060000154908060010180546126d4906156fa565b80601f0160208091040260200160405190810160405280929190818152602001828054612700906156fa565b801561274d5780601f106127225761010080835404028352916020019161274d565b820191906000526020600020905b81548152906001019060200180831161273057829003601f168201915b505050505090806002018054612762906156fa565b80601f016020809104026020016040519081016040528092919081815260200182805461278e906156fa565b80156127db5780601f106127b0576101008083540402835291602001916127db565b820191906000526020600020905b8154815290600101906020018083116127be57829003601f168201915b5050505050908060030160009054906101000a900460ff16908060030160019054906101000a900460ff16908060030160029054906101000a900473ffffffffffffffffffffffffffffffffffffffff16908060040160009054906101000a900473ffffffffffffffffffffffffffffffffffffffff16908060050160009054906101000a900473ffffffffffffffffffffffffffffffffffffffff169080600601549080600701805461288e906156fa565b80601f01602080910402602001604051908101604052809291908181526020018280546128ba906156fa565b80156129075780601f106128dc57610100808354040283529160200191612907565b820191906000526020600020905b8154815290600101906020018083116128ea57829003601f168201915b505050505090508a565b60095481565b60035481565b3373ffffffffffffffffffffffffffffffffffffffff1660008054906101000a900473ffffffffffffffffffffffffffffffffffffffff1673ffffffffffffffffffffffffffffffffffffffff16146129ab576040517f08c379a00000000000000000000000000000000000000000000000000000000081526004016129a290616053565b60405180910390fd5b60405180610120016040528060035481526020018881526020018781526020018681526020018581526020018460038111156129ea576129e9614148565b5b60038111156129fc576129fb614148565b5b81526020018373ffffffffffffffffffffffffffffffffffffffff16815260200142815260200182815250600160008473ffffffffffffffffffffffffffffffffffffffff1673ffffffffffffffffffffffffffffffffffffffff168152602001908152602001600020600082015181600001556020820151816001019080519060200190612a8c929190613d82565b5060408201518160020155606082015181600301556080820151816004015560a08201518160050160006101000a81548160ff02191690836003811115612ad657612ad5614148565b5b021790555060c08201518160050160016101000a81548173ffffffffffffffffffffffffffffffffffffffff021916908373ffffffffffffffffffffffffffffffffffffffff16021790555060e08201518160060155610100820151816007019080519060200190612b49929190613d82565b509050508173ffffffffffffffffffffffffffffffffffffffff167fea397c4f2735f95720bbf4d2e061d639bec950d2f3e162d0b19e02a2354c7cca600160008573ffffffffffffffffffffffffffffffffffffffff1673ffffffffffffffffffffffffffffffffffffffff168152602001908152602001600020604051612bd19190615fe5565b60405180910390a26002829080600181540180825580915050600190039060005260206000200160009091909190916101000a81548173ffffffffffffffffffffffffffffffffffffffff021916908373ffffffffffffffffffffffffffffffffffffffff16021790555060036000815480929190612c4f90615e26565b919050555050505050505050565b81600560008573ffffffffffffffffffffffffffffffffffffffff1673ffffffffffffffffffffffffffffffffffffffff1681526020019081526020016000206003019080519060200190612cb3929190613d82565b5080600560008573ffffffffffffffffffffffffffffffffffffffff1673ffffffffffffffffffffffffffffffffffffffff1681526020019081526020016000206007019080519060200190612d0a929190613d82565b508273ffffffffffffffffffffffffffffffffffffffff167fac85378acf27ea180ea9b66d81dac89bcc984812edf7111c9413f708da4ca37a600560008673ffffffffffffffffffffffffffffffffffffffff1673ffffffffffffffffffffffffffffffffffffffff168152602001908152602001600020604051612d8f9190615dd5565b60405180910390a2505050565b6060600060035467ffffffffffffffff811115612dbc57612dbb61432a565b5b604051908082528060200260200182016040528015612df557816020015b612de2613e8b565b815260200190600190039081612dda5790505b50905060005b6003548110156130b257600060028281548110612e1b57612e1a615df7565b5b9060005260206000200160009054906101000a900473ffffffffffffffffffffffffffffffffffffffff1690506000600160008373ffffffffffffffffffffffffffffffffffffffff1673ffffffffffffffffffffffffffffffffffffffff1681526020019081526020016000209050806040518061012001604052908160008201548152602001600182018054612eb2906156fa565b80601f0160208091040260200160405190810160405280929190818152602001828054612ede906156fa565b8015612f2b5780601f10612f0057610100808354040283529160200191612f2b565b820191906000526020600020905b815481529060010190602001808311612f0e57829003601f168201915b505050505081526020016002820154815260200160038201548152602001600482015481526020016005820160009054906101000a900460ff166003811115612f7757612f76614148565b5b6003811115612f8957612f88614148565b5b81526020016005820160019054906101000a900473ffffffffffffffffffffffffffffffffffffffff1673ffffffffffffffffffffffffffffffffffffffff1673ffffffffffffffffffffffffffffffffffffffff16815260200160068201548152602001600782018054612ffd906156fa565b80601f0160208091040260200160405190810160405280929190818152602001828054613029906156fa565b80156130765780601f1061304b57610100808354040283529160200191613076565b820191906000526020600020905b81548152906001019060200180831161305957829003601f168201915b50505050508152505084848151811061309257613091615df7565b5b6020026020010181905250505080806130aa90615e26565b915050612dfb565b508091505090565b6060806000600c5414156130d15780915050613487565b600c5467ffffffffffffffff8111156130ed576130ec61432a565b5b60405190808252806020026020018201604052801561312657816020015b613113613f08565b81526020019060019003908161310b5790505b50905060005b600c54811015613481576000600b600083815260200190815260200160002090508060405180610160016040529081600082015481526020016001820154815260200160028201805461317e906156fa565b80601f01602080910402602001604051908101604052809291908181526020018280546131aa906156fa565b80156131f75780601f106131cc576101008083540402835291602001916131f7565b820191906000526020600020905b8154815290600101906020018083116131da57829003601f168201915b505050505081526020016003820160009054906101000a900460ff16600281111561322557613224614148565b5b600281111561323757613236614148565b5b81526020016003820160019054906101000a900460ff1660048111156132605761325f614148565b5b600481111561327257613271614148565b5b81526020016003820160029054906101000a900460ff16600181111561329b5761329a614148565b5b60018111156132ad576132ac614148565b5b81526020016003820160039054906101000a900473ffffffffffffffffffffffffffffffffffffffff1673ffffffffffffffffffffffffffffffffffffffff1673ffffffffffffffffffffffffffffffffffffffff1681526020016004820160009054906101000a900473ffffffffffffffffffffffffffffffffffffffff1673ffffffffffffffffffffffffffffffffffffffff1673ffffffffffffffffffffffffffffffffffffffff1681526020016005820160009054906101000a900473ffffffffffffffffffffffffffffffffffffffff1673ffffffffffffffffffffffffffffffffffffffff1673ffffffffffffffffffffffffffffffffffffffff168152602001600682015481526020016007820180546133cd906156fa565b80601f01602080910402602001604051908101604052809291908181526020018280546133f9906156fa565b80156134465780601f1061341b57610100808354040283529160200191613446565b820191906000526020600020905b81548152906001019060200180831161342957829003601f168201915b50505050508152505083838151811061346257613461615df7565b5b602002602001018190525050808061347990615e26565b91505061312c565b50809150505b90565b60405180610140016040528060095481526020018781526020016040518060200160405280600081525081526020018660048111156134cc576134cb614148565b5b60048111156134de576134dd614148565b5b81526020018560028111156134f6576134f5614148565b5b600281111561350857613507614148565b5b81526020018473ffffffffffffffffffffffffffffffffffffffff168152602001600460009054906101000a900473ffffffffffffffffffffffffffffffffffffffff1673ffffffffffffffffffffffffffffffffffffffff1681526020018373ffffffffffffffffffffffffffffffffffffffff168152602001428152602001828152506008600060095481526020019081526020016000206000820151816000015560208201518160010190805190602001906135c8929190613d82565b5060408201518160020190805190602001906135e5929190613d82565b5060608201518160030160006101000a81548160ff0219169083600481111561361157613610614148565b5b021790555060808201518160030160016101000a81548160ff0219169083600281111561364157613640614148565b5b021790555060a08201518160030160026101000a81548173ffffffffffffffffffffffffffffffffffffffff021916908373ffffffffffffffffffffffffffffffffffffffff16021790555060c08201518160040160006101000a81548173ffffffffffffffffffffffffffffffffffffffff021916908373ffffffffffffffffffffffffffffffffffffffff16021790555060e08201518160050160006101000a81548173ffffffffffffffffffffffffffffffffffffffff021916908373ffffffffffffffffffffffffffffffffffffffff1602179055506101008201518160060155610120820151816007019080519060200190613743929190613d82565b509050506137576009548786888787613842565b8273ffffffffffffffffffffffffffffffffffffffff167fb503855b01edd8caf0051e68bacef096056daa0d24478362eaa8a4f4b8a7130e6008600060095481526020019081526020016000206040516137b19190615cbf565b60405180910390a2600a829080600181540180825580915050600190039060005260206000200160009091909190916101000a81548173ffffffffffffffffffffffffffffffffffffffff021916908373ffffffffffffffffffffffffffffffffffffffff1602179055506009600081548092919061382f90615e26565b9190505550505050505050565b60065481565b60006001600481111561385857613857614148565b5b84600481111561386b5761386a614148565b5b600481111561387d5761387c614148565b5b14806138bf57506003600481111561389857613897614148565b5b8460048111156138ab576138aa614148565b5b60048111156138bd576138bc614148565b5b145b806138ff57506004808111156138d8576138d7614148565b5b8460048111156138eb576138ea614148565b5b60048111156138fd576138fc614148565b5b145b1561390d5760009050613952565b6002600481111561392157613920614148565b5b84600481111561393457613933614148565b5b600481111561394657613945614148565b5b141561395157600190505b5b6139618787878785888861396a565b50505050505050565b604051806101600160405280600c54815260200188815260200187815260200186600281111561399d5761399c614148565b5b60028111156139af576139ae614148565b5b81526020018560048111156139c7576139c6614148565b5b60048111156139d9576139d8614148565b5b81526020018460018111156139f1576139f0614148565b5b81526020018373ffffffffffffffffffffffffffffffffffffffff168152602001600460009054906101000a900473ffffffffffffffffffffffffffffffffffffffff1673ffffffffffffffffffffffffffffffffffffffff1681526020018273ffffffffffffffffffffffffffffffffffffffff16815260200142815260200160405180602001604052806000815250815250600b6000600c54815260200190815260200160002060008201518160000155602082015181600101556040820151816002019080519060200190613aca929190613d82565b5060608201518160030160006101000a81548160ff02191690836002811115613af657613af5614148565b5b021790555060808201518160030160016101000a81548160ff02191690836004811115613b2657613b25614148565b5b021790555060a08201518160030160026101000a81548160ff02191690836001811115613b5657613b55614148565b5b021790555060c08201518160030160036101000a81548173ffffffffffffffffffffffffffffffffffffffff021916908373ffffffffffffffffffffffffffffffffffffffff16021790555060e08201518160040160006101000a81548173ffffffffffffffffffffffffffffffffffffffff021916908373ffffffffffffffffffffffffffffffffffffffff1602179055506101008201518160050160006101000a81548173ffffffffffffffffffffffffffffffffffffffff021916908373ffffffffffffffffffffffffffffffffffffffff1602179055506101208201518160060155610140820151816007019080519060200190613c59929190613d82565b509050507ff6ce78692ad338bc638c20ce19f064d65feafa9df8ee93c26325f243c24f714e600b6000600c548152602001908152602001600020604051613ca09190615b2b565b60405180910390a1600c6000815480929190613cbb90615e26565b919050555050505050505050565b60405180610140016040528060008152602001606081526020016060815260200160006004811115613cfe57613cfd614148565b5b815260200160006002811115613d1757613d16614148565b5b8152602001600073ffffffffffffffffffffffffffffffffffffffff168152602001600073ffffffffffffffffffffffffffffffffffffffff168152602001600073ffffffffffffffffffffffffffffffffffffffff16815260200160008152602001606081525090565b828054613d8e906156fa565b90600052602060002090601f016020900481019282613db05760008555613df7565b82601f10613dc957805160ff1916838001178555613df7565b82800160010185558215613df7579182015b82811115613df6578251825591602001919060010190613ddb565b5b509050613e049190613fda565b5090565b604051806101000160405280600081526020016060815260200160006004811115613e3657613e35614148565b5b815260200160608152602001600073ffffffffffffffffffffffffffffffffffffffff168152602001600073ffffffffffffffffffffffffffffffffffffffff16815260200160008152602001606081525090565b604051806101200160405280600081526020016060815260200160008019168152602001600080191681526020016000801916815260200160006003811115613ed757613ed6614148565b5b8152602001600073ffffffffffffffffffffffffffffffffffffffff16815260200160008152602001606081525090565b60405180610160016040528060008152602001600081526020016060815260200160006002811115613f3d57613f3c614148565b5b815260200160006004811115613f5657613f55614148565b5b815260200160006001811115613f6f57613f6e614148565b5b8152602001600073ffffffffffffffffffffffffffffffffffffffff168152602001600073ffffffffffffffffffffffffffffffffffffffff168152602001600073ffffffffffffffffffffffffffffffffffffffff16815260200160008152602001606081525090565b5b80821115613ff3576000816000905550600101613fdb565b5090565b6000604051905090565b600080fd5b600080fd5b600073ffffffffffffffffffffffffffffffffffffffff82169050919050565b60006140368261400b565b9050919050565b6140468161402b565b811461405157600080fd5b50565b6000813590506140638161403d565b92915050565b60006020828403121561407f5761407e614001565b5b600061408d84828501614054565b91505092915050565b6000819050919050565b6140a981614096565b82525050565b600081519050919050565b600082825260208201905092915050565b60005b838110156140e95780820151818401526020810190506140ce565b838111156140f8576000848401525b50505050565b6000601f19601f8301169050919050565b600061411a826140af565b61412481856140ba565b93506141348185602086016140cb565b61413d816140fe565b840191505092915050565b7f4e487b7100000000000000000000000000000000000000000000000000000000600052602160045260246000fd5b6005811061418857614187614148565b5b50565b600081905061419982614177565b919050565b60006141a98261418b565b9050919050565b6141b98161419e565b82525050565b600381106141d0576141cf614148565b5b50565b60008190506141e1826141bf565b919050565b60006141f1826141d3565b9050919050565b614201816141e6565b82525050565b6142108161402b565b82525050565b60006101408301600083015161422f60008601826140a0565b5060208301518482036020860152614247828261410f565b91505060408301518482036040860152614261828261410f565b915050606083015161427660608601826141b0565b50608083015161428960808601826141f8565b5060a083015161429c60a0860182614207565b5060c08301516142af60c0860182614207565b5060e08301516142c260e0860182614207565b506101008301516142d76101008601826140a0565b506101208301518482036101208601526142f1828261410f565b9150508091505092915050565b600060208201905081810360008301526143188184614216565b905092915050565b600080fd5b600080fd5b7f4e487b7100000000000000000000000000000000000000000000000000000000600052604160045260246000fd5b614362826140fe565b810181811067ffffffffffffffff821117156143815761438061432a565b5b80604052505050565b6000614394613ff7565b90506143a08282614359565b919050565b600067ffffffffffffffff8211156143c0576143bf61432a565b5b6143c9826140fe565b9050602081019050919050565b82818337600083830152505050565b60006143f86143f3846143a5565b61438a565b90508281526020810184848401111561441457614413614325565b5b61441f8482856143d6565b509392505050565b600082601f83011261443c5761443b614320565b5b813561444c8482602086016143e5565b91505092915050565b61445e81614096565b811461446957600080fd5b50565b60008135905061447b81614455565b92915050565b6000806040838503121561449857614497614001565b5b600083013567ffffffffffffffff8111156144b6576144b5614006565b5b6144c285828601614427565b92505060206144d38582860161446c565b9150509250929050565b6144e68161402b565b82525050565b600060208201905061450160008301846144dd565b92915050565b60006020828403121561451d5761451c614001565b5b600061452b8482850161446c565b91505092915050565b600080600080600080600060e0888a03121561455357614552614001565b5b60006145618a828b0161446c565b97505060206145728a828b0161446c565b965050604088013567ffffffffffffffff81111561459357614592614006565b5b61459f8a828b01614427565b95505060606145b08a828b0161446c565b94505060806145c18a828b0161446c565b93505060a06145d28a828b01614054565b92505060c088013567ffffffffffffffff8111156145f3576145f2614006565b5b6145ff8a828b01614427565b91505092959891949750929550565b600081519050919050565b600082825260208201905092915050565b6000819050602082019050919050565b60006101408301600083015161465360008601826140a0565b506020830151848203602086015261466b828261410f565b91505060408301518482036040860152614685828261410f565b915050606083015161469a60608601826141b0565b5060808301516146ad60808601826141f8565b5060a08301516146c060a0860182614207565b5060c08301516146d360c0860182614207565b5060e08301516146e660e0860182614207565b506101008301516146fb6101008601826140a0565b50610120830151848203610120860152614715828261410f565b9150508091505092915050565b600061472e838361463a565b905092915050565b6000602082019050919050565b600061474e8261460e565b6147588185614619565b93508360208202850161476a8561462a565b8060005b858110156147a657848403895281516147878582614722565b945061479283614736565b925060208a0199505060018101905061476e565b50829750879550505050505092915050565b600060208201905081810360008301526147d28184614743565b905092915050565b6000610100830160008301516147f360008601826140a0565b506020830151848203602086015261480b828261410f565b915050604083015161482060408601826141b0565b5060608301518482036060860152614838828261410f565b915050608083015161484d6080860182614207565b5060a083015161486060a0860182614207565b5060c083015161487360c08601826140a0565b5060e083015184820360e086015261488b828261410f565b9150508091505092915050565b600060208201905081810360008301526148b281846147da565b905092915050565b6000819050919050565b6148cd816148ba565b82525050565b600481106148e4576148e3614148565b5b50565b60008190506148f5826148d3565b919050565b6000614905826148e7565b9050919050565b614915816148fa565b82525050565b60006101208301600083015161493460008601826140a0565b506020830151848203602086015261494c828261410f565b915050604083015161496160408601826148c4565b50606083015161497460608601826148c4565b50608083015161498760808601826148c4565b5060a083015161499a60a086018261490c565b5060c08301516149ad60c0860182614207565b5060e08301516149c060e08601826140a0565b506101008301518482036101008601526149da828261410f565b9150508091505092915050565b60006020820190508181036000830152614a01818461491b565b905092915050565b614a1281614096565b82525050565b6000602082019050614a2d6000830184614a09565b92915050565b600081519050919050565b600082825260208201905092915050565b6000819050602082019050919050565b600061010083016000830151614a7860008601826140a0565b5060208301518482036020860152614a90828261410f565b9150506040830151614aa560408601826141b0565b5060608301518482036060860152614abd828261410f565b9150506080830151614ad26080860182614207565b5060a0830151614ae560a0860182614207565b5060c0830151614af860c08601826140a0565b5060e083015184820360e0860152614b10828261410f565b9150508091505092915050565b6000614b298383614a5f565b905092915050565b6000602082019050919050565b6000614b4982614a33565b614b538185614a3e565b935083602082028501614b6585614a4f565b8060005b85811015614ba15784840389528151614b828582614b1d565b9450614b8d83614b31565b925060208a01995050600181019050614b69565b50829750879550505050505092915050565b60006020820190508181036000830152614bcd8184614b3e565b905092915050565b600082825260208201905092915050565b6000614bf1826140af565b614bfb8185614bd5565b9350614c0b8185602086016140cb565b614c14816140fe565b840191505092915050565b614c28816141e6565b82525050565b614c378161419e565b82525050565b60028110614c4e57614c4d614148565b5b50565b6000819050614c5f82614c3d565b919050565b6000614c6f82614c51565b9050919050565b614c7f81614c64565b82525050565b600061016082019050614c9b600083018e614a09565b614ca8602083018d614a09565b8181036040830152614cba818c614be6565b9050614cc9606083018b614c1f565b614cd6608083018a614c2e565b614ce360a0830189614c76565b614cf060c08301886144dd565b614cfd60e08301876144dd565b614d0b6101008301866144dd565b614d19610120830185614a09565b818103610140830152614d2c8184614be6565b90509c9b505050505050505050505050565b600061010082019050614d54600083018b614a09565b8181036020830152614d66818a614be6565b9050614d756040830189614c2e565b8181036060830152614d878188614be6565b9050614d9660808301876144dd565b614da360a08301866144dd565b614db060c0830185614a09565b81810360e0830152614dc28184614be6565b90509998505050505050505050565b600080600080600060a08688031215614ded57614dec614001565b5b6000614dfb88828901614054565b955050602086013567ffffffffffffffff811115614e1c57614e1b614006565b5b614e2888828901614427565b9450506040614e398882890161446c565b935050606086013567ffffffffffffffff811115614e5a57614e59614006565b5b614e6688828901614427565b925050608086013567ffffffffffffffff811115614e8757614e86614006565b5b614e9388828901614427565b9150509295509295909350565b614ea9816148ba565b82525050565b614eb8816148fa565b82525050565b600061012082019050614ed4600083018c614a09565b8181036020830152614ee6818b614be6565b9050614ef5604083018a614ea0565b614f026060830189614ea0565b614f0f6080830188614ea0565b614f1c60a0830187614eaf565b614f2960c08301866144dd565b614f3660e0830185614a09565b818103610100830152614f498184614be6565b90509a9950505050505050505050565b600080600060608486031215614f7257614f71614001565b5b6000614f808682870161446c565b9350506020614f9186828701614054565b925050604084013567ffffffffffffffff811115614fb257614fb1614006565b5b614fbe86828701614427565b9150509250925092565b600061014082019050614fde600083018d614a09565b8181036020830152614ff0818c614be6565b90508181036040830152615004818b614be6565b9050615013606083018a614c2e565b6150206080830189614c1f565b61502d60a08301886144dd565b61503a60c08301876144dd565b61504760e08301866144dd565b615055610100830185614a09565b8181036101208301526150688184614be6565b90509b9a5050505050505050505050565b615082816148ba565b811461508d57600080fd5b50565b60008135905061509f81615079565b92915050565b600080600080600080600060e0888a0312156150c4576150c3614001565b5b600088013567ffffffffffffffff8111156150e2576150e1614006565b5b6150ee8a828b01614427565b97505060206150ff8a828b01615090565b96505060406151108a828b01615090565b95505060606151218a828b01615090565b94505060806151328a828b0161446c565b93505060a06151438a828b01614054565b92505060c088013567ffffffffffffffff81111561516457615163614006565b5b6151708a828b01614427565b91505092959891949750929550565b60008060006060848603121561519857615197614001565b5b60006151a686828701614054565b935050602084013567ffffffffffffffff8111156151c7576151c6614006565b5b6151d386828701614427565b925050604084013567ffffffffffffffff8111156151f4576151f3614006565b5b61520086828701614427565b9150509250925092565b600081519050919050565b600082825260208201905092915050565b6000819050602082019050919050565b60006101208301600083015161524f60008601826140a0565b5060208301518482036020860152615267828261410f565b915050604083015161527c60408601826148c4565b50606083015161528f60608601826148c4565b5060808301516152a260808601826148c4565b5060a08301516152b560a086018261490c565b5060c08301516152c860c0860182614207565b5060e08301516152db60e08601826140a0565b506101008301518482036101008601526152f5828261410f565b9150508091505092915050565b600061530e8383615236565b905092915050565b6000602082019050919050565b600061532e8261520a565b6153388185615215565b93508360208202850161534a85615226565b8060005b8581101561538657848403895281516153678582615302565b945061537283615316565b925060208a0199505060018101905061534e565b50829750879550505050505092915050565b600060208201905081810360008301526153b28184615323565b905092915050565b600081519050919050565b600082825260208201905092915050565b6000819050602082019050919050565b6153ef81614c64565b82525050565b60006101608301600083015161540e60008601826140a0565b50602083015161542160208601826140a0565b5060408301518482036040860152615439828261410f565b915050606083015161544e60608601826141f8565b50608083015161546160808601826141b0565b5060a083015161547460a08601826153e6565b5060c083015161548760c0860182614207565b5060e083015161549a60e0860182614207565b506101008301516154af610100860182614207565b506101208301516154c46101208601826140a0565b506101408301518482036101408601526154de828261410f565b9150508091505092915050565b60006154f783836153f5565b905092915050565b6000602082019050919050565b6000615517826153ba565b61552181856153c5565b935083602082028501615533856153d6565b8060005b8581101561556f578484038952815161555085826154eb565b945061555b836154ff565b925060208a01995050600181019050615537565b50829750879550505050505092915050565b6000602082019050818103600083015261559b818461550c565b905092915050565b60008060008060008060c087890312156155c0576155bf614001565b5b600087013567ffffffffffffffff8111156155de576155dd614006565b5b6155ea89828a01614427565b96505060206155fb89828a0161446c565b955050604061560c89828a0161446c565b945050606061561d89828a01614054565b935050608061562e89828a01614054565b92505060a087013567ffffffffffffffff81111561564f5761564e614006565b5b61565b89828a01614427565b9150509295509295509295565b7f4e487b7100000000000000000000000000000000000000000000000000000000600052601160045260246000fd5b60006156a282614096565b91506156ad83614096565b9250828210156156c0576156bf615668565b5b828203905092915050565b7f4e487b7100000000000000000000000000000000000000000000000000000000600052602260045260246000fd5b6000600282049050600182168061571257607f821691505b60208210811415615726576157256156cb565b5b50919050565b600061573782614096565b9150600082141561574b5761574a615668565b5b600182039050919050565b600081905092915050565b600061576c826140af565b6157768185615756565b93506157868185602086016140cb565b80840191505092915050565b60008160601b9050919050565b60006157aa82615792565b9050919050565b60006157bc8261579f565b9050919050565b6157d46157cf8261402b565b6157b1565b82525050565b6000819050919050565b6157f56157f082614096565b6157da565b82525050565b60006158078286615761565b915061581382856157c3565b60148201915061582382846157e4565b602082019150819050949350505050565b60008160001c9050919050565b6000819050919050565b600061585e61585983615834565b615841565b9050919050565b60008190508160005260206000209050919050565b60008154615887816156fa565b61589181866140ba565b945060018216600081146158ac57600181146158be576158f1565b60ff19831686526020860193506158f1565b6158c785615865565b60005b838110156158e9578154818901526001820191506020810190506158ca565b808801955050505b50505092915050565b600060ff82169050919050565b600061591a61591583615834565b6158fa565b9050919050565b60008160081c9050919050565b600060ff82169050919050565b600061594e61594983615921565b61592e565b9050919050565b60008160101c9050919050565b600060ff82169050919050565b600061598261597d83615955565b615962565b9050919050565b60008160181c9050919050565b600073ffffffffffffffffffffffffffffffffffffffff82169050919050565b60006159c96159c483615989565b615996565b9050919050565b60006159e36159de83615834565b615996565b9050919050565b600061016083016000808401549050615a028161584b565b615a0f60008701826140a0565b5060018401549050615a208161584b565b615a2d60208701826140a0565b50600284018583036040870152615a44838261587a565b92505060038401549050615a5781615907565b615a6460608701826141f8565b50615a6e8161593b565b615a7b60808701826141b0565b50615a858161596f565b615a9260a08701826153e6565b50615a9c816159b6565b615aa960c0870182614207565b5060048401549050615aba816159d0565b615ac760e0870182614207565b5060058401549050615ad8816159d0565b615ae6610100870182614207565b5060068401549050615af78161584b565b615b056101208701826140a0565b5060078401858303610140870152615b1d838261587a565b925050819250505092915050565b60006020820190508181036000830152615b4581846159ea565b905092915050565b6000615b60615b5b83615834565b61592e565b9050919050565b6000615b7a615b7583615921565b6158fa565b9050919050565b6000615b94615b8f83615955565b615996565b9050919050565b600061014083016000808401549050615bb38161584b565b615bc060008701826140a0565b50600184018583036020870152615bd7838261587a565b925050600284018583036040870152615bf0838261587a565b92505060038401549050615c0381615b4d565b615c1060608701826141b0565b50615c1a81615b67565b615c2760808701826141f8565b50615c3181615b81565b615c3e60a0870182614207565b5060048401549050615c4f816159d0565b615c5c60c0870182614207565b5060058401549050615c6d816159d0565b615c7a60e0870182614207565b5060068401549050615c8b8161584b565b615c996101008701826140a0565b5060078401858303610120870152615cb1838261587a565b925050819250505092915050565b60006020820190508181036000830152615cd98184615b9b565b905092915050565b600061010083016000808401549050615cf98161584b565b615d0660008701826140a0565b50600184018583036020870152615d1d838261587a565b92505060028401549050615d3081615b4d565b615d3d60408701826141b0565b50600384018583036060870152615d54838261587a565b92505060048401549050615d67816159d0565b615d746080870182614207565b5060058401549050615d85816159d0565b615d9260a0870182614207565b5060068401549050615da38161584b565b615db060c08701826140a0565b506007840185830360e0870152615dc7838261587a565b925050819250505092915050565b60006020820190508181036000830152615def8184615ce1565b905092915050565b7f4e487b7100000000000000000000000000000000000000000000000000000000600052603260045260246000fd5b6000615e3182614096565b91507fffffffffffffffffffffffffffffffffffffffffffffffffffffffffffffffff821415615e6457615e63615668565b5b600182019050919050565b6000819050919050565b6000615e8c615e8783615834565b615e6f565b9050919050565b600060ff82169050919050565b6000615eb3615eae83615834565b615e93565b9050919050565b6000615ecd615ec883615921565b615996565b9050919050565b600061012083016000808401549050615eec8161584b565b615ef960008701826140a0565b50600184018583036020870152615f10838261587a565b92505060028401549050615f2381615e79565b615f3060408701826148c4565b5060038401549050615f4181615e79565b615f4e60608701826148c4565b5060048401549050615f5f81615e79565b615f6c60808701826148c4565b5060058401549050615f7d81615ea0565b615f8a60a087018261490c565b50615f9481615eba565b615fa160c0870182614207565b5060068401549050615fb28161584b565b615fbf60e08701826140a0565b5060078401858303610100870152615fd7838261587a565b925050819250505092915050565b60006020820190508181036000830152615fff8184615ed4565b905092915050565b7f596f7520617265206e6f7420616e206f776e6572000000000000000000000000600082015250565b600061603d601483614bd5565b915061604882616007565b602082019050919050565b6000602082019050818103600083015261606c81616030565b905091905056fea264697066735822122071039b974a665f177d3f267f4bc51b52df21df0f146f9c1cfbf7c1ad3a3aaab064736f6c634300080a0033",
  "immutableReferences": {},
  "source": "// SPDX-License-Identifier: MIT\r\npragma solidity >=0.8.0 <0.9.0;\r\n\r\nimport \"./UserChain.sol\";\r\nimport \"./SharedChain.sol\";\r\n\r\ncontract ProjectChain is UserChain {\r\n    address _projectInitiator;\r\n\r\n    constructor() {\r\n        _projectInitiator = msg.sender;\r\n    }\r\n\r\n    modifier onlyProjectInitiator() {\r\n        require(\r\n            users[_projectInitiator]._role == Roles.ProjectInitiator,\r\n            \"You don't have the rights for this resources.\"\r\n        );\r\n        _;\r\n    }\r\n\r\n    /**  PROJECT INITIATOR  */\r\n\r\n    mapping(address => Project) public projects;\r\n    uint256 public projectsCounter = 0;\r\n    address[] public projectsAddress;\r\n\r\n    function createUniqueProjectAddress(string memory _name, uint _index) public view returns (address) {\r\n        return address(uint160(uint256(keccak256(abi.encodePacked(_name,_projectInitiator,_index)))));\r\n    }\r\n\r\n    function createProject(\r\n        address _projectAddress,\r\n        string memory _name,\r\n        uint256 _status,\r\n        string memory _ipfsFileCID,\r\n        string memory _signature\r\n    ) public {\r\n        projects[_projectAddress] = Project(\r\n            projectsCounter,\r\n            _name,\r\n            ProjectStatus(_status),\r\n            _ipfsFileCID,\r\n            _projectAddress,\r\n            _projectInitiator,\r\n            block.timestamp,\r\n            _signature\r\n        );\r\n\r\n        emit ProjectEvent(projects[_projectAddress], _projectAddress);\r\n        projectsAddress.push(_projectAddress);\r\n        projectsCounter++;\r\n    }\r\n\r\n    function updateProject(\r\n        address _projectAddress,\r\n        string memory _ipfsFileCID,\r\n        string memory _signature\r\n    ) public {\r\n        projects[_projectAddress]._ipfsFileCID = _ipfsFileCID;\r\n        projects[_projectAddress]._signature = _signature;\r\n\r\n        emit ProjectEvent(projects[_projectAddress], _projectAddress);\r\n    }\r\n\r\n    function getProjectInfo(address _address)\r\n        public\r\n        view\r\n        returns (Project memory)\r\n    {\r\n        return projects[_address];\r\n    }\r\n\r\n    function getAllProjects() public view returns (Project[] memory) {\r\n        Project[] memory allProjects;\r\n        if (projectsCounter == 0) return allProjects;\r\n\r\n        allProjects = new Project[](projectsCounter);\r\n        for (uint256 index = 0; index < projectsCounter; index++) {\r\n            address _projectAddress = projectsAddress[index];\r\n            Project storage project = projects[_projectAddress];\r\n            allProjects[index] = project;\r\n        }\r\n        return allProjects;\r\n    }\r\n\r\n\r\n    /**  Project Requests  */\r\n\r\n    mapping(uint256 => ProjectRequest) public projectRequests;\r\n    uint256 public projectRequestsCounter = 0;\r\n    address[] public projectRequestsAddress;\r\n\r\n    function createUniqueProjectRequestAddress(string memory _title, uint _index) public view returns (address) {\r\n        return address(uint160(uint256(keccak256(abi.encodePacked(_title, _projectInitiator, _index)))));\r\n    }\r\n\r\n    function createProjectRequest(\r\n        string memory _title,\r\n        uint256 _status,\r\n        uint256 _requestStatus,\r\n        address _projectAddress,\r\n        address _projectReqAddress,\r\n        string memory _signature\r\n    ) public {\r\n        projectRequests[projectRequestsCounter] = ProjectRequest(\r\n            projectRequestsCounter,\r\n            _title,\r\n            \"\",\r\n            ProjectStatus(_status),\r\n            RequestStatus(_requestStatus),\r\n            _projectAddress,\r\n            _projectInitiator,\r\n            _projectReqAddress,\r\n            block.timestamp,\r\n            _signature\r\n        );\r\n\r\n        filterRequests(\r\n            projectRequestsCounter,\r\n            _title,\r\n            _requestStatus,\r\n            _status,\r\n            _projectAddress,\r\n            _projectReqAddress\r\n        );\r\n\r\n        emit ProjectRequestEvent(projectRequests[projectRequestsCounter], _projectAddress);\r\n        projectRequestsAddress.push(_projectReqAddress);\r\n        projectRequestsCounter++;\r\n    }\r\n\r\n    function filterRequests(\r\n        uint256 _indexProjectRequest,\r\n        string memory _title,\r\n        uint256 _requestStatus,\r\n        uint256 _projectStatus,\r\n        address _projectAddress,\r\n        address _requestAddress\r\n    ) internal {\r\n        RequestType _requestType;\r\n        if (\r\n            ProjectStatus(_projectStatus) == ProjectStatus.ToApprove ||\r\n            ProjectStatus(_projectStatus) == ProjectStatus.FinalizationCheck ||\r\n            ProjectStatus(_projectStatus) == ProjectStatus.Completed\r\n        ) {\r\n            _requestType = RequestType.SupervisorReq;\r\n        } else if (\r\n            ProjectStatus(_projectStatus) == ProjectStatus.StartProject\r\n        ) {\r\n            _requestType = RequestType.CompanyReq;\r\n        }\r\n        createRequest(\r\n            _indexProjectRequest,\r\n            _title,\r\n            _requestStatus,\r\n            _projectStatus,\r\n            _requestType,\r\n            _projectAddress,\r\n            _requestAddress\r\n        );\r\n    }\r\n\r\n    function getAllProjectRequests()\r\n        public\r\n        view\r\n        returns (ProjectRequest[] memory)\r\n    {\r\n        ProjectRequest[] memory allProjectRequests;\r\n        if (projectRequestsCounter == 0) return allProjectRequests;\r\n\r\n        allProjectRequests = new ProjectRequest[](projectRequestsCounter);\r\n        for (uint256 index = 0; index < projectRequestsCounter; index++) {\r\n            ProjectRequest storage projectReq = projectRequests[index];\r\n            allProjectRequests[index] = projectReq;\r\n        }\r\n        return allProjectRequests;\r\n    }\r\n\r\n    function getLastProjectRequest(address _projectAddress)\r\n        public\r\n        view\r\n        returns (ProjectRequest memory)\r\n    {\r\n        ProjectRequest memory request;\r\n        if (projectRequestsCounter > 0) {\r\n            for (\r\n                uint256 index = projectRequestsCounter - 1;\r\n                index >= 0;\r\n                index--\r\n            ) {\r\n                if (_projectAddress == projectRequests[index]._projectAddress) {\r\n                    request = ProjectRequest(\r\n                        projectRequests[index]._index,\r\n                        projectRequests[index]._title,\r\n                        projectRequests[index]._comments,\r\n                        projectRequests[index]._status,\r\n                        projectRequests[index]._requestStatus,\r\n                        projectRequests[index]._projectAddress,\r\n                        projectRequests[index]._signerAddress,\r\n                        projectRequests[index]._requestAddress,\r\n                        block.timestamp,\r\n                        projectRequests[index]._signature\r\n                    );\r\n                    return request;\r\n                }\r\n            }\r\n        }\r\n        return request;\r\n    }\r\n\r\n\r\n    /**  DATA FOR SUPERVISOR && COMPANY  */\r\n\r\n    mapping(uint256 => Request) public requests;\r\n    uint256 public requestsCounter = 0;\r\n\r\n    function createRequest(\r\n        uint256 _indexProjectRequest,\r\n        string memory _title,\r\n        uint256 _requestStatus,\r\n        uint256 _projectStatus,\r\n        RequestType _requestType,\r\n        address _projectAddress,\r\n        address _requestAddress\r\n    ) internal {\r\n        requests[requestsCounter] = Request(\r\n            requestsCounter,\r\n            _indexProjectRequest,\r\n            _title,\r\n            RequestStatus(_requestStatus),\r\n            ProjectStatus(_projectStatus),\r\n            _requestType,\r\n            _projectAddress,\r\n            _projectInitiator,\r\n            _requestAddress,\r\n            block.timestamp,\r\n            \"\"\r\n        );\r\n\r\n        emit RequestEvent(requests[requestsCounter]);\r\n        requestsCounter++;\r\n    }\r\n\r\n    function updateRequest(\r\n        uint256 _index,\r\n        uint256 _indexProjectRequest,\r\n        string memory _comments,\r\n        uint256 _requestStatus,\r\n        uint256 _projectStatus,\r\n        address _projectAddress,\r\n        string memory _signature\r\n    ) public {\r\n        // Update request status in the Requests Mapping and Struct Array\r\n        requests[_index]._requestStatus = RequestStatus(_requestStatus);\r\n        requests[_index]._signature = _signature;\r\n\r\n        emit RequestEvent(requests[_index]);\r\n\r\n        // Update project request status in the Project Requests Mapping and Struct Array\r\n        projectRequests[_indexProjectRequest]._comments = _comments;\r\n        projectRequests[_indexProjectRequest]._requestStatus = RequestStatus(_requestStatus);\r\n        projectRequests[_indexProjectRequest]._signature = _signature;\r\n\r\n        emit ProjectRequestEvent(projectRequests[_indexProjectRequest], _projectAddress);\r\n\r\n        // Update ProjectStatus to the requested status - Porject Mapping and Struct Array\r\n        if (RequestStatus.Approved == RequestStatus(_requestStatus)) {\r\n        projects[_projectAddress]._status = ProjectStatus(_projectStatus);\r\n        emit ProjectEvent(projects[_projectAddress], _projectAddress);\r\n        }\r\n    }\r\n\r\n    function getAllRequests() public view returns (Request[] memory) {\r\n        Request[] memory allRequests;\r\n        if (requestsCounter == 0) return allRequests;\r\n\r\n        allRequests = new Request[](requestsCounter);\r\n        for (uint256 index = 0; index < requestsCounter; index++) {\r\n            Request storage request = requests[index];\r\n            allRequests[index] = request;\r\n        }\r\n        return allRequests;\r\n    }\r\n}\r\n",
  "sourcePath": "/mnt/c/Users/Beniamin/source/repos/DissertationProject/contracts/ProjectChain.sol",
  "compiler": {
    "name": "solc",
    "version": "0.8.10+commit.fc410830.Emscripten.clang"
  },
  "schemaVersion": "3.4.3",
  "updatedAt": "2021-12-07T08:29:46.815Z",
  "devdoc": {
    "kind": "dev",
    "methods": {},
    "version": 1
  },
  "userdoc": {
    "kind": "user",
    "methods": {
      "projectRequests(uint256)": {
        "notice": "Project Requests  "
      },
      "projects(address)": {
        "notice": "PROJECT INITIATOR  "
      },
      "requests(uint256)": {
        "notice": "DATA FOR SUPERVISOR && COMPANY  "
      }
    },
    "version": 1
  }
}