{
  "contractName": "ProjectChain",
  "abi": [
    {
      "inputs": [],
      "stateMutability": "nonpayable",
      "type": "constructor"
    },
    {
      "anonymous": false,
      "inputs": [
        {
          "indexed": false,
          "internalType": "uint256",
          "name": "_index",
          "type": "uint256"
        },
        {
          "indexed": false,
          "internalType": "bytes32",
          "name": "_name",
          "type": "bytes32"
        },
        {
          "indexed": false,
          "internalType": "enum SharedChain.ProjectStatus",
          "name": "_status",
          "type": "uint8"
        },
        {
          "indexed": false,
          "internalType": "string",
          "name": "_ipfsFileCID",
          "type": "string"
        },
        {
          "indexed": false,
          "internalType": "address",
          "name": "_projectAddress",
          "type": "address"
        },
        {
          "indexed": false,
          "internalType": "address",
          "name": "_userAddress",
          "type": "address"
        },
        {
          "indexed": false,
          "internalType": "uint256",
          "name": "_timestamp",
          "type": "uint256"
        },
        {
          "indexed": false,
          "internalType": "string",
          "name": "_signature",
          "type": "string"
        }
      ],
      "name": "ProjectEvent",
      "type": "event"
    },
    {
      "anonymous": false,
      "inputs": [
        {
          "indexed": false,
          "internalType": "uint256",
          "name": "_index",
          "type": "uint256"
        },
        {
          "indexed": false,
          "internalType": "bytes32",
          "name": "_title",
          "type": "bytes32"
        },
        {
          "indexed": false,
          "internalType": "string",
          "name": "_comments",
          "type": "string"
        },
        {
          "indexed": false,
          "internalType": "enum SharedChain.ProjectStatus",
          "name": "_status",
          "type": "uint8"
        },
        {
          "indexed": false,
          "internalType": "enum SharedChain.RequestStatus",
          "name": "_requestStatus",
          "type": "uint8"
        },
        {
          "indexed": false,
          "internalType": "address",
          "name": "_projectAddress",
          "type": "address"
        },
        {
          "indexed": false,
          "internalType": "address",
          "name": "_userAddress",
          "type": "address"
        },
        {
          "indexed": false,
          "internalType": "address",
          "name": "_requestAddress",
          "type": "address"
        },
        {
          "indexed": false,
          "internalType": "uint256",
          "name": "_timestamp",
          "type": "uint256"
        },
        {
          "indexed": false,
          "internalType": "string",
          "name": "_signature",
          "type": "string"
        }
      ],
      "name": "ProjectRequestEvent",
      "type": "event"
    },
    {
      "anonymous": false,
      "inputs": [
        {
          "indexed": false,
          "internalType": "uint256",
          "name": "_index",
          "type": "uint256"
        },
        {
          "indexed": false,
          "internalType": "uint256",
          "name": "_indexProjectRequest",
          "type": "uint256"
        },
        {
          "indexed": false,
          "internalType": "bytes32",
          "name": "_title",
          "type": "bytes32"
        },
        {
          "indexed": false,
          "internalType": "enum SharedChain.RequestStatus",
          "name": "_status",
          "type": "uint8"
        },
        {
          "indexed": false,
          "internalType": "enum SharedChain.ProjectStatus",
          "name": "_projectStatus",
          "type": "uint8"
        },
        {
          "indexed": false,
          "internalType": "enum SharedChain.RequestType",
          "name": "_requestType",
          "type": "uint8"
        },
        {
          "indexed": false,
          "internalType": "address",
          "name": "_projectAddress",
          "type": "address"
        },
        {
          "indexed": false,
          "internalType": "address",
          "name": "_userAddress",
          "type": "address"
        },
        {
          "indexed": false,
          "internalType": "address",
          "name": "_requestAddress",
          "type": "address"
        },
        {
          "indexed": false,
          "internalType": "uint256",
          "name": "_timestamp",
          "type": "uint256"
        },
        {
          "indexed": false,
          "internalType": "string",
          "name": "_signature",
          "type": "string"
        }
      ],
      "name": "RequestEvent",
      "type": "event"
    },
    {
      "anonymous": false,
      "inputs": [
        {
          "indexed": false,
          "internalType": "uint256",
          "name": "_index",
          "type": "uint256"
        },
        {
          "indexed": true,
          "internalType": "string",
          "name": "_username",
          "type": "string"
        },
        {
          "indexed": false,
          "internalType": "bytes32",
          "name": "_email",
          "type": "bytes32"
        },
        {
          "indexed": false,
          "internalType": "bytes32",
          "name": "_firstname",
          "type": "bytes32"
        },
        {
          "indexed": false,
          "internalType": "bytes32",
          "name": "_lastname",
          "type": "bytes32"
        },
        {
          "indexed": true,
          "internalType": "enum SharedChain.Roles",
          "name": "_role",
          "type": "uint8"
        },
        {
          "indexed": true,
          "internalType": "address",
          "name": "_walletAddress",
          "type": "address"
        },
        {
          "indexed": false,
          "internalType": "uint256",
          "name": "_timestamp",
          "type": "uint256"
        }
      ],
      "name": "UserEvent",
      "type": "event"
    },
    {
      "inputs": [
        {
          "internalType": "uint256",
          "name": "_role",
          "type": "uint256"
        },
        {
          "internalType": "address",
          "name": "_walletAddress",
          "type": "address"
        }
      ],
      "name": "changeUserRole",
      "outputs": [],
      "stateMutability": "nonpayable",
      "type": "function"
    },
    {
      "inputs": [],
      "name": "getAllUsers",
      "outputs": [
        {
          "components": [
            {
              "internalType": "uint256",
              "name": "_index",
              "type": "uint256"
            },
            {
              "internalType": "string",
              "name": "_username",
              "type": "string"
            },
            {
              "internalType": "bytes32",
              "name": "_email",
              "type": "bytes32"
            },
            {
              "internalType": "bytes32",
              "name": "_firstname",
              "type": "bytes32"
            },
            {
              "internalType": "bytes32",
              "name": "_lastname",
              "type": "bytes32"
            },
            {
              "internalType": "enum SharedChain.Roles",
              "name": "_role",
              "type": "uint8"
            },
            {
              "internalType": "address",
              "name": "_walletAddress",
              "type": "address"
            },
            {
              "internalType": "uint256",
              "name": "_timestamp",
              "type": "uint256"
            }
          ],
          "internalType": "struct SharedChain.User[]",
          "name": "",
          "type": "tuple[]"
        }
      ],
      "stateMutability": "view",
      "type": "function",
      "constant": true
    },
    {
      "inputs": [
        {
          "internalType": "address",
          "name": "_walletAddress",
          "type": "address"
        }
      ],
      "name": "getUserInfo",
      "outputs": [
        {
          "components": [
            {
              "internalType": "uint256",
              "name": "_index",
              "type": "uint256"
            },
            {
              "internalType": "string",
              "name": "_username",
              "type": "string"
            },
            {
              "internalType": "bytes32",
              "name": "_email",
              "type": "bytes32"
            },
            {
              "internalType": "bytes32",
              "name": "_firstname",
              "type": "bytes32"
            },
            {
              "internalType": "bytes32",
              "name": "_lastname",
              "type": "bytes32"
            },
            {
              "internalType": "enum SharedChain.Roles",
              "name": "_role",
              "type": "uint8"
            },
            {
              "internalType": "address",
              "name": "_walletAddress",
              "type": "address"
            },
            {
              "internalType": "uint256",
              "name": "_timestamp",
              "type": "uint256"
            }
          ],
          "internalType": "struct SharedChain.User",
          "name": "",
          "type": "tuple"
        }
      ],
      "stateMutability": "view",
      "type": "function",
      "constant": true
    },
    {
      "inputs": [],
      "name": "owner",
      "outputs": [
        {
          "internalType": "address",
          "name": "",
          "type": "address"
        }
      ],
      "stateMutability": "view",
      "type": "function",
      "constant": true
    },
    {
      "inputs": [
        {
          "internalType": "uint256",
          "name": "",
          "type": "uint256"
        }
      ],
      "name": "projectRequests",
      "outputs": [
        {
          "internalType": "uint256",
          "name": "_index",
          "type": "uint256"
        },
        {
          "internalType": "bytes32",
          "name": "_title",
          "type": "bytes32"
        },
        {
          "internalType": "string",
          "name": "_comments",
          "type": "string"
        },
        {
          "internalType": "enum SharedChain.ProjectStatus",
          "name": "_status",
          "type": "uint8"
        },
        {
          "internalType": "enum SharedChain.RequestStatus",
          "name": "_requestStatus",
          "type": "uint8"
        },
        {
          "internalType": "address",
          "name": "_projectAddress",
          "type": "address"
        },
        {
          "internalType": "address",
          "name": "_userAddress",
          "type": "address"
        },
        {
          "internalType": "address",
          "name": "_requestAddress",
          "type": "address"
        },
        {
          "internalType": "uint256",
          "name": "_timestamp",
          "type": "uint256"
        },
        {
          "internalType": "string",
          "name": "_signature",
          "type": "string"
        }
      ],
      "stateMutability": "view",
      "type": "function",
      "constant": true
    },
    {
      "inputs": [
        {
          "internalType": "uint256",
          "name": "",
          "type": "uint256"
        }
      ],
      "name": "projectRequestsAddress",
      "outputs": [
        {
          "internalType": "address",
          "name": "",
          "type": "address"
        }
      ],
      "stateMutability": "view",
      "type": "function",
      "constant": true
    },
    {
      "inputs": [],
      "name": "projectRequestsCounter",
      "outputs": [
        {
          "internalType": "uint256",
          "name": "",
          "type": "uint256"
        }
      ],
      "stateMutability": "view",
      "type": "function",
      "constant": true
    },
    {
      "inputs": [
        {
          "internalType": "address",
          "name": "",
          "type": "address"
        }
      ],
      "name": "projects",
      "outputs": [
        {
          "internalType": "uint256",
          "name": "_index",
          "type": "uint256"
        },
        {
          "internalType": "bytes32",
          "name": "_name",
          "type": "bytes32"
        },
        {
          "internalType": "enum SharedChain.ProjectStatus",
          "name": "_status",
          "type": "uint8"
        },
        {
          "internalType": "string",
          "name": "_ipfsFileCID",
          "type": "string"
        },
        {
          "internalType": "address",
          "name": "_projectAddress",
          "type": "address"
        },
        {
          "internalType": "address",
          "name": "_userAddress",
          "type": "address"
        },
        {
          "internalType": "uint256",
          "name": "_timestamp",
          "type": "uint256"
        },
        {
          "internalType": "string",
          "name": "_signature",
          "type": "string"
        }
      ],
      "stateMutability": "view",
      "type": "function",
      "constant": true
    },
    {
      "inputs": [
        {
          "internalType": "uint256",
          "name": "",
          "type": "uint256"
        }
      ],
      "name": "projectsAddress",
      "outputs": [
        {
          "internalType": "address",
          "name": "",
          "type": "address"
        }
      ],
      "stateMutability": "view",
      "type": "function",
      "constant": true
    },
    {
      "inputs": [],
      "name": "projectsCounter",
      "outputs": [
        {
          "internalType": "uint256",
          "name": "",
          "type": "uint256"
        }
      ],
      "stateMutability": "view",
      "type": "function",
      "constant": true
    },
    {
      "inputs": [
        {
          "internalType": "string",
          "name": "_username",
          "type": "string"
        },
        {
          "internalType": "bytes32",
          "name": "_email",
          "type": "bytes32"
        },
        {
          "internalType": "bytes32",
          "name": "_firstname",
          "type": "bytes32"
        },
        {
          "internalType": "bytes32",
          "name": "_lastname",
          "type": "bytes32"
        },
        {
          "internalType": "uint256",
          "name": "_role",
          "type": "uint256"
        },
        {
          "internalType": "address",
          "name": "_walletAddress",
          "type": "address"
        }
      ],
      "name": "registerUser",
      "outputs": [],
      "stateMutability": "nonpayable",
      "type": "function"
    },
    {
      "inputs": [
        {
          "internalType": "uint256",
          "name": "",
          "type": "uint256"
        }
      ],
      "name": "requests",
      "outputs": [
        {
          "internalType": "uint256",
          "name": "_index",
          "type": "uint256"
        },
        {
          "internalType": "uint256",
          "name": "_indexProjectRequest",
          "type": "uint256"
        },
        {
          "internalType": "bytes32",
          "name": "_title",
          "type": "bytes32"
        },
        {
          "internalType": "enum SharedChain.RequestStatus",
          "name": "_requestStatus",
          "type": "uint8"
        },
        {
          "internalType": "enum SharedChain.ProjectStatus",
          "name": "_projectStatus",
          "type": "uint8"
        },
        {
          "internalType": "enum SharedChain.RequestType",
          "name": "_requestType",
          "type": "uint8"
        },
        {
          "internalType": "address",
          "name": "_projectAddress",
          "type": "address"
        },
        {
          "internalType": "address",
          "name": "_userAddress",
          "type": "address"
        },
        {
          "internalType": "address",
          "name": "_requestAddress",
          "type": "address"
        },
        {
          "internalType": "uint256",
          "name": "_timestamp",
          "type": "uint256"
        },
        {
          "internalType": "string",
          "name": "_signature",
          "type": "string"
        }
      ],
      "stateMutability": "view",
      "type": "function",
      "constant": true
    },
    {
      "inputs": [
        {
          "internalType": "uint256",
          "name": "",
          "type": "uint256"
        }
      ],
      "name": "requestsAddress",
      "outputs": [
        {
          "internalType": "address",
          "name": "",
          "type": "address"
        }
      ],
      "stateMutability": "view",
      "type": "function",
      "constant": true
    },
    {
      "inputs": [],
      "name": "requestsCounter",
      "outputs": [
        {
          "internalType": "uint256",
          "name": "",
          "type": "uint256"
        }
      ],
      "stateMutability": "view",
      "type": "function",
      "constant": true
    },
    {
      "inputs": [
        {
          "internalType": "address",
          "name": "",
          "type": "address"
        }
      ],
      "name": "users",
      "outputs": [
        {
          "internalType": "uint256",
          "name": "_index",
          "type": "uint256"
        },
        {
          "internalType": "string",
          "name": "_username",
          "type": "string"
        },
        {
          "internalType": "bytes32",
          "name": "_email",
          "type": "bytes32"
        },
        {
          "internalType": "bytes32",
          "name": "_firstname",
          "type": "bytes32"
        },
        {
          "internalType": "bytes32",
          "name": "_lastname",
          "type": "bytes32"
        },
        {
          "internalType": "enum SharedChain.Roles",
          "name": "_role",
          "type": "uint8"
        },
        {
          "internalType": "address",
          "name": "_walletAddress",
          "type": "address"
        },
        {
          "internalType": "uint256",
          "name": "_timestamp",
          "type": "uint256"
        }
      ],
      "stateMutability": "view",
      "type": "function",
      "constant": true
    },
    {
      "inputs": [
        {
          "internalType": "uint256",
          "name": "",
          "type": "uint256"
        }
      ],
      "name": "usersAddress",
      "outputs": [
        {
          "internalType": "address",
          "name": "",
          "type": "address"
        }
      ],
      "stateMutability": "view",
      "type": "function",
      "constant": true
    },
    {
      "inputs": [],
      "name": "usersCounter",
      "outputs": [
        {
          "internalType": "uint256",
          "name": "",
          "type": "uint256"
        }
      ],
      "stateMutability": "view",
      "type": "function",
      "constant": true
    },
    {
      "inputs": [],
      "name": "methodData",
      "outputs": [
        {
          "internalType": "uint256",
          "name": "",
          "type": "uint256"
        }
      ],
      "stateMutability": "view",
      "type": "function",
      "constant": true
    },
    {
      "inputs": [],
      "name": "createUniqueProjectAddress",
      "outputs": [
        {
          "internalType": "address",
          "name": "",
          "type": "address"
        }
      ],
      "stateMutability": "nonpayable",
      "type": "function"
    },
    {
      "inputs": [
        {
          "internalType": "address",
          "name": "_projectAddress",
          "type": "address"
        },
        {
          "internalType": "bytes32",
          "name": "_name",
          "type": "bytes32"
        },
        {
          "internalType": "uint256",
          "name": "_status",
          "type": "uint256"
        },
        {
          "internalType": "string",
          "name": "_ipfsFileCID",
          "type": "string"
        },
        {
          "internalType": "string",
          "name": "_signature",
          "type": "string"
        }
      ],
      "name": "createProject",
      "outputs": [],
      "stateMutability": "nonpayable",
      "type": "function"
    },
    {
      "inputs": [
        {
          "internalType": "address",
          "name": "_address",
          "type": "address"
        }
      ],
      "name": "getProjectInfo",
      "outputs": [
        {
          "components": [
            {
              "internalType": "uint256",
              "name": "_index",
              "type": "uint256"
            },
            {
              "internalType": "bytes32",
              "name": "_name",
              "type": "bytes32"
            },
            {
              "internalType": "enum SharedChain.ProjectStatus",
              "name": "_status",
              "type": "uint8"
            },
            {
              "internalType": "string",
              "name": "_ipfsFileCID",
              "type": "string"
            },
            {
              "internalType": "address",
              "name": "_projectAddress",
              "type": "address"
            },
            {
              "internalType": "address",
              "name": "_userAddress",
              "type": "address"
            },
            {
              "internalType": "uint256",
              "name": "_timestamp",
              "type": "uint256"
            },
            {
              "internalType": "string",
              "name": "_signature",
              "type": "string"
            }
          ],
          "internalType": "struct SharedChain.Project",
          "name": "",
          "type": "tuple"
        }
      ],
      "stateMutability": "view",
      "type": "function",
      "constant": true
    },
    {
      "inputs": [],
      "name": "getAllProjects",
      "outputs": [
        {
          "components": [
            {
              "internalType": "uint256",
              "name": "_index",
              "type": "uint256"
            },
            {
              "internalType": "bytes32",
              "name": "_name",
              "type": "bytes32"
            },
            {
              "internalType": "enum SharedChain.ProjectStatus",
              "name": "_status",
              "type": "uint8"
            },
            {
              "internalType": "string",
              "name": "_ipfsFileCID",
              "type": "string"
            },
            {
              "internalType": "address",
              "name": "_projectAddress",
              "type": "address"
            },
            {
              "internalType": "address",
              "name": "_userAddress",
              "type": "address"
            },
            {
              "internalType": "uint256",
              "name": "_timestamp",
              "type": "uint256"
            },
            {
              "internalType": "string",
              "name": "_signature",
              "type": "string"
            }
          ],
          "internalType": "struct SharedChain.Project[]",
          "name": "",
          "type": "tuple[]"
        }
      ],
      "stateMutability": "view",
      "type": "function",
      "constant": true
    },
    {
      "inputs": [],
      "name": "createUniqueProjectRequestAddress",
      "outputs": [
        {
          "internalType": "address",
          "name": "",
          "type": "address"
        }
      ],
      "stateMutability": "nonpayable",
      "type": "function"
    },
    {
      "inputs": [
        {
          "internalType": "bytes32",
          "name": "_title",
          "type": "bytes32"
        },
        {
          "internalType": "uint256",
          "name": "_status",
          "type": "uint256"
        },
        {
          "internalType": "uint256",
          "name": "_requestStatus",
          "type": "uint256"
        },
        {
          "internalType": "address",
          "name": "_projectAddress",
          "type": "address"
        },
        {
          "internalType": "address",
          "name": "_projectReqAddress",
          "type": "address"
        },
        {
          "internalType": "string",
          "name": "_signature",
          "type": "string"
        }
      ],
      "name": "createProjectRequest",
      "outputs": [],
      "stateMutability": "nonpayable",
      "type": "function"
    },
    {
      "inputs": [],
      "name": "getAllProjectRequests",
      "outputs": [
        {
          "components": [
            {
              "internalType": "uint256",
              "name": "_index",
              "type": "uint256"
            },
            {
              "internalType": "bytes32",
              "name": "_title",
              "type": "bytes32"
            },
            {
              "internalType": "string",
              "name": "_comments",
              "type": "string"
            },
            {
              "internalType": "enum SharedChain.ProjectStatus",
              "name": "_status",
              "type": "uint8"
            },
            {
              "internalType": "enum SharedChain.RequestStatus",
              "name": "_requestStatus",
              "type": "uint8"
            },
            {
              "internalType": "address",
              "name": "_projectAddress",
              "type": "address"
            },
            {
              "internalType": "address",
              "name": "_userAddress",
              "type": "address"
            },
            {
              "internalType": "address",
              "name": "_requestAddress",
              "type": "address"
            },
            {
              "internalType": "uint256",
              "name": "_timestamp",
              "type": "uint256"
            },
            {
              "internalType": "string",
              "name": "_signature",
              "type": "string"
            }
          ],
          "internalType": "struct SharedChain.ProjectRequest[]",
          "name": "",
          "type": "tuple[]"
        }
      ],
      "stateMutability": "view",
      "type": "function",
      "constant": true
    },
    {
      "inputs": [
        {
          "internalType": "address",
          "name": "_projectAddress",
          "type": "address"
        }
      ],
      "name": "getLastProjectRequest",
      "outputs": [
        {
          "components": [
            {
              "internalType": "uint256",
              "name": "_index",
              "type": "uint256"
            },
            {
              "internalType": "bytes32",
              "name": "_title",
              "type": "bytes32"
            },
            {
              "internalType": "string",
              "name": "_comments",
              "type": "string"
            },
            {
              "internalType": "enum SharedChain.ProjectStatus",
              "name": "_status",
              "type": "uint8"
            },
            {
              "internalType": "enum SharedChain.RequestStatus",
              "name": "_requestStatus",
              "type": "uint8"
            },
            {
              "internalType": "address",
              "name": "_projectAddress",
              "type": "address"
            },
            {
              "internalType": "address",
              "name": "_userAddress",
              "type": "address"
            },
            {
              "internalType": "address",
              "name": "_requestAddress",
              "type": "address"
            },
            {
              "internalType": "uint256",
              "name": "_timestamp",
              "type": "uint256"
            },
            {
              "internalType": "string",
              "name": "_signature",
              "type": "string"
            }
          ],
          "internalType": "struct SharedChain.ProjectRequest",
          "name": "",
          "type": "tuple"
        }
      ],
      "stateMutability": "view",
      "type": "function",
      "constant": true
    },
    {
      "inputs": [
        {
          "internalType": "uint256",
          "name": "_index",
          "type": "uint256"
        },
        {
          "internalType": "uint256",
          "name": "_indexProjectRequest",
          "type": "uint256"
        },
        {
          "internalType": "string",
          "name": "_comments",
          "type": "string"
        },
        {
          "internalType": "uint256",
          "name": "_requestStatus",
          "type": "uint256"
        },
        {
          "internalType": "uint256",
          "name": "_projectStatus",
          "type": "uint256"
        },
        {
          "internalType": "address",
          "name": "_projectAddress",
          "type": "address"
        },
        {
          "internalType": "string",
          "name": "_signature",
          "type": "string"
        }
      ],
      "name": "updateRequest",
      "outputs": [],
      "stateMutability": "nonpayable",
      "type": "function"
    },
    {
      "inputs": [],
      "name": "getAllRequests",
      "outputs": [
        {
          "components": [
            {
              "internalType": "uint256",
              "name": "_index",
              "type": "uint256"
            },
            {
              "internalType": "uint256",
              "name": "_indexProjectRequest",
              "type": "uint256"
            },
            {
              "internalType": "bytes32",
              "name": "_title",
              "type": "bytes32"
            },
            {
              "internalType": "enum SharedChain.RequestStatus",
              "name": "_requestStatus",
              "type": "uint8"
            },
            {
              "internalType": "enum SharedChain.ProjectStatus",
              "name": "_projectStatus",
              "type": "uint8"
            },
            {
              "internalType": "enum SharedChain.RequestType",
              "name": "_requestType",
              "type": "uint8"
            },
            {
              "internalType": "address",
              "name": "_projectAddress",
              "type": "address"
            },
            {
              "internalType": "address",
              "name": "_userAddress",
              "type": "address"
            },
            {
              "internalType": "address",
              "name": "_requestAddress",
              "type": "address"
            },
            {
              "internalType": "uint256",
              "name": "_timestamp",
              "type": "uint256"
            },
            {
              "internalType": "string",
              "name": "_signature",
              "type": "string"
            }
          ],
          "internalType": "struct SharedChain.Request[]",
          "name": "",
          "type": "tuple[]"
        }
      ],
      "stateMutability": "view",
      "type": "function",
      "constant": true
    }
  ],
  "bytecode": "0x60806040526000600355600060055560006007556000600a556000600d5534801561002957600080fd5b50336000806101000a81548173ffffffffffffffffffffffffffffffffffffffff021916908373ffffffffffffffffffffffffffffffffffffffff16021790555033600460006101000a81548173ffffffffffffffffffffffffffffffffffffffff021916908373ffffffffffffffffffffffffffffffffffffffff1602179055506152f1806100ba6000396000f3fe608060405234801561001057600080fd5b50600436106101c45760003560e01c8063840e78fd116100f9578063d210ce0511610097578063e2842d7911610071578063e2842d7914610578578063f46d4b8a14610596578063fb1a002a146105b2578063fe360ea5146105d0576101c4565b8063d210ce0514610520578063d67b1b991461053c578063da342f721461055a576101c4565b8063a87430ba116100d3578063a87430ba14610476578063c19ded13146104ad578063cc1ee4db146104e6578063cf13f5d414610504576101c4565b8063840e78fd146104055780638da5cb5b1461043c578063910097861461045a576101c4565b806356a3eead1161016657806376c932e01161014057806376c932e01461034d57806378e8cd851461037d57806380d03829146103ad57806381d12c58146103cb576101c4565b806356a3eead146102cf5780636386c1c7146102ff578063663c22691461032f576101c4565b80632d757d8e116101a25780632d757d8e14610247578063400003db1461026357806347ee45b9146102815780634d93500d146102b1576101c4565b80630b287892146101c957806317e8c952146101f95780632c91324c14610217575b600080fd5b6101e360048036038101906101de9190613959565b6105ee565b6040516101f09190613c00565b60405180910390f35b6102016109b6565b60405161020e9190613c31565b60405180910390f35b610231600480360381019061022c9190613c78565b610a47565b60405161023e9190613c31565b60405180910390f35b610261600480360381019061025c9190613dda565b610a86565b005b61026b610c01565b6040516102789190614057565b60405180910390f35b61029b60048036038101906102969190613959565b610f82565b6040516102a89190614130565b60405180910390f35b6102b9611205565b6040516102c69190613c31565b60405180910390f35b6102e960048036038101906102e49190613c78565b611296565b6040516102f69190613c31565b60405180910390f35b61031960048036038101906103149190613959565b6112d5565b604051610326919061424a565b60405180910390f35b610337611484565b604051610344919061427b565b60405180910390f35b61036760048036038101906103629190613c78565b61148a565b6040516103749190613c31565b60405180910390f35b61039760048036038101906103929190613c78565b6114c9565b6040516103a49190613c31565b60405180910390f35b6103b5611508565b6040516103c2919061440f565b60405180910390f35b6103e560048036038101906103e09190613c78565b611868565b6040516103fc9b9a999897969594939291906144f0565b60405180910390f35b61041f600480360381019061041a9190613959565b6119d1565b6040516104339897969594939291906145a2565b60405180910390f35b610444611b76565b6040516104519190613c31565b60405180910390f35b610474600480360381019061046f919061462e565b611b9a565b005b610490600480360381019061048b9190613959565b611df4565b6040516104a498979695949392919061467d565b60405180910390f35b6104c760048036038101906104c29190613c78565b611ef1565b6040516104dd9a99989796959493929190614702565b60405180910390f35b6104ee6120cf565b6040516104fb919061427b565b60405180910390f35b61051e600480360381019061051991906147d8565b6120d5565b005b61053a60048036038101906105359190614881565b6123f7565b005b6105446127c3565b604051610551919061427b565b60405180910390f35b6105626127c9565b60405161056f919061427b565b60405180910390f35b6105806127d1565b60405161058d9190614a9c565b60405180910390f35b6105b060048036038101906105ab9190614abe565b612a5d565b005b6105ba612d60565b6040516105c79190614d31565b60405180910390f35b6105d8613094565b6040516105e5919061427b565b60405180910390f35b6105f66135b7565b6105fe6135b7565b6000600a5411156109ac5760006001600a5461061a9190614d82565b90505b600081106109aa576009600082815260200190815260200160002060030160029054906101000a900473ffffffffffffffffffffffffffffffffffffffff1673ffffffffffffffffffffffffffffffffffffffff168473ffffffffffffffffffffffffffffffffffffffff1614156109975760405180610140016040528060096000848152602001908152602001600020600001548152602001600960008481526020019081526020016000206001015481526020016009600084815260200190815260200160002060020180546106f490614de5565b80601f016020809104026020016040519081016040528092919081815260200182805461072090614de5565b801561076d5780601f106107425761010080835404028352916020019161076d565b820191906000526020600020905b81548152906001019060200180831161075057829003601f168201915b505050505081526020016009600084815260200190815260200160002060030160009054906101000a900460ff1660048111156107ad576107ac613a51565b5b81526020016009600084815260200190815260200160002060030160019054906101000a900460ff1660028111156107e8576107e7613a51565b5b81526020016009600084815260200190815260200160002060030160029054906101000a900473ffffffffffffffffffffffffffffffffffffffff1673ffffffffffffffffffffffffffffffffffffffff1681526020016009600084815260200190815260200160002060040160009054906101000a900473ffffffffffffffffffffffffffffffffffffffff1673ffffffffffffffffffffffffffffffffffffffff1681526020016009600084815260200190815260200160002060050160009054906101000a900473ffffffffffffffffffffffffffffffffffffffff1673ffffffffffffffffffffffffffffffffffffffff16815260200142815260200160096000848152602001908152602001600020600701805461090a90614de5565b80601f016020809104026020016040519081016040528092919081815260200182805461093690614de5565b80156109835780601f1061095857610100808354040283529160200191610983565b820191906000526020600020905b81548152906001019060200180831161096657829003601f168201915b5050505050815250915081925050506109b1565b80806109a290614e17565b91505061061d565b505b809150505b919050565b6000600560008154809291906109cb90614e41565b91905055507f6373643f2e213f2a73616c61733b646c412e3b735f6173000000000000000000600460009054906101000a900473ffffffffffffffffffffffffffffffffffffffff16600554604051602001610a2993929190614f14565b6040516020818303038152906040528051906020012060001c905090565b60028181548110610a5757600080fd5b906000526020600020016000915054906101000a900473ffffffffffffffffffffffffffffffffffffffff1681565b836002811115610a9957610a98613a51565b5b600c600089815260200190815260200160002060030160006101000a81548160ff02191690836002811115610ad157610ad0613a51565b5b021790555080600c60008981526020019081526020016000206007019080519060200190610b00929190613673565b5084600960008881526020019081526020016000206002019080519060200190610b2b929190613673565b50836002811115610b3f57610b3e613a51565b5b6009600088815260200190815260200160002060030160016101000a81548160ff02191690836002811115610b7757610b76613a51565b5b0217905550826004811115610b8f57610b8e613a51565b5b600660008473ffffffffffffffffffffffffffffffffffffffff1673ffffffffffffffffffffffffffffffffffffffff16815260200190815260200160002060020160006101000a81548160ff02191690836004811115610bf357610bf2613a51565b5b021790555050505050505050565b60606000600a5467ffffffffffffffff811115610c2157610c20613caf565b5b604051908082528060200260200182016040528015610c5a57816020015b610c476135b7565b815260200190600190039081610c3f5790505b50905060005b600754811015610f7a57600060096000838152602001908152602001600020905080604051806101400160405290816000820154815260200160018201548152602001600282018054610cb290614de5565b80601f0160208091040260200160405190810160405280929190818152602001828054610cde90614de5565b8015610d2b5780601f10610d0057610100808354040283529160200191610d2b565b820191906000526020600020905b815481529060010190602001808311610d0e57829003601f168201915b505050505081526020016003820160009054906101000a900460ff166004811115610d5957610d58613a51565b5b6004811115610d6b57610d6a613a51565b5b81526020016003820160019054906101000a900460ff166002811115610d9457610d93613a51565b5b6002811115610da657610da5613a51565b5b81526020016003820160029054906101000a900473ffffffffffffffffffffffffffffffffffffffff1673ffffffffffffffffffffffffffffffffffffffff1673ffffffffffffffffffffffffffffffffffffffff1681526020016004820160009054906101000a900473ffffffffffffffffffffffffffffffffffffffff1673ffffffffffffffffffffffffffffffffffffffff1673ffffffffffffffffffffffffffffffffffffffff1681526020016005820160009054906101000a900473ffffffffffffffffffffffffffffffffffffffff1673ffffffffffffffffffffffffffffffffffffffff1673ffffffffffffffffffffffffffffffffffffffff16815260200160068201548152602001600782018054610ec690614de5565b80601f0160208091040260200160405190810160405280929190818152602001828054610ef290614de5565b8015610f3f5780601f10610f1457610100808354040283529160200191610f3f565b820191906000526020600020905b815481529060010190602001808311610f2257829003601f168201915b505050505081525050838381518110610f5b57610f5a614f51565b5b6020026020010181905250508080610f7290614e41565b915050610c60565b508091505090565b610f8a6136f9565b600660008373ffffffffffffffffffffffffffffffffffffffff1673ffffffffffffffffffffffffffffffffffffffff1681526020019081526020016000206040518061010001604052908160008201548152602001600182015481526020016002820160009054906101000a900460ff16600481111561100e5761100d613a51565b5b60048111156110205761101f613a51565b5b815260200160038201805461103490614de5565b80601f016020809104026020016040519081016040528092919081815260200182805461106090614de5565b80156110ad5780601f10611082576101008083540402835291602001916110ad565b820191906000526020600020905b81548152906001019060200180831161109057829003601f168201915b505050505081526020016004820160009054906101000a900473ffffffffffffffffffffffffffffffffffffffff1673ffffffffffffffffffffffffffffffffffffffff1673ffffffffffffffffffffffffffffffffffffffff1681526020016005820160009054906101000a900473ffffffffffffffffffffffffffffffffffffffff1673ffffffffffffffffffffffffffffffffffffffff1673ffffffffffffffffffffffffffffffffffffffff1681526020016006820154815260200160078201805461117c90614de5565b80601f01602080910402602001604051908101604052809291908181526020018280546111a890614de5565b80156111f55780601f106111ca576101008083540402835291602001916111f5565b820191906000526020600020905b8154815290600101906020018083116111d857829003601f168201915b5050505050815250509050919050565b60006005600081548092919061121a90614e41565b91905055507f6373643f534073616c61733b646c413233345f442e3b735f6173000000000000600460009054906101000a900473ffffffffffffffffffffffffffffffffffffffff1660055460405160200161127893929190614f14565b6040516020818303038152906040528051906020012060001c905090565b600e81815481106112a657600080fd5b906000526020600020016000915054906101000a900473ffffffffffffffffffffffffffffffffffffffff1681565b6112dd61377f565b600160008373ffffffffffffffffffffffffffffffffffffffff1673ffffffffffffffffffffffffffffffffffffffff168152602001908152602001600020604051806101000160405290816000820154815260200160018201805461134290614de5565b80601f016020809104026020016040519081016040528092919081815260200182805461136e90614de5565b80156113bb5780601f10611390576101008083540402835291602001916113bb565b820191906000526020600020905b81548152906001019060200180831161139e57829003601f168201915b505050505081526020016002820154815260200160038201548152602001600482015481526020016005820160009054906101000a900460ff16600381111561140757611406613a51565b5b600381111561141957611418613a51565b5b81526020016005820160019054906101000a900473ffffffffffffffffffffffffffffffffffffffff1673ffffffffffffffffffffffffffffffffffffffff1673ffffffffffffffffffffffffffffffffffffffff1681526020016006820154815250509050919050565b600d5481565b6008818154811061149a57600080fd5b906000526020600020016000915054906101000a900473ffffffffffffffffffffffffffffffffffffffff1681565b600b81815481106114d957600080fd5b906000526020600020016000915054906101000a900473ffffffffffffffffffffffffffffffffffffffff1681565b6060600060075467ffffffffffffffff81111561152857611527613caf565b5b60405190808252806020026020018201604052801561156157816020015b61154e6136f9565b8152602001906001900390816115465790505b50905060005b6007548110156118605760006008828154811061158757611586614f51565b5b9060005260206000200160009054906101000a900473ffffffffffffffffffffffffffffffffffffffff1690506000600660008373ffffffffffffffffffffffffffffffffffffffff1673ffffffffffffffffffffffffffffffffffffffff1681526020019081526020016000209050806040518061010001604052908160008201548152602001600182015481526020016002820160009054906101000a900460ff16600481111561163d5761163c613a51565b5b600481111561164f5761164e613a51565b5b815260200160038201805461166390614de5565b80601f016020809104026020016040519081016040528092919081815260200182805461168f90614de5565b80156116dc5780601f106116b1576101008083540402835291602001916116dc565b820191906000526020600020905b8154815290600101906020018083116116bf57829003601f168201915b505050505081526020016004820160009054906101000a900473ffffffffffffffffffffffffffffffffffffffff1673ffffffffffffffffffffffffffffffffffffffff1673ffffffffffffffffffffffffffffffffffffffff1681526020016005820160009054906101000a900473ffffffffffffffffffffffffffffffffffffffff1673ffffffffffffffffffffffffffffffffffffffff1673ffffffffffffffffffffffffffffffffffffffff168152602001600682015481526020016007820180546117ab90614de5565b80601f01602080910402602001604051908101604052809291908181526020018280546117d790614de5565b80156118245780601f106117f957610100808354040283529160200191611824565b820191906000526020600020905b81548152906001019060200180831161180757829003601f168201915b5050505050815250508484815181106118405761183f614f51565b5b60200260200101819052505050808061185890614e41565b915050611567565b508091505090565b600c6020528060005260406000206000915090508060000154908060010154908060020154908060030160009054906101000a900460ff16908060030160019054906101000a900460ff16908060030160029054906101000a900460ff16908060030160039054906101000a900473ffffffffffffffffffffffffffffffffffffffff16908060040160009054906101000a900473ffffffffffffffffffffffffffffffffffffffff16908060050160009054906101000a900473ffffffffffffffffffffffffffffffffffffffff169080600601549080600701805461194e90614de5565b80601f016020809104026020016040519081016040528092919081815260200182805461197a90614de5565b80156119c75780601f1061199c576101008083540402835291602001916119c7565b820191906000526020600020905b8154815290600101906020018083116119aa57829003601f168201915b505050505090508b565b60066020528060005260406000206000915090508060000154908060010154908060020160009054906101000a900460ff1690806003018054611a1390614de5565b80601f0160208091040260200160405190810160405280929190818152602001828054611a3f90614de5565b8015611a8c5780601f10611a6157610100808354040283529160200191611a8c565b820191906000526020600020905b815481529060010190602001808311611a6f57829003601f168201915b5050505050908060040160009054906101000a900473ffffffffffffffffffffffffffffffffffffffff16908060050160009054906101000a900473ffffffffffffffffffffffffffffffffffffffff1690806006015490806007018054611af390614de5565b80601f0160208091040260200160405190810160405280929190818152602001828054611b1f90614de5565b8015611b6c5780601f10611b4157610100808354040283529160200191611b6c565b820191906000526020600020905b815481529060010190602001808311611b4f57829003601f168201915b5050505050905088565b60008054906101000a900473ffffffffffffffffffffffffffffffffffffffff1681565b816003811115611bad57611bac613a51565b5b600160008373ffffffffffffffffffffffffffffffffffffffff1673ffffffffffffffffffffffffffffffffffffffff16815260200190815260200160002060050160006101000a81548160ff02191690836003811115611c1157611c10613a51565b5b02179055508073ffffffffffffffffffffffffffffffffffffffff16826003811115611c4057611c3f613a51565b5b6003811115611c5257611c51613a51565b5b600160008473ffffffffffffffffffffffffffffffffffffffff1673ffffffffffffffffffffffffffffffffffffffff168152602001908152602001600020600101604051611ca1919061501f565b60405180910390207ff17f3effabbd51830c4ffa8b6910ac12573d210009e0aedb1a55ae5026192e9a600160008673ffffffffffffffffffffffffffffffffffffffff1673ffffffffffffffffffffffffffffffffffffffff16815260200190815260200160002060000154600160008773ffffffffffffffffffffffffffffffffffffffff1673ffffffffffffffffffffffffffffffffffffffff16815260200190815260200160002060020154600160008873ffffffffffffffffffffffffffffffffffffffff1673ffffffffffffffffffffffffffffffffffffffff16815260200190815260200160002060030154600160008973ffffffffffffffffffffffffffffffffffffffff1673ffffffffffffffffffffffffffffffffffffffff1681526020019081526020016000206004015442604051611de8959493929190615036565b60405180910390a45050565b6001602052806000526040600020600091509050806000015490806001018054611e1d90614de5565b80601f0160208091040260200160405190810160405280929190818152602001828054611e4990614de5565b8015611e965780601f10611e6b57610100808354040283529160200191611e96565b820191906000526020600020905b815481529060010190602001808311611e7957829003601f168201915b5050505050908060020154908060030154908060040154908060050160009054906101000a900460ff16908060050160019054906101000a900473ffffffffffffffffffffffffffffffffffffffff16908060060154905088565b6009602052806000526040600020600091509050806000015490806001015490806002018054611f2090614de5565b80601f0160208091040260200160405190810160405280929190818152602001828054611f4c90614de5565b8015611f995780601f10611f6e57610100808354040283529160200191611f99565b820191906000526020600020905b815481529060010190602001808311611f7c57829003601f168201915b5050505050908060030160009054906101000a900460ff16908060030160019054906101000a900460ff16908060030160029054906101000a900473ffffffffffffffffffffffffffffffffffffffff16908060040160009054906101000a900473ffffffffffffffffffffffffffffffffffffffff16908060050160009054906101000a900473ffffffffffffffffffffffffffffffffffffffff169080600601549080600701805461204c90614de5565b80601f016020809104026020016040519081016040528092919081815260200182805461207890614de5565b80156120c55780601f1061209a576101008083540402835291602001916120c5565b820191906000526020600020905b8154815290600101906020018083116120a857829003601f168201915b505050505090508a565b600a5481565b3373ffffffffffffffffffffffffffffffffffffffff1660008054906101000a900473ffffffffffffffffffffffffffffffffffffffff1673ffffffffffffffffffffffffffffffffffffffff1614612163576040517f08c379a000000000000000000000000000000000000000000000000000000000815260040161215a906150d5565b60405180910390fd5b60405180610100016040528060035481526020018781526020018681526020018581526020018481526020018360038111156121a2576121a1613a51565b5b60038111156121b4576121b3613a51565b5b81526020018273ffffffffffffffffffffffffffffffffffffffff16815260200142815250600160008373ffffffffffffffffffffffffffffffffffffffff1673ffffffffffffffffffffffffffffffffffffffff16815260200190815260200160002060008201518160000155602082015181600101908051906020019061223e929190613673565b5060408201518160020155606082015181600301556080820151816004015560a08201518160050160006101000a81548160ff0219169083600381111561228857612287613a51565b5b021790555060c08201518160050160016101000a81548173ffffffffffffffffffffffffffffffffffffffff021916908373ffffffffffffffffffffffffffffffffffffffff16021790555060e082015181600601559050508073ffffffffffffffffffffffffffffffffffffffff1682600381111561230b5761230a613a51565b5b600381111561231d5761231c613a51565b5b8760405161232b9190615126565b60405180910390207ff17f3effabbd51830c4ffa8b6910ac12573d210009e0aedb1a55ae5026192e9a6003548989894260405161236c959493929190615036565b60405180910390a46002819080600181540180825580915050600190039060005260206000200160009091909190916101000a81548173ffffffffffffffffffffffffffffffffffffffff021916908373ffffffffffffffffffffffffffffffffffffffff160217905550600360008154809291906123ea90614e41565b9190505550505050505050565b604051806101400160405280600a54815260200187815260200160405180602001604052806000815250815260200186600481111561243957612438613a51565b5b600481111561244b5761244a613a51565b5b815260200185600281111561246357612462613a51565b5b600281111561247557612474613a51565b5b81526020018473ffffffffffffffffffffffffffffffffffffffff168152602001600460009054906101000a900473ffffffffffffffffffffffffffffffffffffffff1673ffffffffffffffffffffffffffffffffffffffff1681526020018373ffffffffffffffffffffffffffffffffffffffff1681526020014281526020018281525060096000600a5481526020019081526020016000206000820151816000015560208201518160010155604082015181600201908051906020019061253f929190613673565b5060608201518160030160006101000a81548160ff0219169083600481111561256b5761256a613a51565b5b021790555060808201518160030160016101000a81548160ff0219169083600281111561259b5761259a613a51565b5b021790555060a08201518160030160026101000a81548173ffffffffffffffffffffffffffffffffffffffff021916908373ffffffffffffffffffffffffffffffffffffffff16021790555060c08201518160040160006101000a81548173ffffffffffffffffffffffffffffffffffffffff021916908373ffffffffffffffffffffffffffffffffffffffff16021790555060e08201518160050160006101000a81548173ffffffffffffffffffffffffffffffffffffffff021916908373ffffffffffffffffffffffffffffffffffffffff160217905550610100820151816006015561012082015181600701908051906020019061269d929190613673565b509050506126b1600a54878688878761309a565b7f7c2cee03a4cddb6435d0bc7e59bd9a94142380a47bf8ead53d62091b274da965600a54878760048111156126e9576126e8613a51565b5b8760028111156126fc576126fb613a51565b5b87600460009054906101000a900473ffffffffffffffffffffffffffffffffffffffff1688428960405161273899989796959493929190615163565b60405180910390a1600b829080600181540180825580915050600190039060005260206000200160009091909190916101000a81548173ffffffffffffffffffffffffffffffffffffffff021916908373ffffffffffffffffffffffffffffffffffffffff160217905550600a60008154809291906127b690614e41565b9190505550505050505050565b60035481565b600042905090565b6060600060035467ffffffffffffffff8111156127f1576127f0613caf565b5b60405190808252806020026020018201604052801561282a57816020015b61281761377f565b81526020019060019003908161280f5790505b50905060005b600354811015612a55576000600282815481106128505761284f614f51565b5b9060005260206000200160009054906101000a900473ffffffffffffffffffffffffffffffffffffffff1690506000600160008373ffffffffffffffffffffffffffffffffffffffff1673ffffffffffffffffffffffffffffffffffffffff16815260200190815260200160002090508060405180610100016040529081600082015481526020016001820180546128e790614de5565b80601f016020809104026020016040519081016040528092919081815260200182805461291390614de5565b80156129605780601f1061293557610100808354040283529160200191612960565b820191906000526020600020905b81548152906001019060200180831161294357829003601f168201915b505050505081526020016002820154815260200160038201548152602001600482015481526020016005820160009054906101000a900460ff1660038111156129ac576129ab613a51565b5b60038111156129be576129bd613a51565b5b81526020016005820160019054906101000a900473ffffffffffffffffffffffffffffffffffffffff1673ffffffffffffffffffffffffffffffffffffffff1673ffffffffffffffffffffffffffffffffffffffff168152602001600682015481525050848481518110612a3557612a34614f51565b5b602002602001018190525050508080612a4d90614e41565b915050612830565b508091505090565b6040518061010001604052806007548152602001858152602001846004811115612a8a57612a89613a51565b5b6004811115612a9c57612a9b613a51565b5b81526020018381526020018673ffffffffffffffffffffffffffffffffffffffff168152602001600460009054906101000a900473ffffffffffffffffffffffffffffffffffffffff1673ffffffffffffffffffffffffffffffffffffffff16815260200142815260200182815250600660008773ffffffffffffffffffffffffffffffffffffffff1673ffffffffffffffffffffffffffffffffffffffff168152602001908152602001600020600082015181600001556020820151816001015560408201518160020160006101000a81548160ff02191690836004811115612b8957612b88613a51565b5b02179055506060820151816003019080519060200190612baa929190613673565b5060808201518160040160006101000a81548173ffffffffffffffffffffffffffffffffffffffff021916908373ffffffffffffffffffffffffffffffffffffffff16021790555060a08201518160050160006101000a81548173ffffffffffffffffffffffffffffffffffffffff021916908373ffffffffffffffffffffffffffffffffffffffff16021790555060c0820151816006015560e0820151816007019080519060200190612c5f929190613673565b509050507fcde950623bdaadd4f1c9770d7dbd93064fb50de6bd0c5762c48a7cbff7faae5760075485856004811115612c9b57612c9a613a51565b5b8589600460009054906101000a900473ffffffffffffffffffffffffffffffffffffffff164288604051612cd69897969594939291906145a2565b60405180910390a16008859080600181540180825580915050600190039060005260206000200160009091909190916101000a81548173ffffffffffffffffffffffffffffffffffffffff021916908373ffffffffffffffffffffffffffffffffffffffff16021790555060076000815480929190612d5490614e41565b91905055505050505050565b60606000600d5467ffffffffffffffff811115612d8057612d7f613caf565b5b604051908082528060200260200182016040528015612db957816020015b612da66137f5565b815260200190600190039081612d9e5790505b50905060005b600d5481101561308c576000600c6000838152602001908152602001600020905080604051806101600160405290816000820154815260200160018201548152602001600282015481526020016003820160009054906101000a900460ff166002811115612e3057612e2f613a51565b5b6002811115612e4257612e41613a51565b5b81526020016003820160019054906101000a900460ff166004811115612e6b57612e6a613a51565b5b6004811115612e7d57612e7c613a51565b5b81526020016003820160029054906101000a900460ff166001811115612ea657612ea5613a51565b5b6001811115612eb857612eb7613a51565b5b81526020016003820160039054906101000a900473ffffffffffffffffffffffffffffffffffffffff1673ffffffffffffffffffffffffffffffffffffffff1673ffffffffffffffffffffffffffffffffffffffff1681526020016004820160009054906101000a900473ffffffffffffffffffffffffffffffffffffffff1673ffffffffffffffffffffffffffffffffffffffff1673ffffffffffffffffffffffffffffffffffffffff1681526020016005820160009054906101000a900473ffffffffffffffffffffffffffffffffffffffff1673ffffffffffffffffffffffffffffffffffffffff1673ffffffffffffffffffffffffffffffffffffffff16815260200160068201548152602001600782018054612fd890614de5565b80601f016020809104026020016040519081016040528092919081815260200182805461300490614de5565b80156130515780601f1061302657610100808354040283529160200191613051565b820191906000526020600020905b81548152906001019060200180831161303457829003601f168201915b50505050508152505083838151811061306d5761306c614f51565b5b602002602001018190525050808061308490614e41565b915050612dbf565b508091505090565b60075481565b6000600160048111156130b0576130af613a51565b5b8460048111156130c3576130c2613a51565b5b60048111156130d5576130d4613a51565b5b14806131175750600360048111156130f0576130ef613a51565b5b84600481111561310357613102613a51565b5b600481111561311557613114613a51565b5b145b8061315757506004808111156131305761312f613a51565b5b84600481111561314357613142613a51565b5b600481111561315557613154613a51565b5b145b1561316557600090506131aa565b6002600481111561317957613178613a51565b5b84600481111561318c5761318b613a51565b5b600481111561319e5761319d613a51565b5b14156131a957600190505b5b6131b9878787878588886131c2565b50505050505050565b604051806101600160405280600d5481526020018881526020018781526020018660028111156131f5576131f4613a51565b5b600281111561320757613206613a51565b5b815260200185600481111561321f5761321e613a51565b5b600481111561323157613230613a51565b5b815260200184600181111561324957613248613a51565b5b81526020018373ffffffffffffffffffffffffffffffffffffffff168152602001600460009054906101000a900473ffffffffffffffffffffffffffffffffffffffff1673ffffffffffffffffffffffffffffffffffffffff1681526020018273ffffffffffffffffffffffffffffffffffffffff16815260200142815260200160405180602001604052806000815250815250600c6000600d54815260200190815260200160002060008201518160000155602082015181600101556040820151816002015560608201518160030160006101000a81548160ff0219169083600281111561333b5761333a613a51565b5b021790555060808201518160030160016101000a81548160ff0219169083600481111561336b5761336a613a51565b5b021790555060a08201518160030160026101000a81548160ff0219169083600181111561339b5761339a613a51565b5b021790555060c08201518160030160036101000a81548173ffffffffffffffffffffffffffffffffffffffff021916908373ffffffffffffffffffffffffffffffffffffffff16021790555060e08201518160040160006101000a81548173ffffffffffffffffffffffffffffffffffffffff021916908373ffffffffffffffffffffffffffffffffffffffff1602179055506101008201518160050160006101000a81548173ffffffffffffffffffffffffffffffffffffffff021916908373ffffffffffffffffffffffffffffffffffffffff160217905550610120820151816006015561014082015181600701908051906020019061349e929190613673565b509050507fd4b969e56d1e1f6ea9255e6df54d2edcd62299d8a2baf5804e3f5beef56c4390600d5488888860028111156134db576134da613a51565b5b8860048111156134ee576134ed613a51565b5b8888600460009054906101000a900473ffffffffffffffffffffffffffffffffffffffff16894260405161352b9a9998979695949392919061520b565b60405180910390a1600e819080600181540180825580915050600190039060005260206000200160009091909190916101000a81548173ffffffffffffffffffffffffffffffffffffffff021916908373ffffffffffffffffffffffffffffffffffffffff160217905550600d60008154809291906135a990614e41565b919050555050505050505050565b604051806101400160405280600081526020016000801916815260200160608152602001600060048111156135ef576135ee613a51565b5b81526020016000600281111561360857613607613a51565b5b8152602001600073ffffffffffffffffffffffffffffffffffffffff168152602001600073ffffffffffffffffffffffffffffffffffffffff168152602001600073ffffffffffffffffffffffffffffffffffffffff16815260200160008152602001606081525090565b82805461367f90614de5565b90600052602060002090601f0160209004810192826136a157600085556136e8565b82601f106136ba57805160ff19168380011785556136e8565b828001600101855582156136e8579182015b828111156136e75782518255916020019190600101906136cc565b5b5090506136f591906138ca565b5090565b60405180610100016040528060008152602001600080191681526020016000600481111561372a57613729613a51565b5b815260200160608152602001600073ffffffffffffffffffffffffffffffffffffffff168152602001600073ffffffffffffffffffffffffffffffffffffffff16815260200160008152602001606081525090565b6040518061010001604052806000815260200160608152602001600080191681526020016000801916815260200160008019168152602001600060038111156137cb576137ca613a51565b5b8152602001600073ffffffffffffffffffffffffffffffffffffffff168152602001600081525090565b6040518061016001604052806000815260200160008152602001600080191681526020016000600281111561382d5761382c613a51565b5b81526020016000600481111561384657613845613a51565b5b81526020016000600181111561385f5761385e613a51565b5b8152602001600073ffffffffffffffffffffffffffffffffffffffff168152602001600073ffffffffffffffffffffffffffffffffffffffff168152602001600073ffffffffffffffffffffffffffffffffffffffff16815260200160008152602001606081525090565b5b808211156138e35760008160009055506001016138cb565b5090565b6000604051905090565b600080fd5b600080fd5b600073ffffffffffffffffffffffffffffffffffffffff82169050919050565b6000613926826138fb565b9050919050565b6139368161391b565b811461394157600080fd5b50565b6000813590506139538161392d565b92915050565b60006020828403121561396f5761396e6138f1565b5b600061397d84828501613944565b91505092915050565b6000819050919050565b61399981613986565b82525050565b6000819050919050565b6139b28161399f565b82525050565b600081519050919050565b600082825260208201905092915050565b60005b838110156139f25780820151818401526020810190506139d7565b83811115613a01576000848401525b50505050565b6000601f19601f8301169050919050565b6000613a23826139b8565b613a2d81856139c3565b9350613a3d8185602086016139d4565b613a4681613a07565b840191505092915050565b7f4e487b7100000000000000000000000000000000000000000000000000000000600052602160045260246000fd5b60058110613a9157613a90613a51565b5b50565b6000819050613aa282613a80565b919050565b6000613ab282613a94565b9050919050565b613ac281613aa7565b82525050565b60038110613ad957613ad8613a51565b5b50565b6000819050613aea82613ac8565b919050565b6000613afa82613adc565b9050919050565b613b0a81613aef565b82525050565b613b198161391b565b82525050565b600061014083016000830151613b386000860182613990565b506020830151613b4b60208601826139a9565b5060408301518482036040860152613b638282613a18565b9150506060830151613b786060860182613ab9565b506080830151613b8b6080860182613b01565b5060a0830151613b9e60a0860182613b10565b5060c0830151613bb160c0860182613b10565b5060e0830151613bc460e0860182613b10565b50610100830151613bd9610100860182613990565b50610120830151848203610120860152613bf38282613a18565b9150508091505092915050565b60006020820190508181036000830152613c1a8184613b1f565b905092915050565b613c2b8161391b565b82525050565b6000602082019050613c466000830184613c22565b92915050565b613c5581613986565b8114613c6057600080fd5b50565b600081359050613c7281613c4c565b92915050565b600060208284031215613c8e57613c8d6138f1565b5b6000613c9c84828501613c63565b91505092915050565b600080fd5b600080fd5b7f4e487b7100000000000000000000000000000000000000000000000000000000600052604160045260246000fd5b613ce782613a07565b810181811067ffffffffffffffff82111715613d0657613d05613caf565b5b80604052505050565b6000613d196138e7565b9050613d258282613cde565b919050565b600067ffffffffffffffff821115613d4557613d44613caf565b5b613d4e82613a07565b9050602081019050919050565b82818337600083830152505050565b6000613d7d613d7884613d2a565b613d0f565b905082815260208101848484011115613d9957613d98613caa565b5b613da4848285613d5b565b509392505050565b600082601f830112613dc157613dc0613ca5565b5b8135613dd1848260208601613d6a565b91505092915050565b600080600080600080600060e0888a031215613df957613df86138f1565b5b6000613e078a828b01613c63565b9750506020613e188a828b01613c63565b965050604088013567ffffffffffffffff811115613e3957613e386138f6565b5b613e458a828b01613dac565b9550506060613e568a828b01613c63565b9450506080613e678a828b01613c63565b93505060a0613e788a828b01613944565b92505060c088013567ffffffffffffffff811115613e9957613e986138f6565b5b613ea58a828b01613dac565b91505092959891949750929550565b600081519050919050565b600082825260208201905092915050565b6000819050602082019050919050565b600061014083016000830151613ef96000860182613990565b506020830151613f0c60208601826139a9565b5060408301518482036040860152613f248282613a18565b9150506060830151613f396060860182613ab9565b506080830151613f4c6080860182613b01565b5060a0830151613f5f60a0860182613b10565b5060c0830151613f7260c0860182613b10565b5060e0830151613f8560e0860182613b10565b50610100830151613f9a610100860182613990565b50610120830151848203610120860152613fb48282613a18565b9150508091505092915050565b6000613fcd8383613ee0565b905092915050565b6000602082019050919050565b6000613fed82613eb4565b613ff78185613ebf565b93508360208202850161400985613ed0565b8060005b8581101561404557848403895281516140268582613fc1565b945061403183613fd5565b925060208a0199505060018101905061400d565b50829750879550505050505092915050565b600060208201905081810360008301526140718184613fe2565b905092915050565b6000610100830160008301516140926000860182613990565b5060208301516140a560208601826139a9565b5060408301516140b86040860182613ab9565b50606083015184820360608601526140d08282613a18565b91505060808301516140e56080860182613b10565b5060a08301516140f860a0860182613b10565b5060c083015161410b60c0860182613990565b5060e083015184820360e08601526141238282613a18565b9150508091505092915050565b6000602082019050818103600083015261414a8184614079565b905092915050565b6004811061416357614162613a51565b5b50565b600081905061417482614152565b919050565b600061418482614166565b9050919050565b61419481614179565b82525050565b6000610100830160008301516141b36000860182613990565b50602083015184820360208601526141cb8282613a18565b91505060408301516141e060408601826139a9565b5060608301516141f360608601826139a9565b50608083015161420660808601826139a9565b5060a083015161421960a086018261418b565b5060c083015161422c60c0860182613b10565b5060e083015161423f60e0860182613990565b508091505092915050565b60006020820190508181036000830152614264818461419a565b905092915050565b61427581613986565b82525050565b6000602082019050614290600083018461426c565b92915050565b600081519050919050565b600082825260208201905092915050565b6000819050602082019050919050565b6000610100830160008301516142db6000860182613990565b5060208301516142ee60208601826139a9565b5060408301516143016040860182613ab9565b50606083015184820360608601526143198282613a18565b915050608083015161432e6080860182613b10565b5060a083015161434160a0860182613b10565b5060c083015161435460c0860182613990565b5060e083015184820360e086015261436c8282613a18565b9150508091505092915050565b600061438583836142c2565b905092915050565b6000602082019050919050565b60006143a582614296565b6143af81856142a1565b9350836020820285016143c1856142b2565b8060005b858110156143fd57848403895281516143de8582614379565b94506143e98361438d565b925060208a019950506001810190506143c5565b50829750879550505050505092915050565b60006020820190508181036000830152614429818461439a565b905092915050565b61443a8161399f565b82525050565b61444981613aef565b82525050565b61445881613aa7565b82525050565b6002811061446f5761446e613a51565b5b50565b60008190506144808261445e565b919050565b600061449082614472565b9050919050565b6144a081614485565b82525050565b600082825260208201905092915050565b60006144c2826139b8565b6144cc81856144a6565b93506144dc8185602086016139d4565b6144e581613a07565b840191505092915050565b600061016082019050614506600083018e61426c565b614513602083018d61426c565b614520604083018c614431565b61452d606083018b614440565b61453a608083018a61444f565b61454760a0830189614497565b61455460c0830188613c22565b61456160e0830187613c22565b61456f610100830186613c22565b61457d61012083018561426c565b81810361014083015261459081846144b7565b90509c9b505050505050505050505050565b6000610100820190506145b8600083018b61426c565b6145c5602083018a614431565b6145d2604083018961444f565b81810360608301526145e481886144b7565b90506145f36080830187613c22565b61460060a0830186613c22565b61460d60c083018561426c565b81810360e083015261461f81846144b7565b90509998505050505050505050565b60008060408385031215614645576146446138f1565b5b600061465385828601613c63565b925050602061466485828601613944565b9150509250929050565b61467781614179565b82525050565b600061010082019050614693600083018b61426c565b81810360208301526146a5818a6144b7565b90506146b46040830189614431565b6146c16060830188614431565b6146ce6080830187614431565b6146db60a083018661466e565b6146e860c0830185613c22565b6146f560e083018461426c565b9998505050505050505050565b600061014082019050614718600083018d61426c565b614725602083018c614431565b8181036040830152614737818b6144b7565b9050614746606083018a61444f565b6147536080830189614440565b61476060a0830188613c22565b61476d60c0830187613c22565b61477a60e0830186613c22565b61478861010083018561426c565b81810361012083015261479b81846144b7565b90509b9a5050505050505050505050565b6147b58161399f565b81146147c057600080fd5b50565b6000813590506147d2816147ac565b92915050565b60008060008060008060c087890312156147f5576147f46138f1565b5b600087013567ffffffffffffffff811115614813576148126138f6565b5b61481f89828a01613dac565b965050602061483089828a016147c3565b955050604061484189828a016147c3565b945050606061485289828a016147c3565b935050608061486389828a01613c63565b92505060a061487489828a01613944565b9150509295509295509295565b60008060008060008060c0878903121561489e5761489d6138f1565b5b60006148ac89828a016147c3565b96505060206148bd89828a01613c63565b95505060406148ce89828a01613c63565b94505060606148df89828a01613944565b93505060806148f089828a01613944565b92505060a087013567ffffffffffffffff811115614911576149106138f6565b5b61491d89828a01613dac565b9150509295509295509295565b600081519050919050565b600082825260208201905092915050565b6000819050602082019050919050565b60006101008301600083015161496f6000860182613990565b50602083015184820360208601526149878282613a18565b915050604083015161499c60408601826139a9565b5060608301516149af60608601826139a9565b5060808301516149c260808601826139a9565b5060a08301516149d560a086018261418b565b5060c08301516149e860c0860182613b10565b5060e08301516149fb60e0860182613990565b508091505092915050565b6000614a128383614956565b905092915050565b6000602082019050919050565b6000614a328261492a565b614a3c8185614935565b935083602082028501614a4e85614946565b8060005b85811015614a8a5784840389528151614a6b8582614a06565b9450614a7683614a1a565b925060208a01995050600181019050614a52565b50829750879550505050505092915050565b60006020820190508181036000830152614ab68184614a27565b905092915050565b600080600080600060a08688031215614ada57614ad96138f1565b5b6000614ae888828901613944565b9550506020614af9888289016147c3565b9450506040614b0a88828901613c63565b935050606086013567ffffffffffffffff811115614b2b57614b2a6138f6565b5b614b3788828901613dac565b925050608086013567ffffffffffffffff811115614b5857614b576138f6565b5b614b6488828901613dac565b9150509295509295909350565b600081519050919050565b600082825260208201905092915050565b6000819050602082019050919050565b614ba681614485565b82525050565b600061016083016000830151614bc56000860182613990565b506020830151614bd86020860182613990565b506040830151614beb60408601826139a9565b506060830151614bfe6060860182613b01565b506080830151614c116080860182613ab9565b5060a0830151614c2460a0860182614b9d565b5060c0830151614c3760c0860182613b10565b5060e0830151614c4a60e0860182613b10565b50610100830151614c5f610100860182613b10565b50610120830151614c74610120860182613990565b50610140830151848203610140860152614c8e8282613a18565b9150508091505092915050565b6000614ca78383614bac565b905092915050565b6000602082019050919050565b6000614cc782614b71565b614cd18185614b7c565b935083602082028501614ce385614b8d565b8060005b85811015614d1f5784840389528151614d008582614c9b565b9450614d0b83614caf565b925060208a01995050600181019050614ce7565b50829750879550505050505092915050565b60006020820190508181036000830152614d4b8184614cbc565b905092915050565b7f4e487b7100000000000000000000000000000000000000000000000000000000600052601160045260246000fd5b6000614d8d82613986565b9150614d9883613986565b925082821015614dab57614daa614d53565b5b828203905092915050565b7f4e487b7100000000000000000000000000000000000000000000000000000000600052602260045260246000fd5b60006002820490506001821680614dfd57607f821691505b60208210811415614e1157614e10614db6565b5b50919050565b6000614e2282613986565b91506000821415614e3657614e35614d53565b5b600182039050919050565b6000614e4c82613986565b91507fffffffffffffffffffffffffffffffffffffffffffffffffffffffffffffffff821415614e7f57614e7e614d53565b5b600182019050919050565b6000819050919050565b614ea5614ea08261399f565b614e8a565b82525050565b60008160601b9050919050565b6000614ec382614eab565b9050919050565b6000614ed582614eb8565b9050919050565b614eed614ee88261391b565b614eca565b82525050565b6000819050919050565b614f0e614f0982613986565b614ef3565b82525050565b6000614f208286614e94565b602082019150614f308285614edc565b601482019150614f408284614efd565b602082019150819050949350505050565b7f4e487b7100000000000000000000000000000000000000000000000000000000600052603260045260246000fd5b600081905092915050565b60008190508160005260206000209050919050565b60008154614fad81614de5565b614fb78186614f80565b94506001821660008114614fd25760018114614fe357615016565b60ff19831686528186019350615016565b614fec85614f8b565b60005b8381101561500e57815481890152600182019150602081019050614fef565b838801955050505b50505092915050565b600061502b8284614fa0565b915081905092915050565b600060a08201905061504b600083018861426c565b6150586020830187614431565b6150656040830186614431565b6150726060830185614431565b61507f608083018461426c565b9695505050505050565b7f596f7520617265206e6f7420616e206f776e6572000000000000000000000000600082015250565b60006150bf6014836144a6565b91506150ca82615089565b602082019050919050565b600060208201905081810360008301526150ee816150b2565b9050919050565b6000615100826139b8565b61510a8185614f80565b935061511a8185602086016139d4565b80840191505092915050565b600061513282846150f5565b915081905092915050565b50565b600061514d6000836144a6565b91506151588261513d565b600082019050919050565b600061014082019050615179600083018c61426c565b615186602083018b614431565b818103604083015261519781615140565b90506151a6606083018a61444f565b6151b36080830189614440565b6151c060a0830188613c22565b6151cd60c0830187613c22565b6151da60e0830186613c22565b6151e861010083018561426c565b8181036101208301526151fb81846144b7565b90509a9950505050505050505050565b600061016082019050615221600083018d61426c565b61522e602083018c61426c565b61523b604083018b614431565b615248606083018a614440565b615255608083018961444f565b61526260a0830188614497565b61526f60c0830187613c22565b61527c60e0830186613c22565b61528a610100830185613c22565b61529861012083018461426c565b8181036101408301526152aa81615140565b90509b9a505050505050505050505056fea264697066735822122053506cb0c029137d799e9fb2477d880f957fa44a7e99574268cf6151437850b264736f6c634300080a0033",
  "immutableReferences": {},
  "source": "// SPDX-License-Identifier: MIT\r\npragma solidity >=0.8.0 <0.9.0;\r\n\r\nimport \"./UserChain.sol\";\r\nimport \"./SharedChain.sol\";\r\n\r\ncontract ProjectChain is UserChain {\r\n    bytes32 constant PROJECT_HASH_VALUE = \"csd?S@salas;dlA234_D.;s_as\";\r\n    bytes32 constant REQUEST_HASH_VALUE = \"csd?.!?*salas;dlA.;s_as\";\r\n\r\n    address _projectInitiator;\r\n    uint _indexUniqueAddress = 0;\r\n\r\n    constructor() {\r\n        _projectInitiator = msg.sender;\r\n    }\r\n\r\n    modifier onlyProjectInitiator {\r\n        require(users[_projectInitiator]._role == Roles.ProjectInitiator, \"You don't have the rights for this resources.\");\r\n        require(_projectInitiator == msg.sender, \"You are not a project initiator\");\r\n        _;\r\n    }\r\n\r\n    function methodData() public view returns(uint256) {\r\n        return block.timestamp;\r\n    }\r\n\r\n\r\n    /**  PROJECT INITIATOR  */\r\n\r\n    mapping(address => Project) public projects;\r\n    uint public projectsCounter = 0;\r\n    address[] public projectsAddress;\r\n\r\n    function createUniqueProjectAddress() public returns (address) {\r\n        _indexUniqueAddress++;\r\n        return address(uint160(uint256(keccak256(abi.encodePacked(PROJECT_HASH_VALUE, _projectInitiator, _indexUniqueAddress)))));\r\n    }\r\n\r\n    function createProject(address _projectAddress, bytes32 _name, uint _status, string memory _ipfsFileCID, string memory _signature) public {\r\n        projects[_projectAddress] = Project(\r\n            projectsCounter, _name, ProjectStatus(_status),\r\n            _ipfsFileCID, _projectAddress,\r\n            _projectInitiator, block.timestamp, _signature\r\n        );\r\n\r\n        emit ProjectEvent(\r\n            projectsCounter, _name, ProjectStatus(_status),\r\n            _ipfsFileCID, _projectAddress, _projectInitiator,\r\n            block.timestamp, _signature\r\n        );\r\n        projectsAddress.push(_projectAddress);\r\n        projectsCounter++;\r\n    }\r\n\r\n    function getProjectInfo(address _address) public view returns (Project memory) {\r\n        return projects[_address];\r\n    }\r\n\r\n    function getAllProjects() public view returns(Project[] memory) {\r\n        Project[] memory allProjects = new Project[](projectsCounter);\r\n        for (uint index = 0; index < projectsCounter; index++) {\r\n            address _projectAddress = projectsAddress[index];\r\n            Project storage project = projects[_projectAddress];\r\n            allProjects[index] = project;\r\n        }\r\n        return allProjects;\r\n    }\r\n\r\n\r\n    /**  Project Requests  */\r\n\r\n    mapping(uint => ProjectRequest) public projectRequests;\r\n    uint public projectRequestsCounter = 0;\r\n    address[] public projectRequestsAddress;\r\n\r\n    function createUniqueProjectRequestAddress() public returns (address) {\r\n        _indexUniqueAddress++;\r\n        return address(uint160(uint256(keccak256(abi.encodePacked(REQUEST_HASH_VALUE, _projectInitiator, _indexUniqueAddress)))));\r\n    }\r\n\r\n    function createProjectRequest(\r\n        bytes32 _title, uint _status, uint _requestStatus,\r\n        address _projectAddress, address _projectReqAddress, string memory _signature\r\n    ) public {\r\n        projectRequests[projectRequestsCounter] = ProjectRequest(\r\n            projectRequestsCounter, _title, '', ProjectStatus(_status),\r\n            RequestStatus(_requestStatus), _projectAddress,\r\n            _projectInitiator, _projectReqAddress, block.timestamp, _signature\r\n        );\r\n\r\n        filterRequests(projectRequestsCounter, _title, _requestStatus, _status, _projectAddress, _projectReqAddress);\r\n\r\n        emit ProjectRequestEvent(\r\n            projectRequestsCounter, _title, '',\r\n            ProjectStatus(_status), RequestStatus(_requestStatus),\r\n            _projectAddress, _projectInitiator,\r\n            _projectReqAddress, block.timestamp, _signature\r\n        );\r\n        projectRequestsAddress.push(_projectReqAddress);\r\n        projectRequestsCounter++;\r\n    }\r\n\r\n    function filterRequests(\r\n        uint _indexProjectRequest,\r\n        bytes32 _title,\r\n        uint _requestStatus,\r\n        uint _projectStatus,\r\n        address _projectAddress,\r\n        address _requestAddress\r\n    ) internal {\r\n        RequestType _requestType;\r\n        if (\r\n            ProjectStatus(_projectStatus) == ProjectStatus.ToApprove ||\r\n            ProjectStatus(_projectStatus) == ProjectStatus.FinalizationCheck ||\r\n            ProjectStatus(_projectStatus) == ProjectStatus.Completed\r\n        ) {\r\n            _requestType = RequestType.SupervisorReq;\r\n        } else if (ProjectStatus(_projectStatus) == ProjectStatus.StartProject) {\r\n            _requestType = RequestType.CompanyReq;\r\n        }\r\n        createRequest(_indexProjectRequest, _title, _requestStatus, _projectStatus, _requestType, _projectAddress, _requestAddress);\r\n    }\r\n\r\n    function getAllProjectRequests() public view returns(ProjectRequest[] memory) {\r\n        ProjectRequest[] memory allProjectRequests = new ProjectRequest[](projectRequestsCounter);\r\n        for (uint index = 0; index < projectsCounter; index++) {\r\n            ProjectRequest storage projectReq = projectRequests[index];\r\n            allProjectRequests[index] = projectReq;\r\n        }\r\n        return allProjectRequests;\r\n    }\r\n\r\n    function getLastProjectRequest(address _projectAddress) public view returns(ProjectRequest memory) {\r\n        ProjectRequest memory request;\r\n        if (projectRequestsCounter > 0) {\r\n            for (uint index = projectRequestsCounter - 1; index >= 0; index--) {\r\n                if (_projectAddress == projectRequests[index]._projectAddress) {\r\n                    request = ProjectRequest(\r\n                        projectRequests[index]._index,\r\n                        projectRequests[index]._title,\r\n                        projectRequests[index]._comments,\r\n                        projectRequests[index]._status,\r\n                        projectRequests[index]._requestStatus,\r\n                        projectRequests[index]._projectAddress,\r\n                        projectRequests[index]._userAddress,\r\n                        projectRequests[index]._requestAddress,\r\n                        block.timestamp,\r\n                        projectRequests[index]._signature\r\n                    );\r\n                    return request;\r\n                }\r\n            }\r\n        }\r\n        return request;\r\n    }\r\n\r\n\r\n    /**  DATA FOR SUPERVISOR && COMPANY  */\r\n\r\n    mapping(uint => Request) public requests;\r\n    uint public requestsCounter = 0;\r\n    address[] public requestsAddress;\r\n\r\n    function createRequest(\r\n        uint _indexProjectRequest,\r\n        bytes32 _title,\r\n        uint _requestStatus,\r\n        uint _projectStatus,\r\n        RequestType _requestType,\r\n        address _projectAddress,\r\n        address _requestAddress\r\n    ) internal {\r\n        requests[requestsCounter] = Request(\r\n            requestsCounter, _indexProjectRequest, _title,\r\n            RequestStatus(_requestStatus), ProjectStatus(_projectStatus),\r\n            _requestType, _projectAddress, _projectInitiator,\r\n            _requestAddress, block.timestamp, ''\r\n        );\r\n\r\n        emit RequestEvent(\r\n            requestsCounter, _indexProjectRequest, _title,\r\n            RequestStatus(_requestStatus), ProjectStatus(_projectStatus),\r\n            _requestType, _projectAddress, _projectInitiator,\r\n            _requestAddress, block.timestamp, ''\r\n        );\r\n        requestsAddress.push(_requestAddress);\r\n        requestsCounter++;\r\n    }\r\n\r\n    function updateRequest(\r\n        uint _index,\r\n        uint _indexProjectRequest,\r\n        string memory _comments,\r\n        uint _requestStatus,\r\n        uint _projectStatus,\r\n        address _projectAddress,\r\n        string memory _signature\r\n    ) public {\r\n        // Update request status in the Requests Mapping and Struct Array\r\n        requests[_index]._requestStatus = RequestStatus(_requestStatus);\r\n        requests[_index]._signature = _signature;\r\n\r\n        //uint index = requests[_index]._index;\r\n        //allRequests[index]._requestStatus = RequestStatus(_requestStatus);\r\n        //allRequests[index]._signature = _signature;\r\n\r\n        // Update project request status in the Project Requests Mapping and Struct Array\r\n        projectRequests[_indexProjectRequest]._comments = _comments;\r\n        projectRequests[_indexProjectRequest]._requestStatus = RequestStatus(_requestStatus);\r\n\r\n        // Update ProjectStatus to the requested status - Porject Mapping and Struct Array\r\n        projects[_projectAddress]._status = ProjectStatus(_projectStatus);\r\n\r\n\r\n        // !!!!! OBSERVATION\r\n        //emit changes for both project request mapping and request mapping\r\n    }\r\n\r\n    function getAllRequests() public view returns(Request[] memory) {\r\n        Request[] memory allRequests = new Request[](requestsCounter);\r\n        for (uint index = 0; index < requestsCounter; index++) {\r\n            Request storage request = requests[index];\r\n            allRequests[index] = request;\r\n        }\r\n        return allRequests;\r\n    }\r\n}\r\n",
  "sourcePath": "/mnt/c/Users/Beniamin/source/repos/DissertationProject/contracts/ProjectChain.sol",
  "compiler": {
    "name": "solc",
    "version": "0.8.10+commit.fc410830.Emscripten.clang"
  },
  "schemaVersion": "3.4.3",
  "updatedAt": "2021-11-26T17:27:50.067Z",
  "networkType": "ethereum",
  "devdoc": {
    "kind": "dev",
    "methods": {},
    "version": 1
  },
  "userdoc": {
    "kind": "user",
    "methods": {
      "projectRequests(uint256)": {
        "notice": "Project Requests  "
      },
      "projects(address)": {
        "notice": "PROJECT INITIATOR  "
      },
      "requests(uint256)": {
        "notice": "DATA FOR SUPERVISOR && COMPANY  "
      }
    },
    "version": 1
  }
}