{
  "contractName": "ProjectChain",
  "abi": [
    {
      "inputs": [],
      "stateMutability": "nonpayable",
      "type": "constructor"
    },
    {
      "anonymous": false,
      "inputs": [
        {
          "indexed": false,
          "internalType": "uint256",
          "name": "_index",
          "type": "uint256"
        },
        {
          "indexed": false,
          "internalType": "bytes32",
          "name": "_name",
          "type": "bytes32"
        },
        {
          "indexed": false,
          "internalType": "enum SharedChain.ProjectStatus",
          "name": "_status",
          "type": "uint8"
        },
        {
          "indexed": false,
          "internalType": "string",
          "name": "_ipfsFileCID",
          "type": "string"
        },
        {
          "indexed": false,
          "internalType": "address",
          "name": "_projectAddress",
          "type": "address"
        },
        {
          "indexed": false,
          "internalType": "address",
          "name": "_userAddress",
          "type": "address"
        },
        {
          "indexed": false,
          "internalType": "uint256",
          "name": "_timestamp",
          "type": "uint256"
        }
      ],
      "name": "ProjectEvent",
      "type": "event"
    },
    {
      "anonymous": false,
      "inputs": [
        {
          "indexed": false,
          "internalType": "uint256",
          "name": "_index",
          "type": "uint256"
        },
        {
          "indexed": false,
          "internalType": "bytes32",
          "name": "_title",
          "type": "bytes32"
        },
        {
          "indexed": false,
          "internalType": "string",
          "name": "_comments",
          "type": "string"
        },
        {
          "indexed": false,
          "internalType": "enum SharedChain.ProjectStatus",
          "name": "_status",
          "type": "uint8"
        },
        {
          "indexed": false,
          "internalType": "enum SharedChain.RequestStatus",
          "name": "_requestStatus",
          "type": "uint8"
        },
        {
          "indexed": false,
          "internalType": "address",
          "name": "_projectAddress",
          "type": "address"
        },
        {
          "indexed": false,
          "internalType": "address",
          "name": "_userAddress",
          "type": "address"
        },
        {
          "indexed": false,
          "internalType": "address",
          "name": "_requestAddress",
          "type": "address"
        },
        {
          "indexed": false,
          "internalType": "uint256",
          "name": "_timestamp",
          "type": "uint256"
        }
      ],
      "name": "ProjectRequestEvent",
      "type": "event"
    },
    {
      "anonymous": false,
      "inputs": [
        {
          "indexed": false,
          "internalType": "uint256",
          "name": "_index",
          "type": "uint256"
        },
        {
          "indexed": false,
          "internalType": "uint256",
          "name": "_indexProjectRequest",
          "type": "uint256"
        },
        {
          "indexed": false,
          "internalType": "bytes32",
          "name": "_title",
          "type": "bytes32"
        },
        {
          "indexed": false,
          "internalType": "enum SharedChain.RequestStatus",
          "name": "_status",
          "type": "uint8"
        },
        {
          "indexed": false,
          "internalType": "enum SharedChain.ProjectStatus",
          "name": "_projectStatus",
          "type": "uint8"
        },
        {
          "indexed": false,
          "internalType": "enum SharedChain.RequestType",
          "name": "_requestType",
          "type": "uint8"
        },
        {
          "indexed": false,
          "internalType": "address",
          "name": "_projectAddress",
          "type": "address"
        },
        {
          "indexed": false,
          "internalType": "address",
          "name": "_userAddress",
          "type": "address"
        },
        {
          "indexed": false,
          "internalType": "address",
          "name": "_requestAddress",
          "type": "address"
        },
        {
          "indexed": false,
          "internalType": "uint256",
          "name": "_timestamp",
          "type": "uint256"
        }
      ],
      "name": "RequestEvent",
      "type": "event"
    },
    {
      "anonymous": false,
      "inputs": [
        {
          "indexed": true,
          "internalType": "address",
          "name": "_walletAddress",
          "type": "address"
        },
        {
          "indexed": true,
          "internalType": "string",
          "name": "_username",
          "type": "string"
        },
        {
          "indexed": false,
          "internalType": "bytes32",
          "name": "_email",
          "type": "bytes32"
        },
        {
          "indexed": false,
          "internalType": "bytes32",
          "name": "_firstname",
          "type": "bytes32"
        },
        {
          "indexed": false,
          "internalType": "bytes32",
          "name": "_lastname",
          "type": "bytes32"
        },
        {
          "indexed": true,
          "internalType": "enum UserChain.Roles",
          "name": "_role",
          "type": "uint8"
        },
        {
          "indexed": false,
          "internalType": "uint256",
          "name": "_timestamp",
          "type": "uint256"
        }
      ],
      "name": "UserEvent",
      "type": "event"
    },
    {
      "inputs": [
        {
          "internalType": "uint256",
          "name": "",
          "type": "uint256"
        }
      ],
      "name": "allProjectRequests",
      "outputs": [
        {
          "internalType": "uint256",
          "name": "_index",
          "type": "uint256"
        },
        {
          "internalType": "bytes32",
          "name": "_title",
          "type": "bytes32"
        },
        {
          "internalType": "string",
          "name": "_comments",
          "type": "string"
        },
        {
          "internalType": "enum SharedChain.ProjectStatus",
          "name": "_status",
          "type": "uint8"
        },
        {
          "internalType": "enum SharedChain.RequestStatus",
          "name": "_requestStatus",
          "type": "uint8"
        },
        {
          "internalType": "address",
          "name": "_projectAddress",
          "type": "address"
        },
        {
          "internalType": "address",
          "name": "_userAddress",
          "type": "address"
        },
        {
          "internalType": "address",
          "name": "_requestAddress",
          "type": "address"
        },
        {
          "internalType": "uint256",
          "name": "_timestamp",
          "type": "uint256"
        }
      ],
      "stateMutability": "view",
      "type": "function",
      "constant": true
    },
    {
      "inputs": [
        {
          "internalType": "uint256",
          "name": "",
          "type": "uint256"
        }
      ],
      "name": "allProjects",
      "outputs": [
        {
          "internalType": "uint256",
          "name": "_index",
          "type": "uint256"
        },
        {
          "internalType": "bytes32",
          "name": "_name",
          "type": "bytes32"
        },
        {
          "internalType": "enum SharedChain.ProjectStatus",
          "name": "_status",
          "type": "uint8"
        },
        {
          "internalType": "string",
          "name": "_ipfsFileCID",
          "type": "string"
        },
        {
          "internalType": "address",
          "name": "_projectAddress",
          "type": "address"
        },
        {
          "internalType": "address",
          "name": "_userAddress",
          "type": "address"
        },
        {
          "internalType": "uint256",
          "name": "_timestamp",
          "type": "uint256"
        }
      ],
      "stateMutability": "view",
      "type": "function",
      "constant": true
    },
    {
      "inputs": [
        {
          "internalType": "uint256",
          "name": "",
          "type": "uint256"
        }
      ],
      "name": "allRequests",
      "outputs": [
        {
          "internalType": "uint256",
          "name": "_index",
          "type": "uint256"
        },
        {
          "internalType": "uint256",
          "name": "_indexProjectRequest",
          "type": "uint256"
        },
        {
          "internalType": "bytes32",
          "name": "_title",
          "type": "bytes32"
        },
        {
          "internalType": "enum SharedChain.RequestStatus",
          "name": "_requestStatus",
          "type": "uint8"
        },
        {
          "internalType": "enum SharedChain.ProjectStatus",
          "name": "_projectStatus",
          "type": "uint8"
        },
        {
          "internalType": "enum SharedChain.RequestType",
          "name": "_requestType",
          "type": "uint8"
        },
        {
          "internalType": "address",
          "name": "_projectAddress",
          "type": "address"
        },
        {
          "internalType": "address",
          "name": "_userAddress",
          "type": "address"
        },
        {
          "internalType": "address",
          "name": "_requestAddress",
          "type": "address"
        },
        {
          "internalType": "uint256",
          "name": "_timestamp",
          "type": "uint256"
        }
      ],
      "stateMutability": "view",
      "type": "function",
      "constant": true
    },
    {
      "inputs": [
        {
          "internalType": "uint256",
          "name": "",
          "type": "uint256"
        }
      ],
      "name": "allUsers",
      "outputs": [
        {
          "internalType": "uint256",
          "name": "_index",
          "type": "uint256"
        },
        {
          "internalType": "string",
          "name": "_username",
          "type": "string"
        },
        {
          "internalType": "bytes32",
          "name": "_email",
          "type": "bytes32"
        },
        {
          "internalType": "bytes32",
          "name": "_firstname",
          "type": "bytes32"
        },
        {
          "internalType": "bytes32",
          "name": "_lastname",
          "type": "bytes32"
        },
        {
          "internalType": "enum UserChain.Roles",
          "name": "_role",
          "type": "uint8"
        },
        {
          "internalType": "address",
          "name": "_walletAddress",
          "type": "address"
        },
        {
          "internalType": "uint256",
          "name": "_timestamp",
          "type": "uint256"
        }
      ],
      "stateMutability": "view",
      "type": "function",
      "constant": true
    },
    {
      "inputs": [
        {
          "internalType": "uint256",
          "name": "_role",
          "type": "uint256"
        },
        {
          "internalType": "address",
          "name": "_walletAddress",
          "type": "address"
        }
      ],
      "name": "changeUserRole",
      "outputs": [],
      "stateMutability": "nonpayable",
      "type": "function"
    },
    {
      "inputs": [],
      "name": "getAllUsers",
      "outputs": [
        {
          "components": [
            {
              "internalType": "uint256",
              "name": "_index",
              "type": "uint256"
            },
            {
              "internalType": "string",
              "name": "_username",
              "type": "string"
            },
            {
              "internalType": "bytes32",
              "name": "_email",
              "type": "bytes32"
            },
            {
              "internalType": "bytes32",
              "name": "_firstname",
              "type": "bytes32"
            },
            {
              "internalType": "bytes32",
              "name": "_lastname",
              "type": "bytes32"
            },
            {
              "internalType": "enum UserChain.Roles",
              "name": "_role",
              "type": "uint8"
            },
            {
              "internalType": "address",
              "name": "_walletAddress",
              "type": "address"
            },
            {
              "internalType": "uint256",
              "name": "_timestamp",
              "type": "uint256"
            }
          ],
          "internalType": "struct UserChain.User[]",
          "name": "",
          "type": "tuple[]"
        }
      ],
      "stateMutability": "view",
      "type": "function",
      "constant": true
    },
    {
      "inputs": [
        {
          "internalType": "address",
          "name": "_walletAddress",
          "type": "address"
        }
      ],
      "name": "getUserInfo",
      "outputs": [
        {
          "components": [
            {
              "internalType": "uint256",
              "name": "_index",
              "type": "uint256"
            },
            {
              "internalType": "string",
              "name": "_username",
              "type": "string"
            },
            {
              "internalType": "bytes32",
              "name": "_email",
              "type": "bytes32"
            },
            {
              "internalType": "bytes32",
              "name": "_firstname",
              "type": "bytes32"
            },
            {
              "internalType": "bytes32",
              "name": "_lastname",
              "type": "bytes32"
            },
            {
              "internalType": "enum UserChain.Roles",
              "name": "_role",
              "type": "uint8"
            },
            {
              "internalType": "address",
              "name": "_walletAddress",
              "type": "address"
            },
            {
              "internalType": "uint256",
              "name": "_timestamp",
              "type": "uint256"
            }
          ],
          "internalType": "struct UserChain.User",
          "name": "",
          "type": "tuple"
        }
      ],
      "stateMutability": "view",
      "type": "function",
      "constant": true
    },
    {
      "inputs": [],
      "name": "owner",
      "outputs": [
        {
          "internalType": "address",
          "name": "",
          "type": "address"
        }
      ],
      "stateMutability": "view",
      "type": "function",
      "constant": true
    },
    {
      "inputs": [
        {
          "internalType": "uint256",
          "name": "",
          "type": "uint256"
        }
      ],
      "name": "projectRequests",
      "outputs": [
        {
          "internalType": "uint256",
          "name": "_index",
          "type": "uint256"
        },
        {
          "internalType": "bytes32",
          "name": "_title",
          "type": "bytes32"
        },
        {
          "internalType": "string",
          "name": "_comments",
          "type": "string"
        },
        {
          "internalType": "enum SharedChain.ProjectStatus",
          "name": "_status",
          "type": "uint8"
        },
        {
          "internalType": "enum SharedChain.RequestStatus",
          "name": "_requestStatus",
          "type": "uint8"
        },
        {
          "internalType": "address",
          "name": "_projectAddress",
          "type": "address"
        },
        {
          "internalType": "address",
          "name": "_userAddress",
          "type": "address"
        },
        {
          "internalType": "address",
          "name": "_requestAddress",
          "type": "address"
        },
        {
          "internalType": "uint256",
          "name": "_timestamp",
          "type": "uint256"
        }
      ],
      "stateMutability": "view",
      "type": "function",
      "constant": true
    },
    {
      "inputs": [],
      "name": "projectRequestsCounter",
      "outputs": [
        {
          "internalType": "uint256",
          "name": "",
          "type": "uint256"
        }
      ],
      "stateMutability": "view",
      "type": "function",
      "constant": true
    },
    {
      "inputs": [
        {
          "internalType": "address",
          "name": "",
          "type": "address"
        }
      ],
      "name": "projects",
      "outputs": [
        {
          "internalType": "uint256",
          "name": "_index",
          "type": "uint256"
        },
        {
          "internalType": "bytes32",
          "name": "_name",
          "type": "bytes32"
        },
        {
          "internalType": "enum SharedChain.ProjectStatus",
          "name": "_status",
          "type": "uint8"
        },
        {
          "internalType": "string",
          "name": "_ipfsFileCID",
          "type": "string"
        },
        {
          "internalType": "address",
          "name": "_projectAddress",
          "type": "address"
        },
        {
          "internalType": "address",
          "name": "_userAddress",
          "type": "address"
        },
        {
          "internalType": "uint256",
          "name": "_timestamp",
          "type": "uint256"
        }
      ],
      "stateMutability": "view",
      "type": "function",
      "constant": true
    },
    {
      "inputs": [],
      "name": "projectsCounter",
      "outputs": [
        {
          "internalType": "uint256",
          "name": "",
          "type": "uint256"
        }
      ],
      "stateMutability": "view",
      "type": "function",
      "constant": true
    },
    {
      "inputs": [
        {
          "internalType": "string",
          "name": "_username",
          "type": "string"
        },
        {
          "internalType": "bytes32",
          "name": "_email",
          "type": "bytes32"
        },
        {
          "internalType": "bytes32",
          "name": "_firstname",
          "type": "bytes32"
        },
        {
          "internalType": "bytes32",
          "name": "_lastname",
          "type": "bytes32"
        },
        {
          "internalType": "uint256",
          "name": "_role",
          "type": "uint256"
        },
        {
          "internalType": "address",
          "name": "_walletAddress",
          "type": "address"
        }
      ],
      "name": "registerUser",
      "outputs": [],
      "stateMutability": "nonpayable",
      "type": "function"
    },
    {
      "inputs": [
        {
          "internalType": "uint256",
          "name": "",
          "type": "uint256"
        }
      ],
      "name": "requests",
      "outputs": [
        {
          "internalType": "uint256",
          "name": "_index",
          "type": "uint256"
        },
        {
          "internalType": "uint256",
          "name": "_indexProjectRequest",
          "type": "uint256"
        },
        {
          "internalType": "bytes32",
          "name": "_title",
          "type": "bytes32"
        },
        {
          "internalType": "enum SharedChain.RequestStatus",
          "name": "_requestStatus",
          "type": "uint8"
        },
        {
          "internalType": "enum SharedChain.ProjectStatus",
          "name": "_projectStatus",
          "type": "uint8"
        },
        {
          "internalType": "enum SharedChain.RequestType",
          "name": "_requestType",
          "type": "uint8"
        },
        {
          "internalType": "address",
          "name": "_projectAddress",
          "type": "address"
        },
        {
          "internalType": "address",
          "name": "_userAddress",
          "type": "address"
        },
        {
          "internalType": "address",
          "name": "_requestAddress",
          "type": "address"
        },
        {
          "internalType": "uint256",
          "name": "_timestamp",
          "type": "uint256"
        }
      ],
      "stateMutability": "view",
      "type": "function",
      "constant": true
    },
    {
      "inputs": [],
      "name": "requestsCounter",
      "outputs": [
        {
          "internalType": "uint256",
          "name": "",
          "type": "uint256"
        }
      ],
      "stateMutability": "view",
      "type": "function",
      "constant": true
    },
    {
      "inputs": [
        {
          "internalType": "address",
          "name": "",
          "type": "address"
        }
      ],
      "name": "users",
      "outputs": [
        {
          "internalType": "uint256",
          "name": "_index",
          "type": "uint256"
        },
        {
          "internalType": "string",
          "name": "_username",
          "type": "string"
        },
        {
          "internalType": "bytes32",
          "name": "_email",
          "type": "bytes32"
        },
        {
          "internalType": "bytes32",
          "name": "_firstname",
          "type": "bytes32"
        },
        {
          "internalType": "bytes32",
          "name": "_lastname",
          "type": "bytes32"
        },
        {
          "internalType": "enum UserChain.Roles",
          "name": "_role",
          "type": "uint8"
        },
        {
          "internalType": "address",
          "name": "_walletAddress",
          "type": "address"
        },
        {
          "internalType": "uint256",
          "name": "_timestamp",
          "type": "uint256"
        }
      ],
      "stateMutability": "view",
      "type": "function",
      "constant": true
    },
    {
      "inputs": [],
      "name": "usersCounter",
      "outputs": [
        {
          "internalType": "uint256",
          "name": "",
          "type": "uint256"
        }
      ],
      "stateMutability": "view",
      "type": "function",
      "constant": true
    },
    {
      "inputs": [
        {
          "internalType": "bytes32",
          "name": "_text",
          "type": "bytes32"
        },
        {
          "internalType": "uint256",
          "name": "_index",
          "type": "uint256"
        }
      ],
      "name": "createUniqueProjectAddress",
      "outputs": [
        {
          "internalType": "address",
          "name": "",
          "type": "address"
        }
      ],
      "stateMutability": "view",
      "type": "function",
      "constant": true
    },
    {
      "inputs": [
        {
          "internalType": "bytes32",
          "name": "_name",
          "type": "bytes32"
        },
        {
          "internalType": "uint256",
          "name": "_status",
          "type": "uint256"
        },
        {
          "internalType": "string",
          "name": "_ipfsFileCID",
          "type": "string"
        }
      ],
      "name": "createProject",
      "outputs": [],
      "stateMutability": "nonpayable",
      "type": "function"
    },
    {
      "inputs": [
        {
          "internalType": "address",
          "name": "_address",
          "type": "address"
        }
      ],
      "name": "getProjectInfo",
      "outputs": [
        {
          "components": [
            {
              "internalType": "uint256",
              "name": "_index",
              "type": "uint256"
            },
            {
              "internalType": "bytes32",
              "name": "_name",
              "type": "bytes32"
            },
            {
              "internalType": "enum SharedChain.ProjectStatus",
              "name": "_status",
              "type": "uint8"
            },
            {
              "internalType": "string",
              "name": "_ipfsFileCID",
              "type": "string"
            },
            {
              "internalType": "address",
              "name": "_projectAddress",
              "type": "address"
            },
            {
              "internalType": "address",
              "name": "_userAddress",
              "type": "address"
            },
            {
              "internalType": "uint256",
              "name": "_timestamp",
              "type": "uint256"
            }
          ],
          "internalType": "struct SharedChain.Project",
          "name": "",
          "type": "tuple"
        }
      ],
      "stateMutability": "view",
      "type": "function",
      "constant": true
    },
    {
      "inputs": [],
      "name": "getAllProjects",
      "outputs": [
        {
          "components": [
            {
              "internalType": "uint256",
              "name": "_index",
              "type": "uint256"
            },
            {
              "internalType": "bytes32",
              "name": "_name",
              "type": "bytes32"
            },
            {
              "internalType": "enum SharedChain.ProjectStatus",
              "name": "_status",
              "type": "uint8"
            },
            {
              "internalType": "string",
              "name": "_ipfsFileCID",
              "type": "string"
            },
            {
              "internalType": "address",
              "name": "_projectAddress",
              "type": "address"
            },
            {
              "internalType": "address",
              "name": "_userAddress",
              "type": "address"
            },
            {
              "internalType": "uint256",
              "name": "_timestamp",
              "type": "uint256"
            }
          ],
          "internalType": "struct SharedChain.Project[]",
          "name": "",
          "type": "tuple[]"
        }
      ],
      "stateMutability": "view",
      "type": "function",
      "constant": true
    },
    {
      "inputs": [
        {
          "internalType": "bytes32",
          "name": "_text",
          "type": "bytes32"
        },
        {
          "internalType": "uint256",
          "name": "_index",
          "type": "uint256"
        }
      ],
      "name": "createUniqueProjectRequestAddress",
      "outputs": [
        {
          "internalType": "address",
          "name": "",
          "type": "address"
        }
      ],
      "stateMutability": "view",
      "type": "function",
      "constant": true
    },
    {
      "inputs": [
        {
          "internalType": "bytes32",
          "name": "_title",
          "type": "bytes32"
        },
        {
          "internalType": "uint256",
          "name": "_status",
          "type": "uint256"
        },
        {
          "internalType": "uint256",
          "name": "_requestStatus",
          "type": "uint256"
        },
        {
          "internalType": "address",
          "name": "_projectAddress",
          "type": "address"
        }
      ],
      "name": "createProjectRequest",
      "outputs": [],
      "stateMutability": "nonpayable",
      "type": "function"
    },
    {
      "inputs": [],
      "name": "getAllProjectRequests",
      "outputs": [
        {
          "components": [
            {
              "internalType": "uint256",
              "name": "_index",
              "type": "uint256"
            },
            {
              "internalType": "bytes32",
              "name": "_title",
              "type": "bytes32"
            },
            {
              "internalType": "string",
              "name": "_comments",
              "type": "string"
            },
            {
              "internalType": "enum SharedChain.ProjectStatus",
              "name": "_status",
              "type": "uint8"
            },
            {
              "internalType": "enum SharedChain.RequestStatus",
              "name": "_requestStatus",
              "type": "uint8"
            },
            {
              "internalType": "address",
              "name": "_projectAddress",
              "type": "address"
            },
            {
              "internalType": "address",
              "name": "_userAddress",
              "type": "address"
            },
            {
              "internalType": "address",
              "name": "_requestAddress",
              "type": "address"
            },
            {
              "internalType": "uint256",
              "name": "_timestamp",
              "type": "uint256"
            }
          ],
          "internalType": "struct SharedChain.ProjectRequest[]",
          "name": "",
          "type": "tuple[]"
        }
      ],
      "stateMutability": "view",
      "type": "function",
      "constant": true
    },
    {
      "inputs": [
        {
          "internalType": "address",
          "name": "_projectAddress",
          "type": "address"
        }
      ],
      "name": "getLastProjectRequest",
      "outputs": [
        {
          "components": [
            {
              "internalType": "uint256",
              "name": "_index",
              "type": "uint256"
            },
            {
              "internalType": "bytes32",
              "name": "_title",
              "type": "bytes32"
            },
            {
              "internalType": "string",
              "name": "_comments",
              "type": "string"
            },
            {
              "internalType": "enum SharedChain.ProjectStatus",
              "name": "_status",
              "type": "uint8"
            },
            {
              "internalType": "enum SharedChain.RequestStatus",
              "name": "_requestStatus",
              "type": "uint8"
            },
            {
              "internalType": "address",
              "name": "_projectAddress",
              "type": "address"
            },
            {
              "internalType": "address",
              "name": "_userAddress",
              "type": "address"
            },
            {
              "internalType": "address",
              "name": "_requestAddress",
              "type": "address"
            },
            {
              "internalType": "uint256",
              "name": "_timestamp",
              "type": "uint256"
            }
          ],
          "internalType": "struct SharedChain.ProjectRequest",
          "name": "",
          "type": "tuple"
        }
      ],
      "stateMutability": "view",
      "type": "function",
      "constant": true
    },
    {
      "inputs": [
        {
          "internalType": "uint256",
          "name": "_index",
          "type": "uint256"
        },
        {
          "internalType": "string",
          "name": "_comments",
          "type": "string"
        },
        {
          "internalType": "uint256",
          "name": "_requestStatus",
          "type": "uint256"
        },
        {
          "internalType": "uint256",
          "name": "_indexProjectRequest",
          "type": "uint256"
        },
        {
          "internalType": "uint256",
          "name": "_projectStatus",
          "type": "uint256"
        },
        {
          "internalType": "address",
          "name": "_projectAddress",
          "type": "address"
        }
      ],
      "name": "updateRequest",
      "outputs": [],
      "stateMutability": "nonpayable",
      "type": "function"
    },
    {
      "inputs": [],
      "name": "getAllRequests",
      "outputs": [
        {
          "components": [
            {
              "internalType": "uint256",
              "name": "_index",
              "type": "uint256"
            },
            {
              "internalType": "uint256",
              "name": "_indexProjectRequest",
              "type": "uint256"
            },
            {
              "internalType": "bytes32",
              "name": "_title",
              "type": "bytes32"
            },
            {
              "internalType": "enum SharedChain.RequestStatus",
              "name": "_requestStatus",
              "type": "uint8"
            },
            {
              "internalType": "enum SharedChain.ProjectStatus",
              "name": "_projectStatus",
              "type": "uint8"
            },
            {
              "internalType": "enum SharedChain.RequestType",
              "name": "_requestType",
              "type": "uint8"
            },
            {
              "internalType": "address",
              "name": "_projectAddress",
              "type": "address"
            },
            {
              "internalType": "address",
              "name": "_userAddress",
              "type": "address"
            },
            {
              "internalType": "address",
              "name": "_requestAddress",
              "type": "address"
            },
            {
              "internalType": "uint256",
              "name": "_timestamp",
              "type": "uint256"
            }
          ],
          "internalType": "struct SharedChain.Request[]",
          "name": "",
          "type": "tuple[]"
        }
      ],
      "stateMutability": "view",
      "type": "function",
      "constant": true
    }
  ],
  "bytecode": "0x60806040526000600355600060065560006009556000600c5534801561002457600080fd5b50336000806101000a81548173ffffffffffffffffffffffffffffffffffffffff021916908373ffffffffffffffffffffffffffffffffffffffff16021790555033600460006101000a81548173ffffffffffffffffffffffffffffffffffffffff021916908373ffffffffffffffffffffffffffffffffffffffff16021790555061575f80620000b66000396000f3fe608060405234801561001057600080fd5b50600436106101a95760003560e01c806391009786116100f9578063cf13f5d411610097578063e2842d7911610071578063e2842d791461057e578063e9fcdf101461059c578063fb1a002a146105b8578063fe360ea5146105d6576101a9565b8063cf13f5d414610514578063d51594b914610530578063d67b1b9914610560576101a9565b8063a87430ba116100d3578063a87430ba1461046b578063af1b7f49146104a2578063c19ded13146104be578063cc1ee4db146104f6576101a9565b806391009786146103df5780639bf4ec2f146103fb578063a2bdedf414610434576101a9565b80636386c1c71161016657806380d038291161014057806380d038291461033457806381d12c5814610352578063840e78fd1461038b5780638da5cb5b146103c1576101a9565b80636386c1c7146102ae578063663c2269146102de5780637e571188146102fc576101a9565b80630b287892146101ae578063125c7325146101de578063347d1066146101fa578063400003db1461022a57806347ee45b91461024857806353b3194c14610278575b600080fd5b6101c860048036038101906101c39190613ff7565b6105f4565b6040516101d59190614282565b60405180910390f35b6101f860048036038101906101f39190614405565b610a2d565b005b610214600480360381019061020f91906144da565b610d53565b6040516102219190614529565b60405180910390f35b610232610dad565b60405161023f91906146cb565b60405180910390f35b610262600480360381019061025d9190613ff7565b611035565b60405161026f9190614789565b60405180910390f35b610292600480360381019061028d91906147ab565b611225565b6040516102a5979695949392919061484f565b60405180910390f35b6102c860048036038101906102c39190613ff7565b61134c565b6040516102d591906149bd565b60405180910390f35b6102e66114fb565b6040516102f391906149df565b60405180910390f35b610316600480360381019061031191906147ab565b611501565b60405161032b99989796959493929190614a09565b60405180910390f35b61033c611661565b6040516103499190614bfb565b60405180910390f35b61036c600480360381019061036791906147ab565b611857565b6040516103829a99989796959493929190614c65565b60405180910390f35b6103a560048036038101906103a09190613ff7565b611932565b6040516103b8979695949392919061484f565b60405180910390f35b6103c9611a49565b6040516103d69190614529565b60405180910390f35b6103f960048036038101906103f49190614d01565b611a6d565b005b610415600480360381019061041091906147ab565b611d2a565b60405161042b9a99989796959493929190614c65565b60405180910390f35b61044e600480360381019061044991906147ab565b611e15565b604051610462989796959493929190614d50565b60405180910390f35b61048560048036038101906104809190613ff7565b611f22565b604051610499989796959493929190614d50565b60405180910390f35b6104bc60048036038101906104b79190614dd5565b61201f565b005b6104d860048036038101906104d391906147ab565b612581565b6040516104ed99989796959493929190614a09565b60405180910390f35b6104fe6126d1565b60405161050b91906149df565b60405180910390f35b61052e60048036038101906105299190614e44565b6126d7565b005b61054a600480360381019061054591906144da565b612c36565b6040516105579190614529565b60405180910390f35b610568612c90565b60405161057591906149df565b60405180910390f35b610586612c96565b604051610593919061505f565b60405180910390f35b6105b660048036038101906105b19190615081565b612e4b565b005b6105c06133db565b6040516105cd9190615273565b60405180910390f35b6105de613616565b6040516105eb91906149df565b60405180910390f35b6105fc613d39565b610604613d39565b6000600a805490501115610a235760006001600a8054905061062691906152c4565b90505b60008110610a2157600a8181548110610645576106446152f8565b5b906000526020600020906007020160030160029054906101000a900473ffffffffffffffffffffffffffffffffffffffff1673ffffffffffffffffffffffffffffffffffffffff168473ffffffffffffffffffffffffffffffffffffffff161415610a0e57600a81815481106106be576106bd6152f8565b5b906000526020600020906007020160000154826000018181525050600a81815481106106ed576106ec6152f8565b5b906000526020600020906007020160010154826020018181525050600a818154811061071c5761071b6152f8565b5b9060005260206000209060070201600201805461073890615356565b80601f016020809104026020016040519081016040528092919081815260200182805461076490615356565b80156107b15780601f10610786576101008083540402835291602001916107b1565b820191906000526020600020905b81548152906001019060200180831161079457829003601f168201915b50505050508260400181905250600a81815481106107d2576107d16152f8565b5b906000526020600020906007020160030160009054906101000a900460ff1682606001906004811115610808576108076140ef565b5b9081600481111561081c5761081b6140ef565b5b81525050600a8181548110610834576108336152f8565b5b906000526020600020906007020160030160019054906101000a900460ff168260800190600281111561086a576108696140ef565b5b9081600281111561087e5761087d6140ef565b5b81525050600a8181548110610896576108956152f8565b5b906000526020600020906007020160030160029054906101000a900473ffffffffffffffffffffffffffffffffffffffff168260a0019073ffffffffffffffffffffffffffffffffffffffff16908173ffffffffffffffffffffffffffffffffffffffff1681525050600a8181548110610913576109126152f8565b5b906000526020600020906007020160040160009054906101000a900473ffffffffffffffffffffffffffffffffffffffff168260c0019073ffffffffffffffffffffffffffffffffffffffff16908173ffffffffffffffffffffffffffffffffffffffff1681525050600a81815481106109905761098f6152f8565b5b906000526020600020906007020160050160009054906101000a900473ffffffffffffffffffffffffffffffffffffffff168260e0019073ffffffffffffffffffffffffffffffffffffffff16908173ffffffffffffffffffffffffffffffffffffffff168152505042826101000181815250508192505050610a28565b8080610a1990615388565b915050610629565b505b809150505b919050565b836002811115610a4057610a3f6140ef565b5b600b600088815260200190815260200160002060030160006101000a81548160ff02191690836002811115610a7857610a776140ef565b5b02179055506000600b6000888152602001908152602001600020600001549050846002811115610aab57610aaa6140ef565b5b600d8281548110610abf57610abe6152f8565b5b906000526020600020906007020160030160006101000a81548160ff02191690836002811115610af257610af16140ef565b5b021790555085600860008681526020019081526020016000206002019080519060200190610b21929190613dee565b50846002811115610b3557610b346140ef565b5b6008600086815260200190815260200160002060030160016101000a81548160ff02191690836002811115610b6d57610b6c6140ef565b5b021790555060006008600086815260200190815260200160002060000154905086600a8281548110610ba257610ba16152f8565b5b90600052602060002090600702016002019080519060200190610bc6929190613dee565b50856002811115610bda57610bd96140ef565b5b600a8281548110610bee57610bed6152f8565b5b906000526020600020906007020160030160016101000a81548160ff02191690836002811115610c2157610c206140ef565b5b0217905550836004811115610c3957610c386140ef565b5b600560008573ffffffffffffffffffffffffffffffffffffffff1673ffffffffffffffffffffffffffffffffffffffff16815260200190815260200160002060020160006101000a81548160ff02191690836004811115610c9d57610c9c6140ef565b5b02179055506000600560008573ffffffffffffffffffffffffffffffffffffffff1673ffffffffffffffffffffffffffffffffffffffff168152602001908152602001600020600001549050846004811115610cfc57610cfb6140ef565b5b60078281548110610d1057610d0f6152f8565b5b906000526020600020906007020160020160006101000a81548160ff02191690836004811115610d4357610d426140ef565b5b0217905550505050505050505050565b600082600460009054906101000a900473ffffffffffffffffffffffffffffffffffffffff1683604051602001610d8c9392919061543c565b6040516020818303038152906040528051906020012060001c905092915050565b6060600a805480602002602001604051908101604052809291908181526020016000905b8282101561102c5783829060005260206000209060070201604051806101200160405290816000820154815260200160018201548152602001600282018054610e1990615356565b80601f0160208091040260200160405190810160405280929190818152602001828054610e4590615356565b8015610e925780601f10610e6757610100808354040283529160200191610e92565b820191906000526020600020905b815481529060010190602001808311610e7557829003601f168201915b505050505081526020016003820160009054906101000a900460ff166004811115610ec057610ebf6140ef565b5b6004811115610ed257610ed16140ef565b5b81526020016003820160019054906101000a900460ff166002811115610efb57610efa6140ef565b5b6002811115610f0d57610f0c6140ef565b5b81526020016003820160029054906101000a900473ffffffffffffffffffffffffffffffffffffffff1673ffffffffffffffffffffffffffffffffffffffff1673ffffffffffffffffffffffffffffffffffffffff1681526020016004820160009054906101000a900473ffffffffffffffffffffffffffffffffffffffff1673ffffffffffffffffffffffffffffffffffffffff1673ffffffffffffffffffffffffffffffffffffffff1681526020016005820160009054906101000a900473ffffffffffffffffffffffffffffffffffffffff1673ffffffffffffffffffffffffffffffffffffffff1673ffffffffffffffffffffffffffffffffffffffff16815260200160068201548152505081526020019060010190610dd1565b50505050905090565b61103d613e74565b600560008373ffffffffffffffffffffffffffffffffffffffff1673ffffffffffffffffffffffffffffffffffffffff1681526020019081526020016000206040518060e001604052908160008201548152602001600182015481526020016002820160009054906101000a900460ff1660048111156110c0576110bf6140ef565b5b60048111156110d2576110d16140ef565b5b81526020016003820180546110e690615356565b80601f016020809104026020016040519081016040528092919081815260200182805461111290615356565b801561115f5780601f106111345761010080835404028352916020019161115f565b820191906000526020600020905b81548152906001019060200180831161114257829003601f168201915b505050505081526020016004820160009054906101000a900473ffffffffffffffffffffffffffffffffffffffff1673ffffffffffffffffffffffffffffffffffffffff1673ffffffffffffffffffffffffffffffffffffffff1681526020016005820160009054906101000a900473ffffffffffffffffffffffffffffffffffffffff1673ffffffffffffffffffffffffffffffffffffffff1673ffffffffffffffffffffffffffffffffffffffff1681526020016006820154815250509050919050565b6007818154811061123557600080fd5b90600052602060002090600702016000915090508060000154908060010154908060020160009054906101000a900460ff169080600301805461127790615356565b80601f01602080910402602001604051908101604052809291908181526020018280546112a390615356565b80156112f05780601f106112c5576101008083540402835291602001916112f0565b820191906000526020600020905b8154815290600101906020018083116112d357829003601f168201915b5050505050908060040160009054906101000a900473ffffffffffffffffffffffffffffffffffffffff16908060050160009054906101000a900473ffffffffffffffffffffffffffffffffffffffff16908060060154905087565b611354613ef2565b600160008373ffffffffffffffffffffffffffffffffffffffff1673ffffffffffffffffffffffffffffffffffffffff16815260200190815260200160002060405180610100016040529081600082015481526020016001820180546113b990615356565b80601f01602080910402602001604051908101604052809291908181526020018280546113e590615356565b80156114325780601f1061140757610100808354040283529160200191611432565b820191906000526020600020905b81548152906001019060200180831161141557829003601f168201915b505050505081526020016002820154815260200160038201548152602001600482015481526020016005820160009054906101000a900460ff16600381111561147e5761147d6140ef565b5b60038111156114905761148f6140ef565b5b81526020016005820160019054906101000a900473ffffffffffffffffffffffffffffffffffffffff1673ffffffffffffffffffffffffffffffffffffffff1673ffffffffffffffffffffffffffffffffffffffff1681526020016006820154815250509050919050565b600c5481565b600a818154811061151157600080fd5b906000526020600020906007020160009150905080600001549080600101549080600201805461154090615356565b80601f016020809104026020016040519081016040528092919081815260200182805461156c90615356565b80156115b95780601f1061158e576101008083540402835291602001916115b9565b820191906000526020600020905b81548152906001019060200180831161159c57829003601f168201915b5050505050908060030160009054906101000a900460ff16908060030160019054906101000a900460ff16908060030160029054906101000a900473ffffffffffffffffffffffffffffffffffffffff16908060040160009054906101000a900473ffffffffffffffffffffffffffffffffffffffff16908060050160009054906101000a900473ffffffffffffffffffffffffffffffffffffffff16908060060154905089565b60606007805480602002602001604051908101604052809291908181526020016000905b8282101561184e57838290600052602060002090600702016040518060e001604052908160008201548152602001600182015481526020016002820160009054906101000a900460ff1660048111156116e1576116e06140ef565b5b60048111156116f3576116f26140ef565b5b815260200160038201805461170790615356565b80601f016020809104026020016040519081016040528092919081815260200182805461173390615356565b80156117805780601f1061175557610100808354040283529160200191611780565b820191906000526020600020905b81548152906001019060200180831161176357829003601f168201915b505050505081526020016004820160009054906101000a900473ffffffffffffffffffffffffffffffffffffffff1673ffffffffffffffffffffffffffffffffffffffff1673ffffffffffffffffffffffffffffffffffffffff1681526020016005820160009054906101000a900473ffffffffffffffffffffffffffffffffffffffff1673ffffffffffffffffffffffffffffffffffffffff1673ffffffffffffffffffffffffffffffffffffffff16815260200160068201548152505081526020019060010190611685565b50505050905090565b600b6020528060005260406000206000915090508060000154908060010154908060020154908060030160009054906101000a900460ff16908060030160019054906101000a900460ff16908060030160029054906101000a900460ff16908060030160039054906101000a900473ffffffffffffffffffffffffffffffffffffffff16908060040160009054906101000a900473ffffffffffffffffffffffffffffffffffffffff16908060050160009054906101000a900473ffffffffffffffffffffffffffffffffffffffff1690806006015490508a565b60056020528060005260406000206000915090508060000154908060010154908060020160009054906101000a900460ff169080600301805461197490615356565b80601f01602080910402602001604051908101604052809291908181526020018280546119a090615356565b80156119ed5780601f106119c2576101008083540402835291602001916119ed565b820191906000526020600020905b8154815290600101906020018083116119d057829003601f168201915b5050505050908060040160009054906101000a900473ffffffffffffffffffffffffffffffffffffffff16908060050160009054906101000a900473ffffffffffffffffffffffffffffffffffffffff16908060060154905087565b60008054906101000a900473ffffffffffffffffffffffffffffffffffffffff1681565b816003811115611a8057611a7f6140ef565b5b600160008373ffffffffffffffffffffffffffffffffffffffff1673ffffffffffffffffffffffffffffffffffffffff16815260200190815260200160002060050160006101000a81548160ff02191690836003811115611ae457611ae36140ef565b5b02179055506000600160008373ffffffffffffffffffffffffffffffffffffffff1673ffffffffffffffffffffffffffffffffffffffff168152602001908152602001600020600001549050826003811115611b4357611b426140ef565b5b60028281548110611b5757611b566152f8565b5b906000526020600020906007020160050160006101000a81548160ff02191690836003811115611b8a57611b896140ef565b5b0217905550826003811115611ba257611ba16140ef565b5b6003811115611bb457611bb36140ef565b5b600160008473ffffffffffffffffffffffffffffffffffffffff1673ffffffffffffffffffffffffffffffffffffffff168152602001908152602001600020600101604051611c039190615518565b60405180910390208373ffffffffffffffffffffffffffffffffffffffff167f2ae7d1f3a516b67fe6248bb3ec44ca6a8e8d75492c92879f0e621a85954e984a600160008773ffffffffffffffffffffffffffffffffffffffff1673ffffffffffffffffffffffffffffffffffffffff16815260200190815260200160002060020154600160008873ffffffffffffffffffffffffffffffffffffffff1673ffffffffffffffffffffffffffffffffffffffff16815260200190815260200160002060030154600160008973ffffffffffffffffffffffffffffffffffffffff1673ffffffffffffffffffffffffffffffffffffffff1681526020019081526020016000206004015442604051611d1d949392919061552f565b60405180910390a4505050565b600d8181548110611d3a57600080fd5b90600052602060002090600702016000915090508060000154908060010154908060020154908060030160009054906101000a900460ff16908060030160019054906101000a900460ff16908060030160029054906101000a900460ff16908060030160039054906101000a900473ffffffffffffffffffffffffffffffffffffffff16908060040160009054906101000a900473ffffffffffffffffffffffffffffffffffffffff16908060050160009054906101000a900473ffffffffffffffffffffffffffffffffffffffff1690806006015490508a565b60028181548110611e2557600080fd5b9060005260206000209060070201600091509050806000015490806001018054611e4e90615356565b80601f0160208091040260200160405190810160405280929190818152602001828054611e7a90615356565b8015611ec75780601f10611e9c57610100808354040283529160200191611ec7565b820191906000526020600020905b815481529060010190602001808311611eaa57829003601f168201915b5050505050908060020154908060030154908060040154908060050160009054906101000a900460ff16908060050160019054906101000a900473ffffffffffffffffffffffffffffffffffffffff16908060060154905088565b6001602052806000526040600020600091509050806000015490806001018054611f4b90615356565b80601f0160208091040260200160405190810160405280929190818152602001828054611f7790615356565b8015611fc45780601f10611f9957610100808354040283529160200191611fc4565b820191906000526020600020905b815481529060010190602001808311611fa757829003601f168201915b5050505050908060020154908060030154908060040154908060050160009054906101000a900460ff16908060050160019054906101000a900473ffffffffffffffffffffffffffffffffffffffff16908060060154905088565b600061204d7f6373643f534073616c61733b646c413233345f442e3b735f6173000000000000600654610d53565b9050600654600560008373ffffffffffffffffffffffffffffffffffffffff1673ffffffffffffffffffffffffffffffffffffffff1681526020019081526020016000206000018190555083600560008373ffffffffffffffffffffffffffffffffffffffff1673ffffffffffffffffffffffffffffffffffffffff168152602001908152602001600020600101819055508260048111156120f2576120f16140ef565b5b600560008373ffffffffffffffffffffffffffffffffffffffff1673ffffffffffffffffffffffffffffffffffffffff16815260200190815260200160002060020160006101000a81548160ff02191690836004811115612156576121556140ef565b5b021790555081600560008373ffffffffffffffffffffffffffffffffffffffff1673ffffffffffffffffffffffffffffffffffffffff16815260200190815260200160002060030190805190602001906121b1929190613dee565b5080600560008373ffffffffffffffffffffffffffffffffffffffff1673ffffffffffffffffffffffffffffffffffffffff16815260200190815260200160002060040160006101000a81548173ffffffffffffffffffffffffffffffffffffffff021916908373ffffffffffffffffffffffffffffffffffffffff160217905550600460009054906101000a900473ffffffffffffffffffffffffffffffffffffffff16600560008373ffffffffffffffffffffffffffffffffffffffff1673ffffffffffffffffffffffffffffffffffffffff16815260200190815260200160002060050160006101000a81548173ffffffffffffffffffffffffffffffffffffffff021916908373ffffffffffffffffffffffffffffffffffffffff16021790555042600560008373ffffffffffffffffffffffffffffffffffffffff1673ffffffffffffffffffffffffffffffffffffffff168152602001908152602001600020600601819055507fb4d7cf766344f0dab6a272ab11f55b042f020c99154e4e44f886d87c15a2966960065485856004811115612355576123546140ef565b5b8585600460009054906101000a900473ffffffffffffffffffffffffffffffffffffffff164260405161238e979695949392919061484f565b60405180910390a160076040518060e0016040528060065481526020018681526020018560048111156123c4576123c36140ef565b5b60048111156123d6576123d56140ef565b5b81526020018481526020018373ffffffffffffffffffffffffffffffffffffffff168152602001600460009054906101000a900473ffffffffffffffffffffffffffffffffffffffff1673ffffffffffffffffffffffffffffffffffffffff168152602001428152509080600181540180825580915050600190039060005260206000209060070201600090919091909150600082015181600001556020820151816001015560408201518160020160006101000a81548160ff021916908360048111156124a7576124a66140ef565b5b021790555060608201518160030190805190602001906124c8929190613dee565b5060808201518160040160006101000a81548173ffffffffffffffffffffffffffffffffffffffff021916908373ffffffffffffffffffffffffffffffffffffffff16021790555060a08201518160050160006101000a81548173ffffffffffffffffffffffffffffffffffffffff021916908373ffffffffffffffffffffffffffffffffffffffff16021790555060c0820151816006015550506006600081548092919061257690615574565b919050555050505050565b60086020528060005260406000206000915090508060000154908060010154908060020180546125b090615356565b80601f01602080910402602001604051908101604052809291908181526020018280546125dc90615356565b80156126295780601f106125fe57610100808354040283529160200191612629565b820191906000526020600020905b81548152906001019060200180831161260c57829003601f168201915b5050505050908060030160009054906101000a900460ff16908060030160019054906101000a900460ff16908060030160029054906101000a900473ffffffffffffffffffffffffffffffffffffffff16908060040160009054906101000a900473ffffffffffffffffffffffffffffffffffffffff16908060050160009054906101000a900473ffffffffffffffffffffffffffffffffffffffff16908060060154905089565b60095481565b3373ffffffffffffffffffffffffffffffffffffffff1660008054906101000a900473ffffffffffffffffffffffffffffffffffffffff1673ffffffffffffffffffffffffffffffffffffffff1614612765576040517f08c379a000000000000000000000000000000000000000000000000000000000815260040161275c90615609565b60405180910390fd5b600354600160008373ffffffffffffffffffffffffffffffffffffffff1673ffffffffffffffffffffffffffffffffffffffff1681526020019081526020016000206000018190555085600160008373ffffffffffffffffffffffffffffffffffffffff1673ffffffffffffffffffffffffffffffffffffffff1681526020019081526020016000206001019080519060200190612804929190613dee565b5084600160008373ffffffffffffffffffffffffffffffffffffffff1673ffffffffffffffffffffffffffffffffffffffff1681526020019081526020016000206002018190555083600160008373ffffffffffffffffffffffffffffffffffffffff1673ffffffffffffffffffffffffffffffffffffffff1681526020019081526020016000206003018190555082600160008373ffffffffffffffffffffffffffffffffffffffff1673ffffffffffffffffffffffffffffffffffffffff168152602001908152602001600020600401819055508160038111156128ed576128ec6140ef565b5b600160008373ffffffffffffffffffffffffffffffffffffffff1673ffffffffffffffffffffffffffffffffffffffff16815260200190815260200160002060050160006101000a81548160ff02191690836003811115612951576129506140ef565b5b021790555080600160008373ffffffffffffffffffffffffffffffffffffffff1673ffffffffffffffffffffffffffffffffffffffff16815260200190815260200160002060050160016101000a81548173ffffffffffffffffffffffffffffffffffffffff021916908373ffffffffffffffffffffffffffffffffffffffff16021790555042600160008373ffffffffffffffffffffffffffffffffffffffff1673ffffffffffffffffffffffffffffffffffffffff16815260200190815260200160002060060181905550816003811115612a3157612a306140ef565b5b6003811115612a4357612a426140ef565b5b86604051612a51919061565a565b60405180910390208273ffffffffffffffffffffffffffffffffffffffff167f2ae7d1f3a516b67fe6248bb3ec44ca6a8e8d75492c92879f0e621a85954e984a88888842604051612aa5949392919061552f565b60405180910390a460026040518061010001604052806003548152602001888152602001878152602001868152602001858152602001846003811115612aee57612aed6140ef565b5b6003811115612b0057612aff6140ef565b5b81526020018373ffffffffffffffffffffffffffffffffffffffff168152602001428152509080600181540180825580915050600190039060005260206000209060070201600090919091909150600082015181600001556020820151816001019080519060200190612b74929190613dee565b5060408201518160020155606082015181600301556080820151816004015560a08201518160050160006101000a81548160ff02191690836003811115612bbe57612bbd6140ef565b5b021790555060c08201518160050160016101000a81548173ffffffffffffffffffffffffffffffffffffffff021916908373ffffffffffffffffffffffffffffffffffffffff16021790555060e08201518160060155505060036000815480929190612c2990615574565b9190505550505050505050565b600082600460009054906101000a900473ffffffffffffffffffffffffffffffffffffffff1683604051602001612c6f9392919061543c565b6040516020818303038152906040528051906020012060001c905092915050565b60035481565b60606002805480602002602001604051908101604052809291908181526020016000905b82821015612e4257838290600052602060002090600702016040518061010001604052908160008201548152602001600182018054612cf890615356565b80601f0160208091040260200160405190810160405280929190818152602001828054612d2490615356565b8015612d715780601f10612d4657610100808354040283529160200191612d71565b820191906000526020600020905b815481529060010190602001808311612d5457829003601f168201915b505050505081526020016002820154815260200160038201548152602001600482015481526020016005820160009054906101000a900460ff166003811115612dbd57612dbc6140ef565b5b6003811115612dcf57612dce6140ef565b5b81526020016005820160019054906101000a900473ffffffffffffffffffffffffffffffffffffffff1673ffffffffffffffffffffffffffffffffffffffff1673ffffffffffffffffffffffffffffffffffffffff16815260200160068201548152505081526020019060010190612cba565b50505050905090565b6000612e797f6373643f2e213f2a73616c61733b646c412e3b735f6173000000000000000000600954612c36565b9050600954600860006009548152602001908152602001600020600001819055508460086000600954815260200190815260200160002060010181905550604051806020016040528060008152506008600060095481526020019081526020016000206002019080519060200190612ef2929190613dee565b50836004811115612f0657612f056140ef565b5b60086000600954815260200190815260200160002060030160006101000a81548160ff02191690836004811115612f4057612f3f6140ef565b5b0217905550826002811115612f5857612f576140ef565b5b60086000600954815260200190815260200160002060030160016101000a81548160ff02191690836002811115612f9257612f916140ef565b5b02179055508160086000600954815260200190815260200160002060030160026101000a81548173ffffffffffffffffffffffffffffffffffffffff021916908373ffffffffffffffffffffffffffffffffffffffff160217905550600460009054906101000a900473ffffffffffffffffffffffffffffffffffffffff1660086000600954815260200190815260200160002060040160006101000a81548173ffffffffffffffffffffffffffffffffffffffff021916908373ffffffffffffffffffffffffffffffffffffffff1602179055504260086000600954815260200190815260200160002060060181905550613094600954868587868661361c565b7fc8c7ffa5e3684e848f26234af2ac7524e0d3f7420ddcadae1a428d06b209835e600954868660048111156130cc576130cb6140ef565b5b8660028111156130df576130de6140ef565b5b86600460009054906101000a900473ffffffffffffffffffffffffffffffffffffffff168742604051613119989796959493929190615697565b60405180910390a1600a6040518061012001604052806009548152602001878152602001604051806020016040528060008152508152602001866004811115613165576131646140ef565b5b6004811115613177576131766140ef565b5b815260200185600281111561318f5761318e6140ef565b5b60028111156131a1576131a06140ef565b5b81526020018473ffffffffffffffffffffffffffffffffffffffff168152602001600460009054906101000a900473ffffffffffffffffffffffffffffffffffffffff1673ffffffffffffffffffffffffffffffffffffffff1681526020018373ffffffffffffffffffffffffffffffffffffffff16815260200142815250908060018154018082558091505060019003906000526020600020906007020160009091909190915060008201518160000155602082015181600101556040820151816002019080519060200190613279929190613dee565b5060608201518160030160006101000a81548160ff021916908360048111156132a5576132a46140ef565b5b021790555060808201518160030160016101000a81548160ff021916908360028111156132d5576132d46140ef565b5b021790555060a08201518160030160026101000a81548173ffffffffffffffffffffffffffffffffffffffff021916908373ffffffffffffffffffffffffffffffffffffffff16021790555060c08201518160040160006101000a81548173ffffffffffffffffffffffffffffffffffffffff021916908373ffffffffffffffffffffffffffffffffffffffff16021790555060e08201518160050160006101000a81548173ffffffffffffffffffffffffffffffffffffffff021916908373ffffffffffffffffffffffffffffffffffffffff16021790555061010082015181600601555050600960008154809291906133cf90615574565b91905055505050505050565b6060600d805480602002602001604051908101604052809291908181526020016000905b8282101561360d5783829060005260206000209060070201604051806101400160405290816000820154815260200160018201548152602001600282015481526020016003820160009054906101000a900460ff166002811115613466576134656140ef565b5b6002811115613478576134776140ef565b5b81526020016003820160019054906101000a900460ff1660048111156134a1576134a06140ef565b5b60048111156134b3576134b26140ef565b5b81526020016003820160029054906101000a900460ff1660018111156134dc576134db6140ef565b5b60018111156134ee576134ed6140ef565b5b81526020016003820160039054906101000a900473ffffffffffffffffffffffffffffffffffffffff1673ffffffffffffffffffffffffffffffffffffffff1673ffffffffffffffffffffffffffffffffffffffff1681526020016004820160009054906101000a900473ffffffffffffffffffffffffffffffffffffffff1673ffffffffffffffffffffffffffffffffffffffff1673ffffffffffffffffffffffffffffffffffffffff1681526020016005820160009054906101000a900473ffffffffffffffffffffffffffffffffffffffff1673ffffffffffffffffffffffffffffffffffffffff1673ffffffffffffffffffffffffffffffffffffffff168152602001600682015481525050815260200190600101906133ff565b50505050905090565b60065481565b600060016004811115613632576136316140ef565b5b846004811115613645576136446140ef565b5b6004811115613657576136566140ef565b5b1480613699575060036004811115613672576136716140ef565b5b846004811115613685576136846140ef565b5b6004811115613697576136966140ef565b5b145b806136d957506004808111156136b2576136b16140ef565b5b8460048111156136c5576136c46140ef565b5b60048111156136d7576136d66140ef565b5b145b156136e7576000905061372c565b600260048111156136fb576136fa6140ef565b5b84600481111561370e5761370d6140ef565b5b60048111156137205761371f6140ef565b5b141561372b57600190505b5b61373b87878787858888613744565b50505050505050565b600c54600b6000600c5481526020019081526020016000206000018190555086600b6000600c5481526020019081526020016000206001018190555085600b6000600c548152602001908152602001600020600201819055508460028111156137b0576137af6140ef565b5b600b6000600c54815260200190815260200160002060030160006101000a81548160ff021916908360028111156137ea576137e96140ef565b5b0217905550836004811115613802576138016140ef565b5b600b6000600c54815260200190815260200160002060030160016101000a81548160ff0219169083600481111561383c5761383b6140ef565b5b021790555082600b6000600c54815260200190815260200160002060030160026101000a81548160ff0219169083600181111561387c5761387b6140ef565b5b021790555081600b6000600c54815260200190815260200160002060030160036101000a81548173ffffffffffffffffffffffffffffffffffffffff021916908373ffffffffffffffffffffffffffffffffffffffff160217905550600460009054906101000a900473ffffffffffffffffffffffffffffffffffffffff16600b6000600c54815260200190815260200160002060040160006101000a81548173ffffffffffffffffffffffffffffffffffffffff021916908373ffffffffffffffffffffffffffffffffffffffff16021790555080600b6000600c54815260200190815260200160002060050160006101000a81548173ffffffffffffffffffffffffffffffffffffffff021916908373ffffffffffffffffffffffffffffffffffffffff16021790555042600b6000600c548152602001908152602001600020600601819055507fc495e28a4c7b537c488ac38d6bff517119dfced8c47ca7a97ba115ccf5f7a4c0600c5488888860028111156139fe576139fd6140ef565b5b886004811115613a1157613a106140ef565b5b8888600460009054906101000a900473ffffffffffffffffffffffffffffffffffffffff168942604051613a4e9a99989796959493929190614c65565b60405180910390a1600d604051806101400160405280600c548152602001898152602001888152602001876002811115613a8b57613a8a6140ef565b5b6002811115613a9d57613a9c6140ef565b5b8152602001866004811115613ab557613ab46140ef565b5b6004811115613ac757613ac66140ef565b5b8152602001856001811115613adf57613ade6140ef565b5b81526020018473ffffffffffffffffffffffffffffffffffffffff168152602001600460009054906101000a900473ffffffffffffffffffffffffffffffffffffffff1673ffffffffffffffffffffffffffffffffffffffff1681526020018373ffffffffffffffffffffffffffffffffffffffff16815260200142815250908060018154018082558091505060019003906000526020600020906007020160009091909190915060008201518160000155602082015181600101556040820151816002015560608201518160030160006101000a81548160ff02191690836002811115613bd057613bcf6140ef565b5b021790555060808201518160030160016101000a81548160ff02191690836004811115613c0057613bff6140ef565b5b021790555060a08201518160030160026101000a81548160ff02191690836001811115613c3057613c2f6140ef565b5b021790555060c08201518160030160036101000a81548173ffffffffffffffffffffffffffffffffffffffff021916908373ffffffffffffffffffffffffffffffffffffffff16021790555060e08201518160040160006101000a81548173ffffffffffffffffffffffffffffffffffffffff021916908373ffffffffffffffffffffffffffffffffffffffff1602179055506101008201518160050160006101000a81548173ffffffffffffffffffffffffffffffffffffffff021916908373ffffffffffffffffffffffffffffffffffffffff16021790555061012082015181600601555050600c6000815480929190613d2b90615574565b919050555050505050505050565b60405180610120016040528060008152602001600080191681526020016060815260200160006004811115613d7157613d706140ef565b5b815260200160006002811115613d8a57613d896140ef565b5b8152602001600073ffffffffffffffffffffffffffffffffffffffff168152602001600073ffffffffffffffffffffffffffffffffffffffff168152602001600073ffffffffffffffffffffffffffffffffffffffff168152602001600081525090565b828054613dfa90615356565b90600052602060002090601f016020900481019282613e1c5760008555613e63565b82601f10613e3557805160ff1916838001178555613e63565b82800160010185558215613e63579182015b82811115613e62578251825591602001919060010190613e47565b5b509050613e709190613f68565b5090565b6040518060e00160405280600081526020016000801916815260200160006004811115613ea457613ea36140ef565b5b815260200160608152602001600073ffffffffffffffffffffffffffffffffffffffff168152602001600073ffffffffffffffffffffffffffffffffffffffff168152602001600081525090565b604051806101000160405280600081526020016060815260200160008019168152602001600080191681526020016000801916815260200160006003811115613f3e57613f3d6140ef565b5b8152602001600073ffffffffffffffffffffffffffffffffffffffff168152602001600081525090565b5b80821115613f81576000816000905550600101613f69565b5090565b6000604051905090565b600080fd5b600080fd5b600073ffffffffffffffffffffffffffffffffffffffff82169050919050565b6000613fc482613f99565b9050919050565b613fd481613fb9565b8114613fdf57600080fd5b50565b600081359050613ff181613fcb565b92915050565b60006020828403121561400d5761400c613f8f565b5b600061401b84828501613fe2565b91505092915050565b6000819050919050565b61403781614024565b82525050565b6000819050919050565b6140508161403d565b82525050565b600081519050919050565b600082825260208201905092915050565b60005b83811015614090578082015181840152602081019050614075565b8381111561409f576000848401525b50505050565b6000601f19601f8301169050919050565b60006140c182614056565b6140cb8185614061565b93506140db818560208601614072565b6140e4816140a5565b840191505092915050565b7f4e487b7100000000000000000000000000000000000000000000000000000000600052602160045260246000fd5b6005811061412f5761412e6140ef565b5b50565b60008190506141408261411e565b919050565b600061415082614132565b9050919050565b61416081614145565b82525050565b60038110614177576141766140ef565b5b50565b600081905061418882614166565b919050565b60006141988261417a565b9050919050565b6141a88161418d565b82525050565b6141b781613fb9565b82525050565b6000610120830160008301516141d6600086018261402e565b5060208301516141e96020860182614047565b506040830151848203604086015261420182826140b6565b91505060608301516142166060860182614157565b506080830151614229608086018261419f565b5060a083015161423c60a08601826141ae565b5060c083015161424f60c08601826141ae565b5060e083015161426260e08601826141ae565b5061010083015161427761010086018261402e565b508091505092915050565b6000602082019050818103600083015261429c81846141bd565b905092915050565b6142ad81614024565b81146142b857600080fd5b50565b6000813590506142ca816142a4565b92915050565b600080fd5b600080fd5b7f4e487b7100000000000000000000000000000000000000000000000000000000600052604160045260246000fd5b614312826140a5565b810181811067ffffffffffffffff82111715614331576143306142da565b5b80604052505050565b6000614344613f85565b90506143508282614309565b919050565b600067ffffffffffffffff8211156143705761436f6142da565b5b614379826140a5565b9050602081019050919050565b82818337600083830152505050565b60006143a86143a384614355565b61433a565b9050828152602081018484840111156143c4576143c36142d5565b5b6143cf848285614386565b509392505050565b600082601f8301126143ec576143eb6142d0565b5b81356143fc848260208601614395565b91505092915050565b60008060008060008060c0878903121561442257614421613f8f565b5b600061443089828a016142bb565b965050602087013567ffffffffffffffff81111561445157614450613f94565b5b61445d89828a016143d7565b955050604061446e89828a016142bb565b945050606061447f89828a016142bb565b935050608061449089828a016142bb565b92505060a06144a189828a01613fe2565b9150509295509295509295565b6144b78161403d565b81146144c257600080fd5b50565b6000813590506144d4816144ae565b92915050565b600080604083850312156144f1576144f0613f8f565b5b60006144ff858286016144c5565b9250506020614510858286016142bb565b9150509250929050565b61452381613fb9565b82525050565b600060208201905061453e600083018461451a565b92915050565b600081519050919050565b600082825260208201905092915050565b6000819050602082019050919050565b600061012083016000830151614589600086018261402e565b50602083015161459c6020860182614047565b50604083015184820360408601526145b482826140b6565b91505060608301516145c96060860182614157565b5060808301516145dc608086018261419f565b5060a08301516145ef60a08601826141ae565b5060c083015161460260c08601826141ae565b5060e083015161461560e08601826141ae565b5061010083015161462a61010086018261402e565b508091505092915050565b60006146418383614570565b905092915050565b6000602082019050919050565b600061466182614544565b61466b818561454f565b93508360208202850161467d85614560565b8060005b858110156146b9578484038952815161469a8582614635565b94506146a583614649565b925060208a01995050600181019050614681565b50829750879550505050505092915050565b600060208201905081810360008301526146e58184614656565b905092915050565b600060e083016000830151614705600086018261402e565b5060208301516147186020860182614047565b50604083015161472b6040860182614157565b506060830151848203606086015261474382826140b6565b915050608083015161475860808601826141ae565b5060a083015161476b60a08601826141ae565b5060c083015161477e60c086018261402e565b508091505092915050565b600060208201905081810360008301526147a381846146ed565b905092915050565b6000602082840312156147c1576147c0613f8f565b5b60006147cf848285016142bb565b91505092915050565b6147e181614024565b82525050565b6147f08161403d565b82525050565b6147ff81614145565b82525050565b600082825260208201905092915050565b600061482182614056565b61482b8185614805565b935061483b818560208601614072565b614844816140a5565b840191505092915050565b600060e082019050614864600083018a6147d8565b61487160208301896147e7565b61487e60408301886147f6565b81810360608301526148908187614816565b905061489f608083018661451a565b6148ac60a083018561451a565b6148b960c08301846147d8565b98975050505050505050565b600481106148d6576148d56140ef565b5b50565b60008190506148e7826148c5565b919050565b60006148f7826148d9565b9050919050565b614907816148ec565b82525050565b600061010083016000830151614926600086018261402e565b506020830151848203602086015261493e82826140b6565b91505060408301516149536040860182614047565b5060608301516149666060860182614047565b5060808301516149796080860182614047565b5060a083015161498c60a08601826148fe565b5060c083015161499f60c08601826141ae565b5060e08301516149b260e086018261402e565b508091505092915050565b600060208201905081810360008301526149d7818461490d565b905092915050565b60006020820190506149f460008301846147d8565b92915050565b614a038161418d565b82525050565b600061012082019050614a1f600083018c6147d8565b614a2c602083018b6147e7565b8181036040830152614a3e818a614816565b9050614a4d60608301896147f6565b614a5a60808301886149fa565b614a6760a083018761451a565b614a7460c083018661451a565b614a8160e083018561451a565b614a8f6101008301846147d8565b9a9950505050505050505050565b600081519050919050565b600082825260208201905092915050565b6000819050602082019050919050565b600060e083016000830151614ae1600086018261402e565b506020830151614af46020860182614047565b506040830151614b076040860182614157565b5060608301518482036060860152614b1f82826140b6565b9150506080830151614b3460808601826141ae565b5060a0830151614b4760a08601826141ae565b5060c0830151614b5a60c086018261402e565b508091505092915050565b6000614b718383614ac9565b905092915050565b6000602082019050919050565b6000614b9182614a9d565b614b9b8185614aa8565b935083602082028501614bad85614ab9565b8060005b85811015614be95784840389528151614bca8582614b65565b9450614bd583614b79565b925060208a01995050600181019050614bb1565b50829750879550505050505092915050565b60006020820190508181036000830152614c158184614b86565b905092915050565b60028110614c2e57614c2d6140ef565b5b50565b6000819050614c3f82614c1d565b919050565b6000614c4f82614c31565b9050919050565b614c5f81614c44565b82525050565b600061014082019050614c7b600083018d6147d8565b614c88602083018c6147d8565b614c95604083018b6147e7565b614ca2606083018a6149fa565b614caf60808301896147f6565b614cbc60a0830188614c56565b614cc960c083018761451a565b614cd660e083018661451a565b614ce461010083018561451a565b614cf26101208301846147d8565b9b9a5050505050505050505050565b60008060408385031215614d1857614d17613f8f565b5b6000614d26858286016142bb565b9250506020614d3785828601613fe2565b9150509250929050565b614d4a816148ec565b82525050565b600061010082019050614d66600083018b6147d8565b8181036020830152614d78818a614816565b9050614d8760408301896147e7565b614d9460608301886147e7565b614da160808301876147e7565b614dae60a0830186614d41565b614dbb60c083018561451a565b614dc860e08301846147d8565b9998505050505050505050565b600080600060608486031215614dee57614ded613f8f565b5b6000614dfc868287016144c5565b9350506020614e0d868287016142bb565b925050604084013567ffffffffffffffff811115614e2e57614e2d613f94565b5b614e3a868287016143d7565b9150509250925092565b60008060008060008060c08789031215614e6157614e60613f8f565b5b600087013567ffffffffffffffff811115614e7f57614e7e613f94565b5b614e8b89828a016143d7565b9650506020614e9c89828a016144c5565b9550506040614ead89828a016144c5565b9450506060614ebe89828a016144c5565b9350506080614ecf89828a016142bb565b92505060a0614ee089828a01613fe2565b9150509295509295509295565b600081519050919050565b600082825260208201905092915050565b6000819050602082019050919050565b600061010083016000830151614f32600086018261402e565b5060208301518482036020860152614f4a82826140b6565b9150506040830151614f5f6040860182614047565b506060830151614f726060860182614047565b506080830151614f856080860182614047565b5060a0830151614f9860a08601826148fe565b5060c0830151614fab60c08601826141ae565b5060e0830151614fbe60e086018261402e565b508091505092915050565b6000614fd58383614f19565b905092915050565b6000602082019050919050565b6000614ff582614eed565b614fff8185614ef8565b93508360208202850161501185614f09565b8060005b8581101561504d578484038952815161502e8582614fc9565b945061503983614fdd565b925060208a01995050600181019050615015565b50829750879550505050505092915050565b600060208201905081810360008301526150798184614fea565b905092915050565b6000806000806080858703121561509b5761509a613f8f565b5b60006150a9878288016144c5565b94505060206150ba878288016142bb565b93505060406150cb878288016142bb565b92505060606150dc87828801613fe2565b91505092959194509250565b600081519050919050565b600082825260208201905092915050565b6000819050602082019050919050565b61511d81614c44565b82525050565b6101408201600082015161513a600085018261402e565b50602082015161514d602085018261402e565b5060408201516151606040850182614047565b506060820151615173606085018261419f565b5060808201516151866080850182614157565b5060a082015161519960a0850182615114565b5060c08201516151ac60c08501826141ae565b5060e08201516151bf60e08501826141ae565b506101008201516151d46101008501826141ae565b506101208201516151e961012085018261402e565b50505050565b60006151fb8383615123565b6101408301905092915050565b6000602082019050919050565b6000615220826150e8565b61522a81856150f3565b935061523583615104565b8060005b8381101561526657815161524d88826151ef565b975061525883615208565b925050600181019050615239565b5085935050505092915050565b6000602082019050818103600083015261528d8184615215565b905092915050565b7f4e487b7100000000000000000000000000000000000000000000000000000000600052601160045260246000fd5b60006152cf82614024565b91506152da83614024565b9250828210156152ed576152ec615295565b5b828203905092915050565b7f4e487b7100000000000000000000000000000000000000000000000000000000600052603260045260246000fd5b7f4e487b7100000000000000000000000000000000000000000000000000000000600052602260045260246000fd5b6000600282049050600182168061536e57607f821691505b6020821081141561538257615381615327565b5b50919050565b600061539382614024565b915060008214156153a7576153a6615295565b5b600182039050919050565b6000819050919050565b6153cd6153c88261403d565b6153b2565b82525050565b60008160601b9050919050565b60006153eb826153d3565b9050919050565b60006153fd826153e0565b9050919050565b61541561541082613fb9565b6153f2565b82525050565b6000819050919050565b61543661543182614024565b61541b565b82525050565b600061544882866153bc565b6020820191506154588285615404565b6014820191506154688284615425565b602082019150819050949350505050565b600081905092915050565b60008190508160005260206000209050919050565b600081546154a681615356565b6154b08186615479565b945060018216600081146154cb57600181146154dc5761550f565b60ff1983168652818601935061550f565b6154e585615484565b60005b83811015615507578154818901526001820191506020810190506154e8565b838801955050505b50505092915050565b60006155248284615499565b915081905092915050565b600060808201905061554460008301876147e7565b61555160208301866147e7565b61555e60408301856147e7565b61556b60608301846147d8565b95945050505050565b600061557f82614024565b91507fffffffffffffffffffffffffffffffffffffffffffffffffffffffffffffffff8214156155b2576155b1615295565b5b600182019050919050565b7f596f7520617265206e6f7420616e206f776e6572000000000000000000000000600082015250565b60006155f3601483614805565b91506155fe826155bd565b602082019050919050565b60006020820190508181036000830152615622816155e6565b9050919050565b600061563482614056565b61563e8185615479565b935061564e818560208601614072565b80840191505092915050565b60006156668284615629565b915081905092915050565b50565b6000615681600083614805565b915061568c82615671565b600082019050919050565b6000610120820190506156ad600083018b6147d8565b6156ba602083018a6147e7565b81810360408301526156cb81615674565b90506156da60608301896147f6565b6156e760808301886149fa565b6156f460a083018761451a565b61570160c083018661451a565b61570e60e083018561451a565b61571c6101008301846147d8565b999850505050505050505056fea2646970667358221220f378869f274e3fb6a5fd31eac4446e249ca3bfcae90d9a95ca862e5db1298aaa64736f6c634300080a0033",
  "immutableReferences": {},
  "source": "// SPDX-License-Identifier: MIT\r\npragma solidity >=0.8.0 <0.9.0;\r\n\r\nimport \"./UserChain.sol\";\r\nimport \"./SharedChain.sol\";\r\n\r\ncontract ProjectChain is UserChain, SharedChain {\r\n    bytes32 constant PROJECT_HASH_VALUE = \"csd?S@salas;dlA234_D.;s_as\";\r\n    bytes32 constant REQUEST_HASH_VALUE = \"csd?.!?*salas;dlA.;s_as\";\r\n    address _projectInitiator;\r\n\r\n    /**  DATA FOR PROJECT INITIATOR  */\r\n\r\n    mapping(address => Project) public projects;\r\n    uint public projectsCounter = 0;\r\n    Project[] public allProjects;\r\n\r\n    mapping(uint => ProjectRequest) public projectRequests;\r\n    uint public projectRequestsCounter = 0;\r\n    ProjectRequest[] public allProjectRequests;\r\n\r\n    constructor() {\r\n        _projectInitiator = msg.sender;\r\n    }\r\n\r\n    modifier onlyProjectInitiator {\r\n        require(users[_projectInitiator]._role == Roles.ProjectInitiator, \"You don't have the rights for this resources.\");\r\n        require(_projectInitiator == msg.sender, \"You are not a project initiator\");\r\n        _;\r\n    }\r\n\r\n    function createUniqueProjectAddress(bytes32 _text, uint _index) public view returns (address) {\r\n        return address(uint160(uint256(keccak256(abi.encodePacked(_text, _projectInitiator, _index)))));\r\n    }\r\n\r\n    function createProject(bytes32 _name, uint _status, string memory _ipfsFileCID) public {\r\n        address _projectAddress = createUniqueProjectAddress(PROJECT_HASH_VALUE, projectsCounter);\r\n\r\n        projects[_projectAddress]._index = projectsCounter;\r\n        projects[_projectAddress]._name = _name;\r\n        projects[_projectAddress]._status = ProjectStatus(_status);\r\n        projects[_projectAddress]._ipfsFileCID = _ipfsFileCID;\r\n        projects[_projectAddress]._projectAddress = _projectAddress;\r\n        projects[_projectAddress]._userAddress = _projectInitiator;\r\n        projects[_projectAddress]._timestamp = block.timestamp;\r\n\r\n        emit ProjectEvent(\r\n            projectsCounter,\r\n            _name,\r\n            ProjectStatus(_status),\r\n            _ipfsFileCID,\r\n            _projectAddress,\r\n            _projectInitiator,\r\n            block.timestamp\r\n        );\r\n        allProjects.push(Project(\r\n            projectsCounter, _name, ProjectStatus(_status), _ipfsFileCID,\r\n            _projectAddress, _projectInitiator, block.timestamp\r\n        ));\r\n        projectsCounter++;\r\n    }\r\n\r\n    function getProjectInfo(address _address) public view returns (Project memory) {\r\n        return projects[_address];\r\n    }\r\n\r\n    function getAllProjects() public view returns(Project[] memory) {\r\n        return allProjects;\r\n    }\r\n\r\n    function createUniqueProjectRequestAddress(bytes32 _text, uint _index) public view returns (address) {\r\n        return address(uint160(uint256(keccak256(abi.encodePacked(_text, _projectInitiator, _index)))));\r\n    }\r\n\r\n    function createProjectRequest(\r\n        bytes32 _title, uint _status,\r\n        uint _requestStatus, address _projectAddress\r\n    ) public {\r\n        address _projectReqAddress = createUniqueProjectRequestAddress(REQUEST_HASH_VALUE, projectRequestsCounter);\r\n\r\n        projectRequests[projectRequestsCounter]._index = projectRequestsCounter;\r\n        projectRequests[projectRequestsCounter]._title = _title;\r\n        projectRequests[projectRequestsCounter]._comments = '';\r\n        projectRequests[projectRequestsCounter]._status = ProjectStatus(_status);\r\n        projectRequests[projectRequestsCounter]._requestStatus = RequestStatus(_requestStatus);\r\n        projectRequests[projectRequestsCounter]._projectAddress = _projectAddress;\r\n        projectRequests[projectRequestsCounter]._userAddress = _projectInitiator;\r\n        projectRequests[projectRequestsCounter]._timestamp = block.timestamp;\r\n\r\n        filterRequests(projectRequestsCounter, _title, _requestStatus, _status, _projectAddress, _projectReqAddress);\r\n\r\n        emit ProjectRequestEvent(\r\n            projectRequestsCounter,\r\n            _title,\r\n            '',\r\n            ProjectStatus(_status),\r\n            RequestStatus(_requestStatus),\r\n            _projectAddress,\r\n            _projectInitiator,\r\n            _projectReqAddress,\r\n            block.timestamp\r\n        );\r\n        allProjectRequests.push(ProjectRequest(\r\n            projectRequestsCounter, _title, '', ProjectStatus(_status),\r\n            RequestStatus(_requestStatus), _projectAddress, _projectInitiator,\r\n            _projectReqAddress, block.timestamp\r\n        ));\r\n        projectRequestsCounter++;\r\n    }\r\n\r\n    function filterRequests(\r\n        uint _indexProjectRequest,\r\n        bytes32 _title,\r\n        uint _requestStatus,\r\n        uint _projectStatus,\r\n        address _projectAddress,\r\n        address _requestAddress\r\n    ) internal {\r\n        RequestType _requestType;\r\n        if (\r\n            ProjectStatus(_projectStatus) == ProjectStatus.ToApprove ||\r\n            ProjectStatus(_projectStatus) == ProjectStatus.FinalizationCheck ||\r\n            ProjectStatus(_projectStatus) == ProjectStatus.Completed\r\n        ) {\r\n            _requestType = RequestType.SupervisorReq;\r\n        } else if (ProjectStatus(_projectStatus) == ProjectStatus.StartProject) {\r\n            _requestType = RequestType.CompanyReq;\r\n        }\r\n        createRequest(_indexProjectRequest, _title, _requestStatus, _projectStatus, _requestType, _projectAddress, _requestAddress);\r\n    }\r\n\r\n    function getAllProjectRequests() external view returns(ProjectRequest[] memory) {\r\n        return allProjectRequests;\r\n    }\r\n\r\n    function getLastProjectRequest(address _projectAddress) external view returns(ProjectRequest memory) {\r\n        ProjectRequest memory request;\r\n        if (allProjectRequests.length > 0) {\r\n            for (uint index = allProjectRequests.length - 1; index >= 0; index--) {\r\n                if (_projectAddress == allProjectRequests[index]._projectAddress) {\r\n                    request._index = allProjectRequests[index]._index;\r\n                    request._title = allProjectRequests[index]._title;\r\n                    request._comments = allProjectRequests[index]._comments;\r\n                    request._status = allProjectRequests[index]._status;\r\n                    request._requestStatus = allProjectRequests[index]._requestStatus;\r\n                    request._projectAddress = allProjectRequests[index]._projectAddress;\r\n                    request._userAddress = allProjectRequests[index]._userAddress;\r\n                    request._requestAddress = allProjectRequests[index]._requestAddress;\r\n                    request._timestamp = block.timestamp;\r\n                    return request;\r\n                }\r\n            }\r\n        }\r\n        return request;\r\n    }\r\n\r\n\r\n    /**  DATA FOR SUPERVISOR && COMPANY  */\r\n\r\n    mapping(uint => Request) public requests;\r\n    uint public requestsCounter = 0;\r\n    Request[] public allRequests;\r\n\r\n    function createRequest(\r\n        uint _indexProjectRequest,\r\n        bytes32 _title,\r\n        uint _requestStatus,\r\n        uint _projectStatus,\r\n        RequestType _requestType,\r\n        address _projectAddress,\r\n        address _requestAddress\r\n    ) internal {\r\n        requests[requestsCounter]._index = requestsCounter;\r\n        requests[requestsCounter]._indexProjectRequest = _indexProjectRequest;\r\n        requests[requestsCounter]._title = _title;\r\n        requests[requestsCounter]._requestStatus = RequestStatus(_requestStatus);\r\n        requests[requestsCounter]._projectStatus = ProjectStatus(_projectStatus);\r\n        requests[requestsCounter]._requestType = _requestType;\r\n        requests[requestsCounter]._projectAddress = _projectAddress;\r\n        // change to supervisorAddress\r\n        requests[requestsCounter]._userAddress = _projectInitiator;\r\n        requests[requestsCounter]._requestAddress = _requestAddress;\r\n        requests[requestsCounter]._timestamp = block.timestamp;\r\n\r\n        emit RequestEvent(\r\n            requestsCounter,\r\n            _indexProjectRequest,\r\n            _title,\r\n            RequestStatus(_requestStatus),\r\n            ProjectStatus(_projectStatus),\r\n            _requestType, _projectAddress,\r\n            _projectInitiator,\r\n            _requestAddress,\r\n            block.timestamp\r\n        );\r\n        allRequests.push(Request(\r\n            requestsCounter, _indexProjectRequest, _title,  RequestStatus(_requestStatus),\r\n            ProjectStatus(_projectStatus),  _requestType, _projectAddress,\r\n            _projectInitiator, _requestAddress, block.timestamp\r\n        ));\r\n        requestsCounter++;\r\n    }\r\n\r\n    function updateRequest(\r\n        uint _index,\r\n        string memory _comments,\r\n        uint _requestStatus,\r\n        uint _indexProjectRequest,\r\n        uint _projectStatus,\r\n        address _projectAddress\r\n    ) public {\r\n        // Update request status in the Requests Mapping and Struct Array\r\n        requests[_index]._requestStatus = RequestStatus(_requestStatus);\r\n        uint index = requests[_index]._index;\r\n        allRequests[index]._requestStatus = RequestStatus(_requestStatus);\r\n\r\n        // Update project request status in the Project Requests Mapping and Struct Array\r\n        projectRequests[_indexProjectRequest]._comments = _comments;\r\n        projectRequests[_indexProjectRequest]._requestStatus = RequestStatus(_requestStatus);\r\n        uint indexProjectReq = projectRequests[_indexProjectRequest]._index;\r\n        allProjectRequests[indexProjectReq]._comments = _comments;\r\n        allProjectRequests[indexProjectReq]._requestStatus = RequestStatus(_requestStatus);\r\n\r\n        // Update ProjectStatus to the requested status - Porject Mapping and Struct Array\r\n        projects[_projectAddress]._status = ProjectStatus(_projectStatus);\r\n        uint indexProject = projects[_projectAddress]._index;\r\n        allProjects[indexProject]._status = ProjectStatus(_projectStatus);\r\n    }\r\n\r\n    function getAllRequests() public view returns(Request[] memory) {\r\n        return allRequests;\r\n    }\r\n}\r\n",
  "sourcePath": "/mnt/c/Users/Beniamin/source/repos/DissertationProject/contracts/ProjectChain.sol",
  "compiler": {
    "name": "solc",
    "version": "0.8.10+commit.fc410830.Emscripten.clang"
  },
  "schemaVersion": "3.4.3",
  "updatedAt": "2021-11-22T18:53:26.235Z",
  "networkType": "ethereum",
  "devdoc": {
    "kind": "dev",
    "methods": {},
    "version": 1
  },
  "userdoc": {
    "kind": "user",
    "methods": {
      "projects(address)": {
        "notice": "DATA FOR PROJECT INITIATOR  "
      },
      "requests(uint256)": {
        "notice": "DATA FOR SUPERVISOR && COMPANY  "
      }
    },
    "version": 1
  }
}