{
  "contractName": "ProjectChain",
  "abi": [
    {
      "inputs": [],
      "stateMutability": "nonpayable",
      "type": "constructor"
    },
    {
      "anonymous": false,
      "inputs": [
        {
          "components": [
            {
              "internalType": "uint256",
              "name": "_index",
              "type": "uint256"
            },
            {
              "internalType": "string",
              "name": "_name",
              "type": "string"
            },
            {
              "internalType": "enum SharedChain.ProjectStatus",
              "name": "_status",
              "type": "uint8"
            },
            {
              "internalType": "string",
              "name": "_ipfsFileCID",
              "type": "string"
            },
            {
              "internalType": "address",
              "name": "_projectAddress",
              "type": "address"
            },
            {
              "internalType": "address",
              "name": "_signerAddress",
              "type": "address"
            },
            {
              "internalType": "uint256",
              "name": "_timestamp",
              "type": "uint256"
            },
            {
              "internalType": "string",
              "name": "_signature",
              "type": "string"
            }
          ],
          "indexed": false,
          "internalType": "struct SharedChain.Project",
          "name": "_project",
          "type": "tuple"
        },
        {
          "indexed": true,
          "internalType": "address",
          "name": "_projectAddress",
          "type": "address"
        }
      ],
      "name": "ProjectEvent",
      "type": "event"
    },
    {
      "anonymous": false,
      "inputs": [
        {
          "components": [
            {
              "internalType": "uint256",
              "name": "_index",
              "type": "uint256"
            },
            {
              "internalType": "string",
              "name": "_title",
              "type": "string"
            },
            {
              "internalType": "string",
              "name": "_comments",
              "type": "string"
            },
            {
              "internalType": "enum SharedChain.ProjectStatus",
              "name": "_projectStatus",
              "type": "uint8"
            },
            {
              "internalType": "enum SharedChain.RequestStatus",
              "name": "_requestStatus",
              "type": "uint8"
            },
            {
              "internalType": "enum SharedChain.RequestType",
              "name": "_requestType",
              "type": "uint8"
            },
            {
              "internalType": "address",
              "name": "_projectAddress",
              "type": "address"
            },
            {
              "internalType": "address",
              "name": "_requestAddress",
              "type": "address"
            },
            {
              "internalType": "address",
              "name": "_signerAddress",
              "type": "address"
            },
            {
              "internalType": "uint256",
              "name": "_timestamp",
              "type": "uint256"
            },
            {
              "internalType": "string",
              "name": "_signature",
              "type": "string"
            }
          ],
          "indexed": false,
          "internalType": "struct SharedChain.Request",
          "name": "_request",
          "type": "tuple"
        },
        {
          "indexed": true,
          "internalType": "address",
          "name": "_requestAddress",
          "type": "address"
        },
        {
          "indexed": true,
          "internalType": "address",
          "name": "_projectAddress",
          "type": "address"
        }
      ],
      "name": "RequestEvent",
      "type": "event"
    },
    {
      "anonymous": false,
      "inputs": [
        {
          "components": [
            {
              "internalType": "uint256",
              "name": "_index",
              "type": "uint256"
            },
            {
              "internalType": "string",
              "name": "_username",
              "type": "string"
            },
            {
              "internalType": "bytes32",
              "name": "_email",
              "type": "bytes32"
            },
            {
              "internalType": "bytes32",
              "name": "_firstname",
              "type": "bytes32"
            },
            {
              "internalType": "bytes32",
              "name": "_lastname",
              "type": "bytes32"
            },
            {
              "internalType": "enum SharedChain.Roles",
              "name": "_role",
              "type": "uint8"
            },
            {
              "internalType": "address",
              "name": "_walletAddress",
              "type": "address"
            },
            {
              "internalType": "uint256",
              "name": "_timestamp",
              "type": "uint256"
            },
            {
              "internalType": "string",
              "name": "_signature",
              "type": "string"
            }
          ],
          "indexed": false,
          "internalType": "struct SharedChain.User",
          "name": "_user",
          "type": "tuple"
        },
        {
          "indexed": true,
          "internalType": "address",
          "name": "_walletAddress",
          "type": "address"
        }
      ],
      "name": "UserEvent",
      "type": "event"
    },
    {
      "inputs": [
        {
          "internalType": "uint256",
          "name": "_role",
          "type": "uint256"
        },
        {
          "internalType": "address",
          "name": "_walletAddress",
          "type": "address"
        },
        {
          "internalType": "string",
          "name": "_signature",
          "type": "string"
        }
      ],
      "name": "changeUserRole",
      "outputs": [],
      "stateMutability": "nonpayable",
      "type": "function"
    },
    {
      "inputs": [],
      "name": "getAllUsers",
      "outputs": [
        {
          "components": [
            {
              "internalType": "uint256",
              "name": "_index",
              "type": "uint256"
            },
            {
              "internalType": "string",
              "name": "_username",
              "type": "string"
            },
            {
              "internalType": "bytes32",
              "name": "_email",
              "type": "bytes32"
            },
            {
              "internalType": "bytes32",
              "name": "_firstname",
              "type": "bytes32"
            },
            {
              "internalType": "bytes32",
              "name": "_lastname",
              "type": "bytes32"
            },
            {
              "internalType": "enum SharedChain.Roles",
              "name": "_role",
              "type": "uint8"
            },
            {
              "internalType": "address",
              "name": "_walletAddress",
              "type": "address"
            },
            {
              "internalType": "uint256",
              "name": "_timestamp",
              "type": "uint256"
            },
            {
              "internalType": "string",
              "name": "_signature",
              "type": "string"
            }
          ],
          "internalType": "struct SharedChain.User[]",
          "name": "",
          "type": "tuple[]"
        }
      ],
      "stateMutability": "view",
      "type": "function",
      "constant": true
    },
    {
      "inputs": [
        {
          "internalType": "address",
          "name": "_walletAddress",
          "type": "address"
        }
      ],
      "name": "getUserInfo",
      "outputs": [
        {
          "components": [
            {
              "internalType": "uint256",
              "name": "_index",
              "type": "uint256"
            },
            {
              "internalType": "string",
              "name": "_username",
              "type": "string"
            },
            {
              "internalType": "bytes32",
              "name": "_email",
              "type": "bytes32"
            },
            {
              "internalType": "bytes32",
              "name": "_firstname",
              "type": "bytes32"
            },
            {
              "internalType": "bytes32",
              "name": "_lastname",
              "type": "bytes32"
            },
            {
              "internalType": "enum SharedChain.Roles",
              "name": "_role",
              "type": "uint8"
            },
            {
              "internalType": "address",
              "name": "_walletAddress",
              "type": "address"
            },
            {
              "internalType": "uint256",
              "name": "_timestamp",
              "type": "uint256"
            },
            {
              "internalType": "string",
              "name": "_signature",
              "type": "string"
            }
          ],
          "internalType": "struct SharedChain.User",
          "name": "",
          "type": "tuple"
        }
      ],
      "stateMutability": "view",
      "type": "function",
      "constant": true
    },
    {
      "inputs": [
        {
          "internalType": "address",
          "name": "",
          "type": "address"
        }
      ],
      "name": "projects",
      "outputs": [
        {
          "internalType": "uint256",
          "name": "_index",
          "type": "uint256"
        },
        {
          "internalType": "string",
          "name": "_name",
          "type": "string"
        },
        {
          "internalType": "enum SharedChain.ProjectStatus",
          "name": "_status",
          "type": "uint8"
        },
        {
          "internalType": "string",
          "name": "_ipfsFileCID",
          "type": "string"
        },
        {
          "internalType": "address",
          "name": "_projectAddress",
          "type": "address"
        },
        {
          "internalType": "address",
          "name": "_signerAddress",
          "type": "address"
        },
        {
          "internalType": "uint256",
          "name": "_timestamp",
          "type": "uint256"
        },
        {
          "internalType": "string",
          "name": "_signature",
          "type": "string"
        }
      ],
      "stateMutability": "view",
      "type": "function",
      "constant": true
    },
    {
      "inputs": [
        {
          "internalType": "uint256",
          "name": "",
          "type": "uint256"
        }
      ],
      "name": "projectsAddress",
      "outputs": [
        {
          "internalType": "address",
          "name": "",
          "type": "address"
        }
      ],
      "stateMutability": "view",
      "type": "function",
      "constant": true
    },
    {
      "inputs": [],
      "name": "projectsCounter",
      "outputs": [
        {
          "internalType": "uint256",
          "name": "",
          "type": "uint256"
        }
      ],
      "stateMutability": "view",
      "type": "function",
      "constant": true
    },
    {
      "inputs": [
        {
          "internalType": "string",
          "name": "_username",
          "type": "string"
        },
        {
          "internalType": "bytes32",
          "name": "_email",
          "type": "bytes32"
        },
        {
          "internalType": "bytes32",
          "name": "_firstname",
          "type": "bytes32"
        },
        {
          "internalType": "bytes32",
          "name": "_lastname",
          "type": "bytes32"
        },
        {
          "internalType": "uint256",
          "name": "_role",
          "type": "uint256"
        },
        {
          "internalType": "address",
          "name": "_walletAddress",
          "type": "address"
        },
        {
          "internalType": "string",
          "name": "_signature",
          "type": "string"
        }
      ],
      "name": "registerUser",
      "outputs": [],
      "stateMutability": "nonpayable",
      "type": "function"
    },
    {
      "inputs": [
        {
          "internalType": "address",
          "name": "",
          "type": "address"
        }
      ],
      "name": "requests",
      "outputs": [
        {
          "internalType": "uint256",
          "name": "_index",
          "type": "uint256"
        },
        {
          "internalType": "string",
          "name": "_title",
          "type": "string"
        },
        {
          "internalType": "string",
          "name": "_comments",
          "type": "string"
        },
        {
          "internalType": "enum SharedChain.ProjectStatus",
          "name": "_projectStatus",
          "type": "uint8"
        },
        {
          "internalType": "enum SharedChain.RequestStatus",
          "name": "_requestStatus",
          "type": "uint8"
        },
        {
          "internalType": "enum SharedChain.RequestType",
          "name": "_requestType",
          "type": "uint8"
        },
        {
          "internalType": "address",
          "name": "_projectAddress",
          "type": "address"
        },
        {
          "internalType": "address",
          "name": "_requestAddress",
          "type": "address"
        },
        {
          "internalType": "address",
          "name": "_signerAddress",
          "type": "address"
        },
        {
          "internalType": "uint256",
          "name": "_timestamp",
          "type": "uint256"
        },
        {
          "internalType": "string",
          "name": "_signature",
          "type": "string"
        }
      ],
      "stateMutability": "view",
      "type": "function",
      "constant": true
    },
    {
      "inputs": [
        {
          "internalType": "uint256",
          "name": "",
          "type": "uint256"
        }
      ],
      "name": "requestsAddress",
      "outputs": [
        {
          "internalType": "address",
          "name": "",
          "type": "address"
        }
      ],
      "stateMutability": "view",
      "type": "function",
      "constant": true
    },
    {
      "inputs": [],
      "name": "requestsCounter",
      "outputs": [
        {
          "internalType": "uint256",
          "name": "",
          "type": "uint256"
        }
      ],
      "stateMutability": "view",
      "type": "function",
      "constant": true
    },
    {
      "inputs": [
        {
          "internalType": "address",
          "name": "",
          "type": "address"
        }
      ],
      "name": "users",
      "outputs": [
        {
          "internalType": "uint256",
          "name": "_index",
          "type": "uint256"
        },
        {
          "internalType": "string",
          "name": "_username",
          "type": "string"
        },
        {
          "internalType": "bytes32",
          "name": "_email",
          "type": "bytes32"
        },
        {
          "internalType": "bytes32",
          "name": "_firstname",
          "type": "bytes32"
        },
        {
          "internalType": "bytes32",
          "name": "_lastname",
          "type": "bytes32"
        },
        {
          "internalType": "enum SharedChain.Roles",
          "name": "_role",
          "type": "uint8"
        },
        {
          "internalType": "address",
          "name": "_walletAddress",
          "type": "address"
        },
        {
          "internalType": "uint256",
          "name": "_timestamp",
          "type": "uint256"
        },
        {
          "internalType": "string",
          "name": "_signature",
          "type": "string"
        }
      ],
      "stateMutability": "view",
      "type": "function",
      "constant": true
    },
    {
      "inputs": [
        {
          "internalType": "string",
          "name": "_name",
          "type": "string"
        },
        {
          "internalType": "uint256",
          "name": "_index",
          "type": "uint256"
        }
      ],
      "name": "createUniqueProjectAddress",
      "outputs": [
        {
          "internalType": "address",
          "name": "",
          "type": "address"
        }
      ],
      "stateMutability": "view",
      "type": "function",
      "constant": true
    },
    {
      "inputs": [
        {
          "internalType": "address",
          "name": "_projectAddress",
          "type": "address"
        },
        {
          "internalType": "string",
          "name": "_name",
          "type": "string"
        },
        {
          "internalType": "uint256",
          "name": "_status",
          "type": "uint256"
        },
        {
          "internalType": "string",
          "name": "_ipfsFileCID",
          "type": "string"
        },
        {
          "internalType": "string",
          "name": "_signature",
          "type": "string"
        }
      ],
      "name": "createProject",
      "outputs": [],
      "stateMutability": "nonpayable",
      "type": "function"
    },
    {
      "inputs": [
        {
          "internalType": "address",
          "name": "_projectAddress",
          "type": "address"
        },
        {
          "internalType": "string",
          "name": "_ipfsFileCID",
          "type": "string"
        },
        {
          "internalType": "string",
          "name": "_signature",
          "type": "string"
        }
      ],
      "name": "updateProject",
      "outputs": [],
      "stateMutability": "nonpayable",
      "type": "function"
    },
    {
      "inputs": [
        {
          "internalType": "address",
          "name": "_address",
          "type": "address"
        }
      ],
      "name": "getProjectInfo",
      "outputs": [
        {
          "components": [
            {
              "internalType": "uint256",
              "name": "_index",
              "type": "uint256"
            },
            {
              "internalType": "string",
              "name": "_name",
              "type": "string"
            },
            {
              "internalType": "enum SharedChain.ProjectStatus",
              "name": "_status",
              "type": "uint8"
            },
            {
              "internalType": "string",
              "name": "_ipfsFileCID",
              "type": "string"
            },
            {
              "internalType": "address",
              "name": "_projectAddress",
              "type": "address"
            },
            {
              "internalType": "address",
              "name": "_signerAddress",
              "type": "address"
            },
            {
              "internalType": "uint256",
              "name": "_timestamp",
              "type": "uint256"
            },
            {
              "internalType": "string",
              "name": "_signature",
              "type": "string"
            }
          ],
          "internalType": "struct SharedChain.Project",
          "name": "",
          "type": "tuple"
        }
      ],
      "stateMutability": "view",
      "type": "function",
      "constant": true
    },
    {
      "inputs": [
        {
          "internalType": "address",
          "name": "_signerAddress",
          "type": "address"
        }
      ],
      "name": "getUserProjects",
      "outputs": [
        {
          "components": [
            {
              "internalType": "uint256",
              "name": "_index",
              "type": "uint256"
            },
            {
              "internalType": "string",
              "name": "_name",
              "type": "string"
            },
            {
              "internalType": "enum SharedChain.ProjectStatus",
              "name": "_status",
              "type": "uint8"
            },
            {
              "internalType": "string",
              "name": "_ipfsFileCID",
              "type": "string"
            },
            {
              "internalType": "address",
              "name": "_projectAddress",
              "type": "address"
            },
            {
              "internalType": "address",
              "name": "_signerAddress",
              "type": "address"
            },
            {
              "internalType": "uint256",
              "name": "_timestamp",
              "type": "uint256"
            },
            {
              "internalType": "string",
              "name": "_signature",
              "type": "string"
            }
          ],
          "internalType": "struct SharedChain.Project[]",
          "name": "",
          "type": "tuple[]"
        }
      ],
      "stateMutability": "view",
      "type": "function",
      "constant": true
    },
    {
      "inputs": [],
      "name": "getAllProjects",
      "outputs": [
        {
          "components": [
            {
              "internalType": "uint256",
              "name": "_index",
              "type": "uint256"
            },
            {
              "internalType": "string",
              "name": "_name",
              "type": "string"
            },
            {
              "internalType": "enum SharedChain.ProjectStatus",
              "name": "_status",
              "type": "uint8"
            },
            {
              "internalType": "string",
              "name": "_ipfsFileCID",
              "type": "string"
            },
            {
              "internalType": "address",
              "name": "_projectAddress",
              "type": "address"
            },
            {
              "internalType": "address",
              "name": "_signerAddress",
              "type": "address"
            },
            {
              "internalType": "uint256",
              "name": "_timestamp",
              "type": "uint256"
            },
            {
              "internalType": "string",
              "name": "_signature",
              "type": "string"
            }
          ],
          "internalType": "struct SharedChain.Project[]",
          "name": "",
          "type": "tuple[]"
        }
      ],
      "stateMutability": "view",
      "type": "function",
      "constant": true
    },
    {
      "inputs": [
        {
          "internalType": "string",
          "name": "_title",
          "type": "string"
        },
        {
          "internalType": "uint256",
          "name": "_index",
          "type": "uint256"
        }
      ],
      "name": "createUniqueRequestAddress",
      "outputs": [
        {
          "internalType": "address",
          "name": "",
          "type": "address"
        }
      ],
      "stateMutability": "view",
      "type": "function",
      "constant": true
    },
    {
      "inputs": [
        {
          "internalType": "string",
          "name": "_title",
          "type": "string"
        },
        {
          "internalType": "uint256",
          "name": "_projectStatus",
          "type": "uint256"
        },
        {
          "internalType": "uint256",
          "name": "_requestStatus",
          "type": "uint256"
        },
        {
          "internalType": "address",
          "name": "_projectAddress",
          "type": "address"
        },
        {
          "internalType": "address",
          "name": "_requestAddress",
          "type": "address"
        },
        {
          "internalType": "string",
          "name": "_signature",
          "type": "string"
        }
      ],
      "name": "createRequest",
      "outputs": [],
      "stateMutability": "nonpayable",
      "type": "function"
    },
    {
      "inputs": [
        {
          "internalType": "string",
          "name": "_comments",
          "type": "string"
        },
        {
          "internalType": "uint256",
          "name": "_requestStatus",
          "type": "uint256"
        },
        {
          "internalType": "uint256",
          "name": "_projectStatus",
          "type": "uint256"
        },
        {
          "internalType": "address",
          "name": "_projectAddress",
          "type": "address"
        },
        {
          "internalType": "address",
          "name": "_requestAddress",
          "type": "address"
        },
        {
          "internalType": "string",
          "name": "_signature",
          "type": "string"
        }
      ],
      "name": "updateRequest",
      "outputs": [],
      "stateMutability": "nonpayable",
      "type": "function"
    },
    {
      "inputs": [],
      "name": "getAllRequests",
      "outputs": [
        {
          "components": [
            {
              "internalType": "uint256",
              "name": "_index",
              "type": "uint256"
            },
            {
              "internalType": "string",
              "name": "_title",
              "type": "string"
            },
            {
              "internalType": "string",
              "name": "_comments",
              "type": "string"
            },
            {
              "internalType": "enum SharedChain.ProjectStatus",
              "name": "_projectStatus",
              "type": "uint8"
            },
            {
              "internalType": "enum SharedChain.RequestStatus",
              "name": "_requestStatus",
              "type": "uint8"
            },
            {
              "internalType": "enum SharedChain.RequestType",
              "name": "_requestType",
              "type": "uint8"
            },
            {
              "internalType": "address",
              "name": "_projectAddress",
              "type": "address"
            },
            {
              "internalType": "address",
              "name": "_requestAddress",
              "type": "address"
            },
            {
              "internalType": "address",
              "name": "_signerAddress",
              "type": "address"
            },
            {
              "internalType": "uint256",
              "name": "_timestamp",
              "type": "uint256"
            },
            {
              "internalType": "string",
              "name": "_signature",
              "type": "string"
            }
          ],
          "internalType": "struct SharedChain.Request[]",
          "name": "",
          "type": "tuple[]"
        }
      ],
      "stateMutability": "view",
      "type": "function",
      "constant": true
    },
    {
      "inputs": [
        {
          "internalType": "address",
          "name": "_projectAddress",
          "type": "address"
        },
        {
          "internalType": "address",
          "name": "_requestAddress",
          "type": "address"
        }
      ],
      "name": "getLastProjectRequest",
      "outputs": [
        {
          "components": [
            {
              "internalType": "uint256",
              "name": "_index",
              "type": "uint256"
            },
            {
              "internalType": "string",
              "name": "_title",
              "type": "string"
            },
            {
              "internalType": "string",
              "name": "_comments",
              "type": "string"
            },
            {
              "internalType": "enum SharedChain.ProjectStatus",
              "name": "_projectStatus",
              "type": "uint8"
            },
            {
              "internalType": "enum SharedChain.RequestStatus",
              "name": "_requestStatus",
              "type": "uint8"
            },
            {
              "internalType": "enum SharedChain.RequestType",
              "name": "_requestType",
              "type": "uint8"
            },
            {
              "internalType": "address",
              "name": "_projectAddress",
              "type": "address"
            },
            {
              "internalType": "address",
              "name": "_requestAddress",
              "type": "address"
            },
            {
              "internalType": "address",
              "name": "_signerAddress",
              "type": "address"
            },
            {
              "internalType": "uint256",
              "name": "_timestamp",
              "type": "uint256"
            },
            {
              "internalType": "string",
              "name": "_signature",
              "type": "string"
            }
          ],
          "internalType": "struct SharedChain.Request",
          "name": "",
          "type": "tuple"
        }
      ],
      "stateMutability": "view",
      "type": "function",
      "constant": true
    }
  ],
  "bytecode": "0x6080604052600060035560006007556000600a5534801561001f57600080fd5b50336000806101000a81548173ffffffffffffffffffffffffffffffffffffffff021916908373ffffffffffffffffffffffffffffffffffffffff16021790555033600460006101000a81548173ffffffffffffffffffffffffffffffffffffffff021916908373ffffffffffffffffffffffffffffffffffffffff16021790555061580a80620000b16000396000f3fe608060405234801561001057600080fd5b50600436106101425760003560e01c806384485563116100b8578063e1592c0d1161007c578063e1592c0d146103ec578063e2842d7914610408578063e32e723c14610426578063e617385f14610456578063fb1a002a14610472578063fe360ea51461049057610142565b8063844855631461034457806387edbec714610360578063a87430ba1461037c578063b2ddb907146103b4578063d6a69823146103d057610142565b80636386c1c71161010a5780636386c1c714610237578063663c22691461026757806374adad1d1461028557806376c932e0146102bf57806380d03829146102ef578063840e78fd1461030d57610142565b8063191e1645146101475780633b4ec4f81461017757806344884710146101a757806347ee45b9146101d757806356a3eead14610207575b600080fd5b610161600480360381019061015c9190613d67565b6104ae565b60405161016e9190613e04565b60405180910390f35b610191600480360381019061018c9190613d67565b610508565b60405161019e9190613e04565b60405180910390f35b6101c160048036038101906101bc9190613e4b565b610562565b6040516101ce9190614135565b60405180910390f35b6101f160048036038101906101ec9190614157565b6109e9565b6040516101fe9190614242565b60405180910390f35b610221600480360381019061021c9190614264565b610d64565b60405161022e9190613e04565b60405180910390f35b610251600480360381019061024c9190614157565b610da3565b60405161025e91906143be565b60405180910390f35b61026f611054565b60405161027c91906143ef565b60405180910390f35b61029f600480360381019061029a9190614157565b61105a565b6040516102b69b9a99989796959493929190614481565b60405180910390f35b6102d960048036038101906102d49190614264565b6112d3565b6040516102e69190613e04565b60405180910390f35b6102f7611312565b60405161030491906146c1565b60405180910390f35b61032760048036038101906103229190614157565b61170e565b60405161033b9897969594939291906146e3565b60405180910390f35b61035e60048036038101906103599190614776565b61193b565b005b61037a60048036038101906103759190614845565b611c62565b005b61039660048036038101906103919190614157565b611f7e565b6040516103ab99989796959493929190614928565b60405180910390f35b6103ce60048036038101906103c991906149c3565b612109565b005b6103ea60048036038101906103e59190614a5e565b612342565b005b61040660048036038101906104019190614b38565b612682565b005b6104106127c1565b60405161041d9190614d51565b60405180910390f35b610440600480360381019061043b9190614157565b612b6d565b60405161044d91906146c1565b60405180910390f35b610470600480360381019061046b9190614845565b613002565b005b61047a6134a8565b6040516104879190614f32565b60405180910390f35b61049861395c565b6040516104a591906143ef565b60405180910390f35b600082600460009054906101000a900473ffffffffffffffffffffffffffffffffffffffff16836040516020016104e793929190614ff9565b6040516020818303038152906040528051906020012060001c905092915050565b600082600460009054906101000a900473ffffffffffffffffffffffffffffffffffffffff168360405160200161054193929190614ff9565b6040516020818303038152906040528051906020012060001c905092915050565b61056a613962565b610572613962565b6000600a5411156109df578373ffffffffffffffffffffffffffffffffffffffff16600960008573ffffffffffffffffffffffffffffffffffffffff1673ffffffffffffffffffffffffffffffffffffffff16815260200190815260200160002060030160039054906101000a900473ffffffffffffffffffffffffffffffffffffffff1673ffffffffffffffffffffffffffffffffffffffff1614156109de57600960008473ffffffffffffffffffffffffffffffffffffffff1673ffffffffffffffffffffffffffffffffffffffff168152602001908152602001600020604051806101600160405290816000820154815260200160018201805461067890615061565b80601f01602080910402602001604051908101604052809291908181526020018280546106a490615061565b80156106f15780601f106106c6576101008083540402835291602001916106f1565b820191906000526020600020905b8154815290600101906020018083116106d457829003601f168201915b5050505050815260200160028201805461070a90615061565b80601f016020809104026020016040519081016040528092919081815260200182805461073690615061565b80156107835780601f1061075857610100808354040283529160200191610783565b820191906000526020600020905b81548152906001019060200180831161076657829003601f168201915b505050505081526020016003820160009054906101000a900460ff1660048111156107b1576107b0613f22565b5b60048111156107c3576107c2613f22565b5b81526020016003820160019054906101000a900460ff1660028111156107ec576107eb613f22565b5b60028111156107fe576107fd613f22565b5b81526020016003820160029054906101000a900460ff16600181111561082757610826613f22565b5b600181111561083957610838613f22565b5b81526020016003820160039054906101000a900473ffffffffffffffffffffffffffffffffffffffff1673ffffffffffffffffffffffffffffffffffffffff1673ffffffffffffffffffffffffffffffffffffffff1681526020016004820160009054906101000a900473ffffffffffffffffffffffffffffffffffffffff1673ffffffffffffffffffffffffffffffffffffffff1673ffffffffffffffffffffffffffffffffffffffff1681526020016005820160009054906101000a900473ffffffffffffffffffffffffffffffffffffffff1673ffffffffffffffffffffffffffffffffffffffff1673ffffffffffffffffffffffffffffffffffffffff1681526020016006820154815260200160078201805461095990615061565b80601f016020809104026020016040519081016040528092919081815260200182805461098590615061565b80156109d25780601f106109a7576101008083540402835291602001916109d2565b820191906000526020600020905b8154815290600101906020018083116109b557829003601f168201915b50505050508152505090505b5b8091505092915050565b6109f1613a34565b600073ffffffffffffffffffffffffffffffffffffffff163373ffffffffffffffffffffffffffffffffffffffff161415610a61576040517f08c379a0000000000000000000000000000000000000000000000000000000008152600401610a58906150df565b60405180910390fd5b600660008373ffffffffffffffffffffffffffffffffffffffff1673ffffffffffffffffffffffffffffffffffffffff1681526020019081526020016000206040518061010001604052908160008201548152602001600182018054610ac690615061565b80601f0160208091040260200160405190810160405280929190818152602001828054610af290615061565b8015610b3f5780601f10610b1457610100808354040283529160200191610b3f565b820191906000526020600020905b815481529060010190602001808311610b2257829003601f168201915b505050505081526020016002820160009054906101000a900460ff166004811115610b6d57610b6c613f22565b5b6004811115610b7f57610b7e613f22565b5b8152602001600382018054610b9390615061565b80601f0160208091040260200160405190810160405280929190818152602001828054610bbf90615061565b8015610c0c5780601f10610be157610100808354040283529160200191610c0c565b820191906000526020600020905b815481529060010190602001808311610bef57829003601f168201915b505050505081526020016004820160009054906101000a900473ffffffffffffffffffffffffffffffffffffffff1673ffffffffffffffffffffffffffffffffffffffff1673ffffffffffffffffffffffffffffffffffffffff1681526020016005820160009054906101000a900473ffffffffffffffffffffffffffffffffffffffff1673ffffffffffffffffffffffffffffffffffffffff1673ffffffffffffffffffffffffffffffffffffffff16815260200160068201548152602001600782018054610cdb90615061565b80601f0160208091040260200160405190810160405280929190818152602001828054610d0790615061565b8015610d545780601f10610d2957610100808354040283529160200191610d54565b820191906000526020600020905b815481529060010190602001808311610d3757829003601f168201915b5050505050815250509050919050565b600b8181548110610d7457600080fd5b906000526020600020016000915054906101000a900473ffffffffffffffffffffffffffffffffffffffff1681565b610dab613ab7565b600073ffffffffffffffffffffffffffffffffffffffff163373ffffffffffffffffffffffffffffffffffffffff161415610e1b576040517f08c379a0000000000000000000000000000000000000000000000000000000008152600401610e12906150df565b60405180910390fd5b600160008373ffffffffffffffffffffffffffffffffffffffff1673ffffffffffffffffffffffffffffffffffffffff1681526020019081526020016000206040518061012001604052908160008201548152602001600182018054610e8090615061565b80601f0160208091040260200160405190810160405280929190818152602001828054610eac90615061565b8015610ef95780601f10610ece57610100808354040283529160200191610ef9565b820191906000526020600020905b815481529060010190602001808311610edc57829003601f168201915b505050505081526020016002820154815260200160038201548152602001600482015481526020016005820160009054906101000a900460ff166003811115610f4557610f44613f22565b5b6003811115610f5757610f56613f22565b5b81526020016005820160019054906101000a900473ffffffffffffffffffffffffffffffffffffffff1673ffffffffffffffffffffffffffffffffffffffff1673ffffffffffffffffffffffffffffffffffffffff16815260200160068201548152602001600782018054610fcb90615061565b80601f0160208091040260200160405190810160405280929190818152602001828054610ff790615061565b80156110445780601f1061101957610100808354040283529160200191611044565b820191906000526020600020905b81548152906001019060200180831161102757829003601f168201915b5050505050815250509050919050565b600a5481565b600960205280600052604060002060009150905080600001549080600101805461108390615061565b80601f01602080910402602001604051908101604052809291908181526020018280546110af90615061565b80156110fc5780601f106110d1576101008083540402835291602001916110fc565b820191906000526020600020905b8154815290600101906020018083116110df57829003601f168201915b50505050509080600201805461111190615061565b80601f016020809104026020016040519081016040528092919081815260200182805461113d90615061565b801561118a5780601f1061115f5761010080835404028352916020019161118a565b820191906000526020600020905b81548152906001019060200180831161116d57829003601f168201915b5050505050908060030160009054906101000a900460ff16908060030160019054906101000a900460ff16908060030160029054906101000a900460ff16908060030160039054906101000a900473ffffffffffffffffffffffffffffffffffffffff16908060040160009054906101000a900473ffffffffffffffffffffffffffffffffffffffff16908060050160009054906101000a900473ffffffffffffffffffffffffffffffffffffffff169080600601549080600701805461125090615061565b80601f016020809104026020016040519081016040528092919081815260200182805461127c90615061565b80156112c95780601f1061129e576101008083540402835291602001916112c9565b820191906000526020600020905b8154815290600101906020018083116112ac57829003601f168201915b505050505090508b565b600881815481106112e357600080fd5b906000526020600020016000915054906101000a900473ffffffffffffffffffffffffffffffffffffffff1681565b60608060006007541415611329578091505061170b565b60075467ffffffffffffffff81111561134557611344613c06565b5b60405190808252806020026020018201604052801561137e57816020015b61136b613a34565b8152602001906001900390816113635790505b50905060005b600754811015611705576000600882815481106113a4576113a36150ff565b5b9060005260206000200160009054906101000a900473ffffffffffffffffffffffffffffffffffffffff1690506000600660008373ffffffffffffffffffffffffffffffffffffffff1673ffffffffffffffffffffffffffffffffffffffff168152602001908152602001600020905080604051806101000160405290816000820154815260200160018201805461143b90615061565b80601f016020809104026020016040519081016040528092919081815260200182805461146790615061565b80156114b45780601f10611489576101008083540402835291602001916114b4565b820191906000526020600020905b81548152906001019060200180831161149757829003601f168201915b505050505081526020016002820160009054906101000a900460ff1660048111156114e2576114e1613f22565b5b60048111156114f4576114f3613f22565b5b815260200160038201805461150890615061565b80601f016020809104026020016040519081016040528092919081815260200182805461153490615061565b80156115815780601f1061155657610100808354040283529160200191611581565b820191906000526020600020905b81548152906001019060200180831161156457829003601f168201915b505050505081526020016004820160009054906101000a900473ffffffffffffffffffffffffffffffffffffffff1673ffffffffffffffffffffffffffffffffffffffff1673ffffffffffffffffffffffffffffffffffffffff1681526020016005820160009054906101000a900473ffffffffffffffffffffffffffffffffffffffff1673ffffffffffffffffffffffffffffffffffffffff1673ffffffffffffffffffffffffffffffffffffffff1681526020016006820154815260200160078201805461165090615061565b80601f016020809104026020016040519081016040528092919081815260200182805461167c90615061565b80156116c95780601f1061169e576101008083540402835291602001916116c9565b820191906000526020600020905b8154815290600101906020018083116116ac57829003601f168201915b5050505050815250508484815181106116e5576116e46150ff565b5b6020026020010181905250505080806116fd9061515d565b915050611384565b50809150505b90565b600660205280600052604060002060009150905080600001549080600101805461173790615061565b80601f016020809104026020016040519081016040528092919081815260200182805461176390615061565b80156117b05780601f10611785576101008083540402835291602001916117b0565b820191906000526020600020905b81548152906001019060200180831161179357829003601f168201915b5050505050908060020160009054906101000a900460ff16908060030180546117d890615061565b80601f016020809104026020016040519081016040528092919081815260200182805461180490615061565b80156118515780601f1061182657610100808354040283529160200191611851565b820191906000526020600020905b81548152906001019060200180831161183457829003601f168201915b5050505050908060040160009054906101000a900473ffffffffffffffffffffffffffffffffffffffff16908060050160009054906101000a900473ffffffffffffffffffffffffffffffffffffffff16908060060154908060070180546118b890615061565b80601f01602080910402602001604051908101604052809291908181526020018280546118e490615061565b80156119315780601f1061190657610100808354040283529160200191611931565b820191906000526020600020905b81548152906001019060200180831161191457829003601f168201915b5050505050905088565b604051806101000160405280600754815260200185815260200184600481111561196857611967613f22565b5b600481111561197a57611979613f22565b5b81526020018381526020018673ffffffffffffffffffffffffffffffffffffffff168152602001600460009054906101000a900473ffffffffffffffffffffffffffffffffffffffff1673ffffffffffffffffffffffffffffffffffffffff16815260200142815260200182815250600660008773ffffffffffffffffffffffffffffffffffffffff1673ffffffffffffffffffffffffffffffffffffffff168152602001908152602001600020600082015181600001556020820151816001019080519060200190611a4e929190613b34565b5060408201518160020160006101000a81548160ff02191690836004811115611a7a57611a79613f22565b5b02179055506060820151816003019080519060200190611a9b929190613b34565b5060808201518160040160006101000a81548173ffffffffffffffffffffffffffffffffffffffff021916908373ffffffffffffffffffffffffffffffffffffffff16021790555060a08201518160050160006101000a81548173ffffffffffffffffffffffffffffffffffffffff021916908373ffffffffffffffffffffffffffffffffffffffff16021790555060c0820151816006015560e0820151816007019080519060200190611b50929190613b34565b509050508473ffffffffffffffffffffffffffffffffffffffff167fac85378acf27ea180ea9b66d81dac89bcc984812edf7111c9413f708da4ca37a600660008873ffffffffffffffffffffffffffffffffffffffff1673ffffffffffffffffffffffffffffffffffffffff168152602001908152602001600020604051611bd891906153c1565b60405180910390a26008859080600181540180825580915050600190039060005260206000200160009091909190916101000a81548173ffffffffffffffffffffffffffffffffffffffff021916908373ffffffffffffffffffffffffffffffffffffffff16021790555060076000815480929190611c569061515d565b91905055505050505050565b85600960008473ffffffffffffffffffffffffffffffffffffffff1673ffffffffffffffffffffffffffffffffffffffff1681526020019081526020016000206002019080519060200190611cb8929190613b34565b50846002811115611ccc57611ccb613f22565b5b600960008473ffffffffffffffffffffffffffffffffffffffff1673ffffffffffffffffffffffffffffffffffffffff16815260200190815260200160002060030160016101000a81548160ff02191690836002811115611d3057611d2f613f22565b5b021790555080600960008473ffffffffffffffffffffffffffffffffffffffff1673ffffffffffffffffffffffffffffffffffffffff1681526020019081526020016000206007019080519060200190611d8b929190613b34565b508273ffffffffffffffffffffffffffffffffffffffff168273ffffffffffffffffffffffffffffffffffffffff167fa25a6f1ff57a050a48ae4b3a19f271fddad950cac8d165d6a2eca5d54cc8070f600960008673ffffffffffffffffffffffffffffffffffffffff1673ffffffffffffffffffffffffffffffffffffffff168152602001908152602001600020604051611e2791906155ae565b60405180910390a3846002811115611e4257611e41613f22565b5b6002811115611e5457611e53613f22565b5b600280811115611e6757611e66613f22565b5b1415611f7657836004811115611e8057611e7f613f22565b5b600660008573ffffffffffffffffffffffffffffffffffffffff1673ffffffffffffffffffffffffffffffffffffffff16815260200190815260200160002060020160006101000a81548160ff02191690836004811115611ee457611ee3613f22565b5b02179055508273ffffffffffffffffffffffffffffffffffffffff167fac85378acf27ea180ea9b66d81dac89bcc984812edf7111c9413f708da4ca37a600660008673ffffffffffffffffffffffffffffffffffffffff1673ffffffffffffffffffffffffffffffffffffffff168152602001908152602001600020604051611f6d91906153c1565b60405180910390a25b505050505050565b6001602052806000526040600020600091509050806000015490806001018054611fa790615061565b80601f0160208091040260200160405190810160405280929190818152602001828054611fd390615061565b80156120205780601f10611ff557610100808354040283529160200191612020565b820191906000526020600020905b81548152906001019060200180831161200357829003601f168201915b5050505050908060020154908060030154908060040154908060050160009054906101000a900460ff16908060050160019054906101000a900473ffffffffffffffffffffffffffffffffffffffff169080600601549080600701805461208690615061565b80601f01602080910402602001604051908101604052809291908181526020018280546120b290615061565b80156120ff5780601f106120d4576101008083540402835291602001916120ff565b820191906000526020600020905b8154815290600101906020018083116120e257829003601f168201915b5050505050905089565b3373ffffffffffffffffffffffffffffffffffffffff1660008054906101000a900473ffffffffffffffffffffffffffffffffffffffff1673ffffffffffffffffffffffffffffffffffffffff1614612197576040517f08c379a000000000000000000000000000000000000000000000000000000000815260040161218e9061561c565b60405180910390fd5b8260038111156121aa576121a9613f22565b5b600160008473ffffffffffffffffffffffffffffffffffffffff1673ffffffffffffffffffffffffffffffffffffffff16815260200190815260200160002060050160006101000a81548160ff0219169083600381111561220e5761220d613f22565b5b021790555042600160008473ffffffffffffffffffffffffffffffffffffffff1673ffffffffffffffffffffffffffffffffffffffff1681526020019081526020016000206006018190555080600160008473ffffffffffffffffffffffffffffffffffffffff1673ffffffffffffffffffffffffffffffffffffffff16815260200190815260200160002060070190805190602001906122b0929190613b34565b508173ffffffffffffffffffffffffffffffffffffffff167fea397c4f2735f95720bbf4d2e061d639bec950d2f3e162d0b19e02a2354c7cca600160008573ffffffffffffffffffffffffffffffffffffffff1673ffffffffffffffffffffffffffffffffffffffff16815260200190815260200160002060405161233591906157b2565b60405180910390a2505050565b3373ffffffffffffffffffffffffffffffffffffffff1660008054906101000a900473ffffffffffffffffffffffffffffffffffffffff1673ffffffffffffffffffffffffffffffffffffffff16146123d0576040517f08c379a00000000000000000000000000000000000000000000000000000000081526004016123c79061561c565b60405180910390fd5b604051806101200160405280600354815260200188815260200187815260200186815260200185815260200184600381111561240f5761240e613f22565b5b600381111561242157612420613f22565b5b81526020018373ffffffffffffffffffffffffffffffffffffffff16815260200142815260200182815250600160008473ffffffffffffffffffffffffffffffffffffffff1673ffffffffffffffffffffffffffffffffffffffff1681526020019081526020016000206000820151816000015560208201518160010190805190602001906124b1929190613b34565b5060408201518160020155606082015181600301556080820151816004015560a08201518160050160006101000a81548160ff021916908360038111156124fb576124fa613f22565b5b021790555060c08201518160050160016101000a81548173ffffffffffffffffffffffffffffffffffffffff021916908373ffffffffffffffffffffffffffffffffffffffff16021790555060e0820151816006015561010082015181600701908051906020019061256e929190613b34565b509050508173ffffffffffffffffffffffffffffffffffffffff167fea397c4f2735f95720bbf4d2e061d639bec950d2f3e162d0b19e02a2354c7cca600160008573ffffffffffffffffffffffffffffffffffffffff1673ffffffffffffffffffffffffffffffffffffffff1681526020019081526020016000206040516125f691906157b2565b60405180910390a26002829080600181540180825580915050600190039060005260206000200160009091909190916101000a81548173ffffffffffffffffffffffffffffffffffffffff021916908373ffffffffffffffffffffffffffffffffffffffff160217905550600360008154809291906126749061515d565b919050555050505050505050565b81600660008573ffffffffffffffffffffffffffffffffffffffff1673ffffffffffffffffffffffffffffffffffffffff16815260200190815260200160002060030190805190602001906126d8929190613b34565b5080600660008573ffffffffffffffffffffffffffffffffffffffff1673ffffffffffffffffffffffffffffffffffffffff168152602001908152602001600020600701908051906020019061272f929190613b34565b508273ffffffffffffffffffffffffffffffffffffffff167fac85378acf27ea180ea9b66d81dac89bcc984812edf7111c9413f708da4ca37a600660008673ffffffffffffffffffffffffffffffffffffffff1673ffffffffffffffffffffffffffffffffffffffff1681526020019081526020016000206040516127b491906153c1565b60405180910390a2505050565b60603373ffffffffffffffffffffffffffffffffffffffff1660008054906101000a900473ffffffffffffffffffffffffffffffffffffffff1673ffffffffffffffffffffffffffffffffffffffff1614612851576040517f08c379a00000000000000000000000000000000000000000000000000000000081526004016128489061561c565b60405180910390fd5b600060035467ffffffffffffffff81111561286f5761286e613c06565b5b6040519080825280602002602001820160405280156128a857816020015b612895613ab7565b81526020019060019003908161288d5790505b50905060005b600354811015612b65576000600282815481106128ce576128cd6150ff565b5b9060005260206000200160009054906101000a900473ffffffffffffffffffffffffffffffffffffffff1690506000600160008373ffffffffffffffffffffffffffffffffffffffff1673ffffffffffffffffffffffffffffffffffffffff168152602001908152602001600020905080604051806101200160405290816000820154815260200160018201805461296590615061565b80601f016020809104026020016040519081016040528092919081815260200182805461299190615061565b80156129de5780601f106129b3576101008083540402835291602001916129de565b820191906000526020600020905b8154815290600101906020018083116129c157829003601f168201915b505050505081526020016002820154815260200160038201548152602001600482015481526020016005820160009054906101000a900460ff166003811115612a2a57612a29613f22565b5b6003811115612a3c57612a3b613f22565b5b81526020016005820160019054906101000a900473ffffffffffffffffffffffffffffffffffffffff1673ffffffffffffffffffffffffffffffffffffffff1673ffffffffffffffffffffffffffffffffffffffff16815260200160068201548152602001600782018054612ab090615061565b80601f0160208091040260200160405190810160405280929190818152602001828054612adc90615061565b8015612b295780601f10612afe57610100808354040283529160200191612b29565b820191906000526020600020905b815481529060010190602001808311612b0c57829003601f168201915b505050505081525050848481518110612b4557612b446150ff565b5b602002602001018190525050508080612b5d9061515d565b9150506128ae565b508091505090565b60608060006007541415612b845780915050612ffd565b60075467ffffffffffffffff811115612ba057612b9f613c06565b5b604051908082528060200260200182016040528015612bd957816020015b612bc6613a34565b815260200190600190039081612bbe5790505b50905060005b600754811015612ff757600060088281548110612bff57612bfe6150ff565b5b9060005260206000200160009054906101000a900473ffffffffffffffffffffffffffffffffffffffff169050600660008273ffffffffffffffffffffffffffffffffffffffff1673ffffffffffffffffffffffffffffffffffffffff16815260200190815260200160002060050160009054906101000a900473ffffffffffffffffffffffffffffffffffffffff1673ffffffffffffffffffffffffffffffffffffffff168573ffffffffffffffffffffffffffffffffffffffff161415612fe3576000600660008373ffffffffffffffffffffffffffffffffffffffff1673ffffffffffffffffffffffffffffffffffffffff1681526020019081526020016000209050806040518061010001604052908160008201548152602001600182018054612d2c90615061565b80601f0160208091040260200160405190810160405280929190818152602001828054612d5890615061565b8015612da55780601f10612d7a57610100808354040283529160200191612da5565b820191906000526020600020905b815481529060010190602001808311612d8857829003601f168201915b505050505081526020016002820160009054906101000a900460ff166004811115612dd357612dd2613f22565b5b6004811115612de557612de4613f22565b5b8152602001600382018054612df990615061565b80601f0160208091040260200160405190810160405280929190818152602001828054612e2590615061565b8015612e725780601f10612e4757610100808354040283529160200191612e72565b820191906000526020600020905b815481529060010190602001808311612e5557829003601f168201915b505050505081526020016004820160009054906101000a900473ffffffffffffffffffffffffffffffffffffffff1673ffffffffffffffffffffffffffffffffffffffff1673ffffffffffffffffffffffffffffffffffffffff1681526020016005820160009054906101000a900473ffffffffffffffffffffffffffffffffffffffff1673ffffffffffffffffffffffffffffffffffffffff1673ffffffffffffffffffffffffffffffffffffffff16815260200160068201548152602001600782018054612f4190615061565b80601f0160208091040260200160405190810160405280929190818152602001828054612f6d90615061565b8015612fba5780601f10612f8f57610100808354040283529160200191612fba565b820191906000526020600020905b815481529060010190602001808311612f9d57829003601f168201915b505050505081525050848481518110612fd657612fd56150ff565b5b6020026020010181905250505b508080612fef9061515d565b915050612bdf565b50809150505b919050565b60006002600481111561301857613017613f22565b5b86600481111561302b5761302a613f22565b5b600481111561303d5761303c613f22565b5b141561304c5760019050613051565b600090505b604051806101600160405280600a54815260200188815260200160405180602001604052806000815250815260200187600481111561309357613092613f22565b5b60048111156130a5576130a4613f22565b5b81526020018660028111156130bd576130bc613f22565b5b60028111156130cf576130ce613f22565b5b81526020018260018111156130e7576130e6613f22565b5b81526020018573ffffffffffffffffffffffffffffffffffffffff1681526020018473ffffffffffffffffffffffffffffffffffffffff168152602001600460009054906101000a900473ffffffffffffffffffffffffffffffffffffffff1673ffffffffffffffffffffffffffffffffffffffff16815260200142815260200183815250600960008573ffffffffffffffffffffffffffffffffffffffff1673ffffffffffffffffffffffffffffffffffffffff1681526020019081526020016000206000820151816000015560208201518160010190805190602001906131d1929190613b34565b5060408201518160020190805190602001906131ee929190613b34565b5060608201518160030160006101000a81548160ff0219169083600481111561321a57613219613f22565b5b021790555060808201518160030160016101000a81548160ff0219169083600281111561324a57613249613f22565b5b021790555060a08201518160030160026101000a81548160ff0219169083600181111561327a57613279613f22565b5b021790555060c08201518160030160036101000a81548173ffffffffffffffffffffffffffffffffffffffff021916908373ffffffffffffffffffffffffffffffffffffffff16021790555060e08201518160040160006101000a81548173ffffffffffffffffffffffffffffffffffffffff021916908373ffffffffffffffffffffffffffffffffffffffff1602179055506101008201518160050160006101000a81548173ffffffffffffffffffffffffffffffffffffffff021916908373ffffffffffffffffffffffffffffffffffffffff160217905550610120820151816006015561014082015181600701908051906020019061337d929190613b34565b509050508373ffffffffffffffffffffffffffffffffffffffff168373ffffffffffffffffffffffffffffffffffffffff167fa25a6f1ff57a050a48ae4b3a19f271fddad950cac8d165d6a2eca5d54cc8070f600960008773ffffffffffffffffffffffffffffffffffffffff1673ffffffffffffffffffffffffffffffffffffffff16815260200190815260200160002060405161341c91906155ae565b60405180910390a3600b839080600181540180825580915050600190039060005260206000200160009091909190916101000a81548173ffffffffffffffffffffffffffffffffffffffff021916908373ffffffffffffffffffffffffffffffffffffffff160217905550600a600081548092919061349a9061515d565b919050555050505050505050565b60606000600a5467ffffffffffffffff8111156134c8576134c7613c06565b5b60405190808252806020026020018201604052801561350157816020015b6134ee613962565b8152602001906001900390816134e65790505b50905060005b600a54811015613954576000600b8281548110613527576135266150ff565b5b9060005260206000200160009054906101000a900473ffffffffffffffffffffffffffffffffffffffff1690506000600960008373ffffffffffffffffffffffffffffffffffffffff1673ffffffffffffffffffffffffffffffffffffffff16815260200190815260200160002090508060405180610160016040529081600082015481526020016001820180546135be90615061565b80601f01602080910402602001604051908101604052809291908181526020018280546135ea90615061565b80156136375780601f1061360c57610100808354040283529160200191613637565b820191906000526020600020905b81548152906001019060200180831161361a57829003601f168201915b5050505050815260200160028201805461365090615061565b80601f016020809104026020016040519081016040528092919081815260200182805461367c90615061565b80156136c95780601f1061369e576101008083540402835291602001916136c9565b820191906000526020600020905b8154815290600101906020018083116136ac57829003601f168201915b505050505081526020016003820160009054906101000a900460ff1660048111156136f7576136f6613f22565b5b600481111561370957613708613f22565b5b81526020016003820160019054906101000a900460ff16600281111561373257613731613f22565b5b600281111561374457613743613f22565b5b81526020016003820160029054906101000a900460ff16600181111561376d5761376c613f22565b5b600181111561377f5761377e613f22565b5b81526020016003820160039054906101000a900473ffffffffffffffffffffffffffffffffffffffff1673ffffffffffffffffffffffffffffffffffffffff1673ffffffffffffffffffffffffffffffffffffffff1681526020016004820160009054906101000a900473ffffffffffffffffffffffffffffffffffffffff1673ffffffffffffffffffffffffffffffffffffffff1673ffffffffffffffffffffffffffffffffffffffff1681526020016005820160009054906101000a900473ffffffffffffffffffffffffffffffffffffffff1673ffffffffffffffffffffffffffffffffffffffff1673ffffffffffffffffffffffffffffffffffffffff1681526020016006820154815260200160078201805461389f90615061565b80601f01602080910402602001604051908101604052809291908181526020018280546138cb90615061565b80156139185780601f106138ed57610100808354040283529160200191613918565b820191906000526020600020905b8154815290600101906020018083116138fb57829003601f168201915b505050505081525050848481518110613934576139336150ff565b5b60200260200101819052505050808061394c9061515d565b915050613507565b508091505090565b60075481565b6040518061016001604052806000815260200160608152602001606081526020016000600481111561399757613996613f22565b5b8152602001600060028111156139b0576139af613f22565b5b8152602001600060018111156139c9576139c8613f22565b5b8152602001600073ffffffffffffffffffffffffffffffffffffffff168152602001600073ffffffffffffffffffffffffffffffffffffffff168152602001600073ffffffffffffffffffffffffffffffffffffffff16815260200160008152602001606081525090565b604051806101000160405280600081526020016060815260200160006004811115613a6257613a61613f22565b5b815260200160608152602001600073ffffffffffffffffffffffffffffffffffffffff168152602001600073ffffffffffffffffffffffffffffffffffffffff16815260200160008152602001606081525090565b604051806101200160405280600081526020016060815260200160008019168152602001600080191681526020016000801916815260200160006003811115613b0357613b02613f22565b5b8152602001600073ffffffffffffffffffffffffffffffffffffffff16815260200160008152602001606081525090565b828054613b4090615061565b90600052602060002090601f016020900481019282613b625760008555613ba9565b82601f10613b7b57805160ff1916838001178555613ba9565b82800160010185558215613ba9579182015b82811115613ba8578251825591602001919060010190613b8d565b5b509050613bb69190613bba565b5090565b5b80821115613bd3576000816000905550600101613bbb565b5090565b6000604051905090565b600080fd5b600080fd5b600080fd5b600080fd5b6000601f19601f8301169050919050565b7f4e487b7100000000000000000000000000000000000000000000000000000000600052604160045260246000fd5b613c3e82613bf5565b810181811067ffffffffffffffff82111715613c5d57613c5c613c06565b5b80604052505050565b6000613c70613bd7565b9050613c7c8282613c35565b919050565b600067ffffffffffffffff821115613c9c57613c9b613c06565b5b613ca582613bf5565b9050602081019050919050565b82818337600083830152505050565b6000613cd4613ccf84613c81565b613c66565b905082815260208101848484011115613cf057613cef613bf0565b5b613cfb848285613cb2565b509392505050565b600082601f830112613d1857613d17613beb565b5b8135613d28848260208601613cc1565b91505092915050565b6000819050919050565b613d4481613d31565b8114613d4f57600080fd5b50565b600081359050613d6181613d3b565b92915050565b60008060408385031215613d7e57613d7d613be1565b5b600083013567ffffffffffffffff811115613d9c57613d9b613be6565b5b613da885828601613d03565b9250506020613db985828601613d52565b9150509250929050565b600073ffffffffffffffffffffffffffffffffffffffff82169050919050565b6000613dee82613dc3565b9050919050565b613dfe81613de3565b82525050565b6000602082019050613e196000830184613df5565b92915050565b613e2881613de3565b8114613e3357600080fd5b50565b600081359050613e4581613e1f565b92915050565b60008060408385031215613e6257613e61613be1565b5b6000613e7085828601613e36565b9250506020613e8185828601613e36565b9150509250929050565b613e9481613d31565b82525050565b600081519050919050565b600082825260208201905092915050565b60005b83811015613ed4578082015181840152602081019050613eb9565b83811115613ee3576000848401525b50505050565b6000613ef482613e9a565b613efe8185613ea5565b9350613f0e818560208601613eb6565b613f1781613bf5565b840191505092915050565b7f4e487b7100000000000000000000000000000000000000000000000000000000600052602160045260246000fd5b60058110613f6257613f61613f22565b5b50565b6000819050613f7382613f51565b919050565b6000613f8382613f65565b9050919050565b613f9381613f78565b82525050565b60038110613faa57613fa9613f22565b5b50565b6000819050613fbb82613f99565b919050565b6000613fcb82613fad565b9050919050565b613fdb81613fc0565b82525050565b60028110613ff257613ff1613f22565b5b50565b600081905061400382613fe1565b919050565b600061401382613ff5565b9050919050565b61402381614008565b82525050565b61403281613de3565b82525050565b6000610160830160008301516140516000860182613e8b565b50602083015184820360208601526140698282613ee9565b915050604083015184820360408601526140838282613ee9565b91505060608301516140986060860182613f8a565b5060808301516140ab6080860182613fd2565b5060a08301516140be60a086018261401a565b5060c08301516140d160c0860182614029565b5060e08301516140e460e0860182614029565b506101008301516140f9610100860182614029565b5061012083015161410e610120860182613e8b565b506101408301518482036101408601526141288282613ee9565b9150508091505092915050565b6000602082019050818103600083015261414f8184614038565b905092915050565b60006020828403121561416d5761416c613be1565b5b600061417b84828501613e36565b91505092915050565b60006101008301600083015161419d6000860182613e8b565b50602083015184820360208601526141b58282613ee9565b91505060408301516141ca6040860182613f8a565b50606083015184820360608601526141e28282613ee9565b91505060808301516141f76080860182614029565b5060a083015161420a60a0860182614029565b5060c083015161421d60c0860182613e8b565b5060e083015184820360e08601526142358282613ee9565b9150508091505092915050565b6000602082019050818103600083015261425c8184614184565b905092915050565b60006020828403121561427a57614279613be1565b5b600061428884828501613d52565b91505092915050565b6000819050919050565b6142a481614291565b82525050565b600481106142bb576142ba613f22565b5b50565b60008190506142cc826142aa565b919050565b60006142dc826142be565b9050919050565b6142ec816142d1565b82525050565b60006101208301600083015161430b6000860182613e8b565b50602083015184820360208601526143238282613ee9565b9150506040830151614338604086018261429b565b50606083015161434b606086018261429b565b50608083015161435e608086018261429b565b5060a083015161437160a08601826142e3565b5060c083015161438460c0860182614029565b5060e083015161439760e0860182613e8b565b506101008301518482036101008601526143b18282613ee9565b9150508091505092915050565b600060208201905081810360008301526143d881846142f2565b905092915050565b6143e981613d31565b82525050565b600060208201905061440460008301846143e0565b92915050565b600082825260208201905092915050565b600061442682613e9a565b614430818561440a565b9350614440818560208601613eb6565b61444981613bf5565b840191505092915050565b61445d81613f78565b82525050565b61446c81613fc0565b82525050565b61447b81614008565b82525050565b600061016082019050614497600083018e6143e0565b81810360208301526144a9818d61441b565b905081810360408301526144bd818c61441b565b90506144cc606083018b614454565b6144d9608083018a614463565b6144e660a0830189614472565b6144f360c0830188613df5565b61450060e0830187613df5565b61450e610100830186613df5565b61451c6101208301856143e0565b81810361014083015261452f818461441b565b90509c9b505050505050505050505050565b600081519050919050565b600082825260208201905092915050565b6000819050602082019050919050565b6000610100830160008301516145866000860182613e8b565b506020830151848203602086015261459e8282613ee9565b91505060408301516145b36040860182613f8a565b50606083015184820360608601526145cb8282613ee9565b91505060808301516145e06080860182614029565b5060a08301516145f360a0860182614029565b5060c083015161460660c0860182613e8b565b5060e083015184820360e086015261461e8282613ee9565b9150508091505092915050565b6000614637838361456d565b905092915050565b6000602082019050919050565b600061465782614541565b614661818561454c565b9350836020820285016146738561455d565b8060005b858110156146af5784840389528151614690858261462b565b945061469b8361463f565b925060208a01995050600181019050614677565b50829750879550505050505092915050565b600060208201905081810360008301526146db818461464c565b905092915050565b6000610100820190506146f9600083018b6143e0565b818103602083015261470b818a61441b565b905061471a6040830189614454565b818103606083015261472c818861441b565b905061473b6080830187613df5565b61474860a0830186613df5565b61475560c08301856143e0565b81810360e0830152614767818461441b565b90509998505050505050505050565b600080600080600060a0868803121561479257614791613be1565b5b60006147a088828901613e36565b955050602086013567ffffffffffffffff8111156147c1576147c0613be6565b5b6147cd88828901613d03565b94505060406147de88828901613d52565b935050606086013567ffffffffffffffff8111156147ff576147fe613be6565b5b61480b88828901613d03565b925050608086013567ffffffffffffffff81111561482c5761482b613be6565b5b61483888828901613d03565b9150509295509295909350565b60008060008060008060c0878903121561486257614861613be1565b5b600087013567ffffffffffffffff8111156148805761487f613be6565b5b61488c89828a01613d03565b965050602061489d89828a01613d52565b95505060406148ae89828a01613d52565b94505060606148bf89828a01613e36565b93505060806148d089828a01613e36565b92505060a087013567ffffffffffffffff8111156148f1576148f0613be6565b5b6148fd89828a01613d03565b9150509295509295509295565b61491381614291565b82525050565b614922816142d1565b82525050565b60006101208201905061493e600083018c6143e0565b8181036020830152614950818b61441b565b905061495f604083018a61490a565b61496c606083018961490a565b614979608083018861490a565b61498660a0830187614919565b61499360c0830186613df5565b6149a060e08301856143e0565b8181036101008301526149b3818461441b565b90509a9950505050505050505050565b6000806000606084860312156149dc576149db613be1565b5b60006149ea86828701613d52565b93505060206149fb86828701613e36565b925050604084013567ffffffffffffffff811115614a1c57614a1b613be6565b5b614a2886828701613d03565b9150509250925092565b614a3b81614291565b8114614a4657600080fd5b50565b600081359050614a5881614a32565b92915050565b600080600080600080600060e0888a031215614a7d57614a7c613be1565b5b600088013567ffffffffffffffff811115614a9b57614a9a613be6565b5b614aa78a828b01613d03565b9750506020614ab88a828b01614a49565b9650506040614ac98a828b01614a49565b9550506060614ada8a828b01614a49565b9450506080614aeb8a828b01613d52565b93505060a0614afc8a828b01613e36565b92505060c088013567ffffffffffffffff811115614b1d57614b1c613be6565b5b614b298a828b01613d03565b91505092959891949750929550565b600080600060608486031215614b5157614b50613be1565b5b6000614b5f86828701613e36565b935050602084013567ffffffffffffffff811115614b8057614b7f613be6565b5b614b8c86828701613d03565b925050604084013567ffffffffffffffff811115614bad57614bac613be6565b5b614bb986828701613d03565b9150509250925092565b600081519050919050565b600082825260208201905092915050565b6000819050602082019050919050565b600061012083016000830151614c086000860182613e8b565b5060208301518482036020860152614c208282613ee9565b9150506040830151614c35604086018261429b565b506060830151614c48606086018261429b565b506080830151614c5b608086018261429b565b5060a0830151614c6e60a08601826142e3565b5060c0830151614c8160c0860182614029565b5060e0830151614c9460e0860182613e8b565b50610100830151848203610100860152614cae8282613ee9565b9150508091505092915050565b6000614cc78383614bef565b905092915050565b6000602082019050919050565b6000614ce782614bc3565b614cf18185614bce565b935083602082028501614d0385614bdf565b8060005b85811015614d3f5784840389528151614d208582614cbb565b9450614d2b83614ccf565b925060208a01995050600181019050614d07565b50829750879550505050505092915050565b60006020820190508181036000830152614d6b8184614cdc565b905092915050565b600081519050919050565b600082825260208201905092915050565b6000819050602082019050919050565b600061016083016000830151614db86000860182613e8b565b5060208301518482036020860152614dd08282613ee9565b91505060408301518482036040860152614dea8282613ee9565b9150506060830151614dff6060860182613f8a565b506080830151614e126080860182613fd2565b5060a0830151614e2560a086018261401a565b5060c0830151614e3860c0860182614029565b5060e0830151614e4b60e0860182614029565b50610100830151614e60610100860182614029565b50610120830151614e75610120860182613e8b565b50610140830151848203610140860152614e8f8282613ee9565b9150508091505092915050565b6000614ea88383614d9f565b905092915050565b6000602082019050919050565b6000614ec882614d73565b614ed28185614d7e565b935083602082028501614ee485614d8f565b8060005b85811015614f205784840389528151614f018582614e9c565b9450614f0c83614eb0565b925060208a01995050600181019050614ee8565b50829750879550505050505092915050565b60006020820190508181036000830152614f4c8184614ebd565b905092915050565b600081905092915050565b6000614f6a82613e9a565b614f748185614f54565b9350614f84818560208601613eb6565b80840191505092915050565b60008160601b9050919050565b6000614fa882614f90565b9050919050565b6000614fba82614f9d565b9050919050565b614fd2614fcd82613de3565b614faf565b82525050565b6000819050919050565b614ff3614fee82613d31565b614fd8565b82525050565b60006150058286614f5f565b91506150118285614fc1565b6014820191506150218284614fe2565b602082019150819050949350505050565b7f4e487b7100000000000000000000000000000000000000000000000000000000600052602260045260246000fd5b6000600282049050600182168061507957607f821691505b6020821081141561508d5761508c615032565b5b50919050565b7f41646472657373206973206e6f742076616c69642e0000000000000000000000600082015250565b60006150c960158361440a565b91506150d482615093565b602082019050919050565b600060208201905081810360008301526150f8816150bc565b9050919050565b7f4e487b7100000000000000000000000000000000000000000000000000000000600052603260045260246000fd5b7f4e487b7100000000000000000000000000000000000000000000000000000000600052601160045260246000fd5b600061516882613d31565b91507fffffffffffffffffffffffffffffffffffffffffffffffffffffffffffffffff82141561519b5761519a61512e565b5b600182019050919050565b60008160001c9050919050565b6000819050919050565b60006151d06151cb836151a6565b6151b3565b9050919050565b60008190508160005260206000209050919050565b600081546151f981615061565b6152038186613ea5565b9450600182166000811461521e576001811461523057615263565b60ff1983168652602086019350615263565b615239856151d7565b60005b8381101561525b5781548189015260018201915060208101905061523c565b808801955050505b50505092915050565b600060ff82169050919050565b600061528c615287836151a6565b61526c565b9050919050565b600073ffffffffffffffffffffffffffffffffffffffff82169050919050565b60006152c66152c1836151a6565b615293565b9050919050565b6000610100830160008084015490506152e5816151bd565b6152f26000870182613e8b565b5060018401858303602087015261530983826151ec565b9250506002840154905061531c81615279565b6153296040870182613f8a565b5060038401858303606087015261534083826151ec565b92505060048401549050615353816152b3565b6153606080870182614029565b5060058401549050615371816152b3565b61537e60a0870182614029565b506006840154905061538f816151bd565b61539c60c0870182613e8b565b506007840185830360e08701526153b383826151ec565b925050819250505092915050565b600060208201905081810360008301526153db81846152cd565b905092915050565b60008160081c9050919050565b600060ff82169050919050565b600061541061540b836153e3565b6153f0565b9050919050565b60008160101c9050919050565b600060ff82169050919050565b600061544461543f83615417565b615424565b9050919050565b60008160181c9050919050565b600061546b6154668361544b565b615293565b9050919050565b60006101608301600080840154905061548a816151bd565b6154976000870182613e8b565b506001840185830360208701526154ae83826151ec565b9250506002840185830360408701526154c783826151ec565b925050600384015490506154da81615279565b6154e76060870182613f8a565b506154f1816153fd565b6154fe6080870182613fd2565b5061550881615431565b61551560a087018261401a565b5061551f81615458565b61552c60c0870182614029565b506004840154905061553d816152b3565b61554a60e0870182614029565b506005840154905061555b816152b3565b615569610100870182614029565b506006840154905061557a816151bd565b615588610120870182613e8b565b50600784018583036101408701526155a083826151ec565b925050819250505092915050565b600060208201905081810360008301526155c88184615472565b905092915050565b7f596f7520617265206e6f7420616e206f776e65722e0000000000000000000000600082015250565b600061560660158361440a565b9150615611826155d0565b602082019050919050565b60006020820190508181036000830152615635816155f9565b9050919050565b6000819050919050565b6000615659615654836151a6565b61563c565b9050919050565b600060ff82169050919050565b600061568061567b836151a6565b615660565b9050919050565b600061569a615695836153e3565b615293565b9050919050565b6000610120830160008084015490506156b9816151bd565b6156c66000870182613e8b565b506001840185830360208701526156dd83826151ec565b925050600284015490506156f081615646565b6156fd604087018261429b565b506003840154905061570e81615646565b61571b606087018261429b565b506004840154905061572c81615646565b615739608087018261429b565b506005840154905061574a8161566d565b61575760a08701826142e3565b5061576181615687565b61576e60c0870182614029565b506006840154905061577f816151bd565b61578c60e0870182613e8b565b50600784018583036101008701526157a483826151ec565b925050819250505092915050565b600060208201905081810360008301526157cc81846156a1565b90509291505056fea26469706673582212206b3319e7c7a8a16e253f39930384ae78e385c5f6c2ef7f3a3140f81d5dec97ef64736f6c634300080a0033",
  "immutableReferences": {},
  "source": "// SPDX-License-Identifier: MIT\r\npragma solidity >=0.8.0 <0.9.0;\r\n\r\nimport \"./UserChain.sol\";\r\nimport \"./SharedChain.sol\";\r\n\r\ncontract ProjectChain is UserChain {\r\n    address _currentUserAddress;\r\n    UserChain userChain;\r\n\r\n    constructor() {\r\n        _currentUserAddress = msg.sender;\r\n        //userChain = new UserChain();\r\n    }\r\n\r\n    modifier onlyUserProject() {\r\n        // User memory sessionUser = userChain.getUserInfo(_currentUserAddress);\r\n        // require(\r\n        //     sessionUser._role == Roles.UserProject,\r\n        //     \"You don't have the rights for this resource.\"\r\n        // );\r\n        _;\r\n    }\r\n\r\n    modifier onlySupervisor() {\r\n        // User memory sessionUser = userChain.getUserInfo(_currentUserAddress);\r\n        // require(\r\n        //     sessionUser._role == Roles.Supervisor,\r\n        //     \"You don't have the rights for this resource.\"\r\n        // );\r\n        _;\r\n    }\r\n\r\n    modifier onlyCompany() {\r\n        // User memory sessionUser = userChain.getUserInfo(_currentUserAddress);\r\n        // require(\r\n        //     sessionUser._role == Roles.Company,\r\n        //     \"You don't have the rights for this resource.\"\r\n        // );\r\n        _;\r\n    }\r\n\r\n    /**  PROJECT INITIATOR  */\r\n\r\n    mapping(address => Project) public projects;\r\n    uint256 public projectsCounter = 0;\r\n    address[] public projectsAddress;\r\n\r\n    function createUniqueProjectAddress(string memory _name, uint _index) public view returns (address) {\r\n        return address(uint160(uint256(keccak256(abi.encodePacked(_name, _currentUserAddress, _index)))));\r\n    }\r\n\r\n    function createProject(\r\n        address _projectAddress,\r\n        string memory _name,\r\n        uint256 _status,\r\n        string memory _ipfsFileCID,\r\n        string memory _signature\r\n    ) public onlyUserProject {\r\n        projects[_projectAddress] = Project(\r\n            projectsCounter,\r\n            _name,\r\n            ProjectStatus(_status),\r\n            _ipfsFileCID,\r\n            _projectAddress,\r\n            _currentUserAddress,\r\n            block.timestamp,\r\n            _signature\r\n        );\r\n\r\n        emit ProjectEvent(projects[_projectAddress], _projectAddress);\r\n        projectsAddress.push(_projectAddress);\r\n        projectsCounter++;\r\n    }\r\n\r\n    function updateProject(\r\n        address _projectAddress,\r\n        string memory _ipfsFileCID,\r\n        string memory _signature\r\n    ) public onlyUserProject {\r\n        projects[_projectAddress]._ipfsFileCID = _ipfsFileCID;\r\n        projects[_projectAddress]._signature = _signature;\r\n\r\n        emit ProjectEvent(projects[_projectAddress], _projectAddress);\r\n    }\r\n\r\n    function getProjectInfo(address _address)\r\n        public\r\n        view\r\n        returns (Project memory)\r\n    {\r\n        require(msg.sender != address(0x0), \"Address is not valid.\");\r\n        return projects[_address];\r\n    }\r\n\r\n    function getUserProjects(address _signerAddress) public view returns (Project[] memory) {\r\n        Project[] memory allProjects;\r\n        if (projectsCounter == 0) return allProjects;\r\n\r\n        allProjects = new Project[](projectsCounter);\r\n        for (uint256 index = 0; index < projectsCounter; index++) {\r\n            address _projectAddress = projectsAddress[index];\r\n            if (_signerAddress == projects[_projectAddress]._signerAddress) {\r\n                Project storage project = projects[_projectAddress];\r\n                allProjects[index] = project;\r\n            }\r\n        }\r\n        return allProjects;\r\n    }\r\n\r\n    function getAllProjects() public view returns (Project[] memory) {\r\n        Project[] memory allProjects;\r\n        if (projectsCounter == 0) return allProjects;\r\n\r\n        allProjects = new Project[](projectsCounter);\r\n        for (uint256 index = 0; index < projectsCounter; index++) {\r\n            address _projectAddress = projectsAddress[index];\r\n            Project storage project = projects[_projectAddress];\r\n            allProjects[index] = project;\r\n        }\r\n        return allProjects;\r\n    }\r\n\r\n\r\n    /**  Requests  */\r\n\r\n    mapping(address => Request) public requests;\r\n    uint256 public requestsCounter = 0;\r\n    address[] public requestsAddress;\r\n\r\n    function createUniqueRequestAddress(string memory _title, uint _index) public view returns (address) {\r\n        return address(uint160(uint256(keccak256(abi.encodePacked(_title, _currentUserAddress, _index)))));\r\n    }\r\n\r\n    function createRequest(\r\n        string memory _title,\r\n        uint256 _projectStatus,\r\n        uint256 _requestStatus,\r\n        address _projectAddress,\r\n        address _requestAddress,\r\n        string memory _signature\r\n    ) public {\r\n        //require(projects[_projectAddress]._status == ProjectStatus.Created, \"Steps must follow accordingly\");\r\n        //require(ProjectStatus.ToApprove == RequestStatus.UnApproved, \"\");\r\n        //require(ProjectStatus.ToApprove == RequestStatus.Rejected, \"\");\r\n\r\n        RequestType _requestType;\r\n        if (ProjectStatus(_projectStatus) == ProjectStatus.StartProject) {\r\n            _requestType = RequestType.CompanyReq;\r\n        } else {\r\n            _requestType = RequestType.SupervisorReq;\r\n        }\r\n\r\n        requests[_requestAddress] = Request(\r\n            requestsCounter,\r\n            _title,\r\n            \"\",\r\n            ProjectStatus(_projectStatus),\r\n            RequestStatus(_requestStatus),\r\n            RequestType(_requestType),\r\n            _projectAddress,\r\n            _requestAddress,\r\n            _currentUserAddress,\r\n            block.timestamp,\r\n            _signature\r\n        );\r\n\r\n        emit RequestEvent(requests[_requestAddress], _requestAddress, _projectAddress);\r\n        requestsAddress.push(_requestAddress);\r\n        requestsCounter++;\r\n    }\r\n\r\n    function updateRequest(\r\n        string memory _comments,\r\n        uint256 _requestStatus,\r\n        uint256 _projectStatus,\r\n        address _projectAddress,\r\n        address _requestAddress,\r\n        string memory _signature\r\n    ) public {\r\n        // Update request status in the Requests Mapping and Struct Array\r\n        requests[_requestAddress]._comments = _comments;\r\n        requests[_requestAddress]._requestStatus = RequestStatus(_requestStatus);\r\n        requests[_requestAddress]._signature = _signature;\r\n        emit RequestEvent(requests[_requestAddress], _requestAddress, _projectAddress);\r\n\r\n        // Update ProjectStatus to the requested status - Porject Mapping and Struct Array\r\n        if (RequestStatus.Approved == RequestStatus(_requestStatus)) {\r\n            projects[_projectAddress]._status = ProjectStatus(_projectStatus);\r\n            emit ProjectEvent(projects[_projectAddress], _projectAddress);\r\n        }\r\n    }\r\n\r\n    function getAllRequests() public view returns (Request[] memory) {\r\n        Request[] memory allRequests = new Request[](requestsCounter);\r\n        for (uint256 index = 0; index < requestsCounter; index++) {\r\n            address _requestAddress = requestsAddress[index];\r\n            Request storage request = requests[_requestAddress];\r\n            allRequests[index] = request;\r\n        }\r\n        return allRequests;\r\n    }\r\n\r\n\r\n    function getLastProjectRequest(address _projectAddress, address _requestAddress)\r\n        public view returns (Request memory)\r\n    {\r\n        Request memory request;\r\n        if (requestsCounter > 0) {\r\n            if (requests[_requestAddress]._projectAddress == _projectAddress) {\r\n                request = requests[_requestAddress];\r\n            }\r\n        }\r\n        return request;\r\n    }\r\n\r\n\r\n\r\n}\r\n",
  "sourcePath": "/mnt/c/Users/Beniamin/source/repos/DissertationProject/contracts/ProjectChain.sol",
  "compiler": {
    "name": "solc",
    "version": "0.8.10+commit.fc410830.Emscripten.clang"
  },
  "schemaVersion": "3.4.3",
  "updatedAt": "2021-12-11T11:17:42.039Z",
  "networkType": "ethereum",
  "devdoc": {
    "kind": "dev",
    "methods": {},
    "version": 1
  },
  "userdoc": {
    "kind": "user",
    "methods": {
      "projects(address)": {
        "notice": "PROJECT INITIATOR  "
      },
      "requests(address)": {
        "notice": "Requests  "
      }
    },
    "version": 1
  }
}