{
  "contractName": "ProjectChain",
  "abi": [
    {
      "inputs": [],
      "stateMutability": "nonpayable",
      "type": "constructor"
    },
    {
      "anonymous": false,
      "inputs": [
        {
          "indexed": false,
          "internalType": "uint256",
          "name": "_index",
          "type": "uint256"
        },
        {
          "indexed": false,
          "internalType": "string",
          "name": "_name",
          "type": "string"
        },
        {
          "indexed": false,
          "internalType": "enum SharedChain.ProjectStatus",
          "name": "_status",
          "type": "uint8"
        },
        {
          "indexed": false,
          "internalType": "string",
          "name": "_ipfsFileCID",
          "type": "string"
        },
        {
          "indexed": false,
          "internalType": "address",
          "name": "_projectAddress",
          "type": "address"
        },
        {
          "indexed": false,
          "internalType": "address",
          "name": "_userAddress",
          "type": "address"
        },
        {
          "indexed": false,
          "internalType": "uint256",
          "name": "_timestamp",
          "type": "uint256"
        }
      ],
      "name": "ProjectEvent",
      "type": "event"
    },
    {
      "anonymous": false,
      "inputs": [
        {
          "indexed": false,
          "internalType": "uint256",
          "name": "_index",
          "type": "uint256"
        },
        {
          "indexed": false,
          "internalType": "string",
          "name": "_title",
          "type": "string"
        },
        {
          "indexed": false,
          "internalType": "string",
          "name": "_comments",
          "type": "string"
        },
        {
          "indexed": false,
          "internalType": "enum SharedChain.ProjectStatus",
          "name": "_status",
          "type": "uint8"
        },
        {
          "indexed": false,
          "internalType": "enum SharedChain.RequestStatus",
          "name": "_requestStatus",
          "type": "uint8"
        },
        {
          "indexed": false,
          "internalType": "address",
          "name": "_projectAddress",
          "type": "address"
        },
        {
          "indexed": false,
          "internalType": "address",
          "name": "_userAddress",
          "type": "address"
        },
        {
          "indexed": false,
          "internalType": "uint256",
          "name": "_timestamp",
          "type": "uint256"
        }
      ],
      "name": "ProjectRequestEvent",
      "type": "event"
    },
    {
      "anonymous": false,
      "inputs": [
        {
          "indexed": false,
          "internalType": "uint256",
          "name": "_index",
          "type": "uint256"
        },
        {
          "indexed": false,
          "internalType": "string",
          "name": "_title",
          "type": "string"
        },
        {
          "indexed": false,
          "internalType": "enum SharedChain.RequestStatus",
          "name": "_status",
          "type": "uint8"
        },
        {
          "indexed": false,
          "internalType": "enum SharedChain.ProjectStatus",
          "name": "_projectStatus",
          "type": "uint8"
        },
        {
          "indexed": false,
          "internalType": "address",
          "name": "_projectAddress",
          "type": "address"
        },
        {
          "indexed": false,
          "internalType": "address",
          "name": "_userAddress",
          "type": "address"
        },
        {
          "indexed": false,
          "internalType": "uint256",
          "name": "_timestamp",
          "type": "uint256"
        }
      ],
      "name": "RequestEvent",
      "type": "event"
    },
    {
      "anonymous": false,
      "inputs": [
        {
          "indexed": false,
          "internalType": "string",
          "name": "_username",
          "type": "string"
        },
        {
          "indexed": false,
          "internalType": "string",
          "name": "_firstname",
          "type": "string"
        },
        {
          "indexed": false,
          "internalType": "string",
          "name": "_lastname",
          "type": "string"
        },
        {
          "indexed": false,
          "internalType": "string",
          "name": "_email",
          "type": "string"
        },
        {
          "indexed": false,
          "internalType": "enum UserChain.Roles",
          "name": "_role",
          "type": "uint8"
        },
        {
          "indexed": false,
          "internalType": "address",
          "name": "_walletAddress",
          "type": "address"
        }
      ],
      "name": "UserChanges",
      "type": "event"
    },
    {
      "anonymous": false,
      "inputs": [
        {
          "indexed": true,
          "internalType": "address",
          "name": "_walletAddress",
          "type": "address"
        },
        {
          "indexed": true,
          "internalType": "string",
          "name": "_username",
          "type": "string"
        },
        {
          "indexed": false,
          "internalType": "string",
          "name": "_email",
          "type": "string"
        },
        {
          "indexed": false,
          "internalType": "string",
          "name": "_firstname",
          "type": "string"
        },
        {
          "indexed": false,
          "internalType": "string",
          "name": "_lastname",
          "type": "string"
        },
        {
          "indexed": true,
          "internalType": "enum UserChain.Roles",
          "name": "_role",
          "type": "uint8"
        }
      ],
      "name": "UserRegistered",
      "type": "event"
    },
    {
      "inputs": [
        {
          "internalType": "uint256",
          "name": "",
          "type": "uint256"
        }
      ],
      "name": "allProjectRequests",
      "outputs": [
        {
          "internalType": "uint256",
          "name": "_index",
          "type": "uint256"
        },
        {
          "internalType": "string",
          "name": "_title",
          "type": "string"
        },
        {
          "internalType": "string",
          "name": "_comments",
          "type": "string"
        },
        {
          "internalType": "enum SharedChain.ProjectStatus",
          "name": "_status",
          "type": "uint8"
        },
        {
          "internalType": "enum SharedChain.RequestStatus",
          "name": "_requestStatus",
          "type": "uint8"
        },
        {
          "internalType": "address",
          "name": "_projectAddress",
          "type": "address"
        },
        {
          "internalType": "address",
          "name": "_userAddress",
          "type": "address"
        }
      ],
      "stateMutability": "view",
      "type": "function",
      "constant": true
    },
    {
      "inputs": [
        {
          "internalType": "uint256",
          "name": "",
          "type": "uint256"
        }
      ],
      "name": "allProjects",
      "outputs": [
        {
          "internalType": "uint256",
          "name": "_index",
          "type": "uint256"
        },
        {
          "internalType": "string",
          "name": "_name",
          "type": "string"
        },
        {
          "internalType": "enum SharedChain.ProjectStatus",
          "name": "_status",
          "type": "uint8"
        },
        {
          "internalType": "string",
          "name": "_ipfsFileCID",
          "type": "string"
        },
        {
          "internalType": "address",
          "name": "_projectAddress",
          "type": "address"
        },
        {
          "internalType": "address",
          "name": "_userAddress",
          "type": "address"
        }
      ],
      "stateMutability": "view",
      "type": "function",
      "constant": true
    },
    {
      "inputs": [
        {
          "internalType": "uint256",
          "name": "",
          "type": "uint256"
        }
      ],
      "name": "allRequests",
      "outputs": [
        {
          "internalType": "uint256",
          "name": "_index",
          "type": "uint256"
        },
        {
          "internalType": "string",
          "name": "_title",
          "type": "string"
        },
        {
          "internalType": "enum SharedChain.RequestStatus",
          "name": "_requestStatus",
          "type": "uint8"
        },
        {
          "internalType": "enum SharedChain.ProjectStatus",
          "name": "_projectStatus",
          "type": "uint8"
        },
        {
          "internalType": "address",
          "name": "_projectAddress",
          "type": "address"
        },
        {
          "internalType": "address",
          "name": "_userAddress",
          "type": "address"
        }
      ],
      "stateMutability": "view",
      "type": "function",
      "constant": true
    },
    {
      "inputs": [
        {
          "internalType": "uint256",
          "name": "",
          "type": "uint256"
        }
      ],
      "name": "allUsers",
      "outputs": [
        {
          "internalType": "uint256",
          "name": "_index",
          "type": "uint256"
        },
        {
          "internalType": "string",
          "name": "_username",
          "type": "string"
        },
        {
          "internalType": "string",
          "name": "_email",
          "type": "string"
        },
        {
          "internalType": "string",
          "name": "_firstname",
          "type": "string"
        },
        {
          "internalType": "string",
          "name": "_lastname",
          "type": "string"
        },
        {
          "internalType": "enum UserChain.Roles",
          "name": "_role",
          "type": "uint8"
        },
        {
          "internalType": "address",
          "name": "_walletAddress",
          "type": "address"
        }
      ],
      "stateMutability": "view",
      "type": "function",
      "constant": true
    },
    {
      "inputs": [
        {
          "internalType": "uint256",
          "name": "_role",
          "type": "uint256"
        },
        {
          "internalType": "address",
          "name": "_walletAddress",
          "type": "address"
        }
      ],
      "name": "changeUserRole",
      "outputs": [],
      "stateMutability": "nonpayable",
      "type": "function"
    },
    {
      "inputs": [],
      "name": "getAllUsers",
      "outputs": [
        {
          "components": [
            {
              "internalType": "uint256",
              "name": "_index",
              "type": "uint256"
            },
            {
              "internalType": "string",
              "name": "_username",
              "type": "string"
            },
            {
              "internalType": "string",
              "name": "_email",
              "type": "string"
            },
            {
              "internalType": "string",
              "name": "_firstname",
              "type": "string"
            },
            {
              "internalType": "string",
              "name": "_lastname",
              "type": "string"
            },
            {
              "internalType": "enum UserChain.Roles",
              "name": "_role",
              "type": "uint8"
            },
            {
              "internalType": "address",
              "name": "_walletAddress",
              "type": "address"
            }
          ],
          "internalType": "struct UserChain.User[]",
          "name": "",
          "type": "tuple[]"
        }
      ],
      "stateMutability": "view",
      "type": "function",
      "constant": true
    },
    {
      "inputs": [
        {
          "internalType": "address",
          "name": "_walletAddress",
          "type": "address"
        }
      ],
      "name": "getUserInfo",
      "outputs": [
        {
          "components": [
            {
              "internalType": "uint256",
              "name": "_index",
              "type": "uint256"
            },
            {
              "internalType": "string",
              "name": "_username",
              "type": "string"
            },
            {
              "internalType": "string",
              "name": "_email",
              "type": "string"
            },
            {
              "internalType": "string",
              "name": "_firstname",
              "type": "string"
            },
            {
              "internalType": "string",
              "name": "_lastname",
              "type": "string"
            },
            {
              "internalType": "enum UserChain.Roles",
              "name": "_role",
              "type": "uint8"
            },
            {
              "internalType": "address",
              "name": "_walletAddress",
              "type": "address"
            }
          ],
          "internalType": "struct UserChain.User",
          "name": "",
          "type": "tuple"
        }
      ],
      "stateMutability": "view",
      "type": "function",
      "constant": true
    },
    {
      "inputs": [],
      "name": "owner",
      "outputs": [
        {
          "internalType": "address",
          "name": "",
          "type": "address"
        }
      ],
      "stateMutability": "view",
      "type": "function",
      "constant": true
    },
    {
      "inputs": [
        {
          "internalType": "address",
          "name": "",
          "type": "address"
        }
      ],
      "name": "projectRequests",
      "outputs": [
        {
          "internalType": "uint256",
          "name": "_index",
          "type": "uint256"
        },
        {
          "internalType": "string",
          "name": "_title",
          "type": "string"
        },
        {
          "internalType": "string",
          "name": "_comments",
          "type": "string"
        },
        {
          "internalType": "enum SharedChain.ProjectStatus",
          "name": "_status",
          "type": "uint8"
        },
        {
          "internalType": "enum SharedChain.RequestStatus",
          "name": "_requestStatus",
          "type": "uint8"
        },
        {
          "internalType": "address",
          "name": "_projectAddress",
          "type": "address"
        },
        {
          "internalType": "address",
          "name": "_userAddress",
          "type": "address"
        }
      ],
      "stateMutability": "view",
      "type": "function",
      "constant": true
    },
    {
      "inputs": [],
      "name": "projectRequestsCounter",
      "outputs": [
        {
          "internalType": "uint256",
          "name": "",
          "type": "uint256"
        }
      ],
      "stateMutability": "view",
      "type": "function",
      "constant": true
    },
    {
      "inputs": [
        {
          "internalType": "address",
          "name": "",
          "type": "address"
        }
      ],
      "name": "projects",
      "outputs": [
        {
          "internalType": "uint256",
          "name": "_index",
          "type": "uint256"
        },
        {
          "internalType": "string",
          "name": "_name",
          "type": "string"
        },
        {
          "internalType": "enum SharedChain.ProjectStatus",
          "name": "_status",
          "type": "uint8"
        },
        {
          "internalType": "string",
          "name": "_ipfsFileCID",
          "type": "string"
        },
        {
          "internalType": "address",
          "name": "_projectAddress",
          "type": "address"
        },
        {
          "internalType": "address",
          "name": "_userAddress",
          "type": "address"
        }
      ],
      "stateMutability": "view",
      "type": "function",
      "constant": true
    },
    {
      "inputs": [],
      "name": "projectsCounter",
      "outputs": [
        {
          "internalType": "uint256",
          "name": "",
          "type": "uint256"
        }
      ],
      "stateMutability": "view",
      "type": "function",
      "constant": true
    },
    {
      "inputs": [
        {
          "internalType": "string",
          "name": "_username",
          "type": "string"
        },
        {
          "internalType": "string",
          "name": "_email",
          "type": "string"
        },
        {
          "internalType": "string",
          "name": "_firstname",
          "type": "string"
        },
        {
          "internalType": "string",
          "name": "_lastname",
          "type": "string"
        },
        {
          "internalType": "uint256",
          "name": "_role",
          "type": "uint256"
        },
        {
          "internalType": "address",
          "name": "_walletAddress",
          "type": "address"
        }
      ],
      "name": "registerUser",
      "outputs": [],
      "stateMutability": "nonpayable",
      "type": "function"
    },
    {
      "inputs": [
        {
          "internalType": "uint256",
          "name": "",
          "type": "uint256"
        }
      ],
      "name": "requests",
      "outputs": [
        {
          "internalType": "uint256",
          "name": "_index",
          "type": "uint256"
        },
        {
          "internalType": "string",
          "name": "_title",
          "type": "string"
        },
        {
          "internalType": "enum SharedChain.RequestStatus",
          "name": "_requestStatus",
          "type": "uint8"
        },
        {
          "internalType": "enum SharedChain.ProjectStatus",
          "name": "_projectStatus",
          "type": "uint8"
        },
        {
          "internalType": "address",
          "name": "_projectAddress",
          "type": "address"
        },
        {
          "internalType": "address",
          "name": "_userAddress",
          "type": "address"
        }
      ],
      "stateMutability": "view",
      "type": "function",
      "constant": true
    },
    {
      "inputs": [],
      "name": "requestsCounter",
      "outputs": [
        {
          "internalType": "uint256",
          "name": "",
          "type": "uint256"
        }
      ],
      "stateMutability": "view",
      "type": "function",
      "constant": true
    },
    {
      "inputs": [
        {
          "internalType": "address",
          "name": "",
          "type": "address"
        }
      ],
      "name": "users",
      "outputs": [
        {
          "internalType": "uint256",
          "name": "_index",
          "type": "uint256"
        },
        {
          "internalType": "string",
          "name": "_username",
          "type": "string"
        },
        {
          "internalType": "string",
          "name": "_email",
          "type": "string"
        },
        {
          "internalType": "string",
          "name": "_firstname",
          "type": "string"
        },
        {
          "internalType": "string",
          "name": "_lastname",
          "type": "string"
        },
        {
          "internalType": "enum UserChain.Roles",
          "name": "_role",
          "type": "uint8"
        },
        {
          "internalType": "address",
          "name": "_walletAddress",
          "type": "address"
        }
      ],
      "stateMutability": "view",
      "type": "function",
      "constant": true
    },
    {
      "inputs": [],
      "name": "usersCounter",
      "outputs": [
        {
          "internalType": "uint256",
          "name": "",
          "type": "uint256"
        }
      ],
      "stateMutability": "view",
      "type": "function",
      "constant": true
    },
    {
      "inputs": [
        {
          "internalType": "string",
          "name": "_text",
          "type": "string"
        },
        {
          "internalType": "uint256",
          "name": "_index",
          "type": "uint256"
        }
      ],
      "name": "createUniqueHexAddress",
      "outputs": [
        {
          "internalType": "address",
          "name": "",
          "type": "address"
        }
      ],
      "stateMutability": "view",
      "type": "function",
      "constant": true
    },
    {
      "inputs": [
        {
          "internalType": "string",
          "name": "_name",
          "type": "string"
        },
        {
          "internalType": "uint256",
          "name": "_status",
          "type": "uint256"
        },
        {
          "internalType": "string",
          "name": "_ipfsFileCID",
          "type": "string"
        }
      ],
      "name": "createProject",
      "outputs": [],
      "stateMutability": "nonpayable",
      "type": "function"
    },
    {
      "inputs": [
        {
          "internalType": "address",
          "name": "_address",
          "type": "address"
        }
      ],
      "name": "getProjectInfo",
      "outputs": [
        {
          "components": [
            {
              "internalType": "uint256",
              "name": "_index",
              "type": "uint256"
            },
            {
              "internalType": "string",
              "name": "_name",
              "type": "string"
            },
            {
              "internalType": "enum SharedChain.ProjectStatus",
              "name": "_status",
              "type": "uint8"
            },
            {
              "internalType": "string",
              "name": "_ipfsFileCID",
              "type": "string"
            },
            {
              "internalType": "address",
              "name": "_projectAddress",
              "type": "address"
            },
            {
              "internalType": "address",
              "name": "_userAddress",
              "type": "address"
            }
          ],
          "internalType": "struct SharedChain.Project",
          "name": "",
          "type": "tuple"
        }
      ],
      "stateMutability": "view",
      "type": "function",
      "constant": true
    },
    {
      "inputs": [],
      "name": "getAllProjects",
      "outputs": [
        {
          "components": [
            {
              "internalType": "uint256",
              "name": "_index",
              "type": "uint256"
            },
            {
              "internalType": "string",
              "name": "_name",
              "type": "string"
            },
            {
              "internalType": "enum SharedChain.ProjectStatus",
              "name": "_status",
              "type": "uint8"
            },
            {
              "internalType": "string",
              "name": "_ipfsFileCID",
              "type": "string"
            },
            {
              "internalType": "address",
              "name": "_projectAddress",
              "type": "address"
            },
            {
              "internalType": "address",
              "name": "_userAddress",
              "type": "address"
            }
          ],
          "internalType": "struct SharedChain.Project[]",
          "name": "",
          "type": "tuple[]"
        }
      ],
      "stateMutability": "view",
      "type": "function",
      "constant": true
    },
    {
      "inputs": [
        {
          "internalType": "string",
          "name": "_title",
          "type": "string"
        },
        {
          "internalType": "uint256",
          "name": "_status",
          "type": "uint256"
        },
        {
          "internalType": "uint256",
          "name": "_requestStatus",
          "type": "uint256"
        },
        {
          "internalType": "address",
          "name": "_projectAddress",
          "type": "address"
        }
      ],
      "name": "createProjectRequest",
      "outputs": [],
      "stateMutability": "nonpayable",
      "type": "function"
    },
    {
      "inputs": [],
      "name": "getAllProjectRequests",
      "outputs": [
        {
          "components": [
            {
              "internalType": "uint256",
              "name": "_index",
              "type": "uint256"
            },
            {
              "internalType": "string",
              "name": "_title",
              "type": "string"
            },
            {
              "internalType": "string",
              "name": "_comments",
              "type": "string"
            },
            {
              "internalType": "enum SharedChain.ProjectStatus",
              "name": "_status",
              "type": "uint8"
            },
            {
              "internalType": "enum SharedChain.RequestStatus",
              "name": "_requestStatus",
              "type": "uint8"
            },
            {
              "internalType": "address",
              "name": "_projectAddress",
              "type": "address"
            },
            {
              "internalType": "address",
              "name": "_userAddress",
              "type": "address"
            }
          ],
          "internalType": "struct SharedChain.ProjectRequest[]",
          "name": "",
          "type": "tuple[]"
        }
      ],
      "stateMutability": "view",
      "type": "function",
      "constant": true
    },
    {
      "inputs": [
        {
          "internalType": "string",
          "name": "_title",
          "type": "string"
        },
        {
          "internalType": "uint256",
          "name": "_requestStatus",
          "type": "uint256"
        },
        {
          "internalType": "uint256",
          "name": "_projectStatus",
          "type": "uint256"
        },
        {
          "internalType": "address",
          "name": "_projectAddress",
          "type": "address"
        }
      ],
      "name": "createRequest",
      "outputs": [],
      "stateMutability": "nonpayable",
      "type": "function"
    },
    {
      "inputs": [
        {
          "internalType": "uint256",
          "name": "_requestStatus",
          "type": "uint256"
        },
        {
          "internalType": "uint256",
          "name": "_index",
          "type": "uint256"
        }
      ],
      "name": "updateRequest",
      "outputs": [],
      "stateMutability": "nonpayable",
      "type": "function"
    },
    {
      "inputs": [],
      "name": "getAllRequests",
      "outputs": [
        {
          "components": [
            {
              "internalType": "uint256",
              "name": "_index",
              "type": "uint256"
            },
            {
              "internalType": "string",
              "name": "_title",
              "type": "string"
            },
            {
              "internalType": "enum SharedChain.RequestStatus",
              "name": "_requestStatus",
              "type": "uint8"
            },
            {
              "internalType": "enum SharedChain.ProjectStatus",
              "name": "_projectStatus",
              "type": "uint8"
            },
            {
              "internalType": "address",
              "name": "_projectAddress",
              "type": "address"
            },
            {
              "internalType": "address",
              "name": "_userAddress",
              "type": "address"
            }
          ],
          "internalType": "struct SharedChain.Request[]",
          "name": "",
          "type": "tuple[]"
        }
      ],
      "stateMutability": "view",
      "type": "function",
      "constant": true
    }
  ],
  "bytecode": "0x60806040526000600355600060065560006009556000600c5534801561002457600080fd5b50336000806101000a81548173ffffffffffffffffffffffffffffffffffffffff021916908373ffffffffffffffffffffffffffffffffffffffff16021790555033600460006101000a81548173ffffffffffffffffffffffffffffffffffffffff021916908373ffffffffffffffffffffffffffffffffffffffff1602179055506152a4806100b56000396000f3fe608060405234801561001057600080fd5b506004361061018e5760003560e01c806384afb5bb116100de578063a87430ba11610097578063d67b1b9911610071578063d67b1b991461050d578063e2842d791461052b578063fb1a002a14610549578063fe360ea5146105675761018e565b8063a87430ba1461049d578063cc1ee4db146104d3578063d1501206146104f15761018e565b806384afb5bb146103ac5780638da5cb5b146103dc57806391009786146103fa578063911c29a6146104165780639bf4ec2f14610432578063a2bdedf4146104675761018e565b806363c163c41161014b5780637e571188116101255780637e571188146102ee57806380d038291461032457806381d12c5814610342578063840e78fd146103775761018e565b806363c163c41461027e578063663c2269146102b4578063759c3dc5146102d25761018e565b80633ce364fb14610193578063400003db146101af57806347ee45b9146101cd57806353b3194c146101fd5780635cdb4642146102325780636386c1c71461024e575b600080fd5b6101ad60048036038101906101a89190613efc565b610585565b005b6101b7610b95565b6040516101c49190614249565b60405180910390f35b6101e760048036038101906101e2919061426b565b610e44565b6040516101f49190614328565b60405180910390f35b6102176004803603810190610212919061434a565b6110b2565b604051610229969594939291906143ee565b60405180910390f35b61024c6004803603810190610247919061445d565b61125b565b005b6102686004803603810190610263919061426b565b61132a565b6040516102759190614596565b60405180910390f35b6102986004803603810190610293919061426b565b611666565b6040516102ab97969594939291906145c7565b60405180910390f35b6102bc611812565b6040516102c99190614644565b60405180910390f35b6102ec60048036038101906102e7919061465f565b611818565b005b6103086004803603810190610303919061434a565b611d5b565b60405161031b97969594939291906145c7565b60405180910390f35b61032c611f17565b604051610339919061483c565b60405180910390f35b61035c6004803603810190610357919061434a565b61218b565b60405161036e9695949392919061485e565b60405180910390f35b610391600480360381019061038c919061426b565b6122a9565b6040516103a3969594939291906143ee565b60405180910390f35b6103c660048036038101906103c191906148c6565b612442565b6040516103d39190614922565b60405180910390f35b6103e461249c565b6040516103f19190614922565b60405180910390f35b610414600480360381019061040f919061493d565b6124c0565b005b610430600480360381019061042b919061497d565b6125e7565b005b61044c6004803603810190610447919061434a565b612b55565b60405161045e9695949392919061485e565b60405180910390f35b610481600480360381019061047c919061434a565b612c83565b6040516104949796959493929190614a89565b60405180910390f35b6104b760048036038101906104b2919061426b565b612f22565b6040516104ca9796959493929190614a89565b60405180910390f35b6104db6131b1565b6040516104e89190614644565b60405180910390f35b61050b60048036038101906105069190613efc565b6131b7565b005b610515613627565b6040516105229190614644565b60405180910390f35b61053361362d565b6040516105409190614c87565b60405180910390f35b61055161396f565b60405161055e9190614df4565b60405180910390f35b61056f613b8c565b60405161057c9190614644565b60405180910390f35b600954600860008373ffffffffffffffffffffffffffffffffffffffff1673ffffffffffffffffffffffffffffffffffffffff1681526020019081526020016000206000018190555083600860008373ffffffffffffffffffffffffffffffffffffffff1673ffffffffffffffffffffffffffffffffffffffff1681526020019081526020016000206001019080519060200190610624929190613b92565b5060405180602001604052806000815250600860008373ffffffffffffffffffffffffffffffffffffffff1673ffffffffffffffffffffffffffffffffffffffff168152602001908152602001600020600201908051906020019061068a929190613b92565b5082600481111561069e5761069d614042565b5b600860008373ffffffffffffffffffffffffffffffffffffffff1673ffffffffffffffffffffffffffffffffffffffff16815260200190815260200160002060030160006101000a81548160ff0219169083600481111561070257610701614042565b5b021790555081600281111561071a57610719614042565b5b600860008373ffffffffffffffffffffffffffffffffffffffff1673ffffffffffffffffffffffffffffffffffffffff16815260200190815260200160002060030160016101000a81548160ff0219169083600281111561077e5761077d614042565b5b021790555080600860008373ffffffffffffffffffffffffffffffffffffffff1673ffffffffffffffffffffffffffffffffffffffff16815260200190815260200160002060030160026101000a81548173ffffffffffffffffffffffffffffffffffffffff021916908373ffffffffffffffffffffffffffffffffffffffff160217905550600460009054906101000a900473ffffffffffffffffffffffffffffffffffffffff16600860008373ffffffffffffffffffffffffffffffffffffffff1673ffffffffffffffffffffffffffffffffffffffff16815260200190815260200160002060040160006101000a81548173ffffffffffffffffffffffffffffffffffffffff021916908373ffffffffffffffffffffffffffffffffffffffff1602179055506108b3848484846131b7565b7fe15149a5ae5ac2018d06bb985af54428f1cd970c3ffeaa3e994ab626450e4477600954858560048111156108eb576108ea614042565b5b8560028111156108fe576108fd614042565b5b85600460009054906101000a900473ffffffffffffffffffffffffffffffffffffffff16426040516109369796959493929190614e3c565b60405180910390a1600a6040518060e00160405280600954815260200186815260200160405180602001604052806000815250815260200185600481111561098157610980614042565b5b600481111561099357610992614042565b5b81526020018460028111156109ab576109aa614042565b5b60028111156109bd576109bc614042565b5b81526020018373ffffffffffffffffffffffffffffffffffffffff168152602001600460009054906101000a900473ffffffffffffffffffffffffffffffffffffffff1673ffffffffffffffffffffffffffffffffffffffff168152509080600181540180825580915050600190039060005260206000209060050201600090919091909150600082015181600001556020820151816001019080519060200190610a69929190613b92565b506040820151816002019080519060200190610a86929190613b92565b5060608201518160030160006101000a81548160ff02191690836004811115610ab257610ab1614042565b5b021790555060808201518160030160016101000a81548160ff02191690836002811115610ae257610ae1614042565b5b021790555060a08201518160030160026101000a81548173ffffffffffffffffffffffffffffffffffffffff021916908373ffffffffffffffffffffffffffffffffffffffff16021790555060c08201518160040160006101000a81548173ffffffffffffffffffffffffffffffffffffffff021916908373ffffffffffffffffffffffffffffffffffffffff160217905550505060096000815480929190610b8a90614ef5565b919050555050505050565b6060600a805480602002602001604051908101604052809291908181526020016000905b82821015610e3b57838290600052602060002090600502016040518060e001604052908160008201548152602001600182018054610bf690614f6d565b80601f0160208091040260200160405190810160405280929190818152602001828054610c2290614f6d565b8015610c6f5780601f10610c4457610100808354040283529160200191610c6f565b820191906000526020600020905b815481529060010190602001808311610c5257829003601f168201915b50505050508152602001600282018054610c8890614f6d565b80601f0160208091040260200160405190810160405280929190818152602001828054610cb490614f6d565b8015610d015780601f10610cd657610100808354040283529160200191610d01565b820191906000526020600020905b815481529060010190602001808311610ce457829003601f168201915b505050505081526020016003820160009054906101000a900460ff166004811115610d2f57610d2e614042565b5b6004811115610d4157610d40614042565b5b81526020016003820160019054906101000a900460ff166002811115610d6a57610d69614042565b5b6002811115610d7c57610d7b614042565b5b81526020016003820160029054906101000a900473ffffffffffffffffffffffffffffffffffffffff1673ffffffffffffffffffffffffffffffffffffffff1673ffffffffffffffffffffffffffffffffffffffff1681526020016004820160009054906101000a900473ffffffffffffffffffffffffffffffffffffffff1673ffffffffffffffffffffffffffffffffffffffff1673ffffffffffffffffffffffffffffffffffffffff168152505081526020019060010190610bb9565b50505050905090565b610e4c613c18565b600560008373ffffffffffffffffffffffffffffffffffffffff1673ffffffffffffffffffffffffffffffffffffffff1681526020019081526020016000206040518060c001604052908160008201548152602001600182018054610eb090614f6d565b80601f0160208091040260200160405190810160405280929190818152602001828054610edc90614f6d565b8015610f295780601f10610efe57610100808354040283529160200191610f29565b820191906000526020600020905b815481529060010190602001808311610f0c57829003601f168201915b505050505081526020016002820160009054906101000a900460ff166004811115610f5757610f56614042565b5b6004811115610f6957610f68614042565b5b8152602001600382018054610f7d90614f6d565b80601f0160208091040260200160405190810160405280929190818152602001828054610fa990614f6d565b8015610ff65780601f10610fcb57610100808354040283529160200191610ff6565b820191906000526020600020905b815481529060010190602001808311610fd957829003601f168201915b505050505081526020016004820160009054906101000a900473ffffffffffffffffffffffffffffffffffffffff1673ffffffffffffffffffffffffffffffffffffffff1673ffffffffffffffffffffffffffffffffffffffff1681526020016005820160009054906101000a900473ffffffffffffffffffffffffffffffffffffffff1673ffffffffffffffffffffffffffffffffffffffff1673ffffffffffffffffffffffffffffffffffffffff16815250509050919050565b600781815481106110c257600080fd5b90600052602060002090600602016000915090508060000154908060010180546110eb90614f6d565b80601f016020809104026020016040519081016040528092919081815260200182805461111790614f6d565b80156111645780601f1061113957610100808354040283529160200191611164565b820191906000526020600020905b81548152906001019060200180831161114757829003601f168201915b5050505050908060020160009054906101000a900460ff169080600301805461118c90614f6d565b80601f01602080910402602001604051908101604052809291908181526020018280546111b890614f6d565b80156112055780601f106111da57610100808354040283529160200191611205565b820191906000526020600020905b8154815290600101906020018083116111e857829003601f168201915b5050505050908060040160009054906101000a900473ffffffffffffffffffffffffffffffffffffffff16908060050160009054906101000a900473ffffffffffffffffffffffffffffffffffffffff16905086565b81600281111561126e5761126d614042565b5b600b600083815260200190815260200160002060020160006101000a81548160ff021916908360028111156112a6576112a5614042565b5b02179055506000600b60008381526020019081526020016000206000015490508260028111156112d9576112d8614042565b5b600d82815481106112ed576112ec614f9f565b5b906000526020600020906004020160020160006101000a81548160ff021916908360028111156113205761131f614042565b5b0217905550505050565b611332613c8c565b600160008373ffffffffffffffffffffffffffffffffffffffff1673ffffffffffffffffffffffffffffffffffffffff1681526020019081526020016000206040518060e00160405290816000820154815260200160018201805461139690614f6d565b80601f01602080910402602001604051908101604052809291908181526020018280546113c290614f6d565b801561140f5780601f106113e45761010080835404028352916020019161140f565b820191906000526020600020905b8154815290600101906020018083116113f257829003601f168201915b5050505050815260200160028201805461142890614f6d565b80601f016020809104026020016040519081016040528092919081815260200182805461145490614f6d565b80156114a15780601f10611476576101008083540402835291602001916114a1565b820191906000526020600020905b81548152906001019060200180831161148457829003601f168201915b505050505081526020016003820180546114ba90614f6d565b80601f01602080910402602001604051908101604052809291908181526020018280546114e690614f6d565b80156115335780601f1061150857610100808354040283529160200191611533565b820191906000526020600020905b81548152906001019060200180831161151657829003601f168201915b5050505050815260200160048201805461154c90614f6d565b80601f016020809104026020016040519081016040528092919081815260200182805461157890614f6d565b80156115c55780601f1061159a576101008083540402835291602001916115c5565b820191906000526020600020905b8154815290600101906020018083116115a857829003601f168201915b505050505081526020016005820160009054906101000a900460ff1660038111156115f3576115f2614042565b5b600381111561160557611604614042565b5b81526020016005820160019054906101000a900473ffffffffffffffffffffffffffffffffffffffff1673ffffffffffffffffffffffffffffffffffffffff1673ffffffffffffffffffffffffffffffffffffffff16815250509050919050565b600860205280600052604060002060009150905080600001549080600101805461168f90614f6d565b80601f01602080910402602001604051908101604052809291908181526020018280546116bb90614f6d565b80156117085780601f106116dd57610100808354040283529160200191611708565b820191906000526020600020905b8154815290600101906020018083116116eb57829003601f168201915b50505050509080600201805461171d90614f6d565b80601f016020809104026020016040519081016040528092919081815260200182805461174990614f6d565b80156117965780601f1061176b57610100808354040283529160200191611796565b820191906000526020600020905b81548152906001019060200180831161177957829003601f168201915b5050505050908060030160009054906101000a900460ff16908060030160019054906101000a900460ff16908060030160029054906101000a900473ffffffffffffffffffffffffffffffffffffffff16908060040160009054906101000a900473ffffffffffffffffffffffffffffffffffffffff16905087565b600c5481565b600061185b6040518060400160405280601a81526020017f6373643f534073616c61733b646c413233345f442e3b735f6173000000000000815250600654612442565b9050600654600560008373ffffffffffffffffffffffffffffffffffffffff1673ffffffffffffffffffffffffffffffffffffffff1681526020019081526020016000206000018190555083600560008373ffffffffffffffffffffffffffffffffffffffff1673ffffffffffffffffffffffffffffffffffffffff16815260200190815260200160002060010190805190602001906118fc929190613b92565b508260048111156119105761190f614042565b5b600560008373ffffffffffffffffffffffffffffffffffffffff1673ffffffffffffffffffffffffffffffffffffffff16815260200190815260200160002060020160006101000a81548160ff0219169083600481111561197457611973614042565b5b021790555081600560008373ffffffffffffffffffffffffffffffffffffffff1673ffffffffffffffffffffffffffffffffffffffff16815260200190815260200160002060030190805190602001906119cf929190613b92565b5080600560008373ffffffffffffffffffffffffffffffffffffffff1673ffffffffffffffffffffffffffffffffffffffff16815260200190815260200160002060040160006101000a81548173ffffffffffffffffffffffffffffffffffffffff021916908373ffffffffffffffffffffffffffffffffffffffff160217905550600460009054906101000a900473ffffffffffffffffffffffffffffffffffffffff16600560008373ffffffffffffffffffffffffffffffffffffffff1673ffffffffffffffffffffffffffffffffffffffff16815260200190815260200160002060050160006101000a81548173ffffffffffffffffffffffffffffffffffffffff021916908373ffffffffffffffffffffffffffffffffffffffff1602179055507f4ac5ee2f407a6cab0a9a8dc61de1a74bac6135e1b96b67e75c650025ca86b4b760065485856004811115611b2c57611b2b614042565b5b8585600460009054906101000a900473ffffffffffffffffffffffffffffffffffffffff1642604051611b659796959493929190614fce565b60405180910390a160076040518060c001604052806006548152602001868152602001856004811115611b9b57611b9a614042565b5b6004811115611bad57611bac614042565b5b81526020018481526020018373ffffffffffffffffffffffffffffffffffffffff168152602001600460009054906101000a900473ffffffffffffffffffffffffffffffffffffffff1673ffffffffffffffffffffffffffffffffffffffff168152509080600181540180825580915050600190039060005260206000209060060201600090919091909150600082015181600001556020820151816001019080519060200190611c5f929190613b92565b5060408201518160020160006101000a81548160ff02191690836004811115611c8b57611c8a614042565b5b02179055506060820151816003019080519060200190611cac929190613b92565b5060808201518160040160006101000a81548173ffffffffffffffffffffffffffffffffffffffff021916908373ffffffffffffffffffffffffffffffffffffffff16021790555060a08201518160050160006101000a81548173ffffffffffffffffffffffffffffffffffffffff021916908373ffffffffffffffffffffffffffffffffffffffff160217905550505060066000815480929190611d5090614ef5565b919050555050505050565b600a8181548110611d6b57600080fd5b9060005260206000209060050201600091509050806000015490806001018054611d9490614f6d565b80601f0160208091040260200160405190810160405280929190818152602001828054611dc090614f6d565b8015611e0d5780601f10611de257610100808354040283529160200191611e0d565b820191906000526020600020905b815481529060010190602001808311611df057829003601f168201915b505050505090806002018054611e2290614f6d565b80601f0160208091040260200160405190810160405280929190818152602001828054611e4e90614f6d565b8015611e9b5780601f10611e7057610100808354040283529160200191611e9b565b820191906000526020600020905b815481529060010190602001808311611e7e57829003601f168201915b5050505050908060030160009054906101000a900460ff16908060030160019054906101000a900460ff16908060030160029054906101000a900473ffffffffffffffffffffffffffffffffffffffff16908060040160009054906101000a900473ffffffffffffffffffffffffffffffffffffffff16905087565b60606007805480602002602001604051908101604052809291908181526020016000905b8282101561218257838290600052602060002090600602016040518060c001604052908160008201548152602001600182018054611f7890614f6d565b80601f0160208091040260200160405190810160405280929190818152602001828054611fa490614f6d565b8015611ff15780601f10611fc657610100808354040283529160200191611ff1565b820191906000526020600020905b815481529060010190602001808311611fd457829003601f168201915b505050505081526020016002820160009054906101000a900460ff16600481111561201f5761201e614042565b5b600481111561203157612030614042565b5b815260200160038201805461204590614f6d565b80601f016020809104026020016040519081016040528092919081815260200182805461207190614f6d565b80156120be5780601f10612093576101008083540402835291602001916120be565b820191906000526020600020905b8154815290600101906020018083116120a157829003601f168201915b505050505081526020016004820160009054906101000a900473ffffffffffffffffffffffffffffffffffffffff1673ffffffffffffffffffffffffffffffffffffffff1673ffffffffffffffffffffffffffffffffffffffff1681526020016005820160009054906101000a900473ffffffffffffffffffffffffffffffffffffffff1673ffffffffffffffffffffffffffffffffffffffff1673ffffffffffffffffffffffffffffffffffffffff168152505081526020019060010190611f3b565b50505050905090565b600b6020528060005260406000206000915090508060000154908060010180546121b490614f6d565b80601f01602080910402602001604051908101604052809291908181526020018280546121e090614f6d565b801561222d5780601f106122025761010080835404028352916020019161222d565b820191906000526020600020905b81548152906001019060200180831161221057829003601f168201915b5050505050908060020160009054906101000a900460ff16908060020160019054906101000a900460ff16908060020160029054906101000a900473ffffffffffffffffffffffffffffffffffffffff16908060030160009054906101000a900473ffffffffffffffffffffffffffffffffffffffff16905086565b60056020528060005260406000206000915090508060000154908060010180546122d290614f6d565b80601f01602080910402602001604051908101604052809291908181526020018280546122fe90614f6d565b801561234b5780601f106123205761010080835404028352916020019161234b565b820191906000526020600020905b81548152906001019060200180831161232e57829003601f168201915b5050505050908060020160009054906101000a900460ff169080600301805461237390614f6d565b80601f016020809104026020016040519081016040528092919081815260200182805461239f90614f6d565b80156123ec5780601f106123c1576101008083540402835291602001916123ec565b820191906000526020600020905b8154815290600101906020018083116123cf57829003601f168201915b5050505050908060040160009054906101000a900473ffffffffffffffffffffffffffffffffffffffff16908060050160009054906101000a900473ffffffffffffffffffffffffffffffffffffffff16905086565b600082600460009054906101000a900473ffffffffffffffffffffffffffffffffffffffff168360405160200161247b939291906150f0565b6040516020818303038152906040528051906020012060001c905092915050565b60008054906101000a900473ffffffffffffffffffffffffffffffffffffffff1681565b8160038111156124d3576124d2614042565b5b600160008373ffffffffffffffffffffffffffffffffffffffff1673ffffffffffffffffffffffffffffffffffffffff16815260200190815260200160002060050160006101000a81548160ff0219169083600381111561253757612536614042565b5b02179055506000600160008373ffffffffffffffffffffffffffffffffffffffff1673ffffffffffffffffffffffffffffffffffffffff16815260200190815260200160002060000154905082600381111561259657612595614042565b5b600282815481106125aa576125a9614f9f565b5b906000526020600020906006020160050160006101000a81548160ff021916908360038111156125dd576125dc614042565b5b0217905550505050565b3373ffffffffffffffffffffffffffffffffffffffff1660008054906101000a900473ffffffffffffffffffffffffffffffffffffffff1673ffffffffffffffffffffffffffffffffffffffff1614612675576040517f08c379a000000000000000000000000000000000000000000000000000000000815260040161266c90615175565b60405180910390fd5b600354600160008373ffffffffffffffffffffffffffffffffffffffff1673ffffffffffffffffffffffffffffffffffffffff1681526020019081526020016000206000018190555085600160008373ffffffffffffffffffffffffffffffffffffffff1673ffffffffffffffffffffffffffffffffffffffff1681526020019081526020016000206001019080519060200190612714929190613b92565b5084600160008373ffffffffffffffffffffffffffffffffffffffff1673ffffffffffffffffffffffffffffffffffffffff168152602001908152602001600020600201908051906020019061276b929190613b92565b5083600160008373ffffffffffffffffffffffffffffffffffffffff1673ffffffffffffffffffffffffffffffffffffffff16815260200190815260200160002060030190805190602001906127c2929190613b92565b5082600160008373ffffffffffffffffffffffffffffffffffffffff1673ffffffffffffffffffffffffffffffffffffffff1681526020019081526020016000206004019080519060200190612819929190613b92565b5081600381111561282d5761282c614042565b5b600160008373ffffffffffffffffffffffffffffffffffffffff1673ffffffffffffffffffffffffffffffffffffffff16815260200190815260200160002060050160006101000a81548160ff0219169083600381111561289157612890614042565b5b021790555080600160008373ffffffffffffffffffffffffffffffffffffffff1673ffffffffffffffffffffffffffffffffffffffff16815260200190815260200160002060050160016101000a81548173ffffffffffffffffffffffffffffffffffffffff021916908373ffffffffffffffffffffffffffffffffffffffff16021790555081600381111561292a57612929614042565b5b600381111561293c5761293b614042565b5b8660405161294a9190615195565b60405180910390208273ffffffffffffffffffffffffffffffffffffffff167fddb5d1667467713eb503e7e133811c91a231cb6b63f11930889c6004f36c35ee88888860405161299c939291906151ac565b60405180910390a460026040518060e0016040528060035481526020018881526020018781526020018681526020018581526020018460038111156129e4576129e3614042565b5b60038111156129f6576129f5614042565b5b81526020018373ffffffffffffffffffffffffffffffffffffffff168152509080600181540180825580915050600190039060005260206000209060060201600090919091909150600082015181600001556020820151816001019080519060200190612a64929190613b92565b506040820151816002019080519060200190612a81929190613b92565b506060820151816003019080519060200190612a9e929190613b92565b506080820151816004019080519060200190612abb929190613b92565b5060a08201518160050160006101000a81548160ff02191690836003811115612ae757612ae6614042565b5b021790555060c08201518160050160016101000a81548173ffffffffffffffffffffffffffffffffffffffff021916908373ffffffffffffffffffffffffffffffffffffffff160217905550505060036000815480929190612b4890614ef5565b9190505550505050505050565b600d8181548110612b6557600080fd5b9060005260206000209060040201600091509050806000015490806001018054612b8e90614f6d565b80601f0160208091040260200160405190810160405280929190818152602001828054612bba90614f6d565b8015612c075780601f10612bdc57610100808354040283529160200191612c07565b820191906000526020600020905b815481529060010190602001808311612bea57829003601f168201915b5050505050908060020160009054906101000a900460ff16908060020160019054906101000a900460ff16908060020160029054906101000a900473ffffffffffffffffffffffffffffffffffffffff16908060030160009054906101000a900473ffffffffffffffffffffffffffffffffffffffff16905086565b60028181548110612c9357600080fd5b9060005260206000209060060201600091509050806000015490806001018054612cbc90614f6d565b80601f0160208091040260200160405190810160405280929190818152602001828054612ce890614f6d565b8015612d355780601f10612d0a57610100808354040283529160200191612d35565b820191906000526020600020905b815481529060010190602001808311612d1857829003601f168201915b505050505090806002018054612d4a90614f6d565b80601f0160208091040260200160405190810160405280929190818152602001828054612d7690614f6d565b8015612dc35780601f10612d9857610100808354040283529160200191612dc3565b820191906000526020600020905b815481529060010190602001808311612da657829003601f168201915b505050505090806003018054612dd890614f6d565b80601f0160208091040260200160405190810160405280929190818152602001828054612e0490614f6d565b8015612e515780601f10612e2657610100808354040283529160200191612e51565b820191906000526020600020905b815481529060010190602001808311612e3457829003601f168201915b505050505090806004018054612e6690614f6d565b80601f0160208091040260200160405190810160405280929190818152602001828054612e9290614f6d565b8015612edf5780601f10612eb457610100808354040283529160200191612edf565b820191906000526020600020905b815481529060010190602001808311612ec257829003601f168201915b5050505050908060050160009054906101000a900460ff16908060050160019054906101000a900473ffffffffffffffffffffffffffffffffffffffff16905087565b6001602052806000526040600020600091509050806000015490806001018054612f4b90614f6d565b80601f0160208091040260200160405190810160405280929190818152602001828054612f7790614f6d565b8015612fc45780601f10612f9957610100808354040283529160200191612fc4565b820191906000526020600020905b815481529060010190602001808311612fa757829003601f168201915b505050505090806002018054612fd990614f6d565b80601f016020809104026020016040519081016040528092919081815260200182805461300590614f6d565b80156130525780601f1061302757610100808354040283529160200191613052565b820191906000526020600020905b81548152906001019060200180831161303557829003601f168201915b50505050509080600301805461306790614f6d565b80601f016020809104026020016040519081016040528092919081815260200182805461309390614f6d565b80156130e05780601f106130b5576101008083540402835291602001916130e0565b820191906000526020600020905b8154815290600101906020018083116130c357829003601f168201915b5050505050908060040180546130f590614f6d565b80601f016020809104026020016040519081016040528092919081815260200182805461312190614f6d565b801561316e5780601f106131435761010080835404028352916020019161316e565b820191906000526020600020905b81548152906001019060200180831161315157829003601f168201915b5050505050908060050160009054906101000a900460ff16908060050160019054906101000a900473ffffffffffffffffffffffffffffffffffffffff16905087565b60095481565b600c54600b6000600c5481526020019081526020016000206000018190555083600b6000600c5481526020019081526020016000206001019080519060200190613202929190613b92565b5082600281111561321657613215614042565b5b600b6000600c54815260200190815260200160002060020160006101000a81548160ff021916908360028111156132505761324f614042565b5b021790555081600481111561326857613267614042565b5b600b6000600c54815260200190815260200160002060020160016101000a81548160ff021916908360048111156132a2576132a1614042565b5b021790555080600b6000600c54815260200190815260200160002060020160026101000a81548173ffffffffffffffffffffffffffffffffffffffff021916908373ffffffffffffffffffffffffffffffffffffffff160217905550600460009054906101000a900473ffffffffffffffffffffffffffffffffffffffff16600b6000600c54815260200190815260200160002060030160006101000a81548173ffffffffffffffffffffffffffffffffffffffff021916908373ffffffffffffffffffffffffffffffffffffffff1602179055507f384425faf43fd1f730f8ae6503cf1641e4c13931dfe4409d227bd9c1b73f2a95600c54858560028111156133af576133ae614042565b5b8560048111156133c2576133c1614042565b5b85600460009054906101000a900473ffffffffffffffffffffffffffffffffffffffff16426040516133fa97969594939291906151f8565b60405180910390a1600d6040518060c00160405280600c5481526020018681526020018560028111156134305761342f614042565b5b600281111561344257613441614042565b5b815260200184600481111561345a57613459614042565b5b600481111561346c5761346b614042565b5b81526020018373ffffffffffffffffffffffffffffffffffffffff168152602001600460009054906101000a900473ffffffffffffffffffffffffffffffffffffffff1673ffffffffffffffffffffffffffffffffffffffff168152509080600181540180825580915050600190039060005260206000209060040201600090919091909150600082015181600001556020820151816001019080519060200190613518929190613b92565b5060408201518160020160006101000a81548160ff0219169083600281111561354457613543614042565b5b021790555060608201518160020160016101000a81548160ff0219169083600481111561357457613573614042565b5b021790555060808201518160020160026101000a81548173ffffffffffffffffffffffffffffffffffffffff021916908373ffffffffffffffffffffffffffffffffffffffff16021790555060a08201518160030160006101000a81548173ffffffffffffffffffffffffffffffffffffffff021916908373ffffffffffffffffffffffffffffffffffffffff1602179055505050600c600081548092919061361c90614ef5565b919050555050505050565b60035481565b60606002805480602002602001604051908101604052809291908181526020016000905b8282101561396657838290600052602060002090600602016040518060e00160405290816000820154815260200160018201805461368e90614f6d565b80601f01602080910402602001604051908101604052809291908181526020018280546136ba90614f6d565b80156137075780601f106136dc57610100808354040283529160200191613707565b820191906000526020600020905b8154815290600101906020018083116136ea57829003601f168201915b5050505050815260200160028201805461372090614f6d565b80601f016020809104026020016040519081016040528092919081815260200182805461374c90614f6d565b80156137995780601f1061376e57610100808354040283529160200191613799565b820191906000526020600020905b81548152906001019060200180831161377c57829003601f168201915b505050505081526020016003820180546137b290614f6d565b80601f01602080910402602001604051908101604052809291908181526020018280546137de90614f6d565b801561382b5780601f106138005761010080835404028352916020019161382b565b820191906000526020600020905b81548152906001019060200180831161380e57829003601f168201915b5050505050815260200160048201805461384490614f6d565b80601f016020809104026020016040519081016040528092919081815260200182805461387090614f6d565b80156138bd5780601f10613892576101008083540402835291602001916138bd565b820191906000526020600020905b8154815290600101906020018083116138a057829003601f168201915b505050505081526020016005820160009054906101000a900460ff1660038111156138eb576138ea614042565b5b60038111156138fd576138fc614042565b5b81526020016005820160019054906101000a900473ffffffffffffffffffffffffffffffffffffffff1673ffffffffffffffffffffffffffffffffffffffff1673ffffffffffffffffffffffffffffffffffffffff168152505081526020019060010190613651565b50505050905090565b6060600d805480602002602001604051908101604052809291908181526020016000905b82821015613b8357838290600052602060002090600402016040518060c0016040529081600082015481526020016001820180546139d090614f6d565b80601f01602080910402602001604051908101604052809291908181526020018280546139fc90614f6d565b8015613a495780601f10613a1e57610100808354040283529160200191613a49565b820191906000526020600020905b815481529060010190602001808311613a2c57829003601f168201915b505050505081526020016002820160009054906101000a900460ff166002811115613a7757613a76614042565b5b6002811115613a8957613a88614042565b5b81526020016002820160019054906101000a900460ff166004811115613ab257613ab1614042565b5b6004811115613ac457613ac3614042565b5b81526020016002820160029054906101000a900473ffffffffffffffffffffffffffffffffffffffff1673ffffffffffffffffffffffffffffffffffffffff1673ffffffffffffffffffffffffffffffffffffffff1681526020016003820160009054906101000a900473ffffffffffffffffffffffffffffffffffffffff1673ffffffffffffffffffffffffffffffffffffffff1673ffffffffffffffffffffffffffffffffffffffff168152505081526020019060010190613993565b50505050905090565b60065481565b828054613b9e90614f6d565b90600052602060002090601f016020900481019282613bc05760008555613c07565b82601f10613bd957805160ff1916838001178555613c07565b82800160010185558215613c07579182015b82811115613c06578251825591602001919060010190613beb565b5b509050613c149190613cf1565b5090565b6040518060c00160405280600081526020016060815260200160006004811115613c4557613c44614042565b5b815260200160608152602001600073ffffffffffffffffffffffffffffffffffffffff168152602001600073ffffffffffffffffffffffffffffffffffffffff1681525090565b6040518060e00160405280600081526020016060815260200160608152602001606081526020016060815260200160006003811115613cce57613ccd614042565b5b8152602001600073ffffffffffffffffffffffffffffffffffffffff1681525090565b5b80821115613d0a576000816000905550600101613cf2565b5090565b6000604051905090565b600080fd5b600080fd5b600080fd5b600080fd5b6000601f19601f8301169050919050565b7f4e487b7100000000000000000000000000000000000000000000000000000000600052604160045260246000fd5b613d7582613d2c565b810181811067ffffffffffffffff82111715613d9457613d93613d3d565b5b80604052505050565b6000613da7613d0e565b9050613db38282613d6c565b919050565b600067ffffffffffffffff821115613dd357613dd2613d3d565b5b613ddc82613d2c565b9050602081019050919050565b82818337600083830152505050565b6000613e0b613e0684613db8565b613d9d565b905082815260208101848484011115613e2757613e26613d27565b5b613e32848285613de9565b509392505050565b600082601f830112613e4f57613e4e613d22565b5b8135613e5f848260208601613df8565b91505092915050565b6000819050919050565b613e7b81613e68565b8114613e8657600080fd5b50565b600081359050613e9881613e72565b92915050565b600073ffffffffffffffffffffffffffffffffffffffff82169050919050565b6000613ec982613e9e565b9050919050565b613ed981613ebe565b8114613ee457600080fd5b50565b600081359050613ef681613ed0565b92915050565b60008060008060808587031215613f1657613f15613d18565b5b600085013567ffffffffffffffff811115613f3457613f33613d1d565b5b613f4087828801613e3a565b9450506020613f5187828801613e89565b9350506040613f6287828801613e89565b9250506060613f7387828801613ee7565b91505092959194509250565b600081519050919050565b600082825260208201905092915050565b6000819050602082019050919050565b613fb481613e68565b82525050565b600081519050919050565b600082825260208201905092915050565b60005b83811015613ff4578082015181840152602081019050613fd9565b83811115614003576000848401525b50505050565b600061401482613fba565b61401e8185613fc5565b935061402e818560208601613fd6565b61403781613d2c565b840191505092915050565b7f4e487b7100000000000000000000000000000000000000000000000000000000600052602160045260246000fd5b6005811061408257614081614042565b5b50565b600081905061409382614071565b919050565b60006140a382614085565b9050919050565b6140b381614098565b82525050565b600381106140ca576140c9614042565b5b50565b60008190506140db826140b9565b919050565b60006140eb826140cd565b9050919050565b6140fb816140e0565b82525050565b61410a81613ebe565b82525050565b600060e0830160008301516141286000860182613fab565b50602083015184820360208601526141408282614009565b9150506040830151848203604086015261415a8282614009565b915050606083015161416f60608601826140aa565b50608083015161418260808601826140f2565b5060a083015161419560a0860182614101565b5060c08301516141a860c0860182614101565b508091505092915050565b60006141bf8383614110565b905092915050565b6000602082019050919050565b60006141df82613f7f565b6141e98185613f8a565b9350836020820285016141fb85613f9b565b8060005b85811015614237578484038952815161421885826141b3565b9450614223836141c7565b925060208a019950506001810190506141ff565b50829750879550505050505092915050565b6000602082019050818103600083015261426381846141d4565b905092915050565b60006020828403121561428157614280613d18565b5b600061428f84828501613ee7565b91505092915050565b600060c0830160008301516142b06000860182613fab565b50602083015184820360208601526142c88282614009565b91505060408301516142dd60408601826140aa565b50606083015184820360608601526142f58282614009565b915050608083015161430a6080860182614101565b5060a083015161431d60a0860182614101565b508091505092915050565b600060208201905081810360008301526143428184614298565b905092915050565b6000602082840312156143605761435f613d18565b5b600061436e84828501613e89565b91505092915050565b61438081613e68565b82525050565b600082825260208201905092915050565b60006143a282613fba565b6143ac8185614386565b93506143bc818560208601613fd6565b6143c581613d2c565b840191505092915050565b6143d981614098565b82525050565b6143e881613ebe565b82525050565b600060c0820190506144036000830189614377565b81810360208301526144158188614397565b905061442460408301876143d0565b81810360608301526144368186614397565b905061444560808301856143df565b61445260a08301846143df565b979650505050505050565b6000806040838503121561447457614473613d18565b5b600061448285828601613e89565b925050602061449385828601613e89565b9150509250929050565b600481106144ae576144ad614042565b5b50565b60008190506144bf8261449d565b919050565b60006144cf826144b1565b9050919050565b6144df816144c4565b82525050565b600060e0830160008301516144fd6000860182613fab565b50602083015184820360208601526145158282614009565b9150506040830151848203604086015261452f8282614009565b915050606083015184820360608601526145498282614009565b915050608083015184820360808601526145638282614009565b91505060a083015161457860a08601826144d6565b5060c083015161458b60c0860182614101565b508091505092915050565b600060208201905081810360008301526145b081846144e5565b905092915050565b6145c1816140e0565b82525050565b600060e0820190506145dc600083018a614377565b81810360208301526145ee8189614397565b905081810360408301526146028188614397565b905061461160608301876143d0565b61461e60808301866145b8565b61462b60a08301856143df565b61463860c08301846143df565b98975050505050505050565b60006020820190506146596000830184614377565b92915050565b60008060006060848603121561467857614677613d18565b5b600084013567ffffffffffffffff81111561469657614695613d1d565b5b6146a286828701613e3a565b93505060206146b386828701613e89565b925050604084013567ffffffffffffffff8111156146d4576146d3613d1d565b5b6146e086828701613e3a565b9150509250925092565b600081519050919050565b600082825260208201905092915050565b6000819050602082019050919050565b600060c08301600083015161472e6000860182613fab565b50602083015184820360208601526147468282614009565b915050604083015161475b60408601826140aa565b50606083015184820360608601526147738282614009565b91505060808301516147886080860182614101565b5060a083015161479b60a0860182614101565b508091505092915050565b60006147b28383614716565b905092915050565b6000602082019050919050565b60006147d2826146ea565b6147dc81856146f5565b9350836020820285016147ee85614706565b8060005b8581101561482a578484038952815161480b85826147a6565b9450614816836147ba565b925060208a019950506001810190506147f2565b50829750879550505050505092915050565b6000602082019050818103600083015261485681846147c7565b905092915050565b600060c0820190506148736000830189614377565b81810360208301526148858188614397565b905061489460408301876145b8565b6148a160608301866143d0565b6148ae60808301856143df565b6148bb60a08301846143df565b979650505050505050565b600080604083850312156148dd576148dc613d18565b5b600083013567ffffffffffffffff8111156148fb576148fa613d1d565b5b61490785828601613e3a565b925050602061491885828601613e89565b9150509250929050565b600060208201905061493760008301846143df565b92915050565b6000806040838503121561495457614953613d18565b5b600061496285828601613e89565b925050602061497385828601613ee7565b9150509250929050565b60008060008060008060c0878903121561499a57614999613d18565b5b600087013567ffffffffffffffff8111156149b8576149b7613d1d565b5b6149c489828a01613e3a565b965050602087013567ffffffffffffffff8111156149e5576149e4613d1d565b5b6149f189828a01613e3a565b955050604087013567ffffffffffffffff811115614a1257614a11613d1d565b5b614a1e89828a01613e3a565b945050606087013567ffffffffffffffff811115614a3f57614a3e613d1d565b5b614a4b89828a01613e3a565b9350506080614a5c89828a01613e89565b92505060a0614a6d89828a01613ee7565b9150509295509295509295565b614a83816144c4565b82525050565b600060e082019050614a9e600083018a614377565b8181036020830152614ab08189614397565b90508181036040830152614ac48188614397565b90508181036060830152614ad88187614397565b90508181036080830152614aec8186614397565b9050614afb60a0830185614a7a565b614b0860c08301846143df565b98975050505050505050565b600081519050919050565b600082825260208201905092915050565b6000819050602082019050919050565b600060e083016000830151614b586000860182613fab565b5060208301518482036020860152614b708282614009565b91505060408301518482036040860152614b8a8282614009565b91505060608301518482036060860152614ba48282614009565b91505060808301518482036080860152614bbe8282614009565b91505060a0830151614bd360a08601826144d6565b5060c0830151614be660c0860182614101565b508091505092915050565b6000614bfd8383614b40565b905092915050565b6000602082019050919050565b6000614c1d82614b14565b614c278185614b1f565b935083602082028501614c3985614b30565b8060005b85811015614c755784840389528151614c568582614bf1565b9450614c6183614c05565b925060208a01995050600181019050614c3d565b50829750879550505050505092915050565b60006020820190508181036000830152614ca18184614c12565b905092915050565b600081519050919050565b600082825260208201905092915050565b6000819050602082019050919050565b600060c083016000830151614ced6000860182613fab565b5060208301518482036020860152614d058282614009565b9150506040830151614d1a60408601826140f2565b506060830151614d2d60608601826140aa565b506080830151614d406080860182614101565b5060a0830151614d5360a0860182614101565b508091505092915050565b6000614d6a8383614cd5565b905092915050565b6000602082019050919050565b6000614d8a82614ca9565b614d948185614cb4565b935083602082028501614da685614cc5565b8060005b85811015614de25784840389528151614dc38582614d5e565b9450614dce83614d72565b925060208a01995050600181019050614daa565b50829750879550505050505092915050565b60006020820190508181036000830152614e0e8184614d7f565b905092915050565b50565b6000614e26600083614386565b9150614e3182614e16565b600082019050919050565b600061010082019050614e52600083018a614377565b8181036020830152614e648189614397565b90508181036040830152614e7781614e19565b9050614e8660608301886143d0565b614e9360808301876145b8565b614ea060a08301866143df565b614ead60c08301856143df565b614eba60e0830184614377565b98975050505050505050565b7f4e487b7100000000000000000000000000000000000000000000000000000000600052601160045260246000fd5b6000614f0082613e68565b91507fffffffffffffffffffffffffffffffffffffffffffffffffffffffffffffffff821415614f3357614f32614ec6565b5b600182019050919050565b7f4e487b7100000000000000000000000000000000000000000000000000000000600052602260045260246000fd5b60006002820490506001821680614f8557607f821691505b60208210811415614f9957614f98614f3e565b5b50919050565b7f4e487b7100000000000000000000000000000000000000000000000000000000600052603260045260246000fd5b600060e082019050614fe3600083018a614377565b8181036020830152614ff58189614397565b905061500460408301886143d0565b81810360608301526150168187614397565b905061502560808301866143df565b61503260a08301856143df565b61503f60c0830184614377565b98975050505050505050565b600081905092915050565b600061506182613fba565b61506b818561504b565b935061507b818560208601613fd6565b80840191505092915050565b60008160601b9050919050565b600061509f82615087565b9050919050565b60006150b182615094565b9050919050565b6150c96150c482613ebe565b6150a6565b82525050565b6000819050919050565b6150ea6150e582613e68565b6150cf565b82525050565b60006150fc8286615056565b915061510882856150b8565b60148201915061511882846150d9565b602082019150819050949350505050565b7f596f7520617265206e6f7420616e206f776e6572000000000000000000000000600082015250565b600061515f601483614386565b915061516a82615129565b602082019050919050565b6000602082019050818103600083015261518e81615152565b9050919050565b60006151a18284615056565b915081905092915050565b600060608201905081810360008301526151c68186614397565b905081810360208301526151da8185614397565b905081810360408301526151ee8184614397565b9050949350505050565b600060e08201905061520d600083018a614377565b818103602083015261521f8189614397565b905061522e60408301886145b8565b61523b60608301876143d0565b61524860808301866143df565b61525560a08301856143df565b61526260c0830184614377565b9897505050505050505056fea26469706673582212201798b4f3ee776ef0e2ebf835c89793723333e7e2b6153e0a1adfa43733cb62f764736f6c634300080a0033",
  "immutableReferences": {},
  "source": "// SPDX-License-Identifier: MIT\r\npragma solidity >=0.8.0 <0.9.0;\r\n\r\nimport \"./UserChain.sol\";\r\nimport \"./CompanyChain.sol\";\r\nimport \"./SupervisorChain.sol\";\r\n\r\nimport \"./SharedChain.sol\";\r\n\r\n// Put constraints on the app based on role not address......\r\n\r\ncontract ProjectChain is UserChain, SharedChain {\r\n    string constant HASH_STRING_VALUE = \"csd?S@salas;dlA234_D.;s_as\";\r\n    address _projectInitiator;\r\n\r\n    // Project Contract Data\r\n    mapping(address => Project) public projects;\r\n    uint public projectsCounter = 0;\r\n    Project[] public allProjects;\r\n\r\n    mapping(address => ProjectRequest) public projectRequests;\r\n    uint public projectRequestsCounter = 0;\r\n    ProjectRequest[] public allProjectRequests;\r\n\r\n    constructor() {\r\n        _projectInitiator = msg.sender;\r\n    }\r\n\r\n    modifier onlyProjectInitiator {\r\n        require(users[_projectInitiator]._role == Roles.ProjectInitiator, \"You don't have the rights for this resources.\");\r\n        require(_projectInitiator == msg.sender, \"You are not a project initiator\");\r\n        _;\r\n    }\r\n\r\n    function createUniqueHexAddress(string memory _text, uint _index) public view returns (address) {\r\n        return address(uint160(uint256(keccak256(abi.encodePacked(_text, _projectInitiator, _index)))));\r\n    }\r\n\r\n    function createProject(string memory _name, uint _status, string memory _ipfsFileCID) public {\r\n        address _projectAddress = createUniqueHexAddress(HASH_STRING_VALUE, projectsCounter);\r\n\r\n        projects[_projectAddress]._index = projectsCounter;\r\n        projects[_projectAddress]._name = _name;\r\n        projects[_projectAddress]._status = ProjectStatus(_status);\r\n        projects[_projectAddress]._ipfsFileCID = _ipfsFileCID;\r\n        projects[_projectAddress]._projectAddress = _projectAddress;\r\n        projects[_projectAddress]._userAddress = _projectInitiator;\r\n\r\n        emit ProjectEvent(projectsCounter, _name, ProjectStatus(_status), _ipfsFileCID, _projectAddress, _projectInitiator, block.timestamp);\r\n        allProjects.push(Project(projectsCounter, _name, ProjectStatus(_status), _ipfsFileCID, _projectAddress, _projectInitiator));\r\n        projectsCounter++;\r\n    }\r\n\r\n    function getProjectInfo(address _address) public view returns (Project memory) {\r\n        return projects[_address];\r\n    }\r\n\r\n    function getAllProjects() public view returns(Project[] memory) {\r\n        return allProjects;\r\n    }\r\n\r\n    function createProjectRequest(\r\n        string memory _title, uint _status,\r\n        uint _requestStatus, address _projectAddress\r\n    ) public {\r\n        projectRequests[_projectAddress]._index = projectRequestsCounter;\r\n        projectRequests[_projectAddress]._title = _title;\r\n        projectRequests[_projectAddress]._comments = '';\r\n        projectRequests[_projectAddress]._status = ProjectStatus(_status);\r\n        projectRequests[_projectAddress]._requestStatus = RequestStatus(_requestStatus);\r\n        projectRequests[_projectAddress]._projectAddress = _projectAddress;\r\n        projectRequests[_projectAddress]._userAddress = _projectInitiator;\r\n\r\n        createRequest(_title, _status, _requestStatus, _projectAddress);\r\n\r\n        emit ProjectRequestEvent(projectRequestsCounter, _title, '', ProjectStatus(_status), RequestStatus(_requestStatus), _projectAddress, _projectInitiator, block.timestamp);\r\n        allProjectRequests.push(ProjectRequest(projectRequestsCounter, _title, '', ProjectStatus(_status), RequestStatus(_requestStatus), _projectAddress, _projectInitiator));\r\n        projectRequestsCounter++;\r\n    }\r\n\r\n    function getAllProjectRequests() external view returns(ProjectRequest[] memory) {\r\n        return allProjectRequests;\r\n    }\r\n\r\n    // They will be filter after the status of the requests\r\n    mapping(uint => Request) public requests;\r\n    uint public requestsCounter = 0;\r\n    Request[] public allRequests;\r\n\r\n    function createRequest(\r\n        string memory _title,\r\n        uint _requestStatus,\r\n        uint _projectStatus,\r\n        address _projectAddress\r\n    ) public {\r\n        requests[requestsCounter]._index = requestsCounter;\r\n        requests[requestsCounter]._title = _title;\r\n        requests[requestsCounter]._requestStatus = RequestStatus(_requestStatus);\r\n        requests[requestsCounter]._projectStatus = ProjectStatus(_projectStatus);\r\n        requests[requestsCounter]._projectAddress = _projectAddress;\r\n        // change to supervisorAddress\r\n        requests[requestsCounter]._userAddress = _projectInitiator;\r\n\r\n        emit RequestEvent(requestsCounter, _title, RequestStatus(_requestStatus), ProjectStatus(_projectStatus), _projectAddress, _projectInitiator, block.timestamp);\r\n        allRequests.push(Request(requestsCounter, _title,  RequestStatus(_requestStatus), ProjectStatus(_projectStatus), _projectAddress, _projectInitiator));\r\n        requestsCounter++;\r\n    }\r\n\r\n    function updateRequest(uint _requestStatus, uint _index) public {\r\n        requests[_index]._requestStatus = RequestStatus(_requestStatus);\r\n        uint index = requests[_index]._index;\r\n        allRequests[index]._requestStatus = RequestStatus(_requestStatus);\r\n    }\r\n\r\n    function getAllRequests() public view returns(Request[] memory) {\r\n        return allRequests;\r\n    }\r\n\r\n}\r\n",
  "sourcePath": "/mnt/c/users/beniamin/source/repos/dissertationproject/contracts/ProjectChain.sol",
  "compiler": {
    "name": "solc",
    "version": "0.8.10+commit.fc410830.Emscripten.clang"
  },
  "schemaVersion": "3.4.3",
  "updatedAt": "2021-11-21T08:14:13.015Z",
  "networkType": "ethereum",
  "devdoc": {
    "kind": "dev",
    "methods": {},
    "version": 1
  },
  "userdoc": {
    "kind": "user",
    "methods": {},
    "version": 1
  }
}