{
  "contractName": "ProjectChain",
  "abi": [
    {
      "inputs": [],
      "stateMutability": "nonpayable",
      "type": "constructor"
    },
    {
      "anonymous": false,
      "inputs": [
        {
          "indexed": false,
          "internalType": "uint256",
          "name": "_index",
          "type": "uint256"
        },
        {
          "indexed": false,
          "internalType": "bytes32",
          "name": "_name",
          "type": "bytes32"
        },
        {
          "indexed": false,
          "internalType": "enum SharedChain.ProjectStatus",
          "name": "_status",
          "type": "uint8"
        },
        {
          "indexed": false,
          "internalType": "string",
          "name": "_ipfsFileCID",
          "type": "string"
        },
        {
          "indexed": false,
          "internalType": "address",
          "name": "_projectAddress",
          "type": "address"
        },
        {
          "indexed": false,
          "internalType": "address",
          "name": "_userAddress",
          "type": "address"
        },
        {
          "indexed": false,
          "internalType": "uint256",
          "name": "_timestamp",
          "type": "uint256"
        }
      ],
      "name": "ProjectEvent",
      "type": "event"
    },
    {
      "anonymous": false,
      "inputs": [
        {
          "indexed": false,
          "internalType": "uint256",
          "name": "_index",
          "type": "uint256"
        },
        {
          "indexed": false,
          "internalType": "bytes32",
          "name": "_title",
          "type": "bytes32"
        },
        {
          "indexed": false,
          "internalType": "string",
          "name": "_comments",
          "type": "string"
        },
        {
          "indexed": false,
          "internalType": "enum SharedChain.ProjectStatus",
          "name": "_status",
          "type": "uint8"
        },
        {
          "indexed": false,
          "internalType": "enum SharedChain.RequestStatus",
          "name": "_requestStatus",
          "type": "uint8"
        },
        {
          "indexed": false,
          "internalType": "address",
          "name": "_projectAddress",
          "type": "address"
        },
        {
          "indexed": false,
          "internalType": "address",
          "name": "_userAddress",
          "type": "address"
        },
        {
          "indexed": false,
          "internalType": "uint256",
          "name": "_timestamp",
          "type": "uint256"
        }
      ],
      "name": "ProjectRequestEvent",
      "type": "event"
    },
    {
      "anonymous": false,
      "inputs": [
        {
          "indexed": false,
          "internalType": "uint256",
          "name": "_index",
          "type": "uint256"
        },
        {
          "indexed": false,
          "internalType": "uint256",
          "name": "_indexProjectRequest",
          "type": "uint256"
        },
        {
          "indexed": false,
          "internalType": "bytes32",
          "name": "_title",
          "type": "bytes32"
        },
        {
          "indexed": false,
          "internalType": "enum SharedChain.RequestStatus",
          "name": "_status",
          "type": "uint8"
        },
        {
          "indexed": false,
          "internalType": "enum SharedChain.ProjectStatus",
          "name": "_projectStatus",
          "type": "uint8"
        },
        {
          "indexed": false,
          "internalType": "enum SharedChain.RequestType",
          "name": "_requestType",
          "type": "uint8"
        },
        {
          "indexed": false,
          "internalType": "address",
          "name": "_projectAddress",
          "type": "address"
        },
        {
          "indexed": false,
          "internalType": "address",
          "name": "_userAddress",
          "type": "address"
        },
        {
          "indexed": false,
          "internalType": "uint256",
          "name": "_timestamp",
          "type": "uint256"
        }
      ],
      "name": "RequestEvent",
      "type": "event"
    },
    {
      "anonymous": false,
      "inputs": [
        {
          "indexed": true,
          "internalType": "address",
          "name": "_walletAddress",
          "type": "address"
        },
        {
          "indexed": true,
          "internalType": "string",
          "name": "_username",
          "type": "string"
        },
        {
          "indexed": false,
          "internalType": "bytes32",
          "name": "_email",
          "type": "bytes32"
        },
        {
          "indexed": false,
          "internalType": "bytes32",
          "name": "_firstname",
          "type": "bytes32"
        },
        {
          "indexed": false,
          "internalType": "bytes32",
          "name": "_lastname",
          "type": "bytes32"
        },
        {
          "indexed": true,
          "internalType": "enum UserChain.Roles",
          "name": "_role",
          "type": "uint8"
        }
      ],
      "name": "UserEvent",
      "type": "event"
    },
    {
      "inputs": [
        {
          "internalType": "uint256",
          "name": "",
          "type": "uint256"
        }
      ],
      "name": "allProjectRequests",
      "outputs": [
        {
          "internalType": "uint256",
          "name": "_index",
          "type": "uint256"
        },
        {
          "internalType": "bytes32",
          "name": "_title",
          "type": "bytes32"
        },
        {
          "internalType": "string",
          "name": "_comments",
          "type": "string"
        },
        {
          "internalType": "enum SharedChain.ProjectStatus",
          "name": "_status",
          "type": "uint8"
        },
        {
          "internalType": "enum SharedChain.RequestStatus",
          "name": "_requestStatus",
          "type": "uint8"
        },
        {
          "internalType": "address",
          "name": "_projectAddress",
          "type": "address"
        },
        {
          "internalType": "address",
          "name": "_userAddress",
          "type": "address"
        }
      ],
      "stateMutability": "view",
      "type": "function",
      "constant": true
    },
    {
      "inputs": [
        {
          "internalType": "uint256",
          "name": "",
          "type": "uint256"
        }
      ],
      "name": "allProjects",
      "outputs": [
        {
          "internalType": "uint256",
          "name": "_index",
          "type": "uint256"
        },
        {
          "internalType": "bytes32",
          "name": "_name",
          "type": "bytes32"
        },
        {
          "internalType": "enum SharedChain.ProjectStatus",
          "name": "_status",
          "type": "uint8"
        },
        {
          "internalType": "string",
          "name": "_ipfsFileCID",
          "type": "string"
        },
        {
          "internalType": "address",
          "name": "_projectAddress",
          "type": "address"
        },
        {
          "internalType": "address",
          "name": "_userAddress",
          "type": "address"
        }
      ],
      "stateMutability": "view",
      "type": "function",
      "constant": true
    },
    {
      "inputs": [
        {
          "internalType": "uint256",
          "name": "",
          "type": "uint256"
        }
      ],
      "name": "allRequests",
      "outputs": [
        {
          "internalType": "uint256",
          "name": "_index",
          "type": "uint256"
        },
        {
          "internalType": "uint256",
          "name": "_indexProjectRequest",
          "type": "uint256"
        },
        {
          "internalType": "bytes32",
          "name": "_title",
          "type": "bytes32"
        },
        {
          "internalType": "enum SharedChain.RequestStatus",
          "name": "_requestStatus",
          "type": "uint8"
        },
        {
          "internalType": "enum SharedChain.ProjectStatus",
          "name": "_projectStatus",
          "type": "uint8"
        },
        {
          "internalType": "enum SharedChain.RequestType",
          "name": "_requestType",
          "type": "uint8"
        },
        {
          "internalType": "address",
          "name": "_projectAddress",
          "type": "address"
        },
        {
          "internalType": "address",
          "name": "_userAddress",
          "type": "address"
        }
      ],
      "stateMutability": "view",
      "type": "function",
      "constant": true
    },
    {
      "inputs": [
        {
          "internalType": "uint256",
          "name": "",
          "type": "uint256"
        }
      ],
      "name": "allUsers",
      "outputs": [
        {
          "internalType": "uint256",
          "name": "_index",
          "type": "uint256"
        },
        {
          "internalType": "string",
          "name": "_username",
          "type": "string"
        },
        {
          "internalType": "bytes32",
          "name": "_email",
          "type": "bytes32"
        },
        {
          "internalType": "bytes32",
          "name": "_firstname",
          "type": "bytes32"
        },
        {
          "internalType": "bytes32",
          "name": "_lastname",
          "type": "bytes32"
        },
        {
          "internalType": "enum UserChain.Roles",
          "name": "_role",
          "type": "uint8"
        },
        {
          "internalType": "address",
          "name": "_walletAddress",
          "type": "address"
        }
      ],
      "stateMutability": "view",
      "type": "function",
      "constant": true
    },
    {
      "inputs": [
        {
          "internalType": "uint256",
          "name": "_role",
          "type": "uint256"
        },
        {
          "internalType": "address",
          "name": "_walletAddress",
          "type": "address"
        }
      ],
      "name": "changeUserRole",
      "outputs": [],
      "stateMutability": "nonpayable",
      "type": "function"
    },
    {
      "inputs": [],
      "name": "getAllUsers",
      "outputs": [
        {
          "components": [
            {
              "internalType": "uint256",
              "name": "_index",
              "type": "uint256"
            },
            {
              "internalType": "string",
              "name": "_username",
              "type": "string"
            },
            {
              "internalType": "bytes32",
              "name": "_email",
              "type": "bytes32"
            },
            {
              "internalType": "bytes32",
              "name": "_firstname",
              "type": "bytes32"
            },
            {
              "internalType": "bytes32",
              "name": "_lastname",
              "type": "bytes32"
            },
            {
              "internalType": "enum UserChain.Roles",
              "name": "_role",
              "type": "uint8"
            },
            {
              "internalType": "address",
              "name": "_walletAddress",
              "type": "address"
            }
          ],
          "internalType": "struct UserChain.User[]",
          "name": "",
          "type": "tuple[]"
        }
      ],
      "stateMutability": "view",
      "type": "function",
      "constant": true
    },
    {
      "inputs": [
        {
          "internalType": "address",
          "name": "_walletAddress",
          "type": "address"
        }
      ],
      "name": "getUserInfo",
      "outputs": [
        {
          "components": [
            {
              "internalType": "uint256",
              "name": "_index",
              "type": "uint256"
            },
            {
              "internalType": "string",
              "name": "_username",
              "type": "string"
            },
            {
              "internalType": "bytes32",
              "name": "_email",
              "type": "bytes32"
            },
            {
              "internalType": "bytes32",
              "name": "_firstname",
              "type": "bytes32"
            },
            {
              "internalType": "bytes32",
              "name": "_lastname",
              "type": "bytes32"
            },
            {
              "internalType": "enum UserChain.Roles",
              "name": "_role",
              "type": "uint8"
            },
            {
              "internalType": "address",
              "name": "_walletAddress",
              "type": "address"
            }
          ],
          "internalType": "struct UserChain.User",
          "name": "",
          "type": "tuple"
        }
      ],
      "stateMutability": "view",
      "type": "function",
      "constant": true
    },
    {
      "inputs": [],
      "name": "owner",
      "outputs": [
        {
          "internalType": "address",
          "name": "",
          "type": "address"
        }
      ],
      "stateMutability": "view",
      "type": "function",
      "constant": true
    },
    {
      "inputs": [
        {
          "internalType": "uint256",
          "name": "",
          "type": "uint256"
        }
      ],
      "name": "projectRequests",
      "outputs": [
        {
          "internalType": "uint256",
          "name": "_index",
          "type": "uint256"
        },
        {
          "internalType": "bytes32",
          "name": "_title",
          "type": "bytes32"
        },
        {
          "internalType": "string",
          "name": "_comments",
          "type": "string"
        },
        {
          "internalType": "enum SharedChain.ProjectStatus",
          "name": "_status",
          "type": "uint8"
        },
        {
          "internalType": "enum SharedChain.RequestStatus",
          "name": "_requestStatus",
          "type": "uint8"
        },
        {
          "internalType": "address",
          "name": "_projectAddress",
          "type": "address"
        },
        {
          "internalType": "address",
          "name": "_userAddress",
          "type": "address"
        }
      ],
      "stateMutability": "view",
      "type": "function",
      "constant": true
    },
    {
      "inputs": [],
      "name": "projectRequestsCounter",
      "outputs": [
        {
          "internalType": "uint256",
          "name": "",
          "type": "uint256"
        }
      ],
      "stateMutability": "view",
      "type": "function",
      "constant": true
    },
    {
      "inputs": [
        {
          "internalType": "address",
          "name": "",
          "type": "address"
        }
      ],
      "name": "projects",
      "outputs": [
        {
          "internalType": "uint256",
          "name": "_index",
          "type": "uint256"
        },
        {
          "internalType": "bytes32",
          "name": "_name",
          "type": "bytes32"
        },
        {
          "internalType": "enum SharedChain.ProjectStatus",
          "name": "_status",
          "type": "uint8"
        },
        {
          "internalType": "string",
          "name": "_ipfsFileCID",
          "type": "string"
        },
        {
          "internalType": "address",
          "name": "_projectAddress",
          "type": "address"
        },
        {
          "internalType": "address",
          "name": "_userAddress",
          "type": "address"
        }
      ],
      "stateMutability": "view",
      "type": "function",
      "constant": true
    },
    {
      "inputs": [],
      "name": "projectsCounter",
      "outputs": [
        {
          "internalType": "uint256",
          "name": "",
          "type": "uint256"
        }
      ],
      "stateMutability": "view",
      "type": "function",
      "constant": true
    },
    {
      "inputs": [
        {
          "internalType": "string",
          "name": "_username",
          "type": "string"
        },
        {
          "internalType": "bytes32",
          "name": "_email",
          "type": "bytes32"
        },
        {
          "internalType": "bytes32",
          "name": "_firstname",
          "type": "bytes32"
        },
        {
          "internalType": "bytes32",
          "name": "_lastname",
          "type": "bytes32"
        },
        {
          "internalType": "uint256",
          "name": "_role",
          "type": "uint256"
        },
        {
          "internalType": "address",
          "name": "_walletAddress",
          "type": "address"
        }
      ],
      "name": "registerUser",
      "outputs": [],
      "stateMutability": "nonpayable",
      "type": "function"
    },
    {
      "inputs": [
        {
          "internalType": "uint256",
          "name": "",
          "type": "uint256"
        }
      ],
      "name": "requests",
      "outputs": [
        {
          "internalType": "uint256",
          "name": "_index",
          "type": "uint256"
        },
        {
          "internalType": "uint256",
          "name": "_indexProjectRequest",
          "type": "uint256"
        },
        {
          "internalType": "bytes32",
          "name": "_title",
          "type": "bytes32"
        },
        {
          "internalType": "enum SharedChain.RequestStatus",
          "name": "_requestStatus",
          "type": "uint8"
        },
        {
          "internalType": "enum SharedChain.ProjectStatus",
          "name": "_projectStatus",
          "type": "uint8"
        },
        {
          "internalType": "enum SharedChain.RequestType",
          "name": "_requestType",
          "type": "uint8"
        },
        {
          "internalType": "address",
          "name": "_projectAddress",
          "type": "address"
        },
        {
          "internalType": "address",
          "name": "_userAddress",
          "type": "address"
        }
      ],
      "stateMutability": "view",
      "type": "function",
      "constant": true
    },
    {
      "inputs": [],
      "name": "requestsCounter",
      "outputs": [
        {
          "internalType": "uint256",
          "name": "",
          "type": "uint256"
        }
      ],
      "stateMutability": "view",
      "type": "function",
      "constant": true
    },
    {
      "inputs": [
        {
          "internalType": "address",
          "name": "",
          "type": "address"
        }
      ],
      "name": "users",
      "outputs": [
        {
          "internalType": "uint256",
          "name": "_index",
          "type": "uint256"
        },
        {
          "internalType": "string",
          "name": "_username",
          "type": "string"
        },
        {
          "internalType": "bytes32",
          "name": "_email",
          "type": "bytes32"
        },
        {
          "internalType": "bytes32",
          "name": "_firstname",
          "type": "bytes32"
        },
        {
          "internalType": "bytes32",
          "name": "_lastname",
          "type": "bytes32"
        },
        {
          "internalType": "enum UserChain.Roles",
          "name": "_role",
          "type": "uint8"
        },
        {
          "internalType": "address",
          "name": "_walletAddress",
          "type": "address"
        }
      ],
      "stateMutability": "view",
      "type": "function",
      "constant": true
    },
    {
      "inputs": [],
      "name": "usersCounter",
      "outputs": [
        {
          "internalType": "uint256",
          "name": "",
          "type": "uint256"
        }
      ],
      "stateMutability": "view",
      "type": "function",
      "constant": true
    },
    {
      "inputs": [
        {
          "internalType": "string",
          "name": "_text",
          "type": "string"
        },
        {
          "internalType": "uint256",
          "name": "_index",
          "type": "uint256"
        }
      ],
      "name": "createUniqueHexAddress",
      "outputs": [
        {
          "internalType": "address",
          "name": "",
          "type": "address"
        }
      ],
      "stateMutability": "view",
      "type": "function",
      "constant": true
    },
    {
      "inputs": [
        {
          "internalType": "bytes32",
          "name": "_name",
          "type": "bytes32"
        },
        {
          "internalType": "uint256",
          "name": "_status",
          "type": "uint256"
        },
        {
          "internalType": "string",
          "name": "_ipfsFileCID",
          "type": "string"
        }
      ],
      "name": "createProject",
      "outputs": [],
      "stateMutability": "nonpayable",
      "type": "function"
    },
    {
      "inputs": [
        {
          "internalType": "address",
          "name": "_address",
          "type": "address"
        }
      ],
      "name": "getProjectInfo",
      "outputs": [
        {
          "components": [
            {
              "internalType": "uint256",
              "name": "_index",
              "type": "uint256"
            },
            {
              "internalType": "bytes32",
              "name": "_name",
              "type": "bytes32"
            },
            {
              "internalType": "enum SharedChain.ProjectStatus",
              "name": "_status",
              "type": "uint8"
            },
            {
              "internalType": "string",
              "name": "_ipfsFileCID",
              "type": "string"
            },
            {
              "internalType": "address",
              "name": "_projectAddress",
              "type": "address"
            },
            {
              "internalType": "address",
              "name": "_userAddress",
              "type": "address"
            }
          ],
          "internalType": "struct SharedChain.Project",
          "name": "",
          "type": "tuple"
        }
      ],
      "stateMutability": "view",
      "type": "function",
      "constant": true
    },
    {
      "inputs": [],
      "name": "getAllProjects",
      "outputs": [
        {
          "components": [
            {
              "internalType": "uint256",
              "name": "_index",
              "type": "uint256"
            },
            {
              "internalType": "bytes32",
              "name": "_name",
              "type": "bytes32"
            },
            {
              "internalType": "enum SharedChain.ProjectStatus",
              "name": "_status",
              "type": "uint8"
            },
            {
              "internalType": "string",
              "name": "_ipfsFileCID",
              "type": "string"
            },
            {
              "internalType": "address",
              "name": "_projectAddress",
              "type": "address"
            },
            {
              "internalType": "address",
              "name": "_userAddress",
              "type": "address"
            }
          ],
          "internalType": "struct SharedChain.Project[]",
          "name": "",
          "type": "tuple[]"
        }
      ],
      "stateMutability": "view",
      "type": "function",
      "constant": true
    },
    {
      "inputs": [
        {
          "internalType": "bytes32",
          "name": "_title",
          "type": "bytes32"
        },
        {
          "internalType": "uint256",
          "name": "_status",
          "type": "uint256"
        },
        {
          "internalType": "uint256",
          "name": "_requestStatus",
          "type": "uint256"
        },
        {
          "internalType": "address",
          "name": "_projectAddress",
          "type": "address"
        }
      ],
      "name": "createProjectRequest",
      "outputs": [],
      "stateMutability": "nonpayable",
      "type": "function"
    },
    {
      "inputs": [],
      "name": "getAllProjectRequests",
      "outputs": [
        {
          "components": [
            {
              "internalType": "uint256",
              "name": "_index",
              "type": "uint256"
            },
            {
              "internalType": "bytes32",
              "name": "_title",
              "type": "bytes32"
            },
            {
              "internalType": "string",
              "name": "_comments",
              "type": "string"
            },
            {
              "internalType": "enum SharedChain.ProjectStatus",
              "name": "_status",
              "type": "uint8"
            },
            {
              "internalType": "enum SharedChain.RequestStatus",
              "name": "_requestStatus",
              "type": "uint8"
            },
            {
              "internalType": "address",
              "name": "_projectAddress",
              "type": "address"
            },
            {
              "internalType": "address",
              "name": "_userAddress",
              "type": "address"
            }
          ],
          "internalType": "struct SharedChain.ProjectRequest[]",
          "name": "",
          "type": "tuple[]"
        }
      ],
      "stateMutability": "view",
      "type": "function",
      "constant": true
    },
    {
      "inputs": [
        {
          "internalType": "address",
          "name": "_projectAddress",
          "type": "address"
        }
      ],
      "name": "getLastProjectRequest",
      "outputs": [
        {
          "components": [
            {
              "internalType": "uint256",
              "name": "_index",
              "type": "uint256"
            },
            {
              "internalType": "bytes32",
              "name": "_title",
              "type": "bytes32"
            },
            {
              "internalType": "string",
              "name": "_comments",
              "type": "string"
            },
            {
              "internalType": "enum SharedChain.ProjectStatus",
              "name": "_status",
              "type": "uint8"
            },
            {
              "internalType": "enum SharedChain.RequestStatus",
              "name": "_requestStatus",
              "type": "uint8"
            },
            {
              "internalType": "address",
              "name": "_projectAddress",
              "type": "address"
            },
            {
              "internalType": "address",
              "name": "_userAddress",
              "type": "address"
            }
          ],
          "internalType": "struct SharedChain.ProjectRequest",
          "name": "",
          "type": "tuple"
        }
      ],
      "stateMutability": "view",
      "type": "function",
      "constant": true
    },
    {
      "inputs": [],
      "name": "getLastProjectRequestWorked",
      "outputs": [
        {
          "components": [
            {
              "internalType": "uint256",
              "name": "_index",
              "type": "uint256"
            },
            {
              "internalType": "bytes32",
              "name": "_title",
              "type": "bytes32"
            },
            {
              "internalType": "string",
              "name": "_comments",
              "type": "string"
            },
            {
              "internalType": "enum SharedChain.ProjectStatus",
              "name": "_status",
              "type": "uint8"
            },
            {
              "internalType": "enum SharedChain.RequestStatus",
              "name": "_requestStatus",
              "type": "uint8"
            },
            {
              "internalType": "address",
              "name": "_projectAddress",
              "type": "address"
            },
            {
              "internalType": "address",
              "name": "_userAddress",
              "type": "address"
            }
          ],
          "internalType": "struct SharedChain.ProjectRequest",
          "name": "",
          "type": "tuple"
        }
      ],
      "stateMutability": "view",
      "type": "function",
      "constant": true
    },
    {
      "inputs": [
        {
          "internalType": "uint256",
          "name": "_index",
          "type": "uint256"
        },
        {
          "internalType": "string",
          "name": "_comments",
          "type": "string"
        },
        {
          "internalType": "uint256",
          "name": "_requestStatus",
          "type": "uint256"
        },
        {
          "internalType": "uint256",
          "name": "_indexProjectRequest",
          "type": "uint256"
        },
        {
          "internalType": "uint256",
          "name": "_projectStatus",
          "type": "uint256"
        },
        {
          "internalType": "address",
          "name": "_projectAddress",
          "type": "address"
        }
      ],
      "name": "updateRequest",
      "outputs": [],
      "stateMutability": "nonpayable",
      "type": "function"
    },
    {
      "inputs": [],
      "name": "getAllRequests",
      "outputs": [
        {
          "components": [
            {
              "internalType": "uint256",
              "name": "_index",
              "type": "uint256"
            },
            {
              "internalType": "uint256",
              "name": "_indexProjectRequest",
              "type": "uint256"
            },
            {
              "internalType": "bytes32",
              "name": "_title",
              "type": "bytes32"
            },
            {
              "internalType": "enum SharedChain.RequestStatus",
              "name": "_requestStatus",
              "type": "uint8"
            },
            {
              "internalType": "enum SharedChain.ProjectStatus",
              "name": "_projectStatus",
              "type": "uint8"
            },
            {
              "internalType": "enum SharedChain.RequestType",
              "name": "_requestType",
              "type": "uint8"
            },
            {
              "internalType": "address",
              "name": "_projectAddress",
              "type": "address"
            },
            {
              "internalType": "address",
              "name": "_userAddress",
              "type": "address"
            }
          ],
          "internalType": "struct SharedChain.Request[]",
          "name": "",
          "type": "tuple[]"
        }
      ],
      "stateMutability": "view",
      "type": "function",
      "constant": true
    }
  ],
  "bytecode": "0x60806040526000600355600060065560006009556000600c5534801561002457600080fd5b50336000806101000a81548173ffffffffffffffffffffffffffffffffffffffff021916908373ffffffffffffffffffffffffffffffffffffffff16021790555033600460006101000a81548173ffffffffffffffffffffffffffffffffffffffff021916908373ffffffffffffffffffffffffffffffffffffffff1602179055506153e3806100b56000396000f3fe608060405234801561001057600080fd5b50600436106101a95760003560e01c80638da5cb5b116100f9578063cc1ee4db11610097578063e2842d7911610071578063e2842d7914610560578063e9fcdf101461057e578063fb1a002a1461059a578063fe360ea5146105b8576101a9565b8063cc1ee4db14610508578063cf13f5d414610526578063d67b1b9914610542576101a9565b8063a2bdedf4116100d3578063a2bdedf41461044a578063a87430ba14610480578063af1b7f49146104b6578063c19ded13146104d2576101a9565b80638da5cb5b146103d957806391009786146103f75780639bf4ec2f14610413576101a9565b80636386c1c71161016657806380d038291161014057806380d038291461031f57806381d12c581461033d578063840e78fd1461037457806384afb5bb146103a9576101a9565b80636386c1c71461029b578063663c2269146102cb5780637e571188146102e9576101a9565b80630b287892146101ae578063125c7325146101de5780633f47e37a146101fa578063400003db1461021857806347ee45b91461023657806353b3194c14610266575b600080fd5b6101c860048036038101906101c39190613cc1565b6105d6565b6040516101d59190613f23565b60405180910390f35b6101f860048036038101906101f391906140a6565b610987565b005b610202610cad565b60405161020f9190613f23565b60405180910390f35b610220610eb0565b60405161022d91906142ad565b60405180910390f35b610250600480360381019061024b9190613cc1565b6110d7565b60405161025d9190614358565b60405180910390f35b610280600480360381019061027b919061437a565b6112bd565b6040516102929695949392919061442d565b60405180910390f35b6102b560048036038101906102b09190613cc1565b6113de565b6040516102c29190614579565b60405180910390f35b6102d3611582565b6040516102e0919061459b565b60405180910390f35b61030360048036038101906102fe919061437a565b611588565b60405161031697969594939291906145c5565b60405180910390f35b6103276116bc565b6040516103349190614786565b60405180910390f35b6103576004803603810190610352919061437a565b6118a8565b60405161036b9897969594939291906147f0565b60405180910390f35b61038e60048036038101906103899190613cc1565b611957565b6040516103a09695949392919061442d565b60405180910390f35b6103c360048036038101906103be919061486e565b611a68565b6040516103d091906148ca565b60405180910390f35b6103e1611ac2565b6040516103ee91906148ca565b60405180910390f35b610411600480360381019061040c91906148e5565b611ae6565b005b61042d6004803603810190610428919061437a565b611da1565b6040516104419897969594939291906147f0565b60405180910390f35b610464600480360381019061045f919061437a565b611e60565b6040516104779796959493929190614934565b60405180910390f35b61049a60048036038101906104959190613cc1565b611f67565b6040516104ad9796959493929190614934565b60405180910390f35b6104d060048036038101906104cb91906149d6565b61205e565b005b6104ec60048036038101906104e7919061437a565b61257e565b6040516104ff97969594939291906145c5565b60405180910390f35b6105106126a2565b60405161051d919061459b565b60405180910390f35b610540600480360381019061053b9190614a45565b6126a8565b005b61054a612bad565b604051610557919061459b565b60405180910390f35b610568612bb3565b6040516105759190614c4c565b60405180910390f35b61059860048036038101906105939190614c6e565b612d5d565b005b6105a2613227565b6040516105af9190614e36565b60405180910390f35b6105c0613402565b6040516105cd919061459b565b60405180910390f35b6105de613a37565b6105e6613a37565b6000600a80549050111561097d5760006001600a805490506106089190614e87565b90505b6000811061097b57600a818154811061062757610626614ebb565b5b906000526020600020906005020160030160029054906101000a900473ffffffffffffffffffffffffffffffffffffffff1673ffffffffffffffffffffffffffffffffffffffff168473ffffffffffffffffffffffffffffffffffffffff16141561096857600a81815481106106a05761069f614ebb565b5b906000526020600020906005020160000154826000018181525050600a81815481106106cf576106ce614ebb565b5b906000526020600020906005020160010154826020018181525050600a81815481106106fe576106fd614ebb565b5b9060005260206000209060050201600201805461071a90614f19565b80601f016020809104026020016040519081016040528092919081815260200182805461074690614f19565b80156107935780601f1061076857610100808354040283529160200191610793565b820191906000526020600020905b81548152906001019060200180831161077657829003601f168201915b50505050508260400181905250600a81815481106107b4576107b3614ebb565b5b906000526020600020906005020160030160009054906101000a900460ff16826060019060048111156107ea576107e9613db9565b5b908160048111156107fe576107fd613db9565b5b81525050600a818154811061081657610815614ebb565b5b906000526020600020906005020160030160019054906101000a900460ff168260800190600281111561084c5761084b613db9565b5b908160028111156108605761085f613db9565b5b81525050600a818154811061087857610877614ebb565b5b906000526020600020906005020160030160029054906101000a900473ffffffffffffffffffffffffffffffffffffffff168260a0019073ffffffffffffffffffffffffffffffffffffffff16908173ffffffffffffffffffffffffffffffffffffffff1681525050600a81815481106108f5576108f4614ebb565b5b906000526020600020906005020160040160009054906101000a900473ffffffffffffffffffffffffffffffffffffffff168260c0019073ffffffffffffffffffffffffffffffffffffffff16908173ffffffffffffffffffffffffffffffffffffffff16815250508192505050610982565b808061097390614f4b565b91505061060b565b505b809150505b919050565b83600281111561099a57610999613db9565b5b600b600088815260200190815260200160002060030160006101000a81548160ff021916908360028111156109d2576109d1613db9565b5b02179055506000600b6000888152602001908152602001600020600001549050846002811115610a0557610a04613db9565b5b600d8281548110610a1957610a18614ebb565b5b906000526020600020906005020160030160006101000a81548160ff02191690836002811115610a4c57610a4b613db9565b5b021790555085600860008681526020019081526020016000206002019080519060200190610a7b929190613ac7565b50846002811115610a8f57610a8e613db9565b5b6008600086815260200190815260200160002060030160016101000a81548160ff02191690836002811115610ac757610ac6613db9565b5b021790555060006008600086815260200190815260200160002060000154905086600a8281548110610afc57610afb614ebb565b5b90600052602060002090600502016002019080519060200190610b20929190613ac7565b50856002811115610b3457610b33613db9565b5b600a8281548110610b4857610b47614ebb565b5b906000526020600020906005020160030160016101000a81548160ff02191690836002811115610b7b57610b7a613db9565b5b0217905550836004811115610b9357610b92613db9565b5b600560008573ffffffffffffffffffffffffffffffffffffffff1673ffffffffffffffffffffffffffffffffffffffff16815260200190815260200160002060020160006101000a81548160ff02191690836004811115610bf757610bf6613db9565b5b02179055506000600560008573ffffffffffffffffffffffffffffffffffffffff1673ffffffffffffffffffffffffffffffffffffffff168152602001908152602001600020600001549050846004811115610c5657610c55613db9565b5b60078281548110610c6a57610c69614ebb565b5b906000526020600020906006020160020160006101000a81548160ff02191690836004811115610c9d57610c9c613db9565b5b0217905550505050505050505050565b610cb5613a37565b600a600081548110610cca57610cc9614ebb565b5b90600052602060002090600502016040518060e00160405290816000820154815260200160018201548152602001600282018054610d0790614f19565b80601f0160208091040260200160405190810160405280929190818152602001828054610d3390614f19565b8015610d805780601f10610d5557610100808354040283529160200191610d80565b820191906000526020600020905b815481529060010190602001808311610d6357829003601f168201915b505050505081526020016003820160009054906101000a900460ff166004811115610dae57610dad613db9565b5b6004811115610dc057610dbf613db9565b5b81526020016003820160019054906101000a900460ff166002811115610de957610de8613db9565b5b6002811115610dfb57610dfa613db9565b5b81526020016003820160029054906101000a900473ffffffffffffffffffffffffffffffffffffffff1673ffffffffffffffffffffffffffffffffffffffff1673ffffffffffffffffffffffffffffffffffffffff1681526020016004820160009054906101000a900473ffffffffffffffffffffffffffffffffffffffff1673ffffffffffffffffffffffffffffffffffffffff1673ffffffffffffffffffffffffffffffffffffffff1681525050905090565b6060600a805480602002602001604051908101604052809291908181526020016000905b828210156110ce57838290600052602060002090600502016040518060e00160405290816000820154815260200160018201548152602001600282018054610f1b90614f19565b80601f0160208091040260200160405190810160405280929190818152602001828054610f4790614f19565b8015610f945780601f10610f6957610100808354040283529160200191610f94565b820191906000526020600020905b815481529060010190602001808311610f7757829003601f168201915b505050505081526020016003820160009054906101000a900460ff166004811115610fc257610fc1613db9565b5b6004811115610fd457610fd3613db9565b5b81526020016003820160019054906101000a900460ff166002811115610ffd57610ffc613db9565b5b600281111561100f5761100e613db9565b5b81526020016003820160029054906101000a900473ffffffffffffffffffffffffffffffffffffffff1673ffffffffffffffffffffffffffffffffffffffff1673ffffffffffffffffffffffffffffffffffffffff1681526020016004820160009054906101000a900473ffffffffffffffffffffffffffffffffffffffff1673ffffffffffffffffffffffffffffffffffffffff1673ffffffffffffffffffffffffffffffffffffffff168152505081526020019060010190610ed4565b50505050905090565b6110df613b4d565b600560008373ffffffffffffffffffffffffffffffffffffffff1673ffffffffffffffffffffffffffffffffffffffff1681526020019081526020016000206040518060c001604052908160008201548152602001600182015481526020016002820160009054906101000a900460ff16600481111561116257611161613db9565b5b600481111561117457611173613db9565b5b815260200160038201805461118890614f19565b80601f01602080910402602001604051908101604052809291908181526020018280546111b490614f19565b80156112015780601f106111d657610100808354040283529160200191611201565b820191906000526020600020905b8154815290600101906020018083116111e457829003601f168201915b505050505081526020016004820160009054906101000a900473ffffffffffffffffffffffffffffffffffffffff1673ffffffffffffffffffffffffffffffffffffffff1673ffffffffffffffffffffffffffffffffffffffff1681526020016005820160009054906101000a900473ffffffffffffffffffffffffffffffffffffffff1673ffffffffffffffffffffffffffffffffffffffff1673ffffffffffffffffffffffffffffffffffffffff16815250509050919050565b600781815481106112cd57600080fd5b90600052602060002090600602016000915090508060000154908060010154908060020160009054906101000a900460ff169080600301805461130f90614f19565b80601f016020809104026020016040519081016040528092919081815260200182805461133b90614f19565b80156113885780601f1061135d57610100808354040283529160200191611388565b820191906000526020600020905b81548152906001019060200180831161136b57829003601f168201915b5050505050908060040160009054906101000a900473ffffffffffffffffffffffffffffffffffffffff16908060050160009054906101000a900473ffffffffffffffffffffffffffffffffffffffff16905086565b6113e6613bc4565b600160008373ffffffffffffffffffffffffffffffffffffffff1673ffffffffffffffffffffffffffffffffffffffff1681526020019081526020016000206040518060e00160405290816000820154815260200160018201805461144a90614f19565b80601f016020809104026020016040519081016040528092919081815260200182805461147690614f19565b80156114c35780601f10611498576101008083540402835291602001916114c3565b820191906000526020600020905b8154815290600101906020018083116114a657829003601f168201915b505050505081526020016002820154815260200160038201548152602001600482015481526020016005820160009054906101000a900460ff16600381111561150f5761150e613db9565b5b600381111561152157611520613db9565b5b81526020016005820160019054906101000a900473ffffffffffffffffffffffffffffffffffffffff1673ffffffffffffffffffffffffffffffffffffffff1673ffffffffffffffffffffffffffffffffffffffff16815250509050919050565b600c5481565b600a818154811061159857600080fd5b90600052602060002090600502016000915090508060000154908060010154908060020180546115c790614f19565b80601f01602080910402602001604051908101604052809291908181526020018280546115f390614f19565b80156116405780601f1061161557610100808354040283529160200191611640565b820191906000526020600020905b81548152906001019060200180831161162357829003601f168201915b5050505050908060030160009054906101000a900460ff16908060030160019054906101000a900460ff16908060030160029054906101000a900473ffffffffffffffffffffffffffffffffffffffff16908060040160009054906101000a900473ffffffffffffffffffffffffffffffffffffffff16905087565b60606007805480602002602001604051908101604052809291908181526020016000905b8282101561189f57838290600052602060002090600602016040518060c001604052908160008201548152602001600182015481526020016002820160009054906101000a900460ff16600481111561173c5761173b613db9565b5b600481111561174e5761174d613db9565b5b815260200160038201805461176290614f19565b80601f016020809104026020016040519081016040528092919081815260200182805461178e90614f19565b80156117db5780601f106117b0576101008083540402835291602001916117db565b820191906000526020600020905b8154815290600101906020018083116117be57829003601f168201915b505050505081526020016004820160009054906101000a900473ffffffffffffffffffffffffffffffffffffffff1673ffffffffffffffffffffffffffffffffffffffff1673ffffffffffffffffffffffffffffffffffffffff1681526020016005820160009054906101000a900473ffffffffffffffffffffffffffffffffffffffff1673ffffffffffffffffffffffffffffffffffffffff1673ffffffffffffffffffffffffffffffffffffffff1681525050815260200190600101906116e0565b50505050905090565b600b6020528060005260406000206000915090508060000154908060010154908060020154908060030160009054906101000a900460ff16908060030160019054906101000a900460ff16908060030160029054906101000a900460ff16908060030160039054906101000a900473ffffffffffffffffffffffffffffffffffffffff16908060040160009054906101000a900473ffffffffffffffffffffffffffffffffffffffff16905088565b60056020528060005260406000206000915090508060000154908060010154908060020160009054906101000a900460ff169080600301805461199990614f19565b80601f01602080910402602001604051908101604052809291908181526020018280546119c590614f19565b8015611a125780601f106119e757610100808354040283529160200191611a12565b820191906000526020600020905b8154815290600101906020018083116119f557829003601f168201915b5050505050908060040160009054906101000a900473ffffffffffffffffffffffffffffffffffffffff16908060050160009054906101000a900473ffffffffffffffffffffffffffffffffffffffff16905086565b600082600460009054906101000a900473ffffffffffffffffffffffffffffffffffffffff1683604051602001611aa19392919061501a565b6040516020818303038152906040528051906020012060001c905092915050565b60008054906101000a900473ffffffffffffffffffffffffffffffffffffffff1681565b816003811115611af957611af8613db9565b5b600160008373ffffffffffffffffffffffffffffffffffffffff1673ffffffffffffffffffffffffffffffffffffffff16815260200190815260200160002060050160006101000a81548160ff02191690836003811115611b5d57611b5c613db9565b5b02179055506000600160008373ffffffffffffffffffffffffffffffffffffffff1673ffffffffffffffffffffffffffffffffffffffff168152602001908152602001600020600001549050826003811115611bbc57611bbb613db9565b5b60028281548110611bd057611bcf614ebb565b5b906000526020600020906006020160050160006101000a81548160ff02191690836003811115611c0357611c02613db9565b5b0217905550826003811115611c1b57611c1a613db9565b5b6003811115611c2d57611c2c613db9565b5b600160008473ffffffffffffffffffffffffffffffffffffffff1673ffffffffffffffffffffffffffffffffffffffff168152602001908152602001600020600101604051611c7c91906150e7565b60405180910390208373ffffffffffffffffffffffffffffffffffffffff167f2a5f7967c96cddc740f1a8ce989263f3f3c239229941ff452b1b77f79e6a6d7d600160008773ffffffffffffffffffffffffffffffffffffffff1673ffffffffffffffffffffffffffffffffffffffff16815260200190815260200160002060020154600160008873ffffffffffffffffffffffffffffffffffffffff1673ffffffffffffffffffffffffffffffffffffffff16815260200190815260200160002060030154600160008973ffffffffffffffffffffffffffffffffffffffff1673ffffffffffffffffffffffffffffffffffffffff16815260200190815260200160002060040154604051611d94939291906150fe565b60405180910390a4505050565b600d8181548110611db157600080fd5b90600052602060002090600502016000915090508060000154908060010154908060020154908060030160009054906101000a900460ff16908060030160019054906101000a900460ff16908060030160029054906101000a900460ff16908060030160039054906101000a900473ffffffffffffffffffffffffffffffffffffffff16908060040160009054906101000a900473ffffffffffffffffffffffffffffffffffffffff16905088565b60028181548110611e7057600080fd5b9060005260206000209060060201600091509050806000015490806001018054611e9990614f19565b80601f0160208091040260200160405190810160405280929190818152602001828054611ec590614f19565b8015611f125780601f10611ee757610100808354040283529160200191611f12565b820191906000526020600020905b815481529060010190602001808311611ef557829003601f168201915b5050505050908060020154908060030154908060040154908060050160009054906101000a900460ff16908060050160019054906101000a900473ffffffffffffffffffffffffffffffffffffffff16905087565b6001602052806000526040600020600091509050806000015490806001018054611f9090614f19565b80601f0160208091040260200160405190810160405280929190818152602001828054611fbc90614f19565b80156120095780601f10611fde57610100808354040283529160200191612009565b820191906000526020600020905b815481529060010190602001808311611fec57829003601f168201915b5050505050908060020154908060030154908060040154908060050160009054906101000a900460ff16908060050160019054906101000a900473ffffffffffffffffffffffffffffffffffffffff16905087565b60006120a16040518060400160405280601a81526020017f6373643f534073616c61733b646c413233345f442e3b735f6173000000000000815250600654611a68565b9050600654600560008373ffffffffffffffffffffffffffffffffffffffff1673ffffffffffffffffffffffffffffffffffffffff1681526020019081526020016000206000018190555083600560008373ffffffffffffffffffffffffffffffffffffffff1673ffffffffffffffffffffffffffffffffffffffff1681526020019081526020016000206001018190555082600481111561214657612145613db9565b5b600560008373ffffffffffffffffffffffffffffffffffffffff1673ffffffffffffffffffffffffffffffffffffffff16815260200190815260200160002060020160006101000a81548160ff021916908360048111156121aa576121a9613db9565b5b021790555081600560008373ffffffffffffffffffffffffffffffffffffffff1673ffffffffffffffffffffffffffffffffffffffff1681526020019081526020016000206003019080519060200190612205929190613ac7565b5080600560008373ffffffffffffffffffffffffffffffffffffffff1673ffffffffffffffffffffffffffffffffffffffff16815260200190815260200160002060040160006101000a81548173ffffffffffffffffffffffffffffffffffffffff021916908373ffffffffffffffffffffffffffffffffffffffff160217905550600460009054906101000a900473ffffffffffffffffffffffffffffffffffffffff16600560008373ffffffffffffffffffffffffffffffffffffffff1673ffffffffffffffffffffffffffffffffffffffff16815260200190815260200160002060050160006101000a81548173ffffffffffffffffffffffffffffffffffffffff021916908373ffffffffffffffffffffffffffffffffffffffff1602179055507fb4d7cf766344f0dab6a272ab11f55b042f020c99154e4e44f886d87c15a296696006548585600481111561236257612361613db9565b5b8585600460009054906101000a900473ffffffffffffffffffffffffffffffffffffffff164260405161239b9796959493929190615135565b60405180910390a160076040518060c0016040528060065481526020018681526020018560048111156123d1576123d0613db9565b5b60048111156123e3576123e2613db9565b5b81526020018481526020018373ffffffffffffffffffffffffffffffffffffffff168152602001600460009054906101000a900473ffffffffffffffffffffffffffffffffffffffff1673ffffffffffffffffffffffffffffffffffffffff168152509080600181540180825580915050600190039060005260206000209060060201600090919091909150600082015181600001556020820151816001015560408201518160020160006101000a81548160ff021916908360048111156124ae576124ad613db9565b5b021790555060608201518160030190805190602001906124cf929190613ac7565b5060808201518160040160006101000a81548173ffffffffffffffffffffffffffffffffffffffff021916908373ffffffffffffffffffffffffffffffffffffffff16021790555060a08201518160050160006101000a81548173ffffffffffffffffffffffffffffffffffffffff021916908373ffffffffffffffffffffffffffffffffffffffff160217905550505060066000815480929190612573906151ab565b919050555050505050565b60086020528060005260406000206000915090508060000154908060010154908060020180546125ad90614f19565b80601f01602080910402602001604051908101604052809291908181526020018280546125d990614f19565b80156126265780601f106125fb57610100808354040283529160200191612626565b820191906000526020600020905b81548152906001019060200180831161260957829003601f168201915b5050505050908060030160009054906101000a900460ff16908060030160019054906101000a900460ff16908060030160029054906101000a900473ffffffffffffffffffffffffffffffffffffffff16908060040160009054906101000a900473ffffffffffffffffffffffffffffffffffffffff16905087565b60095481565b3373ffffffffffffffffffffffffffffffffffffffff1660008054906101000a900473ffffffffffffffffffffffffffffffffffffffff1673ffffffffffffffffffffffffffffffffffffffff1614612736576040517f08c379a000000000000000000000000000000000000000000000000000000000815260040161272d90615240565b60405180910390fd5b600354600160008373ffffffffffffffffffffffffffffffffffffffff1673ffffffffffffffffffffffffffffffffffffffff1681526020019081526020016000206000018190555085600160008373ffffffffffffffffffffffffffffffffffffffff1673ffffffffffffffffffffffffffffffffffffffff16815260200190815260200160002060010190805190602001906127d5929190613ac7565b5084600160008373ffffffffffffffffffffffffffffffffffffffff1673ffffffffffffffffffffffffffffffffffffffff1681526020019081526020016000206002018190555083600160008373ffffffffffffffffffffffffffffffffffffffff1673ffffffffffffffffffffffffffffffffffffffff1681526020019081526020016000206003018190555082600160008373ffffffffffffffffffffffffffffffffffffffff1673ffffffffffffffffffffffffffffffffffffffff168152602001908152602001600020600401819055508160038111156128be576128bd613db9565b5b600160008373ffffffffffffffffffffffffffffffffffffffff1673ffffffffffffffffffffffffffffffffffffffff16815260200190815260200160002060050160006101000a81548160ff0219169083600381111561292257612921613db9565b5b021790555080600160008373ffffffffffffffffffffffffffffffffffffffff1673ffffffffffffffffffffffffffffffffffffffff16815260200190815260200160002060050160016101000a81548173ffffffffffffffffffffffffffffffffffffffff021916908373ffffffffffffffffffffffffffffffffffffffff1602179055508160038111156129bb576129ba613db9565b5b60038111156129cd576129cc613db9565b5b866040516129db9190615260565b60405180910390208273ffffffffffffffffffffffffffffffffffffffff167f2a5f7967c96cddc740f1a8ce989263f3f3c239229941ff452b1b77f79e6a6d7d888888604051612a2d939291906150fe565b60405180910390a460026040518060e001604052806003548152602001888152602001878152602001868152602001858152602001846003811115612a7557612a74613db9565b5b6003811115612a8757612a86613db9565b5b81526020018373ffffffffffffffffffffffffffffffffffffffff168152509080600181540180825580915050600190039060005260206000209060060201600090919091909150600082015181600001556020820151816001019080519060200190612af5929190613ac7565b5060408201518160020155606082015181600301556080820151816004015560a08201518160050160006101000a81548160ff02191690836003811115612b3f57612b3e613db9565b5b021790555060c08201518160050160016101000a81548173ffffffffffffffffffffffffffffffffffffffff021916908373ffffffffffffffffffffffffffffffffffffffff160217905550505060036000815480929190612ba0906151ab565b9190505550505050505050565b60035481565b60606002805480602002602001604051908101604052809291908181526020016000905b82821015612d5457838290600052602060002090600602016040518060e001604052908160008201548152602001600182018054612c1490614f19565b80601f0160208091040260200160405190810160405280929190818152602001828054612c4090614f19565b8015612c8d5780601f10612c6257610100808354040283529160200191612c8d565b820191906000526020600020905b815481529060010190602001808311612c7057829003601f168201915b505050505081526020016002820154815260200160038201548152602001600482015481526020016005820160009054906101000a900460ff166003811115612cd957612cd8613db9565b5b6003811115612ceb57612cea613db9565b5b81526020016005820160019054906101000a900473ffffffffffffffffffffffffffffffffffffffff1673ffffffffffffffffffffffffffffffffffffffff1673ffffffffffffffffffffffffffffffffffffffff168152505081526020019060010190612bd7565b50505050905090565b600954600860006009548152602001908152602001600020600001819055508360086000600954815260200190815260200160002060010181905550604051806020016040528060008152506008600060095481526020019081526020016000206002019080519060200190612dd4929190613ac7565b50826004811115612de857612de7613db9565b5b60086000600954815260200190815260200160002060030160006101000a81548160ff02191690836004811115612e2257612e21613db9565b5b0217905550816002811115612e3a57612e39613db9565b5b60086000600954815260200190815260200160002060030160016101000a81548160ff02191690836002811115612e7457612e73613db9565b5b02179055508060086000600954815260200190815260200160002060030160026101000a81548173ffffffffffffffffffffffffffffffffffffffff021916908373ffffffffffffffffffffffffffffffffffffffff160217905550600460009054906101000a900473ffffffffffffffffffffffffffffffffffffffff1660086000600954815260200190815260200160002060040160006101000a81548173ffffffffffffffffffffffffffffffffffffffff021916908373ffffffffffffffffffffffffffffffffffffffff160217905550612f5860095485848685613408565b7f87be34239a6efbc76467dfcce1a731d31788afcf9f57c4d8dc9fc04fe871101360095485856004811115612f9057612f8f613db9565b5b856002811115612fa357612fa2613db9565b5b85600460009054906101000a900473ffffffffffffffffffffffffffffffffffffffff1642604051612fdb979695949392919061529d565b60405180910390a1600a6040518060e00160405280600954815260200186815260200160405180602001604052806000815250815260200185600481111561302657613025613db9565b5b600481111561303857613037613db9565b5b81526020018460028111156130505761304f613db9565b5b600281111561306257613061613db9565b5b81526020018373ffffffffffffffffffffffffffffffffffffffff168152602001600460009054906101000a900473ffffffffffffffffffffffffffffffffffffffff1673ffffffffffffffffffffffffffffffffffffffff16815250908060018154018082558091505060019003906000526020600020906005020160009091909190915060008201518160000155602082015181600101556040820151816002019080519060200190613118929190613ac7565b5060608201518160030160006101000a81548160ff0219169083600481111561314457613143613db9565b5b021790555060808201518160030160016101000a81548160ff0219169083600281111561317457613173613db9565b5b021790555060a08201518160030160026101000a81548173ffffffffffffffffffffffffffffffffffffffff021916908373ffffffffffffffffffffffffffffffffffffffff16021790555060c08201518160040160006101000a81548173ffffffffffffffffffffffffffffffffffffffff021916908373ffffffffffffffffffffffffffffffffffffffff16021790555050506009600081548092919061321c906151ab565b919050555050505050565b6060600d805480602002602001604051908101604052809291908181526020016000905b828210156133f95783829060005260206000209060050201604051806101000160405290816000820154815260200160018201548152602001600282015481526020016003820160009054906101000a900460ff1660028111156132b2576132b1613db9565b5b60028111156132c4576132c3613db9565b5b81526020016003820160019054906101000a900460ff1660048111156132ed576132ec613db9565b5b60048111156132ff576132fe613db9565b5b81526020016003820160029054906101000a900460ff16600181111561332857613327613db9565b5b600181111561333a57613339613db9565b5b81526020016003820160039054906101000a900473ffffffffffffffffffffffffffffffffffffffff1673ffffffffffffffffffffffffffffffffffffffff1673ffffffffffffffffffffffffffffffffffffffff1681526020016004820160009054906101000a900473ffffffffffffffffffffffffffffffffffffffff1673ffffffffffffffffffffffffffffffffffffffff1673ffffffffffffffffffffffffffffffffffffffff16815250508152602001906001019061324b565b50505050905090565b60065481565b60006001600481111561341e5761341d613db9565b5b83600481111561343157613430613db9565b5b600481111561344357613442613db9565b5b148061348557506003600481111561345e5761345d613db9565b5b83600481111561347157613470613db9565b5b600481111561348357613482613db9565b5b145b806134c5575060048081111561349e5761349d613db9565b5b8360048111156134b1576134b0613db9565b5b60048111156134c3576134c2613db9565b5b145b156134d35760009050613518565b600260048111156134e7576134e6613db9565b5b8360048111156134fa576134f9613db9565b5b600481111561350c5761350b613db9565b5b141561351757600190505b5b61352686868686858761352e565b505050505050565b600c54600b6000600c5481526020019081526020016000206000018190555085600b6000600c5481526020019081526020016000206001018190555084600b6000600c5481526020019081526020016000206002018190555083600281111561359a57613599613db9565b5b600b6000600c54815260200190815260200160002060030160006101000a81548160ff021916908360028111156135d4576135d3613db9565b5b02179055508260048111156135ec576135eb613db9565b5b600b6000600c54815260200190815260200160002060030160016101000a81548160ff0219169083600481111561362657613625613db9565b5b021790555081600b6000600c54815260200190815260200160002060030160026101000a81548160ff0219169083600181111561366657613665613db9565b5b021790555080600b6000600c54815260200190815260200160002060030160036101000a81548173ffffffffffffffffffffffffffffffffffffffff021916908373ffffffffffffffffffffffffffffffffffffffff160217905550600460009054906101000a900473ffffffffffffffffffffffffffffffffffffffff16600b6000600c54815260200190815260200160002060040160006101000a81548173ffffffffffffffffffffffffffffffffffffffff021916908373ffffffffffffffffffffffffffffffffffffffff1602179055507f25ffcb32903ff8c3a4d06cf14e0513c467ba41d315999a41ce245559e4fd524d600c54878787600281111561377457613773613db9565b5b87600481111561378757613786613db9565b5b8787600460009054906101000a900473ffffffffffffffffffffffffffffffffffffffff16426040516137c299989796959493929190615320565b60405180910390a1600d604051806101000160405280600c5481526020018881526020018781526020018660028111156137ff576137fe613db9565b5b600281111561381157613810613db9565b5b815260200185600481111561382957613828613db9565b5b600481111561383b5761383a613db9565b5b815260200184600181111561385357613852613db9565b5b81526020018373ffffffffffffffffffffffffffffffffffffffff168152602001600460009054906101000a900473ffffffffffffffffffffffffffffffffffffffff1673ffffffffffffffffffffffffffffffffffffffff16815250908060018154018082558091505060019003906000526020600020906005020160009091909190915060008201518160000155602082015181600101556040820151816002015560608201518160030160006101000a81548160ff0219169083600281111561392257613921613db9565b5b021790555060808201518160030160016101000a81548160ff0219169083600481111561395257613951613db9565b5b021790555060a08201518160030160026101000a81548160ff0219169083600181111561398257613981613db9565b5b021790555060c08201518160030160036101000a81548173ffffffffffffffffffffffffffffffffffffffff021916908373ffffffffffffffffffffffffffffffffffffffff16021790555060e08201518160040160006101000a81548173ffffffffffffffffffffffffffffffffffffffff021916908373ffffffffffffffffffffffffffffffffffffffff1602179055505050600c6000815480929190613a2a906151ab565b9190505550505050505050565b6040518060e0016040528060008152602001600080191681526020016060815260200160006004811115613a6e57613a6d613db9565b5b815260200160006002811115613a8757613a86613db9565b5b8152602001600073ffffffffffffffffffffffffffffffffffffffff168152602001600073ffffffffffffffffffffffffffffffffffffffff1681525090565b828054613ad390614f19565b90600052602060002090601f016020900481019282613af55760008555613b3c565b82601f10613b0e57805160ff1916838001178555613b3c565b82800160010185558215613b3c579182015b82811115613b3b578251825591602001919060010190613b20565b5b509050613b499190613c32565b5090565b6040518060c00160405280600081526020016000801916815260200160006004811115613b7d57613b7c613db9565b5b815260200160608152602001600073ffffffffffffffffffffffffffffffffffffffff168152602001600073ffffffffffffffffffffffffffffffffffffffff1681525090565b6040518060e00160405280600081526020016060815260200160008019168152602001600080191681526020016000801916815260200160006003811115613c0f57613c0e613db9565b5b8152602001600073ffffffffffffffffffffffffffffffffffffffff1681525090565b5b80821115613c4b576000816000905550600101613c33565b5090565b6000604051905090565b600080fd5b600080fd5b600073ffffffffffffffffffffffffffffffffffffffff82169050919050565b6000613c8e82613c63565b9050919050565b613c9e81613c83565b8114613ca957600080fd5b50565b600081359050613cbb81613c95565b92915050565b600060208284031215613cd757613cd6613c59565b5b6000613ce584828501613cac565b91505092915050565b6000819050919050565b613d0181613cee565b82525050565b6000819050919050565b613d1a81613d07565b82525050565b600081519050919050565b600082825260208201905092915050565b60005b83811015613d5a578082015181840152602081019050613d3f565b83811115613d69576000848401525b50505050565b6000601f19601f8301169050919050565b6000613d8b82613d20565b613d958185613d2b565b9350613da5818560208601613d3c565b613dae81613d6f565b840191505092915050565b7f4e487b7100000000000000000000000000000000000000000000000000000000600052602160045260246000fd5b60058110613df957613df8613db9565b5b50565b6000819050613e0a82613de8565b919050565b6000613e1a82613dfc565b9050919050565b613e2a81613e0f565b82525050565b60038110613e4157613e40613db9565b5b50565b6000819050613e5282613e30565b919050565b6000613e6282613e44565b9050919050565b613e7281613e57565b82525050565b613e8181613c83565b82525050565b600060e083016000830151613e9f6000860182613cf8565b506020830151613eb26020860182613d11565b5060408301518482036040860152613eca8282613d80565b9150506060830151613edf6060860182613e21565b506080830151613ef26080860182613e69565b5060a0830151613f0560a0860182613e78565b5060c0830151613f1860c0860182613e78565b508091505092915050565b60006020820190508181036000830152613f3d8184613e87565b905092915050565b613f4e81613cee565b8114613f5957600080fd5b50565b600081359050613f6b81613f45565b92915050565b600080fd5b600080fd5b7f4e487b7100000000000000000000000000000000000000000000000000000000600052604160045260246000fd5b613fb382613d6f565b810181811067ffffffffffffffff82111715613fd257613fd1613f7b565b5b80604052505050565b6000613fe5613c4f565b9050613ff18282613faa565b919050565b600067ffffffffffffffff82111561401157614010613f7b565b5b61401a82613d6f565b9050602081019050919050565b82818337600083830152505050565b600061404961404484613ff6565b613fdb565b90508281526020810184848401111561406557614064613f76565b5b614070848285614027565b509392505050565b600082601f83011261408d5761408c613f71565b5b813561409d848260208601614036565b91505092915050565b60008060008060008060c087890312156140c3576140c2613c59565b5b60006140d189828a01613f5c565b965050602087013567ffffffffffffffff8111156140f2576140f1613c5e565b5b6140fe89828a01614078565b955050604061410f89828a01613f5c565b945050606061412089828a01613f5c565b935050608061413189828a01613f5c565b92505060a061414289828a01613cac565b9150509295509295509295565b600081519050919050565b600082825260208201905092915050565b6000819050602082019050919050565b600060e0830160008301516141936000860182613cf8565b5060208301516141a66020860182613d11565b50604083015184820360408601526141be8282613d80565b91505060608301516141d36060860182613e21565b5060808301516141e66080860182613e69565b5060a08301516141f960a0860182613e78565b5060c083015161420c60c0860182613e78565b508091505092915050565b6000614223838361417b565b905092915050565b6000602082019050919050565b60006142438261414f565b61424d818561415a565b93508360208202850161425f8561416b565b8060005b8581101561429b578484038952815161427c8582614217565b94506142878361422b565b925060208a01995050600181019050614263565b50829750879550505050505092915050565b600060208201905081810360008301526142c78184614238565b905092915050565b600060c0830160008301516142e76000860182613cf8565b5060208301516142fa6020860182613d11565b50604083015161430d6040860182613e21565b50606083015184820360608601526143258282613d80565b915050608083015161433a6080860182613e78565b5060a083015161434d60a0860182613e78565b508091505092915050565b6000602082019050818103600083015261437281846142cf565b905092915050565b6000602082840312156143905761438f613c59565b5b600061439e84828501613f5c565b91505092915050565b6143b081613cee565b82525050565b6143bf81613d07565b82525050565b6143ce81613e0f565b82525050565b600082825260208201905092915050565b60006143f082613d20565b6143fa81856143d4565b935061440a818560208601613d3c565b61441381613d6f565b840191505092915050565b61442781613c83565b82525050565b600060c08201905061444260008301896143a7565b61444f60208301886143b6565b61445c60408301876143c5565b818103606083015261446e81866143e5565b905061447d608083018561441e565b61448a60a083018461441e565b979650505050505050565b600481106144a6576144a5613db9565b5b50565b60008190506144b782614495565b919050565b60006144c7826144a9565b9050919050565b6144d7816144bc565b82525050565b600060e0830160008301516144f56000860182613cf8565b506020830151848203602086015261450d8282613d80565b91505060408301516145226040860182613d11565b5060608301516145356060860182613d11565b5060808301516145486080860182613d11565b5060a083015161455b60a08601826144ce565b5060c083015161456e60c0860182613e78565b508091505092915050565b6000602082019050818103600083015261459381846144dd565b905092915050565b60006020820190506145b060008301846143a7565b92915050565b6145bf81613e57565b82525050565b600060e0820190506145da600083018a6143a7565b6145e760208301896143b6565b81810360408301526145f981886143e5565b905061460860608301876143c5565b61461560808301866145b6565b61462260a083018561441e565b61462f60c083018461441e565b98975050505050505050565b600081519050919050565b600082825260208201905092915050565b6000819050602082019050919050565b600060c08301600083015161467f6000860182613cf8565b5060208301516146926020860182613d11565b5060408301516146a56040860182613e21565b50606083015184820360608601526146bd8282613d80565b91505060808301516146d26080860182613e78565b5060a08301516146e560a0860182613e78565b508091505092915050565b60006146fc8383614667565b905092915050565b6000602082019050919050565b600061471c8261463b565b6147268185614646565b93508360208202850161473885614657565b8060005b85811015614774578484038952815161475585826146f0565b945061476083614704565b925060208a0199505060018101905061473c565b50829750879550505050505092915050565b600060208201905081810360008301526147a08184614711565b905092915050565b600281106147b9576147b8613db9565b5b50565b60008190506147ca826147a8565b919050565b60006147da826147bc565b9050919050565b6147ea816147cf565b82525050565b600061010082019050614806600083018b6143a7565b614813602083018a6143a7565b61482060408301896143b6565b61482d60608301886145b6565b61483a60808301876143c5565b61484760a08301866147e1565b61485460c083018561441e565b61486160e083018461441e565b9998505050505050505050565b6000806040838503121561488557614884613c59565b5b600083013567ffffffffffffffff8111156148a3576148a2613c5e565b5b6148af85828601614078565b92505060206148c085828601613f5c565b9150509250929050565b60006020820190506148df600083018461441e565b92915050565b600080604083850312156148fc576148fb613c59565b5b600061490a85828601613f5c565b925050602061491b85828601613cac565b9150509250929050565b61492e816144bc565b82525050565b600060e082019050614949600083018a6143a7565b818103602083015261495b81896143e5565b905061496a60408301886143b6565b61497760608301876143b6565b61498460808301866143b6565b61499160a0830185614925565b61499e60c083018461441e565b98975050505050505050565b6149b381613d07565b81146149be57600080fd5b50565b6000813590506149d0816149aa565b92915050565b6000806000606084860312156149ef576149ee613c59565b5b60006149fd868287016149c1565b9350506020614a0e86828701613f5c565b925050604084013567ffffffffffffffff811115614a2f57614a2e613c5e565b5b614a3b86828701614078565b9150509250925092565b60008060008060008060c08789031215614a6257614a61613c59565b5b600087013567ffffffffffffffff811115614a8057614a7f613c5e565b5b614a8c89828a01614078565b9650506020614a9d89828a016149c1565b9550506040614aae89828a016149c1565b9450506060614abf89828a016149c1565b9350506080614ad089828a01613f5c565b92505060a0614ae189828a01613cac565b9150509295509295509295565b600081519050919050565b600082825260208201905092915050565b6000819050602082019050919050565b600060e083016000830151614b326000860182613cf8565b5060208301518482036020860152614b4a8282613d80565b9150506040830151614b5f6040860182613d11565b506060830151614b726060860182613d11565b506080830151614b856080860182613d11565b5060a0830151614b9860a08601826144ce565b5060c0830151614bab60c0860182613e78565b508091505092915050565b6000614bc28383614b1a565b905092915050565b6000602082019050919050565b6000614be282614aee565b614bec8185614af9565b935083602082028501614bfe85614b0a565b8060005b85811015614c3a5784840389528151614c1b8582614bb6565b9450614c2683614bca565b925060208a01995050600181019050614c02565b50829750879550505050505092915050565b60006020820190508181036000830152614c668184614bd7565b905092915050565b60008060008060808587031215614c8857614c87613c59565b5b6000614c96878288016149c1565b9450506020614ca787828801613f5c565b9350506040614cb887828801613f5c565b9250506060614cc987828801613cac565b91505092959194509250565b600081519050919050565b600082825260208201905092915050565b6000819050602082019050919050565b614d0a816147cf565b82525050565b61010082016000820151614d276000850182613cf8565b506020820151614d3a6020850182613cf8565b506040820151614d4d6040850182613d11565b506060820151614d606060850182613e69565b506080820151614d736080850182613e21565b5060a0820151614d8660a0850182614d01565b5060c0820151614d9960c0850182613e78565b5060e0820151614dac60e0850182613e78565b50505050565b6000614dbe8383614d10565b6101008301905092915050565b6000602082019050919050565b6000614de382614cd5565b614ded8185614ce0565b9350614df883614cf1565b8060005b83811015614e29578151614e108882614db2565b9750614e1b83614dcb565b925050600181019050614dfc565b5085935050505092915050565b60006020820190508181036000830152614e508184614dd8565b905092915050565b7f4e487b7100000000000000000000000000000000000000000000000000000000600052601160045260246000fd5b6000614e9282613cee565b9150614e9d83613cee565b925082821015614eb057614eaf614e58565b5b828203905092915050565b7f4e487b7100000000000000000000000000000000000000000000000000000000600052603260045260246000fd5b7f4e487b7100000000000000000000000000000000000000000000000000000000600052602260045260246000fd5b60006002820490506001821680614f3157607f821691505b60208210811415614f4557614f44614eea565b5b50919050565b6000614f5682613cee565b91506000821415614f6a57614f69614e58565b5b600182039050919050565b600081905092915050565b6000614f8b82613d20565b614f958185614f75565b9350614fa5818560208601613d3c565b80840191505092915050565b60008160601b9050919050565b6000614fc982614fb1565b9050919050565b6000614fdb82614fbe565b9050919050565b614ff3614fee82613c83565b614fd0565b82525050565b6000819050919050565b61501461500f82613cee565b614ff9565b82525050565b60006150268286614f80565b91506150328285614fe2565b6014820191506150428284615003565b602082019150819050949350505050565b60008190508160005260206000209050919050565b6000815461507581614f19565b61507f8186614f75565b9450600182166000811461509a57600181146150ab576150de565b60ff198316865281860193506150de565b6150b485615053565b60005b838110156150d6578154818901526001820191506020810190506150b7565b838801955050505b50505092915050565b60006150f38284615068565b915081905092915050565b600060608201905061511360008301866143b6565b61512060208301856143b6565b61512d60408301846143b6565b949350505050565b600060e08201905061514a600083018a6143a7565b61515760208301896143b6565b61516460408301886143c5565b818103606083015261517681876143e5565b9050615185608083018661441e565b61519260a083018561441e565b61519f60c08301846143a7565b98975050505050505050565b60006151b682613cee565b91507fffffffffffffffffffffffffffffffffffffffffffffffffffffffffffffffff8214156151e9576151e8614e58565b5b600182019050919050565b7f596f7520617265206e6f7420616e206f776e6572000000000000000000000000600082015250565b600061522a6014836143d4565b9150615235826151f4565b602082019050919050565b600060208201905081810360008301526152598161521d565b9050919050565b600061526c8284614f80565b915081905092915050565b50565b60006152876000836143d4565b915061529282615277565b600082019050919050565b6000610100820190506152b3600083018a6143a7565b6152c060208301896143b6565b81810360408301526152d18161527a565b90506152e060608301886143c5565b6152ed60808301876145b6565b6152fa60a083018661441e565b61530760c083018561441e565b61531460e08301846143a7565b98975050505050505050565b600061012082019050615336600083018c6143a7565b615343602083018b6143a7565b615350604083018a6143b6565b61535d60608301896145b6565b61536a60808301886143c5565b61537760a08301876147e1565b61538460c083018661441e565b61539160e083018561441e565b61539f6101008301846143a7565b9a995050505050505050505056fea264697066735822122037b41ad5dbc0b75cc710105d07219f7c32bba310eaa072055f7bcf0b1050348064736f6c634300080a0033",
  "immutableReferences": {},
  "source": "// SPDX-License-Identifier: MIT\r\npragma solidity >=0.8.0 <0.9.0;\r\n\r\nimport \"./UserChain.sol\";\r\nimport \"./CompanyChain.sol\";\r\nimport \"./SupervisorChain.sol\";\r\n\r\nimport \"./SharedChain.sol\";\r\n\r\n// Put constraints on the app based on role not address......\r\n\r\ncontract ProjectChain is UserChain, SharedChain {\r\n    string constant HASH_bytes32_VALUE = \"csd?S@salas;dlA234_D.;s_as\";\r\n    address _projectInitiator;\r\n\r\n    // Project Contract Data\r\n    mapping(address => Project) public projects;\r\n    uint public projectsCounter = 0;\r\n    Project[] public allProjects;\r\n\r\n    mapping(uint => ProjectRequest) public projectRequests;\r\n    uint public projectRequestsCounter = 0;\r\n    ProjectRequest[] public allProjectRequests;\r\n\r\n    constructor() {\r\n        _projectInitiator = msg.sender;\r\n    }\r\n\r\n    modifier onlyProjectInitiator {\r\n        require(users[_projectInitiator]._role == Roles.ProjectInitiator, \"You don't have the rights for this resources.\");\r\n        require(_projectInitiator == msg.sender, \"You are not a project initiator\");\r\n        _;\r\n    }\r\n\r\n    function createUniqueHexAddress(string memory _text, uint _index) public view returns (address) {\r\n        return address(uint160(uint256(keccak256(abi.encodePacked(_text, _projectInitiator, _index)))));\r\n    }\r\n\r\n    function createProject(bytes32 _name, uint _status, string memory _ipfsFileCID) public {\r\n        address _projectAddress = createUniqueHexAddress(HASH_bytes32_VALUE, projectsCounter);\r\n\r\n        projects[_projectAddress]._index = projectsCounter;\r\n        projects[_projectAddress]._name = _name;\r\n        projects[_projectAddress]._status = ProjectStatus(_status);\r\n        projects[_projectAddress]._ipfsFileCID = _ipfsFileCID;\r\n        projects[_projectAddress]._projectAddress = _projectAddress;\r\n        projects[_projectAddress]._userAddress = _projectInitiator;\r\n\r\n        emit ProjectEvent(\r\n            projectsCounter,\r\n            _name,\r\n            ProjectStatus(_status),\r\n            _ipfsFileCID,\r\n            _projectAddress,\r\n            _projectInitiator,\r\n            block.timestamp\r\n        );\r\n        allProjects.push(Project(\r\n            projectsCounter, _name, ProjectStatus(_status),\r\n            _ipfsFileCID, _projectAddress, _projectInitiator\r\n        ));\r\n        projectsCounter++;\r\n    }\r\n\r\n    function getProjectInfo(address _address) public view returns (Project memory) {\r\n        return projects[_address];\r\n    }\r\n\r\n    function getAllProjects() public view returns(Project[] memory) {\r\n        return allProjects;\r\n    }\r\n\r\n    function createProjectRequest(\r\n        bytes32 _title, uint _status,\r\n        uint _requestStatus, address _projectAddress\r\n    ) public {\r\n        projectRequests[projectRequestsCounter]._index = projectRequestsCounter;\r\n        projectRequests[projectRequestsCounter]._title = _title;\r\n        projectRequests[projectRequestsCounter]._comments = '';\r\n        projectRequests[projectRequestsCounter]._status = ProjectStatus(_status);\r\n        projectRequests[projectRequestsCounter]._requestStatus = RequestStatus(_requestStatus);\r\n        projectRequests[projectRequestsCounter]._projectAddress = _projectAddress;\r\n        projectRequests[projectRequestsCounter]._userAddress = _projectInitiator;\r\n\r\n        filterRequests(projectRequestsCounter, _title, _requestStatus, _status, _projectAddress);\r\n\r\n        emit ProjectRequestEvent(\r\n            projectRequestsCounter,\r\n            _title,\r\n            '',\r\n            ProjectStatus(_status),\r\n            RequestStatus(_requestStatus),\r\n            _projectAddress,\r\n            _projectInitiator,\r\n            block.timestamp\r\n        );\r\n        allProjectRequests.push(ProjectRequest(\r\n            projectRequestsCounter, _title, '', ProjectStatus(_status),\r\n            RequestStatus(_requestStatus), _projectAddress, _projectInitiator\r\n        ));\r\n        projectRequestsCounter++;\r\n    }\r\n\r\n    function filterRequests(\r\n        uint _indexProjectRequest,\r\n        bytes32 _title,\r\n        uint _requestStatus,\r\n        uint _projectStatus,\r\n        address _projectAddress\r\n    ) internal {\r\n        RequestType _requestType;\r\n        if (\r\n            ProjectStatus(_projectStatus) == ProjectStatus.ToApprove ||\r\n            ProjectStatus(_projectStatus) == ProjectStatus.FinalizationCheck ||\r\n            ProjectStatus(_projectStatus) == ProjectStatus.Completed\r\n        ) {\r\n            _requestType = RequestType.SupervisorReq;\r\n        } else if (ProjectStatus(_projectStatus) == ProjectStatus.StartProject) {\r\n            _requestType = RequestType.CompanyReq;\r\n        }\r\n        createRequest(_indexProjectRequest, _title, _requestStatus, _projectStatus, _requestType, _projectAddress);\r\n    }\r\n\r\n    function getAllProjectRequests() external view returns(ProjectRequest[] memory) {\r\n        return allProjectRequests;\r\n    }\r\n\r\n    function getLastProjectRequest(address _projectAddress) external view returns(ProjectRequest memory) {\r\n        ProjectRequest memory request;\r\n        if (allProjectRequests.length > 0) {\r\n            for (uint index = allProjectRequests.length - 1; index >= 0; index--) {\r\n                if (_projectAddress == allProjectRequests[index]._projectAddress) {\r\n                    request._index = allProjectRequests[index]._index;\r\n                    request._title = allProjectRequests[index]._title;\r\n                    request._comments = allProjectRequests[index]._comments;\r\n                    request._status = allProjectRequests[index]._status;\r\n                    request._requestStatus = allProjectRequests[index]._requestStatus;\r\n                    request._projectAddress = allProjectRequests[index]._projectAddress;\r\n                    request._userAddress = allProjectRequests[index]._userAddress;\r\n                    return request;\r\n                }\r\n            }\r\n        }\r\n        return request;\r\n    }\r\n\r\n    function getLastProjectRequestWorked() external view returns(ProjectRequest memory) {\r\n        //ProjectRequest memory request = allProjectRequests[0];\r\n        //for (uint index = allProjectRequests.length - 1; index > 0; index--) {\r\n        //}\r\n        return allProjectRequests[0];\r\n    }\r\n\r\n\r\n\r\n    // They will be filter after the status of the requests\r\n    mapping(uint => Request) public requests;\r\n    uint public requestsCounter = 0;\r\n    Request[] public allRequests;\r\n\r\n    function createRequest(\r\n        uint _indexProjectRequest,\r\n        bytes32 _title,\r\n        uint _requestStatus,\r\n        uint _projectStatus,\r\n        RequestType _requestType,\r\n        address _projectAddress\r\n    ) internal {\r\n        requests[requestsCounter]._index = requestsCounter;\r\n        requests[requestsCounter]._indexProjectRequest = _indexProjectRequest;\r\n        requests[requestsCounter]._title = _title;\r\n        requests[requestsCounter]._requestStatus = RequestStatus(_requestStatus);\r\n        requests[requestsCounter]._projectStatus = ProjectStatus(_projectStatus);\r\n        requests[requestsCounter]._requestType = _requestType;\r\n        requests[requestsCounter]._projectAddress = _projectAddress;\r\n        // change to supervisorAddress\r\n        requests[requestsCounter]._userAddress = _projectInitiator;\r\n\r\n        emit RequestEvent(\r\n            requestsCounter,\r\n            _indexProjectRequest,\r\n            _title,\r\n            RequestStatus(_requestStatus),\r\n            ProjectStatus(_projectStatus),\r\n            _requestType, _projectAddress,\r\n            _projectInitiator,\r\n            block.timestamp\r\n        );\r\n        allRequests.push(Request(\r\n            requestsCounter, _indexProjectRequest, _title,  RequestStatus(_requestStatus),\r\n            ProjectStatus(_projectStatus),  _requestType, _projectAddress, _projectInitiator\r\n        ));\r\n        requestsCounter++;\r\n    }\r\n\r\n    function updateRequest(\r\n        uint _index,\r\n        string memory _comments,\r\n        uint _requestStatus,\r\n        uint _indexProjectRequest,\r\n        uint _projectStatus,\r\n        address _projectAddress\r\n    ) public {\r\n        // Update request status in the Requests Mapping and Struct Array\r\n        requests[_index]._requestStatus = RequestStatus(_requestStatus);\r\n        uint index = requests[_index]._index;\r\n        allRequests[index]._requestStatus = RequestStatus(_requestStatus);\r\n\r\n        // Update project request status in the Project Requests Mapping and Struct Array\r\n        projectRequests[_indexProjectRequest]._comments = _comments;\r\n        projectRequests[_indexProjectRequest]._requestStatus = RequestStatus(_requestStatus);\r\n        uint indexProjectReq = projectRequests[_indexProjectRequest]._index;\r\n        allProjectRequests[indexProjectReq]._comments = _comments;\r\n        allProjectRequests[indexProjectReq]._requestStatus = RequestStatus(_requestStatus);\r\n\r\n        // Update ProjectStatus to the requested status - Porject Mapping and Struct Array\r\n        projects[_projectAddress]._status = ProjectStatus(_projectStatus);\r\n        uint indexProject = projects[_projectAddress]._index;\r\n        allProjects[indexProject]._status = ProjectStatus(_projectStatus);\r\n    }\r\n\r\n    function getAllRequests() public view returns(Request[] memory) {\r\n        return allRequests;\r\n    }\r\n}\r\n",
  "sourcePath": "/mnt/c/users/beniamin/source/repos/dissertationproject/contracts/ProjectChain.sol",
  "compiler": {
    "name": "solc",
    "version": "0.8.10+commit.fc410830.Emscripten.clang"
  },
  "schemaVersion": "3.4.3",
  "updatedAt": "2021-11-22T09:38:29.871Z",
  "networkType": "ethereum",
  "devdoc": {
    "kind": "dev",
    "methods": {},
    "version": 1
  },
  "userdoc": {
    "kind": "user",
    "methods": {},
    "version": 1
  }
}