{
  "contractName": "ProjectChain",
  "abi": [
    {
      "inputs": [],
      "stateMutability": "nonpayable",
      "type": "constructor"
    },
    {
      "anonymous": false,
      "inputs": [
        {
          "components": [
            {
              "internalType": "uint256",
              "name": "_index",
              "type": "uint256"
            },
            {
              "internalType": "string",
              "name": "_name",
              "type": "string"
            },
            {
              "internalType": "enum SharedChain.ProjectStatus",
              "name": "_status",
              "type": "uint8"
            },
            {
              "internalType": "string",
              "name": "_ipfsFileCID",
              "type": "string"
            },
            {
              "internalType": "address",
              "name": "_projectAddress",
              "type": "address"
            },
            {
              "internalType": "address",
              "name": "_signerAddress",
              "type": "address"
            },
            {
              "internalType": "uint256",
              "name": "_timestamp",
              "type": "uint256"
            },
            {
              "internalType": "string",
              "name": "_signature",
              "type": "string"
            }
          ],
          "indexed": false,
          "internalType": "struct SharedChain.Project",
          "name": "_project",
          "type": "tuple"
        },
        {
          "indexed": true,
          "internalType": "address",
          "name": "_projectAddress",
          "type": "address"
        }
      ],
      "name": "ProjectEvent",
      "type": "event"
    },
    {
      "anonymous": false,
      "inputs": [
        {
          "components": [
            {
              "internalType": "uint256",
              "name": "_index",
              "type": "uint256"
            },
            {
              "internalType": "string",
              "name": "_title",
              "type": "string"
            },
            {
              "internalType": "string",
              "name": "_comments",
              "type": "string"
            },
            {
              "internalType": "enum SharedChain.ProjectStatus",
              "name": "_status",
              "type": "uint8"
            },
            {
              "internalType": "enum SharedChain.RequestStatus",
              "name": "_requestStatus",
              "type": "uint8"
            },
            {
              "internalType": "address",
              "name": "_projectAddress",
              "type": "address"
            },
            {
              "internalType": "address",
              "name": "_signerAddress",
              "type": "address"
            },
            {
              "internalType": "address",
              "name": "_requestAddress",
              "type": "address"
            },
            {
              "internalType": "uint256",
              "name": "_timestamp",
              "type": "uint256"
            },
            {
              "internalType": "string",
              "name": "_signature",
              "type": "string"
            }
          ],
          "indexed": false,
          "internalType": "struct SharedChain.ProjectRequest",
          "name": "_projectRequest",
          "type": "tuple"
        },
        {
          "indexed": true,
          "internalType": "address",
          "name": "_projectAddress",
          "type": "address"
        }
      ],
      "name": "ProjectRequestEvent",
      "type": "event"
    },
    {
      "anonymous": false,
      "inputs": [
        {
          "components": [
            {
              "internalType": "uint256",
              "name": "_index",
              "type": "uint256"
            },
            {
              "internalType": "uint256",
              "name": "_indexProjectRequest",
              "type": "uint256"
            },
            {
              "internalType": "string",
              "name": "_title",
              "type": "string"
            },
            {
              "internalType": "enum SharedChain.RequestStatus",
              "name": "_requestStatus",
              "type": "uint8"
            },
            {
              "internalType": "enum SharedChain.ProjectStatus",
              "name": "_projectStatus",
              "type": "uint8"
            },
            {
              "internalType": "enum SharedChain.RequestType",
              "name": "_requestType",
              "type": "uint8"
            },
            {
              "internalType": "address",
              "name": "_projectAddress",
              "type": "address"
            },
            {
              "internalType": "address",
              "name": "_signerAddress",
              "type": "address"
            },
            {
              "internalType": "address",
              "name": "_requestAddress",
              "type": "address"
            },
            {
              "internalType": "uint256",
              "name": "_timestamp",
              "type": "uint256"
            },
            {
              "internalType": "string",
              "name": "_signature",
              "type": "string"
            }
          ],
          "indexed": false,
          "internalType": "struct SharedChain.Request",
          "name": "_request",
          "type": "tuple"
        },
        {
          "indexed": true,
          "internalType": "address",
          "name": "_requestAddress",
          "type": "address"
        }
      ],
      "name": "RequestEvent",
      "type": "event"
    },
    {
      "anonymous": false,
      "inputs": [
        {
          "components": [
            {
              "internalType": "uint256",
              "name": "_index",
              "type": "uint256"
            },
            {
              "internalType": "string",
              "name": "_username",
              "type": "string"
            },
            {
              "internalType": "bytes32",
              "name": "_email",
              "type": "bytes32"
            },
            {
              "internalType": "bytes32",
              "name": "_firstname",
              "type": "bytes32"
            },
            {
              "internalType": "bytes32",
              "name": "_lastname",
              "type": "bytes32"
            },
            {
              "internalType": "enum SharedChain.Roles",
              "name": "_role",
              "type": "uint8"
            },
            {
              "internalType": "address",
              "name": "_walletAddress",
              "type": "address"
            },
            {
              "internalType": "uint256",
              "name": "_timestamp",
              "type": "uint256"
            },
            {
              "internalType": "string",
              "name": "_signature",
              "type": "string"
            }
          ],
          "indexed": false,
          "internalType": "struct SharedChain.User",
          "name": "_user",
          "type": "tuple"
        },
        {
          "indexed": true,
          "internalType": "address",
          "name": "_walletAddress",
          "type": "address"
        }
      ],
      "name": "UserEvent",
      "type": "event"
    },
    {
      "inputs": [
        {
          "internalType": "uint256",
          "name": "",
          "type": "uint256"
        }
      ],
      "name": "projectRequests",
      "outputs": [
        {
          "internalType": "uint256",
          "name": "_index",
          "type": "uint256"
        },
        {
          "internalType": "string",
          "name": "_title",
          "type": "string"
        },
        {
          "internalType": "string",
          "name": "_comments",
          "type": "string"
        },
        {
          "internalType": "enum SharedChain.ProjectStatus",
          "name": "_status",
          "type": "uint8"
        },
        {
          "internalType": "enum SharedChain.RequestStatus",
          "name": "_requestStatus",
          "type": "uint8"
        },
        {
          "internalType": "address",
          "name": "_projectAddress",
          "type": "address"
        },
        {
          "internalType": "address",
          "name": "_signerAddress",
          "type": "address"
        },
        {
          "internalType": "address",
          "name": "_requestAddress",
          "type": "address"
        },
        {
          "internalType": "uint256",
          "name": "_timestamp",
          "type": "uint256"
        },
        {
          "internalType": "string",
          "name": "_signature",
          "type": "string"
        }
      ],
      "stateMutability": "view",
      "type": "function",
      "constant": true
    },
    {
      "inputs": [
        {
          "internalType": "uint256",
          "name": "",
          "type": "uint256"
        }
      ],
      "name": "projectRequestsAddress",
      "outputs": [
        {
          "internalType": "address",
          "name": "",
          "type": "address"
        }
      ],
      "stateMutability": "view",
      "type": "function",
      "constant": true
    },
    {
      "inputs": [],
      "name": "projectRequestsCounter",
      "outputs": [
        {
          "internalType": "uint256",
          "name": "",
          "type": "uint256"
        }
      ],
      "stateMutability": "view",
      "type": "function",
      "constant": true
    },
    {
      "inputs": [
        {
          "internalType": "address",
          "name": "",
          "type": "address"
        }
      ],
      "name": "projects",
      "outputs": [
        {
          "internalType": "uint256",
          "name": "_index",
          "type": "uint256"
        },
        {
          "internalType": "string",
          "name": "_name",
          "type": "string"
        },
        {
          "internalType": "enum SharedChain.ProjectStatus",
          "name": "_status",
          "type": "uint8"
        },
        {
          "internalType": "string",
          "name": "_ipfsFileCID",
          "type": "string"
        },
        {
          "internalType": "address",
          "name": "_projectAddress",
          "type": "address"
        },
        {
          "internalType": "address",
          "name": "_signerAddress",
          "type": "address"
        },
        {
          "internalType": "uint256",
          "name": "_timestamp",
          "type": "uint256"
        },
        {
          "internalType": "string",
          "name": "_signature",
          "type": "string"
        }
      ],
      "stateMutability": "view",
      "type": "function",
      "constant": true
    },
    {
      "inputs": [
        {
          "internalType": "uint256",
          "name": "",
          "type": "uint256"
        }
      ],
      "name": "projectsAddress",
      "outputs": [
        {
          "internalType": "address",
          "name": "",
          "type": "address"
        }
      ],
      "stateMutability": "view",
      "type": "function",
      "constant": true
    },
    {
      "inputs": [],
      "name": "projectsCounter",
      "outputs": [
        {
          "internalType": "uint256",
          "name": "",
          "type": "uint256"
        }
      ],
      "stateMutability": "view",
      "type": "function",
      "constant": true
    },
    {
      "inputs": [
        {
          "internalType": "uint256",
          "name": "",
          "type": "uint256"
        }
      ],
      "name": "requests",
      "outputs": [
        {
          "internalType": "uint256",
          "name": "_index",
          "type": "uint256"
        },
        {
          "internalType": "uint256",
          "name": "_indexProjectRequest",
          "type": "uint256"
        },
        {
          "internalType": "string",
          "name": "_title",
          "type": "string"
        },
        {
          "internalType": "enum SharedChain.RequestStatus",
          "name": "_requestStatus",
          "type": "uint8"
        },
        {
          "internalType": "enum SharedChain.ProjectStatus",
          "name": "_projectStatus",
          "type": "uint8"
        },
        {
          "internalType": "enum SharedChain.RequestType",
          "name": "_requestType",
          "type": "uint8"
        },
        {
          "internalType": "address",
          "name": "_projectAddress",
          "type": "address"
        },
        {
          "internalType": "address",
          "name": "_signerAddress",
          "type": "address"
        },
        {
          "internalType": "address",
          "name": "_requestAddress",
          "type": "address"
        },
        {
          "internalType": "uint256",
          "name": "_timestamp",
          "type": "uint256"
        },
        {
          "internalType": "string",
          "name": "_signature",
          "type": "string"
        }
      ],
      "stateMutability": "view",
      "type": "function",
      "constant": true
    },
    {
      "inputs": [],
      "name": "requestsCounter",
      "outputs": [
        {
          "internalType": "uint256",
          "name": "",
          "type": "uint256"
        }
      ],
      "stateMutability": "view",
      "type": "function",
      "constant": true
    },
    {
      "inputs": [
        {
          "internalType": "string",
          "name": "_name",
          "type": "string"
        },
        {
          "internalType": "uint256",
          "name": "_index",
          "type": "uint256"
        }
      ],
      "name": "createUniqueProjectAddress",
      "outputs": [
        {
          "internalType": "address",
          "name": "",
          "type": "address"
        }
      ],
      "stateMutability": "view",
      "type": "function",
      "constant": true
    },
    {
      "inputs": [
        {
          "internalType": "address",
          "name": "_projectAddress",
          "type": "address"
        },
        {
          "internalType": "string",
          "name": "_name",
          "type": "string"
        },
        {
          "internalType": "uint256",
          "name": "_status",
          "type": "uint256"
        },
        {
          "internalType": "string",
          "name": "_ipfsFileCID",
          "type": "string"
        },
        {
          "internalType": "string",
          "name": "_signature",
          "type": "string"
        }
      ],
      "name": "createProject",
      "outputs": [],
      "stateMutability": "nonpayable",
      "type": "function"
    },
    {
      "inputs": [
        {
          "internalType": "address",
          "name": "_projectAddress",
          "type": "address"
        },
        {
          "internalType": "string",
          "name": "_ipfsFileCID",
          "type": "string"
        },
        {
          "internalType": "string",
          "name": "_signature",
          "type": "string"
        }
      ],
      "name": "updateProject",
      "outputs": [],
      "stateMutability": "nonpayable",
      "type": "function"
    },
    {
      "inputs": [
        {
          "internalType": "address",
          "name": "_address",
          "type": "address"
        }
      ],
      "name": "getProjectInfo",
      "outputs": [
        {
          "components": [
            {
              "internalType": "uint256",
              "name": "_index",
              "type": "uint256"
            },
            {
              "internalType": "string",
              "name": "_name",
              "type": "string"
            },
            {
              "internalType": "enum SharedChain.ProjectStatus",
              "name": "_status",
              "type": "uint8"
            },
            {
              "internalType": "string",
              "name": "_ipfsFileCID",
              "type": "string"
            },
            {
              "internalType": "address",
              "name": "_projectAddress",
              "type": "address"
            },
            {
              "internalType": "address",
              "name": "_signerAddress",
              "type": "address"
            },
            {
              "internalType": "uint256",
              "name": "_timestamp",
              "type": "uint256"
            },
            {
              "internalType": "string",
              "name": "_signature",
              "type": "string"
            }
          ],
          "internalType": "struct SharedChain.Project",
          "name": "",
          "type": "tuple"
        }
      ],
      "stateMutability": "view",
      "type": "function",
      "constant": true
    },
    {
      "inputs": [],
      "name": "getAllProjects",
      "outputs": [
        {
          "components": [
            {
              "internalType": "uint256",
              "name": "_index",
              "type": "uint256"
            },
            {
              "internalType": "string",
              "name": "_name",
              "type": "string"
            },
            {
              "internalType": "enum SharedChain.ProjectStatus",
              "name": "_status",
              "type": "uint8"
            },
            {
              "internalType": "string",
              "name": "_ipfsFileCID",
              "type": "string"
            },
            {
              "internalType": "address",
              "name": "_projectAddress",
              "type": "address"
            },
            {
              "internalType": "address",
              "name": "_signerAddress",
              "type": "address"
            },
            {
              "internalType": "uint256",
              "name": "_timestamp",
              "type": "uint256"
            },
            {
              "internalType": "string",
              "name": "_signature",
              "type": "string"
            }
          ],
          "internalType": "struct SharedChain.Project[]",
          "name": "",
          "type": "tuple[]"
        }
      ],
      "stateMutability": "view",
      "type": "function",
      "constant": true
    },
    {
      "inputs": [
        {
          "internalType": "string",
          "name": "_title",
          "type": "string"
        },
        {
          "internalType": "uint256",
          "name": "_index",
          "type": "uint256"
        }
      ],
      "name": "createUniqueProjectRequestAddress",
      "outputs": [
        {
          "internalType": "address",
          "name": "",
          "type": "address"
        }
      ],
      "stateMutability": "view",
      "type": "function",
      "constant": true
    },
    {
      "inputs": [
        {
          "internalType": "string",
          "name": "_title",
          "type": "string"
        },
        {
          "internalType": "uint256",
          "name": "_status",
          "type": "uint256"
        },
        {
          "internalType": "uint256",
          "name": "_requestStatus",
          "type": "uint256"
        },
        {
          "internalType": "address",
          "name": "_projectAddress",
          "type": "address"
        },
        {
          "internalType": "address",
          "name": "_projectReqAddress",
          "type": "address"
        },
        {
          "internalType": "string",
          "name": "_signature",
          "type": "string"
        }
      ],
      "name": "createProjectRequest",
      "outputs": [],
      "stateMutability": "nonpayable",
      "type": "function"
    },
    {
      "inputs": [],
      "name": "getAllProjectRequests",
      "outputs": [
        {
          "components": [
            {
              "internalType": "uint256",
              "name": "_index",
              "type": "uint256"
            },
            {
              "internalType": "string",
              "name": "_title",
              "type": "string"
            },
            {
              "internalType": "string",
              "name": "_comments",
              "type": "string"
            },
            {
              "internalType": "enum SharedChain.ProjectStatus",
              "name": "_status",
              "type": "uint8"
            },
            {
              "internalType": "enum SharedChain.RequestStatus",
              "name": "_requestStatus",
              "type": "uint8"
            },
            {
              "internalType": "address",
              "name": "_projectAddress",
              "type": "address"
            },
            {
              "internalType": "address",
              "name": "_signerAddress",
              "type": "address"
            },
            {
              "internalType": "address",
              "name": "_requestAddress",
              "type": "address"
            },
            {
              "internalType": "uint256",
              "name": "_timestamp",
              "type": "uint256"
            },
            {
              "internalType": "string",
              "name": "_signature",
              "type": "string"
            }
          ],
          "internalType": "struct SharedChain.ProjectRequest[]",
          "name": "",
          "type": "tuple[]"
        }
      ],
      "stateMutability": "view",
      "type": "function",
      "constant": true
    },
    {
      "inputs": [
        {
          "internalType": "address",
          "name": "_projectAddress",
          "type": "address"
        }
      ],
      "name": "getLastProjectRequest",
      "outputs": [
        {
          "components": [
            {
              "internalType": "uint256",
              "name": "_index",
              "type": "uint256"
            },
            {
              "internalType": "string",
              "name": "_title",
              "type": "string"
            },
            {
              "internalType": "string",
              "name": "_comments",
              "type": "string"
            },
            {
              "internalType": "enum SharedChain.ProjectStatus",
              "name": "_status",
              "type": "uint8"
            },
            {
              "internalType": "enum SharedChain.RequestStatus",
              "name": "_requestStatus",
              "type": "uint8"
            },
            {
              "internalType": "address",
              "name": "_projectAddress",
              "type": "address"
            },
            {
              "internalType": "address",
              "name": "_signerAddress",
              "type": "address"
            },
            {
              "internalType": "address",
              "name": "_requestAddress",
              "type": "address"
            },
            {
              "internalType": "uint256",
              "name": "_timestamp",
              "type": "uint256"
            },
            {
              "internalType": "string",
              "name": "_signature",
              "type": "string"
            }
          ],
          "internalType": "struct SharedChain.ProjectRequest",
          "name": "",
          "type": "tuple"
        }
      ],
      "stateMutability": "view",
      "type": "function",
      "constant": true
    },
    {
      "inputs": [
        {
          "internalType": "uint256",
          "name": "_index",
          "type": "uint256"
        },
        {
          "internalType": "uint256",
          "name": "_indexProjectRequest",
          "type": "uint256"
        },
        {
          "internalType": "string",
          "name": "_comments",
          "type": "string"
        },
        {
          "internalType": "uint256",
          "name": "_requestStatus",
          "type": "uint256"
        },
        {
          "internalType": "uint256",
          "name": "_projectStatus",
          "type": "uint256"
        },
        {
          "internalType": "address",
          "name": "_projectAddress",
          "type": "address"
        },
        {
          "internalType": "string",
          "name": "_signature",
          "type": "string"
        }
      ],
      "name": "updateRequest",
      "outputs": [],
      "stateMutability": "nonpayable",
      "type": "function"
    },
    {
      "inputs": [],
      "name": "getAllRequests",
      "outputs": [
        {
          "components": [
            {
              "internalType": "uint256",
              "name": "_index",
              "type": "uint256"
            },
            {
              "internalType": "uint256",
              "name": "_indexProjectRequest",
              "type": "uint256"
            },
            {
              "internalType": "string",
              "name": "_title",
              "type": "string"
            },
            {
              "internalType": "enum SharedChain.RequestStatus",
              "name": "_requestStatus",
              "type": "uint8"
            },
            {
              "internalType": "enum SharedChain.ProjectStatus",
              "name": "_projectStatus",
              "type": "uint8"
            },
            {
              "internalType": "enum SharedChain.RequestType",
              "name": "_requestType",
              "type": "uint8"
            },
            {
              "internalType": "address",
              "name": "_projectAddress",
              "type": "address"
            },
            {
              "internalType": "address",
              "name": "_signerAddress",
              "type": "address"
            },
            {
              "internalType": "address",
              "name": "_requestAddress",
              "type": "address"
            },
            {
              "internalType": "uint256",
              "name": "_timestamp",
              "type": "uint256"
            },
            {
              "internalType": "string",
              "name": "_signature",
              "type": "string"
            }
          ],
          "internalType": "struct SharedChain.Request[]",
          "name": "",
          "type": "tuple[]"
        }
      ],
      "stateMutability": "view",
      "type": "function",
      "constant": true
    }
  ],
  "bytecode": "0x60806040526000600355600060065560006009553480156200002057600080fd5b50336000806101000a81548173ffffffffffffffffffffffffffffffffffffffff021916908373ffffffffffffffffffffffffffffffffffffffff1602179055506040516200006f90620000d3565b604051809103906000f0801580156200008c573d6000803e3d6000fd5b50600160006101000a81548173ffffffffffffffffffffffffffffffffffffffff021916908373ffffffffffffffffffffffffffffffffffffffff160217905550620000e1565b611d26806200517283390190565b61508180620000f16000396000f3fe608060405234801561001057600080fd5b50600436106101215760003560e01c806380d03829116100ad578063cc1ee4db11610071578063cc1ee4db14610382578063e1592c0d146103a0578063fb1a002a146103bc578063fbdd6460146103da578063fe360ea5146103f657610121565b806380d038291461029e57806381d12c58146102bc578063840e78fd146102f6578063844855631461032d578063c19ded131461034957610121565b806347ee45b9116100f457806347ee45b9146101c0578063663c2269146101f057806376c932e01461020e57806378e8cd851461023e5780637bc406ec1461026e57610121565b80630b28789214610126578063191e1645146101565780632d757d8e14610186578063400003db146101a2575b600080fd5b610140600480360381019061013b91906133a8565b610414565b60405161014d919061363d565b60405180910390f35b610170600480360381019061016b91906137c0565b610639565b60405161017d919061382b565b60405180910390f35b6101a0600480360381019061019b9190613846565b610691565b005b6101aa6109f8565b6040516101b79190613aca565b60405180910390f35b6101da60048036038101906101d591906133a8565b610e15565b6040516101e79190613baa565b60405180910390f35b6101f8611190565b6040516102059190613bdb565b60405180910390f35b61022860048036038101906102239190613bf6565b611196565b604051610235919061382b565b60405180910390f35b61025860048036038101906102539190613bf6565b6111d5565b604051610265919061382b565b60405180910390f35b610288600480360381019061028391906137c0565b611214565b604051610295919061382b565b60405180910390f35b6102a661126c565b6040516102b39190613da3565b60405180910390f35b6102d660048036038101906102d19190613bf6565b611668565b6040516102ed9b9a99989796959493929190613e75565b60405180910390f35b610310600480360381019061030b91906133a8565b611859565b604051610324989796959493929190613f2e565b60405180910390f35b61034760048036038101906103429190613fc1565b611a86565b005b610363600480360381019061035e9190613bf6565b611edc565b6040516103799a99989796959493929190614090565b60405180910390f35b61038a612142565b6040516103979190613bdb565b60405180910390f35b6103ba60048036038101906103b59190614141565b612148565b005b6103c46123b8565b6040516103d19190614393565b60405180910390f35b6103f460048036038101906103ef91906143b5565b612788565b005b6103fe612bef565b60405161040b9190613bdb565b60405180910390f35b61041c613085565b610424613085565b6000600654111561062f576000600160065461044091906144a9565b90505b6000811061062d576005600082815260200190815260200160002060030160029054906101000a900473ffffffffffffffffffffffffffffffffffffffff1673ffffffffffffffffffffffffffffffffffffffff168473ffffffffffffffffffffffffffffffffffffffff16141561061a57604051806101400160405280600081526020016040518060200160405280600081525081526020016040518060200160405280600081525081526020016005600084815260200190815260200160002060030160009054906101000a900460ff16600481111561052857610527613487565b5b81526020016005600084815260200190815260200160002060030160019054906101000a900460ff16600281111561056357610562613487565b5b81526020016005600084815260200190815260200160002060030160029054906101000a900473ffffffffffffffffffffffffffffffffffffffff1673ffffffffffffffffffffffffffffffffffffffff168152602001600073ffffffffffffffffffffffffffffffffffffffff168152602001600073ffffffffffffffffffffffffffffffffffffffff168152602001600081526020016040518060200160405280600081525081525091508192505050610634565b8080610625906144dd565b915050610443565b505b809150505b919050565b60008260008054906101000a900473ffffffffffffffffffffffffffffffffffffffff1683604051602001610670939291906145ac565b6040516020818303038152906040528051906020012060001c905092915050565b8360028111156106a4576106a3613487565b5b6008600089815260200190815260200160002060030160006101000a81548160ff021916908360028111156106dc576106db613487565b5b02179055508060086000898152602001908152602001600020600701908051906020019061070b92919061313e565b506008600088815260200190815260200160002060050160009054906101000a900473ffffffffffffffffffffffffffffffffffffffff1673ffffffffffffffffffffffffffffffffffffffff167f4a2aa9c37fdc971a24d9081164299dd70beb053eacacaeb4e59d5d998334ef11600860008a815260200190815260200160002060405161079a919061493d565b60405180910390a2846005600088815260200190815260200160002060020190805190602001906107cc92919061313e565b508360028111156107e0576107df613487565b5b6005600088815260200190815260200160002060030160016101000a81548160ff0219169083600281111561081857610817613487565b5b02179055508060056000888152602001908152602001600020600701908051906020019061084792919061313e565b508173ffffffffffffffffffffffffffffffffffffffff167fb503855b01edd8caf0051e68bacef096056daa0d24478362eaa8a4f4b8a7130e600560008981526020019081526020016000206040516108a09190614ad1565b60405180910390a28360028111156108bb576108ba613487565b5b60028111156108cd576108cc613487565b5b6002808111156108e0576108df613487565b5b14156109ef578260048111156108f9576108f8613487565b5b600260008473ffffffffffffffffffffffffffffffffffffffff1673ffffffffffffffffffffffffffffffffffffffff16815260200190815260200160002060020160006101000a81548160ff0219169083600481111561095d5761095c613487565b5b02179055508173ffffffffffffffffffffffffffffffffffffffff167fac85378acf27ea180ea9b66d81dac89bcc984812edf7111c9413f708da4ca37a600260008573ffffffffffffffffffffffffffffffffffffffff1673ffffffffffffffffffffffffffffffffffffffff1681526020019081526020016000206040516109e69190614be7565b60405180910390a25b50505050505050565b60608060006006541415610a0f5780915050610e12565b60065467ffffffffffffffff811115610a2b57610a2a613669565b5b604051908082528060200260200182016040528015610a6457816020015b610a51613085565b815260200190600190039081610a495790505b50905060005b600654811015610e0c576000600560008381526020019081526020016000209050806040518061014001604052908160008201548152602001600182018054610ab290614645565b80601f0160208091040260200160405190810160405280929190818152602001828054610ade90614645565b8015610b2b5780601f10610b0057610100808354040283529160200191610b2b565b820191906000526020600020905b815481529060010190602001808311610b0e57829003601f168201915b50505050508152602001600282018054610b4490614645565b80601f0160208091040260200160405190810160405280929190818152602001828054610b7090614645565b8015610bbd5780601f10610b9257610100808354040283529160200191610bbd565b820191906000526020600020905b815481529060010190602001808311610ba057829003601f168201915b505050505081526020016003820160009054906101000a900460ff166004811115610beb57610bea613487565b5b6004811115610bfd57610bfc613487565b5b81526020016003820160019054906101000a900460ff166002811115610c2657610c25613487565b5b6002811115610c3857610c37613487565b5b81526020016003820160029054906101000a900473ffffffffffffffffffffffffffffffffffffffff1673ffffffffffffffffffffffffffffffffffffffff1673ffffffffffffffffffffffffffffffffffffffff1681526020016004820160009054906101000a900473ffffffffffffffffffffffffffffffffffffffff1673ffffffffffffffffffffffffffffffffffffffff1673ffffffffffffffffffffffffffffffffffffffff1681526020016005820160009054906101000a900473ffffffffffffffffffffffffffffffffffffffff1673ffffffffffffffffffffffffffffffffffffffff1673ffffffffffffffffffffffffffffffffffffffff16815260200160068201548152602001600782018054610d5890614645565b80601f0160208091040260200160405190810160405280929190818152602001828054610d8490614645565b8015610dd15780601f10610da657610100808354040283529160200191610dd1565b820191906000526020600020905b815481529060010190602001808311610db457829003601f168201915b505050505081525050838381518110610ded57610dec614c09565b5b6020026020010181905250508080610e0490614c38565b915050610a6a565b50809150505b90565b610e1d6131c4565b600073ffffffffffffffffffffffffffffffffffffffff163373ffffffffffffffffffffffffffffffffffffffff161415610e8d576040517f08c379a0000000000000000000000000000000000000000000000000000000008152600401610e8490614ccd565b60405180910390fd5b600260008373ffffffffffffffffffffffffffffffffffffffff1673ffffffffffffffffffffffffffffffffffffffff1681526020019081526020016000206040518061010001604052908160008201548152602001600182018054610ef290614645565b80601f0160208091040260200160405190810160405280929190818152602001828054610f1e90614645565b8015610f6b5780601f10610f4057610100808354040283529160200191610f6b565b820191906000526020600020905b815481529060010190602001808311610f4e57829003601f168201915b505050505081526020016002820160009054906101000a900460ff166004811115610f9957610f98613487565b5b6004811115610fab57610faa613487565b5b8152602001600382018054610fbf90614645565b80601f0160208091040260200160405190810160405280929190818152602001828054610feb90614645565b80156110385780601f1061100d57610100808354040283529160200191611038565b820191906000526020600020905b81548152906001019060200180831161101b57829003601f168201915b505050505081526020016004820160009054906101000a900473ffffffffffffffffffffffffffffffffffffffff1673ffffffffffffffffffffffffffffffffffffffff1673ffffffffffffffffffffffffffffffffffffffff1681526020016005820160009054906101000a900473ffffffffffffffffffffffffffffffffffffffff1673ffffffffffffffffffffffffffffffffffffffff1673ffffffffffffffffffffffffffffffffffffffff1681526020016006820154815260200160078201805461110790614645565b80601f016020809104026020016040519081016040528092919081815260200182805461113390614645565b80156111805780601f1061115557610100808354040283529160200191611180565b820191906000526020600020905b81548152906001019060200180831161116357829003601f168201915b5050505050815250509050919050565b60095481565b600481815481106111a657600080fd5b906000526020600020016000915054906101000a900473ffffffffffffffffffffffffffffffffffffffff1681565b600781815481106111e557600080fd5b906000526020600020016000915054906101000a900473ffffffffffffffffffffffffffffffffffffffff1681565b60008260008054906101000a900473ffffffffffffffffffffffffffffffffffffffff168360405160200161124b939291906145ac565b6040516020818303038152906040528051906020012060001c905092915050565b606080600060035414156112835780915050611665565b60035467ffffffffffffffff81111561129f5761129e613669565b5b6040519080825280602002602001820160405280156112d857816020015b6112c56131c4565b8152602001906001900390816112bd5790505b50905060005b60035481101561165f576000600482815481106112fe576112fd614c09565b5b9060005260206000200160009054906101000a900473ffffffffffffffffffffffffffffffffffffffff1690506000600260008373ffffffffffffffffffffffffffffffffffffffff1673ffffffffffffffffffffffffffffffffffffffff168152602001908152602001600020905080604051806101000160405290816000820154815260200160018201805461139590614645565b80601f01602080910402602001604051908101604052809291908181526020018280546113c190614645565b801561140e5780601f106113e35761010080835404028352916020019161140e565b820191906000526020600020905b8154815290600101906020018083116113f157829003601f168201915b505050505081526020016002820160009054906101000a900460ff16600481111561143c5761143b613487565b5b600481111561144e5761144d613487565b5b815260200160038201805461146290614645565b80601f016020809104026020016040519081016040528092919081815260200182805461148e90614645565b80156114db5780601f106114b0576101008083540402835291602001916114db565b820191906000526020600020905b8154815290600101906020018083116114be57829003601f168201915b505050505081526020016004820160009054906101000a900473ffffffffffffffffffffffffffffffffffffffff1673ffffffffffffffffffffffffffffffffffffffff1673ffffffffffffffffffffffffffffffffffffffff1681526020016005820160009054906101000a900473ffffffffffffffffffffffffffffffffffffffff1673ffffffffffffffffffffffffffffffffffffffff1673ffffffffffffffffffffffffffffffffffffffff168152602001600682015481526020016007820180546115aa90614645565b80601f01602080910402602001604051908101604052809291908181526020018280546115d690614645565b80156116235780601f106115f857610100808354040283529160200191611623565b820191906000526020600020905b81548152906001019060200180831161160657829003601f168201915b50505050508152505084848151811061163f5761163e614c09565b5b60200260200101819052505050808061165790614c38565b9150506112de565b50809150505b90565b600860205280600052604060002060009150905080600001549080600101549080600201805461169790614645565b80601f01602080910402602001604051908101604052809291908181526020018280546116c390614645565b80156117105780601f106116e557610100808354040283529160200191611710565b820191906000526020600020905b8154815290600101906020018083116116f357829003601f168201915b5050505050908060030160009054906101000a900460ff16908060030160019054906101000a900460ff16908060030160029054906101000a900460ff16908060030160039054906101000a900473ffffffffffffffffffffffffffffffffffffffff16908060040160009054906101000a900473ffffffffffffffffffffffffffffffffffffffff16908060050160009054906101000a900473ffffffffffffffffffffffffffffffffffffffff16908060060154908060070180546117d690614645565b80601f016020809104026020016040519081016040528092919081815260200182805461180290614645565b801561184f5780601f106118245761010080835404028352916020019161184f565b820191906000526020600020905b81548152906001019060200180831161183257829003601f168201915b505050505090508b565b600260205280600052604060002060009150905080600001549080600101805461188290614645565b80601f01602080910402602001604051908101604052809291908181526020018280546118ae90614645565b80156118fb5780601f106118d0576101008083540402835291602001916118fb565b820191906000526020600020905b8154815290600101906020018083116118de57829003601f168201915b5050505050908060020160009054906101000a900460ff169080600301805461192390614645565b80601f016020809104026020016040519081016040528092919081815260200182805461194f90614645565b801561199c5780601f106119715761010080835404028352916020019161199c565b820191906000526020600020905b81548152906001019060200180831161197f57829003601f168201915b5050505050908060040160009054906101000a900473ffffffffffffffffffffffffffffffffffffffff16908060050160009054906101000a900473ffffffffffffffffffffffffffffffffffffffff1690806006015490806007018054611a0390614645565b80601f0160208091040260200160405190810160405280929190818152602001828054611a2f90614645565b8015611a7c5780601f10611a5157610100808354040283529160200191611a7c565b820191906000526020600020905b815481529060010190602001808311611a5f57829003601f168201915b5050505050905088565b6000600160009054906101000a900473ffffffffffffffffffffffffffffffffffffffff1673ffffffffffffffffffffffffffffffffffffffff16636386c1c760008054906101000a900473ffffffffffffffffffffffffffffffffffffffff166040518263ffffffff1660e01b8152600401611b03919061382b565b600060405180830381865afa158015611b20573d6000803e3d6000fd5b505050506040513d6000823e3d601f19601f82011682018060405250810190611b499190614f04565b905060016003811115611b5f57611b5e613487565b5b8160a001516003811115611b7657611b75613487565b5b14611bb6576040517f08c379a0000000000000000000000000000000000000000000000000000000008152600401611bad90614fbf565b60405180910390fd5b6040518061010001604052806003548152602001868152602001856004811115611be357611be2613487565b5b6004811115611bf557611bf4613487565b5b81526020018481526020018773ffffffffffffffffffffffffffffffffffffffff16815260200160008054906101000a900473ffffffffffffffffffffffffffffffffffffffff1673ffffffffffffffffffffffffffffffffffffffff16815260200142815260200183815250600260008873ffffffffffffffffffffffffffffffffffffffff1673ffffffffffffffffffffffffffffffffffffffff168152602001908152602001600020600082015181600001556020820151816001019080519060200190611cc792919061313e565b5060408201518160020160006101000a81548160ff02191690836004811115611cf357611cf2613487565b5b02179055506060820151816003019080519060200190611d1492919061313e565b5060808201518160040160006101000a81548173ffffffffffffffffffffffffffffffffffffffff021916908373ffffffffffffffffffffffffffffffffffffffff16021790555060a08201518160050160006101000a81548173ffffffffffffffffffffffffffffffffffffffff021916908373ffffffffffffffffffffffffffffffffffffffff16021790555060c0820151816006015560e0820151816007019080519060200190611dc992919061313e565b509050508573ffffffffffffffffffffffffffffffffffffffff167fac85378acf27ea180ea9b66d81dac89bcc984812edf7111c9413f708da4ca37a600260008973ffffffffffffffffffffffffffffffffffffffff1673ffffffffffffffffffffffffffffffffffffffff168152602001908152602001600020604051611e519190614be7565b60405180910390a26004869080600181540180825580915050600190039060005260206000200160009091909190916101000a81548173ffffffffffffffffffffffffffffffffffffffff021916908373ffffffffffffffffffffffffffffffffffffffff16021790555060036000815480929190611ecf90614c38565b9190505550505050505050565b6005602052806000526040600020600091509050806000015490806001018054611f0590614645565b80601f0160208091040260200160405190810160405280929190818152602001828054611f3190614645565b8015611f7e5780601f10611f5357610100808354040283529160200191611f7e565b820191906000526020600020905b815481529060010190602001808311611f6157829003601f168201915b505050505090806002018054611f9390614645565b80601f0160208091040260200160405190810160405280929190818152602001828054611fbf90614645565b801561200c5780601f10611fe15761010080835404028352916020019161200c565b820191906000526020600020905b815481529060010190602001808311611fef57829003601f168201915b5050505050908060030160009054906101000a900460ff16908060030160019054906101000a900460ff16908060030160029054906101000a900473ffffffffffffffffffffffffffffffffffffffff16908060040160009054906101000a900473ffffffffffffffffffffffffffffffffffffffff16908060050160009054906101000a900473ffffffffffffffffffffffffffffffffffffffff16908060060154908060070180546120bf90614645565b80601f01602080910402602001604051908101604052809291908181526020018280546120eb90614645565b80156121385780601f1061210d57610100808354040283529160200191612138565b820191906000526020600020905b81548152906001019060200180831161211b57829003601f168201915b505050505090508a565b60065481565b6000600160009054906101000a900473ffffffffffffffffffffffffffffffffffffffff1673ffffffffffffffffffffffffffffffffffffffff16636386c1c760008054906101000a900473ffffffffffffffffffffffffffffffffffffffff166040518263ffffffff1660e01b81526004016121c5919061382b565b600060405180830381865afa1580156121e2573d6000803e3d6000fd5b505050506040513d6000823e3d601f19601f8201168201806040525081019061220b9190614f04565b90506001600381111561222157612220613487565b5b8160a00151600381111561223857612237613487565b5b14612278576040517f08c379a000000000000000000000000000000000000000000000000000000000815260040161226f90614fbf565b60405180910390fd5b82600260008673ffffffffffffffffffffffffffffffffffffffff1673ffffffffffffffffffffffffffffffffffffffff16815260200190815260200160002060030190805190602001906122ce92919061313e565b5081600260008673ffffffffffffffffffffffffffffffffffffffff1673ffffffffffffffffffffffffffffffffffffffff168152602001908152602001600020600701908051906020019061232592919061313e565b508373ffffffffffffffffffffffffffffffffffffffff167fac85378acf27ea180ea9b66d81dac89bcc984812edf7111c9413f708da4ca37a600260008773ffffffffffffffffffffffffffffffffffffffff1673ffffffffffffffffffffffffffffffffffffffff1681526020019081526020016000206040516123aa9190614be7565b60405180910390a250505050565b606080600060095414156123cf5780915050612785565b60095467ffffffffffffffff8111156123eb576123ea613669565b5b60405190808252806020026020018201604052801561242457816020015b612411613247565b8152602001906001900390816124095790505b50905060005b60095481101561277f5760006008600083815260200190815260200160002090508060405180610160016040529081600082015481526020016001820154815260200160028201805461247c90614645565b80601f01602080910402602001604051908101604052809291908181526020018280546124a890614645565b80156124f55780601f106124ca576101008083540402835291602001916124f5565b820191906000526020600020905b8154815290600101906020018083116124d857829003601f168201915b505050505081526020016003820160009054906101000a900460ff16600281111561252357612522613487565b5b600281111561253557612534613487565b5b81526020016003820160019054906101000a900460ff16600481111561255e5761255d613487565b5b60048111156125705761256f613487565b5b81526020016003820160029054906101000a900460ff16600181111561259957612598613487565b5b60018111156125ab576125aa613487565b5b81526020016003820160039054906101000a900473ffffffffffffffffffffffffffffffffffffffff1673ffffffffffffffffffffffffffffffffffffffff1673ffffffffffffffffffffffffffffffffffffffff1681526020016004820160009054906101000a900473ffffffffffffffffffffffffffffffffffffffff1673ffffffffffffffffffffffffffffffffffffffff1673ffffffffffffffffffffffffffffffffffffffff1681526020016005820160009054906101000a900473ffffffffffffffffffffffffffffffffffffffff1673ffffffffffffffffffffffffffffffffffffffff1673ffffffffffffffffffffffffffffffffffffffff168152602001600682015481526020016007820180546126cb90614645565b80601f01602080910402602001604051908101604052809291908181526020018280546126f790614645565b80156127445780601f1061271957610100808354040283529160200191612744565b820191906000526020600020905b81548152906001019060200180831161272757829003601f168201915b5050505050815250508383815181106127605761275f614c09565b5b602002602001018190525050808061277790614c38565b91505061242a565b50809150505b90565b6000600481111561279c5761279b613487565b5b600260008573ffffffffffffffffffffffffffffffffffffffff1673ffffffffffffffffffffffffffffffffffffffff16815260200190815260200160002060020160009054906101000a900460ff1660048111156127fe576127fd613487565b5b1461283e576040517f08c379a00000000000000000000000000000000000000000000000000000000081526004016128359061502b565b60405180910390fd5b60405180610140016040528060065481526020018781526020016040518060200160405280600081525081526020018660048111156128805761287f613487565b5b600481111561289257612891613487565b5b81526020018560028111156128aa576128a9613487565b5b60028111156128bc576128bb613487565b5b81526020018473ffffffffffffffffffffffffffffffffffffffff16815260200160008054906101000a900473ffffffffffffffffffffffffffffffffffffffff1673ffffffffffffffffffffffffffffffffffffffff1681526020018373ffffffffffffffffffffffffffffffffffffffff1681526020014281526020018281525060056000600654815260200190815260200160002060008201518160000155602082015181600101908051906020019061297a92919061313e565b50604082015181600201908051906020019061299792919061313e565b5060608201518160030160006101000a81548160ff021916908360048111156129c3576129c2613487565b5b021790555060808201518160030160016101000a81548160ff021916908360028111156129f3576129f2613487565b5b021790555060a08201518160030160026101000a81548173ffffffffffffffffffffffffffffffffffffffff021916908373ffffffffffffffffffffffffffffffffffffffff16021790555060c08201518160040160006101000a81548173ffffffffffffffffffffffffffffffffffffffff021916908373ffffffffffffffffffffffffffffffffffffffff16021790555060e08201518160050160006101000a81548173ffffffffffffffffffffffffffffffffffffffff021916908373ffffffffffffffffffffffffffffffffffffffff1602179055506101008201518160060155610120820151816007019080519060200190612af592919061313e565b50905050612b0a600654878688878787612bf5565b8273ffffffffffffffffffffffffffffffffffffffff167fb503855b01edd8caf0051e68bacef096056daa0d24478362eaa8a4f4b8a7130e600560006006548152602001908152602001600020604051612b649190614ad1565b60405180910390a26007829080600181540180825580915050600190039060005260206000200160009091909190916101000a81548173ffffffffffffffffffffffffffffffffffffffff021916908373ffffffffffffffffffffffffffffffffffffffff16021790555060066000815480929190612be290614c38565b9190505550505050505050565b60035481565b600060016004811115612c0b57612c0a613487565b5b856004811115612c1e57612c1d613487565b5b6004811115612c3057612c2f613487565b5b1480612c72575060036004811115612c4b57612c4a613487565b5b856004811115612c5e57612c5d613487565b5b6004811115612c7057612c6f613487565b5b145b80612cb25750600480811115612c8b57612c8a613487565b5b856004811115612c9e57612c9d613487565b5b6004811115612cb057612caf613487565b5b145b15612cc05760009050612d05565b60026004811115612cd457612cd3613487565b5b856004811115612ce757612ce6613487565b5b6004811115612cf957612cf8613487565b5b1415612d0457600190505b5b612d158888888885898989612d1f565b5050505050505050565b6040518061016001604052806009548152602001898152602001888152602001876002811115612d5257612d51613487565b5b6002811115612d6457612d63613487565b5b8152602001866004811115612d7c57612d7b613487565b5b6004811115612d8e57612d8d613487565b5b8152602001856001811115612da657612da5613487565b5b81526020018473ffffffffffffffffffffffffffffffffffffffff16815260200160008054906101000a900473ffffffffffffffffffffffffffffffffffffffff1673ffffffffffffffffffffffffffffffffffffffff1681526020018373ffffffffffffffffffffffffffffffffffffffff1681526020014281526020018281525060086000600954815260200190815260200160002060008201518160000155602082015181600101556040820151816002019080519060200190612e6e92919061313e565b5060608201518160030160006101000a81548160ff02191690836002811115612e9a57612e99613487565b5b021790555060808201518160030160016101000a81548160ff02191690836004811115612eca57612ec9613487565b5b021790555060a08201518160030160026101000a81548160ff02191690836001811115612efa57612ef9613487565b5b021790555060c08201518160030160036101000a81548173ffffffffffffffffffffffffffffffffffffffff021916908373ffffffffffffffffffffffffffffffffffffffff16021790555060e08201518160040160006101000a81548173ffffffffffffffffffffffffffffffffffffffff021916908373ffffffffffffffffffffffffffffffffffffffff1602179055506101008201518160050160006101000a81548173ffffffffffffffffffffffffffffffffffffffff021916908373ffffffffffffffffffffffffffffffffffffffff1602179055506101208201518160060155610140820151816007019080519060200190612ffd92919061313e565b509050508173ffffffffffffffffffffffffffffffffffffffff167f4a2aa9c37fdc971a24d9081164299dd70beb053eacacaeb4e59d5d998334ef1160086000600954815260200190815260200160002060405161305b919061493d565b60405180910390a26009600081548092919061307690614c38565b91905055505050505050505050565b604051806101400160405280600081526020016060815260200160608152602001600060048111156130ba576130b9613487565b5b8152602001600060028111156130d3576130d2613487565b5b8152602001600073ffffffffffffffffffffffffffffffffffffffff168152602001600073ffffffffffffffffffffffffffffffffffffffff168152602001600073ffffffffffffffffffffffffffffffffffffffff16815260200160008152602001606081525090565b82805461314a90614645565b90600052602060002090601f01602090048101928261316c57600085556131b3565b82601f1061318557805160ff19168380011785556131b3565b828001600101855582156131b3579182015b828111156131b2578251825591602001919060010190613197565b5b5090506131c09190613319565b5090565b6040518061010001604052806000815260200160608152602001600060048111156131f2576131f1613487565b5b815260200160608152602001600073ffffffffffffffffffffffffffffffffffffffff168152602001600073ffffffffffffffffffffffffffffffffffffffff16815260200160008152602001606081525090565b6040518061016001604052806000815260200160008152602001606081526020016000600281111561327c5761327b613487565b5b81526020016000600481111561329557613294613487565b5b8152602001600060018111156132ae576132ad613487565b5b8152602001600073ffffffffffffffffffffffffffffffffffffffff168152602001600073ffffffffffffffffffffffffffffffffffffffff168152602001600073ffffffffffffffffffffffffffffffffffffffff16815260200160008152602001606081525090565b5b8082111561333257600081600090555060010161331a565b5090565b6000604051905090565b600080fd5b600080fd5b600073ffffffffffffffffffffffffffffffffffffffff82169050919050565b60006133758261334a565b9050919050565b6133858161336a565b811461339057600080fd5b50565b6000813590506133a28161337c565b92915050565b6000602082840312156133be576133bd613340565b5b60006133cc84828501613393565b91505092915050565b6000819050919050565b6133e8816133d5565b82525050565b600081519050919050565b600082825260208201905092915050565b60005b8381101561342857808201518184015260208101905061340d565b83811115613437576000848401525b50505050565b6000601f19601f8301169050919050565b6000613459826133ee565b61346381856133f9565b935061347381856020860161340a565b61347c8161343d565b840191505092915050565b7f4e487b7100000000000000000000000000000000000000000000000000000000600052602160045260246000fd5b600581106134c7576134c6613487565b5b50565b60008190506134d8826134b6565b919050565b60006134e8826134ca565b9050919050565b6134f8816134dd565b82525050565b6003811061350f5761350e613487565b5b50565b6000819050613520826134fe565b919050565b600061353082613512565b9050919050565b61354081613525565b82525050565b61354f8161336a565b82525050565b60006101408301600083015161356e60008601826133df565b5060208301518482036020860152613586828261344e565b915050604083015184820360408601526135a0828261344e565b91505060608301516135b560608601826134ef565b5060808301516135c86080860182613537565b5060a08301516135db60a0860182613546565b5060c08301516135ee60c0860182613546565b5060e083015161360160e0860182613546565b506101008301516136166101008601826133df565b50610120830151848203610120860152613630828261344e565b9150508091505092915050565b600060208201905081810360008301526136578184613555565b905092915050565b600080fd5b600080fd5b7f4e487b7100000000000000000000000000000000000000000000000000000000600052604160045260246000fd5b6136a18261343d565b810181811067ffffffffffffffff821117156136c0576136bf613669565b5b80604052505050565b60006136d3613336565b90506136df8282613698565b919050565b600067ffffffffffffffff8211156136ff576136fe613669565b5b6137088261343d565b9050602081019050919050565b82818337600083830152505050565b6000613737613732846136e4565b6136c9565b90508281526020810184848401111561375357613752613664565b5b61375e848285613715565b509392505050565b600082601f83011261377b5761377a61365f565b5b813561378b848260208601613724565b91505092915050565b61379d816133d5565b81146137a857600080fd5b50565b6000813590506137ba81613794565b92915050565b600080604083850312156137d7576137d6613340565b5b600083013567ffffffffffffffff8111156137f5576137f4613345565b5b61380185828601613766565b9250506020613812858286016137ab565b9150509250929050565b6138258161336a565b82525050565b6000602082019050613840600083018461381c565b92915050565b600080600080600080600060e0888a03121561386557613864613340565b5b60006138738a828b016137ab565b97505060206138848a828b016137ab565b965050604088013567ffffffffffffffff8111156138a5576138a4613345565b5b6138b18a828b01613766565b95505060606138c28a828b016137ab565b94505060806138d38a828b016137ab565b93505060a06138e48a828b01613393565b92505060c088013567ffffffffffffffff81111561390557613904613345565b5b6139118a828b01613766565b91505092959891949750929550565b600081519050919050565b600082825260208201905092915050565b6000819050602082019050919050565b60006101408301600083015161396560008601826133df565b506020830151848203602086015261397d828261344e565b91505060408301518482036040860152613997828261344e565b91505060608301516139ac60608601826134ef565b5060808301516139bf6080860182613537565b5060a08301516139d260a0860182613546565b5060c08301516139e560c0860182613546565b5060e08301516139f860e0860182613546565b50610100830151613a0d6101008601826133df565b50610120830151848203610120860152613a27828261344e565b9150508091505092915050565b6000613a40838361394c565b905092915050565b6000602082019050919050565b6000613a6082613920565b613a6a818561392b565b935083602082028501613a7c8561393c565b8060005b85811015613ab85784840389528151613a998582613a34565b9450613aa483613a48565b925060208a01995050600181019050613a80565b50829750879550505050505092915050565b60006020820190508181036000830152613ae48184613a55565b905092915050565b600061010083016000830151613b0560008601826133df565b5060208301518482036020860152613b1d828261344e565b9150506040830151613b3260408601826134ef565b5060608301518482036060860152613b4a828261344e565b9150506080830151613b5f6080860182613546565b5060a0830151613b7260a0860182613546565b5060c0830151613b8560c08601826133df565b5060e083015184820360e0860152613b9d828261344e565b9150508091505092915050565b60006020820190508181036000830152613bc48184613aec565b905092915050565b613bd5816133d5565b82525050565b6000602082019050613bf06000830184613bcc565b92915050565b600060208284031215613c0c57613c0b613340565b5b6000613c1a848285016137ab565b91505092915050565b600081519050919050565b600082825260208201905092915050565b6000819050602082019050919050565b600061010083016000830151613c6860008601826133df565b5060208301518482036020860152613c80828261344e565b9150506040830151613c9560408601826134ef565b5060608301518482036060860152613cad828261344e565b9150506080830151613cc26080860182613546565b5060a0830151613cd560a0860182613546565b5060c0830151613ce860c08601826133df565b5060e083015184820360e0860152613d00828261344e565b9150508091505092915050565b6000613d198383613c4f565b905092915050565b6000602082019050919050565b6000613d3982613c23565b613d438185613c2e565b935083602082028501613d5585613c3f565b8060005b85811015613d915784840389528151613d728582613d0d565b9450613d7d83613d21565b925060208a01995050600181019050613d59565b50829750879550505050505092915050565b60006020820190508181036000830152613dbd8184613d2e565b905092915050565b600082825260208201905092915050565b6000613de1826133ee565b613deb8185613dc5565b9350613dfb81856020860161340a565b613e048161343d565b840191505092915050565b613e1881613525565b82525050565b613e27816134dd565b82525050565b60028110613e3e57613e3d613487565b5b50565b6000819050613e4f82613e2d565b919050565b6000613e5f82613e41565b9050919050565b613e6f81613e54565b82525050565b600061016082019050613e8b600083018e613bcc565b613e98602083018d613bcc565b8181036040830152613eaa818c613dd6565b9050613eb9606083018b613e0f565b613ec6608083018a613e1e565b613ed360a0830189613e66565b613ee060c083018861381c565b613eed60e083018761381c565b613efb61010083018661381c565b613f09610120830185613bcc565b818103610140830152613f1c8184613dd6565b90509c9b505050505050505050505050565b600061010082019050613f44600083018b613bcc565b8181036020830152613f56818a613dd6565b9050613f656040830189613e1e565b8181036060830152613f778188613dd6565b9050613f86608083018761381c565b613f9360a083018661381c565b613fa060c0830185613bcc565b81810360e0830152613fb28184613dd6565b90509998505050505050505050565b600080600080600060a08688031215613fdd57613fdc613340565b5b6000613feb88828901613393565b955050602086013567ffffffffffffffff81111561400c5761400b613345565b5b61401888828901613766565b9450506040614029888289016137ab565b935050606086013567ffffffffffffffff81111561404a57614049613345565b5b61405688828901613766565b925050608086013567ffffffffffffffff81111561407757614076613345565b5b61408388828901613766565b9150509295509295909350565b6000610140820190506140a6600083018d613bcc565b81810360208301526140b8818c613dd6565b905081810360408301526140cc818b613dd6565b90506140db606083018a613e1e565b6140e86080830189613e0f565b6140f560a083018861381c565b61410260c083018761381c565b61410f60e083018661381c565b61411d610100830185613bcc565b8181036101208301526141308184613dd6565b90509b9a5050505050505050505050565b60008060006060848603121561415a57614159613340565b5b600061416886828701613393565b935050602084013567ffffffffffffffff81111561418957614188613345565b5b61419586828701613766565b925050604084013567ffffffffffffffff8111156141b6576141b5613345565b5b6141c286828701613766565b9150509250925092565b600081519050919050565b600082825260208201905092915050565b6000819050602082019050919050565b61420181613e54565b82525050565b60006101608301600083015161422060008601826133df565b50602083015161423360208601826133df565b506040830151848203604086015261424b828261344e565b91505060608301516142606060860182613537565b50608083015161427360808601826134ef565b5060a083015161428660a08601826141f8565b5060c083015161429960c0860182613546565b5060e08301516142ac60e0860182613546565b506101008301516142c1610100860182613546565b506101208301516142d66101208601826133df565b506101408301518482036101408601526142f0828261344e565b9150508091505092915050565b60006143098383614207565b905092915050565b6000602082019050919050565b6000614329826141cc565b61433381856141d7565b935083602082028501614345856141e8565b8060005b85811015614381578484038952815161436285826142fd565b945061436d83614311565b925060208a01995050600181019050614349565b50829750879550505050505092915050565b600060208201905081810360008301526143ad818461431e565b905092915050565b60008060008060008060c087890312156143d2576143d1613340565b5b600087013567ffffffffffffffff8111156143f0576143ef613345565b5b6143fc89828a01613766565b965050602061440d89828a016137ab565b955050604061441e89828a016137ab565b945050606061442f89828a01613393565b935050608061444089828a01613393565b92505060a087013567ffffffffffffffff81111561446157614460613345565b5b61446d89828a01613766565b9150509295509295509295565b7f4e487b7100000000000000000000000000000000000000000000000000000000600052601160045260246000fd5b60006144b4826133d5565b91506144bf836133d5565b9250828210156144d2576144d161447a565b5b828203905092915050565b60006144e8826133d5565b915060008214156144fc576144fb61447a565b5b600182039050919050565b600081905092915050565b600061451d826133ee565b6145278185614507565b935061453781856020860161340a565b80840191505092915050565b60008160601b9050919050565b600061455b82614543565b9050919050565b600061456d82614550565b9050919050565b6145856145808261336a565b614562565b82525050565b6000819050919050565b6145a66145a1826133d5565b61458b565b82525050565b60006145b88286614512565b91506145c48285614574565b6014820191506145d48284614595565b602082019150819050949350505050565b60008160001c9050919050565b6000819050919050565b600061460f61460a836145e5565b6145f2565b9050919050565b7f4e487b7100000000000000000000000000000000000000000000000000000000600052602260045260246000fd5b6000600282049050600182168061465d57607f821691505b6020821081141561467157614670614616565b5b50919050565b60008190508160005260206000209050919050565b6000815461469981614645565b6146a381866133f9565b945060018216600081146146be57600181146146d057614703565b60ff1983168652602086019350614703565b6146d985614677565b60005b838110156146fb578154818901526001820191506020810190506146dc565b808801955050505b50505092915050565b600060ff82169050919050565b600061472c614727836145e5565b61470c565b9050919050565b60008160081c9050919050565b600060ff82169050919050565b600061476061475b83614733565b614740565b9050919050565b60008160101c9050919050565b600060ff82169050919050565b600061479461478f83614767565b614774565b9050919050565b60008160181c9050919050565b600073ffffffffffffffffffffffffffffffffffffffff82169050919050565b60006147db6147d68361479b565b6147a8565b9050919050565b60006147f56147f0836145e5565b6147a8565b9050919050565b600061016083016000808401549050614814816145fc565b61482160008701826133df565b5060018401549050614832816145fc565b61483f60208701826133df565b50600284018583036040870152614856838261468c565b9250506003840154905061486981614719565b6148766060870182613537565b506148808161474d565b61488d60808701826134ef565b5061489781614781565b6148a460a08701826141f8565b506148ae816147c8565b6148bb60c0870182613546565b50600484015490506148cc816147e2565b6148d960e0870182613546565b50600584015490506148ea816147e2565b6148f8610100870182613546565b5060068401549050614909816145fc565b6149176101208701826133df565b506007840185830361014087015261492f838261468c565b925050819250505092915050565b6000602082019050818103600083015261495781846147fc565b905092915050565b600061497261496d836145e5565b614740565b9050919050565b600061498c61498783614733565b61470c565b9050919050565b60006149a66149a183614767565b6147a8565b9050919050565b6000610140830160008084015490506149c5816145fc565b6149d260008701826133df565b506001840185830360208701526149e9838261468c565b925050600284018583036040870152614a02838261468c565b92505060038401549050614a158161495f565b614a2260608701826134ef565b50614a2c81614979565b614a396080870182613537565b50614a4381614993565b614a5060a0870182613546565b5060048401549050614a61816147e2565b614a6e60c0870182613546565b5060058401549050614a7f816147e2565b614a8c60e0870182613546565b5060068401549050614a9d816145fc565b614aab6101008701826133df565b5060078401858303610120870152614ac3838261468c565b925050819250505092915050565b60006020820190508181036000830152614aeb81846149ad565b905092915050565b600061010083016000808401549050614b0b816145fc565b614b1860008701826133df565b50600184018583036020870152614b2f838261468c565b92505060028401549050614b428161495f565b614b4f60408701826134ef565b50600384018583036060870152614b66838261468c565b92505060048401549050614b79816147e2565b614b866080870182613546565b5060058401549050614b97816147e2565b614ba460a0870182613546565b5060068401549050614bb5816145fc565b614bc260c08701826133df565b506007840185830360e0870152614bd9838261468c565b925050819250505092915050565b60006020820190508181036000830152614c018184614af3565b905092915050565b7f4e487b7100000000000000000000000000000000000000000000000000000000600052603260045260246000fd5b6000614c43826133d5565b91507fffffffffffffffffffffffffffffffffffffffffffffffffffffffffffffffff821415614c7657614c7561447a565b5b600182019050919050565b7f41646472657373206973206e6f742076616c69642e0000000000000000000000600082015250565b6000614cb7601583613dc5565b9150614cc282614c81565b602082019050919050565b60006020820190508181036000830152614ce681614caa565b9050919050565b600080fd5b600080fd5b600081519050614d0681613794565b92915050565b6000614d1f614d1a846136e4565b6136c9565b905082815260208101848484011115614d3b57614d3a613664565b5b614d4684828561340a565b509392505050565b600082601f830112614d6357614d6261365f565b5b8151614d73848260208601614d0c565b91505092915050565b6000819050919050565b614d8f81614d7c565b8114614d9a57600080fd5b50565b600081519050614dac81614d86565b92915050565b60048110614dbf57600080fd5b50565b600081519050614dd181614db2565b92915050565b600081519050614de68161337c565b92915050565b60006101208284031215614e0357614e02614ced565b5b614e0e6101206136c9565b90506000614e1e84828501614cf7565b600083015250602082015167ffffffffffffffff811115614e4257614e41614cf2565b5b614e4e84828501614d4e565b6020830152506040614e6284828501614d9d565b6040830152506060614e7684828501614d9d565b6060830152506080614e8a84828501614d9d565b60808301525060a0614e9e84828501614dc2565b60a08301525060c0614eb284828501614dd7565b60c08301525060e0614ec684828501614cf7565b60e08301525061010082015167ffffffffffffffff811115614eeb57614eea614cf2565b5b614ef784828501614d4e565b6101008301525092915050565b600060208284031215614f1a57614f19613340565b5b600082015167ffffffffffffffff811115614f3857614f37613345565b5b614f4484828501614dec565b91505092915050565b7f596f7520646f6e27742068617665207468652072696768747320666f7220746860008201527f6973207265736f757263652e0000000000000000000000000000000000000000602082015250565b6000614fa9602c83613dc5565b9150614fb482614f4d565b604082019050919050565b60006020820190508181036000830152614fd881614f9c565b9050919050565b7f5374657073206d75737420666f6c6c6f77206163636f7264696e676c79000000600082015250565b6000615015601d83613dc5565b915061502082614fdf565b602082019050919050565b6000602082019050818103600083015261504481615008565b905091905056fea2646970667358221220c6cbbf2c06eca6c2b0decbf0fb5bab205a1090f96278e9406f7867740fa6895764736f6c634300080a00336080604052600060035534801561001557600080fd5b50336000806101000a81548173ffffffffffffffffffffffffffffffffffffffff021916908373ffffffffffffffffffffffffffffffffffffffff160217905550611cc1806100656000396000f3fe608060405234801561001057600080fd5b50600436106100575760003560e01c80636386c1c71461005c578063a87430ba1461008c578063b2ddb907146100c4578063d6a69823146100e0578063e2842d79146100fc575b600080fd5b6100766004803603810190610071919061100d565b61011a565b6040516100839190611257565b60405180910390f35b6100a660048036038101906100a1919061100d565b6103cb565b6040516100bb999897969594939291906112ff565b60405180910390f35b6100de60048036038101906100d991906114fb565b610556565b005b6100fa60048036038101906100f59190611596565b61078f565b005b610104610acf565b60405161011191906117fe565b60405180910390f35b610122610e7b565b600073ffffffffffffffffffffffffffffffffffffffff163373ffffffffffffffffffffffffffffffffffffffff161415610192576040517f08c379a00000000000000000000000000000000000000000000000000000000081526004016101899061186c565b60405180910390fd5b600160008373ffffffffffffffffffffffffffffffffffffffff1673ffffffffffffffffffffffffffffffffffffffff16815260200190815260200160002060405180610120016040529081600082015481526020016001820180546101f7906118bb565b80601f0160208091040260200160405190810160405280929190818152602001828054610223906118bb565b80156102705780601f1061024557610100808354040283529160200191610270565b820191906000526020600020905b81548152906001019060200180831161025357829003601f168201915b505050505081526020016002820154815260200160038201548152602001600482015481526020016005820160009054906101000a900460ff1660038111156102bc576102bb611105565b5b60038111156102ce576102cd611105565b5b81526020016005820160019054906101000a900473ffffffffffffffffffffffffffffffffffffffff1673ffffffffffffffffffffffffffffffffffffffff1673ffffffffffffffffffffffffffffffffffffffff16815260200160068201548152602001600782018054610342906118bb565b80601f016020809104026020016040519081016040528092919081815260200182805461036e906118bb565b80156103bb5780601f10610390576101008083540402835291602001916103bb565b820191906000526020600020905b81548152906001019060200180831161039e57829003601f168201915b5050505050815250509050919050565b60016020528060005260406000206000915090508060000154908060010180546103f4906118bb565b80601f0160208091040260200160405190810160405280929190818152602001828054610420906118bb565b801561046d5780601f106104425761010080835404028352916020019161046d565b820191906000526020600020905b81548152906001019060200180831161045057829003601f168201915b5050505050908060020154908060030154908060040154908060050160009054906101000a900460ff16908060050160019054906101000a900473ffffffffffffffffffffffffffffffffffffffff16908060060154908060070180546104d3906118bb565b80601f01602080910402602001604051908101604052809291908181526020018280546104ff906118bb565b801561054c5780601f106105215761010080835404028352916020019161054c565b820191906000526020600020905b81548152906001019060200180831161052f57829003601f168201915b5050505050905089565b3373ffffffffffffffffffffffffffffffffffffffff1660008054906101000a900473ffffffffffffffffffffffffffffffffffffffff1673ffffffffffffffffffffffffffffffffffffffff16146105e4576040517f08c379a00000000000000000000000000000000000000000000000000000000081526004016105db90611939565b60405180910390fd5b8260038111156105f7576105f6611105565b5b600160008473ffffffffffffffffffffffffffffffffffffffff1673ffffffffffffffffffffffffffffffffffffffff16815260200190815260200160002060050160006101000a81548160ff0219169083600381111561065b5761065a611105565b5b021790555042600160008473ffffffffffffffffffffffffffffffffffffffff1673ffffffffffffffffffffffffffffffffffffffff1681526020019081526020016000206006018190555080600160008473ffffffffffffffffffffffffffffffffffffffff1673ffffffffffffffffffffffffffffffffffffffff16815260200190815260200160002060070190805190602001906106fd929190610ef8565b508173ffffffffffffffffffffffffffffffffffffffff167fea397c4f2735f95720bbf4d2e061d639bec950d2f3e162d0b19e02a2354c7cca600160008573ffffffffffffffffffffffffffffffffffffffff1673ffffffffffffffffffffffffffffffffffffffff1681526020019081526020016000206040516107829190611bc2565b60405180910390a2505050565b3373ffffffffffffffffffffffffffffffffffffffff1660008054906101000a900473ffffffffffffffffffffffffffffffffffffffff1673ffffffffffffffffffffffffffffffffffffffff161461081d576040517f08c379a000000000000000000000000000000000000000000000000000000000815260040161081490611939565b60405180910390fd5b604051806101200160405280600354815260200188815260200187815260200186815260200185815260200184600381111561085c5761085b611105565b5b600381111561086e5761086d611105565b5b81526020018373ffffffffffffffffffffffffffffffffffffffff16815260200142815260200182815250600160008473ffffffffffffffffffffffffffffffffffffffff1673ffffffffffffffffffffffffffffffffffffffff1681526020019081526020016000206000820151816000015560208201518160010190805190602001906108fe929190610ef8565b5060408201518160020155606082015181600301556080820151816004015560a08201518160050160006101000a81548160ff0219169083600381111561094857610947611105565b5b021790555060c08201518160050160016101000a81548173ffffffffffffffffffffffffffffffffffffffff021916908373ffffffffffffffffffffffffffffffffffffffff16021790555060e082015181600601556101008201518160070190805190602001906109bb929190610ef8565b509050508173ffffffffffffffffffffffffffffffffffffffff167fea397c4f2735f95720bbf4d2e061d639bec950d2f3e162d0b19e02a2354c7cca600160008573ffffffffffffffffffffffffffffffffffffffff1673ffffffffffffffffffffffffffffffffffffffff168152602001908152602001600020604051610a439190611bc2565b60405180910390a26002829080600181540180825580915050600190039060005260206000200160009091909190916101000a81548173ffffffffffffffffffffffffffffffffffffffff021916908373ffffffffffffffffffffffffffffffffffffffff16021790555060036000815480929190610ac190611c13565b919050555050505050505050565b60603373ffffffffffffffffffffffffffffffffffffffff1660008054906101000a900473ffffffffffffffffffffffffffffffffffffffff1673ffffffffffffffffffffffffffffffffffffffff1614610b5f576040517f08c379a0000000000000000000000000000000000000000000000000000000008152600401610b5690611939565b60405180910390fd5b600060035467ffffffffffffffff811115610b7d57610b7c6113d0565b5b604051908082528060200260200182016040528015610bb657816020015b610ba3610e7b565b815260200190600190039081610b9b5790505b50905060005b600354811015610e7357600060028281548110610bdc57610bdb611c5c565b5b9060005260206000200160009054906101000a900473ffffffffffffffffffffffffffffffffffffffff1690506000600160008373ffffffffffffffffffffffffffffffffffffffff1673ffffffffffffffffffffffffffffffffffffffff1681526020019081526020016000209050806040518061012001604052908160008201548152602001600182018054610c73906118bb565b80601f0160208091040260200160405190810160405280929190818152602001828054610c9f906118bb565b8015610cec5780601f10610cc157610100808354040283529160200191610cec565b820191906000526020600020905b815481529060010190602001808311610ccf57829003601f168201915b505050505081526020016002820154815260200160038201548152602001600482015481526020016005820160009054906101000a900460ff166003811115610d3857610d37611105565b5b6003811115610d4a57610d49611105565b5b81526020016005820160019054906101000a900473ffffffffffffffffffffffffffffffffffffffff1673ffffffffffffffffffffffffffffffffffffffff1673ffffffffffffffffffffffffffffffffffffffff16815260200160068201548152602001600782018054610dbe906118bb565b80601f0160208091040260200160405190810160405280929190818152602001828054610dea906118bb565b8015610e375780601f10610e0c57610100808354040283529160200191610e37565b820191906000526020600020905b815481529060010190602001808311610e1a57829003601f168201915b505050505081525050848481518110610e5357610e52611c5c565b5b602002602001018190525050508080610e6b90611c13565b915050610bbc565b508091505090565b604051806101200160405280600081526020016060815260200160008019168152602001600080191681526020016000801916815260200160006003811115610ec757610ec6611105565b5b8152602001600073ffffffffffffffffffffffffffffffffffffffff16815260200160008152602001606081525090565b828054610f04906118bb565b90600052602060002090601f016020900481019282610f265760008555610f6d565b82601f10610f3f57805160ff1916838001178555610f6d565b82800160010185558215610f6d579182015b82811115610f6c578251825591602001919060010190610f51565b5b509050610f7a9190610f7e565b5090565b5b80821115610f97576000816000905550600101610f7f565b5090565b6000604051905090565b600080fd5b600080fd5b600073ffffffffffffffffffffffffffffffffffffffff82169050919050565b6000610fda82610faf565b9050919050565b610fea81610fcf565b8114610ff557600080fd5b50565b60008135905061100781610fe1565b92915050565b60006020828403121561102357611022610fa5565b5b600061103184828501610ff8565b91505092915050565b6000819050919050565b61104d8161103a565b82525050565b600081519050919050565b600082825260208201905092915050565b60005b8381101561108d578082015181840152602081019050611072565b8381111561109c576000848401525b50505050565b6000601f19601f8301169050919050565b60006110be82611053565b6110c8818561105e565b93506110d881856020860161106f565b6110e1816110a2565b840191505092915050565b6000819050919050565b6110ff816110ec565b82525050565b7f4e487b7100000000000000000000000000000000000000000000000000000000600052602160045260246000fd5b6004811061114557611144611105565b5b50565b600081905061115682611134565b919050565b600061116682611148565b9050919050565b6111768161115b565b82525050565b61118581610fcf565b82525050565b6000610120830160008301516111a46000860182611044565b50602083015184820360208601526111bc82826110b3565b91505060408301516111d160408601826110f6565b5060608301516111e460608601826110f6565b5060808301516111f760808601826110f6565b5060a083015161120a60a086018261116d565b5060c083015161121d60c086018261117c565b5060e083015161123060e0860182611044565b5061010083015184820361010086015261124a82826110b3565b9150508091505092915050565b60006020820190508181036000830152611271818461118b565b905092915050565b6112828161103a565b82525050565b600082825260208201905092915050565b60006112a482611053565b6112ae8185611288565b93506112be81856020860161106f565b6112c7816110a2565b840191505092915050565b6112db816110ec565b82525050565b6112ea8161115b565b82525050565b6112f981610fcf565b82525050565b600061012082019050611315600083018c611279565b8181036020830152611327818b611299565b9050611336604083018a6112d2565b61134360608301896112d2565b61135060808301886112d2565b61135d60a08301876112e1565b61136a60c08301866112f0565b61137760e0830185611279565b81810361010083015261138a8184611299565b90509a9950505050505050505050565b6113a38161103a565b81146113ae57600080fd5b50565b6000813590506113c08161139a565b92915050565b600080fd5b600080fd5b7f4e487b7100000000000000000000000000000000000000000000000000000000600052604160045260246000fd5b611408826110a2565b810181811067ffffffffffffffff82111715611427576114266113d0565b5b80604052505050565b600061143a610f9b565b905061144682826113ff565b919050565b600067ffffffffffffffff821115611466576114656113d0565b5b61146f826110a2565b9050602081019050919050565b82818337600083830152505050565b600061149e6114998461144b565b611430565b9050828152602081018484840111156114ba576114b96113cb565b5b6114c584828561147c565b509392505050565b600082601f8301126114e2576114e16113c6565b5b81356114f284826020860161148b565b91505092915050565b60008060006060848603121561151457611513610fa5565b5b6000611522868287016113b1565b935050602061153386828701610ff8565b925050604084013567ffffffffffffffff81111561155457611553610faa565b5b611560868287016114cd565b9150509250925092565b611573816110ec565b811461157e57600080fd5b50565b6000813590506115908161156a565b92915050565b600080600080600080600060e0888a0312156115b5576115b4610fa5565b5b600088013567ffffffffffffffff8111156115d3576115d2610faa565b5b6115df8a828b016114cd565b97505060206115f08a828b01611581565b96505060406116018a828b01611581565b95505060606116128a828b01611581565b94505060806116238a828b016113b1565b93505060a06116348a828b01610ff8565b92505060c088013567ffffffffffffffff81111561165557611654610faa565b5b6116618a828b016114cd565b91505092959891949750929550565b600081519050919050565b600082825260208201905092915050565b6000819050602082019050919050565b6000610120830160008301516116b56000860182611044565b50602083015184820360208601526116cd82826110b3565b91505060408301516116e260408601826110f6565b5060608301516116f560608601826110f6565b50608083015161170860808601826110f6565b5060a083015161171b60a086018261116d565b5060c083015161172e60c086018261117c565b5060e083015161174160e0860182611044565b5061010083015184820361010086015261175b82826110b3565b9150508091505092915050565b6000611774838361169c565b905092915050565b6000602082019050919050565b600061179482611670565b61179e818561167b565b9350836020820285016117b08561168c565b8060005b858110156117ec57848403895281516117cd8582611768565b94506117d88361177c565b925060208a019950506001810190506117b4565b50829750879550505050505092915050565b600060208201905081810360008301526118188184611789565b905092915050565b7f41646472657373206973206e6f742076616c69642e0000000000000000000000600082015250565b6000611856601583611288565b915061186182611820565b602082019050919050565b6000602082019050818103600083015261188581611849565b9050919050565b7f4e487b7100000000000000000000000000000000000000000000000000000000600052602260045260246000fd5b600060028204905060018216806118d357607f821691505b602082108114156118e7576118e661188c565b5b50919050565b7f596f7520617265206e6f7420616e206f776e6572000000000000000000000000600082015250565b6000611923601483611288565b915061192e826118ed565b602082019050919050565b6000602082019050818103600083015261195281611916565b9050919050565b60008160001c9050919050565b6000819050919050565b600061198361197e83611959565b611966565b9050919050565b60008190508160005260206000209050919050565b600081546119ac816118bb565b6119b6818661105e565b945060018216600081146119d157600181146119e357611a16565b60ff1983168652602086019350611a16565b6119ec8561198a565b60005b83811015611a0e578154818901526001820191506020810190506119ef565b808801955050505b50505092915050565b6000819050919050565b6000611a3c611a3783611959565b611a1f565b9050919050565b600060ff82169050919050565b6000611a63611a5e83611959565b611a43565b9050919050565b60008160081c9050919050565b600073ffffffffffffffffffffffffffffffffffffffff82169050919050565b6000611aaa611aa583611a6a565b611a77565b9050919050565b600061012083016000808401549050611ac981611970565b611ad66000870182611044565b50600184018583036020870152611aed838261199f565b92505060028401549050611b0081611a29565b611b0d60408701826110f6565b5060038401549050611b1e81611a29565b611b2b60608701826110f6565b5060048401549050611b3c81611a29565b611b4960808701826110f6565b5060058401549050611b5a81611a50565b611b6760a087018261116d565b50611b7181611a97565b611b7e60c087018261117c565b5060068401549050611b8f81611970565b611b9c60e0870182611044565b5060078401858303610100870152611bb4838261199f565b925050819250505092915050565b60006020820190508181036000830152611bdc8184611ab1565b905092915050565b7f4e487b7100000000000000000000000000000000000000000000000000000000600052601160045260246000fd5b6000611c1e8261103a565b91507fffffffffffffffffffffffffffffffffffffffffffffffffffffffffffffffff821415611c5157611c50611be4565b5b600182019050919050565b7f4e487b7100000000000000000000000000000000000000000000000000000000600052603260045260246000fdfea264697066735822122091208e0592431f72611286ff9fe249479e61a94e63804d9efb5c399e8db54ee164736f6c634300080a0033",
  "immutableReferences": {},
  "source": "// SPDX-License-Identifier: MIT\r\npragma solidity >=0.8.0 <0.9.0;\r\n\r\nimport \"./UserChain.sol\";\r\nimport \"./SharedChain.sol\";\r\n\r\ncontract ProjectChain is SharedChain {\r\n    address _userAddress;\r\n    UserChain userChain;\r\n\r\n    constructor() {\r\n        _userAddress = msg.sender;\r\n        userChain = new UserChain();\r\n    }\r\n\r\n    modifier onlyUserProject() {\r\n        User memory sessionUser = userChain.getUserInfo(_userAddress);\r\n        require(\r\n            sessionUser._role == Roles.UserProject,\r\n            \"You don't have the rights for this resource.\"\r\n        );\r\n        _;\r\n    }\r\n\r\n    /**  PROJECT INITIATOR  */\r\n\r\n    mapping(address => Project) public projects;\r\n    uint256 public projectsCounter = 0;\r\n    address[] public projectsAddress;\r\n\r\n    function createUniqueProjectAddress(string memory _name, uint _index) public view returns (address) {\r\n        return address(uint160(uint256(keccak256(abi.encodePacked(_name, _userAddress, _index)))));\r\n    }\r\n\r\n    function createProject(\r\n        address _projectAddress,\r\n        string memory _name,\r\n        uint256 _status,\r\n        string memory _ipfsFileCID,\r\n        string memory _signature\r\n    ) public onlyUserProject {\r\n        projects[_projectAddress] = Project(\r\n            projectsCounter,\r\n            _name,\r\n            ProjectStatus(_status),\r\n            _ipfsFileCID,\r\n            _projectAddress,\r\n            _userAddress,\r\n            block.timestamp,\r\n            _signature\r\n        );\r\n\r\n        emit ProjectEvent(projects[_projectAddress], _projectAddress);\r\n        projectsAddress.push(_projectAddress);\r\n        projectsCounter++;\r\n    }\r\n\r\n    function updateProject(\r\n        address _projectAddress,\r\n        string memory _ipfsFileCID,\r\n        string memory _signature\r\n    ) public onlyUserProject {\r\n        projects[_projectAddress]._ipfsFileCID = _ipfsFileCID;\r\n        projects[_projectAddress]._signature = _signature;\r\n\r\n        emit ProjectEvent(projects[_projectAddress], _projectAddress);\r\n    }\r\n\r\n    function getProjectInfo(address _address)\r\n        public\r\n        view\r\n        returns (Project memory)\r\n    {\r\n        require(msg.sender != address(0x0), \"Address is not valid.\");\r\n        return projects[_address];\r\n    }\r\n\r\n    function getAllProjects() public view returns (Project[] memory) {\r\n        Project[] memory allProjects;\r\n        if (projectsCounter == 0) return allProjects;\r\n\r\n        allProjects = new Project[](projectsCounter);\r\n        for (uint256 index = 0; index < projectsCounter; index++) {\r\n            address _projectAddress = projectsAddress[index];\r\n            Project storage project = projects[_projectAddress];\r\n            allProjects[index] = project;\r\n        }\r\n        return allProjects;\r\n    }\r\n\r\n\r\n    /**  Project Requests  */\r\n\r\n    mapping(uint256 => ProjectRequest) public projectRequests;\r\n    uint256 public projectRequestsCounter = 0;\r\n    address[] public projectRequestsAddress;\r\n\r\n    function createUniqueProjectRequestAddress(string memory _title, uint _index) public view returns (address) {\r\n        return address(uint160(uint256(keccak256(abi.encodePacked(_title, _userAddress, _index)))));\r\n    }\r\n\r\n    function createProjectRequest(\r\n        string memory _title,\r\n        uint256 _status,\r\n        uint256 _requestStatus,\r\n        address _projectAddress,\r\n        address _projectReqAddress,\r\n        string memory _signature\r\n    ) public {\r\n        require(projects[_projectAddress]._status == ProjectStatus.Created, \"Steps must follow accordingly\");\r\n\r\n        //require(ProjectStatus.ToApprove == RequestStatus.UnApproved, \"\");\r\n        //require(ProjectStatus.ToApprove == RequestStatus.Rejected, \"\");\r\n\r\n\r\n\r\n        projectRequests[projectRequestsCounter] = ProjectRequest(\r\n            projectRequestsCounter,\r\n            _title,\r\n            \"\",\r\n            ProjectStatus(_status),\r\n            RequestStatus(_requestStatus),\r\n            _projectAddress,\r\n            _userAddress,\r\n            _projectReqAddress,\r\n            block.timestamp,\r\n            _signature\r\n        );\r\n\r\n        filterRequests(\r\n            projectRequestsCounter,\r\n            _title,\r\n            _requestStatus,\r\n            _status,\r\n            _projectAddress,\r\n            _projectReqAddress,\r\n            _signature\r\n        );\r\n\r\n        emit ProjectRequestEvent(projectRequests[projectRequestsCounter], _projectAddress);\r\n        projectRequestsAddress.push(_projectReqAddress);\r\n        projectRequestsCounter++;\r\n    }\r\n\r\n    function filterRequests(\r\n        uint256 _indexProjectRequest,\r\n        string memory _title,\r\n        uint256 _requestStatus,\r\n        uint256 _projectStatus,\r\n        address _projectAddress,\r\n        address _requestAddress,\r\n        string memory _signature\r\n    ) internal {\r\n        RequestType _requestType;\r\n        if (\r\n            ProjectStatus(_projectStatus) == ProjectStatus.ToApprove ||\r\n            ProjectStatus(_projectStatus) == ProjectStatus.FinalizationCheck ||\r\n            ProjectStatus(_projectStatus) == ProjectStatus.Completed\r\n        ) {\r\n            _requestType = RequestType.SupervisorReq;\r\n        } else if (\r\n            ProjectStatus(_projectStatus) == ProjectStatus.StartProject\r\n        ) {\r\n            _requestType = RequestType.CompanyReq;\r\n        }\r\n        createRequest(\r\n            _indexProjectRequest,\r\n            _title,\r\n            _requestStatus,\r\n            _projectStatus,\r\n            _requestType,\r\n            _projectAddress,\r\n            _requestAddress,\r\n            _signature\r\n        );\r\n    }\r\n\r\n    function getAllProjectRequests()\r\n        public\r\n        view\r\n        returns (ProjectRequest[] memory)\r\n    {\r\n        ProjectRequest[] memory allProjectRequests;\r\n        if (projectRequestsCounter == 0) return allProjectRequests;\r\n\r\n        allProjectRequests = new ProjectRequest[](projectRequestsCounter);\r\n        for (uint256 index = 0; index < projectRequestsCounter; index++) {\r\n            ProjectRequest storage projectReq = projectRequests[index];\r\n            allProjectRequests[index] = projectReq;\r\n        }\r\n        return allProjectRequests;\r\n    }\r\n\r\n    function getLastProjectRequest(address _projectAddress)\r\n        public\r\n        view\r\n        returns (ProjectRequest memory)\r\n    {\r\n        ProjectRequest memory request;\r\n        if (projectRequestsCounter > 0) {\r\n            for (\r\n                uint256 index = projectRequestsCounter - 1;\r\n                index >= 0;\r\n                index--\r\n            ) {\r\n                if (_projectAddress == projectRequests[index]._projectAddress) {\r\n                    request = ProjectRequest(\r\n                        0, \"\", \"\",\r\n                        projectRequests[index]._status,\r\n                        projectRequests[index]._requestStatus,\r\n                        projectRequests[index]._projectAddress,\r\n                        address(0), address(0), 0, \"\"\r\n                    );\r\n                    return request;\r\n                }\r\n            }\r\n        }\r\n        return request;\r\n    }\r\n\r\n\r\n    /**  DATA FOR SUPERVISOR && COMPANY  */\r\n\r\n    mapping(uint256 => Request) public requests;\r\n    uint256 public requestsCounter = 0;\r\n\r\n    function createRequest(\r\n        uint256 _indexProjectRequest,\r\n        string memory _title,\r\n        uint256 _requestStatus,\r\n        uint256 _projectStatus,\r\n        RequestType _requestType,\r\n        address _projectAddress,\r\n        address _requestAddress,\r\n        string memory _signature\r\n    ) internal {\r\n        requests[requestsCounter] = Request(\r\n            requestsCounter,\r\n            _indexProjectRequest,\r\n            _title,\r\n            RequestStatus(_requestStatus),\r\n            ProjectStatus(_projectStatus),\r\n            _requestType,\r\n            _projectAddress,\r\n            _userAddress,\r\n            _requestAddress,\r\n            block.timestamp,\r\n            _signature\r\n        );\r\n\r\n        emit RequestEvent(requests[requestsCounter], _requestAddress);\r\n        requestsCounter++;\r\n    }\r\n\r\n    function updateRequest(\r\n        uint256 _index,\r\n        uint256 _indexProjectRequest,\r\n        string memory _comments,\r\n        uint256 _requestStatus,\r\n        uint256 _projectStatus,\r\n        address _projectAddress,\r\n        string memory _signature\r\n    ) public {\r\n        // Update request status in the Requests Mapping and Struct Array\r\n        requests[_index]._requestStatus = RequestStatus(_requestStatus);\r\n        requests[_index]._signature = _signature;\r\n\r\n        emit RequestEvent(requests[_index], requests[_index]._requestAddress);\r\n\r\n        // Update project request status in the Project Requests Mapping and Struct Array\r\n        projectRequests[_indexProjectRequest]._comments = _comments;\r\n        projectRequests[_indexProjectRequest]._requestStatus = RequestStatus(_requestStatus);\r\n        projectRequests[_indexProjectRequest]._signature = _signature;\r\n\r\n        emit ProjectRequestEvent(projectRequests[_indexProjectRequest], _projectAddress);\r\n\r\n        // Update ProjectStatus to the requested status - Porject Mapping and Struct Array\r\n        if (RequestStatus.Approved == RequestStatus(_requestStatus)) {\r\n        projects[_projectAddress]._status = ProjectStatus(_projectStatus);\r\n        emit ProjectEvent(projects[_projectAddress], _projectAddress);\r\n        }\r\n    }\r\n\r\n    function getAllRequests() public view returns (Request[] memory) {\r\n        Request[] memory allRequests;\r\n        if (requestsCounter == 0) return allRequests;\r\n\r\n        allRequests = new Request[](requestsCounter);\r\n        for (uint256 index = 0; index < requestsCounter; index++) {\r\n            Request storage request = requests[index];\r\n            allRequests[index] = request;\r\n        }\r\n        return allRequests;\r\n    }\r\n}\r\n",
  "sourcePath": "/mnt/c/Users/Beniamin/source/repos/DissertationProject/contracts/ProjectChain.sol",
  "compiler": {
    "name": "solc",
    "version": "0.8.10+commit.fc410830.Emscripten.clang"
  },
  "schemaVersion": "3.4.3",
  "updatedAt": "2021-12-09T21:09:11.382Z",
  "networkType": "ethereum",
  "devdoc": {
    "kind": "dev",
    "methods": {},
    "version": 1
  },
  "userdoc": {
    "kind": "user",
    "methods": {
      "projectRequests(uint256)": {
        "notice": "Project Requests  "
      },
      "projects(address)": {
        "notice": "PROJECT INITIATOR  "
      },
      "requests(uint256)": {
        "notice": "DATA FOR SUPERVISOR && COMPANY  "
      }
    },
    "version": 1
  }
}