{
  "contractName": "ProjectChain",
  "abi": [
    {
      "inputs": [],
      "stateMutability": "nonpayable",
      "type": "constructor"
    },
    {
      "anonymous": false,
      "inputs": [
        {
          "indexed": false,
          "internalType": "uint256",
          "name": "_index",
          "type": "uint256"
        },
        {
          "indexed": false,
          "internalType": "bytes32",
          "name": "_name",
          "type": "bytes32"
        },
        {
          "indexed": false,
          "internalType": "enum SharedChain.ProjectStatus",
          "name": "_status",
          "type": "uint8"
        },
        {
          "indexed": false,
          "internalType": "string",
          "name": "_ipfsFileCID",
          "type": "string"
        },
        {
          "indexed": false,
          "internalType": "address",
          "name": "_projectAddress",
          "type": "address"
        },
        {
          "indexed": false,
          "internalType": "address",
          "name": "_userAddress",
          "type": "address"
        },
        {
          "indexed": false,
          "internalType": "uint256",
          "name": "_timestamp",
          "type": "uint256"
        },
        {
          "indexed": false,
          "internalType": "bytes32",
          "name": "_signature",
          "type": "bytes32"
        }
      ],
      "name": "ProjectEvent",
      "type": "event"
    },
    {
      "anonymous": false,
      "inputs": [
        {
          "indexed": false,
          "internalType": "uint256",
          "name": "_index",
          "type": "uint256"
        },
        {
          "indexed": false,
          "internalType": "bytes32",
          "name": "_title",
          "type": "bytes32"
        },
        {
          "indexed": false,
          "internalType": "string",
          "name": "_comments",
          "type": "string"
        },
        {
          "indexed": false,
          "internalType": "enum SharedChain.ProjectStatus",
          "name": "_status",
          "type": "uint8"
        },
        {
          "indexed": false,
          "internalType": "enum SharedChain.RequestStatus",
          "name": "_requestStatus",
          "type": "uint8"
        },
        {
          "indexed": false,
          "internalType": "address",
          "name": "_projectAddress",
          "type": "address"
        },
        {
          "indexed": false,
          "internalType": "address",
          "name": "_userAddress",
          "type": "address"
        },
        {
          "indexed": false,
          "internalType": "address",
          "name": "_requestAddress",
          "type": "address"
        },
        {
          "indexed": false,
          "internalType": "uint256",
          "name": "_timestamp",
          "type": "uint256"
        },
        {
          "indexed": false,
          "internalType": "bytes32",
          "name": "_signature",
          "type": "bytes32"
        }
      ],
      "name": "ProjectRequestEvent",
      "type": "event"
    },
    {
      "anonymous": false,
      "inputs": [
        {
          "indexed": false,
          "internalType": "uint256",
          "name": "_index",
          "type": "uint256"
        },
        {
          "indexed": false,
          "internalType": "uint256",
          "name": "_indexProjectRequest",
          "type": "uint256"
        },
        {
          "indexed": false,
          "internalType": "bytes32",
          "name": "_title",
          "type": "bytes32"
        },
        {
          "indexed": false,
          "internalType": "enum SharedChain.RequestStatus",
          "name": "_status",
          "type": "uint8"
        },
        {
          "indexed": false,
          "internalType": "enum SharedChain.ProjectStatus",
          "name": "_projectStatus",
          "type": "uint8"
        },
        {
          "indexed": false,
          "internalType": "enum SharedChain.RequestType",
          "name": "_requestType",
          "type": "uint8"
        },
        {
          "indexed": false,
          "internalType": "address",
          "name": "_projectAddress",
          "type": "address"
        },
        {
          "indexed": false,
          "internalType": "address",
          "name": "_userAddress",
          "type": "address"
        },
        {
          "indexed": false,
          "internalType": "address",
          "name": "_requestAddress",
          "type": "address"
        },
        {
          "indexed": false,
          "internalType": "uint256",
          "name": "_timestamp",
          "type": "uint256"
        },
        {
          "indexed": false,
          "internalType": "bytes32",
          "name": "_signature",
          "type": "bytes32"
        }
      ],
      "name": "RequestEvent",
      "type": "event"
    },
    {
      "anonymous": false,
      "inputs": [
        {
          "indexed": false,
          "internalType": "uint256",
          "name": "_index",
          "type": "uint256"
        },
        {
          "indexed": true,
          "internalType": "string",
          "name": "_username",
          "type": "string"
        },
        {
          "indexed": false,
          "internalType": "bytes32",
          "name": "_email",
          "type": "bytes32"
        },
        {
          "indexed": false,
          "internalType": "bytes32",
          "name": "_firstname",
          "type": "bytes32"
        },
        {
          "indexed": false,
          "internalType": "bytes32",
          "name": "_lastname",
          "type": "bytes32"
        },
        {
          "indexed": true,
          "internalType": "enum UserChain.Roles",
          "name": "_role",
          "type": "uint8"
        },
        {
          "indexed": true,
          "internalType": "address",
          "name": "_walletAddress",
          "type": "address"
        },
        {
          "indexed": false,
          "internalType": "uint256",
          "name": "_timestamp",
          "type": "uint256"
        }
      ],
      "name": "UserEvent",
      "type": "event"
    },
    {
      "inputs": [
        {
          "internalType": "uint256",
          "name": "",
          "type": "uint256"
        }
      ],
      "name": "allRequests",
      "outputs": [
        {
          "internalType": "uint256",
          "name": "_index",
          "type": "uint256"
        },
        {
          "internalType": "uint256",
          "name": "_indexProjectRequest",
          "type": "uint256"
        },
        {
          "internalType": "bytes32",
          "name": "_title",
          "type": "bytes32"
        },
        {
          "internalType": "enum SharedChain.RequestStatus",
          "name": "_requestStatus",
          "type": "uint8"
        },
        {
          "internalType": "enum SharedChain.ProjectStatus",
          "name": "_projectStatus",
          "type": "uint8"
        },
        {
          "internalType": "enum SharedChain.RequestType",
          "name": "_requestType",
          "type": "uint8"
        },
        {
          "internalType": "address",
          "name": "_projectAddress",
          "type": "address"
        },
        {
          "internalType": "address",
          "name": "_userAddress",
          "type": "address"
        },
        {
          "internalType": "address",
          "name": "_requestAddress",
          "type": "address"
        },
        {
          "internalType": "uint256",
          "name": "_timestamp",
          "type": "uint256"
        },
        {
          "internalType": "bytes32",
          "name": "_signature",
          "type": "bytes32"
        }
      ],
      "stateMutability": "view",
      "type": "function",
      "constant": true
    },
    {
      "inputs": [
        {
          "internalType": "uint256",
          "name": "_role",
          "type": "uint256"
        },
        {
          "internalType": "address",
          "name": "_walletAddress",
          "type": "address"
        }
      ],
      "name": "changeUserRole",
      "outputs": [],
      "stateMutability": "nonpayable",
      "type": "function"
    },
    {
      "inputs": [],
      "name": "getAllUsers",
      "outputs": [
        {
          "components": [
            {
              "internalType": "uint256",
              "name": "_index",
              "type": "uint256"
            },
            {
              "internalType": "string",
              "name": "_username",
              "type": "string"
            },
            {
              "internalType": "bytes32",
              "name": "_email",
              "type": "bytes32"
            },
            {
              "internalType": "bytes32",
              "name": "_firstname",
              "type": "bytes32"
            },
            {
              "internalType": "bytes32",
              "name": "_lastname",
              "type": "bytes32"
            },
            {
              "internalType": "enum UserChain.Roles",
              "name": "_role",
              "type": "uint8"
            },
            {
              "internalType": "address",
              "name": "_walletAddress",
              "type": "address"
            },
            {
              "internalType": "uint256",
              "name": "_timestamp",
              "type": "uint256"
            }
          ],
          "internalType": "struct UserChain.User[]",
          "name": "",
          "type": "tuple[]"
        }
      ],
      "stateMutability": "view",
      "type": "function",
      "constant": true
    },
    {
      "inputs": [
        {
          "internalType": "address",
          "name": "_walletAddress",
          "type": "address"
        }
      ],
      "name": "getUserInfo",
      "outputs": [
        {
          "components": [
            {
              "internalType": "uint256",
              "name": "_index",
              "type": "uint256"
            },
            {
              "internalType": "string",
              "name": "_username",
              "type": "string"
            },
            {
              "internalType": "bytes32",
              "name": "_email",
              "type": "bytes32"
            },
            {
              "internalType": "bytes32",
              "name": "_firstname",
              "type": "bytes32"
            },
            {
              "internalType": "bytes32",
              "name": "_lastname",
              "type": "bytes32"
            },
            {
              "internalType": "enum UserChain.Roles",
              "name": "_role",
              "type": "uint8"
            },
            {
              "internalType": "address",
              "name": "_walletAddress",
              "type": "address"
            },
            {
              "internalType": "uint256",
              "name": "_timestamp",
              "type": "uint256"
            }
          ],
          "internalType": "struct UserChain.User",
          "name": "",
          "type": "tuple"
        }
      ],
      "stateMutability": "view",
      "type": "function",
      "constant": true
    },
    {
      "inputs": [],
      "name": "owner",
      "outputs": [
        {
          "internalType": "address",
          "name": "",
          "type": "address"
        }
      ],
      "stateMutability": "view",
      "type": "function",
      "constant": true
    },
    {
      "inputs": [
        {
          "internalType": "uint256",
          "name": "",
          "type": "uint256"
        }
      ],
      "name": "projectRequests",
      "outputs": [
        {
          "internalType": "uint256",
          "name": "_index",
          "type": "uint256"
        },
        {
          "internalType": "bytes32",
          "name": "_title",
          "type": "bytes32"
        },
        {
          "internalType": "string",
          "name": "_comments",
          "type": "string"
        },
        {
          "internalType": "enum SharedChain.ProjectStatus",
          "name": "_status",
          "type": "uint8"
        },
        {
          "internalType": "enum SharedChain.RequestStatus",
          "name": "_requestStatus",
          "type": "uint8"
        },
        {
          "internalType": "address",
          "name": "_projectAddress",
          "type": "address"
        },
        {
          "internalType": "address",
          "name": "_userAddress",
          "type": "address"
        },
        {
          "internalType": "address",
          "name": "_requestAddress",
          "type": "address"
        },
        {
          "internalType": "uint256",
          "name": "_timestamp",
          "type": "uint256"
        },
        {
          "internalType": "bytes32",
          "name": "_signature",
          "type": "bytes32"
        }
      ],
      "stateMutability": "view",
      "type": "function",
      "constant": true
    },
    {
      "inputs": [
        {
          "internalType": "uint256",
          "name": "",
          "type": "uint256"
        }
      ],
      "name": "projectRequestsAddress",
      "outputs": [
        {
          "internalType": "address",
          "name": "",
          "type": "address"
        }
      ],
      "stateMutability": "view",
      "type": "function",
      "constant": true
    },
    {
      "inputs": [],
      "name": "projectRequestsCounter",
      "outputs": [
        {
          "internalType": "uint256",
          "name": "",
          "type": "uint256"
        }
      ],
      "stateMutability": "view",
      "type": "function",
      "constant": true
    },
    {
      "inputs": [
        {
          "internalType": "address",
          "name": "",
          "type": "address"
        }
      ],
      "name": "projects",
      "outputs": [
        {
          "internalType": "uint256",
          "name": "_index",
          "type": "uint256"
        },
        {
          "internalType": "bytes32",
          "name": "_name",
          "type": "bytes32"
        },
        {
          "internalType": "enum SharedChain.ProjectStatus",
          "name": "_status",
          "type": "uint8"
        },
        {
          "internalType": "string",
          "name": "_ipfsFileCID",
          "type": "string"
        },
        {
          "internalType": "address",
          "name": "_projectAddress",
          "type": "address"
        },
        {
          "internalType": "address",
          "name": "_userAddress",
          "type": "address"
        },
        {
          "internalType": "uint256",
          "name": "_timestamp",
          "type": "uint256"
        },
        {
          "internalType": "bytes32",
          "name": "_signature",
          "type": "bytes32"
        }
      ],
      "stateMutability": "view",
      "type": "function",
      "constant": true
    },
    {
      "inputs": [
        {
          "internalType": "uint256",
          "name": "",
          "type": "uint256"
        }
      ],
      "name": "projectsAddress",
      "outputs": [
        {
          "internalType": "address",
          "name": "",
          "type": "address"
        }
      ],
      "stateMutability": "view",
      "type": "function",
      "constant": true
    },
    {
      "inputs": [],
      "name": "projectsCounter",
      "outputs": [
        {
          "internalType": "uint256",
          "name": "",
          "type": "uint256"
        }
      ],
      "stateMutability": "view",
      "type": "function",
      "constant": true
    },
    {
      "inputs": [
        {
          "internalType": "string",
          "name": "_username",
          "type": "string"
        },
        {
          "internalType": "bytes32",
          "name": "_email",
          "type": "bytes32"
        },
        {
          "internalType": "bytes32",
          "name": "_firstname",
          "type": "bytes32"
        },
        {
          "internalType": "bytes32",
          "name": "_lastname",
          "type": "bytes32"
        },
        {
          "internalType": "uint256",
          "name": "_role",
          "type": "uint256"
        },
        {
          "internalType": "address",
          "name": "_walletAddress",
          "type": "address"
        }
      ],
      "name": "registerUser",
      "outputs": [],
      "stateMutability": "nonpayable",
      "type": "function"
    },
    {
      "inputs": [
        {
          "internalType": "uint256",
          "name": "",
          "type": "uint256"
        }
      ],
      "name": "requests",
      "outputs": [
        {
          "internalType": "uint256",
          "name": "_index",
          "type": "uint256"
        },
        {
          "internalType": "uint256",
          "name": "_indexProjectRequest",
          "type": "uint256"
        },
        {
          "internalType": "bytes32",
          "name": "_title",
          "type": "bytes32"
        },
        {
          "internalType": "enum SharedChain.RequestStatus",
          "name": "_requestStatus",
          "type": "uint8"
        },
        {
          "internalType": "enum SharedChain.ProjectStatus",
          "name": "_projectStatus",
          "type": "uint8"
        },
        {
          "internalType": "enum SharedChain.RequestType",
          "name": "_requestType",
          "type": "uint8"
        },
        {
          "internalType": "address",
          "name": "_projectAddress",
          "type": "address"
        },
        {
          "internalType": "address",
          "name": "_userAddress",
          "type": "address"
        },
        {
          "internalType": "address",
          "name": "_requestAddress",
          "type": "address"
        },
        {
          "internalType": "uint256",
          "name": "_timestamp",
          "type": "uint256"
        },
        {
          "internalType": "bytes32",
          "name": "_signature",
          "type": "bytes32"
        }
      ],
      "stateMutability": "view",
      "type": "function",
      "constant": true
    },
    {
      "inputs": [],
      "name": "requestsCounter",
      "outputs": [
        {
          "internalType": "uint256",
          "name": "",
          "type": "uint256"
        }
      ],
      "stateMutability": "view",
      "type": "function",
      "constant": true
    },
    {
      "inputs": [
        {
          "internalType": "address",
          "name": "",
          "type": "address"
        }
      ],
      "name": "users",
      "outputs": [
        {
          "internalType": "uint256",
          "name": "_index",
          "type": "uint256"
        },
        {
          "internalType": "string",
          "name": "_username",
          "type": "string"
        },
        {
          "internalType": "bytes32",
          "name": "_email",
          "type": "bytes32"
        },
        {
          "internalType": "bytes32",
          "name": "_firstname",
          "type": "bytes32"
        },
        {
          "internalType": "bytes32",
          "name": "_lastname",
          "type": "bytes32"
        },
        {
          "internalType": "enum UserChain.Roles",
          "name": "_role",
          "type": "uint8"
        },
        {
          "internalType": "address",
          "name": "_walletAddress",
          "type": "address"
        },
        {
          "internalType": "uint256",
          "name": "_timestamp",
          "type": "uint256"
        }
      ],
      "stateMutability": "view",
      "type": "function",
      "constant": true
    },
    {
      "inputs": [
        {
          "internalType": "uint256",
          "name": "",
          "type": "uint256"
        }
      ],
      "name": "usersAddress",
      "outputs": [
        {
          "internalType": "address",
          "name": "",
          "type": "address"
        }
      ],
      "stateMutability": "view",
      "type": "function",
      "constant": true
    },
    {
      "inputs": [],
      "name": "usersCounter",
      "outputs": [
        {
          "internalType": "uint256",
          "name": "",
          "type": "uint256"
        }
      ],
      "stateMutability": "view",
      "type": "function",
      "constant": true
    },
    {
      "inputs": [
        {
          "internalType": "bytes32",
          "name": "_text",
          "type": "bytes32"
        },
        {
          "internalType": "uint256",
          "name": "_index",
          "type": "uint256"
        }
      ],
      "name": "createUniqueProjectAddress",
      "outputs": [
        {
          "internalType": "address",
          "name": "",
          "type": "address"
        }
      ],
      "stateMutability": "view",
      "type": "function",
      "constant": true
    },
    {
      "inputs": [
        {
          "internalType": "bytes32",
          "name": "_name",
          "type": "bytes32"
        },
        {
          "internalType": "uint256",
          "name": "_status",
          "type": "uint256"
        },
        {
          "internalType": "string",
          "name": "_ipfsFileCID",
          "type": "string"
        },
        {
          "internalType": "bytes32",
          "name": "_signature",
          "type": "bytes32"
        }
      ],
      "name": "createProject",
      "outputs": [],
      "stateMutability": "nonpayable",
      "type": "function"
    },
    {
      "inputs": [
        {
          "internalType": "address",
          "name": "_address",
          "type": "address"
        }
      ],
      "name": "getProjectInfo",
      "outputs": [
        {
          "components": [
            {
              "internalType": "uint256",
              "name": "_index",
              "type": "uint256"
            },
            {
              "internalType": "bytes32",
              "name": "_name",
              "type": "bytes32"
            },
            {
              "internalType": "enum SharedChain.ProjectStatus",
              "name": "_status",
              "type": "uint8"
            },
            {
              "internalType": "string",
              "name": "_ipfsFileCID",
              "type": "string"
            },
            {
              "internalType": "address",
              "name": "_projectAddress",
              "type": "address"
            },
            {
              "internalType": "address",
              "name": "_userAddress",
              "type": "address"
            },
            {
              "internalType": "uint256",
              "name": "_timestamp",
              "type": "uint256"
            },
            {
              "internalType": "bytes32",
              "name": "_signature",
              "type": "bytes32"
            }
          ],
          "internalType": "struct SharedChain.Project",
          "name": "",
          "type": "tuple"
        }
      ],
      "stateMutability": "view",
      "type": "function",
      "constant": true
    },
    {
      "inputs": [],
      "name": "getAllProjects",
      "outputs": [
        {
          "internalType": "address[]",
          "name": "",
          "type": "address[]"
        }
      ],
      "stateMutability": "view",
      "type": "function",
      "constant": true
    },
    {
      "inputs": [],
      "name": "createUniqueProjectRequestAddress",
      "outputs": [
        {
          "internalType": "address",
          "name": "",
          "type": "address"
        }
      ],
      "stateMutability": "nonpayable",
      "type": "function"
    },
    {
      "inputs": [
        {
          "internalType": "bytes32",
          "name": "_title",
          "type": "bytes32"
        },
        {
          "internalType": "uint256",
          "name": "_status",
          "type": "uint256"
        },
        {
          "internalType": "uint256",
          "name": "_requestStatus",
          "type": "uint256"
        },
        {
          "internalType": "address",
          "name": "_projectAddress",
          "type": "address"
        },
        {
          "internalType": "address",
          "name": "_projectReqAddress",
          "type": "address"
        },
        {
          "internalType": "bytes32",
          "name": "_signature",
          "type": "bytes32"
        }
      ],
      "name": "createProjectRequest",
      "outputs": [],
      "stateMutability": "nonpayable",
      "type": "function"
    },
    {
      "inputs": [],
      "name": "getAllProjectRequests",
      "outputs": [
        {
          "internalType": "address[]",
          "name": "",
          "type": "address[]"
        }
      ],
      "stateMutability": "view",
      "type": "function",
      "constant": true
    },
    {
      "inputs": [
        {
          "internalType": "uint256",
          "name": "_index",
          "type": "uint256"
        },
        {
          "internalType": "string",
          "name": "_comments",
          "type": "string"
        },
        {
          "internalType": "uint256",
          "name": "_requestStatus",
          "type": "uint256"
        },
        {
          "internalType": "uint256",
          "name": "_indexProjectRequest",
          "type": "uint256"
        },
        {
          "internalType": "uint256",
          "name": "_projectStatus",
          "type": "uint256"
        },
        {
          "internalType": "address",
          "name": "_projectAddress",
          "type": "address"
        },
        {
          "internalType": "bytes32",
          "name": "_signature",
          "type": "bytes32"
        }
      ],
      "name": "updateRequest",
      "outputs": [],
      "stateMutability": "nonpayable",
      "type": "function"
    },
    {
      "inputs": [],
      "name": "getAllRequests",
      "outputs": [
        {
          "components": [
            {
              "internalType": "uint256",
              "name": "_index",
              "type": "uint256"
            },
            {
              "internalType": "uint256",
              "name": "_indexProjectRequest",
              "type": "uint256"
            },
            {
              "internalType": "bytes32",
              "name": "_title",
              "type": "bytes32"
            },
            {
              "internalType": "enum SharedChain.RequestStatus",
              "name": "_requestStatus",
              "type": "uint8"
            },
            {
              "internalType": "enum SharedChain.ProjectStatus",
              "name": "_projectStatus",
              "type": "uint8"
            },
            {
              "internalType": "enum SharedChain.RequestType",
              "name": "_requestType",
              "type": "uint8"
            },
            {
              "internalType": "address",
              "name": "_projectAddress",
              "type": "address"
            },
            {
              "internalType": "address",
              "name": "_userAddress",
              "type": "address"
            },
            {
              "internalType": "address",
              "name": "_requestAddress",
              "type": "address"
            },
            {
              "internalType": "uint256",
              "name": "_timestamp",
              "type": "uint256"
            },
            {
              "internalType": "bytes32",
              "name": "_signature",
              "type": "bytes32"
            }
          ],
          "internalType": "struct SharedChain.Request[]",
          "name": "",
          "type": "tuple[]"
        }
      ],
      "stateMutability": "view",
      "type": "function",
      "constant": true
    }
  ],
  "bytecode": "0x60806040526000600355600060055560006007556000600a556000600d5534801561002957600080fd5b50336000806101000a81548173ffffffffffffffffffffffffffffffffffffffff021916908373ffffffffffffffffffffffffffffffffffffffff16021790555033600460006101000a81548173ffffffffffffffffffffffffffffffffffffffff021916908373ffffffffffffffffffffffffffffffffffffffff16021790555061458c806100ba6000396000f3fe608060405234801561001057600080fd5b506004361061018e5760003560e01c806381d12c58116100de578063c19ded1311610097578063d67b1b9911610071578063d67b1b991461050e578063e2842d791461052c578063fb1a002a1461054a578063fe360ea5146105685761018e565b8063c19ded131461049b578063cc1ee4db146104d4578063cf13f5d4146104f25761018e565b806381d12c581461037f578063840e78fd146103b95780638da5cb5b146103f0578063910097861461040e5780639bf4ec2f1461042a578063a87430ba146104645761018e565b806347ee45b91161014b578063663c226911610125578063663c2269146102e357806376c932e01461030157806378e8cd851461033157806380d03829146103615761018e565b806347ee45b9146102675780635e6f90ae146102975780636386c1c7146102b35761018e565b806311389f541461019357806317e8c952146101af5780632c91324c146101cd578063347d1066146101fd578063349059481461022d578063400003db14610249575b600080fd5b6101ad60048036038101906101a891906130bb565b610586565b005b6101b7610925565b6040516101c49190613157565b60405180910390f35b6101e760048036038101906101e29190613172565b6109b6565b6040516101f49190613157565b60405180910390f35b6102176004803603810190610212919061319f565b6109f5565b6040516102249190613157565b60405180910390f35b61024760048036038101906102429190613325565b610a4f565b005b610251610c5f565b60405161025e91906134a1565b60405180910390f35b610281600480360381019061027c91906134c3565b610ced565b60405161028e91906136bd565b60405180910390f35b6102b160048036038101906102ac91906136df565b610ee8565b005b6102cd60048036038101906102c891906134c3565b61132a565b6040516102da919061385a565b60405180910390f35b6102eb6114d9565b6040516102f8919061388b565b60405180910390f35b61031b60048036038101906103169190613172565b6114df565b6040516103289190613157565b60405180910390f35b61034b60048036038101906103469190613172565b61151e565b6040516103589190613157565b60405180910390f35b61036961155d565b60405161037691906134a1565b60405180910390f35b61039960048036038101906103949190613172565b6115eb565b6040516103b09b9a99989796959493929190613954565b60405180910390f35b6103d360048036038101906103ce91906134c3565b6116cc565b6040516103e7989796959493929190613a49565b60405180910390f35b6103f86117e9565b6040516104059190613157565b60405180910390f35b61042860048036038101906104239190613ace565b61180d565b005b610444600480360381019061043f9190613172565b611a67565b60405161045b9b9a99989796959493929190613954565b60405180910390f35b61047e600480360381019061047991906134c3565b611b58565b604051610492989796959493929190613b1d565b60405180910390f35b6104b560048036038101906104b09190613172565b611c55565b6040516104cb9a99989796959493929190613ba2565b60405180910390f35b6104dc611dab565b6040516104e9919061388b565b60405180910390f35b61050c60048036038101906105079190613c45565b611db1565b005b61051661220e565b604051610523919061388b565b60405180910390f35b610534612214565b6040516105419190613e60565b60405180910390f35b6105526124a0565b60405161055f9190614031565b60405180910390f35b6105706126e5565b60405161057d919061388b565b60405180910390f35b600a5460096000600a548152602001908152602001600020600001819055508560096000600a548152602001908152602001600020600101819055506040518060200160405280600081525060096000600a54815260200190815260200160002060020190805190602001906105fd929190612e3b565b508460048111156106115761061061350e565b5b60096000600a54815260200190815260200160002060030160006101000a81548160ff0219169083600481111561064b5761064a61350e565b5b02179055508360028111156106635761066261350e565b5b60096000600a54815260200190815260200160002060030160016101000a81548160ff0219169083600281111561069d5761069c61350e565b5b02179055508260096000600a54815260200190815260200160002060030160026101000a81548173ffffffffffffffffffffffffffffffffffffffff021916908373ffffffffffffffffffffffffffffffffffffffff160217905550600460009054906101000a900473ffffffffffffffffffffffffffffffffffffffff1660096000600a54815260200190815260200160002060040160006101000a81548173ffffffffffffffffffffffffffffffffffffffff021916908373ffffffffffffffffffffffffffffffffffffffff1602179055508160096000600a54815260200190815260200160002060050160006101000a81548173ffffffffffffffffffffffffffffffffffffffff021916908373ffffffffffffffffffffffffffffffffffffffff1602179055504260096000600a548152602001908152602001600020600601819055508060096000600a54815260200190815260200160002060070181905550610813600a5487868887876126eb565b7f90583ca8ead7c14ff92850c7bb66c4dbe2b936e5357ab8774fca965e7ffb4486600a548787600481111561084b5761084a61350e565b5b87600281111561085e5761085d61350e565b5b87600460009054906101000a900473ffffffffffffffffffffffffffffffffffffffff1688428960405161089a99989796959493929190614079565b60405180910390a1600b829080600181540180825580915050600190039060005260206000200160009091909190916101000a81548173ffffffffffffffffffffffffffffffffffffffff021916908373ffffffffffffffffffffffffffffffffffffffff160217905550600a600081548092919061091890614149565b9190505550505050505050565b60006005600081548092919061093a90614149565b91905055507f6373643f2e213f2a73616c61733b646c412e3b735f6173000000000000000000600460009054906101000a900473ffffffffffffffffffffffffffffffffffffffff166005546040516020016109989392919061421c565b6040516020818303038152906040528051906020012060001c905090565b600281815481106109c657600080fd5b906000526020600020016000915054906101000a900473ffffffffffffffffffffffffffffffffffffffff1681565b600082600460009054906101000a900473ffffffffffffffffffffffffffffffffffffffff1683604051602001610a2e9392919061421c565b6040516020818303038152906040528051906020012060001c905092915050565b846002811115610a6257610a6161350e565b5b600c600089815260200190815260200160002060030160006101000a81548160ff02191690836002811115610a9a57610a9961350e565b5b021790555080600c6000898152602001908152602001600020600701819055506000600c6000898152602001908152602001600020600001549050856002811115610ae857610ae761350e565b5b600e8281548110610afc57610afb614259565b5b906000526020600020906008020160030160006101000a81548160ff02191690836002811115610b2f57610b2e61350e565b5b021790555081600e8281548110610b4957610b48614259565b5b90600052602060002090600802016007018190555086600960008781526020019081526020016000206002019080519060200190610b88929190612e3b565b50856002811115610b9c57610b9b61350e565b5b6009600087815260200190815260200160002060030160016101000a81548160ff02191690836002811115610bd457610bd361350e565b5b0217905550836004811115610bec57610beb61350e565b5b600660008573ffffffffffffffffffffffffffffffffffffffff1673ffffffffffffffffffffffffffffffffffffffff16815260200190815260200160002060020160006101000a81548160ff02191690836004811115610c5057610c4f61350e565b5b02179055505050505050505050565b6060600b805480602002602001604051908101604052809291908181526020018280548015610ce357602002820191906000526020600020905b8160009054906101000a900473ffffffffffffffffffffffffffffffffffffffff1673ffffffffffffffffffffffffffffffffffffffff1681526020019060010190808311610c99575b5050505050905090565b610cf5612ec1565b600660008373ffffffffffffffffffffffffffffffffffffffff1673ffffffffffffffffffffffffffffffffffffffff1681526020019081526020016000206040518061010001604052908160008201548152602001600182015481526020016002820160009054906101000a900460ff166004811115610d7957610d7861350e565b5b6004811115610d8b57610d8a61350e565b5b8152602001600382018054610d9f906142b7565b80601f0160208091040260200160405190810160405280929190818152602001828054610dcb906142b7565b8015610e185780601f10610ded57610100808354040283529160200191610e18565b820191906000526020600020905b815481529060010190602001808311610dfb57829003601f168201915b505050505081526020016004820160009054906101000a900473ffffffffffffffffffffffffffffffffffffffff1673ffffffffffffffffffffffffffffffffffffffff1673ffffffffffffffffffffffffffffffffffffffff1681526020016005820160009054906101000a900473ffffffffffffffffffffffffffffffffffffffff1673ffffffffffffffffffffffffffffffffffffffff1673ffffffffffffffffffffffffffffffffffffffff168152602001600682015481526020016007820154815250509050919050565b6000610f167f6373643f534073616c61733b646c413233345f442e3b735f61730000000000006007546109f5565b9050600754600660008373ffffffffffffffffffffffffffffffffffffffff1673ffffffffffffffffffffffffffffffffffffffff1681526020019081526020016000206000018190555084600660008373ffffffffffffffffffffffffffffffffffffffff1673ffffffffffffffffffffffffffffffffffffffff16815260200190815260200160002060010181905550836004811115610fbb57610fba61350e565b5b600660008373ffffffffffffffffffffffffffffffffffffffff1673ffffffffffffffffffffffffffffffffffffffff16815260200190815260200160002060020160006101000a81548160ff0219169083600481111561101f5761101e61350e565b5b021790555082600660008373ffffffffffffffffffffffffffffffffffffffff1673ffffffffffffffffffffffffffffffffffffffff168152602001908152602001600020600301908051906020019061107a929190612e3b565b5080600660008373ffffffffffffffffffffffffffffffffffffffff1673ffffffffffffffffffffffffffffffffffffffff16815260200190815260200160002060040160006101000a81548173ffffffffffffffffffffffffffffffffffffffff021916908373ffffffffffffffffffffffffffffffffffffffff160217905550600460009054906101000a900473ffffffffffffffffffffffffffffffffffffffff16600660008373ffffffffffffffffffffffffffffffffffffffff1673ffffffffffffffffffffffffffffffffffffffff16815260200190815260200160002060050160006101000a81548173ffffffffffffffffffffffffffffffffffffffff021916908373ffffffffffffffffffffffffffffffffffffffff16021790555042600660008373ffffffffffffffffffffffffffffffffffffffff1673ffffffffffffffffffffffffffffffffffffffff1681526020019081526020016000206006018190555081600660008373ffffffffffffffffffffffffffffffffffffffff1673ffffffffffffffffffffffffffffffffffffffff168152602001908152602001600020600701819055507ff2265692fdcb7284199661816e9f39943f05d9164a772dbe50150284b61e18b4600754868660048111156112655761126461350e565b5b8685600460009054906101000a900473ffffffffffffffffffffffffffffffffffffffff1642896040516112a0989796959493929190613a49565b60405180910390a16008819080600181540180825580915050600190039060005260206000200160009091909190916101000a81548173ffffffffffffffffffffffffffffffffffffffff021916908373ffffffffffffffffffffffffffffffffffffffff1602179055506007600081548092919061131e90614149565b91905055505050505050565b611332612f4a565b600160008373ffffffffffffffffffffffffffffffffffffffff1673ffffffffffffffffffffffffffffffffffffffff1681526020019081526020016000206040518061010001604052908160008201548152602001600182018054611397906142b7565b80601f01602080910402602001604051908101604052809291908181526020018280546113c3906142b7565b80156114105780601f106113e557610100808354040283529160200191611410565b820191906000526020600020905b8154815290600101906020018083116113f357829003601f168201915b505050505081526020016002820154815260200160038201548152602001600482015481526020016005820160009054906101000a900460ff16600381111561145c5761145b61350e565b5b600381111561146e5761146d61350e565b5b81526020016005820160019054906101000a900473ffffffffffffffffffffffffffffffffffffffff1673ffffffffffffffffffffffffffffffffffffffff1673ffffffffffffffffffffffffffffffffffffffff1681526020016006820154815250509050919050565b600d5481565b600881815481106114ef57600080fd5b906000526020600020016000915054906101000a900473ffffffffffffffffffffffffffffffffffffffff1681565b600b818154811061152e57600080fd5b906000526020600020016000915054906101000a900473ffffffffffffffffffffffffffffffffffffffff1681565b606060088054806020026020016040519081016040528092919081815260200182805480156115e157602002820191906000526020600020905b8160009054906101000a900473ffffffffffffffffffffffffffffffffffffffff1673ffffffffffffffffffffffffffffffffffffffff1681526020019060010190808311611597575b5050505050905090565b600c6020528060005260406000206000915090508060000154908060010154908060020154908060030160009054906101000a900460ff16908060030160019054906101000a900460ff16908060030160029054906101000a900460ff16908060030160039054906101000a900473ffffffffffffffffffffffffffffffffffffffff16908060040160009054906101000a900473ffffffffffffffffffffffffffffffffffffffff16908060050160009054906101000a900473ffffffffffffffffffffffffffffffffffffffff1690806006015490806007015490508b565b60066020528060005260406000206000915090508060000154908060010154908060020160009054906101000a900460ff169080600301805461170e906142b7565b80601f016020809104026020016040519081016040528092919081815260200182805461173a906142b7565b80156117875780601f1061175c57610100808354040283529160200191611787565b820191906000526020600020905b81548152906001019060200180831161176a57829003601f168201915b5050505050908060040160009054906101000a900473ffffffffffffffffffffffffffffffffffffffff16908060050160009054906101000a900473ffffffffffffffffffffffffffffffffffffffff16908060060154908060070154905088565b60008054906101000a900473ffffffffffffffffffffffffffffffffffffffff1681565b8160038111156118205761181f61350e565b5b600160008373ffffffffffffffffffffffffffffffffffffffff1673ffffffffffffffffffffffffffffffffffffffff16815260200190815260200160002060050160006101000a81548160ff021916908360038111156118845761188361350e565b5b02179055508073ffffffffffffffffffffffffffffffffffffffff168260038111156118b3576118b261350e565b5b60038111156118c5576118c461350e565b5b600160008473ffffffffffffffffffffffffffffffffffffffff1673ffffffffffffffffffffffffffffffffffffffff1681526020019081526020016000206001016040516119149190614388565b60405180910390207ff17f3effabbd51830c4ffa8b6910ac12573d210009e0aedb1a55ae5026192e9a600160008673ffffffffffffffffffffffffffffffffffffffff1673ffffffffffffffffffffffffffffffffffffffff16815260200190815260200160002060000154600160008773ffffffffffffffffffffffffffffffffffffffff1673ffffffffffffffffffffffffffffffffffffffff16815260200190815260200160002060020154600160008873ffffffffffffffffffffffffffffffffffffffff1673ffffffffffffffffffffffffffffffffffffffff16815260200190815260200160002060030154600160008973ffffffffffffffffffffffffffffffffffffffff1673ffffffffffffffffffffffffffffffffffffffff1681526020019081526020016000206004015442604051611a5b95949392919061439f565b60405180910390a45050565b600e8181548110611a7757600080fd5b90600052602060002090600802016000915090508060000154908060010154908060020154908060030160009054906101000a900460ff16908060030160019054906101000a900460ff16908060030160029054906101000a900460ff16908060030160039054906101000a900473ffffffffffffffffffffffffffffffffffffffff16908060040160009054906101000a900473ffffffffffffffffffffffffffffffffffffffff16908060050160009054906101000a900473ffffffffffffffffffffffffffffffffffffffff1690806006015490806007015490508b565b6001602052806000526040600020600091509050806000015490806001018054611b81906142b7565b80601f0160208091040260200160405190810160405280929190818152602001828054611bad906142b7565b8015611bfa5780601f10611bcf57610100808354040283529160200191611bfa565b820191906000526020600020905b815481529060010190602001808311611bdd57829003601f168201915b5050505050908060020154908060030154908060040154908060050160009054906101000a900460ff16908060050160019054906101000a900473ffffffffffffffffffffffffffffffffffffffff16908060060154905088565b6009602052806000526040600020600091509050806000015490806001015490806002018054611c84906142b7565b80601f0160208091040260200160405190810160405280929190818152602001828054611cb0906142b7565b8015611cfd5780601f10611cd257610100808354040283529160200191611cfd565b820191906000526020600020905b815481529060010190602001808311611ce057829003601f168201915b5050505050908060030160009054906101000a900460ff16908060030160019054906101000a900460ff16908060030160029054906101000a900473ffffffffffffffffffffffffffffffffffffffff16908060040160009054906101000a900473ffffffffffffffffffffffffffffffffffffffff16908060050160009054906101000a900473ffffffffffffffffffffffffffffffffffffffff1690806006015490806007015490508a565b600a5481565b3373ffffffffffffffffffffffffffffffffffffffff1660008054906101000a900473ffffffffffffffffffffffffffffffffffffffff1673ffffffffffffffffffffffffffffffffffffffff1614611e3f576040517f08c379a0000000000000000000000000000000000000000000000000000000008152600401611e369061443e565b60405180910390fd5b600354600160008373ffffffffffffffffffffffffffffffffffffffff1673ffffffffffffffffffffffffffffffffffffffff1681526020019081526020016000206000018190555085600160008373ffffffffffffffffffffffffffffffffffffffff1673ffffffffffffffffffffffffffffffffffffffff1681526020019081526020016000206001019080519060200190611ede929190612e3b565b5084600160008373ffffffffffffffffffffffffffffffffffffffff1673ffffffffffffffffffffffffffffffffffffffff1681526020019081526020016000206002018190555083600160008373ffffffffffffffffffffffffffffffffffffffff1673ffffffffffffffffffffffffffffffffffffffff1681526020019081526020016000206003018190555082600160008373ffffffffffffffffffffffffffffffffffffffff1673ffffffffffffffffffffffffffffffffffffffff16815260200190815260200160002060040181905550816003811115611fc757611fc661350e565b5b600160008373ffffffffffffffffffffffffffffffffffffffff1673ffffffffffffffffffffffffffffffffffffffff16815260200190815260200160002060050160006101000a81548160ff0219169083600381111561202b5761202a61350e565b5b021790555080600160008373ffffffffffffffffffffffffffffffffffffffff1673ffffffffffffffffffffffffffffffffffffffff16815260200190815260200160002060050160016101000a81548173ffffffffffffffffffffffffffffffffffffffff021916908373ffffffffffffffffffffffffffffffffffffffff16021790555042600160008373ffffffffffffffffffffffffffffffffffffffff1673ffffffffffffffffffffffffffffffffffffffff168152602001908152602001600020600601819055508073ffffffffffffffffffffffffffffffffffffffff168260038111156121225761212161350e565b5b60038111156121345761213361350e565b5b87604051612142919061448f565b60405180910390207ff17f3effabbd51830c4ffa8b6910ac12573d210009e0aedb1a55ae5026192e9a6003548989894260405161218395949392919061439f565b60405180910390a46002819080600181540180825580915050600190039060005260206000200160009091909190916101000a81548173ffffffffffffffffffffffffffffffffffffffff021916908373ffffffffffffffffffffffffffffffffffffffff1602179055506003600081548092919061220190614149565b9190505550505050505050565b60035481565b6060600060035467ffffffffffffffff811115612234576122336131fa565b5b60405190808252806020026020018201604052801561226d57816020015b61225a612f4a565b8152602001906001900390816122525790505b50905060005b6003548110156124985760006002828154811061229357612292614259565b5b9060005260206000200160009054906101000a900473ffffffffffffffffffffffffffffffffffffffff1690506000600160008373ffffffffffffffffffffffffffffffffffffffff1673ffffffffffffffffffffffffffffffffffffffff168152602001908152602001600020905080604051806101000160405290816000820154815260200160018201805461232a906142b7565b80601f0160208091040260200160405190810160405280929190818152602001828054612356906142b7565b80156123a35780601f10612378576101008083540402835291602001916123a3565b820191906000526020600020905b81548152906001019060200180831161238657829003601f168201915b505050505081526020016002820154815260200160038201548152602001600482015481526020016005820160009054906101000a900460ff1660038111156123ef576123ee61350e565b5b60038111156124015761240061350e565b5b81526020016005820160019054906101000a900473ffffffffffffffffffffffffffffffffffffffff1673ffffffffffffffffffffffffffffffffffffffff1673ffffffffffffffffffffffffffffffffffffffff16815260200160068201548152505084848151811061247857612477614259565b5b60200260200101819052505050808061249090614149565b915050612273565b508091505090565b6060600e805480602002602001604051908101604052809291908181526020016000905b828210156126dc5783829060005260206000209060080201604051806101600160405290816000820154815260200160018201548152602001600282015481526020016003820160009054906101000a900460ff16600281111561252b5761252a61350e565b5b600281111561253d5761253c61350e565b5b81526020016003820160019054906101000a900460ff1660048111156125665761256561350e565b5b60048111156125785761257761350e565b5b81526020016003820160029054906101000a900460ff1660018111156125a1576125a061350e565b5b60018111156125b3576125b261350e565b5b81526020016003820160039054906101000a900473ffffffffffffffffffffffffffffffffffffffff1673ffffffffffffffffffffffffffffffffffffffff1673ffffffffffffffffffffffffffffffffffffffff1681526020016004820160009054906101000a900473ffffffffffffffffffffffffffffffffffffffff1673ffffffffffffffffffffffffffffffffffffffff1673ffffffffffffffffffffffffffffffffffffffff1681526020016005820160009054906101000a900473ffffffffffffffffffffffffffffffffffffffff1673ffffffffffffffffffffffffffffffffffffffff1673ffffffffffffffffffffffffffffffffffffffff16815260200160068201548152602001600782015481525050815260200190600101906124c4565b50505050905090565b60075481565b6000600160048111156127015761270061350e565b5b8460048111156127145761271361350e565b5b60048111156127265761272561350e565b5b14806127685750600360048111156127415761274061350e565b5b8460048111156127545761275361350e565b5b60048111156127665761276561350e565b5b145b806127a857506004808111156127815761278061350e565b5b8460048111156127945761279361350e565b5b60048111156127a6576127a561350e565b5b145b156127b657600090506127fb565b600260048111156127ca576127c961350e565b5b8460048111156127dd576127dc61350e565b5b60048111156127ef576127ee61350e565b5b14156127fa57600190505b5b61280a87878787858888612813565b50505050505050565b600d54600c6000600d5481526020019081526020016000206000018190555086600c6000600d5481526020019081526020016000206001018190555085600c6000600d5481526020019081526020016000206002018190555084600281111561287f5761287e61350e565b5b600c6000600d54815260200190815260200160002060030160006101000a81548160ff021916908360028111156128b9576128b861350e565b5b02179055508360048111156128d1576128d061350e565b5b600c6000600d54815260200190815260200160002060030160016101000a81548160ff0219169083600481111561290b5761290a61350e565b5b021790555082600c6000600d54815260200190815260200160002060030160026101000a81548160ff0219169083600181111561294b5761294a61350e565b5b021790555081600c6000600d54815260200190815260200160002060030160036101000a81548173ffffffffffffffffffffffffffffffffffffffff021916908373ffffffffffffffffffffffffffffffffffffffff160217905550600460009054906101000a900473ffffffffffffffffffffffffffffffffffffffff16600c6000600d54815260200190815260200160002060040160006101000a81548173ffffffffffffffffffffffffffffffffffffffff021916908373ffffffffffffffffffffffffffffffffffffffff16021790555080600c6000600d54815260200190815260200160002060050160006101000a81548173ffffffffffffffffffffffffffffffffffffffff021916908373ffffffffffffffffffffffffffffffffffffffff16021790555042600c6000600d548152602001908152602001600020600601819055506000600c6000600d548152602001908152602001600020600701819055507faac9d1362d2ae7196557149fecbb467805d15ac910dbaba92fa94d1ac1e6a4b5600d548888886002811115612aeb57612aea61350e565b5b886004811115612afe57612afd61350e565b5b8888600460009054906101000a900473ffffffffffffffffffffffffffffffffffffffff168942604051612b3b9a999897969594939291906144ad565b60405180910390a1600e604051806101600160405280600d548152602001898152602001888152602001876002811115612b7857612b7761350e565b5b6002811115612b8a57612b8961350e565b5b8152602001866004811115612ba257612ba161350e565b5b6004811115612bb457612bb361350e565b5b8152602001856001811115612bcc57612bcb61350e565b5b81526020018473ffffffffffffffffffffffffffffffffffffffff168152602001600460009054906101000a900473ffffffffffffffffffffffffffffffffffffffff1673ffffffffffffffffffffffffffffffffffffffff1681526020018373ffffffffffffffffffffffffffffffffffffffff1681526020014281526020016000801916815250908060018154018082558091505060019003906000526020600020906008020160009091909190915060008201518160000155602082015181600101556040820151816002015560608201518160030160006101000a81548160ff02191690836002811115612cc757612cc661350e565b5b021790555060808201518160030160016101000a81548160ff02191690836004811115612cf757612cf661350e565b5b021790555060a08201518160030160026101000a81548160ff02191690836001811115612d2757612d2661350e565b5b021790555060c08201518160030160036101000a81548173ffffffffffffffffffffffffffffffffffffffff021916908373ffffffffffffffffffffffffffffffffffffffff16021790555060e08201518160040160006101000a81548173ffffffffffffffffffffffffffffffffffffffff021916908373ffffffffffffffffffffffffffffffffffffffff1602179055506101008201518160050160006101000a81548173ffffffffffffffffffffffffffffffffffffffff021916908373ffffffffffffffffffffffffffffffffffffffff160217905550610120820151816006015561014082015181600701555050600d6000815480929190612e2d90614149565b919050555050505050505050565b828054612e47906142b7565b90600052602060002090601f016020900481019282612e695760008555612eb0565b82601f10612e8257805160ff1916838001178555612eb0565b82800160010185558215612eb0579182015b82811115612eaf578251825591602001919060010190612e94565b5b509050612ebd9190612fc0565b5090565b604051806101000160405280600081526020016000801916815260200160006004811115612ef257612ef161350e565b5b815260200160608152602001600073ffffffffffffffffffffffffffffffffffffffff168152602001600073ffffffffffffffffffffffffffffffffffffffff16815260200160008152602001600080191681525090565b604051806101000160405280600081526020016060815260200160008019168152602001600080191681526020016000801916815260200160006003811115612f9657612f9561350e565b5b8152602001600073ffffffffffffffffffffffffffffffffffffffff168152602001600081525090565b5b80821115612fd9576000816000905550600101612fc1565b5090565b6000604051905090565b600080fd5b600080fd5b6000819050919050565b61300481612ff1565b811461300f57600080fd5b50565b60008135905061302181612ffb565b92915050565b6000819050919050565b61303a81613027565b811461304557600080fd5b50565b60008135905061305781613031565b92915050565b600073ffffffffffffffffffffffffffffffffffffffff82169050919050565b60006130888261305d565b9050919050565b6130988161307d565b81146130a357600080fd5b50565b6000813590506130b58161308f565b92915050565b60008060008060008060c087890312156130d8576130d7612fe7565b5b60006130e689828a01613012565b96505060206130f789828a01613048565b955050604061310889828a01613048565b945050606061311989828a016130a6565b935050608061312a89828a016130a6565b92505060a061313b89828a01613012565b9150509295509295509295565b6131518161307d565b82525050565b600060208201905061316c6000830184613148565b92915050565b60006020828403121561318857613187612fe7565b5b600061319684828501613048565b91505092915050565b600080604083850312156131b6576131b5612fe7565b5b60006131c485828601613012565b92505060206131d585828601613048565b9150509250929050565b600080fd5b600080fd5b6000601f19601f8301169050919050565b7f4e487b7100000000000000000000000000000000000000000000000000000000600052604160045260246000fd5b613232826131e9565b810181811067ffffffffffffffff82111715613251576132506131fa565b5b80604052505050565b6000613264612fdd565b90506132708282613229565b919050565b600067ffffffffffffffff8211156132905761328f6131fa565b5b613299826131e9565b9050602081019050919050565b82818337600083830152505050565b60006132c86132c384613275565b61325a565b9050828152602081018484840111156132e4576132e36131e4565b5b6132ef8482856132a6565b509392505050565b600082601f83011261330c5761330b6131df565b5b813561331c8482602086016132b5565b91505092915050565b600080600080600080600060e0888a03121561334457613343612fe7565b5b60006133528a828b01613048565b975050602088013567ffffffffffffffff81111561337357613372612fec565b5b61337f8a828b016132f7565b96505060406133908a828b01613048565b95505060606133a18a828b01613048565b94505060806133b28a828b01613048565b93505060a06133c38a828b016130a6565b92505060c06133d48a828b01613012565b91505092959891949750929550565b600081519050919050565b600082825260208201905092915050565b6000819050602082019050919050565b6134188161307d565b82525050565b600061342a838361340f565b60208301905092915050565b6000602082019050919050565b600061344e826133e3565b61345881856133ee565b9350613463836133ff565b8060005b8381101561349457815161347b888261341e565b975061348683613436565b925050600181019050613467565b5085935050505092915050565b600060208201905081810360008301526134bb8184613443565b905092915050565b6000602082840312156134d9576134d8612fe7565b5b60006134e7848285016130a6565b91505092915050565b6134f981613027565b82525050565b61350881612ff1565b82525050565b7f4e487b7100000000000000000000000000000000000000000000000000000000600052602160045260246000fd5b6005811061354e5761354d61350e565b5b50565b600081905061355f8261353d565b919050565b600061356f82613551565b9050919050565b61357f81613564565b82525050565b600081519050919050565b600082825260208201905092915050565b60005b838110156135bf5780820151818401526020810190506135a4565b838111156135ce576000848401525b50505050565b60006135df82613585565b6135e98185613590565b93506135f98185602086016135a1565b613602816131e9565b840191505092915050565b60006101008301600083015161362660008601826134f0565b50602083015161363960208601826134ff565b50604083015161364c6040860182613576565b506060830151848203606086015261366482826135d4565b9150506080830151613679608086018261340f565b5060a083015161368c60a086018261340f565b5060c083015161369f60c08601826134f0565b5060e08301516136b260e08601826134ff565b508091505092915050565b600060208201905081810360008301526136d7818461360d565b905092915050565b600080600080608085870312156136f9576136f8612fe7565b5b600061370787828801613012565b945050602061371887828801613048565b935050604085013567ffffffffffffffff81111561373957613738612fec565b5b613745878288016132f7565b925050606061375687828801613012565b91505092959194509250565b600481106137735761377261350e565b5b50565b600081905061378482613762565b919050565b600061379482613776565b9050919050565b6137a481613789565b82525050565b6000610100830160008301516137c360008601826134f0565b50602083015184820360208601526137db82826135d4565b91505060408301516137f060408601826134ff565b50606083015161380360608601826134ff565b50608083015161381660808601826134ff565b5060a083015161382960a086018261379b565b5060c083015161383c60c086018261340f565b5060e083015161384f60e08601826134f0565b508091505092915050565b6000602082019050818103600083015261387481846137aa565b905092915050565b61388581613027565b82525050565b60006020820190506138a0600083018461387c565b92915050565b6138af81612ff1565b82525050565b600381106138c6576138c561350e565b5b50565b60008190506138d7826138b5565b919050565b60006138e7826138c9565b9050919050565b6138f7816138dc565b82525050565b61390681613564565b82525050565b6002811061391d5761391c61350e565b5b50565b600081905061392e8261390c565b919050565b600061393e82613920565b9050919050565b61394e81613933565b82525050565b60006101608201905061396a600083018e61387c565b613977602083018d61387c565b613984604083018c6138a6565b613991606083018b6138ee565b61399e608083018a6138fd565b6139ab60a0830189613945565b6139b860c0830188613148565b6139c560e0830187613148565b6139d3610100830186613148565b6139e161012083018561387c565b6139ef6101408301846138a6565b9c9b505050505050505050505050565b600082825260208201905092915050565b6000613a1b82613585565b613a2581856139ff565b9350613a358185602086016135a1565b613a3e816131e9565b840191505092915050565b600061010082019050613a5f600083018b61387c565b613a6c602083018a6138a6565b613a7960408301896138fd565b8181036060830152613a8b8188613a10565b9050613a9a6080830187613148565b613aa760a0830186613148565b613ab460c083018561387c565b613ac160e08301846138a6565b9998505050505050505050565b60008060408385031215613ae557613ae4612fe7565b5b6000613af385828601613048565b9250506020613b04858286016130a6565b9150509250929050565b613b1781613789565b82525050565b600061010082019050613b33600083018b61387c565b8181036020830152613b45818a613a10565b9050613b5460408301896138a6565b613b6160608301886138a6565b613b6e60808301876138a6565b613b7b60a0830186613b0e565b613b8860c0830185613148565b613b9560e083018461387c565b9998505050505050505050565b600061014082019050613bb8600083018d61387c565b613bc5602083018c6138a6565b8181036040830152613bd7818b613a10565b9050613be6606083018a6138fd565b613bf360808301896138ee565b613c0060a0830188613148565b613c0d60c0830187613148565b613c1a60e0830186613148565b613c2861010083018561387c565b613c366101208301846138a6565b9b9a5050505050505050505050565b60008060008060008060c08789031215613c6257613c61612fe7565b5b600087013567ffffffffffffffff811115613c8057613c7f612fec565b5b613c8c89828a016132f7565b9650506020613c9d89828a01613012565b9550506040613cae89828a01613012565b9450506060613cbf89828a01613012565b9350506080613cd089828a01613048565b92505060a0613ce189828a016130a6565b9150509295509295509295565b600081519050919050565b600082825260208201905092915050565b6000819050602082019050919050565b600061010083016000830151613d3360008601826134f0565b5060208301518482036020860152613d4b82826135d4565b9150506040830151613d6060408601826134ff565b506060830151613d7360608601826134ff565b506080830151613d8660808601826134ff565b5060a0830151613d9960a086018261379b565b5060c0830151613dac60c086018261340f565b5060e0830151613dbf60e08601826134f0565b508091505092915050565b6000613dd68383613d1a565b905092915050565b6000602082019050919050565b6000613df682613cee565b613e008185613cf9565b935083602082028501613e1285613d0a565b8060005b85811015613e4e5784840389528151613e2f8582613dca565b9450613e3a83613dde565b925060208a01995050600181019050613e16565b50829750879550505050505092915050565b60006020820190508181036000830152613e7a8184613deb565b905092915050565b600081519050919050565b600082825260208201905092915050565b6000819050602082019050919050565b613eb7816138dc565b82525050565b613ec681613933565b82525050565b61016082016000820151613ee360008501826134f0565b506020820151613ef660208501826134f0565b506040820151613f0960408501826134ff565b506060820151613f1c6060850182613eae565b506080820151613f2f6080850182613576565b5060a0820151613f4260a0850182613ebd565b5060c0820151613f5560c085018261340f565b5060e0820151613f6860e085018261340f565b50610100820151613f7d61010085018261340f565b50610120820151613f926101208501826134f0565b50610140820151613fa76101408501826134ff565b50505050565b6000613fb98383613ecc565b6101608301905092915050565b6000602082019050919050565b6000613fde82613e82565b613fe88185613e8d565b9350613ff383613e9e565b8060005b8381101561402457815161400b8882613fad565b975061401683613fc6565b925050600181019050613ff7565b5085935050505092915050565b6000602082019050818103600083015261404b8184613fd3565b905092915050565b50565b60006140636000836139ff565b915061406e82614053565b600082019050919050565b60006101408201905061408f600083018c61387c565b61409c602083018b6138a6565b81810360408301526140ad81614056565b90506140bc606083018a6138fd565b6140c960808301896138ee565b6140d660a0830188613148565b6140e360c0830187613148565b6140f060e0830186613148565b6140fe61010083018561387c565b61410c6101208301846138a6565b9a9950505050505050505050565b7f4e487b7100000000000000000000000000000000000000000000000000000000600052601160045260246000fd5b600061415482613027565b91507fffffffffffffffffffffffffffffffffffffffffffffffffffffffffffffffff8214156141875761418661411a565b5b600182019050919050565b6000819050919050565b6141ad6141a882612ff1565b614192565b82525050565b60008160601b9050919050565b60006141cb826141b3565b9050919050565b60006141dd826141c0565b9050919050565b6141f56141f08261307d565b6141d2565b82525050565b6000819050919050565b61421661421182613027565b6141fb565b82525050565b6000614228828661419c565b60208201915061423882856141e4565b6014820191506142488284614205565b602082019150819050949350505050565b7f4e487b7100000000000000000000000000000000000000000000000000000000600052603260045260246000fd5b7f4e487b7100000000000000000000000000000000000000000000000000000000600052602260045260246000fd5b600060028204905060018216806142cf57607f821691505b602082108114156142e3576142e2614288565b5b50919050565b600081905092915050565b60008190508160005260206000209050919050565b60008154614316816142b7565b61432081866142e9565b9450600182166000811461433b576001811461434c5761437f565b60ff1983168652818601935061437f565b614355856142f4565b60005b8381101561437757815481890152600182019150602081019050614358565b838801955050505b50505092915050565b60006143948284614309565b915081905092915050565b600060a0820190506143b4600083018861387c565b6143c160208301876138a6565b6143ce60408301866138a6565b6143db60608301856138a6565b6143e8608083018461387c565b9695505050505050565b7f596f7520617265206e6f7420616e206f776e6572000000000000000000000000600082015250565b60006144286014836139ff565b9150614433826143f2565b602082019050919050565b600060208201905081810360008301526144578161441b565b9050919050565b600061446982613585565b61447381856142e9565b93506144838185602086016135a1565b80840191505092915050565b600061449b828461445e565b915081905092915050565b6000815250565b6000610160820190506144c3600083018d61387c565b6144d0602083018c61387c565b6144dd604083018b6138a6565b6144ea606083018a6138ee565b6144f760808301896138fd565b61450460a0830188613945565b61451160c0830187613148565b61451e60e0830186613148565b61452c610100830185613148565b61453a61012083018461387c565b61454761014083016144a6565b9b9a505050505050505050505056fea2646970667358221220f8d201f76d730bea9bd51ad3a33ff4a82b132fc57ad3492f321163cdd70aaf1864736f6c634300080a0033",
  "immutableReferences": {},
  "source": "// SPDX-License-Identifier: MIT\r\npragma solidity >=0.8.0 <0.9.0;\r\n\r\nimport \"./UserChain.sol\";\r\nimport \"./SharedChain.sol\";\r\n\r\ncontract ProjectChain is UserChain, SharedChain {\r\n    bytes32 constant PROJECT_HASH_VALUE = \"csd?S@salas;dlA234_D.;s_as\";\r\n    bytes32 constant REQUEST_HASH_VALUE = \"csd?.!?*salas;dlA.;s_as\";\r\n    address _projectInitiator;\r\n\r\n    uint _indexUniqueAddress = 0;\r\n\r\n    /**  DATA FOR PROJECT INITIATOR  */\r\n\r\n    mapping(address => Project) public projects;\r\n    uint public projectsCounter = 0;\r\n    address[] public projectsAddress;\r\n\r\n    mapping(uint => ProjectRequest) public projectRequests;\r\n    uint public projectRequestsCounter = 0;\r\n    address[] public projectRequestsAddress;\r\n\r\n    constructor() {\r\n        _projectInitiator = msg.sender;\r\n    }\r\n\r\n    modifier onlyProjectInitiator {\r\n        require(users[_projectInitiator]._role == Roles.ProjectInitiator, \"You don't have the rights for this resources.\");\r\n        require(_projectInitiator == msg.sender, \"You are not a project initiator\");\r\n        _;\r\n    }\r\n\r\n    function createUniqueProjectAddress(bytes32 _text, uint _index) public view returns (address) {\r\n        return address(uint160(uint256(keccak256(abi.encodePacked(_text, _projectInitiator, _index)))));\r\n    }\r\n\r\n    function createProject(bytes32 _name, uint _status, string memory _ipfsFileCID, bytes32 _signature) public {\r\n        address _projectAddress = createUniqueProjectAddress(PROJECT_HASH_VALUE, projectsCounter);\r\n\r\n        projects[_projectAddress]._index = projectsCounter;\r\n        projects[_projectAddress]._name = _name;\r\n        projects[_projectAddress]._status = ProjectStatus(_status);\r\n        projects[_projectAddress]._ipfsFileCID = _ipfsFileCID;\r\n        projects[_projectAddress]._projectAddress = _projectAddress;\r\n        projects[_projectAddress]._userAddress = _projectInitiator;\r\n        projects[_projectAddress]._timestamp = block.timestamp;\r\n        projects[_projectAddress]._signature = _signature;\r\n\r\n        emit ProjectEvent(\r\n            projectsCounter,\r\n            _name,\r\n            ProjectStatus(_status),\r\n            _ipfsFileCID,\r\n            _projectAddress,\r\n            _projectInitiator,\r\n            block.timestamp,\r\n            _signature\r\n        );\r\n        projectsAddress.push(_projectAddress);\r\n        projectsCounter++;\r\n    }\r\n\r\n    function getProjectInfo(address _address) public view returns (Project memory) {\r\n        return projects[_address];\r\n    }\r\n\r\n    function getAllProjects() public view returns(address[] memory) {\r\n        return projectsAddress;\r\n    }\r\n\r\n    function createUniqueProjectRequestAddress() public returns (address) {\r\n        _indexUniqueAddress++;\r\n        return address(uint160(uint256(keccak256(abi.encodePacked(REQUEST_HASH_VALUE, _projectInitiator, _indexUniqueAddress)))));\r\n    }\r\n\r\n    function createProjectRequest(\r\n        bytes32 _title, uint _status, uint _requestStatus,\r\n        address _projectAddress, address _projectReqAddress, bytes32 _signature\r\n    ) public {\r\n        projectRequests[projectRequestsCounter]._index = projectRequestsCounter;\r\n        projectRequests[projectRequestsCounter]._title = _title;\r\n        projectRequests[projectRequestsCounter]._comments = '';\r\n        projectRequests[projectRequestsCounter]._status = ProjectStatus(_status);\r\n        projectRequests[projectRequestsCounter]._requestStatus = RequestStatus(_requestStatus);\r\n        projectRequests[projectRequestsCounter]._projectAddress = _projectAddress;\r\n        projectRequests[projectRequestsCounter]._userAddress = _projectInitiator;\r\n        projectRequests[projectRequestsCounter]._requestAddress = _projectReqAddress;\r\n        projectRequests[projectRequestsCounter]._timestamp = block.timestamp;\r\n        projectRequests[projectRequestsCounter]._signature = _signature;\r\n\r\n        filterRequests(projectRequestsCounter, _title, _requestStatus, _status, _projectAddress, _projectReqAddress);\r\n\r\n        emit ProjectRequestEvent(\r\n            projectRequestsCounter,\r\n            _title,\r\n            '',\r\n            ProjectStatus(_status),\r\n            RequestStatus(_requestStatus),\r\n            _projectAddress,\r\n            _projectInitiator,\r\n            _projectReqAddress,\r\n            block.timestamp,\r\n            _signature\r\n        );\r\n        projectRequestsAddress.push(_projectReqAddress);\r\n        projectRequestsCounter++;\r\n    }\r\n\r\n    function filterRequests(\r\n        uint _indexProjectRequest,\r\n        bytes32 _title,\r\n        uint _requestStatus,\r\n        uint _projectStatus,\r\n        address _projectAddress,\r\n        address _requestAddress\r\n    ) internal {\r\n        RequestType _requestType;\r\n        if (\r\n            ProjectStatus(_projectStatus) == ProjectStatus.ToApprove ||\r\n            ProjectStatus(_projectStatus) == ProjectStatus.FinalizationCheck ||\r\n            ProjectStatus(_projectStatus) == ProjectStatus.Completed\r\n        ) {\r\n            _requestType = RequestType.SupervisorReq;\r\n        } else if (ProjectStatus(_projectStatus) == ProjectStatus.StartProject) {\r\n            _requestType = RequestType.CompanyReq;\r\n        }\r\n        createRequest(_indexProjectRequest, _title, _requestStatus, _projectStatus, _requestType, _projectAddress, _requestAddress);\r\n    }\r\n\r\n    function getAllProjectRequests() external view returns(address[] memory) {\r\n        return projectRequestsAddress;\r\n    }\r\n/*\r\n    function getLastProjectRequest(address _projectAddress) external view returns(ProjectRequest memory) {\r\n        ProjectRequest memory request;\r\n        if (projectRequestsCounter > 0) {\r\n            for (uint index = projectRequestsCounter - 1; index >= 0; index--) {\r\n                if (_projectAddress == projectRequests[index]._projectAddress) {\r\n                    request._index = projectRequests[index]._index;\r\n                    request._title = projectRequests[index]._title;\r\n                    request._comments = projectRequests[index]._comments;\r\n                    request._status = projectRequests[index]._status;\r\n                    request._requestStatus = projectRequests[index]._requestStatus;\r\n                    request._projectAddress = projectRequests[index]._projectAddress;\r\n                    request._userAddress = projectRequests[index]._userAddress;\r\n                    request._requestAddress = projectRequests[index]._requestAddress;\r\n                    request._timestamp = block.timestamp;\r\n                    return request;\r\n                }\r\n            }\r\n        }\r\n        return request;\r\n    }\r\n*/\r\n\r\n    /**  DATA FOR SUPERVISOR && COMPANY  */\r\n\r\n    mapping(uint => Request) public requests;\r\n    uint public requestsCounter = 0;\r\n    Request[] public allRequests;\r\n\r\n    function createRequest(\r\n        uint _indexProjectRequest,\r\n        bytes32 _title,\r\n        uint _requestStatus,\r\n        uint _projectStatus,\r\n        RequestType _requestType,\r\n        address _projectAddress,\r\n        address _requestAddress\r\n    ) internal {\r\n        requests[requestsCounter]._index = requestsCounter;\r\n        requests[requestsCounter]._indexProjectRequest = _indexProjectRequest;\r\n        requests[requestsCounter]._title = _title;\r\n        requests[requestsCounter]._requestStatus = RequestStatus(_requestStatus);\r\n        requests[requestsCounter]._projectStatus = ProjectStatus(_projectStatus);\r\n        requests[requestsCounter]._requestType = _requestType;\r\n        requests[requestsCounter]._projectAddress = _projectAddress;\r\n        // change to supervisorAddress\r\n        requests[requestsCounter]._userAddress = _projectInitiator;\r\n        requests[requestsCounter]._requestAddress = _requestAddress;\r\n        requests[requestsCounter]._timestamp = block.timestamp;\r\n        requests[requestsCounter]._signature = '';\r\n\r\n        emit RequestEvent(\r\n            requestsCounter,\r\n            _indexProjectRequest,\r\n            _title,\r\n            RequestStatus(_requestStatus),\r\n            ProjectStatus(_projectStatus),\r\n            _requestType, _projectAddress,\r\n            _projectInitiator,\r\n            _requestAddress,\r\n            block.timestamp,\r\n            ''\r\n        );\r\n        allRequests.push(Request(\r\n            requestsCounter, _indexProjectRequest, _title,  RequestStatus(_requestStatus),\r\n            ProjectStatus(_projectStatus),  _requestType, _projectAddress,\r\n            _projectInitiator, _requestAddress, block.timestamp, ''\r\n        ));\r\n        requestsCounter++;\r\n    }\r\n\r\n    function updateRequest(\r\n        uint _index,\r\n        string memory _comments,\r\n        uint _requestStatus,\r\n        uint _indexProjectRequest,\r\n        uint _projectStatus,\r\n        address _projectAddress,\r\n        bytes32 _signature\r\n    ) public {\r\n        // Update request status in the Requests Mapping and Struct Array\r\n        requests[_index]._requestStatus = RequestStatus(_requestStatus);\r\n        requests[_index]._signature = _signature;\r\n\r\n        uint index = requests[_index]._index;\r\n        allRequests[index]._requestStatus = RequestStatus(_requestStatus);\r\n        allRequests[index]._signature = _signature;\r\n\r\n        // Update project request status in the Project Requests Mapping and Struct Array\r\n        projectRequests[_indexProjectRequest]._comments = _comments;\r\n        projectRequests[_indexProjectRequest]._requestStatus = RequestStatus(_requestStatus);\r\n\r\n        // Update ProjectStatus to the requested status - Porject Mapping and Struct Array\r\n        projects[_projectAddress]._status = ProjectStatus(_projectStatus);\r\n    }\r\n\r\n    function getAllRequests() public view returns(Request[] memory) {\r\n        return allRequests;\r\n    }\r\n}\r\n",
  "sourcePath": "/mnt/c/Users/Beniamin/source/repos/DissertationProject/contracts/ProjectChain.sol",
  "compiler": {
    "name": "solc",
    "version": "0.8.10+commit.fc410830.Emscripten.clang"
  },
  "schemaVersion": "3.4.3",
  "updatedAt": "2021-11-23T08:18:59.468Z",
  "networkType": "ethereum",
  "devdoc": {
    "kind": "dev",
    "methods": {},
    "version": 1
  },
  "userdoc": {
    "kind": "user",
    "methods": {
      "projects(address)": {
        "notice": "DATA FOR PROJECT INITIATOR  "
      },
      "requests(uint256)": {
        "notice": "DATA FOR SUPERVISOR && COMPANY  "
      }
    },
    "version": 1
  }
}