{
  "contractName": "ProjectChain",
  "abi": [
    {
      "inputs": [],
      "stateMutability": "nonpayable",
      "type": "constructor"
    },
    {
      "anonymous": false,
      "inputs": [
        {
          "indexed": false,
          "internalType": "uint256",
          "name": "_index",
          "type": "uint256"
        },
        {
          "indexed": false,
          "internalType": "bytes32",
          "name": "_name",
          "type": "bytes32"
        },
        {
          "indexed": false,
          "internalType": "enum SharedChain.ProjectStatus",
          "name": "_status",
          "type": "uint8"
        },
        {
          "indexed": false,
          "internalType": "string",
          "name": "_ipfsFileCID",
          "type": "string"
        },
        {
          "indexed": false,
          "internalType": "address",
          "name": "_projectAddress",
          "type": "address"
        },
        {
          "indexed": false,
          "internalType": "address",
          "name": "_userAddress",
          "type": "address"
        },
        {
          "indexed": false,
          "internalType": "uint256",
          "name": "_timestamp",
          "type": "uint256"
        },
        {
          "indexed": false,
          "internalType": "bytes32",
          "name": "_signature",
          "type": "bytes32"
        }
      ],
      "name": "ProjectEvent",
      "type": "event"
    },
    {
      "anonymous": false,
      "inputs": [
        {
          "indexed": false,
          "internalType": "uint256",
          "name": "_index",
          "type": "uint256"
        },
        {
          "indexed": false,
          "internalType": "bytes32",
          "name": "_title",
          "type": "bytes32"
        },
        {
          "indexed": false,
          "internalType": "string",
          "name": "_comments",
          "type": "string"
        },
        {
          "indexed": false,
          "internalType": "enum SharedChain.ProjectStatus",
          "name": "_status",
          "type": "uint8"
        },
        {
          "indexed": false,
          "internalType": "enum SharedChain.RequestStatus",
          "name": "_requestStatus",
          "type": "uint8"
        },
        {
          "indexed": false,
          "internalType": "address",
          "name": "_projectAddress",
          "type": "address"
        },
        {
          "indexed": false,
          "internalType": "address",
          "name": "_userAddress",
          "type": "address"
        },
        {
          "indexed": false,
          "internalType": "address",
          "name": "_requestAddress",
          "type": "address"
        },
        {
          "indexed": false,
          "internalType": "uint256",
          "name": "_timestamp",
          "type": "uint256"
        },
        {
          "indexed": false,
          "internalType": "bytes32",
          "name": "_signature",
          "type": "bytes32"
        }
      ],
      "name": "ProjectRequestEvent",
      "type": "event"
    },
    {
      "anonymous": false,
      "inputs": [
        {
          "indexed": false,
          "internalType": "uint256",
          "name": "_index",
          "type": "uint256"
        },
        {
          "indexed": false,
          "internalType": "uint256",
          "name": "_indexProjectRequest",
          "type": "uint256"
        },
        {
          "indexed": false,
          "internalType": "bytes32",
          "name": "_title",
          "type": "bytes32"
        },
        {
          "indexed": false,
          "internalType": "enum SharedChain.RequestStatus",
          "name": "_status",
          "type": "uint8"
        },
        {
          "indexed": false,
          "internalType": "enum SharedChain.ProjectStatus",
          "name": "_projectStatus",
          "type": "uint8"
        },
        {
          "indexed": false,
          "internalType": "enum SharedChain.RequestType",
          "name": "_requestType",
          "type": "uint8"
        },
        {
          "indexed": false,
          "internalType": "address",
          "name": "_projectAddress",
          "type": "address"
        },
        {
          "indexed": false,
          "internalType": "address",
          "name": "_userAddress",
          "type": "address"
        },
        {
          "indexed": false,
          "internalType": "address",
          "name": "_requestAddress",
          "type": "address"
        },
        {
          "indexed": false,
          "internalType": "uint256",
          "name": "_timestamp",
          "type": "uint256"
        },
        {
          "indexed": false,
          "internalType": "bytes32",
          "name": "_signature",
          "type": "bytes32"
        }
      ],
      "name": "RequestEvent",
      "type": "event"
    },
    {
      "anonymous": false,
      "inputs": [
        {
          "indexed": true,
          "internalType": "address",
          "name": "_walletAddress",
          "type": "address"
        },
        {
          "indexed": true,
          "internalType": "string",
          "name": "_username",
          "type": "string"
        },
        {
          "indexed": false,
          "internalType": "bytes32",
          "name": "_email",
          "type": "bytes32"
        },
        {
          "indexed": false,
          "internalType": "bytes32",
          "name": "_firstname",
          "type": "bytes32"
        },
        {
          "indexed": false,
          "internalType": "bytes32",
          "name": "_lastname",
          "type": "bytes32"
        },
        {
          "indexed": true,
          "internalType": "enum UserChain.Roles",
          "name": "_role",
          "type": "uint8"
        },
        {
          "indexed": false,
          "internalType": "uint256",
          "name": "_timestamp",
          "type": "uint256"
        }
      ],
      "name": "UserEvent",
      "type": "event"
    },
    {
      "inputs": [
        {
          "internalType": "uint256",
          "name": "",
          "type": "uint256"
        }
      ],
      "name": "allProjectRequests",
      "outputs": [
        {
          "internalType": "uint256",
          "name": "_index",
          "type": "uint256"
        },
        {
          "internalType": "bytes32",
          "name": "_title",
          "type": "bytes32"
        },
        {
          "internalType": "string",
          "name": "_comments",
          "type": "string"
        },
        {
          "internalType": "enum SharedChain.ProjectStatus",
          "name": "_status",
          "type": "uint8"
        },
        {
          "internalType": "enum SharedChain.RequestStatus",
          "name": "_requestStatus",
          "type": "uint8"
        },
        {
          "internalType": "address",
          "name": "_projectAddress",
          "type": "address"
        },
        {
          "internalType": "address",
          "name": "_userAddress",
          "type": "address"
        },
        {
          "internalType": "address",
          "name": "_requestAddress",
          "type": "address"
        },
        {
          "internalType": "uint256",
          "name": "_timestamp",
          "type": "uint256"
        },
        {
          "internalType": "bytes32",
          "name": "_signature",
          "type": "bytes32"
        }
      ],
      "stateMutability": "view",
      "type": "function",
      "constant": true
    },
    {
      "inputs": [
        {
          "internalType": "uint256",
          "name": "",
          "type": "uint256"
        }
      ],
      "name": "allProjects",
      "outputs": [
        {
          "internalType": "uint256",
          "name": "_index",
          "type": "uint256"
        },
        {
          "internalType": "bytes32",
          "name": "_name",
          "type": "bytes32"
        },
        {
          "internalType": "enum SharedChain.ProjectStatus",
          "name": "_status",
          "type": "uint8"
        },
        {
          "internalType": "string",
          "name": "_ipfsFileCID",
          "type": "string"
        },
        {
          "internalType": "address",
          "name": "_projectAddress",
          "type": "address"
        },
        {
          "internalType": "address",
          "name": "_userAddress",
          "type": "address"
        },
        {
          "internalType": "uint256",
          "name": "_timestamp",
          "type": "uint256"
        },
        {
          "internalType": "bytes32",
          "name": "_signature",
          "type": "bytes32"
        }
      ],
      "stateMutability": "view",
      "type": "function",
      "constant": true
    },
    {
      "inputs": [
        {
          "internalType": "uint256",
          "name": "",
          "type": "uint256"
        }
      ],
      "name": "allRequests",
      "outputs": [
        {
          "internalType": "uint256",
          "name": "_index",
          "type": "uint256"
        },
        {
          "internalType": "uint256",
          "name": "_indexProjectRequest",
          "type": "uint256"
        },
        {
          "internalType": "bytes32",
          "name": "_title",
          "type": "bytes32"
        },
        {
          "internalType": "enum SharedChain.RequestStatus",
          "name": "_requestStatus",
          "type": "uint8"
        },
        {
          "internalType": "enum SharedChain.ProjectStatus",
          "name": "_projectStatus",
          "type": "uint8"
        },
        {
          "internalType": "enum SharedChain.RequestType",
          "name": "_requestType",
          "type": "uint8"
        },
        {
          "internalType": "address",
          "name": "_projectAddress",
          "type": "address"
        },
        {
          "internalType": "address",
          "name": "_userAddress",
          "type": "address"
        },
        {
          "internalType": "address",
          "name": "_requestAddress",
          "type": "address"
        },
        {
          "internalType": "uint256",
          "name": "_timestamp",
          "type": "uint256"
        },
        {
          "internalType": "bytes32",
          "name": "_signature",
          "type": "bytes32"
        }
      ],
      "stateMutability": "view",
      "type": "function",
      "constant": true
    },
    {
      "inputs": [
        {
          "internalType": "uint256",
          "name": "",
          "type": "uint256"
        }
      ],
      "name": "allUsers",
      "outputs": [
        {
          "internalType": "uint256",
          "name": "_index",
          "type": "uint256"
        },
        {
          "internalType": "string",
          "name": "_username",
          "type": "string"
        },
        {
          "internalType": "bytes32",
          "name": "_email",
          "type": "bytes32"
        },
        {
          "internalType": "bytes32",
          "name": "_firstname",
          "type": "bytes32"
        },
        {
          "internalType": "bytes32",
          "name": "_lastname",
          "type": "bytes32"
        },
        {
          "internalType": "enum UserChain.Roles",
          "name": "_role",
          "type": "uint8"
        },
        {
          "internalType": "address",
          "name": "_walletAddress",
          "type": "address"
        },
        {
          "internalType": "uint256",
          "name": "_timestamp",
          "type": "uint256"
        }
      ],
      "stateMutability": "view",
      "type": "function",
      "constant": true
    },
    {
      "inputs": [
        {
          "internalType": "uint256",
          "name": "_role",
          "type": "uint256"
        },
        {
          "internalType": "address",
          "name": "_walletAddress",
          "type": "address"
        }
      ],
      "name": "changeUserRole",
      "outputs": [],
      "stateMutability": "nonpayable",
      "type": "function"
    },
    {
      "inputs": [],
      "name": "getAllUsers",
      "outputs": [
        {
          "components": [
            {
              "internalType": "uint256",
              "name": "_index",
              "type": "uint256"
            },
            {
              "internalType": "string",
              "name": "_username",
              "type": "string"
            },
            {
              "internalType": "bytes32",
              "name": "_email",
              "type": "bytes32"
            },
            {
              "internalType": "bytes32",
              "name": "_firstname",
              "type": "bytes32"
            },
            {
              "internalType": "bytes32",
              "name": "_lastname",
              "type": "bytes32"
            },
            {
              "internalType": "enum UserChain.Roles",
              "name": "_role",
              "type": "uint8"
            },
            {
              "internalType": "address",
              "name": "_walletAddress",
              "type": "address"
            },
            {
              "internalType": "uint256",
              "name": "_timestamp",
              "type": "uint256"
            }
          ],
          "internalType": "struct UserChain.User[]",
          "name": "",
          "type": "tuple[]"
        }
      ],
      "stateMutability": "view",
      "type": "function",
      "constant": true
    },
    {
      "inputs": [
        {
          "internalType": "address",
          "name": "_walletAddress",
          "type": "address"
        }
      ],
      "name": "getUserInfo",
      "outputs": [
        {
          "components": [
            {
              "internalType": "uint256",
              "name": "_index",
              "type": "uint256"
            },
            {
              "internalType": "string",
              "name": "_username",
              "type": "string"
            },
            {
              "internalType": "bytes32",
              "name": "_email",
              "type": "bytes32"
            },
            {
              "internalType": "bytes32",
              "name": "_firstname",
              "type": "bytes32"
            },
            {
              "internalType": "bytes32",
              "name": "_lastname",
              "type": "bytes32"
            },
            {
              "internalType": "enum UserChain.Roles",
              "name": "_role",
              "type": "uint8"
            },
            {
              "internalType": "address",
              "name": "_walletAddress",
              "type": "address"
            },
            {
              "internalType": "uint256",
              "name": "_timestamp",
              "type": "uint256"
            }
          ],
          "internalType": "struct UserChain.User",
          "name": "",
          "type": "tuple"
        }
      ],
      "stateMutability": "view",
      "type": "function",
      "constant": true
    },
    {
      "inputs": [],
      "name": "owner",
      "outputs": [
        {
          "internalType": "address",
          "name": "",
          "type": "address"
        }
      ],
      "stateMutability": "view",
      "type": "function",
      "constant": true
    },
    {
      "inputs": [
        {
          "internalType": "uint256",
          "name": "",
          "type": "uint256"
        }
      ],
      "name": "projectRequests",
      "outputs": [
        {
          "internalType": "uint256",
          "name": "_index",
          "type": "uint256"
        },
        {
          "internalType": "bytes32",
          "name": "_title",
          "type": "bytes32"
        },
        {
          "internalType": "string",
          "name": "_comments",
          "type": "string"
        },
        {
          "internalType": "enum SharedChain.ProjectStatus",
          "name": "_status",
          "type": "uint8"
        },
        {
          "internalType": "enum SharedChain.RequestStatus",
          "name": "_requestStatus",
          "type": "uint8"
        },
        {
          "internalType": "address",
          "name": "_projectAddress",
          "type": "address"
        },
        {
          "internalType": "address",
          "name": "_userAddress",
          "type": "address"
        },
        {
          "internalType": "address",
          "name": "_requestAddress",
          "type": "address"
        },
        {
          "internalType": "uint256",
          "name": "_timestamp",
          "type": "uint256"
        },
        {
          "internalType": "bytes32",
          "name": "_signature",
          "type": "bytes32"
        }
      ],
      "stateMutability": "view",
      "type": "function",
      "constant": true
    },
    {
      "inputs": [],
      "name": "projectRequestsCounter",
      "outputs": [
        {
          "internalType": "uint256",
          "name": "",
          "type": "uint256"
        }
      ],
      "stateMutability": "view",
      "type": "function",
      "constant": true
    },
    {
      "inputs": [
        {
          "internalType": "address",
          "name": "",
          "type": "address"
        }
      ],
      "name": "projects",
      "outputs": [
        {
          "internalType": "uint256",
          "name": "_index",
          "type": "uint256"
        },
        {
          "internalType": "bytes32",
          "name": "_name",
          "type": "bytes32"
        },
        {
          "internalType": "enum SharedChain.ProjectStatus",
          "name": "_status",
          "type": "uint8"
        },
        {
          "internalType": "string",
          "name": "_ipfsFileCID",
          "type": "string"
        },
        {
          "internalType": "address",
          "name": "_projectAddress",
          "type": "address"
        },
        {
          "internalType": "address",
          "name": "_userAddress",
          "type": "address"
        },
        {
          "internalType": "uint256",
          "name": "_timestamp",
          "type": "uint256"
        },
        {
          "internalType": "bytes32",
          "name": "_signature",
          "type": "bytes32"
        }
      ],
      "stateMutability": "view",
      "type": "function",
      "constant": true
    },
    {
      "inputs": [],
      "name": "projectsCounter",
      "outputs": [
        {
          "internalType": "uint256",
          "name": "",
          "type": "uint256"
        }
      ],
      "stateMutability": "view",
      "type": "function",
      "constant": true
    },
    {
      "inputs": [
        {
          "internalType": "string",
          "name": "_username",
          "type": "string"
        },
        {
          "internalType": "bytes32",
          "name": "_email",
          "type": "bytes32"
        },
        {
          "internalType": "bytes32",
          "name": "_firstname",
          "type": "bytes32"
        },
        {
          "internalType": "bytes32",
          "name": "_lastname",
          "type": "bytes32"
        },
        {
          "internalType": "uint256",
          "name": "_role",
          "type": "uint256"
        },
        {
          "internalType": "address",
          "name": "_walletAddress",
          "type": "address"
        }
      ],
      "name": "registerUser",
      "outputs": [],
      "stateMutability": "nonpayable",
      "type": "function"
    },
    {
      "inputs": [
        {
          "internalType": "uint256",
          "name": "",
          "type": "uint256"
        }
      ],
      "name": "requests",
      "outputs": [
        {
          "internalType": "uint256",
          "name": "_index",
          "type": "uint256"
        },
        {
          "internalType": "uint256",
          "name": "_indexProjectRequest",
          "type": "uint256"
        },
        {
          "internalType": "bytes32",
          "name": "_title",
          "type": "bytes32"
        },
        {
          "internalType": "enum SharedChain.RequestStatus",
          "name": "_requestStatus",
          "type": "uint8"
        },
        {
          "internalType": "enum SharedChain.ProjectStatus",
          "name": "_projectStatus",
          "type": "uint8"
        },
        {
          "internalType": "enum SharedChain.RequestType",
          "name": "_requestType",
          "type": "uint8"
        },
        {
          "internalType": "address",
          "name": "_projectAddress",
          "type": "address"
        },
        {
          "internalType": "address",
          "name": "_userAddress",
          "type": "address"
        },
        {
          "internalType": "address",
          "name": "_requestAddress",
          "type": "address"
        },
        {
          "internalType": "uint256",
          "name": "_timestamp",
          "type": "uint256"
        },
        {
          "internalType": "bytes32",
          "name": "_signature",
          "type": "bytes32"
        }
      ],
      "stateMutability": "view",
      "type": "function",
      "constant": true
    },
    {
      "inputs": [],
      "name": "requestsCounter",
      "outputs": [
        {
          "internalType": "uint256",
          "name": "",
          "type": "uint256"
        }
      ],
      "stateMutability": "view",
      "type": "function",
      "constant": true
    },
    {
      "inputs": [
        {
          "internalType": "address",
          "name": "",
          "type": "address"
        }
      ],
      "name": "users",
      "outputs": [
        {
          "internalType": "uint256",
          "name": "_index",
          "type": "uint256"
        },
        {
          "internalType": "string",
          "name": "_username",
          "type": "string"
        },
        {
          "internalType": "bytes32",
          "name": "_email",
          "type": "bytes32"
        },
        {
          "internalType": "bytes32",
          "name": "_firstname",
          "type": "bytes32"
        },
        {
          "internalType": "bytes32",
          "name": "_lastname",
          "type": "bytes32"
        },
        {
          "internalType": "enum UserChain.Roles",
          "name": "_role",
          "type": "uint8"
        },
        {
          "internalType": "address",
          "name": "_walletAddress",
          "type": "address"
        },
        {
          "internalType": "uint256",
          "name": "_timestamp",
          "type": "uint256"
        }
      ],
      "stateMutability": "view",
      "type": "function",
      "constant": true
    },
    {
      "inputs": [],
      "name": "usersCounter",
      "outputs": [
        {
          "internalType": "uint256",
          "name": "",
          "type": "uint256"
        }
      ],
      "stateMutability": "view",
      "type": "function",
      "constant": true
    },
    {
      "inputs": [
        {
          "internalType": "bytes32",
          "name": "_text",
          "type": "bytes32"
        },
        {
          "internalType": "uint256",
          "name": "_index",
          "type": "uint256"
        }
      ],
      "name": "createUniqueProjectAddress",
      "outputs": [
        {
          "internalType": "address",
          "name": "",
          "type": "address"
        }
      ],
      "stateMutability": "view",
      "type": "function",
      "constant": true
    },
    {
      "inputs": [
        {
          "internalType": "bytes32",
          "name": "_name",
          "type": "bytes32"
        },
        {
          "internalType": "uint256",
          "name": "_status",
          "type": "uint256"
        },
        {
          "internalType": "string",
          "name": "_ipfsFileCID",
          "type": "string"
        },
        {
          "internalType": "bytes32",
          "name": "_signature",
          "type": "bytes32"
        }
      ],
      "name": "createProject",
      "outputs": [],
      "stateMutability": "nonpayable",
      "type": "function"
    },
    {
      "inputs": [
        {
          "internalType": "address",
          "name": "_address",
          "type": "address"
        }
      ],
      "name": "getProjectInfo",
      "outputs": [
        {
          "components": [
            {
              "internalType": "uint256",
              "name": "_index",
              "type": "uint256"
            },
            {
              "internalType": "bytes32",
              "name": "_name",
              "type": "bytes32"
            },
            {
              "internalType": "enum SharedChain.ProjectStatus",
              "name": "_status",
              "type": "uint8"
            },
            {
              "internalType": "string",
              "name": "_ipfsFileCID",
              "type": "string"
            },
            {
              "internalType": "address",
              "name": "_projectAddress",
              "type": "address"
            },
            {
              "internalType": "address",
              "name": "_userAddress",
              "type": "address"
            },
            {
              "internalType": "uint256",
              "name": "_timestamp",
              "type": "uint256"
            },
            {
              "internalType": "bytes32",
              "name": "_signature",
              "type": "bytes32"
            }
          ],
          "internalType": "struct SharedChain.Project",
          "name": "",
          "type": "tuple"
        }
      ],
      "stateMutability": "view",
      "type": "function",
      "constant": true
    },
    {
      "inputs": [],
      "name": "getAllProjects",
      "outputs": [
        {
          "components": [
            {
              "internalType": "uint256",
              "name": "_index",
              "type": "uint256"
            },
            {
              "internalType": "bytes32",
              "name": "_name",
              "type": "bytes32"
            },
            {
              "internalType": "enum SharedChain.ProjectStatus",
              "name": "_status",
              "type": "uint8"
            },
            {
              "internalType": "string",
              "name": "_ipfsFileCID",
              "type": "string"
            },
            {
              "internalType": "address",
              "name": "_projectAddress",
              "type": "address"
            },
            {
              "internalType": "address",
              "name": "_userAddress",
              "type": "address"
            },
            {
              "internalType": "uint256",
              "name": "_timestamp",
              "type": "uint256"
            },
            {
              "internalType": "bytes32",
              "name": "_signature",
              "type": "bytes32"
            }
          ],
          "internalType": "struct SharedChain.Project[]",
          "name": "",
          "type": "tuple[]"
        }
      ],
      "stateMutability": "view",
      "type": "function",
      "constant": true
    },
    {
      "inputs": [],
      "name": "createUniqueProjectRequestAddress",
      "outputs": [
        {
          "internalType": "address",
          "name": "",
          "type": "address"
        }
      ],
      "stateMutability": "nonpayable",
      "type": "function"
    },
    {
      "inputs": [
        {
          "internalType": "bytes32",
          "name": "_title",
          "type": "bytes32"
        },
        {
          "internalType": "uint256",
          "name": "_status",
          "type": "uint256"
        },
        {
          "internalType": "uint256",
          "name": "_requestStatus",
          "type": "uint256"
        },
        {
          "internalType": "address",
          "name": "_projectAddress",
          "type": "address"
        },
        {
          "internalType": "address",
          "name": "_projectReqAddress",
          "type": "address"
        },
        {
          "internalType": "bytes32",
          "name": "_signature",
          "type": "bytes32"
        }
      ],
      "name": "createProjectRequest",
      "outputs": [],
      "stateMutability": "nonpayable",
      "type": "function"
    },
    {
      "inputs": [],
      "name": "getAllProjectRequests",
      "outputs": [
        {
          "components": [
            {
              "internalType": "uint256",
              "name": "_index",
              "type": "uint256"
            },
            {
              "internalType": "bytes32",
              "name": "_title",
              "type": "bytes32"
            },
            {
              "internalType": "string",
              "name": "_comments",
              "type": "string"
            },
            {
              "internalType": "enum SharedChain.ProjectStatus",
              "name": "_status",
              "type": "uint8"
            },
            {
              "internalType": "enum SharedChain.RequestStatus",
              "name": "_requestStatus",
              "type": "uint8"
            },
            {
              "internalType": "address",
              "name": "_projectAddress",
              "type": "address"
            },
            {
              "internalType": "address",
              "name": "_userAddress",
              "type": "address"
            },
            {
              "internalType": "address",
              "name": "_requestAddress",
              "type": "address"
            },
            {
              "internalType": "uint256",
              "name": "_timestamp",
              "type": "uint256"
            },
            {
              "internalType": "bytes32",
              "name": "_signature",
              "type": "bytes32"
            }
          ],
          "internalType": "struct SharedChain.ProjectRequest[]",
          "name": "",
          "type": "tuple[]"
        }
      ],
      "stateMutability": "view",
      "type": "function",
      "constant": true
    },
    {
      "inputs": [
        {
          "internalType": "address",
          "name": "_projectAddress",
          "type": "address"
        }
      ],
      "name": "getLastProjectRequest",
      "outputs": [
        {
          "components": [
            {
              "internalType": "uint256",
              "name": "_index",
              "type": "uint256"
            },
            {
              "internalType": "bytes32",
              "name": "_title",
              "type": "bytes32"
            },
            {
              "internalType": "string",
              "name": "_comments",
              "type": "string"
            },
            {
              "internalType": "enum SharedChain.ProjectStatus",
              "name": "_status",
              "type": "uint8"
            },
            {
              "internalType": "enum SharedChain.RequestStatus",
              "name": "_requestStatus",
              "type": "uint8"
            },
            {
              "internalType": "address",
              "name": "_projectAddress",
              "type": "address"
            },
            {
              "internalType": "address",
              "name": "_userAddress",
              "type": "address"
            },
            {
              "internalType": "address",
              "name": "_requestAddress",
              "type": "address"
            },
            {
              "internalType": "uint256",
              "name": "_timestamp",
              "type": "uint256"
            },
            {
              "internalType": "bytes32",
              "name": "_signature",
              "type": "bytes32"
            }
          ],
          "internalType": "struct SharedChain.ProjectRequest",
          "name": "",
          "type": "tuple"
        }
      ],
      "stateMutability": "view",
      "type": "function",
      "constant": true
    },
    {
      "inputs": [
        {
          "internalType": "uint256",
          "name": "_index",
          "type": "uint256"
        },
        {
          "internalType": "string",
          "name": "_comments",
          "type": "string"
        },
        {
          "internalType": "uint256",
          "name": "_requestStatus",
          "type": "uint256"
        },
        {
          "internalType": "uint256",
          "name": "_indexProjectRequest",
          "type": "uint256"
        },
        {
          "internalType": "uint256",
          "name": "_projectStatus",
          "type": "uint256"
        },
        {
          "internalType": "address",
          "name": "_projectAddress",
          "type": "address"
        },
        {
          "internalType": "bytes32",
          "name": "_signature",
          "type": "bytes32"
        }
      ],
      "name": "updateRequest",
      "outputs": [],
      "stateMutability": "nonpayable",
      "type": "function"
    },
    {
      "inputs": [],
      "name": "getAllRequests",
      "outputs": [
        {
          "components": [
            {
              "internalType": "uint256",
              "name": "_index",
              "type": "uint256"
            },
            {
              "internalType": "uint256",
              "name": "_indexProjectRequest",
              "type": "uint256"
            },
            {
              "internalType": "bytes32",
              "name": "_title",
              "type": "bytes32"
            },
            {
              "internalType": "enum SharedChain.RequestStatus",
              "name": "_requestStatus",
              "type": "uint8"
            },
            {
              "internalType": "enum SharedChain.ProjectStatus",
              "name": "_projectStatus",
              "type": "uint8"
            },
            {
              "internalType": "enum SharedChain.RequestType",
              "name": "_requestType",
              "type": "uint8"
            },
            {
              "internalType": "address",
              "name": "_projectAddress",
              "type": "address"
            },
            {
              "internalType": "address",
              "name": "_userAddress",
              "type": "address"
            },
            {
              "internalType": "address",
              "name": "_requestAddress",
              "type": "address"
            },
            {
              "internalType": "uint256",
              "name": "_timestamp",
              "type": "uint256"
            },
            {
              "internalType": "bytes32",
              "name": "_signature",
              "type": "bytes32"
            }
          ],
          "internalType": "struct SharedChain.Request[]",
          "name": "",
          "type": "tuple[]"
        }
      ],
      "stateMutability": "view",
      "type": "function",
      "constant": true
    }
  ],
  "bytecode": "0x60806040526000600355600060055560006007556000600a556000600d5534801561002957600080fd5b50336000806101000a81548173ffffffffffffffffffffffffffffffffffffffff021916908373ffffffffffffffffffffffffffffffffffffffff16021790555033600460006101000a81548173ffffffffffffffffffffffffffffffffffffffff021916908373ffffffffffffffffffffffffffffffffffffffff160217905550615abb80620000bb6000396000f3fe608060405234801561001057600080fd5b50600436106101a95760003560e01c806381d12c58116100f9578063c19ded1311610097578063d67b1b9911610071578063d67b1b9914610570578063e2842d791461058e578063fb1a002a146105ac578063fe360ea5146105ca576101a9565b8063c19ded13146104fd578063cc1ee4db14610536578063cf13f5d414610554576101a9565b806391009786116100d357806391009786146104395780639bf4ec2f14610455578063a2bdedf41461048f578063a87430ba146104c6576101a9565b806381d12c58146103aa578063840e78fd146103e45780638da5cb5b1461041b576101a9565b806347ee45b9116101665780636386c1c7116101405780636386c1c714610305578063663c2269146103355780637e5711881461035357806380d038291461038c576101a9565b806347ee45b91461028257806353b3194c146102b25780635e6f90ae146102e9576101a9565b80630b287892146101ae57806311389f54146101de57806317e8c952146101fa578063347d1066146102185780633490594814610248578063400003db14610264575b600080fd5b6101c860048036038101906101c391906141b1565b6105e8565b6040516101d59190614451565b60405180910390f35b6101f860048036038101906101f391906144cb565b610a21565b005b610202611009565b60405161020f9190614567565b60405180910390f35b610232600480360381019061022d9190614582565b61109a565b60405161023f9190614567565b60405180910390f35b610262600480360381019061025d91906146f7565b6110f4565b005b61026c611460565b6040516102799190614951565b60405180910390f35b61029c600480360381019061029791906141b1565b6116f2565b6040516102a99190614a23565b60405180910390f35b6102cc60048036038101906102c79190614a45565b6118ed565b6040516102e0989796959493929190614ae9565b60405180910390f35b61030360048036038101906102fe9190614b6e565b611a1a565b005b61031f600480360381019061031a91906141b1565b611fd7565b60405161032c9190614ce9565b60405180910390f35b61033d612186565b60405161034a9190614d0b565b60405180910390f35b61036d60048036038101906103689190614a45565b61218c565b6040516103839a99989796959493929190614d35565b60405180910390f35b6103946122f2565b6040516103a19190614f4a565b60405180910390f35b6103c460048036038101906103bf9190614a45565b6124f3565b6040516103db9b9a99989796959493929190614fb4565b60405180910390f35b6103fe60048036038101906103f991906141b1565b6125d4565b604051610412989796959493929190614ae9565b60405180910390f35b6104236126f1565b6040516104309190614567565b60405180910390f35b610453600480360381019061044e919061505f565b612715565b005b61046f600480360381019061046a9190614a45565b6129d2565b6040516104869b9a99989796959493929190614fb4565b60405180910390f35b6104a960048036038101906104a49190614a45565b612ac3565b6040516104bd9897969594939291906150ae565b60405180910390f35b6104e060048036038101906104db91906141b1565b612bd0565b6040516104f49897969594939291906150ae565b60405180910390f35b61051760048036038101906105129190614a45565b612ccd565b60405161052d9a99989796959493929190614d35565b60405180910390f35b61053e612e23565b60405161054b9190614d0b565b60405180910390f35b61056e60048036038101906105699190615133565b612e29565b005b610578613388565b6040516105859190614d0b565b60405180910390f35b61059661338e565b6040516105a3919061534e565b60405180910390f35b6105b4613543565b6040516105c19190615510565b60405180910390f35b6105d2613788565b6040516105df9190614d0b565b60405180910390f35b6105f0613ede565b6105f8613ede565b6000600b805490501115610a175760006001600b8054905061061a9190615561565b90505b60008110610a1557600b818154811061063957610638615595565b5b906000526020600020906008020160030160029054906101000a900473ffffffffffffffffffffffffffffffffffffffff1673ffffffffffffffffffffffffffffffffffffffff168473ffffffffffffffffffffffffffffffffffffffff161415610a0257600b81815481106106b2576106b1615595565b5b906000526020600020906008020160000154826000018181525050600b81815481106106e1576106e0615595565b5b906000526020600020906008020160010154826020018181525050600b81815481106107105761070f615595565b5b9060005260206000209060080201600201805461072c906155f3565b80601f0160208091040260200160405190810160405280929190818152602001828054610758906155f3565b80156107a55780601f1061077a576101008083540402835291602001916107a5565b820191906000526020600020905b81548152906001019060200180831161078857829003601f168201915b50505050508260400181905250600b81815481106107c6576107c5615595565b5b906000526020600020906008020160030160009054906101000a900460ff16826060019060048111156107fc576107fb6142a9565b5b908160048111156108105761080f6142a9565b5b81525050600b818154811061082857610827615595565b5b906000526020600020906008020160030160019054906101000a900460ff168260800190600281111561085e5761085d6142a9565b5b90816002811115610872576108716142a9565b5b81525050600b818154811061088a57610889615595565b5b906000526020600020906008020160030160029054906101000a900473ffffffffffffffffffffffffffffffffffffffff168260a0019073ffffffffffffffffffffffffffffffffffffffff16908173ffffffffffffffffffffffffffffffffffffffff1681525050600b818154811061090757610906615595565b5b906000526020600020906008020160040160009054906101000a900473ffffffffffffffffffffffffffffffffffffffff168260c0019073ffffffffffffffffffffffffffffffffffffffff16908173ffffffffffffffffffffffffffffffffffffffff1681525050600b818154811061098457610983615595565b5b906000526020600020906008020160050160009054906101000a900473ffffffffffffffffffffffffffffffffffffffff168260e0019073ffffffffffffffffffffffffffffffffffffffff16908173ffffffffffffffffffffffffffffffffffffffff168152505042826101000181815250508192505050610a1c565b8080610a0d90615625565b91505061061d565b505b809150505b919050565b600a5460096000600a548152602001908152602001600020600001819055508560096000600a548152602001908152602001600020600101819055506040518060200160405280600081525060096000600a5481526020019081526020016000206002019080519060200190610a98929190613f9d565b50846004811115610aac57610aab6142a9565b5b60096000600a54815260200190815260200160002060030160006101000a81548160ff02191690836004811115610ae657610ae56142a9565b5b0217905550836002811115610afe57610afd6142a9565b5b60096000600a54815260200190815260200160002060030160016101000a81548160ff02191690836002811115610b3857610b376142a9565b5b02179055508260096000600a54815260200190815260200160002060030160026101000a81548173ffffffffffffffffffffffffffffffffffffffff021916908373ffffffffffffffffffffffffffffffffffffffff160217905550600460009054906101000a900473ffffffffffffffffffffffffffffffffffffffff1660096000600a54815260200190815260200160002060040160006101000a81548173ffffffffffffffffffffffffffffffffffffffff021916908373ffffffffffffffffffffffffffffffffffffffff1602179055508160096000600a54815260200190815260200160002060050160006101000a81548173ffffffffffffffffffffffffffffffffffffffff021916908373ffffffffffffffffffffffffffffffffffffffff1602179055504260096000600a548152602001908152602001600020600601819055508060096000600a54815260200190815260200160002060070181905550610cae600a54878688878761378e565b7f90583ca8ead7c14ff92850c7bb66c4dbe2b936e5357ab8774fca965e7ffb4486600a5487876004811115610ce657610ce56142a9565b5b876002811115610cf957610cf86142a9565b5b87600460009054906101000a900473ffffffffffffffffffffffffffffffffffffffff16884289604051610d3599989796959493929190615675565b60405180910390a1600b604051806101400160405280600a548152602001888152602001604051806020016040528060008152508152602001876004811115610d8157610d806142a9565b5b6004811115610d9357610d926142a9565b5b8152602001866002811115610dab57610daa6142a9565b5b6002811115610dbd57610dbc6142a9565b5b81526020018573ffffffffffffffffffffffffffffffffffffffff168152602001600460009054906101000a900473ffffffffffffffffffffffffffffffffffffffff1673ffffffffffffffffffffffffffffffffffffffff1681526020018473ffffffffffffffffffffffffffffffffffffffff16815260200142815260200183815250908060018154018082558091505060019003906000526020600020906008020160009091909190915060008201518160000155602082015181600101556040820151816002019080519060200190610e9b929190613f9d565b5060608201518160030160006101000a81548160ff02191690836004811115610ec757610ec66142a9565b5b021790555060808201518160030160016101000a81548160ff02191690836002811115610ef757610ef66142a9565b5b021790555060a08201518160030160026101000a81548173ffffffffffffffffffffffffffffffffffffffff021916908373ffffffffffffffffffffffffffffffffffffffff16021790555060c08201518160040160006101000a81548173ffffffffffffffffffffffffffffffffffffffff021916908373ffffffffffffffffffffffffffffffffffffffff16021790555060e08201518160050160006101000a81548173ffffffffffffffffffffffffffffffffffffffff021916908373ffffffffffffffffffffffffffffffffffffffff160217905550610100820151816006015561012082015181600701555050600a6000815480929190610ffc90615716565b9190505550505050505050565b60006005600081548092919061101e90615716565b91905055507f6373643f2e213f2a73616c61733b646c412e3b735f6173000000000000000000600460009054906101000a900473ffffffffffffffffffffffffffffffffffffffff1660055460405160200161107c939291906157e9565b6040516020818303038152906040528051906020012060001c905090565b600082600460009054906101000a900473ffffffffffffffffffffffffffffffffffffffff16836040516020016110d3939291906157e9565b6040516020818303038152906040528051906020012060001c905092915050565b846002811115611107576111066142a9565b5b600c600089815260200190815260200160002060030160006101000a81548160ff0219169083600281111561113f5761113e6142a9565b5b021790555080600c6000898152602001908152602001600020600701819055506000600c600089815260200190815260200160002060000154905085600281111561118d5761118c6142a9565b5b600e82815481106111a1576111a0615595565b5b906000526020600020906008020160030160006101000a81548160ff021916908360028111156111d4576111d36142a9565b5b021790555081600e82815481106111ee576111ed615595565b5b9060005260206000209060080201600701819055508660096000878152602001908152602001600020600201908051906020019061122d929190613f9d565b50856002811115611241576112406142a9565b5b6009600087815260200190815260200160002060030160016101000a81548160ff02191690836002811115611279576112786142a9565b5b021790555060006009600087815260200190815260200160002060000154905087600b82815481106112ae576112ad615595565b5b906000526020600020906008020160020190805190602001906112d2929190613f9d565b508660028111156112e6576112e56142a9565b5b600b82815481106112fa576112f9615595565b5b906000526020600020906008020160030160016101000a81548160ff0219169083600281111561132d5761132c6142a9565b5b0217905550846004811115611345576113446142a9565b5b600660008673ffffffffffffffffffffffffffffffffffffffff1673ffffffffffffffffffffffffffffffffffffffff16815260200190815260200160002060020160006101000a81548160ff021916908360048111156113a9576113a86142a9565b5b02179055506000600660008673ffffffffffffffffffffffffffffffffffffffff1673ffffffffffffffffffffffffffffffffffffffff168152602001908152602001600020600001549050856004811115611408576114076142a9565b5b6008828154811061141c5761141b615595565b5b906000526020600020906008020160020160006101000a81548160ff0219169083600481111561144f5761144e6142a9565b5b021790555050505050505050505050565b6060600b805480602002602001604051908101604052809291908181526020016000905b828210156116e957838290600052602060002090600802016040518061014001604052908160008201548152602001600182015481526020016002820180546114cc906155f3565b80601f01602080910402602001604051908101604052809291908181526020018280546114f8906155f3565b80156115455780601f1061151a57610100808354040283529160200191611545565b820191906000526020600020905b81548152906001019060200180831161152857829003601f168201915b505050505081526020016003820160009054906101000a900460ff166004811115611573576115726142a9565b5b6004811115611585576115846142a9565b5b81526020016003820160019054906101000a900460ff1660028111156115ae576115ad6142a9565b5b60028111156115c0576115bf6142a9565b5b81526020016003820160029054906101000a900473ffffffffffffffffffffffffffffffffffffffff1673ffffffffffffffffffffffffffffffffffffffff1673ffffffffffffffffffffffffffffffffffffffff1681526020016004820160009054906101000a900473ffffffffffffffffffffffffffffffffffffffff1673ffffffffffffffffffffffffffffffffffffffff1673ffffffffffffffffffffffffffffffffffffffff1681526020016005820160009054906101000a900473ffffffffffffffffffffffffffffffffffffffff1673ffffffffffffffffffffffffffffffffffffffff1673ffffffffffffffffffffffffffffffffffffffff1681526020016006820154815260200160078201548152505081526020019060010190611484565b50505050905090565b6116fa614023565b600660008373ffffffffffffffffffffffffffffffffffffffff1673ffffffffffffffffffffffffffffffffffffffff1681526020019081526020016000206040518061010001604052908160008201548152602001600182015481526020016002820160009054906101000a900460ff16600481111561177e5761177d6142a9565b5b60048111156117905761178f6142a9565b5b81526020016003820180546117a4906155f3565b80601f01602080910402602001604051908101604052809291908181526020018280546117d0906155f3565b801561181d5780601f106117f25761010080835404028352916020019161181d565b820191906000526020600020905b81548152906001019060200180831161180057829003601f168201915b505050505081526020016004820160009054906101000a900473ffffffffffffffffffffffffffffffffffffffff1673ffffffffffffffffffffffffffffffffffffffff1673ffffffffffffffffffffffffffffffffffffffff1681526020016005820160009054906101000a900473ffffffffffffffffffffffffffffffffffffffff1673ffffffffffffffffffffffffffffffffffffffff1673ffffffffffffffffffffffffffffffffffffffff168152602001600682015481526020016007820154815250509050919050565b600881815481106118fd57600080fd5b90600052602060002090600802016000915090508060000154908060010154908060020160009054906101000a900460ff169080600301805461193f906155f3565b80601f016020809104026020016040519081016040528092919081815260200182805461196b906155f3565b80156119b85780601f1061198d576101008083540402835291602001916119b8565b820191906000526020600020905b81548152906001019060200180831161199b57829003601f168201915b5050505050908060040160009054906101000a900473ffffffffffffffffffffffffffffffffffffffff16908060050160009054906101000a900473ffffffffffffffffffffffffffffffffffffffff16908060060154908060070154905088565b6000611a487f6373643f534073616c61733b646c413233345f442e3b735f617300000000000060075461109a565b9050600754600660008373ffffffffffffffffffffffffffffffffffffffff1673ffffffffffffffffffffffffffffffffffffffff1681526020019081526020016000206000018190555084600660008373ffffffffffffffffffffffffffffffffffffffff1673ffffffffffffffffffffffffffffffffffffffff16815260200190815260200160002060010181905550836004811115611aed57611aec6142a9565b5b600660008373ffffffffffffffffffffffffffffffffffffffff1673ffffffffffffffffffffffffffffffffffffffff16815260200190815260200160002060020160006101000a81548160ff02191690836004811115611b5157611b506142a9565b5b021790555082600660008373ffffffffffffffffffffffffffffffffffffffff1673ffffffffffffffffffffffffffffffffffffffff1681526020019081526020016000206003019080519060200190611bac929190613f9d565b5080600660008373ffffffffffffffffffffffffffffffffffffffff1673ffffffffffffffffffffffffffffffffffffffff16815260200190815260200160002060040160006101000a81548173ffffffffffffffffffffffffffffffffffffffff021916908373ffffffffffffffffffffffffffffffffffffffff160217905550600460009054906101000a900473ffffffffffffffffffffffffffffffffffffffff16600660008373ffffffffffffffffffffffffffffffffffffffff1673ffffffffffffffffffffffffffffffffffffffff16815260200190815260200160002060050160006101000a81548173ffffffffffffffffffffffffffffffffffffffff021916908373ffffffffffffffffffffffffffffffffffffffff16021790555042600660008373ffffffffffffffffffffffffffffffffffffffff1673ffffffffffffffffffffffffffffffffffffffff1681526020019081526020016000206006018190555081600660008373ffffffffffffffffffffffffffffffffffffffff1673ffffffffffffffffffffffffffffffffffffffff168152602001908152602001600020600701819055507ff2265692fdcb7284199661816e9f39943f05d9164a772dbe50150284b61e18b460075486866004811115611d9757611d966142a9565b5b8685600460009054906101000a900473ffffffffffffffffffffffffffffffffffffffff164289604051611dd2989796959493929190614ae9565b60405180910390a160086040518061010001604052806007548152602001878152602001866004811115611e0957611e086142a9565b5b6004811115611e1b57611e1a6142a9565b5b81526020018581526020018373ffffffffffffffffffffffffffffffffffffffff168152602001600460009054906101000a900473ffffffffffffffffffffffffffffffffffffffff1673ffffffffffffffffffffffffffffffffffffffff168152602001428152602001848152509080600181540180825580915050600190039060005260206000209060080201600090919091909150600082015181600001556020820151816001015560408201518160020160006101000a81548160ff02191690836004811115611ef257611ef16142a9565b5b02179055506060820151816003019080519060200190611f13929190613f9d565b5060808201518160040160006101000a81548173ffffffffffffffffffffffffffffffffffffffff021916908373ffffffffffffffffffffffffffffffffffffffff16021790555060a08201518160050160006101000a81548173ffffffffffffffffffffffffffffffffffffffff021916908373ffffffffffffffffffffffffffffffffffffffff16021790555060c0820151816006015560e08201518160070155505060076000815480929190611fcb90615716565b91905055505050505050565b611fdf6140ac565b600160008373ffffffffffffffffffffffffffffffffffffffff1673ffffffffffffffffffffffffffffffffffffffff1681526020019081526020016000206040518061010001604052908160008201548152602001600182018054612044906155f3565b80601f0160208091040260200160405190810160405280929190818152602001828054612070906155f3565b80156120bd5780601f10612092576101008083540402835291602001916120bd565b820191906000526020600020905b8154815290600101906020018083116120a057829003601f168201915b505050505081526020016002820154815260200160038201548152602001600482015481526020016005820160009054906101000a900460ff166003811115612109576121086142a9565b5b600381111561211b5761211a6142a9565b5b81526020016005820160019054906101000a900473ffffffffffffffffffffffffffffffffffffffff1673ffffffffffffffffffffffffffffffffffffffff1673ffffffffffffffffffffffffffffffffffffffff1681526020016006820154815250509050919050565b600d5481565b600b818154811061219c57600080fd5b90600052602060002090600802016000915090508060000154908060010154908060020180546121cb906155f3565b80601f01602080910402602001604051908101604052809291908181526020018280546121f7906155f3565b80156122445780601f1061221957610100808354040283529160200191612244565b820191906000526020600020905b81548152906001019060200180831161222757829003601f168201915b5050505050908060030160009054906101000a900460ff16908060030160019054906101000a900460ff16908060030160029054906101000a900473ffffffffffffffffffffffffffffffffffffffff16908060040160009054906101000a900473ffffffffffffffffffffffffffffffffffffffff16908060050160009054906101000a900473ffffffffffffffffffffffffffffffffffffffff1690806006015490806007015490508a565b60606008805480602002602001604051908101604052809291908181526020016000905b828210156124ea57838290600052602060002090600802016040518061010001604052908160008201548152602001600182015481526020016002820160009054906101000a900460ff166004811115612373576123726142a9565b5b6004811115612385576123846142a9565b5b8152602001600382018054612399906155f3565b80601f01602080910402602001604051908101604052809291908181526020018280546123c5906155f3565b80156124125780601f106123e757610100808354040283529160200191612412565b820191906000526020600020905b8154815290600101906020018083116123f557829003601f168201915b505050505081526020016004820160009054906101000a900473ffffffffffffffffffffffffffffffffffffffff1673ffffffffffffffffffffffffffffffffffffffff1673ffffffffffffffffffffffffffffffffffffffff1681526020016005820160009054906101000a900473ffffffffffffffffffffffffffffffffffffffff1673ffffffffffffffffffffffffffffffffffffffff1673ffffffffffffffffffffffffffffffffffffffff1681526020016006820154815260200160078201548152505081526020019060010190612316565b50505050905090565b600c6020528060005260406000206000915090508060000154908060010154908060020154908060030160009054906101000a900460ff16908060030160019054906101000a900460ff16908060030160029054906101000a900460ff16908060030160039054906101000a900473ffffffffffffffffffffffffffffffffffffffff16908060040160009054906101000a900473ffffffffffffffffffffffffffffffffffffffff16908060050160009054906101000a900473ffffffffffffffffffffffffffffffffffffffff1690806006015490806007015490508b565b60066020528060005260406000206000915090508060000154908060010154908060020160009054906101000a900460ff1690806003018054612616906155f3565b80601f0160208091040260200160405190810160405280929190818152602001828054612642906155f3565b801561268f5780601f106126645761010080835404028352916020019161268f565b820191906000526020600020905b81548152906001019060200180831161267257829003601f168201915b5050505050908060040160009054906101000a900473ffffffffffffffffffffffffffffffffffffffff16908060050160009054906101000a900473ffffffffffffffffffffffffffffffffffffffff16908060060154908060070154905088565b60008054906101000a900473ffffffffffffffffffffffffffffffffffffffff1681565b816003811115612728576127276142a9565b5b600160008373ffffffffffffffffffffffffffffffffffffffff1673ffffffffffffffffffffffffffffffffffffffff16815260200190815260200160002060050160006101000a81548160ff0219169083600381111561278c5761278b6142a9565b5b02179055506000600160008373ffffffffffffffffffffffffffffffffffffffff1673ffffffffffffffffffffffffffffffffffffffff1681526020019081526020016000206000015490508260038111156127eb576127ea6142a9565b5b600282815481106127ff576127fe615595565b5b906000526020600020906007020160050160006101000a81548160ff02191690836003811115612832576128316142a9565b5b021790555082600381111561284a576128496142a9565b5b600381111561285c5761285b6142a9565b5b600160008473ffffffffffffffffffffffffffffffffffffffff1673ffffffffffffffffffffffffffffffffffffffff1681526020019081526020016000206001016040516128ab91906158c5565b60405180910390208373ffffffffffffffffffffffffffffffffffffffff167f2ae7d1f3a516b67fe6248bb3ec44ca6a8e8d75492c92879f0e621a85954e984a600160008773ffffffffffffffffffffffffffffffffffffffff1673ffffffffffffffffffffffffffffffffffffffff16815260200190815260200160002060020154600160008873ffffffffffffffffffffffffffffffffffffffff1673ffffffffffffffffffffffffffffffffffffffff16815260200190815260200160002060030154600160008973ffffffffffffffffffffffffffffffffffffffff1673ffffffffffffffffffffffffffffffffffffffff16815260200190815260200160002060040154426040516129c594939291906158dc565b60405180910390a4505050565b600e81815481106129e257600080fd5b90600052602060002090600802016000915090508060000154908060010154908060020154908060030160009054906101000a900460ff16908060030160019054906101000a900460ff16908060030160029054906101000a900460ff16908060030160039054906101000a900473ffffffffffffffffffffffffffffffffffffffff16908060040160009054906101000a900473ffffffffffffffffffffffffffffffffffffffff16908060050160009054906101000a900473ffffffffffffffffffffffffffffffffffffffff1690806006015490806007015490508b565b60028181548110612ad357600080fd5b9060005260206000209060070201600091509050806000015490806001018054612afc906155f3565b80601f0160208091040260200160405190810160405280929190818152602001828054612b28906155f3565b8015612b755780601f10612b4a57610100808354040283529160200191612b75565b820191906000526020600020905b815481529060010190602001808311612b5857829003601f168201915b5050505050908060020154908060030154908060040154908060050160009054906101000a900460ff16908060050160019054906101000a900473ffffffffffffffffffffffffffffffffffffffff16908060060154905088565b6001602052806000526040600020600091509050806000015490806001018054612bf9906155f3565b80601f0160208091040260200160405190810160405280929190818152602001828054612c25906155f3565b8015612c725780601f10612c4757610100808354040283529160200191612c72565b820191906000526020600020905b815481529060010190602001808311612c5557829003601f168201915b5050505050908060020154908060030154908060040154908060050160009054906101000a900460ff16908060050160019054906101000a900473ffffffffffffffffffffffffffffffffffffffff16908060060154905088565b6009602052806000526040600020600091509050806000015490806001015490806002018054612cfc906155f3565b80601f0160208091040260200160405190810160405280929190818152602001828054612d28906155f3565b8015612d755780601f10612d4a57610100808354040283529160200191612d75565b820191906000526020600020905b815481529060010190602001808311612d5857829003601f168201915b5050505050908060030160009054906101000a900460ff16908060030160019054906101000a900460ff16908060030160029054906101000a900473ffffffffffffffffffffffffffffffffffffffff16908060040160009054906101000a900473ffffffffffffffffffffffffffffffffffffffff16908060050160009054906101000a900473ffffffffffffffffffffffffffffffffffffffff1690806006015490806007015490508a565b600a5481565b3373ffffffffffffffffffffffffffffffffffffffff1660008054906101000a900473ffffffffffffffffffffffffffffffffffffffff1673ffffffffffffffffffffffffffffffffffffffff1614612eb7576040517f08c379a0000000000000000000000000000000000000000000000000000000008152600401612eae9061596d565b60405180910390fd5b600354600160008373ffffffffffffffffffffffffffffffffffffffff1673ffffffffffffffffffffffffffffffffffffffff1681526020019081526020016000206000018190555085600160008373ffffffffffffffffffffffffffffffffffffffff1673ffffffffffffffffffffffffffffffffffffffff1681526020019081526020016000206001019080519060200190612f56929190613f9d565b5084600160008373ffffffffffffffffffffffffffffffffffffffff1673ffffffffffffffffffffffffffffffffffffffff1681526020019081526020016000206002018190555083600160008373ffffffffffffffffffffffffffffffffffffffff1673ffffffffffffffffffffffffffffffffffffffff1681526020019081526020016000206003018190555082600160008373ffffffffffffffffffffffffffffffffffffffff1673ffffffffffffffffffffffffffffffffffffffff1681526020019081526020016000206004018190555081600381111561303f5761303e6142a9565b5b600160008373ffffffffffffffffffffffffffffffffffffffff1673ffffffffffffffffffffffffffffffffffffffff16815260200190815260200160002060050160006101000a81548160ff021916908360038111156130a3576130a26142a9565b5b021790555080600160008373ffffffffffffffffffffffffffffffffffffffff1673ffffffffffffffffffffffffffffffffffffffff16815260200190815260200160002060050160016101000a81548173ffffffffffffffffffffffffffffffffffffffff021916908373ffffffffffffffffffffffffffffffffffffffff16021790555042600160008373ffffffffffffffffffffffffffffffffffffffff1673ffffffffffffffffffffffffffffffffffffffff16815260200190815260200160002060060181905550816003811115613183576131826142a9565b5b6003811115613195576131946142a9565b5b866040516131a391906159be565b60405180910390208273ffffffffffffffffffffffffffffffffffffffff167f2ae7d1f3a516b67fe6248bb3ec44ca6a8e8d75492c92879f0e621a85954e984a888888426040516131f794939291906158dc565b60405180910390a4600260405180610100016040528060035481526020018881526020018781526020018681526020018581526020018460038111156132405761323f6142a9565b5b6003811115613252576132516142a9565b5b81526020018373ffffffffffffffffffffffffffffffffffffffff1681526020014281525090806001815401808255809150506001900390600052602060002090600702016000909190919091506000820151816000015560208201518160010190805190602001906132c6929190613f9d565b5060408201518160020155606082015181600301556080820151816004015560a08201518160050160006101000a81548160ff021916908360038111156133105761330f6142a9565b5b021790555060c08201518160050160016101000a81548173ffffffffffffffffffffffffffffffffffffffff021916908373ffffffffffffffffffffffffffffffffffffffff16021790555060e0820151816006015550506003600081548092919061337b90615716565b9190505550505050505050565b60035481565b60606002805480602002602001604051908101604052809291908181526020016000905b8282101561353a578382906000526020600020906007020160405180610100016040529081600082015481526020016001820180546133f0906155f3565b80601f016020809104026020016040519081016040528092919081815260200182805461341c906155f3565b80156134695780601f1061343e57610100808354040283529160200191613469565b820191906000526020600020905b81548152906001019060200180831161344c57829003601f168201915b505050505081526020016002820154815260200160038201548152602001600482015481526020016005820160009054906101000a900460ff1660038111156134b5576134b46142a9565b5b60038111156134c7576134c66142a9565b5b81526020016005820160019054906101000a900473ffffffffffffffffffffffffffffffffffffffff1673ffffffffffffffffffffffffffffffffffffffff1673ffffffffffffffffffffffffffffffffffffffff168152602001600682015481525050815260200190600101906133b2565b50505050905090565b6060600e805480602002602001604051908101604052809291908181526020016000905b8282101561377f5783829060005260206000209060080201604051806101600160405290816000820154815260200160018201548152602001600282015481526020016003820160009054906101000a900460ff1660028111156135ce576135cd6142a9565b5b60028111156135e0576135df6142a9565b5b81526020016003820160019054906101000a900460ff166004811115613609576136086142a9565b5b600481111561361b5761361a6142a9565b5b81526020016003820160029054906101000a900460ff166001811115613644576136436142a9565b5b6001811115613656576136556142a9565b5b81526020016003820160039054906101000a900473ffffffffffffffffffffffffffffffffffffffff1673ffffffffffffffffffffffffffffffffffffffff1673ffffffffffffffffffffffffffffffffffffffff1681526020016004820160009054906101000a900473ffffffffffffffffffffffffffffffffffffffff1673ffffffffffffffffffffffffffffffffffffffff1673ffffffffffffffffffffffffffffffffffffffff1681526020016005820160009054906101000a900473ffffffffffffffffffffffffffffffffffffffff1673ffffffffffffffffffffffffffffffffffffffff1673ffffffffffffffffffffffffffffffffffffffff1681526020016006820154815260200160078201548152505081526020019060010190613567565b50505050905090565b60075481565b6000600160048111156137a4576137a36142a9565b5b8460048111156137b7576137b66142a9565b5b60048111156137c9576137c86142a9565b5b148061380b5750600360048111156137e4576137e36142a9565b5b8460048111156137f7576137f66142a9565b5b6004811115613809576138086142a9565b5b145b8061384b5750600480811115613824576138236142a9565b5b846004811115613837576138366142a9565b5b6004811115613849576138486142a9565b5b145b15613859576000905061389e565b6002600481111561386d5761386c6142a9565b5b8460048111156138805761387f6142a9565b5b6004811115613892576138916142a9565b5b141561389d57600190505b5b6138ad878787878588886138b6565b50505050505050565b600d54600c6000600d5481526020019081526020016000206000018190555086600c6000600d5481526020019081526020016000206001018190555085600c6000600d54815260200190815260200160002060020181905550846002811115613922576139216142a9565b5b600c6000600d54815260200190815260200160002060030160006101000a81548160ff0219169083600281111561395c5761395b6142a9565b5b0217905550836004811115613974576139736142a9565b5b600c6000600d54815260200190815260200160002060030160016101000a81548160ff021916908360048111156139ae576139ad6142a9565b5b021790555082600c6000600d54815260200190815260200160002060030160026101000a81548160ff021916908360018111156139ee576139ed6142a9565b5b021790555081600c6000600d54815260200190815260200160002060030160036101000a81548173ffffffffffffffffffffffffffffffffffffffff021916908373ffffffffffffffffffffffffffffffffffffffff160217905550600460009054906101000a900473ffffffffffffffffffffffffffffffffffffffff16600c6000600d54815260200190815260200160002060040160006101000a81548173ffffffffffffffffffffffffffffffffffffffff021916908373ffffffffffffffffffffffffffffffffffffffff16021790555080600c6000600d54815260200190815260200160002060050160006101000a81548173ffffffffffffffffffffffffffffffffffffffff021916908373ffffffffffffffffffffffffffffffffffffffff16021790555042600c6000600d548152602001908152602001600020600601819055506000600c6000600d548152602001908152602001600020600701819055507faac9d1362d2ae7196557149fecbb467805d15ac910dbaba92fa94d1ac1e6a4b5600d548888886002811115613b8e57613b8d6142a9565b5b886004811115613ba157613ba06142a9565b5b8888600460009054906101000a900473ffffffffffffffffffffffffffffffffffffffff168942604051613bde9a999897969594939291906159dc565b60405180910390a1600e604051806101600160405280600d548152602001898152602001888152602001876002811115613c1b57613c1a6142a9565b5b6002811115613c2d57613c2c6142a9565b5b8152602001866004811115613c4557613c446142a9565b5b6004811115613c5757613c566142a9565b5b8152602001856001811115613c6f57613c6e6142a9565b5b81526020018473ffffffffffffffffffffffffffffffffffffffff168152602001600460009054906101000a900473ffffffffffffffffffffffffffffffffffffffff1673ffffffffffffffffffffffffffffffffffffffff1681526020018373ffffffffffffffffffffffffffffffffffffffff1681526020014281526020016000801916815250908060018154018082558091505060019003906000526020600020906008020160009091909190915060008201518160000155602082015181600101556040820151816002015560608201518160030160006101000a81548160ff02191690836002811115613d6a57613d696142a9565b5b021790555060808201518160030160016101000a81548160ff02191690836004811115613d9a57613d996142a9565b5b021790555060a08201518160030160026101000a81548160ff02191690836001811115613dca57613dc96142a9565b5b021790555060c08201518160030160036101000a81548173ffffffffffffffffffffffffffffffffffffffff021916908373ffffffffffffffffffffffffffffffffffffffff16021790555060e08201518160040160006101000a81548173ffffffffffffffffffffffffffffffffffffffff021916908373ffffffffffffffffffffffffffffffffffffffff1602179055506101008201518160050160006101000a81548173ffffffffffffffffffffffffffffffffffffffff021916908373ffffffffffffffffffffffffffffffffffffffff160217905550610120820151816006015561014082015181600701555050600d6000815480929190613ed090615716565b919050555050505050505050565b60405180610140016040528060008152602001600080191681526020016060815260200160006004811115613f1657613f156142a9565b5b815260200160006002811115613f2f57613f2e6142a9565b5b8152602001600073ffffffffffffffffffffffffffffffffffffffff168152602001600073ffffffffffffffffffffffffffffffffffffffff168152602001600073ffffffffffffffffffffffffffffffffffffffff16815260200160008152602001600080191681525090565b828054613fa9906155f3565b90600052602060002090601f016020900481019282613fcb5760008555614012565b82601f10613fe457805160ff1916838001178555614012565b82800160010185558215614012579182015b82811115614011578251825591602001919060010190613ff6565b5b50905061401f9190614122565b5090565b604051806101000160405280600081526020016000801916815260200160006004811115614054576140536142a9565b5b815260200160608152602001600073ffffffffffffffffffffffffffffffffffffffff168152602001600073ffffffffffffffffffffffffffffffffffffffff16815260200160008152602001600080191681525090565b6040518061010001604052806000815260200160608152602001600080191681526020016000801916815260200160008019168152602001600060038111156140f8576140f76142a9565b5b8152602001600073ffffffffffffffffffffffffffffffffffffffff168152602001600081525090565b5b8082111561413b576000816000905550600101614123565b5090565b6000604051905090565b600080fd5b600080fd5b600073ffffffffffffffffffffffffffffffffffffffff82169050919050565b600061417e82614153565b9050919050565b61418e81614173565b811461419957600080fd5b50565b6000813590506141ab81614185565b92915050565b6000602082840312156141c7576141c6614149565b5b60006141d58482850161419c565b91505092915050565b6000819050919050565b6141f1816141de565b82525050565b6000819050919050565b61420a816141f7565b82525050565b600081519050919050565b600082825260208201905092915050565b60005b8381101561424a57808201518184015260208101905061422f565b83811115614259576000848401525b50505050565b6000601f19601f8301169050919050565b600061427b82614210565b614285818561421b565b935061429581856020860161422c565b61429e8161425f565b840191505092915050565b7f4e487b7100000000000000000000000000000000000000000000000000000000600052602160045260246000fd5b600581106142e9576142e86142a9565b5b50565b60008190506142fa826142d8565b919050565b600061430a826142ec565b9050919050565b61431a816142ff565b82525050565b60038110614331576143306142a9565b5b50565b600081905061434282614320565b919050565b600061435282614334565b9050919050565b61436281614347565b82525050565b61437181614173565b82525050565b60006101408301600083015161439060008601826141e8565b5060208301516143a36020860182614201565b50604083015184820360408601526143bb8282614270565b91505060608301516143d06060860182614311565b5060808301516143e36080860182614359565b5060a08301516143f660a0860182614368565b5060c083015161440960c0860182614368565b5060e083015161441c60e0860182614368565b506101008301516144316101008601826141e8565b50610120830151614446610120860182614201565b508091505092915050565b6000602082019050818103600083015261446b8184614377565b905092915050565b61447c816141f7565b811461448757600080fd5b50565b60008135905061449981614473565b92915050565b6144a8816141de565b81146144b357600080fd5b50565b6000813590506144c58161449f565b92915050565b60008060008060008060c087890312156144e8576144e7614149565b5b60006144f689828a0161448a565b965050602061450789828a016144b6565b955050604061451889828a016144b6565b945050606061452989828a0161419c565b935050608061453a89828a0161419c565b92505060a061454b89828a0161448a565b9150509295509295509295565b61456181614173565b82525050565b600060208201905061457c6000830184614558565b92915050565b6000806040838503121561459957614598614149565b5b60006145a78582860161448a565b92505060206145b8858286016144b6565b9150509250929050565b600080fd5b600080fd5b7f4e487b7100000000000000000000000000000000000000000000000000000000600052604160045260246000fd5b6146048261425f565b810181811067ffffffffffffffff82111715614623576146226145cc565b5b80604052505050565b600061463661413f565b905061464282826145fb565b919050565b600067ffffffffffffffff821115614662576146616145cc565b5b61466b8261425f565b9050602081019050919050565b82818337600083830152505050565b600061469a61469584614647565b61462c565b9050828152602081018484840111156146b6576146b56145c7565b5b6146c1848285614678565b509392505050565b600082601f8301126146de576146dd6145c2565b5b81356146ee848260208601614687565b91505092915050565b600080600080600080600060e0888a03121561471657614715614149565b5b60006147248a828b016144b6565b975050602088013567ffffffffffffffff8111156147455761474461414e565b5b6147518a828b016146c9565b96505060406147628a828b016144b6565b95505060606147738a828b016144b6565b94505060806147848a828b016144b6565b93505060a06147958a828b0161419c565b92505060c06147a68a828b0161448a565b91505092959891949750929550565b600081519050919050565b600082825260208201905092915050565b6000819050602082019050919050565b6000610140830160008301516147fa60008601826141e8565b50602083015161480d6020860182614201565b50604083015184820360408601526148258282614270565b915050606083015161483a6060860182614311565b50608083015161484d6080860182614359565b5060a083015161486060a0860182614368565b5060c083015161487360c0860182614368565b5060e083015161488660e0860182614368565b5061010083015161489b6101008601826141e8565b506101208301516148b0610120860182614201565b508091505092915050565b60006148c783836147e1565b905092915050565b6000602082019050919050565b60006148e7826147b5565b6148f181856147c0565b935083602082028501614903856147d1565b8060005b8581101561493f578484038952815161492085826148bb565b945061492b836148cf565b925060208a01995050600181019050614907565b50829750879550505050505092915050565b6000602082019050818103600083015261496b81846148dc565b905092915050565b60006101008301600083015161498c60008601826141e8565b50602083015161499f6020860182614201565b5060408301516149b26040860182614311565b50606083015184820360608601526149ca8282614270565b91505060808301516149df6080860182614368565b5060a08301516149f260a0860182614368565b5060c0830151614a0560c08601826141e8565b5060e0830151614a1860e0860182614201565b508091505092915050565b60006020820190508181036000830152614a3d8184614973565b905092915050565b600060208284031215614a5b57614a5a614149565b5b6000614a69848285016144b6565b91505092915050565b614a7b816141de565b82525050565b614a8a816141f7565b82525050565b614a99816142ff565b82525050565b600082825260208201905092915050565b6000614abb82614210565b614ac58185614a9f565b9350614ad581856020860161422c565b614ade8161425f565b840191505092915050565b600061010082019050614aff600083018b614a72565b614b0c602083018a614a81565b614b196040830189614a90565b8181036060830152614b2b8188614ab0565b9050614b3a6080830187614558565b614b4760a0830186614558565b614b5460c0830185614a72565b614b6160e0830184614a81565b9998505050505050505050565b60008060008060808587031215614b8857614b87614149565b5b6000614b968782880161448a565b9450506020614ba7878288016144b6565b935050604085013567ffffffffffffffff811115614bc857614bc761414e565b5b614bd4878288016146c9565b9250506060614be58782880161448a565b91505092959194509250565b60048110614c0257614c016142a9565b5b50565b6000819050614c1382614bf1565b919050565b6000614c2382614c05565b9050919050565b614c3381614c18565b82525050565b600061010083016000830151614c5260008601826141e8565b5060208301518482036020860152614c6a8282614270565b9150506040830151614c7f6040860182614201565b506060830151614c926060860182614201565b506080830151614ca56080860182614201565b5060a0830151614cb860a0860182614c2a565b5060c0830151614ccb60c0860182614368565b5060e0830151614cde60e08601826141e8565b508091505092915050565b60006020820190508181036000830152614d038184614c39565b905092915050565b6000602082019050614d206000830184614a72565b92915050565b614d2f81614347565b82525050565b600061014082019050614d4b600083018d614a72565b614d58602083018c614a81565b8181036040830152614d6a818b614ab0565b9050614d79606083018a614a90565b614d866080830189614d26565b614d9360a0830188614558565b614da060c0830187614558565b614dad60e0830186614558565b614dbb610100830185614a72565b614dc9610120830184614a81565b9b9a5050505050505050505050565b600081519050919050565b600082825260208201905092915050565b6000819050602082019050919050565b600061010083016000830151614e1d60008601826141e8565b506020830151614e306020860182614201565b506040830151614e436040860182614311565b5060608301518482036060860152614e5b8282614270565b9150506080830151614e706080860182614368565b5060a0830151614e8360a0860182614368565b5060c0830151614e9660c08601826141e8565b5060e0830151614ea960e0860182614201565b508091505092915050565b6000614ec08383614e04565b905092915050565b6000602082019050919050565b6000614ee082614dd8565b614eea8185614de3565b935083602082028501614efc85614df4565b8060005b85811015614f385784840389528151614f198582614eb4565b9450614f2483614ec8565b925060208a01995050600181019050614f00565b50829750879550505050505092915050565b60006020820190508181036000830152614f648184614ed5565b905092915050565b60028110614f7d57614f7c6142a9565b5b50565b6000819050614f8e82614f6c565b919050565b6000614f9e82614f80565b9050919050565b614fae81614f93565b82525050565b600061016082019050614fca600083018e614a72565b614fd7602083018d614a72565b614fe4604083018c614a81565b614ff1606083018b614d26565b614ffe608083018a614a90565b61500b60a0830189614fa5565b61501860c0830188614558565b61502560e0830187614558565b615033610100830186614558565b615041610120830185614a72565b61504f610140830184614a81565b9c9b505050505050505050505050565b6000806040838503121561507657615075614149565b5b6000615084858286016144b6565b92505060206150958582860161419c565b9150509250929050565b6150a881614c18565b82525050565b6000610100820190506150c4600083018b614a72565b81810360208301526150d6818a614ab0565b90506150e56040830189614a81565b6150f26060830188614a81565b6150ff6080830187614a81565b61510c60a083018661509f565b61511960c0830185614558565b61512660e0830184614a72565b9998505050505050505050565b60008060008060008060c087890312156151505761514f614149565b5b600087013567ffffffffffffffff81111561516e5761516d61414e565b5b61517a89828a016146c9565b965050602061518b89828a0161448a565b955050604061519c89828a0161448a565b94505060606151ad89828a0161448a565b93505060806151be89828a016144b6565b92505060a06151cf89828a0161419c565b9150509295509295509295565b600081519050919050565b600082825260208201905092915050565b6000819050602082019050919050565b60006101008301600083015161522160008601826141e8565b50602083015184820360208601526152398282614270565b915050604083015161524e6040860182614201565b5060608301516152616060860182614201565b5060808301516152746080860182614201565b5060a083015161528760a0860182614c2a565b5060c083015161529a60c0860182614368565b5060e08301516152ad60e08601826141e8565b508091505092915050565b60006152c48383615208565b905092915050565b6000602082019050919050565b60006152e4826151dc565b6152ee81856151e7565b935083602082028501615300856151f8565b8060005b8581101561533c578484038952815161531d85826152b8565b9450615328836152cc565b925060208a01995050600181019050615304565b50829750879550505050505092915050565b6000602082019050818103600083015261536881846152d9565b905092915050565b600081519050919050565b600082825260208201905092915050565b6000819050602082019050919050565b6153a581614f93565b82525050565b610160820160008201516153c260008501826141e8565b5060208201516153d560208501826141e8565b5060408201516153e86040850182614201565b5060608201516153fb6060850182614359565b50608082015161540e6080850182614311565b5060a082015161542160a085018261539c565b5060c082015161543460c0850182614368565b5060e082015161544760e0850182614368565b5061010082015161545c610100850182614368565b506101208201516154716101208501826141e8565b50610140820151615486610140850182614201565b50505050565b600061549883836153ab565b6101608301905092915050565b6000602082019050919050565b60006154bd82615370565b6154c7818561537b565b93506154d28361538c565b8060005b838110156155035781516154ea888261548c565b97506154f5836154a5565b9250506001810190506154d6565b5085935050505092915050565b6000602082019050818103600083015261552a81846154b2565b905092915050565b7f4e487b7100000000000000000000000000000000000000000000000000000000600052601160045260246000fd5b600061556c826141de565b9150615577836141de565b92508282101561558a57615589615532565b5b828203905092915050565b7f4e487b7100000000000000000000000000000000000000000000000000000000600052603260045260246000fd5b7f4e487b7100000000000000000000000000000000000000000000000000000000600052602260045260246000fd5b6000600282049050600182168061560b57607f821691505b6020821081141561561f5761561e6155c4565b5b50919050565b6000615630826141de565b9150600082141561564457615643615532565b5b600182039050919050565b50565b600061565f600083614a9f565b915061566a8261564f565b600082019050919050565b60006101408201905061568b600083018c614a72565b615698602083018b614a81565b81810360408301526156a981615652565b90506156b8606083018a614a90565b6156c56080830189614d26565b6156d260a0830188614558565b6156df60c0830187614558565b6156ec60e0830186614558565b6156fa610100830185614a72565b615708610120830184614a81565b9a9950505050505050505050565b6000615721826141de565b91507fffffffffffffffffffffffffffffffffffffffffffffffffffffffffffffffff82141561575457615753615532565b5b600182019050919050565b6000819050919050565b61577a615775826141f7565b61575f565b82525050565b60008160601b9050919050565b600061579882615780565b9050919050565b60006157aa8261578d565b9050919050565b6157c26157bd82614173565b61579f565b82525050565b6000819050919050565b6157e36157de826141de565b6157c8565b82525050565b60006157f58286615769565b60208201915061580582856157b1565b60148201915061581582846157d2565b602082019150819050949350505050565b600081905092915050565b60008190508160005260206000209050919050565b60008154615853816155f3565b61585d8186615826565b945060018216600081146158785760018114615889576158bc565b60ff198316865281860193506158bc565b61589285615831565b60005b838110156158b457815481890152600182019150602081019050615895565b838801955050505b50505092915050565b60006158d18284615846565b915081905092915050565b60006080820190506158f16000830187614a81565b6158fe6020830186614a81565b61590b6040830185614a81565b6159186060830184614a72565b95945050505050565b7f596f7520617265206e6f7420616e206f776e6572000000000000000000000000600082015250565b6000615957601483614a9f565b915061596282615921565b602082019050919050565b600060208201905081810360008301526159868161594a565b9050919050565b600061599882614210565b6159a28185615826565b93506159b281856020860161422c565b80840191505092915050565b60006159ca828461598d565b915081905092915050565b6000815250565b6000610160820190506159f2600083018d614a72565b6159ff602083018c614a72565b615a0c604083018b614a81565b615a19606083018a614d26565b615a266080830189614a90565b615a3360a0830188614fa5565b615a4060c0830187614558565b615a4d60e0830186614558565b615a5b610100830185614558565b615a69610120830184614a72565b615a7661014083016159d5565b9b9a505050505050505050505056fea2646970667358221220ac44e791818d673b140e15e7133fbd4a4c676356edc97f1e2b044d052c4b385364736f6c634300080a0033",
  "immutableReferences": {},
  "source": "// SPDX-License-Identifier: MIT\r\npragma solidity >=0.8.0 <0.9.0;\r\n\r\nimport \"./UserChain.sol\";\r\nimport \"./SharedChain.sol\";\r\n\r\ncontract ProjectChain is UserChain, SharedChain {\r\n    bytes32 constant PROJECT_HASH_VALUE = \"csd?S@salas;dlA234_D.;s_as\";\r\n    bytes32 constant REQUEST_HASH_VALUE = \"csd?.!?*salas;dlA.;s_as\";\r\n    address _projectInitiator;\r\n\r\n    uint _indexUniqueAddress = 0;\r\n\r\n    /**  DATA FOR PROJECT INITIATOR  */\r\n\r\n    mapping(address => Project) public projects;\r\n    uint public projectsCounter = 0;\r\n    Project[] public allProjects;\r\n\r\n    mapping(uint => ProjectRequest) public projectRequests;\r\n    uint public projectRequestsCounter = 0;\r\n    ProjectRequest[] public allProjectRequests;\r\n\r\n    constructor() {\r\n        _projectInitiator = msg.sender;\r\n    }\r\n\r\n    modifier onlyProjectInitiator {\r\n        require(users[_projectInitiator]._role == Roles.ProjectInitiator, \"You don't have the rights for this resources.\");\r\n        require(_projectInitiator == msg.sender, \"You are not a project initiator\");\r\n        _;\r\n    }\r\n\r\n    function createUniqueProjectAddress(bytes32 _text, uint _index) public view returns (address) {\r\n        return address(uint160(uint256(keccak256(abi.encodePacked(_text, _projectInitiator, _index)))));\r\n    }\r\n\r\n    function createProject(bytes32 _name, uint _status, string memory _ipfsFileCID, bytes32 _signature) public {\r\n        address _projectAddress = createUniqueProjectAddress(PROJECT_HASH_VALUE, projectsCounter);\r\n\r\n        projects[_projectAddress]._index = projectsCounter;\r\n        projects[_projectAddress]._name = _name;\r\n        projects[_projectAddress]._status = ProjectStatus(_status);\r\n        projects[_projectAddress]._ipfsFileCID = _ipfsFileCID;\r\n        projects[_projectAddress]._projectAddress = _projectAddress;\r\n        projects[_projectAddress]._userAddress = _projectInitiator;\r\n        projects[_projectAddress]._timestamp = block.timestamp;\r\n        projects[_projectAddress]._signature = _signature;\r\n\r\n        emit ProjectEvent(\r\n            projectsCounter,\r\n            _name,\r\n            ProjectStatus(_status),\r\n            _ipfsFileCID,\r\n            _projectAddress,\r\n            _projectInitiator,\r\n            block.timestamp,\r\n            _signature\r\n        );\r\n        allProjects.push(Project(\r\n            projectsCounter, _name, ProjectStatus(_status), _ipfsFileCID,\r\n            _projectAddress, _projectInitiator, block.timestamp, _signature\r\n        ));\r\n        projectsCounter++;\r\n    }\r\n\r\n    function getProjectInfo(address _address) public view returns (Project memory) {\r\n        return projects[_address];\r\n    }\r\n\r\n    function getAllProjects() public view returns(Project[] memory) {\r\n        return allProjects;\r\n    }\r\n\r\n    function createUniqueProjectRequestAddress() public returns (address) {\r\n        _indexUniqueAddress++;\r\n        return address(uint160(uint256(keccak256(abi.encodePacked(REQUEST_HASH_VALUE, _projectInitiator, _indexUniqueAddress)))));\r\n    }\r\n\r\n    function createProjectRequest(\r\n        bytes32 _title, uint _status, uint _requestStatus,\r\n        address _projectAddress, address _projectReqAddress, bytes32 _signature\r\n    ) public {\r\n        projectRequests[projectRequestsCounter]._index = projectRequestsCounter;\r\n        projectRequests[projectRequestsCounter]._title = _title;\r\n        projectRequests[projectRequestsCounter]._comments = '';\r\n        projectRequests[projectRequestsCounter]._status = ProjectStatus(_status);\r\n        projectRequests[projectRequestsCounter]._requestStatus = RequestStatus(_requestStatus);\r\n        projectRequests[projectRequestsCounter]._projectAddress = _projectAddress;\r\n        projectRequests[projectRequestsCounter]._userAddress = _projectInitiator;\r\n        projectRequests[projectRequestsCounter]._requestAddress = _projectReqAddress;\r\n        projectRequests[projectRequestsCounter]._timestamp = block.timestamp;\r\n        projectRequests[projectRequestsCounter]._signature = _signature;\r\n\r\n        filterRequests(projectRequestsCounter, _title, _requestStatus, _status, _projectAddress, _projectReqAddress);\r\n\r\n        emit ProjectRequestEvent(\r\n            projectRequestsCounter,\r\n            _title,\r\n            '',\r\n            ProjectStatus(_status),\r\n            RequestStatus(_requestStatus),\r\n            _projectAddress,\r\n            _projectInitiator,\r\n            _projectReqAddress,\r\n            block.timestamp,\r\n            _signature\r\n        );\r\n        allProjectRequests.push(ProjectRequest(\r\n            projectRequestsCounter, _title, '', ProjectStatus(_status),\r\n            RequestStatus(_requestStatus), _projectAddress, _projectInitiator,\r\n            _projectReqAddress, block.timestamp, _signature\r\n        ));\r\n        projectRequestsCounter++;\r\n    }\r\n\r\n    function filterRequests(\r\n        uint _indexProjectRequest,\r\n        bytes32 _title,\r\n        uint _requestStatus,\r\n        uint _projectStatus,\r\n        address _projectAddress,\r\n        address _requestAddress\r\n    ) internal {\r\n        RequestType _requestType;\r\n        if (\r\n            ProjectStatus(_projectStatus) == ProjectStatus.ToApprove ||\r\n            ProjectStatus(_projectStatus) == ProjectStatus.FinalizationCheck ||\r\n            ProjectStatus(_projectStatus) == ProjectStatus.Completed\r\n        ) {\r\n            _requestType = RequestType.SupervisorReq;\r\n        } else if (ProjectStatus(_projectStatus) == ProjectStatus.StartProject) {\r\n            _requestType = RequestType.CompanyReq;\r\n        }\r\n        createRequest(_indexProjectRequest, _title, _requestStatus, _projectStatus, _requestType, _projectAddress, _requestAddress);\r\n    }\r\n\r\n    function getAllProjectRequests() external view returns(ProjectRequest[] memory) {\r\n        return allProjectRequests;\r\n    }\r\n\r\n    function getLastProjectRequest(address _projectAddress) external view returns(ProjectRequest memory) {\r\n        ProjectRequest memory request;\r\n        if (allProjectRequests.length > 0) {\r\n            for (uint index = allProjectRequests.length - 1; index >= 0; index--) {\r\n                if (_projectAddress == allProjectRequests[index]._projectAddress) {\r\n                    request._index = allProjectRequests[index]._index;\r\n                    request._title = allProjectRequests[index]._title;\r\n                    request._comments = allProjectRequests[index]._comments;\r\n                    request._status = allProjectRequests[index]._status;\r\n                    request._requestStatus = allProjectRequests[index]._requestStatus;\r\n                    request._projectAddress = allProjectRequests[index]._projectAddress;\r\n                    request._userAddress = allProjectRequests[index]._userAddress;\r\n                    request._requestAddress = allProjectRequests[index]._requestAddress;\r\n                    request._timestamp = block.timestamp;\r\n                    return request;\r\n                }\r\n            }\r\n        }\r\n        return request;\r\n    }\r\n\r\n\r\n    /**  DATA FOR SUPERVISOR && COMPANY  */\r\n\r\n    mapping(uint => Request) public requests;\r\n    uint public requestsCounter = 0;\r\n    Request[] public allRequests;\r\n\r\n    function createRequest(\r\n        uint _indexProjectRequest,\r\n        bytes32 _title,\r\n        uint _requestStatus,\r\n        uint _projectStatus,\r\n        RequestType _requestType,\r\n        address _projectAddress,\r\n        address _requestAddress\r\n    ) internal {\r\n        requests[requestsCounter]._index = requestsCounter;\r\n        requests[requestsCounter]._indexProjectRequest = _indexProjectRequest;\r\n        requests[requestsCounter]._title = _title;\r\n        requests[requestsCounter]._requestStatus = RequestStatus(_requestStatus);\r\n        requests[requestsCounter]._projectStatus = ProjectStatus(_projectStatus);\r\n        requests[requestsCounter]._requestType = _requestType;\r\n        requests[requestsCounter]._projectAddress = _projectAddress;\r\n        // change to supervisorAddress\r\n        requests[requestsCounter]._userAddress = _projectInitiator;\r\n        requests[requestsCounter]._requestAddress = _requestAddress;\r\n        requests[requestsCounter]._timestamp = block.timestamp;\r\n        requests[requestsCounter]._signature = '';\r\n\r\n        emit RequestEvent(\r\n            requestsCounter,\r\n            _indexProjectRequest,\r\n            _title,\r\n            RequestStatus(_requestStatus),\r\n            ProjectStatus(_projectStatus),\r\n            _requestType, _projectAddress,\r\n            _projectInitiator,\r\n            _requestAddress,\r\n            block.timestamp,\r\n            ''\r\n        );\r\n        allRequests.push(Request(\r\n            requestsCounter, _indexProjectRequest, _title,  RequestStatus(_requestStatus),\r\n            ProjectStatus(_projectStatus),  _requestType, _projectAddress,\r\n            _projectInitiator, _requestAddress, block.timestamp, ''\r\n        ));\r\n        requestsCounter++;\r\n    }\r\n\r\n    function updateRequest(\r\n        uint _index,\r\n        string memory _comments,\r\n        uint _requestStatus,\r\n        uint _indexProjectRequest,\r\n        uint _projectStatus,\r\n        address _projectAddress,\r\n        bytes32 _signature\r\n    ) public {\r\n        // Update request status in the Requests Mapping and Struct Array\r\n        requests[_index]._requestStatus = RequestStatus(_requestStatus);\r\n        requests[_index]._signature = _signature;\r\n\r\n        uint index = requests[_index]._index;\r\n        allRequests[index]._requestStatus = RequestStatus(_requestStatus);\r\n        allRequests[index]._signature = _signature;\r\n\r\n        // Update project request status in the Project Requests Mapping and Struct Array\r\n        projectRequests[_indexProjectRequest]._comments = _comments;\r\n        projectRequests[_indexProjectRequest]._requestStatus = RequestStatus(_requestStatus);\r\n        uint indexProjectReq = projectRequests[_indexProjectRequest]._index;\r\n        allProjectRequests[indexProjectReq]._comments = _comments;\r\n        allProjectRequests[indexProjectReq]._requestStatus = RequestStatus(_requestStatus);\r\n\r\n        // Update ProjectStatus to the requested status - Porject Mapping and Struct Array\r\n        projects[_projectAddress]._status = ProjectStatus(_projectStatus);\r\n        uint indexProject = projects[_projectAddress]._index;\r\n        allProjects[indexProject]._status = ProjectStatus(_projectStatus);\r\n    }\r\n\r\n    function getAllRequests() public view returns(Request[] memory) {\r\n        return allRequests;\r\n    }\r\n}\r\n",
  "sourcePath": "/mnt/c/Users/Beniamin/source/repos/DissertationProject/contracts/ProjectChain.sol",
  "compiler": {
    "name": "solc",
    "version": "0.8.10+commit.fc410830.Emscripten.clang"
  },
  "schemaVersion": "3.4.3",
  "updatedAt": "2021-11-22T20:28:43.543Z",
  "networkType": "ethereum",
  "devdoc": {
    "kind": "dev",
    "methods": {},
    "version": 1
  },
  "userdoc": {
    "kind": "user",
    "methods": {
      "projects(address)": {
        "notice": "DATA FOR PROJECT INITIATOR  "
      },
      "requests(uint256)": {
        "notice": "DATA FOR SUPERVISOR && COMPANY  "
      }
    },
    "version": 1
  }
}