{
  "contractName": "Project",
  "abi": [
    {
      "inputs": [],
      "stateMutability": "nonpayable",
      "type": "constructor"
    },
    {
      "anonymous": false,
      "inputs": [
        {
          "indexed": false,
          "internalType": "string",
          "name": "_name",
          "type": "string"
        },
        {
          "indexed": false,
          "internalType": "string",
          "name": "_description",
          "type": "string"
        },
        {
          "indexed": false,
          "internalType": "enum Project.ProjectStatus",
          "name": "_status",
          "type": "uint8"
        }
      ],
      "name": "CreateProject",
      "type": "event"
    },
    {
      "anonymous": false,
      "inputs": [
        {
          "indexed": false,
          "internalType": "uint256",
          "name": "index",
          "type": "uint256"
        },
        {
          "indexed": true,
          "internalType": "enum Project.ProjectStatus",
          "name": "status",
          "type": "uint8"
        },
        {
          "indexed": true,
          "internalType": "address",
          "name": "projectAddress",
          "type": "address"
        }
      ],
      "name": "ProjectStatusChanged",
      "type": "event"
    },
    {
      "anonymous": false,
      "inputs": [
        {
          "indexed": false,
          "internalType": "uint256",
          "name": "_indexRequest",
          "type": "uint256"
        },
        {
          "indexed": false,
          "internalType": "enum Project.RequestStatus",
          "name": "_status",
          "type": "uint8"
        },
        {
          "components": [
            {
              "internalType": "uint256",
              "name": "index",
              "type": "uint256"
            },
            {
              "internalType": "string",
              "name": "name",
              "type": "string"
            },
            {
              "internalType": "string",
              "name": "description",
              "type": "string"
            },
            {
              "internalType": "enum Project.ProjectStatus",
              "name": "projectStatus",
              "type": "uint8"
            },
            {
              "internalType": "string",
              "name": "ipfsFileCID",
              "type": "string"
            }
          ],
          "indexed": false,
          "internalType": "struct Project.S_Project",
          "name": "_project",
          "type": "tuple"
        },
        {
          "indexed": false,
          "internalType": "enum Project.ProjectStatus",
          "name": "_projectStatus",
          "type": "uint8"
        },
        {
          "indexed": false,
          "internalType": "address",
          "name": "_subjectAddress",
          "type": "address"
        }
      ],
      "name": "UpdateCompanyRequestStatus",
      "type": "event"
    },
    {
      "anonymous": false,
      "inputs": [
        {
          "indexed": false,
          "internalType": "uint256",
          "name": "_indexRequest",
          "type": "uint256"
        },
        {
          "indexed": false,
          "internalType": "enum Project.RequestStatus",
          "name": "_status",
          "type": "uint8"
        },
        {
          "components": [
            {
              "internalType": "uint256",
              "name": "index",
              "type": "uint256"
            },
            {
              "internalType": "string",
              "name": "name",
              "type": "string"
            },
            {
              "internalType": "string",
              "name": "description",
              "type": "string"
            },
            {
              "internalType": "enum Project.ProjectStatus",
              "name": "projectStatus",
              "type": "uint8"
            },
            {
              "internalType": "string",
              "name": "ipfsFileCID",
              "type": "string"
            }
          ],
          "indexed": false,
          "internalType": "struct Project.S_Project",
          "name": "_project",
          "type": "tuple"
        },
        {
          "indexed": false,
          "internalType": "enum Project.ProjectStatus",
          "name": "_projectStatus",
          "type": "uint8"
        },
        {
          "indexed": false,
          "internalType": "address",
          "name": "_subjectAddress",
          "type": "address"
        }
      ],
      "name": "UpdateSupervisorRequestStatus",
      "type": "event"
    },
    {
      "anonymous": false,
      "inputs": [
        {
          "indexed": false,
          "internalType": "string",
          "name": "username",
          "type": "string"
        },
        {
          "indexed": false,
          "internalType": "string",
          "name": "firstname",
          "type": "string"
        },
        {
          "indexed": false,
          "internalType": "string",
          "name": "lastname",
          "type": "string"
        },
        {
          "indexed": false,
          "internalType": "string",
          "name": "email",
          "type": "string"
        },
        {
          "indexed": false,
          "internalType": "enum User.Roles",
          "name": "role",
          "type": "uint8"
        },
        {
          "indexed": false,
          "internalType": "address",
          "name": "walletAddress",
          "type": "address"
        }
      ],
      "name": "UserChanges",
      "type": "event"
    },
    {
      "anonymous": false,
      "inputs": [
        {
          "indexed": true,
          "internalType": "address",
          "name": "_walletAddress",
          "type": "address"
        },
        {
          "indexed": true,
          "internalType": "string",
          "name": "_username",
          "type": "string"
        },
        {
          "indexed": false,
          "internalType": "string",
          "name": "_email",
          "type": "string"
        },
        {
          "indexed": false,
          "internalType": "string",
          "name": "_firstname",
          "type": "string"
        },
        {
          "indexed": false,
          "internalType": "string",
          "name": "_lastname",
          "type": "string"
        },
        {
          "indexed": true,
          "internalType": "enum User.Roles",
          "name": "_role",
          "type": "uint8"
        }
      ],
      "name": "UserRegistered",
      "type": "event"
    },
    {
      "inputs": [
        {
          "internalType": "uint256",
          "name": "",
          "type": "uint256"
        }
      ],
      "name": "allProjects",
      "outputs": [
        {
          "internalType": "uint256",
          "name": "index",
          "type": "uint256"
        },
        {
          "internalType": "string",
          "name": "name",
          "type": "string"
        },
        {
          "internalType": "string",
          "name": "description",
          "type": "string"
        },
        {
          "internalType": "enum Project.ProjectStatus",
          "name": "projectStatus",
          "type": "uint8"
        },
        {
          "internalType": "string",
          "name": "ipfsFileCID",
          "type": "string"
        }
      ],
      "stateMutability": "view",
      "type": "function",
      "constant": true
    },
    {
      "inputs": [
        {
          "internalType": "uint256",
          "name": "",
          "type": "uint256"
        }
      ],
      "name": "allUsers",
      "outputs": [
        {
          "internalType": "string",
          "name": "username",
          "type": "string"
        },
        {
          "internalType": "string",
          "name": "email",
          "type": "string"
        },
        {
          "internalType": "string",
          "name": "firstname",
          "type": "string"
        },
        {
          "internalType": "string",
          "name": "lastname",
          "type": "string"
        },
        {
          "internalType": "enum User.Roles",
          "name": "role",
          "type": "uint8"
        },
        {
          "internalType": "address",
          "name": "walletAddress",
          "type": "address"
        }
      ],
      "stateMutability": "view",
      "type": "function",
      "constant": true
    },
    {
      "inputs": [
        {
          "internalType": "uint256",
          "name": "_role",
          "type": "uint256"
        },
        {
          "internalType": "address",
          "name": "_walletAddress",
          "type": "address"
        }
      ],
      "name": "changeUserRole",
      "outputs": [],
      "stateMutability": "nonpayable",
      "type": "function"
    },
    {
      "inputs": [
        {
          "internalType": "uint256",
          "name": "",
          "type": "uint256"
        }
      ],
      "name": "companyRequests",
      "outputs": [
        {
          "internalType": "uint256",
          "name": "index",
          "type": "uint256"
        },
        {
          "internalType": "string",
          "name": "description",
          "type": "string"
        },
        {
          "internalType": "enum Project.RequestStatus",
          "name": "status",
          "type": "uint8"
        },
        {
          "components": [
            {
              "internalType": "uint256",
              "name": "index",
              "type": "uint256"
            },
            {
              "internalType": "string",
              "name": "name",
              "type": "string"
            },
            {
              "internalType": "string",
              "name": "description",
              "type": "string"
            },
            {
              "internalType": "enum Project.ProjectStatus",
              "name": "projectStatus",
              "type": "uint8"
            },
            {
              "internalType": "string",
              "name": "ipfsFileCID",
              "type": "string"
            }
          ],
          "internalType": "struct Project.S_Project",
          "name": "project",
          "type": "tuple"
        },
        {
          "internalType": "address",
          "name": "subjectAddress",
          "type": "address"
        }
      ],
      "stateMutability": "view",
      "type": "function",
      "constant": true
    },
    {
      "inputs": [],
      "name": "getAllUsers",
      "outputs": [
        {
          "components": [
            {
              "internalType": "string",
              "name": "username",
              "type": "string"
            },
            {
              "internalType": "string",
              "name": "email",
              "type": "string"
            },
            {
              "internalType": "string",
              "name": "firstname",
              "type": "string"
            },
            {
              "internalType": "string",
              "name": "lastname",
              "type": "string"
            },
            {
              "internalType": "enum User.Roles",
              "name": "role",
              "type": "uint8"
            },
            {
              "internalType": "address",
              "name": "walletAddress",
              "type": "address"
            }
          ],
          "internalType": "struct User.S_UserData[]",
          "name": "",
          "type": "tuple[]"
        }
      ],
      "stateMutability": "view",
      "type": "function",
      "constant": true
    },
    {
      "inputs": [],
      "name": "getUserAddresses",
      "outputs": [
        {
          "internalType": "address[]",
          "name": "",
          "type": "address[]"
        }
      ],
      "stateMutability": "view",
      "type": "function",
      "constant": true
    },
    {
      "inputs": [
        {
          "internalType": "address",
          "name": "_address",
          "type": "address"
        }
      ],
      "name": "getUserInfo",
      "outputs": [
        {
          "components": [
            {
              "internalType": "string",
              "name": "username",
              "type": "string"
            },
            {
              "internalType": "string",
              "name": "email",
              "type": "string"
            },
            {
              "internalType": "string",
              "name": "firstname",
              "type": "string"
            },
            {
              "internalType": "string",
              "name": "lastname",
              "type": "string"
            },
            {
              "internalType": "enum User.Roles",
              "name": "role",
              "type": "uint8"
            },
            {
              "internalType": "address",
              "name": "walletAddress",
              "type": "address"
            }
          ],
          "internalType": "struct User.S_UserData",
          "name": "",
          "type": "tuple"
        }
      ],
      "stateMutability": "view",
      "type": "function",
      "constant": true
    },
    {
      "inputs": [],
      "name": "owner",
      "outputs": [
        {
          "internalType": "address",
          "name": "",
          "type": "address"
        }
      ],
      "stateMutability": "view",
      "type": "function",
      "constant": true
    },
    {
      "inputs": [
        {
          "internalType": "uint256",
          "name": "",
          "type": "uint256"
        }
      ],
      "name": "projectIds",
      "outputs": [
        {
          "internalType": "uint256",
          "name": "",
          "type": "uint256"
        }
      ],
      "stateMutability": "view",
      "type": "function",
      "constant": true
    },
    {
      "inputs": [
        {
          "internalType": "uint256",
          "name": "",
          "type": "uint256"
        }
      ],
      "name": "projects",
      "outputs": [
        {
          "internalType": "uint256",
          "name": "index",
          "type": "uint256"
        },
        {
          "internalType": "string",
          "name": "name",
          "type": "string"
        },
        {
          "internalType": "string",
          "name": "description",
          "type": "string"
        },
        {
          "internalType": "enum Project.ProjectStatus",
          "name": "projectStatus",
          "type": "uint8"
        },
        {
          "internalType": "string",
          "name": "ipfsFileCID",
          "type": "string"
        }
      ],
      "stateMutability": "view",
      "type": "function",
      "constant": true
    },
    {
      "inputs": [],
      "name": "projectsCount",
      "outputs": [
        {
          "internalType": "uint256",
          "name": "",
          "type": "uint256"
        }
      ],
      "stateMutability": "view",
      "type": "function",
      "constant": true
    },
    {
      "inputs": [
        {
          "internalType": "uint256",
          "name": "",
          "type": "uint256"
        }
      ],
      "name": "projectsStatus",
      "outputs": [
        {
          "internalType": "uint256",
          "name": "_index",
          "type": "uint256"
        },
        {
          "internalType": "enum Project.ProjectStatus",
          "name": "_status",
          "type": "uint8"
        },
        {
          "internalType": "address",
          "name": "_address",
          "type": "address"
        }
      ],
      "stateMutability": "view",
      "type": "function",
      "constant": true
    },
    {
      "inputs": [
        {
          "internalType": "string",
          "name": "_username",
          "type": "string"
        },
        {
          "internalType": "string",
          "name": "_email",
          "type": "string"
        },
        {
          "internalType": "string",
          "name": "_firstname",
          "type": "string"
        },
        {
          "internalType": "string",
          "name": "_lastname",
          "type": "string"
        },
        {
          "internalType": "uint256",
          "name": "_role",
          "type": "uint256"
        },
        {
          "internalType": "address",
          "name": "_walletAddress",
          "type": "address"
        }
      ],
      "name": "registerUser",
      "outputs": [],
      "stateMutability": "nonpayable",
      "type": "function"
    },
    {
      "inputs": [],
      "name": "statusChangedIndex",
      "outputs": [
        {
          "internalType": "uint256",
          "name": "",
          "type": "uint256"
        }
      ],
      "stateMutability": "view",
      "type": "function",
      "constant": true
    },
    {
      "inputs": [
        {
          "internalType": "uint256",
          "name": "",
          "type": "uint256"
        }
      ],
      "name": "supervisorRequests",
      "outputs": [
        {
          "internalType": "uint256",
          "name": "index",
          "type": "uint256"
        },
        {
          "internalType": "string",
          "name": "description",
          "type": "string"
        },
        {
          "internalType": "enum Project.RequestStatus",
          "name": "status",
          "type": "uint8"
        },
        {
          "components": [
            {
              "internalType": "uint256",
              "name": "index",
              "type": "uint256"
            },
            {
              "internalType": "string",
              "name": "name",
              "type": "string"
            },
            {
              "internalType": "string",
              "name": "description",
              "type": "string"
            },
            {
              "internalType": "enum Project.ProjectStatus",
              "name": "projectStatus",
              "type": "uint8"
            },
            {
              "internalType": "string",
              "name": "ipfsFileCID",
              "type": "string"
            }
          ],
          "internalType": "struct Project.S_Project",
          "name": "project",
          "type": "tuple"
        },
        {
          "internalType": "address",
          "name": "subjectAddress",
          "type": "address"
        }
      ],
      "stateMutability": "view",
      "type": "function",
      "constant": true
    },
    {
      "inputs": [
        {
          "internalType": "uint256",
          "name": "",
          "type": "uint256"
        }
      ],
      "name": "userAddresses",
      "outputs": [
        {
          "internalType": "address",
          "name": "",
          "type": "address"
        }
      ],
      "stateMutability": "view",
      "type": "function",
      "constant": true
    },
    {
      "inputs": [
        {
          "internalType": "address",
          "name": "",
          "type": "address"
        }
      ],
      "name": "userInfo",
      "outputs": [
        {
          "internalType": "string",
          "name": "username",
          "type": "string"
        },
        {
          "internalType": "string",
          "name": "email",
          "type": "string"
        },
        {
          "internalType": "string",
          "name": "firstname",
          "type": "string"
        },
        {
          "internalType": "string",
          "name": "lastname",
          "type": "string"
        },
        {
          "internalType": "enum User.Roles",
          "name": "role",
          "type": "uint8"
        },
        {
          "internalType": "address",
          "name": "walletAddress",
          "type": "address"
        }
      ],
      "stateMutability": "view",
      "type": "function",
      "constant": true
    },
    {
      "inputs": [],
      "name": "usersCount",
      "outputs": [
        {
          "internalType": "uint256",
          "name": "",
          "type": "uint256"
        }
      ],
      "stateMutability": "view",
      "type": "function",
      "constant": true
    },
    {
      "inputs": [
        {
          "internalType": "string",
          "name": "_name",
          "type": "string"
        },
        {
          "internalType": "string",
          "name": "_description",
          "type": "string"
        },
        {
          "internalType": "uint256",
          "name": "_status",
          "type": "uint256"
        },
        {
          "internalType": "string",
          "name": "_ipfsFileCID",
          "type": "string"
        }
      ],
      "name": "createProject",
      "outputs": [],
      "stateMutability": "nonpayable",
      "type": "function"
    },
    {
      "inputs": [
        {
          "internalType": "uint256",
          "name": "_index",
          "type": "uint256"
        }
      ],
      "name": "getProjectInfo",
      "outputs": [
        {
          "components": [
            {
              "internalType": "uint256",
              "name": "index",
              "type": "uint256"
            },
            {
              "internalType": "string",
              "name": "name",
              "type": "string"
            },
            {
              "internalType": "string",
              "name": "description",
              "type": "string"
            },
            {
              "internalType": "enum Project.ProjectStatus",
              "name": "projectStatus",
              "type": "uint8"
            },
            {
              "internalType": "string",
              "name": "ipfsFileCID",
              "type": "string"
            }
          ],
          "internalType": "struct Project.S_Project",
          "name": "",
          "type": "tuple"
        }
      ],
      "stateMutability": "view",
      "type": "function",
      "constant": true
    },
    {
      "inputs": [],
      "name": "getAllProjects",
      "outputs": [
        {
          "components": [
            {
              "internalType": "uint256",
              "name": "index",
              "type": "uint256"
            },
            {
              "internalType": "string",
              "name": "name",
              "type": "string"
            },
            {
              "internalType": "string",
              "name": "description",
              "type": "string"
            },
            {
              "internalType": "enum Project.ProjectStatus",
              "name": "projectStatus",
              "type": "uint8"
            },
            {
              "internalType": "string",
              "name": "ipfsFileCID",
              "type": "string"
            }
          ],
          "internalType": "struct Project.S_Project[]",
          "name": "",
          "type": "tuple[]"
        }
      ],
      "stateMutability": "view",
      "type": "function",
      "constant": true
    },
    {
      "inputs": [],
      "name": "getProjectIds",
      "outputs": [
        {
          "internalType": "uint256[]",
          "name": "",
          "type": "uint256[]"
        }
      ],
      "stateMutability": "view",
      "type": "function",
      "constant": true
    },
    {
      "inputs": [
        {
          "internalType": "string",
          "name": "_text",
          "type": "string"
        },
        {
          "internalType": "address",
          "name": "_addr",
          "type": "address"
        }
      ],
      "name": "createUniqueIdentifier",
      "outputs": [
        {
          "internalType": "bytes32",
          "name": "",
          "type": "bytes32"
        }
      ],
      "stateMutability": "pure",
      "type": "function",
      "constant": true
    },
    {
      "inputs": [
        {
          "internalType": "string",
          "name": "_text",
          "type": "string"
        },
        {
          "internalType": "address",
          "name": "_addr",
          "type": "address"
        }
      ],
      "name": "createUniqueHexAddress",
      "outputs": [
        {
          "internalType": "address",
          "name": "",
          "type": "address"
        }
      ],
      "stateMutability": "pure",
      "type": "function",
      "constant": true
    },
    {
      "inputs": [
        {
          "internalType": "uint256",
          "name": "_status",
          "type": "uint256"
        },
        {
          "internalType": "address",
          "name": "_address",
          "type": "address"
        }
      ],
      "name": "changeProjectStatus",
      "outputs": [],
      "stateMutability": "nonpayable",
      "type": "function"
    },
    {
      "inputs": [
        {
          "internalType": "string",
          "name": "_description",
          "type": "string"
        },
        {
          "components": [
            {
              "internalType": "uint256",
              "name": "index",
              "type": "uint256"
            },
            {
              "internalType": "string",
              "name": "name",
              "type": "string"
            },
            {
              "internalType": "string",
              "name": "description",
              "type": "string"
            },
            {
              "internalType": "enum Project.ProjectStatus",
              "name": "projectStatus",
              "type": "uint8"
            },
            {
              "internalType": "string",
              "name": "ipfsFileCID",
              "type": "string"
            }
          ],
          "internalType": "struct Project.S_Project",
          "name": "_project",
          "type": "tuple"
        },
        {
          "internalType": "address",
          "name": "_subjectAddress",
          "type": "address"
        }
      ],
      "name": "requestProjectApprovalFromSupervisor",
      "outputs": [],
      "stateMutability": "nonpayable",
      "type": "function"
    },
    {
      "inputs": [
        {
          "internalType": "string",
          "name": "_description",
          "type": "string"
        },
        {
          "components": [
            {
              "internalType": "uint256",
              "name": "index",
              "type": "uint256"
            },
            {
              "internalType": "string",
              "name": "name",
              "type": "string"
            },
            {
              "internalType": "string",
              "name": "description",
              "type": "string"
            },
            {
              "internalType": "enum Project.ProjectStatus",
              "name": "projectStatus",
              "type": "uint8"
            },
            {
              "internalType": "string",
              "name": "ipfsFileCID",
              "type": "string"
            }
          ],
          "internalType": "struct Project.S_Project",
          "name": "_project",
          "type": "tuple"
        },
        {
          "internalType": "address",
          "name": "_subjectAddress",
          "type": "address"
        }
      ],
      "name": "requestProjectCompleteFromSupervisor",
      "outputs": [],
      "stateMutability": "nonpayable",
      "type": "function"
    },
    {
      "inputs": [
        {
          "internalType": "string",
          "name": "_description",
          "type": "string"
        },
        {
          "components": [
            {
              "internalType": "uint256",
              "name": "index",
              "type": "uint256"
            },
            {
              "internalType": "string",
              "name": "name",
              "type": "string"
            },
            {
              "internalType": "string",
              "name": "description",
              "type": "string"
            },
            {
              "internalType": "enum Project.ProjectStatus",
              "name": "projectStatus",
              "type": "uint8"
            },
            {
              "internalType": "string",
              "name": "ipfsFileCID",
              "type": "string"
            }
          ],
          "internalType": "struct Project.S_Project",
          "name": "_project",
          "type": "tuple"
        },
        {
          "internalType": "address",
          "name": "_subjectAddress",
          "type": "address"
        }
      ],
      "name": "requestStartProjectToCompanyBuilder",
      "outputs": [],
      "stateMutability": "nonpayable",
      "type": "function"
    }
  ],
  "bytecode": "0x6080604052600060025560006005556000600b5534801561001f57600080fd5b5033600160006101000a81548173ffffffffffffffffffffffffffffffffffffffff021916908373ffffffffffffffffffffffffffffffffffffffff16021790555033600760006101000a81548173ffffffffffffffffffffffffffffffffffffffff021916908373ffffffffffffffffffffffffffffffffffffffff1602179055506148c3806100b16000396000f3fe608060405234801561001057600080fd5b50600436106101c45760003560e01c80637748587f116100f9578063a2bdedf411610097578063c73b302e11610071578063c73b302e14610569578063d40d4a8014610587578063e2842d79146105bb578063fabf5968146105d9576101c4565b8063a2bdedf4146104e4578063a591efde14610519578063b42302a214610537576101c4565b80638da5cb5b116100d35780638da5cb5b146104725780639100978614610490578063911c29a6146104ac578063953dcd2a146104c8576101c4565b80637748587f1461040457806380d03829146104205780638c86a1d71461043e576101c4565b8063502c9bd5116101665780636386c1c7116101405780636386c1c71461037e578063644fa658146103ae5780636ba13a82146103ca5780636fe3d194146103e8576101c4565b8063502c9bd5146102ea57806353b3194c1461031a5780636132844f1461034e576101c4565b80631a6cee2f116101a25780631a6cee2f1461026257806329a613b514610280578063465757141461029e57806348c35ad4146102ba576101c4565b8063107046bd146101c957806313b4078f146101fd5780631959a0021461022d575b600080fd5b6101e360048036038101906101de91906133fa565b610609565b6040516101f4959493929190613546565b60405180910390f35b61021760048036038101906102129190613741565b6107e4565b60405161022491906137ac565b60405180910390f35b610247600480360381019061024291906137c7565b61081a565b6040516102599695949392919061383c565b60405180910390f35b61026a610aa3565b60405161027791906138b9565b60405180910390f35b610288610aa9565b6040516102959190613992565b60405180910390f35b6102b860048036038101906102b391906139b4565b610b01565b005b6102d460048036038101906102cf91906133fa565b610d9a565b6040516102e191906138b9565b60405180910390f35b61030460048036038101906102ff91906133fa565b610dbe565b60405161031191906137ac565b60405180910390f35b610334600480360381019061032f91906133fa565b610dfd565b604051610345959493929190613546565b60405180910390f35b61036860048036038101906103639190613741565b610fe8565b6040516103759190613a88565b60405180910390f35b610398600480360381019061039391906137c7565b61101b565b6040516103a59190613ba9565b60405180910390f35b6103c860048036038101906103c39190613bcb565b61134c565b005b6103d26114a5565b6040516103df91906138b9565b60405180910390f35b61040260048036038101906103fd9190613d1a565b6114ab565b005b61041e60048036038101906104199190613d1a565b6116b5565b005b6104286118bf565b6040516104359190613efa565b60405180910390f35b610458600480360381019061045391906133fa565b611b19565b604051610469959493929190613fe8565b60405180910390f35b61047a611e09565b60405161048791906137ac565b60405180910390f35b6104aa60048036038101906104a59190613bcb565b611e2f565b005b6104c660048036038101906104c19190614049565b611fab565b005b6104e260048036038101906104dd9190613d1a565b612490565b005b6104fe60048036038101906104f991906133fa565b61269a565b6040516105109695949392919061383c565b60405180910390f35b610521612933565b60405161052e91906141f5565b60405180910390f35b610551600480360381019061054c91906133fa565b6129c1565b60405161056093929190614217565b60405180910390f35b610571612a18565b60405161057e91906138b9565b60405180910390f35b6105a1600480360381019061059c91906133fa565b612a1e565b6040516105b2959493929190613fe8565b60405180910390f35b6105c3612d0e565b6040516105d091906143ae565b60405180910390f35b6105f360048036038101906105ee91906133fa565b613046565b60405161060091906143d0565b60405180910390f35b600860205280600052604060002060009150905080600001549080600101805461063290614421565b80601f016020809104026020016040519081016040528092919081815260200182805461065e90614421565b80156106ab5780601f10610680576101008083540402835291602001916106ab565b820191906000526020600020905b81548152906001019060200180831161068e57829003601f168201915b5050505050908060020180546106c090614421565b80601f01602080910402602001604051908101604052809291908181526020018280546106ec90614421565b80156107395780601f1061070e57610100808354040283529160200191610739565b820191906000526020600020905b81548152906001019060200180831161071c57829003601f168201915b5050505050908060030160009054906101000a900460ff169080600401805461076190614421565b80601f016020809104026020016040519081016040528092919081815260200182805461078d90614421565b80156107da5780601f106107af576101008083540402835291602001916107da565b820191906000526020600020905b8154815290600101906020018083116107bd57829003601f168201915b5050505050905085565b600082826040516020016107f99291906144d7565b6040516020818303038152906040528051906020012060001c905092915050565b600060205280600052604060002060009150905080600001805461083d90614421565b80601f016020809104026020016040519081016040528092919081815260200182805461086990614421565b80156108b65780601f1061088b576101008083540402835291602001916108b6565b820191906000526020600020905b81548152906001019060200180831161089957829003601f168201915b5050505050908060010180546108cb90614421565b80601f01602080910402602001604051908101604052809291908181526020018280546108f790614421565b80156109445780601f1061091957610100808354040283529160200191610944565b820191906000526020600020905b81548152906001019060200180831161092757829003601f168201915b50505050509080600201805461095990614421565b80601f016020809104026020016040519081016040528092919081815260200182805461098590614421565b80156109d25780601f106109a7576101008083540402835291602001916109d2565b820191906000526020600020905b8154815290600101906020018083116109b557829003601f168201915b5050505050908060030180546109e790614421565b80601f0160208091040260200160405190810160405280929190818152602001828054610a1390614421565b8015610a605780601f10610a3557610100808354040283529160200191610a60565b820191906000526020600020905b815481529060010190602001808311610a4357829003601f168201915b5050505050908060040160009054906101000a900460ff16908060040160019054906101000a900473ffffffffffffffffffffffffffffffffffffffff16905086565b60055481565b6060600c805480602002602001604051908101604052809291908181526020018280548015610af757602002820191906000526020600020905b815481526020019060010190808311610ae3575b5050505050905090565b600b5460086000600b548152602001908152602001600020600001819055508360086000600b5481526020019081526020016000206001019080519060200190610b4c92919061326e565b508260086000600b5481526020019081526020016000206002019080519060200190610b7992919061326e565b50816005811115610b8d57610b8c6134cf565b5b60086000600b54815260200190815260200160002060030160006101000a81548160ff02191690836005811115610bc757610bc66134cf565b5b02179055508060086000600b5481526020019081526020016000206004019080519060200190610bf892919061326e565b507f274f009187cb91dd70ef9fd455c66e7263b5fc9746490cba15a3be400f580fa88484846005811115610c2f57610c2e6134cf565b5b604051610c3e939291906144ff565b60405180910390a1600c600b549080600181540180825580915050600190039060005260206000200160009091909190915055600d6040518060a00160405280600b548152602001868152602001858152602001846005811115610ca557610ca46134cf565b5b6005811115610cb757610cb66134cf565b5b8152602001838152509080600181540180825580915050600190039060005260206000209060050201600090919091909150600082015181600001556020820151816001019080519060200190610d0f92919061326e565b506040820151816002019080519060200190610d2c92919061326e565b5060608201518160030160006101000a81548160ff02191690836005811115610d5857610d576134cf565b5b02179055506080820151816004019080519060200190610d7992919061326e565b505050600b6000815480929190610d8f90614573565b919050555050505050565b600c8181548110610daa57600080fd5b906000526020600020016000915090505481565b60038181548110610dce57600080fd5b906000526020600020016000915054906101000a900473ffffffffffffffffffffffffffffffffffffffff1681565b600d8181548110610e0d57600080fd5b9060005260206000209060050201600091509050806000015490806001018054610e3690614421565b80601f0160208091040260200160405190810160405280929190818152602001828054610e6290614421565b8015610eaf5780601f10610e8457610100808354040283529160200191610eaf565b820191906000526020600020905b815481529060010190602001808311610e9257829003601f168201915b505050505090806002018054610ec490614421565b80601f0160208091040260200160405190810160405280929190818152602001828054610ef090614421565b8015610f3d5780601f10610f1257610100808354040283529160200191610f3d565b820191906000526020600020905b815481529060010190602001808311610f2057829003601f168201915b5050505050908060030160009054906101000a900460ff1690806004018054610f6590614421565b80601f0160208091040260200160405190810160405280929190818152602001828054610f9190614421565b8015610fde5780601f10610fb357610100808354040283529160200191610fde565b820191906000526020600020905b815481529060010190602001808311610fc157829003601f168201915b5050505050905085565b60008282604051602001610ffd9291906144d7565b60405160208183030381529060405280519060200120905092915050565b6110236132f4565b6000808373ffffffffffffffffffffffffffffffffffffffff1673ffffffffffffffffffffffffffffffffffffffff1681526020019081526020016000206040518060c001604052908160008201805461107c90614421565b80601f01602080910402602001604051908101604052809291908181526020018280546110a890614421565b80156110f55780601f106110ca576101008083540402835291602001916110f5565b820191906000526020600020905b8154815290600101906020018083116110d857829003601f168201915b5050505050815260200160018201805461110e90614421565b80601f016020809104026020016040519081016040528092919081815260200182805461113a90614421565b80156111875780601f1061115c57610100808354040283529160200191611187565b820191906000526020600020905b81548152906001019060200180831161116a57829003601f168201915b505050505081526020016002820180546111a090614421565b80601f01602080910402602001604051908101604052809291908181526020018280546111cc90614421565b80156112195780601f106111ee57610100808354040283529160200191611219565b820191906000526020600020905b8154815290600101906020018083116111fc57829003601f168201915b5050505050815260200160038201805461123290614421565b80601f016020809104026020016040519081016040528092919081815260200182805461125e90614421565b80156112ab5780601f10611280576101008083540402835291602001916112ab565b820191906000526020600020905b81548152906001019060200180831161128e57829003601f168201915b505050505081526020016004820160009054906101000a900460ff1660038111156112d9576112d86134cf565b5b60038111156112eb576112ea6134cf565b5b81526020016004820160019054906101000a900473ffffffffffffffffffffffffffffffffffffffff1673ffffffffffffffffffffffffffffffffffffffff1673ffffffffffffffffffffffffffffffffffffffff16815250509050919050565b6005546006600060055481526020019081526020016000206000018190555081600581111561137e5761137d6134cf565b5b60066000600554815260200190815260200160002060010160006101000a81548160ff021916908360058111156113b8576113b76134cf565b5b02179055508060066000600554815260200190815260200160002060010160016101000a81548173ffffffffffffffffffffffffffffffffffffffff021916908373ffffffffffffffffffffffffffffffffffffffff1602179055508073ffffffffffffffffffffffffffffffffffffffff1682600581111561143e5761143d6134cf565b5b60058111156114505761144f6134cf565b5b7f119b71e0e33421c153e29c9cf62d53667313969e57a1cffd506f579e87267d9260055460405161148191906138b9565b60405180910390a36005600081548092919061149c90614573565b91905055505050565b60025481565b600460058111156114bf576114be6134cf565b5b826060015160058111156114d6576114d56134cf565b5b14611516576040517f08c379a000000000000000000000000000000000000000000000000000000000815260040161150d90614654565b60405180910390fd5b6000600a6000600f54815260200190815260200160002090508381600101908051906020019061154792919061326e565b5060008160020160006101000a81548160ff021916908360018111156115705761156f6134cf565b5b021790555082816003016000820151816000015560208201518160010190805190602001906115a092919061326e565b5060408201518160020190805190602001906115bd92919061326e565b5060608201518160030160006101000a81548160ff021916908360058111156115e9576115e86134cf565b5b0217905550608082015181600401908051906020019061160a92919061326e565b50905050818160080160006101000a81548173ffffffffffffffffffffffffffffffffffffffff021916908373ffffffffffffffffffffffffffffffffffffffff1602179055507fc0a7086e05590c8d9160aba8dc6a29b754eda15e93d2a2578429bc2fda6bdec3600f5460008586606001518660405161168f959493929190614674565b60405180910390a1600f60008154809291906116aa90614573565b919050555050505050565b600060058111156116c9576116c86134cf565b5b826060015160058111156116e0576116df6134cf565b5b14611720576040517f08c379a000000000000000000000000000000000000000000000000000000000815260040161171790614740565b60405180910390fd5b6000600a6000600f54815260200190815260200160002090508381600101908051906020019061175192919061326e565b5060008160020160006101000a81548160ff0219169083600181111561177a576117796134cf565b5b021790555082816003016000820151816000015560208201518160010190805190602001906117aa92919061326e565b5060408201518160020190805190602001906117c792919061326e565b5060608201518160030160006101000a81548160ff021916908360058111156117f3576117f26134cf565b5b0217905550608082015181600401908051906020019061181492919061326e565b50905050818160080160006101000a81548173ffffffffffffffffffffffffffffffffffffffff021916908373ffffffffffffffffffffffffffffffffffffffff1602179055507fc0a7086e05590c8d9160aba8dc6a29b754eda15e93d2a2578429bc2fda6bdec3600f54600085866060015186604051611899959493929190614674565b60405180910390a1600f60008154809291906118b490614573565b919050555050505050565b6060600d805480602002602001604051908101604052809291908181526020016000905b82821015611b1057838290600052602060002090600502016040518060a00160405290816000820154815260200160018201805461192090614421565b80601f016020809104026020016040519081016040528092919081815260200182805461194c90614421565b80156119995780601f1061196e57610100808354040283529160200191611999565b820191906000526020600020905b81548152906001019060200180831161197c57829003601f168201915b505050505081526020016002820180546119b290614421565b80601f01602080910402602001604051908101604052809291908181526020018280546119de90614421565b8015611a2b5780601f10611a0057610100808354040283529160200191611a2b565b820191906000526020600020905b815481529060010190602001808311611a0e57829003601f168201915b505050505081526020016003820160009054906101000a900460ff166005811115611a5957611a586134cf565b5b6005811115611a6b57611a6a6134cf565b5b8152602001600482018054611a7f90614421565b80601f0160208091040260200160405190810160405280929190818152602001828054611aab90614421565b8015611af85780601f10611acd57610100808354040283529160200191611af8565b820191906000526020600020905b815481529060010190602001808311611adb57829003601f168201915b505050505081525050815260200190600101906118e3565b50505050905090565b600a602052806000526040600020600091509050806000015490806001018054611b4290614421565b80601f0160208091040260200160405190810160405280929190818152602001828054611b6e90614421565b8015611bbb5780601f10611b9057610100808354040283529160200191611bbb565b820191906000526020600020905b815481529060010190602001808311611b9e57829003601f168201915b5050505050908060020160009054906101000a900460ff1690806003016040518060a001604052908160008201548152602001600182018054611bfd90614421565b80601f0160208091040260200160405190810160405280929190818152602001828054611c2990614421565b8015611c765780601f10611c4b57610100808354040283529160200191611c76565b820191906000526020600020905b815481529060010190602001808311611c5957829003601f168201915b50505050508152602001600282018054611c8f90614421565b80601f0160208091040260200160405190810160405280929190818152602001828054611cbb90614421565b8015611d085780601f10611cdd57610100808354040283529160200191611d08565b820191906000526020600020905b815481529060010190602001808311611ceb57829003601f168201915b505050505081526020016003820160009054906101000a900460ff166005811115611d3657611d356134cf565b5b6005811115611d4857611d476134cf565b5b8152602001600482018054611d5c90614421565b80601f0160208091040260200160405190810160405280929190818152602001828054611d8890614421565b8015611dd55780601f10611daa57610100808354040283529160200191611dd5565b820191906000526020600020905b815481529060010190602001808311611db857829003601f168201915b505050505081525050908060080160009054906101000a900473ffffffffffffffffffffffffffffffffffffffff16905085565b600160009054906101000a900473ffffffffffffffffffffffffffffffffffffffff1681565b816003811115611e4257611e416134cf565b5b6000808373ffffffffffffffffffffffffffffffffffffffff1673ffffffffffffffffffffffffffffffffffffffff16815260200190815260200160002060040160006101000a81548160ff02191690836003811115611ea557611ea46134cf565b5b021790555060005b600480549050811015611fa6578173ffffffffffffffffffffffffffffffffffffffff1660048281548110611ee557611ee4614760565b5b906000526020600020906005020160040160019054906101000a900473ffffffffffffffffffffffffffffffffffffffff1673ffffffffffffffffffffffffffffffffffffffff161415611f9357826003811115611f4657611f456134cf565b5b60048281548110611f5a57611f59614760565b5b906000526020600020906005020160040160006101000a81548160ff02191690836003811115611f8d57611f8c6134cf565b5b02179055505b8080611f9e90614573565b915050611ead565b505050565b3373ffffffffffffffffffffffffffffffffffffffff16600160009054906101000a900473ffffffffffffffffffffffffffffffffffffffff1673ffffffffffffffffffffffffffffffffffffffff161461203b576040517f08c379a0000000000000000000000000000000000000000000000000000000008152600401612032906147db565b60405180910390fd5b856000808373ffffffffffffffffffffffffffffffffffffffff1673ffffffffffffffffffffffffffffffffffffffff168152602001908152602001600020600001908051906020019061209092919061326e565b50846000808373ffffffffffffffffffffffffffffffffffffffff1673ffffffffffffffffffffffffffffffffffffffff16815260200190815260200160002060010190805190602001906120e692919061326e565b50836000808373ffffffffffffffffffffffffffffffffffffffff1673ffffffffffffffffffffffffffffffffffffffff168152602001908152602001600020600201908051906020019061213c92919061326e565b50826000808373ffffffffffffffffffffffffffffffffffffffff1673ffffffffffffffffffffffffffffffffffffffff168152602001908152602001600020600301908051906020019061219292919061326e565b508160038111156121a6576121a56134cf565b5b6000808373ffffffffffffffffffffffffffffffffffffffff1673ffffffffffffffffffffffffffffffffffffffff16815260200190815260200160002060040160006101000a81548160ff02191690836003811115612209576122086134cf565b5b0217905550806000808373ffffffffffffffffffffffffffffffffffffffff1673ffffffffffffffffffffffffffffffffffffffff16815260200190815260200160002060040160016101000a81548173ffffffffffffffffffffffffffffffffffffffff021916908373ffffffffffffffffffffffffffffffffffffffff1602179055506003819080600181540180825580915050600190039060005260206000200160009091909190916101000a81548173ffffffffffffffffffffffffffffffffffffffff021916908373ffffffffffffffffffffffffffffffffffffffff16021790555060046040518060c00160405280888152602001878152602001868152602001858152602001846003811115612329576123286134cf565b5b600381111561233b5761233a6134cf565b5b81526020018373ffffffffffffffffffffffffffffffffffffffff168152509080600181540180825580915050600190039060005260206000209060050201600090919091909150600082015181600001908051906020019061239f92919061326e565b5060208201518160010190805190602001906123bc92919061326e565b5060408201518160020190805190602001906123d992919061326e565b5060608201518160030190805190602001906123f692919061326e565b5060808201518160040160006101000a81548160ff02191690836003811115612422576124216134cf565b5b021790555060a08201518160040160016101000a81548173ffffffffffffffffffffffffffffffffffffffff021916908373ffffffffffffffffffffffffffffffffffffffff16021790555050506002600081548092919061248390614573565b9190505550505050505050565b600160058111156124a4576124a36134cf565b5b826060015160058111156124bb576124ba6134cf565b5b146124fb576040517f08c379a00000000000000000000000000000000000000000000000000000000081526004016124f29061486d565b60405180910390fd5b600060096000600e54815260200190815260200160002090508381600101908051906020019061252c92919061326e565b5060008160020160006101000a81548160ff02191690836001811115612555576125546134cf565b5b0217905550828160030160008201518160000155602082015181600101908051906020019061258592919061326e565b5060408201518160020190805190602001906125a292919061326e565b5060608201518160030160006101000a81548160ff021916908360058111156125ce576125cd6134cf565b5b021790555060808201518160040190805190602001906125ef92919061326e565b50905050818160080160006101000a81548173ffffffffffffffffffffffffffffffffffffffff021916908373ffffffffffffffffffffffffffffffffffffffff1602179055507f56cef5b605de75dde94390e0903b843a7c7203544ad094da5db5ecdafb897cb8600e54600085866060015186604051612674959493929190614674565b60405180910390a1600e600081548092919061268f90614573565b919050555050505050565b600481815481106126aa57600080fd5b90600052602060002090600502016000915090508060000180546126cd90614421565b80601f01602080910402602001604051908101604052809291908181526020018280546126f990614421565b80156127465780601f1061271b57610100808354040283529160200191612746565b820191906000526020600020905b81548152906001019060200180831161272957829003601f168201915b50505050509080600101805461275b90614421565b80601f016020809104026020016040519081016040528092919081815260200182805461278790614421565b80156127d45780601f106127a9576101008083540402835291602001916127d4565b820191906000526020600020905b8154815290600101906020018083116127b757829003601f168201915b5050505050908060020180546127e990614421565b80601f016020809104026020016040519081016040528092919081815260200182805461281590614421565b80156128625780601f1061283757610100808354040283529160200191612862565b820191906000526020600020905b81548152906001019060200180831161284557829003601f168201915b50505050509080600301805461287790614421565b80601f01602080910402602001604051908101604052809291908181526020018280546128a390614421565b80156128f05780601f106128c5576101008083540402835291602001916128f0565b820191906000526020600020905b8154815290600101906020018083116128d357829003601f168201915b5050505050908060040160009054906101000a900460ff16908060040160019054906101000a900473ffffffffffffffffffffffffffffffffffffffff16905086565b606060038054806020026020016040519081016040528092919081815260200182805480156129b757602002820191906000526020600020905b8160009054906101000a900473ffffffffffffffffffffffffffffffffffffffff1673ffffffffffffffffffffffffffffffffffffffff168152602001906001019080831161296d575b5050505050905090565b60066020528060005260406000206000915090508060000154908060010160009054906101000a900460ff16908060010160019054906101000a900473ffffffffffffffffffffffffffffffffffffffff16905083565b600b5481565b6009602052806000526040600020600091509050806000015490806001018054612a4790614421565b80601f0160208091040260200160405190810160405280929190818152602001828054612a7390614421565b8015612ac05780601f10612a9557610100808354040283529160200191612ac0565b820191906000526020600020905b815481529060010190602001808311612aa357829003601f168201915b5050505050908060020160009054906101000a900460ff1690806003016040518060a001604052908160008201548152602001600182018054612b0290614421565b80601f0160208091040260200160405190810160405280929190818152602001828054612b2e90614421565b8015612b7b5780601f10612b5057610100808354040283529160200191612b7b565b820191906000526020600020905b815481529060010190602001808311612b5e57829003601f168201915b50505050508152602001600282018054612b9490614421565b80601f0160208091040260200160405190810160405280929190818152602001828054612bc090614421565b8015612c0d5780601f10612be257610100808354040283529160200191612c0d565b820191906000526020600020905b815481529060010190602001808311612bf057829003601f168201915b505050505081526020016003820160009054906101000a900460ff166005811115612c3b57612c3a6134cf565b5b6005811115612c4d57612c4c6134cf565b5b8152602001600482018054612c6190614421565b80601f0160208091040260200160405190810160405280929190818152602001828054612c8d90614421565b8015612cda5780601f10612caf57610100808354040283529160200191612cda565b820191906000526020600020905b815481529060010190602001808311612cbd57829003601f168201915b505050505081525050908060080160009054906101000a900473ffffffffffffffffffffffffffffffffffffffff16905085565b60606004805480602002602001604051908101604052809291908181526020016000905b8282101561303d57838290600052602060002090600502016040518060c0016040529081600082018054612d6590614421565b80601f0160208091040260200160405190810160405280929190818152602001828054612d9190614421565b8015612dde5780601f10612db357610100808354040283529160200191612dde565b820191906000526020600020905b815481529060010190602001808311612dc157829003601f168201915b50505050508152602001600182018054612df790614421565b80601f0160208091040260200160405190810160405280929190818152602001828054612e2390614421565b8015612e705780601f10612e4557610100808354040283529160200191612e70565b820191906000526020600020905b815481529060010190602001808311612e5357829003601f168201915b50505050508152602001600282018054612e8990614421565b80601f0160208091040260200160405190810160405280929190818152602001828054612eb590614421565b8015612f025780601f10612ed757610100808354040283529160200191612f02565b820191906000526020600020905b815481529060010190602001808311612ee557829003601f168201915b50505050508152602001600382018054612f1b90614421565b80601f0160208091040260200160405190810160405280929190818152602001828054612f4790614421565b8015612f945780601f10612f6957610100808354040283529160200191612f94565b820191906000526020600020905b815481529060010190602001808311612f7757829003601f168201915b505050505081526020016004820160009054906101000a900460ff166003811115612fc257612fc16134cf565b5b6003811115612fd457612fd36134cf565b5b81526020016004820160019054906101000a900473ffffffffffffffffffffffffffffffffffffffff1673ffffffffffffffffffffffffffffffffffffffff1673ffffffffffffffffffffffffffffffffffffffff168152505081526020019060010190612d32565b50505050905090565b61304e613352565b600860008381526020019081526020016000206040518060a00160405290816000820154815260200160018201805461308690614421565b80601f01602080910402602001604051908101604052809291908181526020018280546130b290614421565b80156130ff5780601f106130d4576101008083540402835291602001916130ff565b820191906000526020600020905b8154815290600101906020018083116130e257829003601f168201915b5050505050815260200160028201805461311890614421565b80601f016020809104026020016040519081016040528092919081815260200182805461314490614421565b80156131915780601f1061316657610100808354040283529160200191613191565b820191906000526020600020905b81548152906001019060200180831161317457829003601f168201915b505050505081526020016003820160009054906101000a900460ff1660058111156131bf576131be6134cf565b5b60058111156131d1576131d06134cf565b5b81526020016004820180546131e590614421565b80601f016020809104026020016040519081016040528092919081815260200182805461321190614421565b801561325e5780601f106132335761010080835404028352916020019161325e565b820191906000526020600020905b81548152906001019060200180831161324157829003601f168201915b5050505050815250509050919050565b82805461327a90614421565b90600052602060002090601f01602090048101928261329c57600085556132e3565b82601f106132b557805160ff19168380011785556132e3565b828001600101855582156132e3579182015b828111156132e25782518255916020019190600101906132c7565b5b5090506132f09190613393565b5090565b6040518060c00160405280606081526020016060815260200160608152602001606081526020016000600381111561332f5761332e6134cf565b5b8152602001600073ffffffffffffffffffffffffffffffffffffffff1681525090565b6040518060a0016040528060008152602001606081526020016060815260200160006005811115613386576133856134cf565b5b8152602001606081525090565b5b808211156133ac576000816000905550600101613394565b5090565b6000604051905090565b600080fd5b600080fd5b6000819050919050565b6133d7816133c4565b81146133e257600080fd5b50565b6000813590506133f4816133ce565b92915050565b6000602082840312156134105761340f6133ba565b5b600061341e848285016133e5565b91505092915050565b613430816133c4565b82525050565b600081519050919050565b600082825260208201905092915050565b60005b83811015613470578082015181840152602081019050613455565b8381111561347f576000848401525b50505050565b6000601f19601f8301169050919050565b60006134a182613436565b6134ab8185613441565b93506134bb818560208601613452565b6134c481613485565b840191505092915050565b7f4e487b7100000000000000000000000000000000000000000000000000000000600052602160045260246000fd5b6006811061350f5761350e6134cf565b5b50565b6000819050613520826134fe565b919050565b600061353082613512565b9050919050565b61354081613525565b82525050565b600060a08201905061355b6000830188613427565b818103602083015261356d8187613496565b905081810360408301526135818186613496565b90506135906060830185613537565b81810360808301526135a28184613496565b90509695505050505050565b600080fd5b600080fd5b7f4e487b7100000000000000000000000000000000000000000000000000000000600052604160045260246000fd5b6135f082613485565b810181811067ffffffffffffffff8211171561360f5761360e6135b8565b5b80604052505050565b60006136226133b0565b905061362e82826135e7565b919050565b600067ffffffffffffffff82111561364e5761364d6135b8565b5b61365782613485565b9050602081019050919050565b82818337600083830152505050565b600061368661368184613633565b613618565b9050828152602081018484840111156136a2576136a16135b3565b5b6136ad848285613664565b509392505050565b600082601f8301126136ca576136c96135ae565b5b81356136da848260208601613673565b91505092915050565b600073ffffffffffffffffffffffffffffffffffffffff82169050919050565b600061370e826136e3565b9050919050565b61371e81613703565b811461372957600080fd5b50565b60008135905061373b81613715565b92915050565b60008060408385031215613758576137576133ba565b5b600083013567ffffffffffffffff811115613776576137756133bf565b5b613782858286016136b5565b92505060206137938582860161372c565b9150509250929050565b6137a681613703565b82525050565b60006020820190506137c1600083018461379d565b92915050565b6000602082840312156137dd576137dc6133ba565b5b60006137eb8482850161372c565b91505092915050565b60048110613805576138046134cf565b5b50565b6000819050613816826137f4565b919050565b600061382682613808565b9050919050565b6138368161381b565b82525050565b600060c08201905081810360008301526138568189613496565b9050818103602083015261386a8188613496565b9050818103604083015261387e8187613496565b905081810360608301526138928186613496565b90506138a1608083018561382d565b6138ae60a083018461379d565b979650505050505050565b60006020820190506138ce6000830184613427565b92915050565b600081519050919050565b600082825260208201905092915050565b6000819050602082019050919050565b613909816133c4565b82525050565b600061391b8383613900565b60208301905092915050565b6000602082019050919050565b600061393f826138d4565b61394981856138df565b9350613954836138f0565b8060005b8381101561398557815161396c888261390f565b975061397783613927565b925050600181019050613958565b5085935050505092915050565b600060208201905081810360008301526139ac8184613934565b905092915050565b600080600080608085870312156139ce576139cd6133ba565b5b600085013567ffffffffffffffff8111156139ec576139eb6133bf565b5b6139f8878288016136b5565b945050602085013567ffffffffffffffff811115613a1957613a186133bf565b5b613a25878288016136b5565b9350506040613a36878288016133e5565b925050606085013567ffffffffffffffff811115613a5757613a566133bf565b5b613a63878288016136b5565b91505092959194509250565b6000819050919050565b613a8281613a6f565b82525050565b6000602082019050613a9d6000830184613a79565b92915050565b600082825260208201905092915050565b6000613abf82613436565b613ac98185613aa3565b9350613ad9818560208601613452565b613ae281613485565b840191505092915050565b613af68161381b565b82525050565b613b0581613703565b82525050565b600060c0830160008301518482036000860152613b288282613ab4565b91505060208301518482036020860152613b428282613ab4565b91505060408301518482036040860152613b5c8282613ab4565b91505060608301518482036060860152613b768282613ab4565b9150506080830151613b8b6080860182613aed565b5060a0830151613b9e60a0860182613afc565b508091505092915050565b60006020820190508181036000830152613bc38184613b0b565b905092915050565b60008060408385031215613be257613be16133ba565b5b6000613bf0858286016133e5565b9250506020613c018582860161372c565b9150509250929050565b600080fd5b600080fd5b60068110613c2257600080fd5b50565b600081359050613c3481613c15565b92915050565b600060a08284031215613c5057613c4f613c0b565b5b613c5a60a0613618565b90506000613c6a848285016133e5565b600083015250602082013567ffffffffffffffff811115613c8e57613c8d613c10565b5b613c9a848285016136b5565b602083015250604082013567ffffffffffffffff811115613cbe57613cbd613c10565b5b613cca848285016136b5565b6040830152506060613cde84828501613c25565b606083015250608082013567ffffffffffffffff811115613d0257613d01613c10565b5b613d0e848285016136b5565b60808301525092915050565b600080600060608486031215613d3357613d326133ba565b5b600084013567ffffffffffffffff811115613d5157613d506133bf565b5b613d5d868287016136b5565b935050602084013567ffffffffffffffff811115613d7e57613d7d6133bf565b5b613d8a86828701613c3a565b9250506040613d9b8682870161372c565b9150509250925092565b600081519050919050565b600082825260208201905092915050565b6000819050602082019050919050565b613dda81613525565b82525050565b600060a083016000830151613df86000860182613900565b5060208301518482036020860152613e108282613ab4565b91505060408301518482036040860152613e2a8282613ab4565b9150506060830151613e3f6060860182613dd1565b5060808301518482036080860152613e578282613ab4565b9150508091505092915050565b6000613e708383613de0565b905092915050565b6000602082019050919050565b6000613e9082613da5565b613e9a8185613db0565b935083602082028501613eac85613dc1565b8060005b85811015613ee85784840389528151613ec98582613e64565b9450613ed483613e78565b925060208a01995050600181019050613eb0565b50829750879550505050505092915050565b60006020820190508181036000830152613f148184613e85565b905092915050565b60028110613f2d57613f2c6134cf565b5b50565b6000819050613f3e82613f1c565b919050565b6000613f4e82613f30565b9050919050565b613f5e81613f43565b82525050565b600060a083016000830151613f7c6000860182613900565b5060208301518482036020860152613f948282613ab4565b91505060408301518482036040860152613fae8282613ab4565b9150506060830151613fc36060860182613dd1565b5060808301518482036080860152613fdb8282613ab4565b9150508091505092915050565b600060a082019050613ffd6000830188613427565b818103602083015261400f8187613496565b905061401e6040830186613f55565b81810360608301526140308185613f64565b905061403f608083018461379d565b9695505050505050565b60008060008060008060c08789031215614066576140656133ba565b5b600087013567ffffffffffffffff811115614084576140836133bf565b5b61409089828a016136b5565b965050602087013567ffffffffffffffff8111156140b1576140b06133bf565b5b6140bd89828a016136b5565b955050604087013567ffffffffffffffff8111156140de576140dd6133bf565b5b6140ea89828a016136b5565b945050606087013567ffffffffffffffff81111561410b5761410a6133bf565b5b61411789828a016136b5565b935050608061412889828a016133e5565b92505060a061413989828a0161372c565b9150509295509295509295565b600081519050919050565b600082825260208201905092915050565b6000819050602082019050919050565b600061417e8383613afc565b60208301905092915050565b6000602082019050919050565b60006141a282614146565b6141ac8185614151565b93506141b783614162565b8060005b838110156141e85781516141cf8882614172565b97506141da8361418a565b9250506001810190506141bb565b5085935050505092915050565b6000602082019050818103600083015261420f8184614197565b905092915050565b600060608201905061422c6000830186613427565b6142396020830185613537565b614246604083018461379d565b949350505050565b600081519050919050565b600082825260208201905092915050565b6000819050602082019050919050565b600060c08301600083015184820360008601526142978282613ab4565b915050602083015184820360208601526142b18282613ab4565b915050604083015184820360408601526142cb8282613ab4565b915050606083015184820360608601526142e58282613ab4565b91505060808301516142fa6080860182613aed565b5060a083015161430d60a0860182613afc565b508091505092915050565b6000614324838361427a565b905092915050565b6000602082019050919050565b60006143448261424e565b61434e8185614259565b9350836020820285016143608561426a565b8060005b8581101561439c578484038952815161437d8582614318565b94506143888361432c565b925060208a01995050600181019050614364565b50829750879550505050505092915050565b600060208201905081810360008301526143c88184614339565b905092915050565b600060208201905081810360008301526143ea8184613f64565b905092915050565b7f4e487b7100000000000000000000000000000000000000000000000000000000600052602260045260246000fd5b6000600282049050600182168061443957607f821691505b6020821081141561444d5761444c6143f2565b5b50919050565b600081905092915050565b600061446982613436565b6144738185614453565b9350614483818560208601613452565b80840191505092915050565b60008160601b9050919050565b60006144a78261448f565b9050919050565b60006144b98261449c565b9050919050565b6144d16144cc82613703565b6144ae565b82525050565b60006144e3828561445e565b91506144ef82846144c0565b6014820191508190509392505050565b600060608201905081810360008301526145198186613496565b9050818103602083015261452d8185613496565b905061453c6040830184613537565b949350505050565b7f4e487b7100000000000000000000000000000000000000000000000000000000600052601160045260246000fd5b600061457e826133c4565b91507fffffffffffffffffffffffffffffffffffffffffffffffffffffffffffffffff8214156145b1576145b0614544565b5b600182019050919050565b7f5468652070726f6a656374206973206e6f7420696e2074686520274265666f7260008201527f6546696e616c697a6174696f6e436865636b27207374617475732c207468652060208201527f6f7065726174696f6e2063616e6e6f7420626520646f6e652e00000000000000604082015250565b600061463e605983613441565b9150614649826145bc565b606082019050919050565b6000602082019050818103600083015261466d81614631565b9050919050565b600060a0820190506146896000830188613427565b6146966020830187613f55565b81810360408301526146a88186613f64565b90506146b76060830185613537565b6146c4608083018461379d565b9695505050505050565b7f5468652070726f6a656374206973206e6f7420637265617465642c207468652060008201527f6f7065726174696f6e2063616e6e6f7420626520646f6e652e00000000000000602082015250565b600061472a603983613441565b9150614735826146ce565b604082019050919050565b600060208201905081810360008301526147598161471d565b9050919050565b7f4e487b7100000000000000000000000000000000000000000000000000000000600052603260045260246000fd5b7f596f7520617265206e6f7420616e206f776e6572000000000000000000000000600082015250565b60006147c5601483613441565b91506147d08261478f565b602082019050919050565b600060208201905081810360008301526147f4816147b8565b9050919050565b7f5468652070726f6a656374206973206e6f7420617070726f7665642c2074686560008201527f206f7065726174696f6e2063616e6e6f7420626520646f6e652e000000000000602082015250565b6000614857603a83613441565b9150614862826147fb565b604082019050919050565b600060208201905081810360008301526148868161484a565b905091905056fea26469706673582212204feacc2379003fd3cef1323b0cf73dcbfde2fd3b56f9f019ce66d6a076bded1364736f6c634300080a0033",
  "immutableReferences": {},
  "source": "// SPDX-License-Identifier: MIT\r\npragma solidity >=0.8.0 <0.9.0;\r\n\r\nimport \"./User.sol\";\r\n\r\ncontract Project is User {\r\n\r\n    uint256 public statusChangedIndex = 0;\r\n    struct S_ProjectStatusChanged {\r\n        uint256 _index;\r\n        ProjectStatus _status;\r\n        address _address;\r\n    }\r\n    mapping(uint256 => S_ProjectStatusChanged) public projectsStatus;\r\n    event ProjectStatusChanged(uint256 index, ProjectStatus indexed status, address indexed projectAddress);\r\n\r\n\r\n\r\n    address projectInitiator;\r\n\r\n    mapping(uint => S_Project) public projects;\r\n    mapping(uint => S_Request) public companyRequests;\r\n    mapping(uint => S_Request) public supervisorRequests;\r\n\r\n    uint public projectsCount = 0;\r\n    uint[] public projectIds;\r\n    S_Project[] public allProjects;\r\n\r\n    uint indexCompanyRequest;\r\n    uint indexSupervisorRequest;\r\n\r\n    struct S_Project {\r\n        uint index;\r\n        string name;\r\n        string description;\r\n        ProjectStatus projectStatus;\r\n        string ipfsFileCID;\r\n    }\r\n\r\n    struct S_Request {\r\n        uint index;\r\n        string description;\r\n        RequestStatus status;\r\n        S_Project project;\r\n        address subjectAddress;\r\n    }\r\n\r\n    enum RequestStatus { Unverified, Verified }\r\n    enum ProjectStatus { Created, Approved, Rejected, OnGoing, BeforeFinalizationCheck, Completed }\r\n\r\n    //event CreateProject(uint _indexProject, Project.ProjectStatus _projectStatus, address _address);\r\n    event CreateProject(string _name, string _description, ProjectStatus _status);\r\n\r\n    event UpdateSupervisorRequestStatus(uint _indexRequest, RequestStatus _status, S_Project _project, ProjectStatus _projectStatus, address _subjectAddress);\r\n    event UpdateCompanyRequestStatus(uint _indexRequest, RequestStatus _status, S_Project _project, ProjectStatus _projectStatus, address _subjectAddress);\r\n\r\n    constructor() {\r\n        projectInitiator = msg.sender;\r\n    }\r\n\r\n    modifier onlyProjectInitiator {\r\n        require(userInfo[projectInitiator].role == Roles.ProjectInitiator, \"You don't have the rights for this resources.\");\r\n        require(projectInitiator == msg.sender, \"You are not a project initiator\");\r\n        _;\r\n    }\r\n\r\n    function createProject(string memory _name, string memory _description, uint _status, string memory _ipfsFileCID) public  {\r\n        //bytes32 _identifier = createUniqueIdentifier(_hashStringValue, msg.sender);\r\n\r\n        projects[projectsCount].index = projectsCount;\r\n        //projects[projectsCount].identifier = _identifier;\r\n        projects[projectsCount].name = _name;\r\n        projects[projectsCount].description = _description;\r\n        projects[projectsCount].projectStatus = ProjectStatus(_status);\r\n        projects[projectsCount].ipfsFileCID = _ipfsFileCID;\r\n\r\n        emit CreateProject(_name, _description, ProjectStatus(_status));\r\n        projectIds.push(projectsCount);\r\n        allProjects.push(S_Project(projectsCount, _name, _description, ProjectStatus(_status), _ipfsFileCID));\r\n        projectsCount++;\r\n    }\r\n\r\n    function getProjectInfo(uint _index)\r\n        external\r\n        view\r\n        returns (S_Project memory)\r\n    {\r\n        return projects[_index];\r\n    }\r\n\r\n    function getAllProjects() public view returns(S_Project[] memory) {\r\n        return allProjects;\r\n    }\r\n\r\n    function getProjectIds() external view returns (uint[] memory) {\r\n        return projectIds;\r\n    }\r\n\r\n    function createUniqueIdentifier(string memory _text, address _addr) public pure returns (bytes32)  {\r\n        return keccak256(abi.encodePacked(_text, _addr));\r\n    }\r\n\r\n    function createUniqueHexAddress(string memory _text, address _addr) public pure returns (address)  {\r\n        return address(uint160(uint256(keccak256(abi.encodePacked(_text, _addr)))));\r\n    }\r\n\r\n\r\n    function changeProjectStatus(uint _status, address _address) public {\r\n        projectsStatus[statusChangedIndex]._index = statusChangedIndex;\r\n        projectsStatus[statusChangedIndex]._status = ProjectStatus(_status);\r\n        projectsStatus[statusChangedIndex]._address = _address;\r\n        emit ProjectStatusChanged(statusChangedIndex, ProjectStatus(_status), _address);\r\n        statusChangedIndex++;\r\n    }\r\n\r\n\r\n\r\n\r\n\r\n\r\n    function requestProjectApprovalFromSupervisor(string memory _description, S_Project memory _project, address _subjectAddress) public {\r\n        require(_project.projectStatus == ProjectStatus.Created, \"The project is not created, the operation cannot be done.\");\r\n\r\n        S_Request storage request = supervisorRequests[indexSupervisorRequest];\r\n        request.description = _description;\r\n        request.status = RequestStatus.Unverified;\r\n        request.project = _project;\r\n        request.subjectAddress = _subjectAddress;\r\n\r\n        emit UpdateSupervisorRequestStatus(indexSupervisorRequest, RequestStatus.Unverified, _project, _project.projectStatus, _subjectAddress);\r\n        indexSupervisorRequest++;\r\n    }\r\n\r\n    function requestProjectCompleteFromSupervisor(string memory _description, S_Project memory _project, address _subjectAddress) public {\r\n        require(\r\n            _project.projectStatus == ProjectStatus.BeforeFinalizationCheck,\r\n            \"The project is not in the 'BeforeFinalizationCheck' status, the operation cannot be done.\"\r\n        );\r\n\r\n        S_Request storage request = supervisorRequests[indexSupervisorRequest];\r\n        request.description = _description;\r\n        request.status = RequestStatus.Unverified;\r\n        request.project = _project;\r\n        request.subjectAddress = _subjectAddress;\r\n\r\n        emit UpdateSupervisorRequestStatus(indexSupervisorRequest, RequestStatus.Unverified, _project, _project.projectStatus, _subjectAddress);\r\n        indexSupervisorRequest++;\r\n    }\r\n\r\n    function requestStartProjectToCompanyBuilder(string memory _description, S_Project memory _project, address _subjectAddress) public {\r\n        require(_project.projectStatus == ProjectStatus.Approved, \"The project is not approved, the operation cannot be done.\");\r\n\r\n        S_Request storage request = companyRequests[indexCompanyRequest];\r\n        request.description = _description;\r\n        request.status = RequestStatus.Unverified;\r\n        request.project = _project;\r\n        request.subjectAddress = _subjectAddress;\r\n\r\n        emit UpdateCompanyRequestStatus(indexCompanyRequest, RequestStatus.Unverified, _project, _project.projectStatus, _subjectAddress);\r\n        indexCompanyRequest++;\r\n    }\r\n}",
  "sourcePath": "/mnt/c/users/beniamin/source/repos/dissertationproject/contracts/Project.sol",
  "compiler": {
    "name": "solc",
    "version": "0.8.10+commit.fc410830.Emscripten.clang"
  },
  "schemaVersion": "3.4.3",
  "updatedAt": "2021-11-18T19:12:22.468Z",
  "networkType": "ethereum",
  "devdoc": {
    "kind": "dev",
    "methods": {},
    "version": 1
  },
  "userdoc": {
    "kind": "user",
    "methods": {},
    "version": 1
  }
}