{
  "contractName": "ProjectChain",
  "abi": [
    {
      "inputs": [],
      "stateMutability": "nonpayable",
      "type": "constructor"
    },
    {
      "anonymous": false,
      "inputs": [
        {
          "components": [
            {
              "internalType": "uint256",
              "name": "_index",
              "type": "uint256"
            },
            {
              "internalType": "string",
              "name": "_name",
              "type": "string"
            },
            {
              "internalType": "enum SharedChain.ProjectStatus",
              "name": "_status",
              "type": "uint8"
            },
            {
              "internalType": "string",
              "name": "_ipfsFileCID",
              "type": "string"
            },
            {
              "internalType": "address",
              "name": "_projectAddress",
              "type": "address"
            },
            {
              "internalType": "address",
              "name": "_signerAddress",
              "type": "address"
            },
            {
              "internalType": "uint256",
              "name": "_timestamp",
              "type": "uint256"
            },
            {
              "internalType": "string",
              "name": "_signature",
              "type": "string"
            }
          ],
          "indexed": false,
          "internalType": "struct SharedChain.Project",
          "name": "_project",
          "type": "tuple"
        },
        {
          "indexed": true,
          "internalType": "address",
          "name": "_projectAddress",
          "type": "address"
        }
      ],
      "name": "ProjectEvent",
      "type": "event"
    },
    {
      "anonymous": false,
      "inputs": [
        {
          "components": [
            {
              "internalType": "uint256",
              "name": "_index",
              "type": "uint256"
            },
            {
              "internalType": "string",
              "name": "_title",
              "type": "string"
            },
            {
              "internalType": "string",
              "name": "_comments",
              "type": "string"
            },
            {
              "internalType": "enum SharedChain.ProjectStatus",
              "name": "_projectStatus",
              "type": "uint8"
            },
            {
              "internalType": "enum SharedChain.RequestStatus",
              "name": "_requestStatus",
              "type": "uint8"
            },
            {
              "internalType": "enum SharedChain.RequestType",
              "name": "_requestType",
              "type": "uint8"
            },
            {
              "internalType": "address",
              "name": "_projectAddress",
              "type": "address"
            },
            {
              "internalType": "address",
              "name": "_requestAddress",
              "type": "address"
            },
            {
              "internalType": "address",
              "name": "_signerAddress",
              "type": "address"
            },
            {
              "internalType": "uint256",
              "name": "_timestamp",
              "type": "uint256"
            },
            {
              "internalType": "string",
              "name": "_signature",
              "type": "string"
            }
          ],
          "indexed": false,
          "internalType": "struct SharedChain.Request",
          "name": "_request",
          "type": "tuple"
        },
        {
          "indexed": true,
          "internalType": "address",
          "name": "_requestAddress",
          "type": "address"
        },
        {
          "indexed": true,
          "internalType": "address",
          "name": "_projectAddress",
          "type": "address"
        }
      ],
      "name": "RequestEvent",
      "type": "event"
    },
    {
      "anonymous": false,
      "inputs": [
        {
          "components": [
            {
              "internalType": "uint256",
              "name": "_index",
              "type": "uint256"
            },
            {
              "internalType": "string",
              "name": "_username",
              "type": "string"
            },
            {
              "internalType": "bytes32",
              "name": "_email",
              "type": "bytes32"
            },
            {
              "internalType": "bytes32",
              "name": "_firstname",
              "type": "bytes32"
            },
            {
              "internalType": "bytes32",
              "name": "_lastname",
              "type": "bytes32"
            },
            {
              "internalType": "enum SharedChain.Roles",
              "name": "_role",
              "type": "uint8"
            },
            {
              "internalType": "address",
              "name": "_walletAddress",
              "type": "address"
            },
            {
              "internalType": "uint256",
              "name": "_timestamp",
              "type": "uint256"
            },
            {
              "internalType": "string",
              "name": "_signature",
              "type": "string"
            }
          ],
          "indexed": false,
          "internalType": "struct SharedChain.User",
          "name": "_user",
          "type": "tuple"
        },
        {
          "indexed": true,
          "internalType": "address",
          "name": "_walletAddress",
          "type": "address"
        }
      ],
      "name": "UserEvent",
      "type": "event"
    },
    {
      "inputs": [
        {
          "internalType": "address",
          "name": "",
          "type": "address"
        }
      ],
      "name": "projects",
      "outputs": [
        {
          "internalType": "uint256",
          "name": "_index",
          "type": "uint256"
        },
        {
          "internalType": "string",
          "name": "_name",
          "type": "string"
        },
        {
          "internalType": "enum SharedChain.ProjectStatus",
          "name": "_status",
          "type": "uint8"
        },
        {
          "internalType": "string",
          "name": "_ipfsFileCID",
          "type": "string"
        },
        {
          "internalType": "address",
          "name": "_projectAddress",
          "type": "address"
        },
        {
          "internalType": "address",
          "name": "_signerAddress",
          "type": "address"
        },
        {
          "internalType": "uint256",
          "name": "_timestamp",
          "type": "uint256"
        },
        {
          "internalType": "string",
          "name": "_signature",
          "type": "string"
        }
      ],
      "stateMutability": "view",
      "type": "function",
      "constant": true
    },
    {
      "inputs": [
        {
          "internalType": "uint256",
          "name": "",
          "type": "uint256"
        }
      ],
      "name": "projectsAddress",
      "outputs": [
        {
          "internalType": "address",
          "name": "",
          "type": "address"
        }
      ],
      "stateMutability": "view",
      "type": "function",
      "constant": true
    },
    {
      "inputs": [],
      "name": "projectsCounter",
      "outputs": [
        {
          "internalType": "uint256",
          "name": "",
          "type": "uint256"
        }
      ],
      "stateMutability": "view",
      "type": "function",
      "constant": true
    },
    {
      "inputs": [
        {
          "internalType": "address",
          "name": "",
          "type": "address"
        }
      ],
      "name": "requests",
      "outputs": [
        {
          "internalType": "uint256",
          "name": "_index",
          "type": "uint256"
        },
        {
          "internalType": "string",
          "name": "_title",
          "type": "string"
        },
        {
          "internalType": "string",
          "name": "_comments",
          "type": "string"
        },
        {
          "internalType": "enum SharedChain.ProjectStatus",
          "name": "_projectStatus",
          "type": "uint8"
        },
        {
          "internalType": "enum SharedChain.RequestStatus",
          "name": "_requestStatus",
          "type": "uint8"
        },
        {
          "internalType": "enum SharedChain.RequestType",
          "name": "_requestType",
          "type": "uint8"
        },
        {
          "internalType": "address",
          "name": "_projectAddress",
          "type": "address"
        },
        {
          "internalType": "address",
          "name": "_requestAddress",
          "type": "address"
        },
        {
          "internalType": "address",
          "name": "_signerAddress",
          "type": "address"
        },
        {
          "internalType": "uint256",
          "name": "_timestamp",
          "type": "uint256"
        },
        {
          "internalType": "string",
          "name": "_signature",
          "type": "string"
        }
      ],
      "stateMutability": "view",
      "type": "function",
      "constant": true
    },
    {
      "inputs": [
        {
          "internalType": "uint256",
          "name": "",
          "type": "uint256"
        }
      ],
      "name": "requestsAddress",
      "outputs": [
        {
          "internalType": "address",
          "name": "",
          "type": "address"
        }
      ],
      "stateMutability": "view",
      "type": "function",
      "constant": true
    },
    {
      "inputs": [],
      "name": "requestsCounter",
      "outputs": [
        {
          "internalType": "uint256",
          "name": "",
          "type": "uint256"
        }
      ],
      "stateMutability": "view",
      "type": "function",
      "constant": true
    },
    {
      "inputs": [
        {
          "internalType": "string",
          "name": "_name",
          "type": "string"
        },
        {
          "internalType": "uint256",
          "name": "_index",
          "type": "uint256"
        }
      ],
      "name": "createUniqueProjectAddress",
      "outputs": [
        {
          "internalType": "address",
          "name": "",
          "type": "address"
        }
      ],
      "stateMutability": "view",
      "type": "function",
      "constant": true
    },
    {
      "inputs": [
        {
          "internalType": "address",
          "name": "_projectAddress",
          "type": "address"
        },
        {
          "internalType": "string",
          "name": "_name",
          "type": "string"
        },
        {
          "internalType": "uint256",
          "name": "_status",
          "type": "uint256"
        },
        {
          "internalType": "string",
          "name": "_ipfsFileCID",
          "type": "string"
        },
        {
          "internalType": "string",
          "name": "_signature",
          "type": "string"
        }
      ],
      "name": "createProject",
      "outputs": [],
      "stateMutability": "nonpayable",
      "type": "function"
    },
    {
      "inputs": [
        {
          "internalType": "address",
          "name": "_projectAddress",
          "type": "address"
        },
        {
          "internalType": "string",
          "name": "_ipfsFileCID",
          "type": "string"
        },
        {
          "internalType": "string",
          "name": "_signature",
          "type": "string"
        }
      ],
      "name": "updateProject",
      "outputs": [],
      "stateMutability": "nonpayable",
      "type": "function"
    },
    {
      "inputs": [
        {
          "internalType": "address",
          "name": "_address",
          "type": "address"
        }
      ],
      "name": "getProjectInfo",
      "outputs": [
        {
          "components": [
            {
              "internalType": "uint256",
              "name": "_index",
              "type": "uint256"
            },
            {
              "internalType": "string",
              "name": "_name",
              "type": "string"
            },
            {
              "internalType": "enum SharedChain.ProjectStatus",
              "name": "_status",
              "type": "uint8"
            },
            {
              "internalType": "string",
              "name": "_ipfsFileCID",
              "type": "string"
            },
            {
              "internalType": "address",
              "name": "_projectAddress",
              "type": "address"
            },
            {
              "internalType": "address",
              "name": "_signerAddress",
              "type": "address"
            },
            {
              "internalType": "uint256",
              "name": "_timestamp",
              "type": "uint256"
            },
            {
              "internalType": "string",
              "name": "_signature",
              "type": "string"
            }
          ],
          "internalType": "struct SharedChain.Project",
          "name": "",
          "type": "tuple"
        }
      ],
      "stateMutability": "view",
      "type": "function",
      "constant": true
    },
    {
      "inputs": [
        {
          "internalType": "address",
          "name": "_signerAddress",
          "type": "address"
        }
      ],
      "name": "getUserProjects",
      "outputs": [
        {
          "components": [
            {
              "internalType": "uint256",
              "name": "_index",
              "type": "uint256"
            },
            {
              "internalType": "string",
              "name": "_name",
              "type": "string"
            },
            {
              "internalType": "enum SharedChain.ProjectStatus",
              "name": "_status",
              "type": "uint8"
            },
            {
              "internalType": "string",
              "name": "_ipfsFileCID",
              "type": "string"
            },
            {
              "internalType": "address",
              "name": "_projectAddress",
              "type": "address"
            },
            {
              "internalType": "address",
              "name": "_signerAddress",
              "type": "address"
            },
            {
              "internalType": "uint256",
              "name": "_timestamp",
              "type": "uint256"
            },
            {
              "internalType": "string",
              "name": "_signature",
              "type": "string"
            }
          ],
          "internalType": "struct SharedChain.Project[]",
          "name": "",
          "type": "tuple[]"
        }
      ],
      "stateMutability": "view",
      "type": "function",
      "constant": true
    },
    {
      "inputs": [],
      "name": "getAllProjects",
      "outputs": [
        {
          "components": [
            {
              "internalType": "uint256",
              "name": "_index",
              "type": "uint256"
            },
            {
              "internalType": "string",
              "name": "_name",
              "type": "string"
            },
            {
              "internalType": "enum SharedChain.ProjectStatus",
              "name": "_status",
              "type": "uint8"
            },
            {
              "internalType": "string",
              "name": "_ipfsFileCID",
              "type": "string"
            },
            {
              "internalType": "address",
              "name": "_projectAddress",
              "type": "address"
            },
            {
              "internalType": "address",
              "name": "_signerAddress",
              "type": "address"
            },
            {
              "internalType": "uint256",
              "name": "_timestamp",
              "type": "uint256"
            },
            {
              "internalType": "string",
              "name": "_signature",
              "type": "string"
            }
          ],
          "internalType": "struct SharedChain.Project[]",
          "name": "",
          "type": "tuple[]"
        }
      ],
      "stateMutability": "view",
      "type": "function",
      "constant": true
    },
    {
      "inputs": [
        {
          "internalType": "string",
          "name": "_title",
          "type": "string"
        },
        {
          "internalType": "uint256",
          "name": "_index",
          "type": "uint256"
        }
      ],
      "name": "createUniqueRequestAddress",
      "outputs": [
        {
          "internalType": "address",
          "name": "",
          "type": "address"
        }
      ],
      "stateMutability": "view",
      "type": "function",
      "constant": true
    },
    {
      "inputs": [
        {
          "internalType": "string",
          "name": "_title",
          "type": "string"
        },
        {
          "internalType": "uint256",
          "name": "_projectStatus",
          "type": "uint256"
        },
        {
          "internalType": "uint256",
          "name": "_requestStatus",
          "type": "uint256"
        },
        {
          "internalType": "address",
          "name": "_projectAddress",
          "type": "address"
        },
        {
          "internalType": "address",
          "name": "_requestAddress",
          "type": "address"
        },
        {
          "internalType": "string",
          "name": "_signature",
          "type": "string"
        }
      ],
      "name": "createRequest",
      "outputs": [],
      "stateMutability": "nonpayable",
      "type": "function"
    },
    {
      "inputs": [
        {
          "internalType": "string",
          "name": "_comments",
          "type": "string"
        },
        {
          "internalType": "uint256",
          "name": "_requestStatus",
          "type": "uint256"
        },
        {
          "internalType": "uint256",
          "name": "_projectStatus",
          "type": "uint256"
        },
        {
          "internalType": "address",
          "name": "_projectAddress",
          "type": "address"
        },
        {
          "internalType": "address",
          "name": "_requestAddress",
          "type": "address"
        },
        {
          "internalType": "string",
          "name": "_signature",
          "type": "string"
        }
      ],
      "name": "updateRequest",
      "outputs": [],
      "stateMutability": "nonpayable",
      "type": "function"
    },
    {
      "inputs": [],
      "name": "getAllRequests",
      "outputs": [
        {
          "components": [
            {
              "internalType": "uint256",
              "name": "_index",
              "type": "uint256"
            },
            {
              "internalType": "string",
              "name": "_title",
              "type": "string"
            },
            {
              "internalType": "string",
              "name": "_comments",
              "type": "string"
            },
            {
              "internalType": "enum SharedChain.ProjectStatus",
              "name": "_projectStatus",
              "type": "uint8"
            },
            {
              "internalType": "enum SharedChain.RequestStatus",
              "name": "_requestStatus",
              "type": "uint8"
            },
            {
              "internalType": "enum SharedChain.RequestType",
              "name": "_requestType",
              "type": "uint8"
            },
            {
              "internalType": "address",
              "name": "_projectAddress",
              "type": "address"
            },
            {
              "internalType": "address",
              "name": "_requestAddress",
              "type": "address"
            },
            {
              "internalType": "address",
              "name": "_signerAddress",
              "type": "address"
            },
            {
              "internalType": "uint256",
              "name": "_timestamp",
              "type": "uint256"
            },
            {
              "internalType": "string",
              "name": "_signature",
              "type": "string"
            }
          ],
          "internalType": "struct SharedChain.Request[]",
          "name": "",
          "type": "tuple[]"
        }
      ],
      "stateMutability": "view",
      "type": "function",
      "constant": true
    },
    {
      "inputs": [
        {
          "internalType": "address",
          "name": "_projectAddress",
          "type": "address"
        },
        {
          "internalType": "address",
          "name": "_requestAddress",
          "type": "address"
        }
      ],
      "name": "getLastProjectRequest",
      "outputs": [
        {
          "components": [
            {
              "internalType": "uint256",
              "name": "_index",
              "type": "uint256"
            },
            {
              "internalType": "string",
              "name": "_title",
              "type": "string"
            },
            {
              "internalType": "string",
              "name": "_comments",
              "type": "string"
            },
            {
              "internalType": "enum SharedChain.ProjectStatus",
              "name": "_projectStatus",
              "type": "uint8"
            },
            {
              "internalType": "enum SharedChain.RequestStatus",
              "name": "_requestStatus",
              "type": "uint8"
            },
            {
              "internalType": "enum SharedChain.RequestType",
              "name": "_requestType",
              "type": "uint8"
            },
            {
              "internalType": "address",
              "name": "_projectAddress",
              "type": "address"
            },
            {
              "internalType": "address",
              "name": "_requestAddress",
              "type": "address"
            },
            {
              "internalType": "address",
              "name": "_signerAddress",
              "type": "address"
            },
            {
              "internalType": "uint256",
              "name": "_timestamp",
              "type": "uint256"
            },
            {
              "internalType": "string",
              "name": "_signature",
              "type": "string"
            }
          ],
          "internalType": "struct SharedChain.Request",
          "name": "",
          "type": "tuple"
        }
      ],
      "stateMutability": "view",
      "type": "function",
      "constant": true
    }
  ],
  "bytecode": "0x60806040526000600355600060065534801561001a57600080fd5b50336000806101000a81548173ffffffffffffffffffffffffffffffffffffffff021916908373ffffffffffffffffffffffffffffffffffffffff1602179055506141fe8061006a6000396000f3fe608060405234801561001057600080fd5b506004361061010b5760003560e01c806380d03829116100a2578063e1592c0d11610071578063e1592c0d14610315578063e32e723c14610331578063e617385f14610361578063fb1a002a1461037d578063fe360ea51461039b5761010b565b806380d0382914610288578063840e78fd146102a657806384485563146102dd57806387edbec7146102f95761010b565b806356a3eead116100de57806356a3eead146101d0578063663c22691461020057806374adad1d1461021e57806376c932e0146102585761010b565b8063191e1645146101105780633b4ec4f814610140578063448847101461017057806347ee45b9146101a0575b600080fd5b61012a60048036038101906101259190612e8c565b6103b9565b6040516101379190612f29565b60405180910390f35b61015a60048036038101906101559190612e8c565b610411565b6040516101679190612f29565b60405180910390f35b61018a60048036038101906101859190612f70565b610469565b604051610197919061325a565b60405180910390f35b6101ba60048036038101906101b5919061327c565b6108f0565b6040516101c79190613367565b60405180910390f35b6101ea60048036038101906101e59190613389565b610c6b565b6040516101f79190612f29565b60405180910390f35b610208610caa565b60405161021591906133c5565b60405180910390f35b6102386004803603810190610233919061327c565b610cb0565b60405161024f9b9a99989796959493929190613457565b60405180910390f35b610272600480360381019061026d9190613389565b610f29565b60405161027f9190612f29565b60405180910390f35b610290610f68565b60405161029d9190613697565b60405180910390f35b6102c060048036038101906102bb919061327c565b611364565b6040516102d49897969594939291906136b9565b60405180910390f35b6102f760048036038101906102f2919061374c565b611591565b005b610313600480360381019061030e919061381b565b6118b6565b005b61032f600480360381019061032a91906138e0565b611bd2565b005b61034b6004803603810190610346919061327c565b611d11565b6040516103589190613697565b60405180910390f35b61037b6004803603810190610376919061381b565b6121a6565b005b61038561264a565b6040516103929190613b2a565b60405180910390f35b6103a3612afe565b6040516103b091906133c5565b60405180910390f35b60008260008054906101000a900473ffffffffffffffffffffffffffffffffffffffff16836040516020016103f093929190613bf1565b6040516020818303038152906040528051906020012060001c905092915050565b60008260008054906101000a900473ffffffffffffffffffffffffffffffffffffffff168360405160200161044893929190613bf1565b6040516020818303038152906040528051906020012060001c905092915050565b610471612b04565b610479612b04565b600060065411156108e6578373ffffffffffffffffffffffffffffffffffffffff16600560008573ffffffffffffffffffffffffffffffffffffffff1673ffffffffffffffffffffffffffffffffffffffff16815260200190815260200160002060030160039054906101000a900473ffffffffffffffffffffffffffffffffffffffff1673ffffffffffffffffffffffffffffffffffffffff1614156108e557600560008473ffffffffffffffffffffffffffffffffffffffff1673ffffffffffffffffffffffffffffffffffffffff168152602001908152602001600020604051806101600160405290816000820154815260200160018201805461057f90613c59565b80601f01602080910402602001604051908101604052809291908181526020018280546105ab90613c59565b80156105f85780601f106105cd576101008083540402835291602001916105f8565b820191906000526020600020905b8154815290600101906020018083116105db57829003601f168201915b5050505050815260200160028201805461061190613c59565b80601f016020809104026020016040519081016040528092919081815260200182805461063d90613c59565b801561068a5780601f1061065f5761010080835404028352916020019161068a565b820191906000526020600020905b81548152906001019060200180831161066d57829003601f168201915b505050505081526020016003820160009054906101000a900460ff1660048111156106b8576106b7613047565b5b60048111156106ca576106c9613047565b5b81526020016003820160019054906101000a900460ff1660028111156106f3576106f2613047565b5b600281111561070557610704613047565b5b81526020016003820160029054906101000a900460ff16600181111561072e5761072d613047565b5b60018111156107405761073f613047565b5b81526020016003820160039054906101000a900473ffffffffffffffffffffffffffffffffffffffff1673ffffffffffffffffffffffffffffffffffffffff1673ffffffffffffffffffffffffffffffffffffffff1681526020016004820160009054906101000a900473ffffffffffffffffffffffffffffffffffffffff1673ffffffffffffffffffffffffffffffffffffffff1673ffffffffffffffffffffffffffffffffffffffff1681526020016005820160009054906101000a900473ffffffffffffffffffffffffffffffffffffffff1673ffffffffffffffffffffffffffffffffffffffff1673ffffffffffffffffffffffffffffffffffffffff1681526020016006820154815260200160078201805461086090613c59565b80601f016020809104026020016040519081016040528092919081815260200182805461088c90613c59565b80156108d95780601f106108ae576101008083540402835291602001916108d9565b820191906000526020600020905b8154815290600101906020018083116108bc57829003601f168201915b50505050508152505090505b5b8091505092915050565b6108f8612bd6565b600073ffffffffffffffffffffffffffffffffffffffff163373ffffffffffffffffffffffffffffffffffffffff161415610968576040517f08c379a000000000000000000000000000000000000000000000000000000000815260040161095f90613cd7565b60405180910390fd5b600260008373ffffffffffffffffffffffffffffffffffffffff1673ffffffffffffffffffffffffffffffffffffffff16815260200190815260200160002060405180610100016040529081600082015481526020016001820180546109cd90613c59565b80601f01602080910402602001604051908101604052809291908181526020018280546109f990613c59565b8015610a465780601f10610a1b57610100808354040283529160200191610a46565b820191906000526020600020905b815481529060010190602001808311610a2957829003601f168201915b505050505081526020016002820160009054906101000a900460ff166004811115610a7457610a73613047565b5b6004811115610a8657610a85613047565b5b8152602001600382018054610a9a90613c59565b80601f0160208091040260200160405190810160405280929190818152602001828054610ac690613c59565b8015610b135780601f10610ae857610100808354040283529160200191610b13565b820191906000526020600020905b815481529060010190602001808311610af657829003601f168201915b505050505081526020016004820160009054906101000a900473ffffffffffffffffffffffffffffffffffffffff1673ffffffffffffffffffffffffffffffffffffffff1673ffffffffffffffffffffffffffffffffffffffff1681526020016005820160009054906101000a900473ffffffffffffffffffffffffffffffffffffffff1673ffffffffffffffffffffffffffffffffffffffff1673ffffffffffffffffffffffffffffffffffffffff16815260200160068201548152602001600782018054610be290613c59565b80601f0160208091040260200160405190810160405280929190818152602001828054610c0e90613c59565b8015610c5b5780601f10610c3057610100808354040283529160200191610c5b565b820191906000526020600020905b815481529060010190602001808311610c3e57829003601f168201915b5050505050815250509050919050565b60078181548110610c7b57600080fd5b906000526020600020016000915054906101000a900473ffffffffffffffffffffffffffffffffffffffff1681565b60065481565b6005602052806000526040600020600091509050806000015490806001018054610cd990613c59565b80601f0160208091040260200160405190810160405280929190818152602001828054610d0590613c59565b8015610d525780601f10610d2757610100808354040283529160200191610d52565b820191906000526020600020905b815481529060010190602001808311610d3557829003601f168201915b505050505090806002018054610d6790613c59565b80601f0160208091040260200160405190810160405280929190818152602001828054610d9390613c59565b8015610de05780601f10610db557610100808354040283529160200191610de0565b820191906000526020600020905b815481529060010190602001808311610dc357829003601f168201915b5050505050908060030160009054906101000a900460ff16908060030160019054906101000a900460ff16908060030160029054906101000a900460ff16908060030160039054906101000a900473ffffffffffffffffffffffffffffffffffffffff16908060040160009054906101000a900473ffffffffffffffffffffffffffffffffffffffff16908060050160009054906101000a900473ffffffffffffffffffffffffffffffffffffffff1690806006015490806007018054610ea690613c59565b80601f0160208091040260200160405190810160405280929190818152602001828054610ed290613c59565b8015610f1f5780601f10610ef457610100808354040283529160200191610f1f565b820191906000526020600020905b815481529060010190602001808311610f0257829003601f168201915b505050505090508b565b60048181548110610f3957600080fd5b906000526020600020016000915054906101000a900473ffffffffffffffffffffffffffffffffffffffff1681565b60608060006003541415610f7f5780915050611361565b60035467ffffffffffffffff811115610f9b57610f9a612d2b565b5b604051908082528060200260200182016040528015610fd457816020015b610fc1612bd6565b815260200190600190039081610fb95790505b50905060005b60035481101561135b57600060048281548110610ffa57610ff9613cf7565b5b9060005260206000200160009054906101000a900473ffffffffffffffffffffffffffffffffffffffff1690506000600260008373ffffffffffffffffffffffffffffffffffffffff1673ffffffffffffffffffffffffffffffffffffffff168152602001908152602001600020905080604051806101000160405290816000820154815260200160018201805461109190613c59565b80601f01602080910402602001604051908101604052809291908181526020018280546110bd90613c59565b801561110a5780601f106110df5761010080835404028352916020019161110a565b820191906000526020600020905b8154815290600101906020018083116110ed57829003601f168201915b505050505081526020016002820160009054906101000a900460ff16600481111561113857611137613047565b5b600481111561114a57611149613047565b5b815260200160038201805461115e90613c59565b80601f016020809104026020016040519081016040528092919081815260200182805461118a90613c59565b80156111d75780601f106111ac576101008083540402835291602001916111d7565b820191906000526020600020905b8154815290600101906020018083116111ba57829003601f168201915b505050505081526020016004820160009054906101000a900473ffffffffffffffffffffffffffffffffffffffff1673ffffffffffffffffffffffffffffffffffffffff1673ffffffffffffffffffffffffffffffffffffffff1681526020016005820160009054906101000a900473ffffffffffffffffffffffffffffffffffffffff1673ffffffffffffffffffffffffffffffffffffffff1673ffffffffffffffffffffffffffffffffffffffff168152602001600682015481526020016007820180546112a690613c59565b80601f01602080910402602001604051908101604052809291908181526020018280546112d290613c59565b801561131f5780601f106112f45761010080835404028352916020019161131f565b820191906000526020600020905b81548152906001019060200180831161130257829003601f168201915b50505050508152505084848151811061133b5761133a613cf7565b5b60200260200101819052505050808061135390613d55565b915050610fda565b50809150505b90565b600260205280600052604060002060009150905080600001549080600101805461138d90613c59565b80601f01602080910402602001604051908101604052809291908181526020018280546113b990613c59565b80156114065780601f106113db57610100808354040283529160200191611406565b820191906000526020600020905b8154815290600101906020018083116113e957829003601f168201915b5050505050908060020160009054906101000a900460ff169080600301805461142e90613c59565b80601f016020809104026020016040519081016040528092919081815260200182805461145a90613c59565b80156114a75780601f1061147c576101008083540402835291602001916114a7565b820191906000526020600020905b81548152906001019060200180831161148a57829003601f168201915b5050505050908060040160009054906101000a900473ffffffffffffffffffffffffffffffffffffffff16908060050160009054906101000a900473ffffffffffffffffffffffffffffffffffffffff169080600601549080600701805461150e90613c59565b80601f016020809104026020016040519081016040528092919081815260200182805461153a90613c59565b80156115875780601f1061155c57610100808354040283529160200191611587565b820191906000526020600020905b81548152906001019060200180831161156a57829003601f168201915b5050505050905088565b60405180610100016040528060035481526020018581526020018460048111156115be576115bd613047565b5b60048111156115d0576115cf613047565b5b81526020018381526020018673ffffffffffffffffffffffffffffffffffffffff16815260200160008054906101000a900473ffffffffffffffffffffffffffffffffffffffff1673ffffffffffffffffffffffffffffffffffffffff16815260200142815260200182815250600260008773ffffffffffffffffffffffffffffffffffffffff1673ffffffffffffffffffffffffffffffffffffffff1681526020019081526020016000206000820151816000015560208201518160010190805190602001906116a2929190612c59565b5060408201518160020160006101000a81548160ff021916908360048111156116ce576116cd613047565b5b021790555060608201518160030190805190602001906116ef929190612c59565b5060808201518160040160006101000a81548173ffffffffffffffffffffffffffffffffffffffff021916908373ffffffffffffffffffffffffffffffffffffffff16021790555060a08201518160050160006101000a81548173ffffffffffffffffffffffffffffffffffffffff021916908373ffffffffffffffffffffffffffffffffffffffff16021790555060c0820151816006015560e08201518160070190805190602001906117a4929190612c59565b509050508473ffffffffffffffffffffffffffffffffffffffff167fac85378acf27ea180ea9b66d81dac89bcc984812edf7111c9413f708da4ca37a600260008873ffffffffffffffffffffffffffffffffffffffff1673ffffffffffffffffffffffffffffffffffffffff16815260200190815260200160002060405161182c9190613fb9565b60405180910390a26004859080600181540180825580915050600190039060005260206000200160009091909190916101000a81548173ffffffffffffffffffffffffffffffffffffffff021916908373ffffffffffffffffffffffffffffffffffffffff160217905550600360008154809291906118aa90613d55565b91905055505050505050565b85600560008473ffffffffffffffffffffffffffffffffffffffff1673ffffffffffffffffffffffffffffffffffffffff168152602001908152602001600020600201908051906020019061190c929190612c59565b508460028111156119205761191f613047565b5b600560008473ffffffffffffffffffffffffffffffffffffffff1673ffffffffffffffffffffffffffffffffffffffff16815260200190815260200160002060030160016101000a81548160ff0219169083600281111561198457611983613047565b5b021790555080600560008473ffffffffffffffffffffffffffffffffffffffff1673ffffffffffffffffffffffffffffffffffffffff16815260200190815260200160002060070190805190602001906119df929190612c59565b508273ffffffffffffffffffffffffffffffffffffffff168273ffffffffffffffffffffffffffffffffffffffff167fa25a6f1ff57a050a48ae4b3a19f271fddad950cac8d165d6a2eca5d54cc8070f600560008673ffffffffffffffffffffffffffffffffffffffff1673ffffffffffffffffffffffffffffffffffffffff168152602001908152602001600020604051611a7b91906141a6565b60405180910390a3846002811115611a9657611a95613047565b5b6002811115611aa857611aa7613047565b5b600280811115611abb57611aba613047565b5b1415611bca57836004811115611ad457611ad3613047565b5b600260008573ffffffffffffffffffffffffffffffffffffffff1673ffffffffffffffffffffffffffffffffffffffff16815260200190815260200160002060020160006101000a81548160ff02191690836004811115611b3857611b37613047565b5b02179055508273ffffffffffffffffffffffffffffffffffffffff167fac85378acf27ea180ea9b66d81dac89bcc984812edf7111c9413f708da4ca37a600260008673ffffffffffffffffffffffffffffffffffffffff1673ffffffffffffffffffffffffffffffffffffffff168152602001908152602001600020604051611bc19190613fb9565b60405180910390a25b505050505050565b81600260008573ffffffffffffffffffffffffffffffffffffffff1673ffffffffffffffffffffffffffffffffffffffff1681526020019081526020016000206003019080519060200190611c28929190612c59565b5080600260008573ffffffffffffffffffffffffffffffffffffffff1673ffffffffffffffffffffffffffffffffffffffff1681526020019081526020016000206007019080519060200190611c7f929190612c59565b508273ffffffffffffffffffffffffffffffffffffffff167fac85378acf27ea180ea9b66d81dac89bcc984812edf7111c9413f708da4ca37a600260008673ffffffffffffffffffffffffffffffffffffffff1673ffffffffffffffffffffffffffffffffffffffff168152602001908152602001600020604051611d049190613fb9565b60405180910390a2505050565b60608060006003541415611d2857809150506121a1565b60035467ffffffffffffffff811115611d4457611d43612d2b565b5b604051908082528060200260200182016040528015611d7d57816020015b611d6a612bd6565b815260200190600190039081611d625790505b50905060005b60035481101561219b57600060048281548110611da357611da2613cf7565b5b9060005260206000200160009054906101000a900473ffffffffffffffffffffffffffffffffffffffff169050600260008273ffffffffffffffffffffffffffffffffffffffff1673ffffffffffffffffffffffffffffffffffffffff16815260200190815260200160002060050160009054906101000a900473ffffffffffffffffffffffffffffffffffffffff1673ffffffffffffffffffffffffffffffffffffffff168573ffffffffffffffffffffffffffffffffffffffff161415612187576000600260008373ffffffffffffffffffffffffffffffffffffffff1673ffffffffffffffffffffffffffffffffffffffff1681526020019081526020016000209050806040518061010001604052908160008201548152602001600182018054611ed090613c59565b80601f0160208091040260200160405190810160405280929190818152602001828054611efc90613c59565b8015611f495780601f10611f1e57610100808354040283529160200191611f49565b820191906000526020600020905b815481529060010190602001808311611f2c57829003601f168201915b505050505081526020016002820160009054906101000a900460ff166004811115611f7757611f76613047565b5b6004811115611f8957611f88613047565b5b8152602001600382018054611f9d90613c59565b80601f0160208091040260200160405190810160405280929190818152602001828054611fc990613c59565b80156120165780601f10611feb57610100808354040283529160200191612016565b820191906000526020600020905b815481529060010190602001808311611ff957829003601f168201915b505050505081526020016004820160009054906101000a900473ffffffffffffffffffffffffffffffffffffffff1673ffffffffffffffffffffffffffffffffffffffff1673ffffffffffffffffffffffffffffffffffffffff1681526020016005820160009054906101000a900473ffffffffffffffffffffffffffffffffffffffff1673ffffffffffffffffffffffffffffffffffffffff1673ffffffffffffffffffffffffffffffffffffffff168152602001600682015481526020016007820180546120e590613c59565b80601f016020809104026020016040519081016040528092919081815260200182805461211190613c59565b801561215e5780601f106121335761010080835404028352916020019161215e565b820191906000526020600020905b81548152906001019060200180831161214157829003601f168201915b50505050508152505084848151811061217a57612179613cf7565b5b6020026020010181905250505b50808061219390613d55565b915050611d83565b50809150505b919050565b6000600260048111156121bc576121bb613047565b5b8660048111156121cf576121ce613047565b5b60048111156121e1576121e0613047565b5b14156121f057600190506121f5565b600090505b604051806101600160405280600654815260200188815260200160405180602001604052806000815250815260200187600481111561223757612236613047565b5b600481111561224957612248613047565b5b815260200186600281111561226157612260613047565b5b600281111561227357612272613047565b5b815260200182600181111561228b5761228a613047565b5b81526020018573ffffffffffffffffffffffffffffffffffffffff1681526020018473ffffffffffffffffffffffffffffffffffffffff16815260200160008054906101000a900473ffffffffffffffffffffffffffffffffffffffff1673ffffffffffffffffffffffffffffffffffffffff16815260200142815260200183815250600560008573ffffffffffffffffffffffffffffffffffffffff1673ffffffffffffffffffffffffffffffffffffffff168152602001908152602001600020600082015181600001556020820151816001019080519060200190612373929190612c59565b506040820151816002019080519060200190612390929190612c59565b5060608201518160030160006101000a81548160ff021916908360048111156123bc576123bb613047565b5b021790555060808201518160030160016101000a81548160ff021916908360028111156123ec576123eb613047565b5b021790555060a08201518160030160026101000a81548160ff0219169083600181111561241c5761241b613047565b5b021790555060c08201518160030160036101000a81548173ffffffffffffffffffffffffffffffffffffffff021916908373ffffffffffffffffffffffffffffffffffffffff16021790555060e08201518160040160006101000a81548173ffffffffffffffffffffffffffffffffffffffff021916908373ffffffffffffffffffffffffffffffffffffffff1602179055506101008201518160050160006101000a81548173ffffffffffffffffffffffffffffffffffffffff021916908373ffffffffffffffffffffffffffffffffffffffff160217905550610120820151816006015561014082015181600701908051906020019061251f929190612c59565b509050508373ffffffffffffffffffffffffffffffffffffffff168373ffffffffffffffffffffffffffffffffffffffff167fa25a6f1ff57a050a48ae4b3a19f271fddad950cac8d165d6a2eca5d54cc8070f600560008773ffffffffffffffffffffffffffffffffffffffff1673ffffffffffffffffffffffffffffffffffffffff1681526020019081526020016000206040516125be91906141a6565b60405180910390a36007839080600181540180825580915050600190039060005260206000200160009091909190916101000a81548173ffffffffffffffffffffffffffffffffffffffff021916908373ffffffffffffffffffffffffffffffffffffffff1602179055506006600081548092919061263c90613d55565b919050555050505050505050565b6060600060065467ffffffffffffffff81111561266a57612669612d2b565b5b6040519080825280602002602001820160405280156126a357816020015b612690612b04565b8152602001906001900390816126885790505b50905060005b600654811015612af6576000600782815481106126c9576126c8613cf7565b5b9060005260206000200160009054906101000a900473ffffffffffffffffffffffffffffffffffffffff1690506000600560008373ffffffffffffffffffffffffffffffffffffffff1673ffffffffffffffffffffffffffffffffffffffff168152602001908152602001600020905080604051806101600160405290816000820154815260200160018201805461276090613c59565b80601f016020809104026020016040519081016040528092919081815260200182805461278c90613c59565b80156127d95780601f106127ae576101008083540402835291602001916127d9565b820191906000526020600020905b8154815290600101906020018083116127bc57829003601f168201915b505050505081526020016002820180546127f290613c59565b80601f016020809104026020016040519081016040528092919081815260200182805461281e90613c59565b801561286b5780601f106128405761010080835404028352916020019161286b565b820191906000526020600020905b81548152906001019060200180831161284e57829003601f168201915b505050505081526020016003820160009054906101000a900460ff16600481111561289957612898613047565b5b60048111156128ab576128aa613047565b5b81526020016003820160019054906101000a900460ff1660028111156128d4576128d3613047565b5b60028111156128e6576128e5613047565b5b81526020016003820160029054906101000a900460ff16600181111561290f5761290e613047565b5b600181111561292157612920613047565b5b81526020016003820160039054906101000a900473ffffffffffffffffffffffffffffffffffffffff1673ffffffffffffffffffffffffffffffffffffffff1673ffffffffffffffffffffffffffffffffffffffff1681526020016004820160009054906101000a900473ffffffffffffffffffffffffffffffffffffffff1673ffffffffffffffffffffffffffffffffffffffff1673ffffffffffffffffffffffffffffffffffffffff1681526020016005820160009054906101000a900473ffffffffffffffffffffffffffffffffffffffff1673ffffffffffffffffffffffffffffffffffffffff1673ffffffffffffffffffffffffffffffffffffffff16815260200160068201548152602001600782018054612a4190613c59565b80601f0160208091040260200160405190810160405280929190818152602001828054612a6d90613c59565b8015612aba5780601f10612a8f57610100808354040283529160200191612aba565b820191906000526020600020905b815481529060010190602001808311612a9d57829003601f168201915b505050505081525050848481518110612ad657612ad5613cf7565b5b602002602001018190525050508080612aee90613d55565b9150506126a9565b508091505090565b60035481565b60405180610160016040528060008152602001606081526020016060815260200160006004811115612b3957612b38613047565b5b815260200160006002811115612b5257612b51613047565b5b815260200160006001811115612b6b57612b6a613047565b5b8152602001600073ffffffffffffffffffffffffffffffffffffffff168152602001600073ffffffffffffffffffffffffffffffffffffffff168152602001600073ffffffffffffffffffffffffffffffffffffffff16815260200160008152602001606081525090565b604051806101000160405280600081526020016060815260200160006004811115612c0457612c03613047565b5b815260200160608152602001600073ffffffffffffffffffffffffffffffffffffffff168152602001600073ffffffffffffffffffffffffffffffffffffffff16815260200160008152602001606081525090565b828054612c6590613c59565b90600052602060002090601f016020900481019282612c875760008555612cce565b82601f10612ca057805160ff1916838001178555612cce565b82800160010185558215612cce579182015b82811115612ccd578251825591602001919060010190612cb2565b5b509050612cdb9190612cdf565b5090565b5b80821115612cf8576000816000905550600101612ce0565b5090565b6000604051905090565b600080fd5b600080fd5b600080fd5b600080fd5b6000601f19601f8301169050919050565b7f4e487b7100000000000000000000000000000000000000000000000000000000600052604160045260246000fd5b612d6382612d1a565b810181811067ffffffffffffffff82111715612d8257612d81612d2b565b5b80604052505050565b6000612d95612cfc565b9050612da18282612d5a565b919050565b600067ffffffffffffffff821115612dc157612dc0612d2b565b5b612dca82612d1a565b9050602081019050919050565b82818337600083830152505050565b6000612df9612df484612da6565b612d8b565b905082815260208101848484011115612e1557612e14612d15565b5b612e20848285612dd7565b509392505050565b600082601f830112612e3d57612e3c612d10565b5b8135612e4d848260208601612de6565b91505092915050565b6000819050919050565b612e6981612e56565b8114612e7457600080fd5b50565b600081359050612e8681612e60565b92915050565b60008060408385031215612ea357612ea2612d06565b5b600083013567ffffffffffffffff811115612ec157612ec0612d0b565b5b612ecd85828601612e28565b9250506020612ede85828601612e77565b9150509250929050565b600073ffffffffffffffffffffffffffffffffffffffff82169050919050565b6000612f1382612ee8565b9050919050565b612f2381612f08565b82525050565b6000602082019050612f3e6000830184612f1a565b92915050565b612f4d81612f08565b8114612f5857600080fd5b50565b600081359050612f6a81612f44565b92915050565b60008060408385031215612f8757612f86612d06565b5b6000612f9585828601612f5b565b9250506020612fa685828601612f5b565b9150509250929050565b612fb981612e56565b82525050565b600081519050919050565b600082825260208201905092915050565b60005b83811015612ff9578082015181840152602081019050612fde565b83811115613008576000848401525b50505050565b600061301982612fbf565b6130238185612fca565b9350613033818560208601612fdb565b61303c81612d1a565b840191505092915050565b7f4e487b7100000000000000000000000000000000000000000000000000000000600052602160045260246000fd5b6005811061308757613086613047565b5b50565b600081905061309882613076565b919050565b60006130a88261308a565b9050919050565b6130b88161309d565b82525050565b600381106130cf576130ce613047565b5b50565b60008190506130e0826130be565b919050565b60006130f0826130d2565b9050919050565b613100816130e5565b82525050565b6002811061311757613116613047565b5b50565b600081905061312882613106565b919050565b60006131388261311a565b9050919050565b6131488161312d565b82525050565b61315781612f08565b82525050565b6000610160830160008301516131766000860182612fb0565b506020830151848203602086015261318e828261300e565b915050604083015184820360408601526131a8828261300e565b91505060608301516131bd60608601826130af565b5060808301516131d060808601826130f7565b5060a08301516131e360a086018261313f565b5060c08301516131f660c086018261314e565b5060e083015161320960e086018261314e565b5061010083015161321e61010086018261314e565b50610120830151613233610120860182612fb0565b5061014083015184820361014086015261324d828261300e565b9150508091505092915050565b60006020820190508181036000830152613274818461315d565b905092915050565b60006020828403121561329257613291612d06565b5b60006132a084828501612f5b565b91505092915050565b6000610100830160008301516132c26000860182612fb0565b50602083015184820360208601526132da828261300e565b91505060408301516132ef60408601826130af565b5060608301518482036060860152613307828261300e565b915050608083015161331c608086018261314e565b5060a083015161332f60a086018261314e565b5060c083015161334260c0860182612fb0565b5060e083015184820360e086015261335a828261300e565b9150508091505092915050565b6000602082019050818103600083015261338181846132a9565b905092915050565b60006020828403121561339f5761339e612d06565b5b60006133ad84828501612e77565b91505092915050565b6133bf81612e56565b82525050565b60006020820190506133da60008301846133b6565b92915050565b600082825260208201905092915050565b60006133fc82612fbf565b61340681856133e0565b9350613416818560208601612fdb565b61341f81612d1a565b840191505092915050565b6134338161309d565b82525050565b613442816130e5565b82525050565b6134518161312d565b82525050565b60006101608201905061346d600083018e6133b6565b818103602083015261347f818d6133f1565b90508181036040830152613493818c6133f1565b90506134a2606083018b61342a565b6134af608083018a613439565b6134bc60a0830189613448565b6134c960c0830188612f1a565b6134d660e0830187612f1a565b6134e4610100830186612f1a565b6134f26101208301856133b6565b81810361014083015261350581846133f1565b90509c9b505050505050505050505050565b600081519050919050565b600082825260208201905092915050565b6000819050602082019050919050565b60006101008301600083015161355c6000860182612fb0565b5060208301518482036020860152613574828261300e565b915050604083015161358960408601826130af565b50606083015184820360608601526135a1828261300e565b91505060808301516135b6608086018261314e565b5060a08301516135c960a086018261314e565b5060c08301516135dc60c0860182612fb0565b5060e083015184820360e08601526135f4828261300e565b9150508091505092915050565b600061360d8383613543565b905092915050565b6000602082019050919050565b600061362d82613517565b6136378185613522565b93508360208202850161364985613533565b8060005b8581101561368557848403895281516136668582613601565b945061367183613615565b925060208a0199505060018101905061364d565b50829750879550505050505092915050565b600060208201905081810360008301526136b18184613622565b905092915050565b6000610100820190506136cf600083018b6133b6565b81810360208301526136e1818a6133f1565b90506136f0604083018961342a565b818103606083015261370281886133f1565b90506137116080830187612f1a565b61371e60a0830186612f1a565b61372b60c08301856133b6565b81810360e083015261373d81846133f1565b90509998505050505050505050565b600080600080600060a0868803121561376857613767612d06565b5b600061377688828901612f5b565b955050602086013567ffffffffffffffff81111561379757613796612d0b565b5b6137a388828901612e28565b94505060406137b488828901612e77565b935050606086013567ffffffffffffffff8111156137d5576137d4612d0b565b5b6137e188828901612e28565b925050608086013567ffffffffffffffff81111561380257613801612d0b565b5b61380e88828901612e28565b9150509295509295909350565b60008060008060008060c0878903121561383857613837612d06565b5b600087013567ffffffffffffffff81111561385657613855612d0b565b5b61386289828a01612e28565b965050602061387389828a01612e77565b955050604061388489828a01612e77565b945050606061389589828a01612f5b565b93505060806138a689828a01612f5b565b92505060a087013567ffffffffffffffff8111156138c7576138c6612d0b565b5b6138d389828a01612e28565b9150509295509295509295565b6000806000606084860312156138f9576138f8612d06565b5b600061390786828701612f5b565b935050602084013567ffffffffffffffff81111561392857613927612d0b565b5b61393486828701612e28565b925050604084013567ffffffffffffffff81111561395557613954612d0b565b5b61396186828701612e28565b9150509250925092565b600081519050919050565b600082825260208201905092915050565b6000819050602082019050919050565b6000610160830160008301516139b06000860182612fb0565b50602083015184820360208601526139c8828261300e565b915050604083015184820360408601526139e2828261300e565b91505060608301516139f760608601826130af565b506080830151613a0a60808601826130f7565b5060a0830151613a1d60a086018261313f565b5060c0830151613a3060c086018261314e565b5060e0830151613a4360e086018261314e565b50610100830151613a5861010086018261314e565b50610120830151613a6d610120860182612fb0565b50610140830151848203610140860152613a87828261300e565b9150508091505092915050565b6000613aa08383613997565b905092915050565b6000602082019050919050565b6000613ac08261396b565b613aca8185613976565b935083602082028501613adc85613987565b8060005b85811015613b185784840389528151613af98582613a94565b9450613b0483613aa8565b925060208a01995050600181019050613ae0565b50829750879550505050505092915050565b60006020820190508181036000830152613b448184613ab5565b905092915050565b600081905092915050565b6000613b6282612fbf565b613b6c8185613b4c565b9350613b7c818560208601612fdb565b80840191505092915050565b60008160601b9050919050565b6000613ba082613b88565b9050919050565b6000613bb282613b95565b9050919050565b613bca613bc582612f08565b613ba7565b82525050565b6000819050919050565b613beb613be682612e56565b613bd0565b82525050565b6000613bfd8286613b57565b9150613c098285613bb9565b601482019150613c198284613bda565b602082019150819050949350505050565b7f4e487b7100000000000000000000000000000000000000000000000000000000600052602260045260246000fd5b60006002820490506001821680613c7157607f821691505b60208210811415613c8557613c84613c2a565b5b50919050565b7f41646472657373206973206e6f742076616c69642e0000000000000000000000600082015250565b6000613cc16015836133e0565b9150613ccc82613c8b565b602082019050919050565b60006020820190508181036000830152613cf081613cb4565b9050919050565b7f4e487b7100000000000000000000000000000000000000000000000000000000600052603260045260246000fd5b7f4e487b7100000000000000000000000000000000000000000000000000000000600052601160045260246000fd5b6000613d6082612e56565b91507fffffffffffffffffffffffffffffffffffffffffffffffffffffffffffffffff821415613d9357613d92613d26565b5b600182019050919050565b60008160001c9050919050565b6000819050919050565b6000613dc8613dc383613d9e565b613dab565b9050919050565b60008190508160005260206000209050919050565b60008154613df181613c59565b613dfb8186612fca565b94506001821660008114613e165760018114613e2857613e5b565b60ff1983168652602086019350613e5b565b613e3185613dcf565b60005b83811015613e5357815481890152600182019150602081019050613e34565b808801955050505b50505092915050565b600060ff82169050919050565b6000613e84613e7f83613d9e565b613e64565b9050919050565b600073ffffffffffffffffffffffffffffffffffffffff82169050919050565b6000613ebe613eb983613d9e565b613e8b565b9050919050565b600061010083016000808401549050613edd81613db5565b613eea6000870182612fb0565b50600184018583036020870152613f018382613de4565b92505060028401549050613f1481613e71565b613f2160408701826130af565b50600384018583036060870152613f388382613de4565b92505060048401549050613f4b81613eab565b613f58608087018261314e565b5060058401549050613f6981613eab565b613f7660a087018261314e565b5060068401549050613f8781613db5565b613f9460c0870182612fb0565b506007840185830360e0870152613fab8382613de4565b925050819250505092915050565b60006020820190508181036000830152613fd38184613ec5565b905092915050565b60008160081c9050919050565b600060ff82169050919050565b600061400861400383613fdb565b613fe8565b9050919050565b60008160101c9050919050565b600060ff82169050919050565b600061403c6140378361400f565b61401c565b9050919050565b60008160181c9050919050565b600061406361405e83614043565b613e8b565b9050919050565b60006101608301600080840154905061408281613db5565b61408f6000870182612fb0565b506001840185830360208701526140a68382613de4565b9250506002840185830360408701526140bf8382613de4565b925050600384015490506140d281613e71565b6140df60608701826130af565b506140e981613ff5565b6140f660808701826130f7565b5061410081614029565b61410d60a087018261313f565b5061411781614050565b61412460c087018261314e565b506004840154905061413581613eab565b61414260e087018261314e565b506005840154905061415381613eab565b61416161010087018261314e565b506006840154905061417281613db5565b614180610120870182612fb0565b50600784018583036101408701526141988382613de4565b925050819250505092915050565b600060208201905081810360008301526141c0818461406a565b90509291505056fea2646970667358221220ce62ea720d047ec2db7c6ccbaf668ad967784af705bab5518c572997e172e8f264736f6c634300080a0033",
  "immutableReferences": {},
  "source": "// SPDX-License-Identifier: MIT\r\npragma solidity >=0.8.0 <0.9.0;\r\n\r\nimport \"./UserChain.sol\";\r\nimport \"./SharedChain.sol\";\r\n\r\ncontract ProjectChain is SharedChain {\r\n    address _currentUserAddress;\r\n    UserChain userChain;\r\n\r\n    constructor() {\r\n        _currentUserAddress = msg.sender;\r\n        //userChain = new UserChain();\r\n    }\r\n\r\n    modifier onlyUserProject() {\r\n        // User memory sessionUser = userChain.getUserInfo(_currentUserAddress);\r\n        // require(\r\n        //     sessionUser._role == Roles.UserProject,\r\n        //     \"You don't have the rights for this resource.\"\r\n        // );\r\n        _;\r\n    }\r\n\r\n    modifier onlySupervisor() {\r\n        // User memory sessionUser = userChain.getUserInfo(_currentUserAddress);\r\n        // require(\r\n        //     sessionUser._role == Roles.Supervisor,\r\n        //     \"You don't have the rights for this resource.\"\r\n        // );\r\n        _;\r\n    }\r\n\r\n    modifier onlyCompany() {\r\n        // User memory sessionUser = userChain.getUserInfo(_currentUserAddress);\r\n        // require(\r\n        //     sessionUser._role == Roles.Company,\r\n        //     \"You don't have the rights for this resource.\"\r\n        // );\r\n        _;\r\n    }\r\n\r\n    /**  PROJECT INITIATOR  */\r\n\r\n    mapping(address => Project) public projects;\r\n    uint256 public projectsCounter = 0;\r\n    address[] public projectsAddress;\r\n\r\n    function createUniqueProjectAddress(string memory _name, uint _index) public view returns (address) {\r\n        return address(uint160(uint256(keccak256(abi.encodePacked(_name, _currentUserAddress, _index)))));\r\n    }\r\n\r\n    function createProject(\r\n        address _projectAddress,\r\n        string memory _name,\r\n        uint256 _status,\r\n        string memory _ipfsFileCID,\r\n        string memory _signature\r\n    ) public onlyUserProject {\r\n        projects[_projectAddress] = Project(\r\n            projectsCounter,\r\n            _name,\r\n            ProjectStatus(_status),\r\n            _ipfsFileCID,\r\n            _projectAddress,\r\n            _currentUserAddress,\r\n            block.timestamp,\r\n            _signature\r\n        );\r\n\r\n        emit ProjectEvent(projects[_projectAddress], _projectAddress);\r\n        projectsAddress.push(_projectAddress);\r\n        projectsCounter++;\r\n    }\r\n\r\n    function updateProject(\r\n        address _projectAddress,\r\n        string memory _ipfsFileCID,\r\n        string memory _signature\r\n    ) public onlyUserProject {\r\n        projects[_projectAddress]._ipfsFileCID = _ipfsFileCID;\r\n        projects[_projectAddress]._signature = _signature;\r\n\r\n        emit ProjectEvent(projects[_projectAddress], _projectAddress);\r\n    }\r\n\r\n    function getProjectInfo(address _address)\r\n        public\r\n        view\r\n        returns (Project memory)\r\n    {\r\n        require(msg.sender != address(0x0), \"Address is not valid.\");\r\n        return projects[_address];\r\n    }\r\n\r\n    function getUserProjects(address _signerAddress) public view returns (Project[] memory) {\r\n        Project[] memory allProjects;\r\n        if (projectsCounter == 0) return allProjects;\r\n\r\n        allProjects = new Project[](projectsCounter);\r\n        for (uint256 index = 0; index < projectsCounter; index++) {\r\n            address _projectAddress = projectsAddress[index];\r\n            if (_signerAddress == projects[_projectAddress]._signerAddress) {\r\n                Project storage project = projects[_projectAddress];\r\n                allProjects[index] = project;\r\n            }\r\n        }\r\n        return allProjects;\r\n    }\r\n\r\n    function getAllProjects() public view returns (Project[] memory) {\r\n        Project[] memory allProjects;\r\n        if (projectsCounter == 0) return allProjects;\r\n\r\n        allProjects = new Project[](projectsCounter);\r\n        for (uint256 index = 0; index < projectsCounter; index++) {\r\n            address _projectAddress = projectsAddress[index];\r\n            Project storage project = projects[_projectAddress];\r\n            allProjects[index] = project;\r\n        }\r\n        return allProjects;\r\n    }\r\n\r\n\r\n    /**  Requests  */\r\n\r\n    mapping(address => Request) public requests;\r\n    uint256 public requestsCounter = 0;\r\n    address[] public requestsAddress;\r\n\r\n    function createUniqueRequestAddress(string memory _title, uint _index) public view returns (address) {\r\n        return address(uint160(uint256(keccak256(abi.encodePacked(_title, _currentUserAddress, _index)))));\r\n    }\r\n\r\n    function createRequest(\r\n        string memory _title,\r\n        uint256 _projectStatus,\r\n        uint256 _requestStatus,\r\n        address _projectAddress,\r\n        address _requestAddress,\r\n        string memory _signature\r\n    ) public {\r\n        //require(projects[_projectAddress]._status == ProjectStatus.Created, \"Steps must follow accordingly\");\r\n        //require(ProjectStatus.ToApprove == RequestStatus.UnApproved, \"\");\r\n        //require(ProjectStatus.ToApprove == RequestStatus.Rejected, \"\");\r\n\r\n        RequestType _requestType;\r\n        if (ProjectStatus(_projectStatus) == ProjectStatus.StartProject) {\r\n            _requestType = RequestType.CompanyReq;\r\n        } else {\r\n            _requestType = RequestType.SupervisorReq;\r\n        }\r\n\r\n        requests[_requestAddress] = Request(\r\n            requestsCounter,\r\n            _title,\r\n            \"\",\r\n            ProjectStatus(_projectStatus),\r\n            RequestStatus(_requestStatus),\r\n            RequestType(_requestType),\r\n            _projectAddress,\r\n            _requestAddress,\r\n            _currentUserAddress,\r\n            block.timestamp,\r\n            _signature\r\n        );\r\n\r\n        emit RequestEvent(requests[_requestAddress], _requestAddress, _projectAddress);\r\n        requestsAddress.push(_requestAddress);\r\n        requestsCounter++;\r\n    }\r\n\r\n    function updateRequest(\r\n        string memory _comments,\r\n        uint256 _requestStatus,\r\n        uint256 _projectStatus,\r\n        address _projectAddress,\r\n        address _requestAddress,\r\n        string memory _signature\r\n    ) public {\r\n        // Update request status in the Requests Mapping and Struct Array\r\n        requests[_requestAddress]._comments = _comments;\r\n        requests[_requestAddress]._requestStatus = RequestStatus(_requestStatus);\r\n        requests[_requestAddress]._signature = _signature;\r\n        emit RequestEvent(requests[_requestAddress], _requestAddress, _projectAddress);\r\n\r\n        // Update ProjectStatus to the requested status - Porject Mapping and Struct Array\r\n        if (RequestStatus.Approved == RequestStatus(_requestStatus)) {\r\n            projects[_projectAddress]._status = ProjectStatus(_projectStatus);\r\n            emit ProjectEvent(projects[_projectAddress], _projectAddress);\r\n        }\r\n    }\r\n\r\n    function getAllRequests() public view returns (Request[] memory) {\r\n        Request[] memory allRequests = new Request[](requestsCounter);\r\n        for (uint256 index = 0; index < requestsCounter; index++) {\r\n            address _requestAddress = requestsAddress[index];\r\n            Request storage request = requests[_requestAddress];\r\n            allRequests[index] = request;\r\n        }\r\n        return allRequests;\r\n    }\r\n\r\n\r\n    function getLastProjectRequest(address _projectAddress, address _requestAddress)\r\n        public view returns (Request memory)\r\n    {\r\n        Request memory request;\r\n        if (requestsCounter > 0) {\r\n            if (requests[_requestAddress]._projectAddress == _projectAddress) {\r\n                request = requests[_requestAddress];\r\n            }\r\n        }\r\n        return request;\r\n    }\r\n\r\n\r\n\r\n}\r\n",
  "sourcePath": "/mnt/c/Users/Beniamin/source/repos/DissertationProject/contracts/ProjectChain.sol",
  "compiler": {
    "name": "solc",
    "version": "0.8.10+commit.fc410830.Emscripten.clang"
  },
  "schemaVersion": "3.4.3",
  "updatedAt": "2021-12-11T11:12:31.063Z",
  "networkType": "ethereum",
  "devdoc": {
    "kind": "dev",
    "methods": {},
    "version": 1
  },
  "userdoc": {
    "kind": "user",
    "methods": {
      "projects(address)": {
        "notice": "PROJECT INITIATOR  "
      },
      "requests(address)": {
        "notice": "Requests  "
      }
    },
    "version": 1
  }
}