{
  "contractName": "ProjectChain",
  "abi": [
    {
      "inputs": [],
      "stateMutability": "nonpayable",
      "type": "constructor"
    },
    {
      "anonymous": false,
      "inputs": [
        {
          "indexed": false,
          "internalType": "uint256",
          "name": "_index",
          "type": "uint256"
        },
        {
          "indexed": false,
          "internalType": "bytes32",
          "name": "_name",
          "type": "bytes32"
        },
        {
          "indexed": false,
          "internalType": "enum SharedChain.ProjectStatus",
          "name": "_status",
          "type": "uint8"
        },
        {
          "indexed": false,
          "internalType": "string",
          "name": "_ipfsFileCID",
          "type": "string"
        },
        {
          "indexed": false,
          "internalType": "address",
          "name": "_projectAddress",
          "type": "address"
        },
        {
          "indexed": false,
          "internalType": "address",
          "name": "_userAddress",
          "type": "address"
        },
        {
          "indexed": false,
          "internalType": "uint256",
          "name": "_timestamp",
          "type": "uint256"
        }
      ],
      "name": "ProjectEvent",
      "type": "event"
    },
    {
      "anonymous": false,
      "inputs": [
        {
          "indexed": false,
          "internalType": "uint256",
          "name": "_index",
          "type": "uint256"
        },
        {
          "indexed": false,
          "internalType": "bytes32",
          "name": "_title",
          "type": "bytes32"
        },
        {
          "indexed": false,
          "internalType": "string",
          "name": "_comments",
          "type": "string"
        },
        {
          "indexed": false,
          "internalType": "enum SharedChain.ProjectStatus",
          "name": "_status",
          "type": "uint8"
        },
        {
          "indexed": false,
          "internalType": "enum SharedChain.RequestStatus",
          "name": "_requestStatus",
          "type": "uint8"
        },
        {
          "indexed": false,
          "internalType": "address",
          "name": "_projectAddress",
          "type": "address"
        },
        {
          "indexed": false,
          "internalType": "address",
          "name": "_userAddress",
          "type": "address"
        },
        {
          "indexed": false,
          "internalType": "uint256",
          "name": "_timestamp",
          "type": "uint256"
        }
      ],
      "name": "ProjectRequestEvent",
      "type": "event"
    },
    {
      "anonymous": false,
      "inputs": [
        {
          "indexed": false,
          "internalType": "uint256",
          "name": "_index",
          "type": "uint256"
        },
        {
          "indexed": false,
          "internalType": "uint256",
          "name": "_indexProjectRequest",
          "type": "uint256"
        },
        {
          "indexed": false,
          "internalType": "bytes32",
          "name": "_title",
          "type": "bytes32"
        },
        {
          "indexed": false,
          "internalType": "enum SharedChain.RequestStatus",
          "name": "_status",
          "type": "uint8"
        },
        {
          "indexed": false,
          "internalType": "enum SharedChain.ProjectStatus",
          "name": "_projectStatus",
          "type": "uint8"
        },
        {
          "indexed": false,
          "internalType": "address",
          "name": "_projectAddress",
          "type": "address"
        },
        {
          "indexed": false,
          "internalType": "address",
          "name": "_userAddress",
          "type": "address"
        },
        {
          "indexed": false,
          "internalType": "uint256",
          "name": "_timestamp",
          "type": "uint256"
        }
      ],
      "name": "RequestEvent",
      "type": "event"
    },
    {
      "anonymous": false,
      "inputs": [
        {
          "indexed": true,
          "internalType": "address",
          "name": "_walletAddress",
          "type": "address"
        },
        {
          "indexed": true,
          "internalType": "string",
          "name": "_username",
          "type": "string"
        },
        {
          "indexed": false,
          "internalType": "bytes32",
          "name": "_email",
          "type": "bytes32"
        },
        {
          "indexed": false,
          "internalType": "bytes32",
          "name": "_firstname",
          "type": "bytes32"
        },
        {
          "indexed": false,
          "internalType": "bytes32",
          "name": "_lastname",
          "type": "bytes32"
        },
        {
          "indexed": true,
          "internalType": "enum UserChain.Roles",
          "name": "_role",
          "type": "uint8"
        }
      ],
      "name": "UserEvent",
      "type": "event"
    },
    {
      "inputs": [
        {
          "internalType": "uint256",
          "name": "",
          "type": "uint256"
        }
      ],
      "name": "allProjectRequests",
      "outputs": [
        {
          "internalType": "uint256",
          "name": "_index",
          "type": "uint256"
        },
        {
          "internalType": "bytes32",
          "name": "_title",
          "type": "bytes32"
        },
        {
          "internalType": "string",
          "name": "_comments",
          "type": "string"
        },
        {
          "internalType": "enum SharedChain.ProjectStatus",
          "name": "_status",
          "type": "uint8"
        },
        {
          "internalType": "enum SharedChain.RequestStatus",
          "name": "_requestStatus",
          "type": "uint8"
        },
        {
          "internalType": "address",
          "name": "_projectAddress",
          "type": "address"
        },
        {
          "internalType": "address",
          "name": "_userAddress",
          "type": "address"
        }
      ],
      "stateMutability": "view",
      "type": "function",
      "constant": true
    },
    {
      "inputs": [
        {
          "internalType": "uint256",
          "name": "",
          "type": "uint256"
        }
      ],
      "name": "allProjects",
      "outputs": [
        {
          "internalType": "uint256",
          "name": "_index",
          "type": "uint256"
        },
        {
          "internalType": "bytes32",
          "name": "_name",
          "type": "bytes32"
        },
        {
          "internalType": "enum SharedChain.ProjectStatus",
          "name": "_status",
          "type": "uint8"
        },
        {
          "internalType": "string",
          "name": "_ipfsFileCID",
          "type": "string"
        },
        {
          "internalType": "address",
          "name": "_projectAddress",
          "type": "address"
        },
        {
          "internalType": "address",
          "name": "_userAddress",
          "type": "address"
        }
      ],
      "stateMutability": "view",
      "type": "function",
      "constant": true
    },
    {
      "inputs": [
        {
          "internalType": "uint256",
          "name": "",
          "type": "uint256"
        }
      ],
      "name": "allRequests",
      "outputs": [
        {
          "internalType": "uint256",
          "name": "_index",
          "type": "uint256"
        },
        {
          "internalType": "uint256",
          "name": "_indexProjectRequest",
          "type": "uint256"
        },
        {
          "internalType": "bytes32",
          "name": "_title",
          "type": "bytes32"
        },
        {
          "internalType": "enum SharedChain.RequestStatus",
          "name": "_requestStatus",
          "type": "uint8"
        },
        {
          "internalType": "enum SharedChain.ProjectStatus",
          "name": "_projectStatus",
          "type": "uint8"
        },
        {
          "internalType": "address",
          "name": "_projectAddress",
          "type": "address"
        },
        {
          "internalType": "address",
          "name": "_userAddress",
          "type": "address"
        }
      ],
      "stateMutability": "view",
      "type": "function",
      "constant": true
    },
    {
      "inputs": [
        {
          "internalType": "uint256",
          "name": "",
          "type": "uint256"
        }
      ],
      "name": "allUsers",
      "outputs": [
        {
          "internalType": "uint256",
          "name": "_index",
          "type": "uint256"
        },
        {
          "internalType": "string",
          "name": "_username",
          "type": "string"
        },
        {
          "internalType": "bytes32",
          "name": "_email",
          "type": "bytes32"
        },
        {
          "internalType": "bytes32",
          "name": "_firstname",
          "type": "bytes32"
        },
        {
          "internalType": "bytes32",
          "name": "_lastname",
          "type": "bytes32"
        },
        {
          "internalType": "enum UserChain.Roles",
          "name": "_role",
          "type": "uint8"
        },
        {
          "internalType": "address",
          "name": "_walletAddress",
          "type": "address"
        }
      ],
      "stateMutability": "view",
      "type": "function",
      "constant": true
    },
    {
      "inputs": [
        {
          "internalType": "uint256",
          "name": "_role",
          "type": "uint256"
        },
        {
          "internalType": "address",
          "name": "_walletAddress",
          "type": "address"
        }
      ],
      "name": "changeUserRole",
      "outputs": [],
      "stateMutability": "nonpayable",
      "type": "function"
    },
    {
      "inputs": [],
      "name": "getAllUsers",
      "outputs": [
        {
          "components": [
            {
              "internalType": "uint256",
              "name": "_index",
              "type": "uint256"
            },
            {
              "internalType": "string",
              "name": "_username",
              "type": "string"
            },
            {
              "internalType": "bytes32",
              "name": "_email",
              "type": "bytes32"
            },
            {
              "internalType": "bytes32",
              "name": "_firstname",
              "type": "bytes32"
            },
            {
              "internalType": "bytes32",
              "name": "_lastname",
              "type": "bytes32"
            },
            {
              "internalType": "enum UserChain.Roles",
              "name": "_role",
              "type": "uint8"
            },
            {
              "internalType": "address",
              "name": "_walletAddress",
              "type": "address"
            }
          ],
          "internalType": "struct UserChain.User[]",
          "name": "",
          "type": "tuple[]"
        }
      ],
      "stateMutability": "view",
      "type": "function",
      "constant": true
    },
    {
      "inputs": [
        {
          "internalType": "address",
          "name": "_walletAddress",
          "type": "address"
        }
      ],
      "name": "getUserInfo",
      "outputs": [
        {
          "components": [
            {
              "internalType": "uint256",
              "name": "_index",
              "type": "uint256"
            },
            {
              "internalType": "string",
              "name": "_username",
              "type": "string"
            },
            {
              "internalType": "bytes32",
              "name": "_email",
              "type": "bytes32"
            },
            {
              "internalType": "bytes32",
              "name": "_firstname",
              "type": "bytes32"
            },
            {
              "internalType": "bytes32",
              "name": "_lastname",
              "type": "bytes32"
            },
            {
              "internalType": "enum UserChain.Roles",
              "name": "_role",
              "type": "uint8"
            },
            {
              "internalType": "address",
              "name": "_walletAddress",
              "type": "address"
            }
          ],
          "internalType": "struct UserChain.User",
          "name": "",
          "type": "tuple"
        }
      ],
      "stateMutability": "view",
      "type": "function",
      "constant": true
    },
    {
      "inputs": [],
      "name": "owner",
      "outputs": [
        {
          "internalType": "address",
          "name": "",
          "type": "address"
        }
      ],
      "stateMutability": "view",
      "type": "function",
      "constant": true
    },
    {
      "inputs": [
        {
          "internalType": "uint256",
          "name": "",
          "type": "uint256"
        }
      ],
      "name": "projectRequests",
      "outputs": [
        {
          "internalType": "uint256",
          "name": "_index",
          "type": "uint256"
        },
        {
          "internalType": "bytes32",
          "name": "_title",
          "type": "bytes32"
        },
        {
          "internalType": "string",
          "name": "_comments",
          "type": "string"
        },
        {
          "internalType": "enum SharedChain.ProjectStatus",
          "name": "_status",
          "type": "uint8"
        },
        {
          "internalType": "enum SharedChain.RequestStatus",
          "name": "_requestStatus",
          "type": "uint8"
        },
        {
          "internalType": "address",
          "name": "_projectAddress",
          "type": "address"
        },
        {
          "internalType": "address",
          "name": "_userAddress",
          "type": "address"
        }
      ],
      "stateMutability": "view",
      "type": "function",
      "constant": true
    },
    {
      "inputs": [],
      "name": "projectRequestsCounter",
      "outputs": [
        {
          "internalType": "uint256",
          "name": "",
          "type": "uint256"
        }
      ],
      "stateMutability": "view",
      "type": "function",
      "constant": true
    },
    {
      "inputs": [
        {
          "internalType": "address",
          "name": "",
          "type": "address"
        }
      ],
      "name": "projects",
      "outputs": [
        {
          "internalType": "uint256",
          "name": "_index",
          "type": "uint256"
        },
        {
          "internalType": "bytes32",
          "name": "_name",
          "type": "bytes32"
        },
        {
          "internalType": "enum SharedChain.ProjectStatus",
          "name": "_status",
          "type": "uint8"
        },
        {
          "internalType": "string",
          "name": "_ipfsFileCID",
          "type": "string"
        },
        {
          "internalType": "address",
          "name": "_projectAddress",
          "type": "address"
        },
        {
          "internalType": "address",
          "name": "_userAddress",
          "type": "address"
        }
      ],
      "stateMutability": "view",
      "type": "function",
      "constant": true
    },
    {
      "inputs": [],
      "name": "projectsCounter",
      "outputs": [
        {
          "internalType": "uint256",
          "name": "",
          "type": "uint256"
        }
      ],
      "stateMutability": "view",
      "type": "function",
      "constant": true
    },
    {
      "inputs": [
        {
          "internalType": "string",
          "name": "_username",
          "type": "string"
        },
        {
          "internalType": "bytes32",
          "name": "_email",
          "type": "bytes32"
        },
        {
          "internalType": "bytes32",
          "name": "_firstname",
          "type": "bytes32"
        },
        {
          "internalType": "bytes32",
          "name": "_lastname",
          "type": "bytes32"
        },
        {
          "internalType": "uint256",
          "name": "_role",
          "type": "uint256"
        },
        {
          "internalType": "address",
          "name": "_walletAddress",
          "type": "address"
        }
      ],
      "name": "registerUser",
      "outputs": [],
      "stateMutability": "nonpayable",
      "type": "function"
    },
    {
      "inputs": [
        {
          "internalType": "uint256",
          "name": "",
          "type": "uint256"
        }
      ],
      "name": "requests",
      "outputs": [
        {
          "internalType": "uint256",
          "name": "_index",
          "type": "uint256"
        },
        {
          "internalType": "uint256",
          "name": "_indexProjectRequest",
          "type": "uint256"
        },
        {
          "internalType": "bytes32",
          "name": "_title",
          "type": "bytes32"
        },
        {
          "internalType": "enum SharedChain.RequestStatus",
          "name": "_requestStatus",
          "type": "uint8"
        },
        {
          "internalType": "enum SharedChain.ProjectStatus",
          "name": "_projectStatus",
          "type": "uint8"
        },
        {
          "internalType": "address",
          "name": "_projectAddress",
          "type": "address"
        },
        {
          "internalType": "address",
          "name": "_userAddress",
          "type": "address"
        }
      ],
      "stateMutability": "view",
      "type": "function",
      "constant": true
    },
    {
      "inputs": [],
      "name": "requestsCounter",
      "outputs": [
        {
          "internalType": "uint256",
          "name": "",
          "type": "uint256"
        }
      ],
      "stateMutability": "view",
      "type": "function",
      "constant": true
    },
    {
      "inputs": [
        {
          "internalType": "address",
          "name": "",
          "type": "address"
        }
      ],
      "name": "users",
      "outputs": [
        {
          "internalType": "uint256",
          "name": "_index",
          "type": "uint256"
        },
        {
          "internalType": "string",
          "name": "_username",
          "type": "string"
        },
        {
          "internalType": "bytes32",
          "name": "_email",
          "type": "bytes32"
        },
        {
          "internalType": "bytes32",
          "name": "_firstname",
          "type": "bytes32"
        },
        {
          "internalType": "bytes32",
          "name": "_lastname",
          "type": "bytes32"
        },
        {
          "internalType": "enum UserChain.Roles",
          "name": "_role",
          "type": "uint8"
        },
        {
          "internalType": "address",
          "name": "_walletAddress",
          "type": "address"
        }
      ],
      "stateMutability": "view",
      "type": "function",
      "constant": true
    },
    {
      "inputs": [],
      "name": "usersCounter",
      "outputs": [
        {
          "internalType": "uint256",
          "name": "",
          "type": "uint256"
        }
      ],
      "stateMutability": "view",
      "type": "function",
      "constant": true
    },
    {
      "inputs": [
        {
          "internalType": "string",
          "name": "_text",
          "type": "string"
        },
        {
          "internalType": "uint256",
          "name": "_index",
          "type": "uint256"
        }
      ],
      "name": "createUniqueHexAddress",
      "outputs": [
        {
          "internalType": "address",
          "name": "",
          "type": "address"
        }
      ],
      "stateMutability": "view",
      "type": "function",
      "constant": true
    },
    {
      "inputs": [
        {
          "internalType": "bytes32",
          "name": "_name",
          "type": "bytes32"
        },
        {
          "internalType": "uint256",
          "name": "_status",
          "type": "uint256"
        },
        {
          "internalType": "string",
          "name": "_ipfsFileCID",
          "type": "string"
        }
      ],
      "name": "createProject",
      "outputs": [],
      "stateMutability": "nonpayable",
      "type": "function"
    },
    {
      "inputs": [
        {
          "internalType": "address",
          "name": "_address",
          "type": "address"
        }
      ],
      "name": "getProjectInfo",
      "outputs": [
        {
          "components": [
            {
              "internalType": "uint256",
              "name": "_index",
              "type": "uint256"
            },
            {
              "internalType": "bytes32",
              "name": "_name",
              "type": "bytes32"
            },
            {
              "internalType": "enum SharedChain.ProjectStatus",
              "name": "_status",
              "type": "uint8"
            },
            {
              "internalType": "string",
              "name": "_ipfsFileCID",
              "type": "string"
            },
            {
              "internalType": "address",
              "name": "_projectAddress",
              "type": "address"
            },
            {
              "internalType": "address",
              "name": "_userAddress",
              "type": "address"
            }
          ],
          "internalType": "struct SharedChain.Project",
          "name": "",
          "type": "tuple"
        }
      ],
      "stateMutability": "view",
      "type": "function",
      "constant": true
    },
    {
      "inputs": [],
      "name": "getAllProjects",
      "outputs": [
        {
          "components": [
            {
              "internalType": "uint256",
              "name": "_index",
              "type": "uint256"
            },
            {
              "internalType": "bytes32",
              "name": "_name",
              "type": "bytes32"
            },
            {
              "internalType": "enum SharedChain.ProjectStatus",
              "name": "_status",
              "type": "uint8"
            },
            {
              "internalType": "string",
              "name": "_ipfsFileCID",
              "type": "string"
            },
            {
              "internalType": "address",
              "name": "_projectAddress",
              "type": "address"
            },
            {
              "internalType": "address",
              "name": "_userAddress",
              "type": "address"
            }
          ],
          "internalType": "struct SharedChain.Project[]",
          "name": "",
          "type": "tuple[]"
        }
      ],
      "stateMutability": "view",
      "type": "function",
      "constant": true
    },
    {
      "inputs": [
        {
          "internalType": "bytes32",
          "name": "_title",
          "type": "bytes32"
        },
        {
          "internalType": "uint256",
          "name": "_status",
          "type": "uint256"
        },
        {
          "internalType": "uint256",
          "name": "_requestStatus",
          "type": "uint256"
        },
        {
          "internalType": "address",
          "name": "_projectAddress",
          "type": "address"
        }
      ],
      "name": "createProjectRequest",
      "outputs": [],
      "stateMutability": "nonpayable",
      "type": "function"
    },
    {
      "inputs": [],
      "name": "getAllProjectRequests",
      "outputs": [
        {
          "components": [
            {
              "internalType": "uint256",
              "name": "_index",
              "type": "uint256"
            },
            {
              "internalType": "bytes32",
              "name": "_title",
              "type": "bytes32"
            },
            {
              "internalType": "string",
              "name": "_comments",
              "type": "string"
            },
            {
              "internalType": "enum SharedChain.ProjectStatus",
              "name": "_status",
              "type": "uint8"
            },
            {
              "internalType": "enum SharedChain.RequestStatus",
              "name": "_requestStatus",
              "type": "uint8"
            },
            {
              "internalType": "address",
              "name": "_projectAddress",
              "type": "address"
            },
            {
              "internalType": "address",
              "name": "_userAddress",
              "type": "address"
            }
          ],
          "internalType": "struct SharedChain.ProjectRequest[]",
          "name": "",
          "type": "tuple[]"
        }
      ],
      "stateMutability": "view",
      "type": "function",
      "constant": true
    },
    {
      "inputs": [
        {
          "internalType": "address",
          "name": "_projectAddress",
          "type": "address"
        }
      ],
      "name": "getLastProjectRequest",
      "outputs": [
        {
          "components": [
            {
              "internalType": "uint256",
              "name": "_index",
              "type": "uint256"
            },
            {
              "internalType": "bytes32",
              "name": "_title",
              "type": "bytes32"
            },
            {
              "internalType": "string",
              "name": "_comments",
              "type": "string"
            },
            {
              "internalType": "enum SharedChain.ProjectStatus",
              "name": "_status",
              "type": "uint8"
            },
            {
              "internalType": "enum SharedChain.RequestStatus",
              "name": "_requestStatus",
              "type": "uint8"
            },
            {
              "internalType": "address",
              "name": "_projectAddress",
              "type": "address"
            },
            {
              "internalType": "address",
              "name": "_userAddress",
              "type": "address"
            }
          ],
          "internalType": "struct SharedChain.ProjectRequest",
          "name": "",
          "type": "tuple"
        }
      ],
      "stateMutability": "view",
      "type": "function",
      "constant": true
    },
    {
      "inputs": [],
      "name": "getLastProjectRequestWorked",
      "outputs": [
        {
          "components": [
            {
              "internalType": "uint256",
              "name": "_index",
              "type": "uint256"
            },
            {
              "internalType": "bytes32",
              "name": "_title",
              "type": "bytes32"
            },
            {
              "internalType": "string",
              "name": "_comments",
              "type": "string"
            },
            {
              "internalType": "enum SharedChain.ProjectStatus",
              "name": "_status",
              "type": "uint8"
            },
            {
              "internalType": "enum SharedChain.RequestStatus",
              "name": "_requestStatus",
              "type": "uint8"
            },
            {
              "internalType": "address",
              "name": "_projectAddress",
              "type": "address"
            },
            {
              "internalType": "address",
              "name": "_userAddress",
              "type": "address"
            }
          ],
          "internalType": "struct SharedChain.ProjectRequest",
          "name": "",
          "type": "tuple"
        }
      ],
      "stateMutability": "view",
      "type": "function",
      "constant": true
    },
    {
      "inputs": [
        {
          "internalType": "uint256",
          "name": "_index",
          "type": "uint256"
        },
        {
          "internalType": "string",
          "name": "_comments",
          "type": "string"
        },
        {
          "internalType": "uint256",
          "name": "_requestStatus",
          "type": "uint256"
        },
        {
          "internalType": "uint256",
          "name": "_indexProjectRequest",
          "type": "uint256"
        }
      ],
      "name": "updateRequest",
      "outputs": [],
      "stateMutability": "nonpayable",
      "type": "function"
    },
    {
      "inputs": [],
      "name": "getAllRequests",
      "outputs": [
        {
          "components": [
            {
              "internalType": "uint256",
              "name": "_index",
              "type": "uint256"
            },
            {
              "internalType": "uint256",
              "name": "_indexProjectRequest",
              "type": "uint256"
            },
            {
              "internalType": "bytes32",
              "name": "_title",
              "type": "bytes32"
            },
            {
              "internalType": "enum SharedChain.RequestStatus",
              "name": "_requestStatus",
              "type": "uint8"
            },
            {
              "internalType": "enum SharedChain.ProjectStatus",
              "name": "_projectStatus",
              "type": "uint8"
            },
            {
              "internalType": "address",
              "name": "_projectAddress",
              "type": "address"
            },
            {
              "internalType": "address",
              "name": "_userAddress",
              "type": "address"
            }
          ],
          "internalType": "struct SharedChain.Request[]",
          "name": "",
          "type": "tuple[]"
        }
      ],
      "stateMutability": "view",
      "type": "function",
      "constant": true
    }
  ],
  "bytecode": "0x60806040526000600355600060065560006009556000600c5534801561002457600080fd5b50336000806101000a81548173ffffffffffffffffffffffffffffffffffffffff021916908373ffffffffffffffffffffffffffffffffffffffff16021790555033600460006101000a81548173ffffffffffffffffffffffffffffffffffffffff021916908373ffffffffffffffffffffffffffffffffffffffff160217905550614ff8806100b56000396000f3fe608060405234801561001057600080fd5b50600436106101a95760003560e01c806391009786116100f9578063cc1ee4db11610097578063e2842d7911610071578063e2842d791461055e578063e9fcdf101461057c578063fb1a002a14610598578063fe360ea5146105b6576101a9565b8063cc1ee4db14610506578063cf13f5d414610524578063d67b1b9914610540576101a9565b8063a2bdedf4116100d3578063a2bdedf414610448578063a87430ba1461047e578063af1b7f49146104b4578063c19ded13146104d0576101a9565b806391009786146103da5780639bf4ec2f146103f65780639d0191ac1461042c576101a9565b8063663c22691161016657806381d12c581161014057806381d12c5814610321578063840e78fd1461035757806384afb5bb1461038c5780638da5cb5b146103bc576101a9565b8063663c2269146102af5780637e571188146102cd57806380d0382914610303576101a9565b80630b287892146101ae5780633f47e37a146101de578063400003db146101fc57806347ee45b91461021a57806353b3194c1461024a5780636386c1c71461027f575b600080fd5b6101c860048036038101906101c39190613986565b6105d4565b6040516101d59190613be8565b60405180910390f35b6101e6610985565b6040516101f39190613be8565b60405180910390f35b610204610b88565b6040516102119190613d68565b60405180910390f35b610234600480360381019061022f9190613986565b610daf565b6040516102419190613e13565b60405180910390f35b610264600480360381019061025f9190613e61565b610f95565b60405161027696959493929190613f14565b60405180910390f35b61029960048036038101906102949190613986565b6110b6565b6040516102a69190614060565b60405180910390f35b6102b761125a565b6040516102c49190614082565b60405180910390f35b6102e760048036038101906102e29190613e61565b611260565b6040516102fa97969594939291906140ac565b60405180910390f35b61030b611394565b604051610318919061426d565b60405180910390f35b61033b60048036038101906103369190613e61565b611580565b60405161034e979695949392919061428f565b60405180910390f35b610371600480360381019061036c9190613986565b61161c565b60405161038396959493929190613f14565b60405180910390f35b6103a660048036038101906103a19190614433565b61172d565b6040516103b3919061448f565b60405180910390f35b6103c4611787565b6040516103d1919061448f565b60405180910390f35b6103f460048036038101906103ef91906144aa565b6117ab565b005b610410600480360381019061040b9190613e61565b611a66565b604051610423979695949392919061428f565b60405180910390f35b610446600480360381019061044191906144ea565b611b12565b005b610462600480360381019061045d9190613e61565b611d13565b604051610475979695949392919061457c565b60405180910390f35b61049860048036038101906104939190613986565b611e1a565b6040516104ab979695949392919061457c565b60405180910390f35b6104ce60048036038101906104c9919061461e565b611f11565b005b6104ea60048036038101906104e59190613e61565b612431565b6040516104fd97969594939291906140ac565b60405180910390f35b61050e612555565b60405161051b9190614082565b60405180910390f35b61053e6004803603810190610539919061468d565b61255b565b005b610548612a60565b6040516105559190614082565b60405180910390f35b610566612a66565b6040516105739190614894565b60405180910390f35b610596600480360381019061059191906148b6565b612c10565b005b6105a06130da565b6040516105ad9190614a5a565b60405180910390f35b6105be613279565b6040516105cb9190614082565b60405180910390f35b6105dc6136fc565b6105e46136fc565b6000600a80549050111561097b5760006001600a805490506106069190614aab565b90505b6000811061097957600a818154811061062557610624614adf565b5b906000526020600020906005020160030160029054906101000a900473ffffffffffffffffffffffffffffffffffffffff1673ffffffffffffffffffffffffffffffffffffffff168473ffffffffffffffffffffffffffffffffffffffff16141561096657600a818154811061069e5761069d614adf565b5b906000526020600020906005020160000154826000018181525050600a81815481106106cd576106cc614adf565b5b906000526020600020906005020160010154826020018181525050600a81815481106106fc576106fb614adf565b5b9060005260206000209060050201600201805461071890614b3d565b80601f016020809104026020016040519081016040528092919081815260200182805461074490614b3d565b80156107915780601f1061076657610100808354040283529160200191610791565b820191906000526020600020905b81548152906001019060200180831161077457829003601f168201915b50505050508260400181905250600a81815481106107b2576107b1614adf565b5b906000526020600020906005020160030160009054906101000a900460ff16826060019060048111156107e8576107e7613a7e565b5b908160048111156107fc576107fb613a7e565b5b81525050600a818154811061081457610813614adf565b5b906000526020600020906005020160030160019054906101000a900460ff168260800190600281111561084a57610849613a7e565b5b9081600281111561085e5761085d613a7e565b5b81525050600a818154811061087657610875614adf565b5b906000526020600020906005020160030160029054906101000a900473ffffffffffffffffffffffffffffffffffffffff168260a0019073ffffffffffffffffffffffffffffffffffffffff16908173ffffffffffffffffffffffffffffffffffffffff1681525050600a81815481106108f3576108f2614adf565b5b906000526020600020906005020160040160009054906101000a900473ffffffffffffffffffffffffffffffffffffffff168260c0019073ffffffffffffffffffffffffffffffffffffffff16908173ffffffffffffffffffffffffffffffffffffffff16815250508192505050610980565b808061097190614b6f565b915050610609565b505b809150505b919050565b61098d6136fc565b600a6000815481106109a2576109a1614adf565b5b90600052602060002090600502016040518060e001604052908160008201548152602001600182015481526020016002820180546109df90614b3d565b80601f0160208091040260200160405190810160405280929190818152602001828054610a0b90614b3d565b8015610a585780601f10610a2d57610100808354040283529160200191610a58565b820191906000526020600020905b815481529060010190602001808311610a3b57829003601f168201915b505050505081526020016003820160009054906101000a900460ff166004811115610a8657610a85613a7e565b5b6004811115610a9857610a97613a7e565b5b81526020016003820160019054906101000a900460ff166002811115610ac157610ac0613a7e565b5b6002811115610ad357610ad2613a7e565b5b81526020016003820160029054906101000a900473ffffffffffffffffffffffffffffffffffffffff1673ffffffffffffffffffffffffffffffffffffffff1673ffffffffffffffffffffffffffffffffffffffff1681526020016004820160009054906101000a900473ffffffffffffffffffffffffffffffffffffffff1673ffffffffffffffffffffffffffffffffffffffff1673ffffffffffffffffffffffffffffffffffffffff1681525050905090565b6060600a805480602002602001604051908101604052809291908181526020016000905b82821015610da657838290600052602060002090600502016040518060e00160405290816000820154815260200160018201548152602001600282018054610bf390614b3d565b80601f0160208091040260200160405190810160405280929190818152602001828054610c1f90614b3d565b8015610c6c5780601f10610c4157610100808354040283529160200191610c6c565b820191906000526020600020905b815481529060010190602001808311610c4f57829003601f168201915b505050505081526020016003820160009054906101000a900460ff166004811115610c9a57610c99613a7e565b5b6004811115610cac57610cab613a7e565b5b81526020016003820160019054906101000a900460ff166002811115610cd557610cd4613a7e565b5b6002811115610ce757610ce6613a7e565b5b81526020016003820160029054906101000a900473ffffffffffffffffffffffffffffffffffffffff1673ffffffffffffffffffffffffffffffffffffffff1673ffffffffffffffffffffffffffffffffffffffff1681526020016004820160009054906101000a900473ffffffffffffffffffffffffffffffffffffffff1673ffffffffffffffffffffffffffffffffffffffff1673ffffffffffffffffffffffffffffffffffffffff168152505081526020019060010190610bac565b50505050905090565b610db761378c565b600560008373ffffffffffffffffffffffffffffffffffffffff1673ffffffffffffffffffffffffffffffffffffffff1681526020019081526020016000206040518060c001604052908160008201548152602001600182015481526020016002820160009054906101000a900460ff166004811115610e3a57610e39613a7e565b5b6004811115610e4c57610e4b613a7e565b5b8152602001600382018054610e6090614b3d565b80601f0160208091040260200160405190810160405280929190818152602001828054610e8c90614b3d565b8015610ed95780601f10610eae57610100808354040283529160200191610ed9565b820191906000526020600020905b815481529060010190602001808311610ebc57829003601f168201915b505050505081526020016004820160009054906101000a900473ffffffffffffffffffffffffffffffffffffffff1673ffffffffffffffffffffffffffffffffffffffff1673ffffffffffffffffffffffffffffffffffffffff1681526020016005820160009054906101000a900473ffffffffffffffffffffffffffffffffffffffff1673ffffffffffffffffffffffffffffffffffffffff1673ffffffffffffffffffffffffffffffffffffffff16815250509050919050565b60078181548110610fa557600080fd5b90600052602060002090600602016000915090508060000154908060010154908060020160009054906101000a900460ff1690806003018054610fe790614b3d565b80601f016020809104026020016040519081016040528092919081815260200182805461101390614b3d565b80156110605780601f1061103557610100808354040283529160200191611060565b820191906000526020600020905b81548152906001019060200180831161104357829003601f168201915b5050505050908060040160009054906101000a900473ffffffffffffffffffffffffffffffffffffffff16908060050160009054906101000a900473ffffffffffffffffffffffffffffffffffffffff16905086565b6110be613803565b600160008373ffffffffffffffffffffffffffffffffffffffff1673ffffffffffffffffffffffffffffffffffffffff1681526020019081526020016000206040518060e00160405290816000820154815260200160018201805461112290614b3d565b80601f016020809104026020016040519081016040528092919081815260200182805461114e90614b3d565b801561119b5780601f106111705761010080835404028352916020019161119b565b820191906000526020600020905b81548152906001019060200180831161117e57829003601f168201915b505050505081526020016002820154815260200160038201548152602001600482015481526020016005820160009054906101000a900460ff1660038111156111e7576111e6613a7e565b5b60038111156111f9576111f8613a7e565b5b81526020016005820160019054906101000a900473ffffffffffffffffffffffffffffffffffffffff1673ffffffffffffffffffffffffffffffffffffffff1673ffffffffffffffffffffffffffffffffffffffff16815250509050919050565b600c5481565b600a818154811061127057600080fd5b906000526020600020906005020160009150905080600001549080600101549080600201805461129f90614b3d565b80601f01602080910402602001604051908101604052809291908181526020018280546112cb90614b3d565b80156113185780601f106112ed57610100808354040283529160200191611318565b820191906000526020600020905b8154815290600101906020018083116112fb57829003601f168201915b5050505050908060030160009054906101000a900460ff16908060030160019054906101000a900460ff16908060030160029054906101000a900473ffffffffffffffffffffffffffffffffffffffff16908060040160009054906101000a900473ffffffffffffffffffffffffffffffffffffffff16905087565b60606007805480602002602001604051908101604052809291908181526020016000905b8282101561157757838290600052602060002090600602016040518060c001604052908160008201548152602001600182015481526020016002820160009054906101000a900460ff16600481111561141457611413613a7e565b5b600481111561142657611425613a7e565b5b815260200160038201805461143a90614b3d565b80601f016020809104026020016040519081016040528092919081815260200182805461146690614b3d565b80156114b35780601f10611488576101008083540402835291602001916114b3565b820191906000526020600020905b81548152906001019060200180831161149657829003601f168201915b505050505081526020016004820160009054906101000a900473ffffffffffffffffffffffffffffffffffffffff1673ffffffffffffffffffffffffffffffffffffffff1673ffffffffffffffffffffffffffffffffffffffff1681526020016005820160009054906101000a900473ffffffffffffffffffffffffffffffffffffffff1673ffffffffffffffffffffffffffffffffffffffff1673ffffffffffffffffffffffffffffffffffffffff1681525050815260200190600101906113b8565b50505050905090565b600b6020528060005260406000206000915090508060000154908060010154908060020154908060030160009054906101000a900460ff16908060030160019054906101000a900460ff16908060030160029054906101000a900473ffffffffffffffffffffffffffffffffffffffff16908060040160009054906101000a900473ffffffffffffffffffffffffffffffffffffffff16905087565b60056020528060005260406000206000915090508060000154908060010154908060020160009054906101000a900460ff169080600301805461165e90614b3d565b80601f016020809104026020016040519081016040528092919081815260200182805461168a90614b3d565b80156116d75780601f106116ac576101008083540402835291602001916116d7565b820191906000526020600020905b8154815290600101906020018083116116ba57829003601f168201915b5050505050908060040160009054906101000a900473ffffffffffffffffffffffffffffffffffffffff16908060050160009054906101000a900473ffffffffffffffffffffffffffffffffffffffff16905086565b600082600460009054906101000a900473ffffffffffffffffffffffffffffffffffffffff168360405160200161176693929190614c3e565b6040516020818303038152906040528051906020012060001c905092915050565b60008054906101000a900473ffffffffffffffffffffffffffffffffffffffff1681565b8160038111156117be576117bd613a7e565b5b600160008373ffffffffffffffffffffffffffffffffffffffff1673ffffffffffffffffffffffffffffffffffffffff16815260200190815260200160002060050160006101000a81548160ff0219169083600381111561182257611821613a7e565b5b02179055506000600160008373ffffffffffffffffffffffffffffffffffffffff1673ffffffffffffffffffffffffffffffffffffffff16815260200190815260200160002060000154905082600381111561188157611880613a7e565b5b6002828154811061189557611894614adf565b5b906000526020600020906006020160050160006101000a81548160ff021916908360038111156118c8576118c7613a7e565b5b02179055508260038111156118e0576118df613a7e565b5b60038111156118f2576118f1613a7e565b5b600160008473ffffffffffffffffffffffffffffffffffffffff1673ffffffffffffffffffffffffffffffffffffffff1681526020019081526020016000206001016040516119419190614d0b565b60405180910390208373ffffffffffffffffffffffffffffffffffffffff167f2a5f7967c96cddc740f1a8ce989263f3f3c239229941ff452b1b77f79e6a6d7d600160008773ffffffffffffffffffffffffffffffffffffffff1673ffffffffffffffffffffffffffffffffffffffff16815260200190815260200160002060020154600160008873ffffffffffffffffffffffffffffffffffffffff1673ffffffffffffffffffffffffffffffffffffffff16815260200190815260200160002060030154600160008973ffffffffffffffffffffffffffffffffffffffff1673ffffffffffffffffffffffffffffffffffffffff16815260200190815260200160002060040154604051611a5993929190614d22565b60405180910390a4505050565b600d8181548110611a7657600080fd5b90600052602060002090600502016000915090508060000154908060010154908060020154908060030160009054906101000a900460ff16908060030160019054906101000a900460ff16908060030160029054906101000a900473ffffffffffffffffffffffffffffffffffffffff16908060040160009054906101000a900473ffffffffffffffffffffffffffffffffffffffff16905087565b816002811115611b2557611b24613a7e565b5b600b600086815260200190815260200160002060030160006101000a81548160ff02191690836002811115611b5d57611b5c613a7e565b5b02179055506000600b6000868152602001908152602001600020600001549050826002811115611b9057611b8f613a7e565b5b600d8281548110611ba457611ba3614adf565b5b906000526020600020906005020160030160006101000a81548160ff02191690836002811115611bd757611bd6613a7e565b5b021790555083600860008481526020019081526020016000206002019080519060200190611c06929190613871565b50826002811115611c1a57611c19613a7e565b5b6008600084815260200190815260200160002060030160016101000a81548160ff02191690836002811115611c5257611c51613a7e565b5b021790555060006008600084815260200190815260200160002060000154905084600a8281548110611c8757611c86614adf565b5b90600052602060002090600502016002019080519060200190611cab929190613871565b50836002811115611cbf57611cbe613a7e565b5b600a8281548110611cd357611cd2614adf565b5b906000526020600020906005020160030160016101000a81548160ff02191690836002811115611d0657611d05613a7e565b5b0217905550505050505050565b60028181548110611d2357600080fd5b9060005260206000209060060201600091509050806000015490806001018054611d4c90614b3d565b80601f0160208091040260200160405190810160405280929190818152602001828054611d7890614b3d565b8015611dc55780601f10611d9a57610100808354040283529160200191611dc5565b820191906000526020600020905b815481529060010190602001808311611da857829003601f168201915b5050505050908060020154908060030154908060040154908060050160009054906101000a900460ff16908060050160019054906101000a900473ffffffffffffffffffffffffffffffffffffffff16905087565b6001602052806000526040600020600091509050806000015490806001018054611e4390614b3d565b80601f0160208091040260200160405190810160405280929190818152602001828054611e6f90614b3d565b8015611ebc5780601f10611e9157610100808354040283529160200191611ebc565b820191906000526020600020905b815481529060010190602001808311611e9f57829003601f168201915b5050505050908060020154908060030154908060040154908060050160009054906101000a900460ff16908060050160019054906101000a900473ffffffffffffffffffffffffffffffffffffffff16905087565b6000611f546040518060400160405280601a81526020017f6373643f534073616c61733b646c413233345f442e3b735f617300000000000081525060065461172d565b9050600654600560008373ffffffffffffffffffffffffffffffffffffffff1673ffffffffffffffffffffffffffffffffffffffff1681526020019081526020016000206000018190555083600560008373ffffffffffffffffffffffffffffffffffffffff1673ffffffffffffffffffffffffffffffffffffffff16815260200190815260200160002060010181905550826004811115611ff957611ff8613a7e565b5b600560008373ffffffffffffffffffffffffffffffffffffffff1673ffffffffffffffffffffffffffffffffffffffff16815260200190815260200160002060020160006101000a81548160ff0219169083600481111561205d5761205c613a7e565b5b021790555081600560008373ffffffffffffffffffffffffffffffffffffffff1673ffffffffffffffffffffffffffffffffffffffff16815260200190815260200160002060030190805190602001906120b8929190613871565b5080600560008373ffffffffffffffffffffffffffffffffffffffff1673ffffffffffffffffffffffffffffffffffffffff16815260200190815260200160002060040160006101000a81548173ffffffffffffffffffffffffffffffffffffffff021916908373ffffffffffffffffffffffffffffffffffffffff160217905550600460009054906101000a900473ffffffffffffffffffffffffffffffffffffffff16600560008373ffffffffffffffffffffffffffffffffffffffff1673ffffffffffffffffffffffffffffffffffffffff16815260200190815260200160002060050160006101000a81548173ffffffffffffffffffffffffffffffffffffffff021916908373ffffffffffffffffffffffffffffffffffffffff1602179055507fb4d7cf766344f0dab6a272ab11f55b042f020c99154e4e44f886d87c15a296696006548585600481111561221557612214613a7e565b5b8585600460009054906101000a900473ffffffffffffffffffffffffffffffffffffffff164260405161224e9796959493929190614d59565b60405180910390a160076040518060c00160405280600654815260200186815260200185600481111561228457612283613a7e565b5b600481111561229657612295613a7e565b5b81526020018481526020018373ffffffffffffffffffffffffffffffffffffffff168152602001600460009054906101000a900473ffffffffffffffffffffffffffffffffffffffff1673ffffffffffffffffffffffffffffffffffffffff168152509080600181540180825580915050600190039060005260206000209060060201600090919091909150600082015181600001556020820151816001015560408201518160020160006101000a81548160ff0219169083600481111561236157612360613a7e565b5b02179055506060820151816003019080519060200190612382929190613871565b5060808201518160040160006101000a81548173ffffffffffffffffffffffffffffffffffffffff021916908373ffffffffffffffffffffffffffffffffffffffff16021790555060a08201518160050160006101000a81548173ffffffffffffffffffffffffffffffffffffffff021916908373ffffffffffffffffffffffffffffffffffffffff16021790555050506006600081548092919061242690614dcf565b919050555050505050565b600860205280600052604060002060009150905080600001549080600101549080600201805461246090614b3d565b80601f016020809104026020016040519081016040528092919081815260200182805461248c90614b3d565b80156124d95780601f106124ae576101008083540402835291602001916124d9565b820191906000526020600020905b8154815290600101906020018083116124bc57829003601f168201915b5050505050908060030160009054906101000a900460ff16908060030160019054906101000a900460ff16908060030160029054906101000a900473ffffffffffffffffffffffffffffffffffffffff16908060040160009054906101000a900473ffffffffffffffffffffffffffffffffffffffff16905087565b60095481565b3373ffffffffffffffffffffffffffffffffffffffff1660008054906101000a900473ffffffffffffffffffffffffffffffffffffffff1673ffffffffffffffffffffffffffffffffffffffff16146125e9576040517f08c379a00000000000000000000000000000000000000000000000000000000081526004016125e090614e64565b60405180910390fd5b600354600160008373ffffffffffffffffffffffffffffffffffffffff1673ffffffffffffffffffffffffffffffffffffffff1681526020019081526020016000206000018190555085600160008373ffffffffffffffffffffffffffffffffffffffff1673ffffffffffffffffffffffffffffffffffffffff1681526020019081526020016000206001019080519060200190612688929190613871565b5084600160008373ffffffffffffffffffffffffffffffffffffffff1673ffffffffffffffffffffffffffffffffffffffff1681526020019081526020016000206002018190555083600160008373ffffffffffffffffffffffffffffffffffffffff1673ffffffffffffffffffffffffffffffffffffffff1681526020019081526020016000206003018190555082600160008373ffffffffffffffffffffffffffffffffffffffff1673ffffffffffffffffffffffffffffffffffffffff1681526020019081526020016000206004018190555081600381111561277157612770613a7e565b5b600160008373ffffffffffffffffffffffffffffffffffffffff1673ffffffffffffffffffffffffffffffffffffffff16815260200190815260200160002060050160006101000a81548160ff021916908360038111156127d5576127d4613a7e565b5b021790555080600160008373ffffffffffffffffffffffffffffffffffffffff1673ffffffffffffffffffffffffffffffffffffffff16815260200190815260200160002060050160016101000a81548173ffffffffffffffffffffffffffffffffffffffff021916908373ffffffffffffffffffffffffffffffffffffffff16021790555081600381111561286e5761286d613a7e565b5b60038111156128805761287f613a7e565b5b8660405161288e9190614e84565b60405180910390208273ffffffffffffffffffffffffffffffffffffffff167f2a5f7967c96cddc740f1a8ce989263f3f3c239229941ff452b1b77f79e6a6d7d8888886040516128e093929190614d22565b60405180910390a460026040518060e00160405280600354815260200188815260200187815260200186815260200185815260200184600381111561292857612927613a7e565b5b600381111561293a57612939613a7e565b5b81526020018373ffffffffffffffffffffffffffffffffffffffff1681525090806001815401808255809150506001900390600052602060002090600602016000909190919091506000820151816000015560208201518160010190805190602001906129a8929190613871565b5060408201518160020155606082015181600301556080820151816004015560a08201518160050160006101000a81548160ff021916908360038111156129f2576129f1613a7e565b5b021790555060c08201518160050160016101000a81548173ffffffffffffffffffffffffffffffffffffffff021916908373ffffffffffffffffffffffffffffffffffffffff160217905550505060036000815480929190612a5390614dcf565b9190505550505050505050565b60035481565b60606002805480602002602001604051908101604052809291908181526020016000905b82821015612c0757838290600052602060002090600602016040518060e001604052908160008201548152602001600182018054612ac790614b3d565b80601f0160208091040260200160405190810160405280929190818152602001828054612af390614b3d565b8015612b405780601f10612b1557610100808354040283529160200191612b40565b820191906000526020600020905b815481529060010190602001808311612b2357829003601f168201915b505050505081526020016002820154815260200160038201548152602001600482015481526020016005820160009054906101000a900460ff166003811115612b8c57612b8b613a7e565b5b6003811115612b9e57612b9d613a7e565b5b81526020016005820160019054906101000a900473ffffffffffffffffffffffffffffffffffffffff1673ffffffffffffffffffffffffffffffffffffffff1673ffffffffffffffffffffffffffffffffffffffff168152505081526020019060010190612a8a565b50505050905090565b600954600860006009548152602001908152602001600020600001819055508360086000600954815260200190815260200160002060010181905550604051806020016040528060008152506008600060095481526020019081526020016000206002019080519060200190612c87929190613871565b50826004811115612c9b57612c9a613a7e565b5b60086000600954815260200190815260200160002060030160006101000a81548160ff02191690836004811115612cd557612cd4613a7e565b5b0217905550816002811115612ced57612cec613a7e565b5b60086000600954815260200190815260200160002060030160016101000a81548160ff02191690836002811115612d2757612d26613a7e565b5b02179055508060086000600954815260200190815260200160002060030160026101000a81548173ffffffffffffffffffffffffffffffffffffffff021916908373ffffffffffffffffffffffffffffffffffffffff160217905550600460009054906101000a900473ffffffffffffffffffffffffffffffffffffffff1660086000600954815260200190815260200160002060040160006101000a81548173ffffffffffffffffffffffffffffffffffffffff021916908373ffffffffffffffffffffffffffffffffffffffff160217905550612e0b6009548585858561327f565b7f87be34239a6efbc76467dfcce1a731d31788afcf9f57c4d8dc9fc04fe871101360095485856004811115612e4357612e42613a7e565b5b856002811115612e5657612e55613a7e565b5b85600460009054906101000a900473ffffffffffffffffffffffffffffffffffffffff1642604051612e8e9796959493929190614ec1565b60405180910390a1600a6040518060e001604052806009548152602001868152602001604051806020016040528060008152508152602001856004811115612ed957612ed8613a7e565b5b6004811115612eeb57612eea613a7e565b5b8152602001846002811115612f0357612f02613a7e565b5b6002811115612f1557612f14613a7e565b5b81526020018373ffffffffffffffffffffffffffffffffffffffff168152602001600460009054906101000a900473ffffffffffffffffffffffffffffffffffffffff1673ffffffffffffffffffffffffffffffffffffffff16815250908060018154018082558091505060019003906000526020600020906005020160009091909190915060008201518160000155602082015181600101556040820151816002019080519060200190612fcb929190613871565b5060608201518160030160006101000a81548160ff02191690836004811115612ff757612ff6613a7e565b5b021790555060808201518160030160016101000a81548160ff0219169083600281111561302757613026613a7e565b5b021790555060a08201518160030160026101000a81548173ffffffffffffffffffffffffffffffffffffffff021916908373ffffffffffffffffffffffffffffffffffffffff16021790555060c08201518160040160006101000a81548173ffffffffffffffffffffffffffffffffffffffff021916908373ffffffffffffffffffffffffffffffffffffffff1602179055505050600960008154809291906130cf90614dcf565b919050555050505050565b6060600d805480602002602001604051908101604052809291908181526020016000905b8282101561327057838290600052602060002090600502016040518060e00160405290816000820154815260200160018201548152602001600282015481526020016003820160009054906101000a900460ff16600281111561316457613163613a7e565b5b600281111561317657613175613a7e565b5b81526020016003820160019054906101000a900460ff16600481111561319f5761319e613a7e565b5b60048111156131b1576131b0613a7e565b5b81526020016003820160029054906101000a900473ffffffffffffffffffffffffffffffffffffffff1673ffffffffffffffffffffffffffffffffffffffff1673ffffffffffffffffffffffffffffffffffffffff1681526020016004820160009054906101000a900473ffffffffffffffffffffffffffffffffffffffff1673ffffffffffffffffffffffffffffffffffffffff1673ffffffffffffffffffffffffffffffffffffffff1681525050815260200190600101906130fe565b50505050905090565b60065481565b600c54600b6000600c5481526020019081526020016000206000018190555084600b6000600c5481526020019081526020016000206001018190555083600b6000600c548152602001908152602001600020600201819055508160028111156132eb576132ea613a7e565b5b600b6000600c54815260200190815260200160002060030160006101000a81548160ff0219169083600281111561332557613324613a7e565b5b021790555082600481111561333d5761333c613a7e565b5b600b6000600c54815260200190815260200160002060030160016101000a81548160ff0219169083600481111561337757613376613a7e565b5b021790555080600b6000600c54815260200190815260200160002060030160026101000a81548173ffffffffffffffffffffffffffffffffffffffff021916908373ffffffffffffffffffffffffffffffffffffffff160217905550600460009054906101000a900473ffffffffffffffffffffffffffffffffffffffff16600b6000600c54815260200190815260200160002060040160006101000a81548173ffffffffffffffffffffffffffffffffffffffff021916908373ffffffffffffffffffffffffffffffffffffffff1602179055507f8a6c739ec80f6f13f935cf1dd056e71d977c52333311dae0657330264994277a600c54868685600281111561348557613484613a7e565b5b87600481111561349857613497613a7e565b5b86600460009054906101000a900473ffffffffffffffffffffffffffffffffffffffff16426040516134d1989796959493929190614f44565b60405180910390a1600d6040518060e00160405280600c54815260200187815260200186815260200184600281111561350d5761350c613a7e565b5b600281111561351f5761351e613a7e565b5b815260200185600481111561353757613536613a7e565b5b600481111561354957613548613a7e565b5b81526020018373ffffffffffffffffffffffffffffffffffffffff168152602001600460009054906101000a900473ffffffffffffffffffffffffffffffffffffffff1673ffffffffffffffffffffffffffffffffffffffff16815250908060018154018082558091505060019003906000526020600020906005020160009091909190915060008201518160000155602082015181600101556040820151816002015560608201518160030160006101000a81548160ff0219169083600281111561361857613617613a7e565b5b021790555060808201518160030160016101000a81548160ff0219169083600481111561364857613647613a7e565b5b021790555060a08201518160030160026101000a81548173ffffffffffffffffffffffffffffffffffffffff021916908373ffffffffffffffffffffffffffffffffffffffff16021790555060c08201518160040160006101000a81548173ffffffffffffffffffffffffffffffffffffffff021916908373ffffffffffffffffffffffffffffffffffffffff1602179055505050600c60008154809291906136f090614dcf565b91905055505050505050565b6040518060e001604052806000815260200160008019168152602001606081526020016000600481111561373357613732613a7e565b5b81526020016000600281111561374c5761374b613a7e565b5b8152602001600073ffffffffffffffffffffffffffffffffffffffff168152602001600073ffffffffffffffffffffffffffffffffffffffff1681525090565b6040518060c001604052806000815260200160008019168152602001600060048111156137bc576137bb613a7e565b5b815260200160608152602001600073ffffffffffffffffffffffffffffffffffffffff168152602001600073ffffffffffffffffffffffffffffffffffffffff1681525090565b6040518060e0016040528060008152602001606081526020016000801916815260200160008019168152602001600080191681526020016000600381111561384e5761384d613a7e565b5b8152602001600073ffffffffffffffffffffffffffffffffffffffff1681525090565b82805461387d90614b3d565b90600052602060002090601f01602090048101928261389f57600085556138e6565b82601f106138b857805160ff19168380011785556138e6565b828001600101855582156138e6579182015b828111156138e55782518255916020019190600101906138ca565b5b5090506138f391906138f7565b5090565b5b808211156139105760008160009055506001016138f8565b5090565b6000604051905090565b600080fd5b600080fd5b600073ffffffffffffffffffffffffffffffffffffffff82169050919050565b600061395382613928565b9050919050565b61396381613948565b811461396e57600080fd5b50565b6000813590506139808161395a565b92915050565b60006020828403121561399c5761399b61391e565b5b60006139aa84828501613971565b91505092915050565b6000819050919050565b6139c6816139b3565b82525050565b6000819050919050565b6139df816139cc565b82525050565b600081519050919050565b600082825260208201905092915050565b60005b83811015613a1f578082015181840152602081019050613a04565b83811115613a2e576000848401525b50505050565b6000601f19601f8301169050919050565b6000613a50826139e5565b613a5a81856139f0565b9350613a6a818560208601613a01565b613a7381613a34565b840191505092915050565b7f4e487b7100000000000000000000000000000000000000000000000000000000600052602160045260246000fd5b60058110613abe57613abd613a7e565b5b50565b6000819050613acf82613aad565b919050565b6000613adf82613ac1565b9050919050565b613aef81613ad4565b82525050565b60038110613b0657613b05613a7e565b5b50565b6000819050613b1782613af5565b919050565b6000613b2782613b09565b9050919050565b613b3781613b1c565b82525050565b613b4681613948565b82525050565b600060e083016000830151613b6460008601826139bd565b506020830151613b7760208601826139d6565b5060408301518482036040860152613b8f8282613a45565b9150506060830151613ba46060860182613ae6565b506080830151613bb76080860182613b2e565b5060a0830151613bca60a0860182613b3d565b5060c0830151613bdd60c0860182613b3d565b508091505092915050565b60006020820190508181036000830152613c028184613b4c565b905092915050565b600081519050919050565b600082825260208201905092915050565b6000819050602082019050919050565b600060e083016000830151613c4e60008601826139bd565b506020830151613c6160208601826139d6565b5060408301518482036040860152613c798282613a45565b9150506060830151613c8e6060860182613ae6565b506080830151613ca16080860182613b2e565b5060a0830151613cb460a0860182613b3d565b5060c0830151613cc760c0860182613b3d565b508091505092915050565b6000613cde8383613c36565b905092915050565b6000602082019050919050565b6000613cfe82613c0a565b613d088185613c15565b935083602082028501613d1a85613c26565b8060005b85811015613d565784840389528151613d378582613cd2565b9450613d4283613ce6565b925060208a01995050600181019050613d1e565b50829750879550505050505092915050565b60006020820190508181036000830152613d828184613cf3565b905092915050565b600060c083016000830151613da260008601826139bd565b506020830151613db560208601826139d6565b506040830151613dc86040860182613ae6565b5060608301518482036060860152613de08282613a45565b9150506080830151613df56080860182613b3d565b5060a0830151613e0860a0860182613b3d565b508091505092915050565b60006020820190508181036000830152613e2d8184613d8a565b905092915050565b613e3e816139b3565b8114613e4957600080fd5b50565b600081359050613e5b81613e35565b92915050565b600060208284031215613e7757613e7661391e565b5b6000613e8584828501613e4c565b91505092915050565b613e97816139b3565b82525050565b613ea6816139cc565b82525050565b613eb581613ad4565b82525050565b600082825260208201905092915050565b6000613ed7826139e5565b613ee18185613ebb565b9350613ef1818560208601613a01565b613efa81613a34565b840191505092915050565b613f0e81613948565b82525050565b600060c082019050613f296000830189613e8e565b613f366020830188613e9d565b613f436040830187613eac565b8181036060830152613f558186613ecc565b9050613f646080830185613f05565b613f7160a0830184613f05565b979650505050505050565b60048110613f8d57613f8c613a7e565b5b50565b6000819050613f9e82613f7c565b919050565b6000613fae82613f90565b9050919050565b613fbe81613fa3565b82525050565b600060e083016000830151613fdc60008601826139bd565b5060208301518482036020860152613ff48282613a45565b915050604083015161400960408601826139d6565b50606083015161401c60608601826139d6565b50608083015161402f60808601826139d6565b5060a083015161404260a0860182613fb5565b5060c083015161405560c0860182613b3d565b508091505092915050565b6000602082019050818103600083015261407a8184613fc4565b905092915050565b60006020820190506140976000830184613e8e565b92915050565b6140a681613b1c565b82525050565b600060e0820190506140c1600083018a613e8e565b6140ce6020830189613e9d565b81810360408301526140e08188613ecc565b90506140ef6060830187613eac565b6140fc608083018661409d565b61410960a0830185613f05565b61411660c0830184613f05565b98975050505050505050565b600081519050919050565b600082825260208201905092915050565b6000819050602082019050919050565b600060c08301600083015161416660008601826139bd565b50602083015161417960208601826139d6565b50604083015161418c6040860182613ae6565b50606083015184820360608601526141a48282613a45565b91505060808301516141b96080860182613b3d565b5060a08301516141cc60a0860182613b3d565b508091505092915050565b60006141e3838361414e565b905092915050565b6000602082019050919050565b600061420382614122565b61420d818561412d565b93508360208202850161421f8561413e565b8060005b8581101561425b578484038952815161423c85826141d7565b9450614247836141eb565b925060208a01995050600181019050614223565b50829750879550505050505092915050565b6000602082019050818103600083015261428781846141f8565b905092915050565b600060e0820190506142a4600083018a613e8e565b6142b16020830189613e8e565b6142be6040830188613e9d565b6142cb606083018761409d565b6142d86080830186613eac565b6142e560a0830185613f05565b6142f260c0830184613f05565b98975050505050505050565b600080fd5b600080fd5b7f4e487b7100000000000000000000000000000000000000000000000000000000600052604160045260246000fd5b61434082613a34565b810181811067ffffffffffffffff8211171561435f5761435e614308565b5b80604052505050565b6000614372613914565b905061437e8282614337565b919050565b600067ffffffffffffffff82111561439e5761439d614308565b5b6143a782613a34565b9050602081019050919050565b82818337600083830152505050565b60006143d66143d184614383565b614368565b9050828152602081018484840111156143f2576143f1614303565b5b6143fd8482856143b4565b509392505050565b600082601f83011261441a576144196142fe565b5b813561442a8482602086016143c3565b91505092915050565b6000806040838503121561444a5761444961391e565b5b600083013567ffffffffffffffff81111561446857614467613923565b5b61447485828601614405565b925050602061448585828601613e4c565b9150509250929050565b60006020820190506144a46000830184613f05565b92915050565b600080604083850312156144c1576144c061391e565b5b60006144cf85828601613e4c565b92505060206144e085828601613971565b9150509250929050565b600080600080608085870312156145045761450361391e565b5b600061451287828801613e4c565b945050602085013567ffffffffffffffff81111561453357614532613923565b5b61453f87828801614405565b935050604061455087828801613e4c565b925050606061456187828801613e4c565b91505092959194509250565b61457681613fa3565b82525050565b600060e082019050614591600083018a613e8e565b81810360208301526145a38189613ecc565b90506145b26040830188613e9d565b6145bf6060830187613e9d565b6145cc6080830186613e9d565b6145d960a083018561456d565b6145e660c0830184613f05565b98975050505050505050565b6145fb816139cc565b811461460657600080fd5b50565b600081359050614618816145f2565b92915050565b6000806000606084860312156146375761463661391e565b5b600061464586828701614609565b935050602061465686828701613e4c565b925050604084013567ffffffffffffffff81111561467757614676613923565b5b61468386828701614405565b9150509250925092565b60008060008060008060c087890312156146aa576146a961391e565b5b600087013567ffffffffffffffff8111156146c8576146c7613923565b5b6146d489828a01614405565b96505060206146e589828a01614609565b95505060406146f689828a01614609565b945050606061470789828a01614609565b935050608061471889828a01613e4c565b92505060a061472989828a01613971565b9150509295509295509295565b600081519050919050565b600082825260208201905092915050565b6000819050602082019050919050565b600060e08301600083015161477a60008601826139bd565b50602083015184820360208601526147928282613a45565b91505060408301516147a760408601826139d6565b5060608301516147ba60608601826139d6565b5060808301516147cd60808601826139d6565b5060a08301516147e060a0860182613fb5565b5060c08301516147f360c0860182613b3d565b508091505092915050565b600061480a8383614762565b905092915050565b6000602082019050919050565b600061482a82614736565b6148348185614741565b93508360208202850161484685614752565b8060005b85811015614882578484038952815161486385826147fe565b945061486e83614812565b925060208a0199505060018101905061484a565b50829750879550505050505092915050565b600060208201905081810360008301526148ae818461481f565b905092915050565b600080600080608085870312156148d0576148cf61391e565b5b60006148de87828801614609565b94505060206148ef87828801613e4c565b935050604061490087828801613e4c565b925050606061491187828801613971565b91505092959194509250565b600081519050919050565b600082825260208201905092915050565b6000819050602082019050919050565b60e08201600082015161495f60008501826139bd565b50602082015161497260208501826139bd565b50604082015161498560408501826139d6565b5060608201516149986060850182613b2e565b5060808201516149ab6080850182613ae6565b5060a08201516149be60a0850182613b3d565b5060c08201516149d160c0850182613b3d565b50505050565b60006149e38383614949565b60e08301905092915050565b6000602082019050919050565b6000614a078261491d565b614a118185614928565b9350614a1c83614939565b8060005b83811015614a4d578151614a3488826149d7565b9750614a3f836149ef565b925050600181019050614a20565b5085935050505092915050565b60006020820190508181036000830152614a7481846149fc565b905092915050565b7f4e487b7100000000000000000000000000000000000000000000000000000000600052601160045260246000fd5b6000614ab6826139b3565b9150614ac1836139b3565b925082821015614ad457614ad3614a7c565b5b828203905092915050565b7f4e487b7100000000000000000000000000000000000000000000000000000000600052603260045260246000fd5b7f4e487b7100000000000000000000000000000000000000000000000000000000600052602260045260246000fd5b60006002820490506001821680614b5557607f821691505b60208210811415614b6957614b68614b0e565b5b50919050565b6000614b7a826139b3565b91506000821415614b8e57614b8d614a7c565b5b600182039050919050565b600081905092915050565b6000614baf826139e5565b614bb98185614b99565b9350614bc9818560208601613a01565b80840191505092915050565b60008160601b9050919050565b6000614bed82614bd5565b9050919050565b6000614bff82614be2565b9050919050565b614c17614c1282613948565b614bf4565b82525050565b6000819050919050565b614c38614c33826139b3565b614c1d565b82525050565b6000614c4a8286614ba4565b9150614c568285614c06565b601482019150614c668284614c27565b602082019150819050949350505050565b60008190508160005260206000209050919050565b60008154614c9981614b3d565b614ca38186614b99565b94506001821660008114614cbe5760018114614ccf57614d02565b60ff19831686528186019350614d02565b614cd885614c77565b60005b83811015614cfa57815481890152600182019150602081019050614cdb565b838801955050505b50505092915050565b6000614d178284614c8c565b915081905092915050565b6000606082019050614d376000830186613e9d565b614d446020830185613e9d565b614d516040830184613e9d565b949350505050565b600060e082019050614d6e600083018a613e8e565b614d7b6020830189613e9d565b614d886040830188613eac565b8181036060830152614d9a8187613ecc565b9050614da96080830186613f05565b614db660a0830185613f05565b614dc360c0830184613e8e565b98975050505050505050565b6000614dda826139b3565b91507fffffffffffffffffffffffffffffffffffffffffffffffffffffffffffffffff821415614e0d57614e0c614a7c565b5b600182019050919050565b7f596f7520617265206e6f7420616e206f776e6572000000000000000000000000600082015250565b6000614e4e601483613ebb565b9150614e5982614e18565b602082019050919050565b60006020820190508181036000830152614e7d81614e41565b9050919050565b6000614e908284614ba4565b915081905092915050565b50565b6000614eab600083613ebb565b9150614eb682614e9b565b600082019050919050565b600061010082019050614ed7600083018a613e8e565b614ee46020830189613e9d565b8181036040830152614ef581614e9e565b9050614f046060830188613eac565b614f11608083018761409d565b614f1e60a0830186613f05565b614f2b60c0830185613f05565b614f3860e0830184613e8e565b98975050505050505050565b600061010082019050614f5a600083018b613e8e565b614f67602083018a613e8e565b614f746040830189613e9d565b614f81606083018861409d565b614f8e6080830187613eac565b614f9b60a0830186613f05565b614fa860c0830185613f05565b614fb560e0830184613e8e565b999850505050505050505056fea2646970667358221220f6544d816542d6578d6e9d0e3ef86f4fe39919bf6afb884602ec87e87c0e063c64736f6c634300080a0033",
  "immutableReferences": {},
  "source": "// SPDX-License-Identifier: MIT\r\npragma solidity >=0.8.0 <0.9.0;\r\n\r\nimport \"./UserChain.sol\";\r\nimport \"./CompanyChain.sol\";\r\nimport \"./SupervisorChain.sol\";\r\n\r\nimport \"./SharedChain.sol\";\r\n\r\n// Put constraints on the app based on role not address......\r\n\r\ncontract ProjectChain is UserChain, SharedChain {\r\n    string constant HASH_bytes32_VALUE = \"csd?S@salas;dlA234_D.;s_as\";\r\n    address _projectInitiator;\r\n\r\n    // Project Contract Data\r\n    mapping(address => Project) public projects;\r\n    uint public projectsCounter = 0;\r\n    Project[] public allProjects;\r\n\r\n    mapping(uint => ProjectRequest) public projectRequests;\r\n    uint public projectRequestsCounter = 0;\r\n    ProjectRequest[] public allProjectRequests;\r\n\r\n    constructor() {\r\n        _projectInitiator = msg.sender;\r\n    }\r\n\r\n    modifier onlyProjectInitiator {\r\n        require(users[_projectInitiator]._role == Roles.ProjectInitiator, \"You don't have the rights for this resources.\");\r\n        require(_projectInitiator == msg.sender, \"You are not a project initiator\");\r\n        _;\r\n    }\r\n\r\n    function createUniqueHexAddress(string memory _text, uint _index) public view returns (address) {\r\n        return address(uint160(uint256(keccak256(abi.encodePacked(_text, _projectInitiator, _index)))));\r\n    }\r\n\r\n    function createProject(bytes32 _name, uint _status, string memory _ipfsFileCID) public {\r\n        address _projectAddress = createUniqueHexAddress(HASH_bytes32_VALUE, projectsCounter);\r\n\r\n        projects[_projectAddress]._index = projectsCounter;\r\n        projects[_projectAddress]._name = _name;\r\n        projects[_projectAddress]._status = ProjectStatus(_status);\r\n        projects[_projectAddress]._ipfsFileCID = _ipfsFileCID;\r\n        projects[_projectAddress]._projectAddress = _projectAddress;\r\n        projects[_projectAddress]._userAddress = _projectInitiator;\r\n\r\n        emit ProjectEvent(projectsCounter, _name, ProjectStatus(_status), _ipfsFileCID, _projectAddress, _projectInitiator, block.timestamp);\r\n        allProjects.push(Project(projectsCounter, _name, ProjectStatus(_status), _ipfsFileCID, _projectAddress, _projectInitiator));\r\n        projectsCounter++;\r\n    }\r\n\r\n    function getProjectInfo(address _address) public view returns (Project memory) {\r\n        return projects[_address];\r\n    }\r\n\r\n    function getAllProjects() public view returns(Project[] memory) {\r\n        return allProjects;\r\n    }\r\n\r\n    function createProjectRequest(\r\n        bytes32 _title, uint _status,\r\n        uint _requestStatus, address _projectAddress\r\n    ) public {\r\n        projectRequests[projectRequestsCounter]._index = projectRequestsCounter;\r\n        projectRequests[projectRequestsCounter]._title = _title;\r\n        projectRequests[projectRequestsCounter]._comments = '';\r\n        projectRequests[projectRequestsCounter]._status = ProjectStatus(_status);\r\n        projectRequests[projectRequestsCounter]._requestStatus = RequestStatus(_requestStatus);\r\n        projectRequests[projectRequestsCounter]._projectAddress = _projectAddress;\r\n        projectRequests[projectRequestsCounter]._userAddress = _projectInitiator;\r\n\r\n        createRequest(projectRequestsCounter, _title, _status, _requestStatus, _projectAddress);\r\n\r\n        emit ProjectRequestEvent(projectRequestsCounter, _title, '', ProjectStatus(_status), RequestStatus(_requestStatus), _projectAddress, _projectInitiator, block.timestamp);\r\n        allProjectRequests.push(ProjectRequest(projectRequestsCounter, _title, '', ProjectStatus(_status), RequestStatus(_requestStatus), _projectAddress, _projectInitiator));\r\n        projectRequestsCounter++;\r\n    }\r\n\r\n    function getAllProjectRequests() external view returns(ProjectRequest[] memory) {\r\n        return allProjectRequests;\r\n    }\r\n\r\n    function getLastProjectRequest(address _projectAddress) external view returns(ProjectRequest memory) {\r\n        ProjectRequest memory request;\r\n        if (allProjectRequests.length > 0) {\r\n            for (uint index = allProjectRequests.length - 1; index >= 0; index--) {\r\n                if (_projectAddress == allProjectRequests[index]._projectAddress) {\r\n                    request._index = allProjectRequests[index]._index;\r\n                    request._title = allProjectRequests[index]._title;\r\n                    request._comments = allProjectRequests[index]._comments;\r\n                    request._status = allProjectRequests[index]._status;\r\n                    request._requestStatus = allProjectRequests[index]._requestStatus;\r\n                    request._projectAddress = allProjectRequests[index]._projectAddress;\r\n                    request._userAddress = allProjectRequests[index]._userAddress;\r\n                    return request;\r\n                }\r\n            }\r\n        }\r\n        return request;\r\n    }\r\n\r\n    function getLastProjectRequestWorked() external view returns(ProjectRequest memory) {\r\n        //ProjectRequest memory request = allProjectRequests[0];\r\n        //for (uint index = allProjectRequests.length - 1; index > 0; index--) {\r\n        //}\r\n        return allProjectRequests[0];\r\n    }\r\n\r\n\r\n\r\n    // They will be filter after the status of the requests\r\n    mapping(uint => Request) public requests;\r\n    uint public requestsCounter = 0;\r\n    Request[] public allRequests;\r\n\r\n    function createRequest(\r\n        uint _indexProjectRequest,\r\n        bytes32 _title,\r\n        uint _projectStatus,\r\n        uint _requestStatus,\r\n        address _projectAddress\r\n    ) internal {\r\n        requests[requestsCounter]._index = requestsCounter;\r\n        requests[requestsCounter]._indexProjectRequest = _indexProjectRequest;\r\n        requests[requestsCounter]._title = _title;\r\n        requests[requestsCounter]._requestStatus = RequestStatus(_requestStatus);\r\n        requests[requestsCounter]._projectStatus = ProjectStatus(_projectStatus);\r\n        requests[requestsCounter]._projectAddress = _projectAddress;\r\n        // change to supervisorAddress\r\n        requests[requestsCounter]._userAddress = _projectInitiator;\r\n\r\n        emit RequestEvent(requestsCounter, _indexProjectRequest, _title, RequestStatus(_requestStatus), ProjectStatus(_projectStatus), _projectAddress, _projectInitiator, block.timestamp);\r\n        allRequests.push(Request(requestsCounter, _indexProjectRequest, _title,  RequestStatus(_requestStatus), ProjectStatus(_projectStatus), _projectAddress, _projectInitiator));\r\n        requestsCounter++;\r\n    }\r\n\r\n    function updateRequest(uint _index, string memory _comments, uint _requestStatus, uint _indexProjectRequest) public {\r\n        requests[_index]._requestStatus = RequestStatus(_requestStatus);\r\n        uint index = requests[_index]._index;\r\n        allRequests[index]._requestStatus = RequestStatus(_requestStatus);\r\n\r\n        projectRequests[_indexProjectRequest]._comments = _comments;\r\n        projectRequests[_indexProjectRequest]._requestStatus = RequestStatus(_requestStatus);\r\n        uint indexProject = projectRequests[_indexProjectRequest]._index;\r\n        allProjectRequests[indexProject]._comments = _comments;\r\n        allProjectRequests[indexProject]._requestStatus = RequestStatus(_requestStatus);\r\n    }\r\n\r\n    function getAllRequests() public view returns(Request[] memory) {\r\n        return allRequests;\r\n    }\r\n\r\n}\r\n",
  "sourcePath": "/mnt/c/users/beniamin/source/repos/dissertationproject/contracts/ProjectChain.sol",
  "compiler": {
    "name": "solc",
    "version": "0.8.10+commit.fc410830.Emscripten.clang"
  },
  "schemaVersion": "3.4.3",
  "updatedAt": "2021-11-21T20:53:27.154Z",
  "networkType": "ethereum",
  "devdoc": {
    "kind": "dev",
    "methods": {},
    "version": 1
  },
  "userdoc": {
    "kind": "user",
    "methods": {},
    "version": 1
  }
}