{
  "contractName": "ProjectChain",
  "abi": [
    {
      "inputs": [],
      "stateMutability": "nonpayable",
      "type": "constructor"
    },
    {
      "anonymous": false,
      "inputs": [
        {
          "indexed": false,
          "internalType": "uint256",
          "name": "_index",
          "type": "uint256"
        },
        {
          "indexed": false,
          "internalType": "bytes32",
          "name": "_name",
          "type": "bytes32"
        },
        {
          "indexed": false,
          "internalType": "enum SharedChain.ProjectStatus",
          "name": "_status",
          "type": "uint8"
        },
        {
          "indexed": false,
          "internalType": "string",
          "name": "_ipfsFileCID",
          "type": "string"
        },
        {
          "indexed": false,
          "internalType": "address",
          "name": "_projectAddress",
          "type": "address"
        },
        {
          "indexed": false,
          "internalType": "address",
          "name": "_userAddress",
          "type": "address"
        },
        {
          "indexed": false,
          "internalType": "uint256",
          "name": "_timestamp",
          "type": "uint256"
        },
        {
          "indexed": false,
          "internalType": "string",
          "name": "_signature",
          "type": "string"
        }
      ],
      "name": "ProjectEvent",
      "type": "event"
    },
    {
      "anonymous": false,
      "inputs": [
        {
          "indexed": false,
          "internalType": "uint256",
          "name": "_index",
          "type": "uint256"
        },
        {
          "indexed": false,
          "internalType": "bytes32",
          "name": "_title",
          "type": "bytes32"
        },
        {
          "indexed": false,
          "internalType": "string",
          "name": "_comments",
          "type": "string"
        },
        {
          "indexed": false,
          "internalType": "enum SharedChain.ProjectStatus",
          "name": "_status",
          "type": "uint8"
        },
        {
          "indexed": false,
          "internalType": "enum SharedChain.RequestStatus",
          "name": "_requestStatus",
          "type": "uint8"
        },
        {
          "indexed": false,
          "internalType": "address",
          "name": "_projectAddress",
          "type": "address"
        },
        {
          "indexed": false,
          "internalType": "address",
          "name": "_userAddress",
          "type": "address"
        },
        {
          "indexed": false,
          "internalType": "address",
          "name": "_requestAddress",
          "type": "address"
        },
        {
          "indexed": false,
          "internalType": "uint256",
          "name": "_timestamp",
          "type": "uint256"
        },
        {
          "indexed": false,
          "internalType": "string",
          "name": "_signature",
          "type": "string"
        }
      ],
      "name": "ProjectRequestEvent",
      "type": "event"
    },
    {
      "anonymous": false,
      "inputs": [
        {
          "indexed": false,
          "internalType": "uint256",
          "name": "_index",
          "type": "uint256"
        },
        {
          "indexed": false,
          "internalType": "uint256",
          "name": "_indexProjectRequest",
          "type": "uint256"
        },
        {
          "indexed": false,
          "internalType": "bytes32",
          "name": "_title",
          "type": "bytes32"
        },
        {
          "indexed": false,
          "internalType": "enum SharedChain.RequestStatus",
          "name": "_status",
          "type": "uint8"
        },
        {
          "indexed": false,
          "internalType": "enum SharedChain.ProjectStatus",
          "name": "_projectStatus",
          "type": "uint8"
        },
        {
          "indexed": false,
          "internalType": "enum SharedChain.RequestType",
          "name": "_requestType",
          "type": "uint8"
        },
        {
          "indexed": false,
          "internalType": "address",
          "name": "_projectAddress",
          "type": "address"
        },
        {
          "indexed": false,
          "internalType": "address",
          "name": "_userAddress",
          "type": "address"
        },
        {
          "indexed": false,
          "internalType": "address",
          "name": "_requestAddress",
          "type": "address"
        },
        {
          "indexed": false,
          "internalType": "uint256",
          "name": "_timestamp",
          "type": "uint256"
        },
        {
          "indexed": false,
          "internalType": "string",
          "name": "_signature",
          "type": "string"
        }
      ],
      "name": "RequestEvent",
      "type": "event"
    },
    {
      "anonymous": false,
      "inputs": [
        {
          "indexed": false,
          "internalType": "uint256",
          "name": "_index",
          "type": "uint256"
        },
        {
          "indexed": true,
          "internalType": "string",
          "name": "_username",
          "type": "string"
        },
        {
          "indexed": false,
          "internalType": "bytes32",
          "name": "_email",
          "type": "bytes32"
        },
        {
          "indexed": false,
          "internalType": "bytes32",
          "name": "_firstname",
          "type": "bytes32"
        },
        {
          "indexed": false,
          "internalType": "bytes32",
          "name": "_lastname",
          "type": "bytes32"
        },
        {
          "indexed": true,
          "internalType": "enum SharedChain.Roles",
          "name": "_role",
          "type": "uint8"
        },
        {
          "indexed": true,
          "internalType": "address",
          "name": "_walletAddress",
          "type": "address"
        },
        {
          "indexed": false,
          "internalType": "uint256",
          "name": "_timestamp",
          "type": "uint256"
        }
      ],
      "name": "UserEvent",
      "type": "event"
    },
    {
      "inputs": [
        {
          "internalType": "uint256",
          "name": "_role",
          "type": "uint256"
        },
        {
          "internalType": "address",
          "name": "_walletAddress",
          "type": "address"
        }
      ],
      "name": "changeUserRole",
      "outputs": [],
      "stateMutability": "nonpayable",
      "type": "function"
    },
    {
      "inputs": [],
      "name": "getAllUsers",
      "outputs": [
        {
          "components": [
            {
              "internalType": "uint256",
              "name": "_index",
              "type": "uint256"
            },
            {
              "internalType": "string",
              "name": "_username",
              "type": "string"
            },
            {
              "internalType": "bytes32",
              "name": "_email",
              "type": "bytes32"
            },
            {
              "internalType": "bytes32",
              "name": "_firstname",
              "type": "bytes32"
            },
            {
              "internalType": "bytes32",
              "name": "_lastname",
              "type": "bytes32"
            },
            {
              "internalType": "enum SharedChain.Roles",
              "name": "_role",
              "type": "uint8"
            },
            {
              "internalType": "address",
              "name": "_walletAddress",
              "type": "address"
            },
            {
              "internalType": "uint256",
              "name": "_timestamp",
              "type": "uint256"
            }
          ],
          "internalType": "struct SharedChain.User[]",
          "name": "",
          "type": "tuple[]"
        }
      ],
      "stateMutability": "view",
      "type": "function"
    },
    {
      "inputs": [
        {
          "internalType": "address",
          "name": "_walletAddress",
          "type": "address"
        }
      ],
      "name": "getUserInfo",
      "outputs": [
        {
          "components": [
            {
              "internalType": "uint256",
              "name": "_index",
              "type": "uint256"
            },
            {
              "internalType": "string",
              "name": "_username",
              "type": "string"
            },
            {
              "internalType": "bytes32",
              "name": "_email",
              "type": "bytes32"
            },
            {
              "internalType": "bytes32",
              "name": "_firstname",
              "type": "bytes32"
            },
            {
              "internalType": "bytes32",
              "name": "_lastname",
              "type": "bytes32"
            },
            {
              "internalType": "enum SharedChain.Roles",
              "name": "_role",
              "type": "uint8"
            },
            {
              "internalType": "address",
              "name": "_walletAddress",
              "type": "address"
            },
            {
              "internalType": "uint256",
              "name": "_timestamp",
              "type": "uint256"
            }
          ],
          "internalType": "struct SharedChain.User",
          "name": "",
          "type": "tuple"
        }
      ],
      "stateMutability": "view",
      "type": "function"
    },
    {
      "inputs": [],
      "name": "owner",
      "outputs": [
        {
          "internalType": "address",
          "name": "",
          "type": "address"
        }
      ],
      "stateMutability": "view",
      "type": "function"
    },
    {
      "inputs": [
        {
          "internalType": "uint256",
          "name": "",
          "type": "uint256"
        }
      ],
      "name": "projectRequests",
      "outputs": [
        {
          "internalType": "uint256",
          "name": "_index",
          "type": "uint256"
        },
        {
          "internalType": "bytes32",
          "name": "_title",
          "type": "bytes32"
        },
        {
          "internalType": "string",
          "name": "_comments",
          "type": "string"
        },
        {
          "internalType": "enum SharedChain.ProjectStatus",
          "name": "_status",
          "type": "uint8"
        },
        {
          "internalType": "enum SharedChain.RequestStatus",
          "name": "_requestStatus",
          "type": "uint8"
        },
        {
          "internalType": "address",
          "name": "_projectAddress",
          "type": "address"
        },
        {
          "internalType": "address",
          "name": "_userAddress",
          "type": "address"
        },
        {
          "internalType": "address",
          "name": "_requestAddress",
          "type": "address"
        },
        {
          "internalType": "uint256",
          "name": "_timestamp",
          "type": "uint256"
        },
        {
          "internalType": "string",
          "name": "_signature",
          "type": "string"
        }
      ],
      "stateMutability": "view",
      "type": "function"
    },
    {
      "inputs": [
        {
          "internalType": "uint256",
          "name": "",
          "type": "uint256"
        }
      ],
      "name": "projectRequestsAddress",
      "outputs": [
        {
          "internalType": "address",
          "name": "",
          "type": "address"
        }
      ],
      "stateMutability": "view",
      "type": "function"
    },
    {
      "inputs": [],
      "name": "projectRequestsCounter",
      "outputs": [
        {
          "internalType": "uint256",
          "name": "",
          "type": "uint256"
        }
      ],
      "stateMutability": "view",
      "type": "function"
    },
    {
      "inputs": [
        {
          "internalType": "address",
          "name": "",
          "type": "address"
        }
      ],
      "name": "projects",
      "outputs": [
        {
          "internalType": "uint256",
          "name": "_index",
          "type": "uint256"
        },
        {
          "internalType": "bytes32",
          "name": "_name",
          "type": "bytes32"
        },
        {
          "internalType": "enum SharedChain.ProjectStatus",
          "name": "_status",
          "type": "uint8"
        },
        {
          "internalType": "string",
          "name": "_ipfsFileCID",
          "type": "string"
        },
        {
          "internalType": "address",
          "name": "_projectAddress",
          "type": "address"
        },
        {
          "internalType": "address",
          "name": "_userAddress",
          "type": "address"
        },
        {
          "internalType": "uint256",
          "name": "_timestamp",
          "type": "uint256"
        },
        {
          "internalType": "string",
          "name": "_signature",
          "type": "string"
        }
      ],
      "stateMutability": "view",
      "type": "function"
    },
    {
      "inputs": [
        {
          "internalType": "uint256",
          "name": "",
          "type": "uint256"
        }
      ],
      "name": "projectsAddress",
      "outputs": [
        {
          "internalType": "address",
          "name": "",
          "type": "address"
        }
      ],
      "stateMutability": "view",
      "type": "function"
    },
    {
      "inputs": [],
      "name": "projectsCounter",
      "outputs": [
        {
          "internalType": "uint256",
          "name": "",
          "type": "uint256"
        }
      ],
      "stateMutability": "view",
      "type": "function"
    },
    {
      "inputs": [
        {
          "internalType": "string",
          "name": "_username",
          "type": "string"
        },
        {
          "internalType": "bytes32",
          "name": "_email",
          "type": "bytes32"
        },
        {
          "internalType": "bytes32",
          "name": "_firstname",
          "type": "bytes32"
        },
        {
          "internalType": "bytes32",
          "name": "_lastname",
          "type": "bytes32"
        },
        {
          "internalType": "uint256",
          "name": "_role",
          "type": "uint256"
        },
        {
          "internalType": "address",
          "name": "_walletAddress",
          "type": "address"
        }
      ],
      "name": "registerUser",
      "outputs": [],
      "stateMutability": "nonpayable",
      "type": "function"
    },
    {
      "inputs": [
        {
          "internalType": "uint256",
          "name": "",
          "type": "uint256"
        }
      ],
      "name": "requests",
      "outputs": [
        {
          "internalType": "uint256",
          "name": "_index",
          "type": "uint256"
        },
        {
          "internalType": "uint256",
          "name": "_indexProjectRequest",
          "type": "uint256"
        },
        {
          "internalType": "bytes32",
          "name": "_title",
          "type": "bytes32"
        },
        {
          "internalType": "enum SharedChain.RequestStatus",
          "name": "_requestStatus",
          "type": "uint8"
        },
        {
          "internalType": "enum SharedChain.ProjectStatus",
          "name": "_projectStatus",
          "type": "uint8"
        },
        {
          "internalType": "enum SharedChain.RequestType",
          "name": "_requestType",
          "type": "uint8"
        },
        {
          "internalType": "address",
          "name": "_projectAddress",
          "type": "address"
        },
        {
          "internalType": "address",
          "name": "_userAddress",
          "type": "address"
        },
        {
          "internalType": "address",
          "name": "_requestAddress",
          "type": "address"
        },
        {
          "internalType": "uint256",
          "name": "_timestamp",
          "type": "uint256"
        },
        {
          "internalType": "string",
          "name": "_signature",
          "type": "string"
        }
      ],
      "stateMutability": "view",
      "type": "function"
    },
    {
      "inputs": [
        {
          "internalType": "uint256",
          "name": "",
          "type": "uint256"
        }
      ],
      "name": "requestsAddress",
      "outputs": [
        {
          "internalType": "address",
          "name": "",
          "type": "address"
        }
      ],
      "stateMutability": "view",
      "type": "function"
    },
    {
      "inputs": [],
      "name": "requestsCounter",
      "outputs": [
        {
          "internalType": "uint256",
          "name": "",
          "type": "uint256"
        }
      ],
      "stateMutability": "view",
      "type": "function"
    },
    {
      "inputs": [
        {
          "internalType": "address",
          "name": "",
          "type": "address"
        }
      ],
      "name": "users",
      "outputs": [
        {
          "internalType": "uint256",
          "name": "_index",
          "type": "uint256"
        },
        {
          "internalType": "string",
          "name": "_username",
          "type": "string"
        },
        {
          "internalType": "bytes32",
          "name": "_email",
          "type": "bytes32"
        },
        {
          "internalType": "bytes32",
          "name": "_firstname",
          "type": "bytes32"
        },
        {
          "internalType": "bytes32",
          "name": "_lastname",
          "type": "bytes32"
        },
        {
          "internalType": "enum SharedChain.Roles",
          "name": "_role",
          "type": "uint8"
        },
        {
          "internalType": "address",
          "name": "_walletAddress",
          "type": "address"
        },
        {
          "internalType": "uint256",
          "name": "_timestamp",
          "type": "uint256"
        }
      ],
      "stateMutability": "view",
      "type": "function"
    },
    {
      "inputs": [
        {
          "internalType": "uint256",
          "name": "",
          "type": "uint256"
        }
      ],
      "name": "usersAddress",
      "outputs": [
        {
          "internalType": "address",
          "name": "",
          "type": "address"
        }
      ],
      "stateMutability": "view",
      "type": "function"
    },
    {
      "inputs": [],
      "name": "usersCounter",
      "outputs": [
        {
          "internalType": "uint256",
          "name": "",
          "type": "uint256"
        }
      ],
      "stateMutability": "view",
      "type": "function"
    },
    {
      "inputs": [],
      "name": "createUniqueProjectAddress",
      "outputs": [
        {
          "internalType": "address",
          "name": "",
          "type": "address"
        }
      ],
      "stateMutability": "nonpayable",
      "type": "function"
    },
    {
      "inputs": [
        {
          "internalType": "address",
          "name": "_projectAddress",
          "type": "address"
        },
        {
          "internalType": "bytes32",
          "name": "_name",
          "type": "bytes32"
        },
        {
          "internalType": "uint256",
          "name": "_status",
          "type": "uint256"
        },
        {
          "internalType": "string",
          "name": "_ipfsFileCID",
          "type": "string"
        },
        {
          "internalType": "string",
          "name": "_signature",
          "type": "string"
        }
      ],
      "name": "createProject",
      "outputs": [],
      "stateMutability": "nonpayable",
      "type": "function"
    },
    {
      "inputs": [
        {
          "internalType": "address",
          "name": "_projectAddress",
          "type": "address"
        },
        {
          "internalType": "string",
          "name": "_ipfsFileCID",
          "type": "string"
        },
        {
          "internalType": "string",
          "name": "_signature",
          "type": "string"
        }
      ],
      "name": "updateProject",
      "outputs": [],
      "stateMutability": "nonpayable",
      "type": "function"
    },
    {
      "inputs": [
        {
          "internalType": "address",
          "name": "_address",
          "type": "address"
        }
      ],
      "name": "getProjectInfo",
      "outputs": [
        {
          "components": [
            {
              "internalType": "uint256",
              "name": "_index",
              "type": "uint256"
            },
            {
              "internalType": "bytes32",
              "name": "_name",
              "type": "bytes32"
            },
            {
              "internalType": "enum SharedChain.ProjectStatus",
              "name": "_status",
              "type": "uint8"
            },
            {
              "internalType": "string",
              "name": "_ipfsFileCID",
              "type": "string"
            },
            {
              "internalType": "address",
              "name": "_projectAddress",
              "type": "address"
            },
            {
              "internalType": "address",
              "name": "_userAddress",
              "type": "address"
            },
            {
              "internalType": "uint256",
              "name": "_timestamp",
              "type": "uint256"
            },
            {
              "internalType": "string",
              "name": "_signature",
              "type": "string"
            }
          ],
          "internalType": "struct SharedChain.Project",
          "name": "",
          "type": "tuple"
        }
      ],
      "stateMutability": "view",
      "type": "function"
    },
    {
      "inputs": [],
      "name": "getAllProjects",
      "outputs": [
        {
          "components": [
            {
              "internalType": "uint256",
              "name": "_index",
              "type": "uint256"
            },
            {
              "internalType": "bytes32",
              "name": "_name",
              "type": "bytes32"
            },
            {
              "internalType": "enum SharedChain.ProjectStatus",
              "name": "_status",
              "type": "uint8"
            },
            {
              "internalType": "string",
              "name": "_ipfsFileCID",
              "type": "string"
            },
            {
              "internalType": "address",
              "name": "_projectAddress",
              "type": "address"
            },
            {
              "internalType": "address",
              "name": "_userAddress",
              "type": "address"
            },
            {
              "internalType": "uint256",
              "name": "_timestamp",
              "type": "uint256"
            },
            {
              "internalType": "string",
              "name": "_signature",
              "type": "string"
            }
          ],
          "internalType": "struct SharedChain.Project[]",
          "name": "",
          "type": "tuple[]"
        }
      ],
      "stateMutability": "view",
      "type": "function"
    },
    {
      "inputs": [],
      "name": "createUniqueProjectRequestAddress",
      "outputs": [
        {
          "internalType": "address",
          "name": "",
          "type": "address"
        }
      ],
      "stateMutability": "nonpayable",
      "type": "function"
    },
    {
      "inputs": [
        {
          "internalType": "bytes32",
          "name": "_title",
          "type": "bytes32"
        },
        {
          "internalType": "uint256",
          "name": "_status",
          "type": "uint256"
        },
        {
          "internalType": "uint256",
          "name": "_requestStatus",
          "type": "uint256"
        },
        {
          "internalType": "address",
          "name": "_projectAddress",
          "type": "address"
        },
        {
          "internalType": "address",
          "name": "_projectReqAddress",
          "type": "address"
        },
        {
          "internalType": "string",
          "name": "_signature",
          "type": "string"
        }
      ],
      "name": "createProjectRequest",
      "outputs": [],
      "stateMutability": "nonpayable",
      "type": "function"
    },
    {
      "inputs": [],
      "name": "getAllProjectRequests",
      "outputs": [
        {
          "components": [
            {
              "internalType": "uint256",
              "name": "_index",
              "type": "uint256"
            },
            {
              "internalType": "bytes32",
              "name": "_title",
              "type": "bytes32"
            },
            {
              "internalType": "string",
              "name": "_comments",
              "type": "string"
            },
            {
              "internalType": "enum SharedChain.ProjectStatus",
              "name": "_status",
              "type": "uint8"
            },
            {
              "internalType": "enum SharedChain.RequestStatus",
              "name": "_requestStatus",
              "type": "uint8"
            },
            {
              "internalType": "address",
              "name": "_projectAddress",
              "type": "address"
            },
            {
              "internalType": "address",
              "name": "_userAddress",
              "type": "address"
            },
            {
              "internalType": "address",
              "name": "_requestAddress",
              "type": "address"
            },
            {
              "internalType": "uint256",
              "name": "_timestamp",
              "type": "uint256"
            },
            {
              "internalType": "string",
              "name": "_signature",
              "type": "string"
            }
          ],
          "internalType": "struct SharedChain.ProjectRequest[]",
          "name": "",
          "type": "tuple[]"
        }
      ],
      "stateMutability": "view",
      "type": "function"
    },
    {
      "inputs": [
        {
          "internalType": "address",
          "name": "_projectAddress",
          "type": "address"
        }
      ],
      "name": "getLastProjectRequest",
      "outputs": [
        {
          "components": [
            {
              "internalType": "uint256",
              "name": "_index",
              "type": "uint256"
            },
            {
              "internalType": "bytes32",
              "name": "_title",
              "type": "bytes32"
            },
            {
              "internalType": "string",
              "name": "_comments",
              "type": "string"
            },
            {
              "internalType": "enum SharedChain.ProjectStatus",
              "name": "_status",
              "type": "uint8"
            },
            {
              "internalType": "enum SharedChain.RequestStatus",
              "name": "_requestStatus",
              "type": "uint8"
            },
            {
              "internalType": "address",
              "name": "_projectAddress",
              "type": "address"
            },
            {
              "internalType": "address",
              "name": "_userAddress",
              "type": "address"
            },
            {
              "internalType": "address",
              "name": "_requestAddress",
              "type": "address"
            },
            {
              "internalType": "uint256",
              "name": "_timestamp",
              "type": "uint256"
            },
            {
              "internalType": "string",
              "name": "_signature",
              "type": "string"
            }
          ],
          "internalType": "struct SharedChain.ProjectRequest",
          "name": "",
          "type": "tuple"
        }
      ],
      "stateMutability": "view",
      "type": "function"
    },
    {
      "inputs": [
        {
          "internalType": "uint256",
          "name": "_index",
          "type": "uint256"
        },
        {
          "internalType": "uint256",
          "name": "_indexProjectRequest",
          "type": "uint256"
        },
        {
          "internalType": "string",
          "name": "_comments",
          "type": "string"
        },
        {
          "internalType": "uint256",
          "name": "_requestStatus",
          "type": "uint256"
        },
        {
          "internalType": "uint256",
          "name": "_projectStatus",
          "type": "uint256"
        },
        {
          "internalType": "address",
          "name": "_projectAddress",
          "type": "address"
        },
        {
          "internalType": "string",
          "name": "_signature",
          "type": "string"
        }
      ],
      "name": "updateRequest",
      "outputs": [],
      "stateMutability": "nonpayable",
      "type": "function"
    },
    {
      "inputs": [],
      "name": "getAllRequests",
      "outputs": [
        {
          "components": [
            {
              "internalType": "uint256",
              "name": "_index",
              "type": "uint256"
            },
            {
              "internalType": "uint256",
              "name": "_indexProjectRequest",
              "type": "uint256"
            },
            {
              "internalType": "bytes32",
              "name": "_title",
              "type": "bytes32"
            },
            {
              "internalType": "enum SharedChain.RequestStatus",
              "name": "_requestStatus",
              "type": "uint8"
            },
            {
              "internalType": "enum SharedChain.ProjectStatus",
              "name": "_projectStatus",
              "type": "uint8"
            },
            {
              "internalType": "enum SharedChain.RequestType",
              "name": "_requestType",
              "type": "uint8"
            },
            {
              "internalType": "address",
              "name": "_projectAddress",
              "type": "address"
            },
            {
              "internalType": "address",
              "name": "_userAddress",
              "type": "address"
            },
            {
              "internalType": "address",
              "name": "_requestAddress",
              "type": "address"
            },
            {
              "internalType": "uint256",
              "name": "_timestamp",
              "type": "uint256"
            },
            {
              "internalType": "string",
              "name": "_signature",
              "type": "string"
            }
          ],
          "internalType": "struct SharedChain.Request[]",
          "name": "",
          "type": "tuple[]"
        }
      ],
      "stateMutability": "view",
      "type": "function"
    }
  ],
  "bytecode": "0x60806040526000600355600060055560006007556000600a556000600d5534801561002957600080fd5b50336000806101000a81548173ffffffffffffffffffffffffffffffffffffffff021916908373ffffffffffffffffffffffffffffffffffffffff16021790555033600460006101000a81548173ffffffffffffffffffffffffffffffffffffffff021916908373ffffffffffffffffffffffffffffffffffffffff16021790555061576380620000bb6000396000f3fe608060405234801561001057600080fd5b50600436106101c45760003560e01c8063840e78fd116100f9578063d210ce0511610097578063e2842d7911610071578063e2842d7914610576578063f46d4b8a14610594578063fb1a002a146105b0578063fe360ea5146105ce576101c4565b8063d210ce0514610520578063d67b1b991461053c578063e1592c0d1461055a576101c4565b8063a87430ba116100d3578063a87430ba14610476578063c19ded13146104ad578063cc1ee4db146104e6578063cf13f5d414610504576101c4565b8063840e78fd146104055780638da5cb5b1461043c578063910097861461045a576101c4565b806356a3eead1161016657806376c932e01161014057806376c932e01461034d57806378e8cd851461037d57806380d03829146103ad57806381d12c58146103cb576101c4565b806356a3eead146102cf5780636386c1c7146102ff578063663c22691461032f576101c4565b80632d757d8e116101a25780632d757d8e14610247578063400003db1461026357806347ee45b9146102815780634d93500d146102b1576101c4565b80630b287892146101c957806317e8c952146101f95780632c91324c14610217575b600080fd5b6101e360048036038101906101de9190613c34565b6105ec565b6040516101f09190613edb565b60405180910390f35b6102016109b4565b60405161020e9190613f0c565b60405180910390f35b610231600480360381019061022c9190613f53565b610a45565b60405161023e9190613f0c565b60405180910390f35b610261600480360381019061025c91906140b5565b610a84565b005b61026b610bff565b6040516102789190614332565b60405180910390f35b61029b60048036038101906102969190613c34565b610f94565b6040516102a8919061440b565b60405180910390f35b6102b9611217565b6040516102c69190613f0c565b60405180910390f35b6102e960048036038101906102e49190613f53565b6112a8565b6040516102f69190613f0c565b60405180910390f35b61031960048036038101906103149190613c34565b6112e7565b6040516103269190614525565b60405180910390f35b610337611496565b6040516103449190614556565b60405180910390f35b61036760048036038101906103629190613f53565b61149c565b6040516103749190613f0c565b60405180910390f35b61039760048036038101906103929190613f53565b6114db565b6040516103a49190613f0c565b60405180910390f35b6103b561151a565b6040516103c291906146ea565b60405180910390f35b6103e560048036038101906103e09190613f53565b61187a565b6040516103fc9b9a999897969594939291906147cb565b60405180910390f35b61041f600480360381019061041a9190613c34565b6119e3565b60405161043398979695949392919061487d565b60405180910390f35b610444611b88565b6040516104519190613f0c565b60405180910390f35b610474600480360381019061046f9190614909565b611bac565b005b610490600480360381019061048b9190613c34565b611e06565b6040516104a4989796959493929190614958565b60405180910390f35b6104c760048036038101906104c29190613f53565b611f03565b6040516104dd9a999897969594939291906149dd565b60405180910390f35b6104ee6120e1565b6040516104fb9190614556565b60405180910390f35b61051e60048036038101906105199190614ab3565b6120e7565b005b61053a60048036038101906105359190614b5c565b612409565b005b6105446127d5565b6040516105519190614556565b60405180910390f35b610574600480360381019061056f9190614c05565b6127db565b005b61057e612aac565b60405161058b9190614e02565b60405180910390f35b6105ae60048036038101906105a99190614e24565b612d38565b005b6105b861303b565b6040516105c59190615097565b60405180910390f35b6105d661336f565b6040516105e39190614556565b60405180910390f35b6105f4613892565b6105fc613892565b6000600a5411156109aa5760006001600a5461061891906150e8565b90505b600081106109a8576009600082815260200190815260200160002060030160029054906101000a900473ffffffffffffffffffffffffffffffffffffffff1673ffffffffffffffffffffffffffffffffffffffff168473ffffffffffffffffffffffffffffffffffffffff1614156109955760405180610140016040528060096000848152602001908152602001600020600001548152602001600960008481526020019081526020016000206001015481526020016009600084815260200190815260200160002060020180546106f29061514b565b80601f016020809104026020016040519081016040528092919081815260200182805461071e9061514b565b801561076b5780601f106107405761010080835404028352916020019161076b565b820191906000526020600020905b81548152906001019060200180831161074e57829003601f168201915b505050505081526020016009600084815260200190815260200160002060030160009054906101000a900460ff1660048111156107ab576107aa613d2c565b5b81526020016009600084815260200190815260200160002060030160019054906101000a900460ff1660028111156107e6576107e5613d2c565b5b81526020016009600084815260200190815260200160002060030160029054906101000a900473ffffffffffffffffffffffffffffffffffffffff1673ffffffffffffffffffffffffffffffffffffffff1681526020016009600084815260200190815260200160002060040160009054906101000a900473ffffffffffffffffffffffffffffffffffffffff1673ffffffffffffffffffffffffffffffffffffffff1681526020016009600084815260200190815260200160002060050160009054906101000a900473ffffffffffffffffffffffffffffffffffffffff1673ffffffffffffffffffffffffffffffffffffffff1681526020014281526020016009600084815260200190815260200160002060070180546109089061514b565b80601f01602080910402602001604051908101604052809291908181526020018280546109349061514b565b80156109815780601f1061095657610100808354040283529160200191610981565b820191906000526020600020905b81548152906001019060200180831161096457829003601f168201915b5050505050815250915081925050506109af565b80806109a09061517d565b91505061061b565b505b809150505b919050565b6000600560008154809291906109c9906151a7565b91905055507f6373643f2e213f2a73616c61733b646c412e3b735f6173000000000000000000600460009054906101000a900473ffffffffffffffffffffffffffffffffffffffff16600554604051602001610a279392919061527a565b6040516020818303038152906040528051906020012060001c905090565b60028181548110610a5557600080fd5b906000526020600020016000915054906101000a900473ffffffffffffffffffffffffffffffffffffffff1681565b836002811115610a9757610a96613d2c565b5b600c600089815260200190815260200160002060030160006101000a81548160ff02191690836002811115610acf57610ace613d2c565b5b021790555080600c60008981526020019081526020016000206007019080519060200190610afe92919061394e565b5084600960008881526020019081526020016000206002019080519060200190610b2992919061394e565b50836002811115610b3d57610b3c613d2c565b5b6009600088815260200190815260200160002060030160016101000a81548160ff02191690836002811115610b7557610b74613d2c565b5b0217905550826004811115610b8d57610b8c613d2c565b5b600660008473ffffffffffffffffffffffffffffffffffffffff1673ffffffffffffffffffffffffffffffffffffffff16815260200190815260200160002060020160006101000a81548160ff02191690836004811115610bf157610bf0613d2c565b5b021790555050505050505050565b6060806000600a541415610c165780915050610f91565b600a5467ffffffffffffffff811115610c3257610c31613f8a565b5b604051908082528060200260200182016040528015610c6b57816020015b610c58613892565b815260200190600190039081610c505790505b50905060005b600754811015610f8b57600060096000838152602001908152602001600020905080604051806101400160405290816000820154815260200160018201548152602001600282018054610cc39061514b565b80601f0160208091040260200160405190810160405280929190818152602001828054610cef9061514b565b8015610d3c5780601f10610d1157610100808354040283529160200191610d3c565b820191906000526020600020905b815481529060010190602001808311610d1f57829003601f168201915b505050505081526020016003820160009054906101000a900460ff166004811115610d6a57610d69613d2c565b5b6004811115610d7c57610d7b613d2c565b5b81526020016003820160019054906101000a900460ff166002811115610da557610da4613d2c565b5b6002811115610db757610db6613d2c565b5b81526020016003820160029054906101000a900473ffffffffffffffffffffffffffffffffffffffff1673ffffffffffffffffffffffffffffffffffffffff1673ffffffffffffffffffffffffffffffffffffffff1681526020016004820160009054906101000a900473ffffffffffffffffffffffffffffffffffffffff1673ffffffffffffffffffffffffffffffffffffffff1673ffffffffffffffffffffffffffffffffffffffff1681526020016005820160009054906101000a900473ffffffffffffffffffffffffffffffffffffffff1673ffffffffffffffffffffffffffffffffffffffff1673ffffffffffffffffffffffffffffffffffffffff16815260200160068201548152602001600782018054610ed79061514b565b80601f0160208091040260200160405190810160405280929190818152602001828054610f039061514b565b8015610f505780601f10610f2557610100808354040283529160200191610f50565b820191906000526020600020905b815481529060010190602001808311610f3357829003601f168201915b505050505081525050838381518110610f6c57610f6b6152b7565b5b6020026020010181905250508080610f83906151a7565b915050610c71565b50809150505b90565b610f9c6139d4565b600660008373ffffffffffffffffffffffffffffffffffffffff1673ffffffffffffffffffffffffffffffffffffffff1681526020019081526020016000206040518061010001604052908160008201548152602001600182015481526020016002820160009054906101000a900460ff1660048111156110205761101f613d2c565b5b600481111561103257611031613d2c565b5b81526020016003820180546110469061514b565b80601f01602080910402602001604051908101604052809291908181526020018280546110729061514b565b80156110bf5780601f10611094576101008083540402835291602001916110bf565b820191906000526020600020905b8154815290600101906020018083116110a257829003601f168201915b505050505081526020016004820160009054906101000a900473ffffffffffffffffffffffffffffffffffffffff1673ffffffffffffffffffffffffffffffffffffffff1673ffffffffffffffffffffffffffffffffffffffff1681526020016005820160009054906101000a900473ffffffffffffffffffffffffffffffffffffffff1673ffffffffffffffffffffffffffffffffffffffff1673ffffffffffffffffffffffffffffffffffffffff1681526020016006820154815260200160078201805461118e9061514b565b80601f01602080910402602001604051908101604052809291908181526020018280546111ba9061514b565b80156112075780601f106111dc57610100808354040283529160200191611207565b820191906000526020600020905b8154815290600101906020018083116111ea57829003601f168201915b5050505050815250509050919050565b60006005600081548092919061122c906151a7565b91905055507f6373643f534073616c61733b646c413233345f442e3b735f6173000000000000600460009054906101000a900473ffffffffffffffffffffffffffffffffffffffff1660055460405160200161128a9392919061527a565b6040516020818303038152906040528051906020012060001c905090565b600e81815481106112b857600080fd5b906000526020600020016000915054906101000a900473ffffffffffffffffffffffffffffffffffffffff1681565b6112ef613a5a565b600160008373ffffffffffffffffffffffffffffffffffffffff1673ffffffffffffffffffffffffffffffffffffffff16815260200190815260200160002060405180610100016040529081600082015481526020016001820180546113549061514b565b80601f01602080910402602001604051908101604052809291908181526020018280546113809061514b565b80156113cd5780601f106113a2576101008083540402835291602001916113cd565b820191906000526020600020905b8154815290600101906020018083116113b057829003601f168201915b505050505081526020016002820154815260200160038201548152602001600482015481526020016005820160009054906101000a900460ff16600381111561141957611418613d2c565b5b600381111561142b5761142a613d2c565b5b81526020016005820160019054906101000a900473ffffffffffffffffffffffffffffffffffffffff1673ffffffffffffffffffffffffffffffffffffffff1673ffffffffffffffffffffffffffffffffffffffff1681526020016006820154815250509050919050565b600d5481565b600881815481106114ac57600080fd5b906000526020600020016000915054906101000a900473ffffffffffffffffffffffffffffffffffffffff1681565b600b81815481106114eb57600080fd5b906000526020600020016000915054906101000a900473ffffffffffffffffffffffffffffffffffffffff1681565b6060600060075467ffffffffffffffff81111561153a57611539613f8a565b5b60405190808252806020026020018201604052801561157357816020015b6115606139d4565b8152602001906001900390816115585790505b50905060005b60075481101561187257600060088281548110611599576115986152b7565b5b9060005260206000200160009054906101000a900473ffffffffffffffffffffffffffffffffffffffff1690506000600660008373ffffffffffffffffffffffffffffffffffffffff1673ffffffffffffffffffffffffffffffffffffffff1681526020019081526020016000209050806040518061010001604052908160008201548152602001600182015481526020016002820160009054906101000a900460ff16600481111561164f5761164e613d2c565b5b600481111561166157611660613d2c565b5b81526020016003820180546116759061514b565b80601f01602080910402602001604051908101604052809291908181526020018280546116a19061514b565b80156116ee5780601f106116c3576101008083540402835291602001916116ee565b820191906000526020600020905b8154815290600101906020018083116116d157829003601f168201915b505050505081526020016004820160009054906101000a900473ffffffffffffffffffffffffffffffffffffffff1673ffffffffffffffffffffffffffffffffffffffff1673ffffffffffffffffffffffffffffffffffffffff1681526020016005820160009054906101000a900473ffffffffffffffffffffffffffffffffffffffff1673ffffffffffffffffffffffffffffffffffffffff1673ffffffffffffffffffffffffffffffffffffffff168152602001600682015481526020016007820180546117bd9061514b565b80601f01602080910402602001604051908101604052809291908181526020018280546117e99061514b565b80156118365780601f1061180b57610100808354040283529160200191611836565b820191906000526020600020905b81548152906001019060200180831161181957829003601f168201915b505050505081525050848481518110611852576118516152b7565b5b60200260200101819052505050808061186a906151a7565b915050611579565b508091505090565b600c6020528060005260406000206000915090508060000154908060010154908060020154908060030160009054906101000a900460ff16908060030160019054906101000a900460ff16908060030160029054906101000a900460ff16908060030160039054906101000a900473ffffffffffffffffffffffffffffffffffffffff16908060040160009054906101000a900473ffffffffffffffffffffffffffffffffffffffff16908060050160009054906101000a900473ffffffffffffffffffffffffffffffffffffffff16908060060154908060070180546119609061514b565b80601f016020809104026020016040519081016040528092919081815260200182805461198c9061514b565b80156119d95780601f106119ae576101008083540402835291602001916119d9565b820191906000526020600020905b8154815290600101906020018083116119bc57829003601f168201915b505050505090508b565b60066020528060005260406000206000915090508060000154908060010154908060020160009054906101000a900460ff1690806003018054611a259061514b565b80601f0160208091040260200160405190810160405280929190818152602001828054611a519061514b565b8015611a9e5780601f10611a7357610100808354040283529160200191611a9e565b820191906000526020600020905b815481529060010190602001808311611a8157829003601f168201915b5050505050908060040160009054906101000a900473ffffffffffffffffffffffffffffffffffffffff16908060050160009054906101000a900473ffffffffffffffffffffffffffffffffffffffff1690806006015490806007018054611b059061514b565b80601f0160208091040260200160405190810160405280929190818152602001828054611b319061514b565b8015611b7e5780601f10611b5357610100808354040283529160200191611b7e565b820191906000526020600020905b815481529060010190602001808311611b6157829003601f168201915b5050505050905088565b60008054906101000a900473ffffffffffffffffffffffffffffffffffffffff1681565b816003811115611bbf57611bbe613d2c565b5b600160008373ffffffffffffffffffffffffffffffffffffffff1673ffffffffffffffffffffffffffffffffffffffff16815260200190815260200160002060050160006101000a81548160ff02191690836003811115611c2357611c22613d2c565b5b02179055508073ffffffffffffffffffffffffffffffffffffffff16826003811115611c5257611c51613d2c565b5b6003811115611c6457611c63613d2c565b5b600160008473ffffffffffffffffffffffffffffffffffffffff1673ffffffffffffffffffffffffffffffffffffffff168152602001908152602001600020600101604051611cb39190615385565b60405180910390207ff17f3effabbd51830c4ffa8b6910ac12573d210009e0aedb1a55ae5026192e9a600160008673ffffffffffffffffffffffffffffffffffffffff1673ffffffffffffffffffffffffffffffffffffffff16815260200190815260200160002060000154600160008773ffffffffffffffffffffffffffffffffffffffff1673ffffffffffffffffffffffffffffffffffffffff16815260200190815260200160002060020154600160008873ffffffffffffffffffffffffffffffffffffffff1673ffffffffffffffffffffffffffffffffffffffff16815260200190815260200160002060030154600160008973ffffffffffffffffffffffffffffffffffffffff1673ffffffffffffffffffffffffffffffffffffffff1681526020019081526020016000206004015442604051611dfa95949392919061539c565b60405180910390a45050565b6001602052806000526040600020600091509050806000015490806001018054611e2f9061514b565b80601f0160208091040260200160405190810160405280929190818152602001828054611e5b9061514b565b8015611ea85780601f10611e7d57610100808354040283529160200191611ea8565b820191906000526020600020905b815481529060010190602001808311611e8b57829003601f168201915b5050505050908060020154908060030154908060040154908060050160009054906101000a900460ff16908060050160019054906101000a900473ffffffffffffffffffffffffffffffffffffffff16908060060154905088565b6009602052806000526040600020600091509050806000015490806001015490806002018054611f329061514b565b80601f0160208091040260200160405190810160405280929190818152602001828054611f5e9061514b565b8015611fab5780601f10611f8057610100808354040283529160200191611fab565b820191906000526020600020905b815481529060010190602001808311611f8e57829003601f168201915b5050505050908060030160009054906101000a900460ff16908060030160019054906101000a900460ff16908060030160029054906101000a900473ffffffffffffffffffffffffffffffffffffffff16908060040160009054906101000a900473ffffffffffffffffffffffffffffffffffffffff16908060050160009054906101000a900473ffffffffffffffffffffffffffffffffffffffff169080600601549080600701805461205e9061514b565b80601f016020809104026020016040519081016040528092919081815260200182805461208a9061514b565b80156120d75780601f106120ac576101008083540402835291602001916120d7565b820191906000526020600020905b8154815290600101906020018083116120ba57829003601f168201915b505050505090508a565b600a5481565b3373ffffffffffffffffffffffffffffffffffffffff1660008054906101000a900473ffffffffffffffffffffffffffffffffffffffff1673ffffffffffffffffffffffffffffffffffffffff1614612175576040517f08c379a000000000000000000000000000000000000000000000000000000000815260040161216c9061543b565b60405180910390fd5b60405180610100016040528060035481526020018781526020018681526020018581526020018481526020018360038111156121b4576121b3613d2c565b5b60038111156121c6576121c5613d2c565b5b81526020018273ffffffffffffffffffffffffffffffffffffffff16815260200142815250600160008373ffffffffffffffffffffffffffffffffffffffff1673ffffffffffffffffffffffffffffffffffffffff16815260200190815260200160002060008201518160000155602082015181600101908051906020019061225092919061394e565b5060408201518160020155606082015181600301556080820151816004015560a08201518160050160006101000a81548160ff0219169083600381111561229a57612299613d2c565b5b021790555060c08201518160050160016101000a81548173ffffffffffffffffffffffffffffffffffffffff021916908373ffffffffffffffffffffffffffffffffffffffff16021790555060e082015181600601559050508073ffffffffffffffffffffffffffffffffffffffff1682600381111561231d5761231c613d2c565b5b600381111561232f5761232e613d2c565b5b8760405161233d919061548c565b60405180910390207ff17f3effabbd51830c4ffa8b6910ac12573d210009e0aedb1a55ae5026192e9a6003548989894260405161237e95949392919061539c565b60405180910390a46002819080600181540180825580915050600190039060005260206000200160009091909190916101000a81548173ffffffffffffffffffffffffffffffffffffffff021916908373ffffffffffffffffffffffffffffffffffffffff160217905550600360008154809291906123fc906151a7565b9190505550505050505050565b604051806101400160405280600a54815260200187815260200160405180602001604052806000815250815260200186600481111561244b5761244a613d2c565b5b600481111561245d5761245c613d2c565b5b815260200185600281111561247557612474613d2c565b5b600281111561248757612486613d2c565b5b81526020018473ffffffffffffffffffffffffffffffffffffffff168152602001600460009054906101000a900473ffffffffffffffffffffffffffffffffffffffff1673ffffffffffffffffffffffffffffffffffffffff1681526020018373ffffffffffffffffffffffffffffffffffffffff1681526020014281526020018281525060096000600a5481526020019081526020016000206000820151816000015560208201518160010155604082015181600201908051906020019061255192919061394e565b5060608201518160030160006101000a81548160ff0219169083600481111561257d5761257c613d2c565b5b021790555060808201518160030160016101000a81548160ff021916908360028111156125ad576125ac613d2c565b5b021790555060a08201518160030160026101000a81548173ffffffffffffffffffffffffffffffffffffffff021916908373ffffffffffffffffffffffffffffffffffffffff16021790555060c08201518160040160006101000a81548173ffffffffffffffffffffffffffffffffffffffff021916908373ffffffffffffffffffffffffffffffffffffffff16021790555060e08201518160050160006101000a81548173ffffffffffffffffffffffffffffffffffffffff021916908373ffffffffffffffffffffffffffffffffffffffff16021790555061010082015181600601556101208201518160070190805190602001906126af92919061394e565b509050506126c3600a548786888787613375565b7f7c2cee03a4cddb6435d0bc7e59bd9a94142380a47bf8ead53d62091b274da965600a54878760048111156126fb576126fa613d2c565b5b87600281111561270e5761270d613d2c565b5b87600460009054906101000a900473ffffffffffffffffffffffffffffffffffffffff1688428960405161274a999897969594939291906154c9565b60405180910390a1600b829080600181540180825580915050600190039060005260206000200160009091909190916101000a81548173ffffffffffffffffffffffffffffffffffffffff021916908373ffffffffffffffffffffffffffffffffffffffff160217905550600a60008154809291906127c8906151a7565b9190505550505050505050565b60035481565b81600660008573ffffffffffffffffffffffffffffffffffffffff1673ffffffffffffffffffffffffffffffffffffffff168152602001908152602001600020600301908051906020019061283192919061394e565b5080600660008573ffffffffffffffffffffffffffffffffffffffff1673ffffffffffffffffffffffffffffffffffffffff168152602001908152602001600020600701908051906020019061288892919061394e565b507fcde950623bdaadd4f1c9770d7dbd93064fb50de6bd0c5762c48a7cbff7faae57600660008573ffffffffffffffffffffffffffffffffffffffff1673ffffffffffffffffffffffffffffffffffffffff16815260200190815260200160002060000154600660008673ffffffffffffffffffffffffffffffffffffffff1673ffffffffffffffffffffffffffffffffffffffff16815260200190815260200160002060010154600660008773ffffffffffffffffffffffffffffffffffffffff1673ffffffffffffffffffffffffffffffffffffffff16815260200190815260200160002060020160009054906101000a900460ff16600660008873ffffffffffffffffffffffffffffffffffffffff1673ffffffffffffffffffffffffffffffffffffffff168152602001908152602001600020600301600660008973ffffffffffffffffffffffffffffffffffffffff1673ffffffffffffffffffffffffffffffffffffffff16815260200190815260200160002060040160009054906101000a900473ffffffffffffffffffffffffffffffffffffffff16600460009054906101000a900473ffffffffffffffffffffffffffffffffffffffff1642600660008c73ffffffffffffffffffffffffffffffffffffffff1673ffffffffffffffffffffffffffffffffffffffff168152602001908152602001600020600701604051612a9f9897969594939291906155f1565b60405180910390a1505050565b6060600060035467ffffffffffffffff811115612acc57612acb613f8a565b5b604051908082528060200260200182016040528015612b0557816020015b612af2613a5a565b815260200190600190039081612aea5790505b50905060005b600354811015612d3057600060028281548110612b2b57612b2a6152b7565b5b9060005260206000200160009054906101000a900473ffffffffffffffffffffffffffffffffffffffff1690506000600160008373ffffffffffffffffffffffffffffffffffffffff1673ffffffffffffffffffffffffffffffffffffffff1681526020019081526020016000209050806040518061010001604052908160008201548152602001600182018054612bc29061514b565b80601f0160208091040260200160405190810160405280929190818152602001828054612bee9061514b565b8015612c3b5780601f10612c1057610100808354040283529160200191612c3b565b820191906000526020600020905b815481529060010190602001808311612c1e57829003601f168201915b505050505081526020016002820154815260200160038201548152602001600482015481526020016005820160009054906101000a900460ff166003811115612c8757612c86613d2c565b5b6003811115612c9957612c98613d2c565b5b81526020016005820160019054906101000a900473ffffffffffffffffffffffffffffffffffffffff1673ffffffffffffffffffffffffffffffffffffffff1673ffffffffffffffffffffffffffffffffffffffff168152602001600682015481525050848481518110612d1057612d0f6152b7565b5b602002602001018190525050508080612d28906151a7565b915050612b0b565b508091505090565b6040518061010001604052806007548152602001858152602001846004811115612d6557612d64613d2c565b5b6004811115612d7757612d76613d2c565b5b81526020018381526020018673ffffffffffffffffffffffffffffffffffffffff168152602001600460009054906101000a900473ffffffffffffffffffffffffffffffffffffffff1673ffffffffffffffffffffffffffffffffffffffff16815260200142815260200182815250600660008773ffffffffffffffffffffffffffffffffffffffff1673ffffffffffffffffffffffffffffffffffffffff168152602001908152602001600020600082015181600001556020820151816001015560408201518160020160006101000a81548160ff02191690836004811115612e6457612e63613d2c565b5b02179055506060820151816003019080519060200190612e8592919061394e565b5060808201518160040160006101000a81548173ffffffffffffffffffffffffffffffffffffffff021916908373ffffffffffffffffffffffffffffffffffffffff16021790555060a08201518160050160006101000a81548173ffffffffffffffffffffffffffffffffffffffff021916908373ffffffffffffffffffffffffffffffffffffffff16021790555060c0820151816006015560e0820151816007019080519060200190612f3a92919061394e565b509050507fcde950623bdaadd4f1c9770d7dbd93064fb50de6bd0c5762c48a7cbff7faae5760075485856004811115612f7657612f75613d2c565b5b8589600460009054906101000a900473ffffffffffffffffffffffffffffffffffffffff164288604051612fb198979695949392919061487d565b60405180910390a16008859080600181540180825580915050600190039060005260206000200160009091909190916101000a81548173ffffffffffffffffffffffffffffffffffffffff021916908373ffffffffffffffffffffffffffffffffffffffff1602179055506007600081548092919061302f906151a7565b91905055505050505050565b60606000600d5467ffffffffffffffff81111561305b5761305a613f8a565b5b60405190808252806020026020018201604052801561309457816020015b613081613ad0565b8152602001906001900390816130795790505b50905060005b600d54811015613367576000600c6000838152602001908152602001600020905080604051806101600160405290816000820154815260200160018201548152602001600282015481526020016003820160009054906101000a900460ff16600281111561310b5761310a613d2c565b5b600281111561311d5761311c613d2c565b5b81526020016003820160019054906101000a900460ff16600481111561314657613145613d2c565b5b600481111561315857613157613d2c565b5b81526020016003820160029054906101000a900460ff16600181111561318157613180613d2c565b5b600181111561319357613192613d2c565b5b81526020016003820160039054906101000a900473ffffffffffffffffffffffffffffffffffffffff1673ffffffffffffffffffffffffffffffffffffffff1673ffffffffffffffffffffffffffffffffffffffff1681526020016004820160009054906101000a900473ffffffffffffffffffffffffffffffffffffffff1673ffffffffffffffffffffffffffffffffffffffff1673ffffffffffffffffffffffffffffffffffffffff1681526020016005820160009054906101000a900473ffffffffffffffffffffffffffffffffffffffff1673ffffffffffffffffffffffffffffffffffffffff1673ffffffffffffffffffffffffffffffffffffffff168152602001600682015481526020016007820180546132b39061514b565b80601f01602080910402602001604051908101604052809291908181526020018280546132df9061514b565b801561332c5780601f106133015761010080835404028352916020019161332c565b820191906000526020600020905b81548152906001019060200180831161330f57829003601f168201915b505050505081525050838381518110613348576133476152b7565b5b602002602001018190525050808061335f906151a7565b91505061309a565b508091505090565b60075481565b60006001600481111561338b5761338a613d2c565b5b84600481111561339e5761339d613d2c565b5b60048111156133b0576133af613d2c565b5b14806133f25750600360048111156133cb576133ca613d2c565b5b8460048111156133de576133dd613d2c565b5b60048111156133f0576133ef613d2c565b5b145b80613432575060048081111561340b5761340a613d2c565b5b84600481111561341e5761341d613d2c565b5b60048111156134305761342f613d2c565b5b145b156134405760009050613485565b6002600481111561345457613453613d2c565b5b84600481111561346757613466613d2c565b5b600481111561347957613478613d2c565b5b141561348457600190505b5b6134948787878785888861349d565b50505050505050565b604051806101600160405280600d5481526020018881526020018781526020018660028111156134d0576134cf613d2c565b5b60028111156134e2576134e1613d2c565b5b81526020018560048111156134fa576134f9613d2c565b5b600481111561350c5761350b613d2c565b5b815260200184600181111561352457613523613d2c565b5b81526020018373ffffffffffffffffffffffffffffffffffffffff168152602001600460009054906101000a900473ffffffffffffffffffffffffffffffffffffffff1673ffffffffffffffffffffffffffffffffffffffff1681526020018273ffffffffffffffffffffffffffffffffffffffff16815260200142815260200160405180602001604052806000815250815250600c6000600d54815260200190815260200160002060008201518160000155602082015181600101556040820151816002015560608201518160030160006101000a81548160ff0219169083600281111561361657613615613d2c565b5b021790555060808201518160030160016101000a81548160ff0219169083600481111561364657613645613d2c565b5b021790555060a08201518160030160026101000a81548160ff0219169083600181111561367657613675613d2c565b5b021790555060c08201518160030160036101000a81548173ffffffffffffffffffffffffffffffffffffffff021916908373ffffffffffffffffffffffffffffffffffffffff16021790555060e08201518160040160006101000a81548173ffffffffffffffffffffffffffffffffffffffff021916908373ffffffffffffffffffffffffffffffffffffffff1602179055506101008201518160050160006101000a81548173ffffffffffffffffffffffffffffffffffffffff021916908373ffffffffffffffffffffffffffffffffffffffff160217905550610120820151816006015561014082015181600701908051906020019061377992919061394e565b509050507fd4b969e56d1e1f6ea9255e6df54d2edcd62299d8a2baf5804e3f5beef56c4390600d5488888860028111156137b6576137b5613d2c565b5b8860048111156137c9576137c8613d2c565b5b8888600460009054906101000a900473ffffffffffffffffffffffffffffffffffffffff1689426040516138069a9998979695949392919061567d565b60405180910390a1600e819080600181540180825580915050600190039060005260206000200160009091909190916101000a81548173ffffffffffffffffffffffffffffffffffffffff021916908373ffffffffffffffffffffffffffffffffffffffff160217905550600d6000815480929190613884906151a7565b919050555050505050505050565b604051806101400160405280600081526020016000801916815260200160608152602001600060048111156138ca576138c9613d2c565b5b8152602001600060028111156138e3576138e2613d2c565b5b8152602001600073ffffffffffffffffffffffffffffffffffffffff168152602001600073ffffffffffffffffffffffffffffffffffffffff168152602001600073ffffffffffffffffffffffffffffffffffffffff16815260200160008152602001606081525090565b82805461395a9061514b565b90600052602060002090601f01602090048101928261397c57600085556139c3565b82601f1061399557805160ff19168380011785556139c3565b828001600101855582156139c3579182015b828111156139c25782518255916020019190600101906139a7565b5b5090506139d09190613ba5565b5090565b604051806101000160405280600081526020016000801916815260200160006004811115613a0557613a04613d2c565b5b815260200160608152602001600073ffffffffffffffffffffffffffffffffffffffff168152602001600073ffffffffffffffffffffffffffffffffffffffff16815260200160008152602001606081525090565b604051806101000160405280600081526020016060815260200160008019168152602001600080191681526020016000801916815260200160006003811115613aa657613aa5613d2c565b5b8152602001600073ffffffffffffffffffffffffffffffffffffffff168152602001600081525090565b60405180610160016040528060008152602001600081526020016000801916815260200160006002811115613b0857613b07613d2c565b5b815260200160006004811115613b2157613b20613d2c565b5b815260200160006001811115613b3a57613b39613d2c565b5b8152602001600073ffffffffffffffffffffffffffffffffffffffff168152602001600073ffffffffffffffffffffffffffffffffffffffff168152602001600073ffffffffffffffffffffffffffffffffffffffff16815260200160008152602001606081525090565b5b80821115613bbe576000816000905550600101613ba6565b5090565b6000604051905090565b600080fd5b600080fd5b600073ffffffffffffffffffffffffffffffffffffffff82169050919050565b6000613c0182613bd6565b9050919050565b613c1181613bf6565b8114613c1c57600080fd5b50565b600081359050613c2e81613c08565b92915050565b600060208284031215613c4a57613c49613bcc565b5b6000613c5884828501613c1f565b91505092915050565b6000819050919050565b613c7481613c61565b82525050565b6000819050919050565b613c8d81613c7a565b82525050565b600081519050919050565b600082825260208201905092915050565b60005b83811015613ccd578082015181840152602081019050613cb2565b83811115613cdc576000848401525b50505050565b6000601f19601f8301169050919050565b6000613cfe82613c93565b613d088185613c9e565b9350613d18818560208601613caf565b613d2181613ce2565b840191505092915050565b7f4e487b7100000000000000000000000000000000000000000000000000000000600052602160045260246000fd5b60058110613d6c57613d6b613d2c565b5b50565b6000819050613d7d82613d5b565b919050565b6000613d8d82613d6f565b9050919050565b613d9d81613d82565b82525050565b60038110613db457613db3613d2c565b5b50565b6000819050613dc582613da3565b919050565b6000613dd582613db7565b9050919050565b613de581613dca565b82525050565b613df481613bf6565b82525050565b600061014083016000830151613e136000860182613c6b565b506020830151613e266020860182613c84565b5060408301518482036040860152613e3e8282613cf3565b9150506060830151613e536060860182613d94565b506080830151613e666080860182613ddc565b5060a0830151613e7960a0860182613deb565b5060c0830151613e8c60c0860182613deb565b5060e0830151613e9f60e0860182613deb565b50610100830151613eb4610100860182613c6b565b50610120830151848203610120860152613ece8282613cf3565b9150508091505092915050565b60006020820190508181036000830152613ef58184613dfa565b905092915050565b613f0681613bf6565b82525050565b6000602082019050613f216000830184613efd565b92915050565b613f3081613c61565b8114613f3b57600080fd5b50565b600081359050613f4d81613f27565b92915050565b600060208284031215613f6957613f68613bcc565b5b6000613f7784828501613f3e565b91505092915050565b600080fd5b600080fd5b7f4e487b7100000000000000000000000000000000000000000000000000000000600052604160045260246000fd5b613fc282613ce2565b810181811067ffffffffffffffff82111715613fe157613fe0613f8a565b5b80604052505050565b6000613ff4613bc2565b90506140008282613fb9565b919050565b600067ffffffffffffffff8211156140205761401f613f8a565b5b61402982613ce2565b9050602081019050919050565b82818337600083830152505050565b600061405861405384614005565b613fea565b90508281526020810184848401111561407457614073613f85565b5b61407f848285614036565b509392505050565b600082601f83011261409c5761409b613f80565b5b81356140ac848260208601614045565b91505092915050565b600080600080600080600060e0888a0312156140d4576140d3613bcc565b5b60006140e28a828b01613f3e565b97505060206140f38a828b01613f3e565b965050604088013567ffffffffffffffff81111561411457614113613bd1565b5b6141208a828b01614087565b95505060606141318a828b01613f3e565b94505060806141428a828b01613f3e565b93505060a06141538a828b01613c1f565b92505060c088013567ffffffffffffffff81111561417457614173613bd1565b5b6141808a828b01614087565b91505092959891949750929550565b600081519050919050565b600082825260208201905092915050565b6000819050602082019050919050565b6000610140830160008301516141d46000860182613c6b565b5060208301516141e76020860182613c84565b50604083015184820360408601526141ff8282613cf3565b91505060608301516142146060860182613d94565b5060808301516142276080860182613ddc565b5060a083015161423a60a0860182613deb565b5060c083015161424d60c0860182613deb565b5060e083015161426060e0860182613deb565b50610100830151614275610100860182613c6b565b5061012083015184820361012086015261428f8282613cf3565b9150508091505092915050565b60006142a883836141bb565b905092915050565b6000602082019050919050565b60006142c88261418f565b6142d2818561419a565b9350836020820285016142e4856141ab565b8060005b858110156143205784840389528151614301858261429c565b945061430c836142b0565b925060208a019950506001810190506142e8565b50829750879550505050505092915050565b6000602082019050818103600083015261434c81846142bd565b905092915050565b60006101008301600083015161436d6000860182613c6b565b5060208301516143806020860182613c84565b5060408301516143936040860182613d94565b50606083015184820360608601526143ab8282613cf3565b91505060808301516143c06080860182613deb565b5060a08301516143d360a0860182613deb565b5060c08301516143e660c0860182613c6b565b5060e083015184820360e08601526143fe8282613cf3565b9150508091505092915050565b600060208201905081810360008301526144258184614354565b905092915050565b6004811061443e5761443d613d2c565b5b50565b600081905061444f8261442d565b919050565b600061445f82614441565b9050919050565b61446f81614454565b82525050565b60006101008301600083015161448e6000860182613c6b565b50602083015184820360208601526144a68282613cf3565b91505060408301516144bb6040860182613c84565b5060608301516144ce6060860182613c84565b5060808301516144e16080860182613c84565b5060a08301516144f460a0860182614466565b5060c083015161450760c0860182613deb565b5060e083015161451a60e0860182613c6b565b508091505092915050565b6000602082019050818103600083015261453f8184614475565b905092915050565b61455081613c61565b82525050565b600060208201905061456b6000830184614547565b92915050565b600081519050919050565b600082825260208201905092915050565b6000819050602082019050919050565b6000610100830160008301516145b66000860182613c6b565b5060208301516145c96020860182613c84565b5060408301516145dc6040860182613d94565b50606083015184820360608601526145f48282613cf3565b91505060808301516146096080860182613deb565b5060a083015161461c60a0860182613deb565b5060c083015161462f60c0860182613c6b565b5060e083015184820360e08601526146478282613cf3565b9150508091505092915050565b6000614660838361459d565b905092915050565b6000602082019050919050565b600061468082614571565b61468a818561457c565b93508360208202850161469c8561458d565b8060005b858110156146d857848403895281516146b98582614654565b94506146c483614668565b925060208a019950506001810190506146a0565b50829750879550505050505092915050565b600060208201905081810360008301526147048184614675565b905092915050565b61471581613c7a565b82525050565b61472481613dca565b82525050565b61473381613d82565b82525050565b6002811061474a57614749613d2c565b5b50565b600081905061475b82614739565b919050565b600061476b8261474d565b9050919050565b61477b81614760565b82525050565b600082825260208201905092915050565b600061479d82613c93565b6147a78185614781565b93506147b7818560208601613caf565b6147c081613ce2565b840191505092915050565b6000610160820190506147e1600083018e614547565b6147ee602083018d614547565b6147fb604083018c61470c565b614808606083018b61471b565b614815608083018a61472a565b61482260a0830189614772565b61482f60c0830188613efd565b61483c60e0830187613efd565b61484a610100830186613efd565b614858610120830185614547565b81810361014083015261486b8184614792565b90509c9b505050505050505050505050565b600061010082019050614893600083018b614547565b6148a0602083018a61470c565b6148ad604083018961472a565b81810360608301526148bf8188614792565b90506148ce6080830187613efd565b6148db60a0830186613efd565b6148e860c0830185614547565b81810360e08301526148fa8184614792565b90509998505050505050505050565b600080604083850312156149205761491f613bcc565b5b600061492e85828601613f3e565b925050602061493f85828601613c1f565b9150509250929050565b61495281614454565b82525050565b60006101008201905061496e600083018b614547565b8181036020830152614980818a614792565b905061498f604083018961470c565b61499c606083018861470c565b6149a9608083018761470c565b6149b660a0830186614949565b6149c360c0830185613efd565b6149d060e0830184614547565b9998505050505050505050565b6000610140820190506149f3600083018d614547565b614a00602083018c61470c565b8181036040830152614a12818b614792565b9050614a21606083018a61472a565b614a2e608083018961471b565b614a3b60a0830188613efd565b614a4860c0830187613efd565b614a5560e0830186613efd565b614a63610100830185614547565b818103610120830152614a768184614792565b90509b9a5050505050505050505050565b614a9081613c7a565b8114614a9b57600080fd5b50565b600081359050614aad81614a87565b92915050565b60008060008060008060c08789031215614ad057614acf613bcc565b5b600087013567ffffffffffffffff811115614aee57614aed613bd1565b5b614afa89828a01614087565b9650506020614b0b89828a01614a9e565b9550506040614b1c89828a01614a9e565b9450506060614b2d89828a01614a9e565b9350506080614b3e89828a01613f3e565b92505060a0614b4f89828a01613c1f565b9150509295509295509295565b60008060008060008060c08789031215614b7957614b78613bcc565b5b6000614b8789828a01614a9e565b9650506020614b9889828a01613f3e565b9550506040614ba989828a01613f3e565b9450506060614bba89828a01613c1f565b9350506080614bcb89828a01613c1f565b92505060a087013567ffffffffffffffff811115614bec57614beb613bd1565b5b614bf889828a01614087565b9150509295509295509295565b600080600060608486031215614c1e57614c1d613bcc565b5b6000614c2c86828701613c1f565b935050602084013567ffffffffffffffff811115614c4d57614c4c613bd1565b5b614c5986828701614087565b925050604084013567ffffffffffffffff811115614c7a57614c79613bd1565b5b614c8686828701614087565b9150509250925092565b600081519050919050565b600082825260208201905092915050565b6000819050602082019050919050565b600061010083016000830151614cd56000860182613c6b565b5060208301518482036020860152614ced8282613cf3565b9150506040830151614d026040860182613c84565b506060830151614d156060860182613c84565b506080830151614d286080860182613c84565b5060a0830151614d3b60a0860182614466565b5060c0830151614d4e60c0860182613deb565b5060e0830151614d6160e0860182613c6b565b508091505092915050565b6000614d788383614cbc565b905092915050565b6000602082019050919050565b6000614d9882614c90565b614da28185614c9b565b935083602082028501614db485614cac565b8060005b85811015614df05784840389528151614dd18582614d6c565b9450614ddc83614d80565b925060208a01995050600181019050614db8565b50829750879550505050505092915050565b60006020820190508181036000830152614e1c8184614d8d565b905092915050565b600080600080600060a08688031215614e4057614e3f613bcc565b5b6000614e4e88828901613c1f565b9550506020614e5f88828901614a9e565b9450506040614e7088828901613f3e565b935050606086013567ffffffffffffffff811115614e9157614e90613bd1565b5b614e9d88828901614087565b925050608086013567ffffffffffffffff811115614ebe57614ebd613bd1565b5b614eca88828901614087565b9150509295509295909350565b600081519050919050565b600082825260208201905092915050565b6000819050602082019050919050565b614f0c81614760565b82525050565b600061016083016000830151614f2b6000860182613c6b565b506020830151614f3e6020860182613c6b565b506040830151614f516040860182613c84565b506060830151614f646060860182613ddc565b506080830151614f776080860182613d94565b5060a0830151614f8a60a0860182614f03565b5060c0830151614f9d60c0860182613deb565b5060e0830151614fb060e0860182613deb565b50610100830151614fc5610100860182613deb565b50610120830151614fda610120860182613c6b565b50610140830151848203610140860152614ff48282613cf3565b9150508091505092915050565b600061500d8383614f12565b905092915050565b6000602082019050919050565b600061502d82614ed7565b6150378185614ee2565b93508360208202850161504985614ef3565b8060005b8581101561508557848403895281516150668582615001565b945061507183615015565b925060208a0199505060018101905061504d565b50829750879550505050505092915050565b600060208201905081810360008301526150b18184615022565b905092915050565b7f4e487b7100000000000000000000000000000000000000000000000000000000600052601160045260246000fd5b60006150f382613c61565b91506150fe83613c61565b925082821015615111576151106150b9565b5b828203905092915050565b7f4e487b7100000000000000000000000000000000000000000000000000000000600052602260045260246000fd5b6000600282049050600182168061516357607f821691505b602082108114156151775761517661511c565b5b50919050565b600061518882613c61565b9150600082141561519c5761519b6150b9565b5b600182039050919050565b60006151b282613c61565b91507fffffffffffffffffffffffffffffffffffffffffffffffffffffffffffffffff8214156151e5576151e46150b9565b5b600182019050919050565b6000819050919050565b61520b61520682613c7a565b6151f0565b82525050565b60008160601b9050919050565b600061522982615211565b9050919050565b600061523b8261521e565b9050919050565b61525361524e82613bf6565b615230565b82525050565b6000819050919050565b61527461526f82613c61565b615259565b82525050565b600061528682866151fa565b6020820191506152968285615242565b6014820191506152a68284615263565b602082019150819050949350505050565b7f4e487b7100000000000000000000000000000000000000000000000000000000600052603260045260246000fd5b600081905092915050565b60008190508160005260206000209050919050565b600081546153138161514b565b61531d81866152e6565b9450600182166000811461533857600181146153495761537c565b60ff1983168652818601935061537c565b615352856152f1565b60005b8381101561537457815481890152600182019150602081019050615355565b838801955050505b50505092915050565b60006153918284615306565b915081905092915050565b600060a0820190506153b16000830188614547565b6153be602083018761470c565b6153cb604083018661470c565b6153d8606083018561470c565b6153e56080830184614547565b9695505050505050565b7f596f7520617265206e6f7420616e206f776e6572000000000000000000000000600082015250565b6000615425601483614781565b9150615430826153ef565b602082019050919050565b6000602082019050818103600083015261545481615418565b9050919050565b600061546682613c93565b61547081856152e6565b9350615480818560208601613caf565b80840191505092915050565b6000615498828461545b565b915081905092915050565b50565b60006154b3600083614781565b91506154be826154a3565b600082019050919050565b6000610140820190506154df600083018c614547565b6154ec602083018b61470c565b81810360408301526154fd816154a6565b905061550c606083018a61472a565b615519608083018961471b565b61552660a0830188613efd565b61553360c0830187613efd565b61554060e0830186613efd565b61554e610100830185614547565b8181036101208301526155618184614792565b90509a9950505050505050505050565b6000815461557e8161514b565b6155888186614781565b945060018216600081146155a357600181146155b5576155e8565b60ff19831686526020860193506155e8565b6155be856152f1565b60005b838110156155e0578154818901526001820191506020810190506155c1565b808801955050505b50505092915050565b600061010082019050615607600083018b614547565b615614602083018a61470c565b615621604083018961472a565b81810360608301526156338188615571565b90506156426080830187613efd565b61564f60a0830186613efd565b61565c60c0830185614547565b81810360e083015261566e8184615571565b90509998505050505050505050565b600061016082019050615693600083018d614547565b6156a0602083018c614547565b6156ad604083018b61470c565b6156ba606083018a61471b565b6156c7608083018961472a565b6156d460a0830188614772565b6156e160c0830187613efd565b6156ee60e0830186613efd565b6156fc610100830185613efd565b61570a610120830184614547565b81810361014083015261571c816154a6565b90509b9a505050505050505050505056fea26469706673582212202b8862dbe89b9f24e6462614bb9068ae352b53efdb7393449cbf82a8289da14164736f6c634300080a0033",
  "immutableReferences": {},
  "source": "// SPDX-License-Identifier: MIT\r\npragma solidity >=0.8.0 <0.9.0;\r\n\r\nimport \"./UserChain.sol\";\r\nimport \"./SharedChain.sol\";\r\n\r\ncontract ProjectChain is UserChain {\r\n    bytes32 constant PROJECT_HASH_VALUE = \"csd?S@salas;dlA234_D.;s_as\";\r\n    bytes32 constant REQUEST_HASH_VALUE = \"csd?.!?*salas;dlA.;s_as\";\r\n\r\n    address _projectInitiator;\r\n    uint _indexUniqueAddress = 0;\r\n\r\n    constructor() {\r\n        _projectInitiator = msg.sender;\r\n    }\r\n\r\n    modifier onlyProjectInitiator {\r\n        require(users[_projectInitiator]._role == Roles.ProjectInitiator, \"You don't have the rights for this resources.\");\r\n        require(_projectInitiator == msg.sender, \"You are not a project initiator\");\r\n        _;\r\n    }\r\n\r\n\r\n    /**  PROJECT INITIATOR  */\r\n\r\n    mapping(address => Project) public projects;\r\n    uint public projectsCounter = 0;\r\n    address[] public projectsAddress;\r\n\r\n    function createUniqueProjectAddress() public returns (address) {\r\n        _indexUniqueAddress++;\r\n        return address(uint160(uint256(keccak256(abi.encodePacked(PROJECT_HASH_VALUE, _projectInitiator, _indexUniqueAddress)))));\r\n    }\r\n\r\n    function createProject(address _projectAddress, bytes32 _name, uint _status, string memory _ipfsFileCID, string memory _signature) public {\r\n        projects[_projectAddress] = Project(\r\n            projectsCounter, _name, ProjectStatus(_status),\r\n            _ipfsFileCID, _projectAddress,\r\n            _projectInitiator, block.timestamp, _signature\r\n        );\r\n\r\n        emit ProjectEvent(\r\n            projectsCounter, _name, ProjectStatus(_status),\r\n            _ipfsFileCID, _projectAddress, _projectInitiator,\r\n            block.timestamp, _signature\r\n        );\r\n        projectsAddress.push(_projectAddress);\r\n        projectsCounter++;\r\n    }\r\n\r\n    function updateProject(address _projectAddress, string memory _ipfsFileCID, string memory _signature) public {\r\n        projects[_projectAddress]._ipfsFileCID = _ipfsFileCID;\r\n        projects[_projectAddress]._signature = _signature;\r\n\r\n        emit ProjectEvent(\r\n            projects[_projectAddress]._index, projects[_projectAddress]._name, projects[_projectAddress]._status,\r\n            projects[_projectAddress]._ipfsFileCID, projects[_projectAddress]._projectAddress, _projectInitiator,\r\n            block.timestamp, projects[_projectAddress]._signature\r\n        );\r\n    }\r\n\r\n    function getProjectInfo(address _address) public view returns (Project memory) {\r\n        return projects[_address];\r\n    }\r\n\r\n    function getAllProjects() public view returns(Project[] memory) {\r\n        Project[] memory allProjects = new Project[](projectsCounter);\r\n        for (uint index = 0; index < projectsCounter; index++) {\r\n            address _projectAddress = projectsAddress[index];\r\n            Project storage project = projects[_projectAddress];\r\n            allProjects[index] = project;\r\n        }\r\n        return allProjects;\r\n    }\r\n\r\n\r\n    /**  Project Requests  */\r\n\r\n    mapping(uint => ProjectRequest) public projectRequests;\r\n    uint public projectRequestsCounter = 0;\r\n    address[] public projectRequestsAddress;\r\n\r\n    function createUniqueProjectRequestAddress() public returns (address) {\r\n        _indexUniqueAddress++;\r\n        return address(uint160(uint256(keccak256(abi.encodePacked(REQUEST_HASH_VALUE, _projectInitiator, _indexUniqueAddress)))));\r\n    }\r\n\r\n    function createProjectRequest(\r\n        bytes32 _title, uint _status, uint _requestStatus,\r\n        address _projectAddress, address _projectReqAddress, string memory _signature\r\n    ) public {\r\n        projectRequests[projectRequestsCounter] = ProjectRequest(\r\n            projectRequestsCounter, _title, '', ProjectStatus(_status),\r\n            RequestStatus(_requestStatus), _projectAddress,\r\n            _projectInitiator, _projectReqAddress, block.timestamp, _signature\r\n        );\r\n\r\n        filterRequests(projectRequestsCounter, _title, _requestStatus, _status, _projectAddress, _projectReqAddress);\r\n\r\n        emit ProjectRequestEvent(\r\n            projectRequestsCounter, _title, '',\r\n            ProjectStatus(_status), RequestStatus(_requestStatus),\r\n            _projectAddress, _projectInitiator,\r\n            _projectReqAddress, block.timestamp, _signature\r\n        );\r\n        projectRequestsAddress.push(_projectReqAddress);\r\n        projectRequestsCounter++;\r\n    }\r\n\r\n    function filterRequests(\r\n        uint _indexProjectRequest,\r\n        bytes32 _title,\r\n        uint _requestStatus,\r\n        uint _projectStatus,\r\n        address _projectAddress,\r\n        address _requestAddress\r\n    ) internal {\r\n        RequestType _requestType;\r\n        if (\r\n            ProjectStatus(_projectStatus) == ProjectStatus.ToApprove ||\r\n            ProjectStatus(_projectStatus) == ProjectStatus.FinalizationCheck ||\r\n            ProjectStatus(_projectStatus) == ProjectStatus.Completed\r\n        ) {\r\n            _requestType = RequestType.SupervisorReq;\r\n        } else if (ProjectStatus(_projectStatus) == ProjectStatus.StartProject) {\r\n            _requestType = RequestType.CompanyReq;\r\n        }\r\n        createRequest(_indexProjectRequest, _title, _requestStatus, _projectStatus, _requestType, _projectAddress, _requestAddress);\r\n    }\r\n\r\n    function getAllProjectRequests() public view returns(ProjectRequest[] memory) {\r\n        ProjectRequest[] memory allProjectRequests;\r\n        if (projectRequestsCounter == 0) return allProjectRequests;\r\n\r\n        allProjectRequests = new ProjectRequest[](projectRequestsCounter);\r\n        for (uint index = 0; index < projectsCounter; index++) {\r\n            ProjectRequest storage projectReq = projectRequests[index];\r\n            allProjectRequests[index] = projectReq;\r\n        }\r\n        return allProjectRequests;\r\n    }\r\n\r\n    function getLastProjectRequest(address _projectAddress) public view returns(ProjectRequest memory) {\r\n        ProjectRequest memory request;\r\n        if (projectRequestsCounter > 0) {\r\n            for (uint index = projectRequestsCounter - 1; index >= 0; index--) {\r\n                if (_projectAddress == projectRequests[index]._projectAddress) {\r\n                    request = ProjectRequest(\r\n                        projectRequests[index]._index,\r\n                        projectRequests[index]._title,\r\n                        projectRequests[index]._comments,\r\n                        projectRequests[index]._status,\r\n                        projectRequests[index]._requestStatus,\r\n                        projectRequests[index]._projectAddress,\r\n                        projectRequests[index]._userAddress,\r\n                        projectRequests[index]._requestAddress,\r\n                        block.timestamp,\r\n                        projectRequests[index]._signature\r\n                    );\r\n                    return request;\r\n                }\r\n            }\r\n        }\r\n        return request;\r\n    }\r\n\r\n\r\n    /**  DATA FOR SUPERVISOR && COMPANY  */\r\n\r\n    mapping(uint => Request) public requests;\r\n    uint public requestsCounter = 0;\r\n    address[] public requestsAddress;\r\n\r\n    function createRequest(\r\n        uint _indexProjectRequest,\r\n        bytes32 _title,\r\n        uint _requestStatus,\r\n        uint _projectStatus,\r\n        RequestType _requestType,\r\n        address _projectAddress,\r\n        address _requestAddress\r\n    ) internal {\r\n        requests[requestsCounter] = Request(\r\n            requestsCounter, _indexProjectRequest, _title,\r\n            RequestStatus(_requestStatus), ProjectStatus(_projectStatus),\r\n            _requestType, _projectAddress, _projectInitiator,\r\n            _requestAddress, block.timestamp, ''\r\n        );\r\n\r\n        emit RequestEvent(\r\n            requestsCounter, _indexProjectRequest, _title,\r\n            RequestStatus(_requestStatus), ProjectStatus(_projectStatus),\r\n            _requestType, _projectAddress, _projectInitiator,\r\n            _requestAddress, block.timestamp, ''\r\n        );\r\n        requestsAddress.push(_requestAddress);\r\n        requestsCounter++;\r\n    }\r\n\r\n    function updateRequest(\r\n        uint _index,\r\n        uint _indexProjectRequest,\r\n        string memory _comments,\r\n        uint _requestStatus,\r\n        uint _projectStatus,\r\n        address _projectAddress,\r\n        string memory _signature\r\n    ) public {\r\n        // Update request status in the Requests Mapping and Struct Array\r\n        requests[_index]._requestStatus = RequestStatus(_requestStatus);\r\n        requests[_index]._signature = _signature;\r\n\r\n        //uint index = requests[_index]._index;\r\n        //allRequests[index]._requestStatus = RequestStatus(_requestStatus);\r\n        //allRequests[index]._signature = _signature;\r\n\r\n        // Update project request status in the Project Requests Mapping and Struct Array\r\n        projectRequests[_indexProjectRequest]._comments = _comments;\r\n        projectRequests[_indexProjectRequest]._requestStatus = RequestStatus(_requestStatus);\r\n\r\n        // Update ProjectStatus to the requested status - Porject Mapping and Struct Array\r\n        projects[_projectAddress]._status = ProjectStatus(_projectStatus);\r\n\r\n\r\n        // !!!!! OBSERVATION\r\n        //emit changes for both project request mapping and request mapping\r\n    }\r\n\r\n    function getAllRequests() public view returns(Request[] memory) {\r\n        Request[] memory allRequests = new Request[](requestsCounter);\r\n        for (uint index = 0; index < requestsCounter; index++) {\r\n            Request storage request = requests[index];\r\n            allRequests[index] = request;\r\n        }\r\n        return allRequests;\r\n    }\r\n}\r\n",
  "sourcePath": "/mnt/c/Users/Beniamin/source/repos/DissertationProject/contracts/ProjectChain.sol",
  "compiler": {
    "name": "solc",
    "version": "0.8.10+commit.fc410830.Emscripten.clang"
  },
  "schemaVersion": "3.4.3",
  "updatedAt": "2021-12-01T09:19:37.354Z",
  "devdoc": {
    "kind": "dev",
    "methods": {},
    "version": 1
  },
  "userdoc": {
    "kind": "user",
    "methods": {
      "projectRequests(uint256)": {
        "notice": "Project Requests  "
      },
      "projects(address)": {
        "notice": "PROJECT INITIATOR  "
      },
      "requests(uint256)": {
        "notice": "DATA FOR SUPERVISOR && COMPANY  "
      }
    },
    "version": 1
  }
}