{
  "contractName": "ProjectChain",
  "abi": [
    {
      "inputs": [],
      "stateMutability": "nonpayable",
      "type": "constructor"
    },
    {
      "anonymous": false,
      "inputs": [
        {
          "components": [
            {
              "internalType": "uint256",
              "name": "_index",
              "type": "uint256"
            },
            {
              "internalType": "string",
              "name": "_name",
              "type": "string"
            },
            {
              "internalType": "enum SharedChain.ProjectStatus",
              "name": "_status",
              "type": "uint8"
            },
            {
              "internalType": "string",
              "name": "_ipfsFileCID",
              "type": "string"
            },
            {
              "internalType": "address",
              "name": "_projectAddress",
              "type": "address"
            },
            {
              "internalType": "address",
              "name": "_signerAddress",
              "type": "address"
            },
            {
              "internalType": "uint256",
              "name": "_timestamp",
              "type": "uint256"
            },
            {
              "internalType": "string",
              "name": "_signature",
              "type": "string"
            }
          ],
          "indexed": false,
          "internalType": "struct SharedChain.Project",
          "name": "_project",
          "type": "tuple"
        },
        {
          "indexed": true,
          "internalType": "address",
          "name": "_projectAddress",
          "type": "address"
        }
      ],
      "name": "ProjectEvent",
      "type": "event"
    },
    {
      "anonymous": false,
      "inputs": [
        {
          "components": [
            {
              "internalType": "uint256",
              "name": "_index",
              "type": "uint256"
            },
            {
              "internalType": "string",
              "name": "_title",
              "type": "string"
            },
            {
              "internalType": "string",
              "name": "_comments",
              "type": "string"
            },
            {
              "internalType": "enum SharedChain.ProjectStatus",
              "name": "_projectStatus",
              "type": "uint8"
            },
            {
              "internalType": "enum SharedChain.RequestStatus",
              "name": "_requestStatus",
              "type": "uint8"
            },
            {
              "internalType": "enum SharedChain.RequestType",
              "name": "_requestType",
              "type": "uint8"
            },
            {
              "internalType": "address",
              "name": "_projectAddress",
              "type": "address"
            },
            {
              "internalType": "address",
              "name": "_requestAddress",
              "type": "address"
            },
            {
              "internalType": "address",
              "name": "_signerAddress",
              "type": "address"
            },
            {
              "internalType": "uint256",
              "name": "_timestamp",
              "type": "uint256"
            },
            {
              "internalType": "string",
              "name": "_signature",
              "type": "string"
            }
          ],
          "indexed": false,
          "internalType": "struct SharedChain.Request",
          "name": "_request",
          "type": "tuple"
        },
        {
          "indexed": true,
          "internalType": "address",
          "name": "_requestAddress",
          "type": "address"
        },
        {
          "indexed": true,
          "internalType": "address",
          "name": "_projectAddress",
          "type": "address"
        }
      ],
      "name": "RequestEvent",
      "type": "event"
    },
    {
      "anonymous": false,
      "inputs": [
        {
          "components": [
            {
              "internalType": "uint256",
              "name": "_index",
              "type": "uint256"
            },
            {
              "internalType": "string",
              "name": "_username",
              "type": "string"
            },
            {
              "internalType": "bytes32",
              "name": "_email",
              "type": "bytes32"
            },
            {
              "internalType": "bytes32",
              "name": "_firstname",
              "type": "bytes32"
            },
            {
              "internalType": "bytes32",
              "name": "_lastname",
              "type": "bytes32"
            },
            {
              "internalType": "enum SharedChain.Roles",
              "name": "_role",
              "type": "uint8"
            },
            {
              "internalType": "address",
              "name": "_walletAddress",
              "type": "address"
            },
            {
              "internalType": "uint256",
              "name": "_timestamp",
              "type": "uint256"
            },
            {
              "internalType": "string",
              "name": "_signature",
              "type": "string"
            }
          ],
          "indexed": false,
          "internalType": "struct SharedChain.User",
          "name": "_user",
          "type": "tuple"
        },
        {
          "indexed": true,
          "internalType": "address",
          "name": "_walletAddress",
          "type": "address"
        }
      ],
      "name": "UserEvent",
      "type": "event"
    },
    {
      "inputs": [
        {
          "internalType": "address",
          "name": "",
          "type": "address"
        }
      ],
      "name": "projects",
      "outputs": [
        {
          "internalType": "uint256",
          "name": "_index",
          "type": "uint256"
        },
        {
          "internalType": "string",
          "name": "_name",
          "type": "string"
        },
        {
          "internalType": "enum SharedChain.ProjectStatus",
          "name": "_status",
          "type": "uint8"
        },
        {
          "internalType": "string",
          "name": "_ipfsFileCID",
          "type": "string"
        },
        {
          "internalType": "address",
          "name": "_projectAddress",
          "type": "address"
        },
        {
          "internalType": "address",
          "name": "_signerAddress",
          "type": "address"
        },
        {
          "internalType": "uint256",
          "name": "_timestamp",
          "type": "uint256"
        },
        {
          "internalType": "string",
          "name": "_signature",
          "type": "string"
        }
      ],
      "stateMutability": "view",
      "type": "function",
      "constant": true
    },
    {
      "inputs": [
        {
          "internalType": "uint256",
          "name": "",
          "type": "uint256"
        }
      ],
      "name": "projectsAddress",
      "outputs": [
        {
          "internalType": "address",
          "name": "",
          "type": "address"
        }
      ],
      "stateMutability": "view",
      "type": "function",
      "constant": true
    },
    {
      "inputs": [],
      "name": "projectsCounter",
      "outputs": [
        {
          "internalType": "uint256",
          "name": "",
          "type": "uint256"
        }
      ],
      "stateMutability": "view",
      "type": "function",
      "constant": true
    },
    {
      "inputs": [
        {
          "internalType": "address",
          "name": "",
          "type": "address"
        }
      ],
      "name": "requests",
      "outputs": [
        {
          "internalType": "uint256",
          "name": "_index",
          "type": "uint256"
        },
        {
          "internalType": "string",
          "name": "_title",
          "type": "string"
        },
        {
          "internalType": "string",
          "name": "_comments",
          "type": "string"
        },
        {
          "internalType": "enum SharedChain.ProjectStatus",
          "name": "_projectStatus",
          "type": "uint8"
        },
        {
          "internalType": "enum SharedChain.RequestStatus",
          "name": "_requestStatus",
          "type": "uint8"
        },
        {
          "internalType": "enum SharedChain.RequestType",
          "name": "_requestType",
          "type": "uint8"
        },
        {
          "internalType": "address",
          "name": "_projectAddress",
          "type": "address"
        },
        {
          "internalType": "address",
          "name": "_requestAddress",
          "type": "address"
        },
        {
          "internalType": "address",
          "name": "_signerAddress",
          "type": "address"
        },
        {
          "internalType": "uint256",
          "name": "_timestamp",
          "type": "uint256"
        },
        {
          "internalType": "string",
          "name": "_signature",
          "type": "string"
        }
      ],
      "stateMutability": "view",
      "type": "function",
      "constant": true
    },
    {
      "inputs": [
        {
          "internalType": "uint256",
          "name": "",
          "type": "uint256"
        }
      ],
      "name": "requestsAddress",
      "outputs": [
        {
          "internalType": "address",
          "name": "",
          "type": "address"
        }
      ],
      "stateMutability": "view",
      "type": "function",
      "constant": true
    },
    {
      "inputs": [],
      "name": "requestsCounter",
      "outputs": [
        {
          "internalType": "uint256",
          "name": "",
          "type": "uint256"
        }
      ],
      "stateMutability": "view",
      "type": "function",
      "constant": true
    },
    {
      "inputs": [
        {
          "internalType": "string",
          "name": "_name",
          "type": "string"
        },
        {
          "internalType": "uint256",
          "name": "_index",
          "type": "uint256"
        }
      ],
      "name": "createUniqueProjectAddress",
      "outputs": [
        {
          "internalType": "address",
          "name": "",
          "type": "address"
        }
      ],
      "stateMutability": "view",
      "type": "function",
      "constant": true
    },
    {
      "inputs": [
        {
          "internalType": "address",
          "name": "_projectAddress",
          "type": "address"
        },
        {
          "internalType": "string",
          "name": "_name",
          "type": "string"
        },
        {
          "internalType": "uint256",
          "name": "_status",
          "type": "uint256"
        },
        {
          "internalType": "string",
          "name": "_ipfsFileCID",
          "type": "string"
        },
        {
          "internalType": "string",
          "name": "_signature",
          "type": "string"
        }
      ],
      "name": "createProject",
      "outputs": [],
      "stateMutability": "nonpayable",
      "type": "function"
    },
    {
      "inputs": [
        {
          "internalType": "address",
          "name": "_projectAddress",
          "type": "address"
        },
        {
          "internalType": "string",
          "name": "_ipfsFileCID",
          "type": "string"
        },
        {
          "internalType": "string",
          "name": "_signature",
          "type": "string"
        }
      ],
      "name": "updateProject",
      "outputs": [],
      "stateMutability": "nonpayable",
      "type": "function"
    },
    {
      "inputs": [
        {
          "internalType": "address",
          "name": "_address",
          "type": "address"
        }
      ],
      "name": "getProjectInfo",
      "outputs": [
        {
          "components": [
            {
              "internalType": "uint256",
              "name": "_index",
              "type": "uint256"
            },
            {
              "internalType": "string",
              "name": "_name",
              "type": "string"
            },
            {
              "internalType": "enum SharedChain.ProjectStatus",
              "name": "_status",
              "type": "uint8"
            },
            {
              "internalType": "string",
              "name": "_ipfsFileCID",
              "type": "string"
            },
            {
              "internalType": "address",
              "name": "_projectAddress",
              "type": "address"
            },
            {
              "internalType": "address",
              "name": "_signerAddress",
              "type": "address"
            },
            {
              "internalType": "uint256",
              "name": "_timestamp",
              "type": "uint256"
            },
            {
              "internalType": "string",
              "name": "_signature",
              "type": "string"
            }
          ],
          "internalType": "struct SharedChain.Project",
          "name": "",
          "type": "tuple"
        }
      ],
      "stateMutability": "view",
      "type": "function",
      "constant": true
    },
    {
      "inputs": [
        {
          "internalType": "address",
          "name": "_signerAddress",
          "type": "address"
        }
      ],
      "name": "getUserProjects",
      "outputs": [
        {
          "components": [
            {
              "internalType": "uint256",
              "name": "_index",
              "type": "uint256"
            },
            {
              "internalType": "string",
              "name": "_name",
              "type": "string"
            },
            {
              "internalType": "enum SharedChain.ProjectStatus",
              "name": "_status",
              "type": "uint8"
            },
            {
              "internalType": "string",
              "name": "_ipfsFileCID",
              "type": "string"
            },
            {
              "internalType": "address",
              "name": "_projectAddress",
              "type": "address"
            },
            {
              "internalType": "address",
              "name": "_signerAddress",
              "type": "address"
            },
            {
              "internalType": "uint256",
              "name": "_timestamp",
              "type": "uint256"
            },
            {
              "internalType": "string",
              "name": "_signature",
              "type": "string"
            }
          ],
          "internalType": "struct SharedChain.Project[]",
          "name": "",
          "type": "tuple[]"
        }
      ],
      "stateMutability": "view",
      "type": "function",
      "constant": true
    },
    {
      "inputs": [],
      "name": "getAllProjects",
      "outputs": [
        {
          "components": [
            {
              "internalType": "uint256",
              "name": "_index",
              "type": "uint256"
            },
            {
              "internalType": "string",
              "name": "_name",
              "type": "string"
            },
            {
              "internalType": "enum SharedChain.ProjectStatus",
              "name": "_status",
              "type": "uint8"
            },
            {
              "internalType": "string",
              "name": "_ipfsFileCID",
              "type": "string"
            },
            {
              "internalType": "address",
              "name": "_projectAddress",
              "type": "address"
            },
            {
              "internalType": "address",
              "name": "_signerAddress",
              "type": "address"
            },
            {
              "internalType": "uint256",
              "name": "_timestamp",
              "type": "uint256"
            },
            {
              "internalType": "string",
              "name": "_signature",
              "type": "string"
            }
          ],
          "internalType": "struct SharedChain.Project[]",
          "name": "",
          "type": "tuple[]"
        }
      ],
      "stateMutability": "view",
      "type": "function",
      "constant": true
    },
    {
      "inputs": [
        {
          "internalType": "string",
          "name": "_title",
          "type": "string"
        },
        {
          "internalType": "uint256",
          "name": "_index",
          "type": "uint256"
        }
      ],
      "name": "createUniqueRequestAddress",
      "outputs": [
        {
          "internalType": "address",
          "name": "",
          "type": "address"
        }
      ],
      "stateMutability": "view",
      "type": "function",
      "constant": true
    },
    {
      "inputs": [
        {
          "internalType": "string",
          "name": "_title",
          "type": "string"
        },
        {
          "internalType": "uint256",
          "name": "_projectStatus",
          "type": "uint256"
        },
        {
          "internalType": "uint256",
          "name": "_requestStatus",
          "type": "uint256"
        },
        {
          "internalType": "address",
          "name": "_projectAddress",
          "type": "address"
        },
        {
          "internalType": "address",
          "name": "_requestAddress",
          "type": "address"
        },
        {
          "internalType": "string",
          "name": "_signature",
          "type": "string"
        }
      ],
      "name": "createRequest",
      "outputs": [],
      "stateMutability": "nonpayable",
      "type": "function"
    },
    {
      "inputs": [
        {
          "internalType": "string",
          "name": "_comments",
          "type": "string"
        },
        {
          "internalType": "uint256",
          "name": "_requestStatus",
          "type": "uint256"
        },
        {
          "internalType": "uint256",
          "name": "_projectStatus",
          "type": "uint256"
        },
        {
          "internalType": "address",
          "name": "_projectAddress",
          "type": "address"
        },
        {
          "internalType": "address",
          "name": "_requestAddress",
          "type": "address"
        },
        {
          "internalType": "string",
          "name": "_signature",
          "type": "string"
        }
      ],
      "name": "updateRequest",
      "outputs": [],
      "stateMutability": "nonpayable",
      "type": "function"
    },
    {
      "inputs": [],
      "name": "getAllRequests",
      "outputs": [
        {
          "components": [
            {
              "internalType": "uint256",
              "name": "_index",
              "type": "uint256"
            },
            {
              "internalType": "string",
              "name": "_title",
              "type": "string"
            },
            {
              "internalType": "string",
              "name": "_comments",
              "type": "string"
            },
            {
              "internalType": "enum SharedChain.ProjectStatus",
              "name": "_projectStatus",
              "type": "uint8"
            },
            {
              "internalType": "enum SharedChain.RequestStatus",
              "name": "_requestStatus",
              "type": "uint8"
            },
            {
              "internalType": "enum SharedChain.RequestType",
              "name": "_requestType",
              "type": "uint8"
            },
            {
              "internalType": "address",
              "name": "_projectAddress",
              "type": "address"
            },
            {
              "internalType": "address",
              "name": "_requestAddress",
              "type": "address"
            },
            {
              "internalType": "address",
              "name": "_signerAddress",
              "type": "address"
            },
            {
              "internalType": "uint256",
              "name": "_timestamp",
              "type": "uint256"
            },
            {
              "internalType": "string",
              "name": "_signature",
              "type": "string"
            }
          ],
          "internalType": "struct SharedChain.Request[]",
          "name": "",
          "type": "tuple[]"
        }
      ],
      "stateMutability": "view",
      "type": "function",
      "constant": true
    },
    {
      "inputs": [
        {
          "internalType": "address",
          "name": "_projectAddress",
          "type": "address"
        }
      ],
      "name": "getProjectRequests",
      "outputs": [
        {
          "components": [
            {
              "internalType": "uint256",
              "name": "_index",
              "type": "uint256"
            },
            {
              "internalType": "string",
              "name": "_title",
              "type": "string"
            },
            {
              "internalType": "string",
              "name": "_comments",
              "type": "string"
            },
            {
              "internalType": "enum SharedChain.ProjectStatus",
              "name": "_projectStatus",
              "type": "uint8"
            },
            {
              "internalType": "enum SharedChain.RequestStatus",
              "name": "_requestStatus",
              "type": "uint8"
            },
            {
              "internalType": "enum SharedChain.RequestType",
              "name": "_requestType",
              "type": "uint8"
            },
            {
              "internalType": "address",
              "name": "_projectAddress",
              "type": "address"
            },
            {
              "internalType": "address",
              "name": "_requestAddress",
              "type": "address"
            },
            {
              "internalType": "address",
              "name": "_signerAddress",
              "type": "address"
            },
            {
              "internalType": "uint256",
              "name": "_timestamp",
              "type": "uint256"
            },
            {
              "internalType": "string",
              "name": "_signature",
              "type": "string"
            }
          ],
          "internalType": "struct SharedChain.Request[]",
          "name": "",
          "type": "tuple[]"
        }
      ],
      "stateMutability": "view",
      "type": "function",
      "constant": true
    },
    {
      "inputs": [
        {
          "internalType": "address",
          "name": "_projectAddress",
          "type": "address"
        },
        {
          "internalType": "address",
          "name": "_requestAddress",
          "type": "address"
        }
      ],
      "name": "getLastProjectRequest",
      "outputs": [
        {
          "components": [
            {
              "internalType": "uint256",
              "name": "_index",
              "type": "uint256"
            },
            {
              "internalType": "string",
              "name": "_title",
              "type": "string"
            },
            {
              "internalType": "string",
              "name": "_comments",
              "type": "string"
            },
            {
              "internalType": "enum SharedChain.ProjectStatus",
              "name": "_projectStatus",
              "type": "uint8"
            },
            {
              "internalType": "enum SharedChain.RequestStatus",
              "name": "_requestStatus",
              "type": "uint8"
            },
            {
              "internalType": "enum SharedChain.RequestType",
              "name": "_requestType",
              "type": "uint8"
            },
            {
              "internalType": "address",
              "name": "_projectAddress",
              "type": "address"
            },
            {
              "internalType": "address",
              "name": "_requestAddress",
              "type": "address"
            },
            {
              "internalType": "address",
              "name": "_signerAddress",
              "type": "address"
            },
            {
              "internalType": "uint256",
              "name": "_timestamp",
              "type": "uint256"
            },
            {
              "internalType": "string",
              "name": "_signature",
              "type": "string"
            }
          ],
          "internalType": "struct SharedChain.Request",
          "name": "",
          "type": "tuple"
        }
      ],
      "stateMutability": "view",
      "type": "function",
      "constant": true
    }
  ],
  "bytecode": "0x60806040526000600255600060055534801561001a57600080fd5b506145938061002a6000396000f3fe608060405234801561001057600080fd5b50600436106101165760003560e01c8063840e78fd116100a2578063e1592c0d11610071578063e1592c0d14610350578063e32e723c1461036c578063e617385f1461039c578063fb1a002a146103b8578063fe360ea5146103d657610116565b8063840e78fd146102b157806384485563146102e857806387edbec7146103045780638eb0717a1461032057610116565b806356a3eead116100e957806356a3eead146101db578063663c22691461020b57806374adad1d1461022957806376c932e01461026357806380d038291461029357610116565b8063191e16451461011b5780633b4ec4f81461014b578063448847101461017b57806347ee45b9146101ab575b600080fd5b6101356004803603810190610130919061328d565b6103f4565b604051610142919061332a565b60405180910390f35b6101656004803603810190610160919061328d565b61042c565b604051610172919061332a565b60405180910390f35b61019560048036038101906101909190613371565b610464565b6040516101a2919061365b565b60405180910390f35b6101c560048036038101906101c0919061367d565b6108eb565b6040516101d29190613768565b60405180910390f35b6101f560048036038101906101f0919061378a565b610bf6565b604051610202919061332a565b60405180910390f35b610213610c35565b60405161022091906137c6565b60405180910390f35b610243600480360381019061023e919061367d565b610c3b565b60405161025a9b9a99989796959493929190613858565b60405180910390f35b61027d6004803603810190610278919061378a565b610eb4565b60405161028a919061332a565b60405180910390f35b61029b610ef3565b6040516102a89190613a98565b60405180910390f35b6102cb60048036038101906102c6919061367d565b6112ef565b6040516102df989796959493929190613aba565b60405180910390f35b61030260048036038101906102fd9190613b4d565b61151c565b005b61031e60048036038101906103199190613c1c565b611821565b005b61033a6004803603810190610335919061367d565b611b3d565b6040516103479190613ea0565b60405180910390f35b61036a60048036038101906103659190613ec2565b611ff3565b005b6103866004803603810190610381919061367d565b612132565b6040516103939190613a98565b60405180910390f35b6103b660048036038101906103b19190613c1c565b6125c7565b005b6103c0612a4b565b6040516103cd9190613ea0565b60405180910390f35b6103de612eff565b6040516103eb91906137c6565b60405180910390f35b600082338360405160200161040b93929190613ff2565b6040516020818303038152906040528051906020012060001c905092915050565b600082338360405160200161044393929190613ff2565b6040516020818303038152906040528051906020012060001c905092915050565b61046c612f05565b610474612f05565b600060055411156108e1578373ffffffffffffffffffffffffffffffffffffffff16600460008573ffffffffffffffffffffffffffffffffffffffff1673ffffffffffffffffffffffffffffffffffffffff16815260200190815260200160002060030160039054906101000a900473ffffffffffffffffffffffffffffffffffffffff1673ffffffffffffffffffffffffffffffffffffffff1614156108e057600460008473ffffffffffffffffffffffffffffffffffffffff1673ffffffffffffffffffffffffffffffffffffffff168152602001908152602001600020604051806101600160405290816000820154815260200160018201805461057a9061405a565b80601f01602080910402602001604051908101604052809291908181526020018280546105a69061405a565b80156105f35780601f106105c8576101008083540402835291602001916105f3565b820191906000526020600020905b8154815290600101906020018083116105d657829003601f168201915b5050505050815260200160028201805461060c9061405a565b80601f01602080910402602001604051908101604052809291908181526020018280546106389061405a565b80156106855780601f1061065a57610100808354040283529160200191610685565b820191906000526020600020905b81548152906001019060200180831161066857829003601f168201915b505050505081526020016003820160009054906101000a900460ff1660048111156106b3576106b2613448565b5b60048111156106c5576106c4613448565b5b81526020016003820160019054906101000a900460ff1660028111156106ee576106ed613448565b5b6002811115610700576106ff613448565b5b81526020016003820160029054906101000a900460ff16600181111561072957610728613448565b5b600181111561073b5761073a613448565b5b81526020016003820160039054906101000a900473ffffffffffffffffffffffffffffffffffffffff1673ffffffffffffffffffffffffffffffffffffffff1673ffffffffffffffffffffffffffffffffffffffff1681526020016004820160009054906101000a900473ffffffffffffffffffffffffffffffffffffffff1673ffffffffffffffffffffffffffffffffffffffff1673ffffffffffffffffffffffffffffffffffffffff1681526020016005820160009054906101000a900473ffffffffffffffffffffffffffffffffffffffff1673ffffffffffffffffffffffffffffffffffffffff1673ffffffffffffffffffffffffffffffffffffffff1681526020016006820154815260200160078201805461085b9061405a565b80601f01602080910402602001604051908101604052809291908181526020018280546108879061405a565b80156108d45780601f106108a9576101008083540402835291602001916108d4565b820191906000526020600020905b8154815290600101906020018083116108b757829003601f168201915b50505050508152505090505b5b8091505092915050565b6108f3612fd7565b600160008373ffffffffffffffffffffffffffffffffffffffff1673ffffffffffffffffffffffffffffffffffffffff16815260200190815260200160002060405180610100016040529081600082015481526020016001820180546109589061405a565b80601f01602080910402602001604051908101604052809291908181526020018280546109849061405a565b80156109d15780601f106109a6576101008083540402835291602001916109d1565b820191906000526020600020905b8154815290600101906020018083116109b457829003601f168201915b505050505081526020016002820160009054906101000a900460ff1660048111156109ff576109fe613448565b5b6004811115610a1157610a10613448565b5b8152602001600382018054610a259061405a565b80601f0160208091040260200160405190810160405280929190818152602001828054610a519061405a565b8015610a9e5780601f10610a7357610100808354040283529160200191610a9e565b820191906000526020600020905b815481529060010190602001808311610a8157829003601f168201915b505050505081526020016004820160009054906101000a900473ffffffffffffffffffffffffffffffffffffffff1673ffffffffffffffffffffffffffffffffffffffff1673ffffffffffffffffffffffffffffffffffffffff1681526020016005820160009054906101000a900473ffffffffffffffffffffffffffffffffffffffff1673ffffffffffffffffffffffffffffffffffffffff1673ffffffffffffffffffffffffffffffffffffffff16815260200160068201548152602001600782018054610b6d9061405a565b80601f0160208091040260200160405190810160405280929190818152602001828054610b999061405a565b8015610be65780601f10610bbb57610100808354040283529160200191610be6565b820191906000526020600020905b815481529060010190602001808311610bc957829003601f168201915b5050505050815250509050919050565b60068181548110610c0657600080fd5b906000526020600020016000915054906101000a900473ffffffffffffffffffffffffffffffffffffffff1681565b60055481565b6004602052806000526040600020600091509050806000015490806001018054610c649061405a565b80601f0160208091040260200160405190810160405280929190818152602001828054610c909061405a565b8015610cdd5780601f10610cb257610100808354040283529160200191610cdd565b820191906000526020600020905b815481529060010190602001808311610cc057829003601f168201915b505050505090806002018054610cf29061405a565b80601f0160208091040260200160405190810160405280929190818152602001828054610d1e9061405a565b8015610d6b5780601f10610d4057610100808354040283529160200191610d6b565b820191906000526020600020905b815481529060010190602001808311610d4e57829003601f168201915b5050505050908060030160009054906101000a900460ff16908060030160019054906101000a900460ff16908060030160029054906101000a900460ff16908060030160039054906101000a900473ffffffffffffffffffffffffffffffffffffffff16908060040160009054906101000a900473ffffffffffffffffffffffffffffffffffffffff16908060050160009054906101000a900473ffffffffffffffffffffffffffffffffffffffff1690806006015490806007018054610e319061405a565b80601f0160208091040260200160405190810160405280929190818152602001828054610e5d9061405a565b8015610eaa5780601f10610e7f57610100808354040283529160200191610eaa565b820191906000526020600020905b815481529060010190602001808311610e8d57829003601f168201915b505050505090508b565b60038181548110610ec457600080fd5b906000526020600020016000915054906101000a900473ffffffffffffffffffffffffffffffffffffffff1681565b60608060006002541415610f0a57809150506112ec565b60025467ffffffffffffffff811115610f2657610f2561312c565b5b604051908082528060200260200182016040528015610f5f57816020015b610f4c612fd7565b815260200190600190039081610f445790505b50905060005b6002548110156112e657600060038281548110610f8557610f8461408c565b5b9060005260206000200160009054906101000a900473ffffffffffffffffffffffffffffffffffffffff1690506000600160008373ffffffffffffffffffffffffffffffffffffffff1673ffffffffffffffffffffffffffffffffffffffff168152602001908152602001600020905080604051806101000160405290816000820154815260200160018201805461101c9061405a565b80601f01602080910402602001604051908101604052809291908181526020018280546110489061405a565b80156110955780601f1061106a57610100808354040283529160200191611095565b820191906000526020600020905b81548152906001019060200180831161107857829003601f168201915b505050505081526020016002820160009054906101000a900460ff1660048111156110c3576110c2613448565b5b60048111156110d5576110d4613448565b5b81526020016003820180546110e99061405a565b80601f01602080910402602001604051908101604052809291908181526020018280546111159061405a565b80156111625780601f1061113757610100808354040283529160200191611162565b820191906000526020600020905b81548152906001019060200180831161114557829003601f168201915b505050505081526020016004820160009054906101000a900473ffffffffffffffffffffffffffffffffffffffff1673ffffffffffffffffffffffffffffffffffffffff1673ffffffffffffffffffffffffffffffffffffffff1681526020016005820160009054906101000a900473ffffffffffffffffffffffffffffffffffffffff1673ffffffffffffffffffffffffffffffffffffffff1673ffffffffffffffffffffffffffffffffffffffff168152602001600682015481526020016007820180546112319061405a565b80601f016020809104026020016040519081016040528092919081815260200182805461125d9061405a565b80156112aa5780601f1061127f576101008083540402835291602001916112aa565b820191906000526020600020905b81548152906001019060200180831161128d57829003601f168201915b5050505050815250508484815181106112c6576112c561408c565b5b6020026020010181905250505080806112de906140ea565b915050610f65565b50809150505b90565b60016020528060005260406000206000915090508060000154908060010180546113189061405a565b80601f01602080910402602001604051908101604052809291908181526020018280546113449061405a565b80156113915780601f1061136657610100808354040283529160200191611391565b820191906000526020600020905b81548152906001019060200180831161137457829003601f168201915b5050505050908060020160009054906101000a900460ff16908060030180546113b99061405a565b80601f01602080910402602001604051908101604052809291908181526020018280546113e59061405a565b80156114325780601f1061140757610100808354040283529160200191611432565b820191906000526020600020905b81548152906001019060200180831161141557829003601f168201915b5050505050908060040160009054906101000a900473ffffffffffffffffffffffffffffffffffffffff16908060050160009054906101000a900473ffffffffffffffffffffffffffffffffffffffff16908060060154908060070180546114999061405a565b80601f01602080910402602001604051908101604052809291908181526020018280546114c59061405a565b80156115125780601f106114e757610100808354040283529160200191611512565b820191906000526020600020905b8154815290600101906020018083116114f557829003601f168201915b5050505050905088565b604051806101000160405280600254815260200185815260200184600481111561154957611548613448565b5b600481111561155b5761155a613448565b5b81526020018381526020018673ffffffffffffffffffffffffffffffffffffffff1681526020013373ffffffffffffffffffffffffffffffffffffffff16815260200142815260200182815250600160008773ffffffffffffffffffffffffffffffffffffffff1673ffffffffffffffffffffffffffffffffffffffff16815260200190815260200160002060008201518160000155602082015181600101908051906020019061160d92919061305a565b5060408201518160020160006101000a81548160ff0219169083600481111561163957611638613448565b5b0217905550606082015181600301908051906020019061165a92919061305a565b5060808201518160040160006101000a81548173ffffffffffffffffffffffffffffffffffffffff021916908373ffffffffffffffffffffffffffffffffffffffff16021790555060a08201518160050160006101000a81548173ffffffffffffffffffffffffffffffffffffffff021916908373ffffffffffffffffffffffffffffffffffffffff16021790555060c0820151816006015560e082015181600701908051906020019061170f92919061305a565b509050508473ffffffffffffffffffffffffffffffffffffffff167fac85378acf27ea180ea9b66d81dac89bcc984812edf7111c9413f708da4ca37a600160008873ffffffffffffffffffffffffffffffffffffffff1673ffffffffffffffffffffffffffffffffffffffff168152602001908152602001600020604051611797919061434e565b60405180910390a26003859080600181540180825580915050600190039060005260206000200160009091909190916101000a81548173ffffffffffffffffffffffffffffffffffffffff021916908373ffffffffffffffffffffffffffffffffffffffff16021790555060026000815480929190611815906140ea565b91905055505050505050565b85600460008473ffffffffffffffffffffffffffffffffffffffff1673ffffffffffffffffffffffffffffffffffffffff168152602001908152602001600020600201908051906020019061187792919061305a565b5084600281111561188b5761188a613448565b5b600460008473ffffffffffffffffffffffffffffffffffffffff1673ffffffffffffffffffffffffffffffffffffffff16815260200190815260200160002060030160016101000a81548160ff021916908360028111156118ef576118ee613448565b5b021790555080600460008473ffffffffffffffffffffffffffffffffffffffff1673ffffffffffffffffffffffffffffffffffffffff168152602001908152602001600020600701908051906020019061194a92919061305a565b508273ffffffffffffffffffffffffffffffffffffffff168273ffffffffffffffffffffffffffffffffffffffff167fa25a6f1ff57a050a48ae4b3a19f271fddad950cac8d165d6a2eca5d54cc8070f600460008673ffffffffffffffffffffffffffffffffffffffff1673ffffffffffffffffffffffffffffffffffffffff1681526020019081526020016000206040516119e6919061453b565b60405180910390a3846002811115611a0157611a00613448565b5b6002811115611a1357611a12613448565b5b600280811115611a2657611a25613448565b5b1415611b3557836004811115611a3f57611a3e613448565b5b600160008573ffffffffffffffffffffffffffffffffffffffff1673ffffffffffffffffffffffffffffffffffffffff16815260200190815260200160002060020160006101000a81548160ff02191690836004811115611aa357611aa2613448565b5b02179055508273ffffffffffffffffffffffffffffffffffffffff167fac85378acf27ea180ea9b66d81dac89bcc984812edf7111c9413f708da4ca37a600160008673ffffffffffffffffffffffffffffffffffffffff1673ffffffffffffffffffffffffffffffffffffffff168152602001908152602001600020604051611b2c919061434e565b60405180910390a25b505050505050565b60608060005b600554811015611fe957600060068281548110611b6357611b6261408c565b5b9060005260206000200160009054906101000a900473ffffffffffffffffffffffffffffffffffffffff1690506000600460008373ffffffffffffffffffffffffffffffffffffffff1673ffffffffffffffffffffffffffffffffffffffff16815260200190815260200160002090508060030160039054906101000a900473ffffffffffffffffffffffffffffffffffffffff1673ffffffffffffffffffffffffffffffffffffffff168673ffffffffffffffffffffffffffffffffffffffff161415611fd457806040518061016001604052908160008201548152602001600182018054611c529061405a565b80601f0160208091040260200160405190810160405280929190818152602001828054611c7e9061405a565b8015611ccb5780601f10611ca057610100808354040283529160200191611ccb565b820191906000526020600020905b815481529060010190602001808311611cae57829003601f168201915b50505050508152602001600282018054611ce49061405a565b80601f0160208091040260200160405190810160405280929190818152602001828054611d109061405a565b8015611d5d5780601f10611d3257610100808354040283529160200191611d5d565b820191906000526020600020905b815481529060010190602001808311611d4057829003601f168201915b505050505081526020016003820160009054906101000a900460ff166004811115611d8b57611d8a613448565b5b6004811115611d9d57611d9c613448565b5b81526020016003820160019054906101000a900460ff166002811115611dc657611dc5613448565b5b6002811115611dd857611dd7613448565b5b81526020016003820160029054906101000a900460ff166001811115611e0157611e00613448565b5b6001811115611e1357611e12613448565b5b81526020016003820160039054906101000a900473ffffffffffffffffffffffffffffffffffffffff1673ffffffffffffffffffffffffffffffffffffffff1673ffffffffffffffffffffffffffffffffffffffff1681526020016004820160009054906101000a900473ffffffffffffffffffffffffffffffffffffffff1673ffffffffffffffffffffffffffffffffffffffff1673ffffffffffffffffffffffffffffffffffffffff1681526020016005820160009054906101000a900473ffffffffffffffffffffffffffffffffffffffff1673ffffffffffffffffffffffffffffffffffffffff1673ffffffffffffffffffffffffffffffffffffffff16815260200160068201548152602001600782018054611f339061405a565b80601f0160208091040260200160405190810160405280929190818152602001828054611f5f9061405a565b8015611fac5780601f10611f8157610100808354040283529160200191611fac565b820191906000526020600020905b815481529060010190602001808311611f8f57829003601f168201915b505050505081525050848481518110611fc857611fc761408c565b5b60200260200101819052505b50508080611fe1906140ea565b915050611b43565b5080915050919050565b81600160008573ffffffffffffffffffffffffffffffffffffffff1673ffffffffffffffffffffffffffffffffffffffff168152602001908152602001600020600301908051906020019061204992919061305a565b5080600160008573ffffffffffffffffffffffffffffffffffffffff1673ffffffffffffffffffffffffffffffffffffffff16815260200190815260200160002060070190805190602001906120a092919061305a565b508273ffffffffffffffffffffffffffffffffffffffff167fac85378acf27ea180ea9b66d81dac89bcc984812edf7111c9413f708da4ca37a600160008673ffffffffffffffffffffffffffffffffffffffff1673ffffffffffffffffffffffffffffffffffffffff168152602001908152602001600020604051612125919061434e565b60405180910390a2505050565b6060806000600254141561214957809150506125c2565b60025467ffffffffffffffff8111156121655761216461312c565b5b60405190808252806020026020018201604052801561219e57816020015b61218b612fd7565b8152602001906001900390816121835790505b50905060005b6002548110156125bc576000600382815481106121c4576121c361408c565b5b9060005260206000200160009054906101000a900473ffffffffffffffffffffffffffffffffffffffff169050600160008273ffffffffffffffffffffffffffffffffffffffff1673ffffffffffffffffffffffffffffffffffffffff16815260200190815260200160002060050160009054906101000a900473ffffffffffffffffffffffffffffffffffffffff1673ffffffffffffffffffffffffffffffffffffffff168573ffffffffffffffffffffffffffffffffffffffff1614156125a8576000600160008373ffffffffffffffffffffffffffffffffffffffff1673ffffffffffffffffffffffffffffffffffffffff16815260200190815260200160002090508060405180610100016040529081600082015481526020016001820180546122f19061405a565b80601f016020809104026020016040519081016040528092919081815260200182805461231d9061405a565b801561236a5780601f1061233f5761010080835404028352916020019161236a565b820191906000526020600020905b81548152906001019060200180831161234d57829003601f168201915b505050505081526020016002820160009054906101000a900460ff16600481111561239857612397613448565b5b60048111156123aa576123a9613448565b5b81526020016003820180546123be9061405a565b80601f01602080910402602001604051908101604052809291908181526020018280546123ea9061405a565b80156124375780601f1061240c57610100808354040283529160200191612437565b820191906000526020600020905b81548152906001019060200180831161241a57829003601f168201915b505050505081526020016004820160009054906101000a900473ffffffffffffffffffffffffffffffffffffffff1673ffffffffffffffffffffffffffffffffffffffff1673ffffffffffffffffffffffffffffffffffffffff1681526020016005820160009054906101000a900473ffffffffffffffffffffffffffffffffffffffff1673ffffffffffffffffffffffffffffffffffffffff1673ffffffffffffffffffffffffffffffffffffffff168152602001600682015481526020016007820180546125069061405a565b80601f01602080910402602001604051908101604052809291908181526020018280546125329061405a565b801561257f5780601f106125545761010080835404028352916020019161257f565b820191906000526020600020905b81548152906001019060200180831161256257829003601f168201915b50505050508152505084848151811061259b5761259a61408c565b5b6020026020010181905250505b5080806125b4906140ea565b9150506121a4565b50809150505b919050565b6000600260048111156125dd576125dc613448565b5b8660048111156125f0576125ef613448565b5b600481111561260257612601613448565b5b14156126115760019050612616565b600090505b604051806101600160405280600554815260200188815260200160405180602001604052806000815250815260200187600481111561265857612657613448565b5b600481111561266a57612669613448565b5b815260200186600281111561268257612681613448565b5b600281111561269457612693613448565b5b81526020018260018111156126ac576126ab613448565b5b81526020018573ffffffffffffffffffffffffffffffffffffffff1681526020018473ffffffffffffffffffffffffffffffffffffffff1681526020013373ffffffffffffffffffffffffffffffffffffffff16815260200142815260200183815250600460008573ffffffffffffffffffffffffffffffffffffffff1673ffffffffffffffffffffffffffffffffffffffff16815260200190815260200160002060008201518160000155602082015181600101908051906020019061277492919061305a565b50604082015181600201908051906020019061279192919061305a565b5060608201518160030160006101000a81548160ff021916908360048111156127bd576127bc613448565b5b021790555060808201518160030160016101000a81548160ff021916908360028111156127ed576127ec613448565b5b021790555060a08201518160030160026101000a81548160ff0219169083600181111561281d5761281c613448565b5b021790555060c08201518160030160036101000a81548173ffffffffffffffffffffffffffffffffffffffff021916908373ffffffffffffffffffffffffffffffffffffffff16021790555060e08201518160040160006101000a81548173ffffffffffffffffffffffffffffffffffffffff021916908373ffffffffffffffffffffffffffffffffffffffff1602179055506101008201518160050160006101000a81548173ffffffffffffffffffffffffffffffffffffffff021916908373ffffffffffffffffffffffffffffffffffffffff160217905550610120820151816006015561014082015181600701908051906020019061292092919061305a565b509050508373ffffffffffffffffffffffffffffffffffffffff168373ffffffffffffffffffffffffffffffffffffffff167fa25a6f1ff57a050a48ae4b3a19f271fddad950cac8d165d6a2eca5d54cc8070f600460008773ffffffffffffffffffffffffffffffffffffffff1673ffffffffffffffffffffffffffffffffffffffff1681526020019081526020016000206040516129bf919061453b565b60405180910390a36006839080600181540180825580915050600190039060005260206000200160009091909190916101000a81548173ffffffffffffffffffffffffffffffffffffffff021916908373ffffffffffffffffffffffffffffffffffffffff16021790555060056000815480929190612a3d906140ea565b919050555050505050505050565b6060600060055467ffffffffffffffff811115612a6b57612a6a61312c565b5b604051908082528060200260200182016040528015612aa457816020015b612a91612f05565b815260200190600190039081612a895790505b50905060005b600554811015612ef757600060068281548110612aca57612ac961408c565b5b9060005260206000200160009054906101000a900473ffffffffffffffffffffffffffffffffffffffff1690506000600460008373ffffffffffffffffffffffffffffffffffffffff1673ffffffffffffffffffffffffffffffffffffffff1681526020019081526020016000209050806040518061016001604052908160008201548152602001600182018054612b619061405a565b80601f0160208091040260200160405190810160405280929190818152602001828054612b8d9061405a565b8015612bda5780601f10612baf57610100808354040283529160200191612bda565b820191906000526020600020905b815481529060010190602001808311612bbd57829003601f168201915b50505050508152602001600282018054612bf39061405a565b80601f0160208091040260200160405190810160405280929190818152602001828054612c1f9061405a565b8015612c6c5780601f10612c4157610100808354040283529160200191612c6c565b820191906000526020600020905b815481529060010190602001808311612c4f57829003601f168201915b505050505081526020016003820160009054906101000a900460ff166004811115612c9a57612c99613448565b5b6004811115612cac57612cab613448565b5b81526020016003820160019054906101000a900460ff166002811115612cd557612cd4613448565b5b6002811115612ce757612ce6613448565b5b81526020016003820160029054906101000a900460ff166001811115612d1057612d0f613448565b5b6001811115612d2257612d21613448565b5b81526020016003820160039054906101000a900473ffffffffffffffffffffffffffffffffffffffff1673ffffffffffffffffffffffffffffffffffffffff1673ffffffffffffffffffffffffffffffffffffffff1681526020016004820160009054906101000a900473ffffffffffffffffffffffffffffffffffffffff1673ffffffffffffffffffffffffffffffffffffffff1673ffffffffffffffffffffffffffffffffffffffff1681526020016005820160009054906101000a900473ffffffffffffffffffffffffffffffffffffffff1673ffffffffffffffffffffffffffffffffffffffff1673ffffffffffffffffffffffffffffffffffffffff16815260200160068201548152602001600782018054612e429061405a565b80601f0160208091040260200160405190810160405280929190818152602001828054612e6e9061405a565b8015612ebb5780601f10612e9057610100808354040283529160200191612ebb565b820191906000526020600020905b815481529060010190602001808311612e9e57829003601f168201915b505050505081525050848481518110612ed757612ed661408c565b5b602002602001018190525050508080612eef906140ea565b915050612aaa565b508091505090565b60025481565b60405180610160016040528060008152602001606081526020016060815260200160006004811115612f3a57612f39613448565b5b815260200160006002811115612f5357612f52613448565b5b815260200160006001811115612f6c57612f6b613448565b5b8152602001600073ffffffffffffffffffffffffffffffffffffffff168152602001600073ffffffffffffffffffffffffffffffffffffffff168152602001600073ffffffffffffffffffffffffffffffffffffffff16815260200160008152602001606081525090565b60405180610100016040528060008152602001606081526020016000600481111561300557613004613448565b5b815260200160608152602001600073ffffffffffffffffffffffffffffffffffffffff168152602001600073ffffffffffffffffffffffffffffffffffffffff16815260200160008152602001606081525090565b8280546130669061405a565b90600052602060002090601f01602090048101928261308857600085556130cf565b82601f106130a157805160ff19168380011785556130cf565b828001600101855582156130cf579182015b828111156130ce5782518255916020019190600101906130b3565b5b5090506130dc91906130e0565b5090565b5b808211156130f95760008160009055506001016130e1565b5090565b6000604051905090565b600080fd5b600080fd5b600080fd5b600080fd5b6000601f19601f8301169050919050565b7f4e487b7100000000000000000000000000000000000000000000000000000000600052604160045260246000fd5b6131648261311b565b810181811067ffffffffffffffff821117156131835761318261312c565b5b80604052505050565b60006131966130fd565b90506131a2828261315b565b919050565b600067ffffffffffffffff8211156131c2576131c161312c565b5b6131cb8261311b565b9050602081019050919050565b82818337600083830152505050565b60006131fa6131f5846131a7565b61318c565b90508281526020810184848401111561321657613215613116565b5b6132218482856131d8565b509392505050565b600082601f83011261323e5761323d613111565b5b813561324e8482602086016131e7565b91505092915050565b6000819050919050565b61326a81613257565b811461327557600080fd5b50565b60008135905061328781613261565b92915050565b600080604083850312156132a4576132a3613107565b5b600083013567ffffffffffffffff8111156132c2576132c161310c565b5b6132ce85828601613229565b92505060206132df85828601613278565b9150509250929050565b600073ffffffffffffffffffffffffffffffffffffffff82169050919050565b6000613314826132e9565b9050919050565b61332481613309565b82525050565b600060208201905061333f600083018461331b565b92915050565b61334e81613309565b811461335957600080fd5b50565b60008135905061336b81613345565b92915050565b6000806040838503121561338857613387613107565b5b60006133968582860161335c565b92505060206133a78582860161335c565b9150509250929050565b6133ba81613257565b82525050565b600081519050919050565b600082825260208201905092915050565b60005b838110156133fa5780820151818401526020810190506133df565b83811115613409576000848401525b50505050565b600061341a826133c0565b61342481856133cb565b93506134348185602086016133dc565b61343d8161311b565b840191505092915050565b7f4e487b7100000000000000000000000000000000000000000000000000000000600052602160045260246000fd5b6005811061348857613487613448565b5b50565b600081905061349982613477565b919050565b60006134a98261348b565b9050919050565b6134b98161349e565b82525050565b600381106134d0576134cf613448565b5b50565b60008190506134e1826134bf565b919050565b60006134f1826134d3565b9050919050565b613501816134e6565b82525050565b6002811061351857613517613448565b5b50565b600081905061352982613507565b919050565b60006135398261351b565b9050919050565b6135498161352e565b82525050565b61355881613309565b82525050565b60006101608301600083015161357760008601826133b1565b506020830151848203602086015261358f828261340f565b915050604083015184820360408601526135a9828261340f565b91505060608301516135be60608601826134b0565b5060808301516135d160808601826134f8565b5060a08301516135e460a0860182613540565b5060c08301516135f760c086018261354f565b5060e083015161360a60e086018261354f565b5061010083015161361f61010086018261354f565b506101208301516136346101208601826133b1565b5061014083015184820361014086015261364e828261340f565b9150508091505092915050565b60006020820190508181036000830152613675818461355e565b905092915050565b60006020828403121561369357613692613107565b5b60006136a18482850161335c565b91505092915050565b6000610100830160008301516136c360008601826133b1565b50602083015184820360208601526136db828261340f565b91505060408301516136f060408601826134b0565b5060608301518482036060860152613708828261340f565b915050608083015161371d608086018261354f565b5060a083015161373060a086018261354f565b5060c083015161374360c08601826133b1565b5060e083015184820360e086015261375b828261340f565b9150508091505092915050565b6000602082019050818103600083015261378281846136aa565b905092915050565b6000602082840312156137a05761379f613107565b5b60006137ae84828501613278565b91505092915050565b6137c081613257565b82525050565b60006020820190506137db60008301846137b7565b92915050565b600082825260208201905092915050565b60006137fd826133c0565b61380781856137e1565b93506138178185602086016133dc565b6138208161311b565b840191505092915050565b6138348161349e565b82525050565b613843816134e6565b82525050565b6138528161352e565b82525050565b60006101608201905061386e600083018e6137b7565b8181036020830152613880818d6137f2565b90508181036040830152613894818c6137f2565b90506138a3606083018b61382b565b6138b0608083018a61383a565b6138bd60a0830189613849565b6138ca60c083018861331b565b6138d760e083018761331b565b6138e561010083018661331b565b6138f36101208301856137b7565b81810361014083015261390681846137f2565b90509c9b505050505050505050505050565b600081519050919050565b600082825260208201905092915050565b6000819050602082019050919050565b60006101008301600083015161395d60008601826133b1565b5060208301518482036020860152613975828261340f565b915050604083015161398a60408601826134b0565b50606083015184820360608601526139a2828261340f565b91505060808301516139b7608086018261354f565b5060a08301516139ca60a086018261354f565b5060c08301516139dd60c08601826133b1565b5060e083015184820360e08601526139f5828261340f565b9150508091505092915050565b6000613a0e8383613944565b905092915050565b6000602082019050919050565b6000613a2e82613918565b613a388185613923565b935083602082028501613a4a85613934565b8060005b85811015613a865784840389528151613a678582613a02565b9450613a7283613a16565b925060208a01995050600181019050613a4e565b50829750879550505050505092915050565b60006020820190508181036000830152613ab28184613a23565b905092915050565b600061010082019050613ad0600083018b6137b7565b8181036020830152613ae2818a6137f2565b9050613af1604083018961382b565b8181036060830152613b0381886137f2565b9050613b12608083018761331b565b613b1f60a083018661331b565b613b2c60c08301856137b7565b81810360e0830152613b3e81846137f2565b90509998505050505050505050565b600080600080600060a08688031215613b6957613b68613107565b5b6000613b778882890161335c565b955050602086013567ffffffffffffffff811115613b9857613b9761310c565b5b613ba488828901613229565b9450506040613bb588828901613278565b935050606086013567ffffffffffffffff811115613bd657613bd561310c565b5b613be288828901613229565b925050608086013567ffffffffffffffff811115613c0357613c0261310c565b5b613c0f88828901613229565b9150509295509295909350565b60008060008060008060c08789031215613c3957613c38613107565b5b600087013567ffffffffffffffff811115613c5757613c5661310c565b5b613c6389828a01613229565b9650506020613c7489828a01613278565b9550506040613c8589828a01613278565b9450506060613c9689828a0161335c565b9350506080613ca789828a0161335c565b92505060a087013567ffffffffffffffff811115613cc857613cc761310c565b5b613cd489828a01613229565b9150509295509295509295565b600081519050919050565b600082825260208201905092915050565b6000819050602082019050919050565b600061016083016000830151613d2660008601826133b1565b5060208301518482036020860152613d3e828261340f565b91505060408301518482036040860152613d58828261340f565b9150506060830151613d6d60608601826134b0565b506080830151613d8060808601826134f8565b5060a0830151613d9360a0860182613540565b5060c0830151613da660c086018261354f565b5060e0830151613db960e086018261354f565b50610100830151613dce61010086018261354f565b50610120830151613de36101208601826133b1565b50610140830151848203610140860152613dfd828261340f565b9150508091505092915050565b6000613e168383613d0d565b905092915050565b6000602082019050919050565b6000613e3682613ce1565b613e408185613cec565b935083602082028501613e5285613cfd565b8060005b85811015613e8e5784840389528151613e6f8582613e0a565b9450613e7a83613e1e565b925060208a01995050600181019050613e56565b50829750879550505050505092915050565b60006020820190508181036000830152613eba8184613e2b565b905092915050565b600080600060608486031215613edb57613eda613107565b5b6000613ee98682870161335c565b935050602084013567ffffffffffffffff811115613f0a57613f0961310c565b5b613f1686828701613229565b925050604084013567ffffffffffffffff811115613f3757613f3661310c565b5b613f4386828701613229565b9150509250925092565b600081905092915050565b6000613f63826133c0565b613f6d8185613f4d565b9350613f7d8185602086016133dc565b80840191505092915050565b60008160601b9050919050565b6000613fa182613f89565b9050919050565b6000613fb382613f96565b9050919050565b613fcb613fc682613309565b613fa8565b82525050565b6000819050919050565b613fec613fe782613257565b613fd1565b82525050565b6000613ffe8286613f58565b915061400a8285613fba565b60148201915061401a8284613fdb565b602082019150819050949350505050565b7f4e487b7100000000000000000000000000000000000000000000000000000000600052602260045260246000fd5b6000600282049050600182168061407257607f821691505b602082108114156140865761408561402b565b5b50919050565b7f4e487b7100000000000000000000000000000000000000000000000000000000600052603260045260246000fd5b7f4e487b7100000000000000000000000000000000000000000000000000000000600052601160045260246000fd5b60006140f582613257565b91507fffffffffffffffffffffffffffffffffffffffffffffffffffffffffffffffff821415614128576141276140bb565b5b600182019050919050565b60008160001c9050919050565b6000819050919050565b600061415d61415883614133565b614140565b9050919050565b60008190508160005260206000209050919050565b600081546141868161405a565b61419081866133cb565b945060018216600081146141ab57600181146141bd576141f0565b60ff19831686526020860193506141f0565b6141c685614164565b60005b838110156141e8578154818901526001820191506020810190506141c9565b808801955050505b50505092915050565b600060ff82169050919050565b600061421961421483614133565b6141f9565b9050919050565b600073ffffffffffffffffffffffffffffffffffffffff82169050919050565b600061425361424e83614133565b614220565b9050919050565b6000610100830160008084015490506142728161414a565b61427f60008701826133b1565b506001840185830360208701526142968382614179565b925050600284015490506142a981614206565b6142b660408701826134b0565b506003840185830360608701526142cd8382614179565b925050600484015490506142e081614240565b6142ed608087018261354f565b50600584015490506142fe81614240565b61430b60a087018261354f565b506006840154905061431c8161414a565b61432960c08701826133b1565b506007840185830360e08701526143408382614179565b925050819250505092915050565b60006020820190508181036000830152614368818461425a565b905092915050565b60008160081c9050919050565b600060ff82169050919050565b600061439d61439883614370565b61437d565b9050919050565b60008160101c9050919050565b600060ff82169050919050565b60006143d16143cc836143a4565b6143b1565b9050919050565b60008160181c9050919050565b60006143f86143f3836143d8565b614220565b9050919050565b6000610160830160008084015490506144178161414a565b61442460008701826133b1565b5060018401858303602087015261443b8382614179565b9250506002840185830360408701526144548382614179565b9250506003840154905061446781614206565b61447460608701826134b0565b5061447e8161438a565b61448b60808701826134f8565b50614495816143be565b6144a260a0870182613540565b506144ac816143e5565b6144b960c087018261354f565b50600484015490506144ca81614240565b6144d760e087018261354f565b50600584015490506144e881614240565b6144f661010087018261354f565b50600684015490506145078161414a565b6145156101208701826133b1565b506007840185830361014087015261452d8382614179565b925050819250505092915050565b6000602082019050818103600083015261455581846143ff565b90509291505056fea264697066735822122057bbab8c828af119973bddb0590688a6640db709b45b7aab8dbe3b776cac887664736f6c634300080a0033",
  "immutableReferences": {},
  "source": "// SPDX-License-Identifier: MIT\r\npragma solidity >=0.8.0 <0.9.0;\r\n\r\nimport \"./UserChain.sol\";\r\nimport \"./SharedChain.sol\";\r\n\r\ncontract ProjectChain is SharedChain {\r\n    UserChain userChain;\r\n\r\n    constructor() {\r\n        //userChain = new UserChain();\r\n    }\r\n\r\n    modifier onlyUserProject() {\r\n        // User memory sessionUser = userChain.getUserInfo(msg.sender);\r\n        // require(\r\n        //     sessionUser._role == Roles.UserProject,\r\n        //     \"You don't have the rights for this resource.\"\r\n        // );\r\n        _;\r\n    }\r\n\r\n    modifier onlySupervisor() {\r\n        // User memory sessionUser = userChain.getUserInfo(msg.sender);\r\n        // require(\r\n        //     sessionUser._role == Roles.Supervisor,\r\n        //     \"You don't have the rights for this resource.\"\r\n        // );\r\n        _;\r\n    }\r\n\r\n    modifier onlyCompany() {\r\n        // User memory sessionUser = userChain.getUserInfo(msg.sender);\r\n        // require(\r\n        //     sessionUser._role == Roles.Company,\r\n        //     \"You don't have the rights for this resource.\"\r\n        // );\r\n        _;\r\n    }\r\n\r\n\r\n    /**  PROJECT INITIATOR  */\r\n\r\n    mapping(address => Project) public projects;\r\n    uint256 public projectsCounter = 0;\r\n    address[] public projectsAddress;\r\n\r\n    function createUniqueProjectAddress(string memory _name, uint256 _index) public view returns (address) {\r\n        return address(uint160(uint256(keccak256(abi.encodePacked(_name, msg.sender, _index)))));\r\n    }\r\n\r\n    function createProject(\r\n        address _projectAddress,\r\n        string memory _name,\r\n        uint256 _status,\r\n        string memory _ipfsFileCID,\r\n        string memory _signature\r\n    ) public onlyUserProject {\r\n        projects[_projectAddress] = Project(\r\n            projectsCounter,\r\n            _name,\r\n            ProjectStatus(_status),\r\n            _ipfsFileCID,\r\n            _projectAddress,\r\n            msg.sender,\r\n            block.timestamp,\r\n            _signature\r\n        );\r\n\r\n        emit ProjectEvent(projects[_projectAddress], _projectAddress);\r\n        projectsAddress.push(_projectAddress);\r\n        projectsCounter++;\r\n    }\r\n\r\n    function updateProject(\r\n        address _projectAddress,\r\n        string memory _ipfsFileCID,\r\n        string memory _signature\r\n    ) public onlyUserProject {\r\n        projects[_projectAddress]._ipfsFileCID = _ipfsFileCID;\r\n        projects[_projectAddress]._signature = _signature;\r\n\r\n        emit ProjectEvent(projects[_projectAddress], _projectAddress);\r\n    }\r\n\r\n    function getProjectInfo(address _address)\r\n        public\r\n        view\r\n        returns (Project memory)\r\n    {\r\n        //require(msg.sender != address(0x0), \"Address is not valid.\");\r\n        return projects[_address];\r\n    }\r\n\r\n    function getUserProjects(address _signerAddress) public view returns (Project[] memory) {\r\n        Project[] memory allProjects;\r\n        if (projectsCounter == 0) return allProjects;\r\n\r\n        allProjects = new Project[](projectsCounter);\r\n        for (uint256 index = 0; index < projectsCounter; index++) {\r\n            address _projectAddress = projectsAddress[index];\r\n            if (_signerAddress == projects[_projectAddress]._signerAddress) {\r\n                Project storage project = projects[_projectAddress];\r\n                allProjects[index] = project;\r\n            }\r\n        }\r\n        return allProjects;\r\n    }\r\n\r\n    function getAllProjects() public view returns (Project[] memory) {\r\n        Project[] memory allProjects;\r\n        if (projectsCounter == 0) return allProjects;\r\n\r\n        allProjects = new Project[](projectsCounter);\r\n        for (uint256 index = 0; index < projectsCounter; index++) {\r\n            address _projectAddress = projectsAddress[index];\r\n            Project storage project = projects[_projectAddress];\r\n            allProjects[index] = project;\r\n        }\r\n        return allProjects;\r\n    }\r\n\r\n\r\n    /**  Requests  */\r\n\r\n    mapping(address => Request) public requests;\r\n    uint256 public requestsCounter = 0;\r\n    address[] public requestsAddress;\r\n\r\n    function createUniqueRequestAddress(string memory _title, uint256 _index) public view returns (address) {\r\n        return address(uint160(uint256(keccak256(abi.encodePacked(_title, msg.sender, _index)))));\r\n    }\r\n\r\n    function createRequest(\r\n        string memory _title,\r\n        uint256 _projectStatus,\r\n        uint256 _requestStatus,\r\n        address _projectAddress,\r\n        address _requestAddress,\r\n        string memory _signature\r\n    ) public {\r\n        //require(projects[_projectAddress]._status == ProjectStatus.Created, \"Steps must follow accordingly\");\r\n        //require(ProjectStatus.ToApprove == RequestStatus.UnApproved, \"\");\r\n        //require(ProjectStatus.ToApprove == RequestStatus.Rejected, \"\");\r\n\r\n        RequestType _requestType;\r\n        if (ProjectStatus(_projectStatus) == ProjectStatus.StartProject) {\r\n            _requestType = RequestType.CompanyReq;\r\n        } else {\r\n            _requestType = RequestType.SupervisorReq;\r\n        }\r\n\r\n        requests[_requestAddress] = Request(\r\n            requestsCounter,\r\n            _title,\r\n            \"\",\r\n            ProjectStatus(_projectStatus),\r\n            RequestStatus(_requestStatus),\r\n            RequestType(_requestType),\r\n            _projectAddress,\r\n            _requestAddress,\r\n            msg.sender,\r\n            block.timestamp,\r\n            _signature\r\n        );\r\n\r\n        emit RequestEvent(requests[_requestAddress], _requestAddress, _projectAddress);\r\n        requestsAddress.push(_requestAddress);\r\n        requestsCounter++;\r\n    }\r\n\r\n    function updateRequest(\r\n        string memory _comments,\r\n        uint256 _requestStatus,\r\n        uint256 _projectStatus,\r\n        address _projectAddress,\r\n        address _requestAddress,\r\n        string memory _signature\r\n    ) public {\r\n        // Update Requests Mapping and Struct Array\r\n        requests[_requestAddress]._comments = _comments;\r\n        requests[_requestAddress]._requestStatus = RequestStatus(_requestStatus);\r\n        requests[_requestAddress]._signature = _signature;\r\n        emit RequestEvent(requests[_requestAddress], _requestAddress, _projectAddress);\r\n\r\n        // Update Project Mapping and Struct Array\r\n        if (RequestStatus.Approved == RequestStatus(_requestStatus)) {\r\n            projects[_projectAddress]._status = ProjectStatus(_projectStatus);\r\n            emit ProjectEvent(projects[_projectAddress], _projectAddress);\r\n        }\r\n    }\r\n\r\n    function getAllRequests() public view returns (Request[] memory) {\r\n        Request[] memory allRequests = new Request[](requestsCounter);\r\n        for (uint256 index = 0; index < requestsCounter; index++) {\r\n            address _requestAddress = requestsAddress[index];\r\n            Request storage request = requests[_requestAddress];\r\n            allRequests[index] = request;\r\n        }\r\n        return allRequests;\r\n    }\r\n\r\n    function getProjectRequests(address _projectAddress) public view returns (Request[] memory) {\r\n        Request[] memory allRequests;\r\n        for (uint256 index = 0; index < requestsCounter; index++) {\r\n            address _requestAddress = requestsAddress[index];\r\n            Request storage request = requests[_requestAddress];\r\n            if (_projectAddress == request._projectAddress) {\r\n                allRequests[index] = request;\r\n            }\r\n        }\r\n        return allRequests;\r\n    }\r\n\r\n\r\n    function getLastProjectRequest(address _projectAddress, address _requestAddress)\r\n        public view returns (Request memory)\r\n    {\r\n        Request memory request;\r\n        if (requestsCounter > 0) {\r\n            if (requests[_requestAddress]._projectAddress == _projectAddress) {\r\n                request = requests[_requestAddress];\r\n            }\r\n        }\r\n        return request;\r\n    }\r\n\r\n\r\n\r\n}\r\n",
  "sourcePath": "/mnt/c/Users/Beniamin/source/repos/DissertationProject/contracts/ProjectChain.sol",
  "compiler": {
    "name": "solc",
    "version": "0.8.10+commit.fc410830.Emscripten.clang"
  },
  "schemaVersion": "3.4.3",
  "updatedAt": "2021-12-11T16:08:14.002Z",
  "networkType": "ethereum",
  "devdoc": {
    "kind": "dev",
    "methods": {},
    "version": 1
  },
  "userdoc": {
    "kind": "user",
    "methods": {
      "projects(address)": {
        "notice": "PROJECT INITIATOR  "
      },
      "requests(address)": {
        "notice": "Requests  "
      }
    },
    "version": 1
  }
}