{
  "contractName": "ProjectChain",
  "abi": [
    {
      "inputs": [],
      "stateMutability": "nonpayable",
      "type": "constructor"
    },
    {
      "anonymous": false,
      "inputs": [
        {
          "components": [
            {
              "internalType": "uint256",
              "name": "_index",
              "type": "uint256"
            },
            {
              "internalType": "string",
              "name": "_name",
              "type": "string"
            },
            {
              "internalType": "enum SharedChain.ProjectStatus",
              "name": "_status",
              "type": "uint8"
            },
            {
              "internalType": "string",
              "name": "_ipfsFileCID",
              "type": "string"
            },
            {
              "internalType": "address",
              "name": "_projectAddress",
              "type": "address"
            },
            {
              "internalType": "address",
              "name": "_signerAddress",
              "type": "address"
            },
            {
              "internalType": "uint256",
              "name": "_timestamp",
              "type": "uint256"
            },
            {
              "internalType": "string",
              "name": "_signature",
              "type": "string"
            }
          ],
          "indexed": false,
          "internalType": "struct SharedChain.Project",
          "name": "_project",
          "type": "tuple"
        },
        {
          "indexed": true,
          "internalType": "address",
          "name": "_projectAddress",
          "type": "address"
        }
      ],
      "name": "ProjectEvent",
      "type": "event"
    },
    {
      "anonymous": false,
      "inputs": [
        {
          "components": [
            {
              "internalType": "uint256",
              "name": "_index",
              "type": "uint256"
            },
            {
              "internalType": "string",
              "name": "_title",
              "type": "string"
            },
            {
              "internalType": "string",
              "name": "_comments",
              "type": "string"
            },
            {
              "internalType": "enum SharedChain.ProjectStatus",
              "name": "_status",
              "type": "uint8"
            },
            {
              "internalType": "enum SharedChain.RequestStatus",
              "name": "_requestStatus",
              "type": "uint8"
            },
            {
              "internalType": "address",
              "name": "_projectAddress",
              "type": "address"
            },
            {
              "internalType": "address",
              "name": "_signerAddress",
              "type": "address"
            },
            {
              "internalType": "address",
              "name": "_requestAddress",
              "type": "address"
            },
            {
              "internalType": "uint256",
              "name": "_timestamp",
              "type": "uint256"
            },
            {
              "internalType": "string",
              "name": "_signature",
              "type": "string"
            }
          ],
          "indexed": false,
          "internalType": "struct SharedChain.ProjectRequest",
          "name": "_projectRequest",
          "type": "tuple"
        },
        {
          "indexed": true,
          "internalType": "address",
          "name": "_projectAddress",
          "type": "address"
        }
      ],
      "name": "ProjectRequestEvent",
      "type": "event"
    },
    {
      "anonymous": false,
      "inputs": [
        {
          "components": [
            {
              "internalType": "uint256",
              "name": "_index",
              "type": "uint256"
            },
            {
              "internalType": "uint256",
              "name": "_indexProjectRequest",
              "type": "uint256"
            },
            {
              "internalType": "string",
              "name": "_title",
              "type": "string"
            },
            {
              "internalType": "enum SharedChain.RequestStatus",
              "name": "_requestStatus",
              "type": "uint8"
            },
            {
              "internalType": "enum SharedChain.ProjectStatus",
              "name": "_projectStatus",
              "type": "uint8"
            },
            {
              "internalType": "enum SharedChain.RequestType",
              "name": "_requestType",
              "type": "uint8"
            },
            {
              "internalType": "address",
              "name": "_projectAddress",
              "type": "address"
            },
            {
              "internalType": "address",
              "name": "_signerAddress",
              "type": "address"
            },
            {
              "internalType": "address",
              "name": "_requestAddress",
              "type": "address"
            },
            {
              "internalType": "uint256",
              "name": "_timestamp",
              "type": "uint256"
            },
            {
              "internalType": "string",
              "name": "_signature",
              "type": "string"
            }
          ],
          "indexed": false,
          "internalType": "struct SharedChain.Request",
          "name": "_request",
          "type": "tuple"
        }
      ],
      "name": "RequestEvent",
      "type": "event"
    },
    {
      "anonymous": false,
      "inputs": [
        {
          "indexed": false,
          "internalType": "uint256",
          "name": "_index",
          "type": "uint256"
        },
        {
          "indexed": true,
          "internalType": "string",
          "name": "_username",
          "type": "string"
        },
        {
          "indexed": false,
          "internalType": "bytes32",
          "name": "_email",
          "type": "bytes32"
        },
        {
          "indexed": false,
          "internalType": "bytes32",
          "name": "_firstname",
          "type": "bytes32"
        },
        {
          "indexed": false,
          "internalType": "bytes32",
          "name": "_lastname",
          "type": "bytes32"
        },
        {
          "indexed": true,
          "internalType": "enum SharedChain.Roles",
          "name": "_role",
          "type": "uint8"
        },
        {
          "indexed": true,
          "internalType": "address",
          "name": "_walletAddress",
          "type": "address"
        },
        {
          "indexed": false,
          "internalType": "uint256",
          "name": "_timestamp",
          "type": "uint256"
        }
      ],
      "name": "UserEvent",
      "type": "event"
    },
    {
      "inputs": [
        {
          "internalType": "uint256",
          "name": "_role",
          "type": "uint256"
        },
        {
          "internalType": "address",
          "name": "_walletAddress",
          "type": "address"
        }
      ],
      "name": "changeUserRole",
      "outputs": [],
      "stateMutability": "nonpayable",
      "type": "function"
    },
    {
      "inputs": [],
      "name": "getAllUsers",
      "outputs": [
        {
          "components": [
            {
              "internalType": "uint256",
              "name": "_index",
              "type": "uint256"
            },
            {
              "internalType": "string",
              "name": "_username",
              "type": "string"
            },
            {
              "internalType": "bytes32",
              "name": "_email",
              "type": "bytes32"
            },
            {
              "internalType": "bytes32",
              "name": "_firstname",
              "type": "bytes32"
            },
            {
              "internalType": "bytes32",
              "name": "_lastname",
              "type": "bytes32"
            },
            {
              "internalType": "enum SharedChain.Roles",
              "name": "_role",
              "type": "uint8"
            },
            {
              "internalType": "address",
              "name": "_walletAddress",
              "type": "address"
            },
            {
              "internalType": "uint256",
              "name": "_timestamp",
              "type": "uint256"
            }
          ],
          "internalType": "struct SharedChain.User[]",
          "name": "",
          "type": "tuple[]"
        }
      ],
      "stateMutability": "view",
      "type": "function",
      "constant": true
    },
    {
      "inputs": [
        {
          "internalType": "address",
          "name": "_walletAddress",
          "type": "address"
        }
      ],
      "name": "getUserInfo",
      "outputs": [
        {
          "components": [
            {
              "internalType": "uint256",
              "name": "_index",
              "type": "uint256"
            },
            {
              "internalType": "string",
              "name": "_username",
              "type": "string"
            },
            {
              "internalType": "bytes32",
              "name": "_email",
              "type": "bytes32"
            },
            {
              "internalType": "bytes32",
              "name": "_firstname",
              "type": "bytes32"
            },
            {
              "internalType": "bytes32",
              "name": "_lastname",
              "type": "bytes32"
            },
            {
              "internalType": "enum SharedChain.Roles",
              "name": "_role",
              "type": "uint8"
            },
            {
              "internalType": "address",
              "name": "_walletAddress",
              "type": "address"
            },
            {
              "internalType": "uint256",
              "name": "_timestamp",
              "type": "uint256"
            }
          ],
          "internalType": "struct SharedChain.User",
          "name": "",
          "type": "tuple"
        }
      ],
      "stateMutability": "view",
      "type": "function",
      "constant": true
    },
    {
      "inputs": [],
      "name": "owner",
      "outputs": [
        {
          "internalType": "address",
          "name": "",
          "type": "address"
        }
      ],
      "stateMutability": "view",
      "type": "function",
      "constant": true
    },
    {
      "inputs": [
        {
          "internalType": "uint256",
          "name": "",
          "type": "uint256"
        }
      ],
      "name": "projectRequests",
      "outputs": [
        {
          "internalType": "uint256",
          "name": "_index",
          "type": "uint256"
        },
        {
          "internalType": "string",
          "name": "_title",
          "type": "string"
        },
        {
          "internalType": "string",
          "name": "_comments",
          "type": "string"
        },
        {
          "internalType": "enum SharedChain.ProjectStatus",
          "name": "_status",
          "type": "uint8"
        },
        {
          "internalType": "enum SharedChain.RequestStatus",
          "name": "_requestStatus",
          "type": "uint8"
        },
        {
          "internalType": "address",
          "name": "_projectAddress",
          "type": "address"
        },
        {
          "internalType": "address",
          "name": "_signerAddress",
          "type": "address"
        },
        {
          "internalType": "address",
          "name": "_requestAddress",
          "type": "address"
        },
        {
          "internalType": "uint256",
          "name": "_timestamp",
          "type": "uint256"
        },
        {
          "internalType": "string",
          "name": "_signature",
          "type": "string"
        }
      ],
      "stateMutability": "view",
      "type": "function",
      "constant": true
    },
    {
      "inputs": [
        {
          "internalType": "uint256",
          "name": "",
          "type": "uint256"
        }
      ],
      "name": "projectRequestsAddress",
      "outputs": [
        {
          "internalType": "address",
          "name": "",
          "type": "address"
        }
      ],
      "stateMutability": "view",
      "type": "function",
      "constant": true
    },
    {
      "inputs": [],
      "name": "projectRequestsCounter",
      "outputs": [
        {
          "internalType": "uint256",
          "name": "",
          "type": "uint256"
        }
      ],
      "stateMutability": "view",
      "type": "function",
      "constant": true
    },
    {
      "inputs": [
        {
          "internalType": "address",
          "name": "",
          "type": "address"
        }
      ],
      "name": "projects",
      "outputs": [
        {
          "internalType": "uint256",
          "name": "_index",
          "type": "uint256"
        },
        {
          "internalType": "string",
          "name": "_name",
          "type": "string"
        },
        {
          "internalType": "enum SharedChain.ProjectStatus",
          "name": "_status",
          "type": "uint8"
        },
        {
          "internalType": "string",
          "name": "_ipfsFileCID",
          "type": "string"
        },
        {
          "internalType": "address",
          "name": "_projectAddress",
          "type": "address"
        },
        {
          "internalType": "address",
          "name": "_signerAddress",
          "type": "address"
        },
        {
          "internalType": "uint256",
          "name": "_timestamp",
          "type": "uint256"
        },
        {
          "internalType": "string",
          "name": "_signature",
          "type": "string"
        }
      ],
      "stateMutability": "view",
      "type": "function",
      "constant": true
    },
    {
      "inputs": [
        {
          "internalType": "uint256",
          "name": "",
          "type": "uint256"
        }
      ],
      "name": "projectsAddress",
      "outputs": [
        {
          "internalType": "address",
          "name": "",
          "type": "address"
        }
      ],
      "stateMutability": "view",
      "type": "function",
      "constant": true
    },
    {
      "inputs": [],
      "name": "projectsCounter",
      "outputs": [
        {
          "internalType": "uint256",
          "name": "",
          "type": "uint256"
        }
      ],
      "stateMutability": "view",
      "type": "function",
      "constant": true
    },
    {
      "inputs": [
        {
          "internalType": "string",
          "name": "_username",
          "type": "string"
        },
        {
          "internalType": "bytes32",
          "name": "_email",
          "type": "bytes32"
        },
        {
          "internalType": "bytes32",
          "name": "_firstname",
          "type": "bytes32"
        },
        {
          "internalType": "bytes32",
          "name": "_lastname",
          "type": "bytes32"
        },
        {
          "internalType": "uint256",
          "name": "_role",
          "type": "uint256"
        },
        {
          "internalType": "address",
          "name": "_walletAddress",
          "type": "address"
        }
      ],
      "name": "registerUser",
      "outputs": [],
      "stateMutability": "nonpayable",
      "type": "function"
    },
    {
      "inputs": [
        {
          "internalType": "address",
          "name": "",
          "type": "address"
        }
      ],
      "name": "users",
      "outputs": [
        {
          "internalType": "uint256",
          "name": "_index",
          "type": "uint256"
        },
        {
          "internalType": "string",
          "name": "_username",
          "type": "string"
        },
        {
          "internalType": "bytes32",
          "name": "_email",
          "type": "bytes32"
        },
        {
          "internalType": "bytes32",
          "name": "_firstname",
          "type": "bytes32"
        },
        {
          "internalType": "bytes32",
          "name": "_lastname",
          "type": "bytes32"
        },
        {
          "internalType": "enum SharedChain.Roles",
          "name": "_role",
          "type": "uint8"
        },
        {
          "internalType": "address",
          "name": "_walletAddress",
          "type": "address"
        },
        {
          "internalType": "uint256",
          "name": "_timestamp",
          "type": "uint256"
        }
      ],
      "stateMutability": "view",
      "type": "function",
      "constant": true
    },
    {
      "inputs": [
        {
          "internalType": "uint256",
          "name": "",
          "type": "uint256"
        }
      ],
      "name": "usersAddress",
      "outputs": [
        {
          "internalType": "address",
          "name": "",
          "type": "address"
        }
      ],
      "stateMutability": "view",
      "type": "function",
      "constant": true
    },
    {
      "inputs": [],
      "name": "usersCounter",
      "outputs": [
        {
          "internalType": "uint256",
          "name": "",
          "type": "uint256"
        }
      ],
      "stateMutability": "view",
      "type": "function",
      "constant": true
    },
    {
      "inputs": [
        {
          "internalType": "string",
          "name": "_name",
          "type": "string"
        },
        {
          "internalType": "uint256",
          "name": "_index",
          "type": "uint256"
        }
      ],
      "name": "createUniqueProjectAddress",
      "outputs": [
        {
          "internalType": "address",
          "name": "",
          "type": "address"
        }
      ],
      "stateMutability": "view",
      "type": "function",
      "constant": true
    },
    {
      "inputs": [
        {
          "internalType": "address",
          "name": "_projectAddress",
          "type": "address"
        },
        {
          "internalType": "string",
          "name": "_name",
          "type": "string"
        },
        {
          "internalType": "uint256",
          "name": "_status",
          "type": "uint256"
        },
        {
          "internalType": "string",
          "name": "_ipfsFileCID",
          "type": "string"
        },
        {
          "internalType": "string",
          "name": "_signature",
          "type": "string"
        }
      ],
      "name": "createProject",
      "outputs": [],
      "stateMutability": "nonpayable",
      "type": "function"
    },
    {
      "inputs": [
        {
          "internalType": "address",
          "name": "_projectAddress",
          "type": "address"
        },
        {
          "internalType": "string",
          "name": "_ipfsFileCID",
          "type": "string"
        },
        {
          "internalType": "string",
          "name": "_signature",
          "type": "string"
        }
      ],
      "name": "updateProject",
      "outputs": [],
      "stateMutability": "nonpayable",
      "type": "function"
    },
    {
      "inputs": [
        {
          "internalType": "address",
          "name": "_address",
          "type": "address"
        }
      ],
      "name": "getProjectInfo",
      "outputs": [
        {
          "components": [
            {
              "internalType": "uint256",
              "name": "_index",
              "type": "uint256"
            },
            {
              "internalType": "string",
              "name": "_name",
              "type": "string"
            },
            {
              "internalType": "enum SharedChain.ProjectStatus",
              "name": "_status",
              "type": "uint8"
            },
            {
              "internalType": "string",
              "name": "_ipfsFileCID",
              "type": "string"
            },
            {
              "internalType": "address",
              "name": "_projectAddress",
              "type": "address"
            },
            {
              "internalType": "address",
              "name": "_signerAddress",
              "type": "address"
            },
            {
              "internalType": "uint256",
              "name": "_timestamp",
              "type": "uint256"
            },
            {
              "internalType": "string",
              "name": "_signature",
              "type": "string"
            }
          ],
          "internalType": "struct SharedChain.Project",
          "name": "",
          "type": "tuple"
        }
      ],
      "stateMutability": "view",
      "type": "function",
      "constant": true
    },
    {
      "inputs": [],
      "name": "getAllProjects",
      "outputs": [
        {
          "components": [
            {
              "internalType": "uint256",
              "name": "_index",
              "type": "uint256"
            },
            {
              "internalType": "string",
              "name": "_name",
              "type": "string"
            },
            {
              "internalType": "enum SharedChain.ProjectStatus",
              "name": "_status",
              "type": "uint8"
            },
            {
              "internalType": "string",
              "name": "_ipfsFileCID",
              "type": "string"
            },
            {
              "internalType": "address",
              "name": "_projectAddress",
              "type": "address"
            },
            {
              "internalType": "address",
              "name": "_signerAddress",
              "type": "address"
            },
            {
              "internalType": "uint256",
              "name": "_timestamp",
              "type": "uint256"
            },
            {
              "internalType": "string",
              "name": "_signature",
              "type": "string"
            }
          ],
          "internalType": "struct SharedChain.Project[]",
          "name": "",
          "type": "tuple[]"
        }
      ],
      "stateMutability": "view",
      "type": "function",
      "constant": true
    },
    {
      "inputs": [
        {
          "internalType": "string",
          "name": "_title",
          "type": "string"
        },
        {
          "internalType": "uint256",
          "name": "_index",
          "type": "uint256"
        }
      ],
      "name": "createUniqueProjectRequestAddress",
      "outputs": [
        {
          "internalType": "address",
          "name": "",
          "type": "address"
        }
      ],
      "stateMutability": "view",
      "type": "function",
      "constant": true
    },
    {
      "inputs": [
        {
          "internalType": "address",
          "name": "p",
          "type": "address"
        },
        {
          "internalType": "bytes32",
          "name": "hash",
          "type": "bytes32"
        },
        {
          "internalType": "uint8",
          "name": "v",
          "type": "uint8"
        },
        {
          "internalType": "bytes32",
          "name": "r",
          "type": "bytes32"
        },
        {
          "internalType": "bytes32",
          "name": "s",
          "type": "bytes32"
        }
      ],
      "name": "verifyTest",
      "outputs": [
        {
          "internalType": "bool",
          "name": "",
          "type": "bool"
        }
      ],
      "stateMutability": "pure",
      "type": "function",
      "constant": true
    },
    {
      "inputs": [
        {
          "internalType": "address",
          "name": "p",
          "type": "address"
        },
        {
          "internalType": "bytes32",
          "name": "hash",
          "type": "bytes32"
        },
        {
          "internalType": "uint8",
          "name": "v",
          "type": "uint8"
        },
        {
          "internalType": "bytes32",
          "name": "r",
          "type": "bytes32"
        },
        {
          "internalType": "bytes32",
          "name": "s",
          "type": "bytes32"
        }
      ],
      "name": "test",
      "outputs": [
        {
          "internalType": "address",
          "name": "",
          "type": "address"
        }
      ],
      "stateMutability": "pure",
      "type": "function",
      "constant": true
    },
    {
      "inputs": [
        {
          "internalType": "address",
          "name": "_projectAddress",
          "type": "address"
        }
      ],
      "name": "getMessageHash",
      "outputs": [
        {
          "internalType": "bytes32",
          "name": "",
          "type": "bytes32"
        }
      ],
      "stateMutability": "pure",
      "type": "function",
      "constant": true
    },
    {
      "inputs": [
        {
          "internalType": "bytes32",
          "name": "_messageHash",
          "type": "bytes32"
        }
      ],
      "name": "getEthSignedMessageHash",
      "outputs": [
        {
          "internalType": "bytes32",
          "name": "",
          "type": "bytes32"
        }
      ],
      "stateMutability": "pure",
      "type": "function",
      "constant": true
    },
    {
      "inputs": [
        {
          "internalType": "address",
          "name": "_projectAddress",
          "type": "address"
        },
        {
          "internalType": "string",
          "name": "signature",
          "type": "string"
        }
      ],
      "name": "verify",
      "outputs": [
        {
          "internalType": "bool",
          "name": "",
          "type": "bool"
        }
      ],
      "stateMutability": "pure",
      "type": "function",
      "constant": true
    },
    {
      "inputs": [
        {
          "internalType": "bytes32",
          "name": "_ethSignedMessageHash",
          "type": "bytes32"
        },
        {
          "internalType": "string",
          "name": "_signature",
          "type": "string"
        }
      ],
      "name": "recoverSigner",
      "outputs": [
        {
          "internalType": "address",
          "name": "",
          "type": "address"
        }
      ],
      "stateMutability": "pure",
      "type": "function",
      "constant": true
    },
    {
      "inputs": [
        {
          "internalType": "string",
          "name": "sig",
          "type": "string"
        }
      ],
      "name": "splitSignature",
      "outputs": [
        {
          "internalType": "bytes32",
          "name": "r",
          "type": "bytes32"
        },
        {
          "internalType": "bytes32",
          "name": "s",
          "type": "bytes32"
        },
        {
          "internalType": "uint8",
          "name": "v",
          "type": "uint8"
        }
      ],
      "stateMutability": "pure",
      "type": "function",
      "constant": true
    }
  ],
  "bytecode": "0x608060405260006003556000600655600060095534801561001f57600080fd5b50336000806101000a81548173ffffffffffffffffffffffffffffffffffffffff021916908373ffffffffffffffffffffffffffffffffffffffff16021790555033600460006101000a81548173ffffffffffffffffffffffffffffffffffffffff021916908373ffffffffffffffffffffffffffffffffffffffff160217905550613e7e806100b06000396000f3fe608060405234801561001057600080fd5b50600436106101a95760003560e01c80638da5cb5b116100f9578063d67b1b9911610097578063e2842d7911610071578063e2842d791461057f578063e8fc92731461059d578063fa540801146105cd578063fe360ea5146105fd576101a9565b8063d67b1b9914610515578063dca9541914610533578063e1592c0d14610563576101a9565b8063a87430ba116100d3578063a87430ba1461046b578063c19ded13146104a2578063cc1ee4db146104db578063cf13f5d4146104f9576101a9565b80638da5cb5b14610401578063910097861461041f578063a1321db81461043b576101a9565b80636386c1c7116101665780637bc406ec116101405780637bc406ec1461036057806380d0382914610390578063840e78fd146103ae57806384485563146103e5576101a9565b80636386c1c7146102d057806376c932e01461030057806378e8cd8514610330576101a9565b8063191e1645146101ae5780631f5ac1b2146101de5780632c91324c1461020e57806347ee45b91461023e5780634cb49f291461026e5780634ef6109a146102a0575b600080fd5b6101c860048036038101906101c3919061281c565b61061b565b6040516101d591906128b9565b60405180910390f35b6101f860048036038101906101f39190612900565b610675565b6040516102059190612946565b60405180910390f35b61022860048036038101906102239190612961565b6106a5565b60405161023591906128b9565b60405180910390f35b61025860048036038101906102539190612900565b6106e4565b6040516102659190612b69565b60405180910390f35b61028860048036038101906102839190612b8b565b6109ef565b60405161029793929190612bf0565b60405180910390f35b6102ba60048036038101906102b59190612c7f565b610a57565b6040516102c79190612d15565b60405180910390f35b6102ea60048036038101906102e59190612900565b610ae1565b6040516102f79190612e37565b60405180910390f35b61031a60048036038101906103159190612961565b610c90565b60405161032791906128b9565b60405180910390f35b61034a60048036038101906103459190612961565b610ccf565b60405161035791906128b9565b60405180910390f35b61037a6004803603810190610375919061281c565b610d0e565b60405161038791906128b9565b60405180910390f35b610398610d68565b6040516103a59190612fd9565b60405180910390f35b6103c860048036038101906103c39190612900565b611164565b6040516103dc989796959493929190613063565b60405180910390f35b6103ff60048036038101906103fa91906130f6565b611391565b005b6104096116b8565b60405161041691906128b9565b60405180910390f35b610439600480360381019061043491906131c5565b6116dc565b005b61045560048036038101906104509190612c7f565b611936565b60405161046291906128b9565b60405180910390f35b61048560048036038101906104809190612900565b611992565b604051610499989796959493929190613214565b60405180910390f35b6104bc60048036038101906104b79190612961565b611a8f565b6040516104d29a999897969594939291906132e1565b60405180910390f35b6104e3611cf5565b6040516104f09190613392565b60405180910390f35b610513600480360381019061050e91906133ad565b611cfb565b005b61051d61201d565b60405161052a9190613392565b60405180910390f35b61054d60048036038101906105489190613456565b612023565b60405161055a91906128b9565b60405180910390f35b61057d600480360381019061057891906134b2565b612092565b005b6105876121d1565b60405161059491906136af565b60405180910390f35b6105b760048036038101906105b291906136d1565b61245d565b6040516105c49190612d15565b60405180910390f35b6105e760048036038101906105e2919061372d565b6124ba565b6040516105f49190612946565b60405180910390f35b6106056124ea565b6040516106129190613392565b60405180910390f35b600082600460009054906101000a900473ffffffffffffffffffffffffffffffffffffffff1683604051602001610654939291906137ff565b6040516020818303038152906040528051906020012060001c905092915050565b6000816040516020016106889190613838565b604051602081830303815290604052805190602001209050919050565b600281815481106106b557600080fd5b906000526020600020016000915054906101000a900473ffffffffffffffffffffffffffffffffffffffff1681565b6106ec6124f0565b600560008373ffffffffffffffffffffffffffffffffffffffff1673ffffffffffffffffffffffffffffffffffffffff168152602001908152602001600020604051806101000160405290816000820154815260200160018201805461075190613882565b80601f016020809104026020016040519081016040528092919081815260200182805461077d90613882565b80156107ca5780601f1061079f576101008083540402835291602001916107ca565b820191906000526020600020905b8154815290600101906020018083116107ad57829003601f168201915b505050505081526020016002820160009054906101000a900460ff1660048111156107f8576107f7612a25565b5b600481111561080a57610809612a25565b5b815260200160038201805461081e90613882565b80601f016020809104026020016040519081016040528092919081815260200182805461084a90613882565b80156108975780601f1061086c57610100808354040283529160200191610897565b820191906000526020600020905b81548152906001019060200180831161087a57829003601f168201915b505050505081526020016004820160009054906101000a900473ffffffffffffffffffffffffffffffffffffffff1673ffffffffffffffffffffffffffffffffffffffff1673ffffffffffffffffffffffffffffffffffffffff1681526020016005820160009054906101000a900473ffffffffffffffffffffffffffffffffffffffff1673ffffffffffffffffffffffffffffffffffffffff1673ffffffffffffffffffffffffffffffffffffffff1681526020016006820154815260200160078201805461096690613882565b80601f016020809104026020016040519081016040528092919081815260200182805461099290613882565b80156109df5780601f106109b4576101008083540402835291602001916109df565b820191906000526020600020905b8154815290600101906020018083116109c257829003601f168201915b5050505050815250509050919050565b60008060006041845114610a38576040517f08c379a0000000000000000000000000000000000000000000000000000000008152600401610a2f90613900565b60405180910390fd5b6020840151925060408401519150606084015160001a90509193909250565b60008573ffffffffffffffffffffffffffffffffffffffff1660018686868660405160008152602001604052604051610a939493929190613920565b6020604051602081039080840390855afa158015610ab5573d6000803e3d6000fd5b5050506020604051035173ffffffffffffffffffffffffffffffffffffffff1614905095945050505050565b610ae9612573565b600160008373ffffffffffffffffffffffffffffffffffffffff1673ffffffffffffffffffffffffffffffffffffffff1681526020019081526020016000206040518061010001604052908160008201548152602001600182018054610b4e90613882565b80601f0160208091040260200160405190810160405280929190818152602001828054610b7a90613882565b8015610bc75780601f10610b9c57610100808354040283529160200191610bc7565b820191906000526020600020905b815481529060010190602001808311610baa57829003601f168201915b505050505081526020016002820154815260200160038201548152602001600482015481526020016005820160009054906101000a900460ff166003811115610c1357610c12612a25565b5b6003811115610c2557610c24612a25565b5b81526020016005820160019054906101000a900473ffffffffffffffffffffffffffffffffffffffff1673ffffffffffffffffffffffffffffffffffffffff1673ffffffffffffffffffffffffffffffffffffffff1681526020016006820154815250509050919050565b60078181548110610ca057600080fd5b906000526020600020016000915054906101000a900473ffffffffffffffffffffffffffffffffffffffff1681565b600a8181548110610cdf57600080fd5b906000526020600020016000915054906101000a900473ffffffffffffffffffffffffffffffffffffffff1681565b600082600460009054906101000a900473ffffffffffffffffffffffffffffffffffffffff1683604051602001610d47939291906137ff565b6040516020818303038152906040528051906020012060001c905092915050565b60608060006006541415610d7f5780915050611161565b60065467ffffffffffffffff811115610d9b57610d9a6126bb565b5b604051908082528060200260200182016040528015610dd457816020015b610dc16124f0565b815260200190600190039081610db95790505b50905060005b60065481101561115b57600060078281548110610dfa57610df9613965565b5b9060005260206000200160009054906101000a900473ffffffffffffffffffffffffffffffffffffffff1690506000600560008373ffffffffffffffffffffffffffffffffffffffff1673ffffffffffffffffffffffffffffffffffffffff1681526020019081526020016000209050806040518061010001604052908160008201548152602001600182018054610e9190613882565b80601f0160208091040260200160405190810160405280929190818152602001828054610ebd90613882565b8015610f0a5780601f10610edf57610100808354040283529160200191610f0a565b820191906000526020600020905b815481529060010190602001808311610eed57829003601f168201915b505050505081526020016002820160009054906101000a900460ff166004811115610f3857610f37612a25565b5b6004811115610f4a57610f49612a25565b5b8152602001600382018054610f5e90613882565b80601f0160208091040260200160405190810160405280929190818152602001828054610f8a90613882565b8015610fd75780601f10610fac57610100808354040283529160200191610fd7565b820191906000526020600020905b815481529060010190602001808311610fba57829003601f168201915b505050505081526020016004820160009054906101000a900473ffffffffffffffffffffffffffffffffffffffff1673ffffffffffffffffffffffffffffffffffffffff1673ffffffffffffffffffffffffffffffffffffffff1681526020016005820160009054906101000a900473ffffffffffffffffffffffffffffffffffffffff1673ffffffffffffffffffffffffffffffffffffffff1673ffffffffffffffffffffffffffffffffffffffff168152602001600682015481526020016007820180546110a690613882565b80601f01602080910402602001604051908101604052809291908181526020018280546110d290613882565b801561111f5780601f106110f45761010080835404028352916020019161111f565b820191906000526020600020905b81548152906001019060200180831161110257829003601f168201915b50505050508152505084848151811061113b5761113a613965565b5b602002602001018190525050508080611153906139c3565b915050610dda565b50809150505b90565b600560205280600052604060002060009150905080600001549080600101805461118d90613882565b80601f01602080910402602001604051908101604052809291908181526020018280546111b990613882565b80156112065780601f106111db57610100808354040283529160200191611206565b820191906000526020600020905b8154815290600101906020018083116111e957829003601f168201915b5050505050908060020160009054906101000a900460ff169080600301805461122e90613882565b80601f016020809104026020016040519081016040528092919081815260200182805461125a90613882565b80156112a75780601f1061127c576101008083540402835291602001916112a7565b820191906000526020600020905b81548152906001019060200180831161128a57829003601f168201915b5050505050908060040160009054906101000a900473ffffffffffffffffffffffffffffffffffffffff16908060050160009054906101000a900473ffffffffffffffffffffffffffffffffffffffff169080600601549080600701805461130e90613882565b80601f016020809104026020016040519081016040528092919081815260200182805461133a90613882565b80156113875780601f1061135c57610100808354040283529160200191611387565b820191906000526020600020905b81548152906001019060200180831161136a57829003601f168201915b5050505050905088565b60405180610100016040528060065481526020018581526020018460048111156113be576113bd612a25565b5b60048111156113d0576113cf612a25565b5b81526020018381526020018673ffffffffffffffffffffffffffffffffffffffff168152602001600460009054906101000a900473ffffffffffffffffffffffffffffffffffffffff1673ffffffffffffffffffffffffffffffffffffffff16815260200142815260200182815250600560008773ffffffffffffffffffffffffffffffffffffffff1673ffffffffffffffffffffffffffffffffffffffff1681526020019081526020016000206000820151816000015560208201518160010190805190602001906114a49291906125e9565b5060408201518160020160006101000a81548160ff021916908360048111156114d0576114cf612a25565b5b021790555060608201518160030190805190602001906114f19291906125e9565b5060808201518160040160006101000a81548173ffffffffffffffffffffffffffffffffffffffff021916908373ffffffffffffffffffffffffffffffffffffffff16021790555060a08201518160050160006101000a81548173ffffffffffffffffffffffffffffffffffffffff021916908373ffffffffffffffffffffffffffffffffffffffff16021790555060c0820151816006015560e08201518160070190805190602001906115a69291906125e9565b509050508473ffffffffffffffffffffffffffffffffffffffff167fac85378acf27ea180ea9b66d81dac89bcc984812edf7111c9413f708da4ca37a600560008873ffffffffffffffffffffffffffffffffffffffff1673ffffffffffffffffffffffffffffffffffffffff16815260200190815260200160002060405161162e9190613c27565b60405180910390a26007859080600181540180825580915050600190039060005260206000200160009091909190916101000a81548173ffffffffffffffffffffffffffffffffffffffff021916908373ffffffffffffffffffffffffffffffffffffffff160217905550600660008154809291906116ac906139c3565b91905055505050505050565b60008054906101000a900473ffffffffffffffffffffffffffffffffffffffff1681565b8160038111156116ef576116ee612a25565b5b600160008373ffffffffffffffffffffffffffffffffffffffff1673ffffffffffffffffffffffffffffffffffffffff16815260200190815260200160002060050160006101000a81548160ff0219169083600381111561175357611752612a25565b5b02179055508073ffffffffffffffffffffffffffffffffffffffff1682600381111561178257611781612a25565b5b600381111561179457611793612a25565b5b600160008473ffffffffffffffffffffffffffffffffffffffff1673ffffffffffffffffffffffffffffffffffffffff1681526020019081526020016000206001016040516117e39190613cc8565b60405180910390207ff17f3effabbd51830c4ffa8b6910ac12573d210009e0aedb1a55ae5026192e9a600160008673ffffffffffffffffffffffffffffffffffffffff1673ffffffffffffffffffffffffffffffffffffffff16815260200190815260200160002060000154600160008773ffffffffffffffffffffffffffffffffffffffff1673ffffffffffffffffffffffffffffffffffffffff16815260200190815260200160002060020154600160008873ffffffffffffffffffffffffffffffffffffffff1673ffffffffffffffffffffffffffffffffffffffff16815260200190815260200160002060030154600160008973ffffffffffffffffffffffffffffffffffffffff1673ffffffffffffffffffffffffffffffffffffffff168152602001908152602001600020600401544260405161192a959493929190613cdf565b60405180910390a45050565b60006001858585856040516000815260200160405260405161195b9493929190613920565b6020604051602081039080840390855afa15801561197d573d6000803e3d6000fd5b50505060206040510351905095945050505050565b60016020528060005260406000206000915090508060000154908060010180546119bb90613882565b80601f01602080910402602001604051908101604052809291908181526020018280546119e790613882565b8015611a345780601f10611a0957610100808354040283529160200191611a34565b820191906000526020600020905b815481529060010190602001808311611a1757829003601f168201915b5050505050908060020154908060030154908060040154908060050160009054906101000a900460ff16908060050160019054906101000a900473ffffffffffffffffffffffffffffffffffffffff16908060060154905088565b6008602052806000526040600020600091509050806000015490806001018054611ab890613882565b80601f0160208091040260200160405190810160405280929190818152602001828054611ae490613882565b8015611b315780601f10611b0657610100808354040283529160200191611b31565b820191906000526020600020905b815481529060010190602001808311611b1457829003601f168201915b505050505090806002018054611b4690613882565b80601f0160208091040260200160405190810160405280929190818152602001828054611b7290613882565b8015611bbf5780601f10611b9457610100808354040283529160200191611bbf565b820191906000526020600020905b815481529060010190602001808311611ba257829003601f168201915b5050505050908060030160009054906101000a900460ff16908060030160019054906101000a900460ff16908060030160029054906101000a900473ffffffffffffffffffffffffffffffffffffffff16908060040160009054906101000a900473ffffffffffffffffffffffffffffffffffffffff16908060050160009054906101000a900473ffffffffffffffffffffffffffffffffffffffff1690806006015490806007018054611c7290613882565b80601f0160208091040260200160405190810160405280929190818152602001828054611c9e90613882565b8015611ceb5780601f10611cc057610100808354040283529160200191611ceb565b820191906000526020600020905b815481529060010190602001808311611cce57829003601f168201915b505050505090508a565b60095481565b3373ffffffffffffffffffffffffffffffffffffffff1660008054906101000a900473ffffffffffffffffffffffffffffffffffffffff1673ffffffffffffffffffffffffffffffffffffffff1614611d89576040517f08c379a0000000000000000000000000000000000000000000000000000000008152600401611d8090613d7e565b60405180910390fd5b6040518061010001604052806003548152602001878152602001868152602001858152602001848152602001836003811115611dc857611dc7612a25565b5b6003811115611dda57611dd9612a25565b5b81526020018273ffffffffffffffffffffffffffffffffffffffff16815260200142815250600160008373ffffffffffffffffffffffffffffffffffffffff1673ffffffffffffffffffffffffffffffffffffffff168152602001908152602001600020600082015181600001556020820151816001019080519060200190611e649291906125e9565b5060408201518160020155606082015181600301556080820151816004015560a08201518160050160006101000a81548160ff02191690836003811115611eae57611ead612a25565b5b021790555060c08201518160050160016101000a81548173ffffffffffffffffffffffffffffffffffffffff021916908373ffffffffffffffffffffffffffffffffffffffff16021790555060e082015181600601559050508073ffffffffffffffffffffffffffffffffffffffff16826003811115611f3157611f30612a25565b5b6003811115611f4357611f42612a25565b5b87604051611f519190613d9e565b60405180910390207ff17f3effabbd51830c4ffa8b6910ac12573d210009e0aedb1a55ae5026192e9a60035489898942604051611f92959493929190613cdf565b60405180910390a46002819080600181540180825580915050600190039060005260206000200160009091909190916101000a81548173ffffffffffffffffffffffffffffffffffffffff021916908373ffffffffffffffffffffffffffffffffffffffff16021790555060036000815480929190612010906139c3565b9190505550505050505050565b60035481565b600080600080612032856109ef565b9250925092506001868285856040516000815260200160405260405161205b9493929190613920565b6020604051602081039080840390855afa15801561207d573d6000803e3d6000fd5b50505060206040510351935050505092915050565b81600560008573ffffffffffffffffffffffffffffffffffffffff1673ffffffffffffffffffffffffffffffffffffffff16815260200190815260200160002060030190805190602001906120e89291906125e9565b5080600560008573ffffffffffffffffffffffffffffffffffffffff1673ffffffffffffffffffffffffffffffffffffffff168152602001908152602001600020600701908051906020019061213f9291906125e9565b508273ffffffffffffffffffffffffffffffffffffffff167fac85378acf27ea180ea9b66d81dac89bcc984812edf7111c9413f708da4ca37a600560008673ffffffffffffffffffffffffffffffffffffffff1673ffffffffffffffffffffffffffffffffffffffff1681526020019081526020016000206040516121c49190613c27565b60405180910390a2505050565b6060600060035467ffffffffffffffff8111156121f1576121f06126bb565b5b60405190808252806020026020018201604052801561222a57816020015b612217612573565b81526020019060019003908161220f5790505b50905060005b600354811015612455576000600282815481106122505761224f613965565b5b9060005260206000200160009054906101000a900473ffffffffffffffffffffffffffffffffffffffff1690506000600160008373ffffffffffffffffffffffffffffffffffffffff1673ffffffffffffffffffffffffffffffffffffffff16815260200190815260200160002090508060405180610100016040529081600082015481526020016001820180546122e790613882565b80601f016020809104026020016040519081016040528092919081815260200182805461231390613882565b80156123605780601f1061233557610100808354040283529160200191612360565b820191906000526020600020905b81548152906001019060200180831161234357829003601f168201915b505050505081526020016002820154815260200160038201548152602001600482015481526020016005820160009054906101000a900460ff1660038111156123ac576123ab612a25565b5b60038111156123be576123bd612a25565b5b81526020016005820160019054906101000a900473ffffffffffffffffffffffffffffffffffffffff1673ffffffffffffffffffffffffffffffffffffffff1673ffffffffffffffffffffffffffffffffffffffff16815260200160068201548152505084848151811061243557612434613965565b5b60200260200101819052505050808061244d906139c3565b915050612230565b508091505090565b60008061246984610675565b90506000612476826124ba565b90508473ffffffffffffffffffffffffffffffffffffffff166124998286612023565b73ffffffffffffffffffffffffffffffffffffffff16149250505092915050565b6000816040516020016124cd9190613e22565b604051602081830303815290604052805190602001209050919050565b60065481565b60405180610100016040528060008152602001606081526020016000600481111561251e5761251d612a25565b5b815260200160608152602001600073ffffffffffffffffffffffffffffffffffffffff168152602001600073ffffffffffffffffffffffffffffffffffffffff16815260200160008152602001606081525090565b6040518061010001604052806000815260200160608152602001600080191681526020016000801916815260200160008019168152602001600060038111156125bf576125be612a25565b5b8152602001600073ffffffffffffffffffffffffffffffffffffffff168152602001600081525090565b8280546125f590613882565b90600052602060002090601f016020900481019282612617576000855561265e565b82601f1061263057805160ff191683800117855561265e565b8280016001018555821561265e579182015b8281111561265d578251825591602001919060010190612642565b5b50905061266b919061266f565b5090565b5b80821115612688576000816000905550600101612670565b5090565b6000604051905090565b600080fd5b600080fd5b600080fd5b600080fd5b6000601f19601f8301169050919050565b7f4e487b7100000000000000000000000000000000000000000000000000000000600052604160045260246000fd5b6126f3826126aa565b810181811067ffffffffffffffff82111715612712576127116126bb565b5b80604052505050565b600061272561268c565b905061273182826126ea565b919050565b600067ffffffffffffffff821115612751576127506126bb565b5b61275a826126aa565b9050602081019050919050565b82818337600083830152505050565b600061278961278484612736565b61271b565b9050828152602081018484840111156127a5576127a46126a5565b5b6127b0848285612767565b509392505050565b600082601f8301126127cd576127cc6126a0565b5b81356127dd848260208601612776565b91505092915050565b6000819050919050565b6127f9816127e6565b811461280457600080fd5b50565b600081359050612816816127f0565b92915050565b6000806040838503121561283357612832612696565b5b600083013567ffffffffffffffff8111156128515761285061269b565b5b61285d858286016127b8565b925050602061286e85828601612807565b9150509250929050565b600073ffffffffffffffffffffffffffffffffffffffff82169050919050565b60006128a382612878565b9050919050565b6128b381612898565b82525050565b60006020820190506128ce60008301846128aa565b92915050565b6128dd81612898565b81146128e857600080fd5b50565b6000813590506128fa816128d4565b92915050565b60006020828403121561291657612915612696565b5b6000612924848285016128eb565b91505092915050565b6000819050919050565b6129408161292d565b82525050565b600060208201905061295b6000830184612937565b92915050565b60006020828403121561297757612976612696565b5b600061298584828501612807565b91505092915050565b612997816127e6565b82525050565b600081519050919050565b600082825260208201905092915050565b60005b838110156129d75780820151818401526020810190506129bc565b838111156129e6576000848401525b50505050565b60006129f78261299d565b612a0181856129a8565b9350612a118185602086016129b9565b612a1a816126aa565b840191505092915050565b7f4e487b7100000000000000000000000000000000000000000000000000000000600052602160045260246000fd5b60058110612a6557612a64612a25565b5b50565b6000819050612a7682612a54565b919050565b6000612a8682612a68565b9050919050565b612a9681612a7b565b82525050565b612aa581612898565b82525050565b600061010083016000830151612ac4600086018261298e565b5060208301518482036020860152612adc82826129ec565b9150506040830151612af16040860182612a8d565b5060608301518482036060860152612b0982826129ec565b9150506080830151612b1e6080860182612a9c565b5060a0830151612b3160a0860182612a9c565b5060c0830151612b4460c086018261298e565b5060e083015184820360e0860152612b5c82826129ec565b9150508091505092915050565b60006020820190508181036000830152612b838184612aab565b905092915050565b600060208284031215612ba157612ba0612696565b5b600082013567ffffffffffffffff811115612bbf57612bbe61269b565b5b612bcb848285016127b8565b91505092915050565b600060ff82169050919050565b612bea81612bd4565b82525050565b6000606082019050612c056000830186612937565b612c126020830185612937565b612c1f6040830184612be1565b949350505050565b612c308161292d565b8114612c3b57600080fd5b50565b600081359050612c4d81612c27565b92915050565b612c5c81612bd4565b8114612c6757600080fd5b50565b600081359050612c7981612c53565b92915050565b600080600080600060a08688031215612c9b57612c9a612696565b5b6000612ca9888289016128eb565b9550506020612cba88828901612c3e565b9450506040612ccb88828901612c6a565b9350506060612cdc88828901612c3e565b9250506080612ced88828901612c3e565b9150509295509295909350565b60008115159050919050565b612d0f81612cfa565b82525050565b6000602082019050612d2a6000830184612d06565b92915050565b612d398161292d565b82525050565b60048110612d5057612d4f612a25565b5b50565b6000819050612d6182612d3f565b919050565b6000612d7182612d53565b9050919050565b612d8181612d66565b82525050565b600061010083016000830151612da0600086018261298e565b5060208301518482036020860152612db882826129ec565b9150506040830151612dcd6040860182612d30565b506060830151612de06060860182612d30565b506080830151612df36080860182612d30565b5060a0830151612e0660a0860182612d78565b5060c0830151612e1960c0860182612a9c565b5060e0830151612e2c60e086018261298e565b508091505092915050565b60006020820190508181036000830152612e518184612d87565b905092915050565b600081519050919050565b600082825260208201905092915050565b6000819050602082019050919050565b600061010083016000830151612e9e600086018261298e565b5060208301518482036020860152612eb682826129ec565b9150506040830151612ecb6040860182612a8d565b5060608301518482036060860152612ee382826129ec565b9150506080830151612ef86080860182612a9c565b5060a0830151612f0b60a0860182612a9c565b5060c0830151612f1e60c086018261298e565b5060e083015184820360e0860152612f3682826129ec565b9150508091505092915050565b6000612f4f8383612e85565b905092915050565b6000602082019050919050565b6000612f6f82612e59565b612f798185612e64565b935083602082028501612f8b85612e75565b8060005b85811015612fc75784840389528151612fa88582612f43565b9450612fb383612f57565b925060208a01995050600181019050612f8f565b50829750879550505050505092915050565b60006020820190508181036000830152612ff38184612f64565b905092915050565b613004816127e6565b82525050565b600082825260208201905092915050565b60006130268261299d565b613030818561300a565b93506130408185602086016129b9565b613049816126aa565b840191505092915050565b61305d81612a7b565b82525050565b600061010082019050613079600083018b612ffb565b818103602083015261308b818a61301b565b905061309a6040830189613054565b81810360608301526130ac818861301b565b90506130bb60808301876128aa565b6130c860a08301866128aa565b6130d560c0830185612ffb565b81810360e08301526130e7818461301b565b90509998505050505050505050565b600080600080600060a0868803121561311257613111612696565b5b6000613120888289016128eb565b955050602086013567ffffffffffffffff8111156131415761314061269b565b5b61314d888289016127b8565b945050604061315e88828901612807565b935050606086013567ffffffffffffffff81111561317f5761317e61269b565b5b61318b888289016127b8565b925050608086013567ffffffffffffffff8111156131ac576131ab61269b565b5b6131b8888289016127b8565b9150509295509295909350565b600080604083850312156131dc576131db612696565b5b60006131ea85828601612807565b92505060206131fb858286016128eb565b9150509250929050565b61320e81612d66565b82525050565b60006101008201905061322a600083018b612ffb565b818103602083015261323c818a61301b565b905061324b6040830189612937565b6132586060830188612937565b6132656080830187612937565b61327260a0830186613205565b61327f60c08301856128aa565b61328c60e0830184612ffb565b9998505050505050505050565b600381106132aa576132a9612a25565b5b50565b60008190506132bb82613299565b919050565b60006132cb826132ad565b9050919050565b6132db816132c0565b82525050565b6000610140820190506132f7600083018d612ffb565b8181036020830152613309818c61301b565b9050818103604083015261331d818b61301b565b905061332c606083018a613054565b61333960808301896132d2565b61334660a08301886128aa565b61335360c08301876128aa565b61336060e08301866128aa565b61336e610100830185612ffb565b818103610120830152613381818461301b565b90509b9a5050505050505050505050565b60006020820190506133a76000830184612ffb565b92915050565b60008060008060008060c087890312156133ca576133c9612696565b5b600087013567ffffffffffffffff8111156133e8576133e761269b565b5b6133f489828a016127b8565b965050602061340589828a01612c3e565b955050604061341689828a01612c3e565b945050606061342789828a01612c3e565b935050608061343889828a01612807565b92505060a061344989828a016128eb565b9150509295509295509295565b6000806040838503121561346d5761346c612696565b5b600061347b85828601612c3e565b925050602083013567ffffffffffffffff81111561349c5761349b61269b565b5b6134a8858286016127b8565b9150509250929050565b6000806000606084860312156134cb576134ca612696565b5b60006134d9868287016128eb565b935050602084013567ffffffffffffffff8111156134fa576134f961269b565b5b613506868287016127b8565b925050604084013567ffffffffffffffff8111156135275761352661269b565b5b613533868287016127b8565b9150509250925092565b600081519050919050565b600082825260208201905092915050565b6000819050602082019050919050565b600061010083016000830151613582600086018261298e565b506020830151848203602086015261359a82826129ec565b91505060408301516135af6040860182612d30565b5060608301516135c26060860182612d30565b5060808301516135d56080860182612d30565b5060a08301516135e860a0860182612d78565b5060c08301516135fb60c0860182612a9c565b5060e083015161360e60e086018261298e565b508091505092915050565b60006136258383613569565b905092915050565b6000602082019050919050565b60006136458261353d565b61364f8185613548565b93508360208202850161366185613559565b8060005b8581101561369d578484038952815161367e8582613619565b94506136898361362d565b925060208a01995050600181019050613665565b50829750879550505050505092915050565b600060208201905081810360008301526136c9818461363a565b905092915050565b600080604083850312156136e8576136e7612696565b5b60006136f6858286016128eb565b925050602083013567ffffffffffffffff8111156137175761371661269b565b5b613723858286016127b8565b9150509250929050565b60006020828403121561374357613742612696565b5b600061375184828501612c3e565b91505092915050565b600081905092915050565b60006137708261299d565b61377a818561375a565b935061378a8185602086016129b9565b80840191505092915050565b60008160601b9050919050565b60006137ae82613796565b9050919050565b60006137c0826137a3565b9050919050565b6137d86137d382612898565b6137b5565b82525050565b6000819050919050565b6137f96137f4826127e6565b6137de565b82525050565b600061380b8286613765565b915061381782856137c7565b60148201915061382782846137e8565b602082019150819050949350505050565b600061384482846137c7565b60148201915081905092915050565b7f4e487b7100000000000000000000000000000000000000000000000000000000600052602260045260246000fd5b6000600282049050600182168061389a57607f821691505b602082108114156138ae576138ad613853565b5b50919050565b7f696e76616c6964207369676e6174757265206c656e6774680000000000000000600082015250565b60006138ea60188361300a565b91506138f5826138b4565b602082019050919050565b60006020820190508181036000830152613919816138dd565b9050919050565b60006080820190506139356000830187612937565b6139426020830186612be1565b61394f6040830185612937565b61395c6060830184612937565b95945050505050565b7f4e487b7100000000000000000000000000000000000000000000000000000000600052603260045260246000fd5b7f4e487b7100000000000000000000000000000000000000000000000000000000600052601160045260246000fd5b60006139ce826127e6565b91507fffffffffffffffffffffffffffffffffffffffffffffffffffffffffffffffff821415613a0157613a00613994565b5b600182019050919050565b60008160001c9050919050565b6000819050919050565b6000613a36613a3183613a0c565b613a19565b9050919050565b60008190508160005260206000209050919050565b60008154613a5f81613882565b613a6981866129a8565b94506001821660008114613a845760018114613a9657613ac9565b60ff1983168652602086019350613ac9565b613a9f85613a3d565b60005b83811015613ac157815481890152600182019150602081019050613aa2565b808801955050505b50505092915050565b600060ff82169050919050565b6000613af2613aed83613a0c565b613ad2565b9050919050565b600073ffffffffffffffffffffffffffffffffffffffff82169050919050565b6000613b2c613b2783613a0c565b613af9565b9050919050565b600061010083016000808401549050613b4b81613a23565b613b58600087018261298e565b50600184018583036020870152613b6f8382613a52565b92505060028401549050613b8281613adf565b613b8f6040870182612a8d565b50600384018583036060870152613ba68382613a52565b92505060048401549050613bb981613b19565b613bc66080870182612a9c565b5060058401549050613bd781613b19565b613be460a0870182612a9c565b5060068401549050613bf581613a23565b613c0260c087018261298e565b506007840185830360e0870152613c198382613a52565b925050819250505092915050565b60006020820190508181036000830152613c418184613b33565b905092915050565b60008154613c5681613882565b613c60818661375a565b94506001821660008114613c7b5760018114613c8c57613cbf565b60ff19831686528186019350613cbf565b613c9585613a3d565b60005b83811015613cb757815481890152600182019150602081019050613c98565b838801955050505b50505092915050565b6000613cd48284613c49565b915081905092915050565b600060a082019050613cf46000830188612ffb565b613d016020830187612937565b613d0e6040830186612937565b613d1b6060830185612937565b613d286080830184612ffb565b9695505050505050565b7f596f7520617265206e6f7420616e206f776e6572000000000000000000000000600082015250565b6000613d6860148361300a565b9150613d7382613d32565b602082019050919050565b60006020820190508181036000830152613d9781613d5b565b9050919050565b6000613daa8284613765565b915081905092915050565b7f19457468657265756d205369676e6564204d6573736167653a0a333200000000600082015250565b6000613deb601c8361375a565b9150613df682613db5565b601c82019050919050565b6000819050919050565b613e1c613e178261292d565b613e01565b82525050565b6000613e2d82613dde565b9150613e398284613e0b565b6020820191508190509291505056fea2646970667358221220de0726641b16b5d9a8ec967e5832d465aff20b3c869d1cc25959d3bdfcefcb0264736f6c634300080a0033",
  "immutableReferences": {},
  "source": "// SPDX-License-Identifier: MIT\r\npragma solidity >=0.8.0 <0.9.0;\r\n\r\nimport \"./UserChain.sol\";\r\nimport \"./SharedChain.sol\";\r\n\r\ncontract ProjectChain is UserChain {\r\n    address _projectInitiator;\r\n\r\n    constructor() {\r\n        _projectInitiator = msg.sender;\r\n    }\r\n\r\n    modifier onlyProjectInitiator() {\r\n        require(\r\n            users[_projectInitiator]._role == Roles.ProjectInitiator,\r\n            \"You don't have the rights for this resources.\"\r\n        );\r\n        _;\r\n    }\r\n\r\n    /**  PROJECT INITIATOR  */\r\n\r\n    mapping(address => Project) public projects;\r\n    uint256 public projectsCounter = 0;\r\n    address[] public projectsAddress;\r\n\r\n    function createUniqueProjectAddress(string memory _name, uint _index) public view returns (address) {\r\n        return address(uint160(uint256(keccak256(abi.encodePacked(_name,_projectInitiator,_index)))));\r\n    }\r\n\r\n    function createProject(\r\n        address _projectAddress,\r\n        string memory _name,\r\n        uint256 _status,\r\n        string memory _ipfsFileCID,\r\n        string memory _signature\r\n    ) public {\r\n        projects[_projectAddress] = Project(\r\n            projectsCounter,\r\n            _name,\r\n            ProjectStatus(_status),\r\n            _ipfsFileCID,\r\n            _projectAddress,\r\n            _projectInitiator,\r\n            block.timestamp,\r\n            _signature\r\n        );\r\n\r\n        emit ProjectEvent(projects[_projectAddress], _projectAddress);\r\n        projectsAddress.push(_projectAddress);\r\n        projectsCounter++;\r\n    }\r\n\r\n    function updateProject(\r\n        address _projectAddress,\r\n        string memory _ipfsFileCID,\r\n        string memory _signature\r\n    ) public {\r\n        projects[_projectAddress]._ipfsFileCID = _ipfsFileCID;\r\n        projects[_projectAddress]._signature = _signature;\r\n\r\n        emit ProjectEvent(projects[_projectAddress], _projectAddress);\r\n    }\r\n\r\n    function getProjectInfo(address _address)\r\n        public\r\n        view\r\n        returns (Project memory)\r\n    {\r\n        return projects[_address];\r\n    }\r\n\r\n    function getAllProjects() public view returns (Project[] memory) {\r\n        Project[] memory allProjects;\r\n        if (projectsCounter == 0) return allProjects;\r\n\r\n        allProjects = new Project[](projectsCounter);\r\n        for (uint256 index = 0; index < projectsCounter; index++) {\r\n            address _projectAddress = projectsAddress[index];\r\n            Project storage project = projects[_projectAddress];\r\n            allProjects[index] = project;\r\n        }\r\n        return allProjects;\r\n    }\r\n\r\n    /**  Project Requests  */\r\n\r\n    mapping(uint256 => ProjectRequest) public projectRequests;\r\n    uint256 public projectRequestsCounter = 0;\r\n    address[] public projectRequestsAddress;\r\n\r\n    function createUniqueProjectRequestAddress(string memory _title, uint _index) public view returns (address) {\r\n        return address(uint160(uint256(keccak256(abi.encodePacked(_title, _projectInitiator, _index)))));\r\n    }\r\n\r\n\r\n\r\n/*\r\n\r\n\r\n    function createProjectRequest(\r\n        string memory _title,\r\n        uint256 _status,\r\n        uint256 _requestStatus,\r\n        address _projectAddress,\r\n        address _projectReqAddress,\r\n        string memory _signature\r\n    ) public {\r\n        projectRequests[projectRequestsCounter] = ProjectRequest(\r\n            projectRequestsCounter,\r\n            _title,\r\n            \"\",\r\n            ProjectStatus(_status),\r\n            RequestStatus(_requestStatus),\r\n            _projectAddress,\r\n            _projectInitiator,\r\n            _projectReqAddress,\r\n            block.timestamp,\r\n            _signature\r\n        );\r\n\r\n        filterRequests(\r\n            projectRequestsCounter,\r\n            _title,\r\n            _requestStatus,\r\n            _status,\r\n            _projectAddress,\r\n            _projectReqAddress\r\n        );\r\n\r\n        emit ProjectRequestEvent(projectRequests[projectRequestsCounter], _projectAddress);\r\n        projectRequestsAddress.push(_projectReqAddress);\r\n        projectRequestsCounter++;\r\n    }\r\n\r\n    function filterRequests(\r\n        uint256 _indexProjectRequest,\r\n        string memory _title,\r\n        uint256 _requestStatus,\r\n        uint256 _projectStatus,\r\n        address _projectAddress,\r\n        address _requestAddress\r\n    ) internal {\r\n        RequestType _requestType;\r\n        if (\r\n            ProjectStatus(_projectStatus) == ProjectStatus.ToApprove ||\r\n            ProjectStatus(_projectStatus) == ProjectStatus.FinalizationCheck ||\r\n            ProjectStatus(_projectStatus) == ProjectStatus.Completed\r\n        ) {\r\n            _requestType = RequestType.SupervisorReq;\r\n        } else if (\r\n            ProjectStatus(_projectStatus) == ProjectStatus.StartProject\r\n        ) {\r\n            _requestType = RequestType.CompanyReq;\r\n        }\r\n        createRequest(\r\n            _indexProjectRequest,\r\n            _title,\r\n            _requestStatus,\r\n            _projectStatus,\r\n            _requestType,\r\n            _projectAddress,\r\n            _requestAddress\r\n        );\r\n    }\r\n\r\n    function getAllProjectRequests()\r\n        public\r\n        view\r\n        returns (ProjectRequest[] memory)\r\n    {\r\n        ProjectRequest[] memory allProjectRequests;\r\n        if (projectRequestsCounter == 0) return allProjectRequests;\r\n\r\n        allProjectRequests = new ProjectRequest[](projectRequestsCounter);\r\n        for (uint256 index = 0; index < projectRequestsCounter; index++) {\r\n            ProjectRequest storage projectReq = projectRequests[index];\r\n            allProjectRequests[index] = projectReq;\r\n        }\r\n        return allProjectRequests;\r\n    }\r\n\r\n    function getLastProjectRequest(address _projectAddress)\r\n        public\r\n        view\r\n        returns (ProjectRequest memory)\r\n    {\r\n        ProjectRequest memory request;\r\n        if (projectRequestsCounter > 0) {\r\n            for (\r\n                uint256 index = projectRequestsCounter - 1;\r\n                index >= 0;\r\n                index--\r\n            ) {\r\n                if (_projectAddress == projectRequests[index]._projectAddress) {\r\n                    request = ProjectRequest(\r\n                        projectRequests[index]._index,\r\n                        projectRequests[index]._title,\r\n                        projectRequests[index]._comments,\r\n                        projectRequests[index]._status,\r\n                        projectRequests[index]._requestStatus,\r\n                        projectRequests[index]._projectAddress,\r\n                        projectRequests[index]._signerAddress,\r\n                        projectRequests[index]._requestAddress,\r\n                        block.timestamp,\r\n                        projectRequests[index]._signature\r\n                    );\r\n                    return request;\r\n                }\r\n            }\r\n        }\r\n        return request;\r\n    }\r\n\r\n\r\n\r\n*/\r\n\r\n\r\n    /**  DATA FOR SUPERVISOR && COMPANY  */\r\n\r\n/*\r\n\r\n    mapping(uint256 => Request) public requests;\r\n    uint256 public requestsCounter = 0;\r\n\r\n    function createRequest(\r\n        uint256 _indexProjectRequest,\r\n        string memory _title,\r\n        uint256 _requestStatus,\r\n        uint256 _projectStatus,\r\n        RequestType _requestType,\r\n        address _projectAddress,\r\n        address _requestAddress\r\n    ) internal {\r\n        requests[requestsCounter] = Request(\r\n            requestsCounter,\r\n            _indexProjectRequest,\r\n            _title,\r\n            RequestStatus(_requestStatus),\r\n            ProjectStatus(_projectStatus),\r\n            _requestType,\r\n            _projectAddress,\r\n            _projectInitiator,\r\n            _requestAddress,\r\n            block.timestamp,\r\n            \"\"\r\n        );\r\n\r\n        emit RequestEvent(requests[requestsCounter]);\r\n        requestsCounter++;\r\n    }\r\n\r\n    function updateRequest(\r\n        uint256 _index,\r\n        uint256 _indexProjectRequest,\r\n        string memory _comments,\r\n        uint256 _requestStatus,\r\n        uint256 _projectStatus,\r\n        address _projectAddress,\r\n        string memory _signature\r\n    ) public {\r\n        // Update request status in the Requests Mapping and Struct Array\r\n        requests[_index]._requestStatus = RequestStatus(_requestStatus);\r\n        requests[_index]._signature = _signature;\r\n\r\n        emit RequestEvent(requests[_index]);\r\n\r\n        // Update project request status in the Project Requests Mapping and Struct Array\r\n        projectRequests[_indexProjectRequest]._comments = _comments;\r\n        projectRequests[_indexProjectRequest]._requestStatus = RequestStatus(_requestStatus);\r\n        projectRequests[_indexProjectRequest]._signature = _signature;\r\n\r\n        emit ProjectRequestEvent(projectRequests[_indexProjectRequest], _projectAddress);\r\n\r\n        // Update ProjectStatus to the requested status - Porject Mapping and Struct Array\r\n        if (RequestStatus.Approved == RequestStatus(_requestStatus)) {\r\n        projects[_projectAddress]._status = ProjectStatus(_projectStatus);\r\n        emit ProjectEvent(projects[_projectAddress], _projectAddress);\r\n        }\r\n    }\r\n\r\n    function getAllRequests() public view returns (Request[] memory) {\r\n        Request[] memory allRequests;\r\n        if (requestsCounter == 0) return allRequests;\r\n\r\n        allRequests = new Request[](requestsCounter);\r\n        for (uint256 index = 0; index < requestsCounter; index++) {\r\n            Request storage request = requests[index];\r\n            allRequests[index] = request;\r\n        }\r\n        return allRequests;\r\n    }\r\n\r\n*/\r\n\r\n\r\n    function verifyTest(address p, bytes32 hash, uint8 v, bytes32 r, bytes32 s) external pure returns(bool) {\r\n        return ecrecover(hash, v, r, s) == p;\r\n    }\r\n\r\n    // verify signature verifica daca mesajul semnat cu cheia privata apartinei contului cu adresa publica care trebuia sa semneze tranzactia\r\n    // the buyer address din examplul ala e adresa walletul;ui care a initiat tranzactia\r\n    function test(address p, bytes32 hash, uint8 v, bytes32 r, bytes32 s) external pure returns(address) {\r\n        return ecrecover(hash, v, r, s);\r\n    }\r\n\r\n\r\n\r\n    function getMessageHash(\r\n        address _projectAddress\r\n    ) public pure returns (bytes32) {\r\n        return keccak256(abi.encodePacked(_projectAddress));\r\n    }\r\n\r\n    function getEthSignedMessageHash(bytes32 _messageHash)\r\n        public\r\n        pure\r\n        returns (bytes32)\r\n    {\r\n        return keccak256(abi.encodePacked(\"\\x19Ethereum Signed Message:\\n32\", _messageHash));\r\n    }\r\n\r\n    function verify(\r\n        address _projectAddress,\r\n        string memory signature\r\n    ) public pure returns (bool) {\r\n        bytes32 messageHash = getMessageHash(_projectAddress);\r\n        bytes32 ethSignedMessageHash = getEthSignedMessageHash(messageHash);\r\n\r\n        return recoverSigner(ethSignedMessageHash, signature) == _projectAddress;\r\n    }\r\n\r\n    function recoverSigner(bytes32 _ethSignedMessageHash, string memory _signature)\r\n        public\r\n        pure\r\n        returns (address)\r\n    {\r\n        (bytes32 r, bytes32 s, uint8 v) = splitSignature(_signature);\r\n\r\n        return ecrecover(_ethSignedMessageHash, v, r, s);\r\n    }\r\n\r\n    function splitSignature(string memory sig)\r\n        public\r\n        pure\r\n        returns (\r\n            bytes32 r,\r\n            bytes32 s,\r\n            uint8 v\r\n        )\r\n    {\r\n        require(bytes(sig).length == 65, \"invalid signature length\");\r\n\r\n        assembly {\r\n            /*\r\n            First 32 bytes stores the length of the signature\r\n\r\n            add(sig, 32) = pointer of sig + 32\r\n            effectively, skips first 32 bytes of signature\r\n\r\n            mload(p) loads next 32 bytes starting at the memory address p into memory\r\n            */\r\n\r\n            // first 32 bytes, after the length prefix\r\n            r := mload(add(sig, 32))\r\n            // second 32 bytes\r\n            s := mload(add(sig, 64))\r\n            // final byte (first byte of the next 32 bytes)\r\n            v := byte(0, mload(add(sig, 96)))\r\n        }\r\n\r\n        // implicitly return (r, s, v)\r\n    }\r\n\r\n\r\n\r\n\r\n}\r\n",
  "sourcePath": "/mnt/c/Users/Beniamin/source/repos/DissertationProject/contracts/ProjectChain.sol",
  "compiler": {
    "name": "solc",
    "version": "0.8.10+commit.fc410830.Emscripten.clang"
  },
  "schemaVersion": "3.4.3",
  "updatedAt": "2021-12-04T09:08:24.462Z",
  "networkType": "ethereum",
  "devdoc": {
    "kind": "dev",
    "methods": {},
    "version": 1
  },
  "userdoc": {
    "kind": "user",
    "methods": {
      "projectRequests(uint256)": {
        "notice": "Project Requests  "
      },
      "projects(address)": {
        "notice": "PROJECT INITIATOR  "
      },
      "verifyTest(address,bytes32,uint8,bytes32,bytes32)": {
        "notice": "DATA FOR SUPERVISOR && COMPANY  "
      }
    },
    "version": 1
  }
}