{
  "contractName": "ProjectChain",
  "abi": [
    {
      "inputs": [],
      "stateMutability": "nonpayable",
      "type": "constructor"
    },
    {
      "anonymous": false,
      "inputs": [
        {
          "components": [
            {
              "internalType": "uint256",
              "name": "_index",
              "type": "uint256"
            },
            {
              "internalType": "string",
              "name": "_name",
              "type": "string"
            },
            {
              "internalType": "enum SharedChain.ProjectStatus",
              "name": "_status",
              "type": "uint8"
            },
            {
              "internalType": "string",
              "name": "_ipfsFileCID",
              "type": "string"
            },
            {
              "internalType": "address",
              "name": "_projectAddress",
              "type": "address"
            },
            {
              "internalType": "address",
              "name": "_signerAddress",
              "type": "address"
            },
            {
              "internalType": "address",
              "name": "_companyAddress",
              "type": "address"
            },
            {
              "internalType": "bool",
              "name": "_assigned",
              "type": "bool"
            },
            {
              "internalType": "uint256",
              "name": "_timestamp",
              "type": "uint256"
            },
            {
              "internalType": "string",
              "name": "_signature",
              "type": "string"
            }
          ],
          "indexed": false,
          "internalType": "struct SharedChain.Project",
          "name": "_project",
          "type": "tuple"
        },
        {
          "indexed": true,
          "internalType": "address",
          "name": "_projectAddress",
          "type": "address"
        },
        {
          "indexed": true,
          "internalType": "address",
          "name": "_companyAddress",
          "type": "address"
        }
      ],
      "name": "ProjectEvent",
      "type": "event"
    },
    {
      "anonymous": false,
      "inputs": [
        {
          "components": [
            {
              "internalType": "uint256",
              "name": "_index",
              "type": "uint256"
            },
            {
              "internalType": "string",
              "name": "_title",
              "type": "string"
            },
            {
              "internalType": "string",
              "name": "_comments",
              "type": "string"
            },
            {
              "internalType": "enum SharedChain.ProjectStatus",
              "name": "_projectStatus",
              "type": "uint8"
            },
            {
              "internalType": "enum SharedChain.RequestStatus",
              "name": "_requestStatus",
              "type": "uint8"
            },
            {
              "internalType": "enum SharedChain.RequestType",
              "name": "_requestType",
              "type": "uint8"
            },
            {
              "internalType": "address",
              "name": "_projectAddress",
              "type": "address"
            },
            {
              "internalType": "address",
              "name": "_requestAddress",
              "type": "address"
            },
            {
              "internalType": "address",
              "name": "_signerAddress",
              "type": "address"
            },
            {
              "internalType": "uint256",
              "name": "_timestamp",
              "type": "uint256"
            },
            {
              "internalType": "string",
              "name": "_signature",
              "type": "string"
            }
          ],
          "indexed": false,
          "internalType": "struct SharedChain.Request",
          "name": "_request",
          "type": "tuple"
        },
        {
          "indexed": true,
          "internalType": "address",
          "name": "_requestAddress",
          "type": "address"
        },
        {
          "indexed": true,
          "internalType": "address",
          "name": "_projectAddress",
          "type": "address"
        }
      ],
      "name": "RequestEvent",
      "type": "event"
    },
    {
      "anonymous": false,
      "inputs": [
        {
          "components": [
            {
              "internalType": "bytes32",
              "name": "_firstname",
              "type": "bytes32"
            },
            {
              "internalType": "bytes32",
              "name": "_lastname",
              "type": "bytes32"
            },
            {
              "internalType": "enum SharedChain.Roles",
              "name": "_role",
              "type": "uint8"
            },
            {
              "internalType": "address",
              "name": "_walletAddress",
              "type": "address"
            },
            {
              "internalType": "uint256",
              "name": "_timestamp",
              "type": "uint256"
            }
          ],
          "indexed": false,
          "internalType": "struct SharedChain.User",
          "name": "_user",
          "type": "tuple"
        },
        {
          "indexed": true,
          "internalType": "address",
          "name": "_walletAddress",
          "type": "address"
        }
      ],
      "name": "UserEvent",
      "type": "event"
    },
    {
      "inputs": [
        {
          "internalType": "uint256",
          "name": "_role",
          "type": "uint256"
        },
        {
          "internalType": "address",
          "name": "_walletAddress",
          "type": "address"
        }
      ],
      "name": "changeUserRole",
      "outputs": [],
      "stateMutability": "nonpayable",
      "type": "function"
    },
    {
      "inputs": [],
      "name": "getAllUsers",
      "outputs": [
        {
          "components": [
            {
              "internalType": "bytes32",
              "name": "_firstname",
              "type": "bytes32"
            },
            {
              "internalType": "bytes32",
              "name": "_lastname",
              "type": "bytes32"
            },
            {
              "internalType": "enum SharedChain.Roles",
              "name": "_role",
              "type": "uint8"
            },
            {
              "internalType": "address",
              "name": "_walletAddress",
              "type": "address"
            },
            {
              "internalType": "uint256",
              "name": "_timestamp",
              "type": "uint256"
            }
          ],
          "internalType": "struct SharedChain.User[]",
          "name": "",
          "type": "tuple[]"
        }
      ],
      "stateMutability": "view",
      "type": "function",
      "constant": true
    },
    {
      "inputs": [
        {
          "internalType": "address",
          "name": "_walletAddress",
          "type": "address"
        }
      ],
      "name": "getUserInfo",
      "outputs": [
        {
          "components": [
            {
              "internalType": "bytes32",
              "name": "_firstname",
              "type": "bytes32"
            },
            {
              "internalType": "bytes32",
              "name": "_lastname",
              "type": "bytes32"
            },
            {
              "internalType": "enum SharedChain.Roles",
              "name": "_role",
              "type": "uint8"
            },
            {
              "internalType": "address",
              "name": "_walletAddress",
              "type": "address"
            },
            {
              "internalType": "uint256",
              "name": "_timestamp",
              "type": "uint256"
            }
          ],
          "internalType": "struct SharedChain.User",
          "name": "",
          "type": "tuple"
        }
      ],
      "stateMutability": "view",
      "type": "function",
      "constant": true
    },
    {
      "inputs": [
        {
          "internalType": "address",
          "name": "",
          "type": "address"
        }
      ],
      "name": "projects",
      "outputs": [
        {
          "internalType": "uint256",
          "name": "_index",
          "type": "uint256"
        },
        {
          "internalType": "string",
          "name": "_name",
          "type": "string"
        },
        {
          "internalType": "enum SharedChain.ProjectStatus",
          "name": "_status",
          "type": "uint8"
        },
        {
          "internalType": "string",
          "name": "_ipfsFileCID",
          "type": "string"
        },
        {
          "internalType": "address",
          "name": "_projectAddress",
          "type": "address"
        },
        {
          "internalType": "address",
          "name": "_signerAddress",
          "type": "address"
        },
        {
          "internalType": "address",
          "name": "_companyAddress",
          "type": "address"
        },
        {
          "internalType": "bool",
          "name": "_assigned",
          "type": "bool"
        },
        {
          "internalType": "uint256",
          "name": "_timestamp",
          "type": "uint256"
        },
        {
          "internalType": "string",
          "name": "_signature",
          "type": "string"
        }
      ],
      "stateMutability": "view",
      "type": "function",
      "constant": true
    },
    {
      "inputs": [
        {
          "internalType": "uint256",
          "name": "",
          "type": "uint256"
        }
      ],
      "name": "projectsAddress",
      "outputs": [
        {
          "internalType": "address",
          "name": "",
          "type": "address"
        }
      ],
      "stateMutability": "view",
      "type": "function",
      "constant": true
    },
    {
      "inputs": [],
      "name": "projectsCounter",
      "outputs": [
        {
          "internalType": "uint256",
          "name": "",
          "type": "uint256"
        }
      ],
      "stateMutability": "view",
      "type": "function",
      "constant": true
    },
    {
      "inputs": [
        {
          "internalType": "bytes32",
          "name": "_firstname",
          "type": "bytes32"
        },
        {
          "internalType": "bytes32",
          "name": "_lastname",
          "type": "bytes32"
        },
        {
          "internalType": "uint256",
          "name": "_role",
          "type": "uint256"
        },
        {
          "internalType": "address",
          "name": "_walletAddress",
          "type": "address"
        }
      ],
      "name": "registerUser",
      "outputs": [],
      "stateMutability": "nonpayable",
      "type": "function"
    },
    {
      "inputs": [
        {
          "internalType": "address",
          "name": "",
          "type": "address"
        }
      ],
      "name": "requests",
      "outputs": [
        {
          "internalType": "uint256",
          "name": "_index",
          "type": "uint256"
        },
        {
          "internalType": "string",
          "name": "_title",
          "type": "string"
        },
        {
          "internalType": "string",
          "name": "_comments",
          "type": "string"
        },
        {
          "internalType": "enum SharedChain.ProjectStatus",
          "name": "_projectStatus",
          "type": "uint8"
        },
        {
          "internalType": "enum SharedChain.RequestStatus",
          "name": "_requestStatus",
          "type": "uint8"
        },
        {
          "internalType": "enum SharedChain.RequestType",
          "name": "_requestType",
          "type": "uint8"
        },
        {
          "internalType": "address",
          "name": "_projectAddress",
          "type": "address"
        },
        {
          "internalType": "address",
          "name": "_requestAddress",
          "type": "address"
        },
        {
          "internalType": "address",
          "name": "_signerAddress",
          "type": "address"
        },
        {
          "internalType": "uint256",
          "name": "_timestamp",
          "type": "uint256"
        },
        {
          "internalType": "string",
          "name": "_signature",
          "type": "string"
        }
      ],
      "stateMutability": "view",
      "type": "function",
      "constant": true
    },
    {
      "inputs": [
        {
          "internalType": "uint256",
          "name": "",
          "type": "uint256"
        }
      ],
      "name": "requestsAddress",
      "outputs": [
        {
          "internalType": "address",
          "name": "",
          "type": "address"
        }
      ],
      "stateMutability": "view",
      "type": "function",
      "constant": true
    },
    {
      "inputs": [],
      "name": "requestsCounter",
      "outputs": [
        {
          "internalType": "uint256",
          "name": "",
          "type": "uint256"
        }
      ],
      "stateMutability": "view",
      "type": "function",
      "constant": true
    },
    {
      "inputs": [
        {
          "internalType": "address",
          "name": "",
          "type": "address"
        }
      ],
      "name": "users",
      "outputs": [
        {
          "internalType": "bytes32",
          "name": "_firstname",
          "type": "bytes32"
        },
        {
          "internalType": "bytes32",
          "name": "_lastname",
          "type": "bytes32"
        },
        {
          "internalType": "enum SharedChain.Roles",
          "name": "_role",
          "type": "uint8"
        },
        {
          "internalType": "address",
          "name": "_walletAddress",
          "type": "address"
        },
        {
          "internalType": "uint256",
          "name": "_timestamp",
          "type": "uint256"
        }
      ],
      "stateMutability": "view",
      "type": "function",
      "constant": true
    },
    {
      "inputs": [],
      "name": "usersCounter",
      "outputs": [
        {
          "internalType": "uint256",
          "name": "",
          "type": "uint256"
        }
      ],
      "stateMutability": "view",
      "type": "function",
      "constant": true
    },
    {
      "inputs": [
        {
          "internalType": "string",
          "name": "_name",
          "type": "string"
        },
        {
          "internalType": "uint256",
          "name": "_index",
          "type": "uint256"
        }
      ],
      "name": "createUniqueProjectAddress",
      "outputs": [
        {
          "internalType": "address",
          "name": "",
          "type": "address"
        }
      ],
      "stateMutability": "view",
      "type": "function",
      "constant": true
    },
    {
      "inputs": [
        {
          "internalType": "address",
          "name": "_projectAddress",
          "type": "address"
        },
        {
          "internalType": "string",
          "name": "_name",
          "type": "string"
        },
        {
          "internalType": "uint256",
          "name": "_status",
          "type": "uint256"
        },
        {
          "internalType": "string",
          "name": "_ipfsFileCID",
          "type": "string"
        },
        {
          "internalType": "string",
          "name": "_signature",
          "type": "string"
        }
      ],
      "name": "createProject",
      "outputs": [],
      "stateMutability": "nonpayable",
      "type": "function"
    },
    {
      "inputs": [
        {
          "internalType": "address",
          "name": "_projectAddress",
          "type": "address"
        },
        {
          "internalType": "string",
          "name": "_ipfsFileCID",
          "type": "string"
        },
        {
          "internalType": "string",
          "name": "_signature",
          "type": "string"
        }
      ],
      "name": "updateProject",
      "outputs": [],
      "stateMutability": "nonpayable",
      "type": "function"
    },
    {
      "inputs": [
        {
          "internalType": "address",
          "name": "_address",
          "type": "address"
        }
      ],
      "name": "getProjectInfo",
      "outputs": [
        {
          "components": [
            {
              "internalType": "uint256",
              "name": "_index",
              "type": "uint256"
            },
            {
              "internalType": "string",
              "name": "_name",
              "type": "string"
            },
            {
              "internalType": "enum SharedChain.ProjectStatus",
              "name": "_status",
              "type": "uint8"
            },
            {
              "internalType": "string",
              "name": "_ipfsFileCID",
              "type": "string"
            },
            {
              "internalType": "address",
              "name": "_projectAddress",
              "type": "address"
            },
            {
              "internalType": "address",
              "name": "_signerAddress",
              "type": "address"
            },
            {
              "internalType": "address",
              "name": "_companyAddress",
              "type": "address"
            },
            {
              "internalType": "bool",
              "name": "_assigned",
              "type": "bool"
            },
            {
              "internalType": "uint256",
              "name": "_timestamp",
              "type": "uint256"
            },
            {
              "internalType": "string",
              "name": "_signature",
              "type": "string"
            }
          ],
          "internalType": "struct SharedChain.Project",
          "name": "",
          "type": "tuple"
        }
      ],
      "stateMutability": "view",
      "type": "function",
      "constant": true
    },
    {
      "inputs": [
        {
          "internalType": "string",
          "name": "_title",
          "type": "string"
        },
        {
          "internalType": "uint256",
          "name": "_index",
          "type": "uint256"
        }
      ],
      "name": "createUniqueRequestAddress",
      "outputs": [
        {
          "internalType": "address",
          "name": "",
          "type": "address"
        }
      ],
      "stateMutability": "view",
      "type": "function",
      "constant": true
    },
    {
      "inputs": [
        {
          "internalType": "string",
          "name": "_title",
          "type": "string"
        },
        {
          "internalType": "uint256",
          "name": "_projectStatus",
          "type": "uint256"
        },
        {
          "internalType": "uint256",
          "name": "_requestStatus",
          "type": "uint256"
        },
        {
          "internalType": "address",
          "name": "_projectAddress",
          "type": "address"
        },
        {
          "internalType": "address",
          "name": "_requestAddress",
          "type": "address"
        },
        {
          "internalType": "string",
          "name": "_signature",
          "type": "string"
        }
      ],
      "name": "createRequest",
      "outputs": [],
      "stateMutability": "nonpayable",
      "type": "function"
    },
    {
      "inputs": [
        {
          "internalType": "string",
          "name": "_comments",
          "type": "string"
        },
        {
          "internalType": "uint256",
          "name": "_requestStatus",
          "type": "uint256"
        },
        {
          "internalType": "uint256",
          "name": "_projectStatus",
          "type": "uint256"
        },
        {
          "internalType": "address",
          "name": "_projectAddress",
          "type": "address"
        },
        {
          "internalType": "address",
          "name": "_requestAddress",
          "type": "address"
        },
        {
          "internalType": "string",
          "name": "_signature",
          "type": "string"
        }
      ],
      "name": "updateRequest",
      "outputs": [],
      "stateMutability": "nonpayable",
      "type": "function"
    },
    {
      "inputs": [
        {
          "internalType": "address",
          "name": "_projectAddress",
          "type": "address"
        },
        {
          "internalType": "address",
          "name": "_requestAddress",
          "type": "address"
        }
      ],
      "name": "getLastProjectRequest",
      "outputs": [
        {
          "components": [
            {
              "internalType": "uint256",
              "name": "_index",
              "type": "uint256"
            },
            {
              "internalType": "string",
              "name": "_title",
              "type": "string"
            },
            {
              "internalType": "string",
              "name": "_comments",
              "type": "string"
            },
            {
              "internalType": "enum SharedChain.ProjectStatus",
              "name": "_projectStatus",
              "type": "uint8"
            },
            {
              "internalType": "enum SharedChain.RequestStatus",
              "name": "_requestStatus",
              "type": "uint8"
            },
            {
              "internalType": "enum SharedChain.RequestType",
              "name": "_requestType",
              "type": "uint8"
            },
            {
              "internalType": "address",
              "name": "_projectAddress",
              "type": "address"
            },
            {
              "internalType": "address",
              "name": "_requestAddress",
              "type": "address"
            },
            {
              "internalType": "address",
              "name": "_signerAddress",
              "type": "address"
            },
            {
              "internalType": "uint256",
              "name": "_timestamp",
              "type": "uint256"
            },
            {
              "internalType": "string",
              "name": "_signature",
              "type": "string"
            }
          ],
          "internalType": "struct SharedChain.Request",
          "name": "",
          "type": "tuple"
        }
      ],
      "stateMutability": "view",
      "type": "function",
      "constant": true
    }
  ],
  "bytecode": "0x608060405260006002556000600555600060085534801561001f57600080fd5b50336000806101000a81548173ffffffffffffffffffffffffffffffffffffffff021916908373ffffffffffffffffffffffffffffffffffffffff1602179055506140718061006f6000396000f3fe608060405234801561001057600080fd5b506004361061012c5760003560e01c8063840e78fd116100ad578063d67b1b9911610071578063d67b1b99146103b6578063e1592c0d146103d4578063e2842d79146103f0578063e617385f1461040e578063fe360ea51461042a5761012c565b8063840e78fd146102f5578063844855631461032e57806387edbec71461034a5780639100978614610366578063a87430ba146103825761012c565b806356a3eead116100f457806356a3eead1461020d5780636386c1c71461023d578063663c22691461026d57806374adad1d1461028b57806376c932e0146102c55761012c565b8063191e1645146101315780633000d7f9146101615780633b4ec4f81461017d57806344884710146101ad57806347ee45b9146101dd575b600080fd5b61014b60048036038101906101469190612b2a565b610448565b6040516101589190612bc7565b60405180910390f35b61017b60048036038101906101769190612c44565b610480565b005b61019760048036038101906101929190612b2a565b610753565b6040516101a49190612bc7565b60405180910390f35b6101c760048036038101906101c29190612cab565b61078b565b6040516101d49190612f95565b60405180910390f35b6101f760048036038101906101f29190612fb7565b610c12565b60405161020491906130e7565b60405180910390f35b61022760048036038101906102229190613109565b610f8e565b6040516102349190612bc7565b60405180910390f35b61025760048036038101906102529190612fb7565b610fcd565b60405161026491906131f5565b60405180910390f35b6102756110d5565b604051610282919061321f565b60405180910390f35b6102a560048036038101906102a09190612fb7565b6110db565b6040516102bc9b9a999897969594939291906132b1565b60405180910390f35b6102df60048036038101906102da9190613109565b611354565b6040516102ec9190612bc7565b60405180910390f35b61030f600480360381019061030a9190612fb7565b611393565b6040516103259a99989796959493929190613380565b60405180910390f35b61034860048036038101906103439190613431565b6115f9565b005b610364600480360381019061035f9190613500565b6119a5565b005b610380600480360381019061037b91906135c5565b611cd9565b005b61039c60048036038101906103979190612fb7565b611eba565b6040516103ad959493929190613623565b60405180910390f35b6103be611f1d565b6040516103cb919061321f565b60405180910390f35b6103ee60048036038101906103e99190613676565b611f23565b005b6103f861207a565b6040516104059190613818565b60405180910390f35b61042860048036038101906104239190613500565b612295565b005b610432612719565b60405161043f919061321f565b60405180910390f35b600082338360405160200161045f939291906138df565b6040516020818303038152906040528051906020012060001c905092915050565b3373ffffffffffffffffffffffffffffffffffffffff1660008054906101000a900473ffffffffffffffffffffffffffffffffffffffff1673ffffffffffffffffffffffffffffffffffffffff161461050e576040517f08c379a000000000000000000000000000000000000000000000000000000000815260040161050590613964565b60405180910390fd5b6040518060a0016040528085815260200184815260200183600381111561053857610537612d82565b5b600381111561054a57610549612d82565b5b81526020018273ffffffffffffffffffffffffffffffffffffffff16815260200142815250600160008373ffffffffffffffffffffffffffffffffffffffff1673ffffffffffffffffffffffffffffffffffffffff168152602001908152602001600020600082015181600001556020820151816001015560408201518160020160006101000a81548160ff021916908360038111156105ed576105ec612d82565b5b021790555060608201518160020160016101000a81548173ffffffffffffffffffffffffffffffffffffffff021916908373ffffffffffffffffffffffffffffffffffffffff160217905550608082015181600301559050508073ffffffffffffffffffffffffffffffffffffffff167ff751778eb32087df58f173035147c2eac9aac89fdc2f83b1993a198606f56db1600160008473ffffffffffffffffffffffffffffffffffffffff1673ffffffffffffffffffffffffffffffffffffffff1681526020019081526020016000206040516106ca9190613ae1565b60405180910390a26003819080600181540180825580915050600190039060005260206000200160009091909190916101000a81548173ffffffffffffffffffffffffffffffffffffffff021916908373ffffffffffffffffffffffffffffffffffffffff1602179055506002600081548092919061074890613b2b565b919050555050505050565b600082338360405160200161076a939291906138df565b6040516020818303038152906040528051906020012060001c905092915050565b61079361271f565b61079b61271f565b60006008541115610c08578373ffffffffffffffffffffffffffffffffffffffff16600760008573ffffffffffffffffffffffffffffffffffffffff1673ffffffffffffffffffffffffffffffffffffffff16815260200190815260200160002060030160039054906101000a900473ffffffffffffffffffffffffffffffffffffffff1673ffffffffffffffffffffffffffffffffffffffff161415610c0757600760008473ffffffffffffffffffffffffffffffffffffffff1673ffffffffffffffffffffffffffffffffffffffff16815260200190815260200160002060405180610160016040529081600082015481526020016001820180546108a190613ba3565b80601f01602080910402602001604051908101604052809291908181526020018280546108cd90613ba3565b801561091a5780601f106108ef5761010080835404028352916020019161091a565b820191906000526020600020905b8154815290600101906020018083116108fd57829003601f168201915b5050505050815260200160028201805461093390613ba3565b80601f016020809104026020016040519081016040528092919081815260200182805461095f90613ba3565b80156109ac5780601f10610981576101008083540402835291602001916109ac565b820191906000526020600020905b81548152906001019060200180831161098f57829003601f168201915b505050505081526020016003820160009054906101000a900460ff1660048111156109da576109d9612d82565b5b60048111156109ec576109eb612d82565b5b81526020016003820160019054906101000a900460ff166002811115610a1557610a14612d82565b5b6002811115610a2757610a26612d82565b5b81526020016003820160029054906101000a900460ff166001811115610a5057610a4f612d82565b5b6001811115610a6257610a61612d82565b5b81526020016003820160039054906101000a900473ffffffffffffffffffffffffffffffffffffffff1673ffffffffffffffffffffffffffffffffffffffff1673ffffffffffffffffffffffffffffffffffffffff1681526020016004820160009054906101000a900473ffffffffffffffffffffffffffffffffffffffff1673ffffffffffffffffffffffffffffffffffffffff1673ffffffffffffffffffffffffffffffffffffffff1681526020016005820160009054906101000a900473ffffffffffffffffffffffffffffffffffffffff1673ffffffffffffffffffffffffffffffffffffffff1673ffffffffffffffffffffffffffffffffffffffff16815260200160068201548152602001600782018054610b8290613ba3565b80601f0160208091040260200160405190810160405280929190818152602001828054610bae90613ba3565b8015610bfb5780601f10610bd057610100808354040283529160200191610bfb565b820191906000526020600020905b815481529060010190602001808311610bde57829003601f168201915b50505050508152505090505b5b8091505092915050565b610c1a6127f1565b600460008373ffffffffffffffffffffffffffffffffffffffff1673ffffffffffffffffffffffffffffffffffffffff1681526020019081526020016000206040518061014001604052908160008201548152602001600182018054610c7f90613ba3565b80601f0160208091040260200160405190810160405280929190818152602001828054610cab90613ba3565b8015610cf85780601f10610ccd57610100808354040283529160200191610cf8565b820191906000526020600020905b815481529060010190602001808311610cdb57829003601f168201915b505050505081526020016002820160009054906101000a900460ff166004811115610d2657610d25612d82565b5b6004811115610d3857610d37612d82565b5b8152602001600382018054610d4c90613ba3565b80601f0160208091040260200160405190810160405280929190818152602001828054610d7890613ba3565b8015610dc55780601f10610d9a57610100808354040283529160200191610dc5565b820191906000526020600020905b815481529060010190602001808311610da857829003601f168201915b505050505081526020016004820160009054906101000a900473ffffffffffffffffffffffffffffffffffffffff1673ffffffffffffffffffffffffffffffffffffffff1673ffffffffffffffffffffffffffffffffffffffff1681526020016005820160009054906101000a900473ffffffffffffffffffffffffffffffffffffffff1673ffffffffffffffffffffffffffffffffffffffff1673ffffffffffffffffffffffffffffffffffffffff1681526020016006820160009054906101000a900473ffffffffffffffffffffffffffffffffffffffff1673ffffffffffffffffffffffffffffffffffffffff1673ffffffffffffffffffffffffffffffffffffffff1681526020016006820160149054906101000a900460ff1615151515815260200160078201548152602001600882018054610f0590613ba3565b80601f0160208091040260200160405190810160405280929190818152602001828054610f3190613ba3565b8015610f7e5780601f10610f5357610100808354040283529160200191610f7e565b820191906000526020600020905b815481529060010190602001808311610f6157829003601f168201915b5050505050815250509050919050565b60098181548110610f9e57600080fd5b906000526020600020016000915054906101000a900473ffffffffffffffffffffffffffffffffffffffff1681565b610fd561289a565b600160008373ffffffffffffffffffffffffffffffffffffffff1673ffffffffffffffffffffffffffffffffffffffff1681526020019081526020016000206040518060a001604052908160008201548152602001600182015481526020016002820160009054906101000a900460ff16600381111561105857611057612d82565b5b600381111561106a57611069612d82565b5b81526020016002820160019054906101000a900473ffffffffffffffffffffffffffffffffffffffff1673ffffffffffffffffffffffffffffffffffffffff1673ffffffffffffffffffffffffffffffffffffffff1681526020016003820154815250509050919050565b60085481565b600760205280600052604060002060009150905080600001549080600101805461110490613ba3565b80601f016020809104026020016040519081016040528092919081815260200182805461113090613ba3565b801561117d5780601f106111525761010080835404028352916020019161117d565b820191906000526020600020905b81548152906001019060200180831161116057829003601f168201915b50505050509080600201805461119290613ba3565b80601f01602080910402602001604051908101604052809291908181526020018280546111be90613ba3565b801561120b5780601f106111e05761010080835404028352916020019161120b565b820191906000526020600020905b8154815290600101906020018083116111ee57829003601f168201915b5050505050908060030160009054906101000a900460ff16908060030160019054906101000a900460ff16908060030160029054906101000a900460ff16908060030160039054906101000a900473ffffffffffffffffffffffffffffffffffffffff16908060040160009054906101000a900473ffffffffffffffffffffffffffffffffffffffff16908060050160009054906101000a900473ffffffffffffffffffffffffffffffffffffffff16908060060154908060070180546112d190613ba3565b80601f01602080910402602001604051908101604052809291908181526020018280546112fd90613ba3565b801561134a5780601f1061131f5761010080835404028352916020019161134a565b820191906000526020600020905b81548152906001019060200180831161132d57829003601f168201915b505050505090508b565b6006818154811061136457600080fd5b906000526020600020016000915054906101000a900473ffffffffffffffffffffffffffffffffffffffff1681565b60046020528060005260406000206000915090508060000154908060010180546113bc90613ba3565b80601f01602080910402602001604051908101604052809291908181526020018280546113e890613ba3565b80156114355780601f1061140a57610100808354040283529160200191611435565b820191906000526020600020905b81548152906001019060200180831161141857829003601f168201915b5050505050908060020160009054906101000a900460ff169080600301805461145d90613ba3565b80601f016020809104026020016040519081016040528092919081815260200182805461148990613ba3565b80156114d65780601f106114ab576101008083540402835291602001916114d6565b820191906000526020600020905b8154815290600101906020018083116114b957829003601f168201915b5050505050908060040160009054906101000a900473ffffffffffffffffffffffffffffffffffffffff16908060050160009054906101000a900473ffffffffffffffffffffffffffffffffffffffff16908060060160009054906101000a900473ffffffffffffffffffffffffffffffffffffffff16908060060160149054906101000a900460ff169080600701549080600801805461157690613ba3565b80601f01602080910402602001604051908101604052809291908181526020018280546115a290613ba3565b80156115ef5780601f106115c4576101008083540402835291602001916115ef565b820191906000526020600020905b8154815290600101906020018083116115d257829003601f168201915b505050505090508a565b604051806101400160405280600554815260200185815260200184600481111561162657611625612d82565b5b600481111561163857611637612d82565b5b81526020018381526020018673ffffffffffffffffffffffffffffffffffffffff1681526020013373ffffffffffffffffffffffffffffffffffffffff168152602001600073ffffffffffffffffffffffffffffffffffffffff16815260200160001515815260200142815260200182815250600460008773ffffffffffffffffffffffffffffffffffffffff1673ffffffffffffffffffffffffffffffffffffffff1681526020019081526020016000206000820151816000015560208201518160010190805190602001906117109291906128f7565b5060408201518160020160006101000a81548160ff0219169083600481111561173c5761173b612d82565b5b0217905550606082015181600301908051906020019061175d9291906128f7565b5060808201518160040160006101000a81548173ffffffffffffffffffffffffffffffffffffffff021916908373ffffffffffffffffffffffffffffffffffffffff16021790555060a08201518160050160006101000a81548173ffffffffffffffffffffffffffffffffffffffff021916908373ffffffffffffffffffffffffffffffffffffffff16021790555060c08201518160060160006101000a81548173ffffffffffffffffffffffffffffffffffffffff021916908373ffffffffffffffffffffffffffffffffffffffff16021790555060e08201518160060160146101000a81548160ff021916908315150217905550610100820151816007015561012082015181600801908051906020019061187b9291906128f7565b50905050600073ffffffffffffffffffffffffffffffffffffffff168573ffffffffffffffffffffffffffffffffffffffff167ffb530d24abc3d497c3f0525ef204a66ac64d923ec30b40d17bc3a5f572cf4b8e600460008973ffffffffffffffffffffffffffffffffffffffff1673ffffffffffffffffffffffffffffffffffffffff16815260200190815260200160002060405161191b9190613e0a565b60405180910390a36006859080600181540180825580915050600190039060005260206000200160009091909190916101000a81548173ffffffffffffffffffffffffffffffffffffffff021916908373ffffffffffffffffffffffffffffffffffffffff1602179055506005600081548092919061199990613b2b565b91905055505050505050565b85600760008473ffffffffffffffffffffffffffffffffffffffff1673ffffffffffffffffffffffffffffffffffffffff16815260200190815260200160002060020190805190602001906119fb9291906128f7565b50846002811115611a0f57611a0e612d82565b5b600760008473ffffffffffffffffffffffffffffffffffffffff1673ffffffffffffffffffffffffffffffffffffffff16815260200190815260200160002060030160016101000a81548160ff02191690836002811115611a7357611a72612d82565b5b021790555080600760008473ffffffffffffffffffffffffffffffffffffffff1673ffffffffffffffffffffffffffffffffffffffff1681526020019081526020016000206007019080519060200190611ace9291906128f7565b508273ffffffffffffffffffffffffffffffffffffffff168273ffffffffffffffffffffffffffffffffffffffff167fa25a6f1ff57a050a48ae4b3a19f271fddad950cac8d165d6a2eca5d54cc8070f600760008673ffffffffffffffffffffffffffffffffffffffff1673ffffffffffffffffffffffffffffffffffffffff168152602001908152602001600020604051611b6a9190613fea565b60405180910390a3846002811115611b8557611b84612d82565b5b6002811115611b9757611b96612d82565b5b600280811115611baa57611ba9612d82565b5b1415611cd157836004811115611bc357611bc2612d82565b5b600460008573ffffffffffffffffffffffffffffffffffffffff1673ffffffffffffffffffffffffffffffffffffffff16815260200190815260200160002060020160006101000a81548160ff02191690836004811115611c2757611c26612d82565b5b0217905550600073ffffffffffffffffffffffffffffffffffffffff168373ffffffffffffffffffffffffffffffffffffffff167ffb530d24abc3d497c3f0525ef204a66ac64d923ec30b40d17bc3a5f572cf4b8e600460008773ffffffffffffffffffffffffffffffffffffffff1673ffffffffffffffffffffffffffffffffffffffff168152602001908152602001600020604051611cc89190613e0a565b60405180910390a35b505050505050565b3373ffffffffffffffffffffffffffffffffffffffff1660008054906101000a900473ffffffffffffffffffffffffffffffffffffffff1673ffffffffffffffffffffffffffffffffffffffff1614611d67576040517f08c379a0000000000000000000000000000000000000000000000000000000008152600401611d5e90613964565b60405180910390fd5b816003811115611d7a57611d79612d82565b5b600160008373ffffffffffffffffffffffffffffffffffffffff1673ffffffffffffffffffffffffffffffffffffffff16815260200190815260200160002060020160006101000a81548160ff02191690836003811115611dde57611ddd612d82565b5b021790555042600160008373ffffffffffffffffffffffffffffffffffffffff1673ffffffffffffffffffffffffffffffffffffffff168152602001908152602001600020600301819055508073ffffffffffffffffffffffffffffffffffffffff167ff751778eb32087df58f173035147c2eac9aac89fdc2f83b1993a198606f56db1600160008473ffffffffffffffffffffffffffffffffffffffff1673ffffffffffffffffffffffffffffffffffffffff168152602001908152602001600020604051611eae9190613ae1565b60405180910390a25050565b60016020528060005260406000206000915090508060000154908060010154908060020160009054906101000a900460ff16908060020160019054906101000a900473ffffffffffffffffffffffffffffffffffffffff16908060030154905085565b60025481565b81600460008573ffffffffffffffffffffffffffffffffffffffff1673ffffffffffffffffffffffffffffffffffffffff1681526020019081526020016000206003019080519060200190611f799291906128f7565b5080600460008573ffffffffffffffffffffffffffffffffffffffff1673ffffffffffffffffffffffffffffffffffffffff1681526020019081526020016000206008019080519060200190611fd09291906128f7565b50600073ffffffffffffffffffffffffffffffffffffffff168373ffffffffffffffffffffffffffffffffffffffff167ffb530d24abc3d497c3f0525ef204a66ac64d923ec30b40d17bc3a5f572cf4b8e600460008773ffffffffffffffffffffffffffffffffffffffff1673ffffffffffffffffffffffffffffffffffffffff16815260200190815260200160002060405161206d9190613e0a565b60405180910390a3505050565b60603373ffffffffffffffffffffffffffffffffffffffff1660008054906101000a900473ffffffffffffffffffffffffffffffffffffffff1673ffffffffffffffffffffffffffffffffffffffff161461210a576040517f08c379a000000000000000000000000000000000000000000000000000000000815260040161210190613964565b60405180910390fd5b606060005b60025481101561228d5760006003828154811061212f5761212e61400c565b5b9060005260206000200160009054906101000a900473ffffffffffffffffffffffffffffffffffffffff1690506000600160008373ffffffffffffffffffffffffffffffffffffffff1673ffffffffffffffffffffffffffffffffffffffff1681526020019081526020016000209050806040518060a001604052908160008201548152602001600182015481526020016002820160009054906101000a900460ff1660038111156121e4576121e3612d82565b5b60038111156121f6576121f5612d82565b5b81526020016002820160019054906101000a900473ffffffffffffffffffffffffffffffffffffffff1673ffffffffffffffffffffffffffffffffffffffff1673ffffffffffffffffffffffffffffffffffffffff16815260200160038201548152505084848151811061226d5761226c61400c565b5b60200260200101819052505050808061228590613b2b565b91505061210f565b508091505090565b6000600260048111156122ab576122aa612d82565b5b8660048111156122be576122bd612d82565b5b60048111156122d0576122cf612d82565b5b14156122df57600190506122e4565b600090505b604051806101600160405280600854815260200188815260200160405180602001604052806000815250815260200187600481111561232657612325612d82565b5b600481111561233857612337612d82565b5b81526020018660028111156123505761234f612d82565b5b600281111561236257612361612d82565b5b815260200182600181111561237a57612379612d82565b5b81526020018573ffffffffffffffffffffffffffffffffffffffff1681526020018473ffffffffffffffffffffffffffffffffffffffff1681526020013373ffffffffffffffffffffffffffffffffffffffff16815260200142815260200183815250600760008573ffffffffffffffffffffffffffffffffffffffff1673ffffffffffffffffffffffffffffffffffffffff1681526020019081526020016000206000820151816000015560208201518160010190805190602001906124429291906128f7565b50604082015181600201908051906020019061245f9291906128f7565b5060608201518160030160006101000a81548160ff0219169083600481111561248b5761248a612d82565b5b021790555060808201518160030160016101000a81548160ff021916908360028111156124bb576124ba612d82565b5b021790555060a08201518160030160026101000a81548160ff021916908360018111156124eb576124ea612d82565b5b021790555060c08201518160030160036101000a81548173ffffffffffffffffffffffffffffffffffffffff021916908373ffffffffffffffffffffffffffffffffffffffff16021790555060e08201518160040160006101000a81548173ffffffffffffffffffffffffffffffffffffffff021916908373ffffffffffffffffffffffffffffffffffffffff1602179055506101008201518160050160006101000a81548173ffffffffffffffffffffffffffffffffffffffff021916908373ffffffffffffffffffffffffffffffffffffffff16021790555061012082015181600601556101408201518160070190805190602001906125ee9291906128f7565b509050508373ffffffffffffffffffffffffffffffffffffffff168373ffffffffffffffffffffffffffffffffffffffff167fa25a6f1ff57a050a48ae4b3a19f271fddad950cac8d165d6a2eca5d54cc8070f600760008773ffffffffffffffffffffffffffffffffffffffff1673ffffffffffffffffffffffffffffffffffffffff16815260200190815260200160002060405161268d9190613fea565b60405180910390a36009839080600181540180825580915050600190039060005260206000200160009091909190916101000a81548173ffffffffffffffffffffffffffffffffffffffff021916908373ffffffffffffffffffffffffffffffffffffffff1602179055506008600081548092919061270b90613b2b565b919050555050505050505050565b60055481565b6040518061016001604052806000815260200160608152602001606081526020016000600481111561275457612753612d82565b5b81526020016000600281111561276d5761276c612d82565b5b81526020016000600181111561278657612785612d82565b5b8152602001600073ffffffffffffffffffffffffffffffffffffffff168152602001600073ffffffffffffffffffffffffffffffffffffffff168152602001600073ffffffffffffffffffffffffffffffffffffffff16815260200160008152602001606081525090565b60405180610140016040528060008152602001606081526020016000600481111561281f5761281e612d82565b5b815260200160608152602001600073ffffffffffffffffffffffffffffffffffffffff168152602001600073ffffffffffffffffffffffffffffffffffffffff168152602001600073ffffffffffffffffffffffffffffffffffffffff16815260200160001515815260200160008152602001606081525090565b6040518060a001604052806000801916815260200160008019168152602001600060038111156128cd576128cc612d82565b5b8152602001600073ffffffffffffffffffffffffffffffffffffffff168152602001600081525090565b82805461290390613ba3565b90600052602060002090601f016020900481019282612925576000855561296c565b82601f1061293e57805160ff191683800117855561296c565b8280016001018555821561296c579182015b8281111561296b578251825591602001919060010190612950565b5b509050612979919061297d565b5090565b5b8082111561299657600081600090555060010161297e565b5090565b6000604051905090565b600080fd5b600080fd5b600080fd5b600080fd5b6000601f19601f8301169050919050565b7f4e487b7100000000000000000000000000000000000000000000000000000000600052604160045260246000fd5b612a01826129b8565b810181811067ffffffffffffffff82111715612a2057612a1f6129c9565b5b80604052505050565b6000612a3361299a565b9050612a3f82826129f8565b919050565b600067ffffffffffffffff821115612a5f57612a5e6129c9565b5b612a68826129b8565b9050602081019050919050565b82818337600083830152505050565b6000612a97612a9284612a44565b612a29565b905082815260208101848484011115612ab357612ab26129b3565b5b612abe848285612a75565b509392505050565b600082601f830112612adb57612ada6129ae565b5b8135612aeb848260208601612a84565b91505092915050565b6000819050919050565b612b0781612af4565b8114612b1257600080fd5b50565b600081359050612b2481612afe565b92915050565b60008060408385031215612b4157612b406129a4565b5b600083013567ffffffffffffffff811115612b5f57612b5e6129a9565b5b612b6b85828601612ac6565b9250506020612b7c85828601612b15565b9150509250929050565b600073ffffffffffffffffffffffffffffffffffffffff82169050919050565b6000612bb182612b86565b9050919050565b612bc181612ba6565b82525050565b6000602082019050612bdc6000830184612bb8565b92915050565b6000819050919050565b612bf581612be2565b8114612c0057600080fd5b50565b600081359050612c1281612bec565b92915050565b612c2181612ba6565b8114612c2c57600080fd5b50565b600081359050612c3e81612c18565b92915050565b60008060008060808587031215612c5e57612c5d6129a4565b5b6000612c6c87828801612c03565b9450506020612c7d87828801612c03565b9350506040612c8e87828801612b15565b9250506060612c9f87828801612c2f565b91505092959194509250565b60008060408385031215612cc257612cc16129a4565b5b6000612cd085828601612c2f565b9250506020612ce185828601612c2f565b9150509250929050565b612cf481612af4565b82525050565b600081519050919050565b600082825260208201905092915050565b60005b83811015612d34578082015181840152602081019050612d19565b83811115612d43576000848401525b50505050565b6000612d5482612cfa565b612d5e8185612d05565b9350612d6e818560208601612d16565b612d77816129b8565b840191505092915050565b7f4e487b7100000000000000000000000000000000000000000000000000000000600052602160045260246000fd5b60058110612dc257612dc1612d82565b5b50565b6000819050612dd382612db1565b919050565b6000612de382612dc5565b9050919050565b612df381612dd8565b82525050565b60038110612e0a57612e09612d82565b5b50565b6000819050612e1b82612df9565b919050565b6000612e2b82612e0d565b9050919050565b612e3b81612e20565b82525050565b60028110612e5257612e51612d82565b5b50565b6000819050612e6382612e41565b919050565b6000612e7382612e55565b9050919050565b612e8381612e68565b82525050565b612e9281612ba6565b82525050565b600061016083016000830151612eb16000860182612ceb565b5060208301518482036020860152612ec98282612d49565b91505060408301518482036040860152612ee38282612d49565b9150506060830151612ef86060860182612dea565b506080830151612f0b6080860182612e32565b5060a0830151612f1e60a0860182612e7a565b5060c0830151612f3160c0860182612e89565b5060e0830151612f4460e0860182612e89565b50610100830151612f59610100860182612e89565b50610120830151612f6e610120860182612ceb565b50610140830151848203610140860152612f888282612d49565b9150508091505092915050565b60006020820190508181036000830152612faf8184612e98565b905092915050565b600060208284031215612fcd57612fcc6129a4565b5b6000612fdb84828501612c2f565b91505092915050565b60008115159050919050565b612ff981612fe4565b82525050565b6000610140830160008301516130186000860182612ceb565b50602083015184820360208601526130308282612d49565b91505060408301516130456040860182612dea565b506060830151848203606086015261305d8282612d49565b91505060808301516130726080860182612e89565b5060a083015161308560a0860182612e89565b5060c083015161309860c0860182612e89565b5060e08301516130ab60e0860182612ff0565b506101008301516130c0610100860182612ceb565b506101208301518482036101208601526130da8282612d49565b9150508091505092915050565b600060208201905081810360008301526131018184612fff565b905092915050565b60006020828403121561311f5761311e6129a4565b5b600061312d84828501612b15565b91505092915050565b61313f81612be2565b82525050565b6004811061315657613155612d82565b5b50565b600081905061316782613145565b919050565b600061317782613159565b9050919050565b6131878161316c565b82525050565b60a0820160008201516131a36000850182613136565b5060208201516131b66020850182613136565b5060408201516131c9604085018261317e565b5060608201516131dc6060850182612e89565b5060808201516131ef6080850182612ceb565b50505050565b600060a08201905061320a600083018461318d565b92915050565b61321981612af4565b82525050565b60006020820190506132346000830184613210565b92915050565b600082825260208201905092915050565b600061325682612cfa565b613260818561323a565b9350613270818560208601612d16565b613279816129b8565b840191505092915050565b61328d81612dd8565b82525050565b61329c81612e20565b82525050565b6132ab81612e68565b82525050565b6000610160820190506132c7600083018e613210565b81810360208301526132d9818d61324b565b905081810360408301526132ed818c61324b565b90506132fc606083018b613284565b613309608083018a613293565b61331660a08301896132a2565b61332360c0830188612bb8565b61333060e0830187612bb8565b61333e610100830186612bb8565b61334c610120830185613210565b81810361014083015261335f818461324b565b90509c9b505050505050505050505050565b61337a81612fe4565b82525050565b600061014082019050613396600083018d613210565b81810360208301526133a8818c61324b565b90506133b7604083018b613284565b81810360608301526133c9818a61324b565b90506133d86080830189612bb8565b6133e560a0830188612bb8565b6133f260c0830187612bb8565b6133ff60e0830186613371565b61340d610100830185613210565b818103610120830152613420818461324b565b90509b9a5050505050505050505050565b600080600080600060a0868803121561344d5761344c6129a4565b5b600061345b88828901612c2f565b955050602086013567ffffffffffffffff81111561347c5761347b6129a9565b5b61348888828901612ac6565b945050604061349988828901612b15565b935050606086013567ffffffffffffffff8111156134ba576134b96129a9565b5b6134c688828901612ac6565b925050608086013567ffffffffffffffff8111156134e7576134e66129a9565b5b6134f388828901612ac6565b9150509295509295909350565b60008060008060008060c0878903121561351d5761351c6129a4565b5b600087013567ffffffffffffffff81111561353b5761353a6129a9565b5b61354789828a01612ac6565b965050602061355889828a01612b15565b955050604061356989828a01612b15565b945050606061357a89828a01612c2f565b935050608061358b89828a01612c2f565b92505060a087013567ffffffffffffffff8111156135ac576135ab6129a9565b5b6135b889828a01612ac6565b9150509295509295509295565b600080604083850312156135dc576135db6129a4565b5b60006135ea85828601612b15565b92505060206135fb85828601612c2f565b9150509250929050565b61360e81612be2565b82525050565b61361d8161316c565b82525050565b600060a0820190506136386000830188613605565b6136456020830187613605565b6136526040830186613614565b61365f6060830185612bb8565b61366c6080830184613210565b9695505050505050565b60008060006060848603121561368f5761368e6129a4565b5b600061369d86828701612c2f565b935050602084013567ffffffffffffffff8111156136be576136bd6129a9565b5b6136ca86828701612ac6565b925050604084013567ffffffffffffffff8111156136eb576136ea6129a9565b5b6136f786828701612ac6565b9150509250925092565b600081519050919050565b600082825260208201905092915050565b6000819050602082019050919050565b60a0820160008201516137436000850182613136565b5060208201516137566020850182613136565b506040820151613769604085018261317e565b50606082015161377c6060850182612e89565b50608082015161378f6080850182612ceb565b50505050565b60006137a1838361372d565b60a08301905092915050565b6000602082019050919050565b60006137c582613701565b6137cf818561370c565b93506137da8361371d565b8060005b8381101561380b5781516137f28882613795565b97506137fd836137ad565b9250506001810190506137de565b5085935050505092915050565b6000602082019050818103600083015261383281846137ba565b905092915050565b600081905092915050565b600061385082612cfa565b61385a818561383a565b935061386a818560208601612d16565b80840191505092915050565b60008160601b9050919050565b600061388e82613876565b9050919050565b60006138a082613883565b9050919050565b6138b86138b382612ba6565b613895565b82525050565b6000819050919050565b6138d96138d482612af4565b6138be565b82525050565b60006138eb8286613845565b91506138f782856138a7565b60148201915061390782846138c8565b602082019150819050949350505050565b7f596f7520617265206e6f7420616e206f776e65722e0000000000000000000000600082015250565b600061394e60158361323a565b915061395982613918565b602082019050919050565b6000602082019050818103600083015261397d81613941565b9050919050565b60008160001c9050919050565b6000819050919050565b60006139ae6139a983613984565b613991565b9050919050565b600060ff82169050919050565b60006139d56139d083613984565b6139b5565b9050919050565b60008160081c9050919050565b600073ffffffffffffffffffffffffffffffffffffffff82169050919050565b6000613a1c613a17836139dc565b6139e9565b9050919050565b6000819050919050565b6000613a40613a3b83613984565b613a23565b9050919050565b60a082016000808301549050613a5c8161399b565b613a696000860182613136565b5060018301549050613a7a8161399b565b613a876020860182613136565b5060028301549050613a98816139c2565b613aa5604086018261317e565b50613aaf81613a09565b613abc6060860182612e89565b5060038301549050613acd81613a2d565b613ada6080860182612ceb565b5050505050565b600060a082019050613af66000830184613a47565b92915050565b7f4e487b7100000000000000000000000000000000000000000000000000000000600052601160045260246000fd5b6000613b3682612af4565b91507fffffffffffffffffffffffffffffffffffffffffffffffffffffffffffffffff821415613b6957613b68613afc565b5b600182019050919050565b7f4e487b7100000000000000000000000000000000000000000000000000000000600052602260045260246000fd5b60006002820490506001821680613bbb57607f821691505b60208210811415613bcf57613bce613b74565b5b50919050565b60008190508160005260206000209050919050565b60008154613bf781613ba3565b613c018186612d05565b94506001821660008114613c1c5760018114613c2e57613c61565b60ff1983168652602086019350613c61565b613c3785613bd5565b60005b83811015613c5957815481890152600182019150602081019050613c3a565b808801955050505b50505092915050565b600060ff82169050919050565b6000613c8a613c8583613984565b613c6a565b9050919050565b6000613ca4613c9f83613984565b6139e9565b9050919050565b60008160a01c9050919050565b600060ff82169050919050565b6000613cd8613cd383613cab565b613cb8565b9050919050565b600061014083016000808401549050613cf781613a2d565b613d046000870182612ceb565b50600184018583036020870152613d1b8382613bea565b92505060028401549050613d2e81613c77565b613d3b6040870182612dea565b50600384018583036060870152613d528382613bea565b92505060048401549050613d6581613c91565b613d726080870182612e89565b5060058401549050613d8381613c91565b613d9060a0870182612e89565b5060068401549050613da181613c91565b613dae60c0870182612e89565b50613db881613cc5565b613dc560e0870182612ff0565b5060078401549050613dd681613a2d565b613de4610100870182612ceb565b5060088401858303610120870152613dfc8382613bea565b925050819250505092915050565b60006020820190508181036000830152613e248184613cdf565b905092915050565b600060ff82169050919050565b6000613e4c613e47836139dc565b613e2c565b9050919050565b60008160101c9050919050565b600060ff82169050919050565b6000613e80613e7b83613e53565b613e60565b9050919050565b60008160181c9050919050565b6000613ea7613ea283613e87565b6139e9565b9050919050565b600061016083016000808401549050613ec681613a2d565b613ed36000870182612ceb565b50600184018583036020870152613eea8382613bea565b925050600284018583036040870152613f038382613bea565b92505060038401549050613f1681613c77565b613f236060870182612dea565b50613f2d81613e39565b613f3a6080870182612e32565b50613f4481613e6d565b613f5160a0870182612e7a565b50613f5b81613e94565b613f6860c0870182612e89565b5060048401549050613f7981613c91565b613f8660e0870182612e89565b5060058401549050613f9781613c91565b613fa5610100870182612e89565b5060068401549050613fb681613a2d565b613fc4610120870182612ceb565b5060078401858303610140870152613fdc8382613bea565b925050819250505092915050565b600060208201905081810360008301526140048184613eae565b905092915050565b7f4e487b7100000000000000000000000000000000000000000000000000000000600052603260045260246000fdfea2646970667358221220be023fbafeefe745be63bdd2a8bd47a38f3fd8b1f4e091122838895b521a175e64736f6c634300080a0033",
  "immutableReferences": {},
  "source": "// SPDX-License-Identifier: MIT\r\npragma solidity >=0.8.0 <0.9.0;\r\n\r\nimport \"./UserChain.sol\";\r\nimport \"./SharedChain.sol\";\r\n\r\ncontract ProjectChain is UserChain {\r\n    //UserChain userChain;\r\n\r\n    constructor() {\r\n        //userChain = new UserChain();\r\n    }\r\n\r\n    modifier onlyUserProject() {\r\n        // User memory sessionUser = userChain.getUserInfo(msg.sender);\r\n        // require(\r\n        //     sessionUser._role == Roles.UserProject,\r\n        //     \"You don't have the rights for this resource.\"\r\n        // );\r\n        _;\r\n    }\r\n\r\n    modifier onlySupervisor() {\r\n        // User memory sessionUser = userChain.getUserInfo(msg.sender);\r\n        // require(\r\n        //     sessionUser._role == Roles.Supervisor,\r\n        //     \"You don't have the rights for this resource.\"\r\n        // );\r\n        _;\r\n    }\r\n\r\n    modifier onlyCompany() {\r\n        // User memory sessionUser = userChain.getUserInfo(msg.sender);\r\n        // require(\r\n        //     sessionUser._role == Roles.Company,\r\n        //     \"You don't have the rights for this resource.\"\r\n        // );\r\n        _;\r\n    }\r\n\r\n\r\n    /**  PROJECT INITIATOR  */\r\n\r\n    mapping(address => Project) public projects;\r\n    uint256 public projectsCounter = 0;\r\n    address[] public projectsAddress;\r\n\r\n    function createUniqueProjectAddress(string memory _name, uint256 _index) public view returns (address) {\r\n        return address(uint160(uint256(keccak256(abi.encodePacked(_name, msg.sender, _index)))));\r\n    }\r\n\r\n    function createProject(\r\n        address _projectAddress,\r\n        string memory _name,\r\n        uint256 _status,\r\n        string memory _ipfsFileCID,\r\n        string memory _signature\r\n    ) public onlyUserProject {\r\n        projects[_projectAddress] = Project(\r\n            projectsCounter,\r\n            _name,\r\n            ProjectStatus(_status),\r\n            _ipfsFileCID,\r\n            _projectAddress,\r\n            msg.sender,\r\n            address(0x0),\r\n            false,\r\n            block.timestamp,\r\n            _signature\r\n        );\r\n\r\n        emit ProjectEvent(projects[_projectAddress], _projectAddress, address(0x0));\r\n        projectsAddress.push(_projectAddress);\r\n        projectsCounter++;\r\n    }\r\n\r\n    function updateProject(\r\n        address _projectAddress,\r\n        string memory _ipfsFileCID,\r\n        string memory _signature\r\n    ) public onlyUserProject {\r\n        projects[_projectAddress]._ipfsFileCID = _ipfsFileCID;\r\n        projects[_projectAddress]._signature = _signature;\r\n\r\n        emit ProjectEvent(projects[_projectAddress], _projectAddress, address(0x0));\r\n    }\r\n\r\n    function getProjectInfo(address _address)\r\n        public\r\n        view\r\n        returns (Project memory)\r\n    {\r\n        //require(msg.sender != address(0x0), \"Address is not valid.\");\r\n        return projects[_address];\r\n    }\r\n/*\r\n    function getProjectsByUser(address _signerAddress) public view returns (Project[] memory) {\r\n        Project[] memory allProjects;\r\n        if (projectsCounter == 0) return allProjects;\r\n\r\n        allProjects = new Project[](projectsCounter);\r\n        for (uint256 index = 0; index < projectsCounter; index++) {\r\n            address _projectAddress = projectsAddress[index];\r\n            if (_signerAddress == projects[_projectAddress]._signerAddress) {\r\n                Project storage project = projects[_projectAddress];\r\n                allProjects[index] = project;\r\n            }\r\n        }\r\n        return allProjects;\r\n    }\r\n\r\n    function getProjectsByCompany(address _companyAddress) public view returns (Project[] memory) {\r\n        Project[] memory allProjects;\r\n        if (projectsCounter == 0) return allProjects;\r\n\r\n        allProjects = new Project[](projectsCounter);\r\n        for (uint256 index = 0; index < projectsCounter; index++) {\r\n            address _projectAddress = projectsAddress[index];\r\n            if (_companyAddress == projects[_projectAddress]._companyAddress) {\r\n                Project storage project = projects[_projectAddress];\r\n                allProjects[index] = project;\r\n            }\r\n        }\r\n        return allProjects;\r\n    }\r\n\r\n*/\r\n\r\n/*\r\n    function getAllProjects() public view returns (Project[] memory) {\r\n        Project[] memory allProjects;\r\n        if (projectsCounter == 0) return allProjects;\r\n\r\n        allProjects = new Project[](projectsCounter);\r\n        for (uint256 index = 0; index < projectsCounter; index++) {\r\n            address _projectAddress = projectsAddress[index];\r\n            Project storage project = projects[_projectAddress];\r\n            allProjects[index] = project;\r\n        }\r\n        return allProjects;\r\n    }\r\n*/\r\n\r\n    /**  Requests  */\r\n\r\n    mapping(address => Request) public requests;\r\n    uint256 public requestsCounter = 0;\r\n    address[] public requestsAddress;\r\n\r\n    function createUniqueRequestAddress(string memory _title, uint256 _index) public view returns (address) {\r\n        return address(uint160(uint256(keccak256(abi.encodePacked(_title, msg.sender, _index)))));\r\n    }\r\n\r\n    function createRequest(\r\n        string memory _title,\r\n        uint256 _projectStatus,\r\n        uint256 _requestStatus,\r\n        address _projectAddress,\r\n        address _requestAddress,\r\n        string memory _signature\r\n    ) public {\r\n        //require(projects[_projectAddress]._status == ProjectStatus.Created, \"Steps must follow accordingly\");\r\n        //require(ProjectStatus.ToApprove == RequestStatus.UnApproved, \"\");\r\n        //require(ProjectStatus.ToApprove == RequestStatus.Rejected, \"\");\r\n\r\n        RequestType _requestType;\r\n        if (ProjectStatus(_projectStatus) == ProjectStatus.StartProject) {\r\n            _requestType = RequestType.CompanyReq;\r\n        } else {\r\n            _requestType = RequestType.SupervisorReq;\r\n        }\r\n\r\n        requests[_requestAddress] = Request(\r\n            requestsCounter,\r\n            _title,\r\n            \"\",\r\n            ProjectStatus(_projectStatus),\r\n            RequestStatus(_requestStatus),\r\n            RequestType(_requestType),\r\n            _projectAddress,\r\n            _requestAddress,\r\n            msg.sender,\r\n            block.timestamp,\r\n            _signature\r\n        );\r\n\r\n        emit RequestEvent(requests[_requestAddress], _requestAddress, _projectAddress);\r\n        requestsAddress.push(_requestAddress);\r\n        requestsCounter++;\r\n    }\r\n\r\n    function updateRequest(\r\n        string memory _comments,\r\n        uint256 _requestStatus,\r\n        uint256 _projectStatus,\r\n        address _projectAddress,\r\n        address _requestAddress,\r\n        string memory _signature\r\n    ) public {\r\n        // Update Requests Mapping and Struct Array\r\n        requests[_requestAddress]._comments = _comments;\r\n        requests[_requestAddress]._requestStatus = RequestStatus(_requestStatus);\r\n        requests[_requestAddress]._signature = _signature;\r\n        emit RequestEvent(requests[_requestAddress], _requestAddress, _projectAddress);\r\n\r\n        // Update Project Mapping and Struct Array\r\n        if (RequestStatus.Approved == RequestStatus(_requestStatus)) {\r\n            projects[_projectAddress]._status = ProjectStatus(_projectStatus);\r\n            emit ProjectEvent(projects[_projectAddress], _projectAddress, address(0x0));\r\n        }\r\n    }\r\n\r\n/*\r\n    function getAllRequests() public view returns (Request[] memory) {\r\n        Request[] memory allRequests = new Request[](requestsCounter);\r\n        for (uint256 index = 0; index < requestsCounter; index++) {\r\n            address _requestAddress = requestsAddress[index];\r\n            Request storage request = requests[_requestAddress];\r\n            allRequests[index] = request;\r\n        }\r\n        return allRequests;\r\n    }\r\n\r\n    function getProjectRequests(address _projectAddress) public view returns (Request[] memory) {\r\n        Request[] memory allRequests;\r\n        for (uint256 index = 0; index < requestsCounter; index++) {\r\n            address _requestAddress = requestsAddress[index];\r\n            Request storage request = requests[_requestAddress];\r\n            if (_projectAddress == request._projectAddress) {\r\n                allRequests[index] = request;\r\n            }\r\n        }\r\n        return allRequests;\r\n    }\r\n*/\r\n\r\n    function getLastProjectRequest(address _projectAddress, address _requestAddress)\r\n        public view returns (Request memory)\r\n    {\r\n        Request memory request;\r\n        if (requestsCounter > 0) {\r\n            if (requests[_requestAddress]._projectAddress == _projectAddress) {\r\n                request = requests[_requestAddress];\r\n            }\r\n        }\r\n        return request;\r\n    }\r\n\r\n\r\n\r\n}\r\n",
  "sourcePath": "/mnt/c/Users/Beniamin/source/repos/DissertationProject/contracts/ProjectChain.sol",
  "compiler": {
    "name": "solc",
    "version": "0.8.10+commit.fc410830.Emscripten.clang"
  },
  "schemaVersion": "3.4.3",
  "updatedAt": "2021-12-11T18:46:58.801Z",
  "networkType": "ethereum",
  "devdoc": {
    "kind": "dev",
    "methods": {},
    "version": 1
  },
  "userdoc": {
    "kind": "user",
    "methods": {
      "projects(address)": {
        "notice": "PROJECT INITIATOR  "
      },
      "requests(address)": {
        "notice": "Requests  "
      }
    },
    "version": 1
  }
}