{
  "contractName": "Project",
  "abi": [
    {
      "inputs": [],
      "stateMutability": "nonpayable",
      "type": "constructor"
    },
    {
      "anonymous": false,
      "inputs": [
        {
          "indexed": false,
          "internalType": "uint256",
          "name": "_indexProject",
          "type": "uint256"
        },
        {
          "indexed": false,
          "internalType": "enum Project.ProjectStatus",
          "name": "_projectStatus",
          "type": "uint8"
        },
        {
          "indexed": false,
          "internalType": "address",
          "name": "_address",
          "type": "address"
        }
      ],
      "name": "CreateProject",
      "type": "event"
    },
    {
      "anonymous": false,
      "inputs": [
        {
          "indexed": false,
          "internalType": "uint256",
          "name": "_indexRequest",
          "type": "uint256"
        },
        {
          "indexed": false,
          "internalType": "enum Project.RequestStatus",
          "name": "_status",
          "type": "uint8"
        },
        {
          "components": [
            {
              "internalType": "uint256",
              "name": "index",
              "type": "uint256"
            },
            {
              "internalType": "bytes32",
              "name": "identifier",
              "type": "bytes32"
            },
            {
              "internalType": "string",
              "name": "description",
              "type": "string"
            },
            {
              "internalType": "enum Project.ProjectStatus",
              "name": "projectStatus",
              "type": "uint8"
            }
          ],
          "indexed": false,
          "internalType": "struct Project.S_Project",
          "name": "_project",
          "type": "tuple"
        },
        {
          "indexed": false,
          "internalType": "enum Project.ProjectStatus",
          "name": "_projectStatus",
          "type": "uint8"
        },
        {
          "indexed": false,
          "internalType": "address",
          "name": "_subjectAddress",
          "type": "address"
        }
      ],
      "name": "UpdateCompanyRequestStatus",
      "type": "event"
    },
    {
      "anonymous": false,
      "inputs": [
        {
          "indexed": false,
          "internalType": "uint256",
          "name": "_indexRequest",
          "type": "uint256"
        },
        {
          "indexed": false,
          "internalType": "enum Project.RequestStatus",
          "name": "_status",
          "type": "uint8"
        },
        {
          "components": [
            {
              "internalType": "uint256",
              "name": "index",
              "type": "uint256"
            },
            {
              "internalType": "bytes32",
              "name": "identifier",
              "type": "bytes32"
            },
            {
              "internalType": "string",
              "name": "description",
              "type": "string"
            },
            {
              "internalType": "enum Project.ProjectStatus",
              "name": "projectStatus",
              "type": "uint8"
            }
          ],
          "indexed": false,
          "internalType": "struct Project.S_Project",
          "name": "_project",
          "type": "tuple"
        },
        {
          "indexed": false,
          "internalType": "enum Project.ProjectStatus",
          "name": "_projectStatus",
          "type": "uint8"
        },
        {
          "indexed": false,
          "internalType": "address",
          "name": "_subjectAddress",
          "type": "address"
        }
      ],
      "name": "UpdateSupervisorRequestStatus",
      "type": "event"
    },
    {
      "anonymous": false,
      "inputs": [
        {
          "indexed": true,
          "internalType": "address",
          "name": "_address",
          "type": "address"
        },
        {
          "indexed": false,
          "internalType": "bytes32",
          "name": "_username",
          "type": "bytes32"
        }
      ],
      "name": "UserRegistered",
      "type": "event"
    },
    {
      "inputs": [
        {
          "internalType": "uint256",
          "name": "_role",
          "type": "uint256"
        },
        {
          "internalType": "address",
          "name": "_userAddress",
          "type": "address"
        }
      ],
      "name": "changeUserRole",
      "outputs": [
        {
          "internalType": "string",
          "name": "",
          "type": "string"
        }
      ],
      "stateMutability": "nonpayable",
      "type": "function"
    },
    {
      "inputs": [
        {
          "internalType": "uint256",
          "name": "",
          "type": "uint256"
        }
      ],
      "name": "companyRequests",
      "outputs": [
        {
          "internalType": "uint256",
          "name": "index",
          "type": "uint256"
        },
        {
          "internalType": "string",
          "name": "description",
          "type": "string"
        },
        {
          "internalType": "enum Project.RequestStatus",
          "name": "status",
          "type": "uint8"
        },
        {
          "components": [
            {
              "internalType": "uint256",
              "name": "index",
              "type": "uint256"
            },
            {
              "internalType": "bytes32",
              "name": "identifier",
              "type": "bytes32"
            },
            {
              "internalType": "string",
              "name": "description",
              "type": "string"
            },
            {
              "internalType": "enum Project.ProjectStatus",
              "name": "projectStatus",
              "type": "uint8"
            }
          ],
          "internalType": "struct Project.S_Project",
          "name": "project",
          "type": "tuple"
        },
        {
          "internalType": "address",
          "name": "subjectAddress",
          "type": "address"
        }
      ],
      "stateMutability": "view",
      "type": "function",
      "constant": true
    },
    {
      "inputs": [
        {
          "internalType": "address",
          "name": "_userAddress",
          "type": "address"
        }
      ],
      "name": "getUserInfo",
      "outputs": [
        {
          "components": [
            {
              "internalType": "bytes32",
              "name": "username",
              "type": "bytes32"
            },
            {
              "internalType": "enum User.Roles",
              "name": "role",
              "type": "uint8"
            },
            {
              "internalType": "address",
              "name": "userAddress",
              "type": "address"
            }
          ],
          "internalType": "struct User.S_UserData",
          "name": "",
          "type": "tuple"
        }
      ],
      "stateMutability": "view",
      "type": "function",
      "constant": true
    },
    {
      "inputs": [],
      "name": "owner",
      "outputs": [
        {
          "internalType": "address",
          "name": "",
          "type": "address"
        }
      ],
      "stateMutability": "view",
      "type": "function",
      "constant": true
    },
    {
      "inputs": [
        {
          "internalType": "uint256",
          "name": "",
          "type": "uint256"
        }
      ],
      "name": "projects",
      "outputs": [
        {
          "internalType": "uint256",
          "name": "index",
          "type": "uint256"
        },
        {
          "internalType": "bytes32",
          "name": "identifier",
          "type": "bytes32"
        },
        {
          "internalType": "string",
          "name": "description",
          "type": "string"
        },
        {
          "internalType": "enum Project.ProjectStatus",
          "name": "projectStatus",
          "type": "uint8"
        }
      ],
      "stateMutability": "view",
      "type": "function",
      "constant": true
    },
    {
      "inputs": [
        {
          "internalType": "bytes32",
          "name": "_username",
          "type": "bytes32"
        },
        {
          "internalType": "uint256",
          "name": "_role",
          "type": "uint256"
        },
        {
          "internalType": "address",
          "name": "_userAddress",
          "type": "address"
        }
      ],
      "name": "registerUser",
      "outputs": [],
      "stateMutability": "nonpayable",
      "type": "function"
    },
    {
      "inputs": [
        {
          "internalType": "uint256",
          "name": "",
          "type": "uint256"
        }
      ],
      "name": "supervisorRequests",
      "outputs": [
        {
          "internalType": "uint256",
          "name": "index",
          "type": "uint256"
        },
        {
          "internalType": "string",
          "name": "description",
          "type": "string"
        },
        {
          "internalType": "enum Project.RequestStatus",
          "name": "status",
          "type": "uint8"
        },
        {
          "components": [
            {
              "internalType": "uint256",
              "name": "index",
              "type": "uint256"
            },
            {
              "internalType": "bytes32",
              "name": "identifier",
              "type": "bytes32"
            },
            {
              "internalType": "string",
              "name": "description",
              "type": "string"
            },
            {
              "internalType": "enum Project.ProjectStatus",
              "name": "projectStatus",
              "type": "uint8"
            }
          ],
          "internalType": "struct Project.S_Project",
          "name": "project",
          "type": "tuple"
        },
        {
          "internalType": "address",
          "name": "subjectAddress",
          "type": "address"
        }
      ],
      "stateMutability": "view",
      "type": "function",
      "constant": true
    },
    {
      "inputs": [
        {
          "internalType": "address",
          "name": "",
          "type": "address"
        }
      ],
      "name": "userInfo",
      "outputs": [
        {
          "internalType": "bytes32",
          "name": "username",
          "type": "bytes32"
        },
        {
          "internalType": "enum User.Roles",
          "name": "role",
          "type": "uint8"
        },
        {
          "internalType": "address",
          "name": "userAddress",
          "type": "address"
        }
      ],
      "stateMutability": "view",
      "type": "function",
      "constant": true
    },
    {
      "inputs": [
        {
          "internalType": "uint256",
          "name": "_index",
          "type": "uint256"
        },
        {
          "internalType": "string",
          "name": "_description",
          "type": "string"
        },
        {
          "internalType": "enum Project.ProjectStatus",
          "name": "_status",
          "type": "uint8"
        },
        {
          "internalType": "string",
          "name": "_hashStringValue",
          "type": "string"
        }
      ],
      "name": "createProject",
      "outputs": [],
      "stateMutability": "nonpayable",
      "type": "function"
    },
    {
      "inputs": [
        {
          "internalType": "string",
          "name": "_text",
          "type": "string"
        },
        {
          "internalType": "address",
          "name": "_addr",
          "type": "address"
        }
      ],
      "name": "createUniqueIdentifier",
      "outputs": [
        {
          "internalType": "bytes32",
          "name": "",
          "type": "bytes32"
        }
      ],
      "stateMutability": "pure",
      "type": "function",
      "constant": true
    },
    {
      "inputs": [
        {
          "internalType": "string",
          "name": "_description",
          "type": "string"
        },
        {
          "components": [
            {
              "internalType": "uint256",
              "name": "index",
              "type": "uint256"
            },
            {
              "internalType": "bytes32",
              "name": "identifier",
              "type": "bytes32"
            },
            {
              "internalType": "string",
              "name": "description",
              "type": "string"
            },
            {
              "internalType": "enum Project.ProjectStatus",
              "name": "projectStatus",
              "type": "uint8"
            }
          ],
          "internalType": "struct Project.S_Project",
          "name": "_project",
          "type": "tuple"
        },
        {
          "internalType": "address",
          "name": "_subjectAddress",
          "type": "address"
        }
      ],
      "name": "requestProjectApprovalFromSupervisor",
      "outputs": [],
      "stateMutability": "nonpayable",
      "type": "function"
    },
    {
      "inputs": [
        {
          "internalType": "string",
          "name": "_description",
          "type": "string"
        },
        {
          "components": [
            {
              "internalType": "uint256",
              "name": "index",
              "type": "uint256"
            },
            {
              "internalType": "bytes32",
              "name": "identifier",
              "type": "bytes32"
            },
            {
              "internalType": "string",
              "name": "description",
              "type": "string"
            },
            {
              "internalType": "enum Project.ProjectStatus",
              "name": "projectStatus",
              "type": "uint8"
            }
          ],
          "internalType": "struct Project.S_Project",
          "name": "_project",
          "type": "tuple"
        },
        {
          "internalType": "address",
          "name": "_subjectAddress",
          "type": "address"
        }
      ],
      "name": "requestProjectCompleteFromSupervisor",
      "outputs": [],
      "stateMutability": "nonpayable",
      "type": "function"
    },
    {
      "inputs": [
        {
          "internalType": "string",
          "name": "_description",
          "type": "string"
        },
        {
          "components": [
            {
              "internalType": "uint256",
              "name": "index",
              "type": "uint256"
            },
            {
              "internalType": "bytes32",
              "name": "identifier",
              "type": "bytes32"
            },
            {
              "internalType": "string",
              "name": "description",
              "type": "string"
            },
            {
              "internalType": "enum Project.ProjectStatus",
              "name": "projectStatus",
              "type": "uint8"
            }
          ],
          "internalType": "struct Project.S_Project",
          "name": "_project",
          "type": "tuple"
        },
        {
          "internalType": "address",
          "name": "_subjectAddress",
          "type": "address"
        }
      ],
      "name": "requestStartProjectToCompanyBuilder",
      "outputs": [],
      "stateMutability": "nonpayable",
      "type": "function"
    }
  ],
  "bytecode": "0x608060405234801561001057600080fd5b5033600160006101000a81548173ffffffffffffffffffffffffffffffffffffffff021916908373ffffffffffffffffffffffffffffffffffffffff16021790555033600260006101000a81548173ffffffffffffffffffffffffffffffffffffffff021916908373ffffffffffffffffffffffffffffffffffffffff160217905550612953806100a26000396000f3fe608060405234801561001057600080fd5b50600436106100cf5760003560e01c80638c86a1d71161008c578063afb6da0e11610066578063afb6da0e14610253578063b51255991461026f578063d3bca1d51461028b578063d40d4a80146102a7576100cf565b80638c86a1d7146101d15780638da5cb5b146102055780639100978614610223576100cf565b8063065ea2d3146100d4578063107046bd146100f05780631959a002146101235780635502fc65146101555780636132844f146101715780636386c1c7146101a1575b600080fd5b6100ee60048036038101906100e99190611bcf565b6102db565b005b61010a60048036038101906101059190611c6e565b610555565b60405161011a9493929190611dc2565b60405180910390f35b61013d60048036038101906101389190611e6c565b61061a565b60405161014c93929190611ef0565b60405180910390f35b61016f600480360381019061016a9190611ff1565b610671565b005b61018b6004803603810190610186919061207c565b6109b2565b60405161019891906120d8565b60405180910390f35b6101bb60048036038101906101b69190611e6c565b6109e5565b6040516101c89190612162565b60405180910390f35b6101eb60048036038101906101e69190611c6e565b610b68565b6040516101fc959493929190612290565b60405180910390f35b61020d610d3e565b60405161021a91906122f1565b60405180910390f35b61023d6004803603810190610238919061230c565b610d64565b60405161024a919061234c565b60405180910390f35b61026d60048036038101906102689190611ff1565b610eaf565b005b61028960048036038101906102849190611ff1565b6111f0565b005b6102a560048036038101906102a0919061236e565b611531565b005b6102c160048036038101906102bc9190611c6e565b611755565b6040516102d2959493929190612290565b60405180910390f35b600160038111156102ef576102ee611d4b565b5b600080600260009054906101000a900473ffffffffffffffffffffffffffffffffffffffff1673ffffffffffffffffffffffffffffffffffffffff1673ffffffffffffffffffffffffffffffffffffffff16815260200190815260200160002060010160009054906101000a900460ff16600381111561037257610371611d4b565b5b146103b2576040517f08c379a00000000000000000000000000000000000000000000000000000000081526004016103a990612433565b60405180910390fd5b3373ffffffffffffffffffffffffffffffffffffffff16600260009054906101000a900473ffffffffffffffffffffffffffffffffffffffff1673ffffffffffffffffffffffffffffffffffffffff1614610442576040517f08c379a00000000000000000000000000000000000000000000000000000000081526004016104399061249f565b60405180910390fd5b600061044f8260006109b2565b9050846003600060065481526020019081526020016000206000018190555080600360006006548152602001908152602001600020600101819055508360036000600654815260200190815260200160002060020190805190602001906104b792919061192b565b508260036000600654815260200190815260200160002060030160006101000a81548160ff021916908360058111156104f3576104f2611d4b565b5b02179055507fa33c40728c332bcc45ac23baebf405684a95db2bcea19967f32f1c59384c0e8860065460008060405161052e939291906124bf565b60405180910390a16006600081548092919061054990612525565b91905055505050505050565b60036020528060005260406000206000915090508060000154908060010154908060020180546105849061259d565b80601f01602080910402602001604051908101604052809291908181526020018280546105b09061259d565b80156105fd5780601f106105d2576101008083540402835291602001916105fd565b820191906000526020600020905b8154815290600101906020018083116105e057829003601f168201915b5050505050908060030160009054906101000a900460ff16905084565b60006020528060005260406000206000915090508060000154908060010160009054906101000a900460ff16908060010160019054906101000a900473ffffffffffffffffffffffffffffffffffffffff16905083565b6001600381111561068557610684611d4b565b5b600080600260009054906101000a900473ffffffffffffffffffffffffffffffffffffffff1673ffffffffffffffffffffffffffffffffffffffff1673ffffffffffffffffffffffffffffffffffffffff16815260200190815260200160002060010160009054906101000a900460ff16600381111561070857610707611d4b565b5b14610748576040517f08c379a000000000000000000000000000000000000000000000000000000000815260040161073f90612433565b60405180910390fd5b3373ffffffffffffffffffffffffffffffffffffffff16600260009054906101000a900473ffffffffffffffffffffffffffffffffffffffff1673ffffffffffffffffffffffffffffffffffffffff16146107d8576040517f08c379a00000000000000000000000000000000000000000000000000000000081526004016107cf9061249f565b60405180910390fd5b600160058111156107ec576107eb611d4b565b5b8260600151600581111561080357610802611d4b565b5b14610843576040517f08c379a000000000000000000000000000000000000000000000000000000000815260040161083a90612641565b60405180910390fd5b600060046000600754815260200190815260200160002090508381600101908051906020019061087492919061192b565b5060008160020160006101000a81548160ff0219169083600181111561089d5761089c611d4b565b5b02179055508281600301600082015181600001556020820151816001015560408201518160020190805190602001906108d792919061192b565b5060608201518160030160006101000a81548160ff0219169083600581111561090357610902611d4b565b5b0217905550905050818160070160006101000a81548173ffffffffffffffffffffffffffffffffffffffff021916908373ffffffffffffffffffffffffffffffffffffffff1602179055507f7404f36b7a730bc20c8cc7e0e75c80d8d9af6bc8bca29829d01437c8f27e641560075460008586606001518660405161098c959493929190612661565b60405180910390a1600760008154809291906109a790612525565b919050555050505050565b600082826040516020016109c792919061273f565b60405160208183030381529060405280519060200120905092915050565b6109ed6119b1565b3373ffffffffffffffffffffffffffffffffffffffff16600160009054906101000a900473ffffffffffffffffffffffffffffffffffffffff1673ffffffffffffffffffffffffffffffffffffffff1614610a7d576040517f08c379a0000000000000000000000000000000000000000000000000000000008152600401610a74906127b3565b60405180910390fd5b6000808373ffffffffffffffffffffffffffffffffffffffff1673ffffffffffffffffffffffffffffffffffffffff168152602001908152602001600020604051806060016040529081600082015481526020016001820160009054906101000a900460ff166003811115610af557610af4611d4b565b5b6003811115610b0757610b06611d4b565b5b81526020016001820160019054906101000a900473ffffffffffffffffffffffffffffffffffffffff1673ffffffffffffffffffffffffffffffffffffffff1673ffffffffffffffffffffffffffffffffffffffff16815250509050919050565b6005602052806000526040600020600091509050806000015490806001018054610b919061259d565b80601f0160208091040260200160405190810160405280929190818152602001828054610bbd9061259d565b8015610c0a5780601f10610bdf57610100808354040283529160200191610c0a565b820191906000526020600020905b815481529060010190602001808311610bed57829003601f168201915b5050505050908060020160009054906101000a900460ff1690806003016040518060800160405290816000820154815260200160018201548152602001600282018054610c569061259d565b80601f0160208091040260200160405190810160405280929190818152602001828054610c829061259d565b8015610ccf5780601f10610ca457610100808354040283529160200191610ccf565b820191906000526020600020905b815481529060010190602001808311610cb257829003601f168201915b505050505081526020016003820160009054906101000a900460ff166005811115610cfd57610cfc611d4b565b5b6005811115610d0f57610d0e611d4b565b5b81525050908060070160009054906101000a900473ffffffffffffffffffffffffffffffffffffffff16905085565b600160009054906101000a900473ffffffffffffffffffffffffffffffffffffffff1681565b60603373ffffffffffffffffffffffffffffffffffffffff16600160009054906101000a900473ffffffffffffffffffffffffffffffffffffffff1673ffffffffffffffffffffffffffffffffffffffff1614610df6576040517f08c379a0000000000000000000000000000000000000000000000000000000008152600401610ded906127b3565b60405180910390fd5b826003811115610e0957610e08611d4b565b5b6000808473ffffffffffffffffffffffffffffffffffffffff1673ffffffffffffffffffffffffffffffffffffffff16815260200190815260200160002060010160006101000a81548160ff02191690836003811115610e6c57610e6b611d4b565b5b02179055506040518060400160405280600d81526020017f526f6c6520557064617465642100000000000000000000000000000000000000815250905092915050565b60016003811115610ec357610ec2611d4b565b5b600080600260009054906101000a900473ffffffffffffffffffffffffffffffffffffffff1673ffffffffffffffffffffffffffffffffffffffff1673ffffffffffffffffffffffffffffffffffffffff16815260200190815260200160002060010160009054906101000a900460ff166003811115610f4657610f45611d4b565b5b14610f86576040517f08c379a0000000000000000000000000000000000000000000000000000000008152600401610f7d90612433565b60405180910390fd5b3373ffffffffffffffffffffffffffffffffffffffff16600260009054906101000a900473ffffffffffffffffffffffffffffffffffffffff1673ffffffffffffffffffffffffffffffffffffffff1614611016576040517f08c379a000000000000000000000000000000000000000000000000000000000815260040161100d9061249f565b60405180910390fd5b6000600581111561102a57611029611d4b565b5b8260600151600581111561104157611040611d4b565b5b14611081576040517f08c379a000000000000000000000000000000000000000000000000000000000815260040161107890612845565b60405180910390fd5b60006005600060085481526020019081526020016000209050838160010190805190602001906110b292919061192b565b5060008160020160006101000a81548160ff021916908360018111156110db576110da611d4b565b5b021790555082816003016000820151816000015560208201518160010155604082015181600201908051906020019061111592919061192b565b5060608201518160030160006101000a81548160ff0219169083600581111561114157611140611d4b565b5b0217905550905050818160070160006101000a81548173ffffffffffffffffffffffffffffffffffffffff021916908373ffffffffffffffffffffffffffffffffffffffff1602179055507fea116f66bfca993e06ec3531e54d6fdd056bed479a873a351b5ff4c23124595b6008546000858660600151866040516111ca959493929190612661565b60405180910390a1600860008154809291906111e590612525565b919050555050505050565b6001600381111561120457611203611d4b565b5b600080600260009054906101000a900473ffffffffffffffffffffffffffffffffffffffff1673ffffffffffffffffffffffffffffffffffffffff1673ffffffffffffffffffffffffffffffffffffffff16815260200190815260200160002060010160009054906101000a900460ff16600381111561128757611286611d4b565b5b146112c7576040517f08c379a00000000000000000000000000000000000000000000000000000000081526004016112be90612433565b60405180910390fd5b3373ffffffffffffffffffffffffffffffffffffffff16600260009054906101000a900473ffffffffffffffffffffffffffffffffffffffff1673ffffffffffffffffffffffffffffffffffffffff1614611357576040517f08c379a000000000000000000000000000000000000000000000000000000000815260040161134e9061249f565b60405180910390fd5b6004600581111561136b5761136a611d4b565b5b8260600151600581111561138257611381611d4b565b5b146113c2576040517f08c379a00000000000000000000000000000000000000000000000000000000081526004016113b9906128fd565b60405180910390fd5b60006005600060085481526020019081526020016000209050838160010190805190602001906113f392919061192b565b5060008160020160006101000a81548160ff0219169083600181111561141c5761141b611d4b565b5b021790555082816003016000820151816000015560208201518160010155604082015181600201908051906020019061145692919061192b565b5060608201518160030160006101000a81548160ff0219169083600581111561148257611481611d4b565b5b0217905550905050818160070160006101000a81548173ffffffffffffffffffffffffffffffffffffffff021916908373ffffffffffffffffffffffffffffffffffffffff1602179055507fea116f66bfca993e06ec3531e54d6fdd056bed479a873a351b5ff4c23124595b60085460008586606001518660405161150b959493929190612661565b60405180910390a16008600081548092919061152690612525565b919050555050505050565b3373ffffffffffffffffffffffffffffffffffffffff16600160009054906101000a900473ffffffffffffffffffffffffffffffffffffffff1673ffffffffffffffffffffffffffffffffffffffff16146115c1576040517f08c379a00000000000000000000000000000000000000000000000000000000081526004016115b8906127b3565b60405180910390fd5b826000808373ffffffffffffffffffffffffffffffffffffffff1673ffffffffffffffffffffffffffffffffffffffff1681526020019081526020016000206000018190555081600381111561161a57611619611d4b565b5b6000808373ffffffffffffffffffffffffffffffffffffffff1673ffffffffffffffffffffffffffffffffffffffff16815260200190815260200160002060010160006101000a81548160ff0219169083600381111561167d5761167c611d4b565b5b0217905550806000808373ffffffffffffffffffffffffffffffffffffffff1673ffffffffffffffffffffffffffffffffffffffff16815260200190815260200160002060010160016101000a81548173ffffffffffffffffffffffffffffffffffffffff021916908373ffffffffffffffffffffffffffffffffffffffff1602179055508073ffffffffffffffffffffffffffffffffffffffff167f4c5d15f5779ae1ecd7d55bd3283d898e29c35743d172bd7b83a16e17bc0afe2a8460405161174891906120d8565b60405180910390a2505050565b600460205280600052604060002060009150905080600001549080600101805461177e9061259d565b80601f01602080910402602001604051908101604052809291908181526020018280546117aa9061259d565b80156117f75780601f106117cc576101008083540402835291602001916117f7565b820191906000526020600020905b8154815290600101906020018083116117da57829003601f168201915b5050505050908060020160009054906101000a900460ff16908060030160405180608001604052908160008201548152602001600182015481526020016002820180546118439061259d565b80601f016020809104026020016040519081016040528092919081815260200182805461186f9061259d565b80156118bc5780601f10611891576101008083540402835291602001916118bc565b820191906000526020600020905b81548152906001019060200180831161189f57829003601f168201915b505050505081526020016003820160009054906101000a900460ff1660058111156118ea576118e9611d4b565b5b60058111156118fc576118fb611d4b565b5b81525050908060070160009054906101000a900473ffffffffffffffffffffffffffffffffffffffff16905085565b8280546119379061259d565b90600052602060002090601f01602090048101928261195957600085556119a0565b82601f1061197257805160ff19168380011785556119a0565b828001600101855582156119a0579182015b8281111561199f578251825591602001919060010190611984565b5b5090506119ad91906119fd565b5090565b604051806060016040528060008019168152602001600060038111156119da576119d9611d4b565b5b8152602001600073ffffffffffffffffffffffffffffffffffffffff1681525090565b5b80821115611a165760008160009055506001016119fe565b5090565b6000604051905090565b600080fd5b600080fd5b6000819050919050565b611a4181611a2e565b8114611a4c57600080fd5b50565b600081359050611a5e81611a38565b92915050565b600080fd5b600080fd5b6000601f19601f8301169050919050565b7f4e487b7100000000000000000000000000000000000000000000000000000000600052604160045260246000fd5b611ab782611a6e565b810181811067ffffffffffffffff82111715611ad657611ad5611a7f565b5b80604052505050565b6000611ae9611a1a565b9050611af58282611aae565b919050565b600067ffffffffffffffff821115611b1557611b14611a7f565b5b611b1e82611a6e565b9050602081019050919050565b82818337600083830152505050565b6000611b4d611b4884611afa565b611adf565b905082815260208101848484011115611b6957611b68611a69565b5b611b74848285611b2b565b509392505050565b600082601f830112611b9157611b90611a64565b5b8135611ba1848260208601611b3a565b91505092915050565b60068110611bb757600080fd5b50565b600081359050611bc981611baa565b92915050565b60008060008060808587031215611be957611be8611a24565b5b6000611bf787828801611a4f565b945050602085013567ffffffffffffffff811115611c1857611c17611a29565b5b611c2487828801611b7c565b9350506040611c3587828801611bba565b925050606085013567ffffffffffffffff811115611c5657611c55611a29565b5b611c6287828801611b7c565b91505092959194509250565b600060208284031215611c8457611c83611a24565b5b6000611c9284828501611a4f565b91505092915050565b611ca481611a2e565b82525050565b6000819050919050565b611cbd81611caa565b82525050565b600081519050919050565b600082825260208201905092915050565b60005b83811015611cfd578082015181840152602081019050611ce2565b83811115611d0c576000848401525b50505050565b6000611d1d82611cc3565b611d278185611cce565b9350611d37818560208601611cdf565b611d4081611a6e565b840191505092915050565b7f4e487b7100000000000000000000000000000000000000000000000000000000600052602160045260246000fd5b60068110611d8b57611d8a611d4b565b5b50565b6000819050611d9c82611d7a565b919050565b6000611dac82611d8e565b9050919050565b611dbc81611da1565b82525050565b6000608082019050611dd76000830187611c9b565b611de46020830186611cb4565b8181036040830152611df68185611d12565b9050611e056060830184611db3565b95945050505050565b600073ffffffffffffffffffffffffffffffffffffffff82169050919050565b6000611e3982611e0e565b9050919050565b611e4981611e2e565b8114611e5457600080fd5b50565b600081359050611e6681611e40565b92915050565b600060208284031215611e8257611e81611a24565b5b6000611e9084828501611e57565b91505092915050565b60048110611eaa57611ea9611d4b565b5b50565b6000819050611ebb82611e99565b919050565b6000611ecb82611ead565b9050919050565b611edb81611ec0565b82525050565b611eea81611e2e565b82525050565b6000606082019050611f056000830186611cb4565b611f126020830185611ed2565b611f1f6040830184611ee1565b949350505050565b600080fd5b600080fd5b611f3a81611caa565b8114611f4557600080fd5b50565b600081359050611f5781611f31565b92915050565b600060808284031215611f7357611f72611f27565b5b611f7d6080611adf565b90506000611f8d84828501611a4f565b6000830152506020611fa184828501611f48565b602083015250604082013567ffffffffffffffff811115611fc557611fc4611f2c565b5b611fd184828501611b7c565b6040830152506060611fe584828501611bba565b60608301525092915050565b60008060006060848603121561200a57612009611a24565b5b600084013567ffffffffffffffff81111561202857612027611a29565b5b61203486828701611b7c565b935050602084013567ffffffffffffffff81111561205557612054611a29565b5b61206186828701611f5d565b925050604061207286828701611e57565b9150509250925092565b6000806040838503121561209357612092611a24565b5b600083013567ffffffffffffffff8111156120b1576120b0611a29565b5b6120bd85828601611b7c565b92505060206120ce85828601611e57565b9150509250929050565b60006020820190506120ed6000830184611cb4565b92915050565b6120fc81611caa565b82525050565b61210b81611ec0565b82525050565b61211a81611e2e565b82525050565b60608201600082015161213660008501826120f3565b5060208201516121496020850182612102565b50604082015161215c6040850182612111565b50505050565b60006060820190506121776000830184612120565b92915050565b6002811061218e5761218d611d4b565b5b50565b600081905061219f8261217d565b919050565b60006121af82612191565b9050919050565b6121bf816121a4565b82525050565b6121ce81611a2e565b82525050565b600082825260208201905092915050565b60006121f082611cc3565b6121fa81856121d4565b935061220a818560208601611cdf565b61221381611a6e565b840191505092915050565b61222781611da1565b82525050565b600060808301600083015161224560008601826121c5565b50602083015161225860208601826120f3565b506040830151848203604086015261227082826121e5565b9150506060830151612285606086018261221e565b508091505092915050565b600060a0820190506122a56000830188611c9b565b81810360208301526122b78187611d12565b90506122c660408301866121b6565b81810360608301526122d8818561222d565b90506122e76080830184611ee1565b9695505050505050565b60006020820190506123066000830184611ee1565b92915050565b6000806040838503121561232357612322611a24565b5b600061233185828601611a4f565b925050602061234285828601611e57565b9150509250929050565b600060208201905081810360008301526123668184611d12565b905092915050565b60008060006060848603121561238757612386611a24565b5b600061239586828701611f48565b93505060206123a686828701611a4f565b92505060406123b786828701611e57565b9150509250925092565b7f596f7520646f6e27742068617665207468652072696768747320666f7220746860008201527f6973207265736f75726365732e00000000000000000000000000000000000000602082015250565b600061241d602d83611cce565b9150612428826123c1565b604082019050919050565b6000602082019050818103600083015261244c81612410565b9050919050565b7f596f7520617265206e6f7420612070726f6a65637420696e69746961746f7200600082015250565b6000612489601f83611cce565b915061249482612453565b602082019050919050565b600060208201905081810360008301526124b88161247c565b9050919050565b60006060820190506124d46000830186611c9b565b6124e16020830185611db3565b6124ee6040830184611ee1565b949350505050565b7f4e487b7100000000000000000000000000000000000000000000000000000000600052601160045260246000fd5b600061253082611a2e565b91507fffffffffffffffffffffffffffffffffffffffffffffffffffffffffffffffff821415612563576125626124f6565b5b600182019050919050565b7f4e487b7100000000000000000000000000000000000000000000000000000000600052602260045260246000fd5b600060028204905060018216806125b557607f821691505b602082108114156125c9576125c861256e565b5b50919050565b7f5468652070726f6a656374206973206e6f7420617070726f7665642c2074686560008201527f206f7065726174696f6e2063616e6e6f7420626520646f6e652e000000000000602082015250565b600061262b603a83611cce565b9150612636826125cf565b604082019050919050565b6000602082019050818103600083015261265a8161261e565b9050919050565b600060a0820190506126766000830188611c9b565b61268360208301876121b6565b8181036040830152612695818661222d565b90506126a46060830185611db3565b6126b16080830184611ee1565b9695505050505050565b600081905092915050565b60006126d182611cc3565b6126db81856126bb565b93506126eb818560208601611cdf565b80840191505092915050565b60008160601b9050919050565b600061270f826126f7565b9050919050565b600061272182612704565b9050919050565b61273961273482611e2e565b612716565b82525050565b600061274b82856126c6565b91506127578284612728565b6014820191508190509392505050565b7f596f7520617265206e6f7420616e206f776e6572000000000000000000000000600082015250565b600061279d601483611cce565b91506127a882612767565b602082019050919050565b600060208201905081810360008301526127cc81612790565b9050919050565b7f5468652070726f6a656374206973206e6f7420637265617465642c207468652060008201527f6f7065726174696f6e2063616e6e6f7420626520646f6e652e00000000000000602082015250565b600061282f603983611cce565b915061283a826127d3565b604082019050919050565b6000602082019050818103600083015261285e81612822565b9050919050565b7f5468652070726f6a656374206973206e6f7420696e2074686520274265666f7260008201527f6546696e616c697a6174696f6e436865636b27207374617475732c207468652060208201527f6f7065726174696f6e2063616e6e6f7420626520646f6e652e00000000000000604082015250565b60006128e7605983611cce565b91506128f282612865565b606082019050919050565b60006020820190508181036000830152612916816128da565b905091905056fea2646970667358221220519c4dfc7457df6dc4d47a8df73867bb9dfa13e7aab47c20c902944be483eb2864736f6c63430008090033",
  "immutableReferences": {},
  "source": "// SPDX-License-Identifier: MIT\r\npragma solidity >=0.8.0 <0.9.0;\r\n\r\nimport \"./User.sol\";\r\n\r\ncontract Project is User {\r\n\r\n    address projectInitiator;\r\n\r\n    mapping(uint => S_Project) public projects;\r\n    mapping(uint => S_Request) public companyRequests;\r\n    mapping(uint => S_Request) public supervisorRequests;\r\n\r\n    uint indexProject;\r\n    uint indexCompanyRequest;\r\n    uint indexSupervisorRequest;\r\n\r\n    struct S_Project {\r\n        uint index;\r\n        bytes32 identifier;\r\n        string description;\r\n        ProjectStatus projectStatus;\r\n    }\r\n\r\n    struct S_Request {\r\n        uint index;\r\n        string description;\r\n        RequestStatus status;\r\n        S_Project project;\r\n        address subjectAddress;\r\n    }\r\n\r\n    enum RequestStatus { Unverified, Verified }\r\n    enum ProjectStatus { Created, Approved, Rejected, OnGoing, BeforeFinalizationCheck, Completed }\r\n\r\n    event CreateProject(uint _indexProject, Project.ProjectStatus _projectStatus, address _address);\r\n    event UpdateSupervisorRequestStatus(uint _indexRequest, RequestStatus _status, S_Project _project, ProjectStatus _projectStatus, address _subjectAddress);\r\n    event UpdateCompanyRequestStatus(uint _indexRequest, RequestStatus _status, S_Project _project, ProjectStatus _projectStatus, address _subjectAddress);\r\n\r\n    constructor() {\r\n        projectInitiator = msg.sender;\r\n    }\r\n\r\n    modifier onlyProjectInitiator {\r\n        require(userInfo[projectInitiator].role == Roles.ProjectInitiator, \"You don't have the rights for this resources.\");\r\n        require(projectInitiator == msg.sender, \"You are not a project initiator\");\r\n        _;\r\n    }\r\n\r\n    function createProject(uint _index, string memory _description, ProjectStatus _status, string memory _hashStringValue) public onlyProjectInitiator {\r\n        bytes32 _identifier = createUniqueIdentifier(_hashStringValue, address(0));\r\n\r\n        projects[indexProject].index = _index;\r\n        projects[indexProject].identifier = _identifier;\r\n        projects[indexProject].description = _description;\r\n        projects[indexProject].projectStatus = _status;\r\n        emit CreateProject(indexProject, ProjectStatus.Created, address(0));\r\n        indexProject++;\r\n    }\r\n\r\n    function createUniqueIdentifier(string memory _text, address _addr) public pure returns (bytes32)  {\r\n        return keccak256(abi.encodePacked(_text, _addr));\r\n    }\r\n\r\n    function requestProjectApprovalFromSupervisor(string memory _description, S_Project memory _project, address _subjectAddress) public onlyProjectInitiator {\r\n        require(_project.projectStatus == ProjectStatus.Created, \"The project is not created, the operation cannot be done.\");\r\n\r\n        S_Request storage request = supervisorRequests[indexSupervisorRequest];\r\n        request.description = _description;\r\n        request.status = RequestStatus.Unverified;\r\n        request.project = _project;\r\n        request.subjectAddress = _subjectAddress;\r\n\r\n        emit UpdateSupervisorRequestStatus(indexSupervisorRequest, RequestStatus.Unverified, _project, _project.projectStatus, _subjectAddress);\r\n        indexSupervisorRequest++;\r\n    }\r\n\r\n    function requestProjectCompleteFromSupervisor(string memory _description, S_Project memory _project, address _subjectAddress) public onlyProjectInitiator {\r\n        require(\r\n            _project.projectStatus == ProjectStatus.BeforeFinalizationCheck,\r\n            \"The project is not in the 'BeforeFinalizationCheck' status, the operation cannot be done.\"\r\n        );\r\n\r\n        S_Request storage request = supervisorRequests[indexSupervisorRequest];\r\n        request.description = _description;\r\n        request.status = RequestStatus.Unverified;\r\n        request.project = _project;\r\n        request.subjectAddress = _subjectAddress;\r\n\r\n        emit UpdateSupervisorRequestStatus(indexSupervisorRequest, RequestStatus.Unverified, _project, _project.projectStatus, _subjectAddress);\r\n        indexSupervisorRequest++;\r\n    }\r\n\r\n    function requestStartProjectToCompanyBuilder(string memory _description, S_Project memory _project, address _subjectAddress) public onlyProjectInitiator {\r\n        require(_project.projectStatus == ProjectStatus.Approved, \"The project is not approved, the operation cannot be done.\");\r\n\r\n        S_Request storage request = companyRequests[indexCompanyRequest];\r\n        request.description = _description;\r\n        request.status = RequestStatus.Unverified;\r\n        request.project = _project;\r\n        request.subjectAddress = _subjectAddress;\r\n\r\n        emit UpdateCompanyRequestStatus(indexCompanyRequest, RequestStatus.Unverified, _project, _project.projectStatus, _subjectAddress);\r\n        indexCompanyRequest++;\r\n    }\r\n}",
  "sourcePath": "/mnt/c/users/beniamin/source/repos/dissertationproject/contracts/Project.sol",
  "compiler": {
    "name": "solc",
    "version": "0.8.9+commit.e5eed63a.Emscripten.clang"
  },
  "schemaVersion": "3.4.3",
  "updatedAt": "2021-10-25T08:30:20.296Z",
  "networkType": "ethereum",
  "devdoc": {
    "kind": "dev",
    "methods": {},
    "version": 1
  },
  "userdoc": {
    "kind": "user",
    "methods": {},
    "version": 1
  }
}