{
  "contractName": "ProjectChain",
  "abi": [
    {
      "inputs": [],
      "stateMutability": "nonpayable",
      "type": "constructor"
    },
    {
      "anonymous": false,
      "inputs": [
        {
          "components": [
            {
              "internalType": "uint256",
              "name": "_index",
              "type": "uint256"
            },
            {
              "internalType": "string",
              "name": "_name",
              "type": "string"
            },
            {
              "internalType": "enum SharedChain.ProjectStatus",
              "name": "_status",
              "type": "uint8"
            },
            {
              "internalType": "string",
              "name": "_ipfsFileCID",
              "type": "string"
            },
            {
              "internalType": "address",
              "name": "_projectAddress",
              "type": "address"
            },
            {
              "internalType": "address",
              "name": "_signerAddress",
              "type": "address"
            },
            {
              "internalType": "address",
              "name": "_companyAddress",
              "type": "address"
            },
            {
              "internalType": "bool",
              "name": "_assigned",
              "type": "bool"
            },
            {
              "internalType": "uint256",
              "name": "_timestamp",
              "type": "uint256"
            },
            {
              "internalType": "string",
              "name": "_signature",
              "type": "string"
            }
          ],
          "indexed": false,
          "internalType": "struct SharedChain.Project",
          "name": "_project",
          "type": "tuple"
        },
        {
          "indexed": true,
          "internalType": "address",
          "name": "_projectAddress",
          "type": "address"
        },
        {
          "indexed": true,
          "internalType": "address",
          "name": "_companyAddress",
          "type": "address"
        }
      ],
      "name": "ProjectEvent",
      "type": "event"
    },
    {
      "anonymous": false,
      "inputs": [
        {
          "components": [
            {
              "internalType": "uint256",
              "name": "_index",
              "type": "uint256"
            },
            {
              "internalType": "string",
              "name": "_title",
              "type": "string"
            },
            {
              "internalType": "string",
              "name": "_comments",
              "type": "string"
            },
            {
              "internalType": "enum SharedChain.ProjectStatus",
              "name": "_projectStatus",
              "type": "uint8"
            },
            {
              "internalType": "enum SharedChain.RequestStatus",
              "name": "_requestStatus",
              "type": "uint8"
            },
            {
              "internalType": "enum SharedChain.RequestType",
              "name": "_requestType",
              "type": "uint8"
            },
            {
              "internalType": "address",
              "name": "_projectAddress",
              "type": "address"
            },
            {
              "internalType": "address",
              "name": "_requestAddress",
              "type": "address"
            },
            {
              "internalType": "address",
              "name": "_signerAddress",
              "type": "address"
            },
            {
              "internalType": "uint256",
              "name": "_timestamp",
              "type": "uint256"
            },
            {
              "internalType": "string",
              "name": "_signature",
              "type": "string"
            }
          ],
          "indexed": false,
          "internalType": "struct SharedChain.Request",
          "name": "_request",
          "type": "tuple"
        },
        {
          "indexed": true,
          "internalType": "address",
          "name": "_requestAddress",
          "type": "address"
        },
        {
          "indexed": true,
          "internalType": "address",
          "name": "_projectAddress",
          "type": "address"
        }
      ],
      "name": "RequestEvent",
      "type": "event"
    },
    {
      "anonymous": false,
      "inputs": [
        {
          "components": [
            {
              "internalType": "bytes32",
              "name": "_firstname",
              "type": "bytes32"
            },
            {
              "internalType": "bytes32",
              "name": "_lastname",
              "type": "bytes32"
            },
            {
              "internalType": "enum SharedChain.Roles",
              "name": "_role",
              "type": "uint8"
            },
            {
              "internalType": "address",
              "name": "_walletAddress",
              "type": "address"
            },
            {
              "internalType": "uint256",
              "name": "_timestamp",
              "type": "uint256"
            }
          ],
          "indexed": false,
          "internalType": "struct SharedChain.User",
          "name": "_user",
          "type": "tuple"
        },
        {
          "indexed": true,
          "internalType": "address",
          "name": "_walletAddress",
          "type": "address"
        }
      ],
      "name": "UserEvent",
      "type": "event"
    },
    {
      "inputs": [
        {
          "internalType": "uint256",
          "name": "_role",
          "type": "uint256"
        },
        {
          "internalType": "address",
          "name": "_walletAddress",
          "type": "address"
        }
      ],
      "name": "changeUserRole",
      "outputs": [],
      "stateMutability": "nonpayable",
      "type": "function"
    },
    {
      "inputs": [],
      "name": "getAllUsers",
      "outputs": [
        {
          "components": [
            {
              "internalType": "bytes32",
              "name": "_firstname",
              "type": "bytes32"
            },
            {
              "internalType": "bytes32",
              "name": "_lastname",
              "type": "bytes32"
            },
            {
              "internalType": "enum SharedChain.Roles",
              "name": "_role",
              "type": "uint8"
            },
            {
              "internalType": "address",
              "name": "_walletAddress",
              "type": "address"
            },
            {
              "internalType": "uint256",
              "name": "_timestamp",
              "type": "uint256"
            }
          ],
          "internalType": "struct SharedChain.User[]",
          "name": "",
          "type": "tuple[]"
        }
      ],
      "stateMutability": "view",
      "type": "function",
      "constant": true
    },
    {
      "inputs": [
        {
          "internalType": "address",
          "name": "_walletAddress",
          "type": "address"
        }
      ],
      "name": "getUserInfo",
      "outputs": [
        {
          "components": [
            {
              "internalType": "bytes32",
              "name": "_firstname",
              "type": "bytes32"
            },
            {
              "internalType": "bytes32",
              "name": "_lastname",
              "type": "bytes32"
            },
            {
              "internalType": "enum SharedChain.Roles",
              "name": "_role",
              "type": "uint8"
            },
            {
              "internalType": "address",
              "name": "_walletAddress",
              "type": "address"
            },
            {
              "internalType": "uint256",
              "name": "_timestamp",
              "type": "uint256"
            }
          ],
          "internalType": "struct SharedChain.User",
          "name": "",
          "type": "tuple"
        }
      ],
      "stateMutability": "view",
      "type": "function",
      "constant": true
    },
    {
      "inputs": [],
      "name": "owner",
      "outputs": [
        {
          "internalType": "address",
          "name": "",
          "type": "address"
        }
      ],
      "stateMutability": "view",
      "type": "function",
      "constant": true
    },
    {
      "inputs": [
        {
          "internalType": "address",
          "name": "",
          "type": "address"
        }
      ],
      "name": "projects",
      "outputs": [
        {
          "internalType": "uint256",
          "name": "_index",
          "type": "uint256"
        },
        {
          "internalType": "string",
          "name": "_name",
          "type": "string"
        },
        {
          "internalType": "enum SharedChain.ProjectStatus",
          "name": "_status",
          "type": "uint8"
        },
        {
          "internalType": "string",
          "name": "_ipfsFileCID",
          "type": "string"
        },
        {
          "internalType": "address",
          "name": "_projectAddress",
          "type": "address"
        },
        {
          "internalType": "address",
          "name": "_signerAddress",
          "type": "address"
        },
        {
          "internalType": "address",
          "name": "_companyAddress",
          "type": "address"
        },
        {
          "internalType": "bool",
          "name": "_assigned",
          "type": "bool"
        },
        {
          "internalType": "uint256",
          "name": "_timestamp",
          "type": "uint256"
        },
        {
          "internalType": "string",
          "name": "_signature",
          "type": "string"
        }
      ],
      "stateMutability": "view",
      "type": "function",
      "constant": true
    },
    {
      "inputs": [
        {
          "internalType": "uint256",
          "name": "",
          "type": "uint256"
        }
      ],
      "name": "projectsAddress",
      "outputs": [
        {
          "internalType": "address",
          "name": "",
          "type": "address"
        }
      ],
      "stateMutability": "view",
      "type": "function",
      "constant": true
    },
    {
      "inputs": [],
      "name": "projectsCounter",
      "outputs": [
        {
          "internalType": "uint256",
          "name": "",
          "type": "uint256"
        }
      ],
      "stateMutability": "view",
      "type": "function",
      "constant": true
    },
    {
      "inputs": [
        {
          "internalType": "bytes32",
          "name": "_firstname",
          "type": "bytes32"
        },
        {
          "internalType": "bytes32",
          "name": "_lastname",
          "type": "bytes32"
        },
        {
          "internalType": "uint256",
          "name": "_role",
          "type": "uint256"
        },
        {
          "internalType": "address",
          "name": "_walletAddress",
          "type": "address"
        }
      ],
      "name": "registerUser",
      "outputs": [],
      "stateMutability": "nonpayable",
      "type": "function"
    },
    {
      "inputs": [
        {
          "internalType": "address",
          "name": "",
          "type": "address"
        }
      ],
      "name": "requests",
      "outputs": [
        {
          "internalType": "uint256",
          "name": "_index",
          "type": "uint256"
        },
        {
          "internalType": "string",
          "name": "_title",
          "type": "string"
        },
        {
          "internalType": "string",
          "name": "_comments",
          "type": "string"
        },
        {
          "internalType": "enum SharedChain.ProjectStatus",
          "name": "_projectStatus",
          "type": "uint8"
        },
        {
          "internalType": "enum SharedChain.RequestStatus",
          "name": "_requestStatus",
          "type": "uint8"
        },
        {
          "internalType": "enum SharedChain.RequestType",
          "name": "_requestType",
          "type": "uint8"
        },
        {
          "internalType": "address",
          "name": "_projectAddress",
          "type": "address"
        },
        {
          "internalType": "address",
          "name": "_requestAddress",
          "type": "address"
        },
        {
          "internalType": "address",
          "name": "_signerAddress",
          "type": "address"
        },
        {
          "internalType": "uint256",
          "name": "_timestamp",
          "type": "uint256"
        },
        {
          "internalType": "string",
          "name": "_signature",
          "type": "string"
        }
      ],
      "stateMutability": "view",
      "type": "function",
      "constant": true
    },
    {
      "inputs": [
        {
          "internalType": "uint256",
          "name": "",
          "type": "uint256"
        }
      ],
      "name": "requestsAddress",
      "outputs": [
        {
          "internalType": "address",
          "name": "",
          "type": "address"
        }
      ],
      "stateMutability": "view",
      "type": "function",
      "constant": true
    },
    {
      "inputs": [],
      "name": "requestsCounter",
      "outputs": [
        {
          "internalType": "uint256",
          "name": "",
          "type": "uint256"
        }
      ],
      "stateMutability": "view",
      "type": "function",
      "constant": true
    },
    {
      "inputs": [
        {
          "internalType": "address",
          "name": "",
          "type": "address"
        }
      ],
      "name": "users",
      "outputs": [
        {
          "internalType": "bytes32",
          "name": "_firstname",
          "type": "bytes32"
        },
        {
          "internalType": "bytes32",
          "name": "_lastname",
          "type": "bytes32"
        },
        {
          "internalType": "enum SharedChain.Roles",
          "name": "_role",
          "type": "uint8"
        },
        {
          "internalType": "address",
          "name": "_walletAddress",
          "type": "address"
        },
        {
          "internalType": "uint256",
          "name": "_timestamp",
          "type": "uint256"
        }
      ],
      "stateMutability": "view",
      "type": "function",
      "constant": true
    },
    {
      "inputs": [],
      "name": "usersCounter",
      "outputs": [
        {
          "internalType": "uint256",
          "name": "",
          "type": "uint256"
        }
      ],
      "stateMutability": "view",
      "type": "function",
      "constant": true
    },
    {
      "inputs": [
        {
          "internalType": "string",
          "name": "_name",
          "type": "string"
        },
        {
          "internalType": "uint256",
          "name": "_index",
          "type": "uint256"
        }
      ],
      "name": "createUniqueProjectAddress",
      "outputs": [
        {
          "internalType": "address",
          "name": "",
          "type": "address"
        }
      ],
      "stateMutability": "view",
      "type": "function",
      "constant": true
    },
    {
      "inputs": [
        {
          "internalType": "address",
          "name": "_projectAddress",
          "type": "address"
        },
        {
          "internalType": "string",
          "name": "_name",
          "type": "string"
        },
        {
          "internalType": "uint256",
          "name": "_status",
          "type": "uint256"
        },
        {
          "internalType": "string",
          "name": "_ipfsFileCID",
          "type": "string"
        },
        {
          "internalType": "string",
          "name": "_signature",
          "type": "string"
        }
      ],
      "name": "createProject",
      "outputs": [],
      "stateMutability": "nonpayable",
      "type": "function"
    },
    {
      "inputs": [
        {
          "internalType": "address",
          "name": "_projectAddress",
          "type": "address"
        },
        {
          "internalType": "string",
          "name": "_ipfsFileCID",
          "type": "string"
        },
        {
          "internalType": "string",
          "name": "_signature",
          "type": "string"
        }
      ],
      "name": "updateProject",
      "outputs": [],
      "stateMutability": "nonpayable",
      "type": "function"
    },
    {
      "inputs": [
        {
          "internalType": "address",
          "name": "_address",
          "type": "address"
        }
      ],
      "name": "getProjectInfo",
      "outputs": [
        {
          "components": [
            {
              "internalType": "uint256",
              "name": "_index",
              "type": "uint256"
            },
            {
              "internalType": "string",
              "name": "_name",
              "type": "string"
            },
            {
              "internalType": "enum SharedChain.ProjectStatus",
              "name": "_status",
              "type": "uint8"
            },
            {
              "internalType": "string",
              "name": "_ipfsFileCID",
              "type": "string"
            },
            {
              "internalType": "address",
              "name": "_projectAddress",
              "type": "address"
            },
            {
              "internalType": "address",
              "name": "_signerAddress",
              "type": "address"
            },
            {
              "internalType": "address",
              "name": "_companyAddress",
              "type": "address"
            },
            {
              "internalType": "bool",
              "name": "_assigned",
              "type": "bool"
            },
            {
              "internalType": "uint256",
              "name": "_timestamp",
              "type": "uint256"
            },
            {
              "internalType": "string",
              "name": "_signature",
              "type": "string"
            }
          ],
          "internalType": "struct SharedChain.Project",
          "name": "",
          "type": "tuple"
        }
      ],
      "stateMutability": "view",
      "type": "function",
      "constant": true
    },
    {
      "inputs": [
        {
          "internalType": "uint256",
          "name": "projectsNumber",
          "type": "uint256"
        }
      ],
      "name": "getProjects",
      "outputs": [
        {
          "components": [
            {
              "internalType": "uint256",
              "name": "_index",
              "type": "uint256"
            },
            {
              "internalType": "string",
              "name": "_name",
              "type": "string"
            },
            {
              "internalType": "enum SharedChain.ProjectStatus",
              "name": "_status",
              "type": "uint8"
            },
            {
              "internalType": "string",
              "name": "_ipfsFileCID",
              "type": "string"
            },
            {
              "internalType": "address",
              "name": "_projectAddress",
              "type": "address"
            },
            {
              "internalType": "address",
              "name": "_signerAddress",
              "type": "address"
            },
            {
              "internalType": "address",
              "name": "_companyAddress",
              "type": "address"
            },
            {
              "internalType": "bool",
              "name": "_assigned",
              "type": "bool"
            },
            {
              "internalType": "uint256",
              "name": "_timestamp",
              "type": "uint256"
            },
            {
              "internalType": "string",
              "name": "_signature",
              "type": "string"
            }
          ],
          "internalType": "struct SharedChain.Project[]",
          "name": "",
          "type": "tuple[]"
        }
      ],
      "stateMutability": "view",
      "type": "function",
      "constant": true
    },
    {
      "inputs": [
        {
          "internalType": "string",
          "name": "_title",
          "type": "string"
        },
        {
          "internalType": "uint256",
          "name": "_index",
          "type": "uint256"
        }
      ],
      "name": "createUniqueRequestAddress",
      "outputs": [
        {
          "internalType": "address",
          "name": "",
          "type": "address"
        }
      ],
      "stateMutability": "view",
      "type": "function",
      "constant": true
    },
    {
      "inputs": [
        {
          "internalType": "string",
          "name": "_title",
          "type": "string"
        },
        {
          "internalType": "uint256",
          "name": "_projectStatus",
          "type": "uint256"
        },
        {
          "internalType": "uint256",
          "name": "_requestStatus",
          "type": "uint256"
        },
        {
          "internalType": "address",
          "name": "_projectAddress",
          "type": "address"
        },
        {
          "internalType": "address",
          "name": "_requestAddress",
          "type": "address"
        },
        {
          "internalType": "string",
          "name": "_signature",
          "type": "string"
        }
      ],
      "name": "createRequest",
      "outputs": [],
      "stateMutability": "nonpayable",
      "type": "function"
    },
    {
      "inputs": [
        {
          "internalType": "string",
          "name": "_comments",
          "type": "string"
        },
        {
          "internalType": "uint256",
          "name": "_requestStatus",
          "type": "uint256"
        },
        {
          "internalType": "uint256",
          "name": "_projectStatus",
          "type": "uint256"
        },
        {
          "internalType": "address",
          "name": "_projectAddress",
          "type": "address"
        },
        {
          "internalType": "address",
          "name": "_requestAddress",
          "type": "address"
        },
        {
          "internalType": "string",
          "name": "_signature",
          "type": "string"
        }
      ],
      "name": "updateSupervisorRequest",
      "outputs": [],
      "stateMutability": "nonpayable",
      "type": "function"
    },
    {
      "inputs": [
        {
          "internalType": "string",
          "name": "_comments",
          "type": "string"
        },
        {
          "internalType": "uint256",
          "name": "_requestStatus",
          "type": "uint256"
        },
        {
          "internalType": "uint256",
          "name": "_projectStatus",
          "type": "uint256"
        },
        {
          "internalType": "address",
          "name": "_projectAddress",
          "type": "address"
        },
        {
          "internalType": "address",
          "name": "_requestAddress",
          "type": "address"
        },
        {
          "internalType": "string",
          "name": "_signature",
          "type": "string"
        }
      ],
      "name": "updateCompanyRequest",
      "outputs": [],
      "stateMutability": "nonpayable",
      "type": "function"
    },
    {
      "inputs": [],
      "name": "getAllRequests",
      "outputs": [
        {
          "components": [
            {
              "internalType": "uint256",
              "name": "_index",
              "type": "uint256"
            },
            {
              "internalType": "string",
              "name": "_title",
              "type": "string"
            },
            {
              "internalType": "string",
              "name": "_comments",
              "type": "string"
            },
            {
              "internalType": "enum SharedChain.ProjectStatus",
              "name": "_projectStatus",
              "type": "uint8"
            },
            {
              "internalType": "enum SharedChain.RequestStatus",
              "name": "_requestStatus",
              "type": "uint8"
            },
            {
              "internalType": "enum SharedChain.RequestType",
              "name": "_requestType",
              "type": "uint8"
            },
            {
              "internalType": "address",
              "name": "_projectAddress",
              "type": "address"
            },
            {
              "internalType": "address",
              "name": "_requestAddress",
              "type": "address"
            },
            {
              "internalType": "address",
              "name": "_signerAddress",
              "type": "address"
            },
            {
              "internalType": "uint256",
              "name": "_timestamp",
              "type": "uint256"
            },
            {
              "internalType": "string",
              "name": "_signature",
              "type": "string"
            }
          ],
          "internalType": "struct SharedChain.Request[]",
          "name": "",
          "type": "tuple[]"
        }
      ],
      "stateMutability": "view",
      "type": "function",
      "constant": true
    },
    {
      "inputs": [
        {
          "internalType": "address",
          "name": "_projectAddress",
          "type": "address"
        },
        {
          "internalType": "address",
          "name": "_requestAddress",
          "type": "address"
        }
      ],
      "name": "getLastProjectRequest",
      "outputs": [
        {
          "components": [
            {
              "internalType": "uint256",
              "name": "_index",
              "type": "uint256"
            },
            {
              "internalType": "string",
              "name": "_title",
              "type": "string"
            },
            {
              "internalType": "string",
              "name": "_comments",
              "type": "string"
            },
            {
              "internalType": "enum SharedChain.ProjectStatus",
              "name": "_projectStatus",
              "type": "uint8"
            },
            {
              "internalType": "enum SharedChain.RequestStatus",
              "name": "_requestStatus",
              "type": "uint8"
            },
            {
              "internalType": "enum SharedChain.RequestType",
              "name": "_requestType",
              "type": "uint8"
            },
            {
              "internalType": "address",
              "name": "_projectAddress",
              "type": "address"
            },
            {
              "internalType": "address",
              "name": "_requestAddress",
              "type": "address"
            },
            {
              "internalType": "address",
              "name": "_signerAddress",
              "type": "address"
            },
            {
              "internalType": "uint256",
              "name": "_timestamp",
              "type": "uint256"
            },
            {
              "internalType": "string",
              "name": "_signature",
              "type": "string"
            }
          ],
          "internalType": "struct SharedChain.Request",
          "name": "",
          "type": "tuple"
        }
      ],
      "stateMutability": "view",
      "type": "function",
      "constant": true
    }
  ],
  "bytecode": "0x6080604052336000806101000a81548173ffffffffffffffffffffffffffffffffffffffff021916908373ffffffffffffffffffffffffffffffffffffffff16021790555060006002556000600555600060085534801561005f57600080fd5b50615e1b80620000706000396000f3fe608060405234801561001057600080fd5b50600436106101585760003560e01c806384485563116100c3578063d67b1b991161007c578063d67b1b991461044c578063e1592c0d1461046a578063e2842d7914610486578063e617385f146104a4578063fb1a002a146104c0578063fe360ea5146104de57610158565b8063844855631461038a5780638da5cb5b146103a657806391009786146103c457806391d6e4ac146103e0578063a87430ba146103fc578063ba60ec841461043057610158565b806356a3eead1161011557806356a3eead146102695780636386c1c714610299578063663c2269146102c957806374adad1d146102e757806376c932e014610321578063840e78fd1461035157610158565b8063191e16451461015d57806320628b481461018d5780633000d7f9146101bd5780633b4ec4f8146101d9578063448847101461020957806347ee45b914610239575b600080fd5b610177600480360381019061017291906144bb565b6104fc565b6040516101849190614558565b60405180910390f35b6101a760048036038101906101a29190614573565b6105ea565b6040516101b49190614882565b60405180910390f35b6101d760048036038101906101d29190614906565b610c47565b005b6101f360048036038101906101ee91906144bb565b610f8a565b6040516102009190614558565b60405180910390f35b610223600480360381019061021e919061496d565b611092565b6040516102309190614b3a565b60405180910390f35b610253600480360381019061024e9190614b5c565b61164d565b6040516102609190614c71565b60405180910390f35b610283600480360381019061027e9190614573565b611a99565b6040516102909190614558565b60405180910390f35b6102b360048036038101906102ae9190614b5c565b611ad8565b6040516102c09190614d52565b60405180910390f35b6102d1611cb0565b6040516102de9190614d7c565b60405180910390f35b61030160048036038101906102fc9190614b5c565b611cb6565b6040516103189b9a99989796959493929190614e0e565b60405180910390f35b61033b60048036038101906103369190614573565b611f2f565b6040516103489190614558565b60405180910390f35b61036b60048036038101906103669190614b5c565b611f6e565b6040516103819a99989796959493929190614edd565b60405180910390f35b6103a4600480360381019061039f9190614f8e565b6121d4565b005b6103ae612636565b6040516103bb9190614558565b60405180910390f35b6103de60048036038101906103d9919061505d565b61265a565b005b6103fa60048036038101906103f5919061509d565b61283b565b005b61041660048036038101906104119190614b5c565b612ca5565b604051610427959493929190615180565b60405180910390f35b61044a6004803603810190610445919061509d565b612d08565b005b6104546130f1565b6040516104619190614d7c565b60405180910390f35b610484600480360381019061047f91906151d3565b6130f7565b005b61048e613304565b60405161049b9190615375565b60405180910390f35b6104be60048036038101906104b9919061509d565b613577565b005b6104c8613b26565b6040516104d59190615556565b60405180910390f35b6104e66140aa565b6040516104f39190614d7c565b60405180910390f35b60006001600381111561051257610511614663565b5b600160003373ffffffffffffffffffffffffffffffffffffffff1673ffffffffffffffffffffffffffffffffffffffff16815260200190815260200160002060020160009054906101000a900460ff16600381111561057457610573614663565b5b146105b4576040517f08c379a00000000000000000000000000000000000000000000000000000000081526004016105ab906155c4565b60405180910390fd5b8233836040516020016105c993929190615689565b6040516020818303038152906040528051906020012060001c905092915050565b606060016003811115610600576105ff614663565b5b600160003373ffffffffffffffffffffffffffffffffffffffff1673ffffffffffffffffffffffffffffffffffffffff16815260200190815260200160002060020160009054906101000a900460ff16600381111561066257610661614663565b5b14806106e157506002600381111561067d5761067c614663565b5b600160003373ffffffffffffffffffffffffffffffffffffffff1673ffffffffffffffffffffffffffffffffffffffff16815260200190815260200160002060020160009054906101000a900460ff1660038111156106df576106de614663565b5b145b610720576040517f08c379a0000000000000000000000000000000000000000000000000000000008152600401610717906155c4565b60405180910390fd5b6060600060055414156107365780915050610c42565b8267ffffffffffffffff8111156107505761074f61435a565b5b60405190808252806020026020018201604052801561078957816020015b6107766140b0565b81526020019060019003908161076e5790505b50905060005b600554811015610c3c576000600682815481106107af576107ae6156c2565b5b9060005260206000200160009054906101000a900473ffffffffffffffffffffffffffffffffffffffff1690506000600460008373ffffffffffffffffffffffffffffffffffffffff1673ffffffffffffffffffffffffffffffffffffffff16815260200190815260200160002090508060050160009054906101000a900473ffffffffffffffffffffffffffffffffffffffff1673ffffffffffffffffffffffffffffffffffffffff16600160003373ffffffffffffffffffffffffffffffffffffffff1673ffffffffffffffffffffffffffffffffffffffff16815260200190815260200160002060020160019054906101000a900473ffffffffffffffffffffffffffffffffffffffff1673ffffffffffffffffffffffffffffffffffffffff161415610c275780604051806101400160405290816000820154815260200160018201805461090090615720565b80601f016020809104026020016040519081016040528092919081815260200182805461092c90615720565b80156109795780601f1061094e57610100808354040283529160200191610979565b820191906000526020600020905b81548152906001019060200180831161095c57829003601f168201915b505050505081526020016002820160009054906101000a900460ff1660048111156109a7576109a6614663565b5b60048111156109b9576109b8614663565b5b81526020016003820180546109cd90615720565b80601f01602080910402602001604051908101604052809291908181526020018280546109f990615720565b8015610a465780601f10610a1b57610100808354040283529160200191610a46565b820191906000526020600020905b815481529060010190602001808311610a2957829003601f168201915b505050505081526020016004820160009054906101000a900473ffffffffffffffffffffffffffffffffffffffff1673ffffffffffffffffffffffffffffffffffffffff1673ffffffffffffffffffffffffffffffffffffffff1681526020016005820160009054906101000a900473ffffffffffffffffffffffffffffffffffffffff1673ffffffffffffffffffffffffffffffffffffffff1673ffffffffffffffffffffffffffffffffffffffff1681526020016006820160009054906101000a900473ffffffffffffffffffffffffffffffffffffffff1673ffffffffffffffffffffffffffffffffffffffff1673ffffffffffffffffffffffffffffffffffffffff1681526020016006820160149054906101000a900460ff1615151515815260200160078201548152602001600882018054610b8690615720565b80601f0160208091040260200160405190810160405280929190818152602001828054610bb290615720565b8015610bff5780601f10610bd457610100808354040283529160200191610bff565b820191906000526020600020905b815481529060010190602001808311610be257829003601f168201915b505050505081525050848481518110610c1b57610c1a6156c2565b5b60200260200101819052505b50508080610c3490615781565b91505061078f565b50809150505b919050565b8073ffffffffffffffffffffffffffffffffffffffff16600073ffffffffffffffffffffffffffffffffffffffff161415610cb7576040517f08c379a0000000000000000000000000000000000000000000000000000000008152600401610cae90615816565b60405180910390fd5b3373ffffffffffffffffffffffffffffffffffffffff1660008054906101000a900473ffffffffffffffffffffffffffffffffffffffff1673ffffffffffffffffffffffffffffffffffffffff1614610d45576040517f08c379a0000000000000000000000000000000000000000000000000000000008152600401610d3c906155c4565b60405180910390fd5b6040518060a00160405280858152602001848152602001836003811115610d6f57610d6e614663565b5b6003811115610d8157610d80614663565b5b81526020018273ffffffffffffffffffffffffffffffffffffffff16815260200142815250600160008373ffffffffffffffffffffffffffffffffffffffff1673ffffffffffffffffffffffffffffffffffffffff168152602001908152602001600020600082015181600001556020820151816001015560408201518160020160006101000a81548160ff02191690836003811115610e2457610e23614663565b5b021790555060608201518160020160016101000a81548173ffffffffffffffffffffffffffffffffffffffff021916908373ffffffffffffffffffffffffffffffffffffffff160217905550608082015181600301559050508073ffffffffffffffffffffffffffffffffffffffff167ff751778eb32087df58f173035147c2eac9aac89fdc2f83b1993a198606f56db1600160008473ffffffffffffffffffffffffffffffffffffffff1673ffffffffffffffffffffffffffffffffffffffff168152602001908152602001600020604051610f019190615993565b60405180910390a26003819080600181540180825580915050600190039060005260206000200160009091909190916101000a81548173ffffffffffffffffffffffffffffffffffffffff021916908373ffffffffffffffffffffffffffffffffffffffff16021790555060026000815480929190610f7f90615781565b919050555050505050565b60003373ffffffffffffffffffffffffffffffffffffffff16600160003373ffffffffffffffffffffffffffffffffffffffff1673ffffffffffffffffffffffffffffffffffffffff16815260200190815260200160002060020160019054906101000a900473ffffffffffffffffffffffffffffffffffffffff1673ffffffffffffffffffffffffffffffffffffffff161461105c576040517f08c379a000000000000000000000000000000000000000000000000000000000815260040161105390615816565b60405180910390fd5b82338360405160200161107193929190615689565b6040516020818303038152906040528051906020012060001c905092915050565b61109a614159565b600160038111156110ae576110ad614663565b5b600160003373ffffffffffffffffffffffffffffffffffffffff1673ffffffffffffffffffffffffffffffffffffffff16815260200190815260200160002060020160009054906101000a900460ff1660038111156111105761110f614663565b5b148061118f57506002600381111561112b5761112a614663565b5b600160003373ffffffffffffffffffffffffffffffffffffffff1673ffffffffffffffffffffffffffffffffffffffff16815260200190815260200160002060020160009054906101000a900460ff16600381111561118d5761118c614663565b5b145b6111ce576040517f08c379a00000000000000000000000000000000000000000000000000000000081526004016111c5906155c4565b60405180910390fd5b6111d6614159565b60006008541115611643578373ffffffffffffffffffffffffffffffffffffffff16600760008573ffffffffffffffffffffffffffffffffffffffff1673ffffffffffffffffffffffffffffffffffffffff16815260200190815260200160002060030160039054906101000a900473ffffffffffffffffffffffffffffffffffffffff1673ffffffffffffffffffffffffffffffffffffffff16141561164257600760008473ffffffffffffffffffffffffffffffffffffffff1673ffffffffffffffffffffffffffffffffffffffff16815260200190815260200160002060405180610160016040529081600082015481526020016001820180546112dc90615720565b80601f016020809104026020016040519081016040528092919081815260200182805461130890615720565b80156113555780601f1061132a57610100808354040283529160200191611355565b820191906000526020600020905b81548152906001019060200180831161133857829003601f168201915b5050505050815260200160028201805461136e90615720565b80601f016020809104026020016040519081016040528092919081815260200182805461139a90615720565b80156113e75780601f106113bc576101008083540402835291602001916113e7565b820191906000526020600020905b8154815290600101906020018083116113ca57829003601f168201915b505050505081526020016003820160009054906101000a900460ff16600481111561141557611414614663565b5b600481111561142757611426614663565b5b81526020016003820160019054906101000a900460ff1660028111156114505761144f614663565b5b600281111561146257611461614663565b5b81526020016003820160029054906101000a900460ff16600181111561148b5761148a614663565b5b600181111561149d5761149c614663565b5b81526020016003820160039054906101000a900473ffffffffffffffffffffffffffffffffffffffff1673ffffffffffffffffffffffffffffffffffffffff1673ffffffffffffffffffffffffffffffffffffffff1681526020016004820160009054906101000a900473ffffffffffffffffffffffffffffffffffffffff1673ffffffffffffffffffffffffffffffffffffffff1673ffffffffffffffffffffffffffffffffffffffff1681526020016005820160009054906101000a900473ffffffffffffffffffffffffffffffffffffffff1673ffffffffffffffffffffffffffffffffffffffff1673ffffffffffffffffffffffffffffffffffffffff168152602001600682015481526020016007820180546115bd90615720565b80601f01602080910402602001604051908101604052809291908181526020018280546115e990615720565b80156116365780601f1061160b57610100808354040283529160200191611636565b820191906000526020600020905b81548152906001019060200180831161161957829003601f168201915b50505050508152505090505b5b8091505092915050565b6116556140b0565b3373ffffffffffffffffffffffffffffffffffffffff16600160003373ffffffffffffffffffffffffffffffffffffffff1673ffffffffffffffffffffffffffffffffffffffff16815260200190815260200160002060020160019054906101000a900473ffffffffffffffffffffffffffffffffffffffff1673ffffffffffffffffffffffffffffffffffffffff1614611725576040517f08c379a000000000000000000000000000000000000000000000000000000000815260040161171c906155c4565b60405180910390fd5b600460008373ffffffffffffffffffffffffffffffffffffffff1673ffffffffffffffffffffffffffffffffffffffff168152602001908152602001600020604051806101400160405290816000820154815260200160018201805461178a90615720565b80601f01602080910402602001604051908101604052809291908181526020018280546117b690615720565b80156118035780601f106117d857610100808354040283529160200191611803565b820191906000526020600020905b8154815290600101906020018083116117e657829003601f168201915b505050505081526020016002820160009054906101000a900460ff16600481111561183157611830614663565b5b600481111561184357611842614663565b5b815260200160038201805461185790615720565b80601f016020809104026020016040519081016040528092919081815260200182805461188390615720565b80156118d05780601f106118a5576101008083540402835291602001916118d0565b820191906000526020600020905b8154815290600101906020018083116118b357829003601f168201915b505050505081526020016004820160009054906101000a900473ffffffffffffffffffffffffffffffffffffffff1673ffffffffffffffffffffffffffffffffffffffff1673ffffffffffffffffffffffffffffffffffffffff1681526020016005820160009054906101000a900473ffffffffffffffffffffffffffffffffffffffff1673ffffffffffffffffffffffffffffffffffffffff1673ffffffffffffffffffffffffffffffffffffffff1681526020016006820160009054906101000a900473ffffffffffffffffffffffffffffffffffffffff1673ffffffffffffffffffffffffffffffffffffffff1673ffffffffffffffffffffffffffffffffffffffff1681526020016006820160149054906101000a900460ff1615151515815260200160078201548152602001600882018054611a1090615720565b80601f0160208091040260200160405190810160405280929190818152602001828054611a3c90615720565b8015611a895780601f10611a5e57610100808354040283529160200191611a89565b820191906000526020600020905b815481529060010190602001808311611a6c57829003601f168201915b5050505050815250509050919050565b60098181548110611aa957600080fd5b906000526020600020016000915054906101000a900473ffffffffffffffffffffffffffffffffffffffff1681565b611ae061422b565b3373ffffffffffffffffffffffffffffffffffffffff16600160003373ffffffffffffffffffffffffffffffffffffffff1673ffffffffffffffffffffffffffffffffffffffff16815260200190815260200160002060020160019054906101000a900473ffffffffffffffffffffffffffffffffffffffff1673ffffffffffffffffffffffffffffffffffffffff1614611bb0576040517f08c379a0000000000000000000000000000000000000000000000000000000008152600401611ba7906155c4565b60405180910390fd5b600160008373ffffffffffffffffffffffffffffffffffffffff1673ffffffffffffffffffffffffffffffffffffffff1681526020019081526020016000206040518060a001604052908160008201548152602001600182015481526020016002820160009054906101000a900460ff166003811115611c3357611c32614663565b5b6003811115611c4557611c44614663565b5b81526020016002820160019054906101000a900473ffffffffffffffffffffffffffffffffffffffff1673ffffffffffffffffffffffffffffffffffffffff1673ffffffffffffffffffffffffffffffffffffffff1681526020016003820154815250509050919050565b60085481565b6007602052806000526040600020600091509050806000015490806001018054611cdf90615720565b80601f0160208091040260200160405190810160405280929190818152602001828054611d0b90615720565b8015611d585780601f10611d2d57610100808354040283529160200191611d58565b820191906000526020600020905b815481529060010190602001808311611d3b57829003601f168201915b505050505090806002018054611d6d90615720565b80601f0160208091040260200160405190810160405280929190818152602001828054611d9990615720565b8015611de65780601f10611dbb57610100808354040283529160200191611de6565b820191906000526020600020905b815481529060010190602001808311611dc957829003601f168201915b5050505050908060030160009054906101000a900460ff16908060030160019054906101000a900460ff16908060030160029054906101000a900460ff16908060030160039054906101000a900473ffffffffffffffffffffffffffffffffffffffff16908060040160009054906101000a900473ffffffffffffffffffffffffffffffffffffffff16908060050160009054906101000a900473ffffffffffffffffffffffffffffffffffffffff1690806006015490806007018054611eac90615720565b80601f0160208091040260200160405190810160405280929190818152602001828054611ed890615720565b8015611f255780601f10611efa57610100808354040283529160200191611f25565b820191906000526020600020905b815481529060010190602001808311611f0857829003601f168201915b505050505090508b565b60068181548110611f3f57600080fd5b906000526020600020016000915054906101000a900473ffffffffffffffffffffffffffffffffffffffff1681565b6004602052806000526040600020600091509050806000015490806001018054611f9790615720565b80601f0160208091040260200160405190810160405280929190818152602001828054611fc390615720565b80156120105780601f10611fe557610100808354040283529160200191612010565b820191906000526020600020905b815481529060010190602001808311611ff357829003601f168201915b5050505050908060020160009054906101000a900460ff169080600301805461203890615720565b80601f016020809104026020016040519081016040528092919081815260200182805461206490615720565b80156120b15780601f10612086576101008083540402835291602001916120b1565b820191906000526020600020905b81548152906001019060200180831161209457829003601f168201915b5050505050908060040160009054906101000a900473ffffffffffffffffffffffffffffffffffffffff16908060050160009054906101000a900473ffffffffffffffffffffffffffffffffffffffff16908060060160009054906101000a900473ffffffffffffffffffffffffffffffffffffffff16908060060160149054906101000a900460ff169080600701549080600801805461215190615720565b80601f016020809104026020016040519081016040528092919081815260200182805461217d90615720565b80156121ca5780601f1061219f576101008083540402835291602001916121ca565b820191906000526020600020905b8154815290600101906020018083116121ad57829003601f168201915b505050505090508a565b600160038111156121e8576121e7614663565b5b600160003373ffffffffffffffffffffffffffffffffffffffff1673ffffffffffffffffffffffffffffffffffffffff16815260200190815260200160002060020160009054906101000a900460ff16600381111561224a57612249614663565b5b1461228a576040517f08c379a0000000000000000000000000000000000000000000000000000000008152600401612281906155c4565b60405180910390fd5b60405180610140016040528060055481526020018581526020018460048111156122b7576122b6614663565b5b60048111156122c9576122c8614663565b5b81526020018381526020018673ffffffffffffffffffffffffffffffffffffffff1681526020013373ffffffffffffffffffffffffffffffffffffffff168152602001600073ffffffffffffffffffffffffffffffffffffffff16815260200160001515815260200142815260200182815250600460008773ffffffffffffffffffffffffffffffffffffffff1673ffffffffffffffffffffffffffffffffffffffff1681526020019081526020016000206000820151816000015560208201518160010190805190602001906123a1929190614288565b5060408201518160020160006101000a81548160ff021916908360048111156123cd576123cc614663565b5b021790555060608201518160030190805190602001906123ee929190614288565b5060808201518160040160006101000a81548173ffffffffffffffffffffffffffffffffffffffff021916908373ffffffffffffffffffffffffffffffffffffffff16021790555060a08201518160050160006101000a81548173ffffffffffffffffffffffffffffffffffffffff021916908373ffffffffffffffffffffffffffffffffffffffff16021790555060c08201518160060160006101000a81548173ffffffffffffffffffffffffffffffffffffffff021916908373ffffffffffffffffffffffffffffffffffffffff16021790555060e08201518160060160146101000a81548160ff021916908315150217905550610100820151816007015561012082015181600801908051906020019061250c929190614288565b50905050600073ffffffffffffffffffffffffffffffffffffffff168573ffffffffffffffffffffffffffffffffffffffff167ffb530d24abc3d497c3f0525ef204a66ac64d923ec30b40d17bc3a5f572cf4b8e600460008973ffffffffffffffffffffffffffffffffffffffff1673ffffffffffffffffffffffffffffffffffffffff1681526020019081526020016000206040516125ac9190615be3565b60405180910390a36006859080600181540180825580915050600190039060005260206000200160009091909190916101000a81548173ffffffffffffffffffffffffffffffffffffffff021916908373ffffffffffffffffffffffffffffffffffffffff1602179055506005600081548092919061262a90615781565b91905055505050505050565b60008054906101000a900473ffffffffffffffffffffffffffffffffffffffff1681565b3373ffffffffffffffffffffffffffffffffffffffff1660008054906101000a900473ffffffffffffffffffffffffffffffffffffffff1673ffffffffffffffffffffffffffffffffffffffff16146126e8576040517f08c379a00000000000000000000000000000000000000000000000000000000081526004016126df906155c4565b60405180910390fd5b8160038111156126fb576126fa614663565b5b600160008373ffffffffffffffffffffffffffffffffffffffff1673ffffffffffffffffffffffffffffffffffffffff16815260200190815260200160002060020160006101000a81548160ff0219169083600381111561275f5761275e614663565b5b021790555042600160008373ffffffffffffffffffffffffffffffffffffffff1673ffffffffffffffffffffffffffffffffffffffff168152602001908152602001600020600301819055508073ffffffffffffffffffffffffffffffffffffffff167ff751778eb32087df58f173035147c2eac9aac89fdc2f83b1993a198606f56db1600160008473ffffffffffffffffffffffffffffffffffffffff1673ffffffffffffffffffffffffffffffffffffffff16815260200190815260200160002060405161282f9190615993565b60405180910390a25050565b6002600381111561284f5761284e614663565b5b600160003373ffffffffffffffffffffffffffffffffffffffff1673ffffffffffffffffffffffffffffffffffffffff16815260200190815260200160002060020160009054906101000a900460ff1660038111156128b1576128b0614663565b5b146128f1576040517f08c379a00000000000000000000000000000000000000000000000000000000081526004016128e8906155c4565b60405180910390fd5b85600760008473ffffffffffffffffffffffffffffffffffffffff1673ffffffffffffffffffffffffffffffffffffffff1681526020019081526020016000206002019080519060200190612947929190614288565b5084600281111561295b5761295a614663565b5b600760008473ffffffffffffffffffffffffffffffffffffffff1673ffffffffffffffffffffffffffffffffffffffff16815260200190815260200160002060030160016101000a81548160ff021916908360028111156129bf576129be614663565b5b021790555080600760008473ffffffffffffffffffffffffffffffffffffffff1673ffffffffffffffffffffffffffffffffffffffff1681526020019081526020016000206007019080519060200190612a1a929190614288565b508273ffffffffffffffffffffffffffffffffffffffff168273ffffffffffffffffffffffffffffffffffffffff167fa25a6f1ff57a050a48ae4b3a19f271fddad950cac8d165d6a2eca5d54cc8070f600760008673ffffffffffffffffffffffffffffffffffffffff1673ffffffffffffffffffffffffffffffffffffffff168152602001908152602001600020604051612ab69190615dc3565b60405180910390a3846002811115612ad157612ad0614663565b5b6002811115612ae357612ae2614663565b5b600280811115612af657612af5614663565b5b1415612c9d57836004811115612b0f57612b0e614663565b5b600460008573ffffffffffffffffffffffffffffffffffffffff1673ffffffffffffffffffffffffffffffffffffffff16815260200190815260200160002060020160006101000a81548160ff02191690836004811115612b7357612b72614663565b5b021790555033600460008573ffffffffffffffffffffffffffffffffffffffff1673ffffffffffffffffffffffffffffffffffffffff16815260200190815260200160002060060160006101000a81548173ffffffffffffffffffffffffffffffffffffffff021916908373ffffffffffffffffffffffffffffffffffffffff1602179055503373ffffffffffffffffffffffffffffffffffffffff168373ffffffffffffffffffffffffffffffffffffffff167ffb530d24abc3d497c3f0525ef204a66ac64d923ec30b40d17bc3a5f572cf4b8e600460008773ffffffffffffffffffffffffffffffffffffffff1673ffffffffffffffffffffffffffffffffffffffff168152602001908152602001600020604051612c949190615be3565b60405180910390a35b505050505050565b60016020528060005260406000206000915090508060000154908060010154908060020160009054906101000a900460ff16908060020160019054906101000a900473ffffffffffffffffffffffffffffffffffffffff16908060030154905085565b600380811115612d1b57612d1a614663565b5b600160003373ffffffffffffffffffffffffffffffffffffffff1673ffffffffffffffffffffffffffffffffffffffff16815260200190815260200160002060020160009054906101000a900460ff166003811115612d7d57612d7c614663565b5b14612dbd576040517f08c379a0000000000000000000000000000000000000000000000000000000008152600401612db4906155c4565b60405180910390fd5b85600760008473ffffffffffffffffffffffffffffffffffffffff1673ffffffffffffffffffffffffffffffffffffffff1681526020019081526020016000206002019080519060200190612e13929190614288565b50846002811115612e2757612e26614663565b5b600760008473ffffffffffffffffffffffffffffffffffffffff1673ffffffffffffffffffffffffffffffffffffffff16815260200190815260200160002060030160016101000a81548160ff02191690836002811115612e8b57612e8a614663565b5b021790555080600760008473ffffffffffffffffffffffffffffffffffffffff1673ffffffffffffffffffffffffffffffffffffffff1681526020019081526020016000206007019080519060200190612ee6929190614288565b508273ffffffffffffffffffffffffffffffffffffffff168273ffffffffffffffffffffffffffffffffffffffff167fa25a6f1ff57a050a48ae4b3a19f271fddad950cac8d165d6a2eca5d54cc8070f600760008673ffffffffffffffffffffffffffffffffffffffff1673ffffffffffffffffffffffffffffffffffffffff168152602001908152602001600020604051612f829190615dc3565b60405180910390a3846002811115612f9d57612f9c614663565b5b6002811115612faf57612fae614663565b5b600280811115612fc257612fc1614663565b5b14156130e957836004811115612fdb57612fda614663565b5b600460008573ffffffffffffffffffffffffffffffffffffffff1673ffffffffffffffffffffffffffffffffffffffff16815260200190815260200160002060020160006101000a81548160ff0219169083600481111561303f5761303e614663565b5b0217905550600073ffffffffffffffffffffffffffffffffffffffff168373ffffffffffffffffffffffffffffffffffffffff167ffb530d24abc3d497c3f0525ef204a66ac64d923ec30b40d17bc3a5f572cf4b8e600460008773ffffffffffffffffffffffffffffffffffffffff1673ffffffffffffffffffffffffffffffffffffffff1681526020019081526020016000206040516130e09190615be3565b60405180910390a35b505050505050565b60025481565b6001600381111561310b5761310a614663565b5b600160003373ffffffffffffffffffffffffffffffffffffffff1673ffffffffffffffffffffffffffffffffffffffff16815260200190815260200160002060020160009054906101000a900460ff16600381111561316d5761316c614663565b5b146131ad576040517f08c379a00000000000000000000000000000000000000000000000000000000081526004016131a4906155c4565b60405180910390fd5b81600460008573ffffffffffffffffffffffffffffffffffffffff1673ffffffffffffffffffffffffffffffffffffffff1681526020019081526020016000206003019080519060200190613203929190614288565b5080600460008573ffffffffffffffffffffffffffffffffffffffff1673ffffffffffffffffffffffffffffffffffffffff168152602001908152602001600020600801908051906020019061325a929190614288565b50600073ffffffffffffffffffffffffffffffffffffffff168373ffffffffffffffffffffffffffffffffffffffff167ffb530d24abc3d497c3f0525ef204a66ac64d923ec30b40d17bc3a5f572cf4b8e600460008773ffffffffffffffffffffffffffffffffffffffff1673ffffffffffffffffffffffffffffffffffffffff1681526020019081526020016000206040516132f79190615be3565b60405180910390a3505050565b60603373ffffffffffffffffffffffffffffffffffffffff1660008054906101000a900473ffffffffffffffffffffffffffffffffffffffff1673ffffffffffffffffffffffffffffffffffffffff1614613394576040517f08c379a000000000000000000000000000000000000000000000000000000000815260040161338b906155c4565b60405180910390fd5b600060025467ffffffffffffffff8111156133b2576133b161435a565b5b6040519080825280602002602001820160405280156133eb57816020015b6133d861422b565b8152602001906001900390816133d05790505b50905060005b60025481101561356f57600060038281548110613411576134106156c2565b5b9060005260206000200160009054906101000a900473ffffffffffffffffffffffffffffffffffffffff1690506000600160008373ffffffffffffffffffffffffffffffffffffffff1673ffffffffffffffffffffffffffffffffffffffff1681526020019081526020016000209050806040518060a001604052908160008201548152602001600182015481526020016002820160009054906101000a900460ff1660038111156134c6576134c5614663565b5b60038111156134d8576134d7614663565b5b81526020016002820160019054906101000a900473ffffffffffffffffffffffffffffffffffffffff1673ffffffffffffffffffffffffffffffffffffffff1673ffffffffffffffffffffffffffffffffffffffff16815260200160038201548152505084848151811061354f5761354e6156c2565b5b60200260200101819052505050808061356790615781565b9150506133f1565b508091505090565b6001600381111561358b5761358a614663565b5b600160003373ffffffffffffffffffffffffffffffffffffffff1673ffffffffffffffffffffffffffffffffffffffff16815260200190815260200160002060020160009054906101000a900460ff1660038111156135ed576135ec614663565b5b148061366c57506002600381111561360857613607614663565b5b600160003373ffffffffffffffffffffffffffffffffffffffff1673ffffffffffffffffffffffffffffffffffffffff16815260200190815260200160002060020160009054906101000a900460ff16600381111561366a57613669614663565b5b145b6136ab576040517f08c379a00000000000000000000000000000000000000000000000000000000081526004016136a2906155c4565b60405180910390fd5b6000600260048111156136c1576136c0614663565b5b8660048111156136d4576136d3614663565b5b60048111156136e6576136e5614663565b5b14156136f157600190505b604051806101600160405280600854815260200188815260200160405180602001604052806000815250815260200187600481111561373357613732614663565b5b600481111561374557613744614663565b5b815260200186600281111561375d5761375c614663565b5b600281111561376f5761376e614663565b5b815260200182600181111561378757613786614663565b5b81526020018573ffffffffffffffffffffffffffffffffffffffff1681526020018473ffffffffffffffffffffffffffffffffffffffff1681526020013373ffffffffffffffffffffffffffffffffffffffff16815260200142815260200183815250600760008573ffffffffffffffffffffffffffffffffffffffff1673ffffffffffffffffffffffffffffffffffffffff16815260200190815260200160002060008201518160000155602082015181600101908051906020019061384f929190614288565b50604082015181600201908051906020019061386c929190614288565b5060608201518160030160006101000a81548160ff0219169083600481111561389857613897614663565b5b021790555060808201518160030160016101000a81548160ff021916908360028111156138c8576138c7614663565b5b021790555060a08201518160030160026101000a81548160ff021916908360018111156138f8576138f7614663565b5b021790555060c08201518160030160036101000a81548173ffffffffffffffffffffffffffffffffffffffff021916908373ffffffffffffffffffffffffffffffffffffffff16021790555060e08201518160040160006101000a81548173ffffffffffffffffffffffffffffffffffffffff021916908373ffffffffffffffffffffffffffffffffffffffff1602179055506101008201518160050160006101000a81548173ffffffffffffffffffffffffffffffffffffffff021916908373ffffffffffffffffffffffffffffffffffffffff16021790555061012082015181600601556101408201518160070190805190602001906139fb929190614288565b509050508373ffffffffffffffffffffffffffffffffffffffff168373ffffffffffffffffffffffffffffffffffffffff167fa25a6f1ff57a050a48ae4b3a19f271fddad950cac8d165d6a2eca5d54cc8070f600760008773ffffffffffffffffffffffffffffffffffffffff1673ffffffffffffffffffffffffffffffffffffffff168152602001908152602001600020604051613a9a9190615dc3565b60405180910390a36009839080600181540180825580915050600190039060005260206000200160009091909190916101000a81548173ffffffffffffffffffffffffffffffffffffffff021916908373ffffffffffffffffffffffffffffffffffffffff16021790555060086000815480929190613b1890615781565b919050555050505050505050565b60603373ffffffffffffffffffffffffffffffffffffffff16600160003373ffffffffffffffffffffffffffffffffffffffff1673ffffffffffffffffffffffffffffffffffffffff16815260200190815260200160002060020160019054906101000a900473ffffffffffffffffffffffffffffffffffffffff1673ffffffffffffffffffffffffffffffffffffffff1614613bf8576040517f08c379a0000000000000000000000000000000000000000000000000000000008152600401613bef90615816565b60405180910390fd5b600060085467ffffffffffffffff811115613c1657613c1561435a565b5b604051908082528060200260200182016040528015613c4f57816020015b613c3c614159565b815260200190600190039081613c345790505b50905060005b6008548110156140a257600060098281548110613c7557613c746156c2565b5b9060005260206000200160009054906101000a900473ffffffffffffffffffffffffffffffffffffffff1690506000600760008373ffffffffffffffffffffffffffffffffffffffff1673ffffffffffffffffffffffffffffffffffffffff1681526020019081526020016000209050806040518061016001604052908160008201548152602001600182018054613d0c90615720565b80601f0160208091040260200160405190810160405280929190818152602001828054613d3890615720565b8015613d855780601f10613d5a57610100808354040283529160200191613d85565b820191906000526020600020905b815481529060010190602001808311613d6857829003601f168201915b50505050508152602001600282018054613d9e90615720565b80601f0160208091040260200160405190810160405280929190818152602001828054613dca90615720565b8015613e175780601f10613dec57610100808354040283529160200191613e17565b820191906000526020600020905b815481529060010190602001808311613dfa57829003601f168201915b505050505081526020016003820160009054906101000a900460ff166004811115613e4557613e44614663565b5b6004811115613e5757613e56614663565b5b81526020016003820160019054906101000a900460ff166002811115613e8057613e7f614663565b5b6002811115613e9257613e91614663565b5b81526020016003820160029054906101000a900460ff166001811115613ebb57613eba614663565b5b6001811115613ecd57613ecc614663565b5b81526020016003820160039054906101000a900473ffffffffffffffffffffffffffffffffffffffff1673ffffffffffffffffffffffffffffffffffffffff1673ffffffffffffffffffffffffffffffffffffffff1681526020016004820160009054906101000a900473ffffffffffffffffffffffffffffffffffffffff1673ffffffffffffffffffffffffffffffffffffffff1673ffffffffffffffffffffffffffffffffffffffff1681526020016005820160009054906101000a900473ffffffffffffffffffffffffffffffffffffffff1673ffffffffffffffffffffffffffffffffffffffff1673ffffffffffffffffffffffffffffffffffffffff16815260200160068201548152602001600782018054613fed90615720565b80601f016020809104026020016040519081016040528092919081815260200182805461401990615720565b80156140665780601f1061403b57610100808354040283529160200191614066565b820191906000526020600020905b81548152906001019060200180831161404957829003601f168201915b505050505081525050848481518110614082576140816156c2565b5b60200260200101819052505050808061409a90615781565b915050613c55565b508091505090565b60055481565b6040518061014001604052806000815260200160608152602001600060048111156140de576140dd614663565b5b815260200160608152602001600073ffffffffffffffffffffffffffffffffffffffff168152602001600073ffffffffffffffffffffffffffffffffffffffff168152602001600073ffffffffffffffffffffffffffffffffffffffff16815260200160001515815260200160008152602001606081525090565b6040518061016001604052806000815260200160608152602001606081526020016000600481111561418e5761418d614663565b5b8152602001600060028111156141a7576141a6614663565b5b8152602001600060018111156141c0576141bf614663565b5b8152602001600073ffffffffffffffffffffffffffffffffffffffff168152602001600073ffffffffffffffffffffffffffffffffffffffff168152602001600073ffffffffffffffffffffffffffffffffffffffff16815260200160008152602001606081525090565b6040518060a0016040528060008019168152602001600080191681526020016000600381111561425e5761425d614663565b5b8152602001600073ffffffffffffffffffffffffffffffffffffffff168152602001600081525090565b82805461429490615720565b90600052602060002090601f0160209004810192826142b657600085556142fd565b82601f106142cf57805160ff19168380011785556142fd565b828001600101855582156142fd579182015b828111156142fc5782518255916020019190600101906142e1565b5b50905061430a919061430e565b5090565b5b8082111561432757600081600090555060010161430f565b5090565b6000604051905090565b600080fd5b600080fd5b600080fd5b600080fd5b6000601f19601f8301169050919050565b7f4e487b7100000000000000000000000000000000000000000000000000000000600052604160045260246000fd5b61439282614349565b810181811067ffffffffffffffff821117156143b1576143b061435a565b5b80604052505050565b60006143c461432b565b90506143d08282614389565b919050565b600067ffffffffffffffff8211156143f0576143ef61435a565b5b6143f982614349565b9050602081019050919050565b82818337600083830152505050565b6000614428614423846143d5565b6143ba565b90508281526020810184848401111561444457614443614344565b5b61444f848285614406565b509392505050565b600082601f83011261446c5761446b61433f565b5b813561447c848260208601614415565b91505092915050565b6000819050919050565b61449881614485565b81146144a357600080fd5b50565b6000813590506144b58161448f565b92915050565b600080604083850312156144d2576144d1614335565b5b600083013567ffffffffffffffff8111156144f0576144ef61433a565b5b6144fc85828601614457565b925050602061450d858286016144a6565b9150509250929050565b600073ffffffffffffffffffffffffffffffffffffffff82169050919050565b600061454282614517565b9050919050565b61455281614537565b82525050565b600060208201905061456d6000830184614549565b92915050565b60006020828403121561458957614588614335565b5b6000614597848285016144a6565b91505092915050565b600081519050919050565b600082825260208201905092915050565b6000819050602082019050919050565b6145d581614485565b82525050565b600081519050919050565b600082825260208201905092915050565b60005b838110156146155780820151818401526020810190506145fa565b83811115614624576000848401525b50505050565b6000614635826145db565b61463f81856145e6565b935061464f8185602086016145f7565b61465881614349565b840191505092915050565b7f4e487b7100000000000000000000000000000000000000000000000000000000600052602160045260246000fd5b600581106146a3576146a2614663565b5b50565b60008190506146b482614692565b919050565b60006146c4826146a6565b9050919050565b6146d4816146b9565b82525050565b6146e381614537565b82525050565b60008115159050919050565b6146fe816146e9565b82525050565b60006101408301600083015161471d60008601826145cc565b5060208301518482036020860152614735828261462a565b915050604083015161474a60408601826146cb565b5060608301518482036060860152614762828261462a565b915050608083015161477760808601826146da565b5060a083015161478a60a08601826146da565b5060c083015161479d60c08601826146da565b5060e08301516147b060e08601826146f5565b506101008301516147c56101008601826145cc565b506101208301518482036101208601526147df828261462a565b9150508091505092915050565b60006147f88383614704565b905092915050565b6000602082019050919050565b6000614818826145a0565b61482281856145ab565b935083602082028501614834856145bc565b8060005b85811015614870578484038952815161485185826147ec565b945061485c83614800565b925060208a01995050600181019050614838565b50829750879550505050505092915050565b6000602082019050818103600083015261489c818461480d565b905092915050565b6000819050919050565b6148b7816148a4565b81146148c257600080fd5b50565b6000813590506148d4816148ae565b92915050565b6148e381614537565b81146148ee57600080fd5b50565b600081359050614900816148da565b92915050565b600080600080608085870312156149205761491f614335565b5b600061492e878288016148c5565b945050602061493f878288016148c5565b9350506040614950878288016144a6565b9250506060614961878288016148f1565b91505092959194509250565b6000806040838503121561498457614983614335565b5b6000614992858286016148f1565b92505060206149a3858286016148f1565b9150509250929050565b600381106149be576149bd614663565b5b50565b60008190506149cf826149ad565b919050565b60006149df826149c1565b9050919050565b6149ef816149d4565b82525050565b60028110614a0657614a05614663565b5b50565b6000819050614a17826149f5565b919050565b6000614a2782614a09565b9050919050565b614a3781614a1c565b82525050565b600061016083016000830151614a5660008601826145cc565b5060208301518482036020860152614a6e828261462a565b91505060408301518482036040860152614a88828261462a565b9150506060830151614a9d60608601826146cb565b506080830151614ab060808601826149e6565b5060a0830151614ac360a0860182614a2e565b5060c0830151614ad660c08601826146da565b5060e0830151614ae960e08601826146da565b50610100830151614afe6101008601826146da565b50610120830151614b136101208601826145cc565b50610140830151848203610140860152614b2d828261462a565b9150508091505092915050565b60006020820190508181036000830152614b548184614a3d565b905092915050565b600060208284031215614b7257614b71614335565b5b6000614b80848285016148f1565b91505092915050565b600061014083016000830151614ba260008601826145cc565b5060208301518482036020860152614bba828261462a565b9150506040830151614bcf60408601826146cb565b5060608301518482036060860152614be7828261462a565b9150506080830151614bfc60808601826146da565b5060a0830151614c0f60a08601826146da565b5060c0830151614c2260c08601826146da565b5060e0830151614c3560e08601826146f5565b50610100830151614c4a6101008601826145cc565b50610120830151848203610120860152614c64828261462a565b9150508091505092915050565b60006020820190508181036000830152614c8b8184614b89565b905092915050565b614c9c816148a4565b82525050565b60048110614cb357614cb2614663565b5b50565b6000819050614cc482614ca2565b919050565b6000614cd482614cb6565b9050919050565b614ce481614cc9565b82525050565b60a082016000820151614d006000850182614c93565b506020820151614d136020850182614c93565b506040820151614d266040850182614cdb565b506060820151614d3960608501826146da565b506080820151614d4c60808501826145cc565b50505050565b600060a082019050614d676000830184614cea565b92915050565b614d7681614485565b82525050565b6000602082019050614d916000830184614d6d565b92915050565b600082825260208201905092915050565b6000614db3826145db565b614dbd8185614d97565b9350614dcd8185602086016145f7565b614dd681614349565b840191505092915050565b614dea816146b9565b82525050565b614df9816149d4565b82525050565b614e0881614a1c565b82525050565b600061016082019050614e24600083018e614d6d565b8181036020830152614e36818d614da8565b90508181036040830152614e4a818c614da8565b9050614e59606083018b614de1565b614e66608083018a614df0565b614e7360a0830189614dff565b614e8060c0830188614549565b614e8d60e0830187614549565b614e9b610100830186614549565b614ea9610120830185614d6d565b818103610140830152614ebc8184614da8565b90509c9b505050505050505050505050565b614ed7816146e9565b82525050565b600061014082019050614ef3600083018d614d6d565b8181036020830152614f05818c614da8565b9050614f14604083018b614de1565b8181036060830152614f26818a614da8565b9050614f356080830189614549565b614f4260a0830188614549565b614f4f60c0830187614549565b614f5c60e0830186614ece565b614f6a610100830185614d6d565b818103610120830152614f7d8184614da8565b90509b9a5050505050505050505050565b600080600080600060a08688031215614faa57614fa9614335565b5b6000614fb8888289016148f1565b955050602086013567ffffffffffffffff811115614fd957614fd861433a565b5b614fe588828901614457565b9450506040614ff6888289016144a6565b935050606086013567ffffffffffffffff8111156150175761501661433a565b5b61502388828901614457565b925050608086013567ffffffffffffffff8111156150445761504361433a565b5b61505088828901614457565b9150509295509295909350565b6000806040838503121561507457615073614335565b5b6000615082858286016144a6565b9250506020615093858286016148f1565b9150509250929050565b60008060008060008060c087890312156150ba576150b9614335565b5b600087013567ffffffffffffffff8111156150d8576150d761433a565b5b6150e489828a01614457565b96505060206150f589828a016144a6565b955050604061510689828a016144a6565b945050606061511789828a016148f1565b935050608061512889828a016148f1565b92505060a087013567ffffffffffffffff8111156151495761514861433a565b5b61515589828a01614457565b9150509295509295509295565b61516b816148a4565b82525050565b61517a81614cc9565b82525050565b600060a0820190506151956000830188615162565b6151a26020830187615162565b6151af6040830186615171565b6151bc6060830185614549565b6151c96080830184614d6d565b9695505050505050565b6000806000606084860312156151ec576151eb614335565b5b60006151fa868287016148f1565b935050602084013567ffffffffffffffff81111561521b5761521a61433a565b5b61522786828701614457565b925050604084013567ffffffffffffffff8111156152485761524761433a565b5b61525486828701614457565b9150509250925092565b600081519050919050565b600082825260208201905092915050565b6000819050602082019050919050565b60a0820160008201516152a06000850182614c93565b5060208201516152b36020850182614c93565b5060408201516152c66040850182614cdb565b5060608201516152d960608501826146da565b5060808201516152ec60808501826145cc565b50505050565b60006152fe838361528a565b60a08301905092915050565b6000602082019050919050565b60006153228261525e565b61532c8185615269565b93506153378361527a565b8060005b8381101561536857815161534f88826152f2565b975061535a8361530a565b92505060018101905061533b565b5085935050505092915050565b6000602082019050818103600083015261538f8184615317565b905092915050565b600081519050919050565b600082825260208201905092915050565b6000819050602082019050919050565b6000610160830160008301516153dc60008601826145cc565b50602083015184820360208601526153f4828261462a565b9150506040830151848203604086015261540e828261462a565b915050606083015161542360608601826146cb565b50608083015161543660808601826149e6565b5060a083015161544960a0860182614a2e565b5060c083015161545c60c08601826146da565b5060e083015161546f60e08601826146da565b506101008301516154846101008601826146da565b506101208301516154996101208601826145cc565b506101408301518482036101408601526154b3828261462a565b9150508091505092915050565b60006154cc83836153c3565b905092915050565b6000602082019050919050565b60006154ec82615397565b6154f681856153a2565b935083602082028501615508856153b3565b8060005b85811015615544578484038952815161552585826154c0565b9450615530836154d4565b925060208a0199505060018101905061550c565b50829750879550505050505092915050565b6000602082019050818103600083015261557081846154e1565b905092915050565b7f596f7520617265206e6f742074686520726967687420757365722e0000000000600082015250565b60006155ae601b83614d97565b91506155b982615578565b602082019050919050565b600060208201905081810360008301526155dd816155a1565b9050919050565b600081905092915050565b60006155fa826145db565b61560481856155e4565b93506156148185602086016145f7565b80840191505092915050565b60008160601b9050919050565b600061563882615620565b9050919050565b600061564a8261562d565b9050919050565b61566261565d82614537565b61563f565b82525050565b6000819050919050565b61568361567e82614485565b615668565b82525050565b600061569582866155ef565b91506156a18285615651565b6014820191506156b18284615672565b602082019150819050949350505050565b7f4e487b7100000000000000000000000000000000000000000000000000000000600052603260045260246000fd5b7f4e487b7100000000000000000000000000000000000000000000000000000000600052602260045260246000fd5b6000600282049050600182168061573857607f821691505b6020821081141561574c5761574b6156f1565b5b50919050565b7f4e487b7100000000000000000000000000000000000000000000000000000000600052601160045260246000fd5b600061578c82614485565b91507fffffffffffffffffffffffffffffffffffffffffffffffffffffffffffffffff8214156157bf576157be615752565b5b600182019050919050565b7f41646472657373206973206e6f742076616c69642e0000000000000000000000600082015250565b6000615800601583614d97565b915061580b826157ca565b602082019050919050565b6000602082019050818103600083015261582f816157f3565b9050919050565b60008160001c9050919050565b6000819050919050565b600061586061585b83615836565b615843565b9050919050565b600060ff82169050919050565b600061588761588283615836565b615867565b9050919050565b60008160081c9050919050565b600073ffffffffffffffffffffffffffffffffffffffff82169050919050565b60006158ce6158c98361588e565b61589b565b9050919050565b6000819050919050565b60006158f26158ed83615836565b6158d5565b9050919050565b60a08201600080830154905061590e8161584d565b61591b6000860182614c93565b506001830154905061592c8161584d565b6159396020860182614c93565b506002830154905061594a81615874565b6159576040860182614cdb565b50615961816158bb565b61596e60608601826146da565b506003830154905061597f816158df565b61598c60808601826145cc565b5050505050565b600060a0820190506159a860008301846158f9565b92915050565b60008190508160005260206000209050919050565b600081546159d081615720565b6159da81866145e6565b945060018216600081146159f55760018114615a0757615a3a565b60ff1983168652602086019350615a3a565b615a10856159ae565b60005b83811015615a3257815481890152600182019150602081019050615a13565b808801955050505b50505092915050565b600060ff82169050919050565b6000615a63615a5e83615836565b615a43565b9050919050565b6000615a7d615a7883615836565b61589b565b9050919050565b60008160a01c9050919050565b600060ff82169050919050565b6000615ab1615aac83615a84565b615a91565b9050919050565b600061014083016000808401549050615ad0816158df565b615add60008701826145cc565b50600184018583036020870152615af483826159c3565b92505060028401549050615b0781615a50565b615b1460408701826146cb565b50600384018583036060870152615b2b83826159c3565b92505060048401549050615b3e81615a6a565b615b4b60808701826146da565b5060058401549050615b5c81615a6a565b615b6960a08701826146da565b5060068401549050615b7a81615a6a565b615b8760c08701826146da565b50615b9181615a9e565b615b9e60e08701826146f5565b5060078401549050615baf816158df565b615bbd6101008701826145cc565b5060088401858303610120870152615bd583826159c3565b925050819250505092915050565b60006020820190508181036000830152615bfd8184615ab8565b905092915050565b600060ff82169050919050565b6000615c25615c208361588e565b615c05565b9050919050565b60008160101c9050919050565b600060ff82169050919050565b6000615c59615c5483615c2c565b615c39565b9050919050565b60008160181c9050919050565b6000615c80615c7b83615c60565b61589b565b9050919050565b600061016083016000808401549050615c9f816158df565b615cac60008701826145cc565b50600184018583036020870152615cc383826159c3565b925050600284018583036040870152615cdc83826159c3565b92505060038401549050615cef81615a50565b615cfc60608701826146cb565b50615d0681615c12565b615d1360808701826149e6565b50615d1d81615c46565b615d2a60a0870182614a2e565b50615d3481615c6d565b615d4160c08701826146da565b5060048401549050615d5281615a6a565b615d5f60e08701826146da565b5060058401549050615d7081615a6a565b615d7e6101008701826146da565b5060068401549050615d8f816158df565b615d9d6101208701826145cc565b5060078401858303610140870152615db583826159c3565b925050819250505092915050565b60006020820190508181036000830152615ddd8184615c87565b90509291505056fea2646970667358221220aa9826b08981686fede1e24ddf09c57b8f6a91c8fbdcc5f23d56c1e17e41b5ef64736f6c634300080b0033",
  "immutableReferences": {},
  "source": "// SPDX-License-Identifier: MIT\r\npragma solidity >=0.8.0 <0.9.0;\r\n\r\nimport \"./UserChain.sol\";\r\n\r\ncontract ProjectChain is UserChain {\r\n\r\n    constructor() {}\r\n\r\n    modifier onlyUserProject() {\r\n        require(Roles(users[msg.sender]._role) == Roles.UserProject, \"You are not the right user.\");\r\n        _;\r\n    }\r\n\r\n    modifier onlyUserProjectAndCompany() {\r\n        require(\r\n            Roles(users[msg.sender]._role) == Roles.UserProject || Roles(users[msg.sender]._role) == Roles.Company,\r\n            \"You are not the right user.\"\r\n        );\r\n        _;\r\n    }\r\n\r\n\r\n    mapping(address => Project) public projects;\r\n    uint256 public projectsCounter = 0;\r\n    address[] public projectsAddress;\r\n\r\n    function createUniqueProjectAddress(string memory _name, uint256 _index)\r\n        public view onlyUserProject returns (address)\r\n    {\r\n        return address(uint160(uint256(keccak256(abi.encodePacked(_name, msg.sender, _index)))));\r\n    }\r\n\r\n    function createProject(\r\n        address _projectAddress,\r\n        string memory _name,\r\n        uint256 _status,\r\n        string memory _ipfsFileCID,\r\n        string memory _signature\r\n    ) public onlyUserProject {\r\n        projects[_projectAddress] = Project(\r\n            projectsCounter,\r\n            _name,\r\n            ProjectStatus(_status),\r\n            _ipfsFileCID,\r\n            _projectAddress,\r\n            msg.sender,\r\n            address(0x0),\r\n            false,\r\n            block.timestamp,\r\n            _signature\r\n        );\r\n\r\n        emit ProjectEvent(projects[_projectAddress], _projectAddress, address(0x0));\r\n        projectsAddress.push(_projectAddress);\r\n        projectsCounter++;\r\n    }\r\n\r\n    function updateProject(\r\n        address _projectAddress,\r\n        string memory _ipfsFileCID,\r\n        string memory _signature\r\n    ) public onlyUserProject {\r\n        projects[_projectAddress]._ipfsFileCID = _ipfsFileCID;\r\n        projects[_projectAddress]._signature = _signature;\r\n\r\n        emit ProjectEvent(projects[_projectAddress], _projectAddress, address(0x0));\r\n    }\r\n\r\n    function getProjectInfo(address _address)\r\n        public view returns (Project memory)\r\n    {\r\n        if (users[msg.sender]._walletAddress != msg.sender) {\r\n            revert(\"You are not the right user.\");\r\n        }\r\n        return projects[_address];\r\n    }\r\n\r\n    function countProjects() internal view returns (uint256) {\r\n        uint256 numbers = 0;\r\n        for (uint256 index = 0; index < projectsCounter; index++) {\r\n            address _projectAddress = projectsAddress[index];\r\n            Project storage project = projects[_projectAddress];\r\n            if (users[msg.sender]._walletAddress == project._signerAddress) {\r\n                numbers += 1;\r\n            }\r\n        }\r\n        return numbers;\r\n    }\r\n\r\n    function getProjects(uint256 projectsNumber)\r\n        public view onlyUserProjectAndCompany returns (Project[] memory)\r\n    {\r\n        Project[] memory allProjects;\r\n        if (projectsCounter == 0) return allProjects;\r\n\r\n        allProjects = new Project[](projectsNumber);\r\n        for (uint256 index = 0; index < projectsCounter; index++) {\r\n            address _projectAddress = projectsAddress[index];\r\n            Project storage project = projects[_projectAddress];\r\n            if (users[msg.sender]._walletAddress == project._signerAddress) {\r\n                allProjects[index] = project;\r\n            }\r\n        }\r\n        return allProjects;\r\n    }\r\n\r\n\r\n    mapping(address => Request) public requests;\r\n    uint256 public requestsCounter = 0;\r\n    address[] public requestsAddress;\r\n\r\n    function createUniqueRequestAddress(string memory _title, uint256 _index)\r\n        public view returns (address)\r\n    {\r\n        require(users[msg.sender]._walletAddress == msg.sender, \"Address is not valid.\");\r\n        return address(uint160(uint256(keccak256(abi.encodePacked(_title, msg.sender, _index)))));\r\n    }\r\n\r\n    function createRequest(\r\n        string memory _title,\r\n        uint256 _projectStatus,\r\n        uint256 _requestStatus,\r\n        address _projectAddress,\r\n        address _requestAddress,\r\n        string memory _signature\r\n    ) public onlyUserProjectAndCompany {\r\n        RequestType _requestType = RequestType.SupervisorReq;\r\n        if (ProjectStatus(_projectStatus) == ProjectStatus.StartProject) {\r\n            _requestType = RequestType.CompanyReq;\r\n        }\r\n\r\n        requests[_requestAddress] = Request(\r\n            requestsCounter,\r\n            _title,\r\n            \"\",\r\n            ProjectStatus(_projectStatus),\r\n            RequestStatus(_requestStatus),\r\n            RequestType(_requestType),\r\n            _projectAddress,\r\n            _requestAddress,\r\n            msg.sender,\r\n            block.timestamp,\r\n            _signature\r\n        );\r\n\r\n        emit RequestEvent(requests[_requestAddress], _requestAddress, _projectAddress);\r\n        requestsAddress.push(_requestAddress);\r\n        requestsCounter++;\r\n    }\r\n\r\n    function updateSupervisorRequest(\r\n        string memory _comments,\r\n        uint256 _requestStatus,\r\n        uint256 _projectStatus,\r\n        address _projectAddress,\r\n        address _requestAddress,\r\n        string memory _signature\r\n    ) public {\r\n        require(Roles(users[msg.sender]._role) == Roles.Supervisor, \"You are not the right user.\");\r\n\r\n        // Update Requests Mapping and Struct Array\r\n        requests[_requestAddress]._comments = _comments;\r\n        requests[_requestAddress]._requestStatus = RequestStatus(_requestStatus);\r\n        requests[_requestAddress]._signature = _signature;\r\n        emit RequestEvent(requests[_requestAddress], _requestAddress, _projectAddress);\r\n\r\n        // Update Project Mapping and Struct Array\r\n        if (RequestStatus.Approved == RequestStatus(_requestStatus)) {\r\n            projects[_projectAddress]._status = ProjectStatus(_projectStatus);\r\n            emit ProjectEvent(projects[_projectAddress], _projectAddress, address(0x0));\r\n        }\r\n    }\r\n\r\n    function updateCompanyRequest(\r\n        string memory _comments,\r\n        uint256 _requestStatus,\r\n        uint256 _projectStatus,\r\n        address _projectAddress,\r\n        address _requestAddress,\r\n        string memory _signature\r\n    ) public {\r\n        require(Roles(users[msg.sender]._role) == Roles.Company, \"You are not the right user.\");\r\n\r\n        // Update Requests Mapping and Struct Array\r\n        requests[_requestAddress]._comments = _comments;\r\n        requests[_requestAddress]._requestStatus = RequestStatus(_requestStatus);\r\n        requests[_requestAddress]._signature = _signature;\r\n        emit RequestEvent(requests[_requestAddress], _requestAddress, _projectAddress);\r\n\r\n        // Update Project Mapping and Struct Array\r\n        if (RequestStatus.Approved == RequestStatus(_requestStatus)) {\r\n            projects[_projectAddress]._status = ProjectStatus(_projectStatus);\r\n            projects[_projectAddress]._companyAddress = msg.sender;\r\n            emit ProjectEvent(projects[_projectAddress], _projectAddress, msg.sender);\r\n        }\r\n    }\r\n\r\n    function getAllRequests() public view returns (Request[] memory) {\r\n        require(users[msg.sender]._walletAddress == msg.sender, \"Address is not valid.\");\r\n\r\n        Request[] memory allRequests = new Request[](requestsCounter);\r\n        for (uint256 index = 0; index < requestsCounter; index++) {\r\n            address _requestAddress = requestsAddress[index];\r\n            Request storage request = requests[_requestAddress];\r\n            allRequests[index] = request;\r\n        }\r\n        return allRequests;\r\n    }\r\n\r\n    function getLastProjectRequest(address _projectAddress, address _requestAddress) \r\n        public view onlyUserProjectAndCompany returns (Request memory)\r\n    {\r\n        Request memory request;\r\n        if (requestsCounter > 0) {\r\n            if (requests[_requestAddress]._projectAddress == _projectAddress) {\r\n                request = requests[_requestAddress];\r\n            }\r\n        }\r\n        return request;\r\n    }\r\n}\r\n",
  "sourcePath": "/mnt/c/Users/Beniamin/source/repos/DissertationProject/contracts/ProjectChain.sol",
  "compiler": {
    "name": "solc",
    "version": "0.8.11+commit.d7f03943.Emscripten.clang"
  },
  "schemaVersion": "3.4.3",
  "updatedAt": "2022-01-10T16:28:17.367Z",
  "networkType": "ethereum",
  "devdoc": {
    "kind": "dev",
    "methods": {},
    "version": 1
  },
  "userdoc": {
    "kind": "user",
    "methods": {},
    "version": 1
  }
}