{
  "contractName": "ProjectChain",
  "abi": [
    {
      "inputs": [],
      "stateMutability": "nonpayable",
      "type": "constructor"
    },
    {
      "anonymous": false,
      "inputs": [
        {
          "components": [
            {
              "internalType": "uint256",
              "name": "_index",
              "type": "uint256"
            },
            {
              "internalType": "string",
              "name": "_name",
              "type": "string"
            },
            {
              "internalType": "enum SharedChain.ProjectStatus",
              "name": "_status",
              "type": "uint8"
            },
            {
              "internalType": "string",
              "name": "_ipfsFileCID",
              "type": "string"
            },
            {
              "internalType": "address",
              "name": "_projectAddress",
              "type": "address"
            },
            {
              "internalType": "address",
              "name": "_signerAddress",
              "type": "address"
            },
            {
              "internalType": "uint256",
              "name": "_timestamp",
              "type": "uint256"
            },
            {
              "internalType": "string",
              "name": "_signature",
              "type": "string"
            }
          ],
          "indexed": false,
          "internalType": "struct SharedChain.Project",
          "name": "_project",
          "type": "tuple"
        },
        {
          "indexed": true,
          "internalType": "address",
          "name": "_projectAddress",
          "type": "address"
        }
      ],
      "name": "ProjectEvent",
      "type": "event"
    },
    {
      "anonymous": false,
      "inputs": [
        {
          "components": [
            {
              "internalType": "uint256",
              "name": "_index",
              "type": "uint256"
            },
            {
              "internalType": "string",
              "name": "_title",
              "type": "string"
            },
            {
              "internalType": "string",
              "name": "_comments",
              "type": "string"
            },
            {
              "internalType": "enum SharedChain.ProjectStatus",
              "name": "_status",
              "type": "uint8"
            },
            {
              "internalType": "enum SharedChain.RequestStatus",
              "name": "_requestStatus",
              "type": "uint8"
            },
            {
              "internalType": "address",
              "name": "_projectAddress",
              "type": "address"
            },
            {
              "internalType": "address",
              "name": "_signerAddress",
              "type": "address"
            },
            {
              "internalType": "address",
              "name": "_requestAddress",
              "type": "address"
            },
            {
              "internalType": "uint256",
              "name": "_timestamp",
              "type": "uint256"
            },
            {
              "internalType": "string",
              "name": "_signature",
              "type": "string"
            }
          ],
          "indexed": false,
          "internalType": "struct SharedChain.ProjectRequest",
          "name": "_projectRequest",
          "type": "tuple"
        },
        {
          "indexed": true,
          "internalType": "address",
          "name": "_projectAddress",
          "type": "address"
        }
      ],
      "name": "ProjectRequestEvent",
      "type": "event"
    },
    {
      "anonymous": false,
      "inputs": [
        {
          "components": [
            {
              "internalType": "uint256",
              "name": "_index",
              "type": "uint256"
            },
            {
              "internalType": "uint256",
              "name": "_indexProjectRequest",
              "type": "uint256"
            },
            {
              "internalType": "string",
              "name": "_title",
              "type": "string"
            },
            {
              "internalType": "enum SharedChain.RequestStatus",
              "name": "_requestStatus",
              "type": "uint8"
            },
            {
              "internalType": "enum SharedChain.ProjectStatus",
              "name": "_projectStatus",
              "type": "uint8"
            },
            {
              "internalType": "enum SharedChain.RequestType",
              "name": "_requestType",
              "type": "uint8"
            },
            {
              "internalType": "address",
              "name": "_projectAddress",
              "type": "address"
            },
            {
              "internalType": "address",
              "name": "_signerAddress",
              "type": "address"
            },
            {
              "internalType": "address",
              "name": "_requestAddress",
              "type": "address"
            },
            {
              "internalType": "uint256",
              "name": "_timestamp",
              "type": "uint256"
            },
            {
              "internalType": "string",
              "name": "_signature",
              "type": "string"
            }
          ],
          "indexed": false,
          "internalType": "struct SharedChain.Request",
          "name": "_request",
          "type": "tuple"
        },
        {
          "indexed": true,
          "internalType": "address",
          "name": "_requestAddress",
          "type": "address"
        }
      ],
      "name": "RequestEvent",
      "type": "event"
    },
    {
      "anonymous": false,
      "inputs": [
        {
          "components": [
            {
              "internalType": "uint256",
              "name": "_index",
              "type": "uint256"
            },
            {
              "internalType": "string",
              "name": "_username",
              "type": "string"
            },
            {
              "internalType": "bytes32",
              "name": "_email",
              "type": "bytes32"
            },
            {
              "internalType": "bytes32",
              "name": "_firstname",
              "type": "bytes32"
            },
            {
              "internalType": "bytes32",
              "name": "_lastname",
              "type": "bytes32"
            },
            {
              "internalType": "enum SharedChain.Roles",
              "name": "_role",
              "type": "uint8"
            },
            {
              "internalType": "address",
              "name": "_walletAddress",
              "type": "address"
            },
            {
              "internalType": "uint256",
              "name": "_timestamp",
              "type": "uint256"
            },
            {
              "internalType": "string",
              "name": "_signature",
              "type": "string"
            }
          ],
          "indexed": false,
          "internalType": "struct SharedChain.User",
          "name": "_user",
          "type": "tuple"
        },
        {
          "indexed": true,
          "internalType": "address",
          "name": "_walletAddress",
          "type": "address"
        }
      ],
      "name": "UserEvent",
      "type": "event"
    },
    {
      "inputs": [
        {
          "internalType": "uint256",
          "name": "",
          "type": "uint256"
        }
      ],
      "name": "projectRequests",
      "outputs": [
        {
          "internalType": "uint256",
          "name": "_index",
          "type": "uint256"
        },
        {
          "internalType": "string",
          "name": "_title",
          "type": "string"
        },
        {
          "internalType": "string",
          "name": "_comments",
          "type": "string"
        },
        {
          "internalType": "enum SharedChain.ProjectStatus",
          "name": "_status",
          "type": "uint8"
        },
        {
          "internalType": "enum SharedChain.RequestStatus",
          "name": "_requestStatus",
          "type": "uint8"
        },
        {
          "internalType": "address",
          "name": "_projectAddress",
          "type": "address"
        },
        {
          "internalType": "address",
          "name": "_signerAddress",
          "type": "address"
        },
        {
          "internalType": "address",
          "name": "_requestAddress",
          "type": "address"
        },
        {
          "internalType": "uint256",
          "name": "_timestamp",
          "type": "uint256"
        },
        {
          "internalType": "string",
          "name": "_signature",
          "type": "string"
        }
      ],
      "stateMutability": "view",
      "type": "function",
      "constant": true
    },
    {
      "inputs": [
        {
          "internalType": "uint256",
          "name": "",
          "type": "uint256"
        }
      ],
      "name": "projectRequestsAddress",
      "outputs": [
        {
          "internalType": "address",
          "name": "",
          "type": "address"
        }
      ],
      "stateMutability": "view",
      "type": "function",
      "constant": true
    },
    {
      "inputs": [],
      "name": "projectRequestsCounter",
      "outputs": [
        {
          "internalType": "uint256",
          "name": "",
          "type": "uint256"
        }
      ],
      "stateMutability": "view",
      "type": "function",
      "constant": true
    },
    {
      "inputs": [
        {
          "internalType": "address",
          "name": "",
          "type": "address"
        }
      ],
      "name": "projects",
      "outputs": [
        {
          "internalType": "uint256",
          "name": "_index",
          "type": "uint256"
        },
        {
          "internalType": "string",
          "name": "_name",
          "type": "string"
        },
        {
          "internalType": "enum SharedChain.ProjectStatus",
          "name": "_status",
          "type": "uint8"
        },
        {
          "internalType": "string",
          "name": "_ipfsFileCID",
          "type": "string"
        },
        {
          "internalType": "address",
          "name": "_projectAddress",
          "type": "address"
        },
        {
          "internalType": "address",
          "name": "_signerAddress",
          "type": "address"
        },
        {
          "internalType": "uint256",
          "name": "_timestamp",
          "type": "uint256"
        },
        {
          "internalType": "string",
          "name": "_signature",
          "type": "string"
        }
      ],
      "stateMutability": "view",
      "type": "function",
      "constant": true
    },
    {
      "inputs": [
        {
          "internalType": "uint256",
          "name": "",
          "type": "uint256"
        }
      ],
      "name": "projectsAddress",
      "outputs": [
        {
          "internalType": "address",
          "name": "",
          "type": "address"
        }
      ],
      "stateMutability": "view",
      "type": "function",
      "constant": true
    },
    {
      "inputs": [],
      "name": "projectsCounter",
      "outputs": [
        {
          "internalType": "uint256",
          "name": "",
          "type": "uint256"
        }
      ],
      "stateMutability": "view",
      "type": "function",
      "constant": true
    },
    {
      "inputs": [
        {
          "internalType": "uint256",
          "name": "",
          "type": "uint256"
        }
      ],
      "name": "requests",
      "outputs": [
        {
          "internalType": "uint256",
          "name": "_index",
          "type": "uint256"
        },
        {
          "internalType": "uint256",
          "name": "_indexProjectRequest",
          "type": "uint256"
        },
        {
          "internalType": "string",
          "name": "_title",
          "type": "string"
        },
        {
          "internalType": "enum SharedChain.RequestStatus",
          "name": "_requestStatus",
          "type": "uint8"
        },
        {
          "internalType": "enum SharedChain.ProjectStatus",
          "name": "_projectStatus",
          "type": "uint8"
        },
        {
          "internalType": "enum SharedChain.RequestType",
          "name": "_requestType",
          "type": "uint8"
        },
        {
          "internalType": "address",
          "name": "_projectAddress",
          "type": "address"
        },
        {
          "internalType": "address",
          "name": "_signerAddress",
          "type": "address"
        },
        {
          "internalType": "address",
          "name": "_requestAddress",
          "type": "address"
        },
        {
          "internalType": "uint256",
          "name": "_timestamp",
          "type": "uint256"
        },
        {
          "internalType": "string",
          "name": "_signature",
          "type": "string"
        }
      ],
      "stateMutability": "view",
      "type": "function",
      "constant": true
    },
    {
      "inputs": [],
      "name": "requestsCounter",
      "outputs": [
        {
          "internalType": "uint256",
          "name": "",
          "type": "uint256"
        }
      ],
      "stateMutability": "view",
      "type": "function",
      "constant": true
    },
    {
      "inputs": [],
      "name": "getUsersCounter",
      "outputs": [
        {
          "internalType": "uint256",
          "name": "",
          "type": "uint256"
        }
      ],
      "stateMutability": "view",
      "type": "function",
      "constant": true
    },
    {
      "inputs": [
        {
          "internalType": "string",
          "name": "_name",
          "type": "string"
        },
        {
          "internalType": "uint256",
          "name": "_index",
          "type": "uint256"
        }
      ],
      "name": "createUniqueProjectAddress",
      "outputs": [
        {
          "internalType": "address",
          "name": "",
          "type": "address"
        }
      ],
      "stateMutability": "view",
      "type": "function",
      "constant": true
    },
    {
      "inputs": [
        {
          "internalType": "address",
          "name": "_projectAddress",
          "type": "address"
        },
        {
          "internalType": "string",
          "name": "_name",
          "type": "string"
        },
        {
          "internalType": "uint256",
          "name": "_status",
          "type": "uint256"
        },
        {
          "internalType": "string",
          "name": "_ipfsFileCID",
          "type": "string"
        },
        {
          "internalType": "string",
          "name": "_signature",
          "type": "string"
        }
      ],
      "name": "createProject",
      "outputs": [],
      "stateMutability": "nonpayable",
      "type": "function"
    },
    {
      "inputs": [
        {
          "internalType": "address",
          "name": "_projectAddress",
          "type": "address"
        },
        {
          "internalType": "string",
          "name": "_ipfsFileCID",
          "type": "string"
        },
        {
          "internalType": "string",
          "name": "_signature",
          "type": "string"
        }
      ],
      "name": "updateProject",
      "outputs": [],
      "stateMutability": "nonpayable",
      "type": "function"
    },
    {
      "inputs": [
        {
          "internalType": "address",
          "name": "_address",
          "type": "address"
        }
      ],
      "name": "getProjectInfo",
      "outputs": [
        {
          "components": [
            {
              "internalType": "uint256",
              "name": "_index",
              "type": "uint256"
            },
            {
              "internalType": "string",
              "name": "_name",
              "type": "string"
            },
            {
              "internalType": "enum SharedChain.ProjectStatus",
              "name": "_status",
              "type": "uint8"
            },
            {
              "internalType": "string",
              "name": "_ipfsFileCID",
              "type": "string"
            },
            {
              "internalType": "address",
              "name": "_projectAddress",
              "type": "address"
            },
            {
              "internalType": "address",
              "name": "_signerAddress",
              "type": "address"
            },
            {
              "internalType": "uint256",
              "name": "_timestamp",
              "type": "uint256"
            },
            {
              "internalType": "string",
              "name": "_signature",
              "type": "string"
            }
          ],
          "internalType": "struct SharedChain.Project",
          "name": "",
          "type": "tuple"
        }
      ],
      "stateMutability": "view",
      "type": "function",
      "constant": true
    },
    {
      "inputs": [],
      "name": "getAllProjects",
      "outputs": [
        {
          "components": [
            {
              "internalType": "uint256",
              "name": "_index",
              "type": "uint256"
            },
            {
              "internalType": "string",
              "name": "_name",
              "type": "string"
            },
            {
              "internalType": "enum SharedChain.ProjectStatus",
              "name": "_status",
              "type": "uint8"
            },
            {
              "internalType": "string",
              "name": "_ipfsFileCID",
              "type": "string"
            },
            {
              "internalType": "address",
              "name": "_projectAddress",
              "type": "address"
            },
            {
              "internalType": "address",
              "name": "_signerAddress",
              "type": "address"
            },
            {
              "internalType": "uint256",
              "name": "_timestamp",
              "type": "uint256"
            },
            {
              "internalType": "string",
              "name": "_signature",
              "type": "string"
            }
          ],
          "internalType": "struct SharedChain.Project[]",
          "name": "",
          "type": "tuple[]"
        }
      ],
      "stateMutability": "view",
      "type": "function",
      "constant": true
    },
    {
      "inputs": [
        {
          "internalType": "string",
          "name": "_title",
          "type": "string"
        },
        {
          "internalType": "uint256",
          "name": "_index",
          "type": "uint256"
        }
      ],
      "name": "createUniqueProjectRequestAddress",
      "outputs": [
        {
          "internalType": "address",
          "name": "",
          "type": "address"
        }
      ],
      "stateMutability": "view",
      "type": "function",
      "constant": true
    },
    {
      "inputs": [
        {
          "internalType": "string",
          "name": "_title",
          "type": "string"
        },
        {
          "internalType": "uint256",
          "name": "_status",
          "type": "uint256"
        },
        {
          "internalType": "uint256",
          "name": "_requestStatus",
          "type": "uint256"
        },
        {
          "internalType": "address",
          "name": "_projectAddress",
          "type": "address"
        },
        {
          "internalType": "address",
          "name": "_projectReqAddress",
          "type": "address"
        },
        {
          "internalType": "string",
          "name": "_signature",
          "type": "string"
        }
      ],
      "name": "createProjectRequest",
      "outputs": [],
      "stateMutability": "nonpayable",
      "type": "function"
    },
    {
      "inputs": [],
      "name": "getAllProjectRequests",
      "outputs": [
        {
          "components": [
            {
              "internalType": "uint256",
              "name": "_index",
              "type": "uint256"
            },
            {
              "internalType": "string",
              "name": "_title",
              "type": "string"
            },
            {
              "internalType": "string",
              "name": "_comments",
              "type": "string"
            },
            {
              "internalType": "enum SharedChain.ProjectStatus",
              "name": "_status",
              "type": "uint8"
            },
            {
              "internalType": "enum SharedChain.RequestStatus",
              "name": "_requestStatus",
              "type": "uint8"
            },
            {
              "internalType": "address",
              "name": "_projectAddress",
              "type": "address"
            },
            {
              "internalType": "address",
              "name": "_signerAddress",
              "type": "address"
            },
            {
              "internalType": "address",
              "name": "_requestAddress",
              "type": "address"
            },
            {
              "internalType": "uint256",
              "name": "_timestamp",
              "type": "uint256"
            },
            {
              "internalType": "string",
              "name": "_signature",
              "type": "string"
            }
          ],
          "internalType": "struct SharedChain.ProjectRequest[]",
          "name": "",
          "type": "tuple[]"
        }
      ],
      "stateMutability": "view",
      "type": "function",
      "constant": true
    },
    {
      "inputs": [
        {
          "internalType": "address",
          "name": "_projectAddress",
          "type": "address"
        }
      ],
      "name": "getLastProjectRequest",
      "outputs": [
        {
          "components": [
            {
              "internalType": "uint256",
              "name": "_index",
              "type": "uint256"
            },
            {
              "internalType": "string",
              "name": "_title",
              "type": "string"
            },
            {
              "internalType": "string",
              "name": "_comments",
              "type": "string"
            },
            {
              "internalType": "enum SharedChain.ProjectStatus",
              "name": "_status",
              "type": "uint8"
            },
            {
              "internalType": "enum SharedChain.RequestStatus",
              "name": "_requestStatus",
              "type": "uint8"
            },
            {
              "internalType": "address",
              "name": "_projectAddress",
              "type": "address"
            },
            {
              "internalType": "address",
              "name": "_signerAddress",
              "type": "address"
            },
            {
              "internalType": "address",
              "name": "_requestAddress",
              "type": "address"
            },
            {
              "internalType": "uint256",
              "name": "_timestamp",
              "type": "uint256"
            },
            {
              "internalType": "string",
              "name": "_signature",
              "type": "string"
            }
          ],
          "internalType": "struct SharedChain.ProjectRequest",
          "name": "",
          "type": "tuple"
        }
      ],
      "stateMutability": "view",
      "type": "function",
      "constant": true
    },
    {
      "inputs": [
        {
          "internalType": "uint256",
          "name": "_index",
          "type": "uint256"
        },
        {
          "internalType": "uint256",
          "name": "_indexProjectRequest",
          "type": "uint256"
        },
        {
          "internalType": "string",
          "name": "_comments",
          "type": "string"
        },
        {
          "internalType": "uint256",
          "name": "_requestStatus",
          "type": "uint256"
        },
        {
          "internalType": "uint256",
          "name": "_projectStatus",
          "type": "uint256"
        },
        {
          "internalType": "address",
          "name": "_projectAddress",
          "type": "address"
        },
        {
          "internalType": "string",
          "name": "_signature",
          "type": "string"
        }
      ],
      "name": "updateRequest",
      "outputs": [],
      "stateMutability": "nonpayable",
      "type": "function"
    },
    {
      "inputs": [],
      "name": "getAllRequests",
      "outputs": [
        {
          "components": [
            {
              "internalType": "uint256",
              "name": "_index",
              "type": "uint256"
            },
            {
              "internalType": "uint256",
              "name": "_indexProjectRequest",
              "type": "uint256"
            },
            {
              "internalType": "string",
              "name": "_title",
              "type": "string"
            },
            {
              "internalType": "enum SharedChain.RequestStatus",
              "name": "_requestStatus",
              "type": "uint8"
            },
            {
              "internalType": "enum SharedChain.ProjectStatus",
              "name": "_projectStatus",
              "type": "uint8"
            },
            {
              "internalType": "enum SharedChain.RequestType",
              "name": "_requestType",
              "type": "uint8"
            },
            {
              "internalType": "address",
              "name": "_projectAddress",
              "type": "address"
            },
            {
              "internalType": "address",
              "name": "_signerAddress",
              "type": "address"
            },
            {
              "internalType": "address",
              "name": "_requestAddress",
              "type": "address"
            },
            {
              "internalType": "uint256",
              "name": "_timestamp",
              "type": "uint256"
            },
            {
              "internalType": "string",
              "name": "_signature",
              "type": "string"
            }
          ],
          "internalType": "struct SharedChain.Request[]",
          "name": "",
          "type": "tuple[]"
        }
      ],
      "stateMutability": "view",
      "type": "function",
      "constant": true
    }
  ],
  "bytecode": "0x60806040526000600355600060065560006009553480156200002057600080fd5b50336000806101000a81548173ffffffffffffffffffffffffffffffffffffffff021916908373ffffffffffffffffffffffffffffffffffffffff1602179055506040516200006f90620000d3565b604051809103906000f0801580156200008c573d6000803e3d6000fd5b50600160006101000a81548173ffffffffffffffffffffffffffffffffffffffff021916908373ffffffffffffffffffffffffffffffffffffffff160217905550620000e1565b6118e18062004b2383390190565b614a3280620000f16000396000f3fe608060405234801561001057600080fd5b506004361061012c5760003560e01c806381d12c58116100ad578063e1592c0d11610071578063e1592c0d146103ab578063ea95d931146103c7578063fb1a002a146103e5578063fbdd646014610403578063fe360ea51461041f5761012c565b806381d12c58146102c7578063840e78fd146103015780638448556314610338578063c19ded1314610354578063cc1ee4db1461038d5761012c565b8063663c2269116100f4578063663c2269146101fb57806376c932e01461021957806378e8cd85146102495780637bc406ec1461027957806380d03829146102a95761012c565b80630b28789214610131578063191e1645146101615780632d757d8e14610191578063400003db146101ad57806347ee45b9146101cb575b600080fd5b61014b600480360381019061014691906130e1565b61043d565b6040516101589190613376565b60405180910390f35b61017b600480360381019061017691906134f9565b610662565b6040516101889190613564565b60405180910390f35b6101ab60048036038101906101a6919061357f565b6106ba565b005b6101b5610a21565b6040516101c29190613803565b60405180910390f35b6101e560048036038101906101e091906130e1565b610e3e565b6040516101f291906138e3565b60405180910390f35b610203611149565b6040516102109190613914565b60405180910390f35b610233600480360381019061022e919061392f565b61114f565b6040516102409190613564565b60405180910390f35b610263600480360381019061025e919061392f565b61118e565b6040516102709190613564565b60405180910390f35b610293600480360381019061028e91906134f9565b6111cd565b6040516102a09190613564565b60405180910390f35b6102b1611225565b6040516102be9190613adc565b60405180910390f35b6102e160048036038101906102dc919061392f565b611621565b6040516102f89b9a99989796959493929190613bae565b60405180910390f35b61031b600480360381019061031691906130e1565b611812565b60405161032f989796959493929190613c67565b60405180910390f35b610352600480360381019061034d9190613cfa565b611a3f565b005b61036e6004803603810190610369919061392f565b611d64565b6040516103849a99989796959493929190613dc9565b60405180910390f35b610395611fca565b6040516103a29190613914565b60405180910390f35b6103c560048036038101906103c09190613e7a565b611fd0565b005b6103cf61210f565b6040516103dc9190613914565b60405180910390f35b6103ed6121a7565b6040516103fa91906140cc565b60405180910390f35b61041d600480360381019061041891906140ee565b612577565b005b610427612928565b6040516104349190613914565b60405180910390f35b610445612dbe565b61044d612dbe565b60006006541115610658576000600160065461046991906141e2565b90505b60008110610656576005600082815260200190815260200160002060030160029054906101000a900473ffffffffffffffffffffffffffffffffffffffff1673ffffffffffffffffffffffffffffffffffffffff168473ffffffffffffffffffffffffffffffffffffffff16141561064357604051806101400160405280600081526020016040518060200160405280600081525081526020016040518060200160405280600081525081526020016005600084815260200190815260200160002060030160009054906101000a900460ff166004811115610551576105506131c0565b5b81526020016005600084815260200190815260200160002060030160019054906101000a900460ff16600281111561058c5761058b6131c0565b5b81526020016005600084815260200190815260200160002060030160029054906101000a900473ffffffffffffffffffffffffffffffffffffffff1673ffffffffffffffffffffffffffffffffffffffff168152602001600073ffffffffffffffffffffffffffffffffffffffff168152602001600073ffffffffffffffffffffffffffffffffffffffff16815260200160008152602001604051806020016040528060008152508152509150819250505061065d565b808061064e90614216565b91505061046c565b505b809150505b919050565b60008260008054906101000a900473ffffffffffffffffffffffffffffffffffffffff1683604051602001610699939291906142e5565b6040516020818303038152906040528051906020012060001c905092915050565b8360028111156106cd576106cc6131c0565b5b6008600089815260200190815260200160002060030160006101000a81548160ff02191690836002811115610705576107046131c0565b5b021790555080600860008981526020019081526020016000206007019080519060200190610734929190612e77565b506008600088815260200190815260200160002060050160009054906101000a900473ffffffffffffffffffffffffffffffffffffffff1673ffffffffffffffffffffffffffffffffffffffff167f4a2aa9c37fdc971a24d9081164299dd70beb053eacacaeb4e59d5d998334ef11600860008a81526020019081526020016000206040516107c39190614676565b60405180910390a2846005600088815260200190815260200160002060020190805190602001906107f5929190612e77565b50836002811115610809576108086131c0565b5b6005600088815260200190815260200160002060030160016101000a81548160ff02191690836002811115610841576108406131c0565b5b021790555080600560008881526020019081526020016000206007019080519060200190610870929190612e77565b508173ffffffffffffffffffffffffffffffffffffffff167fb503855b01edd8caf0051e68bacef096056daa0d24478362eaa8a4f4b8a7130e600560008981526020019081526020016000206040516108c9919061480a565b60405180910390a28360028111156108e4576108e36131c0565b5b60028111156108f6576108f56131c0565b5b600280811115610909576109086131c0565b5b1415610a1857826004811115610922576109216131c0565b5b600260008473ffffffffffffffffffffffffffffffffffffffff1673ffffffffffffffffffffffffffffffffffffffff16815260200190815260200160002060020160006101000a81548160ff02191690836004811115610986576109856131c0565b5b02179055508173ffffffffffffffffffffffffffffffffffffffff167fac85378acf27ea180ea9b66d81dac89bcc984812edf7111c9413f708da4ca37a600260008573ffffffffffffffffffffffffffffffffffffffff1673ffffffffffffffffffffffffffffffffffffffff168152602001908152602001600020604051610a0f9190614920565b60405180910390a25b50505050505050565b60608060006006541415610a385780915050610e3b565b60065467ffffffffffffffff811115610a5457610a536133a2565b5b604051908082528060200260200182016040528015610a8d57816020015b610a7a612dbe565b815260200190600190039081610a725790505b50905060005b600654811015610e35576000600560008381526020019081526020016000209050806040518061014001604052908160008201548152602001600182018054610adb9061437e565b80601f0160208091040260200160405190810160405280929190818152602001828054610b079061437e565b8015610b545780601f10610b2957610100808354040283529160200191610b54565b820191906000526020600020905b815481529060010190602001808311610b3757829003601f168201915b50505050508152602001600282018054610b6d9061437e565b80601f0160208091040260200160405190810160405280929190818152602001828054610b999061437e565b8015610be65780601f10610bbb57610100808354040283529160200191610be6565b820191906000526020600020905b815481529060010190602001808311610bc957829003601f168201915b505050505081526020016003820160009054906101000a900460ff166004811115610c1457610c136131c0565b5b6004811115610c2657610c256131c0565b5b81526020016003820160019054906101000a900460ff166002811115610c4f57610c4e6131c0565b5b6002811115610c6157610c606131c0565b5b81526020016003820160029054906101000a900473ffffffffffffffffffffffffffffffffffffffff1673ffffffffffffffffffffffffffffffffffffffff1673ffffffffffffffffffffffffffffffffffffffff1681526020016004820160009054906101000a900473ffffffffffffffffffffffffffffffffffffffff1673ffffffffffffffffffffffffffffffffffffffff1673ffffffffffffffffffffffffffffffffffffffff1681526020016005820160009054906101000a900473ffffffffffffffffffffffffffffffffffffffff1673ffffffffffffffffffffffffffffffffffffffff1673ffffffffffffffffffffffffffffffffffffffff16815260200160068201548152602001600782018054610d819061437e565b80601f0160208091040260200160405190810160405280929190818152602001828054610dad9061437e565b8015610dfa5780601f10610dcf57610100808354040283529160200191610dfa565b820191906000526020600020905b815481529060010190602001808311610ddd57829003601f168201915b505050505081525050838381518110610e1657610e15614942565b5b6020026020010181905250508080610e2d90614971565b915050610a93565b50809150505b90565b610e46612efd565b600260008373ffffffffffffffffffffffffffffffffffffffff1673ffffffffffffffffffffffffffffffffffffffff1681526020019081526020016000206040518061010001604052908160008201548152602001600182018054610eab9061437e565b80601f0160208091040260200160405190810160405280929190818152602001828054610ed79061437e565b8015610f245780601f10610ef957610100808354040283529160200191610f24565b820191906000526020600020905b815481529060010190602001808311610f0757829003601f168201915b505050505081526020016002820160009054906101000a900460ff166004811115610f5257610f516131c0565b5b6004811115610f6457610f636131c0565b5b8152602001600382018054610f789061437e565b80601f0160208091040260200160405190810160405280929190818152602001828054610fa49061437e565b8015610ff15780601f10610fc657610100808354040283529160200191610ff1565b820191906000526020600020905b815481529060010190602001808311610fd457829003601f168201915b505050505081526020016004820160009054906101000a900473ffffffffffffffffffffffffffffffffffffffff1673ffffffffffffffffffffffffffffffffffffffff1673ffffffffffffffffffffffffffffffffffffffff1681526020016005820160009054906101000a900473ffffffffffffffffffffffffffffffffffffffff1673ffffffffffffffffffffffffffffffffffffffff1673ffffffffffffffffffffffffffffffffffffffff168152602001600682015481526020016007820180546110c09061437e565b80601f01602080910402602001604051908101604052809291908181526020018280546110ec9061437e565b80156111395780601f1061110e57610100808354040283529160200191611139565b820191906000526020600020905b81548152906001019060200180831161111c57829003601f168201915b5050505050815250509050919050565b60095481565b6004818154811061115f57600080fd5b906000526020600020016000915054906101000a900473ffffffffffffffffffffffffffffffffffffffff1681565b6007818154811061119e57600080fd5b906000526020600020016000915054906101000a900473ffffffffffffffffffffffffffffffffffffffff1681565b60008260008054906101000a900473ffffffffffffffffffffffffffffffffffffffff1683604051602001611204939291906142e5565b6040516020818303038152906040528051906020012060001c905092915050565b6060806000600354141561123c578091505061161e565b60035467ffffffffffffffff811115611258576112576133a2565b5b60405190808252806020026020018201604052801561129157816020015b61127e612efd565b8152602001906001900390816112765790505b50905060005b600354811015611618576000600482815481106112b7576112b6614942565b5b9060005260206000200160009054906101000a900473ffffffffffffffffffffffffffffffffffffffff1690506000600260008373ffffffffffffffffffffffffffffffffffffffff1673ffffffffffffffffffffffffffffffffffffffff168152602001908152602001600020905080604051806101000160405290816000820154815260200160018201805461134e9061437e565b80601f016020809104026020016040519081016040528092919081815260200182805461137a9061437e565b80156113c75780601f1061139c576101008083540402835291602001916113c7565b820191906000526020600020905b8154815290600101906020018083116113aa57829003601f168201915b505050505081526020016002820160009054906101000a900460ff1660048111156113f5576113f46131c0565b5b6004811115611407576114066131c0565b5b815260200160038201805461141b9061437e565b80601f01602080910402602001604051908101604052809291908181526020018280546114479061437e565b80156114945780601f1061146957610100808354040283529160200191611494565b820191906000526020600020905b81548152906001019060200180831161147757829003601f168201915b505050505081526020016004820160009054906101000a900473ffffffffffffffffffffffffffffffffffffffff1673ffffffffffffffffffffffffffffffffffffffff1673ffffffffffffffffffffffffffffffffffffffff1681526020016005820160009054906101000a900473ffffffffffffffffffffffffffffffffffffffff1673ffffffffffffffffffffffffffffffffffffffff1673ffffffffffffffffffffffffffffffffffffffff168152602001600682015481526020016007820180546115639061437e565b80601f016020809104026020016040519081016040528092919081815260200182805461158f9061437e565b80156115dc5780601f106115b1576101008083540402835291602001916115dc565b820191906000526020600020905b8154815290600101906020018083116115bf57829003601f168201915b5050505050815250508484815181106115f8576115f7614942565b5b60200260200101819052505050808061161090614971565b915050611297565b50809150505b90565b60086020528060005260406000206000915090508060000154908060010154908060020180546116509061437e565b80601f016020809104026020016040519081016040528092919081815260200182805461167c9061437e565b80156116c95780601f1061169e576101008083540402835291602001916116c9565b820191906000526020600020905b8154815290600101906020018083116116ac57829003601f168201915b5050505050908060030160009054906101000a900460ff16908060030160019054906101000a900460ff16908060030160029054906101000a900460ff16908060030160039054906101000a900473ffffffffffffffffffffffffffffffffffffffff16908060040160009054906101000a900473ffffffffffffffffffffffffffffffffffffffff16908060050160009054906101000a900473ffffffffffffffffffffffffffffffffffffffff169080600601549080600701805461178f9061437e565b80601f01602080910402602001604051908101604052809291908181526020018280546117bb9061437e565b80156118085780601f106117dd57610100808354040283529160200191611808565b820191906000526020600020905b8154815290600101906020018083116117eb57829003601f168201915b505050505090508b565b600260205280600052604060002060009150905080600001549080600101805461183b9061437e565b80601f01602080910402602001604051908101604052809291908181526020018280546118679061437e565b80156118b45780601f10611889576101008083540402835291602001916118b4565b820191906000526020600020905b81548152906001019060200180831161189757829003601f168201915b5050505050908060020160009054906101000a900460ff16908060030180546118dc9061437e565b80601f01602080910402602001604051908101604052809291908181526020018280546119089061437e565b80156119555780601f1061192a57610100808354040283529160200191611955565b820191906000526020600020905b81548152906001019060200180831161193857829003601f168201915b5050505050908060040160009054906101000a900473ffffffffffffffffffffffffffffffffffffffff16908060050160009054906101000a900473ffffffffffffffffffffffffffffffffffffffff16908060060154908060070180546119bc9061437e565b80601f01602080910402602001604051908101604052809291908181526020018280546119e89061437e565b8015611a355780601f10611a0a57610100808354040283529160200191611a35565b820191906000526020600020905b815481529060010190602001808311611a1857829003601f168201915b5050505050905088565b6040518061010001604052806003548152602001858152602001846004811115611a6c57611a6b6131c0565b5b6004811115611a7e57611a7d6131c0565b5b81526020018381526020018673ffffffffffffffffffffffffffffffffffffffff16815260200160008054906101000a900473ffffffffffffffffffffffffffffffffffffffff1673ffffffffffffffffffffffffffffffffffffffff16815260200142815260200182815250600260008773ffffffffffffffffffffffffffffffffffffffff1673ffffffffffffffffffffffffffffffffffffffff168152602001908152602001600020600082015181600001556020820151816001019080519060200190611b50929190612e77565b5060408201518160020160006101000a81548160ff02191690836004811115611b7c57611b7b6131c0565b5b02179055506060820151816003019080519060200190611b9d929190612e77565b5060808201518160040160006101000a81548173ffffffffffffffffffffffffffffffffffffffff021916908373ffffffffffffffffffffffffffffffffffffffff16021790555060a08201518160050160006101000a81548173ffffffffffffffffffffffffffffffffffffffff021916908373ffffffffffffffffffffffffffffffffffffffff16021790555060c0820151816006015560e0820151816007019080519060200190611c52929190612e77565b509050508473ffffffffffffffffffffffffffffffffffffffff167fac85378acf27ea180ea9b66d81dac89bcc984812edf7111c9413f708da4ca37a600260008873ffffffffffffffffffffffffffffffffffffffff1673ffffffffffffffffffffffffffffffffffffffff168152602001908152602001600020604051611cda9190614920565b60405180910390a26004859080600181540180825580915050600190039060005260206000200160009091909190916101000a81548173ffffffffffffffffffffffffffffffffffffffff021916908373ffffffffffffffffffffffffffffffffffffffff16021790555060036000815480929190611d5890614971565b91905055505050505050565b6005602052806000526040600020600091509050806000015490806001018054611d8d9061437e565b80601f0160208091040260200160405190810160405280929190818152602001828054611db99061437e565b8015611e065780601f10611ddb57610100808354040283529160200191611e06565b820191906000526020600020905b815481529060010190602001808311611de957829003601f168201915b505050505090806002018054611e1b9061437e565b80601f0160208091040260200160405190810160405280929190818152602001828054611e479061437e565b8015611e945780601f10611e6957610100808354040283529160200191611e94565b820191906000526020600020905b815481529060010190602001808311611e7757829003601f168201915b5050505050908060030160009054906101000a900460ff16908060030160019054906101000a900460ff16908060030160029054906101000a900473ffffffffffffffffffffffffffffffffffffffff16908060040160009054906101000a900473ffffffffffffffffffffffffffffffffffffffff16908060050160009054906101000a900473ffffffffffffffffffffffffffffffffffffffff1690806006015490806007018054611f479061437e565b80601f0160208091040260200160405190810160405280929190818152602001828054611f739061437e565b8015611fc05780601f10611f9557610100808354040283529160200191611fc0565b820191906000526020600020905b815481529060010190602001808311611fa357829003601f168201915b505050505090508a565b60065481565b81600260008573ffffffffffffffffffffffffffffffffffffffff1673ffffffffffffffffffffffffffffffffffffffff1681526020019081526020016000206003019080519060200190612026929190612e77565b5080600260008573ffffffffffffffffffffffffffffffffffffffff1673ffffffffffffffffffffffffffffffffffffffff168152602001908152602001600020600701908051906020019061207d929190612e77565b508273ffffffffffffffffffffffffffffffffffffffff167fac85378acf27ea180ea9b66d81dac89bcc984812edf7111c9413f708da4ca37a600260008673ffffffffffffffffffffffffffffffffffffffff1673ffffffffffffffffffffffffffffffffffffffff1681526020019081526020016000206040516121029190614920565b60405180910390a2505050565b6000600160009054906101000a900473ffffffffffffffffffffffffffffffffffffffff1673ffffffffffffffffffffffffffffffffffffffff1663d699bc8c6040518163ffffffff1660e01b8152600401602060405180830381865afa15801561217e573d6000803e3d6000fd5b505050506040513d601f19601f820116820180604052508101906121a291906149cf565b905090565b606080600060095414156121be5780915050612574565b60095467ffffffffffffffff8111156121da576121d96133a2565b5b60405190808252806020026020018201604052801561221357816020015b612200612f80565b8152602001906001900390816121f85790505b50905060005b60095481101561256e5760006008600083815260200190815260200160002090508060405180610160016040529081600082015481526020016001820154815260200160028201805461226b9061437e565b80601f01602080910402602001604051908101604052809291908181526020018280546122979061437e565b80156122e45780601f106122b9576101008083540402835291602001916122e4565b820191906000526020600020905b8154815290600101906020018083116122c757829003601f168201915b505050505081526020016003820160009054906101000a900460ff166002811115612312576123116131c0565b5b6002811115612324576123236131c0565b5b81526020016003820160019054906101000a900460ff16600481111561234d5761234c6131c0565b5b600481111561235f5761235e6131c0565b5b81526020016003820160029054906101000a900460ff166001811115612388576123876131c0565b5b600181111561239a576123996131c0565b5b81526020016003820160039054906101000a900473ffffffffffffffffffffffffffffffffffffffff1673ffffffffffffffffffffffffffffffffffffffff1673ffffffffffffffffffffffffffffffffffffffff1681526020016004820160009054906101000a900473ffffffffffffffffffffffffffffffffffffffff1673ffffffffffffffffffffffffffffffffffffffff1673ffffffffffffffffffffffffffffffffffffffff1681526020016005820160009054906101000a900473ffffffffffffffffffffffffffffffffffffffff1673ffffffffffffffffffffffffffffffffffffffff1673ffffffffffffffffffffffffffffffffffffffff168152602001600682015481526020016007820180546124ba9061437e565b80601f01602080910402602001604051908101604052809291908181526020018280546124e69061437e565b80156125335780601f1061250857610100808354040283529160200191612533565b820191906000526020600020905b81548152906001019060200180831161251657829003601f168201915b50505050508152505083838151811061254f5761254e614942565b5b602002602001018190525050808061256690614971565b915050612219565b50809150505b90565b60405180610140016040528060065481526020018781526020016040518060200160405280600081525081526020018660048111156125b9576125b86131c0565b5b60048111156125cb576125ca6131c0565b5b81526020018560028111156125e3576125e26131c0565b5b60028111156125f5576125f46131c0565b5b81526020018473ffffffffffffffffffffffffffffffffffffffff16815260200160008054906101000a900473ffffffffffffffffffffffffffffffffffffffff1673ffffffffffffffffffffffffffffffffffffffff1681526020018373ffffffffffffffffffffffffffffffffffffffff168152602001428152602001828152506005600060065481526020019081526020016000206000820151816000015560208201518160010190805190602001906126b3929190612e77565b5060408201518160020190805190602001906126d0929190612e77565b5060608201518160030160006101000a81548160ff021916908360048111156126fc576126fb6131c0565b5b021790555060808201518160030160016101000a81548160ff0219169083600281111561272c5761272b6131c0565b5b021790555060a08201518160030160026101000a81548173ffffffffffffffffffffffffffffffffffffffff021916908373ffffffffffffffffffffffffffffffffffffffff16021790555060c08201518160040160006101000a81548173ffffffffffffffffffffffffffffffffffffffff021916908373ffffffffffffffffffffffffffffffffffffffff16021790555060e08201518160050160006101000a81548173ffffffffffffffffffffffffffffffffffffffff021916908373ffffffffffffffffffffffffffffffffffffffff160217905550610100820151816006015561012082015181600701908051906020019061282e929190612e77565b5090505061284360065487868887878761292e565b8273ffffffffffffffffffffffffffffffffffffffff167fb503855b01edd8caf0051e68bacef096056daa0d24478362eaa8a4f4b8a7130e60056000600654815260200190815260200160002060405161289d919061480a565b60405180910390a26007829080600181540180825580915050600190039060005260206000200160009091909190916101000a81548173ffffffffffffffffffffffffffffffffffffffff021916908373ffffffffffffffffffffffffffffffffffffffff1602179055506006600081548092919061291b90614971565b9190505550505050505050565b60035481565b600060016004811115612944576129436131c0565b5b856004811115612957576129566131c0565b5b6004811115612969576129686131c0565b5b14806129ab575060036004811115612984576129836131c0565b5b856004811115612997576129966131c0565b5b60048111156129a9576129a86131c0565b5b145b806129eb57506004808111156129c4576129c36131c0565b5b8560048111156129d7576129d66131c0565b5b60048111156129e9576129e86131c0565b5b145b156129f95760009050612a3e565b60026004811115612a0d57612a0c6131c0565b5b856004811115612a2057612a1f6131c0565b5b6004811115612a3257612a316131c0565b5b1415612a3d57600190505b5b612a4e8888888885898989612a58565b5050505050505050565b6040518061016001604052806009548152602001898152602001888152602001876002811115612a8b57612a8a6131c0565b5b6002811115612a9d57612a9c6131c0565b5b8152602001866004811115612ab557612ab46131c0565b5b6004811115612ac757612ac66131c0565b5b8152602001856001811115612adf57612ade6131c0565b5b81526020018473ffffffffffffffffffffffffffffffffffffffff16815260200160008054906101000a900473ffffffffffffffffffffffffffffffffffffffff1673ffffffffffffffffffffffffffffffffffffffff1681526020018373ffffffffffffffffffffffffffffffffffffffff1681526020014281526020018281525060086000600954815260200190815260200160002060008201518160000155602082015181600101556040820151816002019080519060200190612ba7929190612e77565b5060608201518160030160006101000a81548160ff02191690836002811115612bd357612bd26131c0565b5b021790555060808201518160030160016101000a81548160ff02191690836004811115612c0357612c026131c0565b5b021790555060a08201518160030160026101000a81548160ff02191690836001811115612c3357612c326131c0565b5b021790555060c08201518160030160036101000a81548173ffffffffffffffffffffffffffffffffffffffff021916908373ffffffffffffffffffffffffffffffffffffffff16021790555060e08201518160040160006101000a81548173ffffffffffffffffffffffffffffffffffffffff021916908373ffffffffffffffffffffffffffffffffffffffff1602179055506101008201518160050160006101000a81548173ffffffffffffffffffffffffffffffffffffffff021916908373ffffffffffffffffffffffffffffffffffffffff1602179055506101208201518160060155610140820151816007019080519060200190612d36929190612e77565b509050508173ffffffffffffffffffffffffffffffffffffffff167f4a2aa9c37fdc971a24d9081164299dd70beb053eacacaeb4e59d5d998334ef11600860006009548152602001908152602001600020604051612d949190614676565b60405180910390a260096000815480929190612daf90614971565b91905055505050505050505050565b60405180610140016040528060008152602001606081526020016060815260200160006004811115612df357612df26131c0565b5b815260200160006002811115612e0c57612e0b6131c0565b5b8152602001600073ffffffffffffffffffffffffffffffffffffffff168152602001600073ffffffffffffffffffffffffffffffffffffffff168152602001600073ffffffffffffffffffffffffffffffffffffffff16815260200160008152602001606081525090565b828054612e839061437e565b90600052602060002090601f016020900481019282612ea55760008555612eec565b82601f10612ebe57805160ff1916838001178555612eec565b82800160010185558215612eec579182015b82811115612eeb578251825591602001919060010190612ed0565b5b509050612ef99190613052565b5090565b604051806101000160405280600081526020016060815260200160006004811115612f2b57612f2a6131c0565b5b815260200160608152602001600073ffffffffffffffffffffffffffffffffffffffff168152602001600073ffffffffffffffffffffffffffffffffffffffff16815260200160008152602001606081525090565b60405180610160016040528060008152602001600081526020016060815260200160006002811115612fb557612fb46131c0565b5b815260200160006004811115612fce57612fcd6131c0565b5b815260200160006001811115612fe757612fe66131c0565b5b8152602001600073ffffffffffffffffffffffffffffffffffffffff168152602001600073ffffffffffffffffffffffffffffffffffffffff168152602001600073ffffffffffffffffffffffffffffffffffffffff16815260200160008152602001606081525090565b5b8082111561306b576000816000905550600101613053565b5090565b6000604051905090565b600080fd5b600080fd5b600073ffffffffffffffffffffffffffffffffffffffff82169050919050565b60006130ae82613083565b9050919050565b6130be816130a3565b81146130c957600080fd5b50565b6000813590506130db816130b5565b92915050565b6000602082840312156130f7576130f6613079565b5b6000613105848285016130cc565b91505092915050565b6000819050919050565b6131218161310e565b82525050565b600081519050919050565b600082825260208201905092915050565b60005b83811015613161578082015181840152602081019050613146565b83811115613170576000848401525b50505050565b6000601f19601f8301169050919050565b600061319282613127565b61319c8185613132565b93506131ac818560208601613143565b6131b581613176565b840191505092915050565b7f4e487b7100000000000000000000000000000000000000000000000000000000600052602160045260246000fd5b60058110613200576131ff6131c0565b5b50565b6000819050613211826131ef565b919050565b600061322182613203565b9050919050565b61323181613216565b82525050565b60038110613248576132476131c0565b5b50565b600081905061325982613237565b919050565b60006132698261324b565b9050919050565b6132798161325e565b82525050565b613288816130a3565b82525050565b6000610140830160008301516132a76000860182613118565b50602083015184820360208601526132bf8282613187565b915050604083015184820360408601526132d98282613187565b91505060608301516132ee6060860182613228565b5060808301516133016080860182613270565b5060a083015161331460a086018261327f565b5060c083015161332760c086018261327f565b5060e083015161333a60e086018261327f565b5061010083015161334f610100860182613118565b506101208301518482036101208601526133698282613187565b9150508091505092915050565b60006020820190508181036000830152613390818461328e565b905092915050565b600080fd5b600080fd5b7f4e487b7100000000000000000000000000000000000000000000000000000000600052604160045260246000fd5b6133da82613176565b810181811067ffffffffffffffff821117156133f9576133f86133a2565b5b80604052505050565b600061340c61306f565b905061341882826133d1565b919050565b600067ffffffffffffffff821115613438576134376133a2565b5b61344182613176565b9050602081019050919050565b82818337600083830152505050565b600061347061346b8461341d565b613402565b90508281526020810184848401111561348c5761348b61339d565b5b61349784828561344e565b509392505050565b600082601f8301126134b4576134b3613398565b5b81356134c484826020860161345d565b91505092915050565b6134d68161310e565b81146134e157600080fd5b50565b6000813590506134f3816134cd565b92915050565b600080604083850312156135105761350f613079565b5b600083013567ffffffffffffffff81111561352e5761352d61307e565b5b61353a8582860161349f565b925050602061354b858286016134e4565b9150509250929050565b61355e816130a3565b82525050565b60006020820190506135796000830184613555565b92915050565b600080600080600080600060e0888a03121561359e5761359d613079565b5b60006135ac8a828b016134e4565b97505060206135bd8a828b016134e4565b965050604088013567ffffffffffffffff8111156135de576135dd61307e565b5b6135ea8a828b0161349f565b95505060606135fb8a828b016134e4565b945050608061360c8a828b016134e4565b93505060a061361d8a828b016130cc565b92505060c088013567ffffffffffffffff81111561363e5761363d61307e565b5b61364a8a828b0161349f565b91505092959891949750929550565b600081519050919050565b600082825260208201905092915050565b6000819050602082019050919050565b60006101408301600083015161369e6000860182613118565b50602083015184820360208601526136b68282613187565b915050604083015184820360408601526136d08282613187565b91505060608301516136e56060860182613228565b5060808301516136f86080860182613270565b5060a083015161370b60a086018261327f565b5060c083015161371e60c086018261327f565b5060e083015161373160e086018261327f565b50610100830151613746610100860182613118565b506101208301518482036101208601526137608282613187565b9150508091505092915050565b60006137798383613685565b905092915050565b6000602082019050919050565b600061379982613659565b6137a38185613664565b9350836020820285016137b585613675565b8060005b858110156137f157848403895281516137d2858261376d565b94506137dd83613781565b925060208a019950506001810190506137b9565b50829750879550505050505092915050565b6000602082019050818103600083015261381d818461378e565b905092915050565b60006101008301600083015161383e6000860182613118565b50602083015184820360208601526138568282613187565b915050604083015161386b6040860182613228565b50606083015184820360608601526138838282613187565b9150506080830151613898608086018261327f565b5060a08301516138ab60a086018261327f565b5060c08301516138be60c0860182613118565b5060e083015184820360e08601526138d68282613187565b9150508091505092915050565b600060208201905081810360008301526138fd8184613825565b905092915050565b61390e8161310e565b82525050565b60006020820190506139296000830184613905565b92915050565b60006020828403121561394557613944613079565b5b6000613953848285016134e4565b91505092915050565b600081519050919050565b600082825260208201905092915050565b6000819050602082019050919050565b6000610100830160008301516139a16000860182613118565b50602083015184820360208601526139b98282613187565b91505060408301516139ce6040860182613228565b50606083015184820360608601526139e68282613187565b91505060808301516139fb608086018261327f565b5060a0830151613a0e60a086018261327f565b5060c0830151613a2160c0860182613118565b5060e083015184820360e0860152613a398282613187565b9150508091505092915050565b6000613a528383613988565b905092915050565b6000602082019050919050565b6000613a728261395c565b613a7c8185613967565b935083602082028501613a8e85613978565b8060005b85811015613aca5784840389528151613aab8582613a46565b9450613ab683613a5a565b925060208a01995050600181019050613a92565b50829750879550505050505092915050565b60006020820190508181036000830152613af68184613a67565b905092915050565b600082825260208201905092915050565b6000613b1a82613127565b613b248185613afe565b9350613b34818560208601613143565b613b3d81613176565b840191505092915050565b613b518161325e565b82525050565b613b6081613216565b82525050565b60028110613b7757613b766131c0565b5b50565b6000819050613b8882613b66565b919050565b6000613b9882613b7a565b9050919050565b613ba881613b8d565b82525050565b600061016082019050613bc4600083018e613905565b613bd1602083018d613905565b8181036040830152613be3818c613b0f565b9050613bf2606083018b613b48565b613bff608083018a613b57565b613c0c60a0830189613b9f565b613c1960c0830188613555565b613c2660e0830187613555565b613c34610100830186613555565b613c42610120830185613905565b818103610140830152613c558184613b0f565b90509c9b505050505050505050505050565b600061010082019050613c7d600083018b613905565b8181036020830152613c8f818a613b0f565b9050613c9e6040830189613b57565b8181036060830152613cb08188613b0f565b9050613cbf6080830187613555565b613ccc60a0830186613555565b613cd960c0830185613905565b81810360e0830152613ceb8184613b0f565b90509998505050505050505050565b600080600080600060a08688031215613d1657613d15613079565b5b6000613d24888289016130cc565b955050602086013567ffffffffffffffff811115613d4557613d4461307e565b5b613d518882890161349f565b9450506040613d62888289016134e4565b935050606086013567ffffffffffffffff811115613d8357613d8261307e565b5b613d8f8882890161349f565b925050608086013567ffffffffffffffff811115613db057613daf61307e565b5b613dbc8882890161349f565b9150509295509295909350565b600061014082019050613ddf600083018d613905565b8181036020830152613df1818c613b0f565b90508181036040830152613e05818b613b0f565b9050613e14606083018a613b57565b613e216080830189613b48565b613e2e60a0830188613555565b613e3b60c0830187613555565b613e4860e0830186613555565b613e56610100830185613905565b818103610120830152613e698184613b0f565b90509b9a5050505050505050505050565b600080600060608486031215613e9357613e92613079565b5b6000613ea1868287016130cc565b935050602084013567ffffffffffffffff811115613ec257613ec161307e565b5b613ece8682870161349f565b925050604084013567ffffffffffffffff811115613eef57613eee61307e565b5b613efb8682870161349f565b9150509250925092565b600081519050919050565b600082825260208201905092915050565b6000819050602082019050919050565b613f3a81613b8d565b82525050565b600061016083016000830151613f596000860182613118565b506020830151613f6c6020860182613118565b5060408301518482036040860152613f848282613187565b9150506060830151613f996060860182613270565b506080830151613fac6080860182613228565b5060a0830151613fbf60a0860182613f31565b5060c0830151613fd260c086018261327f565b5060e0830151613fe560e086018261327f565b50610100830151613ffa61010086018261327f565b5061012083015161400f610120860182613118565b506101408301518482036101408601526140298282613187565b9150508091505092915050565b60006140428383613f40565b905092915050565b6000602082019050919050565b600061406282613f05565b61406c8185613f10565b93508360208202850161407e85613f21565b8060005b858110156140ba578484038952815161409b8582614036565b94506140a68361404a565b925060208a01995050600181019050614082565b50829750879550505050505092915050565b600060208201905081810360008301526140e68184614057565b905092915050565b60008060008060008060c0878903121561410b5761410a613079565b5b600087013567ffffffffffffffff8111156141295761412861307e565b5b61413589828a0161349f565b965050602061414689828a016134e4565b955050604061415789828a016134e4565b945050606061416889828a016130cc565b935050608061417989828a016130cc565b92505060a087013567ffffffffffffffff81111561419a5761419961307e565b5b6141a689828a0161349f565b9150509295509295509295565b7f4e487b7100000000000000000000000000000000000000000000000000000000600052601160045260246000fd5b60006141ed8261310e565b91506141f88361310e565b92508282101561420b5761420a6141b3565b5b828203905092915050565b60006142218261310e565b91506000821415614235576142346141b3565b5b600182039050919050565b600081905092915050565b600061425682613127565b6142608185614240565b9350614270818560208601613143565b80840191505092915050565b60008160601b9050919050565b60006142948261427c565b9050919050565b60006142a682614289565b9050919050565b6142be6142b9826130a3565b61429b565b82525050565b6000819050919050565b6142df6142da8261310e565b6142c4565b82525050565b60006142f1828661424b565b91506142fd82856142ad565b60148201915061430d82846142ce565b602082019150819050949350505050565b60008160001c9050919050565b6000819050919050565b60006143486143438361431e565b61432b565b9050919050565b7f4e487b7100000000000000000000000000000000000000000000000000000000600052602260045260246000fd5b6000600282049050600182168061439657607f821691505b602082108114156143aa576143a961434f565b5b50919050565b60008190508160005260206000209050919050565b600081546143d28161437e565b6143dc8186613132565b945060018216600081146143f757600181146144095761443c565b60ff198316865260208601935061443c565b614412856143b0565b60005b8381101561443457815481890152600182019150602081019050614415565b808801955050505b50505092915050565b600060ff82169050919050565b60006144656144608361431e565b614445565b9050919050565b60008160081c9050919050565b600060ff82169050919050565b60006144996144948361446c565b614479565b9050919050565b60008160101c9050919050565b600060ff82169050919050565b60006144cd6144c8836144a0565b6144ad565b9050919050565b60008160181c9050919050565b600073ffffffffffffffffffffffffffffffffffffffff82169050919050565b600061451461450f836144d4565b6144e1565b9050919050565b600061452e6145298361431e565b6144e1565b9050919050565b60006101608301600080840154905061454d81614335565b61455a6000870182613118565b506001840154905061456b81614335565b6145786020870182613118565b5060028401858303604087015261458f83826143c5565b925050600384015490506145a281614452565b6145af6060870182613270565b506145b981614486565b6145c66080870182613228565b506145d0816144ba565b6145dd60a0870182613f31565b506145e781614501565b6145f460c087018261327f565b50600484015490506146058161451b565b61461260e087018261327f565b50600584015490506146238161451b565b61463161010087018261327f565b506006840154905061464281614335565b614650610120870182613118565b506007840185830361014087015261466883826143c5565b925050819250505092915050565b600060208201905081810360008301526146908184614535565b905092915050565b60006146ab6146a68361431e565b614479565b9050919050565b60006146c56146c08361446c565b614445565b9050919050565b60006146df6146da836144a0565b6144e1565b9050919050565b6000610140830160008084015490506146fe81614335565b61470b6000870182613118565b5060018401858303602087015261472283826143c5565b92505060028401858303604087015261473b83826143c5565b9250506003840154905061474e81614698565b61475b6060870182613228565b50614765816146b2565b6147726080870182613270565b5061477c816146cc565b61478960a087018261327f565b506004840154905061479a8161451b565b6147a760c087018261327f565b50600584015490506147b88161451b565b6147c560e087018261327f565b50600684015490506147d681614335565b6147e4610100870182613118565b50600784018583036101208701526147fc83826143c5565b925050819250505092915050565b6000602082019050818103600083015261482481846146e6565b905092915050565b60006101008301600080840154905061484481614335565b6148516000870182613118565b5060018401858303602087015261486883826143c5565b9250506002840154905061487b81614698565b6148886040870182613228565b5060038401858303606087015261489f83826143c5565b925050600484015490506148b28161451b565b6148bf608087018261327f565b50600584015490506148d08161451b565b6148dd60a087018261327f565b50600684015490506148ee81614335565b6148fb60c0870182613118565b506007840185830360e087015261491283826143c5565b925050819250505092915050565b6000602082019050818103600083015261493a818461482c565b905092915050565b7f4e487b7100000000000000000000000000000000000000000000000000000000600052603260045260246000fd5b600061497c8261310e565b91507fffffffffffffffffffffffffffffffffffffffffffffffffffffffffffffffff8214156149af576149ae6141b3565b5b600182019050919050565b6000815190506149c9816134cd565b92915050565b6000602082840312156149e5576149e4613079565b5b60006149f3848285016149ba565b9150509291505056fea2646970667358221220e9496acf4404824f388c0d56b83d9e01631a7858679626c7d9f35abb24066f8e64736f6c634300080a003360806040526000600355607d60045534801561001a57600080fd5b50336000806101000a81548173ffffffffffffffffffffffffffffffffffffffff021916908373ffffffffffffffffffffffffffffffffffffffff1602179055506118778061006a6000396000f3fe608060405234801561001057600080fd5b50600436106100625760003560e01c80636386c1c714610067578063b2ddb90714610097578063d46300fd146100b3578063d699bc8c146100d1578063d6a69823146100ef578063e2842d791461010b575b600080fd5b610081600480360381019061007c9190610d15565b610129565b60405161008e9190610f5f565b60405180910390f35b6100b160048036038101906100ac91906110e2565b61036a565b005b6100bb610515565b6040516100c89190611160565b60405180910390f35b6100d961051f565b6040516100e69190611160565b60405180910390f35b610109600480360381019061010491906111a7565b610525565b005b610113610865565b604051610120919061140f565b60405180910390f35b610131610b83565b600160008373ffffffffffffffffffffffffffffffffffffffff1673ffffffffffffffffffffffffffffffffffffffff168152602001908152602001600020604051806101200160405290816000820154815260200160018201805461019690611460565b80601f01602080910402602001604051908101604052809291908181526020018280546101c290611460565b801561020f5780601f106101e45761010080835404028352916020019161020f565b820191906000526020600020905b8154815290600101906020018083116101f257829003601f168201915b505050505081526020016002820154815260200160038201548152602001600482015481526020016005820160009054906101000a900460ff16600381111561025b5761025a610e0d565b5b600381111561026d5761026c610e0d565b5b81526020016005820160019054906101000a900473ffffffffffffffffffffffffffffffffffffffff1673ffffffffffffffffffffffffffffffffffffffff1673ffffffffffffffffffffffffffffffffffffffff168152602001600682015481526020016007820180546102e190611460565b80601f016020809104026020016040519081016040528092919081815260200182805461030d90611460565b801561035a5780601f1061032f5761010080835404028352916020019161035a565b820191906000526020600020905b81548152906001019060200180831161033d57829003601f168201915b5050505050815250509050919050565b82600381111561037d5761037c610e0d565b5b600160008473ffffffffffffffffffffffffffffffffffffffff1673ffffffffffffffffffffffffffffffffffffffff16815260200190815260200160002060050160006101000a81548160ff021916908360038111156103e1576103e0610e0d565b5b021790555042600160008473ffffffffffffffffffffffffffffffffffffffff1673ffffffffffffffffffffffffffffffffffffffff1681526020019081526020016000206006018190555080600160008473ffffffffffffffffffffffffffffffffffffffff1673ffffffffffffffffffffffffffffffffffffffff1681526020019081526020016000206007019080519060200190610483929190610c00565b508173ffffffffffffffffffffffffffffffffffffffff167fea397c4f2735f95720bbf4d2e061d639bec950d2f3e162d0b19e02a2354c7cca600160008573ffffffffffffffffffffffffffffffffffffffff1673ffffffffffffffffffffffffffffffffffffffff16815260200190815260200160002060405161050891906116fb565b60405180910390a2505050565b6000600354905090565b60045481565b3373ffffffffffffffffffffffffffffffffffffffff1660008054906101000a900473ffffffffffffffffffffffffffffffffffffffff1673ffffffffffffffffffffffffffffffffffffffff16146105b3576040517f08c379a00000000000000000000000000000000000000000000000000000000081526004016105aa9061177a565b60405180910390fd5b60405180610120016040528060035481526020018881526020018781526020018681526020018581526020018460038111156105f2576105f1610e0d565b5b600381111561060457610603610e0d565b5b81526020018373ffffffffffffffffffffffffffffffffffffffff16815260200142815260200182815250600160008473ffffffffffffffffffffffffffffffffffffffff1673ffffffffffffffffffffffffffffffffffffffff168152602001908152602001600020600082015181600001556020820151816001019080519060200190610694929190610c00565b5060408201518160020155606082015181600301556080820151816004015560a08201518160050160006101000a81548160ff021916908360038111156106de576106dd610e0d565b5b021790555060c08201518160050160016101000a81548173ffffffffffffffffffffffffffffffffffffffff021916908373ffffffffffffffffffffffffffffffffffffffff16021790555060e08201518160060155610100820151816007019080519060200190610751929190610c00565b509050508173ffffffffffffffffffffffffffffffffffffffff167fea397c4f2735f95720bbf4d2e061d639bec950d2f3e162d0b19e02a2354c7cca600160008573ffffffffffffffffffffffffffffffffffffffff1673ffffffffffffffffffffffffffffffffffffffff1681526020019081526020016000206040516107d991906116fb565b60405180910390a26002829080600181540180825580915050600190039060005260206000200160009091909190916101000a81548173ffffffffffffffffffffffffffffffffffffffff021916908373ffffffffffffffffffffffffffffffffffffffff16021790555060036000815480929190610857906117c9565b919050555050505050505050565b6060600060035467ffffffffffffffff81111561088557610884610fb7565b5b6040519080825280602002602001820160405280156108be57816020015b6108ab610b83565b8152602001906001900390816108a35790505b50905060005b600354811015610b7b576000600282815481106108e4576108e3611812565b5b9060005260206000200160009054906101000a900473ffffffffffffffffffffffffffffffffffffffff1690506000600160008373ffffffffffffffffffffffffffffffffffffffff1673ffffffffffffffffffffffffffffffffffffffff168152602001908152602001600020905080604051806101200160405290816000820154815260200160018201805461097b90611460565b80601f01602080910402602001604051908101604052809291908181526020018280546109a790611460565b80156109f45780601f106109c9576101008083540402835291602001916109f4565b820191906000526020600020905b8154815290600101906020018083116109d757829003601f168201915b505050505081526020016002820154815260200160038201548152602001600482015481526020016005820160009054906101000a900460ff166003811115610a4057610a3f610e0d565b5b6003811115610a5257610a51610e0d565b5b81526020016005820160019054906101000a900473ffffffffffffffffffffffffffffffffffffffff1673ffffffffffffffffffffffffffffffffffffffff1673ffffffffffffffffffffffffffffffffffffffff16815260200160068201548152602001600782018054610ac690611460565b80601f0160208091040260200160405190810160405280929190818152602001828054610af290611460565b8015610b3f5780601f10610b1457610100808354040283529160200191610b3f565b820191906000526020600020905b815481529060010190602001808311610b2257829003601f168201915b505050505081525050848481518110610b5b57610b5a611812565b5b602002602001018190525050508080610b73906117c9565b9150506108c4565b508091505090565b604051806101200160405280600081526020016060815260200160008019168152602001600080191681526020016000801916815260200160006003811115610bcf57610bce610e0d565b5b8152602001600073ffffffffffffffffffffffffffffffffffffffff16815260200160008152602001606081525090565b828054610c0c90611460565b90600052602060002090601f016020900481019282610c2e5760008555610c75565b82601f10610c4757805160ff1916838001178555610c75565b82800160010185558215610c75579182015b82811115610c74578251825591602001919060010190610c59565b5b509050610c829190610c86565b5090565b5b80821115610c9f576000816000905550600101610c87565b5090565b6000604051905090565b600080fd5b600080fd5b600073ffffffffffffffffffffffffffffffffffffffff82169050919050565b6000610ce282610cb7565b9050919050565b610cf281610cd7565b8114610cfd57600080fd5b50565b600081359050610d0f81610ce9565b92915050565b600060208284031215610d2b57610d2a610cad565b5b6000610d3984828501610d00565b91505092915050565b6000819050919050565b610d5581610d42565b82525050565b600081519050919050565b600082825260208201905092915050565b60005b83811015610d95578082015181840152602081019050610d7a565b83811115610da4576000848401525b50505050565b6000601f19601f8301169050919050565b6000610dc682610d5b565b610dd08185610d66565b9350610de0818560208601610d77565b610de981610daa565b840191505092915050565b6000819050919050565b610e0781610df4565b82525050565b7f4e487b7100000000000000000000000000000000000000000000000000000000600052602160045260246000fd5b60048110610e4d57610e4c610e0d565b5b50565b6000819050610e5e82610e3c565b919050565b6000610e6e82610e50565b9050919050565b610e7e81610e63565b82525050565b610e8d81610cd7565b82525050565b600061012083016000830151610eac6000860182610d4c565b5060208301518482036020860152610ec48282610dbb565b9150506040830151610ed96040860182610dfe565b506060830151610eec6060860182610dfe565b506080830151610eff6080860182610dfe565b5060a0830151610f1260a0860182610e75565b5060c0830151610f2560c0860182610e84565b5060e0830151610f3860e0860182610d4c565b50610100830151848203610100860152610f528282610dbb565b9150508091505092915050565b60006020820190508181036000830152610f798184610e93565b905092915050565b610f8a81610d42565b8114610f9557600080fd5b50565b600081359050610fa781610f81565b92915050565b600080fd5b600080fd5b7f4e487b7100000000000000000000000000000000000000000000000000000000600052604160045260246000fd5b610fef82610daa565b810181811067ffffffffffffffff8211171561100e5761100d610fb7565b5b80604052505050565b6000611021610ca3565b905061102d8282610fe6565b919050565b600067ffffffffffffffff82111561104d5761104c610fb7565b5b61105682610daa565b9050602081019050919050565b82818337600083830152505050565b600061108561108084611032565b611017565b9050828152602081018484840111156110a1576110a0610fb2565b5b6110ac848285611063565b509392505050565b600082601f8301126110c9576110c8610fad565b5b81356110d9848260208601611072565b91505092915050565b6000806000606084860312156110fb576110fa610cad565b5b600061110986828701610f98565b935050602061111a86828701610d00565b925050604084013567ffffffffffffffff81111561113b5761113a610cb2565b5b611147868287016110b4565b9150509250925092565b61115a81610d42565b82525050565b60006020820190506111756000830184611151565b92915050565b61118481610df4565b811461118f57600080fd5b50565b6000813590506111a18161117b565b92915050565b600080600080600080600060e0888a0312156111c6576111c5610cad565b5b600088013567ffffffffffffffff8111156111e4576111e3610cb2565b5b6111f08a828b016110b4565b97505060206112018a828b01611192565b96505060406112128a828b01611192565b95505060606112238a828b01611192565b94505060806112348a828b01610f98565b93505060a06112458a828b01610d00565b92505060c088013567ffffffffffffffff81111561126657611265610cb2565b5b6112728a828b016110b4565b91505092959891949750929550565b600081519050919050565b600082825260208201905092915050565b6000819050602082019050919050565b6000610120830160008301516112c66000860182610d4c565b50602083015184820360208601526112de8282610dbb565b91505060408301516112f36040860182610dfe565b5060608301516113066060860182610dfe565b5060808301516113196080860182610dfe565b5060a083015161132c60a0860182610e75565b5060c083015161133f60c0860182610e84565b5060e083015161135260e0860182610d4c565b5061010083015184820361010086015261136c8282610dbb565b9150508091505092915050565b600061138583836112ad565b905092915050565b6000602082019050919050565b60006113a582611281565b6113af818561128c565b9350836020820285016113c18561129d565b8060005b858110156113fd57848403895281516113de8582611379565b94506113e98361138d565b925060208a019950506001810190506113c5565b50829750879550505050505092915050565b60006020820190508181036000830152611429818461139a565b905092915050565b7f4e487b7100000000000000000000000000000000000000000000000000000000600052602260045260246000fd5b6000600282049050600182168061147857607f821691505b6020821081141561148c5761148b611431565b5b50919050565b60008160001c9050919050565b6000819050919050565b60006114bc6114b783611492565b61149f565b9050919050565b60008190508160005260206000209050919050565b600081546114e581611460565b6114ef8186610d66565b9450600182166000811461150a576001811461151c5761154f565b60ff198316865260208601935061154f565b611525856114c3565b60005b8381101561154757815481890152600182019150602081019050611528565b808801955050505b50505092915050565b6000819050919050565b600061157561157083611492565b611558565b9050919050565b600060ff82169050919050565b600061159c61159783611492565b61157c565b9050919050565b60008160081c9050919050565b600073ffffffffffffffffffffffffffffffffffffffff82169050919050565b60006115e36115de836115a3565b6115b0565b9050919050565b600061012083016000808401549050611602816114a9565b61160f6000870182610d4c565b5060018401858303602087015261162683826114d8565b9250506002840154905061163981611562565b6116466040870182610dfe565b506003840154905061165781611562565b6116646060870182610dfe565b506004840154905061167581611562565b6116826080870182610dfe565b506005840154905061169381611589565b6116a060a0870182610e75565b506116aa816115d0565b6116b760c0870182610e84565b50600684015490506116c8816114a9565b6116d560e0870182610d4c565b50600784018583036101008701526116ed83826114d8565b925050819250505092915050565b6000602082019050818103600083015261171581846115ea565b905092915050565b600082825260208201905092915050565b7f596f7520617265206e6f7420616e206f776e6572000000000000000000000000600082015250565b600061176460148361171d565b915061176f8261172e565b602082019050919050565b6000602082019050818103600083015261179381611757565b9050919050565b7f4e487b7100000000000000000000000000000000000000000000000000000000600052601160045260246000fd5b60006117d482610d42565b91507fffffffffffffffffffffffffffffffffffffffffffffffffffffffffffffffff8214156118075761180661179a565b5b600182019050919050565b7f4e487b7100000000000000000000000000000000000000000000000000000000600052603260045260246000fdfea2646970667358221220661c44d9b64eec279d2951602c40fb9bcc0cbcaa3686e5896c1f99ae7d75fa5464736f6c634300080a0033",
  "immutableReferences": {},
  "source": "// SPDX-License-Identifier: MIT\r\npragma solidity >=0.8.0 <0.9.0;\r\n\r\nimport \"./UserChain.sol\";\r\nimport \"./SharedChain.sol\";\r\n\r\ncontract ProjectChain is SharedChain {\r\n    address _userAddress;\r\n\r\n    UserChain userChain;\r\n\r\n    constructor() {\r\n        _userAddress = msg.sender;\r\n\r\n        userChain = new UserChain();\r\n    }\r\n\r\n    modifier onlyUserProject() {\r\n        // require(\r\n        //     users[_userAddress]._role == Roles.UserProject,\r\n        //     \"You don't have the rights for this resources.\"\r\n        // );\r\n        _;\r\n    }\r\n\r\n    function getUsersCounter() public view returns (uint) {\r\n        return userChain.valueTrend();\r\n    }\r\n\r\n    /**  PROJECT INITIATOR  */\r\n\r\n    mapping(address => Project) public projects;\r\n    uint256 public projectsCounter = 0;\r\n    address[] public projectsAddress;\r\n\r\n    function createUniqueProjectAddress(string memory _name, uint _index) public view returns (address) {\r\n        return address(uint160(uint256(keccak256(abi.encodePacked(_name, _userAddress, _index)))));\r\n    }\r\n\r\n    function createProject(\r\n        address _projectAddress,\r\n        string memory _name,\r\n        uint256 _status,\r\n        string memory _ipfsFileCID,\r\n        string memory _signature\r\n    ) public {\r\n        projects[_projectAddress] = Project(\r\n            projectsCounter,\r\n            _name,\r\n            ProjectStatus(_status),\r\n            _ipfsFileCID,\r\n            _projectAddress,\r\n            _userAddress,\r\n            block.timestamp,\r\n            _signature\r\n        );\r\n\r\n        emit ProjectEvent(projects[_projectAddress], _projectAddress);\r\n        projectsAddress.push(_projectAddress);\r\n        projectsCounter++;\r\n    }\r\n\r\n    function updateProject(\r\n        address _projectAddress,\r\n        string memory _ipfsFileCID,\r\n        string memory _signature\r\n    ) public {\r\n        projects[_projectAddress]._ipfsFileCID = _ipfsFileCID;\r\n        projects[_projectAddress]._signature = _signature;\r\n\r\n        emit ProjectEvent(projects[_projectAddress], _projectAddress);\r\n    }\r\n\r\n    function getProjectInfo(address _address)\r\n        public\r\n        view\r\n        returns (Project memory)\r\n    {\r\n        return projects[_address];\r\n    }\r\n\r\n    function getAllProjects() public view returns (Project[] memory) {\r\n        Project[] memory allProjects;\r\n        if (projectsCounter == 0) return allProjects;\r\n\r\n        allProjects = new Project[](projectsCounter);\r\n        for (uint256 index = 0; index < projectsCounter; index++) {\r\n            address _projectAddress = projectsAddress[index];\r\n            Project storage project = projects[_projectAddress];\r\n            allProjects[index] = project;\r\n        }\r\n        return allProjects;\r\n    }\r\n\r\n\r\n    /**  Project Requests  */\r\n\r\n    mapping(uint256 => ProjectRequest) public projectRequests;\r\n    uint256 public projectRequestsCounter = 0;\r\n    address[] public projectRequestsAddress;\r\n\r\n    function createUniqueProjectRequestAddress(string memory _title, uint _index) public view returns (address) {\r\n        return address(uint160(uint256(keccak256(abi.encodePacked(_title, _userAddress, _index)))));\r\n    }\r\n\r\n    function createProjectRequest(\r\n        string memory _title,\r\n        uint256 _status,\r\n        uint256 _requestStatus,\r\n        address _projectAddress,\r\n        address _projectReqAddress,\r\n        string memory _signature\r\n    ) public {\r\n        projectRequests[projectRequestsCounter] = ProjectRequest(\r\n            projectRequestsCounter,\r\n            _title,\r\n            \"\",\r\n            ProjectStatus(_status),\r\n            RequestStatus(_requestStatus),\r\n            _projectAddress,\r\n            _userAddress,\r\n            _projectReqAddress,\r\n            block.timestamp,\r\n            _signature\r\n        );\r\n\r\n        filterRequests(\r\n            projectRequestsCounter,\r\n            _title,\r\n            _requestStatus,\r\n            _status,\r\n            _projectAddress,\r\n            _projectReqAddress,\r\n            _signature\r\n        );\r\n\r\n        emit ProjectRequestEvent(projectRequests[projectRequestsCounter], _projectAddress);\r\n        projectRequestsAddress.push(_projectReqAddress);\r\n        projectRequestsCounter++;\r\n    }\r\n\r\n    function filterRequests(\r\n        uint256 _indexProjectRequest,\r\n        string memory _title,\r\n        uint256 _requestStatus,\r\n        uint256 _projectStatus,\r\n        address _projectAddress,\r\n        address _requestAddress,\r\n        string memory _signature\r\n    ) internal {\r\n        RequestType _requestType;\r\n        if (\r\n            ProjectStatus(_projectStatus) == ProjectStatus.ToApprove ||\r\n            ProjectStatus(_projectStatus) == ProjectStatus.FinalizationCheck ||\r\n            ProjectStatus(_projectStatus) == ProjectStatus.Completed\r\n        ) {\r\n            _requestType = RequestType.SupervisorReq;\r\n        } else if (\r\n            ProjectStatus(_projectStatus) == ProjectStatus.StartProject\r\n        ) {\r\n            _requestType = RequestType.CompanyReq;\r\n        }\r\n        createRequest(\r\n            _indexProjectRequest,\r\n            _title,\r\n            _requestStatus,\r\n            _projectStatus,\r\n            _requestType,\r\n            _projectAddress,\r\n            _requestAddress,\r\n            _signature\r\n        );\r\n    }\r\n\r\n    function getAllProjectRequests()\r\n        public\r\n        view\r\n        returns (ProjectRequest[] memory)\r\n    {\r\n        ProjectRequest[] memory allProjectRequests;\r\n        if (projectRequestsCounter == 0) return allProjectRequests;\r\n\r\n        allProjectRequests = new ProjectRequest[](projectRequestsCounter);\r\n        for (uint256 index = 0; index < projectRequestsCounter; index++) {\r\n            ProjectRequest storage projectReq = projectRequests[index];\r\n            allProjectRequests[index] = projectReq;\r\n        }\r\n        return allProjectRequests;\r\n    }\r\n\r\n    function getLastProjectRequest(address _projectAddress)\r\n        public\r\n        view\r\n        returns (ProjectRequest memory)\r\n    {\r\n        ProjectRequest memory request;\r\n        if (projectRequestsCounter > 0) {\r\n            for (\r\n                uint256 index = projectRequestsCounter - 1;\r\n                index >= 0;\r\n                index--\r\n            ) {\r\n                if (_projectAddress == projectRequests[index]._projectAddress) {\r\n                    request = ProjectRequest(\r\n                        0, \"\", \"\",\r\n                        projectRequests[index]._status,\r\n                        projectRequests[index]._requestStatus,\r\n                        projectRequests[index]._projectAddress,\r\n                        address(0), address(0), 0, \"\"\r\n                    );\r\n                    return request;\r\n                }\r\n            }\r\n        }\r\n        return request;\r\n    }\r\n\r\n\r\n    /**  DATA FOR SUPERVISOR && COMPANY  */\r\n\r\n    mapping(uint256 => Request) public requests;\r\n    uint256 public requestsCounter = 0;\r\n\r\n    function createRequest(\r\n        uint256 _indexProjectRequest,\r\n        string memory _title,\r\n        uint256 _requestStatus,\r\n        uint256 _projectStatus,\r\n        RequestType _requestType,\r\n        address _projectAddress,\r\n        address _requestAddress,\r\n        string memory _signature\r\n    ) internal {\r\n        requests[requestsCounter] = Request(\r\n            requestsCounter,\r\n            _indexProjectRequest,\r\n            _title,\r\n            RequestStatus(_requestStatus),\r\n            ProjectStatus(_projectStatus),\r\n            _requestType,\r\n            _projectAddress,\r\n            _userAddress,\r\n            _requestAddress,\r\n            block.timestamp,\r\n            _signature\r\n        );\r\n\r\n        emit RequestEvent(requests[requestsCounter], _requestAddress);\r\n        requestsCounter++;\r\n    }\r\n\r\n    function updateRequest(\r\n        uint256 _index,\r\n        uint256 _indexProjectRequest,\r\n        string memory _comments,\r\n        uint256 _requestStatus,\r\n        uint256 _projectStatus,\r\n        address _projectAddress,\r\n        string memory _signature\r\n    ) public {\r\n        // Update request status in the Requests Mapping and Struct Array\r\n        requests[_index]._requestStatus = RequestStatus(_requestStatus);\r\n        requests[_index]._signature = _signature;\r\n\r\n        emit RequestEvent(requests[_index], requests[_index]._requestAddress);\r\n\r\n        // Update project request status in the Project Requests Mapping and Struct Array\r\n        projectRequests[_indexProjectRequest]._comments = _comments;\r\n        projectRequests[_indexProjectRequest]._requestStatus = RequestStatus(_requestStatus);\r\n        projectRequests[_indexProjectRequest]._signature = _signature;\r\n\r\n        emit ProjectRequestEvent(projectRequests[_indexProjectRequest], _projectAddress);\r\n\r\n        // Update ProjectStatus to the requested status - Porject Mapping and Struct Array\r\n        if (RequestStatus.Approved == RequestStatus(_requestStatus)) {\r\n        projects[_projectAddress]._status = ProjectStatus(_projectStatus);\r\n        emit ProjectEvent(projects[_projectAddress], _projectAddress);\r\n        }\r\n    }\r\n\r\n    function getAllRequests() public view returns (Request[] memory) {\r\n        Request[] memory allRequests;\r\n        if (requestsCounter == 0) return allRequests;\r\n\r\n        allRequests = new Request[](requestsCounter);\r\n        for (uint256 index = 0; index < requestsCounter; index++) {\r\n            Request storage request = requests[index];\r\n            allRequests[index] = request;\r\n        }\r\n        return allRequests;\r\n    }\r\n}\r\n",
  "sourcePath": "/mnt/c/Users/Beniamin/source/repos/DissertationProject/contracts/ProjectChain.sol",
  "compiler": {
    "name": "solc",
    "version": "0.8.10+commit.fc410830.Emscripten.clang"
  },
  "schemaVersion": "3.4.3",
  "updatedAt": "2021-12-09T15:18:42.433Z",
  "networkType": "ethereum",
  "devdoc": {
    "kind": "dev",
    "methods": {},
    "version": 1
  },
  "userdoc": {
    "kind": "user",
    "methods": {
      "projectRequests(uint256)": {
        "notice": "Project Requests  "
      },
      "projects(address)": {
        "notice": "PROJECT INITIATOR  "
      },
      "requests(uint256)": {
        "notice": "DATA FOR SUPERVISOR && COMPANY  "
      }
    },
    "version": 1
  }
}