{
  "contractName": "ProjectChain",
  "abi": [
    {
      "inputs": [],
      "stateMutability": "nonpayable",
      "type": "constructor"
    },
    {
      "anonymous": false,
      "inputs": [
        {
          "indexed": false,
          "internalType": "uint256",
          "name": "_index",
          "type": "uint256"
        },
        {
          "indexed": false,
          "internalType": "bytes32",
          "name": "_name",
          "type": "bytes32"
        },
        {
          "indexed": false,
          "internalType": "enum SharedChain.ProjectStatus",
          "name": "_status",
          "type": "uint8"
        },
        {
          "indexed": false,
          "internalType": "string",
          "name": "_ipfsFileCID",
          "type": "string"
        },
        {
          "indexed": false,
          "internalType": "address",
          "name": "_projectAddress",
          "type": "address"
        },
        {
          "indexed": false,
          "internalType": "address",
          "name": "_userAddress",
          "type": "address"
        },
        {
          "indexed": false,
          "internalType": "uint256",
          "name": "_timestamp",
          "type": "uint256"
        },
        {
          "indexed": false,
          "internalType": "bytes32",
          "name": "_signature",
          "type": "bytes32"
        }
      ],
      "name": "ProjectEvent",
      "type": "event"
    },
    {
      "anonymous": false,
      "inputs": [
        {
          "indexed": false,
          "internalType": "uint256",
          "name": "_index",
          "type": "uint256"
        },
        {
          "indexed": false,
          "internalType": "bytes32",
          "name": "_title",
          "type": "bytes32"
        },
        {
          "indexed": false,
          "internalType": "string",
          "name": "_comments",
          "type": "string"
        },
        {
          "indexed": false,
          "internalType": "enum SharedChain.ProjectStatus",
          "name": "_status",
          "type": "uint8"
        },
        {
          "indexed": false,
          "internalType": "enum SharedChain.RequestStatus",
          "name": "_requestStatus",
          "type": "uint8"
        },
        {
          "indexed": false,
          "internalType": "address",
          "name": "_projectAddress",
          "type": "address"
        },
        {
          "indexed": false,
          "internalType": "address",
          "name": "_userAddress",
          "type": "address"
        },
        {
          "indexed": false,
          "internalType": "address",
          "name": "_requestAddress",
          "type": "address"
        },
        {
          "indexed": false,
          "internalType": "uint256",
          "name": "_timestamp",
          "type": "uint256"
        },
        {
          "indexed": false,
          "internalType": "bytes32",
          "name": "_signature",
          "type": "bytes32"
        }
      ],
      "name": "ProjectRequestEvent",
      "type": "event"
    },
    {
      "anonymous": false,
      "inputs": [
        {
          "indexed": false,
          "internalType": "uint256",
          "name": "_index",
          "type": "uint256"
        },
        {
          "indexed": false,
          "internalType": "uint256",
          "name": "_indexProjectRequest",
          "type": "uint256"
        },
        {
          "indexed": false,
          "internalType": "bytes32",
          "name": "_title",
          "type": "bytes32"
        },
        {
          "indexed": false,
          "internalType": "enum SharedChain.RequestStatus",
          "name": "_status",
          "type": "uint8"
        },
        {
          "indexed": false,
          "internalType": "enum SharedChain.ProjectStatus",
          "name": "_projectStatus",
          "type": "uint8"
        },
        {
          "indexed": false,
          "internalType": "enum SharedChain.RequestType",
          "name": "_requestType",
          "type": "uint8"
        },
        {
          "indexed": false,
          "internalType": "address",
          "name": "_projectAddress",
          "type": "address"
        },
        {
          "indexed": false,
          "internalType": "address",
          "name": "_userAddress",
          "type": "address"
        },
        {
          "indexed": false,
          "internalType": "address",
          "name": "_requestAddress",
          "type": "address"
        },
        {
          "indexed": false,
          "internalType": "uint256",
          "name": "_timestamp",
          "type": "uint256"
        },
        {
          "indexed": false,
          "internalType": "bytes32",
          "name": "_signature",
          "type": "bytes32"
        }
      ],
      "name": "RequestEvent",
      "type": "event"
    },
    {
      "anonymous": false,
      "inputs": [
        {
          "indexed": false,
          "internalType": "uint256",
          "name": "_index",
          "type": "uint256"
        },
        {
          "indexed": true,
          "internalType": "string",
          "name": "_username",
          "type": "string"
        },
        {
          "indexed": false,
          "internalType": "bytes32",
          "name": "_email",
          "type": "bytes32"
        },
        {
          "indexed": false,
          "internalType": "bytes32",
          "name": "_firstname",
          "type": "bytes32"
        },
        {
          "indexed": false,
          "internalType": "bytes32",
          "name": "_lastname",
          "type": "bytes32"
        },
        {
          "indexed": true,
          "internalType": "enum UserChain.Roles",
          "name": "_role",
          "type": "uint8"
        },
        {
          "indexed": true,
          "internalType": "address",
          "name": "_walletAddress",
          "type": "address"
        },
        {
          "indexed": false,
          "internalType": "uint256",
          "name": "_timestamp",
          "type": "uint256"
        }
      ],
      "name": "UserEvent",
      "type": "event"
    },
    {
      "inputs": [
        {
          "internalType": "uint256",
          "name": "_role",
          "type": "uint256"
        },
        {
          "internalType": "address",
          "name": "_walletAddress",
          "type": "address"
        }
      ],
      "name": "changeUserRole",
      "outputs": [],
      "stateMutability": "nonpayable",
      "type": "function"
    },
    {
      "inputs": [],
      "name": "getAllUsers",
      "outputs": [
        {
          "components": [
            {
              "internalType": "uint256",
              "name": "_index",
              "type": "uint256"
            },
            {
              "internalType": "string",
              "name": "_username",
              "type": "string"
            },
            {
              "internalType": "bytes32",
              "name": "_email",
              "type": "bytes32"
            },
            {
              "internalType": "bytes32",
              "name": "_firstname",
              "type": "bytes32"
            },
            {
              "internalType": "bytes32",
              "name": "_lastname",
              "type": "bytes32"
            },
            {
              "internalType": "enum UserChain.Roles",
              "name": "_role",
              "type": "uint8"
            },
            {
              "internalType": "address",
              "name": "_walletAddress",
              "type": "address"
            },
            {
              "internalType": "uint256",
              "name": "_timestamp",
              "type": "uint256"
            }
          ],
          "internalType": "struct UserChain.User[]",
          "name": "",
          "type": "tuple[]"
        }
      ],
      "stateMutability": "view",
      "type": "function",
      "constant": true
    },
    {
      "inputs": [
        {
          "internalType": "address",
          "name": "_walletAddress",
          "type": "address"
        }
      ],
      "name": "getUserInfo",
      "outputs": [
        {
          "components": [
            {
              "internalType": "uint256",
              "name": "_index",
              "type": "uint256"
            },
            {
              "internalType": "string",
              "name": "_username",
              "type": "string"
            },
            {
              "internalType": "bytes32",
              "name": "_email",
              "type": "bytes32"
            },
            {
              "internalType": "bytes32",
              "name": "_firstname",
              "type": "bytes32"
            },
            {
              "internalType": "bytes32",
              "name": "_lastname",
              "type": "bytes32"
            },
            {
              "internalType": "enum UserChain.Roles",
              "name": "_role",
              "type": "uint8"
            },
            {
              "internalType": "address",
              "name": "_walletAddress",
              "type": "address"
            },
            {
              "internalType": "uint256",
              "name": "_timestamp",
              "type": "uint256"
            }
          ],
          "internalType": "struct UserChain.User",
          "name": "",
          "type": "tuple"
        }
      ],
      "stateMutability": "view",
      "type": "function",
      "constant": true
    },
    {
      "inputs": [],
      "name": "owner",
      "outputs": [
        {
          "internalType": "address",
          "name": "",
          "type": "address"
        }
      ],
      "stateMutability": "view",
      "type": "function",
      "constant": true
    },
    {
      "inputs": [
        {
          "internalType": "uint256",
          "name": "",
          "type": "uint256"
        }
      ],
      "name": "projectRequests",
      "outputs": [
        {
          "internalType": "uint256",
          "name": "_index",
          "type": "uint256"
        },
        {
          "internalType": "bytes32",
          "name": "_title",
          "type": "bytes32"
        },
        {
          "internalType": "string",
          "name": "_comments",
          "type": "string"
        },
        {
          "internalType": "enum SharedChain.ProjectStatus",
          "name": "_status",
          "type": "uint8"
        },
        {
          "internalType": "enum SharedChain.RequestStatus",
          "name": "_requestStatus",
          "type": "uint8"
        },
        {
          "internalType": "address",
          "name": "_projectAddress",
          "type": "address"
        },
        {
          "internalType": "address",
          "name": "_userAddress",
          "type": "address"
        },
        {
          "internalType": "address",
          "name": "_requestAddress",
          "type": "address"
        },
        {
          "internalType": "uint256",
          "name": "_timestamp",
          "type": "uint256"
        },
        {
          "internalType": "bytes32",
          "name": "_signature",
          "type": "bytes32"
        }
      ],
      "stateMutability": "view",
      "type": "function",
      "constant": true
    },
    {
      "inputs": [
        {
          "internalType": "uint256",
          "name": "",
          "type": "uint256"
        }
      ],
      "name": "projectRequestsAddress",
      "outputs": [
        {
          "internalType": "address",
          "name": "",
          "type": "address"
        }
      ],
      "stateMutability": "view",
      "type": "function",
      "constant": true
    },
    {
      "inputs": [],
      "name": "projectRequestsCounter",
      "outputs": [
        {
          "internalType": "uint256",
          "name": "",
          "type": "uint256"
        }
      ],
      "stateMutability": "view",
      "type": "function",
      "constant": true
    },
    {
      "inputs": [
        {
          "internalType": "address",
          "name": "",
          "type": "address"
        }
      ],
      "name": "projects",
      "outputs": [
        {
          "internalType": "uint256",
          "name": "_index",
          "type": "uint256"
        },
        {
          "internalType": "bytes32",
          "name": "_name",
          "type": "bytes32"
        },
        {
          "internalType": "enum SharedChain.ProjectStatus",
          "name": "_status",
          "type": "uint8"
        },
        {
          "internalType": "string",
          "name": "_ipfsFileCID",
          "type": "string"
        },
        {
          "internalType": "address",
          "name": "_projectAddress",
          "type": "address"
        },
        {
          "internalType": "address",
          "name": "_userAddress",
          "type": "address"
        },
        {
          "internalType": "uint256",
          "name": "_timestamp",
          "type": "uint256"
        },
        {
          "internalType": "bytes32",
          "name": "_signature",
          "type": "bytes32"
        }
      ],
      "stateMutability": "view",
      "type": "function",
      "constant": true
    },
    {
      "inputs": [
        {
          "internalType": "uint256",
          "name": "",
          "type": "uint256"
        }
      ],
      "name": "projectsAddress",
      "outputs": [
        {
          "internalType": "address",
          "name": "",
          "type": "address"
        }
      ],
      "stateMutability": "view",
      "type": "function",
      "constant": true
    },
    {
      "inputs": [],
      "name": "projectsCounter",
      "outputs": [
        {
          "internalType": "uint256",
          "name": "",
          "type": "uint256"
        }
      ],
      "stateMutability": "view",
      "type": "function",
      "constant": true
    },
    {
      "inputs": [
        {
          "internalType": "string",
          "name": "_username",
          "type": "string"
        },
        {
          "internalType": "bytes32",
          "name": "_email",
          "type": "bytes32"
        },
        {
          "internalType": "bytes32",
          "name": "_firstname",
          "type": "bytes32"
        },
        {
          "internalType": "bytes32",
          "name": "_lastname",
          "type": "bytes32"
        },
        {
          "internalType": "uint256",
          "name": "_role",
          "type": "uint256"
        },
        {
          "internalType": "address",
          "name": "_walletAddress",
          "type": "address"
        }
      ],
      "name": "registerUser",
      "outputs": [],
      "stateMutability": "nonpayable",
      "type": "function"
    },
    {
      "inputs": [
        {
          "internalType": "uint256",
          "name": "",
          "type": "uint256"
        }
      ],
      "name": "requests",
      "outputs": [
        {
          "internalType": "uint256",
          "name": "_index",
          "type": "uint256"
        },
        {
          "internalType": "uint256",
          "name": "_indexProjectRequest",
          "type": "uint256"
        },
        {
          "internalType": "bytes32",
          "name": "_title",
          "type": "bytes32"
        },
        {
          "internalType": "enum SharedChain.RequestStatus",
          "name": "_requestStatus",
          "type": "uint8"
        },
        {
          "internalType": "enum SharedChain.ProjectStatus",
          "name": "_projectStatus",
          "type": "uint8"
        },
        {
          "internalType": "enum SharedChain.RequestType",
          "name": "_requestType",
          "type": "uint8"
        },
        {
          "internalType": "address",
          "name": "_projectAddress",
          "type": "address"
        },
        {
          "internalType": "address",
          "name": "_userAddress",
          "type": "address"
        },
        {
          "internalType": "address",
          "name": "_requestAddress",
          "type": "address"
        },
        {
          "internalType": "uint256",
          "name": "_timestamp",
          "type": "uint256"
        },
        {
          "internalType": "bytes32",
          "name": "_signature",
          "type": "bytes32"
        }
      ],
      "stateMutability": "view",
      "type": "function",
      "constant": true
    },
    {
      "inputs": [
        {
          "internalType": "uint256",
          "name": "",
          "type": "uint256"
        }
      ],
      "name": "requestsAddress",
      "outputs": [
        {
          "internalType": "address",
          "name": "",
          "type": "address"
        }
      ],
      "stateMutability": "view",
      "type": "function",
      "constant": true
    },
    {
      "inputs": [],
      "name": "requestsCounter",
      "outputs": [
        {
          "internalType": "uint256",
          "name": "",
          "type": "uint256"
        }
      ],
      "stateMutability": "view",
      "type": "function",
      "constant": true
    },
    {
      "inputs": [
        {
          "internalType": "address",
          "name": "",
          "type": "address"
        }
      ],
      "name": "users",
      "outputs": [
        {
          "internalType": "uint256",
          "name": "_index",
          "type": "uint256"
        },
        {
          "internalType": "string",
          "name": "_username",
          "type": "string"
        },
        {
          "internalType": "bytes32",
          "name": "_email",
          "type": "bytes32"
        },
        {
          "internalType": "bytes32",
          "name": "_firstname",
          "type": "bytes32"
        },
        {
          "internalType": "bytes32",
          "name": "_lastname",
          "type": "bytes32"
        },
        {
          "internalType": "enum UserChain.Roles",
          "name": "_role",
          "type": "uint8"
        },
        {
          "internalType": "address",
          "name": "_walletAddress",
          "type": "address"
        },
        {
          "internalType": "uint256",
          "name": "_timestamp",
          "type": "uint256"
        }
      ],
      "stateMutability": "view",
      "type": "function",
      "constant": true
    },
    {
      "inputs": [
        {
          "internalType": "uint256",
          "name": "",
          "type": "uint256"
        }
      ],
      "name": "usersAddress",
      "outputs": [
        {
          "internalType": "address",
          "name": "",
          "type": "address"
        }
      ],
      "stateMutability": "view",
      "type": "function",
      "constant": true
    },
    {
      "inputs": [],
      "name": "usersCounter",
      "outputs": [
        {
          "internalType": "uint256",
          "name": "",
          "type": "uint256"
        }
      ],
      "stateMutability": "view",
      "type": "function",
      "constant": true
    },
    {
      "inputs": [
        {
          "internalType": "bytes32",
          "name": "_text",
          "type": "bytes32"
        },
        {
          "internalType": "uint256",
          "name": "_index",
          "type": "uint256"
        }
      ],
      "name": "createUniqueProjectAddress",
      "outputs": [
        {
          "internalType": "address",
          "name": "",
          "type": "address"
        }
      ],
      "stateMutability": "view",
      "type": "function",
      "constant": true
    },
    {
      "inputs": [
        {
          "internalType": "bytes32",
          "name": "_name",
          "type": "bytes32"
        },
        {
          "internalType": "uint256",
          "name": "_status",
          "type": "uint256"
        },
        {
          "internalType": "string",
          "name": "_ipfsFileCID",
          "type": "string"
        },
        {
          "internalType": "bytes32",
          "name": "_signature",
          "type": "bytes32"
        }
      ],
      "name": "createProject",
      "outputs": [],
      "stateMutability": "nonpayable",
      "type": "function"
    },
    {
      "inputs": [
        {
          "internalType": "address",
          "name": "_address",
          "type": "address"
        }
      ],
      "name": "getProjectInfo",
      "outputs": [
        {
          "components": [
            {
              "internalType": "uint256",
              "name": "_index",
              "type": "uint256"
            },
            {
              "internalType": "bytes32",
              "name": "_name",
              "type": "bytes32"
            },
            {
              "internalType": "enum SharedChain.ProjectStatus",
              "name": "_status",
              "type": "uint8"
            },
            {
              "internalType": "string",
              "name": "_ipfsFileCID",
              "type": "string"
            },
            {
              "internalType": "address",
              "name": "_projectAddress",
              "type": "address"
            },
            {
              "internalType": "address",
              "name": "_userAddress",
              "type": "address"
            },
            {
              "internalType": "uint256",
              "name": "_timestamp",
              "type": "uint256"
            },
            {
              "internalType": "bytes32",
              "name": "_signature",
              "type": "bytes32"
            }
          ],
          "internalType": "struct SharedChain.Project",
          "name": "",
          "type": "tuple"
        }
      ],
      "stateMutability": "view",
      "type": "function",
      "constant": true
    },
    {
      "inputs": [],
      "name": "getAllProjects",
      "outputs": [
        {
          "components": [
            {
              "internalType": "uint256",
              "name": "_index",
              "type": "uint256"
            },
            {
              "internalType": "bytes32",
              "name": "_name",
              "type": "bytes32"
            },
            {
              "internalType": "enum SharedChain.ProjectStatus",
              "name": "_status",
              "type": "uint8"
            },
            {
              "internalType": "string",
              "name": "_ipfsFileCID",
              "type": "string"
            },
            {
              "internalType": "address",
              "name": "_projectAddress",
              "type": "address"
            },
            {
              "internalType": "address",
              "name": "_userAddress",
              "type": "address"
            },
            {
              "internalType": "uint256",
              "name": "_timestamp",
              "type": "uint256"
            },
            {
              "internalType": "bytes32",
              "name": "_signature",
              "type": "bytes32"
            }
          ],
          "internalType": "struct SharedChain.Project[]",
          "name": "",
          "type": "tuple[]"
        }
      ],
      "stateMutability": "view",
      "type": "function",
      "constant": true
    },
    {
      "inputs": [],
      "name": "createUniqueProjectRequestAddress",
      "outputs": [
        {
          "internalType": "address",
          "name": "",
          "type": "address"
        }
      ],
      "stateMutability": "nonpayable",
      "type": "function"
    },
    {
      "inputs": [
        {
          "internalType": "bytes32",
          "name": "_title",
          "type": "bytes32"
        },
        {
          "internalType": "uint256",
          "name": "_status",
          "type": "uint256"
        },
        {
          "internalType": "uint256",
          "name": "_requestStatus",
          "type": "uint256"
        },
        {
          "internalType": "address",
          "name": "_projectAddress",
          "type": "address"
        },
        {
          "internalType": "address",
          "name": "_projectReqAddress",
          "type": "address"
        },
        {
          "internalType": "bytes32",
          "name": "_signature",
          "type": "bytes32"
        }
      ],
      "name": "createProjectRequest",
      "outputs": [],
      "stateMutability": "nonpayable",
      "type": "function"
    },
    {
      "inputs": [],
      "name": "getAllProjectRequests",
      "outputs": [
        {
          "components": [
            {
              "internalType": "uint256",
              "name": "_index",
              "type": "uint256"
            },
            {
              "internalType": "bytes32",
              "name": "_title",
              "type": "bytes32"
            },
            {
              "internalType": "string",
              "name": "_comments",
              "type": "string"
            },
            {
              "internalType": "enum SharedChain.ProjectStatus",
              "name": "_status",
              "type": "uint8"
            },
            {
              "internalType": "enum SharedChain.RequestStatus",
              "name": "_requestStatus",
              "type": "uint8"
            },
            {
              "internalType": "address",
              "name": "_projectAddress",
              "type": "address"
            },
            {
              "internalType": "address",
              "name": "_userAddress",
              "type": "address"
            },
            {
              "internalType": "address",
              "name": "_requestAddress",
              "type": "address"
            },
            {
              "internalType": "uint256",
              "name": "_timestamp",
              "type": "uint256"
            },
            {
              "internalType": "bytes32",
              "name": "_signature",
              "type": "bytes32"
            }
          ],
          "internalType": "struct SharedChain.ProjectRequest[]",
          "name": "",
          "type": "tuple[]"
        }
      ],
      "stateMutability": "view",
      "type": "function",
      "constant": true
    },
    {
      "inputs": [
        {
          "internalType": "address",
          "name": "_projectAddress",
          "type": "address"
        }
      ],
      "name": "getLastProjectRequest",
      "outputs": [
        {
          "components": [
            {
              "internalType": "uint256",
              "name": "_index",
              "type": "uint256"
            },
            {
              "internalType": "bytes32",
              "name": "_title",
              "type": "bytes32"
            },
            {
              "internalType": "string",
              "name": "_comments",
              "type": "string"
            },
            {
              "internalType": "enum SharedChain.ProjectStatus",
              "name": "_status",
              "type": "uint8"
            },
            {
              "internalType": "enum SharedChain.RequestStatus",
              "name": "_requestStatus",
              "type": "uint8"
            },
            {
              "internalType": "address",
              "name": "_projectAddress",
              "type": "address"
            },
            {
              "internalType": "address",
              "name": "_userAddress",
              "type": "address"
            },
            {
              "internalType": "address",
              "name": "_requestAddress",
              "type": "address"
            },
            {
              "internalType": "uint256",
              "name": "_timestamp",
              "type": "uint256"
            },
            {
              "internalType": "bytes32",
              "name": "_signature",
              "type": "bytes32"
            }
          ],
          "internalType": "struct SharedChain.ProjectRequest",
          "name": "",
          "type": "tuple"
        }
      ],
      "stateMutability": "view",
      "type": "function",
      "constant": true
    },
    {
      "inputs": [
        {
          "internalType": "uint256",
          "name": "_index",
          "type": "uint256"
        },
        {
          "internalType": "string",
          "name": "_comments",
          "type": "string"
        },
        {
          "internalType": "uint256",
          "name": "_requestStatus",
          "type": "uint256"
        },
        {
          "internalType": "uint256",
          "name": "_indexProjectRequest",
          "type": "uint256"
        },
        {
          "internalType": "uint256",
          "name": "_projectStatus",
          "type": "uint256"
        },
        {
          "internalType": "address",
          "name": "_projectAddress",
          "type": "address"
        },
        {
          "internalType": "bytes32",
          "name": "_signature",
          "type": "bytes32"
        }
      ],
      "name": "updateRequest",
      "outputs": [],
      "stateMutability": "nonpayable",
      "type": "function"
    },
    {
      "inputs": [],
      "name": "getAllRequests",
      "outputs": [
        {
          "components": [
            {
              "internalType": "uint256",
              "name": "_index",
              "type": "uint256"
            },
            {
              "internalType": "uint256",
              "name": "_indexProjectRequest",
              "type": "uint256"
            },
            {
              "internalType": "bytes32",
              "name": "_title",
              "type": "bytes32"
            },
            {
              "internalType": "enum SharedChain.RequestStatus",
              "name": "_requestStatus",
              "type": "uint8"
            },
            {
              "internalType": "enum SharedChain.ProjectStatus",
              "name": "_projectStatus",
              "type": "uint8"
            },
            {
              "internalType": "enum SharedChain.RequestType",
              "name": "_requestType",
              "type": "uint8"
            },
            {
              "internalType": "address",
              "name": "_projectAddress",
              "type": "address"
            },
            {
              "internalType": "address",
              "name": "_userAddress",
              "type": "address"
            },
            {
              "internalType": "address",
              "name": "_requestAddress",
              "type": "address"
            },
            {
              "internalType": "uint256",
              "name": "_timestamp",
              "type": "uint256"
            },
            {
              "internalType": "bytes32",
              "name": "_signature",
              "type": "bytes32"
            }
          ],
          "internalType": "struct SharedChain.Request[]",
          "name": "",
          "type": "tuple[]"
        }
      ],
      "stateMutability": "view",
      "type": "function",
      "constant": true
    }
  ],
  "bytecode": "0x60806040526000600355600060055560006007556000600a556000600d5534801561002957600080fd5b50336000806101000a81548173ffffffffffffffffffffffffffffffffffffffff021916908373ffffffffffffffffffffffffffffffffffffffff16021790555033600460006101000a81548173ffffffffffffffffffffffffffffffffffffffff021916908373ffffffffffffffffffffffffffffffffffffffff160217905550614db0806100ba6000396000f3fe608060405234801561001057600080fd5b50600436106101a95760003560e01c806378e8cd85116100f9578063c19ded1311610097578063d67b1b9911610071578063d67b1b991461054f578063e2842d791461056d578063fb1a002a1461058b578063fe360ea5146105a9576101a9565b8063c19ded13146104dc578063cc1ee4db14610515578063cf13f5d414610533576101a9565b8063840e78fd116100d3578063840e78fd146104345780638da5cb5b1461046b5780639100978614610489578063a87430ba146104a5576101a9565b806378e8cd85146103ac57806380d03829146103dc57806381d12c58146103fa576101a9565b8063400003db116101665780635e6f90ae116101405780635e6f90ae146103125780636386c1c71461032e578063663c22691461035e57806376c932e01461037c576101a9565b8063400003db1461029457806347ee45b9146102b257806356a3eead146102e2576101a9565b80630b287892146101ae57806311389f54146101de57806317e8c952146101fa5780632c91324c14610218578063347d1066146102485780633490594814610278575b600080fd5b6101c860048036038101906101c39190613498565b6105c7565b6040516101d59190613738565b60405180910390f35b6101f860048036038101906101f391906137b2565b610907565b005b610202610cc0565b60405161020f919061384e565b60405180910390f35b610232600480360381019061022d9190613869565b610d51565b60405161023f919061384e565b60405180910390f35b610262600480360381019061025d9190613896565b610d90565b60405161026f919061384e565b60405180910390f35b610292600480360381019061028d9190613a0b565b610dea565b005b61029c610f55565b6040516102a99190613c65565b60405180910390f35b6102cc60048036038101906102c79190613498565b61124e565b6040516102d99190613d37565b60405180910390f35b6102fc60048036038101906102f79190613869565b611449565b604051610309919061384e565b60405180910390f35b61032c60048036038101906103279190613d59565b611488565b005b61034860048036038101906103439190613498565b6117a8565b6040516103559190613ed4565b60405180910390f35b610366611957565b6040516103739190613f05565b60405180910390f35b61039660048036038101906103919190613869565b61195d565b6040516103a3919061384e565b60405180910390f35b6103c660048036038101906103c19190613869565b61199c565b6040516103d3919061384e565b60405180910390f35b6103e46119db565b6040516103f19190614092565b60405180910390f35b610414600480360381019061040f9190613869565b611cb3565b60405161042b9b9a99989796959493929190614129565b60405180910390f35b61044e60048036038101906104499190613498565b611d94565b60405161046298979695949392919061421e565b60405180910390f35b610473611eb1565b604051610480919061384e565b60405180910390f35b6104a3600480360381019061049e91906142a3565b611ed5565b005b6104bf60048036038101906104ba9190613498565b61212f565b6040516104d39897969594939291906142f2565b60405180910390f35b6104f660048036038101906104f19190613869565b61222c565b60405161050c9a99989796959493929190614377565b60405180910390f35b61051d612382565b60405161052a9190613f05565b60405180910390f35b61054d6004803603810190610548919061441a565b612388565b005b6105576126aa565b6040516105649190613f05565b60405180910390f35b6105756126b0565b6040516105829190614635565b60405180910390f35b61059361293c565b6040516105a091906147f7565b60405180910390f35b6105b1612be8565b6040516105be9190613f05565b60405180910390f35b6105cf6130ed565b6105d76130ed565b6000600a5411156108fd5760006001600a546105f39190614848565b90505b600081106108fb576009600082815260200190815260200160002060030160029054906101000a900473ffffffffffffffffffffffffffffffffffffffff1673ffffffffffffffffffffffffffffffffffffffff168473ffffffffffffffffffffffffffffffffffffffff1614156108e85760405180610140016040528060096000848152602001908152602001600020600001548152602001600960008481526020019081526020016000206001015481526020016009600084815260200190815260200160002060020180546106cd906148ab565b80601f01602080910402602001604051908101604052809291908181526020018280546106f9906148ab565b80156107465780601f1061071b57610100808354040283529160200191610746565b820191906000526020600020905b81548152906001019060200180831161072957829003601f168201915b505050505081526020016009600084815260200190815260200160002060030160009054906101000a900460ff16600481111561078657610785613590565b5b81526020016009600084815260200190815260200160002060030160019054906101000a900460ff1660028111156107c1576107c0613590565b5b81526020016009600084815260200190815260200160002060030160029054906101000a900473ffffffffffffffffffffffffffffffffffffffff1673ffffffffffffffffffffffffffffffffffffffff1681526020016009600084815260200190815260200160002060040160009054906101000a900473ffffffffffffffffffffffffffffffffffffffff1673ffffffffffffffffffffffffffffffffffffffff1681526020016009600084815260200190815260200160002060050160009054906101000a900473ffffffffffffffffffffffffffffffffffffffff1673ffffffffffffffffffffffffffffffffffffffff168152602001428152602001600960008481526020019081526020016000206007015481525091508192505050610902565b80806108f3906148dd565b9150506105f6565b505b809150505b919050565b604051806101400160405280600a54815260200187815260200160405180602001604052806000815250815260200186600481111561094957610948613590565b5b600481111561095b5761095a613590565b5b815260200185600281111561097357610972613590565b5b600281111561098557610984613590565b5b81526020018473ffffffffffffffffffffffffffffffffffffffff168152602001600460009054906101000a900473ffffffffffffffffffffffffffffffffffffffff1673ffffffffffffffffffffffffffffffffffffffff1681526020018373ffffffffffffffffffffffffffffffffffffffff1681526020014281526020018281525060096000600a54815260200190815260200160002060008201518160000155602082015181600101556040820151816002019080519060200190610a4f9291906131ac565b5060608201518160030160006101000a81548160ff02191690836004811115610a7b57610a7a613590565b5b021790555060808201518160030160016101000a81548160ff02191690836002811115610aab57610aaa613590565b5b021790555060a08201518160030160026101000a81548173ffffffffffffffffffffffffffffffffffffffff021916908373ffffffffffffffffffffffffffffffffffffffff16021790555060c08201518160040160006101000a81548173ffffffffffffffffffffffffffffffffffffffff021916908373ffffffffffffffffffffffffffffffffffffffff16021790555060e08201518160050160006101000a81548173ffffffffffffffffffffffffffffffffffffffff021916908373ffffffffffffffffffffffffffffffffffffffff16021790555061010082015181600601556101208201518160070155905050610bae600a548786888787612bee565b7f90583ca8ead7c14ff92850c7bb66c4dbe2b936e5357ab8774fca965e7ffb4486600a5487876004811115610be657610be5613590565b5b876002811115610bf957610bf8613590565b5b87600460009054906101000a900473ffffffffffffffffffffffffffffffffffffffff16884289604051610c359998979695949392919061492d565b60405180910390a1600b829080600181540180825580915050600190039060005260206000200160009091909190916101000a81548173ffffffffffffffffffffffffffffffffffffffff021916908373ffffffffffffffffffffffffffffffffffffffff160217905550600a6000815480929190610cb3906149ce565b9190505550505050505050565b600060056000815480929190610cd5906149ce565b91905055507f6373643f2e213f2a73616c61733b646c412e3b735f6173000000000000000000600460009054906101000a900473ffffffffffffffffffffffffffffffffffffffff16600554604051602001610d3393929190614aa1565b6040516020818303038152906040528051906020012060001c905090565b60028181548110610d6157600080fd5b906000526020600020016000915054906101000a900473ffffffffffffffffffffffffffffffffffffffff1681565b600082600460009054906101000a900473ffffffffffffffffffffffffffffffffffffffff1683604051602001610dc993929190614aa1565b6040516020818303038152906040528051906020012060001c905092915050565b846002811115610dfd57610dfc613590565b5b600c600089815260200190815260200160002060030160006101000a81548160ff02191690836002811115610e3557610e34613590565b5b021790555080600c60008981526020019081526020016000206007018190555085600960008681526020019081526020016000206002019080519060200190610e7f9291906131ac565b50846002811115610e9357610e92613590565b5b6009600086815260200190815260200160002060030160016101000a81548160ff02191690836002811115610ecb57610eca613590565b5b0217905550826004811115610ee357610ee2613590565b5b600660008473ffffffffffffffffffffffffffffffffffffffff1673ffffffffffffffffffffffffffffffffffffffff16815260200190815260200160002060020160006101000a81548160ff02191690836004811115610f4757610f46613590565b5b021790555050505050505050565b60606000600a5467ffffffffffffffff811115610f7557610f746138e0565b5b604051908082528060200260200182016040528015610fae57816020015b610f9b6130ed565b815260200190600190039081610f935790505b50905060005b60075481101561124657600060096000838152602001908152602001600020905080604051806101400160405290816000820154815260200160018201548152602001600282018054611006906148ab565b80601f0160208091040260200160405190810160405280929190818152602001828054611032906148ab565b801561107f5780601f106110545761010080835404028352916020019161107f565b820191906000526020600020905b81548152906001019060200180831161106257829003601f168201915b505050505081526020016003820160009054906101000a900460ff1660048111156110ad576110ac613590565b5b60048111156110bf576110be613590565b5b81526020016003820160019054906101000a900460ff1660028111156110e8576110e7613590565b5b60028111156110fa576110f9613590565b5b81526020016003820160029054906101000a900473ffffffffffffffffffffffffffffffffffffffff1673ffffffffffffffffffffffffffffffffffffffff1673ffffffffffffffffffffffffffffffffffffffff1681526020016004820160009054906101000a900473ffffffffffffffffffffffffffffffffffffffff1673ffffffffffffffffffffffffffffffffffffffff1673ffffffffffffffffffffffffffffffffffffffff1681526020016005820160009054906101000a900473ffffffffffffffffffffffffffffffffffffffff1673ffffffffffffffffffffffffffffffffffffffff1673ffffffffffffffffffffffffffffffffffffffff1681526020016006820154815260200160078201548152505083838151811061122757611226614ade565b5b602002602001018190525050808061123e906149ce565b915050610fb4565b508091505090565b611256613232565b600660008373ffffffffffffffffffffffffffffffffffffffff1673ffffffffffffffffffffffffffffffffffffffff1681526020019081526020016000206040518061010001604052908160008201548152602001600182015481526020016002820160009054906101000a900460ff1660048111156112da576112d9613590565b5b60048111156112ec576112eb613590565b5b8152602001600382018054611300906148ab565b80601f016020809104026020016040519081016040528092919081815260200182805461132c906148ab565b80156113795780601f1061134e57610100808354040283529160200191611379565b820191906000526020600020905b81548152906001019060200180831161135c57829003601f168201915b505050505081526020016004820160009054906101000a900473ffffffffffffffffffffffffffffffffffffffff1673ffffffffffffffffffffffffffffffffffffffff1673ffffffffffffffffffffffffffffffffffffffff1681526020016005820160009054906101000a900473ffffffffffffffffffffffffffffffffffffffff1673ffffffffffffffffffffffffffffffffffffffff1673ffffffffffffffffffffffffffffffffffffffff168152602001600682015481526020016007820154815250509050919050565b600e818154811061145957600080fd5b906000526020600020016000915054906101000a900473ffffffffffffffffffffffffffffffffffffffff1681565b60006114b67f6373643f534073616c61733b646c413233345f442e3b735f6173000000000000600754610d90565b905060405180610100016040528060075481526020018681526020018560048111156114e5576114e4613590565b5b60048111156114f7576114f6613590565b5b81526020018481526020018273ffffffffffffffffffffffffffffffffffffffff168152602001600460009054906101000a900473ffffffffffffffffffffffffffffffffffffffff1673ffffffffffffffffffffffffffffffffffffffff16815260200142815260200183815250600660008373ffffffffffffffffffffffffffffffffffffffff1673ffffffffffffffffffffffffffffffffffffffff168152602001908152602001600020600082015181600001556020820151816001015560408201518160020160006101000a81548160ff021916908360048111156115e4576115e3613590565b5b021790555060608201518160030190805190602001906116059291906131ac565b5060808201518160040160006101000a81548173ffffffffffffffffffffffffffffffffffffffff021916908373ffffffffffffffffffffffffffffffffffffffff16021790555060a08201518160050160006101000a81548173ffffffffffffffffffffffffffffffffffffffff021916908373ffffffffffffffffffffffffffffffffffffffff16021790555060c0820151816006015560e082015181600701559050507ff2265692fdcb7284199661816e9f39943f05d9164a772dbe50150284b61e18b4600754868660048111156116e3576116e2613590565b5b8685600460009054906101000a900473ffffffffffffffffffffffffffffffffffffffff16428960405161171e98979695949392919061421e565b60405180910390a16008819080600181540180825580915050600190039060005260206000200160009091909190916101000a81548173ffffffffffffffffffffffffffffffffffffffff021916908373ffffffffffffffffffffffffffffffffffffffff1602179055506007600081548092919061179c906149ce565b91905055505050505050565b6117b06132bb565b600160008373ffffffffffffffffffffffffffffffffffffffff1673ffffffffffffffffffffffffffffffffffffffff1681526020019081526020016000206040518061010001604052908160008201548152602001600182018054611815906148ab565b80601f0160208091040260200160405190810160405280929190818152602001828054611841906148ab565b801561188e5780601f106118635761010080835404028352916020019161188e565b820191906000526020600020905b81548152906001019060200180831161187157829003601f168201915b505050505081526020016002820154815260200160038201548152602001600482015481526020016005820160009054906101000a900460ff1660038111156118da576118d9613590565b5b60038111156118ec576118eb613590565b5b81526020016005820160019054906101000a900473ffffffffffffffffffffffffffffffffffffffff1673ffffffffffffffffffffffffffffffffffffffff1673ffffffffffffffffffffffffffffffffffffffff1681526020016006820154815250509050919050565b600d5481565b6008818154811061196d57600080fd5b906000526020600020016000915054906101000a900473ffffffffffffffffffffffffffffffffffffffff1681565b600b81815481106119ac57600080fd5b906000526020600020016000915054906101000a900473ffffffffffffffffffffffffffffffffffffffff1681565b6060600060075467ffffffffffffffff8111156119fb576119fa6138e0565b5b604051908082528060200260200182016040528015611a3457816020015b611a21613232565b815260200190600190039081611a195790505b50905060005b600754811015611cab57600060088281548110611a5a57611a59614ade565b5b9060005260206000200160009054906101000a900473ffffffffffffffffffffffffffffffffffffffff1690506000600660008373ffffffffffffffffffffffffffffffffffffffff1673ffffffffffffffffffffffffffffffffffffffff1681526020019081526020016000209050806040518061010001604052908160008201548152602001600182015481526020016002820160009054906101000a900460ff166004811115611b1057611b0f613590565b5b6004811115611b2257611b21613590565b5b8152602001600382018054611b36906148ab565b80601f0160208091040260200160405190810160405280929190818152602001828054611b62906148ab565b8015611baf5780601f10611b8457610100808354040283529160200191611baf565b820191906000526020600020905b815481529060010190602001808311611b9257829003601f168201915b505050505081526020016004820160009054906101000a900473ffffffffffffffffffffffffffffffffffffffff1673ffffffffffffffffffffffffffffffffffffffff1673ffffffffffffffffffffffffffffffffffffffff1681526020016005820160009054906101000a900473ffffffffffffffffffffffffffffffffffffffff1673ffffffffffffffffffffffffffffffffffffffff1673ffffffffffffffffffffffffffffffffffffffff16815260200160068201548152602001600782015481525050848481518110611c8b57611c8a614ade565b5b602002602001018190525050508080611ca3906149ce565b915050611a3a565b508091505090565b600c6020528060005260406000206000915090508060000154908060010154908060020154908060030160009054906101000a900460ff16908060030160019054906101000a900460ff16908060030160029054906101000a900460ff16908060030160039054906101000a900473ffffffffffffffffffffffffffffffffffffffff16908060040160009054906101000a900473ffffffffffffffffffffffffffffffffffffffff16908060050160009054906101000a900473ffffffffffffffffffffffffffffffffffffffff1690806006015490806007015490508b565b60066020528060005260406000206000915090508060000154908060010154908060020160009054906101000a900460ff1690806003018054611dd6906148ab565b80601f0160208091040260200160405190810160405280929190818152602001828054611e02906148ab565b8015611e4f5780601f10611e2457610100808354040283529160200191611e4f565b820191906000526020600020905b815481529060010190602001808311611e3257829003601f168201915b5050505050908060040160009054906101000a900473ffffffffffffffffffffffffffffffffffffffff16908060050160009054906101000a900473ffffffffffffffffffffffffffffffffffffffff16908060060154908060070154905088565b60008054906101000a900473ffffffffffffffffffffffffffffffffffffffff1681565b816003811115611ee857611ee7613590565b5b600160008373ffffffffffffffffffffffffffffffffffffffff1673ffffffffffffffffffffffffffffffffffffffff16815260200190815260200160002060050160006101000a81548160ff02191690836003811115611f4c57611f4b613590565b5b02179055508073ffffffffffffffffffffffffffffffffffffffff16826003811115611f7b57611f7a613590565b5b6003811115611f8d57611f8c613590565b5b600160008473ffffffffffffffffffffffffffffffffffffffff1673ffffffffffffffffffffffffffffffffffffffff168152602001908152602001600020600101604051611fdc9190614bac565b60405180910390207ff17f3effabbd51830c4ffa8b6910ac12573d210009e0aedb1a55ae5026192e9a600160008673ffffffffffffffffffffffffffffffffffffffff1673ffffffffffffffffffffffffffffffffffffffff16815260200190815260200160002060000154600160008773ffffffffffffffffffffffffffffffffffffffff1673ffffffffffffffffffffffffffffffffffffffff16815260200190815260200160002060020154600160008873ffffffffffffffffffffffffffffffffffffffff1673ffffffffffffffffffffffffffffffffffffffff16815260200190815260200160002060030154600160008973ffffffffffffffffffffffffffffffffffffffff1673ffffffffffffffffffffffffffffffffffffffff1681526020019081526020016000206004015442604051612123959493929190614bc3565b60405180910390a45050565b6001602052806000526040600020600091509050806000015490806001018054612158906148ab565b80601f0160208091040260200160405190810160405280929190818152602001828054612184906148ab565b80156121d15780601f106121a6576101008083540402835291602001916121d1565b820191906000526020600020905b8154815290600101906020018083116121b457829003601f168201915b5050505050908060020154908060030154908060040154908060050160009054906101000a900460ff16908060050160019054906101000a900473ffffffffffffffffffffffffffffffffffffffff16908060060154905088565b600960205280600052604060002060009150905080600001549080600101549080600201805461225b906148ab565b80601f0160208091040260200160405190810160405280929190818152602001828054612287906148ab565b80156122d45780601f106122a9576101008083540402835291602001916122d4565b820191906000526020600020905b8154815290600101906020018083116122b757829003601f168201915b5050505050908060030160009054906101000a900460ff16908060030160019054906101000a900460ff16908060030160029054906101000a900473ffffffffffffffffffffffffffffffffffffffff16908060040160009054906101000a900473ffffffffffffffffffffffffffffffffffffffff16908060050160009054906101000a900473ffffffffffffffffffffffffffffffffffffffff1690806006015490806007015490508a565b600a5481565b3373ffffffffffffffffffffffffffffffffffffffff1660008054906101000a900473ffffffffffffffffffffffffffffffffffffffff1673ffffffffffffffffffffffffffffffffffffffff1614612416576040517f08c379a000000000000000000000000000000000000000000000000000000000815260040161240d90614c62565b60405180910390fd5b604051806101000160405280600354815260200187815260200186815260200185815260200184815260200183600381111561245557612454613590565b5b600381111561246757612466613590565b5b81526020018273ffffffffffffffffffffffffffffffffffffffff16815260200142815250600160008373ffffffffffffffffffffffffffffffffffffffff1673ffffffffffffffffffffffffffffffffffffffff1681526020019081526020016000206000820151816000015560208201518160010190805190602001906124f19291906131ac565b5060408201518160020155606082015181600301556080820151816004015560a08201518160050160006101000a81548160ff0219169083600381111561253b5761253a613590565b5b021790555060c08201518160050160016101000a81548173ffffffffffffffffffffffffffffffffffffffff021916908373ffffffffffffffffffffffffffffffffffffffff16021790555060e082015181600601559050508073ffffffffffffffffffffffffffffffffffffffff168260038111156125be576125bd613590565b5b60038111156125d0576125cf613590565b5b876040516125de9190614cb3565b60405180910390207ff17f3effabbd51830c4ffa8b6910ac12573d210009e0aedb1a55ae5026192e9a6003548989894260405161261f959493929190614bc3565b60405180910390a46002819080600181540180825580915050600190039060005260206000200160009091909190916101000a81548173ffffffffffffffffffffffffffffffffffffffff021916908373ffffffffffffffffffffffffffffffffffffffff1602179055506003600081548092919061269d906149ce565b9190505550505050505050565b60035481565b6060600060035467ffffffffffffffff8111156126d0576126cf6138e0565b5b60405190808252806020026020018201604052801561270957816020015b6126f66132bb565b8152602001906001900390816126ee5790505b50905060005b6003548110156129345760006002828154811061272f5761272e614ade565b5b9060005260206000200160009054906101000a900473ffffffffffffffffffffffffffffffffffffffff1690506000600160008373ffffffffffffffffffffffffffffffffffffffff1673ffffffffffffffffffffffffffffffffffffffff16815260200190815260200160002090508060405180610100016040529081600082015481526020016001820180546127c6906148ab565b80601f01602080910402602001604051908101604052809291908181526020018280546127f2906148ab565b801561283f5780601f106128145761010080835404028352916020019161283f565b820191906000526020600020905b81548152906001019060200180831161282257829003601f168201915b505050505081526020016002820154815260200160038201548152602001600482015481526020016005820160009054906101000a900460ff16600381111561288b5761288a613590565b5b600381111561289d5761289c613590565b5b81526020016005820160019054906101000a900473ffffffffffffffffffffffffffffffffffffffff1673ffffffffffffffffffffffffffffffffffffffff1673ffffffffffffffffffffffffffffffffffffffff16815260200160068201548152505084848151811061291457612913614ade565b5b60200260200101819052505050808061292c906149ce565b91505061270f565b508091505090565b60606000600d5467ffffffffffffffff81111561295c5761295b6138e0565b5b60405190808252806020026020018201604052801561299557816020015b612982613331565b81526020019060019003908161297a5790505b50905060005b600d54811015612be0576000600c6000838152602001908152602001600020905080604051806101600160405290816000820154815260200160018201548152602001600282015481526020016003820160009054906101000a900460ff166002811115612a0c57612a0b613590565b5b6002811115612a1e57612a1d613590565b5b81526020016003820160019054906101000a900460ff166004811115612a4757612a46613590565b5b6004811115612a5957612a58613590565b5b81526020016003820160029054906101000a900460ff166001811115612a8257612a81613590565b5b6001811115612a9457612a93613590565b5b81526020016003820160039054906101000a900473ffffffffffffffffffffffffffffffffffffffff1673ffffffffffffffffffffffffffffffffffffffff1673ffffffffffffffffffffffffffffffffffffffff1681526020016004820160009054906101000a900473ffffffffffffffffffffffffffffffffffffffff1673ffffffffffffffffffffffffffffffffffffffff1673ffffffffffffffffffffffffffffffffffffffff1681526020016005820160009054906101000a900473ffffffffffffffffffffffffffffffffffffffff1673ffffffffffffffffffffffffffffffffffffffff1673ffffffffffffffffffffffffffffffffffffffff16815260200160068201548152602001600782015481525050838381518110612bc157612bc0614ade565b5b6020026020010181905250508080612bd8906149ce565b91505061299b565b508091505090565b60075481565b600060016004811115612c0457612c03613590565b5b846004811115612c1757612c16613590565b5b6004811115612c2957612c28613590565b5b1480612c6b575060036004811115612c4457612c43613590565b5b846004811115612c5757612c56613590565b5b6004811115612c6957612c68613590565b5b145b80612cab5750600480811115612c8457612c83613590565b5b846004811115612c9757612c96613590565b5b6004811115612ca957612ca8613590565b5b145b15612cb95760009050612cfe565b60026004811115612ccd57612ccc613590565b5b846004811115612ce057612cdf613590565b5b6004811115612cf257612cf1613590565b5b1415612cfd57600190505b5b612d0d87878787858888612d16565b50505050505050565b604051806101600160405280600d548152602001888152602001878152602001866002811115612d4957612d48613590565b5b6002811115612d5b57612d5a613590565b5b8152602001856004811115612d7357612d72613590565b5b6004811115612d8557612d84613590565b5b8152602001846001811115612d9d57612d9c613590565b5b81526020018373ffffffffffffffffffffffffffffffffffffffff168152602001600460009054906101000a900473ffffffffffffffffffffffffffffffffffffffff1673ffffffffffffffffffffffffffffffffffffffff1681526020018273ffffffffffffffffffffffffffffffffffffffff1681526020014281526020016000801916815250600c6000600d54815260200190815260200160002060008201518160000155602082015181600101556040820151816002015560608201518160030160006101000a81548160ff02191690836002811115612e8457612e83613590565b5b021790555060808201518160030160016101000a81548160ff02191690836004811115612eb457612eb3613590565b5b021790555060a08201518160030160026101000a81548160ff02191690836001811115612ee457612ee3613590565b5b021790555060c08201518160030160036101000a81548173ffffffffffffffffffffffffffffffffffffffff021916908373ffffffffffffffffffffffffffffffffffffffff16021790555060e08201518160040160006101000a81548173ffffffffffffffffffffffffffffffffffffffff021916908373ffffffffffffffffffffffffffffffffffffffff1602179055506101008201518160050160006101000a81548173ffffffffffffffffffffffffffffffffffffffff021916908373ffffffffffffffffffffffffffffffffffffffff160217905550610120820151816006015561014082015181600701559050507faac9d1362d2ae7196557149fecbb467805d15ac910dbaba92fa94d1ac1e6a4b5600d54888888600281111561301157613010613590565b5b88600481111561302457613023613590565b5b8888600460009054906101000a900473ffffffffffffffffffffffffffffffffffffffff1689426040516130619a99989796959493929190614cd1565b60405180910390a1600e819080600181540180825580915050600190039060005260206000200160009091909190916101000a81548173ffffffffffffffffffffffffffffffffffffffff021916908373ffffffffffffffffffffffffffffffffffffffff160217905550600d60008154809291906130df906149ce565b919050555050505050505050565b6040518061014001604052806000815260200160008019168152602001606081526020016000600481111561312557613124613590565b5b81526020016000600281111561313e5761313d613590565b5b8152602001600073ffffffffffffffffffffffffffffffffffffffff168152602001600073ffffffffffffffffffffffffffffffffffffffff168152602001600073ffffffffffffffffffffffffffffffffffffffff16815260200160008152602001600080191681525090565b8280546131b8906148ab565b90600052602060002090601f0160209004810192826131da5760008555613221565b82601f106131f357805160ff1916838001178555613221565b82800160010185558215613221579182015b82811115613220578251825591602001919060010190613205565b5b50905061322e9190613409565b5090565b60405180610100016040528060008152602001600080191681526020016000600481111561326357613262613590565b5b815260200160608152602001600073ffffffffffffffffffffffffffffffffffffffff168152602001600073ffffffffffffffffffffffffffffffffffffffff16815260200160008152602001600080191681525090565b60405180610100016040528060008152602001606081526020016000801916815260200160008019168152602001600080191681526020016000600381111561330757613306613590565b5b8152602001600073ffffffffffffffffffffffffffffffffffffffff168152602001600081525090565b6040518061016001604052806000815260200160008152602001600080191681526020016000600281111561336957613368613590565b5b81526020016000600481111561338257613381613590565b5b81526020016000600181111561339b5761339a613590565b5b8152602001600073ffffffffffffffffffffffffffffffffffffffff168152602001600073ffffffffffffffffffffffffffffffffffffffff168152602001600073ffffffffffffffffffffffffffffffffffffffff16815260200160008152602001600080191681525090565b5b8082111561342257600081600090555060010161340a565b5090565b6000604051905090565b600080fd5b600080fd5b600073ffffffffffffffffffffffffffffffffffffffff82169050919050565b60006134658261343a565b9050919050565b6134758161345a565b811461348057600080fd5b50565b6000813590506134928161346c565b92915050565b6000602082840312156134ae576134ad613430565b5b60006134bc84828501613483565b91505092915050565b6000819050919050565b6134d8816134c5565b82525050565b6000819050919050565b6134f1816134de565b82525050565b600081519050919050565b600082825260208201905092915050565b60005b83811015613531578082015181840152602081019050613516565b83811115613540576000848401525b50505050565b6000601f19601f8301169050919050565b6000613562826134f7565b61356c8185613502565b935061357c818560208601613513565b61358581613546565b840191505092915050565b7f4e487b7100000000000000000000000000000000000000000000000000000000600052602160045260246000fd5b600581106135d0576135cf613590565b5b50565b60008190506135e1826135bf565b919050565b60006135f1826135d3565b9050919050565b613601816135e6565b82525050565b6003811061361857613617613590565b5b50565b600081905061362982613607565b919050565b60006136398261361b565b9050919050565b6136498161362e565b82525050565b6136588161345a565b82525050565b60006101408301600083015161367760008601826134cf565b50602083015161368a60208601826134e8565b50604083015184820360408601526136a28282613557565b91505060608301516136b760608601826135f8565b5060808301516136ca6080860182613640565b5060a08301516136dd60a086018261364f565b5060c08301516136f060c086018261364f565b5060e083015161370360e086018261364f565b506101008301516137186101008601826134cf565b5061012083015161372d6101208601826134e8565b508091505092915050565b60006020820190508181036000830152613752818461365e565b905092915050565b613763816134de565b811461376e57600080fd5b50565b6000813590506137808161375a565b92915050565b61378f816134c5565b811461379a57600080fd5b50565b6000813590506137ac81613786565b92915050565b60008060008060008060c087890312156137cf576137ce613430565b5b60006137dd89828a01613771565b96505060206137ee89828a0161379d565b95505060406137ff89828a0161379d565b945050606061381089828a01613483565b935050608061382189828a01613483565b92505060a061383289828a01613771565b9150509295509295509295565b6138488161345a565b82525050565b6000602082019050613863600083018461383f565b92915050565b60006020828403121561387f5761387e613430565b5b600061388d8482850161379d565b91505092915050565b600080604083850312156138ad576138ac613430565b5b60006138bb85828601613771565b92505060206138cc8582860161379d565b9150509250929050565b600080fd5b600080fd5b7f4e487b7100000000000000000000000000000000000000000000000000000000600052604160045260246000fd5b61391882613546565b810181811067ffffffffffffffff82111715613937576139366138e0565b5b80604052505050565b600061394a613426565b9050613956828261390f565b919050565b600067ffffffffffffffff821115613976576139756138e0565b5b61397f82613546565b9050602081019050919050565b82818337600083830152505050565b60006139ae6139a98461395b565b613940565b9050828152602081018484840111156139ca576139c96138db565b5b6139d584828561398c565b509392505050565b600082601f8301126139f2576139f16138d6565b5b8135613a0284826020860161399b565b91505092915050565b600080600080600080600060e0888a031215613a2a57613a29613430565b5b6000613a388a828b0161379d565b975050602088013567ffffffffffffffff811115613a5957613a58613435565b5b613a658a828b016139dd565b9650506040613a768a828b0161379d565b9550506060613a878a828b0161379d565b9450506080613a988a828b0161379d565b93505060a0613aa98a828b01613483565b92505060c0613aba8a828b01613771565b91505092959891949750929550565b600081519050919050565b600082825260208201905092915050565b6000819050602082019050919050565b600061014083016000830151613b0e60008601826134cf565b506020830151613b2160208601826134e8565b5060408301518482036040860152613b398282613557565b9150506060830151613b4e60608601826135f8565b506080830151613b616080860182613640565b5060a0830151613b7460a086018261364f565b5060c0830151613b8760c086018261364f565b5060e0830151613b9a60e086018261364f565b50610100830151613baf6101008601826134cf565b50610120830151613bc46101208601826134e8565b508091505092915050565b6000613bdb8383613af5565b905092915050565b6000602082019050919050565b6000613bfb82613ac9565b613c058185613ad4565b935083602082028501613c1785613ae5565b8060005b85811015613c535784840389528151613c348582613bcf565b9450613c3f83613be3565b925060208a01995050600181019050613c1b565b50829750879550505050505092915050565b60006020820190508181036000830152613c7f8184613bf0565b905092915050565b600061010083016000830151613ca060008601826134cf565b506020830151613cb360208601826134e8565b506040830151613cc660408601826135f8565b5060608301518482036060860152613cde8282613557565b9150506080830151613cf3608086018261364f565b5060a0830151613d0660a086018261364f565b5060c0830151613d1960c08601826134cf565b5060e0830151613d2c60e08601826134e8565b508091505092915050565b60006020820190508181036000830152613d518184613c87565b905092915050565b60008060008060808587031215613d7357613d72613430565b5b6000613d8187828801613771565b9450506020613d928782880161379d565b935050604085013567ffffffffffffffff811115613db357613db2613435565b5b613dbf878288016139dd565b9250506060613dd087828801613771565b91505092959194509250565b60048110613ded57613dec613590565b5b50565b6000819050613dfe82613ddc565b919050565b6000613e0e82613df0565b9050919050565b613e1e81613e03565b82525050565b600061010083016000830151613e3d60008601826134cf565b5060208301518482036020860152613e558282613557565b9150506040830151613e6a60408601826134e8565b506060830151613e7d60608601826134e8565b506080830151613e9060808601826134e8565b5060a0830151613ea360a0860182613e15565b5060c0830151613eb660c086018261364f565b5060e0830151613ec960e08601826134cf565b508091505092915050565b60006020820190508181036000830152613eee8184613e24565b905092915050565b613eff816134c5565b82525050565b6000602082019050613f1a6000830184613ef6565b92915050565b600081519050919050565b600082825260208201905092915050565b6000819050602082019050919050565b600061010083016000830151613f6560008601826134cf565b506020830151613f7860208601826134e8565b506040830151613f8b60408601826135f8565b5060608301518482036060860152613fa38282613557565b9150506080830151613fb8608086018261364f565b5060a0830151613fcb60a086018261364f565b5060c0830151613fde60c08601826134cf565b5060e0830151613ff160e08601826134e8565b508091505092915050565b60006140088383613f4c565b905092915050565b6000602082019050919050565b600061402882613f20565b6140328185613f2b565b93508360208202850161404485613f3c565b8060005b8581101561408057848403895281516140618582613ffc565b945061406c83614010565b925060208a01995050600181019050614048565b50829750879550505050505092915050565b600060208201905081810360008301526140ac818461401d565b905092915050565b6140bd816134de565b82525050565b6140cc8161362e565b82525050565b6140db816135e6565b82525050565b600281106140f2576140f1613590565b5b50565b6000819050614103826140e1565b919050565b6000614113826140f5565b9050919050565b61412381614108565b82525050565b60006101608201905061413f600083018e613ef6565b61414c602083018d613ef6565b614159604083018c6140b4565b614166606083018b6140c3565b614173608083018a6140d2565b61418060a083018961411a565b61418d60c083018861383f565b61419a60e083018761383f565b6141a861010083018661383f565b6141b6610120830185613ef6565b6141c46101408301846140b4565b9c9b505050505050505050505050565b600082825260208201905092915050565b60006141f0826134f7565b6141fa81856141d4565b935061420a818560208601613513565b61421381613546565b840191505092915050565b600061010082019050614234600083018b613ef6565b614241602083018a6140b4565b61424e60408301896140d2565b818103606083015261426081886141e5565b905061426f608083018761383f565b61427c60a083018661383f565b61428960c0830185613ef6565b61429660e08301846140b4565b9998505050505050505050565b600080604083850312156142ba576142b9613430565b5b60006142c88582860161379d565b92505060206142d985828601613483565b9150509250929050565b6142ec81613e03565b82525050565b600061010082019050614308600083018b613ef6565b818103602083015261431a818a6141e5565b905061432960408301896140b4565b61433660608301886140b4565b61434360808301876140b4565b61435060a08301866142e3565b61435d60c083018561383f565b61436a60e0830184613ef6565b9998505050505050505050565b60006101408201905061438d600083018d613ef6565b61439a602083018c6140b4565b81810360408301526143ac818b6141e5565b90506143bb606083018a6140d2565b6143c860808301896140c3565b6143d560a083018861383f565b6143e260c083018761383f565b6143ef60e083018661383f565b6143fd610100830185613ef6565b61440b6101208301846140b4565b9b9a5050505050505050505050565b60008060008060008060c0878903121561443757614436613430565b5b600087013567ffffffffffffffff81111561445557614454613435565b5b61446189828a016139dd565b965050602061447289828a01613771565b955050604061448389828a01613771565b945050606061449489828a01613771565b93505060806144a589828a0161379d565b92505060a06144b689828a01613483565b9150509295509295509295565b600081519050919050565b600082825260208201905092915050565b6000819050602082019050919050565b60006101008301600083015161450860008601826134cf565b50602083015184820360208601526145208282613557565b915050604083015161453560408601826134e8565b50606083015161454860608601826134e8565b50608083015161455b60808601826134e8565b5060a083015161456e60a0860182613e15565b5060c083015161458160c086018261364f565b5060e083015161459460e08601826134cf565b508091505092915050565b60006145ab83836144ef565b905092915050565b6000602082019050919050565b60006145cb826144c3565b6145d581856144ce565b9350836020820285016145e7856144df565b8060005b858110156146235784840389528151614604858261459f565b945061460f836145b3565b925060208a019950506001810190506145eb565b50829750879550505050505092915050565b6000602082019050818103600083015261464f81846145c0565b905092915050565b600081519050919050565b600082825260208201905092915050565b6000819050602082019050919050565b61468c81614108565b82525050565b610160820160008201516146a960008501826134cf565b5060208201516146bc60208501826134cf565b5060408201516146cf60408501826134e8565b5060608201516146e26060850182613640565b5060808201516146f560808501826135f8565b5060a082015161470860a0850182614683565b5060c082015161471b60c085018261364f565b5060e082015161472e60e085018261364f565b5061010082015161474361010085018261364f565b506101208201516147586101208501826134cf565b5061014082015161476d6101408501826134e8565b50505050565b600061477f8383614692565b6101608301905092915050565b6000602082019050919050565b60006147a482614657565b6147ae8185614662565b93506147b983614673565b8060005b838110156147ea5781516147d18882614773565b97506147dc8361478c565b9250506001810190506147bd565b5085935050505092915050565b600060208201905081810360008301526148118184614799565b905092915050565b7f4e487b7100000000000000000000000000000000000000000000000000000000600052601160045260246000fd5b6000614853826134c5565b915061485e836134c5565b92508282101561487157614870614819565b5b828203905092915050565b7f4e487b7100000000000000000000000000000000000000000000000000000000600052602260045260246000fd5b600060028204905060018216806148c357607f821691505b602082108114156148d7576148d661487c565b5b50919050565b60006148e8826134c5565b915060008214156148fc576148fb614819565b5b600182039050919050565b50565b60006149176000836141d4565b915061492282614907565b600082019050919050565b600061014082019050614943600083018c613ef6565b614950602083018b6140b4565b81810360408301526149618161490a565b9050614970606083018a6140d2565b61497d60808301896140c3565b61498a60a083018861383f565b61499760c083018761383f565b6149a460e083018661383f565b6149b2610100830185613ef6565b6149c06101208301846140b4565b9a9950505050505050505050565b60006149d9826134c5565b91507fffffffffffffffffffffffffffffffffffffffffffffffffffffffffffffffff821415614a0c57614a0b614819565b5b600182019050919050565b6000819050919050565b614a32614a2d826134de565b614a17565b82525050565b60008160601b9050919050565b6000614a5082614a38565b9050919050565b6000614a6282614a45565b9050919050565b614a7a614a758261345a565b614a57565b82525050565b6000819050919050565b614a9b614a96826134c5565b614a80565b82525050565b6000614aad8286614a21565b602082019150614abd8285614a69565b601482019150614acd8284614a8a565b602082019150819050949350505050565b7f4e487b7100000000000000000000000000000000000000000000000000000000600052603260045260246000fd5b600081905092915050565b60008190508160005260206000209050919050565b60008154614b3a816148ab565b614b448186614b0d565b94506001821660008114614b5f5760018114614b7057614ba3565b60ff19831686528186019350614ba3565b614b7985614b18565b60005b83811015614b9b57815481890152600182019150602081019050614b7c565b838801955050505b50505092915050565b6000614bb88284614b2d565b915081905092915050565b600060a082019050614bd86000830188613ef6565b614be560208301876140b4565b614bf260408301866140b4565b614bff60608301856140b4565b614c0c6080830184613ef6565b9695505050505050565b7f596f7520617265206e6f7420616e206f776e6572000000000000000000000000600082015250565b6000614c4c6014836141d4565b9150614c5782614c16565b602082019050919050565b60006020820190508181036000830152614c7b81614c3f565b9050919050565b6000614c8d826134f7565b614c978185614b0d565b9350614ca7818560208601613513565b80840191505092915050565b6000614cbf8284614c82565b915081905092915050565b6000815250565b600061016082019050614ce7600083018d613ef6565b614cf4602083018c613ef6565b614d01604083018b6140b4565b614d0e606083018a6140c3565b614d1b60808301896140d2565b614d2860a083018861411a565b614d3560c083018761383f565b614d4260e083018661383f565b614d5061010083018561383f565b614d5e610120830184613ef6565b614d6b6101408301614cca565b9b9a505050505050505050505056fea264697066735822122054035571e721f0630a048e40b6dff94ddac708e46719f8b5aa0a99404218339664736f6c634300080a0033",
  "immutableReferences": {},
  "source": "// SPDX-License-Identifier: MIT\r\npragma solidity >=0.8.0 <0.9.0;\r\n\r\nimport \"./UserChain.sol\";\r\nimport \"./SharedChain.sol\";\r\n\r\ncontract ProjectChain is UserChain, SharedChain {\r\n    bytes32 constant PROJECT_HASH_VALUE = \"csd?S@salas;dlA234_D.;s_as\";\r\n    bytes32 constant REQUEST_HASH_VALUE = \"csd?.!?*salas;dlA.;s_as\";\r\n\r\n    address _projectInitiator;\r\n    uint _indexUniqueAddress = 0;\r\n\r\n    constructor() {\r\n        _projectInitiator = msg.sender;\r\n    }\r\n\r\n    modifier onlyProjectInitiator {\r\n        require(users[_projectInitiator]._role == Roles.ProjectInitiator, \"You don't have the rights for this resources.\");\r\n        require(_projectInitiator == msg.sender, \"You are not a project initiator\");\r\n        _;\r\n    }\r\n\r\n\r\n    /**  PROJECT INITIATOR  */\r\n\r\n    mapping(address => Project) public projects;\r\n    uint public projectsCounter = 0;\r\n    address[] public projectsAddress;\r\n\r\n    function createUniqueProjectAddress(bytes32 _text, uint _index) public view returns (address) {\r\n        return address(uint160(uint256(keccak256(abi.encodePacked(_text, _projectInitiator, _index)))));\r\n    }\r\n\r\n    function createProject(bytes32 _name, uint _status, string memory _ipfsFileCID, bytes32 _signature) public {\r\n        address _projectAddress = createUniqueProjectAddress(PROJECT_HASH_VALUE, projectsCounter);\r\n\r\n        projects[_projectAddress] = Project(\r\n            projectsCounter, _name, ProjectStatus(_status),\r\n            _ipfsFileCID, _projectAddress,\r\n            _projectInitiator, block.timestamp, _signature\r\n        );\r\n\r\n        emit ProjectEvent(\r\n            projectsCounter, _name, ProjectStatus(_status),\r\n            _ipfsFileCID, _projectAddress, _projectInitiator,\r\n            block.timestamp, _signature\r\n        );\r\n        projectsAddress.push(_projectAddress);\r\n        projectsCounter++;\r\n    }\r\n\r\n    function getProjectInfo(address _address) public view returns (Project memory) {\r\n        return projects[_address];\r\n    }\r\n\r\n    function getAllProjects() public view returns(Project[] memory) {\r\n        Project[] memory allProjects = new Project[](projectsCounter);\r\n        for (uint index = 0; index < projectsCounter; index++) {\r\n            address _projectAddress = projectsAddress[index];\r\n            Project storage project = projects[_projectAddress];\r\n            allProjects[index] = project;\r\n        }\r\n        return allProjects;\r\n    }\r\n\r\n\r\n    /**  Project Requests  */\r\n\r\n    mapping(uint => ProjectRequest) public projectRequests;\r\n    uint public projectRequestsCounter = 0;\r\n    address[] public projectRequestsAddress;\r\n\r\n    function createUniqueProjectRequestAddress() public returns (address) {\r\n        _indexUniqueAddress++;\r\n        return address(uint160(uint256(keccak256(abi.encodePacked(REQUEST_HASH_VALUE, _projectInitiator, _indexUniqueAddress)))));\r\n    }\r\n\r\n    function createProjectRequest(\r\n        bytes32 _title, uint _status, uint _requestStatus,\r\n        address _projectAddress, address _projectReqAddress, bytes32 _signature\r\n    ) public {\r\n        projectRequests[projectRequestsCounter] = ProjectRequest(\r\n            projectRequestsCounter, _title, '', ProjectStatus(_status),\r\n            RequestStatus(_requestStatus), _projectAddress,\r\n            _projectInitiator, _projectReqAddress, block.timestamp, _signature\r\n        );\r\n\r\n        filterRequests(projectRequestsCounter, _title, _requestStatus, _status, _projectAddress, _projectReqAddress);\r\n\r\n        emit ProjectRequestEvent(\r\n            projectRequestsCounter, _title, '',\r\n            ProjectStatus(_status), RequestStatus(_requestStatus),\r\n            _projectAddress, _projectInitiator,\r\n            _projectReqAddress, block.timestamp, _signature\r\n        );\r\n        projectRequestsAddress.push(_projectReqAddress);\r\n        projectRequestsCounter++;\r\n    }\r\n\r\n    function filterRequests(\r\n        uint _indexProjectRequest,\r\n        bytes32 _title,\r\n        uint _requestStatus,\r\n        uint _projectStatus,\r\n        address _projectAddress,\r\n        address _requestAddress\r\n    ) internal {\r\n        RequestType _requestType;\r\n        if (\r\n            ProjectStatus(_projectStatus) == ProjectStatus.ToApprove ||\r\n            ProjectStatus(_projectStatus) == ProjectStatus.FinalizationCheck ||\r\n            ProjectStatus(_projectStatus) == ProjectStatus.Completed\r\n        ) {\r\n            _requestType = RequestType.SupervisorReq;\r\n        } else if (ProjectStatus(_projectStatus) == ProjectStatus.StartProject) {\r\n            _requestType = RequestType.CompanyReq;\r\n        }\r\n        createRequest(_indexProjectRequest, _title, _requestStatus, _projectStatus, _requestType, _projectAddress, _requestAddress);\r\n    }\r\n\r\n    function getAllProjectRequests() external view returns(ProjectRequest[] memory) {\r\n        ProjectRequest[] memory allProjectRequests = new ProjectRequest[](projectRequestsCounter);\r\n        for (uint index = 0; index < projectsCounter; index++) {\r\n            ProjectRequest storage projectReq = projectRequests[index];\r\n            allProjectRequests[index] = projectReq;\r\n        }\r\n        return allProjectRequests;\r\n    }\r\n\r\n    function getLastProjectRequest(address _projectAddress) external view returns(ProjectRequest memory) {\r\n        ProjectRequest memory request;\r\n        if (projectRequestsCounter > 0) {\r\n            for (uint index = projectRequestsCounter - 1; index >= 0; index--) {\r\n                if (_projectAddress == projectRequests[index]._projectAddress) {\r\n\r\n                    request = ProjectRequest(\r\n                        projectRequests[index]._index,\r\n                        projectRequests[index]._title,\r\n                        projectRequests[index]._comments,\r\n                        projectRequests[index]._status,\r\n                        projectRequests[index]._requestStatus,\r\n                        projectRequests[index]._projectAddress,\r\n                        projectRequests[index]._userAddress,\r\n                        projectRequests[index]._requestAddress,\r\n                        block.timestamp,\r\n                        projectRequests[index]._signature\r\n                    );\r\n                /*\r\n                    request._index = projectRequests[index]._index;\r\n                    request._title = projectRequests[index]._title;\r\n                    request._comments = projectRequests[index]._comments;\r\n                    request._status = projectRequests[index]._status;\r\n                    request._requestStatus = projectRequests[index]._requestStatus;\r\n                    request._projectAddress = projectRequests[index]._projectAddress;\r\n                    request._userAddress = projectRequests[index]._userAddress;\r\n                    request._requestAddress = projectRequests[index]._requestAddress;\r\n                    request._timestamp = block.timestamp;\r\n                */\r\n\r\n                    return request;\r\n                }\r\n            }\r\n        }\r\n        return request;\r\n    }\r\n\r\n\r\n    /**  DATA FOR SUPERVISOR && COMPANY  */\r\n\r\n    mapping(uint => Request) public requests;\r\n    uint public requestsCounter = 0;\r\n    address[] public requestsAddress;\r\n\r\n    function createRequest(\r\n        uint _indexProjectRequest,\r\n        bytes32 _title,\r\n        uint _requestStatus,\r\n        uint _projectStatus,\r\n        RequestType _requestType,\r\n        address _projectAddress,\r\n        address _requestAddress\r\n    ) internal {\r\n        requests[requestsCounter] = Request(\r\n            requestsCounter, _indexProjectRequest, _title,\r\n            RequestStatus(_requestStatus), ProjectStatus(_projectStatus),\r\n            _requestType, _projectAddress, _projectInitiator,\r\n            _requestAddress, block.timestamp, ''\r\n        );\r\n\r\n        emit RequestEvent(\r\n            requestsCounter, _indexProjectRequest, _title,\r\n            RequestStatus(_requestStatus), ProjectStatus(_projectStatus),\r\n            _requestType, _projectAddress, _projectInitiator,\r\n            _requestAddress, block.timestamp, ''\r\n        );\r\n        requestsAddress.push(_requestAddress);\r\n        requestsCounter++;\r\n    }\r\n\r\n    function updateRequest(\r\n        uint _index,\r\n        string memory _comments,\r\n        uint _requestStatus,\r\n        uint _indexProjectRequest,\r\n        uint _projectStatus,\r\n        address _projectAddress,\r\n        bytes32 _signature\r\n    ) public {\r\n        // Update request status in the Requests Mapping and Struct Array\r\n        requests[_index]._requestStatus = RequestStatus(_requestStatus);\r\n        requests[_index]._signature = _signature;\r\n\r\n        //uint index = requests[_index]._index;\r\n        //allRequests[index]._requestStatus = RequestStatus(_requestStatus);\r\n        //allRequests[index]._signature = _signature;\r\n\r\n        // Update project request status in the Project Requests Mapping and Struct Array\r\n        projectRequests[_indexProjectRequest]._comments = _comments;\r\n        projectRequests[_indexProjectRequest]._requestStatus = RequestStatus(_requestStatus);\r\n\r\n        // Update ProjectStatus to the requested status - Porject Mapping and Struct Array\r\n        projects[_projectAddress]._status = ProjectStatus(_projectStatus);\r\n    }\r\n\r\n    function getAllRequests() public view returns(Request[] memory) {\r\n        Request[] memory allRequests = new Request[](requestsCounter);\r\n        for (uint index = 0; index < requestsCounter; index++) {\r\n            Request storage request = requests[index];\r\n            allRequests[index] = request;\r\n        }\r\n        return allRequests;\r\n    }\r\n}\r\n",
  "sourcePath": "/mnt/c/Users/Beniamin/source/repos/DissertationProject/contracts/ProjectChain.sol",
  "compiler": {
    "name": "solc",
    "version": "0.8.10+commit.fc410830.Emscripten.clang"
  },
  "schemaVersion": "3.4.3",
  "updatedAt": "2021-11-23T08:56:57.998Z",
  "networkType": "ethereum",
  "devdoc": {
    "kind": "dev",
    "methods": {},
    "version": 1
  },
  "userdoc": {
    "kind": "user",
    "methods": {
      "projectRequests(uint256)": {
        "notice": "Project Requests  "
      },
      "projects(address)": {
        "notice": "PROJECT INITIATOR  "
      },
      "requests(uint256)": {
        "notice": "DATA FOR SUPERVISOR && COMPANY  "
      }
    },
    "version": 1
  }
}