{
  "contractName": "ProjectChain",
  "abi": [
    {
      "inputs": [],
      "stateMutability": "nonpayable",
      "type": "constructor"
    },
    {
      "anonymous": false,
      "inputs": [
        {
          "indexed": false,
          "internalType": "uint256",
          "name": "_index",
          "type": "uint256"
        },
        {
          "indexed": false,
          "internalType": "string",
          "name": "_name",
          "type": "string"
        },
        {
          "indexed": false,
          "internalType": "string",
          "name": "_description",
          "type": "string"
        },
        {
          "indexed": false,
          "internalType": "enum ProjectChain.ProjectStatus",
          "name": "_status",
          "type": "uint8"
        },
        {
          "indexed": false,
          "internalType": "string",
          "name": "_ipfsFileCID",
          "type": "string"
        },
        {
          "indexed": false,
          "internalType": "address",
          "name": "_address",
          "type": "address"
        }
      ],
      "name": "CreateProject",
      "type": "event"
    },
    {
      "anonymous": false,
      "inputs": [
        {
          "indexed": false,
          "internalType": "uint256",
          "name": "_indexRequest",
          "type": "uint256"
        },
        {
          "indexed": false,
          "internalType": "enum ProjectChain.RequestStatus",
          "name": "_status",
          "type": "uint8"
        },
        {
          "components": [
            {
              "internalType": "uint256",
              "name": "_index",
              "type": "uint256"
            },
            {
              "internalType": "string",
              "name": "_name",
              "type": "string"
            },
            {
              "internalType": "string",
              "name": "_description",
              "type": "string"
            },
            {
              "internalType": "enum ProjectChain.ProjectStatus",
              "name": "_status",
              "type": "uint8"
            },
            {
              "internalType": "string",
              "name": "_ipfsFileCID",
              "type": "string"
            },
            {
              "internalType": "address",
              "name": "_address",
              "type": "address"
            }
          ],
          "indexed": false,
          "internalType": "struct ProjectChain.Project",
          "name": "_project",
          "type": "tuple"
        },
        {
          "indexed": false,
          "internalType": "enum ProjectChain.ProjectStatus",
          "name": "_projectStatus",
          "type": "uint8"
        },
        {
          "indexed": false,
          "internalType": "address",
          "name": "_subjectAddress",
          "type": "address"
        }
      ],
      "name": "UpdateCompanyRequestStatus",
      "type": "event"
    },
    {
      "anonymous": false,
      "inputs": [
        {
          "indexed": false,
          "internalType": "uint256",
          "name": "_indexRequest",
          "type": "uint256"
        },
        {
          "indexed": false,
          "internalType": "enum ProjectChain.RequestStatus",
          "name": "_status",
          "type": "uint8"
        },
        {
          "components": [
            {
              "internalType": "uint256",
              "name": "_index",
              "type": "uint256"
            },
            {
              "internalType": "string",
              "name": "_name",
              "type": "string"
            },
            {
              "internalType": "string",
              "name": "_description",
              "type": "string"
            },
            {
              "internalType": "enum ProjectChain.ProjectStatus",
              "name": "_status",
              "type": "uint8"
            },
            {
              "internalType": "string",
              "name": "_ipfsFileCID",
              "type": "string"
            },
            {
              "internalType": "address",
              "name": "_address",
              "type": "address"
            }
          ],
          "indexed": false,
          "internalType": "struct ProjectChain.Project",
          "name": "_project",
          "type": "tuple"
        },
        {
          "indexed": false,
          "internalType": "enum ProjectChain.ProjectStatus",
          "name": "_projectStatus",
          "type": "uint8"
        },
        {
          "indexed": false,
          "internalType": "address",
          "name": "_subjectAddress",
          "type": "address"
        }
      ],
      "name": "UpdateSupervisorRequestStatus",
      "type": "event"
    },
    {
      "anonymous": false,
      "inputs": [
        {
          "indexed": false,
          "internalType": "string",
          "name": "username",
          "type": "string"
        },
        {
          "indexed": false,
          "internalType": "string",
          "name": "firstname",
          "type": "string"
        },
        {
          "indexed": false,
          "internalType": "string",
          "name": "lastname",
          "type": "string"
        },
        {
          "indexed": false,
          "internalType": "string",
          "name": "email",
          "type": "string"
        },
        {
          "indexed": false,
          "internalType": "enum UserChain.Roles",
          "name": "role",
          "type": "uint8"
        },
        {
          "indexed": false,
          "internalType": "address",
          "name": "walletAddress",
          "type": "address"
        }
      ],
      "name": "UserChanges",
      "type": "event"
    },
    {
      "anonymous": false,
      "inputs": [
        {
          "indexed": true,
          "internalType": "address",
          "name": "_walletAddress",
          "type": "address"
        },
        {
          "indexed": true,
          "internalType": "string",
          "name": "_username",
          "type": "string"
        },
        {
          "indexed": false,
          "internalType": "string",
          "name": "_email",
          "type": "string"
        },
        {
          "indexed": false,
          "internalType": "string",
          "name": "_firstname",
          "type": "string"
        },
        {
          "indexed": false,
          "internalType": "string",
          "name": "_lastname",
          "type": "string"
        },
        {
          "indexed": true,
          "internalType": "enum UserChain.Roles",
          "name": "_role",
          "type": "uint8"
        }
      ],
      "name": "UserRegistered",
      "type": "event"
    },
    {
      "inputs": [
        {
          "internalType": "uint256",
          "name": "",
          "type": "uint256"
        }
      ],
      "name": "allProjects",
      "outputs": [
        {
          "internalType": "uint256",
          "name": "_index",
          "type": "uint256"
        },
        {
          "internalType": "string",
          "name": "_name",
          "type": "string"
        },
        {
          "internalType": "string",
          "name": "_description",
          "type": "string"
        },
        {
          "internalType": "enum ProjectChain.ProjectStatus",
          "name": "_status",
          "type": "uint8"
        },
        {
          "internalType": "string",
          "name": "_ipfsFileCID",
          "type": "string"
        },
        {
          "internalType": "address",
          "name": "_address",
          "type": "address"
        }
      ],
      "stateMutability": "view",
      "type": "function"
    },
    {
      "inputs": [
        {
          "internalType": "uint256",
          "name": "",
          "type": "uint256"
        }
      ],
      "name": "allUsers",
      "outputs": [
        {
          "internalType": "string",
          "name": "username",
          "type": "string"
        },
        {
          "internalType": "string",
          "name": "email",
          "type": "string"
        },
        {
          "internalType": "string",
          "name": "firstname",
          "type": "string"
        },
        {
          "internalType": "string",
          "name": "lastname",
          "type": "string"
        },
        {
          "internalType": "enum UserChain.Roles",
          "name": "role",
          "type": "uint8"
        },
        {
          "internalType": "address",
          "name": "walletAddress",
          "type": "address"
        }
      ],
      "stateMutability": "view",
      "type": "function"
    },
    {
      "inputs": [
        {
          "internalType": "uint256",
          "name": "_role",
          "type": "uint256"
        },
        {
          "internalType": "address",
          "name": "_walletAddress",
          "type": "address"
        }
      ],
      "name": "changeUserRole",
      "outputs": [],
      "stateMutability": "nonpayable",
      "type": "function"
    },
    {
      "inputs": [
        {
          "internalType": "uint256",
          "name": "",
          "type": "uint256"
        }
      ],
      "name": "companyRequests",
      "outputs": [
        {
          "internalType": "uint256",
          "name": "index",
          "type": "uint256"
        },
        {
          "internalType": "string",
          "name": "description",
          "type": "string"
        },
        {
          "internalType": "enum ProjectChain.RequestStatus",
          "name": "status",
          "type": "uint8"
        },
        {
          "components": [
            {
              "internalType": "uint256",
              "name": "_index",
              "type": "uint256"
            },
            {
              "internalType": "string",
              "name": "_name",
              "type": "string"
            },
            {
              "internalType": "string",
              "name": "_description",
              "type": "string"
            },
            {
              "internalType": "enum ProjectChain.ProjectStatus",
              "name": "_status",
              "type": "uint8"
            },
            {
              "internalType": "string",
              "name": "_ipfsFileCID",
              "type": "string"
            },
            {
              "internalType": "address",
              "name": "_address",
              "type": "address"
            }
          ],
          "internalType": "struct ProjectChain.Project",
          "name": "project",
          "type": "tuple"
        },
        {
          "internalType": "address",
          "name": "subjectAddress",
          "type": "address"
        }
      ],
      "stateMutability": "view",
      "type": "function"
    },
    {
      "inputs": [],
      "name": "getAllUsers",
      "outputs": [
        {
          "components": [
            {
              "internalType": "string",
              "name": "username",
              "type": "string"
            },
            {
              "internalType": "string",
              "name": "email",
              "type": "string"
            },
            {
              "internalType": "string",
              "name": "firstname",
              "type": "string"
            },
            {
              "internalType": "string",
              "name": "lastname",
              "type": "string"
            },
            {
              "internalType": "enum UserChain.Roles",
              "name": "role",
              "type": "uint8"
            },
            {
              "internalType": "address",
              "name": "walletAddress",
              "type": "address"
            }
          ],
          "internalType": "struct UserChain.S_UserData[]",
          "name": "",
          "type": "tuple[]"
        }
      ],
      "stateMutability": "view",
      "type": "function"
    },
    {
      "inputs": [
        {
          "internalType": "address",
          "name": "_address",
          "type": "address"
        }
      ],
      "name": "getUserInfo",
      "outputs": [
        {
          "components": [
            {
              "internalType": "string",
              "name": "username",
              "type": "string"
            },
            {
              "internalType": "string",
              "name": "email",
              "type": "string"
            },
            {
              "internalType": "string",
              "name": "firstname",
              "type": "string"
            },
            {
              "internalType": "string",
              "name": "lastname",
              "type": "string"
            },
            {
              "internalType": "enum UserChain.Roles",
              "name": "role",
              "type": "uint8"
            },
            {
              "internalType": "address",
              "name": "walletAddress",
              "type": "address"
            }
          ],
          "internalType": "struct UserChain.S_UserData",
          "name": "",
          "type": "tuple"
        }
      ],
      "stateMutability": "view",
      "type": "function"
    },
    {
      "inputs": [],
      "name": "owner",
      "outputs": [
        {
          "internalType": "address",
          "name": "",
          "type": "address"
        }
      ],
      "stateMutability": "view",
      "type": "function"
    },
    {
      "inputs": [
        {
          "internalType": "address",
          "name": "",
          "type": "address"
        }
      ],
      "name": "projects",
      "outputs": [
        {
          "internalType": "uint256",
          "name": "_index",
          "type": "uint256"
        },
        {
          "internalType": "string",
          "name": "_name",
          "type": "string"
        },
        {
          "internalType": "string",
          "name": "_description",
          "type": "string"
        },
        {
          "internalType": "enum ProjectChain.ProjectStatus",
          "name": "_status",
          "type": "uint8"
        },
        {
          "internalType": "string",
          "name": "_ipfsFileCID",
          "type": "string"
        },
        {
          "internalType": "address",
          "name": "_address",
          "type": "address"
        }
      ],
      "stateMutability": "view",
      "type": "function"
    },
    {
      "inputs": [],
      "name": "projectsCounter",
      "outputs": [
        {
          "internalType": "uint256",
          "name": "",
          "type": "uint256"
        }
      ],
      "stateMutability": "view",
      "type": "function"
    },
    {
      "inputs": [
        {
          "internalType": "string",
          "name": "_username",
          "type": "string"
        },
        {
          "internalType": "string",
          "name": "_email",
          "type": "string"
        },
        {
          "internalType": "string",
          "name": "_firstname",
          "type": "string"
        },
        {
          "internalType": "string",
          "name": "_lastname",
          "type": "string"
        },
        {
          "internalType": "uint256",
          "name": "_role",
          "type": "uint256"
        },
        {
          "internalType": "address",
          "name": "_walletAddress",
          "type": "address"
        }
      ],
      "name": "registerUser",
      "outputs": [],
      "stateMutability": "nonpayable",
      "type": "function"
    },
    {
      "inputs": [
        {
          "internalType": "uint256",
          "name": "",
          "type": "uint256"
        }
      ],
      "name": "supervisorRequests",
      "outputs": [
        {
          "internalType": "uint256",
          "name": "index",
          "type": "uint256"
        },
        {
          "internalType": "string",
          "name": "description",
          "type": "string"
        },
        {
          "internalType": "enum ProjectChain.RequestStatus",
          "name": "status",
          "type": "uint8"
        },
        {
          "components": [
            {
              "internalType": "uint256",
              "name": "_index",
              "type": "uint256"
            },
            {
              "internalType": "string",
              "name": "_name",
              "type": "string"
            },
            {
              "internalType": "string",
              "name": "_description",
              "type": "string"
            },
            {
              "internalType": "enum ProjectChain.ProjectStatus",
              "name": "_status",
              "type": "uint8"
            },
            {
              "internalType": "string",
              "name": "_ipfsFileCID",
              "type": "string"
            },
            {
              "internalType": "address",
              "name": "_address",
              "type": "address"
            }
          ],
          "internalType": "struct ProjectChain.Project",
          "name": "project",
          "type": "tuple"
        },
        {
          "internalType": "address",
          "name": "subjectAddress",
          "type": "address"
        }
      ],
      "stateMutability": "view",
      "type": "function"
    },
    {
      "inputs": [
        {
          "internalType": "address",
          "name": "",
          "type": "address"
        }
      ],
      "name": "userInfo",
      "outputs": [
        {
          "internalType": "string",
          "name": "username",
          "type": "string"
        },
        {
          "internalType": "string",
          "name": "email",
          "type": "string"
        },
        {
          "internalType": "string",
          "name": "firstname",
          "type": "string"
        },
        {
          "internalType": "string",
          "name": "lastname",
          "type": "string"
        },
        {
          "internalType": "enum UserChain.Roles",
          "name": "role",
          "type": "uint8"
        },
        {
          "internalType": "address",
          "name": "walletAddress",
          "type": "address"
        }
      ],
      "stateMutability": "view",
      "type": "function"
    },
    {
      "inputs": [],
      "name": "usersCount",
      "outputs": [
        {
          "internalType": "uint256",
          "name": "",
          "type": "uint256"
        }
      ],
      "stateMutability": "view",
      "type": "function"
    },
    {
      "inputs": [
        {
          "internalType": "string",
          "name": "_name",
          "type": "string"
        },
        {
          "internalType": "string",
          "name": "_description",
          "type": "string"
        },
        {
          "internalType": "uint256",
          "name": "_status",
          "type": "uint256"
        },
        {
          "internalType": "string",
          "name": "_ipfsFileCID",
          "type": "string"
        }
      ],
      "name": "createProject",
      "outputs": [],
      "stateMutability": "nonpayable",
      "type": "function"
    },
    {
      "inputs": [
        {
          "internalType": "address",
          "name": "_address",
          "type": "address"
        }
      ],
      "name": "getProjectInfo",
      "outputs": [
        {
          "components": [
            {
              "internalType": "uint256",
              "name": "_index",
              "type": "uint256"
            },
            {
              "internalType": "string",
              "name": "_name",
              "type": "string"
            },
            {
              "internalType": "string",
              "name": "_description",
              "type": "string"
            },
            {
              "internalType": "enum ProjectChain.ProjectStatus",
              "name": "_status",
              "type": "uint8"
            },
            {
              "internalType": "string",
              "name": "_ipfsFileCID",
              "type": "string"
            },
            {
              "internalType": "address",
              "name": "_address",
              "type": "address"
            }
          ],
          "internalType": "struct ProjectChain.Project",
          "name": "",
          "type": "tuple"
        }
      ],
      "stateMutability": "view",
      "type": "function"
    },
    {
      "inputs": [],
      "name": "getAllProjects",
      "outputs": [
        {
          "components": [
            {
              "internalType": "uint256",
              "name": "_index",
              "type": "uint256"
            },
            {
              "internalType": "string",
              "name": "_name",
              "type": "string"
            },
            {
              "internalType": "string",
              "name": "_description",
              "type": "string"
            },
            {
              "internalType": "enum ProjectChain.ProjectStatus",
              "name": "_status",
              "type": "uint8"
            },
            {
              "internalType": "string",
              "name": "_ipfsFileCID",
              "type": "string"
            },
            {
              "internalType": "address",
              "name": "_address",
              "type": "address"
            }
          ],
          "internalType": "struct ProjectChain.Project[]",
          "name": "",
          "type": "tuple[]"
        }
      ],
      "stateMutability": "view",
      "type": "function"
    },
    {
      "inputs": [
        {
          "internalType": "string",
          "name": "_text",
          "type": "string"
        },
        {
          "internalType": "address",
          "name": "_addr",
          "type": "address"
        }
      ],
      "name": "createUniqueIdentifier",
      "outputs": [
        {
          "internalType": "bytes32",
          "name": "",
          "type": "bytes32"
        }
      ],
      "stateMutability": "pure",
      "type": "function"
    },
    {
      "inputs": [
        {
          "internalType": "string",
          "name": "_text",
          "type": "string"
        },
        {
          "internalType": "address",
          "name": "_addr",
          "type": "address"
        }
      ],
      "name": "createUniqueHexAddress",
      "outputs": [
        {
          "internalType": "address",
          "name": "",
          "type": "address"
        }
      ],
      "stateMutability": "view",
      "type": "function"
    },
    {
      "inputs": [
        {
          "internalType": "string",
          "name": "_description",
          "type": "string"
        },
        {
          "components": [
            {
              "internalType": "uint256",
              "name": "_index",
              "type": "uint256"
            },
            {
              "internalType": "string",
              "name": "_name",
              "type": "string"
            },
            {
              "internalType": "string",
              "name": "_description",
              "type": "string"
            },
            {
              "internalType": "enum ProjectChain.ProjectStatus",
              "name": "_status",
              "type": "uint8"
            },
            {
              "internalType": "string",
              "name": "_ipfsFileCID",
              "type": "string"
            },
            {
              "internalType": "address",
              "name": "_address",
              "type": "address"
            }
          ],
          "internalType": "struct ProjectChain.Project",
          "name": "_project",
          "type": "tuple"
        },
        {
          "internalType": "address",
          "name": "_subjectAddress",
          "type": "address"
        }
      ],
      "name": "requestProjectApprovalFromSupervisor",
      "outputs": [],
      "stateMutability": "nonpayable",
      "type": "function"
    },
    {
      "inputs": [
        {
          "internalType": "string",
          "name": "_description",
          "type": "string"
        },
        {
          "components": [
            {
              "internalType": "uint256",
              "name": "_index",
              "type": "uint256"
            },
            {
              "internalType": "string",
              "name": "_name",
              "type": "string"
            },
            {
              "internalType": "string",
              "name": "_description",
              "type": "string"
            },
            {
              "internalType": "enum ProjectChain.ProjectStatus",
              "name": "_status",
              "type": "uint8"
            },
            {
              "internalType": "string",
              "name": "_ipfsFileCID",
              "type": "string"
            },
            {
              "internalType": "address",
              "name": "_address",
              "type": "address"
            }
          ],
          "internalType": "struct ProjectChain.Project",
          "name": "_project",
          "type": "tuple"
        },
        {
          "internalType": "address",
          "name": "_subjectAddress",
          "type": "address"
        }
      ],
      "name": "requestProjectCompleteFromSupervisor",
      "outputs": [],
      "stateMutability": "nonpayable",
      "type": "function"
    },
    {
      "inputs": [
        {
          "internalType": "string",
          "name": "_description",
          "type": "string"
        },
        {
          "components": [
            {
              "internalType": "uint256",
              "name": "_index",
              "type": "uint256"
            },
            {
              "internalType": "string",
              "name": "_name",
              "type": "string"
            },
            {
              "internalType": "string",
              "name": "_description",
              "type": "string"
            },
            {
              "internalType": "enum ProjectChain.ProjectStatus",
              "name": "_status",
              "type": "uint8"
            },
            {
              "internalType": "string",
              "name": "_ipfsFileCID",
              "type": "string"
            },
            {
              "internalType": "address",
              "name": "_address",
              "type": "address"
            }
          ],
          "internalType": "struct ProjectChain.Project",
          "name": "_project",
          "type": "tuple"
        },
        {
          "internalType": "address",
          "name": "_subjectAddress",
          "type": "address"
        }
      ],
      "name": "requestStartProjectToCompanyBuilder",
      "outputs": [],
      "stateMutability": "nonpayable",
      "type": "function"
    }
  ],
  "bytecode": "0x60806040526000600255600060065534801561001a57600080fd5b5033600160006101000a81548173ffffffffffffffffffffffffffffffffffffffff021916908373ffffffffffffffffffffffffffffffffffffffff16021790555033600460006101000a81548173ffffffffffffffffffffffffffffffffffffffff021916908373ffffffffffffffffffffffffffffffffffffffff1602179055506147ff806100ac6000396000f3fe608060405234801561001057600080fd5b50600436106101375760003560e01c806383f87c0d116100b8578063911c29a61161007c578063911c29a614610399578063a2bdedf4146103b5578063d3e7f4e8146103ea578063d40d4a8014610406578063e2842d791461043a578063fe360ea51461045857610137565b806383f87c0d146102da578063840e78fd146102f65780638c86a1d71461032b5780638da5cb5b1461035f578063910097861461037d57610137565b806353b3194c116100ff57806353b3194c146102095780636132844f1461023e5780636386c1c71461026e5780636ba13a821461029e57806380d03829146102bc57610137565b8063048c3a2e1461013c57806313b4078f146101585780631959a0021461018857806346575714146101bd57806347ee45b9146101d9575b600080fd5b61015660048036038101906101519190613716565b610476565b005b610172600480360381019061016d91906137a1565b6106c7565b60405161017f919061380c565b60405180910390f35b6101a2600480360381019061019d9190613827565b6106ff565b6040516101b496959493929190613953565b60405180910390f35b6101d760048036038101906101d291906139d0565b610988565b005b6101f360048036038101906101ee9190613827565b610e1a565b6040516102009190613bd2565b60405180910390f35b610223600480360381019061021e9190613bf4565b6110c4565b60405161023596959493929190613c3f565b60405180910390f35b610258600480360381019061025391906137a1565b6112d5565b6040516102659190613cce565b60405180910390f35b61028860048036038101906102839190613827565b611308565b6040516102959190613d96565b60405180910390f35b6102a6611639565b6040516102b39190613db8565b60405180910390f35b6102c461163f565b6040516102d19190613f2c565b60405180910390f35b6102f460048036038101906102ef9190613716565b6118ef565b005b610310600480360381019061030b9190613827565b611b40565b60405161032296959493929190613c3f565b60405180910390f35b61034560048036038101906103409190613bf4565b611d41565b604051610356959493929190613f96565b60405180910390f35b610367612087565b604051610374919061380c565b60405180910390f35b61039760048036038101906103929190613ff7565b6120ad565b005b6103b360048036038101906103ae9190614037565b612229565b005b6103cf60048036038101906103ca9190613bf4565b612738565b6040516103e196959493929190613953565b60405180910390f35b61040460048036038101906103ff9190613716565b6129d1565b005b610420600480360381019061041b9190613bf4565b612c22565b604051610431959493929190613f96565b60405180910390f35b610442612f68565b60405161044f9190614294565b60405180910390f35b6104606132a0565b60405161046d9190613db8565b60405180910390f35b6004600581111561048a576104896138dc565b5b826060015160058111156104a1576104a06138dc565b5b146104e1576040517f08c379a00000000000000000000000000000000000000000000000000000000081526004016104d89061434e565b60405180910390fd5b600060096000600b5481526020019081526020016000209050838160010190805190602001906105129291906132a6565b5060008160020160006101000a81548160ff0219169083600181111561053b5761053a6138dc565b5b0217905550828160030160008201518160000155602082015181600101908051906020019061056b9291906132a6565b5060408201518160020190805190602001906105889291906132a6565b5060608201518160030160006101000a81548160ff021916908360058111156105b4576105b36138dc565b5b021790555060808201518160040190805190602001906105d59291906132a6565b5060a08201518160050160006101000a81548173ffffffffffffffffffffffffffffffffffffffff021916908373ffffffffffffffffffffffffffffffffffffffff160217905550905050818160090160006101000a81548173ffffffffffffffffffffffffffffffffffffffff021916908373ffffffffffffffffffffffffffffffffffffffff1602179055507f48d2c722e86622dfab313859655df596660f6f83e7b5ee428d6c019e161fa56a600b546000858660600151866040516106a195949392919061436e565b60405180910390a1600b60008154809291906106bc906143f7565b919050555050505050565b60008282426040516020016106de939291906144e5565b6040516020818303038152906040528051906020012060001c905092915050565b60006020528060005260406000206000915090508060000180546107229061454d565b80601f016020809104026020016040519081016040528092919081815260200182805461074e9061454d565b801561079b5780601f106107705761010080835404028352916020019161079b565b820191906000526020600020905b81548152906001019060200180831161077e57829003601f168201915b5050505050908060010180546107b09061454d565b80601f01602080910402602001604051908101604052809291908181526020018280546107dc9061454d565b80156108295780601f106107fe57610100808354040283529160200191610829565b820191906000526020600020905b81548152906001019060200180831161080c57829003601f168201915b50505050509080600201805461083e9061454d565b80601f016020809104026020016040519081016040528092919081815260200182805461086a9061454d565b80156108b75780601f1061088c576101008083540402835291602001916108b7565b820191906000526020600020905b81548152906001019060200180831161089a57829003601f168201915b5050505050908060030180546108cc9061454d565b80601f01602080910402602001604051908101604052809291908181526020018280546108f89061454d565b80156109455780601f1061091a57610100808354040283529160200191610945565b820191906000526020600020905b81548152906001019060200180831161092857829003601f168201915b5050505050908060040160009054906101000a900460ff16908060040160019054906101000a900473ffffffffffffffffffffffffffffffffffffffff16905086565b60006109eb6040518060400160405280601a81526020017f6373643f534073616c61733b646c413233345f442e3b735f6173000000000000815250600460009054906101000a900473ffffffffffffffffffffffffffffffffffffffff166106c7565b9050600654600560008373ffffffffffffffffffffffffffffffffffffffff1673ffffffffffffffffffffffffffffffffffffffff1681526020019081526020016000206000018190555084600560008373ffffffffffffffffffffffffffffffffffffffff1673ffffffffffffffffffffffffffffffffffffffff1681526020019081526020016000206001019080519060200190610a8c9291906132a6565b5083600560008373ffffffffffffffffffffffffffffffffffffffff1673ffffffffffffffffffffffffffffffffffffffff1681526020019081526020016000206002019080519060200190610ae39291906132a6565b50826005811115610af757610af66138dc565b5b600560008373ffffffffffffffffffffffffffffffffffffffff1673ffffffffffffffffffffffffffffffffffffffff16815260200190815260200160002060030160006101000a81548160ff02191690836005811115610b5b57610b5a6138dc565b5b021790555081600560008373ffffffffffffffffffffffffffffffffffffffff1673ffffffffffffffffffffffffffffffffffffffff1681526020019081526020016000206004019080519060200190610bb69291906132a6565b5080600560008373ffffffffffffffffffffffffffffffffffffffff1673ffffffffffffffffffffffffffffffffffffffff16815260200190815260200160002060050160006101000a81548173ffffffffffffffffffffffffffffffffffffffff021916908373ffffffffffffffffffffffffffffffffffffffff1602179055507f26cf3e2385bf59fc4a84bd544581b8beea8ce32fe45f441759ce9212b52949286006548686866005811115610c7157610c706138dc565b5b8686604051610c8596959493929190613c3f565b60405180910390a160076040518060c001604052806006548152602001878152602001868152602001856005811115610cc157610cc06138dc565b5b6005811115610cd357610cd26138dc565b5b81526020018481526020018373ffffffffffffffffffffffffffffffffffffffff168152509080600181540180825580915050600190039060005260206000209060060201600090919091909150600082015181600001556020820151816001019080519060200190610d479291906132a6565b506040820151816002019080519060200190610d649291906132a6565b5060608201518160030160006101000a81548160ff02191690836005811115610d9057610d8f6138dc565b5b02179055506080820151816004019080519060200190610db19291906132a6565b5060a08201518160050160006101000a81548173ffffffffffffffffffffffffffffffffffffffff021916908373ffffffffffffffffffffffffffffffffffffffff160217905550505060066000815480929190610e0e906143f7565b91905055505050505050565b610e2261332c565b600560008373ffffffffffffffffffffffffffffffffffffffff1673ffffffffffffffffffffffffffffffffffffffff1681526020019081526020016000206040518060c001604052908160008201548152602001600182018054610e869061454d565b80601f0160208091040260200160405190810160405280929190818152602001828054610eb29061454d565b8015610eff5780601f10610ed457610100808354040283529160200191610eff565b820191906000526020600020905b815481529060010190602001808311610ee257829003601f168201915b50505050508152602001600282018054610f189061454d565b80601f0160208091040260200160405190810160405280929190818152602001828054610f449061454d565b8015610f915780601f10610f6657610100808354040283529160200191610f91565b820191906000526020600020905b815481529060010190602001808311610f7457829003601f168201915b505050505081526020016003820160009054906101000a900460ff166005811115610fbf57610fbe6138dc565b5b6005811115610fd157610fd06138dc565b5b8152602001600482018054610fe59061454d565b80601f01602080910402602001604051908101604052809291908181526020018280546110119061454d565b801561105e5780601f106110335761010080835404028352916020019161105e565b820191906000526020600020905b81548152906001019060200180831161104157829003601f168201915b505050505081526020016005820160009054906101000a900473ffffffffffffffffffffffffffffffffffffffff1673ffffffffffffffffffffffffffffffffffffffff1673ffffffffffffffffffffffffffffffffffffffff16815250509050919050565b600781815481106110d457600080fd5b90600052602060002090600602016000915090508060000154908060010180546110fd9061454d565b80601f01602080910402602001604051908101604052809291908181526020018280546111299061454d565b80156111765780601f1061114b57610100808354040283529160200191611176565b820191906000526020600020905b81548152906001019060200180831161115957829003601f168201915b50505050509080600201805461118b9061454d565b80601f01602080910402602001604051908101604052809291908181526020018280546111b79061454d565b80156112045780601f106111d957610100808354040283529160200191611204565b820191906000526020600020905b8154815290600101906020018083116111e757829003601f168201915b5050505050908060030160009054906101000a900460ff169080600401805461122c9061454d565b80601f01602080910402602001604051908101604052809291908181526020018280546112589061454d565b80156112a55780601f1061127a576101008083540402835291602001916112a5565b820191906000526020600020905b81548152906001019060200180831161128857829003601f168201915b5050505050908060050160009054906101000a900473ffffffffffffffffffffffffffffffffffffffff16905086565b600082826040516020016112ea92919061457f565b60405160208183030381529060405280519060200120905092915050565b61131061338a565b6000808373ffffffffffffffffffffffffffffffffffffffff1673ffffffffffffffffffffffffffffffffffffffff1681526020019081526020016000206040518060c00160405290816000820180546113699061454d565b80601f01602080910402602001604051908101604052809291908181526020018280546113959061454d565b80156113e25780601f106113b7576101008083540402835291602001916113e2565b820191906000526020600020905b8154815290600101906020018083116113c557829003601f168201915b505050505081526020016001820180546113fb9061454d565b80601f01602080910402602001604051908101604052809291908181526020018280546114279061454d565b80156114745780601f1061144957610100808354040283529160200191611474565b820191906000526020600020905b81548152906001019060200180831161145757829003601f168201915b5050505050815260200160028201805461148d9061454d565b80601f01602080910402602001604051908101604052809291908181526020018280546114b99061454d565b80156115065780601f106114db57610100808354040283529160200191611506565b820191906000526020600020905b8154815290600101906020018083116114e957829003601f168201915b5050505050815260200160038201805461151f9061454d565b80601f016020809104026020016040519081016040528092919081815260200182805461154b9061454d565b80156115985780601f1061156d57610100808354040283529160200191611598565b820191906000526020600020905b81548152906001019060200180831161157b57829003601f168201915b505050505081526020016004820160009054906101000a900460ff1660038111156115c6576115c56138dc565b5b60038111156115d8576115d76138dc565b5b81526020016004820160019054906101000a900473ffffffffffffffffffffffffffffffffffffffff1673ffffffffffffffffffffffffffffffffffffffff1673ffffffffffffffffffffffffffffffffffffffff16815250509050919050565b60025481565b60606007805480602002602001604051908101604052809291908181526020016000905b828210156118e657838290600052602060002090600602016040518060c0016040529081600082015481526020016001820180546116a09061454d565b80601f01602080910402602001604051908101604052809291908181526020018280546116cc9061454d565b80156117195780601f106116ee57610100808354040283529160200191611719565b820191906000526020600020905b8154815290600101906020018083116116fc57829003601f168201915b505050505081526020016002820180546117329061454d565b80601f016020809104026020016040519081016040528092919081815260200182805461175e9061454d565b80156117ab5780601f10611780576101008083540402835291602001916117ab565b820191906000526020600020905b81548152906001019060200180831161178e57829003601f168201915b505050505081526020016003820160009054906101000a900460ff1660058111156117d9576117d86138dc565b5b60058111156117eb576117ea6138dc565b5b81526020016004820180546117ff9061454d565b80601f016020809104026020016040519081016040528092919081815260200182805461182b9061454d565b80156118785780601f1061184d57610100808354040283529160200191611878565b820191906000526020600020905b81548152906001019060200180831161185b57829003601f168201915b505050505081526020016005820160009054906101000a900473ffffffffffffffffffffffffffffffffffffffff1673ffffffffffffffffffffffffffffffffffffffff1673ffffffffffffffffffffffffffffffffffffffff168152505081526020019060010190611663565b50505050905090565b60006005811115611903576119026138dc565b5b8260600151600581111561191a576119196138dc565b5b1461195a576040517f08c379a000000000000000000000000000000000000000000000000000000000815260040161195190614619565b60405180910390fd5b600060096000600b54815260200190815260200160002090508381600101908051906020019061198b9291906132a6565b5060008160020160006101000a81548160ff021916908360018111156119b4576119b36138dc565b5b021790555082816003016000820151816000015560208201518160010190805190602001906119e49291906132a6565b506040820151816002019080519060200190611a019291906132a6565b5060608201518160030160006101000a81548160ff02191690836005811115611a2d57611a2c6138dc565b5b02179055506080820151816004019080519060200190611a4e9291906132a6565b5060a08201518160050160006101000a81548173ffffffffffffffffffffffffffffffffffffffff021916908373ffffffffffffffffffffffffffffffffffffffff160217905550905050818160090160006101000a81548173ffffffffffffffffffffffffffffffffffffffff021916908373ffffffffffffffffffffffffffffffffffffffff1602179055507f48d2c722e86622dfab313859655df596660f6f83e7b5ee428d6c019e161fa56a600b54600085866060015186604051611b1a95949392919061436e565b60405180910390a1600b6000815480929190611b35906143f7565b919050555050505050565b6005602052806000526040600020600091509050806000015490806001018054611b699061454d565b80601f0160208091040260200160405190810160405280929190818152602001828054611b959061454d565b8015611be25780601f10611bb757610100808354040283529160200191611be2565b820191906000526020600020905b815481529060010190602001808311611bc557829003601f168201915b505050505090806002018054611bf79061454d565b80601f0160208091040260200160405190810160405280929190818152602001828054611c239061454d565b8015611c705780601f10611c4557610100808354040283529160200191611c70565b820191906000526020600020905b815481529060010190602001808311611c5357829003601f168201915b5050505050908060030160009054906101000a900460ff1690806004018054611c989061454d565b80601f0160208091040260200160405190810160405280929190818152602001828054611cc49061454d565b8015611d115780601f10611ce657610100808354040283529160200191611d11565b820191906000526020600020905b815481529060010190602001808311611cf457829003601f168201915b5050505050908060050160009054906101000a900473ffffffffffffffffffffffffffffffffffffffff16905086565b6009602052806000526040600020600091509050806000015490806001018054611d6a9061454d565b80601f0160208091040260200160405190810160405280929190818152602001828054611d969061454d565b8015611de35780601f10611db857610100808354040283529160200191611de3565b820191906000526020600020905b815481529060010190602001808311611dc657829003601f168201915b5050505050908060020160009054906101000a900460ff1690806003016040518060c001604052908160008201548152602001600182018054611e259061454d565b80601f0160208091040260200160405190810160405280929190818152602001828054611e519061454d565b8015611e9e5780601f10611e7357610100808354040283529160200191611e9e565b820191906000526020600020905b815481529060010190602001808311611e8157829003601f168201915b50505050508152602001600282018054611eb79061454d565b80601f0160208091040260200160405190810160405280929190818152602001828054611ee39061454d565b8015611f305780601f10611f0557610100808354040283529160200191611f30565b820191906000526020600020905b815481529060010190602001808311611f1357829003601f168201915b505050505081526020016003820160009054906101000a900460ff166005811115611f5e57611f5d6138dc565b5b6005811115611f7057611f6f6138dc565b5b8152602001600482018054611f849061454d565b80601f0160208091040260200160405190810160405280929190818152602001828054611fb09061454d565b8015611ffd5780601f10611fd257610100808354040283529160200191611ffd565b820191906000526020600020905b815481529060010190602001808311611fe057829003601f168201915b505050505081526020016005820160009054906101000a900473ffffffffffffffffffffffffffffffffffffffff1673ffffffffffffffffffffffffffffffffffffffff1673ffffffffffffffffffffffffffffffffffffffff1681525050908060090160009054906101000a900473ffffffffffffffffffffffffffffffffffffffff16905085565b600160009054906101000a900473ffffffffffffffffffffffffffffffffffffffff1681565b8160038111156120c0576120bf6138dc565b5b6000808373ffffffffffffffffffffffffffffffffffffffff1673ffffffffffffffffffffffffffffffffffffffff16815260200190815260200160002060040160006101000a81548160ff02191690836003811115612123576121226138dc565b5b021790555060005b600380549050811015612224578173ffffffffffffffffffffffffffffffffffffffff166003828154811061216357612162614639565b5b906000526020600020906005020160040160019054906101000a900473ffffffffffffffffffffffffffffffffffffffff1673ffffffffffffffffffffffffffffffffffffffff161415612211578260038111156121c4576121c36138dc565b5b600382815481106121d8576121d7614639565b5b906000526020600020906005020160040160006101000a81548160ff0219169083600381111561220b5761220a6138dc565b5b02179055505b808061221c906143f7565b91505061212b565b505050565b3373ffffffffffffffffffffffffffffffffffffffff16600160009054906101000a900473ffffffffffffffffffffffffffffffffffffffff1673ffffffffffffffffffffffffffffffffffffffff16146122b9576040517f08c379a00000000000000000000000000000000000000000000000000000000081526004016122b0906146b4565b60405180910390fd5b856000808373ffffffffffffffffffffffffffffffffffffffff1673ffffffffffffffffffffffffffffffffffffffff168152602001908152602001600020600001908051906020019061230e9291906132a6565b50846000808373ffffffffffffffffffffffffffffffffffffffff1673ffffffffffffffffffffffffffffffffffffffff16815260200190815260200160002060010190805190602001906123649291906132a6565b50836000808373ffffffffffffffffffffffffffffffffffffffff1673ffffffffffffffffffffffffffffffffffffffff16815260200190815260200160002060020190805190602001906123ba9291906132a6565b50826000808373ffffffffffffffffffffffffffffffffffffffff1673ffffffffffffffffffffffffffffffffffffffff16815260200190815260200160002060030190805190602001906124109291906132a6565b50816003811115612424576124236138dc565b5b6000808373ffffffffffffffffffffffffffffffffffffffff1673ffffffffffffffffffffffffffffffffffffffff16815260200190815260200160002060040160006101000a81548160ff02191690836003811115612487576124866138dc565b5b0217905550806000808373ffffffffffffffffffffffffffffffffffffffff1673ffffffffffffffffffffffffffffffffffffffff16815260200190815260200160002060040160016101000a81548173ffffffffffffffffffffffffffffffffffffffff021916908373ffffffffffffffffffffffffffffffffffffffff16021790555081600381111561251f5761251e6138dc565b5b6003811115612531576125306138dc565b5b8660405161253f91906146d4565b60405180910390208273ffffffffffffffffffffffffffffffffffffffff167fddb5d1667467713eb503e7e133811c91a231cb6b63f11930889c6004f36c35ee888888604051612591939291906146eb565b60405180910390a460036040518060c001604052808881526020018781526020018681526020018581526020018460038111156125d1576125d06138dc565b5b60038111156125e3576125e26138dc565b5b81526020018373ffffffffffffffffffffffffffffffffffffffff16815250908060018154018082558091505060019003906000526020600020906005020160009091909190915060008201518160000190805190602001906126479291906132a6565b5060208201518160010190805190602001906126649291906132a6565b5060408201518160020190805190602001906126819291906132a6565b50606082015181600301908051906020019061269e9291906132a6565b5060808201518160040160006101000a81548160ff021916908360038111156126ca576126c96138dc565b5b021790555060a08201518160040160016101000a81548173ffffffffffffffffffffffffffffffffffffffff021916908373ffffffffffffffffffffffffffffffffffffffff16021790555050506002600081548092919061272b906143f7565b9190505550505050505050565b6003818154811061274857600080fd5b906000526020600020906005020160009150905080600001805461276b9061454d565b80601f01602080910402602001604051908101604052809291908181526020018280546127979061454d565b80156127e45780601f106127b9576101008083540402835291602001916127e4565b820191906000526020600020905b8154815290600101906020018083116127c757829003601f168201915b5050505050908060010180546127f99061454d565b80601f01602080910402602001604051908101604052809291908181526020018280546128259061454d565b80156128725780601f1061284757610100808354040283529160200191612872565b820191906000526020600020905b81548152906001019060200180831161285557829003601f168201915b5050505050908060020180546128879061454d565b80601f01602080910402602001604051908101604052809291908181526020018280546128b39061454d565b80156129005780601f106128d557610100808354040283529160200191612900565b820191906000526020600020905b8154815290600101906020018083116128e357829003601f168201915b5050505050908060030180546129159061454d565b80601f01602080910402602001604051908101604052809291908181526020018280546129419061454d565b801561298e5780601f106129635761010080835404028352916020019161298e565b820191906000526020600020905b81548152906001019060200180831161297157829003601f168201915b5050505050908060040160009054906101000a900460ff16908060040160019054906101000a900473ffffffffffffffffffffffffffffffffffffffff16905086565b600160058111156129e5576129e46138dc565b5b826060015160058111156129fc576129fb6138dc565b5b14612a3c576040517f08c379a0000000000000000000000000000000000000000000000000000000008152600401612a33906147a9565b60405180910390fd5b600060086000600a548152602001908152602001600020905083816001019080519060200190612a6d9291906132a6565b5060008160020160006101000a81548160ff02191690836001811115612a9657612a956138dc565b5b02179055508281600301600082015181600001556020820151816001019080519060200190612ac69291906132a6565b506040820151816002019080519060200190612ae39291906132a6565b5060608201518160030160006101000a81548160ff02191690836005811115612b0f57612b0e6138dc565b5b02179055506080820151816004019080519060200190612b309291906132a6565b5060a08201518160050160006101000a81548173ffffffffffffffffffffffffffffffffffffffff021916908373ffffffffffffffffffffffffffffffffffffffff160217905550905050818160090160006101000a81548173ffffffffffffffffffffffffffffffffffffffff021916908373ffffffffffffffffffffffffffffffffffffffff1602179055507f64b02907c8ce4134f7a1449275fbd940c2864b337a1435321c41815c9bba9823600a54600085866060015186604051612bfc95949392919061436e565b60405180910390a1600a6000815480929190612c17906143f7565b919050555050505050565b6008602052806000526040600020600091509050806000015490806001018054612c4b9061454d565b80601f0160208091040260200160405190810160405280929190818152602001828054612c779061454d565b8015612cc45780601f10612c9957610100808354040283529160200191612cc4565b820191906000526020600020905b815481529060010190602001808311612ca757829003601f168201915b5050505050908060020160009054906101000a900460ff1690806003016040518060c001604052908160008201548152602001600182018054612d069061454d565b80601f0160208091040260200160405190810160405280929190818152602001828054612d329061454d565b8015612d7f5780601f10612d5457610100808354040283529160200191612d7f565b820191906000526020600020905b815481529060010190602001808311612d6257829003601f168201915b50505050508152602001600282018054612d989061454d565b80601f0160208091040260200160405190810160405280929190818152602001828054612dc49061454d565b8015612e115780601f10612de657610100808354040283529160200191612e11565b820191906000526020600020905b815481529060010190602001808311612df457829003601f168201915b505050505081526020016003820160009054906101000a900460ff166005811115612e3f57612e3e6138dc565b5b6005811115612e5157612e506138dc565b5b8152602001600482018054612e659061454d565b80601f0160208091040260200160405190810160405280929190818152602001828054612e919061454d565b8015612ede5780601f10612eb357610100808354040283529160200191612ede565b820191906000526020600020905b815481529060010190602001808311612ec157829003601f168201915b505050505081526020016005820160009054906101000a900473ffffffffffffffffffffffffffffffffffffffff1673ffffffffffffffffffffffffffffffffffffffff1673ffffffffffffffffffffffffffffffffffffffff1681525050908060090160009054906101000a900473ffffffffffffffffffffffffffffffffffffffff16905085565b60606003805480602002602001604051908101604052809291908181526020016000905b8282101561329757838290600052602060002090600502016040518060c0016040529081600082018054612fbf9061454d565b80601f0160208091040260200160405190810160405280929190818152602001828054612feb9061454d565b80156130385780601f1061300d57610100808354040283529160200191613038565b820191906000526020600020905b81548152906001019060200180831161301b57829003601f168201915b505050505081526020016001820180546130519061454d565b80601f016020809104026020016040519081016040528092919081815260200182805461307d9061454d565b80156130ca5780601f1061309f576101008083540402835291602001916130ca565b820191906000526020600020905b8154815290600101906020018083116130ad57829003601f168201915b505050505081526020016002820180546130e39061454d565b80601f016020809104026020016040519081016040528092919081815260200182805461310f9061454d565b801561315c5780601f106131315761010080835404028352916020019161315c565b820191906000526020600020905b81548152906001019060200180831161313f57829003601f168201915b505050505081526020016003820180546131759061454d565b80601f01602080910402602001604051908101604052809291908181526020018280546131a19061454d565b80156131ee5780601f106131c3576101008083540402835291602001916131ee565b820191906000526020600020905b8154815290600101906020018083116131d157829003601f168201915b505050505081526020016004820160009054906101000a900460ff16600381111561321c5761321b6138dc565b5b600381111561322e5761322d6138dc565b5b81526020016004820160019054906101000a900473ffffffffffffffffffffffffffffffffffffffff1673ffffffffffffffffffffffffffffffffffffffff1673ffffffffffffffffffffffffffffffffffffffff168152505081526020019060010190612f8c565b50505050905090565b60065481565b8280546132b29061454d565b90600052602060002090601f0160209004810192826132d4576000855561331b565b82601f106132ed57805160ff191683800117855561331b565b8280016001018555821561331b579182015b8281111561331a5782518255916020019190600101906132ff565b5b50905061332891906133e8565b5090565b6040518060c00160405280600081526020016060815260200160608152602001600060058111156133605761335f6138dc565b5b815260200160608152602001600073ffffffffffffffffffffffffffffffffffffffff1681525090565b6040518060c0016040528060608152602001606081526020016060815260200160608152602001600060038111156133c5576133c46138dc565b5b8152602001600073ffffffffffffffffffffffffffffffffffffffff1681525090565b5b808211156134015760008160009055506001016133e9565b5090565b6000604051905090565b600080fd5b600080fd5b600080fd5b600080fd5b6000601f19601f8301169050919050565b7f4e487b7100000000000000000000000000000000000000000000000000000000600052604160045260246000fd5b61346c82613423565b810181811067ffffffffffffffff8211171561348b5761348a613434565b5b80604052505050565b600061349e613405565b90506134aa8282613463565b919050565b600067ffffffffffffffff8211156134ca576134c9613434565b5b6134d382613423565b9050602081019050919050565b82818337600083830152505050565b60006135026134fd846134af565b613494565b90508281526020810184848401111561351e5761351d61341e565b5b6135298482856134e0565b509392505050565b600082601f83011261354657613545613419565b5b81356135568482602086016134ef565b91505092915050565b600080fd5b600080fd5b6000819050919050565b61357c81613569565b811461358757600080fd5b50565b60008135905061359981613573565b92915050565b600681106135ac57600080fd5b50565b6000813590506135be8161359f565b92915050565b600073ffffffffffffffffffffffffffffffffffffffff82169050919050565b60006135ef826135c4565b9050919050565b6135ff816135e4565b811461360a57600080fd5b50565b60008135905061361c816135f6565b92915050565b600060c082840312156136385761363761355f565b5b61364260c0613494565b905060006136528482850161358a565b600083015250602082013567ffffffffffffffff81111561367657613675613564565b5b61368284828501613531565b602083015250604082013567ffffffffffffffff8111156136a6576136a5613564565b5b6136b284828501613531565b60408301525060606136c6848285016135af565b606083015250608082013567ffffffffffffffff8111156136ea576136e9613564565b5b6136f684828501613531565b60808301525060a061370a8482850161360d565b60a08301525092915050565b60008060006060848603121561372f5761372e61340f565b5b600084013567ffffffffffffffff81111561374d5761374c613414565b5b61375986828701613531565b935050602084013567ffffffffffffffff81111561377a57613779613414565b5b61378686828701613622565b92505060406137978682870161360d565b9150509250925092565b600080604083850312156137b8576137b761340f565b5b600083013567ffffffffffffffff8111156137d6576137d5613414565b5b6137e285828601613531565b92505060206137f38582860161360d565b9150509250929050565b613806816135e4565b82525050565b600060208201905061382160008301846137fd565b92915050565b60006020828403121561383d5761383c61340f565b5b600061384b8482850161360d565b91505092915050565b600081519050919050565b600082825260208201905092915050565b60005b8381101561388e578082015181840152602081019050613873565b8381111561389d576000848401525b50505050565b60006138ae82613854565b6138b8818561385f565b93506138c8818560208601613870565b6138d181613423565b840191505092915050565b7f4e487b7100000000000000000000000000000000000000000000000000000000600052602160045260246000fd5b6004811061391c5761391b6138dc565b5b50565b600081905061392d8261390b565b919050565b600061393d8261391f565b9050919050565b61394d81613932565b82525050565b600060c082019050818103600083015261396d81896138a3565b9050818103602083015261398181886138a3565b9050818103604083015261399581876138a3565b905081810360608301526139a981866138a3565b90506139b86080830185613944565b6139c560a08301846137fd565b979650505050505050565b600080600080608085870312156139ea576139e961340f565b5b600085013567ffffffffffffffff811115613a0857613a07613414565b5b613a1487828801613531565b945050602085013567ffffffffffffffff811115613a3557613a34613414565b5b613a4187828801613531565b9350506040613a528782880161358a565b925050606085013567ffffffffffffffff811115613a7357613a72613414565b5b613a7f87828801613531565b91505092959194509250565b613a9481613569565b82525050565b600082825260208201905092915050565b6000613ab682613854565b613ac08185613a9a565b9350613ad0818560208601613870565b613ad981613423565b840191505092915050565b60068110613af557613af46138dc565b5b50565b6000819050613b0682613ae4565b919050565b6000613b1682613af8565b9050919050565b613b2681613b0b565b82525050565b613b35816135e4565b82525050565b600060c083016000830151613b536000860182613a8b565b5060208301518482036020860152613b6b8282613aab565b91505060408301518482036040860152613b858282613aab565b9150506060830151613b9a6060860182613b1d565b5060808301518482036080860152613bb28282613aab565b91505060a0830151613bc760a0860182613b2c565b508091505092915050565b60006020820190508181036000830152613bec8184613b3b565b905092915050565b600060208284031215613c0a57613c0961340f565b5b6000613c188482850161358a565b91505092915050565b613c2a81613569565b82525050565b613c3981613b0b565b82525050565b600060c082019050613c546000830189613c21565b8181036020830152613c6681886138a3565b90508181036040830152613c7a81876138a3565b9050613c896060830186613c30565b8181036080830152613c9b81856138a3565b9050613caa60a08301846137fd565b979650505050505050565b6000819050919050565b613cc881613cb5565b82525050565b6000602082019050613ce36000830184613cbf565b92915050565b613cf281613932565b82525050565b600060c0830160008301518482036000860152613d158282613aab565b91505060208301518482036020860152613d2f8282613aab565b91505060408301518482036040860152613d498282613aab565b91505060608301518482036060860152613d638282613aab565b9150506080830151613d786080860182613ce9565b5060a0830151613d8b60a0860182613b2c565b508091505092915050565b60006020820190508181036000830152613db08184613cf8565b905092915050565b6000602082019050613dcd6000830184613c21565b92915050565b600081519050919050565b600082825260208201905092915050565b6000819050602082019050919050565b600060c083016000830151613e176000860182613a8b565b5060208301518482036020860152613e2f8282613aab565b91505060408301518482036040860152613e498282613aab565b9150506060830151613e5e6060860182613b1d565b5060808301518482036080860152613e768282613aab565b91505060a0830151613e8b60a0860182613b2c565b508091505092915050565b6000613ea28383613dff565b905092915050565b6000602082019050919050565b6000613ec282613dd3565b613ecc8185613dde565b935083602082028501613ede85613def565b8060005b85811015613f1a5784840389528151613efb8582613e96565b9450613f0683613eaa565b925060208a01995050600181019050613ee2565b50829750879550505050505092915050565b60006020820190508181036000830152613f468184613eb7565b905092915050565b60028110613f5f57613f5e6138dc565b5b50565b6000819050613f7082613f4e565b919050565b6000613f8082613f62565b9050919050565b613f9081613f75565b82525050565b600060a082019050613fab6000830188613c21565b8181036020830152613fbd81876138a3565b9050613fcc6040830186613f87565b8181036060830152613fde8185613b3b565b9050613fed60808301846137fd565b9695505050505050565b6000806040838503121561400e5761400d61340f565b5b600061401c8582860161358a565b925050602061402d8582860161360d565b9150509250929050565b60008060008060008060c087890312156140545761405361340f565b5b600087013567ffffffffffffffff81111561407257614071613414565b5b61407e89828a01613531565b965050602087013567ffffffffffffffff81111561409f5761409e613414565b5b6140ab89828a01613531565b955050604087013567ffffffffffffffff8111156140cc576140cb613414565b5b6140d889828a01613531565b945050606087013567ffffffffffffffff8111156140f9576140f8613414565b5b61410589828a01613531565b935050608061411689828a0161358a565b92505060a061412789828a0161360d565b9150509295509295509295565b600081519050919050565b600082825260208201905092915050565b6000819050602082019050919050565b600060c083016000830151848203600086015261417d8282613aab565b915050602083015184820360208601526141978282613aab565b915050604083015184820360408601526141b18282613aab565b915050606083015184820360608601526141cb8282613aab565b91505060808301516141e06080860182613ce9565b5060a08301516141f360a0860182613b2c565b508091505092915050565b600061420a8383614160565b905092915050565b6000602082019050919050565b600061422a82614134565b614234818561413f565b93508360208202850161424685614150565b8060005b85811015614282578484038952815161426385826141fe565b945061426e83614212565b925060208a0199505060018101905061424a565b50829750879550505050505092915050565b600060208201905081810360008301526142ae818461421f565b905092915050565b7f5468652070726f6a656374206973206e6f7420696e2074686520274265666f7260008201527f6546696e616c697a6174696f6e436865636b27207374617475732c207468652060208201527f6f7065726174696f6e2063616e6e6f7420626520646f6e652e00000000000000604082015250565b600061433860598361385f565b9150614343826142b6565b606082019050919050565b600060208201905081810360008301526143678161432b565b9050919050565b600060a0820190506143836000830188613c21565b6143906020830187613f87565b81810360408301526143a28186613b3b565b90506143b16060830185613c30565b6143be60808301846137fd565b9695505050505050565b7f4e487b7100000000000000000000000000000000000000000000000000000000600052601160045260246000fd5b600061440282613569565b91507fffffffffffffffffffffffffffffffffffffffffffffffffffffffffffffffff821415614435576144346143c8565b5b600182019050919050565b600081905092915050565b600061445682613854565b6144608185614440565b9350614470818560208601613870565b80840191505092915050565b60008160601b9050919050565b60006144948261447c565b9050919050565b60006144a682614489565b9050919050565b6144be6144b9826135e4565b61449b565b82525050565b6000819050919050565b6144df6144da82613569565b6144c4565b82525050565b60006144f1828661444b565b91506144fd82856144ad565b60148201915061450d82846144ce565b602082019150819050949350505050565b7f4e487b7100000000000000000000000000000000000000000000000000000000600052602260045260246000fd5b6000600282049050600182168061456557607f821691505b602082108114156145795761457861451e565b5b50919050565b600061458b828561444b565b915061459782846144ad565b6014820191508190509392505050565b7f5468652070726f6a656374206973206e6f7420637265617465642c207468652060008201527f6f7065726174696f6e2063616e6e6f7420626520646f6e652e00000000000000602082015250565b600061460360398361385f565b915061460e826145a7565b604082019050919050565b60006020820190508181036000830152614632816145f6565b9050919050565b7f4e487b7100000000000000000000000000000000000000000000000000000000600052603260045260246000fd5b7f596f7520617265206e6f7420616e206f776e6572000000000000000000000000600082015250565b600061469e60148361385f565b91506146a982614668565b602082019050919050565b600060208201905081810360008301526146cd81614691565b9050919050565b60006146e0828461444b565b915081905092915050565b6000606082019050818103600083015261470581866138a3565b9050818103602083015261471981856138a3565b9050818103604083015261472d81846138a3565b9050949350505050565b7f5468652070726f6a656374206973206e6f7420617070726f7665642c2074686560008201527f206f7065726174696f6e2063616e6e6f7420626520646f6e652e000000000000602082015250565b6000614793603a8361385f565b915061479e82614737565b604082019050919050565b600060208201905081810360008301526147c281614786565b905091905056fea26469706673582212201bbba54a9646e8eab63defe43e94945f3e4ab8b907e0dcad7ed5b3c9889898c364736f6c634300080a0033",
  "immutableReferences": {},
  "source": "// SPDX-License-Identifier: MIT\r\npragma solidity >=0.8.0 <0.9.0;\r\n\r\nimport \"./UserChain.sol\";\r\n\r\ncontract ProjectChain is UserChain {\r\n    string constant HASH_STRING_VALUE = \"csd?S@salas;dlA234_D.;s_as\";\r\n    address _projectInitiator;\r\n\r\n    constructor() {\r\n        _projectInitiator = msg.sender;\r\n    }\r\n\r\n    // Project Contract Data\r\n    mapping(address => Project) public projects;\r\n    uint public projectsCounter = 0;\r\n    Project[] public allProjects;\r\n\r\n    struct Project {\r\n        uint _index;\r\n        string _name;\r\n        string _description;\r\n        ProjectStatus _status;\r\n        string _ipfsFileCID;\r\n        address _address;\r\n    }\r\n\r\n    event CreateProject(uint _index, string _name, string _description, ProjectStatus _status, string _ipfsFileCID, address _address);\r\n\r\n\r\n    enum ProjectRequestStatus { Unverified, Verified }\r\n    enum RequestStatus { Unverified, Verified }\r\n    enum ProjectStatus { Created, Approved, Rejected, OnGoing, FinalizationCheck, Completed }\r\n\r\n    //event ProjectStatusChanged(uint256 index, ProjectStatus indexed status, address indexed projectAddress);\r\n    //event CreateProject(uint _indexProject, Project.ProjectStatus _projectStatus, address _address);\r\n\r\n    modifier onlyProjectInitiator {\r\n        require(userInfo[_projectInitiator].role == Roles.ProjectInitiator, \"You don't have the rights for this resources.\");\r\n        require(_projectInitiator == msg.sender, \"You are not a project initiator\");\r\n        _;\r\n    }\r\n\r\n    function createProject(string memory _name, string memory _description, uint _status, string memory _ipfsFileCID) public  {\r\n        address _projectAddress = createUniqueHexAddress(HASH_STRING_VALUE, _projectInitiator);\r\n\r\n        projects[_projectAddress]._index = projectsCounter;\r\n        projects[_projectAddress]._name = _name;\r\n        projects[_projectAddress]._description = _description;\r\n        projects[_projectAddress]._status = ProjectStatus(_status);\r\n        projects[_projectAddress]._ipfsFileCID = _ipfsFileCID;\r\n        projects[_projectAddress]._address = _projectAddress;\r\n\r\n        emit CreateProject(projectsCounter, _name, _description, ProjectStatus(_status), _ipfsFileCID, _projectAddress);\r\n        allProjects.push(Project(projectsCounter, _name, _description, ProjectStatus(_status), _ipfsFileCID, _projectAddress));\r\n        projectsCounter++;\r\n    }\r\n\r\n    function getProjectInfo(address _address) external view returns (Project memory) {\r\n        return projects[_address];\r\n    }\r\n\r\n    function getAllProjects() public view returns(Project[] memory) {\r\n        return allProjects;\r\n    }\r\n\r\n    function createUniqueIdentifier(string memory _text, address _addr) public pure returns (bytes32)  {\r\n        return keccak256(abi.encodePacked(_text, _addr));\r\n    }\r\n\r\n    function createUniqueHexAddress(string memory _text, address _addr) public view returns (address)  {\r\n        return address(uint160(uint256(keccak256(abi.encodePacked(_text, _addr, block.timestamp)))));\r\n    }\r\n\r\n\r\n\r\n    // function changeProjectStatus(uint _status, address _address) public {\r\n    //     projectsStatus[statusChangedIndex]._index = statusChangedIndex;\r\n    //     projectsStatus[statusChangedIndex]._status = ProjectStatus(_status);\r\n    //     projectsStatus[statusChangedIndex]._address = _address;\r\n    //     emit ProjectStatusChanged(statusChangedIndex, ProjectStatus(_status), _address);\r\n    //     statusChangedIndex++;\r\n    // }\r\n\r\n\r\n    struct Request {\r\n        uint index;\r\n        string description;\r\n        RequestStatus status;\r\n        Project project;\r\n        address subjectAddress;\r\n    }\r\n\r\n    mapping(uint => Request) public companyRequests;\r\n    mapping(uint => Request) public supervisorRequests;\r\n\r\n    //uint public projectsCount = 0;\r\n    //uint[] public projectIds;\r\n\r\n\r\n    uint indexCompanyRequest;\r\n    uint indexSupervisorRequest;\r\n\r\n    event UpdateSupervisorRequestStatus(uint _indexRequest, RequestStatus _status, Project _project, ProjectStatus _projectStatus, address _subjectAddress);\r\n    event UpdateCompanyRequestStatus(uint _indexRequest, RequestStatus _status, Project _project, ProjectStatus _projectStatus, address _subjectAddress);\r\n\r\n\r\n    function requestProjectApprovalFromSupervisor(string memory _description, Project memory _project, address _subjectAddress) public {\r\n        require(_project._status == ProjectStatus.Created, \"The project is not created, the operation cannot be done.\");\r\n\r\n        Request storage request = supervisorRequests[indexSupervisorRequest];\r\n        request.description = _description;\r\n        request.status = RequestStatus.Unverified;\r\n        request.project = _project;\r\n        request.subjectAddress = _subjectAddress;\r\n\r\n        emit UpdateSupervisorRequestStatus(indexSupervisorRequest, RequestStatus.Unverified, _project, _project._status, _subjectAddress);\r\n        indexSupervisorRequest++;\r\n    }\r\n\r\n    function requestProjectCompleteFromSupervisor(string memory _description, Project memory _project, address _subjectAddress) public {\r\n        require(\r\n            _project._status == ProjectStatus.FinalizationCheck,\r\n            \"The project is not in the 'BeforeFinalizationCheck' status, the operation cannot be done.\"\r\n        );\r\n\r\n        Request storage request = supervisorRequests[indexSupervisorRequest];\r\n        request.description = _description;\r\n        request.status = RequestStatus.Unverified;\r\n        request.project = _project;\r\n        request.subjectAddress = _subjectAddress;\r\n\r\n        emit UpdateSupervisorRequestStatus(indexSupervisorRequest, RequestStatus.Unverified, _project, _project._status, _subjectAddress);\r\n        indexSupervisorRequest++;\r\n    }\r\n\r\n    function requestStartProjectToCompanyBuilder(string memory _description, Project memory _project, address _subjectAddress) public {\r\n        require(_project._status == ProjectStatus.Approved, \"The project is not approved, the operation cannot be done.\");\r\n\r\n        Request storage request = companyRequests[indexCompanyRequest];\r\n        request.description = _description;\r\n        request.status = RequestStatus.Unverified;\r\n        request.project = _project;\r\n        request.subjectAddress = _subjectAddress;\r\n\r\n        emit UpdateCompanyRequestStatus(indexCompanyRequest, RequestStatus.Unverified, _project, _project._status, _subjectAddress);\r\n        indexCompanyRequest++;\r\n    }\r\n}",
  "sourcePath": "/mnt/c/users/beniamin/source/repos/dissertationproject/contracts/ProjectChain.sol",
  "compiler": {
    "name": "solc",
    "version": "0.8.10+commit.fc410830.Emscripten.clang"
  },
  "schemaVersion": "3.4.3",
  "updatedAt": "2021-11-19T10:04:54.893Z",
  "devdoc": {
    "kind": "dev",
    "methods": {},
    "version": 1
  },
  "userdoc": {
    "kind": "user",
    "methods": {},
    "version": 1
  }
}