{
  "contractName": "ProjectChain",
  "abi": [
    {
      "inputs": [],
      "stateMutability": "nonpayable",
      "type": "constructor"
    },
    {
      "anonymous": false,
      "inputs": [
        {
          "indexed": false,
          "internalType": "uint256",
          "name": "_index",
          "type": "uint256"
        },
        {
          "indexed": false,
          "internalType": "string",
          "name": "_name",
          "type": "string"
        },
        {
          "indexed": false,
          "internalType": "string",
          "name": "_description",
          "type": "string"
        },
        {
          "indexed": false,
          "internalType": "enum ProjectChain.ProjectStatus",
          "name": "_status",
          "type": "uint8"
        },
        {
          "indexed": false,
          "internalType": "string",
          "name": "_ipfsFileCID",
          "type": "string"
        },
        {
          "indexed": false,
          "internalType": "address",
          "name": "_projectAddress",
          "type": "address"
        },
        {
          "indexed": false,
          "internalType": "address",
          "name": "_projectInitiator",
          "type": "address"
        }
      ],
      "name": "ProjectEvent",
      "type": "event"
    },
    {
      "anonymous": false,
      "inputs": [],
      "name": "ProjectStatusEvent",
      "type": "event"
    },
    {
      "anonymous": false,
      "inputs": [
        {
          "indexed": false,
          "internalType": "uint256",
          "name": "_indexRequest",
          "type": "uint256"
        },
        {
          "indexed": false,
          "internalType": "enum ProjectChain.RequestStatus",
          "name": "_status",
          "type": "uint8"
        },
        {
          "components": [
            {
              "internalType": "uint256",
              "name": "_index",
              "type": "uint256"
            },
            {
              "internalType": "string",
              "name": "_name",
              "type": "string"
            },
            {
              "internalType": "string",
              "name": "_description",
              "type": "string"
            },
            {
              "internalType": "enum ProjectChain.ProjectStatus",
              "name": "_status",
              "type": "uint8"
            },
            {
              "internalType": "string",
              "name": "_ipfsFileCID",
              "type": "string"
            },
            {
              "internalType": "address",
              "name": "_projectAddress",
              "type": "address"
            },
            {
              "internalType": "address",
              "name": "_projectInitiator",
              "type": "address"
            }
          ],
          "indexed": false,
          "internalType": "struct ProjectChain.Project",
          "name": "_project",
          "type": "tuple"
        },
        {
          "indexed": false,
          "internalType": "enum ProjectChain.ProjectStatus",
          "name": "_projectStatus",
          "type": "uint8"
        },
        {
          "indexed": false,
          "internalType": "address",
          "name": "_subjectAddress",
          "type": "address"
        }
      ],
      "name": "UpdateCompanyRequestStatus",
      "type": "event"
    },
    {
      "anonymous": false,
      "inputs": [
        {
          "indexed": false,
          "internalType": "uint256",
          "name": "_indexRequest",
          "type": "uint256"
        },
        {
          "indexed": false,
          "internalType": "enum ProjectChain.RequestStatus",
          "name": "_status",
          "type": "uint8"
        },
        {
          "components": [
            {
              "internalType": "uint256",
              "name": "_index",
              "type": "uint256"
            },
            {
              "internalType": "string",
              "name": "_name",
              "type": "string"
            },
            {
              "internalType": "string",
              "name": "_description",
              "type": "string"
            },
            {
              "internalType": "enum ProjectChain.ProjectStatus",
              "name": "_status",
              "type": "uint8"
            },
            {
              "internalType": "string",
              "name": "_ipfsFileCID",
              "type": "string"
            },
            {
              "internalType": "address",
              "name": "_projectAddress",
              "type": "address"
            },
            {
              "internalType": "address",
              "name": "_projectInitiator",
              "type": "address"
            }
          ],
          "indexed": false,
          "internalType": "struct ProjectChain.Project",
          "name": "_project",
          "type": "tuple"
        },
        {
          "indexed": false,
          "internalType": "enum ProjectChain.ProjectStatus",
          "name": "_projectStatus",
          "type": "uint8"
        },
        {
          "indexed": false,
          "internalType": "address",
          "name": "_subjectAddress",
          "type": "address"
        }
      ],
      "name": "UpdateSupervisorRequestStatus",
      "type": "event"
    },
    {
      "anonymous": false,
      "inputs": [
        {
          "indexed": false,
          "internalType": "string",
          "name": "username",
          "type": "string"
        },
        {
          "indexed": false,
          "internalType": "string",
          "name": "firstname",
          "type": "string"
        },
        {
          "indexed": false,
          "internalType": "string",
          "name": "lastname",
          "type": "string"
        },
        {
          "indexed": false,
          "internalType": "string",
          "name": "email",
          "type": "string"
        },
        {
          "indexed": false,
          "internalType": "enum UserChain.Roles",
          "name": "role",
          "type": "uint8"
        },
        {
          "indexed": false,
          "internalType": "address",
          "name": "walletAddress",
          "type": "address"
        }
      ],
      "name": "UserChanges",
      "type": "event"
    },
    {
      "anonymous": false,
      "inputs": [
        {
          "indexed": true,
          "internalType": "address",
          "name": "_walletAddress",
          "type": "address"
        },
        {
          "indexed": true,
          "internalType": "string",
          "name": "_username",
          "type": "string"
        },
        {
          "indexed": false,
          "internalType": "string",
          "name": "_email",
          "type": "string"
        },
        {
          "indexed": false,
          "internalType": "string",
          "name": "_firstname",
          "type": "string"
        },
        {
          "indexed": false,
          "internalType": "string",
          "name": "_lastname",
          "type": "string"
        },
        {
          "indexed": true,
          "internalType": "enum UserChain.Roles",
          "name": "_role",
          "type": "uint8"
        }
      ],
      "name": "UserRegistered",
      "type": "event"
    },
    {
      "inputs": [
        {
          "internalType": "uint256",
          "name": "",
          "type": "uint256"
        }
      ],
      "name": "allProjects",
      "outputs": [
        {
          "internalType": "uint256",
          "name": "_index",
          "type": "uint256"
        },
        {
          "internalType": "string",
          "name": "_name",
          "type": "string"
        },
        {
          "internalType": "string",
          "name": "_description",
          "type": "string"
        },
        {
          "internalType": "enum ProjectChain.ProjectStatus",
          "name": "_status",
          "type": "uint8"
        },
        {
          "internalType": "string",
          "name": "_ipfsFileCID",
          "type": "string"
        },
        {
          "internalType": "address",
          "name": "_projectAddress",
          "type": "address"
        },
        {
          "internalType": "address",
          "name": "_projectInitiator",
          "type": "address"
        }
      ],
      "stateMutability": "view",
      "type": "function"
    },
    {
      "inputs": [
        {
          "internalType": "uint256",
          "name": "",
          "type": "uint256"
        }
      ],
      "name": "allUsers",
      "outputs": [
        {
          "internalType": "uint256",
          "name": "_index",
          "type": "uint256"
        },
        {
          "internalType": "string",
          "name": "_username",
          "type": "string"
        },
        {
          "internalType": "string",
          "name": "_email",
          "type": "string"
        },
        {
          "internalType": "string",
          "name": "_firstname",
          "type": "string"
        },
        {
          "internalType": "string",
          "name": "_lastname",
          "type": "string"
        },
        {
          "internalType": "enum UserChain.Roles",
          "name": "_role",
          "type": "uint8"
        },
        {
          "internalType": "address",
          "name": "_walletAddress",
          "type": "address"
        }
      ],
      "stateMutability": "view",
      "type": "function"
    },
    {
      "inputs": [
        {
          "internalType": "uint256",
          "name": "_role",
          "type": "uint256"
        },
        {
          "internalType": "address",
          "name": "_walletAddress",
          "type": "address"
        }
      ],
      "name": "changeUserRole",
      "outputs": [],
      "stateMutability": "nonpayable",
      "type": "function"
    },
    {
      "inputs": [
        {
          "internalType": "uint256",
          "name": "",
          "type": "uint256"
        }
      ],
      "name": "companyRequests",
      "outputs": [
        {
          "internalType": "uint256",
          "name": "index",
          "type": "uint256"
        },
        {
          "internalType": "string",
          "name": "description",
          "type": "string"
        },
        {
          "internalType": "enum ProjectChain.RequestStatus",
          "name": "status",
          "type": "uint8"
        },
        {
          "components": [
            {
              "internalType": "uint256",
              "name": "_index",
              "type": "uint256"
            },
            {
              "internalType": "string",
              "name": "_name",
              "type": "string"
            },
            {
              "internalType": "string",
              "name": "_description",
              "type": "string"
            },
            {
              "internalType": "enum ProjectChain.ProjectStatus",
              "name": "_status",
              "type": "uint8"
            },
            {
              "internalType": "string",
              "name": "_ipfsFileCID",
              "type": "string"
            },
            {
              "internalType": "address",
              "name": "_projectAddress",
              "type": "address"
            },
            {
              "internalType": "address",
              "name": "_projectInitiator",
              "type": "address"
            }
          ],
          "internalType": "struct ProjectChain.Project",
          "name": "project",
          "type": "tuple"
        },
        {
          "internalType": "address",
          "name": "subjectAddress",
          "type": "address"
        }
      ],
      "stateMutability": "view",
      "type": "function"
    },
    {
      "inputs": [],
      "name": "getAllUsers",
      "outputs": [
        {
          "components": [
            {
              "internalType": "uint256",
              "name": "_index",
              "type": "uint256"
            },
            {
              "internalType": "string",
              "name": "_username",
              "type": "string"
            },
            {
              "internalType": "string",
              "name": "_email",
              "type": "string"
            },
            {
              "internalType": "string",
              "name": "_firstname",
              "type": "string"
            },
            {
              "internalType": "string",
              "name": "_lastname",
              "type": "string"
            },
            {
              "internalType": "enum UserChain.Roles",
              "name": "_role",
              "type": "uint8"
            },
            {
              "internalType": "address",
              "name": "_walletAddress",
              "type": "address"
            }
          ],
          "internalType": "struct UserChain.User[]",
          "name": "",
          "type": "tuple[]"
        }
      ],
      "stateMutability": "view",
      "type": "function"
    },
    {
      "inputs": [
        {
          "internalType": "address",
          "name": "_walletAddress",
          "type": "address"
        }
      ],
      "name": "getUserInfo",
      "outputs": [
        {
          "components": [
            {
              "internalType": "uint256",
              "name": "_index",
              "type": "uint256"
            },
            {
              "internalType": "string",
              "name": "_username",
              "type": "string"
            },
            {
              "internalType": "string",
              "name": "_email",
              "type": "string"
            },
            {
              "internalType": "string",
              "name": "_firstname",
              "type": "string"
            },
            {
              "internalType": "string",
              "name": "_lastname",
              "type": "string"
            },
            {
              "internalType": "enum UserChain.Roles",
              "name": "_role",
              "type": "uint8"
            },
            {
              "internalType": "address",
              "name": "_walletAddress",
              "type": "address"
            }
          ],
          "internalType": "struct UserChain.User",
          "name": "",
          "type": "tuple"
        }
      ],
      "stateMutability": "view",
      "type": "function"
    },
    {
      "inputs": [],
      "name": "owner",
      "outputs": [
        {
          "internalType": "address",
          "name": "",
          "type": "address"
        }
      ],
      "stateMutability": "view",
      "type": "function"
    },
    {
      "inputs": [
        {
          "internalType": "address",
          "name": "",
          "type": "address"
        }
      ],
      "name": "projects",
      "outputs": [
        {
          "internalType": "uint256",
          "name": "_index",
          "type": "uint256"
        },
        {
          "internalType": "string",
          "name": "_name",
          "type": "string"
        },
        {
          "internalType": "string",
          "name": "_description",
          "type": "string"
        },
        {
          "internalType": "enum ProjectChain.ProjectStatus",
          "name": "_status",
          "type": "uint8"
        },
        {
          "internalType": "string",
          "name": "_ipfsFileCID",
          "type": "string"
        },
        {
          "internalType": "address",
          "name": "_projectAddress",
          "type": "address"
        },
        {
          "internalType": "address",
          "name": "_projectInitiator",
          "type": "address"
        }
      ],
      "stateMutability": "view",
      "type": "function"
    },
    {
      "inputs": [],
      "name": "projectsCounter",
      "outputs": [
        {
          "internalType": "uint256",
          "name": "",
          "type": "uint256"
        }
      ],
      "stateMutability": "view",
      "type": "function"
    },
    {
      "inputs": [
        {
          "internalType": "string",
          "name": "_username",
          "type": "string"
        },
        {
          "internalType": "string",
          "name": "_email",
          "type": "string"
        },
        {
          "internalType": "string",
          "name": "_firstname",
          "type": "string"
        },
        {
          "internalType": "string",
          "name": "_lastname",
          "type": "string"
        },
        {
          "internalType": "uint256",
          "name": "_role",
          "type": "uint256"
        },
        {
          "internalType": "address",
          "name": "_walletAddress",
          "type": "address"
        }
      ],
      "name": "registerUser",
      "outputs": [],
      "stateMutability": "nonpayable",
      "type": "function"
    },
    {
      "inputs": [
        {
          "internalType": "uint256",
          "name": "",
          "type": "uint256"
        }
      ],
      "name": "supervisorRequests",
      "outputs": [
        {
          "internalType": "uint256",
          "name": "index",
          "type": "uint256"
        },
        {
          "internalType": "string",
          "name": "description",
          "type": "string"
        },
        {
          "internalType": "enum ProjectChain.RequestStatus",
          "name": "status",
          "type": "uint8"
        },
        {
          "components": [
            {
              "internalType": "uint256",
              "name": "_index",
              "type": "uint256"
            },
            {
              "internalType": "string",
              "name": "_name",
              "type": "string"
            },
            {
              "internalType": "string",
              "name": "_description",
              "type": "string"
            },
            {
              "internalType": "enum ProjectChain.ProjectStatus",
              "name": "_status",
              "type": "uint8"
            },
            {
              "internalType": "string",
              "name": "_ipfsFileCID",
              "type": "string"
            },
            {
              "internalType": "address",
              "name": "_projectAddress",
              "type": "address"
            },
            {
              "internalType": "address",
              "name": "_projectInitiator",
              "type": "address"
            }
          ],
          "internalType": "struct ProjectChain.Project",
          "name": "project",
          "type": "tuple"
        },
        {
          "internalType": "address",
          "name": "subjectAddress",
          "type": "address"
        }
      ],
      "stateMutability": "view",
      "type": "function"
    },
    {
      "inputs": [
        {
          "internalType": "address",
          "name": "",
          "type": "address"
        }
      ],
      "name": "users",
      "outputs": [
        {
          "internalType": "uint256",
          "name": "_index",
          "type": "uint256"
        },
        {
          "internalType": "string",
          "name": "_username",
          "type": "string"
        },
        {
          "internalType": "string",
          "name": "_email",
          "type": "string"
        },
        {
          "internalType": "string",
          "name": "_firstname",
          "type": "string"
        },
        {
          "internalType": "string",
          "name": "_lastname",
          "type": "string"
        },
        {
          "internalType": "enum UserChain.Roles",
          "name": "_role",
          "type": "uint8"
        },
        {
          "internalType": "address",
          "name": "_walletAddress",
          "type": "address"
        }
      ],
      "stateMutability": "view",
      "type": "function"
    },
    {
      "inputs": [],
      "name": "usersCounter",
      "outputs": [
        {
          "internalType": "uint256",
          "name": "",
          "type": "uint256"
        }
      ],
      "stateMutability": "view",
      "type": "function"
    },
    {
      "inputs": [
        {
          "internalType": "string",
          "name": "_name",
          "type": "string"
        },
        {
          "internalType": "string",
          "name": "_description",
          "type": "string"
        },
        {
          "internalType": "uint256",
          "name": "_status",
          "type": "uint256"
        },
        {
          "internalType": "string",
          "name": "_ipfsFileCID",
          "type": "string"
        }
      ],
      "name": "createProject",
      "outputs": [],
      "stateMutability": "nonpayable",
      "type": "function"
    },
    {
      "inputs": [
        {
          "internalType": "address",
          "name": "_address",
          "type": "address"
        }
      ],
      "name": "getProjectInfo",
      "outputs": [
        {
          "components": [
            {
              "internalType": "uint256",
              "name": "_index",
              "type": "uint256"
            },
            {
              "internalType": "string",
              "name": "_name",
              "type": "string"
            },
            {
              "internalType": "string",
              "name": "_description",
              "type": "string"
            },
            {
              "internalType": "enum ProjectChain.ProjectStatus",
              "name": "_status",
              "type": "uint8"
            },
            {
              "internalType": "string",
              "name": "_ipfsFileCID",
              "type": "string"
            },
            {
              "internalType": "address",
              "name": "_projectAddress",
              "type": "address"
            },
            {
              "internalType": "address",
              "name": "_projectInitiator",
              "type": "address"
            }
          ],
          "internalType": "struct ProjectChain.Project",
          "name": "",
          "type": "tuple"
        }
      ],
      "stateMutability": "view",
      "type": "function"
    },
    {
      "inputs": [],
      "name": "getAllProjects",
      "outputs": [
        {
          "components": [
            {
              "internalType": "uint256",
              "name": "_index",
              "type": "uint256"
            },
            {
              "internalType": "string",
              "name": "_name",
              "type": "string"
            },
            {
              "internalType": "string",
              "name": "_description",
              "type": "string"
            },
            {
              "internalType": "enum ProjectChain.ProjectStatus",
              "name": "_status",
              "type": "uint8"
            },
            {
              "internalType": "string",
              "name": "_ipfsFileCID",
              "type": "string"
            },
            {
              "internalType": "address",
              "name": "_projectAddress",
              "type": "address"
            },
            {
              "internalType": "address",
              "name": "_projectInitiator",
              "type": "address"
            }
          ],
          "internalType": "struct ProjectChain.Project[]",
          "name": "",
          "type": "tuple[]"
        }
      ],
      "stateMutability": "view",
      "type": "function"
    },
    {
      "inputs": [
        {
          "internalType": "string",
          "name": "_text",
          "type": "string"
        }
      ],
      "name": "createUniqueHexAddress",
      "outputs": [
        {
          "internalType": "address",
          "name": "",
          "type": "address"
        }
      ],
      "stateMutability": "view",
      "type": "function"
    },
    {
      "inputs": [
        {
          "internalType": "string",
          "name": "_description",
          "type": "string"
        },
        {
          "components": [
            {
              "internalType": "uint256",
              "name": "_index",
              "type": "uint256"
            },
            {
              "internalType": "string",
              "name": "_name",
              "type": "string"
            },
            {
              "internalType": "string",
              "name": "_description",
              "type": "string"
            },
            {
              "internalType": "enum ProjectChain.ProjectStatus",
              "name": "_status",
              "type": "uint8"
            },
            {
              "internalType": "string",
              "name": "_ipfsFileCID",
              "type": "string"
            },
            {
              "internalType": "address",
              "name": "_projectAddress",
              "type": "address"
            },
            {
              "internalType": "address",
              "name": "_projectInitiator",
              "type": "address"
            }
          ],
          "internalType": "struct ProjectChain.Project",
          "name": "_project",
          "type": "tuple"
        },
        {
          "internalType": "address",
          "name": "_subjectAddress",
          "type": "address"
        }
      ],
      "name": "requestProjectApprovalFromSupervisor",
      "outputs": [],
      "stateMutability": "nonpayable",
      "type": "function"
    },
    {
      "inputs": [
        {
          "internalType": "string",
          "name": "_description",
          "type": "string"
        },
        {
          "components": [
            {
              "internalType": "uint256",
              "name": "_index",
              "type": "uint256"
            },
            {
              "internalType": "string",
              "name": "_name",
              "type": "string"
            },
            {
              "internalType": "string",
              "name": "_description",
              "type": "string"
            },
            {
              "internalType": "enum ProjectChain.ProjectStatus",
              "name": "_status",
              "type": "uint8"
            },
            {
              "internalType": "string",
              "name": "_ipfsFileCID",
              "type": "string"
            },
            {
              "internalType": "address",
              "name": "_projectAddress",
              "type": "address"
            },
            {
              "internalType": "address",
              "name": "_projectInitiator",
              "type": "address"
            }
          ],
          "internalType": "struct ProjectChain.Project",
          "name": "_project",
          "type": "tuple"
        },
        {
          "internalType": "address",
          "name": "_subjectAddress",
          "type": "address"
        }
      ],
      "name": "requestProjectCompleteFromSupervisor",
      "outputs": [],
      "stateMutability": "nonpayable",
      "type": "function"
    },
    {
      "inputs": [
        {
          "internalType": "string",
          "name": "_description",
          "type": "string"
        },
        {
          "components": [
            {
              "internalType": "uint256",
              "name": "_index",
              "type": "uint256"
            },
            {
              "internalType": "string",
              "name": "_name",
              "type": "string"
            },
            {
              "internalType": "string",
              "name": "_description",
              "type": "string"
            },
            {
              "internalType": "enum ProjectChain.ProjectStatus",
              "name": "_status",
              "type": "uint8"
            },
            {
              "internalType": "string",
              "name": "_ipfsFileCID",
              "type": "string"
            },
            {
              "internalType": "address",
              "name": "_projectAddress",
              "type": "address"
            },
            {
              "internalType": "address",
              "name": "_projectInitiator",
              "type": "address"
            }
          ],
          "internalType": "struct ProjectChain.Project",
          "name": "_project",
          "type": "tuple"
        },
        {
          "internalType": "address",
          "name": "_subjectAddress",
          "type": "address"
        }
      ],
      "name": "requestStartProjectToCompanyBuilder",
      "outputs": [],
      "stateMutability": "nonpayable",
      "type": "function"
    }
  ],
  "bytecode": "0x60806040526000600355600060065534801561001a57600080fd5b50336000806101000a81548173ffffffffffffffffffffffffffffffffffffffff021916908373ffffffffffffffffffffffffffffffffffffffff16021790555033600460006101000a81548173ffffffffffffffffffffffffffffffffffffffff021916908373ffffffffffffffffffffffffffffffffffffffff160217905550614bb2806100ab6000396000f3fe608060405234801561001057600080fd5b506004361061012c5760003560e01c806391009786116100ad578063d40d4a8011610071578063d40d4a8014610395578063d67b1b99146103c9578063e2842d79146103e7578063fa9bd9a214610405578063fe360ea5146104215761012c565b806391009786146102d5578063911c29a6146102f1578063a2bdedf41461030d578063a87430ba14610343578063b179e140146103795761012c565b80636386c1c7116100f45780636386c1c7146101ff57806380d038291461022f578063840e78fd1461024d5780638c86a1d7146102835780638da5cb5b146102b75761012c565b80630d2c16cb14610131578063387b81f314610161578063465757141461017d57806347ee45b91461019957806353b3194c146101c9575b600080fd5b61014b60048036038101906101469190613905565b61043f565b604051610158919061398f565b60405180910390f35b61017b60048036038101906101769190613b43565b610498565b005b61019760048036038101906101929190613bce565b610730565b005b6101b360048036038101906101ae9190613c89565b610ceb565b6040516101c09190613e7d565b60405180910390f35b6101e360048036038101906101de9190613e9f565b610feb565b6040516101f69796959493929190613f34565b60405180910390f35b61021960048036038101906102149190613c89565b611222565b60405161022691906140b1565b60405180910390f35b61023761155e565b604051610244919061423f565b60405180910390f35b61026760048036038101906102629190613c89565b611864565b60405161027a9796959493929190613f34565b60405180910390f35b61029d60048036038101906102989190613e9f565b611a8b565b6040516102ae9594939291906142a9565b60405180910390f35b6102bf611e27565b6040516102cc919061398f565b60405180910390f35b6102ef60048036038101906102ea919061430a565b611e4b565b005b61030b6004803603810190610306919061434a565b611f72565b005b61032760048036038101906103229190613e9f565b6124e0565b60405161033a9796959493929190614456565b60405180910390f35b61035d60048036038101906103589190613c89565b61277f565b6040516103709796959493929190614456565b60405180910390f35b610393600480360381019061038e9190613b43565b612a0e565b005b6103af60048036038101906103aa9190613e9f565b612ca6565b6040516103c09594939291906142a9565b60405180910390f35b6103d1613042565b6040516103de91906144e1565b60405180910390f35b6103ef613048565b6040516103fc919061466f565b60405180910390f35b61041f600480360381019061041a9190613b43565b61338a565b005b610429613622565b60405161043691906144e1565b60405180910390f35b600081600460009054906101000a900473ffffffffffffffffffffffffffffffffffffffff164260405160200161047893929190614736565b6040516020818303038152906040528051906020012060001c9050919050565b600060058111156104ac576104ab613d4d565b5b826060015160058111156104c3576104c2613d4d565b5b14610503576040517f08c379a00000000000000000000000000000000000000000000000000000000081526004016104fa906147e1565b60405180910390fd5b600060096000600b548152602001908152602001600020905083816001019080519060200190610534929190613628565b5060008160020160006101000a81548160ff0219169083600181111561055d5761055c613d4d565b5b0217905550828160030160008201518160000155602082015181600101908051906020019061058d929190613628565b5060408201518160020190805190602001906105aa929190613628565b5060608201518160030160006101000a81548160ff021916908360058111156105d6576105d5613d4d565b5b021790555060808201518160040190805190602001906105f7929190613628565b5060a08201518160050160006101000a81548173ffffffffffffffffffffffffffffffffffffffff021916908373ffffffffffffffffffffffffffffffffffffffff16021790555060c08201518160060160006101000a81548173ffffffffffffffffffffffffffffffffffffffff021916908373ffffffffffffffffffffffffffffffffffffffff1602179055509050508181600a0160006101000a81548173ffffffffffffffffffffffffffffffffffffffff021916908373ffffffffffffffffffffffffffffffffffffffff1602179055507f33c92d8d5321f326b7d8ea72d246102a87d3a90cd054dd73f9f838d15d563922600b5460008586606001518660405161070a959493929190614801565b60405180910390a1600b60008154809291906107259061488a565b919050555050505050565b60006107706040518060400160405280601a81526020017f6373643f534073616c61733b646c413233345f442e3b735f617300000000000081525061043f565b9050600654600560008373ffffffffffffffffffffffffffffffffffffffff1673ffffffffffffffffffffffffffffffffffffffff1681526020019081526020016000206000018190555084600560008373ffffffffffffffffffffffffffffffffffffffff1673ffffffffffffffffffffffffffffffffffffffff1681526020019081526020016000206001019080519060200190610811929190613628565b5083600560008373ffffffffffffffffffffffffffffffffffffffff1673ffffffffffffffffffffffffffffffffffffffff1681526020019081526020016000206002019080519060200190610868929190613628565b5082600581111561087c5761087b613d4d565b5b600560008373ffffffffffffffffffffffffffffffffffffffff1673ffffffffffffffffffffffffffffffffffffffff16815260200190815260200160002060030160006101000a81548160ff021916908360058111156108e0576108df613d4d565b5b021790555081600560008373ffffffffffffffffffffffffffffffffffffffff1673ffffffffffffffffffffffffffffffffffffffff168152602001908152602001600020600401908051906020019061093b929190613628565b5080600560008373ffffffffffffffffffffffffffffffffffffffff1673ffffffffffffffffffffffffffffffffffffffff16815260200190815260200160002060050160006101000a81548173ffffffffffffffffffffffffffffffffffffffff021916908373ffffffffffffffffffffffffffffffffffffffff160217905550600460009054906101000a900473ffffffffffffffffffffffffffffffffffffffff16600560008373ffffffffffffffffffffffffffffffffffffffff1673ffffffffffffffffffffffffffffffffffffffff16815260200190815260200160002060060160006101000a81548173ffffffffffffffffffffffffffffffffffffffff021916908373ffffffffffffffffffffffffffffffffffffffff1602179055507f26dcd90797c08da6e2f8f632e15a194aa091dfdbda0db17125d4ab5bece391d56006548686866005811115610a9957610a98613d4d565b5b8686600460009054906101000a900473ffffffffffffffffffffffffffffffffffffffff16604051610ad19796959493929190613f34565b60405180910390a160076040518060e001604052806006548152602001878152602001868152602001856005811115610b0d57610b0c613d4d565b5b6005811115610b1f57610b1e613d4d565b5b81526020018481526020018373ffffffffffffffffffffffffffffffffffffffff168152602001600460009054906101000a900473ffffffffffffffffffffffffffffffffffffffff1673ffffffffffffffffffffffffffffffffffffffff168152509080600181540180825580915050600190039060005260206000209060070201600090919091909150600082015181600001556020820151816001019080519060200190610bd1929190613628565b506040820151816002019080519060200190610bee929190613628565b5060608201518160030160006101000a81548160ff02191690836005811115610c1a57610c19613d4d565b5b02179055506080820151816004019080519060200190610c3b929190613628565b5060a08201518160050160006101000a81548173ffffffffffffffffffffffffffffffffffffffff021916908373ffffffffffffffffffffffffffffffffffffffff16021790555060c08201518160060160006101000a81548173ffffffffffffffffffffffffffffffffffffffff021916908373ffffffffffffffffffffffffffffffffffffffff160217905550505060066000815480929190610cdf9061488a565b91905055505050505050565b610cf36136ae565b600560008373ffffffffffffffffffffffffffffffffffffffff1673ffffffffffffffffffffffffffffffffffffffff1681526020019081526020016000206040518060e001604052908160008201548152602001600182018054610d5790614902565b80601f0160208091040260200160405190810160405280929190818152602001828054610d8390614902565b8015610dd05780601f10610da557610100808354040283529160200191610dd0565b820191906000526020600020905b815481529060010190602001808311610db357829003601f168201915b50505050508152602001600282018054610de990614902565b80601f0160208091040260200160405190810160405280929190818152602001828054610e1590614902565b8015610e625780601f10610e3757610100808354040283529160200191610e62565b820191906000526020600020905b815481529060010190602001808311610e4557829003601f168201915b505050505081526020016003820160009054906101000a900460ff166005811115610e9057610e8f613d4d565b5b6005811115610ea257610ea1613d4d565b5b8152602001600482018054610eb690614902565b80601f0160208091040260200160405190810160405280929190818152602001828054610ee290614902565b8015610f2f5780601f10610f0457610100808354040283529160200191610f2f565b820191906000526020600020905b815481529060010190602001808311610f1257829003601f168201915b505050505081526020016005820160009054906101000a900473ffffffffffffffffffffffffffffffffffffffff1673ffffffffffffffffffffffffffffffffffffffff1673ffffffffffffffffffffffffffffffffffffffff1681526020016006820160009054906101000a900473ffffffffffffffffffffffffffffffffffffffff1673ffffffffffffffffffffffffffffffffffffffff1673ffffffffffffffffffffffffffffffffffffffff16815250509050919050565b60078181548110610ffb57600080fd5b906000526020600020906007020160009150905080600001549080600101805461102490614902565b80601f016020809104026020016040519081016040528092919081815260200182805461105090614902565b801561109d5780601f106110725761010080835404028352916020019161109d565b820191906000526020600020905b81548152906001019060200180831161108057829003601f168201915b5050505050908060020180546110b290614902565b80601f01602080910402602001604051908101604052809291908181526020018280546110de90614902565b801561112b5780601f106111005761010080835404028352916020019161112b565b820191906000526020600020905b81548152906001019060200180831161110e57829003601f168201915b5050505050908060030160009054906101000a900460ff169080600401805461115390614902565b80601f016020809104026020016040519081016040528092919081815260200182805461117f90614902565b80156111cc5780601f106111a1576101008083540402835291602001916111cc565b820191906000526020600020905b8154815290600101906020018083116111af57829003601f168201915b5050505050908060050160009054906101000a900473ffffffffffffffffffffffffffffffffffffffff16908060060160009054906101000a900473ffffffffffffffffffffffffffffffffffffffff16905087565b61122a613729565b600160008373ffffffffffffffffffffffffffffffffffffffff1673ffffffffffffffffffffffffffffffffffffffff1681526020019081526020016000206040518060e00160405290816000820154815260200160018201805461128e90614902565b80601f01602080910402602001604051908101604052809291908181526020018280546112ba90614902565b80156113075780601f106112dc57610100808354040283529160200191611307565b820191906000526020600020905b8154815290600101906020018083116112ea57829003601f168201915b5050505050815260200160028201805461132090614902565b80601f016020809104026020016040519081016040528092919081815260200182805461134c90614902565b80156113995780601f1061136e57610100808354040283529160200191611399565b820191906000526020600020905b81548152906001019060200180831161137c57829003601f168201915b505050505081526020016003820180546113b290614902565b80601f01602080910402602001604051908101604052809291908181526020018280546113de90614902565b801561142b5780601f106114005761010080835404028352916020019161142b565b820191906000526020600020905b81548152906001019060200180831161140e57829003601f168201915b5050505050815260200160048201805461144490614902565b80601f016020809104026020016040519081016040528092919081815260200182805461147090614902565b80156114bd5780601f10611492576101008083540402835291602001916114bd565b820191906000526020600020905b8154815290600101906020018083116114a057829003601f168201915b505050505081526020016005820160009054906101000a900460ff1660038111156114eb576114ea613d4d565b5b60038111156114fd576114fc613d4d565b5b81526020016005820160019054906101000a900473ffffffffffffffffffffffffffffffffffffffff1673ffffffffffffffffffffffffffffffffffffffff1673ffffffffffffffffffffffffffffffffffffffff16815250509050919050565b60606007805480602002602001604051908101604052809291908181526020016000905b8282101561185b57838290600052602060002090600702016040518060e0016040529081600082015481526020016001820180546115bf90614902565b80601f01602080910402602001604051908101604052809291908181526020018280546115eb90614902565b80156116385780601f1061160d57610100808354040283529160200191611638565b820191906000526020600020905b81548152906001019060200180831161161b57829003601f168201915b5050505050815260200160028201805461165190614902565b80601f016020809104026020016040519081016040528092919081815260200182805461167d90614902565b80156116ca5780601f1061169f576101008083540402835291602001916116ca565b820191906000526020600020905b8154815290600101906020018083116116ad57829003601f168201915b505050505081526020016003820160009054906101000a900460ff1660058111156116f8576116f7613d4d565b5b600581111561170a57611709613d4d565b5b815260200160048201805461171e90614902565b80601f016020809104026020016040519081016040528092919081815260200182805461174a90614902565b80156117975780601f1061176c57610100808354040283529160200191611797565b820191906000526020600020905b81548152906001019060200180831161177a57829003601f168201915b505050505081526020016005820160009054906101000a900473ffffffffffffffffffffffffffffffffffffffff1673ffffffffffffffffffffffffffffffffffffffff1673ffffffffffffffffffffffffffffffffffffffff1681526020016006820160009054906101000a900473ffffffffffffffffffffffffffffffffffffffff1673ffffffffffffffffffffffffffffffffffffffff1673ffffffffffffffffffffffffffffffffffffffff168152505081526020019060010190611582565b50505050905090565b600560205280600052604060002060009150905080600001549080600101805461188d90614902565b80601f01602080910402602001604051908101604052809291908181526020018280546118b990614902565b80156119065780601f106118db57610100808354040283529160200191611906565b820191906000526020600020905b8154815290600101906020018083116118e957829003601f168201915b50505050509080600201805461191b90614902565b80601f016020809104026020016040519081016040528092919081815260200182805461194790614902565b80156119945780601f1061196957610100808354040283529160200191611994565b820191906000526020600020905b81548152906001019060200180831161197757829003601f168201915b5050505050908060030160009054906101000a900460ff16908060040180546119bc90614902565b80601f01602080910402602001604051908101604052809291908181526020018280546119e890614902565b8015611a355780601f10611a0a57610100808354040283529160200191611a35565b820191906000526020600020905b815481529060010190602001808311611a1857829003601f168201915b5050505050908060050160009054906101000a900473ffffffffffffffffffffffffffffffffffffffff16908060060160009054906101000a900473ffffffffffffffffffffffffffffffffffffffff16905087565b6009602052806000526040600020600091509050806000015490806001018054611ab490614902565b80601f0160208091040260200160405190810160405280929190818152602001828054611ae090614902565b8015611b2d5780601f10611b0257610100808354040283529160200191611b2d565b820191906000526020600020905b815481529060010190602001808311611b1057829003601f168201915b5050505050908060020160009054906101000a900460ff1690806003016040518060e001604052908160008201548152602001600182018054611b6f90614902565b80601f0160208091040260200160405190810160405280929190818152602001828054611b9b90614902565b8015611be85780601f10611bbd57610100808354040283529160200191611be8565b820191906000526020600020905b815481529060010190602001808311611bcb57829003601f168201915b50505050508152602001600282018054611c0190614902565b80601f0160208091040260200160405190810160405280929190818152602001828054611c2d90614902565b8015611c7a5780601f10611c4f57610100808354040283529160200191611c7a565b820191906000526020600020905b815481529060010190602001808311611c5d57829003601f168201915b505050505081526020016003820160009054906101000a900460ff166005811115611ca857611ca7613d4d565b5b6005811115611cba57611cb9613d4d565b5b8152602001600482018054611cce90614902565b80601f0160208091040260200160405190810160405280929190818152602001828054611cfa90614902565b8015611d475780601f10611d1c57610100808354040283529160200191611d47565b820191906000526020600020905b815481529060010190602001808311611d2a57829003601f168201915b505050505081526020016005820160009054906101000a900473ffffffffffffffffffffffffffffffffffffffff1673ffffffffffffffffffffffffffffffffffffffff1673ffffffffffffffffffffffffffffffffffffffff1681526020016006820160009054906101000a900473ffffffffffffffffffffffffffffffffffffffff1673ffffffffffffffffffffffffffffffffffffffff1673ffffffffffffffffffffffffffffffffffffffff16815250509080600a0160009054906101000a900473ffffffffffffffffffffffffffffffffffffffff16905085565b60008054906101000a900473ffffffffffffffffffffffffffffffffffffffff1681565b816003811115611e5e57611e5d613d4d565b5b600160008373ffffffffffffffffffffffffffffffffffffffff1673ffffffffffffffffffffffffffffffffffffffff16815260200190815260200160002060050160006101000a81548160ff02191690836003811115611ec257611ec1613d4d565b5b02179055506000600160008373ffffffffffffffffffffffffffffffffffffffff1673ffffffffffffffffffffffffffffffffffffffff168152602001908152602001600020600001549050826003811115611f2157611f20613d4d565b5b60028281548110611f3557611f34614934565b5b906000526020600020906006020160050160006101000a81548160ff02191690836003811115611f6857611f67613d4d565b5b0217905550505050565b3373ffffffffffffffffffffffffffffffffffffffff1660008054906101000a900473ffffffffffffffffffffffffffffffffffffffff1673ffffffffffffffffffffffffffffffffffffffff1614612000576040517f08c379a0000000000000000000000000000000000000000000000000000000008152600401611ff7906149af565b60405180910390fd5b600354600160008373ffffffffffffffffffffffffffffffffffffffff1673ffffffffffffffffffffffffffffffffffffffff1681526020019081526020016000206000018190555085600160008373ffffffffffffffffffffffffffffffffffffffff1673ffffffffffffffffffffffffffffffffffffffff168152602001908152602001600020600101908051906020019061209f929190613628565b5084600160008373ffffffffffffffffffffffffffffffffffffffff1673ffffffffffffffffffffffffffffffffffffffff16815260200190815260200160002060020190805190602001906120f6929190613628565b5083600160008373ffffffffffffffffffffffffffffffffffffffff1673ffffffffffffffffffffffffffffffffffffffff168152602001908152602001600020600301908051906020019061214d929190613628565b5082600160008373ffffffffffffffffffffffffffffffffffffffff1673ffffffffffffffffffffffffffffffffffffffff16815260200190815260200160002060040190805190602001906121a4929190613628565b508160038111156121b8576121b7613d4d565b5b600160008373ffffffffffffffffffffffffffffffffffffffff1673ffffffffffffffffffffffffffffffffffffffff16815260200190815260200160002060050160006101000a81548160ff0219169083600381111561221c5761221b613d4d565b5b021790555080600160008373ffffffffffffffffffffffffffffffffffffffff1673ffffffffffffffffffffffffffffffffffffffff16815260200190815260200160002060050160016101000a81548173ffffffffffffffffffffffffffffffffffffffff021916908373ffffffffffffffffffffffffffffffffffffffff1602179055508160038111156122b5576122b4613d4d565b5b60038111156122c7576122c6613d4d565b5b866040516122d591906149cf565b60405180910390208273ffffffffffffffffffffffffffffffffffffffff167fddb5d1667467713eb503e7e133811c91a231cb6b63f11930889c6004f36c35ee888888604051612327939291906149e6565b60405180910390a460026040518060e00160405280600354815260200188815260200187815260200186815260200185815260200184600381111561236f5761236e613d4d565b5b600381111561238157612380613d4d565b5b81526020018373ffffffffffffffffffffffffffffffffffffffff1681525090806001815401808255809150506001900390600052602060002090600602016000909190919091506000820151816000015560208201518160010190805190602001906123ef929190613628565b50604082015181600201908051906020019061240c929190613628565b506060820151816003019080519060200190612429929190613628565b506080820151816004019080519060200190612446929190613628565b5060a08201518160050160006101000a81548160ff0219169083600381111561247257612471613d4d565b5b021790555060c08201518160050160016101000a81548173ffffffffffffffffffffffffffffffffffffffff021916908373ffffffffffffffffffffffffffffffffffffffff1602179055505050600360008154809291906124d39061488a565b9190505550505050505050565b600281815481106124f057600080fd5b906000526020600020906006020160009150905080600001549080600101805461251990614902565b80601f016020809104026020016040519081016040528092919081815260200182805461254590614902565b80156125925780601f1061256757610100808354040283529160200191612592565b820191906000526020600020905b81548152906001019060200180831161257557829003601f168201915b5050505050908060020180546125a790614902565b80601f01602080910402602001604051908101604052809291908181526020018280546125d390614902565b80156126205780601f106125f557610100808354040283529160200191612620565b820191906000526020600020905b81548152906001019060200180831161260357829003601f168201915b50505050509080600301805461263590614902565b80601f016020809104026020016040519081016040528092919081815260200182805461266190614902565b80156126ae5780601f10612683576101008083540402835291602001916126ae565b820191906000526020600020905b81548152906001019060200180831161269157829003601f168201915b5050505050908060040180546126c390614902565b80601f01602080910402602001604051908101604052809291908181526020018280546126ef90614902565b801561273c5780601f106127115761010080835404028352916020019161273c565b820191906000526020600020905b81548152906001019060200180831161271f57829003601f168201915b5050505050908060050160009054906101000a900460ff16908060050160019054906101000a900473ffffffffffffffffffffffffffffffffffffffff16905087565b60016020528060005260406000206000915090508060000154908060010180546127a890614902565b80601f01602080910402602001604051908101604052809291908181526020018280546127d490614902565b80156128215780601f106127f657610100808354040283529160200191612821565b820191906000526020600020905b81548152906001019060200180831161280457829003601f168201915b50505050509080600201805461283690614902565b80601f016020809104026020016040519081016040528092919081815260200182805461286290614902565b80156128af5780601f10612884576101008083540402835291602001916128af565b820191906000526020600020905b81548152906001019060200180831161289257829003601f168201915b5050505050908060030180546128c490614902565b80601f01602080910402602001604051908101604052809291908181526020018280546128f090614902565b801561293d5780601f106129125761010080835404028352916020019161293d565b820191906000526020600020905b81548152906001019060200180831161292057829003601f168201915b50505050509080600401805461295290614902565b80601f016020809104026020016040519081016040528092919081815260200182805461297e90614902565b80156129cb5780601f106129a0576101008083540402835291602001916129cb565b820191906000526020600020905b8154815290600101906020018083116129ae57829003601f168201915b5050505050908060050160009054906101000a900460ff16908060050160019054906101000a900473ffffffffffffffffffffffffffffffffffffffff16905087565b60046005811115612a2257612a21613d4d565b5b82606001516005811115612a3957612a38613d4d565b5b14612a79576040517f08c379a0000000000000000000000000000000000000000000000000000000008152600401612a7090614aca565b60405180910390fd5b600060096000600b548152602001908152602001600020905083816001019080519060200190612aaa929190613628565b5060008160020160006101000a81548160ff02191690836001811115612ad357612ad2613d4d565b5b02179055508281600301600082015181600001556020820151816001019080519060200190612b03929190613628565b506040820151816002019080519060200190612b20929190613628565b5060608201518160030160006101000a81548160ff02191690836005811115612b4c57612b4b613d4d565b5b02179055506080820151816004019080519060200190612b6d929190613628565b5060a08201518160050160006101000a81548173ffffffffffffffffffffffffffffffffffffffff021916908373ffffffffffffffffffffffffffffffffffffffff16021790555060c08201518160060160006101000a81548173ffffffffffffffffffffffffffffffffffffffff021916908373ffffffffffffffffffffffffffffffffffffffff1602179055509050508181600a0160006101000a81548173ffffffffffffffffffffffffffffffffffffffff021916908373ffffffffffffffffffffffffffffffffffffffff1602179055507f33c92d8d5321f326b7d8ea72d246102a87d3a90cd054dd73f9f838d15d563922600b54600085866060015186604051612c80959493929190614801565b60405180910390a1600b6000815480929190612c9b9061488a565b919050555050505050565b6008602052806000526040600020600091509050806000015490806001018054612ccf90614902565b80601f0160208091040260200160405190810160405280929190818152602001828054612cfb90614902565b8015612d485780601f10612d1d57610100808354040283529160200191612d48565b820191906000526020600020905b815481529060010190602001808311612d2b57829003601f168201915b5050505050908060020160009054906101000a900460ff1690806003016040518060e001604052908160008201548152602001600182018054612d8a90614902565b80601f0160208091040260200160405190810160405280929190818152602001828054612db690614902565b8015612e035780601f10612dd857610100808354040283529160200191612e03565b820191906000526020600020905b815481529060010190602001808311612de657829003601f168201915b50505050508152602001600282018054612e1c90614902565b80601f0160208091040260200160405190810160405280929190818152602001828054612e4890614902565b8015612e955780601f10612e6a57610100808354040283529160200191612e95565b820191906000526020600020905b815481529060010190602001808311612e7857829003601f168201915b505050505081526020016003820160009054906101000a900460ff166005811115612ec357612ec2613d4d565b5b6005811115612ed557612ed4613d4d565b5b8152602001600482018054612ee990614902565b80601f0160208091040260200160405190810160405280929190818152602001828054612f1590614902565b8015612f625780601f10612f3757610100808354040283529160200191612f62565b820191906000526020600020905b815481529060010190602001808311612f4557829003601f168201915b505050505081526020016005820160009054906101000a900473ffffffffffffffffffffffffffffffffffffffff1673ffffffffffffffffffffffffffffffffffffffff1673ffffffffffffffffffffffffffffffffffffffff1681526020016006820160009054906101000a900473ffffffffffffffffffffffffffffffffffffffff1673ffffffffffffffffffffffffffffffffffffffff1673ffffffffffffffffffffffffffffffffffffffff16815250509080600a0160009054906101000a900473ffffffffffffffffffffffffffffffffffffffff16905085565b60035481565b60606002805480602002602001604051908101604052809291908181526020016000905b8282101561338157838290600052602060002090600602016040518060e0016040529081600082015481526020016001820180546130a990614902565b80601f01602080910402602001604051908101604052809291908181526020018280546130d590614902565b80156131225780601f106130f757610100808354040283529160200191613122565b820191906000526020600020905b81548152906001019060200180831161310557829003601f168201915b5050505050815260200160028201805461313b90614902565b80601f016020809104026020016040519081016040528092919081815260200182805461316790614902565b80156131b45780601f10613189576101008083540402835291602001916131b4565b820191906000526020600020905b81548152906001019060200180831161319757829003601f168201915b505050505081526020016003820180546131cd90614902565b80601f01602080910402602001604051908101604052809291908181526020018280546131f990614902565b80156132465780601f1061321b57610100808354040283529160200191613246565b820191906000526020600020905b81548152906001019060200180831161322957829003601f168201915b5050505050815260200160048201805461325f90614902565b80601f016020809104026020016040519081016040528092919081815260200182805461328b90614902565b80156132d85780601f106132ad576101008083540402835291602001916132d8565b820191906000526020600020905b8154815290600101906020018083116132bb57829003601f168201915b505050505081526020016005820160009054906101000a900460ff16600381111561330657613305613d4d565b5b600381111561331857613317613d4d565b5b81526020016005820160019054906101000a900473ffffffffffffffffffffffffffffffffffffffff1673ffffffffffffffffffffffffffffffffffffffff1673ffffffffffffffffffffffffffffffffffffffff16815250508152602001906001019061306c565b50505050905090565b6001600581111561339e5761339d613d4d565b5b826060015160058111156133b5576133b4613d4d565b5b146133f5576040517f08c379a00000000000000000000000000000000000000000000000000000000081526004016133ec90614b5c565b60405180910390fd5b600060086000600a548152602001908152602001600020905083816001019080519060200190613426929190613628565b5060008160020160006101000a81548160ff0219169083600181111561344f5761344e613d4d565b5b0217905550828160030160008201518160000155602082015181600101908051906020019061347f929190613628565b50604082015181600201908051906020019061349c929190613628565b5060608201518160030160006101000a81548160ff021916908360058111156134c8576134c7613d4d565b5b021790555060808201518160040190805190602001906134e9929190613628565b5060a08201518160050160006101000a81548173ffffffffffffffffffffffffffffffffffffffff021916908373ffffffffffffffffffffffffffffffffffffffff16021790555060c08201518160060160006101000a81548173ffffffffffffffffffffffffffffffffffffffff021916908373ffffffffffffffffffffffffffffffffffffffff1602179055509050508181600a0160006101000a81548173ffffffffffffffffffffffffffffffffffffffff021916908373ffffffffffffffffffffffffffffffffffffffff1602179055507fd1e03eeb3d8ec297426fd80db06effebb2b279248ffa875069c1dc83489c449b600a546000858660600151866040516135fc959493929190614801565b60405180910390a1600a60008154809291906136179061488a565b919050555050505050565b60065481565b82805461363490614902565b90600052602060002090601f016020900481019282613656576000855561369d565b82601f1061366f57805160ff191683800117855561369d565b8280016001018555821561369d579182015b8281111561369c578251825591602001919060010190613681565b5b5090506136aa919061378e565b5090565b6040518060e00160405280600081526020016060815260200160608152602001600060058111156136e2576136e1613d4d565b5b815260200160608152602001600073ffffffffffffffffffffffffffffffffffffffff168152602001600073ffffffffffffffffffffffffffffffffffffffff1681525090565b6040518060e0016040528060008152602001606081526020016060815260200160608152602001606081526020016000600381111561376b5761376a613d4d565b5b8152602001600073ffffffffffffffffffffffffffffffffffffffff1681525090565b5b808211156137a757600081600090555060010161378f565b5090565b6000604051905090565b600080fd5b600080fd5b600080fd5b600080fd5b6000601f19601f8301169050919050565b7f4e487b7100000000000000000000000000000000000000000000000000000000600052604160045260246000fd5b613812826137c9565b810181811067ffffffffffffffff82111715613831576138306137da565b5b80604052505050565b60006138446137ab565b90506138508282613809565b919050565b600067ffffffffffffffff8211156138705761386f6137da565b5b613879826137c9565b9050602081019050919050565b82818337600083830152505050565b60006138a86138a384613855565b61383a565b9050828152602081018484840111156138c4576138c36137c4565b5b6138cf848285613886565b509392505050565b600082601f8301126138ec576138eb6137bf565b5b81356138fc848260208601613895565b91505092915050565b60006020828403121561391b5761391a6137b5565b5b600082013567ffffffffffffffff811115613939576139386137ba565b5b613945848285016138d7565b91505092915050565b600073ffffffffffffffffffffffffffffffffffffffff82169050919050565b60006139798261394e565b9050919050565b6139898161396e565b82525050565b60006020820190506139a46000830184613980565b92915050565b600080fd5b600080fd5b6000819050919050565b6139c7816139b4565b81146139d257600080fd5b50565b6000813590506139e4816139be565b92915050565b600681106139f757600080fd5b50565b600081359050613a09816139ea565b92915050565b613a188161396e565b8114613a2357600080fd5b50565b600081359050613a3581613a0f565b92915050565b600060e08284031215613a5157613a506139aa565b5b613a5b60e061383a565b90506000613a6b848285016139d5565b600083015250602082013567ffffffffffffffff811115613a8f57613a8e6139af565b5b613a9b848285016138d7565b602083015250604082013567ffffffffffffffff811115613abf57613abe6139af565b5b613acb848285016138d7565b6040830152506060613adf848285016139fa565b606083015250608082013567ffffffffffffffff811115613b0357613b026139af565b5b613b0f848285016138d7565b60808301525060a0613b2384828501613a26565b60a08301525060c0613b3784828501613a26565b60c08301525092915050565b600080600060608486031215613b5c57613b5b6137b5565b5b600084013567ffffffffffffffff811115613b7a57613b796137ba565b5b613b86868287016138d7565b935050602084013567ffffffffffffffff811115613ba757613ba66137ba565b5b613bb386828701613a3b565b9250506040613bc486828701613a26565b9150509250925092565b60008060008060808587031215613be857613be76137b5565b5b600085013567ffffffffffffffff811115613c0657613c056137ba565b5b613c12878288016138d7565b945050602085013567ffffffffffffffff811115613c3357613c326137ba565b5b613c3f878288016138d7565b9350506040613c50878288016139d5565b925050606085013567ffffffffffffffff811115613c7157613c706137ba565b5b613c7d878288016138d7565b91505092959194509250565b600060208284031215613c9f57613c9e6137b5565b5b6000613cad84828501613a26565b91505092915050565b613cbf816139b4565b82525050565b600081519050919050565b600082825260208201905092915050565b60005b83811015613cff578082015181840152602081019050613ce4565b83811115613d0e576000848401525b50505050565b6000613d1f82613cc5565b613d298185613cd0565b9350613d39818560208601613ce1565b613d42816137c9565b840191505092915050565b7f4e487b7100000000000000000000000000000000000000000000000000000000600052602160045260246000fd5b60068110613d8d57613d8c613d4d565b5b50565b6000819050613d9e82613d7c565b919050565b6000613dae82613d90565b9050919050565b613dbe81613da3565b82525050565b613dcd8161396e565b82525050565b600060e083016000830151613deb6000860182613cb6565b5060208301518482036020860152613e038282613d14565b91505060408301518482036040860152613e1d8282613d14565b9150506060830151613e326060860182613db5565b5060808301518482036080860152613e4a8282613d14565b91505060a0830151613e5f60a0860182613dc4565b5060c0830151613e7260c0860182613dc4565b508091505092915050565b60006020820190508181036000830152613e978184613dd3565b905092915050565b600060208284031215613eb557613eb46137b5565b5b6000613ec3848285016139d5565b91505092915050565b613ed5816139b4565b82525050565b600082825260208201905092915050565b6000613ef782613cc5565b613f018185613edb565b9350613f11818560208601613ce1565b613f1a816137c9565b840191505092915050565b613f2e81613da3565b82525050565b600060e082019050613f49600083018a613ecc565b8181036020830152613f5b8189613eec565b90508181036040830152613f6f8188613eec565b9050613f7e6060830187613f25565b8181036080830152613f908186613eec565b9050613f9f60a0830185613980565b613fac60c0830184613980565b98975050505050505050565b60048110613fc957613fc8613d4d565b5b50565b6000819050613fda82613fb8565b919050565b6000613fea82613fcc565b9050919050565b613ffa81613fdf565b82525050565b600060e0830160008301516140186000860182613cb6565b50602083015184820360208601526140308282613d14565b9150506040830151848203604086015261404a8282613d14565b915050606083015184820360608601526140648282613d14565b9150506080830151848203608086015261407e8282613d14565b91505060a083015161409360a0860182613ff1565b5060c08301516140a660c0860182613dc4565b508091505092915050565b600060208201905081810360008301526140cb8184614000565b905092915050565b600081519050919050565b600082825260208201905092915050565b6000819050602082019050919050565b600060e0830160008301516141176000860182613cb6565b506020830151848203602086015261412f8282613d14565b915050604083015184820360408601526141498282613d14565b915050606083015161415e6060860182613db5565b50608083015184820360808601526141768282613d14565b91505060a083015161418b60a0860182613dc4565b5060c083015161419e60c0860182613dc4565b508091505092915050565b60006141b583836140ff565b905092915050565b6000602082019050919050565b60006141d5826140d3565b6141df81856140de565b9350836020820285016141f1856140ef565b8060005b8581101561422d578484038952815161420e85826141a9565b9450614219836141bd565b925060208a019950506001810190506141f5565b50829750879550505050505092915050565b6000602082019050818103600083015261425981846141ca565b905092915050565b6002811061427257614271613d4d565b5b50565b600081905061428382614261565b919050565b600061429382614275565b9050919050565b6142a381614288565b82525050565b600060a0820190506142be6000830188613ecc565b81810360208301526142d08187613eec565b90506142df604083018661429a565b81810360608301526142f18185613dd3565b90506143006080830184613980565b9695505050505050565b60008060408385031215614321576143206137b5565b5b600061432f858286016139d5565b925050602061434085828601613a26565b9150509250929050565b60008060008060008060c08789031215614367576143666137b5565b5b600087013567ffffffffffffffff811115614385576143846137ba565b5b61439189828a016138d7565b965050602087013567ffffffffffffffff8111156143b2576143b16137ba565b5b6143be89828a016138d7565b955050604087013567ffffffffffffffff8111156143df576143de6137ba565b5b6143eb89828a016138d7565b945050606087013567ffffffffffffffff81111561440c5761440b6137ba565b5b61441889828a016138d7565b935050608061442989828a016139d5565b92505060a061443a89828a01613a26565b9150509295509295509295565b61445081613fdf565b82525050565b600060e08201905061446b600083018a613ecc565b818103602083015261447d8189613eec565b905081810360408301526144918188613eec565b905081810360608301526144a58187613eec565b905081810360808301526144b98186613eec565b90506144c860a0830185614447565b6144d560c0830184613980565b98975050505050505050565b60006020820190506144f66000830184613ecc565b92915050565b600081519050919050565b600082825260208201905092915050565b6000819050602082019050919050565b600060e0830160008301516145406000860182613cb6565b50602083015184820360208601526145588282613d14565b915050604083015184820360408601526145728282613d14565b9150506060830151848203606086015261458c8282613d14565b915050608083015184820360808601526145a68282613d14565b91505060a08301516145bb60a0860182613ff1565b5060c08301516145ce60c0860182613dc4565b508091505092915050565b60006145e58383614528565b905092915050565b6000602082019050919050565b6000614605826144fc565b61460f8185614507565b93508360208202850161462185614518565b8060005b8581101561465d578484038952815161463e85826145d9565b9450614649836145ed565b925060208a01995050600181019050614625565b50829750879550505050505092915050565b6000602082019050818103600083015261468981846145fa565b905092915050565b600081905092915050565b60006146a782613cc5565b6146b18185614691565b93506146c1818560208601613ce1565b80840191505092915050565b60008160601b9050919050565b60006146e5826146cd565b9050919050565b60006146f7826146da565b9050919050565b61470f61470a8261396e565b6146ec565b82525050565b6000819050919050565b61473061472b826139b4565b614715565b82525050565b6000614742828661469c565b915061474e82856146fe565b60148201915061475e828461471f565b602082019150819050949350505050565b7f5468652070726f6a656374206973206e6f7420637265617465642c207468652060008201527f6f7065726174696f6e2063616e6e6f7420626520646f6e652e00000000000000602082015250565b60006147cb603983613edb565b91506147d68261476f565b604082019050919050565b600060208201905081810360008301526147fa816147be565b9050919050565b600060a0820190506148166000830188613ecc565b614823602083018761429a565b81810360408301526148358186613dd3565b90506148446060830185613f25565b6148516080830184613980565b9695505050505050565b7f4e487b7100000000000000000000000000000000000000000000000000000000600052601160045260246000fd5b6000614895826139b4565b91507fffffffffffffffffffffffffffffffffffffffffffffffffffffffffffffffff8214156148c8576148c761485b565b5b600182019050919050565b7f4e487b7100000000000000000000000000000000000000000000000000000000600052602260045260246000fd5b6000600282049050600182168061491a57607f821691505b6020821081141561492e5761492d6148d3565b5b50919050565b7f4e487b7100000000000000000000000000000000000000000000000000000000600052603260045260246000fd5b7f596f7520617265206e6f7420616e206f776e6572000000000000000000000000600082015250565b6000614999601483613edb565b91506149a482614963565b602082019050919050565b600060208201905081810360008301526149c88161498c565b9050919050565b60006149db828461469c565b915081905092915050565b60006060820190508181036000830152614a008186613eec565b90508181036020830152614a148185613eec565b90508181036040830152614a288184613eec565b9050949350505050565b7f5468652070726f6a656374206973206e6f7420696e2074686520274265666f7260008201527f6546696e616c697a6174696f6e436865636b27207374617475732c207468652060208201527f6f7065726174696f6e2063616e6e6f7420626520646f6e652e00000000000000604082015250565b6000614ab4605983613edb565b9150614abf82614a32565b606082019050919050565b60006020820190508181036000830152614ae381614aa7565b9050919050565b7f5468652070726f6a656374206973206e6f7420617070726f7665642c2074686560008201527f206f7065726174696f6e2063616e6e6f7420626520646f6e652e000000000000602082015250565b6000614b46603a83613edb565b9150614b5182614aea565b604082019050919050565b60006020820190508181036000830152614b7581614b39565b905091905056fea264697066735822122051a91daeda1a0b6be4fb6e40272e0865cd273ced5e77cab68d3ee9ecbda5b3ed64736f6c634300080a0033",
  "immutableReferences": {},
  "source": "// SPDX-License-Identifier: MIT\r\npragma solidity >=0.8.0 <0.9.0;\r\n\r\nimport \"./UserChain.sol\";\r\n\r\ncontract ProjectChain is UserChain {\r\n    string constant HASH_STRING_VALUE = \"csd?S@salas;dlA234_D.;s_as\";\r\n    address _projectInitiator;\r\n\r\n    constructor() {\r\n        _projectInitiator = msg.sender;\r\n    }\r\n\r\n    // Project Contract Data\r\n    mapping(address => Project) public projects;\r\n    uint public projectsCounter = 0;\r\n    Project[] public allProjects;\r\n\r\n    event ProjectEvent(\r\n        uint _index,\r\n        string _name,\r\n        string _description,\r\n        ProjectStatus _status,\r\n        string _ipfsFileCID,\r\n        address _projectAddress,\r\n        address _projectInitiator\r\n    );\r\n    struct Project {\r\n        uint _index;\r\n        string _name;\r\n        string _description;\r\n        ProjectStatus _status;\r\n        string _ipfsFileCID;\r\n        address _projectAddress;\r\n        address _projectInitiator;\r\n    }\r\n\r\n    event ProjectStatusEvent();\r\n    struct ProjectRequest {\r\n        uint _index;\r\n        string _name;\r\n        string _description;\r\n        string _comments;\r\n        ProjectStatus _status;\r\n        ProjectRequestStatus _requestStatus;\r\n        string _ipfsFileCID;\r\n        address _projectAddress;\r\n        address _projectInitiator;\r\n        string signature;\r\n    }\r\n\r\n\r\n    enum ProjectRequestStatus { UnApproved, Rejected, Approved }\r\n    enum RequestStatus { Unverified, Verified }\r\n    enum ProjectStatus { Created, Approved, Rejected, OnGoing, FinalizationCheck, Completed }\r\n\r\n    //event ProjectStatusChanged(uint256 index, ProjectStatus indexed status, address indexed projectAddress);\r\n    //event CreateProject(uint _indexProject, Project.ProjectStatus _projectStatus, address _address);\r\n\r\n    modifier onlyProjectInitiator {\r\n        require(users[_projectInitiator]._role == Roles.ProjectInitiator, \"You don't have the rights for this resources.\");\r\n        require(_projectInitiator == msg.sender, \"You are not a project initiator\");\r\n        _;\r\n    }\r\n\r\n    function createProject(string memory _name, string memory _description, uint _status, string memory _ipfsFileCID) public  {\r\n        address _projectAddress = createUniqueHexAddress(HASH_STRING_VALUE);\r\n\r\n        projects[_projectAddress]._index = projectsCounter;\r\n        projects[_projectAddress]._name = _name;\r\n        projects[_projectAddress]._description = _description;\r\n        projects[_projectAddress]._status = ProjectStatus(_status);\r\n        projects[_projectAddress]._ipfsFileCID = _ipfsFileCID;\r\n        projects[_projectAddress]._projectAddress = _projectAddress;\r\n        projects[_projectAddress]._projectInitiator = _projectInitiator;\r\n\r\n        emit ProjectEvent(projectsCounter, _name, _description, ProjectStatus(_status), _ipfsFileCID, _projectAddress, _projectInitiator);\r\n        allProjects.push(Project(projectsCounter, _name, _description, ProjectStatus(_status), _ipfsFileCID, _projectAddress, _projectInitiator));\r\n        projectsCounter++;\r\n    }\r\n\r\n    function getProjectInfo(address _address) external view returns (Project memory) {\r\n        return projects[_address];\r\n    }\r\n\r\n    function getAllProjects() public view returns(Project[] memory) {\r\n        return allProjects;\r\n    }\r\n\r\n    function createUniqueHexAddress(string memory _text) public view returns (address) {\r\n        return address(uint160(uint256(keccak256(abi.encodePacked(_text, _projectInitiator, block.timestamp)))));\r\n    }\r\n\r\n\r\n\r\n    // function changeProjectStatus(uint _status, address _address) public {\r\n    //     projectsStatus[statusChangedIndex]._index = statusChangedIndex;\r\n    //     projectsStatus[statusChangedIndex]._status = ProjectStatus(_status);\r\n    //     projectsStatus[statusChangedIndex]._address = _address;\r\n    //     emit ProjectStatusChanged(statusChangedIndex, ProjectStatus(_status), _address);\r\n    //     statusChangedIndex++;\r\n    // }\r\n\r\n\r\n    struct Request {\r\n        uint index;\r\n        string description;\r\n        RequestStatus status;\r\n        Project project;\r\n        address subjectAddress;\r\n    }\r\n\r\n    mapping(uint => Request) public companyRequests;\r\n    mapping(uint => Request) public supervisorRequests;\r\n\r\n    //uint public projectsCount = 0;\r\n    //uint[] public projectIds;\r\n\r\n\r\n    uint indexCompanyRequest;\r\n    uint indexSupervisorRequest;\r\n\r\n    event UpdateSupervisorRequestStatus(uint _indexRequest, RequestStatus _status, Project _project, ProjectStatus _projectStatus, address _subjectAddress);\r\n    event UpdateCompanyRequestStatus(uint _indexRequest, RequestStatus _status, Project _project, ProjectStatus _projectStatus, address _subjectAddress);\r\n\r\n\r\n    function requestProjectApprovalFromSupervisor(string memory _description, Project memory _project, address _subjectAddress) public {\r\n        require(_project._status == ProjectStatus.Created, \"The project is not created, the operation cannot be done.\");\r\n\r\n        Request storage request = supervisorRequests[indexSupervisorRequest];\r\n        request.description = _description;\r\n        request.status = RequestStatus.Unverified;\r\n        request.project = _project;\r\n        request.subjectAddress = _subjectAddress;\r\n\r\n        emit UpdateSupervisorRequestStatus(indexSupervisorRequest, RequestStatus.Unverified, _project, _project._status, _subjectAddress);\r\n        indexSupervisorRequest++;\r\n    }\r\n\r\n    function requestProjectCompleteFromSupervisor(string memory _description, Project memory _project, address _subjectAddress) public {\r\n        require(\r\n            _project._status == ProjectStatus.FinalizationCheck,\r\n            \"The project is not in the 'BeforeFinalizationCheck' status, the operation cannot be done.\"\r\n        );\r\n\r\n        Request storage request = supervisorRequests[indexSupervisorRequest];\r\n        request.description = _description;\r\n        request.status = RequestStatus.Unverified;\r\n        request.project = _project;\r\n        request.subjectAddress = _subjectAddress;\r\n\r\n        emit UpdateSupervisorRequestStatus(indexSupervisorRequest, RequestStatus.Unverified, _project, _project._status, _subjectAddress);\r\n        indexSupervisorRequest++;\r\n    }\r\n\r\n    function requestStartProjectToCompanyBuilder(string memory _description, Project memory _project, address _subjectAddress) public {\r\n        require(_project._status == ProjectStatus.Approved, \"The project is not approved, the operation cannot be done.\");\r\n\r\n        Request storage request = companyRequests[indexCompanyRequest];\r\n        request.description = _description;\r\n        request.status = RequestStatus.Unverified;\r\n        request.project = _project;\r\n        request.subjectAddress = _subjectAddress;\r\n\r\n        emit UpdateCompanyRequestStatus(indexCompanyRequest, RequestStatus.Unverified, _project, _project._status, _subjectAddress);\r\n        indexCompanyRequest++;\r\n    }\r\n}\r\n",
  "sourcePath": "/mnt/c/users/beniamin/source/repos/dissertationproject/contracts/ProjectChain.sol",
  "compiler": {
    "name": "solc",
    "version": "0.8.10+commit.fc410830.Emscripten.clang"
  },
  "schemaVersion": "3.4.3",
  "updatedAt": "2021-11-19T20:23:41.975Z",
  "devdoc": {
    "kind": "dev",
    "methods": {},
    "version": 1
  },
  "userdoc": {
    "kind": "user",
    "methods": {},
    "version": 1
  }
}