{
  "contractName": "Project",
  "abi": [
    {
      "inputs": [],
      "stateMutability": "nonpayable",
      "type": "constructor"
    },
    {
      "anonymous": false,
      "inputs": [
        {
          "indexed": false,
          "internalType": "string",
          "name": "_name",
          "type": "string"
        },
        {
          "indexed": false,
          "internalType": "string",
          "name": "_description",
          "type": "string"
        },
        {
          "indexed": false,
          "internalType": "enum Project.ProjectStatus",
          "name": "_status",
          "type": "uint8"
        }
      ],
      "name": "CreateProject",
      "type": "event"
    },
    {
      "anonymous": false,
      "inputs": [
        {
          "indexed": false,
          "internalType": "uint256",
          "name": "index",
          "type": "uint256"
        },
        {
          "indexed": true,
          "internalType": "enum Project.ProjectStatus",
          "name": "status",
          "type": "uint8"
        },
        {
          "indexed": true,
          "internalType": "address",
          "name": "projectAddress",
          "type": "address"
        }
      ],
      "name": "ProjectStatusChanged",
      "type": "event"
    },
    {
      "anonymous": false,
      "inputs": [
        {
          "indexed": false,
          "internalType": "uint256",
          "name": "_indexRequest",
          "type": "uint256"
        },
        {
          "indexed": false,
          "internalType": "enum Project.RequestStatus",
          "name": "_status",
          "type": "uint8"
        },
        {
          "components": [
            {
              "internalType": "uint256",
              "name": "index",
              "type": "uint256"
            },
            {
              "internalType": "string",
              "name": "name",
              "type": "string"
            },
            {
              "internalType": "string",
              "name": "description",
              "type": "string"
            },
            {
              "internalType": "enum Project.ProjectStatus",
              "name": "projectStatus",
              "type": "uint8"
            },
            {
              "internalType": "string",
              "name": "ipfsFileCID",
              "type": "string"
            }
          ],
          "indexed": false,
          "internalType": "struct Project.S_Project",
          "name": "_project",
          "type": "tuple"
        },
        {
          "indexed": false,
          "internalType": "enum Project.ProjectStatus",
          "name": "_projectStatus",
          "type": "uint8"
        },
        {
          "indexed": false,
          "internalType": "address",
          "name": "_subjectAddress",
          "type": "address"
        }
      ],
      "name": "UpdateCompanyRequestStatus",
      "type": "event"
    },
    {
      "anonymous": false,
      "inputs": [
        {
          "indexed": false,
          "internalType": "uint256",
          "name": "_indexRequest",
          "type": "uint256"
        },
        {
          "indexed": false,
          "internalType": "enum Project.RequestStatus",
          "name": "_status",
          "type": "uint8"
        },
        {
          "components": [
            {
              "internalType": "uint256",
              "name": "index",
              "type": "uint256"
            },
            {
              "internalType": "string",
              "name": "name",
              "type": "string"
            },
            {
              "internalType": "string",
              "name": "description",
              "type": "string"
            },
            {
              "internalType": "enum Project.ProjectStatus",
              "name": "projectStatus",
              "type": "uint8"
            },
            {
              "internalType": "string",
              "name": "ipfsFileCID",
              "type": "string"
            }
          ],
          "indexed": false,
          "internalType": "struct Project.S_Project",
          "name": "_project",
          "type": "tuple"
        },
        {
          "indexed": false,
          "internalType": "enum Project.ProjectStatus",
          "name": "_projectStatus",
          "type": "uint8"
        },
        {
          "indexed": false,
          "internalType": "address",
          "name": "_subjectAddress",
          "type": "address"
        }
      ],
      "name": "UpdateSupervisorRequestStatus",
      "type": "event"
    },
    {
      "anonymous": false,
      "inputs": [
        {
          "indexed": false,
          "internalType": "string",
          "name": "username",
          "type": "string"
        },
        {
          "indexed": false,
          "internalType": "string",
          "name": "firstname",
          "type": "string"
        },
        {
          "indexed": false,
          "internalType": "string",
          "name": "lastname",
          "type": "string"
        },
        {
          "indexed": false,
          "internalType": "string",
          "name": "email",
          "type": "string"
        },
        {
          "indexed": false,
          "internalType": "enum User.Roles",
          "name": "role",
          "type": "uint8"
        },
        {
          "indexed": false,
          "internalType": "address",
          "name": "walletAddress",
          "type": "address"
        }
      ],
      "name": "UserChanges",
      "type": "event"
    },
    {
      "anonymous": false,
      "inputs": [
        {
          "indexed": true,
          "internalType": "address",
          "name": "_walletAddress",
          "type": "address"
        },
        {
          "indexed": true,
          "internalType": "string",
          "name": "_username",
          "type": "string"
        },
        {
          "indexed": false,
          "internalType": "string",
          "name": "_email",
          "type": "string"
        },
        {
          "indexed": false,
          "internalType": "string",
          "name": "_firstname",
          "type": "string"
        },
        {
          "indexed": false,
          "internalType": "string",
          "name": "_lastname",
          "type": "string"
        },
        {
          "indexed": true,
          "internalType": "enum User.Roles",
          "name": "_role",
          "type": "uint8"
        }
      ],
      "name": "UserRegistered",
      "type": "event"
    },
    {
      "inputs": [
        {
          "internalType": "uint256",
          "name": "",
          "type": "uint256"
        }
      ],
      "name": "allProjects",
      "outputs": [
        {
          "internalType": "uint256",
          "name": "index",
          "type": "uint256"
        },
        {
          "internalType": "string",
          "name": "name",
          "type": "string"
        },
        {
          "internalType": "string",
          "name": "description",
          "type": "string"
        },
        {
          "internalType": "enum Project.ProjectStatus",
          "name": "projectStatus",
          "type": "uint8"
        },
        {
          "internalType": "string",
          "name": "ipfsFileCID",
          "type": "string"
        }
      ],
      "stateMutability": "view",
      "type": "function"
    },
    {
      "inputs": [
        {
          "internalType": "uint256",
          "name": "",
          "type": "uint256"
        }
      ],
      "name": "allUsers",
      "outputs": [
        {
          "internalType": "string",
          "name": "username",
          "type": "string"
        },
        {
          "internalType": "string",
          "name": "email",
          "type": "string"
        },
        {
          "internalType": "string",
          "name": "firstname",
          "type": "string"
        },
        {
          "internalType": "string",
          "name": "lastname",
          "type": "string"
        },
        {
          "internalType": "enum User.Roles",
          "name": "role",
          "type": "uint8"
        },
        {
          "internalType": "address",
          "name": "walletAddress",
          "type": "address"
        }
      ],
      "stateMutability": "view",
      "type": "function"
    },
    {
      "inputs": [
        {
          "internalType": "uint256",
          "name": "_role",
          "type": "uint256"
        },
        {
          "internalType": "address",
          "name": "_walletAddress",
          "type": "address"
        }
      ],
      "name": "changeUserRole",
      "outputs": [],
      "stateMutability": "nonpayable",
      "type": "function"
    },
    {
      "inputs": [
        {
          "internalType": "uint256",
          "name": "",
          "type": "uint256"
        }
      ],
      "name": "companyRequests",
      "outputs": [
        {
          "internalType": "uint256",
          "name": "index",
          "type": "uint256"
        },
        {
          "internalType": "string",
          "name": "description",
          "type": "string"
        },
        {
          "internalType": "enum Project.RequestStatus",
          "name": "status",
          "type": "uint8"
        },
        {
          "components": [
            {
              "internalType": "uint256",
              "name": "index",
              "type": "uint256"
            },
            {
              "internalType": "string",
              "name": "name",
              "type": "string"
            },
            {
              "internalType": "string",
              "name": "description",
              "type": "string"
            },
            {
              "internalType": "enum Project.ProjectStatus",
              "name": "projectStatus",
              "type": "uint8"
            },
            {
              "internalType": "string",
              "name": "ipfsFileCID",
              "type": "string"
            }
          ],
          "internalType": "struct Project.S_Project",
          "name": "project",
          "type": "tuple"
        },
        {
          "internalType": "address",
          "name": "subjectAddress",
          "type": "address"
        }
      ],
      "stateMutability": "view",
      "type": "function"
    },
    {
      "inputs": [],
      "name": "getAllUsers",
      "outputs": [
        {
          "components": [
            {
              "internalType": "string",
              "name": "username",
              "type": "string"
            },
            {
              "internalType": "string",
              "name": "email",
              "type": "string"
            },
            {
              "internalType": "string",
              "name": "firstname",
              "type": "string"
            },
            {
              "internalType": "string",
              "name": "lastname",
              "type": "string"
            },
            {
              "internalType": "enum User.Roles",
              "name": "role",
              "type": "uint8"
            },
            {
              "internalType": "address",
              "name": "walletAddress",
              "type": "address"
            }
          ],
          "internalType": "struct User.S_UserData[]",
          "name": "",
          "type": "tuple[]"
        }
      ],
      "stateMutability": "view",
      "type": "function"
    },
    {
      "inputs": [
        {
          "internalType": "address",
          "name": "_address",
          "type": "address"
        }
      ],
      "name": "getUserInfo",
      "outputs": [
        {
          "components": [
            {
              "internalType": "string",
              "name": "username",
              "type": "string"
            },
            {
              "internalType": "string",
              "name": "email",
              "type": "string"
            },
            {
              "internalType": "string",
              "name": "firstname",
              "type": "string"
            },
            {
              "internalType": "string",
              "name": "lastname",
              "type": "string"
            },
            {
              "internalType": "enum User.Roles",
              "name": "role",
              "type": "uint8"
            },
            {
              "internalType": "address",
              "name": "walletAddress",
              "type": "address"
            }
          ],
          "internalType": "struct User.S_UserData",
          "name": "",
          "type": "tuple"
        }
      ],
      "stateMutability": "view",
      "type": "function"
    },
    {
      "inputs": [],
      "name": "owner",
      "outputs": [
        {
          "internalType": "address",
          "name": "",
          "type": "address"
        }
      ],
      "stateMutability": "view",
      "type": "function"
    },
    {
      "inputs": [
        {
          "internalType": "uint256",
          "name": "",
          "type": "uint256"
        }
      ],
      "name": "projectIds",
      "outputs": [
        {
          "internalType": "uint256",
          "name": "",
          "type": "uint256"
        }
      ],
      "stateMutability": "view",
      "type": "function"
    },
    {
      "inputs": [
        {
          "internalType": "uint256",
          "name": "",
          "type": "uint256"
        }
      ],
      "name": "projects",
      "outputs": [
        {
          "internalType": "uint256",
          "name": "index",
          "type": "uint256"
        },
        {
          "internalType": "string",
          "name": "name",
          "type": "string"
        },
        {
          "internalType": "string",
          "name": "description",
          "type": "string"
        },
        {
          "internalType": "enum Project.ProjectStatus",
          "name": "projectStatus",
          "type": "uint8"
        },
        {
          "internalType": "string",
          "name": "ipfsFileCID",
          "type": "string"
        }
      ],
      "stateMutability": "view",
      "type": "function"
    },
    {
      "inputs": [],
      "name": "projectsCount",
      "outputs": [
        {
          "internalType": "uint256",
          "name": "",
          "type": "uint256"
        }
      ],
      "stateMutability": "view",
      "type": "function"
    },
    {
      "inputs": [
        {
          "internalType": "string",
          "name": "_username",
          "type": "string"
        },
        {
          "internalType": "string",
          "name": "_email",
          "type": "string"
        },
        {
          "internalType": "string",
          "name": "_firstname",
          "type": "string"
        },
        {
          "internalType": "string",
          "name": "_lastname",
          "type": "string"
        },
        {
          "internalType": "uint256",
          "name": "_role",
          "type": "uint256"
        },
        {
          "internalType": "address",
          "name": "_walletAddress",
          "type": "address"
        }
      ],
      "name": "registerUser",
      "outputs": [],
      "stateMutability": "nonpayable",
      "type": "function"
    },
    {
      "inputs": [
        {
          "internalType": "uint256",
          "name": "",
          "type": "uint256"
        }
      ],
      "name": "supervisorRequests",
      "outputs": [
        {
          "internalType": "uint256",
          "name": "index",
          "type": "uint256"
        },
        {
          "internalType": "string",
          "name": "description",
          "type": "string"
        },
        {
          "internalType": "enum Project.RequestStatus",
          "name": "status",
          "type": "uint8"
        },
        {
          "components": [
            {
              "internalType": "uint256",
              "name": "index",
              "type": "uint256"
            },
            {
              "internalType": "string",
              "name": "name",
              "type": "string"
            },
            {
              "internalType": "string",
              "name": "description",
              "type": "string"
            },
            {
              "internalType": "enum Project.ProjectStatus",
              "name": "projectStatus",
              "type": "uint8"
            },
            {
              "internalType": "string",
              "name": "ipfsFileCID",
              "type": "string"
            }
          ],
          "internalType": "struct Project.S_Project",
          "name": "project",
          "type": "tuple"
        },
        {
          "internalType": "address",
          "name": "subjectAddress",
          "type": "address"
        }
      ],
      "stateMutability": "view",
      "type": "function"
    },
    {
      "inputs": [
        {
          "internalType": "address",
          "name": "",
          "type": "address"
        }
      ],
      "name": "userInfo",
      "outputs": [
        {
          "internalType": "string",
          "name": "username",
          "type": "string"
        },
        {
          "internalType": "string",
          "name": "email",
          "type": "string"
        },
        {
          "internalType": "string",
          "name": "firstname",
          "type": "string"
        },
        {
          "internalType": "string",
          "name": "lastname",
          "type": "string"
        },
        {
          "internalType": "enum User.Roles",
          "name": "role",
          "type": "uint8"
        },
        {
          "internalType": "address",
          "name": "walletAddress",
          "type": "address"
        }
      ],
      "stateMutability": "view",
      "type": "function"
    },
    {
      "inputs": [],
      "name": "usersCount",
      "outputs": [
        {
          "internalType": "uint256",
          "name": "",
          "type": "uint256"
        }
      ],
      "stateMutability": "view",
      "type": "function"
    },
    {
      "inputs": [
        {
          "internalType": "string",
          "name": "_name",
          "type": "string"
        },
        {
          "internalType": "string",
          "name": "_description",
          "type": "string"
        },
        {
          "internalType": "uint256",
          "name": "_status",
          "type": "uint256"
        },
        {
          "internalType": "string",
          "name": "_ipfsFileCID",
          "type": "string"
        }
      ],
      "name": "createProject",
      "outputs": [],
      "stateMutability": "nonpayable",
      "type": "function"
    },
    {
      "inputs": [
        {
          "internalType": "uint256",
          "name": "_index",
          "type": "uint256"
        }
      ],
      "name": "getProjectInfo",
      "outputs": [
        {
          "components": [
            {
              "internalType": "uint256",
              "name": "index",
              "type": "uint256"
            },
            {
              "internalType": "string",
              "name": "name",
              "type": "string"
            },
            {
              "internalType": "string",
              "name": "description",
              "type": "string"
            },
            {
              "internalType": "enum Project.ProjectStatus",
              "name": "projectStatus",
              "type": "uint8"
            },
            {
              "internalType": "string",
              "name": "ipfsFileCID",
              "type": "string"
            }
          ],
          "internalType": "struct Project.S_Project",
          "name": "",
          "type": "tuple"
        }
      ],
      "stateMutability": "view",
      "type": "function"
    },
    {
      "inputs": [],
      "name": "getAllProjects",
      "outputs": [
        {
          "components": [
            {
              "internalType": "uint256",
              "name": "index",
              "type": "uint256"
            },
            {
              "internalType": "string",
              "name": "name",
              "type": "string"
            },
            {
              "internalType": "string",
              "name": "description",
              "type": "string"
            },
            {
              "internalType": "enum Project.ProjectStatus",
              "name": "projectStatus",
              "type": "uint8"
            },
            {
              "internalType": "string",
              "name": "ipfsFileCID",
              "type": "string"
            }
          ],
          "internalType": "struct Project.S_Project[]",
          "name": "",
          "type": "tuple[]"
        }
      ],
      "stateMutability": "view",
      "type": "function"
    },
    {
      "inputs": [],
      "name": "getProjectIds",
      "outputs": [
        {
          "internalType": "uint256[]",
          "name": "",
          "type": "uint256[]"
        }
      ],
      "stateMutability": "view",
      "type": "function"
    },
    {
      "inputs": [
        {
          "internalType": "string",
          "name": "_text",
          "type": "string"
        },
        {
          "internalType": "address",
          "name": "_addr",
          "type": "address"
        }
      ],
      "name": "createUniqueIdentifier",
      "outputs": [
        {
          "internalType": "bytes32",
          "name": "",
          "type": "bytes32"
        }
      ],
      "stateMutability": "pure",
      "type": "function"
    },
    {
      "inputs": [
        {
          "internalType": "string",
          "name": "_text",
          "type": "string"
        },
        {
          "internalType": "address",
          "name": "_addr",
          "type": "address"
        }
      ],
      "name": "createUniqueHexAddress",
      "outputs": [
        {
          "internalType": "address",
          "name": "",
          "type": "address"
        }
      ],
      "stateMutability": "pure",
      "type": "function"
    },
    {
      "inputs": [
        {
          "internalType": "string",
          "name": "_description",
          "type": "string"
        },
        {
          "components": [
            {
              "internalType": "uint256",
              "name": "index",
              "type": "uint256"
            },
            {
              "internalType": "string",
              "name": "name",
              "type": "string"
            },
            {
              "internalType": "string",
              "name": "description",
              "type": "string"
            },
            {
              "internalType": "enum Project.ProjectStatus",
              "name": "projectStatus",
              "type": "uint8"
            },
            {
              "internalType": "string",
              "name": "ipfsFileCID",
              "type": "string"
            }
          ],
          "internalType": "struct Project.S_Project",
          "name": "_project",
          "type": "tuple"
        },
        {
          "internalType": "address",
          "name": "_subjectAddress",
          "type": "address"
        }
      ],
      "name": "requestProjectApprovalFromSupervisor",
      "outputs": [],
      "stateMutability": "nonpayable",
      "type": "function"
    },
    {
      "inputs": [
        {
          "internalType": "string",
          "name": "_description",
          "type": "string"
        },
        {
          "components": [
            {
              "internalType": "uint256",
              "name": "index",
              "type": "uint256"
            },
            {
              "internalType": "string",
              "name": "name",
              "type": "string"
            },
            {
              "internalType": "string",
              "name": "description",
              "type": "string"
            },
            {
              "internalType": "enum Project.ProjectStatus",
              "name": "projectStatus",
              "type": "uint8"
            },
            {
              "internalType": "string",
              "name": "ipfsFileCID",
              "type": "string"
            }
          ],
          "internalType": "struct Project.S_Project",
          "name": "_project",
          "type": "tuple"
        },
        {
          "internalType": "address",
          "name": "_subjectAddress",
          "type": "address"
        }
      ],
      "name": "requestProjectCompleteFromSupervisor",
      "outputs": [],
      "stateMutability": "nonpayable",
      "type": "function"
    },
    {
      "inputs": [
        {
          "internalType": "string",
          "name": "_description",
          "type": "string"
        },
        {
          "components": [
            {
              "internalType": "uint256",
              "name": "index",
              "type": "uint256"
            },
            {
              "internalType": "string",
              "name": "name",
              "type": "string"
            },
            {
              "internalType": "string",
              "name": "description",
              "type": "string"
            },
            {
              "internalType": "enum Project.ProjectStatus",
              "name": "projectStatus",
              "type": "uint8"
            },
            {
              "internalType": "string",
              "name": "ipfsFileCID",
              "type": "string"
            }
          ],
          "internalType": "struct Project.S_Project",
          "name": "_project",
          "type": "tuple"
        },
        {
          "internalType": "address",
          "name": "_subjectAddress",
          "type": "address"
        }
      ],
      "name": "requestStartProjectToCompanyBuilder",
      "outputs": [],
      "stateMutability": "nonpayable",
      "type": "function"
    }
  ],
  "bytecode": "0x60806040526000600255600060085534801561001a57600080fd5b5033600160006101000a81548173ffffffffffffffffffffffffffffffffffffffff021916908373ffffffffffffffffffffffffffffffffffffffff16021790555033600460006101000a81548173ffffffffffffffffffffffffffffffffffffffff021916908373ffffffffffffffffffffffffffffffffffffffff160217905550614494806100ac6000396000f3fe608060405234801561001057600080fd5b506004361061014d5760003560e01c80637748587f116100c3578063953dcd2a1161007c578063953dcd2a146103e7578063a2bdedf414610403578063c73b302e14610438578063d40d4a8014610456578063e2842d791461048a578063fabf5968146104a85761014d565b80637748587f1461032357806380d038291461033f5780638c86a1d71461035d5780638da5cb5b1461039157806391009786146103af578063911c29a6146103cb5761014d565b806348c35ad41161011557806348c35ad41461022557806353b3194c146102555780636132844f146102895780636386c1c7146102b95780636ba13a82146102e95780636fe3d194146103075761014d565b8063107046bd1461015257806313b4078f146101865780631959a002146101b657806329a613b5146101eb5780634657571414610209575b600080fd5b61016c60048036038101906101679190613070565b6104d8565b60405161017d9594939291906131bc565b60405180910390f35b6101a0600480360381019061019b91906133b7565b6106b3565b6040516101ad9190613422565b60405180910390f35b6101d060048036038101906101cb919061343d565b6106e9565b6040516101e2969594939291906134b2565b60405180910390f35b6101f3610972565b60405161020091906135ed565b60405180910390f35b610223600480360381019061021e919061360f565b6109ca565b005b61023f600480360381019061023a9190613070565b610c63565b60405161024c91906136ca565b60405180910390f35b61026f600480360381019061026a9190613070565b610c87565b6040516102809594939291906131bc565b60405180910390f35b6102a3600480360381019061029e91906133b7565b610e72565b6040516102b091906136fe565b60405180910390f35b6102d360048036038101906102ce919061343d565b610ea5565b6040516102e0919061381f565b60405180910390f35b6102f16111d6565b6040516102fe91906136ca565b60405180910390f35b610321600480360381019061031c9190613950565b6111dc565b005b61033d60048036038101906103389190613950565b6113e6565b005b6103476115f0565b6040516103549190613b30565b60405180910390f35b61037760048036038101906103729190613070565b61184a565b604051610388959493929190613c1e565b60405180910390f35b610399611b3a565b6040516103a69190613422565b60405180910390f35b6103c960048036038101906103c49190613c7f565b611b60565b005b6103e560048036038101906103e09190613cbf565b611cdc565b005b61040160048036038101906103fc9190613950565b6121eb565b005b61041d60048036038101906104189190613070565b6123f5565b60405161042f969594939291906134b2565b60405180910390f35b61044061268e565b60405161044d91906136ca565b60405180910390f35b610470600480360381019061046b9190613070565b612694565b604051610481959493929190613c1e565b60405180910390f35b610492612984565b60405161049f9190613f1c565b60405180910390f35b6104c260048036038101906104bd9190613070565b612cbc565b6040516104cf9190613f3e565b60405180910390f35b600560205280600052604060002060009150905080600001549080600101805461050190613f8f565b80601f016020809104026020016040519081016040528092919081815260200182805461052d90613f8f565b801561057a5780601f1061054f5761010080835404028352916020019161057a565b820191906000526020600020905b81548152906001019060200180831161055d57829003601f168201915b50505050509080600201805461058f90613f8f565b80601f01602080910402602001604051908101604052809291908181526020018280546105bb90613f8f565b80156106085780601f106105dd57610100808354040283529160200191610608565b820191906000526020600020905b8154815290600101906020018083116105eb57829003601f168201915b5050505050908060030160009054906101000a900460ff169080600401805461063090613f8f565b80601f016020809104026020016040519081016040528092919081815260200182805461065c90613f8f565b80156106a95780601f1061067e576101008083540402835291602001916106a9565b820191906000526020600020905b81548152906001019060200180831161068c57829003601f168201915b5050505050905085565b600082826040516020016106c8929190614045565b6040516020818303038152906040528051906020012060001c905092915050565b600060205280600052604060002060009150905080600001805461070c90613f8f565b80601f016020809104026020016040519081016040528092919081815260200182805461073890613f8f565b80156107855780601f1061075a57610100808354040283529160200191610785565b820191906000526020600020905b81548152906001019060200180831161076857829003601f168201915b50505050509080600101805461079a90613f8f565b80601f01602080910402602001604051908101604052809291908181526020018280546107c690613f8f565b80156108135780601f106107e857610100808354040283529160200191610813565b820191906000526020600020905b8154815290600101906020018083116107f657829003601f168201915b50505050509080600201805461082890613f8f565b80601f016020809104026020016040519081016040528092919081815260200182805461085490613f8f565b80156108a15780601f10610876576101008083540402835291602001916108a1565b820191906000526020600020905b81548152906001019060200180831161088457829003601f168201915b5050505050908060030180546108b690613f8f565b80601f01602080910402602001604051908101604052809291908181526020018280546108e290613f8f565b801561092f5780601f106109045761010080835404028352916020019161092f565b820191906000526020600020905b81548152906001019060200180831161091257829003601f168201915b5050505050908060040160009054906101000a900460ff16908060040160019054906101000a900473ffffffffffffffffffffffffffffffffffffffff16905086565b606060098054806020026020016040519081016040528092919081815260200182805480156109c057602002820191906000526020600020905b8154815260200190600101908083116109ac575b5050505050905090565b60085460056000600854815260200190815260200160002060000181905550836005600060085481526020019081526020016000206001019080519060200190610a15929190612ee4565b50826005600060085481526020019081526020016000206002019080519060200190610a42929190612ee4565b50816005811115610a5657610a55613145565b5b60056000600854815260200190815260200160002060030160006101000a81548160ff02191690836005811115610a9057610a8f613145565b5b0217905550806005600060085481526020019081526020016000206004019080519060200190610ac1929190612ee4565b507f274f009187cb91dd70ef9fd455c66e7263b5fc9746490cba15a3be400f580fa88484846005811115610af857610af7613145565b5b604051610b079392919061406d565b60405180910390a160096008549080600181540180825580915050600190039060005260206000200160009091909190915055600a6040518060a001604052806008548152602001868152602001858152602001846005811115610b6e57610b6d613145565b5b6005811115610b8057610b7f613145565b5b8152602001838152509080600181540180825580915050600190039060005260206000209060050201600090919091909150600082015181600001556020820151816001019080519060200190610bd8929190612ee4565b506040820151816002019080519060200190610bf5929190612ee4565b5060608201518160030160006101000a81548160ff02191690836005811115610c2157610c20613145565b5b02179055506080820151816004019080519060200190610c42929190612ee4565b50505060086000815480929190610c58906140e1565b919050555050505050565b60098181548110610c7357600080fd5b906000526020600020016000915090505481565b600a8181548110610c9757600080fd5b9060005260206000209060050201600091509050806000015490806001018054610cc090613f8f565b80601f0160208091040260200160405190810160405280929190818152602001828054610cec90613f8f565b8015610d395780601f10610d0e57610100808354040283529160200191610d39565b820191906000526020600020905b815481529060010190602001808311610d1c57829003601f168201915b505050505090806002018054610d4e90613f8f565b80601f0160208091040260200160405190810160405280929190818152602001828054610d7a90613f8f565b8015610dc75780601f10610d9c57610100808354040283529160200191610dc7565b820191906000526020600020905b815481529060010190602001808311610daa57829003601f168201915b5050505050908060030160009054906101000a900460ff1690806004018054610def90613f8f565b80601f0160208091040260200160405190810160405280929190818152602001828054610e1b90613f8f565b8015610e685780601f10610e3d57610100808354040283529160200191610e68565b820191906000526020600020905b815481529060010190602001808311610e4b57829003601f168201915b5050505050905085565b60008282604051602001610e87929190614045565b60405160208183030381529060405280519060200120905092915050565b610ead612f6a565b6000808373ffffffffffffffffffffffffffffffffffffffff1673ffffffffffffffffffffffffffffffffffffffff1681526020019081526020016000206040518060c0016040529081600082018054610f0690613f8f565b80601f0160208091040260200160405190810160405280929190818152602001828054610f3290613f8f565b8015610f7f5780601f10610f5457610100808354040283529160200191610f7f565b820191906000526020600020905b815481529060010190602001808311610f6257829003601f168201915b50505050508152602001600182018054610f9890613f8f565b80601f0160208091040260200160405190810160405280929190818152602001828054610fc490613f8f565b80156110115780601f10610fe657610100808354040283529160200191611011565b820191906000526020600020905b815481529060010190602001808311610ff457829003601f168201915b5050505050815260200160028201805461102a90613f8f565b80601f016020809104026020016040519081016040528092919081815260200182805461105690613f8f565b80156110a35780601f10611078576101008083540402835291602001916110a3565b820191906000526020600020905b81548152906001019060200180831161108657829003601f168201915b505050505081526020016003820180546110bc90613f8f565b80601f01602080910402602001604051908101604052809291908181526020018280546110e890613f8f565b80156111355780601f1061110a57610100808354040283529160200191611135565b820191906000526020600020905b81548152906001019060200180831161111857829003601f168201915b505050505081526020016004820160009054906101000a900460ff16600381111561116357611162613145565b5b600381111561117557611174613145565b5b81526020016004820160019054906101000a900473ffffffffffffffffffffffffffffffffffffffff1673ffffffffffffffffffffffffffffffffffffffff1673ffffffffffffffffffffffffffffffffffffffff16815250509050919050565b60025481565b600460058111156111f0576111ef613145565b5b8260600151600581111561120757611206613145565b5b14611247576040517f08c379a000000000000000000000000000000000000000000000000000000000815260040161123e906141c2565b60405180910390fd5b600060076000600c548152602001908152602001600020905083816001019080519060200190611278929190612ee4565b5060008160020160006101000a81548160ff021916908360018111156112a1576112a0613145565b5b021790555082816003016000820151816000015560208201518160010190805190602001906112d1929190612ee4565b5060408201518160020190805190602001906112ee929190612ee4565b5060608201518160030160006101000a81548160ff0219169083600581111561131a57611319613145565b5b0217905550608082015181600401908051906020019061133b929190612ee4565b50905050818160080160006101000a81548173ffffffffffffffffffffffffffffffffffffffff021916908373ffffffffffffffffffffffffffffffffffffffff1602179055507fc0a7086e05590c8d9160aba8dc6a29b754eda15e93d2a2578429bc2fda6bdec3600c546000858660600151866040516113c09594939291906141e2565b60405180910390a1600c60008154809291906113db906140e1565b919050555050505050565b600060058111156113fa576113f9613145565b5b8260600151600581111561141157611410613145565b5b14611451576040517f08c379a0000000000000000000000000000000000000000000000000000000008152600401611448906142ae565b60405180910390fd5b600060076000600c548152602001908152602001600020905083816001019080519060200190611482929190612ee4565b5060008160020160006101000a81548160ff021916908360018111156114ab576114aa613145565b5b021790555082816003016000820151816000015560208201518160010190805190602001906114db929190612ee4565b5060408201518160020190805190602001906114f8929190612ee4565b5060608201518160030160006101000a81548160ff0219169083600581111561152457611523613145565b5b02179055506080820151816004019080519060200190611545929190612ee4565b50905050818160080160006101000a81548173ffffffffffffffffffffffffffffffffffffffff021916908373ffffffffffffffffffffffffffffffffffffffff1602179055507fc0a7086e05590c8d9160aba8dc6a29b754eda15e93d2a2578429bc2fda6bdec3600c546000858660600151866040516115ca9594939291906141e2565b60405180910390a1600c60008154809291906115e5906140e1565b919050555050505050565b6060600a805480602002602001604051908101604052809291908181526020016000905b8282101561184157838290600052602060002090600502016040518060a00160405290816000820154815260200160018201805461165190613f8f565b80601f016020809104026020016040519081016040528092919081815260200182805461167d90613f8f565b80156116ca5780601f1061169f576101008083540402835291602001916116ca565b820191906000526020600020905b8154815290600101906020018083116116ad57829003601f168201915b505050505081526020016002820180546116e390613f8f565b80601f016020809104026020016040519081016040528092919081815260200182805461170f90613f8f565b801561175c5780601f106117315761010080835404028352916020019161175c565b820191906000526020600020905b81548152906001019060200180831161173f57829003601f168201915b505050505081526020016003820160009054906101000a900460ff16600581111561178a57611789613145565b5b600581111561179c5761179b613145565b5b81526020016004820180546117b090613f8f565b80601f01602080910402602001604051908101604052809291908181526020018280546117dc90613f8f565b80156118295780601f106117fe57610100808354040283529160200191611829565b820191906000526020600020905b81548152906001019060200180831161180c57829003601f168201915b50505050508152505081526020019060010190611614565b50505050905090565b600760205280600052604060002060009150905080600001549080600101805461187390613f8f565b80601f016020809104026020016040519081016040528092919081815260200182805461189f90613f8f565b80156118ec5780601f106118c1576101008083540402835291602001916118ec565b820191906000526020600020905b8154815290600101906020018083116118cf57829003601f168201915b5050505050908060020160009054906101000a900460ff1690806003016040518060a00160405290816000820154815260200160018201805461192e90613f8f565b80601f016020809104026020016040519081016040528092919081815260200182805461195a90613f8f565b80156119a75780601f1061197c576101008083540402835291602001916119a7565b820191906000526020600020905b81548152906001019060200180831161198a57829003601f168201915b505050505081526020016002820180546119c090613f8f565b80601f01602080910402602001604051908101604052809291908181526020018280546119ec90613f8f565b8015611a395780601f10611a0e57610100808354040283529160200191611a39565b820191906000526020600020905b815481529060010190602001808311611a1c57829003601f168201915b505050505081526020016003820160009054906101000a900460ff166005811115611a6757611a66613145565b5b6005811115611a7957611a78613145565b5b8152602001600482018054611a8d90613f8f565b80601f0160208091040260200160405190810160405280929190818152602001828054611ab990613f8f565b8015611b065780601f10611adb57610100808354040283529160200191611b06565b820191906000526020600020905b815481529060010190602001808311611ae957829003601f168201915b505050505081525050908060080160009054906101000a900473ffffffffffffffffffffffffffffffffffffffff16905085565b600160009054906101000a900473ffffffffffffffffffffffffffffffffffffffff1681565b816003811115611b7357611b72613145565b5b6000808373ffffffffffffffffffffffffffffffffffffffff1673ffffffffffffffffffffffffffffffffffffffff16815260200190815260200160002060040160006101000a81548160ff02191690836003811115611bd657611bd5613145565b5b021790555060005b600380549050811015611cd7578173ffffffffffffffffffffffffffffffffffffffff1660038281548110611c1657611c156142ce565b5b906000526020600020906005020160040160019054906101000a900473ffffffffffffffffffffffffffffffffffffffff1673ffffffffffffffffffffffffffffffffffffffff161415611cc457826003811115611c7757611c76613145565b5b60038281548110611c8b57611c8a6142ce565b5b906000526020600020906005020160040160006101000a81548160ff02191690836003811115611cbe57611cbd613145565b5b02179055505b8080611ccf906140e1565b915050611bde565b505050565b3373ffffffffffffffffffffffffffffffffffffffff16600160009054906101000a900473ffffffffffffffffffffffffffffffffffffffff1673ffffffffffffffffffffffffffffffffffffffff1614611d6c576040517f08c379a0000000000000000000000000000000000000000000000000000000008152600401611d6390614349565b60405180910390fd5b856000808373ffffffffffffffffffffffffffffffffffffffff1673ffffffffffffffffffffffffffffffffffffffff1681526020019081526020016000206000019080519060200190611dc1929190612ee4565b50846000808373ffffffffffffffffffffffffffffffffffffffff1673ffffffffffffffffffffffffffffffffffffffff1681526020019081526020016000206001019080519060200190611e17929190612ee4565b50836000808373ffffffffffffffffffffffffffffffffffffffff1673ffffffffffffffffffffffffffffffffffffffff1681526020019081526020016000206002019080519060200190611e6d929190612ee4565b50826000808373ffffffffffffffffffffffffffffffffffffffff1673ffffffffffffffffffffffffffffffffffffffff1681526020019081526020016000206003019080519060200190611ec3929190612ee4565b50816003811115611ed757611ed6613145565b5b6000808373ffffffffffffffffffffffffffffffffffffffff1673ffffffffffffffffffffffffffffffffffffffff16815260200190815260200160002060040160006101000a81548160ff02191690836003811115611f3a57611f39613145565b5b0217905550806000808373ffffffffffffffffffffffffffffffffffffffff1673ffffffffffffffffffffffffffffffffffffffff16815260200190815260200160002060040160016101000a81548173ffffffffffffffffffffffffffffffffffffffff021916908373ffffffffffffffffffffffffffffffffffffffff160217905550816003811115611fd257611fd1613145565b5b6003811115611fe457611fe3613145565b5b86604051611ff29190614369565b60405180910390208273ffffffffffffffffffffffffffffffffffffffff167fddb5d1667467713eb503e7e133811c91a231cb6b63f11930889c6004f36c35ee88888860405161204493929190614380565b60405180910390a460036040518060c0016040528088815260200187815260200186815260200185815260200184600381111561208457612083613145565b5b600381111561209657612095613145565b5b81526020018373ffffffffffffffffffffffffffffffffffffffff16815250908060018154018082558091505060019003906000526020600020906005020160009091909190915060008201518160000190805190602001906120fa929190612ee4565b506020820151816001019080519060200190612117929190612ee4565b506040820151816002019080519060200190612134929190612ee4565b506060820151816003019080519060200190612151929190612ee4565b5060808201518160040160006101000a81548160ff0219169083600381111561217d5761217c613145565b5b021790555060a08201518160040160016101000a81548173ffffffffffffffffffffffffffffffffffffffff021916908373ffffffffffffffffffffffffffffffffffffffff1602179055505050600260008154809291906121de906140e1565b9190505550505050505050565b600160058111156121ff576121fe613145565b5b8260600151600581111561221657612215613145565b5b14612256576040517f08c379a000000000000000000000000000000000000000000000000000000000815260040161224d9061443e565b60405180910390fd5b600060066000600b548152602001908152602001600020905083816001019080519060200190612287929190612ee4565b5060008160020160006101000a81548160ff021916908360018111156122b0576122af613145565b5b021790555082816003016000820151816000015560208201518160010190805190602001906122e0929190612ee4565b5060408201518160020190805190602001906122fd929190612ee4565b5060608201518160030160006101000a81548160ff0219169083600581111561232957612328613145565b5b0217905550608082015181600401908051906020019061234a929190612ee4565b50905050818160080160006101000a81548173ffffffffffffffffffffffffffffffffffffffff021916908373ffffffffffffffffffffffffffffffffffffffff1602179055507f56cef5b605de75dde94390e0903b843a7c7203544ad094da5db5ecdafb897cb8600b546000858660600151866040516123cf9594939291906141e2565b60405180910390a1600b60008154809291906123ea906140e1565b919050555050505050565b6003818154811061240557600080fd5b906000526020600020906005020160009150905080600001805461242890613f8f565b80601f016020809104026020016040519081016040528092919081815260200182805461245490613f8f565b80156124a15780601f10612476576101008083540402835291602001916124a1565b820191906000526020600020905b81548152906001019060200180831161248457829003601f168201915b5050505050908060010180546124b690613f8f565b80601f01602080910402602001604051908101604052809291908181526020018280546124e290613f8f565b801561252f5780601f106125045761010080835404028352916020019161252f565b820191906000526020600020905b81548152906001019060200180831161251257829003601f168201915b50505050509080600201805461254490613f8f565b80601f016020809104026020016040519081016040528092919081815260200182805461257090613f8f565b80156125bd5780601f10612592576101008083540402835291602001916125bd565b820191906000526020600020905b8154815290600101906020018083116125a057829003601f168201915b5050505050908060030180546125d290613f8f565b80601f01602080910402602001604051908101604052809291908181526020018280546125fe90613f8f565b801561264b5780601f106126205761010080835404028352916020019161264b565b820191906000526020600020905b81548152906001019060200180831161262e57829003601f168201915b5050505050908060040160009054906101000a900460ff16908060040160019054906101000a900473ffffffffffffffffffffffffffffffffffffffff16905086565b60085481565b60066020528060005260406000206000915090508060000154908060010180546126bd90613f8f565b80601f01602080910402602001604051908101604052809291908181526020018280546126e990613f8f565b80156127365780601f1061270b57610100808354040283529160200191612736565b820191906000526020600020905b81548152906001019060200180831161271957829003601f168201915b5050505050908060020160009054906101000a900460ff1690806003016040518060a00160405290816000820154815260200160018201805461277890613f8f565b80601f01602080910402602001604051908101604052809291908181526020018280546127a490613f8f565b80156127f15780601f106127c6576101008083540402835291602001916127f1565b820191906000526020600020905b8154815290600101906020018083116127d457829003601f168201915b5050505050815260200160028201805461280a90613f8f565b80601f016020809104026020016040519081016040528092919081815260200182805461283690613f8f565b80156128835780601f1061285857610100808354040283529160200191612883565b820191906000526020600020905b81548152906001019060200180831161286657829003601f168201915b505050505081526020016003820160009054906101000a900460ff1660058111156128b1576128b0613145565b5b60058111156128c3576128c2613145565b5b81526020016004820180546128d790613f8f565b80601f016020809104026020016040519081016040528092919081815260200182805461290390613f8f565b80156129505780601f1061292557610100808354040283529160200191612950565b820191906000526020600020905b81548152906001019060200180831161293357829003601f168201915b505050505081525050908060080160009054906101000a900473ffffffffffffffffffffffffffffffffffffffff16905085565b60606003805480602002602001604051908101604052809291908181526020016000905b82821015612cb357838290600052602060002090600502016040518060c00160405290816000820180546129db90613f8f565b80601f0160208091040260200160405190810160405280929190818152602001828054612a0790613f8f565b8015612a545780601f10612a2957610100808354040283529160200191612a54565b820191906000526020600020905b815481529060010190602001808311612a3757829003601f168201915b50505050508152602001600182018054612a6d90613f8f565b80601f0160208091040260200160405190810160405280929190818152602001828054612a9990613f8f565b8015612ae65780601f10612abb57610100808354040283529160200191612ae6565b820191906000526020600020905b815481529060010190602001808311612ac957829003601f168201915b50505050508152602001600282018054612aff90613f8f565b80601f0160208091040260200160405190810160405280929190818152602001828054612b2b90613f8f565b8015612b785780601f10612b4d57610100808354040283529160200191612b78565b820191906000526020600020905b815481529060010190602001808311612b5b57829003601f168201915b50505050508152602001600382018054612b9190613f8f565b80601f0160208091040260200160405190810160405280929190818152602001828054612bbd90613f8f565b8015612c0a5780601f10612bdf57610100808354040283529160200191612c0a565b820191906000526020600020905b815481529060010190602001808311612bed57829003601f168201915b505050505081526020016004820160009054906101000a900460ff166003811115612c3857612c37613145565b5b6003811115612c4a57612c49613145565b5b81526020016004820160019054906101000a900473ffffffffffffffffffffffffffffffffffffffff1673ffffffffffffffffffffffffffffffffffffffff1673ffffffffffffffffffffffffffffffffffffffff1681525050815260200190600101906129a8565b50505050905090565b612cc4612fc8565b600560008381526020019081526020016000206040518060a001604052908160008201548152602001600182018054612cfc90613f8f565b80601f0160208091040260200160405190810160405280929190818152602001828054612d2890613f8f565b8015612d755780601f10612d4a57610100808354040283529160200191612d75565b820191906000526020600020905b815481529060010190602001808311612d5857829003601f168201915b50505050508152602001600282018054612d8e90613f8f565b80601f0160208091040260200160405190810160405280929190818152602001828054612dba90613f8f565b8015612e075780601f10612ddc57610100808354040283529160200191612e07565b820191906000526020600020905b815481529060010190602001808311612dea57829003601f168201915b505050505081526020016003820160009054906101000a900460ff166005811115612e3557612e34613145565b5b6005811115612e4757612e46613145565b5b8152602001600482018054612e5b90613f8f565b80601f0160208091040260200160405190810160405280929190818152602001828054612e8790613f8f565b8015612ed45780601f10612ea957610100808354040283529160200191612ed4565b820191906000526020600020905b815481529060010190602001808311612eb757829003601f168201915b5050505050815250509050919050565b828054612ef090613f8f565b90600052602060002090601f016020900481019282612f125760008555612f59565b82601f10612f2b57805160ff1916838001178555612f59565b82800160010185558215612f59579182015b82811115612f58578251825591602001919060010190612f3d565b5b509050612f669190613009565b5090565b6040518060c001604052806060815260200160608152602001606081526020016060815260200160006003811115612fa557612fa4613145565b5b8152602001600073ffffffffffffffffffffffffffffffffffffffff1681525090565b6040518060a0016040528060008152602001606081526020016060815260200160006005811115612ffc57612ffb613145565b5b8152602001606081525090565b5b8082111561302257600081600090555060010161300a565b5090565b6000604051905090565b600080fd5b600080fd5b6000819050919050565b61304d8161303a565b811461305857600080fd5b50565b60008135905061306a81613044565b92915050565b60006020828403121561308657613085613030565b5b60006130948482850161305b565b91505092915050565b6130a68161303a565b82525050565b600081519050919050565b600082825260208201905092915050565b60005b838110156130e65780820151818401526020810190506130cb565b838111156130f5576000848401525b50505050565b6000601f19601f8301169050919050565b6000613117826130ac565b61312181856130b7565b93506131318185602086016130c8565b61313a816130fb565b840191505092915050565b7f4e487b7100000000000000000000000000000000000000000000000000000000600052602160045260246000fd5b6006811061318557613184613145565b5b50565b600081905061319682613174565b919050565b60006131a682613188565b9050919050565b6131b68161319b565b82525050565b600060a0820190506131d1600083018861309d565b81810360208301526131e3818761310c565b905081810360408301526131f7818661310c565b905061320660608301856131ad565b8181036080830152613218818461310c565b90509695505050505050565b600080fd5b600080fd5b7f4e487b7100000000000000000000000000000000000000000000000000000000600052604160045260246000fd5b613266826130fb565b810181811067ffffffffffffffff821117156132855761328461322e565b5b80604052505050565b6000613298613026565b90506132a4828261325d565b919050565b600067ffffffffffffffff8211156132c4576132c361322e565b5b6132cd826130fb565b9050602081019050919050565b82818337600083830152505050565b60006132fc6132f7846132a9565b61328e565b90508281526020810184848401111561331857613317613229565b5b6133238482856132da565b509392505050565b600082601f8301126133405761333f613224565b5b81356133508482602086016132e9565b91505092915050565b600073ffffffffffffffffffffffffffffffffffffffff82169050919050565b600061338482613359565b9050919050565b61339481613379565b811461339f57600080fd5b50565b6000813590506133b18161338b565b92915050565b600080604083850312156133ce576133cd613030565b5b600083013567ffffffffffffffff8111156133ec576133eb613035565b5b6133f88582860161332b565b9250506020613409858286016133a2565b9150509250929050565b61341c81613379565b82525050565b60006020820190506134376000830184613413565b92915050565b60006020828403121561345357613452613030565b5b6000613461848285016133a2565b91505092915050565b6004811061347b5761347a613145565b5b50565b600081905061348c8261346a565b919050565b600061349c8261347e565b9050919050565b6134ac81613491565b82525050565b600060c08201905081810360008301526134cc818961310c565b905081810360208301526134e0818861310c565b905081810360408301526134f4818761310c565b90508181036060830152613508818661310c565b905061351760808301856134a3565b61352460a0830184613413565b979650505050505050565b600081519050919050565b600082825260208201905092915050565b6000819050602082019050919050565b6135648161303a565b82525050565b6000613576838361355b565b60208301905092915050565b6000602082019050919050565b600061359a8261352f565b6135a4818561353a565b93506135af8361354b565b8060005b838110156135e05781516135c7888261356a565b97506135d283613582565b9250506001810190506135b3565b5085935050505092915050565b60006020820190508181036000830152613607818461358f565b905092915050565b6000806000806080858703121561362957613628613030565b5b600085013567ffffffffffffffff81111561364757613646613035565b5b6136538782880161332b565b945050602085013567ffffffffffffffff81111561367457613673613035565b5b6136808782880161332b565b93505060406136918782880161305b565b925050606085013567ffffffffffffffff8111156136b2576136b1613035565b5b6136be8782880161332b565b91505092959194509250565b60006020820190506136df600083018461309d565b92915050565b6000819050919050565b6136f8816136e5565b82525050565b600060208201905061371360008301846136ef565b92915050565b600082825260208201905092915050565b6000613735826130ac565b61373f8185613719565b935061374f8185602086016130c8565b613758816130fb565b840191505092915050565b61376c81613491565b82525050565b61377b81613379565b82525050565b600060c083016000830151848203600086015261379e828261372a565b915050602083015184820360208601526137b8828261372a565b915050604083015184820360408601526137d2828261372a565b915050606083015184820360608601526137ec828261372a565b91505060808301516138016080860182613763565b5060a083015161381460a0860182613772565b508091505092915050565b600060208201905081810360008301526138398184613781565b905092915050565b600080fd5b600080fd5b6006811061385857600080fd5b50565b60008135905061386a8161384b565b92915050565b600060a0828403121561388657613885613841565b5b61389060a061328e565b905060006138a08482850161305b565b600083015250602082013567ffffffffffffffff8111156138c4576138c3613846565b5b6138d08482850161332b565b602083015250604082013567ffffffffffffffff8111156138f4576138f3613846565b5b6139008482850161332b565b60408301525060606139148482850161385b565b606083015250608082013567ffffffffffffffff81111561393857613937613846565b5b6139448482850161332b565b60808301525092915050565b60008060006060848603121561396957613968613030565b5b600084013567ffffffffffffffff81111561398757613986613035565b5b6139938682870161332b565b935050602084013567ffffffffffffffff8111156139b4576139b3613035565b5b6139c086828701613870565b92505060406139d1868287016133a2565b9150509250925092565b600081519050919050565b600082825260208201905092915050565b6000819050602082019050919050565b613a108161319b565b82525050565b600060a083016000830151613a2e600086018261355b565b5060208301518482036020860152613a46828261372a565b91505060408301518482036040860152613a60828261372a565b9150506060830151613a756060860182613a07565b5060808301518482036080860152613a8d828261372a565b9150508091505092915050565b6000613aa68383613a16565b905092915050565b6000602082019050919050565b6000613ac6826139db565b613ad081856139e6565b935083602082028501613ae2856139f7565b8060005b85811015613b1e5784840389528151613aff8582613a9a565b9450613b0a83613aae565b925060208a01995050600181019050613ae6565b50829750879550505050505092915050565b60006020820190508181036000830152613b4a8184613abb565b905092915050565b60028110613b6357613b62613145565b5b50565b6000819050613b7482613b52565b919050565b6000613b8482613b66565b9050919050565b613b9481613b79565b82525050565b600060a083016000830151613bb2600086018261355b565b5060208301518482036020860152613bca828261372a565b91505060408301518482036040860152613be4828261372a565b9150506060830151613bf96060860182613a07565b5060808301518482036080860152613c11828261372a565b9150508091505092915050565b600060a082019050613c33600083018861309d565b8181036020830152613c45818761310c565b9050613c546040830186613b8b565b8181036060830152613c668185613b9a565b9050613c756080830184613413565b9695505050505050565b60008060408385031215613c9657613c95613030565b5b6000613ca48582860161305b565b9250506020613cb5858286016133a2565b9150509250929050565b60008060008060008060c08789031215613cdc57613cdb613030565b5b600087013567ffffffffffffffff811115613cfa57613cf9613035565b5b613d0689828a0161332b565b965050602087013567ffffffffffffffff811115613d2757613d26613035565b5b613d3389828a0161332b565b955050604087013567ffffffffffffffff811115613d5457613d53613035565b5b613d6089828a0161332b565b945050606087013567ffffffffffffffff811115613d8157613d80613035565b5b613d8d89828a0161332b565b9350506080613d9e89828a0161305b565b92505060a0613daf89828a016133a2565b9150509295509295509295565b600081519050919050565b600082825260208201905092915050565b6000819050602082019050919050565b600060c0830160008301518482036000860152613e05828261372a565b91505060208301518482036020860152613e1f828261372a565b91505060408301518482036040860152613e39828261372a565b91505060608301518482036060860152613e53828261372a565b9150506080830151613e686080860182613763565b5060a0830151613e7b60a0860182613772565b508091505092915050565b6000613e928383613de8565b905092915050565b6000602082019050919050565b6000613eb282613dbc565b613ebc8185613dc7565b935083602082028501613ece85613dd8565b8060005b85811015613f0a5784840389528151613eeb8582613e86565b9450613ef683613e9a565b925060208a01995050600181019050613ed2565b50829750879550505050505092915050565b60006020820190508181036000830152613f368184613ea7565b905092915050565b60006020820190508181036000830152613f588184613b9a565b905092915050565b7f4e487b7100000000000000000000000000000000000000000000000000000000600052602260045260246000fd5b60006002820490506001821680613fa757607f821691505b60208210811415613fbb57613fba613f60565b5b50919050565b600081905092915050565b6000613fd7826130ac565b613fe18185613fc1565b9350613ff18185602086016130c8565b80840191505092915050565b60008160601b9050919050565b600061401582613ffd565b9050919050565b60006140278261400a565b9050919050565b61403f61403a82613379565b61401c565b82525050565b60006140518285613fcc565b915061405d828461402e565b6014820191508190509392505050565b60006060820190508181036000830152614087818661310c565b9050818103602083015261409b818561310c565b90506140aa60408301846131ad565b949350505050565b7f4e487b7100000000000000000000000000000000000000000000000000000000600052601160045260246000fd5b60006140ec8261303a565b91507fffffffffffffffffffffffffffffffffffffffffffffffffffffffffffffffff82141561411f5761411e6140b2565b5b600182019050919050565b7f5468652070726f6a656374206973206e6f7420696e2074686520274265666f7260008201527f6546696e616c697a6174696f6e436865636b27207374617475732c207468652060208201527f6f7065726174696f6e2063616e6e6f7420626520646f6e652e00000000000000604082015250565b60006141ac6059836130b7565b91506141b78261412a565b606082019050919050565b600060208201905081810360008301526141db8161419f565b9050919050565b600060a0820190506141f7600083018861309d565b6142046020830187613b8b565b81810360408301526142168186613b9a565b905061422560608301856131ad565b6142326080830184613413565b9695505050505050565b7f5468652070726f6a656374206973206e6f7420637265617465642c207468652060008201527f6f7065726174696f6e2063616e6e6f7420626520646f6e652e00000000000000602082015250565b60006142986039836130b7565b91506142a38261423c565b604082019050919050565b600060208201905081810360008301526142c78161428b565b9050919050565b7f4e487b7100000000000000000000000000000000000000000000000000000000600052603260045260246000fd5b7f596f7520617265206e6f7420616e206f776e6572000000000000000000000000600082015250565b60006143336014836130b7565b915061433e826142fd565b602082019050919050565b6000602082019050818103600083015261436281614326565b9050919050565b60006143758284613fcc565b915081905092915050565b6000606082019050818103600083015261439a818661310c565b905081810360208301526143ae818561310c565b905081810360408301526143c2818461310c565b9050949350505050565b7f5468652070726f6a656374206973206e6f7420617070726f7665642c2074686560008201527f206f7065726174696f6e2063616e6e6f7420626520646f6e652e000000000000602082015250565b6000614428603a836130b7565b9150614433826143cc565b604082019050919050565b600060208201905081810360008301526144578161441b565b905091905056fea26469706673582212203ccad451eb60d893079926c352b554e381771348f6a41d4eb2e2255875af909164736f6c634300080a0033",
  "immutableReferences": {},
  "source": "// SPDX-License-Identifier: MIT\r\npragma solidity >=0.8.0 <0.9.0;\r\n\r\nimport \"./User.sol\";\r\n\r\ncontract Project is User {\r\n    address projectInitiator;\r\n\r\n    event ProjectStatusChanged(uint256 index, ProjectStatus indexed status, address indexed projectAddress);\r\n\r\n    mapping(uint => S_Project) public projects;\r\n    mapping(uint => S_Request) public companyRequests;\r\n    mapping(uint => S_Request) public supervisorRequests;\r\n\r\n    uint public projectsCount = 0;\r\n    uint[] public projectIds;\r\n    S_Project[] public allProjects;\r\n\r\n    uint indexCompanyRequest;\r\n    uint indexSupervisorRequest;\r\n\r\n    struct S_Project {\r\n        uint index;\r\n        string name;\r\n        string description;\r\n        ProjectStatus projectStatus;\r\n        string ipfsFileCID;\r\n    }\r\n\r\n    struct S_Request {\r\n        uint index;\r\n        string description;\r\n        RequestStatus status;\r\n        S_Project project;\r\n        address subjectAddress;\r\n    }\r\n\r\n    enum RequestStatus { Unverified, Verified }\r\n    enum ProjectStatus { Created, Approved, Rejected, OnGoing, BeforeFinalizationCheck, Completed }\r\n\r\n    //event CreateProject(uint _indexProject, Project.ProjectStatus _projectStatus, address _address);\r\n    event CreateProject(string _name, string _description, ProjectStatus _status);\r\n\r\n    event UpdateSupervisorRequestStatus(uint _indexRequest, RequestStatus _status, S_Project _project, ProjectStatus _projectStatus, address _subjectAddress);\r\n    event UpdateCompanyRequestStatus(uint _indexRequest, RequestStatus _status, S_Project _project, ProjectStatus _projectStatus, address _subjectAddress);\r\n\r\n    constructor() {\r\n        projectInitiator = msg.sender;\r\n    }\r\n\r\n    modifier onlyProjectInitiator {\r\n        require(userInfo[projectInitiator].role == Roles.ProjectInitiator, \"You don't have the rights for this resources.\");\r\n        require(projectInitiator == msg.sender, \"You are not a project initiator\");\r\n        _;\r\n    }\r\n\r\n    function createProject(string memory _name, string memory _description, uint _status, string memory _ipfsFileCID) public  {\r\n        //bytes32 _identifier = createUniqueIdentifier(_hashStringValue, msg.sender);\r\n\r\n        projects[projectsCount].index = projectsCount;\r\n        //projects[projectsCount].identifier = _identifier;\r\n        projects[projectsCount].name = _name;\r\n        projects[projectsCount].description = _description;\r\n        projects[projectsCount].projectStatus = ProjectStatus(_status);\r\n        projects[projectsCount].ipfsFileCID = _ipfsFileCID;\r\n\r\n        emit CreateProject(_name, _description, ProjectStatus(_status));\r\n        projectIds.push(projectsCount);\r\n        allProjects.push(S_Project(projectsCount, _name, _description, ProjectStatus(_status), _ipfsFileCID));\r\n        projectsCount++;\r\n    }\r\n\r\n    function getProjectInfo(uint _index)\r\n        external\r\n        view\r\n        returns (S_Project memory)\r\n    {\r\n        return projects[_index];\r\n    }\r\n\r\n    function getAllProjects() public view returns(S_Project[] memory) {\r\n        return allProjects;\r\n    }\r\n\r\n    function getProjectIds() external view returns (uint[] memory) {\r\n        return projectIds;\r\n    }\r\n\r\n    function createUniqueIdentifier(string memory _text, address _addr) public pure returns (bytes32)  {\r\n        return keccak256(abi.encodePacked(_text, _addr));\r\n    }\r\n\r\n    function createUniqueHexAddress(string memory _text, address _addr) public pure returns (address)  {\r\n        return address(uint160(uint256(keccak256(abi.encodePacked(_text, _addr)))));\r\n    }\r\n\r\n\r\n    // function changeProjectStatus(uint _status, address _address) public {\r\n    //     projectsStatus[statusChangedIndex]._index = statusChangedIndex;\r\n    //     projectsStatus[statusChangedIndex]._status = ProjectStatus(_status);\r\n    //     projectsStatus[statusChangedIndex]._address = _address;\r\n    //     emit ProjectStatusChanged(statusChangedIndex, ProjectStatus(_status), _address);\r\n    //     statusChangedIndex++;\r\n    // }\r\n\r\n\r\n    function requestProjectApprovalFromSupervisor(string memory _description, S_Project memory _project, address _subjectAddress) public {\r\n        require(_project.projectStatus == ProjectStatus.Created, \"The project is not created, the operation cannot be done.\");\r\n\r\n        S_Request storage request = supervisorRequests[indexSupervisorRequest];\r\n        request.description = _description;\r\n        request.status = RequestStatus.Unverified;\r\n        request.project = _project;\r\n        request.subjectAddress = _subjectAddress;\r\n\r\n        emit UpdateSupervisorRequestStatus(indexSupervisorRequest, RequestStatus.Unverified, _project, _project.projectStatus, _subjectAddress);\r\n        indexSupervisorRequest++;\r\n    }\r\n\r\n    function requestProjectCompleteFromSupervisor(string memory _description, S_Project memory _project, address _subjectAddress) public {\r\n        require(\r\n            _project.projectStatus == ProjectStatus.BeforeFinalizationCheck,\r\n            \"The project is not in the 'BeforeFinalizationCheck' status, the operation cannot be done.\"\r\n        );\r\n\r\n        S_Request storage request = supervisorRequests[indexSupervisorRequest];\r\n        request.description = _description;\r\n        request.status = RequestStatus.Unverified;\r\n        request.project = _project;\r\n        request.subjectAddress = _subjectAddress;\r\n\r\n        emit UpdateSupervisorRequestStatus(indexSupervisorRequest, RequestStatus.Unverified, _project, _project.projectStatus, _subjectAddress);\r\n        indexSupervisorRequest++;\r\n    }\r\n\r\n    function requestStartProjectToCompanyBuilder(string memory _description, S_Project memory _project, address _subjectAddress) public {\r\n        require(_project.projectStatus == ProjectStatus.Approved, \"The project is not approved, the operation cannot be done.\");\r\n\r\n        S_Request storage request = companyRequests[indexCompanyRequest];\r\n        request.description = _description;\r\n        request.status = RequestStatus.Unverified;\r\n        request.project = _project;\r\n        request.subjectAddress = _subjectAddress;\r\n\r\n        emit UpdateCompanyRequestStatus(indexCompanyRequest, RequestStatus.Unverified, _project, _project.projectStatus, _subjectAddress);\r\n        indexCompanyRequest++;\r\n    }\r\n}",
  "sourcePath": "/mnt/c/users/beniamin/source/repos/dissertationproject/contracts/Project.sol",
  "compiler": {
    "name": "solc",
    "version": "0.8.10+commit.fc410830.Emscripten.clang"
  },
  "schemaVersion": "3.4.3",
  "updatedAt": "2021-11-19T06:05:44.537Z",
  "devdoc": {
    "kind": "dev",
    "methods": {},
    "version": 1
  },
  "userdoc": {
    "kind": "user",
    "methods": {},
    "version": 1
  }
}