{
  "contractName": "ProjectChain",
  "abi": [
    {
      "inputs": [],
      "stateMutability": "nonpayable",
      "type": "constructor"
    },
    {
      "anonymous": false,
      "inputs": [
        {
          "components": [
            {
              "internalType": "uint256",
              "name": "_index",
              "type": "uint256"
            },
            {
              "internalType": "string",
              "name": "_name",
              "type": "string"
            },
            {
              "internalType": "enum SharedChain.ProjectStatus",
              "name": "_status",
              "type": "uint8"
            },
            {
              "internalType": "string",
              "name": "_ipfsFileCID",
              "type": "string"
            },
            {
              "internalType": "address",
              "name": "_projectAddress",
              "type": "address"
            },
            {
              "internalType": "address",
              "name": "_signerAddress",
              "type": "address"
            },
            {
              "internalType": "address",
              "name": "_companyAddress",
              "type": "address"
            },
            {
              "internalType": "bool",
              "name": "_assigned",
              "type": "bool"
            },
            {
              "internalType": "uint256",
              "name": "_timestamp",
              "type": "uint256"
            },
            {
              "internalType": "string",
              "name": "_signature",
              "type": "string"
            }
          ],
          "indexed": false,
          "internalType": "struct SharedChain.Project",
          "name": "_project",
          "type": "tuple"
        },
        {
          "indexed": true,
          "internalType": "address",
          "name": "_projectAddress",
          "type": "address"
        },
        {
          "indexed": true,
          "internalType": "address",
          "name": "_companyAddress",
          "type": "address"
        }
      ],
      "name": "ProjectEvent",
      "type": "event"
    },
    {
      "anonymous": false,
      "inputs": [
        {
          "components": [
            {
              "internalType": "uint256",
              "name": "_index",
              "type": "uint256"
            },
            {
              "internalType": "string",
              "name": "_title",
              "type": "string"
            },
            {
              "internalType": "string",
              "name": "_comments",
              "type": "string"
            },
            {
              "internalType": "enum SharedChain.ProjectStatus",
              "name": "_projectStatus",
              "type": "uint8"
            },
            {
              "internalType": "enum SharedChain.RequestStatus",
              "name": "_requestStatus",
              "type": "uint8"
            },
            {
              "internalType": "enum SharedChain.RequestType",
              "name": "_requestType",
              "type": "uint8"
            },
            {
              "internalType": "address",
              "name": "_projectAddress",
              "type": "address"
            },
            {
              "internalType": "address",
              "name": "_requestAddress",
              "type": "address"
            },
            {
              "internalType": "address",
              "name": "_signerAddress",
              "type": "address"
            },
            {
              "internalType": "uint256",
              "name": "_timestamp",
              "type": "uint256"
            },
            {
              "internalType": "string",
              "name": "_signature",
              "type": "string"
            }
          ],
          "indexed": false,
          "internalType": "struct SharedChain.Request",
          "name": "_request",
          "type": "tuple"
        },
        {
          "indexed": true,
          "internalType": "address",
          "name": "_requestAddress",
          "type": "address"
        },
        {
          "indexed": true,
          "internalType": "address",
          "name": "_projectAddress",
          "type": "address"
        }
      ],
      "name": "RequestEvent",
      "type": "event"
    },
    {
      "anonymous": false,
      "inputs": [
        {
          "components": [
            {
              "internalType": "bytes32",
              "name": "_firstname",
              "type": "bytes32"
            },
            {
              "internalType": "bytes32",
              "name": "_lastname",
              "type": "bytes32"
            },
            {
              "internalType": "enum SharedChain.Roles",
              "name": "_role",
              "type": "uint8"
            },
            {
              "internalType": "address",
              "name": "_walletAddress",
              "type": "address"
            },
            {
              "internalType": "uint256",
              "name": "_timestamp",
              "type": "uint256"
            }
          ],
          "indexed": false,
          "internalType": "struct SharedChain.User",
          "name": "_user",
          "type": "tuple"
        },
        {
          "indexed": true,
          "internalType": "address",
          "name": "_walletAddress",
          "type": "address"
        }
      ],
      "name": "UserEvent",
      "type": "event"
    },
    {
      "inputs": [
        {
          "internalType": "uint256",
          "name": "_role",
          "type": "uint256"
        },
        {
          "internalType": "address",
          "name": "_walletAddress",
          "type": "address"
        }
      ],
      "name": "changeUserRole",
      "outputs": [],
      "stateMutability": "nonpayable",
      "type": "function"
    },
    {
      "inputs": [],
      "name": "getAllUsers",
      "outputs": [
        {
          "components": [
            {
              "internalType": "bytes32",
              "name": "_firstname",
              "type": "bytes32"
            },
            {
              "internalType": "bytes32",
              "name": "_lastname",
              "type": "bytes32"
            },
            {
              "internalType": "enum SharedChain.Roles",
              "name": "_role",
              "type": "uint8"
            },
            {
              "internalType": "address",
              "name": "_walletAddress",
              "type": "address"
            },
            {
              "internalType": "uint256",
              "name": "_timestamp",
              "type": "uint256"
            }
          ],
          "internalType": "struct SharedChain.User[]",
          "name": "",
          "type": "tuple[]"
        }
      ],
      "stateMutability": "view",
      "type": "function"
    },
    {
      "inputs": [
        {
          "internalType": "address",
          "name": "_walletAddress",
          "type": "address"
        }
      ],
      "name": "getUserInfo",
      "outputs": [
        {
          "components": [
            {
              "internalType": "bytes32",
              "name": "_firstname",
              "type": "bytes32"
            },
            {
              "internalType": "bytes32",
              "name": "_lastname",
              "type": "bytes32"
            },
            {
              "internalType": "enum SharedChain.Roles",
              "name": "_role",
              "type": "uint8"
            },
            {
              "internalType": "address",
              "name": "_walletAddress",
              "type": "address"
            },
            {
              "internalType": "uint256",
              "name": "_timestamp",
              "type": "uint256"
            }
          ],
          "internalType": "struct SharedChain.User",
          "name": "",
          "type": "tuple"
        }
      ],
      "stateMutability": "view",
      "type": "function"
    },
    {
      "inputs": [
        {
          "internalType": "address",
          "name": "",
          "type": "address"
        }
      ],
      "name": "projects",
      "outputs": [
        {
          "internalType": "uint256",
          "name": "_index",
          "type": "uint256"
        },
        {
          "internalType": "string",
          "name": "_name",
          "type": "string"
        },
        {
          "internalType": "enum SharedChain.ProjectStatus",
          "name": "_status",
          "type": "uint8"
        },
        {
          "internalType": "string",
          "name": "_ipfsFileCID",
          "type": "string"
        },
        {
          "internalType": "address",
          "name": "_projectAddress",
          "type": "address"
        },
        {
          "internalType": "address",
          "name": "_signerAddress",
          "type": "address"
        },
        {
          "internalType": "address",
          "name": "_companyAddress",
          "type": "address"
        },
        {
          "internalType": "bool",
          "name": "_assigned",
          "type": "bool"
        },
        {
          "internalType": "uint256",
          "name": "_timestamp",
          "type": "uint256"
        },
        {
          "internalType": "string",
          "name": "_signature",
          "type": "string"
        }
      ],
      "stateMutability": "view",
      "type": "function"
    },
    {
      "inputs": [
        {
          "internalType": "uint256",
          "name": "",
          "type": "uint256"
        }
      ],
      "name": "projectsAddress",
      "outputs": [
        {
          "internalType": "address",
          "name": "",
          "type": "address"
        }
      ],
      "stateMutability": "view",
      "type": "function"
    },
    {
      "inputs": [],
      "name": "projectsCounter",
      "outputs": [
        {
          "internalType": "uint256",
          "name": "",
          "type": "uint256"
        }
      ],
      "stateMutability": "view",
      "type": "function"
    },
    {
      "inputs": [
        {
          "internalType": "bytes32",
          "name": "_firstname",
          "type": "bytes32"
        },
        {
          "internalType": "bytes32",
          "name": "_lastname",
          "type": "bytes32"
        },
        {
          "internalType": "uint256",
          "name": "_role",
          "type": "uint256"
        },
        {
          "internalType": "address",
          "name": "_walletAddress",
          "type": "address"
        }
      ],
      "name": "registerUser",
      "outputs": [],
      "stateMutability": "nonpayable",
      "type": "function"
    },
    {
      "inputs": [
        {
          "internalType": "address",
          "name": "",
          "type": "address"
        }
      ],
      "name": "requests",
      "outputs": [
        {
          "internalType": "uint256",
          "name": "_index",
          "type": "uint256"
        },
        {
          "internalType": "string",
          "name": "_title",
          "type": "string"
        },
        {
          "internalType": "string",
          "name": "_comments",
          "type": "string"
        },
        {
          "internalType": "enum SharedChain.ProjectStatus",
          "name": "_projectStatus",
          "type": "uint8"
        },
        {
          "internalType": "enum SharedChain.RequestStatus",
          "name": "_requestStatus",
          "type": "uint8"
        },
        {
          "internalType": "enum SharedChain.RequestType",
          "name": "_requestType",
          "type": "uint8"
        },
        {
          "internalType": "address",
          "name": "_projectAddress",
          "type": "address"
        },
        {
          "internalType": "address",
          "name": "_requestAddress",
          "type": "address"
        },
        {
          "internalType": "address",
          "name": "_signerAddress",
          "type": "address"
        },
        {
          "internalType": "uint256",
          "name": "_timestamp",
          "type": "uint256"
        },
        {
          "internalType": "string",
          "name": "_signature",
          "type": "string"
        }
      ],
      "stateMutability": "view",
      "type": "function"
    },
    {
      "inputs": [
        {
          "internalType": "uint256",
          "name": "",
          "type": "uint256"
        }
      ],
      "name": "requestsAddress",
      "outputs": [
        {
          "internalType": "address",
          "name": "",
          "type": "address"
        }
      ],
      "stateMutability": "view",
      "type": "function"
    },
    {
      "inputs": [],
      "name": "requestsCounter",
      "outputs": [
        {
          "internalType": "uint256",
          "name": "",
          "type": "uint256"
        }
      ],
      "stateMutability": "view",
      "type": "function"
    },
    {
      "inputs": [
        {
          "internalType": "address",
          "name": "",
          "type": "address"
        }
      ],
      "name": "users",
      "outputs": [
        {
          "internalType": "bytes32",
          "name": "_firstname",
          "type": "bytes32"
        },
        {
          "internalType": "bytes32",
          "name": "_lastname",
          "type": "bytes32"
        },
        {
          "internalType": "enum SharedChain.Roles",
          "name": "_role",
          "type": "uint8"
        },
        {
          "internalType": "address",
          "name": "_walletAddress",
          "type": "address"
        },
        {
          "internalType": "uint256",
          "name": "_timestamp",
          "type": "uint256"
        }
      ],
      "stateMutability": "view",
      "type": "function"
    },
    {
      "inputs": [],
      "name": "usersCounter",
      "outputs": [
        {
          "internalType": "uint256",
          "name": "",
          "type": "uint256"
        }
      ],
      "stateMutability": "view",
      "type": "function"
    },
    {
      "inputs": [
        {
          "internalType": "string",
          "name": "_name",
          "type": "string"
        },
        {
          "internalType": "uint256",
          "name": "_index",
          "type": "uint256"
        }
      ],
      "name": "createUniqueProjectAddress",
      "outputs": [
        {
          "internalType": "address",
          "name": "",
          "type": "address"
        }
      ],
      "stateMutability": "view",
      "type": "function"
    },
    {
      "inputs": [
        {
          "internalType": "address",
          "name": "_projectAddress",
          "type": "address"
        },
        {
          "internalType": "string",
          "name": "_name",
          "type": "string"
        },
        {
          "internalType": "uint256",
          "name": "_status",
          "type": "uint256"
        },
        {
          "internalType": "string",
          "name": "_ipfsFileCID",
          "type": "string"
        },
        {
          "internalType": "string",
          "name": "_signature",
          "type": "string"
        }
      ],
      "name": "createProject",
      "outputs": [],
      "stateMutability": "nonpayable",
      "type": "function"
    },
    {
      "inputs": [
        {
          "internalType": "address",
          "name": "_projectAddress",
          "type": "address"
        },
        {
          "internalType": "string",
          "name": "_ipfsFileCID",
          "type": "string"
        },
        {
          "internalType": "string",
          "name": "_signature",
          "type": "string"
        }
      ],
      "name": "updateProject",
      "outputs": [],
      "stateMutability": "nonpayable",
      "type": "function"
    },
    {
      "inputs": [
        {
          "internalType": "address",
          "name": "_address",
          "type": "address"
        }
      ],
      "name": "getProjectInfo",
      "outputs": [
        {
          "components": [
            {
              "internalType": "uint256",
              "name": "_index",
              "type": "uint256"
            },
            {
              "internalType": "string",
              "name": "_name",
              "type": "string"
            },
            {
              "internalType": "enum SharedChain.ProjectStatus",
              "name": "_status",
              "type": "uint8"
            },
            {
              "internalType": "string",
              "name": "_ipfsFileCID",
              "type": "string"
            },
            {
              "internalType": "address",
              "name": "_projectAddress",
              "type": "address"
            },
            {
              "internalType": "address",
              "name": "_signerAddress",
              "type": "address"
            },
            {
              "internalType": "address",
              "name": "_companyAddress",
              "type": "address"
            },
            {
              "internalType": "bool",
              "name": "_assigned",
              "type": "bool"
            },
            {
              "internalType": "uint256",
              "name": "_timestamp",
              "type": "uint256"
            },
            {
              "internalType": "string",
              "name": "_signature",
              "type": "string"
            }
          ],
          "internalType": "struct SharedChain.Project",
          "name": "",
          "type": "tuple"
        }
      ],
      "stateMutability": "view",
      "type": "function"
    },
    {
      "inputs": [
        {
          "internalType": "address",
          "name": "_walletAddress",
          "type": "address"
        }
      ],
      "name": "getProjectsByUser",
      "outputs": [
        {
          "components": [
            {
              "internalType": "uint256",
              "name": "_index",
              "type": "uint256"
            },
            {
              "internalType": "string",
              "name": "_name",
              "type": "string"
            },
            {
              "internalType": "enum SharedChain.ProjectStatus",
              "name": "_status",
              "type": "uint8"
            },
            {
              "internalType": "string",
              "name": "_ipfsFileCID",
              "type": "string"
            },
            {
              "internalType": "address",
              "name": "_projectAddress",
              "type": "address"
            },
            {
              "internalType": "address",
              "name": "_signerAddress",
              "type": "address"
            },
            {
              "internalType": "address",
              "name": "_companyAddress",
              "type": "address"
            },
            {
              "internalType": "bool",
              "name": "_assigned",
              "type": "bool"
            },
            {
              "internalType": "uint256",
              "name": "_timestamp",
              "type": "uint256"
            },
            {
              "internalType": "string",
              "name": "_signature",
              "type": "string"
            }
          ],
          "internalType": "struct SharedChain.Project[]",
          "name": "",
          "type": "tuple[]"
        }
      ],
      "stateMutability": "view",
      "type": "function"
    },
    {
      "inputs": [
        {
          "internalType": "address",
          "name": "_companyAddress",
          "type": "address"
        }
      ],
      "name": "getProjectsByCompany",
      "outputs": [
        {
          "components": [
            {
              "internalType": "uint256",
              "name": "_index",
              "type": "uint256"
            },
            {
              "internalType": "string",
              "name": "_name",
              "type": "string"
            },
            {
              "internalType": "enum SharedChain.ProjectStatus",
              "name": "_status",
              "type": "uint8"
            },
            {
              "internalType": "string",
              "name": "_ipfsFileCID",
              "type": "string"
            },
            {
              "internalType": "address",
              "name": "_projectAddress",
              "type": "address"
            },
            {
              "internalType": "address",
              "name": "_signerAddress",
              "type": "address"
            },
            {
              "internalType": "address",
              "name": "_companyAddress",
              "type": "address"
            },
            {
              "internalType": "bool",
              "name": "_assigned",
              "type": "bool"
            },
            {
              "internalType": "uint256",
              "name": "_timestamp",
              "type": "uint256"
            },
            {
              "internalType": "string",
              "name": "_signature",
              "type": "string"
            }
          ],
          "internalType": "struct SharedChain.Project[]",
          "name": "",
          "type": "tuple[]"
        }
      ],
      "stateMutability": "view",
      "type": "function"
    },
    {
      "inputs": [
        {
          "internalType": "string",
          "name": "_title",
          "type": "string"
        },
        {
          "internalType": "uint256",
          "name": "_index",
          "type": "uint256"
        }
      ],
      "name": "createUniqueRequestAddress",
      "outputs": [
        {
          "internalType": "address",
          "name": "",
          "type": "address"
        }
      ],
      "stateMutability": "view",
      "type": "function"
    },
    {
      "inputs": [
        {
          "internalType": "string",
          "name": "_title",
          "type": "string"
        },
        {
          "internalType": "uint256",
          "name": "_projectStatus",
          "type": "uint256"
        },
        {
          "internalType": "uint256",
          "name": "_requestStatus",
          "type": "uint256"
        },
        {
          "internalType": "address",
          "name": "_projectAddress",
          "type": "address"
        },
        {
          "internalType": "address",
          "name": "_requestAddress",
          "type": "address"
        },
        {
          "internalType": "string",
          "name": "_signature",
          "type": "string"
        }
      ],
      "name": "createRequest",
      "outputs": [],
      "stateMutability": "nonpayable",
      "type": "function"
    },
    {
      "inputs": [
        {
          "internalType": "string",
          "name": "_comments",
          "type": "string"
        },
        {
          "internalType": "uint256",
          "name": "_requestStatus",
          "type": "uint256"
        },
        {
          "internalType": "uint256",
          "name": "_projectStatus",
          "type": "uint256"
        },
        {
          "internalType": "address",
          "name": "_projectAddress",
          "type": "address"
        },
        {
          "internalType": "address",
          "name": "_requestAddress",
          "type": "address"
        },
        {
          "internalType": "string",
          "name": "_signature",
          "type": "string"
        }
      ],
      "name": "updateRequest",
      "outputs": [],
      "stateMutability": "nonpayable",
      "type": "function"
    },
    {
      "inputs": [],
      "name": "getAllRequests",
      "outputs": [
        {
          "components": [
            {
              "internalType": "uint256",
              "name": "_index",
              "type": "uint256"
            },
            {
              "internalType": "string",
              "name": "_title",
              "type": "string"
            },
            {
              "internalType": "string",
              "name": "_comments",
              "type": "string"
            },
            {
              "internalType": "enum SharedChain.ProjectStatus",
              "name": "_projectStatus",
              "type": "uint8"
            },
            {
              "internalType": "enum SharedChain.RequestStatus",
              "name": "_requestStatus",
              "type": "uint8"
            },
            {
              "internalType": "enum SharedChain.RequestType",
              "name": "_requestType",
              "type": "uint8"
            },
            {
              "internalType": "address",
              "name": "_projectAddress",
              "type": "address"
            },
            {
              "internalType": "address",
              "name": "_requestAddress",
              "type": "address"
            },
            {
              "internalType": "address",
              "name": "_signerAddress",
              "type": "address"
            },
            {
              "internalType": "uint256",
              "name": "_timestamp",
              "type": "uint256"
            },
            {
              "internalType": "string",
              "name": "_signature",
              "type": "string"
            }
          ],
          "internalType": "struct SharedChain.Request[]",
          "name": "",
          "type": "tuple[]"
        }
      ],
      "stateMutability": "view",
      "type": "function"
    },
    {
      "inputs": [
        {
          "internalType": "address",
          "name": "_projectAddress",
          "type": "address"
        }
      ],
      "name": "getProjectRequests",
      "outputs": [
        {
          "components": [
            {
              "internalType": "uint256",
              "name": "_index",
              "type": "uint256"
            },
            {
              "internalType": "string",
              "name": "_title",
              "type": "string"
            },
            {
              "internalType": "string",
              "name": "_comments",
              "type": "string"
            },
            {
              "internalType": "enum SharedChain.ProjectStatus",
              "name": "_projectStatus",
              "type": "uint8"
            },
            {
              "internalType": "enum SharedChain.RequestStatus",
              "name": "_requestStatus",
              "type": "uint8"
            },
            {
              "internalType": "enum SharedChain.RequestType",
              "name": "_requestType",
              "type": "uint8"
            },
            {
              "internalType": "address",
              "name": "_projectAddress",
              "type": "address"
            },
            {
              "internalType": "address",
              "name": "_requestAddress",
              "type": "address"
            },
            {
              "internalType": "address",
              "name": "_signerAddress",
              "type": "address"
            },
            {
              "internalType": "uint256",
              "name": "_timestamp",
              "type": "uint256"
            },
            {
              "internalType": "string",
              "name": "_signature",
              "type": "string"
            }
          ],
          "internalType": "struct SharedChain.Request[]",
          "name": "",
          "type": "tuple[]"
        }
      ],
      "stateMutability": "view",
      "type": "function"
    },
    {
      "inputs": [
        {
          "internalType": "address",
          "name": "_projectAddress",
          "type": "address"
        },
        {
          "internalType": "address",
          "name": "_requestAddress",
          "type": "address"
        }
      ],
      "name": "getLastProjectRequest",
      "outputs": [
        {
          "components": [
            {
              "internalType": "uint256",
              "name": "_index",
              "type": "uint256"
            },
            {
              "internalType": "string",
              "name": "_title",
              "type": "string"
            },
            {
              "internalType": "string",
              "name": "_comments",
              "type": "string"
            },
            {
              "internalType": "enum SharedChain.ProjectStatus",
              "name": "_projectStatus",
              "type": "uint8"
            },
            {
              "internalType": "enum SharedChain.RequestStatus",
              "name": "_requestStatus",
              "type": "uint8"
            },
            {
              "internalType": "enum SharedChain.RequestType",
              "name": "_requestType",
              "type": "uint8"
            },
            {
              "internalType": "address",
              "name": "_projectAddress",
              "type": "address"
            },
            {
              "internalType": "address",
              "name": "_requestAddress",
              "type": "address"
            },
            {
              "internalType": "address",
              "name": "_signerAddress",
              "type": "address"
            },
            {
              "internalType": "uint256",
              "name": "_timestamp",
              "type": "uint256"
            },
            {
              "internalType": "string",
              "name": "_signature",
              "type": "string"
            }
          ],
          "internalType": "struct SharedChain.Request",
          "name": "",
          "type": "tuple"
        }
      ],
      "stateMutability": "view",
      "type": "function"
    }
  ],
  "bytecode": "0x608060405260006002556000600555600060085534801561001f57600080fd5b50336000806101000a81548173ffffffffffffffffffffffffffffffffffffffff021916908373ffffffffffffffffffffffffffffffffffffffff1602179055506157f080620000706000396000f3fe608060405234801561001057600080fd5b50600436106101585760003560e01c806384485563116100c3578063d67b1b991161007c578063d67b1b9914610472578063e1592c0d14610490578063e2842d79146104ac578063e617385f146104ca578063fb1a002a146104e6578063fe360ea51461050457610158565b8063844855631461038a57806387edbec7146103a65780638eb0717a146103c257806391009786146103f2578063a87430ba1461040e578063b4eddc721461044257610158565b806356a3eead1161011557806356a3eead146102695780636386c1c714610299578063663c2269146102c957806374adad1d146102e757806376c932e014610321578063840e78fd1461035157610158565b806304c278ec1461015d578063191e16451461018d5780633000d7f9146101bd5780633b4ec4f8146101d9578063448847101461020957806347ee45b914610239575b600080fd5b61017760048036038101906101729190613dde565b610522565b6040516101849190614108565b60405180910390f35b6101a760048036038101906101a2919061428b565b610a28565b6040516101b491906142f6565b60405180910390f35b6101d760048036038101906101d29190614347565b610a60565b005b6101f360048036038101906101ee919061428b565b610d33565b60405161020091906142f6565b60405180910390f35b610223600480360381019061021e91906143ae565b610d6b565b604051610230919061457b565b60405180910390f35b610253600480360381019061024e9190613dde565b6111f2565b6040516102609190614685565b60405180910390f35b610283600480360381019061027e91906146a7565b61156e565b60405161029091906142f6565b60405180910390f35b6102b360048036038101906102ae9190613dde565b6115ad565b6040516102c09190614793565b60405180910390f35b6102d16116b5565b6040516102de91906147bd565b60405180910390f35b61030160048036038101906102fc9190613dde565b6116bb565b6040516103189b9a9998979695949392919061484f565b60405180910390f35b61033b600480360381019061033691906146a7565b611934565b60405161034891906142f6565b60405180910390f35b61036b60048036038101906103669190613dde565b611973565b6040516103819a9998979695949392919061491e565b60405180910390f35b6103a4600480360381019061039f91906149cf565b611bd9565b005b6103c060048036038101906103bb9190614a9e565b611f85565b005b6103dc60048036038101906103d79190613dde565b61227a565b6040516103e99190614d22565b60405180910390f35b61040c60048036038101906104079190614d44565b612730565b005b61042860048036038101906104239190613dde565b612911565b604051610439959493929190614da2565b60405180910390f35b61045c60048036038101906104579190613dde565b612974565b6040516104699190614108565b60405180910390f35b61047a612e7a565b60405161048791906147bd565b60405180910390f35b6104aa60048036038101906104a59190614df5565b612e80565b005b6104b4612fd7565b6040516104c19190614f97565b60405180910390f35b6104e460048036038101906104df9190614a9e565b6131bc565b005b6104ee613637565b6040516104fb9190614d22565b60405180910390f35b61050c613aeb565b60405161051991906147bd565b60405180910390f35b606080600060055414156105395780915050610a23565b60055467ffffffffffffffff81111561055557610554614134565b5b60405190808252806020026020018201604052801561058e57816020015b61057b613af1565b8152602001906001900390816105735790505b50905060005b600554811015610a1d576000600682815481106105b4576105b3614fb9565b5b9060005260206000200160009054906101000a900473ffffffffffffffffffffffffffffffffffffffff169050600460008273ffffffffffffffffffffffffffffffffffffffff1673ffffffffffffffffffffffffffffffffffffffff16815260200190815260200160002060060160009054906101000a900473ffffffffffffffffffffffffffffffffffffffff1673ffffffffffffffffffffffffffffffffffffffff168573ffffffffffffffffffffffffffffffffffffffff161415610a09576000600460008373ffffffffffffffffffffffffffffffffffffffff1673ffffffffffffffffffffffffffffffffffffffff16815260200190815260200160002090508060405180610140016040529081600082015481526020016001820180546106e190615017565b80601f016020809104026020016040519081016040528092919081815260200182805461070d90615017565b801561075a5780601f1061072f5761010080835404028352916020019161075a565b820191906000526020600020905b81548152906001019060200180831161073d57829003601f168201915b505050505081526020016002820160009054906101000a900460ff16600481111561078857610787613ee9565b5b600481111561079a57610799613ee9565b5b81526020016003820180546107ae90615017565b80601f01602080910402602001604051908101604052809291908181526020018280546107da90615017565b80156108275780601f106107fc57610100808354040283529160200191610827565b820191906000526020600020905b81548152906001019060200180831161080a57829003601f168201915b505050505081526020016004820160009054906101000a900473ffffffffffffffffffffffffffffffffffffffff1673ffffffffffffffffffffffffffffffffffffffff1673ffffffffffffffffffffffffffffffffffffffff1681526020016005820160009054906101000a900473ffffffffffffffffffffffffffffffffffffffff1673ffffffffffffffffffffffffffffffffffffffff1673ffffffffffffffffffffffffffffffffffffffff1681526020016006820160009054906101000a900473ffffffffffffffffffffffffffffffffffffffff1673ffffffffffffffffffffffffffffffffffffffff1673ffffffffffffffffffffffffffffffffffffffff1681526020016006820160149054906101000a900460ff161515151581526020016007820154815260200160088201805461096790615017565b80601f016020809104026020016040519081016040528092919081815260200182805461099390615017565b80156109e05780601f106109b5576101008083540402835291602001916109e0565b820191906000526020600020905b8154815290600101906020018083116109c357829003601f168201915b5050505050815250508484815181106109fc576109fb614fb9565b5b6020026020010181905250505b508080610a1590615078565b915050610594565b50809150505b919050565b6000823383604051602001610a3f93929190615166565b6040516020818303038152906040528051906020012060001c905092915050565b3373ffffffffffffffffffffffffffffffffffffffff1660008054906101000a900473ffffffffffffffffffffffffffffffffffffffff1673ffffffffffffffffffffffffffffffffffffffff1614610aee576040517f08c379a0000000000000000000000000000000000000000000000000000000008152600401610ae5906151eb565b60405180910390fd5b6040518060a00160405280858152602001848152602001836003811115610b1857610b17613ee9565b5b6003811115610b2a57610b29613ee9565b5b81526020018273ffffffffffffffffffffffffffffffffffffffff16815260200142815250600160008373ffffffffffffffffffffffffffffffffffffffff1673ffffffffffffffffffffffffffffffffffffffff168152602001908152602001600020600082015181600001556020820151816001015560408201518160020160006101000a81548160ff02191690836003811115610bcd57610bcc613ee9565b5b021790555060608201518160020160016101000a81548173ffffffffffffffffffffffffffffffffffffffff021916908373ffffffffffffffffffffffffffffffffffffffff160217905550608082015181600301559050508073ffffffffffffffffffffffffffffffffffffffff167ff751778eb32087df58f173035147c2eac9aac89fdc2f83b1993a198606f56db1600160008473ffffffffffffffffffffffffffffffffffffffff1673ffffffffffffffffffffffffffffffffffffffff168152602001908152602001600020604051610caa9190615368565b60405180910390a26003819080600181540180825580915050600190039060005260206000200160009091909190916101000a81548173ffffffffffffffffffffffffffffffffffffffff021916908373ffffffffffffffffffffffffffffffffffffffff16021790555060026000815480929190610d2890615078565b919050555050505050565b6000823383604051602001610d4a93929190615166565b6040516020818303038152906040528051906020012060001c905092915050565b610d73613b9a565b610d7b613b9a565b600060085411156111e8578373ffffffffffffffffffffffffffffffffffffffff16600760008573ffffffffffffffffffffffffffffffffffffffff1673ffffffffffffffffffffffffffffffffffffffff16815260200190815260200160002060030160039054906101000a900473ffffffffffffffffffffffffffffffffffffffff1673ffffffffffffffffffffffffffffffffffffffff1614156111e757600760008473ffffffffffffffffffffffffffffffffffffffff1673ffffffffffffffffffffffffffffffffffffffff1681526020019081526020016000206040518061016001604052908160008201548152602001600182018054610e8190615017565b80601f0160208091040260200160405190810160405280929190818152602001828054610ead90615017565b8015610efa5780601f10610ecf57610100808354040283529160200191610efa565b820191906000526020600020905b815481529060010190602001808311610edd57829003601f168201915b50505050508152602001600282018054610f1390615017565b80601f0160208091040260200160405190810160405280929190818152602001828054610f3f90615017565b8015610f8c5780601f10610f6157610100808354040283529160200191610f8c565b820191906000526020600020905b815481529060010190602001808311610f6f57829003601f168201915b505050505081526020016003820160009054906101000a900460ff166004811115610fba57610fb9613ee9565b5b6004811115610fcc57610fcb613ee9565b5b81526020016003820160019054906101000a900460ff166002811115610ff557610ff4613ee9565b5b600281111561100757611006613ee9565b5b81526020016003820160029054906101000a900460ff1660018111156110305761102f613ee9565b5b600181111561104257611041613ee9565b5b81526020016003820160039054906101000a900473ffffffffffffffffffffffffffffffffffffffff1673ffffffffffffffffffffffffffffffffffffffff1673ffffffffffffffffffffffffffffffffffffffff1681526020016004820160009054906101000a900473ffffffffffffffffffffffffffffffffffffffff1673ffffffffffffffffffffffffffffffffffffffff1673ffffffffffffffffffffffffffffffffffffffff1681526020016005820160009054906101000a900473ffffffffffffffffffffffffffffffffffffffff1673ffffffffffffffffffffffffffffffffffffffff1673ffffffffffffffffffffffffffffffffffffffff1681526020016006820154815260200160078201805461116290615017565b80601f016020809104026020016040519081016040528092919081815260200182805461118e90615017565b80156111db5780601f106111b0576101008083540402835291602001916111db565b820191906000526020600020905b8154815290600101906020018083116111be57829003601f168201915b50505050508152505090505b5b8091505092915050565b6111fa613af1565b600460008373ffffffffffffffffffffffffffffffffffffffff1673ffffffffffffffffffffffffffffffffffffffff168152602001908152602001600020604051806101400160405290816000820154815260200160018201805461125f90615017565b80601f016020809104026020016040519081016040528092919081815260200182805461128b90615017565b80156112d85780601f106112ad576101008083540402835291602001916112d8565b820191906000526020600020905b8154815290600101906020018083116112bb57829003601f168201915b505050505081526020016002820160009054906101000a900460ff16600481111561130657611305613ee9565b5b600481111561131857611317613ee9565b5b815260200160038201805461132c90615017565b80601f016020809104026020016040519081016040528092919081815260200182805461135890615017565b80156113a55780601f1061137a576101008083540402835291602001916113a5565b820191906000526020600020905b81548152906001019060200180831161138857829003601f168201915b505050505081526020016004820160009054906101000a900473ffffffffffffffffffffffffffffffffffffffff1673ffffffffffffffffffffffffffffffffffffffff1673ffffffffffffffffffffffffffffffffffffffff1681526020016005820160009054906101000a900473ffffffffffffffffffffffffffffffffffffffff1673ffffffffffffffffffffffffffffffffffffffff1673ffffffffffffffffffffffffffffffffffffffff1681526020016006820160009054906101000a900473ffffffffffffffffffffffffffffffffffffffff1673ffffffffffffffffffffffffffffffffffffffff1673ffffffffffffffffffffffffffffffffffffffff1681526020016006820160149054906101000a900460ff16151515158152602001600782015481526020016008820180546114e590615017565b80601f016020809104026020016040519081016040528092919081815260200182805461151190615017565b801561155e5780601f106115335761010080835404028352916020019161155e565b820191906000526020600020905b81548152906001019060200180831161154157829003601f168201915b5050505050815250509050919050565b6009818154811061157e57600080fd5b906000526020600020016000915054906101000a900473ffffffffffffffffffffffffffffffffffffffff1681565b6115b5613c6c565b600160008373ffffffffffffffffffffffffffffffffffffffff1673ffffffffffffffffffffffffffffffffffffffff1681526020019081526020016000206040518060a001604052908160008201548152602001600182015481526020016002820160009054906101000a900460ff16600381111561163857611637613ee9565b5b600381111561164a57611649613ee9565b5b81526020016002820160019054906101000a900473ffffffffffffffffffffffffffffffffffffffff1673ffffffffffffffffffffffffffffffffffffffff1673ffffffffffffffffffffffffffffffffffffffff1681526020016003820154815250509050919050565b60085481565b60076020528060005260406000206000915090508060000154908060010180546116e490615017565b80601f016020809104026020016040519081016040528092919081815260200182805461171090615017565b801561175d5780601f106117325761010080835404028352916020019161175d565b820191906000526020600020905b81548152906001019060200180831161174057829003601f168201915b50505050509080600201805461177290615017565b80601f016020809104026020016040519081016040528092919081815260200182805461179e90615017565b80156117eb5780601f106117c0576101008083540402835291602001916117eb565b820191906000526020600020905b8154815290600101906020018083116117ce57829003601f168201915b5050505050908060030160009054906101000a900460ff16908060030160019054906101000a900460ff16908060030160029054906101000a900460ff16908060030160039054906101000a900473ffffffffffffffffffffffffffffffffffffffff16908060040160009054906101000a900473ffffffffffffffffffffffffffffffffffffffff16908060050160009054906101000a900473ffffffffffffffffffffffffffffffffffffffff16908060060154908060070180546118b190615017565b80601f01602080910402602001604051908101604052809291908181526020018280546118dd90615017565b801561192a5780601f106118ff5761010080835404028352916020019161192a565b820191906000526020600020905b81548152906001019060200180831161190d57829003601f168201915b505050505090508b565b6006818154811061194457600080fd5b906000526020600020016000915054906101000a900473ffffffffffffffffffffffffffffffffffffffff1681565b600460205280600052604060002060009150905080600001549080600101805461199c90615017565b80601f01602080910402602001604051908101604052809291908181526020018280546119c890615017565b8015611a155780601f106119ea57610100808354040283529160200191611a15565b820191906000526020600020905b8154815290600101906020018083116119f857829003601f168201915b5050505050908060020160009054906101000a900460ff1690806003018054611a3d90615017565b80601f0160208091040260200160405190810160405280929190818152602001828054611a6990615017565b8015611ab65780601f10611a8b57610100808354040283529160200191611ab6565b820191906000526020600020905b815481529060010190602001808311611a9957829003601f168201915b5050505050908060040160009054906101000a900473ffffffffffffffffffffffffffffffffffffffff16908060050160009054906101000a900473ffffffffffffffffffffffffffffffffffffffff16908060060160009054906101000a900473ffffffffffffffffffffffffffffffffffffffff16908060060160149054906101000a900460ff1690806007015490806008018054611b5690615017565b80601f0160208091040260200160405190810160405280929190818152602001828054611b8290615017565b8015611bcf5780601f10611ba457610100808354040283529160200191611bcf565b820191906000526020600020905b815481529060010190602001808311611bb257829003601f168201915b505050505090508a565b6040518061014001604052806005548152602001858152602001846004811115611c0657611c05613ee9565b5b6004811115611c1857611c17613ee9565b5b81526020018381526020018673ffffffffffffffffffffffffffffffffffffffff1681526020013373ffffffffffffffffffffffffffffffffffffffff168152602001600073ffffffffffffffffffffffffffffffffffffffff16815260200160001515815260200142815260200182815250600460008773ffffffffffffffffffffffffffffffffffffffff1673ffffffffffffffffffffffffffffffffffffffff168152602001908152602001600020600082015181600001556020820151816001019080519060200190611cf0929190613cc9565b5060408201518160020160006101000a81548160ff02191690836004811115611d1c57611d1b613ee9565b5b02179055506060820151816003019080519060200190611d3d929190613cc9565b5060808201518160040160006101000a81548173ffffffffffffffffffffffffffffffffffffffff021916908373ffffffffffffffffffffffffffffffffffffffff16021790555060a08201518160050160006101000a81548173ffffffffffffffffffffffffffffffffffffffff021916908373ffffffffffffffffffffffffffffffffffffffff16021790555060c08201518160060160006101000a81548173ffffffffffffffffffffffffffffffffffffffff021916908373ffffffffffffffffffffffffffffffffffffffff16021790555060e08201518160060160146101000a81548160ff0219169083151502179055506101008201518160070155610120820151816008019080519060200190611e5b929190613cc9565b50905050600073ffffffffffffffffffffffffffffffffffffffff168573ffffffffffffffffffffffffffffffffffffffff167ffb530d24abc3d497c3f0525ef204a66ac64d923ec30b40d17bc3a5f572cf4b8e600460008973ffffffffffffffffffffffffffffffffffffffff1673ffffffffffffffffffffffffffffffffffffffff168152602001908152602001600020604051611efb91906155b8565b60405180910390a36006859080600181540180825580915050600190039060005260206000200160009091909190916101000a81548173ffffffffffffffffffffffffffffffffffffffff021916908373ffffffffffffffffffffffffffffffffffffffff16021790555060056000815480929190611f7990615078565b91905055505050505050565b85600760008473ffffffffffffffffffffffffffffffffffffffff1673ffffffffffffffffffffffffffffffffffffffff1681526020019081526020016000206002019080519060200190611fdb929190613cc9565b50846002811115611fef57611fee613ee9565b5b600760008473ffffffffffffffffffffffffffffffffffffffff1673ffffffffffffffffffffffffffffffffffffffff16815260200190815260200160002060030160016101000a81548160ff0219169083600281111561205357612052613ee9565b5b021790555080600760008473ffffffffffffffffffffffffffffffffffffffff1673ffffffffffffffffffffffffffffffffffffffff16815260200190815260200160002060070190805190602001906120ae929190613cc9565b508273ffffffffffffffffffffffffffffffffffffffff168273ffffffffffffffffffffffffffffffffffffffff167fa25a6f1ff57a050a48ae4b3a19f271fddad950cac8d165d6a2eca5d54cc8070f600760008673ffffffffffffffffffffffffffffffffffffffff1673ffffffffffffffffffffffffffffffffffffffff16815260200190815260200160002060405161214a9190615798565b60405180910390a383600481111561216557612164613ee9565b5b600460008573ffffffffffffffffffffffffffffffffffffffff1673ffffffffffffffffffffffffffffffffffffffff16815260200190815260200160002060020160006101000a81548160ff021916908360048111156121c9576121c8613ee9565b5b0217905550600073ffffffffffffffffffffffffffffffffffffffff168373ffffffffffffffffffffffffffffffffffffffff167ffb530d24abc3d497c3f0525ef204a66ac64d923ec30b40d17bc3a5f572cf4b8e600460008773ffffffffffffffffffffffffffffffffffffffff1673ffffffffffffffffffffffffffffffffffffffff16815260200190815260200160002060405161226a91906155b8565b60405180910390a3505050505050565b60608060005b600854811015612726576000600982815481106122a05761229f614fb9565b5b9060005260206000200160009054906101000a900473ffffffffffffffffffffffffffffffffffffffff1690506000600760008373ffffffffffffffffffffffffffffffffffffffff1673ffffffffffffffffffffffffffffffffffffffff16815260200190815260200160002090508060030160039054906101000a900473ffffffffffffffffffffffffffffffffffffffff1673ffffffffffffffffffffffffffffffffffffffff168673ffffffffffffffffffffffffffffffffffffffff1614156127115780604051806101600160405290816000820154815260200160018201805461238f90615017565b80601f01602080910402602001604051908101604052809291908181526020018280546123bb90615017565b80156124085780601f106123dd57610100808354040283529160200191612408565b820191906000526020600020905b8154815290600101906020018083116123eb57829003601f168201915b5050505050815260200160028201805461242190615017565b80601f016020809104026020016040519081016040528092919081815260200182805461244d90615017565b801561249a5780601f1061246f5761010080835404028352916020019161249a565b820191906000526020600020905b81548152906001019060200180831161247d57829003601f168201915b505050505081526020016003820160009054906101000a900460ff1660048111156124c8576124c7613ee9565b5b60048111156124da576124d9613ee9565b5b81526020016003820160019054906101000a900460ff16600281111561250357612502613ee9565b5b600281111561251557612514613ee9565b5b81526020016003820160029054906101000a900460ff16600181111561253e5761253d613ee9565b5b60018111156125505761254f613ee9565b5b81526020016003820160039054906101000a900473ffffffffffffffffffffffffffffffffffffffff1673ffffffffffffffffffffffffffffffffffffffff1673ffffffffffffffffffffffffffffffffffffffff1681526020016004820160009054906101000a900473ffffffffffffffffffffffffffffffffffffffff1673ffffffffffffffffffffffffffffffffffffffff1673ffffffffffffffffffffffffffffffffffffffff1681526020016005820160009054906101000a900473ffffffffffffffffffffffffffffffffffffffff1673ffffffffffffffffffffffffffffffffffffffff1673ffffffffffffffffffffffffffffffffffffffff1681526020016006820154815260200160078201805461267090615017565b80601f016020809104026020016040519081016040528092919081815260200182805461269c90615017565b80156126e95780601f106126be576101008083540402835291602001916126e9565b820191906000526020600020905b8154815290600101906020018083116126cc57829003601f168201915b50505050508152505084848151811061270557612704614fb9565b5b60200260200101819052505b5050808061271e90615078565b915050612280565b5080915050919050565b3373ffffffffffffffffffffffffffffffffffffffff1660008054906101000a900473ffffffffffffffffffffffffffffffffffffffff1673ffffffffffffffffffffffffffffffffffffffff16146127be576040517f08c379a00000000000000000000000000000000000000000000000000000000081526004016127b5906151eb565b60405180910390fd5b8160038111156127d1576127d0613ee9565b5b600160008373ffffffffffffffffffffffffffffffffffffffff1673ffffffffffffffffffffffffffffffffffffffff16815260200190815260200160002060020160006101000a81548160ff0219169083600381111561283557612834613ee9565b5b021790555042600160008373ffffffffffffffffffffffffffffffffffffffff1673ffffffffffffffffffffffffffffffffffffffff168152602001908152602001600020600301819055508073ffffffffffffffffffffffffffffffffffffffff167ff751778eb32087df58f173035147c2eac9aac89fdc2f83b1993a198606f56db1600160008473ffffffffffffffffffffffffffffffffffffffff1673ffffffffffffffffffffffffffffffffffffffff1681526020019081526020016000206040516129059190615368565b60405180910390a25050565b60016020528060005260406000206000915090508060000154908060010154908060020160009054906101000a900460ff16908060020160019054906101000a900473ffffffffffffffffffffffffffffffffffffffff16908060030154905085565b6060806000600554141561298b5780915050612e75565b60055467ffffffffffffffff8111156129a7576129a6614134565b5b6040519080825280602002602001820160405280156129e057816020015b6129cd613af1565b8152602001906001900390816129c55790505b50905060005b600554811015612e6f57600060068281548110612a0657612a05614fb9565b5b9060005260206000200160009054906101000a900473ffffffffffffffffffffffffffffffffffffffff169050600460008273ffffffffffffffffffffffffffffffffffffffff1673ffffffffffffffffffffffffffffffffffffffff16815260200190815260200160002060050160009054906101000a900473ffffffffffffffffffffffffffffffffffffffff1673ffffffffffffffffffffffffffffffffffffffff168573ffffffffffffffffffffffffffffffffffffffff161415612e5b576000600460008373ffffffffffffffffffffffffffffffffffffffff1673ffffffffffffffffffffffffffffffffffffffff1681526020019081526020016000209050806040518061014001604052908160008201548152602001600182018054612b3390615017565b80601f0160208091040260200160405190810160405280929190818152602001828054612b5f90615017565b8015612bac5780601f10612b8157610100808354040283529160200191612bac565b820191906000526020600020905b815481529060010190602001808311612b8f57829003601f168201915b505050505081526020016002820160009054906101000a900460ff166004811115612bda57612bd9613ee9565b5b6004811115612bec57612beb613ee9565b5b8152602001600382018054612c0090615017565b80601f0160208091040260200160405190810160405280929190818152602001828054612c2c90615017565b8015612c795780601f10612c4e57610100808354040283529160200191612c79565b820191906000526020600020905b815481529060010190602001808311612c5c57829003601f168201915b505050505081526020016004820160009054906101000a900473ffffffffffffffffffffffffffffffffffffffff1673ffffffffffffffffffffffffffffffffffffffff1673ffffffffffffffffffffffffffffffffffffffff1681526020016005820160009054906101000a900473ffffffffffffffffffffffffffffffffffffffff1673ffffffffffffffffffffffffffffffffffffffff1673ffffffffffffffffffffffffffffffffffffffff1681526020016006820160009054906101000a900473ffffffffffffffffffffffffffffffffffffffff1673ffffffffffffffffffffffffffffffffffffffff1673ffffffffffffffffffffffffffffffffffffffff1681526020016006820160149054906101000a900460ff1615151515815260200160078201548152602001600882018054612db990615017565b80601f0160208091040260200160405190810160405280929190818152602001828054612de590615017565b8015612e325780601f10612e0757610100808354040283529160200191612e32565b820191906000526020600020905b815481529060010190602001808311612e1557829003601f168201915b505050505081525050848481518110612e4e57612e4d614fb9565b5b6020026020010181905250505b508080612e6790615078565b9150506129e6565b50809150505b919050565b60025481565b81600460008573ffffffffffffffffffffffffffffffffffffffff1673ffffffffffffffffffffffffffffffffffffffff1681526020019081526020016000206003019080519060200190612ed6929190613cc9565b5080600460008573ffffffffffffffffffffffffffffffffffffffff1673ffffffffffffffffffffffffffffffffffffffff1681526020019081526020016000206008019080519060200190612f2d929190613cc9565b50600073ffffffffffffffffffffffffffffffffffffffff168373ffffffffffffffffffffffffffffffffffffffff167ffb530d24abc3d497c3f0525ef204a66ac64d923ec30b40d17bc3a5f572cf4b8e600460008773ffffffffffffffffffffffffffffffffffffffff1673ffffffffffffffffffffffffffffffffffffffff168152602001908152602001600020604051612fca91906155b8565b60405180910390a3505050565b6060600060025467ffffffffffffffff811115612ff757612ff6614134565b5b60405190808252806020026020018201604052801561303057816020015b61301d613c6c565b8152602001906001900390816130155790505b50905060005b6002548110156131b45760006003828154811061305657613055614fb9565b5b9060005260206000200160009054906101000a900473ffffffffffffffffffffffffffffffffffffffff1690506000600160008373ffffffffffffffffffffffffffffffffffffffff1673ffffffffffffffffffffffffffffffffffffffff1681526020019081526020016000209050806040518060a001604052908160008201548152602001600182015481526020016002820160009054906101000a900460ff16600381111561310b5761310a613ee9565b5b600381111561311d5761311c613ee9565b5b81526020016002820160019054906101000a900473ffffffffffffffffffffffffffffffffffffffff1673ffffffffffffffffffffffffffffffffffffffff1673ffffffffffffffffffffffffffffffffffffffff16815260200160038201548152505084848151811061319457613193614fb9565b5b6020026020010181905250505080806131ac90615078565b915050613036565b508091505090565b6000600260048111156131d2576131d1613ee9565b5b8660048111156131e5576131e4613ee9565b5b60048111156131f7576131f6613ee9565b5b141561320257600190505b604051806101600160405280600854815260200188815260200160405180602001604052806000815250815260200187600481111561324457613243613ee9565b5b600481111561325657613255613ee9565b5b815260200186600281111561326e5761326d613ee9565b5b60028111156132805761327f613ee9565b5b815260200182600181111561329857613297613ee9565b5b81526020018573ffffffffffffffffffffffffffffffffffffffff1681526020018473ffffffffffffffffffffffffffffffffffffffff1681526020013373ffffffffffffffffffffffffffffffffffffffff16815260200142815260200183815250600760008573ffffffffffffffffffffffffffffffffffffffff1673ffffffffffffffffffffffffffffffffffffffff168152602001908152602001600020600082015181600001556020820151816001019080519060200190613360929190613cc9565b50604082015181600201908051906020019061337d929190613cc9565b5060608201518160030160006101000a81548160ff021916908360048111156133a9576133a8613ee9565b5b021790555060808201518160030160016101000a81548160ff021916908360028111156133d9576133d8613ee9565b5b021790555060a08201518160030160026101000a81548160ff0219169083600181111561340957613408613ee9565b5b021790555060c08201518160030160036101000a81548173ffffffffffffffffffffffffffffffffffffffff021916908373ffffffffffffffffffffffffffffffffffffffff16021790555060e08201518160040160006101000a81548173ffffffffffffffffffffffffffffffffffffffff021916908373ffffffffffffffffffffffffffffffffffffffff1602179055506101008201518160050160006101000a81548173ffffffffffffffffffffffffffffffffffffffff021916908373ffffffffffffffffffffffffffffffffffffffff160217905550610120820151816006015561014082015181600701908051906020019061350c929190613cc9565b509050508373ffffffffffffffffffffffffffffffffffffffff168373ffffffffffffffffffffffffffffffffffffffff167fa25a6f1ff57a050a48ae4b3a19f271fddad950cac8d165d6a2eca5d54cc8070f600760008773ffffffffffffffffffffffffffffffffffffffff1673ffffffffffffffffffffffffffffffffffffffff1681526020019081526020016000206040516135ab9190615798565b60405180910390a36009839080600181540180825580915050600190039060005260206000200160009091909190916101000a81548173ffffffffffffffffffffffffffffffffffffffff021916908373ffffffffffffffffffffffffffffffffffffffff1602179055506008600081548092919061362990615078565b919050555050505050505050565b6060600060085467ffffffffffffffff81111561365757613656614134565b5b60405190808252806020026020018201604052801561369057816020015b61367d613b9a565b8152602001906001900390816136755790505b50905060005b600854811015613ae3576000600982815481106136b6576136b5614fb9565b5b9060005260206000200160009054906101000a900473ffffffffffffffffffffffffffffffffffffffff1690506000600760008373ffffffffffffffffffffffffffffffffffffffff1673ffffffffffffffffffffffffffffffffffffffff168152602001908152602001600020905080604051806101600160405290816000820154815260200160018201805461374d90615017565b80601f016020809104026020016040519081016040528092919081815260200182805461377990615017565b80156137c65780601f1061379b576101008083540402835291602001916137c6565b820191906000526020600020905b8154815290600101906020018083116137a957829003601f168201915b505050505081526020016002820180546137df90615017565b80601f016020809104026020016040519081016040528092919081815260200182805461380b90615017565b80156138585780601f1061382d57610100808354040283529160200191613858565b820191906000526020600020905b81548152906001019060200180831161383b57829003601f168201915b505050505081526020016003820160009054906101000a900460ff16600481111561388657613885613ee9565b5b600481111561389857613897613ee9565b5b81526020016003820160019054906101000a900460ff1660028111156138c1576138c0613ee9565b5b60028111156138d3576138d2613ee9565b5b81526020016003820160029054906101000a900460ff1660018111156138fc576138fb613ee9565b5b600181111561390e5761390d613ee9565b5b81526020016003820160039054906101000a900473ffffffffffffffffffffffffffffffffffffffff1673ffffffffffffffffffffffffffffffffffffffff1673ffffffffffffffffffffffffffffffffffffffff1681526020016004820160009054906101000a900473ffffffffffffffffffffffffffffffffffffffff1673ffffffffffffffffffffffffffffffffffffffff1673ffffffffffffffffffffffffffffffffffffffff1681526020016005820160009054906101000a900473ffffffffffffffffffffffffffffffffffffffff1673ffffffffffffffffffffffffffffffffffffffff1673ffffffffffffffffffffffffffffffffffffffff16815260200160068201548152602001600782018054613a2e90615017565b80601f0160208091040260200160405190810160405280929190818152602001828054613a5a90615017565b8015613aa75780601f10613a7c57610100808354040283529160200191613aa7565b820191906000526020600020905b815481529060010190602001808311613a8a57829003601f168201915b505050505081525050848481518110613ac357613ac2614fb9565b5b602002602001018190525050508080613adb90615078565b915050613696565b508091505090565b60055481565b604051806101400160405280600081526020016060815260200160006004811115613b1f57613b1e613ee9565b5b815260200160608152602001600073ffffffffffffffffffffffffffffffffffffffff168152602001600073ffffffffffffffffffffffffffffffffffffffff168152602001600073ffffffffffffffffffffffffffffffffffffffff16815260200160001515815260200160008152602001606081525090565b60405180610160016040528060008152602001606081526020016060815260200160006004811115613bcf57613bce613ee9565b5b815260200160006002811115613be857613be7613ee9565b5b815260200160006001811115613c0157613c00613ee9565b5b8152602001600073ffffffffffffffffffffffffffffffffffffffff168152602001600073ffffffffffffffffffffffffffffffffffffffff168152602001600073ffffffffffffffffffffffffffffffffffffffff16815260200160008152602001606081525090565b6040518060a00160405280600080191681526020016000801916815260200160006003811115613c9f57613c9e613ee9565b5b8152602001600073ffffffffffffffffffffffffffffffffffffffff168152602001600081525090565b828054613cd590615017565b90600052602060002090601f016020900481019282613cf75760008555613d3e565b82601f10613d1057805160ff1916838001178555613d3e565b82800160010185558215613d3e579182015b82811115613d3d578251825591602001919060010190613d22565b5b509050613d4b9190613d4f565b5090565b5b80821115613d68576000816000905550600101613d50565b5090565b6000604051905090565b600080fd5b600080fd5b600073ffffffffffffffffffffffffffffffffffffffff82169050919050565b6000613dab82613d80565b9050919050565b613dbb81613da0565b8114613dc657600080fd5b50565b600081359050613dd881613db2565b92915050565b600060208284031215613df457613df3613d76565b5b6000613e0284828501613dc9565b91505092915050565b600081519050919050565b600082825260208201905092915050565b6000819050602082019050919050565b6000819050919050565b613e4a81613e37565b82525050565b600081519050919050565b600082825260208201905092915050565b60005b83811015613e8a578082015181840152602081019050613e6f565b83811115613e99576000848401525b50505050565b6000601f19601f8301169050919050565b6000613ebb82613e50565b613ec58185613e5b565b9350613ed5818560208601613e6c565b613ede81613e9f565b840191505092915050565b7f4e487b7100000000000000000000000000000000000000000000000000000000600052602160045260246000fd5b60058110613f2957613f28613ee9565b5b50565b6000819050613f3a82613f18565b919050565b6000613f4a82613f2c565b9050919050565b613f5a81613f3f565b82525050565b613f6981613da0565b82525050565b60008115159050919050565b613f8481613f6f565b82525050565b600061014083016000830151613fa36000860182613e41565b5060208301518482036020860152613fbb8282613eb0565b9150506040830151613fd06040860182613f51565b5060608301518482036060860152613fe88282613eb0565b9150506080830151613ffd6080860182613f60565b5060a083015161401060a0860182613f60565b5060c083015161402360c0860182613f60565b5060e083015161403660e0860182613f7b565b5061010083015161404b610100860182613e41565b506101208301518482036101208601526140658282613eb0565b9150508091505092915050565b600061407e8383613f8a565b905092915050565b6000602082019050919050565b600061409e82613e0b565b6140a88185613e16565b9350836020820285016140ba85613e27565b8060005b858110156140f657848403895281516140d78582614072565b94506140e283614086565b925060208a019950506001810190506140be565b50829750879550505050505092915050565b600060208201905081810360008301526141228184614093565b905092915050565b600080fd5b600080fd5b7f4e487b7100000000000000000000000000000000000000000000000000000000600052604160045260246000fd5b61416c82613e9f565b810181811067ffffffffffffffff8211171561418b5761418a614134565b5b80604052505050565b600061419e613d6c565b90506141aa8282614163565b919050565b600067ffffffffffffffff8211156141ca576141c9614134565b5b6141d382613e9f565b9050602081019050919050565b82818337600083830152505050565b60006142026141fd846141af565b614194565b90508281526020810184848401111561421e5761421d61412f565b5b6142298482856141e0565b509392505050565b600082601f8301126142465761424561412a565b5b81356142568482602086016141ef565b91505092915050565b61426881613e37565b811461427357600080fd5b50565b6000813590506142858161425f565b92915050565b600080604083850312156142a2576142a1613d76565b5b600083013567ffffffffffffffff8111156142c0576142bf613d7b565b5b6142cc85828601614231565b92505060206142dd85828601614276565b9150509250929050565b6142f081613da0565b82525050565b600060208201905061430b60008301846142e7565b92915050565b6000819050919050565b61432481614311565b811461432f57600080fd5b50565b6000813590506143418161431b565b92915050565b6000806000806080858703121561436157614360613d76565b5b600061436f87828801614332565b945050602061438087828801614332565b935050604061439187828801614276565b92505060606143a287828801613dc9565b91505092959194509250565b600080604083850312156143c5576143c4613d76565b5b60006143d385828601613dc9565b92505060206143e485828601613dc9565b9150509250929050565b600381106143ff576143fe613ee9565b5b50565b6000819050614410826143ee565b919050565b600061442082614402565b9050919050565b61443081614415565b82525050565b6002811061444757614446613ee9565b5b50565b600081905061445882614436565b919050565b60006144688261444a565b9050919050565b6144788161445d565b82525050565b6000610160830160008301516144976000860182613e41565b50602083015184820360208601526144af8282613eb0565b915050604083015184820360408601526144c98282613eb0565b91505060608301516144de6060860182613f51565b5060808301516144f16080860182614427565b5060a083015161450460a086018261446f565b5060c083015161451760c0860182613f60565b5060e083015161452a60e0860182613f60565b5061010083015161453f610100860182613f60565b50610120830151614554610120860182613e41565b5061014083015184820361014086015261456e8282613eb0565b9150508091505092915050565b60006020820190508181036000830152614595818461447e565b905092915050565b6000610140830160008301516145b66000860182613e41565b50602083015184820360208601526145ce8282613eb0565b91505060408301516145e36040860182613f51565b50606083015184820360608601526145fb8282613eb0565b91505060808301516146106080860182613f60565b5060a083015161462360a0860182613f60565b5060c083015161463660c0860182613f60565b5060e083015161464960e0860182613f7b565b5061010083015161465e610100860182613e41565b506101208301518482036101208601526146788282613eb0565b9150508091505092915050565b6000602082019050818103600083015261469f818461459d565b905092915050565b6000602082840312156146bd576146bc613d76565b5b60006146cb84828501614276565b91505092915050565b6146dd81614311565b82525050565b600481106146f4576146f3613ee9565b5b50565b6000819050614705826146e3565b919050565b6000614715826146f7565b9050919050565b6147258161470a565b82525050565b60a08201600082015161474160008501826146d4565b50602082015161475460208501826146d4565b506040820151614767604085018261471c565b50606082015161477a6060850182613f60565b50608082015161478d6080850182613e41565b50505050565b600060a0820190506147a8600083018461472b565b92915050565b6147b781613e37565b82525050565b60006020820190506147d260008301846147ae565b92915050565b600082825260208201905092915050565b60006147f482613e50565b6147fe81856147d8565b935061480e818560208601613e6c565b61481781613e9f565b840191505092915050565b61482b81613f3f565b82525050565b61483a81614415565b82525050565b6148498161445d565b82525050565b600061016082019050614865600083018e6147ae565b8181036020830152614877818d6147e9565b9050818103604083015261488b818c6147e9565b905061489a606083018b614822565b6148a7608083018a614831565b6148b460a0830189614840565b6148c160c08301886142e7565b6148ce60e08301876142e7565b6148dc6101008301866142e7565b6148ea6101208301856147ae565b8181036101408301526148fd81846147e9565b90509c9b505050505050505050505050565b61491881613f6f565b82525050565b600061014082019050614934600083018d6147ae565b8181036020830152614946818c6147e9565b9050614955604083018b614822565b8181036060830152614967818a6147e9565b905061497660808301896142e7565b61498360a08301886142e7565b61499060c08301876142e7565b61499d60e083018661490f565b6149ab6101008301856147ae565b8181036101208301526149be81846147e9565b90509b9a5050505050505050505050565b600080600080600060a086880312156149eb576149ea613d76565b5b60006149f988828901613dc9565b955050602086013567ffffffffffffffff811115614a1a57614a19613d7b565b5b614a2688828901614231565b9450506040614a3788828901614276565b935050606086013567ffffffffffffffff811115614a5857614a57613d7b565b5b614a6488828901614231565b925050608086013567ffffffffffffffff811115614a8557614a84613d7b565b5b614a9188828901614231565b9150509295509295909350565b60008060008060008060c08789031215614abb57614aba613d76565b5b600087013567ffffffffffffffff811115614ad957614ad8613d7b565b5b614ae589828a01614231565b9650506020614af689828a01614276565b9550506040614b0789828a01614276565b9450506060614b1889828a01613dc9565b9350506080614b2989828a01613dc9565b92505060a087013567ffffffffffffffff811115614b4a57614b49613d7b565b5b614b5689828a01614231565b9150509295509295509295565b600081519050919050565b600082825260208201905092915050565b6000819050602082019050919050565b600061016083016000830151614ba86000860182613e41565b5060208301518482036020860152614bc08282613eb0565b91505060408301518482036040860152614bda8282613eb0565b9150506060830151614bef6060860182613f51565b506080830151614c026080860182614427565b5060a0830151614c1560a086018261446f565b5060c0830151614c2860c0860182613f60565b5060e0830151614c3b60e0860182613f60565b50610100830151614c50610100860182613f60565b50610120830151614c65610120860182613e41565b50610140830151848203610140860152614c7f8282613eb0565b9150508091505092915050565b6000614c988383614b8f565b905092915050565b6000602082019050919050565b6000614cb882614b63565b614cc28185614b6e565b935083602082028501614cd485614b7f565b8060005b85811015614d105784840389528151614cf18582614c8c565b9450614cfc83614ca0565b925060208a01995050600181019050614cd8565b50829750879550505050505092915050565b60006020820190508181036000830152614d3c8184614cad565b905092915050565b60008060408385031215614d5b57614d5a613d76565b5b6000614d6985828601614276565b9250506020614d7a85828601613dc9565b9150509250929050565b614d8d81614311565b82525050565b614d9c8161470a565b82525050565b600060a082019050614db76000830188614d84565b614dc46020830187614d84565b614dd16040830186614d93565b614dde60608301856142e7565b614deb60808301846147ae565b9695505050505050565b600080600060608486031215614e0e57614e0d613d76565b5b6000614e1c86828701613dc9565b935050602084013567ffffffffffffffff811115614e3d57614e3c613d7b565b5b614e4986828701614231565b925050604084013567ffffffffffffffff811115614e6a57614e69613d7b565b5b614e7686828701614231565b9150509250925092565b600081519050919050565b600082825260208201905092915050565b6000819050602082019050919050565b60a082016000820151614ec260008501826146d4565b506020820151614ed560208501826146d4565b506040820151614ee8604085018261471c565b506060820151614efb6060850182613f60565b506080820151614f0e6080850182613e41565b50505050565b6000614f208383614eac565b60a08301905092915050565b6000602082019050919050565b6000614f4482614e80565b614f4e8185614e8b565b9350614f5983614e9c565b8060005b83811015614f8a578151614f718882614f14565b9750614f7c83614f2c565b925050600181019050614f5d565b5085935050505092915050565b60006020820190508181036000830152614fb18184614f39565b905092915050565b7f4e487b7100000000000000000000000000000000000000000000000000000000600052603260045260246000fd5b7f4e487b7100000000000000000000000000000000000000000000000000000000600052602260045260246000fd5b6000600282049050600182168061502f57607f821691505b6020821081141561504357615042614fe8565b5b50919050565b7f4e487b7100000000000000000000000000000000000000000000000000000000600052601160045260246000fd5b600061508382613e37565b91507fffffffffffffffffffffffffffffffffffffffffffffffffffffffffffffffff8214156150b6576150b5615049565b5b600182019050919050565b600081905092915050565b60006150d782613e50565b6150e181856150c1565b93506150f1818560208601613e6c565b80840191505092915050565b60008160601b9050919050565b6000615115826150fd565b9050919050565b60006151278261510a565b9050919050565b61513f61513a82613da0565b61511c565b82525050565b6000819050919050565b61516061515b82613e37565b615145565b82525050565b600061517282866150cc565b915061517e828561512e565b60148201915061518e828461514f565b602082019150819050949350505050565b7f596f7520617265206e6f7420616e206f776e65722e0000000000000000000000600082015250565b60006151d56015836147d8565b91506151e08261519f565b602082019050919050565b60006020820190508181036000830152615204816151c8565b9050919050565b60008160001c9050919050565b6000819050919050565b60006152356152308361520b565b615218565b9050919050565b600060ff82169050919050565b600061525c6152578361520b565b61523c565b9050919050565b60008160081c9050919050565b600073ffffffffffffffffffffffffffffffffffffffff82169050919050565b60006152a361529e83615263565b615270565b9050919050565b6000819050919050565b60006152c76152c28361520b565b6152aa565b9050919050565b60a0820160008083015490506152e381615222565b6152f060008601826146d4565b506001830154905061530181615222565b61530e60208601826146d4565b506002830154905061531f81615249565b61532c604086018261471c565b5061533681615290565b6153436060860182613f60565b5060038301549050615354816152b4565b6153616080860182613e41565b5050505050565b600060a08201905061537d60008301846152ce565b92915050565b60008190508160005260206000209050919050565b600081546153a581615017565b6153af8186613e5b565b945060018216600081146153ca57600181146153dc5761540f565b60ff198316865260208601935061540f565b6153e585615383565b60005b83811015615407578154818901526001820191506020810190506153e8565b808801955050505b50505092915050565b600060ff82169050919050565b60006154386154338361520b565b615418565b9050919050565b600061545261544d8361520b565b615270565b9050919050565b60008160a01c9050919050565b600060ff82169050919050565b600061548661548183615459565b615466565b9050919050565b6000610140830160008084015490506154a5816152b4565b6154b26000870182613e41565b506001840185830360208701526154c98382615398565b925050600284015490506154dc81615425565b6154e96040870182613f51565b506003840185830360608701526155008382615398565b925050600484015490506155138161543f565b6155206080870182613f60565b50600584015490506155318161543f565b61553e60a0870182613f60565b506006840154905061554f8161543f565b61555c60c0870182613f60565b5061556681615473565b61557360e0870182613f7b565b5060078401549050615584816152b4565b615592610100870182613e41565b50600884018583036101208701526155aa8382615398565b925050819250505092915050565b600060208201905081810360008301526155d2818461548d565b905092915050565b600060ff82169050919050565b60006155fa6155f583615263565b6155da565b9050919050565b60008160101c9050919050565b600060ff82169050919050565b600061562e61562983615601565b61560e565b9050919050565b60008160181c9050919050565b600061565561565083615635565b615270565b9050919050565b600061016083016000808401549050615674816152b4565b6156816000870182613e41565b506001840185830360208701526156988382615398565b9250506002840185830360408701526156b18382615398565b925050600384015490506156c481615425565b6156d16060870182613f51565b506156db816155e7565b6156e86080870182614427565b506156f28161561b565b6156ff60a087018261446f565b5061570981615642565b61571660c0870182613f60565b50600484015490506157278161543f565b61573460e0870182613f60565b50600584015490506157458161543f565b615753610100870182613f60565b5060068401549050615764816152b4565b615772610120870182613e41565b506007840185830361014087015261578a8382615398565b925050819250505092915050565b600060208201905081810360008301526157b2818461565c565b90509291505056fea2646970667358221220427f8fafb6a579a0b75a6ad0fa5f185eb3dfc27c68487666038a8761fcd5896564736f6c634300080a0033",
  "immutableReferences": {},
  "source": "// SPDX-License-Identifier: MIT\r\npragma solidity >=0.8.0 <0.9.0;\r\n\r\nimport \"./UserChain.sol\";\r\n\r\ncontract ProjectChain is UserChain {\r\n\r\n    constructor() {\r\n    }\r\n\r\n    modifier onlyUserProject() {\r\n        // User memory sessionUser = userChain.getUserInfo(msg.sender);\r\n        // require(\r\n        //     sessionUser._role == Roles.UserProject,\r\n        //     \"You don't have the rights for this resource.\"\r\n        // );\r\n        _;\r\n    }\r\n\r\n    modifier onlySupervisor() {\r\n        // User memory sessionUser = userChain.getUserInfo(msg.sender);\r\n        // require(\r\n        //     sessionUser._role == Roles.Supervisor,\r\n        //     \"You don't have the rights for this resource.\"\r\n        // );\r\n        _;\r\n    }\r\n\r\n    modifier onlyCompany() {\r\n        // User memory sessionUser = userChain.getUserInfo(msg.sender);\r\n        // require(\r\n        //     sessionUser._role == Roles.Company,\r\n        //     \"You don't have the rights for this resource.\"\r\n        // );\r\n        _;\r\n    }\r\n\r\n\r\n    /**  PROJECT INITIATOR  */\r\n\r\n    mapping(address => Project) public projects;\r\n    uint256 public projectsCounter = 0;\r\n    address[] public projectsAddress;\r\n\r\n    function createUniqueProjectAddress(string memory _name, uint256 _index) public view returns (address) {\r\n        return address(uint160(uint256(keccak256(abi.encodePacked(_name, msg.sender, _index)))));\r\n    }\r\n\r\n    function createProject(\r\n        address _projectAddress,\r\n        string memory _name,\r\n        uint256 _status,\r\n        string memory _ipfsFileCID,\r\n        string memory _signature\r\n    ) public onlyUserProject {\r\n        projects[_projectAddress] = Project(\r\n            projectsCounter,\r\n            _name,\r\n            ProjectStatus(_status),\r\n            _ipfsFileCID,\r\n            _projectAddress,\r\n            msg.sender,\r\n            address(0x0),\r\n            false,\r\n            block.timestamp,\r\n            _signature\r\n        );\r\n\r\n        emit ProjectEvent(projects[_projectAddress], _projectAddress, address(0x0));\r\n        projectsAddress.push(_projectAddress);\r\n        projectsCounter++;\r\n    }\r\n\r\n    function updateProject(\r\n        address _projectAddress,\r\n        string memory _ipfsFileCID,\r\n        string memory _signature\r\n    ) public onlyUserProject {\r\n        projects[_projectAddress]._ipfsFileCID = _ipfsFileCID;\r\n        projects[_projectAddress]._signature = _signature;\r\n\r\n        emit ProjectEvent(projects[_projectAddress], _projectAddress, address(0x0));\r\n    }\r\n\r\n    function getProjectInfo(address _address)\r\n        public\r\n        view\r\n        returns (Project memory)\r\n    {\r\n        //require(msg.sender != address(0x0), \"Address is not valid.\");\r\n        return projects[_address];\r\n    }\r\n\r\n    function getProjectsByUser(address _walletAddress) public view returns (Project[] memory) {\r\n        Project[] memory allProjects;\r\n        if (projectsCounter == 0) return allProjects;\r\n\r\n        allProjects = new Project[](projectsCounter);\r\n        for (uint256 index = 0; index < projectsCounter; index++) {\r\n            address _projectAddress = projectsAddress[index];\r\n            if (_walletAddress == projects[_projectAddress]._signerAddress) {\r\n                Project storage project = projects[_projectAddress];\r\n                allProjects[index] = project;\r\n            }\r\n        }\r\n        return allProjects;\r\n    }\r\n\r\n    function getProjectsByCompany(address _companyAddress) public view returns (Project[] memory) {\r\n        Project[] memory allProjects;\r\n        if (projectsCounter == 0) return allProjects;\r\n\r\n        allProjects = new Project[](projectsCounter);\r\n        for (uint256 index = 0; index < projectsCounter; index++) {\r\n            address _projectAddress = projectsAddress[index];\r\n            if (_companyAddress == projects[_projectAddress]._companyAddress) {\r\n                Project storage project = projects[_projectAddress];\r\n                allProjects[index] = project;\r\n            }\r\n        }\r\n        return allProjects;\r\n    }\r\n\r\n\r\n    /**  Requests  */\r\n\r\n    mapping(address => Request) public requests;\r\n    uint256 public requestsCounter = 0;\r\n    address[] public requestsAddress;\r\n\r\n    function createUniqueRequestAddress(string memory _title, uint256 _index) public view returns (address) {\r\n        return address(uint160(uint256(keccak256(abi.encodePacked(_title, msg.sender, _index)))));\r\n    }\r\n\r\n    function createRequest(\r\n        string memory _title,\r\n        uint256 _projectStatus,\r\n        uint256 _requestStatus,\r\n        address _projectAddress,\r\n        address _requestAddress,\r\n        string memory _signature\r\n    ) public {\r\n        //require(projects[_projectAddress]._status == ProjectStatus.Created, \"Steps must follow accordingly\");\r\n\r\n        RequestType _requestType = RequestType.SupervisorReq;\r\n        if (ProjectStatus(_projectStatus) == ProjectStatus.StartProject) {\r\n            _requestType = RequestType.CompanyReq;\r\n        }\r\n\r\n        requests[_requestAddress] = Request(\r\n            requestsCounter,\r\n            _title,\r\n            \"\",\r\n            ProjectStatus(_projectStatus),\r\n            RequestStatus(_requestStatus),\r\n            RequestType(_requestType),\r\n            _projectAddress,\r\n            _requestAddress,\r\n            msg.sender,\r\n            block.timestamp,\r\n            _signature\r\n        );\r\n\r\n        emit RequestEvent(requests[_requestAddress], _requestAddress, _projectAddress);\r\n        requestsAddress.push(_requestAddress);\r\n        requestsCounter++;\r\n    }\r\n\r\n    function updateRequest(\r\n        string memory _comments,\r\n        uint256 _requestStatus,\r\n        uint256 _projectStatus,\r\n        address _projectAddress,\r\n        address _requestAddress,\r\n        string memory _signature\r\n    ) public {\r\n        // Update Requests Mapping and Struct Array\r\n        requests[_requestAddress]._comments = _comments;\r\n        requests[_requestAddress]._requestStatus = RequestStatus(_requestStatus);\r\n        requests[_requestAddress]._signature = _signature;\r\n        emit RequestEvent(requests[_requestAddress], _requestAddress, _projectAddress);\r\n\r\n        // Update Project Mapping and Struct Array\r\n        //if (RequestStatus.Approved == RequestStatus(_requestStatus)) {\r\n            projects[_projectAddress]._status = ProjectStatus(_projectStatus);\r\n            emit ProjectEvent(projects[_projectAddress], _projectAddress, address(0x0));\r\n        //}\r\n    }\r\n\r\n    function getAllRequests() public view returns (Request[] memory) {\r\n        Request[] memory allRequests = new Request[](requestsCounter);\r\n        for (uint256 index = 0; index < requestsCounter; index++) {\r\n            address _requestAddress = requestsAddress[index];\r\n            Request storage request = requests[_requestAddress];\r\n            allRequests[index] = request;\r\n        }\r\n        return allRequests;\r\n    }\r\n\r\n    function getProjectRequests(address _projectAddress) public view returns (Request[] memory) {\r\n        Request[] memory allRequests;\r\n        for (uint256 index = 0; index < requestsCounter; index++) {\r\n            address _requestAddress = requestsAddress[index];\r\n            Request storage request = requests[_requestAddress];\r\n            if (_projectAddress == request._projectAddress) {\r\n                allRequests[index] = request;\r\n            }\r\n        }\r\n        return allRequests;\r\n    }\r\n\r\n\r\n    function getLastProjectRequest(address _projectAddress, address _requestAddress)\r\n        public view returns (Request memory)\r\n    {\r\n        Request memory request;\r\n        if (requestsCounter > 0) {\r\n            if (requests[_requestAddress]._projectAddress == _projectAddress) {\r\n                request = requests[_requestAddress];\r\n            }\r\n        }\r\n        return request;\r\n    }\r\n\r\n\r\n\r\n}\r\n",
  "sourcePath": "/mnt/c/Users/Beniamin/source/repos/DissertationProject/contracts/ProjectChain.sol",
  "compiler": {
    "name": "solc",
    "version": "0.8.10+commit.fc410830.Emscripten.clang"
  },
  "schemaVersion": "3.4.3",
  "updatedAt": "2021-12-12T11:13:42.214Z",
  "devdoc": {
    "kind": "dev",
    "methods": {},
    "version": 1
  },
  "userdoc": {
    "kind": "user",
    "methods": {
      "projects(address)": {
        "notice": "PROJECT INITIATOR  "
      },
      "requests(address)": {
        "notice": "Requests  "
      }
    },
    "version": 1
  }
}