{
  "contractName": "ProjectChain",
  "abi": [
    {
      "inputs": [],
      "stateMutability": "nonpayable",
      "type": "constructor"
    },
    {
      "anonymous": false,
      "inputs": [
        {
          "components": [
            {
              "internalType": "uint256",
              "name": "_index",
              "type": "uint256"
            },
            {
              "internalType": "string",
              "name": "_name",
              "type": "string"
            },
            {
              "internalType": "enum SharedChain.ProjectStatus",
              "name": "_status",
              "type": "uint8"
            },
            {
              "internalType": "string",
              "name": "_ipfsFileCID",
              "type": "string"
            },
            {
              "internalType": "address",
              "name": "_projectAddress",
              "type": "address"
            },
            {
              "internalType": "address",
              "name": "_signerAddress",
              "type": "address"
            },
            {
              "internalType": "address",
              "name": "_companyAddress",
              "type": "address"
            },
            {
              "internalType": "bool",
              "name": "_assigned",
              "type": "bool"
            },
            {
              "internalType": "uint256",
              "name": "_timestamp",
              "type": "uint256"
            },
            {
              "internalType": "string",
              "name": "_signature",
              "type": "string"
            }
          ],
          "indexed": false,
          "internalType": "struct SharedChain.Project",
          "name": "_project",
          "type": "tuple"
        },
        {
          "indexed": true,
          "internalType": "address",
          "name": "_projectAddress",
          "type": "address"
        },
        {
          "indexed": true,
          "internalType": "address",
          "name": "_companyAddress",
          "type": "address"
        }
      ],
      "name": "ProjectEvent",
      "type": "event"
    },
    {
      "anonymous": false,
      "inputs": [
        {
          "components": [
            {
              "internalType": "uint256",
              "name": "_index",
              "type": "uint256"
            },
            {
              "internalType": "string",
              "name": "_title",
              "type": "string"
            },
            {
              "internalType": "string",
              "name": "_comments",
              "type": "string"
            },
            {
              "internalType": "enum SharedChain.ProjectStatus",
              "name": "_projectStatus",
              "type": "uint8"
            },
            {
              "internalType": "enum SharedChain.RequestStatus",
              "name": "_requestStatus",
              "type": "uint8"
            },
            {
              "internalType": "enum SharedChain.RequestType",
              "name": "_requestType",
              "type": "uint8"
            },
            {
              "internalType": "address",
              "name": "_projectAddress",
              "type": "address"
            },
            {
              "internalType": "address",
              "name": "_requestAddress",
              "type": "address"
            },
            {
              "internalType": "address",
              "name": "_signerAddress",
              "type": "address"
            },
            {
              "internalType": "uint256",
              "name": "_timestamp",
              "type": "uint256"
            },
            {
              "internalType": "string",
              "name": "_signature",
              "type": "string"
            }
          ],
          "indexed": false,
          "internalType": "struct SharedChain.Request",
          "name": "_request",
          "type": "tuple"
        },
        {
          "indexed": true,
          "internalType": "address",
          "name": "_requestAddress",
          "type": "address"
        },
        {
          "indexed": true,
          "internalType": "address",
          "name": "_projectAddress",
          "type": "address"
        }
      ],
      "name": "RequestEvent",
      "type": "event"
    },
    {
      "anonymous": false,
      "inputs": [
        {
          "components": [
            {
              "internalType": "uint256",
              "name": "_index",
              "type": "uint256"
            },
            {
              "internalType": "string",
              "name": "_username",
              "type": "string"
            },
            {
              "internalType": "bytes32",
              "name": "_email",
              "type": "bytes32"
            },
            {
              "internalType": "bytes32",
              "name": "_firstname",
              "type": "bytes32"
            },
            {
              "internalType": "bytes32",
              "name": "_lastname",
              "type": "bytes32"
            },
            {
              "internalType": "enum SharedChain.Roles",
              "name": "_role",
              "type": "uint8"
            },
            {
              "internalType": "address",
              "name": "_walletAddress",
              "type": "address"
            },
            {
              "internalType": "uint256",
              "name": "_timestamp",
              "type": "uint256"
            },
            {
              "internalType": "string",
              "name": "_signature",
              "type": "string"
            }
          ],
          "indexed": false,
          "internalType": "struct SharedChain.User",
          "name": "_user",
          "type": "tuple"
        },
        {
          "indexed": true,
          "internalType": "address",
          "name": "_walletAddress",
          "type": "address"
        }
      ],
      "name": "UserEvent",
      "type": "event"
    },
    {
      "inputs": [
        {
          "internalType": "address",
          "name": "",
          "type": "address"
        }
      ],
      "name": "projects",
      "outputs": [
        {
          "internalType": "uint256",
          "name": "_index",
          "type": "uint256"
        },
        {
          "internalType": "string",
          "name": "_name",
          "type": "string"
        },
        {
          "internalType": "enum SharedChain.ProjectStatus",
          "name": "_status",
          "type": "uint8"
        },
        {
          "internalType": "string",
          "name": "_ipfsFileCID",
          "type": "string"
        },
        {
          "internalType": "address",
          "name": "_projectAddress",
          "type": "address"
        },
        {
          "internalType": "address",
          "name": "_signerAddress",
          "type": "address"
        },
        {
          "internalType": "address",
          "name": "_companyAddress",
          "type": "address"
        },
        {
          "internalType": "bool",
          "name": "_assigned",
          "type": "bool"
        },
        {
          "internalType": "uint256",
          "name": "_timestamp",
          "type": "uint256"
        },
        {
          "internalType": "string",
          "name": "_signature",
          "type": "string"
        }
      ],
      "stateMutability": "view",
      "type": "function",
      "constant": true
    },
    {
      "inputs": [
        {
          "internalType": "uint256",
          "name": "",
          "type": "uint256"
        }
      ],
      "name": "projectsAddress",
      "outputs": [
        {
          "internalType": "address",
          "name": "",
          "type": "address"
        }
      ],
      "stateMutability": "view",
      "type": "function",
      "constant": true
    },
    {
      "inputs": [],
      "name": "projectsCounter",
      "outputs": [
        {
          "internalType": "uint256",
          "name": "",
          "type": "uint256"
        }
      ],
      "stateMutability": "view",
      "type": "function",
      "constant": true
    },
    {
      "inputs": [
        {
          "internalType": "address",
          "name": "",
          "type": "address"
        }
      ],
      "name": "requests",
      "outputs": [
        {
          "internalType": "uint256",
          "name": "_index",
          "type": "uint256"
        },
        {
          "internalType": "string",
          "name": "_title",
          "type": "string"
        },
        {
          "internalType": "string",
          "name": "_comments",
          "type": "string"
        },
        {
          "internalType": "enum SharedChain.ProjectStatus",
          "name": "_projectStatus",
          "type": "uint8"
        },
        {
          "internalType": "enum SharedChain.RequestStatus",
          "name": "_requestStatus",
          "type": "uint8"
        },
        {
          "internalType": "enum SharedChain.RequestType",
          "name": "_requestType",
          "type": "uint8"
        },
        {
          "internalType": "address",
          "name": "_projectAddress",
          "type": "address"
        },
        {
          "internalType": "address",
          "name": "_requestAddress",
          "type": "address"
        },
        {
          "internalType": "address",
          "name": "_signerAddress",
          "type": "address"
        },
        {
          "internalType": "uint256",
          "name": "_timestamp",
          "type": "uint256"
        },
        {
          "internalType": "string",
          "name": "_signature",
          "type": "string"
        }
      ],
      "stateMutability": "view",
      "type": "function",
      "constant": true
    },
    {
      "inputs": [
        {
          "internalType": "uint256",
          "name": "",
          "type": "uint256"
        }
      ],
      "name": "requestsAddress",
      "outputs": [
        {
          "internalType": "address",
          "name": "",
          "type": "address"
        }
      ],
      "stateMutability": "view",
      "type": "function",
      "constant": true
    },
    {
      "inputs": [],
      "name": "requestsCounter",
      "outputs": [
        {
          "internalType": "uint256",
          "name": "",
          "type": "uint256"
        }
      ],
      "stateMutability": "view",
      "type": "function",
      "constant": true
    },
    {
      "inputs": [
        {
          "internalType": "string",
          "name": "_name",
          "type": "string"
        },
        {
          "internalType": "uint256",
          "name": "_index",
          "type": "uint256"
        }
      ],
      "name": "createUniqueProjectAddress",
      "outputs": [
        {
          "internalType": "address",
          "name": "",
          "type": "address"
        }
      ],
      "stateMutability": "view",
      "type": "function",
      "constant": true
    },
    {
      "inputs": [
        {
          "internalType": "address",
          "name": "_projectAddress",
          "type": "address"
        },
        {
          "internalType": "string",
          "name": "_name",
          "type": "string"
        },
        {
          "internalType": "uint256",
          "name": "_status",
          "type": "uint256"
        },
        {
          "internalType": "string",
          "name": "_ipfsFileCID",
          "type": "string"
        },
        {
          "internalType": "string",
          "name": "_signature",
          "type": "string"
        }
      ],
      "name": "createProjectByUser",
      "outputs": [],
      "stateMutability": "nonpayable",
      "type": "function"
    },
    {
      "inputs": [
        {
          "internalType": "address",
          "name": "_projectAddress",
          "type": "address"
        },
        {
          "internalType": "string",
          "name": "_ipfsFileCID",
          "type": "string"
        },
        {
          "internalType": "string",
          "name": "_signature",
          "type": "string"
        }
      ],
      "name": "updateProjectByUser",
      "outputs": [],
      "stateMutability": "nonpayable",
      "type": "function"
    },
    {
      "inputs": [
        {
          "internalType": "address",
          "name": "_address",
          "type": "address"
        }
      ],
      "name": "getProjectInfo",
      "outputs": [
        {
          "components": [
            {
              "internalType": "uint256",
              "name": "_index",
              "type": "uint256"
            },
            {
              "internalType": "string",
              "name": "_name",
              "type": "string"
            },
            {
              "internalType": "enum SharedChain.ProjectStatus",
              "name": "_status",
              "type": "uint8"
            },
            {
              "internalType": "string",
              "name": "_ipfsFileCID",
              "type": "string"
            },
            {
              "internalType": "address",
              "name": "_projectAddress",
              "type": "address"
            },
            {
              "internalType": "address",
              "name": "_signerAddress",
              "type": "address"
            },
            {
              "internalType": "address",
              "name": "_companyAddress",
              "type": "address"
            },
            {
              "internalType": "bool",
              "name": "_assigned",
              "type": "bool"
            },
            {
              "internalType": "uint256",
              "name": "_timestamp",
              "type": "uint256"
            },
            {
              "internalType": "string",
              "name": "_signature",
              "type": "string"
            }
          ],
          "internalType": "struct SharedChain.Project",
          "name": "",
          "type": "tuple"
        }
      ],
      "stateMutability": "view",
      "type": "function",
      "constant": true
    },
    {
      "inputs": [
        {
          "internalType": "address",
          "name": "_signerAddress",
          "type": "address"
        }
      ],
      "name": "getUserProjects",
      "outputs": [
        {
          "components": [
            {
              "internalType": "uint256",
              "name": "_index",
              "type": "uint256"
            },
            {
              "internalType": "string",
              "name": "_name",
              "type": "string"
            },
            {
              "internalType": "enum SharedChain.ProjectStatus",
              "name": "_status",
              "type": "uint8"
            },
            {
              "internalType": "string",
              "name": "_ipfsFileCID",
              "type": "string"
            },
            {
              "internalType": "address",
              "name": "_projectAddress",
              "type": "address"
            },
            {
              "internalType": "address",
              "name": "_signerAddress",
              "type": "address"
            },
            {
              "internalType": "address",
              "name": "_companyAddress",
              "type": "address"
            },
            {
              "internalType": "bool",
              "name": "_assigned",
              "type": "bool"
            },
            {
              "internalType": "uint256",
              "name": "_timestamp",
              "type": "uint256"
            },
            {
              "internalType": "string",
              "name": "_signature",
              "type": "string"
            }
          ],
          "internalType": "struct SharedChain.Project[]",
          "name": "",
          "type": "tuple[]"
        }
      ],
      "stateMutability": "view",
      "type": "function",
      "constant": true
    },
    {
      "inputs": [],
      "name": "getAllProjects",
      "outputs": [
        {
          "components": [
            {
              "internalType": "uint256",
              "name": "_index",
              "type": "uint256"
            },
            {
              "internalType": "string",
              "name": "_name",
              "type": "string"
            },
            {
              "internalType": "enum SharedChain.ProjectStatus",
              "name": "_status",
              "type": "uint8"
            },
            {
              "internalType": "string",
              "name": "_ipfsFileCID",
              "type": "string"
            },
            {
              "internalType": "address",
              "name": "_projectAddress",
              "type": "address"
            },
            {
              "internalType": "address",
              "name": "_signerAddress",
              "type": "address"
            },
            {
              "internalType": "address",
              "name": "_companyAddress",
              "type": "address"
            },
            {
              "internalType": "bool",
              "name": "_assigned",
              "type": "bool"
            },
            {
              "internalType": "uint256",
              "name": "_timestamp",
              "type": "uint256"
            },
            {
              "internalType": "string",
              "name": "_signature",
              "type": "string"
            }
          ],
          "internalType": "struct SharedChain.Project[]",
          "name": "",
          "type": "tuple[]"
        }
      ],
      "stateMutability": "view",
      "type": "function",
      "constant": true
    },
    {
      "inputs": [
        {
          "internalType": "string",
          "name": "_title",
          "type": "string"
        },
        {
          "internalType": "uint256",
          "name": "_index",
          "type": "uint256"
        }
      ],
      "name": "createUniqueRequestAddress",
      "outputs": [
        {
          "internalType": "address",
          "name": "",
          "type": "address"
        }
      ],
      "stateMutability": "view",
      "type": "function",
      "constant": true
    },
    {
      "inputs": [
        {
          "internalType": "string",
          "name": "_title",
          "type": "string"
        },
        {
          "internalType": "uint256",
          "name": "_projectStatus",
          "type": "uint256"
        },
        {
          "internalType": "uint256",
          "name": "_requestStatus",
          "type": "uint256"
        },
        {
          "internalType": "address",
          "name": "_projectAddress",
          "type": "address"
        },
        {
          "internalType": "address",
          "name": "_requestAddress",
          "type": "address"
        },
        {
          "internalType": "string",
          "name": "_signature",
          "type": "string"
        }
      ],
      "name": "createRequest",
      "outputs": [],
      "stateMutability": "nonpayable",
      "type": "function"
    },
    {
      "inputs": [
        {
          "internalType": "string",
          "name": "_comments",
          "type": "string"
        },
        {
          "internalType": "uint256",
          "name": "_requestStatus",
          "type": "uint256"
        },
        {
          "internalType": "uint256",
          "name": "_projectStatus",
          "type": "uint256"
        },
        {
          "internalType": "address",
          "name": "_projectAddress",
          "type": "address"
        },
        {
          "internalType": "address",
          "name": "_requestAddress",
          "type": "address"
        },
        {
          "internalType": "string",
          "name": "_signature",
          "type": "string"
        }
      ],
      "name": "updateRequest",
      "outputs": [],
      "stateMutability": "nonpayable",
      "type": "function"
    },
    {
      "inputs": [],
      "name": "getAllRequests",
      "outputs": [
        {
          "components": [
            {
              "internalType": "uint256",
              "name": "_index",
              "type": "uint256"
            },
            {
              "internalType": "string",
              "name": "_title",
              "type": "string"
            },
            {
              "internalType": "string",
              "name": "_comments",
              "type": "string"
            },
            {
              "internalType": "enum SharedChain.ProjectStatus",
              "name": "_projectStatus",
              "type": "uint8"
            },
            {
              "internalType": "enum SharedChain.RequestStatus",
              "name": "_requestStatus",
              "type": "uint8"
            },
            {
              "internalType": "enum SharedChain.RequestType",
              "name": "_requestType",
              "type": "uint8"
            },
            {
              "internalType": "address",
              "name": "_projectAddress",
              "type": "address"
            },
            {
              "internalType": "address",
              "name": "_requestAddress",
              "type": "address"
            },
            {
              "internalType": "address",
              "name": "_signerAddress",
              "type": "address"
            },
            {
              "internalType": "uint256",
              "name": "_timestamp",
              "type": "uint256"
            },
            {
              "internalType": "string",
              "name": "_signature",
              "type": "string"
            }
          ],
          "internalType": "struct SharedChain.Request[]",
          "name": "",
          "type": "tuple[]"
        }
      ],
      "stateMutability": "view",
      "type": "function",
      "constant": true
    },
    {
      "inputs": [
        {
          "internalType": "address",
          "name": "_projectAddress",
          "type": "address"
        }
      ],
      "name": "getProjectRequests",
      "outputs": [
        {
          "components": [
            {
              "internalType": "uint256",
              "name": "_index",
              "type": "uint256"
            },
            {
              "internalType": "string",
              "name": "_title",
              "type": "string"
            },
            {
              "internalType": "string",
              "name": "_comments",
              "type": "string"
            },
            {
              "internalType": "enum SharedChain.ProjectStatus",
              "name": "_projectStatus",
              "type": "uint8"
            },
            {
              "internalType": "enum SharedChain.RequestStatus",
              "name": "_requestStatus",
              "type": "uint8"
            },
            {
              "internalType": "enum SharedChain.RequestType",
              "name": "_requestType",
              "type": "uint8"
            },
            {
              "internalType": "address",
              "name": "_projectAddress",
              "type": "address"
            },
            {
              "internalType": "address",
              "name": "_requestAddress",
              "type": "address"
            },
            {
              "internalType": "address",
              "name": "_signerAddress",
              "type": "address"
            },
            {
              "internalType": "uint256",
              "name": "_timestamp",
              "type": "uint256"
            },
            {
              "internalType": "string",
              "name": "_signature",
              "type": "string"
            }
          ],
          "internalType": "struct SharedChain.Request[]",
          "name": "",
          "type": "tuple[]"
        }
      ],
      "stateMutability": "view",
      "type": "function",
      "constant": true
    },
    {
      "inputs": [
        {
          "internalType": "address",
          "name": "_projectAddress",
          "type": "address"
        },
        {
          "internalType": "address",
          "name": "_requestAddress",
          "type": "address"
        }
      ],
      "name": "getLastProjectRequest",
      "outputs": [
        {
          "components": [
            {
              "internalType": "uint256",
              "name": "_index",
              "type": "uint256"
            },
            {
              "internalType": "string",
              "name": "_title",
              "type": "string"
            },
            {
              "internalType": "string",
              "name": "_comments",
              "type": "string"
            },
            {
              "internalType": "enum SharedChain.ProjectStatus",
              "name": "_projectStatus",
              "type": "uint8"
            },
            {
              "internalType": "enum SharedChain.RequestStatus",
              "name": "_requestStatus",
              "type": "uint8"
            },
            {
              "internalType": "enum SharedChain.RequestType",
              "name": "_requestType",
              "type": "uint8"
            },
            {
              "internalType": "address",
              "name": "_projectAddress",
              "type": "address"
            },
            {
              "internalType": "address",
              "name": "_requestAddress",
              "type": "address"
            },
            {
              "internalType": "address",
              "name": "_signerAddress",
              "type": "address"
            },
            {
              "internalType": "uint256",
              "name": "_timestamp",
              "type": "uint256"
            },
            {
              "internalType": "string",
              "name": "_signature",
              "type": "string"
            }
          ],
          "internalType": "struct SharedChain.Request",
          "name": "",
          "type": "tuple"
        }
      ],
      "stateMutability": "view",
      "type": "function",
      "constant": true
    }
  ],
  "bytecode": "0x60806040526000600255600060055534801561001a57600080fd5b506149258061002a6000396000f3fe608060405234801561001057600080fd5b50600436106101165760003560e01c806380d03829116100a2578063e32e723c11610071578063e32e723c14610352578063e617385f14610382578063f7a4cd6d1461039e578063fb1a002a146103ba578063fe360ea5146103d857610116565b806380d03829146102af578063840e78fd146102cd57806387edbec7146103065780638eb0717a1461032257610116565b806347ee45b9116100e957806347ee45b9146101c757806356a3eead146101f7578063663c22691461022757806374adad1d1461024557806376c932e01461027f57610116565b8063036342a21461011b578063191e1645146101375780633b4ec4f8146101675780634488471014610197575b600080fd5b61013560048036038101906101309190613576565b6103f6565b005b610151600480360381019061014c9190613645565b6107a2565b60405161015e91906136b0565b60405180910390f35b610181600480360381019061017c9190613645565b6107da565b60405161018e91906136b0565b60405180910390f35b6101b160048036038101906101ac91906136cb565b610812565b6040516101be91906139b5565b60405180910390f35b6101e160048036038101906101dc91906139d7565b610c99565b6040516101ee9190613b07565b60405180910390f35b610211600480360381019061020c9190613b29565b611015565b60405161021e91906136b0565b60405180910390f35b61022f611054565b60405161023c9190613b65565b60405180910390f35b61025f600480360381019061025a91906139d7565b61105a565b6040516102769b9a99989796959493929190613bf7565b60405180910390f35b61029960048036038101906102949190613b29565b6112d3565b6040516102a691906136b0565b60405180910390f35b6102b7611312565b6040516102c49190613e61565b60405180910390f35b6102e760048036038101906102e291906139d7565b61177f565b6040516102fd9a99989796959493929190613e92565b60405180910390f35b610320600480360381019061031b9190613f43565b6119e5565b005b61033c600480360381019061033791906139d7565b611d19565b60405161034991906141c7565b60405180910390f35b61036c600480360381019061036791906139d7565b6121cf565b6040516103799190613e61565b60405180910390f35b61039c60048036038101906103979190613f43565b6126d5565b005b6103b860048036038101906103b391906141e9565b612b59565b005b6103c2612cb0565b6040516103cf91906141c7565b60405180910390f35b6103e0613164565b6040516103ed9190613b65565b60405180910390f35b6040518061014001604052806002548152602001858152602001846004811115610423576104226137a2565b5b6004811115610435576104346137a2565b5b81526020018381526020018673ffffffffffffffffffffffffffffffffffffffff1681526020013373ffffffffffffffffffffffffffffffffffffffff168152602001600073ffffffffffffffffffffffffffffffffffffffff16815260200160001515815260200142815260200182815250600160008773ffffffffffffffffffffffffffffffffffffffff1673ffffffffffffffffffffffffffffffffffffffff16815260200190815260200160002060008201518160000155602082015181600101908051906020019061050d92919061316a565b5060408201518160020160006101000a81548160ff02191690836004811115610539576105386137a2565b5b0217905550606082015181600301908051906020019061055a92919061316a565b5060808201518160040160006101000a81548173ffffffffffffffffffffffffffffffffffffffff021916908373ffffffffffffffffffffffffffffffffffffffff16021790555060a08201518160050160006101000a81548173ffffffffffffffffffffffffffffffffffffffff021916908373ffffffffffffffffffffffffffffffffffffffff16021790555060c08201518160060160006101000a81548173ffffffffffffffffffffffffffffffffffffffff021916908373ffffffffffffffffffffffffffffffffffffffff16021790555060e08201518160060160146101000a81548160ff021916908315150217905550610100820151816007015561012082015181600801908051906020019061067892919061316a565b50905050600073ffffffffffffffffffffffffffffffffffffffff168573ffffffffffffffffffffffffffffffffffffffff167ffb530d24abc3d497c3f0525ef204a66ac64d923ec30b40d17bc3a5f572cf4b8e600160008973ffffffffffffffffffffffffffffffffffffffff1673ffffffffffffffffffffffffffffffffffffffff168152602001908152602001600020604051610718919061455b565b60405180910390a36003859080600181540180825580915050600190039060005260206000200160009091909190916101000a81548173ffffffffffffffffffffffffffffffffffffffff021916908373ffffffffffffffffffffffffffffffffffffffff16021790555060026000815480929190610796906145ac565b91905055505050505050565b60008233836040516020016107b99392919061469a565b6040516020818303038152906040528051906020012060001c905092915050565b60008233836040516020016107f19392919061469a565b6040516020818303038152906040528051906020012060001c905092915050565b61081a6131f0565b6108226131f0565b60006005541115610c8f578373ffffffffffffffffffffffffffffffffffffffff16600460008573ffffffffffffffffffffffffffffffffffffffff1673ffffffffffffffffffffffffffffffffffffffff16815260200190815260200160002060030160039054906101000a900473ffffffffffffffffffffffffffffffffffffffff1673ffffffffffffffffffffffffffffffffffffffff161415610c8e57600460008473ffffffffffffffffffffffffffffffffffffffff1673ffffffffffffffffffffffffffffffffffffffff1681526020019081526020016000206040518061016001604052908160008201548152602001600182018054610928906142d4565b80601f0160208091040260200160405190810160405280929190818152602001828054610954906142d4565b80156109a15780601f10610976576101008083540402835291602001916109a1565b820191906000526020600020905b81548152906001019060200180831161098457829003601f168201915b505050505081526020016002820180546109ba906142d4565b80601f01602080910402602001604051908101604052809291908181526020018280546109e6906142d4565b8015610a335780601f10610a0857610100808354040283529160200191610a33565b820191906000526020600020905b815481529060010190602001808311610a1657829003601f168201915b505050505081526020016003820160009054906101000a900460ff166004811115610a6157610a606137a2565b5b6004811115610a7357610a726137a2565b5b81526020016003820160019054906101000a900460ff166002811115610a9c57610a9b6137a2565b5b6002811115610aae57610aad6137a2565b5b81526020016003820160029054906101000a900460ff166001811115610ad757610ad66137a2565b5b6001811115610ae957610ae86137a2565b5b81526020016003820160039054906101000a900473ffffffffffffffffffffffffffffffffffffffff1673ffffffffffffffffffffffffffffffffffffffff1673ffffffffffffffffffffffffffffffffffffffff1681526020016004820160009054906101000a900473ffffffffffffffffffffffffffffffffffffffff1673ffffffffffffffffffffffffffffffffffffffff1673ffffffffffffffffffffffffffffffffffffffff1681526020016005820160009054906101000a900473ffffffffffffffffffffffffffffffffffffffff1673ffffffffffffffffffffffffffffffffffffffff1673ffffffffffffffffffffffffffffffffffffffff16815260200160068201548152602001600782018054610c09906142d4565b80601f0160208091040260200160405190810160405280929190818152602001828054610c35906142d4565b8015610c825780601f10610c5757610100808354040283529160200191610c82565b820191906000526020600020905b815481529060010190602001808311610c6557829003601f168201915b50505050508152505090505b5b8091505092915050565b610ca16132c2565b600160008373ffffffffffffffffffffffffffffffffffffffff1673ffffffffffffffffffffffffffffffffffffffff1681526020019081526020016000206040518061014001604052908160008201548152602001600182018054610d06906142d4565b80601f0160208091040260200160405190810160405280929190818152602001828054610d32906142d4565b8015610d7f5780601f10610d5457610100808354040283529160200191610d7f565b820191906000526020600020905b815481529060010190602001808311610d6257829003601f168201915b505050505081526020016002820160009054906101000a900460ff166004811115610dad57610dac6137a2565b5b6004811115610dbf57610dbe6137a2565b5b8152602001600382018054610dd3906142d4565b80601f0160208091040260200160405190810160405280929190818152602001828054610dff906142d4565b8015610e4c5780601f10610e2157610100808354040283529160200191610e4c565b820191906000526020600020905b815481529060010190602001808311610e2f57829003601f168201915b505050505081526020016004820160009054906101000a900473ffffffffffffffffffffffffffffffffffffffff1673ffffffffffffffffffffffffffffffffffffffff1673ffffffffffffffffffffffffffffffffffffffff1681526020016005820160009054906101000a900473ffffffffffffffffffffffffffffffffffffffff1673ffffffffffffffffffffffffffffffffffffffff1673ffffffffffffffffffffffffffffffffffffffff1681526020016006820160009054906101000a900473ffffffffffffffffffffffffffffffffffffffff1673ffffffffffffffffffffffffffffffffffffffff1673ffffffffffffffffffffffffffffffffffffffff1681526020016006820160149054906101000a900460ff1615151515815260200160078201548152602001600882018054610f8c906142d4565b80601f0160208091040260200160405190810160405280929190818152602001828054610fb8906142d4565b80156110055780601f10610fda57610100808354040283529160200191611005565b820191906000526020600020905b815481529060010190602001808311610fe857829003601f168201915b5050505050815250509050919050565b6006818154811061102557600080fd5b906000526020600020016000915054906101000a900473ffffffffffffffffffffffffffffffffffffffff1681565b60055481565b6004602052806000526040600020600091509050806000015490806001018054611083906142d4565b80601f01602080910402602001604051908101604052809291908181526020018280546110af906142d4565b80156110fc5780601f106110d1576101008083540402835291602001916110fc565b820191906000526020600020905b8154815290600101906020018083116110df57829003601f168201915b505050505090806002018054611111906142d4565b80601f016020809104026020016040519081016040528092919081815260200182805461113d906142d4565b801561118a5780601f1061115f5761010080835404028352916020019161118a565b820191906000526020600020905b81548152906001019060200180831161116d57829003601f168201915b5050505050908060030160009054906101000a900460ff16908060030160019054906101000a900460ff16908060030160029054906101000a900460ff16908060030160039054906101000a900473ffffffffffffffffffffffffffffffffffffffff16908060040160009054906101000a900473ffffffffffffffffffffffffffffffffffffffff16908060050160009054906101000a900473ffffffffffffffffffffffffffffffffffffffff1690806006015490806007018054611250906142d4565b80601f016020809104026020016040519081016040528092919081815260200182805461127c906142d4565b80156112c95780601f1061129e576101008083540402835291602001916112c9565b820191906000526020600020905b8154815290600101906020018083116112ac57829003601f168201915b505050505090508b565b600381815481106112e357600080fd5b906000526020600020016000915054906101000a900473ffffffffffffffffffffffffffffffffffffffff1681565b60608060006002541415611329578091505061177c565b60025467ffffffffffffffff81111561134557611344613415565b5b60405190808252806020026020018201604052801561137e57816020015b61136b6132c2565b8152602001906001900390816113635790505b50905060005b600254811015611776576000600382815481106113a4576113a36146d3565b5b9060005260206000200160009054906101000a900473ffffffffffffffffffffffffffffffffffffffff1690506000600160008373ffffffffffffffffffffffffffffffffffffffff1673ffffffffffffffffffffffffffffffffffffffff168152602001908152602001600020905080604051806101400160405290816000820154815260200160018201805461143b906142d4565b80601f0160208091040260200160405190810160405280929190818152602001828054611467906142d4565b80156114b45780601f10611489576101008083540402835291602001916114b4565b820191906000526020600020905b81548152906001019060200180831161149757829003601f168201915b505050505081526020016002820160009054906101000a900460ff1660048111156114e2576114e16137a2565b5b60048111156114f4576114f36137a2565b5b8152602001600382018054611508906142d4565b80601f0160208091040260200160405190810160405280929190818152602001828054611534906142d4565b80156115815780601f1061155657610100808354040283529160200191611581565b820191906000526020600020905b81548152906001019060200180831161156457829003601f168201915b505050505081526020016004820160009054906101000a900473ffffffffffffffffffffffffffffffffffffffff1673ffffffffffffffffffffffffffffffffffffffff1673ffffffffffffffffffffffffffffffffffffffff1681526020016005820160009054906101000a900473ffffffffffffffffffffffffffffffffffffffff1673ffffffffffffffffffffffffffffffffffffffff1673ffffffffffffffffffffffffffffffffffffffff1681526020016006820160009054906101000a900473ffffffffffffffffffffffffffffffffffffffff1673ffffffffffffffffffffffffffffffffffffffff1673ffffffffffffffffffffffffffffffffffffffff1681526020016006820160149054906101000a900460ff16151515158152602001600782015481526020016008820180546116c1906142d4565b80601f01602080910402602001604051908101604052809291908181526020018280546116ed906142d4565b801561173a5780601f1061170f5761010080835404028352916020019161173a565b820191906000526020600020905b81548152906001019060200180831161171d57829003601f168201915b505050505081525050848481518110611756576117556146d3565b5b60200260200101819052505050808061176e906145ac565b915050611384565b50809150505b90565b60016020528060005260406000206000915090508060000154908060010180546117a8906142d4565b80601f01602080910402602001604051908101604052809291908181526020018280546117d4906142d4565b80156118215780601f106117f657610100808354040283529160200191611821565b820191906000526020600020905b81548152906001019060200180831161180457829003601f168201915b5050505050908060020160009054906101000a900460ff1690806003018054611849906142d4565b80601f0160208091040260200160405190810160405280929190818152602001828054611875906142d4565b80156118c25780601f10611897576101008083540402835291602001916118c2565b820191906000526020600020905b8154815290600101906020018083116118a557829003601f168201915b5050505050908060040160009054906101000a900473ffffffffffffffffffffffffffffffffffffffff16908060050160009054906101000a900473ffffffffffffffffffffffffffffffffffffffff16908060060160009054906101000a900473ffffffffffffffffffffffffffffffffffffffff16908060060160149054906101000a900460ff1690806007015490806008018054611962906142d4565b80601f016020809104026020016040519081016040528092919081815260200182805461198e906142d4565b80156119db5780601f106119b0576101008083540402835291602001916119db565b820191906000526020600020905b8154815290600101906020018083116119be57829003601f168201915b505050505090508a565b85600460008473ffffffffffffffffffffffffffffffffffffffff1673ffffffffffffffffffffffffffffffffffffffff1681526020019081526020016000206002019080519060200190611a3b92919061316a565b50846002811115611a4f57611a4e6137a2565b5b600460008473ffffffffffffffffffffffffffffffffffffffff1673ffffffffffffffffffffffffffffffffffffffff16815260200190815260200160002060030160016101000a81548160ff02191690836002811115611ab357611ab26137a2565b5b021790555080600460008473ffffffffffffffffffffffffffffffffffffffff1673ffffffffffffffffffffffffffffffffffffffff1681526020019081526020016000206007019080519060200190611b0e92919061316a565b508273ffffffffffffffffffffffffffffffffffffffff168273ffffffffffffffffffffffffffffffffffffffff167fa25a6f1ff57a050a48ae4b3a19f271fddad950cac8d165d6a2eca5d54cc8070f600460008673ffffffffffffffffffffffffffffffffffffffff1673ffffffffffffffffffffffffffffffffffffffff168152602001908152602001600020604051611baa91906148cd565b60405180910390a3846002811115611bc557611bc46137a2565b5b6002811115611bd757611bd66137a2565b5b600280811115611bea57611be96137a2565b5b1415611d1157836004811115611c0357611c026137a2565b5b600160008573ffffffffffffffffffffffffffffffffffffffff1673ffffffffffffffffffffffffffffffffffffffff16815260200190815260200160002060020160006101000a81548160ff02191690836004811115611c6757611c666137a2565b5b0217905550600073ffffffffffffffffffffffffffffffffffffffff168373ffffffffffffffffffffffffffffffffffffffff167ffb530d24abc3d497c3f0525ef204a66ac64d923ec30b40d17bc3a5f572cf4b8e600160008773ffffffffffffffffffffffffffffffffffffffff1673ffffffffffffffffffffffffffffffffffffffff168152602001908152602001600020604051611d08919061455b565b60405180910390a35b505050505050565b60608060005b6005548110156121c557600060068281548110611d3f57611d3e6146d3565b5b9060005260206000200160009054906101000a900473ffffffffffffffffffffffffffffffffffffffff1690506000600460008373ffffffffffffffffffffffffffffffffffffffff1673ffffffffffffffffffffffffffffffffffffffff16815260200190815260200160002090508060030160039054906101000a900473ffffffffffffffffffffffffffffffffffffffff1673ffffffffffffffffffffffffffffffffffffffff168673ffffffffffffffffffffffffffffffffffffffff1614156121b057806040518061016001604052908160008201548152602001600182018054611e2e906142d4565b80601f0160208091040260200160405190810160405280929190818152602001828054611e5a906142d4565b8015611ea75780601f10611e7c57610100808354040283529160200191611ea7565b820191906000526020600020905b815481529060010190602001808311611e8a57829003601f168201915b50505050508152602001600282018054611ec0906142d4565b80601f0160208091040260200160405190810160405280929190818152602001828054611eec906142d4565b8015611f395780601f10611f0e57610100808354040283529160200191611f39565b820191906000526020600020905b815481529060010190602001808311611f1c57829003601f168201915b505050505081526020016003820160009054906101000a900460ff166004811115611f6757611f666137a2565b5b6004811115611f7957611f786137a2565b5b81526020016003820160019054906101000a900460ff166002811115611fa257611fa16137a2565b5b6002811115611fb457611fb36137a2565b5b81526020016003820160029054906101000a900460ff166001811115611fdd57611fdc6137a2565b5b6001811115611fef57611fee6137a2565b5b81526020016003820160039054906101000a900473ffffffffffffffffffffffffffffffffffffffff1673ffffffffffffffffffffffffffffffffffffffff1673ffffffffffffffffffffffffffffffffffffffff1681526020016004820160009054906101000a900473ffffffffffffffffffffffffffffffffffffffff1673ffffffffffffffffffffffffffffffffffffffff1673ffffffffffffffffffffffffffffffffffffffff1681526020016005820160009054906101000a900473ffffffffffffffffffffffffffffffffffffffff1673ffffffffffffffffffffffffffffffffffffffff1673ffffffffffffffffffffffffffffffffffffffff1681526020016006820154815260200160078201805461210f906142d4565b80601f016020809104026020016040519081016040528092919081815260200182805461213b906142d4565b80156121885780601f1061215d57610100808354040283529160200191612188565b820191906000526020600020905b81548152906001019060200180831161216b57829003601f168201915b5050505050815250508484815181106121a4576121a36146d3565b5b60200260200101819052505b505080806121bd906145ac565b915050611d1f565b5080915050919050565b606080600060025414156121e657809150506126d0565b60025467ffffffffffffffff81111561220257612201613415565b5b60405190808252806020026020018201604052801561223b57816020015b6122286132c2565b8152602001906001900390816122205790505b50905060005b6002548110156126ca57600060038281548110612261576122606146d3565b5b9060005260206000200160009054906101000a900473ffffffffffffffffffffffffffffffffffffffff169050600160008273ffffffffffffffffffffffffffffffffffffffff1673ffffffffffffffffffffffffffffffffffffffff16815260200190815260200160002060050160009054906101000a900473ffffffffffffffffffffffffffffffffffffffff1673ffffffffffffffffffffffffffffffffffffffff168573ffffffffffffffffffffffffffffffffffffffff1614156126b6576000600160008373ffffffffffffffffffffffffffffffffffffffff1673ffffffffffffffffffffffffffffffffffffffff168152602001908152602001600020905080604051806101400160405290816000820154815260200160018201805461238e906142d4565b80601f01602080910402602001604051908101604052809291908181526020018280546123ba906142d4565b80156124075780601f106123dc57610100808354040283529160200191612407565b820191906000526020600020905b8154815290600101906020018083116123ea57829003601f168201915b505050505081526020016002820160009054906101000a900460ff166004811115612435576124346137a2565b5b6004811115612447576124466137a2565b5b815260200160038201805461245b906142d4565b80601f0160208091040260200160405190810160405280929190818152602001828054612487906142d4565b80156124d45780601f106124a9576101008083540402835291602001916124d4565b820191906000526020600020905b8154815290600101906020018083116124b757829003601f168201915b505050505081526020016004820160009054906101000a900473ffffffffffffffffffffffffffffffffffffffff1673ffffffffffffffffffffffffffffffffffffffff1673ffffffffffffffffffffffffffffffffffffffff1681526020016005820160009054906101000a900473ffffffffffffffffffffffffffffffffffffffff1673ffffffffffffffffffffffffffffffffffffffff1673ffffffffffffffffffffffffffffffffffffffff1681526020016006820160009054906101000a900473ffffffffffffffffffffffffffffffffffffffff1673ffffffffffffffffffffffffffffffffffffffff1673ffffffffffffffffffffffffffffffffffffffff1681526020016006820160149054906101000a900460ff1615151515815260200160078201548152602001600882018054612614906142d4565b80601f0160208091040260200160405190810160405280929190818152602001828054612640906142d4565b801561268d5780601f106126625761010080835404028352916020019161268d565b820191906000526020600020905b81548152906001019060200180831161267057829003601f168201915b5050505050815250508484815181106126a9576126a86146d3565b5b6020026020010181905250505b5080806126c2906145ac565b915050612241565b50809150505b919050565b6000600260048111156126eb576126ea6137a2565b5b8660048111156126fe576126fd6137a2565b5b60048111156127105761270f6137a2565b5b141561271f5760019050612724565b600090505b6040518061016001604052806005548152602001888152602001604051806020016040528060008152508152602001876004811115612766576127656137a2565b5b6004811115612778576127776137a2565b5b81526020018660028111156127905761278f6137a2565b5b60028111156127a2576127a16137a2565b5b81526020018260018111156127ba576127b96137a2565b5b81526020018573ffffffffffffffffffffffffffffffffffffffff1681526020018473ffffffffffffffffffffffffffffffffffffffff1681526020013373ffffffffffffffffffffffffffffffffffffffff16815260200142815260200183815250600460008573ffffffffffffffffffffffffffffffffffffffff1673ffffffffffffffffffffffffffffffffffffffff16815260200190815260200160002060008201518160000155602082015181600101908051906020019061288292919061316a565b50604082015181600201908051906020019061289f92919061316a565b5060608201518160030160006101000a81548160ff021916908360048111156128cb576128ca6137a2565b5b021790555060808201518160030160016101000a81548160ff021916908360028111156128fb576128fa6137a2565b5b021790555060a08201518160030160026101000a81548160ff0219169083600181111561292b5761292a6137a2565b5b021790555060c08201518160030160036101000a81548173ffffffffffffffffffffffffffffffffffffffff021916908373ffffffffffffffffffffffffffffffffffffffff16021790555060e08201518160040160006101000a81548173ffffffffffffffffffffffffffffffffffffffff021916908373ffffffffffffffffffffffffffffffffffffffff1602179055506101008201518160050160006101000a81548173ffffffffffffffffffffffffffffffffffffffff021916908373ffffffffffffffffffffffffffffffffffffffff1602179055506101208201518160060155610140820151816007019080519060200190612a2e92919061316a565b509050508373ffffffffffffffffffffffffffffffffffffffff168373ffffffffffffffffffffffffffffffffffffffff167fa25a6f1ff57a050a48ae4b3a19f271fddad950cac8d165d6a2eca5d54cc8070f600460008773ffffffffffffffffffffffffffffffffffffffff1673ffffffffffffffffffffffffffffffffffffffff168152602001908152602001600020604051612acd91906148cd565b60405180910390a36006839080600181540180825580915050600190039060005260206000200160009091909190916101000a81548173ffffffffffffffffffffffffffffffffffffffff021916908373ffffffffffffffffffffffffffffffffffffffff16021790555060056000815480929190612b4b906145ac565b919050555050505050505050565b81600160008573ffffffffffffffffffffffffffffffffffffffff1673ffffffffffffffffffffffffffffffffffffffff1681526020019081526020016000206003019080519060200190612baf92919061316a565b5080600160008573ffffffffffffffffffffffffffffffffffffffff1673ffffffffffffffffffffffffffffffffffffffff1681526020019081526020016000206008019080519060200190612c0692919061316a565b50600073ffffffffffffffffffffffffffffffffffffffff168373ffffffffffffffffffffffffffffffffffffffff167ffb530d24abc3d497c3f0525ef204a66ac64d923ec30b40d17bc3a5f572cf4b8e600160008773ffffffffffffffffffffffffffffffffffffffff1673ffffffffffffffffffffffffffffffffffffffff168152602001908152602001600020604051612ca3919061455b565b60405180910390a3505050565b6060600060055467ffffffffffffffff811115612cd057612ccf613415565b5b604051908082528060200260200182016040528015612d0957816020015b612cf66131f0565b815260200190600190039081612cee5790505b50905060005b60055481101561315c57600060068281548110612d2f57612d2e6146d3565b5b9060005260206000200160009054906101000a900473ffffffffffffffffffffffffffffffffffffffff1690506000600460008373ffffffffffffffffffffffffffffffffffffffff1673ffffffffffffffffffffffffffffffffffffffff1681526020019081526020016000209050806040518061016001604052908160008201548152602001600182018054612dc6906142d4565b80601f0160208091040260200160405190810160405280929190818152602001828054612df2906142d4565b8015612e3f5780601f10612e1457610100808354040283529160200191612e3f565b820191906000526020600020905b815481529060010190602001808311612e2257829003601f168201915b50505050508152602001600282018054612e58906142d4565b80601f0160208091040260200160405190810160405280929190818152602001828054612e84906142d4565b8015612ed15780601f10612ea657610100808354040283529160200191612ed1565b820191906000526020600020905b815481529060010190602001808311612eb457829003601f168201915b505050505081526020016003820160009054906101000a900460ff166004811115612eff57612efe6137a2565b5b6004811115612f1157612f106137a2565b5b81526020016003820160019054906101000a900460ff166002811115612f3a57612f396137a2565b5b6002811115612f4c57612f4b6137a2565b5b81526020016003820160029054906101000a900460ff166001811115612f7557612f746137a2565b5b6001811115612f8757612f866137a2565b5b81526020016003820160039054906101000a900473ffffffffffffffffffffffffffffffffffffffff1673ffffffffffffffffffffffffffffffffffffffff1673ffffffffffffffffffffffffffffffffffffffff1681526020016004820160009054906101000a900473ffffffffffffffffffffffffffffffffffffffff1673ffffffffffffffffffffffffffffffffffffffff1673ffffffffffffffffffffffffffffffffffffffff1681526020016005820160009054906101000a900473ffffffffffffffffffffffffffffffffffffffff1673ffffffffffffffffffffffffffffffffffffffff1673ffffffffffffffffffffffffffffffffffffffff168152602001600682015481526020016007820180546130a7906142d4565b80601f01602080910402602001604051908101604052809291908181526020018280546130d3906142d4565b80156131205780601f106130f557610100808354040283529160200191613120565b820191906000526020600020905b81548152906001019060200180831161310357829003601f168201915b50505050508152505084848151811061313c5761313b6146d3565b5b602002602001018190525050508080613154906145ac565b915050612d0f565b508091505090565b60025481565b828054613176906142d4565b90600052602060002090601f01602090048101928261319857600085556131df565b82601f106131b157805160ff19168380011785556131df565b828001600101855582156131df579182015b828111156131de5782518255916020019190600101906131c3565b5b5090506131ec919061336b565b5090565b60405180610160016040528060008152602001606081526020016060815260200160006004811115613225576132246137a2565b5b81526020016000600281111561323e5761323d6137a2565b5b815260200160006001811115613257576132566137a2565b5b8152602001600073ffffffffffffffffffffffffffffffffffffffff168152602001600073ffffffffffffffffffffffffffffffffffffffff168152602001600073ffffffffffffffffffffffffffffffffffffffff16815260200160008152602001606081525090565b6040518061014001604052806000815260200160608152602001600060048111156132f0576132ef6137a2565b5b815260200160608152602001600073ffffffffffffffffffffffffffffffffffffffff168152602001600073ffffffffffffffffffffffffffffffffffffffff168152602001600073ffffffffffffffffffffffffffffffffffffffff16815260200160001515815260200160008152602001606081525090565b5b8082111561338457600081600090555060010161336c565b5090565b6000604051905090565b600080fd5b600080fd5b600073ffffffffffffffffffffffffffffffffffffffff82169050919050565b60006133c78261339c565b9050919050565b6133d7816133bc565b81146133e257600080fd5b50565b6000813590506133f4816133ce565b92915050565b600080fd5b600080fd5b6000601f19601f8301169050919050565b7f4e487b7100000000000000000000000000000000000000000000000000000000600052604160045260246000fd5b61344d82613404565b810181811067ffffffffffffffff8211171561346c5761346b613415565b5b80604052505050565b600061347f613388565b905061348b8282613444565b919050565b600067ffffffffffffffff8211156134ab576134aa613415565b5b6134b482613404565b9050602081019050919050565b82818337600083830152505050565b60006134e36134de84613490565b613475565b9050828152602081018484840111156134ff576134fe6133ff565b5b61350a8482856134c1565b509392505050565b600082601f830112613527576135266133fa565b5b81356135378482602086016134d0565b91505092915050565b6000819050919050565b61355381613540565b811461355e57600080fd5b50565b6000813590506135708161354a565b92915050565b600080600080600060a0868803121561359257613591613392565b5b60006135a0888289016133e5565b955050602086013567ffffffffffffffff8111156135c1576135c0613397565b5b6135cd88828901613512565b94505060406135de88828901613561565b935050606086013567ffffffffffffffff8111156135ff576135fe613397565b5b61360b88828901613512565b925050608086013567ffffffffffffffff81111561362c5761362b613397565b5b61363888828901613512565b9150509295509295909350565b6000806040838503121561365c5761365b613392565b5b600083013567ffffffffffffffff81111561367a57613679613397565b5b61368685828601613512565b925050602061369785828601613561565b9150509250929050565b6136aa816133bc565b82525050565b60006020820190506136c560008301846136a1565b92915050565b600080604083850312156136e2576136e1613392565b5b60006136f0858286016133e5565b9250506020613701858286016133e5565b9150509250929050565b61371481613540565b82525050565b600081519050919050565b600082825260208201905092915050565b60005b83811015613754578082015181840152602081019050613739565b83811115613763576000848401525b50505050565b60006137748261371a565b61377e8185613725565b935061378e818560208601613736565b61379781613404565b840191505092915050565b7f4e487b7100000000000000000000000000000000000000000000000000000000600052602160045260246000fd5b600581106137e2576137e16137a2565b5b50565b60008190506137f3826137d1565b919050565b6000613803826137e5565b9050919050565b613813816137f8565b82525050565b6003811061382a576138296137a2565b5b50565b600081905061383b82613819565b919050565b600061384b8261382d565b9050919050565b61385b81613840565b82525050565b60028110613872576138716137a2565b5b50565b600081905061388382613861565b919050565b600061389382613875565b9050919050565b6138a381613888565b82525050565b6138b2816133bc565b82525050565b6000610160830160008301516138d1600086018261370b565b50602083015184820360208601526138e98282613769565b915050604083015184820360408601526139038282613769565b9150506060830151613918606086018261380a565b50608083015161392b6080860182613852565b5060a083015161393e60a086018261389a565b5060c083015161395160c08601826138a9565b5060e083015161396460e08601826138a9565b506101008301516139796101008601826138a9565b5061012083015161398e61012086018261370b565b506101408301518482036101408601526139a88282613769565b9150508091505092915050565b600060208201905081810360008301526139cf81846138b8565b905092915050565b6000602082840312156139ed576139ec613392565b5b60006139fb848285016133e5565b91505092915050565b60008115159050919050565b613a1981613a04565b82525050565b600061014083016000830151613a38600086018261370b565b5060208301518482036020860152613a508282613769565b9150506040830151613a65604086018261380a565b5060608301518482036060860152613a7d8282613769565b9150506080830151613a9260808601826138a9565b5060a0830151613aa560a08601826138a9565b5060c0830151613ab860c08601826138a9565b5060e0830151613acb60e0860182613a10565b50610100830151613ae061010086018261370b565b50610120830151848203610120860152613afa8282613769565b9150508091505092915050565b60006020820190508181036000830152613b218184613a1f565b905092915050565b600060208284031215613b3f57613b3e613392565b5b6000613b4d84828501613561565b91505092915050565b613b5f81613540565b82525050565b6000602082019050613b7a6000830184613b56565b92915050565b600082825260208201905092915050565b6000613b9c8261371a565b613ba68185613b80565b9350613bb6818560208601613736565b613bbf81613404565b840191505092915050565b613bd3816137f8565b82525050565b613be281613840565b82525050565b613bf181613888565b82525050565b600061016082019050613c0d600083018e613b56565b8181036020830152613c1f818d613b91565b90508181036040830152613c33818c613b91565b9050613c42606083018b613bca565b613c4f608083018a613bd9565b613c5c60a0830189613be8565b613c6960c08301886136a1565b613c7660e08301876136a1565b613c846101008301866136a1565b613c92610120830185613b56565b818103610140830152613ca58184613b91565b90509c9b505050505050505050505050565b600081519050919050565b600082825260208201905092915050565b6000819050602082019050919050565b600061014083016000830151613cfc600086018261370b565b5060208301518482036020860152613d148282613769565b9150506040830151613d29604086018261380a565b5060608301518482036060860152613d418282613769565b9150506080830151613d5660808601826138a9565b5060a0830151613d6960a08601826138a9565b5060c0830151613d7c60c08601826138a9565b5060e0830151613d8f60e0860182613a10565b50610100830151613da461010086018261370b565b50610120830151848203610120860152613dbe8282613769565b9150508091505092915050565b6000613dd78383613ce3565b905092915050565b6000602082019050919050565b6000613df782613cb7565b613e018185613cc2565b935083602082028501613e1385613cd3565b8060005b85811015613e4f5784840389528151613e308582613dcb565b9450613e3b83613ddf565b925060208a01995050600181019050613e17565b50829750879550505050505092915050565b60006020820190508181036000830152613e7b8184613dec565b905092915050565b613e8c81613a04565b82525050565b600061014082019050613ea8600083018d613b56565b8181036020830152613eba818c613b91565b9050613ec9604083018b613bca565b8181036060830152613edb818a613b91565b9050613eea60808301896136a1565b613ef760a08301886136a1565b613f0460c08301876136a1565b613f1160e0830186613e83565b613f1f610100830185613b56565b818103610120830152613f328184613b91565b90509b9a5050505050505050505050565b60008060008060008060c08789031215613f6057613f5f613392565b5b600087013567ffffffffffffffff811115613f7e57613f7d613397565b5b613f8a89828a01613512565b9650506020613f9b89828a01613561565b9550506040613fac89828a01613561565b9450506060613fbd89828a016133e5565b9350506080613fce89828a016133e5565b92505060a087013567ffffffffffffffff811115613fef57613fee613397565b5b613ffb89828a01613512565b9150509295509295509295565b600081519050919050565b600082825260208201905092915050565b6000819050602082019050919050565b60006101608301600083015161404d600086018261370b565b50602083015184820360208601526140658282613769565b9150506040830151848203604086015261407f8282613769565b9150506060830151614094606086018261380a565b5060808301516140a76080860182613852565b5060a08301516140ba60a086018261389a565b5060c08301516140cd60c08601826138a9565b5060e08301516140e060e08601826138a9565b506101008301516140f56101008601826138a9565b5061012083015161410a61012086018261370b565b506101408301518482036101408601526141248282613769565b9150508091505092915050565b600061413d8383614034565b905092915050565b6000602082019050919050565b600061415d82614008565b6141678185614013565b93508360208202850161417985614024565b8060005b858110156141b557848403895281516141968582614131565b94506141a183614145565b925060208a0199505060018101905061417d565b50829750879550505050505092915050565b600060208201905081810360008301526141e18184614152565b905092915050565b60008060006060848603121561420257614201613392565b5b6000614210868287016133e5565b935050602084013567ffffffffffffffff81111561423157614230613397565b5b61423d86828701613512565b925050604084013567ffffffffffffffff81111561425e5761425d613397565b5b61426a86828701613512565b9150509250925092565b60008160001c9050919050565b6000819050919050565b600061429e61429983614274565b614281565b9050919050565b7f4e487b7100000000000000000000000000000000000000000000000000000000600052602260045260246000fd5b600060028204905060018216806142ec57607f821691505b60208210811415614300576142ff6142a5565b5b50919050565b60008190508160005260206000209050919050565b60008154614328816142d4565b6143328186613725565b9450600182166000811461434d576001811461435f57614392565b60ff1983168652602086019350614392565b61436885614306565b60005b8381101561438a5781548189015260018201915060208101905061436b565b808801955050505b50505092915050565b600060ff82169050919050565b60006143bb6143b683614274565b61439b565b9050919050565b600073ffffffffffffffffffffffffffffffffffffffff82169050919050565b60006143f56143f083614274565b6143c2565b9050919050565b60008160a01c9050919050565b600060ff82169050919050565b6000614429614424836143fc565b614409565b9050919050565b6000610140830160008084015490506144488161428b565b614455600087018261370b565b5060018401858303602087015261446c838261431b565b9250506002840154905061447f816143a8565b61448c604087018261380a565b506003840185830360608701526144a3838261431b565b925050600484015490506144b6816143e2565b6144c360808701826138a9565b50600584015490506144d4816143e2565b6144e160a08701826138a9565b50600684015490506144f2816143e2565b6144ff60c08701826138a9565b5061450981614416565b61451660e0870182613a10565b50600784015490506145278161428b565b61453561010087018261370b565b506008840185830361012087015261454d838261431b565b925050819250505092915050565b600060208201905081810360008301526145758184614430565b905092915050565b7f4e487b7100000000000000000000000000000000000000000000000000000000600052601160045260246000fd5b60006145b782613540565b91507fffffffffffffffffffffffffffffffffffffffffffffffffffffffffffffffff8214156145ea576145e961457d565b5b600182019050919050565b600081905092915050565b600061460b8261371a565b61461581856145f5565b9350614625818560208601613736565b80840191505092915050565b60008160601b9050919050565b600061464982614631565b9050919050565b600061465b8261463e565b9050919050565b61467361466e826133bc565b614650565b82525050565b6000819050919050565b61469461468f82613540565b614679565b82525050565b60006146a68286614600565b91506146b28285614662565b6014820191506146c28284614683565b602082019150819050949350505050565b7f4e487b7100000000000000000000000000000000000000000000000000000000600052603260045260246000fd5b60008160081c9050919050565b600060ff82169050919050565b600061472f61472a83614702565b61470f565b9050919050565b60008160101c9050919050565b600060ff82169050919050565b600061476361475e83614736565b614743565b9050919050565b60008160181c9050919050565b600061478a6147858361476a565b6143c2565b9050919050565b6000610160830160008084015490506147a98161428b565b6147b6600087018261370b565b506001840185830360208701526147cd838261431b565b9250506002840185830360408701526147e6838261431b565b925050600384015490506147f9816143a8565b614806606087018261380a565b506148108161471c565b61481d6080870182613852565b5061482781614750565b61483460a087018261389a565b5061483e81614777565b61484b60c08701826138a9565b506004840154905061485c816143e2565b61486960e08701826138a9565b506005840154905061487a816143e2565b6148886101008701826138a9565b50600684015490506148998161428b565b6148a761012087018261370b565b50600784018583036101408701526148bf838261431b565b925050819250505092915050565b600060208201905081810360008301526148e78184614791565b90509291505056fea26469706673582212201ca55e43f22e119d5d3f8fb100735987aead9c13ff8d4df955c46345f15c390564736f6c634300080a0033",
  "immutableReferences": {},
  "source": "// SPDX-License-Identifier: MIT\r\npragma solidity >=0.8.0 <0.9.0;\r\n\r\nimport \"./UserChain.sol\";\r\nimport \"./SharedChain.sol\";\r\n\r\ncontract ProjectChain is SharedChain {\r\n    UserChain userChain;\r\n\r\n    constructor() {\r\n        //userChain = new UserChain();\r\n    }\r\n\r\n    modifier onlyUserProject() {\r\n        // User memory sessionUser = userChain.getUserInfo(msg.sender);\r\n        // require(\r\n        //     sessionUser._role == Roles.UserProject,\r\n        //     \"You don't have the rights for this resource.\"\r\n        // );\r\n        _;\r\n    }\r\n\r\n    modifier onlySupervisor() {\r\n        // User memory sessionUser = userChain.getUserInfo(msg.sender);\r\n        // require(\r\n        //     sessionUser._role == Roles.Supervisor,\r\n        //     \"You don't have the rights for this resource.\"\r\n        // );\r\n        _;\r\n    }\r\n\r\n    modifier onlyCompany() {\r\n        // User memory sessionUser = userChain.getUserInfo(msg.sender);\r\n        // require(\r\n        //     sessionUser._role == Roles.Company,\r\n        //     \"You don't have the rights for this resource.\"\r\n        // );\r\n        _;\r\n    }\r\n\r\n\r\n    /**  PROJECT INITIATOR  */\r\n\r\n    mapping(address => Project) public projects;\r\n    uint256 public projectsCounter = 0;\r\n    address[] public projectsAddress;\r\n\r\n    function createUniqueProjectAddress(string memory _name, uint256 _index) public view returns (address) {\r\n        return address(uint160(uint256(keccak256(abi.encodePacked(_name, msg.sender, _index)))));\r\n    }\r\n\r\n    function createProjectByUser(\r\n        address _projectAddress,\r\n        string memory _name,\r\n        uint256 _status,\r\n        string memory _ipfsFileCID,\r\n        string memory _signature\r\n    ) public onlyUserProject {\r\n        projects[_projectAddress] = Project(\r\n            projectsCounter,\r\n            _name,\r\n            ProjectStatus(_status),\r\n            _ipfsFileCID,\r\n            _projectAddress,\r\n            msg.sender,\r\n            address(0x0),\r\n            false,\r\n            block.timestamp,\r\n            _signature\r\n        );\r\n\r\n        emit ProjectEvent(projects[_projectAddress], _projectAddress, address(0x0));\r\n        projectsAddress.push(_projectAddress);\r\n        projectsCounter++;\r\n    }\r\n\r\n    function updateProjectByUser(\r\n        address _projectAddress,\r\n        string memory _ipfsFileCID,\r\n        string memory _signature\r\n    ) public onlyUserProject {\r\n        projects[_projectAddress]._ipfsFileCID = _ipfsFileCID;\r\n        projects[_projectAddress]._signature = _signature;\r\n\r\n        emit ProjectEvent(projects[_projectAddress], _projectAddress, address(0x0));\r\n    }\r\n\r\n    function getProjectInfo(address _address)\r\n        public\r\n        view\r\n        returns (Project memory)\r\n    {\r\n        //require(msg.sender != address(0x0), \"Address is not valid.\");\r\n        return projects[_address];\r\n    }\r\n\r\n    function getUserProjects(address _signerAddress) public view returns (Project[] memory) {\r\n        Project[] memory allProjects;\r\n        if (projectsCounter == 0) return allProjects;\r\n\r\n        allProjects = new Project[](projectsCounter);\r\n        for (uint256 index = 0; index < projectsCounter; index++) {\r\n            address _projectAddress = projectsAddress[index];\r\n            if (_signerAddress == projects[_projectAddress]._signerAddress) {\r\n                Project storage project = projects[_projectAddress];\r\n                allProjects[index] = project;\r\n            }\r\n        }\r\n        return allProjects;\r\n    }\r\n\r\n    function getAllProjects() public view returns (Project[] memory) {\r\n        Project[] memory allProjects;\r\n        if (projectsCounter == 0) return allProjects;\r\n\r\n        allProjects = new Project[](projectsCounter);\r\n        for (uint256 index = 0; index < projectsCounter; index++) {\r\n            address _projectAddress = projectsAddress[index];\r\n            Project storage project = projects[_projectAddress];\r\n            allProjects[index] = project;\r\n        }\r\n        return allProjects;\r\n    }\r\n\r\n\r\n    /**  Requests  */\r\n\r\n    mapping(address => Request) public requests;\r\n    uint256 public requestsCounter = 0;\r\n    address[] public requestsAddress;\r\n\r\n    function createUniqueRequestAddress(string memory _title, uint256 _index) public view returns (address) {\r\n        return address(uint160(uint256(keccak256(abi.encodePacked(_title, msg.sender, _index)))));\r\n    }\r\n\r\n    function createRequest(\r\n        string memory _title,\r\n        uint256 _projectStatus,\r\n        uint256 _requestStatus,\r\n        address _projectAddress,\r\n        address _requestAddress,\r\n        string memory _signature\r\n    ) public {\r\n        //require(projects[_projectAddress]._status == ProjectStatus.Created, \"Steps must follow accordingly\");\r\n        //require(ProjectStatus.ToApprove == RequestStatus.UnApproved, \"\");\r\n        //require(ProjectStatus.ToApprove == RequestStatus.Rejected, \"\");\r\n\r\n        RequestType _requestType;\r\n        if (ProjectStatus(_projectStatus) == ProjectStatus.StartProject) {\r\n            _requestType = RequestType.CompanyReq;\r\n        } else {\r\n            _requestType = RequestType.SupervisorReq;\r\n        }\r\n\r\n        requests[_requestAddress] = Request(\r\n            requestsCounter,\r\n            _title,\r\n            \"\",\r\n            ProjectStatus(_projectStatus),\r\n            RequestStatus(_requestStatus),\r\n            RequestType(_requestType),\r\n            _projectAddress,\r\n            _requestAddress,\r\n            msg.sender,\r\n            block.timestamp,\r\n            _signature\r\n        );\r\n\r\n        emit RequestEvent(requests[_requestAddress], _requestAddress, _projectAddress);\r\n        requestsAddress.push(_requestAddress);\r\n        requestsCounter++;\r\n    }\r\n\r\n    function updateRequest(\r\n        string memory _comments,\r\n        uint256 _requestStatus,\r\n        uint256 _projectStatus,\r\n        address _projectAddress,\r\n        address _requestAddress,\r\n        string memory _signature\r\n    ) public {\r\n        // Update Requests Mapping and Struct Array\r\n        requests[_requestAddress]._comments = _comments;\r\n        requests[_requestAddress]._requestStatus = RequestStatus(_requestStatus);\r\n        requests[_requestAddress]._signature = _signature;\r\n        emit RequestEvent(requests[_requestAddress], _requestAddress, _projectAddress);\r\n\r\n        // Update Project Mapping and Struct Array\r\n        if (RequestStatus.Approved == RequestStatus(_requestStatus)) {\r\n            projects[_projectAddress]._status = ProjectStatus(_projectStatus);\r\n            emit ProjectEvent(projects[_projectAddress], _projectAddress, address(0x0));\r\n        }\r\n    }\r\n\r\n    function getAllRequests() public view returns (Request[] memory) {\r\n        Request[] memory allRequests = new Request[](requestsCounter);\r\n        for (uint256 index = 0; index < requestsCounter; index++) {\r\n            address _requestAddress = requestsAddress[index];\r\n            Request storage request = requests[_requestAddress];\r\n            allRequests[index] = request;\r\n        }\r\n        return allRequests;\r\n    }\r\n\r\n    function getProjectRequests(address _projectAddress) public view returns (Request[] memory) {\r\n        Request[] memory allRequests;\r\n        for (uint256 index = 0; index < requestsCounter; index++) {\r\n            address _requestAddress = requestsAddress[index];\r\n            Request storage request = requests[_requestAddress];\r\n            if (_projectAddress == request._projectAddress) {\r\n                allRequests[index] = request;\r\n            }\r\n        }\r\n        return allRequests;\r\n    }\r\n\r\n\r\n    function getLastProjectRequest(address _projectAddress, address _requestAddress)\r\n        public view returns (Request memory)\r\n    {\r\n        Request memory request;\r\n        if (requestsCounter > 0) {\r\n            if (requests[_requestAddress]._projectAddress == _projectAddress) {\r\n                request = requests[_requestAddress];\r\n            }\r\n        }\r\n        return request;\r\n    }\r\n\r\n\r\n\r\n}\r\n",
  "sourcePath": "/mnt/c/Users/Beniamin/source/repos/DissertationProject/contracts/ProjectChain.sol",
  "compiler": {
    "name": "solc",
    "version": "0.8.10+commit.fc410830.Emscripten.clang"
  },
  "schemaVersion": "3.4.3",
  "updatedAt": "2021-12-11T17:20:30.038Z",
  "networkType": "ethereum",
  "devdoc": {
    "kind": "dev",
    "methods": {},
    "version": 1
  },
  "userdoc": {
    "kind": "user",
    "methods": {
      "projects(address)": {
        "notice": "PROJECT INITIATOR  "
      },
      "requests(address)": {
        "notice": "Requests  "
      }
    },
    "version": 1
  }
}