{
  "contractName": "Project",
  "abi": [
    {
      "inputs": [],
      "stateMutability": "nonpayable",
      "type": "constructor"
    },
    {
      "anonymous": false,
      "inputs": [
        {
          "indexed": false,
          "internalType": "string",
          "name": "_name",
          "type": "string"
        },
        {
          "indexed": false,
          "internalType": "string",
          "name": "_description",
          "type": "string"
        },
        {
          "indexed": false,
          "internalType": "enum Project.ProjectStatus",
          "name": "_status",
          "type": "uint8"
        },
        {
          "indexed": false,
          "internalType": "bytes32",
          "name": "_identifier",
          "type": "bytes32"
        }
      ],
      "name": "CreateProject",
      "type": "event"
    },
    {
      "anonymous": false,
      "inputs": [
        {
          "indexed": false,
          "internalType": "uint256",
          "name": "_indexRequest",
          "type": "uint256"
        },
        {
          "indexed": false,
          "internalType": "enum Project.RequestStatus",
          "name": "_status",
          "type": "uint8"
        },
        {
          "components": [
            {
              "internalType": "uint256",
              "name": "index",
              "type": "uint256"
            },
            {
              "internalType": "bytes32",
              "name": "identifier",
              "type": "bytes32"
            },
            {
              "internalType": "string",
              "name": "name",
              "type": "string"
            },
            {
              "internalType": "string",
              "name": "description",
              "type": "string"
            },
            {
              "internalType": "enum Project.ProjectStatus",
              "name": "projectStatus",
              "type": "uint8"
            },
            {
              "internalType": "string",
              "name": "ipfsFileCID",
              "type": "string"
            }
          ],
          "indexed": false,
          "internalType": "struct Project.S_Project",
          "name": "_project",
          "type": "tuple"
        },
        {
          "indexed": false,
          "internalType": "enum Project.ProjectStatus",
          "name": "_projectStatus",
          "type": "uint8"
        },
        {
          "indexed": false,
          "internalType": "address",
          "name": "_subjectAddress",
          "type": "address"
        }
      ],
      "name": "UpdateCompanyRequestStatus",
      "type": "event"
    },
    {
      "anonymous": false,
      "inputs": [
        {
          "indexed": false,
          "internalType": "uint256",
          "name": "_indexRequest",
          "type": "uint256"
        },
        {
          "indexed": false,
          "internalType": "enum Project.RequestStatus",
          "name": "_status",
          "type": "uint8"
        },
        {
          "components": [
            {
              "internalType": "uint256",
              "name": "index",
              "type": "uint256"
            },
            {
              "internalType": "bytes32",
              "name": "identifier",
              "type": "bytes32"
            },
            {
              "internalType": "string",
              "name": "name",
              "type": "string"
            },
            {
              "internalType": "string",
              "name": "description",
              "type": "string"
            },
            {
              "internalType": "enum Project.ProjectStatus",
              "name": "projectStatus",
              "type": "uint8"
            },
            {
              "internalType": "string",
              "name": "ipfsFileCID",
              "type": "string"
            }
          ],
          "indexed": false,
          "internalType": "struct Project.S_Project",
          "name": "_project",
          "type": "tuple"
        },
        {
          "indexed": false,
          "internalType": "enum Project.ProjectStatus",
          "name": "_projectStatus",
          "type": "uint8"
        },
        {
          "indexed": false,
          "internalType": "address",
          "name": "_subjectAddress",
          "type": "address"
        }
      ],
      "name": "UpdateSupervisorRequestStatus",
      "type": "event"
    },
    {
      "anonymous": false,
      "inputs": [
        {
          "indexed": true,
          "internalType": "address",
          "name": "_walletAddress",
          "type": "address"
        },
        {
          "indexed": true,
          "internalType": "string",
          "name": "_username",
          "type": "string"
        },
        {
          "indexed": false,
          "internalType": "string",
          "name": "_email",
          "type": "string"
        },
        {
          "indexed": false,
          "internalType": "string",
          "name": "_firstname",
          "type": "string"
        },
        {
          "indexed": false,
          "internalType": "string",
          "name": "_lastname",
          "type": "string"
        },
        {
          "indexed": true,
          "internalType": "enum User.Roles",
          "name": "_role",
          "type": "uint8"
        }
      ],
      "name": "UserRegistered",
      "type": "event"
    },
    {
      "inputs": [
        {
          "internalType": "uint256",
          "name": "_role",
          "type": "uint256"
        },
        {
          "internalType": "address",
          "name": "_walletAddress",
          "type": "address"
        }
      ],
      "name": "changeUserRole",
      "outputs": [
        {
          "internalType": "string",
          "name": "",
          "type": "string"
        }
      ],
      "stateMutability": "nonpayable",
      "type": "function"
    },
    {
      "inputs": [
        {
          "internalType": "uint256",
          "name": "",
          "type": "uint256"
        }
      ],
      "name": "companyRequests",
      "outputs": [
        {
          "internalType": "uint256",
          "name": "index",
          "type": "uint256"
        },
        {
          "internalType": "string",
          "name": "description",
          "type": "string"
        },
        {
          "internalType": "enum Project.RequestStatus",
          "name": "status",
          "type": "uint8"
        },
        {
          "components": [
            {
              "internalType": "uint256",
              "name": "index",
              "type": "uint256"
            },
            {
              "internalType": "bytes32",
              "name": "identifier",
              "type": "bytes32"
            },
            {
              "internalType": "string",
              "name": "name",
              "type": "string"
            },
            {
              "internalType": "string",
              "name": "description",
              "type": "string"
            },
            {
              "internalType": "enum Project.ProjectStatus",
              "name": "projectStatus",
              "type": "uint8"
            },
            {
              "internalType": "string",
              "name": "ipfsFileCID",
              "type": "string"
            }
          ],
          "internalType": "struct Project.S_Project",
          "name": "project",
          "type": "tuple"
        },
        {
          "internalType": "address",
          "name": "subjectAddress",
          "type": "address"
        }
      ],
      "stateMutability": "view",
      "type": "function",
      "constant": true
    },
    {
      "inputs": [],
      "name": "getUserAddresses",
      "outputs": [
        {
          "internalType": "address[]",
          "name": "",
          "type": "address[]"
        }
      ],
      "stateMutability": "view",
      "type": "function",
      "constant": true
    },
    {
      "inputs": [
        {
          "internalType": "address",
          "name": "_address",
          "type": "address"
        }
      ],
      "name": "getUserInfo",
      "outputs": [
        {
          "components": [
            {
              "internalType": "string",
              "name": "username",
              "type": "string"
            },
            {
              "internalType": "string",
              "name": "email",
              "type": "string"
            },
            {
              "internalType": "string",
              "name": "firstname",
              "type": "string"
            },
            {
              "internalType": "string",
              "name": "lastname",
              "type": "string"
            },
            {
              "internalType": "enum User.Roles",
              "name": "role",
              "type": "uint8"
            },
            {
              "internalType": "address",
              "name": "walletAddress",
              "type": "address"
            }
          ],
          "internalType": "struct User.S_UserData",
          "name": "",
          "type": "tuple"
        }
      ],
      "stateMutability": "view",
      "type": "function",
      "constant": true
    },
    {
      "inputs": [],
      "name": "owner",
      "outputs": [
        {
          "internalType": "address",
          "name": "",
          "type": "address"
        }
      ],
      "stateMutability": "view",
      "type": "function",
      "constant": true
    },
    {
      "inputs": [
        {
          "internalType": "uint256",
          "name": "",
          "type": "uint256"
        }
      ],
      "name": "projectIds",
      "outputs": [
        {
          "internalType": "uint256",
          "name": "",
          "type": "uint256"
        }
      ],
      "stateMutability": "view",
      "type": "function",
      "constant": true
    },
    {
      "inputs": [
        {
          "internalType": "uint256",
          "name": "",
          "type": "uint256"
        }
      ],
      "name": "projects",
      "outputs": [
        {
          "internalType": "uint256",
          "name": "index",
          "type": "uint256"
        },
        {
          "internalType": "bytes32",
          "name": "identifier",
          "type": "bytes32"
        },
        {
          "internalType": "string",
          "name": "name",
          "type": "string"
        },
        {
          "internalType": "string",
          "name": "description",
          "type": "string"
        },
        {
          "internalType": "enum Project.ProjectStatus",
          "name": "projectStatus",
          "type": "uint8"
        },
        {
          "internalType": "string",
          "name": "ipfsFileCID",
          "type": "string"
        }
      ],
      "stateMutability": "view",
      "type": "function",
      "constant": true
    },
    {
      "inputs": [],
      "name": "projectsCount",
      "outputs": [
        {
          "internalType": "uint256",
          "name": "",
          "type": "uint256"
        }
      ],
      "stateMutability": "view",
      "type": "function",
      "constant": true
    },
    {
      "inputs": [
        {
          "internalType": "string",
          "name": "_username",
          "type": "string"
        },
        {
          "internalType": "string",
          "name": "_email",
          "type": "string"
        },
        {
          "internalType": "string",
          "name": "_firstname",
          "type": "string"
        },
        {
          "internalType": "string",
          "name": "_lastname",
          "type": "string"
        },
        {
          "internalType": "uint256",
          "name": "_role",
          "type": "uint256"
        },
        {
          "internalType": "address",
          "name": "_walletAddress",
          "type": "address"
        }
      ],
      "name": "registerUser",
      "outputs": [],
      "stateMutability": "nonpayable",
      "type": "function"
    },
    {
      "inputs": [
        {
          "internalType": "uint256",
          "name": "",
          "type": "uint256"
        }
      ],
      "name": "supervisorRequests",
      "outputs": [
        {
          "internalType": "uint256",
          "name": "index",
          "type": "uint256"
        },
        {
          "internalType": "string",
          "name": "description",
          "type": "string"
        },
        {
          "internalType": "enum Project.RequestStatus",
          "name": "status",
          "type": "uint8"
        },
        {
          "components": [
            {
              "internalType": "uint256",
              "name": "index",
              "type": "uint256"
            },
            {
              "internalType": "bytes32",
              "name": "identifier",
              "type": "bytes32"
            },
            {
              "internalType": "string",
              "name": "name",
              "type": "string"
            },
            {
              "internalType": "string",
              "name": "description",
              "type": "string"
            },
            {
              "internalType": "enum Project.ProjectStatus",
              "name": "projectStatus",
              "type": "uint8"
            },
            {
              "internalType": "string",
              "name": "ipfsFileCID",
              "type": "string"
            }
          ],
          "internalType": "struct Project.S_Project",
          "name": "project",
          "type": "tuple"
        },
        {
          "internalType": "address",
          "name": "subjectAddress",
          "type": "address"
        }
      ],
      "stateMutability": "view",
      "type": "function",
      "constant": true
    },
    {
      "inputs": [
        {
          "internalType": "uint256",
          "name": "",
          "type": "uint256"
        }
      ],
      "name": "userAddresses",
      "outputs": [
        {
          "internalType": "address",
          "name": "",
          "type": "address"
        }
      ],
      "stateMutability": "view",
      "type": "function",
      "constant": true
    },
    {
      "inputs": [
        {
          "internalType": "address",
          "name": "",
          "type": "address"
        }
      ],
      "name": "userInfo",
      "outputs": [
        {
          "internalType": "string",
          "name": "username",
          "type": "string"
        },
        {
          "internalType": "string",
          "name": "email",
          "type": "string"
        },
        {
          "internalType": "string",
          "name": "firstname",
          "type": "string"
        },
        {
          "internalType": "string",
          "name": "lastname",
          "type": "string"
        },
        {
          "internalType": "enum User.Roles",
          "name": "role",
          "type": "uint8"
        },
        {
          "internalType": "address",
          "name": "walletAddress",
          "type": "address"
        }
      ],
      "stateMutability": "view",
      "type": "function",
      "constant": true
    },
    {
      "inputs": [],
      "name": "usersCount",
      "outputs": [
        {
          "internalType": "uint256",
          "name": "",
          "type": "uint256"
        }
      ],
      "stateMutability": "view",
      "type": "function",
      "constant": true
    },
    {
      "inputs": [
        {
          "internalType": "string",
          "name": "_name",
          "type": "string"
        },
        {
          "internalType": "string",
          "name": "_description",
          "type": "string"
        },
        {
          "internalType": "uint256",
          "name": "_status",
          "type": "uint256"
        },
        {
          "internalType": "string",
          "name": "_hashStringValue",
          "type": "string"
        },
        {
          "internalType": "string",
          "name": "_ipfsFileCID",
          "type": "string"
        }
      ],
      "name": "createProject",
      "outputs": [],
      "stateMutability": "nonpayable",
      "type": "function"
    },
    {
      "inputs": [
        {
          "internalType": "uint256",
          "name": "_index",
          "type": "uint256"
        }
      ],
      "name": "getProjectInfo",
      "outputs": [
        {
          "components": [
            {
              "internalType": "uint256",
              "name": "index",
              "type": "uint256"
            },
            {
              "internalType": "bytes32",
              "name": "identifier",
              "type": "bytes32"
            },
            {
              "internalType": "string",
              "name": "name",
              "type": "string"
            },
            {
              "internalType": "string",
              "name": "description",
              "type": "string"
            },
            {
              "internalType": "enum Project.ProjectStatus",
              "name": "projectStatus",
              "type": "uint8"
            },
            {
              "internalType": "string",
              "name": "ipfsFileCID",
              "type": "string"
            }
          ],
          "internalType": "struct Project.S_Project",
          "name": "",
          "type": "tuple"
        }
      ],
      "stateMutability": "view",
      "type": "function",
      "constant": true
    },
    {
      "inputs": [],
      "name": "getProjectIds",
      "outputs": [
        {
          "internalType": "uint256[]",
          "name": "",
          "type": "uint256[]"
        }
      ],
      "stateMutability": "view",
      "type": "function",
      "constant": true
    },
    {
      "inputs": [
        {
          "internalType": "string",
          "name": "_text",
          "type": "string"
        },
        {
          "internalType": "address",
          "name": "_addr",
          "type": "address"
        }
      ],
      "name": "createUniqueIdentifier",
      "outputs": [
        {
          "internalType": "bytes32",
          "name": "",
          "type": "bytes32"
        }
      ],
      "stateMutability": "pure",
      "type": "function",
      "constant": true
    },
    {
      "inputs": [
        {
          "internalType": "string",
          "name": "_description",
          "type": "string"
        },
        {
          "components": [
            {
              "internalType": "uint256",
              "name": "index",
              "type": "uint256"
            },
            {
              "internalType": "bytes32",
              "name": "identifier",
              "type": "bytes32"
            },
            {
              "internalType": "string",
              "name": "name",
              "type": "string"
            },
            {
              "internalType": "string",
              "name": "description",
              "type": "string"
            },
            {
              "internalType": "enum Project.ProjectStatus",
              "name": "projectStatus",
              "type": "uint8"
            },
            {
              "internalType": "string",
              "name": "ipfsFileCID",
              "type": "string"
            }
          ],
          "internalType": "struct Project.S_Project",
          "name": "_project",
          "type": "tuple"
        },
        {
          "internalType": "address",
          "name": "_subjectAddress",
          "type": "address"
        }
      ],
      "name": "requestProjectApprovalFromSupervisor",
      "outputs": [],
      "stateMutability": "nonpayable",
      "type": "function"
    },
    {
      "inputs": [
        {
          "internalType": "string",
          "name": "_description",
          "type": "string"
        },
        {
          "components": [
            {
              "internalType": "uint256",
              "name": "index",
              "type": "uint256"
            },
            {
              "internalType": "bytes32",
              "name": "identifier",
              "type": "bytes32"
            },
            {
              "internalType": "string",
              "name": "name",
              "type": "string"
            },
            {
              "internalType": "string",
              "name": "description",
              "type": "string"
            },
            {
              "internalType": "enum Project.ProjectStatus",
              "name": "projectStatus",
              "type": "uint8"
            },
            {
              "internalType": "string",
              "name": "ipfsFileCID",
              "type": "string"
            }
          ],
          "internalType": "struct Project.S_Project",
          "name": "_project",
          "type": "tuple"
        },
        {
          "internalType": "address",
          "name": "_subjectAddress",
          "type": "address"
        }
      ],
      "name": "requestProjectCompleteFromSupervisor",
      "outputs": [],
      "stateMutability": "nonpayable",
      "type": "function"
    },
    {
      "inputs": [
        {
          "internalType": "string",
          "name": "_description",
          "type": "string"
        },
        {
          "components": [
            {
              "internalType": "uint256",
              "name": "index",
              "type": "uint256"
            },
            {
              "internalType": "bytes32",
              "name": "identifier",
              "type": "bytes32"
            },
            {
              "internalType": "string",
              "name": "name",
              "type": "string"
            },
            {
              "internalType": "string",
              "name": "description",
              "type": "string"
            },
            {
              "internalType": "enum Project.ProjectStatus",
              "name": "projectStatus",
              "type": "uint8"
            },
            {
              "internalType": "string",
              "name": "ipfsFileCID",
              "type": "string"
            }
          ],
          "internalType": "struct Project.S_Project",
          "name": "_project",
          "type": "tuple"
        },
        {
          "internalType": "address",
          "name": "_subjectAddress",
          "type": "address"
        }
      ],
      "name": "requestStartProjectToCompanyBuilder",
      "outputs": [],
      "stateMutability": "nonpayable",
      "type": "function"
    }
  ],
  "bytecode": "0x60806040526000600255600060085534801561001a57600080fd5b5033600160006101000a81548173ffffffffffffffffffffffffffffffffffffffff021916908373ffffffffffffffffffffffffffffffffffffffff16021790555033600460006101000a81548173ffffffffffffffffffffffffffffffffffffffff021916908373ffffffffffffffffffffffffffffffffffffffff160217905550613783806100ac6000396000f3fe608060405234801561001057600080fd5b506004361061012c5760003560e01c80638c86a1d7116100ad578063b5f4078411610071578063b5f407841461038b578063c73b302e146103a7578063d40d4a80146103c5578063fabf5968146103f9578063fb7ae309146104295761012c565b80638c86a1d7146102cf5780638da5cb5b146103035780639100978614610321578063911c29a614610351578063a591efde1461036d5761012c565b8063502c9bd5116100f4578063502c9bd5146102055780636132844f146102355780636386c1c7146102655780636ba13a821461029557806386ee5475146102b35761012c565b8063107046bd146101315780631959a0021461016657806329a613b51461019b5780632ff70111146101b957806348c35ad4146101d5575b600080fd5b61014b600480360381019061014691906124d7565b610445565b60405161015d9695949392919061263c565b60405180910390f35b610180600480360381019061017b9190612710565b610626565b60405161019296959493929190612794565b60405180910390f35b6101a36108af565b6040516101b091906128cf565b60405180910390f35b6101d360048036038101906101ce9190612a26565b610907565b005b6101ef60048036038101906101ea91906124d7565b610ac4565b6040516101fc9190612b11565b60405180910390f35b61021f600480360381019061021a91906124d7565b610ae8565b60405161022c9190612b2c565b60405180910390f35b61024f600480360381019061024a9190612b47565b610b27565b60405161025c9190612ba3565b60405180910390f35b61027f600480360381019061027a9190612710565b610b5a565b60405161028c9190612cc4565b60405180910390f35b61029d610e8b565b6040516102aa9190612b11565b60405180910390f35b6102cd60048036038101906102c89190612e35565b610e91565b005b6102e960048036038101906102e491906124d7565b6110a5565b6040516102fa959493929190612fbd565b60405180910390f35b61030b61139f565b6040516103189190612b2c565b60405180910390f35b61033b6004803603810190610336919061301e565b6113c5565b604051610348919061305e565b60405180910390f35b61036b60048036038101906103669190613080565b611510565b005b610375611959565b604051610382919061322c565b60405180910390f35b6103a560048036038101906103a09190612e35565b6119e7565b005b6103af611bfb565b6040516103bc9190612b11565b60405180910390f35b6103df60048036038101906103da91906124d7565b611c01565b6040516103f0959493929190612fbd565b60405180910390f35b610413600480360381019061040e91906124d7565b611efb565b604051610420919061324e565b60405180910390f35b610443600480360381019061043e9190612e35565b61212d565b005b60056020528060005260406000206000915090508060000154908060010154908060020180546104749061329f565b80601f01602080910402602001604051908101604052809291908181526020018280546104a09061329f565b80156104ed5780601f106104c2576101008083540402835291602001916104ed565b820191906000526020600020905b8154815290600101906020018083116104d057829003601f168201915b5050505050908060030180546105029061329f565b80601f016020809104026020016040519081016040528092919081815260200182805461052e9061329f565b801561057b5780601f106105505761010080835404028352916020019161057b565b820191906000526020600020905b81548152906001019060200180831161055e57829003601f168201915b5050505050908060040160009054906101000a900460ff16908060050180546105a39061329f565b80601f01602080910402602001604051908101604052809291908181526020018280546105cf9061329f565b801561061c5780601f106105f15761010080835404028352916020019161061c565b820191906000526020600020905b8154815290600101906020018083116105ff57829003601f168201915b5050505050905086565b60006020528060005260406000206000915090508060000180546106499061329f565b80601f01602080910402602001604051908101604052809291908181526020018280546106759061329f565b80156106c25780601f10610697576101008083540402835291602001916106c2565b820191906000526020600020905b8154815290600101906020018083116106a557829003601f168201915b5050505050908060010180546106d79061329f565b80601f01602080910402602001604051908101604052809291908181526020018280546107039061329f565b80156107505780601f1061072557610100808354040283529160200191610750565b820191906000526020600020905b81548152906001019060200180831161073357829003601f168201915b5050505050908060020180546107659061329f565b80601f01602080910402602001604051908101604052809291908181526020018280546107919061329f565b80156107de5780601f106107b3576101008083540402835291602001916107de565b820191906000526020600020905b8154815290600101906020018083116107c157829003601f168201915b5050505050908060030180546107f39061329f565b80601f016020809104026020016040519081016040528092919081815260200182805461081f9061329f565b801561086c5780601f106108415761010080835404028352916020019161086c565b820191906000526020600020905b81548152906001019060200180831161084f57829003601f168201915b5050505050908060040160009054906101000a900460ff16908060040160019054906101000a900473ffffffffffffffffffffffffffffffffffffffff16905086565b606060098054806020026020016040519081016040528092919081815260200182805480156108fd57602002820191906000526020600020905b8154815260200190600101908083116108e9575b5050505050905090565b60006109138333610b27565b905060085460056000600854815260200190815260200160002060000181905550806005600060085481526020019081526020016000206001018190555085600560006008548152602001908152602001600020600201908051906020019061097d929190612341565b508460056000600854815260200190815260200160002060030190805190602001906109aa929190612341565b508360058111156109be576109bd6125c5565b5b60056000600854815260200190815260200160002060040160006101000a81548160ff021916908360058111156109f8576109f76125c5565b5b0217905550816005600060085481526020019081526020016000206005019080519060200190610a29929190612341565b507f4656bb678dd0b427f71c9f70d273c2c1cb8ebd0add8063549243d64bd3ed369a8686866005811115610a6057610a5f6125c5565b5b84604051610a7194939291906132d1565b60405180910390a16009600854908060018154018082558091505060019003906000526020600020016000909190919091505560086000815480929190610ab790613353565b9190505550505050505050565b60098181548110610ad457600080fd5b906000526020600020016000915090505481565b60038181548110610af857600080fd5b906000526020600020016000915054906101000a900473ffffffffffffffffffffffffffffffffffffffff1681565b60008282604051602001610b3c929190613420565b60405160208183030381529060405280519060200120905092915050565b610b626123c7565b6000808373ffffffffffffffffffffffffffffffffffffffff1673ffffffffffffffffffffffffffffffffffffffff1681526020019081526020016000206040518060c0016040529081600082018054610bbb9061329f565b80601f0160208091040260200160405190810160405280929190818152602001828054610be79061329f565b8015610c345780601f10610c0957610100808354040283529160200191610c34565b820191906000526020600020905b815481529060010190602001808311610c1757829003601f168201915b50505050508152602001600182018054610c4d9061329f565b80601f0160208091040260200160405190810160405280929190818152602001828054610c799061329f565b8015610cc65780601f10610c9b57610100808354040283529160200191610cc6565b820191906000526020600020905b815481529060010190602001808311610ca957829003601f168201915b50505050508152602001600282018054610cdf9061329f565b80601f0160208091040260200160405190810160405280929190818152602001828054610d0b9061329f565b8015610d585780601f10610d2d57610100808354040283529160200191610d58565b820191906000526020600020905b815481529060010190602001808311610d3b57829003601f168201915b50505050508152602001600382018054610d719061329f565b80601f0160208091040260200160405190810160405280929190818152602001828054610d9d9061329f565b8015610dea5780601f10610dbf57610100808354040283529160200191610dea565b820191906000526020600020905b815481529060010190602001808311610dcd57829003601f168201915b505050505081526020016004820160009054906101000a900460ff166003811115610e1857610e176125c5565b5b6003811115610e2a57610e296125c5565b5b81526020016004820160019054906101000a900473ffffffffffffffffffffffffffffffffffffffff1673ffffffffffffffffffffffffffffffffffffffff1673ffffffffffffffffffffffffffffffffffffffff16815250509050919050565b60025481565b60046005811115610ea557610ea46125c5565b5b82608001516005811115610ebc57610ebb6125c5565b5b14610efc576040517f08c379a0000000000000000000000000000000000000000000000000000000008152600401610ef3906134e0565b60405180910390fd5b600060076000600b548152602001908152602001600020905083816001019080519060200190610f2d929190612341565b5060008160020160006101000a81548160ff02191690836001811115610f5657610f556125c5565b5b0217905550828160030160008201518160000155602082015181600101556040820151816002019080519060200190610f90929190612341565b506060820151816003019080519060200190610fad929190612341565b5060808201518160040160006101000a81548160ff02191690836005811115610fd957610fd86125c5565b5b021790555060a0820151816005019080519060200190610ffa929190612341565b50905050818160090160006101000a81548173ffffffffffffffffffffffffffffffffffffffff021916908373ffffffffffffffffffffffffffffffffffffffff1602179055507f51fc07e4e94804a1a5934ff343c58ff6a5c813add2652c992c9e03d670b1a120600b5460008586608001518660405161107f959493929190613500565b60405180910390a1600b600081548092919061109a90613353565b919050555050505050565b60076020528060005260406000206000915090508060000154908060010180546110ce9061329f565b80601f01602080910402602001604051908101604052809291908181526020018280546110fa9061329f565b80156111475780601f1061111c57610100808354040283529160200191611147565b820191906000526020600020905b81548152906001019060200180831161112a57829003601f168201915b5050505050908060020160009054906101000a900460ff1690806003016040518060c001604052908160008201548152602001600182015481526020016002820180546111939061329f565b80601f01602080910402602001604051908101604052809291908181526020018280546111bf9061329f565b801561120c5780601f106111e15761010080835404028352916020019161120c565b820191906000526020600020905b8154815290600101906020018083116111ef57829003601f168201915b505050505081526020016003820180546112259061329f565b80601f01602080910402602001604051908101604052809291908181526020018280546112519061329f565b801561129e5780601f106112735761010080835404028352916020019161129e565b820191906000526020600020905b81548152906001019060200180831161128157829003601f168201915b505050505081526020016004820160009054906101000a900460ff1660058111156112cc576112cb6125c5565b5b60058111156112de576112dd6125c5565b5b81526020016005820180546112f29061329f565b80601f016020809104026020016040519081016040528092919081815260200182805461131e9061329f565b801561136b5780601f106113405761010080835404028352916020019161136b565b820191906000526020600020905b81548152906001019060200180831161134e57829003601f168201915b505050505081525050908060090160009054906101000a900473ffffffffffffffffffffffffffffffffffffffff16905085565b600160009054906101000a900473ffffffffffffffffffffffffffffffffffffffff1681565b60603373ffffffffffffffffffffffffffffffffffffffff16600160009054906101000a900473ffffffffffffffffffffffffffffffffffffffff1673ffffffffffffffffffffffffffffffffffffffff1614611457576040517f08c379a000000000000000000000000000000000000000000000000000000000815260040161144e906135a6565b60405180910390fd5b82600381111561146a576114696125c5565b5b6000808473ffffffffffffffffffffffffffffffffffffffff1673ffffffffffffffffffffffffffffffffffffffff16815260200190815260200160002060040160006101000a81548160ff021916908360038111156114cd576114cc6125c5565b5b02179055506040518060400160405280600d81526020017f526f6c6520557064617465642100000000000000000000000000000000000000815250905092915050565b3373ffffffffffffffffffffffffffffffffffffffff16600160009054906101000a900473ffffffffffffffffffffffffffffffffffffffff1673ffffffffffffffffffffffffffffffffffffffff16146115a0576040517f08c379a0000000000000000000000000000000000000000000000000000000008152600401611597906135a6565b60405180910390fd5b856000808373ffffffffffffffffffffffffffffffffffffffff1673ffffffffffffffffffffffffffffffffffffffff16815260200190815260200160002060000190805190602001906115f5929190612341565b50856000808373ffffffffffffffffffffffffffffffffffffffff1673ffffffffffffffffffffffffffffffffffffffff168152602001908152602001600020600001908051906020019061164b929190612341565b50846000808373ffffffffffffffffffffffffffffffffffffffff1673ffffffffffffffffffffffffffffffffffffffff16815260200190815260200160002060010190805190602001906116a1929190612341565b50836000808373ffffffffffffffffffffffffffffffffffffffff1673ffffffffffffffffffffffffffffffffffffffff16815260200190815260200160002060020190805190602001906116f7929190612341565b50826000808373ffffffffffffffffffffffffffffffffffffffff1673ffffffffffffffffffffffffffffffffffffffff168152602001908152602001600020600301908051906020019061174d929190612341565b50816003811115611761576117606125c5565b5b6000808373ffffffffffffffffffffffffffffffffffffffff1673ffffffffffffffffffffffffffffffffffffffff16815260200190815260200160002060040160006101000a81548160ff021916908360038111156117c4576117c36125c5565b5b0217905550806000808373ffffffffffffffffffffffffffffffffffffffff1673ffffffffffffffffffffffffffffffffffffffff16815260200190815260200160002060040160016101000a81548173ffffffffffffffffffffffffffffffffffffffff021916908373ffffffffffffffffffffffffffffffffffffffff16021790555081600381111561185c5761185b6125c5565b5b600381111561186e5761186d6125c5565b5b8660405161187c91906135c6565b60405180910390208273ffffffffffffffffffffffffffffffffffffffff167fddb5d1667467713eb503e7e133811c91a231cb6b63f11930889c6004f36c35ee8888886040516118ce939291906135dd565b60405180910390a46003819080600181540180825580915050600190039060005260206000200160009091909190916101000a81548173ffffffffffffffffffffffffffffffffffffffff021916908373ffffffffffffffffffffffffffffffffffffffff1602179055506002600081548092919061194c90613353565b9190505550505050505050565b606060038054806020026020016040519081016040528092919081815260200182805480156119dd57602002820191906000526020600020905b8160009054906101000a900473ffffffffffffffffffffffffffffffffffffffff1673ffffffffffffffffffffffffffffffffffffffff1681526020019060010190808311611993575b5050505050905090565b600060058111156119fb576119fa6125c5565b5b82608001516005811115611a1257611a116125c5565b5b14611a52576040517f08c379a0000000000000000000000000000000000000000000000000000000008152600401611a499061369b565b60405180910390fd5b600060076000600b548152602001908152602001600020905083816001019080519060200190611a83929190612341565b5060008160020160006101000a81548160ff02191690836001811115611aac57611aab6125c5565b5b0217905550828160030160008201518160000155602082015181600101556040820151816002019080519060200190611ae6929190612341565b506060820151816003019080519060200190611b03929190612341565b5060808201518160040160006101000a81548160ff02191690836005811115611b2f57611b2e6125c5565b5b021790555060a0820151816005019080519060200190611b50929190612341565b50905050818160090160006101000a81548173ffffffffffffffffffffffffffffffffffffffff021916908373ffffffffffffffffffffffffffffffffffffffff1602179055507f51fc07e4e94804a1a5934ff343c58ff6a5c813add2652c992c9e03d670b1a120600b54600085866080015186604051611bd5959493929190613500565b60405180910390a1600b6000815480929190611bf090613353565b919050555050505050565b60085481565b6006602052806000526040600020600091509050806000015490806001018054611c2a9061329f565b80601f0160208091040260200160405190810160405280929190818152602001828054611c569061329f565b8015611ca35780601f10611c7857610100808354040283529160200191611ca3565b820191906000526020600020905b815481529060010190602001808311611c8657829003601f168201915b5050505050908060020160009054906101000a900460ff1690806003016040518060c00160405290816000820154815260200160018201548152602001600282018054611cef9061329f565b80601f0160208091040260200160405190810160405280929190818152602001828054611d1b9061329f565b8015611d685780601f10611d3d57610100808354040283529160200191611d68565b820191906000526020600020905b815481529060010190602001808311611d4b57829003601f168201915b50505050508152602001600382018054611d819061329f565b80601f0160208091040260200160405190810160405280929190818152602001828054611dad9061329f565b8015611dfa5780601f10611dcf57610100808354040283529160200191611dfa565b820191906000526020600020905b815481529060010190602001808311611ddd57829003601f168201915b505050505081526020016004820160009054906101000a900460ff166005811115611e2857611e276125c5565b5b6005811115611e3a57611e396125c5565b5b8152602001600582018054611e4e9061329f565b80601f0160208091040260200160405190810160405280929190818152602001828054611e7a9061329f565b8015611ec75780601f10611e9c57610100808354040283529160200191611ec7565b820191906000526020600020905b815481529060010190602001808311611eaa57829003601f168201915b505050505081525050908060090160009054906101000a900473ffffffffffffffffffffffffffffffffffffffff16905085565b611f03612425565b600560008381526020019081526020016000206040518060c00160405290816000820154815260200160018201548152602001600282018054611f459061329f565b80601f0160208091040260200160405190810160405280929190818152602001828054611f719061329f565b8015611fbe5780601f10611f9357610100808354040283529160200191611fbe565b820191906000526020600020905b815481529060010190602001808311611fa157829003601f168201915b50505050508152602001600382018054611fd79061329f565b80601f01602080910402602001604051908101604052809291908181526020018280546120039061329f565b80156120505780601f1061202557610100808354040283529160200191612050565b820191906000526020600020905b81548152906001019060200180831161203357829003601f168201915b505050505081526020016004820160009054906101000a900460ff16600581111561207e5761207d6125c5565b5b60058111156120905761208f6125c5565b5b81526020016005820180546120a49061329f565b80601f01602080910402602001604051908101604052809291908181526020018280546120d09061329f565b801561211d5780601f106120f25761010080835404028352916020019161211d565b820191906000526020600020905b81548152906001019060200180831161210057829003601f168201915b5050505050815250509050919050565b60016005811115612141576121406125c5565b5b82608001516005811115612158576121576125c5565b5b14612198576040517f08c379a000000000000000000000000000000000000000000000000000000000815260040161218f9061372d565b60405180910390fd5b600060066000600a5481526020019081526020016000209050838160010190805190602001906121c9929190612341565b5060008160020160006101000a81548160ff021916908360018111156121f2576121f16125c5565b5b021790555082816003016000820151816000015560208201518160010155604082015181600201908051906020019061222c929190612341565b506060820151816003019080519060200190612249929190612341565b5060808201518160040160006101000a81548160ff02191690836005811115612275576122746125c5565b5b021790555060a0820151816005019080519060200190612296929190612341565b50905050818160090160006101000a81548173ffffffffffffffffffffffffffffffffffffffff021916908373ffffffffffffffffffffffffffffffffffffffff1602179055507f01e27547a855bc3103d76f0b836f2e4939797b30500aa05b289ab0fa0d08d3d7600a5460008586608001518660405161231b959493929190613500565b60405180910390a1600a600081548092919061233690613353565b919050555050505050565b82805461234d9061329f565b90600052602060002090601f01602090048101928261236f57600085556123b6565b82601f1061238857805160ff19168380011785556123b6565b828001600101855582156123b6579182015b828111156123b557825182559160200191906001019061239a565b5b5090506123c39190612470565b5090565b6040518060c001604052806060815260200160608152602001606081526020016060815260200160006003811115612402576124016125c5565b5b8152602001600073ffffffffffffffffffffffffffffffffffffffff1681525090565b6040518060c001604052806000815260200160008019168152602001606081526020016060815260200160006005811115612463576124626125c5565b5b8152602001606081525090565b5b80821115612489576000816000905550600101612471565b5090565b6000604051905090565b600080fd5b600080fd5b6000819050919050565b6124b4816124a1565b81146124bf57600080fd5b50565b6000813590506124d1816124ab565b92915050565b6000602082840312156124ed576124ec612497565b5b60006124fb848285016124c2565b91505092915050565b61250d816124a1565b82525050565b6000819050919050565b61252681612513565b82525050565b600081519050919050565b600082825260208201905092915050565b60005b8381101561256657808201518184015260208101905061254b565b83811115612575576000848401525b50505050565b6000601f19601f8301169050919050565b60006125978261252c565b6125a18185612537565b93506125b1818560208601612548565b6125ba8161257b565b840191505092915050565b7f4e487b7100000000000000000000000000000000000000000000000000000000600052602160045260246000fd5b60068110612605576126046125c5565b5b50565b6000819050612616826125f4565b919050565b600061262682612608565b9050919050565b6126368161261b565b82525050565b600060c0820190506126516000830189612504565b61265e602083018861251d565b8181036040830152612670818761258c565b90508181036060830152612684818661258c565b9050612693608083018561262d565b81810360a08301526126a5818461258c565b9050979650505050505050565b600073ffffffffffffffffffffffffffffffffffffffff82169050919050565b60006126dd826126b2565b9050919050565b6126ed816126d2565b81146126f857600080fd5b50565b60008135905061270a816126e4565b92915050565b60006020828403121561272657612725612497565b5b6000612734848285016126fb565b91505092915050565b6004811061274e5761274d6125c5565b5b50565b600081905061275f8261273d565b919050565b600061276f82612751565b9050919050565b61277f81612764565b82525050565b61278e816126d2565b82525050565b600060c08201905081810360008301526127ae818961258c565b905081810360208301526127c2818861258c565b905081810360408301526127d6818761258c565b905081810360608301526127ea818661258c565b90506127f96080830185612776565b61280660a0830184612785565b979650505050505050565b600081519050919050565b600082825260208201905092915050565b6000819050602082019050919050565b612846816124a1565b82525050565b6000612858838361283d565b60208301905092915050565b6000602082019050919050565b600061287c82612811565b612886818561281c565b93506128918361282d565b8060005b838110156128c25781516128a9888261284c565b97506128b483612864565b925050600181019050612895565b5085935050505092915050565b600060208201905081810360008301526128e98184612871565b905092915050565b600080fd5b600080fd5b7f4e487b7100000000000000000000000000000000000000000000000000000000600052604160045260246000fd5b6129338261257b565b810181811067ffffffffffffffff82111715612952576129516128fb565b5b80604052505050565b600061296561248d565b9050612971828261292a565b919050565b600067ffffffffffffffff821115612991576129906128fb565b5b61299a8261257b565b9050602081019050919050565b82818337600083830152505050565b60006129c96129c484612976565b61295b565b9050828152602081018484840111156129e5576129e46128f6565b5b6129f08482856129a7565b509392505050565b600082601f830112612a0d57612a0c6128f1565b5b8135612a1d8482602086016129b6565b91505092915050565b600080600080600060a08688031215612a4257612a41612497565b5b600086013567ffffffffffffffff811115612a6057612a5f61249c565b5b612a6c888289016129f8565b955050602086013567ffffffffffffffff811115612a8d57612a8c61249c565b5b612a99888289016129f8565b9450506040612aaa888289016124c2565b935050606086013567ffffffffffffffff811115612acb57612aca61249c565b5b612ad7888289016129f8565b925050608086013567ffffffffffffffff811115612af857612af761249c565b5b612b04888289016129f8565b9150509295509295909350565b6000602082019050612b266000830184612504565b92915050565b6000602082019050612b416000830184612785565b92915050565b60008060408385031215612b5e57612b5d612497565b5b600083013567ffffffffffffffff811115612b7c57612b7b61249c565b5b612b88858286016129f8565b9250506020612b99858286016126fb565b9150509250929050565b6000602082019050612bb8600083018461251d565b92915050565b600082825260208201905092915050565b6000612bda8261252c565b612be48185612bbe565b9350612bf4818560208601612548565b612bfd8161257b565b840191505092915050565b612c1181612764565b82525050565b612c20816126d2565b82525050565b600060c0830160008301518482036000860152612c438282612bcf565b91505060208301518482036020860152612c5d8282612bcf565b91505060408301518482036040860152612c778282612bcf565b91505060608301518482036060860152612c918282612bcf565b9150506080830151612ca66080860182612c08565b5060a0830151612cb960a0860182612c17565b508091505092915050565b60006020820190508181036000830152612cde8184612c26565b905092915050565b600080fd5b600080fd5b612cf981612513565b8114612d0457600080fd5b50565b600081359050612d1681612cf0565b92915050565b60068110612d2957600080fd5b50565b600081359050612d3b81612d1c565b92915050565b600060c08284031215612d5757612d56612ce6565b5b612d6160c061295b565b90506000612d71848285016124c2565b6000830152506020612d8584828501612d07565b602083015250604082013567ffffffffffffffff811115612da957612da8612ceb565b5b612db5848285016129f8565b604083015250606082013567ffffffffffffffff811115612dd957612dd8612ceb565b5b612de5848285016129f8565b6060830152506080612df984828501612d2c565b60808301525060a082013567ffffffffffffffff811115612e1d57612e1c612ceb565b5b612e29848285016129f8565b60a08301525092915050565b600080600060608486031215612e4e57612e4d612497565b5b600084013567ffffffffffffffff811115612e6c57612e6b61249c565b5b612e78868287016129f8565b935050602084013567ffffffffffffffff811115612e9957612e9861249c565b5b612ea586828701612d41565b9250506040612eb6868287016126fb565b9150509250925092565b60028110612ed157612ed06125c5565b5b50565b6000819050612ee282612ec0565b919050565b6000612ef282612ed4565b9050919050565b612f0281612ee7565b82525050565b612f1181612513565b82525050565b612f208161261b565b82525050565b600060c083016000830151612f3e600086018261283d565b506020830151612f516020860182612f08565b5060408301518482036040860152612f698282612bcf565b91505060608301518482036060860152612f838282612bcf565b9150506080830151612f986080860182612f17565b5060a083015184820360a0860152612fb08282612bcf565b9150508091505092915050565b600060a082019050612fd26000830188612504565b8181036020830152612fe4818761258c565b9050612ff36040830186612ef9565b81810360608301526130058185612f26565b90506130146080830184612785565b9695505050505050565b6000806040838503121561303557613034612497565b5b6000613043858286016124c2565b9250506020613054858286016126fb565b9150509250929050565b60006020820190508181036000830152613078818461258c565b905092915050565b60008060008060008060c0878903121561309d5761309c612497565b5b600087013567ffffffffffffffff8111156130bb576130ba61249c565b5b6130c789828a016129f8565b965050602087013567ffffffffffffffff8111156130e8576130e761249c565b5b6130f489828a016129f8565b955050604087013567ffffffffffffffff8111156131155761311461249c565b5b61312189828a016129f8565b945050606087013567ffffffffffffffff8111156131425761314161249c565b5b61314e89828a016129f8565b935050608061315f89828a016124c2565b92505060a061317089828a016126fb565b9150509295509295509295565b600081519050919050565b600082825260208201905092915050565b6000819050602082019050919050565b60006131b58383612c17565b60208301905092915050565b6000602082019050919050565b60006131d98261317d565b6131e38185613188565b93506131ee83613199565b8060005b8381101561321f57815161320688826131a9565b9750613211836131c1565b9250506001810190506131f2565b5085935050505092915050565b6000602082019050818103600083015261324681846131ce565b905092915050565b600060208201905081810360008301526132688184612f26565b905092915050565b7f4e487b7100000000000000000000000000000000000000000000000000000000600052602260045260246000fd5b600060028204905060018216806132b757607f821691505b602082108114156132cb576132ca613270565b5b50919050565b600060808201905081810360008301526132eb818761258c565b905081810360208301526132ff818661258c565b905061330e604083018561262d565b61331b606083018461251d565b95945050505050565b7f4e487b7100000000000000000000000000000000000000000000000000000000600052601160045260246000fd5b600061335e826124a1565b91507fffffffffffffffffffffffffffffffffffffffffffffffffffffffffffffffff82141561339157613390613324565b5b600182019050919050565b600081905092915050565b60006133b28261252c565b6133bc818561339c565b93506133cc818560208601612548565b80840191505092915050565b60008160601b9050919050565b60006133f0826133d8565b9050919050565b6000613402826133e5565b9050919050565b61341a613415826126d2565b6133f7565b82525050565b600061342c82856133a7565b91506134388284613409565b6014820191508190509392505050565b7f5468652070726f6a656374206973206e6f7420696e2074686520274265666f7260008201527f6546696e616c697a6174696f6e436865636b27207374617475732c207468652060208201527f6f7065726174696f6e2063616e6e6f7420626520646f6e652e00000000000000604082015250565b60006134ca605983612537565b91506134d582613448565b606082019050919050565b600060208201905081810360008301526134f9816134bd565b9050919050565b600060a0820190506135156000830188612504565b6135226020830187612ef9565b81810360408301526135348186612f26565b9050613543606083018561262d565b6135506080830184612785565b9695505050505050565b7f596f7520617265206e6f7420616e206f776e6572000000000000000000000000600082015250565b6000613590601483612537565b915061359b8261355a565b602082019050919050565b600060208201905081810360008301526135bf81613583565b9050919050565b60006135d282846133a7565b915081905092915050565b600060608201905081810360008301526135f7818661258c565b9050818103602083015261360b818561258c565b9050818103604083015261361f818461258c565b9050949350505050565b7f5468652070726f6a656374206973206e6f7420637265617465642c207468652060008201527f6f7065726174696f6e2063616e6e6f7420626520646f6e652e00000000000000602082015250565b6000613685603983612537565b915061369082613629565b604082019050919050565b600060208201905081810360008301526136b481613678565b9050919050565b7f5468652070726f6a656374206973206e6f7420617070726f7665642c2074686560008201527f206f7065726174696f6e2063616e6e6f7420626520646f6e652e000000000000602082015250565b6000613717603a83612537565b9150613722826136bb565b604082019050919050565b600060208201905081810360008301526137468161370a565b905091905056fea26469706673582212209a6a61c5b1fecfaaf0b17d25cca9bae702c1efaa325b1bb0d4d895a2ee25ced664736f6c634300080a0033",
  "immutableReferences": {},
  "source": "// SPDX-License-Identifier: MIT\r\npragma solidity >=0.8.0 <0.9.0;\r\n\r\nimport \"./User.sol\";\r\n\r\ncontract Project is User {\r\n\r\n    address projectInitiator;\r\n\r\n    mapping(uint => S_Project) public projects;\r\n    mapping(uint => S_Request) public companyRequests;\r\n    mapping(uint => S_Request) public supervisorRequests;\r\n\r\n    uint public projectsCount = 0;\r\n    uint[] public projectIds;\r\n\r\n\r\n    uint indexCompanyRequest;\r\n    uint indexSupervisorRequest;\r\n\r\n    struct S_Project {\r\n        uint index;\r\n        bytes32 identifier;\r\n        string name;\r\n        string description;\r\n        ProjectStatus projectStatus;\r\n        string ipfsFileCID;\r\n    }\r\n\r\n    struct S_Request {\r\n        uint index;\r\n        string description;\r\n        RequestStatus status;\r\n        S_Project project;\r\n        address subjectAddress;\r\n    }\r\n\r\n    enum RequestStatus { Unverified, Verified }\r\n    enum ProjectStatus { Created, Approved, Rejected, OnGoing, BeforeFinalizationCheck, Completed }\r\n\r\n    //event CreateProject(uint _indexProject, Project.ProjectStatus _projectStatus, address _address);\r\n\r\n    event CreateProject(string _name, string _description, ProjectStatus _status, bytes32 _identifier);\r\n\r\n    event UpdateSupervisorRequestStatus(uint _indexRequest, RequestStatus _status, S_Project _project, ProjectStatus _projectStatus, address _subjectAddress);\r\n    event UpdateCompanyRequestStatus(uint _indexRequest, RequestStatus _status, S_Project _project, ProjectStatus _projectStatus, address _subjectAddress);\r\n\r\n    constructor() {\r\n        projectInitiator = msg.sender;\r\n    }\r\n\r\n    modifier onlyProjectInitiator {\r\n        require(userInfo[projectInitiator].role == Roles.ProjectInitiator, \"You don't have the rights for this resources.\");\r\n        require(projectInitiator == msg.sender, \"You are not a project initiator\");\r\n        _;\r\n    }\r\n\r\n    function createProject(string memory _name, string memory _description, uint _status, string memory _hashStringValue, string memory _ipfsFileCID) public  {\r\n        bytes32 _identifier = createUniqueIdentifier(_hashStringValue, msg.sender);\r\n\r\n        projects[projectsCount].index = projectsCount;\r\n        projects[projectsCount].identifier = _identifier;\r\n        projects[projectsCount].name = _name;\r\n        projects[projectsCount].description = _description;\r\n        projects[projectsCount].projectStatus = ProjectStatus(_status);\r\n        projects[projectsCount].ipfsFileCID = _ipfsFileCID;\r\n\r\n        emit CreateProject(_name, _description, ProjectStatus(_status), _identifier);\r\n        projectIds.push(projectsCount);\r\n        projectsCount++;\r\n    }\r\n\r\n    function getProjectInfo(uint _index)\r\n        external\r\n        view\r\n        returns (S_Project memory)\r\n    {\r\n        return projects[_index];\r\n    }\r\n\r\n    function getProjectIds() external view returns (uint[] memory) {\r\n        return projectIds;\r\n    }\r\n\r\n    function createUniqueIdentifier(string memory _text, address _addr) public pure returns (bytes32)  {\r\n        return keccak256(abi.encodePacked(_text, _addr));\r\n    }\r\n\r\n    function requestProjectApprovalFromSupervisor(string memory _description, S_Project memory _project, address _subjectAddress) public {\r\n        require(_project.projectStatus == ProjectStatus.Created, \"The project is not created, the operation cannot be done.\");\r\n\r\n        S_Request storage request = supervisorRequests[indexSupervisorRequest];\r\n        request.description = _description;\r\n        request.status = RequestStatus.Unverified;\r\n        request.project = _project;\r\n        request.subjectAddress = _subjectAddress;\r\n\r\n        emit UpdateSupervisorRequestStatus(indexSupervisorRequest, RequestStatus.Unverified, _project, _project.projectStatus, _subjectAddress);\r\n        indexSupervisorRequest++;\r\n    }\r\n\r\n    function requestProjectCompleteFromSupervisor(string memory _description, S_Project memory _project, address _subjectAddress) public {\r\n        require(\r\n            _project.projectStatus == ProjectStatus.BeforeFinalizationCheck,\r\n            \"The project is not in the 'BeforeFinalizationCheck' status, the operation cannot be done.\"\r\n        );\r\n\r\n        S_Request storage request = supervisorRequests[indexSupervisorRequest];\r\n        request.description = _description;\r\n        request.status = RequestStatus.Unverified;\r\n        request.project = _project;\r\n        request.subjectAddress = _subjectAddress;\r\n\r\n        emit UpdateSupervisorRequestStatus(indexSupervisorRequest, RequestStatus.Unverified, _project, _project.projectStatus, _subjectAddress);\r\n        indexSupervisorRequest++;\r\n    }\r\n\r\n    function requestStartProjectToCompanyBuilder(string memory _description, S_Project memory _project, address _subjectAddress) public {\r\n        require(_project.projectStatus == ProjectStatus.Approved, \"The project is not approved, the operation cannot be done.\");\r\n\r\n        S_Request storage request = companyRequests[indexCompanyRequest];\r\n        request.description = _description;\r\n        request.status = RequestStatus.Unverified;\r\n        request.project = _project;\r\n        request.subjectAddress = _subjectAddress;\r\n\r\n        emit UpdateCompanyRequestStatus(indexCompanyRequest, RequestStatus.Unverified, _project, _project.projectStatus, _subjectAddress);\r\n        indexCompanyRequest++;\r\n    }\r\n}",
  "sourcePath": "/mnt/c/users/beniamin/source/repos/dissertationproject/contracts/Project.sol",
  "compiler": {
    "name": "solc",
    "version": "0.8.10+commit.fc410830.Emscripten.clang"
  },
  "schemaVersion": "3.4.3",
  "updatedAt": "2021-11-15T08:27:03.600Z",
  "networkType": "ethereum",
  "devdoc": {
    "kind": "dev",
    "methods": {},
    "version": 1
  },
  "userdoc": {
    "kind": "user",
    "methods": {},
    "version": 1
  }
}