{
  "contractName": "ProjectChain",
  "abi": [
    {
      "inputs": [],
      "stateMutability": "nonpayable",
      "type": "constructor"
    },
    {
      "anonymous": false,
      "inputs": [
        {
          "components": [
            {
              "internalType": "uint256",
              "name": "_index",
              "type": "uint256"
            },
            {
              "internalType": "string",
              "name": "_name",
              "type": "string"
            },
            {
              "internalType": "enum SharedChain.ProjectStatus",
              "name": "_status",
              "type": "uint8"
            },
            {
              "internalType": "string",
              "name": "_ipfsFileCID",
              "type": "string"
            },
            {
              "internalType": "address",
              "name": "_projectAddress",
              "type": "address"
            },
            {
              "internalType": "address",
              "name": "_signerAddress",
              "type": "address"
            },
            {
              "internalType": "uint256",
              "name": "_timestamp",
              "type": "uint256"
            },
            {
              "internalType": "string",
              "name": "_signature",
              "type": "string"
            }
          ],
          "indexed": false,
          "internalType": "struct SharedChain.Project",
          "name": "_project",
          "type": "tuple"
        },
        {
          "indexed": true,
          "internalType": "address",
          "name": "_projectAddress",
          "type": "address"
        }
      ],
      "name": "ProjectEvent",
      "type": "event"
    },
    {
      "anonymous": false,
      "inputs": [
        {
          "components": [
            {
              "internalType": "uint256",
              "name": "_index",
              "type": "uint256"
            },
            {
              "internalType": "string",
              "name": "_title",
              "type": "string"
            },
            {
              "internalType": "string",
              "name": "_comments",
              "type": "string"
            },
            {
              "internalType": "enum SharedChain.ProjectStatus",
              "name": "_status",
              "type": "uint8"
            },
            {
              "internalType": "enum SharedChain.RequestStatus",
              "name": "_requestStatus",
              "type": "uint8"
            },
            {
              "internalType": "address",
              "name": "_projectAddress",
              "type": "address"
            },
            {
              "internalType": "address",
              "name": "_signerAddress",
              "type": "address"
            },
            {
              "internalType": "address",
              "name": "_requestAddress",
              "type": "address"
            },
            {
              "internalType": "uint256",
              "name": "_timestamp",
              "type": "uint256"
            },
            {
              "internalType": "string",
              "name": "_signature",
              "type": "string"
            }
          ],
          "indexed": false,
          "internalType": "struct SharedChain.ProjectRequest",
          "name": "_projectRequest",
          "type": "tuple"
        },
        {
          "indexed": true,
          "internalType": "address",
          "name": "_projectAddress",
          "type": "address"
        }
      ],
      "name": "ProjectRequestEvent",
      "type": "event"
    },
    {
      "anonymous": false,
      "inputs": [
        {
          "components": [
            {
              "internalType": "uint256",
              "name": "_index",
              "type": "uint256"
            },
            {
              "internalType": "uint256",
              "name": "_indexProjectRequest",
              "type": "uint256"
            },
            {
              "internalType": "string",
              "name": "_title",
              "type": "string"
            },
            {
              "internalType": "enum SharedChain.RequestStatus",
              "name": "_requestStatus",
              "type": "uint8"
            },
            {
              "internalType": "enum SharedChain.ProjectStatus",
              "name": "_projectStatus",
              "type": "uint8"
            },
            {
              "internalType": "enum SharedChain.RequestType",
              "name": "_requestType",
              "type": "uint8"
            },
            {
              "internalType": "address",
              "name": "_projectAddress",
              "type": "address"
            },
            {
              "internalType": "address",
              "name": "_signerAddress",
              "type": "address"
            },
            {
              "internalType": "address",
              "name": "_requestAddress",
              "type": "address"
            },
            {
              "internalType": "uint256",
              "name": "_timestamp",
              "type": "uint256"
            },
            {
              "internalType": "string",
              "name": "_signature",
              "type": "string"
            }
          ],
          "indexed": false,
          "internalType": "struct SharedChain.Request",
          "name": "_request",
          "type": "tuple"
        },
        {
          "indexed": true,
          "internalType": "address",
          "name": "_requestAddress",
          "type": "address"
        }
      ],
      "name": "RequestEvent",
      "type": "event"
    },
    {
      "anonymous": false,
      "inputs": [
        {
          "components": [
            {
              "internalType": "uint256",
              "name": "_index",
              "type": "uint256"
            },
            {
              "internalType": "string",
              "name": "_username",
              "type": "string"
            },
            {
              "internalType": "bytes32",
              "name": "_email",
              "type": "bytes32"
            },
            {
              "internalType": "bytes32",
              "name": "_firstname",
              "type": "bytes32"
            },
            {
              "internalType": "bytes32",
              "name": "_lastname",
              "type": "bytes32"
            },
            {
              "internalType": "enum SharedChain.Roles",
              "name": "_role",
              "type": "uint8"
            },
            {
              "internalType": "address",
              "name": "_walletAddress",
              "type": "address"
            },
            {
              "internalType": "uint256",
              "name": "_timestamp",
              "type": "uint256"
            },
            {
              "internalType": "string",
              "name": "_signature",
              "type": "string"
            }
          ],
          "indexed": false,
          "internalType": "struct SharedChain.User",
          "name": "_user",
          "type": "tuple"
        },
        {
          "indexed": true,
          "internalType": "address",
          "name": "_walletAddress",
          "type": "address"
        }
      ],
      "name": "UserEvent",
      "type": "event"
    },
    {
      "inputs": [
        {
          "internalType": "uint256",
          "name": "",
          "type": "uint256"
        }
      ],
      "name": "projectRequests",
      "outputs": [
        {
          "internalType": "uint256",
          "name": "_index",
          "type": "uint256"
        },
        {
          "internalType": "string",
          "name": "_title",
          "type": "string"
        },
        {
          "internalType": "string",
          "name": "_comments",
          "type": "string"
        },
        {
          "internalType": "enum SharedChain.ProjectStatus",
          "name": "_status",
          "type": "uint8"
        },
        {
          "internalType": "enum SharedChain.RequestStatus",
          "name": "_requestStatus",
          "type": "uint8"
        },
        {
          "internalType": "address",
          "name": "_projectAddress",
          "type": "address"
        },
        {
          "internalType": "address",
          "name": "_signerAddress",
          "type": "address"
        },
        {
          "internalType": "address",
          "name": "_requestAddress",
          "type": "address"
        },
        {
          "internalType": "uint256",
          "name": "_timestamp",
          "type": "uint256"
        },
        {
          "internalType": "string",
          "name": "_signature",
          "type": "string"
        }
      ],
      "stateMutability": "view",
      "type": "function",
      "constant": true
    },
    {
      "inputs": [
        {
          "internalType": "uint256",
          "name": "",
          "type": "uint256"
        }
      ],
      "name": "projectRequestsAddress",
      "outputs": [
        {
          "internalType": "address",
          "name": "",
          "type": "address"
        }
      ],
      "stateMutability": "view",
      "type": "function",
      "constant": true
    },
    {
      "inputs": [],
      "name": "projectRequestsCounter",
      "outputs": [
        {
          "internalType": "uint256",
          "name": "",
          "type": "uint256"
        }
      ],
      "stateMutability": "view",
      "type": "function",
      "constant": true
    },
    {
      "inputs": [
        {
          "internalType": "address",
          "name": "",
          "type": "address"
        }
      ],
      "name": "projects",
      "outputs": [
        {
          "internalType": "uint256",
          "name": "_index",
          "type": "uint256"
        },
        {
          "internalType": "string",
          "name": "_name",
          "type": "string"
        },
        {
          "internalType": "enum SharedChain.ProjectStatus",
          "name": "_status",
          "type": "uint8"
        },
        {
          "internalType": "string",
          "name": "_ipfsFileCID",
          "type": "string"
        },
        {
          "internalType": "address",
          "name": "_projectAddress",
          "type": "address"
        },
        {
          "internalType": "address",
          "name": "_signerAddress",
          "type": "address"
        },
        {
          "internalType": "uint256",
          "name": "_timestamp",
          "type": "uint256"
        },
        {
          "internalType": "string",
          "name": "_signature",
          "type": "string"
        }
      ],
      "stateMutability": "view",
      "type": "function",
      "constant": true
    },
    {
      "inputs": [
        {
          "internalType": "uint256",
          "name": "",
          "type": "uint256"
        }
      ],
      "name": "projectsAddress",
      "outputs": [
        {
          "internalType": "address",
          "name": "",
          "type": "address"
        }
      ],
      "stateMutability": "view",
      "type": "function",
      "constant": true
    },
    {
      "inputs": [],
      "name": "projectsCounter",
      "outputs": [
        {
          "internalType": "uint256",
          "name": "",
          "type": "uint256"
        }
      ],
      "stateMutability": "view",
      "type": "function",
      "constant": true
    },
    {
      "inputs": [
        {
          "internalType": "uint256",
          "name": "",
          "type": "uint256"
        }
      ],
      "name": "requests",
      "outputs": [
        {
          "internalType": "uint256",
          "name": "_index",
          "type": "uint256"
        },
        {
          "internalType": "uint256",
          "name": "_indexProjectRequest",
          "type": "uint256"
        },
        {
          "internalType": "string",
          "name": "_title",
          "type": "string"
        },
        {
          "internalType": "enum SharedChain.RequestStatus",
          "name": "_requestStatus",
          "type": "uint8"
        },
        {
          "internalType": "enum SharedChain.ProjectStatus",
          "name": "_projectStatus",
          "type": "uint8"
        },
        {
          "internalType": "enum SharedChain.RequestType",
          "name": "_requestType",
          "type": "uint8"
        },
        {
          "internalType": "address",
          "name": "_projectAddress",
          "type": "address"
        },
        {
          "internalType": "address",
          "name": "_signerAddress",
          "type": "address"
        },
        {
          "internalType": "address",
          "name": "_requestAddress",
          "type": "address"
        },
        {
          "internalType": "uint256",
          "name": "_timestamp",
          "type": "uint256"
        },
        {
          "internalType": "string",
          "name": "_signature",
          "type": "string"
        }
      ],
      "stateMutability": "view",
      "type": "function",
      "constant": true
    },
    {
      "inputs": [],
      "name": "requestsCounter",
      "outputs": [
        {
          "internalType": "uint256",
          "name": "",
          "type": "uint256"
        }
      ],
      "stateMutability": "view",
      "type": "function",
      "constant": true
    },
    {
      "inputs": [],
      "name": "getUsersCounter",
      "outputs": [
        {
          "internalType": "uint256",
          "name": "",
          "type": "uint256"
        }
      ],
      "stateMutability": "view",
      "type": "function",
      "constant": true
    },
    {
      "inputs": [],
      "name": "getAddress",
      "outputs": [
        {
          "internalType": "address",
          "name": "",
          "type": "address"
        }
      ],
      "stateMutability": "view",
      "type": "function",
      "constant": true
    },
    {
      "inputs": [
        {
          "internalType": "string",
          "name": "_name",
          "type": "string"
        },
        {
          "internalType": "uint256",
          "name": "_index",
          "type": "uint256"
        }
      ],
      "name": "createUniqueProjectAddress",
      "outputs": [
        {
          "internalType": "address",
          "name": "",
          "type": "address"
        }
      ],
      "stateMutability": "view",
      "type": "function",
      "constant": true
    },
    {
      "inputs": [
        {
          "internalType": "address",
          "name": "_projectAddress",
          "type": "address"
        },
        {
          "internalType": "string",
          "name": "_name",
          "type": "string"
        },
        {
          "internalType": "uint256",
          "name": "_status",
          "type": "uint256"
        },
        {
          "internalType": "string",
          "name": "_ipfsFileCID",
          "type": "string"
        },
        {
          "internalType": "string",
          "name": "_signature",
          "type": "string"
        }
      ],
      "name": "createProject",
      "outputs": [],
      "stateMutability": "nonpayable",
      "type": "function"
    },
    {
      "inputs": [
        {
          "internalType": "address",
          "name": "_projectAddress",
          "type": "address"
        },
        {
          "internalType": "string",
          "name": "_ipfsFileCID",
          "type": "string"
        },
        {
          "internalType": "string",
          "name": "_signature",
          "type": "string"
        }
      ],
      "name": "updateProject",
      "outputs": [],
      "stateMutability": "nonpayable",
      "type": "function"
    },
    {
      "inputs": [
        {
          "internalType": "address",
          "name": "_address",
          "type": "address"
        }
      ],
      "name": "getProjectInfo",
      "outputs": [
        {
          "components": [
            {
              "internalType": "uint256",
              "name": "_index",
              "type": "uint256"
            },
            {
              "internalType": "string",
              "name": "_name",
              "type": "string"
            },
            {
              "internalType": "enum SharedChain.ProjectStatus",
              "name": "_status",
              "type": "uint8"
            },
            {
              "internalType": "string",
              "name": "_ipfsFileCID",
              "type": "string"
            },
            {
              "internalType": "address",
              "name": "_projectAddress",
              "type": "address"
            },
            {
              "internalType": "address",
              "name": "_signerAddress",
              "type": "address"
            },
            {
              "internalType": "uint256",
              "name": "_timestamp",
              "type": "uint256"
            },
            {
              "internalType": "string",
              "name": "_signature",
              "type": "string"
            }
          ],
          "internalType": "struct SharedChain.Project",
          "name": "",
          "type": "tuple"
        }
      ],
      "stateMutability": "view",
      "type": "function",
      "constant": true
    },
    {
      "inputs": [],
      "name": "getAllProjects",
      "outputs": [
        {
          "components": [
            {
              "internalType": "uint256",
              "name": "_index",
              "type": "uint256"
            },
            {
              "internalType": "string",
              "name": "_name",
              "type": "string"
            },
            {
              "internalType": "enum SharedChain.ProjectStatus",
              "name": "_status",
              "type": "uint8"
            },
            {
              "internalType": "string",
              "name": "_ipfsFileCID",
              "type": "string"
            },
            {
              "internalType": "address",
              "name": "_projectAddress",
              "type": "address"
            },
            {
              "internalType": "address",
              "name": "_signerAddress",
              "type": "address"
            },
            {
              "internalType": "uint256",
              "name": "_timestamp",
              "type": "uint256"
            },
            {
              "internalType": "string",
              "name": "_signature",
              "type": "string"
            }
          ],
          "internalType": "struct SharedChain.Project[]",
          "name": "",
          "type": "tuple[]"
        }
      ],
      "stateMutability": "view",
      "type": "function",
      "constant": true
    },
    {
      "inputs": [
        {
          "internalType": "string",
          "name": "_title",
          "type": "string"
        },
        {
          "internalType": "uint256",
          "name": "_index",
          "type": "uint256"
        }
      ],
      "name": "createUniqueProjectRequestAddress",
      "outputs": [
        {
          "internalType": "address",
          "name": "",
          "type": "address"
        }
      ],
      "stateMutability": "view",
      "type": "function",
      "constant": true
    },
    {
      "inputs": [
        {
          "internalType": "string",
          "name": "_title",
          "type": "string"
        },
        {
          "internalType": "uint256",
          "name": "_status",
          "type": "uint256"
        },
        {
          "internalType": "uint256",
          "name": "_requestStatus",
          "type": "uint256"
        },
        {
          "internalType": "address",
          "name": "_projectAddress",
          "type": "address"
        },
        {
          "internalType": "address",
          "name": "_projectReqAddress",
          "type": "address"
        },
        {
          "internalType": "string",
          "name": "_signature",
          "type": "string"
        }
      ],
      "name": "createProjectRequest",
      "outputs": [],
      "stateMutability": "nonpayable",
      "type": "function"
    },
    {
      "inputs": [],
      "name": "getAllProjectRequests",
      "outputs": [
        {
          "components": [
            {
              "internalType": "uint256",
              "name": "_index",
              "type": "uint256"
            },
            {
              "internalType": "string",
              "name": "_title",
              "type": "string"
            },
            {
              "internalType": "string",
              "name": "_comments",
              "type": "string"
            },
            {
              "internalType": "enum SharedChain.ProjectStatus",
              "name": "_status",
              "type": "uint8"
            },
            {
              "internalType": "enum SharedChain.RequestStatus",
              "name": "_requestStatus",
              "type": "uint8"
            },
            {
              "internalType": "address",
              "name": "_projectAddress",
              "type": "address"
            },
            {
              "internalType": "address",
              "name": "_signerAddress",
              "type": "address"
            },
            {
              "internalType": "address",
              "name": "_requestAddress",
              "type": "address"
            },
            {
              "internalType": "uint256",
              "name": "_timestamp",
              "type": "uint256"
            },
            {
              "internalType": "string",
              "name": "_signature",
              "type": "string"
            }
          ],
          "internalType": "struct SharedChain.ProjectRequest[]",
          "name": "",
          "type": "tuple[]"
        }
      ],
      "stateMutability": "view",
      "type": "function",
      "constant": true
    },
    {
      "inputs": [
        {
          "internalType": "address",
          "name": "_projectAddress",
          "type": "address"
        }
      ],
      "name": "getLastProjectRequest",
      "outputs": [
        {
          "components": [
            {
              "internalType": "uint256",
              "name": "_index",
              "type": "uint256"
            },
            {
              "internalType": "string",
              "name": "_title",
              "type": "string"
            },
            {
              "internalType": "string",
              "name": "_comments",
              "type": "string"
            },
            {
              "internalType": "enum SharedChain.ProjectStatus",
              "name": "_status",
              "type": "uint8"
            },
            {
              "internalType": "enum SharedChain.RequestStatus",
              "name": "_requestStatus",
              "type": "uint8"
            },
            {
              "internalType": "address",
              "name": "_projectAddress",
              "type": "address"
            },
            {
              "internalType": "address",
              "name": "_signerAddress",
              "type": "address"
            },
            {
              "internalType": "address",
              "name": "_requestAddress",
              "type": "address"
            },
            {
              "internalType": "uint256",
              "name": "_timestamp",
              "type": "uint256"
            },
            {
              "internalType": "string",
              "name": "_signature",
              "type": "string"
            }
          ],
          "internalType": "struct SharedChain.ProjectRequest",
          "name": "",
          "type": "tuple"
        }
      ],
      "stateMutability": "view",
      "type": "function",
      "constant": true
    },
    {
      "inputs": [
        {
          "internalType": "uint256",
          "name": "_index",
          "type": "uint256"
        },
        {
          "internalType": "uint256",
          "name": "_indexProjectRequest",
          "type": "uint256"
        },
        {
          "internalType": "string",
          "name": "_comments",
          "type": "string"
        },
        {
          "internalType": "uint256",
          "name": "_requestStatus",
          "type": "uint256"
        },
        {
          "internalType": "uint256",
          "name": "_projectStatus",
          "type": "uint256"
        },
        {
          "internalType": "address",
          "name": "_projectAddress",
          "type": "address"
        },
        {
          "internalType": "string",
          "name": "_signature",
          "type": "string"
        }
      ],
      "name": "updateRequest",
      "outputs": [],
      "stateMutability": "nonpayable",
      "type": "function"
    },
    {
      "inputs": [],
      "name": "getAllRequests",
      "outputs": [
        {
          "components": [
            {
              "internalType": "uint256",
              "name": "_index",
              "type": "uint256"
            },
            {
              "internalType": "uint256",
              "name": "_indexProjectRequest",
              "type": "uint256"
            },
            {
              "internalType": "string",
              "name": "_title",
              "type": "string"
            },
            {
              "internalType": "enum SharedChain.RequestStatus",
              "name": "_requestStatus",
              "type": "uint8"
            },
            {
              "internalType": "enum SharedChain.ProjectStatus",
              "name": "_projectStatus",
              "type": "uint8"
            },
            {
              "internalType": "enum SharedChain.RequestType",
              "name": "_requestType",
              "type": "uint8"
            },
            {
              "internalType": "address",
              "name": "_projectAddress",
              "type": "address"
            },
            {
              "internalType": "address",
              "name": "_signerAddress",
              "type": "address"
            },
            {
              "internalType": "address",
              "name": "_requestAddress",
              "type": "address"
            },
            {
              "internalType": "uint256",
              "name": "_timestamp",
              "type": "uint256"
            },
            {
              "internalType": "string",
              "name": "_signature",
              "type": "string"
            }
          ],
          "internalType": "struct SharedChain.Request[]",
          "name": "",
          "type": "tuple[]"
        }
      ],
      "stateMutability": "view",
      "type": "function",
      "constant": true
    }
  ],
  "bytecode": "0x60806040526000600355600060065560006009553480156200002057600080fd5b50336000806101000a81548173ffffffffffffffffffffffffffffffffffffffff021916908373ffffffffffffffffffffffffffffffffffffffff1602179055506040516200006f90620000d3565b604051809103906000f0801580156200008c573d6000803e3d6000fd5b50600160006101000a81548173ffffffffffffffffffffffffffffffffffffffff021916908373ffffffffffffffffffffffffffffffffffffffff160217905550620000e1565b6118e18062004b5483390190565b614a6380620000f16000396000f3fe608060405234801561001057600080fd5b50600436106101375760003560e01c806380d03829116100b8578063cc1ee4db1161007c578063cc1ee4db146103b6578063e1592c0d146103d4578063ea95d931146103f0578063fb1a002a1461040e578063fbdd64601461042c578063fe360ea51461044857610137565b806380d03829146102d257806381d12c58146102f0578063840e78fd1461032a5780638448556314610361578063c19ded131461037d57610137565b806347ee45b9116100ff57806347ee45b9146101f4578063663c22691461022457806376c932e01461024257806378e8cd85146102725780637bc406ec146102a257610137565b80630b2878921461013c578063191e16451461016c5780632d757d8e1461019c57806338cc4831146101b8578063400003db146101d6575b600080fd5b61015660048036038101906101519190613112565b610466565b60405161016391906133a7565b60405180910390f35b6101866004803603810190610181919061352a565b61068b565b6040516101939190613595565b60405180910390f35b6101b660048036038101906101b191906135b0565b6106e3565b005b6101c0610a4a565b6040516101cd9190613595565b60405180910390f35b6101de610a52565b6040516101eb9190613834565b60405180910390f35b61020e60048036038101906102099190613112565b610e6f565b60405161021b9190613914565b60405180910390f35b61022c61117a565b6040516102399190613945565b60405180910390f35b61025c60048036038101906102579190613960565b611180565b6040516102699190613595565b60405180910390f35b61028c60048036038101906102879190613960565b6111bf565b6040516102999190613595565b60405180910390f35b6102bc60048036038101906102b7919061352a565b6111fe565b6040516102c99190613595565b60405180910390f35b6102da611256565b6040516102e79190613b0d565b60405180910390f35b61030a60048036038101906103059190613960565b611652565b6040516103219b9a99989796959493929190613bdf565b60405180910390f35b610344600480360381019061033f9190613112565b611843565b604051610358989796959493929190613c98565b60405180910390f35b61037b60048036038101906103769190613d2b565b611a70565b005b61039760048036038101906103929190613960565b611d95565b6040516103ad9a99989796959493929190613dfa565b60405180910390f35b6103be611ffb565b6040516103cb9190613945565b60405180910390f35b6103ee60048036038101906103e99190613eab565b612001565b005b6103f8612140565b6040516104059190613945565b60405180910390f35b6104166121d8565b60405161042391906140fd565b60405180910390f35b6104466004803603810190610441919061411f565b6125a8565b005b610450612959565b60405161045d9190613945565b60405180910390f35b61046e612def565b610476612def565b6000600654111561068157600060016006546104929190614213565b90505b6000811061067f576005600082815260200190815260200160002060030160029054906101000a900473ffffffffffffffffffffffffffffffffffffffff1673ffffffffffffffffffffffffffffffffffffffff168473ffffffffffffffffffffffffffffffffffffffff16141561066c57604051806101400160405280600081526020016040518060200160405280600081525081526020016040518060200160405280600081525081526020016005600084815260200190815260200160002060030160009054906101000a900460ff16600481111561057a576105796131f1565b5b81526020016005600084815260200190815260200160002060030160019054906101000a900460ff1660028111156105b5576105b46131f1565b5b81526020016005600084815260200190815260200160002060030160029054906101000a900473ffffffffffffffffffffffffffffffffffffffff1673ffffffffffffffffffffffffffffffffffffffff168152602001600073ffffffffffffffffffffffffffffffffffffffff168152602001600073ffffffffffffffffffffffffffffffffffffffff168152602001600081526020016040518060200160405280600081525081525091508192505050610686565b808061067790614247565b915050610495565b505b809150505b919050565b60008260008054906101000a900473ffffffffffffffffffffffffffffffffffffffff16836040516020016106c293929190614316565b6040516020818303038152906040528051906020012060001c905092915050565b8360028111156106f6576106f56131f1565b5b6008600089815260200190815260200160002060030160006101000a81548160ff0219169083600281111561072e5761072d6131f1565b5b02179055508060086000898152602001908152602001600020600701908051906020019061075d929190612ea8565b506008600088815260200190815260200160002060050160009054906101000a900473ffffffffffffffffffffffffffffffffffffffff1673ffffffffffffffffffffffffffffffffffffffff167f4a2aa9c37fdc971a24d9081164299dd70beb053eacacaeb4e59d5d998334ef11600860008a81526020019081526020016000206040516107ec91906146a7565b60405180910390a28460056000888152602001908152602001600020600201908051906020019061081e929190612ea8565b50836002811115610832576108316131f1565b5b6005600088815260200190815260200160002060030160016101000a81548160ff0219169083600281111561086a576108696131f1565b5b021790555080600560008881526020019081526020016000206007019080519060200190610899929190612ea8565b508173ffffffffffffffffffffffffffffffffffffffff167fb503855b01edd8caf0051e68bacef096056daa0d24478362eaa8a4f4b8a7130e600560008981526020019081526020016000206040516108f2919061483b565b60405180910390a283600281111561090d5761090c6131f1565b5b600281111561091f5761091e6131f1565b5b600280811115610932576109316131f1565b5b1415610a415782600481111561094b5761094a6131f1565b5b600260008473ffffffffffffffffffffffffffffffffffffffff1673ffffffffffffffffffffffffffffffffffffffff16815260200190815260200160002060020160006101000a81548160ff021916908360048111156109af576109ae6131f1565b5b02179055508173ffffffffffffffffffffffffffffffffffffffff167fac85378acf27ea180ea9b66d81dac89bcc984812edf7111c9413f708da4ca37a600260008573ffffffffffffffffffffffffffffffffffffffff1673ffffffffffffffffffffffffffffffffffffffff168152602001908152602001600020604051610a389190614951565b60405180910390a25b50505050505050565b600033905090565b60608060006006541415610a695780915050610e6c565b60065467ffffffffffffffff811115610a8557610a846133d3565b5b604051908082528060200260200182016040528015610abe57816020015b610aab612def565b815260200190600190039081610aa35790505b50905060005b600654811015610e66576000600560008381526020019081526020016000209050806040518061014001604052908160008201548152602001600182018054610b0c906143af565b80601f0160208091040260200160405190810160405280929190818152602001828054610b38906143af565b8015610b855780601f10610b5a57610100808354040283529160200191610b85565b820191906000526020600020905b815481529060010190602001808311610b6857829003601f168201915b50505050508152602001600282018054610b9e906143af565b80601f0160208091040260200160405190810160405280929190818152602001828054610bca906143af565b8015610c175780601f10610bec57610100808354040283529160200191610c17565b820191906000526020600020905b815481529060010190602001808311610bfa57829003601f168201915b505050505081526020016003820160009054906101000a900460ff166004811115610c4557610c446131f1565b5b6004811115610c5757610c566131f1565b5b81526020016003820160019054906101000a900460ff166002811115610c8057610c7f6131f1565b5b6002811115610c9257610c916131f1565b5b81526020016003820160029054906101000a900473ffffffffffffffffffffffffffffffffffffffff1673ffffffffffffffffffffffffffffffffffffffff1673ffffffffffffffffffffffffffffffffffffffff1681526020016004820160009054906101000a900473ffffffffffffffffffffffffffffffffffffffff1673ffffffffffffffffffffffffffffffffffffffff1673ffffffffffffffffffffffffffffffffffffffff1681526020016005820160009054906101000a900473ffffffffffffffffffffffffffffffffffffffff1673ffffffffffffffffffffffffffffffffffffffff1673ffffffffffffffffffffffffffffffffffffffff16815260200160068201548152602001600782018054610db2906143af565b80601f0160208091040260200160405190810160405280929190818152602001828054610dde906143af565b8015610e2b5780601f10610e0057610100808354040283529160200191610e2b565b820191906000526020600020905b815481529060010190602001808311610e0e57829003601f168201915b505050505081525050838381518110610e4757610e46614973565b5b6020026020010181905250508080610e5e906149a2565b915050610ac4565b50809150505b90565b610e77612f2e565b600260008373ffffffffffffffffffffffffffffffffffffffff1673ffffffffffffffffffffffffffffffffffffffff1681526020019081526020016000206040518061010001604052908160008201548152602001600182018054610edc906143af565b80601f0160208091040260200160405190810160405280929190818152602001828054610f08906143af565b8015610f555780601f10610f2a57610100808354040283529160200191610f55565b820191906000526020600020905b815481529060010190602001808311610f3857829003601f168201915b505050505081526020016002820160009054906101000a900460ff166004811115610f8357610f826131f1565b5b6004811115610f9557610f946131f1565b5b8152602001600382018054610fa9906143af565b80601f0160208091040260200160405190810160405280929190818152602001828054610fd5906143af565b80156110225780601f10610ff757610100808354040283529160200191611022565b820191906000526020600020905b81548152906001019060200180831161100557829003601f168201915b505050505081526020016004820160009054906101000a900473ffffffffffffffffffffffffffffffffffffffff1673ffffffffffffffffffffffffffffffffffffffff1673ffffffffffffffffffffffffffffffffffffffff1681526020016005820160009054906101000a900473ffffffffffffffffffffffffffffffffffffffff1673ffffffffffffffffffffffffffffffffffffffff1673ffffffffffffffffffffffffffffffffffffffff168152602001600682015481526020016007820180546110f1906143af565b80601f016020809104026020016040519081016040528092919081815260200182805461111d906143af565b801561116a5780601f1061113f5761010080835404028352916020019161116a565b820191906000526020600020905b81548152906001019060200180831161114d57829003601f168201915b5050505050815250509050919050565b60095481565b6004818154811061119057600080fd5b906000526020600020016000915054906101000a900473ffffffffffffffffffffffffffffffffffffffff1681565b600781815481106111cf57600080fd5b906000526020600020016000915054906101000a900473ffffffffffffffffffffffffffffffffffffffff1681565b60008260008054906101000a900473ffffffffffffffffffffffffffffffffffffffff168360405160200161123593929190614316565b6040516020818303038152906040528051906020012060001c905092915050565b6060806000600354141561126d578091505061164f565b60035467ffffffffffffffff811115611289576112886133d3565b5b6040519080825280602002602001820160405280156112c257816020015b6112af612f2e565b8152602001906001900390816112a75790505b50905060005b600354811015611649576000600482815481106112e8576112e7614973565b5b9060005260206000200160009054906101000a900473ffffffffffffffffffffffffffffffffffffffff1690506000600260008373ffffffffffffffffffffffffffffffffffffffff1673ffffffffffffffffffffffffffffffffffffffff168152602001908152602001600020905080604051806101000160405290816000820154815260200160018201805461137f906143af565b80601f01602080910402602001604051908101604052809291908181526020018280546113ab906143af565b80156113f85780601f106113cd576101008083540402835291602001916113f8565b820191906000526020600020905b8154815290600101906020018083116113db57829003601f168201915b505050505081526020016002820160009054906101000a900460ff166004811115611426576114256131f1565b5b6004811115611438576114376131f1565b5b815260200160038201805461144c906143af565b80601f0160208091040260200160405190810160405280929190818152602001828054611478906143af565b80156114c55780601f1061149a576101008083540402835291602001916114c5565b820191906000526020600020905b8154815290600101906020018083116114a857829003601f168201915b505050505081526020016004820160009054906101000a900473ffffffffffffffffffffffffffffffffffffffff1673ffffffffffffffffffffffffffffffffffffffff1673ffffffffffffffffffffffffffffffffffffffff1681526020016005820160009054906101000a900473ffffffffffffffffffffffffffffffffffffffff1673ffffffffffffffffffffffffffffffffffffffff1673ffffffffffffffffffffffffffffffffffffffff16815260200160068201548152602001600782018054611594906143af565b80601f01602080910402602001604051908101604052809291908181526020018280546115c0906143af565b801561160d5780601f106115e25761010080835404028352916020019161160d565b820191906000526020600020905b8154815290600101906020018083116115f057829003601f168201915b50505050508152505084848151811061162957611628614973565b5b602002602001018190525050508080611641906149a2565b9150506112c8565b50809150505b90565b6008602052806000526040600020600091509050806000015490806001015490806002018054611681906143af565b80601f01602080910402602001604051908101604052809291908181526020018280546116ad906143af565b80156116fa5780601f106116cf576101008083540402835291602001916116fa565b820191906000526020600020905b8154815290600101906020018083116116dd57829003601f168201915b5050505050908060030160009054906101000a900460ff16908060030160019054906101000a900460ff16908060030160029054906101000a900460ff16908060030160039054906101000a900473ffffffffffffffffffffffffffffffffffffffff16908060040160009054906101000a900473ffffffffffffffffffffffffffffffffffffffff16908060050160009054906101000a900473ffffffffffffffffffffffffffffffffffffffff16908060060154908060070180546117c0906143af565b80601f01602080910402602001604051908101604052809291908181526020018280546117ec906143af565b80156118395780601f1061180e57610100808354040283529160200191611839565b820191906000526020600020905b81548152906001019060200180831161181c57829003601f168201915b505050505090508b565b600260205280600052604060002060009150905080600001549080600101805461186c906143af565b80601f0160208091040260200160405190810160405280929190818152602001828054611898906143af565b80156118e55780601f106118ba576101008083540402835291602001916118e5565b820191906000526020600020905b8154815290600101906020018083116118c857829003601f168201915b5050505050908060020160009054906101000a900460ff169080600301805461190d906143af565b80601f0160208091040260200160405190810160405280929190818152602001828054611939906143af565b80156119865780601f1061195b57610100808354040283529160200191611986565b820191906000526020600020905b81548152906001019060200180831161196957829003601f168201915b5050505050908060040160009054906101000a900473ffffffffffffffffffffffffffffffffffffffff16908060050160009054906101000a900473ffffffffffffffffffffffffffffffffffffffff16908060060154908060070180546119ed906143af565b80601f0160208091040260200160405190810160405280929190818152602001828054611a19906143af565b8015611a665780601f10611a3b57610100808354040283529160200191611a66565b820191906000526020600020905b815481529060010190602001808311611a4957829003601f168201915b5050505050905088565b6040518061010001604052806003548152602001858152602001846004811115611a9d57611a9c6131f1565b5b6004811115611aaf57611aae6131f1565b5b81526020018381526020018673ffffffffffffffffffffffffffffffffffffffff16815260200160008054906101000a900473ffffffffffffffffffffffffffffffffffffffff1673ffffffffffffffffffffffffffffffffffffffff16815260200142815260200182815250600260008773ffffffffffffffffffffffffffffffffffffffff1673ffffffffffffffffffffffffffffffffffffffff168152602001908152602001600020600082015181600001556020820151816001019080519060200190611b81929190612ea8565b5060408201518160020160006101000a81548160ff02191690836004811115611bad57611bac6131f1565b5b02179055506060820151816003019080519060200190611bce929190612ea8565b5060808201518160040160006101000a81548173ffffffffffffffffffffffffffffffffffffffff021916908373ffffffffffffffffffffffffffffffffffffffff16021790555060a08201518160050160006101000a81548173ffffffffffffffffffffffffffffffffffffffff021916908373ffffffffffffffffffffffffffffffffffffffff16021790555060c0820151816006015560e0820151816007019080519060200190611c83929190612ea8565b509050508473ffffffffffffffffffffffffffffffffffffffff167fac85378acf27ea180ea9b66d81dac89bcc984812edf7111c9413f708da4ca37a600260008873ffffffffffffffffffffffffffffffffffffffff1673ffffffffffffffffffffffffffffffffffffffff168152602001908152602001600020604051611d0b9190614951565b60405180910390a26004859080600181540180825580915050600190039060005260206000200160009091909190916101000a81548173ffffffffffffffffffffffffffffffffffffffff021916908373ffffffffffffffffffffffffffffffffffffffff16021790555060036000815480929190611d89906149a2565b91905055505050505050565b6005602052806000526040600020600091509050806000015490806001018054611dbe906143af565b80601f0160208091040260200160405190810160405280929190818152602001828054611dea906143af565b8015611e375780601f10611e0c57610100808354040283529160200191611e37565b820191906000526020600020905b815481529060010190602001808311611e1a57829003601f168201915b505050505090806002018054611e4c906143af565b80601f0160208091040260200160405190810160405280929190818152602001828054611e78906143af565b8015611ec55780601f10611e9a57610100808354040283529160200191611ec5565b820191906000526020600020905b815481529060010190602001808311611ea857829003601f168201915b5050505050908060030160009054906101000a900460ff16908060030160019054906101000a900460ff16908060030160029054906101000a900473ffffffffffffffffffffffffffffffffffffffff16908060040160009054906101000a900473ffffffffffffffffffffffffffffffffffffffff16908060050160009054906101000a900473ffffffffffffffffffffffffffffffffffffffff1690806006015490806007018054611f78906143af565b80601f0160208091040260200160405190810160405280929190818152602001828054611fa4906143af565b8015611ff15780601f10611fc657610100808354040283529160200191611ff1565b820191906000526020600020905b815481529060010190602001808311611fd457829003601f168201915b505050505090508a565b60065481565b81600260008573ffffffffffffffffffffffffffffffffffffffff1673ffffffffffffffffffffffffffffffffffffffff1681526020019081526020016000206003019080519060200190612057929190612ea8565b5080600260008573ffffffffffffffffffffffffffffffffffffffff1673ffffffffffffffffffffffffffffffffffffffff16815260200190815260200160002060070190805190602001906120ae929190612ea8565b508273ffffffffffffffffffffffffffffffffffffffff167fac85378acf27ea180ea9b66d81dac89bcc984812edf7111c9413f708da4ca37a600260008673ffffffffffffffffffffffffffffffffffffffff1673ffffffffffffffffffffffffffffffffffffffff1681526020019081526020016000206040516121339190614951565b60405180910390a2505050565b6000600160009054906101000a900473ffffffffffffffffffffffffffffffffffffffff1673ffffffffffffffffffffffffffffffffffffffff1663d699bc8c6040518163ffffffff1660e01b8152600401602060405180830381865afa1580156121af573d6000803e3d6000fd5b505050506040513d601f19601f820116820180604052508101906121d39190614a00565b905090565b606080600060095414156121ef57809150506125a5565b60095467ffffffffffffffff81111561220b5761220a6133d3565b5b60405190808252806020026020018201604052801561224457816020015b612231612fb1565b8152602001906001900390816122295790505b50905060005b60095481101561259f5760006008600083815260200190815260200160002090508060405180610160016040529081600082015481526020016001820154815260200160028201805461229c906143af565b80601f01602080910402602001604051908101604052809291908181526020018280546122c8906143af565b80156123155780601f106122ea57610100808354040283529160200191612315565b820191906000526020600020905b8154815290600101906020018083116122f857829003601f168201915b505050505081526020016003820160009054906101000a900460ff166002811115612343576123426131f1565b5b6002811115612355576123546131f1565b5b81526020016003820160019054906101000a900460ff16600481111561237e5761237d6131f1565b5b60048111156123905761238f6131f1565b5b81526020016003820160029054906101000a900460ff1660018111156123b9576123b86131f1565b5b60018111156123cb576123ca6131f1565b5b81526020016003820160039054906101000a900473ffffffffffffffffffffffffffffffffffffffff1673ffffffffffffffffffffffffffffffffffffffff1673ffffffffffffffffffffffffffffffffffffffff1681526020016004820160009054906101000a900473ffffffffffffffffffffffffffffffffffffffff1673ffffffffffffffffffffffffffffffffffffffff1673ffffffffffffffffffffffffffffffffffffffff1681526020016005820160009054906101000a900473ffffffffffffffffffffffffffffffffffffffff1673ffffffffffffffffffffffffffffffffffffffff1673ffffffffffffffffffffffffffffffffffffffff168152602001600682015481526020016007820180546124eb906143af565b80601f0160208091040260200160405190810160405280929190818152602001828054612517906143af565b80156125645780601f1061253957610100808354040283529160200191612564565b820191906000526020600020905b81548152906001019060200180831161254757829003601f168201915b5050505050815250508383815181106125805761257f614973565b5b6020026020010181905250508080612597906149a2565b91505061224a565b50809150505b90565b60405180610140016040528060065481526020018781526020016040518060200160405280600081525081526020018660048111156125ea576125e96131f1565b5b60048111156125fc576125fb6131f1565b5b8152602001856002811115612614576126136131f1565b5b6002811115612626576126256131f1565b5b81526020018473ffffffffffffffffffffffffffffffffffffffff16815260200160008054906101000a900473ffffffffffffffffffffffffffffffffffffffff1673ffffffffffffffffffffffffffffffffffffffff1681526020018373ffffffffffffffffffffffffffffffffffffffff168152602001428152602001828152506005600060065481526020019081526020016000206000820151816000015560208201518160010190805190602001906126e4929190612ea8565b506040820151816002019080519060200190612701929190612ea8565b5060608201518160030160006101000a81548160ff0219169083600481111561272d5761272c6131f1565b5b021790555060808201518160030160016101000a81548160ff0219169083600281111561275d5761275c6131f1565b5b021790555060a08201518160030160026101000a81548173ffffffffffffffffffffffffffffffffffffffff021916908373ffffffffffffffffffffffffffffffffffffffff16021790555060c08201518160040160006101000a81548173ffffffffffffffffffffffffffffffffffffffff021916908373ffffffffffffffffffffffffffffffffffffffff16021790555060e08201518160050160006101000a81548173ffffffffffffffffffffffffffffffffffffffff021916908373ffffffffffffffffffffffffffffffffffffffff160217905550610100820151816006015561012082015181600701908051906020019061285f929190612ea8565b5090505061287460065487868887878761295f565b8273ffffffffffffffffffffffffffffffffffffffff167fb503855b01edd8caf0051e68bacef096056daa0d24478362eaa8a4f4b8a7130e6005600060065481526020019081526020016000206040516128ce919061483b565b60405180910390a26007829080600181540180825580915050600190039060005260206000200160009091909190916101000a81548173ffffffffffffffffffffffffffffffffffffffff021916908373ffffffffffffffffffffffffffffffffffffffff1602179055506006600081548092919061294c906149a2565b9190505550505050505050565b60035481565b600060016004811115612975576129746131f1565b5b856004811115612988576129876131f1565b5b600481111561299a576129996131f1565b5b14806129dc5750600360048111156129b5576129b46131f1565b5b8560048111156129c8576129c76131f1565b5b60048111156129da576129d96131f1565b5b145b80612a1c57506004808111156129f5576129f46131f1565b5b856004811115612a0857612a076131f1565b5b6004811115612a1a57612a196131f1565b5b145b15612a2a5760009050612a6f565b60026004811115612a3e57612a3d6131f1565b5b856004811115612a5157612a506131f1565b5b6004811115612a6357612a626131f1565b5b1415612a6e57600190505b5b612a7f8888888885898989612a89565b5050505050505050565b6040518061016001604052806009548152602001898152602001888152602001876002811115612abc57612abb6131f1565b5b6002811115612ace57612acd6131f1565b5b8152602001866004811115612ae657612ae56131f1565b5b6004811115612af857612af76131f1565b5b8152602001856001811115612b1057612b0f6131f1565b5b81526020018473ffffffffffffffffffffffffffffffffffffffff16815260200160008054906101000a900473ffffffffffffffffffffffffffffffffffffffff1673ffffffffffffffffffffffffffffffffffffffff1681526020018373ffffffffffffffffffffffffffffffffffffffff1681526020014281526020018281525060086000600954815260200190815260200160002060008201518160000155602082015181600101556040820151816002019080519060200190612bd8929190612ea8565b5060608201518160030160006101000a81548160ff02191690836002811115612c0457612c036131f1565b5b021790555060808201518160030160016101000a81548160ff02191690836004811115612c3457612c336131f1565b5b021790555060a08201518160030160026101000a81548160ff02191690836001811115612c6457612c636131f1565b5b021790555060c08201518160030160036101000a81548173ffffffffffffffffffffffffffffffffffffffff021916908373ffffffffffffffffffffffffffffffffffffffff16021790555060e08201518160040160006101000a81548173ffffffffffffffffffffffffffffffffffffffff021916908373ffffffffffffffffffffffffffffffffffffffff1602179055506101008201518160050160006101000a81548173ffffffffffffffffffffffffffffffffffffffff021916908373ffffffffffffffffffffffffffffffffffffffff1602179055506101208201518160060155610140820151816007019080519060200190612d67929190612ea8565b509050508173ffffffffffffffffffffffffffffffffffffffff167f4a2aa9c37fdc971a24d9081164299dd70beb053eacacaeb4e59d5d998334ef11600860006009548152602001908152602001600020604051612dc591906146a7565b60405180910390a260096000815480929190612de0906149a2565b91905055505050505050505050565b60405180610140016040528060008152602001606081526020016060815260200160006004811115612e2457612e236131f1565b5b815260200160006002811115612e3d57612e3c6131f1565b5b8152602001600073ffffffffffffffffffffffffffffffffffffffff168152602001600073ffffffffffffffffffffffffffffffffffffffff168152602001600073ffffffffffffffffffffffffffffffffffffffff16815260200160008152602001606081525090565b828054612eb4906143af565b90600052602060002090601f016020900481019282612ed65760008555612f1d565b82601f10612eef57805160ff1916838001178555612f1d565b82800160010185558215612f1d579182015b82811115612f1c578251825591602001919060010190612f01565b5b509050612f2a9190613083565b5090565b604051806101000160405280600081526020016060815260200160006004811115612f5c57612f5b6131f1565b5b815260200160608152602001600073ffffffffffffffffffffffffffffffffffffffff168152602001600073ffffffffffffffffffffffffffffffffffffffff16815260200160008152602001606081525090565b60405180610160016040528060008152602001600081526020016060815260200160006002811115612fe657612fe56131f1565b5b815260200160006004811115612fff57612ffe6131f1565b5b815260200160006001811115613018576130176131f1565b5b8152602001600073ffffffffffffffffffffffffffffffffffffffff168152602001600073ffffffffffffffffffffffffffffffffffffffff168152602001600073ffffffffffffffffffffffffffffffffffffffff16815260200160008152602001606081525090565b5b8082111561309c576000816000905550600101613084565b5090565b6000604051905090565b600080fd5b600080fd5b600073ffffffffffffffffffffffffffffffffffffffff82169050919050565b60006130df826130b4565b9050919050565b6130ef816130d4565b81146130fa57600080fd5b50565b60008135905061310c816130e6565b92915050565b600060208284031215613128576131276130aa565b5b6000613136848285016130fd565b91505092915050565b6000819050919050565b6131528161313f565b82525050565b600081519050919050565b600082825260208201905092915050565b60005b83811015613192578082015181840152602081019050613177565b838111156131a1576000848401525b50505050565b6000601f19601f8301169050919050565b60006131c382613158565b6131cd8185613163565b93506131dd818560208601613174565b6131e6816131a7565b840191505092915050565b7f4e487b7100000000000000000000000000000000000000000000000000000000600052602160045260246000fd5b60058110613231576132306131f1565b5b50565b600081905061324282613220565b919050565b600061325282613234565b9050919050565b61326281613247565b82525050565b60038110613279576132786131f1565b5b50565b600081905061328a82613268565b919050565b600061329a8261327c565b9050919050565b6132aa8161328f565b82525050565b6132b9816130d4565b82525050565b6000610140830160008301516132d86000860182613149565b50602083015184820360208601526132f082826131b8565b9150506040830151848203604086015261330a82826131b8565b915050606083015161331f6060860182613259565b50608083015161333260808601826132a1565b5060a083015161334560a08601826132b0565b5060c083015161335860c08601826132b0565b5060e083015161336b60e08601826132b0565b50610100830151613380610100860182613149565b5061012083015184820361012086015261339a82826131b8565b9150508091505092915050565b600060208201905081810360008301526133c181846132bf565b905092915050565b600080fd5b600080fd5b7f4e487b7100000000000000000000000000000000000000000000000000000000600052604160045260246000fd5b61340b826131a7565b810181811067ffffffffffffffff8211171561342a576134296133d3565b5b80604052505050565b600061343d6130a0565b90506134498282613402565b919050565b600067ffffffffffffffff821115613469576134686133d3565b5b613472826131a7565b9050602081019050919050565b82818337600083830152505050565b60006134a161349c8461344e565b613433565b9050828152602081018484840111156134bd576134bc6133ce565b5b6134c884828561347f565b509392505050565b600082601f8301126134e5576134e46133c9565b5b81356134f584826020860161348e565b91505092915050565b6135078161313f565b811461351257600080fd5b50565b600081359050613524816134fe565b92915050565b60008060408385031215613541576135406130aa565b5b600083013567ffffffffffffffff81111561355f5761355e6130af565b5b61356b858286016134d0565b925050602061357c85828601613515565b9150509250929050565b61358f816130d4565b82525050565b60006020820190506135aa6000830184613586565b92915050565b600080600080600080600060e0888a0312156135cf576135ce6130aa565b5b60006135dd8a828b01613515565b97505060206135ee8a828b01613515565b965050604088013567ffffffffffffffff81111561360f5761360e6130af565b5b61361b8a828b016134d0565b955050606061362c8a828b01613515565b945050608061363d8a828b01613515565b93505060a061364e8a828b016130fd565b92505060c088013567ffffffffffffffff81111561366f5761366e6130af565b5b61367b8a828b016134d0565b91505092959891949750929550565b600081519050919050565b600082825260208201905092915050565b6000819050602082019050919050565b6000610140830160008301516136cf6000860182613149565b50602083015184820360208601526136e782826131b8565b9150506040830151848203604086015261370182826131b8565b91505060608301516137166060860182613259565b50608083015161372960808601826132a1565b5060a083015161373c60a08601826132b0565b5060c083015161374f60c08601826132b0565b5060e083015161376260e08601826132b0565b50610100830151613777610100860182613149565b5061012083015184820361012086015261379182826131b8565b9150508091505092915050565b60006137aa83836136b6565b905092915050565b6000602082019050919050565b60006137ca8261368a565b6137d48185613695565b9350836020820285016137e6856136a6565b8060005b858110156138225784840389528151613803858261379e565b945061380e836137b2565b925060208a019950506001810190506137ea565b50829750879550505050505092915050565b6000602082019050818103600083015261384e81846137bf565b905092915050565b60006101008301600083015161386f6000860182613149565b506020830151848203602086015261388782826131b8565b915050604083015161389c6040860182613259565b50606083015184820360608601526138b482826131b8565b91505060808301516138c960808601826132b0565b5060a08301516138dc60a08601826132b0565b5060c08301516138ef60c0860182613149565b5060e083015184820360e086015261390782826131b8565b9150508091505092915050565b6000602082019050818103600083015261392e8184613856565b905092915050565b61393f8161313f565b82525050565b600060208201905061395a6000830184613936565b92915050565b600060208284031215613976576139756130aa565b5b600061398484828501613515565b91505092915050565b600081519050919050565b600082825260208201905092915050565b6000819050602082019050919050565b6000610100830160008301516139d26000860182613149565b50602083015184820360208601526139ea82826131b8565b91505060408301516139ff6040860182613259565b5060608301518482036060860152613a1782826131b8565b9150506080830151613a2c60808601826132b0565b5060a0830151613a3f60a08601826132b0565b5060c0830151613a5260c0860182613149565b5060e083015184820360e0860152613a6a82826131b8565b9150508091505092915050565b6000613a8383836139b9565b905092915050565b6000602082019050919050565b6000613aa38261398d565b613aad8185613998565b935083602082028501613abf856139a9565b8060005b85811015613afb5784840389528151613adc8582613a77565b9450613ae783613a8b565b925060208a01995050600181019050613ac3565b50829750879550505050505092915050565b60006020820190508181036000830152613b278184613a98565b905092915050565b600082825260208201905092915050565b6000613b4b82613158565b613b558185613b2f565b9350613b65818560208601613174565b613b6e816131a7565b840191505092915050565b613b828161328f565b82525050565b613b9181613247565b82525050565b60028110613ba857613ba76131f1565b5b50565b6000819050613bb982613b97565b919050565b6000613bc982613bab565b9050919050565b613bd981613bbe565b82525050565b600061016082019050613bf5600083018e613936565b613c02602083018d613936565b8181036040830152613c14818c613b40565b9050613c23606083018b613b79565b613c30608083018a613b88565b613c3d60a0830189613bd0565b613c4a60c0830188613586565b613c5760e0830187613586565b613c65610100830186613586565b613c73610120830185613936565b818103610140830152613c868184613b40565b90509c9b505050505050505050505050565b600061010082019050613cae600083018b613936565b8181036020830152613cc0818a613b40565b9050613ccf6040830189613b88565b8181036060830152613ce18188613b40565b9050613cf06080830187613586565b613cfd60a0830186613586565b613d0a60c0830185613936565b81810360e0830152613d1c8184613b40565b90509998505050505050505050565b600080600080600060a08688031215613d4757613d466130aa565b5b6000613d55888289016130fd565b955050602086013567ffffffffffffffff811115613d7657613d756130af565b5b613d82888289016134d0565b9450506040613d9388828901613515565b935050606086013567ffffffffffffffff811115613db457613db36130af565b5b613dc0888289016134d0565b925050608086013567ffffffffffffffff811115613de157613de06130af565b5b613ded888289016134d0565b9150509295509295909350565b600061014082019050613e10600083018d613936565b8181036020830152613e22818c613b40565b90508181036040830152613e36818b613b40565b9050613e45606083018a613b88565b613e526080830189613b79565b613e5f60a0830188613586565b613e6c60c0830187613586565b613e7960e0830186613586565b613e87610100830185613936565b818103610120830152613e9a8184613b40565b90509b9a5050505050505050505050565b600080600060608486031215613ec457613ec36130aa565b5b6000613ed2868287016130fd565b935050602084013567ffffffffffffffff811115613ef357613ef26130af565b5b613eff868287016134d0565b925050604084013567ffffffffffffffff811115613f2057613f1f6130af565b5b613f2c868287016134d0565b9150509250925092565b600081519050919050565b600082825260208201905092915050565b6000819050602082019050919050565b613f6b81613bbe565b82525050565b600061016083016000830151613f8a6000860182613149565b506020830151613f9d6020860182613149565b5060408301518482036040860152613fb582826131b8565b9150506060830151613fca60608601826132a1565b506080830151613fdd6080860182613259565b5060a0830151613ff060a0860182613f62565b5060c083015161400360c08601826132b0565b5060e083015161401660e08601826132b0565b5061010083015161402b6101008601826132b0565b50610120830151614040610120860182613149565b5061014083015184820361014086015261405a82826131b8565b9150508091505092915050565b60006140738383613f71565b905092915050565b6000602082019050919050565b600061409382613f36565b61409d8185613f41565b9350836020820285016140af85613f52565b8060005b858110156140eb57848403895281516140cc8582614067565b94506140d78361407b565b925060208a019950506001810190506140b3565b50829750879550505050505092915050565b600060208201905081810360008301526141178184614088565b905092915050565b60008060008060008060c0878903121561413c5761413b6130aa565b5b600087013567ffffffffffffffff81111561415a576141596130af565b5b61416689828a016134d0565b965050602061417789828a01613515565b955050604061418889828a01613515565b945050606061419989828a016130fd565b93505060806141aa89828a016130fd565b92505060a087013567ffffffffffffffff8111156141cb576141ca6130af565b5b6141d789828a016134d0565b9150509295509295509295565b7f4e487b7100000000000000000000000000000000000000000000000000000000600052601160045260246000fd5b600061421e8261313f565b91506142298361313f565b92508282101561423c5761423b6141e4565b5b828203905092915050565b60006142528261313f565b91506000821415614266576142656141e4565b5b600182039050919050565b600081905092915050565b600061428782613158565b6142918185614271565b93506142a1818560208601613174565b80840191505092915050565b60008160601b9050919050565b60006142c5826142ad565b9050919050565b60006142d7826142ba565b9050919050565b6142ef6142ea826130d4565b6142cc565b82525050565b6000819050919050565b61431061430b8261313f565b6142f5565b82525050565b6000614322828661427c565b915061432e82856142de565b60148201915061433e82846142ff565b602082019150819050949350505050565b60008160001c9050919050565b6000819050919050565b60006143796143748361434f565b61435c565b9050919050565b7f4e487b7100000000000000000000000000000000000000000000000000000000600052602260045260246000fd5b600060028204905060018216806143c757607f821691505b602082108114156143db576143da614380565b5b50919050565b60008190508160005260206000209050919050565b60008154614403816143af565b61440d8186613163565b94506001821660008114614428576001811461443a5761446d565b60ff198316865260208601935061446d565b614443856143e1565b60005b8381101561446557815481890152600182019150602081019050614446565b808801955050505b50505092915050565b600060ff82169050919050565b60006144966144918361434f565b614476565b9050919050565b60008160081c9050919050565b600060ff82169050919050565b60006144ca6144c58361449d565b6144aa565b9050919050565b60008160101c9050919050565b600060ff82169050919050565b60006144fe6144f9836144d1565b6144de565b9050919050565b60008160181c9050919050565b600073ffffffffffffffffffffffffffffffffffffffff82169050919050565b600061454561454083614505565b614512565b9050919050565b600061455f61455a8361434f565b614512565b9050919050565b60006101608301600080840154905061457e81614366565b61458b6000870182613149565b506001840154905061459c81614366565b6145a96020870182613149565b506002840185830360408701526145c083826143f6565b925050600384015490506145d381614483565b6145e060608701826132a1565b506145ea816144b7565b6145f76080870182613259565b50614601816144eb565b61460e60a0870182613f62565b5061461881614532565b61462560c08701826132b0565b50600484015490506146368161454c565b61464360e08701826132b0565b50600584015490506146548161454c565b6146626101008701826132b0565b506006840154905061467381614366565b614681610120870182613149565b506007840185830361014087015261469983826143f6565b925050819250505092915050565b600060208201905081810360008301526146c18184614566565b905092915050565b60006146dc6146d78361434f565b6144aa565b9050919050565b60006146f66146f18361449d565b614476565b9050919050565b600061471061470b836144d1565b614512565b9050919050565b60006101408301600080840154905061472f81614366565b61473c6000870182613149565b5060018401858303602087015261475383826143f6565b92505060028401858303604087015261476c83826143f6565b9250506003840154905061477f816146c9565b61478c6060870182613259565b50614796816146e3565b6147a360808701826132a1565b506147ad816146fd565b6147ba60a08701826132b0565b50600484015490506147cb8161454c565b6147d860c08701826132b0565b50600584015490506147e98161454c565b6147f660e08701826132b0565b506006840154905061480781614366565b614815610100870182613149565b506007840185830361012087015261482d83826143f6565b925050819250505092915050565b600060208201905081810360008301526148558184614717565b905092915050565b60006101008301600080840154905061487581614366565b6148826000870182613149565b5060018401858303602087015261489983826143f6565b925050600284015490506148ac816146c9565b6148b96040870182613259565b506003840185830360608701526148d083826143f6565b925050600484015490506148e38161454c565b6148f060808701826132b0565b50600584015490506149018161454c565b61490e60a08701826132b0565b506006840154905061491f81614366565b61492c60c0870182613149565b506007840185830360e087015261494383826143f6565b925050819250505092915050565b6000602082019050818103600083015261496b818461485d565b905092915050565b7f4e487b7100000000000000000000000000000000000000000000000000000000600052603260045260246000fd5b60006149ad8261313f565b91507fffffffffffffffffffffffffffffffffffffffffffffffffffffffffffffffff8214156149e0576149df6141e4565b5b600182019050919050565b6000815190506149fa816134fe565b92915050565b600060208284031215614a1657614a156130aa565b5b6000614a24848285016149eb565b9150509291505056fea264697066735822122050e2177ea6bd651059c939711ed928a823b21f4c0bae0f82186ce1e5f9a8cdb464736f6c634300080a003360806040526000600355607d60045534801561001a57600080fd5b50336000806101000a81548173ffffffffffffffffffffffffffffffffffffffff021916908373ffffffffffffffffffffffffffffffffffffffff1602179055506118778061006a6000396000f3fe608060405234801561001057600080fd5b50600436106100625760003560e01c80636386c1c714610067578063b2ddb90714610097578063d46300fd146100b3578063d699bc8c146100d1578063d6a69823146100ef578063e2842d791461010b575b600080fd5b610081600480360381019061007c9190610d15565b610129565b60405161008e9190610f5f565b60405180910390f35b6100b160048036038101906100ac91906110e2565b61036a565b005b6100bb610515565b6040516100c89190611160565b60405180910390f35b6100d961051f565b6040516100e69190611160565b60405180910390f35b610109600480360381019061010491906111a7565b610525565b005b610113610865565b604051610120919061140f565b60405180910390f35b610131610b83565b600160008373ffffffffffffffffffffffffffffffffffffffff1673ffffffffffffffffffffffffffffffffffffffff168152602001908152602001600020604051806101200160405290816000820154815260200160018201805461019690611460565b80601f01602080910402602001604051908101604052809291908181526020018280546101c290611460565b801561020f5780601f106101e45761010080835404028352916020019161020f565b820191906000526020600020905b8154815290600101906020018083116101f257829003601f168201915b505050505081526020016002820154815260200160038201548152602001600482015481526020016005820160009054906101000a900460ff16600381111561025b5761025a610e0d565b5b600381111561026d5761026c610e0d565b5b81526020016005820160019054906101000a900473ffffffffffffffffffffffffffffffffffffffff1673ffffffffffffffffffffffffffffffffffffffff1673ffffffffffffffffffffffffffffffffffffffff168152602001600682015481526020016007820180546102e190611460565b80601f016020809104026020016040519081016040528092919081815260200182805461030d90611460565b801561035a5780601f1061032f5761010080835404028352916020019161035a565b820191906000526020600020905b81548152906001019060200180831161033d57829003601f168201915b5050505050815250509050919050565b82600381111561037d5761037c610e0d565b5b600160008473ffffffffffffffffffffffffffffffffffffffff1673ffffffffffffffffffffffffffffffffffffffff16815260200190815260200160002060050160006101000a81548160ff021916908360038111156103e1576103e0610e0d565b5b021790555042600160008473ffffffffffffffffffffffffffffffffffffffff1673ffffffffffffffffffffffffffffffffffffffff1681526020019081526020016000206006018190555080600160008473ffffffffffffffffffffffffffffffffffffffff1673ffffffffffffffffffffffffffffffffffffffff1681526020019081526020016000206007019080519060200190610483929190610c00565b508173ffffffffffffffffffffffffffffffffffffffff167fea397c4f2735f95720bbf4d2e061d639bec950d2f3e162d0b19e02a2354c7cca600160008573ffffffffffffffffffffffffffffffffffffffff1673ffffffffffffffffffffffffffffffffffffffff16815260200190815260200160002060405161050891906116fb565b60405180910390a2505050565b6000600354905090565b60045481565b3373ffffffffffffffffffffffffffffffffffffffff1660008054906101000a900473ffffffffffffffffffffffffffffffffffffffff1673ffffffffffffffffffffffffffffffffffffffff16146105b3576040517f08c379a00000000000000000000000000000000000000000000000000000000081526004016105aa9061177a565b60405180910390fd5b60405180610120016040528060035481526020018881526020018781526020018681526020018581526020018460038111156105f2576105f1610e0d565b5b600381111561060457610603610e0d565b5b81526020018373ffffffffffffffffffffffffffffffffffffffff16815260200142815260200182815250600160008473ffffffffffffffffffffffffffffffffffffffff1673ffffffffffffffffffffffffffffffffffffffff168152602001908152602001600020600082015181600001556020820151816001019080519060200190610694929190610c00565b5060408201518160020155606082015181600301556080820151816004015560a08201518160050160006101000a81548160ff021916908360038111156106de576106dd610e0d565b5b021790555060c08201518160050160016101000a81548173ffffffffffffffffffffffffffffffffffffffff021916908373ffffffffffffffffffffffffffffffffffffffff16021790555060e08201518160060155610100820151816007019080519060200190610751929190610c00565b509050508173ffffffffffffffffffffffffffffffffffffffff167fea397c4f2735f95720bbf4d2e061d639bec950d2f3e162d0b19e02a2354c7cca600160008573ffffffffffffffffffffffffffffffffffffffff1673ffffffffffffffffffffffffffffffffffffffff1681526020019081526020016000206040516107d991906116fb565b60405180910390a26002829080600181540180825580915050600190039060005260206000200160009091909190916101000a81548173ffffffffffffffffffffffffffffffffffffffff021916908373ffffffffffffffffffffffffffffffffffffffff16021790555060036000815480929190610857906117c9565b919050555050505050505050565b6060600060035467ffffffffffffffff81111561088557610884610fb7565b5b6040519080825280602002602001820160405280156108be57816020015b6108ab610b83565b8152602001906001900390816108a35790505b50905060005b600354811015610b7b576000600282815481106108e4576108e3611812565b5b9060005260206000200160009054906101000a900473ffffffffffffffffffffffffffffffffffffffff1690506000600160008373ffffffffffffffffffffffffffffffffffffffff1673ffffffffffffffffffffffffffffffffffffffff168152602001908152602001600020905080604051806101200160405290816000820154815260200160018201805461097b90611460565b80601f01602080910402602001604051908101604052809291908181526020018280546109a790611460565b80156109f45780601f106109c9576101008083540402835291602001916109f4565b820191906000526020600020905b8154815290600101906020018083116109d757829003601f168201915b505050505081526020016002820154815260200160038201548152602001600482015481526020016005820160009054906101000a900460ff166003811115610a4057610a3f610e0d565b5b6003811115610a5257610a51610e0d565b5b81526020016005820160019054906101000a900473ffffffffffffffffffffffffffffffffffffffff1673ffffffffffffffffffffffffffffffffffffffff1673ffffffffffffffffffffffffffffffffffffffff16815260200160068201548152602001600782018054610ac690611460565b80601f0160208091040260200160405190810160405280929190818152602001828054610af290611460565b8015610b3f5780601f10610b1457610100808354040283529160200191610b3f565b820191906000526020600020905b815481529060010190602001808311610b2257829003601f168201915b505050505081525050848481518110610b5b57610b5a611812565b5b602002602001018190525050508080610b73906117c9565b9150506108c4565b508091505090565b604051806101200160405280600081526020016060815260200160008019168152602001600080191681526020016000801916815260200160006003811115610bcf57610bce610e0d565b5b8152602001600073ffffffffffffffffffffffffffffffffffffffff16815260200160008152602001606081525090565b828054610c0c90611460565b90600052602060002090601f016020900481019282610c2e5760008555610c75565b82601f10610c4757805160ff1916838001178555610c75565b82800160010185558215610c75579182015b82811115610c74578251825591602001919060010190610c59565b5b509050610c829190610c86565b5090565b5b80821115610c9f576000816000905550600101610c87565b5090565b6000604051905090565b600080fd5b600080fd5b600073ffffffffffffffffffffffffffffffffffffffff82169050919050565b6000610ce282610cb7565b9050919050565b610cf281610cd7565b8114610cfd57600080fd5b50565b600081359050610d0f81610ce9565b92915050565b600060208284031215610d2b57610d2a610cad565b5b6000610d3984828501610d00565b91505092915050565b6000819050919050565b610d5581610d42565b82525050565b600081519050919050565b600082825260208201905092915050565b60005b83811015610d95578082015181840152602081019050610d7a565b83811115610da4576000848401525b50505050565b6000601f19601f8301169050919050565b6000610dc682610d5b565b610dd08185610d66565b9350610de0818560208601610d77565b610de981610daa565b840191505092915050565b6000819050919050565b610e0781610df4565b82525050565b7f4e487b7100000000000000000000000000000000000000000000000000000000600052602160045260246000fd5b60048110610e4d57610e4c610e0d565b5b50565b6000819050610e5e82610e3c565b919050565b6000610e6e82610e50565b9050919050565b610e7e81610e63565b82525050565b610e8d81610cd7565b82525050565b600061012083016000830151610eac6000860182610d4c565b5060208301518482036020860152610ec48282610dbb565b9150506040830151610ed96040860182610dfe565b506060830151610eec6060860182610dfe565b506080830151610eff6080860182610dfe565b5060a0830151610f1260a0860182610e75565b5060c0830151610f2560c0860182610e84565b5060e0830151610f3860e0860182610d4c565b50610100830151848203610100860152610f528282610dbb565b9150508091505092915050565b60006020820190508181036000830152610f798184610e93565b905092915050565b610f8a81610d42565b8114610f9557600080fd5b50565b600081359050610fa781610f81565b92915050565b600080fd5b600080fd5b7f4e487b7100000000000000000000000000000000000000000000000000000000600052604160045260246000fd5b610fef82610daa565b810181811067ffffffffffffffff8211171561100e5761100d610fb7565b5b80604052505050565b6000611021610ca3565b905061102d8282610fe6565b919050565b600067ffffffffffffffff82111561104d5761104c610fb7565b5b61105682610daa565b9050602081019050919050565b82818337600083830152505050565b600061108561108084611032565b611017565b9050828152602081018484840111156110a1576110a0610fb2565b5b6110ac848285611063565b509392505050565b600082601f8301126110c9576110c8610fad565b5b81356110d9848260208601611072565b91505092915050565b6000806000606084860312156110fb576110fa610cad565b5b600061110986828701610f98565b935050602061111a86828701610d00565b925050604084013567ffffffffffffffff81111561113b5761113a610cb2565b5b611147868287016110b4565b9150509250925092565b61115a81610d42565b82525050565b60006020820190506111756000830184611151565b92915050565b61118481610df4565b811461118f57600080fd5b50565b6000813590506111a18161117b565b92915050565b600080600080600080600060e0888a0312156111c6576111c5610cad565b5b600088013567ffffffffffffffff8111156111e4576111e3610cb2565b5b6111f08a828b016110b4565b97505060206112018a828b01611192565b96505060406112128a828b01611192565b95505060606112238a828b01611192565b94505060806112348a828b01610f98565b93505060a06112458a828b01610d00565b92505060c088013567ffffffffffffffff81111561126657611265610cb2565b5b6112728a828b016110b4565b91505092959891949750929550565b600081519050919050565b600082825260208201905092915050565b6000819050602082019050919050565b6000610120830160008301516112c66000860182610d4c565b50602083015184820360208601526112de8282610dbb565b91505060408301516112f36040860182610dfe565b5060608301516113066060860182610dfe565b5060808301516113196080860182610dfe565b5060a083015161132c60a0860182610e75565b5060c083015161133f60c0860182610e84565b5060e083015161135260e0860182610d4c565b5061010083015184820361010086015261136c8282610dbb565b9150508091505092915050565b600061138583836112ad565b905092915050565b6000602082019050919050565b60006113a582611281565b6113af818561128c565b9350836020820285016113c18561129d565b8060005b858110156113fd57848403895281516113de8582611379565b94506113e98361138d565b925060208a019950506001810190506113c5565b50829750879550505050505092915050565b60006020820190508181036000830152611429818461139a565b905092915050565b7f4e487b7100000000000000000000000000000000000000000000000000000000600052602260045260246000fd5b6000600282049050600182168061147857607f821691505b6020821081141561148c5761148b611431565b5b50919050565b60008160001c9050919050565b6000819050919050565b60006114bc6114b783611492565b61149f565b9050919050565b60008190508160005260206000209050919050565b600081546114e581611460565b6114ef8186610d66565b9450600182166000811461150a576001811461151c5761154f565b60ff198316865260208601935061154f565b611525856114c3565b60005b8381101561154757815481890152600182019150602081019050611528565b808801955050505b50505092915050565b6000819050919050565b600061157561157083611492565b611558565b9050919050565b600060ff82169050919050565b600061159c61159783611492565b61157c565b9050919050565b60008160081c9050919050565b600073ffffffffffffffffffffffffffffffffffffffff82169050919050565b60006115e36115de836115a3565b6115b0565b9050919050565b600061012083016000808401549050611602816114a9565b61160f6000870182610d4c565b5060018401858303602087015261162683826114d8565b9250506002840154905061163981611562565b6116466040870182610dfe565b506003840154905061165781611562565b6116646060870182610dfe565b506004840154905061167581611562565b6116826080870182610dfe565b506005840154905061169381611589565b6116a060a0870182610e75565b506116aa816115d0565b6116b760c0870182610e84565b50600684015490506116c8816114a9565b6116d560e0870182610d4c565b50600784018583036101008701526116ed83826114d8565b925050819250505092915050565b6000602082019050818103600083015261171581846115ea565b905092915050565b600082825260208201905092915050565b7f596f7520617265206e6f7420616e206f776e6572000000000000000000000000600082015250565b600061176460148361171d565b915061176f8261172e565b602082019050919050565b6000602082019050818103600083015261179381611757565b9050919050565b7f4e487b7100000000000000000000000000000000000000000000000000000000600052601160045260246000fd5b60006117d482610d42565b91507fffffffffffffffffffffffffffffffffffffffffffffffffffffffffffffffff8214156118075761180661179a565b5b600182019050919050565b7f4e487b7100000000000000000000000000000000000000000000000000000000600052603260045260246000fdfea2646970667358221220661c44d9b64eec279d2951602c40fb9bcc0cbcaa3686e5896c1f99ae7d75fa5464736f6c634300080a0033",
  "immutableReferences": {},
  "source": "// SPDX-License-Identifier: MIT\r\npragma solidity >=0.8.0 <0.9.0;\r\n\r\nimport \"./UserChain.sol\";\r\nimport \"./SharedChain.sol\";\r\n\r\ncontract ProjectChain is SharedChain {\r\n    address _userAddress;\r\n\r\n    UserChain userChain;\r\n\r\n    constructor() {\r\n        _userAddress = msg.sender;\r\n\r\n        userChain = new UserChain();\r\n    }\r\n\r\n    modifier onlyUserProject() {\r\n        // require(\r\n        //     users[_userAddress]._role == Roles.UserProject,\r\n        //     \"You don't have the rights for this resources.\"\r\n        // );\r\n        _;\r\n    }\r\n\r\n\r\n\r\n    function getUsersCounter() public view returns (uint) {\r\n        return userChain.valueTrend();\r\n    }\r\n\r\n\r\n\r\n\r\n    function getAddress() public view returns (address) {\r\n        return msg.sender;\r\n    }\r\n\r\n    /**  PROJECT INITIATOR  */\r\n\r\n    mapping(address => Project) public projects;\r\n    uint256 public projectsCounter = 0;\r\n    address[] public projectsAddress;\r\n\r\n    function createUniqueProjectAddress(string memory _name, uint _index) public view returns (address) {\r\n        return address(uint160(uint256(keccak256(abi.encodePacked(_name, _userAddress, _index)))));\r\n    }\r\n\r\n    function createProject(\r\n        address _projectAddress,\r\n        string memory _name,\r\n        uint256 _status,\r\n        string memory _ipfsFileCID,\r\n        string memory _signature\r\n    ) public {\r\n        projects[_projectAddress] = Project(\r\n            projectsCounter,\r\n            _name,\r\n            ProjectStatus(_status),\r\n            _ipfsFileCID,\r\n            _projectAddress,\r\n            _userAddress,\r\n            block.timestamp,\r\n            _signature\r\n        );\r\n\r\n        emit ProjectEvent(projects[_projectAddress], _projectAddress);\r\n        projectsAddress.push(_projectAddress);\r\n        projectsCounter++;\r\n    }\r\n\r\n    function updateProject(\r\n        address _projectAddress,\r\n        string memory _ipfsFileCID,\r\n        string memory _signature\r\n    ) public {\r\n        projects[_projectAddress]._ipfsFileCID = _ipfsFileCID;\r\n        projects[_projectAddress]._signature = _signature;\r\n\r\n        emit ProjectEvent(projects[_projectAddress], _projectAddress);\r\n    }\r\n\r\n    function getProjectInfo(address _address)\r\n        public\r\n        view\r\n        returns (Project memory)\r\n    {\r\n        return projects[_address];\r\n    }\r\n\r\n    function getAllProjects() public view returns (Project[] memory) {\r\n        Project[] memory allProjects;\r\n        if (projectsCounter == 0) return allProjects;\r\n\r\n        allProjects = new Project[](projectsCounter);\r\n        for (uint256 index = 0; index < projectsCounter; index++) {\r\n            address _projectAddress = projectsAddress[index];\r\n            Project storage project = projects[_projectAddress];\r\n            allProjects[index] = project;\r\n        }\r\n        return allProjects;\r\n    }\r\n\r\n\r\n    /**  Project Requests  */\r\n\r\n    mapping(uint256 => ProjectRequest) public projectRequests;\r\n    uint256 public projectRequestsCounter = 0;\r\n    address[] public projectRequestsAddress;\r\n\r\n    function createUniqueProjectRequestAddress(string memory _title, uint _index) public view returns (address) {\r\n        return address(uint160(uint256(keccak256(abi.encodePacked(_title, _userAddress, _index)))));\r\n    }\r\n\r\n    function createProjectRequest(\r\n        string memory _title,\r\n        uint256 _status,\r\n        uint256 _requestStatus,\r\n        address _projectAddress,\r\n        address _projectReqAddress,\r\n        string memory _signature\r\n    ) public {\r\n        projectRequests[projectRequestsCounter] = ProjectRequest(\r\n            projectRequestsCounter,\r\n            _title,\r\n            \"\",\r\n            ProjectStatus(_status),\r\n            RequestStatus(_requestStatus),\r\n            _projectAddress,\r\n            _userAddress,\r\n            _projectReqAddress,\r\n            block.timestamp,\r\n            _signature\r\n        );\r\n\r\n        filterRequests(\r\n            projectRequestsCounter,\r\n            _title,\r\n            _requestStatus,\r\n            _status,\r\n            _projectAddress,\r\n            _projectReqAddress,\r\n            _signature\r\n        );\r\n\r\n        emit ProjectRequestEvent(projectRequests[projectRequestsCounter], _projectAddress);\r\n        projectRequestsAddress.push(_projectReqAddress);\r\n        projectRequestsCounter++;\r\n    }\r\n\r\n    function filterRequests(\r\n        uint256 _indexProjectRequest,\r\n        string memory _title,\r\n        uint256 _requestStatus,\r\n        uint256 _projectStatus,\r\n        address _projectAddress,\r\n        address _requestAddress,\r\n        string memory _signature\r\n    ) internal {\r\n        RequestType _requestType;\r\n        if (\r\n            ProjectStatus(_projectStatus) == ProjectStatus.ToApprove ||\r\n            ProjectStatus(_projectStatus) == ProjectStatus.FinalizationCheck ||\r\n            ProjectStatus(_projectStatus) == ProjectStatus.Completed\r\n        ) {\r\n            _requestType = RequestType.SupervisorReq;\r\n        } else if (\r\n            ProjectStatus(_projectStatus) == ProjectStatus.StartProject\r\n        ) {\r\n            _requestType = RequestType.CompanyReq;\r\n        }\r\n        createRequest(\r\n            _indexProjectRequest,\r\n            _title,\r\n            _requestStatus,\r\n            _projectStatus,\r\n            _requestType,\r\n            _projectAddress,\r\n            _requestAddress,\r\n            _signature\r\n        );\r\n    }\r\n\r\n    function getAllProjectRequests()\r\n        public\r\n        view\r\n        returns (ProjectRequest[] memory)\r\n    {\r\n        ProjectRequest[] memory allProjectRequests;\r\n        if (projectRequestsCounter == 0) return allProjectRequests;\r\n\r\n        allProjectRequests = new ProjectRequest[](projectRequestsCounter);\r\n        for (uint256 index = 0; index < projectRequestsCounter; index++) {\r\n            ProjectRequest storage projectReq = projectRequests[index];\r\n            allProjectRequests[index] = projectReq;\r\n        }\r\n        return allProjectRequests;\r\n    }\r\n\r\n    function getLastProjectRequest(address _projectAddress)\r\n        public\r\n        view\r\n        returns (ProjectRequest memory)\r\n    {\r\n        ProjectRequest memory request;\r\n        if (projectRequestsCounter > 0) {\r\n            for (\r\n                uint256 index = projectRequestsCounter - 1;\r\n                index >= 0;\r\n                index--\r\n            ) {\r\n                if (_projectAddress == projectRequests[index]._projectAddress) {\r\n                    request = ProjectRequest(\r\n                        0, \"\", \"\",\r\n                        projectRequests[index]._status,\r\n                        projectRequests[index]._requestStatus,\r\n                        projectRequests[index]._projectAddress,\r\n                        address(0), address(0), 0, \"\"\r\n                    );\r\n                    return request;\r\n                }\r\n            }\r\n        }\r\n        return request;\r\n    }\r\n\r\n\r\n    /**  DATA FOR SUPERVISOR && COMPANY  */\r\n\r\n    mapping(uint256 => Request) public requests;\r\n    uint256 public requestsCounter = 0;\r\n\r\n    function createRequest(\r\n        uint256 _indexProjectRequest,\r\n        string memory _title,\r\n        uint256 _requestStatus,\r\n        uint256 _projectStatus,\r\n        RequestType _requestType,\r\n        address _projectAddress,\r\n        address _requestAddress,\r\n        string memory _signature\r\n    ) internal {\r\n        requests[requestsCounter] = Request(\r\n            requestsCounter,\r\n            _indexProjectRequest,\r\n            _title,\r\n            RequestStatus(_requestStatus),\r\n            ProjectStatus(_projectStatus),\r\n            _requestType,\r\n            _projectAddress,\r\n            _userAddress,\r\n            _requestAddress,\r\n            block.timestamp,\r\n            _signature\r\n        );\r\n\r\n        emit RequestEvent(requests[requestsCounter], _requestAddress);\r\n        requestsCounter++;\r\n    }\r\n\r\n    function updateRequest(\r\n        uint256 _index,\r\n        uint256 _indexProjectRequest,\r\n        string memory _comments,\r\n        uint256 _requestStatus,\r\n        uint256 _projectStatus,\r\n        address _projectAddress,\r\n        string memory _signature\r\n    ) public {\r\n        // Update request status in the Requests Mapping and Struct Array\r\n        requests[_index]._requestStatus = RequestStatus(_requestStatus);\r\n        requests[_index]._signature = _signature;\r\n\r\n        emit RequestEvent(requests[_index], requests[_index]._requestAddress);\r\n\r\n        // Update project request status in the Project Requests Mapping and Struct Array\r\n        projectRequests[_indexProjectRequest]._comments = _comments;\r\n        projectRequests[_indexProjectRequest]._requestStatus = RequestStatus(_requestStatus);\r\n        projectRequests[_indexProjectRequest]._signature = _signature;\r\n\r\n        emit ProjectRequestEvent(projectRequests[_indexProjectRequest], _projectAddress);\r\n\r\n        // Update ProjectStatus to the requested status - Porject Mapping and Struct Array\r\n        if (RequestStatus.Approved == RequestStatus(_requestStatus)) {\r\n        projects[_projectAddress]._status = ProjectStatus(_projectStatus);\r\n        emit ProjectEvent(projects[_projectAddress], _projectAddress);\r\n        }\r\n    }\r\n\r\n    function getAllRequests() public view returns (Request[] memory) {\r\n        Request[] memory allRequests;\r\n        if (requestsCounter == 0) return allRequests;\r\n\r\n        allRequests = new Request[](requestsCounter);\r\n        for (uint256 index = 0; index < requestsCounter; index++) {\r\n            Request storage request = requests[index];\r\n            allRequests[index] = request;\r\n        }\r\n        return allRequests;\r\n    }\r\n}\r\n",
  "sourcePath": "/mnt/c/Users/Beniamin/source/repos/DissertationProject/contracts/ProjectChain.sol",
  "compiler": {
    "name": "solc",
    "version": "0.8.10+commit.fc410830.Emscripten.clang"
  },
  "schemaVersion": "3.4.3",
  "updatedAt": "2021-12-09T14:06:15.914Z",
  "networkType": "ethereum",
  "devdoc": {
    "kind": "dev",
    "methods": {},
    "version": 1
  },
  "userdoc": {
    "kind": "user",
    "methods": {
      "projectRequests(uint256)": {
        "notice": "Project Requests  "
      },
      "projects(address)": {
        "notice": "PROJECT INITIATOR  "
      },
      "requests(uint256)": {
        "notice": "DATA FOR SUPERVISOR && COMPANY  "
      }
    },
    "version": 1
  }
}