{
  "contractName": "ProjectChain",
  "abi": [
    {
      "inputs": [],
      "stateMutability": "nonpayable",
      "type": "constructor"
    },
    {
      "anonymous": false,
      "inputs": [
        {
          "components": [
            {
              "internalType": "uint256",
              "name": "_index",
              "type": "uint256"
            },
            {
              "internalType": "string",
              "name": "_name",
              "type": "string"
            },
            {
              "internalType": "enum SharedChain.ProjectStatus",
              "name": "_status",
              "type": "uint8"
            },
            {
              "internalType": "string",
              "name": "_ipfsFileCID",
              "type": "string"
            },
            {
              "internalType": "address",
              "name": "_projectAddress",
              "type": "address"
            },
            {
              "internalType": "address",
              "name": "_signerAddress",
              "type": "address"
            },
            {
              "internalType": "address",
              "name": "_companyAddress",
              "type": "address"
            },
            {
              "internalType": "bool",
              "name": "_assigned",
              "type": "bool"
            },
            {
              "internalType": "uint256",
              "name": "_timestamp",
              "type": "uint256"
            },
            {
              "internalType": "string",
              "name": "_signature",
              "type": "string"
            }
          ],
          "indexed": false,
          "internalType": "struct SharedChain.Project",
          "name": "_project",
          "type": "tuple"
        },
        {
          "indexed": true,
          "internalType": "address",
          "name": "_projectAddress",
          "type": "address"
        },
        {
          "indexed": true,
          "internalType": "address",
          "name": "_companyAddress",
          "type": "address"
        }
      ],
      "name": "ProjectEvent",
      "type": "event"
    },
    {
      "anonymous": false,
      "inputs": [
        {
          "components": [
            {
              "internalType": "uint256",
              "name": "_index",
              "type": "uint256"
            },
            {
              "internalType": "string",
              "name": "_title",
              "type": "string"
            },
            {
              "internalType": "string",
              "name": "_comments",
              "type": "string"
            },
            {
              "internalType": "enum SharedChain.ProjectStatus",
              "name": "_projectStatus",
              "type": "uint8"
            },
            {
              "internalType": "enum SharedChain.RequestStatus",
              "name": "_requestStatus",
              "type": "uint8"
            },
            {
              "internalType": "enum SharedChain.RequestType",
              "name": "_requestType",
              "type": "uint8"
            },
            {
              "internalType": "address",
              "name": "_projectAddress",
              "type": "address"
            },
            {
              "internalType": "address",
              "name": "_requestAddress",
              "type": "address"
            },
            {
              "internalType": "address",
              "name": "_signerAddress",
              "type": "address"
            },
            {
              "internalType": "uint256",
              "name": "_timestamp",
              "type": "uint256"
            },
            {
              "internalType": "string",
              "name": "_signature",
              "type": "string"
            }
          ],
          "indexed": false,
          "internalType": "struct SharedChain.Request",
          "name": "_request",
          "type": "tuple"
        },
        {
          "indexed": true,
          "internalType": "address",
          "name": "_requestAddress",
          "type": "address"
        },
        {
          "indexed": true,
          "internalType": "address",
          "name": "_projectAddress",
          "type": "address"
        }
      ],
      "name": "RequestEvent",
      "type": "event"
    },
    {
      "anonymous": false,
      "inputs": [
        {
          "components": [
            {
              "internalType": "bytes32",
              "name": "_firstname",
              "type": "bytes32"
            },
            {
              "internalType": "bytes32",
              "name": "_lastname",
              "type": "bytes32"
            },
            {
              "internalType": "enum SharedChain.Roles",
              "name": "_role",
              "type": "uint8"
            },
            {
              "internalType": "address",
              "name": "_walletAddress",
              "type": "address"
            },
            {
              "internalType": "uint256",
              "name": "_timestamp",
              "type": "uint256"
            }
          ],
          "indexed": false,
          "internalType": "struct SharedChain.User",
          "name": "_user",
          "type": "tuple"
        },
        {
          "indexed": true,
          "internalType": "address",
          "name": "_walletAddress",
          "type": "address"
        }
      ],
      "name": "UserEvent",
      "type": "event"
    },
    {
      "inputs": [
        {
          "internalType": "uint256",
          "name": "_role",
          "type": "uint256"
        },
        {
          "internalType": "address",
          "name": "_walletAddress",
          "type": "address"
        }
      ],
      "name": "changeUserRole",
      "outputs": [],
      "stateMutability": "nonpayable",
      "type": "function"
    },
    {
      "inputs": [],
      "name": "getAllUsers",
      "outputs": [
        {
          "components": [
            {
              "internalType": "bytes32",
              "name": "_firstname",
              "type": "bytes32"
            },
            {
              "internalType": "bytes32",
              "name": "_lastname",
              "type": "bytes32"
            },
            {
              "internalType": "enum SharedChain.Roles",
              "name": "_role",
              "type": "uint8"
            },
            {
              "internalType": "address",
              "name": "_walletAddress",
              "type": "address"
            },
            {
              "internalType": "uint256",
              "name": "_timestamp",
              "type": "uint256"
            }
          ],
          "internalType": "struct SharedChain.User[]",
          "name": "",
          "type": "tuple[]"
        }
      ],
      "stateMutability": "view",
      "type": "function",
      "constant": true
    },
    {
      "inputs": [
        {
          "internalType": "address",
          "name": "_walletAddress",
          "type": "address"
        }
      ],
      "name": "getUserInfo",
      "outputs": [
        {
          "components": [
            {
              "internalType": "bytes32",
              "name": "_firstname",
              "type": "bytes32"
            },
            {
              "internalType": "bytes32",
              "name": "_lastname",
              "type": "bytes32"
            },
            {
              "internalType": "enum SharedChain.Roles",
              "name": "_role",
              "type": "uint8"
            },
            {
              "internalType": "address",
              "name": "_walletAddress",
              "type": "address"
            },
            {
              "internalType": "uint256",
              "name": "_timestamp",
              "type": "uint256"
            }
          ],
          "internalType": "struct SharedChain.User",
          "name": "",
          "type": "tuple"
        }
      ],
      "stateMutability": "view",
      "type": "function",
      "constant": true
    },
    {
      "inputs": [
        {
          "internalType": "address",
          "name": "",
          "type": "address"
        }
      ],
      "name": "projects",
      "outputs": [
        {
          "internalType": "uint256",
          "name": "_index",
          "type": "uint256"
        },
        {
          "internalType": "string",
          "name": "_name",
          "type": "string"
        },
        {
          "internalType": "enum SharedChain.ProjectStatus",
          "name": "_status",
          "type": "uint8"
        },
        {
          "internalType": "string",
          "name": "_ipfsFileCID",
          "type": "string"
        },
        {
          "internalType": "address",
          "name": "_projectAddress",
          "type": "address"
        },
        {
          "internalType": "address",
          "name": "_signerAddress",
          "type": "address"
        },
        {
          "internalType": "address",
          "name": "_companyAddress",
          "type": "address"
        },
        {
          "internalType": "bool",
          "name": "_assigned",
          "type": "bool"
        },
        {
          "internalType": "uint256",
          "name": "_timestamp",
          "type": "uint256"
        },
        {
          "internalType": "string",
          "name": "_signature",
          "type": "string"
        }
      ],
      "stateMutability": "view",
      "type": "function",
      "constant": true
    },
    {
      "inputs": [
        {
          "internalType": "uint256",
          "name": "",
          "type": "uint256"
        }
      ],
      "name": "projectsAddress",
      "outputs": [
        {
          "internalType": "address",
          "name": "",
          "type": "address"
        }
      ],
      "stateMutability": "view",
      "type": "function",
      "constant": true
    },
    {
      "inputs": [],
      "name": "projectsCounter",
      "outputs": [
        {
          "internalType": "uint256",
          "name": "",
          "type": "uint256"
        }
      ],
      "stateMutability": "view",
      "type": "function",
      "constant": true
    },
    {
      "inputs": [
        {
          "internalType": "bytes32",
          "name": "_firstname",
          "type": "bytes32"
        },
        {
          "internalType": "bytes32",
          "name": "_lastname",
          "type": "bytes32"
        },
        {
          "internalType": "uint256",
          "name": "_role",
          "type": "uint256"
        },
        {
          "internalType": "address",
          "name": "_walletAddress",
          "type": "address"
        }
      ],
      "name": "registerUser",
      "outputs": [],
      "stateMutability": "nonpayable",
      "type": "function"
    },
    {
      "inputs": [
        {
          "internalType": "address",
          "name": "",
          "type": "address"
        }
      ],
      "name": "requests",
      "outputs": [
        {
          "internalType": "uint256",
          "name": "_index",
          "type": "uint256"
        },
        {
          "internalType": "string",
          "name": "_title",
          "type": "string"
        },
        {
          "internalType": "string",
          "name": "_comments",
          "type": "string"
        },
        {
          "internalType": "enum SharedChain.ProjectStatus",
          "name": "_projectStatus",
          "type": "uint8"
        },
        {
          "internalType": "enum SharedChain.RequestStatus",
          "name": "_requestStatus",
          "type": "uint8"
        },
        {
          "internalType": "enum SharedChain.RequestType",
          "name": "_requestType",
          "type": "uint8"
        },
        {
          "internalType": "address",
          "name": "_projectAddress",
          "type": "address"
        },
        {
          "internalType": "address",
          "name": "_requestAddress",
          "type": "address"
        },
        {
          "internalType": "address",
          "name": "_signerAddress",
          "type": "address"
        },
        {
          "internalType": "uint256",
          "name": "_timestamp",
          "type": "uint256"
        },
        {
          "internalType": "string",
          "name": "_signature",
          "type": "string"
        }
      ],
      "stateMutability": "view",
      "type": "function",
      "constant": true
    },
    {
      "inputs": [
        {
          "internalType": "uint256",
          "name": "",
          "type": "uint256"
        }
      ],
      "name": "requestsAddress",
      "outputs": [
        {
          "internalType": "address",
          "name": "",
          "type": "address"
        }
      ],
      "stateMutability": "view",
      "type": "function",
      "constant": true
    },
    {
      "inputs": [],
      "name": "requestsCounter",
      "outputs": [
        {
          "internalType": "uint256",
          "name": "",
          "type": "uint256"
        }
      ],
      "stateMutability": "view",
      "type": "function",
      "constant": true
    },
    {
      "inputs": [
        {
          "internalType": "address",
          "name": "",
          "type": "address"
        }
      ],
      "name": "users",
      "outputs": [
        {
          "internalType": "bytes32",
          "name": "_firstname",
          "type": "bytes32"
        },
        {
          "internalType": "bytes32",
          "name": "_lastname",
          "type": "bytes32"
        },
        {
          "internalType": "enum SharedChain.Roles",
          "name": "_role",
          "type": "uint8"
        },
        {
          "internalType": "address",
          "name": "_walletAddress",
          "type": "address"
        },
        {
          "internalType": "uint256",
          "name": "_timestamp",
          "type": "uint256"
        }
      ],
      "stateMutability": "view",
      "type": "function",
      "constant": true
    },
    {
      "inputs": [],
      "name": "usersCounter",
      "outputs": [
        {
          "internalType": "uint256",
          "name": "",
          "type": "uint256"
        }
      ],
      "stateMutability": "view",
      "type": "function",
      "constant": true
    },
    {
      "inputs": [
        {
          "internalType": "string",
          "name": "_name",
          "type": "string"
        },
        {
          "internalType": "uint256",
          "name": "_index",
          "type": "uint256"
        }
      ],
      "name": "createUniqueProjectAddress",
      "outputs": [
        {
          "internalType": "address",
          "name": "",
          "type": "address"
        }
      ],
      "stateMutability": "view",
      "type": "function",
      "constant": true
    },
    {
      "inputs": [
        {
          "internalType": "address",
          "name": "_projectAddress",
          "type": "address"
        },
        {
          "internalType": "string",
          "name": "_name",
          "type": "string"
        },
        {
          "internalType": "uint256",
          "name": "_status",
          "type": "uint256"
        },
        {
          "internalType": "string",
          "name": "_ipfsFileCID",
          "type": "string"
        },
        {
          "internalType": "string",
          "name": "_signature",
          "type": "string"
        }
      ],
      "name": "createProject",
      "outputs": [],
      "stateMutability": "nonpayable",
      "type": "function"
    },
    {
      "inputs": [
        {
          "internalType": "address",
          "name": "_projectAddress",
          "type": "address"
        },
        {
          "internalType": "string",
          "name": "_ipfsFileCID",
          "type": "string"
        },
        {
          "internalType": "string",
          "name": "_signature",
          "type": "string"
        }
      ],
      "name": "updateProject",
      "outputs": [],
      "stateMutability": "nonpayable",
      "type": "function"
    },
    {
      "inputs": [
        {
          "internalType": "address",
          "name": "_address",
          "type": "address"
        }
      ],
      "name": "getProjectInfo",
      "outputs": [
        {
          "components": [
            {
              "internalType": "uint256",
              "name": "_index",
              "type": "uint256"
            },
            {
              "internalType": "string",
              "name": "_name",
              "type": "string"
            },
            {
              "internalType": "enum SharedChain.ProjectStatus",
              "name": "_status",
              "type": "uint8"
            },
            {
              "internalType": "string",
              "name": "_ipfsFileCID",
              "type": "string"
            },
            {
              "internalType": "address",
              "name": "_projectAddress",
              "type": "address"
            },
            {
              "internalType": "address",
              "name": "_signerAddress",
              "type": "address"
            },
            {
              "internalType": "address",
              "name": "_companyAddress",
              "type": "address"
            },
            {
              "internalType": "bool",
              "name": "_assigned",
              "type": "bool"
            },
            {
              "internalType": "uint256",
              "name": "_timestamp",
              "type": "uint256"
            },
            {
              "internalType": "string",
              "name": "_signature",
              "type": "string"
            }
          ],
          "internalType": "struct SharedChain.Project",
          "name": "",
          "type": "tuple"
        }
      ],
      "stateMutability": "view",
      "type": "function",
      "constant": true
    },
    {
      "inputs": [
        {
          "internalType": "address",
          "name": "_walletAddress",
          "type": "address"
        }
      ],
      "name": "getProjectsByUserAddress",
      "outputs": [
        {
          "components": [
            {
              "internalType": "uint256",
              "name": "_index",
              "type": "uint256"
            },
            {
              "internalType": "string",
              "name": "_name",
              "type": "string"
            },
            {
              "internalType": "enum SharedChain.ProjectStatus",
              "name": "_status",
              "type": "uint8"
            },
            {
              "internalType": "string",
              "name": "_ipfsFileCID",
              "type": "string"
            },
            {
              "internalType": "address",
              "name": "_projectAddress",
              "type": "address"
            },
            {
              "internalType": "address",
              "name": "_signerAddress",
              "type": "address"
            },
            {
              "internalType": "address",
              "name": "_companyAddress",
              "type": "address"
            },
            {
              "internalType": "bool",
              "name": "_assigned",
              "type": "bool"
            },
            {
              "internalType": "uint256",
              "name": "_timestamp",
              "type": "uint256"
            },
            {
              "internalType": "string",
              "name": "_signature",
              "type": "string"
            }
          ],
          "internalType": "struct SharedChain.Project[]",
          "name": "",
          "type": "tuple[]"
        }
      ],
      "stateMutability": "view",
      "type": "function",
      "constant": true
    },
    {
      "inputs": [
        {
          "internalType": "string",
          "name": "_title",
          "type": "string"
        },
        {
          "internalType": "uint256",
          "name": "_index",
          "type": "uint256"
        }
      ],
      "name": "createUniqueRequestAddress",
      "outputs": [
        {
          "internalType": "address",
          "name": "",
          "type": "address"
        }
      ],
      "stateMutability": "view",
      "type": "function",
      "constant": true
    },
    {
      "inputs": [
        {
          "internalType": "string",
          "name": "_title",
          "type": "string"
        },
        {
          "internalType": "uint256",
          "name": "_projectStatus",
          "type": "uint256"
        },
        {
          "internalType": "uint256",
          "name": "_requestStatus",
          "type": "uint256"
        },
        {
          "internalType": "address",
          "name": "_projectAddress",
          "type": "address"
        },
        {
          "internalType": "address",
          "name": "_requestAddress",
          "type": "address"
        },
        {
          "internalType": "string",
          "name": "_signature",
          "type": "string"
        }
      ],
      "name": "createRequest",
      "outputs": [],
      "stateMutability": "nonpayable",
      "type": "function"
    },
    {
      "inputs": [
        {
          "internalType": "string",
          "name": "_comments",
          "type": "string"
        },
        {
          "internalType": "uint256",
          "name": "_requestStatus",
          "type": "uint256"
        },
        {
          "internalType": "uint256",
          "name": "_projectStatus",
          "type": "uint256"
        },
        {
          "internalType": "address",
          "name": "_projectAddress",
          "type": "address"
        },
        {
          "internalType": "address",
          "name": "_requestAddress",
          "type": "address"
        },
        {
          "internalType": "string",
          "name": "_signature",
          "type": "string"
        }
      ],
      "name": "updateSupervisorRequest",
      "outputs": [],
      "stateMutability": "nonpayable",
      "type": "function"
    },
    {
      "inputs": [
        {
          "internalType": "string",
          "name": "_comments",
          "type": "string"
        },
        {
          "internalType": "uint256",
          "name": "_requestStatus",
          "type": "uint256"
        },
        {
          "internalType": "uint256",
          "name": "_projectStatus",
          "type": "uint256"
        },
        {
          "internalType": "address",
          "name": "_projectAddress",
          "type": "address"
        },
        {
          "internalType": "address",
          "name": "_requestAddress",
          "type": "address"
        },
        {
          "internalType": "string",
          "name": "_signature",
          "type": "string"
        }
      ],
      "name": "updateCompanyRequest",
      "outputs": [],
      "stateMutability": "nonpayable",
      "type": "function"
    },
    {
      "inputs": [],
      "name": "getAllRequests",
      "outputs": [
        {
          "components": [
            {
              "internalType": "uint256",
              "name": "_index",
              "type": "uint256"
            },
            {
              "internalType": "string",
              "name": "_title",
              "type": "string"
            },
            {
              "internalType": "string",
              "name": "_comments",
              "type": "string"
            },
            {
              "internalType": "enum SharedChain.ProjectStatus",
              "name": "_projectStatus",
              "type": "uint8"
            },
            {
              "internalType": "enum SharedChain.RequestStatus",
              "name": "_requestStatus",
              "type": "uint8"
            },
            {
              "internalType": "enum SharedChain.RequestType",
              "name": "_requestType",
              "type": "uint8"
            },
            {
              "internalType": "address",
              "name": "_projectAddress",
              "type": "address"
            },
            {
              "internalType": "address",
              "name": "_requestAddress",
              "type": "address"
            },
            {
              "internalType": "address",
              "name": "_signerAddress",
              "type": "address"
            },
            {
              "internalType": "uint256",
              "name": "_timestamp",
              "type": "uint256"
            },
            {
              "internalType": "string",
              "name": "_signature",
              "type": "string"
            }
          ],
          "internalType": "struct SharedChain.Request[]",
          "name": "",
          "type": "tuple[]"
        }
      ],
      "stateMutability": "view",
      "type": "function",
      "constant": true
    },
    {
      "inputs": [
        {
          "internalType": "address",
          "name": "_projectAddress",
          "type": "address"
        },
        {
          "internalType": "address",
          "name": "_requestAddress",
          "type": "address"
        }
      ],
      "name": "getLastProjectRequest",
      "outputs": [
        {
          "components": [
            {
              "internalType": "uint256",
              "name": "_index",
              "type": "uint256"
            },
            {
              "internalType": "string",
              "name": "_title",
              "type": "string"
            },
            {
              "internalType": "string",
              "name": "_comments",
              "type": "string"
            },
            {
              "internalType": "enum SharedChain.ProjectStatus",
              "name": "_projectStatus",
              "type": "uint8"
            },
            {
              "internalType": "enum SharedChain.RequestStatus",
              "name": "_requestStatus",
              "type": "uint8"
            },
            {
              "internalType": "enum SharedChain.RequestType",
              "name": "_requestType",
              "type": "uint8"
            },
            {
              "internalType": "address",
              "name": "_projectAddress",
              "type": "address"
            },
            {
              "internalType": "address",
              "name": "_requestAddress",
              "type": "address"
            },
            {
              "internalType": "address",
              "name": "_signerAddress",
              "type": "address"
            },
            {
              "internalType": "uint256",
              "name": "_timestamp",
              "type": "uint256"
            },
            {
              "internalType": "string",
              "name": "_signature",
              "type": "string"
            }
          ],
          "internalType": "struct SharedChain.Request",
          "name": "",
          "type": "tuple"
        }
      ],
      "stateMutability": "view",
      "type": "function",
      "constant": true
    }
  ],
  "bytecode": "0x608060405260006002556000600555600060085534801561001f57600080fd5b50336000806101000a81548173ffffffffffffffffffffffffffffffffffffffff021916908373ffffffffffffffffffffffffffffffffffffffff160217905550615eba80620000706000396000f3fe608060405234801561001057600080fd5b506004361061014d5760003560e01c8063840e78fd116100c3578063d67b1b991161007c578063d67b1b9914610423578063e1592c0d14610441578063e2842d791461045d578063e617385f1461047b578063fb1a002a14610497578063fe360ea5146104b55761014d565b8063840e78fd14610346578063844855631461037f578063910097861461039b57806391d6e4ac146103b7578063a87430ba146103d3578063ba60ec84146104075761014d565b806348ff3c081161011557806348ff3c081461022e57806356a3eead1461025e5780636386c1c71461028e578063663c2269146102be57806374adad1d146102dc57806376c932e0146103165761014d565b8063191e1645146101525780633000d7f9146101825780633b4ec4f81461019e57806344884710146101ce57806347ee45b9146101fe575b600080fd5b61016c6004803603810190610167919061455a565b6104d3565b60405161017991906145f7565b60405180910390f35b61019c60048036038101906101979190614674565b6105c1565b005b6101b860048036038101906101b3919061455a565b610986565b6040516101c591906145f7565b60405180910390f35b6101e860048036038101906101e391906146db565b610a8e565b6040516101f591906149c5565b60405180910390f35b610218600480360381019061021391906149e7565b611049565b6040516102259190614b17565b60405180910390f35b610248600480360381019061024391906149e7565b6114f9565b6040516102559190614ce3565b60405180910390f35b61027860048036038101906102739190614d05565b611b34565b60405161028591906145f7565b60405180910390f35b6102a860048036038101906102a391906149e7565b611b73565b6040516102b59190614df1565b60405180910390f35b6102c6611cfd565b6040516102d39190614e1b565b60405180910390f35b6102f660048036038101906102f191906149e7565b611d03565b60405161030d9b9a99989796959493929190614ead565b60405180910390f35b610330600480360381019061032b9190614d05565b611f7c565b60405161033d91906145f7565b60405180910390f35b610360600480360381019061035b91906149e7565b611fbb565b6040516103769a99989796959493929190614f7c565b60405180910390f35b6103996004803603810190610394919061502d565b612221565b005b6103b560048036038101906103b091906150fc565b612683565b005b6103d160048036038101906103cc919061513c565b6128e6565b005b6103ed60048036038101906103e891906149e7565b612d50565b6040516103fe95949392919061521f565b60405180910390f35b610421600480360381019061041c919061513c565b612db3565b005b61042b61319c565b6040516104389190614e1b565b60405180910390f35b61045b60048036038101906104569190615272565b6131a2565b005b6104656133af565b6040516104729190615414565b60405180910390f35b6104956004803603810190610490919061513c565b613616565b005b61049f613bc5565b6040516104ac91906155f5565b60405180910390f35b6104bd614149565b6040516104ca9190614e1b565b60405180910390f35b6000600160038111156104e9576104e86147b2565b5b600160003373ffffffffffffffffffffffffffffffffffffffff1673ffffffffffffffffffffffffffffffffffffffff16815260200190815260200160002060020160009054906101000a900460ff16600381111561054b5761054a6147b2565b5b1461058b576040517f08c379a000000000000000000000000000000000000000000000000000000000815260040161058290615663565b60405180910390fd5b8233836040516020016105a093929190615728565b6040516020818303038152906040528051906020012060001c905092915050565b3373ffffffffffffffffffffffffffffffffffffffff1673f08b741073b3cb01ef6fb3b412e71c977f276faa73ffffffffffffffffffffffffffffffffffffffff1614610643576040517f08c379a000000000000000000000000000000000000000000000000000000000815260040161063a90615663565b60405180910390fd5b8073ffffffffffffffffffffffffffffffffffffffff16600073ffffffffffffffffffffffffffffffffffffffff1614156106b3576040517f08c379a00000000000000000000000000000000000000000000000000000000081526004016106aa906157ad565b60405180910390fd5b3373ffffffffffffffffffffffffffffffffffffffff1660008054906101000a900473ffffffffffffffffffffffffffffffffffffffff1673ffffffffffffffffffffffffffffffffffffffff1614610741576040517f08c379a000000000000000000000000000000000000000000000000000000000815260040161073890615663565b60405180910390fd5b6040518060a0016040528085815260200184815260200183600381111561076b5761076a6147b2565b5b600381111561077d5761077c6147b2565b5b81526020018273ffffffffffffffffffffffffffffffffffffffff16815260200142815250600160008373ffffffffffffffffffffffffffffffffffffffff1673ffffffffffffffffffffffffffffffffffffffff168152602001908152602001600020600082015181600001556020820151816001015560408201518160020160006101000a81548160ff021916908360038111156108205761081f6147b2565b5b021790555060608201518160020160016101000a81548173ffffffffffffffffffffffffffffffffffffffff021916908373ffffffffffffffffffffffffffffffffffffffff160217905550608082015181600301559050508073ffffffffffffffffffffffffffffffffffffffff167ff751778eb32087df58f173035147c2eac9aac89fdc2f83b1993a198606f56db1600160008473ffffffffffffffffffffffffffffffffffffffff1673ffffffffffffffffffffffffffffffffffffffff1681526020019081526020016000206040516108fd919061592a565b60405180910390a26003819080600181540180825580915050600190039060005260206000200160009091909190916101000a81548173ffffffffffffffffffffffffffffffffffffffff021916908373ffffffffffffffffffffffffffffffffffffffff1602179055506002600081548092919061097b90615974565b919050555050505050565b60003373ffffffffffffffffffffffffffffffffffffffff16600160003373ffffffffffffffffffffffffffffffffffffffff1673ffffffffffffffffffffffffffffffffffffffff16815260200190815260200160002060020160019054906101000a900473ffffffffffffffffffffffffffffffffffffffff1673ffffffffffffffffffffffffffffffffffffffff1614610a58576040517f08c379a0000000000000000000000000000000000000000000000000000000008152600401610a4f906157ad565b60405180910390fd5b823383604051602001610a6d93929190615728565b6040516020818303038152906040528051906020012060001c905092915050565b610a9661414f565b60016003811115610aaa57610aa96147b2565b5b600160003373ffffffffffffffffffffffffffffffffffffffff1673ffffffffffffffffffffffffffffffffffffffff16815260200190815260200160002060020160009054906101000a900460ff166003811115610b0c57610b0b6147b2565b5b1480610b8b575060026003811115610b2757610b266147b2565b5b600160003373ffffffffffffffffffffffffffffffffffffffff1673ffffffffffffffffffffffffffffffffffffffff16815260200190815260200160002060020160009054906101000a900460ff166003811115610b8957610b886147b2565b5b145b610bca576040517f08c379a0000000000000000000000000000000000000000000000000000000008152600401610bc190615663565b60405180910390fd5b610bd261414f565b6000600854111561103f578373ffffffffffffffffffffffffffffffffffffffff16600760008573ffffffffffffffffffffffffffffffffffffffff1673ffffffffffffffffffffffffffffffffffffffff16815260200190815260200160002060030160039054906101000a900473ffffffffffffffffffffffffffffffffffffffff1673ffffffffffffffffffffffffffffffffffffffff16141561103e57600760008473ffffffffffffffffffffffffffffffffffffffff1673ffffffffffffffffffffffffffffffffffffffff1681526020019081526020016000206040518061016001604052908160008201548152602001600182018054610cd8906159ec565b80601f0160208091040260200160405190810160405280929190818152602001828054610d04906159ec565b8015610d515780601f10610d2657610100808354040283529160200191610d51565b820191906000526020600020905b815481529060010190602001808311610d3457829003601f168201915b50505050508152602001600282018054610d6a906159ec565b80601f0160208091040260200160405190810160405280929190818152602001828054610d96906159ec565b8015610de35780601f10610db857610100808354040283529160200191610de3565b820191906000526020600020905b815481529060010190602001808311610dc657829003601f168201915b505050505081526020016003820160009054906101000a900460ff166004811115610e1157610e106147b2565b5b6004811115610e2357610e226147b2565b5b81526020016003820160019054906101000a900460ff166002811115610e4c57610e4b6147b2565b5b6002811115610e5e57610e5d6147b2565b5b81526020016003820160029054906101000a900460ff166001811115610e8757610e866147b2565b5b6001811115610e9957610e986147b2565b5b81526020016003820160039054906101000a900473ffffffffffffffffffffffffffffffffffffffff1673ffffffffffffffffffffffffffffffffffffffff1673ffffffffffffffffffffffffffffffffffffffff1681526020016004820160009054906101000a900473ffffffffffffffffffffffffffffffffffffffff1673ffffffffffffffffffffffffffffffffffffffff1673ffffffffffffffffffffffffffffffffffffffff1681526020016005820160009054906101000a900473ffffffffffffffffffffffffffffffffffffffff1673ffffffffffffffffffffffffffffffffffffffff1673ffffffffffffffffffffffffffffffffffffffff16815260200160068201548152602001600782018054610fb9906159ec565b80601f0160208091040260200160405190810160405280929190818152602001828054610fe5906159ec565b80156110325780601f1061100757610100808354040283529160200191611032565b820191906000526020600020905b81548152906001019060200180831161101557829003601f168201915b50505050508152505090505b5b8091505092915050565b611051614221565b60016003811115611065576110646147b2565b5b600160003373ffffffffffffffffffffffffffffffffffffffff1673ffffffffffffffffffffffffffffffffffffffff16815260200190815260200160002060020160009054906101000a900460ff1660038111156110c7576110c66147b2565b5b14806111465750600260038111156110e2576110e16147b2565b5b600160003373ffffffffffffffffffffffffffffffffffffffff1673ffffffffffffffffffffffffffffffffffffffff16815260200190815260200160002060020160009054906101000a900460ff166003811115611144576111436147b2565b5b145b611185576040517f08c379a000000000000000000000000000000000000000000000000000000000815260040161117c90615663565b60405180910390fd5b600460008373ffffffffffffffffffffffffffffffffffffffff1673ffffffffffffffffffffffffffffffffffffffff16815260200190815260200160002060405180610140016040529081600082015481526020016001820180546111ea906159ec565b80601f0160208091040260200160405190810160405280929190818152602001828054611216906159ec565b80156112635780601f1061123857610100808354040283529160200191611263565b820191906000526020600020905b81548152906001019060200180831161124657829003601f168201915b505050505081526020016002820160009054906101000a900460ff166004811115611291576112906147b2565b5b60048111156112a3576112a26147b2565b5b81526020016003820180546112b7906159ec565b80601f01602080910402602001604051908101604052809291908181526020018280546112e3906159ec565b80156113305780601f1061130557610100808354040283529160200191611330565b820191906000526020600020905b81548152906001019060200180831161131357829003601f168201915b505050505081526020016004820160009054906101000a900473ffffffffffffffffffffffffffffffffffffffff1673ffffffffffffffffffffffffffffffffffffffff1673ffffffffffffffffffffffffffffffffffffffff1681526020016005820160009054906101000a900473ffffffffffffffffffffffffffffffffffffffff1673ffffffffffffffffffffffffffffffffffffffff1673ffffffffffffffffffffffffffffffffffffffff1681526020016006820160009054906101000a900473ffffffffffffffffffffffffffffffffffffffff1673ffffffffffffffffffffffffffffffffffffffff1673ffffffffffffffffffffffffffffffffffffffff1681526020016006820160149054906101000a900460ff1615151515815260200160078201548152602001600882018054611470906159ec565b80601f016020809104026020016040519081016040528092919081815260200182805461149c906159ec565b80156114e95780601f106114be576101008083540402835291602001916114e9565b820191906000526020600020905b8154815290600101906020018083116114cc57829003601f168201915b5050505050815250509050919050565b60606001600381111561150f5761150e6147b2565b5b600160003373ffffffffffffffffffffffffffffffffffffffff1673ffffffffffffffffffffffffffffffffffffffff16815260200190815260200160002060020160009054906101000a900460ff166003811115611571576115706147b2565b5b14806115f057506002600381111561158c5761158b6147b2565b5b600160003373ffffffffffffffffffffffffffffffffffffffff1673ffffffffffffffffffffffffffffffffffffffff16815260200190815260200160002060020160009054906101000a900460ff1660038111156115ee576115ed6147b2565b5b145b61162f576040517f08c379a000000000000000000000000000000000000000000000000000000000815260040161162690615663565b60405180910390fd5b6060600060055414156116455780915050611b2f565b60055467ffffffffffffffff811115611661576116606143f9565b5b60405190808252806020026020018201604052801561169a57816020015b611687614221565b81526020019060019003908161167f5790505b50905060005b600554811015611b29576000600682815481106116c0576116bf615a1e565b5b9060005260206000200160009054906101000a900473ffffffffffffffffffffffffffffffffffffffff169050600460008273ffffffffffffffffffffffffffffffffffffffff1673ffffffffffffffffffffffffffffffffffffffff16815260200190815260200160002060050160009054906101000a900473ffffffffffffffffffffffffffffffffffffffff1673ffffffffffffffffffffffffffffffffffffffff168573ffffffffffffffffffffffffffffffffffffffff161415611b15576000600460008373ffffffffffffffffffffffffffffffffffffffff1673ffffffffffffffffffffffffffffffffffffffff16815260200190815260200160002090508060405180610140016040529081600082015481526020016001820180546117ed906159ec565b80601f0160208091040260200160405190810160405280929190818152602001828054611819906159ec565b80156118665780601f1061183b57610100808354040283529160200191611866565b820191906000526020600020905b81548152906001019060200180831161184957829003601f168201915b505050505081526020016002820160009054906101000a900460ff166004811115611894576118936147b2565b5b60048111156118a6576118a56147b2565b5b81526020016003820180546118ba906159ec565b80601f01602080910402602001604051908101604052809291908181526020018280546118e6906159ec565b80156119335780601f1061190857610100808354040283529160200191611933565b820191906000526020600020905b81548152906001019060200180831161191657829003601f168201915b505050505081526020016004820160009054906101000a900473ffffffffffffffffffffffffffffffffffffffff1673ffffffffffffffffffffffffffffffffffffffff1673ffffffffffffffffffffffffffffffffffffffff1681526020016005820160009054906101000a900473ffffffffffffffffffffffffffffffffffffffff1673ffffffffffffffffffffffffffffffffffffffff1673ffffffffffffffffffffffffffffffffffffffff1681526020016006820160009054906101000a900473ffffffffffffffffffffffffffffffffffffffff1673ffffffffffffffffffffffffffffffffffffffff1673ffffffffffffffffffffffffffffffffffffffff1681526020016006820160149054906101000a900460ff1615151515815260200160078201548152602001600882018054611a73906159ec565b80601f0160208091040260200160405190810160405280929190818152602001828054611a9f906159ec565b8015611aec5780601f10611ac157610100808354040283529160200191611aec565b820191906000526020600020905b815481529060010190602001808311611acf57829003601f168201915b505050505081525050848481518110611b0857611b07615a1e565b5b6020026020010181905250505b508080611b2190615974565b9150506116a0565b50809150505b919050565b60098181548110611b4457600080fd5b906000526020600020016000915054906101000a900473ffffffffffffffffffffffffffffffffffffffff1681565b611b7b6142ca565b3373ffffffffffffffffffffffffffffffffffffffff1673f08b741073b3cb01ef6fb3b412e71c977f276faa73ffffffffffffffffffffffffffffffffffffffff1614611bfd576040517f08c379a0000000000000000000000000000000000000000000000000000000008152600401611bf490615663565b60405180910390fd5b600160008373ffffffffffffffffffffffffffffffffffffffff1673ffffffffffffffffffffffffffffffffffffffff1681526020019081526020016000206040518060a001604052908160008201548152602001600182015481526020016002820160009054906101000a900460ff166003811115611c8057611c7f6147b2565b5b6003811115611c9257611c916147b2565b5b81526020016002820160019054906101000a900473ffffffffffffffffffffffffffffffffffffffff1673ffffffffffffffffffffffffffffffffffffffff1673ffffffffffffffffffffffffffffffffffffffff1681526020016003820154815250509050919050565b60085481565b6007602052806000526040600020600091509050806000015490806001018054611d2c906159ec565b80601f0160208091040260200160405190810160405280929190818152602001828054611d58906159ec565b8015611da55780601f10611d7a57610100808354040283529160200191611da5565b820191906000526020600020905b815481529060010190602001808311611d8857829003601f168201915b505050505090806002018054611dba906159ec565b80601f0160208091040260200160405190810160405280929190818152602001828054611de6906159ec565b8015611e335780601f10611e0857610100808354040283529160200191611e33565b820191906000526020600020905b815481529060010190602001808311611e1657829003601f168201915b5050505050908060030160009054906101000a900460ff16908060030160019054906101000a900460ff16908060030160029054906101000a900460ff16908060030160039054906101000a900473ffffffffffffffffffffffffffffffffffffffff16908060040160009054906101000a900473ffffffffffffffffffffffffffffffffffffffff16908060050160009054906101000a900473ffffffffffffffffffffffffffffffffffffffff1690806006015490806007018054611ef9906159ec565b80601f0160208091040260200160405190810160405280929190818152602001828054611f25906159ec565b8015611f725780601f10611f4757610100808354040283529160200191611f72565b820191906000526020600020905b815481529060010190602001808311611f5557829003601f168201915b505050505090508b565b60068181548110611f8c57600080fd5b906000526020600020016000915054906101000a900473ffffffffffffffffffffffffffffffffffffffff1681565b6004602052806000526040600020600091509050806000015490806001018054611fe4906159ec565b80601f0160208091040260200160405190810160405280929190818152602001828054612010906159ec565b801561205d5780601f106120325761010080835404028352916020019161205d565b820191906000526020600020905b81548152906001019060200180831161204057829003601f168201915b5050505050908060020160009054906101000a900460ff1690806003018054612085906159ec565b80601f01602080910402602001604051908101604052809291908181526020018280546120b1906159ec565b80156120fe5780601f106120d3576101008083540402835291602001916120fe565b820191906000526020600020905b8154815290600101906020018083116120e157829003601f168201915b5050505050908060040160009054906101000a900473ffffffffffffffffffffffffffffffffffffffff16908060050160009054906101000a900473ffffffffffffffffffffffffffffffffffffffff16908060060160009054906101000a900473ffffffffffffffffffffffffffffffffffffffff16908060060160149054906101000a900460ff169080600701549080600801805461219e906159ec565b80601f01602080910402602001604051908101604052809291908181526020018280546121ca906159ec565b80156122175780601f106121ec57610100808354040283529160200191612217565b820191906000526020600020905b8154815290600101906020018083116121fa57829003601f168201915b505050505090508a565b60016003811115612235576122346147b2565b5b600160003373ffffffffffffffffffffffffffffffffffffffff1673ffffffffffffffffffffffffffffffffffffffff16815260200190815260200160002060020160009054906101000a900460ff166003811115612297576122966147b2565b5b146122d7576040517f08c379a00000000000000000000000000000000000000000000000000000000081526004016122ce90615663565b60405180910390fd5b6040518061014001604052806005548152602001858152602001846004811115612304576123036147b2565b5b6004811115612316576123156147b2565b5b81526020018381526020018673ffffffffffffffffffffffffffffffffffffffff1681526020013373ffffffffffffffffffffffffffffffffffffffff168152602001600073ffffffffffffffffffffffffffffffffffffffff16815260200160001515815260200142815260200182815250600460008773ffffffffffffffffffffffffffffffffffffffff1673ffffffffffffffffffffffffffffffffffffffff1681526020019081526020016000206000820151816000015560208201518160010190805190602001906123ee929190614327565b5060408201518160020160006101000a81548160ff0219169083600481111561241a576124196147b2565b5b0217905550606082015181600301908051906020019061243b929190614327565b5060808201518160040160006101000a81548173ffffffffffffffffffffffffffffffffffffffff021916908373ffffffffffffffffffffffffffffffffffffffff16021790555060a08201518160050160006101000a81548173ffffffffffffffffffffffffffffffffffffffff021916908373ffffffffffffffffffffffffffffffffffffffff16021790555060c08201518160060160006101000a81548173ffffffffffffffffffffffffffffffffffffffff021916908373ffffffffffffffffffffffffffffffffffffffff16021790555060e08201518160060160146101000a81548160ff0219169083151502179055506101008201518160070155610120820151816008019080519060200190612559929190614327565b50905050600073ffffffffffffffffffffffffffffffffffffffff168573ffffffffffffffffffffffffffffffffffffffff167ffb530d24abc3d497c3f0525ef204a66ac64d923ec30b40d17bc3a5f572cf4b8e600460008973ffffffffffffffffffffffffffffffffffffffff1673ffffffffffffffffffffffffffffffffffffffff1681526020019081526020016000206040516125f99190615c82565b60405180910390a36006859080600181540180825580915050600190039060005260206000200160009091909190916101000a81548173ffffffffffffffffffffffffffffffffffffffff021916908373ffffffffffffffffffffffffffffffffffffffff1602179055506005600081548092919061267790615974565b91905055505050505050565b3373ffffffffffffffffffffffffffffffffffffffff1673f08b741073b3cb01ef6fb3b412e71c977f276faa73ffffffffffffffffffffffffffffffffffffffff1614612705576040517f08c379a00000000000000000000000000000000000000000000000000000000081526004016126fc90615663565b60405180910390fd5b3373ffffffffffffffffffffffffffffffffffffffff1660008054906101000a900473ffffffffffffffffffffffffffffffffffffffff1673ffffffffffffffffffffffffffffffffffffffff1614612793576040517f08c379a000000000000000000000000000000000000000000000000000000000815260040161278a90615663565b60405180910390fd5b8160038111156127a6576127a56147b2565b5b600160008373ffffffffffffffffffffffffffffffffffffffff1673ffffffffffffffffffffffffffffffffffffffff16815260200190815260200160002060020160006101000a81548160ff0219169083600381111561280a576128096147b2565b5b021790555042600160008373ffffffffffffffffffffffffffffffffffffffff1673ffffffffffffffffffffffffffffffffffffffff168152602001908152602001600020600301819055508073ffffffffffffffffffffffffffffffffffffffff167ff751778eb32087df58f173035147c2eac9aac89fdc2f83b1993a198606f56db1600160008473ffffffffffffffffffffffffffffffffffffffff1673ffffffffffffffffffffffffffffffffffffffff1681526020019081526020016000206040516128da919061592a565b60405180910390a25050565b600260038111156128fa576128f96147b2565b5b600160003373ffffffffffffffffffffffffffffffffffffffff1673ffffffffffffffffffffffffffffffffffffffff16815260200190815260200160002060020160009054906101000a900460ff16600381111561295c5761295b6147b2565b5b1461299c576040517f08c379a000000000000000000000000000000000000000000000000000000000815260040161299390615663565b60405180910390fd5b85600760008473ffffffffffffffffffffffffffffffffffffffff1673ffffffffffffffffffffffffffffffffffffffff16815260200190815260200160002060020190805190602001906129f2929190614327565b50846002811115612a0657612a056147b2565b5b600760008473ffffffffffffffffffffffffffffffffffffffff1673ffffffffffffffffffffffffffffffffffffffff16815260200190815260200160002060030160016101000a81548160ff02191690836002811115612a6a57612a696147b2565b5b021790555080600760008473ffffffffffffffffffffffffffffffffffffffff1673ffffffffffffffffffffffffffffffffffffffff1681526020019081526020016000206007019080519060200190612ac5929190614327565b508273ffffffffffffffffffffffffffffffffffffffff168273ffffffffffffffffffffffffffffffffffffffff167fa25a6f1ff57a050a48ae4b3a19f271fddad950cac8d165d6a2eca5d54cc8070f600760008673ffffffffffffffffffffffffffffffffffffffff1673ffffffffffffffffffffffffffffffffffffffff168152602001908152602001600020604051612b619190615e62565b60405180910390a3846002811115612b7c57612b7b6147b2565b5b6002811115612b8e57612b8d6147b2565b5b600280811115612ba157612ba06147b2565b5b1415612d4857836004811115612bba57612bb96147b2565b5b600460008573ffffffffffffffffffffffffffffffffffffffff1673ffffffffffffffffffffffffffffffffffffffff16815260200190815260200160002060020160006101000a81548160ff02191690836004811115612c1e57612c1d6147b2565b5b021790555033600460008573ffffffffffffffffffffffffffffffffffffffff1673ffffffffffffffffffffffffffffffffffffffff16815260200190815260200160002060060160006101000a81548173ffffffffffffffffffffffffffffffffffffffff021916908373ffffffffffffffffffffffffffffffffffffffff1602179055503373ffffffffffffffffffffffffffffffffffffffff168373ffffffffffffffffffffffffffffffffffffffff167ffb530d24abc3d497c3f0525ef204a66ac64d923ec30b40d17bc3a5f572cf4b8e600460008773ffffffffffffffffffffffffffffffffffffffff1673ffffffffffffffffffffffffffffffffffffffff168152602001908152602001600020604051612d3f9190615c82565b60405180910390a35b505050505050565b60016020528060005260406000206000915090508060000154908060010154908060020160009054906101000a900460ff16908060020160019054906101000a900473ffffffffffffffffffffffffffffffffffffffff16908060030154905085565b600380811115612dc657612dc56147b2565b5b600160003373ffffffffffffffffffffffffffffffffffffffff1673ffffffffffffffffffffffffffffffffffffffff16815260200190815260200160002060020160009054906101000a900460ff166003811115612e2857612e276147b2565b5b14612e68576040517f08c379a0000000000000000000000000000000000000000000000000000000008152600401612e5f90615663565b60405180910390fd5b85600760008473ffffffffffffffffffffffffffffffffffffffff1673ffffffffffffffffffffffffffffffffffffffff1681526020019081526020016000206002019080519060200190612ebe929190614327565b50846002811115612ed257612ed16147b2565b5b600760008473ffffffffffffffffffffffffffffffffffffffff1673ffffffffffffffffffffffffffffffffffffffff16815260200190815260200160002060030160016101000a81548160ff02191690836002811115612f3657612f356147b2565b5b021790555080600760008473ffffffffffffffffffffffffffffffffffffffff1673ffffffffffffffffffffffffffffffffffffffff1681526020019081526020016000206007019080519060200190612f91929190614327565b508273ffffffffffffffffffffffffffffffffffffffff168273ffffffffffffffffffffffffffffffffffffffff167fa25a6f1ff57a050a48ae4b3a19f271fddad950cac8d165d6a2eca5d54cc8070f600760008673ffffffffffffffffffffffffffffffffffffffff1673ffffffffffffffffffffffffffffffffffffffff16815260200190815260200160002060405161302d9190615e62565b60405180910390a3846002811115613048576130476147b2565b5b600281111561305a576130596147b2565b5b60028081111561306d5761306c6147b2565b5b141561319457836004811115613086576130856147b2565b5b600460008573ffffffffffffffffffffffffffffffffffffffff1673ffffffffffffffffffffffffffffffffffffffff16815260200190815260200160002060020160006101000a81548160ff021916908360048111156130ea576130e96147b2565b5b0217905550600073ffffffffffffffffffffffffffffffffffffffff168373ffffffffffffffffffffffffffffffffffffffff167ffb530d24abc3d497c3f0525ef204a66ac64d923ec30b40d17bc3a5f572cf4b8e600460008773ffffffffffffffffffffffffffffffffffffffff1673ffffffffffffffffffffffffffffffffffffffff16815260200190815260200160002060405161318b9190615c82565b60405180910390a35b505050505050565b60025481565b600160038111156131b6576131b56147b2565b5b600160003373ffffffffffffffffffffffffffffffffffffffff1673ffffffffffffffffffffffffffffffffffffffff16815260200190815260200160002060020160009054906101000a900460ff166003811115613218576132176147b2565b5b14613258576040517f08c379a000000000000000000000000000000000000000000000000000000000815260040161324f90615663565b60405180910390fd5b81600460008573ffffffffffffffffffffffffffffffffffffffff1673ffffffffffffffffffffffffffffffffffffffff16815260200190815260200160002060030190805190602001906132ae929190614327565b5080600460008573ffffffffffffffffffffffffffffffffffffffff1673ffffffffffffffffffffffffffffffffffffffff1681526020019081526020016000206008019080519060200190613305929190614327565b50600073ffffffffffffffffffffffffffffffffffffffff168373ffffffffffffffffffffffffffffffffffffffff167ffb530d24abc3d497c3f0525ef204a66ac64d923ec30b40d17bc3a5f572cf4b8e600460008773ffffffffffffffffffffffffffffffffffffffff1673ffffffffffffffffffffffffffffffffffffffff1681526020019081526020016000206040516133a29190615c82565b60405180910390a3505050565b60603373ffffffffffffffffffffffffffffffffffffffff1673f08b741073b3cb01ef6fb3b412e71c977f276faa73ffffffffffffffffffffffffffffffffffffffff1614613433576040517f08c379a000000000000000000000000000000000000000000000000000000000815260040161342a90615663565b60405180910390fd5b600060025467ffffffffffffffff811115613451576134506143f9565b5b60405190808252806020026020018201604052801561348a57816020015b6134776142ca565b81526020019060019003908161346f5790505b50905060005b60025481101561360e576000600382815481106134b0576134af615a1e565b5b9060005260206000200160009054906101000a900473ffffffffffffffffffffffffffffffffffffffff1690506000600160008373ffffffffffffffffffffffffffffffffffffffff1673ffffffffffffffffffffffffffffffffffffffff1681526020019081526020016000209050806040518060a001604052908160008201548152602001600182015481526020016002820160009054906101000a900460ff166003811115613565576135646147b2565b5b6003811115613577576135766147b2565b5b81526020016002820160019054906101000a900473ffffffffffffffffffffffffffffffffffffffff1673ffffffffffffffffffffffffffffffffffffffff1673ffffffffffffffffffffffffffffffffffffffff1681526020016003820154815250508484815181106135ee576135ed615a1e565b5b60200260200101819052505050808061360690615974565b915050613490565b508091505090565b6001600381111561362a576136296147b2565b5b600160003373ffffffffffffffffffffffffffffffffffffffff1673ffffffffffffffffffffffffffffffffffffffff16815260200190815260200160002060020160009054906101000a900460ff16600381111561368c5761368b6147b2565b5b148061370b5750600260038111156136a7576136a66147b2565b5b600160003373ffffffffffffffffffffffffffffffffffffffff1673ffffffffffffffffffffffffffffffffffffffff16815260200190815260200160002060020160009054906101000a900460ff166003811115613709576137086147b2565b5b145b61374a576040517f08c379a000000000000000000000000000000000000000000000000000000000815260040161374190615663565b60405180910390fd5b6000600260048111156137605761375f6147b2565b5b866004811115613773576137726147b2565b5b6004811115613785576137846147b2565b5b141561379057600190505b60405180610160016040528060085481526020018881526020016040518060200160405280600081525081526020018760048111156137d2576137d16147b2565b5b60048111156137e4576137e36147b2565b5b81526020018660028111156137fc576137fb6147b2565b5b600281111561380e5761380d6147b2565b5b8152602001826001811115613826576138256147b2565b5b81526020018573ffffffffffffffffffffffffffffffffffffffff1681526020018473ffffffffffffffffffffffffffffffffffffffff1681526020013373ffffffffffffffffffffffffffffffffffffffff16815260200142815260200183815250600760008573ffffffffffffffffffffffffffffffffffffffff1673ffffffffffffffffffffffffffffffffffffffff1681526020019081526020016000206000820151816000015560208201518160010190805190602001906138ee929190614327565b50604082015181600201908051906020019061390b929190614327565b5060608201518160030160006101000a81548160ff02191690836004811115613937576139366147b2565b5b021790555060808201518160030160016101000a81548160ff02191690836002811115613967576139666147b2565b5b021790555060a08201518160030160026101000a81548160ff02191690836001811115613997576139966147b2565b5b021790555060c08201518160030160036101000a81548173ffffffffffffffffffffffffffffffffffffffff021916908373ffffffffffffffffffffffffffffffffffffffff16021790555060e08201518160040160006101000a81548173ffffffffffffffffffffffffffffffffffffffff021916908373ffffffffffffffffffffffffffffffffffffffff1602179055506101008201518160050160006101000a81548173ffffffffffffffffffffffffffffffffffffffff021916908373ffffffffffffffffffffffffffffffffffffffff1602179055506101208201518160060155610140820151816007019080519060200190613a9a929190614327565b509050508373ffffffffffffffffffffffffffffffffffffffff168373ffffffffffffffffffffffffffffffffffffffff167fa25a6f1ff57a050a48ae4b3a19f271fddad950cac8d165d6a2eca5d54cc8070f600760008773ffffffffffffffffffffffffffffffffffffffff1673ffffffffffffffffffffffffffffffffffffffff168152602001908152602001600020604051613b399190615e62565b60405180910390a36009839080600181540180825580915050600190039060005260206000200160009091909190916101000a81548173ffffffffffffffffffffffffffffffffffffffff021916908373ffffffffffffffffffffffffffffffffffffffff16021790555060086000815480929190613bb790615974565b919050555050505050505050565b60603373ffffffffffffffffffffffffffffffffffffffff16600160003373ffffffffffffffffffffffffffffffffffffffff1673ffffffffffffffffffffffffffffffffffffffff16815260200190815260200160002060020160019054906101000a900473ffffffffffffffffffffffffffffffffffffffff1673ffffffffffffffffffffffffffffffffffffffff1614613c97576040517f08c379a0000000000000000000000000000000000000000000000000000000008152600401613c8e906157ad565b60405180910390fd5b600060085467ffffffffffffffff811115613cb557613cb46143f9565b5b604051908082528060200260200182016040528015613cee57816020015b613cdb61414f565b815260200190600190039081613cd35790505b50905060005b60085481101561414157600060098281548110613d1457613d13615a1e565b5b9060005260206000200160009054906101000a900473ffffffffffffffffffffffffffffffffffffffff1690506000600760008373ffffffffffffffffffffffffffffffffffffffff1673ffffffffffffffffffffffffffffffffffffffff1681526020019081526020016000209050806040518061016001604052908160008201548152602001600182018054613dab906159ec565b80601f0160208091040260200160405190810160405280929190818152602001828054613dd7906159ec565b8015613e245780601f10613df957610100808354040283529160200191613e24565b820191906000526020600020905b815481529060010190602001808311613e0757829003601f168201915b50505050508152602001600282018054613e3d906159ec565b80601f0160208091040260200160405190810160405280929190818152602001828054613e69906159ec565b8015613eb65780601f10613e8b57610100808354040283529160200191613eb6565b820191906000526020600020905b815481529060010190602001808311613e9957829003601f168201915b505050505081526020016003820160009054906101000a900460ff166004811115613ee457613ee36147b2565b5b6004811115613ef657613ef56147b2565b5b81526020016003820160019054906101000a900460ff166002811115613f1f57613f1e6147b2565b5b6002811115613f3157613f306147b2565b5b81526020016003820160029054906101000a900460ff166001811115613f5a57613f596147b2565b5b6001811115613f6c57613f6b6147b2565b5b81526020016003820160039054906101000a900473ffffffffffffffffffffffffffffffffffffffff1673ffffffffffffffffffffffffffffffffffffffff1673ffffffffffffffffffffffffffffffffffffffff1681526020016004820160009054906101000a900473ffffffffffffffffffffffffffffffffffffffff1673ffffffffffffffffffffffffffffffffffffffff1673ffffffffffffffffffffffffffffffffffffffff1681526020016005820160009054906101000a900473ffffffffffffffffffffffffffffffffffffffff1673ffffffffffffffffffffffffffffffffffffffff1673ffffffffffffffffffffffffffffffffffffffff1681526020016006820154815260200160078201805461408c906159ec565b80601f01602080910402602001604051908101604052809291908181526020018280546140b8906159ec565b80156141055780601f106140da57610100808354040283529160200191614105565b820191906000526020600020905b8154815290600101906020018083116140e857829003601f168201915b50505050508152505084848151811061412157614120615a1e565b5b60200260200101819052505050808061413990615974565b915050613cf4565b508091505090565b60055481565b60405180610160016040528060008152602001606081526020016060815260200160006004811115614184576141836147b2565b5b81526020016000600281111561419d5761419c6147b2565b5b8152602001600060018111156141b6576141b56147b2565b5b8152602001600073ffffffffffffffffffffffffffffffffffffffff168152602001600073ffffffffffffffffffffffffffffffffffffffff168152602001600073ffffffffffffffffffffffffffffffffffffffff16815260200160008152602001606081525090565b60405180610140016040528060008152602001606081526020016000600481111561424f5761424e6147b2565b5b815260200160608152602001600073ffffffffffffffffffffffffffffffffffffffff168152602001600073ffffffffffffffffffffffffffffffffffffffff168152602001600073ffffffffffffffffffffffffffffffffffffffff16815260200160001515815260200160008152602001606081525090565b6040518060a001604052806000801916815260200160008019168152602001600060038111156142fd576142fc6147b2565b5b8152602001600073ffffffffffffffffffffffffffffffffffffffff168152602001600081525090565b828054614333906159ec565b90600052602060002090601f016020900481019282614355576000855561439c565b82601f1061436e57805160ff191683800117855561439c565b8280016001018555821561439c579182015b8281111561439b578251825591602001919060010190614380565b5b5090506143a991906143ad565b5090565b5b808211156143c65760008160009055506001016143ae565b5090565b6000604051905090565b600080fd5b600080fd5b600080fd5b600080fd5b6000601f19601f8301169050919050565b7f4e487b7100000000000000000000000000000000000000000000000000000000600052604160045260246000fd5b614431826143e8565b810181811067ffffffffffffffff821117156144505761444f6143f9565b5b80604052505050565b60006144636143ca565b905061446f8282614428565b919050565b600067ffffffffffffffff82111561448f5761448e6143f9565b5b614498826143e8565b9050602081019050919050565b82818337600083830152505050565b60006144c76144c284614474565b614459565b9050828152602081018484840111156144e3576144e26143e3565b5b6144ee8482856144a5565b509392505050565b600082601f83011261450b5761450a6143de565b5b813561451b8482602086016144b4565b91505092915050565b6000819050919050565b61453781614524565b811461454257600080fd5b50565b6000813590506145548161452e565b92915050565b60008060408385031215614571576145706143d4565b5b600083013567ffffffffffffffff81111561458f5761458e6143d9565b5b61459b858286016144f6565b92505060206145ac85828601614545565b9150509250929050565b600073ffffffffffffffffffffffffffffffffffffffff82169050919050565b60006145e1826145b6565b9050919050565b6145f1816145d6565b82525050565b600060208201905061460c60008301846145e8565b92915050565b6000819050919050565b61462581614612565b811461463057600080fd5b50565b6000813590506146428161461c565b92915050565b614651816145d6565b811461465c57600080fd5b50565b60008135905061466e81614648565b92915050565b6000806000806080858703121561468e5761468d6143d4565b5b600061469c87828801614633565b94505060206146ad87828801614633565b93505060406146be87828801614545565b92505060606146cf8782880161465f565b91505092959194509250565b600080604083850312156146f2576146f16143d4565b5b60006147008582860161465f565b92505060206147118582860161465f565b9150509250929050565b61472481614524565b82525050565b600081519050919050565b600082825260208201905092915050565b60005b83811015614764578082015181840152602081019050614749565b83811115614773576000848401525b50505050565b60006147848261472a565b61478e8185614735565b935061479e818560208601614746565b6147a7816143e8565b840191505092915050565b7f4e487b7100000000000000000000000000000000000000000000000000000000600052602160045260246000fd5b600581106147f2576147f16147b2565b5b50565b6000819050614803826147e1565b919050565b6000614813826147f5565b9050919050565b61482381614808565b82525050565b6003811061483a576148396147b2565b5b50565b600081905061484b82614829565b919050565b600061485b8261483d565b9050919050565b61486b81614850565b82525050565b60028110614882576148816147b2565b5b50565b600081905061489382614871565b919050565b60006148a382614885565b9050919050565b6148b381614898565b82525050565b6148c2816145d6565b82525050565b6000610160830160008301516148e1600086018261471b565b50602083015184820360208601526148f98282614779565b915050604083015184820360408601526149138282614779565b9150506060830151614928606086018261481a565b50608083015161493b6080860182614862565b5060a083015161494e60a08601826148aa565b5060c083015161496160c08601826148b9565b5060e083015161497460e08601826148b9565b506101008301516149896101008601826148b9565b5061012083015161499e61012086018261471b565b506101408301518482036101408601526149b88282614779565b9150508091505092915050565b600060208201905081810360008301526149df81846148c8565b905092915050565b6000602082840312156149fd576149fc6143d4565b5b6000614a0b8482850161465f565b91505092915050565b60008115159050919050565b614a2981614a14565b82525050565b600061014083016000830151614a48600086018261471b565b5060208301518482036020860152614a608282614779565b9150506040830151614a75604086018261481a565b5060608301518482036060860152614a8d8282614779565b9150506080830151614aa260808601826148b9565b5060a0830151614ab560a08601826148b9565b5060c0830151614ac860c08601826148b9565b5060e0830151614adb60e0860182614a20565b50610100830151614af061010086018261471b565b50610120830151848203610120860152614b0a8282614779565b9150508091505092915050565b60006020820190508181036000830152614b318184614a2f565b905092915050565b600081519050919050565b600082825260208201905092915050565b6000819050602082019050919050565b600061014083016000830151614b7e600086018261471b565b5060208301518482036020860152614b968282614779565b9150506040830151614bab604086018261481a565b5060608301518482036060860152614bc38282614779565b9150506080830151614bd860808601826148b9565b5060a0830151614beb60a08601826148b9565b5060c0830151614bfe60c08601826148b9565b5060e0830151614c1160e0860182614a20565b50610100830151614c2661010086018261471b565b50610120830151848203610120860152614c408282614779565b9150508091505092915050565b6000614c598383614b65565b905092915050565b6000602082019050919050565b6000614c7982614b39565b614c838185614b44565b935083602082028501614c9585614b55565b8060005b85811015614cd15784840389528151614cb28582614c4d565b9450614cbd83614c61565b925060208a01995050600181019050614c99565b50829750879550505050505092915050565b60006020820190508181036000830152614cfd8184614c6e565b905092915050565b600060208284031215614d1b57614d1a6143d4565b5b6000614d2984828501614545565b91505092915050565b614d3b81614612565b82525050565b60048110614d5257614d516147b2565b5b50565b6000819050614d6382614d41565b919050565b6000614d7382614d55565b9050919050565b614d8381614d68565b82525050565b60a082016000820151614d9f6000850182614d32565b506020820151614db26020850182614d32565b506040820151614dc56040850182614d7a565b506060820151614dd860608501826148b9565b506080820151614deb608085018261471b565b50505050565b600060a082019050614e066000830184614d89565b92915050565b614e1581614524565b82525050565b6000602082019050614e306000830184614e0c565b92915050565b600082825260208201905092915050565b6000614e528261472a565b614e5c8185614e36565b9350614e6c818560208601614746565b614e75816143e8565b840191505092915050565b614e8981614808565b82525050565b614e9881614850565b82525050565b614ea781614898565b82525050565b600061016082019050614ec3600083018e614e0c565b8181036020830152614ed5818d614e47565b90508181036040830152614ee9818c614e47565b9050614ef8606083018b614e80565b614f05608083018a614e8f565b614f1260a0830189614e9e565b614f1f60c08301886145e8565b614f2c60e08301876145e8565b614f3a6101008301866145e8565b614f48610120830185614e0c565b818103610140830152614f5b8184614e47565b90509c9b505050505050505050505050565b614f7681614a14565b82525050565b600061014082019050614f92600083018d614e0c565b8181036020830152614fa4818c614e47565b9050614fb3604083018b614e80565b8181036060830152614fc5818a614e47565b9050614fd460808301896145e8565b614fe160a08301886145e8565b614fee60c08301876145e8565b614ffb60e0830186614f6d565b615009610100830185614e0c565b81810361012083015261501c8184614e47565b90509b9a5050505050505050505050565b600080600080600060a08688031215615049576150486143d4565b5b60006150578882890161465f565b955050602086013567ffffffffffffffff811115615078576150776143d9565b5b615084888289016144f6565b945050604061509588828901614545565b935050606086013567ffffffffffffffff8111156150b6576150b56143d9565b5b6150c2888289016144f6565b925050608086013567ffffffffffffffff8111156150e3576150e26143d9565b5b6150ef888289016144f6565b9150509295509295909350565b60008060408385031215615113576151126143d4565b5b600061512185828601614545565b92505060206151328582860161465f565b9150509250929050565b60008060008060008060c08789031215615159576151586143d4565b5b600087013567ffffffffffffffff811115615177576151766143d9565b5b61518389828a016144f6565b965050602061519489828a01614545565b95505060406151a589828a01614545565b94505060606151b689828a0161465f565b93505060806151c789828a0161465f565b92505060a087013567ffffffffffffffff8111156151e8576151e76143d9565b5b6151f489828a016144f6565b9150509295509295509295565b61520a81614612565b82525050565b61521981614d68565b82525050565b600060a0820190506152346000830188615201565b6152416020830187615201565b61524e6040830186615210565b61525b60608301856145e8565b6152686080830184614e0c565b9695505050505050565b60008060006060848603121561528b5761528a6143d4565b5b60006152998682870161465f565b935050602084013567ffffffffffffffff8111156152ba576152b96143d9565b5b6152c6868287016144f6565b925050604084013567ffffffffffffffff8111156152e7576152e66143d9565b5b6152f3868287016144f6565b9150509250925092565b600081519050919050565b600082825260208201905092915050565b6000819050602082019050919050565b60a08201600082015161533f6000850182614d32565b5060208201516153526020850182614d32565b5060408201516153656040850182614d7a565b50606082015161537860608501826148b9565b50608082015161538b608085018261471b565b50505050565b600061539d8383615329565b60a08301905092915050565b6000602082019050919050565b60006153c1826152fd565b6153cb8185615308565b93506153d683615319565b8060005b838110156154075781516153ee8882615391565b97506153f9836153a9565b9250506001810190506153da565b5085935050505092915050565b6000602082019050818103600083015261542e81846153b6565b905092915050565b600081519050919050565b600082825260208201905092915050565b6000819050602082019050919050565b60006101608301600083015161547b600086018261471b565b50602083015184820360208601526154938282614779565b915050604083015184820360408601526154ad8282614779565b91505060608301516154c2606086018261481a565b5060808301516154d56080860182614862565b5060a08301516154e860a08601826148aa565b5060c08301516154fb60c08601826148b9565b5060e083015161550e60e08601826148b9565b506101008301516155236101008601826148b9565b5061012083015161553861012086018261471b565b506101408301518482036101408601526155528282614779565b9150508091505092915050565b600061556b8383615462565b905092915050565b6000602082019050919050565b600061558b82615436565b6155958185615441565b9350836020820285016155a785615452565b8060005b858110156155e357848403895281516155c4858261555f565b94506155cf83615573565b925060208a019950506001810190506155ab565b50829750879550505050505092915050565b6000602082019050818103600083015261560f8184615580565b905092915050565b7f596f7520617265206e6f742074686520726967687420757365722e0000000000600082015250565b600061564d601b83614e36565b915061565882615617565b602082019050919050565b6000602082019050818103600083015261567c81615640565b9050919050565b600081905092915050565b60006156998261472a565b6156a38185615683565b93506156b3818560208601614746565b80840191505092915050565b60008160601b9050919050565b60006156d7826156bf565b9050919050565b60006156e9826156cc565b9050919050565b6157016156fc826145d6565b6156de565b82525050565b6000819050919050565b61572261571d82614524565b615707565b82525050565b6000615734828661568e565b915061574082856156f0565b6014820191506157508284615711565b602082019150819050949350505050565b7f41646472657373206973206e6f742076616c69642e0000000000000000000000600082015250565b6000615797601583614e36565b91506157a282615761565b602082019050919050565b600060208201905081810360008301526157c68161578a565b9050919050565b60008160001c9050919050565b6000819050919050565b60006157f76157f2836157cd565b6157da565b9050919050565b600060ff82169050919050565b600061581e615819836157cd565b6157fe565b9050919050565b60008160081c9050919050565b600073ffffffffffffffffffffffffffffffffffffffff82169050919050565b600061586561586083615825565b615832565b9050919050565b6000819050919050565b6000615889615884836157cd565b61586c565b9050919050565b60a0820160008083015490506158a5816157e4565b6158b26000860182614d32565b50600183015490506158c3816157e4565b6158d06020860182614d32565b50600283015490506158e18161580b565b6158ee6040860182614d7a565b506158f881615852565b61590560608601826148b9565b506003830154905061591681615876565b615923608086018261471b565b5050505050565b600060a08201905061593f6000830184615890565b92915050565b7f4e487b7100000000000000000000000000000000000000000000000000000000600052601160045260246000fd5b600061597f82614524565b91507fffffffffffffffffffffffffffffffffffffffffffffffffffffffffffffffff8214156159b2576159b1615945565b5b600182019050919050565b7f4e487b7100000000000000000000000000000000000000000000000000000000600052602260045260246000fd5b60006002820490506001821680615a0457607f821691505b60208210811415615a1857615a176159bd565b5b50919050565b7f4e487b7100000000000000000000000000000000000000000000000000000000600052603260045260246000fd5b60008190508160005260206000209050919050565b60008154615a6f816159ec565b615a798186614735565b94506001821660008114615a945760018114615aa657615ad9565b60ff1983168652602086019350615ad9565b615aaf85615a4d565b60005b83811015615ad157815481890152600182019150602081019050615ab2565b808801955050505b50505092915050565b600060ff82169050919050565b6000615b02615afd836157cd565b615ae2565b9050919050565b6000615b1c615b17836157cd565b615832565b9050919050565b60008160a01c9050919050565b600060ff82169050919050565b6000615b50615b4b83615b23565b615b30565b9050919050565b600061014083016000808401549050615b6f81615876565b615b7c600087018261471b565b50600184018583036020870152615b938382615a62565b92505060028401549050615ba681615aef565b615bb3604087018261481a565b50600384018583036060870152615bca8382615a62565b92505060048401549050615bdd81615b09565b615bea60808701826148b9565b5060058401549050615bfb81615b09565b615c0860a08701826148b9565b5060068401549050615c1981615b09565b615c2660c08701826148b9565b50615c3081615b3d565b615c3d60e0870182614a20565b5060078401549050615c4e81615876565b615c5c61010087018261471b565b5060088401858303610120870152615c748382615a62565b925050819250505092915050565b60006020820190508181036000830152615c9c8184615b57565b905092915050565b600060ff82169050919050565b6000615cc4615cbf83615825565b615ca4565b9050919050565b60008160101c9050919050565b600060ff82169050919050565b6000615cf8615cf383615ccb565b615cd8565b9050919050565b60008160181c9050919050565b6000615d1f615d1a83615cff565b615832565b9050919050565b600061016083016000808401549050615d3e81615876565b615d4b600087018261471b565b50600184018583036020870152615d628382615a62565b925050600284018583036040870152615d7b8382615a62565b92505060038401549050615d8e81615aef565b615d9b606087018261481a565b50615da581615cb1565b615db26080870182614862565b50615dbc81615ce5565b615dc960a08701826148aa565b50615dd381615d0c565b615de060c08701826148b9565b5060048401549050615df181615b09565b615dfe60e08701826148b9565b5060058401549050615e0f81615b09565b615e1d6101008701826148b9565b5060068401549050615e2e81615876565b615e3c61012087018261471b565b5060078401858303610140870152615e548382615a62565b925050819250505092915050565b60006020820190508181036000830152615e7c8184615d26565b90509291505056fea26469706673582212207ce5f13db943ccda830d56e5eda508da558eb944a611ae64c90933071472388a64736f6c634300080a0033",
  "immutableReferences": {},
  "source": "// SPDX-License-Identifier: MIT\r\npragma solidity >=0.8.0 <0.9.0;\r\n\r\nimport \"./UserChain.sol\";\r\n\r\ncontract ProjectChain is UserChain {\r\n\r\n    constructor() {}\r\n\r\n    modifier onlyUserProject() {\r\n        require(users[msg.sender]._role == Roles.UserProject, \"You are not the right user.\");\r\n        _;\r\n    }\r\n\r\n    modifier onlyUserProjectAndCompany() {\r\n        require(\r\n            users[msg.sender]._role == Roles.UserProject || users[msg.sender]._role == Roles.Company,\r\n            \"You are not the right user.\"\r\n        );\r\n        _;\r\n    }\r\n\r\n\r\n    mapping(address => Project) public projects;\r\n    uint256 public projectsCounter = 0;\r\n    address[] public projectsAddress;\r\n\r\n    function createUniqueProjectAddress(string memory _name, uint256 _index)\r\n        public view onlyUserProject returns (address)\r\n    {\r\n        return address(uint160(uint256(keccak256(abi.encodePacked(_name, msg.sender, _index)))));\r\n    }\r\n\r\n    function createProject(\r\n        address _projectAddress,\r\n        string memory _name,\r\n        uint256 _status,\r\n        string memory _ipfsFileCID,\r\n        string memory _signature\r\n    ) public onlyUserProject {\r\n        projects[_projectAddress] = Project(\r\n            projectsCounter,\r\n            _name,\r\n            ProjectStatus(_status),\r\n            _ipfsFileCID,\r\n            _projectAddress,\r\n            msg.sender,\r\n            address(0x0),\r\n            false,\r\n            block.timestamp,\r\n            _signature\r\n        );\r\n\r\n        emit ProjectEvent(projects[_projectAddress], _projectAddress, address(0x0));\r\n        projectsAddress.push(_projectAddress);\r\n        projectsCounter++;\r\n    }\r\n\r\n    function updateProject(\r\n        address _projectAddress,\r\n        string memory _ipfsFileCID,\r\n        string memory _signature\r\n    ) public onlyUserProject {\r\n        projects[_projectAddress]._ipfsFileCID = _ipfsFileCID;\r\n        projects[_projectAddress]._signature = _signature;\r\n\r\n        emit ProjectEvent(projects[_projectAddress], _projectAddress, address(0x0));\r\n    }\r\n\r\n    function getProjectInfo(address _address)\r\n        public view onlyUserProjectAndCompany returns (Project memory)\r\n    {\r\n        return projects[_address];\r\n    }\r\n\r\n    function getProjectsByUserAddress(address _walletAddress)\r\n        public view onlyUserProjectAndCompany returns (Project[] memory)\r\n    {\r\n        Project[] memory allProjects;\r\n        if (projectsCounter == 0) return allProjects;\r\n\r\n        allProjects = new Project[](projectsCounter);\r\n        for (uint256 index = 0; index < projectsCounter; index++) {\r\n            address _projectAddress = projectsAddress[index];\r\n            if (_walletAddress == projects[_projectAddress]._signerAddress) {\r\n                Project storage project = projects[_projectAddress];\r\n                allProjects[index] = project;\r\n            }\r\n        }\r\n        return allProjects;\r\n    }\r\n\r\n\r\n    mapping(address => Request) public requests;\r\n    uint256 public requestsCounter = 0;\r\n    address[] public requestsAddress;\r\n\r\n    function createUniqueRequestAddress(string memory _title, uint256 _index)\r\n        public view returns (address)\r\n    {\r\n        require(users[msg.sender]._walletAddress == msg.sender, \"Address is not valid.\");\r\n        return address(uint160(uint256(keccak256(abi.encodePacked(_title, msg.sender, _index)))));\r\n    }\r\n\r\n    function createRequest(\r\n        string memory _title,\r\n        uint256 _projectStatus,\r\n        uint256 _requestStatus,\r\n        address _projectAddress,\r\n        address _requestAddress,\r\n        string memory _signature\r\n    ) public onlyUserProjectAndCompany {\r\n        RequestType _requestType = RequestType.SupervisorReq;\r\n        if (ProjectStatus(_projectStatus) == ProjectStatus.StartProject) {\r\n            _requestType = RequestType.CompanyReq;\r\n        }\r\n\r\n        requests[_requestAddress] = Request(\r\n            requestsCounter,\r\n            _title,\r\n            \"\",\r\n            ProjectStatus(_projectStatus),\r\n            RequestStatus(_requestStatus),\r\n            RequestType(_requestType),\r\n            _projectAddress,\r\n            _requestAddress,\r\n            msg.sender,\r\n            block.timestamp,\r\n            _signature\r\n        );\r\n\r\n        emit RequestEvent(requests[_requestAddress], _requestAddress, _projectAddress);\r\n        requestsAddress.push(_requestAddress);\r\n        requestsCounter++;\r\n    }\r\n\r\n    function updateSupervisorRequest(\r\n        string memory _comments,\r\n        uint256 _requestStatus,\r\n        uint256 _projectStatus,\r\n        address _projectAddress,\r\n        address _requestAddress,\r\n        string memory _signature\r\n    ) public {\r\n        require(users[msg.sender]._role == Roles.Supervisor, \"You are not the right user.\");\r\n\r\n        // Update Requests Mapping and Struct Array\r\n        requests[_requestAddress]._comments = _comments;\r\n        requests[_requestAddress]._requestStatus = RequestStatus(_requestStatus);\r\n        requests[_requestAddress]._signature = _signature;\r\n        emit RequestEvent(requests[_requestAddress], _requestAddress, _projectAddress);\r\n\r\n        // Update Project Mapping and Struct Array\r\n        if (RequestStatus.Approved == RequestStatus(_requestStatus)) {\r\n            projects[_projectAddress]._status = ProjectStatus(_projectStatus);\r\n            emit ProjectEvent(projects[_projectAddress], _projectAddress, address(0x0));\r\n        }\r\n    }\r\n\r\n    function updateCompanyRequest(\r\n        string memory _comments,\r\n        uint256 _requestStatus,\r\n        uint256 _projectStatus,\r\n        address _projectAddress,\r\n        address _requestAddress,\r\n        string memory _signature\r\n    ) public {\r\n        require(users[msg.sender]._role == Roles.Company, \"You are not the right user.\");\r\n\r\n        // Update Requests Mapping and Struct Array\r\n        requests[_requestAddress]._comments = _comments;\r\n        requests[_requestAddress]._requestStatus = RequestStatus(_requestStatus);\r\n        requests[_requestAddress]._signature = _signature;\r\n        emit RequestEvent(requests[_requestAddress], _requestAddress, _projectAddress);\r\n\r\n        // Update Project Mapping and Struct Array\r\n        if (RequestStatus.Approved == RequestStatus(_requestStatus)) {\r\n            projects[_projectAddress]._status = ProjectStatus(_projectStatus);\r\n            projects[_projectAddress]._companyAddress = msg.sender;\r\n            emit ProjectEvent(projects[_projectAddress], _projectAddress, msg.sender);\r\n        }\r\n    }\r\n\r\n    function getAllRequests() public view returns (Request[] memory) {\r\n        require(users[msg.sender]._walletAddress == msg.sender, \"Address is not valid.\");\r\n\r\n        Request[] memory allRequests = new Request[](requestsCounter);\r\n        for (uint256 index = 0; index < requestsCounter; index++) {\r\n            address _requestAddress = requestsAddress[index];\r\n            Request storage request = requests[_requestAddress];\r\n            allRequests[index] = request;\r\n        }\r\n        return allRequests;\r\n    }\r\n\r\n    function getLastProjectRequest(address _projectAddress, address _requestAddress) \r\n        public view onlyUserProjectAndCompany returns (Request memory)\r\n    {\r\n        Request memory request;\r\n        if (requestsCounter > 0) {\r\n            if (requests[_requestAddress]._projectAddress == _projectAddress) {\r\n                request = requests[_requestAddress];\r\n            }\r\n        }\r\n        return request;\r\n    }\r\n}\r\n",
  "sourcePath": "/mnt/c/Users/Beniamin/source/repos/DissertationProject/contracts/ProjectChain.sol",
  "compiler": {
    "name": "solc",
    "version": "0.8.10+commit.fc410830.Emscripten.clang"
  },
  "schemaVersion": "3.4.3",
  "updatedAt": "2021-12-15T07:51:27.943Z",
  "networkType": "ethereum",
  "devdoc": {
    "kind": "dev",
    "methods": {},
    "version": 1
  },
  "userdoc": {
    "kind": "user",
    "methods": {},
    "version": 1
  }
}