{
  "contractName": "ProjectChain",
  "abi": [
    {
      "inputs": [],
      "stateMutability": "nonpayable",
      "type": "constructor"
    },
    {
      "anonymous": false,
      "inputs": [
        {
          "components": [
            {
              "internalType": "uint256",
              "name": "_index",
              "type": "uint256"
            },
            {
              "internalType": "string",
              "name": "_name",
              "type": "string"
            },
            {
              "internalType": "enum SharedChain.ProjectStatus",
              "name": "_status",
              "type": "uint8"
            },
            {
              "internalType": "string",
              "name": "_ipfsFileCID",
              "type": "string"
            },
            {
              "internalType": "address",
              "name": "_projectAddress",
              "type": "address"
            },
            {
              "internalType": "address",
              "name": "_signerAddress",
              "type": "address"
            },
            {
              "internalType": "address",
              "name": "_companyAddress",
              "type": "address"
            },
            {
              "internalType": "bool",
              "name": "_assigned",
              "type": "bool"
            },
            {
              "internalType": "uint256",
              "name": "_timestamp",
              "type": "uint256"
            },
            {
              "internalType": "string",
              "name": "_signature",
              "type": "string"
            }
          ],
          "indexed": false,
          "internalType": "struct SharedChain.Project",
          "name": "_project",
          "type": "tuple"
        },
        {
          "indexed": true,
          "internalType": "address",
          "name": "_projectAddress",
          "type": "address"
        },
        {
          "indexed": true,
          "internalType": "address",
          "name": "_companyAddress",
          "type": "address"
        }
      ],
      "name": "ProjectEvent",
      "type": "event"
    },
    {
      "anonymous": false,
      "inputs": [
        {
          "components": [
            {
              "internalType": "uint256",
              "name": "_index",
              "type": "uint256"
            },
            {
              "internalType": "string",
              "name": "_title",
              "type": "string"
            },
            {
              "internalType": "string",
              "name": "_comments",
              "type": "string"
            },
            {
              "internalType": "enum SharedChain.ProjectStatus",
              "name": "_projectStatus",
              "type": "uint8"
            },
            {
              "internalType": "enum SharedChain.RequestStatus",
              "name": "_requestStatus",
              "type": "uint8"
            },
            {
              "internalType": "enum SharedChain.RequestType",
              "name": "_requestType",
              "type": "uint8"
            },
            {
              "internalType": "address",
              "name": "_projectAddress",
              "type": "address"
            },
            {
              "internalType": "address",
              "name": "_requestAddress",
              "type": "address"
            },
            {
              "internalType": "address",
              "name": "_signerAddress",
              "type": "address"
            },
            {
              "internalType": "uint256",
              "name": "_timestamp",
              "type": "uint256"
            },
            {
              "internalType": "string",
              "name": "_signature",
              "type": "string"
            }
          ],
          "indexed": false,
          "internalType": "struct SharedChain.Request",
          "name": "_request",
          "type": "tuple"
        },
        {
          "indexed": true,
          "internalType": "address",
          "name": "_requestAddress",
          "type": "address"
        },
        {
          "indexed": true,
          "internalType": "address",
          "name": "_projectAddress",
          "type": "address"
        }
      ],
      "name": "RequestEvent",
      "type": "event"
    },
    {
      "anonymous": false,
      "inputs": [
        {
          "components": [
            {
              "internalType": "bytes32",
              "name": "_firstname",
              "type": "bytes32"
            },
            {
              "internalType": "bytes32",
              "name": "_lastname",
              "type": "bytes32"
            },
            {
              "internalType": "enum SharedChain.Roles",
              "name": "_role",
              "type": "uint8"
            },
            {
              "internalType": "address",
              "name": "_walletAddress",
              "type": "address"
            },
            {
              "internalType": "uint256",
              "name": "_timestamp",
              "type": "uint256"
            }
          ],
          "indexed": false,
          "internalType": "struct SharedChain.User",
          "name": "_user",
          "type": "tuple"
        },
        {
          "indexed": true,
          "internalType": "address",
          "name": "_walletAddress",
          "type": "address"
        }
      ],
      "name": "UserEvent",
      "type": "event"
    },
    {
      "inputs": [
        {
          "internalType": "uint256",
          "name": "_role",
          "type": "uint256"
        },
        {
          "internalType": "address",
          "name": "_walletAddress",
          "type": "address"
        }
      ],
      "name": "changeUserRole",
      "outputs": [],
      "stateMutability": "nonpayable",
      "type": "function"
    },
    {
      "inputs": [],
      "name": "getAllUsers",
      "outputs": [
        {
          "components": [
            {
              "internalType": "bytes32",
              "name": "_firstname",
              "type": "bytes32"
            },
            {
              "internalType": "bytes32",
              "name": "_lastname",
              "type": "bytes32"
            },
            {
              "internalType": "enum SharedChain.Roles",
              "name": "_role",
              "type": "uint8"
            },
            {
              "internalType": "address",
              "name": "_walletAddress",
              "type": "address"
            },
            {
              "internalType": "uint256",
              "name": "_timestamp",
              "type": "uint256"
            }
          ],
          "internalType": "struct SharedChain.User[]",
          "name": "",
          "type": "tuple[]"
        }
      ],
      "stateMutability": "view",
      "type": "function",
      "constant": true
    },
    {
      "inputs": [
        {
          "internalType": "address",
          "name": "_walletAddress",
          "type": "address"
        }
      ],
      "name": "getUserInfo",
      "outputs": [
        {
          "components": [
            {
              "internalType": "bytes32",
              "name": "_firstname",
              "type": "bytes32"
            },
            {
              "internalType": "bytes32",
              "name": "_lastname",
              "type": "bytes32"
            },
            {
              "internalType": "enum SharedChain.Roles",
              "name": "_role",
              "type": "uint8"
            },
            {
              "internalType": "address",
              "name": "_walletAddress",
              "type": "address"
            },
            {
              "internalType": "uint256",
              "name": "_timestamp",
              "type": "uint256"
            }
          ],
          "internalType": "struct SharedChain.User",
          "name": "",
          "type": "tuple"
        }
      ],
      "stateMutability": "view",
      "type": "function",
      "constant": true
    },
    {
      "inputs": [
        {
          "internalType": "address",
          "name": "",
          "type": "address"
        }
      ],
      "name": "projects",
      "outputs": [
        {
          "internalType": "uint256",
          "name": "_index",
          "type": "uint256"
        },
        {
          "internalType": "string",
          "name": "_name",
          "type": "string"
        },
        {
          "internalType": "enum SharedChain.ProjectStatus",
          "name": "_status",
          "type": "uint8"
        },
        {
          "internalType": "string",
          "name": "_ipfsFileCID",
          "type": "string"
        },
        {
          "internalType": "address",
          "name": "_projectAddress",
          "type": "address"
        },
        {
          "internalType": "address",
          "name": "_signerAddress",
          "type": "address"
        },
        {
          "internalType": "address",
          "name": "_companyAddress",
          "type": "address"
        },
        {
          "internalType": "bool",
          "name": "_assigned",
          "type": "bool"
        },
        {
          "internalType": "uint256",
          "name": "_timestamp",
          "type": "uint256"
        },
        {
          "internalType": "string",
          "name": "_signature",
          "type": "string"
        }
      ],
      "stateMutability": "view",
      "type": "function",
      "constant": true
    },
    {
      "inputs": [
        {
          "internalType": "uint256",
          "name": "",
          "type": "uint256"
        }
      ],
      "name": "projectsAddress",
      "outputs": [
        {
          "internalType": "address",
          "name": "",
          "type": "address"
        }
      ],
      "stateMutability": "view",
      "type": "function",
      "constant": true
    },
    {
      "inputs": [],
      "name": "projectsCounter",
      "outputs": [
        {
          "internalType": "uint256",
          "name": "",
          "type": "uint256"
        }
      ],
      "stateMutability": "view",
      "type": "function",
      "constant": true
    },
    {
      "inputs": [
        {
          "internalType": "bytes32",
          "name": "_firstname",
          "type": "bytes32"
        },
        {
          "internalType": "bytes32",
          "name": "_lastname",
          "type": "bytes32"
        },
        {
          "internalType": "uint256",
          "name": "_role",
          "type": "uint256"
        },
        {
          "internalType": "address",
          "name": "_walletAddress",
          "type": "address"
        }
      ],
      "name": "registerUser",
      "outputs": [],
      "stateMutability": "nonpayable",
      "type": "function"
    },
    {
      "inputs": [
        {
          "internalType": "address",
          "name": "",
          "type": "address"
        }
      ],
      "name": "requests",
      "outputs": [
        {
          "internalType": "uint256",
          "name": "_index",
          "type": "uint256"
        },
        {
          "internalType": "string",
          "name": "_title",
          "type": "string"
        },
        {
          "internalType": "string",
          "name": "_comments",
          "type": "string"
        },
        {
          "internalType": "enum SharedChain.ProjectStatus",
          "name": "_projectStatus",
          "type": "uint8"
        },
        {
          "internalType": "enum SharedChain.RequestStatus",
          "name": "_requestStatus",
          "type": "uint8"
        },
        {
          "internalType": "enum SharedChain.RequestType",
          "name": "_requestType",
          "type": "uint8"
        },
        {
          "internalType": "address",
          "name": "_projectAddress",
          "type": "address"
        },
        {
          "internalType": "address",
          "name": "_requestAddress",
          "type": "address"
        },
        {
          "internalType": "address",
          "name": "_signerAddress",
          "type": "address"
        },
        {
          "internalType": "uint256",
          "name": "_timestamp",
          "type": "uint256"
        },
        {
          "internalType": "string",
          "name": "_signature",
          "type": "string"
        }
      ],
      "stateMutability": "view",
      "type": "function",
      "constant": true
    },
    {
      "inputs": [
        {
          "internalType": "uint256",
          "name": "",
          "type": "uint256"
        }
      ],
      "name": "requestsAddress",
      "outputs": [
        {
          "internalType": "address",
          "name": "",
          "type": "address"
        }
      ],
      "stateMutability": "view",
      "type": "function",
      "constant": true
    },
    {
      "inputs": [],
      "name": "requestsCounter",
      "outputs": [
        {
          "internalType": "uint256",
          "name": "",
          "type": "uint256"
        }
      ],
      "stateMutability": "view",
      "type": "function",
      "constant": true
    },
    {
      "inputs": [
        {
          "internalType": "address",
          "name": "",
          "type": "address"
        }
      ],
      "name": "users",
      "outputs": [
        {
          "internalType": "bytes32",
          "name": "_firstname",
          "type": "bytes32"
        },
        {
          "internalType": "bytes32",
          "name": "_lastname",
          "type": "bytes32"
        },
        {
          "internalType": "enum SharedChain.Roles",
          "name": "_role",
          "type": "uint8"
        },
        {
          "internalType": "address",
          "name": "_walletAddress",
          "type": "address"
        },
        {
          "internalType": "uint256",
          "name": "_timestamp",
          "type": "uint256"
        }
      ],
      "stateMutability": "view",
      "type": "function",
      "constant": true
    },
    {
      "inputs": [],
      "name": "usersCounter",
      "outputs": [
        {
          "internalType": "uint256",
          "name": "",
          "type": "uint256"
        }
      ],
      "stateMutability": "view",
      "type": "function",
      "constant": true
    },
    {
      "inputs": [
        {
          "internalType": "string",
          "name": "_name",
          "type": "string"
        },
        {
          "internalType": "uint256",
          "name": "_index",
          "type": "uint256"
        }
      ],
      "name": "createUniqueProjectAddress",
      "outputs": [
        {
          "internalType": "address",
          "name": "",
          "type": "address"
        }
      ],
      "stateMutability": "view",
      "type": "function",
      "constant": true
    },
    {
      "inputs": [
        {
          "internalType": "address",
          "name": "_projectAddress",
          "type": "address"
        },
        {
          "internalType": "string",
          "name": "_name",
          "type": "string"
        },
        {
          "internalType": "uint256",
          "name": "_status",
          "type": "uint256"
        },
        {
          "internalType": "string",
          "name": "_ipfsFileCID",
          "type": "string"
        },
        {
          "internalType": "string",
          "name": "_signature",
          "type": "string"
        }
      ],
      "name": "createProject",
      "outputs": [],
      "stateMutability": "nonpayable",
      "type": "function"
    },
    {
      "inputs": [
        {
          "internalType": "address",
          "name": "_projectAddress",
          "type": "address"
        },
        {
          "internalType": "string",
          "name": "_ipfsFileCID",
          "type": "string"
        },
        {
          "internalType": "string",
          "name": "_signature",
          "type": "string"
        }
      ],
      "name": "updateProject",
      "outputs": [],
      "stateMutability": "nonpayable",
      "type": "function"
    },
    {
      "inputs": [
        {
          "internalType": "address",
          "name": "_address",
          "type": "address"
        }
      ],
      "name": "getProjectInfo",
      "outputs": [
        {
          "components": [
            {
              "internalType": "uint256",
              "name": "_index",
              "type": "uint256"
            },
            {
              "internalType": "string",
              "name": "_name",
              "type": "string"
            },
            {
              "internalType": "enum SharedChain.ProjectStatus",
              "name": "_status",
              "type": "uint8"
            },
            {
              "internalType": "string",
              "name": "_ipfsFileCID",
              "type": "string"
            },
            {
              "internalType": "address",
              "name": "_projectAddress",
              "type": "address"
            },
            {
              "internalType": "address",
              "name": "_signerAddress",
              "type": "address"
            },
            {
              "internalType": "address",
              "name": "_companyAddress",
              "type": "address"
            },
            {
              "internalType": "bool",
              "name": "_assigned",
              "type": "bool"
            },
            {
              "internalType": "uint256",
              "name": "_timestamp",
              "type": "uint256"
            },
            {
              "internalType": "string",
              "name": "_signature",
              "type": "string"
            }
          ],
          "internalType": "struct SharedChain.Project",
          "name": "",
          "type": "tuple"
        }
      ],
      "stateMutability": "view",
      "type": "function",
      "constant": true
    },
    {
      "inputs": [
        {
          "internalType": "address",
          "name": "_walletAddress",
          "type": "address"
        }
      ],
      "name": "getProjectsByUserAddress",
      "outputs": [
        {
          "components": [
            {
              "internalType": "uint256",
              "name": "_index",
              "type": "uint256"
            },
            {
              "internalType": "string",
              "name": "_name",
              "type": "string"
            },
            {
              "internalType": "enum SharedChain.ProjectStatus",
              "name": "_status",
              "type": "uint8"
            },
            {
              "internalType": "string",
              "name": "_ipfsFileCID",
              "type": "string"
            },
            {
              "internalType": "address",
              "name": "_projectAddress",
              "type": "address"
            },
            {
              "internalType": "address",
              "name": "_signerAddress",
              "type": "address"
            },
            {
              "internalType": "address",
              "name": "_companyAddress",
              "type": "address"
            },
            {
              "internalType": "bool",
              "name": "_assigned",
              "type": "bool"
            },
            {
              "internalType": "uint256",
              "name": "_timestamp",
              "type": "uint256"
            },
            {
              "internalType": "string",
              "name": "_signature",
              "type": "string"
            }
          ],
          "internalType": "struct SharedChain.Project[]",
          "name": "",
          "type": "tuple[]"
        }
      ],
      "stateMutability": "view",
      "type": "function",
      "constant": true
    },
    {
      "inputs": [
        {
          "internalType": "string",
          "name": "_title",
          "type": "string"
        },
        {
          "internalType": "uint256",
          "name": "_index",
          "type": "uint256"
        }
      ],
      "name": "createUniqueRequestAddress",
      "outputs": [
        {
          "internalType": "address",
          "name": "",
          "type": "address"
        }
      ],
      "stateMutability": "view",
      "type": "function",
      "constant": true
    },
    {
      "inputs": [
        {
          "internalType": "string",
          "name": "_title",
          "type": "string"
        },
        {
          "internalType": "uint256",
          "name": "_projectStatus",
          "type": "uint256"
        },
        {
          "internalType": "uint256",
          "name": "_requestStatus",
          "type": "uint256"
        },
        {
          "internalType": "address",
          "name": "_projectAddress",
          "type": "address"
        },
        {
          "internalType": "address",
          "name": "_requestAddress",
          "type": "address"
        },
        {
          "internalType": "string",
          "name": "_signature",
          "type": "string"
        }
      ],
      "name": "createRequest",
      "outputs": [],
      "stateMutability": "nonpayable",
      "type": "function"
    },
    {
      "inputs": [
        {
          "internalType": "string",
          "name": "_comments",
          "type": "string"
        },
        {
          "internalType": "uint256",
          "name": "_requestStatus",
          "type": "uint256"
        },
        {
          "internalType": "uint256",
          "name": "_projectStatus",
          "type": "uint256"
        },
        {
          "internalType": "address",
          "name": "_projectAddress",
          "type": "address"
        },
        {
          "internalType": "address",
          "name": "_requestAddress",
          "type": "address"
        },
        {
          "internalType": "string",
          "name": "_signature",
          "type": "string"
        }
      ],
      "name": "updateSupervisorRequest",
      "outputs": [],
      "stateMutability": "nonpayable",
      "type": "function"
    },
    {
      "inputs": [
        {
          "internalType": "string",
          "name": "_comments",
          "type": "string"
        },
        {
          "internalType": "uint256",
          "name": "_requestStatus",
          "type": "uint256"
        },
        {
          "internalType": "uint256",
          "name": "_projectStatus",
          "type": "uint256"
        },
        {
          "internalType": "address",
          "name": "_projectAddress",
          "type": "address"
        },
        {
          "internalType": "address",
          "name": "_requestAddress",
          "type": "address"
        },
        {
          "internalType": "string",
          "name": "_signature",
          "type": "string"
        }
      ],
      "name": "updateCompanyRequest",
      "outputs": [],
      "stateMutability": "nonpayable",
      "type": "function"
    },
    {
      "inputs": [],
      "name": "getAllRequests",
      "outputs": [
        {
          "components": [
            {
              "internalType": "uint256",
              "name": "_index",
              "type": "uint256"
            },
            {
              "internalType": "string",
              "name": "_title",
              "type": "string"
            },
            {
              "internalType": "string",
              "name": "_comments",
              "type": "string"
            },
            {
              "internalType": "enum SharedChain.ProjectStatus",
              "name": "_projectStatus",
              "type": "uint8"
            },
            {
              "internalType": "enum SharedChain.RequestStatus",
              "name": "_requestStatus",
              "type": "uint8"
            },
            {
              "internalType": "enum SharedChain.RequestType",
              "name": "_requestType",
              "type": "uint8"
            },
            {
              "internalType": "address",
              "name": "_projectAddress",
              "type": "address"
            },
            {
              "internalType": "address",
              "name": "_requestAddress",
              "type": "address"
            },
            {
              "internalType": "address",
              "name": "_signerAddress",
              "type": "address"
            },
            {
              "internalType": "uint256",
              "name": "_timestamp",
              "type": "uint256"
            },
            {
              "internalType": "string",
              "name": "_signature",
              "type": "string"
            }
          ],
          "internalType": "struct SharedChain.Request[]",
          "name": "",
          "type": "tuple[]"
        }
      ],
      "stateMutability": "view",
      "type": "function",
      "constant": true
    },
    {
      "inputs": [
        {
          "internalType": "address",
          "name": "_projectAddress",
          "type": "address"
        },
        {
          "internalType": "address",
          "name": "_requestAddress",
          "type": "address"
        }
      ],
      "name": "getLastProjectRequest",
      "outputs": [
        {
          "components": [
            {
              "internalType": "uint256",
              "name": "_index",
              "type": "uint256"
            },
            {
              "internalType": "string",
              "name": "_title",
              "type": "string"
            },
            {
              "internalType": "string",
              "name": "_comments",
              "type": "string"
            },
            {
              "internalType": "enum SharedChain.ProjectStatus",
              "name": "_projectStatus",
              "type": "uint8"
            },
            {
              "internalType": "enum SharedChain.RequestStatus",
              "name": "_requestStatus",
              "type": "uint8"
            },
            {
              "internalType": "enum SharedChain.RequestType",
              "name": "_requestType",
              "type": "uint8"
            },
            {
              "internalType": "address",
              "name": "_projectAddress",
              "type": "address"
            },
            {
              "internalType": "address",
              "name": "_requestAddress",
              "type": "address"
            },
            {
              "internalType": "address",
              "name": "_signerAddress",
              "type": "address"
            },
            {
              "internalType": "uint256",
              "name": "_timestamp",
              "type": "uint256"
            },
            {
              "internalType": "string",
              "name": "_signature",
              "type": "string"
            }
          ],
          "internalType": "struct SharedChain.Request",
          "name": "",
          "type": "tuple"
        }
      ],
      "stateMutability": "view",
      "type": "function",
      "constant": true
    }
  ],
  "bytecode": "0x608060405260006002556000600555600060085534801561001f57600080fd5b50336000806101000a81548173ffffffffffffffffffffffffffffffffffffffff021916908373ffffffffffffffffffffffffffffffffffffffff1602179055506151d88061006f6000396000f3fe608060405234801561001057600080fd5b506004361061014d5760003560e01c8063840e78fd116100c3578063d67b1b991161007c578063d67b1b9914610423578063e1592c0d14610441578063e2842d791461045d578063e617385f1461047b578063fb1a002a14610497578063fe360ea5146104b55761014d565b8063840e78fd14610346578063844855631461037f578063910097861461039b57806391d6e4ac146103b7578063a87430ba146103d3578063ba60ec84146104075761014d565b806348ff3c081161011557806348ff3c081461022e57806356a3eead1461025e5780636386c1c71461028e578063663c2269146102be57806374adad1d146102dc57806376c932e0146103165761014d565b8063191e1645146101525780633000d7f9146101825780633b4ec4f81461019e57806344884710146101ce57806347ee45b9146101fe575b600080fd5b61016c600480360381019061016791906138e4565b6104d3565b6040516101799190613981565b60405180910390f35b61019c600480360381019061019791906139fe565b61050b565b005b6101b860048036038101906101b391906138e4565b6107de565b6040516101c59190613981565b60405180910390f35b6101e860048036038101906101e39190613a65565b610816565b6040516101f59190613d4f565b60405180910390f35b61021860048036038101906102139190613d71565b610c9d565b6040516102259190613ea1565b60405180910390f35b61024860048036038101906102439190613d71565b611019565b604051610255919061406d565b60405180910390f35b6102786004803603810190610273919061408f565b61151f565b6040516102859190613981565b60405180910390f35b6102a860048036038101906102a39190613d71565b61155e565b6040516102b5919061417b565b60405180910390f35b6102c6611666565b6040516102d391906141a5565b60405180910390f35b6102f660048036038101906102f19190613d71565b61166c565b60405161030d9b9a99989796959493929190614237565b60405180910390f35b610330600480360381019061032b919061408f565b6118e5565b60405161033d9190613981565b60405180910390f35b610360600480360381019061035b9190613d71565b611924565b6040516103769a99989796959493929190614306565b60405180910390f35b610399600480360381019061039491906143b7565b611b8a565b005b6103b560048036038101906103b09190614486565b611f36565b005b6103d160048036038101906103cc91906144c6565b612117565b005b6103ed60048036038101906103e89190613d71565b6124cb565b6040516103fe9594939291906145a9565b60405180910390f35b610421600480360381019061041c91906144c6565b61252e565b005b61042b612862565b60405161043891906141a5565b60405180910390f35b61045b600480360381019061045691906145fc565b612868565b005b6104656129bf565b604051610472919061479e565b60405180910390f35b610495600480360381019061049091906144c6565b612ba4565b005b61049f61301f565b6040516104ac919061497f565b60405180910390f35b6104bd6134d3565b6040516104ca91906141a5565b60405180910390f35b60008233836040516020016104ea93929190614a46565b6040516020818303038152906040528051906020012060001c905092915050565b3373ffffffffffffffffffffffffffffffffffffffff1660008054906101000a900473ffffffffffffffffffffffffffffffffffffffff1673ffffffffffffffffffffffffffffffffffffffff1614610599576040517f08c379a000000000000000000000000000000000000000000000000000000000815260040161059090614acb565b60405180910390fd5b6040518060a001604052808581526020018481526020018360038111156105c3576105c2613b3c565b5b60038111156105d5576105d4613b3c565b5b81526020018273ffffffffffffffffffffffffffffffffffffffff16815260200142815250600160008373ffffffffffffffffffffffffffffffffffffffff1673ffffffffffffffffffffffffffffffffffffffff168152602001908152602001600020600082015181600001556020820151816001015560408201518160020160006101000a81548160ff0219169083600381111561067857610677613b3c565b5b021790555060608201518160020160016101000a81548173ffffffffffffffffffffffffffffffffffffffff021916908373ffffffffffffffffffffffffffffffffffffffff160217905550608082015181600301559050508073ffffffffffffffffffffffffffffffffffffffff167ff751778eb32087df58f173035147c2eac9aac89fdc2f83b1993a198606f56db1600160008473ffffffffffffffffffffffffffffffffffffffff1673ffffffffffffffffffffffffffffffffffffffff1681526020019081526020016000206040516107559190614c48565b60405180910390a26003819080600181540180825580915050600190039060005260206000200160009091909190916101000a81548173ffffffffffffffffffffffffffffffffffffffff021916908373ffffffffffffffffffffffffffffffffffffffff160217905550600260008154809291906107d390614c92565b919050555050505050565b60008233836040516020016107f593929190614a46565b6040516020818303038152906040528051906020012060001c905092915050565b61081e6134d9565b6108266134d9565b60006008541115610c93578373ffffffffffffffffffffffffffffffffffffffff16600760008573ffffffffffffffffffffffffffffffffffffffff1673ffffffffffffffffffffffffffffffffffffffff16815260200190815260200160002060030160039054906101000a900473ffffffffffffffffffffffffffffffffffffffff1673ffffffffffffffffffffffffffffffffffffffff161415610c9257600760008473ffffffffffffffffffffffffffffffffffffffff1673ffffffffffffffffffffffffffffffffffffffff168152602001908152602001600020604051806101600160405290816000820154815260200160018201805461092c90614d0a565b80601f016020809104026020016040519081016040528092919081815260200182805461095890614d0a565b80156109a55780601f1061097a576101008083540402835291602001916109a5565b820191906000526020600020905b81548152906001019060200180831161098857829003601f168201915b505050505081526020016002820180546109be90614d0a565b80601f01602080910402602001604051908101604052809291908181526020018280546109ea90614d0a565b8015610a375780601f10610a0c57610100808354040283529160200191610a37565b820191906000526020600020905b815481529060010190602001808311610a1a57829003601f168201915b505050505081526020016003820160009054906101000a900460ff166004811115610a6557610a64613b3c565b5b6004811115610a7757610a76613b3c565b5b81526020016003820160019054906101000a900460ff166002811115610aa057610a9f613b3c565b5b6002811115610ab257610ab1613b3c565b5b81526020016003820160029054906101000a900460ff166001811115610adb57610ada613b3c565b5b6001811115610aed57610aec613b3c565b5b81526020016003820160039054906101000a900473ffffffffffffffffffffffffffffffffffffffff1673ffffffffffffffffffffffffffffffffffffffff1673ffffffffffffffffffffffffffffffffffffffff1681526020016004820160009054906101000a900473ffffffffffffffffffffffffffffffffffffffff1673ffffffffffffffffffffffffffffffffffffffff1673ffffffffffffffffffffffffffffffffffffffff1681526020016005820160009054906101000a900473ffffffffffffffffffffffffffffffffffffffff1673ffffffffffffffffffffffffffffffffffffffff1673ffffffffffffffffffffffffffffffffffffffff16815260200160068201548152602001600782018054610c0d90614d0a565b80601f0160208091040260200160405190810160405280929190818152602001828054610c3990614d0a565b8015610c865780601f10610c5b57610100808354040283529160200191610c86565b820191906000526020600020905b815481529060010190602001808311610c6957829003601f168201915b50505050508152505090505b5b8091505092915050565b610ca56135ab565b600460008373ffffffffffffffffffffffffffffffffffffffff1673ffffffffffffffffffffffffffffffffffffffff1681526020019081526020016000206040518061014001604052908160008201548152602001600182018054610d0a90614d0a565b80601f0160208091040260200160405190810160405280929190818152602001828054610d3690614d0a565b8015610d835780601f10610d5857610100808354040283529160200191610d83565b820191906000526020600020905b815481529060010190602001808311610d6657829003601f168201915b505050505081526020016002820160009054906101000a900460ff166004811115610db157610db0613b3c565b5b6004811115610dc357610dc2613b3c565b5b8152602001600382018054610dd790614d0a565b80601f0160208091040260200160405190810160405280929190818152602001828054610e0390614d0a565b8015610e505780601f10610e2557610100808354040283529160200191610e50565b820191906000526020600020905b815481529060010190602001808311610e3357829003601f168201915b505050505081526020016004820160009054906101000a900473ffffffffffffffffffffffffffffffffffffffff1673ffffffffffffffffffffffffffffffffffffffff1673ffffffffffffffffffffffffffffffffffffffff1681526020016005820160009054906101000a900473ffffffffffffffffffffffffffffffffffffffff1673ffffffffffffffffffffffffffffffffffffffff1673ffffffffffffffffffffffffffffffffffffffff1681526020016006820160009054906101000a900473ffffffffffffffffffffffffffffffffffffffff1673ffffffffffffffffffffffffffffffffffffffff1673ffffffffffffffffffffffffffffffffffffffff1681526020016006820160149054906101000a900460ff1615151515815260200160078201548152602001600882018054610f9090614d0a565b80601f0160208091040260200160405190810160405280929190818152602001828054610fbc90614d0a565b80156110095780601f10610fde57610100808354040283529160200191611009565b820191906000526020600020905b815481529060010190602001808311610fec57829003601f168201915b5050505050815250509050919050565b60608060006005541415611030578091505061151a565b60055467ffffffffffffffff81111561104c5761104b613783565b5b60405190808252806020026020018201604052801561108557816020015b6110726135ab565b81526020019060019003908161106a5790505b50905060005b600554811015611514576000600682815481106110ab576110aa614d3c565b5b9060005260206000200160009054906101000a900473ffffffffffffffffffffffffffffffffffffffff169050600460008273ffffffffffffffffffffffffffffffffffffffff1673ffffffffffffffffffffffffffffffffffffffff16815260200190815260200160002060050160009054906101000a900473ffffffffffffffffffffffffffffffffffffffff1673ffffffffffffffffffffffffffffffffffffffff168573ffffffffffffffffffffffffffffffffffffffff161415611500576000600460008373ffffffffffffffffffffffffffffffffffffffff1673ffffffffffffffffffffffffffffffffffffffff16815260200190815260200160002090508060405180610140016040529081600082015481526020016001820180546111d890614d0a565b80601f016020809104026020016040519081016040528092919081815260200182805461120490614d0a565b80156112515780601f1061122657610100808354040283529160200191611251565b820191906000526020600020905b81548152906001019060200180831161123457829003601f168201915b505050505081526020016002820160009054906101000a900460ff16600481111561127f5761127e613b3c565b5b600481111561129157611290613b3c565b5b81526020016003820180546112a590614d0a565b80601f01602080910402602001604051908101604052809291908181526020018280546112d190614d0a565b801561131e5780601f106112f35761010080835404028352916020019161131e565b820191906000526020600020905b81548152906001019060200180831161130157829003601f168201915b505050505081526020016004820160009054906101000a900473ffffffffffffffffffffffffffffffffffffffff1673ffffffffffffffffffffffffffffffffffffffff1673ffffffffffffffffffffffffffffffffffffffff1681526020016005820160009054906101000a900473ffffffffffffffffffffffffffffffffffffffff1673ffffffffffffffffffffffffffffffffffffffff1673ffffffffffffffffffffffffffffffffffffffff1681526020016006820160009054906101000a900473ffffffffffffffffffffffffffffffffffffffff1673ffffffffffffffffffffffffffffffffffffffff1673ffffffffffffffffffffffffffffffffffffffff1681526020016006820160149054906101000a900460ff161515151581526020016007820154815260200160088201805461145e90614d0a565b80601f016020809104026020016040519081016040528092919081815260200182805461148a90614d0a565b80156114d75780601f106114ac576101008083540402835291602001916114d7565b820191906000526020600020905b8154815290600101906020018083116114ba57829003601f168201915b5050505050815250508484815181106114f3576114f2614d3c565b5b6020026020010181905250505b50808061150c90614c92565b91505061108b565b50809150505b919050565b6009818154811061152f57600080fd5b906000526020600020016000915054906101000a900473ffffffffffffffffffffffffffffffffffffffff1681565b611566613654565b600160008373ffffffffffffffffffffffffffffffffffffffff1673ffffffffffffffffffffffffffffffffffffffff1681526020019081526020016000206040518060a001604052908160008201548152602001600182015481526020016002820160009054906101000a900460ff1660038111156115e9576115e8613b3c565b5b60038111156115fb576115fa613b3c565b5b81526020016002820160019054906101000a900473ffffffffffffffffffffffffffffffffffffffff1673ffffffffffffffffffffffffffffffffffffffff1673ffffffffffffffffffffffffffffffffffffffff1681526020016003820154815250509050919050565b60085481565b600760205280600052604060002060009150905080600001549080600101805461169590614d0a565b80601f01602080910402602001604051908101604052809291908181526020018280546116c190614d0a565b801561170e5780601f106116e35761010080835404028352916020019161170e565b820191906000526020600020905b8154815290600101906020018083116116f157829003601f168201915b50505050509080600201805461172390614d0a565b80601f016020809104026020016040519081016040528092919081815260200182805461174f90614d0a565b801561179c5780601f106117715761010080835404028352916020019161179c565b820191906000526020600020905b81548152906001019060200180831161177f57829003601f168201915b5050505050908060030160009054906101000a900460ff16908060030160019054906101000a900460ff16908060030160029054906101000a900460ff16908060030160039054906101000a900473ffffffffffffffffffffffffffffffffffffffff16908060040160009054906101000a900473ffffffffffffffffffffffffffffffffffffffff16908060050160009054906101000a900473ffffffffffffffffffffffffffffffffffffffff169080600601549080600701805461186290614d0a565b80601f016020809104026020016040519081016040528092919081815260200182805461188e90614d0a565b80156118db5780601f106118b0576101008083540402835291602001916118db565b820191906000526020600020905b8154815290600101906020018083116118be57829003601f168201915b505050505090508b565b600681815481106118f557600080fd5b906000526020600020016000915054906101000a900473ffffffffffffffffffffffffffffffffffffffff1681565b600460205280600052604060002060009150905080600001549080600101805461194d90614d0a565b80601f016020809104026020016040519081016040528092919081815260200182805461197990614d0a565b80156119c65780601f1061199b576101008083540402835291602001916119c6565b820191906000526020600020905b8154815290600101906020018083116119a957829003601f168201915b5050505050908060020160009054906101000a900460ff16908060030180546119ee90614d0a565b80601f0160208091040260200160405190810160405280929190818152602001828054611a1a90614d0a565b8015611a675780601f10611a3c57610100808354040283529160200191611a67565b820191906000526020600020905b815481529060010190602001808311611a4a57829003601f168201915b5050505050908060040160009054906101000a900473ffffffffffffffffffffffffffffffffffffffff16908060050160009054906101000a900473ffffffffffffffffffffffffffffffffffffffff16908060060160009054906101000a900473ffffffffffffffffffffffffffffffffffffffff16908060060160149054906101000a900460ff1690806007015490806008018054611b0790614d0a565b80601f0160208091040260200160405190810160405280929190818152602001828054611b3390614d0a565b8015611b805780601f10611b5557610100808354040283529160200191611b80565b820191906000526020600020905b815481529060010190602001808311611b6357829003601f168201915b505050505090508a565b6040518061014001604052806005548152602001858152602001846004811115611bb757611bb6613b3c565b5b6004811115611bc957611bc8613b3c565b5b81526020018381526020018673ffffffffffffffffffffffffffffffffffffffff1681526020013373ffffffffffffffffffffffffffffffffffffffff168152602001600073ffffffffffffffffffffffffffffffffffffffff16815260200160001515815260200142815260200182815250600460008773ffffffffffffffffffffffffffffffffffffffff1673ffffffffffffffffffffffffffffffffffffffff168152602001908152602001600020600082015181600001556020820151816001019080519060200190611ca19291906136b1565b5060408201518160020160006101000a81548160ff02191690836004811115611ccd57611ccc613b3c565b5b02179055506060820151816003019080519060200190611cee9291906136b1565b5060808201518160040160006101000a81548173ffffffffffffffffffffffffffffffffffffffff021916908373ffffffffffffffffffffffffffffffffffffffff16021790555060a08201518160050160006101000a81548173ffffffffffffffffffffffffffffffffffffffff021916908373ffffffffffffffffffffffffffffffffffffffff16021790555060c08201518160060160006101000a81548173ffffffffffffffffffffffffffffffffffffffff021916908373ffffffffffffffffffffffffffffffffffffffff16021790555060e08201518160060160146101000a81548160ff0219169083151502179055506101008201518160070155610120820151816008019080519060200190611e0c9291906136b1565b50905050600073ffffffffffffffffffffffffffffffffffffffff168573ffffffffffffffffffffffffffffffffffffffff167ffb530d24abc3d497c3f0525ef204a66ac64d923ec30b40d17bc3a5f572cf4b8e600460008973ffffffffffffffffffffffffffffffffffffffff1673ffffffffffffffffffffffffffffffffffffffff168152602001908152602001600020604051611eac9190614fa0565b60405180910390a36006859080600181540180825580915050600190039060005260206000200160009091909190916101000a81548173ffffffffffffffffffffffffffffffffffffffff021916908373ffffffffffffffffffffffffffffffffffffffff16021790555060056000815480929190611f2a90614c92565b91905055505050505050565b3373ffffffffffffffffffffffffffffffffffffffff1660008054906101000a900473ffffffffffffffffffffffffffffffffffffffff1673ffffffffffffffffffffffffffffffffffffffff1614611fc4576040517f08c379a0000000000000000000000000000000000000000000000000000000008152600401611fbb90614acb565b60405180910390fd5b816003811115611fd757611fd6613b3c565b5b600160008373ffffffffffffffffffffffffffffffffffffffff1673ffffffffffffffffffffffffffffffffffffffff16815260200190815260200160002060020160006101000a81548160ff0219169083600381111561203b5761203a613b3c565b5b021790555042600160008373ffffffffffffffffffffffffffffffffffffffff1673ffffffffffffffffffffffffffffffffffffffff168152602001908152602001600020600301819055508073ffffffffffffffffffffffffffffffffffffffff167ff751778eb32087df58f173035147c2eac9aac89fdc2f83b1993a198606f56db1600160008473ffffffffffffffffffffffffffffffffffffffff1673ffffffffffffffffffffffffffffffffffffffff16815260200190815260200160002060405161210b9190614c48565b60405180910390a25050565b85600760008473ffffffffffffffffffffffffffffffffffffffff1673ffffffffffffffffffffffffffffffffffffffff168152602001908152602001600020600201908051906020019061216d9291906136b1565b5084600281111561218157612180613b3c565b5b600760008473ffffffffffffffffffffffffffffffffffffffff1673ffffffffffffffffffffffffffffffffffffffff16815260200190815260200160002060030160016101000a81548160ff021916908360028111156121e5576121e4613b3c565b5b021790555080600760008473ffffffffffffffffffffffffffffffffffffffff1673ffffffffffffffffffffffffffffffffffffffff16815260200190815260200160002060070190805190602001906122409291906136b1565b508273ffffffffffffffffffffffffffffffffffffffff168273ffffffffffffffffffffffffffffffffffffffff167fa25a6f1ff57a050a48ae4b3a19f271fddad950cac8d165d6a2eca5d54cc8070f600760008673ffffffffffffffffffffffffffffffffffffffff1673ffffffffffffffffffffffffffffffffffffffff1681526020019081526020016000206040516122dc9190615180565b60405180910390a38460028111156122f7576122f6613b3c565b5b600281111561230957612308613b3c565b5b60028081111561231c5761231b613b3c565b5b14156124c35783600481111561233557612334613b3c565b5b600460008573ffffffffffffffffffffffffffffffffffffffff1673ffffffffffffffffffffffffffffffffffffffff16815260200190815260200160002060020160006101000a81548160ff0219169083600481111561239957612398613b3c565b5b021790555033600460008573ffffffffffffffffffffffffffffffffffffffff1673ffffffffffffffffffffffffffffffffffffffff16815260200190815260200160002060060160006101000a81548173ffffffffffffffffffffffffffffffffffffffff021916908373ffffffffffffffffffffffffffffffffffffffff1602179055503373ffffffffffffffffffffffffffffffffffffffff168373ffffffffffffffffffffffffffffffffffffffff167ffb530d24abc3d497c3f0525ef204a66ac64d923ec30b40d17bc3a5f572cf4b8e600460008773ffffffffffffffffffffffffffffffffffffffff1673ffffffffffffffffffffffffffffffffffffffff1681526020019081526020016000206040516124ba9190614fa0565b60405180910390a35b505050505050565b60016020528060005260406000206000915090508060000154908060010154908060020160009054906101000a900460ff16908060020160019054906101000a900473ffffffffffffffffffffffffffffffffffffffff16908060030154905085565b85600760008473ffffffffffffffffffffffffffffffffffffffff1673ffffffffffffffffffffffffffffffffffffffff16815260200190815260200160002060020190805190602001906125849291906136b1565b5084600281111561259857612597613b3c565b5b600760008473ffffffffffffffffffffffffffffffffffffffff1673ffffffffffffffffffffffffffffffffffffffff16815260200190815260200160002060030160016101000a81548160ff021916908360028111156125fc576125fb613b3c565b5b021790555080600760008473ffffffffffffffffffffffffffffffffffffffff1673ffffffffffffffffffffffffffffffffffffffff16815260200190815260200160002060070190805190602001906126579291906136b1565b508273ffffffffffffffffffffffffffffffffffffffff168273ffffffffffffffffffffffffffffffffffffffff167fa25a6f1ff57a050a48ae4b3a19f271fddad950cac8d165d6a2eca5d54cc8070f600760008673ffffffffffffffffffffffffffffffffffffffff1673ffffffffffffffffffffffffffffffffffffffff1681526020019081526020016000206040516126f39190615180565b60405180910390a384600281111561270e5761270d613b3c565b5b60028111156127205761271f613b3c565b5b60028081111561273357612732613b3c565b5b141561285a5783600481111561274c5761274b613b3c565b5b600460008573ffffffffffffffffffffffffffffffffffffffff1673ffffffffffffffffffffffffffffffffffffffff16815260200190815260200160002060020160006101000a81548160ff021916908360048111156127b0576127af613b3c565b5b0217905550600073ffffffffffffffffffffffffffffffffffffffff168373ffffffffffffffffffffffffffffffffffffffff167ffb530d24abc3d497c3f0525ef204a66ac64d923ec30b40d17bc3a5f572cf4b8e600460008773ffffffffffffffffffffffffffffffffffffffff1673ffffffffffffffffffffffffffffffffffffffff1681526020019081526020016000206040516128519190614fa0565b60405180910390a35b505050505050565b60025481565b81600460008573ffffffffffffffffffffffffffffffffffffffff1673ffffffffffffffffffffffffffffffffffffffff16815260200190815260200160002060030190805190602001906128be9291906136b1565b5080600460008573ffffffffffffffffffffffffffffffffffffffff1673ffffffffffffffffffffffffffffffffffffffff16815260200190815260200160002060080190805190602001906129159291906136b1565b50600073ffffffffffffffffffffffffffffffffffffffff168373ffffffffffffffffffffffffffffffffffffffff167ffb530d24abc3d497c3f0525ef204a66ac64d923ec30b40d17bc3a5f572cf4b8e600460008773ffffffffffffffffffffffffffffffffffffffff1673ffffffffffffffffffffffffffffffffffffffff1681526020019081526020016000206040516129b29190614fa0565b60405180910390a3505050565b6060600060025467ffffffffffffffff8111156129df576129de613783565b5b604051908082528060200260200182016040528015612a1857816020015b612a05613654565b8152602001906001900390816129fd5790505b50905060005b600254811015612b9c57600060038281548110612a3e57612a3d614d3c565b5b9060005260206000200160009054906101000a900473ffffffffffffffffffffffffffffffffffffffff1690506000600160008373ffffffffffffffffffffffffffffffffffffffff1673ffffffffffffffffffffffffffffffffffffffff1681526020019081526020016000209050806040518060a001604052908160008201548152602001600182015481526020016002820160009054906101000a900460ff166003811115612af357612af2613b3c565b5b6003811115612b0557612b04613b3c565b5b81526020016002820160019054906101000a900473ffffffffffffffffffffffffffffffffffffffff1673ffffffffffffffffffffffffffffffffffffffff1673ffffffffffffffffffffffffffffffffffffffff168152602001600382015481525050848481518110612b7c57612b7b614d3c565b5b602002602001018190525050508080612b9490614c92565b915050612a1e565b508091505090565b600060026004811115612bba57612bb9613b3c565b5b866004811115612bcd57612bcc613b3c565b5b6004811115612bdf57612bde613b3c565b5b1415612bea57600190505b6040518061016001604052806008548152602001888152602001604051806020016040528060008152508152602001876004811115612c2c57612c2b613b3c565b5b6004811115612c3e57612c3d613b3c565b5b8152602001866002811115612c5657612c55613b3c565b5b6002811115612c6857612c67613b3c565b5b8152602001826001811115612c8057612c7f613b3c565b5b81526020018573ffffffffffffffffffffffffffffffffffffffff1681526020018473ffffffffffffffffffffffffffffffffffffffff1681526020013373ffffffffffffffffffffffffffffffffffffffff16815260200142815260200183815250600760008573ffffffffffffffffffffffffffffffffffffffff1673ffffffffffffffffffffffffffffffffffffffff168152602001908152602001600020600082015181600001556020820151816001019080519060200190612d489291906136b1565b506040820151816002019080519060200190612d659291906136b1565b5060608201518160030160006101000a81548160ff02191690836004811115612d9157612d90613b3c565b5b021790555060808201518160030160016101000a81548160ff02191690836002811115612dc157612dc0613b3c565b5b021790555060a08201518160030160026101000a81548160ff02191690836001811115612df157612df0613b3c565b5b021790555060c08201518160030160036101000a81548173ffffffffffffffffffffffffffffffffffffffff021916908373ffffffffffffffffffffffffffffffffffffffff16021790555060e08201518160040160006101000a81548173ffffffffffffffffffffffffffffffffffffffff021916908373ffffffffffffffffffffffffffffffffffffffff1602179055506101008201518160050160006101000a81548173ffffffffffffffffffffffffffffffffffffffff021916908373ffffffffffffffffffffffffffffffffffffffff1602179055506101208201518160060155610140820151816007019080519060200190612ef49291906136b1565b509050508373ffffffffffffffffffffffffffffffffffffffff168373ffffffffffffffffffffffffffffffffffffffff167fa25a6f1ff57a050a48ae4b3a19f271fddad950cac8d165d6a2eca5d54cc8070f600760008773ffffffffffffffffffffffffffffffffffffffff1673ffffffffffffffffffffffffffffffffffffffff168152602001908152602001600020604051612f939190615180565b60405180910390a36009839080600181540180825580915050600190039060005260206000200160009091909190916101000a81548173ffffffffffffffffffffffffffffffffffffffff021916908373ffffffffffffffffffffffffffffffffffffffff1602179055506008600081548092919061301190614c92565b919050555050505050505050565b6060600060085467ffffffffffffffff81111561303f5761303e613783565b5b60405190808252806020026020018201604052801561307857816020015b6130656134d9565b81526020019060019003908161305d5790505b50905060005b6008548110156134cb5760006009828154811061309e5761309d614d3c565b5b9060005260206000200160009054906101000a900473ffffffffffffffffffffffffffffffffffffffff1690506000600760008373ffffffffffffffffffffffffffffffffffffffff1673ffffffffffffffffffffffffffffffffffffffff168152602001908152602001600020905080604051806101600160405290816000820154815260200160018201805461313590614d0a565b80601f016020809104026020016040519081016040528092919081815260200182805461316190614d0a565b80156131ae5780601f10613183576101008083540402835291602001916131ae565b820191906000526020600020905b81548152906001019060200180831161319157829003601f168201915b505050505081526020016002820180546131c790614d0a565b80601f01602080910402602001604051908101604052809291908181526020018280546131f390614d0a565b80156132405780601f1061321557610100808354040283529160200191613240565b820191906000526020600020905b81548152906001019060200180831161322357829003601f168201915b505050505081526020016003820160009054906101000a900460ff16600481111561326e5761326d613b3c565b5b60048111156132805761327f613b3c565b5b81526020016003820160019054906101000a900460ff1660028111156132a9576132a8613b3c565b5b60028111156132bb576132ba613b3c565b5b81526020016003820160029054906101000a900460ff1660018111156132e4576132e3613b3c565b5b60018111156132f6576132f5613b3c565b5b81526020016003820160039054906101000a900473ffffffffffffffffffffffffffffffffffffffff1673ffffffffffffffffffffffffffffffffffffffff1673ffffffffffffffffffffffffffffffffffffffff1681526020016004820160009054906101000a900473ffffffffffffffffffffffffffffffffffffffff1673ffffffffffffffffffffffffffffffffffffffff1673ffffffffffffffffffffffffffffffffffffffff1681526020016005820160009054906101000a900473ffffffffffffffffffffffffffffffffffffffff1673ffffffffffffffffffffffffffffffffffffffff1673ffffffffffffffffffffffffffffffffffffffff1681526020016006820154815260200160078201805461341690614d0a565b80601f016020809104026020016040519081016040528092919081815260200182805461344290614d0a565b801561348f5780601f106134645761010080835404028352916020019161348f565b820191906000526020600020905b81548152906001019060200180831161347257829003601f168201915b5050505050815250508484815181106134ab576134aa614d3c565b5b6020026020010181905250505080806134c390614c92565b91505061307e565b508091505090565b60055481565b6040518061016001604052806000815260200160608152602001606081526020016000600481111561350e5761350d613b3c565b5b81526020016000600281111561352757613526613b3c565b5b8152602001600060018111156135405761353f613b3c565b5b8152602001600073ffffffffffffffffffffffffffffffffffffffff168152602001600073ffffffffffffffffffffffffffffffffffffffff168152602001600073ffffffffffffffffffffffffffffffffffffffff16815260200160008152602001606081525090565b6040518061014001604052806000815260200160608152602001600060048111156135d9576135d8613b3c565b5b815260200160608152602001600073ffffffffffffffffffffffffffffffffffffffff168152602001600073ffffffffffffffffffffffffffffffffffffffff168152602001600073ffffffffffffffffffffffffffffffffffffffff16815260200160001515815260200160008152602001606081525090565b6040518060a0016040528060008019168152602001600080191681526020016000600381111561368757613686613b3c565b5b8152602001600073ffffffffffffffffffffffffffffffffffffffff168152602001600081525090565b8280546136bd90614d0a565b90600052602060002090601f0160209004810192826136df5760008555613726565b82601f106136f857805160ff1916838001178555613726565b82800160010185558215613726579182015b8281111561372557825182559160200191906001019061370a565b5b5090506137339190613737565b5090565b5b80821115613750576000816000905550600101613738565b5090565b6000604051905090565b600080fd5b600080fd5b600080fd5b600080fd5b6000601f19601f8301169050919050565b7f4e487b7100000000000000000000000000000000000000000000000000000000600052604160045260246000fd5b6137bb82613772565b810181811067ffffffffffffffff821117156137da576137d9613783565b5b80604052505050565b60006137ed613754565b90506137f982826137b2565b919050565b600067ffffffffffffffff82111561381957613818613783565b5b61382282613772565b9050602081019050919050565b82818337600083830152505050565b600061385161384c846137fe565b6137e3565b90508281526020810184848401111561386d5761386c61376d565b5b61387884828561382f565b509392505050565b600082601f83011261389557613894613768565b5b81356138a584826020860161383e565b91505092915050565b6000819050919050565b6138c1816138ae565b81146138cc57600080fd5b50565b6000813590506138de816138b8565b92915050565b600080604083850312156138fb576138fa61375e565b5b600083013567ffffffffffffffff81111561391957613918613763565b5b61392585828601613880565b9250506020613936858286016138cf565b9150509250929050565b600073ffffffffffffffffffffffffffffffffffffffff82169050919050565b600061396b82613940565b9050919050565b61397b81613960565b82525050565b60006020820190506139966000830184613972565b92915050565b6000819050919050565b6139af8161399c565b81146139ba57600080fd5b50565b6000813590506139cc816139a6565b92915050565b6139db81613960565b81146139e657600080fd5b50565b6000813590506139f8816139d2565b92915050565b60008060008060808587031215613a1857613a1761375e565b5b6000613a26878288016139bd565b9450506020613a37878288016139bd565b9350506040613a48878288016138cf565b9250506060613a59878288016139e9565b91505092959194509250565b60008060408385031215613a7c57613a7b61375e565b5b6000613a8a858286016139e9565b9250506020613a9b858286016139e9565b9150509250929050565b613aae816138ae565b82525050565b600081519050919050565b600082825260208201905092915050565b60005b83811015613aee578082015181840152602081019050613ad3565b83811115613afd576000848401525b50505050565b6000613b0e82613ab4565b613b188185613abf565b9350613b28818560208601613ad0565b613b3181613772565b840191505092915050565b7f4e487b7100000000000000000000000000000000000000000000000000000000600052602160045260246000fd5b60058110613b7c57613b7b613b3c565b5b50565b6000819050613b8d82613b6b565b919050565b6000613b9d82613b7f565b9050919050565b613bad81613b92565b82525050565b60038110613bc457613bc3613b3c565b5b50565b6000819050613bd582613bb3565b919050565b6000613be582613bc7565b9050919050565b613bf581613bda565b82525050565b60028110613c0c57613c0b613b3c565b5b50565b6000819050613c1d82613bfb565b919050565b6000613c2d82613c0f565b9050919050565b613c3d81613c22565b82525050565b613c4c81613960565b82525050565b600061016083016000830151613c6b6000860182613aa5565b5060208301518482036020860152613c838282613b03565b91505060408301518482036040860152613c9d8282613b03565b9150506060830151613cb26060860182613ba4565b506080830151613cc56080860182613bec565b5060a0830151613cd860a0860182613c34565b5060c0830151613ceb60c0860182613c43565b5060e0830151613cfe60e0860182613c43565b50610100830151613d13610100860182613c43565b50610120830151613d28610120860182613aa5565b50610140830151848203610140860152613d428282613b03565b9150508091505092915050565b60006020820190508181036000830152613d698184613c52565b905092915050565b600060208284031215613d8757613d8661375e565b5b6000613d95848285016139e9565b91505092915050565b60008115159050919050565b613db381613d9e565b82525050565b600061014083016000830151613dd26000860182613aa5565b5060208301518482036020860152613dea8282613b03565b9150506040830151613dff6040860182613ba4565b5060608301518482036060860152613e178282613b03565b9150506080830151613e2c6080860182613c43565b5060a0830151613e3f60a0860182613c43565b5060c0830151613e5260c0860182613c43565b5060e0830151613e6560e0860182613daa565b50610100830151613e7a610100860182613aa5565b50610120830151848203610120860152613e948282613b03565b9150508091505092915050565b60006020820190508181036000830152613ebb8184613db9565b905092915050565b600081519050919050565b600082825260208201905092915050565b6000819050602082019050919050565b600061014083016000830151613f086000860182613aa5565b5060208301518482036020860152613f208282613b03565b9150506040830151613f356040860182613ba4565b5060608301518482036060860152613f4d8282613b03565b9150506080830151613f626080860182613c43565b5060a0830151613f7560a0860182613c43565b5060c0830151613f8860c0860182613c43565b5060e0830151613f9b60e0860182613daa565b50610100830151613fb0610100860182613aa5565b50610120830151848203610120860152613fca8282613b03565b9150508091505092915050565b6000613fe38383613eef565b905092915050565b6000602082019050919050565b600061400382613ec3565b61400d8185613ece565b93508360208202850161401f85613edf565b8060005b8581101561405b578484038952815161403c8582613fd7565b945061404783613feb565b925060208a01995050600181019050614023565b50829750879550505050505092915050565b600060208201905081810360008301526140878184613ff8565b905092915050565b6000602082840312156140a5576140a461375e565b5b60006140b3848285016138cf565b91505092915050565b6140c58161399c565b82525050565b600481106140dc576140db613b3c565b5b50565b60008190506140ed826140cb565b919050565b60006140fd826140df565b9050919050565b61410d816140f2565b82525050565b60a08201600082015161412960008501826140bc565b50602082015161413c60208501826140bc565b50604082015161414f6040850182614104565b5060608201516141626060850182613c43565b5060808201516141756080850182613aa5565b50505050565b600060a0820190506141906000830184614113565b92915050565b61419f816138ae565b82525050565b60006020820190506141ba6000830184614196565b92915050565b600082825260208201905092915050565b60006141dc82613ab4565b6141e681856141c0565b93506141f6818560208601613ad0565b6141ff81613772565b840191505092915050565b61421381613b92565b82525050565b61422281613bda565b82525050565b61423181613c22565b82525050565b60006101608201905061424d600083018e614196565b818103602083015261425f818d6141d1565b90508181036040830152614273818c6141d1565b9050614282606083018b61420a565b61428f608083018a614219565b61429c60a0830189614228565b6142a960c0830188613972565b6142b660e0830187613972565b6142c4610100830186613972565b6142d2610120830185614196565b8181036101408301526142e581846141d1565b90509c9b505050505050505050505050565b61430081613d9e565b82525050565b60006101408201905061431c600083018d614196565b818103602083015261432e818c6141d1565b905061433d604083018b61420a565b818103606083015261434f818a6141d1565b905061435e6080830189613972565b61436b60a0830188613972565b61437860c0830187613972565b61438560e08301866142f7565b614393610100830185614196565b8181036101208301526143a681846141d1565b90509b9a5050505050505050505050565b600080600080600060a086880312156143d3576143d261375e565b5b60006143e1888289016139e9565b955050602086013567ffffffffffffffff81111561440257614401613763565b5b61440e88828901613880565b945050604061441f888289016138cf565b935050606086013567ffffffffffffffff8111156144405761443f613763565b5b61444c88828901613880565b925050608086013567ffffffffffffffff81111561446d5761446c613763565b5b61447988828901613880565b9150509295509295909350565b6000806040838503121561449d5761449c61375e565b5b60006144ab858286016138cf565b92505060206144bc858286016139e9565b9150509250929050565b60008060008060008060c087890312156144e3576144e261375e565b5b600087013567ffffffffffffffff81111561450157614500613763565b5b61450d89828a01613880565b965050602061451e89828a016138cf565b955050604061452f89828a016138cf565b945050606061454089828a016139e9565b935050608061455189828a016139e9565b92505060a087013567ffffffffffffffff81111561457257614571613763565b5b61457e89828a01613880565b9150509295509295509295565b6145948161399c565b82525050565b6145a3816140f2565b82525050565b600060a0820190506145be600083018861458b565b6145cb602083018761458b565b6145d8604083018661459a565b6145e56060830185613972565b6145f26080830184614196565b9695505050505050565b6000806000606084860312156146155761461461375e565b5b6000614623868287016139e9565b935050602084013567ffffffffffffffff81111561464457614643613763565b5b61465086828701613880565b925050604084013567ffffffffffffffff81111561467157614670613763565b5b61467d86828701613880565b9150509250925092565b600081519050919050565b600082825260208201905092915050565b6000819050602082019050919050565b60a0820160008201516146c960008501826140bc565b5060208201516146dc60208501826140bc565b5060408201516146ef6040850182614104565b5060608201516147026060850182613c43565b5060808201516147156080850182613aa5565b50505050565b600061472783836146b3565b60a08301905092915050565b6000602082019050919050565b600061474b82614687565b6147558185614692565b9350614760836146a3565b8060005b83811015614791578151614778888261471b565b975061478383614733565b925050600181019050614764565b5085935050505092915050565b600060208201905081810360008301526147b88184614740565b905092915050565b600081519050919050565b600082825260208201905092915050565b6000819050602082019050919050565b6000610160830160008301516148056000860182613aa5565b506020830151848203602086015261481d8282613b03565b915050604083015184820360408601526148378282613b03565b915050606083015161484c6060860182613ba4565b50608083015161485f6080860182613bec565b5060a083015161487260a0860182613c34565b5060c083015161488560c0860182613c43565b5060e083015161489860e0860182613c43565b506101008301516148ad610100860182613c43565b506101208301516148c2610120860182613aa5565b506101408301518482036101408601526148dc8282613b03565b9150508091505092915050565b60006148f583836147ec565b905092915050565b6000602082019050919050565b6000614915826147c0565b61491f81856147cb565b935083602082028501614931856147dc565b8060005b8581101561496d578484038952815161494e85826148e9565b9450614959836148fd565b925060208a01995050600181019050614935565b50829750879550505050505092915050565b60006020820190508181036000830152614999818461490a565b905092915050565b600081905092915050565b60006149b782613ab4565b6149c181856149a1565b93506149d1818560208601613ad0565b80840191505092915050565b60008160601b9050919050565b60006149f5826149dd565b9050919050565b6000614a07826149ea565b9050919050565b614a1f614a1a82613960565b6149fc565b82525050565b6000819050919050565b614a40614a3b826138ae565b614a25565b82525050565b6000614a5282866149ac565b9150614a5e8285614a0e565b601482019150614a6e8284614a2f565b602082019150819050949350505050565b7f596f7520617265206e6f7420616e206f776e65722e0000000000000000000000600082015250565b6000614ab56015836141c0565b9150614ac082614a7f565b602082019050919050565b60006020820190508181036000830152614ae481614aa8565b9050919050565b60008160001c9050919050565b6000819050919050565b6000614b15614b1083614aeb565b614af8565b9050919050565b600060ff82169050919050565b6000614b3c614b3783614aeb565b614b1c565b9050919050565b60008160081c9050919050565b600073ffffffffffffffffffffffffffffffffffffffff82169050919050565b6000614b83614b7e83614b43565b614b50565b9050919050565b6000819050919050565b6000614ba7614ba283614aeb565b614b8a565b9050919050565b60a082016000808301549050614bc381614b02565b614bd060008601826140bc565b5060018301549050614be181614b02565b614bee60208601826140bc565b5060028301549050614bff81614b29565b614c0c6040860182614104565b50614c1681614b70565b614c236060860182613c43565b5060038301549050614c3481614b94565b614c416080860182613aa5565b5050505050565b600060a082019050614c5d6000830184614bae565b92915050565b7f4e487b7100000000000000000000000000000000000000000000000000000000600052601160045260246000fd5b6000614c9d826138ae565b91507fffffffffffffffffffffffffffffffffffffffffffffffffffffffffffffffff821415614cd057614ccf614c63565b5b600182019050919050565b7f4e487b7100000000000000000000000000000000000000000000000000000000600052602260045260246000fd5b60006002820490506001821680614d2257607f821691505b60208210811415614d3657614d35614cdb565b5b50919050565b7f4e487b7100000000000000000000000000000000000000000000000000000000600052603260045260246000fd5b60008190508160005260206000209050919050565b60008154614d8d81614d0a565b614d978186613abf565b94506001821660008114614db25760018114614dc457614df7565b60ff1983168652602086019350614df7565b614dcd85614d6b565b60005b83811015614def57815481890152600182019150602081019050614dd0565b808801955050505b50505092915050565b600060ff82169050919050565b6000614e20614e1b83614aeb565b614e00565b9050919050565b6000614e3a614e3583614aeb565b614b50565b9050919050565b60008160a01c9050919050565b600060ff82169050919050565b6000614e6e614e6983614e41565b614e4e565b9050919050565b600061014083016000808401549050614e8d81614b94565b614e9a6000870182613aa5565b50600184018583036020870152614eb18382614d80565b92505060028401549050614ec481614e0d565b614ed16040870182613ba4565b50600384018583036060870152614ee88382614d80565b92505060048401549050614efb81614e27565b614f086080870182613c43565b5060058401549050614f1981614e27565b614f2660a0870182613c43565b5060068401549050614f3781614e27565b614f4460c0870182613c43565b50614f4e81614e5b565b614f5b60e0870182613daa565b5060078401549050614f6c81614b94565b614f7a610100870182613aa5565b5060088401858303610120870152614f928382614d80565b925050819250505092915050565b60006020820190508181036000830152614fba8184614e75565b905092915050565b600060ff82169050919050565b6000614fe2614fdd83614b43565b614fc2565b9050919050565b60008160101c9050919050565b600060ff82169050919050565b600061501661501183614fe9565b614ff6565b9050919050565b60008160181c9050919050565b600061503d6150388361501d565b614b50565b9050919050565b60006101608301600080840154905061505c81614b94565b6150696000870182613aa5565b506001840185830360208701526150808382614d80565b9250506002840185830360408701526150998382614d80565b925050600384015490506150ac81614e0d565b6150b96060870182613ba4565b506150c381614fcf565b6150d06080870182613bec565b506150da81615003565b6150e760a0870182613c34565b506150f18161502a565b6150fe60c0870182613c43565b506004840154905061510f81614e27565b61511c60e0870182613c43565b506005840154905061512d81614e27565b61513b610100870182613c43565b506006840154905061514c81614b94565b61515a610120870182613aa5565b50600784018583036101408701526151728382614d80565b925050819250505092915050565b6000602082019050818103600083015261519a8184615044565b90509291505056fea2646970667358221220bf19a4fca34c196561970e990b7866f7c6b7a150f31ec751cbf7149eb0ef4c4e64736f6c634300080a0033",
  "immutableReferences": {},
  "source": "// SPDX-License-Identifier: MIT\r\npragma solidity >=0.8.0 <0.9.0;\r\n\r\nimport \"./UserChain.sol\";\r\n\r\ncontract ProjectChain is UserChain {\r\n\r\n    constructor() {}\r\n\r\n    modifier onlyUserProject() {\r\n        // require(\r\n        //     sessionUser._role == Roles.UserProject,\r\n        //     \"You don't have the rights for this resource.\"\r\n        // );\r\n        _;\r\n    }\r\n\r\n    modifier onlySupervisor() {\r\n        // require(\r\n        //     sessionUser._role == Roles.Supervisor,\r\n        //     \"You don't have the rights for this resource.\"\r\n        // );\r\n        _;\r\n    }\r\n\r\n    modifier onlyCompany() {\r\n        // require(\r\n        //     sessionUser._role == Roles.Company,\r\n        //     \"You don't have the rights for this resource.\"\r\n        // );\r\n        _;\r\n    }\r\n\r\n\r\n    /**  PROJECT INITIATOR  */\r\n\r\n    mapping(address => Project) public projects;\r\n    uint256 public projectsCounter = 0;\r\n    address[] public projectsAddress;\r\n\r\n    function createUniqueProjectAddress(string memory _name, uint256 _index) public view returns (address) {\r\n        return address(uint160(uint256(keccak256(abi.encodePacked(_name, msg.sender, _index)))));\r\n    }\r\n\r\n    function createProject(\r\n        address _projectAddress,\r\n        string memory _name,\r\n        uint256 _status,\r\n        string memory _ipfsFileCID,\r\n        string memory _signature\r\n    ) public onlyUserProject {\r\n        projects[_projectAddress] = Project(\r\n            projectsCounter,\r\n            _name,\r\n            ProjectStatus(_status),\r\n            _ipfsFileCID,\r\n            _projectAddress,\r\n            msg.sender,\r\n            address(0x0),\r\n            false,\r\n            block.timestamp,\r\n            _signature\r\n        );\r\n\r\n        emit ProjectEvent(projects[_projectAddress], _projectAddress, address(0x0));\r\n        projectsAddress.push(_projectAddress);\r\n        projectsCounter++;\r\n    }\r\n\r\n    function updateProject(\r\n        address _projectAddress,\r\n        string memory _ipfsFileCID,\r\n        string memory _signature\r\n    ) public onlyUserProject {\r\n        projects[_projectAddress]._ipfsFileCID = _ipfsFileCID;\r\n        projects[_projectAddress]._signature = _signature;\r\n\r\n        emit ProjectEvent(projects[_projectAddress], _projectAddress, address(0x0));\r\n    }\r\n\r\n    function getProjectInfo(address _address)\r\n        public\r\n        view\r\n        returns (Project memory)\r\n    {\r\n        //require(msg.sender != address(0x0), \"Address is not valid.\");\r\n        return projects[_address];\r\n    }\r\n\r\n    function getProjectsByUserAddress(address _walletAddress) public view returns (Project[] memory) {\r\n        Project[] memory allProjects;\r\n        if (projectsCounter == 0) return allProjects;\r\n\r\n        allProjects = new Project[](projectsCounter);\r\n        for (uint256 index = 0; index < projectsCounter; index++) {\r\n            address _projectAddress = projectsAddress[index];\r\n            if (_walletAddress == projects[_projectAddress]._signerAddress) {\r\n                Project storage project = projects[_projectAddress];\r\n                allProjects[index] = project;\r\n            }\r\n        }\r\n        return allProjects;\r\n    }\r\n\r\n\r\n    /**  Requests  */\r\n\r\n    mapping(address => Request) public requests;\r\n    uint256 public requestsCounter = 0;\r\n    address[] public requestsAddress;\r\n\r\n    function createUniqueRequestAddress(string memory _title, uint256 _index) public view returns (address) {\r\n        return address(uint160(uint256(keccak256(abi.encodePacked(_title, msg.sender, _index)))));\r\n    }\r\n\r\n    function createRequest(\r\n        string memory _title,\r\n        uint256 _projectStatus,\r\n        uint256 _requestStatus,\r\n        address _projectAddress,\r\n        address _requestAddress,\r\n        string memory _signature\r\n    ) public {\r\n        //require(projects[_projectAddress]._status == ProjectStatus.Created, \"Steps must follow accordingly\");\r\n\r\n        RequestType _requestType = RequestType.SupervisorReq;\r\n        if (ProjectStatus(_projectStatus) == ProjectStatus.StartProject) {\r\n            _requestType = RequestType.CompanyReq;\r\n        }\r\n\r\n        requests[_requestAddress] = Request(\r\n            requestsCounter,\r\n            _title,\r\n            \"\",\r\n            ProjectStatus(_projectStatus),\r\n            RequestStatus(_requestStatus),\r\n            RequestType(_requestType),\r\n            _projectAddress,\r\n            _requestAddress,\r\n            msg.sender,\r\n            block.timestamp,\r\n            _signature\r\n        );\r\n\r\n        emit RequestEvent(requests[_requestAddress], _requestAddress, _projectAddress);\r\n        requestsAddress.push(_requestAddress);\r\n        requestsCounter++;\r\n    }\r\n\r\n    function updateSupervisorRequest(\r\n        string memory _comments,\r\n        uint256 _requestStatus,\r\n        uint256 _projectStatus,\r\n        address _projectAddress,\r\n        address _requestAddress,\r\n        string memory _signature\r\n    ) public {\r\n        // Update Requests Mapping and Struct Array\r\n        requests[_requestAddress]._comments = _comments;\r\n        requests[_requestAddress]._requestStatus = RequestStatus(_requestStatus);\r\n        requests[_requestAddress]._signature = _signature;\r\n        emit RequestEvent(requests[_requestAddress], _requestAddress, _projectAddress);\r\n\r\n        // Update Project Mapping and Struct Array\r\n        if (RequestStatus.Approved == RequestStatus(_requestStatus)) {\r\n            projects[_projectAddress]._status = ProjectStatus(_projectStatus);\r\n            emit ProjectEvent(projects[_projectAddress], _projectAddress, address(0x0));\r\n        }\r\n    }\r\n\r\n    function updateCompanyRequest(\r\n        string memory _comments,\r\n        uint256 _requestStatus,\r\n        uint256 _projectStatus,\r\n        address _projectAddress,\r\n        address _requestAddress,\r\n        string memory _signature\r\n    ) public {\r\n        // Update Requests Mapping and Struct Array\r\n        requests[_requestAddress]._comments = _comments;\r\n        requests[_requestAddress]._requestStatus = RequestStatus(_requestStatus);\r\n        requests[_requestAddress]._signature = _signature;\r\n        emit RequestEvent(requests[_requestAddress], _requestAddress, _projectAddress);\r\n\r\n        // Update Project Mapping and Struct Array\r\n        if (RequestStatus.Approved == RequestStatus(_requestStatus)) {\r\n            projects[_projectAddress]._status = ProjectStatus(_projectStatus);\r\n            projects[_projectAddress]._companyAddress = msg.sender;\r\n            emit ProjectEvent(projects[_projectAddress], _projectAddress, msg.sender);\r\n        }\r\n    }\r\n\r\n\r\n\r\n\r\n    function getAllRequests() public view returns (Request[] memory) {\r\n        Request[] memory allRequests = new Request[](requestsCounter);\r\n        for (uint256 index = 0; index < requestsCounter; index++) {\r\n            address _requestAddress = requestsAddress[index];\r\n            Request storage request = requests[_requestAddress];\r\n            allRequests[index] = request;\r\n        }\r\n        return allRequests;\r\n    }\r\n\r\n    function getLastProjectRequest(address _projectAddress, address _requestAddress)\r\n        public view returns (Request memory)\r\n    {\r\n        Request memory request;\r\n        if (requestsCounter > 0) {\r\n            if (requests[_requestAddress]._projectAddress == _projectAddress) {\r\n                request = requests[_requestAddress];\r\n            }\r\n        }\r\n        return request;\r\n    }\r\n}\r\n",
  "sourcePath": "/mnt/c/Users/Beniamin/source/repos/DissertationProject/contracts/ProjectChain.sol",
  "compiler": {
    "name": "solc",
    "version": "0.8.10+commit.fc410830.Emscripten.clang"
  },
  "schemaVersion": "3.4.3",
  "updatedAt": "2021-12-13T08:12:51.895Z",
  "networkType": "ethereum",
  "devdoc": {
    "kind": "dev",
    "methods": {},
    "version": 1
  },
  "userdoc": {
    "kind": "user",
    "methods": {
      "projects(address)": {
        "notice": "PROJECT INITIATOR  "
      },
      "requests(address)": {
        "notice": "Requests  "
      }
    },
    "version": 1
  }
}