{
  "contractName": "ProjectChain",
  "abi": [
    {
      "inputs": [],
      "stateMutability": "nonpayable",
      "type": "constructor"
    },
    {
      "anonymous": false,
      "inputs": [
        {
          "components": [
            {
              "internalType": "uint256",
              "name": "_index",
              "type": "uint256"
            },
            {
              "internalType": "string",
              "name": "_name",
              "type": "string"
            },
            {
              "internalType": "enum SharedChain.ProjectStatus",
              "name": "_status",
              "type": "uint8"
            },
            {
              "internalType": "string",
              "name": "_ipfsFileCID",
              "type": "string"
            },
            {
              "internalType": "address",
              "name": "_projectAddress",
              "type": "address"
            },
            {
              "internalType": "address",
              "name": "_signerAddress",
              "type": "address"
            },
            {
              "internalType": "uint256",
              "name": "_timestamp",
              "type": "uint256"
            },
            {
              "internalType": "string",
              "name": "_signature",
              "type": "string"
            }
          ],
          "indexed": false,
          "internalType": "struct SharedChain.Project",
          "name": "_project",
          "type": "tuple"
        },
        {
          "indexed": true,
          "internalType": "address",
          "name": "_projectAddress",
          "type": "address"
        }
      ],
      "name": "ProjectEvent",
      "type": "event"
    },
    {
      "anonymous": false,
      "inputs": [
        {
          "components": [
            {
              "internalType": "uint256",
              "name": "_index",
              "type": "uint256"
            },
            {
              "internalType": "string",
              "name": "_title",
              "type": "string"
            },
            {
              "internalType": "string",
              "name": "_comments",
              "type": "string"
            },
            {
              "internalType": "enum SharedChain.ProjectStatus",
              "name": "_status",
              "type": "uint8"
            },
            {
              "internalType": "enum SharedChain.RequestStatus",
              "name": "_requestStatus",
              "type": "uint8"
            },
            {
              "internalType": "address",
              "name": "_projectAddress",
              "type": "address"
            },
            {
              "internalType": "address",
              "name": "_signerAddress",
              "type": "address"
            },
            {
              "internalType": "address",
              "name": "_requestAddress",
              "type": "address"
            },
            {
              "internalType": "uint256",
              "name": "_timestamp",
              "type": "uint256"
            },
            {
              "internalType": "string",
              "name": "_signature",
              "type": "string"
            }
          ],
          "indexed": false,
          "internalType": "struct SharedChain.ProjectRequest",
          "name": "_projectRequest",
          "type": "tuple"
        },
        {
          "indexed": true,
          "internalType": "address",
          "name": "_projectAddress",
          "type": "address"
        }
      ],
      "name": "ProjectRequestEvent",
      "type": "event"
    },
    {
      "anonymous": false,
      "inputs": [
        {
          "components": [
            {
              "internalType": "uint256",
              "name": "_index",
              "type": "uint256"
            },
            {
              "internalType": "uint256",
              "name": "_indexProjectRequest",
              "type": "uint256"
            },
            {
              "internalType": "string",
              "name": "_title",
              "type": "string"
            },
            {
              "internalType": "enum SharedChain.RequestStatus",
              "name": "_requestStatus",
              "type": "uint8"
            },
            {
              "internalType": "enum SharedChain.ProjectStatus",
              "name": "_projectStatus",
              "type": "uint8"
            },
            {
              "internalType": "enum SharedChain.RequestType",
              "name": "_requestType",
              "type": "uint8"
            },
            {
              "internalType": "address",
              "name": "_projectAddress",
              "type": "address"
            },
            {
              "internalType": "address",
              "name": "_signerAddress",
              "type": "address"
            },
            {
              "internalType": "address",
              "name": "_requestAddress",
              "type": "address"
            },
            {
              "internalType": "uint256",
              "name": "_timestamp",
              "type": "uint256"
            },
            {
              "internalType": "string",
              "name": "_signature",
              "type": "string"
            }
          ],
          "indexed": false,
          "internalType": "struct SharedChain.Request",
          "name": "_request",
          "type": "tuple"
        },
        {
          "indexed": true,
          "internalType": "address",
          "name": "_requestAddress",
          "type": "address"
        }
      ],
      "name": "RequestEvent",
      "type": "event"
    },
    {
      "anonymous": false,
      "inputs": [
        {
          "components": [
            {
              "internalType": "uint256",
              "name": "_index",
              "type": "uint256"
            },
            {
              "internalType": "string",
              "name": "_username",
              "type": "string"
            },
            {
              "internalType": "bytes32",
              "name": "_email",
              "type": "bytes32"
            },
            {
              "internalType": "bytes32",
              "name": "_firstname",
              "type": "bytes32"
            },
            {
              "internalType": "bytes32",
              "name": "_lastname",
              "type": "bytes32"
            },
            {
              "internalType": "enum SharedChain.Roles",
              "name": "_role",
              "type": "uint8"
            },
            {
              "internalType": "address",
              "name": "_walletAddress",
              "type": "address"
            },
            {
              "internalType": "uint256",
              "name": "_timestamp",
              "type": "uint256"
            },
            {
              "internalType": "string",
              "name": "_signature",
              "type": "string"
            }
          ],
          "indexed": false,
          "internalType": "struct SharedChain.User",
          "name": "_user",
          "type": "tuple"
        },
        {
          "indexed": true,
          "internalType": "address",
          "name": "_walletAddress",
          "type": "address"
        }
      ],
      "name": "UserEvent",
      "type": "event"
    },
    {
      "inputs": [
        {
          "internalType": "uint256",
          "name": "",
          "type": "uint256"
        }
      ],
      "name": "projectRequests",
      "outputs": [
        {
          "internalType": "uint256",
          "name": "_index",
          "type": "uint256"
        },
        {
          "internalType": "string",
          "name": "_title",
          "type": "string"
        },
        {
          "internalType": "string",
          "name": "_comments",
          "type": "string"
        },
        {
          "internalType": "enum SharedChain.ProjectStatus",
          "name": "_status",
          "type": "uint8"
        },
        {
          "internalType": "enum SharedChain.RequestStatus",
          "name": "_requestStatus",
          "type": "uint8"
        },
        {
          "internalType": "address",
          "name": "_projectAddress",
          "type": "address"
        },
        {
          "internalType": "address",
          "name": "_signerAddress",
          "type": "address"
        },
        {
          "internalType": "address",
          "name": "_requestAddress",
          "type": "address"
        },
        {
          "internalType": "uint256",
          "name": "_timestamp",
          "type": "uint256"
        },
        {
          "internalType": "string",
          "name": "_signature",
          "type": "string"
        }
      ],
      "stateMutability": "view",
      "type": "function",
      "constant": true
    },
    {
      "inputs": [
        {
          "internalType": "uint256",
          "name": "",
          "type": "uint256"
        }
      ],
      "name": "projectRequestsAddress",
      "outputs": [
        {
          "internalType": "address",
          "name": "",
          "type": "address"
        }
      ],
      "stateMutability": "view",
      "type": "function",
      "constant": true
    },
    {
      "inputs": [],
      "name": "projectRequestsCounter",
      "outputs": [
        {
          "internalType": "uint256",
          "name": "",
          "type": "uint256"
        }
      ],
      "stateMutability": "view",
      "type": "function",
      "constant": true
    },
    {
      "inputs": [
        {
          "internalType": "address",
          "name": "",
          "type": "address"
        }
      ],
      "name": "projects",
      "outputs": [
        {
          "internalType": "uint256",
          "name": "_index",
          "type": "uint256"
        },
        {
          "internalType": "string",
          "name": "_name",
          "type": "string"
        },
        {
          "internalType": "enum SharedChain.ProjectStatus",
          "name": "_status",
          "type": "uint8"
        },
        {
          "internalType": "string",
          "name": "_ipfsFileCID",
          "type": "string"
        },
        {
          "internalType": "address",
          "name": "_projectAddress",
          "type": "address"
        },
        {
          "internalType": "address",
          "name": "_signerAddress",
          "type": "address"
        },
        {
          "internalType": "uint256",
          "name": "_timestamp",
          "type": "uint256"
        },
        {
          "internalType": "string",
          "name": "_signature",
          "type": "string"
        }
      ],
      "stateMutability": "view",
      "type": "function",
      "constant": true
    },
    {
      "inputs": [
        {
          "internalType": "uint256",
          "name": "",
          "type": "uint256"
        }
      ],
      "name": "projectsAddress",
      "outputs": [
        {
          "internalType": "address",
          "name": "",
          "type": "address"
        }
      ],
      "stateMutability": "view",
      "type": "function",
      "constant": true
    },
    {
      "inputs": [],
      "name": "projectsCounter",
      "outputs": [
        {
          "internalType": "uint256",
          "name": "",
          "type": "uint256"
        }
      ],
      "stateMutability": "view",
      "type": "function",
      "constant": true
    },
    {
      "inputs": [
        {
          "internalType": "uint256",
          "name": "",
          "type": "uint256"
        }
      ],
      "name": "requests",
      "outputs": [
        {
          "internalType": "uint256",
          "name": "_index",
          "type": "uint256"
        },
        {
          "internalType": "uint256",
          "name": "_indexProjectRequest",
          "type": "uint256"
        },
        {
          "internalType": "string",
          "name": "_title",
          "type": "string"
        },
        {
          "internalType": "enum SharedChain.RequestStatus",
          "name": "_requestStatus",
          "type": "uint8"
        },
        {
          "internalType": "enum SharedChain.ProjectStatus",
          "name": "_projectStatus",
          "type": "uint8"
        },
        {
          "internalType": "enum SharedChain.RequestType",
          "name": "_requestType",
          "type": "uint8"
        },
        {
          "internalType": "address",
          "name": "_projectAddress",
          "type": "address"
        },
        {
          "internalType": "address",
          "name": "_signerAddress",
          "type": "address"
        },
        {
          "internalType": "address",
          "name": "_requestAddress",
          "type": "address"
        },
        {
          "internalType": "uint256",
          "name": "_timestamp",
          "type": "uint256"
        },
        {
          "internalType": "string",
          "name": "_signature",
          "type": "string"
        }
      ],
      "stateMutability": "view",
      "type": "function",
      "constant": true
    },
    {
      "inputs": [],
      "name": "requestsCounter",
      "outputs": [
        {
          "internalType": "uint256",
          "name": "",
          "type": "uint256"
        }
      ],
      "stateMutability": "view",
      "type": "function",
      "constant": true
    },
    {
      "inputs": [
        {
          "internalType": "string",
          "name": "_name",
          "type": "string"
        },
        {
          "internalType": "uint256",
          "name": "_index",
          "type": "uint256"
        }
      ],
      "name": "createUniqueProjectAddress",
      "outputs": [
        {
          "internalType": "address",
          "name": "",
          "type": "address"
        }
      ],
      "stateMutability": "view",
      "type": "function",
      "constant": true
    },
    {
      "inputs": [
        {
          "internalType": "address",
          "name": "_projectAddress",
          "type": "address"
        },
        {
          "internalType": "string",
          "name": "_name",
          "type": "string"
        },
        {
          "internalType": "uint256",
          "name": "_status",
          "type": "uint256"
        },
        {
          "internalType": "string",
          "name": "_ipfsFileCID",
          "type": "string"
        },
        {
          "internalType": "string",
          "name": "_signature",
          "type": "string"
        }
      ],
      "name": "createProject",
      "outputs": [],
      "stateMutability": "nonpayable",
      "type": "function"
    },
    {
      "inputs": [
        {
          "internalType": "address",
          "name": "_projectAddress",
          "type": "address"
        },
        {
          "internalType": "string",
          "name": "_ipfsFileCID",
          "type": "string"
        },
        {
          "internalType": "string",
          "name": "_signature",
          "type": "string"
        }
      ],
      "name": "updateProject",
      "outputs": [],
      "stateMutability": "nonpayable",
      "type": "function"
    },
    {
      "inputs": [
        {
          "internalType": "address",
          "name": "_address",
          "type": "address"
        }
      ],
      "name": "getProjectInfo",
      "outputs": [
        {
          "components": [
            {
              "internalType": "uint256",
              "name": "_index",
              "type": "uint256"
            },
            {
              "internalType": "string",
              "name": "_name",
              "type": "string"
            },
            {
              "internalType": "enum SharedChain.ProjectStatus",
              "name": "_status",
              "type": "uint8"
            },
            {
              "internalType": "string",
              "name": "_ipfsFileCID",
              "type": "string"
            },
            {
              "internalType": "address",
              "name": "_projectAddress",
              "type": "address"
            },
            {
              "internalType": "address",
              "name": "_signerAddress",
              "type": "address"
            },
            {
              "internalType": "uint256",
              "name": "_timestamp",
              "type": "uint256"
            },
            {
              "internalType": "string",
              "name": "_signature",
              "type": "string"
            }
          ],
          "internalType": "struct SharedChain.Project",
          "name": "",
          "type": "tuple"
        }
      ],
      "stateMutability": "view",
      "type": "function",
      "constant": true
    },
    {
      "inputs": [],
      "name": "getAllProjects",
      "outputs": [
        {
          "components": [
            {
              "internalType": "uint256",
              "name": "_index",
              "type": "uint256"
            },
            {
              "internalType": "string",
              "name": "_name",
              "type": "string"
            },
            {
              "internalType": "enum SharedChain.ProjectStatus",
              "name": "_status",
              "type": "uint8"
            },
            {
              "internalType": "string",
              "name": "_ipfsFileCID",
              "type": "string"
            },
            {
              "internalType": "address",
              "name": "_projectAddress",
              "type": "address"
            },
            {
              "internalType": "address",
              "name": "_signerAddress",
              "type": "address"
            },
            {
              "internalType": "uint256",
              "name": "_timestamp",
              "type": "uint256"
            },
            {
              "internalType": "string",
              "name": "_signature",
              "type": "string"
            }
          ],
          "internalType": "struct SharedChain.Project[]",
          "name": "",
          "type": "tuple[]"
        }
      ],
      "stateMutability": "view",
      "type": "function",
      "constant": true
    },
    {
      "inputs": [
        {
          "internalType": "string",
          "name": "_title",
          "type": "string"
        },
        {
          "internalType": "uint256",
          "name": "_index",
          "type": "uint256"
        }
      ],
      "name": "createUniqueProjectRequestAddress",
      "outputs": [
        {
          "internalType": "address",
          "name": "",
          "type": "address"
        }
      ],
      "stateMutability": "view",
      "type": "function",
      "constant": true
    },
    {
      "inputs": [
        {
          "internalType": "string",
          "name": "_title",
          "type": "string"
        },
        {
          "internalType": "uint256",
          "name": "_status",
          "type": "uint256"
        },
        {
          "internalType": "uint256",
          "name": "_requestStatus",
          "type": "uint256"
        },
        {
          "internalType": "address",
          "name": "_projectAddress",
          "type": "address"
        },
        {
          "internalType": "address",
          "name": "_projectReqAddress",
          "type": "address"
        },
        {
          "internalType": "string",
          "name": "_signature",
          "type": "string"
        }
      ],
      "name": "createProjectRequest",
      "outputs": [],
      "stateMutability": "nonpayable",
      "type": "function"
    },
    {
      "inputs": [],
      "name": "getAllProjectRequests",
      "outputs": [
        {
          "components": [
            {
              "internalType": "uint256",
              "name": "_index",
              "type": "uint256"
            },
            {
              "internalType": "string",
              "name": "_title",
              "type": "string"
            },
            {
              "internalType": "string",
              "name": "_comments",
              "type": "string"
            },
            {
              "internalType": "enum SharedChain.ProjectStatus",
              "name": "_status",
              "type": "uint8"
            },
            {
              "internalType": "enum SharedChain.RequestStatus",
              "name": "_requestStatus",
              "type": "uint8"
            },
            {
              "internalType": "address",
              "name": "_projectAddress",
              "type": "address"
            },
            {
              "internalType": "address",
              "name": "_signerAddress",
              "type": "address"
            },
            {
              "internalType": "address",
              "name": "_requestAddress",
              "type": "address"
            },
            {
              "internalType": "uint256",
              "name": "_timestamp",
              "type": "uint256"
            },
            {
              "internalType": "string",
              "name": "_signature",
              "type": "string"
            }
          ],
          "internalType": "struct SharedChain.ProjectRequest[]",
          "name": "",
          "type": "tuple[]"
        }
      ],
      "stateMutability": "view",
      "type": "function",
      "constant": true
    },
    {
      "inputs": [
        {
          "internalType": "address",
          "name": "_projectAddress",
          "type": "address"
        }
      ],
      "name": "getLastProjectRequest",
      "outputs": [
        {
          "components": [
            {
              "internalType": "uint256",
              "name": "_index",
              "type": "uint256"
            },
            {
              "internalType": "string",
              "name": "_title",
              "type": "string"
            },
            {
              "internalType": "string",
              "name": "_comments",
              "type": "string"
            },
            {
              "internalType": "enum SharedChain.ProjectStatus",
              "name": "_status",
              "type": "uint8"
            },
            {
              "internalType": "enum SharedChain.RequestStatus",
              "name": "_requestStatus",
              "type": "uint8"
            },
            {
              "internalType": "address",
              "name": "_projectAddress",
              "type": "address"
            },
            {
              "internalType": "address",
              "name": "_signerAddress",
              "type": "address"
            },
            {
              "internalType": "address",
              "name": "_requestAddress",
              "type": "address"
            },
            {
              "internalType": "uint256",
              "name": "_timestamp",
              "type": "uint256"
            },
            {
              "internalType": "string",
              "name": "_signature",
              "type": "string"
            }
          ],
          "internalType": "struct SharedChain.ProjectRequest",
          "name": "",
          "type": "tuple"
        }
      ],
      "stateMutability": "view",
      "type": "function",
      "constant": true
    },
    {
      "inputs": [],
      "name": "getAllRequests",
      "outputs": [
        {
          "components": [
            {
              "internalType": "uint256",
              "name": "_index",
              "type": "uint256"
            },
            {
              "internalType": "uint256",
              "name": "_indexProjectRequest",
              "type": "uint256"
            },
            {
              "internalType": "string",
              "name": "_title",
              "type": "string"
            },
            {
              "internalType": "enum SharedChain.RequestStatus",
              "name": "_requestStatus",
              "type": "uint8"
            },
            {
              "internalType": "enum SharedChain.ProjectStatus",
              "name": "_projectStatus",
              "type": "uint8"
            },
            {
              "internalType": "enum SharedChain.RequestType",
              "name": "_requestType",
              "type": "uint8"
            },
            {
              "internalType": "address",
              "name": "_projectAddress",
              "type": "address"
            },
            {
              "internalType": "address",
              "name": "_signerAddress",
              "type": "address"
            },
            {
              "internalType": "address",
              "name": "_requestAddress",
              "type": "address"
            },
            {
              "internalType": "uint256",
              "name": "_timestamp",
              "type": "uint256"
            },
            {
              "internalType": "string",
              "name": "_signature",
              "type": "string"
            }
          ],
          "internalType": "struct SharedChain.Request[]",
          "name": "",
          "type": "tuple[]"
        }
      ],
      "stateMutability": "view",
      "type": "function",
      "constant": true
    }
  ],
  "bytecode": "0x608060405260006003556000600655600060095534801561001f57600080fd5b50336000806101000a81548173ffffffffffffffffffffffffffffffffffffffff021916908373ffffffffffffffffffffffffffffffffffffffff1602179055506146c58061006f6000396000f3fe608060405234801561001057600080fd5b50600436106101165760003560e01c806381d12c58116100a2578063cc1ee4db11610071578063cc1ee4db1461035b578063e1592c0d14610379578063fb1a002a14610395578063fbdd6460146103b3578063fe360ea5146103cf57610116565b806381d12c5814610295578063840e78fd146102cf5780638448556314610306578063c19ded131461032257610116565b8063663c2269116100e9578063663c2269146101c957806376c932e0146101e757806378e8cd85146102175780637bc406ec1461024757806380d038291461027757610116565b80630b2878921461011b578063191e16451461014b578063400003db1461017b57806347ee45b914610199575b600080fd5b61013560048036038101906101309190612db8565b6103ed565b604051610142919061304d565b60405180910390f35b610165600480360381019061016091906131d0565b610612565b604051610172919061323b565b60405180910390f35b61018361066a565b6040516101909190613400565b60405180910390f35b6101b360048036038101906101ae9190612db8565b610a87565b6040516101c091906134e0565b60405180910390f35b6101d1610e02565b6040516101de9190613511565b60405180910390f35b61020160048036038101906101fc919061352c565b610e08565b60405161020e919061323b565b60405180910390f35b610231600480360381019061022c919061352c565b610e47565b60405161023e919061323b565b60405180910390f35b610261600480360381019061025c91906131d0565b610e86565b60405161026e919061323b565b60405180910390f35b61027f610ede565b60405161028c91906136d9565b60405180910390f35b6102af60048036038101906102aa919061352c565b6112da565b6040516102c69b9a999897969594939291906137ab565b60405180910390f35b6102e960048036038101906102e49190612db8565b6114cb565b6040516102fd989796959493929190613864565b60405180910390f35b610320600480360381019061031b91906138f7565b6116f8565b005b61033c6004803603810190610337919061352c565b611a1d565b6040516103529a999897969594939291906139c6565b60405180910390f35b610363611c83565b6040516103709190613511565b60405180910390f35b610393600480360381019061038e9190613a77565b611c89565b005b61039d611dc8565b6040516103aa9190613cc9565b60405180910390f35b6103cd60048036038101906103c89190613ceb565b612198565b005b6103d76125ff565b6040516103e49190613511565b60405180910390f35b6103f5612a95565b6103fd612a95565b6000600654111561060857600060016006546104199190613ddf565b90505b60008110610606576005600082815260200190815260200160002060030160029054906101000a900473ffffffffffffffffffffffffffffffffffffffff1673ffffffffffffffffffffffffffffffffffffffff168473ffffffffffffffffffffffffffffffffffffffff1614156105f357604051806101400160405280600081526020016040518060200160405280600081525081526020016040518060200160405280600081525081526020016005600084815260200190815260200160002060030160009054906101000a900460ff16600481111561050157610500612e97565b5b81526020016005600084815260200190815260200160002060030160019054906101000a900460ff16600281111561053c5761053b612e97565b5b81526020016005600084815260200190815260200160002060030160029054906101000a900473ffffffffffffffffffffffffffffffffffffffff1673ffffffffffffffffffffffffffffffffffffffff168152602001600073ffffffffffffffffffffffffffffffffffffffff168152602001600073ffffffffffffffffffffffffffffffffffffffff16815260200160008152602001604051806020016040528060008152508152509150819250505061060d565b80806105fe90613e13565b91505061041c565b505b809150505b919050565b60008260008054906101000a900473ffffffffffffffffffffffffffffffffffffffff168360405160200161064993929190613ee2565b6040516020818303038152906040528051906020012060001c905092915050565b606080600060065414156106815780915050610a84565b60065467ffffffffffffffff81111561069d5761069c613079565b5b6040519080825280602002602001820160405280156106d657816020015b6106c3612a95565b8152602001906001900390816106bb5790505b50905060005b600654811015610a7e57600060056000838152602001908152602001600020905080604051806101400160405290816000820154815260200160018201805461072490613f4a565b80601f016020809104026020016040519081016040528092919081815260200182805461075090613f4a565b801561079d5780601f106107725761010080835404028352916020019161079d565b820191906000526020600020905b81548152906001019060200180831161078057829003601f168201915b505050505081526020016002820180546107b690613f4a565b80601f01602080910402602001604051908101604052809291908181526020018280546107e290613f4a565b801561082f5780601f106108045761010080835404028352916020019161082f565b820191906000526020600020905b81548152906001019060200180831161081257829003601f168201915b505050505081526020016003820160009054906101000a900460ff16600481111561085d5761085c612e97565b5b600481111561086f5761086e612e97565b5b81526020016003820160019054906101000a900460ff16600281111561089857610897612e97565b5b60028111156108aa576108a9612e97565b5b81526020016003820160029054906101000a900473ffffffffffffffffffffffffffffffffffffffff1673ffffffffffffffffffffffffffffffffffffffff1673ffffffffffffffffffffffffffffffffffffffff1681526020016004820160009054906101000a900473ffffffffffffffffffffffffffffffffffffffff1673ffffffffffffffffffffffffffffffffffffffff1673ffffffffffffffffffffffffffffffffffffffff1681526020016005820160009054906101000a900473ffffffffffffffffffffffffffffffffffffffff1673ffffffffffffffffffffffffffffffffffffffff1673ffffffffffffffffffffffffffffffffffffffff168152602001600682015481526020016007820180546109ca90613f4a565b80601f01602080910402602001604051908101604052809291908181526020018280546109f690613f4a565b8015610a435780601f10610a1857610100808354040283529160200191610a43565b820191906000526020600020905b815481529060010190602001808311610a2657829003601f168201915b505050505081525050838381518110610a5f57610a5e613f7c565b5b6020026020010181905250508080610a7690613fab565b9150506106dc565b50809150505b90565b610a8f612b4e565b600073ffffffffffffffffffffffffffffffffffffffff163373ffffffffffffffffffffffffffffffffffffffff161415610aff576040517f08c379a0000000000000000000000000000000000000000000000000000000008152600401610af690614040565b60405180910390fd5b600260008373ffffffffffffffffffffffffffffffffffffffff1673ffffffffffffffffffffffffffffffffffffffff1681526020019081526020016000206040518061010001604052908160008201548152602001600182018054610b6490613f4a565b80601f0160208091040260200160405190810160405280929190818152602001828054610b9090613f4a565b8015610bdd5780601f10610bb257610100808354040283529160200191610bdd565b820191906000526020600020905b815481529060010190602001808311610bc057829003601f168201915b505050505081526020016002820160009054906101000a900460ff166004811115610c0b57610c0a612e97565b5b6004811115610c1d57610c1c612e97565b5b8152602001600382018054610c3190613f4a565b80601f0160208091040260200160405190810160405280929190818152602001828054610c5d90613f4a565b8015610caa5780601f10610c7f57610100808354040283529160200191610caa565b820191906000526020600020905b815481529060010190602001808311610c8d57829003601f168201915b505050505081526020016004820160009054906101000a900473ffffffffffffffffffffffffffffffffffffffff1673ffffffffffffffffffffffffffffffffffffffff1673ffffffffffffffffffffffffffffffffffffffff1681526020016005820160009054906101000a900473ffffffffffffffffffffffffffffffffffffffff1673ffffffffffffffffffffffffffffffffffffffff1673ffffffffffffffffffffffffffffffffffffffff16815260200160068201548152602001600782018054610d7990613f4a565b80601f0160208091040260200160405190810160405280929190818152602001828054610da590613f4a565b8015610df25780601f10610dc757610100808354040283529160200191610df2565b820191906000526020600020905b815481529060010190602001808311610dd557829003601f168201915b5050505050815250509050919050565b60095481565b60048181548110610e1857600080fd5b906000526020600020016000915054906101000a900473ffffffffffffffffffffffffffffffffffffffff1681565b60078181548110610e5757600080fd5b906000526020600020016000915054906101000a900473ffffffffffffffffffffffffffffffffffffffff1681565b60008260008054906101000a900473ffffffffffffffffffffffffffffffffffffffff1683604051602001610ebd93929190613ee2565b6040516020818303038152906040528051906020012060001c905092915050565b60608060006003541415610ef557809150506112d7565b60035467ffffffffffffffff811115610f1157610f10613079565b5b604051908082528060200260200182016040528015610f4a57816020015b610f37612b4e565b815260200190600190039081610f2f5790505b50905060005b6003548110156112d157600060048281548110610f7057610f6f613f7c565b5b9060005260206000200160009054906101000a900473ffffffffffffffffffffffffffffffffffffffff1690506000600260008373ffffffffffffffffffffffffffffffffffffffff1673ffffffffffffffffffffffffffffffffffffffff168152602001908152602001600020905080604051806101000160405290816000820154815260200160018201805461100790613f4a565b80601f016020809104026020016040519081016040528092919081815260200182805461103390613f4a565b80156110805780601f1061105557610100808354040283529160200191611080565b820191906000526020600020905b81548152906001019060200180831161106357829003601f168201915b505050505081526020016002820160009054906101000a900460ff1660048111156110ae576110ad612e97565b5b60048111156110c0576110bf612e97565b5b81526020016003820180546110d490613f4a565b80601f016020809104026020016040519081016040528092919081815260200182805461110090613f4a565b801561114d5780601f106111225761010080835404028352916020019161114d565b820191906000526020600020905b81548152906001019060200180831161113057829003601f168201915b505050505081526020016004820160009054906101000a900473ffffffffffffffffffffffffffffffffffffffff1673ffffffffffffffffffffffffffffffffffffffff1673ffffffffffffffffffffffffffffffffffffffff1681526020016005820160009054906101000a900473ffffffffffffffffffffffffffffffffffffffff1673ffffffffffffffffffffffffffffffffffffffff1673ffffffffffffffffffffffffffffffffffffffff1681526020016006820154815260200160078201805461121c90613f4a565b80601f016020809104026020016040519081016040528092919081815260200182805461124890613f4a565b80156112955780601f1061126a57610100808354040283529160200191611295565b820191906000526020600020905b81548152906001019060200180831161127857829003601f168201915b5050505050815250508484815181106112b1576112b0613f7c565b5b6020026020010181905250505080806112c990613fab565b915050610f50565b50809150505b90565b600860205280600052604060002060009150905080600001549080600101549080600201805461130990613f4a565b80601f016020809104026020016040519081016040528092919081815260200182805461133590613f4a565b80156113825780601f1061135757610100808354040283529160200191611382565b820191906000526020600020905b81548152906001019060200180831161136557829003601f168201915b5050505050908060030160009054906101000a900460ff16908060030160019054906101000a900460ff16908060030160029054906101000a900460ff16908060030160039054906101000a900473ffffffffffffffffffffffffffffffffffffffff16908060040160009054906101000a900473ffffffffffffffffffffffffffffffffffffffff16908060050160009054906101000a900473ffffffffffffffffffffffffffffffffffffffff169080600601549080600701805461144890613f4a565b80601f016020809104026020016040519081016040528092919081815260200182805461147490613f4a565b80156114c15780601f10611496576101008083540402835291602001916114c1565b820191906000526020600020905b8154815290600101906020018083116114a457829003601f168201915b505050505090508b565b60026020528060005260406000206000915090508060000154908060010180546114f490613f4a565b80601f016020809104026020016040519081016040528092919081815260200182805461152090613f4a565b801561156d5780601f106115425761010080835404028352916020019161156d565b820191906000526020600020905b81548152906001019060200180831161155057829003601f168201915b5050505050908060020160009054906101000a900460ff169080600301805461159590613f4a565b80601f01602080910402602001604051908101604052809291908181526020018280546115c190613f4a565b801561160e5780601f106115e35761010080835404028352916020019161160e565b820191906000526020600020905b8154815290600101906020018083116115f157829003601f168201915b5050505050908060040160009054906101000a900473ffffffffffffffffffffffffffffffffffffffff16908060050160009054906101000a900473ffffffffffffffffffffffffffffffffffffffff169080600601549080600701805461167590613f4a565b80601f01602080910402602001604051908101604052809291908181526020018280546116a190613f4a565b80156116ee5780601f106116c3576101008083540402835291602001916116ee565b820191906000526020600020905b8154815290600101906020018083116116d157829003601f168201915b5050505050905088565b604051806101000160405280600354815260200185815260200184600481111561172557611724612e97565b5b600481111561173757611736612e97565b5b81526020018381526020018673ffffffffffffffffffffffffffffffffffffffff16815260200160008054906101000a900473ffffffffffffffffffffffffffffffffffffffff1673ffffffffffffffffffffffffffffffffffffffff16815260200142815260200182815250600260008773ffffffffffffffffffffffffffffffffffffffff1673ffffffffffffffffffffffffffffffffffffffff168152602001908152602001600020600082015181600001556020820151816001019080519060200190611809929190612bd1565b5060408201518160020160006101000a81548160ff0219169083600481111561183557611834612e97565b5b02179055506060820151816003019080519060200190611856929190612bd1565b5060808201518160040160006101000a81548173ffffffffffffffffffffffffffffffffffffffff021916908373ffffffffffffffffffffffffffffffffffffffff16021790555060a08201518160050160006101000a81548173ffffffffffffffffffffffffffffffffffffffff021916908373ffffffffffffffffffffffffffffffffffffffff16021790555060c0820151816006015560e082015181600701908051906020019061190b929190612bd1565b509050508473ffffffffffffffffffffffffffffffffffffffff167fac85378acf27ea180ea9b66d81dac89bcc984812edf7111c9413f708da4ca37a600260008873ffffffffffffffffffffffffffffffffffffffff1673ffffffffffffffffffffffffffffffffffffffff168152602001908152602001600020604051611993919061427b565b60405180910390a26004859080600181540180825580915050600190039060005260206000200160009091909190916101000a81548173ffffffffffffffffffffffffffffffffffffffff021916908373ffffffffffffffffffffffffffffffffffffffff16021790555060036000815480929190611a1190613fab565b91905055505050505050565b6005602052806000526040600020600091509050806000015490806001018054611a4690613f4a565b80601f0160208091040260200160405190810160405280929190818152602001828054611a7290613f4a565b8015611abf5780601f10611a9457610100808354040283529160200191611abf565b820191906000526020600020905b815481529060010190602001808311611aa257829003601f168201915b505050505090806002018054611ad490613f4a565b80601f0160208091040260200160405190810160405280929190818152602001828054611b0090613f4a565b8015611b4d5780601f10611b2257610100808354040283529160200191611b4d565b820191906000526020600020905b815481529060010190602001808311611b3057829003601f168201915b5050505050908060030160009054906101000a900460ff16908060030160019054906101000a900460ff16908060030160029054906101000a900473ffffffffffffffffffffffffffffffffffffffff16908060040160009054906101000a900473ffffffffffffffffffffffffffffffffffffffff16908060050160009054906101000a900473ffffffffffffffffffffffffffffffffffffffff1690806006015490806007018054611c0090613f4a565b80601f0160208091040260200160405190810160405280929190818152602001828054611c2c90613f4a565b8015611c795780601f10611c4e57610100808354040283529160200191611c79565b820191906000526020600020905b815481529060010190602001808311611c5c57829003601f168201915b505050505090508a565b60065481565b81600260008573ffffffffffffffffffffffffffffffffffffffff1673ffffffffffffffffffffffffffffffffffffffff1681526020019081526020016000206003019080519060200190611cdf929190612bd1565b5080600260008573ffffffffffffffffffffffffffffffffffffffff1673ffffffffffffffffffffffffffffffffffffffff1681526020019081526020016000206007019080519060200190611d36929190612bd1565b508273ffffffffffffffffffffffffffffffffffffffff167fac85378acf27ea180ea9b66d81dac89bcc984812edf7111c9413f708da4ca37a600260008673ffffffffffffffffffffffffffffffffffffffff1673ffffffffffffffffffffffffffffffffffffffff168152602001908152602001600020604051611dbb919061427b565b60405180910390a2505050565b60608060006009541415611ddf5780915050612195565b60095467ffffffffffffffff811115611dfb57611dfa613079565b5b604051908082528060200260200182016040528015611e3457816020015b611e21612c57565b815260200190600190039081611e195790505b50905060005b60095481101561218f57600060086000838152602001908152602001600020905080604051806101600160405290816000820154815260200160018201548152602001600282018054611e8c90613f4a565b80601f0160208091040260200160405190810160405280929190818152602001828054611eb890613f4a565b8015611f055780601f10611eda57610100808354040283529160200191611f05565b820191906000526020600020905b815481529060010190602001808311611ee857829003601f168201915b505050505081526020016003820160009054906101000a900460ff166002811115611f3357611f32612e97565b5b6002811115611f4557611f44612e97565b5b81526020016003820160019054906101000a900460ff166004811115611f6e57611f6d612e97565b5b6004811115611f8057611f7f612e97565b5b81526020016003820160029054906101000a900460ff166001811115611fa957611fa8612e97565b5b6001811115611fbb57611fba612e97565b5b81526020016003820160039054906101000a900473ffffffffffffffffffffffffffffffffffffffff1673ffffffffffffffffffffffffffffffffffffffff1673ffffffffffffffffffffffffffffffffffffffff1681526020016004820160009054906101000a900473ffffffffffffffffffffffffffffffffffffffff1673ffffffffffffffffffffffffffffffffffffffff1673ffffffffffffffffffffffffffffffffffffffff1681526020016005820160009054906101000a900473ffffffffffffffffffffffffffffffffffffffff1673ffffffffffffffffffffffffffffffffffffffff1673ffffffffffffffffffffffffffffffffffffffff168152602001600682015481526020016007820180546120db90613f4a565b80601f016020809104026020016040519081016040528092919081815260200182805461210790613f4a565b80156121545780601f1061212957610100808354040283529160200191612154565b820191906000526020600020905b81548152906001019060200180831161213757829003601f168201915b5050505050815250508383815181106121705761216f613f7c565b5b602002602001018190525050808061218790613fab565b915050611e3a565b50809150505b90565b600060048111156121ac576121ab612e97565b5b600260008573ffffffffffffffffffffffffffffffffffffffff1673ffffffffffffffffffffffffffffffffffffffff16815260200190815260200160002060020160009054906101000a900460ff16600481111561220e5761220d612e97565b5b1461224e576040517f08c379a0000000000000000000000000000000000000000000000000000000008152600401612245906142e9565b60405180910390fd5b60405180610140016040528060065481526020018781526020016040518060200160405280600081525081526020018660048111156122905761228f612e97565b5b60048111156122a2576122a1612e97565b5b81526020018560028111156122ba576122b9612e97565b5b60028111156122cc576122cb612e97565b5b81526020018473ffffffffffffffffffffffffffffffffffffffff16815260200160008054906101000a900473ffffffffffffffffffffffffffffffffffffffff1673ffffffffffffffffffffffffffffffffffffffff1681526020018373ffffffffffffffffffffffffffffffffffffffff1681526020014281526020018281525060056000600654815260200190815260200160002060008201518160000155602082015181600101908051906020019061238a929190612bd1565b5060408201518160020190805190602001906123a7929190612bd1565b5060608201518160030160006101000a81548160ff021916908360048111156123d3576123d2612e97565b5b021790555060808201518160030160016101000a81548160ff0219169083600281111561240357612402612e97565b5b021790555060a08201518160030160026101000a81548173ffffffffffffffffffffffffffffffffffffffff021916908373ffffffffffffffffffffffffffffffffffffffff16021790555060c08201518160040160006101000a81548173ffffffffffffffffffffffffffffffffffffffff021916908373ffffffffffffffffffffffffffffffffffffffff16021790555060e08201518160050160006101000a81548173ffffffffffffffffffffffffffffffffffffffff021916908373ffffffffffffffffffffffffffffffffffffffff1602179055506101008201518160060155610120820151816007019080519060200190612505929190612bd1565b5090505061251a600654878688878787612605565b8273ffffffffffffffffffffffffffffffffffffffff167fb503855b01edd8caf0051e68bacef096056daa0d24478362eaa8a4f4b8a7130e6005600060065481526020019081526020016000206040516125749190614488565b60405180910390a26007829080600181540180825580915050600190039060005260206000200160009091909190916101000a81548173ffffffffffffffffffffffffffffffffffffffff021916908373ffffffffffffffffffffffffffffffffffffffff160217905550600660008154809291906125f290613fab565b9190505550505050505050565b60035481565b60006001600481111561261b5761261a612e97565b5b85600481111561262e5761262d612e97565b5b60048111156126405761263f612e97565b5b148061268257506003600481111561265b5761265a612e97565b5b85600481111561266e5761266d612e97565b5b60048111156126805761267f612e97565b5b145b806126c2575060048081111561269b5761269a612e97565b5b8560048111156126ae576126ad612e97565b5b60048111156126c0576126bf612e97565b5b145b156126d05760009050612715565b600260048111156126e4576126e3612e97565b5b8560048111156126f7576126f6612e97565b5b600481111561270957612708612e97565b5b141561271457600190505b5b612725888888888589898961272f565b5050505050505050565b604051806101600160405280600954815260200189815260200188815260200187600281111561276257612761612e97565b5b600281111561277457612773612e97565b5b815260200186600481111561278c5761278b612e97565b5b600481111561279e5761279d612e97565b5b81526020018560018111156127b6576127b5612e97565b5b81526020018473ffffffffffffffffffffffffffffffffffffffff16815260200160008054906101000a900473ffffffffffffffffffffffffffffffffffffffff1673ffffffffffffffffffffffffffffffffffffffff1681526020018373ffffffffffffffffffffffffffffffffffffffff168152602001428152602001828152506008600060095481526020019081526020016000206000820151816000015560208201518160010155604082015181600201908051906020019061287e929190612bd1565b5060608201518160030160006101000a81548160ff021916908360028111156128aa576128a9612e97565b5b021790555060808201518160030160016101000a81548160ff021916908360048111156128da576128d9612e97565b5b021790555060a08201518160030160026101000a81548160ff0219169083600181111561290a57612909612e97565b5b021790555060c08201518160030160036101000a81548173ffffffffffffffffffffffffffffffffffffffff021916908373ffffffffffffffffffffffffffffffffffffffff16021790555060e08201518160040160006101000a81548173ffffffffffffffffffffffffffffffffffffffff021916908373ffffffffffffffffffffffffffffffffffffffff1602179055506101008201518160050160006101000a81548173ffffffffffffffffffffffffffffffffffffffff021916908373ffffffffffffffffffffffffffffffffffffffff1602179055506101208201518160060155610140820151816007019080519060200190612a0d929190612bd1565b509050508173ffffffffffffffffffffffffffffffffffffffff167f4a2aa9c37fdc971a24d9081164299dd70beb053eacacaeb4e59d5d998334ef11600860006009548152602001908152602001600020604051612a6b919061466d565b60405180910390a260096000815480929190612a8690613fab565b91905055505050505050505050565b60405180610140016040528060008152602001606081526020016060815260200160006004811115612aca57612ac9612e97565b5b815260200160006002811115612ae357612ae2612e97565b5b8152602001600073ffffffffffffffffffffffffffffffffffffffff168152602001600073ffffffffffffffffffffffffffffffffffffffff168152602001600073ffffffffffffffffffffffffffffffffffffffff16815260200160008152602001606081525090565b604051806101000160405280600081526020016060815260200160006004811115612b7c57612b7b612e97565b5b815260200160608152602001600073ffffffffffffffffffffffffffffffffffffffff168152602001600073ffffffffffffffffffffffffffffffffffffffff16815260200160008152602001606081525090565b828054612bdd90613f4a565b90600052602060002090601f016020900481019282612bff5760008555612c46565b82601f10612c1857805160ff1916838001178555612c46565b82800160010185558215612c46579182015b82811115612c45578251825591602001919060010190612c2a565b5b509050612c539190612d29565b5090565b60405180610160016040528060008152602001600081526020016060815260200160006002811115612c8c57612c8b612e97565b5b815260200160006004811115612ca557612ca4612e97565b5b815260200160006001811115612cbe57612cbd612e97565b5b8152602001600073ffffffffffffffffffffffffffffffffffffffff168152602001600073ffffffffffffffffffffffffffffffffffffffff168152602001600073ffffffffffffffffffffffffffffffffffffffff16815260200160008152602001606081525090565b5b80821115612d42576000816000905550600101612d2a565b5090565b6000604051905090565b600080fd5b600080fd5b600073ffffffffffffffffffffffffffffffffffffffff82169050919050565b6000612d8582612d5a565b9050919050565b612d9581612d7a565b8114612da057600080fd5b50565b600081359050612db281612d8c565b92915050565b600060208284031215612dce57612dcd612d50565b5b6000612ddc84828501612da3565b91505092915050565b6000819050919050565b612df881612de5565b82525050565b600081519050919050565b600082825260208201905092915050565b60005b83811015612e38578082015181840152602081019050612e1d565b83811115612e47576000848401525b50505050565b6000601f19601f8301169050919050565b6000612e6982612dfe565b612e738185612e09565b9350612e83818560208601612e1a565b612e8c81612e4d565b840191505092915050565b7f4e487b7100000000000000000000000000000000000000000000000000000000600052602160045260246000fd5b60058110612ed757612ed6612e97565b5b50565b6000819050612ee882612ec6565b919050565b6000612ef882612eda565b9050919050565b612f0881612eed565b82525050565b60038110612f1f57612f1e612e97565b5b50565b6000819050612f3082612f0e565b919050565b6000612f4082612f22565b9050919050565b612f5081612f35565b82525050565b612f5f81612d7a565b82525050565b600061014083016000830151612f7e6000860182612def565b5060208301518482036020860152612f968282612e5e565b91505060408301518482036040860152612fb08282612e5e565b9150506060830151612fc56060860182612eff565b506080830151612fd86080860182612f47565b5060a0830151612feb60a0860182612f56565b5060c0830151612ffe60c0860182612f56565b5060e083015161301160e0860182612f56565b50610100830151613026610100860182612def565b506101208301518482036101208601526130408282612e5e565b9150508091505092915050565b600060208201905081810360008301526130678184612f65565b905092915050565b600080fd5b600080fd5b7f4e487b7100000000000000000000000000000000000000000000000000000000600052604160045260246000fd5b6130b182612e4d565b810181811067ffffffffffffffff821117156130d0576130cf613079565b5b80604052505050565b60006130e3612d46565b90506130ef82826130a8565b919050565b600067ffffffffffffffff82111561310f5761310e613079565b5b61311882612e4d565b9050602081019050919050565b82818337600083830152505050565b6000613147613142846130f4565b6130d9565b90508281526020810184848401111561316357613162613074565b5b61316e848285613125565b509392505050565b600082601f83011261318b5761318a61306f565b5b813561319b848260208601613134565b91505092915050565b6131ad81612de5565b81146131b857600080fd5b50565b6000813590506131ca816131a4565b92915050565b600080604083850312156131e7576131e6612d50565b5b600083013567ffffffffffffffff81111561320557613204612d55565b5b61321185828601613176565b9250506020613222858286016131bb565b9150509250929050565b61323581612d7a565b82525050565b6000602082019050613250600083018461322c565b92915050565b600081519050919050565b600082825260208201905092915050565b6000819050602082019050919050565b60006101408301600083015161329b6000860182612def565b50602083015184820360208601526132b38282612e5e565b915050604083015184820360408601526132cd8282612e5e565b91505060608301516132e26060860182612eff565b5060808301516132f56080860182612f47565b5060a083015161330860a0860182612f56565b5060c083015161331b60c0860182612f56565b5060e083015161332e60e0860182612f56565b50610100830151613343610100860182612def565b5061012083015184820361012086015261335d8282612e5e565b9150508091505092915050565b60006133768383613282565b905092915050565b6000602082019050919050565b600061339682613256565b6133a08185613261565b9350836020820285016133b285613272565b8060005b858110156133ee57848403895281516133cf858261336a565b94506133da8361337e565b925060208a019950506001810190506133b6565b50829750879550505050505092915050565b6000602082019050818103600083015261341a818461338b565b905092915050565b60006101008301600083015161343b6000860182612def565b50602083015184820360208601526134538282612e5e565b91505060408301516134686040860182612eff565b50606083015184820360608601526134808282612e5e565b91505060808301516134956080860182612f56565b5060a08301516134a860a0860182612f56565b5060c08301516134bb60c0860182612def565b5060e083015184820360e08601526134d38282612e5e565b9150508091505092915050565b600060208201905081810360008301526134fa8184613422565b905092915050565b61350b81612de5565b82525050565b60006020820190506135266000830184613502565b92915050565b60006020828403121561354257613541612d50565b5b6000613550848285016131bb565b91505092915050565b600081519050919050565b600082825260208201905092915050565b6000819050602082019050919050565b60006101008301600083015161359e6000860182612def565b50602083015184820360208601526135b68282612e5e565b91505060408301516135cb6040860182612eff565b50606083015184820360608601526135e38282612e5e565b91505060808301516135f86080860182612f56565b5060a083015161360b60a0860182612f56565b5060c083015161361e60c0860182612def565b5060e083015184820360e08601526136368282612e5e565b9150508091505092915050565b600061364f8383613585565b905092915050565b6000602082019050919050565b600061366f82613559565b6136798185613564565b93508360208202850161368b85613575565b8060005b858110156136c757848403895281516136a88582613643565b94506136b383613657565b925060208a0199505060018101905061368f565b50829750879550505050505092915050565b600060208201905081810360008301526136f38184613664565b905092915050565b600082825260208201905092915050565b600061371782612dfe565b61372181856136fb565b9350613731818560208601612e1a565b61373a81612e4d565b840191505092915050565b61374e81612f35565b82525050565b61375d81612eed565b82525050565b6002811061377457613773612e97565b5b50565b600081905061378582613763565b919050565b600061379582613777565b9050919050565b6137a58161378a565b82525050565b6000610160820190506137c1600083018e613502565b6137ce602083018d613502565b81810360408301526137e0818c61370c565b90506137ef606083018b613745565b6137fc608083018a613754565b61380960a083018961379c565b61381660c083018861322c565b61382360e083018761322c565b61383161010083018661322c565b61383f610120830185613502565b818103610140830152613852818461370c565b90509c9b505050505050505050505050565b60006101008201905061387a600083018b613502565b818103602083015261388c818a61370c565b905061389b6040830189613754565b81810360608301526138ad818861370c565b90506138bc608083018761322c565b6138c960a083018661322c565b6138d660c0830185613502565b81810360e08301526138e8818461370c565b90509998505050505050505050565b600080600080600060a0868803121561391357613912612d50565b5b600061392188828901612da3565b955050602086013567ffffffffffffffff81111561394257613941612d55565b5b61394e88828901613176565b945050604061395f888289016131bb565b935050606086013567ffffffffffffffff8111156139805761397f612d55565b5b61398c88828901613176565b925050608086013567ffffffffffffffff8111156139ad576139ac612d55565b5b6139b988828901613176565b9150509295509295909350565b6000610140820190506139dc600083018d613502565b81810360208301526139ee818c61370c565b90508181036040830152613a02818b61370c565b9050613a11606083018a613754565b613a1e6080830189613745565b613a2b60a083018861322c565b613a3860c083018761322c565b613a4560e083018661322c565b613a53610100830185613502565b818103610120830152613a66818461370c565b90509b9a5050505050505050505050565b600080600060608486031215613a9057613a8f612d50565b5b6000613a9e86828701612da3565b935050602084013567ffffffffffffffff811115613abf57613abe612d55565b5b613acb86828701613176565b925050604084013567ffffffffffffffff811115613aec57613aeb612d55565b5b613af886828701613176565b9150509250925092565b600081519050919050565b600082825260208201905092915050565b6000819050602082019050919050565b613b378161378a565b82525050565b600061016083016000830151613b566000860182612def565b506020830151613b696020860182612def565b5060408301518482036040860152613b818282612e5e565b9150506060830151613b966060860182612f47565b506080830151613ba96080860182612eff565b5060a0830151613bbc60a0860182613b2e565b5060c0830151613bcf60c0860182612f56565b5060e0830151613be260e0860182612f56565b50610100830151613bf7610100860182612f56565b50610120830151613c0c610120860182612def565b50610140830151848203610140860152613c268282612e5e565b9150508091505092915050565b6000613c3f8383613b3d565b905092915050565b6000602082019050919050565b6000613c5f82613b02565b613c698185613b0d565b935083602082028501613c7b85613b1e565b8060005b85811015613cb75784840389528151613c988582613c33565b9450613ca383613c47565b925060208a01995050600181019050613c7f565b50829750879550505050505092915050565b60006020820190508181036000830152613ce38184613c54565b905092915050565b60008060008060008060c08789031215613d0857613d07612d50565b5b600087013567ffffffffffffffff811115613d2657613d25612d55565b5b613d3289828a01613176565b9650506020613d4389828a016131bb565b9550506040613d5489828a016131bb565b9450506060613d6589828a01612da3565b9350506080613d7689828a01612da3565b92505060a087013567ffffffffffffffff811115613d9757613d96612d55565b5b613da389828a01613176565b9150509295509295509295565b7f4e487b7100000000000000000000000000000000000000000000000000000000600052601160045260246000fd5b6000613dea82612de5565b9150613df583612de5565b925082821015613e0857613e07613db0565b5b828203905092915050565b6000613e1e82612de5565b91506000821415613e3257613e31613db0565b5b600182039050919050565b600081905092915050565b6000613e5382612dfe565b613e5d8185613e3d565b9350613e6d818560208601612e1a565b80840191505092915050565b60008160601b9050919050565b6000613e9182613e79565b9050919050565b6000613ea382613e86565b9050919050565b613ebb613eb682612d7a565b613e98565b82525050565b6000819050919050565b613edc613ed782612de5565b613ec1565b82525050565b6000613eee8286613e48565b9150613efa8285613eaa565b601482019150613f0a8284613ecb565b602082019150819050949350505050565b7f4e487b7100000000000000000000000000000000000000000000000000000000600052602260045260246000fd5b60006002820490506001821680613f6257607f821691505b60208210811415613f7657613f75613f1b565b5b50919050565b7f4e487b7100000000000000000000000000000000000000000000000000000000600052603260045260246000fd5b6000613fb682612de5565b91507fffffffffffffffffffffffffffffffffffffffffffffffffffffffffffffffff821415613fe957613fe8613db0565b5b600182019050919050565b7f41646472657373206973206e6f742076616c69642e0000000000000000000000600082015250565b600061402a6015836136fb565b915061403582613ff4565b602082019050919050565b600060208201905081810360008301526140598161401d565b9050919050565b60008160001c9050919050565b6000819050919050565b600061408a61408583614060565b61406d565b9050919050565b60008190508160005260206000209050919050565b600081546140b381613f4a565b6140bd8186612e09565b945060018216600081146140d857600181146140ea5761411d565b60ff198316865260208601935061411d565b6140f385614091565b60005b83811015614115578154818901526001820191506020810190506140f6565b808801955050505b50505092915050565b600060ff82169050919050565b600061414661414183614060565b614126565b9050919050565b600073ffffffffffffffffffffffffffffffffffffffff82169050919050565b600061418061417b83614060565b61414d565b9050919050565b60006101008301600080840154905061419f81614077565b6141ac6000870182612def565b506001840185830360208701526141c383826140a6565b925050600284015490506141d681614133565b6141e36040870182612eff565b506003840185830360608701526141fa83826140a6565b9250506004840154905061420d8161416d565b61421a6080870182612f56565b506005840154905061422b8161416d565b61423860a0870182612f56565b506006840154905061424981614077565b61425660c0870182612def565b506007840185830360e087015261426d83826140a6565b925050819250505092915050565b600060208201905081810360008301526142958184614187565b905092915050565b7f5374657073206d75737420666f6c6c6f77206163636f7264696e676c79000000600082015250565b60006142d3601d836136fb565b91506142de8261429d565b602082019050919050565b60006020820190508181036000830152614302816142c6565b9050919050565b60008160081c9050919050565b600060ff82169050919050565b600061433661433183614309565b614316565b9050919050565b60008160101c9050919050565b600061435d6143588361433d565b61414d565b9050919050565b60006101408301600080840154905061437c81614077565b6143896000870182612def565b506001840185830360208701526143a083826140a6565b9250506002840185830360408701526143b983826140a6565b925050600384015490506143cc81614133565b6143d96060870182612eff565b506143e381614323565b6143f06080870182612f47565b506143fa8161434a565b61440760a0870182612f56565b50600484015490506144188161416d565b61442560c0870182612f56565b50600584015490506144368161416d565b61444360e0870182612f56565b506006840154905061445481614077565b614462610100870182612def565b506007840185830361012087015261447a83826140a6565b925050819250505092915050565b600060208201905081810360008301526144a28184614364565b905092915050565b60006144bd6144b883614060565b614316565b9050919050565b60006144d76144d283614309565b614126565b9050919050565b600060ff82169050919050565b60006144fe6144f98361433d565b6144de565b9050919050565b60008160181c9050919050565b600061452561452083614505565b61414d565b9050919050565b60006101608301600080840154905061454481614077565b6145516000870182612def565b506001840154905061456281614077565b61456f6020870182612def565b5060028401858303604087015261458683826140a6565b92505060038401549050614599816144aa565b6145a66060870182612f47565b506145b0816144c4565b6145bd6080870182612eff565b506145c7816144eb565b6145d460a0870182613b2e565b506145de81614512565b6145eb60c0870182612f56565b50600484015490506145fc8161416d565b61460960e0870182612f56565b506005840154905061461a8161416d565b614628610100870182612f56565b506006840154905061463981614077565b614647610120870182612def565b506007840185830361014087015261465f83826140a6565b925050819250505092915050565b60006020820190508181036000830152614687818461452c565b90509291505056fea26469706673582212202e6378ddaf22a3970ac06d7a238d0da0c8a1283d2eeaec37c123bf5fc0234b7764736f6c634300080a0033",
  "immutableReferences": {},
  "source": "// SPDX-License-Identifier: MIT\r\npragma solidity >=0.8.0 <0.9.0;\r\n\r\nimport \"./UserChain.sol\";\r\nimport \"./SharedChain.sol\";\r\n\r\ncontract ProjectChain is SharedChain {\r\n    address _userAddress;\r\n    UserChain userChain;\r\n\r\n    constructor() {\r\n        _userAddress = msg.sender;\r\n        //userChain = new UserChain();\r\n    }\r\n\r\n    modifier onlyUserProject() {\r\n        // User memory sessionUser = userChain.getUserInfo(_userAddress);\r\n        // require(\r\n        //     sessionUser._role == Roles.UserProject,\r\n        //     \"You don't have the rights for this resource.\"\r\n        // );\r\n        _;\r\n    }\r\n\r\n    modifier onlySupervisor() {\r\n        // User memory sessionUser = userChain.getUserInfo(_userAddress);\r\n        // require(\r\n        //     sessionUser._role == Roles.Supervisor,\r\n        //     \"You don't have the rights for this resource.\"\r\n        // );\r\n        _;\r\n    }\r\n\r\n    modifier onlyCompany() {\r\n        // User memory sessionUser = userChain.getUserInfo(_userAddress);\r\n        // require(\r\n        //     sessionUser._role == Roles.Company,\r\n        //     \"You don't have the rights for this resource.\"\r\n        // );\r\n        _;\r\n    }\r\n\r\n    /**  PROJECT INITIATOR  */\r\n\r\n    mapping(address => Project) public projects;\r\n    uint256 public projectsCounter = 0;\r\n    address[] public projectsAddress;\r\n\r\n    function createUniqueProjectAddress(string memory _name, uint _index) public view returns (address) {\r\n        return address(uint160(uint256(keccak256(abi.encodePacked(_name, _userAddress, _index)))));\r\n    }\r\n\r\n    function createProject(\r\n        address _projectAddress,\r\n        string memory _name,\r\n        uint256 _status,\r\n        string memory _ipfsFileCID,\r\n        string memory _signature\r\n    ) public onlyUserProject {\r\n        projects[_projectAddress] = Project(\r\n            projectsCounter,\r\n            _name,\r\n            ProjectStatus(_status),\r\n            _ipfsFileCID,\r\n            _projectAddress,\r\n            _userAddress,\r\n            block.timestamp,\r\n            _signature\r\n        );\r\n\r\n        emit ProjectEvent(projects[_projectAddress], _projectAddress);\r\n        projectsAddress.push(_projectAddress);\r\n        projectsCounter++;\r\n    }\r\n\r\n    function updateProject(\r\n        address _projectAddress,\r\n        string memory _ipfsFileCID,\r\n        string memory _signature\r\n    ) public onlyUserProject {\r\n        projects[_projectAddress]._ipfsFileCID = _ipfsFileCID;\r\n        projects[_projectAddress]._signature = _signature;\r\n\r\n        emit ProjectEvent(projects[_projectAddress], _projectAddress);\r\n    }\r\n\r\n    function getProjectInfo(address _address)\r\n        public\r\n        view\r\n        returns (Project memory)\r\n    {\r\n        require(msg.sender != address(0x0), \"Address is not valid.\");\r\n        return projects[_address];\r\n    }\r\n\r\n    function getAllProjects() public view returns (Project[] memory) {\r\n        Project[] memory allProjects;\r\n        if (projectsCounter == 0) return allProjects;\r\n\r\n        allProjects = new Project[](projectsCounter);\r\n        for (uint256 index = 0; index < projectsCounter; index++) {\r\n            address _projectAddress = projectsAddress[index];\r\n            Project storage project = projects[_projectAddress];\r\n            allProjects[index] = project;\r\n        }\r\n        return allProjects;\r\n    }\r\n\r\n\r\n    /**  Project Requests  */\r\n\r\n    mapping(uint256 => ProjectRequest) public projectRequests;\r\n    uint256 public projectRequestsCounter = 0;\r\n    address[] public projectRequestsAddress;\r\n\r\n    function createUniqueProjectRequestAddress(string memory _title, uint _index) public view returns (address) {\r\n        return address(uint160(uint256(keccak256(abi.encodePacked(_title, _userAddress, _index)))));\r\n    }\r\n\r\n    function createProjectRequest(\r\n        string memory _title,\r\n        uint256 _status,\r\n        uint256 _requestStatus,\r\n        address _projectAddress,\r\n        address _projectReqAddress,\r\n        string memory _signature\r\n    ) public {\r\n        require(projects[_projectAddress]._status == ProjectStatus.Created, \"Steps must follow accordingly\");\r\n\r\n        //require(ProjectStatus.ToApprove == RequestStatus.UnApproved, \"\");\r\n        //require(ProjectStatus.ToApprove == RequestStatus.Rejected, \"\");\r\n\r\n\r\n\r\n        projectRequests[projectRequestsCounter] = ProjectRequest(\r\n            projectRequestsCounter,\r\n            _title,\r\n            \"\",\r\n            ProjectStatus(_status),\r\n            RequestStatus(_requestStatus),\r\n            _projectAddress,\r\n            _userAddress,\r\n            _projectReqAddress,\r\n            block.timestamp,\r\n            _signature\r\n        );\r\n\r\n        filterRequests(\r\n            projectRequestsCounter,\r\n            _title,\r\n            _requestStatus,\r\n            _status,\r\n            _projectAddress,\r\n            _projectReqAddress,\r\n            _signature\r\n        );\r\n\r\n        emit ProjectRequestEvent(projectRequests[projectRequestsCounter], _projectAddress);\r\n        projectRequestsAddress.push(_projectReqAddress);\r\n        projectRequestsCounter++;\r\n    }\r\n\r\n    function filterRequests(\r\n        uint256 _indexProjectRequest,\r\n        string memory _title,\r\n        uint256 _requestStatus,\r\n        uint256 _projectStatus,\r\n        address _projectAddress,\r\n        address _requestAddress,\r\n        string memory _signature\r\n    ) internal {\r\n        RequestType _requestType;\r\n        if (\r\n            ProjectStatus(_projectStatus) == ProjectStatus.ToApprove ||\r\n            ProjectStatus(_projectStatus) == ProjectStatus.FinalizationCheck ||\r\n            ProjectStatus(_projectStatus) == ProjectStatus.Completed\r\n        ) {\r\n            _requestType = RequestType.SupervisorReq;\r\n        } else if (\r\n            ProjectStatus(_projectStatus) == ProjectStatus.StartProject\r\n        ) {\r\n            _requestType = RequestType.CompanyReq;\r\n        }\r\n        createRequest(\r\n            _indexProjectRequest,\r\n            _title,\r\n            _requestStatus,\r\n            _projectStatus,\r\n            _requestType,\r\n            _projectAddress,\r\n            _requestAddress,\r\n            _signature\r\n        );\r\n    }\r\n\r\n    function getAllProjectRequests()\r\n        public\r\n        view\r\n        returns (ProjectRequest[] memory)\r\n    {\r\n        ProjectRequest[] memory allProjectRequests;\r\n        if (projectRequestsCounter == 0) return allProjectRequests;\r\n\r\n        allProjectRequests = new ProjectRequest[](projectRequestsCounter);\r\n        for (uint256 index = 0; index < projectRequestsCounter; index++) {\r\n            ProjectRequest storage projectReq = projectRequests[index];\r\n            allProjectRequests[index] = projectReq;\r\n        }\r\n        return allProjectRequests;\r\n    }\r\n\r\n    function getLastProjectRequest(address _projectAddress)\r\n        public\r\n        view\r\n        returns (ProjectRequest memory)\r\n    {\r\n        ProjectRequest memory request;\r\n        if (projectRequestsCounter > 0) {\r\n            for (\r\n                uint256 index = projectRequestsCounter - 1;\r\n                index >= 0;\r\n                index--\r\n            ) {\r\n                if (_projectAddress == projectRequests[index]._projectAddress) {\r\n                    request = ProjectRequest(\r\n                        0, \"\", \"\",\r\n                        projectRequests[index]._status,\r\n                        projectRequests[index]._requestStatus,\r\n                        projectRequests[index]._projectAddress,\r\n                        address(0), address(0), 0, \"\"\r\n                    );\r\n                    return request;\r\n                }\r\n            }\r\n        }\r\n        return request;\r\n    }\r\n\r\n\r\n    /**  DATA FOR SUPERVISOR && COMPANY  */\r\n\r\n    mapping(uint256 => Request) public requests;\r\n    uint256 public requestsCounter = 0;\r\n\r\n    function createRequest(\r\n        uint256 _indexProjectRequest,\r\n        string memory _title,\r\n        uint256 _requestStatus,\r\n        uint256 _projectStatus,\r\n        RequestType _requestType,\r\n        address _projectAddress,\r\n        address _requestAddress,\r\n        string memory _signature\r\n    ) internal {\r\n        requests[requestsCounter] = Request(\r\n            requestsCounter,\r\n            _indexProjectRequest,\r\n            _title,\r\n            RequestStatus(_requestStatus),\r\n            ProjectStatus(_projectStatus),\r\n            _requestType,\r\n            _projectAddress,\r\n            _userAddress,\r\n            _requestAddress,\r\n            block.timestamp,\r\n            _signature\r\n        );\r\n\r\n        emit RequestEvent(requests[requestsCounter], _requestAddress);\r\n        requestsCounter++;\r\n    }\r\n/*\r\n    function updateRequest(\r\n        uint256 _index,\r\n        uint256 _indexProjectRequest,\r\n        string memory _comments,\r\n        uint256 _requestStatus,\r\n        uint256 _projectStatus,\r\n        address _projectAddress,\r\n        string memory _signature\r\n    ) public {\r\n        // Update request status in the Requests Mapping and Struct Array\r\n        requests[_index]._requestStatus = RequestStatus(_requestStatus);\r\n        requests[_index]._signature = _signature;\r\n\r\n        emit RequestEvent(requests[_index], requests[_index]._requestAddress);\r\n\r\n        // Update project request status in the Project Requests Mapping and Struct Array\r\n        projectRequests[_indexProjectRequest]._comments = _comments;\r\n        projectRequests[_indexProjectRequest]._requestStatus = RequestStatus(_requestStatus);\r\n        projectRequests[_indexProjectRequest]._signature = _signature;\r\n\r\n        emit ProjectRequestEvent(projectRequests[_indexProjectRequest], _projectAddress);\r\n\r\n        // Update ProjectStatus to the requested status - Porject Mapping and Struct Array\r\n        if (RequestStatus.Approved == RequestStatus(_requestStatus)) {\r\n        projects[_projectAddress]._status = ProjectStatus(_projectStatus);\r\n        emit ProjectEvent(projects[_projectAddress], _projectAddress);\r\n        }\r\n    }\r\n*/\r\n    function getAllRequests() public view returns (Request[] memory) {\r\n        Request[] memory allRequests;\r\n        if (requestsCounter == 0) return allRequests;\r\n\r\n        allRequests = new Request[](requestsCounter);\r\n        for (uint256 index = 0; index < requestsCounter; index++) {\r\n            Request storage request = requests[index];\r\n            allRequests[index] = request;\r\n        }\r\n        return allRequests;\r\n    }\r\n}\r\n",
  "sourcePath": "/mnt/c/Users/Beniamin/source/repos/DissertationProject/contracts/ProjectChain.sol",
  "compiler": {
    "name": "solc",
    "version": "0.8.10+commit.fc410830.Emscripten.clang"
  },
  "schemaVersion": "3.4.3",
  "updatedAt": "2021-12-10T11:08:58.356Z",
  "networkType": "ethereum",
  "devdoc": {
    "kind": "dev",
    "methods": {},
    "version": 1
  },
  "userdoc": {
    "kind": "user",
    "methods": {
      "projectRequests(uint256)": {
        "notice": "Project Requests  "
      },
      "projects(address)": {
        "notice": "PROJECT INITIATOR  "
      },
      "requests(uint256)": {
        "notice": "DATA FOR SUPERVISOR && COMPANY  "
      }
    },
    "version": 1
  }
}