{
  "contractName": "ProjectChain",
  "abi": [
    {
      "inputs": [],
      "stateMutability": "nonpayable",
      "type": "constructor"
    },
    {
      "anonymous": false,
      "inputs": [
        {
          "indexed": false,
          "internalType": "uint256",
          "name": "_index",
          "type": "uint256"
        },
        {
          "indexed": false,
          "internalType": "bytes32",
          "name": "_name",
          "type": "bytes32"
        },
        {
          "indexed": false,
          "internalType": "enum SharedChain.ProjectStatus",
          "name": "_status",
          "type": "uint8"
        },
        {
          "indexed": false,
          "internalType": "string",
          "name": "_ipfsFileCID",
          "type": "string"
        },
        {
          "indexed": false,
          "internalType": "address",
          "name": "_projectAddress",
          "type": "address"
        },
        {
          "indexed": false,
          "internalType": "address",
          "name": "_userAddress",
          "type": "address"
        },
        {
          "indexed": false,
          "internalType": "uint256",
          "name": "_timestamp",
          "type": "uint256"
        }
      ],
      "name": "ProjectEvent",
      "type": "event"
    },
    {
      "anonymous": false,
      "inputs": [
        {
          "indexed": false,
          "internalType": "uint256",
          "name": "_index",
          "type": "uint256"
        },
        {
          "indexed": false,
          "internalType": "bytes32",
          "name": "_title",
          "type": "bytes32"
        },
        {
          "indexed": false,
          "internalType": "string",
          "name": "_comments",
          "type": "string"
        },
        {
          "indexed": false,
          "internalType": "enum SharedChain.ProjectStatus",
          "name": "_status",
          "type": "uint8"
        },
        {
          "indexed": false,
          "internalType": "enum SharedChain.RequestStatus",
          "name": "_requestStatus",
          "type": "uint8"
        },
        {
          "indexed": false,
          "internalType": "address",
          "name": "_projectAddress",
          "type": "address"
        },
        {
          "indexed": false,
          "internalType": "address",
          "name": "_userAddress",
          "type": "address"
        },
        {
          "indexed": false,
          "internalType": "uint256",
          "name": "_timestamp",
          "type": "uint256"
        }
      ],
      "name": "ProjectRequestEvent",
      "type": "event"
    },
    {
      "anonymous": false,
      "inputs": [
        {
          "indexed": false,
          "internalType": "uint256",
          "name": "_index",
          "type": "uint256"
        },
        {
          "indexed": false,
          "internalType": "uint256",
          "name": "_indexProjectRequest",
          "type": "uint256"
        },
        {
          "indexed": false,
          "internalType": "bytes32",
          "name": "_title",
          "type": "bytes32"
        },
        {
          "indexed": false,
          "internalType": "enum SharedChain.RequestStatus",
          "name": "_status",
          "type": "uint8"
        },
        {
          "indexed": false,
          "internalType": "enum SharedChain.ProjectStatus",
          "name": "_projectStatus",
          "type": "uint8"
        },
        {
          "indexed": false,
          "internalType": "enum SharedChain.RequestType",
          "name": "_requestType",
          "type": "uint8"
        },
        {
          "indexed": false,
          "internalType": "address",
          "name": "_projectAddress",
          "type": "address"
        },
        {
          "indexed": false,
          "internalType": "address",
          "name": "_userAddress",
          "type": "address"
        },
        {
          "indexed": false,
          "internalType": "uint256",
          "name": "_timestamp",
          "type": "uint256"
        }
      ],
      "name": "RequestEvent",
      "type": "event"
    },
    {
      "anonymous": false,
      "inputs": [
        {
          "indexed": true,
          "internalType": "address",
          "name": "_walletAddress",
          "type": "address"
        },
        {
          "indexed": true,
          "internalType": "string",
          "name": "_username",
          "type": "string"
        },
        {
          "indexed": false,
          "internalType": "bytes32",
          "name": "_email",
          "type": "bytes32"
        },
        {
          "indexed": false,
          "internalType": "bytes32",
          "name": "_firstname",
          "type": "bytes32"
        },
        {
          "indexed": false,
          "internalType": "bytes32",
          "name": "_lastname",
          "type": "bytes32"
        },
        {
          "indexed": true,
          "internalType": "enum UserChain.Roles",
          "name": "_role",
          "type": "uint8"
        }
      ],
      "name": "UserEvent",
      "type": "event"
    },
    {
      "inputs": [
        {
          "internalType": "uint256",
          "name": "",
          "type": "uint256"
        }
      ],
      "name": "allProjectRequests",
      "outputs": [
        {
          "internalType": "uint256",
          "name": "_index",
          "type": "uint256"
        },
        {
          "internalType": "bytes32",
          "name": "_title",
          "type": "bytes32"
        },
        {
          "internalType": "string",
          "name": "_comments",
          "type": "string"
        },
        {
          "internalType": "enum SharedChain.ProjectStatus",
          "name": "_status",
          "type": "uint8"
        },
        {
          "internalType": "enum SharedChain.RequestStatus",
          "name": "_requestStatus",
          "type": "uint8"
        },
        {
          "internalType": "address",
          "name": "_projectAddress",
          "type": "address"
        },
        {
          "internalType": "address",
          "name": "_userAddress",
          "type": "address"
        }
      ],
      "stateMutability": "view",
      "type": "function",
      "constant": true
    },
    {
      "inputs": [
        {
          "internalType": "uint256",
          "name": "",
          "type": "uint256"
        }
      ],
      "name": "allProjects",
      "outputs": [
        {
          "internalType": "uint256",
          "name": "_index",
          "type": "uint256"
        },
        {
          "internalType": "bytes32",
          "name": "_name",
          "type": "bytes32"
        },
        {
          "internalType": "enum SharedChain.ProjectStatus",
          "name": "_status",
          "type": "uint8"
        },
        {
          "internalType": "string",
          "name": "_ipfsFileCID",
          "type": "string"
        },
        {
          "internalType": "address",
          "name": "_projectAddress",
          "type": "address"
        },
        {
          "internalType": "address",
          "name": "_userAddress",
          "type": "address"
        }
      ],
      "stateMutability": "view",
      "type": "function",
      "constant": true
    },
    {
      "inputs": [
        {
          "internalType": "uint256",
          "name": "",
          "type": "uint256"
        }
      ],
      "name": "allRequests",
      "outputs": [
        {
          "internalType": "uint256",
          "name": "_index",
          "type": "uint256"
        },
        {
          "internalType": "uint256",
          "name": "_indexProjectRequest",
          "type": "uint256"
        },
        {
          "internalType": "bytes32",
          "name": "_title",
          "type": "bytes32"
        },
        {
          "internalType": "enum SharedChain.RequestStatus",
          "name": "_requestStatus",
          "type": "uint8"
        },
        {
          "internalType": "enum SharedChain.ProjectStatus",
          "name": "_projectStatus",
          "type": "uint8"
        },
        {
          "internalType": "enum SharedChain.RequestType",
          "name": "_requestType",
          "type": "uint8"
        },
        {
          "internalType": "address",
          "name": "_projectAddress",
          "type": "address"
        },
        {
          "internalType": "address",
          "name": "_userAddress",
          "type": "address"
        }
      ],
      "stateMutability": "view",
      "type": "function",
      "constant": true
    },
    {
      "inputs": [
        {
          "internalType": "uint256",
          "name": "",
          "type": "uint256"
        }
      ],
      "name": "allUsers",
      "outputs": [
        {
          "internalType": "uint256",
          "name": "_index",
          "type": "uint256"
        },
        {
          "internalType": "string",
          "name": "_username",
          "type": "string"
        },
        {
          "internalType": "bytes32",
          "name": "_email",
          "type": "bytes32"
        },
        {
          "internalType": "bytes32",
          "name": "_firstname",
          "type": "bytes32"
        },
        {
          "internalType": "bytes32",
          "name": "_lastname",
          "type": "bytes32"
        },
        {
          "internalType": "enum UserChain.Roles",
          "name": "_role",
          "type": "uint8"
        },
        {
          "internalType": "address",
          "name": "_walletAddress",
          "type": "address"
        }
      ],
      "stateMutability": "view",
      "type": "function",
      "constant": true
    },
    {
      "inputs": [
        {
          "internalType": "uint256",
          "name": "_role",
          "type": "uint256"
        },
        {
          "internalType": "address",
          "name": "_walletAddress",
          "type": "address"
        }
      ],
      "name": "changeUserRole",
      "outputs": [],
      "stateMutability": "nonpayable",
      "type": "function"
    },
    {
      "inputs": [],
      "name": "getAllUsers",
      "outputs": [
        {
          "components": [
            {
              "internalType": "uint256",
              "name": "_index",
              "type": "uint256"
            },
            {
              "internalType": "string",
              "name": "_username",
              "type": "string"
            },
            {
              "internalType": "bytes32",
              "name": "_email",
              "type": "bytes32"
            },
            {
              "internalType": "bytes32",
              "name": "_firstname",
              "type": "bytes32"
            },
            {
              "internalType": "bytes32",
              "name": "_lastname",
              "type": "bytes32"
            },
            {
              "internalType": "enum UserChain.Roles",
              "name": "_role",
              "type": "uint8"
            },
            {
              "internalType": "address",
              "name": "_walletAddress",
              "type": "address"
            }
          ],
          "internalType": "struct UserChain.User[]",
          "name": "",
          "type": "tuple[]"
        }
      ],
      "stateMutability": "view",
      "type": "function",
      "constant": true
    },
    {
      "inputs": [
        {
          "internalType": "address",
          "name": "_walletAddress",
          "type": "address"
        }
      ],
      "name": "getUserInfo",
      "outputs": [
        {
          "components": [
            {
              "internalType": "uint256",
              "name": "_index",
              "type": "uint256"
            },
            {
              "internalType": "string",
              "name": "_username",
              "type": "string"
            },
            {
              "internalType": "bytes32",
              "name": "_email",
              "type": "bytes32"
            },
            {
              "internalType": "bytes32",
              "name": "_firstname",
              "type": "bytes32"
            },
            {
              "internalType": "bytes32",
              "name": "_lastname",
              "type": "bytes32"
            },
            {
              "internalType": "enum UserChain.Roles",
              "name": "_role",
              "type": "uint8"
            },
            {
              "internalType": "address",
              "name": "_walletAddress",
              "type": "address"
            }
          ],
          "internalType": "struct UserChain.User",
          "name": "",
          "type": "tuple"
        }
      ],
      "stateMutability": "view",
      "type": "function",
      "constant": true
    },
    {
      "inputs": [],
      "name": "owner",
      "outputs": [
        {
          "internalType": "address",
          "name": "",
          "type": "address"
        }
      ],
      "stateMutability": "view",
      "type": "function",
      "constant": true
    },
    {
      "inputs": [
        {
          "internalType": "uint256",
          "name": "",
          "type": "uint256"
        }
      ],
      "name": "projectRequests",
      "outputs": [
        {
          "internalType": "uint256",
          "name": "_index",
          "type": "uint256"
        },
        {
          "internalType": "bytes32",
          "name": "_title",
          "type": "bytes32"
        },
        {
          "internalType": "string",
          "name": "_comments",
          "type": "string"
        },
        {
          "internalType": "enum SharedChain.ProjectStatus",
          "name": "_status",
          "type": "uint8"
        },
        {
          "internalType": "enum SharedChain.RequestStatus",
          "name": "_requestStatus",
          "type": "uint8"
        },
        {
          "internalType": "address",
          "name": "_projectAddress",
          "type": "address"
        },
        {
          "internalType": "address",
          "name": "_userAddress",
          "type": "address"
        }
      ],
      "stateMutability": "view",
      "type": "function",
      "constant": true
    },
    {
      "inputs": [],
      "name": "projectRequestsCounter",
      "outputs": [
        {
          "internalType": "uint256",
          "name": "",
          "type": "uint256"
        }
      ],
      "stateMutability": "view",
      "type": "function",
      "constant": true
    },
    {
      "inputs": [
        {
          "internalType": "address",
          "name": "",
          "type": "address"
        }
      ],
      "name": "projects",
      "outputs": [
        {
          "internalType": "uint256",
          "name": "_index",
          "type": "uint256"
        },
        {
          "internalType": "bytes32",
          "name": "_name",
          "type": "bytes32"
        },
        {
          "internalType": "enum SharedChain.ProjectStatus",
          "name": "_status",
          "type": "uint8"
        },
        {
          "internalType": "string",
          "name": "_ipfsFileCID",
          "type": "string"
        },
        {
          "internalType": "address",
          "name": "_projectAddress",
          "type": "address"
        },
        {
          "internalType": "address",
          "name": "_userAddress",
          "type": "address"
        }
      ],
      "stateMutability": "view",
      "type": "function",
      "constant": true
    },
    {
      "inputs": [],
      "name": "projectsCounter",
      "outputs": [
        {
          "internalType": "uint256",
          "name": "",
          "type": "uint256"
        }
      ],
      "stateMutability": "view",
      "type": "function",
      "constant": true
    },
    {
      "inputs": [
        {
          "internalType": "string",
          "name": "_username",
          "type": "string"
        },
        {
          "internalType": "bytes32",
          "name": "_email",
          "type": "bytes32"
        },
        {
          "internalType": "bytes32",
          "name": "_firstname",
          "type": "bytes32"
        },
        {
          "internalType": "bytes32",
          "name": "_lastname",
          "type": "bytes32"
        },
        {
          "internalType": "uint256",
          "name": "_role",
          "type": "uint256"
        },
        {
          "internalType": "address",
          "name": "_walletAddress",
          "type": "address"
        }
      ],
      "name": "registerUser",
      "outputs": [],
      "stateMutability": "nonpayable",
      "type": "function"
    },
    {
      "inputs": [
        {
          "internalType": "uint256",
          "name": "",
          "type": "uint256"
        }
      ],
      "name": "requests",
      "outputs": [
        {
          "internalType": "uint256",
          "name": "_index",
          "type": "uint256"
        },
        {
          "internalType": "uint256",
          "name": "_indexProjectRequest",
          "type": "uint256"
        },
        {
          "internalType": "bytes32",
          "name": "_title",
          "type": "bytes32"
        },
        {
          "internalType": "enum SharedChain.RequestStatus",
          "name": "_requestStatus",
          "type": "uint8"
        },
        {
          "internalType": "enum SharedChain.ProjectStatus",
          "name": "_projectStatus",
          "type": "uint8"
        },
        {
          "internalType": "enum SharedChain.RequestType",
          "name": "_requestType",
          "type": "uint8"
        },
        {
          "internalType": "address",
          "name": "_projectAddress",
          "type": "address"
        },
        {
          "internalType": "address",
          "name": "_userAddress",
          "type": "address"
        }
      ],
      "stateMutability": "view",
      "type": "function",
      "constant": true
    },
    {
      "inputs": [],
      "name": "requestsCounter",
      "outputs": [
        {
          "internalType": "uint256",
          "name": "",
          "type": "uint256"
        }
      ],
      "stateMutability": "view",
      "type": "function",
      "constant": true
    },
    {
      "inputs": [
        {
          "internalType": "address",
          "name": "",
          "type": "address"
        }
      ],
      "name": "users",
      "outputs": [
        {
          "internalType": "uint256",
          "name": "_index",
          "type": "uint256"
        },
        {
          "internalType": "string",
          "name": "_username",
          "type": "string"
        },
        {
          "internalType": "bytes32",
          "name": "_email",
          "type": "bytes32"
        },
        {
          "internalType": "bytes32",
          "name": "_firstname",
          "type": "bytes32"
        },
        {
          "internalType": "bytes32",
          "name": "_lastname",
          "type": "bytes32"
        },
        {
          "internalType": "enum UserChain.Roles",
          "name": "_role",
          "type": "uint8"
        },
        {
          "internalType": "address",
          "name": "_walletAddress",
          "type": "address"
        }
      ],
      "stateMutability": "view",
      "type": "function",
      "constant": true
    },
    {
      "inputs": [],
      "name": "usersCounter",
      "outputs": [
        {
          "internalType": "uint256",
          "name": "",
          "type": "uint256"
        }
      ],
      "stateMutability": "view",
      "type": "function",
      "constant": true
    },
    {
      "inputs": [
        {
          "internalType": "string",
          "name": "_text",
          "type": "string"
        },
        {
          "internalType": "uint256",
          "name": "_index",
          "type": "uint256"
        }
      ],
      "name": "createUniqueHexAddress",
      "outputs": [
        {
          "internalType": "address",
          "name": "",
          "type": "address"
        }
      ],
      "stateMutability": "view",
      "type": "function",
      "constant": true
    },
    {
      "inputs": [
        {
          "internalType": "bytes32",
          "name": "_name",
          "type": "bytes32"
        },
        {
          "internalType": "uint256",
          "name": "_status",
          "type": "uint256"
        },
        {
          "internalType": "string",
          "name": "_ipfsFileCID",
          "type": "string"
        }
      ],
      "name": "createProject",
      "outputs": [],
      "stateMutability": "nonpayable",
      "type": "function"
    },
    {
      "inputs": [
        {
          "internalType": "address",
          "name": "_address",
          "type": "address"
        }
      ],
      "name": "getProjectInfo",
      "outputs": [
        {
          "components": [
            {
              "internalType": "uint256",
              "name": "_index",
              "type": "uint256"
            },
            {
              "internalType": "bytes32",
              "name": "_name",
              "type": "bytes32"
            },
            {
              "internalType": "enum SharedChain.ProjectStatus",
              "name": "_status",
              "type": "uint8"
            },
            {
              "internalType": "string",
              "name": "_ipfsFileCID",
              "type": "string"
            },
            {
              "internalType": "address",
              "name": "_projectAddress",
              "type": "address"
            },
            {
              "internalType": "address",
              "name": "_userAddress",
              "type": "address"
            }
          ],
          "internalType": "struct SharedChain.Project",
          "name": "",
          "type": "tuple"
        }
      ],
      "stateMutability": "view",
      "type": "function",
      "constant": true
    },
    {
      "inputs": [],
      "name": "getAllProjects",
      "outputs": [
        {
          "components": [
            {
              "internalType": "uint256",
              "name": "_index",
              "type": "uint256"
            },
            {
              "internalType": "bytes32",
              "name": "_name",
              "type": "bytes32"
            },
            {
              "internalType": "enum SharedChain.ProjectStatus",
              "name": "_status",
              "type": "uint8"
            },
            {
              "internalType": "string",
              "name": "_ipfsFileCID",
              "type": "string"
            },
            {
              "internalType": "address",
              "name": "_projectAddress",
              "type": "address"
            },
            {
              "internalType": "address",
              "name": "_userAddress",
              "type": "address"
            }
          ],
          "internalType": "struct SharedChain.Project[]",
          "name": "",
          "type": "tuple[]"
        }
      ],
      "stateMutability": "view",
      "type": "function",
      "constant": true
    },
    {
      "inputs": [
        {
          "internalType": "bytes32",
          "name": "_title",
          "type": "bytes32"
        },
        {
          "internalType": "uint256",
          "name": "_status",
          "type": "uint256"
        },
        {
          "internalType": "uint256",
          "name": "_requestStatus",
          "type": "uint256"
        },
        {
          "internalType": "address",
          "name": "_projectAddress",
          "type": "address"
        }
      ],
      "name": "createProjectRequest",
      "outputs": [],
      "stateMutability": "nonpayable",
      "type": "function"
    },
    {
      "inputs": [],
      "name": "getAllProjectRequests",
      "outputs": [
        {
          "components": [
            {
              "internalType": "uint256",
              "name": "_index",
              "type": "uint256"
            },
            {
              "internalType": "bytes32",
              "name": "_title",
              "type": "bytes32"
            },
            {
              "internalType": "string",
              "name": "_comments",
              "type": "string"
            },
            {
              "internalType": "enum SharedChain.ProjectStatus",
              "name": "_status",
              "type": "uint8"
            },
            {
              "internalType": "enum SharedChain.RequestStatus",
              "name": "_requestStatus",
              "type": "uint8"
            },
            {
              "internalType": "address",
              "name": "_projectAddress",
              "type": "address"
            },
            {
              "internalType": "address",
              "name": "_userAddress",
              "type": "address"
            }
          ],
          "internalType": "struct SharedChain.ProjectRequest[]",
          "name": "",
          "type": "tuple[]"
        }
      ],
      "stateMutability": "view",
      "type": "function",
      "constant": true
    },
    {
      "inputs": [
        {
          "internalType": "address",
          "name": "_projectAddress",
          "type": "address"
        }
      ],
      "name": "getLastProjectRequest",
      "outputs": [
        {
          "components": [
            {
              "internalType": "uint256",
              "name": "_index",
              "type": "uint256"
            },
            {
              "internalType": "bytes32",
              "name": "_title",
              "type": "bytes32"
            },
            {
              "internalType": "string",
              "name": "_comments",
              "type": "string"
            },
            {
              "internalType": "enum SharedChain.ProjectStatus",
              "name": "_status",
              "type": "uint8"
            },
            {
              "internalType": "enum SharedChain.RequestStatus",
              "name": "_requestStatus",
              "type": "uint8"
            },
            {
              "internalType": "address",
              "name": "_projectAddress",
              "type": "address"
            },
            {
              "internalType": "address",
              "name": "_userAddress",
              "type": "address"
            }
          ],
          "internalType": "struct SharedChain.ProjectRequest",
          "name": "",
          "type": "tuple"
        }
      ],
      "stateMutability": "view",
      "type": "function",
      "constant": true
    },
    {
      "inputs": [],
      "name": "getLastProjectRequestWorked",
      "outputs": [
        {
          "components": [
            {
              "internalType": "uint256",
              "name": "_index",
              "type": "uint256"
            },
            {
              "internalType": "bytes32",
              "name": "_title",
              "type": "bytes32"
            },
            {
              "internalType": "string",
              "name": "_comments",
              "type": "string"
            },
            {
              "internalType": "enum SharedChain.ProjectStatus",
              "name": "_status",
              "type": "uint8"
            },
            {
              "internalType": "enum SharedChain.RequestStatus",
              "name": "_requestStatus",
              "type": "uint8"
            },
            {
              "internalType": "address",
              "name": "_projectAddress",
              "type": "address"
            },
            {
              "internalType": "address",
              "name": "_userAddress",
              "type": "address"
            }
          ],
          "internalType": "struct SharedChain.ProjectRequest",
          "name": "",
          "type": "tuple"
        }
      ],
      "stateMutability": "view",
      "type": "function",
      "constant": true
    },
    {
      "inputs": [
        {
          "internalType": "uint256",
          "name": "_index",
          "type": "uint256"
        },
        {
          "internalType": "string",
          "name": "_comments",
          "type": "string"
        },
        {
          "internalType": "uint256",
          "name": "_requestStatus",
          "type": "uint256"
        },
        {
          "internalType": "uint256",
          "name": "_indexProjectRequest",
          "type": "uint256"
        }
      ],
      "name": "updateRequest",
      "outputs": [],
      "stateMutability": "nonpayable",
      "type": "function"
    },
    {
      "inputs": [],
      "name": "getAllRequests",
      "outputs": [
        {
          "components": [
            {
              "internalType": "uint256",
              "name": "_index",
              "type": "uint256"
            },
            {
              "internalType": "uint256",
              "name": "_indexProjectRequest",
              "type": "uint256"
            },
            {
              "internalType": "bytes32",
              "name": "_title",
              "type": "bytes32"
            },
            {
              "internalType": "enum SharedChain.RequestStatus",
              "name": "_requestStatus",
              "type": "uint8"
            },
            {
              "internalType": "enum SharedChain.ProjectStatus",
              "name": "_projectStatus",
              "type": "uint8"
            },
            {
              "internalType": "enum SharedChain.RequestType",
              "name": "_requestType",
              "type": "uint8"
            },
            {
              "internalType": "address",
              "name": "_projectAddress",
              "type": "address"
            },
            {
              "internalType": "address",
              "name": "_userAddress",
              "type": "address"
            }
          ],
          "internalType": "struct SharedChain.Request[]",
          "name": "",
          "type": "tuple[]"
        }
      ],
      "stateMutability": "view",
      "type": "function",
      "constant": true
    }
  ],
  "bytecode": "0x60806040526000600355600060065560006009556000600c5534801561002457600080fd5b50336000806101000a81548173ffffffffffffffffffffffffffffffffffffffff021916908373ffffffffffffffffffffffffffffffffffffffff16021790555033600460006101000a81548173ffffffffffffffffffffffffffffffffffffffff021916908373ffffffffffffffffffffffffffffffffffffffff160217905550615298806100b56000396000f3fe608060405234801561001057600080fd5b50600436106101a95760003560e01c806391009786116100f9578063cc1ee4db11610097578063e2842d7911610071578063e2842d7914610560578063e9fcdf101461057e578063fb1a002a1461059a578063fe360ea5146105b8576101a9565b8063cc1ee4db14610508578063cf13f5d414610526578063d67b1b9914610542576101a9565b8063a2bdedf4116100d3578063a2bdedf41461044a578063a87430ba14610480578063af1b7f49146104b6578063c19ded13146104d2576101a9565b806391009786146103db5780639bf4ec2f146103f75780639d0191ac1461042e576101a9565b8063663c22691161016657806381d12c581161014057806381d12c5814610321578063840e78fd1461035857806384afb5bb1461038d5780638da5cb5b146103bd576101a9565b8063663c2269146102af5780637e571188146102cd57806380d0382914610303576101a9565b80630b287892146101ae5780633f47e37a146101de578063400003db146101fc57806347ee45b91461021a57806353b3194c1461024a5780636386c1c71461027f575b600080fd5b6101c860048036038101906101c39190613b9c565b6105d6565b6040516101d59190613dfe565b60405180910390f35b6101e6610987565b6040516101f39190613dfe565b60405180910390f35b610204610b8a565b6040516102119190613f7e565b60405180910390f35b610234600480360381019061022f9190613b9c565b610db1565b6040516102419190614029565b60405180910390f35b610264600480360381019061025f9190614077565b610f97565b6040516102769695949392919061412a565b60405180910390f35b61029960048036038101906102949190613b9c565b6110b8565b6040516102a69190614276565b60405180910390f35b6102b761125c565b6040516102c49190614298565b60405180910390f35b6102e760048036038101906102e29190614077565b611262565b6040516102fa97969594939291906142c2565b60405180910390f35b61030b611396565b6040516103189190614483565b60405180910390f35b61033b60048036038101906103369190614077565b611582565b60405161034f9897969594939291906144ed565b60405180910390f35b610372600480360381019061036d9190613b9c565b611631565b6040516103849695949392919061412a565b60405180910390f35b6103a760048036038101906103a291906146a0565b611742565b6040516103b491906146fc565b60405180910390f35b6103c561179c565b6040516103d291906146fc565b60405180910390f35b6103f560048036038101906103f09190614717565b6117c0565b005b610411600480360381019061040c9190614077565b611a7b565b6040516104259897969594939291906144ed565b60405180910390f35b61044860048036038101906104439190614757565b611b3a565b005b610464600480360381019061045f9190614077565b611d3b565b60405161047797969594939291906147e9565b60405180910390f35b61049a60048036038101906104959190613b9c565b611e42565b6040516104ad97969594939291906147e9565b60405180910390f35b6104d060048036038101906104cb919061488b565b611f39565b005b6104ec60048036038101906104e79190614077565b612459565b6040516104ff97969594939291906142c2565b60405180910390f35b61051061257d565b60405161051d9190614298565b60405180910390f35b610540600480360381019061053b91906148fa565b612583565b005b61054a612a88565b6040516105579190614298565b60405180910390f35b610568612a8e565b6040516105759190614b01565b60405180910390f35b61059860048036038101906105939190614b23565b612c38565b005b6105a2613102565b6040516105af9190614ceb565b60405180910390f35b6105c06132dd565b6040516105cd9190614298565b60405180910390f35b6105de613912565b6105e6613912565b6000600a80549050111561097d5760006001600a805490506106089190614d3c565b90505b6000811061097b57600a818154811061062757610626614d70565b5b906000526020600020906005020160030160029054906101000a900473ffffffffffffffffffffffffffffffffffffffff1673ffffffffffffffffffffffffffffffffffffffff168473ffffffffffffffffffffffffffffffffffffffff16141561096857600a81815481106106a05761069f614d70565b5b906000526020600020906005020160000154826000018181525050600a81815481106106cf576106ce614d70565b5b906000526020600020906005020160010154826020018181525050600a81815481106106fe576106fd614d70565b5b9060005260206000209060050201600201805461071a90614dce565b80601f016020809104026020016040519081016040528092919081815260200182805461074690614dce565b80156107935780601f1061076857610100808354040283529160200191610793565b820191906000526020600020905b81548152906001019060200180831161077657829003601f168201915b50505050508260400181905250600a81815481106107b4576107b3614d70565b5b906000526020600020906005020160030160009054906101000a900460ff16826060019060048111156107ea576107e9613c94565b5b908160048111156107fe576107fd613c94565b5b81525050600a818154811061081657610815614d70565b5b906000526020600020906005020160030160019054906101000a900460ff168260800190600281111561084c5761084b613c94565b5b908160028111156108605761085f613c94565b5b81525050600a818154811061087857610877614d70565b5b906000526020600020906005020160030160029054906101000a900473ffffffffffffffffffffffffffffffffffffffff168260a0019073ffffffffffffffffffffffffffffffffffffffff16908173ffffffffffffffffffffffffffffffffffffffff1681525050600a81815481106108f5576108f4614d70565b5b906000526020600020906005020160040160009054906101000a900473ffffffffffffffffffffffffffffffffffffffff168260c0019073ffffffffffffffffffffffffffffffffffffffff16908173ffffffffffffffffffffffffffffffffffffffff16815250508192505050610982565b808061097390614e00565b91505061060b565b505b809150505b919050565b61098f613912565b600a6000815481106109a4576109a3614d70565b5b90600052602060002090600502016040518060e001604052908160008201548152602001600182015481526020016002820180546109e190614dce565b80601f0160208091040260200160405190810160405280929190818152602001828054610a0d90614dce565b8015610a5a5780601f10610a2f57610100808354040283529160200191610a5a565b820191906000526020600020905b815481529060010190602001808311610a3d57829003601f168201915b505050505081526020016003820160009054906101000a900460ff166004811115610a8857610a87613c94565b5b6004811115610a9a57610a99613c94565b5b81526020016003820160019054906101000a900460ff166002811115610ac357610ac2613c94565b5b6002811115610ad557610ad4613c94565b5b81526020016003820160029054906101000a900473ffffffffffffffffffffffffffffffffffffffff1673ffffffffffffffffffffffffffffffffffffffff1673ffffffffffffffffffffffffffffffffffffffff1681526020016004820160009054906101000a900473ffffffffffffffffffffffffffffffffffffffff1673ffffffffffffffffffffffffffffffffffffffff1673ffffffffffffffffffffffffffffffffffffffff1681525050905090565b6060600a805480602002602001604051908101604052809291908181526020016000905b82821015610da857838290600052602060002090600502016040518060e00160405290816000820154815260200160018201548152602001600282018054610bf590614dce565b80601f0160208091040260200160405190810160405280929190818152602001828054610c2190614dce565b8015610c6e5780601f10610c4357610100808354040283529160200191610c6e565b820191906000526020600020905b815481529060010190602001808311610c5157829003601f168201915b505050505081526020016003820160009054906101000a900460ff166004811115610c9c57610c9b613c94565b5b6004811115610cae57610cad613c94565b5b81526020016003820160019054906101000a900460ff166002811115610cd757610cd6613c94565b5b6002811115610ce957610ce8613c94565b5b81526020016003820160029054906101000a900473ffffffffffffffffffffffffffffffffffffffff1673ffffffffffffffffffffffffffffffffffffffff1673ffffffffffffffffffffffffffffffffffffffff1681526020016004820160009054906101000a900473ffffffffffffffffffffffffffffffffffffffff1673ffffffffffffffffffffffffffffffffffffffff1673ffffffffffffffffffffffffffffffffffffffff168152505081526020019060010190610bae565b50505050905090565b610db96139a2565b600560008373ffffffffffffffffffffffffffffffffffffffff1673ffffffffffffffffffffffffffffffffffffffff1681526020019081526020016000206040518060c001604052908160008201548152602001600182015481526020016002820160009054906101000a900460ff166004811115610e3c57610e3b613c94565b5b6004811115610e4e57610e4d613c94565b5b8152602001600382018054610e6290614dce565b80601f0160208091040260200160405190810160405280929190818152602001828054610e8e90614dce565b8015610edb5780601f10610eb057610100808354040283529160200191610edb565b820191906000526020600020905b815481529060010190602001808311610ebe57829003601f168201915b505050505081526020016004820160009054906101000a900473ffffffffffffffffffffffffffffffffffffffff1673ffffffffffffffffffffffffffffffffffffffff1673ffffffffffffffffffffffffffffffffffffffff1681526020016005820160009054906101000a900473ffffffffffffffffffffffffffffffffffffffff1673ffffffffffffffffffffffffffffffffffffffff1673ffffffffffffffffffffffffffffffffffffffff16815250509050919050565b60078181548110610fa757600080fd5b90600052602060002090600602016000915090508060000154908060010154908060020160009054906101000a900460ff1690806003018054610fe990614dce565b80601f016020809104026020016040519081016040528092919081815260200182805461101590614dce565b80156110625780601f1061103757610100808354040283529160200191611062565b820191906000526020600020905b81548152906001019060200180831161104557829003601f168201915b5050505050908060040160009054906101000a900473ffffffffffffffffffffffffffffffffffffffff16908060050160009054906101000a900473ffffffffffffffffffffffffffffffffffffffff16905086565b6110c0613a19565b600160008373ffffffffffffffffffffffffffffffffffffffff1673ffffffffffffffffffffffffffffffffffffffff1681526020019081526020016000206040518060e00160405290816000820154815260200160018201805461112490614dce565b80601f016020809104026020016040519081016040528092919081815260200182805461115090614dce565b801561119d5780601f106111725761010080835404028352916020019161119d565b820191906000526020600020905b81548152906001019060200180831161118057829003601f168201915b505050505081526020016002820154815260200160038201548152602001600482015481526020016005820160009054906101000a900460ff1660038111156111e9576111e8613c94565b5b60038111156111fb576111fa613c94565b5b81526020016005820160019054906101000a900473ffffffffffffffffffffffffffffffffffffffff1673ffffffffffffffffffffffffffffffffffffffff1673ffffffffffffffffffffffffffffffffffffffff16815250509050919050565b600c5481565b600a818154811061127257600080fd5b90600052602060002090600502016000915090508060000154908060010154908060020180546112a190614dce565b80601f01602080910402602001604051908101604052809291908181526020018280546112cd90614dce565b801561131a5780601f106112ef5761010080835404028352916020019161131a565b820191906000526020600020905b8154815290600101906020018083116112fd57829003601f168201915b5050505050908060030160009054906101000a900460ff16908060030160019054906101000a900460ff16908060030160029054906101000a900473ffffffffffffffffffffffffffffffffffffffff16908060040160009054906101000a900473ffffffffffffffffffffffffffffffffffffffff16905087565b60606007805480602002602001604051908101604052809291908181526020016000905b8282101561157957838290600052602060002090600602016040518060c001604052908160008201548152602001600182015481526020016002820160009054906101000a900460ff16600481111561141657611415613c94565b5b600481111561142857611427613c94565b5b815260200160038201805461143c90614dce565b80601f016020809104026020016040519081016040528092919081815260200182805461146890614dce565b80156114b55780601f1061148a576101008083540402835291602001916114b5565b820191906000526020600020905b81548152906001019060200180831161149857829003601f168201915b505050505081526020016004820160009054906101000a900473ffffffffffffffffffffffffffffffffffffffff1673ffffffffffffffffffffffffffffffffffffffff1673ffffffffffffffffffffffffffffffffffffffff1681526020016005820160009054906101000a900473ffffffffffffffffffffffffffffffffffffffff1673ffffffffffffffffffffffffffffffffffffffff1673ffffffffffffffffffffffffffffffffffffffff1681525050815260200190600101906113ba565b50505050905090565b600b6020528060005260406000206000915090508060000154908060010154908060020154908060030160009054906101000a900460ff16908060030160019054906101000a900460ff16908060030160029054906101000a900460ff16908060030160039054906101000a900473ffffffffffffffffffffffffffffffffffffffff16908060040160009054906101000a900473ffffffffffffffffffffffffffffffffffffffff16905088565b60056020528060005260406000206000915090508060000154908060010154908060020160009054906101000a900460ff169080600301805461167390614dce565b80601f016020809104026020016040519081016040528092919081815260200182805461169f90614dce565b80156116ec5780601f106116c1576101008083540402835291602001916116ec565b820191906000526020600020905b8154815290600101906020018083116116cf57829003601f168201915b5050505050908060040160009054906101000a900473ffffffffffffffffffffffffffffffffffffffff16908060050160009054906101000a900473ffffffffffffffffffffffffffffffffffffffff16905086565b600082600460009054906101000a900473ffffffffffffffffffffffffffffffffffffffff168360405160200161177b93929190614ecf565b6040516020818303038152906040528051906020012060001c905092915050565b60008054906101000a900473ffffffffffffffffffffffffffffffffffffffff1681565b8160038111156117d3576117d2613c94565b5b600160008373ffffffffffffffffffffffffffffffffffffffff1673ffffffffffffffffffffffffffffffffffffffff16815260200190815260200160002060050160006101000a81548160ff0219169083600381111561183757611836613c94565b5b02179055506000600160008373ffffffffffffffffffffffffffffffffffffffff1673ffffffffffffffffffffffffffffffffffffffff16815260200190815260200160002060000154905082600381111561189657611895613c94565b5b600282815481106118aa576118a9614d70565b5b906000526020600020906006020160050160006101000a81548160ff021916908360038111156118dd576118dc613c94565b5b02179055508260038111156118f5576118f4613c94565b5b600381111561190757611906613c94565b5b600160008473ffffffffffffffffffffffffffffffffffffffff1673ffffffffffffffffffffffffffffffffffffffff1681526020019081526020016000206001016040516119569190614f9c565b60405180910390208373ffffffffffffffffffffffffffffffffffffffff167f2a5f7967c96cddc740f1a8ce989263f3f3c239229941ff452b1b77f79e6a6d7d600160008773ffffffffffffffffffffffffffffffffffffffff1673ffffffffffffffffffffffffffffffffffffffff16815260200190815260200160002060020154600160008873ffffffffffffffffffffffffffffffffffffffff1673ffffffffffffffffffffffffffffffffffffffff16815260200190815260200160002060030154600160008973ffffffffffffffffffffffffffffffffffffffff1673ffffffffffffffffffffffffffffffffffffffff16815260200190815260200160002060040154604051611a6e93929190614fb3565b60405180910390a4505050565b600d8181548110611a8b57600080fd5b90600052602060002090600502016000915090508060000154908060010154908060020154908060030160009054906101000a900460ff16908060030160019054906101000a900460ff16908060030160029054906101000a900460ff16908060030160039054906101000a900473ffffffffffffffffffffffffffffffffffffffff16908060040160009054906101000a900473ffffffffffffffffffffffffffffffffffffffff16905088565b816002811115611b4d57611b4c613c94565b5b600b600086815260200190815260200160002060030160006101000a81548160ff02191690836002811115611b8557611b84613c94565b5b02179055506000600b6000868152602001908152602001600020600001549050826002811115611bb857611bb7613c94565b5b600d8281548110611bcc57611bcb614d70565b5b906000526020600020906005020160030160006101000a81548160ff02191690836002811115611bff57611bfe613c94565b5b021790555083600860008481526020019081526020016000206002019080519060200190611c2e929190613a87565b50826002811115611c4257611c41613c94565b5b6008600084815260200190815260200160002060030160016101000a81548160ff02191690836002811115611c7a57611c79613c94565b5b021790555060006008600084815260200190815260200160002060000154905084600a8281548110611caf57611cae614d70565b5b90600052602060002090600502016002019080519060200190611cd3929190613a87565b50836002811115611ce757611ce6613c94565b5b600a8281548110611cfb57611cfa614d70565b5b906000526020600020906005020160030160016101000a81548160ff02191690836002811115611d2e57611d2d613c94565b5b0217905550505050505050565b60028181548110611d4b57600080fd5b9060005260206000209060060201600091509050806000015490806001018054611d7490614dce565b80601f0160208091040260200160405190810160405280929190818152602001828054611da090614dce565b8015611ded5780601f10611dc257610100808354040283529160200191611ded565b820191906000526020600020905b815481529060010190602001808311611dd057829003601f168201915b5050505050908060020154908060030154908060040154908060050160009054906101000a900460ff16908060050160019054906101000a900473ffffffffffffffffffffffffffffffffffffffff16905087565b6001602052806000526040600020600091509050806000015490806001018054611e6b90614dce565b80601f0160208091040260200160405190810160405280929190818152602001828054611e9790614dce565b8015611ee45780601f10611eb957610100808354040283529160200191611ee4565b820191906000526020600020905b815481529060010190602001808311611ec757829003601f168201915b5050505050908060020154908060030154908060040154908060050160009054906101000a900460ff16908060050160019054906101000a900473ffffffffffffffffffffffffffffffffffffffff16905087565b6000611f7c6040518060400160405280601a81526020017f6373643f534073616c61733b646c413233345f442e3b735f6173000000000000815250600654611742565b9050600654600560008373ffffffffffffffffffffffffffffffffffffffff1673ffffffffffffffffffffffffffffffffffffffff1681526020019081526020016000206000018190555083600560008373ffffffffffffffffffffffffffffffffffffffff1673ffffffffffffffffffffffffffffffffffffffff1681526020019081526020016000206001018190555082600481111561202157612020613c94565b5b600560008373ffffffffffffffffffffffffffffffffffffffff1673ffffffffffffffffffffffffffffffffffffffff16815260200190815260200160002060020160006101000a81548160ff0219169083600481111561208557612084613c94565b5b021790555081600560008373ffffffffffffffffffffffffffffffffffffffff1673ffffffffffffffffffffffffffffffffffffffff16815260200190815260200160002060030190805190602001906120e0929190613a87565b5080600560008373ffffffffffffffffffffffffffffffffffffffff1673ffffffffffffffffffffffffffffffffffffffff16815260200190815260200160002060040160006101000a81548173ffffffffffffffffffffffffffffffffffffffff021916908373ffffffffffffffffffffffffffffffffffffffff160217905550600460009054906101000a900473ffffffffffffffffffffffffffffffffffffffff16600560008373ffffffffffffffffffffffffffffffffffffffff1673ffffffffffffffffffffffffffffffffffffffff16815260200190815260200160002060050160006101000a81548173ffffffffffffffffffffffffffffffffffffffff021916908373ffffffffffffffffffffffffffffffffffffffff1602179055507fb4d7cf766344f0dab6a272ab11f55b042f020c99154e4e44f886d87c15a296696006548585600481111561223d5761223c613c94565b5b8585600460009054906101000a900473ffffffffffffffffffffffffffffffffffffffff16426040516122769796959493929190614fea565b60405180910390a160076040518060c0016040528060065481526020018681526020018560048111156122ac576122ab613c94565b5b60048111156122be576122bd613c94565b5b81526020018481526020018373ffffffffffffffffffffffffffffffffffffffff168152602001600460009054906101000a900473ffffffffffffffffffffffffffffffffffffffff1673ffffffffffffffffffffffffffffffffffffffff168152509080600181540180825580915050600190039060005260206000209060060201600090919091909150600082015181600001556020820151816001015560408201518160020160006101000a81548160ff0219169083600481111561238957612388613c94565b5b021790555060608201518160030190805190602001906123aa929190613a87565b5060808201518160040160006101000a81548173ffffffffffffffffffffffffffffffffffffffff021916908373ffffffffffffffffffffffffffffffffffffffff16021790555060a08201518160050160006101000a81548173ffffffffffffffffffffffffffffffffffffffff021916908373ffffffffffffffffffffffffffffffffffffffff16021790555050506006600081548092919061244e90615060565b919050555050505050565b600860205280600052604060002060009150905080600001549080600101549080600201805461248890614dce565b80601f01602080910402602001604051908101604052809291908181526020018280546124b490614dce565b80156125015780601f106124d657610100808354040283529160200191612501565b820191906000526020600020905b8154815290600101906020018083116124e457829003601f168201915b5050505050908060030160009054906101000a900460ff16908060030160019054906101000a900460ff16908060030160029054906101000a900473ffffffffffffffffffffffffffffffffffffffff16908060040160009054906101000a900473ffffffffffffffffffffffffffffffffffffffff16905087565b60095481565b3373ffffffffffffffffffffffffffffffffffffffff1660008054906101000a900473ffffffffffffffffffffffffffffffffffffffff1673ffffffffffffffffffffffffffffffffffffffff1614612611576040517f08c379a0000000000000000000000000000000000000000000000000000000008152600401612608906150f5565b60405180910390fd5b600354600160008373ffffffffffffffffffffffffffffffffffffffff1673ffffffffffffffffffffffffffffffffffffffff1681526020019081526020016000206000018190555085600160008373ffffffffffffffffffffffffffffffffffffffff1673ffffffffffffffffffffffffffffffffffffffff16815260200190815260200160002060010190805190602001906126b0929190613a87565b5084600160008373ffffffffffffffffffffffffffffffffffffffff1673ffffffffffffffffffffffffffffffffffffffff1681526020019081526020016000206002018190555083600160008373ffffffffffffffffffffffffffffffffffffffff1673ffffffffffffffffffffffffffffffffffffffff1681526020019081526020016000206003018190555082600160008373ffffffffffffffffffffffffffffffffffffffff1673ffffffffffffffffffffffffffffffffffffffff1681526020019081526020016000206004018190555081600381111561279957612798613c94565b5b600160008373ffffffffffffffffffffffffffffffffffffffff1673ffffffffffffffffffffffffffffffffffffffff16815260200190815260200160002060050160006101000a81548160ff021916908360038111156127fd576127fc613c94565b5b021790555080600160008373ffffffffffffffffffffffffffffffffffffffff1673ffffffffffffffffffffffffffffffffffffffff16815260200190815260200160002060050160016101000a81548173ffffffffffffffffffffffffffffffffffffffff021916908373ffffffffffffffffffffffffffffffffffffffff16021790555081600381111561289657612895613c94565b5b60038111156128a8576128a7613c94565b5b866040516128b69190615115565b60405180910390208273ffffffffffffffffffffffffffffffffffffffff167f2a5f7967c96cddc740f1a8ce989263f3f3c239229941ff452b1b77f79e6a6d7d88888860405161290893929190614fb3565b60405180910390a460026040518060e0016040528060035481526020018881526020018781526020018681526020018581526020018460038111156129505761294f613c94565b5b600381111561296257612961613c94565b5b81526020018373ffffffffffffffffffffffffffffffffffffffff1681525090806001815401808255809150506001900390600052602060002090600602016000909190919091506000820151816000015560208201518160010190805190602001906129d0929190613a87565b5060408201518160020155606082015181600301556080820151816004015560a08201518160050160006101000a81548160ff02191690836003811115612a1a57612a19613c94565b5b021790555060c08201518160050160016101000a81548173ffffffffffffffffffffffffffffffffffffffff021916908373ffffffffffffffffffffffffffffffffffffffff160217905550505060036000815480929190612a7b90615060565b9190505550505050505050565b60035481565b60606002805480602002602001604051908101604052809291908181526020016000905b82821015612c2f57838290600052602060002090600602016040518060e001604052908160008201548152602001600182018054612aef90614dce565b80601f0160208091040260200160405190810160405280929190818152602001828054612b1b90614dce565b8015612b685780601f10612b3d57610100808354040283529160200191612b68565b820191906000526020600020905b815481529060010190602001808311612b4b57829003601f168201915b505050505081526020016002820154815260200160038201548152602001600482015481526020016005820160009054906101000a900460ff166003811115612bb457612bb3613c94565b5b6003811115612bc657612bc5613c94565b5b81526020016005820160019054906101000a900473ffffffffffffffffffffffffffffffffffffffff1673ffffffffffffffffffffffffffffffffffffffff1673ffffffffffffffffffffffffffffffffffffffff168152505081526020019060010190612ab2565b50505050905090565b600954600860006009548152602001908152602001600020600001819055508360086000600954815260200190815260200160002060010181905550604051806020016040528060008152506008600060095481526020019081526020016000206002019080519060200190612caf929190613a87565b50826004811115612cc357612cc2613c94565b5b60086000600954815260200190815260200160002060030160006101000a81548160ff02191690836004811115612cfd57612cfc613c94565b5b0217905550816002811115612d1557612d14613c94565b5b60086000600954815260200190815260200160002060030160016101000a81548160ff02191690836002811115612d4f57612d4e613c94565b5b02179055508060086000600954815260200190815260200160002060030160026101000a81548173ffffffffffffffffffffffffffffffffffffffff021916908373ffffffffffffffffffffffffffffffffffffffff160217905550600460009054906101000a900473ffffffffffffffffffffffffffffffffffffffff1660086000600954815260200190815260200160002060040160006101000a81548173ffffffffffffffffffffffffffffffffffffffff021916908373ffffffffffffffffffffffffffffffffffffffff160217905550612e33600954858486856132e3565b7f87be34239a6efbc76467dfcce1a731d31788afcf9f57c4d8dc9fc04fe871101360095485856004811115612e6b57612e6a613c94565b5b856002811115612e7e57612e7d613c94565b5b85600460009054906101000a900473ffffffffffffffffffffffffffffffffffffffff1642604051612eb69796959493929190615152565b60405180910390a1600a6040518060e001604052806009548152602001868152602001604051806020016040528060008152508152602001856004811115612f0157612f00613c94565b5b6004811115612f1357612f12613c94565b5b8152602001846002811115612f2b57612f2a613c94565b5b6002811115612f3d57612f3c613c94565b5b81526020018373ffffffffffffffffffffffffffffffffffffffff168152602001600460009054906101000a900473ffffffffffffffffffffffffffffffffffffffff1673ffffffffffffffffffffffffffffffffffffffff16815250908060018154018082558091505060019003906000526020600020906005020160009091909190915060008201518160000155602082015181600101556040820151816002019080519060200190612ff3929190613a87565b5060608201518160030160006101000a81548160ff0219169083600481111561301f5761301e613c94565b5b021790555060808201518160030160016101000a81548160ff0219169083600281111561304f5761304e613c94565b5b021790555060a08201518160030160026101000a81548173ffffffffffffffffffffffffffffffffffffffff021916908373ffffffffffffffffffffffffffffffffffffffff16021790555060c08201518160040160006101000a81548173ffffffffffffffffffffffffffffffffffffffff021916908373ffffffffffffffffffffffffffffffffffffffff1602179055505050600960008154809291906130f790615060565b919050555050505050565b6060600d805480602002602001604051908101604052809291908181526020016000905b828210156132d45783829060005260206000209060050201604051806101000160405290816000820154815260200160018201548152602001600282015481526020016003820160009054906101000a900460ff16600281111561318d5761318c613c94565b5b600281111561319f5761319e613c94565b5b81526020016003820160019054906101000a900460ff1660048111156131c8576131c7613c94565b5b60048111156131da576131d9613c94565b5b81526020016003820160029054906101000a900460ff16600181111561320357613202613c94565b5b600181111561321557613214613c94565b5b81526020016003820160039054906101000a900473ffffffffffffffffffffffffffffffffffffffff1673ffffffffffffffffffffffffffffffffffffffff1673ffffffffffffffffffffffffffffffffffffffff1681526020016004820160009054906101000a900473ffffffffffffffffffffffffffffffffffffffff1673ffffffffffffffffffffffffffffffffffffffff1673ffffffffffffffffffffffffffffffffffffffff168152505081526020019060010190613126565b50505050905090565b60065481565b6000600160048111156132f9576132f8613c94565b5b83600481111561330c5761330b613c94565b5b600481111561331e5761331d613c94565b5b148061336057506003600481111561333957613338613c94565b5b83600481111561334c5761334b613c94565b5b600481111561335e5761335d613c94565b5b145b806133a0575060048081111561337957613378613c94565b5b83600481111561338c5761338b613c94565b5b600481111561339e5761339d613c94565b5b145b156133ae57600090506133f3565b600260048111156133c2576133c1613c94565b5b8360048111156133d5576133d4613c94565b5b60048111156133e7576133e6613c94565b5b14156133f257600190505b5b613401868686868587613409565b505050505050565b600c54600b6000600c5481526020019081526020016000206000018190555085600b6000600c5481526020019081526020016000206001018190555084600b6000600c5481526020019081526020016000206002018190555083600281111561347557613474613c94565b5b600b6000600c54815260200190815260200160002060030160006101000a81548160ff021916908360028111156134af576134ae613c94565b5b02179055508260048111156134c7576134c6613c94565b5b600b6000600c54815260200190815260200160002060030160016101000a81548160ff0219169083600481111561350157613500613c94565b5b021790555081600b6000600c54815260200190815260200160002060030160026101000a81548160ff0219169083600181111561354157613540613c94565b5b021790555080600b6000600c54815260200190815260200160002060030160036101000a81548173ffffffffffffffffffffffffffffffffffffffff021916908373ffffffffffffffffffffffffffffffffffffffff160217905550600460009054906101000a900473ffffffffffffffffffffffffffffffffffffffff16600b6000600c54815260200190815260200160002060040160006101000a81548173ffffffffffffffffffffffffffffffffffffffff021916908373ffffffffffffffffffffffffffffffffffffffff1602179055507f25ffcb32903ff8c3a4d06cf14e0513c467ba41d315999a41ce245559e4fd524d600c54878787600281111561364f5761364e613c94565b5b87600481111561366257613661613c94565b5b8787600460009054906101000a900473ffffffffffffffffffffffffffffffffffffffff164260405161369d999897969594939291906151d5565b60405180910390a1600d604051806101000160405280600c5481526020018881526020018781526020018660028111156136da576136d9613c94565b5b60028111156136ec576136eb613c94565b5b815260200185600481111561370457613703613c94565b5b600481111561371657613715613c94565b5b815260200184600181111561372e5761372d613c94565b5b81526020018373ffffffffffffffffffffffffffffffffffffffff168152602001600460009054906101000a900473ffffffffffffffffffffffffffffffffffffffff1673ffffffffffffffffffffffffffffffffffffffff16815250908060018154018082558091505060019003906000526020600020906005020160009091909190915060008201518160000155602082015181600101556040820151816002015560608201518160030160006101000a81548160ff021916908360028111156137fd576137fc613c94565b5b021790555060808201518160030160016101000a81548160ff0219169083600481111561382d5761382c613c94565b5b021790555060a08201518160030160026101000a81548160ff0219169083600181111561385d5761385c613c94565b5b021790555060c08201518160030160036101000a81548173ffffffffffffffffffffffffffffffffffffffff021916908373ffffffffffffffffffffffffffffffffffffffff16021790555060e08201518160040160006101000a81548173ffffffffffffffffffffffffffffffffffffffff021916908373ffffffffffffffffffffffffffffffffffffffff1602179055505050600c600081548092919061390590615060565b9190505550505050505050565b6040518060e001604052806000815260200160008019168152602001606081526020016000600481111561394957613948613c94565b5b81526020016000600281111561396257613961613c94565b5b8152602001600073ffffffffffffffffffffffffffffffffffffffff168152602001600073ffffffffffffffffffffffffffffffffffffffff1681525090565b6040518060c001604052806000815260200160008019168152602001600060048111156139d2576139d1613c94565b5b815260200160608152602001600073ffffffffffffffffffffffffffffffffffffffff168152602001600073ffffffffffffffffffffffffffffffffffffffff1681525090565b6040518060e00160405280600081526020016060815260200160008019168152602001600080191681526020016000801916815260200160006003811115613a6457613a63613c94565b5b8152602001600073ffffffffffffffffffffffffffffffffffffffff1681525090565b828054613a9390614dce565b90600052602060002090601f016020900481019282613ab55760008555613afc565b82601f10613ace57805160ff1916838001178555613afc565b82800160010185558215613afc579182015b82811115613afb578251825591602001919060010190613ae0565b5b509050613b099190613b0d565b5090565b5b80821115613b26576000816000905550600101613b0e565b5090565b6000604051905090565b600080fd5b600080fd5b600073ffffffffffffffffffffffffffffffffffffffff82169050919050565b6000613b6982613b3e565b9050919050565b613b7981613b5e565b8114613b8457600080fd5b50565b600081359050613b9681613b70565b92915050565b600060208284031215613bb257613bb1613b34565b5b6000613bc084828501613b87565b91505092915050565b6000819050919050565b613bdc81613bc9565b82525050565b6000819050919050565b613bf581613be2565b82525050565b600081519050919050565b600082825260208201905092915050565b60005b83811015613c35578082015181840152602081019050613c1a565b83811115613c44576000848401525b50505050565b6000601f19601f8301169050919050565b6000613c6682613bfb565b613c708185613c06565b9350613c80818560208601613c17565b613c8981613c4a565b840191505092915050565b7f4e487b7100000000000000000000000000000000000000000000000000000000600052602160045260246000fd5b60058110613cd457613cd3613c94565b5b50565b6000819050613ce582613cc3565b919050565b6000613cf582613cd7565b9050919050565b613d0581613cea565b82525050565b60038110613d1c57613d1b613c94565b5b50565b6000819050613d2d82613d0b565b919050565b6000613d3d82613d1f565b9050919050565b613d4d81613d32565b82525050565b613d5c81613b5e565b82525050565b600060e083016000830151613d7a6000860182613bd3565b506020830151613d8d6020860182613bec565b5060408301518482036040860152613da58282613c5b565b9150506060830151613dba6060860182613cfc565b506080830151613dcd6080860182613d44565b5060a0830151613de060a0860182613d53565b5060c0830151613df360c0860182613d53565b508091505092915050565b60006020820190508181036000830152613e188184613d62565b905092915050565b600081519050919050565b600082825260208201905092915050565b6000819050602082019050919050565b600060e083016000830151613e646000860182613bd3565b506020830151613e776020860182613bec565b5060408301518482036040860152613e8f8282613c5b565b9150506060830151613ea46060860182613cfc565b506080830151613eb76080860182613d44565b5060a0830151613eca60a0860182613d53565b5060c0830151613edd60c0860182613d53565b508091505092915050565b6000613ef48383613e4c565b905092915050565b6000602082019050919050565b6000613f1482613e20565b613f1e8185613e2b565b935083602082028501613f3085613e3c565b8060005b85811015613f6c5784840389528151613f4d8582613ee8565b9450613f5883613efc565b925060208a01995050600181019050613f34565b50829750879550505050505092915050565b60006020820190508181036000830152613f988184613f09565b905092915050565b600060c083016000830151613fb86000860182613bd3565b506020830151613fcb6020860182613bec565b506040830151613fde6040860182613cfc565b5060608301518482036060860152613ff68282613c5b565b915050608083015161400b6080860182613d53565b5060a083015161401e60a0860182613d53565b508091505092915050565b600060208201905081810360008301526140438184613fa0565b905092915050565b61405481613bc9565b811461405f57600080fd5b50565b6000813590506140718161404b565b92915050565b60006020828403121561408d5761408c613b34565b5b600061409b84828501614062565b91505092915050565b6140ad81613bc9565b82525050565b6140bc81613be2565b82525050565b6140cb81613cea565b82525050565b600082825260208201905092915050565b60006140ed82613bfb565b6140f781856140d1565b9350614107818560208601613c17565b61411081613c4a565b840191505092915050565b61412481613b5e565b82525050565b600060c08201905061413f60008301896140a4565b61414c60208301886140b3565b61415960408301876140c2565b818103606083015261416b81866140e2565b905061417a608083018561411b565b61418760a083018461411b565b979650505050505050565b600481106141a3576141a2613c94565b5b50565b60008190506141b482614192565b919050565b60006141c4826141a6565b9050919050565b6141d4816141b9565b82525050565b600060e0830160008301516141f26000860182613bd3565b506020830151848203602086015261420a8282613c5b565b915050604083015161421f6040860182613bec565b5060608301516142326060860182613bec565b5060808301516142456080860182613bec565b5060a083015161425860a08601826141cb565b5060c083015161426b60c0860182613d53565b508091505092915050565b6000602082019050818103600083015261429081846141da565b905092915050565b60006020820190506142ad60008301846140a4565b92915050565b6142bc81613d32565b82525050565b600060e0820190506142d7600083018a6140a4565b6142e460208301896140b3565b81810360408301526142f681886140e2565b905061430560608301876140c2565b61431260808301866142b3565b61431f60a083018561411b565b61432c60c083018461411b565b98975050505050505050565b600081519050919050565b600082825260208201905092915050565b6000819050602082019050919050565b600060c08301600083015161437c6000860182613bd3565b50602083015161438f6020860182613bec565b5060408301516143a26040860182613cfc565b50606083015184820360608601526143ba8282613c5b565b91505060808301516143cf6080860182613d53565b5060a08301516143e260a0860182613d53565b508091505092915050565b60006143f98383614364565b905092915050565b6000602082019050919050565b600061441982614338565b6144238185614343565b93508360208202850161443585614354565b8060005b85811015614471578484038952815161445285826143ed565b945061445d83614401565b925060208a01995050600181019050614439565b50829750879550505050505092915050565b6000602082019050818103600083015261449d818461440e565b905092915050565b600281106144b6576144b5613c94565b5b50565b60008190506144c7826144a5565b919050565b60006144d7826144b9565b9050919050565b6144e7816144cc565b82525050565b600061010082019050614503600083018b6140a4565b614510602083018a6140a4565b61451d60408301896140b3565b61452a60608301886142b3565b61453760808301876140c2565b61454460a08301866144de565b61455160c083018561411b565b61455e60e083018461411b565b9998505050505050505050565b600080fd5b600080fd5b7f4e487b7100000000000000000000000000000000000000000000000000000000600052604160045260246000fd5b6145ad82613c4a565b810181811067ffffffffffffffff821117156145cc576145cb614575565b5b80604052505050565b60006145df613b2a565b90506145eb82826145a4565b919050565b600067ffffffffffffffff82111561460b5761460a614575565b5b61461482613c4a565b9050602081019050919050565b82818337600083830152505050565b600061464361463e846145f0565b6145d5565b90508281526020810184848401111561465f5761465e614570565b5b61466a848285614621565b509392505050565b600082601f8301126146875761468661456b565b5b8135614697848260208601614630565b91505092915050565b600080604083850312156146b7576146b6613b34565b5b600083013567ffffffffffffffff8111156146d5576146d4613b39565b5b6146e185828601614672565b92505060206146f285828601614062565b9150509250929050565b6000602082019050614711600083018461411b565b92915050565b6000806040838503121561472e5761472d613b34565b5b600061473c85828601614062565b925050602061474d85828601613b87565b9150509250929050565b6000806000806080858703121561477157614770613b34565b5b600061477f87828801614062565b945050602085013567ffffffffffffffff8111156147a05761479f613b39565b5b6147ac87828801614672565b93505060406147bd87828801614062565b92505060606147ce87828801614062565b91505092959194509250565b6147e3816141b9565b82525050565b600060e0820190506147fe600083018a6140a4565b818103602083015261481081896140e2565b905061481f60408301886140b3565b61482c60608301876140b3565b61483960808301866140b3565b61484660a08301856147da565b61485360c083018461411b565b98975050505050505050565b61486881613be2565b811461487357600080fd5b50565b6000813590506148858161485f565b92915050565b6000806000606084860312156148a4576148a3613b34565b5b60006148b286828701614876565b93505060206148c386828701614062565b925050604084013567ffffffffffffffff8111156148e4576148e3613b39565b5b6148f086828701614672565b9150509250925092565b60008060008060008060c0878903121561491757614916613b34565b5b600087013567ffffffffffffffff81111561493557614934613b39565b5b61494189828a01614672565b965050602061495289828a01614876565b955050604061496389828a01614876565b945050606061497489828a01614876565b935050608061498589828a01614062565b92505060a061499689828a01613b87565b9150509295509295509295565b600081519050919050565b600082825260208201905092915050565b6000819050602082019050919050565b600060e0830160008301516149e76000860182613bd3565b50602083015184820360208601526149ff8282613c5b565b9150506040830151614a146040860182613bec565b506060830151614a276060860182613bec565b506080830151614a3a6080860182613bec565b5060a0830151614a4d60a08601826141cb565b5060c0830151614a6060c0860182613d53565b508091505092915050565b6000614a7783836149cf565b905092915050565b6000602082019050919050565b6000614a97826149a3565b614aa181856149ae565b935083602082028501614ab3856149bf565b8060005b85811015614aef5784840389528151614ad08582614a6b565b9450614adb83614a7f565b925060208a01995050600181019050614ab7565b50829750879550505050505092915050565b60006020820190508181036000830152614b1b8184614a8c565b905092915050565b60008060008060808587031215614b3d57614b3c613b34565b5b6000614b4b87828801614876565b9450506020614b5c87828801614062565b9350506040614b6d87828801614062565b9250506060614b7e87828801613b87565b91505092959194509250565b600081519050919050565b600082825260208201905092915050565b6000819050602082019050919050565b614bbf816144cc565b82525050565b61010082016000820151614bdc6000850182613bd3565b506020820151614bef6020850182613bd3565b506040820151614c026040850182613bec565b506060820151614c156060850182613d44565b506080820151614c286080850182613cfc565b5060a0820151614c3b60a0850182614bb6565b5060c0820151614c4e60c0850182613d53565b5060e0820151614c6160e0850182613d53565b50505050565b6000614c738383614bc5565b6101008301905092915050565b6000602082019050919050565b6000614c9882614b8a565b614ca28185614b95565b9350614cad83614ba6565b8060005b83811015614cde578151614cc58882614c67565b9750614cd083614c80565b925050600181019050614cb1565b5085935050505092915050565b60006020820190508181036000830152614d058184614c8d565b905092915050565b7f4e487b7100000000000000000000000000000000000000000000000000000000600052601160045260246000fd5b6000614d4782613bc9565b9150614d5283613bc9565b925082821015614d6557614d64614d0d565b5b828203905092915050565b7f4e487b7100000000000000000000000000000000000000000000000000000000600052603260045260246000fd5b7f4e487b7100000000000000000000000000000000000000000000000000000000600052602260045260246000fd5b60006002820490506001821680614de657607f821691505b60208210811415614dfa57614df9614d9f565b5b50919050565b6000614e0b82613bc9565b91506000821415614e1f57614e1e614d0d565b5b600182039050919050565b600081905092915050565b6000614e4082613bfb565b614e4a8185614e2a565b9350614e5a818560208601613c17565b80840191505092915050565b60008160601b9050919050565b6000614e7e82614e66565b9050919050565b6000614e9082614e73565b9050919050565b614ea8614ea382613b5e565b614e85565b82525050565b6000819050919050565b614ec9614ec482613bc9565b614eae565b82525050565b6000614edb8286614e35565b9150614ee78285614e97565b601482019150614ef78284614eb8565b602082019150819050949350505050565b60008190508160005260206000209050919050565b60008154614f2a81614dce565b614f348186614e2a565b94506001821660008114614f4f5760018114614f6057614f93565b60ff19831686528186019350614f93565b614f6985614f08565b60005b83811015614f8b57815481890152600182019150602081019050614f6c565b838801955050505b50505092915050565b6000614fa88284614f1d565b915081905092915050565b6000606082019050614fc860008301866140b3565b614fd560208301856140b3565b614fe260408301846140b3565b949350505050565b600060e082019050614fff600083018a6140a4565b61500c60208301896140b3565b61501960408301886140c2565b818103606083015261502b81876140e2565b905061503a608083018661411b565b61504760a083018561411b565b61505460c08301846140a4565b98975050505050505050565b600061506b82613bc9565b91507fffffffffffffffffffffffffffffffffffffffffffffffffffffffffffffffff82141561509e5761509d614d0d565b5b600182019050919050565b7f596f7520617265206e6f7420616e206f776e6572000000000000000000000000600082015250565b60006150df6014836140d1565b91506150ea826150a9565b602082019050919050565b6000602082019050818103600083015261510e816150d2565b9050919050565b60006151218284614e35565b915081905092915050565b50565b600061513c6000836140d1565b91506151478261512c565b600082019050919050565b600061010082019050615168600083018a6140a4565b61517560208301896140b3565b81810360408301526151868161512f565b905061519560608301886140c2565b6151a260808301876142b3565b6151af60a083018661411b565b6151bc60c083018561411b565b6151c960e08301846140a4565b98975050505050505050565b6000610120820190506151eb600083018c6140a4565b6151f8602083018b6140a4565b615205604083018a6140b3565b61521260608301896142b3565b61521f60808301886140c2565b61522c60a08301876144de565b61523960c083018661411b565b61524660e083018561411b565b6152546101008301846140a4565b9a995050505050505050505056fea26469706673582212208211e252a3d34e9d4c4f893cfaf155b3527a1d1b14102d78855ad04f58e73fbb64736f6c634300080a0033",
  "immutableReferences": {},
  "source": "// SPDX-License-Identifier: MIT\r\npragma solidity >=0.8.0 <0.9.0;\r\n\r\nimport \"./UserChain.sol\";\r\nimport \"./CompanyChain.sol\";\r\nimport \"./SupervisorChain.sol\";\r\n\r\nimport \"./SharedChain.sol\";\r\n\r\n// Put constraints on the app based on role not address......\r\n\r\ncontract ProjectChain is UserChain, SharedChain {\r\n    string constant HASH_bytes32_VALUE = \"csd?S@salas;dlA234_D.;s_as\";\r\n    address _projectInitiator;\r\n\r\n    // Project Contract Data\r\n    mapping(address => Project) public projects;\r\n    uint public projectsCounter = 0;\r\n    Project[] public allProjects;\r\n\r\n    mapping(uint => ProjectRequest) public projectRequests;\r\n    uint public projectRequestsCounter = 0;\r\n    ProjectRequest[] public allProjectRequests;\r\n\r\n    constructor() {\r\n        _projectInitiator = msg.sender;\r\n    }\r\n\r\n    modifier onlyProjectInitiator {\r\n        require(users[_projectInitiator]._role == Roles.ProjectInitiator, \"You don't have the rights for this resources.\");\r\n        require(_projectInitiator == msg.sender, \"You are not a project initiator\");\r\n        _;\r\n    }\r\n\r\n    function createUniqueHexAddress(string memory _text, uint _index) public view returns (address) {\r\n        return address(uint160(uint256(keccak256(abi.encodePacked(_text, _projectInitiator, _index)))));\r\n    }\r\n\r\n    function createProject(bytes32 _name, uint _status, string memory _ipfsFileCID) public {\r\n        address _projectAddress = createUniqueHexAddress(HASH_bytes32_VALUE, projectsCounter);\r\n\r\n        projects[_projectAddress]._index = projectsCounter;\r\n        projects[_projectAddress]._name = _name;\r\n        projects[_projectAddress]._status = ProjectStatus(_status);\r\n        projects[_projectAddress]._ipfsFileCID = _ipfsFileCID;\r\n        projects[_projectAddress]._projectAddress = _projectAddress;\r\n        projects[_projectAddress]._userAddress = _projectInitiator;\r\n\r\n        emit ProjectEvent(\r\n            projectsCounter,\r\n            _name,\r\n            ProjectStatus(_status),\r\n            _ipfsFileCID,\r\n            _projectAddress,\r\n            _projectInitiator,\r\n            block.timestamp\r\n        );\r\n        allProjects.push(Project(\r\n            projectsCounter, _name, ProjectStatus(_status),\r\n            _ipfsFileCID, _projectAddress, _projectInitiator\r\n        ));\r\n        projectsCounter++;\r\n    }\r\n\r\n    function getProjectInfo(address _address) public view returns (Project memory) {\r\n        return projects[_address];\r\n    }\r\n\r\n    function getAllProjects() public view returns(Project[] memory) {\r\n        return allProjects;\r\n    }\r\n\r\n    function createProjectRequest(\r\n        bytes32 _title, uint _status,\r\n        uint _requestStatus, address _projectAddress\r\n    ) public {\r\n        projectRequests[projectRequestsCounter]._index = projectRequestsCounter;\r\n        projectRequests[projectRequestsCounter]._title = _title;\r\n        projectRequests[projectRequestsCounter]._comments = '';\r\n        projectRequests[projectRequestsCounter]._status = ProjectStatus(_status);\r\n        projectRequests[projectRequestsCounter]._requestStatus = RequestStatus(_requestStatus);\r\n        projectRequests[projectRequestsCounter]._projectAddress = _projectAddress;\r\n        projectRequests[projectRequestsCounter]._userAddress = _projectInitiator;\r\n\r\n        filterRequests(projectRequestsCounter, _title, _requestStatus, _status, _projectAddress);\r\n\r\n        emit ProjectRequestEvent(\r\n            projectRequestsCounter,\r\n            _title,\r\n            '',\r\n            ProjectStatus(_status),\r\n            RequestStatus(_requestStatus),\r\n            _projectAddress,\r\n            _projectInitiator,\r\n            block.timestamp\r\n        );\r\n        allProjectRequests.push(ProjectRequest(\r\n            projectRequestsCounter, _title, '', ProjectStatus(_status),\r\n            RequestStatus(_requestStatus), _projectAddress, _projectInitiator\r\n        ));\r\n        projectRequestsCounter++;\r\n    }\r\n\r\n    function filterRequests(\r\n        uint _indexProjectRequest,\r\n        bytes32 _title,\r\n        uint _requestStatus,\r\n        uint _projectStatus,\r\n        address _projectAddress\r\n    ) internal {\r\n        RequestType _requestType;\r\n        if (\r\n            ProjectStatus(_projectStatus) == ProjectStatus.ToApprove ||\r\n            ProjectStatus(_projectStatus) == ProjectStatus.FinalizationCheck ||\r\n            ProjectStatus(_projectStatus) == ProjectStatus.Completed\r\n        ) {\r\n            _requestType = RequestType.SupervisorReq;\r\n        } else if (ProjectStatus(_projectStatus) == ProjectStatus.StartProject) {\r\n            _requestType = RequestType.CompanyReq;\r\n        }\r\n        createRequest(_indexProjectRequest, _title, _requestStatus, _projectStatus, _requestType, _projectAddress);\r\n    }\r\n\r\n    function getAllProjectRequests() external view returns(ProjectRequest[] memory) {\r\n        return allProjectRequests;\r\n    }\r\n\r\n    function getLastProjectRequest(address _projectAddress) external view returns(ProjectRequest memory) {\r\n        ProjectRequest memory request;\r\n        if (allProjectRequests.length > 0) {\r\n            for (uint index = allProjectRequests.length - 1; index >= 0; index--) {\r\n                if (_projectAddress == allProjectRequests[index]._projectAddress) {\r\n                    request._index = allProjectRequests[index]._index;\r\n                    request._title = allProjectRequests[index]._title;\r\n                    request._comments = allProjectRequests[index]._comments;\r\n                    request._status = allProjectRequests[index]._status;\r\n                    request._requestStatus = allProjectRequests[index]._requestStatus;\r\n                    request._projectAddress = allProjectRequests[index]._projectAddress;\r\n                    request._userAddress = allProjectRequests[index]._userAddress;\r\n                    return request;\r\n                }\r\n            }\r\n        }\r\n        return request;\r\n    }\r\n\r\n    function getLastProjectRequestWorked() external view returns(ProjectRequest memory) {\r\n        //ProjectRequest memory request = allProjectRequests[0];\r\n        //for (uint index = allProjectRequests.length - 1; index > 0; index--) {\r\n        //}\r\n        return allProjectRequests[0];\r\n    }\r\n\r\n\r\n\r\n    // They will be filter after the status of the requests\r\n    mapping(uint => Request) public requests;\r\n    uint public requestsCounter = 0;\r\n    Request[] public allRequests;\r\n\r\n    function createRequest(\r\n        uint _indexProjectRequest,\r\n        bytes32 _title,\r\n        uint _requestStatus,\r\n        uint _projectStatus,\r\n        RequestType _requestType,\r\n        address _projectAddress\r\n    ) internal {\r\n        requests[requestsCounter]._index = requestsCounter;\r\n        requests[requestsCounter]._indexProjectRequest = _indexProjectRequest;\r\n        requests[requestsCounter]._title = _title;\r\n        requests[requestsCounter]._requestStatus = RequestStatus(_requestStatus);\r\n        requests[requestsCounter]._projectStatus = ProjectStatus(_projectStatus);\r\n        requests[requestsCounter]._requestType = _requestType;\r\n        requests[requestsCounter]._projectAddress = _projectAddress;\r\n        // change to supervisorAddress\r\n        requests[requestsCounter]._userAddress = _projectInitiator;\r\n\r\n        emit RequestEvent(\r\n            requestsCounter,\r\n            _indexProjectRequest,\r\n            _title,\r\n            RequestStatus(_requestStatus),\r\n            ProjectStatus(_projectStatus),\r\n            _requestType, _projectAddress,\r\n            _projectInitiator,\r\n            block.timestamp\r\n        );\r\n        allRequests.push(Request(\r\n            requestsCounter, _indexProjectRequest, _title,  RequestStatus(_requestStatus),\r\n            ProjectStatus(_projectStatus),  _requestType, _projectAddress, _projectInitiator\r\n        ));\r\n        requestsCounter++;\r\n    }\r\n\r\n    function updateRequest(uint _index, string memory _comments, uint _requestStatus, uint _indexProjectRequest) public {\r\n        requests[_index]._requestStatus = RequestStatus(_requestStatus);\r\n        uint index = requests[_index]._index;\r\n        allRequests[index]._requestStatus = RequestStatus(_requestStatus);\r\n\r\n        projectRequests[_indexProjectRequest]._comments = _comments;\r\n        projectRequests[_indexProjectRequest]._requestStatus = RequestStatus(_requestStatus);\r\n        uint indexProject = projectRequests[_indexProjectRequest]._index;\r\n        allProjectRequests[indexProject]._comments = _comments;\r\n        allProjectRequests[indexProject]._requestStatus = RequestStatus(_requestStatus);\r\n    }\r\n\r\n    function getAllRequests() public view returns(Request[] memory) {\r\n        return allRequests;\r\n    }\r\n\r\n}\r\n",
  "sourcePath": "/mnt/c/users/beniamin/source/repos/dissertationproject/contracts/ProjectChain.sol",
  "compiler": {
    "name": "solc",
    "version": "0.8.10+commit.fc410830.Emscripten.clang"
  },
  "schemaVersion": "3.4.3",
  "updatedAt": "2021-11-22T07:05:04.036Z",
  "networkType": "ethereum",
  "devdoc": {
    "kind": "dev",
    "methods": {},
    "version": 1
  },
  "userdoc": {
    "kind": "user",
    "methods": {},
    "version": 1
  }
}