{
  "contractName": "ProjectChain",
  "abi": [
    {
      "inputs": [],
      "stateMutability": "nonpayable",
      "type": "constructor"
    },
    {
      "anonymous": false,
      "inputs": [
        {
          "indexed": false,
          "internalType": "uint256",
          "name": "_index",
          "type": "uint256"
        },
        {
          "indexed": false,
          "internalType": "bytes32",
          "name": "_name",
          "type": "bytes32"
        },
        {
          "indexed": false,
          "internalType": "enum SharedChain.ProjectStatus",
          "name": "_status",
          "type": "uint8"
        },
        {
          "indexed": false,
          "internalType": "string",
          "name": "_ipfsFileCID",
          "type": "string"
        },
        {
          "indexed": false,
          "internalType": "address",
          "name": "_projectAddress",
          "type": "address"
        },
        {
          "indexed": false,
          "internalType": "address",
          "name": "_userAddress",
          "type": "address"
        },
        {
          "indexed": false,
          "internalType": "uint256",
          "name": "_timestamp",
          "type": "uint256"
        },
        {
          "indexed": false,
          "internalType": "bytes32",
          "name": "_signature",
          "type": "bytes32"
        }
      ],
      "name": "ProjectEvent",
      "type": "event"
    },
    {
      "anonymous": false,
      "inputs": [
        {
          "indexed": false,
          "internalType": "uint256",
          "name": "_index",
          "type": "uint256"
        },
        {
          "indexed": false,
          "internalType": "bytes32",
          "name": "_title",
          "type": "bytes32"
        },
        {
          "indexed": false,
          "internalType": "string",
          "name": "_comments",
          "type": "string"
        },
        {
          "indexed": false,
          "internalType": "enum SharedChain.ProjectStatus",
          "name": "_status",
          "type": "uint8"
        },
        {
          "indexed": false,
          "internalType": "enum SharedChain.RequestStatus",
          "name": "_requestStatus",
          "type": "uint8"
        },
        {
          "indexed": false,
          "internalType": "address",
          "name": "_projectAddress",
          "type": "address"
        },
        {
          "indexed": false,
          "internalType": "address",
          "name": "_userAddress",
          "type": "address"
        },
        {
          "indexed": false,
          "internalType": "address",
          "name": "_requestAddress",
          "type": "address"
        },
        {
          "indexed": false,
          "internalType": "uint256",
          "name": "_timestamp",
          "type": "uint256"
        },
        {
          "indexed": false,
          "internalType": "bytes32",
          "name": "_signature",
          "type": "bytes32"
        }
      ],
      "name": "ProjectRequestEvent",
      "type": "event"
    },
    {
      "anonymous": false,
      "inputs": [
        {
          "indexed": false,
          "internalType": "uint256",
          "name": "_index",
          "type": "uint256"
        },
        {
          "indexed": false,
          "internalType": "uint256",
          "name": "_indexProjectRequest",
          "type": "uint256"
        },
        {
          "indexed": false,
          "internalType": "bytes32",
          "name": "_title",
          "type": "bytes32"
        },
        {
          "indexed": false,
          "internalType": "enum SharedChain.RequestStatus",
          "name": "_status",
          "type": "uint8"
        },
        {
          "indexed": false,
          "internalType": "enum SharedChain.ProjectStatus",
          "name": "_projectStatus",
          "type": "uint8"
        },
        {
          "indexed": false,
          "internalType": "enum SharedChain.RequestType",
          "name": "_requestType",
          "type": "uint8"
        },
        {
          "indexed": false,
          "internalType": "address",
          "name": "_projectAddress",
          "type": "address"
        },
        {
          "indexed": false,
          "internalType": "address",
          "name": "_userAddress",
          "type": "address"
        },
        {
          "indexed": false,
          "internalType": "address",
          "name": "_requestAddress",
          "type": "address"
        },
        {
          "indexed": false,
          "internalType": "uint256",
          "name": "_timestamp",
          "type": "uint256"
        },
        {
          "indexed": false,
          "internalType": "bytes32",
          "name": "_signature",
          "type": "bytes32"
        }
      ],
      "name": "RequestEvent",
      "type": "event"
    },
    {
      "anonymous": false,
      "inputs": [
        {
          "indexed": false,
          "internalType": "uint256",
          "name": "_index",
          "type": "uint256"
        },
        {
          "indexed": true,
          "internalType": "string",
          "name": "_username",
          "type": "string"
        },
        {
          "indexed": false,
          "internalType": "bytes32",
          "name": "_email",
          "type": "bytes32"
        },
        {
          "indexed": false,
          "internalType": "bytes32",
          "name": "_firstname",
          "type": "bytes32"
        },
        {
          "indexed": false,
          "internalType": "bytes32",
          "name": "_lastname",
          "type": "bytes32"
        },
        {
          "indexed": true,
          "internalType": "enum UserChain.Roles",
          "name": "_role",
          "type": "uint8"
        },
        {
          "indexed": true,
          "internalType": "address",
          "name": "_walletAddress",
          "type": "address"
        },
        {
          "indexed": false,
          "internalType": "uint256",
          "name": "_timestamp",
          "type": "uint256"
        }
      ],
      "name": "UserEvent",
      "type": "event"
    },
    {
      "inputs": [
        {
          "internalType": "uint256",
          "name": "_role",
          "type": "uint256"
        },
        {
          "internalType": "address",
          "name": "_walletAddress",
          "type": "address"
        }
      ],
      "name": "changeUserRole",
      "outputs": [],
      "stateMutability": "nonpayable",
      "type": "function"
    },
    {
      "inputs": [],
      "name": "getAllUsers",
      "outputs": [
        {
          "components": [
            {
              "internalType": "uint256",
              "name": "_index",
              "type": "uint256"
            },
            {
              "internalType": "string",
              "name": "_username",
              "type": "string"
            },
            {
              "internalType": "bytes32",
              "name": "_email",
              "type": "bytes32"
            },
            {
              "internalType": "bytes32",
              "name": "_firstname",
              "type": "bytes32"
            },
            {
              "internalType": "bytes32",
              "name": "_lastname",
              "type": "bytes32"
            },
            {
              "internalType": "enum UserChain.Roles",
              "name": "_role",
              "type": "uint8"
            },
            {
              "internalType": "address",
              "name": "_walletAddress",
              "type": "address"
            },
            {
              "internalType": "uint256",
              "name": "_timestamp",
              "type": "uint256"
            }
          ],
          "internalType": "struct UserChain.User[]",
          "name": "",
          "type": "tuple[]"
        }
      ],
      "stateMutability": "view",
      "type": "function",
      "constant": true
    },
    {
      "inputs": [
        {
          "internalType": "address",
          "name": "_walletAddress",
          "type": "address"
        }
      ],
      "name": "getUserInfo",
      "outputs": [
        {
          "components": [
            {
              "internalType": "uint256",
              "name": "_index",
              "type": "uint256"
            },
            {
              "internalType": "string",
              "name": "_username",
              "type": "string"
            },
            {
              "internalType": "bytes32",
              "name": "_email",
              "type": "bytes32"
            },
            {
              "internalType": "bytes32",
              "name": "_firstname",
              "type": "bytes32"
            },
            {
              "internalType": "bytes32",
              "name": "_lastname",
              "type": "bytes32"
            },
            {
              "internalType": "enum UserChain.Roles",
              "name": "_role",
              "type": "uint8"
            },
            {
              "internalType": "address",
              "name": "_walletAddress",
              "type": "address"
            },
            {
              "internalType": "uint256",
              "name": "_timestamp",
              "type": "uint256"
            }
          ],
          "internalType": "struct UserChain.User",
          "name": "",
          "type": "tuple"
        }
      ],
      "stateMutability": "view",
      "type": "function",
      "constant": true
    },
    {
      "inputs": [],
      "name": "owner",
      "outputs": [
        {
          "internalType": "address",
          "name": "",
          "type": "address"
        }
      ],
      "stateMutability": "view",
      "type": "function",
      "constant": true
    },
    {
      "inputs": [
        {
          "internalType": "uint256",
          "name": "",
          "type": "uint256"
        }
      ],
      "name": "projectRequests",
      "outputs": [
        {
          "internalType": "uint256",
          "name": "_index",
          "type": "uint256"
        },
        {
          "internalType": "bytes32",
          "name": "_title",
          "type": "bytes32"
        },
        {
          "internalType": "string",
          "name": "_comments",
          "type": "string"
        },
        {
          "internalType": "enum SharedChain.ProjectStatus",
          "name": "_status",
          "type": "uint8"
        },
        {
          "internalType": "enum SharedChain.RequestStatus",
          "name": "_requestStatus",
          "type": "uint8"
        },
        {
          "internalType": "address",
          "name": "_projectAddress",
          "type": "address"
        },
        {
          "internalType": "address",
          "name": "_userAddress",
          "type": "address"
        },
        {
          "internalType": "address",
          "name": "_requestAddress",
          "type": "address"
        },
        {
          "internalType": "uint256",
          "name": "_timestamp",
          "type": "uint256"
        },
        {
          "internalType": "bytes32",
          "name": "_signature",
          "type": "bytes32"
        }
      ],
      "stateMutability": "view",
      "type": "function",
      "constant": true
    },
    {
      "inputs": [
        {
          "internalType": "uint256",
          "name": "",
          "type": "uint256"
        }
      ],
      "name": "projectRequestsAddress",
      "outputs": [
        {
          "internalType": "address",
          "name": "",
          "type": "address"
        }
      ],
      "stateMutability": "view",
      "type": "function",
      "constant": true
    },
    {
      "inputs": [],
      "name": "projectRequestsCounter",
      "outputs": [
        {
          "internalType": "uint256",
          "name": "",
          "type": "uint256"
        }
      ],
      "stateMutability": "view",
      "type": "function",
      "constant": true
    },
    {
      "inputs": [
        {
          "internalType": "address",
          "name": "",
          "type": "address"
        }
      ],
      "name": "projects",
      "outputs": [
        {
          "internalType": "uint256",
          "name": "_index",
          "type": "uint256"
        },
        {
          "internalType": "bytes32",
          "name": "_name",
          "type": "bytes32"
        },
        {
          "internalType": "enum SharedChain.ProjectStatus",
          "name": "_status",
          "type": "uint8"
        },
        {
          "internalType": "string",
          "name": "_ipfsFileCID",
          "type": "string"
        },
        {
          "internalType": "address",
          "name": "_projectAddress",
          "type": "address"
        },
        {
          "internalType": "address",
          "name": "_userAddress",
          "type": "address"
        },
        {
          "internalType": "uint256",
          "name": "_timestamp",
          "type": "uint256"
        },
        {
          "internalType": "bytes32",
          "name": "_signature",
          "type": "bytes32"
        }
      ],
      "stateMutability": "view",
      "type": "function",
      "constant": true
    },
    {
      "inputs": [
        {
          "internalType": "uint256",
          "name": "",
          "type": "uint256"
        }
      ],
      "name": "projectsAddress",
      "outputs": [
        {
          "internalType": "address",
          "name": "",
          "type": "address"
        }
      ],
      "stateMutability": "view",
      "type": "function",
      "constant": true
    },
    {
      "inputs": [],
      "name": "projectsCounter",
      "outputs": [
        {
          "internalType": "uint256",
          "name": "",
          "type": "uint256"
        }
      ],
      "stateMutability": "view",
      "type": "function",
      "constant": true
    },
    {
      "inputs": [
        {
          "internalType": "string",
          "name": "_username",
          "type": "string"
        },
        {
          "internalType": "bytes32",
          "name": "_email",
          "type": "bytes32"
        },
        {
          "internalType": "bytes32",
          "name": "_firstname",
          "type": "bytes32"
        },
        {
          "internalType": "bytes32",
          "name": "_lastname",
          "type": "bytes32"
        },
        {
          "internalType": "uint256",
          "name": "_role",
          "type": "uint256"
        },
        {
          "internalType": "address",
          "name": "_walletAddress",
          "type": "address"
        }
      ],
      "name": "registerUser",
      "outputs": [],
      "stateMutability": "nonpayable",
      "type": "function"
    },
    {
      "inputs": [
        {
          "internalType": "uint256",
          "name": "",
          "type": "uint256"
        }
      ],
      "name": "requests",
      "outputs": [
        {
          "internalType": "uint256",
          "name": "_index",
          "type": "uint256"
        },
        {
          "internalType": "uint256",
          "name": "_indexProjectRequest",
          "type": "uint256"
        },
        {
          "internalType": "bytes32",
          "name": "_title",
          "type": "bytes32"
        },
        {
          "internalType": "enum SharedChain.RequestStatus",
          "name": "_requestStatus",
          "type": "uint8"
        },
        {
          "internalType": "enum SharedChain.ProjectStatus",
          "name": "_projectStatus",
          "type": "uint8"
        },
        {
          "internalType": "enum SharedChain.RequestType",
          "name": "_requestType",
          "type": "uint8"
        },
        {
          "internalType": "address",
          "name": "_projectAddress",
          "type": "address"
        },
        {
          "internalType": "address",
          "name": "_userAddress",
          "type": "address"
        },
        {
          "internalType": "address",
          "name": "_requestAddress",
          "type": "address"
        },
        {
          "internalType": "uint256",
          "name": "_timestamp",
          "type": "uint256"
        },
        {
          "internalType": "bytes32",
          "name": "_signature",
          "type": "bytes32"
        }
      ],
      "stateMutability": "view",
      "type": "function",
      "constant": true
    },
    {
      "inputs": [
        {
          "internalType": "uint256",
          "name": "",
          "type": "uint256"
        }
      ],
      "name": "requestsAddress",
      "outputs": [
        {
          "internalType": "address",
          "name": "",
          "type": "address"
        }
      ],
      "stateMutability": "view",
      "type": "function",
      "constant": true
    },
    {
      "inputs": [],
      "name": "requestsCounter",
      "outputs": [
        {
          "internalType": "uint256",
          "name": "",
          "type": "uint256"
        }
      ],
      "stateMutability": "view",
      "type": "function",
      "constant": true
    },
    {
      "inputs": [
        {
          "internalType": "address",
          "name": "",
          "type": "address"
        }
      ],
      "name": "users",
      "outputs": [
        {
          "internalType": "uint256",
          "name": "_index",
          "type": "uint256"
        },
        {
          "internalType": "string",
          "name": "_username",
          "type": "string"
        },
        {
          "internalType": "bytes32",
          "name": "_email",
          "type": "bytes32"
        },
        {
          "internalType": "bytes32",
          "name": "_firstname",
          "type": "bytes32"
        },
        {
          "internalType": "bytes32",
          "name": "_lastname",
          "type": "bytes32"
        },
        {
          "internalType": "enum UserChain.Roles",
          "name": "_role",
          "type": "uint8"
        },
        {
          "internalType": "address",
          "name": "_walletAddress",
          "type": "address"
        },
        {
          "internalType": "uint256",
          "name": "_timestamp",
          "type": "uint256"
        }
      ],
      "stateMutability": "view",
      "type": "function",
      "constant": true
    },
    {
      "inputs": [
        {
          "internalType": "uint256",
          "name": "",
          "type": "uint256"
        }
      ],
      "name": "usersAddress",
      "outputs": [
        {
          "internalType": "address",
          "name": "",
          "type": "address"
        }
      ],
      "stateMutability": "view",
      "type": "function",
      "constant": true
    },
    {
      "inputs": [],
      "name": "usersCounter",
      "outputs": [
        {
          "internalType": "uint256",
          "name": "",
          "type": "uint256"
        }
      ],
      "stateMutability": "view",
      "type": "function",
      "constant": true
    },
    {
      "inputs": [],
      "name": "createUniqueProjectAddress",
      "outputs": [
        {
          "internalType": "address",
          "name": "",
          "type": "address"
        }
      ],
      "stateMutability": "nonpayable",
      "type": "function"
    },
    {
      "inputs": [
        {
          "internalType": "address",
          "name": "_projectAddress",
          "type": "address"
        },
        {
          "internalType": "bytes32",
          "name": "_name",
          "type": "bytes32"
        },
        {
          "internalType": "uint256",
          "name": "_status",
          "type": "uint256"
        },
        {
          "internalType": "string",
          "name": "_ipfsFileCID",
          "type": "string"
        },
        {
          "internalType": "bytes32",
          "name": "_signature",
          "type": "bytes32"
        }
      ],
      "name": "createProject",
      "outputs": [],
      "stateMutability": "nonpayable",
      "type": "function"
    },
    {
      "inputs": [
        {
          "internalType": "address",
          "name": "_address",
          "type": "address"
        }
      ],
      "name": "getProjectInfo",
      "outputs": [
        {
          "components": [
            {
              "internalType": "uint256",
              "name": "_index",
              "type": "uint256"
            },
            {
              "internalType": "bytes32",
              "name": "_name",
              "type": "bytes32"
            },
            {
              "internalType": "enum SharedChain.ProjectStatus",
              "name": "_status",
              "type": "uint8"
            },
            {
              "internalType": "string",
              "name": "_ipfsFileCID",
              "type": "string"
            },
            {
              "internalType": "address",
              "name": "_projectAddress",
              "type": "address"
            },
            {
              "internalType": "address",
              "name": "_userAddress",
              "type": "address"
            },
            {
              "internalType": "uint256",
              "name": "_timestamp",
              "type": "uint256"
            },
            {
              "internalType": "bytes32",
              "name": "_signature",
              "type": "bytes32"
            }
          ],
          "internalType": "struct SharedChain.Project",
          "name": "",
          "type": "tuple"
        }
      ],
      "stateMutability": "view",
      "type": "function",
      "constant": true
    },
    {
      "inputs": [],
      "name": "getAllProjects",
      "outputs": [
        {
          "components": [
            {
              "internalType": "uint256",
              "name": "_index",
              "type": "uint256"
            },
            {
              "internalType": "bytes32",
              "name": "_name",
              "type": "bytes32"
            },
            {
              "internalType": "enum SharedChain.ProjectStatus",
              "name": "_status",
              "type": "uint8"
            },
            {
              "internalType": "string",
              "name": "_ipfsFileCID",
              "type": "string"
            },
            {
              "internalType": "address",
              "name": "_projectAddress",
              "type": "address"
            },
            {
              "internalType": "address",
              "name": "_userAddress",
              "type": "address"
            },
            {
              "internalType": "uint256",
              "name": "_timestamp",
              "type": "uint256"
            },
            {
              "internalType": "bytes32",
              "name": "_signature",
              "type": "bytes32"
            }
          ],
          "internalType": "struct SharedChain.Project[]",
          "name": "",
          "type": "tuple[]"
        }
      ],
      "stateMutability": "view",
      "type": "function",
      "constant": true
    },
    {
      "inputs": [],
      "name": "createUniqueProjectRequestAddress",
      "outputs": [
        {
          "internalType": "address",
          "name": "",
          "type": "address"
        }
      ],
      "stateMutability": "nonpayable",
      "type": "function"
    },
    {
      "inputs": [
        {
          "internalType": "bytes32",
          "name": "_title",
          "type": "bytes32"
        },
        {
          "internalType": "uint256",
          "name": "_status",
          "type": "uint256"
        },
        {
          "internalType": "uint256",
          "name": "_requestStatus",
          "type": "uint256"
        },
        {
          "internalType": "address",
          "name": "_projectAddress",
          "type": "address"
        },
        {
          "internalType": "address",
          "name": "_projectReqAddress",
          "type": "address"
        },
        {
          "internalType": "bytes32",
          "name": "_signature",
          "type": "bytes32"
        }
      ],
      "name": "createProjectRequest",
      "outputs": [],
      "stateMutability": "nonpayable",
      "type": "function"
    },
    {
      "inputs": [],
      "name": "getAllProjectRequests",
      "outputs": [
        {
          "components": [
            {
              "internalType": "uint256",
              "name": "_index",
              "type": "uint256"
            },
            {
              "internalType": "bytes32",
              "name": "_title",
              "type": "bytes32"
            },
            {
              "internalType": "string",
              "name": "_comments",
              "type": "string"
            },
            {
              "internalType": "enum SharedChain.ProjectStatus",
              "name": "_status",
              "type": "uint8"
            },
            {
              "internalType": "enum SharedChain.RequestStatus",
              "name": "_requestStatus",
              "type": "uint8"
            },
            {
              "internalType": "address",
              "name": "_projectAddress",
              "type": "address"
            },
            {
              "internalType": "address",
              "name": "_userAddress",
              "type": "address"
            },
            {
              "internalType": "address",
              "name": "_requestAddress",
              "type": "address"
            },
            {
              "internalType": "uint256",
              "name": "_timestamp",
              "type": "uint256"
            },
            {
              "internalType": "bytes32",
              "name": "_signature",
              "type": "bytes32"
            }
          ],
          "internalType": "struct SharedChain.ProjectRequest[]",
          "name": "",
          "type": "tuple[]"
        }
      ],
      "stateMutability": "view",
      "type": "function",
      "constant": true
    },
    {
      "inputs": [
        {
          "internalType": "address",
          "name": "_projectAddress",
          "type": "address"
        }
      ],
      "name": "getLastProjectRequest",
      "outputs": [
        {
          "components": [
            {
              "internalType": "uint256",
              "name": "_index",
              "type": "uint256"
            },
            {
              "internalType": "bytes32",
              "name": "_title",
              "type": "bytes32"
            },
            {
              "internalType": "string",
              "name": "_comments",
              "type": "string"
            },
            {
              "internalType": "enum SharedChain.ProjectStatus",
              "name": "_status",
              "type": "uint8"
            },
            {
              "internalType": "enum SharedChain.RequestStatus",
              "name": "_requestStatus",
              "type": "uint8"
            },
            {
              "internalType": "address",
              "name": "_projectAddress",
              "type": "address"
            },
            {
              "internalType": "address",
              "name": "_userAddress",
              "type": "address"
            },
            {
              "internalType": "address",
              "name": "_requestAddress",
              "type": "address"
            },
            {
              "internalType": "uint256",
              "name": "_timestamp",
              "type": "uint256"
            },
            {
              "internalType": "bytes32",
              "name": "_signature",
              "type": "bytes32"
            }
          ],
          "internalType": "struct SharedChain.ProjectRequest",
          "name": "",
          "type": "tuple"
        }
      ],
      "stateMutability": "view",
      "type": "function",
      "constant": true
    },
    {
      "inputs": [
        {
          "internalType": "uint256",
          "name": "_index",
          "type": "uint256"
        },
        {
          "internalType": "uint256",
          "name": "_indexProjectRequest",
          "type": "uint256"
        },
        {
          "internalType": "string",
          "name": "_comments",
          "type": "string"
        },
        {
          "internalType": "uint256",
          "name": "_requestStatus",
          "type": "uint256"
        },
        {
          "internalType": "uint256",
          "name": "_projectStatus",
          "type": "uint256"
        },
        {
          "internalType": "address",
          "name": "_projectAddress",
          "type": "address"
        },
        {
          "internalType": "bytes32",
          "name": "_signature",
          "type": "bytes32"
        }
      ],
      "name": "updateRequest",
      "outputs": [],
      "stateMutability": "nonpayable",
      "type": "function"
    },
    {
      "inputs": [],
      "name": "getAllRequests",
      "outputs": [
        {
          "components": [
            {
              "internalType": "uint256",
              "name": "_index",
              "type": "uint256"
            },
            {
              "internalType": "uint256",
              "name": "_indexProjectRequest",
              "type": "uint256"
            },
            {
              "internalType": "bytes32",
              "name": "_title",
              "type": "bytes32"
            },
            {
              "internalType": "enum SharedChain.RequestStatus",
              "name": "_requestStatus",
              "type": "uint8"
            },
            {
              "internalType": "enum SharedChain.ProjectStatus",
              "name": "_projectStatus",
              "type": "uint8"
            },
            {
              "internalType": "enum SharedChain.RequestType",
              "name": "_requestType",
              "type": "uint8"
            },
            {
              "internalType": "address",
              "name": "_projectAddress",
              "type": "address"
            },
            {
              "internalType": "address",
              "name": "_userAddress",
              "type": "address"
            },
            {
              "internalType": "address",
              "name": "_requestAddress",
              "type": "address"
            },
            {
              "internalType": "uint256",
              "name": "_timestamp",
              "type": "uint256"
            },
            {
              "internalType": "bytes32",
              "name": "_signature",
              "type": "bytes32"
            }
          ],
          "internalType": "struct SharedChain.Request[]",
          "name": "",
          "type": "tuple[]"
        }
      ],
      "stateMutability": "view",
      "type": "function",
      "constant": true
    }
  ],
  "bytecode": "0x60806040526000600355600060055560006007556000600a556000600d5534801561002957600080fd5b50336000806101000a81548173ffffffffffffffffffffffffffffffffffffffff021916908373ffffffffffffffffffffffffffffffffffffffff16021790555033600460006101000a81548173ffffffffffffffffffffffffffffffffffffffff021916908373ffffffffffffffffffffffffffffffffffffffff160217905550614d79806100ba6000396000f3fe608060405234801561001057600080fd5b50600436106101a95760003560e01c806380d03829116100f9578063c19ded1311610097578063d67b1b9911610071578063d67b1b991461053d578063e2842d791461055b578063fb1a002a14610579578063fe360ea514610597576101a9565b8063c19ded13146104ca578063cc1ee4db14610503578063cf13f5d414610521576101a9565b80638b1dd959116100d35780638b1dd9591461043d5780638da5cb5b146104595780639100978614610477578063a87430ba14610493576101a9565b806380d03829146103ae57806381d12c58146103cc578063840e78fd14610406576101a9565b806347ee45b9116101665780636386c1c7116101405780636386c1c714610300578063663c22691461033057806376c932e01461034e57806378e8cd851461037e576101a9565b806347ee45b9146102825780634d93500d146102b257806356a3eead146102d0576101a9565b80630b287892146101ae57806311389f54146101de57806317e8c952146101fa5780632c91324c14610218578063400003db1461024857806347c2485c14610266575b600080fd5b6101c860048036038101906101c3919061348d565b6105b5565b6040516101d5919061372d565b60405180910390f35b6101f860048036038101906101f391906137a7565b6108f5565b005b610202610cae565b60405161020f9190613843565b60405180910390f35b610232600480360381019061022d919061385e565b610d3f565b60405161023f9190613843565b60405180910390f35b610250610d7e565b60405161025d9190613a27565b60405180910390f35b610280600480360381019061027b9190613b7e565b611077565b005b61029c6004803603810190610297919061348d565b611367565b6040516102a99190613cc5565b60405180910390f35b6102ba611562565b6040516102c79190613843565b60405180910390f35b6102ea60048036038101906102e5919061385e565b6115f3565b6040516102f79190613843565b60405180910390f35b61031a6004803603810190610315919061348d565b611632565b6040516103279190613ddf565b60405180910390f35b6103386117e1565b6040516103459190613e10565b60405180910390f35b6103686004803603810190610363919061385e565b6117e7565b6040516103759190613843565b60405180910390f35b6103986004803603810190610393919061385e565b611826565b6040516103a59190613843565b60405180910390f35b6103b6611865565b6040516103c39190613f9d565b60405180910390f35b6103e660048036038101906103e1919061385e565b611b3d565b6040516103fd9b9a99989796959493929190614034565b60405180910390f35b610420600480360381019061041b919061348d565b611c1e565b604051610434989796959493929190614129565b60405180910390f35b610457600480360381019061045291906141ae565b611d3b565b005b610461611ea6565b60405161046e9190613843565b60405180910390f35b610491600480360381019061048c919061426c565b611eca565b005b6104ad60048036038101906104a8919061348d565b612124565b6040516104c19897969594939291906142bb565b60405180910390f35b6104e460048036038101906104df919061385e565b612221565b6040516104fa9a99989796959493929190614340565b60405180910390f35b61050b612377565b6040516105189190613e10565b60405180910390f35b61053b600480360381019061053691906143e3565b61237d565b005b61054561269f565b6040516105529190613e10565b60405180910390f35b6105636126a5565b60405161057091906145fe565b60405180910390f35b610581612931565b60405161058e91906147c0565b60405180910390f35b61059f612bdd565b6040516105ac9190613e10565b60405180910390f35b6105bd6130e2565b6105c56130e2565b6000600a5411156108eb5760006001600a546105e19190614811565b90505b600081106108e9576009600082815260200190815260200160002060030160029054906101000a900473ffffffffffffffffffffffffffffffffffffffff1673ffffffffffffffffffffffffffffffffffffffff168473ffffffffffffffffffffffffffffffffffffffff1614156108d65760405180610140016040528060096000848152602001908152602001600020600001548152602001600960008481526020019081526020016000206001015481526020016009600084815260200190815260200160002060020180546106bb90614874565b80601f01602080910402602001604051908101604052809291908181526020018280546106e790614874565b80156107345780601f1061070957610100808354040283529160200191610734565b820191906000526020600020905b81548152906001019060200180831161071757829003601f168201915b505050505081526020016009600084815260200190815260200160002060030160009054906101000a900460ff16600481111561077457610773613585565b5b81526020016009600084815260200190815260200160002060030160019054906101000a900460ff1660028111156107af576107ae613585565b5b81526020016009600084815260200190815260200160002060030160029054906101000a900473ffffffffffffffffffffffffffffffffffffffff1673ffffffffffffffffffffffffffffffffffffffff1681526020016009600084815260200190815260200160002060040160009054906101000a900473ffffffffffffffffffffffffffffffffffffffff1673ffffffffffffffffffffffffffffffffffffffff1681526020016009600084815260200190815260200160002060050160009054906101000a900473ffffffffffffffffffffffffffffffffffffffff1673ffffffffffffffffffffffffffffffffffffffff1681526020014281526020016009600084815260200190815260200160002060070154815250915081925050506108f0565b80806108e1906148a6565b9150506105e4565b505b809150505b919050565b604051806101400160405280600a54815260200187815260200160405180602001604052806000815250815260200186600481111561093757610936613585565b5b600481111561094957610948613585565b5b815260200185600281111561096157610960613585565b5b600281111561097357610972613585565b5b81526020018473ffffffffffffffffffffffffffffffffffffffff168152602001600460009054906101000a900473ffffffffffffffffffffffffffffffffffffffff1673ffffffffffffffffffffffffffffffffffffffff1681526020018373ffffffffffffffffffffffffffffffffffffffff1681526020014281526020018281525060096000600a54815260200190815260200160002060008201518160000155602082015181600101556040820151816002019080519060200190610a3d9291906131a1565b5060608201518160030160006101000a81548160ff02191690836004811115610a6957610a68613585565b5b021790555060808201518160030160016101000a81548160ff02191690836002811115610a9957610a98613585565b5b021790555060a08201518160030160026101000a81548173ffffffffffffffffffffffffffffffffffffffff021916908373ffffffffffffffffffffffffffffffffffffffff16021790555060c08201518160040160006101000a81548173ffffffffffffffffffffffffffffffffffffffff021916908373ffffffffffffffffffffffffffffffffffffffff16021790555060e08201518160050160006101000a81548173ffffffffffffffffffffffffffffffffffffffff021916908373ffffffffffffffffffffffffffffffffffffffff16021790555061010082015181600601556101208201518160070155905050610b9c600a548786888787612be3565b7f90583ca8ead7c14ff92850c7bb66c4dbe2b936e5357ab8774fca965e7ffb4486600a5487876004811115610bd457610bd3613585565b5b876002811115610be757610be6613585565b5b87600460009054906101000a900473ffffffffffffffffffffffffffffffffffffffff16884289604051610c23999897969594939291906148f6565b60405180910390a1600b829080600181540180825580915050600190039060005260206000200160009091909190916101000a81548173ffffffffffffffffffffffffffffffffffffffff021916908373ffffffffffffffffffffffffffffffffffffffff160217905550600a6000815480929190610ca190614997565b9190505550505050505050565b600060056000815480929190610cc390614997565b91905055507f6373643f2e213f2a73616c61733b646c412e3b735f6173000000000000000000600460009054906101000a900473ffffffffffffffffffffffffffffffffffffffff16600554604051602001610d2193929190614a6a565b6040516020818303038152906040528051906020012060001c905090565b60028181548110610d4f57600080fd5b906000526020600020016000915054906101000a900473ffffffffffffffffffffffffffffffffffffffff1681565b60606000600a5467ffffffffffffffff811115610d9e57610d9d613a53565b5b604051908082528060200260200182016040528015610dd757816020015b610dc46130e2565b815260200190600190039081610dbc5790505b50905060005b60075481101561106f57600060096000838152602001908152602001600020905080604051806101400160405290816000820154815260200160018201548152602001600282018054610e2f90614874565b80601f0160208091040260200160405190810160405280929190818152602001828054610e5b90614874565b8015610ea85780601f10610e7d57610100808354040283529160200191610ea8565b820191906000526020600020905b815481529060010190602001808311610e8b57829003601f168201915b505050505081526020016003820160009054906101000a900460ff166004811115610ed657610ed5613585565b5b6004811115610ee857610ee7613585565b5b81526020016003820160019054906101000a900460ff166002811115610f1157610f10613585565b5b6002811115610f2357610f22613585565b5b81526020016003820160029054906101000a900473ffffffffffffffffffffffffffffffffffffffff1673ffffffffffffffffffffffffffffffffffffffff1673ffffffffffffffffffffffffffffffffffffffff1681526020016004820160009054906101000a900473ffffffffffffffffffffffffffffffffffffffff1673ffffffffffffffffffffffffffffffffffffffff1673ffffffffffffffffffffffffffffffffffffffff1681526020016005820160009054906101000a900473ffffffffffffffffffffffffffffffffffffffff1673ffffffffffffffffffffffffffffffffffffffff1673ffffffffffffffffffffffffffffffffffffffff168152602001600682015481526020016007820154815250508383815181106110505761104f614aa7565b5b602002602001018190525050808061106790614997565b915050610ddd565b508091505090565b60405180610100016040528060075481526020018581526020018460048111156110a4576110a3613585565b5b60048111156110b6576110b5613585565b5b81526020018381526020018673ffffffffffffffffffffffffffffffffffffffff168152602001600460009054906101000a900473ffffffffffffffffffffffffffffffffffffffff1673ffffffffffffffffffffffffffffffffffffffff16815260200142815260200182815250600660008773ffffffffffffffffffffffffffffffffffffffff1673ffffffffffffffffffffffffffffffffffffffff168152602001908152602001600020600082015181600001556020820151816001015560408201518160020160006101000a81548160ff021916908360048111156111a3576111a2613585565b5b021790555060608201518160030190805190602001906111c49291906131a1565b5060808201518160040160006101000a81548173ffffffffffffffffffffffffffffffffffffffff021916908373ffffffffffffffffffffffffffffffffffffffff16021790555060a08201518160050160006101000a81548173ffffffffffffffffffffffffffffffffffffffff021916908373ffffffffffffffffffffffffffffffffffffffff16021790555060c0820151816006015560e082015181600701559050507ff2265692fdcb7284199661816e9f39943f05d9164a772dbe50150284b61e18b4600754858560048111156112a2576112a1613585565b5b8589600460009054906101000a900473ffffffffffffffffffffffffffffffffffffffff1642886040516112dd989796959493929190614129565b60405180910390a16008859080600181540180825580915050600190039060005260206000200160009091909190916101000a81548173ffffffffffffffffffffffffffffffffffffffff021916908373ffffffffffffffffffffffffffffffffffffffff1602179055506007600081548092919061135b90614997565b91905055505050505050565b61136f613227565b600660008373ffffffffffffffffffffffffffffffffffffffff1673ffffffffffffffffffffffffffffffffffffffff1681526020019081526020016000206040518061010001604052908160008201548152602001600182015481526020016002820160009054906101000a900460ff1660048111156113f3576113f2613585565b5b600481111561140557611404613585565b5b815260200160038201805461141990614874565b80601f016020809104026020016040519081016040528092919081815260200182805461144590614874565b80156114925780601f1061146757610100808354040283529160200191611492565b820191906000526020600020905b81548152906001019060200180831161147557829003601f168201915b505050505081526020016004820160009054906101000a900473ffffffffffffffffffffffffffffffffffffffff1673ffffffffffffffffffffffffffffffffffffffff1673ffffffffffffffffffffffffffffffffffffffff1681526020016005820160009054906101000a900473ffffffffffffffffffffffffffffffffffffffff1673ffffffffffffffffffffffffffffffffffffffff1673ffffffffffffffffffffffffffffffffffffffff168152602001600682015481526020016007820154815250509050919050565b60006005600081548092919061157790614997565b91905055507f6373643f534073616c61733b646c413233345f442e3b735f6173000000000000600460009054906101000a900473ffffffffffffffffffffffffffffffffffffffff166005546040516020016115d593929190614a6a565b6040516020818303038152906040528051906020012060001c905090565b600e818154811061160357600080fd5b906000526020600020016000915054906101000a900473ffffffffffffffffffffffffffffffffffffffff1681565b61163a6132b0565b600160008373ffffffffffffffffffffffffffffffffffffffff1673ffffffffffffffffffffffffffffffffffffffff168152602001908152602001600020604051806101000160405290816000820154815260200160018201805461169f90614874565b80601f01602080910402602001604051908101604052809291908181526020018280546116cb90614874565b80156117185780601f106116ed57610100808354040283529160200191611718565b820191906000526020600020905b8154815290600101906020018083116116fb57829003601f168201915b505050505081526020016002820154815260200160038201548152602001600482015481526020016005820160009054906101000a900460ff16600381111561176457611763613585565b5b600381111561177657611775613585565b5b81526020016005820160019054906101000a900473ffffffffffffffffffffffffffffffffffffffff1673ffffffffffffffffffffffffffffffffffffffff1673ffffffffffffffffffffffffffffffffffffffff1681526020016006820154815250509050919050565b600d5481565b600881815481106117f757600080fd5b906000526020600020016000915054906101000a900473ffffffffffffffffffffffffffffffffffffffff1681565b600b818154811061183657600080fd5b906000526020600020016000915054906101000a900473ffffffffffffffffffffffffffffffffffffffff1681565b6060600060075467ffffffffffffffff81111561188557611884613a53565b5b6040519080825280602002602001820160405280156118be57816020015b6118ab613227565b8152602001906001900390816118a35790505b50905060005b600754811015611b35576000600882815481106118e4576118e3614aa7565b5b9060005260206000200160009054906101000a900473ffffffffffffffffffffffffffffffffffffffff1690506000600660008373ffffffffffffffffffffffffffffffffffffffff1673ffffffffffffffffffffffffffffffffffffffff1681526020019081526020016000209050806040518061010001604052908160008201548152602001600182015481526020016002820160009054906101000a900460ff16600481111561199a57611999613585565b5b60048111156119ac576119ab613585565b5b81526020016003820180546119c090614874565b80601f01602080910402602001604051908101604052809291908181526020018280546119ec90614874565b8015611a395780601f10611a0e57610100808354040283529160200191611a39565b820191906000526020600020905b815481529060010190602001808311611a1c57829003601f168201915b505050505081526020016004820160009054906101000a900473ffffffffffffffffffffffffffffffffffffffff1673ffffffffffffffffffffffffffffffffffffffff1673ffffffffffffffffffffffffffffffffffffffff1681526020016005820160009054906101000a900473ffffffffffffffffffffffffffffffffffffffff1673ffffffffffffffffffffffffffffffffffffffff1673ffffffffffffffffffffffffffffffffffffffff16815260200160068201548152602001600782015481525050848481518110611b1557611b14614aa7565b5b602002602001018190525050508080611b2d90614997565b9150506118c4565b508091505090565b600c6020528060005260406000206000915090508060000154908060010154908060020154908060030160009054906101000a900460ff16908060030160019054906101000a900460ff16908060030160029054906101000a900460ff16908060030160039054906101000a900473ffffffffffffffffffffffffffffffffffffffff16908060040160009054906101000a900473ffffffffffffffffffffffffffffffffffffffff16908060050160009054906101000a900473ffffffffffffffffffffffffffffffffffffffff1690806006015490806007015490508b565b60066020528060005260406000206000915090508060000154908060010154908060020160009054906101000a900460ff1690806003018054611c6090614874565b80601f0160208091040260200160405190810160405280929190818152602001828054611c8c90614874565b8015611cd95780601f10611cae57610100808354040283529160200191611cd9565b820191906000526020600020905b815481529060010190602001808311611cbc57829003601f168201915b5050505050908060040160009054906101000a900473ffffffffffffffffffffffffffffffffffffffff16908060050160009054906101000a900473ffffffffffffffffffffffffffffffffffffffff16908060060154908060070154905088565b836002811115611d4e57611d4d613585565b5b600c600089815260200190815260200160002060030160006101000a81548160ff02191690836002811115611d8657611d85613585565b5b021790555080600c60008981526020019081526020016000206007018190555084600960008881526020019081526020016000206002019080519060200190611dd09291906131a1565b50836002811115611de457611de3613585565b5b6009600088815260200190815260200160002060030160016101000a81548160ff02191690836002811115611e1c57611e1b613585565b5b0217905550826004811115611e3457611e33613585565b5b600660008473ffffffffffffffffffffffffffffffffffffffff1673ffffffffffffffffffffffffffffffffffffffff16815260200190815260200160002060020160006101000a81548160ff02191690836004811115611e9857611e97613585565b5b021790555050505050505050565b60008054906101000a900473ffffffffffffffffffffffffffffffffffffffff1681565b816003811115611edd57611edc613585565b5b600160008373ffffffffffffffffffffffffffffffffffffffff1673ffffffffffffffffffffffffffffffffffffffff16815260200190815260200160002060050160006101000a81548160ff02191690836003811115611f4157611f40613585565b5b02179055508073ffffffffffffffffffffffffffffffffffffffff16826003811115611f7057611f6f613585565b5b6003811115611f8257611f81613585565b5b600160008473ffffffffffffffffffffffffffffffffffffffff1673ffffffffffffffffffffffffffffffffffffffff168152602001908152602001600020600101604051611fd19190614b75565b60405180910390207ff17f3effabbd51830c4ffa8b6910ac12573d210009e0aedb1a55ae5026192e9a600160008673ffffffffffffffffffffffffffffffffffffffff1673ffffffffffffffffffffffffffffffffffffffff16815260200190815260200160002060000154600160008773ffffffffffffffffffffffffffffffffffffffff1673ffffffffffffffffffffffffffffffffffffffff16815260200190815260200160002060020154600160008873ffffffffffffffffffffffffffffffffffffffff1673ffffffffffffffffffffffffffffffffffffffff16815260200190815260200160002060030154600160008973ffffffffffffffffffffffffffffffffffffffff1673ffffffffffffffffffffffffffffffffffffffff1681526020019081526020016000206004015442604051612118959493929190614b8c565b60405180910390a45050565b600160205280600052604060002060009150905080600001549080600101805461214d90614874565b80601f016020809104026020016040519081016040528092919081815260200182805461217990614874565b80156121c65780601f1061219b576101008083540402835291602001916121c6565b820191906000526020600020905b8154815290600101906020018083116121a957829003601f168201915b5050505050908060020154908060030154908060040154908060050160009054906101000a900460ff16908060050160019054906101000a900473ffffffffffffffffffffffffffffffffffffffff16908060060154905088565b600960205280600052604060002060009150905080600001549080600101549080600201805461225090614874565b80601f016020809104026020016040519081016040528092919081815260200182805461227c90614874565b80156122c95780601f1061229e576101008083540402835291602001916122c9565b820191906000526020600020905b8154815290600101906020018083116122ac57829003601f168201915b5050505050908060030160009054906101000a900460ff16908060030160019054906101000a900460ff16908060030160029054906101000a900473ffffffffffffffffffffffffffffffffffffffff16908060040160009054906101000a900473ffffffffffffffffffffffffffffffffffffffff16908060050160009054906101000a900473ffffffffffffffffffffffffffffffffffffffff1690806006015490806007015490508a565b600a5481565b3373ffffffffffffffffffffffffffffffffffffffff1660008054906101000a900473ffffffffffffffffffffffffffffffffffffffff1673ffffffffffffffffffffffffffffffffffffffff161461240b576040517f08c379a000000000000000000000000000000000000000000000000000000000815260040161240290614c2b565b60405180910390fd5b604051806101000160405280600354815260200187815260200186815260200185815260200184815260200183600381111561244a57612449613585565b5b600381111561245c5761245b613585565b5b81526020018273ffffffffffffffffffffffffffffffffffffffff16815260200142815250600160008373ffffffffffffffffffffffffffffffffffffffff1673ffffffffffffffffffffffffffffffffffffffff1681526020019081526020016000206000820151816000015560208201518160010190805190602001906124e69291906131a1565b5060408201518160020155606082015181600301556080820151816004015560a08201518160050160006101000a81548160ff021916908360038111156125305761252f613585565b5b021790555060c08201518160050160016101000a81548173ffffffffffffffffffffffffffffffffffffffff021916908373ffffffffffffffffffffffffffffffffffffffff16021790555060e082015181600601559050508073ffffffffffffffffffffffffffffffffffffffff168260038111156125b3576125b2613585565b5b60038111156125c5576125c4613585565b5b876040516125d39190614c7c565b60405180910390207ff17f3effabbd51830c4ffa8b6910ac12573d210009e0aedb1a55ae5026192e9a60035489898942604051612614959493929190614b8c565b60405180910390a46002819080600181540180825580915050600190039060005260206000200160009091909190916101000a81548173ffffffffffffffffffffffffffffffffffffffff021916908373ffffffffffffffffffffffffffffffffffffffff1602179055506003600081548092919061269290614997565b9190505550505050505050565b60035481565b6060600060035467ffffffffffffffff8111156126c5576126c4613a53565b5b6040519080825280602002602001820160405280156126fe57816020015b6126eb6132b0565b8152602001906001900390816126e35790505b50905060005b6003548110156129295760006002828154811061272457612723614aa7565b5b9060005260206000200160009054906101000a900473ffffffffffffffffffffffffffffffffffffffff1690506000600160008373ffffffffffffffffffffffffffffffffffffffff1673ffffffffffffffffffffffffffffffffffffffff16815260200190815260200160002090508060405180610100016040529081600082015481526020016001820180546127bb90614874565b80601f01602080910402602001604051908101604052809291908181526020018280546127e790614874565b80156128345780601f1061280957610100808354040283529160200191612834565b820191906000526020600020905b81548152906001019060200180831161281757829003601f168201915b505050505081526020016002820154815260200160038201548152602001600482015481526020016005820160009054906101000a900460ff1660038111156128805761287f613585565b5b600381111561289257612891613585565b5b81526020016005820160019054906101000a900473ffffffffffffffffffffffffffffffffffffffff1673ffffffffffffffffffffffffffffffffffffffff1673ffffffffffffffffffffffffffffffffffffffff16815260200160068201548152505084848151811061290957612908614aa7565b5b60200260200101819052505050808061292190614997565b915050612704565b508091505090565b60606000600d5467ffffffffffffffff81111561295157612950613a53565b5b60405190808252806020026020018201604052801561298a57816020015b612977613326565b81526020019060019003908161296f5790505b50905060005b600d54811015612bd5576000600c6000838152602001908152602001600020905080604051806101600160405290816000820154815260200160018201548152602001600282015481526020016003820160009054906101000a900460ff166002811115612a0157612a00613585565b5b6002811115612a1357612a12613585565b5b81526020016003820160019054906101000a900460ff166004811115612a3c57612a3b613585565b5b6004811115612a4e57612a4d613585565b5b81526020016003820160029054906101000a900460ff166001811115612a7757612a76613585565b5b6001811115612a8957612a88613585565b5b81526020016003820160039054906101000a900473ffffffffffffffffffffffffffffffffffffffff1673ffffffffffffffffffffffffffffffffffffffff1673ffffffffffffffffffffffffffffffffffffffff1681526020016004820160009054906101000a900473ffffffffffffffffffffffffffffffffffffffff1673ffffffffffffffffffffffffffffffffffffffff1673ffffffffffffffffffffffffffffffffffffffff1681526020016005820160009054906101000a900473ffffffffffffffffffffffffffffffffffffffff1673ffffffffffffffffffffffffffffffffffffffff1673ffffffffffffffffffffffffffffffffffffffff16815260200160068201548152602001600782015481525050838381518110612bb657612bb5614aa7565b5b6020026020010181905250508080612bcd90614997565b915050612990565b508091505090565b60075481565b600060016004811115612bf957612bf8613585565b5b846004811115612c0c57612c0b613585565b5b6004811115612c1e57612c1d613585565b5b1480612c60575060036004811115612c3957612c38613585565b5b846004811115612c4c57612c4b613585565b5b6004811115612c5e57612c5d613585565b5b145b80612ca05750600480811115612c7957612c78613585565b5b846004811115612c8c57612c8b613585565b5b6004811115612c9e57612c9d613585565b5b145b15612cae5760009050612cf3565b60026004811115612cc257612cc1613585565b5b846004811115612cd557612cd4613585565b5b6004811115612ce757612ce6613585565b5b1415612cf257600190505b5b612d0287878787858888612d0b565b50505050505050565b604051806101600160405280600d548152602001888152602001878152602001866002811115612d3e57612d3d613585565b5b6002811115612d5057612d4f613585565b5b8152602001856004811115612d6857612d67613585565b5b6004811115612d7a57612d79613585565b5b8152602001846001811115612d9257612d91613585565b5b81526020018373ffffffffffffffffffffffffffffffffffffffff168152602001600460009054906101000a900473ffffffffffffffffffffffffffffffffffffffff1673ffffffffffffffffffffffffffffffffffffffff1681526020018273ffffffffffffffffffffffffffffffffffffffff1681526020014281526020016000801916815250600c6000600d54815260200190815260200160002060008201518160000155602082015181600101556040820151816002015560608201518160030160006101000a81548160ff02191690836002811115612e7957612e78613585565b5b021790555060808201518160030160016101000a81548160ff02191690836004811115612ea957612ea8613585565b5b021790555060a08201518160030160026101000a81548160ff02191690836001811115612ed957612ed8613585565b5b021790555060c08201518160030160036101000a81548173ffffffffffffffffffffffffffffffffffffffff021916908373ffffffffffffffffffffffffffffffffffffffff16021790555060e08201518160040160006101000a81548173ffffffffffffffffffffffffffffffffffffffff021916908373ffffffffffffffffffffffffffffffffffffffff1602179055506101008201518160050160006101000a81548173ffffffffffffffffffffffffffffffffffffffff021916908373ffffffffffffffffffffffffffffffffffffffff160217905550610120820151816006015561014082015181600701559050507faac9d1362d2ae7196557149fecbb467805d15ac910dbaba92fa94d1ac1e6a4b5600d54888888600281111561300657613005613585565b5b88600481111561301957613018613585565b5b8888600460009054906101000a900473ffffffffffffffffffffffffffffffffffffffff1689426040516130569a99989796959493929190614c9a565b60405180910390a1600e819080600181540180825580915050600190039060005260206000200160009091909190916101000a81548173ffffffffffffffffffffffffffffffffffffffff021916908373ffffffffffffffffffffffffffffffffffffffff160217905550600d60008154809291906130d490614997565b919050555050505050505050565b6040518061014001604052806000815260200160008019168152602001606081526020016000600481111561311a57613119613585565b5b81526020016000600281111561313357613132613585565b5b8152602001600073ffffffffffffffffffffffffffffffffffffffff168152602001600073ffffffffffffffffffffffffffffffffffffffff168152602001600073ffffffffffffffffffffffffffffffffffffffff16815260200160008152602001600080191681525090565b8280546131ad90614874565b90600052602060002090601f0160209004810192826131cf5760008555613216565b82601f106131e857805160ff1916838001178555613216565b82800160010185558215613216579182015b828111156132155782518255916020019190600101906131fa565b5b50905061322391906133fe565b5090565b60405180610100016040528060008152602001600080191681526020016000600481111561325857613257613585565b5b815260200160608152602001600073ffffffffffffffffffffffffffffffffffffffff168152602001600073ffffffffffffffffffffffffffffffffffffffff16815260200160008152602001600080191681525090565b6040518061010001604052806000815260200160608152602001600080191681526020016000801916815260200160008019168152602001600060038111156132fc576132fb613585565b5b8152602001600073ffffffffffffffffffffffffffffffffffffffff168152602001600081525090565b6040518061016001604052806000815260200160008152602001600080191681526020016000600281111561335e5761335d613585565b5b81526020016000600481111561337757613376613585565b5b8152602001600060018111156133905761338f613585565b5b8152602001600073ffffffffffffffffffffffffffffffffffffffff168152602001600073ffffffffffffffffffffffffffffffffffffffff168152602001600073ffffffffffffffffffffffffffffffffffffffff16815260200160008152602001600080191681525090565b5b808211156134175760008160009055506001016133ff565b5090565b6000604051905090565b600080fd5b600080fd5b600073ffffffffffffffffffffffffffffffffffffffff82169050919050565b600061345a8261342f565b9050919050565b61346a8161344f565b811461347557600080fd5b50565b60008135905061348781613461565b92915050565b6000602082840312156134a3576134a2613425565b5b60006134b184828501613478565b91505092915050565b6000819050919050565b6134cd816134ba565b82525050565b6000819050919050565b6134e6816134d3565b82525050565b600081519050919050565b600082825260208201905092915050565b60005b8381101561352657808201518184015260208101905061350b565b83811115613535576000848401525b50505050565b6000601f19601f8301169050919050565b6000613557826134ec565b61356181856134f7565b9350613571818560208601613508565b61357a8161353b565b840191505092915050565b7f4e487b7100000000000000000000000000000000000000000000000000000000600052602160045260246000fd5b600581106135c5576135c4613585565b5b50565b60008190506135d6826135b4565b919050565b60006135e6826135c8565b9050919050565b6135f6816135db565b82525050565b6003811061360d5761360c613585565b5b50565b600081905061361e826135fc565b919050565b600061362e82613610565b9050919050565b61363e81613623565b82525050565b61364d8161344f565b82525050565b60006101408301600083015161366c60008601826134c4565b50602083015161367f60208601826134dd565b5060408301518482036040860152613697828261354c565b91505060608301516136ac60608601826135ed565b5060808301516136bf6080860182613635565b5060a08301516136d260a0860182613644565b5060c08301516136e560c0860182613644565b5060e08301516136f860e0860182613644565b5061010083015161370d6101008601826134c4565b506101208301516137226101208601826134dd565b508091505092915050565b600060208201905081810360008301526137478184613653565b905092915050565b613758816134d3565b811461376357600080fd5b50565b6000813590506137758161374f565b92915050565b613784816134ba565b811461378f57600080fd5b50565b6000813590506137a18161377b565b92915050565b60008060008060008060c087890312156137c4576137c3613425565b5b60006137d289828a01613766565b96505060206137e389828a01613792565b95505060406137f489828a01613792565b945050606061380589828a01613478565b935050608061381689828a01613478565b92505060a061382789828a01613766565b9150509295509295509295565b61383d8161344f565b82525050565b60006020820190506138586000830184613834565b92915050565b60006020828403121561387457613873613425565b5b600061388284828501613792565b91505092915050565b600081519050919050565b600082825260208201905092915050565b6000819050602082019050919050565b6000610140830160008301516138d060008601826134c4565b5060208301516138e360208601826134dd565b50604083015184820360408601526138fb828261354c565b915050606083015161391060608601826135ed565b5060808301516139236080860182613635565b5060a083015161393660a0860182613644565b5060c083015161394960c0860182613644565b5060e083015161395c60e0860182613644565b506101008301516139716101008601826134c4565b506101208301516139866101208601826134dd565b508091505092915050565b600061399d83836138b7565b905092915050565b6000602082019050919050565b60006139bd8261388b565b6139c78185613896565b9350836020820285016139d9856138a7565b8060005b85811015613a1557848403895281516139f68582613991565b9450613a01836139a5565b925060208a019950506001810190506139dd565b50829750879550505050505092915050565b60006020820190508181036000830152613a4181846139b2565b905092915050565b600080fd5b600080fd5b7f4e487b7100000000000000000000000000000000000000000000000000000000600052604160045260246000fd5b613a8b8261353b565b810181811067ffffffffffffffff82111715613aaa57613aa9613a53565b5b80604052505050565b6000613abd61341b565b9050613ac98282613a82565b919050565b600067ffffffffffffffff821115613ae957613ae8613a53565b5b613af28261353b565b9050602081019050919050565b82818337600083830152505050565b6000613b21613b1c84613ace565b613ab3565b905082815260208101848484011115613b3d57613b3c613a4e565b5b613b48848285613aff565b509392505050565b600082601f830112613b6557613b64613a49565b5b8135613b75848260208601613b0e565b91505092915050565b600080600080600060a08688031215613b9a57613b99613425565b5b6000613ba888828901613478565b9550506020613bb988828901613766565b9450506040613bca88828901613792565b935050606086013567ffffffffffffffff811115613beb57613bea61342a565b5b613bf788828901613b50565b9250506080613c0888828901613766565b9150509295509295909350565b600061010083016000830151613c2e60008601826134c4565b506020830151613c4160208601826134dd565b506040830151613c5460408601826135ed565b5060608301518482036060860152613c6c828261354c565b9150506080830151613c816080860182613644565b5060a0830151613c9460a0860182613644565b5060c0830151613ca760c08601826134c4565b5060e0830151613cba60e08601826134dd565b508091505092915050565b60006020820190508181036000830152613cdf8184613c15565b905092915050565b60048110613cf857613cf7613585565b5b50565b6000819050613d0982613ce7565b919050565b6000613d1982613cfb565b9050919050565b613d2981613d0e565b82525050565b600061010083016000830151613d4860008601826134c4565b5060208301518482036020860152613d60828261354c565b9150506040830151613d7560408601826134dd565b506060830151613d8860608601826134dd565b506080830151613d9b60808601826134dd565b5060a0830151613dae60a0860182613d20565b5060c0830151613dc160c0860182613644565b5060e0830151613dd460e08601826134c4565b508091505092915050565b60006020820190508181036000830152613df98184613d2f565b905092915050565b613e0a816134ba565b82525050565b6000602082019050613e256000830184613e01565b92915050565b600081519050919050565b600082825260208201905092915050565b6000819050602082019050919050565b600061010083016000830151613e7060008601826134c4565b506020830151613e8360208601826134dd565b506040830151613e9660408601826135ed565b5060608301518482036060860152613eae828261354c565b9150506080830151613ec36080860182613644565b5060a0830151613ed660a0860182613644565b5060c0830151613ee960c08601826134c4565b5060e0830151613efc60e08601826134dd565b508091505092915050565b6000613f138383613e57565b905092915050565b6000602082019050919050565b6000613f3382613e2b565b613f3d8185613e36565b935083602082028501613f4f85613e47565b8060005b85811015613f8b5784840389528151613f6c8582613f07565b9450613f7783613f1b565b925060208a01995050600181019050613f53565b50829750879550505050505092915050565b60006020820190508181036000830152613fb78184613f28565b905092915050565b613fc8816134d3565b82525050565b613fd781613623565b82525050565b613fe6816135db565b82525050565b60028110613ffd57613ffc613585565b5b50565b600081905061400e82613fec565b919050565b600061401e82614000565b9050919050565b61402e81614013565b82525050565b60006101608201905061404a600083018e613e01565b614057602083018d613e01565b614064604083018c613fbf565b614071606083018b613fce565b61407e608083018a613fdd565b61408b60a0830189614025565b61409860c0830188613834565b6140a560e0830187613834565b6140b3610100830186613834565b6140c1610120830185613e01565b6140cf610140830184613fbf565b9c9b505050505050505050505050565b600082825260208201905092915050565b60006140fb826134ec565b61410581856140df565b9350614115818560208601613508565b61411e8161353b565b840191505092915050565b60006101008201905061413f600083018b613e01565b61414c602083018a613fbf565b6141596040830189613fdd565b818103606083015261416b81886140f0565b905061417a6080830187613834565b61418760a0830186613834565b61419460c0830185613e01565b6141a160e0830184613fbf565b9998505050505050505050565b600080600080600080600060e0888a0312156141cd576141cc613425565b5b60006141db8a828b01613792565b97505060206141ec8a828b01613792565b965050604088013567ffffffffffffffff81111561420d5761420c61342a565b5b6142198a828b01613b50565b955050606061422a8a828b01613792565b945050608061423b8a828b01613792565b93505060a061424c8a828b01613478565b92505060c061425d8a828b01613766565b91505092959891949750929550565b6000806040838503121561428357614282613425565b5b600061429185828601613792565b92505060206142a285828601613478565b9150509250929050565b6142b581613d0e565b82525050565b6000610100820190506142d1600083018b613e01565b81810360208301526142e3818a6140f0565b90506142f26040830189613fbf565b6142ff6060830188613fbf565b61430c6080830187613fbf565b61431960a08301866142ac565b61432660c0830185613834565b61433360e0830184613e01565b9998505050505050505050565b600061014082019050614356600083018d613e01565b614363602083018c613fbf565b8181036040830152614375818b6140f0565b9050614384606083018a613fdd565b6143916080830189613fce565b61439e60a0830188613834565b6143ab60c0830187613834565b6143b860e0830186613834565b6143c6610100830185613e01565b6143d4610120830184613fbf565b9b9a5050505050505050505050565b60008060008060008060c08789031215614400576143ff613425565b5b600087013567ffffffffffffffff81111561441e5761441d61342a565b5b61442a89828a01613b50565b965050602061443b89828a01613766565b955050604061444c89828a01613766565b945050606061445d89828a01613766565b935050608061446e89828a01613792565b92505060a061447f89828a01613478565b9150509295509295509295565b600081519050919050565b600082825260208201905092915050565b6000819050602082019050919050565b6000610100830160008301516144d160008601826134c4565b50602083015184820360208601526144e9828261354c565b91505060408301516144fe60408601826134dd565b50606083015161451160608601826134dd565b50608083015161452460808601826134dd565b5060a083015161453760a0860182613d20565b5060c083015161454a60c0860182613644565b5060e083015161455d60e08601826134c4565b508091505092915050565b600061457483836144b8565b905092915050565b6000602082019050919050565b60006145948261448c565b61459e8185614497565b9350836020820285016145b0856144a8565b8060005b858110156145ec57848403895281516145cd8582614568565b94506145d88361457c565b925060208a019950506001810190506145b4565b50829750879550505050505092915050565b600060208201905081810360008301526146188184614589565b905092915050565b600081519050919050565b600082825260208201905092915050565b6000819050602082019050919050565b61465581614013565b82525050565b6101608201600082015161467260008501826134c4565b50602082015161468560208501826134c4565b50604082015161469860408501826134dd565b5060608201516146ab6060850182613635565b5060808201516146be60808501826135ed565b5060a08201516146d160a085018261464c565b5060c08201516146e460c0850182613644565b5060e08201516146f760e0850182613644565b5061010082015161470c610100850182613644565b506101208201516147216101208501826134c4565b506101408201516147366101408501826134dd565b50505050565b6000614748838361465b565b6101608301905092915050565b6000602082019050919050565b600061476d82614620565b614777818561462b565b93506147828361463c565b8060005b838110156147b357815161479a888261473c565b97506147a583614755565b925050600181019050614786565b5085935050505092915050565b600060208201905081810360008301526147da8184614762565b905092915050565b7f4e487b7100000000000000000000000000000000000000000000000000000000600052601160045260246000fd5b600061481c826134ba565b9150614827836134ba565b92508282101561483a576148396147e2565b5b828203905092915050565b7f4e487b7100000000000000000000000000000000000000000000000000000000600052602260045260246000fd5b6000600282049050600182168061488c57607f821691505b602082108114156148a05761489f614845565b5b50919050565b60006148b1826134ba565b915060008214156148c5576148c46147e2565b5b600182039050919050565b50565b60006148e06000836140df565b91506148eb826148d0565b600082019050919050565b60006101408201905061490c600083018c613e01565b614919602083018b613fbf565b818103604083015261492a816148d3565b9050614939606083018a613fdd565b6149466080830189613fce565b61495360a0830188613834565b61496060c0830187613834565b61496d60e0830186613834565b61497b610100830185613e01565b614989610120830184613fbf565b9a9950505050505050505050565b60006149a2826134ba565b91507fffffffffffffffffffffffffffffffffffffffffffffffffffffffffffffffff8214156149d5576149d46147e2565b5b600182019050919050565b6000819050919050565b6149fb6149f6826134d3565b6149e0565b82525050565b60008160601b9050919050565b6000614a1982614a01565b9050919050565b6000614a2b82614a0e565b9050919050565b614a43614a3e8261344f565b614a20565b82525050565b6000819050919050565b614a64614a5f826134ba565b614a49565b82525050565b6000614a7682866149ea565b602082019150614a868285614a32565b601482019150614a968284614a53565b602082019150819050949350505050565b7f4e487b7100000000000000000000000000000000000000000000000000000000600052603260045260246000fd5b600081905092915050565b60008190508160005260206000209050919050565b60008154614b0381614874565b614b0d8186614ad6565b94506001821660008114614b285760018114614b3957614b6c565b60ff19831686528186019350614b6c565b614b4285614ae1565b60005b83811015614b6457815481890152600182019150602081019050614b45565b838801955050505b50505092915050565b6000614b818284614af6565b915081905092915050565b600060a082019050614ba16000830188613e01565b614bae6020830187613fbf565b614bbb6040830186613fbf565b614bc86060830185613fbf565b614bd56080830184613e01565b9695505050505050565b7f596f7520617265206e6f7420616e206f776e6572000000000000000000000000600082015250565b6000614c156014836140df565b9150614c2082614bdf565b602082019050919050565b60006020820190508181036000830152614c4481614c08565b9050919050565b6000614c56826134ec565b614c608185614ad6565b9350614c70818560208601613508565b80840191505092915050565b6000614c888284614c4b565b915081905092915050565b6000815250565b600061016082019050614cb0600083018d613e01565b614cbd602083018c613e01565b614cca604083018b613fbf565b614cd7606083018a613fce565b614ce46080830189613fdd565b614cf160a0830188614025565b614cfe60c0830187613834565b614d0b60e0830186613834565b614d19610100830185613834565b614d27610120830184613e01565b614d346101408301614c93565b9b9a505050505050505050505056fea2646970667358221220ce54ffc4a27db0835bac9046915847c0e617593f14dc4416978ad6d224213bfa64736f6c634300080a0033",
  "immutableReferences": {},
  "source": "// SPDX-License-Identifier: MIT\r\npragma solidity >=0.8.0 <0.9.0;\r\n\r\nimport \"./UserChain.sol\";\r\nimport \"./SharedChain.sol\";\r\n\r\ncontract ProjectChain is UserChain, SharedChain {\r\n    bytes32 constant PROJECT_HASH_VALUE = \"csd?S@salas;dlA234_D.;s_as\";\r\n    bytes32 constant REQUEST_HASH_VALUE = \"csd?.!?*salas;dlA.;s_as\";\r\n\r\n    address _projectInitiator;\r\n    uint _indexUniqueAddress = 0;\r\n\r\n    constructor() {\r\n        _projectInitiator = msg.sender;\r\n    }\r\n\r\n    modifier onlyProjectInitiator {\r\n        require(users[_projectInitiator]._role == Roles.ProjectInitiator, \"You don't have the rights for this resources.\");\r\n        require(_projectInitiator == msg.sender, \"You are not a project initiator\");\r\n        _;\r\n    }\r\n\r\n\r\n    /**  PROJECT INITIATOR  */\r\n\r\n    mapping(address => Project) public projects;\r\n    uint public projectsCounter = 0;\r\n    address[] public projectsAddress;\r\n\r\n    function createUniqueProjectAddress() public returns (address) {\r\n        _indexUniqueAddress++;\r\n        return address(uint160(uint256(keccak256(abi.encodePacked(PROJECT_HASH_VALUE, _projectInitiator, _indexUniqueAddress)))));\r\n    }\r\n\r\n    function createProject(address _projectAddress, bytes32 _name, uint _status, string memory _ipfsFileCID, bytes32 _signature) public {\r\n        projects[_projectAddress] = Project(\r\n            projectsCounter, _name, ProjectStatus(_status),\r\n            _ipfsFileCID, _projectAddress,\r\n            _projectInitiator, block.timestamp, _signature\r\n        );\r\n\r\n        emit ProjectEvent(\r\n            projectsCounter, _name, ProjectStatus(_status),\r\n            _ipfsFileCID, _projectAddress, _projectInitiator,\r\n            block.timestamp, _signature\r\n        );\r\n        projectsAddress.push(_projectAddress);\r\n        projectsCounter++;\r\n    }\r\n\r\n    function getProjectInfo(address _address) public view returns (Project memory) {\r\n        return projects[_address];\r\n    }\r\n\r\n    function getAllProjects() public view returns(Project[] memory) {\r\n        Project[] memory allProjects = new Project[](projectsCounter);\r\n        for (uint index = 0; index < projectsCounter; index++) {\r\n            address _projectAddress = projectsAddress[index];\r\n            Project storage project = projects[_projectAddress];\r\n            allProjects[index] = project;\r\n        }\r\n        return allProjects;\r\n    }\r\n\r\n\r\n    /**  Project Requests  */\r\n\r\n    mapping(uint => ProjectRequest) public projectRequests;\r\n    uint public projectRequestsCounter = 0;\r\n    address[] public projectRequestsAddress;\r\n\r\n    function createUniqueProjectRequestAddress() public returns (address) {\r\n        _indexUniqueAddress++;\r\n        return address(uint160(uint256(keccak256(abi.encodePacked(REQUEST_HASH_VALUE, _projectInitiator, _indexUniqueAddress)))));\r\n    }\r\n\r\n    function createProjectRequest(\r\n        bytes32 _title, uint _status, uint _requestStatus,\r\n        address _projectAddress, address _projectReqAddress, bytes32 _signature\r\n    ) public {\r\n        projectRequests[projectRequestsCounter] = ProjectRequest(\r\n            projectRequestsCounter, _title, '', ProjectStatus(_status),\r\n            RequestStatus(_requestStatus), _projectAddress,\r\n            _projectInitiator, _projectReqAddress, block.timestamp, _signature\r\n        );\r\n\r\n        filterRequests(projectRequestsCounter, _title, _requestStatus, _status, _projectAddress, _projectReqAddress);\r\n\r\n        emit ProjectRequestEvent(\r\n            projectRequestsCounter, _title, '',\r\n            ProjectStatus(_status), RequestStatus(_requestStatus),\r\n            _projectAddress, _projectInitiator,\r\n            _projectReqAddress, block.timestamp, _signature\r\n        );\r\n        projectRequestsAddress.push(_projectReqAddress);\r\n        projectRequestsCounter++;\r\n    }\r\n\r\n    function filterRequests(\r\n        uint _indexProjectRequest,\r\n        bytes32 _title,\r\n        uint _requestStatus,\r\n        uint _projectStatus,\r\n        address _projectAddress,\r\n        address _requestAddress\r\n    ) internal {\r\n        RequestType _requestType;\r\n        if (\r\n            ProjectStatus(_projectStatus) == ProjectStatus.ToApprove ||\r\n            ProjectStatus(_projectStatus) == ProjectStatus.FinalizationCheck ||\r\n            ProjectStatus(_projectStatus) == ProjectStatus.Completed\r\n        ) {\r\n            _requestType = RequestType.SupervisorReq;\r\n        } else if (ProjectStatus(_projectStatus) == ProjectStatus.StartProject) {\r\n            _requestType = RequestType.CompanyReq;\r\n        }\r\n        createRequest(_indexProjectRequest, _title, _requestStatus, _projectStatus, _requestType, _projectAddress, _requestAddress);\r\n    }\r\n\r\n    function getAllProjectRequests() public view returns(ProjectRequest[] memory) {\r\n        ProjectRequest[] memory allProjectRequests = new ProjectRequest[](projectRequestsCounter);\r\n        for (uint index = 0; index < projectsCounter; index++) {\r\n            ProjectRequest storage projectReq = projectRequests[index];\r\n            allProjectRequests[index] = projectReq;\r\n        }\r\n        return allProjectRequests;\r\n    }\r\n\r\n    function getLastProjectRequest(address _projectAddress) public view returns(ProjectRequest memory) {\r\n        ProjectRequest memory request;\r\n        if (projectRequestsCounter > 0) {\r\n            for (uint index = projectRequestsCounter - 1; index >= 0; index--) {\r\n                if (_projectAddress == projectRequests[index]._projectAddress) {\r\n                    request = ProjectRequest(\r\n                        projectRequests[index]._index,\r\n                        projectRequests[index]._title,\r\n                        projectRequests[index]._comments,\r\n                        projectRequests[index]._status,\r\n                        projectRequests[index]._requestStatus,\r\n                        projectRequests[index]._projectAddress,\r\n                        projectRequests[index]._userAddress,\r\n                        projectRequests[index]._requestAddress,\r\n                        block.timestamp,\r\n                        projectRequests[index]._signature\r\n                    );\r\n                    return request;\r\n                }\r\n            }\r\n        }\r\n        return request;\r\n    }\r\n\r\n\r\n    /**  DATA FOR SUPERVISOR && COMPANY  */\r\n\r\n    mapping(uint => Request) public requests;\r\n    uint public requestsCounter = 0;\r\n    address[] public requestsAddress;\r\n\r\n    function createRequest(\r\n        uint _indexProjectRequest,\r\n        bytes32 _title,\r\n        uint _requestStatus,\r\n        uint _projectStatus,\r\n        RequestType _requestType,\r\n        address _projectAddress,\r\n        address _requestAddress\r\n    ) internal {\r\n        requests[requestsCounter] = Request(\r\n            requestsCounter, _indexProjectRequest, _title,\r\n            RequestStatus(_requestStatus), ProjectStatus(_projectStatus),\r\n            _requestType, _projectAddress, _projectInitiator,\r\n            _requestAddress, block.timestamp, ''\r\n        );\r\n\r\n        emit RequestEvent(\r\n            requestsCounter, _indexProjectRequest, _title,\r\n            RequestStatus(_requestStatus), ProjectStatus(_projectStatus),\r\n            _requestType, _projectAddress, _projectInitiator,\r\n            _requestAddress, block.timestamp, ''\r\n        );\r\n        requestsAddress.push(_requestAddress);\r\n        requestsCounter++;\r\n    }\r\n\r\n    function updateRequest(\r\n        uint _index,\r\n        uint _indexProjectRequest,\r\n        string memory _comments,\r\n        uint _requestStatus,\r\n        uint _projectStatus,\r\n        address _projectAddress,\r\n        bytes32 _signature\r\n    ) public {\r\n        // Update request status in the Requests Mapping and Struct Array\r\n        requests[_index]._requestStatus = RequestStatus(_requestStatus);\r\n        requests[_index]._signature = _signature;\r\n\r\n        //uint index = requests[_index]._index;\r\n        //allRequests[index]._requestStatus = RequestStatus(_requestStatus);\r\n        //allRequests[index]._signature = _signature;\r\n\r\n        // Update project request status in the Project Requests Mapping and Struct Array\r\n        projectRequests[_indexProjectRequest]._comments = _comments;\r\n        projectRequests[_indexProjectRequest]._requestStatus = RequestStatus(_requestStatus);\r\n\r\n        // Update ProjectStatus to the requested status - Porject Mapping and Struct Array\r\n        projects[_projectAddress]._status = ProjectStatus(_projectStatus);\r\n\r\n\r\n        // !!!!! OBSERVATION\r\n        //emit changes for both project request mapping and request mapping\r\n    }\r\n\r\n    function getAllRequests() public view returns(Request[] memory) {\r\n        Request[] memory allRequests = new Request[](requestsCounter);\r\n        for (uint index = 0; index < requestsCounter; index++) {\r\n            Request storage request = requests[index];\r\n            allRequests[index] = request;\r\n        }\r\n        return allRequests;\r\n    }\r\n}\r\n",
  "sourcePath": "/mnt/c/Users/Beniamin/source/repos/DissertationProject/contracts/ProjectChain.sol",
  "compiler": {
    "name": "solc",
    "version": "0.8.10+commit.fc410830.Emscripten.clang"
  },
  "schemaVersion": "3.4.3",
  "updatedAt": "2021-11-24T14:15:48.310Z",
  "networkType": "ethereum",
  "devdoc": {
    "kind": "dev",
    "methods": {},
    "version": 1
  },
  "userdoc": {
    "kind": "user",
    "methods": {
      "projectRequests(uint256)": {
        "notice": "Project Requests  "
      },
      "projects(address)": {
        "notice": "PROJECT INITIATOR  "
      },
      "requests(uint256)": {
        "notice": "DATA FOR SUPERVISOR && COMPANY  "
      }
    },
    "version": 1
  }
}