{
  "contractName": "ProjectChain",
  "abi": [
    {
      "inputs": [],
      "stateMutability": "nonpayable",
      "type": "constructor"
    },
    {
      "anonymous": false,
      "inputs": [
        {
          "components": [
            {
              "internalType": "uint256",
              "name": "_index",
              "type": "uint256"
            },
            {
              "internalType": "string",
              "name": "_name",
              "type": "string"
            },
            {
              "internalType": "enum SharedChain.ProjectStatus",
              "name": "_status",
              "type": "uint8"
            },
            {
              "internalType": "string",
              "name": "_ipfsFileCID",
              "type": "string"
            },
            {
              "internalType": "address",
              "name": "_projectAddress",
              "type": "address"
            },
            {
              "internalType": "address",
              "name": "_userAddress",
              "type": "address"
            },
            {
              "internalType": "uint256",
              "name": "_timestamp",
              "type": "uint256"
            },
            {
              "internalType": "string",
              "name": "_signature",
              "type": "string"
            }
          ],
          "indexed": true,
          "internalType": "struct SharedChain.Project",
          "name": "_project",
          "type": "tuple"
        }
      ],
      "name": "ProjectEvent",
      "type": "event"
    },
    {
      "anonymous": false,
      "inputs": [
        {
          "components": [
            {
              "internalType": "uint256",
              "name": "_index",
              "type": "uint256"
            },
            {
              "internalType": "string",
              "name": "_title",
              "type": "string"
            },
            {
              "internalType": "string",
              "name": "_comments",
              "type": "string"
            },
            {
              "internalType": "enum SharedChain.ProjectStatus",
              "name": "_status",
              "type": "uint8"
            },
            {
              "internalType": "enum SharedChain.RequestStatus",
              "name": "_requestStatus",
              "type": "uint8"
            },
            {
              "internalType": "address",
              "name": "_projectAddress",
              "type": "address"
            },
            {
              "internalType": "address",
              "name": "_userAddress",
              "type": "address"
            },
            {
              "internalType": "address",
              "name": "_requestAddress",
              "type": "address"
            },
            {
              "internalType": "uint256",
              "name": "_timestamp",
              "type": "uint256"
            },
            {
              "internalType": "string",
              "name": "_signature",
              "type": "string"
            }
          ],
          "indexed": true,
          "internalType": "struct SharedChain.ProjectRequest",
          "name": "_projectRequest",
          "type": "tuple"
        }
      ],
      "name": "ProjectRequestEvent",
      "type": "event"
    },
    {
      "anonymous": false,
      "inputs": [
        {
          "components": [
            {
              "internalType": "uint256",
              "name": "_index",
              "type": "uint256"
            },
            {
              "internalType": "uint256",
              "name": "_indexProjectRequest",
              "type": "uint256"
            },
            {
              "internalType": "string",
              "name": "_title",
              "type": "string"
            },
            {
              "internalType": "enum SharedChain.RequestStatus",
              "name": "_requestStatus",
              "type": "uint8"
            },
            {
              "internalType": "enum SharedChain.ProjectStatus",
              "name": "_projectStatus",
              "type": "uint8"
            },
            {
              "internalType": "enum SharedChain.RequestType",
              "name": "_requestType",
              "type": "uint8"
            },
            {
              "internalType": "address",
              "name": "_projectAddress",
              "type": "address"
            },
            {
              "internalType": "address",
              "name": "_userAddress",
              "type": "address"
            },
            {
              "internalType": "address",
              "name": "_requestAddress",
              "type": "address"
            },
            {
              "internalType": "uint256",
              "name": "_timestamp",
              "type": "uint256"
            },
            {
              "internalType": "string",
              "name": "_signature",
              "type": "string"
            }
          ],
          "indexed": true,
          "internalType": "struct SharedChain.Request",
          "name": "_request",
          "type": "tuple"
        }
      ],
      "name": "RequestEvent",
      "type": "event"
    },
    {
      "anonymous": false,
      "inputs": [
        {
          "indexed": false,
          "internalType": "uint256",
          "name": "_index",
          "type": "uint256"
        },
        {
          "indexed": true,
          "internalType": "string",
          "name": "_username",
          "type": "string"
        },
        {
          "indexed": false,
          "internalType": "bytes32",
          "name": "_email",
          "type": "bytes32"
        },
        {
          "indexed": false,
          "internalType": "bytes32",
          "name": "_firstname",
          "type": "bytes32"
        },
        {
          "indexed": false,
          "internalType": "bytes32",
          "name": "_lastname",
          "type": "bytes32"
        },
        {
          "indexed": true,
          "internalType": "enum SharedChain.Roles",
          "name": "_role",
          "type": "uint8"
        },
        {
          "indexed": true,
          "internalType": "address",
          "name": "_walletAddress",
          "type": "address"
        },
        {
          "indexed": false,
          "internalType": "uint256",
          "name": "_timestamp",
          "type": "uint256"
        }
      ],
      "name": "UserEvent",
      "type": "event"
    },
    {
      "inputs": [
        {
          "internalType": "uint256",
          "name": "_role",
          "type": "uint256"
        },
        {
          "internalType": "address",
          "name": "_walletAddress",
          "type": "address"
        }
      ],
      "name": "changeUserRole",
      "outputs": [],
      "stateMutability": "nonpayable",
      "type": "function"
    },
    {
      "inputs": [],
      "name": "getAllUsers",
      "outputs": [
        {
          "components": [
            {
              "internalType": "uint256",
              "name": "_index",
              "type": "uint256"
            },
            {
              "internalType": "string",
              "name": "_username",
              "type": "string"
            },
            {
              "internalType": "bytes32",
              "name": "_email",
              "type": "bytes32"
            },
            {
              "internalType": "bytes32",
              "name": "_firstname",
              "type": "bytes32"
            },
            {
              "internalType": "bytes32",
              "name": "_lastname",
              "type": "bytes32"
            },
            {
              "internalType": "enum SharedChain.Roles",
              "name": "_role",
              "type": "uint8"
            },
            {
              "internalType": "address",
              "name": "_walletAddress",
              "type": "address"
            },
            {
              "internalType": "uint256",
              "name": "_timestamp",
              "type": "uint256"
            }
          ],
          "internalType": "struct SharedChain.User[]",
          "name": "",
          "type": "tuple[]"
        }
      ],
      "stateMutability": "view",
      "type": "function",
      "constant": true
    },
    {
      "inputs": [
        {
          "internalType": "address",
          "name": "_walletAddress",
          "type": "address"
        }
      ],
      "name": "getUserInfo",
      "outputs": [
        {
          "components": [
            {
              "internalType": "uint256",
              "name": "_index",
              "type": "uint256"
            },
            {
              "internalType": "string",
              "name": "_username",
              "type": "string"
            },
            {
              "internalType": "bytes32",
              "name": "_email",
              "type": "bytes32"
            },
            {
              "internalType": "bytes32",
              "name": "_firstname",
              "type": "bytes32"
            },
            {
              "internalType": "bytes32",
              "name": "_lastname",
              "type": "bytes32"
            },
            {
              "internalType": "enum SharedChain.Roles",
              "name": "_role",
              "type": "uint8"
            },
            {
              "internalType": "address",
              "name": "_walletAddress",
              "type": "address"
            },
            {
              "internalType": "uint256",
              "name": "_timestamp",
              "type": "uint256"
            }
          ],
          "internalType": "struct SharedChain.User",
          "name": "",
          "type": "tuple"
        }
      ],
      "stateMutability": "view",
      "type": "function",
      "constant": true
    },
    {
      "inputs": [],
      "name": "owner",
      "outputs": [
        {
          "internalType": "address",
          "name": "",
          "type": "address"
        }
      ],
      "stateMutability": "view",
      "type": "function",
      "constant": true
    },
    {
      "inputs": [
        {
          "internalType": "uint256",
          "name": "",
          "type": "uint256"
        }
      ],
      "name": "projectRequests",
      "outputs": [
        {
          "internalType": "uint256",
          "name": "_index",
          "type": "uint256"
        },
        {
          "internalType": "string",
          "name": "_title",
          "type": "string"
        },
        {
          "internalType": "string",
          "name": "_comments",
          "type": "string"
        },
        {
          "internalType": "enum SharedChain.ProjectStatus",
          "name": "_status",
          "type": "uint8"
        },
        {
          "internalType": "enum SharedChain.RequestStatus",
          "name": "_requestStatus",
          "type": "uint8"
        },
        {
          "internalType": "address",
          "name": "_projectAddress",
          "type": "address"
        },
        {
          "internalType": "address",
          "name": "_userAddress",
          "type": "address"
        },
        {
          "internalType": "address",
          "name": "_requestAddress",
          "type": "address"
        },
        {
          "internalType": "uint256",
          "name": "_timestamp",
          "type": "uint256"
        },
        {
          "internalType": "string",
          "name": "_signature",
          "type": "string"
        }
      ],
      "stateMutability": "view",
      "type": "function",
      "constant": true
    },
    {
      "inputs": [
        {
          "internalType": "uint256",
          "name": "",
          "type": "uint256"
        }
      ],
      "name": "projectRequestsAddress",
      "outputs": [
        {
          "internalType": "address",
          "name": "",
          "type": "address"
        }
      ],
      "stateMutability": "view",
      "type": "function",
      "constant": true
    },
    {
      "inputs": [],
      "name": "projectRequestsCounter",
      "outputs": [
        {
          "internalType": "uint256",
          "name": "",
          "type": "uint256"
        }
      ],
      "stateMutability": "view",
      "type": "function",
      "constant": true
    },
    {
      "inputs": [
        {
          "internalType": "address",
          "name": "",
          "type": "address"
        }
      ],
      "name": "projects",
      "outputs": [
        {
          "internalType": "uint256",
          "name": "_index",
          "type": "uint256"
        },
        {
          "internalType": "string",
          "name": "_name",
          "type": "string"
        },
        {
          "internalType": "enum SharedChain.ProjectStatus",
          "name": "_status",
          "type": "uint8"
        },
        {
          "internalType": "string",
          "name": "_ipfsFileCID",
          "type": "string"
        },
        {
          "internalType": "address",
          "name": "_projectAddress",
          "type": "address"
        },
        {
          "internalType": "address",
          "name": "_userAddress",
          "type": "address"
        },
        {
          "internalType": "uint256",
          "name": "_timestamp",
          "type": "uint256"
        },
        {
          "internalType": "string",
          "name": "_signature",
          "type": "string"
        }
      ],
      "stateMutability": "view",
      "type": "function",
      "constant": true
    },
    {
      "inputs": [
        {
          "internalType": "uint256",
          "name": "",
          "type": "uint256"
        }
      ],
      "name": "projectsAddress",
      "outputs": [
        {
          "internalType": "address",
          "name": "",
          "type": "address"
        }
      ],
      "stateMutability": "view",
      "type": "function",
      "constant": true
    },
    {
      "inputs": [],
      "name": "projectsCounter",
      "outputs": [
        {
          "internalType": "uint256",
          "name": "",
          "type": "uint256"
        }
      ],
      "stateMutability": "view",
      "type": "function",
      "constant": true
    },
    {
      "inputs": [
        {
          "internalType": "string",
          "name": "_username",
          "type": "string"
        },
        {
          "internalType": "bytes32",
          "name": "_email",
          "type": "bytes32"
        },
        {
          "internalType": "bytes32",
          "name": "_firstname",
          "type": "bytes32"
        },
        {
          "internalType": "bytes32",
          "name": "_lastname",
          "type": "bytes32"
        },
        {
          "internalType": "uint256",
          "name": "_role",
          "type": "uint256"
        },
        {
          "internalType": "address",
          "name": "_walletAddress",
          "type": "address"
        }
      ],
      "name": "registerUser",
      "outputs": [],
      "stateMutability": "nonpayable",
      "type": "function"
    },
    {
      "inputs": [
        {
          "internalType": "uint256",
          "name": "",
          "type": "uint256"
        }
      ],
      "name": "requests",
      "outputs": [
        {
          "internalType": "uint256",
          "name": "_index",
          "type": "uint256"
        },
        {
          "internalType": "uint256",
          "name": "_indexProjectRequest",
          "type": "uint256"
        },
        {
          "internalType": "string",
          "name": "_title",
          "type": "string"
        },
        {
          "internalType": "enum SharedChain.RequestStatus",
          "name": "_requestStatus",
          "type": "uint8"
        },
        {
          "internalType": "enum SharedChain.ProjectStatus",
          "name": "_projectStatus",
          "type": "uint8"
        },
        {
          "internalType": "enum SharedChain.RequestType",
          "name": "_requestType",
          "type": "uint8"
        },
        {
          "internalType": "address",
          "name": "_projectAddress",
          "type": "address"
        },
        {
          "internalType": "address",
          "name": "_userAddress",
          "type": "address"
        },
        {
          "internalType": "address",
          "name": "_requestAddress",
          "type": "address"
        },
        {
          "internalType": "uint256",
          "name": "_timestamp",
          "type": "uint256"
        },
        {
          "internalType": "string",
          "name": "_signature",
          "type": "string"
        }
      ],
      "stateMutability": "view",
      "type": "function",
      "constant": true
    },
    {
      "inputs": [],
      "name": "requestsCounter",
      "outputs": [
        {
          "internalType": "uint256",
          "name": "",
          "type": "uint256"
        }
      ],
      "stateMutability": "view",
      "type": "function",
      "constant": true
    },
    {
      "inputs": [
        {
          "internalType": "address",
          "name": "",
          "type": "address"
        }
      ],
      "name": "users",
      "outputs": [
        {
          "internalType": "uint256",
          "name": "_index",
          "type": "uint256"
        },
        {
          "internalType": "string",
          "name": "_username",
          "type": "string"
        },
        {
          "internalType": "bytes32",
          "name": "_email",
          "type": "bytes32"
        },
        {
          "internalType": "bytes32",
          "name": "_firstname",
          "type": "bytes32"
        },
        {
          "internalType": "bytes32",
          "name": "_lastname",
          "type": "bytes32"
        },
        {
          "internalType": "enum SharedChain.Roles",
          "name": "_role",
          "type": "uint8"
        },
        {
          "internalType": "address",
          "name": "_walletAddress",
          "type": "address"
        },
        {
          "internalType": "uint256",
          "name": "_timestamp",
          "type": "uint256"
        }
      ],
      "stateMutability": "view",
      "type": "function",
      "constant": true
    },
    {
      "inputs": [
        {
          "internalType": "uint256",
          "name": "",
          "type": "uint256"
        }
      ],
      "name": "usersAddress",
      "outputs": [
        {
          "internalType": "address",
          "name": "",
          "type": "address"
        }
      ],
      "stateMutability": "view",
      "type": "function",
      "constant": true
    },
    {
      "inputs": [],
      "name": "usersCounter",
      "outputs": [
        {
          "internalType": "uint256",
          "name": "",
          "type": "uint256"
        }
      ],
      "stateMutability": "view",
      "type": "function",
      "constant": true
    },
    {
      "inputs": [
        {
          "internalType": "string",
          "name": "_name",
          "type": "string"
        },
        {
          "internalType": "uint256",
          "name": "_index",
          "type": "uint256"
        }
      ],
      "name": "createUniqueProjectAddress",
      "outputs": [
        {
          "internalType": "address",
          "name": "",
          "type": "address"
        }
      ],
      "stateMutability": "view",
      "type": "function",
      "constant": true
    },
    {
      "inputs": [
        {
          "internalType": "address",
          "name": "_projectAddress",
          "type": "address"
        },
        {
          "internalType": "string",
          "name": "_name",
          "type": "string"
        },
        {
          "internalType": "uint256",
          "name": "_status",
          "type": "uint256"
        },
        {
          "internalType": "string",
          "name": "_ipfsFileCID",
          "type": "string"
        },
        {
          "internalType": "string",
          "name": "_signature",
          "type": "string"
        }
      ],
      "name": "createProject",
      "outputs": [],
      "stateMutability": "nonpayable",
      "type": "function"
    },
    {
      "inputs": [
        {
          "internalType": "address",
          "name": "_projectAddress",
          "type": "address"
        },
        {
          "internalType": "string",
          "name": "_ipfsFileCID",
          "type": "string"
        },
        {
          "internalType": "string",
          "name": "_signature",
          "type": "string"
        }
      ],
      "name": "updateProject",
      "outputs": [],
      "stateMutability": "nonpayable",
      "type": "function"
    },
    {
      "inputs": [
        {
          "internalType": "address",
          "name": "_address",
          "type": "address"
        }
      ],
      "name": "getProjectInfo",
      "outputs": [
        {
          "components": [
            {
              "internalType": "uint256",
              "name": "_index",
              "type": "uint256"
            },
            {
              "internalType": "string",
              "name": "_name",
              "type": "string"
            },
            {
              "internalType": "enum SharedChain.ProjectStatus",
              "name": "_status",
              "type": "uint8"
            },
            {
              "internalType": "string",
              "name": "_ipfsFileCID",
              "type": "string"
            },
            {
              "internalType": "address",
              "name": "_projectAddress",
              "type": "address"
            },
            {
              "internalType": "address",
              "name": "_userAddress",
              "type": "address"
            },
            {
              "internalType": "uint256",
              "name": "_timestamp",
              "type": "uint256"
            },
            {
              "internalType": "string",
              "name": "_signature",
              "type": "string"
            }
          ],
          "internalType": "struct SharedChain.Project",
          "name": "",
          "type": "tuple"
        }
      ],
      "stateMutability": "view",
      "type": "function",
      "constant": true
    },
    {
      "inputs": [],
      "name": "getAllProjects",
      "outputs": [
        {
          "components": [
            {
              "internalType": "uint256",
              "name": "_index",
              "type": "uint256"
            },
            {
              "internalType": "string",
              "name": "_name",
              "type": "string"
            },
            {
              "internalType": "enum SharedChain.ProjectStatus",
              "name": "_status",
              "type": "uint8"
            },
            {
              "internalType": "string",
              "name": "_ipfsFileCID",
              "type": "string"
            },
            {
              "internalType": "address",
              "name": "_projectAddress",
              "type": "address"
            },
            {
              "internalType": "address",
              "name": "_userAddress",
              "type": "address"
            },
            {
              "internalType": "uint256",
              "name": "_timestamp",
              "type": "uint256"
            },
            {
              "internalType": "string",
              "name": "_signature",
              "type": "string"
            }
          ],
          "internalType": "struct SharedChain.Project[]",
          "name": "",
          "type": "tuple[]"
        }
      ],
      "stateMutability": "view",
      "type": "function",
      "constant": true
    },
    {
      "inputs": [
        {
          "internalType": "string",
          "name": "_title",
          "type": "string"
        },
        {
          "internalType": "uint256",
          "name": "_index",
          "type": "uint256"
        }
      ],
      "name": "createUniqueProjectRequestAddress",
      "outputs": [
        {
          "internalType": "address",
          "name": "",
          "type": "address"
        }
      ],
      "stateMutability": "view",
      "type": "function",
      "constant": true
    },
    {
      "inputs": [
        {
          "internalType": "string",
          "name": "_title",
          "type": "string"
        },
        {
          "internalType": "uint256",
          "name": "_status",
          "type": "uint256"
        },
        {
          "internalType": "uint256",
          "name": "_requestStatus",
          "type": "uint256"
        },
        {
          "internalType": "address",
          "name": "_projectAddress",
          "type": "address"
        },
        {
          "internalType": "address",
          "name": "_projectReqAddress",
          "type": "address"
        },
        {
          "internalType": "string",
          "name": "_signature",
          "type": "string"
        }
      ],
      "name": "createProjectRequest",
      "outputs": [],
      "stateMutability": "nonpayable",
      "type": "function"
    },
    {
      "inputs": [],
      "name": "getAllProjectRequests",
      "outputs": [
        {
          "components": [
            {
              "internalType": "uint256",
              "name": "_index",
              "type": "uint256"
            },
            {
              "internalType": "string",
              "name": "_title",
              "type": "string"
            },
            {
              "internalType": "string",
              "name": "_comments",
              "type": "string"
            },
            {
              "internalType": "enum SharedChain.ProjectStatus",
              "name": "_status",
              "type": "uint8"
            },
            {
              "internalType": "enum SharedChain.RequestStatus",
              "name": "_requestStatus",
              "type": "uint8"
            },
            {
              "internalType": "address",
              "name": "_projectAddress",
              "type": "address"
            },
            {
              "internalType": "address",
              "name": "_userAddress",
              "type": "address"
            },
            {
              "internalType": "address",
              "name": "_requestAddress",
              "type": "address"
            },
            {
              "internalType": "uint256",
              "name": "_timestamp",
              "type": "uint256"
            },
            {
              "internalType": "string",
              "name": "_signature",
              "type": "string"
            }
          ],
          "internalType": "struct SharedChain.ProjectRequest[]",
          "name": "",
          "type": "tuple[]"
        }
      ],
      "stateMutability": "view",
      "type": "function",
      "constant": true
    },
    {
      "inputs": [
        {
          "internalType": "address",
          "name": "_projectAddress",
          "type": "address"
        }
      ],
      "name": "getLastProjectRequest",
      "outputs": [
        {
          "components": [
            {
              "internalType": "uint256",
              "name": "_index",
              "type": "uint256"
            },
            {
              "internalType": "string",
              "name": "_title",
              "type": "string"
            },
            {
              "internalType": "string",
              "name": "_comments",
              "type": "string"
            },
            {
              "internalType": "enum SharedChain.ProjectStatus",
              "name": "_status",
              "type": "uint8"
            },
            {
              "internalType": "enum SharedChain.RequestStatus",
              "name": "_requestStatus",
              "type": "uint8"
            },
            {
              "internalType": "address",
              "name": "_projectAddress",
              "type": "address"
            },
            {
              "internalType": "address",
              "name": "_userAddress",
              "type": "address"
            },
            {
              "internalType": "address",
              "name": "_requestAddress",
              "type": "address"
            },
            {
              "internalType": "uint256",
              "name": "_timestamp",
              "type": "uint256"
            },
            {
              "internalType": "string",
              "name": "_signature",
              "type": "string"
            }
          ],
          "internalType": "struct SharedChain.ProjectRequest",
          "name": "",
          "type": "tuple"
        }
      ],
      "stateMutability": "view",
      "type": "function",
      "constant": true
    },
    {
      "inputs": [
        {
          "internalType": "uint256",
          "name": "_index",
          "type": "uint256"
        },
        {
          "internalType": "uint256",
          "name": "_indexProjectRequest",
          "type": "uint256"
        },
        {
          "internalType": "string",
          "name": "_comments",
          "type": "string"
        },
        {
          "internalType": "uint256",
          "name": "_requestStatus",
          "type": "uint256"
        },
        {
          "internalType": "uint256",
          "name": "_projectStatus",
          "type": "uint256"
        },
        {
          "internalType": "address",
          "name": "_projectAddress",
          "type": "address"
        },
        {
          "internalType": "string",
          "name": "_signature",
          "type": "string"
        }
      ],
      "name": "updateRequest",
      "outputs": [],
      "stateMutability": "nonpayable",
      "type": "function"
    },
    {
      "inputs": [],
      "name": "getAllRequests",
      "outputs": [
        {
          "components": [
            {
              "internalType": "uint256",
              "name": "_index",
              "type": "uint256"
            },
            {
              "internalType": "uint256",
              "name": "_indexProjectRequest",
              "type": "uint256"
            },
            {
              "internalType": "string",
              "name": "_title",
              "type": "string"
            },
            {
              "internalType": "enum SharedChain.RequestStatus",
              "name": "_requestStatus",
              "type": "uint8"
            },
            {
              "internalType": "enum SharedChain.ProjectStatus",
              "name": "_projectStatus",
              "type": "uint8"
            },
            {
              "internalType": "enum SharedChain.RequestType",
              "name": "_requestType",
              "type": "uint8"
            },
            {
              "internalType": "address",
              "name": "_projectAddress",
              "type": "address"
            },
            {
              "internalType": "address",
              "name": "_userAddress",
              "type": "address"
            },
            {
              "internalType": "address",
              "name": "_requestAddress",
              "type": "address"
            },
            {
              "internalType": "uint256",
              "name": "_timestamp",
              "type": "uint256"
            },
            {
              "internalType": "string",
              "name": "_signature",
              "type": "string"
            }
          ],
          "internalType": "struct SharedChain.Request[]",
          "name": "",
          "type": "tuple[]"
        }
      ],
      "stateMutability": "view",
      "type": "function",
      "constant": true
    }
  ],
  "bytecode": "0x60806040526000600355600060065560006009556000600c5534801561002457600080fd5b50336000806101000a81548173ffffffffffffffffffffffffffffffffffffffff021916908373ffffffffffffffffffffffffffffffffffffffff16021790555033600460006101000a81548173ffffffffffffffffffffffffffffffffffffffff021916908373ffffffffffffffffffffffffffffffffffffffff160217905550615e3680620000b66000396000f3fe608060405234801561001057600080fd5b50600436106101a95760003560e01c8063840e78fd116100f9578063cf13f5d411610097578063e2842d7911610071578063e2842d791461054f578063fb1a002a1461056d578063fbdd64601461058b578063fe360ea5146105a7576101a9565b8063cf13f5d4146104f9578063d67b1b9914610515578063e1592c0d14610533576101a9565b806391009786116100d3578063910097861461044f578063a87430ba1461046b578063c19ded13146104a2578063cc1ee4db146104db576101a9565b8063840e78fd146103de57806384485563146104155780638da5cb5b14610431576101a9565b80636386c1c71161016657806378e8cd851161014057806378e8cd85146103265780637bc406ec1461035657806380d038291461038657806381d12c58146103a4576101a9565b80636386c1c7146102a8578063663c2269146102d857806376c932e0146102f6576101a9565b80630b287892146101ae578063191e1645146101de5780632c91324c1461020e5780632d757d8e1461023e578063400003db1461025a57806347ee45b914610278575b600080fd5b6101c860048036038101906101c39190613edb565b6105c5565b6040516101d59190614170565b60405180910390f35b6101f860048036038101906101f391906142f3565b610a15565b604051610205919061435e565b60405180910390f35b61022860048036038101906102239190614379565b610a6f565b604051610235919061435e565b60405180910390f35b610258600480360381019061025391906143a6565b610aae565b005b610262610d7c565b60405161026f919061462a565b60405180910390f35b610292600480360381019061028d9190613edb565b611199565b60405161029f919061470a565b60405180910390f35b6102c260048036038101906102bd9190613edb565b6114a4565b6040516102cf919061483d565b60405180910390f35b6102e0611653565b6040516102ed919061486e565b60405180910390f35b610310600480360381019061030b9190614379565b611659565b60405161031d919061435e565b60405180910390f35b610340600480360381019061033b9190614379565b611698565b60405161034d919061435e565b60405180910390f35b610370600480360381019061036b91906142f3565b6116d7565b60405161037d919061435e565b60405180910390f35b61038e611731565b60405161039b9190614a09565b60405180910390f35b6103be60048036038101906103b99190614379565b611b2d565b6040516103d59b9a99989796959493929190614adb565b60405180910390f35b6103f860048036038101906103f39190613edb565b611d1e565b60405161040c989796959493929190614b94565b60405180910390f35b61042f600480360381019061042a9190614c27565b611f4b565b005b610439612266565b604051610446919061435e565b60405180910390f35b61046960048036038101906104649190614cf6565b61228a565b005b61048560048036038101906104809190613edb565b6124e4565b604051610499989796959493929190614d54565b60405180910390f35b6104bc60048036038101906104b79190614379565b6125e1565b6040516104d29a99989796959493929190614dd9565b60405180910390f35b6104e3612847565b6040516104f0919061486e565b60405180910390f35b610513600480360381019061050e9190614eb6565b61284d565b005b61051d612b6f565b60405161052a919061486e565b60405180910390f35b61054d60048036038101906105489190614f5f565b612b75565b005b610557612ca8565b604051610564919061515c565b60405180910390f35b610575612f34565b6040516105829190615345565b60405180910390f35b6105a560048036038101906105a09190615367565b613304565b005b6105af6136aa565b6040516105bc919061486e565b60405180910390f35b6105cd613b42565b6105d5613b42565b60006009541115610a0b57600060016009546105f1919061545b565b90505b60008110610a09576008600082815260200190815260200160002060030160029054906101000a900473ffffffffffffffffffffffffffffffffffffffff1673ffffffffffffffffffffffffffffffffffffffff168473ffffffffffffffffffffffffffffffffffffffff1614156109f657604051806101400160405280600860008481526020019081526020016000206000015481526020016008600084815260200190815260200160002060010180546106af906154be565b80601f01602080910402602001604051908101604052809291908181526020018280546106db906154be565b80156107285780601f106106fd57610100808354040283529160200191610728565b820191906000526020600020905b81548152906001019060200180831161070b57829003601f168201915b50505050508152602001600860008481526020019081526020016000206002018054610753906154be565b80601f016020809104026020016040519081016040528092919081815260200182805461077f906154be565b80156107cc5780601f106107a1576101008083540402835291602001916107cc565b820191906000526020600020905b8154815290600101906020018083116107af57829003601f168201915b505050505081526020016008600084815260200190815260200160002060030160009054906101000a900460ff16600481111561080c5761080b613fba565b5b81526020016008600084815260200190815260200160002060030160019054906101000a900460ff16600281111561084757610846613fba565b5b81526020016008600084815260200190815260200160002060030160029054906101000a900473ffffffffffffffffffffffffffffffffffffffff1673ffffffffffffffffffffffffffffffffffffffff1681526020016008600084815260200190815260200160002060040160009054906101000a900473ffffffffffffffffffffffffffffffffffffffff1673ffffffffffffffffffffffffffffffffffffffff1681526020016008600084815260200190815260200160002060050160009054906101000a900473ffffffffffffffffffffffffffffffffffffffff1673ffffffffffffffffffffffffffffffffffffffff168152602001428152602001600860008481526020019081526020016000206007018054610969906154be565b80601f0160208091040260200160405190810160405280929190818152602001828054610995906154be565b80156109e25780601f106109b7576101008083540402835291602001916109e2565b820191906000526020600020905b8154815290600101906020018083116109c557829003601f168201915b505050505081525091508192505050610a10565b8080610a01906154f0565b9150506105f4565b505b809150505b919050565b600082600460009054906101000a900473ffffffffffffffffffffffffffffffffffffffff1683604051602001610a4e939291906155bf565b6040516020818303038152906040528051906020012060001c905092915050565b60028181548110610a7f57600080fd5b906000526020600020016000915054906101000a900473ffffffffffffffffffffffffffffffffffffffff1681565b836002811115610ac157610ac0613fba565b5b600b600089815260200190815260200160002060030160006101000a81548160ff02191690836002811115610af957610af8613fba565b5b021790555080600b60008981526020019081526020016000206007019080519060200190610b28929190613bfb565b50600b6000888152602001908152602001600020604051610b4991906159b3565b60405180910390207ff6ce78692ad338bc638c20ce19f064d65feafa9df8ee93c26325f243c24f714e60405160405180910390a284600860008881526020019081526020016000206002019080519060200190610ba7929190613bfb565b50836002811115610bbb57610bba613fba565b5b6008600088815260200190815260200160002060030160016101000a81548160ff02191690836002811115610bf357610bf2613fba565b5b021790555080600860008881526020019081526020016000206007019080519060200190610c22929190613bfb565b5060086000878152602001908152602001600020604051610c439190615b19565b60405180910390207f26341bb8d5dc149fd8d4bc4e161692f62c92650125e8a4bc4f93ddd63701827d60405160405180910390a2826004811115610c8a57610c89613fba565b5b600560008473ffffffffffffffffffffffffffffffffffffffff1673ffffffffffffffffffffffffffffffffffffffff16815260200190815260200160002060020160006101000a81548160ff02191690836004811115610cee57610ced613fba565b5b0217905550600560008373ffffffffffffffffffffffffffffffffffffffff1673ffffffffffffffffffffffffffffffffffffffff168152602001908152602001600020604051610d3f9190615c05565b60405180910390207f1908de41d7f71d48016b2d520847a87c58a616c6dd9d22cd76d2e02c4bc7a74160405160405180910390a250505050505050565b60608060006009541415610d935780915050611196565b60095467ffffffffffffffff811115610daf57610dae61419c565b5b604051908082528060200260200182016040528015610de857816020015b610dd5613b42565b815260200190600190039081610dcd5790505b50905060005b600654811015611190576000600860008381526020019081526020016000209050806040518061014001604052908160008201548152602001600182018054610e36906154be565b80601f0160208091040260200160405190810160405280929190818152602001828054610e62906154be565b8015610eaf5780601f10610e8457610100808354040283529160200191610eaf565b820191906000526020600020905b815481529060010190602001808311610e9257829003601f168201915b50505050508152602001600282018054610ec8906154be565b80601f0160208091040260200160405190810160405280929190818152602001828054610ef4906154be565b8015610f415780601f10610f1657610100808354040283529160200191610f41565b820191906000526020600020905b815481529060010190602001808311610f2457829003601f168201915b505050505081526020016003820160009054906101000a900460ff166004811115610f6f57610f6e613fba565b5b6004811115610f8157610f80613fba565b5b81526020016003820160019054906101000a900460ff166002811115610faa57610fa9613fba565b5b6002811115610fbc57610fbb613fba565b5b81526020016003820160029054906101000a900473ffffffffffffffffffffffffffffffffffffffff1673ffffffffffffffffffffffffffffffffffffffff1673ffffffffffffffffffffffffffffffffffffffff1681526020016004820160009054906101000a900473ffffffffffffffffffffffffffffffffffffffff1673ffffffffffffffffffffffffffffffffffffffff1673ffffffffffffffffffffffffffffffffffffffff1681526020016005820160009054906101000a900473ffffffffffffffffffffffffffffffffffffffff1673ffffffffffffffffffffffffffffffffffffffff1673ffffffffffffffffffffffffffffffffffffffff168152602001600682015481526020016007820180546110dc906154be565b80601f0160208091040260200160405190810160405280929190818152602001828054611108906154be565b80156111555780601f1061112a57610100808354040283529160200191611155565b820191906000526020600020905b81548152906001019060200180831161113857829003601f168201915b50505050508152505083838151811061117157611170615c1c565b5b602002602001018190525050808061118890615c4b565b915050610dee565b50809150505b90565b6111a1613c81565b600560008373ffffffffffffffffffffffffffffffffffffffff1673ffffffffffffffffffffffffffffffffffffffff1681526020019081526020016000206040518061010001604052908160008201548152602001600182018054611206906154be565b80601f0160208091040260200160405190810160405280929190818152602001828054611232906154be565b801561127f5780601f106112545761010080835404028352916020019161127f565b820191906000526020600020905b81548152906001019060200180831161126257829003601f168201915b505050505081526020016002820160009054906101000a900460ff1660048111156112ad576112ac613fba565b5b60048111156112bf576112be613fba565b5b81526020016003820180546112d3906154be565b80601f01602080910402602001604051908101604052809291908181526020018280546112ff906154be565b801561134c5780601f106113215761010080835404028352916020019161134c565b820191906000526020600020905b81548152906001019060200180831161132f57829003601f168201915b505050505081526020016004820160009054906101000a900473ffffffffffffffffffffffffffffffffffffffff1673ffffffffffffffffffffffffffffffffffffffff1673ffffffffffffffffffffffffffffffffffffffff1681526020016005820160009054906101000a900473ffffffffffffffffffffffffffffffffffffffff1673ffffffffffffffffffffffffffffffffffffffff1673ffffffffffffffffffffffffffffffffffffffff1681526020016006820154815260200160078201805461141b906154be565b80601f0160208091040260200160405190810160405280929190818152602001828054611447906154be565b80156114945780601f1061146957610100808354040283529160200191611494565b820191906000526020600020905b81548152906001019060200180831161147757829003601f168201915b5050505050815250509050919050565b6114ac613d04565b600160008373ffffffffffffffffffffffffffffffffffffffff1673ffffffffffffffffffffffffffffffffffffffff1681526020019081526020016000206040518061010001604052908160008201548152602001600182018054611511906154be565b80601f016020809104026020016040519081016040528092919081815260200182805461153d906154be565b801561158a5780601f1061155f5761010080835404028352916020019161158a565b820191906000526020600020905b81548152906001019060200180831161156d57829003601f168201915b505050505081526020016002820154815260200160038201548152602001600482015481526020016005820160009054906101000a900460ff1660038111156115d6576115d5613fba565b5b60038111156115e8576115e7613fba565b5b81526020016005820160019054906101000a900473ffffffffffffffffffffffffffffffffffffffff1673ffffffffffffffffffffffffffffffffffffffff1673ffffffffffffffffffffffffffffffffffffffff1681526020016006820154815250509050919050565b600c5481565b6007818154811061166957600080fd5b906000526020600020016000915054906101000a900473ffffffffffffffffffffffffffffffffffffffff1681565b600a81815481106116a857600080fd5b906000526020600020016000915054906101000a900473ffffffffffffffffffffffffffffffffffffffff1681565b600082600460009054906101000a900473ffffffffffffffffffffffffffffffffffffffff1683604051602001611710939291906155bf565b6040516020818303038152906040528051906020012060001c905092915050565b606080600060065414156117485780915050611b2a565b60065467ffffffffffffffff8111156117645761176361419c565b5b60405190808252806020026020018201604052801561179d57816020015b61178a613c81565b8152602001906001900390816117825790505b50905060005b600654811015611b24576000600782815481106117c3576117c2615c1c565b5b9060005260206000200160009054906101000a900473ffffffffffffffffffffffffffffffffffffffff1690506000600560008373ffffffffffffffffffffffffffffffffffffffff1673ffffffffffffffffffffffffffffffffffffffff168152602001908152602001600020905080604051806101000160405290816000820154815260200160018201805461185a906154be565b80601f0160208091040260200160405190810160405280929190818152602001828054611886906154be565b80156118d35780601f106118a8576101008083540402835291602001916118d3565b820191906000526020600020905b8154815290600101906020018083116118b657829003601f168201915b505050505081526020016002820160009054906101000a900460ff16600481111561190157611900613fba565b5b600481111561191357611912613fba565b5b8152602001600382018054611927906154be565b80601f0160208091040260200160405190810160405280929190818152602001828054611953906154be565b80156119a05780601f10611975576101008083540402835291602001916119a0565b820191906000526020600020905b81548152906001019060200180831161198357829003601f168201915b505050505081526020016004820160009054906101000a900473ffffffffffffffffffffffffffffffffffffffff1673ffffffffffffffffffffffffffffffffffffffff1673ffffffffffffffffffffffffffffffffffffffff1681526020016005820160009054906101000a900473ffffffffffffffffffffffffffffffffffffffff1673ffffffffffffffffffffffffffffffffffffffff1673ffffffffffffffffffffffffffffffffffffffff16815260200160068201548152602001600782018054611a6f906154be565b80601f0160208091040260200160405190810160405280929190818152602001828054611a9b906154be565b8015611ae85780601f10611abd57610100808354040283529160200191611ae8565b820191906000526020600020905b815481529060010190602001808311611acb57829003601f168201915b505050505081525050848481518110611b0457611b03615c1c565b5b602002602001018190525050508080611b1c90615c4b565b9150506117a3565b50809150505b90565b600b602052806000526040600020600091509050806000015490806001015490806002018054611b5c906154be565b80601f0160208091040260200160405190810160405280929190818152602001828054611b88906154be565b8015611bd55780601f10611baa57610100808354040283529160200191611bd5565b820191906000526020600020905b815481529060010190602001808311611bb857829003601f168201915b5050505050908060030160009054906101000a900460ff16908060030160019054906101000a900460ff16908060030160029054906101000a900460ff16908060030160039054906101000a900473ffffffffffffffffffffffffffffffffffffffff16908060040160009054906101000a900473ffffffffffffffffffffffffffffffffffffffff16908060050160009054906101000a900473ffffffffffffffffffffffffffffffffffffffff1690806006015490806007018054611c9b906154be565b80601f0160208091040260200160405190810160405280929190818152602001828054611cc7906154be565b8015611d145780601f10611ce957610100808354040283529160200191611d14565b820191906000526020600020905b815481529060010190602001808311611cf757829003601f168201915b505050505090508b565b6005602052806000526040600020600091509050806000015490806001018054611d47906154be565b80601f0160208091040260200160405190810160405280929190818152602001828054611d73906154be565b8015611dc05780601f10611d9557610100808354040283529160200191611dc0565b820191906000526020600020905b815481529060010190602001808311611da357829003601f168201915b5050505050908060020160009054906101000a900460ff1690806003018054611de8906154be565b80601f0160208091040260200160405190810160405280929190818152602001828054611e14906154be565b8015611e615780601f10611e3657610100808354040283529160200191611e61565b820191906000526020600020905b815481529060010190602001808311611e4457829003601f168201915b5050505050908060040160009054906101000a900473ffffffffffffffffffffffffffffffffffffffff16908060050160009054906101000a900473ffffffffffffffffffffffffffffffffffffffff1690806006015490806007018054611ec8906154be565b80601f0160208091040260200160405190810160405280929190818152602001828054611ef4906154be565b8015611f415780601f10611f1657610100808354040283529160200191611f41565b820191906000526020600020905b815481529060010190602001808311611f2457829003601f168201915b5050505050905088565b6040518061010001604052806006548152602001858152602001846004811115611f7857611f77613fba565b5b6004811115611f8a57611f89613fba565b5b81526020018381526020018673ffffffffffffffffffffffffffffffffffffffff168152602001600460009054906101000a900473ffffffffffffffffffffffffffffffffffffffff1673ffffffffffffffffffffffffffffffffffffffff16815260200142815260200182815250600560008773ffffffffffffffffffffffffffffffffffffffff1673ffffffffffffffffffffffffffffffffffffffff16815260200190815260200160002060008201518160000155602082015181600101908051906020019061205e929190613bfb565b5060408201518160020160006101000a81548160ff0219169083600481111561208a57612089613fba565b5b021790555060608201518160030190805190602001906120ab929190613bfb565b5060808201518160040160006101000a81548173ffffffffffffffffffffffffffffffffffffffff021916908373ffffffffffffffffffffffffffffffffffffffff16021790555060a08201518160050160006101000a81548173ffffffffffffffffffffffffffffffffffffffff021916908373ffffffffffffffffffffffffffffffffffffffff16021790555060c0820151816006015560e0820151816007019080519060200190612160929190613bfb565b50905050600560008673ffffffffffffffffffffffffffffffffffffffff1673ffffffffffffffffffffffffffffffffffffffff1681526020019081526020016000206040516121b09190615c05565b60405180910390207f1908de41d7f71d48016b2d520847a87c58a616c6dd9d22cd76d2e02c4bc7a74160405160405180910390a26007859080600181540180825580915050600190039060005260206000200160009091909190916101000a81548173ffffffffffffffffffffffffffffffffffffffff021916908373ffffffffffffffffffffffffffffffffffffffff1602179055506006600081548092919061225a90615c4b565b91905055505050505050565b60008054906101000a900473ffffffffffffffffffffffffffffffffffffffff1681565b81600381111561229d5761229c613fba565b5b600160008373ffffffffffffffffffffffffffffffffffffffff1673ffffffffffffffffffffffffffffffffffffffff16815260200190815260200160002060050160006101000a81548160ff0219169083600381111561230157612300613fba565b5b02179055508073ffffffffffffffffffffffffffffffffffffffff168260038111156123305761232f613fba565b5b600381111561234257612341613fba565b5b600160008473ffffffffffffffffffffffffffffffffffffffff1673ffffffffffffffffffffffffffffffffffffffff1681526020019081526020016000206001016040516123919190615d13565b60405180910390207ff17f3effabbd51830c4ffa8b6910ac12573d210009e0aedb1a55ae5026192e9a600160008673ffffffffffffffffffffffffffffffffffffffff1673ffffffffffffffffffffffffffffffffffffffff16815260200190815260200160002060000154600160008773ffffffffffffffffffffffffffffffffffffffff1673ffffffffffffffffffffffffffffffffffffffff16815260200190815260200160002060020154600160008873ffffffffffffffffffffffffffffffffffffffff1673ffffffffffffffffffffffffffffffffffffffff16815260200190815260200160002060030154600160008973ffffffffffffffffffffffffffffffffffffffff1673ffffffffffffffffffffffffffffffffffffffff16815260200190815260200160002060040154426040516124d8959493929190615d2a565b60405180910390a45050565b600160205280600052604060002060009150905080600001549080600101805461250d906154be565b80601f0160208091040260200160405190810160405280929190818152602001828054612539906154be565b80156125865780601f1061255b57610100808354040283529160200191612586565b820191906000526020600020905b81548152906001019060200180831161256957829003601f168201915b5050505050908060020154908060030154908060040154908060050160009054906101000a900460ff16908060050160019054906101000a900473ffffffffffffffffffffffffffffffffffffffff16908060060154905088565b600860205280600052604060002060009150905080600001549080600101805461260a906154be565b80601f0160208091040260200160405190810160405280929190818152602001828054612636906154be565b80156126835780601f1061265857610100808354040283529160200191612683565b820191906000526020600020905b81548152906001019060200180831161266657829003601f168201915b505050505090806002018054612698906154be565b80601f01602080910402602001604051908101604052809291908181526020018280546126c4906154be565b80156127115780601f106126e657610100808354040283529160200191612711565b820191906000526020600020905b8154815290600101906020018083116126f457829003601f168201915b5050505050908060030160009054906101000a900460ff16908060030160019054906101000a900460ff16908060030160029054906101000a900473ffffffffffffffffffffffffffffffffffffffff16908060040160009054906101000a900473ffffffffffffffffffffffffffffffffffffffff16908060050160009054906101000a900473ffffffffffffffffffffffffffffffffffffffff16908060060154908060070180546127c4906154be565b80601f01602080910402602001604051908101604052809291908181526020018280546127f0906154be565b801561283d5780601f106128125761010080835404028352916020019161283d565b820191906000526020600020905b81548152906001019060200180831161282057829003601f168201915b505050505090508a565b60095481565b3373ffffffffffffffffffffffffffffffffffffffff1660008054906101000a900473ffffffffffffffffffffffffffffffffffffffff1673ffffffffffffffffffffffffffffffffffffffff16146128db576040517f08c379a00000000000000000000000000000000000000000000000000000000081526004016128d290615dc9565b60405180910390fd5b604051806101000160405280600354815260200187815260200186815260200185815260200184815260200183600381111561291a57612919613fba565b5b600381111561292c5761292b613fba565b5b81526020018273ffffffffffffffffffffffffffffffffffffffff16815260200142815250600160008373ffffffffffffffffffffffffffffffffffffffff1673ffffffffffffffffffffffffffffffffffffffff1681526020019081526020016000206000820151816000015560208201518160010190805190602001906129b6929190613bfb565b5060408201518160020155606082015181600301556080820151816004015560a08201518160050160006101000a81548160ff02191690836003811115612a00576129ff613fba565b5b021790555060c08201518160050160016101000a81548173ffffffffffffffffffffffffffffffffffffffff021916908373ffffffffffffffffffffffffffffffffffffffff16021790555060e082015181600601559050508073ffffffffffffffffffffffffffffffffffffffff16826003811115612a8357612a82613fba565b5b6003811115612a9557612a94613fba565b5b87604051612aa39190615de9565b60405180910390207ff17f3effabbd51830c4ffa8b6910ac12573d210009e0aedb1a55ae5026192e9a60035489898942604051612ae4959493929190615d2a565b60405180910390a46002819080600181540180825580915050600190039060005260206000200160009091909190916101000a81548173ffffffffffffffffffffffffffffffffffffffff021916908373ffffffffffffffffffffffffffffffffffffffff16021790555060036000815480929190612b6290615c4b565b9190505550505050505050565b60035481565b81600560008573ffffffffffffffffffffffffffffffffffffffff1673ffffffffffffffffffffffffffffffffffffffff1681526020019081526020016000206003019080519060200190612bcb929190613bfb565b5080600560008573ffffffffffffffffffffffffffffffffffffffff1673ffffffffffffffffffffffffffffffffffffffff1681526020019081526020016000206007019080519060200190612c22929190613bfb565b50600560008473ffffffffffffffffffffffffffffffffffffffff1673ffffffffffffffffffffffffffffffffffffffff168152602001908152602001600020604051612c6f9190615c05565b60405180910390207f1908de41d7f71d48016b2d520847a87c58a616c6dd9d22cd76d2e02c4bc7a74160405160405180910390a2505050565b6060600060035467ffffffffffffffff811115612cc857612cc761419c565b5b604051908082528060200260200182016040528015612d0157816020015b612cee613d04565b815260200190600190039081612ce65790505b50905060005b600354811015612f2c57600060028281548110612d2757612d26615c1c565b5b9060005260206000200160009054906101000a900473ffffffffffffffffffffffffffffffffffffffff1690506000600160008373ffffffffffffffffffffffffffffffffffffffff1673ffffffffffffffffffffffffffffffffffffffff1681526020019081526020016000209050806040518061010001604052908160008201548152602001600182018054612dbe906154be565b80601f0160208091040260200160405190810160405280929190818152602001828054612dea906154be565b8015612e375780601f10612e0c57610100808354040283529160200191612e37565b820191906000526020600020905b815481529060010190602001808311612e1a57829003601f168201915b505050505081526020016002820154815260200160038201548152602001600482015481526020016005820160009054906101000a900460ff166003811115612e8357612e82613fba565b5b6003811115612e9557612e94613fba565b5b81526020016005820160019054906101000a900473ffffffffffffffffffffffffffffffffffffffff1673ffffffffffffffffffffffffffffffffffffffff1673ffffffffffffffffffffffffffffffffffffffff168152602001600682015481525050848481518110612f0c57612f0b615c1c565b5b602002602001018190525050508080612f2490615c4b565b915050612d07565b508091505090565b6060806000600c541415612f4b5780915050613301565b600c5467ffffffffffffffff811115612f6757612f6661419c565b5b604051908082528060200260200182016040528015612fa057816020015b612f8d613d7a565b815260200190600190039081612f855790505b50905060005b600c548110156132fb576000600b6000838152602001908152602001600020905080604051806101600160405290816000820154815260200160018201548152602001600282018054612ff8906154be565b80601f0160208091040260200160405190810160405280929190818152602001828054613024906154be565b80156130715780601f1061304657610100808354040283529160200191613071565b820191906000526020600020905b81548152906001019060200180831161305457829003601f168201915b505050505081526020016003820160009054906101000a900460ff16600281111561309f5761309e613fba565b5b60028111156130b1576130b0613fba565b5b81526020016003820160019054906101000a900460ff1660048111156130da576130d9613fba565b5b60048111156130ec576130eb613fba565b5b81526020016003820160029054906101000a900460ff16600181111561311557613114613fba565b5b600181111561312757613126613fba565b5b81526020016003820160039054906101000a900473ffffffffffffffffffffffffffffffffffffffff1673ffffffffffffffffffffffffffffffffffffffff1673ffffffffffffffffffffffffffffffffffffffff1681526020016004820160009054906101000a900473ffffffffffffffffffffffffffffffffffffffff1673ffffffffffffffffffffffffffffffffffffffff1673ffffffffffffffffffffffffffffffffffffffff1681526020016005820160009054906101000a900473ffffffffffffffffffffffffffffffffffffffff1673ffffffffffffffffffffffffffffffffffffffff1673ffffffffffffffffffffffffffffffffffffffff16815260200160068201548152602001600782018054613247906154be565b80601f0160208091040260200160405190810160405280929190818152602001828054613273906154be565b80156132c05780601f10613295576101008083540402835291602001916132c0565b820191906000526020600020905b8154815290600101906020018083116132a357829003601f168201915b5050505050815250508383815181106132dc576132db615c1c565b5b60200260200101819052505080806132f390615c4b565b915050612fa6565b50809150505b90565b604051806101400160405280600954815260200187815260200160405180602001604052806000815250815260200186600481111561334657613345613fba565b5b600481111561335857613357613fba565b5b81526020018560028111156133705761336f613fba565b5b600281111561338257613381613fba565b5b81526020018473ffffffffffffffffffffffffffffffffffffffff168152602001600460009054906101000a900473ffffffffffffffffffffffffffffffffffffffff1673ffffffffffffffffffffffffffffffffffffffff1681526020018373ffffffffffffffffffffffffffffffffffffffff16815260200142815260200182815250600860006009548152602001908152602001600020600082015181600001556020820151816001019080519060200190613442929190613bfb565b50604082015181600201908051906020019061345f929190613bfb565b5060608201518160030160006101000a81548160ff0219169083600481111561348b5761348a613fba565b5b021790555060808201518160030160016101000a81548160ff021916908360028111156134bb576134ba613fba565b5b021790555060a08201518160030160026101000a81548173ffffffffffffffffffffffffffffffffffffffff021916908373ffffffffffffffffffffffffffffffffffffffff16021790555060c08201518160040160006101000a81548173ffffffffffffffffffffffffffffffffffffffff021916908373ffffffffffffffffffffffffffffffffffffffff16021790555060e08201518160050160006101000a81548173ffffffffffffffffffffffffffffffffffffffff021916908373ffffffffffffffffffffffffffffffffffffffff16021790555061010082015181600601556101208201518160070190805190602001906135bd929190613bfb565b509050506135d160095487868887876136b0565b6008600060095481526020019081526020016000206040516135f39190615b19565b60405180910390207f26341bb8d5dc149fd8d4bc4e161692f62c92650125e8a4bc4f93ddd63701827d60405160405180910390a2600a829080600181540180825580915050600190039060005260206000200160009091909190916101000a81548173ffffffffffffffffffffffffffffffffffffffff021916908373ffffffffffffffffffffffffffffffffffffffff1602179055506009600081548092919061369d90615c4b565b9190505550505050505050565b60065481565b6000600160048111156136c6576136c5613fba565b5b8460048111156136d9576136d8613fba565b5b60048111156136eb576136ea613fba565b5b148061372d57506003600481111561370657613705613fba565b5b84600481111561371957613718613fba565b5b600481111561372b5761372a613fba565b5b145b8061376d575060048081111561374657613745613fba565b5b84600481111561375957613758613fba565b5b600481111561376b5761376a613fba565b5b145b1561377b57600090506137c0565b6002600481111561378f5761378e613fba565b5b8460048111156137a2576137a1613fba565b5b60048111156137b4576137b3613fba565b5b14156137bf57600190505b5b6137cf878787878588886137d8565b50505050505050565b604051806101600160405280600c54815260200188815260200187815260200186600281111561380b5761380a613fba565b5b600281111561381d5761381c613fba565b5b815260200185600481111561383557613834613fba565b5b600481111561384757613846613fba565b5b815260200184600181111561385f5761385e613fba565b5b81526020018373ffffffffffffffffffffffffffffffffffffffff168152602001600460009054906101000a900473ffffffffffffffffffffffffffffffffffffffff1673ffffffffffffffffffffffffffffffffffffffff1681526020018273ffffffffffffffffffffffffffffffffffffffff16815260200142815260200160405180602001604052806000815250815250600b6000600c54815260200190815260200160002060008201518160000155602082015181600101556040820151816002019080519060200190613938929190613bfb565b5060608201518160030160006101000a81548160ff0219169083600281111561396457613963613fba565b5b021790555060808201518160030160016101000a81548160ff0219169083600481111561399457613993613fba565b5b021790555060a08201518160030160026101000a81548160ff021916908360018111156139c4576139c3613fba565b5b021790555060c08201518160030160036101000a81548173ffffffffffffffffffffffffffffffffffffffff021916908373ffffffffffffffffffffffffffffffffffffffff16021790555060e08201518160040160006101000a81548173ffffffffffffffffffffffffffffffffffffffff021916908373ffffffffffffffffffffffffffffffffffffffff1602179055506101008201518160050160006101000a81548173ffffffffffffffffffffffffffffffffffffffff021916908373ffffffffffffffffffffffffffffffffffffffff1602179055506101208201518160060155610140820151816007019080519060200190613ac7929190613bfb565b50905050600b6000600c548152602001908152602001600020604051613aed91906159b3565b60405180910390207ff6ce78692ad338bc638c20ce19f064d65feafa9df8ee93c26325f243c24f714e60405160405180910390a2600c6000815480929190613b3490615c4b565b919050555050505050505050565b60405180610140016040528060008152602001606081526020016060815260200160006004811115613b7757613b76613fba565b5b815260200160006002811115613b9057613b8f613fba565b5b8152602001600073ffffffffffffffffffffffffffffffffffffffff168152602001600073ffffffffffffffffffffffffffffffffffffffff168152602001600073ffffffffffffffffffffffffffffffffffffffff16815260200160008152602001606081525090565b828054613c07906154be565b90600052602060002090601f016020900481019282613c295760008555613c70565b82601f10613c4257805160ff1916838001178555613c70565b82800160010185558215613c70579182015b82811115613c6f578251825591602001919060010190613c54565b5b509050613c7d9190613e4c565b5090565b604051806101000160405280600081526020016060815260200160006004811115613caf57613cae613fba565b5b815260200160608152602001600073ffffffffffffffffffffffffffffffffffffffff168152602001600073ffffffffffffffffffffffffffffffffffffffff16815260200160008152602001606081525090565b604051806101000160405280600081526020016060815260200160008019168152602001600080191681526020016000801916815260200160006003811115613d5057613d4f613fba565b5b8152602001600073ffffffffffffffffffffffffffffffffffffffff168152602001600081525090565b60405180610160016040528060008152602001600081526020016060815260200160006002811115613daf57613dae613fba565b5b815260200160006004811115613dc857613dc7613fba565b5b815260200160006001811115613de157613de0613fba565b5b8152602001600073ffffffffffffffffffffffffffffffffffffffff168152602001600073ffffffffffffffffffffffffffffffffffffffff168152602001600073ffffffffffffffffffffffffffffffffffffffff16815260200160008152602001606081525090565b5b80821115613e65576000816000905550600101613e4d565b5090565b6000604051905090565b600080fd5b600080fd5b600073ffffffffffffffffffffffffffffffffffffffff82169050919050565b6000613ea882613e7d565b9050919050565b613eb881613e9d565b8114613ec357600080fd5b50565b600081359050613ed581613eaf565b92915050565b600060208284031215613ef157613ef0613e73565b5b6000613eff84828501613ec6565b91505092915050565b6000819050919050565b613f1b81613f08565b82525050565b600081519050919050565b600082825260208201905092915050565b60005b83811015613f5b578082015181840152602081019050613f40565b83811115613f6a576000848401525b50505050565b6000601f19601f8301169050919050565b6000613f8c82613f21565b613f968185613f2c565b9350613fa6818560208601613f3d565b613faf81613f70565b840191505092915050565b7f4e487b7100000000000000000000000000000000000000000000000000000000600052602160045260246000fd5b60058110613ffa57613ff9613fba565b5b50565b600081905061400b82613fe9565b919050565b600061401b82613ffd565b9050919050565b61402b81614010565b82525050565b6003811061404257614041613fba565b5b50565b600081905061405382614031565b919050565b600061406382614045565b9050919050565b61407381614058565b82525050565b61408281613e9d565b82525050565b6000610140830160008301516140a16000860182613f12565b50602083015184820360208601526140b98282613f81565b915050604083015184820360408601526140d38282613f81565b91505060608301516140e86060860182614022565b5060808301516140fb608086018261406a565b5060a083015161410e60a0860182614079565b5060c083015161412160c0860182614079565b5060e083015161413460e0860182614079565b50610100830151614149610100860182613f12565b506101208301518482036101208601526141638282613f81565b9150508091505092915050565b6000602082019050818103600083015261418a8184614088565b905092915050565b600080fd5b600080fd5b7f4e487b7100000000000000000000000000000000000000000000000000000000600052604160045260246000fd5b6141d482613f70565b810181811067ffffffffffffffff821117156141f3576141f261419c565b5b80604052505050565b6000614206613e69565b905061421282826141cb565b919050565b600067ffffffffffffffff8211156142325761423161419c565b5b61423b82613f70565b9050602081019050919050565b82818337600083830152505050565b600061426a61426584614217565b6141fc565b90508281526020810184848401111561428657614285614197565b5b614291848285614248565b509392505050565b600082601f8301126142ae576142ad614192565b5b81356142be848260208601614257565b91505092915050565b6142d081613f08565b81146142db57600080fd5b50565b6000813590506142ed816142c7565b92915050565b6000806040838503121561430a57614309613e73565b5b600083013567ffffffffffffffff81111561432857614327613e78565b5b61433485828601614299565b9250506020614345858286016142de565b9150509250929050565b61435881613e9d565b82525050565b6000602082019050614373600083018461434f565b92915050565b60006020828403121561438f5761438e613e73565b5b600061439d848285016142de565b91505092915050565b600080600080600080600060e0888a0312156143c5576143c4613e73565b5b60006143d38a828b016142de565b97505060206143e48a828b016142de565b965050604088013567ffffffffffffffff81111561440557614404613e78565b5b6144118a828b01614299565b95505060606144228a828b016142de565b94505060806144338a828b016142de565b93505060a06144448a828b01613ec6565b92505060c088013567ffffffffffffffff81111561446557614464613e78565b5b6144718a828b01614299565b91505092959891949750929550565b600081519050919050565b600082825260208201905092915050565b6000819050602082019050919050565b6000610140830160008301516144c56000860182613f12565b50602083015184820360208601526144dd8282613f81565b915050604083015184820360408601526144f78282613f81565b915050606083015161450c6060860182614022565b50608083015161451f608086018261406a565b5060a083015161453260a0860182614079565b5060c083015161454560c0860182614079565b5060e083015161455860e0860182614079565b5061010083015161456d610100860182613f12565b506101208301518482036101208601526145878282613f81565b9150508091505092915050565b60006145a083836144ac565b905092915050565b6000602082019050919050565b60006145c082614480565b6145ca818561448b565b9350836020820285016145dc8561449c565b8060005b8581101561461857848403895281516145f98582614594565b9450614604836145a8565b925060208a019950506001810190506145e0565b50829750879550505050505092915050565b6000602082019050818103600083015261464481846145b5565b905092915050565b6000610100830160008301516146656000860182613f12565b506020830151848203602086015261467d8282613f81565b91505060408301516146926040860182614022565b50606083015184820360608601526146aa8282613f81565b91505060808301516146bf6080860182614079565b5060a08301516146d260a0860182614079565b5060c08301516146e560c0860182613f12565b5060e083015184820360e08601526146fd8282613f81565b9150508091505092915050565b60006020820190508181036000830152614724818461464c565b905092915050565b6000819050919050565b61473f8161472c565b82525050565b6004811061475657614755613fba565b5b50565b600081905061476782614745565b919050565b600061477782614759565b9050919050565b6147878161476c565b82525050565b6000610100830160008301516147a66000860182613f12565b50602083015184820360208601526147be8282613f81565b91505060408301516147d36040860182614736565b5060608301516147e66060860182614736565b5060808301516147f96080860182614736565b5060a083015161480c60a086018261477e565b5060c083015161481f60c0860182614079565b5060e083015161483260e0860182613f12565b508091505092915050565b60006020820190508181036000830152614857818461478d565b905092915050565b61486881613f08565b82525050565b6000602082019050614883600083018461485f565b92915050565b600081519050919050565b600082825260208201905092915050565b6000819050602082019050919050565b6000610100830160008301516148ce6000860182613f12565b50602083015184820360208601526148e68282613f81565b91505060408301516148fb6040860182614022565b50606083015184820360608601526149138282613f81565b91505060808301516149286080860182614079565b5060a083015161493b60a0860182614079565b5060c083015161494e60c0860182613f12565b5060e083015184820360e08601526149668282613f81565b9150508091505092915050565b600061497f83836148b5565b905092915050565b6000602082019050919050565b600061499f82614889565b6149a98185614894565b9350836020820285016149bb856148a5565b8060005b858110156149f757848403895281516149d88582614973565b94506149e383614987565b925060208a019950506001810190506149bf565b50829750879550505050505092915050565b60006020820190508181036000830152614a238184614994565b905092915050565b600082825260208201905092915050565b6000614a4782613f21565b614a518185614a2b565b9350614a61818560208601613f3d565b614a6a81613f70565b840191505092915050565b614a7e81614058565b82525050565b614a8d81614010565b82525050565b60028110614aa457614aa3613fba565b5b50565b6000819050614ab582614a93565b919050565b6000614ac582614aa7565b9050919050565b614ad581614aba565b82525050565b600061016082019050614af1600083018e61485f565b614afe602083018d61485f565b8181036040830152614b10818c614a3c565b9050614b1f606083018b614a75565b614b2c608083018a614a84565b614b3960a0830189614acc565b614b4660c083018861434f565b614b5360e083018761434f565b614b6161010083018661434f565b614b6f61012083018561485f565b818103610140830152614b828184614a3c565b90509c9b505050505050505050505050565b600061010082019050614baa600083018b61485f565b8181036020830152614bbc818a614a3c565b9050614bcb6040830189614a84565b8181036060830152614bdd8188614a3c565b9050614bec608083018761434f565b614bf960a083018661434f565b614c0660c083018561485f565b81810360e0830152614c188184614a3c565b90509998505050505050505050565b600080600080600060a08688031215614c4357614c42613e73565b5b6000614c5188828901613ec6565b955050602086013567ffffffffffffffff811115614c7257614c71613e78565b5b614c7e88828901614299565b9450506040614c8f888289016142de565b935050606086013567ffffffffffffffff811115614cb057614caf613e78565b5b614cbc88828901614299565b925050608086013567ffffffffffffffff811115614cdd57614cdc613e78565b5b614ce988828901614299565b9150509295509295909350565b60008060408385031215614d0d57614d0c613e73565b5b6000614d1b858286016142de565b9250506020614d2c85828601613ec6565b9150509250929050565b614d3f8161472c565b82525050565b614d4e8161476c565b82525050565b600061010082019050614d6a600083018b61485f565b8181036020830152614d7c818a614a3c565b9050614d8b6040830189614d36565b614d986060830188614d36565b614da56080830187614d36565b614db260a0830186614d45565b614dbf60c083018561434f565b614dcc60e083018461485f565b9998505050505050505050565b600061014082019050614def600083018d61485f565b8181036020830152614e01818c614a3c565b90508181036040830152614e15818b614a3c565b9050614e24606083018a614a84565b614e316080830189614a75565b614e3e60a083018861434f565b614e4b60c083018761434f565b614e5860e083018661434f565b614e6661010083018561485f565b818103610120830152614e798184614a3c565b90509b9a5050505050505050505050565b614e938161472c565b8114614e9e57600080fd5b50565b600081359050614eb081614e8a565b92915050565b60008060008060008060c08789031215614ed357614ed2613e73565b5b600087013567ffffffffffffffff811115614ef157614ef0613e78565b5b614efd89828a01614299565b9650506020614f0e89828a01614ea1565b9550506040614f1f89828a01614ea1565b9450506060614f3089828a01614ea1565b9350506080614f4189828a016142de565b92505060a0614f5289828a01613ec6565b9150509295509295509295565b600080600060608486031215614f7857614f77613e73565b5b6000614f8686828701613ec6565b935050602084013567ffffffffffffffff811115614fa757614fa6613e78565b5b614fb386828701614299565b925050604084013567ffffffffffffffff811115614fd457614fd3613e78565b5b614fe086828701614299565b9150509250925092565b600081519050919050565b600082825260208201905092915050565b6000819050602082019050919050565b60006101008301600083015161502f6000860182613f12565b50602083015184820360208601526150478282613f81565b915050604083015161505c6040860182614736565b50606083015161506f6060860182614736565b5060808301516150826080860182614736565b5060a083015161509560a086018261477e565b5060c08301516150a860c0860182614079565b5060e08301516150bb60e0860182613f12565b508091505092915050565b60006150d28383615016565b905092915050565b6000602082019050919050565b60006150f282614fea565b6150fc8185614ff5565b93508360208202850161510e85615006565b8060005b8581101561514a578484038952815161512b85826150c6565b9450615136836150da565b925060208a01995050600181019050615112565b50829750879550505050505092915050565b6000602082019050818103600083015261517681846150e7565b905092915050565b600081519050919050565b600082825260208201905092915050565b6000819050602082019050919050565b6151b381614aba565b82525050565b6000610160830160008301516151d26000860182613f12565b5060208301516151e56020860182613f12565b50604083015184820360408601526151fd8282613f81565b9150506060830151615212606086018261406a565b5060808301516152256080860182614022565b5060a083015161523860a08601826151aa565b5060c083015161524b60c0860182614079565b5060e083015161525e60e0860182614079565b50610100830151615273610100860182614079565b50610120830151615288610120860182613f12565b506101408301518482036101408601526152a28282613f81565b9150508091505092915050565b60006152bb83836151b9565b905092915050565b6000602082019050919050565b60006152db8261517e565b6152e58185615189565b9350836020820285016152f78561519a565b8060005b85811015615333578484038952815161531485826152af565b945061531f836152c3565b925060208a019950506001810190506152fb565b50829750879550505050505092915050565b6000602082019050818103600083015261535f81846152d0565b905092915050565b60008060008060008060c0878903121561538457615383613e73565b5b600087013567ffffffffffffffff8111156153a2576153a1613e78565b5b6153ae89828a01614299565b96505060206153bf89828a016142de565b95505060406153d089828a016142de565b94505060606153e189828a01613ec6565b93505060806153f289828a01613ec6565b92505060a087013567ffffffffffffffff81111561541357615412613e78565b5b61541f89828a01614299565b9150509295509295509295565b7f4e487b7100000000000000000000000000000000000000000000000000000000600052601160045260246000fd5b600061546682613f08565b915061547183613f08565b9250828210156154845761548361542c565b5b828203905092915050565b7f4e487b7100000000000000000000000000000000000000000000000000000000600052602260045260246000fd5b600060028204905060018216806154d657607f821691505b602082108114156154ea576154e961548f565b5b50919050565b60006154fb82613f08565b9150600082141561550f5761550e61542c565b5b600182039050919050565b600081905092915050565b600061553082613f21565b61553a818561551a565b935061554a818560208601613f3d565b80840191505092915050565b60008160601b9050919050565b600061556e82615556565b9050919050565b600061558082615563565b9050919050565b61559861559382613e9d565b615575565b82525050565b6000819050919050565b6155b96155b482613f08565b61559e565b82525050565b60006155cb8286615525565b91506155d78285615587565b6014820191506155e782846155a8565b602082019150819050949350505050565b60008160001c9050919050565b6000819050919050565b600061562261561d836155f8565b615605565b9050919050565b61563281613f08565b82525050565b60006156448383615629565b60208301905092915050565b600081905092915050565b60008190508160005260206000209050919050565b6000815461567d816154be565b6156878186615650565b945060018216600081146156a257600181146156b4576156e7565b60ff19831686526020860193506156e7565b6156bd8561565b565b60005b838110156156df578154818901526001820191506020810190506156c0565b808801955050505b50505092915050565b60006156fc8383615670565b905092915050565b600060ff82169050919050565b600061572461571f836155f8565b615704565b9050919050565b61573481614058565b82525050565b6000615746838361572b565b60208301905092915050565b60008160081c9050919050565b600060ff82169050919050565b600061577f61577a83615752565b61575f565b9050919050565b61578f81614010565b82525050565b60006157a18383615786565b60208301905092915050565b60008160101c9050919050565b600060ff82169050919050565b60006157da6157d5836157ad565b6157ba565b9050919050565b6157ea81614aba565b82525050565b60006157fc83836157e1565b60208301905092915050565b60008160181c9050919050565b600073ffffffffffffffffffffffffffffffffffffffff82169050919050565b600061584861584383615808565b615815565b9050919050565b61585881613e9d565b82525050565b600061586a838361584f565b60208301905092915050565b6000615889615884836155f8565b615815565b9050919050565b600080830160008084015490506158a68161560f565b6158b08682615638565b955050600184015490506158c38161560f565b6158cd8682615638565b955050600284016158de86826156f0565b955050600384015490506158f181615711565b6158fb868261573a565b9550506159078161576c565b6159118682615795565b95505061591d816157c7565b61592786826157f0565b95505061593381615835565b61593d868261585e565b9550506004840154905061595081615876565b61595a868261585e565b9550506005840154905061596d81615876565b615977868261585e565b9550506006840154905061598a8161560f565b6159948682615638565b955050600784016159a586826156f0565b955050849250505092915050565b60006159bf8284615890565b915081905092915050565b60006159dd6159d8836155f8565b61575f565b9050919050565b60006159f76159f283615752565b615704565b9050919050565b6000615a11615a0c836157ad565b615815565b9050919050565b60008083016000808401549050615a2e8161560f565b615a388682615638565b95505060018401615a4986826156f0565b95505060028401615a5a86826156f0565b95505060038401549050615a6d816159ca565b615a778682615795565b955050615a83816159e4565b615a8d868261573a565b955050615a99816159fe565b615aa3868261585e565b95505060048401549050615ab681615876565b615ac0868261585e565b95505060058401549050615ad381615876565b615add868261585e565b95505060068401549050615af08161560f565b615afa8682615638565b95505060078401615b0b86826156f0565b955050849250505092915050565b6000615b258284615a18565b915081905092915050565b60008083016000808401549050615b468161560f565b615b508682615638565b95505060018401615b6186826156f0565b95505060028401549050615b74816159ca565b615b7e8682615795565b95505060038401615b8f86826156f0565b95505060048401549050615ba281615876565b615bac868261585e565b95505060058401549050615bbf81615876565b615bc9868261585e565b95505060068401549050615bdc8161560f565b615be68682615638565b95505060078401615bf786826156f0565b955050849250505092915050565b6000615c118284615b30565b915081905092915050565b7f4e487b7100000000000000000000000000000000000000000000000000000000600052603260045260246000fd5b6000615c5682613f08565b91507fffffffffffffffffffffffffffffffffffffffffffffffffffffffffffffffff821415615c8957615c8861542c565b5b600182019050919050565b60008154615ca1816154be565b615cab818661551a565b94506001821660008114615cc65760018114615cd757615d0a565b60ff19831686528186019350615d0a565b615ce08561565b565b60005b83811015615d0257815481890152600182019150602081019050615ce3565b838801955050505b50505092915050565b6000615d1f8284615c94565b915081905092915050565b600060a082019050615d3f600083018861485f565b615d4c6020830187614d36565b615d596040830186614d36565b615d666060830185614d36565b615d73608083018461485f565b9695505050505050565b7f596f7520617265206e6f7420616e206f776e6572000000000000000000000000600082015250565b6000615db3601483614a2b565b9150615dbe82615d7d565b602082019050919050565b60006020820190508181036000830152615de281615da6565b9050919050565b6000615df58284615525565b91508190509291505056fea26469706673582212204a25dda7a1c643ae388216966e59b323370d67907559c7e514adad8dbb81e6ac64736f6c634300080a0033",
  "immutableReferences": {},
  "source": "// SPDX-License-Identifier: MIT\r\npragma solidity >=0.8.0 <0.9.0;\r\n\r\nimport \"./UserChain.sol\";\r\nimport \"./SharedChain.sol\";\r\n\r\ncontract ProjectChain is UserChain {\r\n    address _projectInitiator;\r\n\r\n    constructor() {\r\n        _projectInitiator = msg.sender;\r\n    }\r\n\r\n    modifier onlyProjectInitiator() {\r\n        require(\r\n            users[_projectInitiator]._role == Roles.ProjectInitiator,\r\n            \"You don't have the rights for this resources.\"\r\n        );\r\n        _;\r\n    }\r\n\r\n    /**  PROJECT INITIATOR  */\r\n\r\n    mapping(address => Project) public projects;\r\n    uint256 public projectsCounter = 0;\r\n    address[] public projectsAddress;\r\n\r\n    function createUniqueProjectAddress(string memory _name, uint _index) public view returns (address) {\r\n        return address(uint160(uint256(keccak256(abi.encodePacked(_name,_projectInitiator,_index)))));\r\n    }\r\n\r\n    function createProject(\r\n        address _projectAddress,\r\n        string memory _name,\r\n        uint256 _status,\r\n        string memory _ipfsFileCID,\r\n        string memory _signature\r\n    ) public {\r\n        projects[_projectAddress] = Project(\r\n            projectsCounter,\r\n            _name,\r\n            ProjectStatus(_status),\r\n            _ipfsFileCID,\r\n            _projectAddress,\r\n            _projectInitiator,\r\n            block.timestamp,\r\n            _signature\r\n        );\r\n\r\n        emit ProjectEvent(projects[_projectAddress]);\r\n        projectsAddress.push(_projectAddress);\r\n        projectsCounter++;\r\n    }\r\n\r\n    function updateProject(\r\n        address _projectAddress,\r\n        string memory _ipfsFileCID,\r\n        string memory _signature\r\n    ) public {\r\n        projects[_projectAddress]._ipfsFileCID = _ipfsFileCID;\r\n        projects[_projectAddress]._signature = _signature;\r\n\r\n        emit ProjectEvent(projects[_projectAddress]);\r\n    }\r\n\r\n    function getProjectInfo(address _address)\r\n        public\r\n        view\r\n        returns (Project memory)\r\n    {\r\n        return projects[_address];\r\n    }\r\n\r\n    function getAllProjects() public view returns (Project[] memory) {\r\n        Project[] memory allProjects;\r\n        if (projectsCounter == 0) return allProjects;\r\n\r\n        allProjects = new Project[](projectsCounter);\r\n        for (uint256 index = 0; index < projectsCounter; index++) {\r\n            address _projectAddress = projectsAddress[index];\r\n            Project storage project = projects[_projectAddress];\r\n            allProjects[index] = project;\r\n        }\r\n        return allProjects;\r\n    }\r\n\r\n    /**  Project Requests  */\r\n\r\n    mapping(uint256 => ProjectRequest) public projectRequests;\r\n    uint256 public projectRequestsCounter = 0;\r\n    address[] public projectRequestsAddress;\r\n\r\n    function createUniqueProjectRequestAddress(string memory _title, uint _index) public view returns (address) {\r\n        return address(uint160(uint256(keccak256(abi.encodePacked(_title, _projectInitiator, _index)))));\r\n    }\r\n\r\n    function createProjectRequest(\r\n        string memory _title,\r\n        uint256 _status,\r\n        uint256 _requestStatus,\r\n        address _projectAddress,\r\n        address _projectReqAddress,\r\n        string memory _signature\r\n    ) public {\r\n        projectRequests[projectRequestsCounter] = ProjectRequest(\r\n            projectRequestsCounter,\r\n            _title,\r\n            \"\",\r\n            ProjectStatus(_status),\r\n            RequestStatus(_requestStatus),\r\n            _projectAddress,\r\n            _projectInitiator,\r\n            _projectReqAddress,\r\n            block.timestamp,\r\n            _signature\r\n        );\r\n\r\n        filterRequests(\r\n            projectRequestsCounter,\r\n            _title,\r\n            _requestStatus,\r\n            _status,\r\n            _projectAddress,\r\n            _projectReqAddress\r\n        );\r\n\r\n        emit ProjectRequestEvent(projectRequests[projectRequestsCounter]);\r\n        projectRequestsAddress.push(_projectReqAddress);\r\n        projectRequestsCounter++;\r\n    }\r\n\r\n    function filterRequests(\r\n        uint256 _indexProjectRequest,\r\n        string memory _title,\r\n        uint256 _requestStatus,\r\n        uint256 _projectStatus,\r\n        address _projectAddress,\r\n        address _requestAddress\r\n    ) internal {\r\n        RequestType _requestType;\r\n        if (\r\n            ProjectStatus(_projectStatus) == ProjectStatus.ToApprove ||\r\n            ProjectStatus(_projectStatus) == ProjectStatus.FinalizationCheck ||\r\n            ProjectStatus(_projectStatus) == ProjectStatus.Completed\r\n        ) {\r\n            _requestType = RequestType.SupervisorReq;\r\n        } else if (\r\n            ProjectStatus(_projectStatus) == ProjectStatus.StartProject\r\n        ) {\r\n            _requestType = RequestType.CompanyReq;\r\n        }\r\n        createRequest(\r\n            _indexProjectRequest,\r\n            _title,\r\n            _requestStatus,\r\n            _projectStatus,\r\n            _requestType,\r\n            _projectAddress,\r\n            _requestAddress\r\n        );\r\n    }\r\n\r\n    function getAllProjectRequests()\r\n        public\r\n        view\r\n        returns (ProjectRequest[] memory)\r\n    {\r\n        ProjectRequest[] memory allProjectRequests;\r\n        if (projectRequestsCounter == 0) return allProjectRequests;\r\n\r\n        allProjectRequests = new ProjectRequest[](projectRequestsCounter);\r\n        for (uint256 index = 0; index < projectsCounter; index++) {\r\n            ProjectRequest storage projectReq = projectRequests[index];\r\n            allProjectRequests[index] = projectReq;\r\n        }\r\n        return allProjectRequests;\r\n    }\r\n\r\n    function getLastProjectRequest(address _projectAddress)\r\n        public\r\n        view\r\n        returns (ProjectRequest memory)\r\n    {\r\n        ProjectRequest memory request;\r\n        if (projectRequestsCounter > 0) {\r\n            for (\r\n                uint256 index = projectRequestsCounter - 1;\r\n                index >= 0;\r\n                index--\r\n            ) {\r\n                if (_projectAddress == projectRequests[index]._projectAddress) {\r\n                    request = ProjectRequest(\r\n                        projectRequests[index]._index,\r\n                        projectRequests[index]._title,\r\n                        projectRequests[index]._comments,\r\n                        projectRequests[index]._status,\r\n                        projectRequests[index]._requestStatus,\r\n                        projectRequests[index]._projectAddress,\r\n                        projectRequests[index]._userAddress,\r\n                        projectRequests[index]._requestAddress,\r\n                        block.timestamp,\r\n                        projectRequests[index]._signature\r\n                    );\r\n                    return request;\r\n                }\r\n            }\r\n        }\r\n        return request;\r\n    }\r\n\r\n\r\n    /**  DATA FOR SUPERVISOR && COMPANY  */\r\n\r\n    mapping(uint256 => Request) public requests;\r\n    uint256 public requestsCounter = 0;\r\n\r\n    function createRequest(\r\n        uint256 _indexProjectRequest,\r\n        string memory _title,\r\n        uint256 _requestStatus,\r\n        uint256 _projectStatus,\r\n        RequestType _requestType,\r\n        address _projectAddress,\r\n        address _requestAddress\r\n    ) internal {\r\n        requests[requestsCounter] = Request(\r\n            requestsCounter,\r\n            _indexProjectRequest,\r\n            _title,\r\n            RequestStatus(_requestStatus),\r\n            ProjectStatus(_projectStatus),\r\n            _requestType,\r\n            _projectAddress,\r\n            _projectInitiator,\r\n            _requestAddress,\r\n            block.timestamp,\r\n            \"\"\r\n        );\r\n\r\n        emit RequestEvent(requests[requestsCounter]);\r\n        requestsCounter++;\r\n    }\r\n\r\n    function updateRequest(\r\n        uint256 _index,\r\n        uint256 _indexProjectRequest,\r\n        string memory _comments,\r\n        uint256 _requestStatus,\r\n        uint256 _projectStatus,\r\n        address _projectAddress,\r\n        string memory _signature\r\n    ) public {\r\n        // Update request status in the Requests Mapping and Struct Array\r\n        requests[_index]._requestStatus = RequestStatus(_requestStatus);\r\n        requests[_index]._signature = _signature;\r\n\r\n        emit RequestEvent(requests[_index]);\r\n\r\n\r\n        // Update project request status in the Project Requests Mapping and Struct Array\r\n        projectRequests[_indexProjectRequest]._comments = _comments;\r\n        projectRequests[_indexProjectRequest]._requestStatus = RequestStatus(_requestStatus);\r\n        projectRequests[_indexProjectRequest]._signature = _signature;\r\n\r\n        emit ProjectRequestEvent(projectRequests[_indexProjectRequest]);\r\n\r\n        // Update ProjectStatus to the requested status - Porject Mapping and Struct Array\r\n        projects[_projectAddress]._status = ProjectStatus(_projectStatus);\r\n\r\n        emit ProjectEvent(projects[_projectAddress]);\r\n    }\r\n\r\n\r\n    function getAllRequests() public view returns (Request[] memory) {\r\n        Request[] memory allRequests;\r\n        if (requestsCounter == 0) return allRequests;\r\n\r\n        allRequests = new Request[](requestsCounter);\r\n        for (uint256 index = 0; index < requestsCounter; index++) {\r\n            Request storage request = requests[index];\r\n            allRequests[index] = request;\r\n        }\r\n        return allRequests;\r\n    }\r\n}\r\n",
  "sourcePath": "/mnt/c/Users/Beniamin/source/repos/DissertationProject/contracts/ProjectChain.sol",
  "compiler": {
    "name": "solc",
    "version": "0.8.10+commit.fc410830.Emscripten.clang"
  },
  "schemaVersion": "3.4.3",
  "updatedAt": "2021-12-03T17:06:39.074Z",
  "networkType": "ethereum",
  "devdoc": {
    "kind": "dev",
    "methods": {},
    "version": 1
  },
  "userdoc": {
    "kind": "user",
    "methods": {
      "projectRequests(uint256)": {
        "notice": "Project Requests  "
      },
      "projects(address)": {
        "notice": "PROJECT INITIATOR  "
      },
      "requests(uint256)": {
        "notice": "DATA FOR SUPERVISOR && COMPANY  "
      }
    },
    "version": 1
  }
}