{
  "contractName": "Project",
  "abi": [
    {
      "inputs": [],
      "stateMutability": "nonpayable",
      "type": "constructor"
    },
    {
      "anonymous": false,
      "inputs": [
        {
          "indexed": false,
          "internalType": "uint256",
          "name": "_indexProject",
          "type": "uint256"
        },
        {
          "indexed": false,
          "internalType": "enum Project.ProjectStatus",
          "name": "_projectStatus",
          "type": "uint8"
        },
        {
          "indexed": false,
          "internalType": "address",
          "name": "_address",
          "type": "address"
        }
      ],
      "name": "CreateProject",
      "type": "event"
    },
    {
      "anonymous": false,
      "inputs": [
        {
          "indexed": false,
          "internalType": "uint256",
          "name": "_indexRequest",
          "type": "uint256"
        },
        {
          "indexed": false,
          "internalType": "enum Project.RequestStatus",
          "name": "_status",
          "type": "uint8"
        },
        {
          "components": [
            {
              "internalType": "uint256",
              "name": "index",
              "type": "uint256"
            },
            {
              "internalType": "bytes32",
              "name": "identifier",
              "type": "bytes32"
            },
            {
              "internalType": "string",
              "name": "description",
              "type": "string"
            },
            {
              "internalType": "enum Project.ProjectStatus",
              "name": "projectStatus",
              "type": "uint8"
            }
          ],
          "indexed": false,
          "internalType": "struct Project.S_Project",
          "name": "_project",
          "type": "tuple"
        },
        {
          "indexed": false,
          "internalType": "enum Project.ProjectStatus",
          "name": "_projectStatus",
          "type": "uint8"
        },
        {
          "indexed": false,
          "internalType": "address",
          "name": "_subjectAddress",
          "type": "address"
        }
      ],
      "name": "UpdateCompanyRequestStatus",
      "type": "event"
    },
    {
      "anonymous": false,
      "inputs": [
        {
          "indexed": false,
          "internalType": "uint256",
          "name": "_indexRequest",
          "type": "uint256"
        },
        {
          "indexed": false,
          "internalType": "enum Project.RequestStatus",
          "name": "_status",
          "type": "uint8"
        },
        {
          "components": [
            {
              "internalType": "uint256",
              "name": "index",
              "type": "uint256"
            },
            {
              "internalType": "bytes32",
              "name": "identifier",
              "type": "bytes32"
            },
            {
              "internalType": "string",
              "name": "description",
              "type": "string"
            },
            {
              "internalType": "enum Project.ProjectStatus",
              "name": "projectStatus",
              "type": "uint8"
            }
          ],
          "indexed": false,
          "internalType": "struct Project.S_Project",
          "name": "_project",
          "type": "tuple"
        },
        {
          "indexed": false,
          "internalType": "enum Project.ProjectStatus",
          "name": "_projectStatus",
          "type": "uint8"
        },
        {
          "indexed": false,
          "internalType": "address",
          "name": "_subjectAddress",
          "type": "address"
        }
      ],
      "name": "UpdateSupervisorRequestStatus",
      "type": "event"
    },
    {
      "anonymous": false,
      "inputs": [
        {
          "indexed": true,
          "internalType": "address",
          "name": "_walletAddress",
          "type": "address"
        },
        {
          "indexed": false,
          "internalType": "bytes32",
          "name": "_username",
          "type": "bytes32"
        },
        {
          "indexed": false,
          "internalType": "bytes32",
          "name": "_email",
          "type": "bytes32"
        },
        {
          "indexed": false,
          "internalType": "bytes32",
          "name": "_firstname",
          "type": "bytes32"
        },
        {
          "indexed": false,
          "internalType": "bytes32",
          "name": "_lastname",
          "type": "bytes32"
        },
        {
          "indexed": false,
          "internalType": "enum User.Roles",
          "name": "_role",
          "type": "uint8"
        }
      ],
      "name": "UserRegistered",
      "type": "event"
    },
    {
      "inputs": [
        {
          "internalType": "uint256",
          "name": "",
          "type": "uint256"
        }
      ],
      "name": "companyRequests",
      "outputs": [
        {
          "internalType": "uint256",
          "name": "index",
          "type": "uint256"
        },
        {
          "internalType": "string",
          "name": "description",
          "type": "string"
        },
        {
          "internalType": "enum Project.RequestStatus",
          "name": "status",
          "type": "uint8"
        },
        {
          "components": [
            {
              "internalType": "uint256",
              "name": "index",
              "type": "uint256"
            },
            {
              "internalType": "bytes32",
              "name": "identifier",
              "type": "bytes32"
            },
            {
              "internalType": "string",
              "name": "description",
              "type": "string"
            },
            {
              "internalType": "enum Project.ProjectStatus",
              "name": "projectStatus",
              "type": "uint8"
            }
          ],
          "internalType": "struct Project.S_Project",
          "name": "project",
          "type": "tuple"
        },
        {
          "internalType": "address",
          "name": "subjectAddress",
          "type": "address"
        }
      ],
      "stateMutability": "view",
      "type": "function",
      "constant": true
    },
    {
      "inputs": [],
      "name": "getUserIds",
      "outputs": [
        {
          "internalType": "uint256[]",
          "name": "",
          "type": "uint256[]"
        }
      ],
      "stateMutability": "view",
      "type": "function",
      "constant": true
    },
    {
      "inputs": [
        {
          "internalType": "uint256",
          "name": "_index",
          "type": "uint256"
        }
      ],
      "name": "getUserInfo",
      "outputs": [
        {
          "components": [
            {
              "internalType": "uint256",
              "name": "index",
              "type": "uint256"
            },
            {
              "internalType": "bytes32",
              "name": "username",
              "type": "bytes32"
            },
            {
              "internalType": "bytes32",
              "name": "email",
              "type": "bytes32"
            },
            {
              "internalType": "bytes32",
              "name": "firstname",
              "type": "bytes32"
            },
            {
              "internalType": "bytes32",
              "name": "lastname",
              "type": "bytes32"
            },
            {
              "internalType": "enum User.Roles",
              "name": "role",
              "type": "uint8"
            },
            {
              "internalType": "address",
              "name": "walletAddress",
              "type": "address"
            }
          ],
          "internalType": "struct User.S_UserData",
          "name": "",
          "type": "tuple"
        }
      ],
      "stateMutability": "view",
      "type": "function",
      "constant": true
    },
    {
      "inputs": [],
      "name": "owner",
      "outputs": [
        {
          "internalType": "address",
          "name": "",
          "type": "address"
        }
      ],
      "stateMutability": "view",
      "type": "function",
      "constant": true
    },
    {
      "inputs": [
        {
          "internalType": "uint256",
          "name": "",
          "type": "uint256"
        }
      ],
      "name": "projects",
      "outputs": [
        {
          "internalType": "uint256",
          "name": "index",
          "type": "uint256"
        },
        {
          "internalType": "bytes32",
          "name": "identifier",
          "type": "bytes32"
        },
        {
          "internalType": "string",
          "name": "description",
          "type": "string"
        },
        {
          "internalType": "enum Project.ProjectStatus",
          "name": "projectStatus",
          "type": "uint8"
        }
      ],
      "stateMutability": "view",
      "type": "function",
      "constant": true
    },
    {
      "inputs": [
        {
          "internalType": "bytes32",
          "name": "_username",
          "type": "bytes32"
        },
        {
          "internalType": "bytes32",
          "name": "_email",
          "type": "bytes32"
        },
        {
          "internalType": "bytes32",
          "name": "_firstname",
          "type": "bytes32"
        },
        {
          "internalType": "bytes32",
          "name": "_lastname",
          "type": "bytes32"
        },
        {
          "internalType": "uint256",
          "name": "_role",
          "type": "uint256"
        },
        {
          "internalType": "address",
          "name": "_walletAddress",
          "type": "address"
        }
      ],
      "name": "registerUser",
      "outputs": [],
      "stateMutability": "nonpayable",
      "type": "function"
    },
    {
      "inputs": [
        {
          "internalType": "uint256",
          "name": "",
          "type": "uint256"
        }
      ],
      "name": "supervisorRequests",
      "outputs": [
        {
          "internalType": "uint256",
          "name": "index",
          "type": "uint256"
        },
        {
          "internalType": "string",
          "name": "description",
          "type": "string"
        },
        {
          "internalType": "enum Project.RequestStatus",
          "name": "status",
          "type": "uint8"
        },
        {
          "components": [
            {
              "internalType": "uint256",
              "name": "index",
              "type": "uint256"
            },
            {
              "internalType": "bytes32",
              "name": "identifier",
              "type": "bytes32"
            },
            {
              "internalType": "string",
              "name": "description",
              "type": "string"
            },
            {
              "internalType": "enum Project.ProjectStatus",
              "name": "projectStatus",
              "type": "uint8"
            }
          ],
          "internalType": "struct Project.S_Project",
          "name": "project",
          "type": "tuple"
        },
        {
          "internalType": "address",
          "name": "subjectAddress",
          "type": "address"
        }
      ],
      "stateMutability": "view",
      "type": "function",
      "constant": true
    },
    {
      "inputs": [
        {
          "internalType": "uint256",
          "name": "",
          "type": "uint256"
        }
      ],
      "name": "userIds",
      "outputs": [
        {
          "internalType": "uint256",
          "name": "",
          "type": "uint256"
        }
      ],
      "stateMutability": "view",
      "type": "function",
      "constant": true
    },
    {
      "inputs": [
        {
          "internalType": "uint256",
          "name": "",
          "type": "uint256"
        }
      ],
      "name": "userInfo",
      "outputs": [
        {
          "internalType": "uint256",
          "name": "index",
          "type": "uint256"
        },
        {
          "internalType": "bytes32",
          "name": "username",
          "type": "bytes32"
        },
        {
          "internalType": "bytes32",
          "name": "email",
          "type": "bytes32"
        },
        {
          "internalType": "bytes32",
          "name": "firstname",
          "type": "bytes32"
        },
        {
          "internalType": "bytes32",
          "name": "lastname",
          "type": "bytes32"
        },
        {
          "internalType": "enum User.Roles",
          "name": "role",
          "type": "uint8"
        },
        {
          "internalType": "address",
          "name": "walletAddress",
          "type": "address"
        }
      ],
      "stateMutability": "view",
      "type": "function",
      "constant": true
    },
    {
      "inputs": [],
      "name": "usersCount",
      "outputs": [
        {
          "internalType": "uint256",
          "name": "",
          "type": "uint256"
        }
      ],
      "stateMutability": "view",
      "type": "function",
      "constant": true
    },
    {
      "inputs": [
        {
          "internalType": "uint256",
          "name": "_index",
          "type": "uint256"
        },
        {
          "internalType": "string",
          "name": "_description",
          "type": "string"
        },
        {
          "internalType": "enum Project.ProjectStatus",
          "name": "_status",
          "type": "uint8"
        },
        {
          "internalType": "string",
          "name": "_hashStringValue",
          "type": "string"
        }
      ],
      "name": "createProject",
      "outputs": [],
      "stateMutability": "nonpayable",
      "type": "function"
    },
    {
      "inputs": [
        {
          "internalType": "string",
          "name": "_text",
          "type": "string"
        },
        {
          "internalType": "address",
          "name": "_addr",
          "type": "address"
        }
      ],
      "name": "createUniqueIdentifier",
      "outputs": [
        {
          "internalType": "bytes32",
          "name": "",
          "type": "bytes32"
        }
      ],
      "stateMutability": "pure",
      "type": "function",
      "constant": true
    },
    {
      "inputs": [
        {
          "internalType": "string",
          "name": "_description",
          "type": "string"
        },
        {
          "components": [
            {
              "internalType": "uint256",
              "name": "index",
              "type": "uint256"
            },
            {
              "internalType": "bytes32",
              "name": "identifier",
              "type": "bytes32"
            },
            {
              "internalType": "string",
              "name": "description",
              "type": "string"
            },
            {
              "internalType": "enum Project.ProjectStatus",
              "name": "projectStatus",
              "type": "uint8"
            }
          ],
          "internalType": "struct Project.S_Project",
          "name": "_project",
          "type": "tuple"
        },
        {
          "internalType": "address",
          "name": "_subjectAddress",
          "type": "address"
        }
      ],
      "name": "requestProjectApprovalFromSupervisor",
      "outputs": [],
      "stateMutability": "nonpayable",
      "type": "function"
    },
    {
      "inputs": [
        {
          "internalType": "string",
          "name": "_description",
          "type": "string"
        },
        {
          "components": [
            {
              "internalType": "uint256",
              "name": "index",
              "type": "uint256"
            },
            {
              "internalType": "bytes32",
              "name": "identifier",
              "type": "bytes32"
            },
            {
              "internalType": "string",
              "name": "description",
              "type": "string"
            },
            {
              "internalType": "enum Project.ProjectStatus",
              "name": "projectStatus",
              "type": "uint8"
            }
          ],
          "internalType": "struct Project.S_Project",
          "name": "_project",
          "type": "tuple"
        },
        {
          "internalType": "address",
          "name": "_subjectAddress",
          "type": "address"
        }
      ],
      "name": "requestProjectCompleteFromSupervisor",
      "outputs": [],
      "stateMutability": "nonpayable",
      "type": "function"
    },
    {
      "inputs": [
        {
          "internalType": "string",
          "name": "_description",
          "type": "string"
        },
        {
          "components": [
            {
              "internalType": "uint256",
              "name": "index",
              "type": "uint256"
            },
            {
              "internalType": "bytes32",
              "name": "identifier",
              "type": "bytes32"
            },
            {
              "internalType": "string",
              "name": "description",
              "type": "string"
            },
            {
              "internalType": "enum Project.ProjectStatus",
              "name": "projectStatus",
              "type": "uint8"
            }
          ],
          "internalType": "struct Project.S_Project",
          "name": "_project",
          "type": "tuple"
        },
        {
          "internalType": "address",
          "name": "_subjectAddress",
          "type": "address"
        }
      ],
      "name": "requestStartProjectToCompanyBuilder",
      "outputs": [],
      "stateMutability": "nonpayable",
      "type": "function"
    }
  ],
  "bytecode": "0x6080604052600060025534801561001557600080fd5b5033600160006101000a81548173ffffffffffffffffffffffffffffffffffffffff021916908373ffffffffffffffffffffffffffffffffffffffff16021790555033600460006101000a81548173ffffffffffffffffffffffffffffffffffffffff021916908373ffffffffffffffffffffffffffffffffffffffff1602179055506123dd806100a76000396000f3fe608060405234801561001057600080fd5b50600436106100f55760003560e01c80638c86a1d711610097578063d379dadf11610066578063d379dadf146102a3578063d40d4a80146102d3578063d892e4c814610307578063e01da11e14610323576100f5565b80638c86a1d7146102195780638da5cb5b1461024d578063afb6da0e1461026b578063b512559914610287576100f5565b806351d70bc4116100d357806351d70bc4146101795780635502fc65146101af5780636132844f146101cb5780636ba13a82146101fb576100f5565b8063065ea2d3146100fa578063107046bd146101165780634635fd6814610149575b600080fd5b610114600480360381019061010f91906115e9565b610341565b005b610130600480360381019061012b9190611688565b610454565b60405161014094939291906117dc565b60405180910390f35b610163600480360381019061015e9190611688565b610519565b6040516101709190611828565b60405180910390f35b610193600480360381019061018e9190611688565b61053d565b6040516101a697969594939291906118cc565b60405180910390f35b6101c960048036038101906101c49190611a31565b6105ac565b005b6101e560048036038101906101e09190611abc565b610786565b6040516101f29190611b18565b60405180910390f35b6102036107b9565b6040516102109190611828565b60405180910390f35b610233600480360381019061022e9190611688565b6107bf565b604051610244959493929190611c55565b60405180910390f35b610255610995565b6040516102629190611cb6565b60405180910390f35b61028560048036038101906102809190611a31565b6109bb565b005b6102a1600480360381019061029c9190611a31565b610b95565b005b6102bd60048036038101906102b89190611688565b610d6f565b6040516102ca9190611d7d565b60405180910390f35b6102ed60048036038101906102e89190611688565b610e5e565b6040516102fe959493929190611c55565b60405180910390f35b610321600480360381019061031c9190611d98565b611034565b005b61032b6112c8565b6040516103389190611ed4565b60405180910390f35b600061034e826000610786565b9050846005600060085481526020019081526020016000206000018190555080600560006008548152602001908152602001600020600101819055508360056000600854815260200190815260200160002060020190805190602001906103b6929190611320565b508260056000600854815260200190815260200160002060030160006101000a81548160ff021916908360058111156103f2576103f1611765565b5b02179055507fa33c40728c332bcc45ac23baebf405684a95db2bcea19967f32f1c59384c0e8860085460008060405161042d93929190611ef6565b60405180910390a16008600081548092919061044890611f5c565b91905055505050505050565b600560205280600052604060002060009150905080600001549080600101549080600201805461048390611fd4565b80601f01602080910402602001604051908101604052809291908181526020018280546104af90611fd4565b80156104fc5780601f106104d1576101008083540402835291602001916104fc565b820191906000526020600020905b8154815290600101906020018083116104df57829003601f168201915b5050505050908060030160009054906101000a900460ff16905084565b6003818154811061052957600080fd5b906000526020600020016000915090505481565b60006020528060005260406000206000915090508060000154908060010154908060020154908060030154908060040154908060050160009054906101000a900460ff16908060050160019054906101000a900473ffffffffffffffffffffffffffffffffffffffff16905087565b600160058111156105c0576105bf611765565b5b826060015160058111156105d7576105d6611765565b5b14610617576040517f08c379a000000000000000000000000000000000000000000000000000000000815260040161060e90612078565b60405180910390fd5b6000600660006009548152602001908152602001600020905083816001019080519060200190610648929190611320565b5060008160020160006101000a81548160ff0219169083600181111561067157610670611765565b5b02179055508281600301600082015181600001556020820151816001015560408201518160020190805190602001906106ab929190611320565b5060608201518160030160006101000a81548160ff021916908360058111156106d7576106d6611765565b5b0217905550905050818160070160006101000a81548173ffffffffffffffffffffffffffffffffffffffff021916908373ffffffffffffffffffffffffffffffffffffffff1602179055507f7404f36b7a730bc20c8cc7e0e75c80d8d9af6bc8bca29829d01437c8f27e6415600954600085866060015186604051610760959493929190612098565b60405180910390a16009600081548092919061077b90611f5c565b919050555050505050565b6000828260405160200161079b929190612176565b60405160208183030381529060405280519060200120905092915050565b60025481565b60076020528060005260406000206000915090508060000154908060010180546107e890611fd4565b80601f016020809104026020016040519081016040528092919081815260200182805461081490611fd4565b80156108615780601f1061083657610100808354040283529160200191610861565b820191906000526020600020905b81548152906001019060200180831161084457829003601f168201915b5050505050908060020160009054906101000a900460ff16908060030160405180608001604052908160008201548152602001600182015481526020016002820180546108ad90611fd4565b80601f01602080910402602001604051908101604052809291908181526020018280546108d990611fd4565b80156109265780601f106108fb57610100808354040283529160200191610926565b820191906000526020600020905b81548152906001019060200180831161090957829003601f168201915b505050505081526020016003820160009054906101000a900460ff16600581111561095457610953611765565b5b600581111561096657610965611765565b5b81525050908060070160009054906101000a900473ffffffffffffffffffffffffffffffffffffffff16905085565b600160009054906101000a900473ffffffffffffffffffffffffffffffffffffffff1681565b600060058111156109cf576109ce611765565b5b826060015160058111156109e6576109e5611765565b5b14610a26576040517f08c379a0000000000000000000000000000000000000000000000000000000008152600401610a1d90612210565b60405180910390fd5b600060076000600a548152602001908152602001600020905083816001019080519060200190610a57929190611320565b5060008160020160006101000a81548160ff02191690836001811115610a8057610a7f611765565b5b0217905550828160030160008201518160000155602082015181600101556040820151816002019080519060200190610aba929190611320565b5060608201518160030160006101000a81548160ff02191690836005811115610ae657610ae5611765565b5b0217905550905050818160070160006101000a81548173ffffffffffffffffffffffffffffffffffffffff021916908373ffffffffffffffffffffffffffffffffffffffff1602179055507fea116f66bfca993e06ec3531e54d6fdd056bed479a873a351b5ff4c23124595b600a54600085866060015186604051610b6f959493929190612098565b60405180910390a1600a6000815480929190610b8a90611f5c565b919050555050505050565b60046005811115610ba957610ba8611765565b5b82606001516005811115610bc057610bbf611765565b5b14610c00576040517f08c379a0000000000000000000000000000000000000000000000000000000008152600401610bf7906122c8565b60405180910390fd5b600060076000600a548152602001908152602001600020905083816001019080519060200190610c31929190611320565b5060008160020160006101000a81548160ff02191690836001811115610c5a57610c59611765565b5b0217905550828160030160008201518160000155602082015181600101556040820151816002019080519060200190610c94929190611320565b5060608201518160030160006101000a81548160ff02191690836005811115610cc057610cbf611765565b5b0217905550905050818160070160006101000a81548173ffffffffffffffffffffffffffffffffffffffff021916908373ffffffffffffffffffffffffffffffffffffffff1602179055507fea116f66bfca993e06ec3531e54d6fdd056bed479a873a351b5ff4c23124595b600a54600085866060015186604051610d49959493929190612098565b60405180910390a1600a6000815480929190610d6490611f5c565b919050555050505050565b610d776113a6565b6000808381526020019081526020016000206040518060e001604052908160008201548152602001600182015481526020016002820154815260200160038201548152602001600482015481526020016005820160009054906101000a900460ff166003811115610deb57610dea611765565b5b6003811115610dfd57610dfc611765565b5b81526020016005820160019054906101000a900473ffffffffffffffffffffffffffffffffffffffff1673ffffffffffffffffffffffffffffffffffffffff1673ffffffffffffffffffffffffffffffffffffffff16815250509050919050565b6006602052806000526040600020600091509050806000015490806001018054610e8790611fd4565b80601f0160208091040260200160405190810160405280929190818152602001828054610eb390611fd4565b8015610f005780601f10610ed557610100808354040283529160200191610f00565b820191906000526020600020905b815481529060010190602001808311610ee357829003601f168201915b5050505050908060020160009054906101000a900460ff1690806003016040518060800160405290816000820154815260200160018201548152602001600282018054610f4c90611fd4565b80601f0160208091040260200160405190810160405280929190818152602001828054610f7890611fd4565b8015610fc55780601f10610f9a57610100808354040283529160200191610fc5565b820191906000526020600020905b815481529060010190602001808311610fa857829003601f168201915b505050505081526020016003820160009054906101000a900460ff166005811115610ff357610ff2611765565b5b600581111561100557611004611765565b5b81525050908060070160009054906101000a900473ffffffffffffffffffffffffffffffffffffffff16905085565b3373ffffffffffffffffffffffffffffffffffffffff16600160009054906101000a900473ffffffffffffffffffffffffffffffffffffffff1673ffffffffffffffffffffffffffffffffffffffff16146110c4576040517f08c379a00000000000000000000000000000000000000000000000000000000081526004016110bb90612334565b60405180910390fd5b600254600080600254815260200190815260200160002060000181905550856000806002548152602001908152602001600020600101819055508560008060025481526020019081526020016000206001018190555084600080600254815260200190815260200160002060020181905550836000806002548152602001908152602001600020600301819055508260008060025481526020019081526020016000206004018190555081600381111561118157611180611765565b5b600080600254815260200190815260200160002060050160006101000a81548160ff021916908360038111156111ba576111b9611765565b5b021790555080600080600254815260200190815260200160002060050160016101000a81548173ffffffffffffffffffffffffffffffffffffffff021916908373ffffffffffffffffffffffffffffffffffffffff1602179055508073ffffffffffffffffffffffffffffffffffffffff167fbeea9d474a1b3ffdbc323f82fd679909c87968191b551f189f010d992cc34d958787878787600381111561126457611263611765565b5b604051611275959493929190612354565b60405180910390a260036002549080600181540180825580915050600190039060005260206000200160009091909190915055600260008154809291906112bb90611f5c565b9190505550505050505050565b6060600380548060200260200160405190810160405280929190818152602001828054801561131657602002820191906000526020600020905b815481526020019060010190808311611302575b5050505050905090565b82805461132c90611fd4565b90600052602060002090601f01602090048101928261134e5760008555611395565b82601f1061136757805160ff1916838001178555611395565b82800160010185558215611395579182015b82811115611394578251825591602001919060010190611379565b5b5090506113a29190611417565b5090565b6040518060e001604052806000815260200160008019168152602001600080191681526020016000801916815260200160008019168152602001600060038111156113f4576113f3611765565b5b8152602001600073ffffffffffffffffffffffffffffffffffffffff1681525090565b5b80821115611430576000816000905550600101611418565b5090565b6000604051905090565b600080fd5b600080fd5b6000819050919050565b61145b81611448565b811461146657600080fd5b50565b60008135905061147881611452565b92915050565b600080fd5b600080fd5b6000601f19601f8301169050919050565b7f4e487b7100000000000000000000000000000000000000000000000000000000600052604160045260246000fd5b6114d182611488565b810181811067ffffffffffffffff821117156114f0576114ef611499565b5b80604052505050565b6000611503611434565b905061150f82826114c8565b919050565b600067ffffffffffffffff82111561152f5761152e611499565b5b61153882611488565b9050602081019050919050565b82818337600083830152505050565b600061156761156284611514565b6114f9565b90508281526020810184848401111561158357611582611483565b5b61158e848285611545565b509392505050565b600082601f8301126115ab576115aa61147e565b5b81356115bb848260208601611554565b91505092915050565b600681106115d157600080fd5b50565b6000813590506115e3816115c4565b92915050565b600080600080608085870312156116035761160261143e565b5b600061161187828801611469565b945050602085013567ffffffffffffffff81111561163257611631611443565b5b61163e87828801611596565b935050604061164f878288016115d4565b925050606085013567ffffffffffffffff8111156116705761166f611443565b5b61167c87828801611596565b91505092959194509250565b60006020828403121561169e5761169d61143e565b5b60006116ac84828501611469565b91505092915050565b6116be81611448565b82525050565b6000819050919050565b6116d7816116c4565b82525050565b600081519050919050565b600082825260208201905092915050565b60005b838110156117175780820151818401526020810190506116fc565b83811115611726576000848401525b50505050565b6000611737826116dd565b61174181856116e8565b93506117518185602086016116f9565b61175a81611488565b840191505092915050565b7f4e487b7100000000000000000000000000000000000000000000000000000000600052602160045260246000fd5b600681106117a5576117a4611765565b5b50565b60008190506117b682611794565b919050565b60006117c6826117a8565b9050919050565b6117d6816117bb565b82525050565b60006080820190506117f160008301876116b5565b6117fe60208301866116ce565b8181036040830152611810818561172c565b905061181f60608301846117cd565b95945050505050565b600060208201905061183d60008301846116b5565b92915050565b6004811061185457611853611765565b5b50565b600081905061186582611843565b919050565b600061187582611857565b9050919050565b6118858161186a565b82525050565b600073ffffffffffffffffffffffffffffffffffffffff82169050919050565b60006118b68261188b565b9050919050565b6118c6816118ab565b82525050565b600060e0820190506118e1600083018a6116b5565b6118ee60208301896116ce565b6118fb60408301886116ce565b61190860608301876116ce565b61191560808301866116ce565b61192260a083018561187c565b61192f60c08301846118bd565b98975050505050505050565b600080fd5b600080fd5b61194e816116c4565b811461195957600080fd5b50565b60008135905061196b81611945565b92915050565b6000608082840312156119875761198661193b565b5b61199160806114f9565b905060006119a184828501611469565b60008301525060206119b58482850161195c565b602083015250604082013567ffffffffffffffff8111156119d9576119d8611940565b5b6119e584828501611596565b60408301525060606119f9848285016115d4565b60608301525092915050565b611a0e816118ab565b8114611a1957600080fd5b50565b600081359050611a2b81611a05565b92915050565b600080600060608486031215611a4a57611a4961143e565b5b600084013567ffffffffffffffff811115611a6857611a67611443565b5b611a7486828701611596565b935050602084013567ffffffffffffffff811115611a9557611a94611443565b5b611aa186828701611971565b9250506040611ab286828701611a1c565b9150509250925092565b60008060408385031215611ad357611ad261143e565b5b600083013567ffffffffffffffff811115611af157611af0611443565b5b611afd85828601611596565b9250506020611b0e85828601611a1c565b9150509250929050565b6000602082019050611b2d60008301846116ce565b92915050565b60028110611b4457611b43611765565b5b50565b6000819050611b5582611b33565b919050565b6000611b6582611b47565b9050919050565b611b7581611b5a565b82525050565b611b8481611448565b82525050565b611b93816116c4565b82525050565b600082825260208201905092915050565b6000611bb5826116dd565b611bbf8185611b99565b9350611bcf8185602086016116f9565b611bd881611488565b840191505092915050565b611bec816117bb565b82525050565b6000608083016000830151611c0a6000860182611b7b565b506020830151611c1d6020860182611b8a565b5060408301518482036040860152611c358282611baa565b9150506060830151611c4a6060860182611be3565b508091505092915050565b600060a082019050611c6a60008301886116b5565b8181036020830152611c7c818761172c565b9050611c8b6040830186611b6c565b8181036060830152611c9d8185611bf2565b9050611cac60808301846118bd565b9695505050505050565b6000602082019050611ccb60008301846118bd565b92915050565b611cda8161186a565b82525050565b611ce9816118ab565b82525050565b60e082016000820151611d056000850182611b7b565b506020820151611d186020850182611b8a565b506040820151611d2b6040850182611b8a565b506060820151611d3e6060850182611b8a565b506080820151611d516080850182611b8a565b5060a0820151611d6460a0850182611cd1565b5060c0820151611d7760c0850182611ce0565b50505050565b600060e082019050611d926000830184611cef565b92915050565b60008060008060008060c08789031215611db557611db461143e565b5b6000611dc389828a0161195c565b9650506020611dd489828a0161195c565b9550506040611de589828a0161195c565b9450506060611df689828a0161195c565b9350506080611e0789828a01611469565b92505060a0611e1889828a01611a1c565b9150509295509295509295565b600081519050919050565b600082825260208201905092915050565b6000819050602082019050919050565b6000611e5d8383611b7b565b60208301905092915050565b6000602082019050919050565b6000611e8182611e25565b611e8b8185611e30565b9350611e9683611e41565b8060005b83811015611ec7578151611eae8882611e51565b9750611eb983611e69565b925050600181019050611e9a565b5085935050505092915050565b60006020820190508181036000830152611eee8184611e76565b905092915050565b6000606082019050611f0b60008301866116b5565b611f1860208301856117cd565b611f2560408301846118bd565b949350505050565b7f4e487b7100000000000000000000000000000000000000000000000000000000600052601160045260246000fd5b6000611f6782611448565b91507fffffffffffffffffffffffffffffffffffffffffffffffffffffffffffffffff821415611f9a57611f99611f2d565b5b600182019050919050565b7f4e487b7100000000000000000000000000000000000000000000000000000000600052602260045260246000fd5b60006002820490506001821680611fec57607f821691505b6020821081141561200057611fff611fa5565b5b50919050565b7f5468652070726f6a656374206973206e6f7420617070726f7665642c2074686560008201527f206f7065726174696f6e2063616e6e6f7420626520646f6e652e000000000000602082015250565b6000612062603a836116e8565b915061206d82612006565b604082019050919050565b6000602082019050818103600083015261209181612055565b9050919050565b600060a0820190506120ad60008301886116b5565b6120ba6020830187611b6c565b81810360408301526120cc8186611bf2565b90506120db60608301856117cd565b6120e860808301846118bd565b9695505050505050565b600081905092915050565b6000612108826116dd565b61211281856120f2565b93506121228185602086016116f9565b80840191505092915050565b60008160601b9050919050565b60006121468261212e565b9050919050565b60006121588261213b565b9050919050565b61217061216b826118ab565b61214d565b82525050565b600061218282856120fd565b915061218e828461215f565b6014820191508190509392505050565b7f5468652070726f6a656374206973206e6f7420637265617465642c207468652060008201527f6f7065726174696f6e2063616e6e6f7420626520646f6e652e00000000000000602082015250565b60006121fa6039836116e8565b91506122058261219e565b604082019050919050565b60006020820190508181036000830152612229816121ed565b9050919050565b7f5468652070726f6a656374206973206e6f7420696e2074686520274265666f7260008201527f6546696e616c697a6174696f6e436865636b27207374617475732c207468652060208201527f6f7065726174696f6e2063616e6e6f7420626520646f6e652e00000000000000604082015250565b60006122b26059836116e8565b91506122bd82612230565b606082019050919050565b600060208201905081810360008301526122e1816122a5565b9050919050565b7f596f7520617265206e6f7420616e206f776e6572000000000000000000000000600082015250565b600061231e6014836116e8565b9150612329826122e8565b602082019050919050565b6000602082019050818103600083015261234d81612311565b9050919050565b600060a08201905061236960008301886116ce565b61237660208301876116ce565b61238360408301866116ce565b61239060608301856116ce565b61239d608083018461187c565b969550505050505056fea26469706673582212208d9e86ea106e96a689aebdaa751af943e317c9d23384ba2edd5e9bc8fd03783164736f6c63430008090033",
  "immutableReferences": {},
  "source": "// SPDX-License-Identifier: MIT\r\npragma solidity >=0.8.0 <0.9.0;\r\n\r\nimport \"./User.sol\";\r\n\r\ncontract Project is User {\r\n\r\n    address projectInitiator;\r\n\r\n    mapping(uint => S_Project) public projects;\r\n    mapping(uint => S_Request) public companyRequests;\r\n    mapping(uint => S_Request) public supervisorRequests;\r\n\r\n    uint indexProject;\r\n    uint indexCompanyRequest;\r\n    uint indexSupervisorRequest;\r\n\r\n    struct S_Project {\r\n        uint index;\r\n        bytes32 identifier;\r\n        string description;\r\n        ProjectStatus projectStatus;\r\n    }\r\n\r\n    struct S_Request {\r\n        uint index;\r\n        string description;\r\n        RequestStatus status;\r\n        S_Project project;\r\n        address subjectAddress;\r\n    }\r\n\r\n    enum RequestStatus { Unverified, Verified }\r\n    enum ProjectStatus { Created, Approved, Rejected, OnGoing, BeforeFinalizationCheck, Completed }\r\n\r\n    event CreateProject(uint _indexProject, Project.ProjectStatus _projectStatus, address _address);\r\n    event UpdateSupervisorRequestStatus(uint _indexRequest, RequestStatus _status, S_Project _project, ProjectStatus _projectStatus, address _subjectAddress);\r\n    event UpdateCompanyRequestStatus(uint _indexRequest, RequestStatus _status, S_Project _project, ProjectStatus _projectStatus, address _subjectAddress);\r\n\r\n    constructor() {\r\n        projectInitiator = msg.sender;\r\n    }\r\n\r\n    modifier onlyProjectInitiator {\r\n        //require(userInfo[projectInitiator].role == Roles.ProjectInitiator, \"You don't have the rights for this resources.\");\r\n        //require(projectInitiator == msg.sender, \"You are not a project initiator\");\r\n        _;\r\n    }\r\n\r\n    function createProject(uint _index, string memory _description, ProjectStatus _status, string memory _hashStringValue) public onlyProjectInitiator {\r\n        bytes32 _identifier = createUniqueIdentifier(_hashStringValue, address(0));\r\n\r\n        projects[indexProject].index = _index;\r\n        projects[indexProject].identifier = _identifier;\r\n        projects[indexProject].description = _description;\r\n        projects[indexProject].projectStatus = _status;\r\n        emit CreateProject(indexProject, ProjectStatus.Created, address(0));\r\n        indexProject++;\r\n    }\r\n\r\n    function createUniqueIdentifier(string memory _text, address _addr) public pure returns (bytes32)  {\r\n        return keccak256(abi.encodePacked(_text, _addr));\r\n    }\r\n\r\n    function requestProjectApprovalFromSupervisor(string memory _description, S_Project memory _project, address _subjectAddress) public onlyProjectInitiator {\r\n        require(_project.projectStatus == ProjectStatus.Created, \"The project is not created, the operation cannot be done.\");\r\n\r\n        S_Request storage request = supervisorRequests[indexSupervisorRequest];\r\n        request.description = _description;\r\n        request.status = RequestStatus.Unverified;\r\n        request.project = _project;\r\n        request.subjectAddress = _subjectAddress;\r\n\r\n        emit UpdateSupervisorRequestStatus(indexSupervisorRequest, RequestStatus.Unverified, _project, _project.projectStatus, _subjectAddress);\r\n        indexSupervisorRequest++;\r\n    }\r\n\r\n    function requestProjectCompleteFromSupervisor(string memory _description, S_Project memory _project, address _subjectAddress) public onlyProjectInitiator {\r\n        require(\r\n            _project.projectStatus == ProjectStatus.BeforeFinalizationCheck,\r\n            \"The project is not in the 'BeforeFinalizationCheck' status, the operation cannot be done.\"\r\n        );\r\n\r\n        S_Request storage request = supervisorRequests[indexSupervisorRequest];\r\n        request.description = _description;\r\n        request.status = RequestStatus.Unverified;\r\n        request.project = _project;\r\n        request.subjectAddress = _subjectAddress;\r\n\r\n        emit UpdateSupervisorRequestStatus(indexSupervisorRequest, RequestStatus.Unverified, _project, _project.projectStatus, _subjectAddress);\r\n        indexSupervisorRequest++;\r\n    }\r\n\r\n    function requestStartProjectToCompanyBuilder(string memory _description, S_Project memory _project, address _subjectAddress) public onlyProjectInitiator {\r\n        require(_project.projectStatus == ProjectStatus.Approved, \"The project is not approved, the operation cannot be done.\");\r\n\r\n        S_Request storage request = companyRequests[indexCompanyRequest];\r\n        request.description = _description;\r\n        request.status = RequestStatus.Unverified;\r\n        request.project = _project;\r\n        request.subjectAddress = _subjectAddress;\r\n\r\n        emit UpdateCompanyRequestStatus(indexCompanyRequest, RequestStatus.Unverified, _project, _project.projectStatus, _subjectAddress);\r\n        indexCompanyRequest++;\r\n    }\r\n}",
  "sourcePath": "/mnt/c/users/beniamin/source/repos/dissertationproject/contracts/Project.sol",
  "compiler": {
    "name": "solc",
    "version": "0.8.9+commit.e5eed63a.Emscripten.clang"
  },
  "schemaVersion": "3.4.3",
  "updatedAt": "2021-11-06T21:05:42.216Z",
  "networkType": "ethereum",
  "devdoc": {
    "kind": "dev",
    "methods": {},
    "version": 1
  },
  "userdoc": {
    "kind": "user",
    "methods": {},
    "version": 1
  }
}