{
  "contractName": "ProjectChain",
  "abi": [
    {
      "inputs": [],
      "stateMutability": "nonpayable",
      "type": "constructor"
    },
    {
      "anonymous": false,
      "inputs": [
        {
          "indexed": false,
          "internalType": "uint256",
          "name": "_index",
          "type": "uint256"
        },
        {
          "indexed": false,
          "internalType": "bytes32",
          "name": "_name",
          "type": "bytes32"
        },
        {
          "indexed": false,
          "internalType": "enum SharedChain.ProjectStatus",
          "name": "_status",
          "type": "uint8"
        },
        {
          "indexed": false,
          "internalType": "string",
          "name": "_ipfsFileCID",
          "type": "string"
        },
        {
          "indexed": false,
          "internalType": "address",
          "name": "_projectAddress",
          "type": "address"
        },
        {
          "indexed": false,
          "internalType": "address",
          "name": "_userAddress",
          "type": "address"
        },
        {
          "indexed": false,
          "internalType": "uint256",
          "name": "_timestamp",
          "type": "uint256"
        },
        {
          "indexed": false,
          "internalType": "string",
          "name": "_signature",
          "type": "string"
        }
      ],
      "name": "ProjectEvent",
      "type": "event"
    },
    {
      "anonymous": false,
      "inputs": [
        {
          "indexed": false,
          "internalType": "uint256",
          "name": "_index",
          "type": "uint256"
        },
        {
          "indexed": false,
          "internalType": "bytes32",
          "name": "_title",
          "type": "bytes32"
        },
        {
          "indexed": false,
          "internalType": "string",
          "name": "_comments",
          "type": "string"
        },
        {
          "indexed": false,
          "internalType": "enum SharedChain.ProjectStatus",
          "name": "_status",
          "type": "uint8"
        },
        {
          "indexed": false,
          "internalType": "enum SharedChain.RequestStatus",
          "name": "_requestStatus",
          "type": "uint8"
        },
        {
          "indexed": false,
          "internalType": "address",
          "name": "_projectAddress",
          "type": "address"
        },
        {
          "indexed": false,
          "internalType": "address",
          "name": "_userAddress",
          "type": "address"
        },
        {
          "indexed": false,
          "internalType": "address",
          "name": "_requestAddress",
          "type": "address"
        },
        {
          "indexed": false,
          "internalType": "uint256",
          "name": "_timestamp",
          "type": "uint256"
        },
        {
          "indexed": false,
          "internalType": "string",
          "name": "_signature",
          "type": "string"
        }
      ],
      "name": "ProjectRequestEvent",
      "type": "event"
    },
    {
      "anonymous": false,
      "inputs": [
        {
          "indexed": false,
          "internalType": "uint256",
          "name": "_index",
          "type": "uint256"
        },
        {
          "indexed": false,
          "internalType": "uint256",
          "name": "_indexProjectRequest",
          "type": "uint256"
        },
        {
          "indexed": false,
          "internalType": "bytes32",
          "name": "_title",
          "type": "bytes32"
        },
        {
          "indexed": false,
          "internalType": "enum SharedChain.RequestStatus",
          "name": "_status",
          "type": "uint8"
        },
        {
          "indexed": false,
          "internalType": "enum SharedChain.ProjectStatus",
          "name": "_projectStatus",
          "type": "uint8"
        },
        {
          "indexed": false,
          "internalType": "enum SharedChain.RequestType",
          "name": "_requestType",
          "type": "uint8"
        },
        {
          "indexed": false,
          "internalType": "address",
          "name": "_projectAddress",
          "type": "address"
        },
        {
          "indexed": false,
          "internalType": "address",
          "name": "_userAddress",
          "type": "address"
        },
        {
          "indexed": false,
          "internalType": "address",
          "name": "_requestAddress",
          "type": "address"
        },
        {
          "indexed": false,
          "internalType": "uint256",
          "name": "_timestamp",
          "type": "uint256"
        },
        {
          "indexed": false,
          "internalType": "string",
          "name": "_signature",
          "type": "string"
        }
      ],
      "name": "RequestEvent",
      "type": "event"
    },
    {
      "anonymous": false,
      "inputs": [
        {
          "indexed": false,
          "internalType": "uint256",
          "name": "_index",
          "type": "uint256"
        },
        {
          "indexed": true,
          "internalType": "string",
          "name": "_username",
          "type": "string"
        },
        {
          "indexed": false,
          "internalType": "bytes32",
          "name": "_email",
          "type": "bytes32"
        },
        {
          "indexed": false,
          "internalType": "bytes32",
          "name": "_firstname",
          "type": "bytes32"
        },
        {
          "indexed": false,
          "internalType": "bytes32",
          "name": "_lastname",
          "type": "bytes32"
        },
        {
          "indexed": true,
          "internalType": "enum SharedChain.Roles",
          "name": "_role",
          "type": "uint8"
        },
        {
          "indexed": true,
          "internalType": "address",
          "name": "_walletAddress",
          "type": "address"
        },
        {
          "indexed": false,
          "internalType": "uint256",
          "name": "_timestamp",
          "type": "uint256"
        }
      ],
      "name": "UserEvent",
      "type": "event"
    },
    {
      "inputs": [
        {
          "internalType": "uint256",
          "name": "_role",
          "type": "uint256"
        },
        {
          "internalType": "address",
          "name": "_walletAddress",
          "type": "address"
        }
      ],
      "name": "changeUserRole",
      "outputs": [],
      "stateMutability": "nonpayable",
      "type": "function"
    },
    {
      "inputs": [],
      "name": "getAllUsers",
      "outputs": [
        {
          "components": [
            {
              "internalType": "uint256",
              "name": "_index",
              "type": "uint256"
            },
            {
              "internalType": "string",
              "name": "_username",
              "type": "string"
            },
            {
              "internalType": "bytes32",
              "name": "_email",
              "type": "bytes32"
            },
            {
              "internalType": "bytes32",
              "name": "_firstname",
              "type": "bytes32"
            },
            {
              "internalType": "bytes32",
              "name": "_lastname",
              "type": "bytes32"
            },
            {
              "internalType": "enum SharedChain.Roles",
              "name": "_role",
              "type": "uint8"
            },
            {
              "internalType": "address",
              "name": "_walletAddress",
              "type": "address"
            },
            {
              "internalType": "uint256",
              "name": "_timestamp",
              "type": "uint256"
            }
          ],
          "internalType": "struct SharedChain.User[]",
          "name": "",
          "type": "tuple[]"
        }
      ],
      "stateMutability": "view",
      "type": "function",
      "constant": true
    },
    {
      "inputs": [
        {
          "internalType": "address",
          "name": "_walletAddress",
          "type": "address"
        }
      ],
      "name": "getUserInfo",
      "outputs": [
        {
          "components": [
            {
              "internalType": "uint256",
              "name": "_index",
              "type": "uint256"
            },
            {
              "internalType": "string",
              "name": "_username",
              "type": "string"
            },
            {
              "internalType": "bytes32",
              "name": "_email",
              "type": "bytes32"
            },
            {
              "internalType": "bytes32",
              "name": "_firstname",
              "type": "bytes32"
            },
            {
              "internalType": "bytes32",
              "name": "_lastname",
              "type": "bytes32"
            },
            {
              "internalType": "enum SharedChain.Roles",
              "name": "_role",
              "type": "uint8"
            },
            {
              "internalType": "address",
              "name": "_walletAddress",
              "type": "address"
            },
            {
              "internalType": "uint256",
              "name": "_timestamp",
              "type": "uint256"
            }
          ],
          "internalType": "struct SharedChain.User",
          "name": "",
          "type": "tuple"
        }
      ],
      "stateMutability": "view",
      "type": "function",
      "constant": true
    },
    {
      "inputs": [],
      "name": "owner",
      "outputs": [
        {
          "internalType": "address",
          "name": "",
          "type": "address"
        }
      ],
      "stateMutability": "view",
      "type": "function",
      "constant": true
    },
    {
      "inputs": [
        {
          "internalType": "uint256",
          "name": "",
          "type": "uint256"
        }
      ],
      "name": "projectRequests",
      "outputs": [
        {
          "internalType": "uint256",
          "name": "_index",
          "type": "uint256"
        },
        {
          "internalType": "bytes32",
          "name": "_title",
          "type": "bytes32"
        },
        {
          "internalType": "string",
          "name": "_comments",
          "type": "string"
        },
        {
          "internalType": "enum SharedChain.ProjectStatus",
          "name": "_status",
          "type": "uint8"
        },
        {
          "internalType": "enum SharedChain.RequestStatus",
          "name": "_requestStatus",
          "type": "uint8"
        },
        {
          "internalType": "address",
          "name": "_projectAddress",
          "type": "address"
        },
        {
          "internalType": "address",
          "name": "_userAddress",
          "type": "address"
        },
        {
          "internalType": "address",
          "name": "_requestAddress",
          "type": "address"
        },
        {
          "internalType": "uint256",
          "name": "_timestamp",
          "type": "uint256"
        },
        {
          "internalType": "string",
          "name": "_signature",
          "type": "string"
        }
      ],
      "stateMutability": "view",
      "type": "function",
      "constant": true
    },
    {
      "inputs": [
        {
          "internalType": "uint256",
          "name": "",
          "type": "uint256"
        }
      ],
      "name": "projectRequestsAddress",
      "outputs": [
        {
          "internalType": "address",
          "name": "",
          "type": "address"
        }
      ],
      "stateMutability": "view",
      "type": "function",
      "constant": true
    },
    {
      "inputs": [],
      "name": "projectRequestsCounter",
      "outputs": [
        {
          "internalType": "uint256",
          "name": "",
          "type": "uint256"
        }
      ],
      "stateMutability": "view",
      "type": "function",
      "constant": true
    },
    {
      "inputs": [
        {
          "internalType": "address",
          "name": "",
          "type": "address"
        }
      ],
      "name": "projects",
      "outputs": [
        {
          "internalType": "uint256",
          "name": "_index",
          "type": "uint256"
        },
        {
          "internalType": "bytes32",
          "name": "_name",
          "type": "bytes32"
        },
        {
          "internalType": "enum SharedChain.ProjectStatus",
          "name": "_status",
          "type": "uint8"
        },
        {
          "internalType": "string",
          "name": "_ipfsFileCID",
          "type": "string"
        },
        {
          "internalType": "address",
          "name": "_projectAddress",
          "type": "address"
        },
        {
          "internalType": "address",
          "name": "_userAddress",
          "type": "address"
        },
        {
          "internalType": "uint256",
          "name": "_timestamp",
          "type": "uint256"
        },
        {
          "internalType": "string",
          "name": "_signature",
          "type": "string"
        }
      ],
      "stateMutability": "view",
      "type": "function",
      "constant": true
    },
    {
      "inputs": [
        {
          "internalType": "uint256",
          "name": "",
          "type": "uint256"
        }
      ],
      "name": "projectsAddress",
      "outputs": [
        {
          "internalType": "address",
          "name": "",
          "type": "address"
        }
      ],
      "stateMutability": "view",
      "type": "function",
      "constant": true
    },
    {
      "inputs": [],
      "name": "projectsCounter",
      "outputs": [
        {
          "internalType": "uint256",
          "name": "",
          "type": "uint256"
        }
      ],
      "stateMutability": "view",
      "type": "function",
      "constant": true
    },
    {
      "inputs": [
        {
          "internalType": "string",
          "name": "_username",
          "type": "string"
        },
        {
          "internalType": "bytes32",
          "name": "_email",
          "type": "bytes32"
        },
        {
          "internalType": "bytes32",
          "name": "_firstname",
          "type": "bytes32"
        },
        {
          "internalType": "bytes32",
          "name": "_lastname",
          "type": "bytes32"
        },
        {
          "internalType": "uint256",
          "name": "_role",
          "type": "uint256"
        },
        {
          "internalType": "address",
          "name": "_walletAddress",
          "type": "address"
        }
      ],
      "name": "registerUser",
      "outputs": [],
      "stateMutability": "nonpayable",
      "type": "function"
    },
    {
      "inputs": [
        {
          "internalType": "uint256",
          "name": "",
          "type": "uint256"
        }
      ],
      "name": "requests",
      "outputs": [
        {
          "internalType": "uint256",
          "name": "_index",
          "type": "uint256"
        },
        {
          "internalType": "uint256",
          "name": "_indexProjectRequest",
          "type": "uint256"
        },
        {
          "internalType": "bytes32",
          "name": "_title",
          "type": "bytes32"
        },
        {
          "internalType": "enum SharedChain.RequestStatus",
          "name": "_requestStatus",
          "type": "uint8"
        },
        {
          "internalType": "enum SharedChain.ProjectStatus",
          "name": "_projectStatus",
          "type": "uint8"
        },
        {
          "internalType": "enum SharedChain.RequestType",
          "name": "_requestType",
          "type": "uint8"
        },
        {
          "internalType": "address",
          "name": "_projectAddress",
          "type": "address"
        },
        {
          "internalType": "address",
          "name": "_userAddress",
          "type": "address"
        },
        {
          "internalType": "address",
          "name": "_requestAddress",
          "type": "address"
        },
        {
          "internalType": "uint256",
          "name": "_timestamp",
          "type": "uint256"
        },
        {
          "internalType": "string",
          "name": "_signature",
          "type": "string"
        }
      ],
      "stateMutability": "view",
      "type": "function",
      "constant": true
    },
    {
      "inputs": [
        {
          "internalType": "uint256",
          "name": "",
          "type": "uint256"
        }
      ],
      "name": "requestsAddress",
      "outputs": [
        {
          "internalType": "address",
          "name": "",
          "type": "address"
        }
      ],
      "stateMutability": "view",
      "type": "function",
      "constant": true
    },
    {
      "inputs": [],
      "name": "requestsCounter",
      "outputs": [
        {
          "internalType": "uint256",
          "name": "",
          "type": "uint256"
        }
      ],
      "stateMutability": "view",
      "type": "function",
      "constant": true
    },
    {
      "inputs": [
        {
          "internalType": "address",
          "name": "",
          "type": "address"
        }
      ],
      "name": "users",
      "outputs": [
        {
          "internalType": "uint256",
          "name": "_index",
          "type": "uint256"
        },
        {
          "internalType": "string",
          "name": "_username",
          "type": "string"
        },
        {
          "internalType": "bytes32",
          "name": "_email",
          "type": "bytes32"
        },
        {
          "internalType": "bytes32",
          "name": "_firstname",
          "type": "bytes32"
        },
        {
          "internalType": "bytes32",
          "name": "_lastname",
          "type": "bytes32"
        },
        {
          "internalType": "enum SharedChain.Roles",
          "name": "_role",
          "type": "uint8"
        },
        {
          "internalType": "address",
          "name": "_walletAddress",
          "type": "address"
        },
        {
          "internalType": "uint256",
          "name": "_timestamp",
          "type": "uint256"
        }
      ],
      "stateMutability": "view",
      "type": "function",
      "constant": true
    },
    {
      "inputs": [
        {
          "internalType": "uint256",
          "name": "",
          "type": "uint256"
        }
      ],
      "name": "usersAddress",
      "outputs": [
        {
          "internalType": "address",
          "name": "",
          "type": "address"
        }
      ],
      "stateMutability": "view",
      "type": "function",
      "constant": true
    },
    {
      "inputs": [],
      "name": "usersCounter",
      "outputs": [
        {
          "internalType": "uint256",
          "name": "",
          "type": "uint256"
        }
      ],
      "stateMutability": "view",
      "type": "function",
      "constant": true
    },
    {
      "inputs": [],
      "name": "createUniqueProjectAddress",
      "outputs": [
        {
          "internalType": "address",
          "name": "",
          "type": "address"
        }
      ],
      "stateMutability": "nonpayable",
      "type": "function"
    },
    {
      "inputs": [
        {
          "internalType": "address",
          "name": "_projectAddress",
          "type": "address"
        },
        {
          "internalType": "bytes32",
          "name": "_name",
          "type": "bytes32"
        },
        {
          "internalType": "uint256",
          "name": "_status",
          "type": "uint256"
        },
        {
          "internalType": "string",
          "name": "_ipfsFileCID",
          "type": "string"
        },
        {
          "internalType": "string",
          "name": "_signature",
          "type": "string"
        }
      ],
      "name": "createProject",
      "outputs": [],
      "stateMutability": "nonpayable",
      "type": "function"
    },
    {
      "inputs": [
        {
          "internalType": "address",
          "name": "_projectAddress",
          "type": "address"
        },
        {
          "internalType": "string",
          "name": "_ipfsFileCID",
          "type": "string"
        },
        {
          "internalType": "string",
          "name": "_signature",
          "type": "string"
        }
      ],
      "name": "updateProject",
      "outputs": [],
      "stateMutability": "nonpayable",
      "type": "function"
    },
    {
      "inputs": [
        {
          "internalType": "address",
          "name": "_address",
          "type": "address"
        }
      ],
      "name": "getProjectInfo",
      "outputs": [
        {
          "components": [
            {
              "internalType": "uint256",
              "name": "_index",
              "type": "uint256"
            },
            {
              "internalType": "bytes32",
              "name": "_name",
              "type": "bytes32"
            },
            {
              "internalType": "enum SharedChain.ProjectStatus",
              "name": "_status",
              "type": "uint8"
            },
            {
              "internalType": "string",
              "name": "_ipfsFileCID",
              "type": "string"
            },
            {
              "internalType": "address",
              "name": "_projectAddress",
              "type": "address"
            },
            {
              "internalType": "address",
              "name": "_userAddress",
              "type": "address"
            },
            {
              "internalType": "uint256",
              "name": "_timestamp",
              "type": "uint256"
            },
            {
              "internalType": "string",
              "name": "_signature",
              "type": "string"
            }
          ],
          "internalType": "struct SharedChain.Project",
          "name": "",
          "type": "tuple"
        }
      ],
      "stateMutability": "view",
      "type": "function",
      "constant": true
    },
    {
      "inputs": [],
      "name": "getAllProjects",
      "outputs": [
        {
          "components": [
            {
              "internalType": "uint256",
              "name": "_index",
              "type": "uint256"
            },
            {
              "internalType": "bytes32",
              "name": "_name",
              "type": "bytes32"
            },
            {
              "internalType": "enum SharedChain.ProjectStatus",
              "name": "_status",
              "type": "uint8"
            },
            {
              "internalType": "string",
              "name": "_ipfsFileCID",
              "type": "string"
            },
            {
              "internalType": "address",
              "name": "_projectAddress",
              "type": "address"
            },
            {
              "internalType": "address",
              "name": "_userAddress",
              "type": "address"
            },
            {
              "internalType": "uint256",
              "name": "_timestamp",
              "type": "uint256"
            },
            {
              "internalType": "string",
              "name": "_signature",
              "type": "string"
            }
          ],
          "internalType": "struct SharedChain.Project[]",
          "name": "",
          "type": "tuple[]"
        }
      ],
      "stateMutability": "view",
      "type": "function",
      "constant": true
    },
    {
      "inputs": [],
      "name": "createUniqueProjectRequestAddress",
      "outputs": [
        {
          "internalType": "address",
          "name": "",
          "type": "address"
        }
      ],
      "stateMutability": "nonpayable",
      "type": "function"
    },
    {
      "inputs": [
        {
          "internalType": "bytes32",
          "name": "_title",
          "type": "bytes32"
        },
        {
          "internalType": "uint256",
          "name": "_status",
          "type": "uint256"
        },
        {
          "internalType": "uint256",
          "name": "_requestStatus",
          "type": "uint256"
        },
        {
          "internalType": "address",
          "name": "_projectAddress",
          "type": "address"
        },
        {
          "internalType": "address",
          "name": "_projectReqAddress",
          "type": "address"
        },
        {
          "internalType": "string",
          "name": "_signature",
          "type": "string"
        }
      ],
      "name": "createProjectRequest",
      "outputs": [],
      "stateMutability": "nonpayable",
      "type": "function"
    },
    {
      "inputs": [],
      "name": "getAllProjectRequests",
      "outputs": [
        {
          "components": [
            {
              "internalType": "uint256",
              "name": "_index",
              "type": "uint256"
            },
            {
              "internalType": "bytes32",
              "name": "_title",
              "type": "bytes32"
            },
            {
              "internalType": "string",
              "name": "_comments",
              "type": "string"
            },
            {
              "internalType": "enum SharedChain.ProjectStatus",
              "name": "_status",
              "type": "uint8"
            },
            {
              "internalType": "enum SharedChain.RequestStatus",
              "name": "_requestStatus",
              "type": "uint8"
            },
            {
              "internalType": "address",
              "name": "_projectAddress",
              "type": "address"
            },
            {
              "internalType": "address",
              "name": "_userAddress",
              "type": "address"
            },
            {
              "internalType": "address",
              "name": "_requestAddress",
              "type": "address"
            },
            {
              "internalType": "uint256",
              "name": "_timestamp",
              "type": "uint256"
            },
            {
              "internalType": "string",
              "name": "_signature",
              "type": "string"
            }
          ],
          "internalType": "struct SharedChain.ProjectRequest[]",
          "name": "",
          "type": "tuple[]"
        }
      ],
      "stateMutability": "view",
      "type": "function",
      "constant": true
    },
    {
      "inputs": [
        {
          "internalType": "address",
          "name": "_projectAddress",
          "type": "address"
        }
      ],
      "name": "getLastProjectRequest",
      "outputs": [
        {
          "components": [
            {
              "internalType": "uint256",
              "name": "_index",
              "type": "uint256"
            },
            {
              "internalType": "bytes32",
              "name": "_title",
              "type": "bytes32"
            },
            {
              "internalType": "string",
              "name": "_comments",
              "type": "string"
            },
            {
              "internalType": "enum SharedChain.ProjectStatus",
              "name": "_status",
              "type": "uint8"
            },
            {
              "internalType": "enum SharedChain.RequestStatus",
              "name": "_requestStatus",
              "type": "uint8"
            },
            {
              "internalType": "address",
              "name": "_projectAddress",
              "type": "address"
            },
            {
              "internalType": "address",
              "name": "_userAddress",
              "type": "address"
            },
            {
              "internalType": "address",
              "name": "_requestAddress",
              "type": "address"
            },
            {
              "internalType": "uint256",
              "name": "_timestamp",
              "type": "uint256"
            },
            {
              "internalType": "string",
              "name": "_signature",
              "type": "string"
            }
          ],
          "internalType": "struct SharedChain.ProjectRequest",
          "name": "",
          "type": "tuple"
        }
      ],
      "stateMutability": "view",
      "type": "function",
      "constant": true
    },
    {
      "inputs": [
        {
          "internalType": "uint256",
          "name": "_index",
          "type": "uint256"
        },
        {
          "internalType": "uint256",
          "name": "_indexProjectRequest",
          "type": "uint256"
        },
        {
          "internalType": "string",
          "name": "_comments",
          "type": "string"
        },
        {
          "internalType": "uint256",
          "name": "_requestStatus",
          "type": "uint256"
        },
        {
          "internalType": "uint256",
          "name": "_projectStatus",
          "type": "uint256"
        },
        {
          "internalType": "address",
          "name": "_projectAddress",
          "type": "address"
        },
        {
          "internalType": "string",
          "name": "_signature",
          "type": "string"
        }
      ],
      "name": "updateRequest",
      "outputs": [],
      "stateMutability": "nonpayable",
      "type": "function"
    },
    {
      "inputs": [],
      "name": "getAllRequests",
      "outputs": [
        {
          "components": [
            {
              "internalType": "uint256",
              "name": "_index",
              "type": "uint256"
            },
            {
              "internalType": "uint256",
              "name": "_indexProjectRequest",
              "type": "uint256"
            },
            {
              "internalType": "bytes32",
              "name": "_title",
              "type": "bytes32"
            },
            {
              "internalType": "enum SharedChain.RequestStatus",
              "name": "_requestStatus",
              "type": "uint8"
            },
            {
              "internalType": "enum SharedChain.ProjectStatus",
              "name": "_projectStatus",
              "type": "uint8"
            },
            {
              "internalType": "enum SharedChain.RequestType",
              "name": "_requestType",
              "type": "uint8"
            },
            {
              "internalType": "address",
              "name": "_projectAddress",
              "type": "address"
            },
            {
              "internalType": "address",
              "name": "_userAddress",
              "type": "address"
            },
            {
              "internalType": "address",
              "name": "_requestAddress",
              "type": "address"
            },
            {
              "internalType": "uint256",
              "name": "_timestamp",
              "type": "uint256"
            },
            {
              "internalType": "string",
              "name": "_signature",
              "type": "string"
            }
          ],
          "internalType": "struct SharedChain.Request[]",
          "name": "",
          "type": "tuple[]"
        }
      ],
      "stateMutability": "view",
      "type": "function",
      "constant": true
    }
  ],
  "bytecode": "0x60806040526000600355600060055560006007556000600a556000600d5534801561002957600080fd5b50336000806101000a81548173ffffffffffffffffffffffffffffffffffffffff021916908373ffffffffffffffffffffffffffffffffffffffff16021790555033600460006101000a81548173ffffffffffffffffffffffffffffffffffffffff021916908373ffffffffffffffffffffffffffffffffffffffff16021790555061578b80620000bb6000396000f3fe608060405234801561001057600080fd5b50600436106101c45760003560e01c8063840e78fd116100f9578063d210ce0511610097578063e2842d7911610071578063e2842d7914610576578063f46d4b8a14610594578063fb1a002a146105b0578063fe360ea5146105ce576101c4565b8063d210ce0514610520578063d67b1b991461053c578063e1592c0d1461055a576101c4565b8063a87430ba116100d3578063a87430ba14610476578063c19ded13146104ad578063cc1ee4db146104e6578063cf13f5d414610504576101c4565b8063840e78fd146104055780638da5cb5b1461043c578063910097861461045a576101c4565b806356a3eead1161016657806376c932e01161014057806376c932e01461034d57806378e8cd851461037d57806380d03829146103ad57806381d12c58146103cb576101c4565b806356a3eead146102cf5780636386c1c7146102ff578063663c22691461032f576101c4565b80632d757d8e116101a25780632d757d8e14610247578063400003db1461026357806347ee45b9146102815780634d93500d146102b1576101c4565b80630b287892146101c957806317e8c952146101f95780632c91324c14610217575b600080fd5b6101e360048036038101906101de9190613c5c565b6105ec565b6040516101f09190613f03565b60405180910390f35b6102016109b4565b60405161020e9190613f34565b60405180910390f35b610231600480360381019061022c9190613f7b565b610a45565b60405161023e9190613f34565b60405180910390f35b610261600480360381019061025c91906140dd565b610a84565b005b61026b610bff565b604051610278919061435a565b60405180910390f35b61029b60048036038101906102969190613c5c565b610f94565b6040516102a89190614433565b60405180910390f35b6102b9611217565b6040516102c69190613f34565b60405180910390f35b6102e960048036038101906102e49190613f7b565b6112a8565b6040516102f69190613f34565b60405180910390f35b61031960048036038101906103149190613c5c565b6112e7565b604051610326919061454d565b60405180910390f35b610337611496565b604051610344919061457e565b60405180910390f35b61036760048036038101906103629190613f7b565b61149c565b6040516103749190613f34565b60405180910390f35b61039760048036038101906103929190613f7b565b6114db565b6040516103a49190613f34565b60405180910390f35b6103b561151a565b6040516103c29190614712565b60405180910390f35b6103e560048036038101906103e09190613f7b565b61188e565b6040516103fc9b9a999897969594939291906147f3565b60405180910390f35b61041f600480360381019061041a9190613c5c565b6119f7565b6040516104339897969594939291906148a5565b60405180910390f35b610444611b9c565b6040516104519190613f34565b60405180910390f35b610474600480360381019061046f9190614931565b611bc0565b005b610490600480360381019061048b9190613c5c565b611e1a565b6040516104a4989796959493929190614980565b60405180910390f35b6104c760048036038101906104c29190613f7b565b611f17565b6040516104dd9a99989796959493929190614a05565b60405180910390f35b6104ee6120f5565b6040516104fb919061457e565b60405180910390f35b61051e60048036038101906105199190614adb565b6120fb565b005b61053a60048036038101906105359190614b84565b61241d565b005b6105446127e9565b604051610551919061457e565b60405180910390f35b610574600480360381019061056f9190614c2d565b6127ef565b005b61057e612ac0565b60405161058b9190614e2a565b60405180910390f35b6105ae60048036038101906105a99190614e4c565b612d4c565b005b6105b861304f565b6040516105c591906150bf565b60405180910390f35b6105d6613397565b6040516105e3919061457e565b60405180910390f35b6105f46138ba565b6105fc6138ba565b6000600a5411156109aa5760006001600a546106189190615110565b90505b600081106109a8576009600082815260200190815260200160002060030160029054906101000a900473ffffffffffffffffffffffffffffffffffffffff1673ffffffffffffffffffffffffffffffffffffffff168473ffffffffffffffffffffffffffffffffffffffff1614156109955760405180610140016040528060096000848152602001908152602001600020600001548152602001600960008481526020019081526020016000206001015481526020016009600084815260200190815260200160002060020180546106f290615173565b80601f016020809104026020016040519081016040528092919081815260200182805461071e90615173565b801561076b5780601f106107405761010080835404028352916020019161076b565b820191906000526020600020905b81548152906001019060200180831161074e57829003601f168201915b505050505081526020016009600084815260200190815260200160002060030160009054906101000a900460ff1660048111156107ab576107aa613d54565b5b81526020016009600084815260200190815260200160002060030160019054906101000a900460ff1660028111156107e6576107e5613d54565b5b81526020016009600084815260200190815260200160002060030160029054906101000a900473ffffffffffffffffffffffffffffffffffffffff1673ffffffffffffffffffffffffffffffffffffffff1681526020016009600084815260200190815260200160002060040160009054906101000a900473ffffffffffffffffffffffffffffffffffffffff1673ffffffffffffffffffffffffffffffffffffffff1681526020016009600084815260200190815260200160002060050160009054906101000a900473ffffffffffffffffffffffffffffffffffffffff1673ffffffffffffffffffffffffffffffffffffffff16815260200142815260200160096000848152602001908152602001600020600701805461090890615173565b80601f016020809104026020016040519081016040528092919081815260200182805461093490615173565b80156109815780601f1061095657610100808354040283529160200191610981565b820191906000526020600020905b81548152906001019060200180831161096457829003601f168201915b5050505050815250915081925050506109af565b80806109a0906151a5565b91505061061b565b505b809150505b919050565b6000600560008154809291906109c9906151cf565b91905055507f6373643f2e213f2a73616c61733b646c412e3b735f6173000000000000000000600460009054906101000a900473ffffffffffffffffffffffffffffffffffffffff16600554604051602001610a27939291906152a2565b6040516020818303038152906040528051906020012060001c905090565b60028181548110610a5557600080fd5b906000526020600020016000915054906101000a900473ffffffffffffffffffffffffffffffffffffffff1681565b836002811115610a9757610a96613d54565b5b600c600089815260200190815260200160002060030160006101000a81548160ff02191690836002811115610acf57610ace613d54565b5b021790555080600c60008981526020019081526020016000206007019080519060200190610afe929190613976565b5084600960008881526020019081526020016000206002019080519060200190610b29929190613976565b50836002811115610b3d57610b3c613d54565b5b6009600088815260200190815260200160002060030160016101000a81548160ff02191690836002811115610b7557610b74613d54565b5b0217905550826004811115610b8d57610b8c613d54565b5b600660008473ffffffffffffffffffffffffffffffffffffffff1673ffffffffffffffffffffffffffffffffffffffff16815260200190815260200160002060020160006101000a81548160ff02191690836004811115610bf157610bf0613d54565b5b021790555050505050505050565b6060806000600a541415610c165780915050610f91565b600a5467ffffffffffffffff811115610c3257610c31613fb2565b5b604051908082528060200260200182016040528015610c6b57816020015b610c586138ba565b815260200190600190039081610c505790505b50905060005b600754811015610f8b57600060096000838152602001908152602001600020905080604051806101400160405290816000820154815260200160018201548152602001600282018054610cc390615173565b80601f0160208091040260200160405190810160405280929190818152602001828054610cef90615173565b8015610d3c5780601f10610d1157610100808354040283529160200191610d3c565b820191906000526020600020905b815481529060010190602001808311610d1f57829003601f168201915b505050505081526020016003820160009054906101000a900460ff166004811115610d6a57610d69613d54565b5b6004811115610d7c57610d7b613d54565b5b81526020016003820160019054906101000a900460ff166002811115610da557610da4613d54565b5b6002811115610db757610db6613d54565b5b81526020016003820160029054906101000a900473ffffffffffffffffffffffffffffffffffffffff1673ffffffffffffffffffffffffffffffffffffffff1673ffffffffffffffffffffffffffffffffffffffff1681526020016004820160009054906101000a900473ffffffffffffffffffffffffffffffffffffffff1673ffffffffffffffffffffffffffffffffffffffff1673ffffffffffffffffffffffffffffffffffffffff1681526020016005820160009054906101000a900473ffffffffffffffffffffffffffffffffffffffff1673ffffffffffffffffffffffffffffffffffffffff1673ffffffffffffffffffffffffffffffffffffffff16815260200160068201548152602001600782018054610ed790615173565b80601f0160208091040260200160405190810160405280929190818152602001828054610f0390615173565b8015610f505780601f10610f2557610100808354040283529160200191610f50565b820191906000526020600020905b815481529060010190602001808311610f3357829003601f168201915b505050505081525050838381518110610f6c57610f6b6152df565b5b6020026020010181905250508080610f83906151cf565b915050610c71565b50809150505b90565b610f9c6139fc565b600660008373ffffffffffffffffffffffffffffffffffffffff1673ffffffffffffffffffffffffffffffffffffffff1681526020019081526020016000206040518061010001604052908160008201548152602001600182015481526020016002820160009054906101000a900460ff1660048111156110205761101f613d54565b5b600481111561103257611031613d54565b5b815260200160038201805461104690615173565b80601f016020809104026020016040519081016040528092919081815260200182805461107290615173565b80156110bf5780601f10611094576101008083540402835291602001916110bf565b820191906000526020600020905b8154815290600101906020018083116110a257829003601f168201915b505050505081526020016004820160009054906101000a900473ffffffffffffffffffffffffffffffffffffffff1673ffffffffffffffffffffffffffffffffffffffff1673ffffffffffffffffffffffffffffffffffffffff1681526020016005820160009054906101000a900473ffffffffffffffffffffffffffffffffffffffff1673ffffffffffffffffffffffffffffffffffffffff1673ffffffffffffffffffffffffffffffffffffffff1681526020016006820154815260200160078201805461118e90615173565b80601f01602080910402602001604051908101604052809291908181526020018280546111ba90615173565b80156112075780601f106111dc57610100808354040283529160200191611207565b820191906000526020600020905b8154815290600101906020018083116111ea57829003601f168201915b5050505050815250509050919050565b60006005600081548092919061122c906151cf565b91905055507f6373643f534073616c61733b646c413233345f442e3b735f6173000000000000600460009054906101000a900473ffffffffffffffffffffffffffffffffffffffff1660055460405160200161128a939291906152a2565b6040516020818303038152906040528051906020012060001c905090565b600e81815481106112b857600080fd5b906000526020600020016000915054906101000a900473ffffffffffffffffffffffffffffffffffffffff1681565b6112ef613a82565b600160008373ffffffffffffffffffffffffffffffffffffffff1673ffffffffffffffffffffffffffffffffffffffff168152602001908152602001600020604051806101000160405290816000820154815260200160018201805461135490615173565b80601f016020809104026020016040519081016040528092919081815260200182805461138090615173565b80156113cd5780601f106113a2576101008083540402835291602001916113cd565b820191906000526020600020905b8154815290600101906020018083116113b057829003601f168201915b505050505081526020016002820154815260200160038201548152602001600482015481526020016005820160009054906101000a900460ff16600381111561141957611418613d54565b5b600381111561142b5761142a613d54565b5b81526020016005820160019054906101000a900473ffffffffffffffffffffffffffffffffffffffff1673ffffffffffffffffffffffffffffffffffffffff1673ffffffffffffffffffffffffffffffffffffffff1681526020016006820154815250509050919050565b600d5481565b600881815481106114ac57600080fd5b906000526020600020016000915054906101000a900473ffffffffffffffffffffffffffffffffffffffff1681565b600b81815481106114eb57600080fd5b906000526020600020016000915054906101000a900473ffffffffffffffffffffffffffffffffffffffff1681565b60608060006007541415611531578091505061188b565b60075467ffffffffffffffff81111561154d5761154c613fb2565b5b60405190808252806020026020018201604052801561158657816020015b6115736139fc565b81526020019060019003908161156b5790505b50905060005b600754811015611885576000600882815481106115ac576115ab6152df565b5b9060005260206000200160009054906101000a900473ffffffffffffffffffffffffffffffffffffffff1690506000600660008373ffffffffffffffffffffffffffffffffffffffff1673ffffffffffffffffffffffffffffffffffffffff1681526020019081526020016000209050806040518061010001604052908160008201548152602001600182015481526020016002820160009054906101000a900460ff16600481111561166257611661613d54565b5b600481111561167457611673613d54565b5b815260200160038201805461168890615173565b80601f01602080910402602001604051908101604052809291908181526020018280546116b490615173565b80156117015780601f106116d657610100808354040283529160200191611701565b820191906000526020600020905b8154815290600101906020018083116116e457829003601f168201915b505050505081526020016004820160009054906101000a900473ffffffffffffffffffffffffffffffffffffffff1673ffffffffffffffffffffffffffffffffffffffff1673ffffffffffffffffffffffffffffffffffffffff1681526020016005820160009054906101000a900473ffffffffffffffffffffffffffffffffffffffff1673ffffffffffffffffffffffffffffffffffffffff1673ffffffffffffffffffffffffffffffffffffffff168152602001600682015481526020016007820180546117d090615173565b80601f01602080910402602001604051908101604052809291908181526020018280546117fc90615173565b80156118495780601f1061181e57610100808354040283529160200191611849565b820191906000526020600020905b81548152906001019060200180831161182c57829003601f168201915b505050505081525050848481518110611865576118646152df565b5b60200260200101819052505050808061187d906151cf565b91505061158c565b50809150505b90565b600c6020528060005260406000206000915090508060000154908060010154908060020154908060030160009054906101000a900460ff16908060030160019054906101000a900460ff16908060030160029054906101000a900460ff16908060030160039054906101000a900473ffffffffffffffffffffffffffffffffffffffff16908060040160009054906101000a900473ffffffffffffffffffffffffffffffffffffffff16908060050160009054906101000a900473ffffffffffffffffffffffffffffffffffffffff169080600601549080600701805461197490615173565b80601f01602080910402602001604051908101604052809291908181526020018280546119a090615173565b80156119ed5780601f106119c2576101008083540402835291602001916119ed565b820191906000526020600020905b8154815290600101906020018083116119d057829003601f168201915b505050505090508b565b60066020528060005260406000206000915090508060000154908060010154908060020160009054906101000a900460ff1690806003018054611a3990615173565b80601f0160208091040260200160405190810160405280929190818152602001828054611a6590615173565b8015611ab25780601f10611a8757610100808354040283529160200191611ab2565b820191906000526020600020905b815481529060010190602001808311611a9557829003601f168201915b5050505050908060040160009054906101000a900473ffffffffffffffffffffffffffffffffffffffff16908060050160009054906101000a900473ffffffffffffffffffffffffffffffffffffffff1690806006015490806007018054611b1990615173565b80601f0160208091040260200160405190810160405280929190818152602001828054611b4590615173565b8015611b925780601f10611b6757610100808354040283529160200191611b92565b820191906000526020600020905b815481529060010190602001808311611b7557829003601f168201915b5050505050905088565b60008054906101000a900473ffffffffffffffffffffffffffffffffffffffff1681565b816003811115611bd357611bd2613d54565b5b600160008373ffffffffffffffffffffffffffffffffffffffff1673ffffffffffffffffffffffffffffffffffffffff16815260200190815260200160002060050160006101000a81548160ff02191690836003811115611c3757611c36613d54565b5b02179055508073ffffffffffffffffffffffffffffffffffffffff16826003811115611c6657611c65613d54565b5b6003811115611c7857611c77613d54565b5b600160008473ffffffffffffffffffffffffffffffffffffffff1673ffffffffffffffffffffffffffffffffffffffff168152602001908152602001600020600101604051611cc791906153ad565b60405180910390207ff17f3effabbd51830c4ffa8b6910ac12573d210009e0aedb1a55ae5026192e9a600160008673ffffffffffffffffffffffffffffffffffffffff1673ffffffffffffffffffffffffffffffffffffffff16815260200190815260200160002060000154600160008773ffffffffffffffffffffffffffffffffffffffff1673ffffffffffffffffffffffffffffffffffffffff16815260200190815260200160002060020154600160008873ffffffffffffffffffffffffffffffffffffffff1673ffffffffffffffffffffffffffffffffffffffff16815260200190815260200160002060030154600160008973ffffffffffffffffffffffffffffffffffffffff1673ffffffffffffffffffffffffffffffffffffffff1681526020019081526020016000206004015442604051611e0e9594939291906153c4565b60405180910390a45050565b6001602052806000526040600020600091509050806000015490806001018054611e4390615173565b80601f0160208091040260200160405190810160405280929190818152602001828054611e6f90615173565b8015611ebc5780601f10611e9157610100808354040283529160200191611ebc565b820191906000526020600020905b815481529060010190602001808311611e9f57829003601f168201915b5050505050908060020154908060030154908060040154908060050160009054906101000a900460ff16908060050160019054906101000a900473ffffffffffffffffffffffffffffffffffffffff16908060060154905088565b6009602052806000526040600020600091509050806000015490806001015490806002018054611f4690615173565b80601f0160208091040260200160405190810160405280929190818152602001828054611f7290615173565b8015611fbf5780601f10611f9457610100808354040283529160200191611fbf565b820191906000526020600020905b815481529060010190602001808311611fa257829003601f168201915b5050505050908060030160009054906101000a900460ff16908060030160019054906101000a900460ff16908060030160029054906101000a900473ffffffffffffffffffffffffffffffffffffffff16908060040160009054906101000a900473ffffffffffffffffffffffffffffffffffffffff16908060050160009054906101000a900473ffffffffffffffffffffffffffffffffffffffff169080600601549080600701805461207290615173565b80601f016020809104026020016040519081016040528092919081815260200182805461209e90615173565b80156120eb5780601f106120c0576101008083540402835291602001916120eb565b820191906000526020600020905b8154815290600101906020018083116120ce57829003601f168201915b505050505090508a565b600a5481565b3373ffffffffffffffffffffffffffffffffffffffff1660008054906101000a900473ffffffffffffffffffffffffffffffffffffffff1673ffffffffffffffffffffffffffffffffffffffff1614612189576040517f08c379a000000000000000000000000000000000000000000000000000000000815260040161218090615463565b60405180910390fd5b60405180610100016040528060035481526020018781526020018681526020018581526020018481526020018360038111156121c8576121c7613d54565b5b60038111156121da576121d9613d54565b5b81526020018273ffffffffffffffffffffffffffffffffffffffff16815260200142815250600160008373ffffffffffffffffffffffffffffffffffffffff1673ffffffffffffffffffffffffffffffffffffffff168152602001908152602001600020600082015181600001556020820151816001019080519060200190612264929190613976565b5060408201518160020155606082015181600301556080820151816004015560a08201518160050160006101000a81548160ff021916908360038111156122ae576122ad613d54565b5b021790555060c08201518160050160016101000a81548173ffffffffffffffffffffffffffffffffffffffff021916908373ffffffffffffffffffffffffffffffffffffffff16021790555060e082015181600601559050508073ffffffffffffffffffffffffffffffffffffffff1682600381111561233157612330613d54565b5b600381111561234357612342613d54565b5b8760405161235191906154b4565b60405180910390207ff17f3effabbd51830c4ffa8b6910ac12573d210009e0aedb1a55ae5026192e9a600354898989426040516123929594939291906153c4565b60405180910390a46002819080600181540180825580915050600190039060005260206000200160009091909190916101000a81548173ffffffffffffffffffffffffffffffffffffffff021916908373ffffffffffffffffffffffffffffffffffffffff16021790555060036000815480929190612410906151cf565b9190505550505050505050565b604051806101400160405280600a54815260200187815260200160405180602001604052806000815250815260200186600481111561245f5761245e613d54565b5b600481111561247157612470613d54565b5b815260200185600281111561248957612488613d54565b5b600281111561249b5761249a613d54565b5b81526020018473ffffffffffffffffffffffffffffffffffffffff168152602001600460009054906101000a900473ffffffffffffffffffffffffffffffffffffffff1673ffffffffffffffffffffffffffffffffffffffff1681526020018373ffffffffffffffffffffffffffffffffffffffff1681526020014281526020018281525060096000600a54815260200190815260200160002060008201518160000155602082015181600101556040820151816002019080519060200190612565929190613976565b5060608201518160030160006101000a81548160ff0219169083600481111561259157612590613d54565b5b021790555060808201518160030160016101000a81548160ff021916908360028111156125c1576125c0613d54565b5b021790555060a08201518160030160026101000a81548173ffffffffffffffffffffffffffffffffffffffff021916908373ffffffffffffffffffffffffffffffffffffffff16021790555060c08201518160040160006101000a81548173ffffffffffffffffffffffffffffffffffffffff021916908373ffffffffffffffffffffffffffffffffffffffff16021790555060e08201518160050160006101000a81548173ffffffffffffffffffffffffffffffffffffffff021916908373ffffffffffffffffffffffffffffffffffffffff16021790555061010082015181600601556101208201518160070190805190602001906126c3929190613976565b509050506126d7600a54878688878761339d565b7f7c2cee03a4cddb6435d0bc7e59bd9a94142380a47bf8ead53d62091b274da965600a548787600481111561270f5761270e613d54565b5b87600281111561272257612721613d54565b5b87600460009054906101000a900473ffffffffffffffffffffffffffffffffffffffff1688428960405161275e999897969594939291906154f1565b60405180910390a1600b829080600181540180825580915050600190039060005260206000200160009091909190916101000a81548173ffffffffffffffffffffffffffffffffffffffff021916908373ffffffffffffffffffffffffffffffffffffffff160217905550600a60008154809291906127dc906151cf565b9190505550505050505050565b60035481565b81600660008573ffffffffffffffffffffffffffffffffffffffff1673ffffffffffffffffffffffffffffffffffffffff1681526020019081526020016000206003019080519060200190612845929190613976565b5080600660008573ffffffffffffffffffffffffffffffffffffffff1673ffffffffffffffffffffffffffffffffffffffff168152602001908152602001600020600701908051906020019061289c929190613976565b507fcde950623bdaadd4f1c9770d7dbd93064fb50de6bd0c5762c48a7cbff7faae57600660008573ffffffffffffffffffffffffffffffffffffffff1673ffffffffffffffffffffffffffffffffffffffff16815260200190815260200160002060000154600660008673ffffffffffffffffffffffffffffffffffffffff1673ffffffffffffffffffffffffffffffffffffffff16815260200190815260200160002060010154600660008773ffffffffffffffffffffffffffffffffffffffff1673ffffffffffffffffffffffffffffffffffffffff16815260200190815260200160002060020160009054906101000a900460ff16600660008873ffffffffffffffffffffffffffffffffffffffff1673ffffffffffffffffffffffffffffffffffffffff168152602001908152602001600020600301600660008973ffffffffffffffffffffffffffffffffffffffff1673ffffffffffffffffffffffffffffffffffffffff16815260200190815260200160002060040160009054906101000a900473ffffffffffffffffffffffffffffffffffffffff16600460009054906101000a900473ffffffffffffffffffffffffffffffffffffffff1642600660008c73ffffffffffffffffffffffffffffffffffffffff1673ffffffffffffffffffffffffffffffffffffffff168152602001908152602001600020600701604051612ab3989796959493929190615619565b60405180910390a1505050565b6060600060035467ffffffffffffffff811115612ae057612adf613fb2565b5b604051908082528060200260200182016040528015612b1957816020015b612b06613a82565b815260200190600190039081612afe5790505b50905060005b600354811015612d4457600060028281548110612b3f57612b3e6152df565b5b9060005260206000200160009054906101000a900473ffffffffffffffffffffffffffffffffffffffff1690506000600160008373ffffffffffffffffffffffffffffffffffffffff1673ffffffffffffffffffffffffffffffffffffffff1681526020019081526020016000209050806040518061010001604052908160008201548152602001600182018054612bd690615173565b80601f0160208091040260200160405190810160405280929190818152602001828054612c0290615173565b8015612c4f5780601f10612c2457610100808354040283529160200191612c4f565b820191906000526020600020905b815481529060010190602001808311612c3257829003601f168201915b505050505081526020016002820154815260200160038201548152602001600482015481526020016005820160009054906101000a900460ff166003811115612c9b57612c9a613d54565b5b6003811115612cad57612cac613d54565b5b81526020016005820160019054906101000a900473ffffffffffffffffffffffffffffffffffffffff1673ffffffffffffffffffffffffffffffffffffffff1673ffffffffffffffffffffffffffffffffffffffff168152602001600682015481525050848481518110612d2457612d236152df565b5b602002602001018190525050508080612d3c906151cf565b915050612b1f565b508091505090565b6040518061010001604052806007548152602001858152602001846004811115612d7957612d78613d54565b5b6004811115612d8b57612d8a613d54565b5b81526020018381526020018673ffffffffffffffffffffffffffffffffffffffff168152602001600460009054906101000a900473ffffffffffffffffffffffffffffffffffffffff1673ffffffffffffffffffffffffffffffffffffffff16815260200142815260200182815250600660008773ffffffffffffffffffffffffffffffffffffffff1673ffffffffffffffffffffffffffffffffffffffff168152602001908152602001600020600082015181600001556020820151816001015560408201518160020160006101000a81548160ff02191690836004811115612e7857612e77613d54565b5b02179055506060820151816003019080519060200190612e99929190613976565b5060808201518160040160006101000a81548173ffffffffffffffffffffffffffffffffffffffff021916908373ffffffffffffffffffffffffffffffffffffffff16021790555060a08201518160050160006101000a81548173ffffffffffffffffffffffffffffffffffffffff021916908373ffffffffffffffffffffffffffffffffffffffff16021790555060c0820151816006015560e0820151816007019080519060200190612f4e929190613976565b509050507fcde950623bdaadd4f1c9770d7dbd93064fb50de6bd0c5762c48a7cbff7faae5760075485856004811115612f8a57612f89613d54565b5b8589600460009054906101000a900473ffffffffffffffffffffffffffffffffffffffff164288604051612fc59897969594939291906148a5565b60405180910390a16008859080600181540180825580915050600190039060005260206000200160009091909190916101000a81548173ffffffffffffffffffffffffffffffffffffffff021916908373ffffffffffffffffffffffffffffffffffffffff16021790555060076000815480929190613043906151cf565b91905055505050505050565b6060806000600d5414156130665780915050613394565b600d5467ffffffffffffffff81111561308257613081613fb2565b5b6040519080825280602002602001820160405280156130bb57816020015b6130a8613af8565b8152602001906001900390816130a05790505b50905060005b600d5481101561338e576000600c6000838152602001908152602001600020905080604051806101600160405290816000820154815260200160018201548152602001600282015481526020016003820160009054906101000a900460ff16600281111561313257613131613d54565b5b600281111561314457613143613d54565b5b81526020016003820160019054906101000a900460ff16600481111561316d5761316c613d54565b5b600481111561317f5761317e613d54565b5b81526020016003820160029054906101000a900460ff1660018111156131a8576131a7613d54565b5b60018111156131ba576131b9613d54565b5b81526020016003820160039054906101000a900473ffffffffffffffffffffffffffffffffffffffff1673ffffffffffffffffffffffffffffffffffffffff1673ffffffffffffffffffffffffffffffffffffffff1681526020016004820160009054906101000a900473ffffffffffffffffffffffffffffffffffffffff1673ffffffffffffffffffffffffffffffffffffffff1673ffffffffffffffffffffffffffffffffffffffff1681526020016005820160009054906101000a900473ffffffffffffffffffffffffffffffffffffffff1673ffffffffffffffffffffffffffffffffffffffff1673ffffffffffffffffffffffffffffffffffffffff168152602001600682015481526020016007820180546132da90615173565b80601f016020809104026020016040519081016040528092919081815260200182805461330690615173565b80156133535780601f1061332857610100808354040283529160200191613353565b820191906000526020600020905b81548152906001019060200180831161333657829003601f168201915b50505050508152505083838151811061336f5761336e6152df565b5b6020026020010181905250508080613386906151cf565b9150506130c1565b50809150505b90565b60075481565b6000600160048111156133b3576133b2613d54565b5b8460048111156133c6576133c5613d54565b5b60048111156133d8576133d7613d54565b5b148061341a5750600360048111156133f3576133f2613d54565b5b84600481111561340657613405613d54565b5b600481111561341857613417613d54565b5b145b8061345a575060048081111561343357613432613d54565b5b84600481111561344657613445613d54565b5b600481111561345857613457613d54565b5b145b1561346857600090506134ad565b6002600481111561347c5761347b613d54565b5b84600481111561348f5761348e613d54565b5b60048111156134a1576134a0613d54565b5b14156134ac57600190505b5b6134bc878787878588886134c5565b50505050505050565b604051806101600160405280600d5481526020018881526020018781526020018660028111156134f8576134f7613d54565b5b600281111561350a57613509613d54565b5b815260200185600481111561352257613521613d54565b5b600481111561353457613533613d54565b5b815260200184600181111561354c5761354b613d54565b5b81526020018373ffffffffffffffffffffffffffffffffffffffff168152602001600460009054906101000a900473ffffffffffffffffffffffffffffffffffffffff1673ffffffffffffffffffffffffffffffffffffffff1681526020018273ffffffffffffffffffffffffffffffffffffffff16815260200142815260200160405180602001604052806000815250815250600c6000600d54815260200190815260200160002060008201518160000155602082015181600101556040820151816002015560608201518160030160006101000a81548160ff0219169083600281111561363e5761363d613d54565b5b021790555060808201518160030160016101000a81548160ff0219169083600481111561366e5761366d613d54565b5b021790555060a08201518160030160026101000a81548160ff0219169083600181111561369e5761369d613d54565b5b021790555060c08201518160030160036101000a81548173ffffffffffffffffffffffffffffffffffffffff021916908373ffffffffffffffffffffffffffffffffffffffff16021790555060e08201518160040160006101000a81548173ffffffffffffffffffffffffffffffffffffffff021916908373ffffffffffffffffffffffffffffffffffffffff1602179055506101008201518160050160006101000a81548173ffffffffffffffffffffffffffffffffffffffff021916908373ffffffffffffffffffffffffffffffffffffffff16021790555061012082015181600601556101408201518160070190805190602001906137a1929190613976565b509050507fd4b969e56d1e1f6ea9255e6df54d2edcd62299d8a2baf5804e3f5beef56c4390600d5488888860028111156137de576137dd613d54565b5b8860048111156137f1576137f0613d54565b5b8888600460009054906101000a900473ffffffffffffffffffffffffffffffffffffffff16894260405161382e9a999897969594939291906156a5565b60405180910390a1600e819080600181540180825580915050600190039060005260206000200160009091909190916101000a81548173ffffffffffffffffffffffffffffffffffffffff021916908373ffffffffffffffffffffffffffffffffffffffff160217905550600d60008154809291906138ac906151cf565b919050555050505050505050565b604051806101400160405280600081526020016000801916815260200160608152602001600060048111156138f2576138f1613d54565b5b81526020016000600281111561390b5761390a613d54565b5b8152602001600073ffffffffffffffffffffffffffffffffffffffff168152602001600073ffffffffffffffffffffffffffffffffffffffff168152602001600073ffffffffffffffffffffffffffffffffffffffff16815260200160008152602001606081525090565b82805461398290615173565b90600052602060002090601f0160209004810192826139a457600085556139eb565b82601f106139bd57805160ff19168380011785556139eb565b828001600101855582156139eb579182015b828111156139ea5782518255916020019190600101906139cf565b5b5090506139f89190613bcd565b5090565b604051806101000160405280600081526020016000801916815260200160006004811115613a2d57613a2c613d54565b5b815260200160608152602001600073ffffffffffffffffffffffffffffffffffffffff168152602001600073ffffffffffffffffffffffffffffffffffffffff16815260200160008152602001606081525090565b604051806101000160405280600081526020016060815260200160008019168152602001600080191681526020016000801916815260200160006003811115613ace57613acd613d54565b5b8152602001600073ffffffffffffffffffffffffffffffffffffffff168152602001600081525090565b60405180610160016040528060008152602001600081526020016000801916815260200160006002811115613b3057613b2f613d54565b5b815260200160006004811115613b4957613b48613d54565b5b815260200160006001811115613b6257613b61613d54565b5b8152602001600073ffffffffffffffffffffffffffffffffffffffff168152602001600073ffffffffffffffffffffffffffffffffffffffff168152602001600073ffffffffffffffffffffffffffffffffffffffff16815260200160008152602001606081525090565b5b80821115613be6576000816000905550600101613bce565b5090565b6000604051905090565b600080fd5b600080fd5b600073ffffffffffffffffffffffffffffffffffffffff82169050919050565b6000613c2982613bfe565b9050919050565b613c3981613c1e565b8114613c4457600080fd5b50565b600081359050613c5681613c30565b92915050565b600060208284031215613c7257613c71613bf4565b5b6000613c8084828501613c47565b91505092915050565b6000819050919050565b613c9c81613c89565b82525050565b6000819050919050565b613cb581613ca2565b82525050565b600081519050919050565b600082825260208201905092915050565b60005b83811015613cf5578082015181840152602081019050613cda565b83811115613d04576000848401525b50505050565b6000601f19601f8301169050919050565b6000613d2682613cbb565b613d308185613cc6565b9350613d40818560208601613cd7565b613d4981613d0a565b840191505092915050565b7f4e487b7100000000000000000000000000000000000000000000000000000000600052602160045260246000fd5b60058110613d9457613d93613d54565b5b50565b6000819050613da582613d83565b919050565b6000613db582613d97565b9050919050565b613dc581613daa565b82525050565b60038110613ddc57613ddb613d54565b5b50565b6000819050613ded82613dcb565b919050565b6000613dfd82613ddf565b9050919050565b613e0d81613df2565b82525050565b613e1c81613c1e565b82525050565b600061014083016000830151613e3b6000860182613c93565b506020830151613e4e6020860182613cac565b5060408301518482036040860152613e668282613d1b565b9150506060830151613e7b6060860182613dbc565b506080830151613e8e6080860182613e04565b5060a0830151613ea160a0860182613e13565b5060c0830151613eb460c0860182613e13565b5060e0830151613ec760e0860182613e13565b50610100830151613edc610100860182613c93565b50610120830151848203610120860152613ef68282613d1b565b9150508091505092915050565b60006020820190508181036000830152613f1d8184613e22565b905092915050565b613f2e81613c1e565b82525050565b6000602082019050613f496000830184613f25565b92915050565b613f5881613c89565b8114613f6357600080fd5b50565b600081359050613f7581613f4f565b92915050565b600060208284031215613f9157613f90613bf4565b5b6000613f9f84828501613f66565b91505092915050565b600080fd5b600080fd5b7f4e487b7100000000000000000000000000000000000000000000000000000000600052604160045260246000fd5b613fea82613d0a565b810181811067ffffffffffffffff8211171561400957614008613fb2565b5b80604052505050565b600061401c613bea565b90506140288282613fe1565b919050565b600067ffffffffffffffff82111561404857614047613fb2565b5b61405182613d0a565b9050602081019050919050565b82818337600083830152505050565b600061408061407b8461402d565b614012565b90508281526020810184848401111561409c5761409b613fad565b5b6140a784828561405e565b509392505050565b600082601f8301126140c4576140c3613fa8565b5b81356140d484826020860161406d565b91505092915050565b600080600080600080600060e0888a0312156140fc576140fb613bf4565b5b600061410a8a828b01613f66565b975050602061411b8a828b01613f66565b965050604088013567ffffffffffffffff81111561413c5761413b613bf9565b5b6141488a828b016140af565b95505060606141598a828b01613f66565b945050608061416a8a828b01613f66565b93505060a061417b8a828b01613c47565b92505060c088013567ffffffffffffffff81111561419c5761419b613bf9565b5b6141a88a828b016140af565b91505092959891949750929550565b600081519050919050565b600082825260208201905092915050565b6000819050602082019050919050565b6000610140830160008301516141fc6000860182613c93565b50602083015161420f6020860182613cac565b50604083015184820360408601526142278282613d1b565b915050606083015161423c6060860182613dbc565b50608083015161424f6080860182613e04565b5060a083015161426260a0860182613e13565b5060c083015161427560c0860182613e13565b5060e083015161428860e0860182613e13565b5061010083015161429d610100860182613c93565b506101208301518482036101208601526142b78282613d1b565b9150508091505092915050565b60006142d083836141e3565b905092915050565b6000602082019050919050565b60006142f0826141b7565b6142fa81856141c2565b93508360208202850161430c856141d3565b8060005b85811015614348578484038952815161432985826142c4565b9450614334836142d8565b925060208a01995050600181019050614310565b50829750879550505050505092915050565b6000602082019050818103600083015261437481846142e5565b905092915050565b6000610100830160008301516143956000860182613c93565b5060208301516143a86020860182613cac565b5060408301516143bb6040860182613dbc565b50606083015184820360608601526143d38282613d1b565b91505060808301516143e86080860182613e13565b5060a08301516143fb60a0860182613e13565b5060c083015161440e60c0860182613c93565b5060e083015184820360e08601526144268282613d1b565b9150508091505092915050565b6000602082019050818103600083015261444d818461437c565b905092915050565b6004811061446657614465613d54565b5b50565b600081905061447782614455565b919050565b600061448782614469565b9050919050565b6144978161447c565b82525050565b6000610100830160008301516144b66000860182613c93565b50602083015184820360208601526144ce8282613d1b565b91505060408301516144e36040860182613cac565b5060608301516144f66060860182613cac565b5060808301516145096080860182613cac565b5060a083015161451c60a086018261448e565b5060c083015161452f60c0860182613e13565b5060e083015161454260e0860182613c93565b508091505092915050565b60006020820190508181036000830152614567818461449d565b905092915050565b61457881613c89565b82525050565b6000602082019050614593600083018461456f565b92915050565b600081519050919050565b600082825260208201905092915050565b6000819050602082019050919050565b6000610100830160008301516145de6000860182613c93565b5060208301516145f16020860182613cac565b5060408301516146046040860182613dbc565b506060830151848203606086015261461c8282613d1b565b91505060808301516146316080860182613e13565b5060a083015161464460a0860182613e13565b5060c083015161465760c0860182613c93565b5060e083015184820360e086015261466f8282613d1b565b9150508091505092915050565b600061468883836145c5565b905092915050565b6000602082019050919050565b60006146a882614599565b6146b281856145a4565b9350836020820285016146c4856145b5565b8060005b8581101561470057848403895281516146e1858261467c565b94506146ec83614690565b925060208a019950506001810190506146c8565b50829750879550505050505092915050565b6000602082019050818103600083015261472c818461469d565b905092915050565b61473d81613ca2565b82525050565b61474c81613df2565b82525050565b61475b81613daa565b82525050565b6002811061477257614771613d54565b5b50565b600081905061478382614761565b919050565b600061479382614775565b9050919050565b6147a381614788565b82525050565b600082825260208201905092915050565b60006147c582613cbb565b6147cf81856147a9565b93506147df818560208601613cd7565b6147e881613d0a565b840191505092915050565b600061016082019050614809600083018e61456f565b614816602083018d61456f565b614823604083018c614734565b614830606083018b614743565b61483d608083018a614752565b61484a60a083018961479a565b61485760c0830188613f25565b61486460e0830187613f25565b614872610100830186613f25565b61488061012083018561456f565b81810361014083015261489381846147ba565b90509c9b505050505050505050505050565b6000610100820190506148bb600083018b61456f565b6148c8602083018a614734565b6148d56040830189614752565b81810360608301526148e781886147ba565b90506148f66080830187613f25565b61490360a0830186613f25565b61491060c083018561456f565b81810360e083015261492281846147ba565b90509998505050505050505050565b6000806040838503121561494857614947613bf4565b5b600061495685828601613f66565b925050602061496785828601613c47565b9150509250929050565b61497a8161447c565b82525050565b600061010082019050614996600083018b61456f565b81810360208301526149a8818a6147ba565b90506149b76040830189614734565b6149c46060830188614734565b6149d16080830187614734565b6149de60a0830186614971565b6149eb60c0830185613f25565b6149f860e083018461456f565b9998505050505050505050565b600061014082019050614a1b600083018d61456f565b614a28602083018c614734565b8181036040830152614a3a818b6147ba565b9050614a49606083018a614752565b614a566080830189614743565b614a6360a0830188613f25565b614a7060c0830187613f25565b614a7d60e0830186613f25565b614a8b61010083018561456f565b818103610120830152614a9e81846147ba565b90509b9a5050505050505050505050565b614ab881613ca2565b8114614ac357600080fd5b50565b600081359050614ad581614aaf565b92915050565b60008060008060008060c08789031215614af857614af7613bf4565b5b600087013567ffffffffffffffff811115614b1657614b15613bf9565b5b614b2289828a016140af565b9650506020614b3389828a01614ac6565b9550506040614b4489828a01614ac6565b9450506060614b5589828a01614ac6565b9350506080614b6689828a01613f66565b92505060a0614b7789828a01613c47565b9150509295509295509295565b60008060008060008060c08789031215614ba157614ba0613bf4565b5b6000614baf89828a01614ac6565b9650506020614bc089828a01613f66565b9550506040614bd189828a01613f66565b9450506060614be289828a01613c47565b9350506080614bf389828a01613c47565b92505060a087013567ffffffffffffffff811115614c1457614c13613bf9565b5b614c2089828a016140af565b9150509295509295509295565b600080600060608486031215614c4657614c45613bf4565b5b6000614c5486828701613c47565b935050602084013567ffffffffffffffff811115614c7557614c74613bf9565b5b614c81868287016140af565b925050604084013567ffffffffffffffff811115614ca257614ca1613bf9565b5b614cae868287016140af565b9150509250925092565b600081519050919050565b600082825260208201905092915050565b6000819050602082019050919050565b600061010083016000830151614cfd6000860182613c93565b5060208301518482036020860152614d158282613d1b565b9150506040830151614d2a6040860182613cac565b506060830151614d3d6060860182613cac565b506080830151614d506080860182613cac565b5060a0830151614d6360a086018261448e565b5060c0830151614d7660c0860182613e13565b5060e0830151614d8960e0860182613c93565b508091505092915050565b6000614da08383614ce4565b905092915050565b6000602082019050919050565b6000614dc082614cb8565b614dca8185614cc3565b935083602082028501614ddc85614cd4565b8060005b85811015614e185784840389528151614df98582614d94565b9450614e0483614da8565b925060208a01995050600181019050614de0565b50829750879550505050505092915050565b60006020820190508181036000830152614e448184614db5565b905092915050565b600080600080600060a08688031215614e6857614e67613bf4565b5b6000614e7688828901613c47565b9550506020614e8788828901614ac6565b9450506040614e9888828901613f66565b935050606086013567ffffffffffffffff811115614eb957614eb8613bf9565b5b614ec5888289016140af565b925050608086013567ffffffffffffffff811115614ee657614ee5613bf9565b5b614ef2888289016140af565b9150509295509295909350565b600081519050919050565b600082825260208201905092915050565b6000819050602082019050919050565b614f3481614788565b82525050565b600061016083016000830151614f536000860182613c93565b506020830151614f666020860182613c93565b506040830151614f796040860182613cac565b506060830151614f8c6060860182613e04565b506080830151614f9f6080860182613dbc565b5060a0830151614fb260a0860182614f2b565b5060c0830151614fc560c0860182613e13565b5060e0830151614fd860e0860182613e13565b50610100830151614fed610100860182613e13565b50610120830151615002610120860182613c93565b5061014083015184820361014086015261501c8282613d1b565b9150508091505092915050565b60006150358383614f3a565b905092915050565b6000602082019050919050565b600061505582614eff565b61505f8185614f0a565b93508360208202850161507185614f1b565b8060005b858110156150ad578484038952815161508e8582615029565b94506150998361503d565b925060208a01995050600181019050615075565b50829750879550505050505092915050565b600060208201905081810360008301526150d9818461504a565b905092915050565b7f4e487b7100000000000000000000000000000000000000000000000000000000600052601160045260246000fd5b600061511b82613c89565b915061512683613c89565b925082821015615139576151386150e1565b5b828203905092915050565b7f4e487b7100000000000000000000000000000000000000000000000000000000600052602260045260246000fd5b6000600282049050600182168061518b57607f821691505b6020821081141561519f5761519e615144565b5b50919050565b60006151b082613c89565b915060008214156151c4576151c36150e1565b5b600182039050919050565b60006151da82613c89565b91507fffffffffffffffffffffffffffffffffffffffffffffffffffffffffffffffff82141561520d5761520c6150e1565b5b600182019050919050565b6000819050919050565b61523361522e82613ca2565b615218565b82525050565b60008160601b9050919050565b600061525182615239565b9050919050565b600061526382615246565b9050919050565b61527b61527682613c1e565b615258565b82525050565b6000819050919050565b61529c61529782613c89565b615281565b82525050565b60006152ae8286615222565b6020820191506152be828561526a565b6014820191506152ce828461528b565b602082019150819050949350505050565b7f4e487b7100000000000000000000000000000000000000000000000000000000600052603260045260246000fd5b600081905092915050565b60008190508160005260206000209050919050565b6000815461533b81615173565b615345818661530e565b945060018216600081146153605760018114615371576153a4565b60ff198316865281860193506153a4565b61537a85615319565b60005b8381101561539c5781548189015260018201915060208101905061537d565b838801955050505b50505092915050565b60006153b9828461532e565b915081905092915050565b600060a0820190506153d9600083018861456f565b6153e66020830187614734565b6153f36040830186614734565b6154006060830185614734565b61540d608083018461456f565b9695505050505050565b7f596f7520617265206e6f7420616e206f776e6572000000000000000000000000600082015250565b600061544d6014836147a9565b915061545882615417565b602082019050919050565b6000602082019050818103600083015261547c81615440565b9050919050565b600061548e82613cbb565b615498818561530e565b93506154a8818560208601613cd7565b80840191505092915050565b60006154c08284615483565b915081905092915050565b50565b60006154db6000836147a9565b91506154e6826154cb565b600082019050919050565b600061014082019050615507600083018c61456f565b615514602083018b614734565b8181036040830152615525816154ce565b9050615534606083018a614752565b6155416080830189614743565b61554e60a0830188613f25565b61555b60c0830187613f25565b61556860e0830186613f25565b61557661010083018561456f565b81810361012083015261558981846147ba565b90509a9950505050505050505050565b600081546155a681615173565b6155b081866147a9565b945060018216600081146155cb57600181146155dd57615610565b60ff1983168652602086019350615610565b6155e685615319565b60005b83811015615608578154818901526001820191506020810190506155e9565b808801955050505b50505092915050565b60006101008201905061562f600083018b61456f565b61563c602083018a614734565b6156496040830189614752565b818103606083015261565b8188615599565b905061566a6080830187613f25565b61567760a0830186613f25565b61568460c083018561456f565b81810360e08301526156968184615599565b90509998505050505050505050565b6000610160820190506156bb600083018d61456f565b6156c8602083018c61456f565b6156d5604083018b614734565b6156e2606083018a614743565b6156ef6080830189614752565b6156fc60a083018861479a565b61570960c0830187613f25565b61571660e0830186613f25565b615724610100830185613f25565b61573261012083018461456f565b818103610140830152615744816154ce565b90509b9a505050505050505050505056fea2646970667358221220c0a27d3eab95485de755226aa0685b3c933b1683b7205dbc2246233713fca84064736f6c634300080a0033",
  "immutableReferences": {},
  "source": "// SPDX-License-Identifier: MIT\r\npragma solidity >=0.8.0 <0.9.0;\r\n\r\nimport \"./UserChain.sol\";\r\nimport \"./SharedChain.sol\";\r\n\r\ncontract ProjectChain is UserChain {\r\n    bytes32 constant PROJECT_HASH_VALUE = \"csd?S@salas;dlA234_D.;s_as\";\r\n    bytes32 constant REQUEST_HASH_VALUE = \"csd?.!?*salas;dlA.;s_as\";\r\n\r\n    address _projectInitiator;\r\n    uint _indexUniqueAddress = 0;\r\n\r\n    constructor() {\r\n        _projectInitiator = msg.sender;\r\n    }\r\n\r\n    modifier onlyProjectInitiator {\r\n        require(users[_projectInitiator]._role == Roles.ProjectInitiator, \"You don't have the rights for this resources.\");\r\n        require(_projectInitiator == msg.sender, \"You are not a project initiator\");\r\n        _;\r\n    }\r\n\r\n\r\n    /**  PROJECT INITIATOR  */\r\n\r\n    mapping(address => Project) public projects;\r\n    uint public projectsCounter = 0;\r\n    address[] public projectsAddress;\r\n\r\n    function createUniqueProjectAddress() public returns (address) {\r\n        _indexUniqueAddress++;\r\n        return address(uint160(uint256(keccak256(abi.encodePacked(PROJECT_HASH_VALUE, _projectInitiator, _indexUniqueAddress)))));\r\n    }\r\n\r\n    function createProject(address _projectAddress, bytes32 _name, uint _status, string memory _ipfsFileCID, string memory _signature) public {\r\n        projects[_projectAddress] = Project(\r\n            projectsCounter, _name, ProjectStatus(_status),\r\n            _ipfsFileCID, _projectAddress,\r\n            _projectInitiator, block.timestamp, _signature\r\n        );\r\n\r\n        emit ProjectEvent(\r\n            projectsCounter, _name, ProjectStatus(_status),\r\n            _ipfsFileCID, _projectAddress, _projectInitiator,\r\n            block.timestamp, _signature\r\n        );\r\n        projectsAddress.push(_projectAddress);\r\n        projectsCounter++;\r\n    }\r\n\r\n    function updateProject(address _projectAddress, string memory _ipfsFileCID, string memory _signature) public {\r\n        projects[_projectAddress]._ipfsFileCID = _ipfsFileCID;\r\n        projects[_projectAddress]._signature = _signature;\r\n\r\n        emit ProjectEvent(\r\n            projects[_projectAddress]._index, projects[_projectAddress]._name, projects[_projectAddress]._status,\r\n            projects[_projectAddress]._ipfsFileCID, projects[_projectAddress]._projectAddress, _projectInitiator,\r\n            block.timestamp, projects[_projectAddress]._signature\r\n        );\r\n    }\r\n\r\n    function getProjectInfo(address _address) public view returns (Project memory) {\r\n        return projects[_address];\r\n    }\r\n\r\n    function getAllProjects() public view returns(Project[] memory) {\r\n        Project[] memory allProjects;\r\n        if (projectsCounter == 0) return allProjects;\r\n\r\n        allProjects = new Project[](projectsCounter);\r\n        for (uint index = 0; index < projectsCounter; index++) {\r\n            address _projectAddress = projectsAddress[index];\r\n            Project storage project = projects[_projectAddress];\r\n            allProjects[index] = project;\r\n        }\r\n        return allProjects;\r\n    }\r\n\r\n\r\n    /**  Project Requests  */\r\n\r\n    mapping(uint => ProjectRequest) public projectRequests;\r\n    uint public projectRequestsCounter = 0;\r\n    address[] public projectRequestsAddress;\r\n\r\n    function createUniqueProjectRequestAddress() public returns (address) {\r\n        _indexUniqueAddress++;\r\n        return address(uint160(uint256(keccak256(abi.encodePacked(REQUEST_HASH_VALUE, _projectInitiator, _indexUniqueAddress)))));\r\n    }\r\n\r\n    function createProjectRequest(\r\n        bytes32 _title, uint _status, uint _requestStatus,\r\n        address _projectAddress, address _projectReqAddress, string memory _signature\r\n    ) public {\r\n        projectRequests[projectRequestsCounter] = ProjectRequest(\r\n            projectRequestsCounter, _title, '', ProjectStatus(_status),\r\n            RequestStatus(_requestStatus), _projectAddress,\r\n            _projectInitiator, _projectReqAddress, block.timestamp, _signature\r\n        );\r\n\r\n        filterRequests(projectRequestsCounter, _title, _requestStatus, _status, _projectAddress, _projectReqAddress);\r\n\r\n        emit ProjectRequestEvent(\r\n            projectRequestsCounter, _title, '',\r\n            ProjectStatus(_status), RequestStatus(_requestStatus),\r\n            _projectAddress, _projectInitiator,\r\n            _projectReqAddress, block.timestamp, _signature\r\n        );\r\n        projectRequestsAddress.push(_projectReqAddress);\r\n        projectRequestsCounter++;\r\n    }\r\n\r\n    function filterRequests(\r\n        uint _indexProjectRequest,\r\n        bytes32 _title,\r\n        uint _requestStatus,\r\n        uint _projectStatus,\r\n        address _projectAddress,\r\n        address _requestAddress\r\n    ) internal {\r\n        RequestType _requestType;\r\n        if (\r\n            ProjectStatus(_projectStatus) == ProjectStatus.ToApprove ||\r\n            ProjectStatus(_projectStatus) == ProjectStatus.FinalizationCheck ||\r\n            ProjectStatus(_projectStatus) == ProjectStatus.Completed\r\n        ) {\r\n            _requestType = RequestType.SupervisorReq;\r\n        } else if (ProjectStatus(_projectStatus) == ProjectStatus.StartProject) {\r\n            _requestType = RequestType.CompanyReq;\r\n        }\r\n        createRequest(_indexProjectRequest, _title, _requestStatus, _projectStatus, _requestType, _projectAddress, _requestAddress);\r\n    }\r\n\r\n    function getAllProjectRequests() public view returns(ProjectRequest[] memory) {\r\n        ProjectRequest[] memory allProjectRequests;\r\n        if (projectRequestsCounter == 0) return allProjectRequests;\r\n\r\n        allProjectRequests = new ProjectRequest[](projectRequestsCounter);\r\n        for (uint index = 0; index < projectsCounter; index++) {\r\n            ProjectRequest storage projectReq = projectRequests[index];\r\n            allProjectRequests[index] = projectReq;\r\n        }\r\n        return allProjectRequests;\r\n    }\r\n\r\n    function getLastProjectRequest(address _projectAddress) public view returns(ProjectRequest memory) {\r\n        ProjectRequest memory request;\r\n        if (projectRequestsCounter > 0) {\r\n            for (uint index = projectRequestsCounter - 1; index >= 0; index--) {\r\n                if (_projectAddress == projectRequests[index]._projectAddress) {\r\n                    request = ProjectRequest(\r\n                        projectRequests[index]._index,\r\n                        projectRequests[index]._title,\r\n                        projectRequests[index]._comments,\r\n                        projectRequests[index]._status,\r\n                        projectRequests[index]._requestStatus,\r\n                        projectRequests[index]._projectAddress,\r\n                        projectRequests[index]._userAddress,\r\n                        projectRequests[index]._requestAddress,\r\n                        block.timestamp,\r\n                        projectRequests[index]._signature\r\n                    );\r\n                    return request;\r\n                }\r\n            }\r\n        }\r\n        return request;\r\n    }\r\n\r\n\r\n    /**  DATA FOR SUPERVISOR && COMPANY  */\r\n\r\n    mapping(uint => Request) public requests;\r\n    uint public requestsCounter = 0;\r\n    address[] public requestsAddress;\r\n\r\n    function createRequest(\r\n        uint _indexProjectRequest,\r\n        bytes32 _title,\r\n        uint _requestStatus,\r\n        uint _projectStatus,\r\n        RequestType _requestType,\r\n        address _projectAddress,\r\n        address _requestAddress\r\n    ) internal {\r\n        requests[requestsCounter] = Request(\r\n            requestsCounter, _indexProjectRequest, _title,\r\n            RequestStatus(_requestStatus), ProjectStatus(_projectStatus),\r\n            _requestType, _projectAddress, _projectInitiator,\r\n            _requestAddress, block.timestamp, ''\r\n        );\r\n\r\n        emit RequestEvent(\r\n            requestsCounter, _indexProjectRequest, _title,\r\n            RequestStatus(_requestStatus), ProjectStatus(_projectStatus),\r\n            _requestType, _projectAddress, _projectInitiator,\r\n            _requestAddress, block.timestamp, ''\r\n        );\r\n        requestsAddress.push(_requestAddress);\r\n        requestsCounter++;\r\n    }\r\n\r\n    function updateRequest(\r\n        uint _index,\r\n        uint _indexProjectRequest,\r\n        string memory _comments,\r\n        uint _requestStatus,\r\n        uint _projectStatus,\r\n        address _projectAddress,\r\n        string memory _signature\r\n    ) public {\r\n        // Update request status in the Requests Mapping and Struct Array\r\n        requests[_index]._requestStatus = RequestStatus(_requestStatus);\r\n        requests[_index]._signature = _signature;\r\n\r\n        //uint index = requests[_index]._index;\r\n        //allRequests[index]._requestStatus = RequestStatus(_requestStatus);\r\n        //allRequests[index]._signature = _signature;\r\n\r\n        // Update project request status in the Project Requests Mapping and Struct Array\r\n        projectRequests[_indexProjectRequest]._comments = _comments;\r\n        projectRequests[_indexProjectRequest]._requestStatus = RequestStatus(_requestStatus);\r\n\r\n        // Update ProjectStatus to the requested status - Porject Mapping and Struct Array\r\n        projects[_projectAddress]._status = ProjectStatus(_projectStatus);\r\n\r\n\r\n        // !!!!! OBSERVATION\r\n        //emit changes for both project request mapping and request mapping\r\n    }\r\n\r\n    function getAllRequests() public view returns(Request[] memory) {\r\n        Request[] memory allRequests;\r\n        if (requestsCounter == 0) return allRequests;\r\n\r\n        allRequests = new Request[](requestsCounter);\r\n        for (uint index = 0; index < requestsCounter; index++) {\r\n            Request storage request = requests[index];\r\n            allRequests[index] = request;\r\n        }\r\n        return allRequests;\r\n    }\r\n}\r\n",
  "sourcePath": "/mnt/c/Users/Beniamin/source/repos/DissertationProject/contracts/ProjectChain.sol",
  "compiler": {
    "name": "solc",
    "version": "0.8.10+commit.fc410830.Emscripten.clang"
  },
  "schemaVersion": "3.4.3",
  "updatedAt": "2021-12-03T08:38:55.793Z",
  "networkType": "ethereum",
  "devdoc": {
    "kind": "dev",
    "methods": {},
    "version": 1
  },
  "userdoc": {
    "kind": "user",
    "methods": {
      "projectRequests(uint256)": {
        "notice": "Project Requests  "
      },
      "projects(address)": {
        "notice": "PROJECT INITIATOR  "
      },
      "requests(uint256)": {
        "notice": "DATA FOR SUPERVISOR && COMPANY  "
      }
    },
    "version": 1
  }
}