{
  "contractName": "Project",
  "abi": [
    {
      "inputs": [],
      "stateMutability": "nonpayable",
      "type": "constructor"
    },
    {
      "anonymous": false,
      "inputs": [
        {
          "indexed": false,
          "internalType": "uint256",
          "name": "_indexProject",
          "type": "uint256"
        },
        {
          "indexed": false,
          "internalType": "enum Project.ProjectStatus",
          "name": "_projectStatus",
          "type": "uint8"
        },
        {
          "indexed": false,
          "internalType": "address",
          "name": "_address",
          "type": "address"
        }
      ],
      "name": "CreateProject",
      "type": "event"
    },
    {
      "anonymous": false,
      "inputs": [
        {
          "indexed": false,
          "internalType": "uint256",
          "name": "_indexRequest",
          "type": "uint256"
        },
        {
          "indexed": false,
          "internalType": "enum Project.RequestStatus",
          "name": "_status",
          "type": "uint8"
        },
        {
          "components": [
            {
              "internalType": "uint256",
              "name": "index",
              "type": "uint256"
            },
            {
              "internalType": "bytes32",
              "name": "identifier",
              "type": "bytes32"
            },
            {
              "internalType": "string",
              "name": "description",
              "type": "string"
            },
            {
              "internalType": "enum Project.ProjectStatus",
              "name": "projectStatus",
              "type": "uint8"
            }
          ],
          "indexed": false,
          "internalType": "struct Project.S_Project",
          "name": "_project",
          "type": "tuple"
        },
        {
          "indexed": false,
          "internalType": "enum Project.ProjectStatus",
          "name": "_projectStatus",
          "type": "uint8"
        },
        {
          "indexed": false,
          "internalType": "address",
          "name": "_subjectAddress",
          "type": "address"
        }
      ],
      "name": "UpdateCompanyRequestStatus",
      "type": "event"
    },
    {
      "anonymous": false,
      "inputs": [
        {
          "indexed": false,
          "internalType": "uint256",
          "name": "_indexRequest",
          "type": "uint256"
        },
        {
          "indexed": false,
          "internalType": "enum Project.RequestStatus",
          "name": "_status",
          "type": "uint8"
        },
        {
          "components": [
            {
              "internalType": "uint256",
              "name": "index",
              "type": "uint256"
            },
            {
              "internalType": "bytes32",
              "name": "identifier",
              "type": "bytes32"
            },
            {
              "internalType": "string",
              "name": "description",
              "type": "string"
            },
            {
              "internalType": "enum Project.ProjectStatus",
              "name": "projectStatus",
              "type": "uint8"
            }
          ],
          "indexed": false,
          "internalType": "struct Project.S_Project",
          "name": "_project",
          "type": "tuple"
        },
        {
          "indexed": false,
          "internalType": "enum Project.ProjectStatus",
          "name": "_projectStatus",
          "type": "uint8"
        },
        {
          "indexed": false,
          "internalType": "address",
          "name": "_subjectAddress",
          "type": "address"
        }
      ],
      "name": "UpdateSupervisorRequestStatus",
      "type": "event"
    },
    {
      "anonymous": false,
      "inputs": [
        {
          "indexed": true,
          "internalType": "address",
          "name": "_address",
          "type": "address"
        },
        {
          "indexed": false,
          "internalType": "bytes32",
          "name": "_username",
          "type": "bytes32"
        }
      ],
      "name": "UserRegistered",
      "type": "event"
    },
    {
      "inputs": [
        {
          "internalType": "uint256",
          "name": "_role",
          "type": "uint256"
        },
        {
          "internalType": "address",
          "name": "_userAddress",
          "type": "address"
        }
      ],
      "name": "changeUserRole",
      "outputs": [
        {
          "internalType": "string",
          "name": "",
          "type": "string"
        }
      ],
      "stateMutability": "nonpayable",
      "type": "function"
    },
    {
      "inputs": [
        {
          "internalType": "uint256",
          "name": "",
          "type": "uint256"
        }
      ],
      "name": "companyRequests",
      "outputs": [
        {
          "internalType": "uint256",
          "name": "index",
          "type": "uint256"
        },
        {
          "internalType": "string",
          "name": "description",
          "type": "string"
        },
        {
          "internalType": "enum Project.RequestStatus",
          "name": "status",
          "type": "uint8"
        },
        {
          "components": [
            {
              "internalType": "uint256",
              "name": "index",
              "type": "uint256"
            },
            {
              "internalType": "bytes32",
              "name": "identifier",
              "type": "bytes32"
            },
            {
              "internalType": "string",
              "name": "description",
              "type": "string"
            },
            {
              "internalType": "enum Project.ProjectStatus",
              "name": "projectStatus",
              "type": "uint8"
            }
          ],
          "internalType": "struct Project.S_Project",
          "name": "project",
          "type": "tuple"
        },
        {
          "internalType": "address",
          "name": "subjectAddress",
          "type": "address"
        }
      ],
      "stateMutability": "view",
      "type": "function",
      "constant": true
    },
    {
      "inputs": [],
      "name": "getUser",
      "outputs": [
        {
          "internalType": "string",
          "name": "",
          "type": "string"
        }
      ],
      "stateMutability": "view",
      "type": "function",
      "constant": true
    },
    {
      "inputs": [
        {
          "internalType": "address",
          "name": "_userAddress",
          "type": "address"
        }
      ],
      "name": "getUserInfo",
      "outputs": [
        {
          "components": [
            {
              "internalType": "bytes32",
              "name": "username",
              "type": "bytes32"
            },
            {
              "internalType": "enum User.Roles",
              "name": "role",
              "type": "uint8"
            },
            {
              "internalType": "address",
              "name": "userAddress",
              "type": "address"
            }
          ],
          "internalType": "struct User.S_UserData",
          "name": "",
          "type": "tuple"
        }
      ],
      "stateMutability": "view",
      "type": "function",
      "constant": true
    },
    {
      "inputs": [],
      "name": "owner",
      "outputs": [
        {
          "internalType": "address",
          "name": "",
          "type": "address"
        }
      ],
      "stateMutability": "view",
      "type": "function",
      "constant": true
    },
    {
      "inputs": [
        {
          "internalType": "uint256",
          "name": "",
          "type": "uint256"
        }
      ],
      "name": "projects",
      "outputs": [
        {
          "internalType": "uint256",
          "name": "index",
          "type": "uint256"
        },
        {
          "internalType": "bytes32",
          "name": "identifier",
          "type": "bytes32"
        },
        {
          "internalType": "string",
          "name": "description",
          "type": "string"
        },
        {
          "internalType": "enum Project.ProjectStatus",
          "name": "projectStatus",
          "type": "uint8"
        }
      ],
      "stateMutability": "view",
      "type": "function",
      "constant": true
    },
    {
      "inputs": [
        {
          "internalType": "bytes32",
          "name": "_username",
          "type": "bytes32"
        },
        {
          "internalType": "uint256",
          "name": "_role",
          "type": "uint256"
        },
        {
          "internalType": "address",
          "name": "_userAddress",
          "type": "address"
        }
      ],
      "name": "registerUser",
      "outputs": [],
      "stateMutability": "nonpayable",
      "type": "function"
    },
    {
      "inputs": [
        {
          "internalType": "uint256",
          "name": "",
          "type": "uint256"
        }
      ],
      "name": "supervisorRequests",
      "outputs": [
        {
          "internalType": "uint256",
          "name": "index",
          "type": "uint256"
        },
        {
          "internalType": "string",
          "name": "description",
          "type": "string"
        },
        {
          "internalType": "enum Project.RequestStatus",
          "name": "status",
          "type": "uint8"
        },
        {
          "components": [
            {
              "internalType": "uint256",
              "name": "index",
              "type": "uint256"
            },
            {
              "internalType": "bytes32",
              "name": "identifier",
              "type": "bytes32"
            },
            {
              "internalType": "string",
              "name": "description",
              "type": "string"
            },
            {
              "internalType": "enum Project.ProjectStatus",
              "name": "projectStatus",
              "type": "uint8"
            }
          ],
          "internalType": "struct Project.S_Project",
          "name": "project",
          "type": "tuple"
        },
        {
          "internalType": "address",
          "name": "subjectAddress",
          "type": "address"
        }
      ],
      "stateMutability": "view",
      "type": "function",
      "constant": true
    },
    {
      "inputs": [
        {
          "internalType": "address",
          "name": "",
          "type": "address"
        }
      ],
      "name": "userInfo",
      "outputs": [
        {
          "internalType": "bytes32",
          "name": "username",
          "type": "bytes32"
        },
        {
          "internalType": "enum User.Roles",
          "name": "role",
          "type": "uint8"
        },
        {
          "internalType": "address",
          "name": "userAddress",
          "type": "address"
        }
      ],
      "stateMutability": "view",
      "type": "function",
      "constant": true
    },
    {
      "inputs": [
        {
          "internalType": "uint256",
          "name": "_index",
          "type": "uint256"
        },
        {
          "internalType": "string",
          "name": "_description",
          "type": "string"
        },
        {
          "internalType": "enum Project.ProjectStatus",
          "name": "_status",
          "type": "uint8"
        },
        {
          "internalType": "string",
          "name": "_hashStringValue",
          "type": "string"
        }
      ],
      "name": "createProject",
      "outputs": [],
      "stateMutability": "nonpayable",
      "type": "function"
    },
    {
      "inputs": [
        {
          "internalType": "string",
          "name": "_text",
          "type": "string"
        },
        {
          "internalType": "address",
          "name": "_addr",
          "type": "address"
        }
      ],
      "name": "createUniqueIdentifier",
      "outputs": [
        {
          "internalType": "bytes32",
          "name": "",
          "type": "bytes32"
        }
      ],
      "stateMutability": "pure",
      "type": "function",
      "constant": true
    },
    {
      "inputs": [
        {
          "internalType": "string",
          "name": "_description",
          "type": "string"
        },
        {
          "components": [
            {
              "internalType": "uint256",
              "name": "index",
              "type": "uint256"
            },
            {
              "internalType": "bytes32",
              "name": "identifier",
              "type": "bytes32"
            },
            {
              "internalType": "string",
              "name": "description",
              "type": "string"
            },
            {
              "internalType": "enum Project.ProjectStatus",
              "name": "projectStatus",
              "type": "uint8"
            }
          ],
          "internalType": "struct Project.S_Project",
          "name": "_project",
          "type": "tuple"
        },
        {
          "internalType": "address",
          "name": "_subjectAddress",
          "type": "address"
        }
      ],
      "name": "requestProjectApprovalFromSupervisor",
      "outputs": [],
      "stateMutability": "nonpayable",
      "type": "function"
    },
    {
      "inputs": [
        {
          "internalType": "string",
          "name": "_description",
          "type": "string"
        },
        {
          "components": [
            {
              "internalType": "uint256",
              "name": "index",
              "type": "uint256"
            },
            {
              "internalType": "bytes32",
              "name": "identifier",
              "type": "bytes32"
            },
            {
              "internalType": "string",
              "name": "description",
              "type": "string"
            },
            {
              "internalType": "enum Project.ProjectStatus",
              "name": "projectStatus",
              "type": "uint8"
            }
          ],
          "internalType": "struct Project.S_Project",
          "name": "_project",
          "type": "tuple"
        },
        {
          "internalType": "address",
          "name": "_subjectAddress",
          "type": "address"
        }
      ],
      "name": "requestProjectCompleteFromSupervisor",
      "outputs": [],
      "stateMutability": "nonpayable",
      "type": "function"
    },
    {
      "inputs": [
        {
          "internalType": "string",
          "name": "_description",
          "type": "string"
        },
        {
          "components": [
            {
              "internalType": "uint256",
              "name": "index",
              "type": "uint256"
            },
            {
              "internalType": "bytes32",
              "name": "identifier",
              "type": "bytes32"
            },
            {
              "internalType": "string",
              "name": "description",
              "type": "string"
            },
            {
              "internalType": "enum Project.ProjectStatus",
              "name": "projectStatus",
              "type": "uint8"
            }
          ],
          "internalType": "struct Project.S_Project",
          "name": "_project",
          "type": "tuple"
        },
        {
          "internalType": "address",
          "name": "_subjectAddress",
          "type": "address"
        }
      ],
      "name": "requestStartProjectToCompanyBuilder",
      "outputs": [],
      "stateMutability": "nonpayable",
      "type": "function"
    }
  ],
  "bytecode": "0x608060405234801561001057600080fd5b5033600160006101000a81548173ffffffffffffffffffffffffffffffffffffffff021916908373ffffffffffffffffffffffffffffffffffffffff16021790555033600260006101000a81548173ffffffffffffffffffffffffffffffffffffffff021916908373ffffffffffffffffffffffffffffffffffffffff160217905550612a59806100a26000396000f3fe608060405234801561001057600080fd5b50600436106100ea5760003560e01c80638c86a1d71161008c578063afb6da0e11610066578063afb6da0e1461028c578063b5125599146102a8578063d3bca1d5146102c4578063d40d4a80146102e0576100ea565b80638c86a1d71461020a5780638da5cb5b1461023e578063910097861461025c576100ea565b80635502fc65116100c85780635502fc65146101705780636132844f1461018c5780636386c1c7146101bc578063832880e7146101ec576100ea565b8063065ea2d3146100ef578063107046bd1461010b5780631959a0021461013e575b600080fd5b61010960048036038101906101049190611cd5565b610314565b005b61012560048036038101906101209190611d74565b61058e565b6040516101359493929190611ec8565b60405180910390f35b61015860048036038101906101539190611f72565b610653565b60405161016793929190611ff6565b60405180910390f35b61018a600480360381019061018591906120f7565b6106aa565b005b6101a660048036038101906101a19190612182565b6109eb565b6040516101b391906121de565b60405180910390f35b6101d660048036038101906101d19190611f72565b610a1e565b6040516101e39190612268565b60405180910390f35b6101f4610ba1565b6040516102019190612283565b60405180910390f35b610224600480360381019061021f9190611d74565b610c6e565b6040516102359594939291906123b8565b60405180910390f35b610246610e44565b6040516102539190612419565b60405180910390f35b61027660048036038101906102719190612434565b610e6a565b6040516102839190612283565b60405180910390f35b6102a660048036038101906102a191906120f7565b610fb5565b005b6102c260048036038101906102bd91906120f7565b6112f6565b005b6102de60048036038101906102d99190612474565b611637565b005b6102fa60048036038101906102f59190611d74565b61185b565b60405161030b9594939291906123b8565b60405180910390f35b6001600381111561032857610327611e51565b5b600080600260009054906101000a900473ffffffffffffffffffffffffffffffffffffffff1673ffffffffffffffffffffffffffffffffffffffff1673ffffffffffffffffffffffffffffffffffffffff16815260200190815260200160002060010160009054906101000a900460ff1660038111156103ab576103aa611e51565b5b146103eb576040517f08c379a00000000000000000000000000000000000000000000000000000000081526004016103e290612539565b60405180910390fd5b3373ffffffffffffffffffffffffffffffffffffffff16600260009054906101000a900473ffffffffffffffffffffffffffffffffffffffff1673ffffffffffffffffffffffffffffffffffffffff161461047b576040517f08c379a0000000000000000000000000000000000000000000000000000000008152600401610472906125a5565b60405180910390fd5b60006104888260006109eb565b9050846003600060065481526020019081526020016000206000018190555080600360006006548152602001908152602001600020600101819055508360036000600654815260200190815260200160002060020190805190602001906104f0929190611a31565b508260036000600654815260200190815260200160002060030160006101000a81548160ff0219169083600581111561052c5761052b611e51565b5b02179055507fa33c40728c332bcc45ac23baebf405684a95db2bcea19967f32f1c59384c0e88600654600080604051610567939291906125c5565b60405180910390a1600660008154809291906105829061262b565b91905055505050505050565b60036020528060005260406000206000915090508060000154908060010154908060020180546105bd906126a3565b80601f01602080910402602001604051908101604052809291908181526020018280546105e9906126a3565b80156106365780601f1061060b57610100808354040283529160200191610636565b820191906000526020600020905b81548152906001019060200180831161061957829003601f168201915b5050505050908060030160009054906101000a900460ff16905084565b60006020528060005260406000206000915090508060000154908060010160009054906101000a900460ff16908060010160019054906101000a900473ffffffffffffffffffffffffffffffffffffffff16905083565b600160038111156106be576106bd611e51565b5b600080600260009054906101000a900473ffffffffffffffffffffffffffffffffffffffff1673ffffffffffffffffffffffffffffffffffffffff1673ffffffffffffffffffffffffffffffffffffffff16815260200190815260200160002060010160009054906101000a900460ff16600381111561074157610740611e51565b5b14610781576040517f08c379a000000000000000000000000000000000000000000000000000000000815260040161077890612539565b60405180910390fd5b3373ffffffffffffffffffffffffffffffffffffffff16600260009054906101000a900473ffffffffffffffffffffffffffffffffffffffff1673ffffffffffffffffffffffffffffffffffffffff1614610811576040517f08c379a0000000000000000000000000000000000000000000000000000000008152600401610808906125a5565b60405180910390fd5b6001600581111561082557610824611e51565b5b8260600151600581111561083c5761083b611e51565b5b1461087c576040517f08c379a000000000000000000000000000000000000000000000000000000000815260040161087390612747565b60405180910390fd5b60006004600060075481526020019081526020016000209050838160010190805190602001906108ad929190611a31565b5060008160020160006101000a81548160ff021916908360018111156108d6576108d5611e51565b5b0217905550828160030160008201518160000155602082015181600101556040820151816002019080519060200190610910929190611a31565b5060608201518160030160006101000a81548160ff0219169083600581111561093c5761093b611e51565b5b0217905550905050818160070160006101000a81548173ffffffffffffffffffffffffffffffffffffffff021916908373ffffffffffffffffffffffffffffffffffffffff1602179055507f7404f36b7a730bc20c8cc7e0e75c80d8d9af6bc8bca29829d01437c8f27e64156007546000858660600151866040516109c5959493929190612767565b60405180910390a1600760008154809291906109e09061262b565b919050555050505050565b60008282604051602001610a00929190612845565b60405160208183030381529060405280519060200120905092915050565b610a26611ab7565b3373ffffffffffffffffffffffffffffffffffffffff16600160009054906101000a900473ffffffffffffffffffffffffffffffffffffffff1673ffffffffffffffffffffffffffffffffffffffff1614610ab6576040517f08c379a0000000000000000000000000000000000000000000000000000000008152600401610aad906128b9565b60405180910390fd5b6000808373ffffffffffffffffffffffffffffffffffffffff1673ffffffffffffffffffffffffffffffffffffffff168152602001908152602001600020604051806060016040529081600082015481526020016001820160009054906101000a900460ff166003811115610b2e57610b2d611e51565b5b6003811115610b4057610b3f611e51565b5b81526020016001820160019054906101000a900473ffffffffffffffffffffffffffffffffffffffff1673ffffffffffffffffffffffffffffffffffffffff1673ffffffffffffffffffffffffffffffffffffffff16815250509050919050565b60603373ffffffffffffffffffffffffffffffffffffffff16600160009054906101000a900473ffffffffffffffffffffffffffffffffffffffff1673ffffffffffffffffffffffffffffffffffffffff1614610c33576040517f08c379a0000000000000000000000000000000000000000000000000000000008152600401610c2a906128b9565b60405180910390fd5b6040518060400160405280600881526020017f42656e69616d696e000000000000000000000000000000000000000000000000815250905090565b6005602052806000526040600020600091509050806000015490806001018054610c97906126a3565b80601f0160208091040260200160405190810160405280929190818152602001828054610cc3906126a3565b8015610d105780601f10610ce557610100808354040283529160200191610d10565b820191906000526020600020905b815481529060010190602001808311610cf357829003601f168201915b5050505050908060020160009054906101000a900460ff1690806003016040518060800160405290816000820154815260200160018201548152602001600282018054610d5c906126a3565b80601f0160208091040260200160405190810160405280929190818152602001828054610d88906126a3565b8015610dd55780601f10610daa57610100808354040283529160200191610dd5565b820191906000526020600020905b815481529060010190602001808311610db857829003601f168201915b505050505081526020016003820160009054906101000a900460ff166005811115610e0357610e02611e51565b5b6005811115610e1557610e14611e51565b5b81525050908060070160009054906101000a900473ffffffffffffffffffffffffffffffffffffffff16905085565b600160009054906101000a900473ffffffffffffffffffffffffffffffffffffffff1681565b60603373ffffffffffffffffffffffffffffffffffffffff16600160009054906101000a900473ffffffffffffffffffffffffffffffffffffffff1673ffffffffffffffffffffffffffffffffffffffff1614610efc576040517f08c379a0000000000000000000000000000000000000000000000000000000008152600401610ef3906128b9565b60405180910390fd5b826003811115610f0f57610f0e611e51565b5b6000808473ffffffffffffffffffffffffffffffffffffffff1673ffffffffffffffffffffffffffffffffffffffff16815260200190815260200160002060010160006101000a81548160ff02191690836003811115610f7257610f71611e51565b5b02179055506040518060400160405280600d81526020017f526f6c6520557064617465642100000000000000000000000000000000000000815250905092915050565b60016003811115610fc957610fc8611e51565b5b600080600260009054906101000a900473ffffffffffffffffffffffffffffffffffffffff1673ffffffffffffffffffffffffffffffffffffffff1673ffffffffffffffffffffffffffffffffffffffff16815260200190815260200160002060010160009054906101000a900460ff16600381111561104c5761104b611e51565b5b1461108c576040517f08c379a000000000000000000000000000000000000000000000000000000000815260040161108390612539565b60405180910390fd5b3373ffffffffffffffffffffffffffffffffffffffff16600260009054906101000a900473ffffffffffffffffffffffffffffffffffffffff1673ffffffffffffffffffffffffffffffffffffffff161461111c576040517f08c379a0000000000000000000000000000000000000000000000000000000008152600401611113906125a5565b60405180910390fd5b600060058111156111305761112f611e51565b5b8260600151600581111561114757611146611e51565b5b14611187576040517f08c379a000000000000000000000000000000000000000000000000000000000815260040161117e9061294b565b60405180910390fd5b60006005600060085481526020019081526020016000209050838160010190805190602001906111b8929190611a31565b5060008160020160006101000a81548160ff021916908360018111156111e1576111e0611e51565b5b021790555082816003016000820151816000015560208201518160010155604082015181600201908051906020019061121b929190611a31565b5060608201518160030160006101000a81548160ff0219169083600581111561124757611246611e51565b5b0217905550905050818160070160006101000a81548173ffffffffffffffffffffffffffffffffffffffff021916908373ffffffffffffffffffffffffffffffffffffffff1602179055507fea116f66bfca993e06ec3531e54d6fdd056bed479a873a351b5ff4c23124595b6008546000858660600151866040516112d0959493929190612767565b60405180910390a1600860008154809291906112eb9061262b565b919050555050505050565b6001600381111561130a57611309611e51565b5b600080600260009054906101000a900473ffffffffffffffffffffffffffffffffffffffff1673ffffffffffffffffffffffffffffffffffffffff1673ffffffffffffffffffffffffffffffffffffffff16815260200190815260200160002060010160009054906101000a900460ff16600381111561138d5761138c611e51565b5b146113cd576040517f08c379a00000000000000000000000000000000000000000000000000000000081526004016113c490612539565b60405180910390fd5b3373ffffffffffffffffffffffffffffffffffffffff16600260009054906101000a900473ffffffffffffffffffffffffffffffffffffffff1673ffffffffffffffffffffffffffffffffffffffff161461145d576040517f08c379a0000000000000000000000000000000000000000000000000000000008152600401611454906125a5565b60405180910390fd5b6004600581111561147157611470611e51565b5b8260600151600581111561148857611487611e51565b5b146114c8576040517f08c379a00000000000000000000000000000000000000000000000000000000081526004016114bf90612a03565b60405180910390fd5b60006005600060085481526020019081526020016000209050838160010190805190602001906114f9929190611a31565b5060008160020160006101000a81548160ff0219169083600181111561152257611521611e51565b5b021790555082816003016000820151816000015560208201518160010155604082015181600201908051906020019061155c929190611a31565b5060608201518160030160006101000a81548160ff0219169083600581111561158857611587611e51565b5b0217905550905050818160070160006101000a81548173ffffffffffffffffffffffffffffffffffffffff021916908373ffffffffffffffffffffffffffffffffffffffff1602179055507fea116f66bfca993e06ec3531e54d6fdd056bed479a873a351b5ff4c23124595b600854600085866060015186604051611611959493929190612767565b60405180910390a16008600081548092919061162c9061262b565b919050555050505050565b3373ffffffffffffffffffffffffffffffffffffffff16600160009054906101000a900473ffffffffffffffffffffffffffffffffffffffff1673ffffffffffffffffffffffffffffffffffffffff16146116c7576040517f08c379a00000000000000000000000000000000000000000000000000000000081526004016116be906128b9565b60405180910390fd5b826000808373ffffffffffffffffffffffffffffffffffffffff1673ffffffffffffffffffffffffffffffffffffffff168152602001908152602001600020600001819055508160038111156117205761171f611e51565b5b6000808373ffffffffffffffffffffffffffffffffffffffff1673ffffffffffffffffffffffffffffffffffffffff16815260200190815260200160002060010160006101000a81548160ff0219169083600381111561178357611782611e51565b5b0217905550806000808373ffffffffffffffffffffffffffffffffffffffff1673ffffffffffffffffffffffffffffffffffffffff16815260200190815260200160002060010160016101000a81548173ffffffffffffffffffffffffffffffffffffffff021916908373ffffffffffffffffffffffffffffffffffffffff1602179055508073ffffffffffffffffffffffffffffffffffffffff167f4c5d15f5779ae1ecd7d55bd3283d898e29c35743d172bd7b83a16e17bc0afe2a8460405161184e91906121de565b60405180910390a2505050565b6004602052806000526040600020600091509050806000015490806001018054611884906126a3565b80601f01602080910402602001604051908101604052809291908181526020018280546118b0906126a3565b80156118fd5780601f106118d2576101008083540402835291602001916118fd565b820191906000526020600020905b8154815290600101906020018083116118e057829003601f168201915b5050505050908060020160009054906101000a900460ff1690806003016040518060800160405290816000820154815260200160018201548152602001600282018054611949906126a3565b80601f0160208091040260200160405190810160405280929190818152602001828054611975906126a3565b80156119c25780601f10611997576101008083540402835291602001916119c2565b820191906000526020600020905b8154815290600101906020018083116119a557829003601f168201915b505050505081526020016003820160009054906101000a900460ff1660058111156119f0576119ef611e51565b5b6005811115611a0257611a01611e51565b5b81525050908060070160009054906101000a900473ffffffffffffffffffffffffffffffffffffffff16905085565b828054611a3d906126a3565b90600052602060002090601f016020900481019282611a5f5760008555611aa6565b82601f10611a7857805160ff1916838001178555611aa6565b82800160010185558215611aa6579182015b82811115611aa5578251825591602001919060010190611a8a565b5b509050611ab39190611b03565b5090565b60405180606001604052806000801916815260200160006003811115611ae057611adf611e51565b5b8152602001600073ffffffffffffffffffffffffffffffffffffffff1681525090565b5b80821115611b1c576000816000905550600101611b04565b5090565b6000604051905090565b600080fd5b600080fd5b6000819050919050565b611b4781611b34565b8114611b5257600080fd5b50565b600081359050611b6481611b3e565b92915050565b600080fd5b600080fd5b6000601f19601f8301169050919050565b7f4e487b7100000000000000000000000000000000000000000000000000000000600052604160045260246000fd5b611bbd82611b74565b810181811067ffffffffffffffff82111715611bdc57611bdb611b85565b5b80604052505050565b6000611bef611b20565b9050611bfb8282611bb4565b919050565b600067ffffffffffffffff821115611c1b57611c1a611b85565b5b611c2482611b74565b9050602081019050919050565b82818337600083830152505050565b6000611c53611c4e84611c00565b611be5565b905082815260208101848484011115611c6f57611c6e611b6f565b5b611c7a848285611c31565b509392505050565b600082601f830112611c9757611c96611b6a565b5b8135611ca7848260208601611c40565b91505092915050565b60068110611cbd57600080fd5b50565b600081359050611ccf81611cb0565b92915050565b60008060008060808587031215611cef57611cee611b2a565b5b6000611cfd87828801611b55565b945050602085013567ffffffffffffffff811115611d1e57611d1d611b2f565b5b611d2a87828801611c82565b9350506040611d3b87828801611cc0565b925050606085013567ffffffffffffffff811115611d5c57611d5b611b2f565b5b611d6887828801611c82565b91505092959194509250565b600060208284031215611d8a57611d89611b2a565b5b6000611d9884828501611b55565b91505092915050565b611daa81611b34565b82525050565b6000819050919050565b611dc381611db0565b82525050565b600081519050919050565b600082825260208201905092915050565b60005b83811015611e03578082015181840152602081019050611de8565b83811115611e12576000848401525b50505050565b6000611e2382611dc9565b611e2d8185611dd4565b9350611e3d818560208601611de5565b611e4681611b74565b840191505092915050565b7f4e487b7100000000000000000000000000000000000000000000000000000000600052602160045260246000fd5b60068110611e9157611e90611e51565b5b50565b6000819050611ea282611e80565b919050565b6000611eb282611e94565b9050919050565b611ec281611ea7565b82525050565b6000608082019050611edd6000830187611da1565b611eea6020830186611dba565b8181036040830152611efc8185611e18565b9050611f0b6060830184611eb9565b95945050505050565b600073ffffffffffffffffffffffffffffffffffffffff82169050919050565b6000611f3f82611f14565b9050919050565b611f4f81611f34565b8114611f5a57600080fd5b50565b600081359050611f6c81611f46565b92915050565b600060208284031215611f8857611f87611b2a565b5b6000611f9684828501611f5d565b91505092915050565b60048110611fb057611faf611e51565b5b50565b6000819050611fc182611f9f565b919050565b6000611fd182611fb3565b9050919050565b611fe181611fc6565b82525050565b611ff081611f34565b82525050565b600060608201905061200b6000830186611dba565b6120186020830185611fd8565b6120256040830184611fe7565b949350505050565b600080fd5b600080fd5b61204081611db0565b811461204b57600080fd5b50565b60008135905061205d81612037565b92915050565b6000608082840312156120795761207861202d565b5b6120836080611be5565b9050600061209384828501611b55565b60008301525060206120a78482850161204e565b602083015250604082013567ffffffffffffffff8111156120cb576120ca612032565b5b6120d784828501611c82565b60408301525060606120eb84828501611cc0565b60608301525092915050565b6000806000606084860312156121105761210f611b2a565b5b600084013567ffffffffffffffff81111561212e5761212d611b2f565b5b61213a86828701611c82565b935050602084013567ffffffffffffffff81111561215b5761215a611b2f565b5b61216786828701612063565b925050604061217886828701611f5d565b9150509250925092565b6000806040838503121561219957612198611b2a565b5b600083013567ffffffffffffffff8111156121b7576121b6611b2f565b5b6121c385828601611c82565b92505060206121d485828601611f5d565b9150509250929050565b60006020820190506121f36000830184611dba565b92915050565b61220281611db0565b82525050565b61221181611fc6565b82525050565b61222081611f34565b82525050565b60608201600082015161223c60008501826121f9565b50602082015161224f6020850182612208565b5060408201516122626040850182612217565b50505050565b600060608201905061227d6000830184612226565b92915050565b6000602082019050818103600083015261229d8184611e18565b905092915050565b600281106122b6576122b5611e51565b5b50565b60008190506122c7826122a5565b919050565b60006122d7826122b9565b9050919050565b6122e7816122cc565b82525050565b6122f681611b34565b82525050565b600082825260208201905092915050565b600061231882611dc9565b61232281856122fc565b9350612332818560208601611de5565b61233b81611b74565b840191505092915050565b61234f81611ea7565b82525050565b600060808301600083015161236d60008601826122ed565b50602083015161238060208601826121f9565b5060408301518482036040860152612398828261230d565b91505060608301516123ad6060860182612346565b508091505092915050565b600060a0820190506123cd6000830188611da1565b81810360208301526123df8187611e18565b90506123ee60408301866122de565b81810360608301526124008185612355565b905061240f6080830184611fe7565b9695505050505050565b600060208201905061242e6000830184611fe7565b92915050565b6000806040838503121561244b5761244a611b2a565b5b600061245985828601611b55565b925050602061246a85828601611f5d565b9150509250929050565b60008060006060848603121561248d5761248c611b2a565b5b600061249b8682870161204e565b93505060206124ac86828701611b55565b92505060406124bd86828701611f5d565b9150509250925092565b7f596f7520646f6e27742068617665207468652072696768747320666f7220746860008201527f6973207265736f75726365732e00000000000000000000000000000000000000602082015250565b6000612523602d83611dd4565b915061252e826124c7565b604082019050919050565b6000602082019050818103600083015261255281612516565b9050919050565b7f596f7520617265206e6f7420612070726f6a65637420696e69746961746f7200600082015250565b600061258f601f83611dd4565b915061259a82612559565b602082019050919050565b600060208201905081810360008301526125be81612582565b9050919050565b60006060820190506125da6000830186611da1565b6125e76020830185611eb9565b6125f46040830184611fe7565b949350505050565b7f4e487b7100000000000000000000000000000000000000000000000000000000600052601160045260246000fd5b600061263682611b34565b91507fffffffffffffffffffffffffffffffffffffffffffffffffffffffffffffffff821415612669576126686125fc565b5b600182019050919050565b7f4e487b7100000000000000000000000000000000000000000000000000000000600052602260045260246000fd5b600060028204905060018216806126bb57607f821691505b602082108114156126cf576126ce612674565b5b50919050565b7f5468652070726f6a656374206973206e6f7420617070726f7665642c2074686560008201527f206f7065726174696f6e2063616e6e6f7420626520646f6e652e000000000000602082015250565b6000612731603a83611dd4565b915061273c826126d5565b604082019050919050565b6000602082019050818103600083015261276081612724565b9050919050565b600060a08201905061277c6000830188611da1565b61278960208301876122de565b818103604083015261279b8186612355565b90506127aa6060830185611eb9565b6127b76080830184611fe7565b9695505050505050565b600081905092915050565b60006127d782611dc9565b6127e181856127c1565b93506127f1818560208601611de5565b80840191505092915050565b60008160601b9050919050565b6000612815826127fd565b9050919050565b60006128278261280a565b9050919050565b61283f61283a82611f34565b61281c565b82525050565b600061285182856127cc565b915061285d828461282e565b6014820191508190509392505050565b7f596f7520617265206e6f7420616e206f776e6572000000000000000000000000600082015250565b60006128a3601483611dd4565b91506128ae8261286d565b602082019050919050565b600060208201905081810360008301526128d281612896565b9050919050565b7f5468652070726f6a656374206973206e6f7420637265617465642c207468652060008201527f6f7065726174696f6e2063616e6e6f7420626520646f6e652e00000000000000602082015250565b6000612935603983611dd4565b9150612940826128d9565b604082019050919050565b6000602082019050818103600083015261296481612928565b9050919050565b7f5468652070726f6a656374206973206e6f7420696e2074686520274265666f7260008201527f6546696e616c697a6174696f6e436865636b27207374617475732c207468652060208201527f6f7065726174696f6e2063616e6e6f7420626520646f6e652e00000000000000604082015250565b60006129ed605983611dd4565b91506129f88261296b565b606082019050919050565b60006020820190508181036000830152612a1c816129e0565b905091905056fea2646970667358221220c12b594f813a78eaa025907141f9871570bfb91535ea3915da564a72e237e7c564736f6c63430008090033",
  "immutableReferences": {},
  "source": "// SPDX-License-Identifier: MIT\r\npragma solidity >=0.8.0 <0.9.0;\r\n\r\nimport \"./User.sol\";\r\n\r\ncontract Project is User {\r\n\r\n    address projectInitiator;\r\n\r\n    mapping(uint => S_Project) public projects;\r\n    mapping(uint => S_Request) public companyRequests;\r\n    mapping(uint => S_Request) public supervisorRequests;\r\n\r\n    uint indexProject;\r\n    uint indexCompanyRequest;\r\n    uint indexSupervisorRequest;\r\n\r\n    struct S_Project {\r\n        uint index;\r\n        bytes32 identifier;\r\n        string description;\r\n        ProjectStatus projectStatus;\r\n    }\r\n\r\n    struct S_Request {\r\n        uint index;\r\n        string description;\r\n        RequestStatus status;\r\n        S_Project project;\r\n        address subjectAddress;\r\n    }\r\n\r\n    enum RequestStatus { Unverified, Verified }\r\n    enum ProjectStatus { Created, Approved, Rejected, OnGoing, BeforeFinalizationCheck, Completed }\r\n\r\n    event CreateProject(uint _indexProject, Project.ProjectStatus _projectStatus, address _address);\r\n    event UpdateSupervisorRequestStatus(uint _indexRequest, RequestStatus _status, S_Project _project, ProjectStatus _projectStatus, address _subjectAddress);\r\n    event UpdateCompanyRequestStatus(uint _indexRequest, RequestStatus _status, S_Project _project, ProjectStatus _projectStatus, address _subjectAddress);\r\n\r\n    constructor() {\r\n        projectInitiator = msg.sender;\r\n    }\r\n\r\n    modifier onlyProjectInitiator {\r\n        require(userInfo[projectInitiator].role == Roles.ProjectInitiator, \"You don't have the rights for this resources.\");\r\n        require(projectInitiator == msg.sender, \"You are not a project initiator\");\r\n        _;\r\n    }\r\n\r\n    function createProject(uint _index, string memory _description, ProjectStatus _status, string memory _hashStringValue) public onlyProjectInitiator {\r\n        bytes32 _identifier = createUniqueIdentifier(_hashStringValue, address(0));\r\n\r\n        projects[indexProject].index = _index;\r\n        projects[indexProject].identifier = _identifier;\r\n        projects[indexProject].description = _description;\r\n        projects[indexProject].projectStatus = _status;\r\n        emit CreateProject(indexProject, ProjectStatus.Created, address(0));\r\n        indexProject++;\r\n    }\r\n\r\n    function createUniqueIdentifier(string memory _text, address _addr) public pure returns (bytes32)  {\r\n        return keccak256(abi.encodePacked(_text, _addr));\r\n    }\r\n\r\n    function requestProjectApprovalFromSupervisor(string memory _description, S_Project memory _project, address _subjectAddress) public onlyProjectInitiator {\r\n        require(_project.projectStatus == ProjectStatus.Created, \"The project is not created, the operation cannot be done.\");\r\n\r\n        S_Request storage request = supervisorRequests[indexSupervisorRequest];\r\n        request.description = _description;\r\n        request.status = RequestStatus.Unverified;\r\n        request.project = _project;\r\n        request.subjectAddress = _subjectAddress;\r\n\r\n        emit UpdateSupervisorRequestStatus(indexSupervisorRequest, RequestStatus.Unverified, _project, _project.projectStatus, _subjectAddress);\r\n        indexSupervisorRequest++;\r\n    }\r\n\r\n    function requestProjectCompleteFromSupervisor(string memory _description, S_Project memory _project, address _subjectAddress) public onlyProjectInitiator {\r\n        require(\r\n            _project.projectStatus == ProjectStatus.BeforeFinalizationCheck,\r\n            \"The project is not in the 'BeforeFinalizationCheck' status, the operation cannot be done.\"\r\n        );\r\n\r\n        S_Request storage request = supervisorRequests[indexSupervisorRequest];\r\n        request.description = _description;\r\n        request.status = RequestStatus.Unverified;\r\n        request.project = _project;\r\n        request.subjectAddress = _subjectAddress;\r\n\r\n        emit UpdateSupervisorRequestStatus(indexSupervisorRequest, RequestStatus.Unverified, _project, _project.projectStatus, _subjectAddress);\r\n        indexSupervisorRequest++;\r\n    }\r\n\r\n    function requestStartProjectToCompanyBuilder(string memory _description, S_Project memory _project, address _subjectAddress) public onlyProjectInitiator {\r\n        require(_project.projectStatus == ProjectStatus.Approved, \"The project is not approved, the operation cannot be done.\");\r\n\r\n        S_Request storage request = companyRequests[indexCompanyRequest];\r\n        request.description = _description;\r\n        request.status = RequestStatus.Unverified;\r\n        request.project = _project;\r\n        request.subjectAddress = _subjectAddress;\r\n\r\n        emit UpdateCompanyRequestStatus(indexCompanyRequest, RequestStatus.Unverified, _project, _project.projectStatus, _subjectAddress);\r\n        indexCompanyRequest++;\r\n    }\r\n}",
  "sourcePath": "/mnt/c/users/beniamin/source/repos/dissertationproject/contracts/Project.sol",
  "compiler": {
    "name": "solc",
    "version": "0.8.9+commit.e5eed63a.Emscripten.clang"
  },
  "schemaVersion": "3.4.3",
  "updatedAt": "2021-10-27T09:36:50.461Z",
  "networkType": "ethereum",
  "devdoc": {
    "kind": "dev",
    "methods": {},
    "version": 1
  },
  "userdoc": {
    "kind": "user",
    "methods": {},
    "version": 1
  }
}