{
  "contractName": "ProjectChain",
  "abi": [
    {
      "inputs": [],
      "stateMutability": "nonpayable",
      "type": "constructor"
    },
    {
      "anonymous": false,
      "inputs": [
        {
          "components": [
            {
              "internalType": "uint256",
              "name": "_index",
              "type": "uint256"
            },
            {
              "internalType": "string",
              "name": "_name",
              "type": "string"
            },
            {
              "internalType": "enum SharedChain.ProjectStatus",
              "name": "_status",
              "type": "uint8"
            },
            {
              "internalType": "string",
              "name": "_ipfsFileCID",
              "type": "string"
            },
            {
              "internalType": "address",
              "name": "_projectAddress",
              "type": "address"
            },
            {
              "internalType": "address",
              "name": "_signerAddress",
              "type": "address"
            },
            {
              "internalType": "address",
              "name": "_companyAddress",
              "type": "address"
            },
            {
              "internalType": "bool",
              "name": "_assigned",
              "type": "bool"
            },
            {
              "internalType": "uint256",
              "name": "_timestamp",
              "type": "uint256"
            },
            {
              "internalType": "string",
              "name": "_signature",
              "type": "string"
            }
          ],
          "indexed": false,
          "internalType": "struct SharedChain.Project",
          "name": "_project",
          "type": "tuple"
        },
        {
          "indexed": true,
          "internalType": "address",
          "name": "_projectAddress",
          "type": "address"
        },
        {
          "indexed": true,
          "internalType": "address",
          "name": "_companyAddress",
          "type": "address"
        }
      ],
      "name": "ProjectEvent",
      "type": "event"
    },
    {
      "anonymous": false,
      "inputs": [
        {
          "components": [
            {
              "internalType": "uint256",
              "name": "_index",
              "type": "uint256"
            },
            {
              "internalType": "string",
              "name": "_title",
              "type": "string"
            },
            {
              "internalType": "string",
              "name": "_comments",
              "type": "string"
            },
            {
              "internalType": "enum SharedChain.ProjectStatus",
              "name": "_projectStatus",
              "type": "uint8"
            },
            {
              "internalType": "enum SharedChain.RequestStatus",
              "name": "_requestStatus",
              "type": "uint8"
            },
            {
              "internalType": "enum SharedChain.RequestType",
              "name": "_requestType",
              "type": "uint8"
            },
            {
              "internalType": "address",
              "name": "_projectAddress",
              "type": "address"
            },
            {
              "internalType": "address",
              "name": "_requestAddress",
              "type": "address"
            },
            {
              "internalType": "address",
              "name": "_signerAddress",
              "type": "address"
            },
            {
              "internalType": "uint256",
              "name": "_timestamp",
              "type": "uint256"
            },
            {
              "internalType": "string",
              "name": "_signature",
              "type": "string"
            }
          ],
          "indexed": false,
          "internalType": "struct SharedChain.Request",
          "name": "_request",
          "type": "tuple"
        },
        {
          "indexed": true,
          "internalType": "address",
          "name": "_requestAddress",
          "type": "address"
        },
        {
          "indexed": true,
          "internalType": "address",
          "name": "_projectAddress",
          "type": "address"
        }
      ],
      "name": "RequestEvent",
      "type": "event"
    },
    {
      "anonymous": false,
      "inputs": [
        {
          "components": [
            {
              "internalType": "bytes32",
              "name": "_firstname",
              "type": "bytes32"
            },
            {
              "internalType": "bytes32",
              "name": "_lastname",
              "type": "bytes32"
            },
            {
              "internalType": "enum SharedChain.Roles",
              "name": "_role",
              "type": "uint8"
            },
            {
              "internalType": "address",
              "name": "_walletAddress",
              "type": "address"
            },
            {
              "internalType": "uint256",
              "name": "_timestamp",
              "type": "uint256"
            }
          ],
          "indexed": false,
          "internalType": "struct SharedChain.User",
          "name": "_user",
          "type": "tuple"
        },
        {
          "indexed": true,
          "internalType": "address",
          "name": "_walletAddress",
          "type": "address"
        }
      ],
      "name": "UserEvent",
      "type": "event"
    },
    {
      "inputs": [
        {
          "internalType": "uint256",
          "name": "_role",
          "type": "uint256"
        },
        {
          "internalType": "address",
          "name": "_walletAddress",
          "type": "address"
        }
      ],
      "name": "changeUserRole",
      "outputs": [],
      "stateMutability": "nonpayable",
      "type": "function"
    },
    {
      "inputs": [],
      "name": "getAllUsers",
      "outputs": [
        {
          "components": [
            {
              "internalType": "bytes32",
              "name": "_firstname",
              "type": "bytes32"
            },
            {
              "internalType": "bytes32",
              "name": "_lastname",
              "type": "bytes32"
            },
            {
              "internalType": "enum SharedChain.Roles",
              "name": "_role",
              "type": "uint8"
            },
            {
              "internalType": "address",
              "name": "_walletAddress",
              "type": "address"
            },
            {
              "internalType": "uint256",
              "name": "_timestamp",
              "type": "uint256"
            }
          ],
          "internalType": "struct SharedChain.User[]",
          "name": "",
          "type": "tuple[]"
        }
      ],
      "stateMutability": "view",
      "type": "function",
      "constant": true
    },
    {
      "inputs": [
        {
          "internalType": "address",
          "name": "_walletAddress",
          "type": "address"
        }
      ],
      "name": "getUserInfo",
      "outputs": [
        {
          "components": [
            {
              "internalType": "bytes32",
              "name": "_firstname",
              "type": "bytes32"
            },
            {
              "internalType": "bytes32",
              "name": "_lastname",
              "type": "bytes32"
            },
            {
              "internalType": "enum SharedChain.Roles",
              "name": "_role",
              "type": "uint8"
            },
            {
              "internalType": "address",
              "name": "_walletAddress",
              "type": "address"
            },
            {
              "internalType": "uint256",
              "name": "_timestamp",
              "type": "uint256"
            }
          ],
          "internalType": "struct SharedChain.User",
          "name": "",
          "type": "tuple"
        }
      ],
      "stateMutability": "view",
      "type": "function",
      "constant": true
    },
    {
      "inputs": [
        {
          "internalType": "address",
          "name": "",
          "type": "address"
        }
      ],
      "name": "projects",
      "outputs": [
        {
          "internalType": "uint256",
          "name": "_index",
          "type": "uint256"
        },
        {
          "internalType": "string",
          "name": "_name",
          "type": "string"
        },
        {
          "internalType": "enum SharedChain.ProjectStatus",
          "name": "_status",
          "type": "uint8"
        },
        {
          "internalType": "string",
          "name": "_ipfsFileCID",
          "type": "string"
        },
        {
          "internalType": "address",
          "name": "_projectAddress",
          "type": "address"
        },
        {
          "internalType": "address",
          "name": "_signerAddress",
          "type": "address"
        },
        {
          "internalType": "address",
          "name": "_companyAddress",
          "type": "address"
        },
        {
          "internalType": "bool",
          "name": "_assigned",
          "type": "bool"
        },
        {
          "internalType": "uint256",
          "name": "_timestamp",
          "type": "uint256"
        },
        {
          "internalType": "string",
          "name": "_signature",
          "type": "string"
        }
      ],
      "stateMutability": "view",
      "type": "function",
      "constant": true
    },
    {
      "inputs": [
        {
          "internalType": "uint256",
          "name": "",
          "type": "uint256"
        }
      ],
      "name": "projectsAddress",
      "outputs": [
        {
          "internalType": "address",
          "name": "",
          "type": "address"
        }
      ],
      "stateMutability": "view",
      "type": "function",
      "constant": true
    },
    {
      "inputs": [],
      "name": "projectsCounter",
      "outputs": [
        {
          "internalType": "uint256",
          "name": "",
          "type": "uint256"
        }
      ],
      "stateMutability": "view",
      "type": "function",
      "constant": true
    },
    {
      "inputs": [
        {
          "internalType": "bytes32",
          "name": "_firstname",
          "type": "bytes32"
        },
        {
          "internalType": "bytes32",
          "name": "_lastname",
          "type": "bytes32"
        },
        {
          "internalType": "uint256",
          "name": "_role",
          "type": "uint256"
        },
        {
          "internalType": "address",
          "name": "_walletAddress",
          "type": "address"
        }
      ],
      "name": "registerUser",
      "outputs": [],
      "stateMutability": "nonpayable",
      "type": "function"
    },
    {
      "inputs": [
        {
          "internalType": "address",
          "name": "",
          "type": "address"
        }
      ],
      "name": "requests",
      "outputs": [
        {
          "internalType": "uint256",
          "name": "_index",
          "type": "uint256"
        },
        {
          "internalType": "string",
          "name": "_title",
          "type": "string"
        },
        {
          "internalType": "string",
          "name": "_comments",
          "type": "string"
        },
        {
          "internalType": "enum SharedChain.ProjectStatus",
          "name": "_projectStatus",
          "type": "uint8"
        },
        {
          "internalType": "enum SharedChain.RequestStatus",
          "name": "_requestStatus",
          "type": "uint8"
        },
        {
          "internalType": "enum SharedChain.RequestType",
          "name": "_requestType",
          "type": "uint8"
        },
        {
          "internalType": "address",
          "name": "_projectAddress",
          "type": "address"
        },
        {
          "internalType": "address",
          "name": "_requestAddress",
          "type": "address"
        },
        {
          "internalType": "address",
          "name": "_signerAddress",
          "type": "address"
        },
        {
          "internalType": "uint256",
          "name": "_timestamp",
          "type": "uint256"
        },
        {
          "internalType": "string",
          "name": "_signature",
          "type": "string"
        }
      ],
      "stateMutability": "view",
      "type": "function",
      "constant": true
    },
    {
      "inputs": [
        {
          "internalType": "uint256",
          "name": "",
          "type": "uint256"
        }
      ],
      "name": "requestsAddress",
      "outputs": [
        {
          "internalType": "address",
          "name": "",
          "type": "address"
        }
      ],
      "stateMutability": "view",
      "type": "function",
      "constant": true
    },
    {
      "inputs": [],
      "name": "requestsCounter",
      "outputs": [
        {
          "internalType": "uint256",
          "name": "",
          "type": "uint256"
        }
      ],
      "stateMutability": "view",
      "type": "function",
      "constant": true
    },
    {
      "inputs": [
        {
          "internalType": "address",
          "name": "",
          "type": "address"
        }
      ],
      "name": "users",
      "outputs": [
        {
          "internalType": "bytes32",
          "name": "_firstname",
          "type": "bytes32"
        },
        {
          "internalType": "bytes32",
          "name": "_lastname",
          "type": "bytes32"
        },
        {
          "internalType": "enum SharedChain.Roles",
          "name": "_role",
          "type": "uint8"
        },
        {
          "internalType": "address",
          "name": "_walletAddress",
          "type": "address"
        },
        {
          "internalType": "uint256",
          "name": "_timestamp",
          "type": "uint256"
        }
      ],
      "stateMutability": "view",
      "type": "function",
      "constant": true
    },
    {
      "inputs": [],
      "name": "usersCounter",
      "outputs": [
        {
          "internalType": "uint256",
          "name": "",
          "type": "uint256"
        }
      ],
      "stateMutability": "view",
      "type": "function",
      "constant": true
    },
    {
      "inputs": [
        {
          "internalType": "string",
          "name": "_name",
          "type": "string"
        },
        {
          "internalType": "uint256",
          "name": "_index",
          "type": "uint256"
        }
      ],
      "name": "createUniqueProjectAddress",
      "outputs": [
        {
          "internalType": "address",
          "name": "",
          "type": "address"
        }
      ],
      "stateMutability": "view",
      "type": "function",
      "constant": true
    },
    {
      "inputs": [
        {
          "internalType": "address",
          "name": "_projectAddress",
          "type": "address"
        },
        {
          "internalType": "string",
          "name": "_name",
          "type": "string"
        },
        {
          "internalType": "uint256",
          "name": "_status",
          "type": "uint256"
        },
        {
          "internalType": "string",
          "name": "_ipfsFileCID",
          "type": "string"
        },
        {
          "internalType": "string",
          "name": "_signature",
          "type": "string"
        }
      ],
      "name": "createProject",
      "outputs": [],
      "stateMutability": "nonpayable",
      "type": "function"
    },
    {
      "inputs": [
        {
          "internalType": "address",
          "name": "_projectAddress",
          "type": "address"
        },
        {
          "internalType": "string",
          "name": "_ipfsFileCID",
          "type": "string"
        },
        {
          "internalType": "string",
          "name": "_signature",
          "type": "string"
        }
      ],
      "name": "updateProject",
      "outputs": [],
      "stateMutability": "nonpayable",
      "type": "function"
    },
    {
      "inputs": [
        {
          "internalType": "address",
          "name": "_address",
          "type": "address"
        }
      ],
      "name": "getProjectInfo",
      "outputs": [
        {
          "components": [
            {
              "internalType": "uint256",
              "name": "_index",
              "type": "uint256"
            },
            {
              "internalType": "string",
              "name": "_name",
              "type": "string"
            },
            {
              "internalType": "enum SharedChain.ProjectStatus",
              "name": "_status",
              "type": "uint8"
            },
            {
              "internalType": "string",
              "name": "_ipfsFileCID",
              "type": "string"
            },
            {
              "internalType": "address",
              "name": "_projectAddress",
              "type": "address"
            },
            {
              "internalType": "address",
              "name": "_signerAddress",
              "type": "address"
            },
            {
              "internalType": "address",
              "name": "_companyAddress",
              "type": "address"
            },
            {
              "internalType": "bool",
              "name": "_assigned",
              "type": "bool"
            },
            {
              "internalType": "uint256",
              "name": "_timestamp",
              "type": "uint256"
            },
            {
              "internalType": "string",
              "name": "_signature",
              "type": "string"
            }
          ],
          "internalType": "struct SharedChain.Project",
          "name": "",
          "type": "tuple"
        }
      ],
      "stateMutability": "view",
      "type": "function",
      "constant": true
    },
    {
      "inputs": [
        {
          "internalType": "address",
          "name": "_walletAddress",
          "type": "address"
        }
      ],
      "name": "getProjectsByUser",
      "outputs": [
        {
          "components": [
            {
              "internalType": "uint256",
              "name": "_index",
              "type": "uint256"
            },
            {
              "internalType": "string",
              "name": "_name",
              "type": "string"
            },
            {
              "internalType": "enum SharedChain.ProjectStatus",
              "name": "_status",
              "type": "uint8"
            },
            {
              "internalType": "string",
              "name": "_ipfsFileCID",
              "type": "string"
            },
            {
              "internalType": "address",
              "name": "_projectAddress",
              "type": "address"
            },
            {
              "internalType": "address",
              "name": "_signerAddress",
              "type": "address"
            },
            {
              "internalType": "address",
              "name": "_companyAddress",
              "type": "address"
            },
            {
              "internalType": "bool",
              "name": "_assigned",
              "type": "bool"
            },
            {
              "internalType": "uint256",
              "name": "_timestamp",
              "type": "uint256"
            },
            {
              "internalType": "string",
              "name": "_signature",
              "type": "string"
            }
          ],
          "internalType": "struct SharedChain.Project[]",
          "name": "",
          "type": "tuple[]"
        }
      ],
      "stateMutability": "view",
      "type": "function",
      "constant": true
    },
    {
      "inputs": [
        {
          "internalType": "address",
          "name": "_companyAddress",
          "type": "address"
        }
      ],
      "name": "getProjectsByCompany",
      "outputs": [
        {
          "components": [
            {
              "internalType": "uint256",
              "name": "_index",
              "type": "uint256"
            },
            {
              "internalType": "string",
              "name": "_name",
              "type": "string"
            },
            {
              "internalType": "enum SharedChain.ProjectStatus",
              "name": "_status",
              "type": "uint8"
            },
            {
              "internalType": "string",
              "name": "_ipfsFileCID",
              "type": "string"
            },
            {
              "internalType": "address",
              "name": "_projectAddress",
              "type": "address"
            },
            {
              "internalType": "address",
              "name": "_signerAddress",
              "type": "address"
            },
            {
              "internalType": "address",
              "name": "_companyAddress",
              "type": "address"
            },
            {
              "internalType": "bool",
              "name": "_assigned",
              "type": "bool"
            },
            {
              "internalType": "uint256",
              "name": "_timestamp",
              "type": "uint256"
            },
            {
              "internalType": "string",
              "name": "_signature",
              "type": "string"
            }
          ],
          "internalType": "struct SharedChain.Project[]",
          "name": "",
          "type": "tuple[]"
        }
      ],
      "stateMutability": "view",
      "type": "function",
      "constant": true
    },
    {
      "inputs": [
        {
          "internalType": "string",
          "name": "_title",
          "type": "string"
        },
        {
          "internalType": "uint256",
          "name": "_index",
          "type": "uint256"
        }
      ],
      "name": "createUniqueRequestAddress",
      "outputs": [
        {
          "internalType": "address",
          "name": "",
          "type": "address"
        }
      ],
      "stateMutability": "view",
      "type": "function",
      "constant": true
    },
    {
      "inputs": [
        {
          "internalType": "string",
          "name": "_title",
          "type": "string"
        },
        {
          "internalType": "uint256",
          "name": "_projectStatus",
          "type": "uint256"
        },
        {
          "internalType": "uint256",
          "name": "_requestStatus",
          "type": "uint256"
        },
        {
          "internalType": "address",
          "name": "_projectAddress",
          "type": "address"
        },
        {
          "internalType": "address",
          "name": "_requestAddress",
          "type": "address"
        },
        {
          "internalType": "string",
          "name": "_signature",
          "type": "string"
        }
      ],
      "name": "createRequest",
      "outputs": [],
      "stateMutability": "nonpayable",
      "type": "function"
    },
    {
      "inputs": [
        {
          "internalType": "string",
          "name": "_comments",
          "type": "string"
        },
        {
          "internalType": "uint256",
          "name": "_requestStatus",
          "type": "uint256"
        },
        {
          "internalType": "uint256",
          "name": "_projectStatus",
          "type": "uint256"
        },
        {
          "internalType": "address",
          "name": "_projectAddress",
          "type": "address"
        },
        {
          "internalType": "address",
          "name": "_requestAddress",
          "type": "address"
        },
        {
          "internalType": "string",
          "name": "_signature",
          "type": "string"
        }
      ],
      "name": "updateRequest",
      "outputs": [],
      "stateMutability": "nonpayable",
      "type": "function"
    },
    {
      "inputs": [
        {
          "internalType": "address",
          "name": "_projectAddress",
          "type": "address"
        },
        {
          "internalType": "address",
          "name": "_requestAddress",
          "type": "address"
        }
      ],
      "name": "getLastProjectRequest",
      "outputs": [
        {
          "components": [
            {
              "internalType": "uint256",
              "name": "_index",
              "type": "uint256"
            },
            {
              "internalType": "string",
              "name": "_title",
              "type": "string"
            },
            {
              "internalType": "string",
              "name": "_comments",
              "type": "string"
            },
            {
              "internalType": "enum SharedChain.ProjectStatus",
              "name": "_projectStatus",
              "type": "uint8"
            },
            {
              "internalType": "enum SharedChain.RequestStatus",
              "name": "_requestStatus",
              "type": "uint8"
            },
            {
              "internalType": "enum SharedChain.RequestType",
              "name": "_requestType",
              "type": "uint8"
            },
            {
              "internalType": "address",
              "name": "_projectAddress",
              "type": "address"
            },
            {
              "internalType": "address",
              "name": "_requestAddress",
              "type": "address"
            },
            {
              "internalType": "address",
              "name": "_signerAddress",
              "type": "address"
            },
            {
              "internalType": "uint256",
              "name": "_timestamp",
              "type": "uint256"
            },
            {
              "internalType": "string",
              "name": "_signature",
              "type": "string"
            }
          ],
          "internalType": "struct SharedChain.Request",
          "name": "",
          "type": "tuple"
        }
      ],
      "stateMutability": "view",
      "type": "function",
      "constant": true
    }
  ],
  "bytecode": "0x608060405260006002556000600555600060085534801561001f57600080fd5b50336000806101000a81548173ffffffffffffffffffffffffffffffffffffffff021916908373ffffffffffffffffffffffffffffffffffffffff160217905550614c898061006f6000396000f3fe608060405234801561001057600080fd5b50600436106101425760003560e01c8063840e78fd116100b8578063b4eddc721161007c578063b4eddc72146103fc578063d67b1b991461042c578063e1592c0d1461044a578063e2842d7914610466578063e617385f14610484578063fe360ea5146104a057610142565b8063840e78fd1461033b578063844855631461037457806387edbec71461039057806391009786146103ac578063a87430ba146103c857610142565b806347ee45b91161010a57806347ee45b91461022357806356a3eead146102535780636386c1c714610283578063663c2269146102b357806374adad1d146102d157806376c932e01461030b57610142565b806304c278ec14610147578063191e1645146101775780633000d7f9146101a75780633b4ec4f8146101c357806344884710146101f3575b600080fd5b610161600480360381019061015c9190613458565b6104be565b60405161016e9190613782565b60405180910390f35b610191600480360381019061018c9190613905565b6109c4565b60405161019e9190613970565b60405180910390f35b6101c160048036038101906101bc91906139c1565b6109fc565b005b6101dd60048036038101906101d89190613905565b610ccf565b6040516101ea9190613970565b60405180910390f35b61020d60048036038101906102089190613a28565b610d07565b60405161021a9190613bf5565b60405180910390f35b61023d60048036038101906102389190613458565b61118e565b60405161024a9190613cff565b60405180910390f35b61026d60048036038101906102689190613d21565b61150a565b60405161027a9190613970565b60405180910390f35b61029d60048036038101906102989190613458565b611549565b6040516102aa9190613e0d565b60405180910390f35b6102bb611651565b6040516102c89190613e37565b60405180910390f35b6102eb60048036038101906102e69190613458565b611657565b6040516103029b9a99989796959493929190613ec9565b60405180910390f35b61032560048036038101906103209190613d21565b6118d0565b6040516103329190613970565b60405180910390f35b61035560048036038101906103509190613458565b61190f565b60405161036b9a99989796959493929190613f98565b60405180910390f35b61038e60048036038101906103899190614049565b611b75565b005b6103aa60048036038101906103a59190614118565b611f21565b005b6103c660048036038101906103c191906141dd565b612255565b005b6103e260048036038101906103dd9190613458565b612436565b6040516103f395949392919061423b565b60405180910390f35b61041660048036038101906104119190613458565b612499565b6040516104239190613782565b60405180910390f35b61043461299f565b6040516104419190613e37565b60405180910390f35b610464600480360381019061045f919061428e565b6129a5565b005b61046e612afc565b60405161047b9190614430565b60405180910390f35b61049e60048036038101906104999190614118565b612ce1565b005b6104a8613165565b6040516104b59190613e37565b60405180910390f35b606080600060055414156104d557809150506109bf565b60055467ffffffffffffffff8111156104f1576104f06137ae565b5b60405190808252806020026020018201604052801561052a57816020015b61051761316b565b81526020019060019003908161050f5790505b50905060005b6005548110156109b9576000600682815481106105505761054f614452565b5b9060005260206000200160009054906101000a900473ffffffffffffffffffffffffffffffffffffffff169050600460008273ffffffffffffffffffffffffffffffffffffffff1673ffffffffffffffffffffffffffffffffffffffff16815260200190815260200160002060060160009054906101000a900473ffffffffffffffffffffffffffffffffffffffff1673ffffffffffffffffffffffffffffffffffffffff168573ffffffffffffffffffffffffffffffffffffffff1614156109a5576000600460008373ffffffffffffffffffffffffffffffffffffffff1673ffffffffffffffffffffffffffffffffffffffff168152602001908152602001600020905080604051806101400160405290816000820154815260200160018201805461067d906144b0565b80601f01602080910402602001604051908101604052809291908181526020018280546106a9906144b0565b80156106f65780601f106106cb576101008083540402835291602001916106f6565b820191906000526020600020905b8154815290600101906020018083116106d957829003601f168201915b505050505081526020016002820160009054906101000a900460ff16600481111561072457610723613563565b5b600481111561073657610735613563565b5b815260200160038201805461074a906144b0565b80601f0160208091040260200160405190810160405280929190818152602001828054610776906144b0565b80156107c35780601f10610798576101008083540402835291602001916107c3565b820191906000526020600020905b8154815290600101906020018083116107a657829003601f168201915b505050505081526020016004820160009054906101000a900473ffffffffffffffffffffffffffffffffffffffff1673ffffffffffffffffffffffffffffffffffffffff1673ffffffffffffffffffffffffffffffffffffffff1681526020016005820160009054906101000a900473ffffffffffffffffffffffffffffffffffffffff1673ffffffffffffffffffffffffffffffffffffffff1673ffffffffffffffffffffffffffffffffffffffff1681526020016006820160009054906101000a900473ffffffffffffffffffffffffffffffffffffffff1673ffffffffffffffffffffffffffffffffffffffff1673ffffffffffffffffffffffffffffffffffffffff1681526020016006820160149054906101000a900460ff1615151515815260200160078201548152602001600882018054610903906144b0565b80601f016020809104026020016040519081016040528092919081815260200182805461092f906144b0565b801561097c5780601f106109515761010080835404028352916020019161097c565b820191906000526020600020905b81548152906001019060200180831161095f57829003601f168201915b50505050508152505084848151811061099857610997614452565b5b6020026020010181905250505b5080806109b190614511565b915050610530565b50809150505b919050565b60008233836040516020016109db939291906145ff565b6040516020818303038152906040528051906020012060001c905092915050565b3373ffffffffffffffffffffffffffffffffffffffff1660008054906101000a900473ffffffffffffffffffffffffffffffffffffffff1673ffffffffffffffffffffffffffffffffffffffff1614610a8a576040517f08c379a0000000000000000000000000000000000000000000000000000000008152600401610a8190614684565b60405180910390fd5b6040518060a00160405280858152602001848152602001836003811115610ab457610ab3613563565b5b6003811115610ac657610ac5613563565b5b81526020018273ffffffffffffffffffffffffffffffffffffffff16815260200142815250600160008373ffffffffffffffffffffffffffffffffffffffff1673ffffffffffffffffffffffffffffffffffffffff168152602001908152602001600020600082015181600001556020820151816001015560408201518160020160006101000a81548160ff02191690836003811115610b6957610b68613563565b5b021790555060608201518160020160016101000a81548173ffffffffffffffffffffffffffffffffffffffff021916908373ffffffffffffffffffffffffffffffffffffffff160217905550608082015181600301559050508073ffffffffffffffffffffffffffffffffffffffff167ff751778eb32087df58f173035147c2eac9aac89fdc2f83b1993a198606f56db1600160008473ffffffffffffffffffffffffffffffffffffffff1673ffffffffffffffffffffffffffffffffffffffff168152602001908152602001600020604051610c469190614801565b60405180910390a26003819080600181540180825580915050600190039060005260206000200160009091909190916101000a81548173ffffffffffffffffffffffffffffffffffffffff021916908373ffffffffffffffffffffffffffffffffffffffff16021790555060026000815480929190610cc490614511565b919050555050505050565b6000823383604051602001610ce6939291906145ff565b6040516020818303038152906040528051906020012060001c905092915050565b610d0f613214565b610d17613214565b60006008541115611184578373ffffffffffffffffffffffffffffffffffffffff16600760008573ffffffffffffffffffffffffffffffffffffffff1673ffffffffffffffffffffffffffffffffffffffff16815260200190815260200160002060030160039054906101000a900473ffffffffffffffffffffffffffffffffffffffff1673ffffffffffffffffffffffffffffffffffffffff16141561118357600760008473ffffffffffffffffffffffffffffffffffffffff1673ffffffffffffffffffffffffffffffffffffffff1681526020019081526020016000206040518061016001604052908160008201548152602001600182018054610e1d906144b0565b80601f0160208091040260200160405190810160405280929190818152602001828054610e49906144b0565b8015610e965780601f10610e6b57610100808354040283529160200191610e96565b820191906000526020600020905b815481529060010190602001808311610e7957829003601f168201915b50505050508152602001600282018054610eaf906144b0565b80601f0160208091040260200160405190810160405280929190818152602001828054610edb906144b0565b8015610f285780601f10610efd57610100808354040283529160200191610f28565b820191906000526020600020905b815481529060010190602001808311610f0b57829003601f168201915b505050505081526020016003820160009054906101000a900460ff166004811115610f5657610f55613563565b5b6004811115610f6857610f67613563565b5b81526020016003820160019054906101000a900460ff166002811115610f9157610f90613563565b5b6002811115610fa357610fa2613563565b5b81526020016003820160029054906101000a900460ff166001811115610fcc57610fcb613563565b5b6001811115610fde57610fdd613563565b5b81526020016003820160039054906101000a900473ffffffffffffffffffffffffffffffffffffffff1673ffffffffffffffffffffffffffffffffffffffff1673ffffffffffffffffffffffffffffffffffffffff1681526020016004820160009054906101000a900473ffffffffffffffffffffffffffffffffffffffff1673ffffffffffffffffffffffffffffffffffffffff1673ffffffffffffffffffffffffffffffffffffffff1681526020016005820160009054906101000a900473ffffffffffffffffffffffffffffffffffffffff1673ffffffffffffffffffffffffffffffffffffffff1673ffffffffffffffffffffffffffffffffffffffff168152602001600682015481526020016007820180546110fe906144b0565b80601f016020809104026020016040519081016040528092919081815260200182805461112a906144b0565b80156111775780601f1061114c57610100808354040283529160200191611177565b820191906000526020600020905b81548152906001019060200180831161115a57829003601f168201915b50505050508152505090505b5b8091505092915050565b61119661316b565b600460008373ffffffffffffffffffffffffffffffffffffffff1673ffffffffffffffffffffffffffffffffffffffff16815260200190815260200160002060405180610140016040529081600082015481526020016001820180546111fb906144b0565b80601f0160208091040260200160405190810160405280929190818152602001828054611227906144b0565b80156112745780601f1061124957610100808354040283529160200191611274565b820191906000526020600020905b81548152906001019060200180831161125757829003601f168201915b505050505081526020016002820160009054906101000a900460ff1660048111156112a2576112a1613563565b5b60048111156112b4576112b3613563565b5b81526020016003820180546112c8906144b0565b80601f01602080910402602001604051908101604052809291908181526020018280546112f4906144b0565b80156113415780601f1061131657610100808354040283529160200191611341565b820191906000526020600020905b81548152906001019060200180831161132457829003601f168201915b505050505081526020016004820160009054906101000a900473ffffffffffffffffffffffffffffffffffffffff1673ffffffffffffffffffffffffffffffffffffffff1673ffffffffffffffffffffffffffffffffffffffff1681526020016005820160009054906101000a900473ffffffffffffffffffffffffffffffffffffffff1673ffffffffffffffffffffffffffffffffffffffff1673ffffffffffffffffffffffffffffffffffffffff1681526020016006820160009054906101000a900473ffffffffffffffffffffffffffffffffffffffff1673ffffffffffffffffffffffffffffffffffffffff1673ffffffffffffffffffffffffffffffffffffffff1681526020016006820160149054906101000a900460ff1615151515815260200160078201548152602001600882018054611481906144b0565b80601f01602080910402602001604051908101604052809291908181526020018280546114ad906144b0565b80156114fa5780601f106114cf576101008083540402835291602001916114fa565b820191906000526020600020905b8154815290600101906020018083116114dd57829003601f168201915b5050505050815250509050919050565b6009818154811061151a57600080fd5b906000526020600020016000915054906101000a900473ffffffffffffffffffffffffffffffffffffffff1681565b6115516132e6565b600160008373ffffffffffffffffffffffffffffffffffffffff1673ffffffffffffffffffffffffffffffffffffffff1681526020019081526020016000206040518060a001604052908160008201548152602001600182015481526020016002820160009054906101000a900460ff1660038111156115d4576115d3613563565b5b60038111156115e6576115e5613563565b5b81526020016002820160019054906101000a900473ffffffffffffffffffffffffffffffffffffffff1673ffffffffffffffffffffffffffffffffffffffff1673ffffffffffffffffffffffffffffffffffffffff1681526020016003820154815250509050919050565b60085481565b6007602052806000526040600020600091509050806000015490806001018054611680906144b0565b80601f01602080910402602001604051908101604052809291908181526020018280546116ac906144b0565b80156116f95780601f106116ce576101008083540402835291602001916116f9565b820191906000526020600020905b8154815290600101906020018083116116dc57829003601f168201915b50505050509080600201805461170e906144b0565b80601f016020809104026020016040519081016040528092919081815260200182805461173a906144b0565b80156117875780601f1061175c57610100808354040283529160200191611787565b820191906000526020600020905b81548152906001019060200180831161176a57829003601f168201915b5050505050908060030160009054906101000a900460ff16908060030160019054906101000a900460ff16908060030160029054906101000a900460ff16908060030160039054906101000a900473ffffffffffffffffffffffffffffffffffffffff16908060040160009054906101000a900473ffffffffffffffffffffffffffffffffffffffff16908060050160009054906101000a900473ffffffffffffffffffffffffffffffffffffffff169080600601549080600701805461184d906144b0565b80601f0160208091040260200160405190810160405280929190818152602001828054611879906144b0565b80156118c65780601f1061189b576101008083540402835291602001916118c6565b820191906000526020600020905b8154815290600101906020018083116118a957829003601f168201915b505050505090508b565b600681815481106118e057600080fd5b906000526020600020016000915054906101000a900473ffffffffffffffffffffffffffffffffffffffff1681565b6004602052806000526040600020600091509050806000015490806001018054611938906144b0565b80601f0160208091040260200160405190810160405280929190818152602001828054611964906144b0565b80156119b15780601f10611986576101008083540402835291602001916119b1565b820191906000526020600020905b81548152906001019060200180831161199457829003601f168201915b5050505050908060020160009054906101000a900460ff16908060030180546119d9906144b0565b80601f0160208091040260200160405190810160405280929190818152602001828054611a05906144b0565b8015611a525780601f10611a2757610100808354040283529160200191611a52565b820191906000526020600020905b815481529060010190602001808311611a3557829003601f168201915b5050505050908060040160009054906101000a900473ffffffffffffffffffffffffffffffffffffffff16908060050160009054906101000a900473ffffffffffffffffffffffffffffffffffffffff16908060060160009054906101000a900473ffffffffffffffffffffffffffffffffffffffff16908060060160149054906101000a900460ff1690806007015490806008018054611af2906144b0565b80601f0160208091040260200160405190810160405280929190818152602001828054611b1e906144b0565b8015611b6b5780601f10611b4057610100808354040283529160200191611b6b565b820191906000526020600020905b815481529060010190602001808311611b4e57829003601f168201915b505050505090508a565b6040518061014001604052806005548152602001858152602001846004811115611ba257611ba1613563565b5b6004811115611bb457611bb3613563565b5b81526020018381526020018673ffffffffffffffffffffffffffffffffffffffff1681526020013373ffffffffffffffffffffffffffffffffffffffff168152602001600073ffffffffffffffffffffffffffffffffffffffff16815260200160001515815260200142815260200182815250600460008773ffffffffffffffffffffffffffffffffffffffff1673ffffffffffffffffffffffffffffffffffffffff168152602001908152602001600020600082015181600001556020820151816001019080519060200190611c8c929190613343565b5060408201518160020160006101000a81548160ff02191690836004811115611cb857611cb7613563565b5b02179055506060820151816003019080519060200190611cd9929190613343565b5060808201518160040160006101000a81548173ffffffffffffffffffffffffffffffffffffffff021916908373ffffffffffffffffffffffffffffffffffffffff16021790555060a08201518160050160006101000a81548173ffffffffffffffffffffffffffffffffffffffff021916908373ffffffffffffffffffffffffffffffffffffffff16021790555060c08201518160060160006101000a81548173ffffffffffffffffffffffffffffffffffffffff021916908373ffffffffffffffffffffffffffffffffffffffff16021790555060e08201518160060160146101000a81548160ff0219169083151502179055506101008201518160070155610120820151816008019080519060200190611df7929190613343565b50905050600073ffffffffffffffffffffffffffffffffffffffff168573ffffffffffffffffffffffffffffffffffffffff167ffb530d24abc3d497c3f0525ef204a66ac64d923ec30b40d17bc3a5f572cf4b8e600460008973ffffffffffffffffffffffffffffffffffffffff1673ffffffffffffffffffffffffffffffffffffffff168152602001908152602001600020604051611e979190614a51565b60405180910390a36006859080600181540180825580915050600190039060005260206000200160009091909190916101000a81548173ffffffffffffffffffffffffffffffffffffffff021916908373ffffffffffffffffffffffffffffffffffffffff16021790555060056000815480929190611f1590614511565b91905055505050505050565b85600760008473ffffffffffffffffffffffffffffffffffffffff1673ffffffffffffffffffffffffffffffffffffffff1681526020019081526020016000206002019080519060200190611f77929190613343565b50846002811115611f8b57611f8a613563565b5b600760008473ffffffffffffffffffffffffffffffffffffffff1673ffffffffffffffffffffffffffffffffffffffff16815260200190815260200160002060030160016101000a81548160ff02191690836002811115611fef57611fee613563565b5b021790555080600760008473ffffffffffffffffffffffffffffffffffffffff1673ffffffffffffffffffffffffffffffffffffffff168152602001908152602001600020600701908051906020019061204a929190613343565b508273ffffffffffffffffffffffffffffffffffffffff168273ffffffffffffffffffffffffffffffffffffffff167fa25a6f1ff57a050a48ae4b3a19f271fddad950cac8d165d6a2eca5d54cc8070f600760008673ffffffffffffffffffffffffffffffffffffffff1673ffffffffffffffffffffffffffffffffffffffff1681526020019081526020016000206040516120e69190614c31565b60405180910390a384600281111561210157612100613563565b5b600281111561211357612112613563565b5b60028081111561212657612125613563565b5b141561224d5783600481111561213f5761213e613563565b5b600460008573ffffffffffffffffffffffffffffffffffffffff1673ffffffffffffffffffffffffffffffffffffffff16815260200190815260200160002060020160006101000a81548160ff021916908360048111156121a3576121a2613563565b5b0217905550600073ffffffffffffffffffffffffffffffffffffffff168373ffffffffffffffffffffffffffffffffffffffff167ffb530d24abc3d497c3f0525ef204a66ac64d923ec30b40d17bc3a5f572cf4b8e600460008773ffffffffffffffffffffffffffffffffffffffff1673ffffffffffffffffffffffffffffffffffffffff1681526020019081526020016000206040516122449190614a51565b60405180910390a35b505050505050565b3373ffffffffffffffffffffffffffffffffffffffff1660008054906101000a900473ffffffffffffffffffffffffffffffffffffffff1673ffffffffffffffffffffffffffffffffffffffff16146122e3576040517f08c379a00000000000000000000000000000000000000000000000000000000081526004016122da90614684565b60405180910390fd5b8160038111156122f6576122f5613563565b5b600160008373ffffffffffffffffffffffffffffffffffffffff1673ffffffffffffffffffffffffffffffffffffffff16815260200190815260200160002060020160006101000a81548160ff0219169083600381111561235a57612359613563565b5b021790555042600160008373ffffffffffffffffffffffffffffffffffffffff1673ffffffffffffffffffffffffffffffffffffffff168152602001908152602001600020600301819055508073ffffffffffffffffffffffffffffffffffffffff167ff751778eb32087df58f173035147c2eac9aac89fdc2f83b1993a198606f56db1600160008473ffffffffffffffffffffffffffffffffffffffff1673ffffffffffffffffffffffffffffffffffffffff16815260200190815260200160002060405161242a9190614801565b60405180910390a25050565b60016020528060005260406000206000915090508060000154908060010154908060020160009054906101000a900460ff16908060020160019054906101000a900473ffffffffffffffffffffffffffffffffffffffff16908060030154905085565b606080600060055414156124b0578091505061299a565b60055467ffffffffffffffff8111156124cc576124cb6137ae565b5b60405190808252806020026020018201604052801561250557816020015b6124f261316b565b8152602001906001900390816124ea5790505b50905060005b6005548110156129945760006006828154811061252b5761252a614452565b5b9060005260206000200160009054906101000a900473ffffffffffffffffffffffffffffffffffffffff169050600460008273ffffffffffffffffffffffffffffffffffffffff1673ffffffffffffffffffffffffffffffffffffffff16815260200190815260200160002060050160009054906101000a900473ffffffffffffffffffffffffffffffffffffffff1673ffffffffffffffffffffffffffffffffffffffff168573ffffffffffffffffffffffffffffffffffffffff161415612980576000600460008373ffffffffffffffffffffffffffffffffffffffff1673ffffffffffffffffffffffffffffffffffffffff1681526020019081526020016000209050806040518061014001604052908160008201548152602001600182018054612658906144b0565b80601f0160208091040260200160405190810160405280929190818152602001828054612684906144b0565b80156126d15780601f106126a6576101008083540402835291602001916126d1565b820191906000526020600020905b8154815290600101906020018083116126b457829003601f168201915b505050505081526020016002820160009054906101000a900460ff1660048111156126ff576126fe613563565b5b600481111561271157612710613563565b5b8152602001600382018054612725906144b0565b80601f0160208091040260200160405190810160405280929190818152602001828054612751906144b0565b801561279e5780601f106127735761010080835404028352916020019161279e565b820191906000526020600020905b81548152906001019060200180831161278157829003601f168201915b505050505081526020016004820160009054906101000a900473ffffffffffffffffffffffffffffffffffffffff1673ffffffffffffffffffffffffffffffffffffffff1673ffffffffffffffffffffffffffffffffffffffff1681526020016005820160009054906101000a900473ffffffffffffffffffffffffffffffffffffffff1673ffffffffffffffffffffffffffffffffffffffff1673ffffffffffffffffffffffffffffffffffffffff1681526020016006820160009054906101000a900473ffffffffffffffffffffffffffffffffffffffff1673ffffffffffffffffffffffffffffffffffffffff1673ffffffffffffffffffffffffffffffffffffffff1681526020016006820160149054906101000a900460ff16151515158152602001600782015481526020016008820180546128de906144b0565b80601f016020809104026020016040519081016040528092919081815260200182805461290a906144b0565b80156129575780601f1061292c57610100808354040283529160200191612957565b820191906000526020600020905b81548152906001019060200180831161293a57829003601f168201915b50505050508152505084848151811061297357612972614452565b5b6020026020010181905250505b50808061298c90614511565b91505061250b565b50809150505b919050565b60025481565b81600460008573ffffffffffffffffffffffffffffffffffffffff1673ffffffffffffffffffffffffffffffffffffffff16815260200190815260200160002060030190805190602001906129fb929190613343565b5080600460008573ffffffffffffffffffffffffffffffffffffffff1673ffffffffffffffffffffffffffffffffffffffff1681526020019081526020016000206008019080519060200190612a52929190613343565b50600073ffffffffffffffffffffffffffffffffffffffff168373ffffffffffffffffffffffffffffffffffffffff167ffb530d24abc3d497c3f0525ef204a66ac64d923ec30b40d17bc3a5f572cf4b8e600460008773ffffffffffffffffffffffffffffffffffffffff1673ffffffffffffffffffffffffffffffffffffffff168152602001908152602001600020604051612aef9190614a51565b60405180910390a3505050565b6060600060025467ffffffffffffffff811115612b1c57612b1b6137ae565b5b604051908082528060200260200182016040528015612b5557816020015b612b426132e6565b815260200190600190039081612b3a5790505b50905060005b600254811015612cd957600060038281548110612b7b57612b7a614452565b5b9060005260206000200160009054906101000a900473ffffffffffffffffffffffffffffffffffffffff1690506000600160008373ffffffffffffffffffffffffffffffffffffffff1673ffffffffffffffffffffffffffffffffffffffff1681526020019081526020016000209050806040518060a001604052908160008201548152602001600182015481526020016002820160009054906101000a900460ff166003811115612c3057612c2f613563565b5b6003811115612c4257612c41613563565b5b81526020016002820160019054906101000a900473ffffffffffffffffffffffffffffffffffffffff1673ffffffffffffffffffffffffffffffffffffffff1673ffffffffffffffffffffffffffffffffffffffff168152602001600382015481525050848481518110612cb957612cb8614452565b5b602002602001018190525050508080612cd190614511565b915050612b5b565b508091505090565b600060026004811115612cf757612cf6613563565b5b866004811115612d0a57612d09613563565b5b6004811115612d1c57612d1b613563565b5b1415612d2b5760019050612d30565b600090505b6040518061016001604052806008548152602001888152602001604051806020016040528060008152508152602001876004811115612d7257612d71613563565b5b6004811115612d8457612d83613563565b5b8152602001866002811115612d9c57612d9b613563565b5b6002811115612dae57612dad613563565b5b8152602001826001811115612dc657612dc5613563565b5b81526020018573ffffffffffffffffffffffffffffffffffffffff1681526020018473ffffffffffffffffffffffffffffffffffffffff1681526020013373ffffffffffffffffffffffffffffffffffffffff16815260200142815260200183815250600760008573ffffffffffffffffffffffffffffffffffffffff1673ffffffffffffffffffffffffffffffffffffffff168152602001908152602001600020600082015181600001556020820151816001019080519060200190612e8e929190613343565b506040820151816002019080519060200190612eab929190613343565b5060608201518160030160006101000a81548160ff02191690836004811115612ed757612ed6613563565b5b021790555060808201518160030160016101000a81548160ff02191690836002811115612f0757612f06613563565b5b021790555060a08201518160030160026101000a81548160ff02191690836001811115612f3757612f36613563565b5b021790555060c08201518160030160036101000a81548173ffffffffffffffffffffffffffffffffffffffff021916908373ffffffffffffffffffffffffffffffffffffffff16021790555060e08201518160040160006101000a81548173ffffffffffffffffffffffffffffffffffffffff021916908373ffffffffffffffffffffffffffffffffffffffff1602179055506101008201518160050160006101000a81548173ffffffffffffffffffffffffffffffffffffffff021916908373ffffffffffffffffffffffffffffffffffffffff160217905550610120820151816006015561014082015181600701908051906020019061303a929190613343565b509050508373ffffffffffffffffffffffffffffffffffffffff168373ffffffffffffffffffffffffffffffffffffffff167fa25a6f1ff57a050a48ae4b3a19f271fddad950cac8d165d6a2eca5d54cc8070f600760008773ffffffffffffffffffffffffffffffffffffffff1673ffffffffffffffffffffffffffffffffffffffff1681526020019081526020016000206040516130d99190614c31565b60405180910390a36009839080600181540180825580915050600190039060005260206000200160009091909190916101000a81548173ffffffffffffffffffffffffffffffffffffffff021916908373ffffffffffffffffffffffffffffffffffffffff1602179055506008600081548092919061315790614511565b919050555050505050505050565b60055481565b60405180610140016040528060008152602001606081526020016000600481111561319957613198613563565b5b815260200160608152602001600073ffffffffffffffffffffffffffffffffffffffff168152602001600073ffffffffffffffffffffffffffffffffffffffff168152602001600073ffffffffffffffffffffffffffffffffffffffff16815260200160001515815260200160008152602001606081525090565b6040518061016001604052806000815260200160608152602001606081526020016000600481111561324957613248613563565b5b81526020016000600281111561326257613261613563565b5b81526020016000600181111561327b5761327a613563565b5b8152602001600073ffffffffffffffffffffffffffffffffffffffff168152602001600073ffffffffffffffffffffffffffffffffffffffff168152602001600073ffffffffffffffffffffffffffffffffffffffff16815260200160008152602001606081525090565b6040518060a0016040528060008019168152602001600080191681526020016000600381111561331957613318613563565b5b8152602001600073ffffffffffffffffffffffffffffffffffffffff168152602001600081525090565b82805461334f906144b0565b90600052602060002090601f01602090048101928261337157600085556133b8565b82601f1061338a57805160ff19168380011785556133b8565b828001600101855582156133b8579182015b828111156133b757825182559160200191906001019061339c565b5b5090506133c591906133c9565b5090565b5b808211156133e25760008160009055506001016133ca565b5090565b6000604051905090565b600080fd5b600080fd5b600073ffffffffffffffffffffffffffffffffffffffff82169050919050565b6000613425826133fa565b9050919050565b6134358161341a565b811461344057600080fd5b50565b6000813590506134528161342c565b92915050565b60006020828403121561346e5761346d6133f0565b5b600061347c84828501613443565b91505092915050565b600081519050919050565b600082825260208201905092915050565b6000819050602082019050919050565b6000819050919050565b6134c4816134b1565b82525050565b600081519050919050565b600082825260208201905092915050565b60005b838110156135045780820151818401526020810190506134e9565b83811115613513576000848401525b50505050565b6000601f19601f8301169050919050565b6000613535826134ca565b61353f81856134d5565b935061354f8185602086016134e6565b61355881613519565b840191505092915050565b7f4e487b7100000000000000000000000000000000000000000000000000000000600052602160045260246000fd5b600581106135a3576135a2613563565b5b50565b60008190506135b482613592565b919050565b60006135c4826135a6565b9050919050565b6135d4816135b9565b82525050565b6135e38161341a565b82525050565b60008115159050919050565b6135fe816135e9565b82525050565b60006101408301600083015161361d60008601826134bb565b5060208301518482036020860152613635828261352a565b915050604083015161364a60408601826135cb565b5060608301518482036060860152613662828261352a565b915050608083015161367760808601826135da565b5060a083015161368a60a08601826135da565b5060c083015161369d60c08601826135da565b5060e08301516136b060e08601826135f5565b506101008301516136c56101008601826134bb565b506101208301518482036101208601526136df828261352a565b9150508091505092915050565b60006136f88383613604565b905092915050565b6000602082019050919050565b600061371882613485565b6137228185613490565b935083602082028501613734856134a1565b8060005b85811015613770578484038952815161375185826136ec565b945061375c83613700565b925060208a01995050600181019050613738565b50829750879550505050505092915050565b6000602082019050818103600083015261379c818461370d565b905092915050565b600080fd5b600080fd5b7f4e487b7100000000000000000000000000000000000000000000000000000000600052604160045260246000fd5b6137e682613519565b810181811067ffffffffffffffff82111715613805576138046137ae565b5b80604052505050565b60006138186133e6565b905061382482826137dd565b919050565b600067ffffffffffffffff821115613844576138436137ae565b5b61384d82613519565b9050602081019050919050565b82818337600083830152505050565b600061387c61387784613829565b61380e565b905082815260208101848484011115613898576138976137a9565b5b6138a384828561385a565b509392505050565b600082601f8301126138c0576138bf6137a4565b5b81356138d0848260208601613869565b91505092915050565b6138e2816134b1565b81146138ed57600080fd5b50565b6000813590506138ff816138d9565b92915050565b6000806040838503121561391c5761391b6133f0565b5b600083013567ffffffffffffffff81111561393a576139396133f5565b5b613946858286016138ab565b9250506020613957858286016138f0565b9150509250929050565b61396a8161341a565b82525050565b60006020820190506139856000830184613961565b92915050565b6000819050919050565b61399e8161398b565b81146139a957600080fd5b50565b6000813590506139bb81613995565b92915050565b600080600080608085870312156139db576139da6133f0565b5b60006139e9878288016139ac565b94505060206139fa878288016139ac565b9350506040613a0b878288016138f0565b9250506060613a1c87828801613443565b91505092959194509250565b60008060408385031215613a3f57613a3e6133f0565b5b6000613a4d85828601613443565b9250506020613a5e85828601613443565b9150509250929050565b60038110613a7957613a78613563565b5b50565b6000819050613a8a82613a68565b919050565b6000613a9a82613a7c565b9050919050565b613aaa81613a8f565b82525050565b60028110613ac157613ac0613563565b5b50565b6000819050613ad282613ab0565b919050565b6000613ae282613ac4565b9050919050565b613af281613ad7565b82525050565b600061016083016000830151613b1160008601826134bb565b5060208301518482036020860152613b29828261352a565b91505060408301518482036040860152613b43828261352a565b9150506060830151613b5860608601826135cb565b506080830151613b6b6080860182613aa1565b5060a0830151613b7e60a0860182613ae9565b5060c0830151613b9160c08601826135da565b5060e0830151613ba460e08601826135da565b50610100830151613bb96101008601826135da565b50610120830151613bce6101208601826134bb565b50610140830151848203610140860152613be8828261352a565b9150508091505092915050565b60006020820190508181036000830152613c0f8184613af8565b905092915050565b600061014083016000830151613c3060008601826134bb565b5060208301518482036020860152613c48828261352a565b9150506040830151613c5d60408601826135cb565b5060608301518482036060860152613c75828261352a565b9150506080830151613c8a60808601826135da565b5060a0830151613c9d60a08601826135da565b5060c0830151613cb060c08601826135da565b5060e0830151613cc360e08601826135f5565b50610100830151613cd86101008601826134bb565b50610120830151848203610120860152613cf2828261352a565b9150508091505092915050565b60006020820190508181036000830152613d198184613c17565b905092915050565b600060208284031215613d3757613d366133f0565b5b6000613d45848285016138f0565b91505092915050565b613d578161398b565b82525050565b60048110613d6e57613d6d613563565b5b50565b6000819050613d7f82613d5d565b919050565b6000613d8f82613d71565b9050919050565b613d9f81613d84565b82525050565b60a082016000820151613dbb6000850182613d4e565b506020820151613dce6020850182613d4e565b506040820151613de16040850182613d96565b506060820151613df460608501826135da565b506080820151613e0760808501826134bb565b50505050565b600060a082019050613e226000830184613da5565b92915050565b613e31816134b1565b82525050565b6000602082019050613e4c6000830184613e28565b92915050565b600082825260208201905092915050565b6000613e6e826134ca565b613e788185613e52565b9350613e888185602086016134e6565b613e9181613519565b840191505092915050565b613ea5816135b9565b82525050565b613eb481613a8f565b82525050565b613ec381613ad7565b82525050565b600061016082019050613edf600083018e613e28565b8181036020830152613ef1818d613e63565b90508181036040830152613f05818c613e63565b9050613f14606083018b613e9c565b613f21608083018a613eab565b613f2e60a0830189613eba565b613f3b60c0830188613961565b613f4860e0830187613961565b613f56610100830186613961565b613f64610120830185613e28565b818103610140830152613f778184613e63565b90509c9b505050505050505050505050565b613f92816135e9565b82525050565b600061014082019050613fae600083018d613e28565b8181036020830152613fc0818c613e63565b9050613fcf604083018b613e9c565b8181036060830152613fe1818a613e63565b9050613ff06080830189613961565b613ffd60a0830188613961565b61400a60c0830187613961565b61401760e0830186613f89565b614025610100830185613e28565b8181036101208301526140388184613e63565b90509b9a5050505050505050505050565b600080600080600060a08688031215614065576140646133f0565b5b600061407388828901613443565b955050602086013567ffffffffffffffff811115614094576140936133f5565b5b6140a0888289016138ab565b94505060406140b1888289016138f0565b935050606086013567ffffffffffffffff8111156140d2576140d16133f5565b5b6140de888289016138ab565b925050608086013567ffffffffffffffff8111156140ff576140fe6133f5565b5b61410b888289016138ab565b9150509295509295909350565b60008060008060008060c08789031215614135576141346133f0565b5b600087013567ffffffffffffffff811115614153576141526133f5565b5b61415f89828a016138ab565b965050602061417089828a016138f0565b955050604061418189828a016138f0565b945050606061419289828a01613443565b93505060806141a389828a01613443565b92505060a087013567ffffffffffffffff8111156141c4576141c36133f5565b5b6141d089828a016138ab565b9150509295509295509295565b600080604083850312156141f4576141f36133f0565b5b6000614202858286016138f0565b925050602061421385828601613443565b9150509250929050565b6142268161398b565b82525050565b61423581613d84565b82525050565b600060a082019050614250600083018861421d565b61425d602083018761421d565b61426a604083018661422c565b6142776060830185613961565b6142846080830184613e28565b9695505050505050565b6000806000606084860312156142a7576142a66133f0565b5b60006142b586828701613443565b935050602084013567ffffffffffffffff8111156142d6576142d56133f5565b5b6142e2868287016138ab565b925050604084013567ffffffffffffffff811115614303576143026133f5565b5b61430f868287016138ab565b9150509250925092565b600081519050919050565b600082825260208201905092915050565b6000819050602082019050919050565b60a08201600082015161435b6000850182613d4e565b50602082015161436e6020850182613d4e565b5060408201516143816040850182613d96565b50606082015161439460608501826135da565b5060808201516143a760808501826134bb565b50505050565b60006143b98383614345565b60a08301905092915050565b6000602082019050919050565b60006143dd82614319565b6143e78185614324565b93506143f283614335565b8060005b8381101561442357815161440a88826143ad565b9750614415836143c5565b9250506001810190506143f6565b5085935050505092915050565b6000602082019050818103600083015261444a81846143d2565b905092915050565b7f4e487b7100000000000000000000000000000000000000000000000000000000600052603260045260246000fd5b7f4e487b7100000000000000000000000000000000000000000000000000000000600052602260045260246000fd5b600060028204905060018216806144c857607f821691505b602082108114156144dc576144db614481565b5b50919050565b7f4e487b7100000000000000000000000000000000000000000000000000000000600052601160045260246000fd5b600061451c826134b1565b91507fffffffffffffffffffffffffffffffffffffffffffffffffffffffffffffffff82141561454f5761454e6144e2565b5b600182019050919050565b600081905092915050565b6000614570826134ca565b61457a818561455a565b935061458a8185602086016134e6565b80840191505092915050565b60008160601b9050919050565b60006145ae82614596565b9050919050565b60006145c0826145a3565b9050919050565b6145d86145d38261341a565b6145b5565b82525050565b6000819050919050565b6145f96145f4826134b1565b6145de565b82525050565b600061460b8286614565565b915061461782856145c7565b60148201915061462782846145e8565b602082019150819050949350505050565b7f596f7520617265206e6f7420616e206f776e65722e0000000000000000000000600082015250565b600061466e601583613e52565b915061467982614638565b602082019050919050565b6000602082019050818103600083015261469d81614661565b9050919050565b60008160001c9050919050565b6000819050919050565b60006146ce6146c9836146a4565b6146b1565b9050919050565b600060ff82169050919050565b60006146f56146f0836146a4565b6146d5565b9050919050565b60008160081c9050919050565b600073ffffffffffffffffffffffffffffffffffffffff82169050919050565b600061473c614737836146fc565b614709565b9050919050565b6000819050919050565b600061476061475b836146a4565b614743565b9050919050565b60a08201600080830154905061477c816146bb565b6147896000860182613d4e565b506001830154905061479a816146bb565b6147a76020860182613d4e565b50600283015490506147b8816146e2565b6147c56040860182613d96565b506147cf81614729565b6147dc60608601826135da565b50600383015490506147ed8161474d565b6147fa60808601826134bb565b5050505050565b600060a0820190506148166000830184614767565b92915050565b60008190508160005260206000209050919050565b6000815461483e816144b0565b61484881866134d5565b945060018216600081146148635760018114614875576148a8565b60ff19831686526020860193506148a8565b61487e8561481c565b60005b838110156148a057815481890152600182019150602081019050614881565b808801955050505b50505092915050565b600060ff82169050919050565b60006148d16148cc836146a4565b6148b1565b9050919050565b60006148eb6148e6836146a4565b614709565b9050919050565b60008160a01c9050919050565b600060ff82169050919050565b600061491f61491a836148f2565b6148ff565b9050919050565b60006101408301600080840154905061493e8161474d565b61494b60008701826134bb565b506001840185830360208701526149628382614831565b92505060028401549050614975816148be565b61498260408701826135cb565b506003840185830360608701526149998382614831565b925050600484015490506149ac816148d8565b6149b960808701826135da565b50600584015490506149ca816148d8565b6149d760a08701826135da565b50600684015490506149e8816148d8565b6149f560c08701826135da565b506149ff8161490c565b614a0c60e08701826135f5565b5060078401549050614a1d8161474d565b614a2b6101008701826134bb565b5060088401858303610120870152614a438382614831565b925050819250505092915050565b60006020820190508181036000830152614a6b8184614926565b905092915050565b600060ff82169050919050565b6000614a93614a8e836146fc565b614a73565b9050919050565b60008160101c9050919050565b600060ff82169050919050565b6000614ac7614ac283614a9a565b614aa7565b9050919050565b60008160181c9050919050565b6000614aee614ae983614ace565b614709565b9050919050565b600061016083016000808401549050614b0d8161474d565b614b1a60008701826134bb565b50600184018583036020870152614b318382614831565b925050600284018583036040870152614b4a8382614831565b92505060038401549050614b5d816148be565b614b6a60608701826135cb565b50614b7481614a80565b614b816080870182613aa1565b50614b8b81614ab4565b614b9860a0870182613ae9565b50614ba281614adb565b614baf60c08701826135da565b5060048401549050614bc0816148d8565b614bcd60e08701826135da565b5060058401549050614bde816148d8565b614bec6101008701826135da565b5060068401549050614bfd8161474d565b614c0b6101208701826134bb565b5060078401858303610140870152614c238382614831565b925050819250505092915050565b60006020820190508181036000830152614c4b8184614af5565b90509291505056fea26469706673582212206cf119cd1169ce2fc3fef8acdbed7d28d74a86aaa14debbd8c9a8688eccb85c564736f6c634300080a0033",
  "immutableReferences": {},
  "source": "// SPDX-License-Identifier: MIT\r\npragma solidity >=0.8.0 <0.9.0;\r\n\r\nimport \"./UserChain.sol\";\r\n\r\ncontract ProjectChain is UserChain {\r\n\r\n    constructor() {\r\n    }\r\n\r\n    modifier onlyUserProject() {\r\n        // User memory sessionUser = userChain.getUserInfo(msg.sender);\r\n        // require(\r\n        //     sessionUser._role == Roles.UserProject,\r\n        //     \"You don't have the rights for this resource.\"\r\n        // );\r\n        _;\r\n    }\r\n\r\n    modifier onlySupervisor() {\r\n        // User memory sessionUser = userChain.getUserInfo(msg.sender);\r\n        // require(\r\n        //     sessionUser._role == Roles.Supervisor,\r\n        //     \"You don't have the rights for this resource.\"\r\n        // );\r\n        _;\r\n    }\r\n\r\n    modifier onlyCompany() {\r\n        // User memory sessionUser = userChain.getUserInfo(msg.sender);\r\n        // require(\r\n        //     sessionUser._role == Roles.Company,\r\n        //     \"You don't have the rights for this resource.\"\r\n        // );\r\n        _;\r\n    }\r\n\r\n\r\n    /**  PROJECT INITIATOR  */\r\n\r\n    mapping(address => Project) public projects;\r\n    uint256 public projectsCounter = 0;\r\n    address[] public projectsAddress;\r\n\r\n    function createUniqueProjectAddress(string memory _name, uint256 _index) public view returns (address) {\r\n        return address(uint160(uint256(keccak256(abi.encodePacked(_name, msg.sender, _index)))));\r\n    }\r\n\r\n    function createProject(\r\n        address _projectAddress,\r\n        string memory _name,\r\n        uint256 _status,\r\n        string memory _ipfsFileCID,\r\n        string memory _signature\r\n    ) public onlyUserProject {\r\n        projects[_projectAddress] = Project(\r\n            projectsCounter,\r\n            _name,\r\n            ProjectStatus(_status),\r\n            _ipfsFileCID,\r\n            _projectAddress,\r\n            msg.sender,\r\n            address(0x0),\r\n            false,\r\n            block.timestamp,\r\n            _signature\r\n        );\r\n\r\n        emit ProjectEvent(projects[_projectAddress], _projectAddress, address(0x0));\r\n        projectsAddress.push(_projectAddress);\r\n        projectsCounter++;\r\n    }\r\n\r\n    function updateProject(\r\n        address _projectAddress,\r\n        string memory _ipfsFileCID,\r\n        string memory _signature\r\n    ) public onlyUserProject {\r\n        projects[_projectAddress]._ipfsFileCID = _ipfsFileCID;\r\n        projects[_projectAddress]._signature = _signature;\r\n\r\n        emit ProjectEvent(projects[_projectAddress], _projectAddress, address(0x0));\r\n    }\r\n\r\n    function getProjectInfo(address _address)\r\n        public\r\n        view\r\n        returns (Project memory)\r\n    {\r\n        //require(msg.sender != address(0x0), \"Address is not valid.\");\r\n        return projects[_address];\r\n    }\r\n\r\n    function getProjectsByUser(address _walletAddress) public view returns (Project[] memory) {\r\n        Project[] memory allProjects;\r\n        if (projectsCounter == 0) return allProjects;\r\n\r\n        allProjects = new Project[](projectsCounter);\r\n        for (uint256 index = 0; index < projectsCounter; index++) {\r\n            address _projectAddress = projectsAddress[index];\r\n            if (_walletAddress == projects[_projectAddress]._signerAddress) {\r\n                Project storage project = projects[_projectAddress];\r\n                allProjects[index] = project;\r\n            }\r\n        }\r\n        return allProjects;\r\n    }\r\n\r\n    function getProjectsByCompany(address _companyAddress) public view returns (Project[] memory) {\r\n        Project[] memory allProjects;\r\n        if (projectsCounter == 0) return allProjects;\r\n\r\n        allProjects = new Project[](projectsCounter);\r\n        for (uint256 index = 0; index < projectsCounter; index++) {\r\n            address _projectAddress = projectsAddress[index];\r\n            if (_companyAddress == projects[_projectAddress]._companyAddress) {\r\n                Project storage project = projects[_projectAddress];\r\n                allProjects[index] = project;\r\n            }\r\n        }\r\n        return allProjects;\r\n    }\r\n\r\n\r\n/*\r\n    function getAllProjects() public view returns (Project[] memory) {\r\n        Project[] memory allProjects;\r\n        if (projectsCounter == 0) return allProjects;\r\n\r\n        allProjects = new Project[](projectsCounter);\r\n        for (uint256 index = 0; index < projectsCounter; index++) {\r\n            address _projectAddress = projectsAddress[index];\r\n            Project storage project = projects[_projectAddress];\r\n            allProjects[index] = project;\r\n        }\r\n        return allProjects;\r\n    }\r\n*/\r\n\r\n    /**  Requests  */\r\n\r\n    mapping(address => Request) public requests;\r\n    uint256 public requestsCounter = 0;\r\n    address[] public requestsAddress;\r\n\r\n    function createUniqueRequestAddress(string memory _title, uint256 _index) public view returns (address) {\r\n        return address(uint160(uint256(keccak256(abi.encodePacked(_title, msg.sender, _index)))));\r\n    }\r\n\r\n    function createRequest(\r\n        string memory _title,\r\n        uint256 _projectStatus,\r\n        uint256 _requestStatus,\r\n        address _projectAddress,\r\n        address _requestAddress,\r\n        string memory _signature\r\n    ) public {\r\n        //require(projects[_projectAddress]._status == ProjectStatus.Created, \"Steps must follow accordingly\");\r\n        //require(ProjectStatus.ToApprove == RequestStatus.UnApproved, \"\");\r\n        //require(ProjectStatus.ToApprove == RequestStatus.Rejected, \"\");\r\n\r\n        RequestType _requestType;\r\n        if (ProjectStatus(_projectStatus) == ProjectStatus.StartProject) {\r\n            _requestType = RequestType.CompanyReq;\r\n        } else {\r\n            _requestType = RequestType.SupervisorReq;\r\n        }\r\n\r\n        requests[_requestAddress] = Request(\r\n            requestsCounter,\r\n            _title,\r\n            \"\",\r\n            ProjectStatus(_projectStatus),\r\n            RequestStatus(_requestStatus),\r\n            RequestType(_requestType),\r\n            _projectAddress,\r\n            _requestAddress,\r\n            msg.sender,\r\n            block.timestamp,\r\n            _signature\r\n        );\r\n\r\n        emit RequestEvent(requests[_requestAddress], _requestAddress, _projectAddress);\r\n        requestsAddress.push(_requestAddress);\r\n        requestsCounter++;\r\n    }\r\n\r\n    function updateRequest(\r\n        string memory _comments,\r\n        uint256 _requestStatus,\r\n        uint256 _projectStatus,\r\n        address _projectAddress,\r\n        address _requestAddress,\r\n        string memory _signature\r\n    ) public {\r\n        // Update Requests Mapping and Struct Array\r\n        requests[_requestAddress]._comments = _comments;\r\n        requests[_requestAddress]._requestStatus = RequestStatus(_requestStatus);\r\n        requests[_requestAddress]._signature = _signature;\r\n        emit RequestEvent(requests[_requestAddress], _requestAddress, _projectAddress);\r\n\r\n        // Update Project Mapping and Struct Array\r\n        if (RequestStatus.Approved == RequestStatus(_requestStatus)) {\r\n            projects[_projectAddress]._status = ProjectStatus(_projectStatus);\r\n            emit ProjectEvent(projects[_projectAddress], _projectAddress, address(0x0));\r\n        }\r\n    }\r\n\r\n/*\r\n    function getAllRequests() public view returns (Request[] memory) {\r\n        Request[] memory allRequests = new Request[](requestsCounter);\r\n        for (uint256 index = 0; index < requestsCounter; index++) {\r\n            address _requestAddress = requestsAddress[index];\r\n            Request storage request = requests[_requestAddress];\r\n            allRequests[index] = request;\r\n        }\r\n        return allRequests;\r\n    }\r\n\r\n    function getProjectRequests(address _projectAddress) public view returns (Request[] memory) {\r\n        Request[] memory allRequests;\r\n        for (uint256 index = 0; index < requestsCounter; index++) {\r\n            address _requestAddress = requestsAddress[index];\r\n            Request storage request = requests[_requestAddress];\r\n            if (_projectAddress == request._projectAddress) {\r\n                allRequests[index] = request;\r\n            }\r\n        }\r\n        return allRequests;\r\n    }\r\n*/\r\n\r\n    function getLastProjectRequest(address _projectAddress, address _requestAddress)\r\n        public view returns (Request memory)\r\n    {\r\n        Request memory request;\r\n        if (requestsCounter > 0) {\r\n            if (requests[_requestAddress]._projectAddress == _projectAddress) {\r\n                request = requests[_requestAddress];\r\n            }\r\n        }\r\n        return request;\r\n    }\r\n\r\n\r\n\r\n}\r\n",
  "sourcePath": "/mnt/c/Users/Beniamin/source/repos/DissertationProject/contracts/ProjectChain.sol",
  "compiler": {
    "name": "solc",
    "version": "0.8.10+commit.fc410830.Emscripten.clang"
  },
  "schemaVersion": "3.4.3",
  "updatedAt": "2021-12-11T19:08:00.507Z",
  "networkType": "ethereum",
  "devdoc": {
    "kind": "dev",
    "methods": {},
    "version": 1
  },
  "userdoc": {
    "kind": "user",
    "methods": {
      "projects(address)": {
        "notice": "PROJECT INITIATOR  "
      },
      "requests(address)": {
        "notice": "Requests  "
      }
    },
    "version": 1
  }
}