{
  "contractName": "Project",
  "abi": [
    {
      "inputs": [],
      "stateMutability": "nonpayable",
      "type": "constructor"
    },
    {
      "anonymous": false,
      "inputs": [
        {
          "indexed": false,
          "internalType": "string",
          "name": "_name",
          "type": "string"
        },
        {
          "indexed": false,
          "internalType": "string",
          "name": "_description",
          "type": "string"
        },
        {
          "indexed": false,
          "internalType": "enum Project.ProjectStatus",
          "name": "_status",
          "type": "uint8"
        }
      ],
      "name": "CreateProject",
      "type": "event"
    },
    {
      "anonymous": false,
      "inputs": [
        {
          "indexed": false,
          "internalType": "uint256",
          "name": "index",
          "type": "uint256"
        },
        {
          "indexed": true,
          "internalType": "enum Project.ProjectStatus",
          "name": "status",
          "type": "uint8"
        },
        {
          "indexed": true,
          "internalType": "address",
          "name": "projectAddress",
          "type": "address"
        }
      ],
      "name": "ProjectStatusChanged",
      "type": "event"
    },
    {
      "anonymous": false,
      "inputs": [
        {
          "indexed": false,
          "internalType": "uint256",
          "name": "_indexRequest",
          "type": "uint256"
        },
        {
          "indexed": false,
          "internalType": "enum Project.RequestStatus",
          "name": "_status",
          "type": "uint8"
        },
        {
          "components": [
            {
              "internalType": "uint256",
              "name": "index",
              "type": "uint256"
            },
            {
              "internalType": "string",
              "name": "name",
              "type": "string"
            },
            {
              "internalType": "string",
              "name": "description",
              "type": "string"
            },
            {
              "internalType": "enum Project.ProjectStatus",
              "name": "projectStatus",
              "type": "uint8"
            },
            {
              "internalType": "string",
              "name": "ipfsFileCID",
              "type": "string"
            }
          ],
          "indexed": false,
          "internalType": "struct Project.S_Project",
          "name": "_project",
          "type": "tuple"
        },
        {
          "indexed": false,
          "internalType": "enum Project.ProjectStatus",
          "name": "_projectStatus",
          "type": "uint8"
        },
        {
          "indexed": false,
          "internalType": "address",
          "name": "_subjectAddress",
          "type": "address"
        }
      ],
      "name": "UpdateCompanyRequestStatus",
      "type": "event"
    },
    {
      "anonymous": false,
      "inputs": [
        {
          "indexed": false,
          "internalType": "uint256",
          "name": "_indexRequest",
          "type": "uint256"
        },
        {
          "indexed": false,
          "internalType": "enum Project.RequestStatus",
          "name": "_status",
          "type": "uint8"
        },
        {
          "components": [
            {
              "internalType": "uint256",
              "name": "index",
              "type": "uint256"
            },
            {
              "internalType": "string",
              "name": "name",
              "type": "string"
            },
            {
              "internalType": "string",
              "name": "description",
              "type": "string"
            },
            {
              "internalType": "enum Project.ProjectStatus",
              "name": "projectStatus",
              "type": "uint8"
            },
            {
              "internalType": "string",
              "name": "ipfsFileCID",
              "type": "string"
            }
          ],
          "indexed": false,
          "internalType": "struct Project.S_Project",
          "name": "_project",
          "type": "tuple"
        },
        {
          "indexed": false,
          "internalType": "enum Project.ProjectStatus",
          "name": "_projectStatus",
          "type": "uint8"
        },
        {
          "indexed": false,
          "internalType": "address",
          "name": "_subjectAddress",
          "type": "address"
        }
      ],
      "name": "UpdateSupervisorRequestStatus",
      "type": "event"
    },
    {
      "anonymous": false,
      "inputs": [
        {
          "indexed": false,
          "internalType": "string",
          "name": "username",
          "type": "string"
        },
        {
          "indexed": false,
          "internalType": "string",
          "name": "firstname",
          "type": "string"
        },
        {
          "indexed": false,
          "internalType": "string",
          "name": "lastname",
          "type": "string"
        },
        {
          "indexed": false,
          "internalType": "string",
          "name": "email",
          "type": "string"
        },
        {
          "indexed": false,
          "internalType": "enum User.Roles",
          "name": "role",
          "type": "uint8"
        },
        {
          "indexed": false,
          "internalType": "address",
          "name": "walletAddress",
          "type": "address"
        }
      ],
      "name": "UserChanges",
      "type": "event"
    },
    {
      "anonymous": false,
      "inputs": [
        {
          "indexed": true,
          "internalType": "address",
          "name": "_walletAddress",
          "type": "address"
        },
        {
          "indexed": true,
          "internalType": "string",
          "name": "_username",
          "type": "string"
        },
        {
          "indexed": false,
          "internalType": "string",
          "name": "_email",
          "type": "string"
        },
        {
          "indexed": false,
          "internalType": "string",
          "name": "_firstname",
          "type": "string"
        },
        {
          "indexed": false,
          "internalType": "string",
          "name": "_lastname",
          "type": "string"
        },
        {
          "indexed": true,
          "internalType": "enum User.Roles",
          "name": "_role",
          "type": "uint8"
        }
      ],
      "name": "UserRegistered",
      "type": "event"
    },
    {
      "inputs": [
        {
          "internalType": "uint256",
          "name": "",
          "type": "uint256"
        }
      ],
      "name": "allProjects",
      "outputs": [
        {
          "internalType": "uint256",
          "name": "index",
          "type": "uint256"
        },
        {
          "internalType": "string",
          "name": "name",
          "type": "string"
        },
        {
          "internalType": "string",
          "name": "description",
          "type": "string"
        },
        {
          "internalType": "enum Project.ProjectStatus",
          "name": "projectStatus",
          "type": "uint8"
        },
        {
          "internalType": "string",
          "name": "ipfsFileCID",
          "type": "string"
        }
      ],
      "stateMutability": "view",
      "type": "function",
      "constant": true
    },
    {
      "inputs": [
        {
          "internalType": "uint256",
          "name": "",
          "type": "uint256"
        }
      ],
      "name": "allUsers",
      "outputs": [
        {
          "internalType": "string",
          "name": "username",
          "type": "string"
        },
        {
          "internalType": "string",
          "name": "email",
          "type": "string"
        },
        {
          "internalType": "string",
          "name": "firstname",
          "type": "string"
        },
        {
          "internalType": "string",
          "name": "lastname",
          "type": "string"
        },
        {
          "internalType": "enum User.Roles",
          "name": "role",
          "type": "uint8"
        },
        {
          "internalType": "address",
          "name": "walletAddress",
          "type": "address"
        }
      ],
      "stateMutability": "view",
      "type": "function",
      "constant": true
    },
    {
      "inputs": [
        {
          "internalType": "uint256",
          "name": "_role",
          "type": "uint256"
        },
        {
          "internalType": "address",
          "name": "_walletAddress",
          "type": "address"
        }
      ],
      "name": "changeUserRole",
      "outputs": [
        {
          "internalType": "string",
          "name": "",
          "type": "string"
        }
      ],
      "stateMutability": "nonpayable",
      "type": "function"
    },
    {
      "inputs": [
        {
          "internalType": "uint256",
          "name": "",
          "type": "uint256"
        }
      ],
      "name": "companyRequests",
      "outputs": [
        {
          "internalType": "uint256",
          "name": "index",
          "type": "uint256"
        },
        {
          "internalType": "string",
          "name": "description",
          "type": "string"
        },
        {
          "internalType": "enum Project.RequestStatus",
          "name": "status",
          "type": "uint8"
        },
        {
          "components": [
            {
              "internalType": "uint256",
              "name": "index",
              "type": "uint256"
            },
            {
              "internalType": "string",
              "name": "name",
              "type": "string"
            },
            {
              "internalType": "string",
              "name": "description",
              "type": "string"
            },
            {
              "internalType": "enum Project.ProjectStatus",
              "name": "projectStatus",
              "type": "uint8"
            },
            {
              "internalType": "string",
              "name": "ipfsFileCID",
              "type": "string"
            }
          ],
          "internalType": "struct Project.S_Project",
          "name": "project",
          "type": "tuple"
        },
        {
          "internalType": "address",
          "name": "subjectAddress",
          "type": "address"
        }
      ],
      "stateMutability": "view",
      "type": "function",
      "constant": true
    },
    {
      "inputs": [],
      "name": "getAllUsers",
      "outputs": [
        {
          "components": [
            {
              "internalType": "string",
              "name": "username",
              "type": "string"
            },
            {
              "internalType": "string",
              "name": "email",
              "type": "string"
            },
            {
              "internalType": "string",
              "name": "firstname",
              "type": "string"
            },
            {
              "internalType": "string",
              "name": "lastname",
              "type": "string"
            },
            {
              "internalType": "enum User.Roles",
              "name": "role",
              "type": "uint8"
            },
            {
              "internalType": "address",
              "name": "walletAddress",
              "type": "address"
            }
          ],
          "internalType": "struct User.S_UserData[]",
          "name": "",
          "type": "tuple[]"
        }
      ],
      "stateMutability": "view",
      "type": "function",
      "constant": true
    },
    {
      "inputs": [],
      "name": "getUserAddresses",
      "outputs": [
        {
          "internalType": "address[]",
          "name": "",
          "type": "address[]"
        }
      ],
      "stateMutability": "view",
      "type": "function",
      "constant": true
    },
    {
      "inputs": [
        {
          "internalType": "address",
          "name": "_address",
          "type": "address"
        }
      ],
      "name": "getUserInfo",
      "outputs": [
        {
          "components": [
            {
              "internalType": "string",
              "name": "username",
              "type": "string"
            },
            {
              "internalType": "string",
              "name": "email",
              "type": "string"
            },
            {
              "internalType": "string",
              "name": "firstname",
              "type": "string"
            },
            {
              "internalType": "string",
              "name": "lastname",
              "type": "string"
            },
            {
              "internalType": "enum User.Roles",
              "name": "role",
              "type": "uint8"
            },
            {
              "internalType": "address",
              "name": "walletAddress",
              "type": "address"
            }
          ],
          "internalType": "struct User.S_UserData",
          "name": "",
          "type": "tuple"
        }
      ],
      "stateMutability": "view",
      "type": "function",
      "constant": true
    },
    {
      "inputs": [],
      "name": "owner",
      "outputs": [
        {
          "internalType": "address",
          "name": "",
          "type": "address"
        }
      ],
      "stateMutability": "view",
      "type": "function",
      "constant": true
    },
    {
      "inputs": [
        {
          "internalType": "uint256",
          "name": "",
          "type": "uint256"
        }
      ],
      "name": "projectIds",
      "outputs": [
        {
          "internalType": "uint256",
          "name": "",
          "type": "uint256"
        }
      ],
      "stateMutability": "view",
      "type": "function",
      "constant": true
    },
    {
      "inputs": [
        {
          "internalType": "uint256",
          "name": "",
          "type": "uint256"
        }
      ],
      "name": "projects",
      "outputs": [
        {
          "internalType": "uint256",
          "name": "index",
          "type": "uint256"
        },
        {
          "internalType": "string",
          "name": "name",
          "type": "string"
        },
        {
          "internalType": "string",
          "name": "description",
          "type": "string"
        },
        {
          "internalType": "enum Project.ProjectStatus",
          "name": "projectStatus",
          "type": "uint8"
        },
        {
          "internalType": "string",
          "name": "ipfsFileCID",
          "type": "string"
        }
      ],
      "stateMutability": "view",
      "type": "function",
      "constant": true
    },
    {
      "inputs": [],
      "name": "projectsCount",
      "outputs": [
        {
          "internalType": "uint256",
          "name": "",
          "type": "uint256"
        }
      ],
      "stateMutability": "view",
      "type": "function",
      "constant": true
    },
    {
      "inputs": [
        {
          "internalType": "uint256",
          "name": "",
          "type": "uint256"
        }
      ],
      "name": "projectsStatus",
      "outputs": [
        {
          "internalType": "uint256",
          "name": "_index",
          "type": "uint256"
        },
        {
          "internalType": "enum Project.ProjectStatus",
          "name": "_status",
          "type": "uint8"
        },
        {
          "internalType": "address",
          "name": "_address",
          "type": "address"
        }
      ],
      "stateMutability": "view",
      "type": "function",
      "constant": true
    },
    {
      "inputs": [
        {
          "internalType": "string",
          "name": "_username",
          "type": "string"
        },
        {
          "internalType": "string",
          "name": "_email",
          "type": "string"
        },
        {
          "internalType": "string",
          "name": "_firstname",
          "type": "string"
        },
        {
          "internalType": "string",
          "name": "_lastname",
          "type": "string"
        },
        {
          "internalType": "uint256",
          "name": "_role",
          "type": "uint256"
        },
        {
          "internalType": "address",
          "name": "_walletAddress",
          "type": "address"
        }
      ],
      "name": "registerUser",
      "outputs": [],
      "stateMutability": "nonpayable",
      "type": "function"
    },
    {
      "inputs": [],
      "name": "statusChangedIndex",
      "outputs": [
        {
          "internalType": "uint256",
          "name": "",
          "type": "uint256"
        }
      ],
      "stateMutability": "view",
      "type": "function",
      "constant": true
    },
    {
      "inputs": [
        {
          "internalType": "uint256",
          "name": "",
          "type": "uint256"
        }
      ],
      "name": "supervisorRequests",
      "outputs": [
        {
          "internalType": "uint256",
          "name": "index",
          "type": "uint256"
        },
        {
          "internalType": "string",
          "name": "description",
          "type": "string"
        },
        {
          "internalType": "enum Project.RequestStatus",
          "name": "status",
          "type": "uint8"
        },
        {
          "components": [
            {
              "internalType": "uint256",
              "name": "index",
              "type": "uint256"
            },
            {
              "internalType": "string",
              "name": "name",
              "type": "string"
            },
            {
              "internalType": "string",
              "name": "description",
              "type": "string"
            },
            {
              "internalType": "enum Project.ProjectStatus",
              "name": "projectStatus",
              "type": "uint8"
            },
            {
              "internalType": "string",
              "name": "ipfsFileCID",
              "type": "string"
            }
          ],
          "internalType": "struct Project.S_Project",
          "name": "project",
          "type": "tuple"
        },
        {
          "internalType": "address",
          "name": "subjectAddress",
          "type": "address"
        }
      ],
      "stateMutability": "view",
      "type": "function",
      "constant": true
    },
    {
      "inputs": [
        {
          "internalType": "uint256",
          "name": "",
          "type": "uint256"
        }
      ],
      "name": "userAddresses",
      "outputs": [
        {
          "internalType": "address",
          "name": "",
          "type": "address"
        }
      ],
      "stateMutability": "view",
      "type": "function",
      "constant": true
    },
    {
      "inputs": [
        {
          "internalType": "address",
          "name": "",
          "type": "address"
        }
      ],
      "name": "userInfo",
      "outputs": [
        {
          "internalType": "string",
          "name": "username",
          "type": "string"
        },
        {
          "internalType": "string",
          "name": "email",
          "type": "string"
        },
        {
          "internalType": "string",
          "name": "firstname",
          "type": "string"
        },
        {
          "internalType": "string",
          "name": "lastname",
          "type": "string"
        },
        {
          "internalType": "enum User.Roles",
          "name": "role",
          "type": "uint8"
        },
        {
          "internalType": "address",
          "name": "walletAddress",
          "type": "address"
        }
      ],
      "stateMutability": "view",
      "type": "function",
      "constant": true
    },
    {
      "inputs": [],
      "name": "usersCount",
      "outputs": [
        {
          "internalType": "uint256",
          "name": "",
          "type": "uint256"
        }
      ],
      "stateMutability": "view",
      "type": "function",
      "constant": true
    },
    {
      "inputs": [
        {
          "internalType": "string",
          "name": "_name",
          "type": "string"
        },
        {
          "internalType": "string",
          "name": "_description",
          "type": "string"
        },
        {
          "internalType": "uint256",
          "name": "_status",
          "type": "uint256"
        },
        {
          "internalType": "string",
          "name": "_ipfsFileCID",
          "type": "string"
        }
      ],
      "name": "createProject",
      "outputs": [],
      "stateMutability": "nonpayable",
      "type": "function"
    },
    {
      "inputs": [
        {
          "internalType": "uint256",
          "name": "_index",
          "type": "uint256"
        }
      ],
      "name": "getProjectInfo",
      "outputs": [
        {
          "components": [
            {
              "internalType": "uint256",
              "name": "index",
              "type": "uint256"
            },
            {
              "internalType": "string",
              "name": "name",
              "type": "string"
            },
            {
              "internalType": "string",
              "name": "description",
              "type": "string"
            },
            {
              "internalType": "enum Project.ProjectStatus",
              "name": "projectStatus",
              "type": "uint8"
            },
            {
              "internalType": "string",
              "name": "ipfsFileCID",
              "type": "string"
            }
          ],
          "internalType": "struct Project.S_Project",
          "name": "",
          "type": "tuple"
        }
      ],
      "stateMutability": "view",
      "type": "function",
      "constant": true
    },
    {
      "inputs": [],
      "name": "getAllProjects",
      "outputs": [
        {
          "components": [
            {
              "internalType": "uint256",
              "name": "index",
              "type": "uint256"
            },
            {
              "internalType": "string",
              "name": "name",
              "type": "string"
            },
            {
              "internalType": "string",
              "name": "description",
              "type": "string"
            },
            {
              "internalType": "enum Project.ProjectStatus",
              "name": "projectStatus",
              "type": "uint8"
            },
            {
              "internalType": "string",
              "name": "ipfsFileCID",
              "type": "string"
            }
          ],
          "internalType": "struct Project.S_Project[]",
          "name": "",
          "type": "tuple[]"
        }
      ],
      "stateMutability": "view",
      "type": "function",
      "constant": true
    },
    {
      "inputs": [],
      "name": "getProjectIds",
      "outputs": [
        {
          "internalType": "uint256[]",
          "name": "",
          "type": "uint256[]"
        }
      ],
      "stateMutability": "view",
      "type": "function",
      "constant": true
    },
    {
      "inputs": [
        {
          "internalType": "string",
          "name": "_text",
          "type": "string"
        },
        {
          "internalType": "address",
          "name": "_addr",
          "type": "address"
        }
      ],
      "name": "createUniqueIdentifier",
      "outputs": [
        {
          "internalType": "bytes32",
          "name": "",
          "type": "bytes32"
        }
      ],
      "stateMutability": "pure",
      "type": "function",
      "constant": true
    },
    {
      "inputs": [
        {
          "internalType": "string",
          "name": "_text",
          "type": "string"
        },
        {
          "internalType": "address",
          "name": "_addr",
          "type": "address"
        }
      ],
      "name": "createUniqueHexAddress",
      "outputs": [
        {
          "internalType": "address",
          "name": "",
          "type": "address"
        }
      ],
      "stateMutability": "pure",
      "type": "function",
      "constant": true
    },
    {
      "inputs": [
        {
          "internalType": "uint256",
          "name": "_status",
          "type": "uint256"
        },
        {
          "internalType": "address",
          "name": "_address",
          "type": "address"
        }
      ],
      "name": "changeProjectStatus",
      "outputs": [],
      "stateMutability": "nonpayable",
      "type": "function"
    },
    {
      "inputs": [
        {
          "internalType": "string",
          "name": "_description",
          "type": "string"
        },
        {
          "components": [
            {
              "internalType": "uint256",
              "name": "index",
              "type": "uint256"
            },
            {
              "internalType": "string",
              "name": "name",
              "type": "string"
            },
            {
              "internalType": "string",
              "name": "description",
              "type": "string"
            },
            {
              "internalType": "enum Project.ProjectStatus",
              "name": "projectStatus",
              "type": "uint8"
            },
            {
              "internalType": "string",
              "name": "ipfsFileCID",
              "type": "string"
            }
          ],
          "internalType": "struct Project.S_Project",
          "name": "_project",
          "type": "tuple"
        },
        {
          "internalType": "address",
          "name": "_subjectAddress",
          "type": "address"
        }
      ],
      "name": "requestProjectApprovalFromSupervisor",
      "outputs": [],
      "stateMutability": "nonpayable",
      "type": "function"
    },
    {
      "inputs": [
        {
          "internalType": "string",
          "name": "_description",
          "type": "string"
        },
        {
          "components": [
            {
              "internalType": "uint256",
              "name": "index",
              "type": "uint256"
            },
            {
              "internalType": "string",
              "name": "name",
              "type": "string"
            },
            {
              "internalType": "string",
              "name": "description",
              "type": "string"
            },
            {
              "internalType": "enum Project.ProjectStatus",
              "name": "projectStatus",
              "type": "uint8"
            },
            {
              "internalType": "string",
              "name": "ipfsFileCID",
              "type": "string"
            }
          ],
          "internalType": "struct Project.S_Project",
          "name": "_project",
          "type": "tuple"
        },
        {
          "internalType": "address",
          "name": "_subjectAddress",
          "type": "address"
        }
      ],
      "name": "requestProjectCompleteFromSupervisor",
      "outputs": [],
      "stateMutability": "nonpayable",
      "type": "function"
    },
    {
      "inputs": [
        {
          "internalType": "string",
          "name": "_description",
          "type": "string"
        },
        {
          "components": [
            {
              "internalType": "uint256",
              "name": "index",
              "type": "uint256"
            },
            {
              "internalType": "string",
              "name": "name",
              "type": "string"
            },
            {
              "internalType": "string",
              "name": "description",
              "type": "string"
            },
            {
              "internalType": "enum Project.ProjectStatus",
              "name": "projectStatus",
              "type": "uint8"
            },
            {
              "internalType": "string",
              "name": "ipfsFileCID",
              "type": "string"
            }
          ],
          "internalType": "struct Project.S_Project",
          "name": "_project",
          "type": "tuple"
        },
        {
          "internalType": "address",
          "name": "_subjectAddress",
          "type": "address"
        }
      ],
      "name": "requestStartProjectToCompanyBuilder",
      "outputs": [],
      "stateMutability": "nonpayable",
      "type": "function"
    }
  ],
  "bytecode": "0x6080604052600060025560006005556000600b5534801561001f57600080fd5b5033600160006101000a81548173ffffffffffffffffffffffffffffffffffffffff021916908373ffffffffffffffffffffffffffffffffffffffff16021790555033600760006101000a81548173ffffffffffffffffffffffffffffffffffffffff021916908373ffffffffffffffffffffffffffffffffffffffff160217905550614bfb806100b16000396000f3fe608060405234801561001057600080fd5b50600436106101c45760003560e01c80637748587f116100f9578063a2bdedf411610097578063c73b302e11610071578063c73b302e1461057d578063d40d4a801461059b578063e2842d79146105cf578063fabf5968146105ed576101c4565b8063a2bdedf4146104f8578063a591efde1461052d578063b42302a21461054b576101c4565b80638da5cb5b116100d35780638da5cb5b146104725780639100978614610490578063911c29a6146104c0578063953dcd2a146104dc576101c4565b80637748587f1461040457806380d03829146104205780638c86a1d71461043e576101c4565b8063502c9bd5116101665780636386c1c7116101405780636386c1c71461037e578063644fa658146103ae5780636ba13a82146103ca5780636fe3d194146103e8576101c4565b8063502c9bd5146102ea57806353b3194c1461031a5780636132844f1461034e576101c4565b80631a6cee2f116101a25780631a6cee2f1461026257806329a613b514610280578063465757141461029e57806348c35ad4146102ba576101c4565b8063107046bd146101c957806313b4078f146101fd5780631959a0021461022d575b600080fd5b6101e360048036038101906101de91906135ca565b61061d565b6040516101f4959493929190613716565b60405180910390f35b61021760048036038101906102129190613911565b6107f8565b604051610224919061397c565b60405180910390f35b61024760048036038101906102429190613997565b61082e565b60405161025996959493929190613a0c565b60405180910390f35b61026a610ab7565b6040516102779190613a89565b60405180910390f35b610288610abd565b6040516102959190613b62565b60405180910390f35b6102b860048036038101906102b39190613b84565b610b15565b005b6102d460048036038101906102cf91906135ca565b610dae565b6040516102e19190613a89565b60405180910390f35b61030460048036038101906102ff91906135ca565b610dd2565b604051610311919061397c565b60405180910390f35b610334600480360381019061032f91906135ca565b610e11565b604051610345959493929190613716565b60405180910390f35b61036860048036038101906103639190613911565b610ffc565b6040516103759190613c58565b60405180910390f35b61039860048036038101906103939190613997565b61102f565b6040516103a59190613d79565b60405180910390f35b6103c860048036038101906103c39190613d9b565b611360565b005b6103d26114b9565b6040516103df9190613a89565b60405180910390f35b61040260048036038101906103fd9190613eea565b6114bf565b005b61041e60048036038101906104199190613eea565b6116c9565b005b6104286118d3565b60405161043591906140ca565b60405180910390f35b610458600480360381019061045391906135ca565b611b2d565b6040516104699594939291906141b8565b60405180910390f35b61047a611e1d565b604051610487919061397c565b60405180910390f35b6104aa60048036038101906104a59190613d9b565b611e43565b6040516104b79190614219565b60405180910390f35b6104da60048036038101906104d5919061423b565b6120ee565b005b6104f660048036038101906104f19190613eea565b612660565b005b610512600480360381019061050d91906135ca565b61286a565b60405161052496959493929190613a0c565b60405180910390f35b610535612b03565b60405161054291906143e7565b60405180910390f35b610565600480360381019061056091906135ca565b612b91565b60405161057493929190614409565b60405180910390f35b610585612be8565b6040516105929190613a89565b60405180910390f35b6105b560048036038101906105b091906135ca565b612bee565b6040516105c69594939291906141b8565b60405180910390f35b6105d7612ede565b6040516105e491906145a0565b60405180910390f35b610607600480360381019061060291906135ca565b613216565b60405161061491906145c2565b60405180910390f35b600860205280600052604060002060009150905080600001549080600101805461064690614613565b80601f016020809104026020016040519081016040528092919081815260200182805461067290614613565b80156106bf5780601f10610694576101008083540402835291602001916106bf565b820191906000526020600020905b8154815290600101906020018083116106a257829003601f168201915b5050505050908060020180546106d490614613565b80601f016020809104026020016040519081016040528092919081815260200182805461070090614613565b801561074d5780601f106107225761010080835404028352916020019161074d565b820191906000526020600020905b81548152906001019060200180831161073057829003601f168201915b5050505050908060030160009054906101000a900460ff169080600401805461077590614613565b80601f01602080910402602001604051908101604052809291908181526020018280546107a190614613565b80156107ee5780601f106107c3576101008083540402835291602001916107ee565b820191906000526020600020905b8154815290600101906020018083116107d157829003601f168201915b5050505050905085565b6000828260405160200161080d9291906146c9565b6040516020818303038152906040528051906020012060001c905092915050565b600060205280600052604060002060009150905080600001805461085190614613565b80601f016020809104026020016040519081016040528092919081815260200182805461087d90614613565b80156108ca5780601f1061089f576101008083540402835291602001916108ca565b820191906000526020600020905b8154815290600101906020018083116108ad57829003601f168201915b5050505050908060010180546108df90614613565b80601f016020809104026020016040519081016040528092919081815260200182805461090b90614613565b80156109585780601f1061092d57610100808354040283529160200191610958565b820191906000526020600020905b81548152906001019060200180831161093b57829003601f168201915b50505050509080600201805461096d90614613565b80601f016020809104026020016040519081016040528092919081815260200182805461099990614613565b80156109e65780601f106109bb576101008083540402835291602001916109e6565b820191906000526020600020905b8154815290600101906020018083116109c957829003601f168201915b5050505050908060030180546109fb90614613565b80601f0160208091040260200160405190810160405280929190818152602001828054610a2790614613565b8015610a745780601f10610a4957610100808354040283529160200191610a74565b820191906000526020600020905b815481529060010190602001808311610a5757829003601f168201915b5050505050908060040160009054906101000a900460ff16908060040160019054906101000a900473ffffffffffffffffffffffffffffffffffffffff16905086565b60055481565b6060600c805480602002602001604051908101604052809291908181526020018280548015610b0b57602002820191906000526020600020905b815481526020019060010190808311610af7575b5050505050905090565b600b5460086000600b548152602001908152602001600020600001819055508360086000600b5481526020019081526020016000206001019080519060200190610b6092919061343e565b508260086000600b5481526020019081526020016000206002019080519060200190610b8d92919061343e565b50816005811115610ba157610ba061369f565b5b60086000600b54815260200190815260200160002060030160006101000a81548160ff02191690836005811115610bdb57610bda61369f565b5b02179055508060086000600b5481526020019081526020016000206004019080519060200190610c0c92919061343e565b507f274f009187cb91dd70ef9fd455c66e7263b5fc9746490cba15a3be400f580fa88484846005811115610c4357610c4261369f565b5b604051610c52939291906146f1565b60405180910390a1600c600b549080600181540180825580915050600190039060005260206000200160009091909190915055600d6040518060a00160405280600b548152602001868152602001858152602001846005811115610cb957610cb861369f565b5b6005811115610ccb57610cca61369f565b5b8152602001838152509080600181540180825580915050600190039060005260206000209060050201600090919091909150600082015181600001556020820151816001019080519060200190610d2392919061343e565b506040820151816002019080519060200190610d4092919061343e565b5060608201518160030160006101000a81548160ff02191690836005811115610d6c57610d6b61369f565b5b02179055506080820151816004019080519060200190610d8d92919061343e565b505050600b6000815480929190610da390614765565b919050555050505050565b600c8181548110610dbe57600080fd5b906000526020600020016000915090505481565b60038181548110610de257600080fd5b906000526020600020016000915054906101000a900473ffffffffffffffffffffffffffffffffffffffff1681565b600d8181548110610e2157600080fd5b9060005260206000209060050201600091509050806000015490806001018054610e4a90614613565b80601f0160208091040260200160405190810160405280929190818152602001828054610e7690614613565b8015610ec35780601f10610e9857610100808354040283529160200191610ec3565b820191906000526020600020905b815481529060010190602001808311610ea657829003601f168201915b505050505090806002018054610ed890614613565b80601f0160208091040260200160405190810160405280929190818152602001828054610f0490614613565b8015610f515780601f10610f2657610100808354040283529160200191610f51565b820191906000526020600020905b815481529060010190602001808311610f3457829003601f168201915b5050505050908060030160009054906101000a900460ff1690806004018054610f7990614613565b80601f0160208091040260200160405190810160405280929190818152602001828054610fa590614613565b8015610ff25780601f10610fc757610100808354040283529160200191610ff2565b820191906000526020600020905b815481529060010190602001808311610fd557829003601f168201915b5050505050905085565b600082826040516020016110119291906146c9565b60405160208183030381529060405280519060200120905092915050565b6110376134c4565b6000808373ffffffffffffffffffffffffffffffffffffffff1673ffffffffffffffffffffffffffffffffffffffff1681526020019081526020016000206040518060c001604052908160008201805461109090614613565b80601f01602080910402602001604051908101604052809291908181526020018280546110bc90614613565b80156111095780601f106110de57610100808354040283529160200191611109565b820191906000526020600020905b8154815290600101906020018083116110ec57829003601f168201915b5050505050815260200160018201805461112290614613565b80601f016020809104026020016040519081016040528092919081815260200182805461114e90614613565b801561119b5780601f106111705761010080835404028352916020019161119b565b820191906000526020600020905b81548152906001019060200180831161117e57829003601f168201915b505050505081526020016002820180546111b490614613565b80601f01602080910402602001604051908101604052809291908181526020018280546111e090614613565b801561122d5780601f106112025761010080835404028352916020019161122d565b820191906000526020600020905b81548152906001019060200180831161121057829003601f168201915b5050505050815260200160038201805461124690614613565b80601f016020809104026020016040519081016040528092919081815260200182805461127290614613565b80156112bf5780601f10611294576101008083540402835291602001916112bf565b820191906000526020600020905b8154815290600101906020018083116112a257829003601f168201915b505050505081526020016004820160009054906101000a900460ff1660038111156112ed576112ec61369f565b5b60038111156112ff576112fe61369f565b5b81526020016004820160019054906101000a900473ffffffffffffffffffffffffffffffffffffffff1673ffffffffffffffffffffffffffffffffffffffff1673ffffffffffffffffffffffffffffffffffffffff16815250509050919050565b600554600660006005548152602001908152602001600020600001819055508160058111156113925761139161369f565b5b60066000600554815260200190815260200160002060010160006101000a81548160ff021916908360058111156113cc576113cb61369f565b5b02179055508060066000600554815260200190815260200160002060010160016101000a81548173ffffffffffffffffffffffffffffffffffffffff021916908373ffffffffffffffffffffffffffffffffffffffff1602179055508073ffffffffffffffffffffffffffffffffffffffff168260058111156114525761145161369f565b5b60058111156114645761146361369f565b5b7f119b71e0e33421c153e29c9cf62d53667313969e57a1cffd506f579e87267d926005546040516114959190613a89565b60405180910390a3600560008154809291906114b090614765565b91905055505050565b60025481565b600460058111156114d3576114d261369f565b5b826060015160058111156114ea576114e961369f565b5b1461152a576040517f08c379a000000000000000000000000000000000000000000000000000000000815260040161152190614846565b60405180910390fd5b6000600a6000600f54815260200190815260200160002090508381600101908051906020019061155b92919061343e565b5060008160020160006101000a81548160ff021916908360018111156115845761158361369f565b5b021790555082816003016000820151816000015560208201518160010190805190602001906115b492919061343e565b5060408201518160020190805190602001906115d192919061343e565b5060608201518160030160006101000a81548160ff021916908360058111156115fd576115fc61369f565b5b0217905550608082015181600401908051906020019061161e92919061343e565b50905050818160080160006101000a81548173ffffffffffffffffffffffffffffffffffffffff021916908373ffffffffffffffffffffffffffffffffffffffff1602179055507fc0a7086e05590c8d9160aba8dc6a29b754eda15e93d2a2578429bc2fda6bdec3600f546000858660600151866040516116a3959493929190614866565b60405180910390a1600f60008154809291906116be90614765565b919050555050505050565b600060058111156116dd576116dc61369f565b5b826060015160058111156116f4576116f361369f565b5b14611734576040517f08c379a000000000000000000000000000000000000000000000000000000000815260040161172b90614932565b60405180910390fd5b6000600a6000600f54815260200190815260200160002090508381600101908051906020019061176592919061343e565b5060008160020160006101000a81548160ff0219169083600181111561178e5761178d61369f565b5b021790555082816003016000820151816000015560208201518160010190805190602001906117be92919061343e565b5060408201518160020190805190602001906117db92919061343e565b5060608201518160030160006101000a81548160ff021916908360058111156118075761180661369f565b5b0217905550608082015181600401908051906020019061182892919061343e565b50905050818160080160006101000a81548173ffffffffffffffffffffffffffffffffffffffff021916908373ffffffffffffffffffffffffffffffffffffffff1602179055507fc0a7086e05590c8d9160aba8dc6a29b754eda15e93d2a2578429bc2fda6bdec3600f546000858660600151866040516118ad959493929190614866565b60405180910390a1600f60008154809291906118c890614765565b919050555050505050565b6060600d805480602002602001604051908101604052809291908181526020016000905b82821015611b2457838290600052602060002090600502016040518060a00160405290816000820154815260200160018201805461193490614613565b80601f016020809104026020016040519081016040528092919081815260200182805461196090614613565b80156119ad5780601f10611982576101008083540402835291602001916119ad565b820191906000526020600020905b81548152906001019060200180831161199057829003601f168201915b505050505081526020016002820180546119c690614613565b80601f01602080910402602001604051908101604052809291908181526020018280546119f290614613565b8015611a3f5780601f10611a1457610100808354040283529160200191611a3f565b820191906000526020600020905b815481529060010190602001808311611a2257829003601f168201915b505050505081526020016003820160009054906101000a900460ff166005811115611a6d57611a6c61369f565b5b6005811115611a7f57611a7e61369f565b5b8152602001600482018054611a9390614613565b80601f0160208091040260200160405190810160405280929190818152602001828054611abf90614613565b8015611b0c5780601f10611ae157610100808354040283529160200191611b0c565b820191906000526020600020905b815481529060010190602001808311611aef57829003601f168201915b505050505081525050815260200190600101906118f7565b50505050905090565b600a602052806000526040600020600091509050806000015490806001018054611b5690614613565b80601f0160208091040260200160405190810160405280929190818152602001828054611b8290614613565b8015611bcf5780601f10611ba457610100808354040283529160200191611bcf565b820191906000526020600020905b815481529060010190602001808311611bb257829003601f168201915b5050505050908060020160009054906101000a900460ff1690806003016040518060a001604052908160008201548152602001600182018054611c1190614613565b80601f0160208091040260200160405190810160405280929190818152602001828054611c3d90614613565b8015611c8a5780601f10611c5f57610100808354040283529160200191611c8a565b820191906000526020600020905b815481529060010190602001808311611c6d57829003601f168201915b50505050508152602001600282018054611ca390614613565b80601f0160208091040260200160405190810160405280929190818152602001828054611ccf90614613565b8015611d1c5780601f10611cf157610100808354040283529160200191611d1c565b820191906000526020600020905b815481529060010190602001808311611cff57829003601f168201915b505050505081526020016003820160009054906101000a900460ff166005811115611d4a57611d4961369f565b5b6005811115611d5c57611d5b61369f565b5b8152602001600482018054611d7090614613565b80601f0160208091040260200160405190810160405280929190818152602001828054611d9c90614613565b8015611de95780601f10611dbe57610100808354040283529160200191611de9565b820191906000526020600020905b815481529060010190602001808311611dcc57829003601f168201915b505050505081525050908060080160009054906101000a900473ffffffffffffffffffffffffffffffffffffffff16905085565b600160009054906101000a900473ffffffffffffffffffffffffffffffffffffffff1681565b6060826003811115611e5857611e5761369f565b5b6000808473ffffffffffffffffffffffffffffffffffffffff1673ffffffffffffffffffffffffffffffffffffffff16815260200190815260200160002060040160006101000a81548160ff02191690836003811115611ebb57611eba61369f565b5b02179055507f1a3c779520e15f878f9eff134a72cf200f4361dde45a0d32a7eb989665bbfb286000808473ffffffffffffffffffffffffffffffffffffffff1673ffffffffffffffffffffffffffffffffffffffff1681526020019081526020016000206000016000808573ffffffffffffffffffffffffffffffffffffffff1673ffffffffffffffffffffffffffffffffffffffff1681526020019081526020016000206002016000808673ffffffffffffffffffffffffffffffffffffffff1673ffffffffffffffffffffffffffffffffffffffff1681526020019081526020016000206003016000808773ffffffffffffffffffffffffffffffffffffffff1673ffffffffffffffffffffffffffffffffffffffff1681526020019081526020016000206001016000808873ffffffffffffffffffffffffffffffffffffffff1673ffffffffffffffffffffffffffffffffffffffff16815260200190815260200160002060040160009054906101000a900460ff166000808973ffffffffffffffffffffffffffffffffffffffff1673ffffffffffffffffffffffffffffffffffffffff16815260200190815260200160002060040160019054906101000a900473ffffffffffffffffffffffffffffffffffffffff166040516120a8969594939291906149e7565b60405180910390a16040518060400160405280600d81526020017f526f6c6520557064617465642100000000000000000000000000000000000000815250905092915050565b3373ffffffffffffffffffffffffffffffffffffffff16600160009054906101000a900473ffffffffffffffffffffffffffffffffffffffff1673ffffffffffffffffffffffffffffffffffffffff161461217e576040517f08c379a000000000000000000000000000000000000000000000000000000000815260040161217590614ab0565b60405180910390fd5b856000808373ffffffffffffffffffffffffffffffffffffffff1673ffffffffffffffffffffffffffffffffffffffff16815260200190815260200160002060000190805190602001906121d392919061343e565b50846000808373ffffffffffffffffffffffffffffffffffffffff1673ffffffffffffffffffffffffffffffffffffffff168152602001908152602001600020600101908051906020019061222992919061343e565b50836000808373ffffffffffffffffffffffffffffffffffffffff1673ffffffffffffffffffffffffffffffffffffffff168152602001908152602001600020600201908051906020019061227f92919061343e565b50826000808373ffffffffffffffffffffffffffffffffffffffff1673ffffffffffffffffffffffffffffffffffffffff16815260200190815260200160002060030190805190602001906122d592919061343e565b508160038111156122e9576122e861369f565b5b6000808373ffffffffffffffffffffffffffffffffffffffff1673ffffffffffffffffffffffffffffffffffffffff16815260200190815260200160002060040160006101000a81548160ff0219169083600381111561234c5761234b61369f565b5b0217905550806000808373ffffffffffffffffffffffffffffffffffffffff1673ffffffffffffffffffffffffffffffffffffffff16815260200190815260200160002060040160016101000a81548173ffffffffffffffffffffffffffffffffffffffff021916908373ffffffffffffffffffffffffffffffffffffffff1602179055508160038111156123e4576123e361369f565b5b60038111156123f6576123f561369f565b5b866040516124049190614ad0565b60405180910390208273ffffffffffffffffffffffffffffffffffffffff167fddb5d1667467713eb503e7e133811c91a231cb6b63f11930889c6004f36c35ee88888860405161245693929190614ae7565b60405180910390a46003819080600181540180825580915050600190039060005260206000200160009091909190916101000a81548173ffffffffffffffffffffffffffffffffffffffff021916908373ffffffffffffffffffffffffffffffffffffffff16021790555060046040518060c001604052808881526020018781526020018681526020018581526020018460038111156124f9576124f861369f565b5b600381111561250b5761250a61369f565b5b81526020018373ffffffffffffffffffffffffffffffffffffffff168152509080600181540180825580915050600190039060005260206000209060050201600090919091909150600082015181600001908051906020019061256f92919061343e565b50602082015181600101908051906020019061258c92919061343e565b5060408201518160020190805190602001906125a992919061343e565b5060608201518160030190805190602001906125c692919061343e565b5060808201518160040160006101000a81548160ff021916908360038111156125f2576125f161369f565b5b021790555060a08201518160040160016101000a81548173ffffffffffffffffffffffffffffffffffffffff021916908373ffffffffffffffffffffffffffffffffffffffff16021790555050506002600081548092919061265390614765565b9190505550505050505050565b600160058111156126745761267361369f565b5b8260600151600581111561268b5761268a61369f565b5b146126cb576040517f08c379a00000000000000000000000000000000000000000000000000000000081526004016126c290614ba5565b60405180910390fd5b600060096000600e5481526020019081526020016000209050838160010190805190602001906126fc92919061343e565b5060008160020160006101000a81548160ff021916908360018111156127255761272461369f565b5b0217905550828160030160008201518160000155602082015181600101908051906020019061275592919061343e565b50604082015181600201908051906020019061277292919061343e565b5060608201518160030160006101000a81548160ff0219169083600581111561279e5761279d61369f565b5b021790555060808201518160040190805190602001906127bf92919061343e565b50905050818160080160006101000a81548173ffffffffffffffffffffffffffffffffffffffff021916908373ffffffffffffffffffffffffffffffffffffffff1602179055507f56cef5b605de75dde94390e0903b843a7c7203544ad094da5db5ecdafb897cb8600e54600085866060015186604051612844959493929190614866565b60405180910390a1600e600081548092919061285f90614765565b919050555050505050565b6004818154811061287a57600080fd5b906000526020600020906005020160009150905080600001805461289d90614613565b80601f01602080910402602001604051908101604052809291908181526020018280546128c990614613565b80156129165780601f106128eb57610100808354040283529160200191612916565b820191906000526020600020905b8154815290600101906020018083116128f957829003601f168201915b50505050509080600101805461292b90614613565b80601f016020809104026020016040519081016040528092919081815260200182805461295790614613565b80156129a45780601f10612979576101008083540402835291602001916129a4565b820191906000526020600020905b81548152906001019060200180831161298757829003601f168201915b5050505050908060020180546129b990614613565b80601f01602080910402602001604051908101604052809291908181526020018280546129e590614613565b8015612a325780601f10612a0757610100808354040283529160200191612a32565b820191906000526020600020905b815481529060010190602001808311612a1557829003601f168201915b505050505090806003018054612a4790614613565b80601f0160208091040260200160405190810160405280929190818152602001828054612a7390614613565b8015612ac05780601f10612a9557610100808354040283529160200191612ac0565b820191906000526020600020905b815481529060010190602001808311612aa357829003601f168201915b5050505050908060040160009054906101000a900460ff16908060040160019054906101000a900473ffffffffffffffffffffffffffffffffffffffff16905086565b60606003805480602002602001604051908101604052809291908181526020018280548015612b8757602002820191906000526020600020905b8160009054906101000a900473ffffffffffffffffffffffffffffffffffffffff1673ffffffffffffffffffffffffffffffffffffffff1681526020019060010190808311612b3d575b5050505050905090565b60066020528060005260406000206000915090508060000154908060010160009054906101000a900460ff16908060010160019054906101000a900473ffffffffffffffffffffffffffffffffffffffff16905083565b600b5481565b6009602052806000526040600020600091509050806000015490806001018054612c1790614613565b80601f0160208091040260200160405190810160405280929190818152602001828054612c4390614613565b8015612c905780601f10612c6557610100808354040283529160200191612c90565b820191906000526020600020905b815481529060010190602001808311612c7357829003601f168201915b5050505050908060020160009054906101000a900460ff1690806003016040518060a001604052908160008201548152602001600182018054612cd290614613565b80601f0160208091040260200160405190810160405280929190818152602001828054612cfe90614613565b8015612d4b5780601f10612d2057610100808354040283529160200191612d4b565b820191906000526020600020905b815481529060010190602001808311612d2e57829003601f168201915b50505050508152602001600282018054612d6490614613565b80601f0160208091040260200160405190810160405280929190818152602001828054612d9090614613565b8015612ddd5780601f10612db257610100808354040283529160200191612ddd565b820191906000526020600020905b815481529060010190602001808311612dc057829003601f168201915b505050505081526020016003820160009054906101000a900460ff166005811115612e0b57612e0a61369f565b5b6005811115612e1d57612e1c61369f565b5b8152602001600482018054612e3190614613565b80601f0160208091040260200160405190810160405280929190818152602001828054612e5d90614613565b8015612eaa5780601f10612e7f57610100808354040283529160200191612eaa565b820191906000526020600020905b815481529060010190602001808311612e8d57829003601f168201915b505050505081525050908060080160009054906101000a900473ffffffffffffffffffffffffffffffffffffffff16905085565b60606004805480602002602001604051908101604052809291908181526020016000905b8282101561320d57838290600052602060002090600502016040518060c0016040529081600082018054612f3590614613565b80601f0160208091040260200160405190810160405280929190818152602001828054612f6190614613565b8015612fae5780601f10612f8357610100808354040283529160200191612fae565b820191906000526020600020905b815481529060010190602001808311612f9157829003601f168201915b50505050508152602001600182018054612fc790614613565b80601f0160208091040260200160405190810160405280929190818152602001828054612ff390614613565b80156130405780601f1061301557610100808354040283529160200191613040565b820191906000526020600020905b81548152906001019060200180831161302357829003601f168201915b5050505050815260200160028201805461305990614613565b80601f016020809104026020016040519081016040528092919081815260200182805461308590614613565b80156130d25780601f106130a7576101008083540402835291602001916130d2565b820191906000526020600020905b8154815290600101906020018083116130b557829003601f168201915b505050505081526020016003820180546130eb90614613565b80601f016020809104026020016040519081016040528092919081815260200182805461311790614613565b80156131645780601f1061313957610100808354040283529160200191613164565b820191906000526020600020905b81548152906001019060200180831161314757829003601f168201915b505050505081526020016004820160009054906101000a900460ff1660038111156131925761319161369f565b5b60038111156131a4576131a361369f565b5b81526020016004820160019054906101000a900473ffffffffffffffffffffffffffffffffffffffff1673ffffffffffffffffffffffffffffffffffffffff1673ffffffffffffffffffffffffffffffffffffffff168152505081526020019060010190612f02565b50505050905090565b61321e613522565b600860008381526020019081526020016000206040518060a00160405290816000820154815260200160018201805461325690614613565b80601f016020809104026020016040519081016040528092919081815260200182805461328290614613565b80156132cf5780601f106132a4576101008083540402835291602001916132cf565b820191906000526020600020905b8154815290600101906020018083116132b257829003601f168201915b505050505081526020016002820180546132e890614613565b80601f016020809104026020016040519081016040528092919081815260200182805461331490614613565b80156133615780601f1061333657610100808354040283529160200191613361565b820191906000526020600020905b81548152906001019060200180831161334457829003601f168201915b505050505081526020016003820160009054906101000a900460ff16600581111561338f5761338e61369f565b5b60058111156133a1576133a061369f565b5b81526020016004820180546133b590614613565b80601f01602080910402602001604051908101604052809291908181526020018280546133e190614613565b801561342e5780601f106134035761010080835404028352916020019161342e565b820191906000526020600020905b81548152906001019060200180831161341157829003601f168201915b5050505050815250509050919050565b82805461344a90614613565b90600052602060002090601f01602090048101928261346c57600085556134b3565b82601f1061348557805160ff19168380011785556134b3565b828001600101855582156134b3579182015b828111156134b2578251825591602001919060010190613497565b5b5090506134c09190613563565b5090565b6040518060c0016040528060608152602001606081526020016060815260200160608152602001600060038111156134ff576134fe61369f565b5b8152602001600073ffffffffffffffffffffffffffffffffffffffff1681525090565b6040518060a00160405280600081526020016060815260200160608152602001600060058111156135565761355561369f565b5b8152602001606081525090565b5b8082111561357c576000816000905550600101613564565b5090565b6000604051905090565b600080fd5b600080fd5b6000819050919050565b6135a781613594565b81146135b257600080fd5b50565b6000813590506135c48161359e565b92915050565b6000602082840312156135e0576135df61358a565b5b60006135ee848285016135b5565b91505092915050565b61360081613594565b82525050565b600081519050919050565b600082825260208201905092915050565b60005b83811015613640578082015181840152602081019050613625565b8381111561364f576000848401525b50505050565b6000601f19601f8301169050919050565b600061367182613606565b61367b8185613611565b935061368b818560208601613622565b61369481613655565b840191505092915050565b7f4e487b7100000000000000000000000000000000000000000000000000000000600052602160045260246000fd5b600681106136df576136de61369f565b5b50565b60008190506136f0826136ce565b919050565b6000613700826136e2565b9050919050565b613710816136f5565b82525050565b600060a08201905061372b60008301886135f7565b818103602083015261373d8187613666565b905081810360408301526137518186613666565b90506137606060830185613707565b81810360808301526137728184613666565b90509695505050505050565b600080fd5b600080fd5b7f4e487b7100000000000000000000000000000000000000000000000000000000600052604160045260246000fd5b6137c082613655565b810181811067ffffffffffffffff821117156137df576137de613788565b5b80604052505050565b60006137f2613580565b90506137fe82826137b7565b919050565b600067ffffffffffffffff82111561381e5761381d613788565b5b61382782613655565b9050602081019050919050565b82818337600083830152505050565b600061385661385184613803565b6137e8565b90508281526020810184848401111561387257613871613783565b5b61387d848285613834565b509392505050565b600082601f83011261389a5761389961377e565b5b81356138aa848260208601613843565b91505092915050565b600073ffffffffffffffffffffffffffffffffffffffff82169050919050565b60006138de826138b3565b9050919050565b6138ee816138d3565b81146138f957600080fd5b50565b60008135905061390b816138e5565b92915050565b600080604083850312156139285761392761358a565b5b600083013567ffffffffffffffff8111156139465761394561358f565b5b61395285828601613885565b9250506020613963858286016138fc565b9150509250929050565b613976816138d3565b82525050565b6000602082019050613991600083018461396d565b92915050565b6000602082840312156139ad576139ac61358a565b5b60006139bb848285016138fc565b91505092915050565b600481106139d5576139d461369f565b5b50565b60008190506139e6826139c4565b919050565b60006139f6826139d8565b9050919050565b613a06816139eb565b82525050565b600060c0820190508181036000830152613a268189613666565b90508181036020830152613a3a8188613666565b90508181036040830152613a4e8187613666565b90508181036060830152613a628186613666565b9050613a7160808301856139fd565b613a7e60a083018461396d565b979650505050505050565b6000602082019050613a9e60008301846135f7565b92915050565b600081519050919050565b600082825260208201905092915050565b6000819050602082019050919050565b613ad981613594565b82525050565b6000613aeb8383613ad0565b60208301905092915050565b6000602082019050919050565b6000613b0f82613aa4565b613b198185613aaf565b9350613b2483613ac0565b8060005b83811015613b55578151613b3c8882613adf565b9750613b4783613af7565b925050600181019050613b28565b5085935050505092915050565b60006020820190508181036000830152613b7c8184613b04565b905092915050565b60008060008060808587031215613b9e57613b9d61358a565b5b600085013567ffffffffffffffff811115613bbc57613bbb61358f565b5b613bc887828801613885565b945050602085013567ffffffffffffffff811115613be957613be861358f565b5b613bf587828801613885565b9350506040613c06878288016135b5565b925050606085013567ffffffffffffffff811115613c2757613c2661358f565b5b613c3387828801613885565b91505092959194509250565b6000819050919050565b613c5281613c3f565b82525050565b6000602082019050613c6d6000830184613c49565b92915050565b600082825260208201905092915050565b6000613c8f82613606565b613c998185613c73565b9350613ca9818560208601613622565b613cb281613655565b840191505092915050565b613cc6816139eb565b82525050565b613cd5816138d3565b82525050565b600060c0830160008301518482036000860152613cf88282613c84565b91505060208301518482036020860152613d128282613c84565b91505060408301518482036040860152613d2c8282613c84565b91505060608301518482036060860152613d468282613c84565b9150506080830151613d5b6080860182613cbd565b5060a0830151613d6e60a0860182613ccc565b508091505092915050565b60006020820190508181036000830152613d938184613cdb565b905092915050565b60008060408385031215613db257613db161358a565b5b6000613dc0858286016135b5565b9250506020613dd1858286016138fc565b9150509250929050565b600080fd5b600080fd5b60068110613df257600080fd5b50565b600081359050613e0481613de5565b92915050565b600060a08284031215613e2057613e1f613ddb565b5b613e2a60a06137e8565b90506000613e3a848285016135b5565b600083015250602082013567ffffffffffffffff811115613e5e57613e5d613de0565b5b613e6a84828501613885565b602083015250604082013567ffffffffffffffff811115613e8e57613e8d613de0565b5b613e9a84828501613885565b6040830152506060613eae84828501613df5565b606083015250608082013567ffffffffffffffff811115613ed257613ed1613de0565b5b613ede84828501613885565b60808301525092915050565b600080600060608486031215613f0357613f0261358a565b5b600084013567ffffffffffffffff811115613f2157613f2061358f565b5b613f2d86828701613885565b935050602084013567ffffffffffffffff811115613f4e57613f4d61358f565b5b613f5a86828701613e0a565b9250506040613f6b868287016138fc565b9150509250925092565b600081519050919050565b600082825260208201905092915050565b6000819050602082019050919050565b613faa816136f5565b82525050565b600060a083016000830151613fc86000860182613ad0565b5060208301518482036020860152613fe08282613c84565b91505060408301518482036040860152613ffa8282613c84565b915050606083015161400f6060860182613fa1565b50608083015184820360808601526140278282613c84565b9150508091505092915050565b60006140408383613fb0565b905092915050565b6000602082019050919050565b600061406082613f75565b61406a8185613f80565b93508360208202850161407c85613f91565b8060005b858110156140b857848403895281516140998582614034565b94506140a483614048565b925060208a01995050600181019050614080565b50829750879550505050505092915050565b600060208201905081810360008301526140e48184614055565b905092915050565b600281106140fd576140fc61369f565b5b50565b600081905061410e826140ec565b919050565b600061411e82614100565b9050919050565b61412e81614113565b82525050565b600060a08301600083015161414c6000860182613ad0565b50602083015184820360208601526141648282613c84565b9150506040830151848203604086015261417e8282613c84565b91505060608301516141936060860182613fa1565b50608083015184820360808601526141ab8282613c84565b9150508091505092915050565b600060a0820190506141cd60008301886135f7565b81810360208301526141df8187613666565b90506141ee6040830186614125565b81810360608301526142008185614134565b905061420f608083018461396d565b9695505050505050565b600060208201905081810360008301526142338184613666565b905092915050565b60008060008060008060c087890312156142585761425761358a565b5b600087013567ffffffffffffffff8111156142765761427561358f565b5b61428289828a01613885565b965050602087013567ffffffffffffffff8111156142a3576142a261358f565b5b6142af89828a01613885565b955050604087013567ffffffffffffffff8111156142d0576142cf61358f565b5b6142dc89828a01613885565b945050606087013567ffffffffffffffff8111156142fd576142fc61358f565b5b61430989828a01613885565b935050608061431a89828a016135b5565b92505060a061432b89828a016138fc565b9150509295509295509295565b600081519050919050565b600082825260208201905092915050565b6000819050602082019050919050565b60006143708383613ccc565b60208301905092915050565b6000602082019050919050565b600061439482614338565b61439e8185614343565b93506143a983614354565b8060005b838110156143da5781516143c18882614364565b97506143cc8361437c565b9250506001810190506143ad565b5085935050505092915050565b600060208201905081810360008301526144018184614389565b905092915050565b600060608201905061441e60008301866135f7565b61442b6020830185613707565b614438604083018461396d565b949350505050565b600081519050919050565b600082825260208201905092915050565b6000819050602082019050919050565b600060c08301600083015184820360008601526144898282613c84565b915050602083015184820360208601526144a38282613c84565b915050604083015184820360408601526144bd8282613c84565b915050606083015184820360608601526144d78282613c84565b91505060808301516144ec6080860182613cbd565b5060a08301516144ff60a0860182613ccc565b508091505092915050565b6000614516838361446c565b905092915050565b6000602082019050919050565b600061453682614440565b614540818561444b565b9350836020820285016145528561445c565b8060005b8581101561458e578484038952815161456f858261450a565b945061457a8361451e565b925060208a01995050600181019050614556565b50829750879550505050505092915050565b600060208201905081810360008301526145ba818461452b565b905092915050565b600060208201905081810360008301526145dc8184614134565b905092915050565b7f4e487b7100000000000000000000000000000000000000000000000000000000600052602260045260246000fd5b6000600282049050600182168061462b57607f821691505b6020821081141561463f5761463e6145e4565b5b50919050565b600081905092915050565b600061465b82613606565b6146658185614645565b9350614675818560208601613622565b80840191505092915050565b60008160601b9050919050565b600061469982614681565b9050919050565b60006146ab8261468e565b9050919050565b6146c36146be826138d3565b6146a0565b82525050565b60006146d58285614650565b91506146e182846146b2565b6014820191508190509392505050565b6000606082019050818103600083015261470b8186613666565b9050818103602083015261471f8185613666565b905061472e6040830184613707565b949350505050565b7f4e487b7100000000000000000000000000000000000000000000000000000000600052601160045260246000fd5b600061477082613594565b91507fffffffffffffffffffffffffffffffffffffffffffffffffffffffffffffffff8214156147a3576147a2614736565b5b600182019050919050565b7f5468652070726f6a656374206973206e6f7420696e2074686520274265666f7260008201527f6546696e616c697a6174696f6e436865636b27207374617475732c207468652060208201527f6f7065726174696f6e2063616e6e6f7420626520646f6e652e00000000000000604082015250565b6000614830605983613611565b915061483b826147ae565b606082019050919050565b6000602082019050818103600083015261485f81614823565b9050919050565b600060a08201905061487b60008301886135f7565b6148886020830187614125565b818103604083015261489a8186614134565b90506148a96060830185613707565b6148b6608083018461396d565b9695505050505050565b7f5468652070726f6a656374206973206e6f7420637265617465642c207468652060008201527f6f7065726174696f6e2063616e6e6f7420626520646f6e652e00000000000000602082015250565b600061491c603983613611565b9150614927826148c0565b604082019050919050565b6000602082019050818103600083015261494b8161490f565b9050919050565b60008190508160005260206000209050919050565b6000815461497481614613565b61497e8186613611565b9450600182166000811461499957600181146149ab576149de565b60ff19831686526020860193506149de565b6149b485614952565b60005b838110156149d6578154818901526001820191506020810190506149b7565b808801955050505b50505092915050565b600060c0820190508181036000830152614a018189614967565b90508181036020830152614a158188614967565b90508181036040830152614a298187614967565b90508181036060830152614a3d8186614967565b9050614a4c60808301856139fd565b614a5960a083018461396d565b979650505050505050565b7f596f7520617265206e6f7420616e206f776e6572000000000000000000000000600082015250565b6000614a9a601483613611565b9150614aa582614a64565b602082019050919050565b60006020820190508181036000830152614ac981614a8d565b9050919050565b6000614adc8284614650565b915081905092915050565b60006060820190508181036000830152614b018186613666565b90508181036020830152614b158185613666565b90508181036040830152614b298184613666565b9050949350505050565b7f5468652070726f6a656374206973206e6f7420617070726f7665642c2074686560008201527f206f7065726174696f6e2063616e6e6f7420626520646f6e652e000000000000602082015250565b6000614b8f603a83613611565b9150614b9a82614b33565b604082019050919050565b60006020820190508181036000830152614bbe81614b82565b905091905056fea2646970667358221220dd64db1d0da782b21f3f17325a683604b4abefda943c15af57da79b0d571ef7a64736f6c634300080a0033",
  "immutableReferences": {},
  "source": "// SPDX-License-Identifier: MIT\r\npragma solidity >=0.8.0 <0.9.0;\r\n\r\nimport \"./User.sol\";\r\n\r\ncontract Project is User {\r\n\r\n    uint256 public statusChangedIndex = 0;\r\n    struct S_ProjectStatusChanged {\r\n        uint256 _index;\r\n        ProjectStatus _status;\r\n        address _address;\r\n    }\r\n    mapping(uint256 => S_ProjectStatusChanged) public projectsStatus;\r\n    event ProjectStatusChanged(uint256 index, ProjectStatus indexed status, address indexed projectAddress);\r\n\r\n\r\n\r\n    address projectInitiator;\r\n\r\n    mapping(uint => S_Project) public projects;\r\n    mapping(uint => S_Request) public companyRequests;\r\n    mapping(uint => S_Request) public supervisorRequests;\r\n\r\n    uint public projectsCount = 0;\r\n    uint[] public projectIds;\r\n    S_Project[] public allProjects;\r\n\r\n    uint indexCompanyRequest;\r\n    uint indexSupervisorRequest;\r\n\r\n    struct S_Project {\r\n        uint index;\r\n        string name;\r\n        string description;\r\n        ProjectStatus projectStatus;\r\n        string ipfsFileCID;\r\n    }\r\n\r\n    struct S_Request {\r\n        uint index;\r\n        string description;\r\n        RequestStatus status;\r\n        S_Project project;\r\n        address subjectAddress;\r\n    }\r\n\r\n    enum RequestStatus { Unverified, Verified }\r\n    enum ProjectStatus { Created, Approved, Rejected, OnGoing, BeforeFinalizationCheck, Completed }\r\n\r\n    //event CreateProject(uint _indexProject, Project.ProjectStatus _projectStatus, address _address);\r\n    event CreateProject(string _name, string _description, ProjectStatus _status);\r\n\r\n    event UpdateSupervisorRequestStatus(uint _indexRequest, RequestStatus _status, S_Project _project, ProjectStatus _projectStatus, address _subjectAddress);\r\n    event UpdateCompanyRequestStatus(uint _indexRequest, RequestStatus _status, S_Project _project, ProjectStatus _projectStatus, address _subjectAddress);\r\n\r\n    constructor() {\r\n        projectInitiator = msg.sender;\r\n    }\r\n\r\n    modifier onlyProjectInitiator {\r\n        require(userInfo[projectInitiator].role == Roles.ProjectInitiator, \"You don't have the rights for this resources.\");\r\n        require(projectInitiator == msg.sender, \"You are not a project initiator\");\r\n        _;\r\n    }\r\n\r\n    function createProject(string memory _name, string memory _description, uint _status, string memory _ipfsFileCID) public  {\r\n        //bytes32 _identifier = createUniqueIdentifier(_hashStringValue, msg.sender);\r\n\r\n        projects[projectsCount].index = projectsCount;\r\n        //projects[projectsCount].identifier = _identifier;\r\n        projects[projectsCount].name = _name;\r\n        projects[projectsCount].description = _description;\r\n        projects[projectsCount].projectStatus = ProjectStatus(_status);\r\n        projects[projectsCount].ipfsFileCID = _ipfsFileCID;\r\n\r\n        emit CreateProject(_name, _description, ProjectStatus(_status));\r\n        projectIds.push(projectsCount);\r\n        allProjects.push(S_Project(projectsCount, _name, _description, ProjectStatus(_status), _ipfsFileCID));\r\n        projectsCount++;\r\n    }\r\n\r\n    function getProjectInfo(uint _index)\r\n        external\r\n        view\r\n        returns (S_Project memory)\r\n    {\r\n        return projects[_index];\r\n    }\r\n\r\n    function getAllProjects() public view returns(S_Project[] memory) {\r\n        return allProjects;\r\n    }\r\n\r\n    function getProjectIds() external view returns (uint[] memory) {\r\n        return projectIds;\r\n    }\r\n\r\n    function createUniqueIdentifier(string memory _text, address _addr) public pure returns (bytes32)  {\r\n        return keccak256(abi.encodePacked(_text, _addr));\r\n    }\r\n\r\n    function createUniqueHexAddress(string memory _text, address _addr) public pure returns (address)  {\r\n        return address(uint160(uint256(keccak256(abi.encodePacked(_text, _addr)))));\r\n    }\r\n\r\n\r\n    function changeProjectStatus(uint _status, address _address) public {\r\n        projectsStatus[statusChangedIndex]._index = statusChangedIndex;\r\n        projectsStatus[statusChangedIndex]._status = ProjectStatus(_status);\r\n        projectsStatus[statusChangedIndex]._address = _address;\r\n        emit ProjectStatusChanged(statusChangedIndex, ProjectStatus(_status), _address);\r\n        statusChangedIndex++;\r\n    }\r\n\r\n\r\n\r\n\r\n\r\n\r\n    function requestProjectApprovalFromSupervisor(string memory _description, S_Project memory _project, address _subjectAddress) public {\r\n        require(_project.projectStatus == ProjectStatus.Created, \"The project is not created, the operation cannot be done.\");\r\n\r\n        S_Request storage request = supervisorRequests[indexSupervisorRequest];\r\n        request.description = _description;\r\n        request.status = RequestStatus.Unverified;\r\n        request.project = _project;\r\n        request.subjectAddress = _subjectAddress;\r\n\r\n        emit UpdateSupervisorRequestStatus(indexSupervisorRequest, RequestStatus.Unverified, _project, _project.projectStatus, _subjectAddress);\r\n        indexSupervisorRequest++;\r\n    }\r\n\r\n    function requestProjectCompleteFromSupervisor(string memory _description, S_Project memory _project, address _subjectAddress) public {\r\n        require(\r\n            _project.projectStatus == ProjectStatus.BeforeFinalizationCheck,\r\n            \"The project is not in the 'BeforeFinalizationCheck' status, the operation cannot be done.\"\r\n        );\r\n\r\n        S_Request storage request = supervisorRequests[indexSupervisorRequest];\r\n        request.description = _description;\r\n        request.status = RequestStatus.Unverified;\r\n        request.project = _project;\r\n        request.subjectAddress = _subjectAddress;\r\n\r\n        emit UpdateSupervisorRequestStatus(indexSupervisorRequest, RequestStatus.Unverified, _project, _project.projectStatus, _subjectAddress);\r\n        indexSupervisorRequest++;\r\n    }\r\n\r\n    function requestStartProjectToCompanyBuilder(string memory _description, S_Project memory _project, address _subjectAddress) public {\r\n        require(_project.projectStatus == ProjectStatus.Approved, \"The project is not approved, the operation cannot be done.\");\r\n\r\n        S_Request storage request = companyRequests[indexCompanyRequest];\r\n        request.description = _description;\r\n        request.status = RequestStatus.Unverified;\r\n        request.project = _project;\r\n        request.subjectAddress = _subjectAddress;\r\n\r\n        emit UpdateCompanyRequestStatus(indexCompanyRequest, RequestStatus.Unverified, _project, _project.projectStatus, _subjectAddress);\r\n        indexCompanyRequest++;\r\n    }\r\n}",
  "sourcePath": "/mnt/c/users/beniamin/source/repos/dissertationproject/contracts/Project.sol",
  "compiler": {
    "name": "solc",
    "version": "0.8.10+commit.fc410830.Emscripten.clang"
  },
  "schemaVersion": "3.4.3",
  "updatedAt": "2021-11-17T20:11:20.013Z",
  "networkType": "ethereum",
  "devdoc": {
    "kind": "dev",
    "methods": {},
    "version": 1
  },
  "userdoc": {
    "kind": "user",
    "methods": {},
    "version": 1
  }
}