{
  "contractName": "ProjectChain",
  "abi": [
    {
      "inputs": [],
      "stateMutability": "nonpayable",
      "type": "constructor"
    },
    {
      "anonymous": false,
      "inputs": [
        {
          "indexed": false,
          "internalType": "uint256",
          "name": "_index",
          "type": "uint256"
        },
        {
          "indexed": false,
          "internalType": "string",
          "name": "_name",
          "type": "string"
        },
        {
          "indexed": false,
          "internalType": "string",
          "name": "_description",
          "type": "string"
        },
        {
          "indexed": false,
          "internalType": "enum ProjectChain.ProjectStatus",
          "name": "_status",
          "type": "uint8"
        },
        {
          "indexed": false,
          "internalType": "string",
          "name": "_ipfsFileCID",
          "type": "string"
        },
        {
          "indexed": false,
          "internalType": "address",
          "name": "_projectAddress",
          "type": "address"
        },
        {
          "indexed": false,
          "internalType": "address",
          "name": "_userAddress",
          "type": "address"
        }
      ],
      "name": "ProjectEvent",
      "type": "event"
    },
    {
      "anonymous": false,
      "inputs": [
        {
          "indexed": false,
          "internalType": "uint256",
          "name": "_index",
          "type": "uint256"
        },
        {
          "indexed": false,
          "internalType": "string",
          "name": "_title",
          "type": "string"
        },
        {
          "indexed": false,
          "internalType": "string",
          "name": "_description",
          "type": "string"
        },
        {
          "indexed": false,
          "internalType": "string",
          "name": "_comments",
          "type": "string"
        },
        {
          "indexed": false,
          "internalType": "enum ProjectChain.ProjectStatus",
          "name": "_status",
          "type": "uint8"
        },
        {
          "indexed": false,
          "internalType": "enum ProjectChain.RequestStatus",
          "name": "_requestStatus",
          "type": "uint8"
        },
        {
          "indexed": false,
          "internalType": "address",
          "name": "_projectAddress",
          "type": "address"
        },
        {
          "indexed": false,
          "internalType": "address",
          "name": "_userAddress",
          "type": "address"
        }
      ],
      "name": "ProjectStatusEvent",
      "type": "event"
    },
    {
      "anonymous": false,
      "inputs": [
        {
          "indexed": false,
          "internalType": "uint256",
          "name": "_index",
          "type": "uint256"
        },
        {
          "indexed": false,
          "internalType": "string",
          "name": "_title",
          "type": "string"
        },
        {
          "indexed": false,
          "internalType": "string",
          "name": "_description",
          "type": "string"
        },
        {
          "indexed": false,
          "internalType": "enum ProjectChain.RequestStatus",
          "name": "_status",
          "type": "uint8"
        },
        {
          "indexed": false,
          "internalType": "enum ProjectChain.ProjectStatus",
          "name": "_projectStatus",
          "type": "uint8"
        },
        {
          "indexed": false,
          "internalType": "address",
          "name": "_projectAddress",
          "type": "address"
        },
        {
          "indexed": false,
          "internalType": "address",
          "name": "_userAddress",
          "type": "address"
        }
      ],
      "name": "RequestEvent",
      "type": "event"
    },
    {
      "anonymous": false,
      "inputs": [
        {
          "indexed": false,
          "internalType": "string",
          "name": "_username",
          "type": "string"
        },
        {
          "indexed": false,
          "internalType": "string",
          "name": "_firstname",
          "type": "string"
        },
        {
          "indexed": false,
          "internalType": "string",
          "name": "_lastname",
          "type": "string"
        },
        {
          "indexed": false,
          "internalType": "string",
          "name": "_email",
          "type": "string"
        },
        {
          "indexed": false,
          "internalType": "enum UserChain.Roles",
          "name": "_role",
          "type": "uint8"
        },
        {
          "indexed": false,
          "internalType": "address",
          "name": "_walletAddress",
          "type": "address"
        }
      ],
      "name": "UserChanges",
      "type": "event"
    },
    {
      "anonymous": false,
      "inputs": [
        {
          "indexed": true,
          "internalType": "address",
          "name": "_walletAddress",
          "type": "address"
        },
        {
          "indexed": true,
          "internalType": "string",
          "name": "_username",
          "type": "string"
        },
        {
          "indexed": false,
          "internalType": "string",
          "name": "_email",
          "type": "string"
        },
        {
          "indexed": false,
          "internalType": "string",
          "name": "_firstname",
          "type": "string"
        },
        {
          "indexed": false,
          "internalType": "string",
          "name": "_lastname",
          "type": "string"
        },
        {
          "indexed": true,
          "internalType": "enum UserChain.Roles",
          "name": "_role",
          "type": "uint8"
        }
      ],
      "name": "UserRegistered",
      "type": "event"
    },
    {
      "inputs": [
        {
          "internalType": "uint256",
          "name": "",
          "type": "uint256"
        }
      ],
      "name": "allProjectRequests",
      "outputs": [
        {
          "internalType": "uint256",
          "name": "_index",
          "type": "uint256"
        },
        {
          "internalType": "string",
          "name": "_title",
          "type": "string"
        },
        {
          "internalType": "string",
          "name": "_description",
          "type": "string"
        },
        {
          "internalType": "string",
          "name": "_comments",
          "type": "string"
        },
        {
          "internalType": "enum ProjectChain.ProjectStatus",
          "name": "_status",
          "type": "uint8"
        },
        {
          "internalType": "enum ProjectChain.RequestStatus",
          "name": "_requestStatus",
          "type": "uint8"
        },
        {
          "internalType": "address",
          "name": "_projectAddress",
          "type": "address"
        },
        {
          "internalType": "address",
          "name": "_userAddress",
          "type": "address"
        }
      ],
      "stateMutability": "view",
      "type": "function",
      "constant": true
    },
    {
      "inputs": [
        {
          "internalType": "uint256",
          "name": "",
          "type": "uint256"
        }
      ],
      "name": "allProjects",
      "outputs": [
        {
          "internalType": "uint256",
          "name": "_index",
          "type": "uint256"
        },
        {
          "internalType": "string",
          "name": "_name",
          "type": "string"
        },
        {
          "internalType": "string",
          "name": "_description",
          "type": "string"
        },
        {
          "internalType": "enum ProjectChain.ProjectStatus",
          "name": "_status",
          "type": "uint8"
        },
        {
          "internalType": "string",
          "name": "_ipfsFileCID",
          "type": "string"
        },
        {
          "internalType": "address",
          "name": "_projectAddress",
          "type": "address"
        },
        {
          "internalType": "address",
          "name": "_userAddress",
          "type": "address"
        }
      ],
      "stateMutability": "view",
      "type": "function",
      "constant": true
    },
    {
      "inputs": [
        {
          "internalType": "uint256",
          "name": "",
          "type": "uint256"
        }
      ],
      "name": "allSupervisorRequests",
      "outputs": [
        {
          "internalType": "uint256",
          "name": "_index",
          "type": "uint256"
        },
        {
          "internalType": "string",
          "name": "_title",
          "type": "string"
        },
        {
          "internalType": "string",
          "name": "_description",
          "type": "string"
        },
        {
          "internalType": "enum ProjectChain.RequestStatus",
          "name": "_requestStatus",
          "type": "uint8"
        },
        {
          "internalType": "enum ProjectChain.ProjectStatus",
          "name": "_projectStatus",
          "type": "uint8"
        },
        {
          "internalType": "address",
          "name": "_projectAddress",
          "type": "address"
        },
        {
          "internalType": "address",
          "name": "_userAddress",
          "type": "address"
        }
      ],
      "stateMutability": "view",
      "type": "function",
      "constant": true
    },
    {
      "inputs": [
        {
          "internalType": "uint256",
          "name": "",
          "type": "uint256"
        }
      ],
      "name": "allUsers",
      "outputs": [
        {
          "internalType": "uint256",
          "name": "_index",
          "type": "uint256"
        },
        {
          "internalType": "string",
          "name": "_username",
          "type": "string"
        },
        {
          "internalType": "string",
          "name": "_email",
          "type": "string"
        },
        {
          "internalType": "string",
          "name": "_firstname",
          "type": "string"
        },
        {
          "internalType": "string",
          "name": "_lastname",
          "type": "string"
        },
        {
          "internalType": "enum UserChain.Roles",
          "name": "_role",
          "type": "uint8"
        },
        {
          "internalType": "address",
          "name": "_walletAddress",
          "type": "address"
        }
      ],
      "stateMutability": "view",
      "type": "function",
      "constant": true
    },
    {
      "inputs": [
        {
          "internalType": "uint256",
          "name": "_role",
          "type": "uint256"
        },
        {
          "internalType": "address",
          "name": "_walletAddress",
          "type": "address"
        }
      ],
      "name": "changeUserRole",
      "outputs": [],
      "stateMutability": "nonpayable",
      "type": "function"
    },
    {
      "inputs": [],
      "name": "getAllUsers",
      "outputs": [
        {
          "components": [
            {
              "internalType": "uint256",
              "name": "_index",
              "type": "uint256"
            },
            {
              "internalType": "string",
              "name": "_username",
              "type": "string"
            },
            {
              "internalType": "string",
              "name": "_email",
              "type": "string"
            },
            {
              "internalType": "string",
              "name": "_firstname",
              "type": "string"
            },
            {
              "internalType": "string",
              "name": "_lastname",
              "type": "string"
            },
            {
              "internalType": "enum UserChain.Roles",
              "name": "_role",
              "type": "uint8"
            },
            {
              "internalType": "address",
              "name": "_walletAddress",
              "type": "address"
            }
          ],
          "internalType": "struct UserChain.User[]",
          "name": "",
          "type": "tuple[]"
        }
      ],
      "stateMutability": "view",
      "type": "function",
      "constant": true
    },
    {
      "inputs": [
        {
          "internalType": "address",
          "name": "_walletAddress",
          "type": "address"
        }
      ],
      "name": "getUserInfo",
      "outputs": [
        {
          "components": [
            {
              "internalType": "uint256",
              "name": "_index",
              "type": "uint256"
            },
            {
              "internalType": "string",
              "name": "_username",
              "type": "string"
            },
            {
              "internalType": "string",
              "name": "_email",
              "type": "string"
            },
            {
              "internalType": "string",
              "name": "_firstname",
              "type": "string"
            },
            {
              "internalType": "string",
              "name": "_lastname",
              "type": "string"
            },
            {
              "internalType": "enum UserChain.Roles",
              "name": "_role",
              "type": "uint8"
            },
            {
              "internalType": "address",
              "name": "_walletAddress",
              "type": "address"
            }
          ],
          "internalType": "struct UserChain.User",
          "name": "",
          "type": "tuple"
        }
      ],
      "stateMutability": "view",
      "type": "function",
      "constant": true
    },
    {
      "inputs": [],
      "name": "owner",
      "outputs": [
        {
          "internalType": "address",
          "name": "",
          "type": "address"
        }
      ],
      "stateMutability": "view",
      "type": "function",
      "constant": true
    },
    {
      "inputs": [
        {
          "internalType": "address",
          "name": "",
          "type": "address"
        }
      ],
      "name": "projectRequests",
      "outputs": [
        {
          "internalType": "uint256",
          "name": "_index",
          "type": "uint256"
        },
        {
          "internalType": "string",
          "name": "_title",
          "type": "string"
        },
        {
          "internalType": "string",
          "name": "_description",
          "type": "string"
        },
        {
          "internalType": "string",
          "name": "_comments",
          "type": "string"
        },
        {
          "internalType": "enum ProjectChain.ProjectStatus",
          "name": "_status",
          "type": "uint8"
        },
        {
          "internalType": "enum ProjectChain.RequestStatus",
          "name": "_requestStatus",
          "type": "uint8"
        },
        {
          "internalType": "address",
          "name": "_projectAddress",
          "type": "address"
        },
        {
          "internalType": "address",
          "name": "_userAddress",
          "type": "address"
        }
      ],
      "stateMutability": "view",
      "type": "function",
      "constant": true
    },
    {
      "inputs": [],
      "name": "projectRequestsCounter",
      "outputs": [
        {
          "internalType": "uint256",
          "name": "",
          "type": "uint256"
        }
      ],
      "stateMutability": "view",
      "type": "function",
      "constant": true
    },
    {
      "inputs": [
        {
          "internalType": "address",
          "name": "",
          "type": "address"
        }
      ],
      "name": "projects",
      "outputs": [
        {
          "internalType": "uint256",
          "name": "_index",
          "type": "uint256"
        },
        {
          "internalType": "string",
          "name": "_name",
          "type": "string"
        },
        {
          "internalType": "string",
          "name": "_description",
          "type": "string"
        },
        {
          "internalType": "enum ProjectChain.ProjectStatus",
          "name": "_status",
          "type": "uint8"
        },
        {
          "internalType": "string",
          "name": "_ipfsFileCID",
          "type": "string"
        },
        {
          "internalType": "address",
          "name": "_projectAddress",
          "type": "address"
        },
        {
          "internalType": "address",
          "name": "_userAddress",
          "type": "address"
        }
      ],
      "stateMutability": "view",
      "type": "function",
      "constant": true
    },
    {
      "inputs": [],
      "name": "projectsCounter",
      "outputs": [
        {
          "internalType": "uint256",
          "name": "",
          "type": "uint256"
        }
      ],
      "stateMutability": "view",
      "type": "function",
      "constant": true
    },
    {
      "inputs": [
        {
          "internalType": "string",
          "name": "_username",
          "type": "string"
        },
        {
          "internalType": "string",
          "name": "_email",
          "type": "string"
        },
        {
          "internalType": "string",
          "name": "_firstname",
          "type": "string"
        },
        {
          "internalType": "string",
          "name": "_lastname",
          "type": "string"
        },
        {
          "internalType": "uint256",
          "name": "_role",
          "type": "uint256"
        },
        {
          "internalType": "address",
          "name": "_walletAddress",
          "type": "address"
        }
      ],
      "name": "registerUser",
      "outputs": [],
      "stateMutability": "nonpayable",
      "type": "function"
    },
    {
      "inputs": [
        {
          "internalType": "uint256",
          "name": "",
          "type": "uint256"
        }
      ],
      "name": "requestsSupervisor",
      "outputs": [
        {
          "internalType": "uint256",
          "name": "_index",
          "type": "uint256"
        },
        {
          "internalType": "string",
          "name": "_title",
          "type": "string"
        },
        {
          "internalType": "string",
          "name": "_description",
          "type": "string"
        },
        {
          "internalType": "enum ProjectChain.RequestStatus",
          "name": "_requestStatus",
          "type": "uint8"
        },
        {
          "internalType": "enum ProjectChain.ProjectStatus",
          "name": "_projectStatus",
          "type": "uint8"
        },
        {
          "internalType": "address",
          "name": "_projectAddress",
          "type": "address"
        },
        {
          "internalType": "address",
          "name": "_userAddress",
          "type": "address"
        }
      ],
      "stateMutability": "view",
      "type": "function",
      "constant": true
    },
    {
      "inputs": [],
      "name": "requestsSupervisorCounter",
      "outputs": [
        {
          "internalType": "uint256",
          "name": "",
          "type": "uint256"
        }
      ],
      "stateMutability": "view",
      "type": "function",
      "constant": true
    },
    {
      "inputs": [
        {
          "internalType": "address",
          "name": "",
          "type": "address"
        }
      ],
      "name": "users",
      "outputs": [
        {
          "internalType": "uint256",
          "name": "_index",
          "type": "uint256"
        },
        {
          "internalType": "string",
          "name": "_username",
          "type": "string"
        },
        {
          "internalType": "string",
          "name": "_email",
          "type": "string"
        },
        {
          "internalType": "string",
          "name": "_firstname",
          "type": "string"
        },
        {
          "internalType": "string",
          "name": "_lastname",
          "type": "string"
        },
        {
          "internalType": "enum UserChain.Roles",
          "name": "_role",
          "type": "uint8"
        },
        {
          "internalType": "address",
          "name": "_walletAddress",
          "type": "address"
        }
      ],
      "stateMutability": "view",
      "type": "function",
      "constant": true
    },
    {
      "inputs": [],
      "name": "usersCounter",
      "outputs": [
        {
          "internalType": "uint256",
          "name": "",
          "type": "uint256"
        }
      ],
      "stateMutability": "view",
      "type": "function",
      "constant": true
    },
    {
      "inputs": [
        {
          "internalType": "string",
          "name": "_text",
          "type": "string"
        },
        {
          "internalType": "uint256",
          "name": "_index",
          "type": "uint256"
        }
      ],
      "name": "createUniqueHexAddress",
      "outputs": [
        {
          "internalType": "address",
          "name": "",
          "type": "address"
        }
      ],
      "stateMutability": "view",
      "type": "function",
      "constant": true
    },
    {
      "inputs": [
        {
          "internalType": "string",
          "name": "_name",
          "type": "string"
        },
        {
          "internalType": "string",
          "name": "_description",
          "type": "string"
        },
        {
          "internalType": "uint256",
          "name": "_status",
          "type": "uint256"
        },
        {
          "internalType": "string",
          "name": "_ipfsFileCID",
          "type": "string"
        }
      ],
      "name": "createProject",
      "outputs": [],
      "stateMutability": "nonpayable",
      "type": "function"
    },
    {
      "inputs": [
        {
          "internalType": "address",
          "name": "_address",
          "type": "address"
        }
      ],
      "name": "getProjectInfo",
      "outputs": [
        {
          "components": [
            {
              "internalType": "uint256",
              "name": "_index",
              "type": "uint256"
            },
            {
              "internalType": "string",
              "name": "_name",
              "type": "string"
            },
            {
              "internalType": "string",
              "name": "_description",
              "type": "string"
            },
            {
              "internalType": "enum ProjectChain.ProjectStatus",
              "name": "_status",
              "type": "uint8"
            },
            {
              "internalType": "string",
              "name": "_ipfsFileCID",
              "type": "string"
            },
            {
              "internalType": "address",
              "name": "_projectAddress",
              "type": "address"
            },
            {
              "internalType": "address",
              "name": "_userAddress",
              "type": "address"
            }
          ],
          "internalType": "struct ProjectChain.Project",
          "name": "",
          "type": "tuple"
        }
      ],
      "stateMutability": "view",
      "type": "function",
      "constant": true
    },
    {
      "inputs": [],
      "name": "getAllProjects",
      "outputs": [
        {
          "components": [
            {
              "internalType": "uint256",
              "name": "_index",
              "type": "uint256"
            },
            {
              "internalType": "string",
              "name": "_name",
              "type": "string"
            },
            {
              "internalType": "string",
              "name": "_description",
              "type": "string"
            },
            {
              "internalType": "enum ProjectChain.ProjectStatus",
              "name": "_status",
              "type": "uint8"
            },
            {
              "internalType": "string",
              "name": "_ipfsFileCID",
              "type": "string"
            },
            {
              "internalType": "address",
              "name": "_projectAddress",
              "type": "address"
            },
            {
              "internalType": "address",
              "name": "_userAddress",
              "type": "address"
            }
          ],
          "internalType": "struct ProjectChain.Project[]",
          "name": "",
          "type": "tuple[]"
        }
      ],
      "stateMutability": "view",
      "type": "function",
      "constant": true
    },
    {
      "inputs": [
        {
          "internalType": "string",
          "name": "_title",
          "type": "string"
        },
        {
          "internalType": "string",
          "name": "_description",
          "type": "string"
        },
        {
          "internalType": "uint256",
          "name": "_status",
          "type": "uint256"
        },
        {
          "internalType": "uint256",
          "name": "_requestStatus",
          "type": "uint256"
        },
        {
          "internalType": "address",
          "name": "_projectAddress",
          "type": "address"
        }
      ],
      "name": "createProjectRequest",
      "outputs": [],
      "stateMutability": "nonpayable",
      "type": "function"
    },
    {
      "inputs": [],
      "name": "getAllProjectRequests",
      "outputs": [
        {
          "components": [
            {
              "internalType": "uint256",
              "name": "_index",
              "type": "uint256"
            },
            {
              "internalType": "string",
              "name": "_title",
              "type": "string"
            },
            {
              "internalType": "string",
              "name": "_description",
              "type": "string"
            },
            {
              "internalType": "string",
              "name": "_comments",
              "type": "string"
            },
            {
              "internalType": "enum ProjectChain.ProjectStatus",
              "name": "_status",
              "type": "uint8"
            },
            {
              "internalType": "enum ProjectChain.RequestStatus",
              "name": "_requestStatus",
              "type": "uint8"
            },
            {
              "internalType": "address",
              "name": "_projectAddress",
              "type": "address"
            },
            {
              "internalType": "address",
              "name": "_userAddress",
              "type": "address"
            }
          ],
          "internalType": "struct ProjectChain.ProjectRequest[]",
          "name": "",
          "type": "tuple[]"
        }
      ],
      "stateMutability": "view",
      "type": "function",
      "constant": true
    },
    {
      "inputs": [
        {
          "internalType": "string",
          "name": "_title",
          "type": "string"
        },
        {
          "internalType": "string",
          "name": "_description",
          "type": "string"
        },
        {
          "internalType": "uint256",
          "name": "_requestStatus",
          "type": "uint256"
        },
        {
          "internalType": "uint256",
          "name": "_projectStatus",
          "type": "uint256"
        },
        {
          "internalType": "address",
          "name": "_projectAddress",
          "type": "address"
        }
      ],
      "name": "createRequestSupervisor",
      "outputs": [],
      "stateMutability": "nonpayable",
      "type": "function"
    },
    {
      "inputs": [
        {
          "internalType": "uint256",
          "name": "_requestStatus",
          "type": "uint256"
        },
        {
          "internalType": "uint256",
          "name": "_index",
          "type": "uint256"
        }
      ],
      "name": "updateRequestSupervisor",
      "outputs": [],
      "stateMutability": "nonpayable",
      "type": "function"
    },
    {
      "inputs": [],
      "name": "getAllRequestsSupervisor",
      "outputs": [
        {
          "components": [
            {
              "internalType": "uint256",
              "name": "_index",
              "type": "uint256"
            },
            {
              "internalType": "string",
              "name": "_title",
              "type": "string"
            },
            {
              "internalType": "string",
              "name": "_description",
              "type": "string"
            },
            {
              "internalType": "enum ProjectChain.RequestStatus",
              "name": "_requestStatus",
              "type": "uint8"
            },
            {
              "internalType": "enum ProjectChain.ProjectStatus",
              "name": "_projectStatus",
              "type": "uint8"
            },
            {
              "internalType": "address",
              "name": "_projectAddress",
              "type": "address"
            },
            {
              "internalType": "address",
              "name": "_userAddress",
              "type": "address"
            }
          ],
          "internalType": "struct ProjectChain.Request[]",
          "name": "",
          "type": "tuple[]"
        }
      ],
      "stateMutability": "view",
      "type": "function",
      "constant": true
    }
  ],
  "bytecode": "0x60806040526000600355600060065560006009556000600c5534801561002457600080fd5b50336000806101000a81548173ffffffffffffffffffffffffffffffffffffffff021916908373ffffffffffffffffffffffffffffffffffffffff16021790555033600460006101000a81548173ffffffffffffffffffffffffffffffffffffffff021916908373ffffffffffffffffffffffffffffffffffffffff1602179055506159a780620000b66000396000f3fe608060405234801561001057600080fd5b506004361061018e5760003560e01c8063911c29a6116100de578063c43dff5311610097578063e2842d7911610071578063e2842d7914610517578063e306929514610535578063fb7fe17a14610551578063fe360ea51461056d5761018e565b8063c43dff53146104a5578063cc1ee4db146104db578063d67b1b99146104f95761018e565b8063911c29a6146103ad57806397b82957146103c95780639e0c89a8146103ff578063a2bdedf41461041b578063a87430ba14610451578063bef8c465146104875761018e565b80637e5711881161014b57806384afb5bb1161012557806384afb5bb146103255780638da5cb5b146103555780638e2661bb1461037357806391009786146103915761018e565b80637e5711881461029a57806380d03829146102d1578063840e78fd146102ef5761018e565b8063400003db1461019357806346575714146101b157806347ee45b9146101cd57806353b3194c146101fd5780636386c1c71461023357806363c163c414610263575b600080fd5b61019b61058b565b6040516101a89190614726565b60405180910390f35b6101cb60048036038101906101c691906148bd565b6108cd565b005b6101e760048036038101906101e291906149a4565b610e8b565b6040516101f49190614a7b565b60405180910390f35b61021760048036038101906102129190614a9d565b61118b565b60405161022a9796959493929190614b41565b60405180910390f35b61024d600480360381019061024891906149a4565b6113c2565b60405161025a9190614cbe565b60405180910390f35b61027d600480360381019061027891906149a4565b6116fe565b604051610291989796959493929190614cef565b60405180910390f35b6102b460048036038101906102af9190614a9d565b611938565b6040516102c8989796959493929190614cef565b60405180910390f35b6102d9611b82565b6040516102e69190614eee565b60405180910390f35b610309600480360381019061030491906149a4565b611e88565b60405161031c9796959493929190614b41565b60405180910390f35b61033f600480360381019061033a9190614f10565b6120af565b60405161034c9190614f6c565b60405180910390f35b61035d612109565b60405161036a9190614f6c565b60405180910390f35b61037b61212d565b6040516103889190614f87565b60405180910390f35b6103ab60048036038101906103a69190614fa2565b612133565b005b6103c760048036038101906103c29190614fe2565b61225a565b005b6103e360048036038101906103de9190614a9d565b6127c8565b6040516103f697969594939291906150df565b60405180910390f35b6104196004803603810190610414919061515c565b612974565b005b61043560048036038101906104309190614a9d565b612a43565b60405161044897969594939291906151ab565b60405180910390f35b61046b600480360381019061046691906149a4565b612ce2565b60405161047e97969594939291906151ab565b60405180910390f35b61048f612f71565b60405161049c919061539b565b60405180910390f35b6104bf60048036038101906104ba9190614a9d565b613220565b6040516104d297969594939291906150df565b60405180910390f35b6104e36133dc565b6040516104f09190614f87565b60405180910390f35b6105016133e2565b60405161050e9190614f87565b60405180910390f35b61051f6133e8565b60405161052c9190615530565b60405180910390f35b61054f600480360381019061054a9190615552565b61372a565b005b61056b60048036038101906105669190615552565b613daa565b005b61057561426b565b6040516105829190614f87565b60405180910390f35b6060600a805480602002602001604051908101604052809291908181526020016000905b828210156108c4578382906000526020600020906006020160405180610100016040529081600082015481526020016001820180546105ed90615634565b80601f016020809104026020016040519081016040528092919081815260200182805461061990615634565b80156106665780601f1061063b57610100808354040283529160200191610666565b820191906000526020600020905b81548152906001019060200180831161064957829003601f168201915b5050505050815260200160028201805461067f90615634565b80601f01602080910402602001604051908101604052809291908181526020018280546106ab90615634565b80156106f85780601f106106cd576101008083540402835291602001916106f8565b820191906000526020600020905b8154815290600101906020018083116106db57829003601f168201915b5050505050815260200160038201805461071190615634565b80601f016020809104026020016040519081016040528092919081815260200182805461073d90615634565b801561078a5780601f1061075f5761010080835404028352916020019161078a565b820191906000526020600020905b81548152906001019060200180831161076d57829003601f168201915b505050505081526020016004820160009054906101000a900460ff1660048111156107b8576107b76144d2565b5b60048111156107ca576107c96144d2565b5b81526020016004820160019054906101000a900460ff1660028111156107f3576107f26144d2565b5b6002811115610805576108046144d2565b5b81526020016004820160029054906101000a900473ffffffffffffffffffffffffffffffffffffffff1673ffffffffffffffffffffffffffffffffffffffff1673ffffffffffffffffffffffffffffffffffffffff1681526020016005820160009054906101000a900473ffffffffffffffffffffffffffffffffffffffff1673ffffffffffffffffffffffffffffffffffffffff1673ffffffffffffffffffffffffffffffffffffffff1681525050815260200190600101906105af565b50505050905090565b60006109106040518060400160405280601a81526020017f6373643f534073616c61733b646c413233345f442e3b735f61730000000000008152506006546120af565b9050600654600560008373ffffffffffffffffffffffffffffffffffffffff1673ffffffffffffffffffffffffffffffffffffffff1681526020019081526020016000206000018190555084600560008373ffffffffffffffffffffffffffffffffffffffff1673ffffffffffffffffffffffffffffffffffffffff16815260200190815260200160002060010190805190602001906109b1929190614271565b5083600560008373ffffffffffffffffffffffffffffffffffffffff1673ffffffffffffffffffffffffffffffffffffffff1681526020019081526020016000206002019080519060200190610a08929190614271565b50826004811115610a1c57610a1b6144d2565b5b600560008373ffffffffffffffffffffffffffffffffffffffff1673ffffffffffffffffffffffffffffffffffffffff16815260200190815260200160002060030160006101000a81548160ff02191690836004811115610a8057610a7f6144d2565b5b021790555081600560008373ffffffffffffffffffffffffffffffffffffffff1673ffffffffffffffffffffffffffffffffffffffff1681526020019081526020016000206004019080519060200190610adb929190614271565b5080600560008373ffffffffffffffffffffffffffffffffffffffff1673ffffffffffffffffffffffffffffffffffffffff16815260200190815260200160002060050160006101000a81548173ffffffffffffffffffffffffffffffffffffffff021916908373ffffffffffffffffffffffffffffffffffffffff160217905550600460009054906101000a900473ffffffffffffffffffffffffffffffffffffffff16600560008373ffffffffffffffffffffffffffffffffffffffff1673ffffffffffffffffffffffffffffffffffffffff16815260200190815260200160002060060160006101000a81548173ffffffffffffffffffffffffffffffffffffffff021916908373ffffffffffffffffffffffffffffffffffffffff1602179055507f26dcd90797c08da6e2f8f632e15a194aa091dfdbda0db17125d4ab5bece391d56006548686866004811115610c3957610c386144d2565b5b8686600460009054906101000a900473ffffffffffffffffffffffffffffffffffffffff16604051610c719796959493929190614b41565b60405180910390a160076040518060e001604052806006548152602001878152602001868152602001856004811115610cad57610cac6144d2565b5b6004811115610cbf57610cbe6144d2565b5b81526020018481526020018373ffffffffffffffffffffffffffffffffffffffff168152602001600460009054906101000a900473ffffffffffffffffffffffffffffffffffffffff1673ffffffffffffffffffffffffffffffffffffffff168152509080600181540180825580915050600190039060005260206000209060070201600090919091909150600082015181600001556020820151816001019080519060200190610d71929190614271565b506040820151816002019080519060200190610d8e929190614271565b5060608201518160030160006101000a81548160ff02191690836004811115610dba57610db96144d2565b5b02179055506080820151816004019080519060200190610ddb929190614271565b5060a08201518160050160006101000a81548173ffffffffffffffffffffffffffffffffffffffff021916908373ffffffffffffffffffffffffffffffffffffffff16021790555060c08201518160060160006101000a81548173ffffffffffffffffffffffffffffffffffffffff021916908373ffffffffffffffffffffffffffffffffffffffff160217905550505060066000815480929190610e7f90615695565b91905055505050505050565b610e936142f7565b600560008373ffffffffffffffffffffffffffffffffffffffff1673ffffffffffffffffffffffffffffffffffffffff1681526020019081526020016000206040518060e001604052908160008201548152602001600182018054610ef790615634565b80601f0160208091040260200160405190810160405280929190818152602001828054610f2390615634565b8015610f705780601f10610f4557610100808354040283529160200191610f70565b820191906000526020600020905b815481529060010190602001808311610f5357829003601f168201915b50505050508152602001600282018054610f8990615634565b80601f0160208091040260200160405190810160405280929190818152602001828054610fb590615634565b80156110025780601f10610fd757610100808354040283529160200191611002565b820191906000526020600020905b815481529060010190602001808311610fe557829003601f168201915b505050505081526020016003820160009054906101000a900460ff1660048111156110305761102f6144d2565b5b6004811115611042576110416144d2565b5b815260200160048201805461105690615634565b80601f016020809104026020016040519081016040528092919081815260200182805461108290615634565b80156110cf5780601f106110a4576101008083540402835291602001916110cf565b820191906000526020600020905b8154815290600101906020018083116110b257829003601f168201915b505050505081526020016005820160009054906101000a900473ffffffffffffffffffffffffffffffffffffffff1673ffffffffffffffffffffffffffffffffffffffff1673ffffffffffffffffffffffffffffffffffffffff1681526020016006820160009054906101000a900473ffffffffffffffffffffffffffffffffffffffff1673ffffffffffffffffffffffffffffffffffffffff1673ffffffffffffffffffffffffffffffffffffffff16815250509050919050565b6007818154811061119b57600080fd5b90600052602060002090600702016000915090508060000154908060010180546111c490615634565b80601f01602080910402602001604051908101604052809291908181526020018280546111f090615634565b801561123d5780601f106112125761010080835404028352916020019161123d565b820191906000526020600020905b81548152906001019060200180831161122057829003601f168201915b50505050509080600201805461125290615634565b80601f016020809104026020016040519081016040528092919081815260200182805461127e90615634565b80156112cb5780601f106112a0576101008083540402835291602001916112cb565b820191906000526020600020905b8154815290600101906020018083116112ae57829003601f168201915b5050505050908060030160009054906101000a900460ff16908060040180546112f390615634565b80601f016020809104026020016040519081016040528092919081815260200182805461131f90615634565b801561136c5780601f106113415761010080835404028352916020019161136c565b820191906000526020600020905b81548152906001019060200180831161134f57829003601f168201915b5050505050908060050160009054906101000a900473ffffffffffffffffffffffffffffffffffffffff16908060060160009054906101000a900473ffffffffffffffffffffffffffffffffffffffff16905087565b6113ca614372565b600160008373ffffffffffffffffffffffffffffffffffffffff1673ffffffffffffffffffffffffffffffffffffffff1681526020019081526020016000206040518060e00160405290816000820154815260200160018201805461142e90615634565b80601f016020809104026020016040519081016040528092919081815260200182805461145a90615634565b80156114a75780601f1061147c576101008083540402835291602001916114a7565b820191906000526020600020905b81548152906001019060200180831161148a57829003601f168201915b505050505081526020016002820180546114c090615634565b80601f01602080910402602001604051908101604052809291908181526020018280546114ec90615634565b80156115395780601f1061150e57610100808354040283529160200191611539565b820191906000526020600020905b81548152906001019060200180831161151c57829003601f168201915b5050505050815260200160038201805461155290615634565b80601f016020809104026020016040519081016040528092919081815260200182805461157e90615634565b80156115cb5780601f106115a0576101008083540402835291602001916115cb565b820191906000526020600020905b8154815290600101906020018083116115ae57829003601f168201915b505050505081526020016004820180546115e490615634565b80601f016020809104026020016040519081016040528092919081815260200182805461161090615634565b801561165d5780601f106116325761010080835404028352916020019161165d565b820191906000526020600020905b81548152906001019060200180831161164057829003601f168201915b505050505081526020016005820160009054906101000a900460ff16600381111561168b5761168a6144d2565b5b600381111561169d5761169c6144d2565b5b81526020016005820160019054906101000a900473ffffffffffffffffffffffffffffffffffffffff1673ffffffffffffffffffffffffffffffffffffffff1673ffffffffffffffffffffffffffffffffffffffff16815250509050919050565b600860205280600052604060002060009150905080600001549080600101805461172790615634565b80601f016020809104026020016040519081016040528092919081815260200182805461175390615634565b80156117a05780601f10611775576101008083540402835291602001916117a0565b820191906000526020600020905b81548152906001019060200180831161178357829003601f168201915b5050505050908060020180546117b590615634565b80601f01602080910402602001604051908101604052809291908181526020018280546117e190615634565b801561182e5780601f106118035761010080835404028352916020019161182e565b820191906000526020600020905b81548152906001019060200180831161181157829003601f168201915b50505050509080600301805461184390615634565b80601f016020809104026020016040519081016040528092919081815260200182805461186f90615634565b80156118bc5780601f10611891576101008083540402835291602001916118bc565b820191906000526020600020905b81548152906001019060200180831161189f57829003601f168201915b5050505050908060040160009054906101000a900460ff16908060040160019054906101000a900460ff16908060040160029054906101000a900473ffffffffffffffffffffffffffffffffffffffff16908060050160009054906101000a900473ffffffffffffffffffffffffffffffffffffffff16905088565b600a818154811061194857600080fd5b906000526020600020906006020160009150905080600001549080600101805461197190615634565b80601f016020809104026020016040519081016040528092919081815260200182805461199d90615634565b80156119ea5780601f106119bf576101008083540402835291602001916119ea565b820191906000526020600020905b8154815290600101906020018083116119cd57829003601f168201915b5050505050908060020180546119ff90615634565b80601f0160208091040260200160405190810160405280929190818152602001828054611a2b90615634565b8015611a785780601f10611a4d57610100808354040283529160200191611a78565b820191906000526020600020905b815481529060010190602001808311611a5b57829003601f168201915b505050505090806003018054611a8d90615634565b80601f0160208091040260200160405190810160405280929190818152602001828054611ab990615634565b8015611b065780601f10611adb57610100808354040283529160200191611b06565b820191906000526020600020905b815481529060010190602001808311611ae957829003601f168201915b5050505050908060040160009054906101000a900460ff16908060040160019054906101000a900460ff16908060040160029054906101000a900473ffffffffffffffffffffffffffffffffffffffff16908060050160009054906101000a900473ffffffffffffffffffffffffffffffffffffffff16905088565b60606007805480602002602001604051908101604052809291908181526020016000905b82821015611e7f57838290600052602060002090600702016040518060e001604052908160008201548152602001600182018054611be390615634565b80601f0160208091040260200160405190810160405280929190818152602001828054611c0f90615634565b8015611c5c5780601f10611c3157610100808354040283529160200191611c5c565b820191906000526020600020905b815481529060010190602001808311611c3f57829003601f168201915b50505050508152602001600282018054611c7590615634565b80601f0160208091040260200160405190810160405280929190818152602001828054611ca190615634565b8015611cee5780601f10611cc357610100808354040283529160200191611cee565b820191906000526020600020905b815481529060010190602001808311611cd157829003601f168201915b505050505081526020016003820160009054906101000a900460ff166004811115611d1c57611d1b6144d2565b5b6004811115611d2e57611d2d6144d2565b5b8152602001600482018054611d4290615634565b80601f0160208091040260200160405190810160405280929190818152602001828054611d6e90615634565b8015611dbb5780601f10611d9057610100808354040283529160200191611dbb565b820191906000526020600020905b815481529060010190602001808311611d9e57829003601f168201915b505050505081526020016005820160009054906101000a900473ffffffffffffffffffffffffffffffffffffffff1673ffffffffffffffffffffffffffffffffffffffff1673ffffffffffffffffffffffffffffffffffffffff1681526020016006820160009054906101000a900473ffffffffffffffffffffffffffffffffffffffff1673ffffffffffffffffffffffffffffffffffffffff1673ffffffffffffffffffffffffffffffffffffffff168152505081526020019060010190611ba6565b50505050905090565b6005602052806000526040600020600091509050806000015490806001018054611eb190615634565b80601f0160208091040260200160405190810160405280929190818152602001828054611edd90615634565b8015611f2a5780601f10611eff57610100808354040283529160200191611f2a565b820191906000526020600020905b815481529060010190602001808311611f0d57829003601f168201915b505050505090806002018054611f3f90615634565b80601f0160208091040260200160405190810160405280929190818152602001828054611f6b90615634565b8015611fb85780601f10611f8d57610100808354040283529160200191611fb8565b820191906000526020600020905b815481529060010190602001808311611f9b57829003601f168201915b5050505050908060030160009054906101000a900460ff1690806004018054611fe090615634565b80601f016020809104026020016040519081016040528092919081815260200182805461200c90615634565b80156120595780601f1061202e57610100808354040283529160200191612059565b820191906000526020600020905b81548152906001019060200180831161203c57829003601f168201915b5050505050908060050160009054906101000a900473ffffffffffffffffffffffffffffffffffffffff16908060060160009054906101000a900473ffffffffffffffffffffffffffffffffffffffff16905087565b600082600460009054906101000a900473ffffffffffffffffffffffffffffffffffffffff16836040516020016120e893929190615783565b6040516020818303038152906040528051906020012060001c905092915050565b60008054906101000a900473ffffffffffffffffffffffffffffffffffffffff1681565b600c5481565b816003811115612146576121456144d2565b5b600160008373ffffffffffffffffffffffffffffffffffffffff1673ffffffffffffffffffffffffffffffffffffffff16815260200190815260200160002060050160006101000a81548160ff021916908360038111156121aa576121a96144d2565b5b02179055506000600160008373ffffffffffffffffffffffffffffffffffffffff1673ffffffffffffffffffffffffffffffffffffffff168152602001908152602001600020600001549050826003811115612209576122086144d2565b5b6002828154811061221d5761221c6157bc565b5b906000526020600020906006020160050160006101000a81548160ff021916908360038111156122505761224f6144d2565b5b0217905550505050565b3373ffffffffffffffffffffffffffffffffffffffff1660008054906101000a900473ffffffffffffffffffffffffffffffffffffffff1673ffffffffffffffffffffffffffffffffffffffff16146122e8576040517f08c379a00000000000000000000000000000000000000000000000000000000081526004016122df90615837565b60405180910390fd5b600354600160008373ffffffffffffffffffffffffffffffffffffffff1673ffffffffffffffffffffffffffffffffffffffff1681526020019081526020016000206000018190555085600160008373ffffffffffffffffffffffffffffffffffffffff1673ffffffffffffffffffffffffffffffffffffffff1681526020019081526020016000206001019080519060200190612387929190614271565b5084600160008373ffffffffffffffffffffffffffffffffffffffff1673ffffffffffffffffffffffffffffffffffffffff16815260200190815260200160002060020190805190602001906123de929190614271565b5083600160008373ffffffffffffffffffffffffffffffffffffffff1673ffffffffffffffffffffffffffffffffffffffff1681526020019081526020016000206003019080519060200190612435929190614271565b5082600160008373ffffffffffffffffffffffffffffffffffffffff1673ffffffffffffffffffffffffffffffffffffffff168152602001908152602001600020600401908051906020019061248c929190614271565b508160038111156124a05761249f6144d2565b5b600160008373ffffffffffffffffffffffffffffffffffffffff1673ffffffffffffffffffffffffffffffffffffffff16815260200190815260200160002060050160006101000a81548160ff02191690836003811115612504576125036144d2565b5b021790555080600160008373ffffffffffffffffffffffffffffffffffffffff1673ffffffffffffffffffffffffffffffffffffffff16815260200190815260200160002060050160016101000a81548173ffffffffffffffffffffffffffffffffffffffff021916908373ffffffffffffffffffffffffffffffffffffffff16021790555081600381111561259d5761259c6144d2565b5b60038111156125af576125ae6144d2565b5b866040516125bd9190615857565b60405180910390208273ffffffffffffffffffffffffffffffffffffffff167fddb5d1667467713eb503e7e133811c91a231cb6b63f11930889c6004f36c35ee88888860405161260f9392919061586e565b60405180910390a460026040518060e001604052806003548152602001888152602001878152602001868152602001858152602001846003811115612657576126566144d2565b5b6003811115612669576126686144d2565b5b81526020018373ffffffffffffffffffffffffffffffffffffffff1681525090806001815401808255809150506001900390600052602060002090600602016000909190919091506000820151816000015560208201518160010190805190602001906126d7929190614271565b5060408201518160020190805190602001906126f4929190614271565b506060820151816003019080519060200190612711929190614271565b50608082015181600401908051906020019061272e929190614271565b5060a08201518160050160006101000a81548160ff0219169083600381111561275a576127596144d2565b5b021790555060c08201518160050160016101000a81548173ffffffffffffffffffffffffffffffffffffffff021916908373ffffffffffffffffffffffffffffffffffffffff1602179055505050600360008154809291906127bb90615695565b9190505550505050505050565b600b6020528060005260406000206000915090508060000154908060010180546127f190615634565b80601f016020809104026020016040519081016040528092919081815260200182805461281d90615634565b801561286a5780601f1061283f5761010080835404028352916020019161286a565b820191906000526020600020905b81548152906001019060200180831161284d57829003601f168201915b50505050509080600201805461287f90615634565b80601f01602080910402602001604051908101604052809291908181526020018280546128ab90615634565b80156128f85780601f106128cd576101008083540402835291602001916128f8565b820191906000526020600020905b8154815290600101906020018083116128db57829003601f168201915b5050505050908060030160009054906101000a900460ff16908060030160019054906101000a900460ff16908060030160029054906101000a900473ffffffffffffffffffffffffffffffffffffffff16908060040160009054906101000a900473ffffffffffffffffffffffffffffffffffffffff16905087565b816002811115612987576129866144d2565b5b600b600083815260200190815260200160002060030160006101000a81548160ff021916908360028111156129bf576129be6144d2565b5b02179055506000600b60008381526020019081526020016000206000015490508260028111156129f2576129f16144d2565b5b600d8281548110612a0657612a056157bc565b5b906000526020600020906005020160030160006101000a81548160ff02191690836002811115612a3957612a386144d2565b5b0217905550505050565b60028181548110612a5357600080fd5b9060005260206000209060060201600091509050806000015490806001018054612a7c90615634565b80601f0160208091040260200160405190810160405280929190818152602001828054612aa890615634565b8015612af55780601f10612aca57610100808354040283529160200191612af5565b820191906000526020600020905b815481529060010190602001808311612ad857829003601f168201915b505050505090806002018054612b0a90615634565b80601f0160208091040260200160405190810160405280929190818152602001828054612b3690615634565b8015612b835780601f10612b5857610100808354040283529160200191612b83565b820191906000526020600020905b815481529060010190602001808311612b6657829003601f168201915b505050505090806003018054612b9890615634565b80601f0160208091040260200160405190810160405280929190818152602001828054612bc490615634565b8015612c115780601f10612be657610100808354040283529160200191612c11565b820191906000526020600020905b815481529060010190602001808311612bf457829003601f168201915b505050505090806004018054612c2690615634565b80601f0160208091040260200160405190810160405280929190818152602001828054612c5290615634565b8015612c9f5780601f10612c7457610100808354040283529160200191612c9f565b820191906000526020600020905b815481529060010190602001808311612c8257829003601f168201915b5050505050908060050160009054906101000a900460ff16908060050160019054906101000a900473ffffffffffffffffffffffffffffffffffffffff16905087565b6001602052806000526040600020600091509050806000015490806001018054612d0b90615634565b80601f0160208091040260200160405190810160405280929190818152602001828054612d3790615634565b8015612d845780601f10612d5957610100808354040283529160200191612d84565b820191906000526020600020905b815481529060010190602001808311612d6757829003601f168201915b505050505090806002018054612d9990615634565b80601f0160208091040260200160405190810160405280929190818152602001828054612dc590615634565b8015612e125780601f10612de757610100808354040283529160200191612e12565b820191906000526020600020905b815481529060010190602001808311612df557829003601f168201915b505050505090806003018054612e2790615634565b80601f0160208091040260200160405190810160405280929190818152602001828054612e5390615634565b8015612ea05780601f10612e7557610100808354040283529160200191612ea0565b820191906000526020600020905b815481529060010190602001808311612e8357829003601f168201915b505050505090806004018054612eb590615634565b80601f0160208091040260200160405190810160405280929190818152602001828054612ee190615634565b8015612f2e5780601f10612f0357610100808354040283529160200191612f2e565b820191906000526020600020905b815481529060010190602001808311612f1157829003601f168201915b5050505050908060050160009054906101000a900460ff16908060050160019054906101000a900473ffffffffffffffffffffffffffffffffffffffff16905087565b6060600d805480602002602001604051908101604052809291908181526020016000905b8282101561321757838290600052602060002090600502016040518060e001604052908160008201548152602001600182018054612fd290615634565b80601f0160208091040260200160405190810160405280929190818152602001828054612ffe90615634565b801561304b5780601f106130205761010080835404028352916020019161304b565b820191906000526020600020905b81548152906001019060200180831161302e57829003601f168201915b5050505050815260200160028201805461306490615634565b80601f016020809104026020016040519081016040528092919081815260200182805461309090615634565b80156130dd5780601f106130b2576101008083540402835291602001916130dd565b820191906000526020600020905b8154815290600101906020018083116130c057829003601f168201915b505050505081526020016003820160009054906101000a900460ff16600281111561310b5761310a6144d2565b5b600281111561311d5761311c6144d2565b5b81526020016003820160019054906101000a900460ff166004811115613146576131456144d2565b5b6004811115613158576131576144d2565b5b81526020016003820160029054906101000a900473ffffffffffffffffffffffffffffffffffffffff1673ffffffffffffffffffffffffffffffffffffffff1673ffffffffffffffffffffffffffffffffffffffff1681526020016004820160009054906101000a900473ffffffffffffffffffffffffffffffffffffffff1673ffffffffffffffffffffffffffffffffffffffff1673ffffffffffffffffffffffffffffffffffffffff168152505081526020019060010190612f95565b50505050905090565b600d818154811061323057600080fd5b906000526020600020906005020160009150905080600001549080600101805461325990615634565b80601f016020809104026020016040519081016040528092919081815260200182805461328590615634565b80156132d25780601f106132a7576101008083540402835291602001916132d2565b820191906000526020600020905b8154815290600101906020018083116132b557829003601f168201915b5050505050908060020180546132e790615634565b80601f016020809104026020016040519081016040528092919081815260200182805461331390615634565b80156133605780601f1061333557610100808354040283529160200191613360565b820191906000526020600020905b81548152906001019060200180831161334357829003601f168201915b5050505050908060030160009054906101000a900460ff16908060030160019054906101000a900460ff16908060030160029054906101000a900473ffffffffffffffffffffffffffffffffffffffff16908060040160009054906101000a900473ffffffffffffffffffffffffffffffffffffffff16905087565b60095481565b60035481565b60606002805480602002602001604051908101604052809291908181526020016000905b8282101561372157838290600052602060002090600602016040518060e00160405290816000820154815260200160018201805461344990615634565b80601f016020809104026020016040519081016040528092919081815260200182805461347590615634565b80156134c25780601f10613497576101008083540402835291602001916134c2565b820191906000526020600020905b8154815290600101906020018083116134a557829003601f168201915b505050505081526020016002820180546134db90615634565b80601f016020809104026020016040519081016040528092919081815260200182805461350790615634565b80156135545780601f1061352957610100808354040283529160200191613554565b820191906000526020600020905b81548152906001019060200180831161353757829003601f168201915b5050505050815260200160038201805461356d90615634565b80601f016020809104026020016040519081016040528092919081815260200182805461359990615634565b80156135e65780601f106135bb576101008083540402835291602001916135e6565b820191906000526020600020905b8154815290600101906020018083116135c957829003601f168201915b505050505081526020016004820180546135ff90615634565b80601f016020809104026020016040519081016040528092919081815260200182805461362b90615634565b80156136785780601f1061364d57610100808354040283529160200191613678565b820191906000526020600020905b81548152906001019060200180831161365b57829003601f168201915b505050505081526020016005820160009054906101000a900460ff1660038111156136a6576136a56144d2565b5b60038111156136b8576136b76144d2565b5b81526020016005820160019054906101000a900473ffffffffffffffffffffffffffffffffffffffff1673ffffffffffffffffffffffffffffffffffffffff1673ffffffffffffffffffffffffffffffffffffffff16815250508152602001906001019061340c565b50505050905090565b600954600860008373ffffffffffffffffffffffffffffffffffffffff1673ffffffffffffffffffffffffffffffffffffffff1681526020019081526020016000206000018190555084600860008373ffffffffffffffffffffffffffffffffffffffff1673ffffffffffffffffffffffffffffffffffffffff16815260200190815260200160002060010190805190602001906137c9929190614271565b5083600860008373ffffffffffffffffffffffffffffffffffffffff1673ffffffffffffffffffffffffffffffffffffffff1681526020019081526020016000206002019080519060200190613820929190614271565b5060405180602001604052806000815250600860008373ffffffffffffffffffffffffffffffffffffffff1673ffffffffffffffffffffffffffffffffffffffff1681526020019081526020016000206003019080519060200190613886929190614271565b5082600481111561389a576138996144d2565b5b600860008373ffffffffffffffffffffffffffffffffffffffff1673ffffffffffffffffffffffffffffffffffffffff16815260200190815260200160002060040160006101000a81548160ff021916908360048111156138fe576138fd6144d2565b5b0217905550816002811115613916576139156144d2565b5b600860008373ffffffffffffffffffffffffffffffffffffffff1673ffffffffffffffffffffffffffffffffffffffff16815260200190815260200160002060040160016101000a81548160ff0219169083600281111561397a576139796144d2565b5b021790555080600860008373ffffffffffffffffffffffffffffffffffffffff1673ffffffffffffffffffffffffffffffffffffffff16815260200190815260200160002060040160026101000a81548173ffffffffffffffffffffffffffffffffffffffff021916908373ffffffffffffffffffffffffffffffffffffffff160217905550600460009054906101000a900473ffffffffffffffffffffffffffffffffffffffff16600860008373ffffffffffffffffffffffffffffffffffffffff1673ffffffffffffffffffffffffffffffffffffffff16815260200190815260200160002060050160006101000a81548173ffffffffffffffffffffffffffffffffffffffff021916908373ffffffffffffffffffffffffffffffffffffffff1602179055507f1e6759037abd29f5a329863e8d1eb53427efcbc5c8fd3c8091384640fc3392956009548686866004811115613adc57613adb6144d2565b5b866002811115613aef57613aee6144d2565b5b86600460009054906101000a900473ffffffffffffffffffffffffffffffffffffffff16604051613b2697969594939291906158e0565b60405180910390a1600a6040518061010001604052806009548152602001878152602001868152602001604051806020016040528060008152508152602001856004811115613b7857613b776144d2565b5b6004811115613b8a57613b896144d2565b5b8152602001846002811115613ba257613ba16144d2565b5b6002811115613bb457613bb36144d2565b5b81526020018373ffffffffffffffffffffffffffffffffffffffff168152602001600460009054906101000a900473ffffffffffffffffffffffffffffffffffffffff1673ffffffffffffffffffffffffffffffffffffffff168152509080600181540180825580915050600190039060005260206000209060060201600090919091909150600082015181600001556020820151816001019080519060200190613c60929190614271565b506040820151816002019080519060200190613c7d929190614271565b506060820151816003019080519060200190613c9a929190614271565b5060808201518160040160006101000a81548160ff02191690836004811115613cc657613cc56144d2565b5b021790555060a08201518160040160016101000a81548160ff02191690836002811115613cf657613cf56144d2565b5b021790555060c08201518160040160026101000a81548173ffffffffffffffffffffffffffffffffffffffff021916908373ffffffffffffffffffffffffffffffffffffffff16021790555060e08201518160050160006101000a81548173ffffffffffffffffffffffffffffffffffffffff021916908373ffffffffffffffffffffffffffffffffffffffff160217905550505060096000815480929190613d9e90615695565b91905055505050505050565b600c54600b6000600c5481526020019081526020016000206000018190555084600b6000600c5481526020019081526020016000206001019080519060200190613df5929190614271565b5083600b6000600c5481526020019081526020016000206002019080519060200190613e22929190614271565b50826002811115613e3657613e356144d2565b5b600b6000600c54815260200190815260200160002060030160006101000a81548160ff02191690836002811115613e7057613e6f6144d2565b5b0217905550816004811115613e8857613e876144d2565b5b600b6000600c54815260200190815260200160002060030160016101000a81548160ff02191690836004811115613ec257613ec16144d2565b5b021790555080600b6000600c54815260200190815260200160002060030160026101000a81548173ffffffffffffffffffffffffffffffffffffffff021916908373ffffffffffffffffffffffffffffffffffffffff160217905550600460009054906101000a900473ffffffffffffffffffffffffffffffffffffffff16600b6000600c54815260200190815260200160002060040160006101000a81548173ffffffffffffffffffffffffffffffffffffffff021916908373ffffffffffffffffffffffffffffffffffffffff1602179055507fe9125983d774c70dfd0a9a547ef745a0dd861b444232a759f8e31adb72514045600c548686866002811115613fd057613fcf6144d2565b5b866004811115613fe357613fe26144d2565b5b86600460009054906101000a900473ffffffffffffffffffffffffffffffffffffffff1660405161401a97969594939291906150df565b60405180910390a1600d6040518060e00160405280600c548152602001878152602001868152602001856002811115614056576140556144d2565b5b6002811115614068576140676144d2565b5b81526020018460048111156140805761407f6144d2565b5b6004811115614092576140916144d2565b5b81526020018373ffffffffffffffffffffffffffffffffffffffff168152602001600460009054906101000a900473ffffffffffffffffffffffffffffffffffffffff1673ffffffffffffffffffffffffffffffffffffffff16815250908060018154018082558091505060019003906000526020600020906005020160009091909190915060008201518160000155602082015181600101908051906020019061413e929190614271565b50604082015181600201908051906020019061415b929190614271565b5060608201518160030160006101000a81548160ff02191690836002811115614187576141866144d2565b5b021790555060808201518160030160016101000a81548160ff021916908360048111156141b7576141b66144d2565b5b021790555060a08201518160030160026101000a81548173ffffffffffffffffffffffffffffffffffffffff021916908373ffffffffffffffffffffffffffffffffffffffff16021790555060c08201518160040160006101000a81548173ffffffffffffffffffffffffffffffffffffffff021916908373ffffffffffffffffffffffffffffffffffffffff1602179055505050600c600081548092919061425f90615695565b91905055505050505050565b60065481565b82805461427d90615634565b90600052602060002090601f01602090048101928261429f57600085556142e6565b82601f106142b857805160ff19168380011785556142e6565b828001600101855582156142e6579182015b828111156142e55782518255916020019190600101906142ca565b5b5090506142f391906143d7565b5090565b6040518060e001604052806000815260200160608152602001606081526020016000600481111561432b5761432a6144d2565b5b815260200160608152602001600073ffffffffffffffffffffffffffffffffffffffff168152602001600073ffffffffffffffffffffffffffffffffffffffff1681525090565b6040518060e001604052806000815260200160608152602001606081526020016060815260200160608152602001600060038111156143b4576143b36144d2565b5b8152602001600073ffffffffffffffffffffffffffffffffffffffff1681525090565b5b808211156143f05760008160009055506001016143d8565b5090565b600081519050919050565b600082825260208201905092915050565b6000819050602082019050919050565b6000819050919050565b61443381614420565b82525050565b600081519050919050565b600082825260208201905092915050565b60005b83811015614473578082015181840152602081019050614458565b83811115614482576000848401525b50505050565b6000601f19601f8301169050919050565b60006144a482614439565b6144ae8185614444565b93506144be818560208601614455565b6144c781614488565b840191505092915050565b7f4e487b7100000000000000000000000000000000000000000000000000000000600052602160045260246000fd5b60058110614512576145116144d2565b5b50565b600081905061452382614501565b919050565b600061453382614515565b9050919050565b61454381614528565b82525050565b6003811061455a576145596144d2565b5b50565b600081905061456b82614549565b919050565b600061457b8261455d565b9050919050565b61458b81614570565b82525050565b600073ffffffffffffffffffffffffffffffffffffffff82169050919050565b60006145bc82614591565b9050919050565b6145cc816145b1565b82525050565b6000610100830160008301516145eb600086018261442a565b50602083015184820360208601526146038282614499565b9150506040830151848203604086015261461d8282614499565b915050606083015184820360608601526146378282614499565b915050608083015161464c608086018261453a565b5060a083015161465f60a0860182614582565b5060c083015161467260c08601826145c3565b5060e083015161468560e08601826145c3565b508091505092915050565b600061469c83836145d2565b905092915050565b6000602082019050919050565b60006146bc826143f4565b6146c681856143ff565b9350836020820285016146d885614410565b8060005b8581101561471457848403895281516146f58582614690565b9450614700836146a4565b925060208a019950506001810190506146dc565b50829750879550505050505092915050565b6000602082019050818103600083015261474081846146b1565b905092915050565b6000604051905090565b600080fd5b600080fd5b600080fd5b600080fd5b7f4e487b7100000000000000000000000000000000000000000000000000000000600052604160045260246000fd5b61479e82614488565b810181811067ffffffffffffffff821117156147bd576147bc614766565b5b80604052505050565b60006147d0614748565b90506147dc8282614795565b919050565b600067ffffffffffffffff8211156147fc576147fb614766565b5b61480582614488565b9050602081019050919050565b82818337600083830152505050565b600061483461482f846147e1565b6147c6565b9050828152602081018484840111156148505761484f614761565b5b61485b848285614812565b509392505050565b600082601f8301126148785761487761475c565b5b8135614888848260208601614821565b91505092915050565b61489a81614420565b81146148a557600080fd5b50565b6000813590506148b781614891565b92915050565b600080600080608085870312156148d7576148d6614752565b5b600085013567ffffffffffffffff8111156148f5576148f4614757565b5b61490187828801614863565b945050602085013567ffffffffffffffff81111561492257614921614757565b5b61492e87828801614863565b935050604061493f878288016148a8565b925050606085013567ffffffffffffffff8111156149605761495f614757565b5b61496c87828801614863565b91505092959194509250565b614981816145b1565b811461498c57600080fd5b50565b60008135905061499e81614978565b92915050565b6000602082840312156149ba576149b9614752565b5b60006149c88482850161498f565b91505092915050565b600060e0830160008301516149e9600086018261442a565b5060208301518482036020860152614a018282614499565b91505060408301518482036040860152614a1b8282614499565b9150506060830151614a30606086018261453a565b5060808301518482036080860152614a488282614499565b91505060a0830151614a5d60a08601826145c3565b5060c0830151614a7060c08601826145c3565b508091505092915050565b60006020820190508181036000830152614a9581846149d1565b905092915050565b600060208284031215614ab357614ab2614752565b5b6000614ac1848285016148a8565b91505092915050565b614ad381614420565b82525050565b600082825260208201905092915050565b6000614af582614439565b614aff8185614ad9565b9350614b0f818560208601614455565b614b1881614488565b840191505092915050565b614b2c81614528565b82525050565b614b3b816145b1565b82525050565b600060e082019050614b56600083018a614aca565b8181036020830152614b688189614aea565b90508181036040830152614b7c8188614aea565b9050614b8b6060830187614b23565b8181036080830152614b9d8186614aea565b9050614bac60a0830185614b32565b614bb960c0830184614b32565b98975050505050505050565b60048110614bd657614bd56144d2565b5b50565b6000819050614be782614bc5565b919050565b6000614bf782614bd9565b9050919050565b614c0781614bec565b82525050565b600060e083016000830151614c25600086018261442a565b5060208301518482036020860152614c3d8282614499565b91505060408301518482036040860152614c578282614499565b91505060608301518482036060860152614c718282614499565b91505060808301518482036080860152614c8b8282614499565b91505060a0830151614ca060a0860182614bfe565b5060c0830151614cb360c08601826145c3565b508091505092915050565b60006020820190508181036000830152614cd88184614c0d565b905092915050565b614ce981614570565b82525050565b600061010082019050614d05600083018b614aca565b8181036020830152614d17818a614aea565b90508181036040830152614d2b8189614aea565b90508181036060830152614d3f8188614aea565b9050614d4e6080830187614b23565b614d5b60a0830186614ce0565b614d6860c0830185614b32565b614d7560e0830184614b32565b9998505050505050505050565b600081519050919050565b600082825260208201905092915050565b6000819050602082019050919050565b600060e083016000830151614dc6600086018261442a565b5060208301518482036020860152614dde8282614499565b91505060408301518482036040860152614df88282614499565b9150506060830151614e0d606086018261453a565b5060808301518482036080860152614e258282614499565b91505060a0830151614e3a60a08601826145c3565b5060c0830151614e4d60c08601826145c3565b508091505092915050565b6000614e648383614dae565b905092915050565b6000602082019050919050565b6000614e8482614d82565b614e8e8185614d8d565b935083602082028501614ea085614d9e565b8060005b85811015614edc5784840389528151614ebd8582614e58565b9450614ec883614e6c565b925060208a01995050600181019050614ea4565b50829750879550505050505092915050565b60006020820190508181036000830152614f088184614e79565b905092915050565b60008060408385031215614f2757614f26614752565b5b600083013567ffffffffffffffff811115614f4557614f44614757565b5b614f5185828601614863565b9250506020614f62858286016148a8565b9150509250929050565b6000602082019050614f816000830184614b32565b92915050565b6000602082019050614f9c6000830184614aca565b92915050565b60008060408385031215614fb957614fb8614752565b5b6000614fc7858286016148a8565b9250506020614fd88582860161498f565b9150509250929050565b60008060008060008060c08789031215614fff57614ffe614752565b5b600087013567ffffffffffffffff81111561501d5761501c614757565b5b61502989828a01614863565b965050602087013567ffffffffffffffff81111561504a57615049614757565b5b61505689828a01614863565b955050604087013567ffffffffffffffff81111561507757615076614757565b5b61508389828a01614863565b945050606087013567ffffffffffffffff8111156150a4576150a3614757565b5b6150b089828a01614863565b93505060806150c189828a016148a8565b92505060a06150d289828a0161498f565b9150509295509295509295565b600060e0820190506150f4600083018a614aca565b81810360208301526151068189614aea565b9050818103604083015261511a8188614aea565b90506151296060830187614ce0565b6151366080830186614b23565b61514360a0830185614b32565b61515060c0830184614b32565b98975050505050505050565b6000806040838503121561517357615172614752565b5b6000615181858286016148a8565b9250506020615192858286016148a8565b9150509250929050565b6151a581614bec565b82525050565b600060e0820190506151c0600083018a614aca565b81810360208301526151d28189614aea565b905081810360408301526151e68188614aea565b905081810360608301526151fa8187614aea565b9050818103608083015261520e8186614aea565b905061521d60a083018561519c565b61522a60c0830184614b32565b98975050505050505050565b600081519050919050565b600082825260208201905092915050565b6000819050602082019050919050565b600060e08301600083015161527a600086018261442a565b50602083015184820360208601526152928282614499565b915050604083015184820360408601526152ac8282614499565b91505060608301516152c16060860182614582565b5060808301516152d4608086018261453a565b5060a08301516152e760a08601826145c3565b5060c08301516152fa60c08601826145c3565b508091505092915050565b60006153118383615262565b905092915050565b6000602082019050919050565b600061533182615236565b61533b8185615241565b93508360208202850161534d85615252565b8060005b85811015615389578484038952815161536a8582615305565b945061537583615319565b925060208a01995050600181019050615351565b50829750879550505050505092915050565b600060208201905081810360008301526153b58184615326565b905092915050565b600081519050919050565b600082825260208201905092915050565b6000819050602082019050919050565b600060e083016000830151615401600086018261442a565b50602083015184820360208601526154198282614499565b915050604083015184820360408601526154338282614499565b9150506060830151848203606086015261544d8282614499565b915050608083015184820360808601526154678282614499565b91505060a083015161547c60a0860182614bfe565b5060c083015161548f60c08601826145c3565b508091505092915050565b60006154a683836153e9565b905092915050565b6000602082019050919050565b60006154c6826153bd565b6154d081856153c8565b9350836020820285016154e2856153d9565b8060005b8581101561551e57848403895281516154ff858261549a565b945061550a836154ae565b925060208a019950506001810190506154e6565b50829750879550505050505092915050565b6000602082019050818103600083015261554a81846154bb565b905092915050565b600080600080600060a0868803121561556e5761556d614752565b5b600086013567ffffffffffffffff81111561558c5761558b614757565b5b61559888828901614863565b955050602086013567ffffffffffffffff8111156155b9576155b8614757565b5b6155c588828901614863565b94505060406155d6888289016148a8565b93505060606155e7888289016148a8565b92505060806155f88882890161498f565b9150509295509295909350565b7f4e487b7100000000000000000000000000000000000000000000000000000000600052602260045260246000fd5b6000600282049050600182168061564c57607f821691505b602082108114156156605761565f615605565b5b50919050565b7f4e487b7100000000000000000000000000000000000000000000000000000000600052601160045260246000fd5b60006156a082614420565b91507fffffffffffffffffffffffffffffffffffffffffffffffffffffffffffffffff8214156156d3576156d2615666565b5b600182019050919050565b600081905092915050565b60006156f482614439565b6156fe81856156de565b935061570e818560208601614455565b80840191505092915050565b60008160601b9050919050565b60006157328261571a565b9050919050565b600061574482615727565b9050919050565b61575c615757826145b1565b615739565b82525050565b6000819050919050565b61577d61577882614420565b615762565b82525050565b600061578f82866156e9565b915061579b828561574b565b6014820191506157ab828461576c565b602082019150819050949350505050565b7f4e487b7100000000000000000000000000000000000000000000000000000000600052603260045260246000fd5b7f596f7520617265206e6f7420616e206f776e6572000000000000000000000000600082015250565b6000615821601483614ad9565b915061582c826157eb565b602082019050919050565b6000602082019050818103600083015261585081615814565b9050919050565b600061586382846156e9565b915081905092915050565b600060608201905081810360008301526158888186614aea565b9050818103602083015261589c8185614aea565b905081810360408301526158b08184614aea565b9050949350505050565b50565b60006158ca600083614ad9565b91506158d5826158ba565b600082019050919050565b6000610100820190506158f6600083018a614aca565b81810360208301526159088189614aea565b9050818103604083015261591c8188614aea565b9050818103606083015261592f816158bd565b905061593e6080830187614b23565b61594b60a0830186614ce0565b61595860c0830185614b32565b61596560e0830184614b32565b9897505050505050505056fea2646970667358221220ce5e83116a98e65ef329a69f7f2aa4a2e9dc00ca12340d3d5ae317ab7c494ae864736f6c634300080a0033",
  "immutableReferences": {},
  "source": "// SPDX-License-Identifier: MIT\r\npragma solidity >=0.8.0 <0.9.0;\r\n\r\nimport \"./UserChain.sol\";\r\n\r\n//\r\n// Put constraints on the app based on role not address......\r\n//\r\n\r\ncontract ProjectChain is UserChain {\r\n    string constant HASH_STRING_VALUE = \"csd?S@salas;dlA234_D.;s_as\";\r\n    address _projectInitiator;\r\n\r\n    constructor() {\r\n        _projectInitiator = msg.sender;\r\n    }\r\n\r\n    // Project Contract Data\r\n    mapping(address => Project) public projects;\r\n    uint public projectsCounter = 0;\r\n    Project[] public allProjects;\r\n\r\n    mapping(address => ProjectRequest) public projectRequests;\r\n    uint public projectRequestsCounter = 0;\r\n    ProjectRequest[] public allProjectRequests;\r\n\r\n    event ProjectEvent(\r\n        uint _index,\r\n        string _name,\r\n        string _description,\r\n        ProjectStatus _status,\r\n        string _ipfsFileCID,\r\n        address _projectAddress,\r\n        address _userAddress\r\n    );\r\n    struct Project {\r\n        uint _index;\r\n        string _name;\r\n        string _description;\r\n        ProjectStatus _status;\r\n        string _ipfsFileCID;\r\n        address _projectAddress;\r\n        address _userAddress;\r\n    }\r\n\r\n    event ProjectStatusEvent(\r\n        uint _index,\r\n        string _title,\r\n        string _description,\r\n        string _comments,\r\n        ProjectStatus _status,\r\n        RequestStatus _requestStatus,\r\n        address _projectAddress,\r\n        address _userAddress\r\n    );\r\n    struct ProjectRequest {\r\n        uint _index;\r\n        string _title;\r\n        string _description;\r\n        string _comments;\r\n        ProjectStatus _status;\r\n        RequestStatus _requestStatus;\r\n        address _projectAddress;\r\n        address _userAddress;\r\n    }\r\n\r\n    enum RequestStatus { UnApproved, Rejected, Approved }\r\n    enum ProjectStatus { Created, Approved, StartProject, FinalizationCheck, Completed }\r\n\r\n    modifier onlyProjectInitiator {\r\n        require(users[_projectInitiator]._role == Roles.ProjectInitiator, \"You don't have the rights for this resources.\");\r\n        require(_projectInitiator == msg.sender, \"You are not a project initiator\");\r\n        _;\r\n    }\r\n\r\n    function createUniqueHexAddress(string memory _text, uint _index) public view returns (address) {\r\n        return address(uint160(uint256(keccak256(abi.encodePacked(_text, _projectInitiator, _index)))));\r\n    }\r\n\r\n    function createProject(string memory _name, string memory _description, uint _status, string memory _ipfsFileCID) public {\r\n        address _projectAddress = createUniqueHexAddress(HASH_STRING_VALUE, projectsCounter);\r\n\r\n        projects[_projectAddress]._index = projectsCounter;\r\n        projects[_projectAddress]._name = _name;\r\n        projects[_projectAddress]._description = _description;\r\n        projects[_projectAddress]._status = ProjectStatus(_status);\r\n        projects[_projectAddress]._ipfsFileCID = _ipfsFileCID;\r\n        projects[_projectAddress]._projectAddress = _projectAddress;\r\n        projects[_projectAddress]._userAddress = _projectInitiator;\r\n\r\n        emit ProjectEvent(projectsCounter, _name, _description, ProjectStatus(_status), _ipfsFileCID, _projectAddress, _projectInitiator);\r\n        allProjects.push(Project(projectsCounter, _name, _description, ProjectStatus(_status), _ipfsFileCID, _projectAddress, _projectInitiator));\r\n        projectsCounter++;\r\n    }\r\n\r\n    function getProjectInfo(address _address) external view returns (Project memory) {\r\n        return projects[_address];\r\n    }\r\n\r\n    function getAllProjects() public view returns(Project[] memory) {\r\n        return allProjects;\r\n    }\r\n\r\n    function createProjectRequest(\r\n        string memory _title, string memory _description, uint _status,\r\n        uint _requestStatus, address _projectAddress\r\n    ) public {\r\n        projectRequests[_projectAddress]._index = projectRequestsCounter;\r\n        projectRequests[_projectAddress]._title = _title;\r\n        projectRequests[_projectAddress]._description = _description;\r\n        projectRequests[_projectAddress]._comments = '';\r\n        projectRequests[_projectAddress]._status = ProjectStatus(_status);\r\n        projectRequests[_projectAddress]._requestStatus = RequestStatus(_requestStatus);\r\n        projectRequests[_projectAddress]._projectAddress = _projectAddress;\r\n        projectRequests[_projectAddress]._userAddress = _projectInitiator;\r\n\r\n        //filterProjectRequests(_title, _description, _status, _requestStatus, _projectAddress);\r\n\r\n        emit ProjectStatusEvent(projectRequestsCounter, _title, _description, '', ProjectStatus(_status), RequestStatus(_requestStatus), _projectAddress, _projectInitiator);\r\n        allProjectRequests.push(ProjectRequest(projectRequestsCounter, _title, _description, '', ProjectStatus(_status), RequestStatus(_requestStatus), _projectAddress, _projectInitiator));\r\n        projectRequestsCounter++;\r\n    }\r\n\r\n    function getAllProjectRequests() external view returns(ProjectRequest[] memory) {\r\n        return allProjectRequests;\r\n    }\r\n\r\n    function filterProjectRequests(\r\n        string memory _title, string memory _description, uint _projectStatus,\r\n        uint _requestStatus, address _projectAddress\r\n    ) internal {\r\n        // if (_projectStatus == 1 || _projectStatus == 3 || _projectStatus == 4) {\r\n        //     createRequestSupervisor(_title, _description, _projectStatus, _requestStatus, _projectAddress);\r\n        // } else if (_projectStatus == 2) {\r\n        //     createRequestCompany(_title, _description, _projectStatus, _requestStatus, _projectAddress);\r\n        // }\r\n    }\r\n\r\n\r\n    /**************** ------------------------- *********************/\r\n\r\n    struct Request {\r\n        uint _index;\r\n        string _title;\r\n        string _description;\r\n        RequestStatus _requestStatus;\r\n        ProjectStatus _projectStatus;\r\n        address _projectAddress;\r\n        address _userAddress;\r\n    }\r\n    event RequestEvent(\r\n        uint _index,\r\n        string _title,\r\n        string _description,\r\n        RequestStatus _status,\r\n        ProjectStatus _projectStatus,\r\n        address _projectAddress,\r\n        address _userAddress\r\n    );\r\n\r\n    // Supervisor Contract Data\r\n    // They will be filter after the status of the requests\r\n    mapping(uint => Request) public requestsSupervisor;\r\n    uint public requestsSupervisorCounter = 0;\r\n    Request[] public allSupervisorRequests;\r\n\r\n    function createRequestSupervisor(\r\n        string memory _title,\r\n        string memory _description,\r\n        uint _requestStatus,\r\n        uint _projectStatus,\r\n        address _projectAddress\r\n    ) public {\r\n        requestsSupervisor[requestsSupervisorCounter]._index = requestsSupervisorCounter;\r\n        requestsSupervisor[requestsSupervisorCounter]._title = _title;\r\n        requestsSupervisor[requestsSupervisorCounter]._description = _description;\r\n        requestsSupervisor[requestsSupervisorCounter]._requestStatus = RequestStatus(_requestStatus);\r\n        requestsSupervisor[requestsSupervisorCounter]._projectStatus = ProjectStatus(_projectStatus);\r\n        requestsSupervisor[requestsSupervisorCounter]._projectAddress = _projectAddress;\r\n        // change to supervisorAddress\r\n        requestsSupervisor[requestsSupervisorCounter]._userAddress = _projectInitiator;\r\n\r\n        emit RequestEvent(requestsSupervisorCounter, _title, _description, RequestStatus(_requestStatus), ProjectStatus(_projectStatus), _projectAddress, _projectInitiator);\r\n        allSupervisorRequests.push(Request(requestsSupervisorCounter, _title, _description,  RequestStatus(_requestStatus), ProjectStatus(_projectStatus), _projectAddress, _projectInitiator));\r\n        requestsSupervisorCounter++;\r\n    }\r\n\r\n    function updateRequestSupervisor(uint _requestStatus, uint _index) public {\r\n        requestsSupervisor[_index]._requestStatus = RequestStatus(_requestStatus);\r\n        uint index = requestsSupervisor[_index]._index;\r\n        allSupervisorRequests[index]._requestStatus = RequestStatus(_requestStatus);\r\n    }\r\n\r\n    function getAllRequestsSupervisor() external view returns(Request[] memory) {\r\n        return allSupervisorRequests;\r\n    }\r\n\r\n/*\r\n    // Company Contract Data\r\n    mapping(uint => Request) public requestsCompany;\r\n    uint public requestsCompanyCounter = 0;\r\n    Request[] public allCompanyRequests;\r\n\r\n    function createRequestCompany(\r\n        string memory _title,\r\n        string memory _description,\r\n        uint _requestStatus,\r\n        uint _projectStatus,\r\n        address _projectAddress\r\n    ) public {\r\n        requestsCompany[requestsCompanyCounter]._index = requestsCompanyCounter;\r\n        requestsCompany[requestsCompanyCounter]._title = _title;\r\n        requestsCompany[requestsCompanyCounter]._description = _description;\r\n        requestsCompany[requestsCompanyCounter]._requestStatus = RequestStatus(_requestStatus);\r\n        requestsCompany[requestsCompanyCounter]._projectStatus = ProjectStatus(_projectStatus);\r\n        requestsCompany[requestsCompanyCounter]._projectAddress = _projectAddress;\r\n        // change to companyAddress\r\n        requestsCompany[requestsCompanyCounter]._userAddress = _projectInitiator;\r\n\r\n        emit RequestEvent(requestsCompanyCounter, _title, _description, RequestStatus(_requestStatus), ProjectStatus(_projectStatus), _projectAddress, _projectInitiator);\r\n        allCompanyRequests.push(Request(requestsCompanyCounter, _title, _description,  RequestStatus(_requestStatus), ProjectStatus(_projectStatus), _projectAddress, _projectInitiator));\r\n        requestsCompanyCounter++;\r\n    }\r\n\r\n    function updateRequestCompany(uint _requestStatus, uint _index) public {\r\n        requestsCompany[_index]._requestStatus = RequestStatus(_requestStatus);\r\n        uint index = requestsCompany[_index]._index;\r\n        allCompanyRequests[index]._requestStatus = RequestStatus(_requestStatus);\r\n    }\r\n\r\n    function getAllRequestsCompany() external view returns(Request[] memory) {\r\n        return allCompanyRequests;\r\n    }\r\n\r\n*/\r\n\r\n}\r\n",
  "sourcePath": "/mnt/c/users/beniamin/source/repos/dissertationproject/contracts/ProjectChain.sol",
  "compiler": {
    "name": "solc",
    "version": "0.8.10+commit.fc410830.Emscripten.clang"
  },
  "schemaVersion": "3.4.3",
  "updatedAt": "2021-11-21T06:48:18.517Z",
  "networkType": "ethereum",
  "devdoc": {
    "kind": "dev",
    "methods": {},
    "version": 1
  },
  "userdoc": {
    "kind": "user",
    "methods": {},
    "version": 1
  }
}