{
  "contractName": "ProjectChain",
  "abi": [
    {
      "inputs": [],
      "stateMutability": "nonpayable",
      "type": "constructor"
    },
    {
      "anonymous": false,
      "inputs": [
        {
          "components": [
            {
              "internalType": "uint256",
              "name": "_index",
              "type": "uint256"
            },
            {
              "internalType": "string",
              "name": "_name",
              "type": "string"
            },
            {
              "internalType": "enum SharedChain.ProjectStatus",
              "name": "_status",
              "type": "uint8"
            },
            {
              "internalType": "string",
              "name": "_ipfsFileCID",
              "type": "string"
            },
            {
              "internalType": "address",
              "name": "_projectAddress",
              "type": "address"
            },
            {
              "internalType": "address",
              "name": "_signerAddress",
              "type": "address"
            },
            {
              "internalType": "address",
              "name": "_companyAddress",
              "type": "address"
            },
            {
              "internalType": "bool",
              "name": "_assigned",
              "type": "bool"
            },
            {
              "internalType": "uint256",
              "name": "_timestamp",
              "type": "uint256"
            },
            {
              "internalType": "string",
              "name": "_signature",
              "type": "string"
            }
          ],
          "indexed": false,
          "internalType": "struct SharedChain.Project",
          "name": "_project",
          "type": "tuple"
        },
        {
          "indexed": true,
          "internalType": "address",
          "name": "_projectAddress",
          "type": "address"
        },
        {
          "indexed": true,
          "internalType": "address",
          "name": "_companyAddress",
          "type": "address"
        }
      ],
      "name": "ProjectEvent",
      "type": "event"
    },
    {
      "anonymous": false,
      "inputs": [
        {
          "components": [
            {
              "internalType": "uint256",
              "name": "_index",
              "type": "uint256"
            },
            {
              "internalType": "string",
              "name": "_title",
              "type": "string"
            },
            {
              "internalType": "string",
              "name": "_comments",
              "type": "string"
            },
            {
              "internalType": "enum SharedChain.ProjectStatus",
              "name": "_projectStatus",
              "type": "uint8"
            },
            {
              "internalType": "enum SharedChain.RequestStatus",
              "name": "_requestStatus",
              "type": "uint8"
            },
            {
              "internalType": "enum SharedChain.RequestType",
              "name": "_requestType",
              "type": "uint8"
            },
            {
              "internalType": "address",
              "name": "_projectAddress",
              "type": "address"
            },
            {
              "internalType": "address",
              "name": "_requestAddress",
              "type": "address"
            },
            {
              "internalType": "address",
              "name": "_signerAddress",
              "type": "address"
            },
            {
              "internalType": "uint256",
              "name": "_timestamp",
              "type": "uint256"
            },
            {
              "internalType": "string",
              "name": "_signature",
              "type": "string"
            }
          ],
          "indexed": false,
          "internalType": "struct SharedChain.Request",
          "name": "_request",
          "type": "tuple"
        },
        {
          "indexed": true,
          "internalType": "address",
          "name": "_requestAddress",
          "type": "address"
        },
        {
          "indexed": true,
          "internalType": "address",
          "name": "_projectAddress",
          "type": "address"
        }
      ],
      "name": "RequestEvent",
      "type": "event"
    },
    {
      "anonymous": false,
      "inputs": [
        {
          "components": [
            {
              "internalType": "bytes32",
              "name": "_firstname",
              "type": "bytes32"
            },
            {
              "internalType": "bytes32",
              "name": "_lastname",
              "type": "bytes32"
            },
            {
              "internalType": "enum SharedChain.Roles",
              "name": "_role",
              "type": "uint8"
            },
            {
              "internalType": "address",
              "name": "_walletAddress",
              "type": "address"
            },
            {
              "internalType": "uint256",
              "name": "_timestamp",
              "type": "uint256"
            }
          ],
          "indexed": false,
          "internalType": "struct SharedChain.User",
          "name": "_user",
          "type": "tuple"
        },
        {
          "indexed": true,
          "internalType": "address",
          "name": "_walletAddress",
          "type": "address"
        }
      ],
      "name": "UserEvent",
      "type": "event"
    },
    {
      "inputs": [
        {
          "internalType": "uint256",
          "name": "_role",
          "type": "uint256"
        },
        {
          "internalType": "address",
          "name": "_walletAddress",
          "type": "address"
        }
      ],
      "name": "changeUserRole",
      "outputs": [],
      "stateMutability": "nonpayable",
      "type": "function"
    },
    {
      "inputs": [],
      "name": "getAllUsers",
      "outputs": [
        {
          "components": [
            {
              "internalType": "bytes32",
              "name": "_firstname",
              "type": "bytes32"
            },
            {
              "internalType": "bytes32",
              "name": "_lastname",
              "type": "bytes32"
            },
            {
              "internalType": "enum SharedChain.Roles",
              "name": "_role",
              "type": "uint8"
            },
            {
              "internalType": "address",
              "name": "_walletAddress",
              "type": "address"
            },
            {
              "internalType": "uint256",
              "name": "_timestamp",
              "type": "uint256"
            }
          ],
          "internalType": "struct SharedChain.User[]",
          "name": "",
          "type": "tuple[]"
        }
      ],
      "stateMutability": "view",
      "type": "function",
      "constant": true
    },
    {
      "inputs": [
        {
          "internalType": "address",
          "name": "_walletAddress",
          "type": "address"
        }
      ],
      "name": "getUserInfo",
      "outputs": [
        {
          "components": [
            {
              "internalType": "bytes32",
              "name": "_firstname",
              "type": "bytes32"
            },
            {
              "internalType": "bytes32",
              "name": "_lastname",
              "type": "bytes32"
            },
            {
              "internalType": "enum SharedChain.Roles",
              "name": "_role",
              "type": "uint8"
            },
            {
              "internalType": "address",
              "name": "_walletAddress",
              "type": "address"
            },
            {
              "internalType": "uint256",
              "name": "_timestamp",
              "type": "uint256"
            }
          ],
          "internalType": "struct SharedChain.User",
          "name": "",
          "type": "tuple"
        }
      ],
      "stateMutability": "view",
      "type": "function",
      "constant": true
    },
    {
      "inputs": [],
      "name": "owner",
      "outputs": [
        {
          "internalType": "address",
          "name": "",
          "type": "address"
        }
      ],
      "stateMutability": "view",
      "type": "function",
      "constant": true
    },
    {
      "inputs": [
        {
          "internalType": "address",
          "name": "",
          "type": "address"
        }
      ],
      "name": "projects",
      "outputs": [
        {
          "internalType": "uint256",
          "name": "_index",
          "type": "uint256"
        },
        {
          "internalType": "string",
          "name": "_name",
          "type": "string"
        },
        {
          "internalType": "enum SharedChain.ProjectStatus",
          "name": "_status",
          "type": "uint8"
        },
        {
          "internalType": "string",
          "name": "_ipfsFileCID",
          "type": "string"
        },
        {
          "internalType": "address",
          "name": "_projectAddress",
          "type": "address"
        },
        {
          "internalType": "address",
          "name": "_signerAddress",
          "type": "address"
        },
        {
          "internalType": "address",
          "name": "_companyAddress",
          "type": "address"
        },
        {
          "internalType": "bool",
          "name": "_assigned",
          "type": "bool"
        },
        {
          "internalType": "uint256",
          "name": "_timestamp",
          "type": "uint256"
        },
        {
          "internalType": "string",
          "name": "_signature",
          "type": "string"
        }
      ],
      "stateMutability": "view",
      "type": "function",
      "constant": true
    },
    {
      "inputs": [
        {
          "internalType": "uint256",
          "name": "",
          "type": "uint256"
        }
      ],
      "name": "projectsAddress",
      "outputs": [
        {
          "internalType": "address",
          "name": "",
          "type": "address"
        }
      ],
      "stateMutability": "view",
      "type": "function",
      "constant": true
    },
    {
      "inputs": [],
      "name": "projectsCounter",
      "outputs": [
        {
          "internalType": "uint256",
          "name": "",
          "type": "uint256"
        }
      ],
      "stateMutability": "view",
      "type": "function",
      "constant": true
    },
    {
      "inputs": [
        {
          "internalType": "bytes32",
          "name": "_firstname",
          "type": "bytes32"
        },
        {
          "internalType": "bytes32",
          "name": "_lastname",
          "type": "bytes32"
        },
        {
          "internalType": "uint256",
          "name": "_role",
          "type": "uint256"
        },
        {
          "internalType": "address",
          "name": "_walletAddress",
          "type": "address"
        }
      ],
      "name": "registerUser",
      "outputs": [],
      "stateMutability": "nonpayable",
      "type": "function"
    },
    {
      "inputs": [
        {
          "internalType": "address",
          "name": "",
          "type": "address"
        }
      ],
      "name": "requests",
      "outputs": [
        {
          "internalType": "uint256",
          "name": "_index",
          "type": "uint256"
        },
        {
          "internalType": "string",
          "name": "_title",
          "type": "string"
        },
        {
          "internalType": "string",
          "name": "_comments",
          "type": "string"
        },
        {
          "internalType": "enum SharedChain.ProjectStatus",
          "name": "_projectStatus",
          "type": "uint8"
        },
        {
          "internalType": "enum SharedChain.RequestStatus",
          "name": "_requestStatus",
          "type": "uint8"
        },
        {
          "internalType": "enum SharedChain.RequestType",
          "name": "_requestType",
          "type": "uint8"
        },
        {
          "internalType": "address",
          "name": "_projectAddress",
          "type": "address"
        },
        {
          "internalType": "address",
          "name": "_requestAddress",
          "type": "address"
        },
        {
          "internalType": "address",
          "name": "_signerAddress",
          "type": "address"
        },
        {
          "internalType": "uint256",
          "name": "_timestamp",
          "type": "uint256"
        },
        {
          "internalType": "string",
          "name": "_signature",
          "type": "string"
        }
      ],
      "stateMutability": "view",
      "type": "function",
      "constant": true
    },
    {
      "inputs": [
        {
          "internalType": "uint256",
          "name": "",
          "type": "uint256"
        }
      ],
      "name": "requestsAddress",
      "outputs": [
        {
          "internalType": "address",
          "name": "",
          "type": "address"
        }
      ],
      "stateMutability": "view",
      "type": "function",
      "constant": true
    },
    {
      "inputs": [],
      "name": "requestsCounter",
      "outputs": [
        {
          "internalType": "uint256",
          "name": "",
          "type": "uint256"
        }
      ],
      "stateMutability": "view",
      "type": "function",
      "constant": true
    },
    {
      "inputs": [
        {
          "internalType": "address",
          "name": "",
          "type": "address"
        }
      ],
      "name": "users",
      "outputs": [
        {
          "internalType": "bytes32",
          "name": "_firstname",
          "type": "bytes32"
        },
        {
          "internalType": "bytes32",
          "name": "_lastname",
          "type": "bytes32"
        },
        {
          "internalType": "enum SharedChain.Roles",
          "name": "_role",
          "type": "uint8"
        },
        {
          "internalType": "address",
          "name": "_walletAddress",
          "type": "address"
        },
        {
          "internalType": "uint256",
          "name": "_timestamp",
          "type": "uint256"
        }
      ],
      "stateMutability": "view",
      "type": "function",
      "constant": true
    },
    {
      "inputs": [],
      "name": "usersCounter",
      "outputs": [
        {
          "internalType": "uint256",
          "name": "",
          "type": "uint256"
        }
      ],
      "stateMutability": "view",
      "type": "function",
      "constant": true
    },
    {
      "inputs": [
        {
          "internalType": "string",
          "name": "_name",
          "type": "string"
        },
        {
          "internalType": "uint256",
          "name": "_index",
          "type": "uint256"
        }
      ],
      "name": "createUniqueProjectAddress",
      "outputs": [
        {
          "internalType": "address",
          "name": "",
          "type": "address"
        }
      ],
      "stateMutability": "view",
      "type": "function",
      "constant": true
    },
    {
      "inputs": [
        {
          "internalType": "address",
          "name": "_projectAddress",
          "type": "address"
        },
        {
          "internalType": "string",
          "name": "_name",
          "type": "string"
        },
        {
          "internalType": "uint256",
          "name": "_status",
          "type": "uint256"
        },
        {
          "internalType": "string",
          "name": "_ipfsFileCID",
          "type": "string"
        },
        {
          "internalType": "string",
          "name": "_signature",
          "type": "string"
        }
      ],
      "name": "createProject",
      "outputs": [],
      "stateMutability": "nonpayable",
      "type": "function"
    },
    {
      "inputs": [
        {
          "internalType": "address",
          "name": "_projectAddress",
          "type": "address"
        },
        {
          "internalType": "string",
          "name": "_ipfsFileCID",
          "type": "string"
        },
        {
          "internalType": "string",
          "name": "_signature",
          "type": "string"
        }
      ],
      "name": "updateProject",
      "outputs": [],
      "stateMutability": "nonpayable",
      "type": "function"
    },
    {
      "inputs": [
        {
          "internalType": "address",
          "name": "_address",
          "type": "address"
        }
      ],
      "name": "getProjectInfo",
      "outputs": [
        {
          "components": [
            {
              "internalType": "uint256",
              "name": "_index",
              "type": "uint256"
            },
            {
              "internalType": "string",
              "name": "_name",
              "type": "string"
            },
            {
              "internalType": "enum SharedChain.ProjectStatus",
              "name": "_status",
              "type": "uint8"
            },
            {
              "internalType": "string",
              "name": "_ipfsFileCID",
              "type": "string"
            },
            {
              "internalType": "address",
              "name": "_projectAddress",
              "type": "address"
            },
            {
              "internalType": "address",
              "name": "_signerAddress",
              "type": "address"
            },
            {
              "internalType": "address",
              "name": "_companyAddress",
              "type": "address"
            },
            {
              "internalType": "bool",
              "name": "_assigned",
              "type": "bool"
            },
            {
              "internalType": "uint256",
              "name": "_timestamp",
              "type": "uint256"
            },
            {
              "internalType": "string",
              "name": "_signature",
              "type": "string"
            }
          ],
          "internalType": "struct SharedChain.Project",
          "name": "",
          "type": "tuple"
        }
      ],
      "stateMutability": "view",
      "type": "function",
      "constant": true
    },
    {
      "inputs": [
        {
          "internalType": "address",
          "name": "_walletAddress",
          "type": "address"
        }
      ],
      "name": "getProjectsByUserAddress",
      "outputs": [
        {
          "components": [
            {
              "internalType": "uint256",
              "name": "_index",
              "type": "uint256"
            },
            {
              "internalType": "string",
              "name": "_name",
              "type": "string"
            },
            {
              "internalType": "enum SharedChain.ProjectStatus",
              "name": "_status",
              "type": "uint8"
            },
            {
              "internalType": "string",
              "name": "_ipfsFileCID",
              "type": "string"
            },
            {
              "internalType": "address",
              "name": "_projectAddress",
              "type": "address"
            },
            {
              "internalType": "address",
              "name": "_signerAddress",
              "type": "address"
            },
            {
              "internalType": "address",
              "name": "_companyAddress",
              "type": "address"
            },
            {
              "internalType": "bool",
              "name": "_assigned",
              "type": "bool"
            },
            {
              "internalType": "uint256",
              "name": "_timestamp",
              "type": "uint256"
            },
            {
              "internalType": "string",
              "name": "_signature",
              "type": "string"
            }
          ],
          "internalType": "struct SharedChain.Project[]",
          "name": "",
          "type": "tuple[]"
        }
      ],
      "stateMutability": "view",
      "type": "function",
      "constant": true
    },
    {
      "inputs": [
        {
          "internalType": "string",
          "name": "_title",
          "type": "string"
        },
        {
          "internalType": "uint256",
          "name": "_index",
          "type": "uint256"
        }
      ],
      "name": "createUniqueRequestAddress",
      "outputs": [
        {
          "internalType": "address",
          "name": "",
          "type": "address"
        }
      ],
      "stateMutability": "view",
      "type": "function",
      "constant": true
    },
    {
      "inputs": [
        {
          "internalType": "string",
          "name": "_title",
          "type": "string"
        },
        {
          "internalType": "uint256",
          "name": "_projectStatus",
          "type": "uint256"
        },
        {
          "internalType": "uint256",
          "name": "_requestStatus",
          "type": "uint256"
        },
        {
          "internalType": "address",
          "name": "_projectAddress",
          "type": "address"
        },
        {
          "internalType": "address",
          "name": "_requestAddress",
          "type": "address"
        },
        {
          "internalType": "string",
          "name": "_signature",
          "type": "string"
        }
      ],
      "name": "createRequest",
      "outputs": [],
      "stateMutability": "nonpayable",
      "type": "function"
    },
    {
      "inputs": [
        {
          "internalType": "string",
          "name": "_comments",
          "type": "string"
        },
        {
          "internalType": "uint256",
          "name": "_requestStatus",
          "type": "uint256"
        },
        {
          "internalType": "uint256",
          "name": "_projectStatus",
          "type": "uint256"
        },
        {
          "internalType": "address",
          "name": "_projectAddress",
          "type": "address"
        },
        {
          "internalType": "address",
          "name": "_requestAddress",
          "type": "address"
        },
        {
          "internalType": "string",
          "name": "_signature",
          "type": "string"
        }
      ],
      "name": "updateSupervisorRequest",
      "outputs": [],
      "stateMutability": "nonpayable",
      "type": "function"
    },
    {
      "inputs": [
        {
          "internalType": "string",
          "name": "_comments",
          "type": "string"
        },
        {
          "internalType": "uint256",
          "name": "_requestStatus",
          "type": "uint256"
        },
        {
          "internalType": "uint256",
          "name": "_projectStatus",
          "type": "uint256"
        },
        {
          "internalType": "address",
          "name": "_projectAddress",
          "type": "address"
        },
        {
          "internalType": "address",
          "name": "_requestAddress",
          "type": "address"
        },
        {
          "internalType": "string",
          "name": "_signature",
          "type": "string"
        }
      ],
      "name": "updateCompanyRequest",
      "outputs": [],
      "stateMutability": "nonpayable",
      "type": "function"
    },
    {
      "inputs": [],
      "name": "getAllRequests",
      "outputs": [
        {
          "components": [
            {
              "internalType": "uint256",
              "name": "_index",
              "type": "uint256"
            },
            {
              "internalType": "string",
              "name": "_title",
              "type": "string"
            },
            {
              "internalType": "string",
              "name": "_comments",
              "type": "string"
            },
            {
              "internalType": "enum SharedChain.ProjectStatus",
              "name": "_projectStatus",
              "type": "uint8"
            },
            {
              "internalType": "enum SharedChain.RequestStatus",
              "name": "_requestStatus",
              "type": "uint8"
            },
            {
              "internalType": "enum SharedChain.RequestType",
              "name": "_requestType",
              "type": "uint8"
            },
            {
              "internalType": "address",
              "name": "_projectAddress",
              "type": "address"
            },
            {
              "internalType": "address",
              "name": "_requestAddress",
              "type": "address"
            },
            {
              "internalType": "address",
              "name": "_signerAddress",
              "type": "address"
            },
            {
              "internalType": "uint256",
              "name": "_timestamp",
              "type": "uint256"
            },
            {
              "internalType": "string",
              "name": "_signature",
              "type": "string"
            }
          ],
          "internalType": "struct SharedChain.Request[]",
          "name": "",
          "type": "tuple[]"
        }
      ],
      "stateMutability": "view",
      "type": "function",
      "constant": true
    },
    {
      "inputs": [
        {
          "internalType": "address",
          "name": "_projectAddress",
          "type": "address"
        },
        {
          "internalType": "address",
          "name": "_requestAddress",
          "type": "address"
        }
      ],
      "name": "getLastProjectRequest",
      "outputs": [
        {
          "components": [
            {
              "internalType": "uint256",
              "name": "_index",
              "type": "uint256"
            },
            {
              "internalType": "string",
              "name": "_title",
              "type": "string"
            },
            {
              "internalType": "string",
              "name": "_comments",
              "type": "string"
            },
            {
              "internalType": "enum SharedChain.ProjectStatus",
              "name": "_projectStatus",
              "type": "uint8"
            },
            {
              "internalType": "enum SharedChain.RequestStatus",
              "name": "_requestStatus",
              "type": "uint8"
            },
            {
              "internalType": "enum SharedChain.RequestType",
              "name": "_requestType",
              "type": "uint8"
            },
            {
              "internalType": "address",
              "name": "_projectAddress",
              "type": "address"
            },
            {
              "internalType": "address",
              "name": "_requestAddress",
              "type": "address"
            },
            {
              "internalType": "address",
              "name": "_signerAddress",
              "type": "address"
            },
            {
              "internalType": "uint256",
              "name": "_timestamp",
              "type": "uint256"
            },
            {
              "internalType": "string",
              "name": "_signature",
              "type": "string"
            }
          ],
          "internalType": "struct SharedChain.Request",
          "name": "",
          "type": "tuple"
        }
      ],
      "stateMutability": "view",
      "type": "function",
      "constant": true
    }
  ],
  "bytecode": "0x6080604052336000806101000a81548173ffffffffffffffffffffffffffffffffffffffff021916908373ffffffffffffffffffffffffffffffffffffffff16021790555060006002556000600555600060085534801561005f57600080fd5b50615f2f80620000706000396000f3fe608060405234801561001057600080fd5b50600436106101585760003560e01c806384485563116100c3578063d67b1b991161007c578063d67b1b991461044c578063e1592c0d1461046a578063e2842d7914610486578063e617385f146104a4578063fb1a002a146104c0578063fe360ea5146104de57610158565b8063844855631461038a5780638da5cb5b146103a657806391009786146103c457806391d6e4ac146103e0578063a87430ba146103fc578063ba60ec841461043057610158565b806356a3eead1161011557806356a3eead146102695780636386c1c714610299578063663c2269146102c957806374adad1d146102e757806376c932e014610321578063840e78fd1461035157610158565b8063191e16451461015d5780633000d7f91461018d5780633b4ec4f8146101a957806344884710146101d957806347ee45b91461020957806348ff3c0814610239575b600080fd5b610177600480360381019061017291906145cf565b6104fc565b604051610184919061466c565b60405180910390f35b6101a760048036038101906101a291906146e9565b6105ea565b005b6101c360048036038101906101be91906145cf565b61092d565b6040516101d0919061466c565b60405180910390f35b6101f360048036038101906101ee9190614750565b610a35565b6040516102009190614a3a565b60405180910390f35b610223600480360381019061021e9190614a5c565b610ff0565b6040516102309190614b8c565b60405180910390f35b610253600480360381019061024e9190614a5c565b6114a0565b6040516102609190614d58565b60405180910390f35b610283600480360381019061027e9190614d7a565b611b73565b604051610290919061466c565b60405180910390f35b6102b360048036038101906102ae9190614a5c565b611bb2565b6040516102c09190614e66565b60405180910390f35b6102d1611d8a565b6040516102de9190614e90565b60405180910390f35b61030160048036038101906102fc9190614a5c565b611d90565b6040516103189b9a99989796959493929190614f22565b60405180910390f35b61033b60048036038101906103369190614d7a565b612009565b604051610348919061466c565b60405180910390f35b61036b60048036038101906103669190614a5c565b612048565b6040516103819a99989796959493929190614ff1565b60405180910390f35b6103a4600480360381019061039f91906150a2565b6122ae565b005b6103ae612710565b6040516103bb919061466c565b60405180910390f35b6103de60048036038101906103d99190615171565b612734565b005b6103fa60048036038101906103f591906151b1565b612915565b005b61041660048036038101906104119190614a5c565b612d7f565b604051610427959493929190615294565b60405180910390f35b61044a600480360381019061044591906151b1565b612de2565b005b6104546131cb565b6040516104619190614e90565b60405180910390f35b610484600480360381019061047f91906152e7565b6131d1565b005b61048e6133de565b60405161049b9190615489565b60405180910390f35b6104be60048036038101906104b991906151b1565b61368b565b005b6104c8613c3a565b6040516104d5919061566a565b60405180910390f35b6104e66141be565b6040516104f39190614e90565b60405180910390f35b60006001600381111561051257610511614827565b5b600160003373ffffffffffffffffffffffffffffffffffffffff1673ffffffffffffffffffffffffffffffffffffffff16815260200190815260200160002060020160009054906101000a900460ff16600381111561057457610573614827565b5b146105b4576040517f08c379a00000000000000000000000000000000000000000000000000000000081526004016105ab906156d8565b60405180910390fd5b8233836040516020016105c99392919061579d565b6040516020818303038152906040528051906020012060001c905092915050565b8073ffffffffffffffffffffffffffffffffffffffff16600073ffffffffffffffffffffffffffffffffffffffff16141561065a576040517f08c379a000000000000000000000000000000000000000000000000000000000815260040161065190615822565b60405180910390fd5b3373ffffffffffffffffffffffffffffffffffffffff1660008054906101000a900473ffffffffffffffffffffffffffffffffffffffff1673ffffffffffffffffffffffffffffffffffffffff16146106e8576040517f08c379a00000000000000000000000000000000000000000000000000000000081526004016106df906156d8565b60405180910390fd5b6040518060a0016040528085815260200184815260200183600381111561071257610711614827565b5b600381111561072457610723614827565b5b81526020018273ffffffffffffffffffffffffffffffffffffffff16815260200142815250600160008373ffffffffffffffffffffffffffffffffffffffff1673ffffffffffffffffffffffffffffffffffffffff168152602001908152602001600020600082015181600001556020820151816001015560408201518160020160006101000a81548160ff021916908360038111156107c7576107c6614827565b5b021790555060608201518160020160016101000a81548173ffffffffffffffffffffffffffffffffffffffff021916908373ffffffffffffffffffffffffffffffffffffffff160217905550608082015181600301559050508073ffffffffffffffffffffffffffffffffffffffff167ff751778eb32087df58f173035147c2eac9aac89fdc2f83b1993a198606f56db1600160008473ffffffffffffffffffffffffffffffffffffffff1673ffffffffffffffffffffffffffffffffffffffff1681526020019081526020016000206040516108a4919061599f565b60405180910390a26003819080600181540180825580915050600190039060005260206000200160009091909190916101000a81548173ffffffffffffffffffffffffffffffffffffffff021916908373ffffffffffffffffffffffffffffffffffffffff16021790555060026000815480929190610922906159e9565b919050555050505050565b60003373ffffffffffffffffffffffffffffffffffffffff16600160003373ffffffffffffffffffffffffffffffffffffffff1673ffffffffffffffffffffffffffffffffffffffff16815260200190815260200160002060020160019054906101000a900473ffffffffffffffffffffffffffffffffffffffff1673ffffffffffffffffffffffffffffffffffffffff16146109ff576040517f08c379a00000000000000000000000000000000000000000000000000000000081526004016109f690615822565b60405180910390fd5b823383604051602001610a149392919061579d565b6040516020818303038152906040528051906020012060001c905092915050565b610a3d6141c4565b60016003811115610a5157610a50614827565b5b600160003373ffffffffffffffffffffffffffffffffffffffff1673ffffffffffffffffffffffffffffffffffffffff16815260200190815260200160002060020160009054906101000a900460ff166003811115610ab357610ab2614827565b5b1480610b32575060026003811115610ace57610acd614827565b5b600160003373ffffffffffffffffffffffffffffffffffffffff1673ffffffffffffffffffffffffffffffffffffffff16815260200190815260200160002060020160009054906101000a900460ff166003811115610b3057610b2f614827565b5b145b610b71576040517f08c379a0000000000000000000000000000000000000000000000000000000008152600401610b68906156d8565b60405180910390fd5b610b796141c4565b60006008541115610fe6578373ffffffffffffffffffffffffffffffffffffffff16600760008573ffffffffffffffffffffffffffffffffffffffff1673ffffffffffffffffffffffffffffffffffffffff16815260200190815260200160002060030160039054906101000a900473ffffffffffffffffffffffffffffffffffffffff1673ffffffffffffffffffffffffffffffffffffffff161415610fe557600760008473ffffffffffffffffffffffffffffffffffffffff1673ffffffffffffffffffffffffffffffffffffffff1681526020019081526020016000206040518061016001604052908160008201548152602001600182018054610c7f90615a61565b80601f0160208091040260200160405190810160405280929190818152602001828054610cab90615a61565b8015610cf85780601f10610ccd57610100808354040283529160200191610cf8565b820191906000526020600020905b815481529060010190602001808311610cdb57829003601f168201915b50505050508152602001600282018054610d1190615a61565b80601f0160208091040260200160405190810160405280929190818152602001828054610d3d90615a61565b8015610d8a5780601f10610d5f57610100808354040283529160200191610d8a565b820191906000526020600020905b815481529060010190602001808311610d6d57829003601f168201915b505050505081526020016003820160009054906101000a900460ff166004811115610db857610db7614827565b5b6004811115610dca57610dc9614827565b5b81526020016003820160019054906101000a900460ff166002811115610df357610df2614827565b5b6002811115610e0557610e04614827565b5b81526020016003820160029054906101000a900460ff166001811115610e2e57610e2d614827565b5b6001811115610e4057610e3f614827565b5b81526020016003820160039054906101000a900473ffffffffffffffffffffffffffffffffffffffff1673ffffffffffffffffffffffffffffffffffffffff1673ffffffffffffffffffffffffffffffffffffffff1681526020016004820160009054906101000a900473ffffffffffffffffffffffffffffffffffffffff1673ffffffffffffffffffffffffffffffffffffffff1673ffffffffffffffffffffffffffffffffffffffff1681526020016005820160009054906101000a900473ffffffffffffffffffffffffffffffffffffffff1673ffffffffffffffffffffffffffffffffffffffff1673ffffffffffffffffffffffffffffffffffffffff16815260200160068201548152602001600782018054610f6090615a61565b80601f0160208091040260200160405190810160405280929190818152602001828054610f8c90615a61565b8015610fd95780601f10610fae57610100808354040283529160200191610fd9565b820191906000526020600020905b815481529060010190602001808311610fbc57829003601f168201915b50505050508152505090505b5b8091505092915050565b610ff8614296565b6001600381111561100c5761100b614827565b5b600160003373ffffffffffffffffffffffffffffffffffffffff1673ffffffffffffffffffffffffffffffffffffffff16815260200190815260200160002060020160009054906101000a900460ff16600381111561106e5761106d614827565b5b14806110ed57506002600381111561108957611088614827565b5b600160003373ffffffffffffffffffffffffffffffffffffffff1673ffffffffffffffffffffffffffffffffffffffff16815260200190815260200160002060020160009054906101000a900460ff1660038111156110eb576110ea614827565b5b145b61112c576040517f08c379a0000000000000000000000000000000000000000000000000000000008152600401611123906156d8565b60405180910390fd5b600460008373ffffffffffffffffffffffffffffffffffffffff1673ffffffffffffffffffffffffffffffffffffffff168152602001908152602001600020604051806101400160405290816000820154815260200160018201805461119190615a61565b80601f01602080910402602001604051908101604052809291908181526020018280546111bd90615a61565b801561120a5780601f106111df5761010080835404028352916020019161120a565b820191906000526020600020905b8154815290600101906020018083116111ed57829003601f168201915b505050505081526020016002820160009054906101000a900460ff16600481111561123857611237614827565b5b600481111561124a57611249614827565b5b815260200160038201805461125e90615a61565b80601f016020809104026020016040519081016040528092919081815260200182805461128a90615a61565b80156112d75780601f106112ac576101008083540402835291602001916112d7565b820191906000526020600020905b8154815290600101906020018083116112ba57829003601f168201915b505050505081526020016004820160009054906101000a900473ffffffffffffffffffffffffffffffffffffffff1673ffffffffffffffffffffffffffffffffffffffff1673ffffffffffffffffffffffffffffffffffffffff1681526020016005820160009054906101000a900473ffffffffffffffffffffffffffffffffffffffff1673ffffffffffffffffffffffffffffffffffffffff1673ffffffffffffffffffffffffffffffffffffffff1681526020016006820160009054906101000a900473ffffffffffffffffffffffffffffffffffffffff1673ffffffffffffffffffffffffffffffffffffffff1673ffffffffffffffffffffffffffffffffffffffff1681526020016006820160149054906101000a900460ff161515151581526020016007820154815260200160088201805461141790615a61565b80601f016020809104026020016040519081016040528092919081815260200182805461144390615a61565b80156114905780601f1061146557610100808354040283529160200191611490565b820191906000526020600020905b81548152906001019060200180831161147357829003601f168201915b5050505050815250509050919050565b6060600160038111156114b6576114b5614827565b5b600160003373ffffffffffffffffffffffffffffffffffffffff1673ffffffffffffffffffffffffffffffffffffffff16815260200190815260200160002060020160009054906101000a900460ff16600381111561151857611517614827565b5b148061159757506002600381111561153357611532614827565b5b600160003373ffffffffffffffffffffffffffffffffffffffff1673ffffffffffffffffffffffffffffffffffffffff16815260200190815260200160002060020160009054906101000a900460ff16600381111561159557611594614827565b5b145b6115d6576040517f08c379a00000000000000000000000000000000000000000000000000000000081526004016115cd906156d8565b60405180910390fd5b6060600060055414156115ec5780915050611b6e565b60055467ffffffffffffffff8111156116085761160761446e565b5b60405190808252806020026020018201604052801561164157816020015b61162e614296565b8152602001906001900390816116265790505b50905060005b600554811015611b685760006006828154811061166757611666615a93565b5b9060005260206000200160009054906101000a900473ffffffffffffffffffffffffffffffffffffffff169050600460008273ffffffffffffffffffffffffffffffffffffffff1673ffffffffffffffffffffffffffffffffffffffff16815260200190815260200160002060050160009054906101000a900473ffffffffffffffffffffffffffffffffffffffff1673ffffffffffffffffffffffffffffffffffffffff168573ffffffffffffffffffffffffffffffffffffffff1614806117bd5750600460008273ffffffffffffffffffffffffffffffffffffffff1673ffffffffffffffffffffffffffffffffffffffff16815260200190815260200160002060060160009054906101000a900473ffffffffffffffffffffffffffffffffffffffff1673ffffffffffffffffffffffffffffffffffffffff168573ffffffffffffffffffffffffffffffffffffffff16145b15611b54576000600460008373ffffffffffffffffffffffffffffffffffffffff1673ffffffffffffffffffffffffffffffffffffffff168152602001908152602001600020905080604051806101400160405290816000820154815260200160018201805461182c90615a61565b80601f016020809104026020016040519081016040528092919081815260200182805461185890615a61565b80156118a55780601f1061187a576101008083540402835291602001916118a5565b820191906000526020600020905b81548152906001019060200180831161188857829003601f168201915b505050505081526020016002820160009054906101000a900460ff1660048111156118d3576118d2614827565b5b60048111156118e5576118e4614827565b5b81526020016003820180546118f990615a61565b80601f016020809104026020016040519081016040528092919081815260200182805461192590615a61565b80156119725780601f1061194757610100808354040283529160200191611972565b820191906000526020600020905b81548152906001019060200180831161195557829003601f168201915b505050505081526020016004820160009054906101000a900473ffffffffffffffffffffffffffffffffffffffff1673ffffffffffffffffffffffffffffffffffffffff1673ffffffffffffffffffffffffffffffffffffffff1681526020016005820160009054906101000a900473ffffffffffffffffffffffffffffffffffffffff1673ffffffffffffffffffffffffffffffffffffffff1673ffffffffffffffffffffffffffffffffffffffff1681526020016006820160009054906101000a900473ffffffffffffffffffffffffffffffffffffffff1673ffffffffffffffffffffffffffffffffffffffff1673ffffffffffffffffffffffffffffffffffffffff1681526020016006820160149054906101000a900460ff1615151515815260200160078201548152602001600882018054611ab290615a61565b80601f0160208091040260200160405190810160405280929190818152602001828054611ade90615a61565b8015611b2b5780601f10611b0057610100808354040283529160200191611b2b565b820191906000526020600020905b815481529060010190602001808311611b0e57829003601f168201915b505050505081525050848481518110611b4757611b46615a93565b5b6020026020010181905250505b508080611b60906159e9565b915050611647565b50809150505b919050565b60098181548110611b8357600080fd5b906000526020600020016000915054906101000a900473ffffffffffffffffffffffffffffffffffffffff1681565b611bba61433f565b3373ffffffffffffffffffffffffffffffffffffffff16600160003373ffffffffffffffffffffffffffffffffffffffff1673ffffffffffffffffffffffffffffffffffffffff16815260200190815260200160002060020160019054906101000a900473ffffffffffffffffffffffffffffffffffffffff1673ffffffffffffffffffffffffffffffffffffffff1614611c8a576040517f08c379a0000000000000000000000000000000000000000000000000000000008152600401611c81906156d8565b60405180910390fd5b600160008373ffffffffffffffffffffffffffffffffffffffff1673ffffffffffffffffffffffffffffffffffffffff1681526020019081526020016000206040518060a001604052908160008201548152602001600182015481526020016002820160009054906101000a900460ff166003811115611d0d57611d0c614827565b5b6003811115611d1f57611d1e614827565b5b81526020016002820160019054906101000a900473ffffffffffffffffffffffffffffffffffffffff1673ffffffffffffffffffffffffffffffffffffffff1673ffffffffffffffffffffffffffffffffffffffff1681526020016003820154815250509050919050565b60085481565b6007602052806000526040600020600091509050806000015490806001018054611db990615a61565b80601f0160208091040260200160405190810160405280929190818152602001828054611de590615a61565b8015611e325780601f10611e0757610100808354040283529160200191611e32565b820191906000526020600020905b815481529060010190602001808311611e1557829003601f168201915b505050505090806002018054611e4790615a61565b80601f0160208091040260200160405190810160405280929190818152602001828054611e7390615a61565b8015611ec05780601f10611e9557610100808354040283529160200191611ec0565b820191906000526020600020905b815481529060010190602001808311611ea357829003601f168201915b5050505050908060030160009054906101000a900460ff16908060030160019054906101000a900460ff16908060030160029054906101000a900460ff16908060030160039054906101000a900473ffffffffffffffffffffffffffffffffffffffff16908060040160009054906101000a900473ffffffffffffffffffffffffffffffffffffffff16908060050160009054906101000a900473ffffffffffffffffffffffffffffffffffffffff1690806006015490806007018054611f8690615a61565b80601f0160208091040260200160405190810160405280929190818152602001828054611fb290615a61565b8015611fff5780601f10611fd457610100808354040283529160200191611fff565b820191906000526020600020905b815481529060010190602001808311611fe257829003601f168201915b505050505090508b565b6006818154811061201957600080fd5b906000526020600020016000915054906101000a900473ffffffffffffffffffffffffffffffffffffffff1681565b600460205280600052604060002060009150905080600001549080600101805461207190615a61565b80601f016020809104026020016040519081016040528092919081815260200182805461209d90615a61565b80156120ea5780601f106120bf576101008083540402835291602001916120ea565b820191906000526020600020905b8154815290600101906020018083116120cd57829003601f168201915b5050505050908060020160009054906101000a900460ff169080600301805461211290615a61565b80601f016020809104026020016040519081016040528092919081815260200182805461213e90615a61565b801561218b5780601f106121605761010080835404028352916020019161218b565b820191906000526020600020905b81548152906001019060200180831161216e57829003601f168201915b5050505050908060040160009054906101000a900473ffffffffffffffffffffffffffffffffffffffff16908060050160009054906101000a900473ffffffffffffffffffffffffffffffffffffffff16908060060160009054906101000a900473ffffffffffffffffffffffffffffffffffffffff16908060060160149054906101000a900460ff169080600701549080600801805461222b90615a61565b80601f016020809104026020016040519081016040528092919081815260200182805461225790615a61565b80156122a45780601f10612279576101008083540402835291602001916122a4565b820191906000526020600020905b81548152906001019060200180831161228757829003601f168201915b505050505090508a565b600160038111156122c2576122c1614827565b5b600160003373ffffffffffffffffffffffffffffffffffffffff1673ffffffffffffffffffffffffffffffffffffffff16815260200190815260200160002060020160009054906101000a900460ff16600381111561232457612323614827565b5b14612364576040517f08c379a000000000000000000000000000000000000000000000000000000000815260040161235b906156d8565b60405180910390fd5b604051806101400160405280600554815260200185815260200184600481111561239157612390614827565b5b60048111156123a3576123a2614827565b5b81526020018381526020018673ffffffffffffffffffffffffffffffffffffffff1681526020013373ffffffffffffffffffffffffffffffffffffffff168152602001600073ffffffffffffffffffffffffffffffffffffffff16815260200160001515815260200142815260200182815250600460008773ffffffffffffffffffffffffffffffffffffffff1673ffffffffffffffffffffffffffffffffffffffff16815260200190815260200160002060008201518160000155602082015181600101908051906020019061247b92919061439c565b5060408201518160020160006101000a81548160ff021916908360048111156124a7576124a6614827565b5b021790555060608201518160030190805190602001906124c892919061439c565b5060808201518160040160006101000a81548173ffffffffffffffffffffffffffffffffffffffff021916908373ffffffffffffffffffffffffffffffffffffffff16021790555060a08201518160050160006101000a81548173ffffffffffffffffffffffffffffffffffffffff021916908373ffffffffffffffffffffffffffffffffffffffff16021790555060c08201518160060160006101000a81548173ffffffffffffffffffffffffffffffffffffffff021916908373ffffffffffffffffffffffffffffffffffffffff16021790555060e08201518160060160146101000a81548160ff02191690831515021790555061010082015181600701556101208201518160080190805190602001906125e692919061439c565b50905050600073ffffffffffffffffffffffffffffffffffffffff168573ffffffffffffffffffffffffffffffffffffffff167ffb530d24abc3d497c3f0525ef204a66ac64d923ec30b40d17bc3a5f572cf4b8e600460008973ffffffffffffffffffffffffffffffffffffffff1673ffffffffffffffffffffffffffffffffffffffff1681526020019081526020016000206040516126869190615cf7565b60405180910390a36006859080600181540180825580915050600190039060005260206000200160009091909190916101000a81548173ffffffffffffffffffffffffffffffffffffffff021916908373ffffffffffffffffffffffffffffffffffffffff16021790555060056000815480929190612704906159e9565b91905055505050505050565b60008054906101000a900473ffffffffffffffffffffffffffffffffffffffff1681565b3373ffffffffffffffffffffffffffffffffffffffff1660008054906101000a900473ffffffffffffffffffffffffffffffffffffffff1673ffffffffffffffffffffffffffffffffffffffff16146127c2576040517f08c379a00000000000000000000000000000000000000000000000000000000081526004016127b9906156d8565b60405180910390fd5b8160038111156127d5576127d4614827565b5b600160008373ffffffffffffffffffffffffffffffffffffffff1673ffffffffffffffffffffffffffffffffffffffff16815260200190815260200160002060020160006101000a81548160ff0219169083600381111561283957612838614827565b5b021790555042600160008373ffffffffffffffffffffffffffffffffffffffff1673ffffffffffffffffffffffffffffffffffffffff168152602001908152602001600020600301819055508073ffffffffffffffffffffffffffffffffffffffff167ff751778eb32087df58f173035147c2eac9aac89fdc2f83b1993a198606f56db1600160008473ffffffffffffffffffffffffffffffffffffffff1673ffffffffffffffffffffffffffffffffffffffff168152602001908152602001600020604051612909919061599f565b60405180910390a25050565b6002600381111561292957612928614827565b5b600160003373ffffffffffffffffffffffffffffffffffffffff1673ffffffffffffffffffffffffffffffffffffffff16815260200190815260200160002060020160009054906101000a900460ff16600381111561298b5761298a614827565b5b146129cb576040517f08c379a00000000000000000000000000000000000000000000000000000000081526004016129c2906156d8565b60405180910390fd5b85600760008473ffffffffffffffffffffffffffffffffffffffff1673ffffffffffffffffffffffffffffffffffffffff1681526020019081526020016000206002019080519060200190612a2192919061439c565b50846002811115612a3557612a34614827565b5b600760008473ffffffffffffffffffffffffffffffffffffffff1673ffffffffffffffffffffffffffffffffffffffff16815260200190815260200160002060030160016101000a81548160ff02191690836002811115612a9957612a98614827565b5b021790555080600760008473ffffffffffffffffffffffffffffffffffffffff1673ffffffffffffffffffffffffffffffffffffffff1681526020019081526020016000206007019080519060200190612af492919061439c565b508273ffffffffffffffffffffffffffffffffffffffff168273ffffffffffffffffffffffffffffffffffffffff167fa25a6f1ff57a050a48ae4b3a19f271fddad950cac8d165d6a2eca5d54cc8070f600760008673ffffffffffffffffffffffffffffffffffffffff1673ffffffffffffffffffffffffffffffffffffffff168152602001908152602001600020604051612b909190615ed7565b60405180910390a3846002811115612bab57612baa614827565b5b6002811115612bbd57612bbc614827565b5b600280811115612bd057612bcf614827565b5b1415612d7757836004811115612be957612be8614827565b5b600460008573ffffffffffffffffffffffffffffffffffffffff1673ffffffffffffffffffffffffffffffffffffffff16815260200190815260200160002060020160006101000a81548160ff02191690836004811115612c4d57612c4c614827565b5b021790555033600460008573ffffffffffffffffffffffffffffffffffffffff1673ffffffffffffffffffffffffffffffffffffffff16815260200190815260200160002060060160006101000a81548173ffffffffffffffffffffffffffffffffffffffff021916908373ffffffffffffffffffffffffffffffffffffffff1602179055503373ffffffffffffffffffffffffffffffffffffffff168373ffffffffffffffffffffffffffffffffffffffff167ffb530d24abc3d497c3f0525ef204a66ac64d923ec30b40d17bc3a5f572cf4b8e600460008773ffffffffffffffffffffffffffffffffffffffff1673ffffffffffffffffffffffffffffffffffffffff168152602001908152602001600020604051612d6e9190615cf7565b60405180910390a35b505050505050565b60016020528060005260406000206000915090508060000154908060010154908060020160009054906101000a900460ff16908060020160019054906101000a900473ffffffffffffffffffffffffffffffffffffffff16908060030154905085565b600380811115612df557612df4614827565b5b600160003373ffffffffffffffffffffffffffffffffffffffff1673ffffffffffffffffffffffffffffffffffffffff16815260200190815260200160002060020160009054906101000a900460ff166003811115612e5757612e56614827565b5b14612e97576040517f08c379a0000000000000000000000000000000000000000000000000000000008152600401612e8e906156d8565b60405180910390fd5b85600760008473ffffffffffffffffffffffffffffffffffffffff1673ffffffffffffffffffffffffffffffffffffffff1681526020019081526020016000206002019080519060200190612eed92919061439c565b50846002811115612f0157612f00614827565b5b600760008473ffffffffffffffffffffffffffffffffffffffff1673ffffffffffffffffffffffffffffffffffffffff16815260200190815260200160002060030160016101000a81548160ff02191690836002811115612f6557612f64614827565b5b021790555080600760008473ffffffffffffffffffffffffffffffffffffffff1673ffffffffffffffffffffffffffffffffffffffff1681526020019081526020016000206007019080519060200190612fc092919061439c565b508273ffffffffffffffffffffffffffffffffffffffff168273ffffffffffffffffffffffffffffffffffffffff167fa25a6f1ff57a050a48ae4b3a19f271fddad950cac8d165d6a2eca5d54cc8070f600760008673ffffffffffffffffffffffffffffffffffffffff1673ffffffffffffffffffffffffffffffffffffffff16815260200190815260200160002060405161305c9190615ed7565b60405180910390a384600281111561307757613076614827565b5b600281111561308957613088614827565b5b60028081111561309c5761309b614827565b5b14156131c3578360048111156130b5576130b4614827565b5b600460008573ffffffffffffffffffffffffffffffffffffffff1673ffffffffffffffffffffffffffffffffffffffff16815260200190815260200160002060020160006101000a81548160ff0219169083600481111561311957613118614827565b5b0217905550600073ffffffffffffffffffffffffffffffffffffffff168373ffffffffffffffffffffffffffffffffffffffff167ffb530d24abc3d497c3f0525ef204a66ac64d923ec30b40d17bc3a5f572cf4b8e600460008773ffffffffffffffffffffffffffffffffffffffff1673ffffffffffffffffffffffffffffffffffffffff1681526020019081526020016000206040516131ba9190615cf7565b60405180910390a35b505050505050565b60025481565b600160038111156131e5576131e4614827565b5b600160003373ffffffffffffffffffffffffffffffffffffffff1673ffffffffffffffffffffffffffffffffffffffff16815260200190815260200160002060020160009054906101000a900460ff16600381111561324757613246614827565b5b14613287576040517f08c379a000000000000000000000000000000000000000000000000000000000815260040161327e906156d8565b60405180910390fd5b81600460008573ffffffffffffffffffffffffffffffffffffffff1673ffffffffffffffffffffffffffffffffffffffff16815260200190815260200160002060030190805190602001906132dd92919061439c565b5080600460008573ffffffffffffffffffffffffffffffffffffffff1673ffffffffffffffffffffffffffffffffffffffff168152602001908152602001600020600801908051906020019061333492919061439c565b50600073ffffffffffffffffffffffffffffffffffffffff168373ffffffffffffffffffffffffffffffffffffffff167ffb530d24abc3d497c3f0525ef204a66ac64d923ec30b40d17bc3a5f572cf4b8e600460008773ffffffffffffffffffffffffffffffffffffffff1673ffffffffffffffffffffffffffffffffffffffff1681526020019081526020016000206040516133d19190615cf7565b60405180910390a3505050565b60603373ffffffffffffffffffffffffffffffffffffffff16600073ffffffffffffffffffffffffffffffffffffffff1614158061346857503373ffffffffffffffffffffffffffffffffffffffff1660008054906101000a900473ffffffffffffffffffffffffffffffffffffffff1673ffffffffffffffffffffffffffffffffffffffff1614155b156134a8576040517f08c379a000000000000000000000000000000000000000000000000000000000815260040161349f906156d8565b60405180910390fd5b600060025467ffffffffffffffff8111156134c6576134c561446e565b5b6040519080825280602002602001820160405280156134ff57816020015b6134ec61433f565b8152602001906001900390816134e45790505b50905060005b6002548110156136835760006003828154811061352557613524615a93565b5b9060005260206000200160009054906101000a900473ffffffffffffffffffffffffffffffffffffffff1690506000600160008373ffffffffffffffffffffffffffffffffffffffff1673ffffffffffffffffffffffffffffffffffffffff1681526020019081526020016000209050806040518060a001604052908160008201548152602001600182015481526020016002820160009054906101000a900460ff1660038111156135da576135d9614827565b5b60038111156135ec576135eb614827565b5b81526020016002820160019054906101000a900473ffffffffffffffffffffffffffffffffffffffff1673ffffffffffffffffffffffffffffffffffffffff1673ffffffffffffffffffffffffffffffffffffffff16815260200160038201548152505084848151811061366357613662615a93565b5b60200260200101819052505050808061367b906159e9565b915050613505565b508091505090565b6001600381111561369f5761369e614827565b5b600160003373ffffffffffffffffffffffffffffffffffffffff1673ffffffffffffffffffffffffffffffffffffffff16815260200190815260200160002060020160009054906101000a900460ff16600381111561370157613700614827565b5b148061378057506002600381111561371c5761371b614827565b5b600160003373ffffffffffffffffffffffffffffffffffffffff1673ffffffffffffffffffffffffffffffffffffffff16815260200190815260200160002060020160009054906101000a900460ff16600381111561377e5761377d614827565b5b145b6137bf576040517f08c379a00000000000000000000000000000000000000000000000000000000081526004016137b6906156d8565b60405180910390fd5b6000600260048111156137d5576137d4614827565b5b8660048111156137e8576137e7614827565b5b60048111156137fa576137f9614827565b5b141561380557600190505b604051806101600160405280600854815260200188815260200160405180602001604052806000815250815260200187600481111561384757613846614827565b5b600481111561385957613858614827565b5b815260200186600281111561387157613870614827565b5b600281111561388357613882614827565b5b815260200182600181111561389b5761389a614827565b5b81526020018573ffffffffffffffffffffffffffffffffffffffff1681526020018473ffffffffffffffffffffffffffffffffffffffff1681526020013373ffffffffffffffffffffffffffffffffffffffff16815260200142815260200183815250600760008573ffffffffffffffffffffffffffffffffffffffff1673ffffffffffffffffffffffffffffffffffffffff16815260200190815260200160002060008201518160000155602082015181600101908051906020019061396392919061439c565b50604082015181600201908051906020019061398092919061439c565b5060608201518160030160006101000a81548160ff021916908360048111156139ac576139ab614827565b5b021790555060808201518160030160016101000a81548160ff021916908360028111156139dc576139db614827565b5b021790555060a08201518160030160026101000a81548160ff02191690836001811115613a0c57613a0b614827565b5b021790555060c08201518160030160036101000a81548173ffffffffffffffffffffffffffffffffffffffff021916908373ffffffffffffffffffffffffffffffffffffffff16021790555060e08201518160040160006101000a81548173ffffffffffffffffffffffffffffffffffffffff021916908373ffffffffffffffffffffffffffffffffffffffff1602179055506101008201518160050160006101000a81548173ffffffffffffffffffffffffffffffffffffffff021916908373ffffffffffffffffffffffffffffffffffffffff1602179055506101208201518160060155610140820151816007019080519060200190613b0f92919061439c565b509050508373ffffffffffffffffffffffffffffffffffffffff168373ffffffffffffffffffffffffffffffffffffffff167fa25a6f1ff57a050a48ae4b3a19f271fddad950cac8d165d6a2eca5d54cc8070f600760008773ffffffffffffffffffffffffffffffffffffffff1673ffffffffffffffffffffffffffffffffffffffff168152602001908152602001600020604051613bae9190615ed7565b60405180910390a36009839080600181540180825580915050600190039060005260206000200160009091909190916101000a81548173ffffffffffffffffffffffffffffffffffffffff021916908373ffffffffffffffffffffffffffffffffffffffff16021790555060086000815480929190613c2c906159e9565b919050555050505050505050565b60603373ffffffffffffffffffffffffffffffffffffffff16600160003373ffffffffffffffffffffffffffffffffffffffff1673ffffffffffffffffffffffffffffffffffffffff16815260200190815260200160002060020160019054906101000a900473ffffffffffffffffffffffffffffffffffffffff1673ffffffffffffffffffffffffffffffffffffffff1614613d0c576040517f08c379a0000000000000000000000000000000000000000000000000000000008152600401613d0390615822565b60405180910390fd5b600060085467ffffffffffffffff811115613d2a57613d2961446e565b5b604051908082528060200260200182016040528015613d6357816020015b613d506141c4565b815260200190600190039081613d485790505b50905060005b6008548110156141b657600060098281548110613d8957613d88615a93565b5b9060005260206000200160009054906101000a900473ffffffffffffffffffffffffffffffffffffffff1690506000600760008373ffffffffffffffffffffffffffffffffffffffff1673ffffffffffffffffffffffffffffffffffffffff1681526020019081526020016000209050806040518061016001604052908160008201548152602001600182018054613e2090615a61565b80601f0160208091040260200160405190810160405280929190818152602001828054613e4c90615a61565b8015613e995780601f10613e6e57610100808354040283529160200191613e99565b820191906000526020600020905b815481529060010190602001808311613e7c57829003601f168201915b50505050508152602001600282018054613eb290615a61565b80601f0160208091040260200160405190810160405280929190818152602001828054613ede90615a61565b8015613f2b5780601f10613f0057610100808354040283529160200191613f2b565b820191906000526020600020905b815481529060010190602001808311613f0e57829003601f168201915b505050505081526020016003820160009054906101000a900460ff166004811115613f5957613f58614827565b5b6004811115613f6b57613f6a614827565b5b81526020016003820160019054906101000a900460ff166002811115613f9457613f93614827565b5b6002811115613fa657613fa5614827565b5b81526020016003820160029054906101000a900460ff166001811115613fcf57613fce614827565b5b6001811115613fe157613fe0614827565b5b81526020016003820160039054906101000a900473ffffffffffffffffffffffffffffffffffffffff1673ffffffffffffffffffffffffffffffffffffffff1673ffffffffffffffffffffffffffffffffffffffff1681526020016004820160009054906101000a900473ffffffffffffffffffffffffffffffffffffffff1673ffffffffffffffffffffffffffffffffffffffff1673ffffffffffffffffffffffffffffffffffffffff1681526020016005820160009054906101000a900473ffffffffffffffffffffffffffffffffffffffff1673ffffffffffffffffffffffffffffffffffffffff1673ffffffffffffffffffffffffffffffffffffffff1681526020016006820154815260200160078201805461410190615a61565b80601f016020809104026020016040519081016040528092919081815260200182805461412d90615a61565b801561417a5780601f1061414f5761010080835404028352916020019161417a565b820191906000526020600020905b81548152906001019060200180831161415d57829003601f168201915b50505050508152505084848151811061419657614195615a93565b5b6020026020010181905250505080806141ae906159e9565b915050613d69565b508091505090565b60055481565b604051806101600160405280600081526020016060815260200160608152602001600060048111156141f9576141f8614827565b5b81526020016000600281111561421257614211614827565b5b81526020016000600181111561422b5761422a614827565b5b8152602001600073ffffffffffffffffffffffffffffffffffffffff168152602001600073ffffffffffffffffffffffffffffffffffffffff168152602001600073ffffffffffffffffffffffffffffffffffffffff16815260200160008152602001606081525090565b6040518061014001604052806000815260200160608152602001600060048111156142c4576142c3614827565b5b815260200160608152602001600073ffffffffffffffffffffffffffffffffffffffff168152602001600073ffffffffffffffffffffffffffffffffffffffff168152602001600073ffffffffffffffffffffffffffffffffffffffff16815260200160001515815260200160008152602001606081525090565b6040518060a0016040528060008019168152602001600080191681526020016000600381111561437257614371614827565b5b8152602001600073ffffffffffffffffffffffffffffffffffffffff168152602001600081525090565b8280546143a890615a61565b90600052602060002090601f0160209004810192826143ca5760008555614411565b82601f106143e357805160ff1916838001178555614411565b82800160010185558215614411579182015b828111156144105782518255916020019190600101906143f5565b5b50905061441e9190614422565b5090565b5b8082111561443b576000816000905550600101614423565b5090565b6000604051905090565b600080fd5b600080fd5b600080fd5b600080fd5b6000601f19601f8301169050919050565b7f4e487b7100000000000000000000000000000000000000000000000000000000600052604160045260246000fd5b6144a68261445d565b810181811067ffffffffffffffff821117156144c5576144c461446e565b5b80604052505050565b60006144d861443f565b90506144e4828261449d565b919050565b600067ffffffffffffffff8211156145045761450361446e565b5b61450d8261445d565b9050602081019050919050565b82818337600083830152505050565b600061453c614537846144e9565b6144ce565b90508281526020810184848401111561455857614557614458565b5b61456384828561451a565b509392505050565b600082601f8301126145805761457f614453565b5b8135614590848260208601614529565b91505092915050565b6000819050919050565b6145ac81614599565b81146145b757600080fd5b50565b6000813590506145c9816145a3565b92915050565b600080604083850312156145e6576145e5614449565b5b600083013567ffffffffffffffff8111156146045761460361444e565b5b6146108582860161456b565b9250506020614621858286016145ba565b9150509250929050565b600073ffffffffffffffffffffffffffffffffffffffff82169050919050565b60006146568261462b565b9050919050565b6146668161464b565b82525050565b6000602082019050614681600083018461465d565b92915050565b6000819050919050565b61469a81614687565b81146146a557600080fd5b50565b6000813590506146b781614691565b92915050565b6146c68161464b565b81146146d157600080fd5b50565b6000813590506146e3816146bd565b92915050565b6000806000806080858703121561470357614702614449565b5b6000614711878288016146a8565b9450506020614722878288016146a8565b9350506040614733878288016145ba565b9250506060614744878288016146d4565b91505092959194509250565b6000806040838503121561476757614766614449565b5b6000614775858286016146d4565b9250506020614786858286016146d4565b9150509250929050565b61479981614599565b82525050565b600081519050919050565b600082825260208201905092915050565b60005b838110156147d95780820151818401526020810190506147be565b838111156147e8576000848401525b50505050565b60006147f98261479f565b61480381856147aa565b93506148138185602086016147bb565b61481c8161445d565b840191505092915050565b7f4e487b7100000000000000000000000000000000000000000000000000000000600052602160045260246000fd5b6005811061486757614866614827565b5b50565b600081905061487882614856565b919050565b60006148888261486a565b9050919050565b6148988161487d565b82525050565b600381106148af576148ae614827565b5b50565b60008190506148c08261489e565b919050565b60006148d0826148b2565b9050919050565b6148e0816148c5565b82525050565b600281106148f7576148f6614827565b5b50565b6000819050614908826148e6565b919050565b6000614918826148fa565b9050919050565b6149288161490d565b82525050565b6149378161464b565b82525050565b6000610160830160008301516149566000860182614790565b506020830151848203602086015261496e82826147ee565b9150506040830151848203604086015261498882826147ee565b915050606083015161499d606086018261488f565b5060808301516149b060808601826148d7565b5060a08301516149c360a086018261491f565b5060c08301516149d660c086018261492e565b5060e08301516149e960e086018261492e565b506101008301516149fe61010086018261492e565b50610120830151614a13610120860182614790565b50610140830151848203610140860152614a2d82826147ee565b9150508091505092915050565b60006020820190508181036000830152614a54818461493d565b905092915050565b600060208284031215614a7257614a71614449565b5b6000614a80848285016146d4565b91505092915050565b60008115159050919050565b614a9e81614a89565b82525050565b600061014083016000830151614abd6000860182614790565b5060208301518482036020860152614ad582826147ee565b9150506040830151614aea604086018261488f565b5060608301518482036060860152614b0282826147ee565b9150506080830151614b17608086018261492e565b5060a0830151614b2a60a086018261492e565b5060c0830151614b3d60c086018261492e565b5060e0830151614b5060e0860182614a95565b50610100830151614b65610100860182614790565b50610120830151848203610120860152614b7f82826147ee565b9150508091505092915050565b60006020820190508181036000830152614ba68184614aa4565b905092915050565b600081519050919050565b600082825260208201905092915050565b6000819050602082019050919050565b600061014083016000830151614bf36000860182614790565b5060208301518482036020860152614c0b82826147ee565b9150506040830151614c20604086018261488f565b5060608301518482036060860152614c3882826147ee565b9150506080830151614c4d608086018261492e565b5060a0830151614c6060a086018261492e565b5060c0830151614c7360c086018261492e565b5060e0830151614c8660e0860182614a95565b50610100830151614c9b610100860182614790565b50610120830151848203610120860152614cb582826147ee565b9150508091505092915050565b6000614cce8383614bda565b905092915050565b6000602082019050919050565b6000614cee82614bae565b614cf88185614bb9565b935083602082028501614d0a85614bca565b8060005b85811015614d465784840389528151614d278582614cc2565b9450614d3283614cd6565b925060208a01995050600181019050614d0e565b50829750879550505050505092915050565b60006020820190508181036000830152614d728184614ce3565b905092915050565b600060208284031215614d9057614d8f614449565b5b6000614d9e848285016145ba565b91505092915050565b614db081614687565b82525050565b60048110614dc757614dc6614827565b5b50565b6000819050614dd882614db6565b919050565b6000614de882614dca565b9050919050565b614df881614ddd565b82525050565b60a082016000820151614e146000850182614da7565b506020820151614e276020850182614da7565b506040820151614e3a6040850182614def565b506060820151614e4d606085018261492e565b506080820151614e606080850182614790565b50505050565b600060a082019050614e7b6000830184614dfe565b92915050565b614e8a81614599565b82525050565b6000602082019050614ea56000830184614e81565b92915050565b600082825260208201905092915050565b6000614ec78261479f565b614ed18185614eab565b9350614ee18185602086016147bb565b614eea8161445d565b840191505092915050565b614efe8161487d565b82525050565b614f0d816148c5565b82525050565b614f1c8161490d565b82525050565b600061016082019050614f38600083018e614e81565b8181036020830152614f4a818d614ebc565b90508181036040830152614f5e818c614ebc565b9050614f6d606083018b614ef5565b614f7a608083018a614f04565b614f8760a0830189614f13565b614f9460c083018861465d565b614fa160e083018761465d565b614faf61010083018661465d565b614fbd610120830185614e81565b818103610140830152614fd08184614ebc565b90509c9b505050505050505050505050565b614feb81614a89565b82525050565b600061014082019050615007600083018d614e81565b8181036020830152615019818c614ebc565b9050615028604083018b614ef5565b818103606083015261503a818a614ebc565b9050615049608083018961465d565b61505660a083018861465d565b61506360c083018761465d565b61507060e0830186614fe2565b61507e610100830185614e81565b8181036101208301526150918184614ebc565b90509b9a5050505050505050505050565b600080600080600060a086880312156150be576150bd614449565b5b60006150cc888289016146d4565b955050602086013567ffffffffffffffff8111156150ed576150ec61444e565b5b6150f98882890161456b565b945050604061510a888289016145ba565b935050606086013567ffffffffffffffff81111561512b5761512a61444e565b5b6151378882890161456b565b925050608086013567ffffffffffffffff8111156151585761515761444e565b5b6151648882890161456b565b9150509295509295909350565b6000806040838503121561518857615187614449565b5b6000615196858286016145ba565b92505060206151a7858286016146d4565b9150509250929050565b60008060008060008060c087890312156151ce576151cd614449565b5b600087013567ffffffffffffffff8111156151ec576151eb61444e565b5b6151f889828a0161456b565b965050602061520989828a016145ba565b955050604061521a89828a016145ba565b945050606061522b89828a016146d4565b935050608061523c89828a016146d4565b92505060a087013567ffffffffffffffff81111561525d5761525c61444e565b5b61526989828a0161456b565b9150509295509295509295565b61527f81614687565b82525050565b61528e81614ddd565b82525050565b600060a0820190506152a96000830188615276565b6152b66020830187615276565b6152c36040830186615285565b6152d0606083018561465d565b6152dd6080830184614e81565b9695505050505050565b600080600060608486031215615300576152ff614449565b5b600061530e868287016146d4565b935050602084013567ffffffffffffffff81111561532f5761532e61444e565b5b61533b8682870161456b565b925050604084013567ffffffffffffffff81111561535c5761535b61444e565b5b6153688682870161456b565b9150509250925092565b600081519050919050565b600082825260208201905092915050565b6000819050602082019050919050565b60a0820160008201516153b46000850182614da7565b5060208201516153c76020850182614da7565b5060408201516153da6040850182614def565b5060608201516153ed606085018261492e565b5060808201516154006080850182614790565b50505050565b6000615412838361539e565b60a08301905092915050565b6000602082019050919050565b600061543682615372565b615440818561537d565b935061544b8361538e565b8060005b8381101561547c5781516154638882615406565b975061546e8361541e565b92505060018101905061544f565b5085935050505092915050565b600060208201905081810360008301526154a3818461542b565b905092915050565b600081519050919050565b600082825260208201905092915050565b6000819050602082019050919050565b6000610160830160008301516154f06000860182614790565b506020830151848203602086015261550882826147ee565b9150506040830151848203604086015261552282826147ee565b9150506060830151615537606086018261488f565b50608083015161554a60808601826148d7565b5060a083015161555d60a086018261491f565b5060c083015161557060c086018261492e565b5060e083015161558360e086018261492e565b5061010083015161559861010086018261492e565b506101208301516155ad610120860182614790565b506101408301518482036101408601526155c782826147ee565b9150508091505092915050565b60006155e083836154d7565b905092915050565b6000602082019050919050565b6000615600826154ab565b61560a81856154b6565b93508360208202850161561c856154c7565b8060005b85811015615658578484038952815161563985826155d4565b9450615644836155e8565b925060208a01995050600181019050615620565b50829750879550505050505092915050565b6000602082019050818103600083015261568481846155f5565b905092915050565b7f596f7520617265206e6f742074686520726967687420757365722e0000000000600082015250565b60006156c2601b83614eab565b91506156cd8261568c565b602082019050919050565b600060208201905081810360008301526156f1816156b5565b9050919050565b600081905092915050565b600061570e8261479f565b61571881856156f8565b93506157288185602086016147bb565b80840191505092915050565b60008160601b9050919050565b600061574c82615734565b9050919050565b600061575e82615741565b9050919050565b6157766157718261464b565b615753565b82525050565b6000819050919050565b61579761579282614599565b61577c565b82525050565b60006157a98286615703565b91506157b58285615765565b6014820191506157c58284615786565b602082019150819050949350505050565b7f41646472657373206973206e6f742076616c69642e0000000000000000000000600082015250565b600061580c601583614eab565b9150615817826157d6565b602082019050919050565b6000602082019050818103600083015261583b816157ff565b9050919050565b60008160001c9050919050565b6000819050919050565b600061586c61586783615842565b61584f565b9050919050565b600060ff82169050919050565b600061589361588e83615842565b615873565b9050919050565b60008160081c9050919050565b600073ffffffffffffffffffffffffffffffffffffffff82169050919050565b60006158da6158d58361589a565b6158a7565b9050919050565b6000819050919050565b60006158fe6158f983615842565b6158e1565b9050919050565b60a08201600080830154905061591a81615859565b6159276000860182614da7565b506001830154905061593881615859565b6159456020860182614da7565b506002830154905061595681615880565b6159636040860182614def565b5061596d816158c7565b61597a606086018261492e565b506003830154905061598b816158eb565b6159986080860182614790565b5050505050565b600060a0820190506159b46000830184615905565b92915050565b7f4e487b7100000000000000000000000000000000000000000000000000000000600052601160045260246000fd5b60006159f482614599565b91507fffffffffffffffffffffffffffffffffffffffffffffffffffffffffffffffff821415615a2757615a266159ba565b5b600182019050919050565b7f4e487b7100000000000000000000000000000000000000000000000000000000600052602260045260246000fd5b60006002820490506001821680615a7957607f821691505b60208210811415615a8d57615a8c615a32565b5b50919050565b7f4e487b7100000000000000000000000000000000000000000000000000000000600052603260045260246000fd5b60008190508160005260206000209050919050565b60008154615ae481615a61565b615aee81866147aa565b94506001821660008114615b095760018114615b1b57615b4e565b60ff1983168652602086019350615b4e565b615b2485615ac2565b60005b83811015615b4657815481890152600182019150602081019050615b27565b808801955050505b50505092915050565b600060ff82169050919050565b6000615b77615b7283615842565b615b57565b9050919050565b6000615b91615b8c83615842565b6158a7565b9050919050565b60008160a01c9050919050565b600060ff82169050919050565b6000615bc5615bc083615b98565b615ba5565b9050919050565b600061014083016000808401549050615be4816158eb565b615bf16000870182614790565b50600184018583036020870152615c088382615ad7565b92505060028401549050615c1b81615b64565b615c28604087018261488f565b50600384018583036060870152615c3f8382615ad7565b92505060048401549050615c5281615b7e565b615c5f608087018261492e565b5060058401549050615c7081615b7e565b615c7d60a087018261492e565b5060068401549050615c8e81615b7e565b615c9b60c087018261492e565b50615ca581615bb2565b615cb260e0870182614a95565b5060078401549050615cc3816158eb565b615cd1610100870182614790565b5060088401858303610120870152615ce98382615ad7565b925050819250505092915050565b60006020820190508181036000830152615d118184615bcc565b905092915050565b600060ff82169050919050565b6000615d39615d348361589a565b615d19565b9050919050565b60008160101c9050919050565b600060ff82169050919050565b6000615d6d615d6883615d40565b615d4d565b9050919050565b60008160181c9050919050565b6000615d94615d8f83615d74565b6158a7565b9050919050565b600061016083016000808401549050615db3816158eb565b615dc06000870182614790565b50600184018583036020870152615dd78382615ad7565b925050600284018583036040870152615df08382615ad7565b92505060038401549050615e0381615b64565b615e10606087018261488f565b50615e1a81615d26565b615e2760808701826148d7565b50615e3181615d5a565b615e3e60a087018261491f565b50615e4881615d81565b615e5560c087018261492e565b5060048401549050615e6681615b7e565b615e7360e087018261492e565b5060058401549050615e8481615b7e565b615e9261010087018261492e565b5060068401549050615ea3816158eb565b615eb1610120870182614790565b5060078401858303610140870152615ec98382615ad7565b925050819250505092915050565b60006020820190508181036000830152615ef18184615d9b565b90509291505056fea26469706673582212208b18aeb3073a0ef55d0fbe9dda709185560868463edc228c1fbea2282f6d3f2b64736f6c634300080a0033",
  "immutableReferences": {},
  "source": "// SPDX-License-Identifier: MIT\r\npragma solidity >=0.8.0 <0.9.0;\r\n\r\nimport \"./UserChain.sol\";\r\n\r\ncontract ProjectChain is UserChain {\r\n\r\n    constructor() {}\r\n\r\n    modifier onlyUserProject() {\r\n        require(Roles(users[msg.sender]._role) == Roles.UserProject, \"You are not the right user.\");\r\n        _;\r\n    }\r\n\r\n    modifier onlyUserProjectAndCompany() {\r\n        require(\r\n            Roles(users[msg.sender]._role) == Roles.UserProject || Roles(users[msg.sender]._role) == Roles.Company,\r\n            \"You are not the right user.\"\r\n        );\r\n        _;\r\n    }\r\n\r\n\r\n    mapping(address => Project) public projects;\r\n    uint256 public projectsCounter = 0;\r\n    address[] public projectsAddress;\r\n\r\n    function createUniqueProjectAddress(string memory _name, uint256 _index)\r\n        public view onlyUserProject returns (address)\r\n    {\r\n        return address(uint160(uint256(keccak256(abi.encodePacked(_name, msg.sender, _index)))));\r\n    }\r\n\r\n    function createProject(\r\n        address _projectAddress,\r\n        string memory _name,\r\n        uint256 _status,\r\n        string memory _ipfsFileCID,\r\n        string memory _signature\r\n    ) public onlyUserProject {\r\n        projects[_projectAddress] = Project(\r\n            projectsCounter,\r\n            _name,\r\n            ProjectStatus(_status),\r\n            _ipfsFileCID,\r\n            _projectAddress,\r\n            msg.sender,\r\n            address(0x0),\r\n            false,\r\n            block.timestamp,\r\n            _signature\r\n        );\r\n\r\n        emit ProjectEvent(projects[_projectAddress], _projectAddress, address(0x0));\r\n        projectsAddress.push(_projectAddress);\r\n        projectsCounter++;\r\n    }\r\n\r\n    function updateProject(\r\n        address _projectAddress,\r\n        string memory _ipfsFileCID,\r\n        string memory _signature\r\n    ) public onlyUserProject {\r\n        projects[_projectAddress]._ipfsFileCID = _ipfsFileCID;\r\n        projects[_projectAddress]._signature = _signature;\r\n\r\n        emit ProjectEvent(projects[_projectAddress], _projectAddress, address(0x0));\r\n    }\r\n\r\n    function getProjectInfo(address _address)\r\n        public view onlyUserProjectAndCompany returns (Project memory)\r\n    {\r\n        return projects[_address];\r\n    }\r\n\r\n    function getProjectsByUserAddress(address _walletAddress)\r\n        public view onlyUserProjectAndCompany returns (Project[] memory)\r\n    {\r\n        Project[] memory allProjects;\r\n        if (projectsCounter == 0) return allProjects;\r\n\r\n        allProjects = new Project[](projectsCounter);\r\n        for (uint256 index = 0; index < projectsCounter; index++) {\r\n            address _projectAddress = projectsAddress[index];\r\n            if (\r\n                _walletAddress == projects[_projectAddress]._signerAddress ||\r\n                _walletAddress == projects[_projectAddress]._companyAddress\r\n            ) {\r\n                Project storage project = projects[_projectAddress];\r\n                allProjects[index] = project;\r\n            }\r\n        }\r\n        return allProjects;\r\n    }\r\n\r\n\r\n    mapping(address => Request) public requests;\r\n    uint256 public requestsCounter = 0;\r\n    address[] public requestsAddress;\r\n\r\n    function createUniqueRequestAddress(string memory _title, uint256 _index)\r\n        public view returns (address)\r\n    {\r\n        require(users[msg.sender]._walletAddress == msg.sender, \"Address is not valid.\");\r\n        return address(uint160(uint256(keccak256(abi.encodePacked(_title, msg.sender, _index)))));\r\n    }\r\n\r\n    function createRequest(\r\n        string memory _title,\r\n        uint256 _projectStatus,\r\n        uint256 _requestStatus,\r\n        address _projectAddress,\r\n        address _requestAddress,\r\n        string memory _signature\r\n    ) public onlyUserProjectAndCompany {\r\n        RequestType _requestType = RequestType.SupervisorReq;\r\n        if (ProjectStatus(_projectStatus) == ProjectStatus.StartProject) {\r\n            _requestType = RequestType.CompanyReq;\r\n        }\r\n\r\n        requests[_requestAddress] = Request(\r\n            requestsCounter,\r\n            _title,\r\n            \"\",\r\n            ProjectStatus(_projectStatus),\r\n            RequestStatus(_requestStatus),\r\n            RequestType(_requestType),\r\n            _projectAddress,\r\n            _requestAddress,\r\n            msg.sender,\r\n            block.timestamp,\r\n            _signature\r\n        );\r\n\r\n        emit RequestEvent(requests[_requestAddress], _requestAddress, _projectAddress);\r\n        requestsAddress.push(_requestAddress);\r\n        requestsCounter++;\r\n    }\r\n\r\n    function updateSupervisorRequest(\r\n        string memory _comments,\r\n        uint256 _requestStatus,\r\n        uint256 _projectStatus,\r\n        address _projectAddress,\r\n        address _requestAddress,\r\n        string memory _signature\r\n    ) public {\r\n        require(Roles(users[msg.sender]._role) == Roles.Supervisor, \"You are not the right user.\");\r\n\r\n        // Update Requests Mapping and Struct Array\r\n        requests[_requestAddress]._comments = _comments;\r\n        requests[_requestAddress]._requestStatus = RequestStatus(_requestStatus);\r\n        requests[_requestAddress]._signature = _signature;\r\n        emit RequestEvent(requests[_requestAddress], _requestAddress, _projectAddress);\r\n\r\n        // Update Project Mapping and Struct Array\r\n        if (RequestStatus.Approved == RequestStatus(_requestStatus)) {\r\n            projects[_projectAddress]._status = ProjectStatus(_projectStatus);\r\n            emit ProjectEvent(projects[_projectAddress], _projectAddress, address(0x0));\r\n        }\r\n    }\r\n\r\n    function updateCompanyRequest(\r\n        string memory _comments,\r\n        uint256 _requestStatus,\r\n        uint256 _projectStatus,\r\n        address _projectAddress,\r\n        address _requestAddress,\r\n        string memory _signature\r\n    ) public {\r\n        require(Roles(users[msg.sender]._role) == Roles.Company, \"You are not the right user.\");\r\n\r\n        // Update Requests Mapping and Struct Array\r\n        requests[_requestAddress]._comments = _comments;\r\n        requests[_requestAddress]._requestStatus = RequestStatus(_requestStatus);\r\n        requests[_requestAddress]._signature = _signature;\r\n        emit RequestEvent(requests[_requestAddress], _requestAddress, _projectAddress);\r\n\r\n        // Update Project Mapping and Struct Array\r\n        if (RequestStatus.Approved == RequestStatus(_requestStatus)) {\r\n            projects[_projectAddress]._status = ProjectStatus(_projectStatus);\r\n            projects[_projectAddress]._companyAddress = msg.sender;\r\n            emit ProjectEvent(projects[_projectAddress], _projectAddress, msg.sender);\r\n        }\r\n    }\r\n\r\n    function getAllRequests() public view returns (Request[] memory) {\r\n        require(users[msg.sender]._walletAddress == msg.sender, \"Address is not valid.\");\r\n\r\n        Request[] memory allRequests = new Request[](requestsCounter);\r\n        for (uint256 index = 0; index < requestsCounter; index++) {\r\n            address _requestAddress = requestsAddress[index];\r\n            Request storage request = requests[_requestAddress];\r\n            allRequests[index] = request;\r\n        }\r\n        return allRequests;\r\n    }\r\n\r\n    function getLastProjectRequest(address _projectAddress, address _requestAddress) \r\n        public view onlyUserProjectAndCompany returns (Request memory)\r\n    {\r\n        Request memory request;\r\n        if (requestsCounter > 0) {\r\n            if (requests[_requestAddress]._projectAddress == _projectAddress) {\r\n                request = requests[_requestAddress];\r\n            }\r\n        }\r\n        return request;\r\n    }\r\n}\r\n",
  "sourcePath": "/mnt/c/Users/Beniamin/source/repos/DissertationProject/contracts/ProjectChain.sol",
  "compiler": {
    "name": "solc",
    "version": "0.8.10+commit.fc410830.Emscripten.clang"
  },
  "schemaVersion": "3.4.3",
  "updatedAt": "2021-12-17T20:41:41.131Z",
  "networkType": "ethereum",
  "devdoc": {
    "kind": "dev",
    "methods": {},
    "version": 1
  },
  "userdoc": {
    "kind": "user",
    "methods": {},
    "version": 1
  }
}