{
  "contractName": "Project",
  "abi": [
    {
      "inputs": [],
      "stateMutability": "nonpayable",
      "type": "constructor"
    },
    {
      "anonymous": false,
      "inputs": [
        {
          "indexed": false,
          "internalType": "string",
          "name": "_name",
          "type": "string"
        },
        {
          "indexed": false,
          "internalType": "string",
          "name": "_description",
          "type": "string"
        },
        {
          "indexed": false,
          "internalType": "enum Project.ProjectStatus",
          "name": "_status",
          "type": "uint8"
        },
        {
          "indexed": false,
          "internalType": "bytes32",
          "name": "_identifier",
          "type": "bytes32"
        }
      ],
      "name": "CreateProject",
      "type": "event"
    },
    {
      "anonymous": false,
      "inputs": [
        {
          "indexed": false,
          "internalType": "uint256",
          "name": "_indexRequest",
          "type": "uint256"
        },
        {
          "indexed": false,
          "internalType": "enum Project.RequestStatus",
          "name": "_status",
          "type": "uint8"
        },
        {
          "components": [
            {
              "internalType": "uint256",
              "name": "index",
              "type": "uint256"
            },
            {
              "internalType": "bytes32",
              "name": "identifier",
              "type": "bytes32"
            },
            {
              "internalType": "string",
              "name": "name",
              "type": "string"
            },
            {
              "internalType": "string",
              "name": "description",
              "type": "string"
            },
            {
              "internalType": "enum Project.ProjectStatus",
              "name": "projectStatus",
              "type": "uint8"
            }
          ],
          "indexed": false,
          "internalType": "struct Project.S_Project",
          "name": "_project",
          "type": "tuple"
        },
        {
          "indexed": false,
          "internalType": "enum Project.ProjectStatus",
          "name": "_projectStatus",
          "type": "uint8"
        },
        {
          "indexed": false,
          "internalType": "address",
          "name": "_subjectAddress",
          "type": "address"
        }
      ],
      "name": "UpdateCompanyRequestStatus",
      "type": "event"
    },
    {
      "anonymous": false,
      "inputs": [
        {
          "indexed": false,
          "internalType": "uint256",
          "name": "_indexRequest",
          "type": "uint256"
        },
        {
          "indexed": false,
          "internalType": "enum Project.RequestStatus",
          "name": "_status",
          "type": "uint8"
        },
        {
          "components": [
            {
              "internalType": "uint256",
              "name": "index",
              "type": "uint256"
            },
            {
              "internalType": "bytes32",
              "name": "identifier",
              "type": "bytes32"
            },
            {
              "internalType": "string",
              "name": "name",
              "type": "string"
            },
            {
              "internalType": "string",
              "name": "description",
              "type": "string"
            },
            {
              "internalType": "enum Project.ProjectStatus",
              "name": "projectStatus",
              "type": "uint8"
            }
          ],
          "indexed": false,
          "internalType": "struct Project.S_Project",
          "name": "_project",
          "type": "tuple"
        },
        {
          "indexed": false,
          "internalType": "enum Project.ProjectStatus",
          "name": "_projectStatus",
          "type": "uint8"
        },
        {
          "indexed": false,
          "internalType": "address",
          "name": "_subjectAddress",
          "type": "address"
        }
      ],
      "name": "UpdateSupervisorRequestStatus",
      "type": "event"
    },
    {
      "anonymous": false,
      "inputs": [
        {
          "indexed": true,
          "internalType": "address",
          "name": "_walletAddress",
          "type": "address"
        },
        {
          "indexed": true,
          "internalType": "string",
          "name": "_username",
          "type": "string"
        },
        {
          "indexed": false,
          "internalType": "string",
          "name": "_email",
          "type": "string"
        },
        {
          "indexed": false,
          "internalType": "string",
          "name": "_firstname",
          "type": "string"
        },
        {
          "indexed": false,
          "internalType": "string",
          "name": "_lastname",
          "type": "string"
        },
        {
          "indexed": true,
          "internalType": "enum User.Roles",
          "name": "_role",
          "type": "uint8"
        }
      ],
      "name": "UserRegistered",
      "type": "event"
    },
    {
      "inputs": [
        {
          "internalType": "uint256",
          "name": "_role",
          "type": "uint256"
        },
        {
          "internalType": "address",
          "name": "_walletAddress",
          "type": "address"
        }
      ],
      "name": "changeUserRole",
      "outputs": [
        {
          "internalType": "string",
          "name": "",
          "type": "string"
        }
      ],
      "stateMutability": "nonpayable",
      "type": "function"
    },
    {
      "inputs": [
        {
          "internalType": "uint256",
          "name": "",
          "type": "uint256"
        }
      ],
      "name": "companyRequests",
      "outputs": [
        {
          "internalType": "uint256",
          "name": "index",
          "type": "uint256"
        },
        {
          "internalType": "string",
          "name": "description",
          "type": "string"
        },
        {
          "internalType": "enum Project.RequestStatus",
          "name": "status",
          "type": "uint8"
        },
        {
          "components": [
            {
              "internalType": "uint256",
              "name": "index",
              "type": "uint256"
            },
            {
              "internalType": "bytes32",
              "name": "identifier",
              "type": "bytes32"
            },
            {
              "internalType": "string",
              "name": "name",
              "type": "string"
            },
            {
              "internalType": "string",
              "name": "description",
              "type": "string"
            },
            {
              "internalType": "enum Project.ProjectStatus",
              "name": "projectStatus",
              "type": "uint8"
            }
          ],
          "internalType": "struct Project.S_Project",
          "name": "project",
          "type": "tuple"
        },
        {
          "internalType": "address",
          "name": "subjectAddress",
          "type": "address"
        }
      ],
      "stateMutability": "view",
      "type": "function",
      "constant": true
    },
    {
      "inputs": [],
      "name": "getUserAddresses",
      "outputs": [
        {
          "internalType": "address[]",
          "name": "",
          "type": "address[]"
        }
      ],
      "stateMutability": "view",
      "type": "function",
      "constant": true
    },
    {
      "inputs": [
        {
          "internalType": "address",
          "name": "_address",
          "type": "address"
        }
      ],
      "name": "getUserInfo",
      "outputs": [
        {
          "components": [
            {
              "internalType": "string",
              "name": "username",
              "type": "string"
            },
            {
              "internalType": "string",
              "name": "email",
              "type": "string"
            },
            {
              "internalType": "string",
              "name": "firstname",
              "type": "string"
            },
            {
              "internalType": "string",
              "name": "lastname",
              "type": "string"
            },
            {
              "internalType": "enum User.Roles",
              "name": "role",
              "type": "uint8"
            },
            {
              "internalType": "address",
              "name": "walletAddress",
              "type": "address"
            }
          ],
          "internalType": "struct User.S_UserData",
          "name": "",
          "type": "tuple"
        }
      ],
      "stateMutability": "view",
      "type": "function",
      "constant": true
    },
    {
      "inputs": [],
      "name": "owner",
      "outputs": [
        {
          "internalType": "address",
          "name": "",
          "type": "address"
        }
      ],
      "stateMutability": "view",
      "type": "function",
      "constant": true
    },
    {
      "inputs": [
        {
          "internalType": "uint256",
          "name": "",
          "type": "uint256"
        }
      ],
      "name": "projectIds",
      "outputs": [
        {
          "internalType": "uint256",
          "name": "",
          "type": "uint256"
        }
      ],
      "stateMutability": "view",
      "type": "function",
      "constant": true
    },
    {
      "inputs": [
        {
          "internalType": "uint256",
          "name": "",
          "type": "uint256"
        }
      ],
      "name": "projects",
      "outputs": [
        {
          "internalType": "uint256",
          "name": "index",
          "type": "uint256"
        },
        {
          "internalType": "bytes32",
          "name": "identifier",
          "type": "bytes32"
        },
        {
          "internalType": "string",
          "name": "name",
          "type": "string"
        },
        {
          "internalType": "string",
          "name": "description",
          "type": "string"
        },
        {
          "internalType": "enum Project.ProjectStatus",
          "name": "projectStatus",
          "type": "uint8"
        }
      ],
      "stateMutability": "view",
      "type": "function",
      "constant": true
    },
    {
      "inputs": [],
      "name": "projectsCount",
      "outputs": [
        {
          "internalType": "uint256",
          "name": "",
          "type": "uint256"
        }
      ],
      "stateMutability": "view",
      "type": "function",
      "constant": true
    },
    {
      "inputs": [
        {
          "internalType": "string",
          "name": "_username",
          "type": "string"
        },
        {
          "internalType": "string",
          "name": "_email",
          "type": "string"
        },
        {
          "internalType": "string",
          "name": "_firstname",
          "type": "string"
        },
        {
          "internalType": "string",
          "name": "_lastname",
          "type": "string"
        },
        {
          "internalType": "uint256",
          "name": "_role",
          "type": "uint256"
        },
        {
          "internalType": "address",
          "name": "_walletAddress",
          "type": "address"
        }
      ],
      "name": "registerUser",
      "outputs": [],
      "stateMutability": "nonpayable",
      "type": "function"
    },
    {
      "inputs": [
        {
          "internalType": "uint256",
          "name": "",
          "type": "uint256"
        }
      ],
      "name": "supervisorRequests",
      "outputs": [
        {
          "internalType": "uint256",
          "name": "index",
          "type": "uint256"
        },
        {
          "internalType": "string",
          "name": "description",
          "type": "string"
        },
        {
          "internalType": "enum Project.RequestStatus",
          "name": "status",
          "type": "uint8"
        },
        {
          "components": [
            {
              "internalType": "uint256",
              "name": "index",
              "type": "uint256"
            },
            {
              "internalType": "bytes32",
              "name": "identifier",
              "type": "bytes32"
            },
            {
              "internalType": "string",
              "name": "name",
              "type": "string"
            },
            {
              "internalType": "string",
              "name": "description",
              "type": "string"
            },
            {
              "internalType": "enum Project.ProjectStatus",
              "name": "projectStatus",
              "type": "uint8"
            }
          ],
          "internalType": "struct Project.S_Project",
          "name": "project",
          "type": "tuple"
        },
        {
          "internalType": "address",
          "name": "subjectAddress",
          "type": "address"
        }
      ],
      "stateMutability": "view",
      "type": "function",
      "constant": true
    },
    {
      "inputs": [
        {
          "internalType": "uint256",
          "name": "",
          "type": "uint256"
        }
      ],
      "name": "userAddresses",
      "outputs": [
        {
          "internalType": "address",
          "name": "",
          "type": "address"
        }
      ],
      "stateMutability": "view",
      "type": "function",
      "constant": true
    },
    {
      "inputs": [
        {
          "internalType": "address",
          "name": "",
          "type": "address"
        }
      ],
      "name": "userInfo",
      "outputs": [
        {
          "internalType": "string",
          "name": "username",
          "type": "string"
        },
        {
          "internalType": "string",
          "name": "email",
          "type": "string"
        },
        {
          "internalType": "string",
          "name": "firstname",
          "type": "string"
        },
        {
          "internalType": "string",
          "name": "lastname",
          "type": "string"
        },
        {
          "internalType": "enum User.Roles",
          "name": "role",
          "type": "uint8"
        },
        {
          "internalType": "address",
          "name": "walletAddress",
          "type": "address"
        }
      ],
      "stateMutability": "view",
      "type": "function",
      "constant": true
    },
    {
      "inputs": [],
      "name": "usersCount",
      "outputs": [
        {
          "internalType": "uint256",
          "name": "",
          "type": "uint256"
        }
      ],
      "stateMutability": "view",
      "type": "function",
      "constant": true
    },
    {
      "inputs": [
        {
          "internalType": "string",
          "name": "_name",
          "type": "string"
        },
        {
          "internalType": "string",
          "name": "_description",
          "type": "string"
        },
        {
          "internalType": "uint256",
          "name": "_status",
          "type": "uint256"
        },
        {
          "internalType": "string",
          "name": "_hashStringValue",
          "type": "string"
        }
      ],
      "name": "createProject",
      "outputs": [],
      "stateMutability": "nonpayable",
      "type": "function"
    },
    {
      "inputs": [
        {
          "internalType": "uint256",
          "name": "_index",
          "type": "uint256"
        }
      ],
      "name": "getProjectInfo",
      "outputs": [
        {
          "components": [
            {
              "internalType": "uint256",
              "name": "index",
              "type": "uint256"
            },
            {
              "internalType": "bytes32",
              "name": "identifier",
              "type": "bytes32"
            },
            {
              "internalType": "string",
              "name": "name",
              "type": "string"
            },
            {
              "internalType": "string",
              "name": "description",
              "type": "string"
            },
            {
              "internalType": "enum Project.ProjectStatus",
              "name": "projectStatus",
              "type": "uint8"
            }
          ],
          "internalType": "struct Project.S_Project",
          "name": "",
          "type": "tuple"
        }
      ],
      "stateMutability": "view",
      "type": "function",
      "constant": true
    },
    {
      "inputs": [],
      "name": "getProjectIds",
      "outputs": [
        {
          "internalType": "uint256[]",
          "name": "",
          "type": "uint256[]"
        }
      ],
      "stateMutability": "view",
      "type": "function",
      "constant": true
    },
    {
      "inputs": [
        {
          "internalType": "string",
          "name": "_text",
          "type": "string"
        },
        {
          "internalType": "address",
          "name": "_addr",
          "type": "address"
        }
      ],
      "name": "createUniqueIdentifier",
      "outputs": [
        {
          "internalType": "bytes32",
          "name": "",
          "type": "bytes32"
        }
      ],
      "stateMutability": "pure",
      "type": "function",
      "constant": true
    },
    {
      "inputs": [
        {
          "internalType": "string",
          "name": "_description",
          "type": "string"
        },
        {
          "components": [
            {
              "internalType": "uint256",
              "name": "index",
              "type": "uint256"
            },
            {
              "internalType": "bytes32",
              "name": "identifier",
              "type": "bytes32"
            },
            {
              "internalType": "string",
              "name": "name",
              "type": "string"
            },
            {
              "internalType": "string",
              "name": "description",
              "type": "string"
            },
            {
              "internalType": "enum Project.ProjectStatus",
              "name": "projectStatus",
              "type": "uint8"
            }
          ],
          "internalType": "struct Project.S_Project",
          "name": "_project",
          "type": "tuple"
        },
        {
          "internalType": "address",
          "name": "_subjectAddress",
          "type": "address"
        }
      ],
      "name": "requestProjectApprovalFromSupervisor",
      "outputs": [],
      "stateMutability": "nonpayable",
      "type": "function"
    },
    {
      "inputs": [
        {
          "internalType": "string",
          "name": "_description",
          "type": "string"
        },
        {
          "components": [
            {
              "internalType": "uint256",
              "name": "index",
              "type": "uint256"
            },
            {
              "internalType": "bytes32",
              "name": "identifier",
              "type": "bytes32"
            },
            {
              "internalType": "string",
              "name": "name",
              "type": "string"
            },
            {
              "internalType": "string",
              "name": "description",
              "type": "string"
            },
            {
              "internalType": "enum Project.ProjectStatus",
              "name": "projectStatus",
              "type": "uint8"
            }
          ],
          "internalType": "struct Project.S_Project",
          "name": "_project",
          "type": "tuple"
        },
        {
          "internalType": "address",
          "name": "_subjectAddress",
          "type": "address"
        }
      ],
      "name": "requestProjectCompleteFromSupervisor",
      "outputs": [],
      "stateMutability": "nonpayable",
      "type": "function"
    },
    {
      "inputs": [
        {
          "internalType": "string",
          "name": "_description",
          "type": "string"
        },
        {
          "components": [
            {
              "internalType": "uint256",
              "name": "index",
              "type": "uint256"
            },
            {
              "internalType": "bytes32",
              "name": "identifier",
              "type": "bytes32"
            },
            {
              "internalType": "string",
              "name": "name",
              "type": "string"
            },
            {
              "internalType": "string",
              "name": "description",
              "type": "string"
            },
            {
              "internalType": "enum Project.ProjectStatus",
              "name": "projectStatus",
              "type": "uint8"
            }
          ],
          "internalType": "struct Project.S_Project",
          "name": "_project",
          "type": "tuple"
        },
        {
          "internalType": "address",
          "name": "_subjectAddress",
          "type": "address"
        }
      ],
      "name": "requestStartProjectToCompanyBuilder",
      "outputs": [],
      "stateMutability": "nonpayable",
      "type": "function"
    }
  ],
  "bytecode": "0x60806040526000600255600060085534801561001a57600080fd5b5033600160006101000a81548173ffffffffffffffffffffffffffffffffffffffff021916908373ffffffffffffffffffffffffffffffffffffffff16021790555033600460006101000a81548173ffffffffffffffffffffffffffffffffffffffff021916908373ffffffffffffffffffffffffffffffffffffffff160217905550613423806100ac6000396000f3fe608060405234801561001057600080fd5b506004361061012c5760003560e01c80636ba13a82116100ad578063a591efde11610071578063a591efde14610388578063aff76377146103a6578063c73b302e146103c2578063d40d4a80146103e0578063fabf5968146104145761012c565b80636ba13a82146102cc5780638c86a1d7146102ea5780638da5cb5b1461031e578063910097861461033c578063911c29a61461036c5761012c565b806348c35ad4116100f457806348c35ad4146101f0578063502c9bd5146102205780636132844f1461025057806361bfd9f4146102805780636386c1c71461029c5761012c565b8063107046bd1461013157806313fb1040146101655780631959a0021461018157806329a613b5146101b657806346575714146101d4575b600080fd5b61014b60048036038101906101469190612206565b610444565b60405161015c95949392919061236b565b60405180910390f35b61017f600480360381019061017a919061267e565b610597565b005b61019b60048036038101906101969190612709565b61078e565b6040516101ad9695949392919061278d565b60405180910390f35b6101be610a17565b6040516101cb91906128c8565b60405180910390f35b6101ee60048036038101906101e991906128ea565b610a6f565b005b61020a60048036038101906102059190612206565b610bfe565b60405161021791906129a5565b60405180910390f35b61023a60048036038101906102359190612206565b610c22565b60405161024791906129c0565b60405180910390f35b61026a600480360381019061026591906129db565b610c61565b6040516102779190612a37565b60405180910390f35b61029a6004803603810190610295919061267e565b610c94565b005b6102b660048036038101906102b19190612709565b610e8b565b6040516102c39190612b58565b60405180910390f35b6102d46111bc565b6040516102e191906129a5565b60405180910390f35b61030460048036038101906102ff9190612206565b6111c2565b604051610315959493929190612c5d565b60405180910390f35b61032661142a565b60405161033391906129c0565b60405180910390f35b61035660048036038101906103519190612cbe565b611450565b6040516103639190612cfe565b60405180910390f35b61038660048036038101906103819190612d20565b61159b565b005b6103906119e4565b60405161039d9190612ecc565b60405180910390f35b6103c060048036038101906103bb919061267e565b611a72565b005b6103ca611c69565b6040516103d791906129a5565b60405180910390f35b6103fa60048036038101906103f59190612206565b611c6f565b60405161040b959493929190612c5d565b60405180910390f35b61042e60048036038101906104299190612206565b611ed7565b60405161043b9190612eee565b60405180910390f35b600560205280600052604060002060009150905080600001549080600101549080600201805461047390612f3f565b80601f016020809104026020016040519081016040528092919081815260200182805461049f90612f3f565b80156104ec5780601f106104c1576101008083540402835291602001916104ec565b820191906000526020600020905b8154815290600101906020018083116104cf57829003601f168201915b50505050509080600301805461050190612f3f565b80601f016020809104026020016040519081016040528092919081815260200182805461052d90612f3f565b801561057a5780601f1061054f5761010080835404028352916020019161057a565b820191906000526020600020905b81548152906001019060200180831161055d57829003601f168201915b5050505050908060040160009054906101000a900460ff16905085565b600460058111156105ab576105aa6122f4565b5b826080015160058111156105c2576105c16122f4565b5b14610602576040517f08c379a00000000000000000000000000000000000000000000000000000000081526004016105f990613009565b60405180910390fd5b600060076000600b548152602001908152602001600020905083816001019080519060200190610633929190612077565b5060008160020160006101000a81548160ff0219169083600181111561065c5761065b6122f4565b5b0217905550828160030160008201518160000155602082015181600101556040820151816002019080519060200190610696929190612077565b5060608201518160030190805190602001906106b3929190612077565b5060808201518160040160006101000a81548160ff021916908360058111156106df576106de6122f4565b5b0217905550905050818160080160006101000a81548173ffffffffffffffffffffffffffffffffffffffff021916908373ffffffffffffffffffffffffffffffffffffffff1602179055507f4b8881d6c5de21f0eca02f6cbf55d3306f121c2437f684657e1fd0e48c17d63b600b54600085866080015186604051610768959493929190613029565b60405180910390a1600b6000815480929190610783906130b2565b919050555050505050565b60006020528060005260406000206000915090508060000180546107b190612f3f565b80601f01602080910402602001604051908101604052809291908181526020018280546107dd90612f3f565b801561082a5780601f106107ff5761010080835404028352916020019161082a565b820191906000526020600020905b81548152906001019060200180831161080d57829003601f168201915b50505050509080600101805461083f90612f3f565b80601f016020809104026020016040519081016040528092919081815260200182805461086b90612f3f565b80156108b85780601f1061088d576101008083540402835291602001916108b8565b820191906000526020600020905b81548152906001019060200180831161089b57829003601f168201915b5050505050908060020180546108cd90612f3f565b80601f01602080910402602001604051908101604052809291908181526020018280546108f990612f3f565b80156109465780601f1061091b57610100808354040283529160200191610946565b820191906000526020600020905b81548152906001019060200180831161092957829003601f168201915b50505050509080600301805461095b90612f3f565b80601f016020809104026020016040519081016040528092919081815260200182805461098790612f3f565b80156109d45780601f106109a9576101008083540402835291602001916109d4565b820191906000526020600020905b8154815290600101906020018083116109b757829003601f168201915b5050505050908060040160009054906101000a900460ff16908060040160019054906101000a900473ffffffffffffffffffffffffffffffffffffffff16905086565b60606009805480602002602001604051908101604052809291908181526020018280548015610a6557602002820191906000526020600020905b815481526020019060010190808311610a51575b5050505050905090565b6000610a7b8233610c61565b9050600854600560006008548152602001908152602001600020600001819055508060056000600854815260200190815260200160002060010181905550846005600060085481526020019081526020016000206002019080519060200190610ae5929190612077565b50836005600060085481526020019081526020016000206003019080519060200190610b12929190612077565b50826005811115610b2657610b256122f4565b5b60056000600854815260200190815260200160002060040160006101000a81548160ff02191690836005811115610b6057610b5f6122f4565b5b02179055507f4656bb678dd0b427f71c9f70d273c2c1cb8ebd0add8063549243d64bd3ed369a8585856005811115610b9b57610b9a6122f4565b5b84604051610bac94939291906130fb565b60405180910390a16009600854908060018154018082558091505060019003906000526020600020016000909190919091505560086000815480929190610bf2906130b2565b91905055505050505050565b60098181548110610c0e57600080fd5b906000526020600020016000915090505481565b60038181548110610c3257600080fd5b906000526020600020016000915054906101000a900473ffffffffffffffffffffffffffffffffffffffff1681565b60008282604051602001610c769291906131d2565b60405160208183030381529060405280519060200120905092915050565b60006005811115610ca857610ca76122f4565b5b82608001516005811115610cbf57610cbe6122f4565b5b14610cff576040517f08c379a0000000000000000000000000000000000000000000000000000000008152600401610cf69061326c565b60405180910390fd5b600060076000600b548152602001908152602001600020905083816001019080519060200190610d30929190612077565b5060008160020160006101000a81548160ff02191690836001811115610d5957610d586122f4565b5b0217905550828160030160008201518160000155602082015181600101556040820151816002019080519060200190610d93929190612077565b506060820151816003019080519060200190610db0929190612077565b5060808201518160040160006101000a81548160ff02191690836005811115610ddc57610ddb6122f4565b5b0217905550905050818160080160006101000a81548173ffffffffffffffffffffffffffffffffffffffff021916908373ffffffffffffffffffffffffffffffffffffffff1602179055507f4b8881d6c5de21f0eca02f6cbf55d3306f121c2437f684657e1fd0e48c17d63b600b54600085866080015186604051610e65959493929190613029565b60405180910390a1600b6000815480929190610e80906130b2565b919050555050505050565b610e936120fd565b6000808373ffffffffffffffffffffffffffffffffffffffff1673ffffffffffffffffffffffffffffffffffffffff1681526020019081526020016000206040518060c0016040529081600082018054610eec90612f3f565b80601f0160208091040260200160405190810160405280929190818152602001828054610f1890612f3f565b8015610f655780601f10610f3a57610100808354040283529160200191610f65565b820191906000526020600020905b815481529060010190602001808311610f4857829003601f168201915b50505050508152602001600182018054610f7e90612f3f565b80601f0160208091040260200160405190810160405280929190818152602001828054610faa90612f3f565b8015610ff75780601f10610fcc57610100808354040283529160200191610ff7565b820191906000526020600020905b815481529060010190602001808311610fda57829003601f168201915b5050505050815260200160028201805461101090612f3f565b80601f016020809104026020016040519081016040528092919081815260200182805461103c90612f3f565b80156110895780601f1061105e57610100808354040283529160200191611089565b820191906000526020600020905b81548152906001019060200180831161106c57829003601f168201915b505050505081526020016003820180546110a290612f3f565b80601f01602080910402602001604051908101604052809291908181526020018280546110ce90612f3f565b801561111b5780601f106110f05761010080835404028352916020019161111b565b820191906000526020600020905b8154815290600101906020018083116110fe57829003601f168201915b505050505081526020016004820160009054906101000a900460ff166003811115611149576111486122f4565b5b600381111561115b5761115a6122f4565b5b81526020016004820160019054906101000a900473ffffffffffffffffffffffffffffffffffffffff1673ffffffffffffffffffffffffffffffffffffffff1673ffffffffffffffffffffffffffffffffffffffff16815250509050919050565b60025481565b60076020528060005260406000206000915090508060000154908060010180546111eb90612f3f565b80601f016020809104026020016040519081016040528092919081815260200182805461121790612f3f565b80156112645780601f1061123957610100808354040283529160200191611264565b820191906000526020600020905b81548152906001019060200180831161124757829003601f168201915b5050505050908060020160009054906101000a900460ff1690806003016040518060a001604052908160008201548152602001600182015481526020016002820180546112b090612f3f565b80601f01602080910402602001604051908101604052809291908181526020018280546112dc90612f3f565b80156113295780601f106112fe57610100808354040283529160200191611329565b820191906000526020600020905b81548152906001019060200180831161130c57829003601f168201915b5050505050815260200160038201805461134290612f3f565b80601f016020809104026020016040519081016040528092919081815260200182805461136e90612f3f565b80156113bb5780601f10611390576101008083540402835291602001916113bb565b820191906000526020600020905b81548152906001019060200180831161139e57829003601f168201915b505050505081526020016004820160009054906101000a900460ff1660058111156113e9576113e86122f4565b5b60058111156113fb576113fa6122f4565b5b81525050908060080160009054906101000a900473ffffffffffffffffffffffffffffffffffffffff16905085565b600160009054906101000a900473ffffffffffffffffffffffffffffffffffffffff1681565b60603373ffffffffffffffffffffffffffffffffffffffff16600160009054906101000a900473ffffffffffffffffffffffffffffffffffffffff1673ffffffffffffffffffffffffffffffffffffffff16146114e2576040517f08c379a00000000000000000000000000000000000000000000000000000000081526004016114d9906132d8565b60405180910390fd5b8260038111156114f5576114f46122f4565b5b6000808473ffffffffffffffffffffffffffffffffffffffff1673ffffffffffffffffffffffffffffffffffffffff16815260200190815260200160002060040160006101000a81548160ff02191690836003811115611558576115576122f4565b5b02179055506040518060400160405280600d81526020017f526f6c6520557064617465642100000000000000000000000000000000000000815250905092915050565b3373ffffffffffffffffffffffffffffffffffffffff16600160009054906101000a900473ffffffffffffffffffffffffffffffffffffffff1673ffffffffffffffffffffffffffffffffffffffff161461162b576040517f08c379a0000000000000000000000000000000000000000000000000000000008152600401611622906132d8565b60405180910390fd5b856000808373ffffffffffffffffffffffffffffffffffffffff1673ffffffffffffffffffffffffffffffffffffffff1681526020019081526020016000206000019080519060200190611680929190612077565b50856000808373ffffffffffffffffffffffffffffffffffffffff1673ffffffffffffffffffffffffffffffffffffffff16815260200190815260200160002060000190805190602001906116d6929190612077565b50846000808373ffffffffffffffffffffffffffffffffffffffff1673ffffffffffffffffffffffffffffffffffffffff168152602001908152602001600020600101908051906020019061172c929190612077565b50836000808373ffffffffffffffffffffffffffffffffffffffff1673ffffffffffffffffffffffffffffffffffffffff1681526020019081526020016000206002019080519060200190611782929190612077565b50826000808373ffffffffffffffffffffffffffffffffffffffff1673ffffffffffffffffffffffffffffffffffffffff16815260200190815260200160002060030190805190602001906117d8929190612077565b508160038111156117ec576117eb6122f4565b5b6000808373ffffffffffffffffffffffffffffffffffffffff1673ffffffffffffffffffffffffffffffffffffffff16815260200190815260200160002060040160006101000a81548160ff0219169083600381111561184f5761184e6122f4565b5b0217905550806000808373ffffffffffffffffffffffffffffffffffffffff1673ffffffffffffffffffffffffffffffffffffffff16815260200190815260200160002060040160016101000a81548173ffffffffffffffffffffffffffffffffffffffff021916908373ffffffffffffffffffffffffffffffffffffffff1602179055508160038111156118e7576118e66122f4565b5b60038111156118f9576118f86122f4565b5b8660405161190791906132f8565b60405180910390208273ffffffffffffffffffffffffffffffffffffffff167fddb5d1667467713eb503e7e133811c91a231cb6b63f11930889c6004f36c35ee8888886040516119599392919061330f565b60405180910390a46003819080600181540180825580915050600190039060005260206000200160009091909190916101000a81548173ffffffffffffffffffffffffffffffffffffffff021916908373ffffffffffffffffffffffffffffffffffffffff160217905550600260008154809291906119d7906130b2565b9190505550505050505050565b60606003805480602002602001604051908101604052809291908181526020018280548015611a6857602002820191906000526020600020905b8160009054906101000a900473ffffffffffffffffffffffffffffffffffffffff1673ffffffffffffffffffffffffffffffffffffffff1681526020019060010190808311611a1e575b5050505050905090565b60016005811115611a8657611a856122f4565b5b82608001516005811115611a9d57611a9c6122f4565b5b14611add576040517f08c379a0000000000000000000000000000000000000000000000000000000008152600401611ad4906133cd565b60405180910390fd5b600060066000600a548152602001908152602001600020905083816001019080519060200190611b0e929190612077565b5060008160020160006101000a81548160ff02191690836001811115611b3757611b366122f4565b5b0217905550828160030160008201518160000155602082015181600101556040820151816002019080519060200190611b71929190612077565b506060820151816003019080519060200190611b8e929190612077565b5060808201518160040160006101000a81548160ff02191690836005811115611bba57611bb96122f4565b5b0217905550905050818160080160006101000a81548173ffffffffffffffffffffffffffffffffffffffff021916908373ffffffffffffffffffffffffffffffffffffffff1602179055507fca0c364958c7d564ad7994d0597c1d116da141cb386cde965c866eecd5e7d687600a54600085866080015186604051611c43959493929190613029565b60405180910390a1600a6000815480929190611c5e906130b2565b919050555050505050565b60085481565b6006602052806000526040600020600091509050806000015490806001018054611c9890612f3f565b80601f0160208091040260200160405190810160405280929190818152602001828054611cc490612f3f565b8015611d115780601f10611ce657610100808354040283529160200191611d11565b820191906000526020600020905b815481529060010190602001808311611cf457829003601f168201915b5050505050908060020160009054906101000a900460ff1690806003016040518060a00160405290816000820154815260200160018201548152602001600282018054611d5d90612f3f565b80601f0160208091040260200160405190810160405280929190818152602001828054611d8990612f3f565b8015611dd65780601f10611dab57610100808354040283529160200191611dd6565b820191906000526020600020905b815481529060010190602001808311611db957829003601f168201915b50505050508152602001600382018054611def90612f3f565b80601f0160208091040260200160405190810160405280929190818152602001828054611e1b90612f3f565b8015611e685780601f10611e3d57610100808354040283529160200191611e68565b820191906000526020600020905b815481529060010190602001808311611e4b57829003601f168201915b505050505081526020016004820160009054906101000a900460ff166005811115611e9657611e956122f4565b5b6005811115611ea857611ea76122f4565b5b81525050908060080160009054906101000a900473ffffffffffffffffffffffffffffffffffffffff16905085565b611edf61215b565b600560008381526020019081526020016000206040518060a00160405290816000820154815260200160018201548152602001600282018054611f2190612f3f565b80601f0160208091040260200160405190810160405280929190818152602001828054611f4d90612f3f565b8015611f9a5780601f10611f6f57610100808354040283529160200191611f9a565b820191906000526020600020905b815481529060010190602001808311611f7d57829003601f168201915b50505050508152602001600382018054611fb390612f3f565b80601f0160208091040260200160405190810160405280929190818152602001828054611fdf90612f3f565b801561202c5780601f106120015761010080835404028352916020019161202c565b820191906000526020600020905b81548152906001019060200180831161200f57829003601f168201915b505050505081526020016004820160009054906101000a900460ff16600581111561205a576120596122f4565b5b600581111561206c5761206b6122f4565b5b815250509050919050565b82805461208390612f3f565b90600052602060002090601f0160209004810192826120a557600085556120ec565b82601f106120be57805160ff19168380011785556120ec565b828001600101855582156120ec579182015b828111156120eb5782518255916020019190600101906120d0565b5b5090506120f9919061219f565b5090565b6040518060c001604052806060815260200160608152602001606081526020016060815260200160006003811115612138576121376122f4565b5b8152602001600073ffffffffffffffffffffffffffffffffffffffff1681525090565b6040518060a001604052806000815260200160008019168152602001606081526020016060815260200160006005811115612199576121986122f4565b5b81525090565b5b808211156121b85760008160009055506001016121a0565b5090565b6000604051905090565b600080fd5b600080fd5b6000819050919050565b6121e3816121d0565b81146121ee57600080fd5b50565b600081359050612200816121da565b92915050565b60006020828403121561221c5761221b6121c6565b5b600061222a848285016121f1565b91505092915050565b61223c816121d0565b82525050565b6000819050919050565b61225581612242565b82525050565b600081519050919050565b600082825260208201905092915050565b60005b8381101561229557808201518184015260208101905061227a565b838111156122a4576000848401525b50505050565b6000601f19601f8301169050919050565b60006122c68261225b565b6122d08185612266565b93506122e0818560208601612277565b6122e9816122aa565b840191505092915050565b7f4e487b7100000000000000000000000000000000000000000000000000000000600052602160045260246000fd5b60068110612334576123336122f4565b5b50565b600081905061234582612323565b919050565b600061235582612337565b9050919050565b6123658161234a565b82525050565b600060a0820190506123806000830188612233565b61238d602083018761224c565b818103604083015261239f81866122bb565b905081810360608301526123b381856122bb565b90506123c2608083018461235c565b9695505050505050565b600080fd5b600080fd5b7f4e487b7100000000000000000000000000000000000000000000000000000000600052604160045260246000fd5b61240e826122aa565b810181811067ffffffffffffffff8211171561242d5761242c6123d6565b5b80604052505050565b60006124406121bc565b905061244c8282612405565b919050565b600067ffffffffffffffff82111561246c5761246b6123d6565b5b612475826122aa565b9050602081019050919050565b82818337600083830152505050565b60006124a461249f84612451565b612436565b9050828152602081018484840111156124c0576124bf6123d1565b5b6124cb848285612482565b509392505050565b600082601f8301126124e8576124e76123cc565b5b81356124f8848260208601612491565b91505092915050565b600080fd5b600080fd5b61251481612242565b811461251f57600080fd5b50565b6000813590506125318161250b565b92915050565b6006811061254457600080fd5b50565b60008135905061255681612537565b92915050565b600060a0828403121561257257612571612501565b5b61257c60a0612436565b9050600061258c848285016121f1565b60008301525060206125a084828501612522565b602083015250604082013567ffffffffffffffff8111156125c4576125c3612506565b5b6125d0848285016124d3565b604083015250606082013567ffffffffffffffff8111156125f4576125f3612506565b5b612600848285016124d3565b606083015250608061261484828501612547565b60808301525092915050565b600073ffffffffffffffffffffffffffffffffffffffff82169050919050565b600061264b82612620565b9050919050565b61265b81612640565b811461266657600080fd5b50565b60008135905061267881612652565b92915050565b600080600060608486031215612697576126966121c6565b5b600084013567ffffffffffffffff8111156126b5576126b46121cb565b5b6126c1868287016124d3565b935050602084013567ffffffffffffffff8111156126e2576126e16121cb565b5b6126ee8682870161255c565b92505060406126ff86828701612669565b9150509250925092565b60006020828403121561271f5761271e6121c6565b5b600061272d84828501612669565b91505092915050565b60048110612747576127466122f4565b5b50565b600081905061275882612736565b919050565b60006127688261274a565b9050919050565b6127788161275d565b82525050565b61278781612640565b82525050565b600060c08201905081810360008301526127a781896122bb565b905081810360208301526127bb81886122bb565b905081810360408301526127cf81876122bb565b905081810360608301526127e381866122bb565b90506127f2608083018561276f565b6127ff60a083018461277e565b979650505050505050565b600081519050919050565b600082825260208201905092915050565b6000819050602082019050919050565b61283f816121d0565b82525050565b60006128518383612836565b60208301905092915050565b6000602082019050919050565b60006128758261280a565b61287f8185612815565b935061288a83612826565b8060005b838110156128bb5781516128a28882612845565b97506128ad8361285d565b92505060018101905061288e565b5085935050505092915050565b600060208201905081810360008301526128e2818461286a565b905092915050565b60008060008060808587031215612904576129036121c6565b5b600085013567ffffffffffffffff811115612922576129216121cb565b5b61292e878288016124d3565b945050602085013567ffffffffffffffff81111561294f5761294e6121cb565b5b61295b878288016124d3565b935050604061296c878288016121f1565b925050606085013567ffffffffffffffff81111561298d5761298c6121cb565b5b612999878288016124d3565b91505092959194509250565b60006020820190506129ba6000830184612233565b92915050565b60006020820190506129d5600083018461277e565b92915050565b600080604083850312156129f2576129f16121c6565b5b600083013567ffffffffffffffff811115612a1057612a0f6121cb565b5b612a1c858286016124d3565b9250506020612a2d85828601612669565b9150509250929050565b6000602082019050612a4c600083018461224c565b92915050565b600082825260208201905092915050565b6000612a6e8261225b565b612a788185612a52565b9350612a88818560208601612277565b612a91816122aa565b840191505092915050565b612aa58161275d565b82525050565b612ab481612640565b82525050565b600060c0830160008301518482036000860152612ad78282612a63565b91505060208301518482036020860152612af18282612a63565b91505060408301518482036040860152612b0b8282612a63565b91505060608301518482036060860152612b258282612a63565b9150506080830151612b3a6080860182612a9c565b5060a0830151612b4d60a0860182612aab565b508091505092915050565b60006020820190508181036000830152612b728184612aba565b905092915050565b60028110612b8b57612b8a6122f4565b5b50565b6000819050612b9c82612b7a565b919050565b6000612bac82612b8e565b9050919050565b612bbc81612ba1565b82525050565b612bcb81612242565b82525050565b612bda8161234a565b82525050565b600060a083016000830151612bf86000860182612836565b506020830151612c0b6020860182612bc2565b5060408301518482036040860152612c238282612a63565b91505060608301518482036060860152612c3d8282612a63565b9150506080830151612c526080860182612bd1565b508091505092915050565b600060a082019050612c726000830188612233565b8181036020830152612c8481876122bb565b9050612c936040830186612bb3565b8181036060830152612ca58185612be0565b9050612cb4608083018461277e565b9695505050505050565b60008060408385031215612cd557612cd46121c6565b5b6000612ce3858286016121f1565b9250506020612cf485828601612669565b9150509250929050565b60006020820190508181036000830152612d1881846122bb565b905092915050565b60008060008060008060c08789031215612d3d57612d3c6121c6565b5b600087013567ffffffffffffffff811115612d5b57612d5a6121cb565b5b612d6789828a016124d3565b965050602087013567ffffffffffffffff811115612d8857612d876121cb565b5b612d9489828a016124d3565b955050604087013567ffffffffffffffff811115612db557612db46121cb565b5b612dc189828a016124d3565b945050606087013567ffffffffffffffff811115612de257612de16121cb565b5b612dee89828a016124d3565b9350506080612dff89828a016121f1565b92505060a0612e1089828a01612669565b9150509295509295509295565b600081519050919050565b600082825260208201905092915050565b6000819050602082019050919050565b6000612e558383612aab565b60208301905092915050565b6000602082019050919050565b6000612e7982612e1d565b612e838185612e28565b9350612e8e83612e39565b8060005b83811015612ebf578151612ea68882612e49565b9750612eb183612e61565b925050600181019050612e92565b5085935050505092915050565b60006020820190508181036000830152612ee68184612e6e565b905092915050565b60006020820190508181036000830152612f088184612be0565b905092915050565b7f4e487b7100000000000000000000000000000000000000000000000000000000600052602260045260246000fd5b60006002820490506001821680612f5757607f821691505b60208210811415612f6b57612f6a612f10565b5b50919050565b7f5468652070726f6a656374206973206e6f7420696e2074686520274265666f7260008201527f6546696e616c697a6174696f6e436865636b27207374617475732c207468652060208201527f6f7065726174696f6e2063616e6e6f7420626520646f6e652e00000000000000604082015250565b6000612ff3605983612266565b9150612ffe82612f71565b606082019050919050565b6000602082019050818103600083015261302281612fe6565b9050919050565b600060a08201905061303e6000830188612233565b61304b6020830187612bb3565b818103604083015261305d8186612be0565b905061306c606083018561235c565b613079608083018461277e565b9695505050505050565b7f4e487b7100000000000000000000000000000000000000000000000000000000600052601160045260246000fd5b60006130bd826121d0565b91507fffffffffffffffffffffffffffffffffffffffffffffffffffffffffffffffff8214156130f0576130ef613083565b5b600182019050919050565b6000608082019050818103600083015261311581876122bb565b9050818103602083015261312981866122bb565b9050613138604083018561235c565b613145606083018461224c565b95945050505050565b600081905092915050565b60006131648261225b565b61316e818561314e565b935061317e818560208601612277565b80840191505092915050565b60008160601b9050919050565b60006131a28261318a565b9050919050565b60006131b482613197565b9050919050565b6131cc6131c782612640565b6131a9565b82525050565b60006131de8285613159565b91506131ea82846131bb565b6014820191508190509392505050565b7f5468652070726f6a656374206973206e6f7420637265617465642c207468652060008201527f6f7065726174696f6e2063616e6e6f7420626520646f6e652e00000000000000602082015250565b6000613256603983612266565b9150613261826131fa565b604082019050919050565b6000602082019050818103600083015261328581613249565b9050919050565b7f596f7520617265206e6f7420616e206f776e6572000000000000000000000000600082015250565b60006132c2601483612266565b91506132cd8261328c565b602082019050919050565b600060208201905081810360008301526132f1816132b5565b9050919050565b60006133048284613159565b915081905092915050565b6000606082019050818103600083015261332981866122bb565b9050818103602083015261333d81856122bb565b9050818103604083015261335181846122bb565b9050949350505050565b7f5468652070726f6a656374206973206e6f7420617070726f7665642c2074686560008201527f206f7065726174696f6e2063616e6e6f7420626520646f6e652e000000000000602082015250565b60006133b7603a83612266565b91506133c28261335b565b604082019050919050565b600060208201905081810360008301526133e6816133aa565b905091905056fea2646970667358221220d368ca6fa8819cb1f77fd76adb73aeb641780465d3ae0eab93629e225b2b2a1464736f6c634300080a0033",
  "immutableReferences": {},
  "source": "// SPDX-License-Identifier: MIT\r\npragma solidity >=0.8.0 <0.9.0;\r\n\r\nimport \"./User.sol\";\r\n\r\ncontract Project is User {\r\n\r\n    address projectInitiator;\r\n\r\n    mapping(uint => S_Project) public projects;\r\n    mapping(uint => S_Request) public companyRequests;\r\n    mapping(uint => S_Request) public supervisorRequests;\r\n\r\n    uint public projectsCount = 0;\r\n    uint[] public projectIds;\r\n\r\n\r\n    uint indexCompanyRequest;\r\n    uint indexSupervisorRequest;\r\n\r\n    struct S_Project {\r\n        uint index;\r\n        bytes32 identifier;\r\n        string name;\r\n        string description;\r\n        ProjectStatus projectStatus;\r\n    }\r\n\r\n    struct S_Request {\r\n        uint index;\r\n        string description;\r\n        RequestStatus status;\r\n        S_Project project;\r\n        address subjectAddress;\r\n    }\r\n\r\n    enum RequestStatus { Unverified, Verified }\r\n    enum ProjectStatus { Created, Approved, Rejected, OnGoing, BeforeFinalizationCheck, Completed }\r\n\r\n    //event CreateProject(uint _indexProject, Project.ProjectStatus _projectStatus, address _address);\r\n\r\n    event CreateProject(string _name, string _description, ProjectStatus _status, bytes32 _identifier);\r\n\r\n    event UpdateSupervisorRequestStatus(uint _indexRequest, RequestStatus _status, S_Project _project, ProjectStatus _projectStatus, address _subjectAddress);\r\n    event UpdateCompanyRequestStatus(uint _indexRequest, RequestStatus _status, S_Project _project, ProjectStatus _projectStatus, address _subjectAddress);\r\n\r\n    constructor() {\r\n        projectInitiator = msg.sender;\r\n    }\r\n\r\n    modifier onlyProjectInitiator {\r\n        require(userInfo[projectInitiator].role == Roles.ProjectInitiator, \"You don't have the rights for this resources.\");\r\n        require(projectInitiator == msg.sender, \"You are not a project initiator\");\r\n        _;\r\n    }\r\n\r\n    function createProject(string memory _name, string memory _description, uint _status, string memory _hashStringValue) public  {\r\n        bytes32 _identifier = createUniqueIdentifier(_hashStringValue, msg.sender);\r\n\r\n        projects[projectsCount].index = projectsCount;\r\n        projects[projectsCount].identifier = _identifier;\r\n        projects[projectsCount].name = _name;\r\n        projects[projectsCount].description = _description;\r\n        projects[projectsCount].projectStatus = ProjectStatus(_status);\r\n\r\n        emit CreateProject(_name, _description, ProjectStatus(_status), _identifier);\r\n        projectIds.push(projectsCount);\r\n        projectsCount++;\r\n    }\r\n\r\n    function getProjectInfo(uint _index)\r\n        external\r\n        view\r\n        returns (S_Project memory)\r\n    {\r\n        return projects[_index];\r\n    }\r\n\r\n    function getProjectIds() external view returns (uint[] memory) {\r\n        return projectIds;\r\n    }\r\n\r\n    function createUniqueIdentifier(string memory _text, address _addr) public pure returns (bytes32)  {\r\n        return keccak256(abi.encodePacked(_text, _addr));\r\n    }\r\n\r\n    function requestProjectApprovalFromSupervisor(string memory _description, S_Project memory _project, address _subjectAddress) public {\r\n        require(_project.projectStatus == ProjectStatus.Created, \"The project is not created, the operation cannot be done.\");\r\n\r\n        S_Request storage request = supervisorRequests[indexSupervisorRequest];\r\n        request.description = _description;\r\n        request.status = RequestStatus.Unverified;\r\n        request.project = _project;\r\n        request.subjectAddress = _subjectAddress;\r\n\r\n        emit UpdateSupervisorRequestStatus(indexSupervisorRequest, RequestStatus.Unverified, _project, _project.projectStatus, _subjectAddress);\r\n        indexSupervisorRequest++;\r\n    }\r\n\r\n    function requestProjectCompleteFromSupervisor(string memory _description, S_Project memory _project, address _subjectAddress) public {\r\n        require(\r\n            _project.projectStatus == ProjectStatus.BeforeFinalizationCheck,\r\n            \"The project is not in the 'BeforeFinalizationCheck' status, the operation cannot be done.\"\r\n        );\r\n\r\n        S_Request storage request = supervisorRequests[indexSupervisorRequest];\r\n        request.description = _description;\r\n        request.status = RequestStatus.Unverified;\r\n        request.project = _project;\r\n        request.subjectAddress = _subjectAddress;\r\n\r\n        emit UpdateSupervisorRequestStatus(indexSupervisorRequest, RequestStatus.Unverified, _project, _project.projectStatus, _subjectAddress);\r\n        indexSupervisorRequest++;\r\n    }\r\n\r\n    function requestStartProjectToCompanyBuilder(string memory _description, S_Project memory _project, address _subjectAddress) public {\r\n        require(_project.projectStatus == ProjectStatus.Approved, \"The project is not approved, the operation cannot be done.\");\r\n\r\n        S_Request storage request = companyRequests[indexCompanyRequest];\r\n        request.description = _description;\r\n        request.status = RequestStatus.Unverified;\r\n        request.project = _project;\r\n        request.subjectAddress = _subjectAddress;\r\n\r\n        emit UpdateCompanyRequestStatus(indexCompanyRequest, RequestStatus.Unverified, _project, _project.projectStatus, _subjectAddress);\r\n        indexCompanyRequest++;\r\n    }\r\n}",
  "sourcePath": "/mnt/c/users/beniamin/source/repos/dissertationproject/contracts/Project.sol",
  "compiler": {
    "name": "solc",
    "version": "0.8.10+commit.fc410830.Emscripten.clang"
  },
  "schemaVersion": "3.4.3",
  "updatedAt": "2021-11-14T15:08:06.154Z",
  "networkType": "ethereum",
  "devdoc": {
    "kind": "dev",
    "methods": {},
    "version": 1
  },
  "userdoc": {
    "kind": "user",
    "methods": {},
    "version": 1
  }
}