{
  "contractName": "ProjectChain",
  "abi": [
    {
      "inputs": [],
      "stateMutability": "nonpayable",
      "type": "constructor"
    },
    {
      "anonymous": false,
      "inputs": [
        {
          "indexed": false,
          "internalType": "uint256",
          "name": "_index",
          "type": "uint256"
        },
        {
          "indexed": false,
          "internalType": "bytes32",
          "name": "_name",
          "type": "bytes32"
        },
        {
          "indexed": false,
          "internalType": "enum SharedChain.ProjectStatus",
          "name": "_status",
          "type": "uint8"
        },
        {
          "indexed": false,
          "internalType": "string",
          "name": "_ipfsFileCID",
          "type": "string"
        },
        {
          "indexed": false,
          "internalType": "address",
          "name": "_projectAddress",
          "type": "address"
        },
        {
          "indexed": false,
          "internalType": "address",
          "name": "_userAddress",
          "type": "address"
        },
        {
          "indexed": false,
          "internalType": "uint256",
          "name": "_timestamp",
          "type": "uint256"
        }
      ],
      "name": "ProjectEvent",
      "type": "event"
    },
    {
      "anonymous": false,
      "inputs": [
        {
          "indexed": false,
          "internalType": "uint256",
          "name": "_index",
          "type": "uint256"
        },
        {
          "indexed": false,
          "internalType": "bytes32",
          "name": "_title",
          "type": "bytes32"
        },
        {
          "indexed": false,
          "internalType": "string",
          "name": "_comments",
          "type": "string"
        },
        {
          "indexed": false,
          "internalType": "enum SharedChain.ProjectStatus",
          "name": "_status",
          "type": "uint8"
        },
        {
          "indexed": false,
          "internalType": "enum SharedChain.RequestStatus",
          "name": "_requestStatus",
          "type": "uint8"
        },
        {
          "indexed": false,
          "internalType": "address",
          "name": "_projectAddress",
          "type": "address"
        },
        {
          "indexed": false,
          "internalType": "address",
          "name": "_userAddress",
          "type": "address"
        },
        {
          "indexed": false,
          "internalType": "uint256",
          "name": "_timestamp",
          "type": "uint256"
        }
      ],
      "name": "ProjectRequestEvent",
      "type": "event"
    },
    {
      "anonymous": false,
      "inputs": [
        {
          "indexed": false,
          "internalType": "uint256",
          "name": "_index",
          "type": "uint256"
        },
        {
          "indexed": false,
          "internalType": "uint256",
          "name": "_indexProjectRequest",
          "type": "uint256"
        },
        {
          "indexed": false,
          "internalType": "bytes32",
          "name": "_title",
          "type": "bytes32"
        },
        {
          "indexed": false,
          "internalType": "enum SharedChain.RequestStatus",
          "name": "_status",
          "type": "uint8"
        },
        {
          "indexed": false,
          "internalType": "enum SharedChain.ProjectStatus",
          "name": "_projectStatus",
          "type": "uint8"
        },
        {
          "indexed": false,
          "internalType": "address",
          "name": "_projectAddress",
          "type": "address"
        },
        {
          "indexed": false,
          "internalType": "address",
          "name": "_userAddress",
          "type": "address"
        },
        {
          "indexed": false,
          "internalType": "uint256",
          "name": "_timestamp",
          "type": "uint256"
        }
      ],
      "name": "RequestEvent",
      "type": "event"
    },
    {
      "anonymous": false,
      "inputs": [
        {
          "indexed": true,
          "internalType": "address",
          "name": "_walletAddress",
          "type": "address"
        },
        {
          "indexed": true,
          "internalType": "string",
          "name": "_username",
          "type": "string"
        },
        {
          "indexed": false,
          "internalType": "bytes32",
          "name": "_email",
          "type": "bytes32"
        },
        {
          "indexed": false,
          "internalType": "bytes32",
          "name": "_firstname",
          "type": "bytes32"
        },
        {
          "indexed": false,
          "internalType": "bytes32",
          "name": "_lastname",
          "type": "bytes32"
        },
        {
          "indexed": true,
          "internalType": "enum UserChain.Roles",
          "name": "_role",
          "type": "uint8"
        }
      ],
      "name": "UserEvent",
      "type": "event"
    },
    {
      "inputs": [
        {
          "internalType": "uint256",
          "name": "",
          "type": "uint256"
        }
      ],
      "name": "allProjectRequests",
      "outputs": [
        {
          "internalType": "uint256",
          "name": "_index",
          "type": "uint256"
        },
        {
          "internalType": "bytes32",
          "name": "_title",
          "type": "bytes32"
        },
        {
          "internalType": "string",
          "name": "_comments",
          "type": "string"
        },
        {
          "internalType": "enum SharedChain.ProjectStatus",
          "name": "_status",
          "type": "uint8"
        },
        {
          "internalType": "enum SharedChain.RequestStatus",
          "name": "_requestStatus",
          "type": "uint8"
        },
        {
          "internalType": "address",
          "name": "_projectAddress",
          "type": "address"
        },
        {
          "internalType": "address",
          "name": "_userAddress",
          "type": "address"
        }
      ],
      "stateMutability": "view",
      "type": "function",
      "constant": true
    },
    {
      "inputs": [
        {
          "internalType": "uint256",
          "name": "",
          "type": "uint256"
        }
      ],
      "name": "allProjects",
      "outputs": [
        {
          "internalType": "uint256",
          "name": "_index",
          "type": "uint256"
        },
        {
          "internalType": "bytes32",
          "name": "_name",
          "type": "bytes32"
        },
        {
          "internalType": "enum SharedChain.ProjectStatus",
          "name": "_status",
          "type": "uint8"
        },
        {
          "internalType": "string",
          "name": "_ipfsFileCID",
          "type": "string"
        },
        {
          "internalType": "address",
          "name": "_projectAddress",
          "type": "address"
        },
        {
          "internalType": "address",
          "name": "_userAddress",
          "type": "address"
        }
      ],
      "stateMutability": "view",
      "type": "function",
      "constant": true
    },
    {
      "inputs": [
        {
          "internalType": "uint256",
          "name": "",
          "type": "uint256"
        }
      ],
      "name": "allRequests",
      "outputs": [
        {
          "internalType": "uint256",
          "name": "_index",
          "type": "uint256"
        },
        {
          "internalType": "uint256",
          "name": "_indexProjectRequest",
          "type": "uint256"
        },
        {
          "internalType": "bytes32",
          "name": "_title",
          "type": "bytes32"
        },
        {
          "internalType": "enum SharedChain.RequestStatus",
          "name": "_requestStatus",
          "type": "uint8"
        },
        {
          "internalType": "enum SharedChain.ProjectStatus",
          "name": "_projectStatus",
          "type": "uint8"
        },
        {
          "internalType": "address",
          "name": "_projectAddress",
          "type": "address"
        },
        {
          "internalType": "address",
          "name": "_userAddress",
          "type": "address"
        }
      ],
      "stateMutability": "view",
      "type": "function",
      "constant": true
    },
    {
      "inputs": [
        {
          "internalType": "uint256",
          "name": "",
          "type": "uint256"
        }
      ],
      "name": "allUsers",
      "outputs": [
        {
          "internalType": "uint256",
          "name": "_index",
          "type": "uint256"
        },
        {
          "internalType": "string",
          "name": "_username",
          "type": "string"
        },
        {
          "internalType": "bytes32",
          "name": "_email",
          "type": "bytes32"
        },
        {
          "internalType": "bytes32",
          "name": "_firstname",
          "type": "bytes32"
        },
        {
          "internalType": "bytes32",
          "name": "_lastname",
          "type": "bytes32"
        },
        {
          "internalType": "enum UserChain.Roles",
          "name": "_role",
          "type": "uint8"
        },
        {
          "internalType": "address",
          "name": "_walletAddress",
          "type": "address"
        }
      ],
      "stateMutability": "view",
      "type": "function",
      "constant": true
    },
    {
      "inputs": [
        {
          "internalType": "uint256",
          "name": "_role",
          "type": "uint256"
        },
        {
          "internalType": "address",
          "name": "_walletAddress",
          "type": "address"
        }
      ],
      "name": "changeUserRole",
      "outputs": [],
      "stateMutability": "nonpayable",
      "type": "function"
    },
    {
      "inputs": [],
      "name": "getAllUsers",
      "outputs": [
        {
          "components": [
            {
              "internalType": "uint256",
              "name": "_index",
              "type": "uint256"
            },
            {
              "internalType": "string",
              "name": "_username",
              "type": "string"
            },
            {
              "internalType": "bytes32",
              "name": "_email",
              "type": "bytes32"
            },
            {
              "internalType": "bytes32",
              "name": "_firstname",
              "type": "bytes32"
            },
            {
              "internalType": "bytes32",
              "name": "_lastname",
              "type": "bytes32"
            },
            {
              "internalType": "enum UserChain.Roles",
              "name": "_role",
              "type": "uint8"
            },
            {
              "internalType": "address",
              "name": "_walletAddress",
              "type": "address"
            }
          ],
          "internalType": "struct UserChain.User[]",
          "name": "",
          "type": "tuple[]"
        }
      ],
      "stateMutability": "view",
      "type": "function",
      "constant": true
    },
    {
      "inputs": [
        {
          "internalType": "address",
          "name": "_walletAddress",
          "type": "address"
        }
      ],
      "name": "getUserInfo",
      "outputs": [
        {
          "components": [
            {
              "internalType": "uint256",
              "name": "_index",
              "type": "uint256"
            },
            {
              "internalType": "string",
              "name": "_username",
              "type": "string"
            },
            {
              "internalType": "bytes32",
              "name": "_email",
              "type": "bytes32"
            },
            {
              "internalType": "bytes32",
              "name": "_firstname",
              "type": "bytes32"
            },
            {
              "internalType": "bytes32",
              "name": "_lastname",
              "type": "bytes32"
            },
            {
              "internalType": "enum UserChain.Roles",
              "name": "_role",
              "type": "uint8"
            },
            {
              "internalType": "address",
              "name": "_walletAddress",
              "type": "address"
            }
          ],
          "internalType": "struct UserChain.User",
          "name": "",
          "type": "tuple"
        }
      ],
      "stateMutability": "view",
      "type": "function",
      "constant": true
    },
    {
      "inputs": [],
      "name": "owner",
      "outputs": [
        {
          "internalType": "address",
          "name": "",
          "type": "address"
        }
      ],
      "stateMutability": "view",
      "type": "function",
      "constant": true
    },
    {
      "inputs": [
        {
          "internalType": "uint256",
          "name": "",
          "type": "uint256"
        }
      ],
      "name": "projectRequests",
      "outputs": [
        {
          "internalType": "uint256",
          "name": "_index",
          "type": "uint256"
        },
        {
          "internalType": "bytes32",
          "name": "_title",
          "type": "bytes32"
        },
        {
          "internalType": "string",
          "name": "_comments",
          "type": "string"
        },
        {
          "internalType": "enum SharedChain.ProjectStatus",
          "name": "_status",
          "type": "uint8"
        },
        {
          "internalType": "enum SharedChain.RequestStatus",
          "name": "_requestStatus",
          "type": "uint8"
        },
        {
          "internalType": "address",
          "name": "_projectAddress",
          "type": "address"
        },
        {
          "internalType": "address",
          "name": "_userAddress",
          "type": "address"
        }
      ],
      "stateMutability": "view",
      "type": "function",
      "constant": true
    },
    {
      "inputs": [],
      "name": "projectRequestsCounter",
      "outputs": [
        {
          "internalType": "uint256",
          "name": "",
          "type": "uint256"
        }
      ],
      "stateMutability": "view",
      "type": "function",
      "constant": true
    },
    {
      "inputs": [
        {
          "internalType": "address",
          "name": "",
          "type": "address"
        }
      ],
      "name": "projects",
      "outputs": [
        {
          "internalType": "uint256",
          "name": "_index",
          "type": "uint256"
        },
        {
          "internalType": "bytes32",
          "name": "_name",
          "type": "bytes32"
        },
        {
          "internalType": "enum SharedChain.ProjectStatus",
          "name": "_status",
          "type": "uint8"
        },
        {
          "internalType": "string",
          "name": "_ipfsFileCID",
          "type": "string"
        },
        {
          "internalType": "address",
          "name": "_projectAddress",
          "type": "address"
        },
        {
          "internalType": "address",
          "name": "_userAddress",
          "type": "address"
        }
      ],
      "stateMutability": "view",
      "type": "function",
      "constant": true
    },
    {
      "inputs": [],
      "name": "projectsCounter",
      "outputs": [
        {
          "internalType": "uint256",
          "name": "",
          "type": "uint256"
        }
      ],
      "stateMutability": "view",
      "type": "function",
      "constant": true
    },
    {
      "inputs": [
        {
          "internalType": "string",
          "name": "_username",
          "type": "string"
        },
        {
          "internalType": "bytes32",
          "name": "_email",
          "type": "bytes32"
        },
        {
          "internalType": "bytes32",
          "name": "_firstname",
          "type": "bytes32"
        },
        {
          "internalType": "bytes32",
          "name": "_lastname",
          "type": "bytes32"
        },
        {
          "internalType": "uint256",
          "name": "_role",
          "type": "uint256"
        },
        {
          "internalType": "address",
          "name": "_walletAddress",
          "type": "address"
        }
      ],
      "name": "registerUser",
      "outputs": [],
      "stateMutability": "nonpayable",
      "type": "function"
    },
    {
      "inputs": [
        {
          "internalType": "uint256",
          "name": "",
          "type": "uint256"
        }
      ],
      "name": "requests",
      "outputs": [
        {
          "internalType": "uint256",
          "name": "_index",
          "type": "uint256"
        },
        {
          "internalType": "uint256",
          "name": "_indexProjectRequest",
          "type": "uint256"
        },
        {
          "internalType": "bytes32",
          "name": "_title",
          "type": "bytes32"
        },
        {
          "internalType": "enum SharedChain.RequestStatus",
          "name": "_requestStatus",
          "type": "uint8"
        },
        {
          "internalType": "enum SharedChain.ProjectStatus",
          "name": "_projectStatus",
          "type": "uint8"
        },
        {
          "internalType": "address",
          "name": "_projectAddress",
          "type": "address"
        },
        {
          "internalType": "address",
          "name": "_userAddress",
          "type": "address"
        }
      ],
      "stateMutability": "view",
      "type": "function",
      "constant": true
    },
    {
      "inputs": [],
      "name": "requestsCounter",
      "outputs": [
        {
          "internalType": "uint256",
          "name": "",
          "type": "uint256"
        }
      ],
      "stateMutability": "view",
      "type": "function",
      "constant": true
    },
    {
      "inputs": [
        {
          "internalType": "address",
          "name": "",
          "type": "address"
        }
      ],
      "name": "users",
      "outputs": [
        {
          "internalType": "uint256",
          "name": "_index",
          "type": "uint256"
        },
        {
          "internalType": "string",
          "name": "_username",
          "type": "string"
        },
        {
          "internalType": "bytes32",
          "name": "_email",
          "type": "bytes32"
        },
        {
          "internalType": "bytes32",
          "name": "_firstname",
          "type": "bytes32"
        },
        {
          "internalType": "bytes32",
          "name": "_lastname",
          "type": "bytes32"
        },
        {
          "internalType": "enum UserChain.Roles",
          "name": "_role",
          "type": "uint8"
        },
        {
          "internalType": "address",
          "name": "_walletAddress",
          "type": "address"
        }
      ],
      "stateMutability": "view",
      "type": "function",
      "constant": true
    },
    {
      "inputs": [],
      "name": "usersCounter",
      "outputs": [
        {
          "internalType": "uint256",
          "name": "",
          "type": "uint256"
        }
      ],
      "stateMutability": "view",
      "type": "function",
      "constant": true
    },
    {
      "inputs": [
        {
          "internalType": "string",
          "name": "_text",
          "type": "string"
        },
        {
          "internalType": "uint256",
          "name": "_index",
          "type": "uint256"
        }
      ],
      "name": "createUniqueHexAddress",
      "outputs": [
        {
          "internalType": "address",
          "name": "",
          "type": "address"
        }
      ],
      "stateMutability": "view",
      "type": "function",
      "constant": true
    },
    {
      "inputs": [
        {
          "internalType": "bytes32",
          "name": "_name",
          "type": "bytes32"
        },
        {
          "internalType": "uint256",
          "name": "_status",
          "type": "uint256"
        },
        {
          "internalType": "string",
          "name": "_ipfsFileCID",
          "type": "string"
        }
      ],
      "name": "createProject",
      "outputs": [],
      "stateMutability": "nonpayable",
      "type": "function"
    },
    {
      "inputs": [
        {
          "internalType": "address",
          "name": "_address",
          "type": "address"
        }
      ],
      "name": "getProjectInfo",
      "outputs": [
        {
          "components": [
            {
              "internalType": "uint256",
              "name": "_index",
              "type": "uint256"
            },
            {
              "internalType": "bytes32",
              "name": "_name",
              "type": "bytes32"
            },
            {
              "internalType": "enum SharedChain.ProjectStatus",
              "name": "_status",
              "type": "uint8"
            },
            {
              "internalType": "string",
              "name": "_ipfsFileCID",
              "type": "string"
            },
            {
              "internalType": "address",
              "name": "_projectAddress",
              "type": "address"
            },
            {
              "internalType": "address",
              "name": "_userAddress",
              "type": "address"
            }
          ],
          "internalType": "struct SharedChain.Project",
          "name": "",
          "type": "tuple"
        }
      ],
      "stateMutability": "view",
      "type": "function",
      "constant": true
    },
    {
      "inputs": [],
      "name": "getAllProjects",
      "outputs": [
        {
          "components": [
            {
              "internalType": "uint256",
              "name": "_index",
              "type": "uint256"
            },
            {
              "internalType": "bytes32",
              "name": "_name",
              "type": "bytes32"
            },
            {
              "internalType": "enum SharedChain.ProjectStatus",
              "name": "_status",
              "type": "uint8"
            },
            {
              "internalType": "string",
              "name": "_ipfsFileCID",
              "type": "string"
            },
            {
              "internalType": "address",
              "name": "_projectAddress",
              "type": "address"
            },
            {
              "internalType": "address",
              "name": "_userAddress",
              "type": "address"
            }
          ],
          "internalType": "struct SharedChain.Project[]",
          "name": "",
          "type": "tuple[]"
        }
      ],
      "stateMutability": "view",
      "type": "function",
      "constant": true
    },
    {
      "inputs": [
        {
          "internalType": "bytes32",
          "name": "_title",
          "type": "bytes32"
        },
        {
          "internalType": "uint256",
          "name": "_status",
          "type": "uint256"
        },
        {
          "internalType": "uint256",
          "name": "_requestStatus",
          "type": "uint256"
        },
        {
          "internalType": "address",
          "name": "_projectAddress",
          "type": "address"
        }
      ],
      "name": "createProjectRequest",
      "outputs": [],
      "stateMutability": "nonpayable",
      "type": "function"
    },
    {
      "inputs": [],
      "name": "getAllProjectRequests",
      "outputs": [
        {
          "components": [
            {
              "internalType": "uint256",
              "name": "_index",
              "type": "uint256"
            },
            {
              "internalType": "bytes32",
              "name": "_title",
              "type": "bytes32"
            },
            {
              "internalType": "string",
              "name": "_comments",
              "type": "string"
            },
            {
              "internalType": "enum SharedChain.ProjectStatus",
              "name": "_status",
              "type": "uint8"
            },
            {
              "internalType": "enum SharedChain.RequestStatus",
              "name": "_requestStatus",
              "type": "uint8"
            },
            {
              "internalType": "address",
              "name": "_projectAddress",
              "type": "address"
            },
            {
              "internalType": "address",
              "name": "_userAddress",
              "type": "address"
            }
          ],
          "internalType": "struct SharedChain.ProjectRequest[]",
          "name": "",
          "type": "tuple[]"
        }
      ],
      "stateMutability": "view",
      "type": "function",
      "constant": true
    },
    {
      "inputs": [
        {
          "internalType": "uint256",
          "name": "_index",
          "type": "uint256"
        },
        {
          "internalType": "string",
          "name": "_comments",
          "type": "string"
        },
        {
          "internalType": "uint256",
          "name": "_requestStatus",
          "type": "uint256"
        },
        {
          "internalType": "uint256",
          "name": "_indexProjectRequest",
          "type": "uint256"
        }
      ],
      "name": "updateRequest",
      "outputs": [],
      "stateMutability": "nonpayable",
      "type": "function"
    },
    {
      "inputs": [],
      "name": "getAllRequests",
      "outputs": [
        {
          "components": [
            {
              "internalType": "uint256",
              "name": "_index",
              "type": "uint256"
            },
            {
              "internalType": "uint256",
              "name": "_indexProjectRequest",
              "type": "uint256"
            },
            {
              "internalType": "bytes32",
              "name": "_title",
              "type": "bytes32"
            },
            {
              "internalType": "enum SharedChain.RequestStatus",
              "name": "_requestStatus",
              "type": "uint8"
            },
            {
              "internalType": "enum SharedChain.ProjectStatus",
              "name": "_projectStatus",
              "type": "uint8"
            },
            {
              "internalType": "address",
              "name": "_projectAddress",
              "type": "address"
            },
            {
              "internalType": "address",
              "name": "_userAddress",
              "type": "address"
            }
          ],
          "internalType": "struct SharedChain.Request[]",
          "name": "",
          "type": "tuple[]"
        }
      ],
      "stateMutability": "view",
      "type": "function",
      "constant": true
    }
  ],
  "bytecode": "0x60806040526000600355600060065560006009556000600c5534801561002457600080fd5b50336000806101000a81548173ffffffffffffffffffffffffffffffffffffffff021916908373ffffffffffffffffffffffffffffffffffffffff16021790555033600460006101000a81548173ffffffffffffffffffffffffffffffffffffffff021916908373ffffffffffffffffffffffffffffffffffffffff160217905550614765806100b56000396000f3fe608060405234801561001057600080fd5b50600436106101735760003560e01c80639bf4ec2f116100de578063cc1ee4db11610097578063e2842d7911610071578063e2842d79146104da578063e9fcdf10146104f8578063fb1a002a14610514578063fe360ea51461053257610173565b8063cc1ee4db14610482578063cf13f5d4146104a0578063d67b1b99146104bc57610173565b80639bf4ec2f146103725780639d0191ac146103a8578063a2bdedf4146103c4578063a87430ba146103fa578063af1b7f4914610430578063c19ded131461044c57610173565b806380d038291161013057806380d038291461027f57806381d12c581461029d578063840e78fd146102d357806384afb5bb146103085780638da5cb5b14610338578063910097861461035657610173565b8063400003db1461017857806347ee45b91461019657806353b3194c146101c65780636386c1c7146101fb578063663c22691461022b5780637e57118814610249575b600080fd5b610180610550565b60405161018d91906134c6565b60405180910390f35b6101b060048036038101906101ab9190613528565b610777565b6040516101bd91906135de565b60405180910390f35b6101e060048036038101906101db919061362c565b61095d565b6040516101f2969594939291906136df565b60405180910390f35b61021560048036038101906102109190613528565b610a7e565b604051610222919061382b565b60405180910390f35b610233610c22565b604051610240919061384d565b60405180910390f35b610263600480360381019061025e919061362c565b610c28565b6040516102769796959493929190613877565b60405180910390f35b610287610d5c565b6040516102949190613a38565b60405180910390f35b6102b760048036038101906102b2919061362c565b610f48565b6040516102ca9796959493929190613a5a565b60405180910390f35b6102ed60048036038101906102e89190613528565b610fe4565b6040516102ff969594939291906136df565b60405180910390f35b610322600480360381019061031d9190613bfe565b6110f5565b60405161032f9190613c5a565b60405180910390f35b61034061114f565b60405161034d9190613c5a565b60405180910390f35b610370600480360381019061036b9190613c75565b611173565b005b61038c6004803603810190610387919061362c565b61142e565b60405161039f9796959493929190613a5a565b60405180910390f35b6103c260048036038101906103bd9190613cb5565b6114da565b005b6103de60048036038101906103d9919061362c565b61162c565b6040516103f19796959493929190613d47565b60405180910390f35b610414600480360381019061040f9190613528565b611733565b6040516104279796959493929190613d47565b60405180910390f35b61044a60048036038101906104459190613de9565b61182a565b005b6104666004803603810190610461919061362c565b611d4a565b6040516104799796959493929190613877565b60405180910390f35b61048a611e6e565b604051610497919061384d565b60405180910390f35b6104ba60048036038101906104b59190613e58565b611e74565b005b6104c4612379565b6040516104d1919061384d565b60405180910390f35b6104e261237f565b6040516104ef919061405f565b60405180910390f35b610512600480360381019061050d9190614081565b612529565b005b61051c6129f3565b6040516105299190614225565b60405180910390f35b61053a612b92565b604051610547919061384d565b60405180910390f35b6060600a805480602002602001604051908101604052809291908181526020016000905b8282101561076e57838290600052602060002090600502016040518060e001604052908160008201548152602001600182015481526020016002820180546105bb90614276565b80601f01602080910402602001604051908101604052809291908181526020018280546105e790614276565b80156106345780601f1061060957610100808354040283529160200191610634565b820191906000526020600020905b81548152906001019060200180831161061757829003601f168201915b505050505081526020016003820160009054906101000a900460ff16600481111561066257610661613294565b5b600481111561067457610673613294565b5b81526020016003820160019054906101000a900460ff16600281111561069d5761069c613294565b5b60028111156106af576106ae613294565b5b81526020016003820160029054906101000a900473ffffffffffffffffffffffffffffffffffffffff1673ffffffffffffffffffffffffffffffffffffffff1673ffffffffffffffffffffffffffffffffffffffff1681526020016004820160009054906101000a900473ffffffffffffffffffffffffffffffffffffffff1673ffffffffffffffffffffffffffffffffffffffff1673ffffffffffffffffffffffffffffffffffffffff168152505081526020019060010190610574565b50505050905090565b61077f613015565b600560008373ffffffffffffffffffffffffffffffffffffffff1673ffffffffffffffffffffffffffffffffffffffff1681526020019081526020016000206040518060c001604052908160008201548152602001600182015481526020016002820160009054906101000a900460ff16600481111561080257610801613294565b5b600481111561081457610813613294565b5b815260200160038201805461082890614276565b80601f016020809104026020016040519081016040528092919081815260200182805461085490614276565b80156108a15780601f10610876576101008083540402835291602001916108a1565b820191906000526020600020905b81548152906001019060200180831161088457829003601f168201915b505050505081526020016004820160009054906101000a900473ffffffffffffffffffffffffffffffffffffffff1673ffffffffffffffffffffffffffffffffffffffff1673ffffffffffffffffffffffffffffffffffffffff1681526020016005820160009054906101000a900473ffffffffffffffffffffffffffffffffffffffff1673ffffffffffffffffffffffffffffffffffffffff1673ffffffffffffffffffffffffffffffffffffffff16815250509050919050565b6007818154811061096d57600080fd5b90600052602060002090600602016000915090508060000154908060010154908060020160009054906101000a900460ff16908060030180546109af90614276565b80601f01602080910402602001604051908101604052809291908181526020018280546109db90614276565b8015610a285780601f106109fd57610100808354040283529160200191610a28565b820191906000526020600020905b815481529060010190602001808311610a0b57829003601f168201915b5050505050908060040160009054906101000a900473ffffffffffffffffffffffffffffffffffffffff16908060050160009054906101000a900473ffffffffffffffffffffffffffffffffffffffff16905086565b610a8661308c565b600160008373ffffffffffffffffffffffffffffffffffffffff1673ffffffffffffffffffffffffffffffffffffffff1681526020019081526020016000206040518060e001604052908160008201548152602001600182018054610aea90614276565b80601f0160208091040260200160405190810160405280929190818152602001828054610b1690614276565b8015610b635780601f10610b3857610100808354040283529160200191610b63565b820191906000526020600020905b815481529060010190602001808311610b4657829003601f168201915b505050505081526020016002820154815260200160038201548152602001600482015481526020016005820160009054906101000a900460ff166003811115610baf57610bae613294565b5b6003811115610bc157610bc0613294565b5b81526020016005820160019054906101000a900473ffffffffffffffffffffffffffffffffffffffff1673ffffffffffffffffffffffffffffffffffffffff1673ffffffffffffffffffffffffffffffffffffffff16815250509050919050565b600c5481565b600a8181548110610c3857600080fd5b9060005260206000209060050201600091509050806000015490806001015490806002018054610c6790614276565b80601f0160208091040260200160405190810160405280929190818152602001828054610c9390614276565b8015610ce05780601f10610cb557610100808354040283529160200191610ce0565b820191906000526020600020905b815481529060010190602001808311610cc357829003601f168201915b5050505050908060030160009054906101000a900460ff16908060030160019054906101000a900460ff16908060030160029054906101000a900473ffffffffffffffffffffffffffffffffffffffff16908060040160009054906101000a900473ffffffffffffffffffffffffffffffffffffffff16905087565b60606007805480602002602001604051908101604052809291908181526020016000905b82821015610f3f57838290600052602060002090600602016040518060c001604052908160008201548152602001600182015481526020016002820160009054906101000a900460ff166004811115610ddc57610ddb613294565b5b6004811115610dee57610ded613294565b5b8152602001600382018054610e0290614276565b80601f0160208091040260200160405190810160405280929190818152602001828054610e2e90614276565b8015610e7b5780601f10610e5057610100808354040283529160200191610e7b565b820191906000526020600020905b815481529060010190602001808311610e5e57829003601f168201915b505050505081526020016004820160009054906101000a900473ffffffffffffffffffffffffffffffffffffffff1673ffffffffffffffffffffffffffffffffffffffff1673ffffffffffffffffffffffffffffffffffffffff1681526020016005820160009054906101000a900473ffffffffffffffffffffffffffffffffffffffff1673ffffffffffffffffffffffffffffffffffffffff1673ffffffffffffffffffffffffffffffffffffffff168152505081526020019060010190610d80565b50505050905090565b600b6020528060005260406000206000915090508060000154908060010154908060020154908060030160009054906101000a900460ff16908060030160019054906101000a900460ff16908060030160029054906101000a900473ffffffffffffffffffffffffffffffffffffffff16908060040160009054906101000a900473ffffffffffffffffffffffffffffffffffffffff16905087565b60056020528060005260406000206000915090508060000154908060010154908060020160009054906101000a900460ff169080600301805461102690614276565b80601f016020809104026020016040519081016040528092919081815260200182805461105290614276565b801561109f5780601f106110745761010080835404028352916020019161109f565b820191906000526020600020905b81548152906001019060200180831161108257829003601f168201915b5050505050908060040160009054906101000a900473ffffffffffffffffffffffffffffffffffffffff16908060050160009054906101000a900473ffffffffffffffffffffffffffffffffffffffff16905086565b600082600460009054906101000a900473ffffffffffffffffffffffffffffffffffffffff168360405160200161112e9392919061434d565b6040516020818303038152906040528051906020012060001c905092915050565b60008054906101000a900473ffffffffffffffffffffffffffffffffffffffff1681565b81600381111561118657611185613294565b5b600160008373ffffffffffffffffffffffffffffffffffffffff1673ffffffffffffffffffffffffffffffffffffffff16815260200190815260200160002060050160006101000a81548160ff021916908360038111156111ea576111e9613294565b5b02179055506000600160008373ffffffffffffffffffffffffffffffffffffffff1673ffffffffffffffffffffffffffffffffffffffff16815260200190815260200160002060000154905082600381111561124957611248613294565b5b6002828154811061125d5761125c614386565b5b906000526020600020906006020160050160006101000a81548160ff021916908360038111156112905761128f613294565b5b02179055508260038111156112a8576112a7613294565b5b60038111156112ba576112b9613294565b5b600160008473ffffffffffffffffffffffffffffffffffffffff1673ffffffffffffffffffffffffffffffffffffffff1681526020019081526020016000206001016040516113099190614449565b60405180910390208373ffffffffffffffffffffffffffffffffffffffff167f2a5f7967c96cddc740f1a8ce989263f3f3c239229941ff452b1b77f79e6a6d7d600160008773ffffffffffffffffffffffffffffffffffffffff1673ffffffffffffffffffffffffffffffffffffffff16815260200190815260200160002060020154600160008873ffffffffffffffffffffffffffffffffffffffff1673ffffffffffffffffffffffffffffffffffffffff16815260200190815260200160002060030154600160008973ffffffffffffffffffffffffffffffffffffffff1673ffffffffffffffffffffffffffffffffffffffff1681526020019081526020016000206004015460405161142193929190614460565b60405180910390a4505050565b600d818154811061143e57600080fd5b90600052602060002090600502016000915090508060000154908060010154908060020154908060030160009054906101000a900460ff16908060030160019054906101000a900460ff16908060030160029054906101000a900473ffffffffffffffffffffffffffffffffffffffff16908060040160009054906101000a900473ffffffffffffffffffffffffffffffffffffffff16905087565b8160028111156114ed576114ec613294565b5b600b600086815260200190815260200160002060030160006101000a81548160ff0219169083600281111561152557611524613294565b5b02179055506000600b600086815260200190815260200160002060000154905082600281111561155857611557613294565b5b600d828154811061156c5761156b614386565b5b906000526020600020906005020160030160006101000a81548160ff0219169083600281111561159f5761159e613294565b5b0217905550836008600084815260200190815260200160002060020190805190602001906115ce9291906130fa565b5060006008600084815260200190815260200160002060000154905084600a82815481106115ff576115fe614386565b5b906000526020600020906005020160020190805190602001906116239291906130fa565b50505050505050565b6002818154811061163c57600080fd5b906000526020600020906006020160009150905080600001549080600101805461166590614276565b80601f016020809104026020016040519081016040528092919081815260200182805461169190614276565b80156116de5780601f106116b3576101008083540402835291602001916116de565b820191906000526020600020905b8154815290600101906020018083116116c157829003601f168201915b5050505050908060020154908060030154908060040154908060050160009054906101000a900460ff16908060050160019054906101000a900473ffffffffffffffffffffffffffffffffffffffff16905087565b600160205280600052604060002060009150905080600001549080600101805461175c90614276565b80601f016020809104026020016040519081016040528092919081815260200182805461178890614276565b80156117d55780601f106117aa576101008083540402835291602001916117d5565b820191906000526020600020905b8154815290600101906020018083116117b857829003601f168201915b5050505050908060020154908060030154908060040154908060050160009054906101000a900460ff16908060050160019054906101000a900473ffffffffffffffffffffffffffffffffffffffff16905087565b600061186d6040518060400160405280601a81526020017f6373643f534073616c61733b646c413233345f442e3b735f61730000000000008152506006546110f5565b9050600654600560008373ffffffffffffffffffffffffffffffffffffffff1673ffffffffffffffffffffffffffffffffffffffff1681526020019081526020016000206000018190555083600560008373ffffffffffffffffffffffffffffffffffffffff1673ffffffffffffffffffffffffffffffffffffffff1681526020019081526020016000206001018190555082600481111561191257611911613294565b5b600560008373ffffffffffffffffffffffffffffffffffffffff1673ffffffffffffffffffffffffffffffffffffffff16815260200190815260200160002060020160006101000a81548160ff0219169083600481111561197657611975613294565b5b021790555081600560008373ffffffffffffffffffffffffffffffffffffffff1673ffffffffffffffffffffffffffffffffffffffff16815260200190815260200160002060030190805190602001906119d19291906130fa565b5080600560008373ffffffffffffffffffffffffffffffffffffffff1673ffffffffffffffffffffffffffffffffffffffff16815260200190815260200160002060040160006101000a81548173ffffffffffffffffffffffffffffffffffffffff021916908373ffffffffffffffffffffffffffffffffffffffff160217905550600460009054906101000a900473ffffffffffffffffffffffffffffffffffffffff16600560008373ffffffffffffffffffffffffffffffffffffffff1673ffffffffffffffffffffffffffffffffffffffff16815260200190815260200160002060050160006101000a81548173ffffffffffffffffffffffffffffffffffffffff021916908373ffffffffffffffffffffffffffffffffffffffff1602179055507fb4d7cf766344f0dab6a272ab11f55b042f020c99154e4e44f886d87c15a2966960065485856004811115611b2e57611b2d613294565b5b8585600460009054906101000a900473ffffffffffffffffffffffffffffffffffffffff1642604051611b679796959493929190614497565b60405180910390a160076040518060c001604052806006548152602001868152602001856004811115611b9d57611b9c613294565b5b6004811115611baf57611bae613294565b5b81526020018481526020018373ffffffffffffffffffffffffffffffffffffffff168152602001600460009054906101000a900473ffffffffffffffffffffffffffffffffffffffff1673ffffffffffffffffffffffffffffffffffffffff168152509080600181540180825580915050600190039060005260206000209060060201600090919091909150600082015181600001556020820151816001015560408201518160020160006101000a81548160ff02191690836004811115611c7a57611c79613294565b5b02179055506060820151816003019080519060200190611c9b9291906130fa565b5060808201518160040160006101000a81548173ffffffffffffffffffffffffffffffffffffffff021916908373ffffffffffffffffffffffffffffffffffffffff16021790555060a08201518160050160006101000a81548173ffffffffffffffffffffffffffffffffffffffff021916908373ffffffffffffffffffffffffffffffffffffffff160217905550505060066000815480929190611d3f9061453c565b919050555050505050565b6008602052806000526040600020600091509050806000015490806001015490806002018054611d7990614276565b80601f0160208091040260200160405190810160405280929190818152602001828054611da590614276565b8015611df25780601f10611dc757610100808354040283529160200191611df2565b820191906000526020600020905b815481529060010190602001808311611dd557829003601f168201915b5050505050908060030160009054906101000a900460ff16908060030160019054906101000a900460ff16908060030160029054906101000a900473ffffffffffffffffffffffffffffffffffffffff16908060040160009054906101000a900473ffffffffffffffffffffffffffffffffffffffff16905087565b60095481565b3373ffffffffffffffffffffffffffffffffffffffff1660008054906101000a900473ffffffffffffffffffffffffffffffffffffffff1673ffffffffffffffffffffffffffffffffffffffff1614611f02576040517f08c379a0000000000000000000000000000000000000000000000000000000008152600401611ef9906145d1565b60405180910390fd5b600354600160008373ffffffffffffffffffffffffffffffffffffffff1673ffffffffffffffffffffffffffffffffffffffff1681526020019081526020016000206000018190555085600160008373ffffffffffffffffffffffffffffffffffffffff1673ffffffffffffffffffffffffffffffffffffffff1681526020019081526020016000206001019080519060200190611fa19291906130fa565b5084600160008373ffffffffffffffffffffffffffffffffffffffff1673ffffffffffffffffffffffffffffffffffffffff1681526020019081526020016000206002018190555083600160008373ffffffffffffffffffffffffffffffffffffffff1673ffffffffffffffffffffffffffffffffffffffff1681526020019081526020016000206003018190555082600160008373ffffffffffffffffffffffffffffffffffffffff1673ffffffffffffffffffffffffffffffffffffffff1681526020019081526020016000206004018190555081600381111561208a57612089613294565b5b600160008373ffffffffffffffffffffffffffffffffffffffff1673ffffffffffffffffffffffffffffffffffffffff16815260200190815260200160002060050160006101000a81548160ff021916908360038111156120ee576120ed613294565b5b021790555080600160008373ffffffffffffffffffffffffffffffffffffffff1673ffffffffffffffffffffffffffffffffffffffff16815260200190815260200160002060050160016101000a81548173ffffffffffffffffffffffffffffffffffffffff021916908373ffffffffffffffffffffffffffffffffffffffff16021790555081600381111561218757612186613294565b5b600381111561219957612198613294565b5b866040516121a791906145f1565b60405180910390208273ffffffffffffffffffffffffffffffffffffffff167f2a5f7967c96cddc740f1a8ce989263f3f3c239229941ff452b1b77f79e6a6d7d8888886040516121f993929190614460565b60405180910390a460026040518060e00160405280600354815260200188815260200187815260200186815260200185815260200184600381111561224157612240613294565b5b600381111561225357612252613294565b5b81526020018373ffffffffffffffffffffffffffffffffffffffff1681525090806001815401808255809150506001900390600052602060002090600602016000909190919091506000820151816000015560208201518160010190805190602001906122c19291906130fa565b5060408201518160020155606082015181600301556080820151816004015560a08201518160050160006101000a81548160ff0219169083600381111561230b5761230a613294565b5b021790555060c08201518160050160016101000a81548173ffffffffffffffffffffffffffffffffffffffff021916908373ffffffffffffffffffffffffffffffffffffffff16021790555050506003600081548092919061236c9061453c565b9190505550505050505050565b60035481565b60606002805480602002602001604051908101604052809291908181526020016000905b8282101561252057838290600052602060002090600602016040518060e0016040529081600082015481526020016001820180546123e090614276565b80601f016020809104026020016040519081016040528092919081815260200182805461240c90614276565b80156124595780601f1061242e57610100808354040283529160200191612459565b820191906000526020600020905b81548152906001019060200180831161243c57829003601f168201915b505050505081526020016002820154815260200160038201548152602001600482015481526020016005820160009054906101000a900460ff1660038111156124a5576124a4613294565b5b60038111156124b7576124b6613294565b5b81526020016005820160019054906101000a900473ffffffffffffffffffffffffffffffffffffffff1673ffffffffffffffffffffffffffffffffffffffff1673ffffffffffffffffffffffffffffffffffffffff1681525050815260200190600101906123a3565b50505050905090565b6009546008600060095481526020019081526020016000206000018190555083600860006009548152602001908152602001600020600101819055506040518060200160405280600081525060086000600954815260200190815260200160002060020190805190602001906125a09291906130fa565b508260048111156125b4576125b3613294565b5b60086000600954815260200190815260200160002060030160006101000a81548160ff021916908360048111156125ee576125ed613294565b5b021790555081600281111561260657612605613294565b5b60086000600954815260200190815260200160002060030160016101000a81548160ff021916908360028111156126405761263f613294565b5b02179055508060086000600954815260200190815260200160002060030160026101000a81548173ffffffffffffffffffffffffffffffffffffffff021916908373ffffffffffffffffffffffffffffffffffffffff160217905550600460009054906101000a900473ffffffffffffffffffffffffffffffffffffffff1660086000600954815260200190815260200160002060040160006101000a81548173ffffffffffffffffffffffffffffffffffffffff021916908373ffffffffffffffffffffffffffffffffffffffff16021790555061272460095485858585612b98565b7f87be34239a6efbc76467dfcce1a731d31788afcf9f57c4d8dc9fc04fe87110136009548585600481111561275c5761275b613294565b5b85600281111561276f5761276e613294565b5b85600460009054906101000a900473ffffffffffffffffffffffffffffffffffffffff16426040516127a7979695949392919061462e565b60405180910390a1600a6040518060e0016040528060095481526020018681526020016040518060200160405280600081525081526020018560048111156127f2576127f1613294565b5b600481111561280457612803613294565b5b815260200184600281111561281c5761281b613294565b5b600281111561282e5761282d613294565b5b81526020018373ffffffffffffffffffffffffffffffffffffffff168152602001600460009054906101000a900473ffffffffffffffffffffffffffffffffffffffff1673ffffffffffffffffffffffffffffffffffffffff168152509080600181540180825580915050600190039060005260206000209060050201600090919091909150600082015181600001556020820151816001015560408201518160020190805190602001906128e49291906130fa565b5060608201518160030160006101000a81548160ff021916908360048111156129105761290f613294565b5b021790555060808201518160030160016101000a81548160ff021916908360028111156129405761293f613294565b5b021790555060a08201518160030160026101000a81548173ffffffffffffffffffffffffffffffffffffffff021916908373ffffffffffffffffffffffffffffffffffffffff16021790555060c08201518160040160006101000a81548173ffffffffffffffffffffffffffffffffffffffff021916908373ffffffffffffffffffffffffffffffffffffffff1602179055505050600960008154809291906129e89061453c565b919050555050505050565b6060600d805480602002602001604051908101604052809291908181526020016000905b82821015612b8957838290600052602060002090600502016040518060e00160405290816000820154815260200160018201548152602001600282015481526020016003820160009054906101000a900460ff166002811115612a7d57612a7c613294565b5b6002811115612a8f57612a8e613294565b5b81526020016003820160019054906101000a900460ff166004811115612ab857612ab7613294565b5b6004811115612aca57612ac9613294565b5b81526020016003820160029054906101000a900473ffffffffffffffffffffffffffffffffffffffff1673ffffffffffffffffffffffffffffffffffffffff1673ffffffffffffffffffffffffffffffffffffffff1681526020016004820160009054906101000a900473ffffffffffffffffffffffffffffffffffffffff1673ffffffffffffffffffffffffffffffffffffffff1673ffffffffffffffffffffffffffffffffffffffff168152505081526020019060010190612a17565b50505050905090565b60065481565b600c54600b6000600c5481526020019081526020016000206000018190555084600b6000600c5481526020019081526020016000206001018190555083600b6000600c54815260200190815260200160002060020181905550816002811115612c0457612c03613294565b5b600b6000600c54815260200190815260200160002060030160006101000a81548160ff02191690836002811115612c3e57612c3d613294565b5b0217905550826004811115612c5657612c55613294565b5b600b6000600c54815260200190815260200160002060030160016101000a81548160ff02191690836004811115612c9057612c8f613294565b5b021790555080600b6000600c54815260200190815260200160002060030160026101000a81548173ffffffffffffffffffffffffffffffffffffffff021916908373ffffffffffffffffffffffffffffffffffffffff160217905550600460009054906101000a900473ffffffffffffffffffffffffffffffffffffffff16600b6000600c54815260200190815260200160002060040160006101000a81548173ffffffffffffffffffffffffffffffffffffffff021916908373ffffffffffffffffffffffffffffffffffffffff1602179055507f8a6c739ec80f6f13f935cf1dd056e71d977c52333311dae0657330264994277a600c548686856002811115612d9e57612d9d613294565b5b876004811115612db157612db0613294565b5b86600460009054906101000a900473ffffffffffffffffffffffffffffffffffffffff1642604051612dea9897969594939291906146b1565b60405180910390a1600d6040518060e00160405280600c548152602001878152602001868152602001846002811115612e2657612e25613294565b5b6002811115612e3857612e37613294565b5b8152602001856004811115612e5057612e4f613294565b5b6004811115612e6257612e61613294565b5b81526020018373ffffffffffffffffffffffffffffffffffffffff168152602001600460009054906101000a900473ffffffffffffffffffffffffffffffffffffffff1673ffffffffffffffffffffffffffffffffffffffff16815250908060018154018082558091505060019003906000526020600020906005020160009091909190915060008201518160000155602082015181600101556040820151816002015560608201518160030160006101000a81548160ff02191690836002811115612f3157612f30613294565b5b021790555060808201518160030160016101000a81548160ff02191690836004811115612f6157612f60613294565b5b021790555060a08201518160030160026101000a81548173ffffffffffffffffffffffffffffffffffffffff021916908373ffffffffffffffffffffffffffffffffffffffff16021790555060c08201518160040160006101000a81548173ffffffffffffffffffffffffffffffffffffffff021916908373ffffffffffffffffffffffffffffffffffffffff1602179055505050600c60008154809291906130099061453c565b91905055505050505050565b6040518060c0016040528060008152602001600080191681526020016000600481111561304557613044613294565b5b815260200160608152602001600073ffffffffffffffffffffffffffffffffffffffff168152602001600073ffffffffffffffffffffffffffffffffffffffff1681525090565b6040518060e001604052806000815260200160608152602001600080191681526020016000801916815260200160008019168152602001600060038111156130d7576130d6613294565b5b8152602001600073ffffffffffffffffffffffffffffffffffffffff1681525090565b82805461310690614276565b90600052602060002090601f016020900481019282613128576000855561316f565b82601f1061314157805160ff191683800117855561316f565b8280016001018555821561316f579182015b8281111561316e578251825591602001919060010190613153565b5b50905061317c9190613180565b5090565b5b80821115613199576000816000905550600101613181565b5090565b600081519050919050565b600082825260208201905092915050565b6000819050602082019050919050565b6000819050919050565b6131dc816131c9565b82525050565b6000819050919050565b6131f5816131e2565b82525050565b600081519050919050565b600082825260208201905092915050565b60005b8381101561323557808201518184015260208101905061321a565b83811115613244576000848401525b50505050565b6000601f19601f8301169050919050565b6000613266826131fb565b6132708185613206565b9350613280818560208601613217565b6132898161324a565b840191505092915050565b7f4e487b7100000000000000000000000000000000000000000000000000000000600052602160045260246000fd5b600581106132d4576132d3613294565b5b50565b60008190506132e5826132c3565b919050565b60006132f5826132d7565b9050919050565b613305816132ea565b82525050565b6003811061331c5761331b613294565b5b50565b600081905061332d8261330b565b919050565b600061333d8261331f565b9050919050565b61334d81613332565b82525050565b600073ffffffffffffffffffffffffffffffffffffffff82169050919050565b600061337e82613353565b9050919050565b61338e81613373565b82525050565b600060e0830160008301516133ac60008601826131d3565b5060208301516133bf60208601826131ec565b50604083015184820360408601526133d7828261325b565b91505060608301516133ec60608601826132fc565b5060808301516133ff6080860182613344565b5060a083015161341260a0860182613385565b5060c083015161342560c0860182613385565b508091505092915050565b600061343c8383613394565b905092915050565b6000602082019050919050565b600061345c8261319d565b61346681856131a8565b935083602082028501613478856131b9565b8060005b858110156134b457848403895281516134958582613430565b94506134a083613444565b925060208a0199505060018101905061347c565b50829750879550505050505092915050565b600060208201905081810360008301526134e08184613451565b905092915050565b6000604051905090565b600080fd5b600080fd5b61350581613373565b811461351057600080fd5b50565b600081359050613522816134fc565b92915050565b60006020828403121561353e5761353d6134f2565b5b600061354c84828501613513565b91505092915050565b600060c08301600083015161356d60008601826131d3565b50602083015161358060208601826131ec565b50604083015161359360408601826132fc565b50606083015184820360608601526135ab828261325b565b91505060808301516135c06080860182613385565b5060a08301516135d360a0860182613385565b508091505092915050565b600060208201905081810360008301526135f88184613555565b905092915050565b613609816131c9565b811461361457600080fd5b50565b60008135905061362681613600565b92915050565b600060208284031215613642576136416134f2565b5b600061365084828501613617565b91505092915050565b613662816131c9565b82525050565b613671816131e2565b82525050565b613680816132ea565b82525050565b600082825260208201905092915050565b60006136a2826131fb565b6136ac8185613686565b93506136bc818560208601613217565b6136c58161324a565b840191505092915050565b6136d981613373565b82525050565b600060c0820190506136f46000830189613659565b6137016020830188613668565b61370e6040830187613677565b81810360608301526137208186613697565b905061372f60808301856136d0565b61373c60a08301846136d0565b979650505050505050565b6004811061375857613757613294565b5b50565b600081905061376982613747565b919050565b60006137798261375b565b9050919050565b6137898161376e565b82525050565b600060e0830160008301516137a760008601826131d3565b50602083015184820360208601526137bf828261325b565b91505060408301516137d460408601826131ec565b5060608301516137e760608601826131ec565b5060808301516137fa60808601826131ec565b5060a083015161380d60a0860182613780565b5060c083015161382060c0860182613385565b508091505092915050565b60006020820190508181036000830152613845818461378f565b905092915050565b60006020820190506138626000830184613659565b92915050565b61387181613332565b82525050565b600060e08201905061388c600083018a613659565b6138996020830189613668565b81810360408301526138ab8188613697565b90506138ba6060830187613677565b6138c76080830186613868565b6138d460a08301856136d0565b6138e160c08301846136d0565b98975050505050505050565b600081519050919050565b600082825260208201905092915050565b6000819050602082019050919050565b600060c08301600083015161393160008601826131d3565b50602083015161394460208601826131ec565b50604083015161395760408601826132fc565b506060830151848203606086015261396f828261325b565b91505060808301516139846080860182613385565b5060a083015161399760a0860182613385565b508091505092915050565b60006139ae8383613919565b905092915050565b6000602082019050919050565b60006139ce826138ed565b6139d881856138f8565b9350836020820285016139ea85613909565b8060005b85811015613a265784840389528151613a0785826139a2565b9450613a12836139b6565b925060208a019950506001810190506139ee565b50829750879550505050505092915050565b60006020820190508181036000830152613a5281846139c3565b905092915050565b600060e082019050613a6f600083018a613659565b613a7c6020830189613659565b613a896040830188613668565b613a966060830187613868565b613aa36080830186613677565b613ab060a08301856136d0565b613abd60c08301846136d0565b98975050505050505050565b600080fd5b600080fd5b7f4e487b7100000000000000000000000000000000000000000000000000000000600052604160045260246000fd5b613b0b8261324a565b810181811067ffffffffffffffff82111715613b2a57613b29613ad3565b5b80604052505050565b6000613b3d6134e8565b9050613b498282613b02565b919050565b600067ffffffffffffffff821115613b6957613b68613ad3565b5b613b728261324a565b9050602081019050919050565b82818337600083830152505050565b6000613ba1613b9c84613b4e565b613b33565b905082815260208101848484011115613bbd57613bbc613ace565b5b613bc8848285613b7f565b509392505050565b600082601f830112613be557613be4613ac9565b5b8135613bf5848260208601613b8e565b91505092915050565b60008060408385031215613c1557613c146134f2565b5b600083013567ffffffffffffffff811115613c3357613c326134f7565b5b613c3f85828601613bd0565b9250506020613c5085828601613617565b9150509250929050565b6000602082019050613c6f60008301846136d0565b92915050565b60008060408385031215613c8c57613c8b6134f2565b5b6000613c9a85828601613617565b9250506020613cab85828601613513565b9150509250929050565b60008060008060808587031215613ccf57613cce6134f2565b5b6000613cdd87828801613617565b945050602085013567ffffffffffffffff811115613cfe57613cfd6134f7565b5b613d0a87828801613bd0565b9350506040613d1b87828801613617565b9250506060613d2c87828801613617565b91505092959194509250565b613d418161376e565b82525050565b600060e082019050613d5c600083018a613659565b8181036020830152613d6e8189613697565b9050613d7d6040830188613668565b613d8a6060830187613668565b613d976080830186613668565b613da460a0830185613d38565b613db160c08301846136d0565b98975050505050505050565b613dc6816131e2565b8114613dd157600080fd5b50565b600081359050613de381613dbd565b92915050565b600080600060608486031215613e0257613e016134f2565b5b6000613e1086828701613dd4565b9350506020613e2186828701613617565b925050604084013567ffffffffffffffff811115613e4257613e416134f7565b5b613e4e86828701613bd0565b9150509250925092565b60008060008060008060c08789031215613e7557613e746134f2565b5b600087013567ffffffffffffffff811115613e9357613e926134f7565b5b613e9f89828a01613bd0565b9650506020613eb089828a01613dd4565b9550506040613ec189828a01613dd4565b9450506060613ed289828a01613dd4565b9350506080613ee389828a01613617565b92505060a0613ef489828a01613513565b9150509295509295509295565b600081519050919050565b600082825260208201905092915050565b6000819050602082019050919050565b600060e083016000830151613f4560008601826131d3565b5060208301518482036020860152613f5d828261325b565b9150506040830151613f7260408601826131ec565b506060830151613f8560608601826131ec565b506080830151613f9860808601826131ec565b5060a0830151613fab60a0860182613780565b5060c0830151613fbe60c0860182613385565b508091505092915050565b6000613fd58383613f2d565b905092915050565b6000602082019050919050565b6000613ff582613f01565b613fff8185613f0c565b93508360208202850161401185613f1d565b8060005b8581101561404d578484038952815161402e8582613fc9565b945061403983613fdd565b925060208a01995050600181019050614015565b50829750879550505050505092915050565b600060208201905081810360008301526140798184613fea565b905092915050565b6000806000806080858703121561409b5761409a6134f2565b5b60006140a987828801613dd4565b94505060206140ba87828801613617565b93505060406140cb87828801613617565b92505060606140dc87828801613513565b91505092959194509250565b600081519050919050565b600082825260208201905092915050565b6000819050602082019050919050565b60e08201600082015161412a60008501826131d3565b50602082015161413d60208501826131d3565b50604082015161415060408501826131ec565b5060608201516141636060850182613344565b50608082015161417660808501826132fc565b5060a082015161418960a0850182613385565b5060c082015161419c60c0850182613385565b50505050565b60006141ae8383614114565b60e08301905092915050565b6000602082019050919050565b60006141d2826140e8565b6141dc81856140f3565b93506141e783614104565b8060005b838110156142185781516141ff88826141a2565b975061420a836141ba565b9250506001810190506141eb565b5085935050505092915050565b6000602082019050818103600083015261423f81846141c7565b905092915050565b7f4e487b7100000000000000000000000000000000000000000000000000000000600052602260045260246000fd5b6000600282049050600182168061428e57607f821691505b602082108114156142a2576142a1614247565b5b50919050565b600081905092915050565b60006142be826131fb565b6142c881856142a8565b93506142d8818560208601613217565b80840191505092915050565b60008160601b9050919050565b60006142fc826142e4565b9050919050565b600061430e826142f1565b9050919050565b61432661432182613373565b614303565b82525050565b6000819050919050565b614347614342826131c9565b61432c565b82525050565b600061435982866142b3565b91506143658285614315565b6014820191506143758284614336565b602082019150819050949350505050565b7f4e487b7100000000000000000000000000000000000000000000000000000000600052603260045260246000fd5b60008190508160005260206000209050919050565b600081546143d781614276565b6143e181866142a8565b945060018216600081146143fc576001811461440d57614440565b60ff19831686528186019350614440565b614416856143b5565b60005b8381101561443857815481890152600182019150602081019050614419565b838801955050505b50505092915050565b600061445582846143ca565b915081905092915050565b60006060820190506144756000830186613668565b6144826020830185613668565b61448f6040830184613668565b949350505050565b600060e0820190506144ac600083018a613659565b6144b96020830189613668565b6144c66040830188613677565b81810360608301526144d88187613697565b90506144e760808301866136d0565b6144f460a08301856136d0565b61450160c0830184613659565b98975050505050505050565b7f4e487b7100000000000000000000000000000000000000000000000000000000600052601160045260246000fd5b6000614547826131c9565b91507fffffffffffffffffffffffffffffffffffffffffffffffffffffffffffffffff82141561457a5761457961450d565b5b600182019050919050565b7f596f7520617265206e6f7420616e206f776e6572000000000000000000000000600082015250565b60006145bb601483613686565b91506145c682614585565b602082019050919050565b600060208201905081810360008301526145ea816145ae565b9050919050565b60006145fd82846142b3565b915081905092915050565b50565b6000614618600083613686565b915061462382614608565b600082019050919050565b600061010082019050614644600083018a613659565b6146516020830189613668565b81810360408301526146628161460b565b90506146716060830188613677565b61467e6080830187613868565b61468b60a08301866136d0565b61469860c08301856136d0565b6146a560e0830184613659565b98975050505050505050565b6000610100820190506146c7600083018b613659565b6146d4602083018a613659565b6146e16040830189613668565b6146ee6060830188613868565b6146fb6080830187613677565b61470860a08301866136d0565b61471560c08301856136d0565b61472260e0830184613659565b999850505050505050505056fea2646970667358221220237e3d0fe01c9e2e36c4b103d09a64891ceb320391bd9acea32df35447ab445764736f6c634300080a0033",
  "immutableReferences": {},
  "source": "// SPDX-License-Identifier: MIT\r\npragma solidity >=0.8.0 <0.9.0;\r\n\r\nimport \"./UserChain.sol\";\r\nimport \"./CompanyChain.sol\";\r\nimport \"./SupervisorChain.sol\";\r\n\r\nimport \"./SharedChain.sol\";\r\n\r\n// Put constraints on the app based on role not address......\r\n\r\ncontract ProjectChain is UserChain, SharedChain {\r\n    string constant HASH_bytes32_VALUE = \"csd?S@salas;dlA234_D.;s_as\";\r\n    address _projectInitiator;\r\n\r\n    // Project Contract Data\r\n    mapping(address => Project) public projects;\r\n    uint public projectsCounter = 0;\r\n    Project[] public allProjects;\r\n\r\n    mapping(uint => ProjectRequest) public projectRequests;\r\n    uint public projectRequestsCounter = 0;\r\n    ProjectRequest[] public allProjectRequests;\r\n\r\n    constructor() {\r\n        _projectInitiator = msg.sender;\r\n    }\r\n\r\n    modifier onlyProjectInitiator {\r\n        require(users[_projectInitiator]._role == Roles.ProjectInitiator, \"You don't have the rights for this resources.\");\r\n        require(_projectInitiator == msg.sender, \"You are not a project initiator\");\r\n        _;\r\n    }\r\n\r\n    function createUniqueHexAddress(string memory _text, uint _index) public view returns (address) {\r\n        return address(uint160(uint256(keccak256(abi.encodePacked(_text, _projectInitiator, _index)))));\r\n    }\r\n\r\n    function createProject(bytes32 _name, uint _status, string memory _ipfsFileCID) public {\r\n        address _projectAddress = createUniqueHexAddress(HASH_bytes32_VALUE, projectsCounter);\r\n\r\n        projects[_projectAddress]._index = projectsCounter;\r\n        projects[_projectAddress]._name = _name;\r\n        projects[_projectAddress]._status = ProjectStatus(_status);\r\n        projects[_projectAddress]._ipfsFileCID = _ipfsFileCID;\r\n        projects[_projectAddress]._projectAddress = _projectAddress;\r\n        projects[_projectAddress]._userAddress = _projectInitiator;\r\n\r\n        emit ProjectEvent(projectsCounter, _name, ProjectStatus(_status), _ipfsFileCID, _projectAddress, _projectInitiator, block.timestamp);\r\n        allProjects.push(Project(projectsCounter, _name, ProjectStatus(_status), _ipfsFileCID, _projectAddress, _projectInitiator));\r\n        projectsCounter++;\r\n    }\r\n\r\n    function getProjectInfo(address _address) public view returns (Project memory) {\r\n        return projects[_address];\r\n    }\r\n\r\n    function getAllProjects() public view returns(Project[] memory) {\r\n        return allProjects;\r\n    }\r\n\r\n    function createProjectRequest(\r\n        bytes32 _title, uint _status,\r\n        uint _requestStatus, address _projectAddress\r\n    ) public {\r\n        projectRequests[projectRequestsCounter]._index = projectRequestsCounter;\r\n        projectRequests[projectRequestsCounter]._title = _title;\r\n        projectRequests[projectRequestsCounter]._comments = '';\r\n        projectRequests[projectRequestsCounter]._status = ProjectStatus(_status);\r\n        projectRequests[projectRequestsCounter]._requestStatus = RequestStatus(_requestStatus);\r\n        projectRequests[projectRequestsCounter]._projectAddress = _projectAddress;\r\n        projectRequests[projectRequestsCounter]._userAddress = _projectInitiator;\r\n\r\n        createRequest(projectRequestsCounter, _title, _status, _requestStatus, _projectAddress);\r\n\r\n        emit ProjectRequestEvent(projectRequestsCounter, _title, '', ProjectStatus(_status), RequestStatus(_requestStatus), _projectAddress, _projectInitiator, block.timestamp);\r\n        allProjectRequests.push(ProjectRequest(projectRequestsCounter, _title, '', ProjectStatus(_status), RequestStatus(_requestStatus), _projectAddress, _projectInitiator));\r\n        projectRequestsCounter++;\r\n    }\r\n\r\n    function getAllProjectRequests() external view returns(ProjectRequest[] memory) {\r\n        return allProjectRequests;\r\n    }\r\n\r\n    // They will be filter after the status of the requests\r\n    mapping(uint => Request) public requests;\r\n    uint public requestsCounter = 0;\r\n    Request[] public allRequests;\r\n\r\n    function createRequest(\r\n        uint _indexProjectRequest,\r\n        bytes32 _title,\r\n        uint _projectStatus,\r\n        uint _requestStatus,\r\n        address _projectAddress\r\n    ) internal {\r\n        requests[requestsCounter]._index = requestsCounter;\r\n        requests[requestsCounter]._indexProjectRequest = _indexProjectRequest;\r\n        requests[requestsCounter]._title = _title;\r\n        requests[requestsCounter]._requestStatus = RequestStatus(_requestStatus);\r\n        requests[requestsCounter]._projectStatus = ProjectStatus(_projectStatus);\r\n        requests[requestsCounter]._projectAddress = _projectAddress;\r\n        // change to supervisorAddress\r\n        requests[requestsCounter]._userAddress = _projectInitiator;\r\n\r\n        emit RequestEvent(requestsCounter, _indexProjectRequest, _title, RequestStatus(_requestStatus), ProjectStatus(_projectStatus), _projectAddress, _projectInitiator, block.timestamp);\r\n        allRequests.push(Request(requestsCounter, _indexProjectRequest, _title,  RequestStatus(_requestStatus), ProjectStatus(_projectStatus), _projectAddress, _projectInitiator));\r\n        requestsCounter++;\r\n    }\r\n\r\n    function updateRequest(uint _index, string memory _comments, uint _requestStatus, uint _indexProjectRequest) public {\r\n        requests[_index]._requestStatus = RequestStatus(_requestStatus);\r\n        uint index = requests[_index]._index;\r\n        allRequests[index]._requestStatus = RequestStatus(_requestStatus);\r\n\r\n        projectRequests[_indexProjectRequest]._comments = _comments;\r\n        uint indexProject = projectRequests[_indexProjectRequest]._index;\r\n        allProjectRequests[indexProject]._comments = _comments;\r\n    }\r\n\r\n    function getAllRequests() public view returns(Request[] memory) {\r\n        return allRequests;\r\n    }\r\n\r\n}\r\n",
  "sourcePath": "/mnt/c/users/beniamin/source/repos/dissertationproject/contracts/ProjectChain.sol",
  "compiler": {
    "name": "solc",
    "version": "0.8.10+commit.fc410830.Emscripten.clang"
  },
  "schemaVersion": "3.4.3",
  "updatedAt": "2021-11-21T16:47:50.762Z",
  "networkType": "ethereum",
  "devdoc": {
    "kind": "dev",
    "methods": {},
    "version": 1
  },
  "userdoc": {
    "kind": "user",
    "methods": {},
    "version": 1
  }
}