{
  "contractName": "ProjectChain",
  "abi": [
    {
      "inputs": [],
      "stateMutability": "nonpayable",
      "type": "constructor"
    },
    {
      "anonymous": false,
      "inputs": [
        {
          "components": [
            {
              "internalType": "uint256",
              "name": "_index",
              "type": "uint256"
            },
            {
              "internalType": "string",
              "name": "_name",
              "type": "string"
            },
            {
              "internalType": "enum SharedChain.ProjectStatus",
              "name": "_status",
              "type": "uint8"
            },
            {
              "internalType": "string",
              "name": "_ipfsFileCID",
              "type": "string"
            },
            {
              "internalType": "address",
              "name": "_projectAddress",
              "type": "address"
            },
            {
              "internalType": "address",
              "name": "_signerAddress",
              "type": "address"
            },
            {
              "internalType": "address",
              "name": "_companyAddress",
              "type": "address"
            },
            {
              "internalType": "bool",
              "name": "_assigned",
              "type": "bool"
            },
            {
              "internalType": "uint256",
              "name": "_timestamp",
              "type": "uint256"
            },
            {
              "internalType": "string",
              "name": "_signature",
              "type": "string"
            }
          ],
          "indexed": false,
          "internalType": "struct SharedChain.Project",
          "name": "_project",
          "type": "tuple"
        },
        {
          "indexed": true,
          "internalType": "address",
          "name": "_projectAddress",
          "type": "address"
        },
        {
          "indexed": true,
          "internalType": "address",
          "name": "_companyAddress",
          "type": "address"
        }
      ],
      "name": "ProjectEvent",
      "type": "event"
    },
    {
      "anonymous": false,
      "inputs": [
        {
          "components": [
            {
              "internalType": "uint256",
              "name": "_index",
              "type": "uint256"
            },
            {
              "internalType": "string",
              "name": "_title",
              "type": "string"
            },
            {
              "internalType": "string",
              "name": "_comments",
              "type": "string"
            },
            {
              "internalType": "enum SharedChain.ProjectStatus",
              "name": "_projectStatus",
              "type": "uint8"
            },
            {
              "internalType": "enum SharedChain.RequestStatus",
              "name": "_requestStatus",
              "type": "uint8"
            },
            {
              "internalType": "enum SharedChain.RequestType",
              "name": "_requestType",
              "type": "uint8"
            },
            {
              "internalType": "address",
              "name": "_projectAddress",
              "type": "address"
            },
            {
              "internalType": "address",
              "name": "_requestAddress",
              "type": "address"
            },
            {
              "internalType": "address",
              "name": "_signerAddress",
              "type": "address"
            },
            {
              "internalType": "uint256",
              "name": "_timestamp",
              "type": "uint256"
            },
            {
              "internalType": "string",
              "name": "_signature",
              "type": "string"
            }
          ],
          "indexed": false,
          "internalType": "struct SharedChain.Request",
          "name": "_request",
          "type": "tuple"
        },
        {
          "indexed": true,
          "internalType": "address",
          "name": "_requestAddress",
          "type": "address"
        },
        {
          "indexed": true,
          "internalType": "address",
          "name": "_projectAddress",
          "type": "address"
        }
      ],
      "name": "RequestEvent",
      "type": "event"
    },
    {
      "anonymous": false,
      "inputs": [
        {
          "components": [
            {
              "internalType": "bytes32",
              "name": "_firstname",
              "type": "bytes32"
            },
            {
              "internalType": "bytes32",
              "name": "_lastname",
              "type": "bytes32"
            },
            {
              "internalType": "enum SharedChain.Roles",
              "name": "_role",
              "type": "uint8"
            },
            {
              "internalType": "address",
              "name": "_walletAddress",
              "type": "address"
            },
            {
              "internalType": "uint256",
              "name": "_timestamp",
              "type": "uint256"
            }
          ],
          "indexed": false,
          "internalType": "struct SharedChain.User",
          "name": "_user",
          "type": "tuple"
        },
        {
          "indexed": true,
          "internalType": "address",
          "name": "_walletAddress",
          "type": "address"
        }
      ],
      "name": "UserEvent",
      "type": "event"
    },
    {
      "inputs": [
        {
          "internalType": "uint256",
          "name": "_role",
          "type": "uint256"
        },
        {
          "internalType": "address",
          "name": "_walletAddress",
          "type": "address"
        }
      ],
      "name": "changeUserRole",
      "outputs": [],
      "stateMutability": "nonpayable",
      "type": "function"
    },
    {
      "inputs": [],
      "name": "getAllUsers",
      "outputs": [
        {
          "components": [
            {
              "internalType": "bytes32",
              "name": "_firstname",
              "type": "bytes32"
            },
            {
              "internalType": "bytes32",
              "name": "_lastname",
              "type": "bytes32"
            },
            {
              "internalType": "enum SharedChain.Roles",
              "name": "_role",
              "type": "uint8"
            },
            {
              "internalType": "address",
              "name": "_walletAddress",
              "type": "address"
            },
            {
              "internalType": "uint256",
              "name": "_timestamp",
              "type": "uint256"
            }
          ],
          "internalType": "struct SharedChain.User[]",
          "name": "",
          "type": "tuple[]"
        }
      ],
      "stateMutability": "view",
      "type": "function",
      "constant": true
    },
    {
      "inputs": [
        {
          "internalType": "address",
          "name": "_walletAddress",
          "type": "address"
        }
      ],
      "name": "getUserInfo",
      "outputs": [
        {
          "components": [
            {
              "internalType": "bytes32",
              "name": "_firstname",
              "type": "bytes32"
            },
            {
              "internalType": "bytes32",
              "name": "_lastname",
              "type": "bytes32"
            },
            {
              "internalType": "enum SharedChain.Roles",
              "name": "_role",
              "type": "uint8"
            },
            {
              "internalType": "address",
              "name": "_walletAddress",
              "type": "address"
            },
            {
              "internalType": "uint256",
              "name": "_timestamp",
              "type": "uint256"
            }
          ],
          "internalType": "struct SharedChain.User",
          "name": "",
          "type": "tuple"
        }
      ],
      "stateMutability": "view",
      "type": "function",
      "constant": true
    },
    {
      "inputs": [
        {
          "internalType": "address",
          "name": "",
          "type": "address"
        }
      ],
      "name": "projects",
      "outputs": [
        {
          "internalType": "uint256",
          "name": "_index",
          "type": "uint256"
        },
        {
          "internalType": "string",
          "name": "_name",
          "type": "string"
        },
        {
          "internalType": "enum SharedChain.ProjectStatus",
          "name": "_status",
          "type": "uint8"
        },
        {
          "internalType": "string",
          "name": "_ipfsFileCID",
          "type": "string"
        },
        {
          "internalType": "address",
          "name": "_projectAddress",
          "type": "address"
        },
        {
          "internalType": "address",
          "name": "_signerAddress",
          "type": "address"
        },
        {
          "internalType": "address",
          "name": "_companyAddress",
          "type": "address"
        },
        {
          "internalType": "bool",
          "name": "_assigned",
          "type": "bool"
        },
        {
          "internalType": "uint256",
          "name": "_timestamp",
          "type": "uint256"
        },
        {
          "internalType": "string",
          "name": "_signature",
          "type": "string"
        }
      ],
      "stateMutability": "view",
      "type": "function",
      "constant": true
    },
    {
      "inputs": [
        {
          "internalType": "uint256",
          "name": "",
          "type": "uint256"
        }
      ],
      "name": "projectsAddress",
      "outputs": [
        {
          "internalType": "address",
          "name": "",
          "type": "address"
        }
      ],
      "stateMutability": "view",
      "type": "function",
      "constant": true
    },
    {
      "inputs": [],
      "name": "projectsCounter",
      "outputs": [
        {
          "internalType": "uint256",
          "name": "",
          "type": "uint256"
        }
      ],
      "stateMutability": "view",
      "type": "function",
      "constant": true
    },
    {
      "inputs": [
        {
          "internalType": "bytes32",
          "name": "_firstname",
          "type": "bytes32"
        },
        {
          "internalType": "bytes32",
          "name": "_lastname",
          "type": "bytes32"
        },
        {
          "internalType": "uint256",
          "name": "_role",
          "type": "uint256"
        },
        {
          "internalType": "address",
          "name": "_walletAddress",
          "type": "address"
        }
      ],
      "name": "registerUser",
      "outputs": [],
      "stateMutability": "nonpayable",
      "type": "function"
    },
    {
      "inputs": [
        {
          "internalType": "address",
          "name": "",
          "type": "address"
        }
      ],
      "name": "requests",
      "outputs": [
        {
          "internalType": "uint256",
          "name": "_index",
          "type": "uint256"
        },
        {
          "internalType": "string",
          "name": "_title",
          "type": "string"
        },
        {
          "internalType": "string",
          "name": "_comments",
          "type": "string"
        },
        {
          "internalType": "enum SharedChain.ProjectStatus",
          "name": "_projectStatus",
          "type": "uint8"
        },
        {
          "internalType": "enum SharedChain.RequestStatus",
          "name": "_requestStatus",
          "type": "uint8"
        },
        {
          "internalType": "enum SharedChain.RequestType",
          "name": "_requestType",
          "type": "uint8"
        },
        {
          "internalType": "address",
          "name": "_projectAddress",
          "type": "address"
        },
        {
          "internalType": "address",
          "name": "_requestAddress",
          "type": "address"
        },
        {
          "internalType": "address",
          "name": "_signerAddress",
          "type": "address"
        },
        {
          "internalType": "uint256",
          "name": "_timestamp",
          "type": "uint256"
        },
        {
          "internalType": "string",
          "name": "_signature",
          "type": "string"
        }
      ],
      "stateMutability": "view",
      "type": "function",
      "constant": true
    },
    {
      "inputs": [
        {
          "internalType": "uint256",
          "name": "",
          "type": "uint256"
        }
      ],
      "name": "requestsAddress",
      "outputs": [
        {
          "internalType": "address",
          "name": "",
          "type": "address"
        }
      ],
      "stateMutability": "view",
      "type": "function",
      "constant": true
    },
    {
      "inputs": [],
      "name": "requestsCounter",
      "outputs": [
        {
          "internalType": "uint256",
          "name": "",
          "type": "uint256"
        }
      ],
      "stateMutability": "view",
      "type": "function",
      "constant": true
    },
    {
      "inputs": [
        {
          "internalType": "address",
          "name": "",
          "type": "address"
        }
      ],
      "name": "users",
      "outputs": [
        {
          "internalType": "bytes32",
          "name": "_firstname",
          "type": "bytes32"
        },
        {
          "internalType": "bytes32",
          "name": "_lastname",
          "type": "bytes32"
        },
        {
          "internalType": "enum SharedChain.Roles",
          "name": "_role",
          "type": "uint8"
        },
        {
          "internalType": "address",
          "name": "_walletAddress",
          "type": "address"
        },
        {
          "internalType": "uint256",
          "name": "_timestamp",
          "type": "uint256"
        }
      ],
      "stateMutability": "view",
      "type": "function",
      "constant": true
    },
    {
      "inputs": [],
      "name": "usersCounter",
      "outputs": [
        {
          "internalType": "uint256",
          "name": "",
          "type": "uint256"
        }
      ],
      "stateMutability": "view",
      "type": "function",
      "constant": true
    },
    {
      "inputs": [
        {
          "internalType": "string",
          "name": "_name",
          "type": "string"
        },
        {
          "internalType": "uint256",
          "name": "_index",
          "type": "uint256"
        }
      ],
      "name": "createUniqueProjectAddress",
      "outputs": [
        {
          "internalType": "address",
          "name": "",
          "type": "address"
        }
      ],
      "stateMutability": "view",
      "type": "function",
      "constant": true
    },
    {
      "inputs": [
        {
          "internalType": "address",
          "name": "_projectAddress",
          "type": "address"
        },
        {
          "internalType": "string",
          "name": "_name",
          "type": "string"
        },
        {
          "internalType": "uint256",
          "name": "_status",
          "type": "uint256"
        },
        {
          "internalType": "string",
          "name": "_ipfsFileCID",
          "type": "string"
        },
        {
          "internalType": "string",
          "name": "_signature",
          "type": "string"
        }
      ],
      "name": "createProject",
      "outputs": [],
      "stateMutability": "nonpayable",
      "type": "function"
    },
    {
      "inputs": [
        {
          "internalType": "address",
          "name": "_projectAddress",
          "type": "address"
        },
        {
          "internalType": "string",
          "name": "_ipfsFileCID",
          "type": "string"
        },
        {
          "internalType": "string",
          "name": "_signature",
          "type": "string"
        }
      ],
      "name": "updateProject",
      "outputs": [],
      "stateMutability": "nonpayable",
      "type": "function"
    },
    {
      "inputs": [
        {
          "internalType": "address",
          "name": "_address",
          "type": "address"
        }
      ],
      "name": "getProjectInfo",
      "outputs": [
        {
          "components": [
            {
              "internalType": "uint256",
              "name": "_index",
              "type": "uint256"
            },
            {
              "internalType": "string",
              "name": "_name",
              "type": "string"
            },
            {
              "internalType": "enum SharedChain.ProjectStatus",
              "name": "_status",
              "type": "uint8"
            },
            {
              "internalType": "string",
              "name": "_ipfsFileCID",
              "type": "string"
            },
            {
              "internalType": "address",
              "name": "_projectAddress",
              "type": "address"
            },
            {
              "internalType": "address",
              "name": "_signerAddress",
              "type": "address"
            },
            {
              "internalType": "address",
              "name": "_companyAddress",
              "type": "address"
            },
            {
              "internalType": "bool",
              "name": "_assigned",
              "type": "bool"
            },
            {
              "internalType": "uint256",
              "name": "_timestamp",
              "type": "uint256"
            },
            {
              "internalType": "string",
              "name": "_signature",
              "type": "string"
            }
          ],
          "internalType": "struct SharedChain.Project",
          "name": "",
          "type": "tuple"
        }
      ],
      "stateMutability": "view",
      "type": "function",
      "constant": true
    },
    {
      "inputs": [
        {
          "internalType": "address",
          "name": "_walletAddress",
          "type": "address"
        }
      ],
      "name": "getProjectsByUserAddress",
      "outputs": [
        {
          "components": [
            {
              "internalType": "uint256",
              "name": "_index",
              "type": "uint256"
            },
            {
              "internalType": "string",
              "name": "_name",
              "type": "string"
            },
            {
              "internalType": "enum SharedChain.ProjectStatus",
              "name": "_status",
              "type": "uint8"
            },
            {
              "internalType": "string",
              "name": "_ipfsFileCID",
              "type": "string"
            },
            {
              "internalType": "address",
              "name": "_projectAddress",
              "type": "address"
            },
            {
              "internalType": "address",
              "name": "_signerAddress",
              "type": "address"
            },
            {
              "internalType": "address",
              "name": "_companyAddress",
              "type": "address"
            },
            {
              "internalType": "bool",
              "name": "_assigned",
              "type": "bool"
            },
            {
              "internalType": "uint256",
              "name": "_timestamp",
              "type": "uint256"
            },
            {
              "internalType": "string",
              "name": "_signature",
              "type": "string"
            }
          ],
          "internalType": "struct SharedChain.Project[]",
          "name": "",
          "type": "tuple[]"
        }
      ],
      "stateMutability": "view",
      "type": "function",
      "constant": true
    },
    {
      "inputs": [
        {
          "internalType": "string",
          "name": "_title",
          "type": "string"
        },
        {
          "internalType": "uint256",
          "name": "_index",
          "type": "uint256"
        }
      ],
      "name": "createUniqueRequestAddress",
      "outputs": [
        {
          "internalType": "address",
          "name": "",
          "type": "address"
        }
      ],
      "stateMutability": "view",
      "type": "function",
      "constant": true
    },
    {
      "inputs": [
        {
          "internalType": "string",
          "name": "_title",
          "type": "string"
        },
        {
          "internalType": "uint256",
          "name": "_projectStatus",
          "type": "uint256"
        },
        {
          "internalType": "uint256",
          "name": "_requestStatus",
          "type": "uint256"
        },
        {
          "internalType": "address",
          "name": "_projectAddress",
          "type": "address"
        },
        {
          "internalType": "address",
          "name": "_requestAddress",
          "type": "address"
        },
        {
          "internalType": "string",
          "name": "_signature",
          "type": "string"
        }
      ],
      "name": "createRequest",
      "outputs": [],
      "stateMutability": "nonpayable",
      "type": "function"
    },
    {
      "inputs": [
        {
          "internalType": "string",
          "name": "_comments",
          "type": "string"
        },
        {
          "internalType": "uint256",
          "name": "_requestStatus",
          "type": "uint256"
        },
        {
          "internalType": "uint256",
          "name": "_projectStatus",
          "type": "uint256"
        },
        {
          "internalType": "address",
          "name": "_projectAddress",
          "type": "address"
        },
        {
          "internalType": "address",
          "name": "_requestAddress",
          "type": "address"
        },
        {
          "internalType": "string",
          "name": "_signature",
          "type": "string"
        }
      ],
      "name": "updateRequest",
      "outputs": [],
      "stateMutability": "nonpayable",
      "type": "function"
    },
    {
      "inputs": [],
      "name": "getAllRequests",
      "outputs": [
        {
          "components": [
            {
              "internalType": "uint256",
              "name": "_index",
              "type": "uint256"
            },
            {
              "internalType": "string",
              "name": "_title",
              "type": "string"
            },
            {
              "internalType": "string",
              "name": "_comments",
              "type": "string"
            },
            {
              "internalType": "enum SharedChain.ProjectStatus",
              "name": "_projectStatus",
              "type": "uint8"
            },
            {
              "internalType": "enum SharedChain.RequestStatus",
              "name": "_requestStatus",
              "type": "uint8"
            },
            {
              "internalType": "enum SharedChain.RequestType",
              "name": "_requestType",
              "type": "uint8"
            },
            {
              "internalType": "address",
              "name": "_projectAddress",
              "type": "address"
            },
            {
              "internalType": "address",
              "name": "_requestAddress",
              "type": "address"
            },
            {
              "internalType": "address",
              "name": "_signerAddress",
              "type": "address"
            },
            {
              "internalType": "uint256",
              "name": "_timestamp",
              "type": "uint256"
            },
            {
              "internalType": "string",
              "name": "_signature",
              "type": "string"
            }
          ],
          "internalType": "struct SharedChain.Request[]",
          "name": "",
          "type": "tuple[]"
        }
      ],
      "stateMutability": "view",
      "type": "function",
      "constant": true
    },
    {
      "inputs": [
        {
          "internalType": "address",
          "name": "_projectAddress",
          "type": "address"
        },
        {
          "internalType": "address",
          "name": "_requestAddress",
          "type": "address"
        }
      ],
      "name": "getLastProjectRequest",
      "outputs": [
        {
          "components": [
            {
              "internalType": "uint256",
              "name": "_index",
              "type": "uint256"
            },
            {
              "internalType": "string",
              "name": "_title",
              "type": "string"
            },
            {
              "internalType": "string",
              "name": "_comments",
              "type": "string"
            },
            {
              "internalType": "enum SharedChain.ProjectStatus",
              "name": "_projectStatus",
              "type": "uint8"
            },
            {
              "internalType": "enum SharedChain.RequestStatus",
              "name": "_requestStatus",
              "type": "uint8"
            },
            {
              "internalType": "enum SharedChain.RequestType",
              "name": "_requestType",
              "type": "uint8"
            },
            {
              "internalType": "address",
              "name": "_projectAddress",
              "type": "address"
            },
            {
              "internalType": "address",
              "name": "_requestAddress",
              "type": "address"
            },
            {
              "internalType": "address",
              "name": "_signerAddress",
              "type": "address"
            },
            {
              "internalType": "uint256",
              "name": "_timestamp",
              "type": "uint256"
            },
            {
              "internalType": "string",
              "name": "_signature",
              "type": "string"
            }
          ],
          "internalType": "struct SharedChain.Request",
          "name": "",
          "type": "tuple"
        }
      ],
      "stateMutability": "view",
      "type": "function",
      "constant": true
    }
  ],
  "bytecode": "0x608060405260006002556000600555600060085534801561001f57600080fd5b50336000806101000a81548173ffffffffffffffffffffffffffffffffffffffff021916908373ffffffffffffffffffffffffffffffffffffffff160217905550614dbe8061006f6000396000f3fe608060405234801561001057600080fd5b50600436106101425760003560e01c8063840e78fd116100b8578063d67b1b991161007c578063d67b1b99146103fc578063e1592c0d1461041a578063e2842d7914610436578063e617385f14610454578063fb1a002a14610470578063fe360ea51461048e57610142565b8063840e78fd1461033b578063844855631461037457806387edbec71461039057806391009786146103ac578063a87430ba146103c857610142565b806348ff3c081161010a57806348ff3c081461022357806356a3eead146102535780636386c1c714610283578063663c2269146102b357806374adad1d146102d157806376c932e01461030b57610142565b8063191e1645146101475780633000d7f9146101775780633b4ec4f81461019357806344884710146101c357806347ee45b9146101f3575b600080fd5b610161600480360381019061015c91906134ca565b6104ac565b60405161016e9190613567565b60405180910390f35b610191600480360381019061018c91906135e4565b6104e4565b005b6101ad60048036038101906101a891906134ca565b6107b7565b6040516101ba9190613567565b60405180910390f35b6101dd60048036038101906101d8919061364b565b6107ef565b6040516101ea9190613935565b60405180910390f35b61020d60048036038101906102089190613957565b610c76565b60405161021a9190613a87565b60405180910390f35b61023d60048036038101906102389190613957565b610ff2565b60405161024a9190613c53565b60405180910390f35b61026d60048036038101906102689190613c75565b6114f8565b60405161027a9190613567565b60405180910390f35b61029d60048036038101906102989190613957565b611537565b6040516102aa9190613d61565b60405180910390f35b6102bb61163f565b6040516102c89190613d8b565b60405180910390f35b6102eb60048036038101906102e69190613957565b611645565b6040516103029b9a99989796959493929190613e1d565b60405180910390f35b61032560048036038101906103209190613c75565b6118be565b6040516103329190613567565b60405180910390f35b61035560048036038101906103509190613957565b6118fd565b60405161036b9a99989796959493929190613eec565b60405180910390f35b61038e60048036038101906103899190613f9d565b611b63565b005b6103aa60048036038101906103a5919061406c565b611f0f565b005b6103c660048036038101906103c19190614131565b612204565b005b6103e260048036038101906103dd9190613957565b6123e5565b6040516103f395949392919061418f565b60405180910390f35b610404612448565b6040516104119190613d8b565b60405180910390f35b610434600480360381019061042f91906141e2565b61244e565b005b61043e6125a5565b60405161044b9190614384565b60405180910390f35b61046e6004803603810190610469919061406c565b61278a565b005b610478612c05565b6040516104859190614565565b60405180910390f35b6104966130b9565b6040516104a39190613d8b565b60405180910390f35b60008233836040516020016104c39392919061462c565b6040516020818303038152906040528051906020012060001c905092915050565b3373ffffffffffffffffffffffffffffffffffffffff1660008054906101000a900473ffffffffffffffffffffffffffffffffffffffff1673ffffffffffffffffffffffffffffffffffffffff1614610572576040517f08c379a0000000000000000000000000000000000000000000000000000000008152600401610569906146b1565b60405180910390fd5b6040518060a0016040528085815260200184815260200183600381111561059c5761059b613722565b5b60038111156105ae576105ad613722565b5b81526020018273ffffffffffffffffffffffffffffffffffffffff16815260200142815250600160008373ffffffffffffffffffffffffffffffffffffffff1673ffffffffffffffffffffffffffffffffffffffff168152602001908152602001600020600082015181600001556020820151816001015560408201518160020160006101000a81548160ff0219169083600381111561065157610650613722565b5b021790555060608201518160020160016101000a81548173ffffffffffffffffffffffffffffffffffffffff021916908373ffffffffffffffffffffffffffffffffffffffff160217905550608082015181600301559050508073ffffffffffffffffffffffffffffffffffffffff167ff751778eb32087df58f173035147c2eac9aac89fdc2f83b1993a198606f56db1600160008473ffffffffffffffffffffffffffffffffffffffff1673ffffffffffffffffffffffffffffffffffffffff16815260200190815260200160002060405161072e919061482e565b60405180910390a26003819080600181540180825580915050600190039060005260206000200160009091909190916101000a81548173ffffffffffffffffffffffffffffffffffffffff021916908373ffffffffffffffffffffffffffffffffffffffff160217905550600260008154809291906107ac90614878565b919050555050505050565b60008233836040516020016107ce9392919061462c565b6040516020818303038152906040528051906020012060001c905092915050565b6107f76130bf565b6107ff6130bf565b60006008541115610c6c578373ffffffffffffffffffffffffffffffffffffffff16600760008573ffffffffffffffffffffffffffffffffffffffff1673ffffffffffffffffffffffffffffffffffffffff16815260200190815260200160002060030160039054906101000a900473ffffffffffffffffffffffffffffffffffffffff1673ffffffffffffffffffffffffffffffffffffffff161415610c6b57600760008473ffffffffffffffffffffffffffffffffffffffff1673ffffffffffffffffffffffffffffffffffffffff1681526020019081526020016000206040518061016001604052908160008201548152602001600182018054610905906148f0565b80601f0160208091040260200160405190810160405280929190818152602001828054610931906148f0565b801561097e5780601f106109535761010080835404028352916020019161097e565b820191906000526020600020905b81548152906001019060200180831161096157829003601f168201915b50505050508152602001600282018054610997906148f0565b80601f01602080910402602001604051908101604052809291908181526020018280546109c3906148f0565b8015610a105780601f106109e557610100808354040283529160200191610a10565b820191906000526020600020905b8154815290600101906020018083116109f357829003601f168201915b505050505081526020016003820160009054906101000a900460ff166004811115610a3e57610a3d613722565b5b6004811115610a5057610a4f613722565b5b81526020016003820160019054906101000a900460ff166002811115610a7957610a78613722565b5b6002811115610a8b57610a8a613722565b5b81526020016003820160029054906101000a900460ff166001811115610ab457610ab3613722565b5b6001811115610ac657610ac5613722565b5b81526020016003820160039054906101000a900473ffffffffffffffffffffffffffffffffffffffff1673ffffffffffffffffffffffffffffffffffffffff1673ffffffffffffffffffffffffffffffffffffffff1681526020016004820160009054906101000a900473ffffffffffffffffffffffffffffffffffffffff1673ffffffffffffffffffffffffffffffffffffffff1673ffffffffffffffffffffffffffffffffffffffff1681526020016005820160009054906101000a900473ffffffffffffffffffffffffffffffffffffffff1673ffffffffffffffffffffffffffffffffffffffff1673ffffffffffffffffffffffffffffffffffffffff16815260200160068201548152602001600782018054610be6906148f0565b80601f0160208091040260200160405190810160405280929190818152602001828054610c12906148f0565b8015610c5f5780601f10610c3457610100808354040283529160200191610c5f565b820191906000526020600020905b815481529060010190602001808311610c4257829003601f168201915b50505050508152505090505b5b8091505092915050565b610c7e613191565b600460008373ffffffffffffffffffffffffffffffffffffffff1673ffffffffffffffffffffffffffffffffffffffff1681526020019081526020016000206040518061014001604052908160008201548152602001600182018054610ce3906148f0565b80601f0160208091040260200160405190810160405280929190818152602001828054610d0f906148f0565b8015610d5c5780601f10610d3157610100808354040283529160200191610d5c565b820191906000526020600020905b815481529060010190602001808311610d3f57829003601f168201915b505050505081526020016002820160009054906101000a900460ff166004811115610d8a57610d89613722565b5b6004811115610d9c57610d9b613722565b5b8152602001600382018054610db0906148f0565b80601f0160208091040260200160405190810160405280929190818152602001828054610ddc906148f0565b8015610e295780601f10610dfe57610100808354040283529160200191610e29565b820191906000526020600020905b815481529060010190602001808311610e0c57829003601f168201915b505050505081526020016004820160009054906101000a900473ffffffffffffffffffffffffffffffffffffffff1673ffffffffffffffffffffffffffffffffffffffff1673ffffffffffffffffffffffffffffffffffffffff1681526020016005820160009054906101000a900473ffffffffffffffffffffffffffffffffffffffff1673ffffffffffffffffffffffffffffffffffffffff1673ffffffffffffffffffffffffffffffffffffffff1681526020016006820160009054906101000a900473ffffffffffffffffffffffffffffffffffffffff1673ffffffffffffffffffffffffffffffffffffffff1673ffffffffffffffffffffffffffffffffffffffff1681526020016006820160149054906101000a900460ff1615151515815260200160078201548152602001600882018054610f69906148f0565b80601f0160208091040260200160405190810160405280929190818152602001828054610f95906148f0565b8015610fe25780601f10610fb757610100808354040283529160200191610fe2565b820191906000526020600020905b815481529060010190602001808311610fc557829003601f168201915b5050505050815250509050919050565b6060806000600554141561100957809150506114f3565b60055467ffffffffffffffff81111561102557611024613369565b5b60405190808252806020026020018201604052801561105e57816020015b61104b613191565b8152602001906001900390816110435790505b50905060005b6005548110156114ed5760006006828154811061108457611083614922565b5b9060005260206000200160009054906101000a900473ffffffffffffffffffffffffffffffffffffffff169050600460008273ffffffffffffffffffffffffffffffffffffffff1673ffffffffffffffffffffffffffffffffffffffff16815260200190815260200160002060050160009054906101000a900473ffffffffffffffffffffffffffffffffffffffff1673ffffffffffffffffffffffffffffffffffffffff168573ffffffffffffffffffffffffffffffffffffffff1614156114d9576000600460008373ffffffffffffffffffffffffffffffffffffffff1673ffffffffffffffffffffffffffffffffffffffff16815260200190815260200160002090508060405180610140016040529081600082015481526020016001820180546111b1906148f0565b80601f01602080910402602001604051908101604052809291908181526020018280546111dd906148f0565b801561122a5780601f106111ff5761010080835404028352916020019161122a565b820191906000526020600020905b81548152906001019060200180831161120d57829003601f168201915b505050505081526020016002820160009054906101000a900460ff16600481111561125857611257613722565b5b600481111561126a57611269613722565b5b815260200160038201805461127e906148f0565b80601f01602080910402602001604051908101604052809291908181526020018280546112aa906148f0565b80156112f75780601f106112cc576101008083540402835291602001916112f7565b820191906000526020600020905b8154815290600101906020018083116112da57829003601f168201915b505050505081526020016004820160009054906101000a900473ffffffffffffffffffffffffffffffffffffffff1673ffffffffffffffffffffffffffffffffffffffff1673ffffffffffffffffffffffffffffffffffffffff1681526020016005820160009054906101000a900473ffffffffffffffffffffffffffffffffffffffff1673ffffffffffffffffffffffffffffffffffffffff1673ffffffffffffffffffffffffffffffffffffffff1681526020016006820160009054906101000a900473ffffffffffffffffffffffffffffffffffffffff1673ffffffffffffffffffffffffffffffffffffffff1673ffffffffffffffffffffffffffffffffffffffff1681526020016006820160149054906101000a900460ff1615151515815260200160078201548152602001600882018054611437906148f0565b80601f0160208091040260200160405190810160405280929190818152602001828054611463906148f0565b80156114b05780601f10611485576101008083540402835291602001916114b0565b820191906000526020600020905b81548152906001019060200180831161149357829003601f168201915b5050505050815250508484815181106114cc576114cb614922565b5b6020026020010181905250505b5080806114e590614878565b915050611064565b50809150505b919050565b6009818154811061150857600080fd5b906000526020600020016000915054906101000a900473ffffffffffffffffffffffffffffffffffffffff1681565b61153f61323a565b600160008373ffffffffffffffffffffffffffffffffffffffff1673ffffffffffffffffffffffffffffffffffffffff1681526020019081526020016000206040518060a001604052908160008201548152602001600182015481526020016002820160009054906101000a900460ff1660038111156115c2576115c1613722565b5b60038111156115d4576115d3613722565b5b81526020016002820160019054906101000a900473ffffffffffffffffffffffffffffffffffffffff1673ffffffffffffffffffffffffffffffffffffffff1673ffffffffffffffffffffffffffffffffffffffff1681526020016003820154815250509050919050565b60085481565b600760205280600052604060002060009150905080600001549080600101805461166e906148f0565b80601f016020809104026020016040519081016040528092919081815260200182805461169a906148f0565b80156116e75780601f106116bc576101008083540402835291602001916116e7565b820191906000526020600020905b8154815290600101906020018083116116ca57829003601f168201915b5050505050908060020180546116fc906148f0565b80601f0160208091040260200160405190810160405280929190818152602001828054611728906148f0565b80156117755780601f1061174a57610100808354040283529160200191611775565b820191906000526020600020905b81548152906001019060200180831161175857829003601f168201915b5050505050908060030160009054906101000a900460ff16908060030160019054906101000a900460ff16908060030160029054906101000a900460ff16908060030160039054906101000a900473ffffffffffffffffffffffffffffffffffffffff16908060040160009054906101000a900473ffffffffffffffffffffffffffffffffffffffff16908060050160009054906101000a900473ffffffffffffffffffffffffffffffffffffffff169080600601549080600701805461183b906148f0565b80601f0160208091040260200160405190810160405280929190818152602001828054611867906148f0565b80156118b45780601f10611889576101008083540402835291602001916118b4565b820191906000526020600020905b81548152906001019060200180831161189757829003601f168201915b505050505090508b565b600681815481106118ce57600080fd5b906000526020600020016000915054906101000a900473ffffffffffffffffffffffffffffffffffffffff1681565b6004602052806000526040600020600091509050806000015490806001018054611926906148f0565b80601f0160208091040260200160405190810160405280929190818152602001828054611952906148f0565b801561199f5780601f106119745761010080835404028352916020019161199f565b820191906000526020600020905b81548152906001019060200180831161198257829003601f168201915b5050505050908060020160009054906101000a900460ff16908060030180546119c7906148f0565b80601f01602080910402602001604051908101604052809291908181526020018280546119f3906148f0565b8015611a405780601f10611a1557610100808354040283529160200191611a40565b820191906000526020600020905b815481529060010190602001808311611a2357829003601f168201915b5050505050908060040160009054906101000a900473ffffffffffffffffffffffffffffffffffffffff16908060050160009054906101000a900473ffffffffffffffffffffffffffffffffffffffff16908060060160009054906101000a900473ffffffffffffffffffffffffffffffffffffffff16908060060160149054906101000a900460ff1690806007015490806008018054611ae0906148f0565b80601f0160208091040260200160405190810160405280929190818152602001828054611b0c906148f0565b8015611b595780601f10611b2e57610100808354040283529160200191611b59565b820191906000526020600020905b815481529060010190602001808311611b3c57829003601f168201915b505050505090508a565b6040518061014001604052806005548152602001858152602001846004811115611b9057611b8f613722565b5b6004811115611ba257611ba1613722565b5b81526020018381526020018673ffffffffffffffffffffffffffffffffffffffff1681526020013373ffffffffffffffffffffffffffffffffffffffff168152602001600073ffffffffffffffffffffffffffffffffffffffff16815260200160001515815260200142815260200182815250600460008773ffffffffffffffffffffffffffffffffffffffff1673ffffffffffffffffffffffffffffffffffffffff168152602001908152602001600020600082015181600001556020820151816001019080519060200190611c7a929190613297565b5060408201518160020160006101000a81548160ff02191690836004811115611ca657611ca5613722565b5b02179055506060820151816003019080519060200190611cc7929190613297565b5060808201518160040160006101000a81548173ffffffffffffffffffffffffffffffffffffffff021916908373ffffffffffffffffffffffffffffffffffffffff16021790555060a08201518160050160006101000a81548173ffffffffffffffffffffffffffffffffffffffff021916908373ffffffffffffffffffffffffffffffffffffffff16021790555060c08201518160060160006101000a81548173ffffffffffffffffffffffffffffffffffffffff021916908373ffffffffffffffffffffffffffffffffffffffff16021790555060e08201518160060160146101000a81548160ff0219169083151502179055506101008201518160070155610120820151816008019080519060200190611de5929190613297565b50905050600073ffffffffffffffffffffffffffffffffffffffff168573ffffffffffffffffffffffffffffffffffffffff167ffb530d24abc3d497c3f0525ef204a66ac64d923ec30b40d17bc3a5f572cf4b8e600460008973ffffffffffffffffffffffffffffffffffffffff1673ffffffffffffffffffffffffffffffffffffffff168152602001908152602001600020604051611e859190614b86565b60405180910390a36006859080600181540180825580915050600190039060005260206000200160009091909190916101000a81548173ffffffffffffffffffffffffffffffffffffffff021916908373ffffffffffffffffffffffffffffffffffffffff16021790555060056000815480929190611f0390614878565b91905055505050505050565b85600760008473ffffffffffffffffffffffffffffffffffffffff1673ffffffffffffffffffffffffffffffffffffffff1681526020019081526020016000206002019080519060200190611f65929190613297565b50846002811115611f7957611f78613722565b5b600760008473ffffffffffffffffffffffffffffffffffffffff1673ffffffffffffffffffffffffffffffffffffffff16815260200190815260200160002060030160016101000a81548160ff02191690836002811115611fdd57611fdc613722565b5b021790555080600760008473ffffffffffffffffffffffffffffffffffffffff1673ffffffffffffffffffffffffffffffffffffffff1681526020019081526020016000206007019080519060200190612038929190613297565b508273ffffffffffffffffffffffffffffffffffffffff168273ffffffffffffffffffffffffffffffffffffffff167fa25a6f1ff57a050a48ae4b3a19f271fddad950cac8d165d6a2eca5d54cc8070f600760008673ffffffffffffffffffffffffffffffffffffffff1673ffffffffffffffffffffffffffffffffffffffff1681526020019081526020016000206040516120d49190614d66565b60405180910390a38360048111156120ef576120ee613722565b5b600460008573ffffffffffffffffffffffffffffffffffffffff1673ffffffffffffffffffffffffffffffffffffffff16815260200190815260200160002060020160006101000a81548160ff0219169083600481111561215357612152613722565b5b0217905550600073ffffffffffffffffffffffffffffffffffffffff168373ffffffffffffffffffffffffffffffffffffffff167ffb530d24abc3d497c3f0525ef204a66ac64d923ec30b40d17bc3a5f572cf4b8e600460008773ffffffffffffffffffffffffffffffffffffffff1673ffffffffffffffffffffffffffffffffffffffff1681526020019081526020016000206040516121f49190614b86565b60405180910390a3505050505050565b3373ffffffffffffffffffffffffffffffffffffffff1660008054906101000a900473ffffffffffffffffffffffffffffffffffffffff1673ffffffffffffffffffffffffffffffffffffffff1614612292576040517f08c379a0000000000000000000000000000000000000000000000000000000008152600401612289906146b1565b60405180910390fd5b8160038111156122a5576122a4613722565b5b600160008373ffffffffffffffffffffffffffffffffffffffff1673ffffffffffffffffffffffffffffffffffffffff16815260200190815260200160002060020160006101000a81548160ff0219169083600381111561230957612308613722565b5b021790555042600160008373ffffffffffffffffffffffffffffffffffffffff1673ffffffffffffffffffffffffffffffffffffffff168152602001908152602001600020600301819055508073ffffffffffffffffffffffffffffffffffffffff167ff751778eb32087df58f173035147c2eac9aac89fdc2f83b1993a198606f56db1600160008473ffffffffffffffffffffffffffffffffffffffff1673ffffffffffffffffffffffffffffffffffffffff1681526020019081526020016000206040516123d9919061482e565b60405180910390a25050565b60016020528060005260406000206000915090508060000154908060010154908060020160009054906101000a900460ff16908060020160019054906101000a900473ffffffffffffffffffffffffffffffffffffffff16908060030154905085565b60025481565b81600460008573ffffffffffffffffffffffffffffffffffffffff1673ffffffffffffffffffffffffffffffffffffffff16815260200190815260200160002060030190805190602001906124a4929190613297565b5080600460008573ffffffffffffffffffffffffffffffffffffffff1673ffffffffffffffffffffffffffffffffffffffff16815260200190815260200160002060080190805190602001906124fb929190613297565b50600073ffffffffffffffffffffffffffffffffffffffff168373ffffffffffffffffffffffffffffffffffffffff167ffb530d24abc3d497c3f0525ef204a66ac64d923ec30b40d17bc3a5f572cf4b8e600460008773ffffffffffffffffffffffffffffffffffffffff1673ffffffffffffffffffffffffffffffffffffffff1681526020019081526020016000206040516125989190614b86565b60405180910390a3505050565b6060600060025467ffffffffffffffff8111156125c5576125c4613369565b5b6040519080825280602002602001820160405280156125fe57816020015b6125eb61323a565b8152602001906001900390816125e35790505b50905060005b6002548110156127825760006003828154811061262457612623614922565b5b9060005260206000200160009054906101000a900473ffffffffffffffffffffffffffffffffffffffff1690506000600160008373ffffffffffffffffffffffffffffffffffffffff1673ffffffffffffffffffffffffffffffffffffffff1681526020019081526020016000209050806040518060a001604052908160008201548152602001600182015481526020016002820160009054906101000a900460ff1660038111156126d9576126d8613722565b5b60038111156126eb576126ea613722565b5b81526020016002820160019054906101000a900473ffffffffffffffffffffffffffffffffffffffff1673ffffffffffffffffffffffffffffffffffffffff1673ffffffffffffffffffffffffffffffffffffffff16815260200160038201548152505084848151811061276257612761614922565b5b60200260200101819052505050808061277a90614878565b915050612604565b508091505090565b6000600260048111156127a05761279f613722565b5b8660048111156127b3576127b2613722565b5b60048111156127c5576127c4613722565b5b14156127d057600190505b604051806101600160405280600854815260200188815260200160405180602001604052806000815250815260200187600481111561281257612811613722565b5b600481111561282457612823613722565b5b815260200186600281111561283c5761283b613722565b5b600281111561284e5761284d613722565b5b815260200182600181111561286657612865613722565b5b81526020018573ffffffffffffffffffffffffffffffffffffffff1681526020018473ffffffffffffffffffffffffffffffffffffffff1681526020013373ffffffffffffffffffffffffffffffffffffffff16815260200142815260200183815250600760008573ffffffffffffffffffffffffffffffffffffffff1673ffffffffffffffffffffffffffffffffffffffff16815260200190815260200160002060008201518160000155602082015181600101908051906020019061292e929190613297565b50604082015181600201908051906020019061294b929190613297565b5060608201518160030160006101000a81548160ff0219169083600481111561297757612976613722565b5b021790555060808201518160030160016101000a81548160ff021916908360028111156129a7576129a6613722565b5b021790555060a08201518160030160026101000a81548160ff021916908360018111156129d7576129d6613722565b5b021790555060c08201518160030160036101000a81548173ffffffffffffffffffffffffffffffffffffffff021916908373ffffffffffffffffffffffffffffffffffffffff16021790555060e08201518160040160006101000a81548173ffffffffffffffffffffffffffffffffffffffff021916908373ffffffffffffffffffffffffffffffffffffffff1602179055506101008201518160050160006101000a81548173ffffffffffffffffffffffffffffffffffffffff021916908373ffffffffffffffffffffffffffffffffffffffff1602179055506101208201518160060155610140820151816007019080519060200190612ada929190613297565b509050508373ffffffffffffffffffffffffffffffffffffffff168373ffffffffffffffffffffffffffffffffffffffff167fa25a6f1ff57a050a48ae4b3a19f271fddad950cac8d165d6a2eca5d54cc8070f600760008773ffffffffffffffffffffffffffffffffffffffff1673ffffffffffffffffffffffffffffffffffffffff168152602001908152602001600020604051612b799190614d66565b60405180910390a36009839080600181540180825580915050600190039060005260206000200160009091909190916101000a81548173ffffffffffffffffffffffffffffffffffffffff021916908373ffffffffffffffffffffffffffffffffffffffff16021790555060086000815480929190612bf790614878565b919050555050505050505050565b6060600060085467ffffffffffffffff811115612c2557612c24613369565b5b604051908082528060200260200182016040528015612c5e57816020015b612c4b6130bf565b815260200190600190039081612c435790505b50905060005b6008548110156130b157600060098281548110612c8457612c83614922565b5b9060005260206000200160009054906101000a900473ffffffffffffffffffffffffffffffffffffffff1690506000600760008373ffffffffffffffffffffffffffffffffffffffff1673ffffffffffffffffffffffffffffffffffffffff1681526020019081526020016000209050806040518061016001604052908160008201548152602001600182018054612d1b906148f0565b80601f0160208091040260200160405190810160405280929190818152602001828054612d47906148f0565b8015612d945780601f10612d6957610100808354040283529160200191612d94565b820191906000526020600020905b815481529060010190602001808311612d7757829003601f168201915b50505050508152602001600282018054612dad906148f0565b80601f0160208091040260200160405190810160405280929190818152602001828054612dd9906148f0565b8015612e265780601f10612dfb57610100808354040283529160200191612e26565b820191906000526020600020905b815481529060010190602001808311612e0957829003601f168201915b505050505081526020016003820160009054906101000a900460ff166004811115612e5457612e53613722565b5b6004811115612e6657612e65613722565b5b81526020016003820160019054906101000a900460ff166002811115612e8f57612e8e613722565b5b6002811115612ea157612ea0613722565b5b81526020016003820160029054906101000a900460ff166001811115612eca57612ec9613722565b5b6001811115612edc57612edb613722565b5b81526020016003820160039054906101000a900473ffffffffffffffffffffffffffffffffffffffff1673ffffffffffffffffffffffffffffffffffffffff1673ffffffffffffffffffffffffffffffffffffffff1681526020016004820160009054906101000a900473ffffffffffffffffffffffffffffffffffffffff1673ffffffffffffffffffffffffffffffffffffffff1673ffffffffffffffffffffffffffffffffffffffff1681526020016005820160009054906101000a900473ffffffffffffffffffffffffffffffffffffffff1673ffffffffffffffffffffffffffffffffffffffff1673ffffffffffffffffffffffffffffffffffffffff16815260200160068201548152602001600782018054612ffc906148f0565b80601f0160208091040260200160405190810160405280929190818152602001828054613028906148f0565b80156130755780601f1061304a57610100808354040283529160200191613075565b820191906000526020600020905b81548152906001019060200180831161305857829003601f168201915b50505050508152505084848151811061309157613090614922565b5b6020026020010181905250505080806130a990614878565b915050612c64565b508091505090565b60055481565b604051806101600160405280600081526020016060815260200160608152602001600060048111156130f4576130f3613722565b5b81526020016000600281111561310d5761310c613722565b5b81526020016000600181111561312657613125613722565b5b8152602001600073ffffffffffffffffffffffffffffffffffffffff168152602001600073ffffffffffffffffffffffffffffffffffffffff168152602001600073ffffffffffffffffffffffffffffffffffffffff16815260200160008152602001606081525090565b6040518061014001604052806000815260200160608152602001600060048111156131bf576131be613722565b5b815260200160608152602001600073ffffffffffffffffffffffffffffffffffffffff168152602001600073ffffffffffffffffffffffffffffffffffffffff168152602001600073ffffffffffffffffffffffffffffffffffffffff16815260200160001515815260200160008152602001606081525090565b6040518060a0016040528060008019168152602001600080191681526020016000600381111561326d5761326c613722565b5b8152602001600073ffffffffffffffffffffffffffffffffffffffff168152602001600081525090565b8280546132a3906148f0565b90600052602060002090601f0160209004810192826132c5576000855561330c565b82601f106132de57805160ff191683800117855561330c565b8280016001018555821561330c579182015b8281111561330b5782518255916020019190600101906132f0565b5b509050613319919061331d565b5090565b5b8082111561333657600081600090555060010161331e565b5090565b6000604051905090565b600080fd5b600080fd5b600080fd5b600080fd5b6000601f19601f8301169050919050565b7f4e487b7100000000000000000000000000000000000000000000000000000000600052604160045260246000fd5b6133a182613358565b810181811067ffffffffffffffff821117156133c0576133bf613369565b5b80604052505050565b60006133d361333a565b90506133df8282613398565b919050565b600067ffffffffffffffff8211156133ff576133fe613369565b5b61340882613358565b9050602081019050919050565b82818337600083830152505050565b6000613437613432846133e4565b6133c9565b90508281526020810184848401111561345357613452613353565b5b61345e848285613415565b509392505050565b600082601f83011261347b5761347a61334e565b5b813561348b848260208601613424565b91505092915050565b6000819050919050565b6134a781613494565b81146134b257600080fd5b50565b6000813590506134c48161349e565b92915050565b600080604083850312156134e1576134e0613344565b5b600083013567ffffffffffffffff8111156134ff576134fe613349565b5b61350b85828601613466565b925050602061351c858286016134b5565b9150509250929050565b600073ffffffffffffffffffffffffffffffffffffffff82169050919050565b600061355182613526565b9050919050565b61356181613546565b82525050565b600060208201905061357c6000830184613558565b92915050565b6000819050919050565b61359581613582565b81146135a057600080fd5b50565b6000813590506135b28161358c565b92915050565b6135c181613546565b81146135cc57600080fd5b50565b6000813590506135de816135b8565b92915050565b600080600080608085870312156135fe576135fd613344565b5b600061360c878288016135a3565b945050602061361d878288016135a3565b935050604061362e878288016134b5565b925050606061363f878288016135cf565b91505092959194509250565b6000806040838503121561366257613661613344565b5b6000613670858286016135cf565b9250506020613681858286016135cf565b9150509250929050565b61369481613494565b82525050565b600081519050919050565b600082825260208201905092915050565b60005b838110156136d45780820151818401526020810190506136b9565b838111156136e3576000848401525b50505050565b60006136f48261369a565b6136fe81856136a5565b935061370e8185602086016136b6565b61371781613358565b840191505092915050565b7f4e487b7100000000000000000000000000000000000000000000000000000000600052602160045260246000fd5b6005811061376257613761613722565b5b50565b600081905061377382613751565b919050565b600061378382613765565b9050919050565b61379381613778565b82525050565b600381106137aa576137a9613722565b5b50565b60008190506137bb82613799565b919050565b60006137cb826137ad565b9050919050565b6137db816137c0565b82525050565b600281106137f2576137f1613722565b5b50565b6000819050613803826137e1565b919050565b6000613813826137f5565b9050919050565b61382381613808565b82525050565b61383281613546565b82525050565b600061016083016000830151613851600086018261368b565b506020830151848203602086015261386982826136e9565b9150506040830151848203604086015261388382826136e9565b9150506060830151613898606086018261378a565b5060808301516138ab60808601826137d2565b5060a08301516138be60a086018261381a565b5060c08301516138d160c0860182613829565b5060e08301516138e460e0860182613829565b506101008301516138f9610100860182613829565b5061012083015161390e61012086018261368b565b5061014083015184820361014086015261392882826136e9565b9150508091505092915050565b6000602082019050818103600083015261394f8184613838565b905092915050565b60006020828403121561396d5761396c613344565b5b600061397b848285016135cf565b91505092915050565b60008115159050919050565b61399981613984565b82525050565b6000610140830160008301516139b8600086018261368b565b50602083015184820360208601526139d082826136e9565b91505060408301516139e5604086018261378a565b50606083015184820360608601526139fd82826136e9565b9150506080830151613a126080860182613829565b5060a0830151613a2560a0860182613829565b5060c0830151613a3860c0860182613829565b5060e0830151613a4b60e0860182613990565b50610100830151613a6061010086018261368b565b50610120830151848203610120860152613a7a82826136e9565b9150508091505092915050565b60006020820190508181036000830152613aa1818461399f565b905092915050565b600081519050919050565b600082825260208201905092915050565b6000819050602082019050919050565b600061014083016000830151613aee600086018261368b565b5060208301518482036020860152613b0682826136e9565b9150506040830151613b1b604086018261378a565b5060608301518482036060860152613b3382826136e9565b9150506080830151613b486080860182613829565b5060a0830151613b5b60a0860182613829565b5060c0830151613b6e60c0860182613829565b5060e0830151613b8160e0860182613990565b50610100830151613b9661010086018261368b565b50610120830151848203610120860152613bb082826136e9565b9150508091505092915050565b6000613bc98383613ad5565b905092915050565b6000602082019050919050565b6000613be982613aa9565b613bf38185613ab4565b935083602082028501613c0585613ac5565b8060005b85811015613c415784840389528151613c228582613bbd565b9450613c2d83613bd1565b925060208a01995050600181019050613c09565b50829750879550505050505092915050565b60006020820190508181036000830152613c6d8184613bde565b905092915050565b600060208284031215613c8b57613c8a613344565b5b6000613c99848285016134b5565b91505092915050565b613cab81613582565b82525050565b60048110613cc257613cc1613722565b5b50565b6000819050613cd382613cb1565b919050565b6000613ce382613cc5565b9050919050565b613cf381613cd8565b82525050565b60a082016000820151613d0f6000850182613ca2565b506020820151613d226020850182613ca2565b506040820151613d356040850182613cea565b506060820151613d486060850182613829565b506080820151613d5b608085018261368b565b50505050565b600060a082019050613d766000830184613cf9565b92915050565b613d8581613494565b82525050565b6000602082019050613da06000830184613d7c565b92915050565b600082825260208201905092915050565b6000613dc28261369a565b613dcc8185613da6565b9350613ddc8185602086016136b6565b613de581613358565b840191505092915050565b613df981613778565b82525050565b613e08816137c0565b82525050565b613e1781613808565b82525050565b600061016082019050613e33600083018e613d7c565b8181036020830152613e45818d613db7565b90508181036040830152613e59818c613db7565b9050613e68606083018b613df0565b613e75608083018a613dff565b613e8260a0830189613e0e565b613e8f60c0830188613558565b613e9c60e0830187613558565b613eaa610100830186613558565b613eb8610120830185613d7c565b818103610140830152613ecb8184613db7565b90509c9b505050505050505050505050565b613ee681613984565b82525050565b600061014082019050613f02600083018d613d7c565b8181036020830152613f14818c613db7565b9050613f23604083018b613df0565b8181036060830152613f35818a613db7565b9050613f446080830189613558565b613f5160a0830188613558565b613f5e60c0830187613558565b613f6b60e0830186613edd565b613f79610100830185613d7c565b818103610120830152613f8c8184613db7565b90509b9a5050505050505050505050565b600080600080600060a08688031215613fb957613fb8613344565b5b6000613fc7888289016135cf565b955050602086013567ffffffffffffffff811115613fe857613fe7613349565b5b613ff488828901613466565b9450506040614005888289016134b5565b935050606086013567ffffffffffffffff81111561402657614025613349565b5b61403288828901613466565b925050608086013567ffffffffffffffff81111561405357614052613349565b5b61405f88828901613466565b9150509295509295909350565b60008060008060008060c0878903121561408957614088613344565b5b600087013567ffffffffffffffff8111156140a7576140a6613349565b5b6140b389828a01613466565b96505060206140c489828a016134b5565b95505060406140d589828a016134b5565b94505060606140e689828a016135cf565b93505060806140f789828a016135cf565b92505060a087013567ffffffffffffffff81111561411857614117613349565b5b61412489828a01613466565b9150509295509295509295565b6000806040838503121561414857614147613344565b5b6000614156858286016134b5565b9250506020614167858286016135cf565b9150509250929050565b61417a81613582565b82525050565b61418981613cd8565b82525050565b600060a0820190506141a46000830188614171565b6141b16020830187614171565b6141be6040830186614180565b6141cb6060830185613558565b6141d86080830184613d7c565b9695505050505050565b6000806000606084860312156141fb576141fa613344565b5b6000614209868287016135cf565b935050602084013567ffffffffffffffff81111561422a57614229613349565b5b61423686828701613466565b925050604084013567ffffffffffffffff81111561425757614256613349565b5b61426386828701613466565b9150509250925092565b600081519050919050565b600082825260208201905092915050565b6000819050602082019050919050565b60a0820160008201516142af6000850182613ca2565b5060208201516142c26020850182613ca2565b5060408201516142d56040850182613cea565b5060608201516142e86060850182613829565b5060808201516142fb608085018261368b565b50505050565b600061430d8383614299565b60a08301905092915050565b6000602082019050919050565b60006143318261426d565b61433b8185614278565b935061434683614289565b8060005b8381101561437757815161435e8882614301565b975061436983614319565b92505060018101905061434a565b5085935050505092915050565b6000602082019050818103600083015261439e8184614326565b905092915050565b600081519050919050565b600082825260208201905092915050565b6000819050602082019050919050565b6000610160830160008301516143eb600086018261368b565b506020830151848203602086015261440382826136e9565b9150506040830151848203604086015261441d82826136e9565b9150506060830151614432606086018261378a565b50608083015161444560808601826137d2565b5060a083015161445860a086018261381a565b5060c083015161446b60c0860182613829565b5060e083015161447e60e0860182613829565b50610100830151614493610100860182613829565b506101208301516144a861012086018261368b565b506101408301518482036101408601526144c282826136e9565b9150508091505092915050565b60006144db83836143d2565b905092915050565b6000602082019050919050565b60006144fb826143a6565b61450581856143b1565b935083602082028501614517856143c2565b8060005b85811015614553578484038952815161453485826144cf565b945061453f836144e3565b925060208a0199505060018101905061451b565b50829750879550505050505092915050565b6000602082019050818103600083015261457f81846144f0565b905092915050565b600081905092915050565b600061459d8261369a565b6145a78185614587565b93506145b78185602086016136b6565b80840191505092915050565b60008160601b9050919050565b60006145db826145c3565b9050919050565b60006145ed826145d0565b9050919050565b61460561460082613546565b6145e2565b82525050565b6000819050919050565b61462661462182613494565b61460b565b82525050565b60006146388286614592565b915061464482856145f4565b6014820191506146548284614615565b602082019150819050949350505050565b7f596f7520617265206e6f7420616e206f776e65722e0000000000000000000000600082015250565b600061469b601583613da6565b91506146a682614665565b602082019050919050565b600060208201905081810360008301526146ca8161468e565b9050919050565b60008160001c9050919050565b6000819050919050565b60006146fb6146f6836146d1565b6146de565b9050919050565b600060ff82169050919050565b600061472261471d836146d1565b614702565b9050919050565b60008160081c9050919050565b600073ffffffffffffffffffffffffffffffffffffffff82169050919050565b600061476961476483614729565b614736565b9050919050565b6000819050919050565b600061478d614788836146d1565b614770565b9050919050565b60a0820160008083015490506147a9816146e8565b6147b66000860182613ca2565b50600183015490506147c7816146e8565b6147d46020860182613ca2565b50600283015490506147e58161470f565b6147f26040860182613cea565b506147fc81614756565b6148096060860182613829565b506003830154905061481a8161477a565b614827608086018261368b565b5050505050565b600060a0820190506148436000830184614794565b92915050565b7f4e487b7100000000000000000000000000000000000000000000000000000000600052601160045260246000fd5b600061488382613494565b91507fffffffffffffffffffffffffffffffffffffffffffffffffffffffffffffffff8214156148b6576148b5614849565b5b600182019050919050565b7f4e487b7100000000000000000000000000000000000000000000000000000000600052602260045260246000fd5b6000600282049050600182168061490857607f821691505b6020821081141561491c5761491b6148c1565b5b50919050565b7f4e487b7100000000000000000000000000000000000000000000000000000000600052603260045260246000fd5b60008190508160005260206000209050919050565b60008154614973816148f0565b61497d81866136a5565b9450600182166000811461499857600181146149aa576149dd565b60ff19831686526020860193506149dd565b6149b385614951565b60005b838110156149d5578154818901526001820191506020810190506149b6565b808801955050505b50505092915050565b600060ff82169050919050565b6000614a06614a01836146d1565b6149e6565b9050919050565b6000614a20614a1b836146d1565b614736565b9050919050565b60008160a01c9050919050565b600060ff82169050919050565b6000614a54614a4f83614a27565b614a34565b9050919050565b600061014083016000808401549050614a738161477a565b614a80600087018261368b565b50600184018583036020870152614a978382614966565b92505060028401549050614aaa816149f3565b614ab7604087018261378a565b50600384018583036060870152614ace8382614966565b92505060048401549050614ae181614a0d565b614aee6080870182613829565b5060058401549050614aff81614a0d565b614b0c60a0870182613829565b5060068401549050614b1d81614a0d565b614b2a60c0870182613829565b50614b3481614a41565b614b4160e0870182613990565b5060078401549050614b528161477a565b614b6061010087018261368b565b5060088401858303610120870152614b788382614966565b925050819250505092915050565b60006020820190508181036000830152614ba08184614a5b565b905092915050565b600060ff82169050919050565b6000614bc8614bc383614729565b614ba8565b9050919050565b60008160101c9050919050565b600060ff82169050919050565b6000614bfc614bf783614bcf565b614bdc565b9050919050565b60008160181c9050919050565b6000614c23614c1e83614c03565b614736565b9050919050565b600061016083016000808401549050614c428161477a565b614c4f600087018261368b565b50600184018583036020870152614c668382614966565b925050600284018583036040870152614c7f8382614966565b92505060038401549050614c92816149f3565b614c9f606087018261378a565b50614ca981614bb5565b614cb660808701826137d2565b50614cc081614be9565b614ccd60a087018261381a565b50614cd781614c10565b614ce460c0870182613829565b5060048401549050614cf581614a0d565b614d0260e0870182613829565b5060058401549050614d1381614a0d565b614d21610100870182613829565b5060068401549050614d328161477a565b614d4061012087018261368b565b5060078401858303610140870152614d588382614966565b925050819250505092915050565b60006020820190508181036000830152614d808184614c2a565b90509291505056fea264697066735822122054ccb92f68efd55ee65bb0a7a48d6ec7e639c6eb23208b0d83249ea89f2a6a1d64736f6c634300080a0033",
  "immutableReferences": {},
  "source": "// SPDX-License-Identifier: MIT\r\npragma solidity >=0.8.0 <0.9.0;\r\n\r\nimport \"./UserChain.sol\";\r\n\r\ncontract ProjectChain is UserChain {\r\n\r\n    constructor() {\r\n    }\r\n\r\n    modifier onlyUserProject() {\r\n        // require(\r\n        //     sessionUser._role == Roles.UserProject,\r\n        //     \"You don't have the rights for this resource.\"\r\n        // );\r\n        _;\r\n    }\r\n\r\n    modifier onlySupervisor() {\r\n        // require(\r\n        //     sessionUser._role == Roles.Supervisor,\r\n        //     \"You don't have the rights for this resource.\"\r\n        // );\r\n        _;\r\n    }\r\n\r\n    modifier onlyCompany() {\r\n        // require(\r\n        //     sessionUser._role == Roles.Company,\r\n        //     \"You don't have the rights for this resource.\"\r\n        // );\r\n        _;\r\n    }\r\n\r\n\r\n    /**  PROJECT INITIATOR  */\r\n\r\n    mapping(address => Project) public projects;\r\n    uint256 public projectsCounter = 0;\r\n    address[] public projectsAddress;\r\n\r\n    function createUniqueProjectAddress(string memory _name, uint256 _index) public view returns (address) {\r\n        return address(uint160(uint256(keccak256(abi.encodePacked(_name, msg.sender, _index)))));\r\n    }\r\n\r\n    function createProject(\r\n        address _projectAddress,\r\n        string memory _name,\r\n        uint256 _status,\r\n        string memory _ipfsFileCID,\r\n        string memory _signature\r\n    ) public onlyUserProject {\r\n        projects[_projectAddress] = Project(\r\n            projectsCounter,\r\n            _name,\r\n            ProjectStatus(_status),\r\n            _ipfsFileCID,\r\n            _projectAddress,\r\n            msg.sender,\r\n            address(0x0),\r\n            false,\r\n            block.timestamp,\r\n            _signature\r\n        );\r\n\r\n        emit ProjectEvent(projects[_projectAddress], _projectAddress, address(0x0));\r\n        projectsAddress.push(_projectAddress);\r\n        projectsCounter++;\r\n    }\r\n\r\n    function updateProject(\r\n        address _projectAddress,\r\n        string memory _ipfsFileCID,\r\n        string memory _signature\r\n    ) public onlyUserProject {\r\n        projects[_projectAddress]._ipfsFileCID = _ipfsFileCID;\r\n        projects[_projectAddress]._signature = _signature;\r\n\r\n        emit ProjectEvent(projects[_projectAddress], _projectAddress, address(0x0));\r\n    }\r\n\r\n    function getProjectInfo(address _address)\r\n        public\r\n        view\r\n        returns (Project memory)\r\n    {\r\n        //require(msg.sender != address(0x0), \"Address is not valid.\");\r\n        return projects[_address];\r\n    }\r\n\r\n    function getProjectsByUserAddress(address _walletAddress) public view returns (Project[] memory) {\r\n        Project[] memory allProjects;\r\n        if (projectsCounter == 0) return allProjects;\r\n\r\n        allProjects = new Project[](projectsCounter);\r\n        for (uint256 index = 0; index < projectsCounter; index++) {\r\n            address _projectAddress = projectsAddress[index];\r\n            if (_walletAddress == projects[_projectAddress]._signerAddress) {\r\n                Project storage project = projects[_projectAddress];\r\n                allProjects[index] = project;\r\n            }\r\n        }\r\n        return allProjects;\r\n    }\r\n\r\n\r\n    /**  Requests  */\r\n\r\n    mapping(address => Request) public requests;\r\n    uint256 public requestsCounter = 0;\r\n    address[] public requestsAddress;\r\n\r\n    function createUniqueRequestAddress(string memory _title, uint256 _index) public view returns (address) {\r\n        return address(uint160(uint256(keccak256(abi.encodePacked(_title, msg.sender, _index)))));\r\n    }\r\n\r\n    function createRequest(\r\n        string memory _title,\r\n        uint256 _projectStatus,\r\n        uint256 _requestStatus,\r\n        address _projectAddress,\r\n        address _requestAddress,\r\n        string memory _signature\r\n    ) public {\r\n        //require(projects[_projectAddress]._status == ProjectStatus.Created, \"Steps must follow accordingly\");\r\n\r\n        RequestType _requestType = RequestType.SupervisorReq;\r\n        if (ProjectStatus(_projectStatus) == ProjectStatus.StartProject) {\r\n            _requestType = RequestType.CompanyReq;\r\n        }\r\n\r\n        requests[_requestAddress] = Request(\r\n            requestsCounter,\r\n            _title,\r\n            \"\",\r\n            ProjectStatus(_projectStatus),\r\n            RequestStatus(_requestStatus),\r\n            RequestType(_requestType),\r\n            _projectAddress,\r\n            _requestAddress,\r\n            msg.sender,\r\n            block.timestamp,\r\n            _signature\r\n        );\r\n\r\n        emit RequestEvent(requests[_requestAddress], _requestAddress, _projectAddress);\r\n        requestsAddress.push(_requestAddress);\r\n        requestsCounter++;\r\n    }\r\n\r\n    function updateRequest(\r\n        string memory _comments,\r\n        uint256 _requestStatus,\r\n        uint256 _projectStatus,\r\n        address _projectAddress,\r\n        address _requestAddress,\r\n        string memory _signature\r\n    ) public {\r\n        // Update Requests Mapping and Struct Array\r\n        requests[_requestAddress]._comments = _comments;\r\n        requests[_requestAddress]._requestStatus = RequestStatus(_requestStatus);\r\n        requests[_requestAddress]._signature = _signature;\r\n        emit RequestEvent(requests[_requestAddress], _requestAddress, _projectAddress);\r\n\r\n        // Update Project Mapping and Struct Array\r\n        //if (RequestStatus.Approved == RequestStatus(_requestStatus)) {\r\n            projects[_projectAddress]._status = ProjectStatus(_projectStatus);\r\n            emit ProjectEvent(projects[_projectAddress], _projectAddress, address(0x0));\r\n        //}\r\n    }\r\n\r\n    function getAllRequests() public view returns (Request[] memory) {\r\n        Request[] memory allRequests = new Request[](requestsCounter);\r\n        for (uint256 index = 0; index < requestsCounter; index++) {\r\n            address _requestAddress = requestsAddress[index];\r\n            Request storage request = requests[_requestAddress];\r\n            allRequests[index] = request;\r\n        }\r\n        return allRequests;\r\n    }\r\n\r\n    function getLastProjectRequest(address _projectAddress, address _requestAddress)\r\n        public view returns (Request memory)\r\n    {\r\n        Request memory request;\r\n        if (requestsCounter > 0) {\r\n            if (requests[_requestAddress]._projectAddress == _projectAddress) {\r\n                request = requests[_requestAddress];\r\n            }\r\n        }\r\n        return request;\r\n    }\r\n}\r\n",
  "sourcePath": "/mnt/c/Users/Beniamin/source/repos/DissertationProject/contracts/ProjectChain.sol",
  "compiler": {
    "name": "solc",
    "version": "0.8.10+commit.fc410830.Emscripten.clang"
  },
  "schemaVersion": "3.4.3",
  "updatedAt": "2021-12-13T06:29:53.348Z",
  "networkType": "ethereum",
  "devdoc": {
    "kind": "dev",
    "methods": {},
    "version": 1
  },
  "userdoc": {
    "kind": "user",
    "methods": {
      "projects(address)": {
        "notice": "PROJECT INITIATOR  "
      },
      "requests(address)": {
        "notice": "Requests  "
      }
    },
    "version": 1
  }
}