{
  "contractName": "ProjectChain",
  "abi": [
    {
      "inputs": [],
      "stateMutability": "nonpayable",
      "type": "constructor"
    },
    {
      "anonymous": false,
      "inputs": [
        {
          "indexed": false,
          "internalType": "uint256",
          "name": "_index",
          "type": "uint256"
        },
        {
          "indexed": false,
          "internalType": "bytes32",
          "name": "_name",
          "type": "bytes32"
        },
        {
          "indexed": false,
          "internalType": "enum SharedChain.ProjectStatus",
          "name": "_status",
          "type": "uint8"
        },
        {
          "indexed": false,
          "internalType": "string",
          "name": "_ipfsFileCID",
          "type": "string"
        },
        {
          "indexed": false,
          "internalType": "address",
          "name": "_projectAddress",
          "type": "address"
        },
        {
          "indexed": false,
          "internalType": "address",
          "name": "_userAddress",
          "type": "address"
        },
        {
          "indexed": false,
          "internalType": "uint256",
          "name": "_timestamp",
          "type": "uint256"
        },
        {
          "indexed": false,
          "internalType": "string",
          "name": "_signature",
          "type": "string"
        }
      ],
      "name": "ProjectEvent",
      "type": "event"
    },
    {
      "anonymous": false,
      "inputs": [
        {
          "indexed": false,
          "internalType": "uint256",
          "name": "_index",
          "type": "uint256"
        },
        {
          "indexed": false,
          "internalType": "bytes32",
          "name": "_title",
          "type": "bytes32"
        },
        {
          "indexed": false,
          "internalType": "string",
          "name": "_comments",
          "type": "string"
        },
        {
          "indexed": false,
          "internalType": "enum SharedChain.ProjectStatus",
          "name": "_status",
          "type": "uint8"
        },
        {
          "indexed": false,
          "internalType": "enum SharedChain.RequestStatus",
          "name": "_requestStatus",
          "type": "uint8"
        },
        {
          "indexed": false,
          "internalType": "address",
          "name": "_projectAddress",
          "type": "address"
        },
        {
          "indexed": false,
          "internalType": "address",
          "name": "_userAddress",
          "type": "address"
        },
        {
          "indexed": false,
          "internalType": "address",
          "name": "_requestAddress",
          "type": "address"
        },
        {
          "indexed": false,
          "internalType": "uint256",
          "name": "_timestamp",
          "type": "uint256"
        },
        {
          "indexed": false,
          "internalType": "string",
          "name": "_signature",
          "type": "string"
        }
      ],
      "name": "ProjectRequestEvent",
      "type": "event"
    },
    {
      "anonymous": false,
      "inputs": [
        {
          "indexed": false,
          "internalType": "uint256",
          "name": "_index",
          "type": "uint256"
        },
        {
          "indexed": false,
          "internalType": "uint256",
          "name": "_indexProjectRequest",
          "type": "uint256"
        },
        {
          "indexed": false,
          "internalType": "bytes32",
          "name": "_title",
          "type": "bytes32"
        },
        {
          "indexed": false,
          "internalType": "enum SharedChain.RequestStatus",
          "name": "_status",
          "type": "uint8"
        },
        {
          "indexed": false,
          "internalType": "enum SharedChain.ProjectStatus",
          "name": "_projectStatus",
          "type": "uint8"
        },
        {
          "indexed": false,
          "internalType": "enum SharedChain.RequestType",
          "name": "_requestType",
          "type": "uint8"
        },
        {
          "indexed": false,
          "internalType": "address",
          "name": "_projectAddress",
          "type": "address"
        },
        {
          "indexed": false,
          "internalType": "address",
          "name": "_userAddress",
          "type": "address"
        },
        {
          "indexed": false,
          "internalType": "address",
          "name": "_requestAddress",
          "type": "address"
        },
        {
          "indexed": false,
          "internalType": "uint256",
          "name": "_timestamp",
          "type": "uint256"
        },
        {
          "indexed": false,
          "internalType": "string",
          "name": "_signature",
          "type": "string"
        }
      ],
      "name": "RequestEvent",
      "type": "event"
    },
    {
      "anonymous": false,
      "inputs": [
        {
          "indexed": false,
          "internalType": "uint256",
          "name": "_index",
          "type": "uint256"
        },
        {
          "indexed": true,
          "internalType": "string",
          "name": "_username",
          "type": "string"
        },
        {
          "indexed": false,
          "internalType": "bytes32",
          "name": "_email",
          "type": "bytes32"
        },
        {
          "indexed": false,
          "internalType": "bytes32",
          "name": "_firstname",
          "type": "bytes32"
        },
        {
          "indexed": false,
          "internalType": "bytes32",
          "name": "_lastname",
          "type": "bytes32"
        },
        {
          "indexed": true,
          "internalType": "enum UserChain.Roles",
          "name": "_role",
          "type": "uint8"
        },
        {
          "indexed": true,
          "internalType": "address",
          "name": "_walletAddress",
          "type": "address"
        },
        {
          "indexed": false,
          "internalType": "uint256",
          "name": "_timestamp",
          "type": "uint256"
        }
      ],
      "name": "UserEvent",
      "type": "event"
    },
    {
      "inputs": [
        {
          "internalType": "uint256",
          "name": "_role",
          "type": "uint256"
        },
        {
          "internalType": "address",
          "name": "_walletAddress",
          "type": "address"
        }
      ],
      "name": "changeUserRole",
      "outputs": [],
      "stateMutability": "nonpayable",
      "type": "function"
    },
    {
      "inputs": [],
      "name": "getAllUsers",
      "outputs": [
        {
          "components": [
            {
              "internalType": "uint256",
              "name": "_index",
              "type": "uint256"
            },
            {
              "internalType": "string",
              "name": "_username",
              "type": "string"
            },
            {
              "internalType": "bytes32",
              "name": "_email",
              "type": "bytes32"
            },
            {
              "internalType": "bytes32",
              "name": "_firstname",
              "type": "bytes32"
            },
            {
              "internalType": "bytes32",
              "name": "_lastname",
              "type": "bytes32"
            },
            {
              "internalType": "enum UserChain.Roles",
              "name": "_role",
              "type": "uint8"
            },
            {
              "internalType": "address",
              "name": "_walletAddress",
              "type": "address"
            },
            {
              "internalType": "uint256",
              "name": "_timestamp",
              "type": "uint256"
            }
          ],
          "internalType": "struct UserChain.User[]",
          "name": "",
          "type": "tuple[]"
        }
      ],
      "stateMutability": "view",
      "type": "function",
      "constant": true
    },
    {
      "inputs": [
        {
          "internalType": "address",
          "name": "_walletAddress",
          "type": "address"
        }
      ],
      "name": "getUserInfo",
      "outputs": [
        {
          "components": [
            {
              "internalType": "uint256",
              "name": "_index",
              "type": "uint256"
            },
            {
              "internalType": "string",
              "name": "_username",
              "type": "string"
            },
            {
              "internalType": "bytes32",
              "name": "_email",
              "type": "bytes32"
            },
            {
              "internalType": "bytes32",
              "name": "_firstname",
              "type": "bytes32"
            },
            {
              "internalType": "bytes32",
              "name": "_lastname",
              "type": "bytes32"
            },
            {
              "internalType": "enum UserChain.Roles",
              "name": "_role",
              "type": "uint8"
            },
            {
              "internalType": "address",
              "name": "_walletAddress",
              "type": "address"
            },
            {
              "internalType": "uint256",
              "name": "_timestamp",
              "type": "uint256"
            }
          ],
          "internalType": "struct UserChain.User",
          "name": "",
          "type": "tuple"
        }
      ],
      "stateMutability": "view",
      "type": "function",
      "constant": true
    },
    {
      "inputs": [],
      "name": "owner",
      "outputs": [
        {
          "internalType": "address",
          "name": "",
          "type": "address"
        }
      ],
      "stateMutability": "view",
      "type": "function",
      "constant": true
    },
    {
      "inputs": [
        {
          "internalType": "uint256",
          "name": "",
          "type": "uint256"
        }
      ],
      "name": "projectRequests",
      "outputs": [
        {
          "internalType": "uint256",
          "name": "_index",
          "type": "uint256"
        },
        {
          "internalType": "bytes32",
          "name": "_title",
          "type": "bytes32"
        },
        {
          "internalType": "string",
          "name": "_comments",
          "type": "string"
        },
        {
          "internalType": "enum SharedChain.ProjectStatus",
          "name": "_status",
          "type": "uint8"
        },
        {
          "internalType": "enum SharedChain.RequestStatus",
          "name": "_requestStatus",
          "type": "uint8"
        },
        {
          "internalType": "address",
          "name": "_projectAddress",
          "type": "address"
        },
        {
          "internalType": "address",
          "name": "_userAddress",
          "type": "address"
        },
        {
          "internalType": "address",
          "name": "_requestAddress",
          "type": "address"
        },
        {
          "internalType": "uint256",
          "name": "_timestamp",
          "type": "uint256"
        },
        {
          "internalType": "string",
          "name": "_signature",
          "type": "string"
        }
      ],
      "stateMutability": "view",
      "type": "function",
      "constant": true
    },
    {
      "inputs": [
        {
          "internalType": "uint256",
          "name": "",
          "type": "uint256"
        }
      ],
      "name": "projectRequestsAddress",
      "outputs": [
        {
          "internalType": "address",
          "name": "",
          "type": "address"
        }
      ],
      "stateMutability": "view",
      "type": "function",
      "constant": true
    },
    {
      "inputs": [],
      "name": "projectRequestsCounter",
      "outputs": [
        {
          "internalType": "uint256",
          "name": "",
          "type": "uint256"
        }
      ],
      "stateMutability": "view",
      "type": "function",
      "constant": true
    },
    {
      "inputs": [
        {
          "internalType": "address",
          "name": "",
          "type": "address"
        }
      ],
      "name": "projects",
      "outputs": [
        {
          "internalType": "uint256",
          "name": "_index",
          "type": "uint256"
        },
        {
          "internalType": "bytes32",
          "name": "_name",
          "type": "bytes32"
        },
        {
          "internalType": "enum SharedChain.ProjectStatus",
          "name": "_status",
          "type": "uint8"
        },
        {
          "internalType": "string",
          "name": "_ipfsFileCID",
          "type": "string"
        },
        {
          "internalType": "address",
          "name": "_projectAddress",
          "type": "address"
        },
        {
          "internalType": "address",
          "name": "_userAddress",
          "type": "address"
        },
        {
          "internalType": "uint256",
          "name": "_timestamp",
          "type": "uint256"
        },
        {
          "internalType": "string",
          "name": "_signature",
          "type": "string"
        }
      ],
      "stateMutability": "view",
      "type": "function",
      "constant": true
    },
    {
      "inputs": [
        {
          "internalType": "uint256",
          "name": "",
          "type": "uint256"
        }
      ],
      "name": "projectsAddress",
      "outputs": [
        {
          "internalType": "address",
          "name": "",
          "type": "address"
        }
      ],
      "stateMutability": "view",
      "type": "function",
      "constant": true
    },
    {
      "inputs": [],
      "name": "projectsCounter",
      "outputs": [
        {
          "internalType": "uint256",
          "name": "",
          "type": "uint256"
        }
      ],
      "stateMutability": "view",
      "type": "function",
      "constant": true
    },
    {
      "inputs": [
        {
          "internalType": "string",
          "name": "_username",
          "type": "string"
        },
        {
          "internalType": "bytes32",
          "name": "_email",
          "type": "bytes32"
        },
        {
          "internalType": "bytes32",
          "name": "_firstname",
          "type": "bytes32"
        },
        {
          "internalType": "bytes32",
          "name": "_lastname",
          "type": "bytes32"
        },
        {
          "internalType": "uint256",
          "name": "_role",
          "type": "uint256"
        },
        {
          "internalType": "address",
          "name": "_walletAddress",
          "type": "address"
        }
      ],
      "name": "registerUser",
      "outputs": [],
      "stateMutability": "nonpayable",
      "type": "function"
    },
    {
      "inputs": [
        {
          "internalType": "uint256",
          "name": "",
          "type": "uint256"
        }
      ],
      "name": "requests",
      "outputs": [
        {
          "internalType": "uint256",
          "name": "_index",
          "type": "uint256"
        },
        {
          "internalType": "uint256",
          "name": "_indexProjectRequest",
          "type": "uint256"
        },
        {
          "internalType": "bytes32",
          "name": "_title",
          "type": "bytes32"
        },
        {
          "internalType": "enum SharedChain.RequestStatus",
          "name": "_requestStatus",
          "type": "uint8"
        },
        {
          "internalType": "enum SharedChain.ProjectStatus",
          "name": "_projectStatus",
          "type": "uint8"
        },
        {
          "internalType": "enum SharedChain.RequestType",
          "name": "_requestType",
          "type": "uint8"
        },
        {
          "internalType": "address",
          "name": "_projectAddress",
          "type": "address"
        },
        {
          "internalType": "address",
          "name": "_userAddress",
          "type": "address"
        },
        {
          "internalType": "address",
          "name": "_requestAddress",
          "type": "address"
        },
        {
          "internalType": "uint256",
          "name": "_timestamp",
          "type": "uint256"
        },
        {
          "internalType": "string",
          "name": "_signature",
          "type": "string"
        }
      ],
      "stateMutability": "view",
      "type": "function",
      "constant": true
    },
    {
      "inputs": [
        {
          "internalType": "uint256",
          "name": "",
          "type": "uint256"
        }
      ],
      "name": "requestsAddress",
      "outputs": [
        {
          "internalType": "address",
          "name": "",
          "type": "address"
        }
      ],
      "stateMutability": "view",
      "type": "function",
      "constant": true
    },
    {
      "inputs": [],
      "name": "requestsCounter",
      "outputs": [
        {
          "internalType": "uint256",
          "name": "",
          "type": "uint256"
        }
      ],
      "stateMutability": "view",
      "type": "function",
      "constant": true
    },
    {
      "inputs": [
        {
          "internalType": "address",
          "name": "",
          "type": "address"
        }
      ],
      "name": "users",
      "outputs": [
        {
          "internalType": "uint256",
          "name": "_index",
          "type": "uint256"
        },
        {
          "internalType": "string",
          "name": "_username",
          "type": "string"
        },
        {
          "internalType": "bytes32",
          "name": "_email",
          "type": "bytes32"
        },
        {
          "internalType": "bytes32",
          "name": "_firstname",
          "type": "bytes32"
        },
        {
          "internalType": "bytes32",
          "name": "_lastname",
          "type": "bytes32"
        },
        {
          "internalType": "enum UserChain.Roles",
          "name": "_role",
          "type": "uint8"
        },
        {
          "internalType": "address",
          "name": "_walletAddress",
          "type": "address"
        },
        {
          "internalType": "uint256",
          "name": "_timestamp",
          "type": "uint256"
        }
      ],
      "stateMutability": "view",
      "type": "function",
      "constant": true
    },
    {
      "inputs": [
        {
          "internalType": "uint256",
          "name": "",
          "type": "uint256"
        }
      ],
      "name": "usersAddress",
      "outputs": [
        {
          "internalType": "address",
          "name": "",
          "type": "address"
        }
      ],
      "stateMutability": "view",
      "type": "function",
      "constant": true
    },
    {
      "inputs": [],
      "name": "usersCounter",
      "outputs": [
        {
          "internalType": "uint256",
          "name": "",
          "type": "uint256"
        }
      ],
      "stateMutability": "view",
      "type": "function",
      "constant": true
    },
    {
      "inputs": [],
      "name": "createUniqueProjectAddress",
      "outputs": [
        {
          "internalType": "address",
          "name": "",
          "type": "address"
        }
      ],
      "stateMutability": "nonpayable",
      "type": "function"
    },
    {
      "inputs": [
        {
          "internalType": "address",
          "name": "_projectAddress",
          "type": "address"
        },
        {
          "internalType": "bytes32",
          "name": "_name",
          "type": "bytes32"
        },
        {
          "internalType": "uint256",
          "name": "_status",
          "type": "uint256"
        },
        {
          "internalType": "string",
          "name": "_ipfsFileCID",
          "type": "string"
        },
        {
          "internalType": "string",
          "name": "_signature",
          "type": "string"
        }
      ],
      "name": "createProject",
      "outputs": [],
      "stateMutability": "nonpayable",
      "type": "function"
    },
    {
      "inputs": [
        {
          "internalType": "address",
          "name": "_address",
          "type": "address"
        }
      ],
      "name": "getProjectInfo",
      "outputs": [
        {
          "components": [
            {
              "internalType": "uint256",
              "name": "_index",
              "type": "uint256"
            },
            {
              "internalType": "bytes32",
              "name": "_name",
              "type": "bytes32"
            },
            {
              "internalType": "enum SharedChain.ProjectStatus",
              "name": "_status",
              "type": "uint8"
            },
            {
              "internalType": "string",
              "name": "_ipfsFileCID",
              "type": "string"
            },
            {
              "internalType": "address",
              "name": "_projectAddress",
              "type": "address"
            },
            {
              "internalType": "address",
              "name": "_userAddress",
              "type": "address"
            },
            {
              "internalType": "uint256",
              "name": "_timestamp",
              "type": "uint256"
            },
            {
              "internalType": "string",
              "name": "_signature",
              "type": "string"
            }
          ],
          "internalType": "struct SharedChain.Project",
          "name": "",
          "type": "tuple"
        }
      ],
      "stateMutability": "view",
      "type": "function",
      "constant": true
    },
    {
      "inputs": [],
      "name": "getAllProjects",
      "outputs": [
        {
          "components": [
            {
              "internalType": "uint256",
              "name": "_index",
              "type": "uint256"
            },
            {
              "internalType": "bytes32",
              "name": "_name",
              "type": "bytes32"
            },
            {
              "internalType": "enum SharedChain.ProjectStatus",
              "name": "_status",
              "type": "uint8"
            },
            {
              "internalType": "string",
              "name": "_ipfsFileCID",
              "type": "string"
            },
            {
              "internalType": "address",
              "name": "_projectAddress",
              "type": "address"
            },
            {
              "internalType": "address",
              "name": "_userAddress",
              "type": "address"
            },
            {
              "internalType": "uint256",
              "name": "_timestamp",
              "type": "uint256"
            },
            {
              "internalType": "string",
              "name": "_signature",
              "type": "string"
            }
          ],
          "internalType": "struct SharedChain.Project[]",
          "name": "",
          "type": "tuple[]"
        }
      ],
      "stateMutability": "view",
      "type": "function",
      "constant": true
    },
    {
      "inputs": [],
      "name": "createUniqueProjectRequestAddress",
      "outputs": [
        {
          "internalType": "address",
          "name": "",
          "type": "address"
        }
      ],
      "stateMutability": "nonpayable",
      "type": "function"
    },
    {
      "inputs": [
        {
          "internalType": "bytes32",
          "name": "_title",
          "type": "bytes32"
        },
        {
          "internalType": "uint256",
          "name": "_status",
          "type": "uint256"
        },
        {
          "internalType": "uint256",
          "name": "_requestStatus",
          "type": "uint256"
        },
        {
          "internalType": "address",
          "name": "_projectAddress",
          "type": "address"
        },
        {
          "internalType": "address",
          "name": "_projectReqAddress",
          "type": "address"
        },
        {
          "internalType": "string",
          "name": "_signature",
          "type": "string"
        }
      ],
      "name": "createProjectRequest",
      "outputs": [],
      "stateMutability": "nonpayable",
      "type": "function"
    },
    {
      "inputs": [],
      "name": "getAllProjectRequests",
      "outputs": [
        {
          "components": [
            {
              "internalType": "uint256",
              "name": "_index",
              "type": "uint256"
            },
            {
              "internalType": "bytes32",
              "name": "_title",
              "type": "bytes32"
            },
            {
              "internalType": "string",
              "name": "_comments",
              "type": "string"
            },
            {
              "internalType": "enum SharedChain.ProjectStatus",
              "name": "_status",
              "type": "uint8"
            },
            {
              "internalType": "enum SharedChain.RequestStatus",
              "name": "_requestStatus",
              "type": "uint8"
            },
            {
              "internalType": "address",
              "name": "_projectAddress",
              "type": "address"
            },
            {
              "internalType": "address",
              "name": "_userAddress",
              "type": "address"
            },
            {
              "internalType": "address",
              "name": "_requestAddress",
              "type": "address"
            },
            {
              "internalType": "uint256",
              "name": "_timestamp",
              "type": "uint256"
            },
            {
              "internalType": "string",
              "name": "_signature",
              "type": "string"
            }
          ],
          "internalType": "struct SharedChain.ProjectRequest[]",
          "name": "",
          "type": "tuple[]"
        }
      ],
      "stateMutability": "view",
      "type": "function",
      "constant": true
    },
    {
      "inputs": [
        {
          "internalType": "address",
          "name": "_projectAddress",
          "type": "address"
        }
      ],
      "name": "getLastProjectRequest",
      "outputs": [
        {
          "components": [
            {
              "internalType": "uint256",
              "name": "_index",
              "type": "uint256"
            },
            {
              "internalType": "bytes32",
              "name": "_title",
              "type": "bytes32"
            },
            {
              "internalType": "string",
              "name": "_comments",
              "type": "string"
            },
            {
              "internalType": "enum SharedChain.ProjectStatus",
              "name": "_status",
              "type": "uint8"
            },
            {
              "internalType": "enum SharedChain.RequestStatus",
              "name": "_requestStatus",
              "type": "uint8"
            },
            {
              "internalType": "address",
              "name": "_projectAddress",
              "type": "address"
            },
            {
              "internalType": "address",
              "name": "_userAddress",
              "type": "address"
            },
            {
              "internalType": "address",
              "name": "_requestAddress",
              "type": "address"
            },
            {
              "internalType": "uint256",
              "name": "_timestamp",
              "type": "uint256"
            },
            {
              "internalType": "string",
              "name": "_signature",
              "type": "string"
            }
          ],
          "internalType": "struct SharedChain.ProjectRequest",
          "name": "",
          "type": "tuple"
        }
      ],
      "stateMutability": "view",
      "type": "function",
      "constant": true
    },
    {
      "inputs": [
        {
          "internalType": "uint256",
          "name": "_index",
          "type": "uint256"
        },
        {
          "internalType": "uint256",
          "name": "_indexProjectRequest",
          "type": "uint256"
        },
        {
          "internalType": "string",
          "name": "_comments",
          "type": "string"
        },
        {
          "internalType": "uint256",
          "name": "_requestStatus",
          "type": "uint256"
        },
        {
          "internalType": "uint256",
          "name": "_projectStatus",
          "type": "uint256"
        },
        {
          "internalType": "address",
          "name": "_projectAddress",
          "type": "address"
        },
        {
          "internalType": "string",
          "name": "_signature",
          "type": "string"
        }
      ],
      "name": "updateRequest",
      "outputs": [],
      "stateMutability": "nonpayable",
      "type": "function"
    },
    {
      "inputs": [],
      "name": "getAllRequests",
      "outputs": [
        {
          "components": [
            {
              "internalType": "uint256",
              "name": "_index",
              "type": "uint256"
            },
            {
              "internalType": "uint256",
              "name": "_indexProjectRequest",
              "type": "uint256"
            },
            {
              "internalType": "bytes32",
              "name": "_title",
              "type": "bytes32"
            },
            {
              "internalType": "enum SharedChain.RequestStatus",
              "name": "_requestStatus",
              "type": "uint8"
            },
            {
              "internalType": "enum SharedChain.ProjectStatus",
              "name": "_projectStatus",
              "type": "uint8"
            },
            {
              "internalType": "enum SharedChain.RequestType",
              "name": "_requestType",
              "type": "uint8"
            },
            {
              "internalType": "address",
              "name": "_projectAddress",
              "type": "address"
            },
            {
              "internalType": "address",
              "name": "_userAddress",
              "type": "address"
            },
            {
              "internalType": "address",
              "name": "_requestAddress",
              "type": "address"
            },
            {
              "internalType": "uint256",
              "name": "_timestamp",
              "type": "uint256"
            },
            {
              "internalType": "string",
              "name": "_signature",
              "type": "string"
            }
          ],
          "internalType": "struct SharedChain.Request[]",
          "name": "",
          "type": "tuple[]"
        }
      ],
      "stateMutability": "view",
      "type": "function",
      "constant": true
    }
  ],
  "bytecode": "0x60806040526000600355600060055560006007556000600a556000600d5534801561002957600080fd5b50336000806101000a81548173ffffffffffffffffffffffffffffffffffffffff021916908373ffffffffffffffffffffffffffffffffffffffff16021790555033600460006101000a81548173ffffffffffffffffffffffffffffffffffffffff021916908373ffffffffffffffffffffffffffffffffffffffff1602179055506152b0806100ba6000396000f3fe608060405234801561001057600080fd5b50600436106101a95760003560e01c806381d12c58116100f9578063cf13f5d411610097578063e2842d7911610071578063e2842d791461053f578063f46d4b8a1461055d578063fb1a002a14610579578063fe360ea514610597576101a9565b8063cf13f5d4146104e9578063d210ce0514610505578063d67b1b9914610521576101a9565b806391009786116100d3578063910097861461043f578063a87430ba1461045b578063c19ded1314610492578063cc1ee4db146104cb576101a9565b806381d12c58146103b0578063840e78fd146103ea5780638da5cb5b14610421576101a9565b80634d93500d11610166578063663c226911610140578063663c22691461031457806376c932e01461033257806378e8cd851461036257806380d0382914610392576101a9565b80634d93500d1461029657806356a3eead146102b45780636386c1c7146102e4576101a9565b80630b287892146101ae57806317e8c952146101de5780632c91324c146101fc5780632d757d8e1461022c578063400003db1461024857806347ee45b914610266575b600080fd5b6101c860048036038101906101c39190613918565b6105b5565b6040516101d59190613bbf565b60405180910390f35b6101e661097d565b6040516101f39190613bf0565b60405180910390f35b61021660048036038101906102119190613c37565b610a0e565b6040516102239190613bf0565b60405180910390f35b61024660048036038101906102419190613d99565b610a4d565b005b610250610bc8565b60405161025d9190614016565b60405180910390f35b610280600480360381019061027b9190613918565b610f49565b60405161028d91906140ef565b60405180910390f35b61029e6111cc565b6040516102ab9190613bf0565b60405180910390f35b6102ce60048036038101906102c99190613c37565b61125d565b6040516102db9190613bf0565b60405180910390f35b6102fe60048036038101906102f99190613918565b61129c565b60405161030b9190614209565b60405180910390f35b61031c61144b565b604051610329919061423a565b60405180910390f35b61034c60048036038101906103479190613c37565b611451565b6040516103599190613bf0565b60405180910390f35b61037c60048036038101906103779190613c37565b611490565b6040516103899190613bf0565b60405180910390f35b61039a6114cf565b6040516103a791906143ce565b60405180910390f35b6103ca60048036038101906103c59190613c37565b61182f565b6040516103e19b9a999897969594939291906144af565b60405180910390f35b61040460048036038101906103ff9190613918565b611998565b604051610418989796959493929190614561565b60405180910390f35b610429611b3d565b6040516104369190613bf0565b60405180910390f35b610459600480360381019061045491906145ed565b611b61565b005b61047560048036038101906104709190613918565b611dbb565b60405161048998979695949392919061463c565b60405180910390f35b6104ac60048036038101906104a79190613c37565b611eb8565b6040516104c29a999897969594939291906146c1565b60405180910390f35b6104d3612096565b6040516104e0919061423a565b60405180910390f35b61050360048036038101906104fe9190614797565b61209c565b005b61051f600480360381019061051a9190614840565b6123be565b005b61052961278a565b604051610536919061423a565b60405180910390f35b610547612790565b6040516105549190614a5b565b60405180910390f35b61057760048036038101906105729190614a7d565b612a1c565b005b610581612d1f565b60405161058e9190614cf0565b60405180910390f35b61059f613053565b6040516105ac919061423a565b60405180910390f35b6105bd613576565b6105c5613576565b6000600a5411156109735760006001600a546105e19190614d41565b90505b60008110610971576009600082815260200190815260200160002060030160029054906101000a900473ffffffffffffffffffffffffffffffffffffffff1673ffffffffffffffffffffffffffffffffffffffff168473ffffffffffffffffffffffffffffffffffffffff16141561095e5760405180610140016040528060096000848152602001908152602001600020600001548152602001600960008481526020019081526020016000206001015481526020016009600084815260200190815260200160002060020180546106bb90614da4565b80601f01602080910402602001604051908101604052809291908181526020018280546106e790614da4565b80156107345780601f1061070957610100808354040283529160200191610734565b820191906000526020600020905b81548152906001019060200180831161071757829003601f168201915b505050505081526020016009600084815260200190815260200160002060030160009054906101000a900460ff16600481111561077457610773613a10565b5b81526020016009600084815260200190815260200160002060030160019054906101000a900460ff1660028111156107af576107ae613a10565b5b81526020016009600084815260200190815260200160002060030160029054906101000a900473ffffffffffffffffffffffffffffffffffffffff1673ffffffffffffffffffffffffffffffffffffffff1681526020016009600084815260200190815260200160002060040160009054906101000a900473ffffffffffffffffffffffffffffffffffffffff1673ffffffffffffffffffffffffffffffffffffffff1681526020016009600084815260200190815260200160002060050160009054906101000a900473ffffffffffffffffffffffffffffffffffffffff1673ffffffffffffffffffffffffffffffffffffffff1681526020014281526020016009600084815260200190815260200160002060070180546108d190614da4565b80601f01602080910402602001604051908101604052809291908181526020018280546108fd90614da4565b801561094a5780601f1061091f5761010080835404028352916020019161094a565b820191906000526020600020905b81548152906001019060200180831161092d57829003601f168201915b505050505081525091508192505050610978565b808061096990614dd6565b9150506105e4565b505b809150505b919050565b60006005600081548092919061099290614e00565b91905055507f6373643f2e213f2a73616c61733b646c412e3b735f6173000000000000000000600460009054906101000a900473ffffffffffffffffffffffffffffffffffffffff166005546040516020016109f093929190614ed3565b6040516020818303038152906040528051906020012060001c905090565b60028181548110610a1e57600080fd5b906000526020600020016000915054906101000a900473ffffffffffffffffffffffffffffffffffffffff1681565b836002811115610a6057610a5f613a10565b5b600c600089815260200190815260200160002060030160006101000a81548160ff02191690836002811115610a9857610a97613a10565b5b021790555080600c60008981526020019081526020016000206007019080519060200190610ac7929190613632565b5084600960008881526020019081526020016000206002019080519060200190610af2929190613632565b50836002811115610b0657610b05613a10565b5b6009600088815260200190815260200160002060030160016101000a81548160ff02191690836002811115610b3e57610b3d613a10565b5b0217905550826004811115610b5657610b55613a10565b5b600660008473ffffffffffffffffffffffffffffffffffffffff1673ffffffffffffffffffffffffffffffffffffffff16815260200190815260200160002060020160006101000a81548160ff02191690836004811115610bba57610bb9613a10565b5b021790555050505050505050565b60606000600a5467ffffffffffffffff811115610be857610be7613c6e565b5b604051908082528060200260200182016040528015610c2157816020015b610c0e613576565b815260200190600190039081610c065790505b50905060005b600754811015610f4157600060096000838152602001908152602001600020905080604051806101400160405290816000820154815260200160018201548152602001600282018054610c7990614da4565b80601f0160208091040260200160405190810160405280929190818152602001828054610ca590614da4565b8015610cf25780601f10610cc757610100808354040283529160200191610cf2565b820191906000526020600020905b815481529060010190602001808311610cd557829003601f168201915b505050505081526020016003820160009054906101000a900460ff166004811115610d2057610d1f613a10565b5b6004811115610d3257610d31613a10565b5b81526020016003820160019054906101000a900460ff166002811115610d5b57610d5a613a10565b5b6002811115610d6d57610d6c613a10565b5b81526020016003820160029054906101000a900473ffffffffffffffffffffffffffffffffffffffff1673ffffffffffffffffffffffffffffffffffffffff1673ffffffffffffffffffffffffffffffffffffffff1681526020016004820160009054906101000a900473ffffffffffffffffffffffffffffffffffffffff1673ffffffffffffffffffffffffffffffffffffffff1673ffffffffffffffffffffffffffffffffffffffff1681526020016005820160009054906101000a900473ffffffffffffffffffffffffffffffffffffffff1673ffffffffffffffffffffffffffffffffffffffff1673ffffffffffffffffffffffffffffffffffffffff16815260200160068201548152602001600782018054610e8d90614da4565b80601f0160208091040260200160405190810160405280929190818152602001828054610eb990614da4565b8015610f065780601f10610edb57610100808354040283529160200191610f06565b820191906000526020600020905b815481529060010190602001808311610ee957829003601f168201915b505050505081525050838381518110610f2257610f21614f10565b5b6020026020010181905250508080610f3990614e00565b915050610c27565b508091505090565b610f516136b8565b600660008373ffffffffffffffffffffffffffffffffffffffff1673ffffffffffffffffffffffffffffffffffffffff1681526020019081526020016000206040518061010001604052908160008201548152602001600182015481526020016002820160009054906101000a900460ff166004811115610fd557610fd4613a10565b5b6004811115610fe757610fe6613a10565b5b8152602001600382018054610ffb90614da4565b80601f016020809104026020016040519081016040528092919081815260200182805461102790614da4565b80156110745780601f1061104957610100808354040283529160200191611074565b820191906000526020600020905b81548152906001019060200180831161105757829003601f168201915b505050505081526020016004820160009054906101000a900473ffffffffffffffffffffffffffffffffffffffff1673ffffffffffffffffffffffffffffffffffffffff1673ffffffffffffffffffffffffffffffffffffffff1681526020016005820160009054906101000a900473ffffffffffffffffffffffffffffffffffffffff1673ffffffffffffffffffffffffffffffffffffffff1673ffffffffffffffffffffffffffffffffffffffff1681526020016006820154815260200160078201805461114390614da4565b80601f016020809104026020016040519081016040528092919081815260200182805461116f90614da4565b80156111bc5780601f10611191576101008083540402835291602001916111bc565b820191906000526020600020905b81548152906001019060200180831161119f57829003601f168201915b5050505050815250509050919050565b6000600560008154809291906111e190614e00565b91905055507f6373643f534073616c61733b646c413233345f442e3b735f6173000000000000600460009054906101000a900473ffffffffffffffffffffffffffffffffffffffff1660055460405160200161123f93929190614ed3565b6040516020818303038152906040528051906020012060001c905090565b600e818154811061126d57600080fd5b906000526020600020016000915054906101000a900473ffffffffffffffffffffffffffffffffffffffff1681565b6112a461373e565b600160008373ffffffffffffffffffffffffffffffffffffffff1673ffffffffffffffffffffffffffffffffffffffff168152602001908152602001600020604051806101000160405290816000820154815260200160018201805461130990614da4565b80601f016020809104026020016040519081016040528092919081815260200182805461133590614da4565b80156113825780601f1061135757610100808354040283529160200191611382565b820191906000526020600020905b81548152906001019060200180831161136557829003601f168201915b505050505081526020016002820154815260200160038201548152602001600482015481526020016005820160009054906101000a900460ff1660038111156113ce576113cd613a10565b5b60038111156113e0576113df613a10565b5b81526020016005820160019054906101000a900473ffffffffffffffffffffffffffffffffffffffff1673ffffffffffffffffffffffffffffffffffffffff1673ffffffffffffffffffffffffffffffffffffffff1681526020016006820154815250509050919050565b600d5481565b6008818154811061146157600080fd5b906000526020600020016000915054906101000a900473ffffffffffffffffffffffffffffffffffffffff1681565b600b81815481106114a057600080fd5b906000526020600020016000915054906101000a900473ffffffffffffffffffffffffffffffffffffffff1681565b6060600060075467ffffffffffffffff8111156114ef576114ee613c6e565b5b60405190808252806020026020018201604052801561152857816020015b6115156136b8565b81526020019060019003908161150d5790505b50905060005b6007548110156118275760006008828154811061154e5761154d614f10565b5b9060005260206000200160009054906101000a900473ffffffffffffffffffffffffffffffffffffffff1690506000600660008373ffffffffffffffffffffffffffffffffffffffff1673ffffffffffffffffffffffffffffffffffffffff1681526020019081526020016000209050806040518061010001604052908160008201548152602001600182015481526020016002820160009054906101000a900460ff16600481111561160457611603613a10565b5b600481111561161657611615613a10565b5b815260200160038201805461162a90614da4565b80601f016020809104026020016040519081016040528092919081815260200182805461165690614da4565b80156116a35780601f10611678576101008083540402835291602001916116a3565b820191906000526020600020905b81548152906001019060200180831161168657829003601f168201915b505050505081526020016004820160009054906101000a900473ffffffffffffffffffffffffffffffffffffffff1673ffffffffffffffffffffffffffffffffffffffff1673ffffffffffffffffffffffffffffffffffffffff1681526020016005820160009054906101000a900473ffffffffffffffffffffffffffffffffffffffff1673ffffffffffffffffffffffffffffffffffffffff1673ffffffffffffffffffffffffffffffffffffffff1681526020016006820154815260200160078201805461177290614da4565b80601f016020809104026020016040519081016040528092919081815260200182805461179e90614da4565b80156117eb5780601f106117c0576101008083540402835291602001916117eb565b820191906000526020600020905b8154815290600101906020018083116117ce57829003601f168201915b50505050508152505084848151811061180757611806614f10565b5b60200260200101819052505050808061181f90614e00565b91505061152e565b508091505090565b600c6020528060005260406000206000915090508060000154908060010154908060020154908060030160009054906101000a900460ff16908060030160019054906101000a900460ff16908060030160029054906101000a900460ff16908060030160039054906101000a900473ffffffffffffffffffffffffffffffffffffffff16908060040160009054906101000a900473ffffffffffffffffffffffffffffffffffffffff16908060050160009054906101000a900473ffffffffffffffffffffffffffffffffffffffff169080600601549080600701805461191590614da4565b80601f016020809104026020016040519081016040528092919081815260200182805461194190614da4565b801561198e5780601f106119635761010080835404028352916020019161198e565b820191906000526020600020905b81548152906001019060200180831161197157829003601f168201915b505050505090508b565b60066020528060005260406000206000915090508060000154908060010154908060020160009054906101000a900460ff16908060030180546119da90614da4565b80601f0160208091040260200160405190810160405280929190818152602001828054611a0690614da4565b8015611a535780601f10611a2857610100808354040283529160200191611a53565b820191906000526020600020905b815481529060010190602001808311611a3657829003601f168201915b5050505050908060040160009054906101000a900473ffffffffffffffffffffffffffffffffffffffff16908060050160009054906101000a900473ffffffffffffffffffffffffffffffffffffffff1690806006015490806007018054611aba90614da4565b80601f0160208091040260200160405190810160405280929190818152602001828054611ae690614da4565b8015611b335780601f10611b0857610100808354040283529160200191611b33565b820191906000526020600020905b815481529060010190602001808311611b1657829003601f168201915b5050505050905088565b60008054906101000a900473ffffffffffffffffffffffffffffffffffffffff1681565b816003811115611b7457611b73613a10565b5b600160008373ffffffffffffffffffffffffffffffffffffffff1673ffffffffffffffffffffffffffffffffffffffff16815260200190815260200160002060050160006101000a81548160ff02191690836003811115611bd857611bd7613a10565b5b02179055508073ffffffffffffffffffffffffffffffffffffffff16826003811115611c0757611c06613a10565b5b6003811115611c1957611c18613a10565b5b600160008473ffffffffffffffffffffffffffffffffffffffff1673ffffffffffffffffffffffffffffffffffffffff168152602001908152602001600020600101604051611c689190614fde565b60405180910390207ff17f3effabbd51830c4ffa8b6910ac12573d210009e0aedb1a55ae5026192e9a600160008673ffffffffffffffffffffffffffffffffffffffff1673ffffffffffffffffffffffffffffffffffffffff16815260200190815260200160002060000154600160008773ffffffffffffffffffffffffffffffffffffffff1673ffffffffffffffffffffffffffffffffffffffff16815260200190815260200160002060020154600160008873ffffffffffffffffffffffffffffffffffffffff1673ffffffffffffffffffffffffffffffffffffffff16815260200190815260200160002060030154600160008973ffffffffffffffffffffffffffffffffffffffff1673ffffffffffffffffffffffffffffffffffffffff1681526020019081526020016000206004015442604051611daf959493929190614ff5565b60405180910390a45050565b6001602052806000526040600020600091509050806000015490806001018054611de490614da4565b80601f0160208091040260200160405190810160405280929190818152602001828054611e1090614da4565b8015611e5d5780601f10611e3257610100808354040283529160200191611e5d565b820191906000526020600020905b815481529060010190602001808311611e4057829003601f168201915b5050505050908060020154908060030154908060040154908060050160009054906101000a900460ff16908060050160019054906101000a900473ffffffffffffffffffffffffffffffffffffffff16908060060154905088565b6009602052806000526040600020600091509050806000015490806001015490806002018054611ee790614da4565b80601f0160208091040260200160405190810160405280929190818152602001828054611f1390614da4565b8015611f605780601f10611f3557610100808354040283529160200191611f60565b820191906000526020600020905b815481529060010190602001808311611f4357829003601f168201915b5050505050908060030160009054906101000a900460ff16908060030160019054906101000a900460ff16908060030160029054906101000a900473ffffffffffffffffffffffffffffffffffffffff16908060040160009054906101000a900473ffffffffffffffffffffffffffffffffffffffff16908060050160009054906101000a900473ffffffffffffffffffffffffffffffffffffffff169080600601549080600701805461201390614da4565b80601f016020809104026020016040519081016040528092919081815260200182805461203f90614da4565b801561208c5780601f106120615761010080835404028352916020019161208c565b820191906000526020600020905b81548152906001019060200180831161206f57829003601f168201915b505050505090508a565b600a5481565b3373ffffffffffffffffffffffffffffffffffffffff1660008054906101000a900473ffffffffffffffffffffffffffffffffffffffff1673ffffffffffffffffffffffffffffffffffffffff161461212a576040517f08c379a000000000000000000000000000000000000000000000000000000000815260040161212190615094565b60405180910390fd5b604051806101000160405280600354815260200187815260200186815260200185815260200184815260200183600381111561216957612168613a10565b5b600381111561217b5761217a613a10565b5b81526020018273ffffffffffffffffffffffffffffffffffffffff16815260200142815250600160008373ffffffffffffffffffffffffffffffffffffffff1673ffffffffffffffffffffffffffffffffffffffff168152602001908152602001600020600082015181600001556020820151816001019080519060200190612205929190613632565b5060408201518160020155606082015181600301556080820151816004015560a08201518160050160006101000a81548160ff0219169083600381111561224f5761224e613a10565b5b021790555060c08201518160050160016101000a81548173ffffffffffffffffffffffffffffffffffffffff021916908373ffffffffffffffffffffffffffffffffffffffff16021790555060e082015181600601559050508073ffffffffffffffffffffffffffffffffffffffff168260038111156122d2576122d1613a10565b5b60038111156122e4576122e3613a10565b5b876040516122f291906150e5565b60405180910390207ff17f3effabbd51830c4ffa8b6910ac12573d210009e0aedb1a55ae5026192e9a60035489898942604051612333959493929190614ff5565b60405180910390a46002819080600181540180825580915050600190039060005260206000200160009091909190916101000a81548173ffffffffffffffffffffffffffffffffffffffff021916908373ffffffffffffffffffffffffffffffffffffffff160217905550600360008154809291906123b190614e00565b9190505550505050505050565b604051806101400160405280600a548152602001878152602001604051806020016040528060008152508152602001866004811115612400576123ff613a10565b5b600481111561241257612411613a10565b5b815260200185600281111561242a57612429613a10565b5b600281111561243c5761243b613a10565b5b81526020018473ffffffffffffffffffffffffffffffffffffffff168152602001600460009054906101000a900473ffffffffffffffffffffffffffffffffffffffff1673ffffffffffffffffffffffffffffffffffffffff1681526020018373ffffffffffffffffffffffffffffffffffffffff1681526020014281526020018281525060096000600a54815260200190815260200160002060008201518160000155602082015181600101556040820151816002019080519060200190612506929190613632565b5060608201518160030160006101000a81548160ff0219169083600481111561253257612531613a10565b5b021790555060808201518160030160016101000a81548160ff0219169083600281111561256257612561613a10565b5b021790555060a08201518160030160026101000a81548173ffffffffffffffffffffffffffffffffffffffff021916908373ffffffffffffffffffffffffffffffffffffffff16021790555060c08201518160040160006101000a81548173ffffffffffffffffffffffffffffffffffffffff021916908373ffffffffffffffffffffffffffffffffffffffff16021790555060e08201518160050160006101000a81548173ffffffffffffffffffffffffffffffffffffffff021916908373ffffffffffffffffffffffffffffffffffffffff1602179055506101008201518160060155610120820151816007019080519060200190612664929190613632565b50905050612678600a548786888787613059565b7f7c2cee03a4cddb6435d0bc7e59bd9a94142380a47bf8ead53d62091b274da965600a54878760048111156126b0576126af613a10565b5b8760028111156126c3576126c2613a10565b5b87600460009054906101000a900473ffffffffffffffffffffffffffffffffffffffff168842896040516126ff99989796959493929190615122565b60405180910390a1600b829080600181540180825580915050600190039060005260206000200160009091909190916101000a81548173ffffffffffffffffffffffffffffffffffffffff021916908373ffffffffffffffffffffffffffffffffffffffff160217905550600a600081548092919061277d90614e00565b9190505550505050505050565b60035481565b6060600060035467ffffffffffffffff8111156127b0576127af613c6e565b5b6040519080825280602002602001820160405280156127e957816020015b6127d661373e565b8152602001906001900390816127ce5790505b50905060005b600354811015612a145760006002828154811061280f5761280e614f10565b5b9060005260206000200160009054906101000a900473ffffffffffffffffffffffffffffffffffffffff1690506000600160008373ffffffffffffffffffffffffffffffffffffffff1673ffffffffffffffffffffffffffffffffffffffff16815260200190815260200160002090508060405180610100016040529081600082015481526020016001820180546128a690614da4565b80601f01602080910402602001604051908101604052809291908181526020018280546128d290614da4565b801561291f5780601f106128f45761010080835404028352916020019161291f565b820191906000526020600020905b81548152906001019060200180831161290257829003601f168201915b505050505081526020016002820154815260200160038201548152602001600482015481526020016005820160009054906101000a900460ff16600381111561296b5761296a613a10565b5b600381111561297d5761297c613a10565b5b81526020016005820160019054906101000a900473ffffffffffffffffffffffffffffffffffffffff1673ffffffffffffffffffffffffffffffffffffffff1673ffffffffffffffffffffffffffffffffffffffff1681526020016006820154815250508484815181106129f4576129f3614f10565b5b602002602001018190525050508080612a0c90614e00565b9150506127ef565b508091505090565b6040518061010001604052806007548152602001858152602001846004811115612a4957612a48613a10565b5b6004811115612a5b57612a5a613a10565b5b81526020018381526020018673ffffffffffffffffffffffffffffffffffffffff168152602001600460009054906101000a900473ffffffffffffffffffffffffffffffffffffffff1673ffffffffffffffffffffffffffffffffffffffff16815260200142815260200182815250600660008773ffffffffffffffffffffffffffffffffffffffff1673ffffffffffffffffffffffffffffffffffffffff168152602001908152602001600020600082015181600001556020820151816001015560408201518160020160006101000a81548160ff02191690836004811115612b4857612b47613a10565b5b02179055506060820151816003019080519060200190612b69929190613632565b5060808201518160040160006101000a81548173ffffffffffffffffffffffffffffffffffffffff021916908373ffffffffffffffffffffffffffffffffffffffff16021790555060a08201518160050160006101000a81548173ffffffffffffffffffffffffffffffffffffffff021916908373ffffffffffffffffffffffffffffffffffffffff16021790555060c0820151816006015560e0820151816007019080519060200190612c1e929190613632565b509050507fcde950623bdaadd4f1c9770d7dbd93064fb50de6bd0c5762c48a7cbff7faae5760075485856004811115612c5a57612c59613a10565b5b8589600460009054906101000a900473ffffffffffffffffffffffffffffffffffffffff164288604051612c95989796959493929190614561565b60405180910390a16008859080600181540180825580915050600190039060005260206000200160009091909190916101000a81548173ffffffffffffffffffffffffffffffffffffffff021916908373ffffffffffffffffffffffffffffffffffffffff16021790555060076000815480929190612d1390614e00565b91905055505050505050565b60606000600d5467ffffffffffffffff811115612d3f57612d3e613c6e565b5b604051908082528060200260200182016040528015612d7857816020015b612d656137b4565b815260200190600190039081612d5d5790505b50905060005b600d5481101561304b576000600c6000838152602001908152602001600020905080604051806101600160405290816000820154815260200160018201548152602001600282015481526020016003820160009054906101000a900460ff166002811115612def57612dee613a10565b5b6002811115612e0157612e00613a10565b5b81526020016003820160019054906101000a900460ff166004811115612e2a57612e29613a10565b5b6004811115612e3c57612e3b613a10565b5b81526020016003820160029054906101000a900460ff166001811115612e6557612e64613a10565b5b6001811115612e7757612e76613a10565b5b81526020016003820160039054906101000a900473ffffffffffffffffffffffffffffffffffffffff1673ffffffffffffffffffffffffffffffffffffffff1673ffffffffffffffffffffffffffffffffffffffff1681526020016004820160009054906101000a900473ffffffffffffffffffffffffffffffffffffffff1673ffffffffffffffffffffffffffffffffffffffff1673ffffffffffffffffffffffffffffffffffffffff1681526020016005820160009054906101000a900473ffffffffffffffffffffffffffffffffffffffff1673ffffffffffffffffffffffffffffffffffffffff1673ffffffffffffffffffffffffffffffffffffffff16815260200160068201548152602001600782018054612f9790614da4565b80601f0160208091040260200160405190810160405280929190818152602001828054612fc390614da4565b80156130105780601f10612fe557610100808354040283529160200191613010565b820191906000526020600020905b815481529060010190602001808311612ff357829003601f168201915b50505050508152505083838151811061302c5761302b614f10565b5b602002602001018190525050808061304390614e00565b915050612d7e565b508091505090565b60075481565b60006001600481111561306f5761306e613a10565b5b84600481111561308257613081613a10565b5b600481111561309457613093613a10565b5b14806130d65750600360048111156130af576130ae613a10565b5b8460048111156130c2576130c1613a10565b5b60048111156130d4576130d3613a10565b5b145b8061311657506004808111156130ef576130ee613a10565b5b84600481111561310257613101613a10565b5b600481111561311457613113613a10565b5b145b156131245760009050613169565b6002600481111561313857613137613a10565b5b84600481111561314b5761314a613a10565b5b600481111561315d5761315c613a10565b5b141561316857600190505b5b61317887878787858888613181565b50505050505050565b604051806101600160405280600d5481526020018881526020018781526020018660028111156131b4576131b3613a10565b5b60028111156131c6576131c5613a10565b5b81526020018560048111156131de576131dd613a10565b5b60048111156131f0576131ef613a10565b5b815260200184600181111561320857613207613a10565b5b81526020018373ffffffffffffffffffffffffffffffffffffffff168152602001600460009054906101000a900473ffffffffffffffffffffffffffffffffffffffff1673ffffffffffffffffffffffffffffffffffffffff1681526020018273ffffffffffffffffffffffffffffffffffffffff16815260200142815260200160405180602001604052806000815250815250600c6000600d54815260200190815260200160002060008201518160000155602082015181600101556040820151816002015560608201518160030160006101000a81548160ff021916908360028111156132fa576132f9613a10565b5b021790555060808201518160030160016101000a81548160ff0219169083600481111561332a57613329613a10565b5b021790555060a08201518160030160026101000a81548160ff0219169083600181111561335a57613359613a10565b5b021790555060c08201518160030160036101000a81548173ffffffffffffffffffffffffffffffffffffffff021916908373ffffffffffffffffffffffffffffffffffffffff16021790555060e08201518160040160006101000a81548173ffffffffffffffffffffffffffffffffffffffff021916908373ffffffffffffffffffffffffffffffffffffffff1602179055506101008201518160050160006101000a81548173ffffffffffffffffffffffffffffffffffffffff021916908373ffffffffffffffffffffffffffffffffffffffff160217905550610120820151816006015561014082015181600701908051906020019061345d929190613632565b509050507fd4b969e56d1e1f6ea9255e6df54d2edcd62299d8a2baf5804e3f5beef56c4390600d54888888600281111561349a57613499613a10565b5b8860048111156134ad576134ac613a10565b5b8888600460009054906101000a900473ffffffffffffffffffffffffffffffffffffffff1689426040516134ea9a999897969594939291906151ca565b60405180910390a1600e819080600181540180825580915050600190039060005260206000200160009091909190916101000a81548173ffffffffffffffffffffffffffffffffffffffff021916908373ffffffffffffffffffffffffffffffffffffffff160217905550600d600081548092919061356890614e00565b919050555050505050505050565b604051806101400160405280600081526020016000801916815260200160608152602001600060048111156135ae576135ad613a10565b5b8152602001600060028111156135c7576135c6613a10565b5b8152602001600073ffffffffffffffffffffffffffffffffffffffff168152602001600073ffffffffffffffffffffffffffffffffffffffff168152602001600073ffffffffffffffffffffffffffffffffffffffff16815260200160008152602001606081525090565b82805461363e90614da4565b90600052602060002090601f01602090048101928261366057600085556136a7565b82601f1061367957805160ff19168380011785556136a7565b828001600101855582156136a7579182015b828111156136a657825182559160200191906001019061368b565b5b5090506136b49190613889565b5090565b6040518061010001604052806000815260200160008019168152602001600060048111156136e9576136e8613a10565b5b815260200160608152602001600073ffffffffffffffffffffffffffffffffffffffff168152602001600073ffffffffffffffffffffffffffffffffffffffff16815260200160008152602001606081525090565b60405180610100016040528060008152602001606081526020016000801916815260200160008019168152602001600080191681526020016000600381111561378a57613789613a10565b5b8152602001600073ffffffffffffffffffffffffffffffffffffffff168152602001600081525090565b604051806101600160405280600081526020016000815260200160008019168152602001600060028111156137ec576137eb613a10565b5b81526020016000600481111561380557613804613a10565b5b81526020016000600181111561381e5761381d613a10565b5b8152602001600073ffffffffffffffffffffffffffffffffffffffff168152602001600073ffffffffffffffffffffffffffffffffffffffff168152602001600073ffffffffffffffffffffffffffffffffffffffff16815260200160008152602001606081525090565b5b808211156138a257600081600090555060010161388a565b5090565b6000604051905090565b600080fd5b600080fd5b600073ffffffffffffffffffffffffffffffffffffffff82169050919050565b60006138e5826138ba565b9050919050565b6138f5816138da565b811461390057600080fd5b50565b600081359050613912816138ec565b92915050565b60006020828403121561392e5761392d6138b0565b5b600061393c84828501613903565b91505092915050565b6000819050919050565b61395881613945565b82525050565b6000819050919050565b6139718161395e565b82525050565b600081519050919050565b600082825260208201905092915050565b60005b838110156139b1578082015181840152602081019050613996565b838111156139c0576000848401525b50505050565b6000601f19601f8301169050919050565b60006139e282613977565b6139ec8185613982565b93506139fc818560208601613993565b613a05816139c6565b840191505092915050565b7f4e487b7100000000000000000000000000000000000000000000000000000000600052602160045260246000fd5b60058110613a5057613a4f613a10565b5b50565b6000819050613a6182613a3f565b919050565b6000613a7182613a53565b9050919050565b613a8181613a66565b82525050565b60038110613a9857613a97613a10565b5b50565b6000819050613aa982613a87565b919050565b6000613ab982613a9b565b9050919050565b613ac981613aae565b82525050565b613ad8816138da565b82525050565b600061014083016000830151613af7600086018261394f565b506020830151613b0a6020860182613968565b5060408301518482036040860152613b2282826139d7565b9150506060830151613b376060860182613a78565b506080830151613b4a6080860182613ac0565b5060a0830151613b5d60a0860182613acf565b5060c0830151613b7060c0860182613acf565b5060e0830151613b8360e0860182613acf565b50610100830151613b9861010086018261394f565b50610120830151848203610120860152613bb282826139d7565b9150508091505092915050565b60006020820190508181036000830152613bd98184613ade565b905092915050565b613bea816138da565b82525050565b6000602082019050613c056000830184613be1565b92915050565b613c1481613945565b8114613c1f57600080fd5b50565b600081359050613c3181613c0b565b92915050565b600060208284031215613c4d57613c4c6138b0565b5b6000613c5b84828501613c22565b91505092915050565b600080fd5b600080fd5b7f4e487b7100000000000000000000000000000000000000000000000000000000600052604160045260246000fd5b613ca6826139c6565b810181811067ffffffffffffffff82111715613cc557613cc4613c6e565b5b80604052505050565b6000613cd86138a6565b9050613ce48282613c9d565b919050565b600067ffffffffffffffff821115613d0457613d03613c6e565b5b613d0d826139c6565b9050602081019050919050565b82818337600083830152505050565b6000613d3c613d3784613ce9565b613cce565b905082815260208101848484011115613d5857613d57613c69565b5b613d63848285613d1a565b509392505050565b600082601f830112613d8057613d7f613c64565b5b8135613d90848260208601613d29565b91505092915050565b600080600080600080600060e0888a031215613db857613db76138b0565b5b6000613dc68a828b01613c22565b9750506020613dd78a828b01613c22565b965050604088013567ffffffffffffffff811115613df857613df76138b5565b5b613e048a828b01613d6b565b9550506060613e158a828b01613c22565b9450506080613e268a828b01613c22565b93505060a0613e378a828b01613903565b92505060c088013567ffffffffffffffff811115613e5857613e576138b5565b5b613e648a828b01613d6b565b91505092959891949750929550565b600081519050919050565b600082825260208201905092915050565b6000819050602082019050919050565b600061014083016000830151613eb8600086018261394f565b506020830151613ecb6020860182613968565b5060408301518482036040860152613ee382826139d7565b9150506060830151613ef86060860182613a78565b506080830151613f0b6080860182613ac0565b5060a0830151613f1e60a0860182613acf565b5060c0830151613f3160c0860182613acf565b5060e0830151613f4460e0860182613acf565b50610100830151613f5961010086018261394f565b50610120830151848203610120860152613f7382826139d7565b9150508091505092915050565b6000613f8c8383613e9f565b905092915050565b6000602082019050919050565b6000613fac82613e73565b613fb68185613e7e565b935083602082028501613fc885613e8f565b8060005b858110156140045784840389528151613fe58582613f80565b9450613ff083613f94565b925060208a01995050600181019050613fcc565b50829750879550505050505092915050565b600060208201905081810360008301526140308184613fa1565b905092915050565b600061010083016000830151614051600086018261394f565b5060208301516140646020860182613968565b5060408301516140776040860182613a78565b506060830151848203606086015261408f82826139d7565b91505060808301516140a46080860182613acf565b5060a08301516140b760a0860182613acf565b5060c08301516140ca60c086018261394f565b5060e083015184820360e08601526140e282826139d7565b9150508091505092915050565b600060208201905081810360008301526141098184614038565b905092915050565b6004811061412257614121613a10565b5b50565b600081905061413382614111565b919050565b600061414382614125565b9050919050565b61415381614138565b82525050565b600061010083016000830151614172600086018261394f565b506020830151848203602086015261418a82826139d7565b915050604083015161419f6040860182613968565b5060608301516141b26060860182613968565b5060808301516141c56080860182613968565b5060a08301516141d860a086018261414a565b5060c08301516141eb60c0860182613acf565b5060e08301516141fe60e086018261394f565b508091505092915050565b600060208201905081810360008301526142238184614159565b905092915050565b61423481613945565b82525050565b600060208201905061424f600083018461422b565b92915050565b600081519050919050565b600082825260208201905092915050565b6000819050602082019050919050565b60006101008301600083015161429a600086018261394f565b5060208301516142ad6020860182613968565b5060408301516142c06040860182613a78565b50606083015184820360608601526142d882826139d7565b91505060808301516142ed6080860182613acf565b5060a083015161430060a0860182613acf565b5060c083015161431360c086018261394f565b5060e083015184820360e086015261432b82826139d7565b9150508091505092915050565b60006143448383614281565b905092915050565b6000602082019050919050565b600061436482614255565b61436e8185614260565b93508360208202850161438085614271565b8060005b858110156143bc578484038952815161439d8582614338565b94506143a88361434c565b925060208a01995050600181019050614384565b50829750879550505050505092915050565b600060208201905081810360008301526143e88184614359565b905092915050565b6143f98161395e565b82525050565b61440881613aae565b82525050565b61441781613a66565b82525050565b6002811061442e5761442d613a10565b5b50565b600081905061443f8261441d565b919050565b600061444f82614431565b9050919050565b61445f81614444565b82525050565b600082825260208201905092915050565b600061448182613977565b61448b8185614465565b935061449b818560208601613993565b6144a4816139c6565b840191505092915050565b6000610160820190506144c5600083018e61422b565b6144d2602083018d61422b565b6144df604083018c6143f0565b6144ec606083018b6143ff565b6144f9608083018a61440e565b61450660a0830189614456565b61451360c0830188613be1565b61452060e0830187613be1565b61452e610100830186613be1565b61453c61012083018561422b565b81810361014083015261454f8184614476565b90509c9b505050505050505050505050565b600061010082019050614577600083018b61422b565b614584602083018a6143f0565b614591604083018961440e565b81810360608301526145a38188614476565b90506145b26080830187613be1565b6145bf60a0830186613be1565b6145cc60c083018561422b565b81810360e08301526145de8184614476565b90509998505050505050505050565b60008060408385031215614604576146036138b0565b5b600061461285828601613c22565b925050602061462385828601613903565b9150509250929050565b61463681614138565b82525050565b600061010082019050614652600083018b61422b565b8181036020830152614664818a614476565b905061467360408301896143f0565b61468060608301886143f0565b61468d60808301876143f0565b61469a60a083018661462d565b6146a760c0830185613be1565b6146b460e083018461422b565b9998505050505050505050565b6000610140820190506146d7600083018d61422b565b6146e4602083018c6143f0565b81810360408301526146f6818b614476565b9050614705606083018a61440e565b61471260808301896143ff565b61471f60a0830188613be1565b61472c60c0830187613be1565b61473960e0830186613be1565b61474761010083018561422b565b81810361012083015261475a8184614476565b90509b9a5050505050505050505050565b6147748161395e565b811461477f57600080fd5b50565b6000813590506147918161476b565b92915050565b60008060008060008060c087890312156147b4576147b36138b0565b5b600087013567ffffffffffffffff8111156147d2576147d16138b5565b5b6147de89828a01613d6b565b96505060206147ef89828a01614782565b955050604061480089828a01614782565b945050606061481189828a01614782565b935050608061482289828a01613c22565b92505060a061483389828a01613903565b9150509295509295509295565b60008060008060008060c0878903121561485d5761485c6138b0565b5b600061486b89828a01614782565b965050602061487c89828a01613c22565b955050604061488d89828a01613c22565b945050606061489e89828a01613903565b93505060806148af89828a01613903565b92505060a087013567ffffffffffffffff8111156148d0576148cf6138b5565b5b6148dc89828a01613d6b565b9150509295509295509295565b600081519050919050565b600082825260208201905092915050565b6000819050602082019050919050565b60006101008301600083015161492e600086018261394f565b506020830151848203602086015261494682826139d7565b915050604083015161495b6040860182613968565b50606083015161496e6060860182613968565b5060808301516149816080860182613968565b5060a083015161499460a086018261414a565b5060c08301516149a760c0860182613acf565b5060e08301516149ba60e086018261394f565b508091505092915050565b60006149d18383614915565b905092915050565b6000602082019050919050565b60006149f1826148e9565b6149fb81856148f4565b935083602082028501614a0d85614905565b8060005b85811015614a495784840389528151614a2a85826149c5565b9450614a35836149d9565b925060208a01995050600181019050614a11565b50829750879550505050505092915050565b60006020820190508181036000830152614a7581846149e6565b905092915050565b600080600080600060a08688031215614a9957614a986138b0565b5b6000614aa788828901613903565b9550506020614ab888828901614782565b9450506040614ac988828901613c22565b935050606086013567ffffffffffffffff811115614aea57614ae96138b5565b5b614af688828901613d6b565b925050608086013567ffffffffffffffff811115614b1757614b166138b5565b5b614b2388828901613d6b565b9150509295509295909350565b600081519050919050565b600082825260208201905092915050565b6000819050602082019050919050565b614b6581614444565b82525050565b600061016083016000830151614b84600086018261394f565b506020830151614b97602086018261394f565b506040830151614baa6040860182613968565b506060830151614bbd6060860182613ac0565b506080830151614bd06080860182613a78565b5060a0830151614be360a0860182614b5c565b5060c0830151614bf660c0860182613acf565b5060e0830151614c0960e0860182613acf565b50610100830151614c1e610100860182613acf565b50610120830151614c3361012086018261394f565b50610140830151848203610140860152614c4d82826139d7565b9150508091505092915050565b6000614c668383614b6b565b905092915050565b6000602082019050919050565b6000614c8682614b30565b614c908185614b3b565b935083602082028501614ca285614b4c565b8060005b85811015614cde5784840389528151614cbf8582614c5a565b9450614cca83614c6e565b925060208a01995050600181019050614ca6565b50829750879550505050505092915050565b60006020820190508181036000830152614d0a8184614c7b565b905092915050565b7f4e487b7100000000000000000000000000000000000000000000000000000000600052601160045260246000fd5b6000614d4c82613945565b9150614d5783613945565b925082821015614d6a57614d69614d12565b5b828203905092915050565b7f4e487b7100000000000000000000000000000000000000000000000000000000600052602260045260246000fd5b60006002820490506001821680614dbc57607f821691505b60208210811415614dd057614dcf614d75565b5b50919050565b6000614de182613945565b91506000821415614df557614df4614d12565b5b600182039050919050565b6000614e0b82613945565b91507fffffffffffffffffffffffffffffffffffffffffffffffffffffffffffffffff821415614e3e57614e3d614d12565b5b600182019050919050565b6000819050919050565b614e64614e5f8261395e565b614e49565b82525050565b60008160601b9050919050565b6000614e8282614e6a565b9050919050565b6000614e9482614e77565b9050919050565b614eac614ea7826138da565b614e89565b82525050565b6000819050919050565b614ecd614ec882613945565b614eb2565b82525050565b6000614edf8286614e53565b602082019150614eef8285614e9b565b601482019150614eff8284614ebc565b602082019150819050949350505050565b7f4e487b7100000000000000000000000000000000000000000000000000000000600052603260045260246000fd5b600081905092915050565b60008190508160005260206000209050919050565b60008154614f6c81614da4565b614f768186614f3f565b94506001821660008114614f915760018114614fa257614fd5565b60ff19831686528186019350614fd5565b614fab85614f4a565b60005b83811015614fcd57815481890152600182019150602081019050614fae565b838801955050505b50505092915050565b6000614fea8284614f5f565b915081905092915050565b600060a08201905061500a600083018861422b565b61501760208301876143f0565b61502460408301866143f0565b61503160608301856143f0565b61503e608083018461422b565b9695505050505050565b7f596f7520617265206e6f7420616e206f776e6572000000000000000000000000600082015250565b600061507e601483614465565b915061508982615048565b602082019050919050565b600060208201905081810360008301526150ad81615071565b9050919050565b60006150bf82613977565b6150c98185614f3f565b93506150d9818560208601613993565b80840191505092915050565b60006150f182846150b4565b915081905092915050565b50565b600061510c600083614465565b9150615117826150fc565b600082019050919050565b600061014082019050615138600083018c61422b565b615145602083018b6143f0565b8181036040830152615156816150ff565b9050615165606083018a61440e565b61517260808301896143ff565b61517f60a0830188613be1565b61518c60c0830187613be1565b61519960e0830186613be1565b6151a761010083018561422b565b8181036101208301526151ba8184614476565b90509a9950505050505050505050565b6000610160820190506151e0600083018d61422b565b6151ed602083018c61422b565b6151fa604083018b6143f0565b615207606083018a6143ff565b615214608083018961440e565b61522160a0830188614456565b61522e60c0830187613be1565b61523b60e0830186613be1565b615249610100830185613be1565b61525761012083018461422b565b818103610140830152615269816150ff565b90509b9a505050505050505050505056fea26469706673582212201bb22b04843309fa8d975a1a9f65633f3e2e64e7675177c52be544a45bed1e7464736f6c634300080a0033",
  "immutableReferences": {},
  "source": "// SPDX-License-Identifier: MIT\r\npragma solidity >=0.8.0 <0.9.0;\r\n\r\nimport \"./UserChain.sol\";\r\nimport \"./SharedChain.sol\";\r\n\r\ncontract ProjectChain is UserChain, SharedChain {\r\n    bytes32 constant PROJECT_HASH_VALUE = \"csd?S@salas;dlA234_D.;s_as\";\r\n    bytes32 constant REQUEST_HASH_VALUE = \"csd?.!?*salas;dlA.;s_as\";\r\n\r\n    address _projectInitiator;\r\n    uint _indexUniqueAddress = 0;\r\n\r\n    constructor() {\r\n        _projectInitiator = msg.sender;\r\n    }\r\n\r\n    modifier onlyProjectInitiator {\r\n        require(users[_projectInitiator]._role == Roles.ProjectInitiator, \"You don't have the rights for this resources.\");\r\n        require(_projectInitiator == msg.sender, \"You are not a project initiator\");\r\n        _;\r\n    }\r\n\r\n\r\n    /**  PROJECT INITIATOR  */\r\n\r\n    mapping(address => Project) public projects;\r\n    uint public projectsCounter = 0;\r\n    address[] public projectsAddress;\r\n\r\n    function createUniqueProjectAddress() public returns (address) {\r\n        _indexUniqueAddress++;\r\n        return address(uint160(uint256(keccak256(abi.encodePacked(PROJECT_HASH_VALUE, _projectInitiator, _indexUniqueAddress)))));\r\n    }\r\n\r\n    function createProject(address _projectAddress, bytes32 _name, uint _status, string memory _ipfsFileCID, string memory _signature) public {\r\n        projects[_projectAddress] = Project(\r\n            projectsCounter, _name, ProjectStatus(_status),\r\n            _ipfsFileCID, _projectAddress,\r\n            _projectInitiator, block.timestamp, _signature\r\n        );\r\n\r\n        emit ProjectEvent(\r\n            projectsCounter, _name, ProjectStatus(_status),\r\n            _ipfsFileCID, _projectAddress, _projectInitiator,\r\n            block.timestamp, _signature\r\n        );\r\n        projectsAddress.push(_projectAddress);\r\n        projectsCounter++;\r\n    }\r\n\r\n    function getProjectInfo(address _address) public view returns (Project memory) {\r\n        return projects[_address];\r\n    }\r\n\r\n    function getAllProjects() public view returns(Project[] memory) {\r\n        Project[] memory allProjects = new Project[](projectsCounter);\r\n        for (uint index = 0; index < projectsCounter; index++) {\r\n            address _projectAddress = projectsAddress[index];\r\n            Project storage project = projects[_projectAddress];\r\n            allProjects[index] = project;\r\n        }\r\n        return allProjects;\r\n    }\r\n\r\n\r\n    /**  Project Requests  */\r\n\r\n    mapping(uint => ProjectRequest) public projectRequests;\r\n    uint public projectRequestsCounter = 0;\r\n    address[] public projectRequestsAddress;\r\n\r\n    function createUniqueProjectRequestAddress() public returns (address) {\r\n        _indexUniqueAddress++;\r\n        return address(uint160(uint256(keccak256(abi.encodePacked(REQUEST_HASH_VALUE, _projectInitiator, _indexUniqueAddress)))));\r\n    }\r\n\r\n    function createProjectRequest(\r\n        bytes32 _title, uint _status, uint _requestStatus,\r\n        address _projectAddress, address _projectReqAddress, string memory _signature\r\n    ) public {\r\n        projectRequests[projectRequestsCounter] = ProjectRequest(\r\n            projectRequestsCounter, _title, '', ProjectStatus(_status),\r\n            RequestStatus(_requestStatus), _projectAddress,\r\n            _projectInitiator, _projectReqAddress, block.timestamp, _signature\r\n        );\r\n\r\n        filterRequests(projectRequestsCounter, _title, _requestStatus, _status, _projectAddress, _projectReqAddress);\r\n\r\n        emit ProjectRequestEvent(\r\n            projectRequestsCounter, _title, '',\r\n            ProjectStatus(_status), RequestStatus(_requestStatus),\r\n            _projectAddress, _projectInitiator,\r\n            _projectReqAddress, block.timestamp, _signature\r\n        );\r\n        projectRequestsAddress.push(_projectReqAddress);\r\n        projectRequestsCounter++;\r\n    }\r\n\r\n    function filterRequests(\r\n        uint _indexProjectRequest,\r\n        bytes32 _title,\r\n        uint _requestStatus,\r\n        uint _projectStatus,\r\n        address _projectAddress,\r\n        address _requestAddress\r\n    ) internal {\r\n        RequestType _requestType;\r\n        if (\r\n            ProjectStatus(_projectStatus) == ProjectStatus.ToApprove ||\r\n            ProjectStatus(_projectStatus) == ProjectStatus.FinalizationCheck ||\r\n            ProjectStatus(_projectStatus) == ProjectStatus.Completed\r\n        ) {\r\n            _requestType = RequestType.SupervisorReq;\r\n        } else if (ProjectStatus(_projectStatus) == ProjectStatus.StartProject) {\r\n            _requestType = RequestType.CompanyReq;\r\n        }\r\n        createRequest(_indexProjectRequest, _title, _requestStatus, _projectStatus, _requestType, _projectAddress, _requestAddress);\r\n    }\r\n\r\n    function getAllProjectRequests() public view returns(ProjectRequest[] memory) {\r\n        ProjectRequest[] memory allProjectRequests = new ProjectRequest[](projectRequestsCounter);\r\n        for (uint index = 0; index < projectsCounter; index++) {\r\n            ProjectRequest storage projectReq = projectRequests[index];\r\n            allProjectRequests[index] = projectReq;\r\n        }\r\n        return allProjectRequests;\r\n    }\r\n\r\n    function getLastProjectRequest(address _projectAddress) public view returns(ProjectRequest memory) {\r\n        ProjectRequest memory request;\r\n        if (projectRequestsCounter > 0) {\r\n            for (uint index = projectRequestsCounter - 1; index >= 0; index--) {\r\n                if (_projectAddress == projectRequests[index]._projectAddress) {\r\n                    request = ProjectRequest(\r\n                        projectRequests[index]._index,\r\n                        projectRequests[index]._title,\r\n                        projectRequests[index]._comments,\r\n                        projectRequests[index]._status,\r\n                        projectRequests[index]._requestStatus,\r\n                        projectRequests[index]._projectAddress,\r\n                        projectRequests[index]._userAddress,\r\n                        projectRequests[index]._requestAddress,\r\n                        block.timestamp,\r\n                        projectRequests[index]._signature\r\n                    );\r\n                    return request;\r\n                }\r\n            }\r\n        }\r\n        return request;\r\n    }\r\n\r\n\r\n    /**  DATA FOR SUPERVISOR && COMPANY  */\r\n\r\n    mapping(uint => Request) public requests;\r\n    uint public requestsCounter = 0;\r\n    address[] public requestsAddress;\r\n\r\n    function createRequest(\r\n        uint _indexProjectRequest,\r\n        bytes32 _title,\r\n        uint _requestStatus,\r\n        uint _projectStatus,\r\n        RequestType _requestType,\r\n        address _projectAddress,\r\n        address _requestAddress\r\n    ) internal {\r\n        requests[requestsCounter] = Request(\r\n            requestsCounter, _indexProjectRequest, _title,\r\n            RequestStatus(_requestStatus), ProjectStatus(_projectStatus),\r\n            _requestType, _projectAddress, _projectInitiator,\r\n            _requestAddress, block.timestamp, ''\r\n        );\r\n\r\n        emit RequestEvent(\r\n            requestsCounter, _indexProjectRequest, _title,\r\n            RequestStatus(_requestStatus), ProjectStatus(_projectStatus),\r\n            _requestType, _projectAddress, _projectInitiator,\r\n            _requestAddress, block.timestamp, ''\r\n        );\r\n        requestsAddress.push(_requestAddress);\r\n        requestsCounter++;\r\n    }\r\n\r\n    function updateRequest(\r\n        uint _index,\r\n        uint _indexProjectRequest,\r\n        string memory _comments,\r\n        uint _requestStatus,\r\n        uint _projectStatus,\r\n        address _projectAddress,\r\n        string memory _signature\r\n    ) public {\r\n        // Update request status in the Requests Mapping and Struct Array\r\n        requests[_index]._requestStatus = RequestStatus(_requestStatus);\r\n        requests[_index]._signature = _signature;\r\n\r\n        //uint index = requests[_index]._index;\r\n        //allRequests[index]._requestStatus = RequestStatus(_requestStatus);\r\n        //allRequests[index]._signature = _signature;\r\n\r\n        // Update project request status in the Project Requests Mapping and Struct Array\r\n        projectRequests[_indexProjectRequest]._comments = _comments;\r\n        projectRequests[_indexProjectRequest]._requestStatus = RequestStatus(_requestStatus);\r\n\r\n        // Update ProjectStatus to the requested status - Porject Mapping and Struct Array\r\n        projects[_projectAddress]._status = ProjectStatus(_projectStatus);\r\n\r\n\r\n        // !!!!! OBSERVATION\r\n        //emit changes for both project request mapping and request mapping\r\n    }\r\n\r\n    function getAllRequests() public view returns(Request[] memory) {\r\n        Request[] memory allRequests = new Request[](requestsCounter);\r\n        for (uint index = 0; index < requestsCounter; index++) {\r\n            Request storage request = requests[index];\r\n            allRequests[index] = request;\r\n        }\r\n        return allRequests;\r\n    }\r\n}\r\n",
  "sourcePath": "/mnt/c/Users/Beniamin/source/repos/DissertationProject/contracts/ProjectChain.sol",
  "compiler": {
    "name": "solc",
    "version": "0.8.10+commit.fc410830.Emscripten.clang"
  },
  "schemaVersion": "3.4.3",
  "updatedAt": "2021-11-26T14:30:34.101Z",
  "networkType": "ethereum",
  "devdoc": {
    "kind": "dev",
    "methods": {},
    "version": 1
  },
  "userdoc": {
    "kind": "user",
    "methods": {
      "projectRequests(uint256)": {
        "notice": "Project Requests  "
      },
      "projects(address)": {
        "notice": "PROJECT INITIATOR  "
      },
      "requests(uint256)": {
        "notice": "DATA FOR SUPERVISOR && COMPANY  "
      }
    },
    "version": 1
  }
}