{
  "contractName": "ProjectChain",
  "abi": [
    {
      "inputs": [],
      "stateMutability": "nonpayable",
      "type": "constructor"
    },
    {
      "anonymous": false,
      "inputs": [
        {
          "components": [
            {
              "internalType": "uint256",
              "name": "_index",
              "type": "uint256"
            },
            {
              "internalType": "string",
              "name": "_name",
              "type": "string"
            },
            {
              "internalType": "enum SharedChain.ProjectStatus",
              "name": "_status",
              "type": "uint8"
            },
            {
              "internalType": "string",
              "name": "_ipfsFileCID",
              "type": "string"
            },
            {
              "internalType": "address",
              "name": "_projectAddress",
              "type": "address"
            },
            {
              "internalType": "address",
              "name": "_signerAddress",
              "type": "address"
            },
            {
              "internalType": "address",
              "name": "_companyAddress",
              "type": "address"
            },
            {
              "internalType": "bool",
              "name": "_assigned",
              "type": "bool"
            },
            {
              "internalType": "uint256",
              "name": "_timestamp",
              "type": "uint256"
            },
            {
              "internalType": "string",
              "name": "_signature",
              "type": "string"
            }
          ],
          "indexed": false,
          "internalType": "struct SharedChain.Project",
          "name": "_project",
          "type": "tuple"
        },
        {
          "indexed": true,
          "internalType": "address",
          "name": "_projectAddress",
          "type": "address"
        },
        {
          "indexed": true,
          "internalType": "address",
          "name": "_companyAddress",
          "type": "address"
        }
      ],
      "name": "ProjectEvent",
      "type": "event"
    },
    {
      "anonymous": false,
      "inputs": [
        {
          "components": [
            {
              "internalType": "uint256",
              "name": "_index",
              "type": "uint256"
            },
            {
              "internalType": "string",
              "name": "_title",
              "type": "string"
            },
            {
              "internalType": "string",
              "name": "_comments",
              "type": "string"
            },
            {
              "internalType": "enum SharedChain.ProjectStatus",
              "name": "_projectStatus",
              "type": "uint8"
            },
            {
              "internalType": "enum SharedChain.RequestStatus",
              "name": "_requestStatus",
              "type": "uint8"
            },
            {
              "internalType": "enum SharedChain.RequestType",
              "name": "_requestType",
              "type": "uint8"
            },
            {
              "internalType": "address",
              "name": "_projectAddress",
              "type": "address"
            },
            {
              "internalType": "address",
              "name": "_requestAddress",
              "type": "address"
            },
            {
              "internalType": "address",
              "name": "_signerAddress",
              "type": "address"
            },
            {
              "internalType": "uint256",
              "name": "_timestamp",
              "type": "uint256"
            },
            {
              "internalType": "string",
              "name": "_signature",
              "type": "string"
            }
          ],
          "indexed": false,
          "internalType": "struct SharedChain.Request",
          "name": "_request",
          "type": "tuple"
        },
        {
          "indexed": true,
          "internalType": "address",
          "name": "_requestAddress",
          "type": "address"
        },
        {
          "indexed": true,
          "internalType": "address",
          "name": "_projectAddress",
          "type": "address"
        }
      ],
      "name": "RequestEvent",
      "type": "event"
    },
    {
      "anonymous": false,
      "inputs": [
        {
          "components": [
            {
              "internalType": "bytes32",
              "name": "_firstname",
              "type": "bytes32"
            },
            {
              "internalType": "bytes32",
              "name": "_lastname",
              "type": "bytes32"
            },
            {
              "internalType": "enum SharedChain.Roles",
              "name": "_role",
              "type": "uint8"
            },
            {
              "internalType": "address",
              "name": "_walletAddress",
              "type": "address"
            },
            {
              "internalType": "uint256",
              "name": "_timestamp",
              "type": "uint256"
            }
          ],
          "indexed": false,
          "internalType": "struct SharedChain.User",
          "name": "_user",
          "type": "tuple"
        },
        {
          "indexed": true,
          "internalType": "address",
          "name": "_walletAddress",
          "type": "address"
        }
      ],
      "name": "UserEvent",
      "type": "event"
    },
    {
      "inputs": [
        {
          "internalType": "uint256",
          "name": "_role",
          "type": "uint256"
        },
        {
          "internalType": "address",
          "name": "_walletAddress",
          "type": "address"
        }
      ],
      "name": "changeUserRole",
      "outputs": [],
      "stateMutability": "nonpayable",
      "type": "function"
    },
    {
      "inputs": [],
      "name": "getAllUsers",
      "outputs": [
        {
          "components": [
            {
              "internalType": "bytes32",
              "name": "_firstname",
              "type": "bytes32"
            },
            {
              "internalType": "bytes32",
              "name": "_lastname",
              "type": "bytes32"
            },
            {
              "internalType": "enum SharedChain.Roles",
              "name": "_role",
              "type": "uint8"
            },
            {
              "internalType": "address",
              "name": "_walletAddress",
              "type": "address"
            },
            {
              "internalType": "uint256",
              "name": "_timestamp",
              "type": "uint256"
            }
          ],
          "internalType": "struct SharedChain.User[]",
          "name": "",
          "type": "tuple[]"
        }
      ],
      "stateMutability": "view",
      "type": "function",
      "constant": true
    },
    {
      "inputs": [
        {
          "internalType": "address",
          "name": "_walletAddress",
          "type": "address"
        }
      ],
      "name": "getUserInfo",
      "outputs": [
        {
          "components": [
            {
              "internalType": "bytes32",
              "name": "_firstname",
              "type": "bytes32"
            },
            {
              "internalType": "bytes32",
              "name": "_lastname",
              "type": "bytes32"
            },
            {
              "internalType": "enum SharedChain.Roles",
              "name": "_role",
              "type": "uint8"
            },
            {
              "internalType": "address",
              "name": "_walletAddress",
              "type": "address"
            },
            {
              "internalType": "uint256",
              "name": "_timestamp",
              "type": "uint256"
            }
          ],
          "internalType": "struct SharedChain.User",
          "name": "",
          "type": "tuple"
        }
      ],
      "stateMutability": "view",
      "type": "function",
      "constant": true
    },
    {
      "inputs": [],
      "name": "owner",
      "outputs": [
        {
          "internalType": "address",
          "name": "",
          "type": "address"
        }
      ],
      "stateMutability": "view",
      "type": "function",
      "constant": true
    },
    {
      "inputs": [
        {
          "internalType": "address",
          "name": "",
          "type": "address"
        }
      ],
      "name": "projects",
      "outputs": [
        {
          "internalType": "uint256",
          "name": "_index",
          "type": "uint256"
        },
        {
          "internalType": "string",
          "name": "_name",
          "type": "string"
        },
        {
          "internalType": "enum SharedChain.ProjectStatus",
          "name": "_status",
          "type": "uint8"
        },
        {
          "internalType": "string",
          "name": "_ipfsFileCID",
          "type": "string"
        },
        {
          "internalType": "address",
          "name": "_projectAddress",
          "type": "address"
        },
        {
          "internalType": "address",
          "name": "_signerAddress",
          "type": "address"
        },
        {
          "internalType": "address",
          "name": "_companyAddress",
          "type": "address"
        },
        {
          "internalType": "bool",
          "name": "_assigned",
          "type": "bool"
        },
        {
          "internalType": "uint256",
          "name": "_timestamp",
          "type": "uint256"
        },
        {
          "internalType": "string",
          "name": "_signature",
          "type": "string"
        }
      ],
      "stateMutability": "view",
      "type": "function",
      "constant": true
    },
    {
      "inputs": [
        {
          "internalType": "uint256",
          "name": "",
          "type": "uint256"
        }
      ],
      "name": "projectsAddress",
      "outputs": [
        {
          "internalType": "address",
          "name": "",
          "type": "address"
        }
      ],
      "stateMutability": "view",
      "type": "function",
      "constant": true
    },
    {
      "inputs": [],
      "name": "projectsCounter",
      "outputs": [
        {
          "internalType": "uint256",
          "name": "",
          "type": "uint256"
        }
      ],
      "stateMutability": "view",
      "type": "function",
      "constant": true
    },
    {
      "inputs": [
        {
          "internalType": "bytes32",
          "name": "_firstname",
          "type": "bytes32"
        },
        {
          "internalType": "bytes32",
          "name": "_lastname",
          "type": "bytes32"
        },
        {
          "internalType": "uint256",
          "name": "_role",
          "type": "uint256"
        },
        {
          "internalType": "address",
          "name": "_walletAddress",
          "type": "address"
        }
      ],
      "name": "registerUser",
      "outputs": [],
      "stateMutability": "nonpayable",
      "type": "function"
    },
    {
      "inputs": [
        {
          "internalType": "address",
          "name": "",
          "type": "address"
        }
      ],
      "name": "requests",
      "outputs": [
        {
          "internalType": "uint256",
          "name": "_index",
          "type": "uint256"
        },
        {
          "internalType": "string",
          "name": "_title",
          "type": "string"
        },
        {
          "internalType": "string",
          "name": "_comments",
          "type": "string"
        },
        {
          "internalType": "enum SharedChain.ProjectStatus",
          "name": "_projectStatus",
          "type": "uint8"
        },
        {
          "internalType": "enum SharedChain.RequestStatus",
          "name": "_requestStatus",
          "type": "uint8"
        },
        {
          "internalType": "enum SharedChain.RequestType",
          "name": "_requestType",
          "type": "uint8"
        },
        {
          "internalType": "address",
          "name": "_projectAddress",
          "type": "address"
        },
        {
          "internalType": "address",
          "name": "_requestAddress",
          "type": "address"
        },
        {
          "internalType": "address",
          "name": "_signerAddress",
          "type": "address"
        },
        {
          "internalType": "uint256",
          "name": "_timestamp",
          "type": "uint256"
        },
        {
          "internalType": "string",
          "name": "_signature",
          "type": "string"
        }
      ],
      "stateMutability": "view",
      "type": "function",
      "constant": true
    },
    {
      "inputs": [
        {
          "internalType": "uint256",
          "name": "",
          "type": "uint256"
        }
      ],
      "name": "requestsAddress",
      "outputs": [
        {
          "internalType": "address",
          "name": "",
          "type": "address"
        }
      ],
      "stateMutability": "view",
      "type": "function",
      "constant": true
    },
    {
      "inputs": [],
      "name": "requestsCounter",
      "outputs": [
        {
          "internalType": "uint256",
          "name": "",
          "type": "uint256"
        }
      ],
      "stateMutability": "view",
      "type": "function",
      "constant": true
    },
    {
      "inputs": [
        {
          "internalType": "address",
          "name": "",
          "type": "address"
        }
      ],
      "name": "users",
      "outputs": [
        {
          "internalType": "bytes32",
          "name": "_firstname",
          "type": "bytes32"
        },
        {
          "internalType": "bytes32",
          "name": "_lastname",
          "type": "bytes32"
        },
        {
          "internalType": "enum SharedChain.Roles",
          "name": "_role",
          "type": "uint8"
        },
        {
          "internalType": "address",
          "name": "_walletAddress",
          "type": "address"
        },
        {
          "internalType": "uint256",
          "name": "_timestamp",
          "type": "uint256"
        }
      ],
      "stateMutability": "view",
      "type": "function",
      "constant": true
    },
    {
      "inputs": [],
      "name": "usersCounter",
      "outputs": [
        {
          "internalType": "uint256",
          "name": "",
          "type": "uint256"
        }
      ],
      "stateMutability": "view",
      "type": "function",
      "constant": true
    },
    {
      "inputs": [
        {
          "internalType": "string",
          "name": "_name",
          "type": "string"
        },
        {
          "internalType": "uint256",
          "name": "_index",
          "type": "uint256"
        }
      ],
      "name": "createUniqueProjectAddress",
      "outputs": [
        {
          "internalType": "address",
          "name": "",
          "type": "address"
        }
      ],
      "stateMutability": "view",
      "type": "function",
      "constant": true
    },
    {
      "inputs": [
        {
          "internalType": "address",
          "name": "_projectAddress",
          "type": "address"
        },
        {
          "internalType": "string",
          "name": "_name",
          "type": "string"
        },
        {
          "internalType": "uint256",
          "name": "_status",
          "type": "uint256"
        },
        {
          "internalType": "string",
          "name": "_ipfsFileCID",
          "type": "string"
        },
        {
          "internalType": "string",
          "name": "_signature",
          "type": "string"
        }
      ],
      "name": "createProject",
      "outputs": [],
      "stateMutability": "nonpayable",
      "type": "function"
    },
    {
      "inputs": [
        {
          "internalType": "address",
          "name": "_projectAddress",
          "type": "address"
        },
        {
          "internalType": "string",
          "name": "_ipfsFileCID",
          "type": "string"
        },
        {
          "internalType": "string",
          "name": "_signature",
          "type": "string"
        }
      ],
      "name": "updateProject",
      "outputs": [],
      "stateMutability": "nonpayable",
      "type": "function"
    },
    {
      "inputs": [
        {
          "internalType": "address",
          "name": "_address",
          "type": "address"
        }
      ],
      "name": "getProjectInfo",
      "outputs": [
        {
          "components": [
            {
              "internalType": "uint256",
              "name": "_index",
              "type": "uint256"
            },
            {
              "internalType": "string",
              "name": "_name",
              "type": "string"
            },
            {
              "internalType": "enum SharedChain.ProjectStatus",
              "name": "_status",
              "type": "uint8"
            },
            {
              "internalType": "string",
              "name": "_ipfsFileCID",
              "type": "string"
            },
            {
              "internalType": "address",
              "name": "_projectAddress",
              "type": "address"
            },
            {
              "internalType": "address",
              "name": "_signerAddress",
              "type": "address"
            },
            {
              "internalType": "address",
              "name": "_companyAddress",
              "type": "address"
            },
            {
              "internalType": "bool",
              "name": "_assigned",
              "type": "bool"
            },
            {
              "internalType": "uint256",
              "name": "_timestamp",
              "type": "uint256"
            },
            {
              "internalType": "string",
              "name": "_signature",
              "type": "string"
            }
          ],
          "internalType": "struct SharedChain.Project",
          "name": "",
          "type": "tuple"
        }
      ],
      "stateMutability": "view",
      "type": "function",
      "constant": true
    },
    {
      "inputs": [
        {
          "internalType": "address",
          "name": "_walletAddress",
          "type": "address"
        }
      ],
      "name": "getProjectsByUserAddress",
      "outputs": [
        {
          "components": [
            {
              "internalType": "uint256",
              "name": "_index",
              "type": "uint256"
            },
            {
              "internalType": "string",
              "name": "_name",
              "type": "string"
            },
            {
              "internalType": "enum SharedChain.ProjectStatus",
              "name": "_status",
              "type": "uint8"
            },
            {
              "internalType": "string",
              "name": "_ipfsFileCID",
              "type": "string"
            },
            {
              "internalType": "address",
              "name": "_projectAddress",
              "type": "address"
            },
            {
              "internalType": "address",
              "name": "_signerAddress",
              "type": "address"
            },
            {
              "internalType": "address",
              "name": "_companyAddress",
              "type": "address"
            },
            {
              "internalType": "bool",
              "name": "_assigned",
              "type": "bool"
            },
            {
              "internalType": "uint256",
              "name": "_timestamp",
              "type": "uint256"
            },
            {
              "internalType": "string",
              "name": "_signature",
              "type": "string"
            }
          ],
          "internalType": "struct SharedChain.Project[]",
          "name": "",
          "type": "tuple[]"
        }
      ],
      "stateMutability": "view",
      "type": "function",
      "constant": true
    },
    {
      "inputs": [
        {
          "internalType": "string",
          "name": "_title",
          "type": "string"
        },
        {
          "internalType": "uint256",
          "name": "_index",
          "type": "uint256"
        }
      ],
      "name": "createUniqueRequestAddress",
      "outputs": [
        {
          "internalType": "address",
          "name": "",
          "type": "address"
        }
      ],
      "stateMutability": "view",
      "type": "function",
      "constant": true
    },
    {
      "inputs": [
        {
          "internalType": "string",
          "name": "_title",
          "type": "string"
        },
        {
          "internalType": "uint256",
          "name": "_projectStatus",
          "type": "uint256"
        },
        {
          "internalType": "uint256",
          "name": "_requestStatus",
          "type": "uint256"
        },
        {
          "internalType": "address",
          "name": "_projectAddress",
          "type": "address"
        },
        {
          "internalType": "address",
          "name": "_requestAddress",
          "type": "address"
        },
        {
          "internalType": "string",
          "name": "_signature",
          "type": "string"
        }
      ],
      "name": "createRequest",
      "outputs": [],
      "stateMutability": "nonpayable",
      "type": "function"
    },
    {
      "inputs": [
        {
          "internalType": "string",
          "name": "_comments",
          "type": "string"
        },
        {
          "internalType": "uint256",
          "name": "_requestStatus",
          "type": "uint256"
        },
        {
          "internalType": "uint256",
          "name": "_projectStatus",
          "type": "uint256"
        },
        {
          "internalType": "address",
          "name": "_projectAddress",
          "type": "address"
        },
        {
          "internalType": "address",
          "name": "_requestAddress",
          "type": "address"
        },
        {
          "internalType": "string",
          "name": "_signature",
          "type": "string"
        }
      ],
      "name": "updateSupervisorRequest",
      "outputs": [],
      "stateMutability": "nonpayable",
      "type": "function"
    },
    {
      "inputs": [
        {
          "internalType": "string",
          "name": "_comments",
          "type": "string"
        },
        {
          "internalType": "uint256",
          "name": "_requestStatus",
          "type": "uint256"
        },
        {
          "internalType": "uint256",
          "name": "_projectStatus",
          "type": "uint256"
        },
        {
          "internalType": "address",
          "name": "_projectAddress",
          "type": "address"
        },
        {
          "internalType": "address",
          "name": "_requestAddress",
          "type": "address"
        },
        {
          "internalType": "string",
          "name": "_signature",
          "type": "string"
        }
      ],
      "name": "updateCompanyRequest",
      "outputs": [],
      "stateMutability": "nonpayable",
      "type": "function"
    },
    {
      "inputs": [],
      "name": "getAllRequests",
      "outputs": [
        {
          "components": [
            {
              "internalType": "uint256",
              "name": "_index",
              "type": "uint256"
            },
            {
              "internalType": "string",
              "name": "_title",
              "type": "string"
            },
            {
              "internalType": "string",
              "name": "_comments",
              "type": "string"
            },
            {
              "internalType": "enum SharedChain.ProjectStatus",
              "name": "_projectStatus",
              "type": "uint8"
            },
            {
              "internalType": "enum SharedChain.RequestStatus",
              "name": "_requestStatus",
              "type": "uint8"
            },
            {
              "internalType": "enum SharedChain.RequestType",
              "name": "_requestType",
              "type": "uint8"
            },
            {
              "internalType": "address",
              "name": "_projectAddress",
              "type": "address"
            },
            {
              "internalType": "address",
              "name": "_requestAddress",
              "type": "address"
            },
            {
              "internalType": "address",
              "name": "_signerAddress",
              "type": "address"
            },
            {
              "internalType": "uint256",
              "name": "_timestamp",
              "type": "uint256"
            },
            {
              "internalType": "string",
              "name": "_signature",
              "type": "string"
            }
          ],
          "internalType": "struct SharedChain.Request[]",
          "name": "",
          "type": "tuple[]"
        }
      ],
      "stateMutability": "view",
      "type": "function",
      "constant": true
    },
    {
      "inputs": [
        {
          "internalType": "address",
          "name": "_projectAddress",
          "type": "address"
        },
        {
          "internalType": "address",
          "name": "_requestAddress",
          "type": "address"
        }
      ],
      "name": "getLastProjectRequest",
      "outputs": [
        {
          "components": [
            {
              "internalType": "uint256",
              "name": "_index",
              "type": "uint256"
            },
            {
              "internalType": "string",
              "name": "_title",
              "type": "string"
            },
            {
              "internalType": "string",
              "name": "_comments",
              "type": "string"
            },
            {
              "internalType": "enum SharedChain.ProjectStatus",
              "name": "_projectStatus",
              "type": "uint8"
            },
            {
              "internalType": "enum SharedChain.RequestStatus",
              "name": "_requestStatus",
              "type": "uint8"
            },
            {
              "internalType": "enum SharedChain.RequestType",
              "name": "_requestType",
              "type": "uint8"
            },
            {
              "internalType": "address",
              "name": "_projectAddress",
              "type": "address"
            },
            {
              "internalType": "address",
              "name": "_requestAddress",
              "type": "address"
            },
            {
              "internalType": "address",
              "name": "_signerAddress",
              "type": "address"
            },
            {
              "internalType": "uint256",
              "name": "_timestamp",
              "type": "uint256"
            },
            {
              "internalType": "string",
              "name": "_signature",
              "type": "string"
            }
          ],
          "internalType": "struct SharedChain.Request",
          "name": "",
          "type": "tuple"
        }
      ],
      "stateMutability": "view",
      "type": "function",
      "constant": true
    }
  ],
  "bytecode": "0x6080604052336000806101000a81548173ffffffffffffffffffffffffffffffffffffffff021916908373ffffffffffffffffffffffffffffffffffffffff16021790555060006002556000600555600060085534801561005f57600080fd5b50615e9780620000706000396000f3fe608060405234801561001057600080fd5b50600436106101585760003560e01c806384485563116100c3578063d67b1b991161007c578063d67b1b991461044c578063e1592c0d1461046a578063e2842d7914610486578063e617385f146104a4578063fb1a002a146104c0578063fe360ea5146104de57610158565b8063844855631461038a5780638da5cb5b146103a657806391009786146103c457806391d6e4ac146103e0578063a87430ba146103fc578063ba60ec841461043057610158565b806356a3eead1161011557806356a3eead146102695780636386c1c714610299578063663c2269146102c957806374adad1d146102e757806376c932e014610321578063840e78fd1461035157610158565b8063191e16451461015d5780633000d7f91461018d5780633b4ec4f8146101a957806344884710146101d957806347ee45b91461020957806348ff3c0814610239575b600080fd5b61017760048036038101906101729190614537565b6104fc565b60405161018491906145d4565b60405180910390f35b6101a760048036038101906101a29190614651565b6105ea565b005b6101c360048036038101906101be9190614537565b61092d565b6040516101d091906145d4565b60405180910390f35b6101f360048036038101906101ee91906146b8565b610a35565b60405161020091906149a2565b60405180910390f35b610223600480360381019061021e91906149c4565b610ff0565b6040516102309190614af4565b60405180910390f35b610253600480360381019061024e91906149c4565b6114a0565b6040516102609190614cc0565b60405180910390f35b610283600480360381019061027e9190614ce2565b611adb565b60405161029091906145d4565b60405180910390f35b6102b360048036038101906102ae91906149c4565b611b1a565b6040516102c09190614dce565b60405180910390f35b6102d1611cf2565b6040516102de9190614df8565b60405180910390f35b61030160048036038101906102fc91906149c4565b611cf8565b6040516103189b9a99989796959493929190614e8a565b60405180910390f35b61033b60048036038101906103369190614ce2565b611f71565b60405161034891906145d4565b60405180910390f35b61036b600480360381019061036691906149c4565b611fb0565b6040516103819a99989796959493929190614f59565b60405180910390f35b6103a4600480360381019061039f919061500a565b612216565b005b6103ae612678565b6040516103bb91906145d4565b60405180910390f35b6103de60048036038101906103d991906150d9565b61269c565b005b6103fa60048036038101906103f59190615119565b61287d565b005b610416600480360381019061041191906149c4565b612ce7565b6040516104279594939291906151fc565b60405180910390f35b61044a60048036038101906104459190615119565b612d4a565b005b610454613133565b6040516104619190614df8565b60405180910390f35b610484600480360381019061047f919061524f565b613139565b005b61048e613346565b60405161049b91906153f1565b60405180910390f35b6104be60048036038101906104b99190615119565b6135f3565b005b6104c8613ba2565b6040516104d591906155d2565b60405180910390f35b6104e6614126565b6040516104f39190614df8565b60405180910390f35b6000600160038111156105125761051161478f565b5b600160003373ffffffffffffffffffffffffffffffffffffffff1673ffffffffffffffffffffffffffffffffffffffff16815260200190815260200160002060020160009054906101000a900460ff1660038111156105745761057361478f565b5b146105b4576040517f08c379a00000000000000000000000000000000000000000000000000000000081526004016105ab90615640565b60405180910390fd5b8233836040516020016105c993929190615705565b6040516020818303038152906040528051906020012060001c905092915050565b8073ffffffffffffffffffffffffffffffffffffffff16600073ffffffffffffffffffffffffffffffffffffffff16141561065a576040517f08c379a00000000000000000000000000000000000000000000000000000000081526004016106519061578a565b60405180910390fd5b3373ffffffffffffffffffffffffffffffffffffffff1660008054906101000a900473ffffffffffffffffffffffffffffffffffffffff1673ffffffffffffffffffffffffffffffffffffffff16146106e8576040517f08c379a00000000000000000000000000000000000000000000000000000000081526004016106df90615640565b60405180910390fd5b6040518060a001604052808581526020018481526020018360038111156107125761071161478f565b5b60038111156107245761072361478f565b5b81526020018273ffffffffffffffffffffffffffffffffffffffff16815260200142815250600160008373ffffffffffffffffffffffffffffffffffffffff1673ffffffffffffffffffffffffffffffffffffffff168152602001908152602001600020600082015181600001556020820151816001015560408201518160020160006101000a81548160ff021916908360038111156107c7576107c661478f565b5b021790555060608201518160020160016101000a81548173ffffffffffffffffffffffffffffffffffffffff021916908373ffffffffffffffffffffffffffffffffffffffff160217905550608082015181600301559050508073ffffffffffffffffffffffffffffffffffffffff167ff751778eb32087df58f173035147c2eac9aac89fdc2f83b1993a198606f56db1600160008473ffffffffffffffffffffffffffffffffffffffff1673ffffffffffffffffffffffffffffffffffffffff1681526020019081526020016000206040516108a49190615907565b60405180910390a26003819080600181540180825580915050600190039060005260206000200160009091909190916101000a81548173ffffffffffffffffffffffffffffffffffffffff021916908373ffffffffffffffffffffffffffffffffffffffff1602179055506002600081548092919061092290615951565b919050555050505050565b60003373ffffffffffffffffffffffffffffffffffffffff16600160003373ffffffffffffffffffffffffffffffffffffffff1673ffffffffffffffffffffffffffffffffffffffff16815260200190815260200160002060020160019054906101000a900473ffffffffffffffffffffffffffffffffffffffff1673ffffffffffffffffffffffffffffffffffffffff16146109ff576040517f08c379a00000000000000000000000000000000000000000000000000000000081526004016109f69061578a565b60405180910390fd5b823383604051602001610a1493929190615705565b6040516020818303038152906040528051906020012060001c905092915050565b610a3d61412c565b60016003811115610a5157610a5061478f565b5b600160003373ffffffffffffffffffffffffffffffffffffffff1673ffffffffffffffffffffffffffffffffffffffff16815260200190815260200160002060020160009054906101000a900460ff166003811115610ab357610ab261478f565b5b1480610b32575060026003811115610ace57610acd61478f565b5b600160003373ffffffffffffffffffffffffffffffffffffffff1673ffffffffffffffffffffffffffffffffffffffff16815260200190815260200160002060020160009054906101000a900460ff166003811115610b3057610b2f61478f565b5b145b610b71576040517f08c379a0000000000000000000000000000000000000000000000000000000008152600401610b6890615640565b60405180910390fd5b610b7961412c565b60006008541115610fe6578373ffffffffffffffffffffffffffffffffffffffff16600760008573ffffffffffffffffffffffffffffffffffffffff1673ffffffffffffffffffffffffffffffffffffffff16815260200190815260200160002060030160039054906101000a900473ffffffffffffffffffffffffffffffffffffffff1673ffffffffffffffffffffffffffffffffffffffff161415610fe557600760008473ffffffffffffffffffffffffffffffffffffffff1673ffffffffffffffffffffffffffffffffffffffff1681526020019081526020016000206040518061016001604052908160008201548152602001600182018054610c7f906159c9565b80601f0160208091040260200160405190810160405280929190818152602001828054610cab906159c9565b8015610cf85780601f10610ccd57610100808354040283529160200191610cf8565b820191906000526020600020905b815481529060010190602001808311610cdb57829003601f168201915b50505050508152602001600282018054610d11906159c9565b80601f0160208091040260200160405190810160405280929190818152602001828054610d3d906159c9565b8015610d8a5780601f10610d5f57610100808354040283529160200191610d8a565b820191906000526020600020905b815481529060010190602001808311610d6d57829003601f168201915b505050505081526020016003820160009054906101000a900460ff166004811115610db857610db761478f565b5b6004811115610dca57610dc961478f565b5b81526020016003820160019054906101000a900460ff166002811115610df357610df261478f565b5b6002811115610e0557610e0461478f565b5b81526020016003820160029054906101000a900460ff166001811115610e2e57610e2d61478f565b5b6001811115610e4057610e3f61478f565b5b81526020016003820160039054906101000a900473ffffffffffffffffffffffffffffffffffffffff1673ffffffffffffffffffffffffffffffffffffffff1673ffffffffffffffffffffffffffffffffffffffff1681526020016004820160009054906101000a900473ffffffffffffffffffffffffffffffffffffffff1673ffffffffffffffffffffffffffffffffffffffff1673ffffffffffffffffffffffffffffffffffffffff1681526020016005820160009054906101000a900473ffffffffffffffffffffffffffffffffffffffff1673ffffffffffffffffffffffffffffffffffffffff1673ffffffffffffffffffffffffffffffffffffffff16815260200160068201548152602001600782018054610f60906159c9565b80601f0160208091040260200160405190810160405280929190818152602001828054610f8c906159c9565b8015610fd95780601f10610fae57610100808354040283529160200191610fd9565b820191906000526020600020905b815481529060010190602001808311610fbc57829003601f168201915b50505050508152505090505b5b8091505092915050565b610ff86141fe565b6001600381111561100c5761100b61478f565b5b600160003373ffffffffffffffffffffffffffffffffffffffff1673ffffffffffffffffffffffffffffffffffffffff16815260200190815260200160002060020160009054906101000a900460ff16600381111561106e5761106d61478f565b5b14806110ed5750600260038111156110895761108861478f565b5b600160003373ffffffffffffffffffffffffffffffffffffffff1673ffffffffffffffffffffffffffffffffffffffff16815260200190815260200160002060020160009054906101000a900460ff1660038111156110eb576110ea61478f565b5b145b61112c576040517f08c379a000000000000000000000000000000000000000000000000000000000815260040161112390615640565b60405180910390fd5b600460008373ffffffffffffffffffffffffffffffffffffffff1673ffffffffffffffffffffffffffffffffffffffff1681526020019081526020016000206040518061014001604052908160008201548152602001600182018054611191906159c9565b80601f01602080910402602001604051908101604052809291908181526020018280546111bd906159c9565b801561120a5780601f106111df5761010080835404028352916020019161120a565b820191906000526020600020905b8154815290600101906020018083116111ed57829003601f168201915b505050505081526020016002820160009054906101000a900460ff1660048111156112385761123761478f565b5b600481111561124a5761124961478f565b5b815260200160038201805461125e906159c9565b80601f016020809104026020016040519081016040528092919081815260200182805461128a906159c9565b80156112d75780601f106112ac576101008083540402835291602001916112d7565b820191906000526020600020905b8154815290600101906020018083116112ba57829003601f168201915b505050505081526020016004820160009054906101000a900473ffffffffffffffffffffffffffffffffffffffff1673ffffffffffffffffffffffffffffffffffffffff1673ffffffffffffffffffffffffffffffffffffffff1681526020016005820160009054906101000a900473ffffffffffffffffffffffffffffffffffffffff1673ffffffffffffffffffffffffffffffffffffffff1673ffffffffffffffffffffffffffffffffffffffff1681526020016006820160009054906101000a900473ffffffffffffffffffffffffffffffffffffffff1673ffffffffffffffffffffffffffffffffffffffff1673ffffffffffffffffffffffffffffffffffffffff1681526020016006820160149054906101000a900460ff1615151515815260200160078201548152602001600882018054611417906159c9565b80601f0160208091040260200160405190810160405280929190818152602001828054611443906159c9565b80156114905780601f1061146557610100808354040283529160200191611490565b820191906000526020600020905b81548152906001019060200180831161147357829003601f168201915b5050505050815250509050919050565b6060600160038111156114b6576114b561478f565b5b600160003373ffffffffffffffffffffffffffffffffffffffff1673ffffffffffffffffffffffffffffffffffffffff16815260200190815260200160002060020160009054906101000a900460ff1660038111156115185761151761478f565b5b14806115975750600260038111156115335761153261478f565b5b600160003373ffffffffffffffffffffffffffffffffffffffff1673ffffffffffffffffffffffffffffffffffffffff16815260200190815260200160002060020160009054906101000a900460ff1660038111156115955761159461478f565b5b145b6115d6576040517f08c379a00000000000000000000000000000000000000000000000000000000081526004016115cd90615640565b60405180910390fd5b6060600060055414156115ec5780915050611ad6565b60055467ffffffffffffffff811115611608576116076143d6565b5b60405190808252806020026020018201604052801561164157816020015b61162e6141fe565b8152602001906001900390816116265790505b50905060005b600554811015611ad057600060068281548110611667576116666159fb565b5b9060005260206000200160009054906101000a900473ffffffffffffffffffffffffffffffffffffffff169050600460008273ffffffffffffffffffffffffffffffffffffffff1673ffffffffffffffffffffffffffffffffffffffff16815260200190815260200160002060050160009054906101000a900473ffffffffffffffffffffffffffffffffffffffff1673ffffffffffffffffffffffffffffffffffffffff168573ffffffffffffffffffffffffffffffffffffffff161415611abc576000600460008373ffffffffffffffffffffffffffffffffffffffff1673ffffffffffffffffffffffffffffffffffffffff1681526020019081526020016000209050806040518061014001604052908160008201548152602001600182018054611794906159c9565b80601f01602080910402602001604051908101604052809291908181526020018280546117c0906159c9565b801561180d5780601f106117e25761010080835404028352916020019161180d565b820191906000526020600020905b8154815290600101906020018083116117f057829003601f168201915b505050505081526020016002820160009054906101000a900460ff16600481111561183b5761183a61478f565b5b600481111561184d5761184c61478f565b5b8152602001600382018054611861906159c9565b80601f016020809104026020016040519081016040528092919081815260200182805461188d906159c9565b80156118da5780601f106118af576101008083540402835291602001916118da565b820191906000526020600020905b8154815290600101906020018083116118bd57829003601f168201915b505050505081526020016004820160009054906101000a900473ffffffffffffffffffffffffffffffffffffffff1673ffffffffffffffffffffffffffffffffffffffff1673ffffffffffffffffffffffffffffffffffffffff1681526020016005820160009054906101000a900473ffffffffffffffffffffffffffffffffffffffff1673ffffffffffffffffffffffffffffffffffffffff1673ffffffffffffffffffffffffffffffffffffffff1681526020016006820160009054906101000a900473ffffffffffffffffffffffffffffffffffffffff1673ffffffffffffffffffffffffffffffffffffffff1673ffffffffffffffffffffffffffffffffffffffff1681526020016006820160149054906101000a900460ff1615151515815260200160078201548152602001600882018054611a1a906159c9565b80601f0160208091040260200160405190810160405280929190818152602001828054611a46906159c9565b8015611a935780601f10611a6857610100808354040283529160200191611a93565b820191906000526020600020905b815481529060010190602001808311611a7657829003601f168201915b505050505081525050848481518110611aaf57611aae6159fb565b5b6020026020010181905250505b508080611ac890615951565b915050611647565b50809150505b919050565b60098181548110611aeb57600080fd5b906000526020600020016000915054906101000a900473ffffffffffffffffffffffffffffffffffffffff1681565b611b226142a7565b3373ffffffffffffffffffffffffffffffffffffffff16600160003373ffffffffffffffffffffffffffffffffffffffff1673ffffffffffffffffffffffffffffffffffffffff16815260200190815260200160002060020160019054906101000a900473ffffffffffffffffffffffffffffffffffffffff1673ffffffffffffffffffffffffffffffffffffffff1614611bf2576040517f08c379a0000000000000000000000000000000000000000000000000000000008152600401611be990615640565b60405180910390fd5b600160008373ffffffffffffffffffffffffffffffffffffffff1673ffffffffffffffffffffffffffffffffffffffff1681526020019081526020016000206040518060a001604052908160008201548152602001600182015481526020016002820160009054906101000a900460ff166003811115611c7557611c7461478f565b5b6003811115611c8757611c8661478f565b5b81526020016002820160019054906101000a900473ffffffffffffffffffffffffffffffffffffffff1673ffffffffffffffffffffffffffffffffffffffff1673ffffffffffffffffffffffffffffffffffffffff1681526020016003820154815250509050919050565b60085481565b6007602052806000526040600020600091509050806000015490806001018054611d21906159c9565b80601f0160208091040260200160405190810160405280929190818152602001828054611d4d906159c9565b8015611d9a5780601f10611d6f57610100808354040283529160200191611d9a565b820191906000526020600020905b815481529060010190602001808311611d7d57829003601f168201915b505050505090806002018054611daf906159c9565b80601f0160208091040260200160405190810160405280929190818152602001828054611ddb906159c9565b8015611e285780601f10611dfd57610100808354040283529160200191611e28565b820191906000526020600020905b815481529060010190602001808311611e0b57829003601f168201915b5050505050908060030160009054906101000a900460ff16908060030160019054906101000a900460ff16908060030160029054906101000a900460ff16908060030160039054906101000a900473ffffffffffffffffffffffffffffffffffffffff16908060040160009054906101000a900473ffffffffffffffffffffffffffffffffffffffff16908060050160009054906101000a900473ffffffffffffffffffffffffffffffffffffffff1690806006015490806007018054611eee906159c9565b80601f0160208091040260200160405190810160405280929190818152602001828054611f1a906159c9565b8015611f675780601f10611f3c57610100808354040283529160200191611f67565b820191906000526020600020905b815481529060010190602001808311611f4a57829003601f168201915b505050505090508b565b60068181548110611f8157600080fd5b906000526020600020016000915054906101000a900473ffffffffffffffffffffffffffffffffffffffff1681565b6004602052806000526040600020600091509050806000015490806001018054611fd9906159c9565b80601f0160208091040260200160405190810160405280929190818152602001828054612005906159c9565b80156120525780601f1061202757610100808354040283529160200191612052565b820191906000526020600020905b81548152906001019060200180831161203557829003601f168201915b5050505050908060020160009054906101000a900460ff169080600301805461207a906159c9565b80601f01602080910402602001604051908101604052809291908181526020018280546120a6906159c9565b80156120f35780601f106120c8576101008083540402835291602001916120f3565b820191906000526020600020905b8154815290600101906020018083116120d657829003601f168201915b5050505050908060040160009054906101000a900473ffffffffffffffffffffffffffffffffffffffff16908060050160009054906101000a900473ffffffffffffffffffffffffffffffffffffffff16908060060160009054906101000a900473ffffffffffffffffffffffffffffffffffffffff16908060060160149054906101000a900460ff1690806007015490806008018054612193906159c9565b80601f01602080910402602001604051908101604052809291908181526020018280546121bf906159c9565b801561220c5780601f106121e15761010080835404028352916020019161220c565b820191906000526020600020905b8154815290600101906020018083116121ef57829003601f168201915b505050505090508a565b6001600381111561222a5761222961478f565b5b600160003373ffffffffffffffffffffffffffffffffffffffff1673ffffffffffffffffffffffffffffffffffffffff16815260200190815260200160002060020160009054906101000a900460ff16600381111561228c5761228b61478f565b5b146122cc576040517f08c379a00000000000000000000000000000000000000000000000000000000081526004016122c390615640565b60405180910390fd5b60405180610140016040528060055481526020018581526020018460048111156122f9576122f861478f565b5b600481111561230b5761230a61478f565b5b81526020018381526020018673ffffffffffffffffffffffffffffffffffffffff1681526020013373ffffffffffffffffffffffffffffffffffffffff168152602001600073ffffffffffffffffffffffffffffffffffffffff16815260200160001515815260200142815260200182815250600460008773ffffffffffffffffffffffffffffffffffffffff1673ffffffffffffffffffffffffffffffffffffffff1681526020019081526020016000206000820151816000015560208201518160010190805190602001906123e3929190614304565b5060408201518160020160006101000a81548160ff0219169083600481111561240f5761240e61478f565b5b02179055506060820151816003019080519060200190612430929190614304565b5060808201518160040160006101000a81548173ffffffffffffffffffffffffffffffffffffffff021916908373ffffffffffffffffffffffffffffffffffffffff16021790555060a08201518160050160006101000a81548173ffffffffffffffffffffffffffffffffffffffff021916908373ffffffffffffffffffffffffffffffffffffffff16021790555060c08201518160060160006101000a81548173ffffffffffffffffffffffffffffffffffffffff021916908373ffffffffffffffffffffffffffffffffffffffff16021790555060e08201518160060160146101000a81548160ff021916908315150217905550610100820151816007015561012082015181600801908051906020019061254e929190614304565b50905050600073ffffffffffffffffffffffffffffffffffffffff168573ffffffffffffffffffffffffffffffffffffffff167ffb530d24abc3d497c3f0525ef204a66ac64d923ec30b40d17bc3a5f572cf4b8e600460008973ffffffffffffffffffffffffffffffffffffffff1673ffffffffffffffffffffffffffffffffffffffff1681526020019081526020016000206040516125ee9190615c5f565b60405180910390a36006859080600181540180825580915050600190039060005260206000200160009091909190916101000a81548173ffffffffffffffffffffffffffffffffffffffff021916908373ffffffffffffffffffffffffffffffffffffffff1602179055506005600081548092919061266c90615951565b91905055505050505050565b60008054906101000a900473ffffffffffffffffffffffffffffffffffffffff1681565b3373ffffffffffffffffffffffffffffffffffffffff1660008054906101000a900473ffffffffffffffffffffffffffffffffffffffff1673ffffffffffffffffffffffffffffffffffffffff161461272a576040517f08c379a000000000000000000000000000000000000000000000000000000000815260040161272190615640565b60405180910390fd5b81600381111561273d5761273c61478f565b5b600160008373ffffffffffffffffffffffffffffffffffffffff1673ffffffffffffffffffffffffffffffffffffffff16815260200190815260200160002060020160006101000a81548160ff021916908360038111156127a1576127a061478f565b5b021790555042600160008373ffffffffffffffffffffffffffffffffffffffff1673ffffffffffffffffffffffffffffffffffffffff168152602001908152602001600020600301819055508073ffffffffffffffffffffffffffffffffffffffff167ff751778eb32087df58f173035147c2eac9aac89fdc2f83b1993a198606f56db1600160008473ffffffffffffffffffffffffffffffffffffffff1673ffffffffffffffffffffffffffffffffffffffff1681526020019081526020016000206040516128719190615907565b60405180910390a25050565b600260038111156128915761289061478f565b5b600160003373ffffffffffffffffffffffffffffffffffffffff1673ffffffffffffffffffffffffffffffffffffffff16815260200190815260200160002060020160009054906101000a900460ff1660038111156128f3576128f261478f565b5b14612933576040517f08c379a000000000000000000000000000000000000000000000000000000000815260040161292a90615640565b60405180910390fd5b85600760008473ffffffffffffffffffffffffffffffffffffffff1673ffffffffffffffffffffffffffffffffffffffff1681526020019081526020016000206002019080519060200190612989929190614304565b5084600281111561299d5761299c61478f565b5b600760008473ffffffffffffffffffffffffffffffffffffffff1673ffffffffffffffffffffffffffffffffffffffff16815260200190815260200160002060030160016101000a81548160ff02191690836002811115612a0157612a0061478f565b5b021790555080600760008473ffffffffffffffffffffffffffffffffffffffff1673ffffffffffffffffffffffffffffffffffffffff1681526020019081526020016000206007019080519060200190612a5c929190614304565b508273ffffffffffffffffffffffffffffffffffffffff168273ffffffffffffffffffffffffffffffffffffffff167fa25a6f1ff57a050a48ae4b3a19f271fddad950cac8d165d6a2eca5d54cc8070f600760008673ffffffffffffffffffffffffffffffffffffffff1673ffffffffffffffffffffffffffffffffffffffff168152602001908152602001600020604051612af89190615e3f565b60405180910390a3846002811115612b1357612b1261478f565b5b6002811115612b2557612b2461478f565b5b600280811115612b3857612b3761478f565b5b1415612cdf57836004811115612b5157612b5061478f565b5b600460008573ffffffffffffffffffffffffffffffffffffffff1673ffffffffffffffffffffffffffffffffffffffff16815260200190815260200160002060020160006101000a81548160ff02191690836004811115612bb557612bb461478f565b5b021790555033600460008573ffffffffffffffffffffffffffffffffffffffff1673ffffffffffffffffffffffffffffffffffffffff16815260200190815260200160002060060160006101000a81548173ffffffffffffffffffffffffffffffffffffffff021916908373ffffffffffffffffffffffffffffffffffffffff1602179055503373ffffffffffffffffffffffffffffffffffffffff168373ffffffffffffffffffffffffffffffffffffffff167ffb530d24abc3d497c3f0525ef204a66ac64d923ec30b40d17bc3a5f572cf4b8e600460008773ffffffffffffffffffffffffffffffffffffffff1673ffffffffffffffffffffffffffffffffffffffff168152602001908152602001600020604051612cd69190615c5f565b60405180910390a35b505050505050565b60016020528060005260406000206000915090508060000154908060010154908060020160009054906101000a900460ff16908060020160019054906101000a900473ffffffffffffffffffffffffffffffffffffffff16908060030154905085565b600380811115612d5d57612d5c61478f565b5b600160003373ffffffffffffffffffffffffffffffffffffffff1673ffffffffffffffffffffffffffffffffffffffff16815260200190815260200160002060020160009054906101000a900460ff166003811115612dbf57612dbe61478f565b5b14612dff576040517f08c379a0000000000000000000000000000000000000000000000000000000008152600401612df690615640565b60405180910390fd5b85600760008473ffffffffffffffffffffffffffffffffffffffff1673ffffffffffffffffffffffffffffffffffffffff1681526020019081526020016000206002019080519060200190612e55929190614304565b50846002811115612e6957612e6861478f565b5b600760008473ffffffffffffffffffffffffffffffffffffffff1673ffffffffffffffffffffffffffffffffffffffff16815260200190815260200160002060030160016101000a81548160ff02191690836002811115612ecd57612ecc61478f565b5b021790555080600760008473ffffffffffffffffffffffffffffffffffffffff1673ffffffffffffffffffffffffffffffffffffffff1681526020019081526020016000206007019080519060200190612f28929190614304565b508273ffffffffffffffffffffffffffffffffffffffff168273ffffffffffffffffffffffffffffffffffffffff167fa25a6f1ff57a050a48ae4b3a19f271fddad950cac8d165d6a2eca5d54cc8070f600760008673ffffffffffffffffffffffffffffffffffffffff1673ffffffffffffffffffffffffffffffffffffffff168152602001908152602001600020604051612fc49190615e3f565b60405180910390a3846002811115612fdf57612fde61478f565b5b6002811115612ff157612ff061478f565b5b6002808111156130045761300361478f565b5b141561312b5783600481111561301d5761301c61478f565b5b600460008573ffffffffffffffffffffffffffffffffffffffff1673ffffffffffffffffffffffffffffffffffffffff16815260200190815260200160002060020160006101000a81548160ff021916908360048111156130815761308061478f565b5b0217905550600073ffffffffffffffffffffffffffffffffffffffff168373ffffffffffffffffffffffffffffffffffffffff167ffb530d24abc3d497c3f0525ef204a66ac64d923ec30b40d17bc3a5f572cf4b8e600460008773ffffffffffffffffffffffffffffffffffffffff1673ffffffffffffffffffffffffffffffffffffffff1681526020019081526020016000206040516131229190615c5f565b60405180910390a35b505050505050565b60025481565b6001600381111561314d5761314c61478f565b5b600160003373ffffffffffffffffffffffffffffffffffffffff1673ffffffffffffffffffffffffffffffffffffffff16815260200190815260200160002060020160009054906101000a900460ff1660038111156131af576131ae61478f565b5b146131ef576040517f08c379a00000000000000000000000000000000000000000000000000000000081526004016131e690615640565b60405180910390fd5b81600460008573ffffffffffffffffffffffffffffffffffffffff1673ffffffffffffffffffffffffffffffffffffffff1681526020019081526020016000206003019080519060200190613245929190614304565b5080600460008573ffffffffffffffffffffffffffffffffffffffff1673ffffffffffffffffffffffffffffffffffffffff168152602001908152602001600020600801908051906020019061329c929190614304565b50600073ffffffffffffffffffffffffffffffffffffffff168373ffffffffffffffffffffffffffffffffffffffff167ffb530d24abc3d497c3f0525ef204a66ac64d923ec30b40d17bc3a5f572cf4b8e600460008773ffffffffffffffffffffffffffffffffffffffff1673ffffffffffffffffffffffffffffffffffffffff1681526020019081526020016000206040516133399190615c5f565b60405180910390a3505050565b60603373ffffffffffffffffffffffffffffffffffffffff16600073ffffffffffffffffffffffffffffffffffffffff161415806133d057503373ffffffffffffffffffffffffffffffffffffffff1660008054906101000a900473ffffffffffffffffffffffffffffffffffffffff1673ffffffffffffffffffffffffffffffffffffffff1614155b15613410576040517f08c379a000000000000000000000000000000000000000000000000000000000815260040161340790615640565b60405180910390fd5b600060025467ffffffffffffffff81111561342e5761342d6143d6565b5b60405190808252806020026020018201604052801561346757816020015b6134546142a7565b81526020019060019003908161344c5790505b50905060005b6002548110156135eb5760006003828154811061348d5761348c6159fb565b5b9060005260206000200160009054906101000a900473ffffffffffffffffffffffffffffffffffffffff1690506000600160008373ffffffffffffffffffffffffffffffffffffffff1673ffffffffffffffffffffffffffffffffffffffff1681526020019081526020016000209050806040518060a001604052908160008201548152602001600182015481526020016002820160009054906101000a900460ff1660038111156135425761354161478f565b5b60038111156135545761355361478f565b5b81526020016002820160019054906101000a900473ffffffffffffffffffffffffffffffffffffffff1673ffffffffffffffffffffffffffffffffffffffff1673ffffffffffffffffffffffffffffffffffffffff1681526020016003820154815250508484815181106135cb576135ca6159fb565b5b6020026020010181905250505080806135e390615951565b91505061346d565b508091505090565b600160038111156136075761360661478f565b5b600160003373ffffffffffffffffffffffffffffffffffffffff1673ffffffffffffffffffffffffffffffffffffffff16815260200190815260200160002060020160009054906101000a900460ff1660038111156136695761366861478f565b5b14806136e85750600260038111156136845761368361478f565b5b600160003373ffffffffffffffffffffffffffffffffffffffff1673ffffffffffffffffffffffffffffffffffffffff16815260200190815260200160002060020160009054906101000a900460ff1660038111156136e6576136e561478f565b5b145b613727576040517f08c379a000000000000000000000000000000000000000000000000000000000815260040161371e90615640565b60405180910390fd5b60006002600481111561373d5761373c61478f565b5b8660048111156137505761374f61478f565b5b60048111156137625761376161478f565b5b141561376d57600190505b60405180610160016040528060085481526020018881526020016040518060200160405280600081525081526020018760048111156137af576137ae61478f565b5b60048111156137c1576137c061478f565b5b81526020018660028111156137d9576137d861478f565b5b60028111156137eb576137ea61478f565b5b81526020018260018111156138035761380261478f565b5b81526020018573ffffffffffffffffffffffffffffffffffffffff1681526020018473ffffffffffffffffffffffffffffffffffffffff1681526020013373ffffffffffffffffffffffffffffffffffffffff16815260200142815260200183815250600760008573ffffffffffffffffffffffffffffffffffffffff1673ffffffffffffffffffffffffffffffffffffffff1681526020019081526020016000206000820151816000015560208201518160010190805190602001906138cb929190614304565b5060408201518160020190805190602001906138e8929190614304565b5060608201518160030160006101000a81548160ff021916908360048111156139145761391361478f565b5b021790555060808201518160030160016101000a81548160ff021916908360028111156139445761394361478f565b5b021790555060a08201518160030160026101000a81548160ff021916908360018111156139745761397361478f565b5b021790555060c08201518160030160036101000a81548173ffffffffffffffffffffffffffffffffffffffff021916908373ffffffffffffffffffffffffffffffffffffffff16021790555060e08201518160040160006101000a81548173ffffffffffffffffffffffffffffffffffffffff021916908373ffffffffffffffffffffffffffffffffffffffff1602179055506101008201518160050160006101000a81548173ffffffffffffffffffffffffffffffffffffffff021916908373ffffffffffffffffffffffffffffffffffffffff1602179055506101208201518160060155610140820151816007019080519060200190613a77929190614304565b509050508373ffffffffffffffffffffffffffffffffffffffff168373ffffffffffffffffffffffffffffffffffffffff167fa25a6f1ff57a050a48ae4b3a19f271fddad950cac8d165d6a2eca5d54cc8070f600760008773ffffffffffffffffffffffffffffffffffffffff1673ffffffffffffffffffffffffffffffffffffffff168152602001908152602001600020604051613b169190615e3f565b60405180910390a36009839080600181540180825580915050600190039060005260206000200160009091909190916101000a81548173ffffffffffffffffffffffffffffffffffffffff021916908373ffffffffffffffffffffffffffffffffffffffff16021790555060086000815480929190613b9490615951565b919050555050505050505050565b60603373ffffffffffffffffffffffffffffffffffffffff16600160003373ffffffffffffffffffffffffffffffffffffffff1673ffffffffffffffffffffffffffffffffffffffff16815260200190815260200160002060020160019054906101000a900473ffffffffffffffffffffffffffffffffffffffff1673ffffffffffffffffffffffffffffffffffffffff1614613c74576040517f08c379a0000000000000000000000000000000000000000000000000000000008152600401613c6b9061578a565b60405180910390fd5b600060085467ffffffffffffffff811115613c9257613c916143d6565b5b604051908082528060200260200182016040528015613ccb57816020015b613cb861412c565b815260200190600190039081613cb05790505b50905060005b60085481101561411e57600060098281548110613cf157613cf06159fb565b5b9060005260206000200160009054906101000a900473ffffffffffffffffffffffffffffffffffffffff1690506000600760008373ffffffffffffffffffffffffffffffffffffffff1673ffffffffffffffffffffffffffffffffffffffff1681526020019081526020016000209050806040518061016001604052908160008201548152602001600182018054613d88906159c9565b80601f0160208091040260200160405190810160405280929190818152602001828054613db4906159c9565b8015613e015780601f10613dd657610100808354040283529160200191613e01565b820191906000526020600020905b815481529060010190602001808311613de457829003601f168201915b50505050508152602001600282018054613e1a906159c9565b80601f0160208091040260200160405190810160405280929190818152602001828054613e46906159c9565b8015613e935780601f10613e6857610100808354040283529160200191613e93565b820191906000526020600020905b815481529060010190602001808311613e7657829003601f168201915b505050505081526020016003820160009054906101000a900460ff166004811115613ec157613ec061478f565b5b6004811115613ed357613ed261478f565b5b81526020016003820160019054906101000a900460ff166002811115613efc57613efb61478f565b5b6002811115613f0e57613f0d61478f565b5b81526020016003820160029054906101000a900460ff166001811115613f3757613f3661478f565b5b6001811115613f4957613f4861478f565b5b81526020016003820160039054906101000a900473ffffffffffffffffffffffffffffffffffffffff1673ffffffffffffffffffffffffffffffffffffffff1673ffffffffffffffffffffffffffffffffffffffff1681526020016004820160009054906101000a900473ffffffffffffffffffffffffffffffffffffffff1673ffffffffffffffffffffffffffffffffffffffff1673ffffffffffffffffffffffffffffffffffffffff1681526020016005820160009054906101000a900473ffffffffffffffffffffffffffffffffffffffff1673ffffffffffffffffffffffffffffffffffffffff1673ffffffffffffffffffffffffffffffffffffffff16815260200160068201548152602001600782018054614069906159c9565b80601f0160208091040260200160405190810160405280929190818152602001828054614095906159c9565b80156140e25780601f106140b7576101008083540402835291602001916140e2565b820191906000526020600020905b8154815290600101906020018083116140c557829003601f168201915b5050505050815250508484815181106140fe576140fd6159fb565b5b60200260200101819052505050808061411690615951565b915050613cd1565b508091505090565b60055481565b604051806101600160405280600081526020016060815260200160608152602001600060048111156141615761416061478f565b5b81526020016000600281111561417a5761417961478f565b5b8152602001600060018111156141935761419261478f565b5b8152602001600073ffffffffffffffffffffffffffffffffffffffff168152602001600073ffffffffffffffffffffffffffffffffffffffff168152602001600073ffffffffffffffffffffffffffffffffffffffff16815260200160008152602001606081525090565b60405180610140016040528060008152602001606081526020016000600481111561422c5761422b61478f565b5b815260200160608152602001600073ffffffffffffffffffffffffffffffffffffffff168152602001600073ffffffffffffffffffffffffffffffffffffffff168152602001600073ffffffffffffffffffffffffffffffffffffffff16815260200160001515815260200160008152602001606081525090565b6040518060a001604052806000801916815260200160008019168152602001600060038111156142da576142d961478f565b5b8152602001600073ffffffffffffffffffffffffffffffffffffffff168152602001600081525090565b828054614310906159c9565b90600052602060002090601f0160209004810192826143325760008555614379565b82601f1061434b57805160ff1916838001178555614379565b82800160010185558215614379579182015b8281111561437857825182559160200191906001019061435d565b5b509050614386919061438a565b5090565b5b808211156143a357600081600090555060010161438b565b5090565b6000604051905090565b600080fd5b600080fd5b600080fd5b600080fd5b6000601f19601f8301169050919050565b7f4e487b7100000000000000000000000000000000000000000000000000000000600052604160045260246000fd5b61440e826143c5565b810181811067ffffffffffffffff8211171561442d5761442c6143d6565b5b80604052505050565b60006144406143a7565b905061444c8282614405565b919050565b600067ffffffffffffffff82111561446c5761446b6143d6565b5b614475826143c5565b9050602081019050919050565b82818337600083830152505050565b60006144a461449f84614451565b614436565b9050828152602081018484840111156144c0576144bf6143c0565b5b6144cb848285614482565b509392505050565b600082601f8301126144e8576144e76143bb565b5b81356144f8848260208601614491565b91505092915050565b6000819050919050565b61451481614501565b811461451f57600080fd5b50565b6000813590506145318161450b565b92915050565b6000806040838503121561454e5761454d6143b1565b5b600083013567ffffffffffffffff81111561456c5761456b6143b6565b5b614578858286016144d3565b925050602061458985828601614522565b9150509250929050565b600073ffffffffffffffffffffffffffffffffffffffff82169050919050565b60006145be82614593565b9050919050565b6145ce816145b3565b82525050565b60006020820190506145e960008301846145c5565b92915050565b6000819050919050565b614602816145ef565b811461460d57600080fd5b50565b60008135905061461f816145f9565b92915050565b61462e816145b3565b811461463957600080fd5b50565b60008135905061464b81614625565b92915050565b6000806000806080858703121561466b5761466a6143b1565b5b600061467987828801614610565b945050602061468a87828801614610565b935050604061469b87828801614522565b92505060606146ac8782880161463c565b91505092959194509250565b600080604083850312156146cf576146ce6143b1565b5b60006146dd8582860161463c565b92505060206146ee8582860161463c565b9150509250929050565b61470181614501565b82525050565b600081519050919050565b600082825260208201905092915050565b60005b83811015614741578082015181840152602081019050614726565b83811115614750576000848401525b50505050565b600061476182614707565b61476b8185614712565b935061477b818560208601614723565b614784816143c5565b840191505092915050565b7f4e487b7100000000000000000000000000000000000000000000000000000000600052602160045260246000fd5b600581106147cf576147ce61478f565b5b50565b60008190506147e0826147be565b919050565b60006147f0826147d2565b9050919050565b614800816147e5565b82525050565b600381106148175761481661478f565b5b50565b600081905061482882614806565b919050565b60006148388261481a565b9050919050565b6148488161482d565b82525050565b6002811061485f5761485e61478f565b5b50565b60008190506148708261484e565b919050565b600061488082614862565b9050919050565b61489081614875565b82525050565b61489f816145b3565b82525050565b6000610160830160008301516148be60008601826146f8565b50602083015184820360208601526148d68282614756565b915050604083015184820360408601526148f08282614756565b915050606083015161490560608601826147f7565b506080830151614918608086018261483f565b5060a083015161492b60a0860182614887565b5060c083015161493e60c0860182614896565b5060e083015161495160e0860182614896565b50610100830151614966610100860182614896565b5061012083015161497b6101208601826146f8565b506101408301518482036101408601526149958282614756565b9150508091505092915050565b600060208201905081810360008301526149bc81846148a5565b905092915050565b6000602082840312156149da576149d96143b1565b5b60006149e88482850161463c565b91505092915050565b60008115159050919050565b614a06816149f1565b82525050565b600061014083016000830151614a2560008601826146f8565b5060208301518482036020860152614a3d8282614756565b9150506040830151614a5260408601826147f7565b5060608301518482036060860152614a6a8282614756565b9150506080830151614a7f6080860182614896565b5060a0830151614a9260a0860182614896565b5060c0830151614aa560c0860182614896565b5060e0830151614ab860e08601826149fd565b50610100830151614acd6101008601826146f8565b50610120830151848203610120860152614ae78282614756565b9150508091505092915050565b60006020820190508181036000830152614b0e8184614a0c565b905092915050565b600081519050919050565b600082825260208201905092915050565b6000819050602082019050919050565b600061014083016000830151614b5b60008601826146f8565b5060208301518482036020860152614b738282614756565b9150506040830151614b8860408601826147f7565b5060608301518482036060860152614ba08282614756565b9150506080830151614bb56080860182614896565b5060a0830151614bc860a0860182614896565b5060c0830151614bdb60c0860182614896565b5060e0830151614bee60e08601826149fd565b50610100830151614c036101008601826146f8565b50610120830151848203610120860152614c1d8282614756565b9150508091505092915050565b6000614c368383614b42565b905092915050565b6000602082019050919050565b6000614c5682614b16565b614c608185614b21565b935083602082028501614c7285614b32565b8060005b85811015614cae5784840389528151614c8f8582614c2a565b9450614c9a83614c3e565b925060208a01995050600181019050614c76565b50829750879550505050505092915050565b60006020820190508181036000830152614cda8184614c4b565b905092915050565b600060208284031215614cf857614cf76143b1565b5b6000614d0684828501614522565b91505092915050565b614d18816145ef565b82525050565b60048110614d2f57614d2e61478f565b5b50565b6000819050614d4082614d1e565b919050565b6000614d5082614d32565b9050919050565b614d6081614d45565b82525050565b60a082016000820151614d7c6000850182614d0f565b506020820151614d8f6020850182614d0f565b506040820151614da26040850182614d57565b506060820151614db56060850182614896565b506080820151614dc860808501826146f8565b50505050565b600060a082019050614de36000830184614d66565b92915050565b614df281614501565b82525050565b6000602082019050614e0d6000830184614de9565b92915050565b600082825260208201905092915050565b6000614e2f82614707565b614e398185614e13565b9350614e49818560208601614723565b614e52816143c5565b840191505092915050565b614e66816147e5565b82525050565b614e758161482d565b82525050565b614e8481614875565b82525050565b600061016082019050614ea0600083018e614de9565b8181036020830152614eb2818d614e24565b90508181036040830152614ec6818c614e24565b9050614ed5606083018b614e5d565b614ee2608083018a614e6c565b614eef60a0830189614e7b565b614efc60c08301886145c5565b614f0960e08301876145c5565b614f176101008301866145c5565b614f25610120830185614de9565b818103610140830152614f388184614e24565b90509c9b505050505050505050505050565b614f53816149f1565b82525050565b600061014082019050614f6f600083018d614de9565b8181036020830152614f81818c614e24565b9050614f90604083018b614e5d565b8181036060830152614fa2818a614e24565b9050614fb160808301896145c5565b614fbe60a08301886145c5565b614fcb60c08301876145c5565b614fd860e0830186614f4a565b614fe6610100830185614de9565b818103610120830152614ff98184614e24565b90509b9a5050505050505050505050565b600080600080600060a08688031215615026576150256143b1565b5b60006150348882890161463c565b955050602086013567ffffffffffffffff811115615055576150546143b6565b5b615061888289016144d3565b945050604061507288828901614522565b935050606086013567ffffffffffffffff811115615093576150926143b6565b5b61509f888289016144d3565b925050608086013567ffffffffffffffff8111156150c0576150bf6143b6565b5b6150cc888289016144d3565b9150509295509295909350565b600080604083850312156150f0576150ef6143b1565b5b60006150fe85828601614522565b925050602061510f8582860161463c565b9150509250929050565b60008060008060008060c08789031215615136576151356143b1565b5b600087013567ffffffffffffffff811115615154576151536143b6565b5b61516089828a016144d3565b965050602061517189828a01614522565b955050604061518289828a01614522565b945050606061519389828a0161463c565b93505060806151a489828a0161463c565b92505060a087013567ffffffffffffffff8111156151c5576151c46143b6565b5b6151d189828a016144d3565b9150509295509295509295565b6151e7816145ef565b82525050565b6151f681614d45565b82525050565b600060a08201905061521160008301886151de565b61521e60208301876151de565b61522b60408301866151ed565b61523860608301856145c5565b6152456080830184614de9565b9695505050505050565b600080600060608486031215615268576152676143b1565b5b60006152768682870161463c565b935050602084013567ffffffffffffffff811115615297576152966143b6565b5b6152a3868287016144d3565b925050604084013567ffffffffffffffff8111156152c4576152c36143b6565b5b6152d0868287016144d3565b9150509250925092565b600081519050919050565b600082825260208201905092915050565b6000819050602082019050919050565b60a08201600082015161531c6000850182614d0f565b50602082015161532f6020850182614d0f565b5060408201516153426040850182614d57565b5060608201516153556060850182614896565b50608082015161536860808501826146f8565b50505050565b600061537a8383615306565b60a08301905092915050565b6000602082019050919050565b600061539e826152da565b6153a881856152e5565b93506153b3836152f6565b8060005b838110156153e45781516153cb888261536e565b97506153d683615386565b9250506001810190506153b7565b5085935050505092915050565b6000602082019050818103600083015261540b8184615393565b905092915050565b600081519050919050565b600082825260208201905092915050565b6000819050602082019050919050565b60006101608301600083015161545860008601826146f8565b50602083015184820360208601526154708282614756565b9150506040830151848203604086015261548a8282614756565b915050606083015161549f60608601826147f7565b5060808301516154b2608086018261483f565b5060a08301516154c560a0860182614887565b5060c08301516154d860c0860182614896565b5060e08301516154eb60e0860182614896565b50610100830151615500610100860182614896565b506101208301516155156101208601826146f8565b5061014083015184820361014086015261552f8282614756565b9150508091505092915050565b6000615548838361543f565b905092915050565b6000602082019050919050565b600061556882615413565b615572818561541e565b9350836020820285016155848561542f565b8060005b858110156155c057848403895281516155a1858261553c565b94506155ac83615550565b925060208a01995050600181019050615588565b50829750879550505050505092915050565b600060208201905081810360008301526155ec818461555d565b905092915050565b7f596f7520617265206e6f742074686520726967687420757365722e0000000000600082015250565b600061562a601b83614e13565b9150615635826155f4565b602082019050919050565b600060208201905081810360008301526156598161561d565b9050919050565b600081905092915050565b600061567682614707565b6156808185615660565b9350615690818560208601614723565b80840191505092915050565b60008160601b9050919050565b60006156b48261569c565b9050919050565b60006156c6826156a9565b9050919050565b6156de6156d9826145b3565b6156bb565b82525050565b6000819050919050565b6156ff6156fa82614501565b6156e4565b82525050565b6000615711828661566b565b915061571d82856156cd565b60148201915061572d82846156ee565b602082019150819050949350505050565b7f41646472657373206973206e6f742076616c69642e0000000000000000000000600082015250565b6000615774601583614e13565b915061577f8261573e565b602082019050919050565b600060208201905081810360008301526157a381615767565b9050919050565b60008160001c9050919050565b6000819050919050565b60006157d46157cf836157aa565b6157b7565b9050919050565b600060ff82169050919050565b60006157fb6157f6836157aa565b6157db565b9050919050565b60008160081c9050919050565b600073ffffffffffffffffffffffffffffffffffffffff82169050919050565b600061584261583d83615802565b61580f565b9050919050565b6000819050919050565b6000615866615861836157aa565b615849565b9050919050565b60a082016000808301549050615882816157c1565b61588f6000860182614d0f565b50600183015490506158a0816157c1565b6158ad6020860182614d0f565b50600283015490506158be816157e8565b6158cb6040860182614d57565b506158d58161582f565b6158e26060860182614896565b50600383015490506158f381615853565b61590060808601826146f8565b5050505050565b600060a08201905061591c600083018461586d565b92915050565b7f4e487b7100000000000000000000000000000000000000000000000000000000600052601160045260246000fd5b600061595c82614501565b91507fffffffffffffffffffffffffffffffffffffffffffffffffffffffffffffffff82141561598f5761598e615922565b5b600182019050919050565b7f4e487b7100000000000000000000000000000000000000000000000000000000600052602260045260246000fd5b600060028204905060018216806159e157607f821691505b602082108114156159f5576159f461599a565b5b50919050565b7f4e487b7100000000000000000000000000000000000000000000000000000000600052603260045260246000fd5b60008190508160005260206000209050919050565b60008154615a4c816159c9565b615a568186614712565b94506001821660008114615a715760018114615a8357615ab6565b60ff1983168652602086019350615ab6565b615a8c85615a2a565b60005b83811015615aae57815481890152600182019150602081019050615a8f565b808801955050505b50505092915050565b600060ff82169050919050565b6000615adf615ada836157aa565b615abf565b9050919050565b6000615af9615af4836157aa565b61580f565b9050919050565b60008160a01c9050919050565b600060ff82169050919050565b6000615b2d615b2883615b00565b615b0d565b9050919050565b600061014083016000808401549050615b4c81615853565b615b5960008701826146f8565b50600184018583036020870152615b708382615a3f565b92505060028401549050615b8381615acc565b615b9060408701826147f7565b50600384018583036060870152615ba78382615a3f565b92505060048401549050615bba81615ae6565b615bc76080870182614896565b5060058401549050615bd881615ae6565b615be560a0870182614896565b5060068401549050615bf681615ae6565b615c0360c0870182614896565b50615c0d81615b1a565b615c1a60e08701826149fd565b5060078401549050615c2b81615853565b615c396101008701826146f8565b5060088401858303610120870152615c518382615a3f565b925050819250505092915050565b60006020820190508181036000830152615c798184615b34565b905092915050565b600060ff82169050919050565b6000615ca1615c9c83615802565b615c81565b9050919050565b60008160101c9050919050565b600060ff82169050919050565b6000615cd5615cd083615ca8565b615cb5565b9050919050565b60008160181c9050919050565b6000615cfc615cf783615cdc565b61580f565b9050919050565b600061016083016000808401549050615d1b81615853565b615d2860008701826146f8565b50600184018583036020870152615d3f8382615a3f565b925050600284018583036040870152615d588382615a3f565b92505060038401549050615d6b81615acc565b615d7860608701826147f7565b50615d8281615c8e565b615d8f608087018261483f565b50615d9981615cc2565b615da660a0870182614887565b50615db081615ce9565b615dbd60c0870182614896565b5060048401549050615dce81615ae6565b615ddb60e0870182614896565b5060058401549050615dec81615ae6565b615dfa610100870182614896565b5060068401549050615e0b81615853565b615e196101208701826146f8565b5060078401858303610140870152615e318382615a3f565b925050819250505092915050565b60006020820190508181036000830152615e598184615d03565b90509291505056fea2646970667358221220391bd19aee81013b942100da0e24f403e76aebe3fb790cf036c713d8ff2eb5c664736f6c634300080a0033",
  "immutableReferences": {},
  "source": "// SPDX-License-Identifier: MIT\r\npragma solidity >=0.8.0 <0.9.0;\r\n\r\nimport \"./UserChain.sol\";\r\n\r\ncontract ProjectChain is UserChain {\r\n\r\n    constructor() {}\r\n\r\n    modifier onlyUserProject() {\r\n        require(Roles(users[msg.sender]._role) == Roles.UserProject, \"You are not the right user.\");\r\n        _;\r\n    }\r\n\r\n    modifier onlyUserProjectAndCompany() {\r\n        require(\r\n            Roles(users[msg.sender]._role) == Roles.UserProject || Roles(users[msg.sender]._role) == Roles.Company,\r\n            \"You are not the right user.\"\r\n        );\r\n        _;\r\n    }\r\n\r\n\r\n    mapping(address => Project) public projects;\r\n    uint256 public projectsCounter = 0;\r\n    address[] public projectsAddress;\r\n\r\n    function createUniqueProjectAddress(string memory _name, uint256 _index)\r\n        public view onlyUserProject returns (address)\r\n    {\r\n        return address(uint160(uint256(keccak256(abi.encodePacked(_name, msg.sender, _index)))));\r\n    }\r\n\r\n    function createProject(\r\n        address _projectAddress,\r\n        string memory _name,\r\n        uint256 _status,\r\n        string memory _ipfsFileCID,\r\n        string memory _signature\r\n    ) public onlyUserProject {\r\n        projects[_projectAddress] = Project(\r\n            projectsCounter,\r\n            _name,\r\n            ProjectStatus(_status),\r\n            _ipfsFileCID,\r\n            _projectAddress,\r\n            msg.sender,\r\n            address(0x0),\r\n            false,\r\n            block.timestamp,\r\n            _signature\r\n        );\r\n\r\n        emit ProjectEvent(projects[_projectAddress], _projectAddress, address(0x0));\r\n        projectsAddress.push(_projectAddress);\r\n        projectsCounter++;\r\n    }\r\n\r\n    function updateProject(\r\n        address _projectAddress,\r\n        string memory _ipfsFileCID,\r\n        string memory _signature\r\n    ) public onlyUserProject {\r\n        projects[_projectAddress]._ipfsFileCID = _ipfsFileCID;\r\n        projects[_projectAddress]._signature = _signature;\r\n\r\n        emit ProjectEvent(projects[_projectAddress], _projectAddress, address(0x0));\r\n    }\r\n\r\n    function getProjectInfo(address _address)\r\n        public view onlyUserProjectAndCompany returns (Project memory)\r\n    {\r\n        return projects[_address];\r\n    }\r\n\r\n    function getProjectsByUserAddress(address _walletAddress)\r\n        public view onlyUserProjectAndCompany returns (Project[] memory)\r\n    {\r\n        Project[] memory allProjects;\r\n        if (projectsCounter == 0) return allProjects;\r\n\r\n        allProjects = new Project[](projectsCounter);\r\n        for (uint256 index = 0; index < projectsCounter; index++) {\r\n            address _projectAddress = projectsAddress[index];\r\n            if (_walletAddress == projects[_projectAddress]._signerAddress) {\r\n                Project storage project = projects[_projectAddress];\r\n                allProjects[index] = project;\r\n            }\r\n        }\r\n        return allProjects;\r\n    }\r\n\r\n\r\n    mapping(address => Request) public requests;\r\n    uint256 public requestsCounter = 0;\r\n    address[] public requestsAddress;\r\n\r\n    function createUniqueRequestAddress(string memory _title, uint256 _index)\r\n        public view returns (address)\r\n    {\r\n        require(users[msg.sender]._walletAddress == msg.sender, \"Address is not valid.\");\r\n        return address(uint160(uint256(keccak256(abi.encodePacked(_title, msg.sender, _index)))));\r\n    }\r\n\r\n    function createRequest(\r\n        string memory _title,\r\n        uint256 _projectStatus,\r\n        uint256 _requestStatus,\r\n        address _projectAddress,\r\n        address _requestAddress,\r\n        string memory _signature\r\n    ) public onlyUserProjectAndCompany {\r\n        RequestType _requestType = RequestType.SupervisorReq;\r\n        if (ProjectStatus(_projectStatus) == ProjectStatus.StartProject) {\r\n            _requestType = RequestType.CompanyReq;\r\n        }\r\n\r\n        requests[_requestAddress] = Request(\r\n            requestsCounter,\r\n            _title,\r\n            \"\",\r\n            ProjectStatus(_projectStatus),\r\n            RequestStatus(_requestStatus),\r\n            RequestType(_requestType),\r\n            _projectAddress,\r\n            _requestAddress,\r\n            msg.sender,\r\n            block.timestamp,\r\n            _signature\r\n        );\r\n\r\n        emit RequestEvent(requests[_requestAddress], _requestAddress, _projectAddress);\r\n        requestsAddress.push(_requestAddress);\r\n        requestsCounter++;\r\n    }\r\n\r\n    function updateSupervisorRequest(\r\n        string memory _comments,\r\n        uint256 _requestStatus,\r\n        uint256 _projectStatus,\r\n        address _projectAddress,\r\n        address _requestAddress,\r\n        string memory _signature\r\n    ) public {\r\n        require(Roles(users[msg.sender]._role) == Roles.Supervisor, \"You are not the right user.\");\r\n\r\n        // Update Requests Mapping and Struct Array\r\n        requests[_requestAddress]._comments = _comments;\r\n        requests[_requestAddress]._requestStatus = RequestStatus(_requestStatus);\r\n        requests[_requestAddress]._signature = _signature;\r\n        emit RequestEvent(requests[_requestAddress], _requestAddress, _projectAddress);\r\n\r\n        // Update Project Mapping and Struct Array\r\n        if (RequestStatus.Approved == RequestStatus(_requestStatus)) {\r\n            projects[_projectAddress]._status = ProjectStatus(_projectStatus);\r\n            emit ProjectEvent(projects[_projectAddress], _projectAddress, address(0x0));\r\n        }\r\n    }\r\n\r\n    function updateCompanyRequest(\r\n        string memory _comments,\r\n        uint256 _requestStatus,\r\n        uint256 _projectStatus,\r\n        address _projectAddress,\r\n        address _requestAddress,\r\n        string memory _signature\r\n    ) public {\r\n        require(Roles(users[msg.sender]._role) == Roles.Company, \"You are not the right user.\");\r\n\r\n        // Update Requests Mapping and Struct Array\r\n        requests[_requestAddress]._comments = _comments;\r\n        requests[_requestAddress]._requestStatus = RequestStatus(_requestStatus);\r\n        requests[_requestAddress]._signature = _signature;\r\n        emit RequestEvent(requests[_requestAddress], _requestAddress, _projectAddress);\r\n\r\n        // Update Project Mapping and Struct Array\r\n        if (RequestStatus.Approved == RequestStatus(_requestStatus)) {\r\n            projects[_projectAddress]._status = ProjectStatus(_projectStatus);\r\n            projects[_projectAddress]._companyAddress = msg.sender;\r\n            emit ProjectEvent(projects[_projectAddress], _projectAddress, msg.sender);\r\n        }\r\n    }\r\n\r\n    function getAllRequests() public view returns (Request[] memory) {\r\n        require(users[msg.sender]._walletAddress == msg.sender, \"Address is not valid.\");\r\n\r\n        Request[] memory allRequests = new Request[](requestsCounter);\r\n        for (uint256 index = 0; index < requestsCounter; index++) {\r\n            address _requestAddress = requestsAddress[index];\r\n            Request storage request = requests[_requestAddress];\r\n            allRequests[index] = request;\r\n        }\r\n        return allRequests;\r\n    }\r\n\r\n    function getLastProjectRequest(address _projectAddress, address _requestAddress) \r\n        public view onlyUserProjectAndCompany returns (Request memory)\r\n    {\r\n        Request memory request;\r\n        if (requestsCounter > 0) {\r\n            if (requests[_requestAddress]._projectAddress == _projectAddress) {\r\n                request = requests[_requestAddress];\r\n            }\r\n        }\r\n        return request;\r\n    }\r\n}\r\n",
  "sourcePath": "/mnt/c/Users/Beniamin/source/repos/DissertationProject/contracts/ProjectChain.sol",
  "compiler": {
    "name": "solc",
    "version": "0.8.10+commit.fc410830.Emscripten.clang"
  },
  "schemaVersion": "3.4.3",
  "updatedAt": "2021-12-17T20:03:29.876Z",
  "networkType": "ethereum",
  "devdoc": {
    "kind": "dev",
    "methods": {},
    "version": 1
  },
  "userdoc": {
    "kind": "user",
    "methods": {},
    "version": 1
  }
}