{
  "contractName": "Project",
  "abi": [
    {
      "inputs": [],
      "stateMutability": "nonpayable",
      "type": "constructor"
    },
    {
      "anonymous": false,
      "inputs": [
        {
          "indexed": false,
          "internalType": "string",
          "name": "_name",
          "type": "string"
        },
        {
          "indexed": false,
          "internalType": "string",
          "name": "_description",
          "type": "string"
        },
        {
          "indexed": false,
          "internalType": "enum Project.ProjectStatus",
          "name": "_status",
          "type": "uint8"
        }
      ],
      "name": "CreateProject",
      "type": "event"
    },
    {
      "anonymous": false,
      "inputs": [
        {
          "indexed": false,
          "internalType": "uint256",
          "name": "_indexRequest",
          "type": "uint256"
        },
        {
          "indexed": false,
          "internalType": "enum Project.RequestStatus",
          "name": "_status",
          "type": "uint8"
        },
        {
          "components": [
            {
              "internalType": "uint256",
              "name": "index",
              "type": "uint256"
            },
            {
              "internalType": "string",
              "name": "name",
              "type": "string"
            },
            {
              "internalType": "string",
              "name": "description",
              "type": "string"
            },
            {
              "internalType": "enum Project.ProjectStatus",
              "name": "projectStatus",
              "type": "uint8"
            },
            {
              "internalType": "string",
              "name": "ipfsFileCID",
              "type": "string"
            }
          ],
          "indexed": false,
          "internalType": "struct Project.S_Project",
          "name": "_project",
          "type": "tuple"
        },
        {
          "indexed": false,
          "internalType": "enum Project.ProjectStatus",
          "name": "_projectStatus",
          "type": "uint8"
        },
        {
          "indexed": false,
          "internalType": "address",
          "name": "_subjectAddress",
          "type": "address"
        }
      ],
      "name": "UpdateCompanyRequestStatus",
      "type": "event"
    },
    {
      "anonymous": false,
      "inputs": [
        {
          "indexed": false,
          "internalType": "uint256",
          "name": "_indexRequest",
          "type": "uint256"
        },
        {
          "indexed": false,
          "internalType": "enum Project.RequestStatus",
          "name": "_status",
          "type": "uint8"
        },
        {
          "components": [
            {
              "internalType": "uint256",
              "name": "index",
              "type": "uint256"
            },
            {
              "internalType": "string",
              "name": "name",
              "type": "string"
            },
            {
              "internalType": "string",
              "name": "description",
              "type": "string"
            },
            {
              "internalType": "enum Project.ProjectStatus",
              "name": "projectStatus",
              "type": "uint8"
            },
            {
              "internalType": "string",
              "name": "ipfsFileCID",
              "type": "string"
            }
          ],
          "indexed": false,
          "internalType": "struct Project.S_Project",
          "name": "_project",
          "type": "tuple"
        },
        {
          "indexed": false,
          "internalType": "enum Project.ProjectStatus",
          "name": "_projectStatus",
          "type": "uint8"
        },
        {
          "indexed": false,
          "internalType": "address",
          "name": "_subjectAddress",
          "type": "address"
        }
      ],
      "name": "UpdateSupervisorRequestStatus",
      "type": "event"
    },
    {
      "anonymous": false,
      "inputs": [
        {
          "indexed": true,
          "internalType": "address",
          "name": "_walletAddress",
          "type": "address"
        },
        {
          "indexed": true,
          "internalType": "string",
          "name": "_username",
          "type": "string"
        },
        {
          "indexed": false,
          "internalType": "string",
          "name": "_email",
          "type": "string"
        },
        {
          "indexed": false,
          "internalType": "string",
          "name": "_firstname",
          "type": "string"
        },
        {
          "indexed": false,
          "internalType": "string",
          "name": "_lastname",
          "type": "string"
        },
        {
          "indexed": true,
          "internalType": "enum User.Roles",
          "name": "_role",
          "type": "uint8"
        }
      ],
      "name": "UserRegistered",
      "type": "event"
    },
    {
      "inputs": [
        {
          "internalType": "uint256",
          "name": "",
          "type": "uint256"
        }
      ],
      "name": "allProjects",
      "outputs": [
        {
          "internalType": "uint256",
          "name": "index",
          "type": "uint256"
        },
        {
          "internalType": "string",
          "name": "name",
          "type": "string"
        },
        {
          "internalType": "string",
          "name": "description",
          "type": "string"
        },
        {
          "internalType": "enum Project.ProjectStatus",
          "name": "projectStatus",
          "type": "uint8"
        },
        {
          "internalType": "string",
          "name": "ipfsFileCID",
          "type": "string"
        }
      ],
      "stateMutability": "view",
      "type": "function"
    },
    {
      "inputs": [
        {
          "internalType": "uint256",
          "name": "_role",
          "type": "uint256"
        },
        {
          "internalType": "address",
          "name": "_walletAddress",
          "type": "address"
        }
      ],
      "name": "changeUserRole",
      "outputs": [
        {
          "internalType": "string",
          "name": "",
          "type": "string"
        }
      ],
      "stateMutability": "nonpayable",
      "type": "function"
    },
    {
      "inputs": [
        {
          "internalType": "uint256",
          "name": "",
          "type": "uint256"
        }
      ],
      "name": "companyRequests",
      "outputs": [
        {
          "internalType": "uint256",
          "name": "index",
          "type": "uint256"
        },
        {
          "internalType": "string",
          "name": "description",
          "type": "string"
        },
        {
          "internalType": "enum Project.RequestStatus",
          "name": "status",
          "type": "uint8"
        },
        {
          "components": [
            {
              "internalType": "uint256",
              "name": "index",
              "type": "uint256"
            },
            {
              "internalType": "string",
              "name": "name",
              "type": "string"
            },
            {
              "internalType": "string",
              "name": "description",
              "type": "string"
            },
            {
              "internalType": "enum Project.ProjectStatus",
              "name": "projectStatus",
              "type": "uint8"
            },
            {
              "internalType": "string",
              "name": "ipfsFileCID",
              "type": "string"
            }
          ],
          "internalType": "struct Project.S_Project",
          "name": "project",
          "type": "tuple"
        },
        {
          "internalType": "address",
          "name": "subjectAddress",
          "type": "address"
        }
      ],
      "stateMutability": "view",
      "type": "function"
    },
    {
      "inputs": [],
      "name": "getUserAddresses",
      "outputs": [
        {
          "internalType": "address[]",
          "name": "",
          "type": "address[]"
        }
      ],
      "stateMutability": "view",
      "type": "function"
    },
    {
      "inputs": [
        {
          "internalType": "address",
          "name": "_address",
          "type": "address"
        }
      ],
      "name": "getUserInfo",
      "outputs": [
        {
          "components": [
            {
              "internalType": "string",
              "name": "username",
              "type": "string"
            },
            {
              "internalType": "string",
              "name": "email",
              "type": "string"
            },
            {
              "internalType": "string",
              "name": "firstname",
              "type": "string"
            },
            {
              "internalType": "string",
              "name": "lastname",
              "type": "string"
            },
            {
              "internalType": "enum User.Roles",
              "name": "role",
              "type": "uint8"
            },
            {
              "internalType": "address",
              "name": "walletAddress",
              "type": "address"
            }
          ],
          "internalType": "struct User.S_UserData",
          "name": "",
          "type": "tuple"
        }
      ],
      "stateMutability": "view",
      "type": "function"
    },
    {
      "inputs": [],
      "name": "owner",
      "outputs": [
        {
          "internalType": "address",
          "name": "",
          "type": "address"
        }
      ],
      "stateMutability": "view",
      "type": "function"
    },
    {
      "inputs": [
        {
          "internalType": "uint256",
          "name": "",
          "type": "uint256"
        }
      ],
      "name": "projectIds",
      "outputs": [
        {
          "internalType": "uint256",
          "name": "",
          "type": "uint256"
        }
      ],
      "stateMutability": "view",
      "type": "function"
    },
    {
      "inputs": [
        {
          "internalType": "uint256",
          "name": "",
          "type": "uint256"
        }
      ],
      "name": "projects",
      "outputs": [
        {
          "internalType": "uint256",
          "name": "index",
          "type": "uint256"
        },
        {
          "internalType": "string",
          "name": "name",
          "type": "string"
        },
        {
          "internalType": "string",
          "name": "description",
          "type": "string"
        },
        {
          "internalType": "enum Project.ProjectStatus",
          "name": "projectStatus",
          "type": "uint8"
        },
        {
          "internalType": "string",
          "name": "ipfsFileCID",
          "type": "string"
        }
      ],
      "stateMutability": "view",
      "type": "function"
    },
    {
      "inputs": [],
      "name": "projectsCount",
      "outputs": [
        {
          "internalType": "uint256",
          "name": "",
          "type": "uint256"
        }
      ],
      "stateMutability": "view",
      "type": "function"
    },
    {
      "inputs": [
        {
          "internalType": "string",
          "name": "_username",
          "type": "string"
        },
        {
          "internalType": "string",
          "name": "_email",
          "type": "string"
        },
        {
          "internalType": "string",
          "name": "_firstname",
          "type": "string"
        },
        {
          "internalType": "string",
          "name": "_lastname",
          "type": "string"
        },
        {
          "internalType": "uint256",
          "name": "_role",
          "type": "uint256"
        },
        {
          "internalType": "address",
          "name": "_walletAddress",
          "type": "address"
        }
      ],
      "name": "registerUser",
      "outputs": [],
      "stateMutability": "nonpayable",
      "type": "function"
    },
    {
      "inputs": [
        {
          "internalType": "uint256",
          "name": "",
          "type": "uint256"
        }
      ],
      "name": "supervisorRequests",
      "outputs": [
        {
          "internalType": "uint256",
          "name": "index",
          "type": "uint256"
        },
        {
          "internalType": "string",
          "name": "description",
          "type": "string"
        },
        {
          "internalType": "enum Project.RequestStatus",
          "name": "status",
          "type": "uint8"
        },
        {
          "components": [
            {
              "internalType": "uint256",
              "name": "index",
              "type": "uint256"
            },
            {
              "internalType": "string",
              "name": "name",
              "type": "string"
            },
            {
              "internalType": "string",
              "name": "description",
              "type": "string"
            },
            {
              "internalType": "enum Project.ProjectStatus",
              "name": "projectStatus",
              "type": "uint8"
            },
            {
              "internalType": "string",
              "name": "ipfsFileCID",
              "type": "string"
            }
          ],
          "internalType": "struct Project.S_Project",
          "name": "project",
          "type": "tuple"
        },
        {
          "internalType": "address",
          "name": "subjectAddress",
          "type": "address"
        }
      ],
      "stateMutability": "view",
      "type": "function"
    },
    {
      "inputs": [
        {
          "internalType": "uint256",
          "name": "",
          "type": "uint256"
        }
      ],
      "name": "userAddresses",
      "outputs": [
        {
          "internalType": "address",
          "name": "",
          "type": "address"
        }
      ],
      "stateMutability": "view",
      "type": "function"
    },
    {
      "inputs": [
        {
          "internalType": "address",
          "name": "",
          "type": "address"
        }
      ],
      "name": "userInfo",
      "outputs": [
        {
          "internalType": "string",
          "name": "username",
          "type": "string"
        },
        {
          "internalType": "string",
          "name": "email",
          "type": "string"
        },
        {
          "internalType": "string",
          "name": "firstname",
          "type": "string"
        },
        {
          "internalType": "string",
          "name": "lastname",
          "type": "string"
        },
        {
          "internalType": "enum User.Roles",
          "name": "role",
          "type": "uint8"
        },
        {
          "internalType": "address",
          "name": "walletAddress",
          "type": "address"
        }
      ],
      "stateMutability": "view",
      "type": "function"
    },
    {
      "inputs": [],
      "name": "usersCount",
      "outputs": [
        {
          "internalType": "uint256",
          "name": "",
          "type": "uint256"
        }
      ],
      "stateMutability": "view",
      "type": "function"
    },
    {
      "inputs": [
        {
          "internalType": "string",
          "name": "_name",
          "type": "string"
        },
        {
          "internalType": "string",
          "name": "_description",
          "type": "string"
        },
        {
          "internalType": "uint256",
          "name": "_status",
          "type": "uint256"
        },
        {
          "internalType": "string",
          "name": "_ipfsFileCID",
          "type": "string"
        }
      ],
      "name": "createProject",
      "outputs": [],
      "stateMutability": "nonpayable",
      "type": "function"
    },
    {
      "inputs": [
        {
          "internalType": "uint256",
          "name": "_index",
          "type": "uint256"
        }
      ],
      "name": "getProjectInfo",
      "outputs": [
        {
          "components": [
            {
              "internalType": "uint256",
              "name": "index",
              "type": "uint256"
            },
            {
              "internalType": "string",
              "name": "name",
              "type": "string"
            },
            {
              "internalType": "string",
              "name": "description",
              "type": "string"
            },
            {
              "internalType": "enum Project.ProjectStatus",
              "name": "projectStatus",
              "type": "uint8"
            },
            {
              "internalType": "string",
              "name": "ipfsFileCID",
              "type": "string"
            }
          ],
          "internalType": "struct Project.S_Project",
          "name": "",
          "type": "tuple"
        }
      ],
      "stateMutability": "view",
      "type": "function"
    },
    {
      "inputs": [],
      "name": "getAllProjects",
      "outputs": [
        {
          "components": [
            {
              "internalType": "uint256",
              "name": "index",
              "type": "uint256"
            },
            {
              "internalType": "string",
              "name": "name",
              "type": "string"
            },
            {
              "internalType": "string",
              "name": "description",
              "type": "string"
            },
            {
              "internalType": "enum Project.ProjectStatus",
              "name": "projectStatus",
              "type": "uint8"
            },
            {
              "internalType": "string",
              "name": "ipfsFileCID",
              "type": "string"
            }
          ],
          "internalType": "struct Project.S_Project[]",
          "name": "",
          "type": "tuple[]"
        }
      ],
      "stateMutability": "view",
      "type": "function"
    },
    {
      "inputs": [],
      "name": "getProjectIds",
      "outputs": [
        {
          "internalType": "uint256[]",
          "name": "",
          "type": "uint256[]"
        }
      ],
      "stateMutability": "view",
      "type": "function"
    },
    {
      "inputs": [
        {
          "internalType": "string",
          "name": "_text",
          "type": "string"
        },
        {
          "internalType": "address",
          "name": "_addr",
          "type": "address"
        }
      ],
      "name": "createUniqueIdentifier",
      "outputs": [
        {
          "internalType": "bytes32",
          "name": "",
          "type": "bytes32"
        }
      ],
      "stateMutability": "pure",
      "type": "function"
    },
    {
      "inputs": [
        {
          "internalType": "string",
          "name": "_description",
          "type": "string"
        },
        {
          "components": [
            {
              "internalType": "uint256",
              "name": "index",
              "type": "uint256"
            },
            {
              "internalType": "string",
              "name": "name",
              "type": "string"
            },
            {
              "internalType": "string",
              "name": "description",
              "type": "string"
            },
            {
              "internalType": "enum Project.ProjectStatus",
              "name": "projectStatus",
              "type": "uint8"
            },
            {
              "internalType": "string",
              "name": "ipfsFileCID",
              "type": "string"
            }
          ],
          "internalType": "struct Project.S_Project",
          "name": "_project",
          "type": "tuple"
        },
        {
          "internalType": "address",
          "name": "_subjectAddress",
          "type": "address"
        }
      ],
      "name": "requestProjectApprovalFromSupervisor",
      "outputs": [],
      "stateMutability": "nonpayable",
      "type": "function"
    },
    {
      "inputs": [
        {
          "internalType": "string",
          "name": "_description",
          "type": "string"
        },
        {
          "components": [
            {
              "internalType": "uint256",
              "name": "index",
              "type": "uint256"
            },
            {
              "internalType": "string",
              "name": "name",
              "type": "string"
            },
            {
              "internalType": "string",
              "name": "description",
              "type": "string"
            },
            {
              "internalType": "enum Project.ProjectStatus",
              "name": "projectStatus",
              "type": "uint8"
            },
            {
              "internalType": "string",
              "name": "ipfsFileCID",
              "type": "string"
            }
          ],
          "internalType": "struct Project.S_Project",
          "name": "_project",
          "type": "tuple"
        },
        {
          "internalType": "address",
          "name": "_subjectAddress",
          "type": "address"
        }
      ],
      "name": "requestProjectCompleteFromSupervisor",
      "outputs": [],
      "stateMutability": "nonpayable",
      "type": "function"
    },
    {
      "inputs": [
        {
          "internalType": "string",
          "name": "_description",
          "type": "string"
        },
        {
          "components": [
            {
              "internalType": "uint256",
              "name": "index",
              "type": "uint256"
            },
            {
              "internalType": "string",
              "name": "name",
              "type": "string"
            },
            {
              "internalType": "string",
              "name": "description",
              "type": "string"
            },
            {
              "internalType": "enum Project.ProjectStatus",
              "name": "projectStatus",
              "type": "uint8"
            },
            {
              "internalType": "string",
              "name": "ipfsFileCID",
              "type": "string"
            }
          ],
          "internalType": "struct Project.S_Project",
          "name": "_project",
          "type": "tuple"
        },
        {
          "internalType": "address",
          "name": "_subjectAddress",
          "type": "address"
        }
      ],
      "name": "requestStartProjectToCompanyBuilder",
      "outputs": [],
      "stateMutability": "nonpayable",
      "type": "function"
    }
  ],
  "bytecode": "0x60806040526000600255600060085534801561001a57600080fd5b5033600160006101000a81548173ffffffffffffffffffffffffffffffffffffffff021916908373ffffffffffffffffffffffffffffffffffffffff16021790555033600460006101000a81548173ffffffffffffffffffffffffffffffffffffffff021916908373ffffffffffffffffffffffffffffffffffffffff160217905550613d79806100ac6000396000f3fe608060405234801561001057600080fd5b50600436106101425760003560e01c80637748587f116100b8578063911c29a61161007c578063911c29a6146103d4578063953dcd2a146103f0578063a591efde1461040c578063c73b302e1461042a578063d40d4a8014610448578063fabf59681461047c57610142565b80637748587f1461031857806380d03829146103345780638c86a1d7146103525780638da5cb5b1461038657806391009786146103a457610142565b8063502c9bd51161010a578063502c9bd51461021a57806353b3194c1461024a5780636132844f1461027e5780636386c1c7146102ae5780636ba13a82146102de5780636fe3d194146102fc57610142565b8063107046bd146101475780631959a0021461017b57806329a613b5146101b057806346575714146101ce57806348c35ad4146101ea575b600080fd5b610161600480360381019061015c9190612a13565b6104ac565b604051610172959493929190612b5f565b60405180910390f35b61019560048036038101906101909190612c25565b610687565b6040516101a796959493929190612ca9565b60405180910390f35b6101b8610910565b6040516101c59190612de4565b60405180910390f35b6101e860048036038101906101e39190612f3b565b610968565b005b61020460048036038101906101ff9190612a13565b610c01565b6040516102119190612ff6565b60405180910390f35b610234600480360381019061022f9190612a13565b610c25565b6040516102419190613011565b60405180910390f35b610264600480360381019061025f9190612a13565b610c64565b604051610275959493929190612b5f565b60405180910390f35b6102986004803603810190610293919061302c565b610e4f565b6040516102a591906130a1565b60405180910390f35b6102c860048036038101906102c39190612c25565b610e82565b6040516102d591906131c2565b60405180910390f35b6102e66111b3565b6040516102f39190612ff6565b60405180910390f35b610316600480360381019061031191906132f3565b6111b9565b005b610332600480360381019061032d91906132f3565b6113c3565b005b61033c6115cd565b60405161034991906134d3565b60405180910390f35b61036c60048036038101906103679190612a13565b611827565b60405161037d9594939291906135c1565b60405180910390f35b61038e611b17565b60405161039b9190613011565b60405180910390f35b6103be60048036038101906103b99190613622565b611b3d565b6040516103cb9190613662565b60405180910390f35b6103ee60048036038101906103e99190613684565b611c88565b005b61040a600480360381019061040591906132f3565b6120d1565b005b6104146122db565b6040516104219190613830565b60405180910390f35b610432612369565b60405161043f9190612ff6565b60405180910390f35b610462600480360381019061045d9190612a13565b61236f565b6040516104739594939291906135c1565b60405180910390f35b61049660048036038101906104919190612a13565b61265f565b6040516104a39190613852565b60405180910390f35b60056020528060005260406000206000915090508060000154908060010180546104d5906138a3565b80601f0160208091040260200160405190810160405280929190818152602001828054610501906138a3565b801561054e5780601f106105235761010080835404028352916020019161054e565b820191906000526020600020905b81548152906001019060200180831161053157829003601f168201915b505050505090806002018054610563906138a3565b80601f016020809104026020016040519081016040528092919081815260200182805461058f906138a3565b80156105dc5780601f106105b1576101008083540402835291602001916105dc565b820191906000526020600020905b8154815290600101906020018083116105bf57829003601f168201915b5050505050908060030160009054906101000a900460ff1690806004018054610604906138a3565b80601f0160208091040260200160405190810160405280929190818152602001828054610630906138a3565b801561067d5780601f106106525761010080835404028352916020019161067d565b820191906000526020600020905b81548152906001019060200180831161066057829003601f168201915b5050505050905085565b60006020528060005260406000206000915090508060000180546106aa906138a3565b80601f01602080910402602001604051908101604052809291908181526020018280546106d6906138a3565b80156107235780601f106106f857610100808354040283529160200191610723565b820191906000526020600020905b81548152906001019060200180831161070657829003601f168201915b505050505090806001018054610738906138a3565b80601f0160208091040260200160405190810160405280929190818152602001828054610764906138a3565b80156107b15780601f10610786576101008083540402835291602001916107b1565b820191906000526020600020905b81548152906001019060200180831161079457829003601f168201915b5050505050908060020180546107c6906138a3565b80601f01602080910402602001604051908101604052809291908181526020018280546107f2906138a3565b801561083f5780601f106108145761010080835404028352916020019161083f565b820191906000526020600020905b81548152906001019060200180831161082257829003601f168201915b505050505090806003018054610854906138a3565b80601f0160208091040260200160405190810160405280929190818152602001828054610880906138a3565b80156108cd5780601f106108a2576101008083540402835291602001916108cd565b820191906000526020600020905b8154815290600101906020018083116108b057829003601f168201915b5050505050908060040160009054906101000a900460ff16908060040160019054906101000a900473ffffffffffffffffffffffffffffffffffffffff16905086565b6060600980548060200260200160405190810160405280929190818152602001828054801561095e57602002820191906000526020600020905b81548152602001906001019080831161094a575b5050505050905090565b600854600560006008548152602001908152602001600020600001819055508360056000600854815260200190815260200160002060010190805190602001906109b3929190612887565b508260056000600854815260200190815260200160002060020190805190602001906109e0929190612887565b508160058111156109f4576109f3612ae8565b5b60056000600854815260200190815260200160002060030160006101000a81548160ff02191690836005811115610a2e57610a2d612ae8565b5b0217905550806005600060085481526020019081526020016000206004019080519060200190610a5f929190612887565b507f274f009187cb91dd70ef9fd455c66e7263b5fc9746490cba15a3be400f580fa88484846005811115610a9657610a95612ae8565b5b604051610aa5939291906138d5565b60405180910390a160096008549080600181540180825580915050600190039060005260206000200160009091909190915055600a6040518060a001604052806008548152602001868152602001858152602001846005811115610b0c57610b0b612ae8565b5b6005811115610b1e57610b1d612ae8565b5b8152602001838152509080600181540180825580915050600190039060005260206000209060050201600090919091909150600082015181600001556020820151816001019080519060200190610b76929190612887565b506040820151816002019080519060200190610b93929190612887565b5060608201518160030160006101000a81548160ff02191690836005811115610bbf57610bbe612ae8565b5b02179055506080820151816004019080519060200190610be0929190612887565b50505060086000815480929190610bf690613949565b919050555050505050565b60098181548110610c1157600080fd5b906000526020600020016000915090505481565b60038181548110610c3557600080fd5b906000526020600020016000915054906101000a900473ffffffffffffffffffffffffffffffffffffffff1681565b600a8181548110610c7457600080fd5b9060005260206000209060050201600091509050806000015490806001018054610c9d906138a3565b80601f0160208091040260200160405190810160405280929190818152602001828054610cc9906138a3565b8015610d165780601f10610ceb57610100808354040283529160200191610d16565b820191906000526020600020905b815481529060010190602001808311610cf957829003601f168201915b505050505090806002018054610d2b906138a3565b80601f0160208091040260200160405190810160405280929190818152602001828054610d57906138a3565b8015610da45780601f10610d7957610100808354040283529160200191610da4565b820191906000526020600020905b815481529060010190602001808311610d8757829003601f168201915b5050505050908060030160009054906101000a900460ff1690806004018054610dcc906138a3565b80601f0160208091040260200160405190810160405280929190818152602001828054610df8906138a3565b8015610e455780601f10610e1a57610100808354040283529160200191610e45565b820191906000526020600020905b815481529060010190602001808311610e2857829003601f168201915b5050505050905085565b60008282604051602001610e64929190613a16565b60405160208183030381529060405280519060200120905092915050565b610e8a61290d565b6000808373ffffffffffffffffffffffffffffffffffffffff1673ffffffffffffffffffffffffffffffffffffffff1681526020019081526020016000206040518060c0016040529081600082018054610ee3906138a3565b80601f0160208091040260200160405190810160405280929190818152602001828054610f0f906138a3565b8015610f5c5780601f10610f3157610100808354040283529160200191610f5c565b820191906000526020600020905b815481529060010190602001808311610f3f57829003601f168201915b50505050508152602001600182018054610f75906138a3565b80601f0160208091040260200160405190810160405280929190818152602001828054610fa1906138a3565b8015610fee5780601f10610fc357610100808354040283529160200191610fee565b820191906000526020600020905b815481529060010190602001808311610fd157829003601f168201915b50505050508152602001600282018054611007906138a3565b80601f0160208091040260200160405190810160405280929190818152602001828054611033906138a3565b80156110805780601f1061105557610100808354040283529160200191611080565b820191906000526020600020905b81548152906001019060200180831161106357829003601f168201915b50505050508152602001600382018054611099906138a3565b80601f01602080910402602001604051908101604052809291908181526020018280546110c5906138a3565b80156111125780601f106110e757610100808354040283529160200191611112565b820191906000526020600020905b8154815290600101906020018083116110f557829003601f168201915b505050505081526020016004820160009054906101000a900460ff1660038111156111405761113f612ae8565b5b600381111561115257611151612ae8565b5b81526020016004820160019054906101000a900473ffffffffffffffffffffffffffffffffffffffff1673ffffffffffffffffffffffffffffffffffffffff1673ffffffffffffffffffffffffffffffffffffffff16815250509050919050565b60025481565b600460058111156111cd576111cc612ae8565b5b826060015160058111156111e4576111e3612ae8565b5b14611224576040517f08c379a000000000000000000000000000000000000000000000000000000000815260040161121b90613ad6565b60405180910390fd5b600060076000600c548152602001908152602001600020905083816001019080519060200190611255929190612887565b5060008160020160006101000a81548160ff0219169083600181111561127e5761127d612ae8565b5b021790555082816003016000820151816000015560208201518160010190805190602001906112ae929190612887565b5060408201518160020190805190602001906112cb929190612887565b5060608201518160030160006101000a81548160ff021916908360058111156112f7576112f6612ae8565b5b02179055506080820151816004019080519060200190611318929190612887565b50905050818160080160006101000a81548173ffffffffffffffffffffffffffffffffffffffff021916908373ffffffffffffffffffffffffffffffffffffffff1602179055507fc0a7086e05590c8d9160aba8dc6a29b754eda15e93d2a2578429bc2fda6bdec3600c5460008586606001518660405161139d959493929190613af6565b60405180910390a1600c60008154809291906113b890613949565b919050555050505050565b600060058111156113d7576113d6612ae8565b5b826060015160058111156113ee576113ed612ae8565b5b1461142e576040517f08c379a000000000000000000000000000000000000000000000000000000000815260040161142590613bc2565b60405180910390fd5b600060076000600c54815260200190815260200160002090508381600101908051906020019061145f929190612887565b5060008160020160006101000a81548160ff0219169083600181111561148857611487612ae8565b5b021790555082816003016000820151816000015560208201518160010190805190602001906114b8929190612887565b5060408201518160020190805190602001906114d5929190612887565b5060608201518160030160006101000a81548160ff0219169083600581111561150157611500612ae8565b5b02179055506080820151816004019080519060200190611522929190612887565b50905050818160080160006101000a81548173ffffffffffffffffffffffffffffffffffffffff021916908373ffffffffffffffffffffffffffffffffffffffff1602179055507fc0a7086e05590c8d9160aba8dc6a29b754eda15e93d2a2578429bc2fda6bdec3600c546000858660600151866040516115a7959493929190613af6565b60405180910390a1600c60008154809291906115c290613949565b919050555050505050565b6060600a805480602002602001604051908101604052809291908181526020016000905b8282101561181e57838290600052602060002090600502016040518060a00160405290816000820154815260200160018201805461162e906138a3565b80601f016020809104026020016040519081016040528092919081815260200182805461165a906138a3565b80156116a75780601f1061167c576101008083540402835291602001916116a7565b820191906000526020600020905b81548152906001019060200180831161168a57829003601f168201915b505050505081526020016002820180546116c0906138a3565b80601f01602080910402602001604051908101604052809291908181526020018280546116ec906138a3565b80156117395780601f1061170e57610100808354040283529160200191611739565b820191906000526020600020905b81548152906001019060200180831161171c57829003601f168201915b505050505081526020016003820160009054906101000a900460ff16600581111561176757611766612ae8565b5b600581111561177957611778612ae8565b5b815260200160048201805461178d906138a3565b80601f01602080910402602001604051908101604052809291908181526020018280546117b9906138a3565b80156118065780601f106117db57610100808354040283529160200191611806565b820191906000526020600020905b8154815290600101906020018083116117e957829003601f168201915b505050505081525050815260200190600101906115f1565b50505050905090565b6007602052806000526040600020600091509050806000015490806001018054611850906138a3565b80601f016020809104026020016040519081016040528092919081815260200182805461187c906138a3565b80156118c95780601f1061189e576101008083540402835291602001916118c9565b820191906000526020600020905b8154815290600101906020018083116118ac57829003601f168201915b5050505050908060020160009054906101000a900460ff1690806003016040518060a00160405290816000820154815260200160018201805461190b906138a3565b80601f0160208091040260200160405190810160405280929190818152602001828054611937906138a3565b80156119845780601f1061195957610100808354040283529160200191611984565b820191906000526020600020905b81548152906001019060200180831161196757829003601f168201915b5050505050815260200160028201805461199d906138a3565b80601f01602080910402602001604051908101604052809291908181526020018280546119c9906138a3565b8015611a165780601f106119eb57610100808354040283529160200191611a16565b820191906000526020600020905b8154815290600101906020018083116119f957829003601f168201915b505050505081526020016003820160009054906101000a900460ff166005811115611a4457611a43612ae8565b5b6005811115611a5657611a55612ae8565b5b8152602001600482018054611a6a906138a3565b80601f0160208091040260200160405190810160405280929190818152602001828054611a96906138a3565b8015611ae35780601f10611ab857610100808354040283529160200191611ae3565b820191906000526020600020905b815481529060010190602001808311611ac657829003601f168201915b505050505081525050908060080160009054906101000a900473ffffffffffffffffffffffffffffffffffffffff16905085565b600160009054906101000a900473ffffffffffffffffffffffffffffffffffffffff1681565b60603373ffffffffffffffffffffffffffffffffffffffff16600160009054906101000a900473ffffffffffffffffffffffffffffffffffffffff1673ffffffffffffffffffffffffffffffffffffffff1614611bcf576040517f08c379a0000000000000000000000000000000000000000000000000000000008152600401611bc690613c2e565b60405180910390fd5b826003811115611be257611be1612ae8565b5b6000808473ffffffffffffffffffffffffffffffffffffffff1673ffffffffffffffffffffffffffffffffffffffff16815260200190815260200160002060040160006101000a81548160ff02191690836003811115611c4557611c44612ae8565b5b02179055506040518060400160405280600d81526020017f526f6c6520557064617465642100000000000000000000000000000000000000815250905092915050565b3373ffffffffffffffffffffffffffffffffffffffff16600160009054906101000a900473ffffffffffffffffffffffffffffffffffffffff1673ffffffffffffffffffffffffffffffffffffffff1614611d18576040517f08c379a0000000000000000000000000000000000000000000000000000000008152600401611d0f90613c2e565b60405180910390fd5b856000808373ffffffffffffffffffffffffffffffffffffffff1673ffffffffffffffffffffffffffffffffffffffff1681526020019081526020016000206000019080519060200190611d6d929190612887565b50856000808373ffffffffffffffffffffffffffffffffffffffff1673ffffffffffffffffffffffffffffffffffffffff1681526020019081526020016000206000019080519060200190611dc3929190612887565b50846000808373ffffffffffffffffffffffffffffffffffffffff1673ffffffffffffffffffffffffffffffffffffffff1681526020019081526020016000206001019080519060200190611e19929190612887565b50836000808373ffffffffffffffffffffffffffffffffffffffff1673ffffffffffffffffffffffffffffffffffffffff1681526020019081526020016000206002019080519060200190611e6f929190612887565b50826000808373ffffffffffffffffffffffffffffffffffffffff1673ffffffffffffffffffffffffffffffffffffffff1681526020019081526020016000206003019080519060200190611ec5929190612887565b50816003811115611ed957611ed8612ae8565b5b6000808373ffffffffffffffffffffffffffffffffffffffff1673ffffffffffffffffffffffffffffffffffffffff16815260200190815260200160002060040160006101000a81548160ff02191690836003811115611f3c57611f3b612ae8565b5b0217905550806000808373ffffffffffffffffffffffffffffffffffffffff1673ffffffffffffffffffffffffffffffffffffffff16815260200190815260200160002060040160016101000a81548173ffffffffffffffffffffffffffffffffffffffff021916908373ffffffffffffffffffffffffffffffffffffffff160217905550816003811115611fd457611fd3612ae8565b5b6003811115611fe657611fe5612ae8565b5b86604051611ff49190613c4e565b60405180910390208273ffffffffffffffffffffffffffffffffffffffff167fddb5d1667467713eb503e7e133811c91a231cb6b63f11930889c6004f36c35ee88888860405161204693929190613c65565b60405180910390a46003819080600181540180825580915050600190039060005260206000200160009091909190916101000a81548173ffffffffffffffffffffffffffffffffffffffff021916908373ffffffffffffffffffffffffffffffffffffffff160217905550600260008154809291906120c490613949565b9190505550505050505050565b600160058111156120e5576120e4612ae8565b5b826060015160058111156120fc576120fb612ae8565b5b1461213c576040517f08c379a000000000000000000000000000000000000000000000000000000000815260040161213390613d23565b60405180910390fd5b600060066000600b54815260200190815260200160002090508381600101908051906020019061216d929190612887565b5060008160020160006101000a81548160ff0219169083600181111561219657612195612ae8565b5b021790555082816003016000820151816000015560208201518160010190805190602001906121c6929190612887565b5060408201518160020190805190602001906121e3929190612887565b5060608201518160030160006101000a81548160ff0219169083600581111561220f5761220e612ae8565b5b02179055506080820151816004019080519060200190612230929190612887565b50905050818160080160006101000a81548173ffffffffffffffffffffffffffffffffffffffff021916908373ffffffffffffffffffffffffffffffffffffffff1602179055507f56cef5b605de75dde94390e0903b843a7c7203544ad094da5db5ecdafb897cb8600b546000858660600151866040516122b5959493929190613af6565b60405180910390a1600b60008154809291906122d090613949565b919050555050505050565b6060600380548060200260200160405190810160405280929190818152602001828054801561235f57602002820191906000526020600020905b8160009054906101000a900473ffffffffffffffffffffffffffffffffffffffff1673ffffffffffffffffffffffffffffffffffffffff1681526020019060010190808311612315575b5050505050905090565b60085481565b6006602052806000526040600020600091509050806000015490806001018054612398906138a3565b80601f01602080910402602001604051908101604052809291908181526020018280546123c4906138a3565b80156124115780601f106123e657610100808354040283529160200191612411565b820191906000526020600020905b8154815290600101906020018083116123f457829003601f168201915b5050505050908060020160009054906101000a900460ff1690806003016040518060a001604052908160008201548152602001600182018054612453906138a3565b80601f016020809104026020016040519081016040528092919081815260200182805461247f906138a3565b80156124cc5780601f106124a1576101008083540402835291602001916124cc565b820191906000526020600020905b8154815290600101906020018083116124af57829003601f168201915b505050505081526020016002820180546124e5906138a3565b80601f0160208091040260200160405190810160405280929190818152602001828054612511906138a3565b801561255e5780601f106125335761010080835404028352916020019161255e565b820191906000526020600020905b81548152906001019060200180831161254157829003601f168201915b505050505081526020016003820160009054906101000a900460ff16600581111561258c5761258b612ae8565b5b600581111561259e5761259d612ae8565b5b81526020016004820180546125b2906138a3565b80601f01602080910402602001604051908101604052809291908181526020018280546125de906138a3565b801561262b5780601f106126005761010080835404028352916020019161262b565b820191906000526020600020905b81548152906001019060200180831161260e57829003601f168201915b505050505081525050908060080160009054906101000a900473ffffffffffffffffffffffffffffffffffffffff16905085565b61266761296b565b600560008381526020019081526020016000206040518060a00160405290816000820154815260200160018201805461269f906138a3565b80601f01602080910402602001604051908101604052809291908181526020018280546126cb906138a3565b80156127185780601f106126ed57610100808354040283529160200191612718565b820191906000526020600020905b8154815290600101906020018083116126fb57829003601f168201915b50505050508152602001600282018054612731906138a3565b80601f016020809104026020016040519081016040528092919081815260200182805461275d906138a3565b80156127aa5780601f1061277f576101008083540402835291602001916127aa565b820191906000526020600020905b81548152906001019060200180831161278d57829003601f168201915b505050505081526020016003820160009054906101000a900460ff1660058111156127d8576127d7612ae8565b5b60058111156127ea576127e9612ae8565b5b81526020016004820180546127fe906138a3565b80601f016020809104026020016040519081016040528092919081815260200182805461282a906138a3565b80156128775780601f1061284c57610100808354040283529160200191612877565b820191906000526020600020905b81548152906001019060200180831161285a57829003601f168201915b5050505050815250509050919050565b828054612893906138a3565b90600052602060002090601f0160209004810192826128b557600085556128fc565b82601f106128ce57805160ff19168380011785556128fc565b828001600101855582156128fc579182015b828111156128fb5782518255916020019190600101906128e0565b5b50905061290991906129ac565b5090565b6040518060c00160405280606081526020016060815260200160608152602001606081526020016000600381111561294857612947612ae8565b5b8152602001600073ffffffffffffffffffffffffffffffffffffffff1681525090565b6040518060a001604052806000815260200160608152602001606081526020016000600581111561299f5761299e612ae8565b5b8152602001606081525090565b5b808211156129c55760008160009055506001016129ad565b5090565b6000604051905090565b600080fd5b600080fd5b6000819050919050565b6129f0816129dd565b81146129fb57600080fd5b50565b600081359050612a0d816129e7565b92915050565b600060208284031215612a2957612a286129d3565b5b6000612a37848285016129fe565b91505092915050565b612a49816129dd565b82525050565b600081519050919050565b600082825260208201905092915050565b60005b83811015612a89578082015181840152602081019050612a6e565b83811115612a98576000848401525b50505050565b6000601f19601f8301169050919050565b6000612aba82612a4f565b612ac48185612a5a565b9350612ad4818560208601612a6b565b612add81612a9e565b840191505092915050565b7f4e487b7100000000000000000000000000000000000000000000000000000000600052602160045260246000fd5b60068110612b2857612b27612ae8565b5b50565b6000819050612b3982612b17565b919050565b6000612b4982612b2b565b9050919050565b612b5981612b3e565b82525050565b600060a082019050612b746000830188612a40565b8181036020830152612b868187612aaf565b90508181036040830152612b9a8186612aaf565b9050612ba96060830185612b50565b8181036080830152612bbb8184612aaf565b90509695505050505050565b600073ffffffffffffffffffffffffffffffffffffffff82169050919050565b6000612bf282612bc7565b9050919050565b612c0281612be7565b8114612c0d57600080fd5b50565b600081359050612c1f81612bf9565b92915050565b600060208284031215612c3b57612c3a6129d3565b5b6000612c4984828501612c10565b91505092915050565b60048110612c6357612c62612ae8565b5b50565b6000819050612c7482612c52565b919050565b6000612c8482612c66565b9050919050565b612c9481612c79565b82525050565b612ca381612be7565b82525050565b600060c0820190508181036000830152612cc38189612aaf565b90508181036020830152612cd78188612aaf565b90508181036040830152612ceb8187612aaf565b90508181036060830152612cff8186612aaf565b9050612d0e6080830185612c8b565b612d1b60a0830184612c9a565b979650505050505050565b600081519050919050565b600082825260208201905092915050565b6000819050602082019050919050565b612d5b816129dd565b82525050565b6000612d6d8383612d52565b60208301905092915050565b6000602082019050919050565b6000612d9182612d26565b612d9b8185612d31565b9350612da683612d42565b8060005b83811015612dd7578151612dbe8882612d61565b9750612dc983612d79565b925050600181019050612daa565b5085935050505092915050565b60006020820190508181036000830152612dfe8184612d86565b905092915050565b600080fd5b600080fd5b7f4e487b7100000000000000000000000000000000000000000000000000000000600052604160045260246000fd5b612e4882612a9e565b810181811067ffffffffffffffff82111715612e6757612e66612e10565b5b80604052505050565b6000612e7a6129c9565b9050612e868282612e3f565b919050565b600067ffffffffffffffff821115612ea657612ea5612e10565b5b612eaf82612a9e565b9050602081019050919050565b82818337600083830152505050565b6000612ede612ed984612e8b565b612e70565b905082815260208101848484011115612efa57612ef9612e0b565b5b612f05848285612ebc565b509392505050565b600082601f830112612f2257612f21612e06565b5b8135612f32848260208601612ecb565b91505092915050565b60008060008060808587031215612f5557612f546129d3565b5b600085013567ffffffffffffffff811115612f7357612f726129d8565b5b612f7f87828801612f0d565b945050602085013567ffffffffffffffff811115612fa057612f9f6129d8565b5b612fac87828801612f0d565b9350506040612fbd878288016129fe565b925050606085013567ffffffffffffffff811115612fde57612fdd6129d8565b5b612fea87828801612f0d565b91505092959194509250565b600060208201905061300b6000830184612a40565b92915050565b60006020820190506130266000830184612c9a565b92915050565b60008060408385031215613043576130426129d3565b5b600083013567ffffffffffffffff811115613061576130606129d8565b5b61306d85828601612f0d565b925050602061307e85828601612c10565b9150509250929050565b6000819050919050565b61309b81613088565b82525050565b60006020820190506130b66000830184613092565b92915050565b600082825260208201905092915050565b60006130d882612a4f565b6130e281856130bc565b93506130f2818560208601612a6b565b6130fb81612a9e565b840191505092915050565b61310f81612c79565b82525050565b61311e81612be7565b82525050565b600060c083016000830151848203600086015261314182826130cd565b9150506020830151848203602086015261315b82826130cd565b9150506040830151848203604086015261317582826130cd565b9150506060830151848203606086015261318f82826130cd565b91505060808301516131a46080860182613106565b5060a08301516131b760a0860182613115565b508091505092915050565b600060208201905081810360008301526131dc8184613124565b905092915050565b600080fd5b600080fd5b600681106131fb57600080fd5b50565b60008135905061320d816131ee565b92915050565b600060a08284031215613229576132286131e4565b5b61323360a0612e70565b90506000613243848285016129fe565b600083015250602082013567ffffffffffffffff811115613267576132666131e9565b5b61327384828501612f0d565b602083015250604082013567ffffffffffffffff811115613297576132966131e9565b5b6132a384828501612f0d565b60408301525060606132b7848285016131fe565b606083015250608082013567ffffffffffffffff8111156132db576132da6131e9565b5b6132e784828501612f0d565b60808301525092915050565b60008060006060848603121561330c5761330b6129d3565b5b600084013567ffffffffffffffff81111561332a576133296129d8565b5b61333686828701612f0d565b935050602084013567ffffffffffffffff811115613357576133566129d8565b5b61336386828701613213565b925050604061337486828701612c10565b9150509250925092565b600081519050919050565b600082825260208201905092915050565b6000819050602082019050919050565b6133b381612b3e565b82525050565b600060a0830160008301516133d16000860182612d52565b50602083015184820360208601526133e982826130cd565b9150506040830151848203604086015261340382826130cd565b915050606083015161341860608601826133aa565b506080830151848203608086015261343082826130cd565b9150508091505092915050565b600061344983836133b9565b905092915050565b6000602082019050919050565b60006134698261337e565b6134738185613389565b9350836020820285016134858561339a565b8060005b858110156134c157848403895281516134a2858261343d565b94506134ad83613451565b925060208a01995050600181019050613489565b50829750879550505050505092915050565b600060208201905081810360008301526134ed818461345e565b905092915050565b6002811061350657613505612ae8565b5b50565b6000819050613517826134f5565b919050565b600061352782613509565b9050919050565b6135378161351c565b82525050565b600060a0830160008301516135556000860182612d52565b506020830151848203602086015261356d82826130cd565b9150506040830151848203604086015261358782826130cd565b915050606083015161359c60608601826133aa565b50608083015184820360808601526135b482826130cd565b9150508091505092915050565b600060a0820190506135d66000830188612a40565b81810360208301526135e88187612aaf565b90506135f7604083018661352e565b8181036060830152613609818561353d565b90506136186080830184612c9a565b9695505050505050565b60008060408385031215613639576136386129d3565b5b6000613647858286016129fe565b925050602061365885828601612c10565b9150509250929050565b6000602082019050818103600083015261367c8184612aaf565b905092915050565b60008060008060008060c087890312156136a1576136a06129d3565b5b600087013567ffffffffffffffff8111156136bf576136be6129d8565b5b6136cb89828a01612f0d565b965050602087013567ffffffffffffffff8111156136ec576136eb6129d8565b5b6136f889828a01612f0d565b955050604087013567ffffffffffffffff811115613719576137186129d8565b5b61372589828a01612f0d565b945050606087013567ffffffffffffffff811115613746576137456129d8565b5b61375289828a01612f0d565b935050608061376389828a016129fe565b92505060a061377489828a01612c10565b9150509295509295509295565b600081519050919050565b600082825260208201905092915050565b6000819050602082019050919050565b60006137b98383613115565b60208301905092915050565b6000602082019050919050565b60006137dd82613781565b6137e7818561378c565b93506137f28361379d565b8060005b8381101561382357815161380a88826137ad565b9750613815836137c5565b9250506001810190506137f6565b5085935050505092915050565b6000602082019050818103600083015261384a81846137d2565b905092915050565b6000602082019050818103600083015261386c818461353d565b905092915050565b7f4e487b7100000000000000000000000000000000000000000000000000000000600052602260045260246000fd5b600060028204905060018216806138bb57607f821691505b602082108114156138cf576138ce613874565b5b50919050565b600060608201905081810360008301526138ef8186612aaf565b905081810360208301526139038185612aaf565b90506139126040830184612b50565b949350505050565b7f4e487b7100000000000000000000000000000000000000000000000000000000600052601160045260246000fd5b6000613954826129dd565b91507fffffffffffffffffffffffffffffffffffffffffffffffffffffffffffffffff8214156139875761398661391a565b5b600182019050919050565b600081905092915050565b60006139a882612a4f565b6139b28185613992565b93506139c2818560208601612a6b565b80840191505092915050565b60008160601b9050919050565b60006139e6826139ce565b9050919050565b60006139f8826139db565b9050919050565b613a10613a0b82612be7565b6139ed565b82525050565b6000613a22828561399d565b9150613a2e82846139ff565b6014820191508190509392505050565b7f5468652070726f6a656374206973206e6f7420696e2074686520274265666f7260008201527f6546696e616c697a6174696f6e436865636b27207374617475732c207468652060208201527f6f7065726174696f6e2063616e6e6f7420626520646f6e652e00000000000000604082015250565b6000613ac0605983612a5a565b9150613acb82613a3e565b606082019050919050565b60006020820190508181036000830152613aef81613ab3565b9050919050565b600060a082019050613b0b6000830188612a40565b613b18602083018761352e565b8181036040830152613b2a818661353d565b9050613b396060830185612b50565b613b466080830184612c9a565b9695505050505050565b7f5468652070726f6a656374206973206e6f7420637265617465642c207468652060008201527f6f7065726174696f6e2063616e6e6f7420626520646f6e652e00000000000000602082015250565b6000613bac603983612a5a565b9150613bb782613b50565b604082019050919050565b60006020820190508181036000830152613bdb81613b9f565b9050919050565b7f596f7520617265206e6f7420616e206f776e6572000000000000000000000000600082015250565b6000613c18601483612a5a565b9150613c2382613be2565b602082019050919050565b60006020820190508181036000830152613c4781613c0b565b9050919050565b6000613c5a828461399d565b915081905092915050565b60006060820190508181036000830152613c7f8186612aaf565b90508181036020830152613c938185612aaf565b90508181036040830152613ca78184612aaf565b9050949350505050565b7f5468652070726f6a656374206973206e6f7420617070726f7665642c2074686560008201527f206f7065726174696f6e2063616e6e6f7420626520646f6e652e000000000000602082015250565b6000613d0d603a83612a5a565b9150613d1882613cb1565b604082019050919050565b60006020820190508181036000830152613d3c81613d00565b905091905056fea2646970667358221220447d69da57c36cde219e7f9bba3b512e22114aa3563921eb5eae0c325a69f7d364736f6c634300080a0033",
  "immutableReferences": {},
  "source": "// SPDX-License-Identifier: MIT\r\npragma solidity >=0.8.0 <0.9.0;\r\n\r\nimport \"./User.sol\";\r\n\r\ncontract Project is User {\r\n\r\n    address projectInitiator;\r\n\r\n    mapping(uint => S_Project) public projects;\r\n    mapping(uint => S_Request) public companyRequests;\r\n    mapping(uint => S_Request) public supervisorRequests;\r\n\r\n    uint public projectsCount = 0;\r\n    uint[] public projectIds;\r\n    S_Project[] public allProjects;\r\n\r\n    uint indexCompanyRequest;\r\n    uint indexSupervisorRequest;\r\n\r\n    struct S_Project {\r\n        uint index;\r\n        string name;\r\n        string description;\r\n        ProjectStatus projectStatus;\r\n        string ipfsFileCID;\r\n    }\r\n\r\n    struct S_Request {\r\n        uint index;\r\n        string description;\r\n        RequestStatus status;\r\n        S_Project project;\r\n        address subjectAddress;\r\n    }\r\n\r\n    enum RequestStatus { Unverified, Verified }\r\n    enum ProjectStatus { Created, Approved, Rejected, OnGoing, BeforeFinalizationCheck, Completed }\r\n\r\n    //event CreateProject(uint _indexProject, Project.ProjectStatus _projectStatus, address _address);\r\n    event CreateProject(string _name, string _description, ProjectStatus _status);\r\n\r\n    event UpdateSupervisorRequestStatus(uint _indexRequest, RequestStatus _status, S_Project _project, ProjectStatus _projectStatus, address _subjectAddress);\r\n    event UpdateCompanyRequestStatus(uint _indexRequest, RequestStatus _status, S_Project _project, ProjectStatus _projectStatus, address _subjectAddress);\r\n\r\n    constructor() {\r\n        projectInitiator = msg.sender;\r\n    }\r\n\r\n    modifier onlyProjectInitiator {\r\n        require(userInfo[projectInitiator].role == Roles.ProjectInitiator, \"You don't have the rights for this resources.\");\r\n        require(projectInitiator == msg.sender, \"You are not a project initiator\");\r\n        _;\r\n    }\r\n\r\n    function createProject(string memory _name, string memory _description, uint _status, string memory _ipfsFileCID) public  {\r\n        //bytes32 _identifier = createUniqueIdentifier(_hashStringValue, msg.sender);\r\n\r\n        projects[projectsCount].index = projectsCount;\r\n        //projects[projectsCount].identifier = _identifier;\r\n        projects[projectsCount].name = _name;\r\n        projects[projectsCount].description = _description;\r\n        projects[projectsCount].projectStatus = ProjectStatus(_status);\r\n        projects[projectsCount].ipfsFileCID = _ipfsFileCID;\r\n\r\n        emit CreateProject(_name, _description, ProjectStatus(_status));\r\n        projectIds.push(projectsCount);\r\n        allProjects.push(S_Project(projectsCount, _name, _description, ProjectStatus(_status), _ipfsFileCID));\r\n        projectsCount++;\r\n    }\r\n\r\n    function getProjectInfo(uint _index)\r\n        external\r\n        view\r\n        returns (S_Project memory)\r\n    {\r\n        return projects[_index];\r\n    }\r\n\r\n    function getAllProjects() public view returns(S_Project[] memory) {\r\n        return allProjects;\r\n    }\r\n\r\n    function getProjectIds() external view returns (uint[] memory) {\r\n        return projectIds;\r\n    }\r\n\r\n    function createUniqueIdentifier(string memory _text, address _addr) public pure returns (bytes32)  {\r\n        return keccak256(abi.encodePacked(_text, _addr));\r\n    }\r\n\r\n    function requestProjectApprovalFromSupervisor(string memory _description, S_Project memory _project, address _subjectAddress) public {\r\n        require(_project.projectStatus == ProjectStatus.Created, \"The project is not created, the operation cannot be done.\");\r\n\r\n        S_Request storage request = supervisorRequests[indexSupervisorRequest];\r\n        request.description = _description;\r\n        request.status = RequestStatus.Unverified;\r\n        request.project = _project;\r\n        request.subjectAddress = _subjectAddress;\r\n\r\n        emit UpdateSupervisorRequestStatus(indexSupervisorRequest, RequestStatus.Unverified, _project, _project.projectStatus, _subjectAddress);\r\n        indexSupervisorRequest++;\r\n    }\r\n\r\n    function requestProjectCompleteFromSupervisor(string memory _description, S_Project memory _project, address _subjectAddress) public {\r\n        require(\r\n            _project.projectStatus == ProjectStatus.BeforeFinalizationCheck,\r\n            \"The project is not in the 'BeforeFinalizationCheck' status, the operation cannot be done.\"\r\n        );\r\n\r\n        S_Request storage request = supervisorRequests[indexSupervisorRequest];\r\n        request.description = _description;\r\n        request.status = RequestStatus.Unverified;\r\n        request.project = _project;\r\n        request.subjectAddress = _subjectAddress;\r\n\r\n        emit UpdateSupervisorRequestStatus(indexSupervisorRequest, RequestStatus.Unverified, _project, _project.projectStatus, _subjectAddress);\r\n        indexSupervisorRequest++;\r\n    }\r\n\r\n    function requestStartProjectToCompanyBuilder(string memory _description, S_Project memory _project, address _subjectAddress) public {\r\n        require(_project.projectStatus == ProjectStatus.Approved, \"The project is not approved, the operation cannot be done.\");\r\n\r\n        S_Request storage request = companyRequests[indexCompanyRequest];\r\n        request.description = _description;\r\n        request.status = RequestStatus.Unverified;\r\n        request.project = _project;\r\n        request.subjectAddress = _subjectAddress;\r\n\r\n        emit UpdateCompanyRequestStatus(indexCompanyRequest, RequestStatus.Unverified, _project, _project.projectStatus, _subjectAddress);\r\n        indexCompanyRequest++;\r\n    }\r\n}",
  "sourcePath": "/mnt/c/users/beniamin/source/repos/dissertationproject/contracts/Project.sol",
  "compiler": {
    "name": "solc",
    "version": "0.8.10+commit.fc410830.Emscripten.clang"
  },
  "schemaVersion": "3.4.3",
  "updatedAt": "2021-11-17T06:46:07.684Z",
  "devdoc": {
    "kind": "dev",
    "methods": {},
    "version": 1
  },
  "userdoc": {
    "kind": "user",
    "methods": {},
    "version": 1
  }
}