{
  "contractName": "ProjectChain",
  "abi": [
    {
      "inputs": [],
      "stateMutability": "nonpayable",
      "type": "constructor"
    },
    {
      "anonymous": false,
      "inputs": [
        {
          "components": [
            {
              "internalType": "uint256",
              "name": "_index",
              "type": "uint256"
            },
            {
              "internalType": "string",
              "name": "_name",
              "type": "string"
            },
            {
              "internalType": "enum SharedChain.ProjectStatus",
              "name": "_status",
              "type": "uint8"
            },
            {
              "internalType": "string",
              "name": "_ipfsFileCID",
              "type": "string"
            },
            {
              "internalType": "address",
              "name": "_projectAddress",
              "type": "address"
            },
            {
              "internalType": "address",
              "name": "_signerAddress",
              "type": "address"
            },
            {
              "internalType": "address",
              "name": "_companyAddress",
              "type": "address"
            },
            {
              "internalType": "bool",
              "name": "_assigned",
              "type": "bool"
            },
            {
              "internalType": "uint256",
              "name": "_timestamp",
              "type": "uint256"
            },
            {
              "internalType": "string",
              "name": "_signature",
              "type": "string"
            }
          ],
          "indexed": false,
          "internalType": "struct SharedChain.Project",
          "name": "_project",
          "type": "tuple"
        },
        {
          "indexed": true,
          "internalType": "address",
          "name": "_projectAddress",
          "type": "address"
        },
        {
          "indexed": true,
          "internalType": "address",
          "name": "_companyAddress",
          "type": "address"
        }
      ],
      "name": "ProjectEvent",
      "type": "event"
    },
    {
      "anonymous": false,
      "inputs": [
        {
          "components": [
            {
              "internalType": "uint256",
              "name": "_index",
              "type": "uint256"
            },
            {
              "internalType": "string",
              "name": "_title",
              "type": "string"
            },
            {
              "internalType": "string",
              "name": "_comments",
              "type": "string"
            },
            {
              "internalType": "enum SharedChain.ProjectStatus",
              "name": "_projectStatus",
              "type": "uint8"
            },
            {
              "internalType": "enum SharedChain.RequestStatus",
              "name": "_requestStatus",
              "type": "uint8"
            },
            {
              "internalType": "enum SharedChain.RequestType",
              "name": "_requestType",
              "type": "uint8"
            },
            {
              "internalType": "address",
              "name": "_projectAddress",
              "type": "address"
            },
            {
              "internalType": "address",
              "name": "_requestAddress",
              "type": "address"
            },
            {
              "internalType": "address",
              "name": "_signerAddress",
              "type": "address"
            },
            {
              "internalType": "uint256",
              "name": "_timestamp",
              "type": "uint256"
            },
            {
              "internalType": "string",
              "name": "_signature",
              "type": "string"
            }
          ],
          "indexed": false,
          "internalType": "struct SharedChain.Request",
          "name": "_request",
          "type": "tuple"
        },
        {
          "indexed": true,
          "internalType": "address",
          "name": "_requestAddress",
          "type": "address"
        },
        {
          "indexed": true,
          "internalType": "address",
          "name": "_projectAddress",
          "type": "address"
        }
      ],
      "name": "RequestEvent",
      "type": "event"
    },
    {
      "anonymous": false,
      "inputs": [
        {
          "components": [
            {
              "internalType": "bytes32",
              "name": "_firstname",
              "type": "bytes32"
            },
            {
              "internalType": "bytes32",
              "name": "_lastname",
              "type": "bytes32"
            },
            {
              "internalType": "enum SharedChain.Roles",
              "name": "_role",
              "type": "uint8"
            },
            {
              "internalType": "address",
              "name": "_walletAddress",
              "type": "address"
            },
            {
              "internalType": "uint256",
              "name": "_timestamp",
              "type": "uint256"
            }
          ],
          "indexed": false,
          "internalType": "struct SharedChain.User",
          "name": "_user",
          "type": "tuple"
        },
        {
          "indexed": true,
          "internalType": "address",
          "name": "_walletAddress",
          "type": "address"
        }
      ],
      "name": "UserEvent",
      "type": "event"
    },
    {
      "inputs": [
        {
          "internalType": "uint256",
          "name": "_role",
          "type": "uint256"
        },
        {
          "internalType": "address",
          "name": "_walletAddress",
          "type": "address"
        }
      ],
      "name": "changeUserRole",
      "outputs": [],
      "stateMutability": "nonpayable",
      "type": "function"
    },
    {
      "inputs": [],
      "name": "getAllUsers",
      "outputs": [
        {
          "components": [
            {
              "internalType": "bytes32",
              "name": "_firstname",
              "type": "bytes32"
            },
            {
              "internalType": "bytes32",
              "name": "_lastname",
              "type": "bytes32"
            },
            {
              "internalType": "enum SharedChain.Roles",
              "name": "_role",
              "type": "uint8"
            },
            {
              "internalType": "address",
              "name": "_walletAddress",
              "type": "address"
            },
            {
              "internalType": "uint256",
              "name": "_timestamp",
              "type": "uint256"
            }
          ],
          "internalType": "struct SharedChain.User[]",
          "name": "",
          "type": "tuple[]"
        }
      ],
      "stateMutability": "view",
      "type": "function",
      "constant": true
    },
    {
      "inputs": [
        {
          "internalType": "address",
          "name": "_walletAddress",
          "type": "address"
        }
      ],
      "name": "getUserInfo",
      "outputs": [
        {
          "components": [
            {
              "internalType": "bytes32",
              "name": "_firstname",
              "type": "bytes32"
            },
            {
              "internalType": "bytes32",
              "name": "_lastname",
              "type": "bytes32"
            },
            {
              "internalType": "enum SharedChain.Roles",
              "name": "_role",
              "type": "uint8"
            },
            {
              "internalType": "address",
              "name": "_walletAddress",
              "type": "address"
            },
            {
              "internalType": "uint256",
              "name": "_timestamp",
              "type": "uint256"
            }
          ],
          "internalType": "struct SharedChain.User",
          "name": "",
          "type": "tuple"
        }
      ],
      "stateMutability": "view",
      "type": "function",
      "constant": true
    },
    {
      "inputs": [
        {
          "internalType": "address",
          "name": "",
          "type": "address"
        }
      ],
      "name": "projects",
      "outputs": [
        {
          "internalType": "uint256",
          "name": "_index",
          "type": "uint256"
        },
        {
          "internalType": "string",
          "name": "_name",
          "type": "string"
        },
        {
          "internalType": "enum SharedChain.ProjectStatus",
          "name": "_status",
          "type": "uint8"
        },
        {
          "internalType": "string",
          "name": "_ipfsFileCID",
          "type": "string"
        },
        {
          "internalType": "address",
          "name": "_projectAddress",
          "type": "address"
        },
        {
          "internalType": "address",
          "name": "_signerAddress",
          "type": "address"
        },
        {
          "internalType": "address",
          "name": "_companyAddress",
          "type": "address"
        },
        {
          "internalType": "bool",
          "name": "_assigned",
          "type": "bool"
        },
        {
          "internalType": "uint256",
          "name": "_timestamp",
          "type": "uint256"
        },
        {
          "internalType": "string",
          "name": "_signature",
          "type": "string"
        }
      ],
      "stateMutability": "view",
      "type": "function",
      "constant": true
    },
    {
      "inputs": [
        {
          "internalType": "uint256",
          "name": "",
          "type": "uint256"
        }
      ],
      "name": "projectsAddress",
      "outputs": [
        {
          "internalType": "address",
          "name": "",
          "type": "address"
        }
      ],
      "stateMutability": "view",
      "type": "function",
      "constant": true
    },
    {
      "inputs": [],
      "name": "projectsCounter",
      "outputs": [
        {
          "internalType": "uint256",
          "name": "",
          "type": "uint256"
        }
      ],
      "stateMutability": "view",
      "type": "function",
      "constant": true
    },
    {
      "inputs": [
        {
          "internalType": "bytes32",
          "name": "_firstname",
          "type": "bytes32"
        },
        {
          "internalType": "bytes32",
          "name": "_lastname",
          "type": "bytes32"
        },
        {
          "internalType": "uint256",
          "name": "_role",
          "type": "uint256"
        },
        {
          "internalType": "address",
          "name": "_walletAddress",
          "type": "address"
        }
      ],
      "name": "registerUser",
      "outputs": [],
      "stateMutability": "nonpayable",
      "type": "function"
    },
    {
      "inputs": [
        {
          "internalType": "address",
          "name": "",
          "type": "address"
        }
      ],
      "name": "requests",
      "outputs": [
        {
          "internalType": "uint256",
          "name": "_index",
          "type": "uint256"
        },
        {
          "internalType": "string",
          "name": "_title",
          "type": "string"
        },
        {
          "internalType": "string",
          "name": "_comments",
          "type": "string"
        },
        {
          "internalType": "enum SharedChain.ProjectStatus",
          "name": "_projectStatus",
          "type": "uint8"
        },
        {
          "internalType": "enum SharedChain.RequestStatus",
          "name": "_requestStatus",
          "type": "uint8"
        },
        {
          "internalType": "enum SharedChain.RequestType",
          "name": "_requestType",
          "type": "uint8"
        },
        {
          "internalType": "address",
          "name": "_projectAddress",
          "type": "address"
        },
        {
          "internalType": "address",
          "name": "_requestAddress",
          "type": "address"
        },
        {
          "internalType": "address",
          "name": "_signerAddress",
          "type": "address"
        },
        {
          "internalType": "uint256",
          "name": "_timestamp",
          "type": "uint256"
        },
        {
          "internalType": "string",
          "name": "_signature",
          "type": "string"
        }
      ],
      "stateMutability": "view",
      "type": "function",
      "constant": true
    },
    {
      "inputs": [
        {
          "internalType": "uint256",
          "name": "",
          "type": "uint256"
        }
      ],
      "name": "requestsAddress",
      "outputs": [
        {
          "internalType": "address",
          "name": "",
          "type": "address"
        }
      ],
      "stateMutability": "view",
      "type": "function",
      "constant": true
    },
    {
      "inputs": [],
      "name": "requestsCounter",
      "outputs": [
        {
          "internalType": "uint256",
          "name": "",
          "type": "uint256"
        }
      ],
      "stateMutability": "view",
      "type": "function",
      "constant": true
    },
    {
      "inputs": [
        {
          "internalType": "address",
          "name": "",
          "type": "address"
        }
      ],
      "name": "users",
      "outputs": [
        {
          "internalType": "bytes32",
          "name": "_firstname",
          "type": "bytes32"
        },
        {
          "internalType": "bytes32",
          "name": "_lastname",
          "type": "bytes32"
        },
        {
          "internalType": "enum SharedChain.Roles",
          "name": "_role",
          "type": "uint8"
        },
        {
          "internalType": "address",
          "name": "_walletAddress",
          "type": "address"
        },
        {
          "internalType": "uint256",
          "name": "_timestamp",
          "type": "uint256"
        }
      ],
      "stateMutability": "view",
      "type": "function",
      "constant": true
    },
    {
      "inputs": [],
      "name": "usersCounter",
      "outputs": [
        {
          "internalType": "uint256",
          "name": "",
          "type": "uint256"
        }
      ],
      "stateMutability": "view",
      "type": "function",
      "constant": true
    },
    {
      "inputs": [
        {
          "internalType": "string",
          "name": "_name",
          "type": "string"
        },
        {
          "internalType": "uint256",
          "name": "_index",
          "type": "uint256"
        }
      ],
      "name": "createUniqueProjectAddress",
      "outputs": [
        {
          "internalType": "address",
          "name": "",
          "type": "address"
        }
      ],
      "stateMutability": "view",
      "type": "function",
      "constant": true
    },
    {
      "inputs": [
        {
          "internalType": "address",
          "name": "_projectAddress",
          "type": "address"
        },
        {
          "internalType": "string",
          "name": "_name",
          "type": "string"
        },
        {
          "internalType": "uint256",
          "name": "_status",
          "type": "uint256"
        },
        {
          "internalType": "string",
          "name": "_ipfsFileCID",
          "type": "string"
        },
        {
          "internalType": "string",
          "name": "_signature",
          "type": "string"
        }
      ],
      "name": "createProject",
      "outputs": [],
      "stateMutability": "nonpayable",
      "type": "function"
    },
    {
      "inputs": [
        {
          "internalType": "address",
          "name": "_projectAddress",
          "type": "address"
        },
        {
          "internalType": "string",
          "name": "_ipfsFileCID",
          "type": "string"
        },
        {
          "internalType": "string",
          "name": "_signature",
          "type": "string"
        }
      ],
      "name": "updateProject",
      "outputs": [],
      "stateMutability": "nonpayable",
      "type": "function"
    },
    {
      "inputs": [
        {
          "internalType": "address",
          "name": "_address",
          "type": "address"
        }
      ],
      "name": "getProjectInfo",
      "outputs": [
        {
          "components": [
            {
              "internalType": "uint256",
              "name": "_index",
              "type": "uint256"
            },
            {
              "internalType": "string",
              "name": "_name",
              "type": "string"
            },
            {
              "internalType": "enum SharedChain.ProjectStatus",
              "name": "_status",
              "type": "uint8"
            },
            {
              "internalType": "string",
              "name": "_ipfsFileCID",
              "type": "string"
            },
            {
              "internalType": "address",
              "name": "_projectAddress",
              "type": "address"
            },
            {
              "internalType": "address",
              "name": "_signerAddress",
              "type": "address"
            },
            {
              "internalType": "address",
              "name": "_companyAddress",
              "type": "address"
            },
            {
              "internalType": "bool",
              "name": "_assigned",
              "type": "bool"
            },
            {
              "internalType": "uint256",
              "name": "_timestamp",
              "type": "uint256"
            },
            {
              "internalType": "string",
              "name": "_signature",
              "type": "string"
            }
          ],
          "internalType": "struct SharedChain.Project",
          "name": "",
          "type": "tuple"
        }
      ],
      "stateMutability": "view",
      "type": "function",
      "constant": true
    },
    {
      "inputs": [
        {
          "internalType": "address",
          "name": "_walletAddress",
          "type": "address"
        }
      ],
      "name": "getProjectsByUser",
      "outputs": [
        {
          "components": [
            {
              "internalType": "uint256",
              "name": "_index",
              "type": "uint256"
            },
            {
              "internalType": "string",
              "name": "_name",
              "type": "string"
            },
            {
              "internalType": "enum SharedChain.ProjectStatus",
              "name": "_status",
              "type": "uint8"
            },
            {
              "internalType": "string",
              "name": "_ipfsFileCID",
              "type": "string"
            },
            {
              "internalType": "address",
              "name": "_projectAddress",
              "type": "address"
            },
            {
              "internalType": "address",
              "name": "_signerAddress",
              "type": "address"
            },
            {
              "internalType": "address",
              "name": "_companyAddress",
              "type": "address"
            },
            {
              "internalType": "bool",
              "name": "_assigned",
              "type": "bool"
            },
            {
              "internalType": "uint256",
              "name": "_timestamp",
              "type": "uint256"
            },
            {
              "internalType": "string",
              "name": "_signature",
              "type": "string"
            }
          ],
          "internalType": "struct SharedChain.Project[]",
          "name": "",
          "type": "tuple[]"
        }
      ],
      "stateMutability": "view",
      "type": "function",
      "constant": true
    },
    {
      "inputs": [
        {
          "internalType": "address",
          "name": "_companyAddress",
          "type": "address"
        }
      ],
      "name": "getProjectsByCompany",
      "outputs": [
        {
          "components": [
            {
              "internalType": "uint256",
              "name": "_index",
              "type": "uint256"
            },
            {
              "internalType": "string",
              "name": "_name",
              "type": "string"
            },
            {
              "internalType": "enum SharedChain.ProjectStatus",
              "name": "_status",
              "type": "uint8"
            },
            {
              "internalType": "string",
              "name": "_ipfsFileCID",
              "type": "string"
            },
            {
              "internalType": "address",
              "name": "_projectAddress",
              "type": "address"
            },
            {
              "internalType": "address",
              "name": "_signerAddress",
              "type": "address"
            },
            {
              "internalType": "address",
              "name": "_companyAddress",
              "type": "address"
            },
            {
              "internalType": "bool",
              "name": "_assigned",
              "type": "bool"
            },
            {
              "internalType": "uint256",
              "name": "_timestamp",
              "type": "uint256"
            },
            {
              "internalType": "string",
              "name": "_signature",
              "type": "string"
            }
          ],
          "internalType": "struct SharedChain.Project[]",
          "name": "",
          "type": "tuple[]"
        }
      ],
      "stateMutability": "view",
      "type": "function",
      "constant": true
    },
    {
      "inputs": [
        {
          "internalType": "string",
          "name": "_title",
          "type": "string"
        },
        {
          "internalType": "uint256",
          "name": "_index",
          "type": "uint256"
        }
      ],
      "name": "createUniqueRequestAddress",
      "outputs": [
        {
          "internalType": "address",
          "name": "",
          "type": "address"
        }
      ],
      "stateMutability": "view",
      "type": "function",
      "constant": true
    },
    {
      "inputs": [
        {
          "internalType": "string",
          "name": "_title",
          "type": "string"
        },
        {
          "internalType": "uint256",
          "name": "_projectStatus",
          "type": "uint256"
        },
        {
          "internalType": "uint256",
          "name": "_requestStatus",
          "type": "uint256"
        },
        {
          "internalType": "address",
          "name": "_projectAddress",
          "type": "address"
        },
        {
          "internalType": "address",
          "name": "_requestAddress",
          "type": "address"
        },
        {
          "internalType": "string",
          "name": "_signature",
          "type": "string"
        }
      ],
      "name": "createRequest",
      "outputs": [],
      "stateMutability": "nonpayable",
      "type": "function"
    },
    {
      "inputs": [
        {
          "internalType": "string",
          "name": "_comments",
          "type": "string"
        },
        {
          "internalType": "uint256",
          "name": "_requestStatus",
          "type": "uint256"
        },
        {
          "internalType": "uint256",
          "name": "_projectStatus",
          "type": "uint256"
        },
        {
          "internalType": "address",
          "name": "_projectAddress",
          "type": "address"
        },
        {
          "internalType": "address",
          "name": "_requestAddress",
          "type": "address"
        },
        {
          "internalType": "string",
          "name": "_signature",
          "type": "string"
        }
      ],
      "name": "updateRequest",
      "outputs": [],
      "stateMutability": "nonpayable",
      "type": "function"
    },
    {
      "inputs": [],
      "name": "getAllRequests",
      "outputs": [
        {
          "components": [
            {
              "internalType": "uint256",
              "name": "_index",
              "type": "uint256"
            },
            {
              "internalType": "string",
              "name": "_title",
              "type": "string"
            },
            {
              "internalType": "string",
              "name": "_comments",
              "type": "string"
            },
            {
              "internalType": "enum SharedChain.ProjectStatus",
              "name": "_projectStatus",
              "type": "uint8"
            },
            {
              "internalType": "enum SharedChain.RequestStatus",
              "name": "_requestStatus",
              "type": "uint8"
            },
            {
              "internalType": "enum SharedChain.RequestType",
              "name": "_requestType",
              "type": "uint8"
            },
            {
              "internalType": "address",
              "name": "_projectAddress",
              "type": "address"
            },
            {
              "internalType": "address",
              "name": "_requestAddress",
              "type": "address"
            },
            {
              "internalType": "address",
              "name": "_signerAddress",
              "type": "address"
            },
            {
              "internalType": "uint256",
              "name": "_timestamp",
              "type": "uint256"
            },
            {
              "internalType": "string",
              "name": "_signature",
              "type": "string"
            }
          ],
          "internalType": "struct SharedChain.Request[]",
          "name": "",
          "type": "tuple[]"
        }
      ],
      "stateMutability": "view",
      "type": "function",
      "constant": true
    },
    {
      "inputs": [
        {
          "internalType": "address",
          "name": "_projectAddress",
          "type": "address"
        },
        {
          "internalType": "address",
          "name": "_requestAddress",
          "type": "address"
        }
      ],
      "name": "getLastProjectRequest",
      "outputs": [
        {
          "components": [
            {
              "internalType": "uint256",
              "name": "_index",
              "type": "uint256"
            },
            {
              "internalType": "string",
              "name": "_title",
              "type": "string"
            },
            {
              "internalType": "string",
              "name": "_comments",
              "type": "string"
            },
            {
              "internalType": "enum SharedChain.ProjectStatus",
              "name": "_projectStatus",
              "type": "uint8"
            },
            {
              "internalType": "enum SharedChain.RequestStatus",
              "name": "_requestStatus",
              "type": "uint8"
            },
            {
              "internalType": "enum SharedChain.RequestType",
              "name": "_requestType",
              "type": "uint8"
            },
            {
              "internalType": "address",
              "name": "_projectAddress",
              "type": "address"
            },
            {
              "internalType": "address",
              "name": "_requestAddress",
              "type": "address"
            },
            {
              "internalType": "address",
              "name": "_signerAddress",
              "type": "address"
            },
            {
              "internalType": "uint256",
              "name": "_timestamp",
              "type": "uint256"
            },
            {
              "internalType": "string",
              "name": "_signature",
              "type": "string"
            }
          ],
          "internalType": "struct SharedChain.Request",
          "name": "",
          "type": "tuple"
        }
      ],
      "stateMutability": "view",
      "type": "function",
      "constant": true
    }
  ],
  "bytecode": "0x608060405260006002556000600555600060085534801561001f57600080fd5b50336000806101000a81548173ffffffffffffffffffffffffffffffffffffffff021916908373ffffffffffffffffffffffffffffffffffffffff1602179055506152ff8061006f6000396000f3fe608060405234801561001057600080fd5b506004361061014d5760003560e01c8063840e78fd116100c3578063d67b1b991161007c578063d67b1b9914610437578063e1592c0d14610455578063e2842d7914610471578063e617385f1461048f578063fb1a002a146104ab578063fe360ea5146104c95761014d565b8063840e78fd14610346578063844855631461037f57806387edbec71461039b57806391009786146103b7578063a87430ba146103d3578063b4eddc72146104075761014d565b806347ee45b91161011557806347ee45b91461022e57806356a3eead1461025e5780636386c1c71461028e578063663c2269146102be57806374adad1d146102dc57806376c932e0146103165761014d565b806304c278ec14610152578063191e1645146101825780633000d7f9146101b25780633b4ec4f8146101ce57806344884710146101fe575b600080fd5b61016c600480360381019061016791906138ed565b6104e7565b6040516101799190613c17565b60405180910390f35b61019c60048036038101906101979190613d9a565b6109ed565b6040516101a99190613e05565b60405180910390f35b6101cc60048036038101906101c79190613e56565b610a25565b005b6101e860048036038101906101e39190613d9a565b610cf8565b6040516101f59190613e05565b60405180910390f35b61021860048036038101906102139190613ebd565b610d30565b604051610225919061408a565b60405180910390f35b610248600480360381019061024391906138ed565b6111b7565b6040516102559190614194565b60405180910390f35b610278600480360381019061027391906141b6565b611533565b6040516102859190613e05565b60405180910390f35b6102a860048036038101906102a391906138ed565b611572565b6040516102b591906142a2565b60405180910390f35b6102c661167a565b6040516102d391906142cc565b60405180910390f35b6102f660048036038101906102f191906138ed565b611680565b60405161030d9b9a9998979695949392919061435e565b60405180910390f35b610330600480360381019061032b91906141b6565b6118f9565b60405161033d9190613e05565b60405180910390f35b610360600480360381019061035b91906138ed565b611938565b6040516103769a9998979695949392919061442d565b60405180910390f35b610399600480360381019061039491906144de565b611b9e565b005b6103b560048036038101906103b091906145ad565b611f4a565b005b6103d160048036038101906103cc9190614672565b61223f565b005b6103ed60048036038101906103e891906138ed565b612420565b6040516103fe9594939291906146d0565b60405180910390f35b610421600480360381019061041c91906138ed565b612483565b60405161042e9190613c17565b60405180910390f35b61043f612989565b60405161044c91906142cc565b60405180910390f35b61046f600480360381019061046a9190614723565b61298f565b005b610479612ae6565b60405161048691906148c5565b60405180910390f35b6104a960048036038101906104a491906145ad565b612ccb565b005b6104b3613146565b6040516104c09190614aa6565b60405180910390f35b6104d16135fa565b6040516104de91906142cc565b60405180910390f35b606080600060055414156104fe57809150506109e8565b60055467ffffffffffffffff81111561051a57610519613c43565b5b60405190808252806020026020018201604052801561055357816020015b610540613600565b8152602001906001900390816105385790505b50905060005b6005548110156109e25760006006828154811061057957610578614ac8565b5b9060005260206000200160009054906101000a900473ffffffffffffffffffffffffffffffffffffffff169050600460008273ffffffffffffffffffffffffffffffffffffffff1673ffffffffffffffffffffffffffffffffffffffff16815260200190815260200160002060060160009054906101000a900473ffffffffffffffffffffffffffffffffffffffff1673ffffffffffffffffffffffffffffffffffffffff168573ffffffffffffffffffffffffffffffffffffffff1614156109ce576000600460008373ffffffffffffffffffffffffffffffffffffffff1673ffffffffffffffffffffffffffffffffffffffff16815260200190815260200160002090508060405180610140016040529081600082015481526020016001820180546106a690614b26565b80601f01602080910402602001604051908101604052809291908181526020018280546106d290614b26565b801561071f5780601f106106f45761010080835404028352916020019161071f565b820191906000526020600020905b81548152906001019060200180831161070257829003601f168201915b505050505081526020016002820160009054906101000a900460ff16600481111561074d5761074c6139f8565b5b600481111561075f5761075e6139f8565b5b815260200160038201805461077390614b26565b80601f016020809104026020016040519081016040528092919081815260200182805461079f90614b26565b80156107ec5780601f106107c1576101008083540402835291602001916107ec565b820191906000526020600020905b8154815290600101906020018083116107cf57829003601f168201915b505050505081526020016004820160009054906101000a900473ffffffffffffffffffffffffffffffffffffffff1673ffffffffffffffffffffffffffffffffffffffff1673ffffffffffffffffffffffffffffffffffffffff1681526020016005820160009054906101000a900473ffffffffffffffffffffffffffffffffffffffff1673ffffffffffffffffffffffffffffffffffffffff1673ffffffffffffffffffffffffffffffffffffffff1681526020016006820160009054906101000a900473ffffffffffffffffffffffffffffffffffffffff1673ffffffffffffffffffffffffffffffffffffffff1673ffffffffffffffffffffffffffffffffffffffff1681526020016006820160149054906101000a900460ff161515151581526020016007820154815260200160088201805461092c90614b26565b80601f016020809104026020016040519081016040528092919081815260200182805461095890614b26565b80156109a55780601f1061097a576101008083540402835291602001916109a5565b820191906000526020600020905b81548152906001019060200180831161098857829003601f168201915b5050505050815250508484815181106109c1576109c0614ac8565b5b6020026020010181905250505b5080806109da90614b87565b915050610559565b50809150505b919050565b6000823383604051602001610a0493929190614c75565b6040516020818303038152906040528051906020012060001c905092915050565b3373ffffffffffffffffffffffffffffffffffffffff1660008054906101000a900473ffffffffffffffffffffffffffffffffffffffff1673ffffffffffffffffffffffffffffffffffffffff1614610ab3576040517f08c379a0000000000000000000000000000000000000000000000000000000008152600401610aaa90614cfa565b60405180910390fd5b6040518060a00160405280858152602001848152602001836003811115610add57610adc6139f8565b5b6003811115610aef57610aee6139f8565b5b81526020018273ffffffffffffffffffffffffffffffffffffffff16815260200142815250600160008373ffffffffffffffffffffffffffffffffffffffff1673ffffffffffffffffffffffffffffffffffffffff168152602001908152602001600020600082015181600001556020820151816001015560408201518160020160006101000a81548160ff02191690836003811115610b9257610b916139f8565b5b021790555060608201518160020160016101000a81548173ffffffffffffffffffffffffffffffffffffffff021916908373ffffffffffffffffffffffffffffffffffffffff160217905550608082015181600301559050508073ffffffffffffffffffffffffffffffffffffffff167ff751778eb32087df58f173035147c2eac9aac89fdc2f83b1993a198606f56db1600160008473ffffffffffffffffffffffffffffffffffffffff1673ffffffffffffffffffffffffffffffffffffffff168152602001908152602001600020604051610c6f9190614e77565b60405180910390a26003819080600181540180825580915050600190039060005260206000200160009091909190916101000a81548173ffffffffffffffffffffffffffffffffffffffff021916908373ffffffffffffffffffffffffffffffffffffffff16021790555060026000815480929190610ced90614b87565b919050555050505050565b6000823383604051602001610d0f93929190614c75565b6040516020818303038152906040528051906020012060001c905092915050565b610d386136a9565b610d406136a9565b600060085411156111ad578373ffffffffffffffffffffffffffffffffffffffff16600760008573ffffffffffffffffffffffffffffffffffffffff1673ffffffffffffffffffffffffffffffffffffffff16815260200190815260200160002060030160039054906101000a900473ffffffffffffffffffffffffffffffffffffffff1673ffffffffffffffffffffffffffffffffffffffff1614156111ac57600760008473ffffffffffffffffffffffffffffffffffffffff1673ffffffffffffffffffffffffffffffffffffffff1681526020019081526020016000206040518061016001604052908160008201548152602001600182018054610e4690614b26565b80601f0160208091040260200160405190810160405280929190818152602001828054610e7290614b26565b8015610ebf5780601f10610e9457610100808354040283529160200191610ebf565b820191906000526020600020905b815481529060010190602001808311610ea257829003601f168201915b50505050508152602001600282018054610ed890614b26565b80601f0160208091040260200160405190810160405280929190818152602001828054610f0490614b26565b8015610f515780601f10610f2657610100808354040283529160200191610f51565b820191906000526020600020905b815481529060010190602001808311610f3457829003601f168201915b505050505081526020016003820160009054906101000a900460ff166004811115610f7f57610f7e6139f8565b5b6004811115610f9157610f906139f8565b5b81526020016003820160019054906101000a900460ff166002811115610fba57610fb96139f8565b5b6002811115610fcc57610fcb6139f8565b5b81526020016003820160029054906101000a900460ff166001811115610ff557610ff46139f8565b5b6001811115611007576110066139f8565b5b81526020016003820160039054906101000a900473ffffffffffffffffffffffffffffffffffffffff1673ffffffffffffffffffffffffffffffffffffffff1673ffffffffffffffffffffffffffffffffffffffff1681526020016004820160009054906101000a900473ffffffffffffffffffffffffffffffffffffffff1673ffffffffffffffffffffffffffffffffffffffff1673ffffffffffffffffffffffffffffffffffffffff1681526020016005820160009054906101000a900473ffffffffffffffffffffffffffffffffffffffff1673ffffffffffffffffffffffffffffffffffffffff1673ffffffffffffffffffffffffffffffffffffffff1681526020016006820154815260200160078201805461112790614b26565b80601f016020809104026020016040519081016040528092919081815260200182805461115390614b26565b80156111a05780601f10611175576101008083540402835291602001916111a0565b820191906000526020600020905b81548152906001019060200180831161118357829003601f168201915b50505050508152505090505b5b8091505092915050565b6111bf613600565b600460008373ffffffffffffffffffffffffffffffffffffffff1673ffffffffffffffffffffffffffffffffffffffff168152602001908152602001600020604051806101400160405290816000820154815260200160018201805461122490614b26565b80601f016020809104026020016040519081016040528092919081815260200182805461125090614b26565b801561129d5780601f106112725761010080835404028352916020019161129d565b820191906000526020600020905b81548152906001019060200180831161128057829003601f168201915b505050505081526020016002820160009054906101000a900460ff1660048111156112cb576112ca6139f8565b5b60048111156112dd576112dc6139f8565b5b81526020016003820180546112f190614b26565b80601f016020809104026020016040519081016040528092919081815260200182805461131d90614b26565b801561136a5780601f1061133f5761010080835404028352916020019161136a565b820191906000526020600020905b81548152906001019060200180831161134d57829003601f168201915b505050505081526020016004820160009054906101000a900473ffffffffffffffffffffffffffffffffffffffff1673ffffffffffffffffffffffffffffffffffffffff1673ffffffffffffffffffffffffffffffffffffffff1681526020016005820160009054906101000a900473ffffffffffffffffffffffffffffffffffffffff1673ffffffffffffffffffffffffffffffffffffffff1673ffffffffffffffffffffffffffffffffffffffff1681526020016006820160009054906101000a900473ffffffffffffffffffffffffffffffffffffffff1673ffffffffffffffffffffffffffffffffffffffff1673ffffffffffffffffffffffffffffffffffffffff1681526020016006820160149054906101000a900460ff16151515158152602001600782015481526020016008820180546114aa90614b26565b80601f01602080910402602001604051908101604052809291908181526020018280546114d690614b26565b80156115235780601f106114f857610100808354040283529160200191611523565b820191906000526020600020905b81548152906001019060200180831161150657829003601f168201915b5050505050815250509050919050565b6009818154811061154357600080fd5b906000526020600020016000915054906101000a900473ffffffffffffffffffffffffffffffffffffffff1681565b61157a61377b565b600160008373ffffffffffffffffffffffffffffffffffffffff1673ffffffffffffffffffffffffffffffffffffffff1681526020019081526020016000206040518060a001604052908160008201548152602001600182015481526020016002820160009054906101000a900460ff1660038111156115fd576115fc6139f8565b5b600381111561160f5761160e6139f8565b5b81526020016002820160019054906101000a900473ffffffffffffffffffffffffffffffffffffffff1673ffffffffffffffffffffffffffffffffffffffff1673ffffffffffffffffffffffffffffffffffffffff1681526020016003820154815250509050919050565b60085481565b60076020528060005260406000206000915090508060000154908060010180546116a990614b26565b80601f01602080910402602001604051908101604052809291908181526020018280546116d590614b26565b80156117225780601f106116f757610100808354040283529160200191611722565b820191906000526020600020905b81548152906001019060200180831161170557829003601f168201915b50505050509080600201805461173790614b26565b80601f016020809104026020016040519081016040528092919081815260200182805461176390614b26565b80156117b05780601f10611785576101008083540402835291602001916117b0565b820191906000526020600020905b81548152906001019060200180831161179357829003601f168201915b5050505050908060030160009054906101000a900460ff16908060030160019054906101000a900460ff16908060030160029054906101000a900460ff16908060030160039054906101000a900473ffffffffffffffffffffffffffffffffffffffff16908060040160009054906101000a900473ffffffffffffffffffffffffffffffffffffffff16908060050160009054906101000a900473ffffffffffffffffffffffffffffffffffffffff169080600601549080600701805461187690614b26565b80601f01602080910402602001604051908101604052809291908181526020018280546118a290614b26565b80156118ef5780601f106118c4576101008083540402835291602001916118ef565b820191906000526020600020905b8154815290600101906020018083116118d257829003601f168201915b505050505090508b565b6006818154811061190957600080fd5b906000526020600020016000915054906101000a900473ffffffffffffffffffffffffffffffffffffffff1681565b600460205280600052604060002060009150905080600001549080600101805461196190614b26565b80601f016020809104026020016040519081016040528092919081815260200182805461198d90614b26565b80156119da5780601f106119af576101008083540402835291602001916119da565b820191906000526020600020905b8154815290600101906020018083116119bd57829003601f168201915b5050505050908060020160009054906101000a900460ff1690806003018054611a0290614b26565b80601f0160208091040260200160405190810160405280929190818152602001828054611a2e90614b26565b8015611a7b5780601f10611a5057610100808354040283529160200191611a7b565b820191906000526020600020905b815481529060010190602001808311611a5e57829003601f168201915b5050505050908060040160009054906101000a900473ffffffffffffffffffffffffffffffffffffffff16908060050160009054906101000a900473ffffffffffffffffffffffffffffffffffffffff16908060060160009054906101000a900473ffffffffffffffffffffffffffffffffffffffff16908060060160149054906101000a900460ff1690806007015490806008018054611b1b90614b26565b80601f0160208091040260200160405190810160405280929190818152602001828054611b4790614b26565b8015611b945780601f10611b6957610100808354040283529160200191611b94565b820191906000526020600020905b815481529060010190602001808311611b7757829003601f168201915b505050505090508a565b6040518061014001604052806005548152602001858152602001846004811115611bcb57611bca6139f8565b5b6004811115611bdd57611bdc6139f8565b5b81526020018381526020018673ffffffffffffffffffffffffffffffffffffffff1681526020013373ffffffffffffffffffffffffffffffffffffffff168152602001600073ffffffffffffffffffffffffffffffffffffffff16815260200160001515815260200142815260200182815250600460008773ffffffffffffffffffffffffffffffffffffffff1673ffffffffffffffffffffffffffffffffffffffff168152602001908152602001600020600082015181600001556020820151816001019080519060200190611cb59291906137d8565b5060408201518160020160006101000a81548160ff02191690836004811115611ce157611ce06139f8565b5b02179055506060820151816003019080519060200190611d029291906137d8565b5060808201518160040160006101000a81548173ffffffffffffffffffffffffffffffffffffffff021916908373ffffffffffffffffffffffffffffffffffffffff16021790555060a08201518160050160006101000a81548173ffffffffffffffffffffffffffffffffffffffff021916908373ffffffffffffffffffffffffffffffffffffffff16021790555060c08201518160060160006101000a81548173ffffffffffffffffffffffffffffffffffffffff021916908373ffffffffffffffffffffffffffffffffffffffff16021790555060e08201518160060160146101000a81548160ff0219169083151502179055506101008201518160070155610120820151816008019080519060200190611e209291906137d8565b50905050600073ffffffffffffffffffffffffffffffffffffffff168573ffffffffffffffffffffffffffffffffffffffff167ffb530d24abc3d497c3f0525ef204a66ac64d923ec30b40d17bc3a5f572cf4b8e600460008973ffffffffffffffffffffffffffffffffffffffff1673ffffffffffffffffffffffffffffffffffffffff168152602001908152602001600020604051611ec091906150c7565b60405180910390a36006859080600181540180825580915050600190039060005260206000200160009091909190916101000a81548173ffffffffffffffffffffffffffffffffffffffff021916908373ffffffffffffffffffffffffffffffffffffffff16021790555060056000815480929190611f3e90614b87565b91905055505050505050565b85600760008473ffffffffffffffffffffffffffffffffffffffff1673ffffffffffffffffffffffffffffffffffffffff1681526020019081526020016000206002019080519060200190611fa09291906137d8565b50846002811115611fb457611fb36139f8565b5b600760008473ffffffffffffffffffffffffffffffffffffffff1673ffffffffffffffffffffffffffffffffffffffff16815260200190815260200160002060030160016101000a81548160ff02191690836002811115612018576120176139f8565b5b021790555080600760008473ffffffffffffffffffffffffffffffffffffffff1673ffffffffffffffffffffffffffffffffffffffff16815260200190815260200160002060070190805190602001906120739291906137d8565b508273ffffffffffffffffffffffffffffffffffffffff168273ffffffffffffffffffffffffffffffffffffffff167fa25a6f1ff57a050a48ae4b3a19f271fddad950cac8d165d6a2eca5d54cc8070f600760008673ffffffffffffffffffffffffffffffffffffffff1673ffffffffffffffffffffffffffffffffffffffff16815260200190815260200160002060405161210f91906152a7565b60405180910390a383600481111561212a576121296139f8565b5b600460008573ffffffffffffffffffffffffffffffffffffffff1673ffffffffffffffffffffffffffffffffffffffff16815260200190815260200160002060020160006101000a81548160ff0219169083600481111561218e5761218d6139f8565b5b0217905550600073ffffffffffffffffffffffffffffffffffffffff168373ffffffffffffffffffffffffffffffffffffffff167ffb530d24abc3d497c3f0525ef204a66ac64d923ec30b40d17bc3a5f572cf4b8e600460008773ffffffffffffffffffffffffffffffffffffffff1673ffffffffffffffffffffffffffffffffffffffff16815260200190815260200160002060405161222f91906150c7565b60405180910390a3505050505050565b3373ffffffffffffffffffffffffffffffffffffffff1660008054906101000a900473ffffffffffffffffffffffffffffffffffffffff1673ffffffffffffffffffffffffffffffffffffffff16146122cd576040517f08c379a00000000000000000000000000000000000000000000000000000000081526004016122c490614cfa565b60405180910390fd5b8160038111156122e0576122df6139f8565b5b600160008373ffffffffffffffffffffffffffffffffffffffff1673ffffffffffffffffffffffffffffffffffffffff16815260200190815260200160002060020160006101000a81548160ff02191690836003811115612344576123436139f8565b5b021790555042600160008373ffffffffffffffffffffffffffffffffffffffff1673ffffffffffffffffffffffffffffffffffffffff168152602001908152602001600020600301819055508073ffffffffffffffffffffffffffffffffffffffff167ff751778eb32087df58f173035147c2eac9aac89fdc2f83b1993a198606f56db1600160008473ffffffffffffffffffffffffffffffffffffffff1673ffffffffffffffffffffffffffffffffffffffff1681526020019081526020016000206040516124149190614e77565b60405180910390a25050565b60016020528060005260406000206000915090508060000154908060010154908060020160009054906101000a900460ff16908060020160019054906101000a900473ffffffffffffffffffffffffffffffffffffffff16908060030154905085565b6060806000600554141561249a5780915050612984565b60055467ffffffffffffffff8111156124b6576124b5613c43565b5b6040519080825280602002602001820160405280156124ef57816020015b6124dc613600565b8152602001906001900390816124d45790505b50905060005b60055481101561297e5760006006828154811061251557612514614ac8565b5b9060005260206000200160009054906101000a900473ffffffffffffffffffffffffffffffffffffffff169050600460008273ffffffffffffffffffffffffffffffffffffffff1673ffffffffffffffffffffffffffffffffffffffff16815260200190815260200160002060050160009054906101000a900473ffffffffffffffffffffffffffffffffffffffff1673ffffffffffffffffffffffffffffffffffffffff168573ffffffffffffffffffffffffffffffffffffffff16141561296a576000600460008373ffffffffffffffffffffffffffffffffffffffff1673ffffffffffffffffffffffffffffffffffffffff168152602001908152602001600020905080604051806101400160405290816000820154815260200160018201805461264290614b26565b80601f016020809104026020016040519081016040528092919081815260200182805461266e90614b26565b80156126bb5780601f10612690576101008083540402835291602001916126bb565b820191906000526020600020905b81548152906001019060200180831161269e57829003601f168201915b505050505081526020016002820160009054906101000a900460ff1660048111156126e9576126e86139f8565b5b60048111156126fb576126fa6139f8565b5b815260200160038201805461270f90614b26565b80601f016020809104026020016040519081016040528092919081815260200182805461273b90614b26565b80156127885780601f1061275d57610100808354040283529160200191612788565b820191906000526020600020905b81548152906001019060200180831161276b57829003601f168201915b505050505081526020016004820160009054906101000a900473ffffffffffffffffffffffffffffffffffffffff1673ffffffffffffffffffffffffffffffffffffffff1673ffffffffffffffffffffffffffffffffffffffff1681526020016005820160009054906101000a900473ffffffffffffffffffffffffffffffffffffffff1673ffffffffffffffffffffffffffffffffffffffff1673ffffffffffffffffffffffffffffffffffffffff1681526020016006820160009054906101000a900473ffffffffffffffffffffffffffffffffffffffff1673ffffffffffffffffffffffffffffffffffffffff1673ffffffffffffffffffffffffffffffffffffffff1681526020016006820160149054906101000a900460ff16151515158152602001600782015481526020016008820180546128c890614b26565b80601f01602080910402602001604051908101604052809291908181526020018280546128f490614b26565b80156129415780601f1061291657610100808354040283529160200191612941565b820191906000526020600020905b81548152906001019060200180831161292457829003601f168201915b50505050508152505084848151811061295d5761295c614ac8565b5b6020026020010181905250505b50808061297690614b87565b9150506124f5565b50809150505b919050565b60025481565b81600460008573ffffffffffffffffffffffffffffffffffffffff1673ffffffffffffffffffffffffffffffffffffffff16815260200190815260200160002060030190805190602001906129e59291906137d8565b5080600460008573ffffffffffffffffffffffffffffffffffffffff1673ffffffffffffffffffffffffffffffffffffffff1681526020019081526020016000206008019080519060200190612a3c9291906137d8565b50600073ffffffffffffffffffffffffffffffffffffffff168373ffffffffffffffffffffffffffffffffffffffff167ffb530d24abc3d497c3f0525ef204a66ac64d923ec30b40d17bc3a5f572cf4b8e600460008773ffffffffffffffffffffffffffffffffffffffff1673ffffffffffffffffffffffffffffffffffffffff168152602001908152602001600020604051612ad991906150c7565b60405180910390a3505050565b6060600060025467ffffffffffffffff811115612b0657612b05613c43565b5b604051908082528060200260200182016040528015612b3f57816020015b612b2c61377b565b815260200190600190039081612b245790505b50905060005b600254811015612cc357600060038281548110612b6557612b64614ac8565b5b9060005260206000200160009054906101000a900473ffffffffffffffffffffffffffffffffffffffff1690506000600160008373ffffffffffffffffffffffffffffffffffffffff1673ffffffffffffffffffffffffffffffffffffffff1681526020019081526020016000209050806040518060a001604052908160008201548152602001600182015481526020016002820160009054906101000a900460ff166003811115612c1a57612c196139f8565b5b6003811115612c2c57612c2b6139f8565b5b81526020016002820160019054906101000a900473ffffffffffffffffffffffffffffffffffffffff1673ffffffffffffffffffffffffffffffffffffffff1673ffffffffffffffffffffffffffffffffffffffff168152602001600382015481525050848481518110612ca357612ca2614ac8565b5b602002602001018190525050508080612cbb90614b87565b915050612b45565b508091505090565b600060026004811115612ce157612ce06139f8565b5b866004811115612cf457612cf36139f8565b5b6004811115612d0657612d056139f8565b5b1415612d1157600190505b6040518061016001604052806008548152602001888152602001604051806020016040528060008152508152602001876004811115612d5357612d526139f8565b5b6004811115612d6557612d646139f8565b5b8152602001866002811115612d7d57612d7c6139f8565b5b6002811115612d8f57612d8e6139f8565b5b8152602001826001811115612da757612da66139f8565b5b81526020018573ffffffffffffffffffffffffffffffffffffffff1681526020018473ffffffffffffffffffffffffffffffffffffffff1681526020013373ffffffffffffffffffffffffffffffffffffffff16815260200142815260200183815250600760008573ffffffffffffffffffffffffffffffffffffffff1673ffffffffffffffffffffffffffffffffffffffff168152602001908152602001600020600082015181600001556020820151816001019080519060200190612e6f9291906137d8565b506040820151816002019080519060200190612e8c9291906137d8565b5060608201518160030160006101000a81548160ff02191690836004811115612eb857612eb76139f8565b5b021790555060808201518160030160016101000a81548160ff02191690836002811115612ee857612ee76139f8565b5b021790555060a08201518160030160026101000a81548160ff02191690836001811115612f1857612f176139f8565b5b021790555060c08201518160030160036101000a81548173ffffffffffffffffffffffffffffffffffffffff021916908373ffffffffffffffffffffffffffffffffffffffff16021790555060e08201518160040160006101000a81548173ffffffffffffffffffffffffffffffffffffffff021916908373ffffffffffffffffffffffffffffffffffffffff1602179055506101008201518160050160006101000a81548173ffffffffffffffffffffffffffffffffffffffff021916908373ffffffffffffffffffffffffffffffffffffffff160217905550610120820151816006015561014082015181600701908051906020019061301b9291906137d8565b509050508373ffffffffffffffffffffffffffffffffffffffff168373ffffffffffffffffffffffffffffffffffffffff167fa25a6f1ff57a050a48ae4b3a19f271fddad950cac8d165d6a2eca5d54cc8070f600760008773ffffffffffffffffffffffffffffffffffffffff1673ffffffffffffffffffffffffffffffffffffffff1681526020019081526020016000206040516130ba91906152a7565b60405180910390a36009839080600181540180825580915050600190039060005260206000200160009091909190916101000a81548173ffffffffffffffffffffffffffffffffffffffff021916908373ffffffffffffffffffffffffffffffffffffffff1602179055506008600081548092919061313890614b87565b919050555050505050505050565b6060600060085467ffffffffffffffff81111561316657613165613c43565b5b60405190808252806020026020018201604052801561319f57816020015b61318c6136a9565b8152602001906001900390816131845790505b50905060005b6008548110156135f2576000600982815481106131c5576131c4614ac8565b5b9060005260206000200160009054906101000a900473ffffffffffffffffffffffffffffffffffffffff1690506000600760008373ffffffffffffffffffffffffffffffffffffffff1673ffffffffffffffffffffffffffffffffffffffff168152602001908152602001600020905080604051806101600160405290816000820154815260200160018201805461325c90614b26565b80601f016020809104026020016040519081016040528092919081815260200182805461328890614b26565b80156132d55780601f106132aa576101008083540402835291602001916132d5565b820191906000526020600020905b8154815290600101906020018083116132b857829003601f168201915b505050505081526020016002820180546132ee90614b26565b80601f016020809104026020016040519081016040528092919081815260200182805461331a90614b26565b80156133675780601f1061333c57610100808354040283529160200191613367565b820191906000526020600020905b81548152906001019060200180831161334a57829003601f168201915b505050505081526020016003820160009054906101000a900460ff166004811115613395576133946139f8565b5b60048111156133a7576133a66139f8565b5b81526020016003820160019054906101000a900460ff1660028111156133d0576133cf6139f8565b5b60028111156133e2576133e16139f8565b5b81526020016003820160029054906101000a900460ff16600181111561340b5761340a6139f8565b5b600181111561341d5761341c6139f8565b5b81526020016003820160039054906101000a900473ffffffffffffffffffffffffffffffffffffffff1673ffffffffffffffffffffffffffffffffffffffff1673ffffffffffffffffffffffffffffffffffffffff1681526020016004820160009054906101000a900473ffffffffffffffffffffffffffffffffffffffff1673ffffffffffffffffffffffffffffffffffffffff1673ffffffffffffffffffffffffffffffffffffffff1681526020016005820160009054906101000a900473ffffffffffffffffffffffffffffffffffffffff1673ffffffffffffffffffffffffffffffffffffffff1673ffffffffffffffffffffffffffffffffffffffff1681526020016006820154815260200160078201805461353d90614b26565b80601f016020809104026020016040519081016040528092919081815260200182805461356990614b26565b80156135b65780601f1061358b576101008083540402835291602001916135b6565b820191906000526020600020905b81548152906001019060200180831161359957829003601f168201915b5050505050815250508484815181106135d2576135d1614ac8565b5b6020026020010181905250505080806135ea90614b87565b9150506131a5565b508091505090565b60055481565b60405180610140016040528060008152602001606081526020016000600481111561362e5761362d6139f8565b5b815260200160608152602001600073ffffffffffffffffffffffffffffffffffffffff168152602001600073ffffffffffffffffffffffffffffffffffffffff168152602001600073ffffffffffffffffffffffffffffffffffffffff16815260200160001515815260200160008152602001606081525090565b604051806101600160405280600081526020016060815260200160608152602001600060048111156136de576136dd6139f8565b5b8152602001600060028111156136f7576136f66139f8565b5b8152602001600060018111156137105761370f6139f8565b5b8152602001600073ffffffffffffffffffffffffffffffffffffffff168152602001600073ffffffffffffffffffffffffffffffffffffffff168152602001600073ffffffffffffffffffffffffffffffffffffffff16815260200160008152602001606081525090565b6040518060a001604052806000801916815260200160008019168152602001600060038111156137ae576137ad6139f8565b5b8152602001600073ffffffffffffffffffffffffffffffffffffffff168152602001600081525090565b8280546137e490614b26565b90600052602060002090601f016020900481019282613806576000855561384d565b82601f1061381f57805160ff191683800117855561384d565b8280016001018555821561384d579182015b8281111561384c578251825591602001919060010190613831565b5b50905061385a919061385e565b5090565b5b8082111561387757600081600090555060010161385f565b5090565b6000604051905090565b600080fd5b600080fd5b600073ffffffffffffffffffffffffffffffffffffffff82169050919050565b60006138ba8261388f565b9050919050565b6138ca816138af565b81146138d557600080fd5b50565b6000813590506138e7816138c1565b92915050565b60006020828403121561390357613902613885565b5b6000613911848285016138d8565b91505092915050565b600081519050919050565b600082825260208201905092915050565b6000819050602082019050919050565b6000819050919050565b61395981613946565b82525050565b600081519050919050565b600082825260208201905092915050565b60005b8381101561399957808201518184015260208101905061397e565b838111156139a8576000848401525b50505050565b6000601f19601f8301169050919050565b60006139ca8261395f565b6139d4818561396a565b93506139e481856020860161397b565b6139ed816139ae565b840191505092915050565b7f4e487b7100000000000000000000000000000000000000000000000000000000600052602160045260246000fd5b60058110613a3857613a376139f8565b5b50565b6000819050613a4982613a27565b919050565b6000613a5982613a3b565b9050919050565b613a6981613a4e565b82525050565b613a78816138af565b82525050565b60008115159050919050565b613a9381613a7e565b82525050565b600061014083016000830151613ab26000860182613950565b5060208301518482036020860152613aca82826139bf565b9150506040830151613adf6040860182613a60565b5060608301518482036060860152613af782826139bf565b9150506080830151613b0c6080860182613a6f565b5060a0830151613b1f60a0860182613a6f565b5060c0830151613b3260c0860182613a6f565b5060e0830151613b4560e0860182613a8a565b50610100830151613b5a610100860182613950565b50610120830151848203610120860152613b7482826139bf565b9150508091505092915050565b6000613b8d8383613a99565b905092915050565b6000602082019050919050565b6000613bad8261391a565b613bb78185613925565b935083602082028501613bc985613936565b8060005b85811015613c055784840389528151613be68582613b81565b9450613bf183613b95565b925060208a01995050600181019050613bcd565b50829750879550505050505092915050565b60006020820190508181036000830152613c318184613ba2565b905092915050565b600080fd5b600080fd5b7f4e487b7100000000000000000000000000000000000000000000000000000000600052604160045260246000fd5b613c7b826139ae565b810181811067ffffffffffffffff82111715613c9a57613c99613c43565b5b80604052505050565b6000613cad61387b565b9050613cb98282613c72565b919050565b600067ffffffffffffffff821115613cd957613cd8613c43565b5b613ce2826139ae565b9050602081019050919050565b82818337600083830152505050565b6000613d11613d0c84613cbe565b613ca3565b905082815260208101848484011115613d2d57613d2c613c3e565b5b613d38848285613cef565b509392505050565b600082601f830112613d5557613d54613c39565b5b8135613d65848260208601613cfe565b91505092915050565b613d7781613946565b8114613d8257600080fd5b50565b600081359050613d9481613d6e565b92915050565b60008060408385031215613db157613db0613885565b5b600083013567ffffffffffffffff811115613dcf57613dce61388a565b5b613ddb85828601613d40565b9250506020613dec85828601613d85565b9150509250929050565b613dff816138af565b82525050565b6000602082019050613e1a6000830184613df6565b92915050565b6000819050919050565b613e3381613e20565b8114613e3e57600080fd5b50565b600081359050613e5081613e2a565b92915050565b60008060008060808587031215613e7057613e6f613885565b5b6000613e7e87828801613e41565b9450506020613e8f87828801613e41565b9350506040613ea087828801613d85565b9250506060613eb1878288016138d8565b91505092959194509250565b60008060408385031215613ed457613ed3613885565b5b6000613ee2858286016138d8565b9250506020613ef3858286016138d8565b9150509250929050565b60038110613f0e57613f0d6139f8565b5b50565b6000819050613f1f82613efd565b919050565b6000613f2f82613f11565b9050919050565b613f3f81613f24565b82525050565b60028110613f5657613f556139f8565b5b50565b6000819050613f6782613f45565b919050565b6000613f7782613f59565b9050919050565b613f8781613f6c565b82525050565b600061016083016000830151613fa66000860182613950565b5060208301518482036020860152613fbe82826139bf565b91505060408301518482036040860152613fd882826139bf565b9150506060830151613fed6060860182613a60565b5060808301516140006080860182613f36565b5060a083015161401360a0860182613f7e565b5060c083015161402660c0860182613a6f565b5060e083015161403960e0860182613a6f565b5061010083015161404e610100860182613a6f565b50610120830151614063610120860182613950565b5061014083015184820361014086015261407d82826139bf565b9150508091505092915050565b600060208201905081810360008301526140a48184613f8d565b905092915050565b6000610140830160008301516140c56000860182613950565b50602083015184820360208601526140dd82826139bf565b91505060408301516140f26040860182613a60565b506060830151848203606086015261410a82826139bf565b915050608083015161411f6080860182613a6f565b5060a083015161413260a0860182613a6f565b5060c083015161414560c0860182613a6f565b5060e083015161415860e0860182613a8a565b5061010083015161416d610100860182613950565b5061012083015184820361012086015261418782826139bf565b9150508091505092915050565b600060208201905081810360008301526141ae81846140ac565b905092915050565b6000602082840312156141cc576141cb613885565b5b60006141da84828501613d85565b91505092915050565b6141ec81613e20565b82525050565b60048110614203576142026139f8565b5b50565b6000819050614214826141f2565b919050565b600061422482614206565b9050919050565b61423481614219565b82525050565b60a08201600082015161425060008501826141e3565b50602082015161426360208501826141e3565b506040820151614276604085018261422b565b5060608201516142896060850182613a6f565b50608082015161429c6080850182613950565b50505050565b600060a0820190506142b7600083018461423a565b92915050565b6142c681613946565b82525050565b60006020820190506142e160008301846142bd565b92915050565b600082825260208201905092915050565b60006143038261395f565b61430d81856142e7565b935061431d81856020860161397b565b614326816139ae565b840191505092915050565b61433a81613a4e565b82525050565b61434981613f24565b82525050565b61435881613f6c565b82525050565b600061016082019050614374600083018e6142bd565b8181036020830152614386818d6142f8565b9050818103604083015261439a818c6142f8565b90506143a9606083018b614331565b6143b6608083018a614340565b6143c360a083018961434f565b6143d060c0830188613df6565b6143dd60e0830187613df6565b6143eb610100830186613df6565b6143f96101208301856142bd565b81810361014083015261440c81846142f8565b90509c9b505050505050505050505050565b61442781613a7e565b82525050565b600061014082019050614443600083018d6142bd565b8181036020830152614455818c6142f8565b9050614464604083018b614331565b8181036060830152614476818a6142f8565b90506144856080830189613df6565b61449260a0830188613df6565b61449f60c0830187613df6565b6144ac60e083018661441e565b6144ba6101008301856142bd565b8181036101208301526144cd81846142f8565b90509b9a5050505050505050505050565b600080600080600060a086880312156144fa576144f9613885565b5b6000614508888289016138d8565b955050602086013567ffffffffffffffff8111156145295761452861388a565b5b61453588828901613d40565b945050604061454688828901613d85565b935050606086013567ffffffffffffffff8111156145675761456661388a565b5b61457388828901613d40565b925050608086013567ffffffffffffffff8111156145945761459361388a565b5b6145a088828901613d40565b9150509295509295909350565b60008060008060008060c087890312156145ca576145c9613885565b5b600087013567ffffffffffffffff8111156145e8576145e761388a565b5b6145f489828a01613d40565b965050602061460589828a01613d85565b955050604061461689828a01613d85565b945050606061462789828a016138d8565b935050608061463889828a016138d8565b92505060a087013567ffffffffffffffff8111156146595761465861388a565b5b61466589828a01613d40565b9150509295509295509295565b6000806040838503121561468957614688613885565b5b600061469785828601613d85565b92505060206146a8858286016138d8565b9150509250929050565b6146bb81613e20565b82525050565b6146ca81614219565b82525050565b600060a0820190506146e560008301886146b2565b6146f260208301876146b2565b6146ff60408301866146c1565b61470c6060830185613df6565b61471960808301846142bd565b9695505050505050565b60008060006060848603121561473c5761473b613885565b5b600061474a868287016138d8565b935050602084013567ffffffffffffffff81111561476b5761476a61388a565b5b61477786828701613d40565b925050604084013567ffffffffffffffff8111156147985761479761388a565b5b6147a486828701613d40565b9150509250925092565b600081519050919050565b600082825260208201905092915050565b6000819050602082019050919050565b60a0820160008201516147f060008501826141e3565b50602082015161480360208501826141e3565b506040820151614816604085018261422b565b5060608201516148296060850182613a6f565b50608082015161483c6080850182613950565b50505050565b600061484e83836147da565b60a08301905092915050565b6000602082019050919050565b6000614872826147ae565b61487c81856147b9565b9350614887836147ca565b8060005b838110156148b857815161489f8882614842565b97506148aa8361485a565b92505060018101905061488b565b5085935050505092915050565b600060208201905081810360008301526148df8184614867565b905092915050565b600081519050919050565b600082825260208201905092915050565b6000819050602082019050919050565b60006101608301600083015161492c6000860182613950565b506020830151848203602086015261494482826139bf565b9150506040830151848203604086015261495e82826139bf565b91505060608301516149736060860182613a60565b5060808301516149866080860182613f36565b5060a083015161499960a0860182613f7e565b5060c08301516149ac60c0860182613a6f565b5060e08301516149bf60e0860182613a6f565b506101008301516149d4610100860182613a6f565b506101208301516149e9610120860182613950565b50610140830151848203610140860152614a0382826139bf565b9150508091505092915050565b6000614a1c8383614913565b905092915050565b6000602082019050919050565b6000614a3c826148e7565b614a4681856148f2565b935083602082028501614a5885614903565b8060005b85811015614a945784840389528151614a758582614a10565b9450614a8083614a24565b925060208a01995050600181019050614a5c565b50829750879550505050505092915050565b60006020820190508181036000830152614ac08184614a31565b905092915050565b7f4e487b7100000000000000000000000000000000000000000000000000000000600052603260045260246000fd5b7f4e487b7100000000000000000000000000000000000000000000000000000000600052602260045260246000fd5b60006002820490506001821680614b3e57607f821691505b60208210811415614b5257614b51614af7565b5b50919050565b7f4e487b7100000000000000000000000000000000000000000000000000000000600052601160045260246000fd5b6000614b9282613946565b91507fffffffffffffffffffffffffffffffffffffffffffffffffffffffffffffffff821415614bc557614bc4614b58565b5b600182019050919050565b600081905092915050565b6000614be68261395f565b614bf08185614bd0565b9350614c0081856020860161397b565b80840191505092915050565b60008160601b9050919050565b6000614c2482614c0c565b9050919050565b6000614c3682614c19565b9050919050565b614c4e614c49826138af565b614c2b565b82525050565b6000819050919050565b614c6f614c6a82613946565b614c54565b82525050565b6000614c818286614bdb565b9150614c8d8285614c3d565b601482019150614c9d8284614c5e565b602082019150819050949350505050565b7f596f7520617265206e6f7420616e206f776e65722e0000000000000000000000600082015250565b6000614ce46015836142e7565b9150614cef82614cae565b602082019050919050565b60006020820190508181036000830152614d1381614cd7565b9050919050565b60008160001c9050919050565b6000819050919050565b6000614d44614d3f83614d1a565b614d27565b9050919050565b600060ff82169050919050565b6000614d6b614d6683614d1a565b614d4b565b9050919050565b60008160081c9050919050565b600073ffffffffffffffffffffffffffffffffffffffff82169050919050565b6000614db2614dad83614d72565b614d7f565b9050919050565b6000819050919050565b6000614dd6614dd183614d1a565b614db9565b9050919050565b60a082016000808301549050614df281614d31565b614dff60008601826141e3565b5060018301549050614e1081614d31565b614e1d60208601826141e3565b5060028301549050614e2e81614d58565b614e3b604086018261422b565b50614e4581614d9f565b614e526060860182613a6f565b5060038301549050614e6381614dc3565b614e706080860182613950565b5050505050565b600060a082019050614e8c6000830184614ddd565b92915050565b60008190508160005260206000209050919050565b60008154614eb481614b26565b614ebe818661396a565b94506001821660008114614ed95760018114614eeb57614f1e565b60ff1983168652602086019350614f1e565b614ef485614e92565b60005b83811015614f1657815481890152600182019150602081019050614ef7565b808801955050505b50505092915050565b600060ff82169050919050565b6000614f47614f4283614d1a565b614f27565b9050919050565b6000614f61614f5c83614d1a565b614d7f565b9050919050565b60008160a01c9050919050565b600060ff82169050919050565b6000614f95614f9083614f68565b614f75565b9050919050565b600061014083016000808401549050614fb481614dc3565b614fc16000870182613950565b50600184018583036020870152614fd88382614ea7565b92505060028401549050614feb81614f34565b614ff86040870182613a60565b5060038401858303606087015261500f8382614ea7565b9250506004840154905061502281614f4e565b61502f6080870182613a6f565b506005840154905061504081614f4e565b61504d60a0870182613a6f565b506006840154905061505e81614f4e565b61506b60c0870182613a6f565b5061507581614f82565b61508260e0870182613a8a565b506007840154905061509381614dc3565b6150a1610100870182613950565b50600884018583036101208701526150b98382614ea7565b925050819250505092915050565b600060208201905081810360008301526150e18184614f9c565b905092915050565b600060ff82169050919050565b600061510961510483614d72565b6150e9565b9050919050565b60008160101c9050919050565b600060ff82169050919050565b600061513d61513883615110565b61511d565b9050919050565b60008160181c9050919050565b600061516461515f83615144565b614d7f565b9050919050565b60006101608301600080840154905061518381614dc3565b6151906000870182613950565b506001840185830360208701526151a78382614ea7565b9250506002840185830360408701526151c08382614ea7565b925050600384015490506151d381614f34565b6151e06060870182613a60565b506151ea816150f6565b6151f76080870182613f36565b506152018161512a565b61520e60a0870182613f7e565b5061521881615151565b61522560c0870182613a6f565b506004840154905061523681614f4e565b61524360e0870182613a6f565b506005840154905061525481614f4e565b615262610100870182613a6f565b506006840154905061527381614dc3565b615281610120870182613950565b50600784018583036101408701526152998382614ea7565b925050819250505092915050565b600060208201905081810360008301526152c1818461516b565b90509291505056fea26469706673582212206b5da8cea8e51579c11d15112b69359ea13ef049e621b0fbf3c7e79e4ba8a5ae64736f6c634300080a0033",
  "immutableReferences": {},
  "source": "// SPDX-License-Identifier: MIT\r\npragma solidity >=0.8.0 <0.9.0;\r\n\r\nimport \"./UserChain.sol\";\r\n\r\ncontract ProjectChain is UserChain {\r\n\r\n    constructor() {\r\n    }\r\n\r\n    modifier onlyUserProject() {\r\n        // User memory sessionUser = userChain.getUserInfo(msg.sender);\r\n        // require(\r\n        //     sessionUser._role == Roles.UserProject,\r\n        //     \"You don't have the rights for this resource.\"\r\n        // );\r\n        _;\r\n    }\r\n\r\n    modifier onlySupervisor() {\r\n        // User memory sessionUser = userChain.getUserInfo(msg.sender);\r\n        // require(\r\n        //     sessionUser._role == Roles.Supervisor,\r\n        //     \"You don't have the rights for this resource.\"\r\n        // );\r\n        _;\r\n    }\r\n\r\n    modifier onlyCompany() {\r\n        // User memory sessionUser = userChain.getUserInfo(msg.sender);\r\n        // require(\r\n        //     sessionUser._role == Roles.Company,\r\n        //     \"You don't have the rights for this resource.\"\r\n        // );\r\n        _;\r\n    }\r\n\r\n\r\n    /**  PROJECT INITIATOR  */\r\n\r\n    mapping(address => Project) public projects;\r\n    uint256 public projectsCounter = 0;\r\n    address[] public projectsAddress;\r\n\r\n    function createUniqueProjectAddress(string memory _name, uint256 _index) public view returns (address) {\r\n        return address(uint160(uint256(keccak256(abi.encodePacked(_name, msg.sender, _index)))));\r\n    }\r\n\r\n    function createProject(\r\n        address _projectAddress,\r\n        string memory _name,\r\n        uint256 _status,\r\n        string memory _ipfsFileCID,\r\n        string memory _signature\r\n    ) public onlyUserProject {\r\n        projects[_projectAddress] = Project(\r\n            projectsCounter,\r\n            _name,\r\n            ProjectStatus(_status),\r\n            _ipfsFileCID,\r\n            _projectAddress,\r\n            msg.sender,\r\n            address(0x0),\r\n            false,\r\n            block.timestamp,\r\n            _signature\r\n        );\r\n\r\n        emit ProjectEvent(projects[_projectAddress], _projectAddress, address(0x0));\r\n        projectsAddress.push(_projectAddress);\r\n        projectsCounter++;\r\n    }\r\n\r\n    function updateProject(\r\n        address _projectAddress,\r\n        string memory _ipfsFileCID,\r\n        string memory _signature\r\n    ) public onlyUserProject {\r\n        projects[_projectAddress]._ipfsFileCID = _ipfsFileCID;\r\n        projects[_projectAddress]._signature = _signature;\r\n\r\n        emit ProjectEvent(projects[_projectAddress], _projectAddress, address(0x0));\r\n    }\r\n\r\n    function getProjectInfo(address _address)\r\n        public\r\n        view\r\n        returns (Project memory)\r\n    {\r\n        //require(msg.sender != address(0x0), \"Address is not valid.\");\r\n        return projects[_address];\r\n    }\r\n\r\n    function getProjectsByUser(address _walletAddress) public view returns (Project[] memory) {\r\n        Project[] memory allProjects;\r\n        if (projectsCounter == 0) return allProjects;\r\n\r\n        allProjects = new Project[](projectsCounter);\r\n        for (uint256 index = 0; index < projectsCounter; index++) {\r\n            address _projectAddress = projectsAddress[index];\r\n            if (_walletAddress == projects[_projectAddress]._signerAddress) {\r\n                Project storage project = projects[_projectAddress];\r\n                allProjects[index] = project;\r\n            }\r\n        }\r\n        return allProjects;\r\n    }\r\n\r\n    function getProjectsByCompany(address _companyAddress) public view returns (Project[] memory) {\r\n        Project[] memory allProjects;\r\n        if (projectsCounter == 0) return allProjects;\r\n\r\n        allProjects = new Project[](projectsCounter);\r\n        for (uint256 index = 0; index < projectsCounter; index++) {\r\n            address _projectAddress = projectsAddress[index];\r\n            if (_companyAddress == projects[_projectAddress]._companyAddress) {\r\n                Project storage project = projects[_projectAddress];\r\n                allProjects[index] = project;\r\n            }\r\n        }\r\n        return allProjects;\r\n    }\r\n\r\n\r\n    /**  Requests  */\r\n\r\n    mapping(address => Request) public requests;\r\n    uint256 public requestsCounter = 0;\r\n    address[] public requestsAddress;\r\n\r\n    function createUniqueRequestAddress(string memory _title, uint256 _index) public view returns (address) {\r\n        return address(uint160(uint256(keccak256(abi.encodePacked(_title, msg.sender, _index)))));\r\n    }\r\n\r\n    function createRequest(\r\n        string memory _title,\r\n        uint256 _projectStatus,\r\n        uint256 _requestStatus,\r\n        address _projectAddress,\r\n        address _requestAddress,\r\n        string memory _signature\r\n    ) public {\r\n        //require(projects[_projectAddress]._status == ProjectStatus.Created, \"Steps must follow accordingly\");\r\n\r\n        RequestType _requestType = RequestType.SupervisorReq;\r\n        if (ProjectStatus(_projectStatus) == ProjectStatus.StartProject) {\r\n            _requestType = RequestType.CompanyReq;\r\n        }\r\n\r\n        requests[_requestAddress] = Request(\r\n            requestsCounter,\r\n            _title,\r\n            \"\",\r\n            ProjectStatus(_projectStatus),\r\n            RequestStatus(_requestStatus),\r\n            RequestType(_requestType),\r\n            _projectAddress,\r\n            _requestAddress,\r\n            msg.sender,\r\n            block.timestamp,\r\n            _signature\r\n        );\r\n\r\n        emit RequestEvent(requests[_requestAddress], _requestAddress, _projectAddress);\r\n        requestsAddress.push(_requestAddress);\r\n        requestsCounter++;\r\n    }\r\n\r\n    function updateRequest(\r\n        string memory _comments,\r\n        uint256 _requestStatus,\r\n        uint256 _projectStatus,\r\n        address _projectAddress,\r\n        address _requestAddress,\r\n        string memory _signature\r\n    ) public {\r\n        // Update Requests Mapping and Struct Array\r\n        requests[_requestAddress]._comments = _comments;\r\n        requests[_requestAddress]._requestStatus = RequestStatus(_requestStatus);\r\n        requests[_requestAddress]._signature = _signature;\r\n        emit RequestEvent(requests[_requestAddress], _requestAddress, _projectAddress);\r\n\r\n        // Update Project Mapping and Struct Array\r\n        //if (RequestStatus.Approved == RequestStatus(_requestStatus)) {\r\n            projects[_projectAddress]._status = ProjectStatus(_projectStatus);\r\n            emit ProjectEvent(projects[_projectAddress], _projectAddress, address(0x0));\r\n        //}\r\n    }\r\n\r\n    function getAllRequests() public view returns (Request[] memory) {\r\n        Request[] memory allRequests = new Request[](requestsCounter);\r\n        for (uint256 index = 0; index < requestsCounter; index++) {\r\n            address _requestAddress = requestsAddress[index];\r\n            Request storage request = requests[_requestAddress];\r\n            allRequests[index] = request;\r\n        }\r\n        return allRequests;\r\n    }\r\n\r\n\r\n\r\n/*\r\n    function getProjectRequests(address _projectAddress) public view returns (Request[] memory) {\r\n        Request[] memory allRequests;\r\n        for (uint256 index = 0; index < requestsCounter; index++) {\r\n            address _requestAddress = requestsAddress[index];\r\n            Request storage request = requests[_requestAddress];\r\n            if (_projectAddress == request._projectAddress) {\r\n                allRequests[index] = request;\r\n            }\r\n        }\r\n        return allRequests;\r\n    }\r\n*/\r\n\r\n\r\n\r\n    function getLastProjectRequest(address _projectAddress, address _requestAddress)\r\n        public view returns (Request memory)\r\n    {\r\n        Request memory request;\r\n        if (requestsCounter > 0) {\r\n            if (requests[_requestAddress]._projectAddress == _projectAddress) {\r\n                request = requests[_requestAddress];\r\n            }\r\n        }\r\n        return request;\r\n    }\r\n\r\n\r\n\r\n}\r\n",
  "sourcePath": "/mnt/c/Users/Beniamin/source/repos/DissertationProject/contracts/ProjectChain.sol",
  "compiler": {
    "name": "solc",
    "version": "0.8.10+commit.fc410830.Emscripten.clang"
  },
  "schemaVersion": "3.4.3",
  "updatedAt": "2021-12-12T19:40:10.427Z",
  "networkType": "ethereum",
  "devdoc": {
    "kind": "dev",
    "methods": {},
    "version": 1
  },
  "userdoc": {
    "kind": "user",
    "methods": {
      "projects(address)": {
        "notice": "PROJECT INITIATOR  "
      },
      "requests(address)": {
        "notice": "Requests  "
      }
    },
    "version": 1
  }
}