{
  "contractName": "ProjectChain",
  "abi": [
    {
      "inputs": [],
      "stateMutability": "nonpayable",
      "type": "constructor"
    },
    {
      "anonymous": false,
      "inputs": [
        {
          "components": [
            {
              "internalType": "uint256",
              "name": "_index",
              "type": "uint256"
            },
            {
              "internalType": "string",
              "name": "_name",
              "type": "string"
            },
            {
              "internalType": "enum SharedChain.ProjectStatus",
              "name": "_status",
              "type": "uint8"
            },
            {
              "internalType": "string",
              "name": "_ipfsFileCID",
              "type": "string"
            },
            {
              "internalType": "address",
              "name": "_projectAddress",
              "type": "address"
            },
            {
              "internalType": "address",
              "name": "_signerAddress",
              "type": "address"
            },
            {
              "internalType": "address",
              "name": "_companyAddress",
              "type": "address"
            },
            {
              "internalType": "bool",
              "name": "_assigned",
              "type": "bool"
            },
            {
              "internalType": "uint256",
              "name": "_timestamp",
              "type": "uint256"
            },
            {
              "internalType": "string",
              "name": "_signature",
              "type": "string"
            }
          ],
          "indexed": false,
          "internalType": "struct SharedChain.Project",
          "name": "_project",
          "type": "tuple"
        },
        {
          "indexed": true,
          "internalType": "address",
          "name": "_projectAddress",
          "type": "address"
        },
        {
          "indexed": true,
          "internalType": "address",
          "name": "_companyAddress",
          "type": "address"
        }
      ],
      "name": "ProjectEvent",
      "type": "event"
    },
    {
      "anonymous": false,
      "inputs": [
        {
          "components": [
            {
              "internalType": "uint256",
              "name": "_index",
              "type": "uint256"
            },
            {
              "internalType": "string",
              "name": "_title",
              "type": "string"
            },
            {
              "internalType": "string",
              "name": "_comments",
              "type": "string"
            },
            {
              "internalType": "enum SharedChain.ProjectStatus",
              "name": "_projectStatus",
              "type": "uint8"
            },
            {
              "internalType": "enum SharedChain.RequestStatus",
              "name": "_requestStatus",
              "type": "uint8"
            },
            {
              "internalType": "enum SharedChain.RequestType",
              "name": "_requestType",
              "type": "uint8"
            },
            {
              "internalType": "address",
              "name": "_projectAddress",
              "type": "address"
            },
            {
              "internalType": "address",
              "name": "_requestAddress",
              "type": "address"
            },
            {
              "internalType": "address",
              "name": "_signerAddress",
              "type": "address"
            },
            {
              "internalType": "uint256",
              "name": "_timestamp",
              "type": "uint256"
            },
            {
              "internalType": "string",
              "name": "_signature",
              "type": "string"
            }
          ],
          "indexed": false,
          "internalType": "struct SharedChain.Request",
          "name": "_request",
          "type": "tuple"
        },
        {
          "indexed": true,
          "internalType": "address",
          "name": "_requestAddress",
          "type": "address"
        },
        {
          "indexed": true,
          "internalType": "address",
          "name": "_projectAddress",
          "type": "address"
        }
      ],
      "name": "RequestEvent",
      "type": "event"
    },
    {
      "anonymous": false,
      "inputs": [
        {
          "components": [
            {
              "internalType": "bytes32",
              "name": "_firstname",
              "type": "bytes32"
            },
            {
              "internalType": "bytes32",
              "name": "_lastname",
              "type": "bytes32"
            },
            {
              "internalType": "enum SharedChain.Roles",
              "name": "_role",
              "type": "uint8"
            },
            {
              "internalType": "address",
              "name": "_walletAddress",
              "type": "address"
            },
            {
              "internalType": "uint256",
              "name": "_timestamp",
              "type": "uint256"
            }
          ],
          "indexed": false,
          "internalType": "struct SharedChain.User",
          "name": "_user",
          "type": "tuple"
        },
        {
          "indexed": true,
          "internalType": "address",
          "name": "_walletAddress",
          "type": "address"
        }
      ],
      "name": "UserEvent",
      "type": "event"
    },
    {
      "inputs": [
        {
          "internalType": "uint256",
          "name": "_role",
          "type": "uint256"
        },
        {
          "internalType": "address",
          "name": "_walletAddress",
          "type": "address"
        }
      ],
      "name": "changeUserRole",
      "outputs": [],
      "stateMutability": "nonpayable",
      "type": "function"
    },
    {
      "inputs": [],
      "name": "getAllUsers",
      "outputs": [
        {
          "components": [
            {
              "internalType": "bytes32",
              "name": "_firstname",
              "type": "bytes32"
            },
            {
              "internalType": "bytes32",
              "name": "_lastname",
              "type": "bytes32"
            },
            {
              "internalType": "enum SharedChain.Roles",
              "name": "_role",
              "type": "uint8"
            },
            {
              "internalType": "address",
              "name": "_walletAddress",
              "type": "address"
            },
            {
              "internalType": "uint256",
              "name": "_timestamp",
              "type": "uint256"
            }
          ],
          "internalType": "struct SharedChain.User[]",
          "name": "",
          "type": "tuple[]"
        }
      ],
      "stateMutability": "view",
      "type": "function",
      "constant": true
    },
    {
      "inputs": [
        {
          "internalType": "address",
          "name": "_walletAddress",
          "type": "address"
        }
      ],
      "name": "getUserInfo",
      "outputs": [
        {
          "components": [
            {
              "internalType": "bytes32",
              "name": "_firstname",
              "type": "bytes32"
            },
            {
              "internalType": "bytes32",
              "name": "_lastname",
              "type": "bytes32"
            },
            {
              "internalType": "enum SharedChain.Roles",
              "name": "_role",
              "type": "uint8"
            },
            {
              "internalType": "address",
              "name": "_walletAddress",
              "type": "address"
            },
            {
              "internalType": "uint256",
              "name": "_timestamp",
              "type": "uint256"
            }
          ],
          "internalType": "struct SharedChain.User",
          "name": "",
          "type": "tuple"
        }
      ],
      "stateMutability": "view",
      "type": "function",
      "constant": true
    },
    {
      "inputs": [],
      "name": "owner",
      "outputs": [
        {
          "internalType": "address",
          "name": "",
          "type": "address"
        }
      ],
      "stateMutability": "view",
      "type": "function",
      "constant": true
    },
    {
      "inputs": [
        {
          "internalType": "address",
          "name": "",
          "type": "address"
        }
      ],
      "name": "projects",
      "outputs": [
        {
          "internalType": "uint256",
          "name": "_index",
          "type": "uint256"
        },
        {
          "internalType": "string",
          "name": "_name",
          "type": "string"
        },
        {
          "internalType": "enum SharedChain.ProjectStatus",
          "name": "_status",
          "type": "uint8"
        },
        {
          "internalType": "string",
          "name": "_ipfsFileCID",
          "type": "string"
        },
        {
          "internalType": "address",
          "name": "_projectAddress",
          "type": "address"
        },
        {
          "internalType": "address",
          "name": "_signerAddress",
          "type": "address"
        },
        {
          "internalType": "address",
          "name": "_companyAddress",
          "type": "address"
        },
        {
          "internalType": "bool",
          "name": "_assigned",
          "type": "bool"
        },
        {
          "internalType": "uint256",
          "name": "_timestamp",
          "type": "uint256"
        },
        {
          "internalType": "string",
          "name": "_signature",
          "type": "string"
        }
      ],
      "stateMutability": "view",
      "type": "function",
      "constant": true
    },
    {
      "inputs": [
        {
          "internalType": "uint256",
          "name": "",
          "type": "uint256"
        }
      ],
      "name": "projectsAddress",
      "outputs": [
        {
          "internalType": "address",
          "name": "",
          "type": "address"
        }
      ],
      "stateMutability": "view",
      "type": "function",
      "constant": true
    },
    {
      "inputs": [],
      "name": "projectsCounter",
      "outputs": [
        {
          "internalType": "uint256",
          "name": "",
          "type": "uint256"
        }
      ],
      "stateMutability": "view",
      "type": "function",
      "constant": true
    },
    {
      "inputs": [
        {
          "internalType": "bytes32",
          "name": "_firstname",
          "type": "bytes32"
        },
        {
          "internalType": "bytes32",
          "name": "_lastname",
          "type": "bytes32"
        },
        {
          "internalType": "uint256",
          "name": "_role",
          "type": "uint256"
        },
        {
          "internalType": "address",
          "name": "_walletAddress",
          "type": "address"
        }
      ],
      "name": "registerUser",
      "outputs": [],
      "stateMutability": "nonpayable",
      "type": "function"
    },
    {
      "inputs": [
        {
          "internalType": "address",
          "name": "",
          "type": "address"
        }
      ],
      "name": "requests",
      "outputs": [
        {
          "internalType": "uint256",
          "name": "_index",
          "type": "uint256"
        },
        {
          "internalType": "string",
          "name": "_title",
          "type": "string"
        },
        {
          "internalType": "string",
          "name": "_comments",
          "type": "string"
        },
        {
          "internalType": "enum SharedChain.ProjectStatus",
          "name": "_projectStatus",
          "type": "uint8"
        },
        {
          "internalType": "enum SharedChain.RequestStatus",
          "name": "_requestStatus",
          "type": "uint8"
        },
        {
          "internalType": "enum SharedChain.RequestType",
          "name": "_requestType",
          "type": "uint8"
        },
        {
          "internalType": "address",
          "name": "_projectAddress",
          "type": "address"
        },
        {
          "internalType": "address",
          "name": "_requestAddress",
          "type": "address"
        },
        {
          "internalType": "address",
          "name": "_signerAddress",
          "type": "address"
        },
        {
          "internalType": "uint256",
          "name": "_timestamp",
          "type": "uint256"
        },
        {
          "internalType": "string",
          "name": "_signature",
          "type": "string"
        }
      ],
      "stateMutability": "view",
      "type": "function",
      "constant": true
    },
    {
      "inputs": [
        {
          "internalType": "uint256",
          "name": "",
          "type": "uint256"
        }
      ],
      "name": "requestsAddress",
      "outputs": [
        {
          "internalType": "address",
          "name": "",
          "type": "address"
        }
      ],
      "stateMutability": "view",
      "type": "function",
      "constant": true
    },
    {
      "inputs": [],
      "name": "requestsCounter",
      "outputs": [
        {
          "internalType": "uint256",
          "name": "",
          "type": "uint256"
        }
      ],
      "stateMutability": "view",
      "type": "function",
      "constant": true
    },
    {
      "inputs": [
        {
          "internalType": "address",
          "name": "",
          "type": "address"
        }
      ],
      "name": "users",
      "outputs": [
        {
          "internalType": "bytes32",
          "name": "_firstname",
          "type": "bytes32"
        },
        {
          "internalType": "bytes32",
          "name": "_lastname",
          "type": "bytes32"
        },
        {
          "internalType": "enum SharedChain.Roles",
          "name": "_role",
          "type": "uint8"
        },
        {
          "internalType": "address",
          "name": "_walletAddress",
          "type": "address"
        },
        {
          "internalType": "uint256",
          "name": "_timestamp",
          "type": "uint256"
        }
      ],
      "stateMutability": "view",
      "type": "function",
      "constant": true
    },
    {
      "inputs": [],
      "name": "usersCounter",
      "outputs": [
        {
          "internalType": "uint256",
          "name": "",
          "type": "uint256"
        }
      ],
      "stateMutability": "view",
      "type": "function",
      "constant": true
    },
    {
      "inputs": [
        {
          "internalType": "string",
          "name": "_name",
          "type": "string"
        },
        {
          "internalType": "uint256",
          "name": "_index",
          "type": "uint256"
        }
      ],
      "name": "createUniqueProjectAddress",
      "outputs": [
        {
          "internalType": "address",
          "name": "",
          "type": "address"
        }
      ],
      "stateMutability": "view",
      "type": "function",
      "constant": true
    },
    {
      "inputs": [
        {
          "internalType": "address",
          "name": "_projectAddress",
          "type": "address"
        },
        {
          "internalType": "string",
          "name": "_name",
          "type": "string"
        },
        {
          "internalType": "uint256",
          "name": "_status",
          "type": "uint256"
        },
        {
          "internalType": "string",
          "name": "_ipfsFileCID",
          "type": "string"
        },
        {
          "internalType": "string",
          "name": "_signature",
          "type": "string"
        }
      ],
      "name": "createProject",
      "outputs": [],
      "stateMutability": "nonpayable",
      "type": "function"
    },
    {
      "inputs": [
        {
          "internalType": "address",
          "name": "_projectAddress",
          "type": "address"
        },
        {
          "internalType": "string",
          "name": "_ipfsFileCID",
          "type": "string"
        },
        {
          "internalType": "string",
          "name": "_signature",
          "type": "string"
        }
      ],
      "name": "updateProject",
      "outputs": [],
      "stateMutability": "nonpayable",
      "type": "function"
    },
    {
      "inputs": [
        {
          "internalType": "address",
          "name": "_address",
          "type": "address"
        }
      ],
      "name": "getProjectInfo",
      "outputs": [
        {
          "components": [
            {
              "internalType": "uint256",
              "name": "_index",
              "type": "uint256"
            },
            {
              "internalType": "string",
              "name": "_name",
              "type": "string"
            },
            {
              "internalType": "enum SharedChain.ProjectStatus",
              "name": "_status",
              "type": "uint8"
            },
            {
              "internalType": "string",
              "name": "_ipfsFileCID",
              "type": "string"
            },
            {
              "internalType": "address",
              "name": "_projectAddress",
              "type": "address"
            },
            {
              "internalType": "address",
              "name": "_signerAddress",
              "type": "address"
            },
            {
              "internalType": "address",
              "name": "_companyAddress",
              "type": "address"
            },
            {
              "internalType": "bool",
              "name": "_assigned",
              "type": "bool"
            },
            {
              "internalType": "uint256",
              "name": "_timestamp",
              "type": "uint256"
            },
            {
              "internalType": "string",
              "name": "_signature",
              "type": "string"
            }
          ],
          "internalType": "struct SharedChain.Project",
          "name": "",
          "type": "tuple"
        }
      ],
      "stateMutability": "view",
      "type": "function",
      "constant": true
    },
    {
      "inputs": [],
      "name": "getProjects",
      "outputs": [
        {
          "components": [
            {
              "internalType": "uint256",
              "name": "_index",
              "type": "uint256"
            },
            {
              "internalType": "string",
              "name": "_name",
              "type": "string"
            },
            {
              "internalType": "enum SharedChain.ProjectStatus",
              "name": "_status",
              "type": "uint8"
            },
            {
              "internalType": "string",
              "name": "_ipfsFileCID",
              "type": "string"
            },
            {
              "internalType": "address",
              "name": "_projectAddress",
              "type": "address"
            },
            {
              "internalType": "address",
              "name": "_signerAddress",
              "type": "address"
            },
            {
              "internalType": "address",
              "name": "_companyAddress",
              "type": "address"
            },
            {
              "internalType": "bool",
              "name": "_assigned",
              "type": "bool"
            },
            {
              "internalType": "uint256",
              "name": "_timestamp",
              "type": "uint256"
            },
            {
              "internalType": "string",
              "name": "_signature",
              "type": "string"
            }
          ],
          "internalType": "struct SharedChain.Project[]",
          "name": "",
          "type": "tuple[]"
        }
      ],
      "stateMutability": "view",
      "type": "function",
      "constant": true
    },
    {
      "inputs": [
        {
          "internalType": "string",
          "name": "_title",
          "type": "string"
        },
        {
          "internalType": "uint256",
          "name": "_index",
          "type": "uint256"
        }
      ],
      "name": "createUniqueRequestAddress",
      "outputs": [
        {
          "internalType": "address",
          "name": "",
          "type": "address"
        }
      ],
      "stateMutability": "view",
      "type": "function",
      "constant": true
    },
    {
      "inputs": [
        {
          "internalType": "string",
          "name": "_title",
          "type": "string"
        },
        {
          "internalType": "uint256",
          "name": "_projectStatus",
          "type": "uint256"
        },
        {
          "internalType": "uint256",
          "name": "_requestStatus",
          "type": "uint256"
        },
        {
          "internalType": "address",
          "name": "_projectAddress",
          "type": "address"
        },
        {
          "internalType": "address",
          "name": "_requestAddress",
          "type": "address"
        },
        {
          "internalType": "string",
          "name": "_signature",
          "type": "string"
        }
      ],
      "name": "createRequest",
      "outputs": [],
      "stateMutability": "nonpayable",
      "type": "function"
    },
    {
      "inputs": [
        {
          "internalType": "string",
          "name": "_comments",
          "type": "string"
        },
        {
          "internalType": "uint256",
          "name": "_requestStatus",
          "type": "uint256"
        },
        {
          "internalType": "uint256",
          "name": "_projectStatus",
          "type": "uint256"
        },
        {
          "internalType": "address",
          "name": "_projectAddress",
          "type": "address"
        },
        {
          "internalType": "address",
          "name": "_requestAddress",
          "type": "address"
        },
        {
          "internalType": "string",
          "name": "_signature",
          "type": "string"
        }
      ],
      "name": "updateSupervisorRequest",
      "outputs": [],
      "stateMutability": "nonpayable",
      "type": "function"
    },
    {
      "inputs": [
        {
          "internalType": "string",
          "name": "_comments",
          "type": "string"
        },
        {
          "internalType": "uint256",
          "name": "_requestStatus",
          "type": "uint256"
        },
        {
          "internalType": "uint256",
          "name": "_projectStatus",
          "type": "uint256"
        },
        {
          "internalType": "address",
          "name": "_projectAddress",
          "type": "address"
        },
        {
          "internalType": "address",
          "name": "_requestAddress",
          "type": "address"
        },
        {
          "internalType": "string",
          "name": "_signature",
          "type": "string"
        }
      ],
      "name": "updateCompanyRequest",
      "outputs": [],
      "stateMutability": "nonpayable",
      "type": "function"
    },
    {
      "inputs": [],
      "name": "getAllRequests",
      "outputs": [
        {
          "components": [
            {
              "internalType": "uint256",
              "name": "_index",
              "type": "uint256"
            },
            {
              "internalType": "string",
              "name": "_title",
              "type": "string"
            },
            {
              "internalType": "string",
              "name": "_comments",
              "type": "string"
            },
            {
              "internalType": "enum SharedChain.ProjectStatus",
              "name": "_projectStatus",
              "type": "uint8"
            },
            {
              "internalType": "enum SharedChain.RequestStatus",
              "name": "_requestStatus",
              "type": "uint8"
            },
            {
              "internalType": "enum SharedChain.RequestType",
              "name": "_requestType",
              "type": "uint8"
            },
            {
              "internalType": "address",
              "name": "_projectAddress",
              "type": "address"
            },
            {
              "internalType": "address",
              "name": "_requestAddress",
              "type": "address"
            },
            {
              "internalType": "address",
              "name": "_signerAddress",
              "type": "address"
            },
            {
              "internalType": "uint256",
              "name": "_timestamp",
              "type": "uint256"
            },
            {
              "internalType": "string",
              "name": "_signature",
              "type": "string"
            }
          ],
          "internalType": "struct SharedChain.Request[]",
          "name": "",
          "type": "tuple[]"
        }
      ],
      "stateMutability": "view",
      "type": "function",
      "constant": true
    },
    {
      "inputs": [
        {
          "internalType": "address",
          "name": "_projectAddress",
          "type": "address"
        },
        {
          "internalType": "address",
          "name": "_requestAddress",
          "type": "address"
        }
      ],
      "name": "getLastProjectRequest",
      "outputs": [
        {
          "components": [
            {
              "internalType": "uint256",
              "name": "_index",
              "type": "uint256"
            },
            {
              "internalType": "string",
              "name": "_title",
              "type": "string"
            },
            {
              "internalType": "string",
              "name": "_comments",
              "type": "string"
            },
            {
              "internalType": "enum SharedChain.ProjectStatus",
              "name": "_projectStatus",
              "type": "uint8"
            },
            {
              "internalType": "enum SharedChain.RequestStatus",
              "name": "_requestStatus",
              "type": "uint8"
            },
            {
              "internalType": "enum SharedChain.RequestType",
              "name": "_requestType",
              "type": "uint8"
            },
            {
              "internalType": "address",
              "name": "_projectAddress",
              "type": "address"
            },
            {
              "internalType": "address",
              "name": "_requestAddress",
              "type": "address"
            },
            {
              "internalType": "address",
              "name": "_signerAddress",
              "type": "address"
            },
            {
              "internalType": "uint256",
              "name": "_timestamp",
              "type": "uint256"
            },
            {
              "internalType": "string",
              "name": "_signature",
              "type": "string"
            }
          ],
          "internalType": "struct SharedChain.Request",
          "name": "",
          "type": "tuple"
        }
      ],
      "stateMutability": "view",
      "type": "function",
      "constant": true
    }
  ],
  "bytecode": "0x6080604052336000806101000a81548173ffffffffffffffffffffffffffffffffffffffff021916908373ffffffffffffffffffffffffffffffffffffffff16021790555060006002556000600555600060085534801561005f57600080fd5b50615d4e80620000706000396000f3fe608060405234801561001057600080fd5b50600436106101585760003560e01c80638da5cb5b116100c3578063dcc601281161007c578063dcc601281461043a578063e1592c0d14610458578063e2842d7914610474578063e617385f14610492578063fb1a002a146104ae578063fe360ea5146104cc57610158565b80638da5cb5b14610376578063910097861461039457806391d6e4ac146103b0578063a87430ba146103cc578063ba60ec8414610400578063d67b1b991461041c57610158565b80636386c1c7116101155780636386c1c714610269578063663c22691461029957806374adad1d146102b757806376c932e0146102f1578063840e78fd14610321578063844855631461035a57610158565b8063191e16451461015d5780633000d7f91461018d5780633b4ec4f8146101a957806344884710146101d957806347ee45b91461020957806356a3eead14610239575b600080fd5b610177600480360381019061017291906143ee565b6104ea565b604051610184919061448b565b60405180910390f35b6101a760048036038101906101a29190614508565b6105d8565b005b6101c360048036038101906101be91906143ee565b61091b565b6040516101d0919061448b565b60405180910390f35b6101f360048036038101906101ee919061456f565b610a23565b6040516102009190614859565b60405180910390f35b610223600480360381019061021e919061487b565b610fde565b60405161023091906149ab565b60405180910390f35b610253600480360381019061024e91906149cd565b61142a565b604051610260919061448b565b60405180910390f35b610283600480360381019061027e919061487b565b611469565b6040516102909190614ab9565b60405180910390f35b6102a1611641565b6040516102ae9190614ae3565b60405180910390f35b6102d160048036038101906102cc919061487b565b611647565b6040516102e89b9a99989796959493929190614b75565b60405180910390f35b61030b600480360381019061030691906149cd565b6118c0565b604051610318919061448b565b60405180910390f35b61033b6004803603810190610336919061487b565b6118ff565b6040516103519a99989796959493929190614c44565b60405180910390f35b610374600480360381019061036f9190614cf5565b611b65565b005b61037e611fc7565b60405161038b919061448b565b60405180910390f35b6103ae60048036038101906103a99190614dc4565b611feb565b005b6103ca60048036038101906103c59190614e04565b6121cc565b005b6103e660048036038101906103e1919061487b565b612636565b6040516103f7959493929190614ee7565b60405180910390f35b61041a60048036038101906104159190614e04565b612699565b005b610424612a82565b6040516104319190614ae3565b60405180910390f35b610442612a88565b60405161044f91906150e4565b60405180910390f35b610472600480360381019061046d9190615106565b61302a565b005b61047c613237565b60405161048991906152a8565b60405180910390f35b6104ac60048036038101906104a79190614e04565b6134aa565b005b6104b6613a59565b6040516104c39190615489565b60405180910390f35b6104d4613fdd565b6040516104e19190614ae3565b60405180910390f35b600060016003811115610500576104ff614646565b5b600160003373ffffffffffffffffffffffffffffffffffffffff1673ffffffffffffffffffffffffffffffffffffffff16815260200190815260200160002060020160009054906101000a900460ff16600381111561056257610561614646565b5b146105a2576040517f08c379a0000000000000000000000000000000000000000000000000000000008152600401610599906154f7565b60405180910390fd5b8233836040516020016105b7939291906155bc565b6040516020818303038152906040528051906020012060001c905092915050565b8073ffffffffffffffffffffffffffffffffffffffff16600073ffffffffffffffffffffffffffffffffffffffff161415610648576040517f08c379a000000000000000000000000000000000000000000000000000000000815260040161063f90615641565b60405180910390fd5b3373ffffffffffffffffffffffffffffffffffffffff1660008054906101000a900473ffffffffffffffffffffffffffffffffffffffff1673ffffffffffffffffffffffffffffffffffffffff16146106d6576040517f08c379a00000000000000000000000000000000000000000000000000000000081526004016106cd906154f7565b60405180910390fd5b6040518060a00160405280858152602001848152602001836003811115610700576106ff614646565b5b600381111561071257610711614646565b5b81526020018273ffffffffffffffffffffffffffffffffffffffff16815260200142815250600160008373ffffffffffffffffffffffffffffffffffffffff1673ffffffffffffffffffffffffffffffffffffffff168152602001908152602001600020600082015181600001556020820151816001015560408201518160020160006101000a81548160ff021916908360038111156107b5576107b4614646565b5b021790555060608201518160020160016101000a81548173ffffffffffffffffffffffffffffffffffffffff021916908373ffffffffffffffffffffffffffffffffffffffff160217905550608082015181600301559050508073ffffffffffffffffffffffffffffffffffffffff167ff751778eb32087df58f173035147c2eac9aac89fdc2f83b1993a198606f56db1600160008473ffffffffffffffffffffffffffffffffffffffff1673ffffffffffffffffffffffffffffffffffffffff16815260200190815260200160002060405161089291906157be565b60405180910390a26003819080600181540180825580915050600190039060005260206000200160009091909190916101000a81548173ffffffffffffffffffffffffffffffffffffffff021916908373ffffffffffffffffffffffffffffffffffffffff1602179055506002600081548092919061091090615808565b919050555050505050565b60003373ffffffffffffffffffffffffffffffffffffffff16600160003373ffffffffffffffffffffffffffffffffffffffff1673ffffffffffffffffffffffffffffffffffffffff16815260200190815260200160002060020160019054906101000a900473ffffffffffffffffffffffffffffffffffffffff1673ffffffffffffffffffffffffffffffffffffffff16146109ed576040517f08c379a00000000000000000000000000000000000000000000000000000000081526004016109e490615641565b60405180910390fd5b823383604051602001610a02939291906155bc565b6040516020818303038152906040528051906020012060001c905092915050565b610a2b613fe3565b60016003811115610a3f57610a3e614646565b5b600160003373ffffffffffffffffffffffffffffffffffffffff1673ffffffffffffffffffffffffffffffffffffffff16815260200190815260200160002060020160009054906101000a900460ff166003811115610aa157610aa0614646565b5b1480610b20575060026003811115610abc57610abb614646565b5b600160003373ffffffffffffffffffffffffffffffffffffffff1673ffffffffffffffffffffffffffffffffffffffff16815260200190815260200160002060020160009054906101000a900460ff166003811115610b1e57610b1d614646565b5b145b610b5f576040517f08c379a0000000000000000000000000000000000000000000000000000000008152600401610b56906154f7565b60405180910390fd5b610b67613fe3565b60006008541115610fd4578373ffffffffffffffffffffffffffffffffffffffff16600760008573ffffffffffffffffffffffffffffffffffffffff1673ffffffffffffffffffffffffffffffffffffffff16815260200190815260200160002060030160039054906101000a900473ffffffffffffffffffffffffffffffffffffffff1673ffffffffffffffffffffffffffffffffffffffff161415610fd357600760008473ffffffffffffffffffffffffffffffffffffffff1673ffffffffffffffffffffffffffffffffffffffff1681526020019081526020016000206040518061016001604052908160008201548152602001600182018054610c6d90615880565b80601f0160208091040260200160405190810160405280929190818152602001828054610c9990615880565b8015610ce65780601f10610cbb57610100808354040283529160200191610ce6565b820191906000526020600020905b815481529060010190602001808311610cc957829003601f168201915b50505050508152602001600282018054610cff90615880565b80601f0160208091040260200160405190810160405280929190818152602001828054610d2b90615880565b8015610d785780601f10610d4d57610100808354040283529160200191610d78565b820191906000526020600020905b815481529060010190602001808311610d5b57829003601f168201915b505050505081526020016003820160009054906101000a900460ff166004811115610da657610da5614646565b5b6004811115610db857610db7614646565b5b81526020016003820160019054906101000a900460ff166002811115610de157610de0614646565b5b6002811115610df357610df2614646565b5b81526020016003820160029054906101000a900460ff166001811115610e1c57610e1b614646565b5b6001811115610e2e57610e2d614646565b5b81526020016003820160039054906101000a900473ffffffffffffffffffffffffffffffffffffffff1673ffffffffffffffffffffffffffffffffffffffff1673ffffffffffffffffffffffffffffffffffffffff1681526020016004820160009054906101000a900473ffffffffffffffffffffffffffffffffffffffff1673ffffffffffffffffffffffffffffffffffffffff1673ffffffffffffffffffffffffffffffffffffffff1681526020016005820160009054906101000a900473ffffffffffffffffffffffffffffffffffffffff1673ffffffffffffffffffffffffffffffffffffffff1673ffffffffffffffffffffffffffffffffffffffff16815260200160068201548152602001600782018054610f4e90615880565b80601f0160208091040260200160405190810160405280929190818152602001828054610f7a90615880565b8015610fc75780601f10610f9c57610100808354040283529160200191610fc7565b820191906000526020600020905b815481529060010190602001808311610faa57829003601f168201915b50505050508152505090505b5b8091505092915050565b610fe66140b5565b3373ffffffffffffffffffffffffffffffffffffffff16600160003373ffffffffffffffffffffffffffffffffffffffff1673ffffffffffffffffffffffffffffffffffffffff16815260200190815260200160002060020160019054906101000a900473ffffffffffffffffffffffffffffffffffffffff1673ffffffffffffffffffffffffffffffffffffffff16146110b6576040517f08c379a00000000000000000000000000000000000000000000000000000000081526004016110ad906154f7565b60405180910390fd5b600460008373ffffffffffffffffffffffffffffffffffffffff1673ffffffffffffffffffffffffffffffffffffffff168152602001908152602001600020604051806101400160405290816000820154815260200160018201805461111b90615880565b80601f016020809104026020016040519081016040528092919081815260200182805461114790615880565b80156111945780601f1061116957610100808354040283529160200191611194565b820191906000526020600020905b81548152906001019060200180831161117757829003601f168201915b505050505081526020016002820160009054906101000a900460ff1660048111156111c2576111c1614646565b5b60048111156111d4576111d3614646565b5b81526020016003820180546111e890615880565b80601f016020809104026020016040519081016040528092919081815260200182805461121490615880565b80156112615780601f1061123657610100808354040283529160200191611261565b820191906000526020600020905b81548152906001019060200180831161124457829003601f168201915b505050505081526020016004820160009054906101000a900473ffffffffffffffffffffffffffffffffffffffff1673ffffffffffffffffffffffffffffffffffffffff1673ffffffffffffffffffffffffffffffffffffffff1681526020016005820160009054906101000a900473ffffffffffffffffffffffffffffffffffffffff1673ffffffffffffffffffffffffffffffffffffffff1673ffffffffffffffffffffffffffffffffffffffff1681526020016006820160009054906101000a900473ffffffffffffffffffffffffffffffffffffffff1673ffffffffffffffffffffffffffffffffffffffff1673ffffffffffffffffffffffffffffffffffffffff1681526020016006820160149054906101000a900460ff16151515158152602001600782015481526020016008820180546113a190615880565b80601f01602080910402602001604051908101604052809291908181526020018280546113cd90615880565b801561141a5780601f106113ef5761010080835404028352916020019161141a565b820191906000526020600020905b8154815290600101906020018083116113fd57829003601f168201915b5050505050815250509050919050565b6009818154811061143a57600080fd5b906000526020600020016000915054906101000a900473ffffffffffffffffffffffffffffffffffffffff1681565b61147161415e565b3373ffffffffffffffffffffffffffffffffffffffff16600160003373ffffffffffffffffffffffffffffffffffffffff1673ffffffffffffffffffffffffffffffffffffffff16815260200190815260200160002060020160019054906101000a900473ffffffffffffffffffffffffffffffffffffffff1673ffffffffffffffffffffffffffffffffffffffff1614611541576040517f08c379a0000000000000000000000000000000000000000000000000000000008152600401611538906154f7565b60405180910390fd5b600160008373ffffffffffffffffffffffffffffffffffffffff1673ffffffffffffffffffffffffffffffffffffffff1681526020019081526020016000206040518060a001604052908160008201548152602001600182015481526020016002820160009054906101000a900460ff1660038111156115c4576115c3614646565b5b60038111156115d6576115d5614646565b5b81526020016002820160019054906101000a900473ffffffffffffffffffffffffffffffffffffffff1673ffffffffffffffffffffffffffffffffffffffff1673ffffffffffffffffffffffffffffffffffffffff1681526020016003820154815250509050919050565b60085481565b600760205280600052604060002060009150905080600001549080600101805461167090615880565b80601f016020809104026020016040519081016040528092919081815260200182805461169c90615880565b80156116e95780601f106116be576101008083540402835291602001916116e9565b820191906000526020600020905b8154815290600101906020018083116116cc57829003601f168201915b5050505050908060020180546116fe90615880565b80601f016020809104026020016040519081016040528092919081815260200182805461172a90615880565b80156117775780601f1061174c57610100808354040283529160200191611777565b820191906000526020600020905b81548152906001019060200180831161175a57829003601f168201915b5050505050908060030160009054906101000a900460ff16908060030160019054906101000a900460ff16908060030160029054906101000a900460ff16908060030160039054906101000a900473ffffffffffffffffffffffffffffffffffffffff16908060040160009054906101000a900473ffffffffffffffffffffffffffffffffffffffff16908060050160009054906101000a900473ffffffffffffffffffffffffffffffffffffffff169080600601549080600701805461183d90615880565b80601f016020809104026020016040519081016040528092919081815260200182805461186990615880565b80156118b65780601f1061188b576101008083540402835291602001916118b6565b820191906000526020600020905b81548152906001019060200180831161189957829003601f168201915b505050505090508b565b600681815481106118d057600080fd5b906000526020600020016000915054906101000a900473ffffffffffffffffffffffffffffffffffffffff1681565b600460205280600052604060002060009150905080600001549080600101805461192890615880565b80601f016020809104026020016040519081016040528092919081815260200182805461195490615880565b80156119a15780601f10611976576101008083540402835291602001916119a1565b820191906000526020600020905b81548152906001019060200180831161198457829003601f168201915b5050505050908060020160009054906101000a900460ff16908060030180546119c990615880565b80601f01602080910402602001604051908101604052809291908181526020018280546119f590615880565b8015611a425780601f10611a1757610100808354040283529160200191611a42565b820191906000526020600020905b815481529060010190602001808311611a2557829003601f168201915b5050505050908060040160009054906101000a900473ffffffffffffffffffffffffffffffffffffffff16908060050160009054906101000a900473ffffffffffffffffffffffffffffffffffffffff16908060060160009054906101000a900473ffffffffffffffffffffffffffffffffffffffff16908060060160149054906101000a900460ff1690806007015490806008018054611ae290615880565b80601f0160208091040260200160405190810160405280929190818152602001828054611b0e90615880565b8015611b5b5780601f10611b3057610100808354040283529160200191611b5b565b820191906000526020600020905b815481529060010190602001808311611b3e57829003601f168201915b505050505090508a565b60016003811115611b7957611b78614646565b5b600160003373ffffffffffffffffffffffffffffffffffffffff1673ffffffffffffffffffffffffffffffffffffffff16815260200190815260200160002060020160009054906101000a900460ff166003811115611bdb57611bda614646565b5b14611c1b576040517f08c379a0000000000000000000000000000000000000000000000000000000008152600401611c12906154f7565b60405180910390fd5b6040518061014001604052806005548152602001858152602001846004811115611c4857611c47614646565b5b6004811115611c5a57611c59614646565b5b81526020018381526020018673ffffffffffffffffffffffffffffffffffffffff1681526020013373ffffffffffffffffffffffffffffffffffffffff168152602001600073ffffffffffffffffffffffffffffffffffffffff16815260200160001515815260200142815260200182815250600460008773ffffffffffffffffffffffffffffffffffffffff1673ffffffffffffffffffffffffffffffffffffffff168152602001908152602001600020600082015181600001556020820151816001019080519060200190611d329291906141bb565b5060408201518160020160006101000a81548160ff02191690836004811115611d5e57611d5d614646565b5b02179055506060820151816003019080519060200190611d7f9291906141bb565b5060808201518160040160006101000a81548173ffffffffffffffffffffffffffffffffffffffff021916908373ffffffffffffffffffffffffffffffffffffffff16021790555060a08201518160050160006101000a81548173ffffffffffffffffffffffffffffffffffffffff021916908373ffffffffffffffffffffffffffffffffffffffff16021790555060c08201518160060160006101000a81548173ffffffffffffffffffffffffffffffffffffffff021916908373ffffffffffffffffffffffffffffffffffffffff16021790555060e08201518160060160146101000a81548160ff0219169083151502179055506101008201518160070155610120820151816008019080519060200190611e9d9291906141bb565b50905050600073ffffffffffffffffffffffffffffffffffffffff168573ffffffffffffffffffffffffffffffffffffffff167ffb530d24abc3d497c3f0525ef204a66ac64d923ec30b40d17bc3a5f572cf4b8e600460008973ffffffffffffffffffffffffffffffffffffffff1673ffffffffffffffffffffffffffffffffffffffff168152602001908152602001600020604051611f3d9190615ae7565b60405180910390a36006859080600181540180825580915050600190039060005260206000200160009091909190916101000a81548173ffffffffffffffffffffffffffffffffffffffff021916908373ffffffffffffffffffffffffffffffffffffffff16021790555060056000815480929190611fbb90615808565b91905055505050505050565b60008054906101000a900473ffffffffffffffffffffffffffffffffffffffff1681565b3373ffffffffffffffffffffffffffffffffffffffff1660008054906101000a900473ffffffffffffffffffffffffffffffffffffffff1673ffffffffffffffffffffffffffffffffffffffff1614612079576040517f08c379a0000000000000000000000000000000000000000000000000000000008152600401612070906154f7565b60405180910390fd5b81600381111561208c5761208b614646565b5b600160008373ffffffffffffffffffffffffffffffffffffffff1673ffffffffffffffffffffffffffffffffffffffff16815260200190815260200160002060020160006101000a81548160ff021916908360038111156120f0576120ef614646565b5b021790555042600160008373ffffffffffffffffffffffffffffffffffffffff1673ffffffffffffffffffffffffffffffffffffffff168152602001908152602001600020600301819055508073ffffffffffffffffffffffffffffffffffffffff167ff751778eb32087df58f173035147c2eac9aac89fdc2f83b1993a198606f56db1600160008473ffffffffffffffffffffffffffffffffffffffff1673ffffffffffffffffffffffffffffffffffffffff1681526020019081526020016000206040516121c091906157be565b60405180910390a25050565b600260038111156121e0576121df614646565b5b600160003373ffffffffffffffffffffffffffffffffffffffff1673ffffffffffffffffffffffffffffffffffffffff16815260200190815260200160002060020160009054906101000a900460ff16600381111561224257612241614646565b5b14612282576040517f08c379a0000000000000000000000000000000000000000000000000000000008152600401612279906154f7565b60405180910390fd5b85600760008473ffffffffffffffffffffffffffffffffffffffff1673ffffffffffffffffffffffffffffffffffffffff16815260200190815260200160002060020190805190602001906122d89291906141bb565b508460028111156122ec576122eb614646565b5b600760008473ffffffffffffffffffffffffffffffffffffffff1673ffffffffffffffffffffffffffffffffffffffff16815260200190815260200160002060030160016101000a81548160ff021916908360028111156123505761234f614646565b5b021790555080600760008473ffffffffffffffffffffffffffffffffffffffff1673ffffffffffffffffffffffffffffffffffffffff16815260200190815260200160002060070190805190602001906123ab9291906141bb565b508273ffffffffffffffffffffffffffffffffffffffff168273ffffffffffffffffffffffffffffffffffffffff167fa25a6f1ff57a050a48ae4b3a19f271fddad950cac8d165d6a2eca5d54cc8070f600760008673ffffffffffffffffffffffffffffffffffffffff1673ffffffffffffffffffffffffffffffffffffffff1681526020019081526020016000206040516124479190615cc7565b60405180910390a384600281111561246257612461614646565b5b600281111561247457612473614646565b5b60028081111561248757612486614646565b5b141561262e578360048111156124a05761249f614646565b5b600460008573ffffffffffffffffffffffffffffffffffffffff1673ffffffffffffffffffffffffffffffffffffffff16815260200190815260200160002060020160006101000a81548160ff0219169083600481111561250457612503614646565b5b021790555033600460008573ffffffffffffffffffffffffffffffffffffffff1673ffffffffffffffffffffffffffffffffffffffff16815260200190815260200160002060060160006101000a81548173ffffffffffffffffffffffffffffffffffffffff021916908373ffffffffffffffffffffffffffffffffffffffff1602179055503373ffffffffffffffffffffffffffffffffffffffff168373ffffffffffffffffffffffffffffffffffffffff167ffb530d24abc3d497c3f0525ef204a66ac64d923ec30b40d17bc3a5f572cf4b8e600460008773ffffffffffffffffffffffffffffffffffffffff1673ffffffffffffffffffffffffffffffffffffffff1681526020019081526020016000206040516126259190615ae7565b60405180910390a35b505050505050565b60016020528060005260406000206000915090508060000154908060010154908060020160009054906101000a900460ff16908060020160019054906101000a900473ffffffffffffffffffffffffffffffffffffffff16908060030154905085565b6003808111156126ac576126ab614646565b5b600160003373ffffffffffffffffffffffffffffffffffffffff1673ffffffffffffffffffffffffffffffffffffffff16815260200190815260200160002060020160009054906101000a900460ff16600381111561270e5761270d614646565b5b1461274e576040517f08c379a0000000000000000000000000000000000000000000000000000000008152600401612745906154f7565b60405180910390fd5b85600760008473ffffffffffffffffffffffffffffffffffffffff1673ffffffffffffffffffffffffffffffffffffffff16815260200190815260200160002060020190805190602001906127a49291906141bb565b508460028111156127b8576127b7614646565b5b600760008473ffffffffffffffffffffffffffffffffffffffff1673ffffffffffffffffffffffffffffffffffffffff16815260200190815260200160002060030160016101000a81548160ff0219169083600281111561281c5761281b614646565b5b021790555080600760008473ffffffffffffffffffffffffffffffffffffffff1673ffffffffffffffffffffffffffffffffffffffff16815260200190815260200160002060070190805190602001906128779291906141bb565b508273ffffffffffffffffffffffffffffffffffffffff168273ffffffffffffffffffffffffffffffffffffffff167fa25a6f1ff57a050a48ae4b3a19f271fddad950cac8d165d6a2eca5d54cc8070f600760008673ffffffffffffffffffffffffffffffffffffffff1673ffffffffffffffffffffffffffffffffffffffff1681526020019081526020016000206040516129139190615cc7565b60405180910390a384600281111561292e5761292d614646565b5b60028111156129405761293f614646565b5b60028081111561295357612952614646565b5b1415612a7a5783600481111561296c5761296b614646565b5b600460008573ffffffffffffffffffffffffffffffffffffffff1673ffffffffffffffffffffffffffffffffffffffff16815260200190815260200160002060020160006101000a81548160ff021916908360048111156129d0576129cf614646565b5b0217905550600073ffffffffffffffffffffffffffffffffffffffff168373ffffffffffffffffffffffffffffffffffffffff167ffb530d24abc3d497c3f0525ef204a66ac64d923ec30b40d17bc3a5f572cf4b8e600460008773ffffffffffffffffffffffffffffffffffffffff1673ffffffffffffffffffffffffffffffffffffffff168152602001908152602001600020604051612a719190615ae7565b60405180910390a35b505050505050565b60025481565b606060016003811115612a9e57612a9d614646565b5b600160003373ffffffffffffffffffffffffffffffffffffffff1673ffffffffffffffffffffffffffffffffffffffff16815260200190815260200160002060020160009054906101000a900460ff166003811115612b0057612aff614646565b5b1480612b7f575060026003811115612b1b57612b1a614646565b5b600160003373ffffffffffffffffffffffffffffffffffffffff1673ffffffffffffffffffffffffffffffffffffffff16815260200190815260200160002060020160009054906101000a900460ff166003811115612b7d57612b7c614646565b5b145b612bbe576040517f08c379a0000000000000000000000000000000000000000000000000000000008152600401612bb5906154f7565b60405180910390fd5b606060006005541415612bd45780915050613027565b60055467ffffffffffffffff811115612bf057612bef61428d565b5b604051908082528060200260200182016040528015612c2957816020015b612c166140b5565b815260200190600190039081612c0e5790505b50905060005b60055481101561302157600060068281548110612c4f57612c4e615ce9565b5b9060005260206000200160009054906101000a900473ffffffffffffffffffffffffffffffffffffffff1690506000600460008373ffffffffffffffffffffffffffffffffffffffff1673ffffffffffffffffffffffffffffffffffffffff1681526020019081526020016000209050806040518061014001604052908160008201548152602001600182018054612ce690615880565b80601f0160208091040260200160405190810160405280929190818152602001828054612d1290615880565b8015612d5f5780601f10612d3457610100808354040283529160200191612d5f565b820191906000526020600020905b815481529060010190602001808311612d4257829003601f168201915b505050505081526020016002820160009054906101000a900460ff166004811115612d8d57612d8c614646565b5b6004811115612d9f57612d9e614646565b5b8152602001600382018054612db390615880565b80601f0160208091040260200160405190810160405280929190818152602001828054612ddf90615880565b8015612e2c5780601f10612e0157610100808354040283529160200191612e2c565b820191906000526020600020905b815481529060010190602001808311612e0f57829003601f168201915b505050505081526020016004820160009054906101000a900473ffffffffffffffffffffffffffffffffffffffff1673ffffffffffffffffffffffffffffffffffffffff1673ffffffffffffffffffffffffffffffffffffffff1681526020016005820160009054906101000a900473ffffffffffffffffffffffffffffffffffffffff1673ffffffffffffffffffffffffffffffffffffffff1673ffffffffffffffffffffffffffffffffffffffff1681526020016006820160009054906101000a900473ffffffffffffffffffffffffffffffffffffffff1673ffffffffffffffffffffffffffffffffffffffff1673ffffffffffffffffffffffffffffffffffffffff1681526020016006820160149054906101000a900460ff1615151515815260200160078201548152602001600882018054612f6c90615880565b80601f0160208091040260200160405190810160405280929190818152602001828054612f9890615880565b8015612fe55780601f10612fba57610100808354040283529160200191612fe5565b820191906000526020600020905b815481529060010190602001808311612fc857829003601f168201915b50505050508152505084848151811061300157613000615ce9565b5b60200260200101819052505050808061301990615808565b915050612c2f565b50809150505b90565b6001600381111561303e5761303d614646565b5b600160003373ffffffffffffffffffffffffffffffffffffffff1673ffffffffffffffffffffffffffffffffffffffff16815260200190815260200160002060020160009054906101000a900460ff1660038111156130a05761309f614646565b5b146130e0576040517f08c379a00000000000000000000000000000000000000000000000000000000081526004016130d7906154f7565b60405180910390fd5b81600460008573ffffffffffffffffffffffffffffffffffffffff1673ffffffffffffffffffffffffffffffffffffffff16815260200190815260200160002060030190805190602001906131369291906141bb565b5080600460008573ffffffffffffffffffffffffffffffffffffffff1673ffffffffffffffffffffffffffffffffffffffff168152602001908152602001600020600801908051906020019061318d9291906141bb565b50600073ffffffffffffffffffffffffffffffffffffffff168373ffffffffffffffffffffffffffffffffffffffff167ffb530d24abc3d497c3f0525ef204a66ac64d923ec30b40d17bc3a5f572cf4b8e600460008773ffffffffffffffffffffffffffffffffffffffff1673ffffffffffffffffffffffffffffffffffffffff16815260200190815260200160002060405161322a9190615ae7565b60405180910390a3505050565b60603373ffffffffffffffffffffffffffffffffffffffff1660008054906101000a900473ffffffffffffffffffffffffffffffffffffffff1673ffffffffffffffffffffffffffffffffffffffff16146132c7576040517f08c379a00000000000000000000000000000000000000000000000000000000081526004016132be906154f7565b60405180910390fd5b600060025467ffffffffffffffff8111156132e5576132e461428d565b5b60405190808252806020026020018201604052801561331e57816020015b61330b61415e565b8152602001906001900390816133035790505b50905060005b6002548110156134a25760006003828154811061334457613343615ce9565b5b9060005260206000200160009054906101000a900473ffffffffffffffffffffffffffffffffffffffff1690506000600160008373ffffffffffffffffffffffffffffffffffffffff1673ffffffffffffffffffffffffffffffffffffffff1681526020019081526020016000209050806040518060a001604052908160008201548152602001600182015481526020016002820160009054906101000a900460ff1660038111156133f9576133f8614646565b5b600381111561340b5761340a614646565b5b81526020016002820160019054906101000a900473ffffffffffffffffffffffffffffffffffffffff1673ffffffffffffffffffffffffffffffffffffffff1673ffffffffffffffffffffffffffffffffffffffff16815260200160038201548152505084848151811061348257613481615ce9565b5b60200260200101819052505050808061349a90615808565b915050613324565b508091505090565b600160038111156134be576134bd614646565b5b600160003373ffffffffffffffffffffffffffffffffffffffff1673ffffffffffffffffffffffffffffffffffffffff16815260200190815260200160002060020160009054906101000a900460ff1660038111156135205761351f614646565b5b148061359f57506002600381111561353b5761353a614646565b5b600160003373ffffffffffffffffffffffffffffffffffffffff1673ffffffffffffffffffffffffffffffffffffffff16815260200190815260200160002060020160009054906101000a900460ff16600381111561359d5761359c614646565b5b145b6135de576040517f08c379a00000000000000000000000000000000000000000000000000000000081526004016135d5906154f7565b60405180910390fd5b6000600260048111156135f4576135f3614646565b5b86600481111561360757613606614646565b5b600481111561361957613618614646565b5b141561362457600190505b604051806101600160405280600854815260200188815260200160405180602001604052806000815250815260200187600481111561366657613665614646565b5b600481111561367857613677614646565b5b81526020018660028111156136905761368f614646565b5b60028111156136a2576136a1614646565b5b81526020018260018111156136ba576136b9614646565b5b81526020018573ffffffffffffffffffffffffffffffffffffffff1681526020018473ffffffffffffffffffffffffffffffffffffffff1681526020013373ffffffffffffffffffffffffffffffffffffffff16815260200142815260200183815250600760008573ffffffffffffffffffffffffffffffffffffffff1673ffffffffffffffffffffffffffffffffffffffff1681526020019081526020016000206000820151816000015560208201518160010190805190602001906137829291906141bb565b50604082015181600201908051906020019061379f9291906141bb565b5060608201518160030160006101000a81548160ff021916908360048111156137cb576137ca614646565b5b021790555060808201518160030160016101000a81548160ff021916908360028111156137fb576137fa614646565b5b021790555060a08201518160030160026101000a81548160ff0219169083600181111561382b5761382a614646565b5b021790555060c08201518160030160036101000a81548173ffffffffffffffffffffffffffffffffffffffff021916908373ffffffffffffffffffffffffffffffffffffffff16021790555060e08201518160040160006101000a81548173ffffffffffffffffffffffffffffffffffffffff021916908373ffffffffffffffffffffffffffffffffffffffff1602179055506101008201518160050160006101000a81548173ffffffffffffffffffffffffffffffffffffffff021916908373ffffffffffffffffffffffffffffffffffffffff160217905550610120820151816006015561014082015181600701908051906020019061392e9291906141bb565b509050508373ffffffffffffffffffffffffffffffffffffffff168373ffffffffffffffffffffffffffffffffffffffff167fa25a6f1ff57a050a48ae4b3a19f271fddad950cac8d165d6a2eca5d54cc8070f600760008773ffffffffffffffffffffffffffffffffffffffff1673ffffffffffffffffffffffffffffffffffffffff1681526020019081526020016000206040516139cd9190615cc7565b60405180910390a36009839080600181540180825580915050600190039060005260206000200160009091909190916101000a81548173ffffffffffffffffffffffffffffffffffffffff021916908373ffffffffffffffffffffffffffffffffffffffff16021790555060086000815480929190613a4b90615808565b919050555050505050505050565b60603373ffffffffffffffffffffffffffffffffffffffff16600160003373ffffffffffffffffffffffffffffffffffffffff1673ffffffffffffffffffffffffffffffffffffffff16815260200190815260200160002060020160019054906101000a900473ffffffffffffffffffffffffffffffffffffffff1673ffffffffffffffffffffffffffffffffffffffff1614613b2b576040517f08c379a0000000000000000000000000000000000000000000000000000000008152600401613b2290615641565b60405180910390fd5b600060085467ffffffffffffffff811115613b4957613b4861428d565b5b604051908082528060200260200182016040528015613b8257816020015b613b6f613fe3565b815260200190600190039081613b675790505b50905060005b600854811015613fd557600060098281548110613ba857613ba7615ce9565b5b9060005260206000200160009054906101000a900473ffffffffffffffffffffffffffffffffffffffff1690506000600760008373ffffffffffffffffffffffffffffffffffffffff1673ffffffffffffffffffffffffffffffffffffffff1681526020019081526020016000209050806040518061016001604052908160008201548152602001600182018054613c3f90615880565b80601f0160208091040260200160405190810160405280929190818152602001828054613c6b90615880565b8015613cb85780601f10613c8d57610100808354040283529160200191613cb8565b820191906000526020600020905b815481529060010190602001808311613c9b57829003601f168201915b50505050508152602001600282018054613cd190615880565b80601f0160208091040260200160405190810160405280929190818152602001828054613cfd90615880565b8015613d4a5780601f10613d1f57610100808354040283529160200191613d4a565b820191906000526020600020905b815481529060010190602001808311613d2d57829003601f168201915b505050505081526020016003820160009054906101000a900460ff166004811115613d7857613d77614646565b5b6004811115613d8a57613d89614646565b5b81526020016003820160019054906101000a900460ff166002811115613db357613db2614646565b5b6002811115613dc557613dc4614646565b5b81526020016003820160029054906101000a900460ff166001811115613dee57613ded614646565b5b6001811115613e0057613dff614646565b5b81526020016003820160039054906101000a900473ffffffffffffffffffffffffffffffffffffffff1673ffffffffffffffffffffffffffffffffffffffff1673ffffffffffffffffffffffffffffffffffffffff1681526020016004820160009054906101000a900473ffffffffffffffffffffffffffffffffffffffff1673ffffffffffffffffffffffffffffffffffffffff1673ffffffffffffffffffffffffffffffffffffffff1681526020016005820160009054906101000a900473ffffffffffffffffffffffffffffffffffffffff1673ffffffffffffffffffffffffffffffffffffffff1673ffffffffffffffffffffffffffffffffffffffff16815260200160068201548152602001600782018054613f2090615880565b80601f0160208091040260200160405190810160405280929190818152602001828054613f4c90615880565b8015613f995780601f10613f6e57610100808354040283529160200191613f99565b820191906000526020600020905b815481529060010190602001808311613f7c57829003601f168201915b505050505081525050848481518110613fb557613fb4615ce9565b5b602002602001018190525050508080613fcd90615808565b915050613b88565b508091505090565b60055481565b6040518061016001604052806000815260200160608152602001606081526020016000600481111561401857614017614646565b5b81526020016000600281111561403157614030614646565b5b81526020016000600181111561404a57614049614646565b5b8152602001600073ffffffffffffffffffffffffffffffffffffffff168152602001600073ffffffffffffffffffffffffffffffffffffffff168152602001600073ffffffffffffffffffffffffffffffffffffffff16815260200160008152602001606081525090565b6040518061014001604052806000815260200160608152602001600060048111156140e3576140e2614646565b5b815260200160608152602001600073ffffffffffffffffffffffffffffffffffffffff168152602001600073ffffffffffffffffffffffffffffffffffffffff168152602001600073ffffffffffffffffffffffffffffffffffffffff16815260200160001515815260200160008152602001606081525090565b6040518060a0016040528060008019168152602001600080191681526020016000600381111561419157614190614646565b5b8152602001600073ffffffffffffffffffffffffffffffffffffffff168152602001600081525090565b8280546141c790615880565b90600052602060002090601f0160209004810192826141e95760008555614230565b82601f1061420257805160ff1916838001178555614230565b82800160010185558215614230579182015b8281111561422f578251825591602001919060010190614214565b5b50905061423d9190614241565b5090565b5b8082111561425a576000816000905550600101614242565b5090565b6000604051905090565b600080fd5b600080fd5b600080fd5b600080fd5b6000601f19601f8301169050919050565b7f4e487b7100000000000000000000000000000000000000000000000000000000600052604160045260246000fd5b6142c58261427c565b810181811067ffffffffffffffff821117156142e4576142e361428d565b5b80604052505050565b60006142f761425e565b905061430382826142bc565b919050565b600067ffffffffffffffff8211156143235761432261428d565b5b61432c8261427c565b9050602081019050919050565b82818337600083830152505050565b600061435b61435684614308565b6142ed565b90508281526020810184848401111561437757614376614277565b5b614382848285614339565b509392505050565b600082601f83011261439f5761439e614272565b5b81356143af848260208601614348565b91505092915050565b6000819050919050565b6143cb816143b8565b81146143d657600080fd5b50565b6000813590506143e8816143c2565b92915050565b6000806040838503121561440557614404614268565b5b600083013567ffffffffffffffff8111156144235761442261426d565b5b61442f8582860161438a565b9250506020614440858286016143d9565b9150509250929050565b600073ffffffffffffffffffffffffffffffffffffffff82169050919050565b60006144758261444a565b9050919050565b6144858161446a565b82525050565b60006020820190506144a0600083018461447c565b92915050565b6000819050919050565b6144b9816144a6565b81146144c457600080fd5b50565b6000813590506144d6816144b0565b92915050565b6144e58161446a565b81146144f057600080fd5b50565b600081359050614502816144dc565b92915050565b6000806000806080858703121561452257614521614268565b5b6000614530878288016144c7565b9450506020614541878288016144c7565b9350506040614552878288016143d9565b9250506060614563878288016144f3565b91505092959194509250565b6000806040838503121561458657614585614268565b5b6000614594858286016144f3565b92505060206145a5858286016144f3565b9150509250929050565b6145b8816143b8565b82525050565b600081519050919050565b600082825260208201905092915050565b60005b838110156145f85780820151818401526020810190506145dd565b83811115614607576000848401525b50505050565b6000614618826145be565b61462281856145c9565b93506146328185602086016145da565b61463b8161427c565b840191505092915050565b7f4e487b7100000000000000000000000000000000000000000000000000000000600052602160045260246000fd5b6005811061468657614685614646565b5b50565b600081905061469782614675565b919050565b60006146a782614689565b9050919050565b6146b78161469c565b82525050565b600381106146ce576146cd614646565b5b50565b60008190506146df826146bd565b919050565b60006146ef826146d1565b9050919050565b6146ff816146e4565b82525050565b6002811061471657614715614646565b5b50565b600081905061472782614705565b919050565b600061473782614719565b9050919050565b6147478161472c565b82525050565b6147568161446a565b82525050565b60006101608301600083015161477560008601826145af565b506020830151848203602086015261478d828261460d565b915050604083015184820360408601526147a7828261460d565b91505060608301516147bc60608601826146ae565b5060808301516147cf60808601826146f6565b5060a08301516147e260a086018261473e565b5060c08301516147f560c086018261474d565b5060e083015161480860e086018261474d565b5061010083015161481d61010086018261474d565b506101208301516148326101208601826145af565b5061014083015184820361014086015261484c828261460d565b9150508091505092915050565b60006020820190508181036000830152614873818461475c565b905092915050565b60006020828403121561489157614890614268565b5b600061489f848285016144f3565b91505092915050565b60008115159050919050565b6148bd816148a8565b82525050565b6000610140830160008301516148dc60008601826145af565b50602083015184820360208601526148f4828261460d565b915050604083015161490960408601826146ae565b5060608301518482036060860152614921828261460d565b9150506080830151614936608086018261474d565b5060a083015161494960a086018261474d565b5060c083015161495c60c086018261474d565b5060e083015161496f60e08601826148b4565b506101008301516149846101008601826145af565b5061012083015184820361012086015261499e828261460d565b9150508091505092915050565b600060208201905081810360008301526149c581846148c3565b905092915050565b6000602082840312156149e3576149e2614268565b5b60006149f1848285016143d9565b91505092915050565b614a03816144a6565b82525050565b60048110614a1a57614a19614646565b5b50565b6000819050614a2b82614a09565b919050565b6000614a3b82614a1d565b9050919050565b614a4b81614a30565b82525050565b60a082016000820151614a6760008501826149fa565b506020820151614a7a60208501826149fa565b506040820151614a8d6040850182614a42565b506060820151614aa0606085018261474d565b506080820151614ab360808501826145af565b50505050565b600060a082019050614ace6000830184614a51565b92915050565b614add816143b8565b82525050565b6000602082019050614af86000830184614ad4565b92915050565b600082825260208201905092915050565b6000614b1a826145be565b614b248185614afe565b9350614b348185602086016145da565b614b3d8161427c565b840191505092915050565b614b518161469c565b82525050565b614b60816146e4565b82525050565b614b6f8161472c565b82525050565b600061016082019050614b8b600083018e614ad4565b8181036020830152614b9d818d614b0f565b90508181036040830152614bb1818c614b0f565b9050614bc0606083018b614b48565b614bcd608083018a614b57565b614bda60a0830189614b66565b614be760c083018861447c565b614bf460e083018761447c565b614c0261010083018661447c565b614c10610120830185614ad4565b818103610140830152614c238184614b0f565b90509c9b505050505050505050505050565b614c3e816148a8565b82525050565b600061014082019050614c5a600083018d614ad4565b8181036020830152614c6c818c614b0f565b9050614c7b604083018b614b48565b8181036060830152614c8d818a614b0f565b9050614c9c608083018961447c565b614ca960a083018861447c565b614cb660c083018761447c565b614cc360e0830186614c35565b614cd1610100830185614ad4565b818103610120830152614ce48184614b0f565b90509b9a5050505050505050505050565b600080600080600060a08688031215614d1157614d10614268565b5b6000614d1f888289016144f3565b955050602086013567ffffffffffffffff811115614d4057614d3f61426d565b5b614d4c8882890161438a565b9450506040614d5d888289016143d9565b935050606086013567ffffffffffffffff811115614d7e57614d7d61426d565b5b614d8a8882890161438a565b925050608086013567ffffffffffffffff811115614dab57614daa61426d565b5b614db78882890161438a565b9150509295509295909350565b60008060408385031215614ddb57614dda614268565b5b6000614de9858286016143d9565b9250506020614dfa858286016144f3565b9150509250929050565b60008060008060008060c08789031215614e2157614e20614268565b5b600087013567ffffffffffffffff811115614e3f57614e3e61426d565b5b614e4b89828a0161438a565b9650506020614e5c89828a016143d9565b9550506040614e6d89828a016143d9565b9450506060614e7e89828a016144f3565b9350506080614e8f89828a016144f3565b92505060a087013567ffffffffffffffff811115614eb057614eaf61426d565b5b614ebc89828a0161438a565b9150509295509295509295565b614ed2816144a6565b82525050565b614ee181614a30565b82525050565b600060a082019050614efc6000830188614ec9565b614f096020830187614ec9565b614f166040830186614ed8565b614f23606083018561447c565b614f306080830184614ad4565b9695505050505050565b600081519050919050565b600082825260208201905092915050565b6000819050602082019050919050565b600061014083016000830151614f7f60008601826145af565b5060208301518482036020860152614f97828261460d565b9150506040830151614fac60408601826146ae565b5060608301518482036060860152614fc4828261460d565b9150506080830151614fd9608086018261474d565b5060a0830151614fec60a086018261474d565b5060c0830151614fff60c086018261474d565b5060e083015161501260e08601826148b4565b506101008301516150276101008601826145af565b50610120830151848203610120860152615041828261460d565b9150508091505092915050565b600061505a8383614f66565b905092915050565b6000602082019050919050565b600061507a82614f3a565b6150848185614f45565b93508360208202850161509685614f56565b8060005b858110156150d257848403895281516150b3858261504e565b94506150be83615062565b925060208a0199505060018101905061509a565b50829750879550505050505092915050565b600060208201905081810360008301526150fe818461506f565b905092915050565b60008060006060848603121561511f5761511e614268565b5b600061512d868287016144f3565b935050602084013567ffffffffffffffff81111561514e5761514d61426d565b5b61515a8682870161438a565b925050604084013567ffffffffffffffff81111561517b5761517a61426d565b5b6151878682870161438a565b9150509250925092565b600081519050919050565b600082825260208201905092915050565b6000819050602082019050919050565b60a0820160008201516151d360008501826149fa565b5060208201516151e660208501826149fa565b5060408201516151f96040850182614a42565b50606082015161520c606085018261474d565b50608082015161521f60808501826145af565b50505050565b600061523183836151bd565b60a08301905092915050565b6000602082019050919050565b600061525582615191565b61525f818561519c565b935061526a836151ad565b8060005b8381101561529b5781516152828882615225565b975061528d8361523d565b92505060018101905061526e565b5085935050505092915050565b600060208201905081810360008301526152c2818461524a565b905092915050565b600081519050919050565b600082825260208201905092915050565b6000819050602082019050919050565b60006101608301600083015161530f60008601826145af565b5060208301518482036020860152615327828261460d565b91505060408301518482036040860152615341828261460d565b915050606083015161535660608601826146ae565b50608083015161536960808601826146f6565b5060a083015161537c60a086018261473e565b5060c083015161538f60c086018261474d565b5060e08301516153a260e086018261474d565b506101008301516153b761010086018261474d565b506101208301516153cc6101208601826145af565b506101408301518482036101408601526153e6828261460d565b9150508091505092915050565b60006153ff83836152f6565b905092915050565b6000602082019050919050565b600061541f826152ca565b61542981856152d5565b93508360208202850161543b856152e6565b8060005b85811015615477578484038952815161545885826153f3565b945061546383615407565b925060208a0199505060018101905061543f565b50829750879550505050505092915050565b600060208201905081810360008301526154a38184615414565b905092915050565b7f596f7520617265206e6f742074686520726967687420757365722e0000000000600082015250565b60006154e1601b83614afe565b91506154ec826154ab565b602082019050919050565b60006020820190508181036000830152615510816154d4565b9050919050565b600081905092915050565b600061552d826145be565b6155378185615517565b93506155478185602086016145da565b80840191505092915050565b60008160601b9050919050565b600061556b82615553565b9050919050565b600061557d82615560565b9050919050565b6155956155908261446a565b615572565b82525050565b6000819050919050565b6155b66155b1826143b8565b61559b565b82525050565b60006155c88286615522565b91506155d48285615584565b6014820191506155e482846155a5565b602082019150819050949350505050565b7f41646472657373206973206e6f742076616c69642e0000000000000000000000600082015250565b600061562b601583614afe565b9150615636826155f5565b602082019050919050565b6000602082019050818103600083015261565a8161561e565b9050919050565b60008160001c9050919050565b6000819050919050565b600061568b61568683615661565b61566e565b9050919050565b600060ff82169050919050565b60006156b26156ad83615661565b615692565b9050919050565b60008160081c9050919050565b600073ffffffffffffffffffffffffffffffffffffffff82169050919050565b60006156f96156f4836156b9565b6156c6565b9050919050565b6000819050919050565b600061571d61571883615661565b615700565b9050919050565b60a08201600080830154905061573981615678565b61574660008601826149fa565b506001830154905061575781615678565b61576460208601826149fa565b50600283015490506157758161569f565b6157826040860182614a42565b5061578c816156e6565b615799606086018261474d565b50600383015490506157aa8161570a565b6157b760808601826145af565b5050505050565b600060a0820190506157d36000830184615724565b92915050565b7f4e487b7100000000000000000000000000000000000000000000000000000000600052601160045260246000fd5b6000615813826143b8565b91507fffffffffffffffffffffffffffffffffffffffffffffffffffffffffffffffff821415615846576158456157d9565b5b600182019050919050565b7f4e487b7100000000000000000000000000000000000000000000000000000000600052602260045260246000fd5b6000600282049050600182168061589857607f821691505b602082108114156158ac576158ab615851565b5b50919050565b60008190508160005260206000209050919050565b600081546158d481615880565b6158de81866145c9565b945060018216600081146158f9576001811461590b5761593e565b60ff198316865260208601935061593e565b615914856158b2565b60005b8381101561593657815481890152600182019150602081019050615917565b808801955050505b50505092915050565b600060ff82169050919050565b600061596761596283615661565b615947565b9050919050565b600061598161597c83615661565b6156c6565b9050919050565b60008160a01c9050919050565b600060ff82169050919050565b60006159b56159b083615988565b615995565b9050919050565b6000610140830160008084015490506159d48161570a565b6159e160008701826145af565b506001840185830360208701526159f883826158c7565b92505060028401549050615a0b81615954565b615a1860408701826146ae565b50600384018583036060870152615a2f83826158c7565b92505060048401549050615a428161596e565b615a4f608087018261474d565b5060058401549050615a608161596e565b615a6d60a087018261474d565b5060068401549050615a7e8161596e565b615a8b60c087018261474d565b50615a95816159a2565b615aa260e08701826148b4565b5060078401549050615ab38161570a565b615ac16101008701826145af565b5060088401858303610120870152615ad983826158c7565b925050819250505092915050565b60006020820190508181036000830152615b0181846159bc565b905092915050565b600060ff82169050919050565b6000615b29615b24836156b9565b615b09565b9050919050565b60008160101c9050919050565b600060ff82169050919050565b6000615b5d615b5883615b30565b615b3d565b9050919050565b60008160181c9050919050565b6000615b84615b7f83615b64565b6156c6565b9050919050565b600061016083016000808401549050615ba38161570a565b615bb060008701826145af565b50600184018583036020870152615bc783826158c7565b925050600284018583036040870152615be083826158c7565b92505060038401549050615bf381615954565b615c0060608701826146ae565b50615c0a81615b16565b615c1760808701826146f6565b50615c2181615b4a565b615c2e60a087018261473e565b50615c3881615b71565b615c4560c087018261474d565b5060048401549050615c568161596e565b615c6360e087018261474d565b5060058401549050615c748161596e565b615c8261010087018261474d565b5060068401549050615c938161570a565b615ca16101208701826145af565b5060078401858303610140870152615cb983826158c7565b925050819250505092915050565b60006020820190508181036000830152615ce18184615b8b565b905092915050565b7f4e487b7100000000000000000000000000000000000000000000000000000000600052603260045260246000fdfea26469706673582212209efc2d87d3f6484a383c17356148c58ce3aba5d0e67168ff946179ad90a44bab64736f6c634300080a0033",
  "immutableReferences": {},
  "source": "// SPDX-License-Identifier: MIT\r\npragma solidity >=0.8.0 <0.9.0;\r\n\r\nimport \"./UserChain.sol\";\r\n\r\ncontract ProjectChain is UserChain {\r\n\r\n    constructor() {}\r\n\r\n    modifier onlyUserProject() {\r\n        require(Roles(users[msg.sender]._role) == Roles.UserProject, \"You are not the right user.\");\r\n        _;\r\n    }\r\n\r\n    modifier onlyUserProjectAndCompany() {\r\n        require(\r\n            Roles(users[msg.sender]._role) == Roles.UserProject || Roles(users[msg.sender]._role) == Roles.Company,\r\n            \"You are not the right user.\"\r\n        );\r\n        _;\r\n    }\r\n\r\n\r\n    mapping(address => Project) public projects;\r\n    uint256 public projectsCounter = 0;\r\n    address[] public projectsAddress;\r\n\r\n    function createUniqueProjectAddress(string memory _name, uint256 _index)\r\n        public view onlyUserProject returns (address)\r\n    {\r\n        return address(uint160(uint256(keccak256(abi.encodePacked(_name, msg.sender, _index)))));\r\n    }\r\n\r\n    function createProject(\r\n        address _projectAddress,\r\n        string memory _name,\r\n        uint256 _status,\r\n        string memory _ipfsFileCID,\r\n        string memory _signature\r\n    ) public onlyUserProject {\r\n        projects[_projectAddress] = Project(\r\n            projectsCounter,\r\n            _name,\r\n            ProjectStatus(_status),\r\n            _ipfsFileCID,\r\n            _projectAddress,\r\n            msg.sender,\r\n            address(0x0),\r\n            false,\r\n            block.timestamp,\r\n            _signature\r\n        );\r\n\r\n        emit ProjectEvent(projects[_projectAddress], _projectAddress, address(0x0));\r\n        projectsAddress.push(_projectAddress);\r\n        projectsCounter++;\r\n    }\r\n\r\n    function updateProject(\r\n        address _projectAddress,\r\n        string memory _ipfsFileCID,\r\n        string memory _signature\r\n    ) public onlyUserProject {\r\n        projects[_projectAddress]._ipfsFileCID = _ipfsFileCID;\r\n        projects[_projectAddress]._signature = _signature;\r\n\r\n        emit ProjectEvent(projects[_projectAddress], _projectAddress, address(0x0));\r\n    }\r\n\r\n    function getProjectInfo(address _address)\r\n        public view returns (Project memory)\r\n    {\r\n        if (users[msg.sender]._walletAddress != msg.sender) {\r\n            revert(\"You are not the right user.\");\r\n        }\r\n        return projects[_address];\r\n    }\r\n\r\n    function getProjects()\r\n        public view onlyUserProjectAndCompany returns (Project[] memory)\r\n    {\r\n        Project[] memory allProjects;\r\n        if (projectsCounter == 0) return allProjects;\r\n\r\n        allProjects = new Project[](projectsCounter);\r\n        for (uint256 index = 0; index < projectsCounter; index++) {\r\n            address _projectAddress = projectsAddress[index];\r\n            Project storage project = projects[_projectAddress];\r\n            allProjects[index] = project;\r\n        }\r\n        return allProjects;\r\n    }\r\n\r\n\r\n    mapping(address => Request) public requests;\r\n    uint256 public requestsCounter = 0;\r\n    address[] public requestsAddress;\r\n\r\n    function createUniqueRequestAddress(string memory _title, uint256 _index)\r\n        public view returns (address)\r\n    {\r\n        require(users[msg.sender]._walletAddress == msg.sender, \"Address is not valid.\");\r\n        return address(uint160(uint256(keccak256(abi.encodePacked(_title, msg.sender, _index)))));\r\n    }\r\n\r\n    function createRequest(\r\n        string memory _title,\r\n        uint256 _projectStatus,\r\n        uint256 _requestStatus,\r\n        address _projectAddress,\r\n        address _requestAddress,\r\n        string memory _signature\r\n    ) public onlyUserProjectAndCompany {\r\n        RequestType _requestType = RequestType.SupervisorReq;\r\n        if (ProjectStatus(_projectStatus) == ProjectStatus.StartProject) {\r\n            _requestType = RequestType.CompanyReq;\r\n        }\r\n\r\n        requests[_requestAddress] = Request(\r\n            requestsCounter,\r\n            _title,\r\n            \"\",\r\n            ProjectStatus(_projectStatus),\r\n            RequestStatus(_requestStatus),\r\n            RequestType(_requestType),\r\n            _projectAddress,\r\n            _requestAddress,\r\n            msg.sender,\r\n            block.timestamp,\r\n            _signature\r\n        );\r\n\r\n        emit RequestEvent(requests[_requestAddress], _requestAddress, _projectAddress);\r\n        requestsAddress.push(_requestAddress);\r\n        requestsCounter++;\r\n    }\r\n\r\n    function updateSupervisorRequest(\r\n        string memory _comments,\r\n        uint256 _requestStatus,\r\n        uint256 _projectStatus,\r\n        address _projectAddress,\r\n        address _requestAddress,\r\n        string memory _signature\r\n    ) public {\r\n        require(Roles(users[msg.sender]._role) == Roles.Supervisor, \"You are not the right user.\");\r\n\r\n        // Update Requests Mapping and Struct Array\r\n        requests[_requestAddress]._comments = _comments;\r\n        requests[_requestAddress]._requestStatus = RequestStatus(_requestStatus);\r\n        requests[_requestAddress]._signature = _signature;\r\n        emit RequestEvent(requests[_requestAddress], _requestAddress, _projectAddress);\r\n\r\n        // Update Project Mapping and Struct Array\r\n        if (RequestStatus.Approved == RequestStatus(_requestStatus)) {\r\n            projects[_projectAddress]._status = ProjectStatus(_projectStatus);\r\n            emit ProjectEvent(projects[_projectAddress], _projectAddress, address(0x0));\r\n        }\r\n    }\r\n\r\n    function updateCompanyRequest(\r\n        string memory _comments,\r\n        uint256 _requestStatus,\r\n        uint256 _projectStatus,\r\n        address _projectAddress,\r\n        address _requestAddress,\r\n        string memory _signature\r\n    ) public {\r\n        require(Roles(users[msg.sender]._role) == Roles.Company, \"You are not the right user.\");\r\n\r\n        // Update Requests Mapping and Struct Array\r\n        requests[_requestAddress]._comments = _comments;\r\n        requests[_requestAddress]._requestStatus = RequestStatus(_requestStatus);\r\n        requests[_requestAddress]._signature = _signature;\r\n        emit RequestEvent(requests[_requestAddress], _requestAddress, _projectAddress);\r\n\r\n        // Update Project Mapping and Struct Array\r\n        if (RequestStatus.Approved == RequestStatus(_requestStatus)) {\r\n            projects[_projectAddress]._status = ProjectStatus(_projectStatus);\r\n            projects[_projectAddress]._companyAddress = msg.sender;\r\n            emit ProjectEvent(projects[_projectAddress], _projectAddress, msg.sender);\r\n        }\r\n    }\r\n\r\n    function getAllRequests() public view returns (Request[] memory) {\r\n        require(users[msg.sender]._walletAddress == msg.sender, \"Address is not valid.\");\r\n\r\n        Request[] memory allRequests = new Request[](requestsCounter);\r\n        for (uint256 index = 0; index < requestsCounter; index++) {\r\n            address _requestAddress = requestsAddress[index];\r\n            Request storage request = requests[_requestAddress];\r\n            allRequests[index] = request;\r\n        }\r\n        return allRequests;\r\n    }\r\n\r\n    function getLastProjectRequest(address _projectAddress, address _requestAddress) \r\n        public view onlyUserProjectAndCompany returns (Request memory)\r\n    {\r\n        Request memory request;\r\n        if (requestsCounter > 0) {\r\n            if (requests[_requestAddress]._projectAddress == _projectAddress) {\r\n                request = requests[_requestAddress];\r\n            }\r\n        }\r\n        return request;\r\n    }\r\n}\r\n",
  "sourcePath": "/mnt/c/Users/Beniamin/source/repos/DissertationProject/contracts/ProjectChain.sol",
  "compiler": {
    "name": "solc",
    "version": "0.8.10+commit.fc410830.Emscripten.clang"
  },
  "schemaVersion": "3.4.3",
  "updatedAt": "2021-12-18T07:46:13.326Z",
  "networkType": "ethereum",
  "devdoc": {
    "kind": "dev",
    "methods": {},
    "version": 1
  },
  "userdoc": {
    "kind": "user",
    "methods": {},
    "version": 1
  }
}