{
  "contractName": "Project",
  "abi": [
    {
      "inputs": [],
      "stateMutability": "nonpayable",
      "type": "constructor"
    },
    {
      "anonymous": false,
      "inputs": [
        {
          "indexed": false,
          "internalType": "string",
          "name": "_name",
          "type": "string"
        },
        {
          "indexed": false,
          "internalType": "string",
          "name": "_description",
          "type": "string"
        },
        {
          "indexed": false,
          "internalType": "enum Project.ProjectStatus",
          "name": "_status",
          "type": "uint8"
        }
      ],
      "name": "CreateProject",
      "type": "event"
    },
    {
      "anonymous": false,
      "inputs": [
        {
          "indexed": false,
          "internalType": "uint256",
          "name": "index",
          "type": "uint256"
        },
        {
          "indexed": true,
          "internalType": "enum Project.ProjectStatus",
          "name": "status",
          "type": "uint8"
        },
        {
          "indexed": true,
          "internalType": "address",
          "name": "projectAddress",
          "type": "address"
        }
      ],
      "name": "ProjectStatusChanged",
      "type": "event"
    },
    {
      "anonymous": false,
      "inputs": [
        {
          "indexed": false,
          "internalType": "uint256",
          "name": "_indexRequest",
          "type": "uint256"
        },
        {
          "indexed": false,
          "internalType": "enum Project.RequestStatus",
          "name": "_status",
          "type": "uint8"
        },
        {
          "components": [
            {
              "internalType": "uint256",
              "name": "index",
              "type": "uint256"
            },
            {
              "internalType": "string",
              "name": "name",
              "type": "string"
            },
            {
              "internalType": "string",
              "name": "description",
              "type": "string"
            },
            {
              "internalType": "enum Project.ProjectStatus",
              "name": "projectStatus",
              "type": "uint8"
            },
            {
              "internalType": "string",
              "name": "ipfsFileCID",
              "type": "string"
            }
          ],
          "indexed": false,
          "internalType": "struct Project.S_Project",
          "name": "_project",
          "type": "tuple"
        },
        {
          "indexed": false,
          "internalType": "enum Project.ProjectStatus",
          "name": "_projectStatus",
          "type": "uint8"
        },
        {
          "indexed": false,
          "internalType": "address",
          "name": "_subjectAddress",
          "type": "address"
        }
      ],
      "name": "UpdateCompanyRequestStatus",
      "type": "event"
    },
    {
      "anonymous": false,
      "inputs": [
        {
          "indexed": false,
          "internalType": "uint256",
          "name": "_indexRequest",
          "type": "uint256"
        },
        {
          "indexed": false,
          "internalType": "enum Project.RequestStatus",
          "name": "_status",
          "type": "uint8"
        },
        {
          "components": [
            {
              "internalType": "uint256",
              "name": "index",
              "type": "uint256"
            },
            {
              "internalType": "string",
              "name": "name",
              "type": "string"
            },
            {
              "internalType": "string",
              "name": "description",
              "type": "string"
            },
            {
              "internalType": "enum Project.ProjectStatus",
              "name": "projectStatus",
              "type": "uint8"
            },
            {
              "internalType": "string",
              "name": "ipfsFileCID",
              "type": "string"
            }
          ],
          "indexed": false,
          "internalType": "struct Project.S_Project",
          "name": "_project",
          "type": "tuple"
        },
        {
          "indexed": false,
          "internalType": "enum Project.ProjectStatus",
          "name": "_projectStatus",
          "type": "uint8"
        },
        {
          "indexed": false,
          "internalType": "address",
          "name": "_subjectAddress",
          "type": "address"
        }
      ],
      "name": "UpdateSupervisorRequestStatus",
      "type": "event"
    },
    {
      "anonymous": false,
      "inputs": [
        {
          "indexed": false,
          "internalType": "string",
          "name": "username",
          "type": "string"
        },
        {
          "indexed": false,
          "internalType": "string",
          "name": "firstname",
          "type": "string"
        },
        {
          "indexed": false,
          "internalType": "string",
          "name": "lastname",
          "type": "string"
        },
        {
          "indexed": false,
          "internalType": "string",
          "name": "email",
          "type": "string"
        },
        {
          "indexed": false,
          "internalType": "enum User.Roles",
          "name": "role",
          "type": "uint8"
        },
        {
          "indexed": false,
          "internalType": "address",
          "name": "walletAddress",
          "type": "address"
        }
      ],
      "name": "UserChanges",
      "type": "event"
    },
    {
      "anonymous": false,
      "inputs": [
        {
          "indexed": true,
          "internalType": "address",
          "name": "_walletAddress",
          "type": "address"
        },
        {
          "indexed": true,
          "internalType": "string",
          "name": "_username",
          "type": "string"
        },
        {
          "indexed": false,
          "internalType": "string",
          "name": "_email",
          "type": "string"
        },
        {
          "indexed": false,
          "internalType": "string",
          "name": "_firstname",
          "type": "string"
        },
        {
          "indexed": false,
          "internalType": "string",
          "name": "_lastname",
          "type": "string"
        },
        {
          "indexed": true,
          "internalType": "enum User.Roles",
          "name": "_role",
          "type": "uint8"
        }
      ],
      "name": "UserRegistered",
      "type": "event"
    },
    {
      "inputs": [
        {
          "internalType": "uint256",
          "name": "",
          "type": "uint256"
        }
      ],
      "name": "allProjects",
      "outputs": [
        {
          "internalType": "uint256",
          "name": "index",
          "type": "uint256"
        },
        {
          "internalType": "string",
          "name": "name",
          "type": "string"
        },
        {
          "internalType": "string",
          "name": "description",
          "type": "string"
        },
        {
          "internalType": "enum Project.ProjectStatus",
          "name": "projectStatus",
          "type": "uint8"
        },
        {
          "internalType": "string",
          "name": "ipfsFileCID",
          "type": "string"
        }
      ],
      "stateMutability": "view",
      "type": "function",
      "constant": true
    },
    {
      "inputs": [
        {
          "internalType": "uint256",
          "name": "",
          "type": "uint256"
        }
      ],
      "name": "allUsers",
      "outputs": [
        {
          "internalType": "string",
          "name": "username",
          "type": "string"
        },
        {
          "internalType": "string",
          "name": "email",
          "type": "string"
        },
        {
          "internalType": "string",
          "name": "firstname",
          "type": "string"
        },
        {
          "internalType": "string",
          "name": "lastname",
          "type": "string"
        },
        {
          "internalType": "enum User.Roles",
          "name": "role",
          "type": "uint8"
        },
        {
          "internalType": "address",
          "name": "walletAddress",
          "type": "address"
        }
      ],
      "stateMutability": "view",
      "type": "function",
      "constant": true
    },
    {
      "inputs": [
        {
          "internalType": "uint256",
          "name": "_role",
          "type": "uint256"
        },
        {
          "internalType": "address",
          "name": "_walletAddress",
          "type": "address"
        }
      ],
      "name": "changeUserRole",
      "outputs": [],
      "stateMutability": "nonpayable",
      "type": "function"
    },
    {
      "inputs": [
        {
          "internalType": "uint256",
          "name": "",
          "type": "uint256"
        }
      ],
      "name": "companyRequests",
      "outputs": [
        {
          "internalType": "uint256",
          "name": "index",
          "type": "uint256"
        },
        {
          "internalType": "string",
          "name": "description",
          "type": "string"
        },
        {
          "internalType": "enum Project.RequestStatus",
          "name": "status",
          "type": "uint8"
        },
        {
          "components": [
            {
              "internalType": "uint256",
              "name": "index",
              "type": "uint256"
            },
            {
              "internalType": "string",
              "name": "name",
              "type": "string"
            },
            {
              "internalType": "string",
              "name": "description",
              "type": "string"
            },
            {
              "internalType": "enum Project.ProjectStatus",
              "name": "projectStatus",
              "type": "uint8"
            },
            {
              "internalType": "string",
              "name": "ipfsFileCID",
              "type": "string"
            }
          ],
          "internalType": "struct Project.S_Project",
          "name": "project",
          "type": "tuple"
        },
        {
          "internalType": "address",
          "name": "subjectAddress",
          "type": "address"
        }
      ],
      "stateMutability": "view",
      "type": "function",
      "constant": true
    },
    {
      "inputs": [],
      "name": "getAllUsers",
      "outputs": [
        {
          "components": [
            {
              "internalType": "string",
              "name": "username",
              "type": "string"
            },
            {
              "internalType": "string",
              "name": "email",
              "type": "string"
            },
            {
              "internalType": "string",
              "name": "firstname",
              "type": "string"
            },
            {
              "internalType": "string",
              "name": "lastname",
              "type": "string"
            },
            {
              "internalType": "enum User.Roles",
              "name": "role",
              "type": "uint8"
            },
            {
              "internalType": "address",
              "name": "walletAddress",
              "type": "address"
            }
          ],
          "internalType": "struct User.S_UserData[]",
          "name": "",
          "type": "tuple[]"
        }
      ],
      "stateMutability": "view",
      "type": "function",
      "constant": true
    },
    {
      "inputs": [
        {
          "internalType": "address",
          "name": "_address",
          "type": "address"
        }
      ],
      "name": "getUserInfo",
      "outputs": [
        {
          "components": [
            {
              "internalType": "string",
              "name": "username",
              "type": "string"
            },
            {
              "internalType": "string",
              "name": "email",
              "type": "string"
            },
            {
              "internalType": "string",
              "name": "firstname",
              "type": "string"
            },
            {
              "internalType": "string",
              "name": "lastname",
              "type": "string"
            },
            {
              "internalType": "enum User.Roles",
              "name": "role",
              "type": "uint8"
            },
            {
              "internalType": "address",
              "name": "walletAddress",
              "type": "address"
            }
          ],
          "internalType": "struct User.S_UserData",
          "name": "",
          "type": "tuple"
        }
      ],
      "stateMutability": "view",
      "type": "function",
      "constant": true
    },
    {
      "inputs": [],
      "name": "owner",
      "outputs": [
        {
          "internalType": "address",
          "name": "",
          "type": "address"
        }
      ],
      "stateMutability": "view",
      "type": "function",
      "constant": true
    },
    {
      "inputs": [
        {
          "internalType": "uint256",
          "name": "",
          "type": "uint256"
        }
      ],
      "name": "projectIds",
      "outputs": [
        {
          "internalType": "uint256",
          "name": "",
          "type": "uint256"
        }
      ],
      "stateMutability": "view",
      "type": "function",
      "constant": true
    },
    {
      "inputs": [
        {
          "internalType": "uint256",
          "name": "",
          "type": "uint256"
        }
      ],
      "name": "projects",
      "outputs": [
        {
          "internalType": "uint256",
          "name": "index",
          "type": "uint256"
        },
        {
          "internalType": "string",
          "name": "name",
          "type": "string"
        },
        {
          "internalType": "string",
          "name": "description",
          "type": "string"
        },
        {
          "internalType": "enum Project.ProjectStatus",
          "name": "projectStatus",
          "type": "uint8"
        },
        {
          "internalType": "string",
          "name": "ipfsFileCID",
          "type": "string"
        }
      ],
      "stateMutability": "view",
      "type": "function",
      "constant": true
    },
    {
      "inputs": [],
      "name": "projectsCount",
      "outputs": [
        {
          "internalType": "uint256",
          "name": "",
          "type": "uint256"
        }
      ],
      "stateMutability": "view",
      "type": "function",
      "constant": true
    },
    {
      "inputs": [
        {
          "internalType": "uint256",
          "name": "",
          "type": "uint256"
        }
      ],
      "name": "projectsStatus",
      "outputs": [
        {
          "internalType": "uint256",
          "name": "_index",
          "type": "uint256"
        },
        {
          "internalType": "enum Project.ProjectStatus",
          "name": "_status",
          "type": "uint8"
        },
        {
          "internalType": "address",
          "name": "_address",
          "type": "address"
        }
      ],
      "stateMutability": "view",
      "type": "function",
      "constant": true
    },
    {
      "inputs": [
        {
          "internalType": "string",
          "name": "_username",
          "type": "string"
        },
        {
          "internalType": "string",
          "name": "_email",
          "type": "string"
        },
        {
          "internalType": "string",
          "name": "_firstname",
          "type": "string"
        },
        {
          "internalType": "string",
          "name": "_lastname",
          "type": "string"
        },
        {
          "internalType": "uint256",
          "name": "_role",
          "type": "uint256"
        },
        {
          "internalType": "address",
          "name": "_walletAddress",
          "type": "address"
        }
      ],
      "name": "registerUser",
      "outputs": [],
      "stateMutability": "nonpayable",
      "type": "function"
    },
    {
      "inputs": [],
      "name": "statusChangedIndex",
      "outputs": [
        {
          "internalType": "uint256",
          "name": "",
          "type": "uint256"
        }
      ],
      "stateMutability": "view",
      "type": "function",
      "constant": true
    },
    {
      "inputs": [
        {
          "internalType": "uint256",
          "name": "",
          "type": "uint256"
        }
      ],
      "name": "supervisorRequests",
      "outputs": [
        {
          "internalType": "uint256",
          "name": "index",
          "type": "uint256"
        },
        {
          "internalType": "string",
          "name": "description",
          "type": "string"
        },
        {
          "internalType": "enum Project.RequestStatus",
          "name": "status",
          "type": "uint8"
        },
        {
          "components": [
            {
              "internalType": "uint256",
              "name": "index",
              "type": "uint256"
            },
            {
              "internalType": "string",
              "name": "name",
              "type": "string"
            },
            {
              "internalType": "string",
              "name": "description",
              "type": "string"
            },
            {
              "internalType": "enum Project.ProjectStatus",
              "name": "projectStatus",
              "type": "uint8"
            },
            {
              "internalType": "string",
              "name": "ipfsFileCID",
              "type": "string"
            }
          ],
          "internalType": "struct Project.S_Project",
          "name": "project",
          "type": "tuple"
        },
        {
          "internalType": "address",
          "name": "subjectAddress",
          "type": "address"
        }
      ],
      "stateMutability": "view",
      "type": "function",
      "constant": true
    },
    {
      "inputs": [
        {
          "internalType": "address",
          "name": "",
          "type": "address"
        }
      ],
      "name": "userInfo",
      "outputs": [
        {
          "internalType": "string",
          "name": "username",
          "type": "string"
        },
        {
          "internalType": "string",
          "name": "email",
          "type": "string"
        },
        {
          "internalType": "string",
          "name": "firstname",
          "type": "string"
        },
        {
          "internalType": "string",
          "name": "lastname",
          "type": "string"
        },
        {
          "internalType": "enum User.Roles",
          "name": "role",
          "type": "uint8"
        },
        {
          "internalType": "address",
          "name": "walletAddress",
          "type": "address"
        }
      ],
      "stateMutability": "view",
      "type": "function",
      "constant": true
    },
    {
      "inputs": [],
      "name": "usersCount",
      "outputs": [
        {
          "internalType": "uint256",
          "name": "",
          "type": "uint256"
        }
      ],
      "stateMutability": "view",
      "type": "function",
      "constant": true
    },
    {
      "inputs": [
        {
          "internalType": "string",
          "name": "_name",
          "type": "string"
        },
        {
          "internalType": "string",
          "name": "_description",
          "type": "string"
        },
        {
          "internalType": "uint256",
          "name": "_status",
          "type": "uint256"
        },
        {
          "internalType": "string",
          "name": "_ipfsFileCID",
          "type": "string"
        }
      ],
      "name": "createProject",
      "outputs": [],
      "stateMutability": "nonpayable",
      "type": "function"
    },
    {
      "inputs": [
        {
          "internalType": "uint256",
          "name": "_index",
          "type": "uint256"
        }
      ],
      "name": "getProjectInfo",
      "outputs": [
        {
          "components": [
            {
              "internalType": "uint256",
              "name": "index",
              "type": "uint256"
            },
            {
              "internalType": "string",
              "name": "name",
              "type": "string"
            },
            {
              "internalType": "string",
              "name": "description",
              "type": "string"
            },
            {
              "internalType": "enum Project.ProjectStatus",
              "name": "projectStatus",
              "type": "uint8"
            },
            {
              "internalType": "string",
              "name": "ipfsFileCID",
              "type": "string"
            }
          ],
          "internalType": "struct Project.S_Project",
          "name": "",
          "type": "tuple"
        }
      ],
      "stateMutability": "view",
      "type": "function",
      "constant": true
    },
    {
      "inputs": [],
      "name": "getAllProjects",
      "outputs": [
        {
          "components": [
            {
              "internalType": "uint256",
              "name": "index",
              "type": "uint256"
            },
            {
              "internalType": "string",
              "name": "name",
              "type": "string"
            },
            {
              "internalType": "string",
              "name": "description",
              "type": "string"
            },
            {
              "internalType": "enum Project.ProjectStatus",
              "name": "projectStatus",
              "type": "uint8"
            },
            {
              "internalType": "string",
              "name": "ipfsFileCID",
              "type": "string"
            }
          ],
          "internalType": "struct Project.S_Project[]",
          "name": "",
          "type": "tuple[]"
        }
      ],
      "stateMutability": "view",
      "type": "function",
      "constant": true
    },
    {
      "inputs": [],
      "name": "getProjectIds",
      "outputs": [
        {
          "internalType": "uint256[]",
          "name": "",
          "type": "uint256[]"
        }
      ],
      "stateMutability": "view",
      "type": "function",
      "constant": true
    },
    {
      "inputs": [
        {
          "internalType": "string",
          "name": "_text",
          "type": "string"
        },
        {
          "internalType": "address",
          "name": "_addr",
          "type": "address"
        }
      ],
      "name": "createUniqueIdentifier",
      "outputs": [
        {
          "internalType": "bytes32",
          "name": "",
          "type": "bytes32"
        }
      ],
      "stateMutability": "pure",
      "type": "function",
      "constant": true
    },
    {
      "inputs": [
        {
          "internalType": "string",
          "name": "_text",
          "type": "string"
        },
        {
          "internalType": "address",
          "name": "_addr",
          "type": "address"
        }
      ],
      "name": "createUniqueHexAddress",
      "outputs": [
        {
          "internalType": "address",
          "name": "",
          "type": "address"
        }
      ],
      "stateMutability": "pure",
      "type": "function",
      "constant": true
    },
    {
      "inputs": [
        {
          "internalType": "uint256",
          "name": "_status",
          "type": "uint256"
        },
        {
          "internalType": "address",
          "name": "_address",
          "type": "address"
        }
      ],
      "name": "changeProjectStatus",
      "outputs": [],
      "stateMutability": "nonpayable",
      "type": "function"
    },
    {
      "inputs": [
        {
          "internalType": "string",
          "name": "_description",
          "type": "string"
        },
        {
          "components": [
            {
              "internalType": "uint256",
              "name": "index",
              "type": "uint256"
            },
            {
              "internalType": "string",
              "name": "name",
              "type": "string"
            },
            {
              "internalType": "string",
              "name": "description",
              "type": "string"
            },
            {
              "internalType": "enum Project.ProjectStatus",
              "name": "projectStatus",
              "type": "uint8"
            },
            {
              "internalType": "string",
              "name": "ipfsFileCID",
              "type": "string"
            }
          ],
          "internalType": "struct Project.S_Project",
          "name": "_project",
          "type": "tuple"
        },
        {
          "internalType": "address",
          "name": "_subjectAddress",
          "type": "address"
        }
      ],
      "name": "requestProjectApprovalFromSupervisor",
      "outputs": [],
      "stateMutability": "nonpayable",
      "type": "function"
    },
    {
      "inputs": [
        {
          "internalType": "string",
          "name": "_description",
          "type": "string"
        },
        {
          "components": [
            {
              "internalType": "uint256",
              "name": "index",
              "type": "uint256"
            },
            {
              "internalType": "string",
              "name": "name",
              "type": "string"
            },
            {
              "internalType": "string",
              "name": "description",
              "type": "string"
            },
            {
              "internalType": "enum Project.ProjectStatus",
              "name": "projectStatus",
              "type": "uint8"
            },
            {
              "internalType": "string",
              "name": "ipfsFileCID",
              "type": "string"
            }
          ],
          "internalType": "struct Project.S_Project",
          "name": "_project",
          "type": "tuple"
        },
        {
          "internalType": "address",
          "name": "_subjectAddress",
          "type": "address"
        }
      ],
      "name": "requestProjectCompleteFromSupervisor",
      "outputs": [],
      "stateMutability": "nonpayable",
      "type": "function"
    },
    {
      "inputs": [
        {
          "internalType": "string",
          "name": "_description",
          "type": "string"
        },
        {
          "components": [
            {
              "internalType": "uint256",
              "name": "index",
              "type": "uint256"
            },
            {
              "internalType": "string",
              "name": "name",
              "type": "string"
            },
            {
              "internalType": "string",
              "name": "description",
              "type": "string"
            },
            {
              "internalType": "enum Project.ProjectStatus",
              "name": "projectStatus",
              "type": "uint8"
            },
            {
              "internalType": "string",
              "name": "ipfsFileCID",
              "type": "string"
            }
          ],
          "internalType": "struct Project.S_Project",
          "name": "_project",
          "type": "tuple"
        },
        {
          "internalType": "address",
          "name": "_subjectAddress",
          "type": "address"
        }
      ],
      "name": "requestStartProjectToCompanyBuilder",
      "outputs": [],
      "stateMutability": "nonpayable",
      "type": "function"
    }
  ],
  "bytecode": "0x6080604052600060025560006004556000600a5534801561001f57600080fd5b5033600160006101000a81548173ffffffffffffffffffffffffffffffffffffffff021916908373ffffffffffffffffffffffffffffffffffffffff16021790555033600660006101000a81548173ffffffffffffffffffffffffffffffffffffffff021916908373ffffffffffffffffffffffffffffffffffffffff16021790555061472e806100b16000396000f3fe608060405234801561001057600080fd5b506004361061018e5760003560e01c80637748587f116100de578063953dcd2a11610097578063c73b302e11610071578063c73b302e146104e5578063d40d4a8014610503578063e2842d7914610537578063fabf5968146105555761018e565b8063953dcd2a14610462578063a2bdedf41461047e578063b42302a2146104b35761018e565b80637748587f1461039e57806380d03829146103ba5780638c86a1d7146103d85780638da5cb5b1461040c578063910097861461042a578063911c29a6146104465761018e565b806348c35ad41161014b5780636386c1c7116101255780636386c1c714610318578063644fa658146103485780636ba13a82146103645780636fe3d194146103825761018e565b806348c35ad41461028457806353b3194c146102b45780636132844f146102e85761018e565b8063107046bd1461019357806313b4078f146101c75780631959a002146101f75780631a6cee2f1461022c57806329a613b51461024a5780634657571414610268575b600080fd5b6101ad60048036038101906101a891906132d3565b610585565b6040516101be95949392919061341f565b60405180910390f35b6101e160048036038101906101dc919061361a565b610760565b6040516101ee9190613685565b60405180910390f35b610211600480360381019061020c91906136a0565b610796565b60405161022396959493929190613715565b60405180910390f35b610234610a1f565b6040516102419190613792565b60405180910390f35b610252610a25565b60405161025f919061386b565b60405180910390f35b610282600480360381019061027d919061388d565b610a7d565b005b61029e600480360381019061029991906132d3565b610d16565b6040516102ab9190613792565b60405180910390f35b6102ce60048036038101906102c991906132d3565b610d3a565b6040516102df95949392919061341f565b60405180910390f35b61030260048036038101906102fd919061361a565b610f25565b60405161030f9190613961565b60405180910390f35b610332600480360381019061032d91906136a0565b610f58565b60405161033f9190613a82565b60405180910390f35b610362600480360381019061035d9190613aa4565b611289565b005b61036c6113e2565b6040516103799190613792565b60405180910390f35b61039c60048036038101906103979190613bf3565b6113e8565b005b6103b860048036038101906103b39190613bf3565b6115f2565b005b6103c26117fc565b6040516103cf9190613dd3565b60405180910390f35b6103f260048036038101906103ed91906132d3565b611a56565b604051610403959493929190613ec1565b60405180910390f35b610414611d46565b6040516104219190613685565b60405180910390f35b610444600480360381019061043f9190613aa4565b611d6c565b005b610460600480360381019061045b9190613f22565b611ee8565b005b61047c60048036038101906104779190613bf3565b6123f7565b005b610498600480360381019061049391906132d3565b612601565b6040516104aa96959493929190613715565b60405180910390f35b6104cd60048036038101906104c891906132d3565b61289a565b6040516104dc9392919061401f565b60405180910390f35b6104ed6128f1565b6040516104fa9190613792565b60405180910390f35b61051d600480360381019061051891906132d3565b6128f7565b60405161052e959493929190613ec1565b60405180910390f35b61053f612be7565b60405161054c91906141b6565b60405180910390f35b61056f600480360381019061056a91906132d3565b612f1f565b60405161057c91906141d8565b60405180910390f35b60076020528060005260406000206000915090508060000154908060010180546105ae90614229565b80601f01602080910402602001604051908101604052809291908181526020018280546105da90614229565b80156106275780601f106105fc57610100808354040283529160200191610627565b820191906000526020600020905b81548152906001019060200180831161060a57829003601f168201915b50505050509080600201805461063c90614229565b80601f016020809104026020016040519081016040528092919081815260200182805461066890614229565b80156106b55780601f1061068a576101008083540402835291602001916106b5565b820191906000526020600020905b81548152906001019060200180831161069857829003601f168201915b5050505050908060030160009054906101000a900460ff16908060040180546106dd90614229565b80601f016020809104026020016040519081016040528092919081815260200182805461070990614229565b80156107565780601f1061072b57610100808354040283529160200191610756565b820191906000526020600020905b81548152906001019060200180831161073957829003601f168201915b5050505050905085565b600082826040516020016107759291906142df565b6040516020818303038152906040528051906020012060001c905092915050565b60006020528060005260406000206000915090508060000180546107b990614229565b80601f01602080910402602001604051908101604052809291908181526020018280546107e590614229565b80156108325780601f1061080757610100808354040283529160200191610832565b820191906000526020600020905b81548152906001019060200180831161081557829003601f168201915b50505050509080600101805461084790614229565b80601f016020809104026020016040519081016040528092919081815260200182805461087390614229565b80156108c05780601f10610895576101008083540402835291602001916108c0565b820191906000526020600020905b8154815290600101906020018083116108a357829003601f168201915b5050505050908060020180546108d590614229565b80601f016020809104026020016040519081016040528092919081815260200182805461090190614229565b801561094e5780601f106109235761010080835404028352916020019161094e565b820191906000526020600020905b81548152906001019060200180831161093157829003601f168201915b50505050509080600301805461096390614229565b80601f016020809104026020016040519081016040528092919081815260200182805461098f90614229565b80156109dc5780601f106109b1576101008083540402835291602001916109dc565b820191906000526020600020905b8154815290600101906020018083116109bf57829003601f168201915b5050505050908060040160009054906101000a900460ff16908060040160019054906101000a900473ffffffffffffffffffffffffffffffffffffffff16905086565b60045481565b6060600b805480602002602001604051908101604052809291908181526020018280548015610a7357602002820191906000526020600020905b815481526020019060010190808311610a5f575b5050505050905090565b600a5460076000600a548152602001908152602001600020600001819055508360076000600a5481526020019081526020016000206001019080519060200190610ac8929190613147565b508260076000600a5481526020019081526020016000206002019080519060200190610af5929190613147565b50816005811115610b0957610b086133a8565b5b60076000600a54815260200190815260200160002060030160006101000a81548160ff02191690836005811115610b4357610b426133a8565b5b02179055508060076000600a5481526020019081526020016000206004019080519060200190610b74929190613147565b507f274f009187cb91dd70ef9fd455c66e7263b5fc9746490cba15a3be400f580fa88484846005811115610bab57610baa6133a8565b5b604051610bba93929190614307565b60405180910390a1600b600a549080600181540180825580915050600190039060005260206000200160009091909190915055600c6040518060a00160405280600a548152602001868152602001858152602001846005811115610c2157610c206133a8565b5b6005811115610c3357610c326133a8565b5b8152602001838152509080600181540180825580915050600190039060005260206000209060050201600090919091909150600082015181600001556020820151816001019080519060200190610c8b929190613147565b506040820151816002019080519060200190610ca8929190613147565b5060608201518160030160006101000a81548160ff02191690836005811115610cd457610cd36133a8565b5b02179055506080820151816004019080519060200190610cf5929190613147565b505050600a6000815480929190610d0b9061437b565b919050555050505050565b600b8181548110610d2657600080fd5b906000526020600020016000915090505481565b600c8181548110610d4a57600080fd5b9060005260206000209060050201600091509050806000015490806001018054610d7390614229565b80601f0160208091040260200160405190810160405280929190818152602001828054610d9f90614229565b8015610dec5780601f10610dc157610100808354040283529160200191610dec565b820191906000526020600020905b815481529060010190602001808311610dcf57829003601f168201915b505050505090806002018054610e0190614229565b80601f0160208091040260200160405190810160405280929190818152602001828054610e2d90614229565b8015610e7a5780601f10610e4f57610100808354040283529160200191610e7a565b820191906000526020600020905b815481529060010190602001808311610e5d57829003601f168201915b5050505050908060030160009054906101000a900460ff1690806004018054610ea290614229565b80601f0160208091040260200160405190810160405280929190818152602001828054610ece90614229565b8015610f1b5780601f10610ef057610100808354040283529160200191610f1b565b820191906000526020600020905b815481529060010190602001808311610efe57829003601f168201915b5050505050905085565b60008282604051602001610f3a9291906142df565b60405160208183030381529060405280519060200120905092915050565b610f606131cd565b6000808373ffffffffffffffffffffffffffffffffffffffff1673ffffffffffffffffffffffffffffffffffffffff1681526020019081526020016000206040518060c0016040529081600082018054610fb990614229565b80601f0160208091040260200160405190810160405280929190818152602001828054610fe590614229565b80156110325780601f1061100757610100808354040283529160200191611032565b820191906000526020600020905b81548152906001019060200180831161101557829003601f168201915b5050505050815260200160018201805461104b90614229565b80601f016020809104026020016040519081016040528092919081815260200182805461107790614229565b80156110c45780601f10611099576101008083540402835291602001916110c4565b820191906000526020600020905b8154815290600101906020018083116110a757829003601f168201915b505050505081526020016002820180546110dd90614229565b80601f016020809104026020016040519081016040528092919081815260200182805461110990614229565b80156111565780601f1061112b57610100808354040283529160200191611156565b820191906000526020600020905b81548152906001019060200180831161113957829003601f168201915b5050505050815260200160038201805461116f90614229565b80601f016020809104026020016040519081016040528092919081815260200182805461119b90614229565b80156111e85780601f106111bd576101008083540402835291602001916111e8565b820191906000526020600020905b8154815290600101906020018083116111cb57829003601f168201915b505050505081526020016004820160009054906101000a900460ff166003811115611216576112156133a8565b5b6003811115611228576112276133a8565b5b81526020016004820160019054906101000a900473ffffffffffffffffffffffffffffffffffffffff1673ffffffffffffffffffffffffffffffffffffffff1673ffffffffffffffffffffffffffffffffffffffff16815250509050919050565b600454600560006004548152602001908152602001600020600001819055508160058111156112bb576112ba6133a8565b5b60056000600454815260200190815260200160002060010160006101000a81548160ff021916908360058111156112f5576112f46133a8565b5b02179055508060056000600454815260200190815260200160002060010160016101000a81548173ffffffffffffffffffffffffffffffffffffffff021916908373ffffffffffffffffffffffffffffffffffffffff1602179055508073ffffffffffffffffffffffffffffffffffffffff1682600581111561137b5761137a6133a8565b5b600581111561138d5761138c6133a8565b5b7f119b71e0e33421c153e29c9cf62d53667313969e57a1cffd506f579e87267d926004546040516113be9190613792565b60405180910390a3600460008154809291906113d99061437b565b91905055505050565b60025481565b600460058111156113fc576113fb6133a8565b5b82606001516005811115611413576114126133a8565b5b14611453576040517f08c379a000000000000000000000000000000000000000000000000000000000815260040161144a9061445c565b60405180910390fd5b600060096000600e548152602001908152602001600020905083816001019080519060200190611484929190613147565b5060008160020160006101000a81548160ff021916908360018111156114ad576114ac6133a8565b5b021790555082816003016000820151816000015560208201518160010190805190602001906114dd929190613147565b5060408201518160020190805190602001906114fa929190613147565b5060608201518160030160006101000a81548160ff02191690836005811115611526576115256133a8565b5b02179055506080820151816004019080519060200190611547929190613147565b50905050818160080160006101000a81548173ffffffffffffffffffffffffffffffffffffffff021916908373ffffffffffffffffffffffffffffffffffffffff1602179055507fc0a7086e05590c8d9160aba8dc6a29b754eda15e93d2a2578429bc2fda6bdec3600e546000858660600151866040516115cc95949392919061447c565b60405180910390a1600e60008154809291906115e79061437b565b919050555050505050565b60006005811115611606576116056133a8565b5b8260600151600581111561161d5761161c6133a8565b5b1461165d576040517f08c379a000000000000000000000000000000000000000000000000000000000815260040161165490614548565b60405180910390fd5b600060096000600e54815260200190815260200160002090508381600101908051906020019061168e929190613147565b5060008160020160006101000a81548160ff021916908360018111156116b7576116b66133a8565b5b021790555082816003016000820151816000015560208201518160010190805190602001906116e7929190613147565b506040820151816002019080519060200190611704929190613147565b5060608201518160030160006101000a81548160ff021916908360058111156117305761172f6133a8565b5b02179055506080820151816004019080519060200190611751929190613147565b50905050818160080160006101000a81548173ffffffffffffffffffffffffffffffffffffffff021916908373ffffffffffffffffffffffffffffffffffffffff1602179055507fc0a7086e05590c8d9160aba8dc6a29b754eda15e93d2a2578429bc2fda6bdec3600e546000858660600151866040516117d695949392919061447c565b60405180910390a1600e60008154809291906117f19061437b565b919050555050505050565b6060600c805480602002602001604051908101604052809291908181526020016000905b82821015611a4d57838290600052602060002090600502016040518060a00160405290816000820154815260200160018201805461185d90614229565b80601f016020809104026020016040519081016040528092919081815260200182805461188990614229565b80156118d65780601f106118ab576101008083540402835291602001916118d6565b820191906000526020600020905b8154815290600101906020018083116118b957829003601f168201915b505050505081526020016002820180546118ef90614229565b80601f016020809104026020016040519081016040528092919081815260200182805461191b90614229565b80156119685780601f1061193d57610100808354040283529160200191611968565b820191906000526020600020905b81548152906001019060200180831161194b57829003601f168201915b505050505081526020016003820160009054906101000a900460ff166005811115611996576119956133a8565b5b60058111156119a8576119a76133a8565b5b81526020016004820180546119bc90614229565b80601f01602080910402602001604051908101604052809291908181526020018280546119e890614229565b8015611a355780601f10611a0a57610100808354040283529160200191611a35565b820191906000526020600020905b815481529060010190602001808311611a1857829003601f168201915b50505050508152505081526020019060010190611820565b50505050905090565b6009602052806000526040600020600091509050806000015490806001018054611a7f90614229565b80601f0160208091040260200160405190810160405280929190818152602001828054611aab90614229565b8015611af85780601f10611acd57610100808354040283529160200191611af8565b820191906000526020600020905b815481529060010190602001808311611adb57829003601f168201915b5050505050908060020160009054906101000a900460ff1690806003016040518060a001604052908160008201548152602001600182018054611b3a90614229565b80601f0160208091040260200160405190810160405280929190818152602001828054611b6690614229565b8015611bb35780601f10611b8857610100808354040283529160200191611bb3565b820191906000526020600020905b815481529060010190602001808311611b9657829003601f168201915b50505050508152602001600282018054611bcc90614229565b80601f0160208091040260200160405190810160405280929190818152602001828054611bf890614229565b8015611c455780601f10611c1a57610100808354040283529160200191611c45565b820191906000526020600020905b815481529060010190602001808311611c2857829003601f168201915b505050505081526020016003820160009054906101000a900460ff166005811115611c7357611c726133a8565b5b6005811115611c8557611c846133a8565b5b8152602001600482018054611c9990614229565b80601f0160208091040260200160405190810160405280929190818152602001828054611cc590614229565b8015611d125780601f10611ce757610100808354040283529160200191611d12565b820191906000526020600020905b815481529060010190602001808311611cf557829003601f168201915b505050505081525050908060080160009054906101000a900473ffffffffffffffffffffffffffffffffffffffff16905085565b600160009054906101000a900473ffffffffffffffffffffffffffffffffffffffff1681565b816003811115611d7f57611d7e6133a8565b5b6000808373ffffffffffffffffffffffffffffffffffffffff1673ffffffffffffffffffffffffffffffffffffffff16815260200190815260200160002060040160006101000a81548160ff02191690836003811115611de257611de16133a8565b5b021790555060005b600380549050811015611ee3578173ffffffffffffffffffffffffffffffffffffffff1660038281548110611e2257611e21614568565b5b906000526020600020906005020160040160019054906101000a900473ffffffffffffffffffffffffffffffffffffffff1673ffffffffffffffffffffffffffffffffffffffff161415611ed057826003811115611e8357611e826133a8565b5b60038281548110611e9757611e96614568565b5b906000526020600020906005020160040160006101000a81548160ff02191690836003811115611eca57611ec96133a8565b5b02179055505b8080611edb9061437b565b915050611dea565b505050565b3373ffffffffffffffffffffffffffffffffffffffff16600160009054906101000a900473ffffffffffffffffffffffffffffffffffffffff1673ffffffffffffffffffffffffffffffffffffffff1614611f78576040517f08c379a0000000000000000000000000000000000000000000000000000000008152600401611f6f906145e3565b60405180910390fd5b856000808373ffffffffffffffffffffffffffffffffffffffff1673ffffffffffffffffffffffffffffffffffffffff1681526020019081526020016000206000019080519060200190611fcd929190613147565b50846000808373ffffffffffffffffffffffffffffffffffffffff1673ffffffffffffffffffffffffffffffffffffffff1681526020019081526020016000206001019080519060200190612023929190613147565b50836000808373ffffffffffffffffffffffffffffffffffffffff1673ffffffffffffffffffffffffffffffffffffffff1681526020019081526020016000206002019080519060200190612079929190613147565b50826000808373ffffffffffffffffffffffffffffffffffffffff1673ffffffffffffffffffffffffffffffffffffffff16815260200190815260200160002060030190805190602001906120cf929190613147565b508160038111156120e3576120e26133a8565b5b6000808373ffffffffffffffffffffffffffffffffffffffff1673ffffffffffffffffffffffffffffffffffffffff16815260200190815260200160002060040160006101000a81548160ff02191690836003811115612146576121456133a8565b5b0217905550806000808373ffffffffffffffffffffffffffffffffffffffff1673ffffffffffffffffffffffffffffffffffffffff16815260200190815260200160002060040160016101000a81548173ffffffffffffffffffffffffffffffffffffffff021916908373ffffffffffffffffffffffffffffffffffffffff1602179055508160038111156121de576121dd6133a8565b5b60038111156121f0576121ef6133a8565b5b866040516121fe9190614603565b60405180910390208273ffffffffffffffffffffffffffffffffffffffff167fddb5d1667467713eb503e7e133811c91a231cb6b63f11930889c6004f36c35ee8888886040516122509392919061461a565b60405180910390a460036040518060c001604052808881526020018781526020018681526020018581526020018460038111156122905761228f6133a8565b5b60038111156122a2576122a16133a8565b5b81526020018373ffffffffffffffffffffffffffffffffffffffff1681525090806001815401808255809150506001900390600052602060002090600502016000909190919091506000820151816000019080519060200190612306929190613147565b506020820151816001019080519060200190612323929190613147565b506040820151816002019080519060200190612340929190613147565b50606082015181600301908051906020019061235d929190613147565b5060808201518160040160006101000a81548160ff02191690836003811115612389576123886133a8565b5b021790555060a08201518160040160016101000a81548173ffffffffffffffffffffffffffffffffffffffff021916908373ffffffffffffffffffffffffffffffffffffffff1602179055505050600260008154809291906123ea9061437b565b9190505550505050505050565b6001600581111561240b5761240a6133a8565b5b82606001516005811115612422576124216133a8565b5b14612462576040517f08c379a0000000000000000000000000000000000000000000000000000000008152600401612459906146d8565b60405180910390fd5b600060086000600d548152602001908152602001600020905083816001019080519060200190612493929190613147565b5060008160020160006101000a81548160ff021916908360018111156124bc576124bb6133a8565b5b021790555082816003016000820151816000015560208201518160010190805190602001906124ec929190613147565b506040820151816002019080519060200190612509929190613147565b5060608201518160030160006101000a81548160ff02191690836005811115612535576125346133a8565b5b02179055506080820151816004019080519060200190612556929190613147565b50905050818160080160006101000a81548173ffffffffffffffffffffffffffffffffffffffff021916908373ffffffffffffffffffffffffffffffffffffffff1602179055507f56cef5b605de75dde94390e0903b843a7c7203544ad094da5db5ecdafb897cb8600d546000858660600151866040516125db95949392919061447c565b60405180910390a1600d60008154809291906125f69061437b565b919050555050505050565b6003818154811061261157600080fd5b906000526020600020906005020160009150905080600001805461263490614229565b80601f016020809104026020016040519081016040528092919081815260200182805461266090614229565b80156126ad5780601f10612682576101008083540402835291602001916126ad565b820191906000526020600020905b81548152906001019060200180831161269057829003601f168201915b5050505050908060010180546126c290614229565b80601f01602080910402602001604051908101604052809291908181526020018280546126ee90614229565b801561273b5780601f106127105761010080835404028352916020019161273b565b820191906000526020600020905b81548152906001019060200180831161271e57829003601f168201915b50505050509080600201805461275090614229565b80601f016020809104026020016040519081016040528092919081815260200182805461277c90614229565b80156127c95780601f1061279e576101008083540402835291602001916127c9565b820191906000526020600020905b8154815290600101906020018083116127ac57829003601f168201915b5050505050908060030180546127de90614229565b80601f016020809104026020016040519081016040528092919081815260200182805461280a90614229565b80156128575780601f1061282c57610100808354040283529160200191612857565b820191906000526020600020905b81548152906001019060200180831161283a57829003601f168201915b5050505050908060040160009054906101000a900460ff16908060040160019054906101000a900473ffffffffffffffffffffffffffffffffffffffff16905086565b60056020528060005260406000206000915090508060000154908060010160009054906101000a900460ff16908060010160019054906101000a900473ffffffffffffffffffffffffffffffffffffffff16905083565b600a5481565b600860205280600052604060002060009150905080600001549080600101805461292090614229565b80601f016020809104026020016040519081016040528092919081815260200182805461294c90614229565b80156129995780601f1061296e57610100808354040283529160200191612999565b820191906000526020600020905b81548152906001019060200180831161297c57829003601f168201915b5050505050908060020160009054906101000a900460ff1690806003016040518060a0016040529081600082015481526020016001820180546129db90614229565b80601f0160208091040260200160405190810160405280929190818152602001828054612a0790614229565b8015612a545780601f10612a2957610100808354040283529160200191612a54565b820191906000526020600020905b815481529060010190602001808311612a3757829003601f168201915b50505050508152602001600282018054612a6d90614229565b80601f0160208091040260200160405190810160405280929190818152602001828054612a9990614229565b8015612ae65780601f10612abb57610100808354040283529160200191612ae6565b820191906000526020600020905b815481529060010190602001808311612ac957829003601f168201915b505050505081526020016003820160009054906101000a900460ff166005811115612b1457612b136133a8565b5b6005811115612b2657612b256133a8565b5b8152602001600482018054612b3a90614229565b80601f0160208091040260200160405190810160405280929190818152602001828054612b6690614229565b8015612bb35780601f10612b8857610100808354040283529160200191612bb3565b820191906000526020600020905b815481529060010190602001808311612b9657829003601f168201915b505050505081525050908060080160009054906101000a900473ffffffffffffffffffffffffffffffffffffffff16905085565b60606003805480602002602001604051908101604052809291908181526020016000905b82821015612f1657838290600052602060002090600502016040518060c0016040529081600082018054612c3e90614229565b80601f0160208091040260200160405190810160405280929190818152602001828054612c6a90614229565b8015612cb75780601f10612c8c57610100808354040283529160200191612cb7565b820191906000526020600020905b815481529060010190602001808311612c9a57829003601f168201915b50505050508152602001600182018054612cd090614229565b80601f0160208091040260200160405190810160405280929190818152602001828054612cfc90614229565b8015612d495780601f10612d1e57610100808354040283529160200191612d49565b820191906000526020600020905b815481529060010190602001808311612d2c57829003601f168201915b50505050508152602001600282018054612d6290614229565b80601f0160208091040260200160405190810160405280929190818152602001828054612d8e90614229565b8015612ddb5780601f10612db057610100808354040283529160200191612ddb565b820191906000526020600020905b815481529060010190602001808311612dbe57829003601f168201915b50505050508152602001600382018054612df490614229565b80601f0160208091040260200160405190810160405280929190818152602001828054612e2090614229565b8015612e6d5780601f10612e4257610100808354040283529160200191612e6d565b820191906000526020600020905b815481529060010190602001808311612e5057829003601f168201915b505050505081526020016004820160009054906101000a900460ff166003811115612e9b57612e9a6133a8565b5b6003811115612ead57612eac6133a8565b5b81526020016004820160019054906101000a900473ffffffffffffffffffffffffffffffffffffffff1673ffffffffffffffffffffffffffffffffffffffff1673ffffffffffffffffffffffffffffffffffffffff168152505081526020019060010190612c0b565b50505050905090565b612f2761322b565b600760008381526020019081526020016000206040518060a001604052908160008201548152602001600182018054612f5f90614229565b80601f0160208091040260200160405190810160405280929190818152602001828054612f8b90614229565b8015612fd85780601f10612fad57610100808354040283529160200191612fd8565b820191906000526020600020905b815481529060010190602001808311612fbb57829003601f168201915b50505050508152602001600282018054612ff190614229565b80601f016020809104026020016040519081016040528092919081815260200182805461301d90614229565b801561306a5780601f1061303f5761010080835404028352916020019161306a565b820191906000526020600020905b81548152906001019060200180831161304d57829003601f168201915b505050505081526020016003820160009054906101000a900460ff166005811115613098576130976133a8565b5b60058111156130aa576130a96133a8565b5b81526020016004820180546130be90614229565b80601f01602080910402602001604051908101604052809291908181526020018280546130ea90614229565b80156131375780601f1061310c57610100808354040283529160200191613137565b820191906000526020600020905b81548152906001019060200180831161311a57829003601f168201915b5050505050815250509050919050565b82805461315390614229565b90600052602060002090601f01602090048101928261317557600085556131bc565b82601f1061318e57805160ff19168380011785556131bc565b828001600101855582156131bc579182015b828111156131bb5782518255916020019190600101906131a0565b5b5090506131c9919061326c565b5090565b6040518060c001604052806060815260200160608152602001606081526020016060815260200160006003811115613208576132076133a8565b5b8152602001600073ffffffffffffffffffffffffffffffffffffffff1681525090565b6040518060a001604052806000815260200160608152602001606081526020016000600581111561325f5761325e6133a8565b5b8152602001606081525090565b5b8082111561328557600081600090555060010161326d565b5090565b6000604051905090565b600080fd5b600080fd5b6000819050919050565b6132b08161329d565b81146132bb57600080fd5b50565b6000813590506132cd816132a7565b92915050565b6000602082840312156132e9576132e8613293565b5b60006132f7848285016132be565b91505092915050565b6133098161329d565b82525050565b600081519050919050565b600082825260208201905092915050565b60005b8381101561334957808201518184015260208101905061332e565b83811115613358576000848401525b50505050565b6000601f19601f8301169050919050565b600061337a8261330f565b613384818561331a565b935061339481856020860161332b565b61339d8161335e565b840191505092915050565b7f4e487b7100000000000000000000000000000000000000000000000000000000600052602160045260246000fd5b600681106133e8576133e76133a8565b5b50565b60008190506133f9826133d7565b919050565b6000613409826133eb565b9050919050565b613419816133fe565b82525050565b600060a0820190506134346000830188613300565b8181036020830152613446818761336f565b9050818103604083015261345a818661336f565b90506134696060830185613410565b818103608083015261347b818461336f565b90509695505050505050565b600080fd5b600080fd5b7f4e487b7100000000000000000000000000000000000000000000000000000000600052604160045260246000fd5b6134c98261335e565b810181811067ffffffffffffffff821117156134e8576134e7613491565b5b80604052505050565b60006134fb613289565b905061350782826134c0565b919050565b600067ffffffffffffffff82111561352757613526613491565b5b6135308261335e565b9050602081019050919050565b82818337600083830152505050565b600061355f61355a8461350c565b6134f1565b90508281526020810184848401111561357b5761357a61348c565b5b61358684828561353d565b509392505050565b600082601f8301126135a3576135a2613487565b5b81356135b384826020860161354c565b91505092915050565b600073ffffffffffffffffffffffffffffffffffffffff82169050919050565b60006135e7826135bc565b9050919050565b6135f7816135dc565b811461360257600080fd5b50565b600081359050613614816135ee565b92915050565b6000806040838503121561363157613630613293565b5b600083013567ffffffffffffffff81111561364f5761364e613298565b5b61365b8582860161358e565b925050602061366c85828601613605565b9150509250929050565b61367f816135dc565b82525050565b600060208201905061369a6000830184613676565b92915050565b6000602082840312156136b6576136b5613293565b5b60006136c484828501613605565b91505092915050565b600481106136de576136dd6133a8565b5b50565b60008190506136ef826136cd565b919050565b60006136ff826136e1565b9050919050565b61370f816136f4565b82525050565b600060c082019050818103600083015261372f818961336f565b90508181036020830152613743818861336f565b90508181036040830152613757818761336f565b9050818103606083015261376b818661336f565b905061377a6080830185613706565b61378760a0830184613676565b979650505050505050565b60006020820190506137a76000830184613300565b92915050565b600081519050919050565b600082825260208201905092915050565b6000819050602082019050919050565b6137e28161329d565b82525050565b60006137f483836137d9565b60208301905092915050565b6000602082019050919050565b6000613818826137ad565b61382281856137b8565b935061382d836137c9565b8060005b8381101561385e57815161384588826137e8565b975061385083613800565b925050600181019050613831565b5085935050505092915050565b60006020820190508181036000830152613885818461380d565b905092915050565b600080600080608085870312156138a7576138a6613293565b5b600085013567ffffffffffffffff8111156138c5576138c4613298565b5b6138d18782880161358e565b945050602085013567ffffffffffffffff8111156138f2576138f1613298565b5b6138fe8782880161358e565b935050604061390f878288016132be565b925050606085013567ffffffffffffffff8111156139305761392f613298565b5b61393c8782880161358e565b91505092959194509250565b6000819050919050565b61395b81613948565b82525050565b60006020820190506139766000830184613952565b92915050565b600082825260208201905092915050565b60006139988261330f565b6139a2818561397c565b93506139b281856020860161332b565b6139bb8161335e565b840191505092915050565b6139cf816136f4565b82525050565b6139de816135dc565b82525050565b600060c0830160008301518482036000860152613a01828261398d565b91505060208301518482036020860152613a1b828261398d565b91505060408301518482036040860152613a35828261398d565b91505060608301518482036060860152613a4f828261398d565b9150506080830151613a6460808601826139c6565b5060a0830151613a7760a08601826139d5565b508091505092915050565b60006020820190508181036000830152613a9c81846139e4565b905092915050565b60008060408385031215613abb57613aba613293565b5b6000613ac9858286016132be565b9250506020613ada85828601613605565b9150509250929050565b600080fd5b600080fd5b60068110613afb57600080fd5b50565b600081359050613b0d81613aee565b92915050565b600060a08284031215613b2957613b28613ae4565b5b613b3360a06134f1565b90506000613b43848285016132be565b600083015250602082013567ffffffffffffffff811115613b6757613b66613ae9565b5b613b738482850161358e565b602083015250604082013567ffffffffffffffff811115613b9757613b96613ae9565b5b613ba38482850161358e565b6040830152506060613bb784828501613afe565b606083015250608082013567ffffffffffffffff811115613bdb57613bda613ae9565b5b613be78482850161358e565b60808301525092915050565b600080600060608486031215613c0c57613c0b613293565b5b600084013567ffffffffffffffff811115613c2a57613c29613298565b5b613c368682870161358e565b935050602084013567ffffffffffffffff811115613c5757613c56613298565b5b613c6386828701613b13565b9250506040613c7486828701613605565b9150509250925092565b600081519050919050565b600082825260208201905092915050565b6000819050602082019050919050565b613cb3816133fe565b82525050565b600060a083016000830151613cd160008601826137d9565b5060208301518482036020860152613ce9828261398d565b91505060408301518482036040860152613d03828261398d565b9150506060830151613d186060860182613caa565b5060808301518482036080860152613d30828261398d565b9150508091505092915050565b6000613d498383613cb9565b905092915050565b6000602082019050919050565b6000613d6982613c7e565b613d738185613c89565b935083602082028501613d8585613c9a565b8060005b85811015613dc15784840389528151613da28582613d3d565b9450613dad83613d51565b925060208a01995050600181019050613d89565b50829750879550505050505092915050565b60006020820190508181036000830152613ded8184613d5e565b905092915050565b60028110613e0657613e056133a8565b5b50565b6000819050613e1782613df5565b919050565b6000613e2782613e09565b9050919050565b613e3781613e1c565b82525050565b600060a083016000830151613e5560008601826137d9565b5060208301518482036020860152613e6d828261398d565b91505060408301518482036040860152613e87828261398d565b9150506060830151613e9c6060860182613caa565b5060808301518482036080860152613eb4828261398d565b9150508091505092915050565b600060a082019050613ed66000830188613300565b8181036020830152613ee8818761336f565b9050613ef76040830186613e2e565b8181036060830152613f098185613e3d565b9050613f186080830184613676565b9695505050505050565b60008060008060008060c08789031215613f3f57613f3e613293565b5b600087013567ffffffffffffffff811115613f5d57613f5c613298565b5b613f6989828a0161358e565b965050602087013567ffffffffffffffff811115613f8a57613f89613298565b5b613f9689828a0161358e565b955050604087013567ffffffffffffffff811115613fb757613fb6613298565b5b613fc389828a0161358e565b945050606087013567ffffffffffffffff811115613fe457613fe3613298565b5b613ff089828a0161358e565b935050608061400189828a016132be565b92505060a061401289828a01613605565b9150509295509295509295565b60006060820190506140346000830186613300565b6140416020830185613410565b61404e6040830184613676565b949350505050565b600081519050919050565b600082825260208201905092915050565b6000819050602082019050919050565b600060c083016000830151848203600086015261409f828261398d565b915050602083015184820360208601526140b9828261398d565b915050604083015184820360408601526140d3828261398d565b915050606083015184820360608601526140ed828261398d565b915050608083015161410260808601826139c6565b5060a083015161411560a08601826139d5565b508091505092915050565b600061412c8383614082565b905092915050565b6000602082019050919050565b600061414c82614056565b6141568185614061565b93508360208202850161416885614072565b8060005b858110156141a457848403895281516141858582614120565b945061419083614134565b925060208a0199505060018101905061416c565b50829750879550505050505092915050565b600060208201905081810360008301526141d08184614141565b905092915050565b600060208201905081810360008301526141f28184613e3d565b905092915050565b7f4e487b7100000000000000000000000000000000000000000000000000000000600052602260045260246000fd5b6000600282049050600182168061424157607f821691505b60208210811415614255576142546141fa565b5b50919050565b600081905092915050565b60006142718261330f565b61427b818561425b565b935061428b81856020860161332b565b80840191505092915050565b60008160601b9050919050565b60006142af82614297565b9050919050565b60006142c1826142a4565b9050919050565b6142d96142d4826135dc565b6142b6565b82525050565b60006142eb8285614266565b91506142f782846142c8565b6014820191508190509392505050565b60006060820190508181036000830152614321818661336f565b90508181036020830152614335818561336f565b90506143446040830184613410565b949350505050565b7f4e487b7100000000000000000000000000000000000000000000000000000000600052601160045260246000fd5b60006143868261329d565b91507fffffffffffffffffffffffffffffffffffffffffffffffffffffffffffffffff8214156143b9576143b861434c565b5b600182019050919050565b7f5468652070726f6a656374206973206e6f7420696e2074686520274265666f7260008201527f6546696e616c697a6174696f6e436865636b27207374617475732c207468652060208201527f6f7065726174696f6e2063616e6e6f7420626520646f6e652e00000000000000604082015250565b600061444660598361331a565b9150614451826143c4565b606082019050919050565b6000602082019050818103600083015261447581614439565b9050919050565b600060a0820190506144916000830188613300565b61449e6020830187613e2e565b81810360408301526144b08186613e3d565b90506144bf6060830185613410565b6144cc6080830184613676565b9695505050505050565b7f5468652070726f6a656374206973206e6f7420637265617465642c207468652060008201527f6f7065726174696f6e2063616e6e6f7420626520646f6e652e00000000000000602082015250565b600061453260398361331a565b915061453d826144d6565b604082019050919050565b6000602082019050818103600083015261456181614525565b9050919050565b7f4e487b7100000000000000000000000000000000000000000000000000000000600052603260045260246000fd5b7f596f7520617265206e6f7420616e206f776e6572000000000000000000000000600082015250565b60006145cd60148361331a565b91506145d882614597565b602082019050919050565b600060208201905081810360008301526145fc816145c0565b9050919050565b600061460f8284614266565b915081905092915050565b60006060820190508181036000830152614634818661336f565b90508181036020830152614648818561336f565b9050818103604083015261465c818461336f565b9050949350505050565b7f5468652070726f6a656374206973206e6f7420617070726f7665642c2074686560008201527f206f7065726174696f6e2063616e6e6f7420626520646f6e652e000000000000602082015250565b60006146c2603a8361331a565b91506146cd82614666565b604082019050919050565b600060208201905081810360008301526146f1816146b5565b905091905056fea264697066735822122041bd9879880a98e2ae7562ff207e4767ad77206c6322fbd8cb5a2123a70d6c9764736f6c634300080a0033",
  "immutableReferences": {},
  "source": "// SPDX-License-Identifier: MIT\r\npragma solidity >=0.8.0 <0.9.0;\r\n\r\nimport \"./User.sol\";\r\n\r\ncontract Project is User {\r\n\r\n    uint256 public statusChangedIndex = 0;\r\n    struct S_ProjectStatusChanged {\r\n        uint256 _index;\r\n        ProjectStatus _status;\r\n        address _address;\r\n    }\r\n    mapping(uint256 => S_ProjectStatusChanged) public projectsStatus;\r\n    event ProjectStatusChanged(uint256 index, ProjectStatus indexed status, address indexed projectAddress);\r\n\r\n\r\n\r\n    address projectInitiator;\r\n\r\n    mapping(uint => S_Project) public projects;\r\n    mapping(uint => S_Request) public companyRequests;\r\n    mapping(uint => S_Request) public supervisorRequests;\r\n\r\n    uint public projectsCount = 0;\r\n    uint[] public projectIds;\r\n    S_Project[] public allProjects;\r\n\r\n    uint indexCompanyRequest;\r\n    uint indexSupervisorRequest;\r\n\r\n    struct S_Project {\r\n        uint index;\r\n        string name;\r\n        string description;\r\n        ProjectStatus projectStatus;\r\n        string ipfsFileCID;\r\n    }\r\n\r\n    struct S_Request {\r\n        uint index;\r\n        string description;\r\n        RequestStatus status;\r\n        S_Project project;\r\n        address subjectAddress;\r\n    }\r\n\r\n    enum RequestStatus { Unverified, Verified }\r\n    enum ProjectStatus { Created, Approved, Rejected, OnGoing, BeforeFinalizationCheck, Completed }\r\n\r\n    //event CreateProject(uint _indexProject, Project.ProjectStatus _projectStatus, address _address);\r\n    event CreateProject(string _name, string _description, ProjectStatus _status);\r\n\r\n    event UpdateSupervisorRequestStatus(uint _indexRequest, RequestStatus _status, S_Project _project, ProjectStatus _projectStatus, address _subjectAddress);\r\n    event UpdateCompanyRequestStatus(uint _indexRequest, RequestStatus _status, S_Project _project, ProjectStatus _projectStatus, address _subjectAddress);\r\n\r\n    constructor() {\r\n        projectInitiator = msg.sender;\r\n    }\r\n\r\n    modifier onlyProjectInitiator {\r\n        require(userInfo[projectInitiator].role == Roles.ProjectInitiator, \"You don't have the rights for this resources.\");\r\n        require(projectInitiator == msg.sender, \"You are not a project initiator\");\r\n        _;\r\n    }\r\n\r\n    function createProject(string memory _name, string memory _description, uint _status, string memory _ipfsFileCID) public  {\r\n        //bytes32 _identifier = createUniqueIdentifier(_hashStringValue, msg.sender);\r\n\r\n        projects[projectsCount].index = projectsCount;\r\n        //projects[projectsCount].identifier = _identifier;\r\n        projects[projectsCount].name = _name;\r\n        projects[projectsCount].description = _description;\r\n        projects[projectsCount].projectStatus = ProjectStatus(_status);\r\n        projects[projectsCount].ipfsFileCID = _ipfsFileCID;\r\n\r\n        emit CreateProject(_name, _description, ProjectStatus(_status));\r\n        projectIds.push(projectsCount);\r\n        allProjects.push(S_Project(projectsCount, _name, _description, ProjectStatus(_status), _ipfsFileCID));\r\n        projectsCount++;\r\n    }\r\n\r\n    function getProjectInfo(uint _index)\r\n        external\r\n        view\r\n        returns (S_Project memory)\r\n    {\r\n        return projects[_index];\r\n    }\r\n\r\n    function getAllProjects() public view returns(S_Project[] memory) {\r\n        return allProjects;\r\n    }\r\n\r\n    function getProjectIds() external view returns (uint[] memory) {\r\n        return projectIds;\r\n    }\r\n\r\n    function createUniqueIdentifier(string memory _text, address _addr) public pure returns (bytes32)  {\r\n        return keccak256(abi.encodePacked(_text, _addr));\r\n    }\r\n\r\n    function createUniqueHexAddress(string memory _text, address _addr) public pure returns (address)  {\r\n        return address(uint160(uint256(keccak256(abi.encodePacked(_text, _addr)))));\r\n    }\r\n\r\n\r\n    function changeProjectStatus(uint _status, address _address) public {\r\n        projectsStatus[statusChangedIndex]._index = statusChangedIndex;\r\n        projectsStatus[statusChangedIndex]._status = ProjectStatus(_status);\r\n        projectsStatus[statusChangedIndex]._address = _address;\r\n        emit ProjectStatusChanged(statusChangedIndex, ProjectStatus(_status), _address);\r\n        statusChangedIndex++;\r\n    }\r\n\r\n\r\n\r\n\r\n\r\n\r\n    function requestProjectApprovalFromSupervisor(string memory _description, S_Project memory _project, address _subjectAddress) public {\r\n        require(_project.projectStatus == ProjectStatus.Created, \"The project is not created, the operation cannot be done.\");\r\n\r\n        S_Request storage request = supervisorRequests[indexSupervisorRequest];\r\n        request.description = _description;\r\n        request.status = RequestStatus.Unverified;\r\n        request.project = _project;\r\n        request.subjectAddress = _subjectAddress;\r\n\r\n        emit UpdateSupervisorRequestStatus(indexSupervisorRequest, RequestStatus.Unverified, _project, _project.projectStatus, _subjectAddress);\r\n        indexSupervisorRequest++;\r\n    }\r\n\r\n    function requestProjectCompleteFromSupervisor(string memory _description, S_Project memory _project, address _subjectAddress) public {\r\n        require(\r\n            _project.projectStatus == ProjectStatus.BeforeFinalizationCheck,\r\n            \"The project is not in the 'BeforeFinalizationCheck' status, the operation cannot be done.\"\r\n        );\r\n\r\n        S_Request storage request = supervisorRequests[indexSupervisorRequest];\r\n        request.description = _description;\r\n        request.status = RequestStatus.Unverified;\r\n        request.project = _project;\r\n        request.subjectAddress = _subjectAddress;\r\n\r\n        emit UpdateSupervisorRequestStatus(indexSupervisorRequest, RequestStatus.Unverified, _project, _project.projectStatus, _subjectAddress);\r\n        indexSupervisorRequest++;\r\n    }\r\n\r\n    function requestStartProjectToCompanyBuilder(string memory _description, S_Project memory _project, address _subjectAddress) public {\r\n        require(_project.projectStatus == ProjectStatus.Approved, \"The project is not approved, the operation cannot be done.\");\r\n\r\n        S_Request storage request = companyRequests[indexCompanyRequest];\r\n        request.description = _description;\r\n        request.status = RequestStatus.Unverified;\r\n        request.project = _project;\r\n        request.subjectAddress = _subjectAddress;\r\n\r\n        emit UpdateCompanyRequestStatus(indexCompanyRequest, RequestStatus.Unverified, _project, _project.projectStatus, _subjectAddress);\r\n        indexCompanyRequest++;\r\n    }\r\n}",
  "sourcePath": "/mnt/c/users/beniamin/source/repos/dissertationproject/contracts/Project.sol",
  "compiler": {
    "name": "solc",
    "version": "0.8.10+commit.fc410830.Emscripten.clang"
  },
  "schemaVersion": "3.4.3",
  "updatedAt": "2021-11-18T19:21:35.296Z",
  "networkType": "ethereum",
  "devdoc": {
    "kind": "dev",
    "methods": {},
    "version": 1
  },
  "userdoc": {
    "kind": "user",
    "methods": {},
    "version": 1
  }
}