{
  "contractName": "ProjectChain",
  "abi": [
    {
      "inputs": [],
      "stateMutability": "nonpayable",
      "type": "constructor"
    },
    {
      "anonymous": false,
      "inputs": [
        {
          "indexed": false,
          "internalType": "uint256",
          "name": "_index",
          "type": "uint256"
        },
        {
          "indexed": false,
          "internalType": "bytes32",
          "name": "_name",
          "type": "bytes32"
        },
        {
          "indexed": false,
          "internalType": "enum SharedChain.ProjectStatus",
          "name": "_status",
          "type": "uint8"
        },
        {
          "indexed": false,
          "internalType": "string",
          "name": "_ipfsFileCID",
          "type": "string"
        },
        {
          "indexed": false,
          "internalType": "address",
          "name": "_projectAddress",
          "type": "address"
        },
        {
          "indexed": false,
          "internalType": "address",
          "name": "_userAddress",
          "type": "address"
        },
        {
          "indexed": false,
          "internalType": "uint256",
          "name": "_timestamp",
          "type": "uint256"
        },
        {
          "indexed": false,
          "internalType": "string",
          "name": "_signature",
          "type": "string"
        }
      ],
      "name": "ProjectEvent",
      "type": "event"
    },
    {
      "anonymous": false,
      "inputs": [
        {
          "indexed": false,
          "internalType": "uint256",
          "name": "_index",
          "type": "uint256"
        },
        {
          "indexed": false,
          "internalType": "bytes32",
          "name": "_title",
          "type": "bytes32"
        },
        {
          "indexed": false,
          "internalType": "string",
          "name": "_comments",
          "type": "string"
        },
        {
          "indexed": false,
          "internalType": "enum SharedChain.ProjectStatus",
          "name": "_status",
          "type": "uint8"
        },
        {
          "indexed": false,
          "internalType": "enum SharedChain.RequestStatus",
          "name": "_requestStatus",
          "type": "uint8"
        },
        {
          "indexed": false,
          "internalType": "address",
          "name": "_projectAddress",
          "type": "address"
        },
        {
          "indexed": false,
          "internalType": "address",
          "name": "_userAddress",
          "type": "address"
        },
        {
          "indexed": false,
          "internalType": "address",
          "name": "_requestAddress",
          "type": "address"
        },
        {
          "indexed": false,
          "internalType": "uint256",
          "name": "_timestamp",
          "type": "uint256"
        },
        {
          "indexed": false,
          "internalType": "string",
          "name": "_signature",
          "type": "string"
        }
      ],
      "name": "ProjectRequestEvent",
      "type": "event"
    },
    {
      "anonymous": false,
      "inputs": [
        {
          "indexed": false,
          "internalType": "uint256",
          "name": "_index",
          "type": "uint256"
        },
        {
          "indexed": false,
          "internalType": "uint256",
          "name": "_indexProjectRequest",
          "type": "uint256"
        },
        {
          "indexed": false,
          "internalType": "bytes32",
          "name": "_title",
          "type": "bytes32"
        },
        {
          "indexed": false,
          "internalType": "enum SharedChain.RequestStatus",
          "name": "_status",
          "type": "uint8"
        },
        {
          "indexed": false,
          "internalType": "enum SharedChain.ProjectStatus",
          "name": "_projectStatus",
          "type": "uint8"
        },
        {
          "indexed": false,
          "internalType": "enum SharedChain.RequestType",
          "name": "_requestType",
          "type": "uint8"
        },
        {
          "indexed": false,
          "internalType": "address",
          "name": "_projectAddress",
          "type": "address"
        },
        {
          "indexed": false,
          "internalType": "address",
          "name": "_userAddress",
          "type": "address"
        },
        {
          "indexed": false,
          "internalType": "address",
          "name": "_requestAddress",
          "type": "address"
        },
        {
          "indexed": false,
          "internalType": "uint256",
          "name": "_timestamp",
          "type": "uint256"
        },
        {
          "indexed": false,
          "internalType": "string",
          "name": "_signature",
          "type": "string"
        }
      ],
      "name": "RequestEvent",
      "type": "event"
    },
    {
      "anonymous": false,
      "inputs": [
        {
          "indexed": false,
          "internalType": "uint256",
          "name": "_index",
          "type": "uint256"
        },
        {
          "indexed": true,
          "internalType": "string",
          "name": "_username",
          "type": "string"
        },
        {
          "indexed": false,
          "internalType": "bytes32",
          "name": "_email",
          "type": "bytes32"
        },
        {
          "indexed": false,
          "internalType": "bytes32",
          "name": "_firstname",
          "type": "bytes32"
        },
        {
          "indexed": false,
          "internalType": "bytes32",
          "name": "_lastname",
          "type": "bytes32"
        },
        {
          "indexed": true,
          "internalType": "enum SharedChain.Roles",
          "name": "_role",
          "type": "uint8"
        },
        {
          "indexed": true,
          "internalType": "address",
          "name": "_walletAddress",
          "type": "address"
        },
        {
          "indexed": false,
          "internalType": "uint256",
          "name": "_timestamp",
          "type": "uint256"
        }
      ],
      "name": "UserEvent",
      "type": "event"
    },
    {
      "inputs": [
        {
          "internalType": "uint256",
          "name": "_role",
          "type": "uint256"
        },
        {
          "internalType": "address",
          "name": "_walletAddress",
          "type": "address"
        }
      ],
      "name": "changeUserRole",
      "outputs": [],
      "stateMutability": "nonpayable",
      "type": "function"
    },
    {
      "inputs": [],
      "name": "getAllUsers",
      "outputs": [
        {
          "components": [
            {
              "internalType": "uint256",
              "name": "_index",
              "type": "uint256"
            },
            {
              "internalType": "string",
              "name": "_username",
              "type": "string"
            },
            {
              "internalType": "bytes32",
              "name": "_email",
              "type": "bytes32"
            },
            {
              "internalType": "bytes32",
              "name": "_firstname",
              "type": "bytes32"
            },
            {
              "internalType": "bytes32",
              "name": "_lastname",
              "type": "bytes32"
            },
            {
              "internalType": "enum SharedChain.Roles",
              "name": "_role",
              "type": "uint8"
            },
            {
              "internalType": "address",
              "name": "_walletAddress",
              "type": "address"
            },
            {
              "internalType": "uint256",
              "name": "_timestamp",
              "type": "uint256"
            }
          ],
          "internalType": "struct SharedChain.User[]",
          "name": "",
          "type": "tuple[]"
        }
      ],
      "stateMutability": "view",
      "type": "function",
      "constant": true
    },
    {
      "inputs": [
        {
          "internalType": "address",
          "name": "_walletAddress",
          "type": "address"
        }
      ],
      "name": "getUserInfo",
      "outputs": [
        {
          "components": [
            {
              "internalType": "uint256",
              "name": "_index",
              "type": "uint256"
            },
            {
              "internalType": "string",
              "name": "_username",
              "type": "string"
            },
            {
              "internalType": "bytes32",
              "name": "_email",
              "type": "bytes32"
            },
            {
              "internalType": "bytes32",
              "name": "_firstname",
              "type": "bytes32"
            },
            {
              "internalType": "bytes32",
              "name": "_lastname",
              "type": "bytes32"
            },
            {
              "internalType": "enum SharedChain.Roles",
              "name": "_role",
              "type": "uint8"
            },
            {
              "internalType": "address",
              "name": "_walletAddress",
              "type": "address"
            },
            {
              "internalType": "uint256",
              "name": "_timestamp",
              "type": "uint256"
            }
          ],
          "internalType": "struct SharedChain.User",
          "name": "",
          "type": "tuple"
        }
      ],
      "stateMutability": "view",
      "type": "function",
      "constant": true
    },
    {
      "inputs": [],
      "name": "owner",
      "outputs": [
        {
          "internalType": "address",
          "name": "",
          "type": "address"
        }
      ],
      "stateMutability": "view",
      "type": "function",
      "constant": true
    },
    {
      "inputs": [
        {
          "internalType": "uint256",
          "name": "",
          "type": "uint256"
        }
      ],
      "name": "projectRequests",
      "outputs": [
        {
          "internalType": "uint256",
          "name": "_index",
          "type": "uint256"
        },
        {
          "internalType": "bytes32",
          "name": "_title",
          "type": "bytes32"
        },
        {
          "internalType": "string",
          "name": "_comments",
          "type": "string"
        },
        {
          "internalType": "enum SharedChain.ProjectStatus",
          "name": "_status",
          "type": "uint8"
        },
        {
          "internalType": "enum SharedChain.RequestStatus",
          "name": "_requestStatus",
          "type": "uint8"
        },
        {
          "internalType": "address",
          "name": "_projectAddress",
          "type": "address"
        },
        {
          "internalType": "address",
          "name": "_userAddress",
          "type": "address"
        },
        {
          "internalType": "address",
          "name": "_requestAddress",
          "type": "address"
        },
        {
          "internalType": "uint256",
          "name": "_timestamp",
          "type": "uint256"
        },
        {
          "internalType": "string",
          "name": "_signature",
          "type": "string"
        }
      ],
      "stateMutability": "view",
      "type": "function",
      "constant": true
    },
    {
      "inputs": [
        {
          "internalType": "uint256",
          "name": "",
          "type": "uint256"
        }
      ],
      "name": "projectRequestsAddress",
      "outputs": [
        {
          "internalType": "address",
          "name": "",
          "type": "address"
        }
      ],
      "stateMutability": "view",
      "type": "function",
      "constant": true
    },
    {
      "inputs": [],
      "name": "projectRequestsCounter",
      "outputs": [
        {
          "internalType": "uint256",
          "name": "",
          "type": "uint256"
        }
      ],
      "stateMutability": "view",
      "type": "function",
      "constant": true
    },
    {
      "inputs": [
        {
          "internalType": "address",
          "name": "",
          "type": "address"
        }
      ],
      "name": "projects",
      "outputs": [
        {
          "internalType": "uint256",
          "name": "_index",
          "type": "uint256"
        },
        {
          "internalType": "bytes32",
          "name": "_name",
          "type": "bytes32"
        },
        {
          "internalType": "enum SharedChain.ProjectStatus",
          "name": "_status",
          "type": "uint8"
        },
        {
          "internalType": "string",
          "name": "_ipfsFileCID",
          "type": "string"
        },
        {
          "internalType": "address",
          "name": "_projectAddress",
          "type": "address"
        },
        {
          "internalType": "address",
          "name": "_userAddress",
          "type": "address"
        },
        {
          "internalType": "uint256",
          "name": "_timestamp",
          "type": "uint256"
        },
        {
          "internalType": "string",
          "name": "_signature",
          "type": "string"
        }
      ],
      "stateMutability": "view",
      "type": "function",
      "constant": true
    },
    {
      "inputs": [
        {
          "internalType": "uint256",
          "name": "",
          "type": "uint256"
        }
      ],
      "name": "projectsAddress",
      "outputs": [
        {
          "internalType": "address",
          "name": "",
          "type": "address"
        }
      ],
      "stateMutability": "view",
      "type": "function",
      "constant": true
    },
    {
      "inputs": [],
      "name": "projectsCounter",
      "outputs": [
        {
          "internalType": "uint256",
          "name": "",
          "type": "uint256"
        }
      ],
      "stateMutability": "view",
      "type": "function",
      "constant": true
    },
    {
      "inputs": [
        {
          "internalType": "string",
          "name": "_username",
          "type": "string"
        },
        {
          "internalType": "bytes32",
          "name": "_email",
          "type": "bytes32"
        },
        {
          "internalType": "bytes32",
          "name": "_firstname",
          "type": "bytes32"
        },
        {
          "internalType": "bytes32",
          "name": "_lastname",
          "type": "bytes32"
        },
        {
          "internalType": "uint256",
          "name": "_role",
          "type": "uint256"
        },
        {
          "internalType": "address",
          "name": "_walletAddress",
          "type": "address"
        }
      ],
      "name": "registerUser",
      "outputs": [],
      "stateMutability": "nonpayable",
      "type": "function"
    },
    {
      "inputs": [
        {
          "internalType": "uint256",
          "name": "",
          "type": "uint256"
        }
      ],
      "name": "requests",
      "outputs": [
        {
          "internalType": "uint256",
          "name": "_index",
          "type": "uint256"
        },
        {
          "internalType": "uint256",
          "name": "_indexProjectRequest",
          "type": "uint256"
        },
        {
          "internalType": "bytes32",
          "name": "_title",
          "type": "bytes32"
        },
        {
          "internalType": "enum SharedChain.RequestStatus",
          "name": "_requestStatus",
          "type": "uint8"
        },
        {
          "internalType": "enum SharedChain.ProjectStatus",
          "name": "_projectStatus",
          "type": "uint8"
        },
        {
          "internalType": "enum SharedChain.RequestType",
          "name": "_requestType",
          "type": "uint8"
        },
        {
          "internalType": "address",
          "name": "_projectAddress",
          "type": "address"
        },
        {
          "internalType": "address",
          "name": "_userAddress",
          "type": "address"
        },
        {
          "internalType": "address",
          "name": "_requestAddress",
          "type": "address"
        },
        {
          "internalType": "uint256",
          "name": "_timestamp",
          "type": "uint256"
        },
        {
          "internalType": "string",
          "name": "_signature",
          "type": "string"
        }
      ],
      "stateMutability": "view",
      "type": "function",
      "constant": true
    },
    {
      "inputs": [
        {
          "internalType": "uint256",
          "name": "",
          "type": "uint256"
        }
      ],
      "name": "requestsAddress",
      "outputs": [
        {
          "internalType": "address",
          "name": "",
          "type": "address"
        }
      ],
      "stateMutability": "view",
      "type": "function",
      "constant": true
    },
    {
      "inputs": [],
      "name": "requestsCounter",
      "outputs": [
        {
          "internalType": "uint256",
          "name": "",
          "type": "uint256"
        }
      ],
      "stateMutability": "view",
      "type": "function",
      "constant": true
    },
    {
      "inputs": [
        {
          "internalType": "address",
          "name": "",
          "type": "address"
        }
      ],
      "name": "users",
      "outputs": [
        {
          "internalType": "uint256",
          "name": "_index",
          "type": "uint256"
        },
        {
          "internalType": "string",
          "name": "_username",
          "type": "string"
        },
        {
          "internalType": "bytes32",
          "name": "_email",
          "type": "bytes32"
        },
        {
          "internalType": "bytes32",
          "name": "_firstname",
          "type": "bytes32"
        },
        {
          "internalType": "bytes32",
          "name": "_lastname",
          "type": "bytes32"
        },
        {
          "internalType": "enum SharedChain.Roles",
          "name": "_role",
          "type": "uint8"
        },
        {
          "internalType": "address",
          "name": "_walletAddress",
          "type": "address"
        },
        {
          "internalType": "uint256",
          "name": "_timestamp",
          "type": "uint256"
        }
      ],
      "stateMutability": "view",
      "type": "function",
      "constant": true
    },
    {
      "inputs": [
        {
          "internalType": "uint256",
          "name": "",
          "type": "uint256"
        }
      ],
      "name": "usersAddress",
      "outputs": [
        {
          "internalType": "address",
          "name": "",
          "type": "address"
        }
      ],
      "stateMutability": "view",
      "type": "function",
      "constant": true
    },
    {
      "inputs": [],
      "name": "usersCounter",
      "outputs": [
        {
          "internalType": "uint256",
          "name": "",
          "type": "uint256"
        }
      ],
      "stateMutability": "view",
      "type": "function",
      "constant": true
    },
    {
      "inputs": [],
      "name": "createUniqueProjectAddress",
      "outputs": [
        {
          "internalType": "address",
          "name": "",
          "type": "address"
        }
      ],
      "stateMutability": "nonpayable",
      "type": "function"
    },
    {
      "inputs": [
        {
          "internalType": "address",
          "name": "_projectAddress",
          "type": "address"
        },
        {
          "internalType": "bytes32",
          "name": "_name",
          "type": "bytes32"
        },
        {
          "internalType": "uint256",
          "name": "_status",
          "type": "uint256"
        },
        {
          "internalType": "string",
          "name": "_ipfsFileCID",
          "type": "string"
        },
        {
          "internalType": "string",
          "name": "_signature",
          "type": "string"
        }
      ],
      "name": "createProject",
      "outputs": [],
      "stateMutability": "nonpayable",
      "type": "function"
    },
    {
      "inputs": [
        {
          "internalType": "address",
          "name": "_address",
          "type": "address"
        }
      ],
      "name": "getProjectInfo",
      "outputs": [
        {
          "components": [
            {
              "internalType": "uint256",
              "name": "_index",
              "type": "uint256"
            },
            {
              "internalType": "bytes32",
              "name": "_name",
              "type": "bytes32"
            },
            {
              "internalType": "enum SharedChain.ProjectStatus",
              "name": "_status",
              "type": "uint8"
            },
            {
              "internalType": "string",
              "name": "_ipfsFileCID",
              "type": "string"
            },
            {
              "internalType": "address",
              "name": "_projectAddress",
              "type": "address"
            },
            {
              "internalType": "address",
              "name": "_userAddress",
              "type": "address"
            },
            {
              "internalType": "uint256",
              "name": "_timestamp",
              "type": "uint256"
            },
            {
              "internalType": "string",
              "name": "_signature",
              "type": "string"
            }
          ],
          "internalType": "struct SharedChain.Project",
          "name": "",
          "type": "tuple"
        }
      ],
      "stateMutability": "view",
      "type": "function",
      "constant": true
    },
    {
      "inputs": [],
      "name": "getAllProjects",
      "outputs": [
        {
          "components": [
            {
              "internalType": "uint256",
              "name": "_index",
              "type": "uint256"
            },
            {
              "internalType": "bytes32",
              "name": "_name",
              "type": "bytes32"
            },
            {
              "internalType": "enum SharedChain.ProjectStatus",
              "name": "_status",
              "type": "uint8"
            },
            {
              "internalType": "string",
              "name": "_ipfsFileCID",
              "type": "string"
            },
            {
              "internalType": "address",
              "name": "_projectAddress",
              "type": "address"
            },
            {
              "internalType": "address",
              "name": "_userAddress",
              "type": "address"
            },
            {
              "internalType": "uint256",
              "name": "_timestamp",
              "type": "uint256"
            },
            {
              "internalType": "string",
              "name": "_signature",
              "type": "string"
            }
          ],
          "internalType": "struct SharedChain.Project[]",
          "name": "",
          "type": "tuple[]"
        }
      ],
      "stateMutability": "view",
      "type": "function",
      "constant": true
    },
    {
      "inputs": [],
      "name": "createUniqueProjectRequestAddress",
      "outputs": [
        {
          "internalType": "address",
          "name": "",
          "type": "address"
        }
      ],
      "stateMutability": "nonpayable",
      "type": "function"
    },
    {
      "inputs": [
        {
          "internalType": "bytes32",
          "name": "_title",
          "type": "bytes32"
        },
        {
          "internalType": "uint256",
          "name": "_status",
          "type": "uint256"
        },
        {
          "internalType": "uint256",
          "name": "_requestStatus",
          "type": "uint256"
        },
        {
          "internalType": "address",
          "name": "_projectAddress",
          "type": "address"
        },
        {
          "internalType": "address",
          "name": "_projectReqAddress",
          "type": "address"
        },
        {
          "internalType": "string",
          "name": "_signature",
          "type": "string"
        }
      ],
      "name": "createProjectRequest",
      "outputs": [],
      "stateMutability": "nonpayable",
      "type": "function"
    },
    {
      "inputs": [],
      "name": "getAllProjectRequests",
      "outputs": [
        {
          "components": [
            {
              "internalType": "uint256",
              "name": "_index",
              "type": "uint256"
            },
            {
              "internalType": "bytes32",
              "name": "_title",
              "type": "bytes32"
            },
            {
              "internalType": "string",
              "name": "_comments",
              "type": "string"
            },
            {
              "internalType": "enum SharedChain.ProjectStatus",
              "name": "_status",
              "type": "uint8"
            },
            {
              "internalType": "enum SharedChain.RequestStatus",
              "name": "_requestStatus",
              "type": "uint8"
            },
            {
              "internalType": "address",
              "name": "_projectAddress",
              "type": "address"
            },
            {
              "internalType": "address",
              "name": "_userAddress",
              "type": "address"
            },
            {
              "internalType": "address",
              "name": "_requestAddress",
              "type": "address"
            },
            {
              "internalType": "uint256",
              "name": "_timestamp",
              "type": "uint256"
            },
            {
              "internalType": "string",
              "name": "_signature",
              "type": "string"
            }
          ],
          "internalType": "struct SharedChain.ProjectRequest[]",
          "name": "",
          "type": "tuple[]"
        }
      ],
      "stateMutability": "view",
      "type": "function",
      "constant": true
    },
    {
      "inputs": [
        {
          "internalType": "address",
          "name": "_projectAddress",
          "type": "address"
        }
      ],
      "name": "getLastProjectRequest",
      "outputs": [
        {
          "components": [
            {
              "internalType": "uint256",
              "name": "_index",
              "type": "uint256"
            },
            {
              "internalType": "bytes32",
              "name": "_title",
              "type": "bytes32"
            },
            {
              "internalType": "string",
              "name": "_comments",
              "type": "string"
            },
            {
              "internalType": "enum SharedChain.ProjectStatus",
              "name": "_status",
              "type": "uint8"
            },
            {
              "internalType": "enum SharedChain.RequestStatus",
              "name": "_requestStatus",
              "type": "uint8"
            },
            {
              "internalType": "address",
              "name": "_projectAddress",
              "type": "address"
            },
            {
              "internalType": "address",
              "name": "_userAddress",
              "type": "address"
            },
            {
              "internalType": "address",
              "name": "_requestAddress",
              "type": "address"
            },
            {
              "internalType": "uint256",
              "name": "_timestamp",
              "type": "uint256"
            },
            {
              "internalType": "string",
              "name": "_signature",
              "type": "string"
            }
          ],
          "internalType": "struct SharedChain.ProjectRequest",
          "name": "",
          "type": "tuple"
        }
      ],
      "stateMutability": "view",
      "type": "function",
      "constant": true
    },
    {
      "inputs": [
        {
          "internalType": "uint256",
          "name": "_index",
          "type": "uint256"
        },
        {
          "internalType": "uint256",
          "name": "_indexProjectRequest",
          "type": "uint256"
        },
        {
          "internalType": "string",
          "name": "_comments",
          "type": "string"
        },
        {
          "internalType": "uint256",
          "name": "_requestStatus",
          "type": "uint256"
        },
        {
          "internalType": "uint256",
          "name": "_projectStatus",
          "type": "uint256"
        },
        {
          "internalType": "address",
          "name": "_projectAddress",
          "type": "address"
        },
        {
          "internalType": "string",
          "name": "_signature",
          "type": "string"
        }
      ],
      "name": "updateRequest",
      "outputs": [],
      "stateMutability": "nonpayable",
      "type": "function"
    },
    {
      "inputs": [],
      "name": "getAllRequests",
      "outputs": [
        {
          "components": [
            {
              "internalType": "uint256",
              "name": "_index",
              "type": "uint256"
            },
            {
              "internalType": "uint256",
              "name": "_indexProjectRequest",
              "type": "uint256"
            },
            {
              "internalType": "bytes32",
              "name": "_title",
              "type": "bytes32"
            },
            {
              "internalType": "enum SharedChain.RequestStatus",
              "name": "_requestStatus",
              "type": "uint8"
            },
            {
              "internalType": "enum SharedChain.ProjectStatus",
              "name": "_projectStatus",
              "type": "uint8"
            },
            {
              "internalType": "enum SharedChain.RequestType",
              "name": "_requestType",
              "type": "uint8"
            },
            {
              "internalType": "address",
              "name": "_projectAddress",
              "type": "address"
            },
            {
              "internalType": "address",
              "name": "_userAddress",
              "type": "address"
            },
            {
              "internalType": "address",
              "name": "_requestAddress",
              "type": "address"
            },
            {
              "internalType": "uint256",
              "name": "_timestamp",
              "type": "uint256"
            },
            {
              "internalType": "string",
              "name": "_signature",
              "type": "string"
            }
          ],
          "internalType": "struct SharedChain.Request[]",
          "name": "",
          "type": "tuple[]"
        }
      ],
      "stateMutability": "view",
      "type": "function",
      "constant": true
    }
  ],
  "bytecode": "0x60806040526000600355600060055560006007556000600a556000600d5534801561002957600080fd5b50336000806101000a81548173ffffffffffffffffffffffffffffffffffffffff021916908373ffffffffffffffffffffffffffffffffffffffff16021790555033600460006101000a81548173ffffffffffffffffffffffffffffffffffffffff021916908373ffffffffffffffffffffffffffffffffffffffff1602179055506152c4806100ba6000396000f3fe608060405234801561001057600080fd5b50600436106101a95760003560e01c806381d12c58116100f9578063cf13f5d411610097578063e2842d7911610071578063e2842d791461053f578063f46d4b8a1461055d578063fb1a002a14610579578063fe360ea514610597576101a9565b8063cf13f5d4146104e9578063d210ce0514610505578063d67b1b9914610521576101a9565b806391009786116100d3578063910097861461043f578063a87430ba1461045b578063c19ded1314610492578063cc1ee4db146104cb576101a9565b806381d12c58146103b0578063840e78fd146103ea5780638da5cb5b14610421576101a9565b80634d93500d11610166578063663c226911610140578063663c22691461031457806376c932e01461033257806378e8cd851461036257806380d0382914610392576101a9565b80634d93500d1461029657806356a3eead146102b45780636386c1c7146102e4576101a9565b80630b287892146101ae57806317e8c952146101de5780632c91324c146101fc5780632d757d8e1461022c578063400003db1461024857806347ee45b914610266575b600080fd5b6101c860048036038101906101c3919061392c565b6105b5565b6040516101d59190613bd3565b60405180910390f35b6101e661097d565b6040516101f39190613c04565b60405180910390f35b61021660048036038101906102119190613c4b565b610a0e565b6040516102239190613c04565b60405180910390f35b61024660048036038101906102419190613dad565b610a4d565b005b610250610bc8565b60405161025d919061402a565b60405180910390f35b610280600480360381019061027b919061392c565b610f5d565b60405161028d9190614103565b60405180910390f35b61029e6111e0565b6040516102ab9190613c04565b60405180910390f35b6102ce60048036038101906102c99190613c4b565b611271565b6040516102db9190613c04565b60405180910390f35b6102fe60048036038101906102f9919061392c565b6112b0565b60405161030b919061421d565b60405180910390f35b61031c61145f565b604051610329919061424e565b60405180910390f35b61034c60048036038101906103479190613c4b565b611465565b6040516103599190613c04565b60405180910390f35b61037c60048036038101906103779190613c4b565b6114a4565b6040516103899190613c04565b60405180910390f35b61039a6114e3565b6040516103a791906143e2565b60405180910390f35b6103ca60048036038101906103c59190613c4b565b611843565b6040516103e19b9a999897969594939291906144c3565b60405180910390f35b61040460048036038101906103ff919061392c565b6119ac565b604051610418989796959493929190614575565b60405180910390f35b610429611b51565b6040516104369190613c04565b60405180910390f35b61045960048036038101906104549190614601565b611b75565b005b6104756004803603810190610470919061392c565b611dcf565b604051610489989796959493929190614650565b60405180910390f35b6104ac60048036038101906104a79190613c4b565b611ecc565b6040516104c29a999897969594939291906146d5565b60405180910390f35b6104d36120aa565b6040516104e0919061424e565b60405180910390f35b61050360048036038101906104fe91906147ab565b6120b0565b005b61051f600480360381019061051a9190614854565b6123d2565b005b61052961279e565b604051610536919061424e565b60405180910390f35b6105476127a4565b6040516105549190614a6f565b60405180910390f35b61057760048036038101906105729190614a91565b612a30565b005b610581612d33565b60405161058e9190614d04565b60405180910390f35b61059f613067565b6040516105ac919061424e565b60405180910390f35b6105bd61358a565b6105c561358a565b6000600a5411156109735760006001600a546105e19190614d55565b90505b60008110610971576009600082815260200190815260200160002060030160029054906101000a900473ffffffffffffffffffffffffffffffffffffffff1673ffffffffffffffffffffffffffffffffffffffff168473ffffffffffffffffffffffffffffffffffffffff16141561095e5760405180610140016040528060096000848152602001908152602001600020600001548152602001600960008481526020019081526020016000206001015481526020016009600084815260200190815260200160002060020180546106bb90614db8565b80601f01602080910402602001604051908101604052809291908181526020018280546106e790614db8565b80156107345780601f1061070957610100808354040283529160200191610734565b820191906000526020600020905b81548152906001019060200180831161071757829003601f168201915b505050505081526020016009600084815260200190815260200160002060030160009054906101000a900460ff16600481111561077457610773613a24565b5b81526020016009600084815260200190815260200160002060030160019054906101000a900460ff1660028111156107af576107ae613a24565b5b81526020016009600084815260200190815260200160002060030160029054906101000a900473ffffffffffffffffffffffffffffffffffffffff1673ffffffffffffffffffffffffffffffffffffffff1681526020016009600084815260200190815260200160002060040160009054906101000a900473ffffffffffffffffffffffffffffffffffffffff1673ffffffffffffffffffffffffffffffffffffffff1681526020016009600084815260200190815260200160002060050160009054906101000a900473ffffffffffffffffffffffffffffffffffffffff1673ffffffffffffffffffffffffffffffffffffffff1681526020014281526020016009600084815260200190815260200160002060070180546108d190614db8565b80601f01602080910402602001604051908101604052809291908181526020018280546108fd90614db8565b801561094a5780601f1061091f5761010080835404028352916020019161094a565b820191906000526020600020905b81548152906001019060200180831161092d57829003601f168201915b505050505081525091508192505050610978565b808061096990614dea565b9150506105e4565b505b809150505b919050565b60006005600081548092919061099290614e14565b91905055507f6373643f2e213f2a73616c61733b646c412e3b735f6173000000000000000000600460009054906101000a900473ffffffffffffffffffffffffffffffffffffffff166005546040516020016109f093929190614ee7565b6040516020818303038152906040528051906020012060001c905090565b60028181548110610a1e57600080fd5b906000526020600020016000915054906101000a900473ffffffffffffffffffffffffffffffffffffffff1681565b836002811115610a6057610a5f613a24565b5b600c600089815260200190815260200160002060030160006101000a81548160ff02191690836002811115610a9857610a97613a24565b5b021790555080600c60008981526020019081526020016000206007019080519060200190610ac7929190613646565b5084600960008881526020019081526020016000206002019080519060200190610af2929190613646565b50836002811115610b0657610b05613a24565b5b6009600088815260200190815260200160002060030160016101000a81548160ff02191690836002811115610b3e57610b3d613a24565b5b0217905550826004811115610b5657610b55613a24565b5b600660008473ffffffffffffffffffffffffffffffffffffffff1673ffffffffffffffffffffffffffffffffffffffff16815260200190815260200160002060020160006101000a81548160ff02191690836004811115610bba57610bb9613a24565b5b021790555050505050505050565b6060806000600a541415610bdf5780915050610f5a565b600a5467ffffffffffffffff811115610bfb57610bfa613c82565b5b604051908082528060200260200182016040528015610c3457816020015b610c2161358a565b815260200190600190039081610c195790505b50905060005b600754811015610f5457600060096000838152602001908152602001600020905080604051806101400160405290816000820154815260200160018201548152602001600282018054610c8c90614db8565b80601f0160208091040260200160405190810160405280929190818152602001828054610cb890614db8565b8015610d055780601f10610cda57610100808354040283529160200191610d05565b820191906000526020600020905b815481529060010190602001808311610ce857829003601f168201915b505050505081526020016003820160009054906101000a900460ff166004811115610d3357610d32613a24565b5b6004811115610d4557610d44613a24565b5b81526020016003820160019054906101000a900460ff166002811115610d6e57610d6d613a24565b5b6002811115610d8057610d7f613a24565b5b81526020016003820160029054906101000a900473ffffffffffffffffffffffffffffffffffffffff1673ffffffffffffffffffffffffffffffffffffffff1673ffffffffffffffffffffffffffffffffffffffff1681526020016004820160009054906101000a900473ffffffffffffffffffffffffffffffffffffffff1673ffffffffffffffffffffffffffffffffffffffff1673ffffffffffffffffffffffffffffffffffffffff1681526020016005820160009054906101000a900473ffffffffffffffffffffffffffffffffffffffff1673ffffffffffffffffffffffffffffffffffffffff1673ffffffffffffffffffffffffffffffffffffffff16815260200160068201548152602001600782018054610ea090614db8565b80601f0160208091040260200160405190810160405280929190818152602001828054610ecc90614db8565b8015610f195780601f10610eee57610100808354040283529160200191610f19565b820191906000526020600020905b815481529060010190602001808311610efc57829003601f168201915b505050505081525050838381518110610f3557610f34614f24565b5b6020026020010181905250508080610f4c90614e14565b915050610c3a565b50809150505b90565b610f656136cc565b600660008373ffffffffffffffffffffffffffffffffffffffff1673ffffffffffffffffffffffffffffffffffffffff1681526020019081526020016000206040518061010001604052908160008201548152602001600182015481526020016002820160009054906101000a900460ff166004811115610fe957610fe8613a24565b5b6004811115610ffb57610ffa613a24565b5b815260200160038201805461100f90614db8565b80601f016020809104026020016040519081016040528092919081815260200182805461103b90614db8565b80156110885780601f1061105d57610100808354040283529160200191611088565b820191906000526020600020905b81548152906001019060200180831161106b57829003601f168201915b505050505081526020016004820160009054906101000a900473ffffffffffffffffffffffffffffffffffffffff1673ffffffffffffffffffffffffffffffffffffffff1673ffffffffffffffffffffffffffffffffffffffff1681526020016005820160009054906101000a900473ffffffffffffffffffffffffffffffffffffffff1673ffffffffffffffffffffffffffffffffffffffff1673ffffffffffffffffffffffffffffffffffffffff1681526020016006820154815260200160078201805461115790614db8565b80601f016020809104026020016040519081016040528092919081815260200182805461118390614db8565b80156111d05780601f106111a5576101008083540402835291602001916111d0565b820191906000526020600020905b8154815290600101906020018083116111b357829003601f168201915b5050505050815250509050919050565b6000600560008154809291906111f590614e14565b91905055507f6373643f534073616c61733b646c413233345f442e3b735f6173000000000000600460009054906101000a900473ffffffffffffffffffffffffffffffffffffffff1660055460405160200161125393929190614ee7565b6040516020818303038152906040528051906020012060001c905090565b600e818154811061128157600080fd5b906000526020600020016000915054906101000a900473ffffffffffffffffffffffffffffffffffffffff1681565b6112b8613752565b600160008373ffffffffffffffffffffffffffffffffffffffff1673ffffffffffffffffffffffffffffffffffffffff168152602001908152602001600020604051806101000160405290816000820154815260200160018201805461131d90614db8565b80601f016020809104026020016040519081016040528092919081815260200182805461134990614db8565b80156113965780601f1061136b57610100808354040283529160200191611396565b820191906000526020600020905b81548152906001019060200180831161137957829003601f168201915b505050505081526020016002820154815260200160038201548152602001600482015481526020016005820160009054906101000a900460ff1660038111156113e2576113e1613a24565b5b60038111156113f4576113f3613a24565b5b81526020016005820160019054906101000a900473ffffffffffffffffffffffffffffffffffffffff1673ffffffffffffffffffffffffffffffffffffffff1673ffffffffffffffffffffffffffffffffffffffff1681526020016006820154815250509050919050565b600d5481565b6008818154811061147557600080fd5b906000526020600020016000915054906101000a900473ffffffffffffffffffffffffffffffffffffffff1681565b600b81815481106114b457600080fd5b906000526020600020016000915054906101000a900473ffffffffffffffffffffffffffffffffffffffff1681565b6060600060075467ffffffffffffffff81111561150357611502613c82565b5b60405190808252806020026020018201604052801561153c57816020015b6115296136cc565b8152602001906001900390816115215790505b50905060005b60075481101561183b5760006008828154811061156257611561614f24565b5b9060005260206000200160009054906101000a900473ffffffffffffffffffffffffffffffffffffffff1690506000600660008373ffffffffffffffffffffffffffffffffffffffff1673ffffffffffffffffffffffffffffffffffffffff1681526020019081526020016000209050806040518061010001604052908160008201548152602001600182015481526020016002820160009054906101000a900460ff16600481111561161857611617613a24565b5b600481111561162a57611629613a24565b5b815260200160038201805461163e90614db8565b80601f016020809104026020016040519081016040528092919081815260200182805461166a90614db8565b80156116b75780601f1061168c576101008083540402835291602001916116b7565b820191906000526020600020905b81548152906001019060200180831161169a57829003601f168201915b505050505081526020016004820160009054906101000a900473ffffffffffffffffffffffffffffffffffffffff1673ffffffffffffffffffffffffffffffffffffffff1673ffffffffffffffffffffffffffffffffffffffff1681526020016005820160009054906101000a900473ffffffffffffffffffffffffffffffffffffffff1673ffffffffffffffffffffffffffffffffffffffff1673ffffffffffffffffffffffffffffffffffffffff1681526020016006820154815260200160078201805461178690614db8565b80601f01602080910402602001604051908101604052809291908181526020018280546117b290614db8565b80156117ff5780601f106117d4576101008083540402835291602001916117ff565b820191906000526020600020905b8154815290600101906020018083116117e257829003601f168201915b50505050508152505084848151811061181b5761181a614f24565b5b60200260200101819052505050808061183390614e14565b915050611542565b508091505090565b600c6020528060005260406000206000915090508060000154908060010154908060020154908060030160009054906101000a900460ff16908060030160019054906101000a900460ff16908060030160029054906101000a900460ff16908060030160039054906101000a900473ffffffffffffffffffffffffffffffffffffffff16908060040160009054906101000a900473ffffffffffffffffffffffffffffffffffffffff16908060050160009054906101000a900473ffffffffffffffffffffffffffffffffffffffff169080600601549080600701805461192990614db8565b80601f016020809104026020016040519081016040528092919081815260200182805461195590614db8565b80156119a25780601f10611977576101008083540402835291602001916119a2565b820191906000526020600020905b81548152906001019060200180831161198557829003601f168201915b505050505090508b565b60066020528060005260406000206000915090508060000154908060010154908060020160009054906101000a900460ff16908060030180546119ee90614db8565b80601f0160208091040260200160405190810160405280929190818152602001828054611a1a90614db8565b8015611a675780601f10611a3c57610100808354040283529160200191611a67565b820191906000526020600020905b815481529060010190602001808311611a4a57829003601f168201915b5050505050908060040160009054906101000a900473ffffffffffffffffffffffffffffffffffffffff16908060050160009054906101000a900473ffffffffffffffffffffffffffffffffffffffff1690806006015490806007018054611ace90614db8565b80601f0160208091040260200160405190810160405280929190818152602001828054611afa90614db8565b8015611b475780601f10611b1c57610100808354040283529160200191611b47565b820191906000526020600020905b815481529060010190602001808311611b2a57829003601f168201915b5050505050905088565b60008054906101000a900473ffffffffffffffffffffffffffffffffffffffff1681565b816003811115611b8857611b87613a24565b5b600160008373ffffffffffffffffffffffffffffffffffffffff1673ffffffffffffffffffffffffffffffffffffffff16815260200190815260200160002060050160006101000a81548160ff02191690836003811115611bec57611beb613a24565b5b02179055508073ffffffffffffffffffffffffffffffffffffffff16826003811115611c1b57611c1a613a24565b5b6003811115611c2d57611c2c613a24565b5b600160008473ffffffffffffffffffffffffffffffffffffffff1673ffffffffffffffffffffffffffffffffffffffff168152602001908152602001600020600101604051611c7c9190614ff2565b60405180910390207ff17f3effabbd51830c4ffa8b6910ac12573d210009e0aedb1a55ae5026192e9a600160008673ffffffffffffffffffffffffffffffffffffffff1673ffffffffffffffffffffffffffffffffffffffff16815260200190815260200160002060000154600160008773ffffffffffffffffffffffffffffffffffffffff1673ffffffffffffffffffffffffffffffffffffffff16815260200190815260200160002060020154600160008873ffffffffffffffffffffffffffffffffffffffff1673ffffffffffffffffffffffffffffffffffffffff16815260200190815260200160002060030154600160008973ffffffffffffffffffffffffffffffffffffffff1673ffffffffffffffffffffffffffffffffffffffff1681526020019081526020016000206004015442604051611dc3959493929190615009565b60405180910390a45050565b6001602052806000526040600020600091509050806000015490806001018054611df890614db8565b80601f0160208091040260200160405190810160405280929190818152602001828054611e2490614db8565b8015611e715780601f10611e4657610100808354040283529160200191611e71565b820191906000526020600020905b815481529060010190602001808311611e5457829003601f168201915b5050505050908060020154908060030154908060040154908060050160009054906101000a900460ff16908060050160019054906101000a900473ffffffffffffffffffffffffffffffffffffffff16908060060154905088565b6009602052806000526040600020600091509050806000015490806001015490806002018054611efb90614db8565b80601f0160208091040260200160405190810160405280929190818152602001828054611f2790614db8565b8015611f745780601f10611f4957610100808354040283529160200191611f74565b820191906000526020600020905b815481529060010190602001808311611f5757829003601f168201915b5050505050908060030160009054906101000a900460ff16908060030160019054906101000a900460ff16908060030160029054906101000a900473ffffffffffffffffffffffffffffffffffffffff16908060040160009054906101000a900473ffffffffffffffffffffffffffffffffffffffff16908060050160009054906101000a900473ffffffffffffffffffffffffffffffffffffffff169080600601549080600701805461202790614db8565b80601f016020809104026020016040519081016040528092919081815260200182805461205390614db8565b80156120a05780601f10612075576101008083540402835291602001916120a0565b820191906000526020600020905b81548152906001019060200180831161208357829003601f168201915b505050505090508a565b600a5481565b3373ffffffffffffffffffffffffffffffffffffffff1660008054906101000a900473ffffffffffffffffffffffffffffffffffffffff1673ffffffffffffffffffffffffffffffffffffffff161461213e576040517f08c379a0000000000000000000000000000000000000000000000000000000008152600401612135906150a8565b60405180910390fd5b604051806101000160405280600354815260200187815260200186815260200185815260200184815260200183600381111561217d5761217c613a24565b5b600381111561218f5761218e613a24565b5b81526020018273ffffffffffffffffffffffffffffffffffffffff16815260200142815250600160008373ffffffffffffffffffffffffffffffffffffffff1673ffffffffffffffffffffffffffffffffffffffff168152602001908152602001600020600082015181600001556020820151816001019080519060200190612219929190613646565b5060408201518160020155606082015181600301556080820151816004015560a08201518160050160006101000a81548160ff0219169083600381111561226357612262613a24565b5b021790555060c08201518160050160016101000a81548173ffffffffffffffffffffffffffffffffffffffff021916908373ffffffffffffffffffffffffffffffffffffffff16021790555060e082015181600601559050508073ffffffffffffffffffffffffffffffffffffffff168260038111156122e6576122e5613a24565b5b60038111156122f8576122f7613a24565b5b8760405161230691906150f9565b60405180910390207ff17f3effabbd51830c4ffa8b6910ac12573d210009e0aedb1a55ae5026192e9a60035489898942604051612347959493929190615009565b60405180910390a46002819080600181540180825580915050600190039060005260206000200160009091909190916101000a81548173ffffffffffffffffffffffffffffffffffffffff021916908373ffffffffffffffffffffffffffffffffffffffff160217905550600360008154809291906123c590614e14565b9190505550505050505050565b604051806101400160405280600a54815260200187815260200160405180602001604052806000815250815260200186600481111561241457612413613a24565b5b600481111561242657612425613a24565b5b815260200185600281111561243e5761243d613a24565b5b60028111156124505761244f613a24565b5b81526020018473ffffffffffffffffffffffffffffffffffffffff168152602001600460009054906101000a900473ffffffffffffffffffffffffffffffffffffffff1673ffffffffffffffffffffffffffffffffffffffff1681526020018373ffffffffffffffffffffffffffffffffffffffff1681526020014281526020018281525060096000600a5481526020019081526020016000206000820151816000015560208201518160010155604082015181600201908051906020019061251a929190613646565b5060608201518160030160006101000a81548160ff0219169083600481111561254657612545613a24565b5b021790555060808201518160030160016101000a81548160ff0219169083600281111561257657612575613a24565b5b021790555060a08201518160030160026101000a81548173ffffffffffffffffffffffffffffffffffffffff021916908373ffffffffffffffffffffffffffffffffffffffff16021790555060c08201518160040160006101000a81548173ffffffffffffffffffffffffffffffffffffffff021916908373ffffffffffffffffffffffffffffffffffffffff16021790555060e08201518160050160006101000a81548173ffffffffffffffffffffffffffffffffffffffff021916908373ffffffffffffffffffffffffffffffffffffffff1602179055506101008201518160060155610120820151816007019080519060200190612678929190613646565b5090505061268c600a54878688878761306d565b7f7c2cee03a4cddb6435d0bc7e59bd9a94142380a47bf8ead53d62091b274da965600a54878760048111156126c4576126c3613a24565b5b8760028111156126d7576126d6613a24565b5b87600460009054906101000a900473ffffffffffffffffffffffffffffffffffffffff1688428960405161271399989796959493929190615136565b60405180910390a1600b829080600181540180825580915050600190039060005260206000200160009091909190916101000a81548173ffffffffffffffffffffffffffffffffffffffff021916908373ffffffffffffffffffffffffffffffffffffffff160217905550600a600081548092919061279190614e14565b9190505550505050505050565b60035481565b6060600060035467ffffffffffffffff8111156127c4576127c3613c82565b5b6040519080825280602002602001820160405280156127fd57816020015b6127ea613752565b8152602001906001900390816127e25790505b50905060005b600354811015612a285760006002828154811061282357612822614f24565b5b9060005260206000200160009054906101000a900473ffffffffffffffffffffffffffffffffffffffff1690506000600160008373ffffffffffffffffffffffffffffffffffffffff1673ffffffffffffffffffffffffffffffffffffffff16815260200190815260200160002090508060405180610100016040529081600082015481526020016001820180546128ba90614db8565b80601f01602080910402602001604051908101604052809291908181526020018280546128e690614db8565b80156129335780601f1061290857610100808354040283529160200191612933565b820191906000526020600020905b81548152906001019060200180831161291657829003601f168201915b505050505081526020016002820154815260200160038201548152602001600482015481526020016005820160009054906101000a900460ff16600381111561297f5761297e613a24565b5b600381111561299157612990613a24565b5b81526020016005820160019054906101000a900473ffffffffffffffffffffffffffffffffffffffff1673ffffffffffffffffffffffffffffffffffffffff1673ffffffffffffffffffffffffffffffffffffffff168152602001600682015481525050848481518110612a0857612a07614f24565b5b602002602001018190525050508080612a2090614e14565b915050612803565b508091505090565b6040518061010001604052806007548152602001858152602001846004811115612a5d57612a5c613a24565b5b6004811115612a6f57612a6e613a24565b5b81526020018381526020018673ffffffffffffffffffffffffffffffffffffffff168152602001600460009054906101000a900473ffffffffffffffffffffffffffffffffffffffff1673ffffffffffffffffffffffffffffffffffffffff16815260200142815260200182815250600660008773ffffffffffffffffffffffffffffffffffffffff1673ffffffffffffffffffffffffffffffffffffffff168152602001908152602001600020600082015181600001556020820151816001015560408201518160020160006101000a81548160ff02191690836004811115612b5c57612b5b613a24565b5b02179055506060820151816003019080519060200190612b7d929190613646565b5060808201518160040160006101000a81548173ffffffffffffffffffffffffffffffffffffffff021916908373ffffffffffffffffffffffffffffffffffffffff16021790555060a08201518160050160006101000a81548173ffffffffffffffffffffffffffffffffffffffff021916908373ffffffffffffffffffffffffffffffffffffffff16021790555060c0820151816006015560e0820151816007019080519060200190612c32929190613646565b509050507fcde950623bdaadd4f1c9770d7dbd93064fb50de6bd0c5762c48a7cbff7faae5760075485856004811115612c6e57612c6d613a24565b5b8589600460009054906101000a900473ffffffffffffffffffffffffffffffffffffffff164288604051612ca9989796959493929190614575565b60405180910390a16008859080600181540180825580915050600190039060005260206000200160009091909190916101000a81548173ffffffffffffffffffffffffffffffffffffffff021916908373ffffffffffffffffffffffffffffffffffffffff16021790555060076000815480929190612d2790614e14565b91905055505050505050565b60606000600d5467ffffffffffffffff811115612d5357612d52613c82565b5b604051908082528060200260200182016040528015612d8c57816020015b612d796137c8565b815260200190600190039081612d715790505b50905060005b600d5481101561305f576000600c6000838152602001908152602001600020905080604051806101600160405290816000820154815260200160018201548152602001600282015481526020016003820160009054906101000a900460ff166002811115612e0357612e02613a24565b5b6002811115612e1557612e14613a24565b5b81526020016003820160019054906101000a900460ff166004811115612e3e57612e3d613a24565b5b6004811115612e5057612e4f613a24565b5b81526020016003820160029054906101000a900460ff166001811115612e7957612e78613a24565b5b6001811115612e8b57612e8a613a24565b5b81526020016003820160039054906101000a900473ffffffffffffffffffffffffffffffffffffffff1673ffffffffffffffffffffffffffffffffffffffff1673ffffffffffffffffffffffffffffffffffffffff1681526020016004820160009054906101000a900473ffffffffffffffffffffffffffffffffffffffff1673ffffffffffffffffffffffffffffffffffffffff1673ffffffffffffffffffffffffffffffffffffffff1681526020016005820160009054906101000a900473ffffffffffffffffffffffffffffffffffffffff1673ffffffffffffffffffffffffffffffffffffffff1673ffffffffffffffffffffffffffffffffffffffff16815260200160068201548152602001600782018054612fab90614db8565b80601f0160208091040260200160405190810160405280929190818152602001828054612fd790614db8565b80156130245780601f10612ff957610100808354040283529160200191613024565b820191906000526020600020905b81548152906001019060200180831161300757829003601f168201915b5050505050815250508383815181106130405761303f614f24565b5b602002602001018190525050808061305790614e14565b915050612d92565b508091505090565b60075481565b60006001600481111561308357613082613a24565b5b84600481111561309657613095613a24565b5b60048111156130a8576130a7613a24565b5b14806130ea5750600360048111156130c3576130c2613a24565b5b8460048111156130d6576130d5613a24565b5b60048111156130e8576130e7613a24565b5b145b8061312a575060048081111561310357613102613a24565b5b84600481111561311657613115613a24565b5b600481111561312857613127613a24565b5b145b15613138576000905061317d565b6002600481111561314c5761314b613a24565b5b84600481111561315f5761315e613a24565b5b600481111561317157613170613a24565b5b141561317c57600190505b5b61318c87878787858888613195565b50505050505050565b604051806101600160405280600d5481526020018881526020018781526020018660028111156131c8576131c7613a24565b5b60028111156131da576131d9613a24565b5b81526020018560048111156131f2576131f1613a24565b5b600481111561320457613203613a24565b5b815260200184600181111561321c5761321b613a24565b5b81526020018373ffffffffffffffffffffffffffffffffffffffff168152602001600460009054906101000a900473ffffffffffffffffffffffffffffffffffffffff1673ffffffffffffffffffffffffffffffffffffffff1681526020018273ffffffffffffffffffffffffffffffffffffffff16815260200142815260200160405180602001604052806000815250815250600c6000600d54815260200190815260200160002060008201518160000155602082015181600101556040820151816002015560608201518160030160006101000a81548160ff0219169083600281111561330e5761330d613a24565b5b021790555060808201518160030160016101000a81548160ff0219169083600481111561333e5761333d613a24565b5b021790555060a08201518160030160026101000a81548160ff0219169083600181111561336e5761336d613a24565b5b021790555060c08201518160030160036101000a81548173ffffffffffffffffffffffffffffffffffffffff021916908373ffffffffffffffffffffffffffffffffffffffff16021790555060e08201518160040160006101000a81548173ffffffffffffffffffffffffffffffffffffffff021916908373ffffffffffffffffffffffffffffffffffffffff1602179055506101008201518160050160006101000a81548173ffffffffffffffffffffffffffffffffffffffff021916908373ffffffffffffffffffffffffffffffffffffffff1602179055506101208201518160060155610140820151816007019080519060200190613471929190613646565b509050507fd4b969e56d1e1f6ea9255e6df54d2edcd62299d8a2baf5804e3f5beef56c4390600d5488888860028111156134ae576134ad613a24565b5b8860048111156134c1576134c0613a24565b5b8888600460009054906101000a900473ffffffffffffffffffffffffffffffffffffffff1689426040516134fe9a999897969594939291906151de565b60405180910390a1600e819080600181540180825580915050600190039060005260206000200160009091909190916101000a81548173ffffffffffffffffffffffffffffffffffffffff021916908373ffffffffffffffffffffffffffffffffffffffff160217905550600d600081548092919061357c90614e14565b919050555050505050505050565b604051806101400160405280600081526020016000801916815260200160608152602001600060048111156135c2576135c1613a24565b5b8152602001600060028111156135db576135da613a24565b5b8152602001600073ffffffffffffffffffffffffffffffffffffffff168152602001600073ffffffffffffffffffffffffffffffffffffffff168152602001600073ffffffffffffffffffffffffffffffffffffffff16815260200160008152602001606081525090565b82805461365290614db8565b90600052602060002090601f01602090048101928261367457600085556136bb565b82601f1061368d57805160ff19168380011785556136bb565b828001600101855582156136bb579182015b828111156136ba57825182559160200191906001019061369f565b5b5090506136c8919061389d565b5090565b6040518061010001604052806000815260200160008019168152602001600060048111156136fd576136fc613a24565b5b815260200160608152602001600073ffffffffffffffffffffffffffffffffffffffff168152602001600073ffffffffffffffffffffffffffffffffffffffff16815260200160008152602001606081525090565b60405180610100016040528060008152602001606081526020016000801916815260200160008019168152602001600080191681526020016000600381111561379e5761379d613a24565b5b8152602001600073ffffffffffffffffffffffffffffffffffffffff168152602001600081525090565b60405180610160016040528060008152602001600081526020016000801916815260200160006002811115613800576137ff613a24565b5b81526020016000600481111561381957613818613a24565b5b81526020016000600181111561383257613831613a24565b5b8152602001600073ffffffffffffffffffffffffffffffffffffffff168152602001600073ffffffffffffffffffffffffffffffffffffffff168152602001600073ffffffffffffffffffffffffffffffffffffffff16815260200160008152602001606081525090565b5b808211156138b657600081600090555060010161389e565b5090565b6000604051905090565b600080fd5b600080fd5b600073ffffffffffffffffffffffffffffffffffffffff82169050919050565b60006138f9826138ce565b9050919050565b613909816138ee565b811461391457600080fd5b50565b60008135905061392681613900565b92915050565b600060208284031215613942576139416138c4565b5b600061395084828501613917565b91505092915050565b6000819050919050565b61396c81613959565b82525050565b6000819050919050565b61398581613972565b82525050565b600081519050919050565b600082825260208201905092915050565b60005b838110156139c55780820151818401526020810190506139aa565b838111156139d4576000848401525b50505050565b6000601f19601f8301169050919050565b60006139f68261398b565b613a008185613996565b9350613a108185602086016139a7565b613a19816139da565b840191505092915050565b7f4e487b7100000000000000000000000000000000000000000000000000000000600052602160045260246000fd5b60058110613a6457613a63613a24565b5b50565b6000819050613a7582613a53565b919050565b6000613a8582613a67565b9050919050565b613a9581613a7a565b82525050565b60038110613aac57613aab613a24565b5b50565b6000819050613abd82613a9b565b919050565b6000613acd82613aaf565b9050919050565b613add81613ac2565b82525050565b613aec816138ee565b82525050565b600061014083016000830151613b0b6000860182613963565b506020830151613b1e602086018261397c565b5060408301518482036040860152613b3682826139eb565b9150506060830151613b4b6060860182613a8c565b506080830151613b5e6080860182613ad4565b5060a0830151613b7160a0860182613ae3565b5060c0830151613b8460c0860182613ae3565b5060e0830151613b9760e0860182613ae3565b50610100830151613bac610100860182613963565b50610120830151848203610120860152613bc682826139eb565b9150508091505092915050565b60006020820190508181036000830152613bed8184613af2565b905092915050565b613bfe816138ee565b82525050565b6000602082019050613c196000830184613bf5565b92915050565b613c2881613959565b8114613c3357600080fd5b50565b600081359050613c4581613c1f565b92915050565b600060208284031215613c6157613c606138c4565b5b6000613c6f84828501613c36565b91505092915050565b600080fd5b600080fd5b7f4e487b7100000000000000000000000000000000000000000000000000000000600052604160045260246000fd5b613cba826139da565b810181811067ffffffffffffffff82111715613cd957613cd8613c82565b5b80604052505050565b6000613cec6138ba565b9050613cf88282613cb1565b919050565b600067ffffffffffffffff821115613d1857613d17613c82565b5b613d21826139da565b9050602081019050919050565b82818337600083830152505050565b6000613d50613d4b84613cfd565b613ce2565b905082815260208101848484011115613d6c57613d6b613c7d565b5b613d77848285613d2e565b509392505050565b600082601f830112613d9457613d93613c78565b5b8135613da4848260208601613d3d565b91505092915050565b600080600080600080600060e0888a031215613dcc57613dcb6138c4565b5b6000613dda8a828b01613c36565b9750506020613deb8a828b01613c36565b965050604088013567ffffffffffffffff811115613e0c57613e0b6138c9565b5b613e188a828b01613d7f565b9550506060613e298a828b01613c36565b9450506080613e3a8a828b01613c36565b93505060a0613e4b8a828b01613917565b92505060c088013567ffffffffffffffff811115613e6c57613e6b6138c9565b5b613e788a828b01613d7f565b91505092959891949750929550565b600081519050919050565b600082825260208201905092915050565b6000819050602082019050919050565b600061014083016000830151613ecc6000860182613963565b506020830151613edf602086018261397c565b5060408301518482036040860152613ef782826139eb565b9150506060830151613f0c6060860182613a8c565b506080830151613f1f6080860182613ad4565b5060a0830151613f3260a0860182613ae3565b5060c0830151613f4560c0860182613ae3565b5060e0830151613f5860e0860182613ae3565b50610100830151613f6d610100860182613963565b50610120830151848203610120860152613f8782826139eb565b9150508091505092915050565b6000613fa08383613eb3565b905092915050565b6000602082019050919050565b6000613fc082613e87565b613fca8185613e92565b935083602082028501613fdc85613ea3565b8060005b858110156140185784840389528151613ff98582613f94565b945061400483613fa8565b925060208a01995050600181019050613fe0565b50829750879550505050505092915050565b600060208201905081810360008301526140448184613fb5565b905092915050565b6000610100830160008301516140656000860182613963565b506020830151614078602086018261397c565b50604083015161408b6040860182613a8c565b50606083015184820360608601526140a382826139eb565b91505060808301516140b86080860182613ae3565b5060a08301516140cb60a0860182613ae3565b5060c08301516140de60c0860182613963565b5060e083015184820360e08601526140f682826139eb565b9150508091505092915050565b6000602082019050818103600083015261411d818461404c565b905092915050565b6004811061413657614135613a24565b5b50565b600081905061414782614125565b919050565b600061415782614139565b9050919050565b6141678161414c565b82525050565b6000610100830160008301516141866000860182613963565b506020830151848203602086015261419e82826139eb565b91505060408301516141b3604086018261397c565b5060608301516141c6606086018261397c565b5060808301516141d9608086018261397c565b5060a08301516141ec60a086018261415e565b5060c08301516141ff60c0860182613ae3565b5060e083015161421260e0860182613963565b508091505092915050565b60006020820190508181036000830152614237818461416d565b905092915050565b61424881613959565b82525050565b6000602082019050614263600083018461423f565b92915050565b600081519050919050565b600082825260208201905092915050565b6000819050602082019050919050565b6000610100830160008301516142ae6000860182613963565b5060208301516142c1602086018261397c565b5060408301516142d46040860182613a8c565b50606083015184820360608601526142ec82826139eb565b91505060808301516143016080860182613ae3565b5060a083015161431460a0860182613ae3565b5060c083015161432760c0860182613963565b5060e083015184820360e086015261433f82826139eb565b9150508091505092915050565b60006143588383614295565b905092915050565b6000602082019050919050565b600061437882614269565b6143828185614274565b93508360208202850161439485614285565b8060005b858110156143d057848403895281516143b1858261434c565b94506143bc83614360565b925060208a01995050600181019050614398565b50829750879550505050505092915050565b600060208201905081810360008301526143fc818461436d565b905092915050565b61440d81613972565b82525050565b61441c81613ac2565b82525050565b61442b81613a7a565b82525050565b6002811061444257614441613a24565b5b50565b600081905061445382614431565b919050565b600061446382614445565b9050919050565b61447381614458565b82525050565b600082825260208201905092915050565b60006144958261398b565b61449f8185614479565b93506144af8185602086016139a7565b6144b8816139da565b840191505092915050565b6000610160820190506144d9600083018e61423f565b6144e6602083018d61423f565b6144f3604083018c614404565b614500606083018b614413565b61450d608083018a614422565b61451a60a083018961446a565b61452760c0830188613bf5565b61453460e0830187613bf5565b614542610100830186613bf5565b61455061012083018561423f565b818103610140830152614563818461448a565b90509c9b505050505050505050505050565b60006101008201905061458b600083018b61423f565b614598602083018a614404565b6145a56040830189614422565b81810360608301526145b7818861448a565b90506145c66080830187613bf5565b6145d360a0830186613bf5565b6145e060c083018561423f565b81810360e08301526145f2818461448a565b90509998505050505050505050565b60008060408385031215614618576146176138c4565b5b600061462685828601613c36565b925050602061463785828601613917565b9150509250929050565b61464a8161414c565b82525050565b600061010082019050614666600083018b61423f565b8181036020830152614678818a61448a565b90506146876040830189614404565b6146946060830188614404565b6146a16080830187614404565b6146ae60a0830186614641565b6146bb60c0830185613bf5565b6146c860e083018461423f565b9998505050505050505050565b6000610140820190506146eb600083018d61423f565b6146f8602083018c614404565b818103604083015261470a818b61448a565b9050614719606083018a614422565b6147266080830189614413565b61473360a0830188613bf5565b61474060c0830187613bf5565b61474d60e0830186613bf5565b61475b61010083018561423f565b81810361012083015261476e818461448a565b90509b9a5050505050505050505050565b61478881613972565b811461479357600080fd5b50565b6000813590506147a58161477f565b92915050565b60008060008060008060c087890312156147c8576147c76138c4565b5b600087013567ffffffffffffffff8111156147e6576147e56138c9565b5b6147f289828a01613d7f565b965050602061480389828a01614796565b955050604061481489828a01614796565b945050606061482589828a01614796565b935050608061483689828a01613c36565b92505060a061484789828a01613917565b9150509295509295509295565b60008060008060008060c08789031215614871576148706138c4565b5b600061487f89828a01614796565b965050602061489089828a01613c36565b95505060406148a189828a01613c36565b94505060606148b289828a01613917565b93505060806148c389828a01613917565b92505060a087013567ffffffffffffffff8111156148e4576148e36138c9565b5b6148f089828a01613d7f565b9150509295509295509295565b600081519050919050565b600082825260208201905092915050565b6000819050602082019050919050565b6000610100830160008301516149426000860182613963565b506020830151848203602086015261495a82826139eb565b915050604083015161496f604086018261397c565b506060830151614982606086018261397c565b506080830151614995608086018261397c565b5060a08301516149a860a086018261415e565b5060c08301516149bb60c0860182613ae3565b5060e08301516149ce60e0860182613963565b508091505092915050565b60006149e58383614929565b905092915050565b6000602082019050919050565b6000614a05826148fd565b614a0f8185614908565b935083602082028501614a2185614919565b8060005b85811015614a5d5784840389528151614a3e85826149d9565b9450614a49836149ed565b925060208a01995050600181019050614a25565b50829750879550505050505092915050565b60006020820190508181036000830152614a8981846149fa565b905092915050565b600080600080600060a08688031215614aad57614aac6138c4565b5b6000614abb88828901613917565b9550506020614acc88828901614796565b9450506040614add88828901613c36565b935050606086013567ffffffffffffffff811115614afe57614afd6138c9565b5b614b0a88828901613d7f565b925050608086013567ffffffffffffffff811115614b2b57614b2a6138c9565b5b614b3788828901613d7f565b9150509295509295909350565b600081519050919050565b600082825260208201905092915050565b6000819050602082019050919050565b614b7981614458565b82525050565b600061016083016000830151614b986000860182613963565b506020830151614bab6020860182613963565b506040830151614bbe604086018261397c565b506060830151614bd16060860182613ad4565b506080830151614be46080860182613a8c565b5060a0830151614bf760a0860182614b70565b5060c0830151614c0a60c0860182613ae3565b5060e0830151614c1d60e0860182613ae3565b50610100830151614c32610100860182613ae3565b50610120830151614c47610120860182613963565b50610140830151848203610140860152614c6182826139eb565b9150508091505092915050565b6000614c7a8383614b7f565b905092915050565b6000602082019050919050565b6000614c9a82614b44565b614ca48185614b4f565b935083602082028501614cb685614b60565b8060005b85811015614cf25784840389528151614cd38582614c6e565b9450614cde83614c82565b925060208a01995050600181019050614cba565b50829750879550505050505092915050565b60006020820190508181036000830152614d1e8184614c8f565b905092915050565b7f4e487b7100000000000000000000000000000000000000000000000000000000600052601160045260246000fd5b6000614d6082613959565b9150614d6b83613959565b925082821015614d7e57614d7d614d26565b5b828203905092915050565b7f4e487b7100000000000000000000000000000000000000000000000000000000600052602260045260246000fd5b60006002820490506001821680614dd057607f821691505b60208210811415614de457614de3614d89565b5b50919050565b6000614df582613959565b91506000821415614e0957614e08614d26565b5b600182039050919050565b6000614e1f82613959565b91507fffffffffffffffffffffffffffffffffffffffffffffffffffffffffffffffff821415614e5257614e51614d26565b5b600182019050919050565b6000819050919050565b614e78614e7382613972565b614e5d565b82525050565b60008160601b9050919050565b6000614e9682614e7e565b9050919050565b6000614ea882614e8b565b9050919050565b614ec0614ebb826138ee565b614e9d565b82525050565b6000819050919050565b614ee1614edc82613959565b614ec6565b82525050565b6000614ef38286614e67565b602082019150614f038285614eaf565b601482019150614f138284614ed0565b602082019150819050949350505050565b7f4e487b7100000000000000000000000000000000000000000000000000000000600052603260045260246000fd5b600081905092915050565b60008190508160005260206000209050919050565b60008154614f8081614db8565b614f8a8186614f53565b94506001821660008114614fa55760018114614fb657614fe9565b60ff19831686528186019350614fe9565b614fbf85614f5e565b60005b83811015614fe157815481890152600182019150602081019050614fc2565b838801955050505b50505092915050565b6000614ffe8284614f73565b915081905092915050565b600060a08201905061501e600083018861423f565b61502b6020830187614404565b6150386040830186614404565b6150456060830185614404565b615052608083018461423f565b9695505050505050565b7f596f7520617265206e6f7420616e206f776e6572000000000000000000000000600082015250565b6000615092601483614479565b915061509d8261505c565b602082019050919050565b600060208201905081810360008301526150c181615085565b9050919050565b60006150d38261398b565b6150dd8185614f53565b93506150ed8185602086016139a7565b80840191505092915050565b600061510582846150c8565b915081905092915050565b50565b6000615120600083614479565b915061512b82615110565b600082019050919050565b60006101408201905061514c600083018c61423f565b615159602083018b614404565b818103604083015261516a81615113565b9050615179606083018a614422565b6151866080830189614413565b61519360a0830188613bf5565b6151a060c0830187613bf5565b6151ad60e0830186613bf5565b6151bb61010083018561423f565b8181036101208301526151ce818461448a565b90509a9950505050505050505050565b6000610160820190506151f4600083018d61423f565b615201602083018c61423f565b61520e604083018b614404565b61521b606083018a614413565b6152286080830189614422565b61523560a083018861446a565b61524260c0830187613bf5565b61524f60e0830186613bf5565b61525d610100830185613bf5565b61526b61012083018461423f565b81810361014083015261527d81615113565b90509b9a505050505050505050505056fea26469706673582212205cea1618303d56dcb3a7b7ff9956b20c4c62982390a309b1ca255a0f7680318d64736f6c634300080a0033",
  "immutableReferences": {},
  "source": "// SPDX-License-Identifier: MIT\r\npragma solidity >=0.8.0 <0.9.0;\r\n\r\nimport \"./UserChain.sol\";\r\nimport \"./SharedChain.sol\";\r\n\r\ncontract ProjectChain is UserChain {\r\n    bytes32 constant PROJECT_HASH_VALUE = \"csd?S@salas;dlA234_D.;s_as\";\r\n    bytes32 constant REQUEST_HASH_VALUE = \"csd?.!?*salas;dlA.;s_as\";\r\n\r\n    address _projectInitiator;\r\n    uint _indexUniqueAddress = 0;\r\n\r\n    constructor() {\r\n        _projectInitiator = msg.sender;\r\n    }\r\n\r\n    modifier onlyProjectInitiator {\r\n        require(users[_projectInitiator]._role == Roles.ProjectInitiator, \"You don't have the rights for this resources.\");\r\n        require(_projectInitiator == msg.sender, \"You are not a project initiator\");\r\n        _;\r\n    }\r\n\r\n\r\n    /**  PROJECT INITIATOR  */\r\n\r\n    mapping(address => Project) public projects;\r\n    uint public projectsCounter = 0;\r\n    address[] public projectsAddress;\r\n\r\n    function createUniqueProjectAddress() public returns (address) {\r\n        _indexUniqueAddress++;\r\n        return address(uint160(uint256(keccak256(abi.encodePacked(PROJECT_HASH_VALUE, _projectInitiator, _indexUniqueAddress)))));\r\n    }\r\n\r\n    function createProject(address _projectAddress, bytes32 _name, uint _status, string memory _ipfsFileCID, string memory _signature) public {\r\n        projects[_projectAddress] = Project(\r\n            projectsCounter, _name, ProjectStatus(_status),\r\n            _ipfsFileCID, _projectAddress,\r\n            _projectInitiator, block.timestamp, _signature\r\n        );\r\n\r\n        emit ProjectEvent(\r\n            projectsCounter, _name, ProjectStatus(_status),\r\n            _ipfsFileCID, _projectAddress, _projectInitiator,\r\n            block.timestamp, _signature\r\n        );\r\n        projectsAddress.push(_projectAddress);\r\n        projectsCounter++;\r\n    }\r\n\r\n    function getProjectInfo(address _address) public view returns (Project memory) {\r\n        return projects[_address];\r\n    }\r\n\r\n    function getAllProjects() public view returns(Project[] memory) {\r\n        Project[] memory allProjects = new Project[](projectsCounter);\r\n        for (uint index = 0; index < projectsCounter; index++) {\r\n            address _projectAddress = projectsAddress[index];\r\n            Project storage project = projects[_projectAddress];\r\n            allProjects[index] = project;\r\n        }\r\n        return allProjects;\r\n    }\r\n\r\n\r\n    /**  Project Requests  */\r\n\r\n    mapping(uint => ProjectRequest) public projectRequests;\r\n    uint public projectRequestsCounter = 0;\r\n    address[] public projectRequestsAddress;\r\n\r\n    function createUniqueProjectRequestAddress() public returns (address) {\r\n        _indexUniqueAddress++;\r\n        return address(uint160(uint256(keccak256(abi.encodePacked(REQUEST_HASH_VALUE, _projectInitiator, _indexUniqueAddress)))));\r\n    }\r\n\r\n    function createProjectRequest(\r\n        bytes32 _title, uint _status, uint _requestStatus,\r\n        address _projectAddress, address _projectReqAddress, string memory _signature\r\n    ) public {\r\n        projectRequests[projectRequestsCounter] = ProjectRequest(\r\n            projectRequestsCounter, _title, '', ProjectStatus(_status),\r\n            RequestStatus(_requestStatus), _projectAddress,\r\n            _projectInitiator, _projectReqAddress, block.timestamp, _signature\r\n        );\r\n\r\n        filterRequests(projectRequestsCounter, _title, _requestStatus, _status, _projectAddress, _projectReqAddress);\r\n\r\n        emit ProjectRequestEvent(\r\n            projectRequestsCounter, _title, '',\r\n            ProjectStatus(_status), RequestStatus(_requestStatus),\r\n            _projectAddress, _projectInitiator,\r\n            _projectReqAddress, block.timestamp, _signature\r\n        );\r\n        projectRequestsAddress.push(_projectReqAddress);\r\n        projectRequestsCounter++;\r\n    }\r\n\r\n    function filterRequests(\r\n        uint _indexProjectRequest,\r\n        bytes32 _title,\r\n        uint _requestStatus,\r\n        uint _projectStatus,\r\n        address _projectAddress,\r\n        address _requestAddress\r\n    ) internal {\r\n        RequestType _requestType;\r\n        if (\r\n            ProjectStatus(_projectStatus) == ProjectStatus.ToApprove ||\r\n            ProjectStatus(_projectStatus) == ProjectStatus.FinalizationCheck ||\r\n            ProjectStatus(_projectStatus) == ProjectStatus.Completed\r\n        ) {\r\n            _requestType = RequestType.SupervisorReq;\r\n        } else if (ProjectStatus(_projectStatus) == ProjectStatus.StartProject) {\r\n            _requestType = RequestType.CompanyReq;\r\n        }\r\n        createRequest(_indexProjectRequest, _title, _requestStatus, _projectStatus, _requestType, _projectAddress, _requestAddress);\r\n    }\r\n\r\n    function getAllProjectRequests() public view returns(ProjectRequest[] memory) {\r\n        ProjectRequest[] memory allProjectRequests;\r\n        if (projectRequestsCounter == 0) return allProjectRequests;\r\n\r\n        allProjectRequests = new ProjectRequest[](projectRequestsCounter);\r\n        for (uint index = 0; index < projectsCounter; index++) {\r\n            ProjectRequest storage projectReq = projectRequests[index];\r\n            allProjectRequests[index] = projectReq;\r\n        }\r\n        return allProjectRequests;\r\n    }\r\n\r\n    function getLastProjectRequest(address _projectAddress) public view returns(ProjectRequest memory) {\r\n        ProjectRequest memory request;\r\n        if (projectRequestsCounter > 0) {\r\n            for (uint index = projectRequestsCounter - 1; index >= 0; index--) {\r\n                if (_projectAddress == projectRequests[index]._projectAddress) {\r\n                    request = ProjectRequest(\r\n                        projectRequests[index]._index,\r\n                        projectRequests[index]._title,\r\n                        projectRequests[index]._comments,\r\n                        projectRequests[index]._status,\r\n                        projectRequests[index]._requestStatus,\r\n                        projectRequests[index]._projectAddress,\r\n                        projectRequests[index]._userAddress,\r\n                        projectRequests[index]._requestAddress,\r\n                        block.timestamp,\r\n                        projectRequests[index]._signature\r\n                    );\r\n                    return request;\r\n                }\r\n            }\r\n        }\r\n        return request;\r\n    }\r\n\r\n\r\n    /**  DATA FOR SUPERVISOR && COMPANY  */\r\n\r\n    mapping(uint => Request) public requests;\r\n    uint public requestsCounter = 0;\r\n    address[] public requestsAddress;\r\n\r\n    function createRequest(\r\n        uint _indexProjectRequest,\r\n        bytes32 _title,\r\n        uint _requestStatus,\r\n        uint _projectStatus,\r\n        RequestType _requestType,\r\n        address _projectAddress,\r\n        address _requestAddress\r\n    ) internal {\r\n        requests[requestsCounter] = Request(\r\n            requestsCounter, _indexProjectRequest, _title,\r\n            RequestStatus(_requestStatus), ProjectStatus(_projectStatus),\r\n            _requestType, _projectAddress, _projectInitiator,\r\n            _requestAddress, block.timestamp, ''\r\n        );\r\n\r\n        emit RequestEvent(\r\n            requestsCounter, _indexProjectRequest, _title,\r\n            RequestStatus(_requestStatus), ProjectStatus(_projectStatus),\r\n            _requestType, _projectAddress, _projectInitiator,\r\n            _requestAddress, block.timestamp, ''\r\n        );\r\n        requestsAddress.push(_requestAddress);\r\n        requestsCounter++;\r\n    }\r\n\r\n    function updateRequest(\r\n        uint _index,\r\n        uint _indexProjectRequest,\r\n        string memory _comments,\r\n        uint _requestStatus,\r\n        uint _projectStatus,\r\n        address _projectAddress,\r\n        string memory _signature\r\n    ) public {\r\n        // Update request status in the Requests Mapping and Struct Array\r\n        requests[_index]._requestStatus = RequestStatus(_requestStatus);\r\n        requests[_index]._signature = _signature;\r\n\r\n        //uint index = requests[_index]._index;\r\n        //allRequests[index]._requestStatus = RequestStatus(_requestStatus);\r\n        //allRequests[index]._signature = _signature;\r\n\r\n        // Update project request status in the Project Requests Mapping and Struct Array\r\n        projectRequests[_indexProjectRequest]._comments = _comments;\r\n        projectRequests[_indexProjectRequest]._requestStatus = RequestStatus(_requestStatus);\r\n\r\n        // Update ProjectStatus to the requested status - Porject Mapping and Struct Array\r\n        projects[_projectAddress]._status = ProjectStatus(_projectStatus);\r\n\r\n\r\n        // !!!!! OBSERVATION\r\n        //emit changes for both project request mapping and request mapping\r\n    }\r\n\r\n    function getAllRequests() public view returns(Request[] memory) {\r\n        Request[] memory allRequests = new Request[](requestsCounter);\r\n        for (uint index = 0; index < requestsCounter; index++) {\r\n            Request storage request = requests[index];\r\n            allRequests[index] = request;\r\n        }\r\n        return allRequests;\r\n    }\r\n}\r\n",
  "sourcePath": "/mnt/c/Users/Beniamin/source/repos/DissertationProject/contracts/ProjectChain.sol",
  "compiler": {
    "name": "solc",
    "version": "0.8.10+commit.fc410830.Emscripten.clang"
  },
  "schemaVersion": "3.4.3",
  "updatedAt": "2021-12-01T08:41:41.651Z",
  "networkType": "ethereum",
  "devdoc": {
    "kind": "dev",
    "methods": {},
    "version": 1
  },
  "userdoc": {
    "kind": "user",
    "methods": {
      "projectRequests(uint256)": {
        "notice": "Project Requests  "
      },
      "projects(address)": {
        "notice": "PROJECT INITIATOR  "
      },
      "requests(uint256)": {
        "notice": "DATA FOR SUPERVISOR && COMPANY  "
      }
    },
    "version": 1
  }
}