{
  "contractName": "ProjectChain",
  "abi": [
    {
      "inputs": [],
      "stateMutability": "nonpayable",
      "type": "constructor"
    },
    {
      "anonymous": false,
      "inputs": [
        {
          "components": [
            {
              "internalType": "uint256",
              "name": "_index",
              "type": "uint256"
            },
            {
              "internalType": "string",
              "name": "_name",
              "type": "string"
            },
            {
              "internalType": "enum SharedChain.ProjectStatus",
              "name": "_status",
              "type": "uint8"
            },
            {
              "internalType": "string",
              "name": "_ipfsFileCID",
              "type": "string"
            },
            {
              "internalType": "address",
              "name": "_projectAddress",
              "type": "address"
            },
            {
              "internalType": "address",
              "name": "_signerAddress",
              "type": "address"
            },
            {
              "internalType": "uint256",
              "name": "_timestamp",
              "type": "uint256"
            },
            {
              "internalType": "string",
              "name": "_signature",
              "type": "string"
            }
          ],
          "indexed": false,
          "internalType": "struct SharedChain.Project",
          "name": "_project",
          "type": "tuple"
        },
        {
          "indexed": true,
          "internalType": "address",
          "name": "_projectAddress",
          "type": "address"
        }
      ],
      "name": "ProjectEvent",
      "type": "event"
    },
    {
      "anonymous": false,
      "inputs": [
        {
          "components": [
            {
              "internalType": "uint256",
              "name": "_index",
              "type": "uint256"
            },
            {
              "internalType": "string",
              "name": "_title",
              "type": "string"
            },
            {
              "internalType": "string",
              "name": "_comments",
              "type": "string"
            },
            {
              "internalType": "enum SharedChain.ProjectStatus",
              "name": "_status",
              "type": "uint8"
            },
            {
              "internalType": "enum SharedChain.RequestStatus",
              "name": "_requestStatus",
              "type": "uint8"
            },
            {
              "internalType": "address",
              "name": "_projectAddress",
              "type": "address"
            },
            {
              "internalType": "address",
              "name": "_signerAddress",
              "type": "address"
            },
            {
              "internalType": "address",
              "name": "_requestAddress",
              "type": "address"
            },
            {
              "internalType": "uint256",
              "name": "_timestamp",
              "type": "uint256"
            },
            {
              "internalType": "string",
              "name": "_signature",
              "type": "string"
            }
          ],
          "indexed": false,
          "internalType": "struct SharedChain.ProjectRequest",
          "name": "_projectRequest",
          "type": "tuple"
        },
        {
          "indexed": true,
          "internalType": "address",
          "name": "_projectAddress",
          "type": "address"
        }
      ],
      "name": "ProjectRequestEvent",
      "type": "event"
    },
    {
      "anonymous": false,
      "inputs": [
        {
          "components": [
            {
              "internalType": "uint256",
              "name": "_index",
              "type": "uint256"
            },
            {
              "internalType": "uint256",
              "name": "_indexProjectRequest",
              "type": "uint256"
            },
            {
              "internalType": "string",
              "name": "_title",
              "type": "string"
            },
            {
              "internalType": "enum SharedChain.RequestStatus",
              "name": "_requestStatus",
              "type": "uint8"
            },
            {
              "internalType": "enum SharedChain.ProjectStatus",
              "name": "_projectStatus",
              "type": "uint8"
            },
            {
              "internalType": "enum SharedChain.RequestType",
              "name": "_requestType",
              "type": "uint8"
            },
            {
              "internalType": "address",
              "name": "_projectAddress",
              "type": "address"
            },
            {
              "internalType": "address",
              "name": "_signerAddress",
              "type": "address"
            },
            {
              "internalType": "address",
              "name": "_requestAddress",
              "type": "address"
            },
            {
              "internalType": "uint256",
              "name": "_timestamp",
              "type": "uint256"
            },
            {
              "internalType": "string",
              "name": "_signature",
              "type": "string"
            }
          ],
          "indexed": false,
          "internalType": "struct SharedChain.Request",
          "name": "_request",
          "type": "tuple"
        }
      ],
      "name": "RequestEvent",
      "type": "event"
    },
    {
      "anonymous": false,
      "inputs": [
        {
          "components": [
            {
              "internalType": "uint256",
              "name": "_index",
              "type": "uint256"
            },
            {
              "internalType": "string",
              "name": "_username",
              "type": "string"
            },
            {
              "internalType": "bytes32",
              "name": "_email",
              "type": "bytes32"
            },
            {
              "internalType": "bytes32",
              "name": "_firstname",
              "type": "bytes32"
            },
            {
              "internalType": "bytes32",
              "name": "_lastname",
              "type": "bytes32"
            },
            {
              "internalType": "enum SharedChain.Roles",
              "name": "_role",
              "type": "uint8"
            },
            {
              "internalType": "address",
              "name": "_walletAddress",
              "type": "address"
            },
            {
              "internalType": "uint256",
              "name": "_timestamp",
              "type": "uint256"
            },
            {
              "internalType": "string",
              "name": "_signature",
              "type": "string"
            }
          ],
          "indexed": false,
          "internalType": "struct SharedChain.User",
          "name": "_user",
          "type": "tuple"
        },
        {
          "indexed": true,
          "internalType": "address",
          "name": "_walletAddress",
          "type": "address"
        }
      ],
      "name": "UserEvent",
      "type": "event"
    },
    {
      "inputs": [
        {
          "internalType": "uint256",
          "name": "_role",
          "type": "uint256"
        },
        {
          "internalType": "address",
          "name": "_walletAddress",
          "type": "address"
        },
        {
          "internalType": "string",
          "name": "_signature",
          "type": "string"
        }
      ],
      "name": "changeUserRole",
      "outputs": [],
      "stateMutability": "nonpayable",
      "type": "function"
    },
    {
      "inputs": [],
      "name": "getAllUsers",
      "outputs": [
        {
          "components": [
            {
              "internalType": "uint256",
              "name": "_index",
              "type": "uint256"
            },
            {
              "internalType": "string",
              "name": "_username",
              "type": "string"
            },
            {
              "internalType": "bytes32",
              "name": "_email",
              "type": "bytes32"
            },
            {
              "internalType": "bytes32",
              "name": "_firstname",
              "type": "bytes32"
            },
            {
              "internalType": "bytes32",
              "name": "_lastname",
              "type": "bytes32"
            },
            {
              "internalType": "enum SharedChain.Roles",
              "name": "_role",
              "type": "uint8"
            },
            {
              "internalType": "address",
              "name": "_walletAddress",
              "type": "address"
            },
            {
              "internalType": "uint256",
              "name": "_timestamp",
              "type": "uint256"
            },
            {
              "internalType": "string",
              "name": "_signature",
              "type": "string"
            }
          ],
          "internalType": "struct SharedChain.User[]",
          "name": "",
          "type": "tuple[]"
        }
      ],
      "stateMutability": "view",
      "type": "function",
      "constant": true
    },
    {
      "inputs": [
        {
          "internalType": "address",
          "name": "_walletAddress",
          "type": "address"
        }
      ],
      "name": "getUserInfo",
      "outputs": [
        {
          "components": [
            {
              "internalType": "uint256",
              "name": "_index",
              "type": "uint256"
            },
            {
              "internalType": "string",
              "name": "_username",
              "type": "string"
            },
            {
              "internalType": "bytes32",
              "name": "_email",
              "type": "bytes32"
            },
            {
              "internalType": "bytes32",
              "name": "_firstname",
              "type": "bytes32"
            },
            {
              "internalType": "bytes32",
              "name": "_lastname",
              "type": "bytes32"
            },
            {
              "internalType": "enum SharedChain.Roles",
              "name": "_role",
              "type": "uint8"
            },
            {
              "internalType": "address",
              "name": "_walletAddress",
              "type": "address"
            },
            {
              "internalType": "uint256",
              "name": "_timestamp",
              "type": "uint256"
            },
            {
              "internalType": "string",
              "name": "_signature",
              "type": "string"
            }
          ],
          "internalType": "struct SharedChain.User",
          "name": "",
          "type": "tuple"
        }
      ],
      "stateMutability": "view",
      "type": "function",
      "constant": true
    },
    {
      "inputs": [],
      "name": "owner",
      "outputs": [
        {
          "internalType": "address",
          "name": "",
          "type": "address"
        }
      ],
      "stateMutability": "view",
      "type": "function",
      "constant": true
    },
    {
      "inputs": [
        {
          "internalType": "uint256",
          "name": "",
          "type": "uint256"
        }
      ],
      "name": "projectRequests",
      "outputs": [
        {
          "internalType": "uint256",
          "name": "_index",
          "type": "uint256"
        },
        {
          "internalType": "string",
          "name": "_title",
          "type": "string"
        },
        {
          "internalType": "string",
          "name": "_comments",
          "type": "string"
        },
        {
          "internalType": "enum SharedChain.ProjectStatus",
          "name": "_status",
          "type": "uint8"
        },
        {
          "internalType": "enum SharedChain.RequestStatus",
          "name": "_requestStatus",
          "type": "uint8"
        },
        {
          "internalType": "address",
          "name": "_projectAddress",
          "type": "address"
        },
        {
          "internalType": "address",
          "name": "_signerAddress",
          "type": "address"
        },
        {
          "internalType": "address",
          "name": "_requestAddress",
          "type": "address"
        },
        {
          "internalType": "uint256",
          "name": "_timestamp",
          "type": "uint256"
        },
        {
          "internalType": "string",
          "name": "_signature",
          "type": "string"
        }
      ],
      "stateMutability": "view",
      "type": "function",
      "constant": true
    },
    {
      "inputs": [
        {
          "internalType": "uint256",
          "name": "",
          "type": "uint256"
        }
      ],
      "name": "projectRequestsAddress",
      "outputs": [
        {
          "internalType": "address",
          "name": "",
          "type": "address"
        }
      ],
      "stateMutability": "view",
      "type": "function",
      "constant": true
    },
    {
      "inputs": [],
      "name": "projectRequestsCounter",
      "outputs": [
        {
          "internalType": "uint256",
          "name": "",
          "type": "uint256"
        }
      ],
      "stateMutability": "view",
      "type": "function",
      "constant": true
    },
    {
      "inputs": [
        {
          "internalType": "address",
          "name": "",
          "type": "address"
        }
      ],
      "name": "projects",
      "outputs": [
        {
          "internalType": "uint256",
          "name": "_index",
          "type": "uint256"
        },
        {
          "internalType": "string",
          "name": "_name",
          "type": "string"
        },
        {
          "internalType": "enum SharedChain.ProjectStatus",
          "name": "_status",
          "type": "uint8"
        },
        {
          "internalType": "string",
          "name": "_ipfsFileCID",
          "type": "string"
        },
        {
          "internalType": "address",
          "name": "_projectAddress",
          "type": "address"
        },
        {
          "internalType": "address",
          "name": "_signerAddress",
          "type": "address"
        },
        {
          "internalType": "uint256",
          "name": "_timestamp",
          "type": "uint256"
        },
        {
          "internalType": "string",
          "name": "_signature",
          "type": "string"
        }
      ],
      "stateMutability": "view",
      "type": "function",
      "constant": true
    },
    {
      "inputs": [
        {
          "internalType": "uint256",
          "name": "",
          "type": "uint256"
        }
      ],
      "name": "projectsAddress",
      "outputs": [
        {
          "internalType": "address",
          "name": "",
          "type": "address"
        }
      ],
      "stateMutability": "view",
      "type": "function",
      "constant": true
    },
    {
      "inputs": [],
      "name": "projectsCounter",
      "outputs": [
        {
          "internalType": "uint256",
          "name": "",
          "type": "uint256"
        }
      ],
      "stateMutability": "view",
      "type": "function",
      "constant": true
    },
    {
      "inputs": [
        {
          "internalType": "string",
          "name": "_username",
          "type": "string"
        },
        {
          "internalType": "bytes32",
          "name": "_email",
          "type": "bytes32"
        },
        {
          "internalType": "bytes32",
          "name": "_firstname",
          "type": "bytes32"
        },
        {
          "internalType": "bytes32",
          "name": "_lastname",
          "type": "bytes32"
        },
        {
          "internalType": "uint256",
          "name": "_role",
          "type": "uint256"
        },
        {
          "internalType": "address",
          "name": "_walletAddress",
          "type": "address"
        },
        {
          "internalType": "string",
          "name": "_signature",
          "type": "string"
        }
      ],
      "name": "registerUser",
      "outputs": [],
      "stateMutability": "nonpayable",
      "type": "function"
    },
    {
      "inputs": [
        {
          "internalType": "uint256",
          "name": "",
          "type": "uint256"
        }
      ],
      "name": "requests",
      "outputs": [
        {
          "internalType": "uint256",
          "name": "_index",
          "type": "uint256"
        },
        {
          "internalType": "uint256",
          "name": "_indexProjectRequest",
          "type": "uint256"
        },
        {
          "internalType": "string",
          "name": "_title",
          "type": "string"
        },
        {
          "internalType": "enum SharedChain.RequestStatus",
          "name": "_requestStatus",
          "type": "uint8"
        },
        {
          "internalType": "enum SharedChain.ProjectStatus",
          "name": "_projectStatus",
          "type": "uint8"
        },
        {
          "internalType": "enum SharedChain.RequestType",
          "name": "_requestType",
          "type": "uint8"
        },
        {
          "internalType": "address",
          "name": "_projectAddress",
          "type": "address"
        },
        {
          "internalType": "address",
          "name": "_signerAddress",
          "type": "address"
        },
        {
          "internalType": "address",
          "name": "_requestAddress",
          "type": "address"
        },
        {
          "internalType": "uint256",
          "name": "_timestamp",
          "type": "uint256"
        },
        {
          "internalType": "string",
          "name": "_signature",
          "type": "string"
        }
      ],
      "stateMutability": "view",
      "type": "function",
      "constant": true
    },
    {
      "inputs": [],
      "name": "requestsCounter",
      "outputs": [
        {
          "internalType": "uint256",
          "name": "",
          "type": "uint256"
        }
      ],
      "stateMutability": "view",
      "type": "function",
      "constant": true
    },
    {
      "inputs": [
        {
          "internalType": "address",
          "name": "",
          "type": "address"
        }
      ],
      "name": "users",
      "outputs": [
        {
          "internalType": "uint256",
          "name": "_index",
          "type": "uint256"
        },
        {
          "internalType": "string",
          "name": "_username",
          "type": "string"
        },
        {
          "internalType": "bytes32",
          "name": "_email",
          "type": "bytes32"
        },
        {
          "internalType": "bytes32",
          "name": "_firstname",
          "type": "bytes32"
        },
        {
          "internalType": "bytes32",
          "name": "_lastname",
          "type": "bytes32"
        },
        {
          "internalType": "enum SharedChain.Roles",
          "name": "_role",
          "type": "uint8"
        },
        {
          "internalType": "address",
          "name": "_walletAddress",
          "type": "address"
        },
        {
          "internalType": "uint256",
          "name": "_timestamp",
          "type": "uint256"
        },
        {
          "internalType": "string",
          "name": "_signature",
          "type": "string"
        }
      ],
      "stateMutability": "view",
      "type": "function",
      "constant": true
    },
    {
      "inputs": [
        {
          "internalType": "uint256",
          "name": "",
          "type": "uint256"
        }
      ],
      "name": "usersAddress",
      "outputs": [
        {
          "internalType": "address",
          "name": "",
          "type": "address"
        }
      ],
      "stateMutability": "view",
      "type": "function",
      "constant": true
    },
    {
      "inputs": [],
      "name": "usersCounter",
      "outputs": [
        {
          "internalType": "uint256",
          "name": "",
          "type": "uint256"
        }
      ],
      "stateMutability": "view",
      "type": "function",
      "constant": true
    },
    {
      "inputs": [
        {
          "internalType": "string",
          "name": "_name",
          "type": "string"
        },
        {
          "internalType": "uint256",
          "name": "_index",
          "type": "uint256"
        }
      ],
      "name": "createUniqueProjectAddress",
      "outputs": [
        {
          "internalType": "address",
          "name": "",
          "type": "address"
        }
      ],
      "stateMutability": "view",
      "type": "function",
      "constant": true
    },
    {
      "inputs": [
        {
          "internalType": "address",
          "name": "_projectAddress",
          "type": "address"
        },
        {
          "internalType": "string",
          "name": "_name",
          "type": "string"
        },
        {
          "internalType": "uint256",
          "name": "_status",
          "type": "uint256"
        },
        {
          "internalType": "string",
          "name": "_ipfsFileCID",
          "type": "string"
        },
        {
          "internalType": "string",
          "name": "_signature",
          "type": "string"
        }
      ],
      "name": "createProject",
      "outputs": [],
      "stateMutability": "nonpayable",
      "type": "function"
    },
    {
      "inputs": [
        {
          "internalType": "address",
          "name": "_projectAddress",
          "type": "address"
        },
        {
          "internalType": "string",
          "name": "_ipfsFileCID",
          "type": "string"
        },
        {
          "internalType": "string",
          "name": "_signature",
          "type": "string"
        }
      ],
      "name": "updateProject",
      "outputs": [],
      "stateMutability": "nonpayable",
      "type": "function"
    },
    {
      "inputs": [
        {
          "internalType": "address",
          "name": "_address",
          "type": "address"
        }
      ],
      "name": "getProjectInfo",
      "outputs": [
        {
          "components": [
            {
              "internalType": "uint256",
              "name": "_index",
              "type": "uint256"
            },
            {
              "internalType": "string",
              "name": "_name",
              "type": "string"
            },
            {
              "internalType": "enum SharedChain.ProjectStatus",
              "name": "_status",
              "type": "uint8"
            },
            {
              "internalType": "string",
              "name": "_ipfsFileCID",
              "type": "string"
            },
            {
              "internalType": "address",
              "name": "_projectAddress",
              "type": "address"
            },
            {
              "internalType": "address",
              "name": "_signerAddress",
              "type": "address"
            },
            {
              "internalType": "uint256",
              "name": "_timestamp",
              "type": "uint256"
            },
            {
              "internalType": "string",
              "name": "_signature",
              "type": "string"
            }
          ],
          "internalType": "struct SharedChain.Project",
          "name": "",
          "type": "tuple"
        }
      ],
      "stateMutability": "view",
      "type": "function",
      "constant": true
    },
    {
      "inputs": [],
      "name": "getAllProjects",
      "outputs": [
        {
          "components": [
            {
              "internalType": "uint256",
              "name": "_index",
              "type": "uint256"
            },
            {
              "internalType": "string",
              "name": "_name",
              "type": "string"
            },
            {
              "internalType": "enum SharedChain.ProjectStatus",
              "name": "_status",
              "type": "uint8"
            },
            {
              "internalType": "string",
              "name": "_ipfsFileCID",
              "type": "string"
            },
            {
              "internalType": "address",
              "name": "_projectAddress",
              "type": "address"
            },
            {
              "internalType": "address",
              "name": "_signerAddress",
              "type": "address"
            },
            {
              "internalType": "uint256",
              "name": "_timestamp",
              "type": "uint256"
            },
            {
              "internalType": "string",
              "name": "_signature",
              "type": "string"
            }
          ],
          "internalType": "struct SharedChain.Project[]",
          "name": "",
          "type": "tuple[]"
        }
      ],
      "stateMutability": "view",
      "type": "function",
      "constant": true
    },
    {
      "inputs": [
        {
          "internalType": "string",
          "name": "_title",
          "type": "string"
        },
        {
          "internalType": "uint256",
          "name": "_index",
          "type": "uint256"
        }
      ],
      "name": "createUniqueProjectRequestAddress",
      "outputs": [
        {
          "internalType": "address",
          "name": "",
          "type": "address"
        }
      ],
      "stateMutability": "view",
      "type": "function",
      "constant": true
    },
    {
      "inputs": [
        {
          "internalType": "string",
          "name": "_title",
          "type": "string"
        },
        {
          "internalType": "uint256",
          "name": "_status",
          "type": "uint256"
        },
        {
          "internalType": "uint256",
          "name": "_requestStatus",
          "type": "uint256"
        },
        {
          "internalType": "address",
          "name": "_projectAddress",
          "type": "address"
        },
        {
          "internalType": "address",
          "name": "_projectReqAddress",
          "type": "address"
        },
        {
          "internalType": "string",
          "name": "_signature",
          "type": "string"
        }
      ],
      "name": "createProjectRequest",
      "outputs": [],
      "stateMutability": "nonpayable",
      "type": "function"
    },
    {
      "inputs": [],
      "name": "getAllProjectRequests",
      "outputs": [
        {
          "components": [
            {
              "internalType": "uint256",
              "name": "_index",
              "type": "uint256"
            },
            {
              "internalType": "string",
              "name": "_title",
              "type": "string"
            },
            {
              "internalType": "string",
              "name": "_comments",
              "type": "string"
            },
            {
              "internalType": "enum SharedChain.ProjectStatus",
              "name": "_status",
              "type": "uint8"
            },
            {
              "internalType": "enum SharedChain.RequestStatus",
              "name": "_requestStatus",
              "type": "uint8"
            },
            {
              "internalType": "address",
              "name": "_projectAddress",
              "type": "address"
            },
            {
              "internalType": "address",
              "name": "_signerAddress",
              "type": "address"
            },
            {
              "internalType": "address",
              "name": "_requestAddress",
              "type": "address"
            },
            {
              "internalType": "uint256",
              "name": "_timestamp",
              "type": "uint256"
            },
            {
              "internalType": "string",
              "name": "_signature",
              "type": "string"
            }
          ],
          "internalType": "struct SharedChain.ProjectRequest[]",
          "name": "",
          "type": "tuple[]"
        }
      ],
      "stateMutability": "view",
      "type": "function",
      "constant": true
    },
    {
      "inputs": [
        {
          "internalType": "address",
          "name": "_projectAddress",
          "type": "address"
        }
      ],
      "name": "getLastProjectRequest",
      "outputs": [
        {
          "components": [
            {
              "internalType": "uint256",
              "name": "_index",
              "type": "uint256"
            },
            {
              "internalType": "string",
              "name": "_title",
              "type": "string"
            },
            {
              "internalType": "string",
              "name": "_comments",
              "type": "string"
            },
            {
              "internalType": "enum SharedChain.ProjectStatus",
              "name": "_status",
              "type": "uint8"
            },
            {
              "internalType": "enum SharedChain.RequestStatus",
              "name": "_requestStatus",
              "type": "uint8"
            },
            {
              "internalType": "address",
              "name": "_projectAddress",
              "type": "address"
            },
            {
              "internalType": "address",
              "name": "_signerAddress",
              "type": "address"
            },
            {
              "internalType": "address",
              "name": "_requestAddress",
              "type": "address"
            },
            {
              "internalType": "uint256",
              "name": "_timestamp",
              "type": "uint256"
            },
            {
              "internalType": "string",
              "name": "_signature",
              "type": "string"
            }
          ],
          "internalType": "struct SharedChain.ProjectRequest",
          "name": "",
          "type": "tuple"
        }
      ],
      "stateMutability": "view",
      "type": "function",
      "constant": true
    },
    {
      "inputs": [
        {
          "internalType": "uint256",
          "name": "_index",
          "type": "uint256"
        },
        {
          "internalType": "uint256",
          "name": "_indexProjectRequest",
          "type": "uint256"
        },
        {
          "internalType": "string",
          "name": "_comments",
          "type": "string"
        },
        {
          "internalType": "uint256",
          "name": "_requestStatus",
          "type": "uint256"
        },
        {
          "internalType": "uint256",
          "name": "_projectStatus",
          "type": "uint256"
        },
        {
          "internalType": "address",
          "name": "_projectAddress",
          "type": "address"
        },
        {
          "internalType": "string",
          "name": "_signature",
          "type": "string"
        }
      ],
      "name": "updateRequest",
      "outputs": [],
      "stateMutability": "nonpayable",
      "type": "function"
    },
    {
      "inputs": [],
      "name": "getAllRequests",
      "outputs": [
        {
          "components": [
            {
              "internalType": "uint256",
              "name": "_index",
              "type": "uint256"
            },
            {
              "internalType": "uint256",
              "name": "_indexProjectRequest",
              "type": "uint256"
            },
            {
              "internalType": "string",
              "name": "_title",
              "type": "string"
            },
            {
              "internalType": "enum SharedChain.RequestStatus",
              "name": "_requestStatus",
              "type": "uint8"
            },
            {
              "internalType": "enum SharedChain.ProjectStatus",
              "name": "_projectStatus",
              "type": "uint8"
            },
            {
              "internalType": "enum SharedChain.RequestType",
              "name": "_requestType",
              "type": "uint8"
            },
            {
              "internalType": "address",
              "name": "_projectAddress",
              "type": "address"
            },
            {
              "internalType": "address",
              "name": "_signerAddress",
              "type": "address"
            },
            {
              "internalType": "address",
              "name": "_requestAddress",
              "type": "address"
            },
            {
              "internalType": "uint256",
              "name": "_timestamp",
              "type": "uint256"
            },
            {
              "internalType": "string",
              "name": "_signature",
              "type": "string"
            }
          ],
          "internalType": "struct SharedChain.Request[]",
          "name": "",
          "type": "tuple[]"
        }
      ],
      "stateMutability": "view",
      "type": "function",
      "constant": true
    }
  ],
  "bytecode": "0x60806040526000600355600060065560006009556000600c5534801561002457600080fd5b50336000806101000a81548173ffffffffffffffffffffffffffffffffffffffff021916908373ffffffffffffffffffffffffffffffffffffffff16021790555033600460006101000a81548173ffffffffffffffffffffffffffffffffffffffff021916908373ffffffffffffffffffffffffffffffffffffffff160217905550615e7e80620000b66000396000f3fe608060405234801561001057600080fd5b50600436106101a95760003560e01c8063840e78fd116100f9578063d67b1b9911610097578063e2842d7911610071578063e2842d7914610550578063fb1a002a1461056e578063fbdd64601461058c578063fe360ea5146105a8576101a9565b8063d67b1b99146104fa578063d6a6982314610518578063e1592c0d14610534576101a9565b8063a87430ba116100d3578063a87430ba1461044f578063b2ddb90714610487578063c19ded13146104a3578063cc1ee4db146104dc576101a9565b8063840e78fd146103de57806384485563146104155780638da5cb5b14610431576101a9565b80636386c1c71161016657806378e8cd851161014057806378e8cd85146103265780637bc406ec1461035657806380d038291461038657806381d12c58146103a4576101a9565b80636386c1c7146102a8578063663c2269146102d857806376c932e0146102f6576101a9565b80630b287892146101ae578063191e1645146101de5780632c91324c1461020e5780632d757d8e1461023e578063400003db1461025a57806347ee45b914610278575b600080fd5b6101c860048036038101906101c39190613e3e565b6105c6565b6040516101d591906140d3565b60405180910390f35b6101f860048036038101906101f39190614256565b6107eb565b60405161020591906142c1565b60405180910390f35b610228600480360381019061022391906142dc565b610845565b60405161023591906142c1565b60405180910390f35b61025860048036038101906102539190614309565b610884565b005b610262610b9e565b60405161026f919061458d565b60405180910390f35b610292600480360381019061028d9190613e3e565b610fbb565b60405161029f919061466d565b60405180910390f35b6102c260048036038101906102bd9190613e3e565b6112c6565b6040516102cf91906147bc565b60405180910390f35b6102e0611507565b6040516102ed91906147ed565b60405180910390f35b610310600480360381019061030b91906142dc565b61150d565b60405161031d91906142c1565b60405180910390f35b610340600480360381019061033b91906142dc565b61154c565b60405161034d91906142c1565b60405180910390f35b610370600480360381019061036b9190614256565b61158b565b60405161037d91906142c1565b60405180910390f35b61038e6115e5565b60405161039b9190614988565b60405180910390f35b6103be60048036038101906103b991906142dc565b6119e1565b6040516103d59b9a99989796959493929190614a5a565b60405180910390f35b6103f860048036038101906103f39190613e3e565b611bd2565b60405161040c989796959493929190614b13565b60405180910390f35b61042f600480360381019061042a9190614ba6565b611dff565b005b610439612126565b60405161044691906142c1565b60405180910390f35b61046960048036038101906104649190613e3e565b61214a565b60405161047e99989796959493929190614c93565b60405180910390f35b6104a1600480360381019061049c9190614d2e565b6122d5565b005b6104bd60048036038101906104b891906142dc565b612480565b6040516104d39a99989796959493929190614d9d565b60405180910390f35b6104e46126e6565b6040516104f191906147ed565b60405180910390f35b6105026126ec565b60405161050f91906147ed565b60405180910390f35b610532600480360381019061052d9190614e7a565b6126f2565b005b61054e60048036038101906105499190614f54565b612a32565b005b610558612b71565b604051610565919061516d565b60405180910390f35b610576612e8f565b6040516105839190615356565b60405180910390f35b6105a660048036038101906105a19190615378565b61325f565b005b6105b0613611565b6040516105bd91906147ed565b60405180910390f35b6105ce613a9e565b6105d6613a9e565b600060095411156107e157600060016009546105f2919061546c565b90505b600081106107df576008600082815260200190815260200160002060030160029054906101000a900473ffffffffffffffffffffffffffffffffffffffff1673ffffffffffffffffffffffffffffffffffffffff168473ffffffffffffffffffffffffffffffffffffffff1614156107cc57604051806101400160405280600081526020016040518060200160405280600081525081526020016040518060200160405280600081525081526020016008600084815260200190815260200160002060030160009054906101000a900460ff1660048111156106da576106d9613f1d565b5b81526020016008600084815260200190815260200160002060030160019054906101000a900460ff16600281111561071557610714613f1d565b5b81526020016008600084815260200190815260200160002060030160029054906101000a900473ffffffffffffffffffffffffffffffffffffffff1673ffffffffffffffffffffffffffffffffffffffff168152602001600073ffffffffffffffffffffffffffffffffffffffff168152602001600073ffffffffffffffffffffffffffffffffffffffff1681526020016000815260200160405180602001604052806000815250815250915081925050506107e6565b80806107d7906154a0565b9150506105f5565b505b809150505b919050565b600082600460009054906101000a900473ffffffffffffffffffffffffffffffffffffffff16836040516020016108249392919061556f565b6040516020818303038152906040528051906020012060001c905092915050565b6002818154811061085557600080fd5b906000526020600020016000915054906101000a900473ffffffffffffffffffffffffffffffffffffffff1681565b83600281111561089757610896613f1d565b5b600b600089815260200190815260200160002060030160006101000a81548160ff021916908360028111156108cf576108ce613f1d565b5b021790555080600b600089815260200190815260200160002060070190805190602001906108fe929190613b57565b507ff6ce78692ad338bc638c20ce19f064d65feafa9df8ee93c26325f243c24f714e600b60008981526020019081526020016000206040516109409190615900565b60405180910390a184600860008881526020019081526020016000206002019080519060200190610972929190613b57565b5083600281111561098657610985613f1d565b5b6008600088815260200190815260200160002060030160016101000a81548160ff021916908360028111156109be576109bd613f1d565b5b0217905550806008600088815260200190815260200160002060070190805190602001906109ed929190613b57565b508173ffffffffffffffffffffffffffffffffffffffff167fb503855b01edd8caf0051e68bacef096056daa0d24478362eaa8a4f4b8a7130e60086000898152602001908152602001600020604051610a469190615a94565b60405180910390a2836002811115610a6157610a60613f1d565b5b6002811115610a7357610a72613f1d565b5b600280811115610a8657610a85613f1d565b5b1415610b9557826004811115610a9f57610a9e613f1d565b5b600560008473ffffffffffffffffffffffffffffffffffffffff1673ffffffffffffffffffffffffffffffffffffffff16815260200190815260200160002060020160006101000a81548160ff02191690836004811115610b0357610b02613f1d565b5b02179055508173ffffffffffffffffffffffffffffffffffffffff167fac85378acf27ea180ea9b66d81dac89bcc984812edf7111c9413f708da4ca37a600560008573ffffffffffffffffffffffffffffffffffffffff1673ffffffffffffffffffffffffffffffffffffffff168152602001908152602001600020604051610b8c9190615baa565b60405180910390a25b50505050505050565b60608060006009541415610bb55780915050610fb8565b60095467ffffffffffffffff811115610bd157610bd06140ff565b5b604051908082528060200260200182016040528015610c0a57816020015b610bf7613a9e565b815260200190600190039081610bef5790505b50905060005b600954811015610fb2576000600860008381526020019081526020016000209050806040518061014001604052908160008201548152602001600182018054610c5890615608565b80601f0160208091040260200160405190810160405280929190818152602001828054610c8490615608565b8015610cd15780601f10610ca657610100808354040283529160200191610cd1565b820191906000526020600020905b815481529060010190602001808311610cb457829003601f168201915b50505050508152602001600282018054610cea90615608565b80601f0160208091040260200160405190810160405280929190818152602001828054610d1690615608565b8015610d635780601f10610d3857610100808354040283529160200191610d63565b820191906000526020600020905b815481529060010190602001808311610d4657829003601f168201915b505050505081526020016003820160009054906101000a900460ff166004811115610d9157610d90613f1d565b5b6004811115610da357610da2613f1d565b5b81526020016003820160019054906101000a900460ff166002811115610dcc57610dcb613f1d565b5b6002811115610dde57610ddd613f1d565b5b81526020016003820160029054906101000a900473ffffffffffffffffffffffffffffffffffffffff1673ffffffffffffffffffffffffffffffffffffffff1673ffffffffffffffffffffffffffffffffffffffff1681526020016004820160009054906101000a900473ffffffffffffffffffffffffffffffffffffffff1673ffffffffffffffffffffffffffffffffffffffff1673ffffffffffffffffffffffffffffffffffffffff1681526020016005820160009054906101000a900473ffffffffffffffffffffffffffffffffffffffff1673ffffffffffffffffffffffffffffffffffffffff1673ffffffffffffffffffffffffffffffffffffffff16815260200160068201548152602001600782018054610efe90615608565b80601f0160208091040260200160405190810160405280929190818152602001828054610f2a90615608565b8015610f775780601f10610f4c57610100808354040283529160200191610f77565b820191906000526020600020905b815481529060010190602001808311610f5a57829003601f168201915b505050505081525050838381518110610f9357610f92615bcc565b5b6020026020010181905250508080610faa90615bfb565b915050610c10565b50809150505b90565b610fc3613bdd565b600560008373ffffffffffffffffffffffffffffffffffffffff1673ffffffffffffffffffffffffffffffffffffffff168152602001908152602001600020604051806101000160405290816000820154815260200160018201805461102890615608565b80601f016020809104026020016040519081016040528092919081815260200182805461105490615608565b80156110a15780601f10611076576101008083540402835291602001916110a1565b820191906000526020600020905b81548152906001019060200180831161108457829003601f168201915b505050505081526020016002820160009054906101000a900460ff1660048111156110cf576110ce613f1d565b5b60048111156110e1576110e0613f1d565b5b81526020016003820180546110f590615608565b80601f016020809104026020016040519081016040528092919081815260200182805461112190615608565b801561116e5780601f106111435761010080835404028352916020019161116e565b820191906000526020600020905b81548152906001019060200180831161115157829003601f168201915b505050505081526020016004820160009054906101000a900473ffffffffffffffffffffffffffffffffffffffff1673ffffffffffffffffffffffffffffffffffffffff1673ffffffffffffffffffffffffffffffffffffffff1681526020016005820160009054906101000a900473ffffffffffffffffffffffffffffffffffffffff1673ffffffffffffffffffffffffffffffffffffffff1673ffffffffffffffffffffffffffffffffffffffff1681526020016006820154815260200160078201805461123d90615608565b80601f016020809104026020016040519081016040528092919081815260200182805461126990615608565b80156112b65780601f1061128b576101008083540402835291602001916112b6565b820191906000526020600020905b81548152906001019060200180831161129957829003601f168201915b5050505050815250509050919050565b6112ce613c60565b600160008373ffffffffffffffffffffffffffffffffffffffff1673ffffffffffffffffffffffffffffffffffffffff168152602001908152602001600020604051806101200160405290816000820154815260200160018201805461133390615608565b80601f016020809104026020016040519081016040528092919081815260200182805461135f90615608565b80156113ac5780601f10611381576101008083540402835291602001916113ac565b820191906000526020600020905b81548152906001019060200180831161138f57829003601f168201915b505050505081526020016002820154815260200160038201548152602001600482015481526020016005820160009054906101000a900460ff1660038111156113f8576113f7613f1d565b5b600381111561140a57611409613f1d565b5b81526020016005820160019054906101000a900473ffffffffffffffffffffffffffffffffffffffff1673ffffffffffffffffffffffffffffffffffffffff1673ffffffffffffffffffffffffffffffffffffffff1681526020016006820154815260200160078201805461147e90615608565b80601f01602080910402602001604051908101604052809291908181526020018280546114aa90615608565b80156114f75780601f106114cc576101008083540402835291602001916114f7565b820191906000526020600020905b8154815290600101906020018083116114da57829003601f168201915b5050505050815250509050919050565b600c5481565b6007818154811061151d57600080fd5b906000526020600020016000915054906101000a900473ffffffffffffffffffffffffffffffffffffffff1681565b600a818154811061155c57600080fd5b906000526020600020016000915054906101000a900473ffffffffffffffffffffffffffffffffffffffff1681565b600082600460009054906101000a900473ffffffffffffffffffffffffffffffffffffffff16836040516020016115c49392919061556f565b6040516020818303038152906040528051906020012060001c905092915050565b606080600060065414156115fc57809150506119de565b60065467ffffffffffffffff811115611618576116176140ff565b5b60405190808252806020026020018201604052801561165157816020015b61163e613bdd565b8152602001906001900390816116365790505b50905060005b6006548110156119d85760006007828154811061167757611676615bcc565b5b9060005260206000200160009054906101000a900473ffffffffffffffffffffffffffffffffffffffff1690506000600560008373ffffffffffffffffffffffffffffffffffffffff1673ffffffffffffffffffffffffffffffffffffffff168152602001908152602001600020905080604051806101000160405290816000820154815260200160018201805461170e90615608565b80601f016020809104026020016040519081016040528092919081815260200182805461173a90615608565b80156117875780601f1061175c57610100808354040283529160200191611787565b820191906000526020600020905b81548152906001019060200180831161176a57829003601f168201915b505050505081526020016002820160009054906101000a900460ff1660048111156117b5576117b4613f1d565b5b60048111156117c7576117c6613f1d565b5b81526020016003820180546117db90615608565b80601f016020809104026020016040519081016040528092919081815260200182805461180790615608565b80156118545780601f1061182957610100808354040283529160200191611854565b820191906000526020600020905b81548152906001019060200180831161183757829003601f168201915b505050505081526020016004820160009054906101000a900473ffffffffffffffffffffffffffffffffffffffff1673ffffffffffffffffffffffffffffffffffffffff1673ffffffffffffffffffffffffffffffffffffffff1681526020016005820160009054906101000a900473ffffffffffffffffffffffffffffffffffffffff1673ffffffffffffffffffffffffffffffffffffffff1673ffffffffffffffffffffffffffffffffffffffff1681526020016006820154815260200160078201805461192390615608565b80601f016020809104026020016040519081016040528092919081815260200182805461194f90615608565b801561199c5780601f106119715761010080835404028352916020019161199c565b820191906000526020600020905b81548152906001019060200180831161197f57829003601f168201915b5050505050815250508484815181106119b8576119b7615bcc565b5b6020026020010181905250505080806119d090615bfb565b915050611657565b50809150505b90565b600b602052806000526040600020600091509050806000015490806001015490806002018054611a1090615608565b80601f0160208091040260200160405190810160405280929190818152602001828054611a3c90615608565b8015611a895780601f10611a5e57610100808354040283529160200191611a89565b820191906000526020600020905b815481529060010190602001808311611a6c57829003601f168201915b5050505050908060030160009054906101000a900460ff16908060030160019054906101000a900460ff16908060030160029054906101000a900460ff16908060030160039054906101000a900473ffffffffffffffffffffffffffffffffffffffff16908060040160009054906101000a900473ffffffffffffffffffffffffffffffffffffffff16908060050160009054906101000a900473ffffffffffffffffffffffffffffffffffffffff1690806006015490806007018054611b4f90615608565b80601f0160208091040260200160405190810160405280929190818152602001828054611b7b90615608565b8015611bc85780601f10611b9d57610100808354040283529160200191611bc8565b820191906000526020600020905b815481529060010190602001808311611bab57829003601f168201915b505050505090508b565b6005602052806000526040600020600091509050806000015490806001018054611bfb90615608565b80601f0160208091040260200160405190810160405280929190818152602001828054611c2790615608565b8015611c745780601f10611c4957610100808354040283529160200191611c74565b820191906000526020600020905b815481529060010190602001808311611c5757829003601f168201915b5050505050908060020160009054906101000a900460ff1690806003018054611c9c90615608565b80601f0160208091040260200160405190810160405280929190818152602001828054611cc890615608565b8015611d155780601f10611cea57610100808354040283529160200191611d15565b820191906000526020600020905b815481529060010190602001808311611cf857829003601f168201915b5050505050908060040160009054906101000a900473ffffffffffffffffffffffffffffffffffffffff16908060050160009054906101000a900473ffffffffffffffffffffffffffffffffffffffff1690806006015490806007018054611d7c90615608565b80601f0160208091040260200160405190810160405280929190818152602001828054611da890615608565b8015611df55780601f10611dca57610100808354040283529160200191611df5565b820191906000526020600020905b815481529060010190602001808311611dd857829003601f168201915b5050505050905088565b6040518061010001604052806006548152602001858152602001846004811115611e2c57611e2b613f1d565b5b6004811115611e3e57611e3d613f1d565b5b81526020018381526020018673ffffffffffffffffffffffffffffffffffffffff168152602001600460009054906101000a900473ffffffffffffffffffffffffffffffffffffffff1673ffffffffffffffffffffffffffffffffffffffff16815260200142815260200182815250600560008773ffffffffffffffffffffffffffffffffffffffff1673ffffffffffffffffffffffffffffffffffffffff168152602001908152602001600020600082015181600001556020820151816001019080519060200190611f12929190613b57565b5060408201518160020160006101000a81548160ff02191690836004811115611f3e57611f3d613f1d565b5b02179055506060820151816003019080519060200190611f5f929190613b57565b5060808201518160040160006101000a81548173ffffffffffffffffffffffffffffffffffffffff021916908373ffffffffffffffffffffffffffffffffffffffff16021790555060a08201518160050160006101000a81548173ffffffffffffffffffffffffffffffffffffffff021916908373ffffffffffffffffffffffffffffffffffffffff16021790555060c0820151816006015560e0820151816007019080519060200190612014929190613b57565b509050508473ffffffffffffffffffffffffffffffffffffffff167fac85378acf27ea180ea9b66d81dac89bcc984812edf7111c9413f708da4ca37a600560008873ffffffffffffffffffffffffffffffffffffffff1673ffffffffffffffffffffffffffffffffffffffff16815260200190815260200160002060405161209c9190615baa565b60405180910390a26007859080600181540180825580915050600190039060005260206000200160009091909190916101000a81548173ffffffffffffffffffffffffffffffffffffffff021916908373ffffffffffffffffffffffffffffffffffffffff1602179055506006600081548092919061211a90615bfb565b91905055505050505050565b60008054906101000a900473ffffffffffffffffffffffffffffffffffffffff1681565b600160205280600052604060002060009150905080600001549080600101805461217390615608565b80601f016020809104026020016040519081016040528092919081815260200182805461219f90615608565b80156121ec5780601f106121c1576101008083540402835291602001916121ec565b820191906000526020600020905b8154815290600101906020018083116121cf57829003601f168201915b5050505050908060020154908060030154908060040154908060050160009054906101000a900460ff16908060050160019054906101000a900473ffffffffffffffffffffffffffffffffffffffff169080600601549080600701805461225290615608565b80601f016020809104026020016040519081016040528092919081815260200182805461227e90615608565b80156122cb5780601f106122a0576101008083540402835291602001916122cb565b820191906000526020600020905b8154815290600101906020018083116122ae57829003601f168201915b5050505050905089565b8260038111156122e8576122e7613f1d565b5b600160008473ffffffffffffffffffffffffffffffffffffffff1673ffffffffffffffffffffffffffffffffffffffff16815260200190815260200160002060050160006101000a81548160ff0219169083600381111561234c5761234b613f1d565b5b021790555042600160008473ffffffffffffffffffffffffffffffffffffffff1673ffffffffffffffffffffffffffffffffffffffff1681526020019081526020016000206006018190555080600160008473ffffffffffffffffffffffffffffffffffffffff1673ffffffffffffffffffffffffffffffffffffffff16815260200190815260200160002060070190805190602001906123ee929190613b57565b508173ffffffffffffffffffffffffffffffffffffffff167fea397c4f2735f95720bbf4d2e061d639bec950d2f3e162d0b19e02a2354c7cca600160008573ffffffffffffffffffffffffffffffffffffffff1673ffffffffffffffffffffffffffffffffffffffff1681526020019081526020016000206040516124739190615dba565b60405180910390a2505050565b60086020528060005260406000206000915090508060000154908060010180546124a990615608565b80601f01602080910402602001604051908101604052809291908181526020018280546124d590615608565b80156125225780601f106124f757610100808354040283529160200191612522565b820191906000526020600020905b81548152906001019060200180831161250557829003601f168201915b50505050509080600201805461253790615608565b80601f016020809104026020016040519081016040528092919081815260200182805461256390615608565b80156125b05780601f10612585576101008083540402835291602001916125b0565b820191906000526020600020905b81548152906001019060200180831161259357829003601f168201915b5050505050908060030160009054906101000a900460ff16908060030160019054906101000a900460ff16908060030160029054906101000a900473ffffffffffffffffffffffffffffffffffffffff16908060040160009054906101000a900473ffffffffffffffffffffffffffffffffffffffff16908060050160009054906101000a900473ffffffffffffffffffffffffffffffffffffffff169080600601549080600701805461266390615608565b80601f016020809104026020016040519081016040528092919081815260200182805461268f90615608565b80156126dc5780601f106126b1576101008083540402835291602001916126dc565b820191906000526020600020905b8154815290600101906020018083116126bf57829003601f168201915b505050505090508a565b60095481565b60035481565b3373ffffffffffffffffffffffffffffffffffffffff1660008054906101000a900473ffffffffffffffffffffffffffffffffffffffff1673ffffffffffffffffffffffffffffffffffffffff1614612780576040517f08c379a000000000000000000000000000000000000000000000000000000000815260040161277790615e28565b60405180910390fd5b60405180610120016040528060035481526020018881526020018781526020018681526020018581526020018460038111156127bf576127be613f1d565b5b60038111156127d1576127d0613f1d565b5b81526020018373ffffffffffffffffffffffffffffffffffffffff16815260200142815260200182815250600160008473ffffffffffffffffffffffffffffffffffffffff1673ffffffffffffffffffffffffffffffffffffffff168152602001908152602001600020600082015181600001556020820151816001019080519060200190612861929190613b57565b5060408201518160020155606082015181600301556080820151816004015560a08201518160050160006101000a81548160ff021916908360038111156128ab576128aa613f1d565b5b021790555060c08201518160050160016101000a81548173ffffffffffffffffffffffffffffffffffffffff021916908373ffffffffffffffffffffffffffffffffffffffff16021790555060e0820151816006015561010082015181600701908051906020019061291e929190613b57565b509050508173ffffffffffffffffffffffffffffffffffffffff167fea397c4f2735f95720bbf4d2e061d639bec950d2f3e162d0b19e02a2354c7cca600160008573ffffffffffffffffffffffffffffffffffffffff1673ffffffffffffffffffffffffffffffffffffffff1681526020019081526020016000206040516129a69190615dba565b60405180910390a26002829080600181540180825580915050600190039060005260206000200160009091909190916101000a81548173ffffffffffffffffffffffffffffffffffffffff021916908373ffffffffffffffffffffffffffffffffffffffff16021790555060036000815480929190612a2490615bfb565b919050555050505050505050565b81600560008573ffffffffffffffffffffffffffffffffffffffff1673ffffffffffffffffffffffffffffffffffffffff1681526020019081526020016000206003019080519060200190612a88929190613b57565b5080600560008573ffffffffffffffffffffffffffffffffffffffff1673ffffffffffffffffffffffffffffffffffffffff1681526020019081526020016000206007019080519060200190612adf929190613b57565b508273ffffffffffffffffffffffffffffffffffffffff167fac85378acf27ea180ea9b66d81dac89bcc984812edf7111c9413f708da4ca37a600560008673ffffffffffffffffffffffffffffffffffffffff1673ffffffffffffffffffffffffffffffffffffffff168152602001908152602001600020604051612b649190615baa565b60405180910390a2505050565b6060600060035467ffffffffffffffff811115612b9157612b906140ff565b5b604051908082528060200260200182016040528015612bca57816020015b612bb7613c60565b815260200190600190039081612baf5790505b50905060005b600354811015612e8757600060028281548110612bf057612bef615bcc565b5b9060005260206000200160009054906101000a900473ffffffffffffffffffffffffffffffffffffffff1690506000600160008373ffffffffffffffffffffffffffffffffffffffff1673ffffffffffffffffffffffffffffffffffffffff1681526020019081526020016000209050806040518061012001604052908160008201548152602001600182018054612c8790615608565b80601f0160208091040260200160405190810160405280929190818152602001828054612cb390615608565b8015612d005780601f10612cd557610100808354040283529160200191612d00565b820191906000526020600020905b815481529060010190602001808311612ce357829003601f168201915b505050505081526020016002820154815260200160038201548152602001600482015481526020016005820160009054906101000a900460ff166003811115612d4c57612d4b613f1d565b5b6003811115612d5e57612d5d613f1d565b5b81526020016005820160019054906101000a900473ffffffffffffffffffffffffffffffffffffffff1673ffffffffffffffffffffffffffffffffffffffff1673ffffffffffffffffffffffffffffffffffffffff16815260200160068201548152602001600782018054612dd290615608565b80601f0160208091040260200160405190810160405280929190818152602001828054612dfe90615608565b8015612e4b5780601f10612e2057610100808354040283529160200191612e4b565b820191906000526020600020905b815481529060010190602001808311612e2e57829003601f168201915b505050505081525050848481518110612e6757612e66615bcc565b5b602002602001018190525050508080612e7f90615bfb565b915050612bd0565b508091505090565b6060806000600c541415612ea6578091505061325c565b600c5467ffffffffffffffff811115612ec257612ec16140ff565b5b604051908082528060200260200182016040528015612efb57816020015b612ee8613cdd565b815260200190600190039081612ee05790505b50905060005b600c54811015613256576000600b6000838152602001908152602001600020905080604051806101600160405290816000820154815260200160018201548152602001600282018054612f5390615608565b80601f0160208091040260200160405190810160405280929190818152602001828054612f7f90615608565b8015612fcc5780601f10612fa157610100808354040283529160200191612fcc565b820191906000526020600020905b815481529060010190602001808311612faf57829003601f168201915b505050505081526020016003820160009054906101000a900460ff166002811115612ffa57612ff9613f1d565b5b600281111561300c5761300b613f1d565b5b81526020016003820160019054906101000a900460ff16600481111561303557613034613f1d565b5b600481111561304757613046613f1d565b5b81526020016003820160029054906101000a900460ff1660018111156130705761306f613f1d565b5b600181111561308257613081613f1d565b5b81526020016003820160039054906101000a900473ffffffffffffffffffffffffffffffffffffffff1673ffffffffffffffffffffffffffffffffffffffff1673ffffffffffffffffffffffffffffffffffffffff1681526020016004820160009054906101000a900473ffffffffffffffffffffffffffffffffffffffff1673ffffffffffffffffffffffffffffffffffffffff1673ffffffffffffffffffffffffffffffffffffffff1681526020016005820160009054906101000a900473ffffffffffffffffffffffffffffffffffffffff1673ffffffffffffffffffffffffffffffffffffffff1673ffffffffffffffffffffffffffffffffffffffff168152602001600682015481526020016007820180546131a290615608565b80601f01602080910402602001604051908101604052809291908181526020018280546131ce90615608565b801561321b5780601f106131f05761010080835404028352916020019161321b565b820191906000526020600020905b8154815290600101906020018083116131fe57829003601f168201915b50505050508152505083838151811061323757613236615bcc565b5b602002602001018190525050808061324e90615bfb565b915050612f01565b50809150505b90565b60405180610140016040528060095481526020018781526020016040518060200160405280600081525081526020018660048111156132a1576132a0613f1d565b5b60048111156132b3576132b2613f1d565b5b81526020018560028111156132cb576132ca613f1d565b5b60028111156132dd576132dc613f1d565b5b81526020018473ffffffffffffffffffffffffffffffffffffffff168152602001600460009054906101000a900473ffffffffffffffffffffffffffffffffffffffff1673ffffffffffffffffffffffffffffffffffffffff1681526020018373ffffffffffffffffffffffffffffffffffffffff1681526020014281526020018281525060086000600954815260200190815260200160002060008201518160000155602082015181600101908051906020019061339d929190613b57565b5060408201518160020190805190602001906133ba929190613b57565b5060608201518160030160006101000a81548160ff021916908360048111156133e6576133e5613f1d565b5b021790555060808201518160030160016101000a81548160ff0219169083600281111561341657613415613f1d565b5b021790555060a08201518160030160026101000a81548173ffffffffffffffffffffffffffffffffffffffff021916908373ffffffffffffffffffffffffffffffffffffffff16021790555060c08201518160040160006101000a81548173ffffffffffffffffffffffffffffffffffffffff021916908373ffffffffffffffffffffffffffffffffffffffff16021790555060e08201518160050160006101000a81548173ffffffffffffffffffffffffffffffffffffffff021916908373ffffffffffffffffffffffffffffffffffffffff1602179055506101008201518160060155610120820151816007019080519060200190613518929190613b57565b5090505061352c6009548786888787613617565b8273ffffffffffffffffffffffffffffffffffffffff167fb503855b01edd8caf0051e68bacef096056daa0d24478362eaa8a4f4b8a7130e6008600060095481526020019081526020016000206040516135869190615a94565b60405180910390a2600a829080600181540180825580915050600190039060005260206000200160009091909190916101000a81548173ffffffffffffffffffffffffffffffffffffffff021916908373ffffffffffffffffffffffffffffffffffffffff1602179055506009600081548092919061360490615bfb565b9190505550505050505050565b60065481565b60006001600481111561362d5761362c613f1d565b5b8460048111156136405761363f613f1d565b5b600481111561365257613651613f1d565b5b148061369457506003600481111561366d5761366c613f1d565b5b8460048111156136805761367f613f1d565b5b600481111561369257613691613f1d565b5b145b806136d457506004808111156136ad576136ac613f1d565b5b8460048111156136c0576136bf613f1d565b5b60048111156136d2576136d1613f1d565b5b145b156136e25760009050613727565b600260048111156136f6576136f5613f1d565b5b84600481111561370957613708613f1d565b5b600481111561371b5761371a613f1d565b5b141561372657600190505b5b6137368787878785888861373f565b50505050505050565b604051806101600160405280600c54815260200188815260200187815260200186600281111561377257613771613f1d565b5b600281111561378457613783613f1d565b5b815260200185600481111561379c5761379b613f1d565b5b60048111156137ae576137ad613f1d565b5b81526020018460018111156137c6576137c5613f1d565b5b81526020018373ffffffffffffffffffffffffffffffffffffffff168152602001600460009054906101000a900473ffffffffffffffffffffffffffffffffffffffff1673ffffffffffffffffffffffffffffffffffffffff1681526020018273ffffffffffffffffffffffffffffffffffffffff16815260200142815260200160405180602001604052806000815250815250600b6000600c5481526020019081526020016000206000820151816000015560208201518160010155604082015181600201908051906020019061389f929190613b57565b5060608201518160030160006101000a81548160ff021916908360028111156138cb576138ca613f1d565b5b021790555060808201518160030160016101000a81548160ff021916908360048111156138fb576138fa613f1d565b5b021790555060a08201518160030160026101000a81548160ff0219169083600181111561392b5761392a613f1d565b5b021790555060c08201518160030160036101000a81548173ffffffffffffffffffffffffffffffffffffffff021916908373ffffffffffffffffffffffffffffffffffffffff16021790555060e08201518160040160006101000a81548173ffffffffffffffffffffffffffffffffffffffff021916908373ffffffffffffffffffffffffffffffffffffffff1602179055506101008201518160050160006101000a81548173ffffffffffffffffffffffffffffffffffffffff021916908373ffffffffffffffffffffffffffffffffffffffff1602179055506101208201518160060155610140820151816007019080519060200190613a2e929190613b57565b509050507ff6ce78692ad338bc638c20ce19f064d65feafa9df8ee93c26325f243c24f714e600b6000600c548152602001908152602001600020604051613a759190615900565b60405180910390a1600c6000815480929190613a9090615bfb565b919050555050505050505050565b60405180610140016040528060008152602001606081526020016060815260200160006004811115613ad357613ad2613f1d565b5b815260200160006002811115613aec57613aeb613f1d565b5b8152602001600073ffffffffffffffffffffffffffffffffffffffff168152602001600073ffffffffffffffffffffffffffffffffffffffff168152602001600073ffffffffffffffffffffffffffffffffffffffff16815260200160008152602001606081525090565b828054613b6390615608565b90600052602060002090601f016020900481019282613b855760008555613bcc565b82601f10613b9e57805160ff1916838001178555613bcc565b82800160010185558215613bcc579182015b82811115613bcb578251825591602001919060010190613bb0565b5b509050613bd99190613daf565b5090565b604051806101000160405280600081526020016060815260200160006004811115613c0b57613c0a613f1d565b5b815260200160608152602001600073ffffffffffffffffffffffffffffffffffffffff168152602001600073ffffffffffffffffffffffffffffffffffffffff16815260200160008152602001606081525090565b604051806101200160405280600081526020016060815260200160008019168152602001600080191681526020016000801916815260200160006003811115613cac57613cab613f1d565b5b8152602001600073ffffffffffffffffffffffffffffffffffffffff16815260200160008152602001606081525090565b60405180610160016040528060008152602001600081526020016060815260200160006002811115613d1257613d11613f1d565b5b815260200160006004811115613d2b57613d2a613f1d565b5b815260200160006001811115613d4457613d43613f1d565b5b8152602001600073ffffffffffffffffffffffffffffffffffffffff168152602001600073ffffffffffffffffffffffffffffffffffffffff168152602001600073ffffffffffffffffffffffffffffffffffffffff16815260200160008152602001606081525090565b5b80821115613dc8576000816000905550600101613db0565b5090565b6000604051905090565b600080fd5b600080fd5b600073ffffffffffffffffffffffffffffffffffffffff82169050919050565b6000613e0b82613de0565b9050919050565b613e1b81613e00565b8114613e2657600080fd5b50565b600081359050613e3881613e12565b92915050565b600060208284031215613e5457613e53613dd6565b5b6000613e6284828501613e29565b91505092915050565b6000819050919050565b613e7e81613e6b565b82525050565b600081519050919050565b600082825260208201905092915050565b60005b83811015613ebe578082015181840152602081019050613ea3565b83811115613ecd576000848401525b50505050565b6000601f19601f8301169050919050565b6000613eef82613e84565b613ef98185613e8f565b9350613f09818560208601613ea0565b613f1281613ed3565b840191505092915050565b7f4e487b7100000000000000000000000000000000000000000000000000000000600052602160045260246000fd5b60058110613f5d57613f5c613f1d565b5b50565b6000819050613f6e82613f4c565b919050565b6000613f7e82613f60565b9050919050565b613f8e81613f73565b82525050565b60038110613fa557613fa4613f1d565b5b50565b6000819050613fb682613f94565b919050565b6000613fc682613fa8565b9050919050565b613fd681613fbb565b82525050565b613fe581613e00565b82525050565b6000610140830160008301516140046000860182613e75565b506020830151848203602086015261401c8282613ee4565b915050604083015184820360408601526140368282613ee4565b915050606083015161404b6060860182613f85565b50608083015161405e6080860182613fcd565b5060a083015161407160a0860182613fdc565b5060c083015161408460c0860182613fdc565b5060e083015161409760e0860182613fdc565b506101008301516140ac610100860182613e75565b506101208301518482036101208601526140c68282613ee4565b9150508091505092915050565b600060208201905081810360008301526140ed8184613feb565b905092915050565b600080fd5b600080fd5b7f4e487b7100000000000000000000000000000000000000000000000000000000600052604160045260246000fd5b61413782613ed3565b810181811067ffffffffffffffff82111715614156576141556140ff565b5b80604052505050565b6000614169613dcc565b9050614175828261412e565b919050565b600067ffffffffffffffff821115614195576141946140ff565b5b61419e82613ed3565b9050602081019050919050565b82818337600083830152505050565b60006141cd6141c88461417a565b61415f565b9050828152602081018484840111156141e9576141e86140fa565b5b6141f48482856141ab565b509392505050565b600082601f830112614211576142106140f5565b5b81356142218482602086016141ba565b91505092915050565b61423381613e6b565b811461423e57600080fd5b50565b6000813590506142508161422a565b92915050565b6000806040838503121561426d5761426c613dd6565b5b600083013567ffffffffffffffff81111561428b5761428a613ddb565b5b614297858286016141fc565b92505060206142a885828601614241565b9150509250929050565b6142bb81613e00565b82525050565b60006020820190506142d660008301846142b2565b92915050565b6000602082840312156142f2576142f1613dd6565b5b600061430084828501614241565b91505092915050565b600080600080600080600060e0888a03121561432857614327613dd6565b5b60006143368a828b01614241565b97505060206143478a828b01614241565b965050604088013567ffffffffffffffff81111561436857614367613ddb565b5b6143748a828b016141fc565b95505060606143858a828b01614241565b94505060806143968a828b01614241565b93505060a06143a78a828b01613e29565b92505060c088013567ffffffffffffffff8111156143c8576143c7613ddb565b5b6143d48a828b016141fc565b91505092959891949750929550565b600081519050919050565b600082825260208201905092915050565b6000819050602082019050919050565b6000610140830160008301516144286000860182613e75565b50602083015184820360208601526144408282613ee4565b9150506040830151848203604086015261445a8282613ee4565b915050606083015161446f6060860182613f85565b5060808301516144826080860182613fcd565b5060a083015161449560a0860182613fdc565b5060c08301516144a860c0860182613fdc565b5060e08301516144bb60e0860182613fdc565b506101008301516144d0610100860182613e75565b506101208301518482036101208601526144ea8282613ee4565b9150508091505092915050565b6000614503838361440f565b905092915050565b6000602082019050919050565b6000614523826143e3565b61452d81856143ee565b93508360208202850161453f856143ff565b8060005b8581101561457b578484038952815161455c85826144f7565b94506145678361450b565b925060208a01995050600181019050614543565b50829750879550505050505092915050565b600060208201905081810360008301526145a78184614518565b905092915050565b6000610100830160008301516145c86000860182613e75565b50602083015184820360208601526145e08282613ee4565b91505060408301516145f56040860182613f85565b506060830151848203606086015261460d8282613ee4565b91505060808301516146226080860182613fdc565b5060a083015161463560a0860182613fdc565b5060c083015161464860c0860182613e75565b5060e083015184820360e08601526146608282613ee4565b9150508091505092915050565b6000602082019050818103600083015261468781846145af565b905092915050565b6000819050919050565b6146a28161468f565b82525050565b600481106146b9576146b8613f1d565b5b50565b60008190506146ca826146a8565b919050565b60006146da826146bc565b9050919050565b6146ea816146cf565b82525050565b6000610120830160008301516147096000860182613e75565b50602083015184820360208601526147218282613ee4565b91505060408301516147366040860182614699565b5060608301516147496060860182614699565b50608083015161475c6080860182614699565b5060a083015161476f60a08601826146e1565b5060c083015161478260c0860182613fdc565b5060e083015161479560e0860182613e75565b506101008301518482036101008601526147af8282613ee4565b9150508091505092915050565b600060208201905081810360008301526147d681846146f0565b905092915050565b6147e781613e6b565b82525050565b600060208201905061480260008301846147de565b92915050565b600081519050919050565b600082825260208201905092915050565b6000819050602082019050919050565b60006101008301600083015161484d6000860182613e75565b50602083015184820360208601526148658282613ee4565b915050604083015161487a6040860182613f85565b50606083015184820360608601526148928282613ee4565b91505060808301516148a76080860182613fdc565b5060a08301516148ba60a0860182613fdc565b5060c08301516148cd60c0860182613e75565b5060e083015184820360e08601526148e58282613ee4565b9150508091505092915050565b60006148fe8383614834565b905092915050565b6000602082019050919050565b600061491e82614808565b6149288185614813565b93508360208202850161493a85614824565b8060005b85811015614976578484038952815161495785826148f2565b945061496283614906565b925060208a0199505060018101905061493e565b50829750879550505050505092915050565b600060208201905081810360008301526149a28184614913565b905092915050565b600082825260208201905092915050565b60006149c682613e84565b6149d081856149aa565b93506149e0818560208601613ea0565b6149e981613ed3565b840191505092915050565b6149fd81613fbb565b82525050565b614a0c81613f73565b82525050565b60028110614a2357614a22613f1d565b5b50565b6000819050614a3482614a12565b919050565b6000614a4482614a26565b9050919050565b614a5481614a39565b82525050565b600061016082019050614a70600083018e6147de565b614a7d602083018d6147de565b8181036040830152614a8f818c6149bb565b9050614a9e606083018b6149f4565b614aab608083018a614a03565b614ab860a0830189614a4b565b614ac560c08301886142b2565b614ad260e08301876142b2565b614ae06101008301866142b2565b614aee6101208301856147de565b818103610140830152614b0181846149bb565b90509c9b505050505050505050505050565b600061010082019050614b29600083018b6147de565b8181036020830152614b3b818a6149bb565b9050614b4a6040830189614a03565b8181036060830152614b5c81886149bb565b9050614b6b60808301876142b2565b614b7860a08301866142b2565b614b8560c08301856147de565b81810360e0830152614b9781846149bb565b90509998505050505050505050565b600080600080600060a08688031215614bc257614bc1613dd6565b5b6000614bd088828901613e29565b955050602086013567ffffffffffffffff811115614bf157614bf0613ddb565b5b614bfd888289016141fc565b9450506040614c0e88828901614241565b935050606086013567ffffffffffffffff811115614c2f57614c2e613ddb565b5b614c3b888289016141fc565b925050608086013567ffffffffffffffff811115614c5c57614c5b613ddb565b5b614c68888289016141fc565b9150509295509295909350565b614c7e8161468f565b82525050565b614c8d816146cf565b82525050565b600061012082019050614ca9600083018c6147de565b8181036020830152614cbb818b6149bb565b9050614cca604083018a614c75565b614cd76060830189614c75565b614ce46080830188614c75565b614cf160a0830187614c84565b614cfe60c08301866142b2565b614d0b60e08301856147de565b818103610100830152614d1e81846149bb565b90509a9950505050505050505050565b600080600060608486031215614d4757614d46613dd6565b5b6000614d5586828701614241565b9350506020614d6686828701613e29565b925050604084013567ffffffffffffffff811115614d8757614d86613ddb565b5b614d93868287016141fc565b9150509250925092565b600061014082019050614db3600083018d6147de565b8181036020830152614dc5818c6149bb565b90508181036040830152614dd9818b6149bb565b9050614de8606083018a614a03565b614df560808301896149f4565b614e0260a08301886142b2565b614e0f60c08301876142b2565b614e1c60e08301866142b2565b614e2a6101008301856147de565b818103610120830152614e3d81846149bb565b90509b9a5050505050505050505050565b614e578161468f565b8114614e6257600080fd5b50565b600081359050614e7481614e4e565b92915050565b600080600080600080600060e0888a031215614e9957614e98613dd6565b5b600088013567ffffffffffffffff811115614eb757614eb6613ddb565b5b614ec38a828b016141fc565b9750506020614ed48a828b01614e65565b9650506040614ee58a828b01614e65565b9550506060614ef68a828b01614e65565b9450506080614f078a828b01614241565b93505060a0614f188a828b01613e29565b92505060c088013567ffffffffffffffff811115614f3957614f38613ddb565b5b614f458a828b016141fc565b91505092959891949750929550565b600080600060608486031215614f6d57614f6c613dd6565b5b6000614f7b86828701613e29565b935050602084013567ffffffffffffffff811115614f9c57614f9b613ddb565b5b614fa8868287016141fc565b925050604084013567ffffffffffffffff811115614fc957614fc8613ddb565b5b614fd5868287016141fc565b9150509250925092565b600081519050919050565b600082825260208201905092915050565b6000819050602082019050919050565b6000610120830160008301516150246000860182613e75565b506020830151848203602086015261503c8282613ee4565b91505060408301516150516040860182614699565b5060608301516150646060860182614699565b5060808301516150776080860182614699565b5060a083015161508a60a08601826146e1565b5060c083015161509d60c0860182613fdc565b5060e08301516150b060e0860182613e75565b506101008301518482036101008601526150ca8282613ee4565b9150508091505092915050565b60006150e3838361500b565b905092915050565b6000602082019050919050565b600061510382614fdf565b61510d8185614fea565b93508360208202850161511f85614ffb565b8060005b8581101561515b578484038952815161513c85826150d7565b9450615147836150eb565b925060208a01995050600181019050615123565b50829750879550505050505092915050565b6000602082019050818103600083015261518781846150f8565b905092915050565b600081519050919050565b600082825260208201905092915050565b6000819050602082019050919050565b6151c481614a39565b82525050565b6000610160830160008301516151e36000860182613e75565b5060208301516151f66020860182613e75565b506040830151848203604086015261520e8282613ee4565b91505060608301516152236060860182613fcd565b5060808301516152366080860182613f85565b5060a083015161524960a08601826151bb565b5060c083015161525c60c0860182613fdc565b5060e083015161526f60e0860182613fdc565b50610100830151615284610100860182613fdc565b50610120830151615299610120860182613e75565b506101408301518482036101408601526152b38282613ee4565b9150508091505092915050565b60006152cc83836151ca565b905092915050565b6000602082019050919050565b60006152ec8261518f565b6152f6818561519a565b935083602082028501615308856151ab565b8060005b85811015615344578484038952815161532585826152c0565b9450615330836152d4565b925060208a0199505060018101905061530c565b50829750879550505050505092915050565b6000602082019050818103600083015261537081846152e1565b905092915050565b60008060008060008060c0878903121561539557615394613dd6565b5b600087013567ffffffffffffffff8111156153b3576153b2613ddb565b5b6153bf89828a016141fc565b96505060206153d089828a01614241565b95505060406153e189828a01614241565b94505060606153f289828a01613e29565b935050608061540389828a01613e29565b92505060a087013567ffffffffffffffff81111561542457615423613ddb565b5b61543089828a016141fc565b9150509295509295509295565b7f4e487b7100000000000000000000000000000000000000000000000000000000600052601160045260246000fd5b600061547782613e6b565b915061548283613e6b565b9250828210156154955761549461543d565b5b828203905092915050565b60006154ab82613e6b565b915060008214156154bf576154be61543d565b5b600182039050919050565b600081905092915050565b60006154e082613e84565b6154ea81856154ca565b93506154fa818560208601613ea0565b80840191505092915050565b60008160601b9050919050565b600061551e82615506565b9050919050565b600061553082615513565b9050919050565b61554861554382613e00565b615525565b82525050565b6000819050919050565b61556961556482613e6b565b61554e565b82525050565b600061557b82866154d5565b91506155878285615537565b6014820191506155978284615558565b602082019150819050949350505050565b60008160001c9050919050565b6000819050919050565b60006155d26155cd836155a8565b6155b5565b9050919050565b7f4e487b7100000000000000000000000000000000000000000000000000000000600052602260045260246000fd5b6000600282049050600182168061562057607f821691505b60208210811415615634576156336155d9565b5b50919050565b60008190508160005260206000209050919050565b6000815461565c81615608565b6156668186613e8f565b945060018216600081146156815760018114615693576156c6565b60ff19831686526020860193506156c6565b61569c8561563a565b60005b838110156156be5781548189015260018201915060208101905061569f565b808801955050505b50505092915050565b600060ff82169050919050565b60006156ef6156ea836155a8565b6156cf565b9050919050565b60008160081c9050919050565b600060ff82169050919050565b600061572361571e836156f6565b615703565b9050919050565b60008160101c9050919050565b600060ff82169050919050565b60006157576157528361572a565b615737565b9050919050565b60008160181c9050919050565b600073ffffffffffffffffffffffffffffffffffffffff82169050919050565b600061579e6157998361575e565b61576b565b9050919050565b60006157b86157b3836155a8565b61576b565b9050919050565b6000610160830160008084015490506157d7816155bf565b6157e46000870182613e75565b50600184015490506157f5816155bf565b6158026020870182613e75565b50600284018583036040870152615819838261564f565b9250506003840154905061582c816156dc565b6158396060870182613fcd565b5061584381615710565b6158506080870182613f85565b5061585a81615744565b61586760a08701826151bb565b506158718161578b565b61587e60c0870182613fdc565b506004840154905061588f816157a5565b61589c60e0870182613fdc565b50600584015490506158ad816157a5565b6158bb610100870182613fdc565b50600684015490506158cc816155bf565b6158da610120870182613e75565b50600784018583036101408701526158f2838261564f565b925050819250505092915050565b6000602082019050818103600083015261591a81846157bf565b905092915050565b6000615935615930836155a8565b615703565b9050919050565b600061594f61594a836156f6565b6156cf565b9050919050565b60006159696159648361572a565b61576b565b9050919050565b600061014083016000808401549050615988816155bf565b6159956000870182613e75565b506001840185830360208701526159ac838261564f565b9250506002840185830360408701526159c5838261564f565b925050600384015490506159d881615922565b6159e56060870182613f85565b506159ef8161593c565b6159fc6080870182613fcd565b50615a0681615956565b615a1360a0870182613fdc565b5060048401549050615a24816157a5565b615a3160c0870182613fdc565b5060058401549050615a42816157a5565b615a4f60e0870182613fdc565b5060068401549050615a60816155bf565b615a6e610100870182613e75565b5060078401858303610120870152615a86838261564f565b925050819250505092915050565b60006020820190508181036000830152615aae8184615970565b905092915050565b600061010083016000808401549050615ace816155bf565b615adb6000870182613e75565b50600184018583036020870152615af2838261564f565b92505060028401549050615b0581615922565b615b126040870182613f85565b50600384018583036060870152615b29838261564f565b92505060048401549050615b3c816157a5565b615b496080870182613fdc565b5060058401549050615b5a816157a5565b615b6760a0870182613fdc565b5060068401549050615b78816155bf565b615b8560c0870182613e75565b506007840185830360e0870152615b9c838261564f565b925050819250505092915050565b60006020820190508181036000830152615bc48184615ab6565b905092915050565b7f4e487b7100000000000000000000000000000000000000000000000000000000600052603260045260246000fd5b6000615c0682613e6b565b91507fffffffffffffffffffffffffffffffffffffffffffffffffffffffffffffffff821415615c3957615c3861543d565b5b600182019050919050565b6000819050919050565b6000615c61615c5c836155a8565b615c44565b9050919050565b600060ff82169050919050565b6000615c88615c83836155a8565b615c68565b9050919050565b6000615ca2615c9d836156f6565b61576b565b9050919050565b600061012083016000808401549050615cc1816155bf565b615cce6000870182613e75565b50600184018583036020870152615ce5838261564f565b92505060028401549050615cf881615c4e565b615d056040870182614699565b5060038401549050615d1681615c4e565b615d236060870182614699565b5060048401549050615d3481615c4e565b615d416080870182614699565b5060058401549050615d5281615c75565b615d5f60a08701826146e1565b50615d6981615c8f565b615d7660c0870182613fdc565b5060068401549050615d87816155bf565b615d9460e0870182613e75565b5060078401858303610100870152615dac838261564f565b925050819250505092915050565b60006020820190508181036000830152615dd48184615ca9565b905092915050565b7f596f7520617265206e6f7420616e206f776e6572000000000000000000000000600082015250565b6000615e126014836149aa565b9150615e1d82615ddc565b602082019050919050565b60006020820190508181036000830152615e4181615e05565b905091905056fea2646970667358221220a3060921c664650c3a5ffc97e8150749aab8d272cd34ccd2758a775e9067b43c64736f6c634300080a0033",
  "immutableReferences": {},
  "source": "// SPDX-License-Identifier: MIT\r\npragma solidity >=0.8.0 <0.9.0;\r\n\r\nimport \"./UserChain.sol\";\r\nimport \"./SharedChain.sol\";\r\n\r\ncontract ProjectChain is UserChain {\r\n    address _userAddress;\r\n\r\n    constructor() {\r\n        _userAddress = msg.sender;\r\n    }\r\n\r\n    modifier onlyUserProject() {\r\n        require(\r\n            users[_userAddress]._role == Roles.UserProject,\r\n            \"You don't have the rights for this resources.\"\r\n        );\r\n        _;\r\n    }\r\n\r\n    /**  PROJECT INITIATOR  */\r\n\r\n    mapping(address => Project) public projects;\r\n    uint256 public projectsCounter = 0;\r\n    address[] public projectsAddress;\r\n\r\n    function createUniqueProjectAddress(string memory _name, uint _index) public view returns (address) {\r\n        return address(uint160(uint256(keccak256(abi.encodePacked(_name, _userAddress, _index)))));\r\n    }\r\n\r\n    function createProject(\r\n        address _projectAddress,\r\n        string memory _name,\r\n        uint256 _status,\r\n        string memory _ipfsFileCID,\r\n        string memory _signature\r\n    ) public {\r\n        projects[_projectAddress] = Project(\r\n            projectsCounter,\r\n            _name,\r\n            ProjectStatus(_status),\r\n            _ipfsFileCID,\r\n            _projectAddress,\r\n            _userAddress,\r\n            block.timestamp,\r\n            _signature\r\n        );\r\n\r\n        emit ProjectEvent(projects[_projectAddress], _projectAddress);\r\n        projectsAddress.push(_projectAddress);\r\n        projectsCounter++;\r\n    }\r\n\r\n    function updateProject(\r\n        address _projectAddress,\r\n        string memory _ipfsFileCID,\r\n        string memory _signature\r\n    ) public {\r\n        projects[_projectAddress]._ipfsFileCID = _ipfsFileCID;\r\n        projects[_projectAddress]._signature = _signature;\r\n\r\n        emit ProjectEvent(projects[_projectAddress], _projectAddress);\r\n    }\r\n\r\n    function getProjectInfo(address _address)\r\n        public\r\n        view\r\n        returns (Project memory)\r\n    {\r\n        return projects[_address];\r\n    }\r\n\r\n    function getAllProjects() public view returns (Project[] memory) {\r\n        Project[] memory allProjects;\r\n        if (projectsCounter == 0) return allProjects;\r\n\r\n        allProjects = new Project[](projectsCounter);\r\n        for (uint256 index = 0; index < projectsCounter; index++) {\r\n            address _projectAddress = projectsAddress[index];\r\n            Project storage project = projects[_projectAddress];\r\n            allProjects[index] = project;\r\n        }\r\n        return allProjects;\r\n    }\r\n\r\n\r\n    /**  Project Requests  */\r\n\r\n    mapping(uint256 => ProjectRequest) public projectRequests;\r\n    uint256 public projectRequestsCounter = 0;\r\n    address[] public projectRequestsAddress;\r\n\r\n    function createUniqueProjectRequestAddress(string memory _title, uint _index) public view returns (address) {\r\n        return address(uint160(uint256(keccak256(abi.encodePacked(_title, _userAddress, _index)))));\r\n    }\r\n\r\n    function createProjectRequest(\r\n        string memory _title,\r\n        uint256 _status,\r\n        uint256 _requestStatus,\r\n        address _projectAddress,\r\n        address _projectReqAddress,\r\n        string memory _signature\r\n    ) public {\r\n        projectRequests[projectRequestsCounter] = ProjectRequest(\r\n            projectRequestsCounter,\r\n            _title,\r\n            \"\",\r\n            ProjectStatus(_status),\r\n            RequestStatus(_requestStatus),\r\n            _projectAddress,\r\n            _userAddress,\r\n            _projectReqAddress,\r\n            block.timestamp,\r\n            _signature\r\n        );\r\n\r\n        filterRequests(\r\n            projectRequestsCounter,\r\n            _title,\r\n            _requestStatus,\r\n            _status,\r\n            _projectAddress,\r\n            _projectReqAddress\r\n        );\r\n\r\n        emit ProjectRequestEvent(projectRequests[projectRequestsCounter], _projectAddress);\r\n        projectRequestsAddress.push(_projectReqAddress);\r\n        projectRequestsCounter++;\r\n    }\r\n\r\n    function filterRequests(\r\n        uint256 _indexProjectRequest,\r\n        string memory _title,\r\n        uint256 _requestStatus,\r\n        uint256 _projectStatus,\r\n        address _projectAddress,\r\n        address _requestAddress\r\n    ) internal {\r\n        RequestType _requestType;\r\n        if (\r\n            ProjectStatus(_projectStatus) == ProjectStatus.ToApprove ||\r\n            ProjectStatus(_projectStatus) == ProjectStatus.FinalizationCheck ||\r\n            ProjectStatus(_projectStatus) == ProjectStatus.Completed\r\n        ) {\r\n            _requestType = RequestType.SupervisorReq;\r\n        } else if (\r\n            ProjectStatus(_projectStatus) == ProjectStatus.StartProject\r\n        ) {\r\n            _requestType = RequestType.CompanyReq;\r\n        }\r\n        createRequest(\r\n            _indexProjectRequest,\r\n            _title,\r\n            _requestStatus,\r\n            _projectStatus,\r\n            _requestType,\r\n            _projectAddress,\r\n            _requestAddress\r\n        );\r\n    }\r\n\r\n    function getAllProjectRequests()\r\n        public\r\n        view\r\n        returns (ProjectRequest[] memory)\r\n    {\r\n        ProjectRequest[] memory allProjectRequests;\r\n        if (projectRequestsCounter == 0) return allProjectRequests;\r\n\r\n        allProjectRequests = new ProjectRequest[](projectRequestsCounter);\r\n        for (uint256 index = 0; index < projectRequestsCounter; index++) {\r\n            ProjectRequest storage projectReq = projectRequests[index];\r\n            allProjectRequests[index] = projectReq;\r\n        }\r\n        return allProjectRequests;\r\n    }\r\n\r\n    function getLastProjectRequest(address _projectAddress)\r\n        public\r\n        view\r\n        returns (ProjectRequest memory)\r\n    {\r\n        ProjectRequest memory request;\r\n        if (projectRequestsCounter > 0) {\r\n            for (\r\n                uint256 index = projectRequestsCounter - 1;\r\n                index >= 0;\r\n                index--\r\n            ) {\r\n                if (_projectAddress == projectRequests[index]._projectAddress) {\r\n                    request = ProjectRequest(\r\n                        0, \"\", \"\",\r\n                        projectRequests[index]._status,\r\n                        projectRequests[index]._requestStatus,\r\n                        projectRequests[index]._projectAddress,\r\n                        address(0), address(0), 0, \"\"\r\n                    );\r\n                    return request;\r\n                }\r\n            }\r\n        }\r\n        return request;\r\n    }\r\n\r\n\r\n    /**  DATA FOR SUPERVISOR && COMPANY  */\r\n\r\n    mapping(uint256 => Request) public requests;\r\n    uint256 public requestsCounter = 0;\r\n\r\n    function createRequest(\r\n        uint256 _indexProjectRequest,\r\n        string memory _title,\r\n        uint256 _requestStatus,\r\n        uint256 _projectStatus,\r\n        RequestType _requestType,\r\n        address _projectAddress,\r\n        address _requestAddress\r\n    ) internal {\r\n        requests[requestsCounter] = Request(\r\n            requestsCounter,\r\n            _indexProjectRequest,\r\n            _title,\r\n            RequestStatus(_requestStatus),\r\n            ProjectStatus(_projectStatus),\r\n            _requestType,\r\n            _projectAddress,\r\n            _userAddress,\r\n            _requestAddress,\r\n            block.timestamp,\r\n            \"\"\r\n        );\r\n\r\n        emit RequestEvent(requests[requestsCounter]);\r\n        requestsCounter++;\r\n    }\r\n\r\n    function updateRequest(\r\n        uint256 _index,\r\n        uint256 _indexProjectRequest,\r\n        string memory _comments,\r\n        uint256 _requestStatus,\r\n        uint256 _projectStatus,\r\n        address _projectAddress,\r\n        string memory _signature\r\n    ) public {\r\n        // Update request status in the Requests Mapping and Struct Array\r\n        requests[_index]._requestStatus = RequestStatus(_requestStatus);\r\n        requests[_index]._signature = _signature;\r\n\r\n        emit RequestEvent(requests[_index]);\r\n\r\n        // Update project request status in the Project Requests Mapping and Struct Array\r\n        projectRequests[_indexProjectRequest]._comments = _comments;\r\n        projectRequests[_indexProjectRequest]._requestStatus = RequestStatus(_requestStatus);\r\n        projectRequests[_indexProjectRequest]._signature = _signature;\r\n\r\n        emit ProjectRequestEvent(projectRequests[_indexProjectRequest], _projectAddress);\r\n\r\n        // Update ProjectStatus to the requested status - Porject Mapping and Struct Array\r\n        if (RequestStatus.Approved == RequestStatus(_requestStatus)) {\r\n        projects[_projectAddress]._status = ProjectStatus(_projectStatus);\r\n        emit ProjectEvent(projects[_projectAddress], _projectAddress);\r\n        }\r\n    }\r\n\r\n    function getAllRequests() public view returns (Request[] memory) {\r\n        Request[] memory allRequests;\r\n        if (requestsCounter == 0) return allRequests;\r\n\r\n        allRequests = new Request[](requestsCounter);\r\n        for (uint256 index = 0; index < requestsCounter; index++) {\r\n            Request storage request = requests[index];\r\n            allRequests[index] = request;\r\n        }\r\n        return allRequests;\r\n    }\r\n}\r\n",
  "sourcePath": "/mnt/c/Users/Beniamin/source/repos/DissertationProject/contracts/ProjectChain.sol",
  "compiler": {
    "name": "solc",
    "version": "0.8.10+commit.fc410830.Emscripten.clang"
  },
  "schemaVersion": "3.4.3",
  "updatedAt": "2021-12-07T12:16:31.813Z",
  "networkType": "ethereum",
  "devdoc": {
    "kind": "dev",
    "methods": {},
    "version": 1
  },
  "userdoc": {
    "kind": "user",
    "methods": {
      "projectRequests(uint256)": {
        "notice": "Project Requests  "
      },
      "projects(address)": {
        "notice": "PROJECT INITIATOR  "
      },
      "requests(uint256)": {
        "notice": "DATA FOR SUPERVISOR && COMPANY  "
      }
    },
    "version": 1
  }
}