{
  "contractName": "ProjectChain",
  "abi": [
    {
      "inputs": [],
      "stateMutability": "nonpayable",
      "type": "constructor"
    },
    {
      "anonymous": false,
      "inputs": [
        {
          "components": [
            {
              "internalType": "uint256",
              "name": "_index",
              "type": "uint256"
            },
            {
              "internalType": "string",
              "name": "_name",
              "type": "string"
            },
            {
              "internalType": "enum SharedChain.ProjectStatus",
              "name": "_status",
              "type": "uint8"
            },
            {
              "internalType": "string",
              "name": "_ipfsFileCID",
              "type": "string"
            },
            {
              "internalType": "address",
              "name": "_projectAddress",
              "type": "address"
            },
            {
              "internalType": "address",
              "name": "_signerAddress",
              "type": "address"
            },
            {
              "internalType": "uint256",
              "name": "_timestamp",
              "type": "uint256"
            },
            {
              "internalType": "string",
              "name": "_signature",
              "type": "string"
            }
          ],
          "indexed": false,
          "internalType": "struct SharedChain.Project",
          "name": "_project",
          "type": "tuple"
        },
        {
          "indexed": true,
          "internalType": "address",
          "name": "_projectAddress",
          "type": "address"
        }
      ],
      "name": "ProjectEvent",
      "type": "event"
    },
    {
      "anonymous": false,
      "inputs": [
        {
          "components": [
            {
              "internalType": "uint256",
              "name": "_index",
              "type": "uint256"
            },
            {
              "internalType": "string",
              "name": "_title",
              "type": "string"
            },
            {
              "internalType": "string",
              "name": "_comments",
              "type": "string"
            },
            {
              "internalType": "enum SharedChain.ProjectStatus",
              "name": "_status",
              "type": "uint8"
            },
            {
              "internalType": "enum SharedChain.RequestStatus",
              "name": "_requestStatus",
              "type": "uint8"
            },
            {
              "internalType": "address",
              "name": "_projectAddress",
              "type": "address"
            },
            {
              "internalType": "address",
              "name": "_signerAddress",
              "type": "address"
            },
            {
              "internalType": "address",
              "name": "_requestAddress",
              "type": "address"
            },
            {
              "internalType": "uint256",
              "name": "_timestamp",
              "type": "uint256"
            },
            {
              "internalType": "string",
              "name": "_signature",
              "type": "string"
            }
          ],
          "indexed": false,
          "internalType": "struct SharedChain.ProjectRequest",
          "name": "_projectRequest",
          "type": "tuple"
        },
        {
          "indexed": true,
          "internalType": "address",
          "name": "_projectAddress",
          "type": "address"
        }
      ],
      "name": "ProjectRequestEvent",
      "type": "event"
    },
    {
      "anonymous": false,
      "inputs": [
        {
          "components": [
            {
              "internalType": "uint256",
              "name": "_index",
              "type": "uint256"
            },
            {
              "internalType": "uint256",
              "name": "_indexProjectRequest",
              "type": "uint256"
            },
            {
              "internalType": "string",
              "name": "_title",
              "type": "string"
            },
            {
              "internalType": "enum SharedChain.RequestStatus",
              "name": "_requestStatus",
              "type": "uint8"
            },
            {
              "internalType": "enum SharedChain.ProjectStatus",
              "name": "_projectStatus",
              "type": "uint8"
            },
            {
              "internalType": "enum SharedChain.RequestType",
              "name": "_requestType",
              "type": "uint8"
            },
            {
              "internalType": "address",
              "name": "_projectAddress",
              "type": "address"
            },
            {
              "internalType": "address",
              "name": "_signerAddress",
              "type": "address"
            },
            {
              "internalType": "address",
              "name": "_requestAddress",
              "type": "address"
            },
            {
              "internalType": "uint256",
              "name": "_timestamp",
              "type": "uint256"
            },
            {
              "internalType": "string",
              "name": "_signature",
              "type": "string"
            }
          ],
          "indexed": false,
          "internalType": "struct SharedChain.Request",
          "name": "_request",
          "type": "tuple"
        }
      ],
      "name": "RequestEvent",
      "type": "event"
    },
    {
      "anonymous": false,
      "inputs": [
        {
          "indexed": false,
          "internalType": "uint256",
          "name": "_index",
          "type": "uint256"
        },
        {
          "indexed": true,
          "internalType": "string",
          "name": "_username",
          "type": "string"
        },
        {
          "indexed": false,
          "internalType": "bytes32",
          "name": "_email",
          "type": "bytes32"
        },
        {
          "indexed": false,
          "internalType": "bytes32",
          "name": "_firstname",
          "type": "bytes32"
        },
        {
          "indexed": false,
          "internalType": "bytes32",
          "name": "_lastname",
          "type": "bytes32"
        },
        {
          "indexed": true,
          "internalType": "enum SharedChain.Roles",
          "name": "_role",
          "type": "uint8"
        },
        {
          "indexed": true,
          "internalType": "address",
          "name": "_walletAddress",
          "type": "address"
        },
        {
          "indexed": false,
          "internalType": "uint256",
          "name": "_timestamp",
          "type": "uint256"
        }
      ],
      "name": "UserEvent",
      "type": "event"
    },
    {
      "inputs": [
        {
          "internalType": "uint256",
          "name": "_role",
          "type": "uint256"
        },
        {
          "internalType": "address",
          "name": "_walletAddress",
          "type": "address"
        }
      ],
      "name": "changeUserRole",
      "outputs": [],
      "stateMutability": "nonpayable",
      "type": "function"
    },
    {
      "inputs": [],
      "name": "getAllUsers",
      "outputs": [
        {
          "components": [
            {
              "internalType": "uint256",
              "name": "_index",
              "type": "uint256"
            },
            {
              "internalType": "string",
              "name": "_username",
              "type": "string"
            },
            {
              "internalType": "bytes32",
              "name": "_email",
              "type": "bytes32"
            },
            {
              "internalType": "bytes32",
              "name": "_firstname",
              "type": "bytes32"
            },
            {
              "internalType": "bytes32",
              "name": "_lastname",
              "type": "bytes32"
            },
            {
              "internalType": "enum SharedChain.Roles",
              "name": "_role",
              "type": "uint8"
            },
            {
              "internalType": "address",
              "name": "_walletAddress",
              "type": "address"
            },
            {
              "internalType": "uint256",
              "name": "_timestamp",
              "type": "uint256"
            }
          ],
          "internalType": "struct SharedChain.User[]",
          "name": "",
          "type": "tuple[]"
        }
      ],
      "stateMutability": "view",
      "type": "function",
      "constant": true
    },
    {
      "inputs": [
        {
          "internalType": "address",
          "name": "_walletAddress",
          "type": "address"
        }
      ],
      "name": "getUserInfo",
      "outputs": [
        {
          "components": [
            {
              "internalType": "uint256",
              "name": "_index",
              "type": "uint256"
            },
            {
              "internalType": "string",
              "name": "_username",
              "type": "string"
            },
            {
              "internalType": "bytes32",
              "name": "_email",
              "type": "bytes32"
            },
            {
              "internalType": "bytes32",
              "name": "_firstname",
              "type": "bytes32"
            },
            {
              "internalType": "bytes32",
              "name": "_lastname",
              "type": "bytes32"
            },
            {
              "internalType": "enum SharedChain.Roles",
              "name": "_role",
              "type": "uint8"
            },
            {
              "internalType": "address",
              "name": "_walletAddress",
              "type": "address"
            },
            {
              "internalType": "uint256",
              "name": "_timestamp",
              "type": "uint256"
            }
          ],
          "internalType": "struct SharedChain.User",
          "name": "",
          "type": "tuple"
        }
      ],
      "stateMutability": "view",
      "type": "function",
      "constant": true
    },
    {
      "inputs": [],
      "name": "owner",
      "outputs": [
        {
          "internalType": "address",
          "name": "",
          "type": "address"
        }
      ],
      "stateMutability": "view",
      "type": "function",
      "constant": true
    },
    {
      "inputs": [
        {
          "internalType": "uint256",
          "name": "",
          "type": "uint256"
        }
      ],
      "name": "projectRequests",
      "outputs": [
        {
          "internalType": "uint256",
          "name": "_index",
          "type": "uint256"
        },
        {
          "internalType": "string",
          "name": "_title",
          "type": "string"
        },
        {
          "internalType": "string",
          "name": "_comments",
          "type": "string"
        },
        {
          "internalType": "enum SharedChain.ProjectStatus",
          "name": "_status",
          "type": "uint8"
        },
        {
          "internalType": "enum SharedChain.RequestStatus",
          "name": "_requestStatus",
          "type": "uint8"
        },
        {
          "internalType": "address",
          "name": "_projectAddress",
          "type": "address"
        },
        {
          "internalType": "address",
          "name": "_signerAddress",
          "type": "address"
        },
        {
          "internalType": "address",
          "name": "_requestAddress",
          "type": "address"
        },
        {
          "internalType": "uint256",
          "name": "_timestamp",
          "type": "uint256"
        },
        {
          "internalType": "string",
          "name": "_signature",
          "type": "string"
        }
      ],
      "stateMutability": "view",
      "type": "function",
      "constant": true
    },
    {
      "inputs": [
        {
          "internalType": "uint256",
          "name": "",
          "type": "uint256"
        }
      ],
      "name": "projectRequestsAddress",
      "outputs": [
        {
          "internalType": "address",
          "name": "",
          "type": "address"
        }
      ],
      "stateMutability": "view",
      "type": "function",
      "constant": true
    },
    {
      "inputs": [],
      "name": "projectRequestsCounter",
      "outputs": [
        {
          "internalType": "uint256",
          "name": "",
          "type": "uint256"
        }
      ],
      "stateMutability": "view",
      "type": "function",
      "constant": true
    },
    {
      "inputs": [
        {
          "internalType": "address",
          "name": "",
          "type": "address"
        }
      ],
      "name": "projects",
      "outputs": [
        {
          "internalType": "uint256",
          "name": "_index",
          "type": "uint256"
        },
        {
          "internalType": "string",
          "name": "_name",
          "type": "string"
        },
        {
          "internalType": "enum SharedChain.ProjectStatus",
          "name": "_status",
          "type": "uint8"
        },
        {
          "internalType": "string",
          "name": "_ipfsFileCID",
          "type": "string"
        },
        {
          "internalType": "address",
          "name": "_projectAddress",
          "type": "address"
        },
        {
          "internalType": "address",
          "name": "_signerAddress",
          "type": "address"
        },
        {
          "internalType": "uint256",
          "name": "_timestamp",
          "type": "uint256"
        },
        {
          "internalType": "string",
          "name": "_signature",
          "type": "string"
        }
      ],
      "stateMutability": "view",
      "type": "function",
      "constant": true
    },
    {
      "inputs": [
        {
          "internalType": "uint256",
          "name": "",
          "type": "uint256"
        }
      ],
      "name": "projectsAddress",
      "outputs": [
        {
          "internalType": "address",
          "name": "",
          "type": "address"
        }
      ],
      "stateMutability": "view",
      "type": "function",
      "constant": true
    },
    {
      "inputs": [],
      "name": "projectsCounter",
      "outputs": [
        {
          "internalType": "uint256",
          "name": "",
          "type": "uint256"
        }
      ],
      "stateMutability": "view",
      "type": "function",
      "constant": true
    },
    {
      "inputs": [
        {
          "internalType": "string",
          "name": "_username",
          "type": "string"
        },
        {
          "internalType": "bytes32",
          "name": "_email",
          "type": "bytes32"
        },
        {
          "internalType": "bytes32",
          "name": "_firstname",
          "type": "bytes32"
        },
        {
          "internalType": "bytes32",
          "name": "_lastname",
          "type": "bytes32"
        },
        {
          "internalType": "uint256",
          "name": "_role",
          "type": "uint256"
        },
        {
          "internalType": "address",
          "name": "_walletAddress",
          "type": "address"
        }
      ],
      "name": "registerUser",
      "outputs": [],
      "stateMutability": "nonpayable",
      "type": "function"
    },
    {
      "inputs": [
        {
          "internalType": "uint256",
          "name": "",
          "type": "uint256"
        }
      ],
      "name": "requests",
      "outputs": [
        {
          "internalType": "uint256",
          "name": "_index",
          "type": "uint256"
        },
        {
          "internalType": "uint256",
          "name": "_indexProjectRequest",
          "type": "uint256"
        },
        {
          "internalType": "string",
          "name": "_title",
          "type": "string"
        },
        {
          "internalType": "enum SharedChain.RequestStatus",
          "name": "_requestStatus",
          "type": "uint8"
        },
        {
          "internalType": "enum SharedChain.ProjectStatus",
          "name": "_projectStatus",
          "type": "uint8"
        },
        {
          "internalType": "enum SharedChain.RequestType",
          "name": "_requestType",
          "type": "uint8"
        },
        {
          "internalType": "address",
          "name": "_projectAddress",
          "type": "address"
        },
        {
          "internalType": "address",
          "name": "_signerAddress",
          "type": "address"
        },
        {
          "internalType": "address",
          "name": "_requestAddress",
          "type": "address"
        },
        {
          "internalType": "uint256",
          "name": "_timestamp",
          "type": "uint256"
        },
        {
          "internalType": "string",
          "name": "_signature",
          "type": "string"
        }
      ],
      "stateMutability": "view",
      "type": "function",
      "constant": true
    },
    {
      "inputs": [],
      "name": "requestsCounter",
      "outputs": [
        {
          "internalType": "uint256",
          "name": "",
          "type": "uint256"
        }
      ],
      "stateMutability": "view",
      "type": "function",
      "constant": true
    },
    {
      "inputs": [
        {
          "internalType": "address",
          "name": "",
          "type": "address"
        }
      ],
      "name": "users",
      "outputs": [
        {
          "internalType": "uint256",
          "name": "_index",
          "type": "uint256"
        },
        {
          "internalType": "string",
          "name": "_username",
          "type": "string"
        },
        {
          "internalType": "bytes32",
          "name": "_email",
          "type": "bytes32"
        },
        {
          "internalType": "bytes32",
          "name": "_firstname",
          "type": "bytes32"
        },
        {
          "internalType": "bytes32",
          "name": "_lastname",
          "type": "bytes32"
        },
        {
          "internalType": "enum SharedChain.Roles",
          "name": "_role",
          "type": "uint8"
        },
        {
          "internalType": "address",
          "name": "_walletAddress",
          "type": "address"
        },
        {
          "internalType": "uint256",
          "name": "_timestamp",
          "type": "uint256"
        }
      ],
      "stateMutability": "view",
      "type": "function",
      "constant": true
    },
    {
      "inputs": [
        {
          "internalType": "uint256",
          "name": "",
          "type": "uint256"
        }
      ],
      "name": "usersAddress",
      "outputs": [
        {
          "internalType": "address",
          "name": "",
          "type": "address"
        }
      ],
      "stateMutability": "view",
      "type": "function",
      "constant": true
    },
    {
      "inputs": [],
      "name": "usersCounter",
      "outputs": [
        {
          "internalType": "uint256",
          "name": "",
          "type": "uint256"
        }
      ],
      "stateMutability": "view",
      "type": "function",
      "constant": true
    },
    {
      "inputs": [
        {
          "internalType": "string",
          "name": "_name",
          "type": "string"
        },
        {
          "internalType": "uint256",
          "name": "_index",
          "type": "uint256"
        }
      ],
      "name": "createUniqueProjectAddress",
      "outputs": [
        {
          "internalType": "address",
          "name": "",
          "type": "address"
        }
      ],
      "stateMutability": "view",
      "type": "function",
      "constant": true
    },
    {
      "inputs": [
        {
          "internalType": "address",
          "name": "_projectAddress",
          "type": "address"
        },
        {
          "internalType": "string",
          "name": "_name",
          "type": "string"
        },
        {
          "internalType": "uint256",
          "name": "_status",
          "type": "uint256"
        },
        {
          "internalType": "string",
          "name": "_ipfsFileCID",
          "type": "string"
        },
        {
          "internalType": "string",
          "name": "_signature",
          "type": "string"
        }
      ],
      "name": "createProject",
      "outputs": [],
      "stateMutability": "nonpayable",
      "type": "function"
    },
    {
      "inputs": [
        {
          "internalType": "address",
          "name": "_projectAddress",
          "type": "address"
        },
        {
          "internalType": "string",
          "name": "_ipfsFileCID",
          "type": "string"
        },
        {
          "internalType": "string",
          "name": "_signature",
          "type": "string"
        }
      ],
      "name": "updateProject",
      "outputs": [],
      "stateMutability": "nonpayable",
      "type": "function"
    },
    {
      "inputs": [
        {
          "internalType": "address",
          "name": "_address",
          "type": "address"
        }
      ],
      "name": "getProjectInfo",
      "outputs": [
        {
          "components": [
            {
              "internalType": "uint256",
              "name": "_index",
              "type": "uint256"
            },
            {
              "internalType": "string",
              "name": "_name",
              "type": "string"
            },
            {
              "internalType": "enum SharedChain.ProjectStatus",
              "name": "_status",
              "type": "uint8"
            },
            {
              "internalType": "string",
              "name": "_ipfsFileCID",
              "type": "string"
            },
            {
              "internalType": "address",
              "name": "_projectAddress",
              "type": "address"
            },
            {
              "internalType": "address",
              "name": "_signerAddress",
              "type": "address"
            },
            {
              "internalType": "uint256",
              "name": "_timestamp",
              "type": "uint256"
            },
            {
              "internalType": "string",
              "name": "_signature",
              "type": "string"
            }
          ],
          "internalType": "struct SharedChain.Project",
          "name": "",
          "type": "tuple"
        }
      ],
      "stateMutability": "view",
      "type": "function",
      "constant": true
    },
    {
      "inputs": [],
      "name": "getAllProjects",
      "outputs": [
        {
          "components": [
            {
              "internalType": "uint256",
              "name": "_index",
              "type": "uint256"
            },
            {
              "internalType": "string",
              "name": "_name",
              "type": "string"
            },
            {
              "internalType": "enum SharedChain.ProjectStatus",
              "name": "_status",
              "type": "uint8"
            },
            {
              "internalType": "string",
              "name": "_ipfsFileCID",
              "type": "string"
            },
            {
              "internalType": "address",
              "name": "_projectAddress",
              "type": "address"
            },
            {
              "internalType": "address",
              "name": "_signerAddress",
              "type": "address"
            },
            {
              "internalType": "uint256",
              "name": "_timestamp",
              "type": "uint256"
            },
            {
              "internalType": "string",
              "name": "_signature",
              "type": "string"
            }
          ],
          "internalType": "struct SharedChain.Project[]",
          "name": "",
          "type": "tuple[]"
        }
      ],
      "stateMutability": "view",
      "type": "function",
      "constant": true
    },
    {
      "inputs": [
        {
          "internalType": "string",
          "name": "_title",
          "type": "string"
        },
        {
          "internalType": "uint256",
          "name": "_index",
          "type": "uint256"
        }
      ],
      "name": "createUniqueProjectRequestAddress",
      "outputs": [
        {
          "internalType": "address",
          "name": "",
          "type": "address"
        }
      ],
      "stateMutability": "view",
      "type": "function",
      "constant": true
    },
    {
      "inputs": [
        {
          "internalType": "string",
          "name": "_title",
          "type": "string"
        },
        {
          "internalType": "uint256",
          "name": "_status",
          "type": "uint256"
        },
        {
          "internalType": "uint256",
          "name": "_requestStatus",
          "type": "uint256"
        },
        {
          "internalType": "address",
          "name": "_projectAddress",
          "type": "address"
        },
        {
          "internalType": "address",
          "name": "_projectReqAddress",
          "type": "address"
        },
        {
          "internalType": "string",
          "name": "_signature",
          "type": "string"
        }
      ],
      "name": "createProjectRequest",
      "outputs": [],
      "stateMutability": "nonpayable",
      "type": "function"
    },
    {
      "inputs": [],
      "name": "getAllProjectRequests",
      "outputs": [
        {
          "components": [
            {
              "internalType": "uint256",
              "name": "_index",
              "type": "uint256"
            },
            {
              "internalType": "string",
              "name": "_title",
              "type": "string"
            },
            {
              "internalType": "string",
              "name": "_comments",
              "type": "string"
            },
            {
              "internalType": "enum SharedChain.ProjectStatus",
              "name": "_status",
              "type": "uint8"
            },
            {
              "internalType": "enum SharedChain.RequestStatus",
              "name": "_requestStatus",
              "type": "uint8"
            },
            {
              "internalType": "address",
              "name": "_projectAddress",
              "type": "address"
            },
            {
              "internalType": "address",
              "name": "_signerAddress",
              "type": "address"
            },
            {
              "internalType": "address",
              "name": "_requestAddress",
              "type": "address"
            },
            {
              "internalType": "uint256",
              "name": "_timestamp",
              "type": "uint256"
            },
            {
              "internalType": "string",
              "name": "_signature",
              "type": "string"
            }
          ],
          "internalType": "struct SharedChain.ProjectRequest[]",
          "name": "",
          "type": "tuple[]"
        }
      ],
      "stateMutability": "view",
      "type": "function",
      "constant": true
    },
    {
      "inputs": [
        {
          "internalType": "address",
          "name": "_projectAddress",
          "type": "address"
        }
      ],
      "name": "getLastProjectRequest",
      "outputs": [
        {
          "components": [
            {
              "internalType": "uint256",
              "name": "_index",
              "type": "uint256"
            },
            {
              "internalType": "string",
              "name": "_title",
              "type": "string"
            },
            {
              "internalType": "string",
              "name": "_comments",
              "type": "string"
            },
            {
              "internalType": "enum SharedChain.ProjectStatus",
              "name": "_status",
              "type": "uint8"
            },
            {
              "internalType": "enum SharedChain.RequestStatus",
              "name": "_requestStatus",
              "type": "uint8"
            },
            {
              "internalType": "address",
              "name": "_projectAddress",
              "type": "address"
            },
            {
              "internalType": "address",
              "name": "_signerAddress",
              "type": "address"
            },
            {
              "internalType": "address",
              "name": "_requestAddress",
              "type": "address"
            },
            {
              "internalType": "uint256",
              "name": "_timestamp",
              "type": "uint256"
            },
            {
              "internalType": "string",
              "name": "_signature",
              "type": "string"
            }
          ],
          "internalType": "struct SharedChain.ProjectRequest",
          "name": "",
          "type": "tuple"
        }
      ],
      "stateMutability": "view",
      "type": "function",
      "constant": true
    },
    {
      "inputs": [
        {
          "internalType": "uint256",
          "name": "_index",
          "type": "uint256"
        },
        {
          "internalType": "uint256",
          "name": "_indexProjectRequest",
          "type": "uint256"
        },
        {
          "internalType": "string",
          "name": "_comments",
          "type": "string"
        },
        {
          "internalType": "uint256",
          "name": "_requestStatus",
          "type": "uint256"
        },
        {
          "internalType": "uint256",
          "name": "_projectStatus",
          "type": "uint256"
        },
        {
          "internalType": "address",
          "name": "_projectAddress",
          "type": "address"
        },
        {
          "internalType": "string",
          "name": "_signature",
          "type": "string"
        }
      ],
      "name": "updateRequest",
      "outputs": [],
      "stateMutability": "nonpayable",
      "type": "function"
    },
    {
      "inputs": [],
      "name": "getAllRequests",
      "outputs": [
        {
          "components": [
            {
              "internalType": "uint256",
              "name": "_index",
              "type": "uint256"
            },
            {
              "internalType": "uint256",
              "name": "_indexProjectRequest",
              "type": "uint256"
            },
            {
              "internalType": "string",
              "name": "_title",
              "type": "string"
            },
            {
              "internalType": "enum SharedChain.RequestStatus",
              "name": "_requestStatus",
              "type": "uint8"
            },
            {
              "internalType": "enum SharedChain.ProjectStatus",
              "name": "_projectStatus",
              "type": "uint8"
            },
            {
              "internalType": "enum SharedChain.RequestType",
              "name": "_requestType",
              "type": "uint8"
            },
            {
              "internalType": "address",
              "name": "_projectAddress",
              "type": "address"
            },
            {
              "internalType": "address",
              "name": "_signerAddress",
              "type": "address"
            },
            {
              "internalType": "address",
              "name": "_requestAddress",
              "type": "address"
            },
            {
              "internalType": "uint256",
              "name": "_timestamp",
              "type": "uint256"
            },
            {
              "internalType": "string",
              "name": "_signature",
              "type": "string"
            }
          ],
          "internalType": "struct SharedChain.Request[]",
          "name": "",
          "type": "tuple[]"
        }
      ],
      "stateMutability": "view",
      "type": "function",
      "constant": true
    }
  ],
  "bytecode": "0x60806040526000600355600060065560006009556000600c5534801561002457600080fd5b50336000806101000a81548173ffffffffffffffffffffffffffffffffffffffff021916908373ffffffffffffffffffffffffffffffffffffffff16021790555033600460006101000a81548173ffffffffffffffffffffffffffffffffffffffff021916908373ffffffffffffffffffffffffffffffffffffffff160217905550615e3a80620000b66000396000f3fe608060405234801561001057600080fd5b50600436106101a95760003560e01c8063840e78fd116100f9578063cf13f5d411610097578063e2842d7911610071578063e2842d791461054f578063fb1a002a1461056d578063fbdd64601461058b578063fe360ea5146105a7576101a9565b8063cf13f5d4146104f9578063d67b1b9914610515578063e1592c0d14610533576101a9565b806391009786116100d3578063910097861461044f578063a87430ba1461046b578063c19ded13146104a2578063cc1ee4db146104db576101a9565b8063840e78fd146103de57806384485563146104155780638da5cb5b14610431576101a9565b80636386c1c71161016657806378e8cd851161014057806378e8cd85146103265780637bc406ec1461035657806380d038291461038657806381d12c58146103a4576101a9565b80636386c1c7146102a8578063663c2269146102d857806376c932e0146102f6576101a9565b80630b287892146101ae578063191e1645146101de5780632c91324c1461020e5780632d757d8e1461023e578063400003db1461025a57806347ee45b914610278575b600080fd5b6101c860048036038101906101c39190613f40565b6105c5565b6040516101d591906141d5565b60405180910390f35b6101f860048036038101906101f39190614358565b610a15565b60405161020591906143c3565b60405180910390f35b610228600480360381019061022391906143de565b610a6f565b60405161023591906143c3565b60405180910390f35b6102586004803603810190610253919061440b565b610aae565b005b610262610dc8565b60405161026f919061468f565b60405180910390f35b610292600480360381019061028d9190613f40565b6111e5565b60405161029f919061476f565b60405180910390f35b6102c260048036038101906102bd9190613f40565b6114f0565b6040516102cf91906148a2565b60405180910390f35b6102e061169f565b6040516102ed91906148d3565b60405180910390f35b610310600480360381019061030b91906143de565b6116a5565b60405161031d91906143c3565b60405180910390f35b610340600480360381019061033b91906143de565b6116e4565b60405161034d91906143c3565b60405180910390f35b610370600480360381019061036b9190614358565b611723565b60405161037d91906143c3565b60405180910390f35b61038e61177d565b60405161039b9190614a6e565b60405180910390f35b6103be60048036038101906103b991906143de565b611b79565b6040516103d59b9a99989796959493929190614b40565b60405180910390f35b6103f860048036038101906103f39190613f40565b611d6a565b60405161040c989796959493929190614bf9565b60405180910390f35b61042f600480360381019061042a9190614c8c565b611f97565b005b6104396122be565b60405161044691906143c3565b60405180910390f35b61046960048036038101906104649190614d5b565b6122e2565b005b61048560048036038101906104809190613f40565b61253c565b604051610499989796959493929190614db9565b60405180910390f35b6104bc60048036038101906104b791906143de565b612639565b6040516104d29a99989796959493929190614e3e565b60405180910390f35b6104e361289f565b6040516104f091906148d3565b60405180910390f35b610513600480360381019061050e9190614f1b565b6128a5565b005b61051d612bc7565b60405161052a91906148d3565b60405180910390f35b61054d60048036038101906105489190614fc4565b612bcd565b005b610557612d0c565b60405161056491906151c1565b60405180910390f35b610575612f98565b60405161058291906153aa565b60405180910390f35b6105a560048036038101906105a091906153cc565b613368565b005b6105af61371a565b6040516105bc91906148d3565b60405180910390f35b6105cd613ba7565b6105d5613ba7565b60006009541115610a0b57600060016009546105f191906154c0565b90505b60008110610a09576008600082815260200190815260200160002060030160029054906101000a900473ffffffffffffffffffffffffffffffffffffffff1673ffffffffffffffffffffffffffffffffffffffff168473ffffffffffffffffffffffffffffffffffffffff1614156109f657604051806101400160405280600860008481526020019081526020016000206000015481526020016008600084815260200190815260200160002060010180546106af90615523565b80601f01602080910402602001604051908101604052809291908181526020018280546106db90615523565b80156107285780601f106106fd57610100808354040283529160200191610728565b820191906000526020600020905b81548152906001019060200180831161070b57829003601f168201915b5050505050815260200160086000848152602001908152602001600020600201805461075390615523565b80601f016020809104026020016040519081016040528092919081815260200182805461077f90615523565b80156107cc5780601f106107a1576101008083540402835291602001916107cc565b820191906000526020600020905b8154815290600101906020018083116107af57829003601f168201915b505050505081526020016008600084815260200190815260200160002060030160009054906101000a900460ff16600481111561080c5761080b61401f565b5b81526020016008600084815260200190815260200160002060030160019054906101000a900460ff1660028111156108475761084661401f565b5b81526020016008600084815260200190815260200160002060030160029054906101000a900473ffffffffffffffffffffffffffffffffffffffff1673ffffffffffffffffffffffffffffffffffffffff1681526020016008600084815260200190815260200160002060040160009054906101000a900473ffffffffffffffffffffffffffffffffffffffff1673ffffffffffffffffffffffffffffffffffffffff1681526020016008600084815260200190815260200160002060050160009054906101000a900473ffffffffffffffffffffffffffffffffffffffff1673ffffffffffffffffffffffffffffffffffffffff16815260200142815260200160086000848152602001908152602001600020600701805461096990615523565b80601f016020809104026020016040519081016040528092919081815260200182805461099590615523565b80156109e25780601f106109b7576101008083540402835291602001916109e2565b820191906000526020600020905b8154815290600101906020018083116109c557829003601f168201915b505050505081525091508192505050610a10565b8080610a0190615555565b9150506105f4565b505b809150505b919050565b600082600460009054906101000a900473ffffffffffffffffffffffffffffffffffffffff1683604051602001610a4e93929190615624565b6040516020818303038152906040528051906020012060001c905092915050565b60028181548110610a7f57600080fd5b906000526020600020016000915054906101000a900473ffffffffffffffffffffffffffffffffffffffff1681565b836002811115610ac157610ac061401f565b5b600b600089815260200190815260200160002060030160006101000a81548160ff02191690836002811115610af957610af861401f565b5b021790555080600b60008981526020019081526020016000206007019080519060200190610b28929190613c60565b507ff6ce78692ad338bc638c20ce19f064d65feafa9df8ee93c26325f243c24f714e600b6000898152602001908152602001600020604051610b6a9190615954565b60405180910390a184600860008881526020019081526020016000206002019080519060200190610b9c929190613c60565b50836002811115610bb057610baf61401f565b5b6008600088815260200190815260200160002060030160016101000a81548160ff02191690836002811115610be857610be761401f565b5b021790555080600860008881526020019081526020016000206007019080519060200190610c17929190613c60565b508173ffffffffffffffffffffffffffffffffffffffff167fb503855b01edd8caf0051e68bacef096056daa0d24478362eaa8a4f4b8a7130e60086000898152602001908152602001600020604051610c709190615ae8565b60405180910390a2836002811115610c8b57610c8a61401f565b5b6002811115610c9d57610c9c61401f565b5b600280811115610cb057610caf61401f565b5b1415610dbf57826004811115610cc957610cc861401f565b5b600560008473ffffffffffffffffffffffffffffffffffffffff1673ffffffffffffffffffffffffffffffffffffffff16815260200190815260200160002060020160006101000a81548160ff02191690836004811115610d2d57610d2c61401f565b5b02179055508173ffffffffffffffffffffffffffffffffffffffff167fac85378acf27ea180ea9b66d81dac89bcc984812edf7111c9413f708da4ca37a600560008573ffffffffffffffffffffffffffffffffffffffff1673ffffffffffffffffffffffffffffffffffffffff168152602001908152602001600020604051610db69190615bfe565b60405180910390a25b50505050505050565b60608060006009541415610ddf57809150506111e2565b60095467ffffffffffffffff811115610dfb57610dfa614201565b5b604051908082528060200260200182016040528015610e3457816020015b610e21613ba7565b815260200190600190039081610e195790505b50905060005b6009548110156111dc576000600860008381526020019081526020016000209050806040518061014001604052908160008201548152602001600182018054610e8290615523565b80601f0160208091040260200160405190810160405280929190818152602001828054610eae90615523565b8015610efb5780601f10610ed057610100808354040283529160200191610efb565b820191906000526020600020905b815481529060010190602001808311610ede57829003601f168201915b50505050508152602001600282018054610f1490615523565b80601f0160208091040260200160405190810160405280929190818152602001828054610f4090615523565b8015610f8d5780601f10610f6257610100808354040283529160200191610f8d565b820191906000526020600020905b815481529060010190602001808311610f7057829003601f168201915b505050505081526020016003820160009054906101000a900460ff166004811115610fbb57610fba61401f565b5b6004811115610fcd57610fcc61401f565b5b81526020016003820160019054906101000a900460ff166002811115610ff657610ff561401f565b5b60028111156110085761100761401f565b5b81526020016003820160029054906101000a900473ffffffffffffffffffffffffffffffffffffffff1673ffffffffffffffffffffffffffffffffffffffff1673ffffffffffffffffffffffffffffffffffffffff1681526020016004820160009054906101000a900473ffffffffffffffffffffffffffffffffffffffff1673ffffffffffffffffffffffffffffffffffffffff1673ffffffffffffffffffffffffffffffffffffffff1681526020016005820160009054906101000a900473ffffffffffffffffffffffffffffffffffffffff1673ffffffffffffffffffffffffffffffffffffffff1673ffffffffffffffffffffffffffffffffffffffff1681526020016006820154815260200160078201805461112890615523565b80601f016020809104026020016040519081016040528092919081815260200182805461115490615523565b80156111a15780601f10611176576101008083540402835291602001916111a1565b820191906000526020600020905b81548152906001019060200180831161118457829003601f168201915b5050505050815250508383815181106111bd576111bc615c20565b5b60200260200101819052505080806111d490615c4f565b915050610e3a565b50809150505b90565b6111ed613ce6565b600560008373ffffffffffffffffffffffffffffffffffffffff1673ffffffffffffffffffffffffffffffffffffffff168152602001908152602001600020604051806101000160405290816000820154815260200160018201805461125290615523565b80601f016020809104026020016040519081016040528092919081815260200182805461127e90615523565b80156112cb5780601f106112a0576101008083540402835291602001916112cb565b820191906000526020600020905b8154815290600101906020018083116112ae57829003601f168201915b505050505081526020016002820160009054906101000a900460ff1660048111156112f9576112f861401f565b5b600481111561130b5761130a61401f565b5b815260200160038201805461131f90615523565b80601f016020809104026020016040519081016040528092919081815260200182805461134b90615523565b80156113985780601f1061136d57610100808354040283529160200191611398565b820191906000526020600020905b81548152906001019060200180831161137b57829003601f168201915b505050505081526020016004820160009054906101000a900473ffffffffffffffffffffffffffffffffffffffff1673ffffffffffffffffffffffffffffffffffffffff1673ffffffffffffffffffffffffffffffffffffffff1681526020016005820160009054906101000a900473ffffffffffffffffffffffffffffffffffffffff1673ffffffffffffffffffffffffffffffffffffffff1673ffffffffffffffffffffffffffffffffffffffff1681526020016006820154815260200160078201805461146790615523565b80601f016020809104026020016040519081016040528092919081815260200182805461149390615523565b80156114e05780601f106114b5576101008083540402835291602001916114e0565b820191906000526020600020905b8154815290600101906020018083116114c357829003601f168201915b5050505050815250509050919050565b6114f8613d69565b600160008373ffffffffffffffffffffffffffffffffffffffff1673ffffffffffffffffffffffffffffffffffffffff168152602001908152602001600020604051806101000160405290816000820154815260200160018201805461155d90615523565b80601f016020809104026020016040519081016040528092919081815260200182805461158990615523565b80156115d65780601f106115ab576101008083540402835291602001916115d6565b820191906000526020600020905b8154815290600101906020018083116115b957829003601f168201915b505050505081526020016002820154815260200160038201548152602001600482015481526020016005820160009054906101000a900460ff1660038111156116225761162161401f565b5b60038111156116345761163361401f565b5b81526020016005820160019054906101000a900473ffffffffffffffffffffffffffffffffffffffff1673ffffffffffffffffffffffffffffffffffffffff1673ffffffffffffffffffffffffffffffffffffffff1681526020016006820154815250509050919050565b600c5481565b600781815481106116b557600080fd5b906000526020600020016000915054906101000a900473ffffffffffffffffffffffffffffffffffffffff1681565b600a81815481106116f457600080fd5b906000526020600020016000915054906101000a900473ffffffffffffffffffffffffffffffffffffffff1681565b600082600460009054906101000a900473ffffffffffffffffffffffffffffffffffffffff168360405160200161175c93929190615624565b6040516020818303038152906040528051906020012060001c905092915050565b606080600060065414156117945780915050611b76565b60065467ffffffffffffffff8111156117b0576117af614201565b5b6040519080825280602002602001820160405280156117e957816020015b6117d6613ce6565b8152602001906001900390816117ce5790505b50905060005b600654811015611b705760006007828154811061180f5761180e615c20565b5b9060005260206000200160009054906101000a900473ffffffffffffffffffffffffffffffffffffffff1690506000600560008373ffffffffffffffffffffffffffffffffffffffff1673ffffffffffffffffffffffffffffffffffffffff16815260200190815260200160002090508060405180610100016040529081600082015481526020016001820180546118a690615523565b80601f01602080910402602001604051908101604052809291908181526020018280546118d290615523565b801561191f5780601f106118f45761010080835404028352916020019161191f565b820191906000526020600020905b81548152906001019060200180831161190257829003601f168201915b505050505081526020016002820160009054906101000a900460ff16600481111561194d5761194c61401f565b5b600481111561195f5761195e61401f565b5b815260200160038201805461197390615523565b80601f016020809104026020016040519081016040528092919081815260200182805461199f90615523565b80156119ec5780601f106119c1576101008083540402835291602001916119ec565b820191906000526020600020905b8154815290600101906020018083116119cf57829003601f168201915b505050505081526020016004820160009054906101000a900473ffffffffffffffffffffffffffffffffffffffff1673ffffffffffffffffffffffffffffffffffffffff1673ffffffffffffffffffffffffffffffffffffffff1681526020016005820160009054906101000a900473ffffffffffffffffffffffffffffffffffffffff1673ffffffffffffffffffffffffffffffffffffffff1673ffffffffffffffffffffffffffffffffffffffff16815260200160068201548152602001600782018054611abb90615523565b80601f0160208091040260200160405190810160405280929190818152602001828054611ae790615523565b8015611b345780601f10611b0957610100808354040283529160200191611b34565b820191906000526020600020905b815481529060010190602001808311611b1757829003601f168201915b505050505081525050848481518110611b5057611b4f615c20565b5b602002602001018190525050508080611b6890615c4f565b9150506117ef565b50809150505b90565b600b602052806000526040600020600091509050806000015490806001015490806002018054611ba890615523565b80601f0160208091040260200160405190810160405280929190818152602001828054611bd490615523565b8015611c215780601f10611bf657610100808354040283529160200191611c21565b820191906000526020600020905b815481529060010190602001808311611c0457829003601f168201915b5050505050908060030160009054906101000a900460ff16908060030160019054906101000a900460ff16908060030160029054906101000a900460ff16908060030160039054906101000a900473ffffffffffffffffffffffffffffffffffffffff16908060040160009054906101000a900473ffffffffffffffffffffffffffffffffffffffff16908060050160009054906101000a900473ffffffffffffffffffffffffffffffffffffffff1690806006015490806007018054611ce790615523565b80601f0160208091040260200160405190810160405280929190818152602001828054611d1390615523565b8015611d605780601f10611d3557610100808354040283529160200191611d60565b820191906000526020600020905b815481529060010190602001808311611d4357829003601f168201915b505050505090508b565b6005602052806000526040600020600091509050806000015490806001018054611d9390615523565b80601f0160208091040260200160405190810160405280929190818152602001828054611dbf90615523565b8015611e0c5780601f10611de157610100808354040283529160200191611e0c565b820191906000526020600020905b815481529060010190602001808311611def57829003601f168201915b5050505050908060020160009054906101000a900460ff1690806003018054611e3490615523565b80601f0160208091040260200160405190810160405280929190818152602001828054611e6090615523565b8015611ead5780601f10611e8257610100808354040283529160200191611ead565b820191906000526020600020905b815481529060010190602001808311611e9057829003601f168201915b5050505050908060040160009054906101000a900473ffffffffffffffffffffffffffffffffffffffff16908060050160009054906101000a900473ffffffffffffffffffffffffffffffffffffffff1690806006015490806007018054611f1490615523565b80601f0160208091040260200160405190810160405280929190818152602001828054611f4090615523565b8015611f8d5780601f10611f6257610100808354040283529160200191611f8d565b820191906000526020600020905b815481529060010190602001808311611f7057829003601f168201915b5050505050905088565b6040518061010001604052806006548152602001858152602001846004811115611fc457611fc361401f565b5b6004811115611fd657611fd561401f565b5b81526020018381526020018673ffffffffffffffffffffffffffffffffffffffff168152602001600460009054906101000a900473ffffffffffffffffffffffffffffffffffffffff1673ffffffffffffffffffffffffffffffffffffffff16815260200142815260200182815250600560008773ffffffffffffffffffffffffffffffffffffffff1673ffffffffffffffffffffffffffffffffffffffff1681526020019081526020016000206000820151816000015560208201518160010190805190602001906120aa929190613c60565b5060408201518160020160006101000a81548160ff021916908360048111156120d6576120d561401f565b5b021790555060608201518160030190805190602001906120f7929190613c60565b5060808201518160040160006101000a81548173ffffffffffffffffffffffffffffffffffffffff021916908373ffffffffffffffffffffffffffffffffffffffff16021790555060a08201518160050160006101000a81548173ffffffffffffffffffffffffffffffffffffffff021916908373ffffffffffffffffffffffffffffffffffffffff16021790555060c0820151816006015560e08201518160070190805190602001906121ac929190613c60565b509050508473ffffffffffffffffffffffffffffffffffffffff167fac85378acf27ea180ea9b66d81dac89bcc984812edf7111c9413f708da4ca37a600560008873ffffffffffffffffffffffffffffffffffffffff1673ffffffffffffffffffffffffffffffffffffffff1681526020019081526020016000206040516122349190615bfe565b60405180910390a26007859080600181540180825580915050600190039060005260206000200160009091909190916101000a81548173ffffffffffffffffffffffffffffffffffffffff021916908373ffffffffffffffffffffffffffffffffffffffff160217905550600660008154809291906122b290615c4f565b91905055505050505050565b60008054906101000a900473ffffffffffffffffffffffffffffffffffffffff1681565b8160038111156122f5576122f461401f565b5b600160008373ffffffffffffffffffffffffffffffffffffffff1673ffffffffffffffffffffffffffffffffffffffff16815260200190815260200160002060050160006101000a81548160ff021916908360038111156123595761235861401f565b5b02179055508073ffffffffffffffffffffffffffffffffffffffff168260038111156123885761238761401f565b5b600381111561239a5761239961401f565b5b600160008473ffffffffffffffffffffffffffffffffffffffff1673ffffffffffffffffffffffffffffffffffffffff1681526020019081526020016000206001016040516123e99190615d17565b60405180910390207ff17f3effabbd51830c4ffa8b6910ac12573d210009e0aedb1a55ae5026192e9a600160008673ffffffffffffffffffffffffffffffffffffffff1673ffffffffffffffffffffffffffffffffffffffff16815260200190815260200160002060000154600160008773ffffffffffffffffffffffffffffffffffffffff1673ffffffffffffffffffffffffffffffffffffffff16815260200190815260200160002060020154600160008873ffffffffffffffffffffffffffffffffffffffff1673ffffffffffffffffffffffffffffffffffffffff16815260200190815260200160002060030154600160008973ffffffffffffffffffffffffffffffffffffffff1673ffffffffffffffffffffffffffffffffffffffff1681526020019081526020016000206004015442604051612530959493929190615d2e565b60405180910390a45050565b600160205280600052604060002060009150905080600001549080600101805461256590615523565b80601f016020809104026020016040519081016040528092919081815260200182805461259190615523565b80156125de5780601f106125b3576101008083540402835291602001916125de565b820191906000526020600020905b8154815290600101906020018083116125c157829003601f168201915b5050505050908060020154908060030154908060040154908060050160009054906101000a900460ff16908060050160019054906101000a900473ffffffffffffffffffffffffffffffffffffffff16908060060154905088565b600860205280600052604060002060009150905080600001549080600101805461266290615523565b80601f016020809104026020016040519081016040528092919081815260200182805461268e90615523565b80156126db5780601f106126b0576101008083540402835291602001916126db565b820191906000526020600020905b8154815290600101906020018083116126be57829003601f168201915b5050505050908060020180546126f090615523565b80601f016020809104026020016040519081016040528092919081815260200182805461271c90615523565b80156127695780601f1061273e57610100808354040283529160200191612769565b820191906000526020600020905b81548152906001019060200180831161274c57829003601f168201915b5050505050908060030160009054906101000a900460ff16908060030160019054906101000a900460ff16908060030160029054906101000a900473ffffffffffffffffffffffffffffffffffffffff16908060040160009054906101000a900473ffffffffffffffffffffffffffffffffffffffff16908060050160009054906101000a900473ffffffffffffffffffffffffffffffffffffffff169080600601549080600701805461281c90615523565b80601f016020809104026020016040519081016040528092919081815260200182805461284890615523565b80156128955780601f1061286a57610100808354040283529160200191612895565b820191906000526020600020905b81548152906001019060200180831161287857829003601f168201915b505050505090508a565b60095481565b3373ffffffffffffffffffffffffffffffffffffffff1660008054906101000a900473ffffffffffffffffffffffffffffffffffffffff1673ffffffffffffffffffffffffffffffffffffffff1614612933576040517f08c379a000000000000000000000000000000000000000000000000000000000815260040161292a90615dcd565b60405180910390fd5b60405180610100016040528060035481526020018781526020018681526020018581526020018481526020018360038111156129725761297161401f565b5b60038111156129845761298361401f565b5b81526020018273ffffffffffffffffffffffffffffffffffffffff16815260200142815250600160008373ffffffffffffffffffffffffffffffffffffffff1673ffffffffffffffffffffffffffffffffffffffff168152602001908152602001600020600082015181600001556020820151816001019080519060200190612a0e929190613c60565b5060408201518160020155606082015181600301556080820151816004015560a08201518160050160006101000a81548160ff02191690836003811115612a5857612a5761401f565b5b021790555060c08201518160050160016101000a81548173ffffffffffffffffffffffffffffffffffffffff021916908373ffffffffffffffffffffffffffffffffffffffff16021790555060e082015181600601559050508073ffffffffffffffffffffffffffffffffffffffff16826003811115612adb57612ada61401f565b5b6003811115612aed57612aec61401f565b5b87604051612afb9190615ded565b60405180910390207ff17f3effabbd51830c4ffa8b6910ac12573d210009e0aedb1a55ae5026192e9a60035489898942604051612b3c959493929190615d2e565b60405180910390a46002819080600181540180825580915050600190039060005260206000200160009091909190916101000a81548173ffffffffffffffffffffffffffffffffffffffff021916908373ffffffffffffffffffffffffffffffffffffffff16021790555060036000815480929190612bba90615c4f565b9190505550505050505050565b60035481565b81600560008573ffffffffffffffffffffffffffffffffffffffff1673ffffffffffffffffffffffffffffffffffffffff1681526020019081526020016000206003019080519060200190612c23929190613c60565b5080600560008573ffffffffffffffffffffffffffffffffffffffff1673ffffffffffffffffffffffffffffffffffffffff1681526020019081526020016000206007019080519060200190612c7a929190613c60565b508273ffffffffffffffffffffffffffffffffffffffff167fac85378acf27ea180ea9b66d81dac89bcc984812edf7111c9413f708da4ca37a600560008673ffffffffffffffffffffffffffffffffffffffff1673ffffffffffffffffffffffffffffffffffffffff168152602001908152602001600020604051612cff9190615bfe565b60405180910390a2505050565b6060600060035467ffffffffffffffff811115612d2c57612d2b614201565b5b604051908082528060200260200182016040528015612d6557816020015b612d52613d69565b815260200190600190039081612d4a5790505b50905060005b600354811015612f9057600060028281548110612d8b57612d8a615c20565b5b9060005260206000200160009054906101000a900473ffffffffffffffffffffffffffffffffffffffff1690506000600160008373ffffffffffffffffffffffffffffffffffffffff1673ffffffffffffffffffffffffffffffffffffffff1681526020019081526020016000209050806040518061010001604052908160008201548152602001600182018054612e2290615523565b80601f0160208091040260200160405190810160405280929190818152602001828054612e4e90615523565b8015612e9b5780601f10612e7057610100808354040283529160200191612e9b565b820191906000526020600020905b815481529060010190602001808311612e7e57829003601f168201915b505050505081526020016002820154815260200160038201548152602001600482015481526020016005820160009054906101000a900460ff166003811115612ee757612ee661401f565b5b6003811115612ef957612ef861401f565b5b81526020016005820160019054906101000a900473ffffffffffffffffffffffffffffffffffffffff1673ffffffffffffffffffffffffffffffffffffffff1673ffffffffffffffffffffffffffffffffffffffff168152602001600682015481525050848481518110612f7057612f6f615c20565b5b602002602001018190525050508080612f8890615c4f565b915050612d6b565b508091505090565b6060806000600c541415612faf5780915050613365565b600c5467ffffffffffffffff811115612fcb57612fca614201565b5b60405190808252806020026020018201604052801561300457816020015b612ff1613ddf565b815260200190600190039081612fe95790505b50905060005b600c5481101561335f576000600b600083815260200190815260200160002090508060405180610160016040529081600082015481526020016001820154815260200160028201805461305c90615523565b80601f016020809104026020016040519081016040528092919081815260200182805461308890615523565b80156130d55780601f106130aa576101008083540402835291602001916130d5565b820191906000526020600020905b8154815290600101906020018083116130b857829003601f168201915b505050505081526020016003820160009054906101000a900460ff1660028111156131035761310261401f565b5b60028111156131155761311461401f565b5b81526020016003820160019054906101000a900460ff16600481111561313e5761313d61401f565b5b60048111156131505761314f61401f565b5b81526020016003820160029054906101000a900460ff1660018111156131795761317861401f565b5b600181111561318b5761318a61401f565b5b81526020016003820160039054906101000a900473ffffffffffffffffffffffffffffffffffffffff1673ffffffffffffffffffffffffffffffffffffffff1673ffffffffffffffffffffffffffffffffffffffff1681526020016004820160009054906101000a900473ffffffffffffffffffffffffffffffffffffffff1673ffffffffffffffffffffffffffffffffffffffff1673ffffffffffffffffffffffffffffffffffffffff1681526020016005820160009054906101000a900473ffffffffffffffffffffffffffffffffffffffff1673ffffffffffffffffffffffffffffffffffffffff1673ffffffffffffffffffffffffffffffffffffffff168152602001600682015481526020016007820180546132ab90615523565b80601f01602080910402602001604051908101604052809291908181526020018280546132d790615523565b80156133245780601f106132f957610100808354040283529160200191613324565b820191906000526020600020905b81548152906001019060200180831161330757829003601f168201915b5050505050815250508383815181106133405761333f615c20565b5b602002602001018190525050808061335790615c4f565b91505061300a565b50809150505b90565b60405180610140016040528060095481526020018781526020016040518060200160405280600081525081526020018660048111156133aa576133a961401f565b5b60048111156133bc576133bb61401f565b5b81526020018560028111156133d4576133d361401f565b5b60028111156133e6576133e561401f565b5b81526020018473ffffffffffffffffffffffffffffffffffffffff168152602001600460009054906101000a900473ffffffffffffffffffffffffffffffffffffffff1673ffffffffffffffffffffffffffffffffffffffff1681526020018373ffffffffffffffffffffffffffffffffffffffff168152602001428152602001828152506008600060095481526020019081526020016000206000820151816000015560208201518160010190805190602001906134a6929190613c60565b5060408201518160020190805190602001906134c3929190613c60565b5060608201518160030160006101000a81548160ff021916908360048111156134ef576134ee61401f565b5b021790555060808201518160030160016101000a81548160ff0219169083600281111561351f5761351e61401f565b5b021790555060a08201518160030160026101000a81548173ffffffffffffffffffffffffffffffffffffffff021916908373ffffffffffffffffffffffffffffffffffffffff16021790555060c08201518160040160006101000a81548173ffffffffffffffffffffffffffffffffffffffff021916908373ffffffffffffffffffffffffffffffffffffffff16021790555060e08201518160050160006101000a81548173ffffffffffffffffffffffffffffffffffffffff021916908373ffffffffffffffffffffffffffffffffffffffff1602179055506101008201518160060155610120820151816007019080519060200190613621929190613c60565b509050506136356009548786888787613720565b8273ffffffffffffffffffffffffffffffffffffffff167fb503855b01edd8caf0051e68bacef096056daa0d24478362eaa8a4f4b8a7130e60086000600954815260200190815260200160002060405161368f9190615ae8565b60405180910390a2600a829080600181540180825580915050600190039060005260206000200160009091909190916101000a81548173ffffffffffffffffffffffffffffffffffffffff021916908373ffffffffffffffffffffffffffffffffffffffff1602179055506009600081548092919061370d90615c4f565b9190505550505050505050565b60065481565b6000600160048111156137365761373561401f565b5b8460048111156137495761374861401f565b5b600481111561375b5761375a61401f565b5b148061379d5750600360048111156137765761377561401f565b5b8460048111156137895761378861401f565b5b600481111561379b5761379a61401f565b5b145b806137dd57506004808111156137b6576137b561401f565b5b8460048111156137c9576137c861401f565b5b60048111156137db576137da61401f565b5b145b156137eb5760009050613830565b600260048111156137ff576137fe61401f565b5b8460048111156138125761381161401f565b5b60048111156138245761382361401f565b5b141561382f57600190505b5b61383f87878787858888613848565b50505050505050565b604051806101600160405280600c54815260200188815260200187815260200186600281111561387b5761387a61401f565b5b600281111561388d5761388c61401f565b5b81526020018560048111156138a5576138a461401f565b5b60048111156138b7576138b661401f565b5b81526020018460018111156138cf576138ce61401f565b5b81526020018373ffffffffffffffffffffffffffffffffffffffff168152602001600460009054906101000a900473ffffffffffffffffffffffffffffffffffffffff1673ffffffffffffffffffffffffffffffffffffffff1681526020018273ffffffffffffffffffffffffffffffffffffffff16815260200142815260200160405180602001604052806000815250815250600b6000600c548152602001908152602001600020600082015181600001556020820151816001015560408201518160020190805190602001906139a8929190613c60565b5060608201518160030160006101000a81548160ff021916908360028111156139d4576139d361401f565b5b021790555060808201518160030160016101000a81548160ff02191690836004811115613a0457613a0361401f565b5b021790555060a08201518160030160026101000a81548160ff02191690836001811115613a3457613a3361401f565b5b021790555060c08201518160030160036101000a81548173ffffffffffffffffffffffffffffffffffffffff021916908373ffffffffffffffffffffffffffffffffffffffff16021790555060e08201518160040160006101000a81548173ffffffffffffffffffffffffffffffffffffffff021916908373ffffffffffffffffffffffffffffffffffffffff1602179055506101008201518160050160006101000a81548173ffffffffffffffffffffffffffffffffffffffff021916908373ffffffffffffffffffffffffffffffffffffffff1602179055506101208201518160060155610140820151816007019080519060200190613b37929190613c60565b509050507ff6ce78692ad338bc638c20ce19f064d65feafa9df8ee93c26325f243c24f714e600b6000600c548152602001908152602001600020604051613b7e9190615954565b60405180910390a1600c6000815480929190613b9990615c4f565b919050555050505050505050565b60405180610140016040528060008152602001606081526020016060815260200160006004811115613bdc57613bdb61401f565b5b815260200160006002811115613bf557613bf461401f565b5b8152602001600073ffffffffffffffffffffffffffffffffffffffff168152602001600073ffffffffffffffffffffffffffffffffffffffff168152602001600073ffffffffffffffffffffffffffffffffffffffff16815260200160008152602001606081525090565b828054613c6c90615523565b90600052602060002090601f016020900481019282613c8e5760008555613cd5565b82601f10613ca757805160ff1916838001178555613cd5565b82800160010185558215613cd5579182015b82811115613cd4578251825591602001919060010190613cb9565b5b509050613ce29190613eb1565b5090565b604051806101000160405280600081526020016060815260200160006004811115613d1457613d1361401f565b5b815260200160608152602001600073ffffffffffffffffffffffffffffffffffffffff168152602001600073ffffffffffffffffffffffffffffffffffffffff16815260200160008152602001606081525090565b604051806101000160405280600081526020016060815260200160008019168152602001600080191681526020016000801916815260200160006003811115613db557613db461401f565b5b8152602001600073ffffffffffffffffffffffffffffffffffffffff168152602001600081525090565b60405180610160016040528060008152602001600081526020016060815260200160006002811115613e1457613e1361401f565b5b815260200160006004811115613e2d57613e2c61401f565b5b815260200160006001811115613e4657613e4561401f565b5b8152602001600073ffffffffffffffffffffffffffffffffffffffff168152602001600073ffffffffffffffffffffffffffffffffffffffff168152602001600073ffffffffffffffffffffffffffffffffffffffff16815260200160008152602001606081525090565b5b80821115613eca576000816000905550600101613eb2565b5090565b6000604051905090565b600080fd5b600080fd5b600073ffffffffffffffffffffffffffffffffffffffff82169050919050565b6000613f0d82613ee2565b9050919050565b613f1d81613f02565b8114613f2857600080fd5b50565b600081359050613f3a81613f14565b92915050565b600060208284031215613f5657613f55613ed8565b5b6000613f6484828501613f2b565b91505092915050565b6000819050919050565b613f8081613f6d565b82525050565b600081519050919050565b600082825260208201905092915050565b60005b83811015613fc0578082015181840152602081019050613fa5565b83811115613fcf576000848401525b50505050565b6000601f19601f8301169050919050565b6000613ff182613f86565b613ffb8185613f91565b935061400b818560208601613fa2565b61401481613fd5565b840191505092915050565b7f4e487b7100000000000000000000000000000000000000000000000000000000600052602160045260246000fd5b6005811061405f5761405e61401f565b5b50565b60008190506140708261404e565b919050565b600061408082614062565b9050919050565b61409081614075565b82525050565b600381106140a7576140a661401f565b5b50565b60008190506140b882614096565b919050565b60006140c8826140aa565b9050919050565b6140d8816140bd565b82525050565b6140e781613f02565b82525050565b6000610140830160008301516141066000860182613f77565b506020830151848203602086015261411e8282613fe6565b915050604083015184820360408601526141388282613fe6565b915050606083015161414d6060860182614087565b50608083015161416060808601826140cf565b5060a083015161417360a08601826140de565b5060c083015161418660c08601826140de565b5060e083015161419960e08601826140de565b506101008301516141ae610100860182613f77565b506101208301518482036101208601526141c88282613fe6565b9150508091505092915050565b600060208201905081810360008301526141ef81846140ed565b905092915050565b600080fd5b600080fd5b7f4e487b7100000000000000000000000000000000000000000000000000000000600052604160045260246000fd5b61423982613fd5565b810181811067ffffffffffffffff8211171561425857614257614201565b5b80604052505050565b600061426b613ece565b90506142778282614230565b919050565b600067ffffffffffffffff82111561429757614296614201565b5b6142a082613fd5565b9050602081019050919050565b82818337600083830152505050565b60006142cf6142ca8461427c565b614261565b9050828152602081018484840111156142eb576142ea6141fc565b5b6142f68482856142ad565b509392505050565b600082601f830112614313576143126141f7565b5b81356143238482602086016142bc565b91505092915050565b61433581613f6d565b811461434057600080fd5b50565b6000813590506143528161432c565b92915050565b6000806040838503121561436f5761436e613ed8565b5b600083013567ffffffffffffffff81111561438d5761438c613edd565b5b614399858286016142fe565b92505060206143aa85828601614343565b9150509250929050565b6143bd81613f02565b82525050565b60006020820190506143d860008301846143b4565b92915050565b6000602082840312156143f4576143f3613ed8565b5b600061440284828501614343565b91505092915050565b600080600080600080600060e0888a03121561442a57614429613ed8565b5b60006144388a828b01614343565b97505060206144498a828b01614343565b965050604088013567ffffffffffffffff81111561446a57614469613edd565b5b6144768a828b016142fe565b95505060606144878a828b01614343565b94505060806144988a828b01614343565b93505060a06144a98a828b01613f2b565b92505060c088013567ffffffffffffffff8111156144ca576144c9613edd565b5b6144d68a828b016142fe565b91505092959891949750929550565b600081519050919050565b600082825260208201905092915050565b6000819050602082019050919050565b60006101408301600083015161452a6000860182613f77565b50602083015184820360208601526145428282613fe6565b9150506040830151848203604086015261455c8282613fe6565b91505060608301516145716060860182614087565b50608083015161458460808601826140cf565b5060a083015161459760a08601826140de565b5060c08301516145aa60c08601826140de565b5060e08301516145bd60e08601826140de565b506101008301516145d2610100860182613f77565b506101208301518482036101208601526145ec8282613fe6565b9150508091505092915050565b60006146058383614511565b905092915050565b6000602082019050919050565b6000614625826144e5565b61462f81856144f0565b93508360208202850161464185614501565b8060005b8581101561467d578484038952815161465e85826145f9565b94506146698361460d565b925060208a01995050600181019050614645565b50829750879550505050505092915050565b600060208201905081810360008301526146a9818461461a565b905092915050565b6000610100830160008301516146ca6000860182613f77565b50602083015184820360208601526146e28282613fe6565b91505060408301516146f76040860182614087565b506060830151848203606086015261470f8282613fe6565b915050608083015161472460808601826140de565b5060a083015161473760a08601826140de565b5060c083015161474a60c0860182613f77565b5060e083015184820360e08601526147628282613fe6565b9150508091505092915050565b6000602082019050818103600083015261478981846146b1565b905092915050565b6000819050919050565b6147a481614791565b82525050565b600481106147bb576147ba61401f565b5b50565b60008190506147cc826147aa565b919050565b60006147dc826147be565b9050919050565b6147ec816147d1565b82525050565b60006101008301600083015161480b6000860182613f77565b50602083015184820360208601526148238282613fe6565b9150506040830151614838604086018261479b565b50606083015161484b606086018261479b565b50608083015161485e608086018261479b565b5060a083015161487160a08601826147e3565b5060c083015161488460c08601826140de565b5060e083015161489760e0860182613f77565b508091505092915050565b600060208201905081810360008301526148bc81846147f2565b905092915050565b6148cd81613f6d565b82525050565b60006020820190506148e860008301846148c4565b92915050565b600081519050919050565b600082825260208201905092915050565b6000819050602082019050919050565b6000610100830160008301516149336000860182613f77565b506020830151848203602086015261494b8282613fe6565b91505060408301516149606040860182614087565b50606083015184820360608601526149788282613fe6565b915050608083015161498d60808601826140de565b5060a08301516149a060a08601826140de565b5060c08301516149b360c0860182613f77565b5060e083015184820360e08601526149cb8282613fe6565b9150508091505092915050565b60006149e4838361491a565b905092915050565b6000602082019050919050565b6000614a04826148ee565b614a0e81856148f9565b935083602082028501614a208561490a565b8060005b85811015614a5c5784840389528151614a3d85826149d8565b9450614a48836149ec565b925060208a01995050600181019050614a24565b50829750879550505050505092915050565b60006020820190508181036000830152614a8881846149f9565b905092915050565b600082825260208201905092915050565b6000614aac82613f86565b614ab68185614a90565b9350614ac6818560208601613fa2565b614acf81613fd5565b840191505092915050565b614ae3816140bd565b82525050565b614af281614075565b82525050565b60028110614b0957614b0861401f565b5b50565b6000819050614b1a82614af8565b919050565b6000614b2a82614b0c565b9050919050565b614b3a81614b1f565b82525050565b600061016082019050614b56600083018e6148c4565b614b63602083018d6148c4565b8181036040830152614b75818c614aa1565b9050614b84606083018b614ada565b614b91608083018a614ae9565b614b9e60a0830189614b31565b614bab60c08301886143b4565b614bb860e08301876143b4565b614bc66101008301866143b4565b614bd46101208301856148c4565b818103610140830152614be78184614aa1565b90509c9b505050505050505050505050565b600061010082019050614c0f600083018b6148c4565b8181036020830152614c21818a614aa1565b9050614c306040830189614ae9565b8181036060830152614c428188614aa1565b9050614c5160808301876143b4565b614c5e60a08301866143b4565b614c6b60c08301856148c4565b81810360e0830152614c7d8184614aa1565b90509998505050505050505050565b600080600080600060a08688031215614ca857614ca7613ed8565b5b6000614cb688828901613f2b565b955050602086013567ffffffffffffffff811115614cd757614cd6613edd565b5b614ce3888289016142fe565b9450506040614cf488828901614343565b935050606086013567ffffffffffffffff811115614d1557614d14613edd565b5b614d21888289016142fe565b925050608086013567ffffffffffffffff811115614d4257614d41613edd565b5b614d4e888289016142fe565b9150509295509295909350565b60008060408385031215614d7257614d71613ed8565b5b6000614d8085828601614343565b9250506020614d9185828601613f2b565b9150509250929050565b614da481614791565b82525050565b614db3816147d1565b82525050565b600061010082019050614dcf600083018b6148c4565b8181036020830152614de1818a614aa1565b9050614df06040830189614d9b565b614dfd6060830188614d9b565b614e0a6080830187614d9b565b614e1760a0830186614daa565b614e2460c08301856143b4565b614e3160e08301846148c4565b9998505050505050505050565b600061014082019050614e54600083018d6148c4565b8181036020830152614e66818c614aa1565b90508181036040830152614e7a818b614aa1565b9050614e89606083018a614ae9565b614e966080830189614ada565b614ea360a08301886143b4565b614eb060c08301876143b4565b614ebd60e08301866143b4565b614ecb6101008301856148c4565b818103610120830152614ede8184614aa1565b90509b9a5050505050505050505050565b614ef881614791565b8114614f0357600080fd5b50565b600081359050614f1581614eef565b92915050565b60008060008060008060c08789031215614f3857614f37613ed8565b5b600087013567ffffffffffffffff811115614f5657614f55613edd565b5b614f6289828a016142fe565b9650506020614f7389828a01614f06565b9550506040614f8489828a01614f06565b9450506060614f9589828a01614f06565b9350506080614fa689828a01614343565b92505060a0614fb789828a01613f2b565b9150509295509295509295565b600080600060608486031215614fdd57614fdc613ed8565b5b6000614feb86828701613f2b565b935050602084013567ffffffffffffffff81111561500c5761500b613edd565b5b615018868287016142fe565b925050604084013567ffffffffffffffff81111561503957615038613edd565b5b615045868287016142fe565b9150509250925092565b600081519050919050565b600082825260208201905092915050565b6000819050602082019050919050565b6000610100830160008301516150946000860182613f77565b50602083015184820360208601526150ac8282613fe6565b91505060408301516150c1604086018261479b565b5060608301516150d4606086018261479b565b5060808301516150e7608086018261479b565b5060a08301516150fa60a08601826147e3565b5060c083015161510d60c08601826140de565b5060e083015161512060e0860182613f77565b508091505092915050565b6000615137838361507b565b905092915050565b6000602082019050919050565b60006151578261504f565b615161818561505a565b9350836020820285016151738561506b565b8060005b858110156151af5784840389528151615190858261512b565b945061519b8361513f565b925060208a01995050600181019050615177565b50829750879550505050505092915050565b600060208201905081810360008301526151db818461514c565b905092915050565b600081519050919050565b600082825260208201905092915050565b6000819050602082019050919050565b61521881614b1f565b82525050565b6000610160830160008301516152376000860182613f77565b50602083015161524a6020860182613f77565b50604083015184820360408601526152628282613fe6565b915050606083015161527760608601826140cf565b50608083015161528a6080860182614087565b5060a083015161529d60a086018261520f565b5060c08301516152b060c08601826140de565b5060e08301516152c360e08601826140de565b506101008301516152d86101008601826140de565b506101208301516152ed610120860182613f77565b506101408301518482036101408601526153078282613fe6565b9150508091505092915050565b6000615320838361521e565b905092915050565b6000602082019050919050565b6000615340826151e3565b61534a81856151ee565b93508360208202850161535c856151ff565b8060005b8581101561539857848403895281516153798582615314565b945061538483615328565b925060208a01995050600181019050615360565b50829750879550505050505092915050565b600060208201905081810360008301526153c48184615335565b905092915050565b60008060008060008060c087890312156153e9576153e8613ed8565b5b600087013567ffffffffffffffff81111561540757615406613edd565b5b61541389828a016142fe565b965050602061542489828a01614343565b955050604061543589828a01614343565b945050606061544689828a01613f2b565b935050608061545789828a01613f2b565b92505060a087013567ffffffffffffffff81111561547857615477613edd565b5b61548489828a016142fe565b9150509295509295509295565b7f4e487b7100000000000000000000000000000000000000000000000000000000600052601160045260246000fd5b60006154cb82613f6d565b91506154d683613f6d565b9250828210156154e9576154e8615491565b5b828203905092915050565b7f4e487b7100000000000000000000000000000000000000000000000000000000600052602260045260246000fd5b6000600282049050600182168061553b57607f821691505b6020821081141561554f5761554e6154f4565b5b50919050565b600061556082613f6d565b9150600082141561557457615573615491565b5b600182039050919050565b600081905092915050565b600061559582613f86565b61559f818561557f565b93506155af818560208601613fa2565b80840191505092915050565b60008160601b9050919050565b60006155d3826155bb565b9050919050565b60006155e5826155c8565b9050919050565b6155fd6155f882613f02565b6155da565b82525050565b6000819050919050565b61561e61561982613f6d565b615603565b82525050565b6000615630828661558a565b915061563c82856155ec565b60148201915061564c828461560d565b602082019150819050949350505050565b60008160001c9050919050565b6000819050919050565b60006156876156828361565d565b61566a565b9050919050565b60008190508160005260206000209050919050565b600081546156b081615523565b6156ba8186613f91565b945060018216600081146156d557600181146156e75761571a565b60ff198316865260208601935061571a565b6156f08561568e565b60005b83811015615712578154818901526001820191506020810190506156f3565b808801955050505b50505092915050565b600060ff82169050919050565b600061574361573e8361565d565b615723565b9050919050565b60008160081c9050919050565b600060ff82169050919050565b60006157776157728361574a565b615757565b9050919050565b60008160101c9050919050565b600060ff82169050919050565b60006157ab6157a68361577e565b61578b565b9050919050565b60008160181c9050919050565b600073ffffffffffffffffffffffffffffffffffffffff82169050919050565b60006157f26157ed836157b2565b6157bf565b9050919050565b600061580c6158078361565d565b6157bf565b9050919050565b60006101608301600080840154905061582b81615674565b6158386000870182613f77565b506001840154905061584981615674565b6158566020870182613f77565b5060028401858303604087015261586d83826156a3565b9250506003840154905061588081615730565b61588d60608701826140cf565b5061589781615764565b6158a46080870182614087565b506158ae81615798565b6158bb60a087018261520f565b506158c5816157df565b6158d260c08701826140de565b50600484015490506158e3816157f9565b6158f060e08701826140de565b5060058401549050615901816157f9565b61590f6101008701826140de565b506006840154905061592081615674565b61592e610120870182613f77565b506007840185830361014087015261594683826156a3565b925050819250505092915050565b6000602082019050818103600083015261596e8184615813565b905092915050565b60006159896159848361565d565b615757565b9050919050565b60006159a361599e8361574a565b615723565b9050919050565b60006159bd6159b88361577e565b6157bf565b9050919050565b6000610140830160008084015490506159dc81615674565b6159e96000870182613f77565b50600184018583036020870152615a0083826156a3565b925050600284018583036040870152615a1983826156a3565b92505060038401549050615a2c81615976565b615a396060870182614087565b50615a4381615990565b615a5060808701826140cf565b50615a5a816159aa565b615a6760a08701826140de565b5060048401549050615a78816157f9565b615a8560c08701826140de565b5060058401549050615a96816157f9565b615aa360e08701826140de565b5060068401549050615ab481615674565b615ac2610100870182613f77565b5060078401858303610120870152615ada83826156a3565b925050819250505092915050565b60006020820190508181036000830152615b0281846159c4565b905092915050565b600061010083016000808401549050615b2281615674565b615b2f6000870182613f77565b50600184018583036020870152615b4683826156a3565b92505060028401549050615b5981615976565b615b666040870182614087565b50600384018583036060870152615b7d83826156a3565b92505060048401549050615b90816157f9565b615b9d60808701826140de565b5060058401549050615bae816157f9565b615bbb60a08701826140de565b5060068401549050615bcc81615674565b615bd960c0870182613f77565b506007840185830360e0870152615bf083826156a3565b925050819250505092915050565b60006020820190508181036000830152615c188184615b0a565b905092915050565b7f4e487b7100000000000000000000000000000000000000000000000000000000600052603260045260246000fd5b6000615c5a82613f6d565b91507fffffffffffffffffffffffffffffffffffffffffffffffffffffffffffffffff821415615c8d57615c8c615491565b5b600182019050919050565b60008154615ca581615523565b615caf818661557f565b94506001821660008114615cca5760018114615cdb57615d0e565b60ff19831686528186019350615d0e565b615ce48561568e565b60005b83811015615d0657815481890152600182019150602081019050615ce7565b838801955050505b50505092915050565b6000615d238284615c98565b915081905092915050565b600060a082019050615d4360008301886148c4565b615d506020830187614d9b565b615d5d6040830186614d9b565b615d6a6060830185614d9b565b615d7760808301846148c4565b9695505050505050565b7f596f7520617265206e6f7420616e206f776e6572000000000000000000000000600082015250565b6000615db7601483614a90565b9150615dc282615d81565b602082019050919050565b60006020820190508181036000830152615de681615daa565b9050919050565b6000615df9828461558a565b91508190509291505056fea2646970667358221220d99821f0be8e5435784a2db80c85f237da7db435c4476ff8c1615c9c3a2a5ff764736f6c634300080a0033",
  "immutableReferences": {},
  "source": "// SPDX-License-Identifier: MIT\r\npragma solidity >=0.8.0 <0.9.0;\r\n\r\nimport \"./UserChain.sol\";\r\nimport \"./SharedChain.sol\";\r\n\r\ncontract ProjectChain is UserChain {\r\n    address _projectInitiator;\r\n\r\n    constructor() {\r\n        _projectInitiator = msg.sender;\r\n    }\r\n\r\n    modifier onlyProjectInitiator() {\r\n        require(\r\n            users[_projectInitiator]._role == Roles.ProjectInitiator,\r\n            \"You don't have the rights for this resources.\"\r\n        );\r\n        _;\r\n    }\r\n\r\n    /**  PROJECT INITIATOR  */\r\n\r\n    mapping(address => Project) public projects;\r\n    uint256 public projectsCounter = 0;\r\n    address[] public projectsAddress;\r\n\r\n    function createUniqueProjectAddress(string memory _name, uint _index) public view returns (address) {\r\n        return address(uint160(uint256(keccak256(abi.encodePacked(_name,_projectInitiator,_index)))));\r\n    }\r\n\r\n    function createProject(\r\n        address _projectAddress,\r\n        string memory _name,\r\n        uint256 _status,\r\n        string memory _ipfsFileCID,\r\n        string memory _signature\r\n    ) public {\r\n        projects[_projectAddress] = Project(\r\n            projectsCounter,\r\n            _name,\r\n            ProjectStatus(_status),\r\n            _ipfsFileCID,\r\n            _projectAddress,\r\n            _projectInitiator,\r\n            block.timestamp,\r\n            _signature\r\n        );\r\n\r\n        emit ProjectEvent(projects[_projectAddress], _projectAddress);\r\n        projectsAddress.push(_projectAddress);\r\n        projectsCounter++;\r\n    }\r\n\r\n    function updateProject(\r\n        address _projectAddress,\r\n        string memory _ipfsFileCID,\r\n        string memory _signature\r\n    ) public {\r\n        projects[_projectAddress]._ipfsFileCID = _ipfsFileCID;\r\n        projects[_projectAddress]._signature = _signature;\r\n\r\n        emit ProjectEvent(projects[_projectAddress], _projectAddress);\r\n    }\r\n\r\n    function getProjectInfo(address _address)\r\n        public\r\n        view\r\n        returns (Project memory)\r\n    {\r\n        return projects[_address];\r\n    }\r\n\r\n    function getAllProjects() public view returns (Project[] memory) {\r\n        Project[] memory allProjects;\r\n        if (projectsCounter == 0) return allProjects;\r\n\r\n        allProjects = new Project[](projectsCounter);\r\n        for (uint256 index = 0; index < projectsCounter; index++) {\r\n            address _projectAddress = projectsAddress[index];\r\n            Project storage project = projects[_projectAddress];\r\n            allProjects[index] = project;\r\n        }\r\n        return allProjects;\r\n    }\r\n\r\n\r\n    /**  Project Requests  */\r\n\r\n    mapping(uint256 => ProjectRequest) public projectRequests;\r\n    uint256 public projectRequestsCounter = 0;\r\n    address[] public projectRequestsAddress;\r\n\r\n    function createUniqueProjectRequestAddress(string memory _title, uint _index) public view returns (address) {\r\n        return address(uint160(uint256(keccak256(abi.encodePacked(_title, _projectInitiator, _index)))));\r\n    }\r\n\r\n    function createProjectRequest(\r\n        string memory _title,\r\n        uint256 _status,\r\n        uint256 _requestStatus,\r\n        address _projectAddress,\r\n        address _projectReqAddress,\r\n        string memory _signature\r\n    ) public {\r\n        projectRequests[projectRequestsCounter] = ProjectRequest(\r\n            projectRequestsCounter,\r\n            _title,\r\n            \"\",\r\n            ProjectStatus(_status),\r\n            RequestStatus(_requestStatus),\r\n            _projectAddress,\r\n            _projectInitiator,\r\n            _projectReqAddress,\r\n            block.timestamp,\r\n            _signature\r\n        );\r\n\r\n        filterRequests(\r\n            projectRequestsCounter,\r\n            _title,\r\n            _requestStatus,\r\n            _status,\r\n            _projectAddress,\r\n            _projectReqAddress\r\n        );\r\n\r\n        emit ProjectRequestEvent(projectRequests[projectRequestsCounter], _projectAddress);\r\n        projectRequestsAddress.push(_projectReqAddress);\r\n        projectRequestsCounter++;\r\n    }\r\n\r\n    function filterRequests(\r\n        uint256 _indexProjectRequest,\r\n        string memory _title,\r\n        uint256 _requestStatus,\r\n        uint256 _projectStatus,\r\n        address _projectAddress,\r\n        address _requestAddress\r\n    ) internal {\r\n        RequestType _requestType;\r\n        if (\r\n            ProjectStatus(_projectStatus) == ProjectStatus.ToApprove ||\r\n            ProjectStatus(_projectStatus) == ProjectStatus.FinalizationCheck ||\r\n            ProjectStatus(_projectStatus) == ProjectStatus.Completed\r\n        ) {\r\n            _requestType = RequestType.SupervisorReq;\r\n        } else if (\r\n            ProjectStatus(_projectStatus) == ProjectStatus.StartProject\r\n        ) {\r\n            _requestType = RequestType.CompanyReq;\r\n        }\r\n        createRequest(\r\n            _indexProjectRequest,\r\n            _title,\r\n            _requestStatus,\r\n            _projectStatus,\r\n            _requestType,\r\n            _projectAddress,\r\n            _requestAddress\r\n        );\r\n    }\r\n\r\n    function getAllProjectRequests()\r\n        public\r\n        view\r\n        returns (ProjectRequest[] memory)\r\n    {\r\n        ProjectRequest[] memory allProjectRequests;\r\n        if (projectRequestsCounter == 0) return allProjectRequests;\r\n\r\n        allProjectRequests = new ProjectRequest[](projectRequestsCounter);\r\n        for (uint256 index = 0; index < projectRequestsCounter; index++) {\r\n            ProjectRequest storage projectReq = projectRequests[index];\r\n            allProjectRequests[index] = projectReq;\r\n        }\r\n        return allProjectRequests;\r\n    }\r\n\r\n    function getLastProjectRequest(address _projectAddress)\r\n        public\r\n        view\r\n        returns (ProjectRequest memory)\r\n    {\r\n        ProjectRequest memory request;\r\n        if (projectRequestsCounter > 0) {\r\n            for (\r\n                uint256 index = projectRequestsCounter - 1;\r\n                index >= 0;\r\n                index--\r\n            ) {\r\n                if (_projectAddress == projectRequests[index]._projectAddress) {\r\n                    request = ProjectRequest(\r\n                        projectRequests[index]._index,\r\n                        projectRequests[index]._title,\r\n                        projectRequests[index]._comments,\r\n                        projectRequests[index]._status,\r\n                        projectRequests[index]._requestStatus,\r\n                        projectRequests[index]._projectAddress,\r\n                        projectRequests[index]._signerAddress,\r\n                        projectRequests[index]._requestAddress,\r\n                        block.timestamp,\r\n                        projectRequests[index]._signature\r\n                    );\r\n                    return request;\r\n                }\r\n            }\r\n        }\r\n        return request;\r\n    }\r\n\r\n\r\n    /**  DATA FOR SUPERVISOR && COMPANY  */\r\n\r\n    mapping(uint256 => Request) public requests;\r\n    uint256 public requestsCounter = 0;\r\n\r\n    function createRequest(\r\n        uint256 _indexProjectRequest,\r\n        string memory _title,\r\n        uint256 _requestStatus,\r\n        uint256 _projectStatus,\r\n        RequestType _requestType,\r\n        address _projectAddress,\r\n        address _requestAddress\r\n    ) internal {\r\n        requests[requestsCounter] = Request(\r\n            requestsCounter,\r\n            _indexProjectRequest,\r\n            _title,\r\n            RequestStatus(_requestStatus),\r\n            ProjectStatus(_projectStatus),\r\n            _requestType,\r\n            _projectAddress,\r\n            _projectInitiator,\r\n            _requestAddress,\r\n            block.timestamp,\r\n            \"\"\r\n        );\r\n\r\n        emit RequestEvent(requests[requestsCounter]);\r\n        requestsCounter++;\r\n    }\r\n\r\n    function updateRequest(\r\n        uint256 _index,\r\n        uint256 _indexProjectRequest,\r\n        string memory _comments,\r\n        uint256 _requestStatus,\r\n        uint256 _projectStatus,\r\n        address _projectAddress,\r\n        string memory _signature\r\n    ) public {\r\n        // Update request status in the Requests Mapping and Struct Array\r\n        requests[_index]._requestStatus = RequestStatus(_requestStatus);\r\n        requests[_index]._signature = _signature;\r\n\r\n        emit RequestEvent(requests[_index]);\r\n\r\n        // Update project request status in the Project Requests Mapping and Struct Array\r\n        projectRequests[_indexProjectRequest]._comments = _comments;\r\n        projectRequests[_indexProjectRequest]._requestStatus = RequestStatus(_requestStatus);\r\n        projectRequests[_indexProjectRequest]._signature = _signature;\r\n\r\n        emit ProjectRequestEvent(projectRequests[_indexProjectRequest], _projectAddress);\r\n\r\n        // Update ProjectStatus to the requested status - Porject Mapping and Struct Array\r\n        if (RequestStatus.Approved == RequestStatus(_requestStatus)) {\r\n        projects[_projectAddress]._status = ProjectStatus(_projectStatus);\r\n        emit ProjectEvent(projects[_projectAddress], _projectAddress);\r\n        }\r\n    }\r\n\r\n    function getAllRequests() public view returns (Request[] memory) {\r\n        Request[] memory allRequests;\r\n        if (requestsCounter == 0) return allRequests;\r\n\r\n        allRequests = new Request[](requestsCounter);\r\n        for (uint256 index = 0; index < requestsCounter; index++) {\r\n            Request storage request = requests[index];\r\n            allRequests[index] = request;\r\n        }\r\n        return allRequests;\r\n    }\r\n}\r\n",
  "sourcePath": "/mnt/c/Users/Beniamin/source/repos/DissertationProject/contracts/ProjectChain.sol",
  "compiler": {
    "name": "solc",
    "version": "0.8.10+commit.fc410830.Emscripten.clang"
  },
  "schemaVersion": "3.4.3",
  "updatedAt": "2021-12-05T17:34:23.845Z",
  "networkType": "ethereum",
  "devdoc": {
    "kind": "dev",
    "methods": {},
    "version": 1
  },
  "userdoc": {
    "kind": "user",
    "methods": {
      "projectRequests(uint256)": {
        "notice": "Project Requests  "
      },
      "projects(address)": {
        "notice": "PROJECT INITIATOR  "
      },
      "requests(uint256)": {
        "notice": "DATA FOR SUPERVISOR && COMPANY  "
      }
    },
    "version": 1
  }
}