{
  "contractName": "ProjectChain",
  "abi": [
    {
      "inputs": [],
      "stateMutability": "nonpayable",
      "type": "constructor"
    },
    {
      "anonymous": false,
      "inputs": [
        {
          "components": [
            {
              "internalType": "uint256",
              "name": "_index",
              "type": "uint256"
            },
            {
              "internalType": "string",
              "name": "_name",
              "type": "string"
            },
            {
              "internalType": "enum SharedChain.ProjectStatus",
              "name": "_status",
              "type": "uint8"
            },
            {
              "internalType": "string",
              "name": "_ipfsFileCID",
              "type": "string"
            },
            {
              "internalType": "address",
              "name": "_projectAddress",
              "type": "address"
            },
            {
              "internalType": "address",
              "name": "_signerAddress",
              "type": "address"
            },
            {
              "internalType": "address",
              "name": "_companyAddress",
              "type": "address"
            },
            {
              "internalType": "bool",
              "name": "_assigned",
              "type": "bool"
            },
            {
              "internalType": "uint256",
              "name": "_timestamp",
              "type": "uint256"
            },
            {
              "internalType": "string",
              "name": "_signature",
              "type": "string"
            }
          ],
          "indexed": false,
          "internalType": "struct SharedChain.Project",
          "name": "_project",
          "type": "tuple"
        },
        {
          "indexed": true,
          "internalType": "address",
          "name": "_projectAddress",
          "type": "address"
        },
        {
          "indexed": true,
          "internalType": "address",
          "name": "_companyAddress",
          "type": "address"
        }
      ],
      "name": "ProjectEvent",
      "type": "event"
    },
    {
      "anonymous": false,
      "inputs": [
        {
          "components": [
            {
              "internalType": "uint256",
              "name": "_index",
              "type": "uint256"
            },
            {
              "internalType": "string",
              "name": "_title",
              "type": "string"
            },
            {
              "internalType": "string",
              "name": "_comments",
              "type": "string"
            },
            {
              "internalType": "enum SharedChain.ProjectStatus",
              "name": "_projectStatus",
              "type": "uint8"
            },
            {
              "internalType": "enum SharedChain.RequestStatus",
              "name": "_requestStatus",
              "type": "uint8"
            },
            {
              "internalType": "enum SharedChain.RequestType",
              "name": "_requestType",
              "type": "uint8"
            },
            {
              "internalType": "address",
              "name": "_projectAddress",
              "type": "address"
            },
            {
              "internalType": "address",
              "name": "_requestAddress",
              "type": "address"
            },
            {
              "internalType": "address",
              "name": "_signerAddress",
              "type": "address"
            },
            {
              "internalType": "uint256",
              "name": "_timestamp",
              "type": "uint256"
            },
            {
              "internalType": "string",
              "name": "_signature",
              "type": "string"
            }
          ],
          "indexed": false,
          "internalType": "struct SharedChain.Request",
          "name": "_request",
          "type": "tuple"
        },
        {
          "indexed": true,
          "internalType": "address",
          "name": "_requestAddress",
          "type": "address"
        },
        {
          "indexed": true,
          "internalType": "address",
          "name": "_projectAddress",
          "type": "address"
        }
      ],
      "name": "RequestEvent",
      "type": "event"
    },
    {
      "anonymous": false,
      "inputs": [
        {
          "components": [
            {
              "internalType": "bytes32",
              "name": "_firstname",
              "type": "bytes32"
            },
            {
              "internalType": "bytes32",
              "name": "_lastname",
              "type": "bytes32"
            },
            {
              "internalType": "enum SharedChain.Roles",
              "name": "_role",
              "type": "uint8"
            },
            {
              "internalType": "address",
              "name": "_walletAddress",
              "type": "address"
            },
            {
              "internalType": "uint256",
              "name": "_timestamp",
              "type": "uint256"
            }
          ],
          "indexed": false,
          "internalType": "struct SharedChain.User",
          "name": "_user",
          "type": "tuple"
        },
        {
          "indexed": true,
          "internalType": "address",
          "name": "_walletAddress",
          "type": "address"
        }
      ],
      "name": "UserEvent",
      "type": "event"
    },
    {
      "inputs": [
        {
          "internalType": "uint256",
          "name": "_role",
          "type": "uint256"
        },
        {
          "internalType": "address",
          "name": "_walletAddress",
          "type": "address"
        }
      ],
      "name": "changeUserRole",
      "outputs": [],
      "stateMutability": "nonpayable",
      "type": "function"
    },
    {
      "inputs": [
        {
          "internalType": "address",
          "name": "_walletAddress",
          "type": "address"
        }
      ],
      "name": "getUserInfo",
      "outputs": [
        {
          "components": [
            {
              "internalType": "bytes32",
              "name": "_firstname",
              "type": "bytes32"
            },
            {
              "internalType": "bytes32",
              "name": "_lastname",
              "type": "bytes32"
            },
            {
              "internalType": "enum SharedChain.Roles",
              "name": "_role",
              "type": "uint8"
            },
            {
              "internalType": "address",
              "name": "_walletAddress",
              "type": "address"
            },
            {
              "internalType": "uint256",
              "name": "_timestamp",
              "type": "uint256"
            }
          ],
          "internalType": "struct SharedChain.User",
          "name": "",
          "type": "tuple"
        }
      ],
      "stateMutability": "view",
      "type": "function",
      "constant": true
    },
    {
      "inputs": [
        {
          "internalType": "address",
          "name": "",
          "type": "address"
        }
      ],
      "name": "projects",
      "outputs": [
        {
          "internalType": "uint256",
          "name": "_index",
          "type": "uint256"
        },
        {
          "internalType": "string",
          "name": "_name",
          "type": "string"
        },
        {
          "internalType": "enum SharedChain.ProjectStatus",
          "name": "_status",
          "type": "uint8"
        },
        {
          "internalType": "string",
          "name": "_ipfsFileCID",
          "type": "string"
        },
        {
          "internalType": "address",
          "name": "_projectAddress",
          "type": "address"
        },
        {
          "internalType": "address",
          "name": "_signerAddress",
          "type": "address"
        },
        {
          "internalType": "address",
          "name": "_companyAddress",
          "type": "address"
        },
        {
          "internalType": "bool",
          "name": "_assigned",
          "type": "bool"
        },
        {
          "internalType": "uint256",
          "name": "_timestamp",
          "type": "uint256"
        },
        {
          "internalType": "string",
          "name": "_signature",
          "type": "string"
        }
      ],
      "stateMutability": "view",
      "type": "function",
      "constant": true
    },
    {
      "inputs": [
        {
          "internalType": "uint256",
          "name": "",
          "type": "uint256"
        }
      ],
      "name": "projectsAddress",
      "outputs": [
        {
          "internalType": "address",
          "name": "",
          "type": "address"
        }
      ],
      "stateMutability": "view",
      "type": "function",
      "constant": true
    },
    {
      "inputs": [],
      "name": "projectsCounter",
      "outputs": [
        {
          "internalType": "uint256",
          "name": "",
          "type": "uint256"
        }
      ],
      "stateMutability": "view",
      "type": "function",
      "constant": true
    },
    {
      "inputs": [
        {
          "internalType": "bytes32",
          "name": "_firstname",
          "type": "bytes32"
        },
        {
          "internalType": "bytes32",
          "name": "_lastname",
          "type": "bytes32"
        },
        {
          "internalType": "uint256",
          "name": "_role",
          "type": "uint256"
        },
        {
          "internalType": "address",
          "name": "_walletAddress",
          "type": "address"
        }
      ],
      "name": "registerUser",
      "outputs": [],
      "stateMutability": "nonpayable",
      "type": "function"
    },
    {
      "inputs": [
        {
          "internalType": "address",
          "name": "",
          "type": "address"
        }
      ],
      "name": "requests",
      "outputs": [
        {
          "internalType": "uint256",
          "name": "_index",
          "type": "uint256"
        },
        {
          "internalType": "string",
          "name": "_title",
          "type": "string"
        },
        {
          "internalType": "string",
          "name": "_comments",
          "type": "string"
        },
        {
          "internalType": "enum SharedChain.ProjectStatus",
          "name": "_projectStatus",
          "type": "uint8"
        },
        {
          "internalType": "enum SharedChain.RequestStatus",
          "name": "_requestStatus",
          "type": "uint8"
        },
        {
          "internalType": "enum SharedChain.RequestType",
          "name": "_requestType",
          "type": "uint8"
        },
        {
          "internalType": "address",
          "name": "_projectAddress",
          "type": "address"
        },
        {
          "internalType": "address",
          "name": "_requestAddress",
          "type": "address"
        },
        {
          "internalType": "address",
          "name": "_signerAddress",
          "type": "address"
        },
        {
          "internalType": "uint256",
          "name": "_timestamp",
          "type": "uint256"
        },
        {
          "internalType": "string",
          "name": "_signature",
          "type": "string"
        }
      ],
      "stateMutability": "view",
      "type": "function",
      "constant": true
    },
    {
      "inputs": [
        {
          "internalType": "uint256",
          "name": "",
          "type": "uint256"
        }
      ],
      "name": "requestsAddress",
      "outputs": [
        {
          "internalType": "address",
          "name": "",
          "type": "address"
        }
      ],
      "stateMutability": "view",
      "type": "function",
      "constant": true
    },
    {
      "inputs": [],
      "name": "requestsCounter",
      "outputs": [
        {
          "internalType": "uint256",
          "name": "",
          "type": "uint256"
        }
      ],
      "stateMutability": "view",
      "type": "function",
      "constant": true
    },
    {
      "inputs": [
        {
          "internalType": "address",
          "name": "",
          "type": "address"
        }
      ],
      "name": "users",
      "outputs": [
        {
          "internalType": "bytes32",
          "name": "_firstname",
          "type": "bytes32"
        },
        {
          "internalType": "bytes32",
          "name": "_lastname",
          "type": "bytes32"
        },
        {
          "internalType": "enum SharedChain.Roles",
          "name": "_role",
          "type": "uint8"
        },
        {
          "internalType": "address",
          "name": "_walletAddress",
          "type": "address"
        },
        {
          "internalType": "uint256",
          "name": "_timestamp",
          "type": "uint256"
        }
      ],
      "stateMutability": "view",
      "type": "function",
      "constant": true
    },
    {
      "inputs": [
        {
          "internalType": "string",
          "name": "_name",
          "type": "string"
        },
        {
          "internalType": "uint256",
          "name": "_index",
          "type": "uint256"
        }
      ],
      "name": "createUniqueProjectAddress",
      "outputs": [
        {
          "internalType": "address",
          "name": "",
          "type": "address"
        }
      ],
      "stateMutability": "view",
      "type": "function",
      "constant": true
    },
    {
      "inputs": [
        {
          "internalType": "address",
          "name": "_projectAddress",
          "type": "address"
        },
        {
          "internalType": "string",
          "name": "_name",
          "type": "string"
        },
        {
          "internalType": "uint256",
          "name": "_status",
          "type": "uint256"
        },
        {
          "internalType": "string",
          "name": "_ipfsFileCID",
          "type": "string"
        },
        {
          "internalType": "string",
          "name": "_signature",
          "type": "string"
        }
      ],
      "name": "createProject",
      "outputs": [],
      "stateMutability": "nonpayable",
      "type": "function"
    },
    {
      "inputs": [
        {
          "internalType": "address",
          "name": "_projectAddress",
          "type": "address"
        },
        {
          "internalType": "string",
          "name": "_ipfsFileCID",
          "type": "string"
        },
        {
          "internalType": "string",
          "name": "_signature",
          "type": "string"
        }
      ],
      "name": "updateProject",
      "outputs": [],
      "stateMutability": "nonpayable",
      "type": "function"
    },
    {
      "inputs": [
        {
          "internalType": "address",
          "name": "_address",
          "type": "address"
        }
      ],
      "name": "getProjectInfo",
      "outputs": [
        {
          "components": [
            {
              "internalType": "uint256",
              "name": "_index",
              "type": "uint256"
            },
            {
              "internalType": "string",
              "name": "_name",
              "type": "string"
            },
            {
              "internalType": "enum SharedChain.ProjectStatus",
              "name": "_status",
              "type": "uint8"
            },
            {
              "internalType": "string",
              "name": "_ipfsFileCID",
              "type": "string"
            },
            {
              "internalType": "address",
              "name": "_projectAddress",
              "type": "address"
            },
            {
              "internalType": "address",
              "name": "_signerAddress",
              "type": "address"
            },
            {
              "internalType": "address",
              "name": "_companyAddress",
              "type": "address"
            },
            {
              "internalType": "bool",
              "name": "_assigned",
              "type": "bool"
            },
            {
              "internalType": "uint256",
              "name": "_timestamp",
              "type": "uint256"
            },
            {
              "internalType": "string",
              "name": "_signature",
              "type": "string"
            }
          ],
          "internalType": "struct SharedChain.Project",
          "name": "",
          "type": "tuple"
        }
      ],
      "stateMutability": "view",
      "type": "function",
      "constant": true
    },
    {
      "inputs": [
        {
          "internalType": "string",
          "name": "_title",
          "type": "string"
        },
        {
          "internalType": "uint256",
          "name": "_index",
          "type": "uint256"
        }
      ],
      "name": "createUniqueRequestAddress",
      "outputs": [
        {
          "internalType": "address",
          "name": "",
          "type": "address"
        }
      ],
      "stateMutability": "view",
      "type": "function",
      "constant": true
    },
    {
      "inputs": [
        {
          "internalType": "string",
          "name": "_title",
          "type": "string"
        },
        {
          "internalType": "uint256",
          "name": "_projectStatus",
          "type": "uint256"
        },
        {
          "internalType": "uint256",
          "name": "_requestStatus",
          "type": "uint256"
        },
        {
          "internalType": "address",
          "name": "_projectAddress",
          "type": "address"
        },
        {
          "internalType": "address",
          "name": "_requestAddress",
          "type": "address"
        },
        {
          "internalType": "string",
          "name": "_signature",
          "type": "string"
        }
      ],
      "name": "createRequest",
      "outputs": [],
      "stateMutability": "nonpayable",
      "type": "function"
    },
    {
      "inputs": [
        {
          "internalType": "string",
          "name": "_comments",
          "type": "string"
        },
        {
          "internalType": "uint256",
          "name": "_requestStatus",
          "type": "uint256"
        },
        {
          "internalType": "uint256",
          "name": "_projectStatus",
          "type": "uint256"
        },
        {
          "internalType": "address",
          "name": "_projectAddress",
          "type": "address"
        },
        {
          "internalType": "address",
          "name": "_requestAddress",
          "type": "address"
        },
        {
          "internalType": "string",
          "name": "_signature",
          "type": "string"
        }
      ],
      "name": "updateRequest",
      "outputs": [],
      "stateMutability": "nonpayable",
      "type": "function"
    },
    {
      "inputs": [
        {
          "internalType": "address",
          "name": "_projectAddress",
          "type": "address"
        },
        {
          "internalType": "address",
          "name": "_requestAddress",
          "type": "address"
        }
      ],
      "name": "getLastProjectRequest",
      "outputs": [
        {
          "components": [
            {
              "internalType": "uint256",
              "name": "_index",
              "type": "uint256"
            },
            {
              "internalType": "string",
              "name": "_title",
              "type": "string"
            },
            {
              "internalType": "string",
              "name": "_comments",
              "type": "string"
            },
            {
              "internalType": "enum SharedChain.ProjectStatus",
              "name": "_projectStatus",
              "type": "uint8"
            },
            {
              "internalType": "enum SharedChain.RequestStatus",
              "name": "_requestStatus",
              "type": "uint8"
            },
            {
              "internalType": "enum SharedChain.RequestType",
              "name": "_requestType",
              "type": "uint8"
            },
            {
              "internalType": "address",
              "name": "_projectAddress",
              "type": "address"
            },
            {
              "internalType": "address",
              "name": "_requestAddress",
              "type": "address"
            },
            {
              "internalType": "address",
              "name": "_signerAddress",
              "type": "address"
            },
            {
              "internalType": "uint256",
              "name": "_timestamp",
              "type": "uint256"
            },
            {
              "internalType": "string",
              "name": "_signature",
              "type": "string"
            }
          ],
          "internalType": "struct SharedChain.Request",
          "name": "",
          "type": "tuple"
        }
      ],
      "stateMutability": "view",
      "type": "function",
      "constant": true
    }
  ],
  "bytecode": "0x60806040526000600455600060075534801561001a57600080fd5b50336000806101000a81548173ffffffffffffffffffffffffffffffffffffffff021916908373ffffffffffffffffffffffffffffffffffffffff160217905550613c1b8061006a6000396000f3fe608060405234801561001057600080fd5b50600436106101165760003560e01c806376c932e0116100a257806391009786116100715780639100978614610350578063a87430ba1461036c578063e1592c0d146103a0578063e617385f146103bc578063fe360ea5146103d857610116565b806376c932e0146102af578063840e78fd146102df578063844855631461031857806387edbec71461033457610116565b806347ee45b9116100e957806347ee45b9146101c757806356a3eead146101f75780636386c1c714610227578063663c22691461025757806374adad1d1461027557610116565b8063191e16451461011b5780633000d7f91461014b5780633b4ec4f8146101675780634488471014610197575b600080fd5b6101356004803603810190610130919061283c565b6103f6565b60405161014291906128d9565b60405180910390f35b61016560048036038101906101609190612956565b61042e565b005b610181600480360381019061017c919061283c565b610686565b60405161018e91906128d9565b60405180910390f35b6101b160048036038101906101ac91906129bd565b6106be565b6040516101be9190612ca7565b60405180910390f35b6101e160048036038101906101dc9190612cc9565b610b45565b6040516101ee9190612df9565b60405180910390f35b610211600480360381019061020c9190612e1b565b610ec1565b60405161021e91906128d9565b60405180910390f35b610241600480360381019061023c9190612cc9565b610f00565b60405161024e9190612f07565b60405180910390f35b61025f611008565b60405161026c9190612f31565b60405180910390f35b61028f600480360381019061028a9190612cc9565b61100e565b6040516102a69b9a99989796959493929190612fc3565b60405180910390f35b6102c960048036038101906102c49190612e1b565b611287565b6040516102d691906128d9565b60405180910390f35b6102f960048036038101906102f49190612cc9565b6112c6565b60405161030f9a99989796959493929190613092565b60405180910390f35b610332600480360381019061032d9190613143565b61152c565b005b61034e60048036038101906103499190613212565b6118d8565b005b61036a600480360381019061036591906132d7565b611c0c565b005b61038660048036038101906103819190612cc9565b611ded565b604051610397959493929190613335565b60405180910390f35b6103ba60048036038101906103b59190613388565b611e50565b005b6103d660048036038101906103d19190613212565b611fa7565b005b6103e061242b565b6040516103ed9190612f31565b60405180910390f35b600082338360405160200161040d939291906134b8565b6040516020818303038152906040528051906020012060001c905092915050565b3373ffffffffffffffffffffffffffffffffffffffff1660008054906101000a900473ffffffffffffffffffffffffffffffffffffffff1673ffffffffffffffffffffffffffffffffffffffff16146104bc576040517f08c379a00000000000000000000000000000000000000000000000000000000081526004016104b39061353d565b60405180910390fd5b6040518060a001604052808581526020018481526020018360038111156104e6576104e5612a94565b5b60038111156104f8576104f7612a94565b5b81526020018273ffffffffffffffffffffffffffffffffffffffff16815260200142815250600160008373ffffffffffffffffffffffffffffffffffffffff1673ffffffffffffffffffffffffffffffffffffffff168152602001908152602001600020600082015181600001556020820151816001015560408201518160020160006101000a81548160ff0219169083600381111561059b5761059a612a94565b5b021790555060608201518160020160016101000a81548173ffffffffffffffffffffffffffffffffffffffff021916908373ffffffffffffffffffffffffffffffffffffffff160217905550608082015181600301559050508073ffffffffffffffffffffffffffffffffffffffff167ff751778eb32087df58f173035147c2eac9aac89fdc2f83b1993a198606f56db1600160008473ffffffffffffffffffffffffffffffffffffffff1673ffffffffffffffffffffffffffffffffffffffff16815260200190815260200160002060405161067891906136ba565b60405180910390a250505050565b600082338360405160200161069d939291906134b8565b6040516020818303038152906040528051906020012060001c905092915050565b6106c6612431565b6106ce612431565b60006007541115610b3b578373ffffffffffffffffffffffffffffffffffffffff16600660008573ffffffffffffffffffffffffffffffffffffffff1673ffffffffffffffffffffffffffffffffffffffff16815260200190815260200160002060030160039054906101000a900473ffffffffffffffffffffffffffffffffffffffff1673ffffffffffffffffffffffffffffffffffffffff161415610b3a57600660008473ffffffffffffffffffffffffffffffffffffffff1673ffffffffffffffffffffffffffffffffffffffff16815260200190815260200160002060405180610160016040529081600082015481526020016001820180546107d490613704565b80601f016020809104026020016040519081016040528092919081815260200182805461080090613704565b801561084d5780601f106108225761010080835404028352916020019161084d565b820191906000526020600020905b81548152906001019060200180831161083057829003601f168201915b5050505050815260200160028201805461086690613704565b80601f016020809104026020016040519081016040528092919081815260200182805461089290613704565b80156108df5780601f106108b4576101008083540402835291602001916108df565b820191906000526020600020905b8154815290600101906020018083116108c257829003601f168201915b505050505081526020016003820160009054906101000a900460ff16600481111561090d5761090c612a94565b5b600481111561091f5761091e612a94565b5b81526020016003820160019054906101000a900460ff16600281111561094857610947612a94565b5b600281111561095a57610959612a94565b5b81526020016003820160029054906101000a900460ff16600181111561098357610982612a94565b5b600181111561099557610994612a94565b5b81526020016003820160039054906101000a900473ffffffffffffffffffffffffffffffffffffffff1673ffffffffffffffffffffffffffffffffffffffff1673ffffffffffffffffffffffffffffffffffffffff1681526020016004820160009054906101000a900473ffffffffffffffffffffffffffffffffffffffff1673ffffffffffffffffffffffffffffffffffffffff1673ffffffffffffffffffffffffffffffffffffffff1681526020016005820160009054906101000a900473ffffffffffffffffffffffffffffffffffffffff1673ffffffffffffffffffffffffffffffffffffffff1673ffffffffffffffffffffffffffffffffffffffff16815260200160068201548152602001600782018054610ab590613704565b80601f0160208091040260200160405190810160405280929190818152602001828054610ae190613704565b8015610b2e5780601f10610b0357610100808354040283529160200191610b2e565b820191906000526020600020905b815481529060010190602001808311610b1157829003601f168201915b50505050508152505090505b5b8091505092915050565b610b4d612503565b600360008373ffffffffffffffffffffffffffffffffffffffff1673ffffffffffffffffffffffffffffffffffffffff1681526020019081526020016000206040518061014001604052908160008201548152602001600182018054610bb290613704565b80601f0160208091040260200160405190810160405280929190818152602001828054610bde90613704565b8015610c2b5780601f10610c0057610100808354040283529160200191610c2b565b820191906000526020600020905b815481529060010190602001808311610c0e57829003601f168201915b505050505081526020016002820160009054906101000a900460ff166004811115610c5957610c58612a94565b5b6004811115610c6b57610c6a612a94565b5b8152602001600382018054610c7f90613704565b80601f0160208091040260200160405190810160405280929190818152602001828054610cab90613704565b8015610cf85780601f10610ccd57610100808354040283529160200191610cf8565b820191906000526020600020905b815481529060010190602001808311610cdb57829003601f168201915b505050505081526020016004820160009054906101000a900473ffffffffffffffffffffffffffffffffffffffff1673ffffffffffffffffffffffffffffffffffffffff1673ffffffffffffffffffffffffffffffffffffffff1681526020016005820160009054906101000a900473ffffffffffffffffffffffffffffffffffffffff1673ffffffffffffffffffffffffffffffffffffffff1673ffffffffffffffffffffffffffffffffffffffff1681526020016006820160009054906101000a900473ffffffffffffffffffffffffffffffffffffffff1673ffffffffffffffffffffffffffffffffffffffff1673ffffffffffffffffffffffffffffffffffffffff1681526020016006820160149054906101000a900460ff1615151515815260200160078201548152602001600882018054610e3890613704565b80601f0160208091040260200160405190810160405280929190818152602001828054610e6490613704565b8015610eb15780601f10610e8657610100808354040283529160200191610eb1565b820191906000526020600020905b815481529060010190602001808311610e9457829003601f168201915b5050505050815250509050919050565b60088181548110610ed157600080fd5b906000526020600020016000915054906101000a900473ffffffffffffffffffffffffffffffffffffffff1681565b610f086125ac565b600160008373ffffffffffffffffffffffffffffffffffffffff1673ffffffffffffffffffffffffffffffffffffffff1681526020019081526020016000206040518060a001604052908160008201548152602001600182015481526020016002820160009054906101000a900460ff166003811115610f8b57610f8a612a94565b5b6003811115610f9d57610f9c612a94565b5b81526020016002820160019054906101000a900473ffffffffffffffffffffffffffffffffffffffff1673ffffffffffffffffffffffffffffffffffffffff1673ffffffffffffffffffffffffffffffffffffffff1681526020016003820154815250509050919050565b60075481565b600660205280600052604060002060009150905080600001549080600101805461103790613704565b80601f016020809104026020016040519081016040528092919081815260200182805461106390613704565b80156110b05780601f10611085576101008083540402835291602001916110b0565b820191906000526020600020905b81548152906001019060200180831161109357829003601f168201915b5050505050908060020180546110c590613704565b80601f01602080910402602001604051908101604052809291908181526020018280546110f190613704565b801561113e5780601f106111135761010080835404028352916020019161113e565b820191906000526020600020905b81548152906001019060200180831161112157829003601f168201915b5050505050908060030160009054906101000a900460ff16908060030160019054906101000a900460ff16908060030160029054906101000a900460ff16908060030160039054906101000a900473ffffffffffffffffffffffffffffffffffffffff16908060040160009054906101000a900473ffffffffffffffffffffffffffffffffffffffff16908060050160009054906101000a900473ffffffffffffffffffffffffffffffffffffffff169080600601549080600701805461120490613704565b80601f016020809104026020016040519081016040528092919081815260200182805461123090613704565b801561127d5780601f106112525761010080835404028352916020019161127d565b820191906000526020600020905b81548152906001019060200180831161126057829003601f168201915b505050505090508b565b6005818154811061129757600080fd5b906000526020600020016000915054906101000a900473ffffffffffffffffffffffffffffffffffffffff1681565b60036020528060005260406000206000915090508060000154908060010180546112ef90613704565b80601f016020809104026020016040519081016040528092919081815260200182805461131b90613704565b80156113685780601f1061133d57610100808354040283529160200191611368565b820191906000526020600020905b81548152906001019060200180831161134b57829003601f168201915b5050505050908060020160009054906101000a900460ff169080600301805461139090613704565b80601f01602080910402602001604051908101604052809291908181526020018280546113bc90613704565b80156114095780601f106113de57610100808354040283529160200191611409565b820191906000526020600020905b8154815290600101906020018083116113ec57829003601f168201915b5050505050908060040160009054906101000a900473ffffffffffffffffffffffffffffffffffffffff16908060050160009054906101000a900473ffffffffffffffffffffffffffffffffffffffff16908060060160009054906101000a900473ffffffffffffffffffffffffffffffffffffffff16908060060160149054906101000a900460ff16908060070154908060080180546114a990613704565b80601f01602080910402602001604051908101604052809291908181526020018280546114d590613704565b80156115225780601f106114f757610100808354040283529160200191611522565b820191906000526020600020905b81548152906001019060200180831161150557829003601f168201915b505050505090508a565b604051806101400160405280600454815260200185815260200184600481111561155957611558612a94565b5b600481111561156b5761156a612a94565b5b81526020018381526020018673ffffffffffffffffffffffffffffffffffffffff1681526020013373ffffffffffffffffffffffffffffffffffffffff168152602001600073ffffffffffffffffffffffffffffffffffffffff16815260200160001515815260200142815260200182815250600360008773ffffffffffffffffffffffffffffffffffffffff1673ffffffffffffffffffffffffffffffffffffffff168152602001908152602001600020600082015181600001556020820151816001019080519060200190611643929190612609565b5060408201518160020160006101000a81548160ff0219169083600481111561166f5761166e612a94565b5b02179055506060820151816003019080519060200190611690929190612609565b5060808201518160040160006101000a81548173ffffffffffffffffffffffffffffffffffffffff021916908373ffffffffffffffffffffffffffffffffffffffff16021790555060a08201518160050160006101000a81548173ffffffffffffffffffffffffffffffffffffffff021916908373ffffffffffffffffffffffffffffffffffffffff16021790555060c08201518160060160006101000a81548173ffffffffffffffffffffffffffffffffffffffff021916908373ffffffffffffffffffffffffffffffffffffffff16021790555060e08201518160060160146101000a81548160ff02191690831515021790555061010082015181600701556101208201518160080190805190602001906117ae929190612609565b50905050600073ffffffffffffffffffffffffffffffffffffffff168573ffffffffffffffffffffffffffffffffffffffff167ffb530d24abc3d497c3f0525ef204a66ac64d923ec30b40d17bc3a5f572cf4b8e600360008973ffffffffffffffffffffffffffffffffffffffff1673ffffffffffffffffffffffffffffffffffffffff16815260200190815260200160002060405161184e919061396b565b60405180910390a36005859080600181540180825580915050600190039060005260206000200160009091909190916101000a81548173ffffffffffffffffffffffffffffffffffffffff021916908373ffffffffffffffffffffffffffffffffffffffff160217905550600460008154809291906118cc906139bc565b91905055505050505050565b85600660008473ffffffffffffffffffffffffffffffffffffffff1673ffffffffffffffffffffffffffffffffffffffff168152602001908152602001600020600201908051906020019061192e929190612609565b5084600281111561194257611941612a94565b5b600660008473ffffffffffffffffffffffffffffffffffffffff1673ffffffffffffffffffffffffffffffffffffffff16815260200190815260200160002060030160016101000a81548160ff021916908360028111156119a6576119a5612a94565b5b021790555080600660008473ffffffffffffffffffffffffffffffffffffffff1673ffffffffffffffffffffffffffffffffffffffff1681526020019081526020016000206007019080519060200190611a01929190612609565b508273ffffffffffffffffffffffffffffffffffffffff168273ffffffffffffffffffffffffffffffffffffffff167fa25a6f1ff57a050a48ae4b3a19f271fddad950cac8d165d6a2eca5d54cc8070f600660008673ffffffffffffffffffffffffffffffffffffffff1673ffffffffffffffffffffffffffffffffffffffff168152602001908152602001600020604051611a9d9190613bc3565b60405180910390a3846002811115611ab857611ab7612a94565b5b6002811115611aca57611ac9612a94565b5b600280811115611add57611adc612a94565b5b1415611c0457836004811115611af657611af5612a94565b5b600360008573ffffffffffffffffffffffffffffffffffffffff1673ffffffffffffffffffffffffffffffffffffffff16815260200190815260200160002060020160006101000a81548160ff02191690836004811115611b5a57611b59612a94565b5b0217905550600073ffffffffffffffffffffffffffffffffffffffff168373ffffffffffffffffffffffffffffffffffffffff167ffb530d24abc3d497c3f0525ef204a66ac64d923ec30b40d17bc3a5f572cf4b8e600360008773ffffffffffffffffffffffffffffffffffffffff1673ffffffffffffffffffffffffffffffffffffffff168152602001908152602001600020604051611bfb919061396b565b60405180910390a35b505050505050565b3373ffffffffffffffffffffffffffffffffffffffff1660008054906101000a900473ffffffffffffffffffffffffffffffffffffffff1673ffffffffffffffffffffffffffffffffffffffff1614611c9a576040517f08c379a0000000000000000000000000000000000000000000000000000000008152600401611c919061353d565b60405180910390fd5b816003811115611cad57611cac612a94565b5b600160008373ffffffffffffffffffffffffffffffffffffffff1673ffffffffffffffffffffffffffffffffffffffff16815260200190815260200160002060020160006101000a81548160ff02191690836003811115611d1157611d10612a94565b5b021790555042600160008373ffffffffffffffffffffffffffffffffffffffff1673ffffffffffffffffffffffffffffffffffffffff168152602001908152602001600020600301819055508073ffffffffffffffffffffffffffffffffffffffff167ff751778eb32087df58f173035147c2eac9aac89fdc2f83b1993a198606f56db1600160008473ffffffffffffffffffffffffffffffffffffffff1673ffffffffffffffffffffffffffffffffffffffff168152602001908152602001600020604051611de191906136ba565b60405180910390a25050565b60016020528060005260406000206000915090508060000154908060010154908060020160009054906101000a900460ff16908060020160019054906101000a900473ffffffffffffffffffffffffffffffffffffffff16908060030154905085565b81600360008573ffffffffffffffffffffffffffffffffffffffff1673ffffffffffffffffffffffffffffffffffffffff1681526020019081526020016000206003019080519060200190611ea6929190612609565b5080600360008573ffffffffffffffffffffffffffffffffffffffff1673ffffffffffffffffffffffffffffffffffffffff1681526020019081526020016000206008019080519060200190611efd929190612609565b50600073ffffffffffffffffffffffffffffffffffffffff168373ffffffffffffffffffffffffffffffffffffffff167ffb530d24abc3d497c3f0525ef204a66ac64d923ec30b40d17bc3a5f572cf4b8e600360008773ffffffffffffffffffffffffffffffffffffffff1673ffffffffffffffffffffffffffffffffffffffff168152602001908152602001600020604051611f9a919061396b565b60405180910390a3505050565b600060026004811115611fbd57611fbc612a94565b5b866004811115611fd057611fcf612a94565b5b6004811115611fe257611fe1612a94565b5b1415611ff15760019050611ff6565b600090505b604051806101600160405280600754815260200188815260200160405180602001604052806000815250815260200187600481111561203857612037612a94565b5b600481111561204a57612049612a94565b5b815260200186600281111561206257612061612a94565b5b600281111561207457612073612a94565b5b815260200182600181111561208c5761208b612a94565b5b81526020018573ffffffffffffffffffffffffffffffffffffffff1681526020018473ffffffffffffffffffffffffffffffffffffffff1681526020013373ffffffffffffffffffffffffffffffffffffffff16815260200142815260200183815250600660008573ffffffffffffffffffffffffffffffffffffffff1673ffffffffffffffffffffffffffffffffffffffff168152602001908152602001600020600082015181600001556020820151816001019080519060200190612154929190612609565b506040820151816002019080519060200190612171929190612609565b5060608201518160030160006101000a81548160ff0219169083600481111561219d5761219c612a94565b5b021790555060808201518160030160016101000a81548160ff021916908360028111156121cd576121cc612a94565b5b021790555060a08201518160030160026101000a81548160ff021916908360018111156121fd576121fc612a94565b5b021790555060c08201518160030160036101000a81548173ffffffffffffffffffffffffffffffffffffffff021916908373ffffffffffffffffffffffffffffffffffffffff16021790555060e08201518160040160006101000a81548173ffffffffffffffffffffffffffffffffffffffff021916908373ffffffffffffffffffffffffffffffffffffffff1602179055506101008201518160050160006101000a81548173ffffffffffffffffffffffffffffffffffffffff021916908373ffffffffffffffffffffffffffffffffffffffff1602179055506101208201518160060155610140820151816007019080519060200190612300929190612609565b509050508373ffffffffffffffffffffffffffffffffffffffff168373ffffffffffffffffffffffffffffffffffffffff167fa25a6f1ff57a050a48ae4b3a19f271fddad950cac8d165d6a2eca5d54cc8070f600660008773ffffffffffffffffffffffffffffffffffffffff1673ffffffffffffffffffffffffffffffffffffffff16815260200190815260200160002060405161239f9190613bc3565b60405180910390a36008839080600181540180825580915050600190039060005260206000200160009091909190916101000a81548173ffffffffffffffffffffffffffffffffffffffff021916908373ffffffffffffffffffffffffffffffffffffffff1602179055506007600081548092919061241d906139bc565b919050555050505050505050565b60045481565b6040518061016001604052806000815260200160608152602001606081526020016000600481111561246657612465612a94565b5b81526020016000600281111561247f5761247e612a94565b5b81526020016000600181111561249857612497612a94565b5b8152602001600073ffffffffffffffffffffffffffffffffffffffff168152602001600073ffffffffffffffffffffffffffffffffffffffff168152602001600073ffffffffffffffffffffffffffffffffffffffff16815260200160008152602001606081525090565b60405180610140016040528060008152602001606081526020016000600481111561253157612530612a94565b5b815260200160608152602001600073ffffffffffffffffffffffffffffffffffffffff168152602001600073ffffffffffffffffffffffffffffffffffffffff168152602001600073ffffffffffffffffffffffffffffffffffffffff16815260200160001515815260200160008152602001606081525090565b6040518060a001604052806000801916815260200160008019168152602001600060038111156125df576125de612a94565b5b8152602001600073ffffffffffffffffffffffffffffffffffffffff168152602001600081525090565b82805461261590613704565b90600052602060002090601f016020900481019282612637576000855561267e565b82601f1061265057805160ff191683800117855561267e565b8280016001018555821561267e579182015b8281111561267d578251825591602001919060010190612662565b5b50905061268b919061268f565b5090565b5b808211156126a8576000816000905550600101612690565b5090565b6000604051905090565b600080fd5b600080fd5b600080fd5b600080fd5b6000601f19601f8301169050919050565b7f4e487b7100000000000000000000000000000000000000000000000000000000600052604160045260246000fd5b612713826126ca565b810181811067ffffffffffffffff82111715612732576127316126db565b5b80604052505050565b60006127456126ac565b9050612751828261270a565b919050565b600067ffffffffffffffff821115612771576127706126db565b5b61277a826126ca565b9050602081019050919050565b82818337600083830152505050565b60006127a96127a484612756565b61273b565b9050828152602081018484840111156127c5576127c46126c5565b5b6127d0848285612787565b509392505050565b600082601f8301126127ed576127ec6126c0565b5b81356127fd848260208601612796565b91505092915050565b6000819050919050565b61281981612806565b811461282457600080fd5b50565b60008135905061283681612810565b92915050565b60008060408385031215612853576128526126b6565b5b600083013567ffffffffffffffff811115612871576128706126bb565b5b61287d858286016127d8565b925050602061288e85828601612827565b9150509250929050565b600073ffffffffffffffffffffffffffffffffffffffff82169050919050565b60006128c382612898565b9050919050565b6128d3816128b8565b82525050565b60006020820190506128ee60008301846128ca565b92915050565b6000819050919050565b612907816128f4565b811461291257600080fd5b50565b600081359050612924816128fe565b92915050565b612933816128b8565b811461293e57600080fd5b50565b6000813590506129508161292a565b92915050565b600080600080608085870312156129705761296f6126b6565b5b600061297e87828801612915565b945050602061298f87828801612915565b93505060406129a087828801612827565b92505060606129b187828801612941565b91505092959194509250565b600080604083850312156129d4576129d36126b6565b5b60006129e285828601612941565b92505060206129f385828601612941565b9150509250929050565b612a0681612806565b82525050565b600081519050919050565b600082825260208201905092915050565b60005b83811015612a46578082015181840152602081019050612a2b565b83811115612a55576000848401525b50505050565b6000612a6682612a0c565b612a708185612a17565b9350612a80818560208601612a28565b612a89816126ca565b840191505092915050565b7f4e487b7100000000000000000000000000000000000000000000000000000000600052602160045260246000fd5b60058110612ad457612ad3612a94565b5b50565b6000819050612ae582612ac3565b919050565b6000612af582612ad7565b9050919050565b612b0581612aea565b82525050565b60038110612b1c57612b1b612a94565b5b50565b6000819050612b2d82612b0b565b919050565b6000612b3d82612b1f565b9050919050565b612b4d81612b32565b82525050565b60028110612b6457612b63612a94565b5b50565b6000819050612b7582612b53565b919050565b6000612b8582612b67565b9050919050565b612b9581612b7a565b82525050565b612ba4816128b8565b82525050565b600061016083016000830151612bc360008601826129fd565b5060208301518482036020860152612bdb8282612a5b565b91505060408301518482036040860152612bf58282612a5b565b9150506060830151612c0a6060860182612afc565b506080830151612c1d6080860182612b44565b5060a0830151612c3060a0860182612b8c565b5060c0830151612c4360c0860182612b9b565b5060e0830151612c5660e0860182612b9b565b50610100830151612c6b610100860182612b9b565b50610120830151612c806101208601826129fd565b50610140830151848203610140860152612c9a8282612a5b565b9150508091505092915050565b60006020820190508181036000830152612cc18184612baa565b905092915050565b600060208284031215612cdf57612cde6126b6565b5b6000612ced84828501612941565b91505092915050565b60008115159050919050565b612d0b81612cf6565b82525050565b600061014083016000830151612d2a60008601826129fd565b5060208301518482036020860152612d428282612a5b565b9150506040830151612d576040860182612afc565b5060608301518482036060860152612d6f8282612a5b565b9150506080830151612d846080860182612b9b565b5060a0830151612d9760a0860182612b9b565b5060c0830151612daa60c0860182612b9b565b5060e0830151612dbd60e0860182612d02565b50610100830151612dd26101008601826129fd565b50610120830151848203610120860152612dec8282612a5b565b9150508091505092915050565b60006020820190508181036000830152612e138184612d11565b905092915050565b600060208284031215612e3157612e306126b6565b5b6000612e3f84828501612827565b91505092915050565b612e51816128f4565b82525050565b60048110612e6857612e67612a94565b5b50565b6000819050612e7982612e57565b919050565b6000612e8982612e6b565b9050919050565b612e9981612e7e565b82525050565b60a082016000820151612eb56000850182612e48565b506020820151612ec86020850182612e48565b506040820151612edb6040850182612e90565b506060820151612eee6060850182612b9b565b506080820151612f0160808501826129fd565b50505050565b600060a082019050612f1c6000830184612e9f565b92915050565b612f2b81612806565b82525050565b6000602082019050612f466000830184612f22565b92915050565b600082825260208201905092915050565b6000612f6882612a0c565b612f728185612f4c565b9350612f82818560208601612a28565b612f8b816126ca565b840191505092915050565b612f9f81612aea565b82525050565b612fae81612b32565b82525050565b612fbd81612b7a565b82525050565b600061016082019050612fd9600083018e612f22565b8181036020830152612feb818d612f5d565b90508181036040830152612fff818c612f5d565b905061300e606083018b612f96565b61301b608083018a612fa5565b61302860a0830189612fb4565b61303560c08301886128ca565b61304260e08301876128ca565b6130506101008301866128ca565b61305e610120830185612f22565b8181036101408301526130718184612f5d565b90509c9b505050505050505050505050565b61308c81612cf6565b82525050565b6000610140820190506130a8600083018d612f22565b81810360208301526130ba818c612f5d565b90506130c9604083018b612f96565b81810360608301526130db818a612f5d565b90506130ea60808301896128ca565b6130f760a08301886128ca565b61310460c08301876128ca565b61311160e0830186613083565b61311f610100830185612f22565b8181036101208301526131328184612f5d565b90509b9a5050505050505050505050565b600080600080600060a0868803121561315f5761315e6126b6565b5b600061316d88828901612941565b955050602086013567ffffffffffffffff81111561318e5761318d6126bb565b5b61319a888289016127d8565b94505060406131ab88828901612827565b935050606086013567ffffffffffffffff8111156131cc576131cb6126bb565b5b6131d8888289016127d8565b925050608086013567ffffffffffffffff8111156131f9576131f86126bb565b5b613205888289016127d8565b9150509295509295909350565b60008060008060008060c0878903121561322f5761322e6126b6565b5b600087013567ffffffffffffffff81111561324d5761324c6126bb565b5b61325989828a016127d8565b965050602061326a89828a01612827565b955050604061327b89828a01612827565b945050606061328c89828a01612941565b935050608061329d89828a01612941565b92505060a087013567ffffffffffffffff8111156132be576132bd6126bb565b5b6132ca89828a016127d8565b9150509295509295509295565b600080604083850312156132ee576132ed6126b6565b5b60006132fc85828601612827565b925050602061330d85828601612941565b9150509250929050565b613320816128f4565b82525050565b61332f81612e7e565b82525050565b600060a08201905061334a6000830188613317565b6133576020830187613317565b6133646040830186613326565b61337160608301856128ca565b61337e6080830184612f22565b9695505050505050565b6000806000606084860312156133a1576133a06126b6565b5b60006133af86828701612941565b935050602084013567ffffffffffffffff8111156133d0576133cf6126bb565b5b6133dc868287016127d8565b925050604084013567ffffffffffffffff8111156133fd576133fc6126bb565b5b613409868287016127d8565b9150509250925092565b600081905092915050565b600061342982612a0c565b6134338185613413565b9350613443818560208601612a28565b80840191505092915050565b60008160601b9050919050565b60006134678261344f565b9050919050565b60006134798261345c565b9050919050565b61349161348c826128b8565b61346e565b82525050565b6000819050919050565b6134b26134ad82612806565b613497565b82525050565b60006134c4828661341e565b91506134d08285613480565b6014820191506134e082846134a1565b602082019150819050949350505050565b7f596f7520617265206e6f7420616e206f776e65722e0000000000000000000000600082015250565b6000613527601583612f4c565b9150613532826134f1565b602082019050919050565b600060208201905081810360008301526135568161351a565b9050919050565b60008160001c9050919050565b6000819050919050565b60006135876135828361355d565b61356a565b9050919050565b600060ff82169050919050565b60006135ae6135a98361355d565b61358e565b9050919050565b60008160081c9050919050565b600073ffffffffffffffffffffffffffffffffffffffff82169050919050565b60006135f56135f0836135b5565b6135c2565b9050919050565b6000819050919050565b60006136196136148361355d565b6135fc565b9050919050565b60a08201600080830154905061363581613574565b6136426000860182612e48565b506001830154905061365381613574565b6136606020860182612e48565b50600283015490506136718161359b565b61367e6040860182612e90565b50613688816135e2565b6136956060860182612b9b565b50600383015490506136a681613606565b6136b360808601826129fd565b5050505050565b600060a0820190506136cf6000830184613620565b92915050565b7f4e487b7100000000000000000000000000000000000000000000000000000000600052602260045260246000fd5b6000600282049050600182168061371c57607f821691505b602082108114156137305761372f6136d5565b5b50919050565b60008190508160005260206000209050919050565b6000815461375881613704565b6137628186612a17565b9450600182166000811461377d576001811461378f576137c2565b60ff19831686526020860193506137c2565b61379885613736565b60005b838110156137ba5781548189015260018201915060208101905061379b565b808801955050505b50505092915050565b600060ff82169050919050565b60006137eb6137e68361355d565b6137cb565b9050919050565b60006138056138008361355d565b6135c2565b9050919050565b60008160a01c9050919050565b600060ff82169050919050565b60006138396138348361380c565b613819565b9050919050565b60006101408301600080840154905061385881613606565b61386560008701826129fd565b5060018401858303602087015261387c838261374b565b9250506002840154905061388f816137d8565b61389c6040870182612afc565b506003840185830360608701526138b3838261374b565b925050600484015490506138c6816137f2565b6138d36080870182612b9b565b50600584015490506138e4816137f2565b6138f160a0870182612b9b565b5060068401549050613902816137f2565b61390f60c0870182612b9b565b5061391981613826565b61392660e0870182612d02565b506007840154905061393781613606565b6139456101008701826129fd565b506008840185830361012087015261395d838261374b565b925050819250505092915050565b600060208201905081810360008301526139858184613840565b905092915050565b7f4e487b7100000000000000000000000000000000000000000000000000000000600052601160045260246000fd5b60006139c782612806565b91507fffffffffffffffffffffffffffffffffffffffffffffffffffffffffffffffff8214156139fa576139f961398d565b5b600182019050919050565b600060ff82169050919050565b6000613a25613a20836135b5565b613a05565b9050919050565b60008160101c9050919050565b600060ff82169050919050565b6000613a59613a5483613a2c565b613a39565b9050919050565b60008160181c9050919050565b6000613a80613a7b83613a60565b6135c2565b9050919050565b600061016083016000808401549050613a9f81613606565b613aac60008701826129fd565b50600184018583036020870152613ac3838261374b565b925050600284018583036040870152613adc838261374b565b92505060038401549050613aef816137d8565b613afc6060870182612afc565b50613b0681613a12565b613b136080870182612b44565b50613b1d81613a46565b613b2a60a0870182612b8c565b50613b3481613a6d565b613b4160c0870182612b9b565b5060048401549050613b52816137f2565b613b5f60e0870182612b9b565b5060058401549050613b70816137f2565b613b7e610100870182612b9b565b5060068401549050613b8f81613606565b613b9d6101208701826129fd565b5060078401858303610140870152613bb5838261374b565b925050819250505092915050565b60006020820190508181036000830152613bdd8184613a87565b90509291505056fea2646970667358221220a7c9c7e8288e10f876563edac8cd2adf3ac012d52a2e7e652832b99ef8f377cc64736f6c634300080a0033",
  "immutableReferences": {},
  "source": "// SPDX-License-Identifier: MIT\r\npragma solidity >=0.8.0 <0.9.0;\r\n\r\nimport \"./UserChain.sol\";\r\nimport \"./SharedChain.sol\";\r\n\r\ncontract ProjectChain is UserChain {\r\n    //UserChain userChain;\r\n\r\n    constructor() {\r\n        //userChain = new UserChain();\r\n    }\r\n\r\n    modifier onlyUserProject() {\r\n        // User memory sessionUser = userChain.getUserInfo(msg.sender);\r\n        // require(\r\n        //     sessionUser._role == Roles.UserProject,\r\n        //     \"You don't have the rights for this resource.\"\r\n        // );\r\n        _;\r\n    }\r\n\r\n    modifier onlySupervisor() {\r\n        // User memory sessionUser = userChain.getUserInfo(msg.sender);\r\n        // require(\r\n        //     sessionUser._role == Roles.Supervisor,\r\n        //     \"You don't have the rights for this resource.\"\r\n        // );\r\n        _;\r\n    }\r\n\r\n    modifier onlyCompany() {\r\n        // User memory sessionUser = userChain.getUserInfo(msg.sender);\r\n        // require(\r\n        //     sessionUser._role == Roles.Company,\r\n        //     \"You don't have the rights for this resource.\"\r\n        // );\r\n        _;\r\n    }\r\n\r\n\r\n    /**  PROJECT INITIATOR  */\r\n\r\n    mapping(address => Project) public projects;\r\n    uint256 public projectsCounter = 0;\r\n    address[] public projectsAddress;\r\n\r\n    function createUniqueProjectAddress(string memory _name, uint256 _index) public view returns (address) {\r\n        return address(uint160(uint256(keccak256(abi.encodePacked(_name, msg.sender, _index)))));\r\n    }\r\n\r\n    function createProject(\r\n        address _projectAddress,\r\n        string memory _name,\r\n        uint256 _status,\r\n        string memory _ipfsFileCID,\r\n        string memory _signature\r\n    ) public onlyUserProject {\r\n        projects[_projectAddress] = Project(\r\n            projectsCounter,\r\n            _name,\r\n            ProjectStatus(_status),\r\n            _ipfsFileCID,\r\n            _projectAddress,\r\n            msg.sender,\r\n            address(0x0),\r\n            false,\r\n            block.timestamp,\r\n            _signature\r\n        );\r\n\r\n        emit ProjectEvent(projects[_projectAddress], _projectAddress, address(0x0));\r\n        projectsAddress.push(_projectAddress);\r\n        projectsCounter++;\r\n    }\r\n\r\n    function updateProject(\r\n        address _projectAddress,\r\n        string memory _ipfsFileCID,\r\n        string memory _signature\r\n    ) public onlyUserProject {\r\n        projects[_projectAddress]._ipfsFileCID = _ipfsFileCID;\r\n        projects[_projectAddress]._signature = _signature;\r\n\r\n        emit ProjectEvent(projects[_projectAddress], _projectAddress, address(0x0));\r\n    }\r\n\r\n    function getProjectInfo(address _address)\r\n        public\r\n        view\r\n        returns (Project memory)\r\n    {\r\n        //require(msg.sender != address(0x0), \"Address is not valid.\");\r\n        return projects[_address];\r\n    }\r\n/*\r\n    function getProjectsByUser(address _signerAddress) public view returns (Project[] memory) {\r\n        Project[] memory allProjects;\r\n        if (projectsCounter == 0) return allProjects;\r\n\r\n        allProjects = new Project[](projectsCounter);\r\n        for (uint256 index = 0; index < projectsCounter; index++) {\r\n            address _projectAddress = projectsAddress[index];\r\n            if (_signerAddress == projects[_projectAddress]._signerAddress) {\r\n                Project storage project = projects[_projectAddress];\r\n                allProjects[index] = project;\r\n            }\r\n        }\r\n        return allProjects;\r\n    }\r\n\r\n    function getProjectsByCompany(address _companyAddress) public view returns (Project[] memory) {\r\n        Project[] memory allProjects;\r\n        if (projectsCounter == 0) return allProjects;\r\n\r\n        allProjects = new Project[](projectsCounter);\r\n        for (uint256 index = 0; index < projectsCounter; index++) {\r\n            address _projectAddress = projectsAddress[index];\r\n            if (_companyAddress == projects[_projectAddress]._companyAddress) {\r\n                Project storage project = projects[_projectAddress];\r\n                allProjects[index] = project;\r\n            }\r\n        }\r\n        return allProjects;\r\n    }\r\n\r\n*/\r\n\r\n/*\r\n    function getAllProjects() public view returns (Project[] memory) {\r\n        Project[] memory allProjects;\r\n        if (projectsCounter == 0) return allProjects;\r\n\r\n        allProjects = new Project[](projectsCounter);\r\n        for (uint256 index = 0; index < projectsCounter; index++) {\r\n            address _projectAddress = projectsAddress[index];\r\n            Project storage project = projects[_projectAddress];\r\n            allProjects[index] = project;\r\n        }\r\n        return allProjects;\r\n    }\r\n*/\r\n\r\n    /**  Requests  */\r\n\r\n    mapping(address => Request) public requests;\r\n    uint256 public requestsCounter = 0;\r\n    address[] public requestsAddress;\r\n\r\n    function createUniqueRequestAddress(string memory _title, uint256 _index) public view returns (address) {\r\n        return address(uint160(uint256(keccak256(abi.encodePacked(_title, msg.sender, _index)))));\r\n    }\r\n\r\n    function createRequest(\r\n        string memory _title,\r\n        uint256 _projectStatus,\r\n        uint256 _requestStatus,\r\n        address _projectAddress,\r\n        address _requestAddress,\r\n        string memory _signature\r\n    ) public {\r\n        //require(projects[_projectAddress]._status == ProjectStatus.Created, \"Steps must follow accordingly\");\r\n        //require(ProjectStatus.ToApprove == RequestStatus.UnApproved, \"\");\r\n        //require(ProjectStatus.ToApprove == RequestStatus.Rejected, \"\");\r\n\r\n        RequestType _requestType;\r\n        if (ProjectStatus(_projectStatus) == ProjectStatus.StartProject) {\r\n            _requestType = RequestType.CompanyReq;\r\n        } else {\r\n            _requestType = RequestType.SupervisorReq;\r\n        }\r\n\r\n        requests[_requestAddress] = Request(\r\n            requestsCounter,\r\n            _title,\r\n            \"\",\r\n            ProjectStatus(_projectStatus),\r\n            RequestStatus(_requestStatus),\r\n            RequestType(_requestType),\r\n            _projectAddress,\r\n            _requestAddress,\r\n            msg.sender,\r\n            block.timestamp,\r\n            _signature\r\n        );\r\n\r\n        emit RequestEvent(requests[_requestAddress], _requestAddress, _projectAddress);\r\n        requestsAddress.push(_requestAddress);\r\n        requestsCounter++;\r\n    }\r\n\r\n    function updateRequest(\r\n        string memory _comments,\r\n        uint256 _requestStatus,\r\n        uint256 _projectStatus,\r\n        address _projectAddress,\r\n        address _requestAddress,\r\n        string memory _signature\r\n    ) public {\r\n        // Update Requests Mapping and Struct Array\r\n        requests[_requestAddress]._comments = _comments;\r\n        requests[_requestAddress]._requestStatus = RequestStatus(_requestStatus);\r\n        requests[_requestAddress]._signature = _signature;\r\n        emit RequestEvent(requests[_requestAddress], _requestAddress, _projectAddress);\r\n\r\n        // Update Project Mapping and Struct Array\r\n        if (RequestStatus.Approved == RequestStatus(_requestStatus)) {\r\n            projects[_projectAddress]._status = ProjectStatus(_projectStatus);\r\n            emit ProjectEvent(projects[_projectAddress], _projectAddress, address(0x0));\r\n        }\r\n    }\r\n\r\n/*\r\n    function getAllRequests() public view returns (Request[] memory) {\r\n        Request[] memory allRequests = new Request[](requestsCounter);\r\n        for (uint256 index = 0; index < requestsCounter; index++) {\r\n            address _requestAddress = requestsAddress[index];\r\n            Request storage request = requests[_requestAddress];\r\n            allRequests[index] = request;\r\n        }\r\n        return allRequests;\r\n    }\r\n\r\n    function getProjectRequests(address _projectAddress) public view returns (Request[] memory) {\r\n        Request[] memory allRequests;\r\n        for (uint256 index = 0; index < requestsCounter; index++) {\r\n            address _requestAddress = requestsAddress[index];\r\n            Request storage request = requests[_requestAddress];\r\n            if (_projectAddress == request._projectAddress) {\r\n                allRequests[index] = request;\r\n            }\r\n        }\r\n        return allRequests;\r\n    }\r\n*/\r\n\r\n    function getLastProjectRequest(address _projectAddress, address _requestAddress)\r\n        public view returns (Request memory)\r\n    {\r\n        Request memory request;\r\n        if (requestsCounter > 0) {\r\n            if (requests[_requestAddress]._projectAddress == _projectAddress) {\r\n                request = requests[_requestAddress];\r\n            }\r\n        }\r\n        return request;\r\n    }\r\n\r\n\r\n\r\n}\r\n",
  "sourcePath": "/mnt/c/Users/Beniamin/source/repos/DissertationProject/contracts/ProjectChain.sol",
  "compiler": {
    "name": "solc",
    "version": "0.8.10+commit.fc410830.Emscripten.clang"
  },
  "schemaVersion": "3.4.3",
  "updatedAt": "2021-12-11T17:56:40.775Z",
  "networkType": "ethereum",
  "devdoc": {
    "kind": "dev",
    "methods": {},
    "version": 1
  },
  "userdoc": {
    "kind": "user",
    "methods": {
      "projects(address)": {
        "notice": "PROJECT INITIATOR  "
      },
      "requests(address)": {
        "notice": "Requests  "
      }
    },
    "version": 1
  }
}