{
  "contractName": "ProjectChain",
  "abi": [
    {
      "inputs": [],
      "stateMutability": "nonpayable",
      "type": "constructor"
    },
    {
      "anonymous": false,
      "inputs": [
        {
          "indexed": false,
          "internalType": "uint256",
          "name": "_index",
          "type": "uint256"
        },
        {
          "indexed": false,
          "internalType": "bytes32",
          "name": "_name",
          "type": "bytes32"
        },
        {
          "indexed": false,
          "internalType": "enum SharedChain.ProjectStatus",
          "name": "_status",
          "type": "uint8"
        },
        {
          "indexed": false,
          "internalType": "string",
          "name": "_ipfsFileCID",
          "type": "string"
        },
        {
          "indexed": false,
          "internalType": "address",
          "name": "_projectAddress",
          "type": "address"
        },
        {
          "indexed": false,
          "internalType": "address",
          "name": "_userAddress",
          "type": "address"
        },
        {
          "indexed": false,
          "internalType": "uint256",
          "name": "_timestamp",
          "type": "uint256"
        }
      ],
      "name": "ProjectEvent",
      "type": "event"
    },
    {
      "anonymous": false,
      "inputs": [
        {
          "indexed": false,
          "internalType": "uint256",
          "name": "_index",
          "type": "uint256"
        },
        {
          "indexed": false,
          "internalType": "bytes32",
          "name": "_title",
          "type": "bytes32"
        },
        {
          "indexed": false,
          "internalType": "string",
          "name": "_comments",
          "type": "string"
        },
        {
          "indexed": false,
          "internalType": "enum SharedChain.ProjectStatus",
          "name": "_status",
          "type": "uint8"
        },
        {
          "indexed": false,
          "internalType": "enum SharedChain.RequestStatus",
          "name": "_requestStatus",
          "type": "uint8"
        },
        {
          "indexed": false,
          "internalType": "address",
          "name": "_projectAddress",
          "type": "address"
        },
        {
          "indexed": false,
          "internalType": "address",
          "name": "_userAddress",
          "type": "address"
        },
        {
          "indexed": false,
          "internalType": "address",
          "name": "_requestAddress",
          "type": "address"
        },
        {
          "indexed": false,
          "internalType": "uint256",
          "name": "_timestamp",
          "type": "uint256"
        }
      ],
      "name": "ProjectRequestEvent",
      "type": "event"
    },
    {
      "anonymous": false,
      "inputs": [
        {
          "indexed": false,
          "internalType": "uint256",
          "name": "_index",
          "type": "uint256"
        },
        {
          "indexed": false,
          "internalType": "uint256",
          "name": "_indexProjectRequest",
          "type": "uint256"
        },
        {
          "indexed": false,
          "internalType": "bytes32",
          "name": "_title",
          "type": "bytes32"
        },
        {
          "indexed": false,
          "internalType": "enum SharedChain.RequestStatus",
          "name": "_status",
          "type": "uint8"
        },
        {
          "indexed": false,
          "internalType": "enum SharedChain.ProjectStatus",
          "name": "_projectStatus",
          "type": "uint8"
        },
        {
          "indexed": false,
          "internalType": "enum SharedChain.RequestType",
          "name": "_requestType",
          "type": "uint8"
        },
        {
          "indexed": false,
          "internalType": "address",
          "name": "_projectAddress",
          "type": "address"
        },
        {
          "indexed": false,
          "internalType": "address",
          "name": "_userAddress",
          "type": "address"
        },
        {
          "indexed": false,
          "internalType": "address",
          "name": "_requestAddress",
          "type": "address"
        },
        {
          "indexed": false,
          "internalType": "uint256",
          "name": "_timestamp",
          "type": "uint256"
        }
      ],
      "name": "RequestEvent",
      "type": "event"
    },
    {
      "anonymous": false,
      "inputs": [
        {
          "indexed": true,
          "internalType": "address",
          "name": "_walletAddress",
          "type": "address"
        },
        {
          "indexed": true,
          "internalType": "string",
          "name": "_username",
          "type": "string"
        },
        {
          "indexed": false,
          "internalType": "bytes32",
          "name": "_email",
          "type": "bytes32"
        },
        {
          "indexed": false,
          "internalType": "bytes32",
          "name": "_firstname",
          "type": "bytes32"
        },
        {
          "indexed": false,
          "internalType": "bytes32",
          "name": "_lastname",
          "type": "bytes32"
        },
        {
          "indexed": true,
          "internalType": "enum UserChain.Roles",
          "name": "_role",
          "type": "uint8"
        },
        {
          "indexed": false,
          "internalType": "uint256",
          "name": "_timestamp",
          "type": "uint256"
        }
      ],
      "name": "UserEvent",
      "type": "event"
    },
    {
      "inputs": [
        {
          "internalType": "uint256",
          "name": "",
          "type": "uint256"
        }
      ],
      "name": "allProjectRequests",
      "outputs": [
        {
          "internalType": "uint256",
          "name": "_index",
          "type": "uint256"
        },
        {
          "internalType": "bytes32",
          "name": "_title",
          "type": "bytes32"
        },
        {
          "internalType": "string",
          "name": "_comments",
          "type": "string"
        },
        {
          "internalType": "enum SharedChain.ProjectStatus",
          "name": "_status",
          "type": "uint8"
        },
        {
          "internalType": "enum SharedChain.RequestStatus",
          "name": "_requestStatus",
          "type": "uint8"
        },
        {
          "internalType": "address",
          "name": "_projectAddress",
          "type": "address"
        },
        {
          "internalType": "address",
          "name": "_userAddress",
          "type": "address"
        },
        {
          "internalType": "address",
          "name": "_requestAddress",
          "type": "address"
        },
        {
          "internalType": "uint256",
          "name": "_timestamp",
          "type": "uint256"
        }
      ],
      "stateMutability": "view",
      "type": "function",
      "constant": true
    },
    {
      "inputs": [
        {
          "internalType": "uint256",
          "name": "",
          "type": "uint256"
        }
      ],
      "name": "allProjects",
      "outputs": [
        {
          "internalType": "uint256",
          "name": "_index",
          "type": "uint256"
        },
        {
          "internalType": "bytes32",
          "name": "_name",
          "type": "bytes32"
        },
        {
          "internalType": "enum SharedChain.ProjectStatus",
          "name": "_status",
          "type": "uint8"
        },
        {
          "internalType": "string",
          "name": "_ipfsFileCID",
          "type": "string"
        },
        {
          "internalType": "address",
          "name": "_projectAddress",
          "type": "address"
        },
        {
          "internalType": "address",
          "name": "_userAddress",
          "type": "address"
        },
        {
          "internalType": "uint256",
          "name": "_timestamp",
          "type": "uint256"
        }
      ],
      "stateMutability": "view",
      "type": "function",
      "constant": true
    },
    {
      "inputs": [
        {
          "internalType": "uint256",
          "name": "",
          "type": "uint256"
        }
      ],
      "name": "allRequests",
      "outputs": [
        {
          "internalType": "uint256",
          "name": "_index",
          "type": "uint256"
        },
        {
          "internalType": "uint256",
          "name": "_indexProjectRequest",
          "type": "uint256"
        },
        {
          "internalType": "bytes32",
          "name": "_title",
          "type": "bytes32"
        },
        {
          "internalType": "enum SharedChain.RequestStatus",
          "name": "_requestStatus",
          "type": "uint8"
        },
        {
          "internalType": "enum SharedChain.ProjectStatus",
          "name": "_projectStatus",
          "type": "uint8"
        },
        {
          "internalType": "enum SharedChain.RequestType",
          "name": "_requestType",
          "type": "uint8"
        },
        {
          "internalType": "address",
          "name": "_projectAddress",
          "type": "address"
        },
        {
          "internalType": "address",
          "name": "_userAddress",
          "type": "address"
        },
        {
          "internalType": "address",
          "name": "_requestAddress",
          "type": "address"
        },
        {
          "internalType": "uint256",
          "name": "_timestamp",
          "type": "uint256"
        }
      ],
      "stateMutability": "view",
      "type": "function",
      "constant": true
    },
    {
      "inputs": [
        {
          "internalType": "uint256",
          "name": "",
          "type": "uint256"
        }
      ],
      "name": "allUsers",
      "outputs": [
        {
          "internalType": "uint256",
          "name": "_index",
          "type": "uint256"
        },
        {
          "internalType": "string",
          "name": "_username",
          "type": "string"
        },
        {
          "internalType": "bytes32",
          "name": "_email",
          "type": "bytes32"
        },
        {
          "internalType": "bytes32",
          "name": "_firstname",
          "type": "bytes32"
        },
        {
          "internalType": "bytes32",
          "name": "_lastname",
          "type": "bytes32"
        },
        {
          "internalType": "enum UserChain.Roles",
          "name": "_role",
          "type": "uint8"
        },
        {
          "internalType": "address",
          "name": "_walletAddress",
          "type": "address"
        },
        {
          "internalType": "uint256",
          "name": "_timestamp",
          "type": "uint256"
        }
      ],
      "stateMutability": "view",
      "type": "function",
      "constant": true
    },
    {
      "inputs": [
        {
          "internalType": "uint256",
          "name": "_role",
          "type": "uint256"
        },
        {
          "internalType": "address",
          "name": "_walletAddress",
          "type": "address"
        }
      ],
      "name": "changeUserRole",
      "outputs": [],
      "stateMutability": "nonpayable",
      "type": "function"
    },
    {
      "inputs": [],
      "name": "getAllUsers",
      "outputs": [
        {
          "components": [
            {
              "internalType": "uint256",
              "name": "_index",
              "type": "uint256"
            },
            {
              "internalType": "string",
              "name": "_username",
              "type": "string"
            },
            {
              "internalType": "bytes32",
              "name": "_email",
              "type": "bytes32"
            },
            {
              "internalType": "bytes32",
              "name": "_firstname",
              "type": "bytes32"
            },
            {
              "internalType": "bytes32",
              "name": "_lastname",
              "type": "bytes32"
            },
            {
              "internalType": "enum UserChain.Roles",
              "name": "_role",
              "type": "uint8"
            },
            {
              "internalType": "address",
              "name": "_walletAddress",
              "type": "address"
            },
            {
              "internalType": "uint256",
              "name": "_timestamp",
              "type": "uint256"
            }
          ],
          "internalType": "struct UserChain.User[]",
          "name": "",
          "type": "tuple[]"
        }
      ],
      "stateMutability": "view",
      "type": "function",
      "constant": true
    },
    {
      "inputs": [
        {
          "internalType": "address",
          "name": "_walletAddress",
          "type": "address"
        }
      ],
      "name": "getUserInfo",
      "outputs": [
        {
          "components": [
            {
              "internalType": "uint256",
              "name": "_index",
              "type": "uint256"
            },
            {
              "internalType": "string",
              "name": "_username",
              "type": "string"
            },
            {
              "internalType": "bytes32",
              "name": "_email",
              "type": "bytes32"
            },
            {
              "internalType": "bytes32",
              "name": "_firstname",
              "type": "bytes32"
            },
            {
              "internalType": "bytes32",
              "name": "_lastname",
              "type": "bytes32"
            },
            {
              "internalType": "enum UserChain.Roles",
              "name": "_role",
              "type": "uint8"
            },
            {
              "internalType": "address",
              "name": "_walletAddress",
              "type": "address"
            },
            {
              "internalType": "uint256",
              "name": "_timestamp",
              "type": "uint256"
            }
          ],
          "internalType": "struct UserChain.User",
          "name": "",
          "type": "tuple"
        }
      ],
      "stateMutability": "view",
      "type": "function",
      "constant": true
    },
    {
      "inputs": [],
      "name": "owner",
      "outputs": [
        {
          "internalType": "address",
          "name": "",
          "type": "address"
        }
      ],
      "stateMutability": "view",
      "type": "function",
      "constant": true
    },
    {
      "inputs": [
        {
          "internalType": "uint256",
          "name": "",
          "type": "uint256"
        }
      ],
      "name": "projectRequests",
      "outputs": [
        {
          "internalType": "uint256",
          "name": "_index",
          "type": "uint256"
        },
        {
          "internalType": "bytes32",
          "name": "_title",
          "type": "bytes32"
        },
        {
          "internalType": "string",
          "name": "_comments",
          "type": "string"
        },
        {
          "internalType": "enum SharedChain.ProjectStatus",
          "name": "_status",
          "type": "uint8"
        },
        {
          "internalType": "enum SharedChain.RequestStatus",
          "name": "_requestStatus",
          "type": "uint8"
        },
        {
          "internalType": "address",
          "name": "_projectAddress",
          "type": "address"
        },
        {
          "internalType": "address",
          "name": "_userAddress",
          "type": "address"
        },
        {
          "internalType": "address",
          "name": "_requestAddress",
          "type": "address"
        },
        {
          "internalType": "uint256",
          "name": "_timestamp",
          "type": "uint256"
        }
      ],
      "stateMutability": "view",
      "type": "function",
      "constant": true
    },
    {
      "inputs": [],
      "name": "projectRequestsCounter",
      "outputs": [
        {
          "internalType": "uint256",
          "name": "",
          "type": "uint256"
        }
      ],
      "stateMutability": "view",
      "type": "function",
      "constant": true
    },
    {
      "inputs": [
        {
          "internalType": "address",
          "name": "",
          "type": "address"
        }
      ],
      "name": "projects",
      "outputs": [
        {
          "internalType": "uint256",
          "name": "_index",
          "type": "uint256"
        },
        {
          "internalType": "bytes32",
          "name": "_name",
          "type": "bytes32"
        },
        {
          "internalType": "enum SharedChain.ProjectStatus",
          "name": "_status",
          "type": "uint8"
        },
        {
          "internalType": "string",
          "name": "_ipfsFileCID",
          "type": "string"
        },
        {
          "internalType": "address",
          "name": "_projectAddress",
          "type": "address"
        },
        {
          "internalType": "address",
          "name": "_userAddress",
          "type": "address"
        },
        {
          "internalType": "uint256",
          "name": "_timestamp",
          "type": "uint256"
        }
      ],
      "stateMutability": "view",
      "type": "function",
      "constant": true
    },
    {
      "inputs": [],
      "name": "projectsCounter",
      "outputs": [
        {
          "internalType": "uint256",
          "name": "",
          "type": "uint256"
        }
      ],
      "stateMutability": "view",
      "type": "function",
      "constant": true
    },
    {
      "inputs": [
        {
          "internalType": "string",
          "name": "_username",
          "type": "string"
        },
        {
          "internalType": "bytes32",
          "name": "_email",
          "type": "bytes32"
        },
        {
          "internalType": "bytes32",
          "name": "_firstname",
          "type": "bytes32"
        },
        {
          "internalType": "bytes32",
          "name": "_lastname",
          "type": "bytes32"
        },
        {
          "internalType": "uint256",
          "name": "_role",
          "type": "uint256"
        },
        {
          "internalType": "address",
          "name": "_walletAddress",
          "type": "address"
        }
      ],
      "name": "registerUser",
      "outputs": [],
      "stateMutability": "nonpayable",
      "type": "function"
    },
    {
      "inputs": [
        {
          "internalType": "uint256",
          "name": "",
          "type": "uint256"
        }
      ],
      "name": "requests",
      "outputs": [
        {
          "internalType": "uint256",
          "name": "_index",
          "type": "uint256"
        },
        {
          "internalType": "uint256",
          "name": "_indexProjectRequest",
          "type": "uint256"
        },
        {
          "internalType": "bytes32",
          "name": "_title",
          "type": "bytes32"
        },
        {
          "internalType": "enum SharedChain.RequestStatus",
          "name": "_requestStatus",
          "type": "uint8"
        },
        {
          "internalType": "enum SharedChain.ProjectStatus",
          "name": "_projectStatus",
          "type": "uint8"
        },
        {
          "internalType": "enum SharedChain.RequestType",
          "name": "_requestType",
          "type": "uint8"
        },
        {
          "internalType": "address",
          "name": "_projectAddress",
          "type": "address"
        },
        {
          "internalType": "address",
          "name": "_userAddress",
          "type": "address"
        },
        {
          "internalType": "address",
          "name": "_requestAddress",
          "type": "address"
        },
        {
          "internalType": "uint256",
          "name": "_timestamp",
          "type": "uint256"
        }
      ],
      "stateMutability": "view",
      "type": "function",
      "constant": true
    },
    {
      "inputs": [],
      "name": "requestsCounter",
      "outputs": [
        {
          "internalType": "uint256",
          "name": "",
          "type": "uint256"
        }
      ],
      "stateMutability": "view",
      "type": "function",
      "constant": true
    },
    {
      "inputs": [
        {
          "internalType": "address",
          "name": "",
          "type": "address"
        }
      ],
      "name": "users",
      "outputs": [
        {
          "internalType": "uint256",
          "name": "_index",
          "type": "uint256"
        },
        {
          "internalType": "string",
          "name": "_username",
          "type": "string"
        },
        {
          "internalType": "bytes32",
          "name": "_email",
          "type": "bytes32"
        },
        {
          "internalType": "bytes32",
          "name": "_firstname",
          "type": "bytes32"
        },
        {
          "internalType": "bytes32",
          "name": "_lastname",
          "type": "bytes32"
        },
        {
          "internalType": "enum UserChain.Roles",
          "name": "_role",
          "type": "uint8"
        },
        {
          "internalType": "address",
          "name": "_walletAddress",
          "type": "address"
        },
        {
          "internalType": "uint256",
          "name": "_timestamp",
          "type": "uint256"
        }
      ],
      "stateMutability": "view",
      "type": "function",
      "constant": true
    },
    {
      "inputs": [],
      "name": "usersCounter",
      "outputs": [
        {
          "internalType": "uint256",
          "name": "",
          "type": "uint256"
        }
      ],
      "stateMutability": "view",
      "type": "function",
      "constant": true
    },
    {
      "inputs": [
        {
          "internalType": "bytes32",
          "name": "_text",
          "type": "bytes32"
        },
        {
          "internalType": "uint256",
          "name": "_index",
          "type": "uint256"
        }
      ],
      "name": "createUniqueProjectAddress",
      "outputs": [
        {
          "internalType": "address",
          "name": "",
          "type": "address"
        }
      ],
      "stateMutability": "view",
      "type": "function",
      "constant": true
    },
    {
      "inputs": [
        {
          "internalType": "bytes32",
          "name": "_name",
          "type": "bytes32"
        },
        {
          "internalType": "uint256",
          "name": "_status",
          "type": "uint256"
        },
        {
          "internalType": "string",
          "name": "_ipfsFileCID",
          "type": "string"
        }
      ],
      "name": "createProject",
      "outputs": [],
      "stateMutability": "nonpayable",
      "type": "function"
    },
    {
      "inputs": [
        {
          "internalType": "address",
          "name": "_address",
          "type": "address"
        }
      ],
      "name": "getProjectInfo",
      "outputs": [
        {
          "components": [
            {
              "internalType": "uint256",
              "name": "_index",
              "type": "uint256"
            },
            {
              "internalType": "bytes32",
              "name": "_name",
              "type": "bytes32"
            },
            {
              "internalType": "enum SharedChain.ProjectStatus",
              "name": "_status",
              "type": "uint8"
            },
            {
              "internalType": "string",
              "name": "_ipfsFileCID",
              "type": "string"
            },
            {
              "internalType": "address",
              "name": "_projectAddress",
              "type": "address"
            },
            {
              "internalType": "address",
              "name": "_userAddress",
              "type": "address"
            },
            {
              "internalType": "uint256",
              "name": "_timestamp",
              "type": "uint256"
            }
          ],
          "internalType": "struct SharedChain.Project",
          "name": "",
          "type": "tuple"
        }
      ],
      "stateMutability": "view",
      "type": "function",
      "constant": true
    },
    {
      "inputs": [],
      "name": "getAllProjects",
      "outputs": [
        {
          "components": [
            {
              "internalType": "uint256",
              "name": "_index",
              "type": "uint256"
            },
            {
              "internalType": "bytes32",
              "name": "_name",
              "type": "bytes32"
            },
            {
              "internalType": "enum SharedChain.ProjectStatus",
              "name": "_status",
              "type": "uint8"
            },
            {
              "internalType": "string",
              "name": "_ipfsFileCID",
              "type": "string"
            },
            {
              "internalType": "address",
              "name": "_projectAddress",
              "type": "address"
            },
            {
              "internalType": "address",
              "name": "_userAddress",
              "type": "address"
            },
            {
              "internalType": "uint256",
              "name": "_timestamp",
              "type": "uint256"
            }
          ],
          "internalType": "struct SharedChain.Project[]",
          "name": "",
          "type": "tuple[]"
        }
      ],
      "stateMutability": "view",
      "type": "function",
      "constant": true
    },
    {
      "inputs": [
        {
          "internalType": "bytes32",
          "name": "_text",
          "type": "bytes32"
        },
        {
          "internalType": "uint256",
          "name": "_index",
          "type": "uint256"
        }
      ],
      "name": "createUniqueProjectRequestAddress",
      "outputs": [
        {
          "internalType": "address",
          "name": "",
          "type": "address"
        }
      ],
      "stateMutability": "view",
      "type": "function",
      "constant": true
    },
    {
      "inputs": [
        {
          "internalType": "bytes32",
          "name": "_title",
          "type": "bytes32"
        },
        {
          "internalType": "uint256",
          "name": "_status",
          "type": "uint256"
        },
        {
          "internalType": "uint256",
          "name": "_requestStatus",
          "type": "uint256"
        },
        {
          "internalType": "address",
          "name": "_projectAddress",
          "type": "address"
        }
      ],
      "name": "createProjectRequest",
      "outputs": [],
      "stateMutability": "nonpayable",
      "type": "function"
    },
    {
      "inputs": [],
      "name": "getAllProjectRequests",
      "outputs": [
        {
          "components": [
            {
              "internalType": "uint256",
              "name": "_index",
              "type": "uint256"
            },
            {
              "internalType": "bytes32",
              "name": "_title",
              "type": "bytes32"
            },
            {
              "internalType": "string",
              "name": "_comments",
              "type": "string"
            },
            {
              "internalType": "enum SharedChain.ProjectStatus",
              "name": "_status",
              "type": "uint8"
            },
            {
              "internalType": "enum SharedChain.RequestStatus",
              "name": "_requestStatus",
              "type": "uint8"
            },
            {
              "internalType": "address",
              "name": "_projectAddress",
              "type": "address"
            },
            {
              "internalType": "address",
              "name": "_userAddress",
              "type": "address"
            },
            {
              "internalType": "address",
              "name": "_requestAddress",
              "type": "address"
            },
            {
              "internalType": "uint256",
              "name": "_timestamp",
              "type": "uint256"
            }
          ],
          "internalType": "struct SharedChain.ProjectRequest[]",
          "name": "",
          "type": "tuple[]"
        }
      ],
      "stateMutability": "view",
      "type": "function",
      "constant": true
    },
    {
      "inputs": [
        {
          "internalType": "address",
          "name": "_projectAddress",
          "type": "address"
        }
      ],
      "name": "getLastProjectRequest",
      "outputs": [
        {
          "components": [
            {
              "internalType": "uint256",
              "name": "_index",
              "type": "uint256"
            },
            {
              "internalType": "bytes32",
              "name": "_title",
              "type": "bytes32"
            },
            {
              "internalType": "string",
              "name": "_comments",
              "type": "string"
            },
            {
              "internalType": "enum SharedChain.ProjectStatus",
              "name": "_status",
              "type": "uint8"
            },
            {
              "internalType": "enum SharedChain.RequestStatus",
              "name": "_requestStatus",
              "type": "uint8"
            },
            {
              "internalType": "address",
              "name": "_projectAddress",
              "type": "address"
            },
            {
              "internalType": "address",
              "name": "_userAddress",
              "type": "address"
            },
            {
              "internalType": "address",
              "name": "_requestAddress",
              "type": "address"
            },
            {
              "internalType": "uint256",
              "name": "_timestamp",
              "type": "uint256"
            }
          ],
          "internalType": "struct SharedChain.ProjectRequest",
          "name": "",
          "type": "tuple"
        }
      ],
      "stateMutability": "view",
      "type": "function",
      "constant": true
    },
    {
      "inputs": [
        {
          "internalType": "uint256",
          "name": "_index",
          "type": "uint256"
        },
        {
          "internalType": "string",
          "name": "_comments",
          "type": "string"
        },
        {
          "internalType": "uint256",
          "name": "_requestStatus",
          "type": "uint256"
        },
        {
          "internalType": "uint256",
          "name": "_indexProjectRequest",
          "type": "uint256"
        },
        {
          "internalType": "uint256",
          "name": "_projectStatus",
          "type": "uint256"
        },
        {
          "internalType": "address",
          "name": "_projectAddress",
          "type": "address"
        }
      ],
      "name": "updateRequest",
      "outputs": [],
      "stateMutability": "nonpayable",
      "type": "function"
    },
    {
      "inputs": [],
      "name": "getAllRequests",
      "outputs": [
        {
          "components": [
            {
              "internalType": "uint256",
              "name": "_index",
              "type": "uint256"
            },
            {
              "internalType": "uint256",
              "name": "_indexProjectRequest",
              "type": "uint256"
            },
            {
              "internalType": "bytes32",
              "name": "_title",
              "type": "bytes32"
            },
            {
              "internalType": "enum SharedChain.RequestStatus",
              "name": "_requestStatus",
              "type": "uint8"
            },
            {
              "internalType": "enum SharedChain.ProjectStatus",
              "name": "_projectStatus",
              "type": "uint8"
            },
            {
              "internalType": "enum SharedChain.RequestType",
              "name": "_requestType",
              "type": "uint8"
            },
            {
              "internalType": "address",
              "name": "_projectAddress",
              "type": "address"
            },
            {
              "internalType": "address",
              "name": "_userAddress",
              "type": "address"
            },
            {
              "internalType": "address",
              "name": "_requestAddress",
              "type": "address"
            },
            {
              "internalType": "uint256",
              "name": "_timestamp",
              "type": "uint256"
            }
          ],
          "internalType": "struct SharedChain.Request[]",
          "name": "",
          "type": "tuple[]"
        }
      ],
      "stateMutability": "view",
      "type": "function",
      "constant": true
    }
  ],
  "bytecode": "0x60806040526000600355600060065560006009556000600c5534801561002457600080fd5b50336000806101000a81548173ffffffffffffffffffffffffffffffffffffffff021916908373ffffffffffffffffffffffffffffffffffffffff16021790555033600460006101000a81548173ffffffffffffffffffffffffffffffffffffffff021916908373ffffffffffffffffffffffffffffffffffffffff16021790555061571880620000b66000396000f3fe608060405234801561001057600080fd5b50600436106101a95760003560e01c806391009786116100f9578063cf13f5d411610097578063e2842d7911610071578063e2842d791461057e578063e9fcdf101461059c578063fb1a002a146105b8578063fe360ea5146105d6576101a9565b8063cf13f5d414610514578063d51594b914610530578063d67b1b9914610560576101a9565b8063a87430ba116100d3578063a87430ba1461046b578063af1b7f49146104a2578063c19ded13146104be578063cc1ee4db146104f6576101a9565b806391009786146103df5780639bf4ec2f146103fb578063a2bdedf414610434576101a9565b80636386c1c71161016657806380d038291161014057806380d038291461033457806381d12c5814610352578063840e78fd1461038b5780638da5cb5b146103c1576101a9565b80636386c1c7146102ae578063663c2269146102de5780637e571188146102fc576101a9565b80630b287892146101ae578063125c7325146101de578063347d1066146101fa578063400003db1461022a57806347ee45b91461024857806353b3194c14610278575b600080fd5b6101c860048036038101906101c39190613fb0565b6105f4565b6040516101d5919061423b565b60405180910390f35b6101f860048036038101906101f391906143be565b610a2d565b005b610214600480360381019061020f9190614493565b610d53565b60405161022191906144e2565b60405180910390f35b610232610dad565b60405161023f9190614684565b60405180910390f35b610262600480360381019061025d9190613fb0565b611035565b60405161026f9190614742565b60405180910390f35b610292600480360381019061028d9190614764565b611225565b6040516102a59796959493929190614808565b60405180910390f35b6102c860048036038101906102c39190613fb0565b61134c565b6040516102d59190614976565b60405180910390f35b6102e66114fb565b6040516102f39190614998565b60405180910390f35b61031660048036038101906103119190614764565b611501565b60405161032b999897969594939291906149c2565b60405180910390f35b61033c611661565b6040516103499190614bb4565b60405180910390f35b61036c60048036038101906103679190614764565b611857565b6040516103829a99989796959493929190614c1e565b60405180910390f35b6103a560048036038101906103a09190613fb0565b611932565b6040516103b89796959493929190614808565b60405180910390f35b6103c9611a49565b6040516103d691906144e2565b60405180910390f35b6103f960048036038101906103f49190614cba565b611a6d565b005b61041560048036038101906104109190614764565b611d2a565b60405161042b9a99989796959493929190614c1e565b60405180910390f35b61044e60048036038101906104499190614764565b611e15565b604051610462989796959493929190614d09565b60405180910390f35b61048560048036038101906104809190613fb0565b611f22565b604051610499989796959493929190614d09565b60405180910390f35b6104bc60048036038101906104b79190614d8e565b61201f565b005b6104d860048036038101906104d39190614764565b612581565b6040516104ed999897969594939291906149c2565b60405180910390f35b6104fe6126d1565b60405161050b9190614998565b60405180910390f35b61052e60048036038101906105299190614dfd565b6126d7565b005b61054a60048036038101906105459190614493565b612bef565b60405161055791906144e2565b60405180910390f35b610568612c49565b6040516105759190614998565b60405180910390f35b610586612c4f565b6040516105939190615018565b60405180910390f35b6105b660048036038101906105b1919061503a565b612e04565b005b6105c0613394565b6040516105cd919061522c565b60405180910390f35b6105de6135cf565b6040516105eb9190614998565b60405180910390f35b6105fc613cf2565b610604613cf2565b6000600a805490501115610a235760006001600a80549050610626919061527d565b90505b60008110610a2157600a8181548110610645576106446152b1565b5b906000526020600020906007020160030160029054906101000a900473ffffffffffffffffffffffffffffffffffffffff1673ffffffffffffffffffffffffffffffffffffffff168473ffffffffffffffffffffffffffffffffffffffff161415610a0e57600a81815481106106be576106bd6152b1565b5b906000526020600020906007020160000154826000018181525050600a81815481106106ed576106ec6152b1565b5b906000526020600020906007020160010154826020018181525050600a818154811061071c5761071b6152b1565b5b906000526020600020906007020160020180546107389061530f565b80601f01602080910402602001604051908101604052809291908181526020018280546107649061530f565b80156107b15780601f10610786576101008083540402835291602001916107b1565b820191906000526020600020905b81548152906001019060200180831161079457829003601f168201915b50505050508260400181905250600a81815481106107d2576107d16152b1565b5b906000526020600020906007020160030160009054906101000a900460ff1682606001906004811115610808576108076140a8565b5b9081600481111561081c5761081b6140a8565b5b81525050600a8181548110610834576108336152b1565b5b906000526020600020906007020160030160019054906101000a900460ff168260800190600281111561086a576108696140a8565b5b9081600281111561087e5761087d6140a8565b5b81525050600a8181548110610896576108956152b1565b5b906000526020600020906007020160030160029054906101000a900473ffffffffffffffffffffffffffffffffffffffff168260a0019073ffffffffffffffffffffffffffffffffffffffff16908173ffffffffffffffffffffffffffffffffffffffff1681525050600a8181548110610913576109126152b1565b5b906000526020600020906007020160040160009054906101000a900473ffffffffffffffffffffffffffffffffffffffff168260c0019073ffffffffffffffffffffffffffffffffffffffff16908173ffffffffffffffffffffffffffffffffffffffff1681525050600a81815481106109905761098f6152b1565b5b906000526020600020906007020160050160009054906101000a900473ffffffffffffffffffffffffffffffffffffffff168260e0019073ffffffffffffffffffffffffffffffffffffffff16908173ffffffffffffffffffffffffffffffffffffffff168152505042826101000181815250508192505050610a28565b8080610a1990615341565b915050610629565b505b809150505b919050565b836002811115610a4057610a3f6140a8565b5b600b600088815260200190815260200160002060030160006101000a81548160ff02191690836002811115610a7857610a776140a8565b5b02179055506000600b6000888152602001908152602001600020600001549050846002811115610aab57610aaa6140a8565b5b600d8281548110610abf57610abe6152b1565b5b906000526020600020906007020160030160006101000a81548160ff02191690836002811115610af257610af16140a8565b5b021790555085600860008681526020019081526020016000206002019080519060200190610b21929190613da7565b50846002811115610b3557610b346140a8565b5b6008600086815260200190815260200160002060030160016101000a81548160ff02191690836002811115610b6d57610b6c6140a8565b5b021790555060006008600086815260200190815260200160002060000154905086600a8281548110610ba257610ba16152b1565b5b90600052602060002090600702016002019080519060200190610bc6929190613da7565b50856002811115610bda57610bd96140a8565b5b600a8281548110610bee57610bed6152b1565b5b906000526020600020906007020160030160016101000a81548160ff02191690836002811115610c2157610c206140a8565b5b0217905550836004811115610c3957610c386140a8565b5b600560008573ffffffffffffffffffffffffffffffffffffffff1673ffffffffffffffffffffffffffffffffffffffff16815260200190815260200160002060020160006101000a81548160ff02191690836004811115610c9d57610c9c6140a8565b5b02179055506000600560008573ffffffffffffffffffffffffffffffffffffffff1673ffffffffffffffffffffffffffffffffffffffff168152602001908152602001600020600001549050846004811115610cfc57610cfb6140a8565b5b60078281548110610d1057610d0f6152b1565b5b906000526020600020906007020160020160006101000a81548160ff02191690836004811115610d4357610d426140a8565b5b0217905550505050505050505050565b600082600460009054906101000a900473ffffffffffffffffffffffffffffffffffffffff1683604051602001610d8c939291906153f5565b6040516020818303038152906040528051906020012060001c905092915050565b6060600a805480602002602001604051908101604052809291908181526020016000905b8282101561102c5783829060005260206000209060070201604051806101200160405290816000820154815260200160018201548152602001600282018054610e199061530f565b80601f0160208091040260200160405190810160405280929190818152602001828054610e459061530f565b8015610e925780601f10610e6757610100808354040283529160200191610e92565b820191906000526020600020905b815481529060010190602001808311610e7557829003601f168201915b505050505081526020016003820160009054906101000a900460ff166004811115610ec057610ebf6140a8565b5b6004811115610ed257610ed16140a8565b5b81526020016003820160019054906101000a900460ff166002811115610efb57610efa6140a8565b5b6002811115610f0d57610f0c6140a8565b5b81526020016003820160029054906101000a900473ffffffffffffffffffffffffffffffffffffffff1673ffffffffffffffffffffffffffffffffffffffff1673ffffffffffffffffffffffffffffffffffffffff1681526020016004820160009054906101000a900473ffffffffffffffffffffffffffffffffffffffff1673ffffffffffffffffffffffffffffffffffffffff1673ffffffffffffffffffffffffffffffffffffffff1681526020016005820160009054906101000a900473ffffffffffffffffffffffffffffffffffffffff1673ffffffffffffffffffffffffffffffffffffffff1673ffffffffffffffffffffffffffffffffffffffff16815260200160068201548152505081526020019060010190610dd1565b50505050905090565b61103d613e2d565b600560008373ffffffffffffffffffffffffffffffffffffffff1673ffffffffffffffffffffffffffffffffffffffff1681526020019081526020016000206040518060e001604052908160008201548152602001600182015481526020016002820160009054906101000a900460ff1660048111156110c0576110bf6140a8565b5b60048111156110d2576110d16140a8565b5b81526020016003820180546110e69061530f565b80601f01602080910402602001604051908101604052809291908181526020018280546111129061530f565b801561115f5780601f106111345761010080835404028352916020019161115f565b820191906000526020600020905b81548152906001019060200180831161114257829003601f168201915b505050505081526020016004820160009054906101000a900473ffffffffffffffffffffffffffffffffffffffff1673ffffffffffffffffffffffffffffffffffffffff1673ffffffffffffffffffffffffffffffffffffffff1681526020016005820160009054906101000a900473ffffffffffffffffffffffffffffffffffffffff1673ffffffffffffffffffffffffffffffffffffffff1673ffffffffffffffffffffffffffffffffffffffff1681526020016006820154815250509050919050565b6007818154811061123557600080fd5b90600052602060002090600702016000915090508060000154908060010154908060020160009054906101000a900460ff16908060030180546112779061530f565b80601f01602080910402602001604051908101604052809291908181526020018280546112a39061530f565b80156112f05780601f106112c5576101008083540402835291602001916112f0565b820191906000526020600020905b8154815290600101906020018083116112d357829003601f168201915b5050505050908060040160009054906101000a900473ffffffffffffffffffffffffffffffffffffffff16908060050160009054906101000a900473ffffffffffffffffffffffffffffffffffffffff16908060060154905087565b611354613eab565b600160008373ffffffffffffffffffffffffffffffffffffffff1673ffffffffffffffffffffffffffffffffffffffff16815260200190815260200160002060405180610100016040529081600082015481526020016001820180546113b99061530f565b80601f01602080910402602001604051908101604052809291908181526020018280546113e59061530f565b80156114325780601f1061140757610100808354040283529160200191611432565b820191906000526020600020905b81548152906001019060200180831161141557829003601f168201915b505050505081526020016002820154815260200160038201548152602001600482015481526020016005820160009054906101000a900460ff16600381111561147e5761147d6140a8565b5b60038111156114905761148f6140a8565b5b81526020016005820160019054906101000a900473ffffffffffffffffffffffffffffffffffffffff1673ffffffffffffffffffffffffffffffffffffffff1673ffffffffffffffffffffffffffffffffffffffff1681526020016006820154815250509050919050565b600c5481565b600a818154811061151157600080fd5b90600052602060002090600702016000915090508060000154908060010154908060020180546115409061530f565b80601f016020809104026020016040519081016040528092919081815260200182805461156c9061530f565b80156115b95780601f1061158e576101008083540402835291602001916115b9565b820191906000526020600020905b81548152906001019060200180831161159c57829003601f168201915b5050505050908060030160009054906101000a900460ff16908060030160019054906101000a900460ff16908060030160029054906101000a900473ffffffffffffffffffffffffffffffffffffffff16908060040160009054906101000a900473ffffffffffffffffffffffffffffffffffffffff16908060050160009054906101000a900473ffffffffffffffffffffffffffffffffffffffff16908060060154905089565b60606007805480602002602001604051908101604052809291908181526020016000905b8282101561184e57838290600052602060002090600702016040518060e001604052908160008201548152602001600182015481526020016002820160009054906101000a900460ff1660048111156116e1576116e06140a8565b5b60048111156116f3576116f26140a8565b5b81526020016003820180546117079061530f565b80601f01602080910402602001604051908101604052809291908181526020018280546117339061530f565b80156117805780601f1061175557610100808354040283529160200191611780565b820191906000526020600020905b81548152906001019060200180831161176357829003601f168201915b505050505081526020016004820160009054906101000a900473ffffffffffffffffffffffffffffffffffffffff1673ffffffffffffffffffffffffffffffffffffffff1673ffffffffffffffffffffffffffffffffffffffff1681526020016005820160009054906101000a900473ffffffffffffffffffffffffffffffffffffffff1673ffffffffffffffffffffffffffffffffffffffff1673ffffffffffffffffffffffffffffffffffffffff16815260200160068201548152505081526020019060010190611685565b50505050905090565b600b6020528060005260406000206000915090508060000154908060010154908060020154908060030160009054906101000a900460ff16908060030160019054906101000a900460ff16908060030160029054906101000a900460ff16908060030160039054906101000a900473ffffffffffffffffffffffffffffffffffffffff16908060040160009054906101000a900473ffffffffffffffffffffffffffffffffffffffff16908060050160009054906101000a900473ffffffffffffffffffffffffffffffffffffffff1690806006015490508a565b60056020528060005260406000206000915090508060000154908060010154908060020160009054906101000a900460ff16908060030180546119749061530f565b80601f01602080910402602001604051908101604052809291908181526020018280546119a09061530f565b80156119ed5780601f106119c2576101008083540402835291602001916119ed565b820191906000526020600020905b8154815290600101906020018083116119d057829003601f168201915b5050505050908060040160009054906101000a900473ffffffffffffffffffffffffffffffffffffffff16908060050160009054906101000a900473ffffffffffffffffffffffffffffffffffffffff16908060060154905087565b60008054906101000a900473ffffffffffffffffffffffffffffffffffffffff1681565b816003811115611a8057611a7f6140a8565b5b600160008373ffffffffffffffffffffffffffffffffffffffff1673ffffffffffffffffffffffffffffffffffffffff16815260200190815260200160002060050160006101000a81548160ff02191690836003811115611ae457611ae36140a8565b5b02179055506000600160008373ffffffffffffffffffffffffffffffffffffffff1673ffffffffffffffffffffffffffffffffffffffff168152602001908152602001600020600001549050826003811115611b4357611b426140a8565b5b60028281548110611b5757611b566152b1565b5b906000526020600020906007020160050160006101000a81548160ff02191690836003811115611b8a57611b896140a8565b5b0217905550826003811115611ba257611ba16140a8565b5b6003811115611bb457611bb36140a8565b5b600160008473ffffffffffffffffffffffffffffffffffffffff1673ffffffffffffffffffffffffffffffffffffffff168152602001908152602001600020600101604051611c0391906154d1565b60405180910390208373ffffffffffffffffffffffffffffffffffffffff167f2ae7d1f3a516b67fe6248bb3ec44ca6a8e8d75492c92879f0e621a85954e984a600160008773ffffffffffffffffffffffffffffffffffffffff1673ffffffffffffffffffffffffffffffffffffffff16815260200190815260200160002060020154600160008873ffffffffffffffffffffffffffffffffffffffff1673ffffffffffffffffffffffffffffffffffffffff16815260200190815260200160002060030154600160008973ffffffffffffffffffffffffffffffffffffffff1673ffffffffffffffffffffffffffffffffffffffff1681526020019081526020016000206004015442604051611d1d94939291906154e8565b60405180910390a4505050565b600d8181548110611d3a57600080fd5b90600052602060002090600702016000915090508060000154908060010154908060020154908060030160009054906101000a900460ff16908060030160019054906101000a900460ff16908060030160029054906101000a900460ff16908060030160039054906101000a900473ffffffffffffffffffffffffffffffffffffffff16908060040160009054906101000a900473ffffffffffffffffffffffffffffffffffffffff16908060050160009054906101000a900473ffffffffffffffffffffffffffffffffffffffff1690806006015490508a565b60028181548110611e2557600080fd5b9060005260206000209060070201600091509050806000015490806001018054611e4e9061530f565b80601f0160208091040260200160405190810160405280929190818152602001828054611e7a9061530f565b8015611ec75780601f10611e9c57610100808354040283529160200191611ec7565b820191906000526020600020905b815481529060010190602001808311611eaa57829003601f168201915b5050505050908060020154908060030154908060040154908060050160009054906101000a900460ff16908060050160019054906101000a900473ffffffffffffffffffffffffffffffffffffffff16908060060154905088565b6001602052806000526040600020600091509050806000015490806001018054611f4b9061530f565b80601f0160208091040260200160405190810160405280929190818152602001828054611f779061530f565b8015611fc45780601f10611f9957610100808354040283529160200191611fc4565b820191906000526020600020905b815481529060010190602001808311611fa757829003601f168201915b5050505050908060020154908060030154908060040154908060050160009054906101000a900460ff16908060050160019054906101000a900473ffffffffffffffffffffffffffffffffffffffff16908060060154905088565b600061204d7f6373643f534073616c61733b646c413233345f442e3b735f6173000000000000600654610d53565b9050600654600560008373ffffffffffffffffffffffffffffffffffffffff1673ffffffffffffffffffffffffffffffffffffffff1681526020019081526020016000206000018190555083600560008373ffffffffffffffffffffffffffffffffffffffff1673ffffffffffffffffffffffffffffffffffffffff168152602001908152602001600020600101819055508260048111156120f2576120f16140a8565b5b600560008373ffffffffffffffffffffffffffffffffffffffff1673ffffffffffffffffffffffffffffffffffffffff16815260200190815260200160002060020160006101000a81548160ff02191690836004811115612156576121556140a8565b5b021790555081600560008373ffffffffffffffffffffffffffffffffffffffff1673ffffffffffffffffffffffffffffffffffffffff16815260200190815260200160002060030190805190602001906121b1929190613da7565b5080600560008373ffffffffffffffffffffffffffffffffffffffff1673ffffffffffffffffffffffffffffffffffffffff16815260200190815260200160002060040160006101000a81548173ffffffffffffffffffffffffffffffffffffffff021916908373ffffffffffffffffffffffffffffffffffffffff160217905550600460009054906101000a900473ffffffffffffffffffffffffffffffffffffffff16600560008373ffffffffffffffffffffffffffffffffffffffff1673ffffffffffffffffffffffffffffffffffffffff16815260200190815260200160002060050160006101000a81548173ffffffffffffffffffffffffffffffffffffffff021916908373ffffffffffffffffffffffffffffffffffffffff16021790555042600560008373ffffffffffffffffffffffffffffffffffffffff1673ffffffffffffffffffffffffffffffffffffffff168152602001908152602001600020600601819055507fb4d7cf766344f0dab6a272ab11f55b042f020c99154e4e44f886d87c15a2966960065485856004811115612355576123546140a8565b5b8585600460009054906101000a900473ffffffffffffffffffffffffffffffffffffffff164260405161238e9796959493929190614808565b60405180910390a160076040518060e0016040528060065481526020018681526020018560048111156123c4576123c36140a8565b5b60048111156123d6576123d56140a8565b5b81526020018481526020018373ffffffffffffffffffffffffffffffffffffffff168152602001600460009054906101000a900473ffffffffffffffffffffffffffffffffffffffff1673ffffffffffffffffffffffffffffffffffffffff168152602001428152509080600181540180825580915050600190039060005260206000209060070201600090919091909150600082015181600001556020820151816001015560408201518160020160006101000a81548160ff021916908360048111156124a7576124a66140a8565b5b021790555060608201518160030190805190602001906124c8929190613da7565b5060808201518160040160006101000a81548173ffffffffffffffffffffffffffffffffffffffff021916908373ffffffffffffffffffffffffffffffffffffffff16021790555060a08201518160050160006101000a81548173ffffffffffffffffffffffffffffffffffffffff021916908373ffffffffffffffffffffffffffffffffffffffff16021790555060c082015181600601555050600660008154809291906125769061552d565b919050555050505050565b60086020528060005260406000206000915090508060000154908060010154908060020180546125b09061530f565b80601f01602080910402602001604051908101604052809291908181526020018280546125dc9061530f565b80156126295780601f106125fe57610100808354040283529160200191612629565b820191906000526020600020905b81548152906001019060200180831161260c57829003601f168201915b5050505050908060030160009054906101000a900460ff16908060030160019054906101000a900460ff16908060030160029054906101000a900473ffffffffffffffffffffffffffffffffffffffff16908060040160009054906101000a900473ffffffffffffffffffffffffffffffffffffffff16908060050160009054906101000a900473ffffffffffffffffffffffffffffffffffffffff16908060060154905089565b60095481565b3373ffffffffffffffffffffffffffffffffffffffff1660008054906101000a900473ffffffffffffffffffffffffffffffffffffffff1673ffffffffffffffffffffffffffffffffffffffff1614612765576040517f08c379a000000000000000000000000000000000000000000000000000000000815260040161275c906155c2565b60405180910390fd5b600354600160008373ffffffffffffffffffffffffffffffffffffffff1673ffffffffffffffffffffffffffffffffffffffff1681526020019081526020016000206000018190555085600160008373ffffffffffffffffffffffffffffffffffffffff1673ffffffffffffffffffffffffffffffffffffffff1681526020019081526020016000206001019080519060200190612804929190613da7565b5084600160008373ffffffffffffffffffffffffffffffffffffffff1673ffffffffffffffffffffffffffffffffffffffff1681526020019081526020016000206002018190555083600160008373ffffffffffffffffffffffffffffffffffffffff1673ffffffffffffffffffffffffffffffffffffffff1681526020019081526020016000206003018190555082600160008373ffffffffffffffffffffffffffffffffffffffff1673ffffffffffffffffffffffffffffffffffffffff168152602001908152602001600020600401819055508160038111156128ed576128ec6140a8565b5b600160008373ffffffffffffffffffffffffffffffffffffffff1673ffffffffffffffffffffffffffffffffffffffff16815260200190815260200160002060050160006101000a81548160ff02191690836003811115612951576129506140a8565b5b021790555080600160008373ffffffffffffffffffffffffffffffffffffffff1673ffffffffffffffffffffffffffffffffffffffff16815260200190815260200160002060050160016101000a81548173ffffffffffffffffffffffffffffffffffffffff021916908373ffffffffffffffffffffffffffffffffffffffff1602179055508160038111156129ea576129e96140a8565b5b60038111156129fc576129fb6140a8565b5b86604051612a0a9190615613565b60405180910390208273ffffffffffffffffffffffffffffffffffffffff167f2ae7d1f3a516b67fe6248bb3ec44ca6a8e8d75492c92879f0e621a85954e984a88888842604051612a5e94939291906154e8565b60405180910390a460026040518061010001604052806003548152602001888152602001878152602001868152602001858152602001846003811115612aa757612aa66140a8565b5b6003811115612ab957612ab86140a8565b5b81526020018373ffffffffffffffffffffffffffffffffffffffff168152602001428152509080600181540180825580915050600190039060005260206000209060070201600090919091909150600082015181600001556020820151816001019080519060200190612b2d929190613da7565b5060408201518160020155606082015181600301556080820151816004015560a08201518160050160006101000a81548160ff02191690836003811115612b7757612b766140a8565b5b021790555060c08201518160050160016101000a81548173ffffffffffffffffffffffffffffffffffffffff021916908373ffffffffffffffffffffffffffffffffffffffff16021790555060e08201518160060155505060036000815480929190612be29061552d565b9190505550505050505050565b600082600460009054906101000a900473ffffffffffffffffffffffffffffffffffffffff1683604051602001612c28939291906153f5565b6040516020818303038152906040528051906020012060001c905092915050565b60035481565b60606002805480602002602001604051908101604052809291908181526020016000905b82821015612dfb57838290600052602060002090600702016040518061010001604052908160008201548152602001600182018054612cb19061530f565b80601f0160208091040260200160405190810160405280929190818152602001828054612cdd9061530f565b8015612d2a5780601f10612cff57610100808354040283529160200191612d2a565b820191906000526020600020905b815481529060010190602001808311612d0d57829003601f168201915b505050505081526020016002820154815260200160038201548152602001600482015481526020016005820160009054906101000a900460ff166003811115612d7657612d756140a8565b5b6003811115612d8857612d876140a8565b5b81526020016005820160019054906101000a900473ffffffffffffffffffffffffffffffffffffffff1673ffffffffffffffffffffffffffffffffffffffff1673ffffffffffffffffffffffffffffffffffffffff16815260200160068201548152505081526020019060010190612c73565b50505050905090565b6000612e327f6373643f2e213f2a73616c61733b646c412e3b735f6173000000000000000000600954612bef565b9050600954600860006009548152602001908152602001600020600001819055508460086000600954815260200190815260200160002060010181905550604051806020016040528060008152506008600060095481526020019081526020016000206002019080519060200190612eab929190613da7565b50836004811115612ebf57612ebe6140a8565b5b60086000600954815260200190815260200160002060030160006101000a81548160ff02191690836004811115612ef957612ef86140a8565b5b0217905550826002811115612f1157612f106140a8565b5b60086000600954815260200190815260200160002060030160016101000a81548160ff02191690836002811115612f4b57612f4a6140a8565b5b02179055508160086000600954815260200190815260200160002060030160026101000a81548173ffffffffffffffffffffffffffffffffffffffff021916908373ffffffffffffffffffffffffffffffffffffffff160217905550600460009054906101000a900473ffffffffffffffffffffffffffffffffffffffff1660086000600954815260200190815260200160002060040160006101000a81548173ffffffffffffffffffffffffffffffffffffffff021916908373ffffffffffffffffffffffffffffffffffffffff160217905550426008600060095481526020019081526020016000206006018190555061304d60095486858786866135d5565b7fc8c7ffa5e3684e848f26234af2ac7524e0d3f7420ddcadae1a428d06b209835e60095486866004811115613085576130846140a8565b5b866002811115613098576130976140a8565b5b86600460009054906101000a900473ffffffffffffffffffffffffffffffffffffffff1687426040516130d2989796959493929190615650565b60405180910390a1600a604051806101200160405280600954815260200187815260200160405180602001604052806000815250815260200186600481111561311e5761311d6140a8565b5b60048111156131305761312f6140a8565b5b8152602001856002811115613148576131476140a8565b5b600281111561315a576131596140a8565b5b81526020018473ffffffffffffffffffffffffffffffffffffffff168152602001600460009054906101000a900473ffffffffffffffffffffffffffffffffffffffff1673ffffffffffffffffffffffffffffffffffffffff1681526020018373ffffffffffffffffffffffffffffffffffffffff16815260200142815250908060018154018082558091505060019003906000526020600020906007020160009091909190915060008201518160000155602082015181600101556040820151816002019080519060200190613232929190613da7565b5060608201518160030160006101000a81548160ff0219169083600481111561325e5761325d6140a8565b5b021790555060808201518160030160016101000a81548160ff0219169083600281111561328e5761328d6140a8565b5b021790555060a08201518160030160026101000a81548173ffffffffffffffffffffffffffffffffffffffff021916908373ffffffffffffffffffffffffffffffffffffffff16021790555060c08201518160040160006101000a81548173ffffffffffffffffffffffffffffffffffffffff021916908373ffffffffffffffffffffffffffffffffffffffff16021790555060e08201518160050160006101000a81548173ffffffffffffffffffffffffffffffffffffffff021916908373ffffffffffffffffffffffffffffffffffffffff16021790555061010082015181600601555050600960008154809291906133889061552d565b91905055505050505050565b6060600d805480602002602001604051908101604052809291908181526020016000905b828210156135c65783829060005260206000209060070201604051806101400160405290816000820154815260200160018201548152602001600282015481526020016003820160009054906101000a900460ff16600281111561341f5761341e6140a8565b5b6002811115613431576134306140a8565b5b81526020016003820160019054906101000a900460ff16600481111561345a576134596140a8565b5b600481111561346c5761346b6140a8565b5b81526020016003820160029054906101000a900460ff166001811115613495576134946140a8565b5b60018111156134a7576134a66140a8565b5b81526020016003820160039054906101000a900473ffffffffffffffffffffffffffffffffffffffff1673ffffffffffffffffffffffffffffffffffffffff1673ffffffffffffffffffffffffffffffffffffffff1681526020016004820160009054906101000a900473ffffffffffffffffffffffffffffffffffffffff1673ffffffffffffffffffffffffffffffffffffffff1673ffffffffffffffffffffffffffffffffffffffff1681526020016005820160009054906101000a900473ffffffffffffffffffffffffffffffffffffffff1673ffffffffffffffffffffffffffffffffffffffff1673ffffffffffffffffffffffffffffffffffffffff168152602001600682015481525050815260200190600101906133b8565b50505050905090565b60065481565b6000600160048111156135eb576135ea6140a8565b5b8460048111156135fe576135fd6140a8565b5b60048111156136105761360f6140a8565b5b148061365257506003600481111561362b5761362a6140a8565b5b84600481111561363e5761363d6140a8565b5b60048111156136505761364f6140a8565b5b145b80613692575060048081111561366b5761366a6140a8565b5b84600481111561367e5761367d6140a8565b5b60048111156136905761368f6140a8565b5b145b156136a057600090506136e5565b600260048111156136b4576136b36140a8565b5b8460048111156136c7576136c66140a8565b5b60048111156136d9576136d86140a8565b5b14156136e457600190505b5b6136f4878787878588886136fd565b50505050505050565b600c54600b6000600c5481526020019081526020016000206000018190555086600b6000600c5481526020019081526020016000206001018190555085600b6000600c54815260200190815260200160002060020181905550846002811115613769576137686140a8565b5b600b6000600c54815260200190815260200160002060030160006101000a81548160ff021916908360028111156137a3576137a26140a8565b5b02179055508360048111156137bb576137ba6140a8565b5b600b6000600c54815260200190815260200160002060030160016101000a81548160ff021916908360048111156137f5576137f46140a8565b5b021790555082600b6000600c54815260200190815260200160002060030160026101000a81548160ff02191690836001811115613835576138346140a8565b5b021790555081600b6000600c54815260200190815260200160002060030160036101000a81548173ffffffffffffffffffffffffffffffffffffffff021916908373ffffffffffffffffffffffffffffffffffffffff160217905550600460009054906101000a900473ffffffffffffffffffffffffffffffffffffffff16600b6000600c54815260200190815260200160002060040160006101000a81548173ffffffffffffffffffffffffffffffffffffffff021916908373ffffffffffffffffffffffffffffffffffffffff16021790555080600b6000600c54815260200190815260200160002060050160006101000a81548173ffffffffffffffffffffffffffffffffffffffff021916908373ffffffffffffffffffffffffffffffffffffffff16021790555042600b6000600c548152602001908152602001600020600601819055507fc495e28a4c7b537c488ac38d6bff517119dfced8c47ca7a97ba115ccf5f7a4c0600c5488888860028111156139b7576139b66140a8565b5b8860048111156139ca576139c96140a8565b5b8888600460009054906101000a900473ffffffffffffffffffffffffffffffffffffffff168942604051613a079a99989796959493929190614c1e565b60405180910390a1600d604051806101400160405280600c548152602001898152602001888152602001876002811115613a4457613a436140a8565b5b6002811115613a5657613a556140a8565b5b8152602001866004811115613a6e57613a6d6140a8565b5b6004811115613a8057613a7f6140a8565b5b8152602001856001811115613a9857613a976140a8565b5b81526020018473ffffffffffffffffffffffffffffffffffffffff168152602001600460009054906101000a900473ffffffffffffffffffffffffffffffffffffffff1673ffffffffffffffffffffffffffffffffffffffff1681526020018373ffffffffffffffffffffffffffffffffffffffff16815260200142815250908060018154018082558091505060019003906000526020600020906007020160009091909190915060008201518160000155602082015181600101556040820151816002015560608201518160030160006101000a81548160ff02191690836002811115613b8957613b886140a8565b5b021790555060808201518160030160016101000a81548160ff02191690836004811115613bb957613bb86140a8565b5b021790555060a08201518160030160026101000a81548160ff02191690836001811115613be957613be86140a8565b5b021790555060c08201518160030160036101000a81548173ffffffffffffffffffffffffffffffffffffffff021916908373ffffffffffffffffffffffffffffffffffffffff16021790555060e08201518160040160006101000a81548173ffffffffffffffffffffffffffffffffffffffff021916908373ffffffffffffffffffffffffffffffffffffffff1602179055506101008201518160050160006101000a81548173ffffffffffffffffffffffffffffffffffffffff021916908373ffffffffffffffffffffffffffffffffffffffff16021790555061012082015181600601555050600c6000815480929190613ce49061552d565b919050555050505050505050565b60405180610120016040528060008152602001600080191681526020016060815260200160006004811115613d2a57613d296140a8565b5b815260200160006002811115613d4357613d426140a8565b5b8152602001600073ffffffffffffffffffffffffffffffffffffffff168152602001600073ffffffffffffffffffffffffffffffffffffffff168152602001600073ffffffffffffffffffffffffffffffffffffffff168152602001600081525090565b828054613db39061530f565b90600052602060002090601f016020900481019282613dd55760008555613e1c565b82601f10613dee57805160ff1916838001178555613e1c565b82800160010185558215613e1c579182015b82811115613e1b578251825591602001919060010190613e00565b5b509050613e299190613f21565b5090565b6040518060e00160405280600081526020016000801916815260200160006004811115613e5d57613e5c6140a8565b5b815260200160608152602001600073ffffffffffffffffffffffffffffffffffffffff168152602001600073ffffffffffffffffffffffffffffffffffffffff168152602001600081525090565b604051806101000160405280600081526020016060815260200160008019168152602001600080191681526020016000801916815260200160006003811115613ef757613ef66140a8565b5b8152602001600073ffffffffffffffffffffffffffffffffffffffff168152602001600081525090565b5b80821115613f3a576000816000905550600101613f22565b5090565b6000604051905090565b600080fd5b600080fd5b600073ffffffffffffffffffffffffffffffffffffffff82169050919050565b6000613f7d82613f52565b9050919050565b613f8d81613f72565b8114613f9857600080fd5b50565b600081359050613faa81613f84565b92915050565b600060208284031215613fc657613fc5613f48565b5b6000613fd484828501613f9b565b91505092915050565b6000819050919050565b613ff081613fdd565b82525050565b6000819050919050565b61400981613ff6565b82525050565b600081519050919050565b600082825260208201905092915050565b60005b8381101561404957808201518184015260208101905061402e565b83811115614058576000848401525b50505050565b6000601f19601f8301169050919050565b600061407a8261400f565b614084818561401a565b935061409481856020860161402b565b61409d8161405e565b840191505092915050565b7f4e487b7100000000000000000000000000000000000000000000000000000000600052602160045260246000fd5b600581106140e8576140e76140a8565b5b50565b60008190506140f9826140d7565b919050565b6000614109826140eb565b9050919050565b614119816140fe565b82525050565b600381106141305761412f6140a8565b5b50565b60008190506141418261411f565b919050565b600061415182614133565b9050919050565b61416181614146565b82525050565b61417081613f72565b82525050565b60006101208301600083015161418f6000860182613fe7565b5060208301516141a26020860182614000565b50604083015184820360408601526141ba828261406f565b91505060608301516141cf6060860182614110565b5060808301516141e26080860182614158565b5060a08301516141f560a0860182614167565b5060c083015161420860c0860182614167565b5060e083015161421b60e0860182614167565b50610100830151614230610100860182613fe7565b508091505092915050565b600060208201905081810360008301526142558184614176565b905092915050565b61426681613fdd565b811461427157600080fd5b50565b6000813590506142838161425d565b92915050565b600080fd5b600080fd5b7f4e487b7100000000000000000000000000000000000000000000000000000000600052604160045260246000fd5b6142cb8261405e565b810181811067ffffffffffffffff821117156142ea576142e9614293565b5b80604052505050565b60006142fd613f3e565b905061430982826142c2565b919050565b600067ffffffffffffffff82111561432957614328614293565b5b6143328261405e565b9050602081019050919050565b82818337600083830152505050565b600061436161435c8461430e565b6142f3565b90508281526020810184848401111561437d5761437c61428e565b5b61438884828561433f565b509392505050565b600082601f8301126143a5576143a4614289565b5b81356143b584826020860161434e565b91505092915050565b60008060008060008060c087890312156143db576143da613f48565b5b60006143e989828a01614274565b965050602087013567ffffffffffffffff81111561440a57614409613f4d565b5b61441689828a01614390565b955050604061442789828a01614274565b945050606061443889828a01614274565b935050608061444989828a01614274565b92505060a061445a89828a01613f9b565b9150509295509295509295565b61447081613ff6565b811461447b57600080fd5b50565b60008135905061448d81614467565b92915050565b600080604083850312156144aa576144a9613f48565b5b60006144b88582860161447e565b92505060206144c985828601614274565b9150509250929050565b6144dc81613f72565b82525050565b60006020820190506144f760008301846144d3565b92915050565b600081519050919050565b600082825260208201905092915050565b6000819050602082019050919050565b6000610120830160008301516145426000860182613fe7565b5060208301516145556020860182614000565b506040830151848203604086015261456d828261406f565b91505060608301516145826060860182614110565b5060808301516145956080860182614158565b5060a08301516145a860a0860182614167565b5060c08301516145bb60c0860182614167565b5060e08301516145ce60e0860182614167565b506101008301516145e3610100860182613fe7565b508091505092915050565b60006145fa8383614529565b905092915050565b6000602082019050919050565b600061461a826144fd565b6146248185614508565b93508360208202850161463685614519565b8060005b85811015614672578484038952815161465385826145ee565b945061465e83614602565b925060208a0199505060018101905061463a565b50829750879550505050505092915050565b6000602082019050818103600083015261469e818461460f565b905092915050565b600060e0830160008301516146be6000860182613fe7565b5060208301516146d16020860182614000565b5060408301516146e46040860182614110565b50606083015184820360608601526146fc828261406f565b91505060808301516147116080860182614167565b5060a083015161472460a0860182614167565b5060c083015161473760c0860182613fe7565b508091505092915050565b6000602082019050818103600083015261475c81846146a6565b905092915050565b60006020828403121561477a57614779613f48565b5b600061478884828501614274565b91505092915050565b61479a81613fdd565b82525050565b6147a981613ff6565b82525050565b6147b8816140fe565b82525050565b600082825260208201905092915050565b60006147da8261400f565b6147e481856147be565b93506147f481856020860161402b565b6147fd8161405e565b840191505092915050565b600060e08201905061481d600083018a614791565b61482a60208301896147a0565b61483760408301886147af565b818103606083015261484981876147cf565b905061485860808301866144d3565b61486560a08301856144d3565b61487260c0830184614791565b98975050505050505050565b6004811061488f5761488e6140a8565b5b50565b60008190506148a08261487e565b919050565b60006148b082614892565b9050919050565b6148c0816148a5565b82525050565b6000610100830160008301516148df6000860182613fe7565b50602083015184820360208601526148f7828261406f565b915050604083015161490c6040860182614000565b50606083015161491f6060860182614000565b5060808301516149326080860182614000565b5060a083015161494560a08601826148b7565b5060c083015161495860c0860182614167565b5060e083015161496b60e0860182613fe7565b508091505092915050565b6000602082019050818103600083015261499081846148c6565b905092915050565b60006020820190506149ad6000830184614791565b92915050565b6149bc81614146565b82525050565b6000610120820190506149d8600083018c614791565b6149e5602083018b6147a0565b81810360408301526149f7818a6147cf565b9050614a0660608301896147af565b614a1360808301886149b3565b614a2060a08301876144d3565b614a2d60c08301866144d3565b614a3a60e08301856144d3565b614a48610100830184614791565b9a9950505050505050505050565b600081519050919050565b600082825260208201905092915050565b6000819050602082019050919050565b600060e083016000830151614a9a6000860182613fe7565b506020830151614aad6020860182614000565b506040830151614ac06040860182614110565b5060608301518482036060860152614ad8828261406f565b9150506080830151614aed6080860182614167565b5060a0830151614b0060a0860182614167565b5060c0830151614b1360c0860182613fe7565b508091505092915050565b6000614b2a8383614a82565b905092915050565b6000602082019050919050565b6000614b4a82614a56565b614b548185614a61565b935083602082028501614b6685614a72565b8060005b85811015614ba25784840389528151614b838582614b1e565b9450614b8e83614b32565b925060208a01995050600181019050614b6a565b50829750879550505050505092915050565b60006020820190508181036000830152614bce8184614b3f565b905092915050565b60028110614be757614be66140a8565b5b50565b6000819050614bf882614bd6565b919050565b6000614c0882614bea565b9050919050565b614c1881614bfd565b82525050565b600061014082019050614c34600083018d614791565b614c41602083018c614791565b614c4e604083018b6147a0565b614c5b606083018a6149b3565b614c6860808301896147af565b614c7560a0830188614c0f565b614c8260c08301876144d3565b614c8f60e08301866144d3565b614c9d6101008301856144d3565b614cab610120830184614791565b9b9a5050505050505050505050565b60008060408385031215614cd157614cd0613f48565b5b6000614cdf85828601614274565b9250506020614cf085828601613f9b565b9150509250929050565b614d03816148a5565b82525050565b600061010082019050614d1f600083018b614791565b8181036020830152614d31818a6147cf565b9050614d4060408301896147a0565b614d4d60608301886147a0565b614d5a60808301876147a0565b614d6760a0830186614cfa565b614d7460c08301856144d3565b614d8160e0830184614791565b9998505050505050505050565b600080600060608486031215614da757614da6613f48565b5b6000614db58682870161447e565b9350506020614dc686828701614274565b925050604084013567ffffffffffffffff811115614de757614de6613f4d565b5b614df386828701614390565b9150509250925092565b60008060008060008060c08789031215614e1a57614e19613f48565b5b600087013567ffffffffffffffff811115614e3857614e37613f4d565b5b614e4489828a01614390565b9650506020614e5589828a0161447e565b9550506040614e6689828a0161447e565b9450506060614e7789828a0161447e565b9350506080614e8889828a01614274565b92505060a0614e9989828a01613f9b565b9150509295509295509295565b600081519050919050565b600082825260208201905092915050565b6000819050602082019050919050565b600061010083016000830151614eeb6000860182613fe7565b5060208301518482036020860152614f03828261406f565b9150506040830151614f186040860182614000565b506060830151614f2b6060860182614000565b506080830151614f3e6080860182614000565b5060a0830151614f5160a08601826148b7565b5060c0830151614f6460c0860182614167565b5060e0830151614f7760e0860182613fe7565b508091505092915050565b6000614f8e8383614ed2565b905092915050565b6000602082019050919050565b6000614fae82614ea6565b614fb88185614eb1565b935083602082028501614fca85614ec2565b8060005b858110156150065784840389528151614fe78582614f82565b9450614ff283614f96565b925060208a01995050600181019050614fce565b50829750879550505050505092915050565b600060208201905081810360008301526150328184614fa3565b905092915050565b6000806000806080858703121561505457615053613f48565b5b60006150628782880161447e565b945050602061507387828801614274565b935050604061508487828801614274565b925050606061509587828801613f9b565b91505092959194509250565b600081519050919050565b600082825260208201905092915050565b6000819050602082019050919050565b6150d681614bfd565b82525050565b610140820160008201516150f36000850182613fe7565b5060208201516151066020850182613fe7565b5060408201516151196040850182614000565b50606082015161512c6060850182614158565b50608082015161513f6080850182614110565b5060a082015161515260a08501826150cd565b5060c082015161516560c0850182614167565b5060e082015161517860e0850182614167565b5061010082015161518d610100850182614167565b506101208201516151a2610120850182613fe7565b50505050565b60006151b483836150dc565b6101408301905092915050565b6000602082019050919050565b60006151d9826150a1565b6151e381856150ac565b93506151ee836150bd565b8060005b8381101561521f57815161520688826151a8565b9750615211836151c1565b9250506001810190506151f2565b5085935050505092915050565b6000602082019050818103600083015261524681846151ce565b905092915050565b7f4e487b7100000000000000000000000000000000000000000000000000000000600052601160045260246000fd5b600061528882613fdd565b915061529383613fdd565b9250828210156152a6576152a561524e565b5b828203905092915050565b7f4e487b7100000000000000000000000000000000000000000000000000000000600052603260045260246000fd5b7f4e487b7100000000000000000000000000000000000000000000000000000000600052602260045260246000fd5b6000600282049050600182168061532757607f821691505b6020821081141561533b5761533a6152e0565b5b50919050565b600061534c82613fdd565b915060008214156153605761535f61524e565b5b600182039050919050565b6000819050919050565b61538661538182613ff6565b61536b565b82525050565b60008160601b9050919050565b60006153a48261538c565b9050919050565b60006153b682615399565b9050919050565b6153ce6153c982613f72565b6153ab565b82525050565b6000819050919050565b6153ef6153ea82613fdd565b6153d4565b82525050565b60006154018286615375565b60208201915061541182856153bd565b60148201915061542182846153de565b602082019150819050949350505050565b600081905092915050565b60008190508160005260206000209050919050565b6000815461545f8161530f565b6154698186615432565b945060018216600081146154845760018114615495576154c8565b60ff198316865281860193506154c8565b61549e8561543d565b60005b838110156154c0578154818901526001820191506020810190506154a1565b838801955050505b50505092915050565b60006154dd8284615452565b915081905092915050565b60006080820190506154fd60008301876147a0565b61550a60208301866147a0565b61551760408301856147a0565b6155246060830184614791565b95945050505050565b600061553882613fdd565b91507fffffffffffffffffffffffffffffffffffffffffffffffffffffffffffffffff82141561556b5761556a61524e565b5b600182019050919050565b7f596f7520617265206e6f7420616e206f776e6572000000000000000000000000600082015250565b60006155ac6014836147be565b91506155b782615576565b602082019050919050565b600060208201905081810360008301526155db8161559f565b9050919050565b60006155ed8261400f565b6155f78185615432565b935061560781856020860161402b565b80840191505092915050565b600061561f82846155e2565b915081905092915050565b50565b600061563a6000836147be565b91506156458261562a565b600082019050919050565b600061012082019050615666600083018b614791565b615673602083018a6147a0565b81810360408301526156848161562d565b905061569360608301896147af565b6156a060808301886149b3565b6156ad60a08301876144d3565b6156ba60c08301866144d3565b6156c760e08301856144d3565b6156d5610100830184614791565b999850505050505050505056fea26469706673582212206ce2b52a9a464b0f9f08d5ea315062c3db574496a47abe97e6fe86de7253dd6764736f6c634300080a0033",
  "immutableReferences": {},
  "source": "// SPDX-License-Identifier: MIT\r\npragma solidity >=0.8.0 <0.9.0;\r\n\r\nimport \"./UserChain.sol\";\r\nimport \"./SharedChain.sol\";\r\n\r\ncontract ProjectChain is UserChain, SharedChain {\r\n    bytes32 constant PROJECT_HASH_VALUE = \"csd?S@salas;dlA234_D.;s_as\";\r\n    bytes32 constant REQUEST_HASH_VALUE = \"csd?.!?*salas;dlA.;s_as\";\r\n    address _projectInitiator;\r\n\r\n    /**  DATA FOR PROJECT INITIATOR  */\r\n\r\n    mapping(address => Project) public projects;\r\n    uint public projectsCounter = 0;\r\n    Project[] public allProjects;\r\n\r\n    mapping(uint => ProjectRequest) public projectRequests;\r\n    uint public projectRequestsCounter = 0;\r\n    ProjectRequest[] public allProjectRequests;\r\n\r\n    constructor() {\r\n        _projectInitiator = msg.sender;\r\n    }\r\n\r\n    modifier onlyProjectInitiator {\r\n        require(users[_projectInitiator]._role == Roles.ProjectInitiator, \"You don't have the rights for this resources.\");\r\n        require(_projectInitiator == msg.sender, \"You are not a project initiator\");\r\n        _;\r\n    }\r\n\r\n    function createUniqueProjectAddress(bytes32 _text, uint _index) public view returns (address) {\r\n        return address(uint160(uint256(keccak256(abi.encodePacked(_text, _projectInitiator, _index)))));\r\n    }\r\n\r\n    function createProject(bytes32 _name, uint _status, string memory _ipfsFileCID) public {\r\n        address _projectAddress = createUniqueProjectAddress(PROJECT_HASH_VALUE, projectsCounter);\r\n\r\n        projects[_projectAddress]._index = projectsCounter;\r\n        projects[_projectAddress]._name = _name;\r\n        projects[_projectAddress]._status = ProjectStatus(_status);\r\n        projects[_projectAddress]._ipfsFileCID = _ipfsFileCID;\r\n        projects[_projectAddress]._projectAddress = _projectAddress;\r\n        projects[_projectAddress]._userAddress = _projectInitiator;\r\n        projects[_projectAddress]._timestamp = block.timestamp;\r\n\r\n        emit ProjectEvent(\r\n            projectsCounter,\r\n            _name,\r\n            ProjectStatus(_status),\r\n            _ipfsFileCID,\r\n            _projectAddress,\r\n            _projectInitiator,\r\n            block.timestamp\r\n        );\r\n        allProjects.push(Project(\r\n            projectsCounter, _name, ProjectStatus(_status), _ipfsFileCID,\r\n            _projectAddress, _projectInitiator, block.timestamp\r\n        ));\r\n        projectsCounter++;\r\n    }\r\n\r\n    function getProjectInfo(address _address) public view returns (Project memory) {\r\n        return projects[_address];\r\n    }\r\n\r\n    function getAllProjects() public view returns(Project[] memory) {\r\n        return allProjects;\r\n    }\r\n\r\n    function createUniqueProjectRequestAddress(bytes32 _text, uint _index) public view returns (address) {\r\n        return address(uint160(uint256(keccak256(abi.encodePacked(_text, _projectInitiator, _index)))));\r\n    }\r\n\r\n    function createProjectRequest(\r\n        bytes32 _title, uint _status,\r\n        uint _requestStatus, address _projectAddress\r\n    ) public {\r\n        address _projectReqAddress = createUniqueProjectRequestAddress(REQUEST_HASH_VALUE, projectRequestsCounter);\r\n\r\n        projectRequests[projectRequestsCounter]._index = projectRequestsCounter;\r\n        projectRequests[projectRequestsCounter]._title = _title;\r\n        projectRequests[projectRequestsCounter]._comments = '';\r\n        projectRequests[projectRequestsCounter]._status = ProjectStatus(_status);\r\n        projectRequests[projectRequestsCounter]._requestStatus = RequestStatus(_requestStatus);\r\n        projectRequests[projectRequestsCounter]._projectAddress = _projectAddress;\r\n        projectRequests[projectRequestsCounter]._userAddress = _projectInitiator;\r\n        projectRequests[projectRequestsCounter]._timestamp = block.timestamp;\r\n\r\n        filterRequests(projectRequestsCounter, _title, _requestStatus, _status, _projectAddress, _projectReqAddress);\r\n\r\n        emit ProjectRequestEvent(\r\n            projectRequestsCounter,\r\n            _title,\r\n            '',\r\n            ProjectStatus(_status),\r\n            RequestStatus(_requestStatus),\r\n            _projectAddress,\r\n            _projectInitiator,\r\n            _projectReqAddress,\r\n            block.timestamp\r\n        );\r\n        allProjectRequests.push(ProjectRequest(\r\n            projectRequestsCounter, _title, '', ProjectStatus(_status),\r\n            RequestStatus(_requestStatus), _projectAddress, _projectInitiator,\r\n            _projectReqAddress, block.timestamp\r\n        ));\r\n        projectRequestsCounter++;\r\n    }\r\n\r\n    function filterRequests(\r\n        uint _indexProjectRequest,\r\n        bytes32 _title,\r\n        uint _requestStatus,\r\n        uint _projectStatus,\r\n        address _projectAddress,\r\n        address _requestAddress\r\n    ) internal {\r\n        RequestType _requestType;\r\n        if (\r\n            ProjectStatus(_projectStatus) == ProjectStatus.ToApprove ||\r\n            ProjectStatus(_projectStatus) == ProjectStatus.FinalizationCheck ||\r\n            ProjectStatus(_projectStatus) == ProjectStatus.Completed\r\n        ) {\r\n            _requestType = RequestType.SupervisorReq;\r\n        } else if (ProjectStatus(_projectStatus) == ProjectStatus.StartProject) {\r\n            _requestType = RequestType.CompanyReq;\r\n        }\r\n        createRequest(_indexProjectRequest, _title, _requestStatus, _projectStatus, _requestType, _projectAddress, _requestAddress);\r\n    }\r\n\r\n    function getAllProjectRequests() external view returns(ProjectRequest[] memory) {\r\n        return allProjectRequests;\r\n    }\r\n\r\n    function getLastProjectRequest(address _projectAddress) external view returns(ProjectRequest memory) {\r\n        ProjectRequest memory request;\r\n        if (allProjectRequests.length > 0) {\r\n            for (uint index = allProjectRequests.length - 1; index >= 0; index--) {\r\n                if (_projectAddress == allProjectRequests[index]._projectAddress) {\r\n                    request._index = allProjectRequests[index]._index;\r\n                    request._title = allProjectRequests[index]._title;\r\n                    request._comments = allProjectRequests[index]._comments;\r\n                    request._status = allProjectRequests[index]._status;\r\n                    request._requestStatus = allProjectRequests[index]._requestStatus;\r\n                    request._projectAddress = allProjectRequests[index]._projectAddress;\r\n                    request._userAddress = allProjectRequests[index]._userAddress;\r\n                    request._requestAddress = allProjectRequests[index]._requestAddress;\r\n                    request._timestamp = block.timestamp;\r\n                    return request;\r\n                }\r\n            }\r\n        }\r\n        return request;\r\n    }\r\n\r\n\r\n    /**  DATA FOR SUPERVISOR && COMPANY  */\r\n\r\n    mapping(uint => Request) public requests;\r\n    uint public requestsCounter = 0;\r\n    Request[] public allRequests;\r\n\r\n    function createRequest(\r\n        uint _indexProjectRequest,\r\n        bytes32 _title,\r\n        uint _requestStatus,\r\n        uint _projectStatus,\r\n        RequestType _requestType,\r\n        address _projectAddress,\r\n        address _requestAddress\r\n    ) internal {\r\n        requests[requestsCounter]._index = requestsCounter;\r\n        requests[requestsCounter]._indexProjectRequest = _indexProjectRequest;\r\n        requests[requestsCounter]._title = _title;\r\n        requests[requestsCounter]._requestStatus = RequestStatus(_requestStatus);\r\n        requests[requestsCounter]._projectStatus = ProjectStatus(_projectStatus);\r\n        requests[requestsCounter]._requestType = _requestType;\r\n        requests[requestsCounter]._projectAddress = _projectAddress;\r\n        // change to supervisorAddress\r\n        requests[requestsCounter]._userAddress = _projectInitiator;\r\n        requests[requestsCounter]._requestAddress = _requestAddress;\r\n        requests[requestsCounter]._timestamp = block.timestamp;\r\n\r\n        emit RequestEvent(\r\n            requestsCounter,\r\n            _indexProjectRequest,\r\n            _title,\r\n            RequestStatus(_requestStatus),\r\n            ProjectStatus(_projectStatus),\r\n            _requestType, _projectAddress,\r\n            _projectInitiator,\r\n            _requestAddress,\r\n            block.timestamp\r\n        );\r\n        allRequests.push(Request(\r\n            requestsCounter, _indexProjectRequest, _title,  RequestStatus(_requestStatus),\r\n            ProjectStatus(_projectStatus),  _requestType, _projectAddress,\r\n            _projectInitiator, _requestAddress, block.timestamp\r\n        ));\r\n        requestsCounter++;\r\n    }\r\n\r\n    function updateRequest(\r\n        uint _index,\r\n        string memory _comments,\r\n        uint _requestStatus,\r\n        uint _indexProjectRequest,\r\n        uint _projectStatus,\r\n        address _projectAddress\r\n    ) public {\r\n        // Update request status in the Requests Mapping and Struct Array\r\n        requests[_index]._requestStatus = RequestStatus(_requestStatus);\r\n        uint index = requests[_index]._index;\r\n        allRequests[index]._requestStatus = RequestStatus(_requestStatus);\r\n\r\n        // Update project request status in the Project Requests Mapping and Struct Array\r\n        projectRequests[_indexProjectRequest]._comments = _comments;\r\n        projectRequests[_indexProjectRequest]._requestStatus = RequestStatus(_requestStatus);\r\n        uint indexProjectReq = projectRequests[_indexProjectRequest]._index;\r\n        allProjectRequests[indexProjectReq]._comments = _comments;\r\n        allProjectRequests[indexProjectReq]._requestStatus = RequestStatus(_requestStatus);\r\n\r\n        // Update ProjectStatus to the requested status - Porject Mapping and Struct Array\r\n        projects[_projectAddress]._status = ProjectStatus(_projectStatus);\r\n        uint indexProject = projects[_projectAddress]._index;\r\n        allProjects[indexProject]._status = ProjectStatus(_projectStatus);\r\n    }\r\n\r\n    function getAllRequests() public view returns(Request[] memory) {\r\n        return allRequests;\r\n    }\r\n}\r\n",
  "sourcePath": "/mnt/c/Users/Beniamin/source/repos/DissertationProject/contracts/ProjectChain.sol",
  "compiler": {
    "name": "solc",
    "version": "0.8.10+commit.fc410830.Emscripten.clang"
  },
  "schemaVersion": "3.4.3",
  "updatedAt": "2021-11-22T18:09:23.129Z",
  "networkType": "ethereum",
  "devdoc": {
    "kind": "dev",
    "methods": {},
    "version": 1
  },
  "userdoc": {
    "kind": "user",
    "methods": {
      "projects(address)": {
        "notice": "DATA FOR PROJECT INITIATOR  "
      },
      "requests(uint256)": {
        "notice": "DATA FOR SUPERVISOR && COMPANY  "
      }
    },
    "version": 1
  }
}