{
  "contractName": "Project",
  "abi": [
    {
      "inputs": [],
      "stateMutability": "nonpayable",
      "type": "constructor"
    },
    {
      "anonymous": false,
      "inputs": [
        {
          "indexed": false,
          "internalType": "uint256",
          "name": "_indexProject",
          "type": "uint256"
        },
        {
          "indexed": false,
          "internalType": "enum Project.ProjectStatus",
          "name": "_projectStatus",
          "type": "uint8"
        },
        {
          "indexed": false,
          "internalType": "address",
          "name": "_address",
          "type": "address"
        }
      ],
      "name": "CreateProject",
      "type": "event"
    },
    {
      "anonymous": false,
      "inputs": [
        {
          "indexed": false,
          "internalType": "uint256",
          "name": "_indexRequest",
          "type": "uint256"
        },
        {
          "indexed": false,
          "internalType": "enum Project.RequestStatus",
          "name": "_status",
          "type": "uint8"
        },
        {
          "components": [
            {
              "internalType": "uint256",
              "name": "index",
              "type": "uint256"
            },
            {
              "internalType": "bytes32",
              "name": "identifier",
              "type": "bytes32"
            },
            {
              "internalType": "string",
              "name": "description",
              "type": "string"
            },
            {
              "internalType": "enum Project.ProjectStatus",
              "name": "projectStatus",
              "type": "uint8"
            }
          ],
          "indexed": false,
          "internalType": "struct Project.S_Project",
          "name": "_project",
          "type": "tuple"
        },
        {
          "indexed": false,
          "internalType": "enum Project.ProjectStatus",
          "name": "_projectStatus",
          "type": "uint8"
        },
        {
          "indexed": false,
          "internalType": "address",
          "name": "_subjectAddress",
          "type": "address"
        }
      ],
      "name": "UpdateCompanyRequestStatus",
      "type": "event"
    },
    {
      "anonymous": false,
      "inputs": [
        {
          "indexed": false,
          "internalType": "uint256",
          "name": "_indexRequest",
          "type": "uint256"
        },
        {
          "indexed": false,
          "internalType": "enum Project.RequestStatus",
          "name": "_status",
          "type": "uint8"
        },
        {
          "components": [
            {
              "internalType": "uint256",
              "name": "index",
              "type": "uint256"
            },
            {
              "internalType": "bytes32",
              "name": "identifier",
              "type": "bytes32"
            },
            {
              "internalType": "string",
              "name": "description",
              "type": "string"
            },
            {
              "internalType": "enum Project.ProjectStatus",
              "name": "projectStatus",
              "type": "uint8"
            }
          ],
          "indexed": false,
          "internalType": "struct Project.S_Project",
          "name": "_project",
          "type": "tuple"
        },
        {
          "indexed": false,
          "internalType": "enum Project.ProjectStatus",
          "name": "_projectStatus",
          "type": "uint8"
        },
        {
          "indexed": false,
          "internalType": "address",
          "name": "_subjectAddress",
          "type": "address"
        }
      ],
      "name": "UpdateSupervisorRequestStatus",
      "type": "event"
    },
    {
      "anonymous": false,
      "inputs": [
        {
          "indexed": true,
          "internalType": "address",
          "name": "_walletAddress",
          "type": "address"
        },
        {
          "indexed": true,
          "internalType": "string",
          "name": "_username",
          "type": "string"
        },
        {
          "indexed": false,
          "internalType": "string",
          "name": "_email",
          "type": "string"
        },
        {
          "indexed": false,
          "internalType": "string",
          "name": "_firstname",
          "type": "string"
        },
        {
          "indexed": false,
          "internalType": "string",
          "name": "_lastname",
          "type": "string"
        },
        {
          "indexed": true,
          "internalType": "enum User.Roles",
          "name": "_role",
          "type": "uint8"
        }
      ],
      "name": "UserRegistered",
      "type": "event"
    },
    {
      "inputs": [
        {
          "internalType": "uint256",
          "name": "_role",
          "type": "uint256"
        },
        {
          "internalType": "address",
          "name": "_walletAddress",
          "type": "address"
        }
      ],
      "name": "changeUserRole",
      "outputs": [
        {
          "internalType": "string",
          "name": "",
          "type": "string"
        }
      ],
      "stateMutability": "nonpayable",
      "type": "function"
    },
    {
      "inputs": [
        {
          "internalType": "uint256",
          "name": "",
          "type": "uint256"
        }
      ],
      "name": "companyRequests",
      "outputs": [
        {
          "internalType": "uint256",
          "name": "index",
          "type": "uint256"
        },
        {
          "internalType": "string",
          "name": "description",
          "type": "string"
        },
        {
          "internalType": "enum Project.RequestStatus",
          "name": "status",
          "type": "uint8"
        },
        {
          "components": [
            {
              "internalType": "uint256",
              "name": "index",
              "type": "uint256"
            },
            {
              "internalType": "bytes32",
              "name": "identifier",
              "type": "bytes32"
            },
            {
              "internalType": "string",
              "name": "description",
              "type": "string"
            },
            {
              "internalType": "enum Project.ProjectStatus",
              "name": "projectStatus",
              "type": "uint8"
            }
          ],
          "internalType": "struct Project.S_Project",
          "name": "project",
          "type": "tuple"
        },
        {
          "internalType": "address",
          "name": "subjectAddress",
          "type": "address"
        }
      ],
      "stateMutability": "view",
      "type": "function",
      "constant": true
    },
    {
      "inputs": [],
      "name": "getUserAddresses",
      "outputs": [
        {
          "internalType": "address[]",
          "name": "",
          "type": "address[]"
        }
      ],
      "stateMutability": "view",
      "type": "function",
      "constant": true
    },
    {
      "inputs": [
        {
          "internalType": "address",
          "name": "_address",
          "type": "address"
        }
      ],
      "name": "getUserInfo",
      "outputs": [
        {
          "components": [
            {
              "internalType": "string",
              "name": "username",
              "type": "string"
            },
            {
              "internalType": "string",
              "name": "email",
              "type": "string"
            },
            {
              "internalType": "string",
              "name": "firstname",
              "type": "string"
            },
            {
              "internalType": "string",
              "name": "lastname",
              "type": "string"
            },
            {
              "internalType": "enum User.Roles",
              "name": "role",
              "type": "uint8"
            },
            {
              "internalType": "address",
              "name": "walletAddress",
              "type": "address"
            }
          ],
          "internalType": "struct User.S_UserData",
          "name": "",
          "type": "tuple"
        }
      ],
      "stateMutability": "view",
      "type": "function",
      "constant": true
    },
    {
      "inputs": [],
      "name": "owner",
      "outputs": [
        {
          "internalType": "address",
          "name": "",
          "type": "address"
        }
      ],
      "stateMutability": "view",
      "type": "function",
      "constant": true
    },
    {
      "inputs": [
        {
          "internalType": "uint256",
          "name": "",
          "type": "uint256"
        }
      ],
      "name": "projects",
      "outputs": [
        {
          "internalType": "uint256",
          "name": "index",
          "type": "uint256"
        },
        {
          "internalType": "bytes32",
          "name": "identifier",
          "type": "bytes32"
        },
        {
          "internalType": "string",
          "name": "description",
          "type": "string"
        },
        {
          "internalType": "enum Project.ProjectStatus",
          "name": "projectStatus",
          "type": "uint8"
        }
      ],
      "stateMutability": "view",
      "type": "function",
      "constant": true
    },
    {
      "inputs": [
        {
          "internalType": "string",
          "name": "_username",
          "type": "string"
        },
        {
          "internalType": "string",
          "name": "_email",
          "type": "string"
        },
        {
          "internalType": "string",
          "name": "_firstname",
          "type": "string"
        },
        {
          "internalType": "string",
          "name": "_lastname",
          "type": "string"
        },
        {
          "internalType": "uint256",
          "name": "_role",
          "type": "uint256"
        },
        {
          "internalType": "address",
          "name": "_walletAddress",
          "type": "address"
        }
      ],
      "name": "registerUser",
      "outputs": [],
      "stateMutability": "nonpayable",
      "type": "function"
    },
    {
      "inputs": [
        {
          "internalType": "uint256",
          "name": "",
          "type": "uint256"
        }
      ],
      "name": "supervisorRequests",
      "outputs": [
        {
          "internalType": "uint256",
          "name": "index",
          "type": "uint256"
        },
        {
          "internalType": "string",
          "name": "description",
          "type": "string"
        },
        {
          "internalType": "enum Project.RequestStatus",
          "name": "status",
          "type": "uint8"
        },
        {
          "components": [
            {
              "internalType": "uint256",
              "name": "index",
              "type": "uint256"
            },
            {
              "internalType": "bytes32",
              "name": "identifier",
              "type": "bytes32"
            },
            {
              "internalType": "string",
              "name": "description",
              "type": "string"
            },
            {
              "internalType": "enum Project.ProjectStatus",
              "name": "projectStatus",
              "type": "uint8"
            }
          ],
          "internalType": "struct Project.S_Project",
          "name": "project",
          "type": "tuple"
        },
        {
          "internalType": "address",
          "name": "subjectAddress",
          "type": "address"
        }
      ],
      "stateMutability": "view",
      "type": "function",
      "constant": true
    },
    {
      "inputs": [
        {
          "internalType": "uint256",
          "name": "",
          "type": "uint256"
        }
      ],
      "name": "userAddresses",
      "outputs": [
        {
          "internalType": "address",
          "name": "",
          "type": "address"
        }
      ],
      "stateMutability": "view",
      "type": "function",
      "constant": true
    },
    {
      "inputs": [
        {
          "internalType": "address",
          "name": "",
          "type": "address"
        }
      ],
      "name": "userInfo",
      "outputs": [
        {
          "internalType": "string",
          "name": "username",
          "type": "string"
        },
        {
          "internalType": "string",
          "name": "email",
          "type": "string"
        },
        {
          "internalType": "string",
          "name": "firstname",
          "type": "string"
        },
        {
          "internalType": "string",
          "name": "lastname",
          "type": "string"
        },
        {
          "internalType": "enum User.Roles",
          "name": "role",
          "type": "uint8"
        },
        {
          "internalType": "address",
          "name": "walletAddress",
          "type": "address"
        }
      ],
      "stateMutability": "view",
      "type": "function",
      "constant": true
    },
    {
      "inputs": [],
      "name": "usersCount",
      "outputs": [
        {
          "internalType": "uint256",
          "name": "",
          "type": "uint256"
        }
      ],
      "stateMutability": "view",
      "type": "function",
      "constant": true
    },
    {
      "inputs": [
        {
          "internalType": "uint256",
          "name": "_index",
          "type": "uint256"
        },
        {
          "internalType": "string",
          "name": "_description",
          "type": "string"
        },
        {
          "internalType": "enum Project.ProjectStatus",
          "name": "_status",
          "type": "uint8"
        },
        {
          "internalType": "string",
          "name": "_hashStringValue",
          "type": "string"
        }
      ],
      "name": "createProject",
      "outputs": [],
      "stateMutability": "nonpayable",
      "type": "function"
    },
    {
      "inputs": [
        {
          "internalType": "string",
          "name": "_text",
          "type": "string"
        },
        {
          "internalType": "address",
          "name": "_addr",
          "type": "address"
        }
      ],
      "name": "createUniqueIdentifier",
      "outputs": [
        {
          "internalType": "bytes32",
          "name": "",
          "type": "bytes32"
        }
      ],
      "stateMutability": "pure",
      "type": "function",
      "constant": true
    },
    {
      "inputs": [
        {
          "internalType": "string",
          "name": "_description",
          "type": "string"
        },
        {
          "components": [
            {
              "internalType": "uint256",
              "name": "index",
              "type": "uint256"
            },
            {
              "internalType": "bytes32",
              "name": "identifier",
              "type": "bytes32"
            },
            {
              "internalType": "string",
              "name": "description",
              "type": "string"
            },
            {
              "internalType": "enum Project.ProjectStatus",
              "name": "projectStatus",
              "type": "uint8"
            }
          ],
          "internalType": "struct Project.S_Project",
          "name": "_project",
          "type": "tuple"
        },
        {
          "internalType": "address",
          "name": "_subjectAddress",
          "type": "address"
        }
      ],
      "name": "requestProjectApprovalFromSupervisor",
      "outputs": [],
      "stateMutability": "nonpayable",
      "type": "function"
    },
    {
      "inputs": [
        {
          "internalType": "string",
          "name": "_description",
          "type": "string"
        },
        {
          "components": [
            {
              "internalType": "uint256",
              "name": "index",
              "type": "uint256"
            },
            {
              "internalType": "bytes32",
              "name": "identifier",
              "type": "bytes32"
            },
            {
              "internalType": "string",
              "name": "description",
              "type": "string"
            },
            {
              "internalType": "enum Project.ProjectStatus",
              "name": "projectStatus",
              "type": "uint8"
            }
          ],
          "internalType": "struct Project.S_Project",
          "name": "_project",
          "type": "tuple"
        },
        {
          "internalType": "address",
          "name": "_subjectAddress",
          "type": "address"
        }
      ],
      "name": "requestProjectCompleteFromSupervisor",
      "outputs": [],
      "stateMutability": "nonpayable",
      "type": "function"
    },
    {
      "inputs": [
        {
          "internalType": "string",
          "name": "_description",
          "type": "string"
        },
        {
          "components": [
            {
              "internalType": "uint256",
              "name": "index",
              "type": "uint256"
            },
            {
              "internalType": "bytes32",
              "name": "identifier",
              "type": "bytes32"
            },
            {
              "internalType": "string",
              "name": "description",
              "type": "string"
            },
            {
              "internalType": "enum Project.ProjectStatus",
              "name": "projectStatus",
              "type": "uint8"
            }
          ],
          "internalType": "struct Project.S_Project",
          "name": "_project",
          "type": "tuple"
        },
        {
          "internalType": "address",
          "name": "_subjectAddress",
          "type": "address"
        }
      ],
      "name": "requestStartProjectToCompanyBuilder",
      "outputs": [],
      "stateMutability": "nonpayable",
      "type": "function"
    }
  ],
  "bytecode": "0x6080604052600060025534801561001557600080fd5b5033600160006101000a81548173ffffffffffffffffffffffffffffffffffffffff021916908373ffffffffffffffffffffffffffffffffffffffff16021790555033600460006101000a81548173ffffffffffffffffffffffffffffffffffffffff021916908373ffffffffffffffffffffffffffffffffffffffff160217905550612ce5806100a76000396000f3fe608060405234801561001057600080fd5b50600436106101005760003560e01c80638c86a1d711610097578063a591efde11610066578063a591efde146102f1578063afb6da0e1461030f578063b51255991461032b578063d40d4a801461034757610100565b80638c86a1d7146102535780638da5cb5b1461028757806391009786146102a5578063911c29a6146102d557610100565b80635502fc65116100d35780635502fc65146101b95780636132844f146101d55780636386c1c7146102055780636ba13a821461023557610100565b8063065ea2d314610105578063107046bd146101215780631959a00214610154578063502c9bd514610189575b600080fd5b61011f600480360381019061011a9190611dbd565b61037b565b005b61013b60048036038101906101369190611e5c565b61048e565b60405161014b9493929190611fb0565b60405180910390f35b61016e6004803603810190610169919061205a565b610553565b604051610180969594939291906120de565b60405180910390f35b6101a3600480360381019061019e9190611e5c565b6107dc565b6040516101b0919061215b565b60405180910390f35b6101d360048036038101906101ce9190612240565b61081b565b005b6101ef60048036038101906101ea91906122cb565b6109f5565b6040516101fc9190612327565b60405180910390f35b61021f600480360381019061021a919061205a565b610a28565b60405161022c9190612448565b60405180910390f35b61023d610d59565b60405161024a919061246a565b60405180910390f35b61026d60048036038101906102689190611e5c565b610d5f565b60405161027e95949392919061255d565b60405180910390f35b61028f610f35565b60405161029c919061215b565b60405180910390f35b6102bf60048036038101906102ba91906125be565b610f5b565b6040516102cc91906125fe565b60405180910390f35b6102ef60048036038101906102ea9190612620565b6110a6565b005b6102f96114ef565b60405161030691906127cc565b60405180910390f35b61032960048036038101906103249190612240565b61157d565b005b61034560048036038101906103409190612240565b611757565b005b610361600480360381019061035c9190611e5c565b611931565b60405161037295949392919061255d565b60405180910390f35b60006103888260006109f5565b9050846005600060085481526020019081526020016000206000018190555080600560006008548152602001908152602001600020600101819055508360056000600854815260200190815260200160002060020190805190602001906103f0929190611b07565b508260056000600854815260200190815260200160002060030160006101000a81548160ff0219169083600581111561042c5761042b611f39565b5b02179055507fa33c40728c332bcc45ac23baebf405684a95db2bcea19967f32f1c59384c0e88600854600080604051610467939291906127ee565b60405180910390a16008600081548092919061048290612854565b91905055505050505050565b60056020528060005260406000206000915090508060000154908060010154908060020180546104bd906128cc565b80601f01602080910402602001604051908101604052809291908181526020018280546104e9906128cc565b80156105365780601f1061050b57610100808354040283529160200191610536565b820191906000526020600020905b81548152906001019060200180831161051957829003601f168201915b5050505050908060030160009054906101000a900460ff16905084565b6000602052806000526040600020600091509050806000018054610576906128cc565b80601f01602080910402602001604051908101604052809291908181526020018280546105a2906128cc565b80156105ef5780601f106105c4576101008083540402835291602001916105ef565b820191906000526020600020905b8154815290600101906020018083116105d257829003601f168201915b505050505090806001018054610604906128cc565b80601f0160208091040260200160405190810160405280929190818152602001828054610630906128cc565b801561067d5780601f106106525761010080835404028352916020019161067d565b820191906000526020600020905b81548152906001019060200180831161066057829003601f168201915b505050505090806002018054610692906128cc565b80601f01602080910402602001604051908101604052809291908181526020018280546106be906128cc565b801561070b5780601f106106e05761010080835404028352916020019161070b565b820191906000526020600020905b8154815290600101906020018083116106ee57829003601f168201915b505050505090806003018054610720906128cc565b80601f016020809104026020016040519081016040528092919081815260200182805461074c906128cc565b80156107995780601f1061076e57610100808354040283529160200191610799565b820191906000526020600020905b81548152906001019060200180831161077c57829003601f168201915b5050505050908060040160009054906101000a900460ff16908060040160019054906101000a900473ffffffffffffffffffffffffffffffffffffffff16905086565b600381815481106107ec57600080fd5b906000526020600020016000915054906101000a900473ffffffffffffffffffffffffffffffffffffffff1681565b6001600581111561082f5761082e611f39565b5b8260600151600581111561084657610845611f39565b5b14610886576040517f08c379a000000000000000000000000000000000000000000000000000000000815260040161087d90612970565b60405180910390fd5b60006006600060095481526020019081526020016000209050838160010190805190602001906108b7929190611b07565b5060008160020160006101000a81548160ff021916908360018111156108e0576108df611f39565b5b021790555082816003016000820151816000015560208201518160010155604082015181600201908051906020019061091a929190611b07565b5060608201518160030160006101000a81548160ff0219169083600581111561094657610945611f39565b5b0217905550905050818160070160006101000a81548173ffffffffffffffffffffffffffffffffffffffff021916908373ffffffffffffffffffffffffffffffffffffffff1602179055507f7404f36b7a730bc20c8cc7e0e75c80d8d9af6bc8bca29829d01437c8f27e64156009546000858660600151866040516109cf959493929190612990565b60405180910390a1600960008154809291906109ea90612854565b919050555050505050565b60008282604051602001610a0a929190612a6e565b60405160208183030381529060405280519060200120905092915050565b610a30611b8d565b6000808373ffffffffffffffffffffffffffffffffffffffff1673ffffffffffffffffffffffffffffffffffffffff1681526020019081526020016000206040518060c0016040529081600082018054610a89906128cc565b80601f0160208091040260200160405190810160405280929190818152602001828054610ab5906128cc565b8015610b025780601f10610ad757610100808354040283529160200191610b02565b820191906000526020600020905b815481529060010190602001808311610ae557829003601f168201915b50505050508152602001600182018054610b1b906128cc565b80601f0160208091040260200160405190810160405280929190818152602001828054610b47906128cc565b8015610b945780601f10610b6957610100808354040283529160200191610b94565b820191906000526020600020905b815481529060010190602001808311610b7757829003601f168201915b50505050508152602001600282018054610bad906128cc565b80601f0160208091040260200160405190810160405280929190818152602001828054610bd9906128cc565b8015610c265780601f10610bfb57610100808354040283529160200191610c26565b820191906000526020600020905b815481529060010190602001808311610c0957829003601f168201915b50505050508152602001600382018054610c3f906128cc565b80601f0160208091040260200160405190810160405280929190818152602001828054610c6b906128cc565b8015610cb85780601f10610c8d57610100808354040283529160200191610cb8565b820191906000526020600020905b815481529060010190602001808311610c9b57829003601f168201915b505050505081526020016004820160009054906101000a900460ff166003811115610ce657610ce5611f39565b5b6003811115610cf857610cf7611f39565b5b81526020016004820160019054906101000a900473ffffffffffffffffffffffffffffffffffffffff1673ffffffffffffffffffffffffffffffffffffffff1673ffffffffffffffffffffffffffffffffffffffff16815250509050919050565b60025481565b6007602052806000526040600020600091509050806000015490806001018054610d88906128cc565b80601f0160208091040260200160405190810160405280929190818152602001828054610db4906128cc565b8015610e015780601f10610dd657610100808354040283529160200191610e01565b820191906000526020600020905b815481529060010190602001808311610de457829003601f168201915b5050505050908060020160009054906101000a900460ff1690806003016040518060800160405290816000820154815260200160018201548152602001600282018054610e4d906128cc565b80601f0160208091040260200160405190810160405280929190818152602001828054610e79906128cc565b8015610ec65780601f10610e9b57610100808354040283529160200191610ec6565b820191906000526020600020905b815481529060010190602001808311610ea957829003601f168201915b505050505081526020016003820160009054906101000a900460ff166005811115610ef457610ef3611f39565b5b6005811115610f0657610f05611f39565b5b81525050908060070160009054906101000a900473ffffffffffffffffffffffffffffffffffffffff16905085565b600160009054906101000a900473ffffffffffffffffffffffffffffffffffffffff1681565b60603373ffffffffffffffffffffffffffffffffffffffff16600160009054906101000a900473ffffffffffffffffffffffffffffffffffffffff1673ffffffffffffffffffffffffffffffffffffffff1614610fed576040517f08c379a0000000000000000000000000000000000000000000000000000000008152600401610fe490612ae2565b60405180910390fd5b82600381111561100057610fff611f39565b5b6000808473ffffffffffffffffffffffffffffffffffffffff1673ffffffffffffffffffffffffffffffffffffffff16815260200190815260200160002060040160006101000a81548160ff0219169083600381111561106357611062611f39565b5b02179055506040518060400160405280600d81526020017f526f6c6520557064617465642100000000000000000000000000000000000000815250905092915050565b3373ffffffffffffffffffffffffffffffffffffffff16600160009054906101000a900473ffffffffffffffffffffffffffffffffffffffff1673ffffffffffffffffffffffffffffffffffffffff1614611136576040517f08c379a000000000000000000000000000000000000000000000000000000000815260040161112d90612ae2565b60405180910390fd5b856000808373ffffffffffffffffffffffffffffffffffffffff1673ffffffffffffffffffffffffffffffffffffffff168152602001908152602001600020600001908051906020019061118b929190611b07565b50856000808373ffffffffffffffffffffffffffffffffffffffff1673ffffffffffffffffffffffffffffffffffffffff16815260200190815260200160002060000190805190602001906111e1929190611b07565b50846000808373ffffffffffffffffffffffffffffffffffffffff1673ffffffffffffffffffffffffffffffffffffffff1681526020019081526020016000206001019080519060200190611237929190611b07565b50836000808373ffffffffffffffffffffffffffffffffffffffff1673ffffffffffffffffffffffffffffffffffffffff168152602001908152602001600020600201908051906020019061128d929190611b07565b50826000808373ffffffffffffffffffffffffffffffffffffffff1673ffffffffffffffffffffffffffffffffffffffff16815260200190815260200160002060030190805190602001906112e3929190611b07565b508160038111156112f7576112f6611f39565b5b6000808373ffffffffffffffffffffffffffffffffffffffff1673ffffffffffffffffffffffffffffffffffffffff16815260200190815260200160002060040160006101000a81548160ff0219169083600381111561135a57611359611f39565b5b0217905550806000808373ffffffffffffffffffffffffffffffffffffffff1673ffffffffffffffffffffffffffffffffffffffff16815260200190815260200160002060040160016101000a81548173ffffffffffffffffffffffffffffffffffffffff021916908373ffffffffffffffffffffffffffffffffffffffff1602179055508160038111156113f2576113f1611f39565b5b600381111561140457611403611f39565b5b866040516114129190612b02565b60405180910390208273ffffffffffffffffffffffffffffffffffffffff167fddb5d1667467713eb503e7e133811c91a231cb6b63f11930889c6004f36c35ee88888860405161146493929190612b19565b60405180910390a46003819080600181540180825580915050600190039060005260206000200160009091909190916101000a81548173ffffffffffffffffffffffffffffffffffffffff021916908373ffffffffffffffffffffffffffffffffffffffff160217905550600260008154809291906114e290612854565b9190505550505050505050565b6060600380548060200260200160405190810160405280929190818152602001828054801561157357602002820191906000526020600020905b8160009054906101000a900473ffffffffffffffffffffffffffffffffffffffff1673ffffffffffffffffffffffffffffffffffffffff1681526020019060010190808311611529575b5050505050905090565b6000600581111561159157611590611f39565b5b826060015160058111156115a8576115a7611f39565b5b146115e8576040517f08c379a00000000000000000000000000000000000000000000000000000000081526004016115df90612bd7565b60405180910390fd5b600060076000600a548152602001908152602001600020905083816001019080519060200190611619929190611b07565b5060008160020160006101000a81548160ff0219169083600181111561164257611641611f39565b5b021790555082816003016000820151816000015560208201518160010155604082015181600201908051906020019061167c929190611b07565b5060608201518160030160006101000a81548160ff021916908360058111156116a8576116a7611f39565b5b0217905550905050818160070160006101000a81548173ffffffffffffffffffffffffffffffffffffffff021916908373ffffffffffffffffffffffffffffffffffffffff1602179055507fea116f66bfca993e06ec3531e54d6fdd056bed479a873a351b5ff4c23124595b600a54600085866060015186604051611731959493929190612990565b60405180910390a1600a600081548092919061174c90612854565b919050555050505050565b6004600581111561176b5761176a611f39565b5b8260600151600581111561178257611781611f39565b5b146117c2576040517f08c379a00000000000000000000000000000000000000000000000000000000081526004016117b990612c8f565b60405180910390fd5b600060076000600a5481526020019081526020016000209050838160010190805190602001906117f3929190611b07565b5060008160020160006101000a81548160ff0219169083600181111561181c5761181b611f39565b5b0217905550828160030160008201518160000155602082015181600101556040820151816002019080519060200190611856929190611b07565b5060608201518160030160006101000a81548160ff0219169083600581111561188257611881611f39565b5b0217905550905050818160070160006101000a81548173ffffffffffffffffffffffffffffffffffffffff021916908373ffffffffffffffffffffffffffffffffffffffff1602179055507fea116f66bfca993e06ec3531e54d6fdd056bed479a873a351b5ff4c23124595b600a5460008586606001518660405161190b959493929190612990565b60405180910390a1600a600081548092919061192690612854565b919050555050505050565b600660205280600052604060002060009150905080600001549080600101805461195a906128cc565b80601f0160208091040260200160405190810160405280929190818152602001828054611986906128cc565b80156119d35780601f106119a8576101008083540402835291602001916119d3565b820191906000526020600020905b8154815290600101906020018083116119b657829003601f168201915b5050505050908060020160009054906101000a900460ff1690806003016040518060800160405290816000820154815260200160018201548152602001600282018054611a1f906128cc565b80601f0160208091040260200160405190810160405280929190818152602001828054611a4b906128cc565b8015611a985780601f10611a6d57610100808354040283529160200191611a98565b820191906000526020600020905b815481529060010190602001808311611a7b57829003601f168201915b505050505081526020016003820160009054906101000a900460ff166005811115611ac657611ac5611f39565b5b6005811115611ad857611ad7611f39565b5b81525050908060070160009054906101000a900473ffffffffffffffffffffffffffffffffffffffff16905085565b828054611b13906128cc565b90600052602060002090601f016020900481019282611b355760008555611b7c565b82601f10611b4e57805160ff1916838001178555611b7c565b82800160010185558215611b7c579182015b82811115611b7b578251825591602001919060010190611b60565b5b509050611b899190611beb565b5090565b6040518060c001604052806060815260200160608152602001606081526020016060815260200160006003811115611bc857611bc7611f39565b5b8152602001600073ffffffffffffffffffffffffffffffffffffffff1681525090565b5b80821115611c04576000816000905550600101611bec565b5090565b6000604051905090565b600080fd5b600080fd5b6000819050919050565b611c2f81611c1c565b8114611c3a57600080fd5b50565b600081359050611c4c81611c26565b92915050565b600080fd5b600080fd5b6000601f19601f8301169050919050565b7f4e487b7100000000000000000000000000000000000000000000000000000000600052604160045260246000fd5b611ca582611c5c565b810181811067ffffffffffffffff82111715611cc457611cc3611c6d565b5b80604052505050565b6000611cd7611c08565b9050611ce38282611c9c565b919050565b600067ffffffffffffffff821115611d0357611d02611c6d565b5b611d0c82611c5c565b9050602081019050919050565b82818337600083830152505050565b6000611d3b611d3684611ce8565b611ccd565b905082815260208101848484011115611d5757611d56611c57565b5b611d62848285611d19565b509392505050565b600082601f830112611d7f57611d7e611c52565b5b8135611d8f848260208601611d28565b91505092915050565b60068110611da557600080fd5b50565b600081359050611db781611d98565b92915050565b60008060008060808587031215611dd757611dd6611c12565b5b6000611de587828801611c3d565b945050602085013567ffffffffffffffff811115611e0657611e05611c17565b5b611e1287828801611d6a565b9350506040611e2387828801611da8565b925050606085013567ffffffffffffffff811115611e4457611e43611c17565b5b611e5087828801611d6a565b91505092959194509250565b600060208284031215611e7257611e71611c12565b5b6000611e8084828501611c3d565b91505092915050565b611e9281611c1c565b82525050565b6000819050919050565b611eab81611e98565b82525050565b600081519050919050565b600082825260208201905092915050565b60005b83811015611eeb578082015181840152602081019050611ed0565b83811115611efa576000848401525b50505050565b6000611f0b82611eb1565b611f158185611ebc565b9350611f25818560208601611ecd565b611f2e81611c5c565b840191505092915050565b7f4e487b7100000000000000000000000000000000000000000000000000000000600052602160045260246000fd5b60068110611f7957611f78611f39565b5b50565b6000819050611f8a82611f68565b919050565b6000611f9a82611f7c565b9050919050565b611faa81611f8f565b82525050565b6000608082019050611fc56000830187611e89565b611fd26020830186611ea2565b8181036040830152611fe48185611f00565b9050611ff36060830184611fa1565b95945050505050565b600073ffffffffffffffffffffffffffffffffffffffff82169050919050565b600061202782611ffc565b9050919050565b6120378161201c565b811461204257600080fd5b50565b6000813590506120548161202e565b92915050565b6000602082840312156120705761206f611c12565b5b600061207e84828501612045565b91505092915050565b6004811061209857612097611f39565b5b50565b60008190506120a982612087565b919050565b60006120b98261209b565b9050919050565b6120c9816120ae565b82525050565b6120d88161201c565b82525050565b600060c08201905081810360008301526120f88189611f00565b9050818103602083015261210c8188611f00565b905081810360408301526121208187611f00565b905081810360608301526121348186611f00565b905061214360808301856120c0565b61215060a08301846120cf565b979650505050505050565b600060208201905061217060008301846120cf565b92915050565b600080fd5b600080fd5b61218981611e98565b811461219457600080fd5b50565b6000813590506121a681612180565b92915050565b6000608082840312156121c2576121c1612176565b5b6121cc6080611ccd565b905060006121dc84828501611c3d565b60008301525060206121f084828501612197565b602083015250604082013567ffffffffffffffff8111156122145761221361217b565b5b61222084828501611d6a565b604083015250606061223484828501611da8565b60608301525092915050565b60008060006060848603121561225957612258611c12565b5b600084013567ffffffffffffffff81111561227757612276611c17565b5b61228386828701611d6a565b935050602084013567ffffffffffffffff8111156122a4576122a3611c17565b5b6122b0868287016121ac565b92505060406122c186828701612045565b9150509250925092565b600080604083850312156122e2576122e1611c12565b5b600083013567ffffffffffffffff811115612300576122ff611c17565b5b61230c85828601611d6a565b925050602061231d85828601612045565b9150509250929050565b600060208201905061233c6000830184611ea2565b92915050565b600082825260208201905092915050565b600061235e82611eb1565b6123688185612342565b9350612378818560208601611ecd565b61238181611c5c565b840191505092915050565b612395816120ae565b82525050565b6123a48161201c565b82525050565b600060c08301600083015184820360008601526123c78282612353565b915050602083015184820360208601526123e18282612353565b915050604083015184820360408601526123fb8282612353565b915050606083015184820360608601526124158282612353565b915050608083015161242a608086018261238c565b5060a083015161243d60a086018261239b565b508091505092915050565b6000602082019050818103600083015261246281846123aa565b905092915050565b600060208201905061247f6000830184611e89565b92915050565b6002811061249657612495611f39565b5b50565b60008190506124a782612485565b919050565b60006124b782612499565b9050919050565b6124c7816124ac565b82525050565b6124d681611c1c565b82525050565b6124e581611e98565b82525050565b6124f481611f8f565b82525050565b600060808301600083015161251260008601826124cd565b50602083015161252560208601826124dc565b506040830151848203604086015261253d8282612353565b915050606083015161255260608601826124eb565b508091505092915050565b600060a0820190506125726000830188611e89565b81810360208301526125848187611f00565b905061259360408301866124be565b81810360608301526125a581856124fa565b90506125b460808301846120cf565b9695505050505050565b600080604083850312156125d5576125d4611c12565b5b60006125e385828601611c3d565b92505060206125f485828601612045565b9150509250929050565b600060208201905081810360008301526126188184611f00565b905092915050565b60008060008060008060c0878903121561263d5761263c611c12565b5b600087013567ffffffffffffffff81111561265b5761265a611c17565b5b61266789828a01611d6a565b965050602087013567ffffffffffffffff81111561268857612687611c17565b5b61269489828a01611d6a565b955050604087013567ffffffffffffffff8111156126b5576126b4611c17565b5b6126c189828a01611d6a565b945050606087013567ffffffffffffffff8111156126e2576126e1611c17565b5b6126ee89828a01611d6a565b93505060806126ff89828a01611c3d565b92505060a061271089828a01612045565b9150509295509295509295565b600081519050919050565b600082825260208201905092915050565b6000819050602082019050919050565b6000612755838361239b565b60208301905092915050565b6000602082019050919050565b60006127798261271d565b6127838185612728565b935061278e83612739565b8060005b838110156127bf5781516127a68882612749565b97506127b183612761565b925050600181019050612792565b5085935050505092915050565b600060208201905081810360008301526127e6818461276e565b905092915050565b60006060820190506128036000830186611e89565b6128106020830185611fa1565b61281d60408301846120cf565b949350505050565b7f4e487b7100000000000000000000000000000000000000000000000000000000600052601160045260246000fd5b600061285f82611c1c565b91507fffffffffffffffffffffffffffffffffffffffffffffffffffffffffffffffff82141561289257612891612825565b5b600182019050919050565b7f4e487b7100000000000000000000000000000000000000000000000000000000600052602260045260246000fd5b600060028204905060018216806128e457607f821691505b602082108114156128f8576128f761289d565b5b50919050565b7f5468652070726f6a656374206973206e6f7420617070726f7665642c2074686560008201527f206f7065726174696f6e2063616e6e6f7420626520646f6e652e000000000000602082015250565b600061295a603a83611ebc565b9150612965826128fe565b604082019050919050565b600060208201905081810360008301526129898161294d565b9050919050565b600060a0820190506129a56000830188611e89565b6129b260208301876124be565b81810360408301526129c481866124fa565b90506129d36060830185611fa1565b6129e060808301846120cf565b9695505050505050565b600081905092915050565b6000612a0082611eb1565b612a0a81856129ea565b9350612a1a818560208601611ecd565b80840191505092915050565b60008160601b9050919050565b6000612a3e82612a26565b9050919050565b6000612a5082612a33565b9050919050565b612a68612a638261201c565b612a45565b82525050565b6000612a7a82856129f5565b9150612a868284612a57565b6014820191508190509392505050565b7f596f7520617265206e6f7420616e206f776e6572000000000000000000000000600082015250565b6000612acc601483611ebc565b9150612ad782612a96565b602082019050919050565b60006020820190508181036000830152612afb81612abf565b9050919050565b6000612b0e82846129f5565b915081905092915050565b60006060820190508181036000830152612b338186611f00565b90508181036020830152612b478185611f00565b90508181036040830152612b5b8184611f00565b9050949350505050565b7f5468652070726f6a656374206973206e6f7420637265617465642c207468652060008201527f6f7065726174696f6e2063616e6e6f7420626520646f6e652e00000000000000602082015250565b6000612bc1603983611ebc565b9150612bcc82612b65565b604082019050919050565b60006020820190508181036000830152612bf081612bb4565b9050919050565b7f5468652070726f6a656374206973206e6f7420696e2074686520274265666f7260008201527f6546696e616c697a6174696f6e436865636b27207374617475732c207468652060208201527f6f7065726174696f6e2063616e6e6f7420626520646f6e652e00000000000000604082015250565b6000612c79605983611ebc565b9150612c8482612bf7565b606082019050919050565b60006020820190508181036000830152612ca881612c6c565b905091905056fea2646970667358221220547899d960fa7f6854c9e65df7a838204c33fadd9bb36a37c209985ab19aa36c64736f6c634300080a0033",
  "immutableReferences": {},
  "source": "// SPDX-License-Identifier: MIT\r\npragma solidity >=0.8.0 <0.9.0;\r\n\r\nimport \"./User.sol\";\r\n\r\ncontract Project is User {\r\n\r\n    address projectInitiator;\r\n\r\n    mapping(uint => S_Project) public projects;\r\n    mapping(uint => S_Request) public companyRequests;\r\n    mapping(uint => S_Request) public supervisorRequests;\r\n\r\n    uint indexProject;\r\n    uint indexCompanyRequest;\r\n    uint indexSupervisorRequest;\r\n\r\n    struct S_Project {\r\n        uint index;\r\n        bytes32 identifier;\r\n        string description;\r\n        ProjectStatus projectStatus;\r\n    }\r\n\r\n    struct S_Request {\r\n        uint index;\r\n        string description;\r\n        RequestStatus status;\r\n        S_Project project;\r\n        address subjectAddress;\r\n    }\r\n\r\n    enum RequestStatus { Unverified, Verified }\r\n    enum ProjectStatus { Created, Approved, Rejected, OnGoing, BeforeFinalizationCheck, Completed }\r\n\r\n    event CreateProject(uint _indexProject, Project.ProjectStatus _projectStatus, address _address);\r\n    event UpdateSupervisorRequestStatus(uint _indexRequest, RequestStatus _status, S_Project _project, ProjectStatus _projectStatus, address _subjectAddress);\r\n    event UpdateCompanyRequestStatus(uint _indexRequest, RequestStatus _status, S_Project _project, ProjectStatus _projectStatus, address _subjectAddress);\r\n\r\n    constructor() {\r\n        projectInitiator = msg.sender;\r\n    }\r\n\r\n    modifier onlyProjectInitiator {\r\n        //require(userInfo[projectInitiator].role == Roles.ProjectInitiator, \"You don't have the rights for this resources.\");\r\n        //require(projectInitiator == msg.sender, \"You are not a project initiator\");\r\n        _;\r\n    }\r\n\r\n    function createProject(uint _index, string memory _description, ProjectStatus _status, string memory _hashStringValue) public onlyProjectInitiator {\r\n        bytes32 _identifier = createUniqueIdentifier(_hashStringValue, address(0));\r\n\r\n        projects[indexProject].index = _index;\r\n        projects[indexProject].identifier = _identifier;\r\n        projects[indexProject].description = _description;\r\n        projects[indexProject].projectStatus = _status;\r\n        emit CreateProject(indexProject, ProjectStatus.Created, address(0));\r\n        indexProject++;\r\n    }\r\n\r\n    function createUniqueIdentifier(string memory _text, address _addr) public pure returns (bytes32)  {\r\n        return keccak256(abi.encodePacked(_text, _addr));\r\n    }\r\n\r\n    function requestProjectApprovalFromSupervisor(string memory _description, S_Project memory _project, address _subjectAddress) public onlyProjectInitiator {\r\n        require(_project.projectStatus == ProjectStatus.Created, \"The project is not created, the operation cannot be done.\");\r\n\r\n        S_Request storage request = supervisorRequests[indexSupervisorRequest];\r\n        request.description = _description;\r\n        request.status = RequestStatus.Unverified;\r\n        request.project = _project;\r\n        request.subjectAddress = _subjectAddress;\r\n\r\n        emit UpdateSupervisorRequestStatus(indexSupervisorRequest, RequestStatus.Unverified, _project, _project.projectStatus, _subjectAddress);\r\n        indexSupervisorRequest++;\r\n    }\r\n\r\n    function requestProjectCompleteFromSupervisor(string memory _description, S_Project memory _project, address _subjectAddress) public onlyProjectInitiator {\r\n        require(\r\n            _project.projectStatus == ProjectStatus.BeforeFinalizationCheck,\r\n            \"The project is not in the 'BeforeFinalizationCheck' status, the operation cannot be done.\"\r\n        );\r\n\r\n        S_Request storage request = supervisorRequests[indexSupervisorRequest];\r\n        request.description = _description;\r\n        request.status = RequestStatus.Unverified;\r\n        request.project = _project;\r\n        request.subjectAddress = _subjectAddress;\r\n\r\n        emit UpdateSupervisorRequestStatus(indexSupervisorRequest, RequestStatus.Unverified, _project, _project.projectStatus, _subjectAddress);\r\n        indexSupervisorRequest++;\r\n    }\r\n\r\n    function requestStartProjectToCompanyBuilder(string memory _description, S_Project memory _project, address _subjectAddress) public onlyProjectInitiator {\r\n        require(_project.projectStatus == ProjectStatus.Approved, \"The project is not approved, the operation cannot be done.\");\r\n\r\n        S_Request storage request = companyRequests[indexCompanyRequest];\r\n        request.description = _description;\r\n        request.status = RequestStatus.Unverified;\r\n        request.project = _project;\r\n        request.subjectAddress = _subjectAddress;\r\n\r\n        emit UpdateCompanyRequestStatus(indexCompanyRequest, RequestStatus.Unverified, _project, _project.projectStatus, _subjectAddress);\r\n        indexCompanyRequest++;\r\n    }\r\n}",
  "sourcePath": "/mnt/c/users/beniamin/source/repos/dissertationproject/contracts/Project.sol",
  "compiler": {
    "name": "solc",
    "version": "0.8.10+commit.fc410830.Emscripten.clang"
  },
  "schemaVersion": "3.4.3",
  "updatedAt": "2021-11-13T09:43:12.861Z",
  "networkType": "ethereum",
  "devdoc": {
    "kind": "dev",
    "methods": {},
    "version": 1
  },
  "userdoc": {
    "kind": "user",
    "methods": {},
    "version": 1
  }
}