{
  "contractName": "Project",
  "abi": [
    {
      "inputs": [],
      "stateMutability": "nonpayable",
      "type": "constructor"
    },
    {
      "anonymous": false,
      "inputs": [
        {
          "indexed": false,
          "internalType": "string",
          "name": "_name",
          "type": "string"
        },
        {
          "indexed": false,
          "internalType": "string",
          "name": "_description",
          "type": "string"
        },
        {
          "indexed": false,
          "internalType": "enum Project.ProjectStatus",
          "name": "_status",
          "type": "uint8"
        }
      ],
      "name": "CreateProject",
      "type": "event"
    },
    {
      "anonymous": false,
      "inputs": [
        {
          "indexed": false,
          "internalType": "uint256",
          "name": "_indexRequest",
          "type": "uint256"
        },
        {
          "indexed": false,
          "internalType": "enum Project.RequestStatus",
          "name": "_status",
          "type": "uint8"
        },
        {
          "components": [
            {
              "internalType": "uint256",
              "name": "index",
              "type": "uint256"
            },
            {
              "internalType": "string",
              "name": "name",
              "type": "string"
            },
            {
              "internalType": "string",
              "name": "description",
              "type": "string"
            },
            {
              "internalType": "enum Project.ProjectStatus",
              "name": "projectStatus",
              "type": "uint8"
            },
            {
              "internalType": "string",
              "name": "ipfsFileCID",
              "type": "string"
            }
          ],
          "indexed": false,
          "internalType": "struct Project.S_Project",
          "name": "_project",
          "type": "tuple"
        },
        {
          "indexed": false,
          "internalType": "enum Project.ProjectStatus",
          "name": "_projectStatus",
          "type": "uint8"
        },
        {
          "indexed": false,
          "internalType": "address",
          "name": "_subjectAddress",
          "type": "address"
        }
      ],
      "name": "UpdateCompanyRequestStatus",
      "type": "event"
    },
    {
      "anonymous": false,
      "inputs": [
        {
          "indexed": false,
          "internalType": "uint256",
          "name": "_indexRequest",
          "type": "uint256"
        },
        {
          "indexed": false,
          "internalType": "enum Project.RequestStatus",
          "name": "_status",
          "type": "uint8"
        },
        {
          "components": [
            {
              "internalType": "uint256",
              "name": "index",
              "type": "uint256"
            },
            {
              "internalType": "string",
              "name": "name",
              "type": "string"
            },
            {
              "internalType": "string",
              "name": "description",
              "type": "string"
            },
            {
              "internalType": "enum Project.ProjectStatus",
              "name": "projectStatus",
              "type": "uint8"
            },
            {
              "internalType": "string",
              "name": "ipfsFileCID",
              "type": "string"
            }
          ],
          "indexed": false,
          "internalType": "struct Project.S_Project",
          "name": "_project",
          "type": "tuple"
        },
        {
          "indexed": false,
          "internalType": "enum Project.ProjectStatus",
          "name": "_projectStatus",
          "type": "uint8"
        },
        {
          "indexed": false,
          "internalType": "address",
          "name": "_subjectAddress",
          "type": "address"
        }
      ],
      "name": "UpdateSupervisorRequestStatus",
      "type": "event"
    },
    {
      "anonymous": false,
      "inputs": [
        {
          "indexed": false,
          "internalType": "string",
          "name": "username",
          "type": "string"
        },
        {
          "indexed": false,
          "internalType": "string",
          "name": "firstname",
          "type": "string"
        },
        {
          "indexed": false,
          "internalType": "string",
          "name": "lastname",
          "type": "string"
        },
        {
          "indexed": false,
          "internalType": "string",
          "name": "email",
          "type": "string"
        },
        {
          "indexed": false,
          "internalType": "enum User.Roles",
          "name": "role",
          "type": "uint8"
        },
        {
          "indexed": false,
          "internalType": "address",
          "name": "walletAddress",
          "type": "address"
        }
      ],
      "name": "UserChanges",
      "type": "event"
    },
    {
      "anonymous": false,
      "inputs": [
        {
          "indexed": true,
          "internalType": "address",
          "name": "_walletAddress",
          "type": "address"
        },
        {
          "indexed": true,
          "internalType": "string",
          "name": "_username",
          "type": "string"
        },
        {
          "indexed": false,
          "internalType": "string",
          "name": "_email",
          "type": "string"
        },
        {
          "indexed": false,
          "internalType": "string",
          "name": "_firstname",
          "type": "string"
        },
        {
          "indexed": false,
          "internalType": "string",
          "name": "_lastname",
          "type": "string"
        },
        {
          "indexed": true,
          "internalType": "enum User.Roles",
          "name": "_role",
          "type": "uint8"
        }
      ],
      "name": "UserRegistered",
      "type": "event"
    },
    {
      "inputs": [
        {
          "internalType": "uint256",
          "name": "",
          "type": "uint256"
        }
      ],
      "name": "allProjects",
      "outputs": [
        {
          "internalType": "uint256",
          "name": "index",
          "type": "uint256"
        },
        {
          "internalType": "string",
          "name": "name",
          "type": "string"
        },
        {
          "internalType": "string",
          "name": "description",
          "type": "string"
        },
        {
          "internalType": "enum Project.ProjectStatus",
          "name": "projectStatus",
          "type": "uint8"
        },
        {
          "internalType": "string",
          "name": "ipfsFileCID",
          "type": "string"
        }
      ],
      "stateMutability": "view",
      "type": "function",
      "constant": true
    },
    {
      "inputs": [
        {
          "internalType": "uint256",
          "name": "",
          "type": "uint256"
        }
      ],
      "name": "allUsers",
      "outputs": [
        {
          "internalType": "string",
          "name": "username",
          "type": "string"
        },
        {
          "internalType": "string",
          "name": "email",
          "type": "string"
        },
        {
          "internalType": "string",
          "name": "firstname",
          "type": "string"
        },
        {
          "internalType": "string",
          "name": "lastname",
          "type": "string"
        },
        {
          "internalType": "enum User.Roles",
          "name": "role",
          "type": "uint8"
        },
        {
          "internalType": "address",
          "name": "walletAddress",
          "type": "address"
        }
      ],
      "stateMutability": "view",
      "type": "function",
      "constant": true
    },
    {
      "inputs": [
        {
          "internalType": "uint256",
          "name": "_role",
          "type": "uint256"
        },
        {
          "internalType": "address",
          "name": "_walletAddress",
          "type": "address"
        }
      ],
      "name": "changeUserRole",
      "outputs": [
        {
          "internalType": "string",
          "name": "",
          "type": "string"
        }
      ],
      "stateMutability": "nonpayable",
      "type": "function"
    },
    {
      "inputs": [
        {
          "internalType": "uint256",
          "name": "",
          "type": "uint256"
        }
      ],
      "name": "companyRequests",
      "outputs": [
        {
          "internalType": "uint256",
          "name": "index",
          "type": "uint256"
        },
        {
          "internalType": "string",
          "name": "description",
          "type": "string"
        },
        {
          "internalType": "enum Project.RequestStatus",
          "name": "status",
          "type": "uint8"
        },
        {
          "components": [
            {
              "internalType": "uint256",
              "name": "index",
              "type": "uint256"
            },
            {
              "internalType": "string",
              "name": "name",
              "type": "string"
            },
            {
              "internalType": "string",
              "name": "description",
              "type": "string"
            },
            {
              "internalType": "enum Project.ProjectStatus",
              "name": "projectStatus",
              "type": "uint8"
            },
            {
              "internalType": "string",
              "name": "ipfsFileCID",
              "type": "string"
            }
          ],
          "internalType": "struct Project.S_Project",
          "name": "project",
          "type": "tuple"
        },
        {
          "internalType": "address",
          "name": "subjectAddress",
          "type": "address"
        }
      ],
      "stateMutability": "view",
      "type": "function",
      "constant": true
    },
    {
      "inputs": [],
      "name": "getAllUsers",
      "outputs": [
        {
          "components": [
            {
              "internalType": "string",
              "name": "username",
              "type": "string"
            },
            {
              "internalType": "string",
              "name": "email",
              "type": "string"
            },
            {
              "internalType": "string",
              "name": "firstname",
              "type": "string"
            },
            {
              "internalType": "string",
              "name": "lastname",
              "type": "string"
            },
            {
              "internalType": "enum User.Roles",
              "name": "role",
              "type": "uint8"
            },
            {
              "internalType": "address",
              "name": "walletAddress",
              "type": "address"
            }
          ],
          "internalType": "struct User.S_UserData[]",
          "name": "",
          "type": "tuple[]"
        }
      ],
      "stateMutability": "view",
      "type": "function",
      "constant": true
    },
    {
      "inputs": [],
      "name": "getUserAddresses",
      "outputs": [
        {
          "internalType": "address[]",
          "name": "",
          "type": "address[]"
        }
      ],
      "stateMutability": "view",
      "type": "function",
      "constant": true
    },
    {
      "inputs": [
        {
          "internalType": "address",
          "name": "_address",
          "type": "address"
        }
      ],
      "name": "getUserInfo",
      "outputs": [
        {
          "components": [
            {
              "internalType": "string",
              "name": "username",
              "type": "string"
            },
            {
              "internalType": "string",
              "name": "email",
              "type": "string"
            },
            {
              "internalType": "string",
              "name": "firstname",
              "type": "string"
            },
            {
              "internalType": "string",
              "name": "lastname",
              "type": "string"
            },
            {
              "internalType": "enum User.Roles",
              "name": "role",
              "type": "uint8"
            },
            {
              "internalType": "address",
              "name": "walletAddress",
              "type": "address"
            }
          ],
          "internalType": "struct User.S_UserData",
          "name": "",
          "type": "tuple"
        }
      ],
      "stateMutability": "view",
      "type": "function",
      "constant": true
    },
    {
      "inputs": [],
      "name": "owner",
      "outputs": [
        {
          "internalType": "address",
          "name": "",
          "type": "address"
        }
      ],
      "stateMutability": "view",
      "type": "function",
      "constant": true
    },
    {
      "inputs": [
        {
          "internalType": "uint256",
          "name": "",
          "type": "uint256"
        }
      ],
      "name": "projectIds",
      "outputs": [
        {
          "internalType": "uint256",
          "name": "",
          "type": "uint256"
        }
      ],
      "stateMutability": "view",
      "type": "function",
      "constant": true
    },
    {
      "inputs": [
        {
          "internalType": "uint256",
          "name": "",
          "type": "uint256"
        }
      ],
      "name": "projects",
      "outputs": [
        {
          "internalType": "uint256",
          "name": "index",
          "type": "uint256"
        },
        {
          "internalType": "string",
          "name": "name",
          "type": "string"
        },
        {
          "internalType": "string",
          "name": "description",
          "type": "string"
        },
        {
          "internalType": "enum Project.ProjectStatus",
          "name": "projectStatus",
          "type": "uint8"
        },
        {
          "internalType": "string",
          "name": "ipfsFileCID",
          "type": "string"
        }
      ],
      "stateMutability": "view",
      "type": "function",
      "constant": true
    },
    {
      "inputs": [],
      "name": "projectsCount",
      "outputs": [
        {
          "internalType": "uint256",
          "name": "",
          "type": "uint256"
        }
      ],
      "stateMutability": "view",
      "type": "function",
      "constant": true
    },
    {
      "inputs": [
        {
          "internalType": "string",
          "name": "_username",
          "type": "string"
        },
        {
          "internalType": "string",
          "name": "_email",
          "type": "string"
        },
        {
          "internalType": "string",
          "name": "_firstname",
          "type": "string"
        },
        {
          "internalType": "string",
          "name": "_lastname",
          "type": "string"
        },
        {
          "internalType": "uint256",
          "name": "_role",
          "type": "uint256"
        },
        {
          "internalType": "address",
          "name": "_walletAddress",
          "type": "address"
        }
      ],
      "name": "registerUser",
      "outputs": [],
      "stateMutability": "nonpayable",
      "type": "function"
    },
    {
      "inputs": [
        {
          "internalType": "uint256",
          "name": "",
          "type": "uint256"
        }
      ],
      "name": "supervisorRequests",
      "outputs": [
        {
          "internalType": "uint256",
          "name": "index",
          "type": "uint256"
        },
        {
          "internalType": "string",
          "name": "description",
          "type": "string"
        },
        {
          "internalType": "enum Project.RequestStatus",
          "name": "status",
          "type": "uint8"
        },
        {
          "components": [
            {
              "internalType": "uint256",
              "name": "index",
              "type": "uint256"
            },
            {
              "internalType": "string",
              "name": "name",
              "type": "string"
            },
            {
              "internalType": "string",
              "name": "description",
              "type": "string"
            },
            {
              "internalType": "enum Project.ProjectStatus",
              "name": "projectStatus",
              "type": "uint8"
            },
            {
              "internalType": "string",
              "name": "ipfsFileCID",
              "type": "string"
            }
          ],
          "internalType": "struct Project.S_Project",
          "name": "project",
          "type": "tuple"
        },
        {
          "internalType": "address",
          "name": "subjectAddress",
          "type": "address"
        }
      ],
      "stateMutability": "view",
      "type": "function",
      "constant": true
    },
    {
      "inputs": [
        {
          "internalType": "uint256",
          "name": "",
          "type": "uint256"
        }
      ],
      "name": "userAddresses",
      "outputs": [
        {
          "internalType": "address",
          "name": "",
          "type": "address"
        }
      ],
      "stateMutability": "view",
      "type": "function",
      "constant": true
    },
    {
      "inputs": [
        {
          "internalType": "address",
          "name": "",
          "type": "address"
        }
      ],
      "name": "userInfo",
      "outputs": [
        {
          "internalType": "string",
          "name": "username",
          "type": "string"
        },
        {
          "internalType": "string",
          "name": "email",
          "type": "string"
        },
        {
          "internalType": "string",
          "name": "firstname",
          "type": "string"
        },
        {
          "internalType": "string",
          "name": "lastname",
          "type": "string"
        },
        {
          "internalType": "enum User.Roles",
          "name": "role",
          "type": "uint8"
        },
        {
          "internalType": "address",
          "name": "walletAddress",
          "type": "address"
        }
      ],
      "stateMutability": "view",
      "type": "function",
      "constant": true
    },
    {
      "inputs": [],
      "name": "usersCount",
      "outputs": [
        {
          "internalType": "uint256",
          "name": "",
          "type": "uint256"
        }
      ],
      "stateMutability": "view",
      "type": "function",
      "constant": true
    },
    {
      "inputs": [
        {
          "internalType": "string",
          "name": "_name",
          "type": "string"
        },
        {
          "internalType": "string",
          "name": "_description",
          "type": "string"
        },
        {
          "internalType": "uint256",
          "name": "_status",
          "type": "uint256"
        },
        {
          "internalType": "string",
          "name": "_ipfsFileCID",
          "type": "string"
        }
      ],
      "name": "createProject",
      "outputs": [],
      "stateMutability": "nonpayable",
      "type": "function"
    },
    {
      "inputs": [
        {
          "internalType": "uint256",
          "name": "_index",
          "type": "uint256"
        }
      ],
      "name": "getProjectInfo",
      "outputs": [
        {
          "components": [
            {
              "internalType": "uint256",
              "name": "index",
              "type": "uint256"
            },
            {
              "internalType": "string",
              "name": "name",
              "type": "string"
            },
            {
              "internalType": "string",
              "name": "description",
              "type": "string"
            },
            {
              "internalType": "enum Project.ProjectStatus",
              "name": "projectStatus",
              "type": "uint8"
            },
            {
              "internalType": "string",
              "name": "ipfsFileCID",
              "type": "string"
            }
          ],
          "internalType": "struct Project.S_Project",
          "name": "",
          "type": "tuple"
        }
      ],
      "stateMutability": "view",
      "type": "function",
      "constant": true
    },
    {
      "inputs": [],
      "name": "getAllProjects",
      "outputs": [
        {
          "components": [
            {
              "internalType": "uint256",
              "name": "index",
              "type": "uint256"
            },
            {
              "internalType": "string",
              "name": "name",
              "type": "string"
            },
            {
              "internalType": "string",
              "name": "description",
              "type": "string"
            },
            {
              "internalType": "enum Project.ProjectStatus",
              "name": "projectStatus",
              "type": "uint8"
            },
            {
              "internalType": "string",
              "name": "ipfsFileCID",
              "type": "string"
            }
          ],
          "internalType": "struct Project.S_Project[]",
          "name": "",
          "type": "tuple[]"
        }
      ],
      "stateMutability": "view",
      "type": "function",
      "constant": true
    },
    {
      "inputs": [],
      "name": "getProjectIds",
      "outputs": [
        {
          "internalType": "uint256[]",
          "name": "",
          "type": "uint256[]"
        }
      ],
      "stateMutability": "view",
      "type": "function",
      "constant": true
    },
    {
      "inputs": [
        {
          "internalType": "string",
          "name": "_text",
          "type": "string"
        },
        {
          "internalType": "address",
          "name": "_addr",
          "type": "address"
        }
      ],
      "name": "createUniqueIdentifier",
      "outputs": [
        {
          "internalType": "bytes32",
          "name": "",
          "type": "bytes32"
        }
      ],
      "stateMutability": "pure",
      "type": "function",
      "constant": true
    },
    {
      "inputs": [
        {
          "internalType": "string",
          "name": "_text",
          "type": "string"
        },
        {
          "internalType": "address",
          "name": "_addr",
          "type": "address"
        }
      ],
      "name": "createUniqueHexAddress",
      "outputs": [
        {
          "internalType": "address",
          "name": "",
          "type": "address"
        }
      ],
      "stateMutability": "pure",
      "type": "function",
      "constant": true
    },
    {
      "inputs": [
        {
          "internalType": "string",
          "name": "_description",
          "type": "string"
        },
        {
          "components": [
            {
              "internalType": "uint256",
              "name": "index",
              "type": "uint256"
            },
            {
              "internalType": "string",
              "name": "name",
              "type": "string"
            },
            {
              "internalType": "string",
              "name": "description",
              "type": "string"
            },
            {
              "internalType": "enum Project.ProjectStatus",
              "name": "projectStatus",
              "type": "uint8"
            },
            {
              "internalType": "string",
              "name": "ipfsFileCID",
              "type": "string"
            }
          ],
          "internalType": "struct Project.S_Project",
          "name": "_project",
          "type": "tuple"
        },
        {
          "internalType": "address",
          "name": "_subjectAddress",
          "type": "address"
        }
      ],
      "name": "requestProjectApprovalFromSupervisor",
      "outputs": [],
      "stateMutability": "nonpayable",
      "type": "function"
    },
    {
      "inputs": [
        {
          "internalType": "string",
          "name": "_description",
          "type": "string"
        },
        {
          "components": [
            {
              "internalType": "uint256",
              "name": "index",
              "type": "uint256"
            },
            {
              "internalType": "string",
              "name": "name",
              "type": "string"
            },
            {
              "internalType": "string",
              "name": "description",
              "type": "string"
            },
            {
              "internalType": "enum Project.ProjectStatus",
              "name": "projectStatus",
              "type": "uint8"
            },
            {
              "internalType": "string",
              "name": "ipfsFileCID",
              "type": "string"
            }
          ],
          "internalType": "struct Project.S_Project",
          "name": "_project",
          "type": "tuple"
        },
        {
          "internalType": "address",
          "name": "_subjectAddress",
          "type": "address"
        }
      ],
      "name": "requestProjectCompleteFromSupervisor",
      "outputs": [],
      "stateMutability": "nonpayable",
      "type": "function"
    },
    {
      "inputs": [
        {
          "internalType": "string",
          "name": "_description",
          "type": "string"
        },
        {
          "components": [
            {
              "internalType": "uint256",
              "name": "index",
              "type": "uint256"
            },
            {
              "internalType": "string",
              "name": "name",
              "type": "string"
            },
            {
              "internalType": "string",
              "name": "description",
              "type": "string"
            },
            {
              "internalType": "enum Project.ProjectStatus",
              "name": "projectStatus",
              "type": "uint8"
            },
            {
              "internalType": "string",
              "name": "ipfsFileCID",
              "type": "string"
            }
          ],
          "internalType": "struct Project.S_Project",
          "name": "_project",
          "type": "tuple"
        },
        {
          "internalType": "address",
          "name": "_subjectAddress",
          "type": "address"
        }
      ],
      "name": "requestStartProjectToCompanyBuilder",
      "outputs": [],
      "stateMutability": "nonpayable",
      "type": "function"
    }
  ],
  "bytecode": "0x60806040526000600255600060095534801561001a57600080fd5b5033600160006101000a81548173ffffffffffffffffffffffffffffffffffffffff021916908373ffffffffffffffffffffffffffffffffffffffff16021790555033600560006101000a81548173ffffffffffffffffffffffffffffffffffffffff021916908373ffffffffffffffffffffffffffffffffffffffff160217905550614951806100ac6000396000f3fe608060405234801561001057600080fd5b50600436106101735760003560e01c80637748587f116100de578063953dcd2a11610097578063c73b302e11610071578063c73b302e146104c0578063d40d4a80146104de578063e2842d7914610512578063fabf59681461053057610173565b8063953dcd2a14610451578063a2bdedf41461046d578063a591efde146104a257610173565b80637748587f1461037957806380d03829146103955780638c86a1d7146103b35780638da5cb5b146103e75780639100978614610405578063911c29a61461043557610173565b8063502c9bd511610130578063502c9bd51461027b57806353b3194c146102ab5780636132844f146102df5780636386c1c71461030f5780636ba13a821461033f5780636fe3d1941461035d57610173565b8063107046bd1461017857806313b4078f146101ac5780631959a002146101dc57806329a613b514610211578063465757141461022f57806348c35ad41461024b575b600080fd5b610192600480360381019061018d9190613357565b610560565b6040516101a39594939291906134a3565b60405180910390f35b6101c660048036038101906101c1919061369e565b61073b565b6040516101d39190613709565b60405180910390f35b6101f660048036038101906101f19190613724565b610771565b60405161020896959493929190613799565b60405180910390f35b6102196109fa565b60405161022691906138d4565b60405180910390f35b610249600480360381019061024491906138f6565b610a52565b005b61026560048036038101906102609190613357565b610ceb565b60405161027291906139b1565b60405180910390f35b61029560048036038101906102909190613357565b610d0f565b6040516102a29190613709565b60405180910390f35b6102c560048036038101906102c09190613357565b610d4e565b6040516102d69594939291906134a3565b60405180910390f35b6102f960048036038101906102f4919061369e565b610f39565b60405161030691906139e5565b60405180910390f35b61032960048036038101906103249190613724565b610f6c565b6040516103369190613b06565b60405180910390f35b61034761129d565b60405161035491906139b1565b60405180910390f35b61037760048036038101906103729190613c37565b6112a3565b005b610393600480360381019061038e9190613c37565b6114ad565b005b61039d6116b7565b6040516103aa9190613e17565b60405180910390f35b6103cd60048036038101906103c89190613357565b611911565b6040516103de959493929190613f05565b60405180910390f35b6103ef611c01565b6040516103fc9190613709565b60405180910390f35b61041f600480360381019061041a9190613f66565b611c27565b60405161042c9190613fa6565b60405180910390f35b61044f600480360381019061044a9190613fc8565b611ed2565b005b61046b60048036038101906104669190613c37565b612444565b005b61048760048036038101906104829190613357565b61264e565b60405161049996959493929190613799565b60405180910390f35b6104aa6128e7565b6040516104b79190614174565b60405180910390f35b6104c8612975565b6040516104d591906139b1565b60405180910390f35b6104f860048036038101906104f39190613357565b61297b565b604051610509959493929190613f05565b60405180910390f35b61051a612c6b565b60405161052791906142f6565b60405180910390f35b61054a60048036038101906105459190613357565b612fa3565b6040516105579190614318565b60405180910390f35b600660205280600052604060002060009150905080600001549080600101805461058990614369565b80601f01602080910402602001604051908101604052809291908181526020018280546105b590614369565b80156106025780601f106105d757610100808354040283529160200191610602565b820191906000526020600020905b8154815290600101906020018083116105e557829003601f168201915b50505050509080600201805461061790614369565b80601f016020809104026020016040519081016040528092919081815260200182805461064390614369565b80156106905780601f1061066557610100808354040283529160200191610690565b820191906000526020600020905b81548152906001019060200180831161067357829003601f168201915b5050505050908060030160009054906101000a900460ff16908060040180546106b890614369565b80601f01602080910402602001604051908101604052809291908181526020018280546106e490614369565b80156107315780601f1061070657610100808354040283529160200191610731565b820191906000526020600020905b81548152906001019060200180831161071457829003601f168201915b5050505050905085565b6000828260405160200161075092919061441f565b6040516020818303038152906040528051906020012060001c905092915050565b600060205280600052604060002060009150905080600001805461079490614369565b80601f01602080910402602001604051908101604052809291908181526020018280546107c090614369565b801561080d5780601f106107e25761010080835404028352916020019161080d565b820191906000526020600020905b8154815290600101906020018083116107f057829003601f168201915b50505050509080600101805461082290614369565b80601f016020809104026020016040519081016040528092919081815260200182805461084e90614369565b801561089b5780601f106108705761010080835404028352916020019161089b565b820191906000526020600020905b81548152906001019060200180831161087e57829003601f168201915b5050505050908060020180546108b090614369565b80601f01602080910402602001604051908101604052809291908181526020018280546108dc90614369565b80156109295780601f106108fe57610100808354040283529160200191610929565b820191906000526020600020905b81548152906001019060200180831161090c57829003601f168201915b50505050509080600301805461093e90614369565b80601f016020809104026020016040519081016040528092919081815260200182805461096a90614369565b80156109b75780601f1061098c576101008083540402835291602001916109b7565b820191906000526020600020905b81548152906001019060200180831161099a57829003601f168201915b5050505050908060040160009054906101000a900460ff16908060040160019054906101000a900473ffffffffffffffffffffffffffffffffffffffff16905086565b6060600a805480602002602001604051908101604052809291908181526020018280548015610a4857602002820191906000526020600020905b815481526020019060010190808311610a34575b5050505050905090565b60095460066000600954815260200190815260200160002060000181905550836006600060095481526020019081526020016000206001019080519060200190610a9d9291906131cb565b50826006600060095481526020019081526020016000206002019080519060200190610aca9291906131cb565b50816005811115610ade57610add61342c565b5b60066000600954815260200190815260200160002060030160006101000a81548160ff02191690836005811115610b1857610b1761342c565b5b0217905550806006600060095481526020019081526020016000206004019080519060200190610b499291906131cb565b507f274f009187cb91dd70ef9fd455c66e7263b5fc9746490cba15a3be400f580fa88484846005811115610b8057610b7f61342c565b5b604051610b8f93929190614447565b60405180910390a1600a6009549080600181540180825580915050600190039060005260206000200160009091909190915055600b6040518060a001604052806009548152602001868152602001858152602001846005811115610bf657610bf561342c565b5b6005811115610c0857610c0761342c565b5b8152602001838152509080600181540180825580915050600190039060005260206000209060050201600090919091909150600082015181600001556020820151816001019080519060200190610c609291906131cb565b506040820151816002019080519060200190610c7d9291906131cb565b5060608201518160030160006101000a81548160ff02191690836005811115610ca957610ca861342c565b5b02179055506080820151816004019080519060200190610cca9291906131cb565b50505060096000815480929190610ce0906144bb565b919050555050505050565b600a8181548110610cfb57600080fd5b906000526020600020016000915090505481565b60038181548110610d1f57600080fd5b906000526020600020016000915054906101000a900473ffffffffffffffffffffffffffffffffffffffff1681565b600b8181548110610d5e57600080fd5b9060005260206000209060050201600091509050806000015490806001018054610d8790614369565b80601f0160208091040260200160405190810160405280929190818152602001828054610db390614369565b8015610e005780601f10610dd557610100808354040283529160200191610e00565b820191906000526020600020905b815481529060010190602001808311610de357829003601f168201915b505050505090806002018054610e1590614369565b80601f0160208091040260200160405190810160405280929190818152602001828054610e4190614369565b8015610e8e5780601f10610e6357610100808354040283529160200191610e8e565b820191906000526020600020905b815481529060010190602001808311610e7157829003601f168201915b5050505050908060030160009054906101000a900460ff1690806004018054610eb690614369565b80601f0160208091040260200160405190810160405280929190818152602001828054610ee290614369565b8015610f2f5780601f10610f0457610100808354040283529160200191610f2f565b820191906000526020600020905b815481529060010190602001808311610f1257829003601f168201915b5050505050905085565b60008282604051602001610f4e92919061441f565b60405160208183030381529060405280519060200120905092915050565b610f74613251565b6000808373ffffffffffffffffffffffffffffffffffffffff1673ffffffffffffffffffffffffffffffffffffffff1681526020019081526020016000206040518060c0016040529081600082018054610fcd90614369565b80601f0160208091040260200160405190810160405280929190818152602001828054610ff990614369565b80156110465780601f1061101b57610100808354040283529160200191611046565b820191906000526020600020905b81548152906001019060200180831161102957829003601f168201915b5050505050815260200160018201805461105f90614369565b80601f016020809104026020016040519081016040528092919081815260200182805461108b90614369565b80156110d85780601f106110ad576101008083540402835291602001916110d8565b820191906000526020600020905b8154815290600101906020018083116110bb57829003601f168201915b505050505081526020016002820180546110f190614369565b80601f016020809104026020016040519081016040528092919081815260200182805461111d90614369565b801561116a5780601f1061113f5761010080835404028352916020019161116a565b820191906000526020600020905b81548152906001019060200180831161114d57829003601f168201915b5050505050815260200160038201805461118390614369565b80601f01602080910402602001604051908101604052809291908181526020018280546111af90614369565b80156111fc5780601f106111d1576101008083540402835291602001916111fc565b820191906000526020600020905b8154815290600101906020018083116111df57829003601f168201915b505050505081526020016004820160009054906101000a900460ff16600381111561122a5761122961342c565b5b600381111561123c5761123b61342c565b5b81526020016004820160019054906101000a900473ffffffffffffffffffffffffffffffffffffffff1673ffffffffffffffffffffffffffffffffffffffff1673ffffffffffffffffffffffffffffffffffffffff16815250509050919050565b60025481565b600460058111156112b7576112b661342c565b5b826060015160058111156112ce576112cd61342c565b5b1461130e576040517f08c379a00000000000000000000000000000000000000000000000000000000081526004016113059061459c565b60405180910390fd5b600060086000600d54815260200190815260200160002090508381600101908051906020019061133f9291906131cb565b5060008160020160006101000a81548160ff021916908360018111156113685761136761342c565b5b021790555082816003016000820151816000015560208201518160010190805190602001906113989291906131cb565b5060408201518160020190805190602001906113b59291906131cb565b5060608201518160030160006101000a81548160ff021916908360058111156113e1576113e061342c565b5b021790555060808201518160040190805190602001906114029291906131cb565b50905050818160080160006101000a81548173ffffffffffffffffffffffffffffffffffffffff021916908373ffffffffffffffffffffffffffffffffffffffff1602179055507fc0a7086e05590c8d9160aba8dc6a29b754eda15e93d2a2578429bc2fda6bdec3600d546000858660600151866040516114879594939291906145bc565b60405180910390a1600d60008154809291906114a2906144bb565b919050555050505050565b600060058111156114c1576114c061342c565b5b826060015160058111156114d8576114d761342c565b5b14611518576040517f08c379a000000000000000000000000000000000000000000000000000000000815260040161150f90614688565b60405180910390fd5b600060086000600d5481526020019081526020016000209050838160010190805190602001906115499291906131cb565b5060008160020160006101000a81548160ff021916908360018111156115725761157161342c565b5b021790555082816003016000820151816000015560208201518160010190805190602001906115a29291906131cb565b5060408201518160020190805190602001906115bf9291906131cb565b5060608201518160030160006101000a81548160ff021916908360058111156115eb576115ea61342c565b5b0217905550608082015181600401908051906020019061160c9291906131cb565b50905050818160080160006101000a81548173ffffffffffffffffffffffffffffffffffffffff021916908373ffffffffffffffffffffffffffffffffffffffff1602179055507fc0a7086e05590c8d9160aba8dc6a29b754eda15e93d2a2578429bc2fda6bdec3600d546000858660600151866040516116919594939291906145bc565b60405180910390a1600d60008154809291906116ac906144bb565b919050555050505050565b6060600b805480602002602001604051908101604052809291908181526020016000905b8282101561190857838290600052602060002090600502016040518060a00160405290816000820154815260200160018201805461171890614369565b80601f016020809104026020016040519081016040528092919081815260200182805461174490614369565b80156117915780601f1061176657610100808354040283529160200191611791565b820191906000526020600020905b81548152906001019060200180831161177457829003601f168201915b505050505081526020016002820180546117aa90614369565b80601f01602080910402602001604051908101604052809291908181526020018280546117d690614369565b80156118235780601f106117f857610100808354040283529160200191611823565b820191906000526020600020905b81548152906001019060200180831161180657829003601f168201915b505050505081526020016003820160009054906101000a900460ff1660058111156118515761185061342c565b5b60058111156118635761186261342c565b5b815260200160048201805461187790614369565b80601f01602080910402602001604051908101604052809291908181526020018280546118a390614369565b80156118f05780601f106118c5576101008083540402835291602001916118f0565b820191906000526020600020905b8154815290600101906020018083116118d357829003601f168201915b505050505081525050815260200190600101906116db565b50505050905090565b600860205280600052604060002060009150905080600001549080600101805461193a90614369565b80601f016020809104026020016040519081016040528092919081815260200182805461196690614369565b80156119b35780601f10611988576101008083540402835291602001916119b3565b820191906000526020600020905b81548152906001019060200180831161199657829003601f168201915b5050505050908060020160009054906101000a900460ff1690806003016040518060a0016040529081600082015481526020016001820180546119f590614369565b80601f0160208091040260200160405190810160405280929190818152602001828054611a2190614369565b8015611a6e5780601f10611a4357610100808354040283529160200191611a6e565b820191906000526020600020905b815481529060010190602001808311611a5157829003601f168201915b50505050508152602001600282018054611a8790614369565b80601f0160208091040260200160405190810160405280929190818152602001828054611ab390614369565b8015611b005780601f10611ad557610100808354040283529160200191611b00565b820191906000526020600020905b815481529060010190602001808311611ae357829003601f168201915b505050505081526020016003820160009054906101000a900460ff166005811115611b2e57611b2d61342c565b5b6005811115611b4057611b3f61342c565b5b8152602001600482018054611b5490614369565b80601f0160208091040260200160405190810160405280929190818152602001828054611b8090614369565b8015611bcd5780601f10611ba257610100808354040283529160200191611bcd565b820191906000526020600020905b815481529060010190602001808311611bb057829003601f168201915b505050505081525050908060080160009054906101000a900473ffffffffffffffffffffffffffffffffffffffff16905085565b600160009054906101000a900473ffffffffffffffffffffffffffffffffffffffff1681565b6060826003811115611c3c57611c3b61342c565b5b6000808473ffffffffffffffffffffffffffffffffffffffff1673ffffffffffffffffffffffffffffffffffffffff16815260200190815260200160002060040160006101000a81548160ff02191690836003811115611c9f57611c9e61342c565b5b02179055507f1a3c779520e15f878f9eff134a72cf200f4361dde45a0d32a7eb989665bbfb286000808473ffffffffffffffffffffffffffffffffffffffff1673ffffffffffffffffffffffffffffffffffffffff1681526020019081526020016000206000016000808573ffffffffffffffffffffffffffffffffffffffff1673ffffffffffffffffffffffffffffffffffffffff1681526020019081526020016000206002016000808673ffffffffffffffffffffffffffffffffffffffff1673ffffffffffffffffffffffffffffffffffffffff1681526020019081526020016000206003016000808773ffffffffffffffffffffffffffffffffffffffff1673ffffffffffffffffffffffffffffffffffffffff1681526020019081526020016000206001016000808873ffffffffffffffffffffffffffffffffffffffff1673ffffffffffffffffffffffffffffffffffffffff16815260200190815260200160002060040160009054906101000a900460ff166000808973ffffffffffffffffffffffffffffffffffffffff1673ffffffffffffffffffffffffffffffffffffffff16815260200190815260200160002060040160019054906101000a900473ffffffffffffffffffffffffffffffffffffffff16604051611e8c9695949392919061473d565b60405180910390a16040518060400160405280600d81526020017f526f6c6520557064617465642100000000000000000000000000000000000000815250905092915050565b3373ffffffffffffffffffffffffffffffffffffffff16600160009054906101000a900473ffffffffffffffffffffffffffffffffffffffff1673ffffffffffffffffffffffffffffffffffffffff1614611f62576040517f08c379a0000000000000000000000000000000000000000000000000000000008152600401611f5990614806565b60405180910390fd5b856000808373ffffffffffffffffffffffffffffffffffffffff1673ffffffffffffffffffffffffffffffffffffffff1681526020019081526020016000206000019080519060200190611fb79291906131cb565b50846000808373ffffffffffffffffffffffffffffffffffffffff1673ffffffffffffffffffffffffffffffffffffffff168152602001908152602001600020600101908051906020019061200d9291906131cb565b50836000808373ffffffffffffffffffffffffffffffffffffffff1673ffffffffffffffffffffffffffffffffffffffff16815260200190815260200160002060020190805190602001906120639291906131cb565b50826000808373ffffffffffffffffffffffffffffffffffffffff1673ffffffffffffffffffffffffffffffffffffffff16815260200190815260200160002060030190805190602001906120b99291906131cb565b508160038111156120cd576120cc61342c565b5b6000808373ffffffffffffffffffffffffffffffffffffffff1673ffffffffffffffffffffffffffffffffffffffff16815260200190815260200160002060040160006101000a81548160ff021916908360038111156121305761212f61342c565b5b0217905550806000808373ffffffffffffffffffffffffffffffffffffffff1673ffffffffffffffffffffffffffffffffffffffff16815260200190815260200160002060040160016101000a81548173ffffffffffffffffffffffffffffffffffffffff021916908373ffffffffffffffffffffffffffffffffffffffff1602179055508160038111156121c8576121c761342c565b5b60038111156121da576121d961342c565b5b866040516121e89190614826565b60405180910390208273ffffffffffffffffffffffffffffffffffffffff167fddb5d1667467713eb503e7e133811c91a231cb6b63f11930889c6004f36c35ee88888860405161223a9392919061483d565b60405180910390a46003819080600181540180825580915050600190039060005260206000200160009091909190916101000a81548173ffffffffffffffffffffffffffffffffffffffff021916908373ffffffffffffffffffffffffffffffffffffffff16021790555060046040518060c001604052808881526020018781526020018681526020018581526020018460038111156122dd576122dc61342c565b5b60038111156122ef576122ee61342c565b5b81526020018373ffffffffffffffffffffffffffffffffffffffff16815250908060018154018082558091505060019003906000526020600020906005020160009091909190915060008201518160000190805190602001906123539291906131cb565b5060208201518160010190805190602001906123709291906131cb565b50604082015181600201908051906020019061238d9291906131cb565b5060608201518160030190805190602001906123aa9291906131cb565b5060808201518160040160006101000a81548160ff021916908360038111156123d6576123d561342c565b5b021790555060a08201518160040160016101000a81548173ffffffffffffffffffffffffffffffffffffffff021916908373ffffffffffffffffffffffffffffffffffffffff160217905550505060026000815480929190612437906144bb565b9190505550505050505050565b600160058111156124585761245761342c565b5b8260600151600581111561246f5761246e61342c565b5b146124af576040517f08c379a00000000000000000000000000000000000000000000000000000000081526004016124a6906148fb565b60405180910390fd5b600060076000600c5481526020019081526020016000209050838160010190805190602001906124e09291906131cb565b5060008160020160006101000a81548160ff021916908360018111156125095761250861342c565b5b021790555082816003016000820151816000015560208201518160010190805190602001906125399291906131cb565b5060408201518160020190805190602001906125569291906131cb565b5060608201518160030160006101000a81548160ff021916908360058111156125825761258161342c565b5b021790555060808201518160040190805190602001906125a39291906131cb565b50905050818160080160006101000a81548173ffffffffffffffffffffffffffffffffffffffff021916908373ffffffffffffffffffffffffffffffffffffffff1602179055507f56cef5b605de75dde94390e0903b843a7c7203544ad094da5db5ecdafb897cb8600c546000858660600151866040516126289594939291906145bc565b60405180910390a1600c6000815480929190612643906144bb565b919050555050505050565b6004818154811061265e57600080fd5b906000526020600020906005020160009150905080600001805461268190614369565b80601f01602080910402602001604051908101604052809291908181526020018280546126ad90614369565b80156126fa5780601f106126cf576101008083540402835291602001916126fa565b820191906000526020600020905b8154815290600101906020018083116126dd57829003601f168201915b50505050509080600101805461270f90614369565b80601f016020809104026020016040519081016040528092919081815260200182805461273b90614369565b80156127885780601f1061275d57610100808354040283529160200191612788565b820191906000526020600020905b81548152906001019060200180831161276b57829003601f168201915b50505050509080600201805461279d90614369565b80601f01602080910402602001604051908101604052809291908181526020018280546127c990614369565b80156128165780601f106127eb57610100808354040283529160200191612816565b820191906000526020600020905b8154815290600101906020018083116127f957829003601f168201915b50505050509080600301805461282b90614369565b80601f016020809104026020016040519081016040528092919081815260200182805461285790614369565b80156128a45780601f10612879576101008083540402835291602001916128a4565b820191906000526020600020905b81548152906001019060200180831161288757829003601f168201915b5050505050908060040160009054906101000a900460ff16908060040160019054906101000a900473ffffffffffffffffffffffffffffffffffffffff16905086565b6060600380548060200260200160405190810160405280929190818152602001828054801561296b57602002820191906000526020600020905b8160009054906101000a900473ffffffffffffffffffffffffffffffffffffffff1673ffffffffffffffffffffffffffffffffffffffff1681526020019060010190808311612921575b5050505050905090565b60095481565b60076020528060005260406000206000915090508060000154908060010180546129a490614369565b80601f01602080910402602001604051908101604052809291908181526020018280546129d090614369565b8015612a1d5780601f106129f257610100808354040283529160200191612a1d565b820191906000526020600020905b815481529060010190602001808311612a0057829003601f168201915b5050505050908060020160009054906101000a900460ff1690806003016040518060a001604052908160008201548152602001600182018054612a5f90614369565b80601f0160208091040260200160405190810160405280929190818152602001828054612a8b90614369565b8015612ad85780601f10612aad57610100808354040283529160200191612ad8565b820191906000526020600020905b815481529060010190602001808311612abb57829003601f168201915b50505050508152602001600282018054612af190614369565b80601f0160208091040260200160405190810160405280929190818152602001828054612b1d90614369565b8015612b6a5780601f10612b3f57610100808354040283529160200191612b6a565b820191906000526020600020905b815481529060010190602001808311612b4d57829003601f168201915b505050505081526020016003820160009054906101000a900460ff166005811115612b9857612b9761342c565b5b6005811115612baa57612ba961342c565b5b8152602001600482018054612bbe90614369565b80601f0160208091040260200160405190810160405280929190818152602001828054612bea90614369565b8015612c375780601f10612c0c57610100808354040283529160200191612c37565b820191906000526020600020905b815481529060010190602001808311612c1a57829003601f168201915b505050505081525050908060080160009054906101000a900473ffffffffffffffffffffffffffffffffffffffff16905085565b60606004805480602002602001604051908101604052809291908181526020016000905b82821015612f9a57838290600052602060002090600502016040518060c0016040529081600082018054612cc290614369565b80601f0160208091040260200160405190810160405280929190818152602001828054612cee90614369565b8015612d3b5780601f10612d1057610100808354040283529160200191612d3b565b820191906000526020600020905b815481529060010190602001808311612d1e57829003601f168201915b50505050508152602001600182018054612d5490614369565b80601f0160208091040260200160405190810160405280929190818152602001828054612d8090614369565b8015612dcd5780601f10612da257610100808354040283529160200191612dcd565b820191906000526020600020905b815481529060010190602001808311612db057829003601f168201915b50505050508152602001600282018054612de690614369565b80601f0160208091040260200160405190810160405280929190818152602001828054612e1290614369565b8015612e5f5780601f10612e3457610100808354040283529160200191612e5f565b820191906000526020600020905b815481529060010190602001808311612e4257829003601f168201915b50505050508152602001600382018054612e7890614369565b80601f0160208091040260200160405190810160405280929190818152602001828054612ea490614369565b8015612ef15780601f10612ec657610100808354040283529160200191612ef1565b820191906000526020600020905b815481529060010190602001808311612ed457829003601f168201915b505050505081526020016004820160009054906101000a900460ff166003811115612f1f57612f1e61342c565b5b6003811115612f3157612f3061342c565b5b81526020016004820160019054906101000a900473ffffffffffffffffffffffffffffffffffffffff1673ffffffffffffffffffffffffffffffffffffffff1673ffffffffffffffffffffffffffffffffffffffff168152505081526020019060010190612c8f565b50505050905090565b612fab6132af565b600660008381526020019081526020016000206040518060a001604052908160008201548152602001600182018054612fe390614369565b80601f016020809104026020016040519081016040528092919081815260200182805461300f90614369565b801561305c5780601f106130315761010080835404028352916020019161305c565b820191906000526020600020905b81548152906001019060200180831161303f57829003601f168201915b5050505050815260200160028201805461307590614369565b80601f01602080910402602001604051908101604052809291908181526020018280546130a190614369565b80156130ee5780601f106130c3576101008083540402835291602001916130ee565b820191906000526020600020905b8154815290600101906020018083116130d157829003601f168201915b505050505081526020016003820160009054906101000a900460ff16600581111561311c5761311b61342c565b5b600581111561312e5761312d61342c565b5b815260200160048201805461314290614369565b80601f016020809104026020016040519081016040528092919081815260200182805461316e90614369565b80156131bb5780601f10613190576101008083540402835291602001916131bb565b820191906000526020600020905b81548152906001019060200180831161319e57829003601f168201915b5050505050815250509050919050565b8280546131d790614369565b90600052602060002090601f0160209004810192826131f95760008555613240565b82601f1061321257805160ff1916838001178555613240565b82800160010185558215613240579182015b8281111561323f578251825591602001919060010190613224565b5b50905061324d91906132f0565b5090565b6040518060c00160405280606081526020016060815260200160608152602001606081526020016000600381111561328c5761328b61342c565b5b8152602001600073ffffffffffffffffffffffffffffffffffffffff1681525090565b6040518060a00160405280600081526020016060815260200160608152602001600060058111156132e3576132e261342c565b5b8152602001606081525090565b5b808211156133095760008160009055506001016132f1565b5090565b6000604051905090565b600080fd5b600080fd5b6000819050919050565b61333481613321565b811461333f57600080fd5b50565b6000813590506133518161332b565b92915050565b60006020828403121561336d5761336c613317565b5b600061337b84828501613342565b91505092915050565b61338d81613321565b82525050565b600081519050919050565b600082825260208201905092915050565b60005b838110156133cd5780820151818401526020810190506133b2565b838111156133dc576000848401525b50505050565b6000601f19601f8301169050919050565b60006133fe82613393565b613408818561339e565b93506134188185602086016133af565b613421816133e2565b840191505092915050565b7f4e487b7100000000000000000000000000000000000000000000000000000000600052602160045260246000fd5b6006811061346c5761346b61342c565b5b50565b600081905061347d8261345b565b919050565b600061348d8261346f565b9050919050565b61349d81613482565b82525050565b600060a0820190506134b86000830188613384565b81810360208301526134ca81876133f3565b905081810360408301526134de81866133f3565b90506134ed6060830185613494565b81810360808301526134ff81846133f3565b90509695505050505050565b600080fd5b600080fd5b7f4e487b7100000000000000000000000000000000000000000000000000000000600052604160045260246000fd5b61354d826133e2565b810181811067ffffffffffffffff8211171561356c5761356b613515565b5b80604052505050565b600061357f61330d565b905061358b8282613544565b919050565b600067ffffffffffffffff8211156135ab576135aa613515565b5b6135b4826133e2565b9050602081019050919050565b82818337600083830152505050565b60006135e36135de84613590565b613575565b9050828152602081018484840111156135ff576135fe613510565b5b61360a8482856135c1565b509392505050565b600082601f8301126136275761362661350b565b5b81356136378482602086016135d0565b91505092915050565b600073ffffffffffffffffffffffffffffffffffffffff82169050919050565b600061366b82613640565b9050919050565b61367b81613660565b811461368657600080fd5b50565b60008135905061369881613672565b92915050565b600080604083850312156136b5576136b4613317565b5b600083013567ffffffffffffffff8111156136d3576136d261331c565b5b6136df85828601613612565b92505060206136f085828601613689565b9150509250929050565b61370381613660565b82525050565b600060208201905061371e60008301846136fa565b92915050565b60006020828403121561373a57613739613317565b5b600061374884828501613689565b91505092915050565b600481106137625761376161342c565b5b50565b600081905061377382613751565b919050565b600061378382613765565b9050919050565b61379381613778565b82525050565b600060c08201905081810360008301526137b381896133f3565b905081810360208301526137c781886133f3565b905081810360408301526137db81876133f3565b905081810360608301526137ef81866133f3565b90506137fe608083018561378a565b61380b60a08301846136fa565b979650505050505050565b600081519050919050565b600082825260208201905092915050565b6000819050602082019050919050565b61384b81613321565b82525050565b600061385d8383613842565b60208301905092915050565b6000602082019050919050565b600061388182613816565b61388b8185613821565b935061389683613832565b8060005b838110156138c75781516138ae8882613851565b97506138b983613869565b92505060018101905061389a565b5085935050505092915050565b600060208201905081810360008301526138ee8184613876565b905092915050565b600080600080608085870312156139105761390f613317565b5b600085013567ffffffffffffffff81111561392e5761392d61331c565b5b61393a87828801613612565b945050602085013567ffffffffffffffff81111561395b5761395a61331c565b5b61396787828801613612565b935050604061397887828801613342565b925050606085013567ffffffffffffffff8111156139995761399861331c565b5b6139a587828801613612565b91505092959194509250565b60006020820190506139c66000830184613384565b92915050565b6000819050919050565b6139df816139cc565b82525050565b60006020820190506139fa60008301846139d6565b92915050565b600082825260208201905092915050565b6000613a1c82613393565b613a268185613a00565b9350613a368185602086016133af565b613a3f816133e2565b840191505092915050565b613a5381613778565b82525050565b613a6281613660565b82525050565b600060c0830160008301518482036000860152613a858282613a11565b91505060208301518482036020860152613a9f8282613a11565b91505060408301518482036040860152613ab98282613a11565b91505060608301518482036060860152613ad38282613a11565b9150506080830151613ae86080860182613a4a565b5060a0830151613afb60a0860182613a59565b508091505092915050565b60006020820190508181036000830152613b208184613a68565b905092915050565b600080fd5b600080fd5b60068110613b3f57600080fd5b50565b600081359050613b5181613b32565b92915050565b600060a08284031215613b6d57613b6c613b28565b5b613b7760a0613575565b90506000613b8784828501613342565b600083015250602082013567ffffffffffffffff811115613bab57613baa613b2d565b5b613bb784828501613612565b602083015250604082013567ffffffffffffffff811115613bdb57613bda613b2d565b5b613be784828501613612565b6040830152506060613bfb84828501613b42565b606083015250608082013567ffffffffffffffff811115613c1f57613c1e613b2d565b5b613c2b84828501613612565b60808301525092915050565b600080600060608486031215613c5057613c4f613317565b5b600084013567ffffffffffffffff811115613c6e57613c6d61331c565b5b613c7a86828701613612565b935050602084013567ffffffffffffffff811115613c9b57613c9a61331c565b5b613ca786828701613b57565b9250506040613cb886828701613689565b9150509250925092565b600081519050919050565b600082825260208201905092915050565b6000819050602082019050919050565b613cf781613482565b82525050565b600060a083016000830151613d156000860182613842565b5060208301518482036020860152613d2d8282613a11565b91505060408301518482036040860152613d478282613a11565b9150506060830151613d5c6060860182613cee565b5060808301518482036080860152613d748282613a11565b9150508091505092915050565b6000613d8d8383613cfd565b905092915050565b6000602082019050919050565b6000613dad82613cc2565b613db78185613ccd565b935083602082028501613dc985613cde565b8060005b85811015613e055784840389528151613de68582613d81565b9450613df183613d95565b925060208a01995050600181019050613dcd565b50829750879550505050505092915050565b60006020820190508181036000830152613e318184613da2565b905092915050565b60028110613e4a57613e4961342c565b5b50565b6000819050613e5b82613e39565b919050565b6000613e6b82613e4d565b9050919050565b613e7b81613e60565b82525050565b600060a083016000830151613e996000860182613842565b5060208301518482036020860152613eb18282613a11565b91505060408301518482036040860152613ecb8282613a11565b9150506060830151613ee06060860182613cee565b5060808301518482036080860152613ef88282613a11565b9150508091505092915050565b600060a082019050613f1a6000830188613384565b8181036020830152613f2c81876133f3565b9050613f3b6040830186613e72565b8181036060830152613f4d8185613e81565b9050613f5c60808301846136fa565b9695505050505050565b60008060408385031215613f7d57613f7c613317565b5b6000613f8b85828601613342565b9250506020613f9c85828601613689565b9150509250929050565b60006020820190508181036000830152613fc081846133f3565b905092915050565b60008060008060008060c08789031215613fe557613fe4613317565b5b600087013567ffffffffffffffff8111156140035761400261331c565b5b61400f89828a01613612565b965050602087013567ffffffffffffffff8111156140305761402f61331c565b5b61403c89828a01613612565b955050604087013567ffffffffffffffff81111561405d5761405c61331c565b5b61406989828a01613612565b945050606087013567ffffffffffffffff81111561408a5761408961331c565b5b61409689828a01613612565b93505060806140a789828a01613342565b92505060a06140b889828a01613689565b9150509295509295509295565b600081519050919050565b600082825260208201905092915050565b6000819050602082019050919050565b60006140fd8383613a59565b60208301905092915050565b6000602082019050919050565b6000614121826140c5565b61412b81856140d0565b9350614136836140e1565b8060005b8381101561416757815161414e88826140f1565b975061415983614109565b92505060018101905061413a565b5085935050505092915050565b6000602082019050818103600083015261418e8184614116565b905092915050565b600081519050919050565b600082825260208201905092915050565b6000819050602082019050919050565b600060c08301600083015184820360008601526141df8282613a11565b915050602083015184820360208601526141f98282613a11565b915050604083015184820360408601526142138282613a11565b9150506060830151848203606086015261422d8282613a11565b91505060808301516142426080860182613a4a565b5060a083015161425560a0860182613a59565b508091505092915050565b600061426c83836141c2565b905092915050565b6000602082019050919050565b600061428c82614196565b61429681856141a1565b9350836020820285016142a8856141b2565b8060005b858110156142e457848403895281516142c58582614260565b94506142d083614274565b925060208a019950506001810190506142ac565b50829750879550505050505092915050565b600060208201905081810360008301526143108184614281565b905092915050565b600060208201905081810360008301526143328184613e81565b905092915050565b7f4e487b7100000000000000000000000000000000000000000000000000000000600052602260045260246000fd5b6000600282049050600182168061438157607f821691505b602082108114156143955761439461433a565b5b50919050565b600081905092915050565b60006143b182613393565b6143bb818561439b565b93506143cb8185602086016133af565b80840191505092915050565b60008160601b9050919050565b60006143ef826143d7565b9050919050565b6000614401826143e4565b9050919050565b61441961441482613660565b6143f6565b82525050565b600061442b82856143a6565b91506144378284614408565b6014820191508190509392505050565b6000606082019050818103600083015261446181866133f3565b9050818103602083015261447581856133f3565b90506144846040830184613494565b949350505050565b7f4e487b7100000000000000000000000000000000000000000000000000000000600052601160045260246000fd5b60006144c682613321565b91507fffffffffffffffffffffffffffffffffffffffffffffffffffffffffffffffff8214156144f9576144f861448c565b5b600182019050919050565b7f5468652070726f6a656374206973206e6f7420696e2074686520274265666f7260008201527f6546696e616c697a6174696f6e436865636b27207374617475732c207468652060208201527f6f7065726174696f6e2063616e6e6f7420626520646f6e652e00000000000000604082015250565b600061458660598361339e565b915061459182614504565b606082019050919050565b600060208201905081810360008301526145b581614579565b9050919050565b600060a0820190506145d16000830188613384565b6145de6020830187613e72565b81810360408301526145f08186613e81565b90506145ff6060830185613494565b61460c60808301846136fa565b9695505050505050565b7f5468652070726f6a656374206973206e6f7420637265617465642c207468652060008201527f6f7065726174696f6e2063616e6e6f7420626520646f6e652e00000000000000602082015250565b600061467260398361339e565b915061467d82614616565b604082019050919050565b600060208201905081810360008301526146a181614665565b9050919050565b60008190508160005260206000209050919050565b600081546146ca81614369565b6146d4818661339e565b945060018216600081146146ef576001811461470157614734565b60ff1983168652602086019350614734565b61470a856146a8565b60005b8381101561472c5781548189015260018201915060208101905061470d565b808801955050505b50505092915050565b600060c082019050818103600083015261475781896146bd565b9050818103602083015261476b81886146bd565b9050818103604083015261477f81876146bd565b9050818103606083015261479381866146bd565b90506147a2608083018561378a565b6147af60a08301846136fa565b979650505050505050565b7f596f7520617265206e6f7420616e206f776e6572000000000000000000000000600082015250565b60006147f060148361339e565b91506147fb826147ba565b602082019050919050565b6000602082019050818103600083015261481f816147e3565b9050919050565b600061483282846143a6565b915081905092915050565b6000606082019050818103600083015261485781866133f3565b9050818103602083015261486b81856133f3565b9050818103604083015261487f81846133f3565b9050949350505050565b7f5468652070726f6a656374206973206e6f7420617070726f7665642c2074686560008201527f206f7065726174696f6e2063616e6e6f7420626520646f6e652e000000000000602082015250565b60006148e5603a8361339e565b91506148f082614889565b604082019050919050565b60006020820190508181036000830152614914816148d8565b905091905056fea26469706673582212202875d9abb12565b7d6f48c3c2337e16c5fcdfc4aeb0666fa3f7838cb56a9de4164736f6c634300080a0033",
  "immutableReferences": {},
  "source": "// SPDX-License-Identifier: MIT\r\npragma solidity >=0.8.0 <0.9.0;\r\n\r\nimport \"./User.sol\";\r\n\r\ncontract Project is User {\r\n\r\n    address projectInitiator;\r\n\r\n    mapping(uint => S_Project) public projects;\r\n    mapping(uint => S_Request) public companyRequests;\r\n    mapping(uint => S_Request) public supervisorRequests;\r\n\r\n    uint public projectsCount = 0;\r\n    uint[] public projectIds;\r\n    S_Project[] public allProjects;\r\n\r\n    uint indexCompanyRequest;\r\n    uint indexSupervisorRequest;\r\n\r\n    struct S_Project {\r\n        uint index;\r\n        string name;\r\n        string description;\r\n        ProjectStatus projectStatus;\r\n        string ipfsFileCID;\r\n    }\r\n\r\n    struct S_Request {\r\n        uint index;\r\n        string description;\r\n        RequestStatus status;\r\n        S_Project project;\r\n        address subjectAddress;\r\n    }\r\n\r\n    enum RequestStatus { Unverified, Verified }\r\n    enum ProjectStatus { Created, Approved, Rejected, OnGoing, BeforeFinalizationCheck, Completed }\r\n\r\n    //event CreateProject(uint _indexProject, Project.ProjectStatus _projectStatus, address _address);\r\n    event CreateProject(string _name, string _description, ProjectStatus _status);\r\n\r\n    event UpdateSupervisorRequestStatus(uint _indexRequest, RequestStatus _status, S_Project _project, ProjectStatus _projectStatus, address _subjectAddress);\r\n    event UpdateCompanyRequestStatus(uint _indexRequest, RequestStatus _status, S_Project _project, ProjectStatus _projectStatus, address _subjectAddress);\r\n\r\n    constructor() {\r\n        projectInitiator = msg.sender;\r\n    }\r\n\r\n    modifier onlyProjectInitiator {\r\n        require(userInfo[projectInitiator].role == Roles.ProjectInitiator, \"You don't have the rights for this resources.\");\r\n        require(projectInitiator == msg.sender, \"You are not a project initiator\");\r\n        _;\r\n    }\r\n\r\n    function createProject(string memory _name, string memory _description, uint _status, string memory _ipfsFileCID) public  {\r\n        //bytes32 _identifier = createUniqueIdentifier(_hashStringValue, msg.sender);\r\n\r\n        projects[projectsCount].index = projectsCount;\r\n        //projects[projectsCount].identifier = _identifier;\r\n        projects[projectsCount].name = _name;\r\n        projects[projectsCount].description = _description;\r\n        projects[projectsCount].projectStatus = ProjectStatus(_status);\r\n        projects[projectsCount].ipfsFileCID = _ipfsFileCID;\r\n\r\n        emit CreateProject(_name, _description, ProjectStatus(_status));\r\n        projectIds.push(projectsCount);\r\n        allProjects.push(S_Project(projectsCount, _name, _description, ProjectStatus(_status), _ipfsFileCID));\r\n        projectsCount++;\r\n    }\r\n\r\n    function getProjectInfo(uint _index)\r\n        external\r\n        view\r\n        returns (S_Project memory)\r\n    {\r\n        return projects[_index];\r\n    }\r\n\r\n    function getAllProjects() public view returns(S_Project[] memory) {\r\n        return allProjects;\r\n    }\r\n\r\n    function getProjectIds() external view returns (uint[] memory) {\r\n        return projectIds;\r\n    }\r\n\r\n    function createUniqueIdentifier(string memory _text, address _addr) public pure returns (bytes32)  {\r\n        return keccak256(abi.encodePacked(_text, _addr));\r\n    }\r\n\r\n    function createUniqueHexAddress(string memory _text, address _addr) public pure returns (address)  {\r\n        return address(uint160(uint256(keccak256(abi.encodePacked(_text, _addr)))));\r\n    }\r\n\r\n    function requestProjectApprovalFromSupervisor(string memory _description, S_Project memory _project, address _subjectAddress) public {\r\n        require(_project.projectStatus == ProjectStatus.Created, \"The project is not created, the operation cannot be done.\");\r\n\r\n        S_Request storage request = supervisorRequests[indexSupervisorRequest];\r\n        request.description = _description;\r\n        request.status = RequestStatus.Unverified;\r\n        request.project = _project;\r\n        request.subjectAddress = _subjectAddress;\r\n\r\n        emit UpdateSupervisorRequestStatus(indexSupervisorRequest, RequestStatus.Unverified, _project, _project.projectStatus, _subjectAddress);\r\n        indexSupervisorRequest++;\r\n    }\r\n\r\n    function requestProjectCompleteFromSupervisor(string memory _description, S_Project memory _project, address _subjectAddress) public {\r\n        require(\r\n            _project.projectStatus == ProjectStatus.BeforeFinalizationCheck,\r\n            \"The project is not in the 'BeforeFinalizationCheck' status, the operation cannot be done.\"\r\n        );\r\n\r\n        S_Request storage request = supervisorRequests[indexSupervisorRequest];\r\n        request.description = _description;\r\n        request.status = RequestStatus.Unverified;\r\n        request.project = _project;\r\n        request.subjectAddress = _subjectAddress;\r\n\r\n        emit UpdateSupervisorRequestStatus(indexSupervisorRequest, RequestStatus.Unverified, _project, _project.projectStatus, _subjectAddress);\r\n        indexSupervisorRequest++;\r\n    }\r\n\r\n    function requestStartProjectToCompanyBuilder(string memory _description, S_Project memory _project, address _subjectAddress) public {\r\n        require(_project.projectStatus == ProjectStatus.Approved, \"The project is not approved, the operation cannot be done.\");\r\n\r\n        S_Request storage request = companyRequests[indexCompanyRequest];\r\n        request.description = _description;\r\n        request.status = RequestStatus.Unverified;\r\n        request.project = _project;\r\n        request.subjectAddress = _subjectAddress;\r\n\r\n        emit UpdateCompanyRequestStatus(indexCompanyRequest, RequestStatus.Unverified, _project, _project.projectStatus, _subjectAddress);\r\n        indexCompanyRequest++;\r\n    }\r\n}",
  "sourcePath": "/mnt/c/users/beniamin/source/repos/dissertationproject/contracts/Project.sol",
  "compiler": {
    "name": "solc",
    "version": "0.8.10+commit.fc410830.Emscripten.clang"
  },
  "schemaVersion": "3.4.3",
  "updatedAt": "2021-11-17T14:48:07.482Z",
  "networkType": "ethereum",
  "devdoc": {
    "kind": "dev",
    "methods": {},
    "version": 1
  },
  "userdoc": {
    "kind": "user",
    "methods": {},
    "version": 1
  }
}