{
  "contractName": "ProjectChain",
  "abi": [
    {
      "inputs": [],
      "stateMutability": "nonpayable",
      "type": "constructor"
    },
    {
      "anonymous": false,
      "inputs": [
        {
          "indexed": false,
          "internalType": "uint256",
          "name": "_index",
          "type": "uint256"
        },
        {
          "indexed": false,
          "internalType": "bytes32",
          "name": "_name",
          "type": "bytes32"
        },
        {
          "indexed": false,
          "internalType": "enum SharedChain.ProjectStatus",
          "name": "_status",
          "type": "uint8"
        },
        {
          "indexed": false,
          "internalType": "bytes32",
          "name": "_ipfsFileCID",
          "type": "bytes32"
        },
        {
          "indexed": false,
          "internalType": "address",
          "name": "_projectAddress",
          "type": "address"
        },
        {
          "indexed": false,
          "internalType": "address",
          "name": "_userAddress",
          "type": "address"
        },
        {
          "indexed": false,
          "internalType": "uint256",
          "name": "_timestamp",
          "type": "uint256"
        }
      ],
      "name": "ProjectEvent",
      "type": "event"
    },
    {
      "anonymous": false,
      "inputs": [
        {
          "indexed": false,
          "internalType": "uint256",
          "name": "_index",
          "type": "uint256"
        },
        {
          "indexed": false,
          "internalType": "bytes32",
          "name": "_title",
          "type": "bytes32"
        },
        {
          "indexed": false,
          "internalType": "bytes32",
          "name": "_comments",
          "type": "bytes32"
        },
        {
          "indexed": false,
          "internalType": "enum SharedChain.ProjectStatus",
          "name": "_status",
          "type": "uint8"
        },
        {
          "indexed": false,
          "internalType": "enum SharedChain.RequestStatus",
          "name": "_requestStatus",
          "type": "uint8"
        },
        {
          "indexed": false,
          "internalType": "address",
          "name": "_projectAddress",
          "type": "address"
        },
        {
          "indexed": false,
          "internalType": "address",
          "name": "_userAddress",
          "type": "address"
        },
        {
          "indexed": false,
          "internalType": "uint256",
          "name": "_timestamp",
          "type": "uint256"
        }
      ],
      "name": "ProjectRequestEvent",
      "type": "event"
    },
    {
      "anonymous": false,
      "inputs": [
        {
          "indexed": false,
          "internalType": "uint256",
          "name": "_index",
          "type": "uint256"
        },
        {
          "indexed": false,
          "internalType": "bytes32",
          "name": "_title",
          "type": "bytes32"
        },
        {
          "indexed": false,
          "internalType": "enum SharedChain.RequestStatus",
          "name": "_status",
          "type": "uint8"
        },
        {
          "indexed": false,
          "internalType": "enum SharedChain.ProjectStatus",
          "name": "_projectStatus",
          "type": "uint8"
        },
        {
          "indexed": false,
          "internalType": "address",
          "name": "_projectAddress",
          "type": "address"
        },
        {
          "indexed": false,
          "internalType": "address",
          "name": "_userAddress",
          "type": "address"
        },
        {
          "indexed": false,
          "internalType": "uint256",
          "name": "_timestamp",
          "type": "uint256"
        }
      ],
      "name": "RequestEvent",
      "type": "event"
    },
    {
      "anonymous": false,
      "inputs": [
        {
          "indexed": false,
          "internalType": "bytes32",
          "name": "_username",
          "type": "bytes32"
        },
        {
          "indexed": false,
          "internalType": "bytes32",
          "name": "_firstname",
          "type": "bytes32"
        },
        {
          "indexed": false,
          "internalType": "bytes32",
          "name": "_lastname",
          "type": "bytes32"
        },
        {
          "indexed": false,
          "internalType": "bytes32",
          "name": "_email",
          "type": "bytes32"
        },
        {
          "indexed": false,
          "internalType": "enum UserChain.Roles",
          "name": "_role",
          "type": "uint8"
        },
        {
          "indexed": false,
          "internalType": "address",
          "name": "_walletAddress",
          "type": "address"
        }
      ],
      "name": "UserChanges",
      "type": "event"
    },
    {
      "anonymous": false,
      "inputs": [
        {
          "indexed": true,
          "internalType": "address",
          "name": "_walletAddress",
          "type": "address"
        },
        {
          "indexed": true,
          "internalType": "bytes32",
          "name": "_username",
          "type": "bytes32"
        },
        {
          "indexed": false,
          "internalType": "bytes32",
          "name": "_email",
          "type": "bytes32"
        },
        {
          "indexed": false,
          "internalType": "bytes32",
          "name": "_firstname",
          "type": "bytes32"
        },
        {
          "indexed": false,
          "internalType": "bytes32",
          "name": "_lastname",
          "type": "bytes32"
        },
        {
          "indexed": true,
          "internalType": "enum UserChain.Roles",
          "name": "_role",
          "type": "uint8"
        }
      ],
      "name": "UserRegistered",
      "type": "event"
    },
    {
      "inputs": [
        {
          "internalType": "uint256",
          "name": "",
          "type": "uint256"
        }
      ],
      "name": "allProjectRequests",
      "outputs": [
        {
          "internalType": "uint256",
          "name": "_index",
          "type": "uint256"
        },
        {
          "internalType": "bytes32",
          "name": "_title",
          "type": "bytes32"
        },
        {
          "internalType": "bytes32",
          "name": "_comments",
          "type": "bytes32"
        },
        {
          "internalType": "enum SharedChain.ProjectStatus",
          "name": "_status",
          "type": "uint8"
        },
        {
          "internalType": "enum SharedChain.RequestStatus",
          "name": "_requestStatus",
          "type": "uint8"
        },
        {
          "internalType": "address",
          "name": "_projectAddress",
          "type": "address"
        },
        {
          "internalType": "address",
          "name": "_userAddress",
          "type": "address"
        }
      ],
      "stateMutability": "view",
      "type": "function",
      "constant": true
    },
    {
      "inputs": [
        {
          "internalType": "uint256",
          "name": "",
          "type": "uint256"
        }
      ],
      "name": "allProjects",
      "outputs": [
        {
          "internalType": "uint256",
          "name": "_index",
          "type": "uint256"
        },
        {
          "internalType": "bytes32",
          "name": "_name",
          "type": "bytes32"
        },
        {
          "internalType": "enum SharedChain.ProjectStatus",
          "name": "_status",
          "type": "uint8"
        },
        {
          "internalType": "bytes32",
          "name": "_ipfsFileCID",
          "type": "bytes32"
        },
        {
          "internalType": "address",
          "name": "_projectAddress",
          "type": "address"
        },
        {
          "internalType": "address",
          "name": "_userAddress",
          "type": "address"
        }
      ],
      "stateMutability": "view",
      "type": "function",
      "constant": true
    },
    {
      "inputs": [
        {
          "internalType": "uint256",
          "name": "",
          "type": "uint256"
        }
      ],
      "name": "allRequests",
      "outputs": [
        {
          "internalType": "uint256",
          "name": "_index",
          "type": "uint256"
        },
        {
          "internalType": "bytes32",
          "name": "_title",
          "type": "bytes32"
        },
        {
          "internalType": "enum SharedChain.RequestStatus",
          "name": "_requestStatus",
          "type": "uint8"
        },
        {
          "internalType": "enum SharedChain.ProjectStatus",
          "name": "_projectStatus",
          "type": "uint8"
        },
        {
          "internalType": "address",
          "name": "_projectAddress",
          "type": "address"
        },
        {
          "internalType": "address",
          "name": "_userAddress",
          "type": "address"
        }
      ],
      "stateMutability": "view",
      "type": "function",
      "constant": true
    },
    {
      "inputs": [
        {
          "internalType": "uint256",
          "name": "",
          "type": "uint256"
        }
      ],
      "name": "allUsers",
      "outputs": [
        {
          "internalType": "uint256",
          "name": "_index",
          "type": "uint256"
        },
        {
          "internalType": "bytes32",
          "name": "_username",
          "type": "bytes32"
        },
        {
          "internalType": "bytes32",
          "name": "_email",
          "type": "bytes32"
        },
        {
          "internalType": "bytes32",
          "name": "_firstname",
          "type": "bytes32"
        },
        {
          "internalType": "bytes32",
          "name": "_lastname",
          "type": "bytes32"
        },
        {
          "internalType": "enum UserChain.Roles",
          "name": "_role",
          "type": "uint8"
        },
        {
          "internalType": "address",
          "name": "_walletAddress",
          "type": "address"
        }
      ],
      "stateMutability": "view",
      "type": "function",
      "constant": true
    },
    {
      "inputs": [
        {
          "internalType": "uint256",
          "name": "_role",
          "type": "uint256"
        },
        {
          "internalType": "address",
          "name": "_walletAddress",
          "type": "address"
        }
      ],
      "name": "changeUserRole",
      "outputs": [],
      "stateMutability": "nonpayable",
      "type": "function"
    },
    {
      "inputs": [],
      "name": "getAllUsers",
      "outputs": [
        {
          "components": [
            {
              "internalType": "uint256",
              "name": "_index",
              "type": "uint256"
            },
            {
              "internalType": "bytes32",
              "name": "_username",
              "type": "bytes32"
            },
            {
              "internalType": "bytes32",
              "name": "_email",
              "type": "bytes32"
            },
            {
              "internalType": "bytes32",
              "name": "_firstname",
              "type": "bytes32"
            },
            {
              "internalType": "bytes32",
              "name": "_lastname",
              "type": "bytes32"
            },
            {
              "internalType": "enum UserChain.Roles",
              "name": "_role",
              "type": "uint8"
            },
            {
              "internalType": "address",
              "name": "_walletAddress",
              "type": "address"
            }
          ],
          "internalType": "struct UserChain.User[]",
          "name": "",
          "type": "tuple[]"
        }
      ],
      "stateMutability": "view",
      "type": "function",
      "constant": true
    },
    {
      "inputs": [
        {
          "internalType": "address",
          "name": "_walletAddress",
          "type": "address"
        }
      ],
      "name": "getUserInfo",
      "outputs": [
        {
          "components": [
            {
              "internalType": "uint256",
              "name": "_index",
              "type": "uint256"
            },
            {
              "internalType": "bytes32",
              "name": "_username",
              "type": "bytes32"
            },
            {
              "internalType": "bytes32",
              "name": "_email",
              "type": "bytes32"
            },
            {
              "internalType": "bytes32",
              "name": "_firstname",
              "type": "bytes32"
            },
            {
              "internalType": "bytes32",
              "name": "_lastname",
              "type": "bytes32"
            },
            {
              "internalType": "enum UserChain.Roles",
              "name": "_role",
              "type": "uint8"
            },
            {
              "internalType": "address",
              "name": "_walletAddress",
              "type": "address"
            }
          ],
          "internalType": "struct UserChain.User",
          "name": "",
          "type": "tuple"
        }
      ],
      "stateMutability": "view",
      "type": "function",
      "constant": true
    },
    {
      "inputs": [],
      "name": "owner",
      "outputs": [
        {
          "internalType": "address",
          "name": "",
          "type": "address"
        }
      ],
      "stateMutability": "view",
      "type": "function",
      "constant": true
    },
    {
      "inputs": [
        {
          "internalType": "address",
          "name": "",
          "type": "address"
        }
      ],
      "name": "projectRequests",
      "outputs": [
        {
          "internalType": "uint256",
          "name": "_index",
          "type": "uint256"
        },
        {
          "internalType": "bytes32",
          "name": "_title",
          "type": "bytes32"
        },
        {
          "internalType": "bytes32",
          "name": "_comments",
          "type": "bytes32"
        },
        {
          "internalType": "enum SharedChain.ProjectStatus",
          "name": "_status",
          "type": "uint8"
        },
        {
          "internalType": "enum SharedChain.RequestStatus",
          "name": "_requestStatus",
          "type": "uint8"
        },
        {
          "internalType": "address",
          "name": "_projectAddress",
          "type": "address"
        },
        {
          "internalType": "address",
          "name": "_userAddress",
          "type": "address"
        }
      ],
      "stateMutability": "view",
      "type": "function",
      "constant": true
    },
    {
      "inputs": [],
      "name": "projectRequestsCounter",
      "outputs": [
        {
          "internalType": "uint256",
          "name": "",
          "type": "uint256"
        }
      ],
      "stateMutability": "view",
      "type": "function",
      "constant": true
    },
    {
      "inputs": [
        {
          "internalType": "address",
          "name": "",
          "type": "address"
        }
      ],
      "name": "projects",
      "outputs": [
        {
          "internalType": "uint256",
          "name": "_index",
          "type": "uint256"
        },
        {
          "internalType": "bytes32",
          "name": "_name",
          "type": "bytes32"
        },
        {
          "internalType": "enum SharedChain.ProjectStatus",
          "name": "_status",
          "type": "uint8"
        },
        {
          "internalType": "bytes32",
          "name": "_ipfsFileCID",
          "type": "bytes32"
        },
        {
          "internalType": "address",
          "name": "_projectAddress",
          "type": "address"
        },
        {
          "internalType": "address",
          "name": "_userAddress",
          "type": "address"
        }
      ],
      "stateMutability": "view",
      "type": "function",
      "constant": true
    },
    {
      "inputs": [],
      "name": "projectsCounter",
      "outputs": [
        {
          "internalType": "uint256",
          "name": "",
          "type": "uint256"
        }
      ],
      "stateMutability": "view",
      "type": "function",
      "constant": true
    },
    {
      "inputs": [
        {
          "internalType": "bytes32",
          "name": "_username",
          "type": "bytes32"
        },
        {
          "internalType": "bytes32",
          "name": "_email",
          "type": "bytes32"
        },
        {
          "internalType": "bytes32",
          "name": "_firstname",
          "type": "bytes32"
        },
        {
          "internalType": "bytes32",
          "name": "_lastname",
          "type": "bytes32"
        },
        {
          "internalType": "uint256",
          "name": "_role",
          "type": "uint256"
        },
        {
          "internalType": "address",
          "name": "_walletAddress",
          "type": "address"
        }
      ],
      "name": "registerUser",
      "outputs": [],
      "stateMutability": "nonpayable",
      "type": "function"
    },
    {
      "inputs": [
        {
          "internalType": "uint256",
          "name": "",
          "type": "uint256"
        }
      ],
      "name": "requests",
      "outputs": [
        {
          "internalType": "uint256",
          "name": "_index",
          "type": "uint256"
        },
        {
          "internalType": "bytes32",
          "name": "_title",
          "type": "bytes32"
        },
        {
          "internalType": "enum SharedChain.RequestStatus",
          "name": "_requestStatus",
          "type": "uint8"
        },
        {
          "internalType": "enum SharedChain.ProjectStatus",
          "name": "_projectStatus",
          "type": "uint8"
        },
        {
          "internalType": "address",
          "name": "_projectAddress",
          "type": "address"
        },
        {
          "internalType": "address",
          "name": "_userAddress",
          "type": "address"
        }
      ],
      "stateMutability": "view",
      "type": "function",
      "constant": true
    },
    {
      "inputs": [],
      "name": "requestsCounter",
      "outputs": [
        {
          "internalType": "uint256",
          "name": "",
          "type": "uint256"
        }
      ],
      "stateMutability": "view",
      "type": "function",
      "constant": true
    },
    {
      "inputs": [
        {
          "internalType": "address",
          "name": "",
          "type": "address"
        }
      ],
      "name": "users",
      "outputs": [
        {
          "internalType": "uint256",
          "name": "_index",
          "type": "uint256"
        },
        {
          "internalType": "bytes32",
          "name": "_username",
          "type": "bytes32"
        },
        {
          "internalType": "bytes32",
          "name": "_email",
          "type": "bytes32"
        },
        {
          "internalType": "bytes32",
          "name": "_firstname",
          "type": "bytes32"
        },
        {
          "internalType": "bytes32",
          "name": "_lastname",
          "type": "bytes32"
        },
        {
          "internalType": "enum UserChain.Roles",
          "name": "_role",
          "type": "uint8"
        },
        {
          "internalType": "address",
          "name": "_walletAddress",
          "type": "address"
        }
      ],
      "stateMutability": "view",
      "type": "function",
      "constant": true
    },
    {
      "inputs": [],
      "name": "usersCounter",
      "outputs": [
        {
          "internalType": "uint256",
          "name": "",
          "type": "uint256"
        }
      ],
      "stateMutability": "view",
      "type": "function",
      "constant": true
    },
    {
      "inputs": [
        {
          "internalType": "string",
          "name": "_text",
          "type": "string"
        },
        {
          "internalType": "uint256",
          "name": "_index",
          "type": "uint256"
        }
      ],
      "name": "createUniqueHexAddress",
      "outputs": [
        {
          "internalType": "address",
          "name": "",
          "type": "address"
        }
      ],
      "stateMutability": "view",
      "type": "function",
      "constant": true
    },
    {
      "inputs": [
        {
          "internalType": "bytes32",
          "name": "_name",
          "type": "bytes32"
        },
        {
          "internalType": "uint256",
          "name": "_status",
          "type": "uint256"
        },
        {
          "internalType": "bytes32",
          "name": "_ipfsFileCID",
          "type": "bytes32"
        }
      ],
      "name": "createProject",
      "outputs": [],
      "stateMutability": "nonpayable",
      "type": "function"
    },
    {
      "inputs": [
        {
          "internalType": "address",
          "name": "_address",
          "type": "address"
        }
      ],
      "name": "getProjectInfo",
      "outputs": [
        {
          "components": [
            {
              "internalType": "uint256",
              "name": "_index",
              "type": "uint256"
            },
            {
              "internalType": "bytes32",
              "name": "_name",
              "type": "bytes32"
            },
            {
              "internalType": "enum SharedChain.ProjectStatus",
              "name": "_status",
              "type": "uint8"
            },
            {
              "internalType": "bytes32",
              "name": "_ipfsFileCID",
              "type": "bytes32"
            },
            {
              "internalType": "address",
              "name": "_projectAddress",
              "type": "address"
            },
            {
              "internalType": "address",
              "name": "_userAddress",
              "type": "address"
            }
          ],
          "internalType": "struct SharedChain.Project",
          "name": "",
          "type": "tuple"
        }
      ],
      "stateMutability": "view",
      "type": "function",
      "constant": true
    },
    {
      "inputs": [],
      "name": "getAllProjects",
      "outputs": [
        {
          "components": [
            {
              "internalType": "uint256",
              "name": "_index",
              "type": "uint256"
            },
            {
              "internalType": "bytes32",
              "name": "_name",
              "type": "bytes32"
            },
            {
              "internalType": "enum SharedChain.ProjectStatus",
              "name": "_status",
              "type": "uint8"
            },
            {
              "internalType": "bytes32",
              "name": "_ipfsFileCID",
              "type": "bytes32"
            },
            {
              "internalType": "address",
              "name": "_projectAddress",
              "type": "address"
            },
            {
              "internalType": "address",
              "name": "_userAddress",
              "type": "address"
            }
          ],
          "internalType": "struct SharedChain.Project[]",
          "name": "",
          "type": "tuple[]"
        }
      ],
      "stateMutability": "view",
      "type": "function",
      "constant": true
    },
    {
      "inputs": [
        {
          "internalType": "bytes32",
          "name": "_title",
          "type": "bytes32"
        },
        {
          "internalType": "uint256",
          "name": "_status",
          "type": "uint256"
        },
        {
          "internalType": "uint256",
          "name": "_requestStatus",
          "type": "uint256"
        },
        {
          "internalType": "address",
          "name": "_projectAddress",
          "type": "address"
        }
      ],
      "name": "createProjectRequest",
      "outputs": [],
      "stateMutability": "nonpayable",
      "type": "function"
    },
    {
      "inputs": [],
      "name": "getAllProjectRequests",
      "outputs": [
        {
          "components": [
            {
              "internalType": "uint256",
              "name": "_index",
              "type": "uint256"
            },
            {
              "internalType": "bytes32",
              "name": "_title",
              "type": "bytes32"
            },
            {
              "internalType": "bytes32",
              "name": "_comments",
              "type": "bytes32"
            },
            {
              "internalType": "enum SharedChain.ProjectStatus",
              "name": "_status",
              "type": "uint8"
            },
            {
              "internalType": "enum SharedChain.RequestStatus",
              "name": "_requestStatus",
              "type": "uint8"
            },
            {
              "internalType": "address",
              "name": "_projectAddress",
              "type": "address"
            },
            {
              "internalType": "address",
              "name": "_userAddress",
              "type": "address"
            }
          ],
          "internalType": "struct SharedChain.ProjectRequest[]",
          "name": "",
          "type": "tuple[]"
        }
      ],
      "stateMutability": "view",
      "type": "function",
      "constant": true
    },
    {
      "inputs": [
        {
          "internalType": "bytes32",
          "name": "_title",
          "type": "bytes32"
        },
        {
          "internalType": "uint256",
          "name": "_requestStatus",
          "type": "uint256"
        },
        {
          "internalType": "uint256",
          "name": "_projectStatus",
          "type": "uint256"
        },
        {
          "internalType": "address",
          "name": "_projectAddress",
          "type": "address"
        }
      ],
      "name": "createRequest",
      "outputs": [],
      "stateMutability": "nonpayable",
      "type": "function"
    },
    {
      "inputs": [
        {
          "internalType": "uint256",
          "name": "_requestStatus",
          "type": "uint256"
        },
        {
          "internalType": "uint256",
          "name": "_index",
          "type": "uint256"
        }
      ],
      "name": "updateRequest",
      "outputs": [],
      "stateMutability": "nonpayable",
      "type": "function"
    },
    {
      "inputs": [],
      "name": "getAllRequests",
      "outputs": [
        {
          "components": [
            {
              "internalType": "uint256",
              "name": "_index",
              "type": "uint256"
            },
            {
              "internalType": "bytes32",
              "name": "_title",
              "type": "bytes32"
            },
            {
              "internalType": "enum SharedChain.RequestStatus",
              "name": "_requestStatus",
              "type": "uint8"
            },
            {
              "internalType": "enum SharedChain.ProjectStatus",
              "name": "_projectStatus",
              "type": "uint8"
            },
            {
              "internalType": "address",
              "name": "_projectAddress",
              "type": "address"
            },
            {
              "internalType": "address",
              "name": "_userAddress",
              "type": "address"
            }
          ],
          "internalType": "struct SharedChain.Request[]",
          "name": "",
          "type": "tuple[]"
        }
      ],
      "stateMutability": "view",
      "type": "function",
      "constant": true
    }
  ],
  "bytecode": "0x60806040526000600355600060065560006009556000600c5534801561002457600080fd5b50336000806101000a81548173ffffffffffffffffffffffffffffffffffffffff021916908373ffffffffffffffffffffffffffffffffffffffff16021790555033600460006101000a81548173ffffffffffffffffffffffffffffffffffffffff021916908373ffffffffffffffffffffffffffffffffffffffff160217905550613c34806100b56000396000f3fe608060405234801561001057600080fd5b506004361061018e5760003560e01c80638da5cb5b116100de578063cc1ee4db11610097578063e2842d7911610071578063e2842d791461050f578063e9fcdf101461052d578063fb1a002a14610549578063fe360ea5146105675761018e565b8063cc1ee4db146104b7578063d67b1b99146104d5578063d892e4c8146104f35761018e565b80638da5cb5b146103c057806391009786146103de5780639bf4ec2f146103fa578063a2bdedf41461042f578063a87430ba14610465578063acf60a211461049b5761018e565b806363c163c41161014b57806380d038291161012557806380d038291461030857806381d12c5814610326578063840e78fd1461035b57806384afb5bb146103905761018e565b806363c163c41461027e578063663c2269146102b45780637e571188146102d25761018e565b8063400003db1461019357806341f4afcf146101b157806347ee45b9146101cd57806353b3194c146101fd5780635cdb4642146102325780636386c1c71461024e575b600080fd5b61019b610585565b6040516101a89190612bfb565b60405180910390f35b6101cb60048036038101906101c69190612c89565b610724565b005b6101e760048036038101906101e29190612d08565b610c21565b6040516101f49190612db0565b60405180910390f35b61021760048036038101906102129190612dcb565b610d7f565b60405161022996959493929190612e34565b60405180910390f35b61024c60048036038101906102479190612e95565b610e18565b005b61026860048036038101906102639190612d08565b610ee7565b6040516102759190612fab565b60405180910390f35b61029860048036038101906102939190612d08565b611003565b6040516102ab9796959493929190612fd5565b60405180910390f35b6102bc61109f565b6040516102c99190613044565b60405180910390f35b6102ec60048036038101906102e79190612dcb565b6110a5565b6040516102ff9796959493929190612fd5565b60405180910390f35b610310611151565b60405161031d9190613189565b60405180910390f35b610340600480360381019061033b9190612dcb565b6112b5565b604051610352969594939291906131ab565b60405180910390f35b61037560048036038101906103709190612d08565b61134b565b60405161038796959493929190612e34565b60405180910390f35b6103aa60048036038101906103a59190613352565b6113d4565b6040516103b791906133ae565b60405180910390f35b6103c861142e565b6040516103d591906133ae565b60405180910390f35b6103f860048036038101906103f391906133c9565b611452565b005b610414600480360381019061040f9190612dcb565b611579565b604051610426969594939291906131ab565b60405180910390f35b61044960048036038101906104449190612dcb565b61161f565b60405161045c9796959493929190613418565b60405180910390f35b61047f600480360381019061047a9190612d08565b61169e565b6040516104929796959493929190613418565b60405180910390f35b6104b560048036038101906104b09190613487565b61170d565b005b6104bf611b5a565b6040516104cc9190613044565b60405180910390f35b6104dd611b60565b6040516104ea9190613044565b60405180910390f35b61050d600480360381019061050891906134ee565b611b66565b005b610517612033565b60405161052491906136b8565b60405180910390f35b61054760048036038101906105429190613487565b612155565b005b610551612706565b60405161055e9190613804565b60405180910390f35b61056f61289b565b60405161057c9190613044565b60405180910390f35b6060600a805480602002602001604051908101604052809291908181526020016000905b8282101561071b57838290600052602060002090600502016040518060e00160405290816000820154815260200160018201548152602001600282015481526020016003820160009054906101000a900460ff16600481111561060f5761060e6129ea565b5b6004811115610621576106206129ea565b5b81526020016003820160019054906101000a900460ff16600281111561064a576106496129ea565b5b600281111561065c5761065b6129ea565b5b81526020016003820160029054906101000a900473ffffffffffffffffffffffffffffffffffffffff1673ffffffffffffffffffffffffffffffffffffffff1673ffffffffffffffffffffffffffffffffffffffff1681526020016004820160009054906101000a900473ffffffffffffffffffffffffffffffffffffffff1673ffffffffffffffffffffffffffffffffffffffff1673ffffffffffffffffffffffffffffffffffffffff1681525050815260200190600101906105a9565b50505050905090565b60006107676040518060400160405280601a81526020017f6373643f534073616c61733b646c413233345f442e3b735f61730000000000008152506006546113d4565b9050600654600560008373ffffffffffffffffffffffffffffffffffffffff1673ffffffffffffffffffffffffffffffffffffffff1681526020019081526020016000206000018190555083600560008373ffffffffffffffffffffffffffffffffffffffff1673ffffffffffffffffffffffffffffffffffffffff1681526020019081526020016000206001018190555082600481111561080c5761080b6129ea565b5b600560008373ffffffffffffffffffffffffffffffffffffffff1673ffffffffffffffffffffffffffffffffffffffff16815260200190815260200160002060020160006101000a81548160ff021916908360048111156108705761086f6129ea565b5b021790555081600560008373ffffffffffffffffffffffffffffffffffffffff1673ffffffffffffffffffffffffffffffffffffffff1681526020019081526020016000206003018190555080600560008373ffffffffffffffffffffffffffffffffffffffff1673ffffffffffffffffffffffffffffffffffffffff16815260200190815260200160002060040160006101000a81548173ffffffffffffffffffffffffffffffffffffffff021916908373ffffffffffffffffffffffffffffffffffffffff160217905550600460009054906101000a900473ffffffffffffffffffffffffffffffffffffffff16600560008373ffffffffffffffffffffffffffffffffffffffff1673ffffffffffffffffffffffffffffffffffffffff16815260200190815260200160002060050160006101000a81548173ffffffffffffffffffffffffffffffffffffffff021916908373ffffffffffffffffffffffffffffffffffffffff1602179055507f552f038e6c0b56f2100d2fefdf705cd5e2ac61dfd1d9f2f65d3e577eaef3081660065485856004811115610a1857610a176129ea565b5b8585600460009054906101000a900473ffffffffffffffffffffffffffffffffffffffff1642604051610a519796959493929190613826565b60405180910390a160076040518060c001604052806006548152602001868152602001856004811115610a8757610a866129ea565b5b6004811115610a9957610a986129ea565b5b81526020018481526020018373ffffffffffffffffffffffffffffffffffffffff168152602001600460009054906101000a900473ffffffffffffffffffffffffffffffffffffffff1673ffffffffffffffffffffffffffffffffffffffff168152509080600181540180825580915050600190039060005260206000209060060201600090919091909150600082015181600001556020820151816001015560408201518160020160006101000a81548160ff02191690836004811115610b6457610b636129ea565b5b02179055506060820151816003015560808201518160040160006101000a81548173ffffffffffffffffffffffffffffffffffffffff021916908373ffffffffffffffffffffffffffffffffffffffff16021790555060a08201518160050160006101000a81548173ffffffffffffffffffffffffffffffffffffffff021916908373ffffffffffffffffffffffffffffffffffffffff160217905550505060066000815480929190610c16906138c4565b919050555050505050565b610c296128a1565b600560008373ffffffffffffffffffffffffffffffffffffffff1673ffffffffffffffffffffffffffffffffffffffff1681526020019081526020016000206040518060c001604052908160008201548152602001600182015481526020016002820160009054906101000a900460ff166004811115610cac57610cab6129ea565b5b6004811115610cbe57610cbd6129ea565b5b8152602001600382015481526020016004820160009054906101000a900473ffffffffffffffffffffffffffffffffffffffff1673ffffffffffffffffffffffffffffffffffffffff1673ffffffffffffffffffffffffffffffffffffffff1681526020016005820160009054906101000a900473ffffffffffffffffffffffffffffffffffffffff1673ffffffffffffffffffffffffffffffffffffffff1673ffffffffffffffffffffffffffffffffffffffff16815250509050919050565b60078181548110610d8f57600080fd5b90600052602060002090600602016000915090508060000154908060010154908060020160009054906101000a900460ff16908060030154908060040160009054906101000a900473ffffffffffffffffffffffffffffffffffffffff16908060050160009054906101000a900473ffffffffffffffffffffffffffffffffffffffff16905086565b816002811115610e2b57610e2a6129ea565b5b600b600083815260200190815260200160002060020160006101000a81548160ff02191690836002811115610e6357610e626129ea565b5b02179055506000600b6000838152602001908152602001600020600001549050826002811115610e9657610e956129ea565b5b600d8281548110610eaa57610ea961390d565b5b906000526020600020906004020160020160006101000a81548160ff02191690836002811115610edd57610edc6129ea565b5b0217905550505050565b610eef61291b565b600160008373ffffffffffffffffffffffffffffffffffffffff1673ffffffffffffffffffffffffffffffffffffffff1681526020019081526020016000206040518060e001604052908160008201548152602001600182015481526020016002820154815260200160038201548152602001600482015481526020016005820160009054906101000a900460ff166003811115610f9057610f8f6129ea565b5b6003811115610fa257610fa16129ea565b5b81526020016005820160019054906101000a900473ffffffffffffffffffffffffffffffffffffffff1673ffffffffffffffffffffffffffffffffffffffff1673ffffffffffffffffffffffffffffffffffffffff16815250509050919050565b60086020528060005260406000206000915090508060000154908060010154908060020154908060030160009054906101000a900460ff16908060030160019054906101000a900460ff16908060030160029054906101000a900473ffffffffffffffffffffffffffffffffffffffff16908060040160009054906101000a900473ffffffffffffffffffffffffffffffffffffffff16905087565b600c5481565b600a81815481106110b557600080fd5b90600052602060002090600502016000915090508060000154908060010154908060020154908060030160009054906101000a900460ff16908060030160019054906101000a900460ff16908060030160029054906101000a900473ffffffffffffffffffffffffffffffffffffffff16908060040160009054906101000a900473ffffffffffffffffffffffffffffffffffffffff16905087565b60606007805480602002602001604051908101604052809291908181526020016000905b828210156112ac57838290600052602060002090600602016040518060c001604052908160008201548152602001600182015481526020016002820160009054906101000a900460ff1660048111156111d1576111d06129ea565b5b60048111156111e3576111e26129ea565b5b8152602001600382015481526020016004820160009054906101000a900473ffffffffffffffffffffffffffffffffffffffff1673ffffffffffffffffffffffffffffffffffffffff1673ffffffffffffffffffffffffffffffffffffffff1681526020016005820160009054906101000a900473ffffffffffffffffffffffffffffffffffffffff1673ffffffffffffffffffffffffffffffffffffffff1673ffffffffffffffffffffffffffffffffffffffff168152505081526020019060010190611175565b50505050905090565b600b6020528060005260406000206000915090508060000154908060010154908060020160009054906101000a900460ff16908060020160019054906101000a900460ff16908060020160029054906101000a900473ffffffffffffffffffffffffffffffffffffffff16908060030160009054906101000a900473ffffffffffffffffffffffffffffffffffffffff16905086565b60056020528060005260406000206000915090508060000154908060010154908060020160009054906101000a900460ff16908060030154908060040160009054906101000a900473ffffffffffffffffffffffffffffffffffffffff16908060050160009054906101000a900473ffffffffffffffffffffffffffffffffffffffff16905086565b600082600460009054906101000a900473ffffffffffffffffffffffffffffffffffffffff168360405160200161140d93929190613a1f565b6040516020818303038152906040528051906020012060001c905092915050565b60008054906101000a900473ffffffffffffffffffffffffffffffffffffffff1681565b816003811115611465576114646129ea565b5b600160008373ffffffffffffffffffffffffffffffffffffffff1673ffffffffffffffffffffffffffffffffffffffff16815260200190815260200160002060050160006101000a81548160ff021916908360038111156114c9576114c86129ea565b5b02179055506000600160008373ffffffffffffffffffffffffffffffffffffffff1673ffffffffffffffffffffffffffffffffffffffff168152602001908152602001600020600001549050826003811115611528576115276129ea565b5b6002828154811061153c5761153b61390d565b5b906000526020600020906006020160050160006101000a81548160ff0219169083600381111561156f5761156e6129ea565b5b0217905550505050565b600d818154811061158957600080fd5b90600052602060002090600402016000915090508060000154908060010154908060020160009054906101000a900460ff16908060020160019054906101000a900460ff16908060020160029054906101000a900473ffffffffffffffffffffffffffffffffffffffff16908060030160009054906101000a900473ffffffffffffffffffffffffffffffffffffffff16905086565b6002818154811061162f57600080fd5b90600052602060002090600602016000915090508060000154908060010154908060020154908060030154908060040154908060050160009054906101000a900460ff16908060050160019054906101000a900473ffffffffffffffffffffffffffffffffffffffff16905087565b60016020528060005260406000206000915090508060000154908060010154908060020154908060030154908060040154908060050160009054906101000a900460ff16908060050160019054906101000a900473ffffffffffffffffffffffffffffffffffffffff16905087565b600c54600b6000600c5481526020019081526020016000206000018190555083600b6000600c5481526020019081526020016000206001018190555082600281111561175c5761175b6129ea565b5b600b6000600c54815260200190815260200160002060020160006101000a81548160ff02191690836002811115611796576117956129ea565b5b02179055508160048111156117ae576117ad6129ea565b5b600b6000600c54815260200190815260200160002060020160016101000a81548160ff021916908360048111156117e8576117e76129ea565b5b021790555080600b6000600c54815260200190815260200160002060020160026101000a81548173ffffffffffffffffffffffffffffffffffffffff021916908373ffffffffffffffffffffffffffffffffffffffff160217905550600460009054906101000a900473ffffffffffffffffffffffffffffffffffffffff16600b6000600c54815260200190815260200160002060030160006101000a81548173ffffffffffffffffffffffffffffffffffffffff021916908373ffffffffffffffffffffffffffffffffffffffff1602179055507fa37382c33b9b24804052be2a7acff5b9a3825a23f2aa5762318ee66b171cf84d600c54858560028111156118f5576118f46129ea565b5b856004811115611908576119076129ea565b5b85600460009054906101000a900473ffffffffffffffffffffffffffffffffffffffff16426040516119409796959493929190613a58565b60405180910390a1600d6040518060c00160405280600c548152602001868152602001856002811115611976576119756129ea565b5b6002811115611988576119876129ea565b5b81526020018460048111156119a05761199f6129ea565b5b60048111156119b2576119b16129ea565b5b81526020018373ffffffffffffffffffffffffffffffffffffffff168152602001600460009054906101000a900473ffffffffffffffffffffffffffffffffffffffff1673ffffffffffffffffffffffffffffffffffffffff168152509080600181540180825580915050600190039060005260206000209060040201600090919091909150600082015181600001556020820151816001015560408201518160020160006101000a81548160ff02191690836002811115611a7757611a766129ea565b5b021790555060608201518160020160016101000a81548160ff02191690836004811115611aa757611aa66129ea565b5b021790555060808201518160020160026101000a81548173ffffffffffffffffffffffffffffffffffffffff021916908373ffffffffffffffffffffffffffffffffffffffff16021790555060a08201518160030160006101000a81548173ffffffffffffffffffffffffffffffffffffffff021916908373ffffffffffffffffffffffffffffffffffffffff1602179055505050600c6000815480929190611b4f906138c4565b919050555050505050565b60095481565b60035481565b3373ffffffffffffffffffffffffffffffffffffffff1660008054906101000a900473ffffffffffffffffffffffffffffffffffffffff1673ffffffffffffffffffffffffffffffffffffffff1614611bf4576040517f08c379a0000000000000000000000000000000000000000000000000000000008152600401611beb90613b24565b60405180910390fd5b600354600160008373ffffffffffffffffffffffffffffffffffffffff1673ffffffffffffffffffffffffffffffffffffffff1681526020019081526020016000206000018190555085600160008373ffffffffffffffffffffffffffffffffffffffff1673ffffffffffffffffffffffffffffffffffffffff1681526020019081526020016000206001018190555084600160008373ffffffffffffffffffffffffffffffffffffffff1673ffffffffffffffffffffffffffffffffffffffff1681526020019081526020016000206002018190555083600160008373ffffffffffffffffffffffffffffffffffffffff1673ffffffffffffffffffffffffffffffffffffffff1681526020019081526020016000206003018190555082600160008373ffffffffffffffffffffffffffffffffffffffff1673ffffffffffffffffffffffffffffffffffffffff16815260200190815260200160002060040181905550816003811115611d6c57611d6b6129ea565b5b600160008373ffffffffffffffffffffffffffffffffffffffff1673ffffffffffffffffffffffffffffffffffffffff16815260200190815260200160002060050160006101000a81548160ff02191690836003811115611dd057611dcf6129ea565b5b021790555080600160008373ffffffffffffffffffffffffffffffffffffffff1673ffffffffffffffffffffffffffffffffffffffff16815260200190815260200160002060050160016101000a81548173ffffffffffffffffffffffffffffffffffffffff021916908373ffffffffffffffffffffffffffffffffffffffff160217905550816003811115611e6957611e686129ea565b5b6003811115611e7b57611e7a6129ea565b5b868273ffffffffffffffffffffffffffffffffffffffff167fbeea9d474a1b3ffdbc323f82fd679909c87968191b551f189f010d992cc34d95888888604051611ec693929190613b44565b60405180910390a460026040518060e001604052806003548152602001888152602001878152602001868152602001858152602001846003811115611f0e57611f0d6129ea565b5b6003811115611f2057611f1f6129ea565b5b81526020018373ffffffffffffffffffffffffffffffffffffffff168152509080600181540180825580915050600190039060005260206000209060060201600090919091909150600082015181600001556020820151816001015560408201518160020155606082015181600301556080820151816004015560a08201518160050160006101000a81548160ff02191690836003811115611fc557611fc46129ea565b5b021790555060c08201518160050160016101000a81548173ffffffffffffffffffffffffffffffffffffffff021916908373ffffffffffffffffffffffffffffffffffffffff160217905550505060036000815480929190612026906138c4565b9190505550505050505050565b60606002805480602002602001604051908101604052809291908181526020016000905b8282101561214c57838290600052602060002090600602016040518060e001604052908160008201548152602001600182015481526020016002820154815260200160038201548152602001600482015481526020016005820160009054906101000a900460ff1660038111156120d1576120d06129ea565b5b60038111156120e3576120e26129ea565b5b81526020016005820160019054906101000a900473ffffffffffffffffffffffffffffffffffffffff1673ffffffffffffffffffffffffffffffffffffffff1673ffffffffffffffffffffffffffffffffffffffff168152505081526020019060010190612057565b50505050905090565b600954600860008373ffffffffffffffffffffffffffffffffffffffff1673ffffffffffffffffffffffffffffffffffffffff1681526020019081526020016000206000018190555083600860008373ffffffffffffffffffffffffffffffffffffffff1673ffffffffffffffffffffffffffffffffffffffff168152602001908152602001600020600101819055506000600860008373ffffffffffffffffffffffffffffffffffffffff1673ffffffffffffffffffffffffffffffffffffffff168152602001908152602001600020600201819055508260048111156122405761223f6129ea565b5b600860008373ffffffffffffffffffffffffffffffffffffffff1673ffffffffffffffffffffffffffffffffffffffff16815260200190815260200160002060030160006101000a81548160ff021916908360048111156122a4576122a36129ea565b5b02179055508160028111156122bc576122bb6129ea565b5b600860008373ffffffffffffffffffffffffffffffffffffffff1673ffffffffffffffffffffffffffffffffffffffff16815260200190815260200160002060030160016101000a81548160ff021916908360028111156123205761231f6129ea565b5b021790555080600860008373ffffffffffffffffffffffffffffffffffffffff1673ffffffffffffffffffffffffffffffffffffffff16815260200190815260200160002060030160026101000a81548173ffffffffffffffffffffffffffffffffffffffff021916908373ffffffffffffffffffffffffffffffffffffffff160217905550600460009054906101000a900473ffffffffffffffffffffffffffffffffffffffff16600860008373ffffffffffffffffffffffffffffffffffffffff1673ffffffffffffffffffffffffffffffffffffffff16815260200190815260200160002060040160006101000a81548173ffffffffffffffffffffffffffffffffffffffff021916908373ffffffffffffffffffffffffffffffffffffffff1602179055506124558484848461170d565b7f691a31aa01fb39e416c4372502b8c4538487c2e9cbec6631ca633ee15a2664a16009548585600481111561248d5761248c6129ea565b5b8560028111156124a05761249f6129ea565b5b85600460009054906101000a900473ffffffffffffffffffffffffffffffffffffffff16426040516124d89796959493929190613b82565b60405180910390a1600a6040518060e00160405280600954815260200186815260200160008019168152602001856004811115612518576125176129ea565b5b600481111561252a576125296129ea565b5b8152602001846002811115612542576125416129ea565b5b6002811115612554576125536129ea565b5b81526020018373ffffffffffffffffffffffffffffffffffffffff168152602001600460009054906101000a900473ffffffffffffffffffffffffffffffffffffffff1673ffffffffffffffffffffffffffffffffffffffff16815250908060018154018082558091505060019003906000526020600020906005020160009091909190915060008201518160000155602082015181600101556040820151816002015560608201518160030160006101000a81548160ff02191690836004811115612623576126226129ea565b5b021790555060808201518160030160016101000a81548160ff02191690836002811115612653576126526129ea565b5b021790555060a08201518160030160026101000a81548173ffffffffffffffffffffffffffffffffffffffff021916908373ffffffffffffffffffffffffffffffffffffffff16021790555060c08201518160040160006101000a81548173ffffffffffffffffffffffffffffffffffffffff021916908373ffffffffffffffffffffffffffffffffffffffff1602179055505050600960008154809291906126fb906138c4565b919050555050505050565b6060600d805480602002602001604051908101604052809291908181526020016000905b8282101561289257838290600052602060002090600402016040518060c001604052908160008201548152602001600182015481526020016002820160009054906101000a900460ff166002811115612786576127856129ea565b5b6002811115612798576127976129ea565b5b81526020016002820160019054906101000a900460ff1660048111156127c1576127c06129ea565b5b60048111156127d3576127d26129ea565b5b81526020016002820160029054906101000a900473ffffffffffffffffffffffffffffffffffffffff1673ffffffffffffffffffffffffffffffffffffffff1673ffffffffffffffffffffffffffffffffffffffff1681526020016003820160009054906101000a900473ffffffffffffffffffffffffffffffffffffffff1673ffffffffffffffffffffffffffffffffffffffff1673ffffffffffffffffffffffffffffffffffffffff16815250508152602001906001019061272a565b50505050905090565b60065481565b6040518060c001604052806000815260200160008019168152602001600060048111156128d1576128d06129ea565b5b815260200160008019168152602001600073ffffffffffffffffffffffffffffffffffffffff168152602001600073ffffffffffffffffffffffffffffffffffffffff1681525090565b6040518060e00160405280600081526020016000801916815260200160008019168152602001600080191681526020016000801916815260200160006003811115612969576129686129ea565b5b8152602001600073ffffffffffffffffffffffffffffffffffffffff1681525090565b600081519050919050565b600082825260208201905092915050565b6000819050602082019050919050565b6000819050919050565b6129cb816129b8565b82525050565b6000819050919050565b6129e4816129d1565b82525050565b7f4e487b7100000000000000000000000000000000000000000000000000000000600052602160045260246000fd5b60058110612a2a57612a296129ea565b5b50565b6000819050612a3b82612a19565b919050565b6000612a4b82612a2d565b9050919050565b612a5b81612a40565b82525050565b60038110612a7257612a716129ea565b5b50565b6000819050612a8382612a61565b919050565b6000612a9382612a75565b9050919050565b612aa381612a88565b82525050565b600073ffffffffffffffffffffffffffffffffffffffff82169050919050565b6000612ad482612aa9565b9050919050565b612ae481612ac9565b82525050565b60e082016000820151612b0060008501826129c2565b506020820151612b1360208501826129db565b506040820151612b2660408501826129db565b506060820151612b396060850182612a52565b506080820151612b4c6080850182612a9a565b5060a0820151612b5f60a0850182612adb565b5060c0820151612b7260c0850182612adb565b50505050565b6000612b848383612aea565b60e08301905092915050565b6000602082019050919050565b6000612ba88261298c565b612bb28185612997565b9350612bbd836129a8565b8060005b83811015612bee578151612bd58882612b78565b9750612be083612b90565b925050600181019050612bc1565b5085935050505092915050565b60006020820190508181036000830152612c158184612b9d565b905092915050565b6000604051905090565b600080fd5b600080fd5b612c3a816129d1565b8114612c4557600080fd5b50565b600081359050612c5781612c31565b92915050565b612c66816129b8565b8114612c7157600080fd5b50565b600081359050612c8381612c5d565b92915050565b600080600060608486031215612ca257612ca1612c27565b5b6000612cb086828701612c48565b9350506020612cc186828701612c74565b9250506040612cd286828701612c48565b9150509250925092565b612ce581612ac9565b8114612cf057600080fd5b50565b600081359050612d0281612cdc565b92915050565b600060208284031215612d1e57612d1d612c27565b5b6000612d2c84828501612cf3565b91505092915050565b60c082016000820151612d4b60008501826129c2565b506020820151612d5e60208501826129db565b506040820151612d716040850182612a52565b506060820151612d8460608501826129db565b506080820151612d976080850182612adb565b5060a0820151612daa60a0850182612adb565b50505050565b600060c082019050612dc56000830184612d35565b92915050565b600060208284031215612de157612de0612c27565b5b6000612def84828501612c74565b91505092915050565b612e01816129b8565b82525050565b612e10816129d1565b82525050565b612e1f81612a40565b82525050565b612e2e81612ac9565b82525050565b600060c082019050612e496000830189612df8565b612e566020830188612e07565b612e636040830187612e16565b612e706060830186612e07565b612e7d6080830185612e25565b612e8a60a0830184612e25565b979650505050505050565b60008060408385031215612eac57612eab612c27565b5b6000612eba85828601612c74565b9250506020612ecb85828601612c74565b9150509250929050565b60048110612ee657612ee56129ea565b5b50565b6000819050612ef782612ed5565b919050565b6000612f0782612ee9565b9050919050565b612f1781612efc565b82525050565b60e082016000820151612f3360008501826129c2565b506020820151612f4660208501826129db565b506040820151612f5960408501826129db565b506060820151612f6c60608501826129db565b506080820151612f7f60808501826129db565b5060a0820151612f9260a0850182612f0e565b5060c0820151612fa560c0850182612adb565b50505050565b600060e082019050612fc06000830184612f1d565b92915050565b612fcf81612a88565b82525050565b600060e082019050612fea600083018a612df8565b612ff76020830189612e07565b6130046040830188612e07565b6130116060830187612e16565b61301e6080830186612fc6565b61302b60a0830185612e25565b61303860c0830184612e25565b98975050505050505050565b60006020820190506130596000830184612df8565b92915050565b600081519050919050565b600082825260208201905092915050565b6000819050602082019050919050565b60c0820160008201516130a160008501826129c2565b5060208201516130b460208501826129db565b5060408201516130c76040850182612a52565b5060608201516130da60608501826129db565b5060808201516130ed6080850182612adb565b5060a082015161310060a0850182612adb565b50505050565b6000613112838361308b565b60c08301905092915050565b6000602082019050919050565b60006131368261305f565b613140818561306a565b935061314b8361307b565b8060005b8381101561317c5781516131638882613106565b975061316e8361311e565b92505060018101905061314f565b5085935050505092915050565b600060208201905081810360008301526131a3818461312b565b905092915050565b600060c0820190506131c06000830189612df8565b6131cd6020830188612e07565b6131da6040830187612fc6565b6131e76060830186612e16565b6131f46080830185612e25565b61320160a0830184612e25565b979650505050505050565b600080fd5b600080fd5b6000601f19601f8301169050919050565b7f4e487b7100000000000000000000000000000000000000000000000000000000600052604160045260246000fd5b61325f82613216565b810181811067ffffffffffffffff8211171561327e5761327d613227565b5b80604052505050565b6000613291612c1d565b905061329d8282613256565b919050565b600067ffffffffffffffff8211156132bd576132bc613227565b5b6132c682613216565b9050602081019050919050565b82818337600083830152505050565b60006132f56132f0846132a2565b613287565b90508281526020810184848401111561331157613310613211565b5b61331c8482856132d3565b509392505050565b600082601f8301126133395761333861320c565b5b81356133498482602086016132e2565b91505092915050565b6000806040838503121561336957613368612c27565b5b600083013567ffffffffffffffff81111561338757613386612c2c565b5b61339385828601613324565b92505060206133a485828601612c74565b9150509250929050565b60006020820190506133c36000830184612e25565b92915050565b600080604083850312156133e0576133df612c27565b5b60006133ee85828601612c74565b92505060206133ff85828601612cf3565b9150509250929050565b61341281612efc565b82525050565b600060e08201905061342d600083018a612df8565b61343a6020830189612e07565b6134476040830188612e07565b6134546060830187612e07565b6134616080830186612e07565b61346e60a0830185613409565b61347b60c0830184612e25565b98975050505050505050565b600080600080608085870312156134a1576134a0612c27565b5b60006134af87828801612c48565b94505060206134c087828801612c74565b93505060406134d187828801612c74565b92505060606134e287828801612cf3565b91505092959194509250565b60008060008060008060c0878903121561350b5761350a612c27565b5b600061351989828a01612c48565b965050602061352a89828a01612c48565b955050604061353b89828a01612c48565b945050606061354c89828a01612c48565b935050608061355d89828a01612c74565b92505060a061356e89828a01612cf3565b9150509295509295509295565b600081519050919050565b600082825260208201905092915050565b6000819050602082019050919050565b60e0820160008201516135bd60008501826129c2565b5060208201516135d060208501826129db565b5060408201516135e360408501826129db565b5060608201516135f660608501826129db565b50608082015161360960808501826129db565b5060a082015161361c60a0850182612f0e565b5060c082015161362f60c0850182612adb565b50505050565b600061364183836135a7565b60e08301905092915050565b6000602082019050919050565b60006136658261357b565b61366f8185613586565b935061367a83613597565b8060005b838110156136ab5781516136928882613635565b975061369d8361364d565b92505060018101905061367e565b5085935050505092915050565b600060208201905081810360008301526136d2818461365a565b905092915050565b600081519050919050565b600082825260208201905092915050565b6000819050602082019050919050565b60c08201600082015161371c60008501826129c2565b50602082015161372f60208501826129db565b5060408201516137426040850182612a9a565b5060608201516137556060850182612a52565b5060808201516137686080850182612adb565b5060a082015161377b60a0850182612adb565b50505050565b600061378d8383613706565b60c08301905092915050565b6000602082019050919050565b60006137b1826136da565b6137bb81856136e5565b93506137c6836136f6565b8060005b838110156137f75781516137de8882613781565b97506137e983613799565b9250506001810190506137ca565b5085935050505092915050565b6000602082019050818103600083015261381e81846137a6565b905092915050565b600060e08201905061383b600083018a612df8565b6138486020830189612e07565b6138556040830188612e16565b6138626060830187612e07565b61386f6080830186612e25565b61387c60a0830185612e25565b61388960c0830184612df8565b98975050505050505050565b7f4e487b7100000000000000000000000000000000000000000000000000000000600052601160045260246000fd5b60006138cf826129b8565b91507fffffffffffffffffffffffffffffffffffffffffffffffffffffffffffffffff82141561390257613901613895565b5b600182019050919050565b7f4e487b7100000000000000000000000000000000000000000000000000000000600052603260045260246000fd5b600081519050919050565b600081905092915050565b60005b83811015613970578082015181840152602081019050613955565b8381111561397f576000848401525b50505050565b60006139908261393c565b61399a8185613947565b93506139aa818560208601613952565b80840191505092915050565b60008160601b9050919050565b60006139ce826139b6565b9050919050565b60006139e0826139c3565b9050919050565b6139f86139f382612ac9565b6139d5565b82525050565b6000819050919050565b613a19613a14826129b8565b6139fe565b82525050565b6000613a2b8286613985565b9150613a3782856139e7565b601482019150613a478284613a08565b602082019150819050949350505050565b600060e082019050613a6d600083018a612df8565b613a7a6020830189612e07565b613a876040830188612fc6565b613a946060830187612e16565b613aa16080830186612e25565b613aae60a0830185612e25565b613abb60c0830184612df8565b98975050505050505050565b600082825260208201905092915050565b7f596f7520617265206e6f7420616e206f776e6572000000000000000000000000600082015250565b6000613b0e601483613ac7565b9150613b1982613ad8565b602082019050919050565b60006020820190508181036000830152613b3d81613b01565b9050919050565b6000606082019050613b596000830186612e07565b613b666020830185612e07565b613b736040830184612e07565b949350505050565b6000815250565b600061010082019050613b98600083018a612df8565b613ba56020830189612e07565b613bb160408301613b7b565b613bbe6060830188612e16565b613bcb6080830187612fc6565b613bd860a0830186612e25565b613be560c0830185612e25565b613bf260e0830184612df8565b9897505050505050505056fea2646970667358221220389fbf0e6c64f7b78df4a6abba63954ffb7711d4b04f4528f9e81eb0cbaa0c2b64736f6c634300080a0033",
  "immutableReferences": {},
  "source": "// SPDX-License-Identifier: MIT\r\npragma solidity >=0.8.0 <0.9.0;\r\n\r\nimport \"./UserChain.sol\";\r\nimport \"./CompanyChain.sol\";\r\nimport \"./SupervisorChain.sol\";\r\n\r\nimport \"./SharedChain.sol\";\r\n\r\n// Put constraints on the app based on role not address......\r\n\r\ncontract ProjectChain is UserChain, SharedChain {\r\n    string constant HASH_bytes32_VALUE = \"csd?S@salas;dlA234_D.;s_as\";\r\n    address _projectInitiator;\r\n\r\n    // Project Contract Data\r\n    mapping(address => Project) public projects;\r\n    uint public projectsCounter = 0;\r\n    Project[] public allProjects;\r\n\r\n    mapping(address => ProjectRequest) public projectRequests;\r\n    uint public projectRequestsCounter = 0;\r\n    ProjectRequest[] public allProjectRequests;\r\n\r\n    constructor() {\r\n        _projectInitiator = msg.sender;\r\n    }\r\n\r\n    modifier onlyProjectInitiator {\r\n        require(users[_projectInitiator]._role == Roles.ProjectInitiator, \"You don't have the rights for this resources.\");\r\n        require(_projectInitiator == msg.sender, \"You are not a project initiator\");\r\n        _;\r\n    }\r\n\r\n    function createUniqueHexAddress(string memory _text, uint _index) public view returns (address) {\r\n        return address(uint160(uint256(keccak256(abi.encodePacked(_text, _projectInitiator, _index)))));\r\n    }\r\n\r\n    function createProject(bytes32 _name, uint _status, bytes32 _ipfsFileCID) public {\r\n        address _projectAddress = createUniqueHexAddress(HASH_bytes32_VALUE, projectsCounter);\r\n\r\n        projects[_projectAddress]._index = projectsCounter;\r\n        projects[_projectAddress]._name = _name;\r\n        projects[_projectAddress]._status = ProjectStatus(_status);\r\n        projects[_projectAddress]._ipfsFileCID = _ipfsFileCID;\r\n        projects[_projectAddress]._projectAddress = _projectAddress;\r\n        projects[_projectAddress]._userAddress = _projectInitiator;\r\n\r\n        emit ProjectEvent(projectsCounter, _name, ProjectStatus(_status), _ipfsFileCID, _projectAddress, _projectInitiator, block.timestamp);\r\n        allProjects.push(Project(projectsCounter, _name, ProjectStatus(_status), _ipfsFileCID, _projectAddress, _projectInitiator));\r\n        projectsCounter++;\r\n    }\r\n\r\n    function getProjectInfo(address _address) public view returns (Project memory) {\r\n        return projects[_address];\r\n    }\r\n\r\n    function getAllProjects() public view returns(Project[] memory) {\r\n        return allProjects;\r\n    }\r\n\r\n    function createProjectRequest(\r\n        bytes32 _title, uint _status,\r\n        uint _requestStatus, address _projectAddress\r\n    ) public {\r\n        projectRequests[_projectAddress]._index = projectRequestsCounter;\r\n        projectRequests[_projectAddress]._title = _title;\r\n        projectRequests[_projectAddress]._comments = '';\r\n        projectRequests[_projectAddress]._status = ProjectStatus(_status);\r\n        projectRequests[_projectAddress]._requestStatus = RequestStatus(_requestStatus);\r\n        projectRequests[_projectAddress]._projectAddress = _projectAddress;\r\n        projectRequests[_projectAddress]._userAddress = _projectInitiator;\r\n\r\n        createRequest(_title, _status, _requestStatus, _projectAddress);\r\n\r\n        emit ProjectRequestEvent(projectRequestsCounter, _title, '', ProjectStatus(_status), RequestStatus(_requestStatus), _projectAddress, _projectInitiator, block.timestamp);\r\n        allProjectRequests.push(ProjectRequest(projectRequestsCounter, _title, '', ProjectStatus(_status), RequestStatus(_requestStatus), _projectAddress, _projectInitiator));\r\n        projectRequestsCounter++;\r\n    }\r\n\r\n    function getAllProjectRequests() external view returns(ProjectRequest[] memory) {\r\n        return allProjectRequests;\r\n    }\r\n\r\n    // They will be filter after the status of the requests\r\n    mapping(uint => Request) public requests;\r\n    uint public requestsCounter = 0;\r\n    Request[] public allRequests;\r\n\r\n    function createRequest(\r\n        bytes32 _title,\r\n        uint _requestStatus,\r\n        uint _projectStatus,\r\n        address _projectAddress\r\n    ) public {\r\n        requests[requestsCounter]._index = requestsCounter;\r\n        requests[requestsCounter]._title = _title;\r\n        requests[requestsCounter]._requestStatus = RequestStatus(_requestStatus);\r\n        requests[requestsCounter]._projectStatus = ProjectStatus(_projectStatus);\r\n        requests[requestsCounter]._projectAddress = _projectAddress;\r\n        // change to supervisorAddress\r\n        requests[requestsCounter]._userAddress = _projectInitiator;\r\n\r\n        emit RequestEvent(requestsCounter, _title, RequestStatus(_requestStatus), ProjectStatus(_projectStatus), _projectAddress, _projectInitiator, block.timestamp);\r\n        allRequests.push(Request(requestsCounter, _title,  RequestStatus(_requestStatus), ProjectStatus(_projectStatus), _projectAddress, _projectInitiator));\r\n        requestsCounter++;\r\n    }\r\n\r\n    function updateRequest(uint _requestStatus, uint _index) public {\r\n        requests[_index]._requestStatus = RequestStatus(_requestStatus);\r\n        uint index = requests[_index]._index;\r\n        allRequests[index]._requestStatus = RequestStatus(_requestStatus);\r\n    }\r\n\r\n    function getAllRequests() public view returns(Request[] memory) {\r\n        return allRequests;\r\n    }\r\n\r\n}\r\n",
  "sourcePath": "/mnt/c/users/beniamin/source/repos/dissertationproject/contracts/ProjectChain.sol",
  "compiler": {
    "name": "solc",
    "version": "0.8.10+commit.fc410830.Emscripten.clang"
  },
  "schemaVersion": "3.4.3",
  "updatedAt": "2021-11-21T08:19:12.165Z",
  "networkType": "ethereum",
  "devdoc": {
    "kind": "dev",
    "methods": {},
    "version": 1
  },
  "userdoc": {
    "kind": "user",
    "methods": {},
    "version": 1
  }
}