{
  "contractName": "ProjectChain",
  "abi": [
    {
      "inputs": [],
      "stateMutability": "nonpayable",
      "type": "constructor"
    },
    {
      "anonymous": false,
      "inputs": [
        {
          "components": [
            {
              "internalType": "uint256",
              "name": "_index",
              "type": "uint256"
            },
            {
              "internalType": "string",
              "name": "_name",
              "type": "string"
            },
            {
              "internalType": "enum SharedChain.ProjectStatus",
              "name": "_status",
              "type": "uint8"
            },
            {
              "internalType": "string",
              "name": "_ipfsFileCID",
              "type": "string"
            },
            {
              "internalType": "address",
              "name": "_projectAddress",
              "type": "address"
            },
            {
              "internalType": "address",
              "name": "_signerAddress",
              "type": "address"
            },
            {
              "internalType": "uint256",
              "name": "_timestamp",
              "type": "uint256"
            },
            {
              "internalType": "string",
              "name": "_signature",
              "type": "string"
            }
          ],
          "indexed": false,
          "internalType": "struct SharedChain.Project",
          "name": "_project",
          "type": "tuple"
        },
        {
          "indexed": true,
          "internalType": "address",
          "name": "_projectAddress",
          "type": "address"
        }
      ],
      "name": "ProjectEvent",
      "type": "event"
    },
    {
      "anonymous": false,
      "inputs": [
        {
          "components": [
            {
              "internalType": "uint256",
              "name": "_index",
              "type": "uint256"
            },
            {
              "internalType": "string",
              "name": "_title",
              "type": "string"
            },
            {
              "internalType": "string",
              "name": "_comments",
              "type": "string"
            },
            {
              "internalType": "enum SharedChain.ProjectStatus",
              "name": "_status",
              "type": "uint8"
            },
            {
              "internalType": "enum SharedChain.RequestStatus",
              "name": "_requestStatus",
              "type": "uint8"
            },
            {
              "internalType": "address",
              "name": "_projectAddress",
              "type": "address"
            },
            {
              "internalType": "address",
              "name": "_signerAddress",
              "type": "address"
            },
            {
              "internalType": "address",
              "name": "_requestAddress",
              "type": "address"
            },
            {
              "internalType": "uint256",
              "name": "_timestamp",
              "type": "uint256"
            },
            {
              "internalType": "string",
              "name": "_signature",
              "type": "string"
            }
          ],
          "indexed": false,
          "internalType": "struct SharedChain.ProjectRequest",
          "name": "_projectRequest",
          "type": "tuple"
        },
        {
          "indexed": true,
          "internalType": "address",
          "name": "_projectAddress",
          "type": "address"
        }
      ],
      "name": "ProjectRequestEvent",
      "type": "event"
    },
    {
      "anonymous": false,
      "inputs": [
        {
          "components": [
            {
              "internalType": "uint256",
              "name": "_index",
              "type": "uint256"
            },
            {
              "internalType": "uint256",
              "name": "_indexProjectRequest",
              "type": "uint256"
            },
            {
              "internalType": "string",
              "name": "_title",
              "type": "string"
            },
            {
              "internalType": "enum SharedChain.RequestStatus",
              "name": "_requestStatus",
              "type": "uint8"
            },
            {
              "internalType": "enum SharedChain.ProjectStatus",
              "name": "_projectStatus",
              "type": "uint8"
            },
            {
              "internalType": "enum SharedChain.RequestType",
              "name": "_requestType",
              "type": "uint8"
            },
            {
              "internalType": "address",
              "name": "_projectAddress",
              "type": "address"
            },
            {
              "internalType": "address",
              "name": "_signerAddress",
              "type": "address"
            },
            {
              "internalType": "address",
              "name": "_requestAddress",
              "type": "address"
            },
            {
              "internalType": "uint256",
              "name": "_timestamp",
              "type": "uint256"
            },
            {
              "internalType": "string",
              "name": "_signature",
              "type": "string"
            }
          ],
          "indexed": false,
          "internalType": "struct SharedChain.Request",
          "name": "_request",
          "type": "tuple"
        },
        {
          "indexed": true,
          "internalType": "address",
          "name": "_requestAddress",
          "type": "address"
        }
      ],
      "name": "RequestEvent",
      "type": "event"
    },
    {
      "anonymous": false,
      "inputs": [
        {
          "components": [
            {
              "internalType": "uint256",
              "name": "_index",
              "type": "uint256"
            },
            {
              "internalType": "string",
              "name": "_username",
              "type": "string"
            },
            {
              "internalType": "bytes32",
              "name": "_email",
              "type": "bytes32"
            },
            {
              "internalType": "bytes32",
              "name": "_firstname",
              "type": "bytes32"
            },
            {
              "internalType": "bytes32",
              "name": "_lastname",
              "type": "bytes32"
            },
            {
              "internalType": "enum SharedChain.Roles",
              "name": "_role",
              "type": "uint8"
            },
            {
              "internalType": "address",
              "name": "_walletAddress",
              "type": "address"
            },
            {
              "internalType": "uint256",
              "name": "_timestamp",
              "type": "uint256"
            },
            {
              "internalType": "string",
              "name": "_signature",
              "type": "string"
            }
          ],
          "indexed": false,
          "internalType": "struct SharedChain.User",
          "name": "_user",
          "type": "tuple"
        },
        {
          "indexed": true,
          "internalType": "address",
          "name": "_walletAddress",
          "type": "address"
        }
      ],
      "name": "UserEvent",
      "type": "event"
    },
    {
      "inputs": [
        {
          "internalType": "uint256",
          "name": "",
          "type": "uint256"
        }
      ],
      "name": "projectRequests",
      "outputs": [
        {
          "internalType": "uint256",
          "name": "_index",
          "type": "uint256"
        },
        {
          "internalType": "string",
          "name": "_title",
          "type": "string"
        },
        {
          "internalType": "string",
          "name": "_comments",
          "type": "string"
        },
        {
          "internalType": "enum SharedChain.ProjectStatus",
          "name": "_status",
          "type": "uint8"
        },
        {
          "internalType": "enum SharedChain.RequestStatus",
          "name": "_requestStatus",
          "type": "uint8"
        },
        {
          "internalType": "address",
          "name": "_projectAddress",
          "type": "address"
        },
        {
          "internalType": "address",
          "name": "_signerAddress",
          "type": "address"
        },
        {
          "internalType": "address",
          "name": "_requestAddress",
          "type": "address"
        },
        {
          "internalType": "uint256",
          "name": "_timestamp",
          "type": "uint256"
        },
        {
          "internalType": "string",
          "name": "_signature",
          "type": "string"
        }
      ],
      "stateMutability": "view",
      "type": "function",
      "constant": true
    },
    {
      "inputs": [
        {
          "internalType": "uint256",
          "name": "",
          "type": "uint256"
        }
      ],
      "name": "projectRequestsAddress",
      "outputs": [
        {
          "internalType": "address",
          "name": "",
          "type": "address"
        }
      ],
      "stateMutability": "view",
      "type": "function",
      "constant": true
    },
    {
      "inputs": [],
      "name": "projectRequestsCounter",
      "outputs": [
        {
          "internalType": "uint256",
          "name": "",
          "type": "uint256"
        }
      ],
      "stateMutability": "view",
      "type": "function",
      "constant": true
    },
    {
      "inputs": [
        {
          "internalType": "address",
          "name": "",
          "type": "address"
        }
      ],
      "name": "projects",
      "outputs": [
        {
          "internalType": "uint256",
          "name": "_index",
          "type": "uint256"
        },
        {
          "internalType": "string",
          "name": "_name",
          "type": "string"
        },
        {
          "internalType": "enum SharedChain.ProjectStatus",
          "name": "_status",
          "type": "uint8"
        },
        {
          "internalType": "string",
          "name": "_ipfsFileCID",
          "type": "string"
        },
        {
          "internalType": "address",
          "name": "_projectAddress",
          "type": "address"
        },
        {
          "internalType": "address",
          "name": "_signerAddress",
          "type": "address"
        },
        {
          "internalType": "uint256",
          "name": "_timestamp",
          "type": "uint256"
        },
        {
          "internalType": "string",
          "name": "_signature",
          "type": "string"
        }
      ],
      "stateMutability": "view",
      "type": "function",
      "constant": true
    },
    {
      "inputs": [
        {
          "internalType": "uint256",
          "name": "",
          "type": "uint256"
        }
      ],
      "name": "projectsAddress",
      "outputs": [
        {
          "internalType": "address",
          "name": "",
          "type": "address"
        }
      ],
      "stateMutability": "view",
      "type": "function",
      "constant": true
    },
    {
      "inputs": [],
      "name": "projectsCounter",
      "outputs": [
        {
          "internalType": "uint256",
          "name": "",
          "type": "uint256"
        }
      ],
      "stateMutability": "view",
      "type": "function",
      "constant": true
    },
    {
      "inputs": [
        {
          "internalType": "uint256",
          "name": "",
          "type": "uint256"
        }
      ],
      "name": "requests",
      "outputs": [
        {
          "internalType": "uint256",
          "name": "_index",
          "type": "uint256"
        },
        {
          "internalType": "uint256",
          "name": "_indexProjectRequest",
          "type": "uint256"
        },
        {
          "internalType": "string",
          "name": "_title",
          "type": "string"
        },
        {
          "internalType": "enum SharedChain.RequestStatus",
          "name": "_requestStatus",
          "type": "uint8"
        },
        {
          "internalType": "enum SharedChain.ProjectStatus",
          "name": "_projectStatus",
          "type": "uint8"
        },
        {
          "internalType": "enum SharedChain.RequestType",
          "name": "_requestType",
          "type": "uint8"
        },
        {
          "internalType": "address",
          "name": "_projectAddress",
          "type": "address"
        },
        {
          "internalType": "address",
          "name": "_signerAddress",
          "type": "address"
        },
        {
          "internalType": "address",
          "name": "_requestAddress",
          "type": "address"
        },
        {
          "internalType": "uint256",
          "name": "_timestamp",
          "type": "uint256"
        },
        {
          "internalType": "string",
          "name": "_signature",
          "type": "string"
        }
      ],
      "stateMutability": "view",
      "type": "function",
      "constant": true
    },
    {
      "inputs": [],
      "name": "requestsCounter",
      "outputs": [
        {
          "internalType": "uint256",
          "name": "",
          "type": "uint256"
        }
      ],
      "stateMutability": "view",
      "type": "function",
      "constant": true
    },
    {
      "inputs": [
        {
          "internalType": "string",
          "name": "_name",
          "type": "string"
        },
        {
          "internalType": "uint256",
          "name": "_index",
          "type": "uint256"
        }
      ],
      "name": "createUniqueProjectAddress",
      "outputs": [
        {
          "internalType": "address",
          "name": "",
          "type": "address"
        }
      ],
      "stateMutability": "view",
      "type": "function",
      "constant": true
    },
    {
      "inputs": [
        {
          "internalType": "address",
          "name": "_projectAddress",
          "type": "address"
        },
        {
          "internalType": "string",
          "name": "_name",
          "type": "string"
        },
        {
          "internalType": "uint256",
          "name": "_status",
          "type": "uint256"
        },
        {
          "internalType": "string",
          "name": "_ipfsFileCID",
          "type": "string"
        },
        {
          "internalType": "string",
          "name": "_signature",
          "type": "string"
        }
      ],
      "name": "createProject",
      "outputs": [],
      "stateMutability": "nonpayable",
      "type": "function"
    },
    {
      "inputs": [
        {
          "internalType": "address",
          "name": "_projectAddress",
          "type": "address"
        },
        {
          "internalType": "string",
          "name": "_ipfsFileCID",
          "type": "string"
        },
        {
          "internalType": "string",
          "name": "_signature",
          "type": "string"
        }
      ],
      "name": "updateProject",
      "outputs": [],
      "stateMutability": "nonpayable",
      "type": "function"
    },
    {
      "inputs": [
        {
          "internalType": "address",
          "name": "_address",
          "type": "address"
        }
      ],
      "name": "getProjectInfo",
      "outputs": [
        {
          "components": [
            {
              "internalType": "uint256",
              "name": "_index",
              "type": "uint256"
            },
            {
              "internalType": "string",
              "name": "_name",
              "type": "string"
            },
            {
              "internalType": "enum SharedChain.ProjectStatus",
              "name": "_status",
              "type": "uint8"
            },
            {
              "internalType": "string",
              "name": "_ipfsFileCID",
              "type": "string"
            },
            {
              "internalType": "address",
              "name": "_projectAddress",
              "type": "address"
            },
            {
              "internalType": "address",
              "name": "_signerAddress",
              "type": "address"
            },
            {
              "internalType": "uint256",
              "name": "_timestamp",
              "type": "uint256"
            },
            {
              "internalType": "string",
              "name": "_signature",
              "type": "string"
            }
          ],
          "internalType": "struct SharedChain.Project",
          "name": "",
          "type": "tuple"
        }
      ],
      "stateMutability": "view",
      "type": "function",
      "constant": true
    },
    {
      "inputs": [
        {
          "internalType": "address",
          "name": "_signerAddress",
          "type": "address"
        }
      ],
      "name": "getUserProjects",
      "outputs": [
        {
          "components": [
            {
              "internalType": "uint256",
              "name": "_index",
              "type": "uint256"
            },
            {
              "internalType": "string",
              "name": "_name",
              "type": "string"
            },
            {
              "internalType": "enum SharedChain.ProjectStatus",
              "name": "_status",
              "type": "uint8"
            },
            {
              "internalType": "string",
              "name": "_ipfsFileCID",
              "type": "string"
            },
            {
              "internalType": "address",
              "name": "_projectAddress",
              "type": "address"
            },
            {
              "internalType": "address",
              "name": "_signerAddress",
              "type": "address"
            },
            {
              "internalType": "uint256",
              "name": "_timestamp",
              "type": "uint256"
            },
            {
              "internalType": "string",
              "name": "_signature",
              "type": "string"
            }
          ],
          "internalType": "struct SharedChain.Project[]",
          "name": "",
          "type": "tuple[]"
        }
      ],
      "stateMutability": "view",
      "type": "function",
      "constant": true
    },
    {
      "inputs": [],
      "name": "getAllProjects",
      "outputs": [
        {
          "components": [
            {
              "internalType": "uint256",
              "name": "_index",
              "type": "uint256"
            },
            {
              "internalType": "string",
              "name": "_name",
              "type": "string"
            },
            {
              "internalType": "enum SharedChain.ProjectStatus",
              "name": "_status",
              "type": "uint8"
            },
            {
              "internalType": "string",
              "name": "_ipfsFileCID",
              "type": "string"
            },
            {
              "internalType": "address",
              "name": "_projectAddress",
              "type": "address"
            },
            {
              "internalType": "address",
              "name": "_signerAddress",
              "type": "address"
            },
            {
              "internalType": "uint256",
              "name": "_timestamp",
              "type": "uint256"
            },
            {
              "internalType": "string",
              "name": "_signature",
              "type": "string"
            }
          ],
          "internalType": "struct SharedChain.Project[]",
          "name": "",
          "type": "tuple[]"
        }
      ],
      "stateMutability": "view",
      "type": "function",
      "constant": true
    },
    {
      "inputs": [
        {
          "internalType": "string",
          "name": "_title",
          "type": "string"
        },
        {
          "internalType": "uint256",
          "name": "_index",
          "type": "uint256"
        }
      ],
      "name": "createUniqueProjectRequestAddress",
      "outputs": [
        {
          "internalType": "address",
          "name": "",
          "type": "address"
        }
      ],
      "stateMutability": "view",
      "type": "function",
      "constant": true
    },
    {
      "inputs": [
        {
          "internalType": "string",
          "name": "_title",
          "type": "string"
        },
        {
          "internalType": "uint256",
          "name": "_status",
          "type": "uint256"
        },
        {
          "internalType": "uint256",
          "name": "_requestStatus",
          "type": "uint256"
        },
        {
          "internalType": "address",
          "name": "_projectAddress",
          "type": "address"
        },
        {
          "internalType": "address",
          "name": "_projectReqAddress",
          "type": "address"
        },
        {
          "internalType": "string",
          "name": "_signature",
          "type": "string"
        }
      ],
      "name": "createProjectRequest",
      "outputs": [],
      "stateMutability": "nonpayable",
      "type": "function"
    },
    {
      "inputs": [],
      "name": "getAllProjectRequests",
      "outputs": [
        {
          "components": [
            {
              "internalType": "uint256",
              "name": "_index",
              "type": "uint256"
            },
            {
              "internalType": "string",
              "name": "_title",
              "type": "string"
            },
            {
              "internalType": "string",
              "name": "_comments",
              "type": "string"
            },
            {
              "internalType": "enum SharedChain.ProjectStatus",
              "name": "_status",
              "type": "uint8"
            },
            {
              "internalType": "enum SharedChain.RequestStatus",
              "name": "_requestStatus",
              "type": "uint8"
            },
            {
              "internalType": "address",
              "name": "_projectAddress",
              "type": "address"
            },
            {
              "internalType": "address",
              "name": "_signerAddress",
              "type": "address"
            },
            {
              "internalType": "address",
              "name": "_requestAddress",
              "type": "address"
            },
            {
              "internalType": "uint256",
              "name": "_timestamp",
              "type": "uint256"
            },
            {
              "internalType": "string",
              "name": "_signature",
              "type": "string"
            }
          ],
          "internalType": "struct SharedChain.ProjectRequest[]",
          "name": "",
          "type": "tuple[]"
        }
      ],
      "stateMutability": "view",
      "type": "function",
      "constant": true
    },
    {
      "inputs": [
        {
          "internalType": "address",
          "name": "_projectAddress",
          "type": "address"
        }
      ],
      "name": "getLastProjectRequest",
      "outputs": [
        {
          "components": [
            {
              "internalType": "uint256",
              "name": "_index",
              "type": "uint256"
            },
            {
              "internalType": "string",
              "name": "_title",
              "type": "string"
            },
            {
              "internalType": "string",
              "name": "_comments",
              "type": "string"
            },
            {
              "internalType": "enum SharedChain.ProjectStatus",
              "name": "_status",
              "type": "uint8"
            },
            {
              "internalType": "enum SharedChain.RequestStatus",
              "name": "_requestStatus",
              "type": "uint8"
            },
            {
              "internalType": "address",
              "name": "_projectAddress",
              "type": "address"
            },
            {
              "internalType": "address",
              "name": "_signerAddress",
              "type": "address"
            },
            {
              "internalType": "address",
              "name": "_requestAddress",
              "type": "address"
            },
            {
              "internalType": "uint256",
              "name": "_timestamp",
              "type": "uint256"
            },
            {
              "internalType": "string",
              "name": "_signature",
              "type": "string"
            }
          ],
          "internalType": "struct SharedChain.ProjectRequest",
          "name": "",
          "type": "tuple"
        }
      ],
      "stateMutability": "view",
      "type": "function",
      "constant": true
    },
    {
      "inputs": [],
      "name": "getAllRequests",
      "outputs": [
        {
          "components": [
            {
              "internalType": "uint256",
              "name": "_index",
              "type": "uint256"
            },
            {
              "internalType": "uint256",
              "name": "_indexProjectRequest",
              "type": "uint256"
            },
            {
              "internalType": "string",
              "name": "_title",
              "type": "string"
            },
            {
              "internalType": "enum SharedChain.RequestStatus",
              "name": "_requestStatus",
              "type": "uint8"
            },
            {
              "internalType": "enum SharedChain.ProjectStatus",
              "name": "_projectStatus",
              "type": "uint8"
            },
            {
              "internalType": "enum SharedChain.RequestType",
              "name": "_requestType",
              "type": "uint8"
            },
            {
              "internalType": "address",
              "name": "_projectAddress",
              "type": "address"
            },
            {
              "internalType": "address",
              "name": "_signerAddress",
              "type": "address"
            },
            {
              "internalType": "address",
              "name": "_requestAddress",
              "type": "address"
            },
            {
              "internalType": "uint256",
              "name": "_timestamp",
              "type": "uint256"
            },
            {
              "internalType": "string",
              "name": "_signature",
              "type": "string"
            }
          ],
          "internalType": "struct SharedChain.Request[]",
          "name": "",
          "type": "tuple[]"
        }
      ],
      "stateMutability": "view",
      "type": "function",
      "constant": true
    }
  ],
  "bytecode": "0x608060405260006003556000600655600060095534801561001f57600080fd5b50336000806101000a81548173ffffffffffffffffffffffffffffffffffffffff021916908373ffffffffffffffffffffffffffffffffffffffff160217905550614b958061006f6000396000f3fe608060405234801561001057600080fd5b50600436106101215760003560e01c806381d12c58116100ad578063e1592c0d11610071578063e1592c0d14610384578063e32e723c146103a0578063fb1a002a146103d0578063fbdd6460146103ee578063fe360ea51461040a57610121565b806381d12c58146102a0578063840e78fd146102da5780638448556314610311578063c19ded131461032d578063cc1ee4db1461036657610121565b8063663c2269116100f4578063663c2269146101d457806376c932e0146101f257806378e8cd85146102225780637bc406ec1461025257806380d038291461028257610121565b80630b28789214610126578063191e164514610156578063400003db1461018657806347ee45b9146101a4575b600080fd5b610140600480360381019061013b9190613288565b610428565b60405161014d919061351d565b60405180910390f35b610170600480360381019061016b91906136a0565b61064d565b60405161017d919061370b565b60405180910390f35b61018e6106a5565b60405161019b91906138d0565b60405180910390f35b6101be60048036038101906101b99190613288565b610ac2565b6040516101cb91906139b0565b60405180910390f35b6101dc610e3d565b6040516101e991906139e1565b60405180910390f35b61020c600480360381019061020791906139fc565b610e43565b604051610219919061370b565b60405180910390f35b61023c600480360381019061023791906139fc565b610e82565b604051610249919061370b565b60405180910390f35b61026c600480360381019061026791906136a0565b610ec1565b604051610279919061370b565b60405180910390f35b61028a610f19565b6040516102979190613ba9565b60405180910390f35b6102ba60048036038101906102b591906139fc565b611315565b6040516102d19b9a99989796959493929190613c7b565b60405180910390f35b6102f460048036038101906102ef9190613288565b611506565b604051610308989796959493929190613d34565b60405180910390f35b61032b60048036038101906103269190613dc7565b611733565b005b610347600480360381019061034291906139fc565b611a58565b60405161035d9a99989796959493929190613e96565b60405180910390f35b61036e611cbe565b60405161037b91906139e1565b60405180910390f35b61039e60048036038101906103999190613f47565b611cc4565b005b6103ba60048036038101906103b59190613288565b611e03565b6040516103c79190613ba9565b60405180910390f35b6103d8612298565b6040516103e59190614199565b60405180910390f35b610408600480360381019061040391906141bb565b612668565b005b610412612acf565b60405161041f91906139e1565b60405180910390f35b610430612f65565b610438612f65565b60006006541115610643576000600160065461045491906142af565b90505b60008110610641576005600082815260200190815260200160002060030160029054906101000a900473ffffffffffffffffffffffffffffffffffffffff1673ffffffffffffffffffffffffffffffffffffffff168473ffffffffffffffffffffffffffffffffffffffff16141561062e57604051806101400160405280600081526020016040518060200160405280600081525081526020016040518060200160405280600081525081526020016005600084815260200190815260200160002060030160009054906101000a900460ff16600481111561053c5761053b613367565b5b81526020016005600084815260200190815260200160002060030160019054906101000a900460ff16600281111561057757610576613367565b5b81526020016005600084815260200190815260200160002060030160029054906101000a900473ffffffffffffffffffffffffffffffffffffffff1673ffffffffffffffffffffffffffffffffffffffff168152602001600073ffffffffffffffffffffffffffffffffffffffff168152602001600073ffffffffffffffffffffffffffffffffffffffff168152602001600081526020016040518060200160405280600081525081525091508192505050610648565b8080610639906142e3565b915050610457565b505b809150505b919050565b60008260008054906101000a900473ffffffffffffffffffffffffffffffffffffffff1683604051602001610684939291906143b2565b6040516020818303038152906040528051906020012060001c905092915050565b606080600060065414156106bc5780915050610abf565b60065467ffffffffffffffff8111156106d8576106d7613549565b5b60405190808252806020026020018201604052801561071157816020015b6106fe612f65565b8152602001906001900390816106f65790505b50905060005b600654811015610ab957600060056000838152602001908152602001600020905080604051806101400160405290816000820154815260200160018201805461075f9061441a565b80601f016020809104026020016040519081016040528092919081815260200182805461078b9061441a565b80156107d85780601f106107ad576101008083540402835291602001916107d8565b820191906000526020600020905b8154815290600101906020018083116107bb57829003601f168201915b505050505081526020016002820180546107f19061441a565b80601f016020809104026020016040519081016040528092919081815260200182805461081d9061441a565b801561086a5780601f1061083f5761010080835404028352916020019161086a565b820191906000526020600020905b81548152906001019060200180831161084d57829003601f168201915b505050505081526020016003820160009054906101000a900460ff16600481111561089857610897613367565b5b60048111156108aa576108a9613367565b5b81526020016003820160019054906101000a900460ff1660028111156108d3576108d2613367565b5b60028111156108e5576108e4613367565b5b81526020016003820160029054906101000a900473ffffffffffffffffffffffffffffffffffffffff1673ffffffffffffffffffffffffffffffffffffffff1673ffffffffffffffffffffffffffffffffffffffff1681526020016004820160009054906101000a900473ffffffffffffffffffffffffffffffffffffffff1673ffffffffffffffffffffffffffffffffffffffff1673ffffffffffffffffffffffffffffffffffffffff1681526020016005820160009054906101000a900473ffffffffffffffffffffffffffffffffffffffff1673ffffffffffffffffffffffffffffffffffffffff1673ffffffffffffffffffffffffffffffffffffffff16815260200160068201548152602001600782018054610a059061441a565b80601f0160208091040260200160405190810160405280929190818152602001828054610a319061441a565b8015610a7e5780601f10610a5357610100808354040283529160200191610a7e565b820191906000526020600020905b815481529060010190602001808311610a6157829003601f168201915b505050505081525050838381518110610a9a57610a9961444c565b5b6020026020010181905250508080610ab19061447b565b915050610717565b50809150505b90565b610aca61301e565b600073ffffffffffffffffffffffffffffffffffffffff163373ffffffffffffffffffffffffffffffffffffffff161415610b3a576040517f08c379a0000000000000000000000000000000000000000000000000000000008152600401610b3190614510565b60405180910390fd5b600260008373ffffffffffffffffffffffffffffffffffffffff1673ffffffffffffffffffffffffffffffffffffffff1681526020019081526020016000206040518061010001604052908160008201548152602001600182018054610b9f9061441a565b80601f0160208091040260200160405190810160405280929190818152602001828054610bcb9061441a565b8015610c185780601f10610bed57610100808354040283529160200191610c18565b820191906000526020600020905b815481529060010190602001808311610bfb57829003601f168201915b505050505081526020016002820160009054906101000a900460ff166004811115610c4657610c45613367565b5b6004811115610c5857610c57613367565b5b8152602001600382018054610c6c9061441a565b80601f0160208091040260200160405190810160405280929190818152602001828054610c989061441a565b8015610ce55780601f10610cba57610100808354040283529160200191610ce5565b820191906000526020600020905b815481529060010190602001808311610cc857829003601f168201915b505050505081526020016004820160009054906101000a900473ffffffffffffffffffffffffffffffffffffffff1673ffffffffffffffffffffffffffffffffffffffff1673ffffffffffffffffffffffffffffffffffffffff1681526020016005820160009054906101000a900473ffffffffffffffffffffffffffffffffffffffff1673ffffffffffffffffffffffffffffffffffffffff1673ffffffffffffffffffffffffffffffffffffffff16815260200160068201548152602001600782018054610db49061441a565b80601f0160208091040260200160405190810160405280929190818152602001828054610de09061441a565b8015610e2d5780601f10610e0257610100808354040283529160200191610e2d565b820191906000526020600020905b815481529060010190602001808311610e1057829003601f168201915b5050505050815250509050919050565b60095481565b60048181548110610e5357600080fd5b906000526020600020016000915054906101000a900473ffffffffffffffffffffffffffffffffffffffff1681565b60078181548110610e9257600080fd5b906000526020600020016000915054906101000a900473ffffffffffffffffffffffffffffffffffffffff1681565b60008260008054906101000a900473ffffffffffffffffffffffffffffffffffffffff1683604051602001610ef8939291906143b2565b6040516020818303038152906040528051906020012060001c905092915050565b60608060006003541415610f305780915050611312565b60035467ffffffffffffffff811115610f4c57610f4b613549565b5b604051908082528060200260200182016040528015610f8557816020015b610f7261301e565b815260200190600190039081610f6a5790505b50905060005b60035481101561130c57600060048281548110610fab57610faa61444c565b5b9060005260206000200160009054906101000a900473ffffffffffffffffffffffffffffffffffffffff1690506000600260008373ffffffffffffffffffffffffffffffffffffffff1673ffffffffffffffffffffffffffffffffffffffff16815260200190815260200160002090508060405180610100016040529081600082015481526020016001820180546110429061441a565b80601f016020809104026020016040519081016040528092919081815260200182805461106e9061441a565b80156110bb5780601f10611090576101008083540402835291602001916110bb565b820191906000526020600020905b81548152906001019060200180831161109e57829003601f168201915b505050505081526020016002820160009054906101000a900460ff1660048111156110e9576110e8613367565b5b60048111156110fb576110fa613367565b5b815260200160038201805461110f9061441a565b80601f016020809104026020016040519081016040528092919081815260200182805461113b9061441a565b80156111885780601f1061115d57610100808354040283529160200191611188565b820191906000526020600020905b81548152906001019060200180831161116b57829003601f168201915b505050505081526020016004820160009054906101000a900473ffffffffffffffffffffffffffffffffffffffff1673ffffffffffffffffffffffffffffffffffffffff1673ffffffffffffffffffffffffffffffffffffffff1681526020016005820160009054906101000a900473ffffffffffffffffffffffffffffffffffffffff1673ffffffffffffffffffffffffffffffffffffffff1673ffffffffffffffffffffffffffffffffffffffff168152602001600682015481526020016007820180546112579061441a565b80601f01602080910402602001604051908101604052809291908181526020018280546112839061441a565b80156112d05780601f106112a5576101008083540402835291602001916112d0565b820191906000526020600020905b8154815290600101906020018083116112b357829003601f168201915b5050505050815250508484815181106112ec576112eb61444c565b5b6020026020010181905250505080806113049061447b565b915050610f8b565b50809150505b90565b60086020528060005260406000206000915090508060000154908060010154908060020180546113449061441a565b80601f01602080910402602001604051908101604052809291908181526020018280546113709061441a565b80156113bd5780601f10611392576101008083540402835291602001916113bd565b820191906000526020600020905b8154815290600101906020018083116113a057829003601f168201915b5050505050908060030160009054906101000a900460ff16908060030160019054906101000a900460ff16908060030160029054906101000a900460ff16908060030160039054906101000a900473ffffffffffffffffffffffffffffffffffffffff16908060040160009054906101000a900473ffffffffffffffffffffffffffffffffffffffff16908060050160009054906101000a900473ffffffffffffffffffffffffffffffffffffffff16908060060154908060070180546114839061441a565b80601f01602080910402602001604051908101604052809291908181526020018280546114af9061441a565b80156114fc5780601f106114d1576101008083540402835291602001916114fc565b820191906000526020600020905b8154815290600101906020018083116114df57829003601f168201915b505050505090508b565b600260205280600052604060002060009150905080600001549080600101805461152f9061441a565b80601f016020809104026020016040519081016040528092919081815260200182805461155b9061441a565b80156115a85780601f1061157d576101008083540402835291602001916115a8565b820191906000526020600020905b81548152906001019060200180831161158b57829003601f168201915b5050505050908060020160009054906101000a900460ff16908060030180546115d09061441a565b80601f01602080910402602001604051908101604052809291908181526020018280546115fc9061441a565b80156116495780601f1061161e57610100808354040283529160200191611649565b820191906000526020600020905b81548152906001019060200180831161162c57829003601f168201915b5050505050908060040160009054906101000a900473ffffffffffffffffffffffffffffffffffffffff16908060050160009054906101000a900473ffffffffffffffffffffffffffffffffffffffff16908060060154908060070180546116b09061441a565b80601f01602080910402602001604051908101604052809291908181526020018280546116dc9061441a565b80156117295780601f106116fe57610100808354040283529160200191611729565b820191906000526020600020905b81548152906001019060200180831161170c57829003601f168201915b5050505050905088565b60405180610100016040528060035481526020018581526020018460048111156117605761175f613367565b5b600481111561177257611771613367565b5b81526020018381526020018673ffffffffffffffffffffffffffffffffffffffff16815260200160008054906101000a900473ffffffffffffffffffffffffffffffffffffffff1673ffffffffffffffffffffffffffffffffffffffff16815260200142815260200182815250600260008773ffffffffffffffffffffffffffffffffffffffff1673ffffffffffffffffffffffffffffffffffffffff1681526020019081526020016000206000820151816000015560208201518160010190805190602001906118449291906130a1565b5060408201518160020160006101000a81548160ff021916908360048111156118705761186f613367565b5b021790555060608201518160030190805190602001906118919291906130a1565b5060808201518160040160006101000a81548173ffffffffffffffffffffffffffffffffffffffff021916908373ffffffffffffffffffffffffffffffffffffffff16021790555060a08201518160050160006101000a81548173ffffffffffffffffffffffffffffffffffffffff021916908373ffffffffffffffffffffffffffffffffffffffff16021790555060c0820151816006015560e08201518160070190805190602001906119469291906130a1565b509050508473ffffffffffffffffffffffffffffffffffffffff167fac85378acf27ea180ea9b66d81dac89bcc984812edf7111c9413f708da4ca37a600260008873ffffffffffffffffffffffffffffffffffffffff1673ffffffffffffffffffffffffffffffffffffffff1681526020019081526020016000206040516119ce919061474b565b60405180910390a26004859080600181540180825580915050600190039060005260206000200160009091909190916101000a81548173ffffffffffffffffffffffffffffffffffffffff021916908373ffffffffffffffffffffffffffffffffffffffff16021790555060036000815480929190611a4c9061447b565b91905055505050505050565b6005602052806000526040600020600091509050806000015490806001018054611a819061441a565b80601f0160208091040260200160405190810160405280929190818152602001828054611aad9061441a565b8015611afa5780601f10611acf57610100808354040283529160200191611afa565b820191906000526020600020905b815481529060010190602001808311611add57829003601f168201915b505050505090806002018054611b0f9061441a565b80601f0160208091040260200160405190810160405280929190818152602001828054611b3b9061441a565b8015611b885780601f10611b5d57610100808354040283529160200191611b88565b820191906000526020600020905b815481529060010190602001808311611b6b57829003601f168201915b5050505050908060030160009054906101000a900460ff16908060030160019054906101000a900460ff16908060030160029054906101000a900473ffffffffffffffffffffffffffffffffffffffff16908060040160009054906101000a900473ffffffffffffffffffffffffffffffffffffffff16908060050160009054906101000a900473ffffffffffffffffffffffffffffffffffffffff1690806006015490806007018054611c3b9061441a565b80601f0160208091040260200160405190810160405280929190818152602001828054611c679061441a565b8015611cb45780601f10611c8957610100808354040283529160200191611cb4565b820191906000526020600020905b815481529060010190602001808311611c9757829003601f168201915b505050505090508a565b60065481565b81600260008573ffffffffffffffffffffffffffffffffffffffff1673ffffffffffffffffffffffffffffffffffffffff1681526020019081526020016000206003019080519060200190611d1a9291906130a1565b5080600260008573ffffffffffffffffffffffffffffffffffffffff1673ffffffffffffffffffffffffffffffffffffffff1681526020019081526020016000206007019080519060200190611d719291906130a1565b508273ffffffffffffffffffffffffffffffffffffffff167fac85378acf27ea180ea9b66d81dac89bcc984812edf7111c9413f708da4ca37a600260008673ffffffffffffffffffffffffffffffffffffffff1673ffffffffffffffffffffffffffffffffffffffff168152602001908152602001600020604051611df6919061474b565b60405180910390a2505050565b60608060006003541415611e1a5780915050612293565b60035467ffffffffffffffff811115611e3657611e35613549565b5b604051908082528060200260200182016040528015611e6f57816020015b611e5c61301e565b815260200190600190039081611e545790505b50905060005b60035481101561228d57600060048281548110611e9557611e9461444c565b5b9060005260206000200160009054906101000a900473ffffffffffffffffffffffffffffffffffffffff169050600260008273ffffffffffffffffffffffffffffffffffffffff1673ffffffffffffffffffffffffffffffffffffffff16815260200190815260200160002060050160009054906101000a900473ffffffffffffffffffffffffffffffffffffffff1673ffffffffffffffffffffffffffffffffffffffff168573ffffffffffffffffffffffffffffffffffffffff161415612279576000600260008373ffffffffffffffffffffffffffffffffffffffff1673ffffffffffffffffffffffffffffffffffffffff1681526020019081526020016000209050806040518061010001604052908160008201548152602001600182018054611fc29061441a565b80601f0160208091040260200160405190810160405280929190818152602001828054611fee9061441a565b801561203b5780601f106120105761010080835404028352916020019161203b565b820191906000526020600020905b81548152906001019060200180831161201e57829003601f168201915b505050505081526020016002820160009054906101000a900460ff16600481111561206957612068613367565b5b600481111561207b5761207a613367565b5b815260200160038201805461208f9061441a565b80601f01602080910402602001604051908101604052809291908181526020018280546120bb9061441a565b80156121085780601f106120dd57610100808354040283529160200191612108565b820191906000526020600020905b8154815290600101906020018083116120eb57829003601f168201915b505050505081526020016004820160009054906101000a900473ffffffffffffffffffffffffffffffffffffffff1673ffffffffffffffffffffffffffffffffffffffff1673ffffffffffffffffffffffffffffffffffffffff1681526020016005820160009054906101000a900473ffffffffffffffffffffffffffffffffffffffff1673ffffffffffffffffffffffffffffffffffffffff1673ffffffffffffffffffffffffffffffffffffffff168152602001600682015481526020016007820180546121d79061441a565b80601f01602080910402602001604051908101604052809291908181526020018280546122039061441a565b80156122505780601f1061222557610100808354040283529160200191612250565b820191906000526020600020905b81548152906001019060200180831161223357829003601f168201915b50505050508152505084848151811061226c5761226b61444c565b5b6020026020010181905250505b5080806122859061447b565b915050611e75565b50809150505b919050565b606080600060095414156122af5780915050612665565b60095467ffffffffffffffff8111156122cb576122ca613549565b5b60405190808252806020026020018201604052801561230457816020015b6122f1613127565b8152602001906001900390816122e95790505b50905060005b60095481101561265f5760006008600083815260200190815260200160002090508060405180610160016040529081600082015481526020016001820154815260200160028201805461235c9061441a565b80601f01602080910402602001604051908101604052809291908181526020018280546123889061441a565b80156123d55780601f106123aa576101008083540402835291602001916123d5565b820191906000526020600020905b8154815290600101906020018083116123b857829003601f168201915b505050505081526020016003820160009054906101000a900460ff16600281111561240357612402613367565b5b600281111561241557612414613367565b5b81526020016003820160019054906101000a900460ff16600481111561243e5761243d613367565b5b60048111156124505761244f613367565b5b81526020016003820160029054906101000a900460ff16600181111561247957612478613367565b5b600181111561248b5761248a613367565b5b81526020016003820160039054906101000a900473ffffffffffffffffffffffffffffffffffffffff1673ffffffffffffffffffffffffffffffffffffffff1673ffffffffffffffffffffffffffffffffffffffff1681526020016004820160009054906101000a900473ffffffffffffffffffffffffffffffffffffffff1673ffffffffffffffffffffffffffffffffffffffff1673ffffffffffffffffffffffffffffffffffffffff1681526020016005820160009054906101000a900473ffffffffffffffffffffffffffffffffffffffff1673ffffffffffffffffffffffffffffffffffffffff1673ffffffffffffffffffffffffffffffffffffffff168152602001600682015481526020016007820180546125ab9061441a565b80601f01602080910402602001604051908101604052809291908181526020018280546125d79061441a565b80156126245780601f106125f957610100808354040283529160200191612624565b820191906000526020600020905b81548152906001019060200180831161260757829003601f168201915b5050505050815250508383815181106126405761263f61444c565b5b60200260200101819052505080806126579061447b565b91505061230a565b50809150505b90565b6000600481111561267c5761267b613367565b5b600260008573ffffffffffffffffffffffffffffffffffffffff1673ffffffffffffffffffffffffffffffffffffffff16815260200190815260200160002060020160009054906101000a900460ff1660048111156126de576126dd613367565b5b1461271e576040517f08c379a0000000000000000000000000000000000000000000000000000000008152600401612715906147b9565b60405180910390fd5b60405180610140016040528060065481526020018781526020016040518060200160405280600081525081526020018660048111156127605761275f613367565b5b600481111561277257612771613367565b5b815260200185600281111561278a57612789613367565b5b600281111561279c5761279b613367565b5b81526020018473ffffffffffffffffffffffffffffffffffffffff16815260200160008054906101000a900473ffffffffffffffffffffffffffffffffffffffff1673ffffffffffffffffffffffffffffffffffffffff1681526020018373ffffffffffffffffffffffffffffffffffffffff1681526020014281526020018281525060056000600654815260200190815260200160002060008201518160000155602082015181600101908051906020019061285a9291906130a1565b5060408201518160020190805190602001906128779291906130a1565b5060608201518160030160006101000a81548160ff021916908360048111156128a3576128a2613367565b5b021790555060808201518160030160016101000a81548160ff021916908360028111156128d3576128d2613367565b5b021790555060a08201518160030160026101000a81548173ffffffffffffffffffffffffffffffffffffffff021916908373ffffffffffffffffffffffffffffffffffffffff16021790555060c08201518160040160006101000a81548173ffffffffffffffffffffffffffffffffffffffff021916908373ffffffffffffffffffffffffffffffffffffffff16021790555060e08201518160050160006101000a81548173ffffffffffffffffffffffffffffffffffffffff021916908373ffffffffffffffffffffffffffffffffffffffff16021790555061010082015181600601556101208201518160070190805190602001906129d59291906130a1565b509050506129ea600654878688878787612ad5565b8273ffffffffffffffffffffffffffffffffffffffff167fb503855b01edd8caf0051e68bacef096056daa0d24478362eaa8a4f4b8a7130e600560006006548152602001908152602001600020604051612a449190614958565b60405180910390a26007829080600181540180825580915050600190039060005260206000200160009091909190916101000a81548173ffffffffffffffffffffffffffffffffffffffff021916908373ffffffffffffffffffffffffffffffffffffffff16021790555060066000815480929190612ac29061447b565b9190505550505050505050565b60035481565b600060016004811115612aeb57612aea613367565b5b856004811115612afe57612afd613367565b5b6004811115612b1057612b0f613367565b5b1480612b52575060036004811115612b2b57612b2a613367565b5b856004811115612b3e57612b3d613367565b5b6004811115612b5057612b4f613367565b5b145b80612b925750600480811115612b6b57612b6a613367565b5b856004811115612b7e57612b7d613367565b5b6004811115612b9057612b8f613367565b5b145b15612ba05760009050612be5565b60026004811115612bb457612bb3613367565b5b856004811115612bc757612bc6613367565b5b6004811115612bd957612bd8613367565b5b1415612be457600190505b5b612bf58888888885898989612bff565b5050505050505050565b6040518061016001604052806009548152602001898152602001888152602001876002811115612c3257612c31613367565b5b6002811115612c4457612c43613367565b5b8152602001866004811115612c5c57612c5b613367565b5b6004811115612c6e57612c6d613367565b5b8152602001856001811115612c8657612c85613367565b5b81526020018473ffffffffffffffffffffffffffffffffffffffff16815260200160008054906101000a900473ffffffffffffffffffffffffffffffffffffffff1673ffffffffffffffffffffffffffffffffffffffff1681526020018373ffffffffffffffffffffffffffffffffffffffff1681526020014281526020018281525060086000600954815260200190815260200160002060008201518160000155602082015181600101556040820151816002019080519060200190612d4e9291906130a1565b5060608201518160030160006101000a81548160ff02191690836002811115612d7a57612d79613367565b5b021790555060808201518160030160016101000a81548160ff02191690836004811115612daa57612da9613367565b5b021790555060a08201518160030160026101000a81548160ff02191690836001811115612dda57612dd9613367565b5b021790555060c08201518160030160036101000a81548173ffffffffffffffffffffffffffffffffffffffff021916908373ffffffffffffffffffffffffffffffffffffffff16021790555060e08201518160040160006101000a81548173ffffffffffffffffffffffffffffffffffffffff021916908373ffffffffffffffffffffffffffffffffffffffff1602179055506101008201518160050160006101000a81548173ffffffffffffffffffffffffffffffffffffffff021916908373ffffffffffffffffffffffffffffffffffffffff1602179055506101208201518160060155610140820151816007019080519060200190612edd9291906130a1565b509050508173ffffffffffffffffffffffffffffffffffffffff167f4a2aa9c37fdc971a24d9081164299dd70beb053eacacaeb4e59d5d998334ef11600860006009548152602001908152602001600020604051612f3b9190614b3d565b60405180910390a260096000815480929190612f569061447b565b91905055505050505050505050565b60405180610140016040528060008152602001606081526020016060815260200160006004811115612f9a57612f99613367565b5b815260200160006002811115612fb357612fb2613367565b5b8152602001600073ffffffffffffffffffffffffffffffffffffffff168152602001600073ffffffffffffffffffffffffffffffffffffffff168152602001600073ffffffffffffffffffffffffffffffffffffffff16815260200160008152602001606081525090565b60405180610100016040528060008152602001606081526020016000600481111561304c5761304b613367565b5b815260200160608152602001600073ffffffffffffffffffffffffffffffffffffffff168152602001600073ffffffffffffffffffffffffffffffffffffffff16815260200160008152602001606081525090565b8280546130ad9061441a565b90600052602060002090601f0160209004810192826130cf5760008555613116565b82601f106130e857805160ff1916838001178555613116565b82800160010185558215613116579182015b828111156131155782518255916020019190600101906130fa565b5b50905061312391906131f9565b5090565b6040518061016001604052806000815260200160008152602001606081526020016000600281111561315c5761315b613367565b5b81526020016000600481111561317557613174613367565b5b81526020016000600181111561318e5761318d613367565b5b8152602001600073ffffffffffffffffffffffffffffffffffffffff168152602001600073ffffffffffffffffffffffffffffffffffffffff168152602001600073ffffffffffffffffffffffffffffffffffffffff16815260200160008152602001606081525090565b5b808211156132125760008160009055506001016131fa565b5090565b6000604051905090565b600080fd5b600080fd5b600073ffffffffffffffffffffffffffffffffffffffff82169050919050565b60006132558261322a565b9050919050565b6132658161324a565b811461327057600080fd5b50565b6000813590506132828161325c565b92915050565b60006020828403121561329e5761329d613220565b5b60006132ac84828501613273565b91505092915050565b6000819050919050565b6132c8816132b5565b82525050565b600081519050919050565b600082825260208201905092915050565b60005b838110156133085780820151818401526020810190506132ed565b83811115613317576000848401525b50505050565b6000601f19601f8301169050919050565b6000613339826132ce565b61334381856132d9565b93506133538185602086016132ea565b61335c8161331d565b840191505092915050565b7f4e487b7100000000000000000000000000000000000000000000000000000000600052602160045260246000fd5b600581106133a7576133a6613367565b5b50565b60008190506133b882613396565b919050565b60006133c8826133aa565b9050919050565b6133d8816133bd565b82525050565b600381106133ef576133ee613367565b5b50565b6000819050613400826133de565b919050565b6000613410826133f2565b9050919050565b61342081613405565b82525050565b61342f8161324a565b82525050565b60006101408301600083015161344e60008601826132bf565b5060208301518482036020860152613466828261332e565b91505060408301518482036040860152613480828261332e565b915050606083015161349560608601826133cf565b5060808301516134a86080860182613417565b5060a08301516134bb60a0860182613426565b5060c08301516134ce60c0860182613426565b5060e08301516134e160e0860182613426565b506101008301516134f66101008601826132bf565b50610120830151848203610120860152613510828261332e565b9150508091505092915050565b600060208201905081810360008301526135378184613435565b905092915050565b600080fd5b600080fd5b7f4e487b7100000000000000000000000000000000000000000000000000000000600052604160045260246000fd5b6135818261331d565b810181811067ffffffffffffffff821117156135a05761359f613549565b5b80604052505050565b60006135b3613216565b90506135bf8282613578565b919050565b600067ffffffffffffffff8211156135df576135de613549565b5b6135e88261331d565b9050602081019050919050565b82818337600083830152505050565b6000613617613612846135c4565b6135a9565b90508281526020810184848401111561363357613632613544565b5b61363e8482856135f5565b509392505050565b600082601f83011261365b5761365a61353f565b5b813561366b848260208601613604565b91505092915050565b61367d816132b5565b811461368857600080fd5b50565b60008135905061369a81613674565b92915050565b600080604083850312156136b7576136b6613220565b5b600083013567ffffffffffffffff8111156136d5576136d4613225565b5b6136e185828601613646565b92505060206136f28582860161368b565b9150509250929050565b6137058161324a565b82525050565b600060208201905061372060008301846136fc565b92915050565b600081519050919050565b600082825260208201905092915050565b6000819050602082019050919050565b60006101408301600083015161376b60008601826132bf565b5060208301518482036020860152613783828261332e565b9150506040830151848203604086015261379d828261332e565b91505060608301516137b260608601826133cf565b5060808301516137c56080860182613417565b5060a08301516137d860a0860182613426565b5060c08301516137eb60c0860182613426565b5060e08301516137fe60e0860182613426565b506101008301516138136101008601826132bf565b5061012083015184820361012086015261382d828261332e565b9150508091505092915050565b60006138468383613752565b905092915050565b6000602082019050919050565b600061386682613726565b6138708185613731565b93508360208202850161388285613742565b8060005b858110156138be578484038952815161389f858261383a565b94506138aa8361384e565b925060208a01995050600181019050613886565b50829750879550505050505092915050565b600060208201905081810360008301526138ea818461385b565b905092915050565b60006101008301600083015161390b60008601826132bf565b5060208301518482036020860152613923828261332e565b915050604083015161393860408601826133cf565b5060608301518482036060860152613950828261332e565b91505060808301516139656080860182613426565b5060a083015161397860a0860182613426565b5060c083015161398b60c08601826132bf565b5060e083015184820360e08601526139a3828261332e565b9150508091505092915050565b600060208201905081810360008301526139ca81846138f2565b905092915050565b6139db816132b5565b82525050565b60006020820190506139f660008301846139d2565b92915050565b600060208284031215613a1257613a11613220565b5b6000613a208482850161368b565b91505092915050565b600081519050919050565b600082825260208201905092915050565b6000819050602082019050919050565b600061010083016000830151613a6e60008601826132bf565b5060208301518482036020860152613a86828261332e565b9150506040830151613a9b60408601826133cf565b5060608301518482036060860152613ab3828261332e565b9150506080830151613ac86080860182613426565b5060a0830151613adb60a0860182613426565b5060c0830151613aee60c08601826132bf565b5060e083015184820360e0860152613b06828261332e565b9150508091505092915050565b6000613b1f8383613a55565b905092915050565b6000602082019050919050565b6000613b3f82613a29565b613b498185613a34565b935083602082028501613b5b85613a45565b8060005b85811015613b975784840389528151613b788582613b13565b9450613b8383613b27565b925060208a01995050600181019050613b5f565b50829750879550505050505092915050565b60006020820190508181036000830152613bc38184613b34565b905092915050565b600082825260208201905092915050565b6000613be7826132ce565b613bf18185613bcb565b9350613c018185602086016132ea565b613c0a8161331d565b840191505092915050565b613c1e81613405565b82525050565b613c2d816133bd565b82525050565b60028110613c4457613c43613367565b5b50565b6000819050613c5582613c33565b919050565b6000613c6582613c47565b9050919050565b613c7581613c5a565b82525050565b600061016082019050613c91600083018e6139d2565b613c9e602083018d6139d2565b8181036040830152613cb0818c613bdc565b9050613cbf606083018b613c15565b613ccc608083018a613c24565b613cd960a0830189613c6c565b613ce660c08301886136fc565b613cf360e08301876136fc565b613d016101008301866136fc565b613d0f6101208301856139d2565b818103610140830152613d228184613bdc565b90509c9b505050505050505050505050565b600061010082019050613d4a600083018b6139d2565b8181036020830152613d5c818a613bdc565b9050613d6b6040830189613c24565b8181036060830152613d7d8188613bdc565b9050613d8c60808301876136fc565b613d9960a08301866136fc565b613da660c08301856139d2565b81810360e0830152613db88184613bdc565b90509998505050505050505050565b600080600080600060a08688031215613de357613de2613220565b5b6000613df188828901613273565b955050602086013567ffffffffffffffff811115613e1257613e11613225565b5b613e1e88828901613646565b9450506040613e2f8882890161368b565b935050606086013567ffffffffffffffff811115613e5057613e4f613225565b5b613e5c88828901613646565b925050608086013567ffffffffffffffff811115613e7d57613e7c613225565b5b613e8988828901613646565b9150509295509295909350565b600061014082019050613eac600083018d6139d2565b8181036020830152613ebe818c613bdc565b90508181036040830152613ed2818b613bdc565b9050613ee1606083018a613c24565b613eee6080830189613c15565b613efb60a08301886136fc565b613f0860c08301876136fc565b613f1560e08301866136fc565b613f236101008301856139d2565b818103610120830152613f368184613bdc565b90509b9a5050505050505050505050565b600080600060608486031215613f6057613f5f613220565b5b6000613f6e86828701613273565b935050602084013567ffffffffffffffff811115613f8f57613f8e613225565b5b613f9b86828701613646565b925050604084013567ffffffffffffffff811115613fbc57613fbb613225565b5b613fc886828701613646565b9150509250925092565b600081519050919050565b600082825260208201905092915050565b6000819050602082019050919050565b61400781613c5a565b82525050565b60006101608301600083015161402660008601826132bf565b50602083015161403960208601826132bf565b5060408301518482036040860152614051828261332e565b91505060608301516140666060860182613417565b50608083015161407960808601826133cf565b5060a083015161408c60a0860182613ffe565b5060c083015161409f60c0860182613426565b5060e08301516140b260e0860182613426565b506101008301516140c7610100860182613426565b506101208301516140dc6101208601826132bf565b506101408301518482036101408601526140f6828261332e565b9150508091505092915050565b600061410f838361400d565b905092915050565b6000602082019050919050565b600061412f82613fd2565b6141398185613fdd565b93508360208202850161414b85613fee565b8060005b8581101561418757848403895281516141688582614103565b945061417383614117565b925060208a0199505060018101905061414f565b50829750879550505050505092915050565b600060208201905081810360008301526141b38184614124565b905092915050565b60008060008060008060c087890312156141d8576141d7613220565b5b600087013567ffffffffffffffff8111156141f6576141f5613225565b5b61420289828a01613646565b965050602061421389828a0161368b565b955050604061422489828a0161368b565b945050606061423589828a01613273565b935050608061424689828a01613273565b92505060a087013567ffffffffffffffff81111561426757614266613225565b5b61427389828a01613646565b9150509295509295509295565b7f4e487b7100000000000000000000000000000000000000000000000000000000600052601160045260246000fd5b60006142ba826132b5565b91506142c5836132b5565b9250828210156142d8576142d7614280565b5b828203905092915050565b60006142ee826132b5565b9150600082141561430257614301614280565b5b600182039050919050565b600081905092915050565b6000614323826132ce565b61432d818561430d565b935061433d8185602086016132ea565b80840191505092915050565b60008160601b9050919050565b600061436182614349565b9050919050565b600061437382614356565b9050919050565b61438b6143868261324a565b614368565b82525050565b6000819050919050565b6143ac6143a7826132b5565b614391565b82525050565b60006143be8286614318565b91506143ca828561437a565b6014820191506143da828461439b565b602082019150819050949350505050565b7f4e487b7100000000000000000000000000000000000000000000000000000000600052602260045260246000fd5b6000600282049050600182168061443257607f821691505b60208210811415614446576144456143eb565b5b50919050565b7f4e487b7100000000000000000000000000000000000000000000000000000000600052603260045260246000fd5b6000614486826132b5565b91507fffffffffffffffffffffffffffffffffffffffffffffffffffffffffffffffff8214156144b9576144b8614280565b5b600182019050919050565b7f41646472657373206973206e6f742076616c69642e0000000000000000000000600082015250565b60006144fa601583613bcb565b9150614505826144c4565b602082019050919050565b60006020820190508181036000830152614529816144ed565b9050919050565b60008160001c9050919050565b6000819050919050565b600061455a61455583614530565b61453d565b9050919050565b60008190508160005260206000209050919050565b600081546145838161441a565b61458d81866132d9565b945060018216600081146145a857600181146145ba576145ed565b60ff19831686526020860193506145ed565b6145c385614561565b60005b838110156145e5578154818901526001820191506020810190506145c6565b808801955050505b50505092915050565b600060ff82169050919050565b600061461661461183614530565b6145f6565b9050919050565b600073ffffffffffffffffffffffffffffffffffffffff82169050919050565b600061465061464b83614530565b61461d565b9050919050565b60006101008301600080840154905061466f81614547565b61467c60008701826132bf565b506001840185830360208701526146938382614576565b925050600284015490506146a681614603565b6146b360408701826133cf565b506003840185830360608701526146ca8382614576565b925050600484015490506146dd8161463d565b6146ea6080870182613426565b50600584015490506146fb8161463d565b61470860a0870182613426565b506006840154905061471981614547565b61472660c08701826132bf565b506007840185830360e087015261473d8382614576565b925050819250505092915050565b600060208201905081810360008301526147658184614657565b905092915050565b7f5374657073206d75737420666f6c6c6f77206163636f7264696e676c79000000600082015250565b60006147a3601d83613bcb565b91506147ae8261476d565b602082019050919050565b600060208201905081810360008301526147d281614796565b9050919050565b60008160081c9050919050565b600060ff82169050919050565b6000614806614801836147d9565b6147e6565b9050919050565b60008160101c9050919050565b600061482d6148288361480d565b61461d565b9050919050565b60006101408301600080840154905061484c81614547565b61485960008701826132bf565b506001840185830360208701526148708382614576565b9250506002840185830360408701526148898382614576565b9250506003840154905061489c81614603565b6148a960608701826133cf565b506148b3816147f3565b6148c06080870182613417565b506148ca8161481a565b6148d760a0870182613426565b50600484015490506148e88161463d565b6148f560c0870182613426565b50600584015490506149068161463d565b61491360e0870182613426565b506006840154905061492481614547565b6149326101008701826132bf565b506007840185830361012087015261494a8382614576565b925050819250505092915050565b600060208201905081810360008301526149728184614834565b905092915050565b600061498d61498883614530565b6147e6565b9050919050565b60006149a76149a2836147d9565b6145f6565b9050919050565b600060ff82169050919050565b60006149ce6149c98361480d565b6149ae565b9050919050565b60008160181c9050919050565b60006149f56149f0836149d5565b61461d565b9050919050565b600061016083016000808401549050614a1481614547565b614a2160008701826132bf565b5060018401549050614a3281614547565b614a3f60208701826132bf565b50600284018583036040870152614a568382614576565b92505060038401549050614a698161497a565b614a766060870182613417565b50614a8081614994565b614a8d60808701826133cf565b50614a97816149bb565b614aa460a0870182613ffe565b50614aae816149e2565b614abb60c0870182613426565b5060048401549050614acc8161463d565b614ad960e0870182613426565b5060058401549050614aea8161463d565b614af8610100870182613426565b5060068401549050614b0981614547565b614b176101208701826132bf565b5060078401858303610140870152614b2f8382614576565b925050819250505092915050565b60006020820190508181036000830152614b5781846149fc565b90509291505056fea2646970667358221220ba15b1d3a11aead09122b10a9ec86b450be97705e7360fd7cc53bc9087d8b07864736f6c634300080a0033",
  "immutableReferences": {},
  "source": "// SPDX-License-Identifier: MIT\r\npragma solidity >=0.8.0 <0.9.0;\r\n\r\nimport \"./UserChain.sol\";\r\nimport \"./SharedChain.sol\";\r\n\r\ncontract ProjectChain is SharedChain {\r\n    address _userAddress;\r\n    UserChain userChain;\r\n\r\n    constructor() {\r\n        _userAddress = msg.sender;\r\n        //userChain = new UserChain();\r\n    }\r\n\r\n    modifier onlyUserProject() {\r\n        // User memory sessionUser = userChain.getUserInfo(_userAddress);\r\n        // require(\r\n        //     sessionUser._role == Roles.UserProject,\r\n        //     \"You don't have the rights for this resource.\"\r\n        // );\r\n        _;\r\n    }\r\n\r\n    modifier onlySupervisor() {\r\n        // User memory sessionUser = userChain.getUserInfo(_userAddress);\r\n        // require(\r\n        //     sessionUser._role == Roles.Supervisor,\r\n        //     \"You don't have the rights for this resource.\"\r\n        // );\r\n        _;\r\n    }\r\n\r\n    modifier onlyCompany() {\r\n        // User memory sessionUser = userChain.getUserInfo(_userAddress);\r\n        // require(\r\n        //     sessionUser._role == Roles.Company,\r\n        //     \"You don't have the rights for this resource.\"\r\n        // );\r\n        _;\r\n    }\r\n\r\n    /**  PROJECT INITIATOR  */\r\n\r\n    mapping(address => Project) public projects;\r\n    uint256 public projectsCounter = 0;\r\n    address[] public projectsAddress;\r\n\r\n    function createUniqueProjectAddress(string memory _name, uint _index) public view returns (address) {\r\n        return address(uint160(uint256(keccak256(abi.encodePacked(_name, _userAddress, _index)))));\r\n    }\r\n\r\n    function createProject(\r\n        address _projectAddress,\r\n        string memory _name,\r\n        uint256 _status,\r\n        string memory _ipfsFileCID,\r\n        string memory _signature\r\n    ) public onlyUserProject {\r\n        projects[_projectAddress] = Project(\r\n            projectsCounter,\r\n            _name,\r\n            ProjectStatus(_status),\r\n            _ipfsFileCID,\r\n            _projectAddress,\r\n            _userAddress,\r\n            block.timestamp,\r\n            _signature\r\n        );\r\n\r\n        emit ProjectEvent(projects[_projectAddress], _projectAddress);\r\n        projectsAddress.push(_projectAddress);\r\n        projectsCounter++;\r\n    }\r\n\r\n    function updateProject(\r\n        address _projectAddress,\r\n        string memory _ipfsFileCID,\r\n        string memory _signature\r\n    ) public onlyUserProject {\r\n        projects[_projectAddress]._ipfsFileCID = _ipfsFileCID;\r\n        projects[_projectAddress]._signature = _signature;\r\n\r\n        emit ProjectEvent(projects[_projectAddress], _projectAddress);\r\n    }\r\n\r\n    function getProjectInfo(address _address)\r\n        public\r\n        view\r\n        returns (Project memory)\r\n    {\r\n        require(msg.sender != address(0x0), \"Address is not valid.\");\r\n        return projects[_address];\r\n    }\r\n\r\n    function getUserProjects(address _signerAddress) public view returns (Project[] memory) {\r\n        Project[] memory allProjects;\r\n        if (projectsCounter == 0) return allProjects;\r\n\r\n        allProjects = new Project[](projectsCounter);\r\n        for (uint256 index = 0; index < projectsCounter; index++) {\r\n            address _projectAddress = projectsAddress[index];\r\n            if (_signerAddress == projects[_projectAddress]._signerAddress) {\r\n                Project storage project = projects[_projectAddress];\r\n                allProjects[index] = project;\r\n            }\r\n        }\r\n        return allProjects;\r\n    }\r\n\r\n    function getAllProjects() public view returns (Project[] memory) {\r\n        Project[] memory allProjects;\r\n        if (projectsCounter == 0) return allProjects;\r\n\r\n        allProjects = new Project[](projectsCounter);\r\n        for (uint256 index = 0; index < projectsCounter; index++) {\r\n            address _projectAddress = projectsAddress[index];\r\n            Project storage project = projects[_projectAddress];\r\n            allProjects[index] = project;\r\n        }\r\n        return allProjects;\r\n    }\r\n\r\n\r\n    /**  Project Requests  */\r\n\r\n    mapping(uint256 => ProjectRequest) public projectRequests;\r\n    uint256 public projectRequestsCounter = 0;\r\n    address[] public projectRequestsAddress;\r\n\r\n    function createUniqueProjectRequestAddress(string memory _title, uint _index) public view returns (address) {\r\n        return address(uint160(uint256(keccak256(abi.encodePacked(_title, _userAddress, _index)))));\r\n    }\r\n\r\n    function createProjectRequest(\r\n        string memory _title,\r\n        uint256 _status,\r\n        uint256 _requestStatus,\r\n        address _projectAddress,\r\n        address _projectReqAddress,\r\n        string memory _signature\r\n    ) public {\r\n        require(projects[_projectAddress]._status == ProjectStatus.Created, \"Steps must follow accordingly\");\r\n\r\n        //require(ProjectStatus.ToApprove == RequestStatus.UnApproved, \"\");\r\n        //require(ProjectStatus.ToApprove == RequestStatus.Rejected, \"\");\r\n\r\n\r\n\r\n        projectRequests[projectRequestsCounter] = ProjectRequest(\r\n            projectRequestsCounter,\r\n            _title,\r\n            \"\",\r\n            ProjectStatus(_status),\r\n            RequestStatus(_requestStatus),\r\n            _projectAddress,\r\n            _userAddress,\r\n            _projectReqAddress,\r\n            block.timestamp,\r\n            _signature\r\n        );\r\n\r\n        filterRequests(\r\n            projectRequestsCounter,\r\n            _title,\r\n            _requestStatus,\r\n            _status,\r\n            _projectAddress,\r\n            _projectReqAddress,\r\n            _signature\r\n        );\r\n\r\n        emit ProjectRequestEvent(projectRequests[projectRequestsCounter], _projectAddress);\r\n        projectRequestsAddress.push(_projectReqAddress);\r\n        projectRequestsCounter++;\r\n    }\r\n\r\n    function filterRequests(\r\n        uint256 _indexProjectRequest,\r\n        string memory _title,\r\n        uint256 _requestStatus,\r\n        uint256 _projectStatus,\r\n        address _projectAddress,\r\n        address _requestAddress,\r\n        string memory _signature\r\n    ) internal {\r\n        RequestType _requestType;\r\n        if (\r\n            ProjectStatus(_projectStatus) == ProjectStatus.ToApprove ||\r\n            ProjectStatus(_projectStatus) == ProjectStatus.FinalizationCheck ||\r\n            ProjectStatus(_projectStatus) == ProjectStatus.Completed\r\n        ) {\r\n            _requestType = RequestType.SupervisorReq;\r\n        } else if (\r\n            ProjectStatus(_projectStatus) == ProjectStatus.StartProject\r\n        ) {\r\n            _requestType = RequestType.CompanyReq;\r\n        }\r\n        createRequest(\r\n            _indexProjectRequest,\r\n            _title,\r\n            _requestStatus,\r\n            _projectStatus,\r\n            _requestType,\r\n            _projectAddress,\r\n            _requestAddress,\r\n            _signature\r\n        );\r\n    }\r\n\r\n    function getAllProjectRequests()\r\n        public\r\n        view\r\n        returns (ProjectRequest[] memory)\r\n    {\r\n        ProjectRequest[] memory allProjectRequests;\r\n        if (projectRequestsCounter == 0) return allProjectRequests;\r\n\r\n        allProjectRequests = new ProjectRequest[](projectRequestsCounter);\r\n        for (uint256 index = 0; index < projectRequestsCounter; index++) {\r\n            ProjectRequest storage projectReq = projectRequests[index];\r\n            allProjectRequests[index] = projectReq;\r\n        }\r\n        return allProjectRequests;\r\n    }\r\n\r\n    function getLastProjectRequest(address _projectAddress)\r\n        public\r\n        view\r\n        returns (ProjectRequest memory)\r\n    {\r\n        ProjectRequest memory request;\r\n        if (projectRequestsCounter > 0) {\r\n            for (\r\n                uint256 index = projectRequestsCounter - 1;\r\n                index >= 0;\r\n                index--\r\n            ) {\r\n                if (_projectAddress == projectRequests[index]._projectAddress) {\r\n                    request = ProjectRequest(\r\n                        0, \"\", \"\",\r\n                        projectRequests[index]._status,\r\n                        projectRequests[index]._requestStatus,\r\n                        projectRequests[index]._projectAddress,\r\n                        address(0), address(0), 0, \"\"\r\n                    );\r\n                    return request;\r\n                }\r\n            }\r\n        }\r\n        return request;\r\n    }\r\n\r\n\r\n    /**  DATA FOR SUPERVISOR && COMPANY  */\r\n\r\n    mapping(uint256 => Request) public requests;\r\n    uint256 public requestsCounter = 0;\r\n\r\n    function createRequest(\r\n        uint256 _indexProjectRequest,\r\n        string memory _title,\r\n        uint256 _requestStatus,\r\n        uint256 _projectStatus,\r\n        RequestType _requestType,\r\n        address _projectAddress,\r\n        address _requestAddress,\r\n        string memory _signature\r\n    ) internal {\r\n        requests[requestsCounter] = Request(\r\n            requestsCounter,\r\n            _indexProjectRequest,\r\n            _title,\r\n            RequestStatus(_requestStatus),\r\n            ProjectStatus(_projectStatus),\r\n            _requestType,\r\n            _projectAddress,\r\n            _userAddress,\r\n            _requestAddress,\r\n            block.timestamp,\r\n            _signature\r\n        );\r\n\r\n        emit RequestEvent(requests[requestsCounter], _requestAddress);\r\n        requestsCounter++;\r\n    }\r\n/*\r\n    function updateRequest(\r\n        uint256 _index,\r\n        uint256 _indexProjectRequest,\r\n        string memory _comments,\r\n        uint256 _requestStatus,\r\n        uint256 _projectStatus,\r\n        address _projectAddress,\r\n        string memory _signature\r\n    ) public {\r\n        // Update request status in the Requests Mapping and Struct Array\r\n        requests[_index]._requestStatus = RequestStatus(_requestStatus);\r\n        requests[_index]._signature = _signature;\r\n\r\n        emit RequestEvent(requests[_index], requests[_index]._requestAddress);\r\n\r\n        // Update project request status in the Project Requests Mapping and Struct Array\r\n        projectRequests[_indexProjectRequest]._comments = _comments;\r\n        projectRequests[_indexProjectRequest]._requestStatus = RequestStatus(_requestStatus);\r\n        projectRequests[_indexProjectRequest]._signature = _signature;\r\n\r\n        emit ProjectRequestEvent(projectRequests[_indexProjectRequest], _projectAddress);\r\n\r\n        // Update ProjectStatus to the requested status - Porject Mapping and Struct Array\r\n        if (RequestStatus.Approved == RequestStatus(_requestStatus)) {\r\n        projects[_projectAddress]._status = ProjectStatus(_projectStatus);\r\n        emit ProjectEvent(projects[_projectAddress], _projectAddress);\r\n        }\r\n    }\r\n*/\r\n    function getAllRequests() public view returns (Request[] memory) {\r\n        Request[] memory allRequests;\r\n        if (requestsCounter == 0) return allRequests;\r\n\r\n        allRequests = new Request[](requestsCounter);\r\n        for (uint256 index = 0; index < requestsCounter; index++) {\r\n            Request storage request = requests[index];\r\n            allRequests[index] = request;\r\n        }\r\n        return allRequests;\r\n    }\r\n}\r\n",
  "sourcePath": "/mnt/c/Users/Beniamin/source/repos/DissertationProject/contracts/ProjectChain.sol",
  "compiler": {
    "name": "solc",
    "version": "0.8.10+commit.fc410830.Emscripten.clang"
  },
  "schemaVersion": "3.4.3",
  "updatedAt": "2021-12-10T20:10:25.064Z",
  "networkType": "ethereum",
  "devdoc": {
    "kind": "dev",
    "methods": {},
    "version": 1
  },
  "userdoc": {
    "kind": "user",
    "methods": {
      "projectRequests(uint256)": {
        "notice": "Project Requests  "
      },
      "projects(address)": {
        "notice": "PROJECT INITIATOR  "
      },
      "requests(uint256)": {
        "notice": "DATA FOR SUPERVISOR && COMPANY  "
      }
    },
    "version": 1
  }
}