{
  "contractName": "ProjectChain",
  "abi": [
    {
      "inputs": [],
      "stateMutability": "nonpayable",
      "type": "constructor"
    },
    {
      "anonymous": false,
      "inputs": [
        {
          "components": [
            {
              "internalType": "uint256",
              "name": "_index",
              "type": "uint256"
            },
            {
              "internalType": "string",
              "name": "_name",
              "type": "string"
            },
            {
              "internalType": "enum SharedChain.ProjectStatus",
              "name": "_status",
              "type": "uint8"
            },
            {
              "internalType": "string",
              "name": "_ipfsFileCID",
              "type": "string"
            },
            {
              "internalType": "address",
              "name": "_projectAddress",
              "type": "address"
            },
            {
              "internalType": "address",
              "name": "_signerAddress",
              "type": "address"
            },
            {
              "internalType": "uint256",
              "name": "_timestamp",
              "type": "uint256"
            },
            {
              "internalType": "string",
              "name": "_signature",
              "type": "string"
            }
          ],
          "indexed": false,
          "internalType": "struct SharedChain.Project",
          "name": "_project",
          "type": "tuple"
        },
        {
          "indexed": true,
          "internalType": "address",
          "name": "_projectAddress",
          "type": "address"
        }
      ],
      "name": "ProjectEvent",
      "type": "event"
    },
    {
      "anonymous": false,
      "inputs": [
        {
          "components": [
            {
              "internalType": "uint256",
              "name": "_index",
              "type": "uint256"
            },
            {
              "internalType": "string",
              "name": "_title",
              "type": "string"
            },
            {
              "internalType": "string",
              "name": "_comments",
              "type": "string"
            },
            {
              "internalType": "enum SharedChain.ProjectStatus",
              "name": "_projectStatus",
              "type": "uint8"
            },
            {
              "internalType": "enum SharedChain.RequestStatus",
              "name": "_requestStatus",
              "type": "uint8"
            },
            {
              "internalType": "enum SharedChain.RequestType",
              "name": "_requestType",
              "type": "uint8"
            },
            {
              "internalType": "address",
              "name": "_projectAddress",
              "type": "address"
            },
            {
              "internalType": "address",
              "name": "_requestAddress",
              "type": "address"
            },
            {
              "internalType": "address",
              "name": "_signerAddress",
              "type": "address"
            },
            {
              "internalType": "uint256",
              "name": "_timestamp",
              "type": "uint256"
            },
            {
              "internalType": "string",
              "name": "_signature",
              "type": "string"
            }
          ],
          "indexed": false,
          "internalType": "struct SharedChain.Request",
          "name": "_request",
          "type": "tuple"
        },
        {
          "indexed": true,
          "internalType": "address",
          "name": "_requestAddress",
          "type": "address"
        },
        {
          "indexed": true,
          "internalType": "address",
          "name": "_projectAddress",
          "type": "address"
        }
      ],
      "name": "RequestEvent",
      "type": "event"
    },
    {
      "anonymous": false,
      "inputs": [
        {
          "components": [
            {
              "internalType": "uint256",
              "name": "_index",
              "type": "uint256"
            },
            {
              "internalType": "string",
              "name": "_username",
              "type": "string"
            },
            {
              "internalType": "bytes32",
              "name": "_email",
              "type": "bytes32"
            },
            {
              "internalType": "bytes32",
              "name": "_firstname",
              "type": "bytes32"
            },
            {
              "internalType": "bytes32",
              "name": "_lastname",
              "type": "bytes32"
            },
            {
              "internalType": "enum SharedChain.Roles",
              "name": "_role",
              "type": "uint8"
            },
            {
              "internalType": "address",
              "name": "_walletAddress",
              "type": "address"
            },
            {
              "internalType": "uint256",
              "name": "_timestamp",
              "type": "uint256"
            },
            {
              "internalType": "string",
              "name": "_signature",
              "type": "string"
            }
          ],
          "indexed": false,
          "internalType": "struct SharedChain.User",
          "name": "_user",
          "type": "tuple"
        },
        {
          "indexed": true,
          "internalType": "address",
          "name": "_walletAddress",
          "type": "address"
        }
      ],
      "name": "UserEvent",
      "type": "event"
    },
    {
      "inputs": [
        {
          "internalType": "address",
          "name": "",
          "type": "address"
        }
      ],
      "name": "projects",
      "outputs": [
        {
          "internalType": "uint256",
          "name": "_index",
          "type": "uint256"
        },
        {
          "internalType": "string",
          "name": "_name",
          "type": "string"
        },
        {
          "internalType": "enum SharedChain.ProjectStatus",
          "name": "_status",
          "type": "uint8"
        },
        {
          "internalType": "string",
          "name": "_ipfsFileCID",
          "type": "string"
        },
        {
          "internalType": "address",
          "name": "_projectAddress",
          "type": "address"
        },
        {
          "internalType": "address",
          "name": "_signerAddress",
          "type": "address"
        },
        {
          "internalType": "uint256",
          "name": "_timestamp",
          "type": "uint256"
        },
        {
          "internalType": "string",
          "name": "_signature",
          "type": "string"
        }
      ],
      "stateMutability": "view",
      "type": "function",
      "constant": true
    },
    {
      "inputs": [
        {
          "internalType": "uint256",
          "name": "",
          "type": "uint256"
        }
      ],
      "name": "projectsAddress",
      "outputs": [
        {
          "internalType": "address",
          "name": "",
          "type": "address"
        }
      ],
      "stateMutability": "view",
      "type": "function",
      "constant": true
    },
    {
      "inputs": [],
      "name": "projectsCounter",
      "outputs": [
        {
          "internalType": "uint256",
          "name": "",
          "type": "uint256"
        }
      ],
      "stateMutability": "view",
      "type": "function",
      "constant": true
    },
    {
      "inputs": [
        {
          "internalType": "address",
          "name": "",
          "type": "address"
        }
      ],
      "name": "requests",
      "outputs": [
        {
          "internalType": "uint256",
          "name": "_index",
          "type": "uint256"
        },
        {
          "internalType": "string",
          "name": "_title",
          "type": "string"
        },
        {
          "internalType": "string",
          "name": "_comments",
          "type": "string"
        },
        {
          "internalType": "enum SharedChain.ProjectStatus",
          "name": "_projectStatus",
          "type": "uint8"
        },
        {
          "internalType": "enum SharedChain.RequestStatus",
          "name": "_requestStatus",
          "type": "uint8"
        },
        {
          "internalType": "enum SharedChain.RequestType",
          "name": "_requestType",
          "type": "uint8"
        },
        {
          "internalType": "address",
          "name": "_projectAddress",
          "type": "address"
        },
        {
          "internalType": "address",
          "name": "_requestAddress",
          "type": "address"
        },
        {
          "internalType": "address",
          "name": "_signerAddress",
          "type": "address"
        },
        {
          "internalType": "uint256",
          "name": "_timestamp",
          "type": "uint256"
        },
        {
          "internalType": "string",
          "name": "_signature",
          "type": "string"
        }
      ],
      "stateMutability": "view",
      "type": "function",
      "constant": true
    },
    {
      "inputs": [
        {
          "internalType": "uint256",
          "name": "",
          "type": "uint256"
        }
      ],
      "name": "requestsAddress",
      "outputs": [
        {
          "internalType": "address",
          "name": "",
          "type": "address"
        }
      ],
      "stateMutability": "view",
      "type": "function",
      "constant": true
    },
    {
      "inputs": [],
      "name": "requestsCounter",
      "outputs": [
        {
          "internalType": "uint256",
          "name": "",
          "type": "uint256"
        }
      ],
      "stateMutability": "view",
      "type": "function",
      "constant": true
    },
    {
      "inputs": [
        {
          "internalType": "string",
          "name": "_name",
          "type": "string"
        },
        {
          "internalType": "uint256",
          "name": "_index",
          "type": "uint256"
        }
      ],
      "name": "createUniqueProjectAddress",
      "outputs": [
        {
          "internalType": "address",
          "name": "",
          "type": "address"
        }
      ],
      "stateMutability": "view",
      "type": "function",
      "constant": true
    },
    {
      "inputs": [
        {
          "internalType": "address",
          "name": "_projectAddress",
          "type": "address"
        },
        {
          "internalType": "string",
          "name": "_name",
          "type": "string"
        },
        {
          "internalType": "uint256",
          "name": "_status",
          "type": "uint256"
        },
        {
          "internalType": "string",
          "name": "_ipfsFileCID",
          "type": "string"
        },
        {
          "internalType": "string",
          "name": "_signature",
          "type": "string"
        }
      ],
      "name": "createProject",
      "outputs": [],
      "stateMutability": "nonpayable",
      "type": "function"
    },
    {
      "inputs": [
        {
          "internalType": "address",
          "name": "_projectAddress",
          "type": "address"
        },
        {
          "internalType": "string",
          "name": "_ipfsFileCID",
          "type": "string"
        },
        {
          "internalType": "string",
          "name": "_signature",
          "type": "string"
        }
      ],
      "name": "updateProject",
      "outputs": [],
      "stateMutability": "nonpayable",
      "type": "function"
    },
    {
      "inputs": [
        {
          "internalType": "address",
          "name": "_address",
          "type": "address"
        }
      ],
      "name": "getProjectInfo",
      "outputs": [
        {
          "components": [
            {
              "internalType": "uint256",
              "name": "_index",
              "type": "uint256"
            },
            {
              "internalType": "string",
              "name": "_name",
              "type": "string"
            },
            {
              "internalType": "enum SharedChain.ProjectStatus",
              "name": "_status",
              "type": "uint8"
            },
            {
              "internalType": "string",
              "name": "_ipfsFileCID",
              "type": "string"
            },
            {
              "internalType": "address",
              "name": "_projectAddress",
              "type": "address"
            },
            {
              "internalType": "address",
              "name": "_signerAddress",
              "type": "address"
            },
            {
              "internalType": "uint256",
              "name": "_timestamp",
              "type": "uint256"
            },
            {
              "internalType": "string",
              "name": "_signature",
              "type": "string"
            }
          ],
          "internalType": "struct SharedChain.Project",
          "name": "",
          "type": "tuple"
        }
      ],
      "stateMutability": "view",
      "type": "function",
      "constant": true
    },
    {
      "inputs": [
        {
          "internalType": "address",
          "name": "_signerAddress",
          "type": "address"
        }
      ],
      "name": "getUserProjects",
      "outputs": [
        {
          "components": [
            {
              "internalType": "uint256",
              "name": "_index",
              "type": "uint256"
            },
            {
              "internalType": "string",
              "name": "_name",
              "type": "string"
            },
            {
              "internalType": "enum SharedChain.ProjectStatus",
              "name": "_status",
              "type": "uint8"
            },
            {
              "internalType": "string",
              "name": "_ipfsFileCID",
              "type": "string"
            },
            {
              "internalType": "address",
              "name": "_projectAddress",
              "type": "address"
            },
            {
              "internalType": "address",
              "name": "_signerAddress",
              "type": "address"
            },
            {
              "internalType": "uint256",
              "name": "_timestamp",
              "type": "uint256"
            },
            {
              "internalType": "string",
              "name": "_signature",
              "type": "string"
            }
          ],
          "internalType": "struct SharedChain.Project[]",
          "name": "",
          "type": "tuple[]"
        }
      ],
      "stateMutability": "view",
      "type": "function",
      "constant": true
    },
    {
      "inputs": [],
      "name": "getAllProjects",
      "outputs": [
        {
          "components": [
            {
              "internalType": "uint256",
              "name": "_index",
              "type": "uint256"
            },
            {
              "internalType": "string",
              "name": "_name",
              "type": "string"
            },
            {
              "internalType": "enum SharedChain.ProjectStatus",
              "name": "_status",
              "type": "uint8"
            },
            {
              "internalType": "string",
              "name": "_ipfsFileCID",
              "type": "string"
            },
            {
              "internalType": "address",
              "name": "_projectAddress",
              "type": "address"
            },
            {
              "internalType": "address",
              "name": "_signerAddress",
              "type": "address"
            },
            {
              "internalType": "uint256",
              "name": "_timestamp",
              "type": "uint256"
            },
            {
              "internalType": "string",
              "name": "_signature",
              "type": "string"
            }
          ],
          "internalType": "struct SharedChain.Project[]",
          "name": "",
          "type": "tuple[]"
        }
      ],
      "stateMutability": "view",
      "type": "function",
      "constant": true
    },
    {
      "inputs": [
        {
          "internalType": "string",
          "name": "_title",
          "type": "string"
        },
        {
          "internalType": "uint256",
          "name": "_index",
          "type": "uint256"
        }
      ],
      "name": "createUniqueRequestAddress",
      "outputs": [
        {
          "internalType": "address",
          "name": "",
          "type": "address"
        }
      ],
      "stateMutability": "view",
      "type": "function",
      "constant": true
    },
    {
      "inputs": [
        {
          "internalType": "uint256",
          "name": "_projectStatus",
          "type": "uint256"
        }
      ],
      "name": "checkRequestPermission",
      "outputs": [
        {
          "internalType": "enum SharedChain.PermissionType",
          "name": "",
          "type": "uint8"
        }
      ],
      "stateMutability": "pure",
      "type": "function",
      "constant": true
    },
    {
      "inputs": [
        {
          "internalType": "string",
          "name": "_title",
          "type": "string"
        },
        {
          "internalType": "uint256",
          "name": "_projectStatus",
          "type": "uint256"
        },
        {
          "internalType": "uint256",
          "name": "_requestStatus",
          "type": "uint256"
        },
        {
          "internalType": "address",
          "name": "_projectAddress",
          "type": "address"
        },
        {
          "internalType": "address",
          "name": "_requestAddress",
          "type": "address"
        },
        {
          "internalType": "string",
          "name": "_signature",
          "type": "string"
        }
      ],
      "name": "createRequest",
      "outputs": [],
      "stateMutability": "nonpayable",
      "type": "function"
    },
    {
      "inputs": [
        {
          "internalType": "string",
          "name": "_comments",
          "type": "string"
        },
        {
          "internalType": "uint256",
          "name": "_requestStatus",
          "type": "uint256"
        },
        {
          "internalType": "uint256",
          "name": "_projectStatus",
          "type": "uint256"
        },
        {
          "internalType": "address",
          "name": "_projectAddress",
          "type": "address"
        },
        {
          "internalType": "address",
          "name": "_requestAddress",
          "type": "address"
        },
        {
          "internalType": "string",
          "name": "_signature",
          "type": "string"
        }
      ],
      "name": "updateRequest",
      "outputs": [],
      "stateMutability": "nonpayable",
      "type": "function"
    },
    {
      "inputs": [],
      "name": "getAllRequests",
      "outputs": [
        {
          "components": [
            {
              "internalType": "uint256",
              "name": "_index",
              "type": "uint256"
            },
            {
              "internalType": "string",
              "name": "_title",
              "type": "string"
            },
            {
              "internalType": "string",
              "name": "_comments",
              "type": "string"
            },
            {
              "internalType": "enum SharedChain.ProjectStatus",
              "name": "_projectStatus",
              "type": "uint8"
            },
            {
              "internalType": "enum SharedChain.RequestStatus",
              "name": "_requestStatus",
              "type": "uint8"
            },
            {
              "internalType": "enum SharedChain.RequestType",
              "name": "_requestType",
              "type": "uint8"
            },
            {
              "internalType": "address",
              "name": "_projectAddress",
              "type": "address"
            },
            {
              "internalType": "address",
              "name": "_requestAddress",
              "type": "address"
            },
            {
              "internalType": "address",
              "name": "_signerAddress",
              "type": "address"
            },
            {
              "internalType": "uint256",
              "name": "_timestamp",
              "type": "uint256"
            },
            {
              "internalType": "string",
              "name": "_signature",
              "type": "string"
            }
          ],
          "internalType": "struct SharedChain.Request[]",
          "name": "",
          "type": "tuple[]"
        }
      ],
      "stateMutability": "view",
      "type": "function",
      "constant": true
    },
    {
      "inputs": [
        {
          "internalType": "address",
          "name": "_projectAddress",
          "type": "address"
        }
      ],
      "name": "getProjectRequests",
      "outputs": [
        {
          "components": [
            {
              "internalType": "uint256",
              "name": "_index",
              "type": "uint256"
            },
            {
              "internalType": "string",
              "name": "_title",
              "type": "string"
            },
            {
              "internalType": "string",
              "name": "_comments",
              "type": "string"
            },
            {
              "internalType": "enum SharedChain.ProjectStatus",
              "name": "_projectStatus",
              "type": "uint8"
            },
            {
              "internalType": "enum SharedChain.RequestStatus",
              "name": "_requestStatus",
              "type": "uint8"
            },
            {
              "internalType": "enum SharedChain.RequestType",
              "name": "_requestType",
              "type": "uint8"
            },
            {
              "internalType": "address",
              "name": "_projectAddress",
              "type": "address"
            },
            {
              "internalType": "address",
              "name": "_requestAddress",
              "type": "address"
            },
            {
              "internalType": "address",
              "name": "_signerAddress",
              "type": "address"
            },
            {
              "internalType": "uint256",
              "name": "_timestamp",
              "type": "uint256"
            },
            {
              "internalType": "string",
              "name": "_signature",
              "type": "string"
            }
          ],
          "internalType": "struct SharedChain.Request[]",
          "name": "",
          "type": "tuple[]"
        }
      ],
      "stateMutability": "view",
      "type": "function",
      "constant": true
    },
    {
      "inputs": [
        {
          "internalType": "address",
          "name": "_projectAddress",
          "type": "address"
        },
        {
          "internalType": "address",
          "name": "_requestAddress",
          "type": "address"
        }
      ],
      "name": "getLastProjectRequest",
      "outputs": [
        {
          "components": [
            {
              "internalType": "uint256",
              "name": "_index",
              "type": "uint256"
            },
            {
              "internalType": "string",
              "name": "_title",
              "type": "string"
            },
            {
              "internalType": "string",
              "name": "_comments",
              "type": "string"
            },
            {
              "internalType": "enum SharedChain.ProjectStatus",
              "name": "_projectStatus",
              "type": "uint8"
            },
            {
              "internalType": "enum SharedChain.RequestStatus",
              "name": "_requestStatus",
              "type": "uint8"
            },
            {
              "internalType": "enum SharedChain.RequestType",
              "name": "_requestType",
              "type": "uint8"
            },
            {
              "internalType": "address",
              "name": "_projectAddress",
              "type": "address"
            },
            {
              "internalType": "address",
              "name": "_requestAddress",
              "type": "address"
            },
            {
              "internalType": "address",
              "name": "_signerAddress",
              "type": "address"
            },
            {
              "internalType": "uint256",
              "name": "_timestamp",
              "type": "uint256"
            },
            {
              "internalType": "string",
              "name": "_signature",
              "type": "string"
            }
          ],
          "internalType": "struct SharedChain.Request",
          "name": "",
          "type": "tuple"
        }
      ],
      "stateMutability": "view",
      "type": "function",
      "constant": true
    }
  ],
  "bytecode": "0x60806040526000600255600060055534801561001a57600080fd5b506146848061002a6000396000f3fe608060405234801561001057600080fd5b50600436106101215760003560e01c806380d03829116100ad578063e1592c0d11610071578063e1592c0d1461038b578063e32e723c146103a7578063e617385f146103d7578063fb1a002a146103f3578063fe360ea51461041157610121565b806380d03829146102ce578063840e78fd146102ec578063844855631461032357806387edbec71461033f5780638eb0717a1461035b57610121565b806347ee45b9116100f457806347ee45b9146101e657806356a3eead14610216578063663c22691461024657806374adad1d1461026457806376c932e01461029e57610121565b80631182b65c14610126578063191e1645146101565780633b4ec4f81461018657806344884710146101b6575b600080fd5b610140600480360381019061013b91906131d5565b61042f565b60405161014d9190613279565b60405180910390f35b610170600480360381019061016b91906133da565b610482565b60405161017d9190613477565b60405180910390f35b6101a0600480360381019061019b91906133da565b6104ba565b6040516101ad9190613477565b60405180910390f35b6101d060048036038101906101cb91906134be565b6104f2565b6040516101dd9190613779565b60405180910390f35b61020060048036038101906101fb919061379b565b610979565b60405161020d9190613886565b60405180910390f35b610230600480360381019061022b91906131d5565b610c84565b60405161023d9190613477565b60405180910390f35b61024e610cc3565b60405161025b91906138b7565b60405180910390f35b61027e6004803603810190610279919061379b565b610cc9565b6040516102959b9a99989796959493929190613949565b60405180910390f35b6102b860048036038101906102b391906131d5565b610f42565b6040516102c59190613477565b60405180910390f35b6102d6610f81565b6040516102e39190613b89565b60405180910390f35b6103066004803603810190610301919061379b565b61137d565b60405161031a989796959493929190613bab565b60405180910390f35b61033d60048036038101906103389190613c3e565b6115aa565b005b61035960048036038101906103549190613d0d565b6118af565b005b6103756004803603810190610370919061379b565b611bcb565b6040516103829190613f91565b60405180910390f35b6103a560048036038101906103a09190613fb3565b612081565b005b6103c160048036038101906103bc919061379b565b6121c0565b6040516103ce9190613b89565b60405180910390f35b6103f160048036038101906103ec9190613d0d565b612655565b005b6103fb612ad9565b6040516104089190613f91565b60405180910390f35b610419612f8d565b60405161042691906138b7565b60405180910390f35b600080600481111561044457610443613202565b5b82600481111561045757610456613202565b5b600481111561046957610468613202565b5b1415610478576000905061047d565b600190505b919050565b6000823383604051602001610499939291906140e3565b6040516020818303038152906040528051906020012060001c905092915050565b60008233836040516020016104d1939291906140e3565b6040516020818303038152906040528051906020012060001c905092915050565b6104fa612f93565b610502612f93565b6000600554111561096f578373ffffffffffffffffffffffffffffffffffffffff16600460008573ffffffffffffffffffffffffffffffffffffffff1673ffffffffffffffffffffffffffffffffffffffff16815260200190815260200160002060030160039054906101000a900473ffffffffffffffffffffffffffffffffffffffff1673ffffffffffffffffffffffffffffffffffffffff16141561096e57600460008473ffffffffffffffffffffffffffffffffffffffff1673ffffffffffffffffffffffffffffffffffffffff16815260200190815260200160002060405180610160016040529081600082015481526020016001820180546106089061414b565b80601f01602080910402602001604051908101604052809291908181526020018280546106349061414b565b80156106815780601f1061065657610100808354040283529160200191610681565b820191906000526020600020905b81548152906001019060200180831161066457829003601f168201915b5050505050815260200160028201805461069a9061414b565b80601f01602080910402602001604051908101604052809291908181526020018280546106c69061414b565b80156107135780601f106106e857610100808354040283529160200191610713565b820191906000526020600020905b8154815290600101906020018083116106f657829003601f168201915b505050505081526020016003820160009054906101000a900460ff16600481111561074157610740613202565b5b600481111561075357610752613202565b5b81526020016003820160019054906101000a900460ff16600281111561077c5761077b613202565b5b600281111561078e5761078d613202565b5b81526020016003820160029054906101000a900460ff1660018111156107b7576107b6613202565b5b60018111156107c9576107c8613202565b5b81526020016003820160039054906101000a900473ffffffffffffffffffffffffffffffffffffffff1673ffffffffffffffffffffffffffffffffffffffff1673ffffffffffffffffffffffffffffffffffffffff1681526020016004820160009054906101000a900473ffffffffffffffffffffffffffffffffffffffff1673ffffffffffffffffffffffffffffffffffffffff1673ffffffffffffffffffffffffffffffffffffffff1681526020016005820160009054906101000a900473ffffffffffffffffffffffffffffffffffffffff1673ffffffffffffffffffffffffffffffffffffffff1673ffffffffffffffffffffffffffffffffffffffff168152602001600682015481526020016007820180546108e99061414b565b80601f01602080910402602001604051908101604052809291908181526020018280546109159061414b565b80156109625780601f1061093757610100808354040283529160200191610962565b820191906000526020600020905b81548152906001019060200180831161094557829003601f168201915b50505050508152505090505b5b8091505092915050565b610981613065565b600160008373ffffffffffffffffffffffffffffffffffffffff1673ffffffffffffffffffffffffffffffffffffffff16815260200190815260200160002060405180610100016040529081600082015481526020016001820180546109e69061414b565b80601f0160208091040260200160405190810160405280929190818152602001828054610a129061414b565b8015610a5f5780601f10610a3457610100808354040283529160200191610a5f565b820191906000526020600020905b815481529060010190602001808311610a4257829003601f168201915b505050505081526020016002820160009054906101000a900460ff166004811115610a8d57610a8c613202565b5b6004811115610a9f57610a9e613202565b5b8152602001600382018054610ab39061414b565b80601f0160208091040260200160405190810160405280929190818152602001828054610adf9061414b565b8015610b2c5780601f10610b0157610100808354040283529160200191610b2c565b820191906000526020600020905b815481529060010190602001808311610b0f57829003601f168201915b505050505081526020016004820160009054906101000a900473ffffffffffffffffffffffffffffffffffffffff1673ffffffffffffffffffffffffffffffffffffffff1673ffffffffffffffffffffffffffffffffffffffff1681526020016005820160009054906101000a900473ffffffffffffffffffffffffffffffffffffffff1673ffffffffffffffffffffffffffffffffffffffff1673ffffffffffffffffffffffffffffffffffffffff16815260200160068201548152602001600782018054610bfb9061414b565b80601f0160208091040260200160405190810160405280929190818152602001828054610c279061414b565b8015610c745780601f10610c4957610100808354040283529160200191610c74565b820191906000526020600020905b815481529060010190602001808311610c5757829003601f168201915b5050505050815250509050919050565b60068181548110610c9457600080fd5b906000526020600020016000915054906101000a900473ffffffffffffffffffffffffffffffffffffffff1681565b60055481565b6004602052806000526040600020600091509050806000015490806001018054610cf29061414b565b80601f0160208091040260200160405190810160405280929190818152602001828054610d1e9061414b565b8015610d6b5780601f10610d4057610100808354040283529160200191610d6b565b820191906000526020600020905b815481529060010190602001808311610d4e57829003601f168201915b505050505090806002018054610d809061414b565b80601f0160208091040260200160405190810160405280929190818152602001828054610dac9061414b565b8015610df95780601f10610dce57610100808354040283529160200191610df9565b820191906000526020600020905b815481529060010190602001808311610ddc57829003601f168201915b5050505050908060030160009054906101000a900460ff16908060030160019054906101000a900460ff16908060030160029054906101000a900460ff16908060030160039054906101000a900473ffffffffffffffffffffffffffffffffffffffff16908060040160009054906101000a900473ffffffffffffffffffffffffffffffffffffffff16908060050160009054906101000a900473ffffffffffffffffffffffffffffffffffffffff1690806006015490806007018054610ebf9061414b565b80601f0160208091040260200160405190810160405280929190818152602001828054610eeb9061414b565b8015610f385780601f10610f0d57610100808354040283529160200191610f38565b820191906000526020600020905b815481529060010190602001808311610f1b57829003601f168201915b505050505090508b565b60038181548110610f5257600080fd5b906000526020600020016000915054906101000a900473ffffffffffffffffffffffffffffffffffffffff1681565b60608060006002541415610f98578091505061137a565b60025467ffffffffffffffff811115610fb457610fb36132af565b5b604051908082528060200260200182016040528015610fed57816020015b610fda613065565b815260200190600190039081610fd25790505b50905060005b600254811015611374576000600382815481106110135761101261417d565b5b9060005260206000200160009054906101000a900473ffffffffffffffffffffffffffffffffffffffff1690506000600160008373ffffffffffffffffffffffffffffffffffffffff1673ffffffffffffffffffffffffffffffffffffffff16815260200190815260200160002090508060405180610100016040529081600082015481526020016001820180546110aa9061414b565b80601f01602080910402602001604051908101604052809291908181526020018280546110d69061414b565b80156111235780601f106110f857610100808354040283529160200191611123565b820191906000526020600020905b81548152906001019060200180831161110657829003601f168201915b505050505081526020016002820160009054906101000a900460ff16600481111561115157611150613202565b5b600481111561116357611162613202565b5b81526020016003820180546111779061414b565b80601f01602080910402602001604051908101604052809291908181526020018280546111a39061414b565b80156111f05780601f106111c5576101008083540402835291602001916111f0565b820191906000526020600020905b8154815290600101906020018083116111d357829003601f168201915b505050505081526020016004820160009054906101000a900473ffffffffffffffffffffffffffffffffffffffff1673ffffffffffffffffffffffffffffffffffffffff1673ffffffffffffffffffffffffffffffffffffffff1681526020016005820160009054906101000a900473ffffffffffffffffffffffffffffffffffffffff1673ffffffffffffffffffffffffffffffffffffffff1673ffffffffffffffffffffffffffffffffffffffff168152602001600682015481526020016007820180546112bf9061414b565b80601f01602080910402602001604051908101604052809291908181526020018280546112eb9061414b565b80156113385780601f1061130d57610100808354040283529160200191611338565b820191906000526020600020905b81548152906001019060200180831161131b57829003601f168201915b5050505050815250508484815181106113545761135361417d565b5b60200260200101819052505050808061136c906141db565b915050610ff3565b50809150505b90565b60016020528060005260406000206000915090508060000154908060010180546113a69061414b565b80601f01602080910402602001604051908101604052809291908181526020018280546113d29061414b565b801561141f5780601f106113f45761010080835404028352916020019161141f565b820191906000526020600020905b81548152906001019060200180831161140257829003601f168201915b5050505050908060020160009054906101000a900460ff16908060030180546114479061414b565b80601f01602080910402602001604051908101604052809291908181526020018280546114739061414b565b80156114c05780601f10611495576101008083540402835291602001916114c0565b820191906000526020600020905b8154815290600101906020018083116114a357829003601f168201915b5050505050908060040160009054906101000a900473ffffffffffffffffffffffffffffffffffffffff16908060050160009054906101000a900473ffffffffffffffffffffffffffffffffffffffff16908060060154908060070180546115279061414b565b80601f01602080910402602001604051908101604052809291908181526020018280546115539061414b565b80156115a05780601f10611575576101008083540402835291602001916115a0565b820191906000526020600020905b81548152906001019060200180831161158357829003601f168201915b5050505050905088565b60405180610100016040528060025481526020018581526020018460048111156115d7576115d6613202565b5b60048111156115e9576115e8613202565b5b81526020018381526020018673ffffffffffffffffffffffffffffffffffffffff1681526020013373ffffffffffffffffffffffffffffffffffffffff16815260200142815260200182815250600160008773ffffffffffffffffffffffffffffffffffffffff1673ffffffffffffffffffffffffffffffffffffffff16815260200190815260200160002060008201518160000155602082015181600101908051906020019061169b9291906130e8565b5060408201518160020160006101000a81548160ff021916908360048111156116c7576116c6613202565b5b021790555060608201518160030190805190602001906116e89291906130e8565b5060808201518160040160006101000a81548173ffffffffffffffffffffffffffffffffffffffff021916908373ffffffffffffffffffffffffffffffffffffffff16021790555060a08201518160050160006101000a81548173ffffffffffffffffffffffffffffffffffffffff021916908373ffffffffffffffffffffffffffffffffffffffff16021790555060c0820151816006015560e082015181600701908051906020019061179d9291906130e8565b509050508473ffffffffffffffffffffffffffffffffffffffff167fac85378acf27ea180ea9b66d81dac89bcc984812edf7111c9413f708da4ca37a600160008873ffffffffffffffffffffffffffffffffffffffff1673ffffffffffffffffffffffffffffffffffffffff168152602001908152602001600020604051611825919061443f565b60405180910390a26003859080600181540180825580915050600190039060005260206000200160009091909190916101000a81548173ffffffffffffffffffffffffffffffffffffffff021916908373ffffffffffffffffffffffffffffffffffffffff160217905550600260008154809291906118a3906141db565b91905055505050505050565b85600460008473ffffffffffffffffffffffffffffffffffffffff1673ffffffffffffffffffffffffffffffffffffffff16815260200190815260200160002060020190805190602001906119059291906130e8565b5084600281111561191957611918613202565b5b600460008473ffffffffffffffffffffffffffffffffffffffff1673ffffffffffffffffffffffffffffffffffffffff16815260200190815260200160002060030160016101000a81548160ff0219169083600281111561197d5761197c613202565b5b021790555080600460008473ffffffffffffffffffffffffffffffffffffffff1673ffffffffffffffffffffffffffffffffffffffff16815260200190815260200160002060070190805190602001906119d89291906130e8565b508273ffffffffffffffffffffffffffffffffffffffff168273ffffffffffffffffffffffffffffffffffffffff167fa25a6f1ff57a050a48ae4b3a19f271fddad950cac8d165d6a2eca5d54cc8070f600460008673ffffffffffffffffffffffffffffffffffffffff1673ffffffffffffffffffffffffffffffffffffffff168152602001908152602001600020604051611a74919061462c565b60405180910390a3846002811115611a8f57611a8e613202565b5b6002811115611aa157611aa0613202565b5b600280811115611ab457611ab3613202565b5b1415611bc357836004811115611acd57611acc613202565b5b600160008573ffffffffffffffffffffffffffffffffffffffff1673ffffffffffffffffffffffffffffffffffffffff16815260200190815260200160002060020160006101000a81548160ff02191690836004811115611b3157611b30613202565b5b02179055508273ffffffffffffffffffffffffffffffffffffffff167fac85378acf27ea180ea9b66d81dac89bcc984812edf7111c9413f708da4ca37a600160008673ffffffffffffffffffffffffffffffffffffffff1673ffffffffffffffffffffffffffffffffffffffff168152602001908152602001600020604051611bba919061443f565b60405180910390a25b505050505050565b60608060005b60055481101561207757600060068281548110611bf157611bf061417d565b5b9060005260206000200160009054906101000a900473ffffffffffffffffffffffffffffffffffffffff1690506000600460008373ffffffffffffffffffffffffffffffffffffffff1673ffffffffffffffffffffffffffffffffffffffff16815260200190815260200160002090508060030160039054906101000a900473ffffffffffffffffffffffffffffffffffffffff1673ffffffffffffffffffffffffffffffffffffffff168673ffffffffffffffffffffffffffffffffffffffff16141561206257806040518061016001604052908160008201548152602001600182018054611ce09061414b565b80601f0160208091040260200160405190810160405280929190818152602001828054611d0c9061414b565b8015611d595780601f10611d2e57610100808354040283529160200191611d59565b820191906000526020600020905b815481529060010190602001808311611d3c57829003601f168201915b50505050508152602001600282018054611d729061414b565b80601f0160208091040260200160405190810160405280929190818152602001828054611d9e9061414b565b8015611deb5780601f10611dc057610100808354040283529160200191611deb565b820191906000526020600020905b815481529060010190602001808311611dce57829003601f168201915b505050505081526020016003820160009054906101000a900460ff166004811115611e1957611e18613202565b5b6004811115611e2b57611e2a613202565b5b81526020016003820160019054906101000a900460ff166002811115611e5457611e53613202565b5b6002811115611e6657611e65613202565b5b81526020016003820160029054906101000a900460ff166001811115611e8f57611e8e613202565b5b6001811115611ea157611ea0613202565b5b81526020016003820160039054906101000a900473ffffffffffffffffffffffffffffffffffffffff1673ffffffffffffffffffffffffffffffffffffffff1673ffffffffffffffffffffffffffffffffffffffff1681526020016004820160009054906101000a900473ffffffffffffffffffffffffffffffffffffffff1673ffffffffffffffffffffffffffffffffffffffff1673ffffffffffffffffffffffffffffffffffffffff1681526020016005820160009054906101000a900473ffffffffffffffffffffffffffffffffffffffff1673ffffffffffffffffffffffffffffffffffffffff1673ffffffffffffffffffffffffffffffffffffffff16815260200160068201548152602001600782018054611fc19061414b565b80601f0160208091040260200160405190810160405280929190818152602001828054611fed9061414b565b801561203a5780601f1061200f5761010080835404028352916020019161203a565b820191906000526020600020905b81548152906001019060200180831161201d57829003601f168201915b5050505050815250508484815181106120565761205561417d565b5b60200260200101819052505b5050808061206f906141db565b915050611bd1565b5080915050919050565b81600160008573ffffffffffffffffffffffffffffffffffffffff1673ffffffffffffffffffffffffffffffffffffffff16815260200190815260200160002060030190805190602001906120d79291906130e8565b5080600160008573ffffffffffffffffffffffffffffffffffffffff1673ffffffffffffffffffffffffffffffffffffffff168152602001908152602001600020600701908051906020019061212e9291906130e8565b508273ffffffffffffffffffffffffffffffffffffffff167fac85378acf27ea180ea9b66d81dac89bcc984812edf7111c9413f708da4ca37a600160008673ffffffffffffffffffffffffffffffffffffffff1673ffffffffffffffffffffffffffffffffffffffff1681526020019081526020016000206040516121b3919061443f565b60405180910390a2505050565b606080600060025414156121d75780915050612650565b60025467ffffffffffffffff8111156121f3576121f26132af565b5b60405190808252806020026020018201604052801561222c57816020015b612219613065565b8152602001906001900390816122115790505b50905060005b60025481101561264a576000600382815481106122525761225161417d565b5b9060005260206000200160009054906101000a900473ffffffffffffffffffffffffffffffffffffffff169050600160008273ffffffffffffffffffffffffffffffffffffffff1673ffffffffffffffffffffffffffffffffffffffff16815260200190815260200160002060050160009054906101000a900473ffffffffffffffffffffffffffffffffffffffff1673ffffffffffffffffffffffffffffffffffffffff168573ffffffffffffffffffffffffffffffffffffffff161415612636576000600160008373ffffffffffffffffffffffffffffffffffffffff1673ffffffffffffffffffffffffffffffffffffffff168152602001908152602001600020905080604051806101000160405290816000820154815260200160018201805461237f9061414b565b80601f01602080910402602001604051908101604052809291908181526020018280546123ab9061414b565b80156123f85780601f106123cd576101008083540402835291602001916123f8565b820191906000526020600020905b8154815290600101906020018083116123db57829003601f168201915b505050505081526020016002820160009054906101000a900460ff16600481111561242657612425613202565b5b600481111561243857612437613202565b5b815260200160038201805461244c9061414b565b80601f01602080910402602001604051908101604052809291908181526020018280546124789061414b565b80156124c55780601f1061249a576101008083540402835291602001916124c5565b820191906000526020600020905b8154815290600101906020018083116124a857829003601f168201915b505050505081526020016004820160009054906101000a900473ffffffffffffffffffffffffffffffffffffffff1673ffffffffffffffffffffffffffffffffffffffff1673ffffffffffffffffffffffffffffffffffffffff1681526020016005820160009054906101000a900473ffffffffffffffffffffffffffffffffffffffff1673ffffffffffffffffffffffffffffffffffffffff1673ffffffffffffffffffffffffffffffffffffffff168152602001600682015481526020016007820180546125949061414b565b80601f01602080910402602001604051908101604052809291908181526020018280546125c09061414b565b801561260d5780601f106125e25761010080835404028352916020019161260d565b820191906000526020600020905b8154815290600101906020018083116125f057829003601f168201915b5050505050815250508484815181106126295761262861417d565b5b6020026020010181905250505b508080612642906141db565b915050612232565b50809150505b919050565b60006002600481111561266b5761266a613202565b5b86600481111561267e5761267d613202565b5b60048111156126905761268f613202565b5b141561269f57600190506126a4565b600090505b60405180610160016040528060055481526020018881526020016040518060200160405280600081525081526020018760048111156126e6576126e5613202565b5b60048111156126f8576126f7613202565b5b81526020018660028111156127105761270f613202565b5b600281111561272257612721613202565b5b815260200182600181111561273a57612739613202565b5b81526020018573ffffffffffffffffffffffffffffffffffffffff1681526020018473ffffffffffffffffffffffffffffffffffffffff1681526020013373ffffffffffffffffffffffffffffffffffffffff16815260200142815260200183815250600460008573ffffffffffffffffffffffffffffffffffffffff1673ffffffffffffffffffffffffffffffffffffffff1681526020019081526020016000206000820151816000015560208201518160010190805190602001906128029291906130e8565b50604082015181600201908051906020019061281f9291906130e8565b5060608201518160030160006101000a81548160ff0219169083600481111561284b5761284a613202565b5b021790555060808201518160030160016101000a81548160ff0219169083600281111561287b5761287a613202565b5b021790555060a08201518160030160026101000a81548160ff021916908360018111156128ab576128aa613202565b5b021790555060c08201518160030160036101000a81548173ffffffffffffffffffffffffffffffffffffffff021916908373ffffffffffffffffffffffffffffffffffffffff16021790555060e08201518160040160006101000a81548173ffffffffffffffffffffffffffffffffffffffff021916908373ffffffffffffffffffffffffffffffffffffffff1602179055506101008201518160050160006101000a81548173ffffffffffffffffffffffffffffffffffffffff021916908373ffffffffffffffffffffffffffffffffffffffff16021790555061012082015181600601556101408201518160070190805190602001906129ae9291906130e8565b509050508373ffffffffffffffffffffffffffffffffffffffff168373ffffffffffffffffffffffffffffffffffffffff167fa25a6f1ff57a050a48ae4b3a19f271fddad950cac8d165d6a2eca5d54cc8070f600460008773ffffffffffffffffffffffffffffffffffffffff1673ffffffffffffffffffffffffffffffffffffffff168152602001908152602001600020604051612a4d919061462c565b60405180910390a36006839080600181540180825580915050600190039060005260206000200160009091909190916101000a81548173ffffffffffffffffffffffffffffffffffffffff021916908373ffffffffffffffffffffffffffffffffffffffff16021790555060056000815480929190612acb906141db565b919050555050505050505050565b6060600060055467ffffffffffffffff811115612af957612af86132af565b5b604051908082528060200260200182016040528015612b3257816020015b612b1f612f93565b815260200190600190039081612b175790505b50905060005b600554811015612f8557600060068281548110612b5857612b5761417d565b5b9060005260206000200160009054906101000a900473ffffffffffffffffffffffffffffffffffffffff1690506000600460008373ffffffffffffffffffffffffffffffffffffffff1673ffffffffffffffffffffffffffffffffffffffff1681526020019081526020016000209050806040518061016001604052908160008201548152602001600182018054612bef9061414b565b80601f0160208091040260200160405190810160405280929190818152602001828054612c1b9061414b565b8015612c685780601f10612c3d57610100808354040283529160200191612c68565b820191906000526020600020905b815481529060010190602001808311612c4b57829003601f168201915b50505050508152602001600282018054612c819061414b565b80601f0160208091040260200160405190810160405280929190818152602001828054612cad9061414b565b8015612cfa5780601f10612ccf57610100808354040283529160200191612cfa565b820191906000526020600020905b815481529060010190602001808311612cdd57829003601f168201915b505050505081526020016003820160009054906101000a900460ff166004811115612d2857612d27613202565b5b6004811115612d3a57612d39613202565b5b81526020016003820160019054906101000a900460ff166002811115612d6357612d62613202565b5b6002811115612d7557612d74613202565b5b81526020016003820160029054906101000a900460ff166001811115612d9e57612d9d613202565b5b6001811115612db057612daf613202565b5b81526020016003820160039054906101000a900473ffffffffffffffffffffffffffffffffffffffff1673ffffffffffffffffffffffffffffffffffffffff1673ffffffffffffffffffffffffffffffffffffffff1681526020016004820160009054906101000a900473ffffffffffffffffffffffffffffffffffffffff1673ffffffffffffffffffffffffffffffffffffffff1673ffffffffffffffffffffffffffffffffffffffff1681526020016005820160009054906101000a900473ffffffffffffffffffffffffffffffffffffffff1673ffffffffffffffffffffffffffffffffffffffff1673ffffffffffffffffffffffffffffffffffffffff16815260200160068201548152602001600782018054612ed09061414b565b80601f0160208091040260200160405190810160405280929190818152602001828054612efc9061414b565b8015612f495780601f10612f1e57610100808354040283529160200191612f49565b820191906000526020600020905b815481529060010190602001808311612f2c57829003601f168201915b505050505081525050848481518110612f6557612f6461417d565b5b602002602001018190525050508080612f7d906141db565b915050612b38565b508091505090565b60025481565b60405180610160016040528060008152602001606081526020016060815260200160006004811115612fc857612fc7613202565b5b815260200160006002811115612fe157612fe0613202565b5b815260200160006001811115612ffa57612ff9613202565b5b8152602001600073ffffffffffffffffffffffffffffffffffffffff168152602001600073ffffffffffffffffffffffffffffffffffffffff168152602001600073ffffffffffffffffffffffffffffffffffffffff16815260200160008152602001606081525090565b60405180610100016040528060008152602001606081526020016000600481111561309357613092613202565b5b815260200160608152602001600073ffffffffffffffffffffffffffffffffffffffff168152602001600073ffffffffffffffffffffffffffffffffffffffff16815260200160008152602001606081525090565b8280546130f49061414b565b90600052602060002090601f016020900481019282613116576000855561315d565b82601f1061312f57805160ff191683800117855561315d565b8280016001018555821561315d579182015b8281111561315c578251825591602001919060010190613141565b5b50905061316a919061316e565b5090565b5b8082111561318757600081600090555060010161316f565b5090565b6000604051905090565b600080fd5b600080fd5b6000819050919050565b6131b28161319f565b81146131bd57600080fd5b50565b6000813590506131cf816131a9565b92915050565b6000602082840312156131eb576131ea613195565b5b60006131f9848285016131c0565b91505092915050565b7f4e487b7100000000000000000000000000000000000000000000000000000000600052602160045260246000fd5b6002811061324257613241613202565b5b50565b600081905061325382613231565b919050565b600061326382613245565b9050919050565b61327381613258565b82525050565b600060208201905061328e600083018461326a565b92915050565b600080fd5b600080fd5b6000601f19601f8301169050919050565b7f4e487b7100000000000000000000000000000000000000000000000000000000600052604160045260246000fd5b6132e78261329e565b810181811067ffffffffffffffff82111715613306576133056132af565b5b80604052505050565b600061331961318b565b905061332582826132de565b919050565b600067ffffffffffffffff821115613345576133446132af565b5b61334e8261329e565b9050602081019050919050565b82818337600083830152505050565b600061337d6133788461332a565b61330f565b90508281526020810184848401111561339957613398613299565b5b6133a484828561335b565b509392505050565b600082601f8301126133c1576133c0613294565b5b81356133d184826020860161336a565b91505092915050565b600080604083850312156133f1576133f0613195565b5b600083013567ffffffffffffffff81111561340f5761340e61319a565b5b61341b858286016133ac565b925050602061342c858286016131c0565b9150509250929050565b600073ffffffffffffffffffffffffffffffffffffffff82169050919050565b600061346182613436565b9050919050565b61347181613456565b82525050565b600060208201905061348c6000830184613468565b92915050565b61349b81613456565b81146134a657600080fd5b50565b6000813590506134b881613492565b92915050565b600080604083850312156134d5576134d4613195565b5b60006134e3858286016134a9565b92505060206134f4858286016134a9565b9150509250929050565b6135078161319f565b82525050565b600081519050919050565b600082825260208201905092915050565b60005b8381101561354757808201518184015260208101905061352c565b83811115613556576000848401525b50505050565b60006135678261350d565b6135718185613518565b9350613581818560208601613529565b61358a8161329e565b840191505092915050565b600581106135a6576135a5613202565b5b50565b60008190506135b782613595565b919050565b60006135c7826135a9565b9050919050565b6135d7816135bc565b82525050565b600381106135ee576135ed613202565b5b50565b60008190506135ff826135dd565b919050565b600061360f826135f1565b9050919050565b61361f81613604565b82525050565b6002811061363657613635613202565b5b50565b600081905061364782613625565b919050565b600061365782613639565b9050919050565b6136678161364c565b82525050565b61367681613456565b82525050565b60006101608301600083015161369560008601826134fe565b50602083015184820360208601526136ad828261355c565b915050604083015184820360408601526136c7828261355c565b91505060608301516136dc60608601826135ce565b5060808301516136ef6080860182613616565b5060a083015161370260a086018261365e565b5060c083015161371560c086018261366d565b5060e083015161372860e086018261366d565b5061010083015161373d61010086018261366d565b506101208301516137526101208601826134fe565b5061014083015184820361014086015261376c828261355c565b9150508091505092915050565b60006020820190508181036000830152613793818461367c565b905092915050565b6000602082840312156137b1576137b0613195565b5b60006137bf848285016134a9565b91505092915050565b6000610100830160008301516137e160008601826134fe565b50602083015184820360208601526137f9828261355c565b915050604083015161380e60408601826135ce565b5060608301518482036060860152613826828261355c565b915050608083015161383b608086018261366d565b5060a083015161384e60a086018261366d565b5060c083015161386160c08601826134fe565b5060e083015184820360e0860152613879828261355c565b9150508091505092915050565b600060208201905081810360008301526138a081846137c8565b905092915050565b6138b18161319f565b82525050565b60006020820190506138cc60008301846138a8565b92915050565b600082825260208201905092915050565b60006138ee8261350d565b6138f881856138d2565b9350613908818560208601613529565b6139118161329e565b840191505092915050565b613925816135bc565b82525050565b61393481613604565b82525050565b6139438161364c565b82525050565b60006101608201905061395f600083018e6138a8565b8181036020830152613971818d6138e3565b90508181036040830152613985818c6138e3565b9050613994606083018b61391c565b6139a1608083018a61392b565b6139ae60a083018961393a565b6139bb60c0830188613468565b6139c860e0830187613468565b6139d6610100830186613468565b6139e46101208301856138a8565b8181036101408301526139f781846138e3565b90509c9b505050505050505050505050565b600081519050919050565b600082825260208201905092915050565b6000819050602082019050919050565b600061010083016000830151613a4e60008601826134fe565b5060208301518482036020860152613a66828261355c565b9150506040830151613a7b60408601826135ce565b5060608301518482036060860152613a93828261355c565b9150506080830151613aa8608086018261366d565b5060a0830151613abb60a086018261366d565b5060c0830151613ace60c08601826134fe565b5060e083015184820360e0860152613ae6828261355c565b9150508091505092915050565b6000613aff8383613a35565b905092915050565b6000602082019050919050565b6000613b1f82613a09565b613b298185613a14565b935083602082028501613b3b85613a25565b8060005b85811015613b775784840389528151613b588582613af3565b9450613b6383613b07565b925060208a01995050600181019050613b3f565b50829750879550505050505092915050565b60006020820190508181036000830152613ba38184613b14565b905092915050565b600061010082019050613bc1600083018b6138a8565b8181036020830152613bd3818a6138e3565b9050613be2604083018961391c565b8181036060830152613bf481886138e3565b9050613c036080830187613468565b613c1060a0830186613468565b613c1d60c08301856138a8565b81810360e0830152613c2f81846138e3565b90509998505050505050505050565b600080600080600060a08688031215613c5a57613c59613195565b5b6000613c68888289016134a9565b955050602086013567ffffffffffffffff811115613c8957613c8861319a565b5b613c95888289016133ac565b9450506040613ca6888289016131c0565b935050606086013567ffffffffffffffff811115613cc757613cc661319a565b5b613cd3888289016133ac565b925050608086013567ffffffffffffffff811115613cf457613cf361319a565b5b613d00888289016133ac565b9150509295509295909350565b60008060008060008060c08789031215613d2a57613d29613195565b5b600087013567ffffffffffffffff811115613d4857613d4761319a565b5b613d5489828a016133ac565b9650506020613d6589828a016131c0565b9550506040613d7689828a016131c0565b9450506060613d8789828a016134a9565b9350506080613d9889828a016134a9565b92505060a087013567ffffffffffffffff811115613db957613db861319a565b5b613dc589828a016133ac565b9150509295509295509295565b600081519050919050565b600082825260208201905092915050565b6000819050602082019050919050565b600061016083016000830151613e1760008601826134fe565b5060208301518482036020860152613e2f828261355c565b91505060408301518482036040860152613e49828261355c565b9150506060830151613e5e60608601826135ce565b506080830151613e716080860182613616565b5060a0830151613e8460a086018261365e565b5060c0830151613e9760c086018261366d565b5060e0830151613eaa60e086018261366d565b50610100830151613ebf61010086018261366d565b50610120830151613ed46101208601826134fe565b50610140830151848203610140860152613eee828261355c565b9150508091505092915050565b6000613f078383613dfe565b905092915050565b6000602082019050919050565b6000613f2782613dd2565b613f318185613ddd565b935083602082028501613f4385613dee565b8060005b85811015613f7f5784840389528151613f608582613efb565b9450613f6b83613f0f565b925060208a01995050600181019050613f47565b50829750879550505050505092915050565b60006020820190508181036000830152613fab8184613f1c565b905092915050565b600080600060608486031215613fcc57613fcb613195565b5b6000613fda868287016134a9565b935050602084013567ffffffffffffffff811115613ffb57613ffa61319a565b5b614007868287016133ac565b925050604084013567ffffffffffffffff8111156140285761402761319a565b5b614034868287016133ac565b9150509250925092565b600081905092915050565b60006140548261350d565b61405e818561403e565b935061406e818560208601613529565b80840191505092915050565b60008160601b9050919050565b60006140928261407a565b9050919050565b60006140a482614087565b9050919050565b6140bc6140b782613456565b614099565b82525050565b6000819050919050565b6140dd6140d88261319f565b6140c2565b82525050565b60006140ef8286614049565b91506140fb82856140ab565b60148201915061410b82846140cc565b602082019150819050949350505050565b7f4e487b7100000000000000000000000000000000000000000000000000000000600052602260045260246000fd5b6000600282049050600182168061416357607f821691505b602082108114156141775761417661411c565b5b50919050565b7f4e487b7100000000000000000000000000000000000000000000000000000000600052603260045260246000fd5b7f4e487b7100000000000000000000000000000000000000000000000000000000600052601160045260246000fd5b60006141e68261319f565b91507fffffffffffffffffffffffffffffffffffffffffffffffffffffffffffffffff821415614219576142186141ac565b5b600182019050919050565b60008160001c9050919050565b6000819050919050565b600061424e61424983614224565b614231565b9050919050565b60008190508160005260206000209050919050565b600081546142778161414b565b6142818186613518565b9450600182166000811461429c57600181146142ae576142e1565b60ff19831686526020860193506142e1565b6142b785614255565b60005b838110156142d9578154818901526001820191506020810190506142ba565b808801955050505b50505092915050565b600060ff82169050919050565b600061430a61430583614224565b6142ea565b9050919050565b600073ffffffffffffffffffffffffffffffffffffffff82169050919050565b600061434461433f83614224565b614311565b9050919050565b6000610100830160008084015490506143638161423b565b61437060008701826134fe565b50600184018583036020870152614387838261426a565b9250506002840154905061439a816142f7565b6143a760408701826135ce565b506003840185830360608701526143be838261426a565b925050600484015490506143d181614331565b6143de608087018261366d565b50600584015490506143ef81614331565b6143fc60a087018261366d565b506006840154905061440d8161423b565b61441a60c08701826134fe565b506007840185830360e0870152614431838261426a565b925050819250505092915050565b60006020820190508181036000830152614459818461434b565b905092915050565b60008160081c9050919050565b600060ff82169050919050565b600061448e61448983614461565b61446e565b9050919050565b60008160101c9050919050565b600060ff82169050919050565b60006144c26144bd83614495565b6144a2565b9050919050565b60008160181c9050919050565b60006144e96144e4836144c9565b614311565b9050919050565b6000610160830160008084015490506145088161423b565b61451560008701826134fe565b5060018401858303602087015261452c838261426a565b925050600284018583036040870152614545838261426a565b92505060038401549050614558816142f7565b61456560608701826135ce565b5061456f8161447b565b61457c6080870182613616565b50614586816144af565b61459360a087018261365e565b5061459d816144d6565b6145aa60c087018261366d565b50600484015490506145bb81614331565b6145c860e087018261366d565b50600584015490506145d981614331565b6145e761010087018261366d565b50600684015490506145f88161423b565b6146066101208701826134fe565b506007840185830361014087015261461e838261426a565b925050819250505092915050565b6000602082019050818103600083015261464681846144f0565b90509291505056fea26469706673582212201a71ef906a5cd336f5348ab29b2ceb9fb642ee3786d92680495eb8d3af503b0864736f6c634300080a0033",
  "immutableReferences": {},
  "source": "// SPDX-License-Identifier: MIT\r\npragma solidity >=0.8.0 <0.9.0;\r\n\r\nimport \"./UserChain.sol\";\r\nimport \"./SharedChain.sol\";\r\n\r\ncontract ProjectChain is SharedChain {\r\n    UserChain userChain;\r\n\r\n    constructor() {\r\n        //userChain = new UserChain();\r\n    }\r\n\r\n    modifier onlyUserProject() {\r\n        // User memory sessionUser = userChain.getUserInfo(msg.sender);\r\n        // require(\r\n        //     sessionUser._role == Roles.UserProject,\r\n        //     \"You don't have the rights for this resource.\"\r\n        // );\r\n        _;\r\n    }\r\n\r\n    modifier onlySupervisor() {\r\n        // User memory sessionUser = userChain.getUserInfo(msg.sender);\r\n        // require(\r\n        //     sessionUser._role == Roles.Supervisor,\r\n        //     \"You don't have the rights for this resource.\"\r\n        // );\r\n        _;\r\n    }\r\n\r\n    modifier onlyCompany() {\r\n        // User memory sessionUser = userChain.getUserInfo(msg.sender);\r\n        // require(\r\n        //     sessionUser._role == Roles.Company,\r\n        //     \"You don't have the rights for this resource.\"\r\n        // );\r\n        _;\r\n    }\r\n\r\n\r\n    /**  PROJECT INITIATOR  */\r\n\r\n    mapping(address => Project) public projects;\r\n    uint256 public projectsCounter = 0;\r\n    address[] public projectsAddress;\r\n\r\n    function createUniqueProjectAddress(string memory _name, uint256 _index) public view returns (address) {\r\n        return address(uint160(uint256(keccak256(abi.encodePacked(_name, msg.sender, _index)))));\r\n    }\r\n\r\n    function createProject(\r\n        address _projectAddress,\r\n        string memory _name,\r\n        uint256 _status,\r\n        string memory _ipfsFileCID,\r\n        string memory _signature\r\n    ) public onlyUserProject {\r\n        projects[_projectAddress] = Project(\r\n            projectsCounter,\r\n            _name,\r\n            ProjectStatus(_status),\r\n            _ipfsFileCID,\r\n            _projectAddress,\r\n            msg.sender,\r\n            block.timestamp,\r\n            _signature\r\n        );\r\n\r\n        emit ProjectEvent(projects[_projectAddress], _projectAddress);\r\n        projectsAddress.push(_projectAddress);\r\n        projectsCounter++;\r\n    }\r\n\r\n    function updateProject(\r\n        address _projectAddress,\r\n        string memory _ipfsFileCID,\r\n        string memory _signature\r\n    ) public onlyUserProject {\r\n        projects[_projectAddress]._ipfsFileCID = _ipfsFileCID;\r\n        projects[_projectAddress]._signature = _signature;\r\n\r\n        emit ProjectEvent(projects[_projectAddress], _projectAddress);\r\n    }\r\n\r\n    function getProjectInfo(address _address)\r\n        public\r\n        view\r\n        returns (Project memory)\r\n    {\r\n        //require(msg.sender != address(0x0), \"Address is not valid.\");\r\n        return projects[_address];\r\n    }\r\n\r\n    function getUserProjects(address _signerAddress) public view returns (Project[] memory) {\r\n        Project[] memory allProjects;\r\n        if (projectsCounter == 0) return allProjects;\r\n\r\n        allProjects = new Project[](projectsCounter);\r\n        for (uint256 index = 0; index < projectsCounter; index++) {\r\n            address _projectAddress = projectsAddress[index];\r\n            if (_signerAddress == projects[_projectAddress]._signerAddress) {\r\n                Project storage project = projects[_projectAddress];\r\n                allProjects[index] = project;\r\n            }\r\n        }\r\n        return allProjects;\r\n    }\r\n\r\n    function getAllProjects() public view returns (Project[] memory) {\r\n        Project[] memory allProjects;\r\n        if (projectsCounter == 0) return allProjects;\r\n\r\n        allProjects = new Project[](projectsCounter);\r\n        for (uint256 index = 0; index < projectsCounter; index++) {\r\n            address _projectAddress = projectsAddress[index];\r\n            Project storage project = projects[_projectAddress];\r\n            allProjects[index] = project;\r\n        }\r\n        return allProjects;\r\n    }\r\n\r\n\r\n    /**  Requests  */\r\n\r\n    mapping(address => Request) public requests;\r\n    uint256 public requestsCounter = 0;\r\n    address[] public requestsAddress;\r\n\r\n    function createUniqueRequestAddress(string memory _title, uint256 _index) public view returns (address) {\r\n        return address(uint160(uint256(keccak256(abi.encodePacked(_title, msg.sender, _index)))));\r\n    }\r\n\r\n    function checkRequestPermission(uint256 _projectStatus) public pure returns (PermissionType) {\r\n        if (ProjectStatus(_projectStatus) == ProjectStatus.Created) {\r\n            return PermissionType.UserProject;\r\n        }\r\n        return PermissionType.Company;\r\n    }\r\n\r\n    function createRequest(\r\n        string memory _title,\r\n        uint256 _projectStatus,\r\n        uint256 _requestStatus,\r\n        address _projectAddress,\r\n        address _requestAddress,\r\n        string memory _signature\r\n    ) public {\r\n        //require(projects[_projectAddress]._status == ProjectStatus.Created, \"Steps must follow accordingly\");\r\n        //require(ProjectStatus.ToApprove == RequestStatus.UnApproved, \"\");\r\n        //require(ProjectStatus.ToApprove == RequestStatus.Rejected, \"\");\r\n\r\n        RequestType _requestType;\r\n        if (ProjectStatus(_projectStatus) == ProjectStatus.StartProject) {\r\n            _requestType = RequestType.CompanyReq;\r\n        } else {\r\n            _requestType = RequestType.SupervisorReq;\r\n        }\r\n\r\n        requests[_requestAddress] = Request(\r\n            requestsCounter,\r\n            _title,\r\n            \"\",\r\n            ProjectStatus(_projectStatus),\r\n            RequestStatus(_requestStatus),\r\n            RequestType(_requestType),\r\n            _projectAddress,\r\n            _requestAddress,\r\n            msg.sender,\r\n            block.timestamp,\r\n            _signature\r\n        );\r\n\r\n        emit RequestEvent(requests[_requestAddress], _requestAddress, _projectAddress);\r\n        requestsAddress.push(_requestAddress);\r\n        requestsCounter++;\r\n    }\r\n\r\n    function updateRequest(\r\n        string memory _comments,\r\n        uint256 _requestStatus,\r\n        uint256 _projectStatus,\r\n        address _projectAddress,\r\n        address _requestAddress,\r\n        string memory _signature\r\n    ) public {\r\n        // Update Requests Mapping and Struct Array\r\n        requests[_requestAddress]._comments = _comments;\r\n        requests[_requestAddress]._requestStatus = RequestStatus(_requestStatus);\r\n        requests[_requestAddress]._signature = _signature;\r\n        emit RequestEvent(requests[_requestAddress], _requestAddress, _projectAddress);\r\n\r\n        // Update Project Mapping and Struct Array\r\n        if (RequestStatus.Approved == RequestStatus(_requestStatus)) {\r\n            projects[_projectAddress]._status = ProjectStatus(_projectStatus);\r\n            emit ProjectEvent(projects[_projectAddress], _projectAddress);\r\n        }\r\n    }\r\n\r\n    function getAllRequests() public view returns (Request[] memory) {\r\n        Request[] memory allRequests = new Request[](requestsCounter);\r\n        for (uint256 index = 0; index < requestsCounter; index++) {\r\n            address _requestAddress = requestsAddress[index];\r\n            Request storage request = requests[_requestAddress];\r\n            allRequests[index] = request;\r\n        }\r\n        return allRequests;\r\n    }\r\n\r\n    function getProjectRequests(address _projectAddress) public view returns (Request[] memory) {\r\n        Request[] memory allRequests;\r\n        for (uint256 index = 0; index < requestsCounter; index++) {\r\n            address _requestAddress = requestsAddress[index];\r\n            Request storage request = requests[_requestAddress];\r\n            if (_projectAddress == request._projectAddress) {\r\n                allRequests[index] = request;\r\n            }\r\n        }\r\n        return allRequests;\r\n    }\r\n\r\n\r\n    function getLastProjectRequest(address _projectAddress, address _requestAddress)\r\n        public view returns (Request memory)\r\n    {\r\n        Request memory request;\r\n        if (requestsCounter > 0) {\r\n            if (requests[_requestAddress]._projectAddress == _projectAddress) {\r\n                request = requests[_requestAddress];\r\n            }\r\n        }\r\n        return request;\r\n    }\r\n\r\n\r\n\r\n}\r\n",
  "sourcePath": "/mnt/c/Users/Beniamin/source/repos/DissertationProject/contracts/ProjectChain.sol",
  "compiler": {
    "name": "solc",
    "version": "0.8.10+commit.fc410830.Emscripten.clang"
  },
  "schemaVersion": "3.4.3",
  "updatedAt": "2021-12-11T14:27:11.410Z",
  "networkType": "ethereum",
  "devdoc": {
    "kind": "dev",
    "methods": {},
    "version": 1
  },
  "userdoc": {
    "kind": "user",
    "methods": {
      "projects(address)": {
        "notice": "PROJECT INITIATOR  "
      },
      "requests(address)": {
        "notice": "Requests  "
      }
    },
    "version": 1
  }
}