{
  "contractName": "ProjectManager",
  "abi": [
    {
      "anonymous": false,
      "inputs": [
        {
          "indexed": false,
          "internalType": "uint256",
          "name": "_projectIndex",
          "type": "uint256"
        },
        {
          "indexed": false,
          "internalType": "address",
          "name": "_address",
          "type": "address"
        }
      ],
      "name": "CreateProject",
      "type": "event"
    },
    {
      "inputs": [
        {
          "internalType": "uint256",
          "name": "",
          "type": "uint256"
        }
      ],
      "name": "projects",
      "outputs": [
        {
          "internalType": "contract Project",
          "name": "_project",
          "type": "address"
        },
        {
          "internalType": "bytes32",
          "name": "_identifier",
          "type": "bytes32"
        }
      ],
      "stateMutability": "view",
      "type": "function"
    },
    {
      "inputs": [
        {
          "internalType": "string",
          "name": "_description",
          "type": "string"
        },
        {
          "internalType": "string",
          "name": "_hashStringValue",
          "type": "string"
        }
      ],
      "name": "createProject",
      "outputs": [],
      "stateMutability": "nonpayable",
      "type": "function"
    },
    {
      "inputs": [
        {
          "internalType": "string",
          "name": "_text",
          "type": "string"
        },
        {
          "internalType": "address",
          "name": "_addr",
          "type": "address"
        }
      ],
      "name": "createUniqueIdentifier",
      "outputs": [
        {
          "internalType": "bytes32",
          "name": "",
          "type": "bytes32"
        }
      ],
      "stateMutability": "pure",
      "type": "function"
    },
    {
      "inputs": [],
      "name": "requestApprovalToProjectSupervisor",
      "outputs": [],
      "stateMutability": "nonpayable",
      "type": "function"
    },
    {
      "inputs": [],
      "name": "requestStarProjectToCompanyBuilder",
      "outputs": [],
      "stateMutability": "nonpayable",
      "type": "function"
    }
  ],
  "bytecode": "0x608060405234801561001057600080fd5b50610f09806100206000396000f3fe60806040523480156200001157600080fd5b50600436106200005e5760003560e01c8063107046bd146200006357806312e45557146200009a5780636132844f14620000a65780636bd0620414620000dc578063c6738c5f14620000fc575b600080fd5b6200008160048036038101906200007b9190620003aa565b62000108565b6040516200009192919062000482565b60405180910390f35b620000a46200014c565b005b620000c46004803603810190620000be919062000656565b6200014e565b604051620000d39190620006bc565b60405180910390f35b620000fa6004803603810190620000f49190620006d9565b62000183565b005b620001066200034b565b005b60006020528060005260406000206000915090508060000160009054906101000a900473ffffffffffffffffffffffffffffffffffffffff16908060010154905082565b565b600082826040516020016200016592919062000831565b60405160208183030381529060405280519060200120905092915050565b3373ffffffffffffffffffffffffffffffffffffffff1660008080815260200190815260200160002060000160009054906101000a900473ffffffffffffffffffffffffffffffffffffffff1673ffffffffffffffffffffffffffffffffffffffff161462000229576040517f08c379a00000000000000000000000000000000000000000000000000000000081526004016200022090620008be565b60405180910390fd5b600030600154846040516200023e906200034d565b6200024c9392919062000957565b604051809103906000f08015801562000269573d6000803e3d6000fd5b50905060006200027a83836200014e565b905081600080600154815260200190815260200160002060000160006101000a81548173ffffffffffffffffffffffffffffffffffffffff021916908373ffffffffffffffffffffffffffffffffffffffff160217905550806000806001548152602001908152602001600020600101819055507f5d8e72199dc843bc4f6235211712b79a33bb409a6bc9789f6fc9196cff28b5a76001548360405162000323929190620009ac565b60405180910390a160016000815480929190620003409062000a08565b919050555050505050565b565b61047d8062000a5783390190565b6000604051905090565b600080fd5b600080fd5b6000819050919050565b62000384816200036f565b81146200039057600080fd5b50565b600081359050620003a48162000379565b92915050565b600060208284031215620003c357620003c262000365565b5b6000620003d38482850162000393565b91505092915050565b600073ffffffffffffffffffffffffffffffffffffffff82169050919050565b6000819050919050565b600062000427620004216200041b84620003dc565b620003fc565b620003dc565b9050919050565b60006200043b8262000406565b9050919050565b60006200044f826200042e565b9050919050565b620004618162000442565b82525050565b6000819050919050565b6200047c8162000467565b82525050565b600060408201905062000499600083018562000456565b620004a8602083018462000471565b9392505050565b600080fd5b600080fd5b6000601f19601f8301169050919050565b7f4e487b7100000000000000000000000000000000000000000000000000000000600052604160045260246000fd5b6200050482620004b9565b810181811067ffffffffffffffff82111715620005265762000525620004ca565b5b80604052505050565b60006200053b6200035b565b9050620005498282620004f9565b919050565b600067ffffffffffffffff8211156200056c576200056b620004ca565b5b6200057782620004b9565b9050602081019050919050565b82818337600083830152505050565b6000620005aa620005a4846200054e565b6200052f565b905082815260208101848484011115620005c957620005c8620004b4565b5b620005d684828562000584565b509392505050565b600082601f830112620005f657620005f5620004af565b5b81356200060884826020860162000593565b91505092915050565b60006200061e82620003dc565b9050919050565b620006308162000611565b81146200063c57600080fd5b50565b600081359050620006508162000625565b92915050565b6000806040838503121562000670576200066f62000365565b5b600083013567ffffffffffffffff8111156200069157620006906200036a565b5b6200069f85828601620005de565b9250506020620006b2858286016200063f565b9150509250929050565b6000602082019050620006d3600083018462000471565b92915050565b60008060408385031215620006f357620006f262000365565b5b600083013567ffffffffffffffff8111156200071457620007136200036a565b5b6200072285828601620005de565b925050602083013567ffffffffffffffff8111156200074657620007456200036a565b5b6200075485828601620005de565b9150509250929050565b600081519050919050565b600081905092915050565b60005b838110156200079457808201518184015260208101905062000777565b83811115620007a4576000848401525b50505050565b6000620007b7826200075e565b620007c3818562000769565b9350620007d581856020860162000774565b80840191505092915050565b60008160601b9050919050565b6000620007fb82620007e1565b9050919050565b60006200080f82620007ee565b9050919050565b6200082b620008258262000611565b62000802565b82525050565b60006200083f8285620007aa565b91506200084d828462000816565b6014820191508190509392505050565b600082825260208201905092915050565b7f596f7520617265206e6f7420612070726f6a65637420696e69746961746f7200600082015250565b6000620008a6601f836200085d565b9150620008b3826200086e565b602082019050919050565b60006020820190508181036000830152620008d98162000897565b9050919050565b6000620008ed826200042e565b9050919050565b620008ff81620008e0565b82525050565b62000910816200036f565b82525050565b600062000923826200075e565b6200092f81856200085d565b93506200094181856020860162000774565b6200094c81620004b9565b840191505092915050565b60006060820190506200096e6000830186620008f4565b6200097d602083018562000905565b818103604083015262000991818462000916565b9050949350505050565b620009a68162000611565b82525050565b6000604082019050620009c3600083018562000905565b620009d260208301846200099b565b9392505050565b7f4e487b7100000000000000000000000000000000000000000000000000000000600052601160045260246000fd5b600062000a15826200036f565b91507fffffffffffffffffffffffffffffffffffffffffffffffffffffffffffffffff82141562000a4b5762000a4a620009d9565b5b60018201905091905056fe608060405234801561001057600080fd5b5060405161047d38038061047d83398181016040528101906100329190610360565b82600260006101000a81548173ffffffffffffffffffffffffffffffffffffffff021916908373ffffffffffffffffffffffffffffffffffffffff160217905550816000819055508060019080519060200190610090929190610099565b50505050610430565b8280546100a5906103fe565b90600052602060002090601f0160209004810192826100c7576000855561010e565b82601f106100e057805160ff191683800117855561010e565b8280016001018555821561010e579182015b8281111561010d5782518255916020019190600101906100f2565b5b50905061011b919061011f565b5090565b5b80821115610138576000816000905550600101610120565b5090565b6000604051905090565b600080fd5b600080fd5b600073ffffffffffffffffffffffffffffffffffffffff82169050919050565b600061017b82610150565b9050919050565b600061018d82610170565b9050919050565b61019d81610182565b81146101a857600080fd5b50565b6000815190506101ba81610194565b92915050565b6000819050919050565b6101d3816101c0565b81146101de57600080fd5b50565b6000815190506101f0816101ca565b92915050565b600080fd5b600080fd5b6000601f19601f8301169050919050565b7f4e487b7100000000000000000000000000000000000000000000000000000000600052604160045260246000fd5b61024982610200565b810181811067ffffffffffffffff8211171561026857610267610211565b5b80604052505050565b600061027b61013c565b90506102878282610240565b919050565b600067ffffffffffffffff8211156102a7576102a6610211565b5b6102b082610200565b9050602081019050919050565b60005b838110156102db5780820151818401526020810190506102c0565b838111156102ea576000848401525b50505050565b60006103036102fe8461028c565b610271565b90508281526020810184848401111561031f5761031e6101fb565b5b61032a8482856102bd565b509392505050565b600082601f830112610347576103466101f6565b5b81516103578482602086016102f0565b91505092915050565b60008060006060848603121561037957610378610146565b5b6000610387868287016101ab565b9350506020610398868287016101e1565b925050604084015167ffffffffffffffff8111156103b9576103b861014b565b5b6103c586828701610332565b9150509250925092565b7f4e487b7100000000000000000000000000000000000000000000000000000000600052602260045260246000fd5b6000600282049050600182168061041657607f821691505b6020821081141561042a576104296103cf565b5b50919050565b603f8061043e6000396000f3fe6080604052600080fdfea2646970667358221220c2c04760a77e9356c170bd3f0c2c8672479948495aaa33d459476db999153ed064736f6c63430008090033a26469706673582212201411d22463dc0dfb1642a8285a05029b415ecb6b1f7a40484707829f1b69a9c264736f6c63430008090033",
  "immutableReferences": {},
  "source": "// SPDX-License-Identifier: MIT\r\npragma solidity >=0.8.0 <0.9.0;\r\n\r\nimport './Project.sol';\r\n\r\ncontract ProjectManager {\r\n\r\n    mapping(uint => S_Project) public projects;\r\n    uint index;\r\n\r\n    enum ProjectStatus { Created, Approved, Rejected, OnGoing, Completed }\r\n\r\n    struct S_Project {\r\n        Project _project;\r\n        bytes32 _identifier;\r\n    }\r\n\r\n    event CreateProject(uint _projectIndex, address _address);\r\n\r\n    modifier onlyProjectInitiator {\r\n        require(address(projects[0]._project) == msg.sender, \"You are not a project initiator\");\r\n        _;\r\n    }\r\n\r\n    function createProject(string memory _description, string memory _hashStringValue) public onlyProjectInitiator {\r\n        Project project = new Project(this, index, _description);\r\n        bytes32 _identifier = createUniqueIdentifier(_hashStringValue, address(project));\r\n\r\n        projects[index]._project = project;\r\n        projects[index]._identifier = _identifier;\r\n        emit CreateProject(index, address(project));\r\n        index++;\r\n    }\r\n\r\n    function createUniqueIdentifier(string memory _text, address _addr) public pure returns (bytes32) {\r\n        return keccak256(abi.encodePacked(_text, _addr));\r\n    }\r\n\r\n    function requestApprovalToProjectSupervisor() public {\r\n    }\r\n\r\n    function requestStarProjectToCompanyBuilder() public {\r\n    }\r\n}\r\n",
  "sourcePath": "/mnt/c/users/beniamin/source/repos/dissertationproject/contracts/ProjectManager.sol",
  "compiler": {
    "name": "solc",
    "version": "0.8.9+commit.e5eed63a.Emscripten.clang"
  },
  "schemaVersion": "3.4.3",
  "updatedAt": "2021-10-22T05:55:10.259Z",
  "devdoc": {
    "kind": "dev",
    "methods": {},
    "version": 1
  },
  "userdoc": {
    "kind": "user",
    "methods": {},
    "version": 1
  }
}