{
  "contractName": "Project",
  "abi": [
    {
      "inputs": [],
      "stateMutability": "nonpayable",
      "type": "constructor"
    },
    {
      "anonymous": false,
      "inputs": [
        {
          "indexed": false,
          "internalType": "uint256",
          "name": "_indexProject",
          "type": "uint256"
        },
        {
          "indexed": false,
          "internalType": "enum Project.ProjectStatus",
          "name": "_projectStatus",
          "type": "uint8"
        },
        {
          "indexed": false,
          "internalType": "address",
          "name": "_address",
          "type": "address"
        }
      ],
      "name": "CreateProject",
      "type": "event"
    },
    {
      "anonymous": false,
      "inputs": [
        {
          "indexed": false,
          "internalType": "uint256",
          "name": "_indexRequest",
          "type": "uint256"
        },
        {
          "indexed": false,
          "internalType": "enum Project.RequestStatus",
          "name": "_status",
          "type": "uint8"
        },
        {
          "components": [
            {
              "internalType": "uint256",
              "name": "index",
              "type": "uint256"
            },
            {
              "internalType": "bytes32",
              "name": "identifier",
              "type": "bytes32"
            },
            {
              "internalType": "string",
              "name": "description",
              "type": "string"
            },
            {
              "internalType": "enum Project.ProjectStatus",
              "name": "projectStatus",
              "type": "uint8"
            }
          ],
          "indexed": false,
          "internalType": "struct Project.S_Project",
          "name": "_project",
          "type": "tuple"
        },
        {
          "indexed": false,
          "internalType": "enum Project.ProjectStatus",
          "name": "_projectStatus",
          "type": "uint8"
        },
        {
          "indexed": false,
          "internalType": "address",
          "name": "_subjectAddress",
          "type": "address"
        }
      ],
      "name": "UpdateCompanyRequestStatus",
      "type": "event"
    },
    {
      "anonymous": false,
      "inputs": [
        {
          "indexed": false,
          "internalType": "uint256",
          "name": "_indexRequest",
          "type": "uint256"
        },
        {
          "indexed": false,
          "internalType": "enum Project.RequestStatus",
          "name": "_status",
          "type": "uint8"
        },
        {
          "components": [
            {
              "internalType": "uint256",
              "name": "index",
              "type": "uint256"
            },
            {
              "internalType": "bytes32",
              "name": "identifier",
              "type": "bytes32"
            },
            {
              "internalType": "string",
              "name": "description",
              "type": "string"
            },
            {
              "internalType": "enum Project.ProjectStatus",
              "name": "projectStatus",
              "type": "uint8"
            }
          ],
          "indexed": false,
          "internalType": "struct Project.S_Project",
          "name": "_project",
          "type": "tuple"
        },
        {
          "indexed": false,
          "internalType": "enum Project.ProjectStatus",
          "name": "_projectStatus",
          "type": "uint8"
        },
        {
          "indexed": false,
          "internalType": "address",
          "name": "_subjectAddress",
          "type": "address"
        }
      ],
      "name": "UpdateSupervisorRequestStatus",
      "type": "event"
    },
    {
      "anonymous": false,
      "inputs": [
        {
          "indexed": true,
          "internalType": "address",
          "name": "_address",
          "type": "address"
        },
        {
          "indexed": false,
          "internalType": "string",
          "name": "_username",
          "type": "string"
        }
      ],
      "name": "UserRegistered",
      "type": "event"
    },
    {
      "inputs": [
        {
          "internalType": "uint256",
          "name": "_role",
          "type": "uint256"
        },
        {
          "internalType": "address",
          "name": "_userAddress",
          "type": "address"
        }
      ],
      "name": "changeUserRole",
      "outputs": [
        {
          "internalType": "string",
          "name": "",
          "type": "string"
        }
      ],
      "stateMutability": "nonpayable",
      "type": "function"
    },
    {
      "inputs": [
        {
          "internalType": "uint256",
          "name": "",
          "type": "uint256"
        }
      ],
      "name": "companyRequests",
      "outputs": [
        {
          "internalType": "uint256",
          "name": "index",
          "type": "uint256"
        },
        {
          "internalType": "string",
          "name": "description",
          "type": "string"
        },
        {
          "internalType": "enum Project.RequestStatus",
          "name": "status",
          "type": "uint8"
        },
        {
          "components": [
            {
              "internalType": "uint256",
              "name": "index",
              "type": "uint256"
            },
            {
              "internalType": "bytes32",
              "name": "identifier",
              "type": "bytes32"
            },
            {
              "internalType": "string",
              "name": "description",
              "type": "string"
            },
            {
              "internalType": "enum Project.ProjectStatus",
              "name": "projectStatus",
              "type": "uint8"
            }
          ],
          "internalType": "struct Project.S_Project",
          "name": "project",
          "type": "tuple"
        },
        {
          "internalType": "address",
          "name": "subjectAddress",
          "type": "address"
        }
      ],
      "stateMutability": "view",
      "type": "function",
      "constant": true
    },
    {
      "inputs": [],
      "name": "getUser",
      "outputs": [
        {
          "internalType": "string",
          "name": "",
          "type": "string"
        }
      ],
      "stateMutability": "view",
      "type": "function",
      "constant": true
    },
    {
      "inputs": [
        {
          "internalType": "address",
          "name": "_userAddress",
          "type": "address"
        }
      ],
      "name": "getUserInfo",
      "outputs": [
        {
          "components": [
            {
              "internalType": "string",
              "name": "username",
              "type": "string"
            },
            {
              "internalType": "enum User.Roles",
              "name": "role",
              "type": "uint8"
            },
            {
              "internalType": "address",
              "name": "userAddress",
              "type": "address"
            }
          ],
          "internalType": "struct User.S_UserData",
          "name": "",
          "type": "tuple"
        }
      ],
      "stateMutability": "view",
      "type": "function",
      "constant": true
    },
    {
      "inputs": [],
      "name": "owner",
      "outputs": [
        {
          "internalType": "address",
          "name": "",
          "type": "address"
        }
      ],
      "stateMutability": "view",
      "type": "function",
      "constant": true
    },
    {
      "inputs": [
        {
          "internalType": "uint256",
          "name": "",
          "type": "uint256"
        }
      ],
      "name": "projects",
      "outputs": [
        {
          "internalType": "uint256",
          "name": "index",
          "type": "uint256"
        },
        {
          "internalType": "bytes32",
          "name": "identifier",
          "type": "bytes32"
        },
        {
          "internalType": "string",
          "name": "description",
          "type": "string"
        },
        {
          "internalType": "enum Project.ProjectStatus",
          "name": "projectStatus",
          "type": "uint8"
        }
      ],
      "stateMutability": "view",
      "type": "function",
      "constant": true
    },
    {
      "inputs": [
        {
          "internalType": "string",
          "name": "_username",
          "type": "string"
        },
        {
          "internalType": "uint256",
          "name": "_role",
          "type": "uint256"
        },
        {
          "internalType": "address",
          "name": "_userAddress",
          "type": "address"
        }
      ],
      "name": "registerUser",
      "outputs": [],
      "stateMutability": "nonpayable",
      "type": "function"
    },
    {
      "inputs": [
        {
          "internalType": "uint256",
          "name": "",
          "type": "uint256"
        }
      ],
      "name": "supervisorRequests",
      "outputs": [
        {
          "internalType": "uint256",
          "name": "index",
          "type": "uint256"
        },
        {
          "internalType": "string",
          "name": "description",
          "type": "string"
        },
        {
          "internalType": "enum Project.RequestStatus",
          "name": "status",
          "type": "uint8"
        },
        {
          "components": [
            {
              "internalType": "uint256",
              "name": "index",
              "type": "uint256"
            },
            {
              "internalType": "bytes32",
              "name": "identifier",
              "type": "bytes32"
            },
            {
              "internalType": "string",
              "name": "description",
              "type": "string"
            },
            {
              "internalType": "enum Project.ProjectStatus",
              "name": "projectStatus",
              "type": "uint8"
            }
          ],
          "internalType": "struct Project.S_Project",
          "name": "project",
          "type": "tuple"
        },
        {
          "internalType": "address",
          "name": "subjectAddress",
          "type": "address"
        }
      ],
      "stateMutability": "view",
      "type": "function",
      "constant": true
    },
    {
      "inputs": [
        {
          "internalType": "address",
          "name": "",
          "type": "address"
        }
      ],
      "name": "userInfo",
      "outputs": [
        {
          "internalType": "string",
          "name": "username",
          "type": "string"
        },
        {
          "internalType": "enum User.Roles",
          "name": "role",
          "type": "uint8"
        },
        {
          "internalType": "address",
          "name": "userAddress",
          "type": "address"
        }
      ],
      "stateMutability": "view",
      "type": "function",
      "constant": true
    },
    {
      "inputs": [
        {
          "internalType": "uint256",
          "name": "_index",
          "type": "uint256"
        },
        {
          "internalType": "string",
          "name": "_description",
          "type": "string"
        },
        {
          "internalType": "enum Project.ProjectStatus",
          "name": "_status",
          "type": "uint8"
        },
        {
          "internalType": "string",
          "name": "_hashStringValue",
          "type": "string"
        }
      ],
      "name": "createProject",
      "outputs": [],
      "stateMutability": "nonpayable",
      "type": "function"
    },
    {
      "inputs": [
        {
          "internalType": "string",
          "name": "_text",
          "type": "string"
        },
        {
          "internalType": "address",
          "name": "_addr",
          "type": "address"
        }
      ],
      "name": "createUniqueIdentifier",
      "outputs": [
        {
          "internalType": "bytes32",
          "name": "",
          "type": "bytes32"
        }
      ],
      "stateMutability": "pure",
      "type": "function",
      "constant": true
    },
    {
      "inputs": [
        {
          "internalType": "string",
          "name": "_description",
          "type": "string"
        },
        {
          "components": [
            {
              "internalType": "uint256",
              "name": "index",
              "type": "uint256"
            },
            {
              "internalType": "bytes32",
              "name": "identifier",
              "type": "bytes32"
            },
            {
              "internalType": "string",
              "name": "description",
              "type": "string"
            },
            {
              "internalType": "enum Project.ProjectStatus",
              "name": "projectStatus",
              "type": "uint8"
            }
          ],
          "internalType": "struct Project.S_Project",
          "name": "_project",
          "type": "tuple"
        },
        {
          "internalType": "address",
          "name": "_subjectAddress",
          "type": "address"
        }
      ],
      "name": "requestProjectApprovalFromSupervisor",
      "outputs": [],
      "stateMutability": "nonpayable",
      "type": "function"
    },
    {
      "inputs": [
        {
          "internalType": "string",
          "name": "_description",
          "type": "string"
        },
        {
          "components": [
            {
              "internalType": "uint256",
              "name": "index",
              "type": "uint256"
            },
            {
              "internalType": "bytes32",
              "name": "identifier",
              "type": "bytes32"
            },
            {
              "internalType": "string",
              "name": "description",
              "type": "string"
            },
            {
              "internalType": "enum Project.ProjectStatus",
              "name": "projectStatus",
              "type": "uint8"
            }
          ],
          "internalType": "struct Project.S_Project",
          "name": "_project",
          "type": "tuple"
        },
        {
          "internalType": "address",
          "name": "_subjectAddress",
          "type": "address"
        }
      ],
      "name": "requestProjectCompleteFromSupervisor",
      "outputs": [],
      "stateMutability": "nonpayable",
      "type": "function"
    },
    {
      "inputs": [
        {
          "internalType": "string",
          "name": "_description",
          "type": "string"
        },
        {
          "components": [
            {
              "internalType": "uint256",
              "name": "index",
              "type": "uint256"
            },
            {
              "internalType": "bytes32",
              "name": "identifier",
              "type": "bytes32"
            },
            {
              "internalType": "string",
              "name": "description",
              "type": "string"
            },
            {
              "internalType": "enum Project.ProjectStatus",
              "name": "projectStatus",
              "type": "uint8"
            }
          ],
          "internalType": "struct Project.S_Project",
          "name": "_project",
          "type": "tuple"
        },
        {
          "internalType": "address",
          "name": "_subjectAddress",
          "type": "address"
        }
      ],
      "name": "requestStartProjectToCompanyBuilder",
      "outputs": [],
      "stateMutability": "nonpayable",
      "type": "function"
    }
  ],
  "bytecode": "0x608060405234801561001057600080fd5b5033600160006101000a81548173ffffffffffffffffffffffffffffffffffffffff021916908373ffffffffffffffffffffffffffffffffffffffff16021790555033600260006101000a81548173ffffffffffffffffffffffffffffffffffffffff021916908373ffffffffffffffffffffffffffffffffffffffff160217905550612bae806100a26000396000f3fe608060405234801561001057600080fd5b50600436106100ea5760003560e01c80638c86a1d71161008c578063afb6da0e11610066578063afb6da0e1461028c578063b5125599146102a8578063d40d4a80146102c4578063da2e15ab146102f8576100ea565b80638c86a1d71461020a5780638da5cb5b1461023e578063910097861461025c576100ea565b80635502fc65116100c85780635502fc65146101705780636132844f1461018c5780636386c1c7146101bc578063832880e7146101ec576100ea565b8063065ea2d3146100ef578063107046bd1461010b5780631959a0021461013e575b600080fd5b61010960048036038101906101049190611df2565b610314565b005b61012560048036038101906101209190611e91565b61058e565b6040516101359493929190611fe5565b60405180910390f35b6101586004803603810190610153919061208f565b610653565b60405161016793929190612113565b60405180910390f35b61018a6004803603810190610185919061221b565b610732565b005b6101a660048036038101906101a191906122a6565b610a73565b6040516101b39190612302565b60405180910390f35b6101d660048036038101906101d1919061208f565b610aa6565b6040516101e391906123d5565b60405180910390f35b6101f4610cb1565b60405161020191906123f7565b60405180910390f35b610224600480360381019061021f9190611e91565b610d7e565b6040516102359594939291906124f1565b60405180910390f35b610246610f54565b6040516102539190612552565b60405180910390f35b6102766004803603810190610271919061256d565b610f7a565b60405161028391906123f7565b60405180910390f35b6102a660048036038101906102a1919061221b565b6110c5565b005b6102c260048036038101906102bd919061221b565b611406565b005b6102de60048036038101906102d99190611e91565b611747565b6040516102ef9594939291906124f1565b60405180910390f35b610312600480360381019061030d91906125ad565b61191d565b005b6001600381111561032857610327611f6e565b5b600080600260009054906101000a900473ffffffffffffffffffffffffffffffffffffffff1673ffffffffffffffffffffffffffffffffffffffff1673ffffffffffffffffffffffffffffffffffffffff16815260200190815260200160002060010160009054906101000a900460ff1660038111156103ab576103aa611f6e565b5b146103eb576040517f08c379a00000000000000000000000000000000000000000000000000000000081526004016103e29061268e565b60405180910390fd5b3373ffffffffffffffffffffffffffffffffffffffff16600260009054906101000a900473ffffffffffffffffffffffffffffffffffffffff1673ffffffffffffffffffffffffffffffffffffffff161461047b576040517f08c379a0000000000000000000000000000000000000000000000000000000008152600401610472906126fa565b60405180910390fd5b6000610488826000610a73565b9050846003600060065481526020019081526020016000206000018190555080600360006006548152602001908152602001600020600101819055508360036000600654815260200190815260200160002060020190805190602001906104f0929190611b51565b508260036000600654815260200190815260200160002060030160006101000a81548160ff0219169083600581111561052c5761052b611f6e565b5b02179055507fa33c40728c332bcc45ac23baebf405684a95db2bcea19967f32f1c59384c0e886006546000806040516105679392919061271a565b60405180910390a16006600081548092919061058290612780565b91905055505050505050565b60036020528060005260406000206000915090508060000154908060010154908060020180546105bd906127f8565b80601f01602080910402602001604051908101604052809291908181526020018280546105e9906127f8565b80156106365780601f1061060b57610100808354040283529160200191610636565b820191906000526020600020905b81548152906001019060200180831161061957829003601f168201915b5050505050908060030160009054906101000a900460ff16905084565b6000602052806000526040600020600091509050806000018054610676906127f8565b80601f01602080910402602001604051908101604052809291908181526020018280546106a2906127f8565b80156106ef5780601f106106c4576101008083540402835291602001916106ef565b820191906000526020600020905b8154815290600101906020018083116106d257829003601f168201915b5050505050908060010160009054906101000a900460ff16908060010160019054906101000a900473ffffffffffffffffffffffffffffffffffffffff16905083565b6001600381111561074657610745611f6e565b5b600080600260009054906101000a900473ffffffffffffffffffffffffffffffffffffffff1673ffffffffffffffffffffffffffffffffffffffff1673ffffffffffffffffffffffffffffffffffffffff16815260200190815260200160002060010160009054906101000a900460ff1660038111156107c9576107c8611f6e565b5b14610809576040517f08c379a00000000000000000000000000000000000000000000000000000000081526004016108009061268e565b60405180910390fd5b3373ffffffffffffffffffffffffffffffffffffffff16600260009054906101000a900473ffffffffffffffffffffffffffffffffffffffff1673ffffffffffffffffffffffffffffffffffffffff1614610899576040517f08c379a0000000000000000000000000000000000000000000000000000000008152600401610890906126fa565b60405180910390fd5b600160058111156108ad576108ac611f6e565b5b826060015160058111156108c4576108c3611f6e565b5b14610904576040517f08c379a00000000000000000000000000000000000000000000000000000000081526004016108fb9061289c565b60405180910390fd5b6000600460006007548152602001908152602001600020905083816001019080519060200190610935929190611b51565b5060008160020160006101000a81548160ff0219169083600181111561095e5761095d611f6e565b5b0217905550828160030160008201518160000155602082015181600101556040820151816002019080519060200190610998929190611b51565b5060608201518160030160006101000a81548160ff021916908360058111156109c4576109c3611f6e565b5b0217905550905050818160070160006101000a81548173ffffffffffffffffffffffffffffffffffffffff021916908373ffffffffffffffffffffffffffffffffffffffff1602179055507f7404f36b7a730bc20c8cc7e0e75c80d8d9af6bc8bca29829d01437c8f27e6415600754600085866060015186604051610a4d9594939291906128bc565b60405180910390a160076000815480929190610a6890612780565b919050555050505050565b60008282604051602001610a8892919061299a565b60405160208183030381529060405280519060200120905092915050565b610aae611bd7565b3373ffffffffffffffffffffffffffffffffffffffff16600160009054906101000a900473ffffffffffffffffffffffffffffffffffffffff1673ffffffffffffffffffffffffffffffffffffffff1614610b3e576040517f08c379a0000000000000000000000000000000000000000000000000000000008152600401610b3590612a0e565b60405180910390fd5b6000808373ffffffffffffffffffffffffffffffffffffffff1673ffffffffffffffffffffffffffffffffffffffff168152602001908152602001600020604051806060016040529081600082018054610b97906127f8565b80601f0160208091040260200160405190810160405280929190818152602001828054610bc3906127f8565b8015610c105780601f10610be557610100808354040283529160200191610c10565b820191906000526020600020905b815481529060010190602001808311610bf357829003601f168201915b505050505081526020016001820160009054906101000a900460ff166003811115610c3e57610c3d611f6e565b5b6003811115610c5057610c4f611f6e565b5b81526020016001820160019054906101000a900473ffffffffffffffffffffffffffffffffffffffff1673ffffffffffffffffffffffffffffffffffffffff1673ffffffffffffffffffffffffffffffffffffffff16815250509050919050565b60603373ffffffffffffffffffffffffffffffffffffffff16600160009054906101000a900473ffffffffffffffffffffffffffffffffffffffff1673ffffffffffffffffffffffffffffffffffffffff1614610d43576040517f08c379a0000000000000000000000000000000000000000000000000000000008152600401610d3a90612a0e565b60405180910390fd5b6040518060400160405280600881526020017f42656e69616d696e000000000000000000000000000000000000000000000000815250905090565b6005602052806000526040600020600091509050806000015490806001018054610da7906127f8565b80601f0160208091040260200160405190810160405280929190818152602001828054610dd3906127f8565b8015610e205780601f10610df557610100808354040283529160200191610e20565b820191906000526020600020905b815481529060010190602001808311610e0357829003601f168201915b5050505050908060020160009054906101000a900460ff1690806003016040518060800160405290816000820154815260200160018201548152602001600282018054610e6c906127f8565b80601f0160208091040260200160405190810160405280929190818152602001828054610e98906127f8565b8015610ee55780601f10610eba57610100808354040283529160200191610ee5565b820191906000526020600020905b815481529060010190602001808311610ec857829003601f168201915b505050505081526020016003820160009054906101000a900460ff166005811115610f1357610f12611f6e565b5b6005811115610f2557610f24611f6e565b5b81525050908060070160009054906101000a900473ffffffffffffffffffffffffffffffffffffffff16905085565b600160009054906101000a900473ffffffffffffffffffffffffffffffffffffffff1681565b60603373ffffffffffffffffffffffffffffffffffffffff16600160009054906101000a900473ffffffffffffffffffffffffffffffffffffffff1673ffffffffffffffffffffffffffffffffffffffff161461100c576040517f08c379a000000000000000000000000000000000000000000000000000000000815260040161100390612a0e565b60405180910390fd5b82600381111561101f5761101e611f6e565b5b6000808473ffffffffffffffffffffffffffffffffffffffff1673ffffffffffffffffffffffffffffffffffffffff16815260200190815260200160002060010160006101000a81548160ff0219169083600381111561108257611081611f6e565b5b02179055506040518060400160405280600d81526020017f526f6c6520557064617465642100000000000000000000000000000000000000815250905092915050565b600160038111156110d9576110d8611f6e565b5b600080600260009054906101000a900473ffffffffffffffffffffffffffffffffffffffff1673ffffffffffffffffffffffffffffffffffffffff1673ffffffffffffffffffffffffffffffffffffffff16815260200190815260200160002060010160009054906101000a900460ff16600381111561115c5761115b611f6e565b5b1461119c576040517f08c379a00000000000000000000000000000000000000000000000000000000081526004016111939061268e565b60405180910390fd5b3373ffffffffffffffffffffffffffffffffffffffff16600260009054906101000a900473ffffffffffffffffffffffffffffffffffffffff1673ffffffffffffffffffffffffffffffffffffffff161461122c576040517f08c379a0000000000000000000000000000000000000000000000000000000008152600401611223906126fa565b60405180910390fd5b600060058111156112405761123f611f6e565b5b8260600151600581111561125757611256611f6e565b5b14611297576040517f08c379a000000000000000000000000000000000000000000000000000000000815260040161128e90612aa0565b60405180910390fd5b60006005600060085481526020019081526020016000209050838160010190805190602001906112c8929190611b51565b5060008160020160006101000a81548160ff021916908360018111156112f1576112f0611f6e565b5b021790555082816003016000820151816000015560208201518160010155604082015181600201908051906020019061132b929190611b51565b5060608201518160030160006101000a81548160ff0219169083600581111561135757611356611f6e565b5b0217905550905050818160070160006101000a81548173ffffffffffffffffffffffffffffffffffffffff021916908373ffffffffffffffffffffffffffffffffffffffff1602179055507fea116f66bfca993e06ec3531e54d6fdd056bed479a873a351b5ff4c23124595b6008546000858660600151866040516113e09594939291906128bc565b60405180910390a1600860008154809291906113fb90612780565b919050555050505050565b6001600381111561141a57611419611f6e565b5b600080600260009054906101000a900473ffffffffffffffffffffffffffffffffffffffff1673ffffffffffffffffffffffffffffffffffffffff1673ffffffffffffffffffffffffffffffffffffffff16815260200190815260200160002060010160009054906101000a900460ff16600381111561149d5761149c611f6e565b5b146114dd576040517f08c379a00000000000000000000000000000000000000000000000000000000081526004016114d49061268e565b60405180910390fd5b3373ffffffffffffffffffffffffffffffffffffffff16600260009054906101000a900473ffffffffffffffffffffffffffffffffffffffff1673ffffffffffffffffffffffffffffffffffffffff161461156d576040517f08c379a0000000000000000000000000000000000000000000000000000000008152600401611564906126fa565b60405180910390fd5b6004600581111561158157611580611f6e565b5b8260600151600581111561159857611597611f6e565b5b146115d8576040517f08c379a00000000000000000000000000000000000000000000000000000000081526004016115cf90612b58565b60405180910390fd5b6000600560006008548152602001908152602001600020905083816001019080519060200190611609929190611b51565b5060008160020160006101000a81548160ff0219169083600181111561163257611631611f6e565b5b021790555082816003016000820151816000015560208201518160010155604082015181600201908051906020019061166c929190611b51565b5060608201518160030160006101000a81548160ff0219169083600581111561169857611697611f6e565b5b0217905550905050818160070160006101000a81548173ffffffffffffffffffffffffffffffffffffffff021916908373ffffffffffffffffffffffffffffffffffffffff1602179055507fea116f66bfca993e06ec3531e54d6fdd056bed479a873a351b5ff4c23124595b6008546000858660600151866040516117219594939291906128bc565b60405180910390a16008600081548092919061173c90612780565b919050555050505050565b6004602052806000526040600020600091509050806000015490806001018054611770906127f8565b80601f016020809104026020016040519081016040528092919081815260200182805461179c906127f8565b80156117e95780601f106117be576101008083540402835291602001916117e9565b820191906000526020600020905b8154815290600101906020018083116117cc57829003601f168201915b5050505050908060020160009054906101000a900460ff1690806003016040518060800160405290816000820154815260200160018201548152602001600282018054611835906127f8565b80601f0160208091040260200160405190810160405280929190818152602001828054611861906127f8565b80156118ae5780601f10611883576101008083540402835291602001916118ae565b820191906000526020600020905b81548152906001019060200180831161189157829003601f168201915b505050505081526020016003820160009054906101000a900460ff1660058111156118dc576118db611f6e565b5b60058111156118ee576118ed611f6e565b5b81525050908060070160009054906101000a900473ffffffffffffffffffffffffffffffffffffffff16905085565b3373ffffffffffffffffffffffffffffffffffffffff16600160009054906101000a900473ffffffffffffffffffffffffffffffffffffffff1673ffffffffffffffffffffffffffffffffffffffff16146119ad576040517f08c379a00000000000000000000000000000000000000000000000000000000081526004016119a490612a0e565b60405180910390fd5b826000808373ffffffffffffffffffffffffffffffffffffffff1673ffffffffffffffffffffffffffffffffffffffff1681526020019081526020016000206000019080519060200190611a02929190611b51565b50816003811115611a1657611a15611f6e565b5b6000808373ffffffffffffffffffffffffffffffffffffffff1673ffffffffffffffffffffffffffffffffffffffff16815260200190815260200160002060010160006101000a81548160ff02191690836003811115611a7957611a78611f6e565b5b0217905550806000808373ffffffffffffffffffffffffffffffffffffffff1673ffffffffffffffffffffffffffffffffffffffff16815260200190815260200160002060010160016101000a81548173ffffffffffffffffffffffffffffffffffffffff021916908373ffffffffffffffffffffffffffffffffffffffff1602179055508073ffffffffffffffffffffffffffffffffffffffff167f48cac28ad4dc618e15f4c2dd5e97751182f166de97b25618318b2112aa951a2f84604051611b4491906123f7565b60405180910390a2505050565b828054611b5d906127f8565b90600052602060002090601f016020900481019282611b7f5760008555611bc6565b82601f10611b9857805160ff1916838001178555611bc6565b82800160010185558215611bc6579182015b82811115611bc5578251825591602001919060010190611baa565b5b509050611bd39190611c20565b5090565b60405180606001604052806060815260200160006003811115611bfd57611bfc611f6e565b5b8152602001600073ffffffffffffffffffffffffffffffffffffffff1681525090565b5b80821115611c39576000816000905550600101611c21565b5090565b6000604051905090565b600080fd5b600080fd5b6000819050919050565b611c6481611c51565b8114611c6f57600080fd5b50565b600081359050611c8181611c5b565b92915050565b600080fd5b600080fd5b6000601f19601f8301169050919050565b7f4e487b7100000000000000000000000000000000000000000000000000000000600052604160045260246000fd5b611cda82611c91565b810181811067ffffffffffffffff82111715611cf957611cf8611ca2565b5b80604052505050565b6000611d0c611c3d565b9050611d188282611cd1565b919050565b600067ffffffffffffffff821115611d3857611d37611ca2565b5b611d4182611c91565b9050602081019050919050565b82818337600083830152505050565b6000611d70611d6b84611d1d565b611d02565b905082815260208101848484011115611d8c57611d8b611c8c565b5b611d97848285611d4e565b509392505050565b600082601f830112611db457611db3611c87565b5b8135611dc4848260208601611d5d565b91505092915050565b60068110611dda57600080fd5b50565b600081359050611dec81611dcd565b92915050565b60008060008060808587031215611e0c57611e0b611c47565b5b6000611e1a87828801611c72565b945050602085013567ffffffffffffffff811115611e3b57611e3a611c4c565b5b611e4787828801611d9f565b9350506040611e5887828801611ddd565b925050606085013567ffffffffffffffff811115611e7957611e78611c4c565b5b611e8587828801611d9f565b91505092959194509250565b600060208284031215611ea757611ea6611c47565b5b6000611eb584828501611c72565b91505092915050565b611ec781611c51565b82525050565b6000819050919050565b611ee081611ecd565b82525050565b600081519050919050565b600082825260208201905092915050565b60005b83811015611f20578082015181840152602081019050611f05565b83811115611f2f576000848401525b50505050565b6000611f4082611ee6565b611f4a8185611ef1565b9350611f5a818560208601611f02565b611f6381611c91565b840191505092915050565b7f4e487b7100000000000000000000000000000000000000000000000000000000600052602160045260246000fd5b60068110611fae57611fad611f6e565b5b50565b6000819050611fbf82611f9d565b919050565b6000611fcf82611fb1565b9050919050565b611fdf81611fc4565b82525050565b6000608082019050611ffa6000830187611ebe565b6120076020830186611ed7565b81810360408301526120198185611f35565b90506120286060830184611fd6565b95945050505050565b600073ffffffffffffffffffffffffffffffffffffffff82169050919050565b600061205c82612031565b9050919050565b61206c81612051565b811461207757600080fd5b50565b60008135905061208981612063565b92915050565b6000602082840312156120a5576120a4611c47565b5b60006120b38482850161207a565b91505092915050565b600481106120cd576120cc611f6e565b5b50565b60008190506120de826120bc565b919050565b60006120ee826120d0565b9050919050565b6120fe816120e3565b82525050565b61210d81612051565b82525050565b6000606082019050818103600083015261212d8186611f35565b905061213c60208301856120f5565b6121496040830184612104565b949350505050565b600080fd5b600080fd5b61216481611ecd565b811461216f57600080fd5b50565b6000813590506121818161215b565b92915050565b60006080828403121561219d5761219c612151565b5b6121a76080611d02565b905060006121b784828501611c72565b60008301525060206121cb84828501612172565b602083015250604082013567ffffffffffffffff8111156121ef576121ee612156565b5b6121fb84828501611d9f565b604083015250606061220f84828501611ddd565b60608301525092915050565b60008060006060848603121561223457612233611c47565b5b600084013567ffffffffffffffff81111561225257612251611c4c565b5b61225e86828701611d9f565b935050602084013567ffffffffffffffff81111561227f5761227e611c4c565b5b61228b86828701612187565b925050604061229c8682870161207a565b9150509250925092565b600080604083850312156122bd576122bc611c47565b5b600083013567ffffffffffffffff8111156122db576122da611c4c565b5b6122e785828601611d9f565b92505060206122f88582860161207a565b9150509250929050565b60006020820190506123176000830184611ed7565b92915050565b600082825260208201905092915050565b600061233982611ee6565b612343818561231d565b9350612353818560208601611f02565b61235c81611c91565b840191505092915050565b612370816120e3565b82525050565b61237f81612051565b82525050565b600060608301600083015184820360008601526123a2828261232e565b91505060208301516123b76020860182612367565b5060408301516123ca6040860182612376565b508091505092915050565b600060208201905081810360008301526123ef8184612385565b905092915050565b600060208201905081810360008301526124118184611f35565b905092915050565b6002811061242a57612429611f6e565b5b50565b600081905061243b82612419565b919050565b600061244b8261242d565b9050919050565b61245b81612440565b82525050565b61246a81611c51565b82525050565b61247981611ecd565b82525050565b61248881611fc4565b82525050565b60006080830160008301516124a66000860182612461565b5060208301516124b96020860182612470565b50604083015184820360408601526124d1828261232e565b91505060608301516124e6606086018261247f565b508091505092915050565b600060a0820190506125066000830188611ebe565b81810360208301526125188187611f35565b90506125276040830186612452565b8181036060830152612539818561248e565b90506125486080830184612104565b9695505050505050565b60006020820190506125676000830184612104565b92915050565b6000806040838503121561258457612583611c47565b5b600061259285828601611c72565b92505060206125a38582860161207a565b9150509250929050565b6000806000606084860312156125c6576125c5611c47565b5b600084013567ffffffffffffffff8111156125e4576125e3611c4c565b5b6125f086828701611d9f565b935050602061260186828701611c72565b92505060406126128682870161207a565b9150509250925092565b7f596f7520646f6e27742068617665207468652072696768747320666f7220746860008201527f6973207265736f75726365732e00000000000000000000000000000000000000602082015250565b6000612678602d83611ef1565b91506126838261261c565b604082019050919050565b600060208201905081810360008301526126a78161266b565b9050919050565b7f596f7520617265206e6f7420612070726f6a65637420696e69746961746f7200600082015250565b60006126e4601f83611ef1565b91506126ef826126ae565b602082019050919050565b60006020820190508181036000830152612713816126d7565b9050919050565b600060608201905061272f6000830186611ebe565b61273c6020830185611fd6565b6127496040830184612104565b949350505050565b7f4e487b7100000000000000000000000000000000000000000000000000000000600052601160045260246000fd5b600061278b82611c51565b91507fffffffffffffffffffffffffffffffffffffffffffffffffffffffffffffffff8214156127be576127bd612751565b5b600182019050919050565b7f4e487b7100000000000000000000000000000000000000000000000000000000600052602260045260246000fd5b6000600282049050600182168061281057607f821691505b60208210811415612824576128236127c9565b5b50919050565b7f5468652070726f6a656374206973206e6f7420617070726f7665642c2074686560008201527f206f7065726174696f6e2063616e6e6f7420626520646f6e652e000000000000602082015250565b6000612886603a83611ef1565b91506128918261282a565b604082019050919050565b600060208201905081810360008301526128b581612879565b9050919050565b600060a0820190506128d16000830188611ebe565b6128de6020830187612452565b81810360408301526128f0818661248e565b90506128ff6060830185611fd6565b61290c6080830184612104565b9695505050505050565b600081905092915050565b600061292c82611ee6565b6129368185612916565b9350612946818560208601611f02565b80840191505092915050565b60008160601b9050919050565b600061296a82612952565b9050919050565b600061297c8261295f565b9050919050565b61299461298f82612051565b612971565b82525050565b60006129a68285612921565b91506129b28284612983565b6014820191508190509392505050565b7f596f7520617265206e6f7420616e206f776e6572000000000000000000000000600082015250565b60006129f8601483611ef1565b9150612a03826129c2565b602082019050919050565b60006020820190508181036000830152612a27816129eb565b9050919050565b7f5468652070726f6a656374206973206e6f7420637265617465642c207468652060008201527f6f7065726174696f6e2063616e6e6f7420626520646f6e652e00000000000000602082015250565b6000612a8a603983611ef1565b9150612a9582612a2e565b604082019050919050565b60006020820190508181036000830152612ab981612a7d565b9050919050565b7f5468652070726f6a656374206973206e6f7420696e2074686520274265666f7260008201527f6546696e616c697a6174696f6e436865636b27207374617475732c207468652060208201527f6f7065726174696f6e2063616e6e6f7420626520646f6e652e00000000000000604082015250565b6000612b42605983611ef1565b9150612b4d82612ac0565b606082019050919050565b60006020820190508181036000830152612b7181612b35565b905091905056fea26469706673582212200c94aa335d2cd1cb604a63495c103935413dfcfd4b1e66c36e16636e9c0f505f64736f6c63430008090033",
  "immutableReferences": {},
  "source": "// SPDX-License-Identifier: MIT\r\npragma solidity >=0.8.0 <0.9.0;\r\n\r\nimport \"./User.sol\";\r\n\r\ncontract Project is User {\r\n\r\n    address projectInitiator;\r\n\r\n    mapping(uint => S_Project) public projects;\r\n    mapping(uint => S_Request) public companyRequests;\r\n    mapping(uint => S_Request) public supervisorRequests;\r\n\r\n    uint indexProject;\r\n    uint indexCompanyRequest;\r\n    uint indexSupervisorRequest;\r\n\r\n    struct S_Project {\r\n        uint index;\r\n        bytes32 identifier;\r\n        string description;\r\n        ProjectStatus projectStatus;\r\n    }\r\n\r\n    struct S_Request {\r\n        uint index;\r\n        string description;\r\n        RequestStatus status;\r\n        S_Project project;\r\n        address subjectAddress;\r\n    }\r\n\r\n    enum RequestStatus { Unverified, Verified }\r\n    enum ProjectStatus { Created, Approved, Rejected, OnGoing, BeforeFinalizationCheck, Completed }\r\n\r\n    event CreateProject(uint _indexProject, Project.ProjectStatus _projectStatus, address _address);\r\n    event UpdateSupervisorRequestStatus(uint _indexRequest, RequestStatus _status, S_Project _project, ProjectStatus _projectStatus, address _subjectAddress);\r\n    event UpdateCompanyRequestStatus(uint _indexRequest, RequestStatus _status, S_Project _project, ProjectStatus _projectStatus, address _subjectAddress);\r\n\r\n    constructor() {\r\n        projectInitiator = msg.sender;\r\n    }\r\n\r\n    modifier onlyProjectInitiator {\r\n        require(userInfo[projectInitiator].role == Roles.ProjectInitiator, \"You don't have the rights for this resources.\");\r\n        require(projectInitiator == msg.sender, \"You are not a project initiator\");\r\n        _;\r\n    }\r\n\r\n    function createProject(uint _index, string memory _description, ProjectStatus _status, string memory _hashStringValue) public onlyProjectInitiator {\r\n        bytes32 _identifier = createUniqueIdentifier(_hashStringValue, address(0));\r\n\r\n        projects[indexProject].index = _index;\r\n        projects[indexProject].identifier = _identifier;\r\n        projects[indexProject].description = _description;\r\n        projects[indexProject].projectStatus = _status;\r\n        emit CreateProject(indexProject, ProjectStatus.Created, address(0));\r\n        indexProject++;\r\n    }\r\n\r\n    function createUniqueIdentifier(string memory _text, address _addr) public pure returns (bytes32)  {\r\n        return keccak256(abi.encodePacked(_text, _addr));\r\n    }\r\n\r\n    function requestProjectApprovalFromSupervisor(string memory _description, S_Project memory _project, address _subjectAddress) public onlyProjectInitiator {\r\n        require(_project.projectStatus == ProjectStatus.Created, \"The project is not created, the operation cannot be done.\");\r\n\r\n        S_Request storage request = supervisorRequests[indexSupervisorRequest];\r\n        request.description = _description;\r\n        request.status = RequestStatus.Unverified;\r\n        request.project = _project;\r\n        request.subjectAddress = _subjectAddress;\r\n\r\n        emit UpdateSupervisorRequestStatus(indexSupervisorRequest, RequestStatus.Unverified, _project, _project.projectStatus, _subjectAddress);\r\n        indexSupervisorRequest++;\r\n    }\r\n\r\n    function requestProjectCompleteFromSupervisor(string memory _description, S_Project memory _project, address _subjectAddress) public onlyProjectInitiator {\r\n        require(\r\n            _project.projectStatus == ProjectStatus.BeforeFinalizationCheck,\r\n            \"The project is not in the 'BeforeFinalizationCheck' status, the operation cannot be done.\"\r\n        );\r\n\r\n        S_Request storage request = supervisorRequests[indexSupervisorRequest];\r\n        request.description = _description;\r\n        request.status = RequestStatus.Unverified;\r\n        request.project = _project;\r\n        request.subjectAddress = _subjectAddress;\r\n\r\n        emit UpdateSupervisorRequestStatus(indexSupervisorRequest, RequestStatus.Unverified, _project, _project.projectStatus, _subjectAddress);\r\n        indexSupervisorRequest++;\r\n    }\r\n\r\n    function requestStartProjectToCompanyBuilder(string memory _description, S_Project memory _project, address _subjectAddress) public onlyProjectInitiator {\r\n        require(_project.projectStatus == ProjectStatus.Approved, \"The project is not approved, the operation cannot be done.\");\r\n\r\n        S_Request storage request = companyRequests[indexCompanyRequest];\r\n        request.description = _description;\r\n        request.status = RequestStatus.Unverified;\r\n        request.project = _project;\r\n        request.subjectAddress = _subjectAddress;\r\n\r\n        emit UpdateCompanyRequestStatus(indexCompanyRequest, RequestStatus.Unverified, _project, _project.projectStatus, _subjectAddress);\r\n        indexCompanyRequest++;\r\n    }\r\n}",
  "sourcePath": "/mnt/c/users/beniamin/source/repos/dissertationproject/contracts/Project.sol",
  "compiler": {
    "name": "solc",
    "version": "0.8.9+commit.e5eed63a.Emscripten.clang"
  },
  "schemaVersion": "3.4.3",
  "updatedAt": "2021-11-05T20:41:13.857Z",
  "networkType": "ethereum",
  "devdoc": {
    "kind": "dev",
    "methods": {},
    "version": 1
  },
  "userdoc": {
    "kind": "user",
    "methods": {},
    "version": 1
  }
}