{
	"contractName": "ProjectChain",
	"abi": [
		{
			"inputs": [],
			"stateMutability": "nonpayable",
			"type": "constructor"
		},
		{
			"anonymous": false,
			"inputs": [
				{
					"components": [
						{
							"internalType": "uint256",
							"name": "_index",
							"type": "uint256"
						},
						{
							"internalType": "string",
							"name": "_name",
							"type": "string"
						},
						{
							"internalType": "enum SharedChain.ProjectStatus",
							"name": "_status",
							"type": "uint8"
						},
						{
							"internalType": "string",
							"name": "_ipfsFileCID",
							"type": "string"
						},
						{
							"internalType": "address",
							"name": "_projectAddress",
							"type": "address"
						},
						{
							"internalType": "address",
							"name": "_signerAddress",
							"type": "address"
						},
						{
							"internalType": "address",
							"name": "_companyAddress",
							"type": "address"
						},
						{
							"internalType": "bool",
							"name": "_assigned",
							"type": "bool"
						},
						{
							"internalType": "uint256",
							"name": "_timestamp",
							"type": "uint256"
						},
						{
							"internalType": "string",
							"name": "_signature",
							"type": "string"
						}
					],
					"indexed": false,
					"internalType": "struct SharedChain.Project",
					"name": "_project",
					"type": "tuple"
				},
				{
					"indexed": true,
					"internalType": "address",
					"name": "_projectAddress",
					"type": "address"
				},
				{
					"indexed": true,
					"internalType": "address",
					"name": "_companyAddress",
					"type": "address"
				}
			],
			"name": "ProjectEvent",
			"type": "event"
		},
		{
			"anonymous": false,
			"inputs": [
				{
					"components": [
						{
							"internalType": "uint256",
							"name": "_index",
							"type": "uint256"
						},
						{
							"internalType": "string",
							"name": "_title",
							"type": "string"
						},
						{
							"internalType": "string",
							"name": "_comments",
							"type": "string"
						},
						{
							"internalType": "enum SharedChain.ProjectStatus",
							"name": "_projectStatus",
							"type": "uint8"
						},
						{
							"internalType": "enum SharedChain.RequestStatus",
							"name": "_requestStatus",
							"type": "uint8"
						},
						{
							"internalType": "enum SharedChain.RequestType",
							"name": "_requestType",
							"type": "uint8"
						},
						{
							"internalType": "address",
							"name": "_projectAddress",
							"type": "address"
						},
						{
							"internalType": "address",
							"name": "_requestAddress",
							"type": "address"
						},
						{
							"internalType": "address",
							"name": "_signerAddress",
							"type": "address"
						},
						{
							"internalType": "uint256",
							"name": "_timestamp",
							"type": "uint256"
						},
						{
							"internalType": "string",
							"name": "_signature",
							"type": "string"
						}
					],
					"indexed": false,
					"internalType": "struct SharedChain.Request",
					"name": "_request",
					"type": "tuple"
				},
				{
					"indexed": true,
					"internalType": "address",
					"name": "_requestAddress",
					"type": "address"
				},
				{
					"indexed": true,
					"internalType": "address",
					"name": "_projectAddress",
					"type": "address"
				}
			],
			"name": "RequestEvent",
			"type": "event"
		},
		{
			"anonymous": false,
			"inputs": [
				{
					"components": [
						{
							"internalType": "bytes32",
							"name": "_firstname",
							"type": "bytes32"
						},
						{
							"internalType": "bytes32",
							"name": "_lastname",
							"type": "bytes32"
						},
						{
							"internalType": "enum SharedChain.Roles",
							"name": "_role",
							"type": "uint8"
						},
						{
							"internalType": "address",
							"name": "_walletAddress",
							"type": "address"
						},
						{
							"internalType": "uint256",
							"name": "_timestamp",
							"type": "uint256"
						}
					],
					"indexed": false,
					"internalType": "struct SharedChain.User",
					"name": "_user",
					"type": "tuple"
				},
				{
					"indexed": true,
					"internalType": "address",
					"name": "_walletAddress",
					"type": "address"
				}
			],
			"name": "UserEvent",
			"type": "event"
		},
		{
			"inputs": [
				{
					"internalType": "uint256",
					"name": "_role",
					"type": "uint256"
				},
				{
					"internalType": "address",
					"name": "_walletAddress",
					"type": "address"
				}
			],
			"name": "changeUserRole",
			"outputs": [],
			"stateMutability": "nonpayable",
			"type": "function"
		},
		{
			"inputs": [],
			"name": "getAllUsers",
			"outputs": [
				{
					"components": [
						{
							"internalType": "bytes32",
							"name": "_firstname",
							"type": "bytes32"
						},
						{
							"internalType": "bytes32",
							"name": "_lastname",
							"type": "bytes32"
						},
						{
							"internalType": "enum SharedChain.Roles",
							"name": "_role",
							"type": "uint8"
						},
						{
							"internalType": "address",
							"name": "_walletAddress",
							"type": "address"
						},
						{
							"internalType": "uint256",
							"name": "_timestamp",
							"type": "uint256"
						}
					],
					"internalType": "struct SharedChain.User[]",
					"name": "",
					"type": "tuple[]"
				}
			],
			"stateMutability": "view",
			"type": "function",
			"constant": true
		},
		{
			"inputs": [
				{
					"internalType": "address",
					"name": "_walletAddress",
					"type": "address"
				}
			],
			"name": "getUserInfo",
			"outputs": [
				{
					"components": [
						{
							"internalType": "bytes32",
							"name": "_firstname",
							"type": "bytes32"
						},
						{
							"internalType": "bytes32",
							"name": "_lastname",
							"type": "bytes32"
						},
						{
							"internalType": "enum SharedChain.Roles",
							"name": "_role",
							"type": "uint8"
						},
						{
							"internalType": "address",
							"name": "_walletAddress",
							"type": "address"
						},
						{
							"internalType": "uint256",
							"name": "_timestamp",
							"type": "uint256"
						}
					],
					"internalType": "struct SharedChain.User",
					"name": "",
					"type": "tuple"
				}
			],
			"stateMutability": "view",
			"type": "function",
			"constant": true
		},
		{
			"inputs": [],
			"name": "owner",
			"outputs": [
				{
					"internalType": "address",
					"name": "",
					"type": "address"
				}
			],
			"stateMutability": "view",
			"type": "function",
			"constant": true
		},
		{
			"inputs": [
				{
					"internalType": "address",
					"name": "",
					"type": "address"
				}
			],
			"name": "projects",
			"outputs": [
				{
					"internalType": "uint256",
					"name": "_index",
					"type": "uint256"
				},
				{
					"internalType": "string",
					"name": "_name",
					"type": "string"
				},
				{
					"internalType": "enum SharedChain.ProjectStatus",
					"name": "_status",
					"type": "uint8"
				},
				{
					"internalType": "string",
					"name": "_ipfsFileCID",
					"type": "string"
				},
				{
					"internalType": "address",
					"name": "_projectAddress",
					"type": "address"
				},
				{
					"internalType": "address",
					"name": "_signerAddress",
					"type": "address"
				},
				{
					"internalType": "address",
					"name": "_companyAddress",
					"type": "address"
				},
				{
					"internalType": "bool",
					"name": "_assigned",
					"type": "bool"
				},
				{
					"internalType": "uint256",
					"name": "_timestamp",
					"type": "uint256"
				},
				{
					"internalType": "string",
					"name": "_signature",
					"type": "string"
				}
			],
			"stateMutability": "view",
			"type": "function",
			"constant": true
		},
		{
			"inputs": [
				{
					"internalType": "uint256",
					"name": "",
					"type": "uint256"
				}
			],
			"name": "projectsAddress",
			"outputs": [
				{
					"internalType": "address",
					"name": "",
					"type": "address"
				}
			],
			"stateMutability": "view",
			"type": "function",
			"constant": true
		},
		{
			"inputs": [],
			"name": "projectsCounter",
			"outputs": [
				{
					"internalType": "uint256",
					"name": "",
					"type": "uint256"
				}
			],
			"stateMutability": "view",
			"type": "function",
			"constant": true
		},
		{
			"inputs": [
				{
					"internalType": "bytes32",
					"name": "_firstname",
					"type": "bytes32"
				},
				{
					"internalType": "bytes32",
					"name": "_lastname",
					"type": "bytes32"
				},
				{
					"internalType": "uint256",
					"name": "_role",
					"type": "uint256"
				},
				{
					"internalType": "address",
					"name": "_walletAddress",
					"type": "address"
				}
			],
			"name": "registerUser",
			"outputs": [],
			"stateMutability": "nonpayable",
			"type": "function"
		},
		{
			"inputs": [
				{
					"internalType": "address",
					"name": "",
					"type": "address"
				}
			],
			"name": "requests",
			"outputs": [
				{
					"internalType": "uint256",
					"name": "_index",
					"type": "uint256"
				},
				{
					"internalType": "string",
					"name": "_title",
					"type": "string"
				},
				{
					"internalType": "string",
					"name": "_comments",
					"type": "string"
				},
				{
					"internalType": "enum SharedChain.ProjectStatus",
					"name": "_projectStatus",
					"type": "uint8"
				},
				{
					"internalType": "enum SharedChain.RequestStatus",
					"name": "_requestStatus",
					"type": "uint8"
				},
				{
					"internalType": "enum SharedChain.RequestType",
					"name": "_requestType",
					"type": "uint8"
				},
				{
					"internalType": "address",
					"name": "_projectAddress",
					"type": "address"
				},
				{
					"internalType": "address",
					"name": "_requestAddress",
					"type": "address"
				},
				{
					"internalType": "address",
					"name": "_signerAddress",
					"type": "address"
				},
				{
					"internalType": "uint256",
					"name": "_timestamp",
					"type": "uint256"
				},
				{
					"internalType": "string",
					"name": "_signature",
					"type": "string"
				}
			],
			"stateMutability": "view",
			"type": "function",
			"constant": true
		},
		{
			"inputs": [
				{
					"internalType": "uint256",
					"name": "",
					"type": "uint256"
				}
			],
			"name": "requestsAddress",
			"outputs": [
				{
					"internalType": "address",
					"name": "",
					"type": "address"
				}
			],
			"stateMutability": "view",
			"type": "function",
			"constant": true
		},
		{
			"inputs": [],
			"name": "requestsCounter",
			"outputs": [
				{
					"internalType": "uint256",
					"name": "",
					"type": "uint256"
				}
			],
			"stateMutability": "view",
			"type": "function",
			"constant": true
		},
		{
			"inputs": [
				{
					"internalType": "address",
					"name": "",
					"type": "address"
				}
			],
			"name": "users",
			"outputs": [
				{
					"internalType": "bytes32",
					"name": "_firstname",
					"type": "bytes32"
				},
				{
					"internalType": "bytes32",
					"name": "_lastname",
					"type": "bytes32"
				},
				{
					"internalType": "enum SharedChain.Roles",
					"name": "_role",
					"type": "uint8"
				},
				{
					"internalType": "address",
					"name": "_walletAddress",
					"type": "address"
				},
				{
					"internalType": "uint256",
					"name": "_timestamp",
					"type": "uint256"
				}
			],
			"stateMutability": "view",
			"type": "function",
			"constant": true
		},
		{
			"inputs": [],
			"name": "usersCounter",
			"outputs": [
				{
					"internalType": "uint256",
					"name": "",
					"type": "uint256"
				}
			],
			"stateMutability": "view",
			"type": "function",
			"constant": true
		},
		{
			"inputs": [
				{
					"internalType": "string",
					"name": "_name",
					"type": "string"
				},
				{
					"internalType": "uint256",
					"name": "_index",
					"type": "uint256"
				}
			],
			"name": "createUniqueProjectAddress",
			"outputs": [
				{
					"internalType": "address",
					"name": "",
					"type": "address"
				}
			],
			"stateMutability": "view",
			"type": "function",
			"constant": true
		},
		{
			"inputs": [
				{
					"internalType": "address",
					"name": "_projectAddress",
					"type": "address"
				},
				{
					"internalType": "string",
					"name": "_name",
					"type": "string"
				},
				{
					"internalType": "uint256",
					"name": "_status",
					"type": "uint256"
				},
				{
					"internalType": "string",
					"name": "_ipfsFileCID",
					"type": "string"
				},
				{
					"internalType": "string",
					"name": "_signature",
					"type": "string"
				}
			],
			"name": "createProject",
			"outputs": [],
			"stateMutability": "nonpayable",
			"type": "function"
		},
		{
			"inputs": [
				{
					"internalType": "address",
					"name": "_projectAddress",
					"type": "address"
				},
				{
					"internalType": "string",
					"name": "_ipfsFileCID",
					"type": "string"
				},
				{
					"internalType": "string",
					"name": "_signature",
					"type": "string"
				}
			],
			"name": "updateProject",
			"outputs": [],
			"stateMutability": "nonpayable",
			"type": "function"
		},
		{
			"inputs": [
				{
					"internalType": "address",
					"name": "_address",
					"type": "address"
				}
			],
			"name": "getProjectInfo",
			"outputs": [
				{
					"components": [
						{
							"internalType": "uint256",
							"name": "_index",
							"type": "uint256"
						},
						{
							"internalType": "string",
							"name": "_name",
							"type": "string"
						},
						{
							"internalType": "enum SharedChain.ProjectStatus",
							"name": "_status",
							"type": "uint8"
						},
						{
							"internalType": "string",
							"name": "_ipfsFileCID",
							"type": "string"
						},
						{
							"internalType": "address",
							"name": "_projectAddress",
							"type": "address"
						},
						{
							"internalType": "address",
							"name": "_signerAddress",
							"type": "address"
						},
						{
							"internalType": "address",
							"name": "_companyAddress",
							"type": "address"
						},
						{
							"internalType": "bool",
							"name": "_assigned",
							"type": "bool"
						},
						{
							"internalType": "uint256",
							"name": "_timestamp",
							"type": "uint256"
						},
						{
							"internalType": "string",
							"name": "_signature",
							"type": "string"
						}
					],
					"internalType": "struct SharedChain.Project",
					"name": "",
					"type": "tuple"
				}
			],
			"stateMutability": "view",
			"type": "function",
			"constant": true
		},
		{
			"inputs": [],
			"name": "getProjects",
			"outputs": [
				{
					"components": [
						{
							"internalType": "uint256",
							"name": "_index",
							"type": "uint256"
						},
						{
							"internalType": "string",
							"name": "_name",
							"type": "string"
						},
						{
							"internalType": "enum SharedChain.ProjectStatus",
							"name": "_status",
							"type": "uint8"
						},
						{
							"internalType": "string",
							"name": "_ipfsFileCID",
							"type": "string"
						},
						{
							"internalType": "address",
							"name": "_projectAddress",
							"type": "address"
						},
						{
							"internalType": "address",
							"name": "_signerAddress",
							"type": "address"
						},
						{
							"internalType": "address",
							"name": "_companyAddress",
							"type": "address"
						},
						{
							"internalType": "bool",
							"name": "_assigned",
							"type": "bool"
						},
						{
							"internalType": "uint256",
							"name": "_timestamp",
							"type": "uint256"
						},
						{
							"internalType": "string",
							"name": "_signature",
							"type": "string"
						}
					],
					"internalType": "struct SharedChain.Project[]",
					"name": "",
					"type": "tuple[]"
				}
			],
			"stateMutability": "view",
			"type": "function",
			"constant": true
		},
		{
			"inputs": [
				{
					"internalType": "string",
					"name": "_title",
					"type": "string"
				},
				{
					"internalType": "uint256",
					"name": "_index",
					"type": "uint256"
				}
			],
			"name": "createUniqueRequestAddress",
			"outputs": [
				{
					"internalType": "address",
					"name": "",
					"type": "address"
				}
			],
			"stateMutability": "view",
			"type": "function",
			"constant": true
		},
		{
			"inputs": [
				{
					"internalType": "string",
					"name": "_title",
					"type": "string"
				},
				{
					"internalType": "uint256",
					"name": "_projectStatus",
					"type": "uint256"
				},
				{
					"internalType": "uint256",
					"name": "_requestStatus",
					"type": "uint256"
				},
				{
					"internalType": "address",
					"name": "_projectAddress",
					"type": "address"
				},
				{
					"internalType": "address",
					"name": "_requestAddress",
					"type": "address"
				},
				{
					"internalType": "string",
					"name": "_signature",
					"type": "string"
				}
			],
			"name": "createRequest",
			"outputs": [],
			"stateMutability": "nonpayable",
			"type": "function"
		},
		{
			"inputs": [
				{
					"internalType": "string",
					"name": "_comments",
					"type": "string"
				},
				{
					"internalType": "uint256",
					"name": "_requestStatus",
					"type": "uint256"
				},
				{
					"internalType": "uint256",
					"name": "_projectStatus",
					"type": "uint256"
				},
				{
					"internalType": "address",
					"name": "_projectAddress",
					"type": "address"
				},
				{
					"internalType": "address",
					"name": "_requestAddress",
					"type": "address"
				},
				{
					"internalType": "string",
					"name": "_signature",
					"type": "string"
				}
			],
			"name": "updateSupervisorRequest",
			"outputs": [],
			"stateMutability": "nonpayable",
			"type": "function"
		},
		{
			"inputs": [
				{
					"internalType": "string",
					"name": "_comments",
					"type": "string"
				},
				{
					"internalType": "uint256",
					"name": "_requestStatus",
					"type": "uint256"
				},
				{
					"internalType": "uint256",
					"name": "_projectStatus",
					"type": "uint256"
				},
				{
					"internalType": "address",
					"name": "_projectAddress",
					"type": "address"
				},
				{
					"internalType": "address",
					"name": "_requestAddress",
					"type": "address"
				},
				{
					"internalType": "string",
					"name": "_signature",
					"type": "string"
				}
			],
			"name": "updateCompanyRequest",
			"outputs": [],
			"stateMutability": "nonpayable",
			"type": "function"
		},
		{
			"inputs": [],
			"name": "getAllRequests",
			"outputs": [
				{
					"components": [
						{
							"internalType": "uint256",
							"name": "_index",
							"type": "uint256"
						},
						{
							"internalType": "string",
							"name": "_title",
							"type": "string"
						},
						{
							"internalType": "string",
							"name": "_comments",
							"type": "string"
						},
						{
							"internalType": "enum SharedChain.ProjectStatus",
							"name": "_projectStatus",
							"type": "uint8"
						},
						{
							"internalType": "enum SharedChain.RequestStatus",
							"name": "_requestStatus",
							"type": "uint8"
						},
						{
							"internalType": "enum SharedChain.RequestType",
							"name": "_requestType",
							"type": "uint8"
						},
						{
							"internalType": "address",
							"name": "_projectAddress",
							"type": "address"
						},
						{
							"internalType": "address",
							"name": "_requestAddress",
							"type": "address"
						},
						{
							"internalType": "address",
							"name": "_signerAddress",
							"type": "address"
						},
						{
							"internalType": "uint256",
							"name": "_timestamp",
							"type": "uint256"
						},
						{
							"internalType": "string",
							"name": "_signature",
							"type": "string"
						}
					],
					"internalType": "struct SharedChain.Request[]",
					"name": "",
					"type": "tuple[]"
				}
			],
			"stateMutability": "view",
			"type": "function",
			"constant": true
		},
		{
			"inputs": [
				{
					"internalType": "address",
					"name": "_projectAddress",
					"type": "address"
				},
				{
					"internalType": "address",
					"name": "_requestAddress",
					"type": "address"
				}
			],
			"name": "getLastProjectRequest",
			"outputs": [
				{
					"components": [
						{
							"internalType": "uint256",
							"name": "_index",
							"type": "uint256"
						},
						{
							"internalType": "string",
							"name": "_title",
							"type": "string"
						},
						{
							"internalType": "string",
							"name": "_comments",
							"type": "string"
						},
						{
							"internalType": "enum SharedChain.ProjectStatus",
							"name": "_projectStatus",
							"type": "uint8"
						},
						{
							"internalType": "enum SharedChain.RequestStatus",
							"name": "_requestStatus",
							"type": "uint8"
						},
						{
							"internalType": "enum SharedChain.RequestType",
							"name": "_requestType",
							"type": "uint8"
						},
						{
							"internalType": "address",
							"name": "_projectAddress",
							"type": "address"
						},
						{
							"internalType": "address",
							"name": "_requestAddress",
							"type": "address"
						},
						{
							"internalType": "address",
							"name": "_signerAddress",
							"type": "address"
						},
						{
							"internalType": "uint256",
							"name": "_timestamp",
							"type": "uint256"
						},
						{
							"internalType": "string",
							"name": "_signature",
							"type": "string"
						}
					],
					"internalType": "struct SharedChain.Request",
					"name": "",
					"type": "tuple"
				}
			],
			"stateMutability": "view",
			"type": "function",
			"constant": true
		}
	],
	"bytecode": "0x6080604052336000806101000a81548173ffffffffffffffffffffffffffffffffffffffff021916908373ffffffffffffffffffffffffffffffffffffffff16021790555060006002556000600555600060085534801561005f57600080fd5b50615fea80620000706000396000f3fe608060405234801561001057600080fd5b50600436106101585760003560e01c80638da5cb5b116100c3578063dcc601281161007c578063dcc601281461043a578063e1592c0d14610458578063e2842d7914610474578063e617385f14610492578063fb1a002a146104ae578063fe360ea5146104cc57610158565b80638da5cb5b14610376578063910097861461039457806391d6e4ac146103b0578063a87430ba146103cc578063ba60ec8414610400578063d67b1b991461041c57610158565b80636386c1c7116101155780636386c1c714610269578063663c22691461029957806374adad1d146102b757806376c932e0146102f1578063840e78fd14610321578063844855631461035a57610158565b8063191e16451461015d5780633000d7f91461018d5780633b4ec4f8146101a957806344884710146101d957806347ee45b91461020957806356a3eead14610239575b600080fd5b61017760048036038101906101729190614634565b6104ea565b60405161018491906146d1565b60405180910390f35b6101a760048036038101906101a2919061474e565b6105d8565b005b6101c360048036038101906101be9190614634565b61091b565b6040516101d091906146d1565b60405180910390f35b6101f360048036038101906101ee91906147b5565b610a23565b6040516102009190614a9f565b60405180910390f35b610223600480360381019061021e9190614ac1565b610fde565b6040516102309190614bf1565b60405180910390f35b610253600480360381019061024e9190614c13565b61142a565b60405161026091906146d1565b60405180910390f35b610283600480360381019061027e9190614ac1565b611469565b6040516102909190614cff565b60405180910390f35b6102a1611641565b6040516102ae9190614d29565b60405180910390f35b6102d160048036038101906102cc9190614ac1565b611647565b6040516102e89b9a99989796959493929190614dbb565b60405180910390f35b61030b60048036038101906103069190614c13565b6118c0565b60405161031891906146d1565b60405180910390f35b61033b60048036038101906103369190614ac1565b6118ff565b6040516103519a99989796959493929190614e8a565b60405180910390f35b610374600480360381019061036f9190614f3b565b611b65565b005b61037e611fc7565b60405161038b91906146d1565b60405180910390f35b6103ae60048036038101906103a9919061500a565b611feb565b005b6103ca60048036038101906103c5919061504a565b6121cc565b005b6103e660048036038101906103e19190614ac1565b612636565b6040516103f795949392919061512d565b60405180910390f35b61041a6004803603810190610415919061504a565b612699565b005b610424612a82565b6040516104319190614d29565b60405180910390f35b610442612a88565b60405161044f919061532a565b60405180910390f35b610472600480360381019061046d919061534c565b6130ef565b005b61047c6132fc565b60405161048991906154ee565b60405180910390f35b6104ac60048036038101906104a7919061504a565b61356f565b005b6104b6613b1e565b6040516104c391906156cf565b60405180910390f35b6104d46140a2565b6040516104e19190614d29565b60405180910390f35b600060016003811115610500576104ff61488c565b5b600160003373ffffffffffffffffffffffffffffffffffffffff1673ffffffffffffffffffffffffffffffffffffffff16815260200190815260200160002060020160009054906101000a900460ff1660038111156105625761056161488c565b5b146105a2576040517f08c379a00000000000000000000000000000000000000000000000000000000081526004016105999061573d565b60405180910390fd5b8233836040516020016105b793929190615802565b6040516020818303038152906040528051906020012060001c905092915050565b8073ffffffffffffffffffffffffffffffffffffffff16600073ffffffffffffffffffffffffffffffffffffffff161415610648576040517f08c379a000000000000000000000000000000000000000000000000000000000815260040161063f90615887565b60405180910390fd5b3373ffffffffffffffffffffffffffffffffffffffff1660008054906101000a900473ffffffffffffffffffffffffffffffffffffffff1673ffffffffffffffffffffffffffffffffffffffff16146106d6576040517f08c379a00000000000000000000000000000000000000000000000000000000081526004016106cd9061573d565b60405180910390fd5b6040518060a00160405280858152602001848152602001836003811115610700576106ff61488c565b5b60038111156107125761071161488c565b5b81526020018273ffffffffffffffffffffffffffffffffffffffff16815260200142815250600160008373ffffffffffffffffffffffffffffffffffffffff1673ffffffffffffffffffffffffffffffffffffffff168152602001908152602001600020600082015181600001556020820151816001015560408201518160020160006101000a81548160ff021916908360038111156107b5576107b461488c565b5b021790555060608201518160020160016101000a81548173ffffffffffffffffffffffffffffffffffffffff021916908373ffffffffffffffffffffffffffffffffffffffff160217905550608082015181600301559050508073ffffffffffffffffffffffffffffffffffffffff167ff751778eb32087df58f173035147c2eac9aac89fdc2f83b1993a198606f56db1600160008473ffffffffffffffffffffffffffffffffffffffff1673ffffffffffffffffffffffffffffffffffffffff1681526020019081526020016000206040516108929190615a04565b60405180910390a26003819080600181540180825580915050600190039060005260206000200160009091909190916101000a81548173ffffffffffffffffffffffffffffffffffffffff021916908373ffffffffffffffffffffffffffffffffffffffff1602179055506002600081548092919061091090615a4e565b919050555050505050565b60003373ffffffffffffffffffffffffffffffffffffffff16600160003373ffffffffffffffffffffffffffffffffffffffff1673ffffffffffffffffffffffffffffffffffffffff16815260200190815260200160002060020160019054906101000a900473ffffffffffffffffffffffffffffffffffffffff1673ffffffffffffffffffffffffffffffffffffffff16146109ed576040517f08c379a00000000000000000000000000000000000000000000000000000000081526004016109e490615887565b60405180910390fd5b823383604051602001610a0293929190615802565b6040516020818303038152906040528051906020012060001c905092915050565b610a2b614229565b60016003811115610a3f57610a3e61488c565b5b600160003373ffffffffffffffffffffffffffffffffffffffff1673ffffffffffffffffffffffffffffffffffffffff16815260200190815260200160002060020160009054906101000a900460ff166003811115610aa157610aa061488c565b5b1480610b20575060026003811115610abc57610abb61488c565b5b600160003373ffffffffffffffffffffffffffffffffffffffff1673ffffffffffffffffffffffffffffffffffffffff16815260200190815260200160002060020160009054906101000a900460ff166003811115610b1e57610b1d61488c565b5b145b610b5f576040517f08c379a0000000000000000000000000000000000000000000000000000000008152600401610b569061573d565b60405180910390fd5b610b67614229565b60006008541115610fd4578373ffffffffffffffffffffffffffffffffffffffff16600760008573ffffffffffffffffffffffffffffffffffffffff1673ffffffffffffffffffffffffffffffffffffffff16815260200190815260200160002060030160039054906101000a900473ffffffffffffffffffffffffffffffffffffffff1673ffffffffffffffffffffffffffffffffffffffff161415610fd357600760008473ffffffffffffffffffffffffffffffffffffffff1673ffffffffffffffffffffffffffffffffffffffff1681526020019081526020016000206040518061016001604052908160008201548152602001600182018054610c6d90615ac6565b80601f0160208091040260200160405190810160405280929190818152602001828054610c9990615ac6565b8015610ce65780601f10610cbb57610100808354040283529160200191610ce6565b820191906000526020600020905b815481529060010190602001808311610cc957829003601f168201915b50505050508152602001600282018054610cff90615ac6565b80601f0160208091040260200160405190810160405280929190818152602001828054610d2b90615ac6565b8015610d785780601f10610d4d57610100808354040283529160200191610d78565b820191906000526020600020905b815481529060010190602001808311610d5b57829003601f168201915b505050505081526020016003820160009054906101000a900460ff166004811115610da657610da561488c565b5b6004811115610db857610db761488c565b5b81526020016003820160019054906101000a900460ff166002811115610de157610de061488c565b5b6002811115610df357610df261488c565b5b81526020016003820160029054906101000a900460ff166001811115610e1c57610e1b61488c565b5b6001811115610e2e57610e2d61488c565b5b81526020016003820160039054906101000a900473ffffffffffffffffffffffffffffffffffffffff1673ffffffffffffffffffffffffffffffffffffffff1673ffffffffffffffffffffffffffffffffffffffff1681526020016004820160009054906101000a900473ffffffffffffffffffffffffffffffffffffffff1673ffffffffffffffffffffffffffffffffffffffff1673ffffffffffffffffffffffffffffffffffffffff1681526020016005820160009054906101000a900473ffffffffffffffffffffffffffffffffffffffff1673ffffffffffffffffffffffffffffffffffffffff1673ffffffffffffffffffffffffffffffffffffffff16815260200160068201548152602001600782018054610f4e90615ac6565b80601f0160208091040260200160405190810160405280929190818152602001828054610f7a90615ac6565b8015610fc75780601f10610f9c57610100808354040283529160200191610fc7565b820191906000526020600020905b815481529060010190602001808311610faa57829003601f168201915b50505050508152505090505b5b8091505092915050565b610fe66142fb565b3373ffffffffffffffffffffffffffffffffffffffff16600160003373ffffffffffffffffffffffffffffffffffffffff1673ffffffffffffffffffffffffffffffffffffffff16815260200190815260200160002060020160019054906101000a900473ffffffffffffffffffffffffffffffffffffffff1673ffffffffffffffffffffffffffffffffffffffff16146110b6576040517f08c379a00000000000000000000000000000000000000000000000000000000081526004016110ad9061573d565b60405180910390fd5b600460008373ffffffffffffffffffffffffffffffffffffffff1673ffffffffffffffffffffffffffffffffffffffff168152602001908152602001600020604051806101400160405290816000820154815260200160018201805461111b90615ac6565b80601f016020809104026020016040519081016040528092919081815260200182805461114790615ac6565b80156111945780601f1061116957610100808354040283529160200191611194565b820191906000526020600020905b81548152906001019060200180831161117757829003601f168201915b505050505081526020016002820160009054906101000a900460ff1660048111156111c2576111c161488c565b5b60048111156111d4576111d361488c565b5b81526020016003820180546111e890615ac6565b80601f016020809104026020016040519081016040528092919081815260200182805461121490615ac6565b80156112615780601f1061123657610100808354040283529160200191611261565b820191906000526020600020905b81548152906001019060200180831161124457829003601f168201915b505050505081526020016004820160009054906101000a900473ffffffffffffffffffffffffffffffffffffffff1673ffffffffffffffffffffffffffffffffffffffff1673ffffffffffffffffffffffffffffffffffffffff1681526020016005820160009054906101000a900473ffffffffffffffffffffffffffffffffffffffff1673ffffffffffffffffffffffffffffffffffffffff1673ffffffffffffffffffffffffffffffffffffffff1681526020016006820160009054906101000a900473ffffffffffffffffffffffffffffffffffffffff1673ffffffffffffffffffffffffffffffffffffffff1673ffffffffffffffffffffffffffffffffffffffff1681526020016006820160149054906101000a900460ff16151515158152602001600782015481526020016008820180546113a190615ac6565b80601f01602080910402602001604051908101604052809291908181526020018280546113cd90615ac6565b801561141a5780601f106113ef5761010080835404028352916020019161141a565b820191906000526020600020905b8154815290600101906020018083116113fd57829003601f168201915b5050505050815250509050919050565b6009818154811061143a57600080fd5b906000526020600020016000915054906101000a900473ffffffffffffffffffffffffffffffffffffffff1681565b6114716143a4565b3373ffffffffffffffffffffffffffffffffffffffff16600160003373ffffffffffffffffffffffffffffffffffffffff1673ffffffffffffffffffffffffffffffffffffffff16815260200190815260200160002060020160019054906101000a900473ffffffffffffffffffffffffffffffffffffffff1673ffffffffffffffffffffffffffffffffffffffff1614611541576040517f08c379a00000000000000000000000000000000000000000000000000000000081526004016115389061573d565b60405180910390fd5b600160008373ffffffffffffffffffffffffffffffffffffffff1673ffffffffffffffffffffffffffffffffffffffff1681526020019081526020016000206040518060a001604052908160008201548152602001600182015481526020016002820160009054906101000a900460ff1660038111156115c4576115c361488c565b5b60038111156115d6576115d561488c565b5b81526020016002820160019054906101000a900473ffffffffffffffffffffffffffffffffffffffff1673ffffffffffffffffffffffffffffffffffffffff1673ffffffffffffffffffffffffffffffffffffffff1681526020016003820154815250509050919050565b60085481565b600760205280600052604060002060009150905080600001549080600101805461167090615ac6565b80601f016020809104026020016040519081016040528092919081815260200182805461169c90615ac6565b80156116e95780601f106116be576101008083540402835291602001916116e9565b820191906000526020600020905b8154815290600101906020018083116116cc57829003601f168201915b5050505050908060020180546116fe90615ac6565b80601f016020809104026020016040519081016040528092919081815260200182805461172a90615ac6565b80156117775780601f1061174c57610100808354040283529160200191611777565b820191906000526020600020905b81548152906001019060200180831161175a57829003601f168201915b5050505050908060030160009054906101000a900460ff16908060030160019054906101000a900460ff16908060030160029054906101000a900460ff16908060030160039054906101000a900473ffffffffffffffffffffffffffffffffffffffff16908060040160009054906101000a900473ffffffffffffffffffffffffffffffffffffffff16908060050160009054906101000a900473ffffffffffffffffffffffffffffffffffffffff169080600601549080600701805461183d90615ac6565b80601f016020809104026020016040519081016040528092919081815260200182805461186990615ac6565b80156118b65780601f1061188b576101008083540402835291602001916118b6565b820191906000526020600020905b81548152906001019060200180831161189957829003601f168201915b505050505090508b565b600681815481106118d057600080fd5b906000526020600020016000915054906101000a900473ffffffffffffffffffffffffffffffffffffffff1681565b600460205280600052604060002060009150905080600001549080600101805461192890615ac6565b80601f016020809104026020016040519081016040528092919081815260200182805461195490615ac6565b80156119a15780601f10611976576101008083540402835291602001916119a1565b820191906000526020600020905b81548152906001019060200180831161198457829003601f168201915b5050505050908060020160009054906101000a900460ff16908060030180546119c990615ac6565b80601f01602080910402602001604051908101604052809291908181526020018280546119f590615ac6565b8015611a425780601f10611a1757610100808354040283529160200191611a42565b820191906000526020600020905b815481529060010190602001808311611a2557829003601f168201915b5050505050908060040160009054906101000a900473ffffffffffffffffffffffffffffffffffffffff16908060050160009054906101000a900473ffffffffffffffffffffffffffffffffffffffff16908060060160009054906101000a900473ffffffffffffffffffffffffffffffffffffffff16908060060160149054906101000a900460ff1690806007015490806008018054611ae290615ac6565b80601f0160208091040260200160405190810160405280929190818152602001828054611b0e90615ac6565b8015611b5b5780601f10611b3057610100808354040283529160200191611b5b565b820191906000526020600020905b815481529060010190602001808311611b3e57829003601f168201915b505050505090508a565b60016003811115611b7957611b7861488c565b5b600160003373ffffffffffffffffffffffffffffffffffffffff1673ffffffffffffffffffffffffffffffffffffffff16815260200190815260200160002060020160009054906101000a900460ff166003811115611bdb57611bda61488c565b5b14611c1b576040517f08c379a0000000000000000000000000000000000000000000000000000000008152600401611c129061573d565b60405180910390fd5b6040518061014001604052806005548152602001858152602001846004811115611c4857611c4761488c565b5b6004811115611c5a57611c5961488c565b5b81526020018381526020018673ffffffffffffffffffffffffffffffffffffffff1681526020013373ffffffffffffffffffffffffffffffffffffffff168152602001600073ffffffffffffffffffffffffffffffffffffffff16815260200160001515815260200142815260200182815250600460008773ffffffffffffffffffffffffffffffffffffffff1673ffffffffffffffffffffffffffffffffffffffff168152602001908152602001600020600082015181600001556020820151816001019080519060200190611d32929190614401565b5060408201518160020160006101000a81548160ff02191690836004811115611d5e57611d5d61488c565b5b02179055506060820151816003019080519060200190611d7f929190614401565b5060808201518160040160006101000a81548173ffffffffffffffffffffffffffffffffffffffff021916908373ffffffffffffffffffffffffffffffffffffffff16021790555060a08201518160050160006101000a81548173ffffffffffffffffffffffffffffffffffffffff021916908373ffffffffffffffffffffffffffffffffffffffff16021790555060c08201518160060160006101000a81548173ffffffffffffffffffffffffffffffffffffffff021916908373ffffffffffffffffffffffffffffffffffffffff16021790555060e08201518160060160146101000a81548160ff0219169083151502179055506101008201518160070155610120820151816008019080519060200190611e9d929190614401565b50905050600073ffffffffffffffffffffffffffffffffffffffff168573ffffffffffffffffffffffffffffffffffffffff167ffb530d24abc3d497c3f0525ef204a66ac64d923ec30b40d17bc3a5f572cf4b8e600460008973ffffffffffffffffffffffffffffffffffffffff1673ffffffffffffffffffffffffffffffffffffffff168152602001908152602001600020604051611f3d9190615d2d565b60405180910390a36006859080600181540180825580915050600190039060005260206000200160009091909190916101000a81548173ffffffffffffffffffffffffffffffffffffffff021916908373ffffffffffffffffffffffffffffffffffffffff16021790555060056000815480929190611fbb90615a4e565b91905055505050505050565b60008054906101000a900473ffffffffffffffffffffffffffffffffffffffff1681565b3373ffffffffffffffffffffffffffffffffffffffff1660008054906101000a900473ffffffffffffffffffffffffffffffffffffffff1673ffffffffffffffffffffffffffffffffffffffff1614612079576040517f08c379a00000000000000000000000000000000000000000000000000000000081526004016120709061573d565b60405180910390fd5b81600381111561208c5761208b61488c565b5b600160008373ffffffffffffffffffffffffffffffffffffffff1673ffffffffffffffffffffffffffffffffffffffff16815260200190815260200160002060020160006101000a81548160ff021916908360038111156120f0576120ef61488c565b5b021790555042600160008373ffffffffffffffffffffffffffffffffffffffff1673ffffffffffffffffffffffffffffffffffffffff168152602001908152602001600020600301819055508073ffffffffffffffffffffffffffffffffffffffff167ff751778eb32087df58f173035147c2eac9aac89fdc2f83b1993a198606f56db1600160008473ffffffffffffffffffffffffffffffffffffffff1673ffffffffffffffffffffffffffffffffffffffff1681526020019081526020016000206040516121c09190615a04565b60405180910390a25050565b600260038111156121e0576121df61488c565b5b600160003373ffffffffffffffffffffffffffffffffffffffff1673ffffffffffffffffffffffffffffffffffffffff16815260200190815260200160002060020160009054906101000a900460ff1660038111156122425761224161488c565b5b14612282576040517f08c379a00000000000000000000000000000000000000000000000000000000081526004016122799061573d565b60405180910390fd5b85600760008473ffffffffffffffffffffffffffffffffffffffff1673ffffffffffffffffffffffffffffffffffffffff16815260200190815260200160002060020190805190602001906122d8929190614401565b508460028111156122ec576122eb61488c565b5b600760008473ffffffffffffffffffffffffffffffffffffffff1673ffffffffffffffffffffffffffffffffffffffff16815260200190815260200160002060030160016101000a81548160ff021916908360028111156123505761234f61488c565b5b021790555080600760008473ffffffffffffffffffffffffffffffffffffffff1673ffffffffffffffffffffffffffffffffffffffff16815260200190815260200160002060070190805190602001906123ab929190614401565b508273ffffffffffffffffffffffffffffffffffffffff168273ffffffffffffffffffffffffffffffffffffffff167fa25a6f1ff57a050a48ae4b3a19f271fddad950cac8d165d6a2eca5d54cc8070f600760008673ffffffffffffffffffffffffffffffffffffffff1673ffffffffffffffffffffffffffffffffffffffff1681526020019081526020016000206040516124479190615f0d565b60405180910390a38460028111156124625761246161488c565b5b60028111156124745761247361488c565b5b6002808111156124875761248661488c565b5b141561262e578360048111156124a05761249f61488c565b5b600460008573ffffffffffffffffffffffffffffffffffffffff1673ffffffffffffffffffffffffffffffffffffffff16815260200190815260200160002060020160006101000a81548160ff021916908360048111156125045761250361488c565b5b021790555033600460008573ffffffffffffffffffffffffffffffffffffffff1673ffffffffffffffffffffffffffffffffffffffff16815260200190815260200160002060060160006101000a81548173ffffffffffffffffffffffffffffffffffffffff021916908373ffffffffffffffffffffffffffffffffffffffff1602179055503373ffffffffffffffffffffffffffffffffffffffff168373ffffffffffffffffffffffffffffffffffffffff167ffb530d24abc3d497c3f0525ef204a66ac64d923ec30b40d17bc3a5f572cf4b8e600460008773ffffffffffffffffffffffffffffffffffffffff1673ffffffffffffffffffffffffffffffffffffffff1681526020019081526020016000206040516126259190615d2d565b60405180910390a35b505050505050565b60016020528060005260406000206000915090508060000154908060010154908060020160009054906101000a900460ff16908060020160019054906101000a900473ffffffffffffffffffffffffffffffffffffffff16908060030154905085565b6003808111156126ac576126ab61488c565b5b600160003373ffffffffffffffffffffffffffffffffffffffff1673ffffffffffffffffffffffffffffffffffffffff16815260200190815260200160002060020160009054906101000a900460ff16600381111561270e5761270d61488c565b5b1461274e576040517f08c379a00000000000000000000000000000000000000000000000000000000081526004016127459061573d565b60405180910390fd5b85600760008473ffffffffffffffffffffffffffffffffffffffff1673ffffffffffffffffffffffffffffffffffffffff16815260200190815260200160002060020190805190602001906127a4929190614401565b508460028111156127b8576127b761488c565b5b600760008473ffffffffffffffffffffffffffffffffffffffff1673ffffffffffffffffffffffffffffffffffffffff16815260200190815260200160002060030160016101000a81548160ff0219169083600281111561281c5761281b61488c565b5b021790555080600760008473ffffffffffffffffffffffffffffffffffffffff1673ffffffffffffffffffffffffffffffffffffffff1681526020019081526020016000206007019080519060200190612877929190614401565b508273ffffffffffffffffffffffffffffffffffffffff168273ffffffffffffffffffffffffffffffffffffffff167fa25a6f1ff57a050a48ae4b3a19f271fddad950cac8d165d6a2eca5d54cc8070f600760008673ffffffffffffffffffffffffffffffffffffffff1673ffffffffffffffffffffffffffffffffffffffff1681526020019081526020016000206040516129139190615f0d565b60405180910390a384600281111561292e5761292d61488c565b5b60028111156129405761293f61488c565b5b6002808111156129535761295261488c565b5b1415612a7a5783600481111561296c5761296b61488c565b5b600460008573ffffffffffffffffffffffffffffffffffffffff1673ffffffffffffffffffffffffffffffffffffffff16815260200190815260200160002060020160006101000a81548160ff021916908360048111156129d0576129cf61488c565b5b0217905550600073ffffffffffffffffffffffffffffffffffffffff168373ffffffffffffffffffffffffffffffffffffffff167ffb530d24abc3d497c3f0525ef204a66ac64d923ec30b40d17bc3a5f572cf4b8e600460008773ffffffffffffffffffffffffffffffffffffffff1673ffffffffffffffffffffffffffffffffffffffff168152602001908152602001600020604051612a719190615d2d565b60405180910390a35b505050505050565b60025481565b606060016003811115612a9e57612a9d61488c565b5b600160003373ffffffffffffffffffffffffffffffffffffffff1673ffffffffffffffffffffffffffffffffffffffff16815260200190815260200160002060020160009054906101000a900460ff166003811115612b0057612aff61488c565b5b1480612b7f575060026003811115612b1b57612b1a61488c565b5b600160003373ffffffffffffffffffffffffffffffffffffffff1673ffffffffffffffffffffffffffffffffffffffff16815260200190815260200160002060020160009054906101000a900460ff166003811115612b7d57612b7c61488c565b5b145b612bbe576040517f08c379a0000000000000000000000000000000000000000000000000000000008152600401612bb59061573d565b60405180910390fd5b60606000612bca6140a8565b90506000811415612bdf5781925050506130ec565b8067ffffffffffffffff811115612bf957612bf86144d3565b5b604051908082528060200260200182016040528015612c3257816020015b612c1f6142fb565b815260200190600190039081612c175790505b50915060005b6005548110156130e557600060068281548110612c5857612c57615f2f565b5b9060005260206000200160009054906101000a900473ffffffffffffffffffffffffffffffffffffffff1690506000600460008373ffffffffffffffffffffffffffffffffffffffff1673ffffffffffffffffffffffffffffffffffffffff16815260200190815260200160002090508060050160009054906101000a900473ffffffffffffffffffffffffffffffffffffffff1673ffffffffffffffffffffffffffffffffffffffff16600160003373ffffffffffffffffffffffffffffffffffffffff1673ffffffffffffffffffffffffffffffffffffffff16815260200190815260200160002060020160019054906101000a900473ffffffffffffffffffffffffffffffffffffffff1673ffffffffffffffffffffffffffffffffffffffff1614156130d057806040518061014001604052908160008201548152602001600182018054612da990615ac6565b80601f0160208091040260200160405190810160405280929190818152602001828054612dd590615ac6565b8015612e225780601f10612df757610100808354040283529160200191612e22565b820191906000526020600020905b815481529060010190602001808311612e0557829003601f168201915b505050505081526020016002820160009054906101000a900460ff166004811115612e5057612e4f61488c565b5b6004811115612e6257612e6161488c565b5b8152602001600382018054612e7690615ac6565b80601f0160208091040260200160405190810160405280929190818152602001828054612ea290615ac6565b8015612eef5780601f10612ec457610100808354040283529160200191612eef565b820191906000526020600020905b815481529060010190602001808311612ed257829003601f168201915b505050505081526020016004820160009054906101000a900473ffffffffffffffffffffffffffffffffffffffff1673ffffffffffffffffffffffffffffffffffffffff1673ffffffffffffffffffffffffffffffffffffffff1681526020016005820160009054906101000a900473ffffffffffffffffffffffffffffffffffffffff1673ffffffffffffffffffffffffffffffffffffffff1673ffffffffffffffffffffffffffffffffffffffff1681526020016006820160009054906101000a900473ffffffffffffffffffffffffffffffffffffffff1673ffffffffffffffffffffffffffffffffffffffff1673ffffffffffffffffffffffffffffffffffffffff1681526020016006820160149054906101000a900460ff161515151581526020016007820154815260200160088201805461302f90615ac6565b80601f016020809104026020016040519081016040528092919081815260200182805461305b90615ac6565b80156130a85780601f1061307d576101008083540402835291602001916130a8565b820191906000526020600020905b81548152906001019060200180831161308b57829003601f168201915b5050505050815250508584815181106130c4576130c3615f2f565b5b60200260200101819052505b505080806130dd90615a4e565b915050612c38565b5081925050505b90565b600160038111156131035761310261488c565b5b600160003373ffffffffffffffffffffffffffffffffffffffff1673ffffffffffffffffffffffffffffffffffffffff16815260200190815260200160002060020160009054906101000a900460ff1660038111156131655761316461488c565b5b146131a5576040517f08c379a000000000000000000000000000000000000000000000000000000000815260040161319c9061573d565b60405180910390fd5b81600460008573ffffffffffffffffffffffffffffffffffffffff1673ffffffffffffffffffffffffffffffffffffffff16815260200190815260200160002060030190805190602001906131fb929190614401565b5080600460008573ffffffffffffffffffffffffffffffffffffffff1673ffffffffffffffffffffffffffffffffffffffff1681526020019081526020016000206008019080519060200190613252929190614401565b50600073ffffffffffffffffffffffffffffffffffffffff168373ffffffffffffffffffffffffffffffffffffffff167ffb530d24abc3d497c3f0525ef204a66ac64d923ec30b40d17bc3a5f572cf4b8e600460008773ffffffffffffffffffffffffffffffffffffffff1673ffffffffffffffffffffffffffffffffffffffff1681526020019081526020016000206040516132ef9190615d2d565b60405180910390a3505050565b60603373ffffffffffffffffffffffffffffffffffffffff1660008054906101000a900473ffffffffffffffffffffffffffffffffffffffff1673ffffffffffffffffffffffffffffffffffffffff161461338c576040517f08c379a00000000000000000000000000000000000000000000000000000000081526004016133839061573d565b60405180910390fd5b600060025467ffffffffffffffff8111156133aa576133a96144d3565b5b6040519080825280602002602001820160405280156133e357816020015b6133d06143a4565b8152602001906001900390816133c85790505b50905060005b6002548110156135675760006003828154811061340957613408615f2f565b5b9060005260206000200160009054906101000a900473ffffffffffffffffffffffffffffffffffffffff1690506000600160008373ffffffffffffffffffffffffffffffffffffffff1673ffffffffffffffffffffffffffffffffffffffff1681526020019081526020016000209050806040518060a001604052908160008201548152602001600182015481526020016002820160009054906101000a900460ff1660038111156134be576134bd61488c565b5b60038111156134d0576134cf61488c565b5b81526020016002820160019054906101000a900473ffffffffffffffffffffffffffffffffffffffff1673ffffffffffffffffffffffffffffffffffffffff1673ffffffffffffffffffffffffffffffffffffffff16815260200160038201548152505084848151811061354757613546615f2f565b5b60200260200101819052505050808061355f90615a4e565b9150506133e9565b508091505090565b600160038111156135835761358261488c565b5b600160003373ffffffffffffffffffffffffffffffffffffffff1673ffffffffffffffffffffffffffffffffffffffff16815260200190815260200160002060020160009054906101000a900460ff1660038111156135e5576135e461488c565b5b1480613664575060026003811115613600576135ff61488c565b5b600160003373ffffffffffffffffffffffffffffffffffffffff1673ffffffffffffffffffffffffffffffffffffffff16815260200190815260200160002060020160009054906101000a900460ff1660038111156136625761366161488c565b5b145b6136a3576040517f08c379a000000000000000000000000000000000000000000000000000000000815260040161369a9061573d565b60405180910390fd5b6000600260048111156136b9576136b861488c565b5b8660048111156136cc576136cb61488c565b5b60048111156136de576136dd61488c565b5b14156136e957600190505b604051806101600160405280600854815260200188815260200160405180602001604052806000815250815260200187600481111561372b5761372a61488c565b5b600481111561373d5761373c61488c565b5b81526020018660028111156137555761375461488c565b5b60028111156137675761376661488c565b5b815260200182600181111561377f5761377e61488c565b5b81526020018573ffffffffffffffffffffffffffffffffffffffff1681526020018473ffffffffffffffffffffffffffffffffffffffff1681526020013373ffffffffffffffffffffffffffffffffffffffff16815260200142815260200183815250600760008573ffffffffffffffffffffffffffffffffffffffff1673ffffffffffffffffffffffffffffffffffffffff168152602001908152602001600020600082015181600001556020820151816001019080519060200190613847929190614401565b506040820151816002019080519060200190613864929190614401565b5060608201518160030160006101000a81548160ff021916908360048111156138905761388f61488c565b5b021790555060808201518160030160016101000a81548160ff021916908360028111156138c0576138bf61488c565b5b021790555060a08201518160030160026101000a81548160ff021916908360018111156138f0576138ef61488c565b5b021790555060c08201518160030160036101000a81548173ffffffffffffffffffffffffffffffffffffffff021916908373ffffffffffffffffffffffffffffffffffffffff16021790555060e08201518160040160006101000a81548173ffffffffffffffffffffffffffffffffffffffff021916908373ffffffffffffffffffffffffffffffffffffffff1602179055506101008201518160050160006101000a81548173ffffffffffffffffffffffffffffffffffffffff021916908373ffffffffffffffffffffffffffffffffffffffff16021790555061012082015181600601556101408201518160070190805190602001906139f3929190614401565b509050508373ffffffffffffffffffffffffffffffffffffffff168373ffffffffffffffffffffffffffffffffffffffff167fa25a6f1ff57a050a48ae4b3a19f271fddad950cac8d165d6a2eca5d54cc8070f600760008773ffffffffffffffffffffffffffffffffffffffff1673ffffffffffffffffffffffffffffffffffffffff168152602001908152602001600020604051613a929190615f0d565b60405180910390a36009839080600181540180825580915050600190039060005260206000200160009091909190916101000a81548173ffffffffffffffffffffffffffffffffffffffff021916908373ffffffffffffffffffffffffffffffffffffffff16021790555060086000815480929190613b1090615a4e565b919050555050505050505050565b60603373ffffffffffffffffffffffffffffffffffffffff16600160003373ffffffffffffffffffffffffffffffffffffffff1673ffffffffffffffffffffffffffffffffffffffff16815260200190815260200160002060020160019054906101000a900473ffffffffffffffffffffffffffffffffffffffff1673ffffffffffffffffffffffffffffffffffffffff1614613bf0576040517f08c379a0000000000000000000000000000000000000000000000000000000008152600401613be790615887565b60405180910390fd5b600060085467ffffffffffffffff811115613c0e57613c0d6144d3565b5b604051908082528060200260200182016040528015613c4757816020015b613c34614229565b815260200190600190039081613c2c5790505b50905060005b60085481101561409a57600060098281548110613c6d57613c6c615f2f565b5b9060005260206000200160009054906101000a900473ffffffffffffffffffffffffffffffffffffffff1690506000600760008373ffffffffffffffffffffffffffffffffffffffff1673ffffffffffffffffffffffffffffffffffffffff1681526020019081526020016000209050806040518061016001604052908160008201548152602001600182018054613d0490615ac6565b80601f0160208091040260200160405190810160405280929190818152602001828054613d3090615ac6565b8015613d7d5780601f10613d5257610100808354040283529160200191613d7d565b820191906000526020600020905b815481529060010190602001808311613d6057829003601f168201915b50505050508152602001600282018054613d9690615ac6565b80601f0160208091040260200160405190810160405280929190818152602001828054613dc290615ac6565b8015613e0f5780601f10613de457610100808354040283529160200191613e0f565b820191906000526020600020905b815481529060010190602001808311613df257829003601f168201915b505050505081526020016003820160009054906101000a900460ff166004811115613e3d57613e3c61488c565b5b6004811115613e4f57613e4e61488c565b5b81526020016003820160019054906101000a900460ff166002811115613e7857613e7761488c565b5b6002811115613e8a57613e8961488c565b5b81526020016003820160029054906101000a900460ff166001811115613eb357613eb261488c565b5b6001811115613ec557613ec461488c565b5b81526020016003820160039054906101000a900473ffffffffffffffffffffffffffffffffffffffff1673ffffffffffffffffffffffffffffffffffffffff1673ffffffffffffffffffffffffffffffffffffffff1681526020016004820160009054906101000a900473ffffffffffffffffffffffffffffffffffffffff1673ffffffffffffffffffffffffffffffffffffffff1673ffffffffffffffffffffffffffffffffffffffff1681526020016005820160009054906101000a900473ffffffffffffffffffffffffffffffffffffffff1673ffffffffffffffffffffffffffffffffffffffff1673ffffffffffffffffffffffffffffffffffffffff16815260200160068201548152602001600782018054613fe590615ac6565b80601f016020809104026020016040519081016040528092919081815260200182805461401190615ac6565b801561405e5780601f106140335761010080835404028352916020019161405e565b820191906000526020600020905b81548152906001019060200180831161404157829003601f168201915b50505050508152505084848151811061407a57614079615f2f565b5b60200260200101819052505050808061409290615a4e565b915050613c4d565b508091505090565b60055481565b6000806000905060005b600554811015614221576000600682815481106140d2576140d1615f2f565b5b9060005260206000200160009054906101000a900473ffffffffffffffffffffffffffffffffffffffff1690506000600460008373ffffffffffffffffffffffffffffffffffffffff1673ffffffffffffffffffffffffffffffffffffffff16815260200190815260200160002090508060050160009054906101000a900473ffffffffffffffffffffffffffffffffffffffff1673ffffffffffffffffffffffffffffffffffffffff16600160003373ffffffffffffffffffffffffffffffffffffffff1673ffffffffffffffffffffffffffffffffffffffff16815260200190815260200160002060020160019054906101000a900473ffffffffffffffffffffffffffffffffffffffff1673ffffffffffffffffffffffffffffffffffffffff16141561420c576001846142099190615f5e565b93505b5050808061421990615a4e565b9150506140b2565b508091505090565b6040518061016001604052806000815260200160608152602001606081526020016000600481111561425e5761425d61488c565b5b8152602001600060028111156142775761427661488c565b5b8152602001600060018111156142905761428f61488c565b5b8152602001600073ffffffffffffffffffffffffffffffffffffffff168152602001600073ffffffffffffffffffffffffffffffffffffffff168152602001600073ffffffffffffffffffffffffffffffffffffffff16815260200160008152602001606081525090565b6040518061014001604052806000815260200160608152602001600060048111156143295761432861488c565b5b815260200160608152602001600073ffffffffffffffffffffffffffffffffffffffff168152602001600073ffffffffffffffffffffffffffffffffffffffff168152602001600073ffffffffffffffffffffffffffffffffffffffff16815260200160001515815260200160008152602001606081525090565b6040518060a001604052806000801916815260200160008019168152602001600060038111156143d7576143d661488c565b5b8152602001600073ffffffffffffffffffffffffffffffffffffffff168152602001600081525090565b82805461440d90615ac6565b90600052602060002090601f01602090048101928261442f5760008555614476565b82601f1061444857805160ff1916838001178555614476565b82800160010185558215614476579182015b8281111561447557825182559160200191906001019061445a565b5b5090506144839190614487565b5090565b5b808211156144a0576000816000905550600101614488565b5090565b6000604051905090565b600080fd5b600080fd5b600080fd5b600080fd5b6000601f19601f8301169050919050565b7f4e487b7100000000000000000000000000000000000000000000000000000000600052604160045260246000fd5b61450b826144c2565b810181811067ffffffffffffffff8211171561452a576145296144d3565b5b80604052505050565b600061453d6144a4565b90506145498282614502565b919050565b600067ffffffffffffffff821115614569576145686144d3565b5b614572826144c2565b9050602081019050919050565b82818337600083830152505050565b60006145a161459c8461454e565b614533565b9050828152602081018484840111156145bd576145bc6144bd565b5b6145c884828561457f565b509392505050565b600082601f8301126145e5576145e46144b8565b5b81356145f584826020860161458e565b91505092915050565b6000819050919050565b614611816145fe565b811461461c57600080fd5b50565b60008135905061462e81614608565b92915050565b6000806040838503121561464b5761464a6144ae565b5b600083013567ffffffffffffffff811115614669576146686144b3565b5b614675858286016145d0565b92505060206146868582860161461f565b9150509250929050565b600073ffffffffffffffffffffffffffffffffffffffff82169050919050565b60006146bb82614690565b9050919050565b6146cb816146b0565b82525050565b60006020820190506146e660008301846146c2565b92915050565b6000819050919050565b6146ff816146ec565b811461470a57600080fd5b50565b60008135905061471c816146f6565b92915050565b61472b816146b0565b811461473657600080fd5b50565b60008135905061474881614722565b92915050565b60008060008060808587031215614768576147676144ae565b5b60006147768782880161470d565b94505060206147878782880161470d565b93505060406147988782880161461f565b92505060606147a987828801614739565b91505092959194509250565b600080604083850312156147cc576147cb6144ae565b5b60006147da85828601614739565b92505060206147eb85828601614739565b9150509250929050565b6147fe816145fe565b82525050565b600081519050919050565b600082825260208201905092915050565b60005b8381101561483e578082015181840152602081019050614823565b8381111561484d576000848401525b50505050565b600061485e82614804565b614868818561480f565b9350614878818560208601614820565b614881816144c2565b840191505092915050565b7f4e487b7100000000000000000000000000000000000000000000000000000000600052602160045260246000fd5b600581106148cc576148cb61488c565b5b50565b60008190506148dd826148bb565b919050565b60006148ed826148cf565b9050919050565b6148fd816148e2565b82525050565b600381106149145761491361488c565b5b50565b600081905061492582614903565b919050565b600061493582614917565b9050919050565b6149458161492a565b82525050565b6002811061495c5761495b61488c565b5b50565b600081905061496d8261494b565b919050565b600061497d8261495f565b9050919050565b61498d81614972565b82525050565b61499c816146b0565b82525050565b6000610160830160008301516149bb60008601826147f5565b50602083015184820360208601526149d38282614853565b915050604083015184820360408601526149ed8282614853565b9150506060830151614a0260608601826148f4565b506080830151614a15608086018261493c565b5060a0830151614a2860a0860182614984565b5060c0830151614a3b60c0860182614993565b5060e0830151614a4e60e0860182614993565b50610100830151614a63610100860182614993565b50610120830151614a786101208601826147f5565b50610140830151848203610140860152614a928282614853565b9150508091505092915050565b60006020820190508181036000830152614ab981846149a2565b905092915050565b600060208284031215614ad757614ad66144ae565b5b6000614ae584828501614739565b91505092915050565b60008115159050919050565b614b0381614aee565b82525050565b600061014083016000830151614b2260008601826147f5565b5060208301518482036020860152614b3a8282614853565b9150506040830151614b4f60408601826148f4565b5060608301518482036060860152614b678282614853565b9150506080830151614b7c6080860182614993565b5060a0830151614b8f60a0860182614993565b5060c0830151614ba260c0860182614993565b5060e0830151614bb560e0860182614afa565b50610100830151614bca6101008601826147f5565b50610120830151848203610120860152614be48282614853565b9150508091505092915050565b60006020820190508181036000830152614c0b8184614b09565b905092915050565b600060208284031215614c2957614c286144ae565b5b6000614c378482850161461f565b91505092915050565b614c49816146ec565b82525050565b60048110614c6057614c5f61488c565b5b50565b6000819050614c7182614c4f565b919050565b6000614c8182614c63565b9050919050565b614c9181614c76565b82525050565b60a082016000820151614cad6000850182614c40565b506020820151614cc06020850182614c40565b506040820151614cd36040850182614c88565b506060820151614ce66060850182614993565b506080820151614cf960808501826147f5565b50505050565b600060a082019050614d146000830184614c97565b92915050565b614d23816145fe565b82525050565b6000602082019050614d3e6000830184614d1a565b92915050565b600082825260208201905092915050565b6000614d6082614804565b614d6a8185614d44565b9350614d7a818560208601614820565b614d83816144c2565b840191505092915050565b614d97816148e2565b82525050565b614da68161492a565b82525050565b614db581614972565b82525050565b600061016082019050614dd1600083018e614d1a565b8181036020830152614de3818d614d55565b90508181036040830152614df7818c614d55565b9050614e06606083018b614d8e565b614e13608083018a614d9d565b614e2060a0830189614dac565b614e2d60c08301886146c2565b614e3a60e08301876146c2565b614e486101008301866146c2565b614e56610120830185614d1a565b818103610140830152614e698184614d55565b90509c9b505050505050505050505050565b614e8481614aee565b82525050565b600061014082019050614ea0600083018d614d1a565b8181036020830152614eb2818c614d55565b9050614ec1604083018b614d8e565b8181036060830152614ed3818a614d55565b9050614ee260808301896146c2565b614eef60a08301886146c2565b614efc60c08301876146c2565b614f0960e0830186614e7b565b614f17610100830185614d1a565b818103610120830152614f2a8184614d55565b90509b9a5050505050505050505050565b600080600080600060a08688031215614f5757614f566144ae565b5b6000614f6588828901614739565b955050602086013567ffffffffffffffff811115614f8657614f856144b3565b5b614f92888289016145d0565b9450506040614fa38882890161461f565b935050606086013567ffffffffffffffff811115614fc457614fc36144b3565b5b614fd0888289016145d0565b925050608086013567ffffffffffffffff811115614ff157614ff06144b3565b5b614ffd888289016145d0565b9150509295509295909350565b60008060408385031215615021576150206144ae565b5b600061502f8582860161461f565b925050602061504085828601614739565b9150509250929050565b60008060008060008060c08789031215615067576150666144ae565b5b600087013567ffffffffffffffff811115615085576150846144b3565b5b61509189828a016145d0565b96505060206150a289828a0161461f565b95505060406150b389828a0161461f565b94505060606150c489828a01614739565b93505060806150d589828a01614739565b92505060a087013567ffffffffffffffff8111156150f6576150f56144b3565b5b61510289828a016145d0565b9150509295509295509295565b615118816146ec565b82525050565b61512781614c76565b82525050565b600060a082019050615142600083018861510f565b61514f602083018761510f565b61515c604083018661511e565b61516960608301856146c2565b6151766080830184614d1a565b9695505050505050565b600081519050919050565b600082825260208201905092915050565b6000819050602082019050919050565b6000610140830160008301516151c560008601826147f5565b50602083015184820360208601526151dd8282614853565b91505060408301516151f260408601826148f4565b506060830151848203606086015261520a8282614853565b915050608083015161521f6080860182614993565b5060a083015161523260a0860182614993565b5060c083015161524560c0860182614993565b5060e083015161525860e0860182614afa565b5061010083015161526d6101008601826147f5565b506101208301518482036101208601526152878282614853565b9150508091505092915050565b60006152a083836151ac565b905092915050565b6000602082019050919050565b60006152c082615180565b6152ca818561518b565b9350836020820285016152dc8561519c565b8060005b8581101561531857848403895281516152f98582615294565b9450615304836152a8565b925060208a019950506001810190506152e0565b50829750879550505050505092915050565b6000602082019050818103600083015261534481846152b5565b905092915050565b600080600060608486031215615365576153646144ae565b5b600061537386828701614739565b935050602084013567ffffffffffffffff811115615394576153936144b3565b5b6153a0868287016145d0565b925050604084013567ffffffffffffffff8111156153c1576153c06144b3565b5b6153cd868287016145d0565b9150509250925092565b600081519050919050565b600082825260208201905092915050565b6000819050602082019050919050565b60a0820160008201516154196000850182614c40565b50602082015161542c6020850182614c40565b50604082015161543f6040850182614c88565b5060608201516154526060850182614993565b50608082015161546560808501826147f5565b50505050565b60006154778383615403565b60a08301905092915050565b6000602082019050919050565b600061549b826153d7565b6154a581856153e2565b93506154b0836153f3565b8060005b838110156154e15781516154c8888261546b565b97506154d383615483565b9250506001810190506154b4565b5085935050505092915050565b600060208201905081810360008301526155088184615490565b905092915050565b600081519050919050565b600082825260208201905092915050565b6000819050602082019050919050565b60006101608301600083015161555560008601826147f5565b506020830151848203602086015261556d8282614853565b915050604083015184820360408601526155878282614853565b915050606083015161559c60608601826148f4565b5060808301516155af608086018261493c565b5060a08301516155c260a0860182614984565b5060c08301516155d560c0860182614993565b5060e08301516155e860e0860182614993565b506101008301516155fd610100860182614993565b506101208301516156126101208601826147f5565b5061014083015184820361014086015261562c8282614853565b9150508091505092915050565b6000615645838361553c565b905092915050565b6000602082019050919050565b600061566582615510565b61566f818561551b565b9350836020820285016156818561552c565b8060005b858110156156bd578484038952815161569e8582615639565b94506156a98361564d565b925060208a01995050600181019050615685565b50829750879550505050505092915050565b600060208201905081810360008301526156e9818461565a565b905092915050565b7f596f7520617265206e6f742074686520726967687420757365722e0000000000600082015250565b6000615727601b83614d44565b9150615732826156f1565b602082019050919050565b600060208201905081810360008301526157568161571a565b9050919050565b600081905092915050565b600061577382614804565b61577d818561575d565b935061578d818560208601614820565b80840191505092915050565b60008160601b9050919050565b60006157b182615799565b9050919050565b60006157c3826157a6565b9050919050565b6157db6157d6826146b0565b6157b8565b82525050565b6000819050919050565b6157fc6157f7826145fe565b6157e1565b82525050565b600061580e8286615768565b915061581a82856157ca565b60148201915061582a82846157eb565b602082019150819050949350505050565b7f41646472657373206973206e6f742076616c69642e0000000000000000000000600082015250565b6000615871601583614d44565b915061587c8261583b565b602082019050919050565b600060208201905081810360008301526158a081615864565b9050919050565b60008160001c9050919050565b6000819050919050565b60006158d16158cc836158a7565b6158b4565b9050919050565b600060ff82169050919050565b60006158f86158f3836158a7565b6158d8565b9050919050565b60008160081c9050919050565b600073ffffffffffffffffffffffffffffffffffffffff82169050919050565b600061593f61593a836158ff565b61590c565b9050919050565b6000819050919050565b600061596361595e836158a7565b615946565b9050919050565b60a08201600080830154905061597f816158be565b61598c6000860182614c40565b506001830154905061599d816158be565b6159aa6020860182614c40565b50600283015490506159bb816158e5565b6159c86040860182614c88565b506159d28161592c565b6159df6060860182614993565b50600383015490506159f081615950565b6159fd60808601826147f5565b5050505050565b600060a082019050615a19600083018461596a565b92915050565b7f4e487b7100000000000000000000000000000000000000000000000000000000600052601160045260246000fd5b6000615a59826145fe565b91507fffffffffffffffffffffffffffffffffffffffffffffffffffffffffffffffff821415615a8c57615a8b615a1f565b5b600182019050919050565b7f4e487b7100000000000000000000000000000000000000000000000000000000600052602260045260246000fd5b60006002820490506001821680615ade57607f821691505b60208210811415615af257615af1615a97565b5b50919050565b60008190508160005260206000209050919050565b60008154615b1a81615ac6565b615b24818661480f565b94506001821660008114615b3f5760018114615b5157615b84565b60ff1983168652602086019350615b84565b615b5a85615af8565b60005b83811015615b7c57815481890152600182019150602081019050615b5d565b808801955050505b50505092915050565b600060ff82169050919050565b6000615bad615ba8836158a7565b615b8d565b9050919050565b6000615bc7615bc2836158a7565b61590c565b9050919050565b60008160a01c9050919050565b600060ff82169050919050565b6000615bfb615bf683615bce565b615bdb565b9050919050565b600061014083016000808401549050615c1a81615950565b615c2760008701826147f5565b50600184018583036020870152615c3e8382615b0d565b92505060028401549050615c5181615b9a565b615c5e60408701826148f4565b50600384018583036060870152615c758382615b0d565b92505060048401549050615c8881615bb4565b615c956080870182614993565b5060058401549050615ca681615bb4565b615cb360a0870182614993565b5060068401549050615cc481615bb4565b615cd160c0870182614993565b50615cdb81615be8565b615ce860e0870182614afa565b5060078401549050615cf981615950565b615d076101008701826147f5565b5060088401858303610120870152615d1f8382615b0d565b925050819250505092915050565b60006020820190508181036000830152615d478184615c02565b905092915050565b600060ff82169050919050565b6000615d6f615d6a836158ff565b615d4f565b9050919050565b60008160101c9050919050565b600060ff82169050919050565b6000615da3615d9e83615d76565b615d83565b9050919050565b60008160181c9050919050565b6000615dca615dc583615daa565b61590c565b9050919050565b600061016083016000808401549050615de981615950565b615df660008701826147f5565b50600184018583036020870152615e0d8382615b0d565b925050600284018583036040870152615e268382615b0d565b92505060038401549050615e3981615b9a565b615e4660608701826148f4565b50615e5081615d5c565b615e5d608087018261493c565b50615e6781615d90565b615e7460a0870182614984565b50615e7e81615db7565b615e8b60c0870182614993565b5060048401549050615e9c81615bb4565b615ea960e0870182614993565b5060058401549050615eba81615bb4565b615ec8610100870182614993565b5060068401549050615ed981615950565b615ee76101208701826147f5565b5060078401858303610140870152615eff8382615b0d565b925050819250505092915050565b60006020820190508181036000830152615f278184615dd1565b905092915050565b7f4e487b7100000000000000000000000000000000000000000000000000000000600052603260045260246000fd5b6000615f69826145fe565b9150615f74836145fe565b9250827fffffffffffffffffffffffffffffffffffffffffffffffffffffffffffffffff03821115615fa957615fa8615a1f565b5b82820190509291505056fea2646970667358221220df3c7d25a32d2f2602245c87160ac6ce8d369eea2a8c788d8dc3a3195e20ce1464736f6c634300080b0033",
	"immutableReferences": {},
	"source": "// SPDX-License-Identifier: MIT\r\npragma solidity >=0.8.0 <0.9.0;\r\n\r\nimport \"./UserChain.sol\";\r\n\r\ncontract ProjectChain is UserChain {\r\n\r\n    constructor() {}\r\n\r\n    modifier onlyUserProject() {\r\n        require(Roles(users[msg.sender]._role) == Roles.UserProject, \"You are not the right user.\");\r\n        _;\r\n    }\r\n\r\n    modifier onlyUserProjectAndCompany() {\r\n        require(\r\n            Roles(users[msg.sender]._role) == Roles.UserProject || Roles(users[msg.sender]._role) == Roles.Company,\r\n            \"You are not the right user.\"\r\n        );\r\n        _;\r\n    }\r\n\r\n\r\n    mapping(address => Project) public projects;\r\n    uint256 public projectsCounter = 0;\r\n    address[] public projectsAddress;\r\n\r\n    function createUniqueProjectAddress(string memory _name, uint256 _index)\r\n        public view onlyUserProject returns (address)\r\n    {\r\n        return address(uint160(uint256(keccak256(abi.encodePacked(_name, msg.sender, _index)))));\r\n    }\r\n\r\n    function createProject(\r\n        address _projectAddress,\r\n        string memory _name,\r\n        uint256 _status,\r\n        string memory _ipfsFileCID,\r\n        string memory _signature\r\n    ) public onlyUserProject {\r\n        projects[_projectAddress] = Project(\r\n            projectsCounter,\r\n            _name,\r\n            ProjectStatus(_status),\r\n            _ipfsFileCID,\r\n            _projectAddress,\r\n            msg.sender,\r\n            address(0x0),\r\n            false,\r\n            block.timestamp,\r\n            _signature\r\n        );\r\n\r\n        emit ProjectEvent(projects[_projectAddress], _projectAddress, address(0x0));\r\n        projectsAddress.push(_projectAddress);\r\n        projectsCounter++;\r\n    }\r\n\r\n    function updateProject(\r\n        address _projectAddress,\r\n        string memory _ipfsFileCID,\r\n        string memory _signature\r\n    ) public onlyUserProject {\r\n        projects[_projectAddress]._ipfsFileCID = _ipfsFileCID;\r\n        projects[_projectAddress]._signature = _signature;\r\n\r\n        emit ProjectEvent(projects[_projectAddress], _projectAddress, address(0x0));\r\n    }\r\n\r\n    function getProjectInfo(address _address)\r\n        public view returns (Project memory)\r\n    {\r\n        if (users[msg.sender]._walletAddress != msg.sender) {\r\n            revert(\"You are not the right user.\");\r\n        }\r\n        return projects[_address];\r\n    }\r\n\r\n    function countUserProjects() internal view returns (uint256) {\r\n        uint256 numbers = 0;\r\n        for (uint256 index = 0; index < projectsCounter; index++) {\r\n            address _projectAddress = projectsAddress[index];\r\n            Project storage project = projects[_projectAddress];\r\n            if (users[msg.sender]._walletAddress == project._signerAddress) {\r\n                numbers += 1;\r\n            }\r\n        }\r\n        return numbers;\r\n    }\r\n\r\n    function getProjects()\r\n        public view onlyUserProjectAndCompany returns (Project[] memory)\r\n    {\r\n        Project[] memory allProjects;\r\n        uint256 projectsNumber = countUserProjects();\r\n        if (projectsNumber == 0) return allProjects;\r\n\r\n        allProjects = new Project[](projectsNumber);\r\n        for (uint256 index = 0; index < projectsCounter; index++) {\r\n            address _projectAddress = projectsAddress[index];\r\n            Project storage project = projects[_projectAddress];\r\n            if (users[msg.sender]._walletAddress == project._signerAddress) {\r\n                allProjects[index] = project;\r\n            }\r\n        }\r\n        return allProjects;\r\n    }\r\n\r\n\r\n    mapping(address => Request) public requests;\r\n    uint256 public requestsCounter = 0;\r\n    address[] public requestsAddress;\r\n\r\n    function createUniqueRequestAddress(string memory _title, uint256 _index)\r\n        public view returns (address)\r\n    {\r\n        require(users[msg.sender]._walletAddress == msg.sender, \"Address is not valid.\");\r\n        return address(uint160(uint256(keccak256(abi.encodePacked(_title, msg.sender, _index)))));\r\n    }\r\n\r\n    function createRequest(\r\n        string memory _title,\r\n        uint256 _projectStatus,\r\n        uint256 _requestStatus,\r\n        address _projectAddress,\r\n        address _requestAddress,\r\n        string memory _signature\r\n    ) public onlyUserProjectAndCompany {\r\n        RequestType _requestType = RequestType.SupervisorReq;\r\n        if (ProjectStatus(_projectStatus) == ProjectStatus.StartProject) {\r\n            _requestType = RequestType.CompanyReq;\r\n        }\r\n\r\n        requests[_requestAddress] = Request(\r\n            requestsCounter,\r\n            _title,\r\n            \"\",\r\n            ProjectStatus(_projectStatus),\r\n            RequestStatus(_requestStatus),\r\n            RequestType(_requestType),\r\n            _projectAddress,\r\n            _requestAddress,\r\n            msg.sender,\r\n            block.timestamp,\r\n            _signature\r\n        );\r\n\r\n        emit RequestEvent(requests[_requestAddress], _requestAddress, _projectAddress);\r\n        requestsAddress.push(_requestAddress);\r\n        requestsCounter++;\r\n    }\r\n\r\n    function updateSupervisorRequest(\r\n        string memory _comments,\r\n        uint256 _requestStatus,\r\n        uint256 _projectStatus,\r\n        address _projectAddress,\r\n        address _requestAddress,\r\n        string memory _signature\r\n    ) public {\r\n        require(Roles(users[msg.sender]._role) == Roles.Supervisor, \"You are not the right user.\");\r\n\r\n        // Update Requests Mapping and Struct Array\r\n        requests[_requestAddress]._comments = _comments;\r\n        requests[_requestAddress]._requestStatus = RequestStatus(_requestStatus);\r\n        requests[_requestAddress]._signature = _signature;\r\n        emit RequestEvent(requests[_requestAddress], _requestAddress, _projectAddress);\r\n\r\n        // Update Project Mapping and Struct Array\r\n        if (RequestStatus.Approved == RequestStatus(_requestStatus)) {\r\n            projects[_projectAddress]._status = ProjectStatus(_projectStatus);\r\n            emit ProjectEvent(projects[_projectAddress], _projectAddress, address(0x0));\r\n        }\r\n    }\r\n\r\n    function updateCompanyRequest(\r\n        string memory _comments,\r\n        uint256 _requestStatus,\r\n        uint256 _projectStatus,\r\n        address _projectAddress,\r\n        address _requestAddress,\r\n        string memory _signature\r\n    ) public {\r\n        require(Roles(users[msg.sender]._role) == Roles.Company, \"You are not the right user.\");\r\n\r\n        // Update Requests Mapping and Struct Array\r\n        requests[_requestAddress]._comments = _comments;\r\n        requests[_requestAddress]._requestStatus = RequestStatus(_requestStatus);\r\n        requests[_requestAddress]._signature = _signature;\r\n        emit RequestEvent(requests[_requestAddress], _requestAddress, _projectAddress);\r\n\r\n        // Update Project Mapping and Struct Array\r\n        if (RequestStatus.Approved == RequestStatus(_requestStatus)) {\r\n            projects[_projectAddress]._status = ProjectStatus(_projectStatus);\r\n            projects[_projectAddress]._companyAddress = msg.sender;\r\n            emit ProjectEvent(projects[_projectAddress], _projectAddress, msg.sender);\r\n        }\r\n    }\r\n\r\n    function getAllRequests() public view returns (Request[] memory) {\r\n        require(users[msg.sender]._walletAddress == msg.sender, \"Address is not valid.\");\r\n\r\n        Request[] memory allRequests = new Request[](requestsCounter);\r\n        for (uint256 index = 0; index < requestsCounter; index++) {\r\n            address _requestAddress = requestsAddress[index];\r\n            Request storage request = requests[_requestAddress];\r\n            allRequests[index] = request;\r\n        }\r\n        return allRequests;\r\n    }\r\n\r\n    function getLastProjectRequest(address _projectAddress, address _requestAddress) \r\n        public view onlyUserProjectAndCompany returns (Request memory)\r\n    {\r\n        Request memory request;\r\n        if (requestsCounter > 0) {\r\n            if (requests[_requestAddress]._projectAddress == _projectAddress) {\r\n                request = requests[_requestAddress];\r\n            }\r\n        }\r\n        return request;\r\n    }\r\n}\r\n",
	"sourcePath": "/mnt/c/Users/Beniamin/source/repos/DissertationProject/contracts/ProjectChain.sol",
	"compiler": {
		"name": "solc",
		"version": "0.8.11+commit.d7f03943.Emscripten.clang"
	},
	"schemaVersion": "3.4.3",
	"updatedAt": "2022-01-12T08:32:47.330Z",
	"networkType": "ethereum",
	"devdoc": {
		"kind": "dev",
		"methods": {},
		"version": 1
	},
	"userdoc": {
		"kind": "user",
		"methods": {},
		"version": 1
	}
}