{
  "contractName": "ServiceChain",
  "abi": [
    {
      "inputs": [],
      "stateMutability": "nonpayable",
      "type": "constructor"
    },
    {
      "inputs": [
        {
          "internalType": "uint256",
          "name": "",
          "type": "uint256"
        }
      ],
      "name": "projectStatus",
      "outputs": [
        {
          "internalType": "uint256",
          "name": "id",
          "type": "uint256"
        },
        {
          "internalType": "string",
          "name": "value",
          "type": "string"
        }
      ],
      "stateMutability": "view",
      "type": "function",
      "constant": true
    },
    {
      "inputs": [
        {
          "internalType": "uint256",
          "name": "",
          "type": "uint256"
        }
      ],
      "name": "requestStatus",
      "outputs": [
        {
          "internalType": "uint256",
          "name": "id",
          "type": "uint256"
        },
        {
          "internalType": "string",
          "name": "value",
          "type": "string"
        }
      ],
      "stateMutability": "view",
      "type": "function",
      "constant": true
    },
    {
      "inputs": [
        {
          "internalType": "uint256",
          "name": "",
          "type": "uint256"
        }
      ],
      "name": "requestStatusForm",
      "outputs": [
        {
          "internalType": "uint256",
          "name": "id",
          "type": "uint256"
        },
        {
          "internalType": "string",
          "name": "value",
          "type": "string"
        }
      ],
      "stateMutability": "view",
      "type": "function",
      "constant": true
    },
    {
      "inputs": [
        {
          "internalType": "uint256",
          "name": "",
          "type": "uint256"
        }
      ],
      "name": "requestType",
      "outputs": [
        {
          "internalType": "uint256",
          "name": "id",
          "type": "uint256"
        },
        {
          "internalType": "string",
          "name": "value",
          "type": "string"
        }
      ],
      "stateMutability": "view",
      "type": "function",
      "constant": true
    },
    {
      "inputs": [
        {
          "internalType": "uint256",
          "name": "",
          "type": "uint256"
        }
      ],
      "name": "userRole",
      "outputs": [
        {
          "internalType": "uint256",
          "name": "id",
          "type": "uint256"
        },
        {
          "internalType": "string",
          "name": "value",
          "type": "string"
        }
      ],
      "stateMutability": "view",
      "type": "function",
      "constant": true
    },
    {
      "inputs": [
        {
          "internalType": "uint256",
          "name": "_projectStatus",
          "type": "uint256"
        }
      ],
      "name": "checkPermissionUserProject",
      "outputs": [
        {
          "internalType": "bool",
          "name": "",
          "type": "bool"
        }
      ],
      "stateMutability": "view",
      "type": "function",
      "constant": true
    },
    {
      "inputs": [
        {
          "internalType": "uint256",
          "name": "_projectStatus",
          "type": "uint256"
        }
      ],
      "name": "checkPermissionCompany",
      "outputs": [
        {
          "internalType": "bool",
          "name": "",
          "type": "bool"
        }
      ],
      "stateMutability": "view",
      "type": "function",
      "constant": true
    },
    {
      "inputs": [],
      "name": "getAddressZeroValue",
      "outputs": [
        {
          "internalType": "string",
          "name": "",
          "type": "string"
        }
      ],
      "stateMutability": "pure",
      "type": "function",
      "constant": true
    },
    {
      "inputs": [],
      "name": "getAdminRole",
      "outputs": [
        {
          "internalType": "string",
          "name": "",
          "type": "string"
        }
      ],
      "stateMutability": "pure",
      "type": "function",
      "constant": true
    },
    {
      "inputs": [],
      "name": "getDefaultRole",
      "outputs": [
        {
          "internalType": "string",
          "name": "",
          "type": "string"
        }
      ],
      "stateMutability": "pure",
      "type": "function",
      "constant": true
    },
    {
      "inputs": [],
      "name": "getUserProjectRole",
      "outputs": [
        {
          "internalType": "string",
          "name": "",
          "type": "string"
        }
      ],
      "stateMutability": "pure",
      "type": "function",
      "constant": true
    },
    {
      "inputs": [],
      "name": "getCompanyRole",
      "outputs": [
        {
          "internalType": "string",
          "name": "",
          "type": "string"
        }
      ],
      "stateMutability": "pure",
      "type": "function",
      "constant": true
    },
    {
      "inputs": [],
      "name": "getSupervisorRole",
      "outputs": [
        {
          "internalType": "string",
          "name": "",
          "type": "string"
        }
      ],
      "stateMutability": "pure",
      "type": "function",
      "constant": true
    }
  ],
  "bytecode": "0x608060405234801561001057600080fd5b50610cda806100206000396000f3fe608060405234801561001057600080fd5b50600436106100cf5760003560e01c806350ac58921161008c5780636d8b2efa116100665780636d8b2efa14610252578063b3ecf23614610283578063bd3af6f1146102a1578063f66075df146102bf576100cf565b806350ac5892146101d257806358f6f52a14610203578063666a160514610221576100cf565b8063131cb2cf146100d457806317f7c8d0146101045780631a31320214610122578063264dfdb51461015357806326b5e4e01461018357806332cf3d55146101a1575b600080fd5b6100ee60048036038101906100e99190610a21565b6102dd565b6040516100fb9190610a69565b60405180910390f35b61010c6103e4565b6040516101199190610b1d565b60405180910390f35b61013c60048036038101906101379190610a21565b610404565b60405161014a929190610b4e565b60405180910390f35b61016d60048036038101906101689190610a21565b6104c0565b60405161017a9190610a69565b60405180910390f35b61018b6105c5565b6040516101989190610b1d565b60405180910390f35b6101bb60048036038101906101b69190610a21565b610602565b6040516101c9929190610b4e565b60405180910390f35b6101ec60048036038101906101e79190610a21565b6106be565b6040516101fa929190610b4e565b60405180910390f35b61020b61077a565b6040516102189190610b1d565b60405180910390f35b61023b60048036038101906102369190610a21565b6107b7565b604051610249929190610b4e565b60405180910390f35b61026c60048036038101906102679190610a21565b610873565b60405161027a929190610b4e565b60405180910390f35b61028b61092f565b6040516102989190610b1d565b60405180910390f35b6102a961096c565b6040516102b69190610b1d565b60405180910390f35b6102c76109a9565b6040516102d49190610b1d565b60405180910390f35b60003373ffffffffffffffffffffffffffffffffffffffff16600073ffffffffffffffffffffffffffffffffffffffff16141561034f576040517f08c379a000000000000000000000000000000000000000000000000000000000815260040161034690610bca565b60405180910390fd5b6000600481111561036357610362610bea565b5b82600481111561037657610375610bea565b5b600481111561038857610387610bea565b5b1415806103cc5750600160048111156103a4576103a3610bea565b5b8260048111156103b7576103b6610bea565b5b60048111156103c9576103c8610bea565b5b14155b156103da57600190506103df565b600090505b919050565b60606040518060600160405280602a8152602001610c7b602a9139905090565b6002818154811061041457600080fd5b906000526020600020906002020160009150905080600001549080600101805461043d90610c48565b80601f016020809104026020016040519081016040528092919081815260200182805461046990610c48565b80156104b65780601f1061048b576101008083540402835291602001916104b6565b820191906000526020600020905b81548152906001019060200180831161049957829003601f168201915b5050505050905082565b60003373ffffffffffffffffffffffffffffffffffffffff16600073ffffffffffffffffffffffffffffffffffffffff161415610532576040517f08c379a000000000000000000000000000000000000000000000000000000000815260040161052990610bca565b60405180910390fd5b6000600481111561054657610545610bea565b5b82600481111561055957610558610bea565b5b600481111561056b5761056a610bea565b5b14806105ad57506001600481111561058657610585610bea565b5b82600481111561059957610598610bea565b5b60048111156105ab576105aa610bea565b5b145b156105bb57600190506105c0565b600090505b919050565b60606040518060400160405280600b81526020017f44656661756c74526f6c65000000000000000000000000000000000000000000815250905090565b6004818154811061061257600080fd5b906000526020600020906002020160009150905080600001549080600101805461063b90610c48565b80601f016020809104026020016040519081016040528092919081815260200182805461066790610c48565b80156106b45780601f10610689576101008083540402835291602001916106b4565b820191906000526020600020905b81548152906001019060200180831161069757829003601f168201915b5050505050905082565b600381815481106106ce57600080fd5b90600052602060002090600202016000915090508060000154908060010180546106f790610c48565b80601f016020809104026020016040519081016040528092919081815260200182805461072390610c48565b80156107705780601f1061074557610100808354040283529160200191610770565b820191906000526020600020905b81548152906001019060200180831161075357829003601f168201915b5050505050905082565b60606040518060400160405280600b81526020017f5573657250726f6a656374000000000000000000000000000000000000000000815250905090565b600181815481106107c757600080fd5b90600052602060002090600202016000915090508060000154908060010180546107f090610c48565b80601f016020809104026020016040519081016040528092919081815260200182805461081c90610c48565b80156108695780601f1061083e57610100808354040283529160200191610869565b820191906000526020600020905b81548152906001019060200180831161084c57829003601f168201915b5050505050905082565b6000818154811061088357600080fd5b90600052602060002090600202016000915090508060000154908060010180546108ac90610c48565b80601f01602080910402602001604051908101604052809291908181526020018280546108d890610c48565b80156109255780601f106108fa57610100808354040283529160200191610925565b820191906000526020600020905b81548152906001019060200180831161090857829003601f168201915b5050505050905082565b60606040518060400160405280600b81526020017f41646d696e4d6967687479000000000000000000000000000000000000000000815250905090565b60606040518060400160405280600781526020017f436f6d70616e7900000000000000000000000000000000000000000000000000815250905090565b60606040518060400160405280600a81526020017f53757065727669736f7200000000000000000000000000000000000000000000815250905090565b600080fd5b6000819050919050565b6109fe816109eb565b8114610a0957600080fd5b50565b600081359050610a1b816109f5565b92915050565b600060208284031215610a3757610a366109e6565b5b6000610a4584828501610a0c565b91505092915050565b60008115159050919050565b610a6381610a4e565b82525050565b6000602082019050610a7e6000830184610a5a565b92915050565b600081519050919050565b600082825260208201905092915050565b60005b83811015610abe578082015181840152602081019050610aa3565b83811115610acd576000848401525b50505050565b6000601f19601f8301169050919050565b6000610aef82610a84565b610af98185610a8f565b9350610b09818560208601610aa0565b610b1281610ad3565b840191505092915050565b60006020820190508181036000830152610b378184610ae4565b905092915050565b610b48816109eb565b82525050565b6000604082019050610b636000830185610b3f565b8181036020830152610b758184610ae4565b90509392505050565b7f41646472657373206973206e6f742076616c69642e0000000000000000000000600082015250565b6000610bb4601583610a8f565b9150610bbf82610b7e565b602082019050919050565b60006020820190508181036000830152610be381610ba7565b9050919050565b7f4e487b7100000000000000000000000000000000000000000000000000000000600052602160045260246000fd5b7f4e487b7100000000000000000000000000000000000000000000000000000000600052602260045260246000fd5b60006002820490506001821680610c6057607f821691505b60208210811415610c7457610c73610c19565b5b5091905056fe307830303030303030303030303030303030303030303030303030303030303030303030303030303030a2646970667358221220b21161f28cc26fda9dc57e4ad60b747a203a23a352240216b8c1ab2acf0e9e2864736f6c634300080a0033",
  "immutableReferences": {},
  "source": "// SPDX-License-Identifier: MIT\r\npragma solidity >=0.8.0 <0.9.0;\r\n\r\ncontract ServiceChain {\r\n\r\n    enum ProjectStatus { Created, ToApprove, StartProject, FinalizationCheck, Completed }\r\n\r\n    struct Dropdown {\r\n        uint256 id;\r\n        string value;\r\n    }\r\n\r\n    Dropdown[] public requestType;\r\n    Dropdown[] public requestStatusForm;\r\n    Dropdown[] public requestStatus;\r\n    Dropdown[] public projectStatus;\r\n    Dropdown[] public userRole;\r\n\r\n    constructor() {}\r\n\r\n    modifier onlyOwner() {\r\n        require(address(0x0) == msg.sender, \"The address is not valid.\");\r\n        _;\r\n    }\r\n\r\n    function checkPermissionUserProject(uint256 _projectStatus) public view returns (bool) {\r\n        require(address(0x0) != msg.sender, \"Address is not valid.\");\r\n        if (\r\n            ProjectStatus(_projectStatus) == ProjectStatus.Created ||\r\n            ProjectStatus(_projectStatus) == ProjectStatus.ToApprove\r\n        ) {\r\n            return true;\r\n        }\r\n        return false;\r\n    }\r\n\r\n    function checkPermissionCompany(uint256 _projectStatus) public view returns (bool) {\r\n        require(address(0x0) != msg.sender, \"Address is not valid.\");\r\n        if (\r\n            ProjectStatus(_projectStatus) != ProjectStatus.Created ||\r\n            ProjectStatus(_projectStatus) != ProjectStatus.ToApprove\r\n        ) {\r\n            return true;\r\n        }\r\n        return false;\r\n    }\r\n\r\n    function getAddressZeroValue() public pure returns (string memory) {\r\n        return \"0x0000000000000000000000000000000000000000\";\r\n    }\r\n\r\n    function getAdminRole() public pure returns (string memory) {\r\n        return \"AdminMighty\";\r\n    }\r\n\r\n    function getDefaultRole() public pure returns (string memory) {\r\n        return \"DefaultRole\";\r\n    }\r\n\r\n    function getUserProjectRole() public pure returns (string memory) {\r\n        return \"UserProject\";\r\n    }\r\n\r\n    function getCompanyRole() public pure returns (string memory) {\r\n        return \"Company\";\r\n    }\r\n\r\n    function getSupervisorRole() public pure returns (string memory) {\r\n        return \"Supervisor\";\r\n    }\r\n\r\n\r\n    // function createDropdowns() public onlyOwner {\r\n    //     requestType.push(Dropdown(0, 'SupervisorReq'));\r\n    //     requestType.push(Dropdown(1, 'CompanyReq'));\r\n\r\n    //     requestStatusForm.push(Dropdown(1, 'Rejected'));\r\n    //     requestStatusForm.push(Dropdown(2, 'Approved'));\r\n\r\n    //     requestStatus.push(Dropdown(0, 'UnApproved'));\r\n    //     requestStatus.push(Dropdown(1, 'Rejected'));\r\n    //     requestStatus.push(Dropdown(2, 'Approved'));\r\n\r\n    //     projectStatus.push(Dropdown(0, 'Created'));\r\n    //     projectStatus.push(Dropdown(1, 'ToApprove'));\r\n    //     projectStatus.push(Dropdown(2, 'StartProject'));\r\n    //     projectStatus.push(Dropdown(3, 'FinalizationCheck'));\r\n    //     projectStatus.push(Dropdown(4, 'Completed'));\r\n\r\n    //     userRole.push(Dropdown(0, 'DefaultRole'));\r\n    //     userRole.push(Dropdown(1, 'UserProject'));\r\n    //     userRole.push(Dropdown(2, 'Company'));\r\n    //     userRole.push(Dropdown(3, 'Supervisor'));\r\n    // }\r\n\r\n    /** Methods: Check if Dropdown option exists */\r\n\r\n    // function checkRequestTypeDropdown(uint256 _id) public view onlyOwner returns (bool) {\r\n    //     for (uint256 index = 0; index < requestType.length; index++) {\r\n    //         if (requestType[index].id == _id) {\r\n    //             return true;\r\n    //         }\r\n    //     }\r\n    //     return false;\r\n    // }\r\n\r\n    // function checkRequestStatusFormDropdown(uint256 _id) public view onlyOwner returns (bool) {\r\n    //     for (uint256 index = 0; index < requestStatusForm.length; index++) {\r\n    //         if (requestStatusForm[index].id == _id) {\r\n    //             return true;\r\n    //         }\r\n    //     }\r\n    //     return false;\r\n    // }\r\n\r\n    // function checkRequestStatusDropdown(uint256 _id) public view onlyOwner returns (bool) {\r\n    //     for (uint256 index = 0; index < requestStatus.length; index++) {\r\n    //         if (requestStatus[index].id == _id) {\r\n    //             return true;\r\n    //         }\r\n    //     }\r\n    //     return false;\r\n    // }\r\n\r\n    // function checkProjectStatusDropdown(uint256 _id) public view onlyOwner returns (bool) {\r\n    //     for (uint256 index = 0; index < projectStatus.length; index++) {\r\n    //         if (projectStatus[index].id == _id) {\r\n    //             return true;\r\n    //         }\r\n    //     }\r\n    //     return false;\r\n    // }\r\n\r\n    // function checkUserRoleDropdown(uint256 _id) public view onlyOwner returns (bool) {\r\n    //     for (uint256 index = 0; index < userRole.length; index++) {\r\n    //         if (userRole[index].id == _id) {\r\n    //             return true;\r\n    //         }\r\n    //     }\r\n    //     return false;\r\n    // }\r\n\r\n    /** Get Dropdown[] Array */\r\n\r\n    // function getAllRequestTypeDropdown() public view onlyOwner returns (Dropdown[] memory) {\r\n    //     return requestType;\r\n    // }\r\n\r\n    // function getAllRequestStatusFormDropdown() public view onlyOwner returns (Dropdown[] memory) {\r\n    //     return requestStatusForm;\r\n    // }\r\n\r\n    // function getAllRequestStatusDropdown() public view onlyOwner returns (Dropdown[] memory) {\r\n    //     return requestStatus;\r\n    // }\r\n\r\n    // function getAllProjectStatusDropdown() public view onlyOwner returns (Dropdown[] memory) {\r\n    //     return projectStatus;\r\n    // }\r\n\r\n    // function getAllUserRoleDropdown() public view onlyOwner returns (Dropdown[] memory) {\r\n    //     return userRole;\r\n    // }\r\n\r\n\r\n    /*** Methods for Dropdowns */\r\n\r\n    // function getCompletedProjectStatus() public view onlyOwner returns(Dropdown memory) {\r\n    //     Dropdown memory typeData;\r\n    //     typeData = Dropdown(4, 'Completed');\r\n    //     return typeData;\r\n    // }\r\n\r\n    // function getSupervisorRequestType() public view onlyOwner returns(Dropdown memory) {\r\n    //     Dropdown memory typeData;\r\n    //     typeData = Dropdown(0, 'SupervisorReq');\r\n    //     return typeData;\r\n    // }\r\n\r\n    // function getCompanyRequestType() public view onlyOwner returns(Dropdown memory) {\r\n    //     Dropdown memory typeData;\r\n    //     typeData = Dropdown(1, 'CompanyReq');\r\n    //     return typeData;\r\n    // }\r\n\r\n    // function getDefaultProjectStatus() public view onlyOwner returns(Dropdown memory) {\r\n    //     Dropdown memory typeData;\r\n    //     typeData = Dropdown(0, 'Created');\r\n    //     return typeData;\r\n    // }\r\n\r\n    // function getDefaultRequestStatus() public view onlyOwner returns(Dropdown memory) {\r\n    //     Dropdown memory typeData;\r\n    //     typeData = Dropdown(0, 'UnApproved');\r\n    //     return typeData;\r\n    // }\r\n\r\n    /*** Dropdowns */\r\n\r\n    // function getRequestTypeDropdown() public view onlyOwner returns(Dropdown[] memory) {\r\n    //     Dropdown[] memory data = new Dropdown[](2);\r\n    //     data[0] = Dropdown(0, 'SupervisorReq');\r\n    //     data[1] = Dropdown(1, 'CompanyReq');\r\n    //     return data;\r\n    // }\r\n\r\n    // function getRequestStatusFormDropdown() public view onlyOwner returns(Dropdown[] memory) {\r\n    //     Dropdown[] memory data = new Dropdown[](2);\r\n    //     data[0] = Dropdown(1, 'Rejected');\r\n    //     data[1] = Dropdown(2, 'Approved');\r\n    //     return data;\r\n    // }\r\n\r\n    // function getRequestStatusDropdown() public view onlyOwner returns(Dropdown[] memory) {\r\n    //     Dropdown[] memory data = new Dropdown[](3);\r\n    //     data[0] = Dropdown(0, 'UnApproved');\r\n    //     data[1] = Dropdown(1, 'Rejected');\r\n    //     data[2] = Dropdown(2, 'Approved');\r\n    //     return data;\r\n    // }\r\n\r\n    // function getProjectStatusDropdown() public view onlyOwner returns(Dropdown[] memory) {\r\n    //     Dropdown[] memory data = new Dropdown[](5);\r\n    //     data[0] = Dropdown(0, 'Created');\r\n    //     data[1] = Dropdown(1, 'ToApprove');\r\n    //     data[2] = Dropdown(2, 'StartProject');\r\n    //     data[3] = Dropdown(3, 'FinalizationCheck');\r\n    //     data[4] = Dropdown(4, 'Completed');\r\n    //     return data;\r\n    // }\r\n\r\n    // function getUserRoleDropdown() public view onlyOwner returns(Dropdown[] memory) {\r\n    //     Dropdown[] memory data = new Dropdown[](4);\r\n    //     data[0] = Dropdown(0, 'DefaultRole');\r\n    //     data[1] = Dropdown(1, 'UserProject');\r\n    //     data[2] = Dropdown(2, 'Company');\r\n    //     data[3] = Dropdown(3, 'Supervisor');\r\n    //     return data;\r\n    // }\r\n}\r\n",
  "sourcePath": "/mnt/c/Users/Beniamin/source/repos/DissertationProject/contracts/ServiceChain.sol",
  "compiler": {
    "name": "solc",
    "version": "0.8.10+commit.fc410830.Emscripten.clang"
  },
  "schemaVersion": "3.4.3",
  "updatedAt": "2021-12-13T08:25:06.084Z",
  "networkType": "ethereum",
  "devdoc": {
    "kind": "dev",
    "methods": {},
    "version": 1
  },
  "userdoc": {
    "kind": "user",
    "methods": {},
    "version": 1
  }
}