{
  "contractName": "ServiceChain",
  "abi": [
    {
      "inputs": [],
      "stateMutability": "nonpayable",
      "type": "constructor"
    },
    {
      "inputs": [
        {
          "internalType": "uint256",
          "name": "",
          "type": "uint256"
        }
      ],
      "name": "projectStatus",
      "outputs": [
        {
          "internalType": "uint256",
          "name": "id",
          "type": "uint256"
        },
        {
          "internalType": "string",
          "name": "value",
          "type": "string"
        }
      ],
      "stateMutability": "view",
      "type": "function",
      "constant": true
    },
    {
      "inputs": [
        {
          "internalType": "uint256",
          "name": "",
          "type": "uint256"
        }
      ],
      "name": "requestStatus",
      "outputs": [
        {
          "internalType": "uint256",
          "name": "id",
          "type": "uint256"
        },
        {
          "internalType": "string",
          "name": "value",
          "type": "string"
        }
      ],
      "stateMutability": "view",
      "type": "function",
      "constant": true
    },
    {
      "inputs": [
        {
          "internalType": "uint256",
          "name": "",
          "type": "uint256"
        }
      ],
      "name": "requestStatusForm",
      "outputs": [
        {
          "internalType": "uint256",
          "name": "id",
          "type": "uint256"
        },
        {
          "internalType": "string",
          "name": "value",
          "type": "string"
        }
      ],
      "stateMutability": "view",
      "type": "function",
      "constant": true
    },
    {
      "inputs": [
        {
          "internalType": "uint256",
          "name": "",
          "type": "uint256"
        }
      ],
      "name": "requestType",
      "outputs": [
        {
          "internalType": "uint256",
          "name": "id",
          "type": "uint256"
        },
        {
          "internalType": "string",
          "name": "value",
          "type": "string"
        }
      ],
      "stateMutability": "view",
      "type": "function",
      "constant": true
    },
    {
      "inputs": [
        {
          "internalType": "uint256",
          "name": "",
          "type": "uint256"
        }
      ],
      "name": "userRole",
      "outputs": [
        {
          "internalType": "uint256",
          "name": "id",
          "type": "uint256"
        },
        {
          "internalType": "string",
          "name": "value",
          "type": "string"
        }
      ],
      "stateMutability": "view",
      "type": "function",
      "constant": true
    },
    {
      "inputs": [],
      "name": "getAddressZeroValue",
      "outputs": [
        {
          "internalType": "string",
          "name": "",
          "type": "string"
        }
      ],
      "stateMutability": "pure",
      "type": "function",
      "constant": true
    },
    {
      "inputs": [],
      "name": "getAdminRole",
      "outputs": [
        {
          "internalType": "string",
          "name": "",
          "type": "string"
        }
      ],
      "stateMutability": "pure",
      "type": "function",
      "constant": true
    },
    {
      "inputs": [],
      "name": "getDefaultRole",
      "outputs": [
        {
          "internalType": "string",
          "name": "",
          "type": "string"
        }
      ],
      "stateMutability": "pure",
      "type": "function",
      "constant": true
    },
    {
      "inputs": [],
      "name": "getUserProjectRole",
      "outputs": [
        {
          "internalType": "string",
          "name": "",
          "type": "string"
        }
      ],
      "stateMutability": "pure",
      "type": "function",
      "constant": true
    },
    {
      "inputs": [],
      "name": "getCompanyRole",
      "outputs": [
        {
          "internalType": "string",
          "name": "",
          "type": "string"
        }
      ],
      "stateMutability": "pure",
      "type": "function",
      "constant": true
    },
    {
      "inputs": [],
      "name": "getSupervisorRole",
      "outputs": [
        {
          "internalType": "string",
          "name": "",
          "type": "string"
        }
      ],
      "stateMutability": "pure",
      "type": "function",
      "constant": true
    }
  ],
  "bytecode": "0x608060405234801561001057600080fd5b50610977806100206000396000f3fe608060405234801561001057600080fd5b50600436106100a95760003560e01c806358f6f52a1161007157806358f6f52a1461017d578063666a16051461019b5780636d8b2efa146101cc578063b3ecf236146101fd578063bd3af6f11461021b578063f66075df14610239576100a9565b806317f7c8d0146100ae5780631a313202146100cc57806326b5e4e0146100fd57806332cf3d551461011b57806350ac58921461014c575b600080fd5b6100b6610257565b6040516100c391906107ed565b60405180910390f35b6100e660048036038101906100e1919061084a565b610277565b6040516100f4929190610886565b60405180910390f35b610105610333565b60405161011291906107ed565b60405180910390f35b6101356004803603810190610130919061084a565b610370565b604051610143929190610886565b60405180910390f35b6101666004803603810190610161919061084a565b61042c565b604051610174929190610886565b60405180910390f35b6101856104e8565b60405161019291906107ed565b60405180910390f35b6101b560048036038101906101b0919061084a565b610525565b6040516101c3929190610886565b60405180910390f35b6101e660048036038101906101e1919061084a565b6105e1565b6040516101f4929190610886565b60405180910390f35b61020561069d565b60405161021291906107ed565b60405180910390f35b6102236106da565b60405161023091906107ed565b60405180910390f35b610241610717565b60405161024e91906107ed565b60405180910390f35b60606040518060600160405280602a8152602001610918602a9139905090565b6002818154811061028757600080fd5b90600052602060002090600202016000915090508060000154908060010180546102b0906108e5565b80601f01602080910402602001604051908101604052809291908181526020018280546102dc906108e5565b80156103295780601f106102fe57610100808354040283529160200191610329565b820191906000526020600020905b81548152906001019060200180831161030c57829003601f168201915b5050505050905082565b60606040518060400160405280600b81526020017f44656661756c74526f6c65000000000000000000000000000000000000000000815250905090565b6004818154811061038057600080fd5b90600052602060002090600202016000915090508060000154908060010180546103a9906108e5565b80601f01602080910402602001604051908101604052809291908181526020018280546103d5906108e5565b80156104225780601f106103f757610100808354040283529160200191610422565b820191906000526020600020905b81548152906001019060200180831161040557829003601f168201915b5050505050905082565b6003818154811061043c57600080fd5b9060005260206000209060020201600091509050806000015490806001018054610465906108e5565b80601f0160208091040260200160405190810160405280929190818152602001828054610491906108e5565b80156104de5780601f106104b3576101008083540402835291602001916104de565b820191906000526020600020905b8154815290600101906020018083116104c157829003601f168201915b5050505050905082565b60606040518060400160405280600b81526020017f5573657250726f6a656374000000000000000000000000000000000000000000815250905090565b6001818154811061053557600080fd5b906000526020600020906002020160009150905080600001549080600101805461055e906108e5565b80601f016020809104026020016040519081016040528092919081815260200182805461058a906108e5565b80156105d75780601f106105ac576101008083540402835291602001916105d7565b820191906000526020600020905b8154815290600101906020018083116105ba57829003601f168201915b5050505050905082565b600081815481106105f157600080fd5b906000526020600020906002020160009150905080600001549080600101805461061a906108e5565b80601f0160208091040260200160405190810160405280929190818152602001828054610646906108e5565b80156106935780601f1061066857610100808354040283529160200191610693565b820191906000526020600020905b81548152906001019060200180831161067657829003601f168201915b5050505050905082565b60606040518060400160405280600b81526020017f41646d696e4d6967687479000000000000000000000000000000000000000000815250905090565b60606040518060400160405280600781526020017f436f6d70616e7900000000000000000000000000000000000000000000000000815250905090565b60606040518060400160405280600a81526020017f53757065727669736f7200000000000000000000000000000000000000000000815250905090565b600081519050919050565b600082825260208201905092915050565b60005b8381101561078e578082015181840152602081019050610773565b8381111561079d576000848401525b50505050565b6000601f19601f8301169050919050565b60006107bf82610754565b6107c9818561075f565b93506107d9818560208601610770565b6107e2816107a3565b840191505092915050565b6000602082019050818103600083015261080781846107b4565b905092915050565b600080fd5b6000819050919050565b61082781610814565b811461083257600080fd5b50565b6000813590506108448161081e565b92915050565b6000602082840312156108605761085f61080f565b5b600061086e84828501610835565b91505092915050565b61088081610814565b82525050565b600060408201905061089b6000830185610877565b81810360208301526108ad81846107b4565b90509392505050565b7f4e487b7100000000000000000000000000000000000000000000000000000000600052602260045260246000fd5b600060028204905060018216806108fd57607f821691505b60208210811415610911576109106108b6565b5b5091905056fe307830303030303030303030303030303030303030303030303030303030303030303030303030303030a264697066735822122024f4e6aea6dd277e1d656f3bd5051677793cb0950c0113a878b95e49f63598b464736f6c634300080a0033",
  "immutableReferences": {},
  "source": "// SPDX-License-Identifier: MIT\r\npragma solidity >=0.8.0 <0.9.0;\r\n\r\ncontract ServiceChain {\r\n\r\n    struct Dropdown {\r\n        uint256 id;\r\n        string value;\r\n    }\r\n\r\n    Dropdown[] public requestType;\r\n    Dropdown[] public requestStatusForm;\r\n    Dropdown[] public requestStatus;\r\n    Dropdown[] public projectStatus;\r\n    Dropdown[] public userRole;\r\n\r\n    constructor() {}\r\n\r\n    modifier onlyOwner() {\r\n        require(address(0x0) == msg.sender, \"The address is not valid.\");\r\n        _;\r\n    }\r\n\r\n    function getAddressZeroValue() public pure returns (string memory) {\r\n        return \"0x0000000000000000000000000000000000000000\";\r\n    }\r\n\r\n    function getAdminRole() public pure returns (string memory) {\r\n        return \"AdminMighty\";\r\n    }\r\n\r\n    function getDefaultRole() public pure returns (string memory) {\r\n        return \"DefaultRole\";\r\n    }\r\n\r\n    function getUserProjectRole() public pure returns (string memory) {\r\n        return \"UserProject\";\r\n    }\r\n\r\n    function getCompanyRole() public pure returns (string memory) {\r\n        return \"Company\";\r\n    }\r\n\r\n    function getSupervisorRole() public pure returns (string memory) {\r\n        return \"Supervisor\";\r\n    }\r\n\r\n\r\n    // function createDropdowns() public onlyOwner {\r\n    //     requestType.push(Dropdown(0, 'SupervisorReq'));\r\n    //     requestType.push(Dropdown(1, 'CompanyReq'));\r\n\r\n    //     requestStatusForm.push(Dropdown(1, 'Rejected'));\r\n    //     requestStatusForm.push(Dropdown(2, 'Approved'));\r\n\r\n    //     requestStatus.push(Dropdown(0, 'UnApproved'));\r\n    //     requestStatus.push(Dropdown(1, 'Rejected'));\r\n    //     requestStatus.push(Dropdown(2, 'Approved'));\r\n\r\n    //     projectStatus.push(Dropdown(0, 'Created'));\r\n    //     projectStatus.push(Dropdown(1, 'ToApprove'));\r\n    //     projectStatus.push(Dropdown(2, 'StartProject'));\r\n    //     projectStatus.push(Dropdown(3, 'FinalizationCheck'));\r\n    //     projectStatus.push(Dropdown(4, 'Completed'));\r\n\r\n    //     userRole.push(Dropdown(0, 'DefaultRole'));\r\n    //     userRole.push(Dropdown(1, 'UserProject'));\r\n    //     userRole.push(Dropdown(2, 'Company'));\r\n    //     userRole.push(Dropdown(3, 'Supervisor'));\r\n    // }\r\n\r\n    /** Methods: Check if Dropdown option exists */\r\n\r\n    // function checkRequestTypeDropdown(uint256 _id) public view onlyOwner returns (bool) {\r\n    //     for (uint256 index = 0; index < requestType.length; index++) {\r\n    //         if (requestType[index].id == _id) {\r\n    //             return true;\r\n    //         }\r\n    //     }\r\n    //     return false;\r\n    // }\r\n\r\n    // function checkRequestStatusFormDropdown(uint256 _id) public view onlyOwner returns (bool) {\r\n    //     for (uint256 index = 0; index < requestStatusForm.length; index++) {\r\n    //         if (requestStatusForm[index].id == _id) {\r\n    //             return true;\r\n    //         }\r\n    //     }\r\n    //     return false;\r\n    // }\r\n\r\n    // function checkRequestStatusDropdown(uint256 _id) public view onlyOwner returns (bool) {\r\n    //     for (uint256 index = 0; index < requestStatus.length; index++) {\r\n    //         if (requestStatus[index].id == _id) {\r\n    //             return true;\r\n    //         }\r\n    //     }\r\n    //     return false;\r\n    // }\r\n\r\n    // function checkProjectStatusDropdown(uint256 _id) public view onlyOwner returns (bool) {\r\n    //     for (uint256 index = 0; index < projectStatus.length; index++) {\r\n    //         if (projectStatus[index].id == _id) {\r\n    //             return true;\r\n    //         }\r\n    //     }\r\n    //     return false;\r\n    // }\r\n\r\n    // function checkUserRoleDropdown(uint256 _id) public view onlyOwner returns (bool) {\r\n    //     for (uint256 index = 0; index < userRole.length; index++) {\r\n    //         if (userRole[index].id == _id) {\r\n    //             return true;\r\n    //         }\r\n    //     }\r\n    //     return false;\r\n    // }\r\n\r\n    /** Get Dropdown[] Array */\r\n\r\n    // function getAllRequestTypeDropdown() public view onlyOwner returns (Dropdown[] memory) {\r\n    //     return requestType;\r\n    // }\r\n\r\n    // function getAllRequestStatusFormDropdown() public view onlyOwner returns (Dropdown[] memory) {\r\n    //     return requestStatusForm;\r\n    // }\r\n\r\n    // function getAllRequestStatusDropdown() public view onlyOwner returns (Dropdown[] memory) {\r\n    //     return requestStatus;\r\n    // }\r\n\r\n    // function getAllProjectStatusDropdown() public view onlyOwner returns (Dropdown[] memory) {\r\n    //     return projectStatus;\r\n    // }\r\n\r\n    // function getAllUserRoleDropdown() public view onlyOwner returns (Dropdown[] memory) {\r\n    //     return userRole;\r\n    // }\r\n\r\n\r\n    /*** Methods for Dropdowns */\r\n\r\n    // function getCompletedProjectStatus() public view onlyOwner returns(Dropdown memory) {\r\n    //     Dropdown memory typeData;\r\n    //     typeData = Dropdown(4, 'Completed');\r\n    //     return typeData;\r\n    // }\r\n\r\n    // function getSupervisorRequestType() public view onlyOwner returns(Dropdown memory) {\r\n    //     Dropdown memory typeData;\r\n    //     typeData = Dropdown(0, 'SupervisorReq');\r\n    //     return typeData;\r\n    // }\r\n\r\n    // function getCompanyRequestType() public view onlyOwner returns(Dropdown memory) {\r\n    //     Dropdown memory typeData;\r\n    //     typeData = Dropdown(1, 'CompanyReq');\r\n    //     return typeData;\r\n    // }\r\n\r\n    // function getDefaultProjectStatus() public view onlyOwner returns(Dropdown memory) {\r\n    //     Dropdown memory typeData;\r\n    //     typeData = Dropdown(0, 'Created');\r\n    //     return typeData;\r\n    // }\r\n\r\n    // function getDefaultRequestStatus() public view onlyOwner returns(Dropdown memory) {\r\n    //     Dropdown memory typeData;\r\n    //     typeData = Dropdown(0, 'UnApproved');\r\n    //     return typeData;\r\n    // }\r\n\r\n    /*** Dropdowns */\r\n\r\n    // function getRequestTypeDropdown() public view onlyOwner returns(Dropdown[] memory) {\r\n    //     Dropdown[] memory data = new Dropdown[](2);\r\n    //     data[0] = Dropdown(0, 'SupervisorReq');\r\n    //     data[1] = Dropdown(1, 'CompanyReq');\r\n    //     return data;\r\n    // }\r\n\r\n    // function getRequestStatusFormDropdown() public view onlyOwner returns(Dropdown[] memory) {\r\n    //     Dropdown[] memory data = new Dropdown[](2);\r\n    //     data[0] = Dropdown(1, 'Rejected');\r\n    //     data[1] = Dropdown(2, 'Approved');\r\n    //     return data;\r\n    // }\r\n\r\n    // function getRequestStatusDropdown() public view onlyOwner returns(Dropdown[] memory) {\r\n    //     Dropdown[] memory data = new Dropdown[](3);\r\n    //     data[0] = Dropdown(0, 'UnApproved');\r\n    //     data[1] = Dropdown(1, 'Rejected');\r\n    //     data[2] = Dropdown(2, 'Approved');\r\n    //     return data;\r\n    // }\r\n\r\n    // function getProjectStatusDropdown() public view onlyOwner returns(Dropdown[] memory) {\r\n    //     Dropdown[] memory data = new Dropdown[](5);\r\n    //     data[0] = Dropdown(0, 'Created');\r\n    //     data[1] = Dropdown(1, 'ToApprove');\r\n    //     data[2] = Dropdown(2, 'StartProject');\r\n    //     data[3] = Dropdown(3, 'FinalizationCheck');\r\n    //     data[4] = Dropdown(4, 'Completed');\r\n    //     return data;\r\n    // }\r\n\r\n    // function getUserRoleDropdown() public view onlyOwner returns(Dropdown[] memory) {\r\n    //     Dropdown[] memory data = new Dropdown[](4);\r\n    //     data[0] = Dropdown(0, 'DefaultRole');\r\n    //     data[1] = Dropdown(1, 'UserProject');\r\n    //     data[2] = Dropdown(2, 'Company');\r\n    //     data[3] = Dropdown(3, 'Supervisor');\r\n    //     return data;\r\n    // }\r\n}\r\n",
  "sourcePath": "/mnt/c/Users/Beniamin/source/repos/DissertationProject/contracts/ServiceChain.sol",
  "compiler": {
    "name": "solc",
    "version": "0.8.10+commit.fc410830.Emscripten.clang"
  },
  "schemaVersion": "3.4.3",
  "updatedAt": "2021-12-11T19:08:00.682Z",
  "networkType": "ethereum",
  "devdoc": {
    "kind": "dev",
    "methods": {},
    "version": 1
  },
  "userdoc": {
    "kind": "user",
    "methods": {},
    "version": 1
  }
}