{
  "contractName": "ServiceChain",
  "abi": [
    {
      "inputs": [],
      "stateMutability": "nonpayable",
      "type": "constructor"
    },
    {
      "inputs": [
        {
          "internalType": "uint256",
          "name": "",
          "type": "uint256"
        }
      ],
      "name": "projectStatus",
      "outputs": [
        {
          "internalType": "uint256",
          "name": "id",
          "type": "uint256"
        },
        {
          "internalType": "string",
          "name": "value",
          "type": "string"
        }
      ],
      "stateMutability": "view",
      "type": "function",
      "constant": true
    },
    {
      "inputs": [
        {
          "internalType": "uint256",
          "name": "",
          "type": "uint256"
        }
      ],
      "name": "requestStatus",
      "outputs": [
        {
          "internalType": "uint256",
          "name": "id",
          "type": "uint256"
        },
        {
          "internalType": "string",
          "name": "value",
          "type": "string"
        }
      ],
      "stateMutability": "view",
      "type": "function",
      "constant": true
    },
    {
      "inputs": [
        {
          "internalType": "uint256",
          "name": "",
          "type": "uint256"
        }
      ],
      "name": "requestStatusForm",
      "outputs": [
        {
          "internalType": "uint256",
          "name": "id",
          "type": "uint256"
        },
        {
          "internalType": "string",
          "name": "value",
          "type": "string"
        }
      ],
      "stateMutability": "view",
      "type": "function",
      "constant": true
    },
    {
      "inputs": [
        {
          "internalType": "uint256",
          "name": "",
          "type": "uint256"
        }
      ],
      "name": "requestType",
      "outputs": [
        {
          "internalType": "uint256",
          "name": "id",
          "type": "uint256"
        },
        {
          "internalType": "string",
          "name": "value",
          "type": "string"
        }
      ],
      "stateMutability": "view",
      "type": "function",
      "constant": true
    },
    {
      "inputs": [
        {
          "internalType": "uint256",
          "name": "",
          "type": "uint256"
        }
      ],
      "name": "userRole",
      "outputs": [
        {
          "internalType": "uint256",
          "name": "id",
          "type": "uint256"
        },
        {
          "internalType": "string",
          "name": "value",
          "type": "string"
        }
      ],
      "stateMutability": "view",
      "type": "function",
      "constant": true
    },
    {
      "inputs": [],
      "name": "createDropdowns",
      "outputs": [],
      "stateMutability": "nonpayable",
      "type": "function"
    },
    {
      "inputs": [
        {
          "internalType": "uint256",
          "name": "_id",
          "type": "uint256"
        }
      ],
      "name": "checkRequestTypeDropdown",
      "outputs": [
        {
          "internalType": "bool",
          "name": "",
          "type": "bool"
        }
      ],
      "stateMutability": "view",
      "type": "function",
      "constant": true
    },
    {
      "inputs": [
        {
          "internalType": "uint256",
          "name": "_id",
          "type": "uint256"
        }
      ],
      "name": "checkRequestStatusFormDropdown",
      "outputs": [
        {
          "internalType": "bool",
          "name": "",
          "type": "bool"
        }
      ],
      "stateMutability": "view",
      "type": "function",
      "constant": true
    },
    {
      "inputs": [
        {
          "internalType": "uint256",
          "name": "_id",
          "type": "uint256"
        }
      ],
      "name": "checkRequestStatusDropdown",
      "outputs": [
        {
          "internalType": "bool",
          "name": "",
          "type": "bool"
        }
      ],
      "stateMutability": "view",
      "type": "function",
      "constant": true
    },
    {
      "inputs": [
        {
          "internalType": "uint256",
          "name": "_id",
          "type": "uint256"
        }
      ],
      "name": "checkProjectStatusDropdown",
      "outputs": [
        {
          "internalType": "bool",
          "name": "",
          "type": "bool"
        }
      ],
      "stateMutability": "view",
      "type": "function",
      "constant": true
    },
    {
      "inputs": [
        {
          "internalType": "uint256",
          "name": "_id",
          "type": "uint256"
        }
      ],
      "name": "checkUserRoleDropdown",
      "outputs": [
        {
          "internalType": "bool",
          "name": "",
          "type": "bool"
        }
      ],
      "stateMutability": "view",
      "type": "function",
      "constant": true
    },
    {
      "inputs": [],
      "name": "getAllRequestTypeDropdown",
      "outputs": [
        {
          "components": [
            {
              "internalType": "uint256",
              "name": "id",
              "type": "uint256"
            },
            {
              "internalType": "string",
              "name": "value",
              "type": "string"
            }
          ],
          "internalType": "struct ServiceChain.Dropdown[]",
          "name": "",
          "type": "tuple[]"
        }
      ],
      "stateMutability": "view",
      "type": "function",
      "constant": true
    },
    {
      "inputs": [],
      "name": "getAllRequestStatusFormDropdown",
      "outputs": [
        {
          "components": [
            {
              "internalType": "uint256",
              "name": "id",
              "type": "uint256"
            },
            {
              "internalType": "string",
              "name": "value",
              "type": "string"
            }
          ],
          "internalType": "struct ServiceChain.Dropdown[]",
          "name": "",
          "type": "tuple[]"
        }
      ],
      "stateMutability": "view",
      "type": "function",
      "constant": true
    },
    {
      "inputs": [],
      "name": "getAllRequestStatusDropdown",
      "outputs": [
        {
          "components": [
            {
              "internalType": "uint256",
              "name": "id",
              "type": "uint256"
            },
            {
              "internalType": "string",
              "name": "value",
              "type": "string"
            }
          ],
          "internalType": "struct ServiceChain.Dropdown[]",
          "name": "",
          "type": "tuple[]"
        }
      ],
      "stateMutability": "view",
      "type": "function",
      "constant": true
    },
    {
      "inputs": [],
      "name": "getAllProjectStatusDropdown",
      "outputs": [
        {
          "components": [
            {
              "internalType": "uint256",
              "name": "id",
              "type": "uint256"
            },
            {
              "internalType": "string",
              "name": "value",
              "type": "string"
            }
          ],
          "internalType": "struct ServiceChain.Dropdown[]",
          "name": "",
          "type": "tuple[]"
        }
      ],
      "stateMutability": "view",
      "type": "function",
      "constant": true
    },
    {
      "inputs": [],
      "name": "getAllUserRoleDropdown",
      "outputs": [
        {
          "components": [
            {
              "internalType": "uint256",
              "name": "id",
              "type": "uint256"
            },
            {
              "internalType": "string",
              "name": "value",
              "type": "string"
            }
          ],
          "internalType": "struct ServiceChain.Dropdown[]",
          "name": "",
          "type": "tuple[]"
        }
      ],
      "stateMutability": "view",
      "type": "function",
      "constant": true
    },
    {
      "inputs": [],
      "name": "getAddressZero",
      "outputs": [
        {
          "internalType": "string",
          "name": "",
          "type": "string"
        }
      ],
      "stateMutability": "pure",
      "type": "function",
      "constant": true
    },
    {
      "inputs": [],
      "name": "getCompletedProjectStatus",
      "outputs": [
        {
          "components": [
            {
              "internalType": "uint256",
              "name": "id",
              "type": "uint256"
            },
            {
              "internalType": "string",
              "name": "value",
              "type": "string"
            }
          ],
          "internalType": "struct ServiceChain.Dropdown",
          "name": "",
          "type": "tuple"
        }
      ],
      "stateMutability": "pure",
      "type": "function",
      "constant": true
    },
    {
      "inputs": [],
      "name": "getSupervisorRequestType",
      "outputs": [
        {
          "components": [
            {
              "internalType": "uint256",
              "name": "id",
              "type": "uint256"
            },
            {
              "internalType": "string",
              "name": "value",
              "type": "string"
            }
          ],
          "internalType": "struct ServiceChain.Dropdown",
          "name": "",
          "type": "tuple"
        }
      ],
      "stateMutability": "pure",
      "type": "function",
      "constant": true
    },
    {
      "inputs": [],
      "name": "getCompanyRequestType",
      "outputs": [
        {
          "components": [
            {
              "internalType": "uint256",
              "name": "id",
              "type": "uint256"
            },
            {
              "internalType": "string",
              "name": "value",
              "type": "string"
            }
          ],
          "internalType": "struct ServiceChain.Dropdown",
          "name": "",
          "type": "tuple"
        }
      ],
      "stateMutability": "pure",
      "type": "function",
      "constant": true
    },
    {
      "inputs": [],
      "name": "getDefaultProjectStatus",
      "outputs": [
        {
          "components": [
            {
              "internalType": "uint256",
              "name": "id",
              "type": "uint256"
            },
            {
              "internalType": "string",
              "name": "value",
              "type": "string"
            }
          ],
          "internalType": "struct ServiceChain.Dropdown",
          "name": "",
          "type": "tuple"
        }
      ],
      "stateMutability": "pure",
      "type": "function",
      "constant": true
    },
    {
      "inputs": [],
      "name": "getDefaultRequestStatus",
      "outputs": [
        {
          "components": [
            {
              "internalType": "uint256",
              "name": "id",
              "type": "uint256"
            },
            {
              "internalType": "string",
              "name": "value",
              "type": "string"
            }
          ],
          "internalType": "struct ServiceChain.Dropdown",
          "name": "",
          "type": "tuple"
        }
      ],
      "stateMutability": "pure",
      "type": "function",
      "constant": true
    },
    {
      "inputs": [],
      "name": "getRequestTypeDropdown",
      "outputs": [
        {
          "components": [
            {
              "internalType": "uint256",
              "name": "id",
              "type": "uint256"
            },
            {
              "internalType": "string",
              "name": "value",
              "type": "string"
            }
          ],
          "internalType": "struct ServiceChain.Dropdown[]",
          "name": "",
          "type": "tuple[]"
        }
      ],
      "stateMutability": "pure",
      "type": "function",
      "constant": true
    },
    {
      "inputs": [],
      "name": "getRequestStatusFormDropdown",
      "outputs": [
        {
          "components": [
            {
              "internalType": "uint256",
              "name": "id",
              "type": "uint256"
            },
            {
              "internalType": "string",
              "name": "value",
              "type": "string"
            }
          ],
          "internalType": "struct ServiceChain.Dropdown[]",
          "name": "",
          "type": "tuple[]"
        }
      ],
      "stateMutability": "pure",
      "type": "function",
      "constant": true
    },
    {
      "inputs": [],
      "name": "getRequestStatusDropdown",
      "outputs": [
        {
          "components": [
            {
              "internalType": "uint256",
              "name": "id",
              "type": "uint256"
            },
            {
              "internalType": "string",
              "name": "value",
              "type": "string"
            }
          ],
          "internalType": "struct ServiceChain.Dropdown[]",
          "name": "",
          "type": "tuple[]"
        }
      ],
      "stateMutability": "pure",
      "type": "function",
      "constant": true
    },
    {
      "inputs": [],
      "name": "getProjectStatusDropdown",
      "outputs": [
        {
          "components": [
            {
              "internalType": "uint256",
              "name": "id",
              "type": "uint256"
            },
            {
              "internalType": "string",
              "name": "value",
              "type": "string"
            }
          ],
          "internalType": "struct ServiceChain.Dropdown[]",
          "name": "",
          "type": "tuple[]"
        }
      ],
      "stateMutability": "pure",
      "type": "function",
      "constant": true
    },
    {
      "inputs": [],
      "name": "getUserRoleDropdown",
      "outputs": [
        {
          "components": [
            {
              "internalType": "uint256",
              "name": "id",
              "type": "uint256"
            },
            {
              "internalType": "string",
              "name": "value",
              "type": "string"
            }
          ],
          "internalType": "struct ServiceChain.Dropdown[]",
          "name": "",
          "type": "tuple[]"
        }
      ],
      "stateMutability": "pure",
      "type": "function",
      "constant": true
    }
  ],
  "bytecode": "0x608060405234801561001057600080fd5b50612a77806100206000396000f3fe608060405234801561001057600080fd5b50600436106101a95760003560e01c806370137630116100f9578063d12a340711610097578063ecad862811610071578063ecad862814610505578063f548a90c14610523578063f7ed4b5014610541578063fedb72491461055f576101a9565b8063d12a340714610487578063d4ca97a8146104b7578063d8d2aa9e146104d5576101a9565b8063b6f67058116100d3578063b6f67058146103eb578063bc53a7941461041b578063c0f00c1114610439578063c4d297b714610469576101a9565b80637013763014610391578063757c0044146103af57806389ebabb1146103cd576101a9565b8063405a14eb11610166578063629700d411610140578063629700d4146102e15780636593f21d14610311578063666a16051461032f5780636d8b2efa14610360576101a9565b8063405a14eb146102745780634e4beccd1461029257806350ac5892146102b0576101a9565b806309b7a17c146101ae5780630fffee8b146101cc5780631a313202146101d657806332cf3d551461020757806337e3bffe146102385780633b8197fb14610256575b600080fd5b6101b661057d565b6040516101c39190612720565b60405180910390f35b6101d4610678565b005b6101f060048036038101906101eb9190612773565b61106a565b6040516101fe9291906127f9565b60405180910390f35b610221600480360381019061021c9190612773565b611126565b60405161022f9291906127f9565b60405180910390f35b6102406111e2565b60405161024d9190612720565b60405180910390f35b61025e6112dd565b60405161026b9190612720565b60405180910390f35b61027c611551565b6040516102899190612720565b60405180910390f35b61029a61164c565b6040516102a79190612866565b60405180910390f35b6102ca60048036038101906102c59190612773565b6116b0565b6040516102d89291906127f9565b60405180910390f35b6102fb60048036038101906102f69190612773565b61176c565b60405161030891906128a3565b60405180910390f35b6103196117d6565b6040516103269190612720565b60405180910390f35b61034960048036038101906103449190612773565b6118d1565b6040516103579291906127f9565b60405180910390f35b61037a60048036038101906103759190612773565b61198d565b6040516103889291906127f9565b60405180910390f35b610399611a49565b6040516103a69190612866565b60405180910390f35b6103b7611aad565b6040516103c49190612720565b60405180910390f35b6103d5611be3565b6040516103e29190612866565b60405180910390f35b61040560048036038101906104009190612773565b611c47565b60405161041291906128a3565b60405180910390f35b610423611cb1565b60405161043091906128be565b60405180910390f35b610453600480360381019061044e9190612773565b611cd1565b60405161046091906128a3565b60405180910390f35b610471611d3b565b60405161047e9190612720565b60405180910390f35b6104a1600480360381019061049c9190612773565b611f45565b6040516104ae91906128a3565b60405180910390f35b6104bf611faf565b6040516104cc9190612866565b60405180910390f35b6104ef60048036038101906104ea9190612773565b612013565b6040516104fc91906128a3565b60405180910390f35b61050d61207d565b60405161051a9190612720565b60405180910390f35b61052b61221d565b6040516105389190612866565b60405180910390f35b610549612281565b6040516105569190612720565b60405180910390f35b61056761237c565b6040516105749190612720565b60405180910390f35b60606000805480602002602001604051908101604052809291908181526020016000905b8282101561066f5783829060005260206000209060020201604051806040016040529081600082015481526020016001820180546105de9061290f565b80601f016020809104026020016040519081016040528092919081815260200182805461060a9061290f565b80156106575780601f1061062c57610100808354040283529160200191610657565b820191906000526020600020905b81548152906001019060200180831161063a57829003601f168201915b505050505081525050815260200190600101906105a1565b50505050905090565b60006040518060400160405280600081526020016040518060400160405280600d81526020017f53757065727669736f725265710000000000000000000000000000000000000081525081525090806001815401808255809150506001900390600052602060002090600202016000909190919091506000820151816000015560208201518160010190805190602001906107149291906124b2565b50505060006040518060400160405280600181526020016040518060400160405280600a81526020017f436f6d70616e795265710000000000000000000000000000000000000000000081525081525090806001815401808255809150506001900390600052602060002090600202016000909190919091506000820151816000015560208201518160010190805190602001906107b39291906124b2565b50505060016040518060400160405280600181526020016040518060400160405280600881526020017f52656a656374656400000000000000000000000000000000000000000000000081525081525090806001815401808255809150506001900390600052602060002090600202016000909190919091506000820151816000015560208201518160010190805190602001906108529291906124b2565b50505060016040518060400160405280600281526020016040518060400160405280600881526020017f417070726f76656400000000000000000000000000000000000000000000000081525081525090806001815401808255809150506001900390600052602060002090600202016000909190919091506000820151816000015560208201518160010190805190602001906108f19291906124b2565b50505060026040518060400160405280600081526020016040518060400160405280600a81526020017f556e417070726f7665640000000000000000000000000000000000000000000081525081525090806001815401808255809150506001900390600052602060002090600202016000909190919091506000820151816000015560208201518160010190805190602001906109909291906124b2565b50505060026040518060400160405280600181526020016040518060400160405280600881526020017f52656a65637465640000000000000000000000000000000000000000000000008152508152509080600181540180825580915050600190039060005260206000209060020201600090919091909150600082015181600001556020820151816001019080519060200190610a2f9291906124b2565b50505060026040518060400160405280600281526020016040518060400160405280600881526020017f417070726f7665640000000000000000000000000000000000000000000000008152508152509080600181540180825580915050600190039060005260206000209060020201600090919091909150600082015181600001556020820151816001019080519060200190610ace9291906124b2565b50505060036040518060400160405280600081526020016040518060400160405280600781526020017f43726561746564000000000000000000000000000000000000000000000000008152508152509080600181540180825580915050600190039060005260206000209060020201600090919091909150600082015181600001556020820151816001019080519060200190610b6d9291906124b2565b50505060036040518060400160405280600181526020016040518060400160405280600981526020017f546f417070726f766500000000000000000000000000000000000000000000008152508152509080600181540180825580915050600190039060005260206000209060020201600090919091909150600082015181600001556020820151816001019080519060200190610c0c9291906124b2565b50505060036040518060400160405280600281526020016040518060400160405280600c81526020017f537461727450726f6a65637400000000000000000000000000000000000000008152508152509080600181540180825580915050600190039060005260206000209060020201600090919091909150600082015181600001556020820151816001019080519060200190610cab9291906124b2565b50505060036040518060400160405280600381526020016040518060400160405280601181526020017f46696e616c697a6174696f6e436865636b0000000000000000000000000000008152508152509080600181540180825580915050600190039060005260206000209060020201600090919091909150600082015181600001556020820151816001019080519060200190610d4a9291906124b2565b50505060036040518060400160405280600481526020016040518060400160405280600981526020017f436f6d706c6574656400000000000000000000000000000000000000000000008152508152509080600181540180825580915050600190039060005260206000209060020201600090919091909150600082015181600001556020820151816001019080519060200190610de99291906124b2565b50505060046040518060400160405280600081526020016040518060400160405280600b81526020017f44656661756c74526f6c650000000000000000000000000000000000000000008152508152509080600181540180825580915050600190039060005260206000209060020201600090919091909150600082015181600001556020820151816001019080519060200190610e889291906124b2565b50505060046040518060400160405280600181526020016040518060400160405280601081526020017f50726f6a656374496e69746961746f72000000000000000000000000000000008152508152509080600181540180825580915050600190039060005260206000209060020201600090919091909150600082015181600001556020820151816001019080519060200190610f279291906124b2565b50505060046040518060400160405280600281526020016040518060400160405280600e81526020017f436f6d70616e794275696c6465720000000000000000000000000000000000008152508152509080600181540180825580915050600190039060005260206000209060020201600090919091909150600082015181600001556020820151816001019080519060200190610fc69291906124b2565b50505060046040518060400160405280600381526020016040518060400160405280601181526020017f50726f6a65637453757065727669736f7200000000000000000000000000000081525081525090806001815401808255809150506001900390600052602060002090600202016000909190919091506000820151816000015560208201518160010190805190602001906110659291906124b2565b505050565b6002818154811061107a57600080fd5b90600052602060002090600202016000915090508060000154908060010180546110a39061290f565b80601f01602080910402602001604051908101604052809291908181526020018280546110cf9061290f565b801561111c5780601f106110f15761010080835404028352916020019161111c565b820191906000526020600020905b8154815290600101906020018083116110ff57829003601f168201915b5050505050905082565b6004818154811061113657600080fd5b906000526020600020906002020160009150905080600001549080600101805461115f9061290f565b80601f016020809104026020016040519081016040528092919081815260200182805461118b9061290f565b80156111d85780601f106111ad576101008083540402835291602001916111d8565b820191906000526020600020905b8154815290600101906020018083116111bb57829003601f168201915b5050505050905082565b60606002805480602002602001604051908101604052809291908181526020016000905b828210156112d45783829060005260206000209060020201604051806040016040529081600082015481526020016001820180546112439061290f565b80601f016020809104026020016040519081016040528092919081815260200182805461126f9061290f565b80156112bc5780601f10611291576101008083540402835291602001916112bc565b820191906000526020600020905b81548152906001019060200180831161129f57829003601f168201915b50505050508152505081526020019060010190611206565b50505050905090565b60606000600567ffffffffffffffff8111156112fc576112fb612941565b5b60405190808252806020026020018201604052801561133557816020015b611322612538565b81526020019060019003908161131a5790505b5090506040518060400160405280600081526020016040518060400160405280600781526020017f43726561746564000000000000000000000000000000000000000000000000008152508152508160008151811061139757611396612970565b5b60200260200101819052506040518060400160405280600181526020016040518060400160405280600981526020017f546f417070726f766500000000000000000000000000000000000000000000008152508152508160018151811061140157611400612970565b5b60200260200101819052506040518060400160405280600281526020016040518060400160405280600c81526020017f537461727450726f6a65637400000000000000000000000000000000000000008152508152508160028151811061146b5761146a612970565b5b60200260200101819052506040518060400160405280600381526020016040518060400160405280601181526020017f46696e616c697a6174696f6e436865636b000000000000000000000000000000815250815250816003815181106114d5576114d4612970565b5b60200260200101819052506040518060400160405280600481526020016040518060400160405280600981526020017f436f6d706c6574656400000000000000000000000000000000000000000000008152508152508160048151811061153f5761153e612970565b5b60200260200101819052508091505090565b60606003805480602002602001604051908101604052809291908181526020016000905b828210156116435783829060005260206000209060020201604051806040016040529081600082015481526020016001820180546115b29061290f565b80601f01602080910402602001604051908101604052809291908181526020018280546115de9061290f565b801561162b5780601f106116005761010080835404028352916020019161162b565b820191906000526020600020905b81548152906001019060200180831161160e57829003601f168201915b50505050508152505081526020019060010190611575565b50505050905090565b611654612538565b61165c612538565b6040518060400160405280600081526020016040518060400160405280600781526020017f437265617465640000000000000000000000000000000000000000000000000081525081525090508091505090565b600381815481106116c057600080fd5b90600052602060002090600202016000915090508060000154908060010180546116e99061290f565b80601f01602080910402602001604051908101604052809291908181526020018280546117159061290f565b80156117625780601f1061173757610100808354040283529160200191611762565b820191906000526020600020905b81548152906001019060200180831161174557829003601f168201915b5050505050905082565b600080600090505b6004805490508110156117cb57826004828154811061179657611795612970565b5b90600052602060002090600202016000015414156117b85760019150506117d1565b80806117c3906129ce565b915050611774565b50600090505b919050565b60606004805480602002602001604051908101604052809291908181526020016000905b828210156118c85783829060005260206000209060020201604051806040016040529081600082015481526020016001820180546118379061290f565b80601f01602080910402602001604051908101604052809291908181526020018280546118639061290f565b80156118b05780601f10611885576101008083540402835291602001916118b0565b820191906000526020600020905b81548152906001019060200180831161189357829003601f168201915b505050505081525050815260200190600101906117fa565b50505050905090565b600181815481106118e157600080fd5b906000526020600020906002020160009150905080600001549080600101805461190a9061290f565b80601f01602080910402602001604051908101604052809291908181526020018280546119369061290f565b80156119835780601f1061195857610100808354040283529160200191611983565b820191906000526020600020905b81548152906001019060200180831161196657829003601f168201915b5050505050905082565b6000818154811061199d57600080fd5b90600052602060002090600202016000915090508060000154908060010180546119c69061290f565b80601f01602080910402602001604051908101604052809291908181526020018280546119f29061290f565b8015611a3f5780601f10611a1457610100808354040283529160200191611a3f565b820191906000526020600020905b815481529060010190602001808311611a2257829003601f168201915b5050505050905082565b611a51612538565b611a59612538565b6040518060400160405280600181526020016040518060400160405280600a81526020017f436f6d70616e795265710000000000000000000000000000000000000000000081525081525090508091505090565b60606000600267ffffffffffffffff811115611acc57611acb612941565b5b604051908082528060200260200182016040528015611b0557816020015b611af2612538565b815260200190600190039081611aea5790505b5090506040518060400160405280600081526020016040518060400160405280600d81526020017f53757065727669736f725265710000000000000000000000000000000000000081525081525081600081518110611b6757611b66612970565b5b60200260200101819052506040518060400160405280600181526020016040518060400160405280600a81526020017f436f6d70616e795265710000000000000000000000000000000000000000000081525081525081600181518110611bd157611bd0612970565b5b60200260200101819052508091505090565b611beb612538565b611bf3612538565b6040518060400160405280600081526020016040518060400160405280600d81526020017f53757065727669736f725265710000000000000000000000000000000000000081525081525090508091505090565b600080600090505b600080549050811015611ca6578260008281548110611c7157611c70612970565b5b9060005260206000209060020201600001541415611c93576001915050611cac565b8080611c9e906129ce565b915050611c4f565b50600090505b919050565b60606040518060600160405280602a8152602001612a18602a9139905090565b600080600090505b600280549050811015611d30578260028281548110611cfb57611cfa612970565b5b9060005260206000209060020201600001541415611d1d576001915050611d36565b8080611d28906129ce565b915050611cd9565b50600090505b919050565b60606000600467ffffffffffffffff811115611d5a57611d59612941565b5b604051908082528060200260200182016040528015611d9357816020015b611d80612538565b815260200190600190039081611d785790505b5090506040518060400160405280600081526020016040518060400160405280600b81526020017f44656661756c74526f6c6500000000000000000000000000000000000000000081525081525081600081518110611df557611df4612970565b5b60200260200101819052506040518060400160405280600181526020016040518060400160405280601081526020017f50726f6a656374496e69746961746f720000000000000000000000000000000081525081525081600181518110611e5f57611e5e612970565b5b60200260200101819052506040518060400160405280600281526020016040518060400160405280600e81526020017f436f6d70616e794275696c64657200000000000000000000000000000000000081525081525081600281518110611ec957611ec8612970565b5b60200260200101819052506040518060400160405280600381526020016040518060400160405280601181526020017f50726f6a65637453757065727669736f7200000000000000000000000000000081525081525081600381518110611f3357611f32612970565b5b60200260200101819052508091505090565b600080600090505b600180549050811015611fa4578260018281548110611f6f57611f6e612970565b5b9060005260206000209060020201600001541415611f91576001915050611faa565b8080611f9c906129ce565b915050611f4d565b50600090505b919050565b611fb7612538565b611fbf612538565b6040518060400160405280600081526020016040518060400160405280600a81526020017f556e417070726f7665640000000000000000000000000000000000000000000081525081525090508091505090565b600080600090505b60038054905081101561207257826003828154811061203d5761203c612970565b5b906000526020600020906002020160000154141561205f576001915050612078565b808061206a906129ce565b91505061201b565b50600090505b919050565b60606000600367ffffffffffffffff81111561209c5761209b612941565b5b6040519080825280602002602001820160405280156120d557816020015b6120c2612538565b8152602001906001900390816120ba5790505b5090506040518060400160405280600081526020016040518060400160405280600a81526020017f556e417070726f766564000000000000000000000000000000000000000000008152508152508160008151811061213757612136612970565b5b60200260200101819052506040518060400160405280600181526020016040518060400160405280600881526020017f52656a6563746564000000000000000000000000000000000000000000000000815250815250816001815181106121a1576121a0612970565b5b60200260200101819052506040518060400160405280600281526020016040518060400160405280600881526020017f417070726f7665640000000000000000000000000000000000000000000000008152508152508160028151811061220b5761220a612970565b5b60200260200101819052508091505090565b612225612538565b61222d612538565b6040518060400160405280600481526020016040518060400160405280600981526020017f436f6d706c65746564000000000000000000000000000000000000000000000081525081525090508091505090565b60606001805480602002602001604051908101604052809291908181526020016000905b828210156123735783829060005260206000209060020201604051806040016040529081600082015481526020016001820180546122e29061290f565b80601f016020809104026020016040519081016040528092919081815260200182805461230e9061290f565b801561235b5780601f106123305761010080835404028352916020019161235b565b820191906000526020600020905b81548152906001019060200180831161233e57829003601f168201915b505050505081525050815260200190600101906122a5565b50505050905090565b60606000600267ffffffffffffffff81111561239b5761239a612941565b5b6040519080825280602002602001820160405280156123d457816020015b6123c1612538565b8152602001906001900390816123b95790505b5090506040518060400160405280600181526020016040518060400160405280600881526020017f52656a65637465640000000000000000000000000000000000000000000000008152508152508160008151811061243657612435612970565b5b60200260200101819052506040518060400160405280600281526020016040518060400160405280600881526020017f417070726f766564000000000000000000000000000000000000000000000000815250815250816001815181106124a05761249f612970565b5b60200260200101819052508091505090565b8280546124be9061290f565b90600052602060002090601f0160209004810192826124e05760008555612527565b82601f106124f957805160ff1916838001178555612527565b82800160010185558215612527579182015b8281111561252657825182559160200191906001019061250b565b5b5090506125349190612552565b5090565b604051806040016040528060008152602001606081525090565b5b8082111561256b576000816000905550600101612553565b5090565b600081519050919050565b600082825260208201905092915050565b6000819050602082019050919050565b6000819050919050565b6125ae8161259b565b82525050565b600081519050919050565b600082825260208201905092915050565b60005b838110156125ee5780820151818401526020810190506125d3565b838111156125fd576000848401525b50505050565b6000601f19601f8301169050919050565b600061261f826125b4565b61262981856125bf565b93506126398185602086016125d0565b61264281612603565b840191505092915050565b600060408301600083015161266560008601826125a5565b506020830151848203602086015261267d8282612614565b9150508091505092915050565b6000612696838361264d565b905092915050565b6000602082019050919050565b60006126b68261256f565b6126c0818561257a565b9350836020820285016126d28561258b565b8060005b8581101561270e57848403895281516126ef858261268a565b94506126fa8361269e565b925060208a019950506001810190506126d6565b50829750879550505050505092915050565b6000602082019050818103600083015261273a81846126ab565b905092915050565b600080fd5b6127508161259b565b811461275b57600080fd5b50565b60008135905061276d81612747565b92915050565b60006020828403121561278957612788612742565b5b60006127978482850161275e565b91505092915050565b6127a98161259b565b82525050565b600082825260208201905092915050565b60006127cb826125b4565b6127d581856127af565b93506127e58185602086016125d0565b6127ee81612603565b840191505092915050565b600060408201905061280e60008301856127a0565b818103602083015261282081846127c0565b90509392505050565b600060408301600083015161284160008601826125a5565b50602083015184820360208601526128598282612614565b9150508091505092915050565b600060208201905081810360008301526128808184612829565b905092915050565b60008115159050919050565b61289d81612888565b82525050565b60006020820190506128b86000830184612894565b92915050565b600060208201905081810360008301526128d881846127c0565b905092915050565b7f4e487b7100000000000000000000000000000000000000000000000000000000600052602260045260246000fd5b6000600282049050600182168061292757607f821691505b6020821081141561293b5761293a6128e0565b5b50919050565b7f4e487b7100000000000000000000000000000000000000000000000000000000600052604160045260246000fd5b7f4e487b7100000000000000000000000000000000000000000000000000000000600052603260045260246000fd5b7f4e487b7100000000000000000000000000000000000000000000000000000000600052601160045260246000fd5b60006129d98261259b565b91507fffffffffffffffffffffffffffffffffffffffffffffffffffffffffffffffff821415612a0c57612a0b61299f565b5b60018201905091905056fe307830303030303030303030303030303030303030303030303030303030303030303030303030303030a2646970667358221220fc558b49e30f3ed515d738414e60bb3c67c749bece11d79b745efe0cfa6a273864736f6c634300080a0033",
  "immutableReferences": {},
  "source": "// SPDX-License-Identifier: MIT\r\npragma solidity >=0.8.0 <0.9.0;\r\n\r\ncontract ServiceChain {\r\n\r\n    struct Dropdown {\r\n        uint id;\r\n        string value;\r\n    }\r\n\r\n    Dropdown[] public requestType;\r\n    Dropdown[] public requestStatusForm;\r\n    Dropdown[] public requestStatus;\r\n    Dropdown[] public projectStatus;\r\n    Dropdown[] public userRole;\r\n\r\n    constructor() {}\r\n\r\n    function createDropdowns() public {\r\n        requestType.push(Dropdown(0, 'SupervisorReq'));\r\n        requestType.push(Dropdown(1, 'CompanyReq'));\r\n\r\n        requestStatusForm.push(Dropdown(1, 'Rejected'));\r\n        requestStatusForm.push(Dropdown(2, 'Approved'));\r\n\r\n        requestStatus.push(Dropdown(0, 'UnApproved'));\r\n        requestStatus.push(Dropdown(1, 'Rejected'));\r\n        requestStatus.push(Dropdown(2, 'Approved'));\r\n\r\n        projectStatus.push(Dropdown(0, 'Created'));\r\n        projectStatus.push(Dropdown(1, 'ToApprove'));\r\n        projectStatus.push(Dropdown(2, 'StartProject'));\r\n        projectStatus.push(Dropdown(3, 'FinalizationCheck'));\r\n        projectStatus.push(Dropdown(4, 'Completed'));\r\n\r\n        userRole.push(Dropdown(0, 'DefaultRole'));\r\n        userRole.push(Dropdown(1, 'ProjectInitiator'));\r\n        userRole.push(Dropdown(2, 'CompanyBuilder'));\r\n        userRole.push(Dropdown(3, 'ProjectSupervisor'));\r\n    }\r\n\r\n    /** Methods: Check if Dropdown option exists */\r\n\r\n    function checkRequestTypeDropdown(uint _id) public view returns (bool) {\r\n        for (uint index = 0; index < requestType.length; index++) {\r\n            if (requestType[index].id == _id) {\r\n                return true;\r\n            }\r\n        }\r\n        return false;\r\n    }\r\n\r\n    function checkRequestStatusFormDropdown(uint _id) public view returns (bool) {\r\n        for (uint index = 0; index < requestStatusForm.length; index++) {\r\n            if (requestStatusForm[index].id == _id) {\r\n                return true;\r\n            }\r\n        }\r\n        return false;\r\n    }\r\n\r\n    function checkRequestStatusDropdown(uint _id) public view returns (bool) {\r\n        for (uint index = 0; index < requestStatus.length; index++) {\r\n            if (requestStatus[index].id == _id) {\r\n                return true;\r\n            }\r\n        }\r\n        return false;\r\n    }\r\n\r\n    function checkProjectStatusDropdown(uint _id) public view returns (bool) {\r\n        for (uint index = 0; index < projectStatus.length; index++) {\r\n            if (projectStatus[index].id == _id) {\r\n                return true;\r\n            }\r\n        }\r\n        return false;\r\n    }\r\n\r\n    function checkUserRoleDropdown(uint _id) public view returns (bool) {\r\n        for (uint index = 0; index < userRole.length; index++) {\r\n            if (userRole[index].id == _id) {\r\n                return true;\r\n            }\r\n        }\r\n        return false;\r\n    }\r\n\r\n\r\n    /** Get Dropdown[] Array */\r\n\r\n    function getAllRequestTypeDropdown() public view returns (Dropdown[] memory) {\r\n        return requestType;\r\n    }\r\n\r\n    function getAllRequestStatusFormDropdown() public view returns (Dropdown[] memory) {\r\n        return requestStatusForm;\r\n    }\r\n\r\n    function getAllRequestStatusDropdown() public view returns (Dropdown[] memory) {\r\n        return requestStatus;\r\n    }\r\n\r\n    function getAllProjectStatusDropdown() public view returns (Dropdown[] memory) {\r\n        return projectStatus;\r\n    }\r\n\r\n    function getAllUserRoleDropdown() public view returns (Dropdown[] memory) {\r\n        return userRole;\r\n    }\r\n\r\n\r\n    /** Return Address with value 0 */\r\n    function getAddressZero() public pure returns(string memory) {\r\n        return \"0x0000000000000000000000000000000000000000\";\r\n    }\r\n\r\n    /*** Methods for Dropdowns */\r\n\r\n    function getCompletedProjectStatus() public pure returns(Dropdown memory) {\r\n        Dropdown memory typeData;\r\n        typeData = Dropdown(4, 'Completed');\r\n        return typeData;\r\n    }\r\n\r\n    function getSupervisorRequestType() public pure returns(Dropdown memory) {\r\n        Dropdown memory typeData;\r\n        typeData = Dropdown(0, 'SupervisorReq');\r\n        return typeData;\r\n    }\r\n\r\n    function getCompanyRequestType() public pure returns(Dropdown memory) {\r\n        Dropdown memory typeData;\r\n        typeData = Dropdown(1, 'CompanyReq');\r\n        return typeData;\r\n    }\r\n\r\n    function getDefaultProjectStatus() public pure returns(Dropdown memory) {\r\n        Dropdown memory typeData;\r\n        typeData = Dropdown(0, 'Created');\r\n        return typeData;\r\n    }\r\n\r\n    function getDefaultRequestStatus() public pure returns(Dropdown memory) {\r\n        Dropdown memory typeData;\r\n        typeData = Dropdown(0, 'UnApproved');\r\n        return typeData;\r\n    }\r\n\r\n    /*** Dropdowns */\r\n\r\n    function getRequestTypeDropdown() public pure returns(Dropdown[] memory) {\r\n        Dropdown[] memory data = new Dropdown[](2);\r\n        data[0] = Dropdown(0, 'SupervisorReq');\r\n        data[1] = Dropdown(1, 'CompanyReq');\r\n        return data;\r\n    }\r\n\r\n    function getRequestStatusFormDropdown() public pure returns(Dropdown[] memory) {\r\n        Dropdown[] memory data = new Dropdown[](2);\r\n        data[0] = Dropdown(1, 'Rejected');\r\n        data[1] = Dropdown(2, 'Approved');\r\n        return data;\r\n    }\r\n\r\n    function getRequestStatusDropdown() public pure returns(Dropdown[] memory) {\r\n        Dropdown[] memory data = new Dropdown[](3);\r\n        data[0] = Dropdown(0, 'UnApproved');\r\n        data[1] = Dropdown(1, 'Rejected');\r\n        data[2] = Dropdown(2, 'Approved');\r\n        return data;\r\n    }\r\n\r\n    function getProjectStatusDropdown() public pure returns(Dropdown[] memory) {\r\n        Dropdown[] memory data = new Dropdown[](5);\r\n        data[0] = Dropdown(0, 'Created');\r\n        data[1] = Dropdown(1, 'ToApprove');\r\n        data[2] = Dropdown(2, 'StartProject');\r\n        data[3] = Dropdown(3, 'FinalizationCheck');\r\n        data[4] = Dropdown(4, 'Completed');\r\n        return data;\r\n    }\r\n\r\n    function getUserRoleDropdown() public pure returns(Dropdown[] memory) {\r\n        Dropdown[] memory data = new Dropdown[](4);\r\n        data[0] = Dropdown(0, 'DefaultRole');\r\n        data[1] = Dropdown(1, 'ProjectInitiator');\r\n        data[2] = Dropdown(2, 'CompanyBuilder');\r\n        data[3] = Dropdown(3, 'ProjectSupervisor');\r\n        return data;\r\n    }\r\n}\r\n",
  "sourcePath": "/mnt/c/Users/Beniamin/source/repos/DissertationProject/contracts/ServiceChain.sol",
  "compiler": {
    "name": "solc",
    "version": "0.8.10+commit.fc410830.Emscripten.clang"
  },
  "schemaVersion": "3.4.3",
  "updatedAt": "2021-12-04T09:08:24.500Z",
  "networkType": "ethereum",
  "devdoc": {
    "kind": "dev",
    "methods": {},
    "version": 1
  },
  "userdoc": {
    "kind": "user",
    "methods": {
      "checkRequestTypeDropdown(uint256)": {
        "notice": "Methods: Check if Dropdown option exists "
      },
      "getAddressZero()": {
        "notice": "Return Address with value 0 "
      },
      "getAllRequestTypeDropdown()": {
        "notice": "Get Dropdown[] Array "
      }
    },
    "version": 1
  }
}