{
  "contractName": "ServiceChain",
  "abi": [
    {
      "inputs": [],
      "stateMutability": "nonpayable",
      "type": "constructor"
    },
    {
      "anonymous": false,
      "inputs": [
        {
          "components": [
            {
              "internalType": "uint256",
              "name": "_index",
              "type": "uint256"
            },
            {
              "internalType": "string",
              "name": "_name",
              "type": "string"
            },
            {
              "internalType": "enum SharedChain.ProjectStatus",
              "name": "_status",
              "type": "uint8"
            },
            {
              "internalType": "string",
              "name": "_ipfsFileCID",
              "type": "string"
            },
            {
              "internalType": "address",
              "name": "_projectAddress",
              "type": "address"
            },
            {
              "internalType": "address",
              "name": "_signerAddress",
              "type": "address"
            },
            {
              "internalType": "address",
              "name": "_companyAddress",
              "type": "address"
            },
            {
              "internalType": "bool",
              "name": "_assigned",
              "type": "bool"
            },
            {
              "internalType": "uint256",
              "name": "_timestamp",
              "type": "uint256"
            },
            {
              "internalType": "string",
              "name": "_signature",
              "type": "string"
            }
          ],
          "indexed": false,
          "internalType": "struct SharedChain.Project",
          "name": "_project",
          "type": "tuple"
        },
        {
          "indexed": true,
          "internalType": "address",
          "name": "_projectAddress",
          "type": "address"
        },
        {
          "indexed": true,
          "internalType": "address",
          "name": "_companyAddress",
          "type": "address"
        }
      ],
      "name": "ProjectEvent",
      "type": "event"
    },
    {
      "anonymous": false,
      "inputs": [
        {
          "components": [
            {
              "internalType": "uint256",
              "name": "_index",
              "type": "uint256"
            },
            {
              "internalType": "string",
              "name": "_title",
              "type": "string"
            },
            {
              "internalType": "string",
              "name": "_comments",
              "type": "string"
            },
            {
              "internalType": "enum SharedChain.ProjectStatus",
              "name": "_projectStatus",
              "type": "uint8"
            },
            {
              "internalType": "enum SharedChain.RequestStatus",
              "name": "_requestStatus",
              "type": "uint8"
            },
            {
              "internalType": "enum SharedChain.RequestType",
              "name": "_requestType",
              "type": "uint8"
            },
            {
              "internalType": "address",
              "name": "_projectAddress",
              "type": "address"
            },
            {
              "internalType": "address",
              "name": "_requestAddress",
              "type": "address"
            },
            {
              "internalType": "address",
              "name": "_signerAddress",
              "type": "address"
            },
            {
              "internalType": "uint256",
              "name": "_timestamp",
              "type": "uint256"
            },
            {
              "internalType": "string",
              "name": "_signature",
              "type": "string"
            }
          ],
          "indexed": false,
          "internalType": "struct SharedChain.Request",
          "name": "_request",
          "type": "tuple"
        },
        {
          "indexed": true,
          "internalType": "address",
          "name": "_requestAddress",
          "type": "address"
        },
        {
          "indexed": true,
          "internalType": "address",
          "name": "_projectAddress",
          "type": "address"
        }
      ],
      "name": "RequestEvent",
      "type": "event"
    },
    {
      "anonymous": false,
      "inputs": [
        {
          "components": [
            {
              "internalType": "bytes32",
              "name": "_firstname",
              "type": "bytes32"
            },
            {
              "internalType": "bytes32",
              "name": "_lastname",
              "type": "bytes32"
            },
            {
              "internalType": "enum SharedChain.Roles",
              "name": "_role",
              "type": "uint8"
            },
            {
              "internalType": "address",
              "name": "_walletAddress",
              "type": "address"
            },
            {
              "internalType": "uint256",
              "name": "_timestamp",
              "type": "uint256"
            }
          ],
          "indexed": false,
          "internalType": "struct SharedChain.User",
          "name": "_user",
          "type": "tuple"
        },
        {
          "indexed": true,
          "internalType": "address",
          "name": "_walletAddress",
          "type": "address"
        }
      ],
      "name": "UserEvent",
      "type": "event"
    },
    {
      "inputs": [
        {
          "internalType": "uint256",
          "name": "_role",
          "type": "uint256"
        },
        {
          "internalType": "address",
          "name": "_walletAddress",
          "type": "address"
        }
      ],
      "name": "changeUserRole",
      "outputs": [],
      "stateMutability": "nonpayable",
      "type": "function"
    },
    {
      "inputs": [],
      "name": "getAllUsers",
      "outputs": [
        {
          "components": [
            {
              "internalType": "bytes32",
              "name": "_firstname",
              "type": "bytes32"
            },
            {
              "internalType": "bytes32",
              "name": "_lastname",
              "type": "bytes32"
            },
            {
              "internalType": "enum SharedChain.Roles",
              "name": "_role",
              "type": "uint8"
            },
            {
              "internalType": "address",
              "name": "_walletAddress",
              "type": "address"
            },
            {
              "internalType": "uint256",
              "name": "_timestamp",
              "type": "uint256"
            }
          ],
          "internalType": "struct SharedChain.User[]",
          "name": "",
          "type": "tuple[]"
        }
      ],
      "stateMutability": "view",
      "type": "function",
      "constant": true
    },
    {
      "inputs": [
        {
          "internalType": "address",
          "name": "_walletAddress",
          "type": "address"
        }
      ],
      "name": "getUserInfo",
      "outputs": [
        {
          "components": [
            {
              "internalType": "bytes32",
              "name": "_firstname",
              "type": "bytes32"
            },
            {
              "internalType": "bytes32",
              "name": "_lastname",
              "type": "bytes32"
            },
            {
              "internalType": "enum SharedChain.Roles",
              "name": "_role",
              "type": "uint8"
            },
            {
              "internalType": "address",
              "name": "_walletAddress",
              "type": "address"
            },
            {
              "internalType": "uint256",
              "name": "_timestamp",
              "type": "uint256"
            }
          ],
          "internalType": "struct SharedChain.User",
          "name": "",
          "type": "tuple"
        }
      ],
      "stateMutability": "view",
      "type": "function",
      "constant": true
    },
    {
      "inputs": [
        {
          "internalType": "uint256",
          "name": "",
          "type": "uint256"
        }
      ],
      "name": "projectStatus",
      "outputs": [
        {
          "internalType": "uint256",
          "name": "id",
          "type": "uint256"
        },
        {
          "internalType": "string",
          "name": "value",
          "type": "string"
        }
      ],
      "stateMutability": "view",
      "type": "function",
      "constant": true
    },
    {
      "inputs": [
        {
          "internalType": "bytes32",
          "name": "_firstname",
          "type": "bytes32"
        },
        {
          "internalType": "bytes32",
          "name": "_lastname",
          "type": "bytes32"
        },
        {
          "internalType": "uint256",
          "name": "_role",
          "type": "uint256"
        },
        {
          "internalType": "address",
          "name": "_walletAddress",
          "type": "address"
        }
      ],
      "name": "registerUser",
      "outputs": [],
      "stateMutability": "nonpayable",
      "type": "function"
    },
    {
      "inputs": [
        {
          "internalType": "uint256",
          "name": "",
          "type": "uint256"
        }
      ],
      "name": "requestStatus",
      "outputs": [
        {
          "internalType": "uint256",
          "name": "id",
          "type": "uint256"
        },
        {
          "internalType": "string",
          "name": "value",
          "type": "string"
        }
      ],
      "stateMutability": "view",
      "type": "function",
      "constant": true
    },
    {
      "inputs": [
        {
          "internalType": "uint256",
          "name": "",
          "type": "uint256"
        }
      ],
      "name": "requestStatusForm",
      "outputs": [
        {
          "internalType": "uint256",
          "name": "id",
          "type": "uint256"
        },
        {
          "internalType": "string",
          "name": "value",
          "type": "string"
        }
      ],
      "stateMutability": "view",
      "type": "function",
      "constant": true
    },
    {
      "inputs": [
        {
          "internalType": "uint256",
          "name": "",
          "type": "uint256"
        }
      ],
      "name": "requestType",
      "outputs": [
        {
          "internalType": "uint256",
          "name": "id",
          "type": "uint256"
        },
        {
          "internalType": "string",
          "name": "value",
          "type": "string"
        }
      ],
      "stateMutability": "view",
      "type": "function",
      "constant": true
    },
    {
      "inputs": [
        {
          "internalType": "uint256",
          "name": "",
          "type": "uint256"
        }
      ],
      "name": "userRole",
      "outputs": [
        {
          "internalType": "uint256",
          "name": "id",
          "type": "uint256"
        },
        {
          "internalType": "string",
          "name": "value",
          "type": "string"
        }
      ],
      "stateMutability": "view",
      "type": "function",
      "constant": true
    },
    {
      "inputs": [
        {
          "internalType": "address",
          "name": "",
          "type": "address"
        }
      ],
      "name": "users",
      "outputs": [
        {
          "internalType": "bytes32",
          "name": "_firstname",
          "type": "bytes32"
        },
        {
          "internalType": "bytes32",
          "name": "_lastname",
          "type": "bytes32"
        },
        {
          "internalType": "enum SharedChain.Roles",
          "name": "_role",
          "type": "uint8"
        },
        {
          "internalType": "address",
          "name": "_walletAddress",
          "type": "address"
        },
        {
          "internalType": "uint256",
          "name": "_timestamp",
          "type": "uint256"
        }
      ],
      "stateMutability": "view",
      "type": "function",
      "constant": true
    },
    {
      "inputs": [],
      "name": "usersCounter",
      "outputs": [
        {
          "internalType": "uint256",
          "name": "",
          "type": "uint256"
        }
      ],
      "stateMutability": "view",
      "type": "function",
      "constant": true
    },
    {
      "inputs": [
        {
          "internalType": "uint256",
          "name": "_projectStatus",
          "type": "uint256"
        }
      ],
      "name": "checkPermissionUserProject",
      "outputs": [
        {
          "internalType": "bool",
          "name": "",
          "type": "bool"
        }
      ],
      "stateMutability": "view",
      "type": "function",
      "constant": true
    },
    {
      "inputs": [
        {
          "internalType": "uint256",
          "name": "_projectStatus",
          "type": "uint256"
        }
      ],
      "name": "checkPermissionCompany",
      "outputs": [
        {
          "internalType": "bool",
          "name": "",
          "type": "bool"
        }
      ],
      "stateMutability": "view",
      "type": "function",
      "constant": true
    },
    {
      "inputs": [],
      "name": "getAddressZeroValue",
      "outputs": [
        {
          "internalType": "string",
          "name": "",
          "type": "string"
        }
      ],
      "stateMutability": "view",
      "type": "function",
      "constant": true
    },
    {
      "inputs": [],
      "name": "getAdminRole",
      "outputs": [
        {
          "internalType": "string",
          "name": "",
          "type": "string"
        }
      ],
      "stateMutability": "view",
      "type": "function",
      "constant": true
    },
    {
      "inputs": [],
      "name": "getDefaultRole",
      "outputs": [
        {
          "internalType": "string",
          "name": "",
          "type": "string"
        }
      ],
      "stateMutability": "view",
      "type": "function",
      "constant": true
    },
    {
      "inputs": [],
      "name": "getUserProjectRole",
      "outputs": [
        {
          "internalType": "string",
          "name": "",
          "type": "string"
        }
      ],
      "stateMutability": "view",
      "type": "function",
      "constant": true
    },
    {
      "inputs": [],
      "name": "getCompanyRole",
      "outputs": [
        {
          "internalType": "string",
          "name": "",
          "type": "string"
        }
      ],
      "stateMutability": "view",
      "type": "function",
      "constant": true
    },
    {
      "inputs": [],
      "name": "getSupervisorRole",
      "outputs": [
        {
          "internalType": "string",
          "name": "",
          "type": "string"
        }
      ],
      "stateMutability": "view",
      "type": "function",
      "constant": true
    }
  ],
  "bytecode": "0x6080604052600060025534801561001557600080fd5b50336000806101000a81548173ffffffffffffffffffffffffffffffffffffffff021916908373ffffffffffffffffffffffffffffffffffffffff160217905550612bc9806100656000396000f3fe608060405234801561001057600080fd5b50600436106101215760003560e01c80636386c1c7116100ad578063b3ecf23611610071578063b3ecf23614610371578063bd3af6f11461038f578063d67b1b99146103ad578063e2842d79146103cb578063f66075df146103e957610121565b80636386c1c71461028f578063666a1605146102bf5780636d8b2efa146102f05780639100978614610321578063a87430ba1461033d57610121565b806326b5e4e0116100f457806326b5e4e0146101d55780633000d7f9146101f357806332cf3d551461020f57806350ac58921461024057806358f6f52a1461027157610121565b8063131cb2cf1461012657806317f7c8d0146101565780631a31320214610174578063264dfdb5146101a5575b600080fd5b610140600480360381019061013b91906121b6565b610407565b60405161014d91906121fe565b60405180910390f35b61015e6105de565b60405161016b91906122b2565b60405180910390f35b61018e600480360381019061018991906121b6565b61073e565b60405161019c9291906122e3565b60405180910390f35b6101bf60048036038101906101ba91906121b6565b6107fa565b6040516101cc91906121fe565b60405180910390f35b6101dd6109cf565b6040516101ea91906122b2565b60405180910390f35b61020d600480360381019061020891906123a7565b610b4c565b005b610229600480360381019061022491906121b6565b610f11565b6040516102379291906122e3565b60405180910390f35b61025a600480360381019061025591906121b6565b610fcd565b6040516102689291906122e3565b60405180910390f35b610279611089565b60405161028691906122b2565b60405180910390f35b6102a960048036038101906102a4919061240e565b611206565b6040516102b69190612547565b60405180910390f35b6102d960048036038101906102d491906121b6565b61148e565b6040516102e79291906122e3565b60405180910390f35b61030a600480360381019061030591906121b6565b61154a565b6040516103189291906122e3565b60405180910390f35b61033b60048036038101906103369190612562565b611606565b005b6103576004803603810190610352919061240e565b6118d9565b6040516103689594939291906125cf565b60405180910390f35b61037961193c565b60405161038691906122b2565b60405180910390f35b610397611ab9565b6040516103a491906122b2565b60405180910390f35b6103b5611c36565b6040516103c29190612622565b60405180910390f35b6103d3611c3c565b6040516103e09190612754565b60405180910390f35b6103f1611fa1565b6040516103fe91906122b2565b60405180910390f35b60003373ffffffffffffffffffffffffffffffffffffffff16600073ffffffffffffffffffffffffffffffffffffffff161415610479576040517f08c379a0000000000000000000000000000000000000000000000000000000008152600401610470906127c2565b60405180910390fd5b3373ffffffffffffffffffffffffffffffffffffffff16600160003373ffffffffffffffffffffffffffffffffffffffff1673ffffffffffffffffffffffffffffffffffffffff16815260200190815260200160002060020160019054906101000a900473ffffffffffffffffffffffffffffffffffffffff1673ffffffffffffffffffffffffffffffffffffffff1614610549576040517f08c379a00000000000000000000000000000000000000000000000000000000081526004016105409061282e565b60405180910390fd5b6000600481111561055d5761055c61244a565b5b8260048111156105705761056f61244a565b5b60048111156105825761058161244a565b5b1415806105c657506001600481111561059e5761059d61244a565b5b8260048111156105b1576105b061244a565b5b60048111156105c3576105c261244a565b5b14155b156105d457600190506105d9565b600090505b919050565b60603373ffffffffffffffffffffffffffffffffffffffff16600073ffffffffffffffffffffffffffffffffffffffff161415610650576040517f08c379a0000000000000000000000000000000000000000000000000000000008152600401610647906127c2565b60405180910390fd5b3373ffffffffffffffffffffffffffffffffffffffff16600160003373ffffffffffffffffffffffffffffffffffffffff1673ffffffffffffffffffffffffffffffffffffffff16815260200190815260200160002060020160019054906101000a900473ffffffffffffffffffffffffffffffffffffffff1673ffffffffffffffffffffffffffffffffffffffff1614610720576040517f08c379a00000000000000000000000000000000000000000000000000000000081526004016107179061282e565b60405180910390fd5b6040518060600160405280602a8152602001612b6a602a9139905090565b6006818154811061074e57600080fd5b90600052602060002090600202016000915090508060000154908060010180546107779061287d565b80601f01602080910402602001604051908101604052809291908181526020018280546107a39061287d565b80156107f05780601f106107c5576101008083540402835291602001916107f0565b820191906000526020600020905b8154815290600101906020018083116107d357829003601f168201915b5050505050905082565b60003373ffffffffffffffffffffffffffffffffffffffff16600073ffffffffffffffffffffffffffffffffffffffff16141561086c576040517f08c379a0000000000000000000000000000000000000000000000000000000008152600401610863906127c2565b60405180910390fd5b3373ffffffffffffffffffffffffffffffffffffffff16600160003373ffffffffffffffffffffffffffffffffffffffff1673ffffffffffffffffffffffffffffffffffffffff16815260200190815260200160002060020160019054906101000a900473ffffffffffffffffffffffffffffffffffffffff1673ffffffffffffffffffffffffffffffffffffffff161461093c576040517f08c379a00000000000000000000000000000000000000000000000000000000081526004016109339061282e565b60405180910390fd5b600060048111156109505761094f61244a565b5b8260048111156109635761096261244a565b5b60048111156109755761097461244a565b5b14806109b75750600160048111156109905761098f61244a565b5b8260048111156109a3576109a261244a565b5b60048111156109b5576109b461244a565b5b145b156109c557600190506109ca565b600090505b919050565b60603373ffffffffffffffffffffffffffffffffffffffff16600073ffffffffffffffffffffffffffffffffffffffff161415610a41576040517f08c379a0000000000000000000000000000000000000000000000000000000008152600401610a38906127c2565b60405180910390fd5b3373ffffffffffffffffffffffffffffffffffffffff16600160003373ffffffffffffffffffffffffffffffffffffffff1673ffffffffffffffffffffffffffffffffffffffff16815260200190815260200160002060020160019054906101000a900473ffffffffffffffffffffffffffffffffffffffff1673ffffffffffffffffffffffffffffffffffffffff1614610b11576040517f08c379a0000000000000000000000000000000000000000000000000000000008152600401610b089061282e565b60405180910390fd5b6040518060400160405280600b81526020017f44656661756c74526f6c65000000000000000000000000000000000000000000815250905090565b3373ffffffffffffffffffffffffffffffffffffffff16600073ffffffffffffffffffffffffffffffffffffffff161415610bbc576040517f08c379a0000000000000000000000000000000000000000000000000000000008152600401610bb3906127c2565b60405180910390fd5b3373ffffffffffffffffffffffffffffffffffffffff1673f08b741073b3cb01ef6fb3b412e71c977f276faa73ffffffffffffffffffffffffffffffffffffffff1614610c3e576040517f08c379a0000000000000000000000000000000000000000000000000000000008152600401610c359061282e565b60405180910390fd5b3373ffffffffffffffffffffffffffffffffffffffff1660008054906101000a900473ffffffffffffffffffffffffffffffffffffffff1673ffffffffffffffffffffffffffffffffffffffff1614610ccc576040517f08c379a0000000000000000000000000000000000000000000000000000000008152600401610cc3906128fb565b60405180910390fd5b6040518060a00160405280858152602001848152602001836003811115610cf657610cf561244a565b5b6003811115610d0857610d0761244a565b5b81526020018273ffffffffffffffffffffffffffffffffffffffff16815260200142815250600160008373ffffffffffffffffffffffffffffffffffffffff1673ffffffffffffffffffffffffffffffffffffffff168152602001908152602001600020600082015181600001556020820151816001015560408201518160020160006101000a81548160ff02191690836003811115610dab57610daa61244a565b5b021790555060608201518160020160016101000a81548173ffffffffffffffffffffffffffffffffffffffff021916908373ffffffffffffffffffffffffffffffffffffffff160217905550608082015181600301559050508073ffffffffffffffffffffffffffffffffffffffff167ff751778eb32087df58f173035147c2eac9aac89fdc2f83b1993a198606f56db1600160008473ffffffffffffffffffffffffffffffffffffffff1673ffffffffffffffffffffffffffffffffffffffff168152602001908152602001600020604051610e889190612a78565b60405180910390a26003819080600181540180825580915050600190039060005260206000200160009091909190916101000a81548173ffffffffffffffffffffffffffffffffffffffff021916908373ffffffffffffffffffffffffffffffffffffffff16021790555060026000815480929190610f0690612ac2565b919050555050505050565b60088181548110610f2157600080fd5b9060005260206000209060020201600091509050806000015490806001018054610f4a9061287d565b80601f0160208091040260200160405190810160405280929190818152602001828054610f769061287d565b8015610fc35780601f10610f9857610100808354040283529160200191610fc3565b820191906000526020600020905b815481529060010190602001808311610fa657829003601f168201915b5050505050905082565b60078181548110610fdd57600080fd5b90600052602060002090600202016000915090508060000154908060010180546110069061287d565b80601f01602080910402602001604051908101604052809291908181526020018280546110329061287d565b801561107f5780601f106110545761010080835404028352916020019161107f565b820191906000526020600020905b81548152906001019060200180831161106257829003601f168201915b5050505050905082565b60603373ffffffffffffffffffffffffffffffffffffffff16600073ffffffffffffffffffffffffffffffffffffffff1614156110fb576040517f08c379a00000000000000000000000000000000000000000000000000000000081526004016110f2906127c2565b60405180910390fd5b3373ffffffffffffffffffffffffffffffffffffffff16600160003373ffffffffffffffffffffffffffffffffffffffff1673ffffffffffffffffffffffffffffffffffffffff16815260200190815260200160002060020160019054906101000a900473ffffffffffffffffffffffffffffffffffffffff1673ffffffffffffffffffffffffffffffffffffffff16146111cb576040517f08c379a00000000000000000000000000000000000000000000000000000000081526004016111c29061282e565b60405180910390fd5b6040518060400160405280600b81526020017f5573657250726f6a656374000000000000000000000000000000000000000000815250905090565b61120e61211e565b3373ffffffffffffffffffffffffffffffffffffffff16600073ffffffffffffffffffffffffffffffffffffffff16141561127e576040517f08c379a0000000000000000000000000000000000000000000000000000000008152600401611275906127c2565b60405180910390fd5b3373ffffffffffffffffffffffffffffffffffffffff1673f08b741073b3cb01ef6fb3b412e71c977f276faa73ffffffffffffffffffffffffffffffffffffffff1614611300576040517f08c379a00000000000000000000000000000000000000000000000000000000081526004016112f79061282e565b60405180910390fd5b3373ffffffffffffffffffffffffffffffffffffffff1660008054906101000a900473ffffffffffffffffffffffffffffffffffffffff1673ffffffffffffffffffffffffffffffffffffffff161461138e576040517f08c379a0000000000000000000000000000000000000000000000000000000008152600401611385906128fb565b60405180910390fd5b600160008373ffffffffffffffffffffffffffffffffffffffff1673ffffffffffffffffffffffffffffffffffffffff1681526020019081526020016000206040518060a001604052908160008201548152602001600182015481526020016002820160009054906101000a900460ff1660038111156114115761141061244a565b5b60038111156114235761142261244a565b5b81526020016002820160019054906101000a900473ffffffffffffffffffffffffffffffffffffffff1673ffffffffffffffffffffffffffffffffffffffff1673ffffffffffffffffffffffffffffffffffffffff1681526020016003820154815250509050919050565b6005818154811061149e57600080fd5b90600052602060002090600202016000915090508060000154908060010180546114c79061287d565b80601f01602080910402602001604051908101604052809291908181526020018280546114f39061287d565b80156115405780601f1061151557610100808354040283529160200191611540565b820191906000526020600020905b81548152906001019060200180831161152357829003601f168201915b5050505050905082565b6004818154811061155a57600080fd5b90600052602060002090600202016000915090508060000154908060010180546115839061287d565b80601f01602080910402602001604051908101604052809291908181526020018280546115af9061287d565b80156115fc5780601f106115d1576101008083540402835291602001916115fc565b820191906000526020600020905b8154815290600101906020018083116115df57829003601f168201915b5050505050905082565b3373ffffffffffffffffffffffffffffffffffffffff16600073ffffffffffffffffffffffffffffffffffffffff161415611676576040517f08c379a000000000000000000000000000000000000000000000000000000000815260040161166d906127c2565b60405180910390fd5b3373ffffffffffffffffffffffffffffffffffffffff1673f08b741073b3cb01ef6fb3b412e71c977f276faa73ffffffffffffffffffffffffffffffffffffffff16146116f8576040517f08c379a00000000000000000000000000000000000000000000000000000000081526004016116ef9061282e565b60405180910390fd5b3373ffffffffffffffffffffffffffffffffffffffff1660008054906101000a900473ffffffffffffffffffffffffffffffffffffffff1673ffffffffffffffffffffffffffffffffffffffff1614611786576040517f08c379a000000000000000000000000000000000000000000000000000000000815260040161177d906128fb565b60405180910390fd5b8160038111156117995761179861244a565b5b600160008373ffffffffffffffffffffffffffffffffffffffff1673ffffffffffffffffffffffffffffffffffffffff16815260200190815260200160002060020160006101000a81548160ff021916908360038111156117fd576117fc61244a565b5b021790555042600160008373ffffffffffffffffffffffffffffffffffffffff1673ffffffffffffffffffffffffffffffffffffffff168152602001908152602001600020600301819055508073ffffffffffffffffffffffffffffffffffffffff167ff751778eb32087df58f173035147c2eac9aac89fdc2f83b1993a198606f56db1600160008473ffffffffffffffffffffffffffffffffffffffff1673ffffffffffffffffffffffffffffffffffffffff1681526020019081526020016000206040516118cd9190612a78565b60405180910390a25050565b60016020528060005260406000206000915090508060000154908060010154908060020160009054906101000a900460ff16908060020160019054906101000a900473ffffffffffffffffffffffffffffffffffffffff16908060030154905085565b60603373ffffffffffffffffffffffffffffffffffffffff16600073ffffffffffffffffffffffffffffffffffffffff1614156119ae576040517f08c379a00000000000000000000000000000000000000000000000000000000081526004016119a5906127c2565b60405180910390fd5b3373ffffffffffffffffffffffffffffffffffffffff16600160003373ffffffffffffffffffffffffffffffffffffffff1673ffffffffffffffffffffffffffffffffffffffff16815260200190815260200160002060020160019054906101000a900473ffffffffffffffffffffffffffffffffffffffff1673ffffffffffffffffffffffffffffffffffffffff1614611a7e576040517f08c379a0000000000000000000000000000000000000000000000000000000008152600401611a759061282e565b60405180910390fd5b6040518060400160405280600b81526020017f41646d696e4d6967687479000000000000000000000000000000000000000000815250905090565b60603373ffffffffffffffffffffffffffffffffffffffff16600073ffffffffffffffffffffffffffffffffffffffff161415611b2b576040517f08c379a0000000000000000000000000000000000000000000000000000000008152600401611b22906127c2565b60405180910390fd5b3373ffffffffffffffffffffffffffffffffffffffff16600160003373ffffffffffffffffffffffffffffffffffffffff1673ffffffffffffffffffffffffffffffffffffffff16815260200190815260200160002060020160019054906101000a900473ffffffffffffffffffffffffffffffffffffffff1673ffffffffffffffffffffffffffffffffffffffff1614611bfb576040517f08c379a0000000000000000000000000000000000000000000000000000000008152600401611bf29061282e565b60405180910390fd5b6040518060400160405280600781526020017f436f6d70616e7900000000000000000000000000000000000000000000000000815250905090565b60025481565b60603373ffffffffffffffffffffffffffffffffffffffff16600073ffffffffffffffffffffffffffffffffffffffff161415611cae576040517f08c379a0000000000000000000000000000000000000000000000000000000008152600401611ca5906127c2565b60405180910390fd5b3373ffffffffffffffffffffffffffffffffffffffff1673f08b741073b3cb01ef6fb3b412e71c977f276faa73ffffffffffffffffffffffffffffffffffffffff1614611d30576040517f08c379a0000000000000000000000000000000000000000000000000000000008152600401611d279061282e565b60405180910390fd5b3373ffffffffffffffffffffffffffffffffffffffff1660008054906101000a900473ffffffffffffffffffffffffffffffffffffffff1673ffffffffffffffffffffffffffffffffffffffff1614611dbe576040517f08c379a0000000000000000000000000000000000000000000000000000000008152600401611db5906128fb565b60405180910390fd5b600060025467ffffffffffffffff811115611ddc57611ddb612b0b565b5b604051908082528060200260200182016040528015611e1557816020015b611e0261211e565b815260200190600190039081611dfa5790505b50905060005b600254811015611f9957600060038281548110611e3b57611e3a612b3a565b5b9060005260206000200160009054906101000a900473ffffffffffffffffffffffffffffffffffffffff1690506000600160008373ffffffffffffffffffffffffffffffffffffffff1673ffffffffffffffffffffffffffffffffffffffff1681526020019081526020016000209050806040518060a001604052908160008201548152602001600182015481526020016002820160009054906101000a900460ff166003811115611ef057611eef61244a565b5b6003811115611f0257611f0161244a565b5b81526020016002820160019054906101000a900473ffffffffffffffffffffffffffffffffffffffff1673ffffffffffffffffffffffffffffffffffffffff1673ffffffffffffffffffffffffffffffffffffffff168152602001600382015481525050848481518110611f7957611f78612b3a565b5b602002602001018190525050508080611f9190612ac2565b915050611e1b565b508091505090565b60603373ffffffffffffffffffffffffffffffffffffffff16600073ffffffffffffffffffffffffffffffffffffffff161415612013576040517f08c379a000000000000000000000000000000000000000000000000000000000815260040161200a906127c2565b60405180910390fd5b3373ffffffffffffffffffffffffffffffffffffffff16600160003373ffffffffffffffffffffffffffffffffffffffff1673ffffffffffffffffffffffffffffffffffffffff16815260200190815260200160002060020160019054906101000a900473ffffffffffffffffffffffffffffffffffffffff1673ffffffffffffffffffffffffffffffffffffffff16146120e3576040517f08c379a00000000000000000000000000000000000000000000000000000000081526004016120da9061282e565b60405180910390fd5b6040518060400160405280600a81526020017f53757065727669736f7200000000000000000000000000000000000000000000815250905090565b6040518060a001604052806000801916815260200160008019168152602001600060038111156121515761215061244a565b5b8152602001600073ffffffffffffffffffffffffffffffffffffffff168152602001600081525090565b600080fd5b6000819050919050565b61219381612180565b811461219e57600080fd5b50565b6000813590506121b08161218a565b92915050565b6000602082840312156121cc576121cb61217b565b5b60006121da848285016121a1565b91505092915050565b60008115159050919050565b6121f8816121e3565b82525050565b600060208201905061221360008301846121ef565b92915050565b600081519050919050565b600082825260208201905092915050565b60005b83811015612253578082015181840152602081019050612238565b83811115612262576000848401525b50505050565b6000601f19601f8301169050919050565b600061228482612219565b61228e8185612224565b935061229e818560208601612235565b6122a781612268565b840191505092915050565b600060208201905081810360008301526122cc8184612279565b905092915050565b6122dd81612180565b82525050565b60006040820190506122f860008301856122d4565b818103602083015261230a8184612279565b90509392505050565b6000819050919050565b61232681612313565b811461233157600080fd5b50565b6000813590506123438161231d565b92915050565b600073ffffffffffffffffffffffffffffffffffffffff82169050919050565b600061237482612349565b9050919050565b61238481612369565b811461238f57600080fd5b50565b6000813590506123a18161237b565b92915050565b600080600080608085870312156123c1576123c061217b565b5b60006123cf87828801612334565b94505060206123e087828801612334565b93505060406123f1878288016121a1565b925050606061240287828801612392565b91505092959194509250565b6000602082840312156124245761242361217b565b5b600061243284828501612392565b91505092915050565b61244481612313565b82525050565b7f4e487b7100000000000000000000000000000000000000000000000000000000600052602160045260246000fd5b6004811061248a5761248961244a565b5b50565b600081905061249b82612479565b919050565b60006124ab8261248d565b9050919050565b6124bb816124a0565b82525050565b6124ca81612369565b82525050565b6124d981612180565b82525050565b60a0820160008201516124f5600085018261243b565b506020820151612508602085018261243b565b50604082015161251b60408501826124b2565b50606082015161252e60608501826124c1565b50608082015161254160808501826124d0565b50505050565b600060a08201905061255c60008301846124df565b92915050565b600080604083850312156125795761257861217b565b5b6000612587858286016121a1565b925050602061259885828601612392565b9150509250929050565b6125ab81612313565b82525050565b6125ba816124a0565b82525050565b6125c981612369565b82525050565b600060a0820190506125e460008301886125a2565b6125f160208301876125a2565b6125fe60408301866125b1565b61260b60608301856125c0565b61261860808301846122d4565b9695505050505050565b600060208201905061263760008301846122d4565b92915050565b600081519050919050565b600082825260208201905092915050565b6000819050602082019050919050565b60a08201600082015161267f600085018261243b565b506020820151612692602085018261243b565b5060408201516126a560408501826124b2565b5060608201516126b860608501826124c1565b5060808201516126cb60808501826124d0565b50505050565b60006126dd8383612669565b60a08301905092915050565b6000602082019050919050565b60006127018261263d565b61270b8185612648565b935061271683612659565b8060005b8381101561274757815161272e88826126d1565b9750612739836126e9565b92505060018101905061271a565b5085935050505092915050565b6000602082019050818103600083015261276e81846126f6565b905092915050565b7f41646472657373206973206e6f742076616c69642e0000000000000000000000600082015250565b60006127ac601583612224565b91506127b782612776565b602082019050919050565b600060208201905081810360008301526127db8161279f565b9050919050565b7f596f7520617265206e6f742074686520726967687420757365722e0000000000600082015250565b6000612818601b83612224565b9150612823826127e2565b602082019050919050565b600060208201905081810360008301526128478161280b565b9050919050565b7f4e487b7100000000000000000000000000000000000000000000000000000000600052602260045260246000fd5b6000600282049050600182168061289557607f821691505b602082108114156128a9576128a861284e565b5b50919050565b7f596f7520617265206e6f7420616e206f776e65722e0000000000000000000000600082015250565b60006128e5601583612224565b91506128f0826128af565b602082019050919050565b60006020820190508181036000830152612914816128d8565b9050919050565b60008160001c9050919050565b6000819050919050565b60006129456129408361291b565b612928565b9050919050565b600060ff82169050919050565b600061296c6129678361291b565b61294c565b9050919050565b60008160081c9050919050565b600073ffffffffffffffffffffffffffffffffffffffff82169050919050565b60006129b36129ae83612973565b612980565b9050919050565b6000819050919050565b60006129d76129d28361291b565b6129ba565b9050919050565b60a0820160008083015490506129f381612932565b612a00600086018261243b565b5060018301549050612a1181612932565b612a1e602086018261243b565b5060028301549050612a2f81612959565b612a3c60408601826124b2565b50612a46816129a0565b612a5360608601826124c1565b5060038301549050612a64816129c4565b612a7160808601826124d0565b5050505050565b600060a082019050612a8d60008301846129de565b92915050565b7f4e487b7100000000000000000000000000000000000000000000000000000000600052601160045260246000fd5b6000612acd82612180565b91507fffffffffffffffffffffffffffffffffffffffffffffffffffffffffffffffff821415612b0057612aff612a93565b5b600182019050919050565b7f4e487b7100000000000000000000000000000000000000000000000000000000600052604160045260246000fd5b7f4e487b7100000000000000000000000000000000000000000000000000000000600052603260045260246000fdfe307830303030303030303030303030303030303030303030303030303030303030303030303030303030a264697066735822122091d725068dc83e9877df50d01cd9e244839845f483c451ef2b1b0a3b2795e52164736f6c634300080a0033",
  "immutableReferences": {},
  "source": "// SPDX-License-Identifier: MIT\r\npragma solidity >=0.8.0 <0.9.0;\r\n\r\nimport './UserChain.sol';\r\n\r\ncontract ServiceChain is UserChain {\r\n\r\n    Dropdown[] public requestType;\r\n    Dropdown[] public requestStatusForm;\r\n    Dropdown[] public requestStatus;\r\n    Dropdown[] public projectStatus;\r\n    Dropdown[] public userRole;\r\n\r\n    constructor() {}\r\n\r\n    modifier onlySystemUsers() {\r\n        require(address(0x0) != msg.sender, \"Address is not valid.\");\r\n        require(users[msg.sender]._walletAddress == msg.sender, \"You are not the right user.\");\r\n        _;\r\n    }\r\n\r\n    function checkPermissionUserProject(uint256 _projectStatus) public view onlySystemUsers returns (bool) {\r\n        if (\r\n            ProjectStatus(_projectStatus) == ProjectStatus.Created ||\r\n            ProjectStatus(_projectStatus) == ProjectStatus.ToApprove\r\n        ) {\r\n            return true;\r\n        }\r\n        return false;\r\n    }\r\n\r\n    function checkPermissionCompany(uint256 _projectStatus) public view onlySystemUsers returns (bool) {\r\n        if (\r\n            ProjectStatus(_projectStatus) != ProjectStatus.Created ||\r\n            ProjectStatus(_projectStatus) != ProjectStatus.ToApprove\r\n        ) {\r\n            return true;\r\n        }\r\n        return false;\r\n    }\r\n\r\n    function getAddressZeroValue() public view onlySystemUsers returns (string memory) {\r\n        return \"0x0000000000000000000000000000000000000000\";\r\n    }\r\n\r\n    function getAdminRole() public view onlySystemUsers returns (string memory) {\r\n        return \"AdminMighty\";\r\n    }\r\n\r\n    function getDefaultRole() public view onlySystemUsers returns (string memory) {\r\n        return \"DefaultRole\";\r\n    }\r\n\r\n    function getUserProjectRole() public view onlySystemUsers returns (string memory) {\r\n        return \"UserProject\";\r\n    }\r\n\r\n    function getCompanyRole() public view onlySystemUsers returns (string memory) {\r\n        return \"Company\";\r\n    }\r\n\r\n    function getSupervisorRole() public view onlySystemUsers returns (string memory) {\r\n        return \"Supervisor\";\r\n    }\r\n\r\n\r\n    // function createDropdowns() public onlyOwner {\r\n    //     requestType.push(Dropdown(0, 'SupervisorReq'));\r\n    //     requestType.push(Dropdown(1, 'CompanyReq'));\r\n\r\n    //     requestStatusForm.push(Dropdown(1, 'Rejected'));\r\n    //     requestStatusForm.push(Dropdown(2, 'Approved'));\r\n\r\n    //     requestStatus.push(Dropdown(0, 'UnApproved'));\r\n    //     requestStatus.push(Dropdown(1, 'Rejected'));\r\n    //     requestStatus.push(Dropdown(2, 'Approved'));\r\n\r\n    //     projectStatus.push(Dropdown(0, 'Created'));\r\n    //     projectStatus.push(Dropdown(1, 'ToApprove'));\r\n    //     projectStatus.push(Dropdown(2, 'StartProject'));\r\n    //     projectStatus.push(Dropdown(3, 'FinalizationCheck'));\r\n    //     projectStatus.push(Dropdown(4, 'Completed'));\r\n\r\n    //     userRole.push(Dropdown(0, 'DefaultRole'));\r\n    //     userRole.push(Dropdown(1, 'UserProject'));\r\n    //     userRole.push(Dropdown(2, 'Company'));\r\n    //     userRole.push(Dropdown(3, 'Supervisor'));\r\n    // }\r\n\r\n    /** Methods: Check if Dropdown option exists */\r\n\r\n    // function checkRequestTypeDropdown(uint256 _id) public view onlyOwner returns (bool) {\r\n    //     for (uint256 index = 0; index < requestType.length; index++) {\r\n    //         if (requestType[index].id == _id) {\r\n    //             return true;\r\n    //         }\r\n    //     }\r\n    //     return false;\r\n    // }\r\n\r\n    // function checkRequestStatusFormDropdown(uint256 _id) public view onlyOwner returns (bool) {\r\n    //     for (uint256 index = 0; index < requestStatusForm.length; index++) {\r\n    //         if (requestStatusForm[index].id == _id) {\r\n    //             return true;\r\n    //         }\r\n    //     }\r\n    //     return false;\r\n    // }\r\n\r\n    // function checkRequestStatusDropdown(uint256 _id) public view onlyOwner returns (bool) {\r\n    //     for (uint256 index = 0; index < requestStatus.length; index++) {\r\n    //         if (requestStatus[index].id == _id) {\r\n    //             return true;\r\n    //         }\r\n    //     }\r\n    //     return false;\r\n    // }\r\n\r\n    // function checkProjectStatusDropdown(uint256 _id) public view onlyOwner returns (bool) {\r\n    //     for (uint256 index = 0; index < projectStatus.length; index++) {\r\n    //         if (projectStatus[index].id == _id) {\r\n    //             return true;\r\n    //         }\r\n    //     }\r\n    //     return false;\r\n    // }\r\n\r\n    // function checkUserRoleDropdown(uint256 _id) public view onlyOwner returns (bool) {\r\n    //     for (uint256 index = 0; index < userRole.length; index++) {\r\n    //         if (userRole[index].id == _id) {\r\n    //             return true;\r\n    //         }\r\n    //     }\r\n    //     return false;\r\n    // }\r\n\r\n    /** Get Dropdown[] Array */\r\n\r\n    // function getAllRequestTypeDropdown() public view onlyOwner returns (Dropdown[] memory) {\r\n    //     return requestType;\r\n    // }\r\n\r\n    // function getAllRequestStatusFormDropdown() public view onlyOwner returns (Dropdown[] memory) {\r\n    //     return requestStatusForm;\r\n    // }\r\n\r\n    // function getAllRequestStatusDropdown() public view onlyOwner returns (Dropdown[] memory) {\r\n    //     return requestStatus;\r\n    // }\r\n\r\n    // function getAllProjectStatusDropdown() public view onlyOwner returns (Dropdown[] memory) {\r\n    //     return projectStatus;\r\n    // }\r\n\r\n    // function getAllUserRoleDropdown() public view onlyOwner returns (Dropdown[] memory) {\r\n    //     return userRole;\r\n    // }\r\n\r\n\r\n    /*** Methods for Dropdowns */\r\n\r\n    // function getCompletedProjectStatus() public view onlyOwner returns(Dropdown memory) {\r\n    //     Dropdown memory typeData;\r\n    //     typeData = Dropdown(4, 'Completed');\r\n    //     return typeData;\r\n    // }\r\n\r\n    // function getSupervisorRequestType() public view onlyOwner returns(Dropdown memory) {\r\n    //     Dropdown memory typeData;\r\n    //     typeData = Dropdown(0, 'SupervisorReq');\r\n    //     return typeData;\r\n    // }\r\n\r\n    // function getCompanyRequestType() public view onlyOwner returns(Dropdown memory) {\r\n    //     Dropdown memory typeData;\r\n    //     typeData = Dropdown(1, 'CompanyReq');\r\n    //     return typeData;\r\n    // }\r\n\r\n    // function getDefaultProjectStatus() public view onlyOwner returns(Dropdown memory) {\r\n    //     Dropdown memory typeData;\r\n    //     typeData = Dropdown(0, 'Created');\r\n    //     return typeData;\r\n    // }\r\n\r\n    // function getDefaultRequestStatus() public view onlyOwner returns(Dropdown memory) {\r\n    //     Dropdown memory typeData;\r\n    //     typeData = Dropdown(0, 'UnApproved');\r\n    //     return typeData;\r\n    // }\r\n\r\n    /*** Dropdowns */\r\n\r\n    // function getRequestTypeDropdown() public view onlyOwner returns(Dropdown[] memory) {\r\n    //     Dropdown[] memory data = new Dropdown[](2);\r\n    //     data[0] = Dropdown(0, 'SupervisorReq');\r\n    //     data[1] = Dropdown(1, 'CompanyReq');\r\n    //     return data;\r\n    // }\r\n\r\n    // function getRequestStatusFormDropdown() public view onlyOwner returns(Dropdown[] memory) {\r\n    //     Dropdown[] memory data = new Dropdown[](2);\r\n    //     data[0] = Dropdown(1, 'Rejected');\r\n    //     data[1] = Dropdown(2, 'Approved');\r\n    //     return data;\r\n    // }\r\n\r\n    // function getRequestStatusDropdown() public view onlyOwner returns(Dropdown[] memory) {\r\n    //     Dropdown[] memory data = new Dropdown[](3);\r\n    //     data[0] = Dropdown(0, 'UnApproved');\r\n    //     data[1] = Dropdown(1, 'Rejected');\r\n    //     data[2] = Dropdown(2, 'Approved');\r\n    //     return data;\r\n    // }\r\n\r\n    // function getProjectStatusDropdown() public view onlyOwner returns(Dropdown[] memory) {\r\n    //     Dropdown[] memory data = new Dropdown[](5);\r\n    //     data[0] = Dropdown(0, 'Created');\r\n    //     data[1] = Dropdown(1, 'ToApprove');\r\n    //     data[2] = Dropdown(2, 'StartProject');\r\n    //     data[3] = Dropdown(3, 'FinalizationCheck');\r\n    //     data[4] = Dropdown(4, 'Completed');\r\n    //     return data;\r\n    // }\r\n\r\n    // function getUserRoleDropdown() public view onlyOwner returns(Dropdown[] memory) {\r\n    //     Dropdown[] memory data = new Dropdown[](4);\r\n    //     data[0] = Dropdown(0, 'DefaultRole');\r\n    //     data[1] = Dropdown(1, 'UserProject');\r\n    //     data[2] = Dropdown(2, 'Company');\r\n    //     data[3] = Dropdown(3, 'Supervisor');\r\n    //     return data;\r\n    // }\r\n}\r\n",
  "sourcePath": "/mnt/c/Users/Beniamin/source/repos/DissertationProject/contracts/ServiceChain.sol",
  "compiler": {
    "name": "solc",
    "version": "0.8.10+commit.fc410830.Emscripten.clang"
  },
  "schemaVersion": "3.4.3",
  "updatedAt": "2021-12-14T22:26:05.828Z",
  "networkType": "ethereum",
  "devdoc": {
    "kind": "dev",
    "methods": {},
    "version": 1
  },
  "userdoc": {
    "kind": "user",
    "methods": {},
    "version": 1
  }
}