{
  "contractName": "ServiceChain",
  "abi": [
    {
      "inputs": [],
      "stateMutability": "nonpayable",
      "type": "constructor"
    },
    {
      "inputs": [
        {
          "internalType": "uint256",
          "name": "",
          "type": "uint256"
        }
      ],
      "name": "projectStatus",
      "outputs": [
        {
          "internalType": "uint256",
          "name": "id",
          "type": "uint256"
        },
        {
          "internalType": "string",
          "name": "value",
          "type": "string"
        }
      ],
      "stateMutability": "view",
      "type": "function",
      "constant": true
    },
    {
      "inputs": [
        {
          "internalType": "uint256",
          "name": "",
          "type": "uint256"
        }
      ],
      "name": "requestStatus",
      "outputs": [
        {
          "internalType": "uint256",
          "name": "id",
          "type": "uint256"
        },
        {
          "internalType": "string",
          "name": "value",
          "type": "string"
        }
      ],
      "stateMutability": "view",
      "type": "function",
      "constant": true
    },
    {
      "inputs": [
        {
          "internalType": "uint256",
          "name": "",
          "type": "uint256"
        }
      ],
      "name": "requestStatusForm",
      "outputs": [
        {
          "internalType": "uint256",
          "name": "id",
          "type": "uint256"
        },
        {
          "internalType": "string",
          "name": "value",
          "type": "string"
        }
      ],
      "stateMutability": "view",
      "type": "function",
      "constant": true
    },
    {
      "inputs": [
        {
          "internalType": "uint256",
          "name": "",
          "type": "uint256"
        }
      ],
      "name": "requestType",
      "outputs": [
        {
          "internalType": "uint256",
          "name": "id",
          "type": "uint256"
        },
        {
          "internalType": "string",
          "name": "value",
          "type": "string"
        }
      ],
      "stateMutability": "view",
      "type": "function",
      "constant": true
    },
    {
      "inputs": [
        {
          "internalType": "uint256",
          "name": "",
          "type": "uint256"
        }
      ],
      "name": "userRole",
      "outputs": [
        {
          "internalType": "uint256",
          "name": "id",
          "type": "uint256"
        },
        {
          "internalType": "string",
          "name": "value",
          "type": "string"
        }
      ],
      "stateMutability": "view",
      "type": "function",
      "constant": true
    },
    {
      "inputs": [
        {
          "internalType": "uint256",
          "name": "_projectStatus",
          "type": "uint256"
        }
      ],
      "name": "checkPermissionUserProject",
      "outputs": [
        {
          "internalType": "bool",
          "name": "",
          "type": "bool"
        }
      ],
      "stateMutability": "view",
      "type": "function",
      "constant": true
    },
    {
      "inputs": [
        {
          "internalType": "uint256",
          "name": "_projectStatus",
          "type": "uint256"
        }
      ],
      "name": "checkPermissionCompany",
      "outputs": [
        {
          "internalType": "bool",
          "name": "",
          "type": "bool"
        }
      ],
      "stateMutability": "view",
      "type": "function",
      "constant": true
    },
    {
      "inputs": [],
      "name": "getAddressZeroValue",
      "outputs": [
        {
          "internalType": "string",
          "name": "",
          "type": "string"
        }
      ],
      "stateMutability": "pure",
      "type": "function",
      "constant": true
    },
    {
      "inputs": [],
      "name": "getAdminRole",
      "outputs": [
        {
          "internalType": "string",
          "name": "",
          "type": "string"
        }
      ],
      "stateMutability": "pure",
      "type": "function",
      "constant": true
    },
    {
      "inputs": [],
      "name": "getDefaultRole",
      "outputs": [
        {
          "internalType": "string",
          "name": "",
          "type": "string"
        }
      ],
      "stateMutability": "pure",
      "type": "function",
      "constant": true
    },
    {
      "inputs": [],
      "name": "getUserProjectRole",
      "outputs": [
        {
          "internalType": "string",
          "name": "",
          "type": "string"
        }
      ],
      "stateMutability": "pure",
      "type": "function",
      "constant": true
    },
    {
      "inputs": [],
      "name": "getCompanyRole",
      "outputs": [
        {
          "internalType": "string",
          "name": "",
          "type": "string"
        }
      ],
      "stateMutability": "pure",
      "type": "function",
      "constant": true
    },
    {
      "inputs": [],
      "name": "getSupervisorRole",
      "outputs": [
        {
          "internalType": "string",
          "name": "",
          "type": "string"
        }
      ],
      "stateMutability": "pure",
      "type": "function",
      "constant": true
    }
  ],
  "bytecode": "0x608060405234801561001057600080fd5b50610d5d806100206000396000f3fe608060405234801561001057600080fd5b50600436106100cf5760003560e01c806350ac58921161008c5780636d8b2efa116100665780636d8b2efa14610252578063b3ecf23614610283578063bd3af6f1146102a1578063f66075df146102bf576100cf565b806350ac5892146101d257806358f6f52a14610203578063666a160514610221576100cf565b8063131cb2cf146100d457806317f7c8d0146101045780631a31320214610122578063264dfdb51461015357806326b5e4e01461018357806332cf3d55146101a1575b600080fd5b6100ee60048036038101906100e99190610aa4565b6102dd565b6040516100fb9190610aec565b60405180910390f35b61010c610426565b6040516101199190610ba0565b60405180910390f35b61013c60048036038101906101379190610aa4565b610446565b60405161014a929190610bd1565b60405180910390f35b61016d60048036038101906101689190610aa4565b610502565b60405161017a9190610aec565b60405180910390f35b61018b610648565b6040516101989190610ba0565b60405180910390f35b6101bb60048036038101906101b69190610aa4565b610685565b6040516101c9929190610bd1565b60405180910390f35b6101ec60048036038101906101e79190610aa4565b610741565b6040516101fa929190610bd1565b60405180910390f35b61020b6107fd565b6040516102189190610ba0565b60405180910390f35b61023b60048036038101906102369190610aa4565b61083a565b604051610249929190610bd1565b60405180910390f35b61026c60048036038101906102679190610aa4565b6108f6565b60405161027a929190610bd1565b60405180910390f35b61028b6109b2565b6040516102989190610ba0565b60405180910390f35b6102a96109ef565b6040516102b69190610ba0565b60405180910390f35b6102c7610a2c565b6040516102d49190610ba0565b60405180910390f35b60003373ffffffffffffffffffffffffffffffffffffffff16600073ffffffffffffffffffffffffffffffffffffffff16141561034f576040517f08c379a000000000000000000000000000000000000000000000000000000000815260040161034690610c4d565b60405180910390fd5b6000600481111561036357610362610c6d565b5b82600481111561037657610375610c6d565b5b600481111561038857610387610c6d565b5b1415806103cc5750600160048111156103a4576103a3610c6d565b5b8260048111156103b7576103b6610c6d565b5b60048111156103c9576103c8610c6d565b5b14155b8061040e5750600260048111156103e6576103e5610c6d565b5b8260048111156103f9576103f8610c6d565b5b600481111561040b5761040a610c6d565b5b14155b1561041c5760019050610421565b600090505b919050565b60606040518060600160405280602a8152602001610cfe602a9139905090565b6002818154811061045657600080fd5b906000526020600020906002020160009150905080600001549080600101805461047f90610ccb565b80601f01602080910402602001604051908101604052809291908181526020018280546104ab90610ccb565b80156104f85780601f106104cd576101008083540402835291602001916104f8565b820191906000526020600020905b8154815290600101906020018083116104db57829003601f168201915b5050505050905082565b60003373ffffffffffffffffffffffffffffffffffffffff16600073ffffffffffffffffffffffffffffffffffffffff161415610574576040517f08c379a000000000000000000000000000000000000000000000000000000000815260040161056b90610c4d565b60405180910390fd5b6000600481111561058857610587610c6d565b5b82600481111561059b5761059a610c6d565b5b60048111156105ad576105ac610c6d565b5b14806105ef5750600160048111156105c8576105c7610c6d565b5b8260048111156105db576105da610c6d565b5b60048111156105ed576105ec610c6d565b5b145b8061063057506002600481111561060957610608610c6d565b5b82600481111561061c5761061b610c6d565b5b600481111561062e5761062d610c6d565b5b145b1561063e5760019050610643565b600090505b919050565b60606040518060400160405280600b81526020017f44656661756c74526f6c65000000000000000000000000000000000000000000815250905090565b6004818154811061069557600080fd5b90600052602060002090600202016000915090508060000154908060010180546106be90610ccb565b80601f01602080910402602001604051908101604052809291908181526020018280546106ea90610ccb565b80156107375780601f1061070c57610100808354040283529160200191610737565b820191906000526020600020905b81548152906001019060200180831161071a57829003601f168201915b5050505050905082565b6003818154811061075157600080fd5b906000526020600020906002020160009150905080600001549080600101805461077a90610ccb565b80601f01602080910402602001604051908101604052809291908181526020018280546107a690610ccb565b80156107f35780601f106107c8576101008083540402835291602001916107f3565b820191906000526020600020905b8154815290600101906020018083116107d657829003601f168201915b5050505050905082565b60606040518060400160405280600b81526020017f5573657250726f6a656374000000000000000000000000000000000000000000815250905090565b6001818154811061084a57600080fd5b906000526020600020906002020160009150905080600001549080600101805461087390610ccb565b80601f016020809104026020016040519081016040528092919081815260200182805461089f90610ccb565b80156108ec5780601f106108c1576101008083540402835291602001916108ec565b820191906000526020600020905b8154815290600101906020018083116108cf57829003601f168201915b5050505050905082565b6000818154811061090657600080fd5b906000526020600020906002020160009150905080600001549080600101805461092f90610ccb565b80601f016020809104026020016040519081016040528092919081815260200182805461095b90610ccb565b80156109a85780601f1061097d576101008083540402835291602001916109a8565b820191906000526020600020905b81548152906001019060200180831161098b57829003601f168201915b5050505050905082565b60606040518060400160405280600b81526020017f41646d696e4d6967687479000000000000000000000000000000000000000000815250905090565b60606040518060400160405280600781526020017f436f6d70616e7900000000000000000000000000000000000000000000000000815250905090565b60606040518060400160405280600a81526020017f53757065727669736f7200000000000000000000000000000000000000000000815250905090565b600080fd5b6000819050919050565b610a8181610a6e565b8114610a8c57600080fd5b50565b600081359050610a9e81610a78565b92915050565b600060208284031215610aba57610ab9610a69565b5b6000610ac884828501610a8f565b91505092915050565b60008115159050919050565b610ae681610ad1565b82525050565b6000602082019050610b016000830184610add565b92915050565b600081519050919050565b600082825260208201905092915050565b60005b83811015610b41578082015181840152602081019050610b26565b83811115610b50576000848401525b50505050565b6000601f19601f8301169050919050565b6000610b7282610b07565b610b7c8185610b12565b9350610b8c818560208601610b23565b610b9581610b56565b840191505092915050565b60006020820190508181036000830152610bba8184610b67565b905092915050565b610bcb81610a6e565b82525050565b6000604082019050610be66000830185610bc2565b8181036020830152610bf88184610b67565b90509392505050565b7f41646472657373206973206e6f742076616c69642e0000000000000000000000600082015250565b6000610c37601583610b12565b9150610c4282610c01565b602082019050919050565b60006020820190508181036000830152610c6681610c2a565b9050919050565b7f4e487b7100000000000000000000000000000000000000000000000000000000600052602160045260246000fd5b7f4e487b7100000000000000000000000000000000000000000000000000000000600052602260045260246000fd5b60006002820490506001821680610ce357607f821691505b60208210811415610cf757610cf6610c9c565b5b5091905056fe307830303030303030303030303030303030303030303030303030303030303030303030303030303030a264697066735822122033b236f55293360cb3738ceb8cd4400376dfec4c2f8b794c5a0440292b85dfd664736f6c634300080a0033",
  "immutableReferences": {},
  "source": "// SPDX-License-Identifier: MIT\r\npragma solidity >=0.8.0 <0.9.0;\r\n\r\ncontract ServiceChain {\r\n\r\n    enum ProjectStatus { Created, ToApprove, StartProject, FinalizationCheck, Completed }\r\n\r\n    struct Dropdown {\r\n        uint256 id;\r\n        string value;\r\n    }\r\n\r\n    Dropdown[] public requestType;\r\n    Dropdown[] public requestStatusForm;\r\n    Dropdown[] public requestStatus;\r\n    Dropdown[] public projectStatus;\r\n    Dropdown[] public userRole;\r\n\r\n    constructor() {}\r\n\r\n    modifier onlyOwner() {\r\n        require(address(0x0) == msg.sender, \"The address is not valid.\");\r\n        _;\r\n    }\r\n\r\n    function checkPermissionUserProject(uint256 _projectStatus) public view returns (bool) {\r\n        require(address(0x0) != msg.sender, \"Address is not valid.\");\r\n        if (\r\n            ProjectStatus(_projectStatus) == ProjectStatus.Created ||\r\n            ProjectStatus(_projectStatus) == ProjectStatus.ToApprove ||\r\n            ProjectStatus(_projectStatus) == ProjectStatus.StartProject\r\n        ) {\r\n            return true;\r\n        }\r\n        return false;\r\n    }\r\n\r\n    function checkPermissionCompany(uint256 _projectStatus) public view returns (bool) {\r\n        require(address(0x0) != msg.sender, \"Address is not valid.\");\r\n        if (\r\n            ProjectStatus(_projectStatus) != ProjectStatus.Created ||\r\n            ProjectStatus(_projectStatus) != ProjectStatus.ToApprove ||\r\n            ProjectStatus(_projectStatus) != ProjectStatus.StartProject\r\n        ) {\r\n            return true;\r\n        }\r\n        return false;\r\n    }\r\n\r\n    function getAddressZeroValue() public pure returns (string memory) {\r\n        return \"0x0000000000000000000000000000000000000000\";\r\n    }\r\n\r\n    function getAdminRole() public pure returns (string memory) {\r\n        return \"AdminMighty\";\r\n    }\r\n\r\n    function getDefaultRole() public pure returns (string memory) {\r\n        return \"DefaultRole\";\r\n    }\r\n\r\n    function getUserProjectRole() public pure returns (string memory) {\r\n        return \"UserProject\";\r\n    }\r\n\r\n    function getCompanyRole() public pure returns (string memory) {\r\n        return \"Company\";\r\n    }\r\n\r\n    function getSupervisorRole() public pure returns (string memory) {\r\n        return \"Supervisor\";\r\n    }\r\n\r\n\r\n    // function createDropdowns() public onlyOwner {\r\n    //     requestType.push(Dropdown(0, 'SupervisorReq'));\r\n    //     requestType.push(Dropdown(1, 'CompanyReq'));\r\n\r\n    //     requestStatusForm.push(Dropdown(1, 'Rejected'));\r\n    //     requestStatusForm.push(Dropdown(2, 'Approved'));\r\n\r\n    //     requestStatus.push(Dropdown(0, 'UnApproved'));\r\n    //     requestStatus.push(Dropdown(1, 'Rejected'));\r\n    //     requestStatus.push(Dropdown(2, 'Approved'));\r\n\r\n    //     projectStatus.push(Dropdown(0, 'Created'));\r\n    //     projectStatus.push(Dropdown(1, 'ToApprove'));\r\n    //     projectStatus.push(Dropdown(2, 'StartProject'));\r\n    //     projectStatus.push(Dropdown(3, 'FinalizationCheck'));\r\n    //     projectStatus.push(Dropdown(4, 'Completed'));\r\n\r\n    //     userRole.push(Dropdown(0, 'DefaultRole'));\r\n    //     userRole.push(Dropdown(1, 'UserProject'));\r\n    //     userRole.push(Dropdown(2, 'Company'));\r\n    //     userRole.push(Dropdown(3, 'Supervisor'));\r\n    // }\r\n\r\n    /** Methods: Check if Dropdown option exists */\r\n\r\n    // function checkRequestTypeDropdown(uint256 _id) public view onlyOwner returns (bool) {\r\n    //     for (uint256 index = 0; index < requestType.length; index++) {\r\n    //         if (requestType[index].id == _id) {\r\n    //             return true;\r\n    //         }\r\n    //     }\r\n    //     return false;\r\n    // }\r\n\r\n    // function checkRequestStatusFormDropdown(uint256 _id) public view onlyOwner returns (bool) {\r\n    //     for (uint256 index = 0; index < requestStatusForm.length; index++) {\r\n    //         if (requestStatusForm[index].id == _id) {\r\n    //             return true;\r\n    //         }\r\n    //     }\r\n    //     return false;\r\n    // }\r\n\r\n    // function checkRequestStatusDropdown(uint256 _id) public view onlyOwner returns (bool) {\r\n    //     for (uint256 index = 0; index < requestStatus.length; index++) {\r\n    //         if (requestStatus[index].id == _id) {\r\n    //             return true;\r\n    //         }\r\n    //     }\r\n    //     return false;\r\n    // }\r\n\r\n    // function checkProjectStatusDropdown(uint256 _id) public view onlyOwner returns (bool) {\r\n    //     for (uint256 index = 0; index < projectStatus.length; index++) {\r\n    //         if (projectStatus[index].id == _id) {\r\n    //             return true;\r\n    //         }\r\n    //     }\r\n    //     return false;\r\n    // }\r\n\r\n    // function checkUserRoleDropdown(uint256 _id) public view onlyOwner returns (bool) {\r\n    //     for (uint256 index = 0; index < userRole.length; index++) {\r\n    //         if (userRole[index].id == _id) {\r\n    //             return true;\r\n    //         }\r\n    //     }\r\n    //     return false;\r\n    // }\r\n\r\n    /** Get Dropdown[] Array */\r\n\r\n    // function getAllRequestTypeDropdown() public view onlyOwner returns (Dropdown[] memory) {\r\n    //     return requestType;\r\n    // }\r\n\r\n    // function getAllRequestStatusFormDropdown() public view onlyOwner returns (Dropdown[] memory) {\r\n    //     return requestStatusForm;\r\n    // }\r\n\r\n    // function getAllRequestStatusDropdown() public view onlyOwner returns (Dropdown[] memory) {\r\n    //     return requestStatus;\r\n    // }\r\n\r\n    // function getAllProjectStatusDropdown() public view onlyOwner returns (Dropdown[] memory) {\r\n    //     return projectStatus;\r\n    // }\r\n\r\n    // function getAllUserRoleDropdown() public view onlyOwner returns (Dropdown[] memory) {\r\n    //     return userRole;\r\n    // }\r\n\r\n\r\n    /*** Methods for Dropdowns */\r\n\r\n    // function getCompletedProjectStatus() public view onlyOwner returns(Dropdown memory) {\r\n    //     Dropdown memory typeData;\r\n    //     typeData = Dropdown(4, 'Completed');\r\n    //     return typeData;\r\n    // }\r\n\r\n    // function getSupervisorRequestType() public view onlyOwner returns(Dropdown memory) {\r\n    //     Dropdown memory typeData;\r\n    //     typeData = Dropdown(0, 'SupervisorReq');\r\n    //     return typeData;\r\n    // }\r\n\r\n    // function getCompanyRequestType() public view onlyOwner returns(Dropdown memory) {\r\n    //     Dropdown memory typeData;\r\n    //     typeData = Dropdown(1, 'CompanyReq');\r\n    //     return typeData;\r\n    // }\r\n\r\n    // function getDefaultProjectStatus() public view onlyOwner returns(Dropdown memory) {\r\n    //     Dropdown memory typeData;\r\n    //     typeData = Dropdown(0, 'Created');\r\n    //     return typeData;\r\n    // }\r\n\r\n    // function getDefaultRequestStatus() public view onlyOwner returns(Dropdown memory) {\r\n    //     Dropdown memory typeData;\r\n    //     typeData = Dropdown(0, 'UnApproved');\r\n    //     return typeData;\r\n    // }\r\n\r\n    /*** Dropdowns */\r\n\r\n    // function getRequestTypeDropdown() public view onlyOwner returns(Dropdown[] memory) {\r\n    //     Dropdown[] memory data = new Dropdown[](2);\r\n    //     data[0] = Dropdown(0, 'SupervisorReq');\r\n    //     data[1] = Dropdown(1, 'CompanyReq');\r\n    //     return data;\r\n    // }\r\n\r\n    // function getRequestStatusFormDropdown() public view onlyOwner returns(Dropdown[] memory) {\r\n    //     Dropdown[] memory data = new Dropdown[](2);\r\n    //     data[0] = Dropdown(1, 'Rejected');\r\n    //     data[1] = Dropdown(2, 'Approved');\r\n    //     return data;\r\n    // }\r\n\r\n    // function getRequestStatusDropdown() public view onlyOwner returns(Dropdown[] memory) {\r\n    //     Dropdown[] memory data = new Dropdown[](3);\r\n    //     data[0] = Dropdown(0, 'UnApproved');\r\n    //     data[1] = Dropdown(1, 'Rejected');\r\n    //     data[2] = Dropdown(2, 'Approved');\r\n    //     return data;\r\n    // }\r\n\r\n    // function getProjectStatusDropdown() public view onlyOwner returns(Dropdown[] memory) {\r\n    //     Dropdown[] memory data = new Dropdown[](5);\r\n    //     data[0] = Dropdown(0, 'Created');\r\n    //     data[1] = Dropdown(1, 'ToApprove');\r\n    //     data[2] = Dropdown(2, 'StartProject');\r\n    //     data[3] = Dropdown(3, 'FinalizationCheck');\r\n    //     data[4] = Dropdown(4, 'Completed');\r\n    //     return data;\r\n    // }\r\n\r\n    // function getUserRoleDropdown() public view onlyOwner returns(Dropdown[] memory) {\r\n    //     Dropdown[] memory data = new Dropdown[](4);\r\n    //     data[0] = Dropdown(0, 'DefaultRole');\r\n    //     data[1] = Dropdown(1, 'UserProject');\r\n    //     data[2] = Dropdown(2, 'Company');\r\n    //     data[3] = Dropdown(3, 'Supervisor');\r\n    //     return data;\r\n    // }\r\n}\r\n",
  "sourcePath": "/mnt/c/Users/Beniamin/source/repos/DissertationProject/contracts/ServiceChain.sol",
  "compiler": {
    "name": "solc",
    "version": "0.8.10+commit.fc410830.Emscripten.clang"
  },
  "schemaVersion": "3.4.3",
  "updatedAt": "2021-12-13T08:12:51.951Z",
  "networkType": "ethereum",
  "devdoc": {
    "kind": "dev",
    "methods": {},
    "version": 1
  },
  "userdoc": {
    "kind": "user",
    "methods": {},
    "version": 1
  }
}