{
  "contractName": "ServiceChain",
  "abi": [
    {
      "inputs": [],
      "stateMutability": "nonpayable",
      "type": "constructor"
    },
    {
      "inputs": [
        {
          "internalType": "uint256",
          "name": "",
          "type": "uint256"
        }
      ],
      "name": "projectStatus",
      "outputs": [
        {
          "internalType": "uint256",
          "name": "id",
          "type": "uint256"
        },
        {
          "internalType": "string",
          "name": "value",
          "type": "string"
        }
      ],
      "stateMutability": "view",
      "type": "function",
      "constant": true
    },
    {
      "inputs": [
        {
          "internalType": "uint256",
          "name": "",
          "type": "uint256"
        }
      ],
      "name": "requestStatus",
      "outputs": [
        {
          "internalType": "uint256",
          "name": "id",
          "type": "uint256"
        },
        {
          "internalType": "string",
          "name": "value",
          "type": "string"
        }
      ],
      "stateMutability": "view",
      "type": "function",
      "constant": true
    },
    {
      "inputs": [
        {
          "internalType": "uint256",
          "name": "",
          "type": "uint256"
        }
      ],
      "name": "requestStatusForm",
      "outputs": [
        {
          "internalType": "uint256",
          "name": "id",
          "type": "uint256"
        },
        {
          "internalType": "string",
          "name": "value",
          "type": "string"
        }
      ],
      "stateMutability": "view",
      "type": "function",
      "constant": true
    },
    {
      "inputs": [
        {
          "internalType": "uint256",
          "name": "",
          "type": "uint256"
        }
      ],
      "name": "requestType",
      "outputs": [
        {
          "internalType": "uint256",
          "name": "id",
          "type": "uint256"
        },
        {
          "internalType": "string",
          "name": "value",
          "type": "string"
        }
      ],
      "stateMutability": "view",
      "type": "function",
      "constant": true
    },
    {
      "inputs": [
        {
          "internalType": "uint256",
          "name": "",
          "type": "uint256"
        }
      ],
      "name": "userRole",
      "outputs": [
        {
          "internalType": "uint256",
          "name": "id",
          "type": "uint256"
        },
        {
          "internalType": "string",
          "name": "value",
          "type": "string"
        }
      ],
      "stateMutability": "view",
      "type": "function",
      "constant": true
    },
    {
      "inputs": [],
      "name": "getAddressZeroValue",
      "outputs": [
        {
          "internalType": "string",
          "name": "",
          "type": "string"
        }
      ],
      "stateMutability": "pure",
      "type": "function",
      "constant": true
    },
    {
      "inputs": [],
      "name": "getAdminRole",
      "outputs": [
        {
          "internalType": "string",
          "name": "",
          "type": "string"
        }
      ],
      "stateMutability": "pure",
      "type": "function",
      "constant": true
    },
    {
      "inputs": [],
      "name": "getDefaultRole",
      "outputs": [
        {
          "internalType": "string",
          "name": "",
          "type": "string"
        }
      ],
      "stateMutability": "pure",
      "type": "function",
      "constant": true
    },
    {
      "inputs": [],
      "name": "getUserProjectRole",
      "outputs": [
        {
          "internalType": "string",
          "name": "",
          "type": "string"
        }
      ],
      "stateMutability": "pure",
      "type": "function",
      "constant": true
    },
    {
      "inputs": [],
      "name": "getCompanyRole",
      "outputs": [
        {
          "internalType": "string",
          "name": "",
          "type": "string"
        }
      ],
      "stateMutability": "pure",
      "type": "function",
      "constant": true
    },
    {
      "inputs": [],
      "name": "getSupervisorRole",
      "outputs": [
        {
          "internalType": "string",
          "name": "",
          "type": "string"
        }
      ],
      "stateMutability": "pure",
      "type": "function",
      "constant": true
    },
    {
      "inputs": [],
      "name": "createDropdowns",
      "outputs": [],
      "stateMutability": "nonpayable",
      "type": "function"
    },
    {
      "inputs": [
        {
          "internalType": "uint256",
          "name": "_id",
          "type": "uint256"
        }
      ],
      "name": "checkRequestTypeDropdown",
      "outputs": [
        {
          "internalType": "bool",
          "name": "",
          "type": "bool"
        }
      ],
      "stateMutability": "view",
      "type": "function",
      "constant": true
    },
    {
      "inputs": [
        {
          "internalType": "uint256",
          "name": "_id",
          "type": "uint256"
        }
      ],
      "name": "checkRequestStatusFormDropdown",
      "outputs": [
        {
          "internalType": "bool",
          "name": "",
          "type": "bool"
        }
      ],
      "stateMutability": "view",
      "type": "function",
      "constant": true
    },
    {
      "inputs": [
        {
          "internalType": "uint256",
          "name": "_id",
          "type": "uint256"
        }
      ],
      "name": "checkRequestStatusDropdown",
      "outputs": [
        {
          "internalType": "bool",
          "name": "",
          "type": "bool"
        }
      ],
      "stateMutability": "view",
      "type": "function",
      "constant": true
    },
    {
      "inputs": [
        {
          "internalType": "uint256",
          "name": "_id",
          "type": "uint256"
        }
      ],
      "name": "checkProjectStatusDropdown",
      "outputs": [
        {
          "internalType": "bool",
          "name": "",
          "type": "bool"
        }
      ],
      "stateMutability": "view",
      "type": "function",
      "constant": true
    },
    {
      "inputs": [
        {
          "internalType": "uint256",
          "name": "_id",
          "type": "uint256"
        }
      ],
      "name": "checkUserRoleDropdown",
      "outputs": [
        {
          "internalType": "bool",
          "name": "",
          "type": "bool"
        }
      ],
      "stateMutability": "view",
      "type": "function",
      "constant": true
    },
    {
      "inputs": [],
      "name": "getAllRequestTypeDropdown",
      "outputs": [
        {
          "components": [
            {
              "internalType": "uint256",
              "name": "id",
              "type": "uint256"
            },
            {
              "internalType": "string",
              "name": "value",
              "type": "string"
            }
          ],
          "internalType": "struct ServiceChain.Dropdown[]",
          "name": "",
          "type": "tuple[]"
        }
      ],
      "stateMutability": "view",
      "type": "function",
      "constant": true
    },
    {
      "inputs": [],
      "name": "getAllRequestStatusFormDropdown",
      "outputs": [
        {
          "components": [
            {
              "internalType": "uint256",
              "name": "id",
              "type": "uint256"
            },
            {
              "internalType": "string",
              "name": "value",
              "type": "string"
            }
          ],
          "internalType": "struct ServiceChain.Dropdown[]",
          "name": "",
          "type": "tuple[]"
        }
      ],
      "stateMutability": "view",
      "type": "function",
      "constant": true
    },
    {
      "inputs": [],
      "name": "getAllRequestStatusDropdown",
      "outputs": [
        {
          "components": [
            {
              "internalType": "uint256",
              "name": "id",
              "type": "uint256"
            },
            {
              "internalType": "string",
              "name": "value",
              "type": "string"
            }
          ],
          "internalType": "struct ServiceChain.Dropdown[]",
          "name": "",
          "type": "tuple[]"
        }
      ],
      "stateMutability": "view",
      "type": "function",
      "constant": true
    },
    {
      "inputs": [],
      "name": "getAllProjectStatusDropdown",
      "outputs": [
        {
          "components": [
            {
              "internalType": "uint256",
              "name": "id",
              "type": "uint256"
            },
            {
              "internalType": "string",
              "name": "value",
              "type": "string"
            }
          ],
          "internalType": "struct ServiceChain.Dropdown[]",
          "name": "",
          "type": "tuple[]"
        }
      ],
      "stateMutability": "view",
      "type": "function",
      "constant": true
    },
    {
      "inputs": [],
      "name": "getAllUserRoleDropdown",
      "outputs": [
        {
          "components": [
            {
              "internalType": "uint256",
              "name": "id",
              "type": "uint256"
            },
            {
              "internalType": "string",
              "name": "value",
              "type": "string"
            }
          ],
          "internalType": "struct ServiceChain.Dropdown[]",
          "name": "",
          "type": "tuple[]"
        }
      ],
      "stateMutability": "view",
      "type": "function",
      "constant": true
    },
    {
      "inputs": [],
      "name": "getAddressZero",
      "outputs": [
        {
          "internalType": "string",
          "name": "",
          "type": "string"
        }
      ],
      "stateMutability": "view",
      "type": "function",
      "constant": true
    },
    {
      "inputs": [],
      "name": "getCompletedProjectStatus",
      "outputs": [
        {
          "components": [
            {
              "internalType": "uint256",
              "name": "id",
              "type": "uint256"
            },
            {
              "internalType": "string",
              "name": "value",
              "type": "string"
            }
          ],
          "internalType": "struct ServiceChain.Dropdown",
          "name": "",
          "type": "tuple"
        }
      ],
      "stateMutability": "view",
      "type": "function",
      "constant": true
    },
    {
      "inputs": [],
      "name": "getSupervisorRequestType",
      "outputs": [
        {
          "components": [
            {
              "internalType": "uint256",
              "name": "id",
              "type": "uint256"
            },
            {
              "internalType": "string",
              "name": "value",
              "type": "string"
            }
          ],
          "internalType": "struct ServiceChain.Dropdown",
          "name": "",
          "type": "tuple"
        }
      ],
      "stateMutability": "view",
      "type": "function",
      "constant": true
    },
    {
      "inputs": [],
      "name": "getCompanyRequestType",
      "outputs": [
        {
          "components": [
            {
              "internalType": "uint256",
              "name": "id",
              "type": "uint256"
            },
            {
              "internalType": "string",
              "name": "value",
              "type": "string"
            }
          ],
          "internalType": "struct ServiceChain.Dropdown",
          "name": "",
          "type": "tuple"
        }
      ],
      "stateMutability": "view",
      "type": "function",
      "constant": true
    },
    {
      "inputs": [],
      "name": "getDefaultProjectStatus",
      "outputs": [
        {
          "components": [
            {
              "internalType": "uint256",
              "name": "id",
              "type": "uint256"
            },
            {
              "internalType": "string",
              "name": "value",
              "type": "string"
            }
          ],
          "internalType": "struct ServiceChain.Dropdown",
          "name": "",
          "type": "tuple"
        }
      ],
      "stateMutability": "view",
      "type": "function",
      "constant": true
    },
    {
      "inputs": [],
      "name": "getDefaultRequestStatus",
      "outputs": [
        {
          "components": [
            {
              "internalType": "uint256",
              "name": "id",
              "type": "uint256"
            },
            {
              "internalType": "string",
              "name": "value",
              "type": "string"
            }
          ],
          "internalType": "struct ServiceChain.Dropdown",
          "name": "",
          "type": "tuple"
        }
      ],
      "stateMutability": "view",
      "type": "function",
      "constant": true
    },
    {
      "inputs": [],
      "name": "getRequestTypeDropdown",
      "outputs": [
        {
          "components": [
            {
              "internalType": "uint256",
              "name": "id",
              "type": "uint256"
            },
            {
              "internalType": "string",
              "name": "value",
              "type": "string"
            }
          ],
          "internalType": "struct ServiceChain.Dropdown[]",
          "name": "",
          "type": "tuple[]"
        }
      ],
      "stateMutability": "view",
      "type": "function",
      "constant": true
    },
    {
      "inputs": [],
      "name": "getRequestStatusFormDropdown",
      "outputs": [
        {
          "components": [
            {
              "internalType": "uint256",
              "name": "id",
              "type": "uint256"
            },
            {
              "internalType": "string",
              "name": "value",
              "type": "string"
            }
          ],
          "internalType": "struct ServiceChain.Dropdown[]",
          "name": "",
          "type": "tuple[]"
        }
      ],
      "stateMutability": "view",
      "type": "function",
      "constant": true
    },
    {
      "inputs": [],
      "name": "getRequestStatusDropdown",
      "outputs": [
        {
          "components": [
            {
              "internalType": "uint256",
              "name": "id",
              "type": "uint256"
            },
            {
              "internalType": "string",
              "name": "value",
              "type": "string"
            }
          ],
          "internalType": "struct ServiceChain.Dropdown[]",
          "name": "",
          "type": "tuple[]"
        }
      ],
      "stateMutability": "view",
      "type": "function",
      "constant": true
    },
    {
      "inputs": [],
      "name": "getProjectStatusDropdown",
      "outputs": [
        {
          "components": [
            {
              "internalType": "uint256",
              "name": "id",
              "type": "uint256"
            },
            {
              "internalType": "string",
              "name": "value",
              "type": "string"
            }
          ],
          "internalType": "struct ServiceChain.Dropdown[]",
          "name": "",
          "type": "tuple[]"
        }
      ],
      "stateMutability": "view",
      "type": "function",
      "constant": true
    },
    {
      "inputs": [],
      "name": "getUserRoleDropdown",
      "outputs": [
        {
          "components": [
            {
              "internalType": "uint256",
              "name": "id",
              "type": "uint256"
            },
            {
              "internalType": "string",
              "name": "value",
              "type": "string"
            }
          ],
          "internalType": "struct ServiceChain.Dropdown[]",
          "name": "",
          "type": "tuple[]"
        }
      ],
      "stateMutability": "view",
      "type": "function",
      "constant": true
    }
  ],
  "bytecode": "0x608060405234801561001057600080fd5b506136b5806100206000396000f3fe608060405234801561001057600080fd5b50600436106101fb5760003560e01c8063701376301161011a578063c4d297b7116100ad578063ecad86281161007c578063ecad8628146105ed578063f548a90c1461060b578063f66075df14610629578063f7ed4b5014610647578063fedb724914610665576101fb565b8063c4d297b714610551578063d12a34071461056f578063d4ca97a81461059f578063d8d2aa9e146105bd576101fb565b8063b6f67058116100e9578063b6f67058146104b5578063bc53a794146104e5578063bd3af6f114610503578063c0f00c1114610521576101fb565b8063701376301461043d578063757c00441461045b57806389ebabb114610479578063b3ecf23614610497576101fb565b8063405a14eb11610192578063629700d411610161578063629700d41461038d5780636593f21d146103bd578063666a1605146103db5780636d8b2efa1461040c576101fb565b8063405a14eb146103025780634e4beccd1461032057806350ac58921461033e57806358f6f52a1461036f576101fb565b806326b5e4e0116101ce57806326b5e4e01461027757806332cf3d551461029557806337e3bffe146102c65780633b8197fb146102e4576101fb565b806309b7a17c146102005780630fffee8b1461021e57806317f7c8d0146102285780631a31320214610246575b600080fd5b610208610683565b60405161021591906132f2565b60405180910390f35b6102266107ed565b005b61023061124e565b60405161023d919061335e565b60405180910390f35b610260600480360381019061025b91906133b1565b61126e565b60405161026e9291906133ed565b60405180910390f35b61027f61132a565b60405161028c919061335e565b60405180910390f35b6102af60048036038101906102aa91906133b1565b611367565b6040516102bd9291906133ed565b60405180910390f35b6102ce611423565b6040516102db91906132f2565b60405180910390f35b6102ec61158d565b6040516102f991906132f2565b60405180910390f35b61030a611870565b60405161031791906132f2565b60405180910390f35b6103286119da565b604051610335919061345a565b60405180910390f35b610358600480360381019061035391906133b1565b611aad565b6040516103669291906133ed565b60405180910390f35b610377611b69565b604051610384919061335e565b60405180910390f35b6103a760048036038101906103a291906133b1565b611ba6565b6040516103b49190613497565b60405180910390f35b6103c5611c7c565b6040516103d291906132f2565b60405180910390f35b6103f560048036038101906103f091906133b1565b611de6565b6040516104039291906133ed565b60405180910390f35b610426600480360381019061042191906133b1565b611ea2565b6040516104349291906133ed565b60405180910390f35b610445611f5e565b604051610452919061345a565b60405180910390f35b610463612031565b60405161047091906132f2565b60405180910390f35b6104816121d6565b60405161048e919061345a565b60405180910390f35b61049f6122a9565b6040516104ac919061335e565b60405180910390f35b6104cf60048036038101906104ca91906133b1565b6122e6565b6040516104dc9190613497565b60405180910390f35b6104ed6123bc565b6040516104fa919061335e565b60405180910390f35b61050b61244b565b604051610518919061335e565b60405180910390f35b61053b600480360381019061053691906133b1565b612488565b6040516105489190613497565b60405180910390f35b61055961255e565b60405161056691906132f2565b60405180910390f35b610589600480360381019061058491906133b1565b6127d7565b6040516105969190613497565b60405180910390f35b6105a76128ad565b6040516105b4919061345a565b60405180910390f35b6105d760048036038101906105d291906133b1565b612980565b6040516105e49190613497565b60405180910390f35b6105f5612a56565b60405161060291906132f2565b60405180910390f35b610613612c65565b604051610620919061345a565b60405180910390f35b610631612d38565b60405161063e919061335e565b60405180910390f35b61064f612d75565b60405161065c91906132f2565b60405180910390f35b61066d612edf565b60405161067a91906132f2565b60405180910390f35b60603373ffffffffffffffffffffffffffffffffffffffff16600073ffffffffffffffffffffffffffffffffffffffff16146106f4576040517f08c379a00000000000000000000000000000000000000000000000000000000081526004016106eb906134fe565b60405180910390fd5b6000805480602002602001604051908101604052809291908181526020016000905b828210156107e45783829060005260206000209060020201604051806040016040529081600082015481526020016001820180546107539061354d565b80601f016020809104026020016040519081016040528092919081815260200182805461077f9061354d565b80156107cc5780601f106107a1576101008083540402835291602001916107cc565b820191906000526020600020905b8154815290600101906020018083116107af57829003601f168201915b50505050508152505081526020019060010190610716565b50505050905090565b3373ffffffffffffffffffffffffffffffffffffffff16600073ffffffffffffffffffffffffffffffffffffffff161461085c576040517f08c379a0000000000000000000000000000000000000000000000000000000008152600401610853906134fe565b60405180910390fd5b60006040518060400160405280600081526020016040518060400160405280600d81526020017f53757065727669736f725265710000000000000000000000000000000000000081525081525090806001815401808255809150506001900390600052602060002090600202016000909190919091506000820151816000015560208201518160010190805190602001906108f8929190613084565b50505060006040518060400160405280600181526020016040518060400160405280600a81526020017f436f6d70616e79526571000000000000000000000000000000000000000000008152508152509080600181540180825580915050600190039060005260206000209060020201600090919091909150600082015181600001556020820151816001019080519060200190610997929190613084565b50505060016040518060400160405280600181526020016040518060400160405280600881526020017f52656a65637465640000000000000000000000000000000000000000000000008152508152509080600181540180825580915050600190039060005260206000209060020201600090919091909150600082015181600001556020820151816001019080519060200190610a36929190613084565b50505060016040518060400160405280600281526020016040518060400160405280600881526020017f417070726f7665640000000000000000000000000000000000000000000000008152508152509080600181540180825580915050600190039060005260206000209060020201600090919091909150600082015181600001556020820151816001019080519060200190610ad5929190613084565b50505060026040518060400160405280600081526020016040518060400160405280600a81526020017f556e417070726f766564000000000000000000000000000000000000000000008152508152509080600181540180825580915050600190039060005260206000209060020201600090919091909150600082015181600001556020820151816001019080519060200190610b74929190613084565b50505060026040518060400160405280600181526020016040518060400160405280600881526020017f52656a65637465640000000000000000000000000000000000000000000000008152508152509080600181540180825580915050600190039060005260206000209060020201600090919091909150600082015181600001556020820151816001019080519060200190610c13929190613084565b50505060026040518060400160405280600281526020016040518060400160405280600881526020017f417070726f7665640000000000000000000000000000000000000000000000008152508152509080600181540180825580915050600190039060005260206000209060020201600090919091909150600082015181600001556020820151816001019080519060200190610cb2929190613084565b50505060036040518060400160405280600081526020016040518060400160405280600781526020017f43726561746564000000000000000000000000000000000000000000000000008152508152509080600181540180825580915050600190039060005260206000209060020201600090919091909150600082015181600001556020820151816001019080519060200190610d51929190613084565b50505060036040518060400160405280600181526020016040518060400160405280600981526020017f546f417070726f766500000000000000000000000000000000000000000000008152508152509080600181540180825580915050600190039060005260206000209060020201600090919091909150600082015181600001556020820151816001019080519060200190610df0929190613084565b50505060036040518060400160405280600281526020016040518060400160405280600c81526020017f537461727450726f6a65637400000000000000000000000000000000000000008152508152509080600181540180825580915050600190039060005260206000209060020201600090919091909150600082015181600001556020820151816001019080519060200190610e8f929190613084565b50505060036040518060400160405280600381526020016040518060400160405280601181526020017f46696e616c697a6174696f6e436865636b0000000000000000000000000000008152508152509080600181540180825580915050600190039060005260206000209060020201600090919091909150600082015181600001556020820151816001019080519060200190610f2e929190613084565b50505060036040518060400160405280600481526020016040518060400160405280600981526020017f436f6d706c6574656400000000000000000000000000000000000000000000008152508152509080600181540180825580915050600190039060005260206000209060020201600090919091909150600082015181600001556020820151816001019080519060200190610fcd929190613084565b50505060046040518060400160405280600081526020016040518060400160405280600b81526020017f44656661756c74526f6c65000000000000000000000000000000000000000000815250815250908060018154018082558091505060019003906000526020600020906002020160009091909190915060008201518160000155602082015181600101908051906020019061106c929190613084565b50505060046040518060400160405280600181526020016040518060400160405280600b81526020017f5573657250726f6a656374000000000000000000000000000000000000000000815250815250908060018154018082558091505060019003906000526020600020906002020160009091909190915060008201518160000155602082015181600101908051906020019061110b929190613084565b50505060046040518060400160405280600281526020016040518060400160405280600781526020017f436f6d70616e790000000000000000000000000000000000000000000000000081525081525090806001815401808255809150506001900390600052602060002090600202016000909190919091506000820151816000015560208201518160010190805190602001906111aa929190613084565b50505060046040518060400160405280600381526020016040518060400160405280600a81526020017f53757065727669736f72000000000000000000000000000000000000000000008152508152509080600181540180825580915050600190039060005260206000209060020201600090919091909150600082015181600001556020820151816001019080519060200190611249929190613084565b505050565b60606040518060600160405280602a8152602001613656602a9139905090565b6002818154811061127e57600080fd5b90600052602060002090600202016000915090508060000154908060010180546112a79061354d565b80601f01602080910402602001604051908101604052809291908181526020018280546112d39061354d565b80156113205780601f106112f557610100808354040283529160200191611320565b820191906000526020600020905b81548152906001019060200180831161130357829003601f168201915b5050505050905082565b60606040518060400160405280600b81526020017f44656661756c74526f6c65000000000000000000000000000000000000000000815250905090565b6004818154811061137757600080fd5b90600052602060002090600202016000915090508060000154908060010180546113a09061354d565b80601f01602080910402602001604051908101604052809291908181526020018280546113cc9061354d565b80156114195780601f106113ee57610100808354040283529160200191611419565b820191906000526020600020905b8154815290600101906020018083116113fc57829003601f168201915b5050505050905082565b60603373ffffffffffffffffffffffffffffffffffffffff16600073ffffffffffffffffffffffffffffffffffffffff1614611494576040517f08c379a000000000000000000000000000000000000000000000000000000000815260040161148b906134fe565b60405180910390fd5b6002805480602002602001604051908101604052809291908181526020016000905b828210156115845783829060005260206000209060020201604051806040016040529081600082015481526020016001820180546114f39061354d565b80601f016020809104026020016040519081016040528092919081815260200182805461151f9061354d565b801561156c5780601f106115415761010080835404028352916020019161156c565b820191906000526020600020905b81548152906001019060200180831161154f57829003601f168201915b505050505081525050815260200190600101906114b6565b50505050905090565b60603373ffffffffffffffffffffffffffffffffffffffff16600073ffffffffffffffffffffffffffffffffffffffff16146115fe576040517f08c379a00000000000000000000000000000000000000000000000000000000081526004016115f5906134fe565b60405180910390fd5b6000600567ffffffffffffffff81111561161b5761161a61357f565b5b60405190808252806020026020018201604052801561165457816020015b61164161310a565b8152602001906001900390816116395790505b5090506040518060400160405280600081526020016040518060400160405280600781526020017f4372656174656400000000000000000000000000000000000000000000000000815250815250816000815181106116b6576116b56135ae565b5b60200260200101819052506040518060400160405280600181526020016040518060400160405280600981526020017f546f417070726f76650000000000000000000000000000000000000000000000815250815250816001815181106117205761171f6135ae565b5b60200260200101819052506040518060400160405280600281526020016040518060400160405280600c81526020017f537461727450726f6a65637400000000000000000000000000000000000000008152508152508160028151811061178a576117896135ae565b5b60200260200101819052506040518060400160405280600381526020016040518060400160405280601181526020017f46696e616c697a6174696f6e436865636b000000000000000000000000000000815250815250816003815181106117f4576117f36135ae565b5b60200260200101819052506040518060400160405280600481526020016040518060400160405280600981526020017f436f6d706c6574656400000000000000000000000000000000000000000000008152508152508160048151811061185e5761185d6135ae565b5b60200260200101819052508091505090565b60603373ffffffffffffffffffffffffffffffffffffffff16600073ffffffffffffffffffffffffffffffffffffffff16146118e1576040517f08c379a00000000000000000000000000000000000000000000000000000000081526004016118d8906134fe565b60405180910390fd5b6003805480602002602001604051908101604052809291908181526020016000905b828210156119d15783829060005260206000209060020201604051806040016040529081600082015481526020016001820180546119409061354d565b80601f016020809104026020016040519081016040528092919081815260200182805461196c9061354d565b80156119b95780601f1061198e576101008083540402835291602001916119b9565b820191906000526020600020905b81548152906001019060200180831161199c57829003601f168201915b50505050508152505081526020019060010190611903565b50505050905090565b6119e261310a565b3373ffffffffffffffffffffffffffffffffffffffff16600073ffffffffffffffffffffffffffffffffffffffff1614611a51576040517f08c379a0000000000000000000000000000000000000000000000000000000008152600401611a48906134fe565b60405180910390fd5b611a5961310a565b6040518060400160405280600081526020016040518060400160405280600781526020017f437265617465640000000000000000000000000000000000000000000000000081525081525090508091505090565b60038181548110611abd57600080fd5b9060005260206000209060020201600091509050806000015490806001018054611ae69061354d565b80601f0160208091040260200160405190810160405280929190818152602001828054611b129061354d565b8015611b5f5780601f10611b3457610100808354040283529160200191611b5f565b820191906000526020600020905b815481529060010190602001808311611b4257829003601f168201915b5050505050905082565b60606040518060400160405280600b81526020017f5573657250726f6a656374000000000000000000000000000000000000000000815250905090565b60003373ffffffffffffffffffffffffffffffffffffffff16600073ffffffffffffffffffffffffffffffffffffffff1614611c17576040517f08c379a0000000000000000000000000000000000000000000000000000000008152600401611c0e906134fe565b60405180910390fd5b60005b600480549050811015611c71578260048281548110611c3c57611c3b6135ae565b5b9060005260206000209060020201600001541415611c5e576001915050611c77565b8080611c699061360c565b915050611c1a565b50600090505b919050565b60603373ffffffffffffffffffffffffffffffffffffffff16600073ffffffffffffffffffffffffffffffffffffffff1614611ced576040517f08c379a0000000000000000000000000000000000000000000000000000000008152600401611ce4906134fe565b60405180910390fd5b6004805480602002602001604051908101604052809291908181526020016000905b82821015611ddd578382906000526020600020906002020160405180604001604052908160008201548152602001600182018054611d4c9061354d565b80601f0160208091040260200160405190810160405280929190818152602001828054611d789061354d565b8015611dc55780601f10611d9a57610100808354040283529160200191611dc5565b820191906000526020600020905b815481529060010190602001808311611da857829003601f168201915b50505050508152505081526020019060010190611d0f565b50505050905090565b60018181548110611df657600080fd5b9060005260206000209060020201600091509050806000015490806001018054611e1f9061354d565b80601f0160208091040260200160405190810160405280929190818152602001828054611e4b9061354d565b8015611e985780601f10611e6d57610100808354040283529160200191611e98565b820191906000526020600020905b815481529060010190602001808311611e7b57829003601f168201915b5050505050905082565b60008181548110611eb257600080fd5b9060005260206000209060020201600091509050806000015490806001018054611edb9061354d565b80601f0160208091040260200160405190810160405280929190818152602001828054611f079061354d565b8015611f545780601f10611f2957610100808354040283529160200191611f54565b820191906000526020600020905b815481529060010190602001808311611f3757829003601f168201915b5050505050905082565b611f6661310a565b3373ffffffffffffffffffffffffffffffffffffffff16600073ffffffffffffffffffffffffffffffffffffffff1614611fd5576040517f08c379a0000000000000000000000000000000000000000000000000000000008152600401611fcc906134fe565b60405180910390fd5b611fdd61310a565b6040518060400160405280600181526020016040518060400160405280600a81526020017f436f6d70616e795265710000000000000000000000000000000000000000000081525081525090508091505090565b60603373ffffffffffffffffffffffffffffffffffffffff16600073ffffffffffffffffffffffffffffffffffffffff16146120a2576040517f08c379a0000000000000000000000000000000000000000000000000000000008152600401612099906134fe565b60405180910390fd5b6000600267ffffffffffffffff8111156120bf576120be61357f565b5b6040519080825280602002602001820160405280156120f857816020015b6120e561310a565b8152602001906001900390816120dd5790505b5090506040518060400160405280600081526020016040518060400160405280600d81526020017f53757065727669736f72526571000000000000000000000000000000000000008152508152508160008151811061215a576121596135ae565b5b60200260200101819052506040518060400160405280600181526020016040518060400160405280600a81526020017f436f6d70616e7952657100000000000000000000000000000000000000000000815250815250816001815181106121c4576121c36135ae565b5b60200260200101819052508091505090565b6121de61310a565b3373ffffffffffffffffffffffffffffffffffffffff16600073ffffffffffffffffffffffffffffffffffffffff161461224d576040517f08c379a0000000000000000000000000000000000000000000000000000000008152600401612244906134fe565b60405180910390fd5b61225561310a565b6040518060400160405280600081526020016040518060400160405280600d81526020017f53757065727669736f725265710000000000000000000000000000000000000081525081525090508091505090565b60606040518060400160405280600b81526020017f41646d696e4d6967687479000000000000000000000000000000000000000000815250905090565b60003373ffffffffffffffffffffffffffffffffffffffff16600073ffffffffffffffffffffffffffffffffffffffff1614612357576040517f08c379a000000000000000000000000000000000000000000000000000000000815260040161234e906134fe565b60405180910390fd5b60005b6000805490508110156123b157826000828154811061237c5761237b6135ae565b5b906000526020600020906002020160000154141561239e5760019150506123b7565b80806123a99061360c565b91505061235a565b50600090505b919050565b60603373ffffffffffffffffffffffffffffffffffffffff16600073ffffffffffffffffffffffffffffffffffffffff161461242d576040517f08c379a0000000000000000000000000000000000000000000000000000000008152600401612424906134fe565b60405180910390fd5b6040518060600160405280602a8152602001613656602a9139905090565b60606040518060400160405280600781526020017f436f6d70616e7900000000000000000000000000000000000000000000000000815250905090565b60003373ffffffffffffffffffffffffffffffffffffffff16600073ffffffffffffffffffffffffffffffffffffffff16146124f9576040517f08c379a00000000000000000000000000000000000000000000000000000000081526004016124f0906134fe565b60405180910390fd5b60005b60028054905081101561255357826002828154811061251e5761251d6135ae565b5b9060005260206000209060020201600001541415612540576001915050612559565b808061254b9061360c565b9150506124fc565b50600090505b919050565b60603373ffffffffffffffffffffffffffffffffffffffff16600073ffffffffffffffffffffffffffffffffffffffff16146125cf576040517f08c379a00000000000000000000000000000000000000000000000000000000081526004016125c6906134fe565b60405180910390fd5b6000600467ffffffffffffffff8111156125ec576125eb61357f565b5b60405190808252806020026020018201604052801561262557816020015b61261261310a565b81526020019060019003908161260a5790505b5090506040518060400160405280600081526020016040518060400160405280600b81526020017f44656661756c74526f6c6500000000000000000000000000000000000000000081525081525081600081518110612687576126866135ae565b5b60200260200101819052506040518060400160405280600181526020016040518060400160405280600b81526020017f5573657250726f6a656374000000000000000000000000000000000000000000815250815250816001815181106126f1576126f06135ae565b5b60200260200101819052506040518060400160405280600281526020016040518060400160405280600781526020017f436f6d70616e79000000000000000000000000000000000000000000000000008152508152508160028151811061275b5761275a6135ae565b5b60200260200101819052506040518060400160405280600381526020016040518060400160405280600a81526020017f53757065727669736f7200000000000000000000000000000000000000000000815250815250816003815181106127c5576127c46135ae565b5b60200260200101819052508091505090565b60003373ffffffffffffffffffffffffffffffffffffffff16600073ffffffffffffffffffffffffffffffffffffffff1614612848576040517f08c379a000000000000000000000000000000000000000000000000000000000815260040161283f906134fe565b60405180910390fd5b60005b6001805490508110156128a257826001828154811061286d5761286c6135ae565b5b906000526020600020906002020160000154141561288f5760019150506128a8565b808061289a9061360c565b91505061284b565b50600090505b919050565b6128b561310a565b3373ffffffffffffffffffffffffffffffffffffffff16600073ffffffffffffffffffffffffffffffffffffffff1614612924576040517f08c379a000000000000000000000000000000000000000000000000000000000815260040161291b906134fe565b60405180910390fd5b61292c61310a565b6040518060400160405280600081526020016040518060400160405280600a81526020017f556e417070726f7665640000000000000000000000000000000000000000000081525081525090508091505090565b60003373ffffffffffffffffffffffffffffffffffffffff16600073ffffffffffffffffffffffffffffffffffffffff16146129f1576040517f08c379a00000000000000000000000000000000000000000000000000000000081526004016129e8906134fe565b60405180910390fd5b60005b600380549050811015612a4b578260038281548110612a1657612a156135ae565b5b9060005260206000209060020201600001541415612a38576001915050612a51565b8080612a439061360c565b9150506129f4565b50600090505b919050565b60603373ffffffffffffffffffffffffffffffffffffffff16600073ffffffffffffffffffffffffffffffffffffffff1614612ac7576040517f08c379a0000000000000000000000000000000000000000000000000000000008152600401612abe906134fe565b60405180910390fd5b6000600367ffffffffffffffff811115612ae457612ae361357f565b5b604051908082528060200260200182016040528015612b1d57816020015b612b0a61310a565b815260200190600190039081612b025790505b5090506040518060400160405280600081526020016040518060400160405280600a81526020017f556e417070726f7665640000000000000000000000000000000000000000000081525081525081600081518110612b7f57612b7e6135ae565b5b60200260200101819052506040518060400160405280600181526020016040518060400160405280600881526020017f52656a656374656400000000000000000000000000000000000000000000000081525081525081600181518110612be957612be86135ae565b5b60200260200101819052506040518060400160405280600281526020016040518060400160405280600881526020017f417070726f76656400000000000000000000000000000000000000000000000081525081525081600281518110612c5357612c526135ae565b5b60200260200101819052508091505090565b612c6d61310a565b3373ffffffffffffffffffffffffffffffffffffffff16600073ffffffffffffffffffffffffffffffffffffffff1614612cdc576040517f08c379a0000000000000000000000000000000000000000000000000000000008152600401612cd3906134fe565b60405180910390fd5b612ce461310a565b6040518060400160405280600481526020016040518060400160405280600981526020017f436f6d706c65746564000000000000000000000000000000000000000000000081525081525090508091505090565b60606040518060400160405280600a81526020017f53757065727669736f7200000000000000000000000000000000000000000000815250905090565b60603373ffffffffffffffffffffffffffffffffffffffff16600073ffffffffffffffffffffffffffffffffffffffff1614612de6576040517f08c379a0000000000000000000000000000000000000000000000000000000008152600401612ddd906134fe565b60405180910390fd5b6001805480602002602001604051908101604052809291908181526020016000905b82821015612ed6578382906000526020600020906002020160405180604001604052908160008201548152602001600182018054612e459061354d565b80601f0160208091040260200160405190810160405280929190818152602001828054612e719061354d565b8015612ebe5780601f10612e9357610100808354040283529160200191612ebe565b820191906000526020600020905b815481529060010190602001808311612ea157829003601f168201915b50505050508152505081526020019060010190612e08565b50505050905090565b60603373ffffffffffffffffffffffffffffffffffffffff16600073ffffffffffffffffffffffffffffffffffffffff1614612f50576040517f08c379a0000000000000000000000000000000000000000000000000000000008152600401612f47906134fe565b60405180910390fd5b6000600267ffffffffffffffff811115612f6d57612f6c61357f565b5b604051908082528060200260200182016040528015612fa657816020015b612f9361310a565b815260200190600190039081612f8b5790505b5090506040518060400160405280600181526020016040518060400160405280600881526020017f52656a656374656400000000000000000000000000000000000000000000000081525081525081600081518110613008576130076135ae565b5b60200260200101819052506040518060400160405280600281526020016040518060400160405280600881526020017f417070726f76656400000000000000000000000000000000000000000000000081525081525081600181518110613072576130716135ae565b5b60200260200101819052508091505090565b8280546130909061354d565b90600052602060002090601f0160209004810192826130b257600085556130f9565b82601f106130cb57805160ff19168380011785556130f9565b828001600101855582156130f9579182015b828111156130f85782518255916020019190600101906130dd565b5b5090506131069190613124565b5090565b604051806040016040528060008152602001606081525090565b5b8082111561313d576000816000905550600101613125565b5090565b600081519050919050565b600082825260208201905092915050565b6000819050602082019050919050565b6000819050919050565b6131808161316d565b82525050565b600081519050919050565b600082825260208201905092915050565b60005b838110156131c05780820151818401526020810190506131a5565b838111156131cf576000848401525b50505050565b6000601f19601f8301169050919050565b60006131f182613186565b6131fb8185613191565b935061320b8185602086016131a2565b613214816131d5565b840191505092915050565b60006040830160008301516132376000860182613177565b506020830151848203602086015261324f82826131e6565b9150508091505092915050565b6000613268838361321f565b905092915050565b6000602082019050919050565b600061328882613141565b613292818561314c565b9350836020820285016132a48561315d565b8060005b858110156132e057848403895281516132c1858261325c565b94506132cc83613270565b925060208a019950506001810190506132a8565b50829750879550505050505092915050565b6000602082019050818103600083015261330c818461327d565b905092915050565b600082825260208201905092915050565b600061333082613186565b61333a8185613314565b935061334a8185602086016131a2565b613353816131d5565b840191505092915050565b600060208201905081810360008301526133788184613325565b905092915050565b600080fd5b61338e8161316d565b811461339957600080fd5b50565b6000813590506133ab81613385565b92915050565b6000602082840312156133c7576133c6613380565b5b60006133d58482850161339c565b91505092915050565b6133e78161316d565b82525050565b600060408201905061340260008301856133de565b81810360208301526134148184613325565b90509392505050565b60006040830160008301516134356000860182613177565b506020830151848203602086015261344d82826131e6565b9150508091505092915050565b60006020820190508181036000830152613474818461341d565b905092915050565b60008115159050919050565b6134918161347c565b82525050565b60006020820190506134ac6000830184613488565b92915050565b7f5468652061646472657373206973206e6f742076616c69642e00000000000000600082015250565b60006134e8601983613314565b91506134f3826134b2565b602082019050919050565b60006020820190508181036000830152613517816134db565b9050919050565b7f4e487b7100000000000000000000000000000000000000000000000000000000600052602260045260246000fd5b6000600282049050600182168061356557607f821691505b602082108114156135795761357861351e565b5b50919050565b7f4e487b7100000000000000000000000000000000000000000000000000000000600052604160045260246000fd5b7f4e487b7100000000000000000000000000000000000000000000000000000000600052603260045260246000fd5b7f4e487b7100000000000000000000000000000000000000000000000000000000600052601160045260246000fd5b60006136178261316d565b91507fffffffffffffffffffffffffffffffffffffffffffffffffffffffffffffffff82141561364a576136496135dd565b5b60018201905091905056fe307830303030303030303030303030303030303030303030303030303030303030303030303030303030a2646970667358221220fda435d9dd33e6dad5068589ff5d347cb2d1672f555a6227717bc423de566d7664736f6c634300080a0033",
  "immutableReferences": {},
  "source": "// SPDX-License-Identifier: MIT\r\npragma solidity >=0.8.0 <0.9.0;\r\n\r\ncontract ServiceChain {\r\n\r\n    struct Dropdown {\r\n        uint256 id;\r\n        string value;\r\n    }\r\n\r\n    Dropdown[] public requestType;\r\n    Dropdown[] public requestStatusForm;\r\n    Dropdown[] public requestStatus;\r\n    Dropdown[] public projectStatus;\r\n    Dropdown[] public userRole;\r\n\r\n    constructor() {}\r\n\r\n    modifier onlyOwner() {\r\n        require(address(0x0) == msg.sender, \"The address is not valid.\");\r\n        _;\r\n    }\r\n\r\n    function getAddressZeroValue() public pure returns (string memory) {\r\n        return \"0x0000000000000000000000000000000000000000\";\r\n    }\r\n\r\n    function getAdminRole() public pure returns (string memory) {\r\n        return \"AdminMighty\";\r\n    }\r\n\r\n    function getDefaultRole() public pure returns (string memory) {\r\n        return \"DefaultRole\";\r\n    }\r\n\r\n    function getUserProjectRole() public pure returns (string memory) {\r\n        return \"UserProject\";\r\n    }\r\n\r\n    function getCompanyRole() public pure returns (string memory) {\r\n        return \"Company\";\r\n    }\r\n\r\n    function getSupervisorRole() public pure returns (string memory) {\r\n        return \"Supervisor\";\r\n    }\r\n\r\n\r\n    function createDropdowns() public onlyOwner {\r\n        requestType.push(Dropdown(0, 'SupervisorReq'));\r\n        requestType.push(Dropdown(1, 'CompanyReq'));\r\n\r\n        requestStatusForm.push(Dropdown(1, 'Rejected'));\r\n        requestStatusForm.push(Dropdown(2, 'Approved'));\r\n\r\n        requestStatus.push(Dropdown(0, 'UnApproved'));\r\n        requestStatus.push(Dropdown(1, 'Rejected'));\r\n        requestStatus.push(Dropdown(2, 'Approved'));\r\n\r\n        projectStatus.push(Dropdown(0, 'Created'));\r\n        projectStatus.push(Dropdown(1, 'ToApprove'));\r\n        projectStatus.push(Dropdown(2, 'StartProject'));\r\n        projectStatus.push(Dropdown(3, 'FinalizationCheck'));\r\n        projectStatus.push(Dropdown(4, 'Completed'));\r\n\r\n        userRole.push(Dropdown(0, 'DefaultRole'));\r\n        userRole.push(Dropdown(1, 'UserProject'));\r\n        userRole.push(Dropdown(2, 'Company'));\r\n        userRole.push(Dropdown(3, 'Supervisor'));\r\n    }\r\n\r\n    /** Methods: Check if Dropdown option exists */\r\n\r\n    function checkRequestTypeDropdown(uint256 _id) public view onlyOwner returns (bool) {\r\n        for (uint256 index = 0; index < requestType.length; index++) {\r\n            if (requestType[index].id == _id) {\r\n                return true;\r\n            }\r\n        }\r\n        return false;\r\n    }\r\n\r\n    function checkRequestStatusFormDropdown(uint256 _id) public view onlyOwner returns (bool) {\r\n        for (uint256 index = 0; index < requestStatusForm.length; index++) {\r\n            if (requestStatusForm[index].id == _id) {\r\n                return true;\r\n            }\r\n        }\r\n        return false;\r\n    }\r\n\r\n    function checkRequestStatusDropdown(uint256 _id) public view onlyOwner returns (bool) {\r\n        for (uint256 index = 0; index < requestStatus.length; index++) {\r\n            if (requestStatus[index].id == _id) {\r\n                return true;\r\n            }\r\n        }\r\n        return false;\r\n    }\r\n\r\n    function checkProjectStatusDropdown(uint256 _id) public view onlyOwner returns (bool) {\r\n        for (uint256 index = 0; index < projectStatus.length; index++) {\r\n            if (projectStatus[index].id == _id) {\r\n                return true;\r\n            }\r\n        }\r\n        return false;\r\n    }\r\n\r\n    function checkUserRoleDropdown(uint256 _id) public view onlyOwner returns (bool) {\r\n        for (uint256 index = 0; index < userRole.length; index++) {\r\n            if (userRole[index].id == _id) {\r\n                return true;\r\n            }\r\n        }\r\n        return false;\r\n    }\r\n\r\n    /** Get Dropdown[] Array */\r\n\r\n    function getAllRequestTypeDropdown() public view onlyOwner returns (Dropdown[] memory) {\r\n        return requestType;\r\n    }\r\n\r\n    function getAllRequestStatusFormDropdown() public view onlyOwner returns (Dropdown[] memory) {\r\n        return requestStatusForm;\r\n    }\r\n\r\n    function getAllRequestStatusDropdown() public view onlyOwner returns (Dropdown[] memory) {\r\n        return requestStatus;\r\n    }\r\n\r\n    function getAllProjectStatusDropdown() public view onlyOwner returns (Dropdown[] memory) {\r\n        return projectStatus;\r\n    }\r\n\r\n    function getAllUserRoleDropdown() public view onlyOwner returns (Dropdown[] memory) {\r\n        return userRole;\r\n    }\r\n\r\n\r\n    /** Return Address with value 0 */\r\n    function getAddressZero() public view onlyOwner returns(string memory) {\r\n        return \"0x0000000000000000000000000000000000000000\";\r\n    }\r\n\r\n    /*** Methods for Dropdowns */\r\n\r\n    function getCompletedProjectStatus() public view onlyOwner returns(Dropdown memory) {\r\n        Dropdown memory typeData;\r\n        typeData = Dropdown(4, 'Completed');\r\n        return typeData;\r\n    }\r\n\r\n    function getSupervisorRequestType() public view onlyOwner returns(Dropdown memory) {\r\n        Dropdown memory typeData;\r\n        typeData = Dropdown(0, 'SupervisorReq');\r\n        return typeData;\r\n    }\r\n\r\n    function getCompanyRequestType() public view onlyOwner returns(Dropdown memory) {\r\n        Dropdown memory typeData;\r\n        typeData = Dropdown(1, 'CompanyReq');\r\n        return typeData;\r\n    }\r\n\r\n    function getDefaultProjectStatus() public view onlyOwner returns(Dropdown memory) {\r\n        Dropdown memory typeData;\r\n        typeData = Dropdown(0, 'Created');\r\n        return typeData;\r\n    }\r\n\r\n    function getDefaultRequestStatus() public view onlyOwner returns(Dropdown memory) {\r\n        Dropdown memory typeData;\r\n        typeData = Dropdown(0, 'UnApproved');\r\n        return typeData;\r\n    }\r\n\r\n    /*** Dropdowns */\r\n\r\n    function getRequestTypeDropdown() public view onlyOwner returns(Dropdown[] memory) {\r\n        Dropdown[] memory data = new Dropdown[](2);\r\n        data[0] = Dropdown(0, 'SupervisorReq');\r\n        data[1] = Dropdown(1, 'CompanyReq');\r\n        return data;\r\n    }\r\n\r\n    function getRequestStatusFormDropdown() public view onlyOwner returns(Dropdown[] memory) {\r\n        Dropdown[] memory data = new Dropdown[](2);\r\n        data[0] = Dropdown(1, 'Rejected');\r\n        data[1] = Dropdown(2, 'Approved');\r\n        return data;\r\n    }\r\n\r\n    function getRequestStatusDropdown() public view onlyOwner returns(Dropdown[] memory) {\r\n        Dropdown[] memory data = new Dropdown[](3);\r\n        data[0] = Dropdown(0, 'UnApproved');\r\n        data[1] = Dropdown(1, 'Rejected');\r\n        data[2] = Dropdown(2, 'Approved');\r\n        return data;\r\n    }\r\n\r\n    function getProjectStatusDropdown() public view onlyOwner returns(Dropdown[] memory) {\r\n        Dropdown[] memory data = new Dropdown[](5);\r\n        data[0] = Dropdown(0, 'Created');\r\n        data[1] = Dropdown(1, 'ToApprove');\r\n        data[2] = Dropdown(2, 'StartProject');\r\n        data[3] = Dropdown(3, 'FinalizationCheck');\r\n        data[4] = Dropdown(4, 'Completed');\r\n        return data;\r\n    }\r\n\r\n    function getUserRoleDropdown() public view onlyOwner returns(Dropdown[] memory) {\r\n        Dropdown[] memory data = new Dropdown[](4);\r\n        data[0] = Dropdown(0, 'DefaultRole');\r\n        data[1] = Dropdown(1, 'UserProject');\r\n        data[2] = Dropdown(2, 'Company');\r\n        data[3] = Dropdown(3, 'Supervisor');\r\n        return data;\r\n    }\r\n}\r\n",
  "sourcePath": "/mnt/c/Users/Beniamin/source/repos/DissertationProject/contracts/ServiceChain.sol",
  "compiler": {
    "name": "solc",
    "version": "0.8.10+commit.fc410830.Emscripten.clang"
  },
  "schemaVersion": "3.4.3",
  "updatedAt": "2021-12-11T18:27:43.584Z",
  "networkType": "ethereum",
  "devdoc": {
    "kind": "dev",
    "methods": {},
    "version": 1
  },
  "userdoc": {
    "kind": "user",
    "methods": {
      "checkRequestTypeDropdown(uint256)": {
        "notice": "Methods: Check if Dropdown option exists "
      },
      "getAddressZero()": {
        "notice": "Return Address with value 0 "
      },
      "getAllRequestTypeDropdown()": {
        "notice": "Get Dropdown[] Array "
      }
    },
    "version": 1
  }
}