{
  "contractName": "ServiceChain",
  "abi": [
    {
      "inputs": [],
      "stateMutability": "nonpayable",
      "type": "constructor"
    },
    {
      "anonymous": false,
      "inputs": [
        {
          "components": [
            {
              "internalType": "uint256",
              "name": "_index",
              "type": "uint256"
            },
            {
              "internalType": "string",
              "name": "_name",
              "type": "string"
            },
            {
              "internalType": "enum SharedChain.ProjectStatus",
              "name": "_status",
              "type": "uint8"
            },
            {
              "internalType": "string",
              "name": "_ipfsFileCID",
              "type": "string"
            },
            {
              "internalType": "address",
              "name": "_projectAddress",
              "type": "address"
            },
            {
              "internalType": "address",
              "name": "_signerAddress",
              "type": "address"
            },
            {
              "internalType": "address",
              "name": "_companyAddress",
              "type": "address"
            },
            {
              "internalType": "bool",
              "name": "_assigned",
              "type": "bool"
            },
            {
              "internalType": "uint256",
              "name": "_timestamp",
              "type": "uint256"
            },
            {
              "internalType": "string",
              "name": "_signature",
              "type": "string"
            }
          ],
          "indexed": false,
          "internalType": "struct SharedChain.Project",
          "name": "_project",
          "type": "tuple"
        },
        {
          "indexed": true,
          "internalType": "address",
          "name": "_projectAddress",
          "type": "address"
        },
        {
          "indexed": true,
          "internalType": "address",
          "name": "_companyAddress",
          "type": "address"
        }
      ],
      "name": "ProjectEvent",
      "type": "event"
    },
    {
      "anonymous": false,
      "inputs": [
        {
          "components": [
            {
              "internalType": "uint256",
              "name": "_index",
              "type": "uint256"
            },
            {
              "internalType": "string",
              "name": "_title",
              "type": "string"
            },
            {
              "internalType": "string",
              "name": "_comments",
              "type": "string"
            },
            {
              "internalType": "enum SharedChain.ProjectStatus",
              "name": "_projectStatus",
              "type": "uint8"
            },
            {
              "internalType": "enum SharedChain.RequestStatus",
              "name": "_requestStatus",
              "type": "uint8"
            },
            {
              "internalType": "enum SharedChain.RequestType",
              "name": "_requestType",
              "type": "uint8"
            },
            {
              "internalType": "address",
              "name": "_projectAddress",
              "type": "address"
            },
            {
              "internalType": "address",
              "name": "_requestAddress",
              "type": "address"
            },
            {
              "internalType": "address",
              "name": "_signerAddress",
              "type": "address"
            },
            {
              "internalType": "uint256",
              "name": "_timestamp",
              "type": "uint256"
            },
            {
              "internalType": "string",
              "name": "_signature",
              "type": "string"
            }
          ],
          "indexed": false,
          "internalType": "struct SharedChain.Request",
          "name": "_request",
          "type": "tuple"
        },
        {
          "indexed": true,
          "internalType": "address",
          "name": "_requestAddress",
          "type": "address"
        },
        {
          "indexed": true,
          "internalType": "address",
          "name": "_projectAddress",
          "type": "address"
        }
      ],
      "name": "RequestEvent",
      "type": "event"
    },
    {
      "anonymous": false,
      "inputs": [
        {
          "components": [
            {
              "internalType": "bytes32",
              "name": "_firstname",
              "type": "bytes32"
            },
            {
              "internalType": "bytes32",
              "name": "_lastname",
              "type": "bytes32"
            },
            {
              "internalType": "enum SharedChain.Roles",
              "name": "_role",
              "type": "uint8"
            },
            {
              "internalType": "address",
              "name": "_walletAddress",
              "type": "address"
            },
            {
              "internalType": "uint256",
              "name": "_timestamp",
              "type": "uint256"
            }
          ],
          "indexed": false,
          "internalType": "struct SharedChain.User",
          "name": "_user",
          "type": "tuple"
        },
        {
          "indexed": true,
          "internalType": "address",
          "name": "_walletAddress",
          "type": "address"
        }
      ],
      "name": "UserEvent",
      "type": "event"
    },
    {
      "inputs": [
        {
          "internalType": "uint256",
          "name": "_role",
          "type": "uint256"
        },
        {
          "internalType": "address",
          "name": "_walletAddress",
          "type": "address"
        }
      ],
      "name": "changeUserRole",
      "outputs": [],
      "stateMutability": "nonpayable",
      "type": "function"
    },
    {
      "inputs": [],
      "name": "getAllUsers",
      "outputs": [
        {
          "components": [
            {
              "internalType": "bytes32",
              "name": "_firstname",
              "type": "bytes32"
            },
            {
              "internalType": "bytes32",
              "name": "_lastname",
              "type": "bytes32"
            },
            {
              "internalType": "enum SharedChain.Roles",
              "name": "_role",
              "type": "uint8"
            },
            {
              "internalType": "address",
              "name": "_walletAddress",
              "type": "address"
            },
            {
              "internalType": "uint256",
              "name": "_timestamp",
              "type": "uint256"
            }
          ],
          "internalType": "struct SharedChain.User[]",
          "name": "",
          "type": "tuple[]"
        }
      ],
      "stateMutability": "view",
      "type": "function",
      "constant": true
    },
    {
      "inputs": [
        {
          "internalType": "address",
          "name": "_walletAddress",
          "type": "address"
        }
      ],
      "name": "getUserInfo",
      "outputs": [
        {
          "components": [
            {
              "internalType": "bytes32",
              "name": "_firstname",
              "type": "bytes32"
            },
            {
              "internalType": "bytes32",
              "name": "_lastname",
              "type": "bytes32"
            },
            {
              "internalType": "enum SharedChain.Roles",
              "name": "_role",
              "type": "uint8"
            },
            {
              "internalType": "address",
              "name": "_walletAddress",
              "type": "address"
            },
            {
              "internalType": "uint256",
              "name": "_timestamp",
              "type": "uint256"
            }
          ],
          "internalType": "struct SharedChain.User",
          "name": "",
          "type": "tuple"
        }
      ],
      "stateMutability": "view",
      "type": "function",
      "constant": true
    },
    {
      "inputs": [],
      "name": "owner",
      "outputs": [
        {
          "internalType": "address",
          "name": "",
          "type": "address"
        }
      ],
      "stateMutability": "view",
      "type": "function",
      "constant": true
    },
    {
      "inputs": [
        {
          "internalType": "uint256",
          "name": "",
          "type": "uint256"
        }
      ],
      "name": "projectStatus",
      "outputs": [
        {
          "internalType": "uint256",
          "name": "id",
          "type": "uint256"
        },
        {
          "internalType": "string",
          "name": "value",
          "type": "string"
        }
      ],
      "stateMutability": "view",
      "type": "function",
      "constant": true
    },
    {
      "inputs": [
        {
          "internalType": "bytes32",
          "name": "_firstname",
          "type": "bytes32"
        },
        {
          "internalType": "bytes32",
          "name": "_lastname",
          "type": "bytes32"
        },
        {
          "internalType": "uint256",
          "name": "_role",
          "type": "uint256"
        },
        {
          "internalType": "address",
          "name": "_walletAddress",
          "type": "address"
        }
      ],
      "name": "registerUser",
      "outputs": [],
      "stateMutability": "nonpayable",
      "type": "function"
    },
    {
      "inputs": [
        {
          "internalType": "uint256",
          "name": "",
          "type": "uint256"
        }
      ],
      "name": "requestStatus",
      "outputs": [
        {
          "internalType": "uint256",
          "name": "id",
          "type": "uint256"
        },
        {
          "internalType": "string",
          "name": "value",
          "type": "string"
        }
      ],
      "stateMutability": "view",
      "type": "function",
      "constant": true
    },
    {
      "inputs": [
        {
          "internalType": "uint256",
          "name": "",
          "type": "uint256"
        }
      ],
      "name": "requestStatusForm",
      "outputs": [
        {
          "internalType": "uint256",
          "name": "id",
          "type": "uint256"
        },
        {
          "internalType": "string",
          "name": "value",
          "type": "string"
        }
      ],
      "stateMutability": "view",
      "type": "function",
      "constant": true
    },
    {
      "inputs": [
        {
          "internalType": "uint256",
          "name": "",
          "type": "uint256"
        }
      ],
      "name": "requestType",
      "outputs": [
        {
          "internalType": "uint256",
          "name": "id",
          "type": "uint256"
        },
        {
          "internalType": "string",
          "name": "value",
          "type": "string"
        }
      ],
      "stateMutability": "view",
      "type": "function",
      "constant": true
    },
    {
      "inputs": [
        {
          "internalType": "uint256",
          "name": "",
          "type": "uint256"
        }
      ],
      "name": "userRole",
      "outputs": [
        {
          "internalType": "uint256",
          "name": "id",
          "type": "uint256"
        },
        {
          "internalType": "string",
          "name": "value",
          "type": "string"
        }
      ],
      "stateMutability": "view",
      "type": "function",
      "constant": true
    },
    {
      "inputs": [
        {
          "internalType": "address",
          "name": "",
          "type": "address"
        }
      ],
      "name": "users",
      "outputs": [
        {
          "internalType": "bytes32",
          "name": "_firstname",
          "type": "bytes32"
        },
        {
          "internalType": "bytes32",
          "name": "_lastname",
          "type": "bytes32"
        },
        {
          "internalType": "enum SharedChain.Roles",
          "name": "_role",
          "type": "uint8"
        },
        {
          "internalType": "address",
          "name": "_walletAddress",
          "type": "address"
        },
        {
          "internalType": "uint256",
          "name": "_timestamp",
          "type": "uint256"
        }
      ],
      "stateMutability": "view",
      "type": "function",
      "constant": true
    },
    {
      "inputs": [],
      "name": "usersCounter",
      "outputs": [
        {
          "internalType": "uint256",
          "name": "",
          "type": "uint256"
        }
      ],
      "stateMutability": "view",
      "type": "function",
      "constant": true
    },
    {
      "inputs": [
        {
          "internalType": "uint256",
          "name": "_projectStatus",
          "type": "uint256"
        }
      ],
      "name": "checkPermissionUserProject",
      "outputs": [
        {
          "internalType": "bool",
          "name": "",
          "type": "bool"
        }
      ],
      "stateMutability": "view",
      "type": "function",
      "constant": true
    },
    {
      "inputs": [
        {
          "internalType": "uint256",
          "name": "_projectStatus",
          "type": "uint256"
        }
      ],
      "name": "checkPermissionCompany",
      "outputs": [
        {
          "internalType": "bool",
          "name": "",
          "type": "bool"
        }
      ],
      "stateMutability": "view",
      "type": "function",
      "constant": true
    },
    {
      "inputs": [],
      "name": "getAddressZeroValue",
      "outputs": [
        {
          "internalType": "string",
          "name": "",
          "type": "string"
        }
      ],
      "stateMutability": "view",
      "type": "function",
      "constant": true
    },
    {
      "inputs": [],
      "name": "getAdminRole",
      "outputs": [
        {
          "internalType": "string",
          "name": "",
          "type": "string"
        }
      ],
      "stateMutability": "view",
      "type": "function",
      "constant": true
    },
    {
      "inputs": [],
      "name": "getDefaultRole",
      "outputs": [
        {
          "internalType": "string",
          "name": "",
          "type": "string"
        }
      ],
      "stateMutability": "view",
      "type": "function",
      "constant": true
    },
    {
      "inputs": [],
      "name": "getUserProjectRole",
      "outputs": [
        {
          "internalType": "string",
          "name": "",
          "type": "string"
        }
      ],
      "stateMutability": "view",
      "type": "function",
      "constant": true
    },
    {
      "inputs": [],
      "name": "getCompanyRole",
      "outputs": [
        {
          "internalType": "string",
          "name": "",
          "type": "string"
        }
      ],
      "stateMutability": "view",
      "type": "function",
      "constant": true
    },
    {
      "inputs": [],
      "name": "getSupervisorRole",
      "outputs": [
        {
          "internalType": "string",
          "name": "",
          "type": "string"
        }
      ],
      "stateMutability": "view",
      "type": "function",
      "constant": true
    }
  ],
  "bytecode": "0x6080604052336000806101000a81548173ffffffffffffffffffffffffffffffffffffffff021916908373ffffffffffffffffffffffffffffffffffffffff160217905550600060025534801561005557600080fd5b50336000806101000a81548173ffffffffffffffffffffffffffffffffffffffff021916908373ffffffffffffffffffffffffffffffffffffffff160217905550612818806100a56000396000f3fe608060405234801561001057600080fd5b506004361061012c5760003560e01c8063666a1605116100ad578063b3ecf23611610071578063b3ecf2361461039a578063bd3af6f1146103b8578063d67b1b99146103d6578063e2842d79146103f4578063f66075df146104125761012c565b8063666a1605146102ca5780636d8b2efa146102fb5780638da5cb5b1461032c578063910097861461034a578063a87430ba146103665761012c565b80633000d7f9116100f45780633000d7f9146101fe57806332cf3d551461021a57806350ac58921461024b57806358f6f52a1461027c5780636386c1c71461029a5761012c565b8063131cb2cf1461013157806317f7c8d0146101615780631a3132021461017f578063264dfdb5146101b057806326b5e4e0146101e0575b600080fd5b61014b60048036038101906101469190611e56565b610430565b6040516101589190611e9e565b60405180910390f35b6101696105ed565b6040516101769190611f52565b60405180910390f35b61019960048036038101906101949190611e56565b610733565b6040516101a7929190611f83565b60405180910390f35b6101ca60048036038101906101c59190611e56565b6107ef565b6040516101d79190611e9e565b60405180910390f35b6101e86109aa565b6040516101f59190611f52565b60405180910390f35b61021860048036038101906102139190612047565b610b0d565b005b610234600480360381019061022f9190611e56565b610e50565b604051610242929190611f83565b60405180910390f35b61026560048036038101906102609190611e56565b610f0c565b604051610273929190611f83565b60405180910390f35b610284610fc8565b6040516102919190611f52565b60405180910390f35b6102b460048036038101906102af91906120ae565b61112b565b6040516102c191906121e7565b60405180910390f35b6102e460048036038101906102df9190611e56565b611303565b6040516102f2929190611f83565b60405180910390f35b61031560048036038101906103109190611e56565b6113bf565b604051610323929190611f83565b60405180910390f35b61033461147b565b6040516103419190612211565b60405180910390f35b610364600480360381019061035f919061222c565b61149f565b005b610380600480360381019061037b91906120ae565b611680565b60405161039195949392919061228a565b60405180910390f35b6103a26116e3565b6040516103af9190611f52565b60405180910390f35b6103c0611846565b6040516103cd9190611f52565b60405180910390f35b6103de6119a9565b6040516103eb91906122dd565b60405180910390f35b6103fc6119af565b604051610409919061240f565b60405180910390f35b61041a611c5b565b6040516104279190611f52565b60405180910390f35b60003373ffffffffffffffffffffffffffffffffffffffff1660008054906101000a900473ffffffffffffffffffffffffffffffffffffffff1673ffffffffffffffffffffffffffffffffffffffff16148061051957503373ffffffffffffffffffffffffffffffffffffffff16600160003373ffffffffffffffffffffffffffffffffffffffff1673ffffffffffffffffffffffffffffffffffffffff16815260200190815260200160002060020160019054906101000a900473ffffffffffffffffffffffffffffffffffffffff1673ffffffffffffffffffffffffffffffffffffffff16145b610558576040517f08c379a000000000000000000000000000000000000000000000000000000000815260040161054f9061247d565b60405180910390fd5b6000600481111561056c5761056b6120ea565b5b82600481111561057f5761057e6120ea565b5b6004811115610591576105906120ea565b5b1415806105d55750600160048111156105ad576105ac6120ea565b5b8260048111156105c0576105bf6120ea565b5b60048111156105d2576105d16120ea565b5b14155b156105e357600190506105e8565b600090505b919050565b60603373ffffffffffffffffffffffffffffffffffffffff1660008054906101000a900473ffffffffffffffffffffffffffffffffffffffff1673ffffffffffffffffffffffffffffffffffffffff1614806106d657503373ffffffffffffffffffffffffffffffffffffffff16600160003373ffffffffffffffffffffffffffffffffffffffff1673ffffffffffffffffffffffffffffffffffffffff16815260200190815260200160002060020160019054906101000a900473ffffffffffffffffffffffffffffffffffffffff1673ffffffffffffffffffffffffffffffffffffffff16145b610715576040517f08c379a000000000000000000000000000000000000000000000000000000000815260040161070c9061247d565b60405180910390fd5b6040518060600160405280602a81526020016127b9602a9139905090565b6006818154811061074357600080fd5b906000526020600020906002020160009150905080600001549080600101805461076c906124cc565b80601f0160208091040260200160405190810160405280929190818152602001828054610798906124cc565b80156107e55780601f106107ba576101008083540402835291602001916107e5565b820191906000526020600020905b8154815290600101906020018083116107c857829003601f168201915b5050505050905082565b60003373ffffffffffffffffffffffffffffffffffffffff1660008054906101000a900473ffffffffffffffffffffffffffffffffffffffff1673ffffffffffffffffffffffffffffffffffffffff1614806108d857503373ffffffffffffffffffffffffffffffffffffffff16600160003373ffffffffffffffffffffffffffffffffffffffff1673ffffffffffffffffffffffffffffffffffffffff16815260200190815260200160002060020160019054906101000a900473ffffffffffffffffffffffffffffffffffffffff1673ffffffffffffffffffffffffffffffffffffffff16145b610917576040517f08c379a000000000000000000000000000000000000000000000000000000000815260040161090e9061247d565b60405180910390fd5b6000600481111561092b5761092a6120ea565b5b82600481111561093e5761093d6120ea565b5b60048111156109505761094f6120ea565b5b148061099257506001600481111561096b5761096a6120ea565b5b82600481111561097e5761097d6120ea565b5b60048111156109905761098f6120ea565b5b145b156109a057600190506109a5565b600090505b919050565b60603373ffffffffffffffffffffffffffffffffffffffff1660008054906101000a900473ffffffffffffffffffffffffffffffffffffffff1673ffffffffffffffffffffffffffffffffffffffff161480610a9357503373ffffffffffffffffffffffffffffffffffffffff16600160003373ffffffffffffffffffffffffffffffffffffffff1673ffffffffffffffffffffffffffffffffffffffff16815260200190815260200160002060020160019054906101000a900473ffffffffffffffffffffffffffffffffffffffff1673ffffffffffffffffffffffffffffffffffffffff16145b610ad2576040517f08c379a0000000000000000000000000000000000000000000000000000000008152600401610ac99061247d565b60405180910390fd5b6040518060400160405280600b81526020017f44656661756c74526f6c65000000000000000000000000000000000000000000815250905090565b8073ffffffffffffffffffffffffffffffffffffffff16600073ffffffffffffffffffffffffffffffffffffffff161415610b7d576040517f08c379a0000000000000000000000000000000000000000000000000000000008152600401610b749061254a565b60405180910390fd5b3373ffffffffffffffffffffffffffffffffffffffff1660008054906101000a900473ffffffffffffffffffffffffffffffffffffffff1673ffffffffffffffffffffffffffffffffffffffff1614610c0b576040517f08c379a0000000000000000000000000000000000000000000000000000000008152600401610c029061247d565b60405180910390fd5b6040518060a00160405280858152602001848152602001836003811115610c3557610c346120ea565b5b6003811115610c4757610c466120ea565b5b81526020018273ffffffffffffffffffffffffffffffffffffffff16815260200142815250600160008373ffffffffffffffffffffffffffffffffffffffff1673ffffffffffffffffffffffffffffffffffffffff168152602001908152602001600020600082015181600001556020820151816001015560408201518160020160006101000a81548160ff02191690836003811115610cea57610ce96120ea565b5b021790555060608201518160020160016101000a81548173ffffffffffffffffffffffffffffffffffffffff021916908373ffffffffffffffffffffffffffffffffffffffff160217905550608082015181600301559050508073ffffffffffffffffffffffffffffffffffffffff167ff751778eb32087df58f173035147c2eac9aac89fdc2f83b1993a198606f56db1600160008473ffffffffffffffffffffffffffffffffffffffff1673ffffffffffffffffffffffffffffffffffffffff168152602001908152602001600020604051610dc791906126c7565b60405180910390a26003819080600181540180825580915050600190039060005260206000200160009091909190916101000a81548173ffffffffffffffffffffffffffffffffffffffff021916908373ffffffffffffffffffffffffffffffffffffffff16021790555060026000815480929190610e4590612711565b919050555050505050565b60088181548110610e6057600080fd5b9060005260206000209060020201600091509050806000015490806001018054610e89906124cc565b80601f0160208091040260200160405190810160405280929190818152602001828054610eb5906124cc565b8015610f025780601f10610ed757610100808354040283529160200191610f02565b820191906000526020600020905b815481529060010190602001808311610ee557829003601f168201915b5050505050905082565b60078181548110610f1c57600080fd5b9060005260206000209060020201600091509050806000015490806001018054610f45906124cc565b80601f0160208091040260200160405190810160405280929190818152602001828054610f71906124cc565b8015610fbe5780601f10610f9357610100808354040283529160200191610fbe565b820191906000526020600020905b815481529060010190602001808311610fa157829003601f168201915b5050505050905082565b60603373ffffffffffffffffffffffffffffffffffffffff1660008054906101000a900473ffffffffffffffffffffffffffffffffffffffff1673ffffffffffffffffffffffffffffffffffffffff1614806110b157503373ffffffffffffffffffffffffffffffffffffffff16600160003373ffffffffffffffffffffffffffffffffffffffff1673ffffffffffffffffffffffffffffffffffffffff16815260200190815260200160002060020160019054906101000a900473ffffffffffffffffffffffffffffffffffffffff1673ffffffffffffffffffffffffffffffffffffffff16145b6110f0576040517f08c379a00000000000000000000000000000000000000000000000000000000081526004016110e79061247d565b60405180910390fd5b6040518060400160405280600b81526020017f5573657250726f6a656374000000000000000000000000000000000000000000815250905090565b611133611dbe565b3373ffffffffffffffffffffffffffffffffffffffff16600160003373ffffffffffffffffffffffffffffffffffffffff1673ffffffffffffffffffffffffffffffffffffffff16815260200190815260200160002060020160019054906101000a900473ffffffffffffffffffffffffffffffffffffffff1673ffffffffffffffffffffffffffffffffffffffff1614611203576040517f08c379a00000000000000000000000000000000000000000000000000000000081526004016111fa9061247d565b60405180910390fd5b600160008373ffffffffffffffffffffffffffffffffffffffff1673ffffffffffffffffffffffffffffffffffffffff1681526020019081526020016000206040518060a001604052908160008201548152602001600182015481526020016002820160009054906101000a900460ff166003811115611286576112856120ea565b5b6003811115611298576112976120ea565b5b81526020016002820160019054906101000a900473ffffffffffffffffffffffffffffffffffffffff1673ffffffffffffffffffffffffffffffffffffffff1673ffffffffffffffffffffffffffffffffffffffff1681526020016003820154815250509050919050565b6005818154811061131357600080fd5b906000526020600020906002020160009150905080600001549080600101805461133c906124cc565b80601f0160208091040260200160405190810160405280929190818152602001828054611368906124cc565b80156113b55780601f1061138a576101008083540402835291602001916113b5565b820191906000526020600020905b81548152906001019060200180831161139857829003601f168201915b5050505050905082565b600481815481106113cf57600080fd5b90600052602060002090600202016000915090508060000154908060010180546113f8906124cc565b80601f0160208091040260200160405190810160405280929190818152602001828054611424906124cc565b80156114715780601f1061144657610100808354040283529160200191611471565b820191906000526020600020905b81548152906001019060200180831161145457829003601f168201915b5050505050905082565b60008054906101000a900473ffffffffffffffffffffffffffffffffffffffff1681565b3373ffffffffffffffffffffffffffffffffffffffff1660008054906101000a900473ffffffffffffffffffffffffffffffffffffffff1673ffffffffffffffffffffffffffffffffffffffff161461152d576040517f08c379a00000000000000000000000000000000000000000000000000000000081526004016115249061247d565b60405180910390fd5b8160038111156115405761153f6120ea565b5b600160008373ffffffffffffffffffffffffffffffffffffffff1673ffffffffffffffffffffffffffffffffffffffff16815260200190815260200160002060020160006101000a81548160ff021916908360038111156115a4576115a36120ea565b5b021790555042600160008373ffffffffffffffffffffffffffffffffffffffff1673ffffffffffffffffffffffffffffffffffffffff168152602001908152602001600020600301819055508073ffffffffffffffffffffffffffffffffffffffff167ff751778eb32087df58f173035147c2eac9aac89fdc2f83b1993a198606f56db1600160008473ffffffffffffffffffffffffffffffffffffffff1673ffffffffffffffffffffffffffffffffffffffff16815260200190815260200160002060405161167491906126c7565b60405180910390a25050565b60016020528060005260406000206000915090508060000154908060010154908060020160009054906101000a900460ff16908060020160019054906101000a900473ffffffffffffffffffffffffffffffffffffffff16908060030154905085565b60603373ffffffffffffffffffffffffffffffffffffffff1660008054906101000a900473ffffffffffffffffffffffffffffffffffffffff1673ffffffffffffffffffffffffffffffffffffffff1614806117cc57503373ffffffffffffffffffffffffffffffffffffffff16600160003373ffffffffffffffffffffffffffffffffffffffff1673ffffffffffffffffffffffffffffffffffffffff16815260200190815260200160002060020160019054906101000a900473ffffffffffffffffffffffffffffffffffffffff1673ffffffffffffffffffffffffffffffffffffffff16145b61180b576040517f08c379a00000000000000000000000000000000000000000000000000000000081526004016118029061247d565b60405180910390fd5b6040518060400160405280600b81526020017f41646d696e4d6967687479000000000000000000000000000000000000000000815250905090565b60603373ffffffffffffffffffffffffffffffffffffffff1660008054906101000a900473ffffffffffffffffffffffffffffffffffffffff1673ffffffffffffffffffffffffffffffffffffffff16148061192f57503373ffffffffffffffffffffffffffffffffffffffff16600160003373ffffffffffffffffffffffffffffffffffffffff1673ffffffffffffffffffffffffffffffffffffffff16815260200190815260200160002060020160019054906101000a900473ffffffffffffffffffffffffffffffffffffffff1673ffffffffffffffffffffffffffffffffffffffff16145b61196e576040517f08c379a00000000000000000000000000000000000000000000000000000000081526004016119659061247d565b60405180910390fd5b6040518060400160405280600781526020017f436f6d70616e7900000000000000000000000000000000000000000000000000815250905090565b60025481565b60603373ffffffffffffffffffffffffffffffffffffffff16600073ffffffffffffffffffffffffffffffffffffffff161480611a3857503373ffffffffffffffffffffffffffffffffffffffff1660008054906101000a900473ffffffffffffffffffffffffffffffffffffffff1673ffffffffffffffffffffffffffffffffffffffff1614155b15611a78576040517f08c379a0000000000000000000000000000000000000000000000000000000008152600401611a6f9061247d565b60405180910390fd5b600060025467ffffffffffffffff811115611a9657611a9561275a565b5b604051908082528060200260200182016040528015611acf57816020015b611abc611dbe565b815260200190600190039081611ab45790505b50905060005b600254811015611c5357600060038281548110611af557611af4612789565b5b9060005260206000200160009054906101000a900473ffffffffffffffffffffffffffffffffffffffff1690506000600160008373ffffffffffffffffffffffffffffffffffffffff1673ffffffffffffffffffffffffffffffffffffffff1681526020019081526020016000209050806040518060a001604052908160008201548152602001600182015481526020016002820160009054906101000a900460ff166003811115611baa57611ba96120ea565b5b6003811115611bbc57611bbb6120ea565b5b81526020016002820160019054906101000a900473ffffffffffffffffffffffffffffffffffffffff1673ffffffffffffffffffffffffffffffffffffffff1673ffffffffffffffffffffffffffffffffffffffff168152602001600382015481525050848481518110611c3357611c32612789565b5b602002602001018190525050508080611c4b90612711565b915050611ad5565b508091505090565b60603373ffffffffffffffffffffffffffffffffffffffff1660008054906101000a900473ffffffffffffffffffffffffffffffffffffffff1673ffffffffffffffffffffffffffffffffffffffff161480611d4457503373ffffffffffffffffffffffffffffffffffffffff16600160003373ffffffffffffffffffffffffffffffffffffffff1673ffffffffffffffffffffffffffffffffffffffff16815260200190815260200160002060020160019054906101000a900473ffffffffffffffffffffffffffffffffffffffff1673ffffffffffffffffffffffffffffffffffffffff16145b611d83576040517f08c379a0000000000000000000000000000000000000000000000000000000008152600401611d7a9061247d565b60405180910390fd5b6040518060400160405280600a81526020017f53757065727669736f7200000000000000000000000000000000000000000000815250905090565b6040518060a00160405280600080191681526020016000801916815260200160006003811115611df157611df06120ea565b5b8152602001600073ffffffffffffffffffffffffffffffffffffffff168152602001600081525090565b600080fd5b6000819050919050565b611e3381611e20565b8114611e3e57600080fd5b50565b600081359050611e5081611e2a565b92915050565b600060208284031215611e6c57611e6b611e1b565b5b6000611e7a84828501611e41565b91505092915050565b60008115159050919050565b611e9881611e83565b82525050565b6000602082019050611eb36000830184611e8f565b92915050565b600081519050919050565b600082825260208201905092915050565b60005b83811015611ef3578082015181840152602081019050611ed8565b83811115611f02576000848401525b50505050565b6000601f19601f8301169050919050565b6000611f2482611eb9565b611f2e8185611ec4565b9350611f3e818560208601611ed5565b611f4781611f08565b840191505092915050565b60006020820190508181036000830152611f6c8184611f19565b905092915050565b611f7d81611e20565b82525050565b6000604082019050611f986000830185611f74565b8181036020830152611faa8184611f19565b90509392505050565b6000819050919050565b611fc681611fb3565b8114611fd157600080fd5b50565b600081359050611fe381611fbd565b92915050565b600073ffffffffffffffffffffffffffffffffffffffff82169050919050565b600061201482611fe9565b9050919050565b61202481612009565b811461202f57600080fd5b50565b6000813590506120418161201b565b92915050565b6000806000806080858703121561206157612060611e1b565b5b600061206f87828801611fd4565b945050602061208087828801611fd4565b935050604061209187828801611e41565b92505060606120a287828801612032565b91505092959194509250565b6000602082840312156120c4576120c3611e1b565b5b60006120d284828501612032565b91505092915050565b6120e481611fb3565b82525050565b7f4e487b7100000000000000000000000000000000000000000000000000000000600052602160045260246000fd5b6004811061212a576121296120ea565b5b50565b600081905061213b82612119565b919050565b600061214b8261212d565b9050919050565b61215b81612140565b82525050565b61216a81612009565b82525050565b61217981611e20565b82525050565b60a08201600082015161219560008501826120db565b5060208201516121a860208501826120db565b5060408201516121bb6040850182612152565b5060608201516121ce6060850182612161565b5060808201516121e16080850182612170565b50505050565b600060a0820190506121fc600083018461217f565b92915050565b61220b81612009565b82525050565b60006020820190506122266000830184612202565b92915050565b6000806040838503121561224357612242611e1b565b5b600061225185828601611e41565b925050602061226285828601612032565b9150509250929050565b61227581611fb3565b82525050565b61228481612140565b82525050565b600060a08201905061229f600083018861226c565b6122ac602083018761226c565b6122b9604083018661227b565b6122c66060830185612202565b6122d36080830184611f74565b9695505050505050565b60006020820190506122f26000830184611f74565b92915050565b600081519050919050565b600082825260208201905092915050565b6000819050602082019050919050565b60a08201600082015161233a60008501826120db565b50602082015161234d60208501826120db565b5060408201516123606040850182612152565b5060608201516123736060850182612161565b5060808201516123866080850182612170565b50505050565b60006123988383612324565b60a08301905092915050565b6000602082019050919050565b60006123bc826122f8565b6123c68185612303565b93506123d183612314565b8060005b838110156124025781516123e9888261238c565b97506123f4836123a4565b9250506001810190506123d5565b5085935050505092915050565b6000602082019050818103600083015261242981846123b1565b905092915050565b7f596f7520617265206e6f742074686520726967687420757365722e0000000000600082015250565b6000612467601b83611ec4565b915061247282612431565b602082019050919050565b600060208201905081810360008301526124968161245a565b9050919050565b7f4e487b7100000000000000000000000000000000000000000000000000000000600052602260045260246000fd5b600060028204905060018216806124e457607f821691505b602082108114156124f8576124f761249d565b5b50919050565b7f41646472657373206973206e6f742076616c69642e0000000000000000000000600082015250565b6000612534601583611ec4565b915061253f826124fe565b602082019050919050565b6000602082019050818103600083015261256381612527565b9050919050565b60008160001c9050919050565b6000819050919050565b600061259461258f8361256a565b612577565b9050919050565b600060ff82169050919050565b60006125bb6125b68361256a565b61259b565b9050919050565b60008160081c9050919050565b600073ffffffffffffffffffffffffffffffffffffffff82169050919050565b60006126026125fd836125c2565b6125cf565b9050919050565b6000819050919050565b60006126266126218361256a565b612609565b9050919050565b60a08201600080830154905061264281612581565b61264f60008601826120db565b506001830154905061266081612581565b61266d60208601826120db565b506002830154905061267e816125a8565b61268b6040860182612152565b50612695816125ef565b6126a26060860182612161565b50600383015490506126b381612613565b6126c06080860182612170565b5050505050565b600060a0820190506126dc600083018461262d565b92915050565b7f4e487b7100000000000000000000000000000000000000000000000000000000600052601160045260246000fd5b600061271c82611e20565b91507fffffffffffffffffffffffffffffffffffffffffffffffffffffffffffffffff82141561274f5761274e6126e2565b5b600182019050919050565b7f4e487b7100000000000000000000000000000000000000000000000000000000600052604160045260246000fd5b7f4e487b7100000000000000000000000000000000000000000000000000000000600052603260045260246000fdfe307830303030303030303030303030303030303030303030303030303030303030303030303030303030a2646970667358221220e5d3e10e6b6550acc8d5b9cac63a3b5722633695b519e1ba185fd71b4ed629cb64736f6c634300080a0033",
  "immutableReferences": {},
  "source": "// SPDX-License-Identifier: MIT\r\npragma solidity >=0.8.0 <0.9.0;\r\n\r\nimport './UserChain.sol';\r\n\r\ncontract ServiceChain is UserChain {\r\n\r\n    Dropdown[] public requestType;\r\n    Dropdown[] public requestStatusForm;\r\n    Dropdown[] public requestStatus;\r\n    Dropdown[] public projectStatus;\r\n    Dropdown[] public userRole;\r\n\r\n    constructor() {\r\n        owner = msg.sender;\r\n    }\r\n\r\n    modifier onlySystemUsers() {\r\n        require(\r\n            owner == msg.sender || users[msg.sender]._walletAddress == msg.sender,\r\n            \"You are not the right user.\"\r\n        );\r\n        _;\r\n    }\r\n\r\n    function checkPermissionUserProject(uint256 _projectStatus) public view onlySystemUsers returns (bool) {\r\n        if (\r\n            ProjectStatus(_projectStatus) == ProjectStatus.Created ||\r\n            ProjectStatus(_projectStatus) == ProjectStatus.ToApprove\r\n        ) {\r\n            return true;\r\n        }\r\n        return false;\r\n    }\r\n\r\n    function checkPermissionCompany(uint256 _projectStatus) public view onlySystemUsers returns (bool) {\r\n        if (\r\n            ProjectStatus(_projectStatus) != ProjectStatus.Created ||\r\n            ProjectStatus(_projectStatus) != ProjectStatus.ToApprove\r\n        ) {\r\n            return true;\r\n        }\r\n        return false;\r\n    }\r\n\r\n    function getAddressZeroValue() public view onlySystemUsers returns (string memory) {\r\n        return \"0x0000000000000000000000000000000000000000\";\r\n    }\r\n\r\n    function getAdminRole() public view onlySystemUsers returns (string memory) {\r\n        return \"AdminMighty\";\r\n    }\r\n\r\n    function getDefaultRole() public view onlySystemUsers returns (string memory) {\r\n        return \"DefaultRole\";\r\n    }\r\n\r\n    function getUserProjectRole() public view onlySystemUsers returns (string memory) {\r\n        return \"UserProject\";\r\n    }\r\n\r\n    function getCompanyRole() public view onlySystemUsers returns (string memory) {\r\n        return \"Company\";\r\n    }\r\n\r\n    function getSupervisorRole() public view onlySystemUsers returns (string memory) {\r\n        return \"Supervisor\";\r\n    }\r\n\r\n\r\n    // function createDropdowns() public onlyOwner {\r\n    //     requestType.push(Dropdown(0, 'SupervisorReq'));\r\n    //     requestType.push(Dropdown(1, 'CompanyReq'));\r\n\r\n    //     requestStatusForm.push(Dropdown(1, 'Rejected'));\r\n    //     requestStatusForm.push(Dropdown(2, 'Approved'));\r\n\r\n    //     requestStatus.push(Dropdown(0, 'UnApproved'));\r\n    //     requestStatus.push(Dropdown(1, 'Rejected'));\r\n    //     requestStatus.push(Dropdown(2, 'Approved'));\r\n\r\n    //     projectStatus.push(Dropdown(0, 'Created'));\r\n    //     projectStatus.push(Dropdown(1, 'ToApprove'));\r\n    //     projectStatus.push(Dropdown(2, 'StartProject'));\r\n    //     projectStatus.push(Dropdown(3, 'FinalizationCheck'));\r\n    //     projectStatus.push(Dropdown(4, 'Completed'));\r\n\r\n    //     userRole.push(Dropdown(0, 'DefaultRole'));\r\n    //     userRole.push(Dropdown(1, 'UserProject'));\r\n    //     userRole.push(Dropdown(2, 'Company'));\r\n    //     userRole.push(Dropdown(3, 'Supervisor'));\r\n    // }\r\n\r\n    /** Methods: Check if Dropdown option exists */\r\n\r\n    // function checkRequestTypeDropdown(uint256 _id) public view onlyOwner returns (bool) {\r\n    //     for (uint256 index = 0; index < requestType.length; index++) {\r\n    //         if (requestType[index].id == _id) {\r\n    //             return true;\r\n    //         }\r\n    //     }\r\n    //     return false;\r\n    // }\r\n\r\n    // function checkRequestStatusFormDropdown(uint256 _id) public view onlyOwner returns (bool) {\r\n    //     for (uint256 index = 0; index < requestStatusForm.length; index++) {\r\n    //         if (requestStatusForm[index].id == _id) {\r\n    //             return true;\r\n    //         }\r\n    //     }\r\n    //     return false;\r\n    // }\r\n\r\n    // function checkRequestStatusDropdown(uint256 _id) public view onlyOwner returns (bool) {\r\n    //     for (uint256 index = 0; index < requestStatus.length; index++) {\r\n    //         if (requestStatus[index].id == _id) {\r\n    //             return true;\r\n    //         }\r\n    //     }\r\n    //     return false;\r\n    // }\r\n\r\n    // function checkProjectStatusDropdown(uint256 _id) public view onlyOwner returns (bool) {\r\n    //     for (uint256 index = 0; index < projectStatus.length; index++) {\r\n    //         if (projectStatus[index].id == _id) {\r\n    //             return true;\r\n    //         }\r\n    //     }\r\n    //     return false;\r\n    // }\r\n\r\n    // function checkUserRoleDropdown(uint256 _id) public view onlyOwner returns (bool) {\r\n    //     for (uint256 index = 0; index < userRole.length; index++) {\r\n    //         if (userRole[index].id == _id) {\r\n    //             return true;\r\n    //         }\r\n    //     }\r\n    //     return false;\r\n    // }\r\n\r\n    /** Get Dropdown[] Array */\r\n\r\n    // function getAllRequestTypeDropdown() public view onlyOwner returns (Dropdown[] memory) {\r\n    //     return requestType;\r\n    // }\r\n\r\n    // function getAllRequestStatusFormDropdown() public view onlyOwner returns (Dropdown[] memory) {\r\n    //     return requestStatusForm;\r\n    // }\r\n\r\n    // function getAllRequestStatusDropdown() public view onlyOwner returns (Dropdown[] memory) {\r\n    //     return requestStatus;\r\n    // }\r\n\r\n    // function getAllProjectStatusDropdown() public view onlyOwner returns (Dropdown[] memory) {\r\n    //     return projectStatus;\r\n    // }\r\n\r\n    // function getAllUserRoleDropdown() public view onlyOwner returns (Dropdown[] memory) {\r\n    //     return userRole;\r\n    // }\r\n\r\n\r\n    /*** Methods for Dropdowns */\r\n\r\n    // function getCompletedProjectStatus() public view onlyOwner returns(Dropdown memory) {\r\n    //     Dropdown memory typeData;\r\n    //     typeData = Dropdown(4, 'Completed');\r\n    //     return typeData;\r\n    // }\r\n\r\n    // function getSupervisorRequestType() public view onlyOwner returns(Dropdown memory) {\r\n    //     Dropdown memory typeData;\r\n    //     typeData = Dropdown(0, 'SupervisorReq');\r\n    //     return typeData;\r\n    // }\r\n\r\n    // function getCompanyRequestType() public view onlyOwner returns(Dropdown memory) {\r\n    //     Dropdown memory typeData;\r\n    //     typeData = Dropdown(1, 'CompanyReq');\r\n    //     return typeData;\r\n    // }\r\n\r\n    // function getDefaultProjectStatus() public view onlyOwner returns(Dropdown memory) {\r\n    //     Dropdown memory typeData;\r\n    //     typeData = Dropdown(0, 'Created');\r\n    //     return typeData;\r\n    // }\r\n\r\n    // function getDefaultRequestStatus() public view onlyOwner returns(Dropdown memory) {\r\n    //     Dropdown memory typeData;\r\n    //     typeData = Dropdown(0, 'UnApproved');\r\n    //     return typeData;\r\n    // }\r\n\r\n    /*** Dropdowns */\r\n\r\n    // function getRequestTypeDropdown() public view onlyOwner returns(Dropdown[] memory) {\r\n    //     Dropdown[] memory data = new Dropdown[](2);\r\n    //     data[0] = Dropdown(0, 'SupervisorReq');\r\n    //     data[1] = Dropdown(1, 'CompanyReq');\r\n    //     return data;\r\n    // }\r\n\r\n    // function getRequestStatusFormDropdown() public view onlyOwner returns(Dropdown[] memory) {\r\n    //     Dropdown[] memory data = new Dropdown[](2);\r\n    //     data[0] = Dropdown(1, 'Rejected');\r\n    //     data[1] = Dropdown(2, 'Approved');\r\n    //     return data;\r\n    // }\r\n\r\n    // function getRequestStatusDropdown() public view onlyOwner returns(Dropdown[] memory) {\r\n    //     Dropdown[] memory data = new Dropdown[](3);\r\n    //     data[0] = Dropdown(0, 'UnApproved');\r\n    //     data[1] = Dropdown(1, 'Rejected');\r\n    //     data[2] = Dropdown(2, 'Approved');\r\n    //     return data;\r\n    // }\r\n\r\n    // function getProjectStatusDropdown() public view onlyOwner returns(Dropdown[] memory) {\r\n    //     Dropdown[] memory data = new Dropdown[](5);\r\n    //     data[0] = Dropdown(0, 'Created');\r\n    //     data[1] = Dropdown(1, 'ToApprove');\r\n    //     data[2] = Dropdown(2, 'StartProject');\r\n    //     data[3] = Dropdown(3, 'FinalizationCheck');\r\n    //     data[4] = Dropdown(4, 'Completed');\r\n    //     return data;\r\n    // }\r\n\r\n    // function getUserRoleDropdown() public view onlyOwner returns(Dropdown[] memory) {\r\n    //     Dropdown[] memory data = new Dropdown[](4);\r\n    //     data[0] = Dropdown(0, 'DefaultRole');\r\n    //     data[1] = Dropdown(1, 'UserProject');\r\n    //     data[2] = Dropdown(2, 'Company');\r\n    //     data[3] = Dropdown(3, 'Supervisor');\r\n    //     return data;\r\n    // }\r\n}\r\n",
  "sourcePath": "/mnt/c/Users/Beniamin/source/repos/DissertationProject/contracts/ServiceChain.sol",
  "compiler": {
    "name": "solc",
    "version": "0.8.10+commit.fc410830.Emscripten.clang"
  },
  "schemaVersion": "3.4.3",
  "updatedAt": "2021-12-15T20:51:08.674Z",
  "networkType": "ethereum",
  "devdoc": {
    "kind": "dev",
    "methods": {},
    "version": 1
  },
  "userdoc": {
    "kind": "user",
    "methods": {},
    "version": 1
  }
}