{
  "contractName": "SignatureChain",
  "abi": [
    {
      "inputs": [
        {
          "internalType": "address",
          "name": "p",
          "type": "address"
        },
        {
          "internalType": "bytes32",
          "name": "hash",
          "type": "bytes32"
        },
        {
          "internalType": "uint8",
          "name": "v",
          "type": "uint8"
        },
        {
          "internalType": "bytes32",
          "name": "r",
          "type": "bytes32"
        },
        {
          "internalType": "bytes32",
          "name": "s",
          "type": "bytes32"
        }
      ],
      "name": "verifySignature",
      "outputs": [
        {
          "internalType": "bool",
          "name": "",
          "type": "bool"
        }
      ],
      "stateMutability": "pure",
      "type": "function",
      "constant": true
    },
    {
      "inputs": [
        {
          "internalType": "bytes32",
          "name": "hash",
          "type": "bytes32"
        },
        {
          "internalType": "uint8",
          "name": "v",
          "type": "uint8"
        },
        {
          "internalType": "bytes32",
          "name": "r",
          "type": "bytes32"
        },
        {
          "internalType": "bytes32",
          "name": "s",
          "type": "bytes32"
        }
      ],
      "name": "verifyTest",
      "outputs": [
        {
          "internalType": "address",
          "name": "",
          "type": "address"
        }
      ],
      "stateMutability": "pure",
      "type": "function",
      "constant": true
    }
  ],
  "bytecode": "0x608060405234801561001057600080fd5b5061042d806100206000396000f3fe608060405234801561001057600080fd5b50600436106100365760003560e01c806302bf9e7f1461003b578063abf7b0421461006b575b600080fd5b61005560048036038101906100509190610252565b61009b565b60405161006291906102e8565b60405180910390f35b61008560048036038101906100809190610303565b610125565b6040516100929190610379565b60405180910390f35b60008573ffffffffffffffffffffffffffffffffffffffff16600186868686604051600081526020016040526040516100d794939291906103b2565b6020604051602081039080840390855afa1580156100f9573d6000803e3d6000fd5b5050506020604051035173ffffffffffffffffffffffffffffffffffffffff1614905095945050505050565b60006001858585856040516000815260200160405260405161014a94939291906103b2565b6020604051602081039080840390855afa15801561016c573d6000803e3d6000fd5b505050602060405103519050949350505050565b600080fd5b600073ffffffffffffffffffffffffffffffffffffffff82169050919050565b60006101b082610185565b9050919050565b6101c0816101a5565b81146101cb57600080fd5b50565b6000813590506101dd816101b7565b92915050565b6000819050919050565b6101f6816101e3565b811461020157600080fd5b50565b600081359050610213816101ed565b92915050565b600060ff82169050919050565b61022f81610219565b811461023a57600080fd5b50565b60008135905061024c81610226565b92915050565b600080600080600060a0868803121561026e5761026d610180565b5b600061027c888289016101ce565b955050602061028d88828901610204565b945050604061029e8882890161023d565b93505060606102af88828901610204565b92505060806102c088828901610204565b9150509295509295909350565b60008115159050919050565b6102e2816102cd565b82525050565b60006020820190506102fd60008301846102d9565b92915050565b6000806000806080858703121561031d5761031c610180565b5b600061032b87828801610204565b945050602061033c8782880161023d565b935050604061034d87828801610204565b925050606061035e87828801610204565b91505092959194509250565b610373816101a5565b82525050565b600060208201905061038e600083018461036a565b92915050565b61039d816101e3565b82525050565b6103ac81610219565b82525050565b60006080820190506103c76000830187610394565b6103d460208301866103a3565b6103e16040830185610394565b6103ee6060830184610394565b9594505050505056fea26469706673582212200bf190ef7d0166ba0b7c67c74c3e5479d6a7816ee11a455fe6ef36f95ff7e96c64736f6c634300080a0033",
  "immutableReferences": {},
  "source": "// SPDX-License-Identifier: MIT\r\npragma solidity ^0.8.3 <0.9.0;\r\n\r\ncontract SignatureChain {\r\n\r\n    function verifySignature(address p, bytes32 hash, uint8 v, bytes32 r, bytes32 s) external pure returns(bool) {\r\n        return ecrecover(hash, v, r, s) == p;\r\n    }\r\n\r\n    function verifyTest(bytes32 hash, uint8 v, bytes32 r, bytes32 s) external pure returns(address) {\r\n        return ecrecover(hash, v, r, s);\r\n    }\r\n\r\n}\r\n",
  "sourcePath": "/mnt/c/Users/Beniamin/source/repos/DissertationProject/contracts/SignatureChain.sol",
  "compiler": {
    "name": "solc",
    "version": "0.8.10+commit.fc410830.Emscripten.clang"
  },
  "schemaVersion": "3.4.3",
  "updatedAt": "2021-12-08T22:15:07.277Z",
  "networkType": "ethereum",
  "devdoc": {
    "kind": "dev",
    "methods": {},
    "version": 1
  },
  "userdoc": {
    "kind": "user",
    "methods": {},
    "version": 1
  }
}