{
  "contractName": "SignatureChain",
  "abi": [
    {
      "inputs": [],
      "stateMutability": "nonpayable",
      "type": "constructor"
    },
    {
      "inputs": [
        {
          "internalType": "address",
          "name": "p",
          "type": "address"
        },
        {
          "internalType": "bytes32",
          "name": "hash",
          "type": "bytes32"
        },
        {
          "internalType": "uint8",
          "name": "v",
          "type": "uint8"
        },
        {
          "internalType": "bytes32",
          "name": "r",
          "type": "bytes32"
        },
        {
          "internalType": "bytes32",
          "name": "s",
          "type": "bytes32"
        }
      ],
      "name": "verifySignature",
      "outputs": [
        {
          "internalType": "bool",
          "name": "",
          "type": "bool"
        }
      ],
      "stateMutability": "view",
      "type": "function"
    },
    {
      "inputs": [
        {
          "internalType": "bytes32",
          "name": "hash",
          "type": "bytes32"
        },
        {
          "internalType": "uint8",
          "name": "v",
          "type": "uint8"
        },
        {
          "internalType": "bytes32",
          "name": "r",
          "type": "bytes32"
        },
        {
          "internalType": "bytes32",
          "name": "s",
          "type": "bytes32"
        }
      ],
      "name": "verifyTest",
      "outputs": [
        {
          "internalType": "address",
          "name": "",
          "type": "address"
        }
      ],
      "stateMutability": "view",
      "type": "function"
    }
  ],
  "bytecode": "0x608060405234801561001057600080fd5b5061058a806100206000396000f3fe608060405234801561001057600080fd5b50600436106100365760003560e01c806302bf9e7f1461003b578063abf7b0421461006b575b600080fd5b61005560048036038101906100509190610332565b61009b565b60405161006291906103c8565b60405180910390f35b610085600480360381019061008091906103e3565b610195565b6040516100929190610459565b60405180910390f35b60003373ffffffffffffffffffffffffffffffffffffffff16600073ffffffffffffffffffffffffffffffffffffffff16141561010d576040517f08c379a0000000000000000000000000000000000000000000000000000000008152600401610104906104d1565b60405180910390fd5b8573ffffffffffffffffffffffffffffffffffffffff1660018686868660405160008152602001604052604051610147949392919061050f565b6020604051602081039080840390855afa158015610169573d6000803e3d6000fd5b5050506020604051035173ffffffffffffffffffffffffffffffffffffffff1614905095945050505050565b60003373ffffffffffffffffffffffffffffffffffffffff16600073ffffffffffffffffffffffffffffffffffffffff161415610207576040517f08c379a00000000000000000000000000000000000000000000000000000000081526004016101fe906104d1565b60405180910390fd5b6001858585856040516000815260200160405260405161022a949392919061050f565b6020604051602081039080840390855afa15801561024c573d6000803e3d6000fd5b505050602060405103519050949350505050565b600080fd5b600073ffffffffffffffffffffffffffffffffffffffff82169050919050565b600061029082610265565b9050919050565b6102a081610285565b81146102ab57600080fd5b50565b6000813590506102bd81610297565b92915050565b6000819050919050565b6102d6816102c3565b81146102e157600080fd5b50565b6000813590506102f3816102cd565b92915050565b600060ff82169050919050565b61030f816102f9565b811461031a57600080fd5b50565b60008135905061032c81610306565b92915050565b600080600080600060a0868803121561034e5761034d610260565b5b600061035c888289016102ae565b955050602061036d888289016102e4565b945050604061037e8882890161031d565b935050606061038f888289016102e4565b92505060806103a0888289016102e4565b9150509295509295909350565b60008115159050919050565b6103c2816103ad565b82525050565b60006020820190506103dd60008301846103b9565b92915050565b600080600080608085870312156103fd576103fc610260565b5b600061040b878288016102e4565b945050602061041c8782880161031d565b935050604061042d878288016102e4565b925050606061043e878288016102e4565b91505092959194509250565b61045381610285565b82525050565b600060208201905061046e600083018461044a565b92915050565b600082825260208201905092915050565b7f41646472657373206973206e6f742076616c69642e0000000000000000000000600082015250565b60006104bb601583610474565b91506104c682610485565b602082019050919050565b600060208201905081810360008301526104ea816104ae565b9050919050565b6104fa816102c3565b82525050565b610509816102f9565b82525050565b600060808201905061052460008301876104f1565b6105316020830186610500565b61053e60408301856104f1565b61054b60608301846104f1565b9594505050505056fea264697066735822122010d7789012f87ee19651a2a5f4a24f7abb9dd871ba6e965f5a4c1ddfc65481e064736f6c634300080a0033",
  "immutableReferences": {},
  "source": "// SPDX-License-Identifier: MIT\r\npragma solidity ^0.8.3 <0.9.0;\r\n\r\ncontract SignatureChain {\r\n\r\n    constructor() {}\r\n\r\n    modifier onlyValidAddress() {\r\n        require(address(0x0) != msg.sender, \"Address is not valid.\");\r\n        _;\r\n    }\r\n\r\n    function verifySignature(address p, bytes32 hash, uint8 v, bytes32 r, bytes32 s) external view onlyValidAddress returns(bool) {\r\n        return ecrecover(hash, v, r, s) == p;\r\n    }\r\n\r\n    function verifyTest(bytes32 hash, uint8 v, bytes32 r, bytes32 s) external view onlyValidAddress returns(address) {\r\n        return ecrecover(hash, v, r, s);\r\n    }\r\n}\r\n",
  "sourcePath": "/mnt/c/Users/Beniamin/source/repos/DissertationProject/contracts/SignatureChain.sol",
  "compiler": {
    "name": "solc",
    "version": "0.8.10+commit.fc410830.Emscripten.clang"
  },
  "schemaVersion": "3.4.3",
  "updatedAt": "2021-12-14T22:25:56.236Z",
  "devdoc": {
    "kind": "dev",
    "methods": {},
    "version": 1
  },
  "userdoc": {
    "kind": "user",
    "methods": {},
    "version": 1
  }
}