{
  "contractName": "SupervisorChain",
  "abi": [
    {
      "inputs": [],
      "stateMutability": "nonpayable",
      "type": "constructor"
    },
    {
      "anonymous": false,
      "inputs": [
        {
          "indexed": false,
          "internalType": "uint256",
          "name": "_index",
          "type": "uint256"
        },
        {
          "indexed": false,
          "internalType": "string",
          "name": "_name",
          "type": "string"
        },
        {
          "indexed": false,
          "internalType": "enum SharedChain.ProjectStatus",
          "name": "_status",
          "type": "uint8"
        },
        {
          "indexed": false,
          "internalType": "string",
          "name": "_ipfsFileCID",
          "type": "string"
        },
        {
          "indexed": false,
          "internalType": "address",
          "name": "_projectAddress",
          "type": "address"
        },
        {
          "indexed": false,
          "internalType": "address",
          "name": "_userAddress",
          "type": "address"
        },
        {
          "indexed": false,
          "internalType": "uint256",
          "name": "_timestamp",
          "type": "uint256"
        }
      ],
      "name": "ProjectEvent",
      "type": "event"
    },
    {
      "anonymous": false,
      "inputs": [
        {
          "indexed": false,
          "internalType": "uint256",
          "name": "_index",
          "type": "uint256"
        },
        {
          "indexed": false,
          "internalType": "string",
          "name": "_title",
          "type": "string"
        },
        {
          "indexed": false,
          "internalType": "string",
          "name": "_comments",
          "type": "string"
        },
        {
          "indexed": false,
          "internalType": "enum SharedChain.ProjectStatus",
          "name": "_status",
          "type": "uint8"
        },
        {
          "indexed": false,
          "internalType": "enum SharedChain.RequestStatus",
          "name": "_requestStatus",
          "type": "uint8"
        },
        {
          "indexed": false,
          "internalType": "address",
          "name": "_projectAddress",
          "type": "address"
        },
        {
          "indexed": false,
          "internalType": "address",
          "name": "_userAddress",
          "type": "address"
        },
        {
          "indexed": false,
          "internalType": "uint256",
          "name": "_timestamp",
          "type": "uint256"
        }
      ],
      "name": "ProjectRequestEvent",
      "type": "event"
    },
    {
      "anonymous": false,
      "inputs": [
        {
          "indexed": false,
          "internalType": "uint256",
          "name": "_index",
          "type": "uint256"
        },
        {
          "indexed": false,
          "internalType": "string",
          "name": "_title",
          "type": "string"
        },
        {
          "indexed": false,
          "internalType": "enum SharedChain.RequestStatus",
          "name": "_status",
          "type": "uint8"
        },
        {
          "indexed": false,
          "internalType": "enum SharedChain.ProjectStatus",
          "name": "_projectStatus",
          "type": "uint8"
        },
        {
          "indexed": false,
          "internalType": "address",
          "name": "_projectAddress",
          "type": "address"
        },
        {
          "indexed": false,
          "internalType": "address",
          "name": "_userAddress",
          "type": "address"
        },
        {
          "indexed": false,
          "internalType": "uint256",
          "name": "_timestamp",
          "type": "uint256"
        }
      ],
      "name": "RequestEvent",
      "type": "event"
    },
    {
      "inputs": [
        {
          "internalType": "uint256",
          "name": "",
          "type": "uint256"
        }
      ],
      "name": "allSupervisorRequests",
      "outputs": [
        {
          "internalType": "uint256",
          "name": "_index",
          "type": "uint256"
        },
        {
          "internalType": "string",
          "name": "_title",
          "type": "string"
        },
        {
          "internalType": "enum SharedChain.RequestStatus",
          "name": "_requestStatus",
          "type": "uint8"
        },
        {
          "internalType": "enum SharedChain.ProjectStatus",
          "name": "_projectStatus",
          "type": "uint8"
        },
        {
          "internalType": "address",
          "name": "_projectAddress",
          "type": "address"
        },
        {
          "internalType": "address",
          "name": "_userAddress",
          "type": "address"
        }
      ],
      "stateMutability": "view",
      "type": "function"
    },
    {
      "inputs": [
        {
          "internalType": "uint256",
          "name": "",
          "type": "uint256"
        }
      ],
      "name": "requestsSupervisor",
      "outputs": [
        {
          "internalType": "uint256",
          "name": "_index",
          "type": "uint256"
        },
        {
          "internalType": "string",
          "name": "_title",
          "type": "string"
        },
        {
          "internalType": "enum SharedChain.RequestStatus",
          "name": "_requestStatus",
          "type": "uint8"
        },
        {
          "internalType": "enum SharedChain.ProjectStatus",
          "name": "_projectStatus",
          "type": "uint8"
        },
        {
          "internalType": "address",
          "name": "_projectAddress",
          "type": "address"
        },
        {
          "internalType": "address",
          "name": "_userAddress",
          "type": "address"
        }
      ],
      "stateMutability": "view",
      "type": "function"
    },
    {
      "inputs": [],
      "name": "requestsSupervisorCounter",
      "outputs": [
        {
          "internalType": "uint256",
          "name": "",
          "type": "uint256"
        }
      ],
      "stateMutability": "view",
      "type": "function"
    },
    {
      "inputs": [
        {
          "internalType": "string",
          "name": "_title",
          "type": "string"
        },
        {
          "internalType": "string",
          "name": "_description",
          "type": "string"
        },
        {
          "internalType": "uint256",
          "name": "_requestStatus",
          "type": "uint256"
        },
        {
          "internalType": "uint256",
          "name": "_projectStatus",
          "type": "uint256"
        },
        {
          "internalType": "address",
          "name": "_projectAddress",
          "type": "address"
        }
      ],
      "name": "createRequestSupervisor",
      "outputs": [],
      "stateMutability": "nonpayable",
      "type": "function"
    },
    {
      "inputs": [
        {
          "internalType": "uint256",
          "name": "_requestStatus",
          "type": "uint256"
        },
        {
          "internalType": "uint256",
          "name": "_index",
          "type": "uint256"
        }
      ],
      "name": "updateRequestSupervisor",
      "outputs": [],
      "stateMutability": "nonpayable",
      "type": "function"
    },
    {
      "inputs": [],
      "name": "getAllRequestsSupervisor",
      "outputs": [
        {
          "components": [
            {
              "internalType": "uint256",
              "name": "_index",
              "type": "uint256"
            },
            {
              "internalType": "string",
              "name": "_title",
              "type": "string"
            },
            {
              "internalType": "enum SharedChain.RequestStatus",
              "name": "_requestStatus",
              "type": "uint8"
            },
            {
              "internalType": "enum SharedChain.ProjectStatus",
              "name": "_projectStatus",
              "type": "uint8"
            },
            {
              "internalType": "address",
              "name": "_projectAddress",
              "type": "address"
            },
            {
              "internalType": "address",
              "name": "_userAddress",
              "type": "address"
            }
          ],
          "internalType": "struct SharedChain.Request[]",
          "name": "",
          "type": "tuple[]"
        }
      ],
      "stateMutability": "view",
      "type": "function"
    }
  ],
  "bytecode": "0x6080604052600060025534801561001557600080fd5b50336000806101000a81548173ffffffffffffffffffffffffffffffffffffffff021916908373ffffffffffffffffffffffffffffffffffffffff16021790555061142e806100656000396000f3fe608060405234801561001057600080fd5b50600436106100625760003560e01c80638e2661bb1461006757806397b82957146100855780639e0c89a8146100ba578063bef8c465146100d6578063c43dff53146100f4578063fb7fe17a14610129575b600080fd5b61006f610145565b60405161007c9190610baa565b60405180910390f35b61009f600480360381019061009a9190610c05565b61014b565b6040516100b196959493929190610dcb565b60405180910390f35b6100d460048036038101906100cf9190610e33565b610269565b005b6100de610338565b6040516100eb9190611044565b60405180910390f35b61010e60048036038101906101099190610c05565b610555565b60405161012096959493929190610dcb565b60405180910390f35b610143600480360381019061013e91906111c7565b610683565b005b60025481565b6001602052806000526040600020600091509050806000015490806001018054610174906112a9565b80601f01602080910402602001604051908101604052809291908181526020018280546101a0906112a9565b80156101ed5780601f106101c2576101008083540402835291602001916101ed565b820191906000526020600020905b8154815290600101906020018083116101d057829003601f168201915b5050505050908060020160009054906101000a900460ff16908060020160019054906101000a900460ff16908060020160029054906101000a900473ffffffffffffffffffffffffffffffffffffffff16908060030160009054906101000a900473ffffffffffffffffffffffffffffffffffffffff16905086565b81600281111561027c5761027b610ccb565b5b6001600083815260200190815260200160002060020160006101000a81548160ff021916908360028111156102b4576102b3610ccb565b5b02179055506000600160008381526020019081526020016000206000015490508260028111156102e7576102e6610ccb565b5b600382815481106102fb576102fa6112db565b5b906000526020600020906004020160020160006101000a81548160ff0219169083600281111561032e5761032d610ccb565b5b0217905550505050565b60606003805480602002602001604051908101604052809291908181526020016000905b8282101561054c57838290600052602060002090600402016040518060c001604052908160008201548152602001600182018054610399906112a9565b80601f01602080910402602001604051908101604052809291908181526020018280546103c5906112a9565b80156104125780601f106103e757610100808354040283529160200191610412565b820191906000526020600020905b8154815290600101906020018083116103f557829003601f168201915b505050505081526020016002820160009054906101000a900460ff1660028111156104405761043f610ccb565b5b600281111561045257610451610ccb565b5b81526020016002820160019054906101000a900460ff16600481111561047b5761047a610ccb565b5b600481111561048d5761048c610ccb565b5b81526020016002820160029054906101000a900473ffffffffffffffffffffffffffffffffffffffff1673ffffffffffffffffffffffffffffffffffffffff1673ffffffffffffffffffffffffffffffffffffffff1681526020016003820160009054906101000a900473ffffffffffffffffffffffffffffffffffffffff1673ffffffffffffffffffffffffffffffffffffffff1673ffffffffffffffffffffffffffffffffffffffff16815250508152602001906001019061035c565b50505050905090565b6003818154811061056557600080fd5b906000526020600020906004020160009150905080600001549080600101805461058e906112a9565b80601f01602080910402602001604051908101604052809291908181526020018280546105ba906112a9565b80156106075780601f106105dc57610100808354040283529160200191610607565b820191906000526020600020905b8154815290600101906020018083116105ea57829003601f168201915b5050505050908060020160009054906101000a900460ff16908060020160019054906101000a900460ff16908060020160029054906101000a900473ffffffffffffffffffffffffffffffffffffffff16908060030160009054906101000a900473ffffffffffffffffffffffffffffffffffffffff16905086565b600254600160006002548152602001908152602001600020600001819055508460016000600254815260200190815260200160002060010190805190602001906106ce929190610aee565b508260028111156106e2576106e1610ccb565b5b60016000600254815260200190815260200160002060020160006101000a81548160ff0219169083600281111561071c5761071b610ccb565b5b021790555081600481111561073457610733610ccb565b5b60016000600254815260200190815260200160002060020160016101000a81548160ff0219169083600481111561076e5761076d610ccb565b5b02179055508060016000600254815260200190815260200160002060020160026101000a81548173ffffffffffffffffffffffffffffffffffffffff021916908373ffffffffffffffffffffffffffffffffffffffff16021790555060008054906101000a900473ffffffffffffffffffffffffffffffffffffffff1660016000600254815260200190815260200160002060030160006101000a81548173ffffffffffffffffffffffffffffffffffffffff021916908373ffffffffffffffffffffffffffffffffffffffff1602179055507f384425faf43fd1f730f8ae6503cf1641e4c13931dfe4409d227bd9c1b73f2a956002548685600281111561087957610878610ccb565b5b85600481111561088c5761088b610ccb565b5b8560008054906101000a900473ffffffffffffffffffffffffffffffffffffffff16426040516108c2979695949392919061130a565b60405180910390a160036040518060c0016040528060025481526020018781526020018560028111156108f8576108f7610ccb565b5b600281111561090a57610909610ccb565b5b815260200184600481111561092257610921610ccb565b5b600481111561093457610933610ccb565b5b81526020018373ffffffffffffffffffffffffffffffffffffffff16815260200160008054906101000a900473ffffffffffffffffffffffffffffffffffffffff1673ffffffffffffffffffffffffffffffffffffffff1681525090806001815401808255809150506001900390600052602060002090600402016000909190919091506000820151816000015560208201518160010190805190602001906109de929190610aee565b5060408201518160020160006101000a81548160ff02191690836002811115610a0a57610a09610ccb565b5b021790555060608201518160020160016101000a81548160ff02191690836004811115610a3a57610a39610ccb565b5b021790555060808201518160020160026101000a81548173ffffffffffffffffffffffffffffffffffffffff021916908373ffffffffffffffffffffffffffffffffffffffff16021790555060a08201518160030160006101000a81548173ffffffffffffffffffffffffffffffffffffffff021916908373ffffffffffffffffffffffffffffffffffffffff160217905550505060026000815480929190610ae2906113af565b91905055505050505050565b828054610afa906112a9565b90600052602060002090601f016020900481019282610b1c5760008555610b63565b82601f10610b3557805160ff1916838001178555610b63565b82800160010185558215610b63579182015b82811115610b62578251825591602001919060010190610b47565b5b509050610b709190610b74565b5090565b5b80821115610b8d576000816000905550600101610b75565b5090565b6000819050919050565b610ba481610b91565b82525050565b6000602082019050610bbf6000830184610b9b565b92915050565b6000604051905090565b600080fd5b600080fd5b610be281610b91565b8114610bed57600080fd5b50565b600081359050610bff81610bd9565b92915050565b600060208284031215610c1b57610c1a610bcf565b5b6000610c2984828501610bf0565b91505092915050565b600081519050919050565b600082825260208201905092915050565b60005b83811015610c6c578082015181840152602081019050610c51565b83811115610c7b576000848401525b50505050565b6000601f19601f8301169050919050565b6000610c9d82610c32565b610ca78185610c3d565b9350610cb7818560208601610c4e565b610cc081610c81565b840191505092915050565b7f4e487b7100000000000000000000000000000000000000000000000000000000600052602160045260246000fd5b60038110610d0b57610d0a610ccb565b5b50565b6000819050610d1c82610cfa565b919050565b6000610d2c82610d0e565b9050919050565b610d3c81610d21565b82525050565b60058110610d5357610d52610ccb565b5b50565b6000819050610d6482610d42565b919050565b6000610d7482610d56565b9050919050565b610d8481610d69565b82525050565b600073ffffffffffffffffffffffffffffffffffffffff82169050919050565b6000610db582610d8a565b9050919050565b610dc581610daa565b82525050565b600060c082019050610de06000830189610b9b565b8181036020830152610df28188610c92565b9050610e016040830187610d33565b610e0e6060830186610d7b565b610e1b6080830185610dbc565b610e2860a0830184610dbc565b979650505050505050565b60008060408385031215610e4a57610e49610bcf565b5b6000610e5885828601610bf0565b9250506020610e6985828601610bf0565b9150509250929050565b600081519050919050565b600082825260208201905092915050565b6000819050602082019050919050565b610ea881610b91565b82525050565b600082825260208201905092915050565b6000610eca82610c32565b610ed48185610eae565b9350610ee4818560208601610c4e565b610eed81610c81565b840191505092915050565b610f0181610d21565b82525050565b610f1081610d69565b82525050565b610f1f81610daa565b82525050565b600060c083016000830151610f3d6000860182610e9f565b5060208301518482036020860152610f558282610ebf565b9150506040830151610f6a6040860182610ef8565b506060830151610f7d6060860182610f07565b506080830151610f906080860182610f16565b5060a0830151610fa360a0860182610f16565b508091505092915050565b6000610fba8383610f25565b905092915050565b6000602082019050919050565b6000610fda82610e73565b610fe48185610e7e565b935083602082028501610ff685610e8f565b8060005b8581101561103257848403895281516110138582610fae565b945061101e83610fc2565b925060208a01995050600181019050610ffa565b50829750879550505050505092915050565b6000602082019050818103600083015261105e8184610fcf565b905092915050565b600080fd5b600080fd5b7f4e487b7100000000000000000000000000000000000000000000000000000000600052604160045260246000fd5b6110a882610c81565b810181811067ffffffffffffffff821117156110c7576110c6611070565b5b80604052505050565b60006110da610bc5565b90506110e6828261109f565b919050565b600067ffffffffffffffff82111561110657611105611070565b5b61110f82610c81565b9050602081019050919050565b82818337600083830152505050565b600061113e611139846110eb565b6110d0565b90508281526020810184848401111561115a5761115961106b565b5b61116584828561111c565b509392505050565b600082601f83011261118257611181611066565b5b813561119284826020860161112b565b91505092915050565b6111a481610daa565b81146111af57600080fd5b50565b6000813590506111c18161119b565b92915050565b600080600080600060a086880312156111e3576111e2610bcf565b5b600086013567ffffffffffffffff81111561120157611200610bd4565b5b61120d8882890161116d565b955050602086013567ffffffffffffffff81111561122e5761122d610bd4565b5b61123a8882890161116d565b945050604061124b88828901610bf0565b935050606061125c88828901610bf0565b925050608061126d888289016111b2565b9150509295509295909350565b7f4e487b7100000000000000000000000000000000000000000000000000000000600052602260045260246000fd5b600060028204905060018216806112c157607f821691505b602082108114156112d5576112d461127a565b5b50919050565b7f4e487b7100000000000000000000000000000000000000000000000000000000600052603260045260246000fd5b600060e08201905061131f600083018a610b9b565b81810360208301526113318189610c92565b90506113406040830188610d33565b61134d6060830187610d7b565b61135a6080830186610dbc565b61136760a0830185610dbc565b61137460c0830184610b9b565b98975050505050505050565b7f4e487b7100000000000000000000000000000000000000000000000000000000600052601160045260246000fd5b60006113ba82610b91565b91507fffffffffffffffffffffffffffffffffffffffffffffffffffffffffffffffff8214156113ed576113ec611380565b5b60018201905091905056fea264697066735822122094ac4097f44d9c959df96f9dc3e721a29dab0aef2de677564e28baa4d3b706bf64736f6c634300080a0033",
  "immutableReferences": {},
  "source": "// SPDX-License-Identifier: MIT\r\npragma solidity >=0.8.0 <0.9.0;\r\n\r\nimport \"./SharedChain.sol\";\r\n\r\ncontract SupervisorChain is SharedChain {\r\n    address _supervisorAddress;\r\n\r\n    // They will be filter after the status of the requests\r\n    mapping(uint => Request) public requestsSupervisor;\r\n    uint public requestsSupervisorCounter = 0;\r\n    Request[] public allSupervisorRequests;\r\n\r\n    constructor() {\r\n        _supervisorAddress = msg.sender;\r\n    }\r\n\r\n    modifier onlySupervisor {\r\n        require(_supervisorAddress == msg.sender, \"You are not a supervisor\");\r\n        _;\r\n    }\r\n\r\n    function createRequestSupervisor(\r\n        string memory _title,\r\n        string memory _description,\r\n        uint _requestStatus,\r\n        uint _projectStatus,\r\n        address _projectAddress\r\n    ) public {\r\n        requestsSupervisor[requestsSupervisorCounter]._index = requestsSupervisorCounter;\r\n        requestsSupervisor[requestsSupervisorCounter]._title = _title;\r\n        requestsSupervisor[requestsSupervisorCounter]._requestStatus = RequestStatus(_requestStatus);\r\n        requestsSupervisor[requestsSupervisorCounter]._projectStatus = ProjectStatus(_projectStatus);\r\n        requestsSupervisor[requestsSupervisorCounter]._projectAddress = _projectAddress;\r\n        // change to supervisorAddress\r\n        requestsSupervisor[requestsSupervisorCounter]._userAddress = _supervisorAddress;\r\n\r\n        emit RequestEvent(requestsSupervisorCounter, _title, RequestStatus(_requestStatus), ProjectStatus(_projectStatus), _projectAddress, _supervisorAddress, block.timestamp);\r\n        allSupervisorRequests.push(Request(requestsSupervisorCounter, _title,  RequestStatus(_requestStatus), ProjectStatus(_projectStatus), _projectAddress, _supervisorAddress));\r\n        requestsSupervisorCounter++;\r\n    }\r\n\r\n    function updateRequestSupervisor(uint _requestStatus, uint _index) public {\r\n        requestsSupervisor[_index]._requestStatus = RequestStatus(_requestStatus);\r\n        uint index = requestsSupervisor[_index]._index;\r\n        allSupervisorRequests[index]._requestStatus = RequestStatus(_requestStatus);\r\n    }\r\n\r\n    function getAllRequestsSupervisor() public view returns(Request[] memory) {\r\n        return allSupervisorRequests;\r\n    }\r\n}\r\n",
  "sourcePath": "/mnt/c/users/beniamin/source/repos/dissertationproject/contracts/SupervisorChain.sol",
  "compiler": {
    "name": "solc",
    "version": "0.8.10+commit.fc410830.Emscripten.clang"
  },
  "schemaVersion": "3.4.3",
  "updatedAt": "2021-11-21T08:14:09.138Z",
  "devdoc": {
    "kind": "dev",
    "methods": {},
    "version": 1
  },
  "userdoc": {
    "kind": "user",
    "methods": {},
    "version": 1
  }
}