{
  "contractName": "Supervisor",
  "abi": [
    {
      "inputs": [],
      "stateMutability": "nonpayable",
      "type": "constructor"
    },
    {
      "anonymous": false,
      "inputs": [
        {
          "indexed": false,
          "internalType": "enum Project.ProjectStatus",
          "name": "_status",
          "type": "uint8"
        },
        {
          "components": [
            {
              "internalType": "uint256",
              "name": "index",
              "type": "uint256"
            },
            {
              "internalType": "bytes32",
              "name": "identifier",
              "type": "bytes32"
            },
            {
              "internalType": "string",
              "name": "name",
              "type": "string"
            },
            {
              "internalType": "string",
              "name": "description",
              "type": "string"
            },
            {
              "internalType": "enum Project.ProjectStatus",
              "name": "projectStatus",
              "type": "uint8"
            },
            {
              "internalType": "string",
              "name": "ipfsFileCID",
              "type": "string"
            }
          ],
          "indexed": false,
          "internalType": "struct Project.S_Project",
          "name": "_project",
          "type": "tuple"
        },
        {
          "indexed": false,
          "internalType": "address",
          "name": "_subjectAddress",
          "type": "address"
        }
      ],
      "name": "ApproveProjectRequestBySupervisor",
      "type": "event"
    },
    {
      "anonymous": false,
      "inputs": [
        {
          "indexed": false,
          "internalType": "enum Project.ProjectStatus",
          "name": "_status",
          "type": "uint8"
        },
        {
          "components": [
            {
              "internalType": "uint256",
              "name": "index",
              "type": "uint256"
            },
            {
              "internalType": "bytes32",
              "name": "identifier",
              "type": "bytes32"
            },
            {
              "internalType": "string",
              "name": "name",
              "type": "string"
            },
            {
              "internalType": "string",
              "name": "description",
              "type": "string"
            },
            {
              "internalType": "enum Project.ProjectStatus",
              "name": "projectStatus",
              "type": "uint8"
            },
            {
              "internalType": "string",
              "name": "ipfsFileCID",
              "type": "string"
            }
          ],
          "indexed": false,
          "internalType": "struct Project.S_Project",
          "name": "_project",
          "type": "tuple"
        },
        {
          "indexed": false,
          "internalType": "address",
          "name": "_subjectAddress",
          "type": "address"
        }
      ],
      "name": "CompleteProjectRequestBySupervisor",
      "type": "event"
    },
    {
      "anonymous": false,
      "inputs": [
        {
          "indexed": false,
          "internalType": "string",
          "name": "_name",
          "type": "string"
        },
        {
          "indexed": false,
          "internalType": "string",
          "name": "_description",
          "type": "string"
        },
        {
          "indexed": false,
          "internalType": "enum Project.ProjectStatus",
          "name": "_status",
          "type": "uint8"
        },
        {
          "indexed": false,
          "internalType": "bytes32",
          "name": "_identifier",
          "type": "bytes32"
        }
      ],
      "name": "CreateProject",
      "type": "event"
    },
    {
      "anonymous": false,
      "inputs": [
        {
          "indexed": false,
          "internalType": "string",
          "name": "_description",
          "type": "string"
        },
        {
          "indexed": false,
          "internalType": "enum Project.ProjectStatus",
          "name": "_status",
          "type": "uint8"
        },
        {
          "components": [
            {
              "internalType": "uint256",
              "name": "index",
              "type": "uint256"
            },
            {
              "internalType": "bytes32",
              "name": "identifier",
              "type": "bytes32"
            },
            {
              "internalType": "string",
              "name": "name",
              "type": "string"
            },
            {
              "internalType": "string",
              "name": "description",
              "type": "string"
            },
            {
              "internalType": "enum Project.ProjectStatus",
              "name": "projectStatus",
              "type": "uint8"
            },
            {
              "internalType": "string",
              "name": "ipfsFileCID",
              "type": "string"
            }
          ],
          "indexed": false,
          "internalType": "struct Project.S_Project",
          "name": "_project",
          "type": "tuple"
        },
        {
          "indexed": false,
          "internalType": "address",
          "name": "_subjectAddress",
          "type": "address"
        }
      ],
      "name": "RejectProjectRequestBySupervisor",
      "type": "event"
    },
    {
      "anonymous": false,
      "inputs": [
        {
          "indexed": false,
          "internalType": "uint256",
          "name": "_indexRequest",
          "type": "uint256"
        },
        {
          "indexed": false,
          "internalType": "enum Project.RequestStatus",
          "name": "_status",
          "type": "uint8"
        },
        {
          "components": [
            {
              "internalType": "uint256",
              "name": "index",
              "type": "uint256"
            },
            {
              "internalType": "bytes32",
              "name": "identifier",
              "type": "bytes32"
            },
            {
              "internalType": "string",
              "name": "name",
              "type": "string"
            },
            {
              "internalType": "string",
              "name": "description",
              "type": "string"
            },
            {
              "internalType": "enum Project.ProjectStatus",
              "name": "projectStatus",
              "type": "uint8"
            },
            {
              "internalType": "string",
              "name": "ipfsFileCID",
              "type": "string"
            }
          ],
          "indexed": false,
          "internalType": "struct Project.S_Project",
          "name": "_project",
          "type": "tuple"
        },
        {
          "indexed": false,
          "internalType": "enum Project.ProjectStatus",
          "name": "_projectStatus",
          "type": "uint8"
        },
        {
          "indexed": false,
          "internalType": "address",
          "name": "_subjectAddress",
          "type": "address"
        }
      ],
      "name": "UpdateCompanyRequestStatus",
      "type": "event"
    },
    {
      "anonymous": false,
      "inputs": [
        {
          "indexed": false,
          "internalType": "uint256",
          "name": "_indexRequest",
          "type": "uint256"
        },
        {
          "indexed": false,
          "internalType": "enum Project.RequestStatus",
          "name": "_status",
          "type": "uint8"
        },
        {
          "components": [
            {
              "internalType": "uint256",
              "name": "index",
              "type": "uint256"
            },
            {
              "internalType": "bytes32",
              "name": "identifier",
              "type": "bytes32"
            },
            {
              "internalType": "string",
              "name": "name",
              "type": "string"
            },
            {
              "internalType": "string",
              "name": "description",
              "type": "string"
            },
            {
              "internalType": "enum Project.ProjectStatus",
              "name": "projectStatus",
              "type": "uint8"
            },
            {
              "internalType": "string",
              "name": "ipfsFileCID",
              "type": "string"
            }
          ],
          "indexed": false,
          "internalType": "struct Project.S_Project",
          "name": "_project",
          "type": "tuple"
        },
        {
          "indexed": false,
          "internalType": "enum Project.ProjectStatus",
          "name": "_projectStatus",
          "type": "uint8"
        },
        {
          "indexed": false,
          "internalType": "address",
          "name": "_subjectAddress",
          "type": "address"
        }
      ],
      "name": "UpdateSupervisorRequestStatus",
      "type": "event"
    },
    {
      "anonymous": false,
      "inputs": [
        {
          "indexed": true,
          "internalType": "address",
          "name": "_walletAddress",
          "type": "address"
        },
        {
          "indexed": true,
          "internalType": "string",
          "name": "_username",
          "type": "string"
        },
        {
          "indexed": false,
          "internalType": "string",
          "name": "_email",
          "type": "string"
        },
        {
          "indexed": false,
          "internalType": "string",
          "name": "_firstname",
          "type": "string"
        },
        {
          "indexed": false,
          "internalType": "string",
          "name": "_lastname",
          "type": "string"
        },
        {
          "indexed": true,
          "internalType": "enum User.Roles",
          "name": "_role",
          "type": "uint8"
        }
      ],
      "name": "UserRegistered",
      "type": "event"
    },
    {
      "inputs": [
        {
          "internalType": "uint256",
          "name": "_role",
          "type": "uint256"
        },
        {
          "internalType": "address",
          "name": "_walletAddress",
          "type": "address"
        }
      ],
      "name": "changeUserRole",
      "outputs": [
        {
          "internalType": "string",
          "name": "",
          "type": "string"
        }
      ],
      "stateMutability": "nonpayable",
      "type": "function"
    },
    {
      "inputs": [
        {
          "internalType": "uint256",
          "name": "",
          "type": "uint256"
        }
      ],
      "name": "companyRequests",
      "outputs": [
        {
          "internalType": "uint256",
          "name": "index",
          "type": "uint256"
        },
        {
          "internalType": "string",
          "name": "description",
          "type": "string"
        },
        {
          "internalType": "enum Project.RequestStatus",
          "name": "status",
          "type": "uint8"
        },
        {
          "components": [
            {
              "internalType": "uint256",
              "name": "index",
              "type": "uint256"
            },
            {
              "internalType": "bytes32",
              "name": "identifier",
              "type": "bytes32"
            },
            {
              "internalType": "string",
              "name": "name",
              "type": "string"
            },
            {
              "internalType": "string",
              "name": "description",
              "type": "string"
            },
            {
              "internalType": "enum Project.ProjectStatus",
              "name": "projectStatus",
              "type": "uint8"
            },
            {
              "internalType": "string",
              "name": "ipfsFileCID",
              "type": "string"
            }
          ],
          "internalType": "struct Project.S_Project",
          "name": "project",
          "type": "tuple"
        },
        {
          "internalType": "address",
          "name": "subjectAddress",
          "type": "address"
        }
      ],
      "stateMutability": "view",
      "type": "function"
    },
    {
      "inputs": [
        {
          "internalType": "string",
          "name": "_name",
          "type": "string"
        },
        {
          "internalType": "string",
          "name": "_description",
          "type": "string"
        },
        {
          "internalType": "uint256",
          "name": "_status",
          "type": "uint256"
        },
        {
          "internalType": "string",
          "name": "_hashStringValue",
          "type": "string"
        },
        {
          "internalType": "string",
          "name": "_ipfsFileCID",
          "type": "string"
        }
      ],
      "name": "createProject",
      "outputs": [],
      "stateMutability": "nonpayable",
      "type": "function"
    },
    {
      "inputs": [
        {
          "internalType": "string",
          "name": "_text",
          "type": "string"
        },
        {
          "internalType": "address",
          "name": "_addr",
          "type": "address"
        }
      ],
      "name": "createUniqueIdentifier",
      "outputs": [
        {
          "internalType": "bytes32",
          "name": "",
          "type": "bytes32"
        }
      ],
      "stateMutability": "pure",
      "type": "function"
    },
    {
      "inputs": [],
      "name": "getProjectIds",
      "outputs": [
        {
          "internalType": "uint256[]",
          "name": "",
          "type": "uint256[]"
        }
      ],
      "stateMutability": "view",
      "type": "function"
    },
    {
      "inputs": [
        {
          "internalType": "uint256",
          "name": "_index",
          "type": "uint256"
        }
      ],
      "name": "getProjectInfo",
      "outputs": [
        {
          "components": [
            {
              "internalType": "uint256",
              "name": "index",
              "type": "uint256"
            },
            {
              "internalType": "bytes32",
              "name": "identifier",
              "type": "bytes32"
            },
            {
              "internalType": "string",
              "name": "name",
              "type": "string"
            },
            {
              "internalType": "string",
              "name": "description",
              "type": "string"
            },
            {
              "internalType": "enum Project.ProjectStatus",
              "name": "projectStatus",
              "type": "uint8"
            },
            {
              "internalType": "string",
              "name": "ipfsFileCID",
              "type": "string"
            }
          ],
          "internalType": "struct Project.S_Project",
          "name": "",
          "type": "tuple"
        }
      ],
      "stateMutability": "view",
      "type": "function"
    },
    {
      "inputs": [],
      "name": "getUserAddresses",
      "outputs": [
        {
          "internalType": "address[]",
          "name": "",
          "type": "address[]"
        }
      ],
      "stateMutability": "view",
      "type": "function"
    },
    {
      "inputs": [
        {
          "internalType": "address",
          "name": "_address",
          "type": "address"
        }
      ],
      "name": "getUserInfo",
      "outputs": [
        {
          "components": [
            {
              "internalType": "string",
              "name": "username",
              "type": "string"
            },
            {
              "internalType": "string",
              "name": "email",
              "type": "string"
            },
            {
              "internalType": "string",
              "name": "firstname",
              "type": "string"
            },
            {
              "internalType": "string",
              "name": "lastname",
              "type": "string"
            },
            {
              "internalType": "enum User.Roles",
              "name": "role",
              "type": "uint8"
            },
            {
              "internalType": "address",
              "name": "walletAddress",
              "type": "address"
            }
          ],
          "internalType": "struct User.S_UserData",
          "name": "",
          "type": "tuple"
        }
      ],
      "stateMutability": "view",
      "type": "function"
    },
    {
      "inputs": [],
      "name": "owner",
      "outputs": [
        {
          "internalType": "address",
          "name": "",
          "type": "address"
        }
      ],
      "stateMutability": "view",
      "type": "function"
    },
    {
      "inputs": [
        {
          "internalType": "uint256",
          "name": "",
          "type": "uint256"
        }
      ],
      "name": "projectIds",
      "outputs": [
        {
          "internalType": "uint256",
          "name": "",
          "type": "uint256"
        }
      ],
      "stateMutability": "view",
      "type": "function"
    },
    {
      "inputs": [
        {
          "internalType": "uint256",
          "name": "",
          "type": "uint256"
        }
      ],
      "name": "projects",
      "outputs": [
        {
          "internalType": "uint256",
          "name": "index",
          "type": "uint256"
        },
        {
          "internalType": "bytes32",
          "name": "identifier",
          "type": "bytes32"
        },
        {
          "internalType": "string",
          "name": "name",
          "type": "string"
        },
        {
          "internalType": "string",
          "name": "description",
          "type": "string"
        },
        {
          "internalType": "enum Project.ProjectStatus",
          "name": "projectStatus",
          "type": "uint8"
        },
        {
          "internalType": "string",
          "name": "ipfsFileCID",
          "type": "string"
        }
      ],
      "stateMutability": "view",
      "type": "function"
    },
    {
      "inputs": [],
      "name": "projectsCount",
      "outputs": [
        {
          "internalType": "uint256",
          "name": "",
          "type": "uint256"
        }
      ],
      "stateMutability": "view",
      "type": "function"
    },
    {
      "inputs": [
        {
          "internalType": "string",
          "name": "_username",
          "type": "string"
        },
        {
          "internalType": "string",
          "name": "_email",
          "type": "string"
        },
        {
          "internalType": "string",
          "name": "_firstname",
          "type": "string"
        },
        {
          "internalType": "string",
          "name": "_lastname",
          "type": "string"
        },
        {
          "internalType": "uint256",
          "name": "_role",
          "type": "uint256"
        },
        {
          "internalType": "address",
          "name": "_walletAddress",
          "type": "address"
        }
      ],
      "name": "registerUser",
      "outputs": [],
      "stateMutability": "nonpayable",
      "type": "function"
    },
    {
      "inputs": [
        {
          "internalType": "string",
          "name": "_description",
          "type": "string"
        },
        {
          "components": [
            {
              "internalType": "uint256",
              "name": "index",
              "type": "uint256"
            },
            {
              "internalType": "bytes32",
              "name": "identifier",
              "type": "bytes32"
            },
            {
              "internalType": "string",
              "name": "name",
              "type": "string"
            },
            {
              "internalType": "string",
              "name": "description",
              "type": "string"
            },
            {
              "internalType": "enum Project.ProjectStatus",
              "name": "projectStatus",
              "type": "uint8"
            },
            {
              "internalType": "string",
              "name": "ipfsFileCID",
              "type": "string"
            }
          ],
          "internalType": "struct Project.S_Project",
          "name": "_project",
          "type": "tuple"
        },
        {
          "internalType": "address",
          "name": "_subjectAddress",
          "type": "address"
        }
      ],
      "name": "requestProjectApprovalFromSupervisor",
      "outputs": [],
      "stateMutability": "nonpayable",
      "type": "function"
    },
    {
      "inputs": [
        {
          "internalType": "string",
          "name": "_description",
          "type": "string"
        },
        {
          "components": [
            {
              "internalType": "uint256",
              "name": "index",
              "type": "uint256"
            },
            {
              "internalType": "bytes32",
              "name": "identifier",
              "type": "bytes32"
            },
            {
              "internalType": "string",
              "name": "name",
              "type": "string"
            },
            {
              "internalType": "string",
              "name": "description",
              "type": "string"
            },
            {
              "internalType": "enum Project.ProjectStatus",
              "name": "projectStatus",
              "type": "uint8"
            },
            {
              "internalType": "string",
              "name": "ipfsFileCID",
              "type": "string"
            }
          ],
          "internalType": "struct Project.S_Project",
          "name": "_project",
          "type": "tuple"
        },
        {
          "internalType": "address",
          "name": "_subjectAddress",
          "type": "address"
        }
      ],
      "name": "requestProjectCompleteFromSupervisor",
      "outputs": [],
      "stateMutability": "nonpayable",
      "type": "function"
    },
    {
      "inputs": [
        {
          "internalType": "string",
          "name": "_description",
          "type": "string"
        },
        {
          "components": [
            {
              "internalType": "uint256",
              "name": "index",
              "type": "uint256"
            },
            {
              "internalType": "bytes32",
              "name": "identifier",
              "type": "bytes32"
            },
            {
              "internalType": "string",
              "name": "name",
              "type": "string"
            },
            {
              "internalType": "string",
              "name": "description",
              "type": "string"
            },
            {
              "internalType": "enum Project.ProjectStatus",
              "name": "projectStatus",
              "type": "uint8"
            },
            {
              "internalType": "string",
              "name": "ipfsFileCID",
              "type": "string"
            }
          ],
          "internalType": "struct Project.S_Project",
          "name": "_project",
          "type": "tuple"
        },
        {
          "internalType": "address",
          "name": "_subjectAddress",
          "type": "address"
        }
      ],
      "name": "requestStartProjectToCompanyBuilder",
      "outputs": [],
      "stateMutability": "nonpayable",
      "type": "function"
    },
    {
      "inputs": [
        {
          "internalType": "uint256",
          "name": "",
          "type": "uint256"
        }
      ],
      "name": "supervisorRequests",
      "outputs": [
        {
          "internalType": "uint256",
          "name": "index",
          "type": "uint256"
        },
        {
          "internalType": "string",
          "name": "description",
          "type": "string"
        },
        {
          "internalType": "enum Project.RequestStatus",
          "name": "status",
          "type": "uint8"
        },
        {
          "components": [
            {
              "internalType": "uint256",
              "name": "index",
              "type": "uint256"
            },
            {
              "internalType": "bytes32",
              "name": "identifier",
              "type": "bytes32"
            },
            {
              "internalType": "string",
              "name": "name",
              "type": "string"
            },
            {
              "internalType": "string",
              "name": "description",
              "type": "string"
            },
            {
              "internalType": "enum Project.ProjectStatus",
              "name": "projectStatus",
              "type": "uint8"
            },
            {
              "internalType": "string",
              "name": "ipfsFileCID",
              "type": "string"
            }
          ],
          "internalType": "struct Project.S_Project",
          "name": "project",
          "type": "tuple"
        },
        {
          "internalType": "address",
          "name": "subjectAddress",
          "type": "address"
        }
      ],
      "stateMutability": "view",
      "type": "function"
    },
    {
      "inputs": [
        {
          "internalType": "uint256",
          "name": "",
          "type": "uint256"
        }
      ],
      "name": "userAddresses",
      "outputs": [
        {
          "internalType": "address",
          "name": "",
          "type": "address"
        }
      ],
      "stateMutability": "view",
      "type": "function"
    },
    {
      "inputs": [
        {
          "internalType": "address",
          "name": "",
          "type": "address"
        }
      ],
      "name": "userInfo",
      "outputs": [
        {
          "internalType": "string",
          "name": "username",
          "type": "string"
        },
        {
          "internalType": "string",
          "name": "email",
          "type": "string"
        },
        {
          "internalType": "string",
          "name": "firstname",
          "type": "string"
        },
        {
          "internalType": "string",
          "name": "lastname",
          "type": "string"
        },
        {
          "internalType": "enum User.Roles",
          "name": "role",
          "type": "uint8"
        },
        {
          "internalType": "address",
          "name": "walletAddress",
          "type": "address"
        }
      ],
      "stateMutability": "view",
      "type": "function"
    },
    {
      "inputs": [],
      "name": "usersCount",
      "outputs": [
        {
          "internalType": "uint256",
          "name": "",
          "type": "uint256"
        }
      ],
      "stateMutability": "view",
      "type": "function"
    },
    {
      "inputs": [
        {
          "components": [
            {
              "internalType": "uint256",
              "name": "index",
              "type": "uint256"
            },
            {
              "internalType": "bytes32",
              "name": "identifier",
              "type": "bytes32"
            },
            {
              "internalType": "string",
              "name": "name",
              "type": "string"
            },
            {
              "internalType": "string",
              "name": "description",
              "type": "string"
            },
            {
              "internalType": "enum Project.ProjectStatus",
              "name": "projectStatus",
              "type": "uint8"
            },
            {
              "internalType": "string",
              "name": "ipfsFileCID",
              "type": "string"
            }
          ],
          "internalType": "struct Project.S_Project",
          "name": "_project",
          "type": "tuple"
        }
      ],
      "name": "setProjectRequestToApprovedStatus",
      "outputs": [],
      "stateMutability": "nonpayable",
      "type": "function"
    },
    {
      "inputs": [
        {
          "internalType": "string",
          "name": "_description",
          "type": "string"
        },
        {
          "components": [
            {
              "internalType": "uint256",
              "name": "index",
              "type": "uint256"
            },
            {
              "internalType": "bytes32",
              "name": "identifier",
              "type": "bytes32"
            },
            {
              "internalType": "string",
              "name": "name",
              "type": "string"
            },
            {
              "internalType": "string",
              "name": "description",
              "type": "string"
            },
            {
              "internalType": "enum Project.ProjectStatus",
              "name": "projectStatus",
              "type": "uint8"
            },
            {
              "internalType": "string",
              "name": "ipfsFileCID",
              "type": "string"
            }
          ],
          "internalType": "struct Project.S_Project",
          "name": "_project",
          "type": "tuple"
        }
      ],
      "name": "setProjectRequestToRejectStatus",
      "outputs": [],
      "stateMutability": "nonpayable",
      "type": "function"
    },
    {
      "inputs": [
        {
          "components": [
            {
              "internalType": "uint256",
              "name": "index",
              "type": "uint256"
            },
            {
              "internalType": "bytes32",
              "name": "identifier",
              "type": "bytes32"
            },
            {
              "internalType": "string",
              "name": "name",
              "type": "string"
            },
            {
              "internalType": "string",
              "name": "description",
              "type": "string"
            },
            {
              "internalType": "enum Project.ProjectStatus",
              "name": "projectStatus",
              "type": "uint8"
            },
            {
              "internalType": "string",
              "name": "ipfsFileCID",
              "type": "string"
            }
          ],
          "internalType": "struct Project.S_Project",
          "name": "_project",
          "type": "tuple"
        }
      ],
      "name": "setProjectRequestToCompletedStatus",
      "outputs": [],
      "stateMutability": "nonpayable",
      "type": "function"
    }
  ],
  "bytecode": "0x60806040526000600255600060085534801561001a57600080fd5b5033600160006101000a81548173ffffffffffffffffffffffffffffffffffffffff021916908373ffffffffffffffffffffffffffffffffffffffff16021790555033600460006101000a81548173ffffffffffffffffffffffffffffffffffffffff021916908373ffffffffffffffffffffffffffffffffffffffff16021790555033600c60006101000a81548173ffffffffffffffffffffffffffffffffffffffff021916908373ffffffffffffffffffffffffffffffffffffffff160217905550613d1f806100ed6000396000f3fe608060405234801561001057600080fd5b506004361061014d5760003560e01c806386ee5475116100c3578063b5f407841161007c578063b5f40784146103e4578063c73b302e14610400578063d40d4a801461041e578063f14719d414610452578063fabf59681461046e578063fb7ae3091461049e5761014d565b806386ee54751461030c5780638c86a1d7146103285780638da5cb5b1461035c578063910097861461037a578063911c29a6146103aa578063a591efde146103c65761014d565b8063502c9bd511610115578063502c9bd5146102265780636132844f146102565780636386c1c7146102865780636ba13a82146102b65780637a537271146102d45780637f9e79f2146102f05761014d565b8063107046bd146101525780631959a0021461018757806329a613b5146101bc5780632ff70111146101da57806348c35ad4146101f6575b600080fd5b61016c600480360381019061016791906128b5565b6104ba565b60405161017e96959493929190612a1a565b60405180910390f35b6101a1600480360381019061019c9190612aee565b61069b565b6040516101b396959493929190612b72565b60405180910390f35b6101c4610924565b6040516101d19190612cad565b60405180910390f35b6101f460048036038101906101ef9190612e04565b61097c565b005b610210600480360381019061020b91906128b5565b610b39565b60405161021d9190612eef565b60405180910390f35b610240600480360381019061023b91906128b5565b610b5d565b60405161024d9190612f0a565b60405180910390f35b610270600480360381019061026b9190612f25565b610b9c565b60405161027d9190612f81565b60405180910390f35b6102a0600480360381019061029b9190612aee565b610bcf565b6040516102ad91906130a2565b60405180910390f35b6102be610f00565b6040516102cb9190612eef565b60405180910390f35b6102ee60048036038101906102e99190613213565b610f06565b005b61030a60048036038101906103059190613213565b611028565b005b6103266004803603810190610321919061325c565b61114a565b005b610342600480360381019061033d91906128b5565b61135e565b6040516103539594939291906133e4565b60405180910390f35b610364611658565b6040516103719190612f0a565b60405180910390f35b610394600480360381019061038f9190613445565b61167e565b6040516103a19190613485565b60405180910390f35b6103c460048036038101906103bf91906134a7565b6117c9565b005b6103ce611c12565b6040516103db9190613653565b60405180910390f35b6103fe60048036038101906103f9919061325c565b611ca0565b005b610408611eb4565b6040516104159190612eef565b60405180910390f35b610438600480360381019061043391906128b5565b611eba565b6040516104499594939291906133e4565b60405180910390f35b61046c60048036038101906104679190613675565b6121b4565b005b610488600480360381019061048391906128b5565b6122d9565b60405161049591906136ed565b60405180910390f35b6104b860048036038101906104b3919061325c565b61250b565b005b60056020528060005260406000206000915090508060000154908060010154908060020180546104e99061373e565b80601f01602080910402602001604051908101604052809291908181526020018280546105159061373e565b80156105625780601f1061053757610100808354040283529160200191610562565b820191906000526020600020905b81548152906001019060200180831161054557829003601f168201915b5050505050908060030180546105779061373e565b80601f01602080910402602001604051908101604052809291908181526020018280546105a39061373e565b80156105f05780601f106105c5576101008083540402835291602001916105f0565b820191906000526020600020905b8154815290600101906020018083116105d357829003601f168201915b5050505050908060040160009054906101000a900460ff16908060050180546106189061373e565b80601f01602080910402602001604051908101604052809291908181526020018280546106449061373e565b80156106915780601f1061066657610100808354040283529160200191610691565b820191906000526020600020905b81548152906001019060200180831161067457829003601f168201915b5050505050905086565b60006020528060005260406000206000915090508060000180546106be9061373e565b80601f01602080910402602001604051908101604052809291908181526020018280546106ea9061373e565b80156107375780601f1061070c57610100808354040283529160200191610737565b820191906000526020600020905b81548152906001019060200180831161071a57829003601f168201915b50505050509080600101805461074c9061373e565b80601f01602080910402602001604051908101604052809291908181526020018280546107789061373e565b80156107c55780601f1061079a576101008083540402835291602001916107c5565b820191906000526020600020905b8154815290600101906020018083116107a857829003601f168201915b5050505050908060020180546107da9061373e565b80601f01602080910402602001604051908101604052809291908181526020018280546108069061373e565b80156108535780601f1061082857610100808354040283529160200191610853565b820191906000526020600020905b81548152906001019060200180831161083657829003601f168201915b5050505050908060030180546108689061373e565b80601f01602080910402602001604051908101604052809291908181526020018280546108949061373e565b80156108e15780601f106108b6576101008083540402835291602001916108e1565b820191906000526020600020905b8154815290600101906020018083116108c457829003601f168201915b5050505050908060040160009054906101000a900460ff16908060040160019054906101000a900473ffffffffffffffffffffffffffffffffffffffff16905086565b6060600980548060200260200160405190810160405280929190818152602001828054801561097257602002820191906000526020600020905b81548152602001906001019080831161095e575b5050505050905090565b60006109888333610b9c565b90506008546005600060085481526020019081526020016000206000018190555080600560006008548152602001908152602001600020600101819055508560056000600854815260200190815260200160002060020190805190602001906109f292919061271f565b50846005600060085481526020019081526020016000206003019080519060200190610a1f92919061271f565b50836005811115610a3357610a326129a3565b5b60056000600854815260200190815260200160002060040160006101000a81548160ff02191690836005811115610a6d57610a6c6129a3565b5b0217905550816005600060085481526020019081526020016000206005019080519060200190610a9e92919061271f565b507f4656bb678dd0b427f71c9f70d273c2c1cb8ebd0add8063549243d64bd3ed369a8686866005811115610ad557610ad46129a3565b5b84604051610ae69493929190613770565b60405180910390a16009600854908060018154018082558091505060019003906000526020600020016000909190919091505560086000815480929190610b2c906137f2565b9190505550505050505050565b60098181548110610b4957600080fd5b906000526020600020016000915090505481565b60038181548110610b6d57600080fd5b906000526020600020016000915054906101000a900473ffffffffffffffffffffffffffffffffffffffff1681565b60008282604051602001610bb19291906138bf565b60405160208183030381529060405280519060200120905092915050565b610bd76127a5565b6000808373ffffffffffffffffffffffffffffffffffffffff1673ffffffffffffffffffffffffffffffffffffffff1681526020019081526020016000206040518060c0016040529081600082018054610c309061373e565b80601f0160208091040260200160405190810160405280929190818152602001828054610c5c9061373e565b8015610ca95780601f10610c7e57610100808354040283529160200191610ca9565b820191906000526020600020905b815481529060010190602001808311610c8c57829003601f168201915b50505050508152602001600182018054610cc29061373e565b80601f0160208091040260200160405190810160405280929190818152602001828054610cee9061373e565b8015610d3b5780601f10610d1057610100808354040283529160200191610d3b565b820191906000526020600020905b815481529060010190602001808311610d1e57829003601f168201915b50505050508152602001600282018054610d549061373e565b80601f0160208091040260200160405190810160405280929190818152602001828054610d809061373e565b8015610dcd5780601f10610da257610100808354040283529160200191610dcd565b820191906000526020600020905b815481529060010190602001808311610db057829003601f168201915b50505050508152602001600382018054610de69061373e565b80601f0160208091040260200160405190810160405280929190818152602001828054610e129061373e565b8015610e5f5780601f10610e3457610100808354040283529160200191610e5f565b820191906000526020600020905b815481529060010190602001808311610e4257829003601f168201915b505050505081526020016004820160009054906101000a900460ff166003811115610e8d57610e8c6129a3565b5b6003811115610e9f57610e9e6129a3565b5b81526020016004820160019054906101000a900473ffffffffffffffffffffffffffffffffffffffff1673ffffffffffffffffffffffffffffffffffffffff1673ffffffffffffffffffffffffffffffffffffffff16815250509050919050565b60025481565b3373ffffffffffffffffffffffffffffffffffffffff16600c60009054906101000a900473ffffffffffffffffffffffffffffffffffffffff1673ffffffffffffffffffffffffffffffffffffffff1614610f96576040517f08c379a0000000000000000000000000000000000000000000000000000000008152600401610f8d90613933565b60405180910390fd5b600581608001906005811115610faf57610fae6129a3565b5b90816005811115610fc357610fc26129a3565b5b815250507fd349e069a08d99960d80c48a9b1a1807f19980650bae854be8042c02fb2de218600582600c60009054906101000a900473ffffffffffffffffffffffffffffffffffffffff1660405161101d93929190613953565b60405180910390a150565b3373ffffffffffffffffffffffffffffffffffffffff16600c60009054906101000a900473ffffffffffffffffffffffffffffffffffffffff1673ffffffffffffffffffffffffffffffffffffffff16146110b8576040517f08c379a00000000000000000000000000000000000000000000000000000000081526004016110af90613933565b60405180910390fd5b6001816080019060058111156110d1576110d06129a3565b5b908160058111156110e5576110e46129a3565b5b815250507fb863297034e43e5b2ea2f6ea0a941634dfe4c61c8a192f66b596f6b0b0602268600182600c60009054906101000a900473ffffffffffffffffffffffffffffffffffffffff1660405161113f93929190613953565b60405180910390a150565b6004600581111561115e5761115d6129a3565b5b82608001516005811115611175576111746129a3565b5b146111b5576040517f08c379a00000000000000000000000000000000000000000000000000000000081526004016111ac90613a29565b60405180910390fd5b600060076000600b5481526020019081526020016000209050838160010190805190602001906111e692919061271f565b5060008160020160006101000a81548160ff0219169083600181111561120f5761120e6129a3565b5b021790555082816003016000820151816000015560208201518160010155604082015181600201908051906020019061124992919061271f565b50606082015181600301908051906020019061126692919061271f565b5060808201518160040160006101000a81548160ff02191690836005811115611292576112916129a3565b5b021790555060a08201518160050190805190602001906112b392919061271f565b50905050818160090160006101000a81548173ffffffffffffffffffffffffffffffffffffffff021916908373ffffffffffffffffffffffffffffffffffffffff1602179055507f51fc07e4e94804a1a5934ff343c58ff6a5c813add2652c992c9e03d670b1a120600b54600085866080015186604051611338959493929190613a49565b60405180910390a1600b6000815480929190611353906137f2565b919050555050505050565b60076020528060005260406000206000915090508060000154908060010180546113879061373e565b80601f01602080910402602001604051908101604052809291908181526020018280546113b39061373e565b80156114005780601f106113d557610100808354040283529160200191611400565b820191906000526020600020905b8154815290600101906020018083116113e357829003601f168201915b5050505050908060020160009054906101000a900460ff1690806003016040518060c0016040529081600082015481526020016001820154815260200160028201805461144c9061373e565b80601f01602080910402602001604051908101604052809291908181526020018280546114789061373e565b80156114c55780601f1061149a576101008083540402835291602001916114c5565b820191906000526020600020905b8154815290600101906020018083116114a857829003601f168201915b505050505081526020016003820180546114de9061373e565b80601f016020809104026020016040519081016040528092919081815260200182805461150a9061373e565b80156115575780601f1061152c57610100808354040283529160200191611557565b820191906000526020600020905b81548152906001019060200180831161153a57829003601f168201915b505050505081526020016004820160009054906101000a900460ff166005811115611585576115846129a3565b5b6005811115611597576115966129a3565b5b81526020016005820180546115ab9061373e565b80601f01602080910402602001604051908101604052809291908181526020018280546115d79061373e565b80156116245780601f106115f957610100808354040283529160200191611624565b820191906000526020600020905b81548152906001019060200180831161160757829003601f168201915b505050505081525050908060090160009054906101000a900473ffffffffffffffffffffffffffffffffffffffff16905085565b600160009054906101000a900473ffffffffffffffffffffffffffffffffffffffff1681565b60603373ffffffffffffffffffffffffffffffffffffffff16600160009054906101000a900473ffffffffffffffffffffffffffffffffffffffff1673ffffffffffffffffffffffffffffffffffffffff1614611710576040517f08c379a000000000000000000000000000000000000000000000000000000000815260040161170790613aef565b60405180910390fd5b826003811115611723576117226129a3565b5b6000808473ffffffffffffffffffffffffffffffffffffffff1673ffffffffffffffffffffffffffffffffffffffff16815260200190815260200160002060040160006101000a81548160ff02191690836003811115611786576117856129a3565b5b02179055506040518060400160405280600d81526020017f526f6c6520557064617465642100000000000000000000000000000000000000815250905092915050565b3373ffffffffffffffffffffffffffffffffffffffff16600160009054906101000a900473ffffffffffffffffffffffffffffffffffffffff1673ffffffffffffffffffffffffffffffffffffffff1614611859576040517f08c379a000000000000000000000000000000000000000000000000000000000815260040161185090613aef565b60405180910390fd5b856000808373ffffffffffffffffffffffffffffffffffffffff1673ffffffffffffffffffffffffffffffffffffffff16815260200190815260200160002060000190805190602001906118ae92919061271f565b50856000808373ffffffffffffffffffffffffffffffffffffffff1673ffffffffffffffffffffffffffffffffffffffff168152602001908152602001600020600001908051906020019061190492919061271f565b50846000808373ffffffffffffffffffffffffffffffffffffffff1673ffffffffffffffffffffffffffffffffffffffff168152602001908152602001600020600101908051906020019061195a92919061271f565b50836000808373ffffffffffffffffffffffffffffffffffffffff1673ffffffffffffffffffffffffffffffffffffffff16815260200190815260200160002060020190805190602001906119b092919061271f565b50826000808373ffffffffffffffffffffffffffffffffffffffff1673ffffffffffffffffffffffffffffffffffffffff1681526020019081526020016000206003019080519060200190611a0692919061271f565b50816003811115611a1a57611a196129a3565b5b6000808373ffffffffffffffffffffffffffffffffffffffff1673ffffffffffffffffffffffffffffffffffffffff16815260200190815260200160002060040160006101000a81548160ff02191690836003811115611a7d57611a7c6129a3565b5b0217905550806000808373ffffffffffffffffffffffffffffffffffffffff1673ffffffffffffffffffffffffffffffffffffffff16815260200190815260200160002060040160016101000a81548173ffffffffffffffffffffffffffffffffffffffff021916908373ffffffffffffffffffffffffffffffffffffffff160217905550816003811115611b1557611b146129a3565b5b6003811115611b2757611b266129a3565b5b86604051611b359190613b0f565b60405180910390208273ffffffffffffffffffffffffffffffffffffffff167fddb5d1667467713eb503e7e133811c91a231cb6b63f11930889c6004f36c35ee888888604051611b8793929190613b26565b60405180910390a46003819080600181540180825580915050600190039060005260206000200160009091909190916101000a81548173ffffffffffffffffffffffffffffffffffffffff021916908373ffffffffffffffffffffffffffffffffffffffff16021790555060026000815480929190611c05906137f2565b9190505550505050505050565b60606003805480602002602001604051908101604052809291908181526020018280548015611c9657602002820191906000526020600020905b8160009054906101000a900473ffffffffffffffffffffffffffffffffffffffff1673ffffffffffffffffffffffffffffffffffffffff1681526020019060010190808311611c4c575b5050505050905090565b60006005811115611cb457611cb36129a3565b5b82608001516005811115611ccb57611cca6129a3565b5b14611d0b576040517f08c379a0000000000000000000000000000000000000000000000000000000008152600401611d0290613be4565b60405180910390fd5b600060076000600b548152602001908152602001600020905083816001019080519060200190611d3c92919061271f565b5060008160020160006101000a81548160ff02191690836001811115611d6557611d646129a3565b5b0217905550828160030160008201518160000155602082015181600101556040820151816002019080519060200190611d9f92919061271f565b506060820151816003019080519060200190611dbc92919061271f565b5060808201518160040160006101000a81548160ff02191690836005811115611de857611de76129a3565b5b021790555060a0820151816005019080519060200190611e0992919061271f565b50905050818160090160006101000a81548173ffffffffffffffffffffffffffffffffffffffff021916908373ffffffffffffffffffffffffffffffffffffffff1602179055507f51fc07e4e94804a1a5934ff343c58ff6a5c813add2652c992c9e03d670b1a120600b54600085866080015186604051611e8e959493929190613a49565b60405180910390a1600b6000815480929190611ea9906137f2565b919050555050505050565b60085481565b6006602052806000526040600020600091509050806000015490806001018054611ee39061373e565b80601f0160208091040260200160405190810160405280929190818152602001828054611f0f9061373e565b8015611f5c5780601f10611f3157610100808354040283529160200191611f5c565b820191906000526020600020905b815481529060010190602001808311611f3f57829003601f168201915b5050505050908060020160009054906101000a900460ff1690806003016040518060c00160405290816000820154815260200160018201548152602001600282018054611fa89061373e565b80601f0160208091040260200160405190810160405280929190818152602001828054611fd49061373e565b80156120215780601f10611ff657610100808354040283529160200191612021565b820191906000526020600020905b81548152906001019060200180831161200457829003601f168201915b5050505050815260200160038201805461203a9061373e565b80601f01602080910402602001604051908101604052809291908181526020018280546120669061373e565b80156120b35780601f10612088576101008083540402835291602001916120b3565b820191906000526020600020905b81548152906001019060200180831161209657829003601f168201915b505050505081526020016004820160009054906101000a900460ff1660058111156120e1576120e06129a3565b5b60058111156120f3576120f26129a3565b5b81526020016005820180546121079061373e565b80601f01602080910402602001604051908101604052809291908181526020018280546121339061373e565b80156121805780601f1061215557610100808354040283529160200191612180565b820191906000526020600020905b81548152906001019060200180831161216357829003601f168201915b505050505081525050908060090160009054906101000a900473ffffffffffffffffffffffffffffffffffffffff16905085565b3373ffffffffffffffffffffffffffffffffffffffff16600c60009054906101000a900473ffffffffffffffffffffffffffffffffffffffff1673ffffffffffffffffffffffffffffffffffffffff1614612244576040517f08c379a000000000000000000000000000000000000000000000000000000000815260040161223b90613933565b60405180910390fd5b60028160800190600581111561225d5761225c6129a3565b5b90816005811115612271576122706129a3565b5b815250507f5c6a5efdc8551d450c400b8a1de71f867403f1082b574e50b8ba9f992a82192382600183600c60009054906101000a900473ffffffffffffffffffffffffffffffffffffffff166040516122cd9493929190613c04565b60405180910390a15050565b6122e1612803565b600560008381526020019081526020016000206040518060c001604052908160008201548152602001600182015481526020016002820180546123239061373e565b80601f016020809104026020016040519081016040528092919081815260200182805461234f9061373e565b801561239c5780601f106123715761010080835404028352916020019161239c565b820191906000526020600020905b81548152906001019060200180831161237f57829003601f168201915b505050505081526020016003820180546123b59061373e565b80601f01602080910402602001604051908101604052809291908181526020018280546123e19061373e565b801561242e5780601f106124035761010080835404028352916020019161242e565b820191906000526020600020905b81548152906001019060200180831161241157829003601f168201915b505050505081526020016004820160009054906101000a900460ff16600581111561245c5761245b6129a3565b5b600581111561246e5761246d6129a3565b5b81526020016005820180546124829061373e565b80601f01602080910402602001604051908101604052809291908181526020018280546124ae9061373e565b80156124fb5780601f106124d0576101008083540402835291602001916124fb565b820191906000526020600020905b8154815290600101906020018083116124de57829003601f168201915b5050505050815250509050919050565b6001600581111561251f5761251e6129a3565b5b82608001516005811115612536576125356129a3565b5b14612576576040517f08c379a000000000000000000000000000000000000000000000000000000000815260040161256d90613cc9565b60405180910390fd5b600060066000600a5481526020019081526020016000209050838160010190805190602001906125a792919061271f565b5060008160020160006101000a81548160ff021916908360018111156125d0576125cf6129a3565b5b021790555082816003016000820151816000015560208201518160010155604082015181600201908051906020019061260a92919061271f565b50606082015181600301908051906020019061262792919061271f565b5060808201518160040160006101000a81548160ff02191690836005811115612653576126526129a3565b5b021790555060a082015181600501908051906020019061267492919061271f565b50905050818160090160006101000a81548173ffffffffffffffffffffffffffffffffffffffff021916908373ffffffffffffffffffffffffffffffffffffffff1602179055507f01e27547a855bc3103d76f0b836f2e4939797b30500aa05b289ab0fa0d08d3d7600a546000858660800151866040516126f9959493929190613a49565b60405180910390a1600a6000815480929190612714906137f2565b919050555050505050565b82805461272b9061373e565b90600052602060002090601f01602090048101928261274d5760008555612794565b82601f1061276657805160ff1916838001178555612794565b82800160010185558215612794579182015b82811115612793578251825591602001919060010190612778565b5b5090506127a1919061284e565b5090565b6040518060c0016040528060608152602001606081526020016060815260200160608152602001600060038111156127e0576127df6129a3565b5b8152602001600073ffffffffffffffffffffffffffffffffffffffff1681525090565b6040518060c001604052806000815260200160008019168152602001606081526020016060815260200160006005811115612841576128406129a3565b5b8152602001606081525090565b5b8082111561286757600081600090555060010161284f565b5090565b6000604051905090565b600080fd5b600080fd5b6000819050919050565b6128928161287f565b811461289d57600080fd5b50565b6000813590506128af81612889565b92915050565b6000602082840312156128cb576128ca612875565b5b60006128d9848285016128a0565b91505092915050565b6128eb8161287f565b82525050565b6000819050919050565b612904816128f1565b82525050565b600081519050919050565b600082825260208201905092915050565b60005b83811015612944578082015181840152602081019050612929565b83811115612953576000848401525b50505050565b6000601f19601f8301169050919050565b60006129758261290a565b61297f8185612915565b935061298f818560208601612926565b61299881612959565b840191505092915050565b7f4e487b7100000000000000000000000000000000000000000000000000000000600052602160045260246000fd5b600681106129e3576129e26129a3565b5b50565b60008190506129f4826129d2565b919050565b6000612a04826129e6565b9050919050565b612a14816129f9565b82525050565b600060c082019050612a2f60008301896128e2565b612a3c60208301886128fb565b8181036040830152612a4e818761296a565b90508181036060830152612a62818661296a565b9050612a716080830185612a0b565b81810360a0830152612a83818461296a565b9050979650505050505050565b600073ffffffffffffffffffffffffffffffffffffffff82169050919050565b6000612abb82612a90565b9050919050565b612acb81612ab0565b8114612ad657600080fd5b50565b600081359050612ae881612ac2565b92915050565b600060208284031215612b0457612b03612875565b5b6000612b1284828501612ad9565b91505092915050565b60048110612b2c57612b2b6129a3565b5b50565b6000819050612b3d82612b1b565b919050565b6000612b4d82612b2f565b9050919050565b612b5d81612b42565b82525050565b612b6c81612ab0565b82525050565b600060c0820190508181036000830152612b8c818961296a565b90508181036020830152612ba0818861296a565b90508181036040830152612bb4818761296a565b90508181036060830152612bc8818661296a565b9050612bd76080830185612b54565b612be460a0830184612b63565b979650505050505050565b600081519050919050565b600082825260208201905092915050565b6000819050602082019050919050565b612c248161287f565b82525050565b6000612c368383612c1b565b60208301905092915050565b6000602082019050919050565b6000612c5a82612bef565b612c648185612bfa565b9350612c6f83612c0b565b8060005b83811015612ca0578151612c878882612c2a565b9750612c9283612c42565b925050600181019050612c73565b5085935050505092915050565b60006020820190508181036000830152612cc78184612c4f565b905092915050565b600080fd5b600080fd5b7f4e487b7100000000000000000000000000000000000000000000000000000000600052604160045260246000fd5b612d1182612959565b810181811067ffffffffffffffff82111715612d3057612d2f612cd9565b5b80604052505050565b6000612d4361286b565b9050612d4f8282612d08565b919050565b600067ffffffffffffffff821115612d6f57612d6e612cd9565b5b612d7882612959565b9050602081019050919050565b82818337600083830152505050565b6000612da7612da284612d54565b612d39565b905082815260208101848484011115612dc357612dc2612cd4565b5b612dce848285612d85565b509392505050565b600082601f830112612deb57612dea612ccf565b5b8135612dfb848260208601612d94565b91505092915050565b600080600080600060a08688031215612e2057612e1f612875565b5b600086013567ffffffffffffffff811115612e3e57612e3d61287a565b5b612e4a88828901612dd6565b955050602086013567ffffffffffffffff811115612e6b57612e6a61287a565b5b612e7788828901612dd6565b9450506040612e88888289016128a0565b935050606086013567ffffffffffffffff811115612ea957612ea861287a565b5b612eb588828901612dd6565b925050608086013567ffffffffffffffff811115612ed657612ed561287a565b5b612ee288828901612dd6565b9150509295509295909350565b6000602082019050612f0460008301846128e2565b92915050565b6000602082019050612f1f6000830184612b63565b92915050565b60008060408385031215612f3c57612f3b612875565b5b600083013567ffffffffffffffff811115612f5a57612f5961287a565b5b612f6685828601612dd6565b9250506020612f7785828601612ad9565b9150509250929050565b6000602082019050612f9660008301846128fb565b92915050565b600082825260208201905092915050565b6000612fb88261290a565b612fc28185612f9c565b9350612fd2818560208601612926565b612fdb81612959565b840191505092915050565b612fef81612b42565b82525050565b612ffe81612ab0565b82525050565b600060c08301600083015184820360008601526130218282612fad565b9150506020830151848203602086015261303b8282612fad565b915050604083015184820360408601526130558282612fad565b9150506060830151848203606086015261306f8282612fad565b91505060808301516130846080860182612fe6565b5060a083015161309760a0860182612ff5565b508091505092915050565b600060208201905081810360008301526130bc8184613004565b905092915050565b600080fd5b600080fd5b6130d7816128f1565b81146130e257600080fd5b50565b6000813590506130f4816130ce565b92915050565b6006811061310757600080fd5b50565b600081359050613119816130fa565b92915050565b600060c08284031215613135576131346130c4565b5b61313f60c0612d39565b9050600061314f848285016128a0565b6000830152506020613163848285016130e5565b602083015250604082013567ffffffffffffffff811115613187576131866130c9565b5b61319384828501612dd6565b604083015250606082013567ffffffffffffffff8111156131b7576131b66130c9565b5b6131c384828501612dd6565b60608301525060806131d78482850161310a565b60808301525060a082013567ffffffffffffffff8111156131fb576131fa6130c9565b5b61320784828501612dd6565b60a08301525092915050565b60006020828403121561322957613228612875565b5b600082013567ffffffffffffffff8111156132475761324661287a565b5b6132538482850161311f565b91505092915050565b60008060006060848603121561327557613274612875565b5b600084013567ffffffffffffffff8111156132935761329261287a565b5b61329f86828701612dd6565b935050602084013567ffffffffffffffff8111156132c0576132bf61287a565b5b6132cc8682870161311f565b92505060406132dd86828701612ad9565b9150509250925092565b600281106132f8576132f76129a3565b5b50565b6000819050613309826132e7565b919050565b6000613319826132fb565b9050919050565b6133298161330e565b82525050565b613338816128f1565b82525050565b613347816129f9565b82525050565b600060c0830160008301516133656000860182612c1b565b506020830151613378602086018261332f565b50604083015184820360408601526133908282612fad565b915050606083015184820360608601526133aa8282612fad565b91505060808301516133bf608086018261333e565b5060a083015184820360a08601526133d78282612fad565b9150508091505092915050565b600060a0820190506133f960008301886128e2565b818103602083015261340b818761296a565b905061341a6040830186613320565b818103606083015261342c818561334d565b905061343b6080830184612b63565b9695505050505050565b6000806040838503121561345c5761345b612875565b5b600061346a858286016128a0565b925050602061347b85828601612ad9565b9150509250929050565b6000602082019050818103600083015261349f818461296a565b905092915050565b60008060008060008060c087890312156134c4576134c3612875565b5b600087013567ffffffffffffffff8111156134e2576134e161287a565b5b6134ee89828a01612dd6565b965050602087013567ffffffffffffffff81111561350f5761350e61287a565b5b61351b89828a01612dd6565b955050604087013567ffffffffffffffff81111561353c5761353b61287a565b5b61354889828a01612dd6565b945050606087013567ffffffffffffffff8111156135695761356861287a565b5b61357589828a01612dd6565b935050608061358689828a016128a0565b92505060a061359789828a01612ad9565b9150509295509295509295565b600081519050919050565b600082825260208201905092915050565b6000819050602082019050919050565b60006135dc8383612ff5565b60208301905092915050565b6000602082019050919050565b6000613600826135a4565b61360a81856135af565b9350613615836135c0565b8060005b8381101561364657815161362d88826135d0565b9750613638836135e8565b925050600181019050613619565b5085935050505092915050565b6000602082019050818103600083015261366d81846135f5565b905092915050565b6000806040838503121561368c5761368b612875565b5b600083013567ffffffffffffffff8111156136aa576136a961287a565b5b6136b685828601612dd6565b925050602083013567ffffffffffffffff8111156136d7576136d661287a565b5b6136e38582860161311f565b9150509250929050565b60006020820190508181036000830152613707818461334d565b905092915050565b7f4e487b7100000000000000000000000000000000000000000000000000000000600052602260045260246000fd5b6000600282049050600182168061375657607f821691505b6020821081141561376a5761376961370f565b5b50919050565b6000608082019050818103600083015261378a818761296a565b9050818103602083015261379e818661296a565b90506137ad6040830185612a0b565b6137ba60608301846128fb565b95945050505050565b7f4e487b7100000000000000000000000000000000000000000000000000000000600052601160045260246000fd5b60006137fd8261287f565b91507fffffffffffffffffffffffffffffffffffffffffffffffffffffffffffffffff8214156138305761382f6137c3565b5b600182019050919050565b600081905092915050565b60006138518261290a565b61385b818561383b565b935061386b818560208601612926565b80840191505092915050565b60008160601b9050919050565b600061388f82613877565b9050919050565b60006138a182613884565b9050919050565b6138b96138b482612ab0565b613896565b82525050565b60006138cb8285613846565b91506138d782846138a8565b6014820191508190509392505050565b7f596f7520617265206e6f7420612073757065727669736f720000000000000000600082015250565b600061391d601883612915565b9150613928826138e7565b602082019050919050565b6000602082019050818103600083015261394c81613910565b9050919050565b60006060820190506139686000830186612a0b565b818103602083015261397a818561334d565b90506139896040830184612b63565b949350505050565b7f5468652070726f6a656374206973206e6f7420696e2074686520274265666f7260008201527f6546696e616c697a6174696f6e436865636b27207374617475732c207468652060208201527f6f7065726174696f6e2063616e6e6f7420626520646f6e652e00000000000000604082015250565b6000613a13605983612915565b9150613a1e82613991565b606082019050919050565b60006020820190508181036000830152613a4281613a06565b9050919050565b600060a082019050613a5e60008301886128e2565b613a6b6020830187613320565b8181036040830152613a7d818661334d565b9050613a8c6060830185612a0b565b613a996080830184612b63565b9695505050505050565b7f596f7520617265206e6f7420616e206f776e6572000000000000000000000000600082015250565b6000613ad9601483612915565b9150613ae482613aa3565b602082019050919050565b60006020820190508181036000830152613b0881613acc565b9050919050565b6000613b1b8284613846565b915081905092915050565b60006060820190508181036000830152613b40818661296a565b90508181036020830152613b54818561296a565b90508181036040830152613b68818461296a565b9050949350505050565b7f5468652070726f6a656374206973206e6f7420637265617465642c207468652060008201527f6f7065726174696f6e2063616e6e6f7420626520646f6e652e00000000000000602082015250565b6000613bce603983612915565b9150613bd982613b72565b604082019050919050565b60006020820190508181036000830152613bfd81613bc1565b9050919050565b60006080820190508181036000830152613c1e818761296a565b9050613c2d6020830186612a0b565b8181036040830152613c3f818561334d565b9050613c4e6060830184612b63565b95945050505050565b7f5468652070726f6a656374206973206e6f7420617070726f7665642c2074686560008201527f206f7065726174696f6e2063616e6e6f7420626520646f6e652e000000000000602082015250565b6000613cb3603a83612915565b9150613cbe82613c57565b604082019050919050565b60006020820190508181036000830152613ce281613ca6565b905091905056fea2646970667358221220c8fb984cf8eab5fa1ddcef7d05450880e6bd5ccf72725d6730ca14d6b27c932964736f6c634300080a0033",
  "immutableReferences": {},
  "source": "// SPDX-License-Identifier: MIT\r\npragma solidity >=0.8.0 <0.9.0;\r\n\r\nimport \"./Project.sol\";\r\n\r\ncontract Supervisor is Project {\r\n\r\n    address _supervisorAddress;\r\n\r\n    event ApproveProjectRequestBySupervisor(ProjectStatus _status, S_Project _project, address _subjectAddress);\r\n    event RejectProjectRequestBySupervisor(string _description, ProjectStatus _status, S_Project _project, address _subjectAddress);\r\n    event CompleteProjectRequestBySupervisor(ProjectStatus _status, S_Project _project, address _subjectAddress);\r\n\r\n    constructor() {\r\n        _supervisorAddress = msg.sender;\r\n    }\r\n\r\n    modifier onlySupervisor {\r\n        require(_supervisorAddress == msg.sender, \"You are not a supervisor\");\r\n        _;\r\n    }\r\n\r\n    // Add some contrainst / verification TOOO DOOO -> LATER\r\n\r\n    function setProjectRequestToApprovedStatus(S_Project memory _project) public onlySupervisor {\r\n        _project.projectStatus = ProjectStatus.Approved;\r\n        emit ApproveProjectRequestBySupervisor(ProjectStatus.Approved, _project, _supervisorAddress);\r\n    }\r\n\r\n    function setProjectRequestToRejectStatus(string memory _description, S_Project memory _project) public onlySupervisor {\r\n        _project.projectStatus = ProjectStatus.Rejected;\r\n        emit RejectProjectRequestBySupervisor(_description, ProjectStatus.Approved, _project, _supervisorAddress);\r\n    }\r\n\r\n    function setProjectRequestToCompletedStatus(S_Project memory _project)  public onlySupervisor {\r\n        _project.projectStatus = ProjectStatus.Completed;\r\n        emit CompleteProjectRequestBySupervisor(ProjectStatus.Completed, _project, _supervisorAddress);\r\n    }\r\n}\r\n",
  "sourcePath": "/mnt/c/users/beniamin/source/repos/dissertationproject/contracts/Supervisor.sol",
  "compiler": {
    "name": "solc",
    "version": "0.8.10+commit.fc410830.Emscripten.clang"
  },
  "schemaVersion": "3.4.3",
  "updatedAt": "2021-11-15T08:26:12.091Z",
  "devdoc": {
    "kind": "dev",
    "methods": {},
    "version": 1
  },
  "userdoc": {
    "kind": "user",
    "methods": {},
    "version": 1
  }
}