{
  "contractName": "SupervisorChain",
  "abi": [
    {
      "inputs": [],
      "stateMutability": "nonpayable",
      "type": "constructor"
    },
    {
      "anonymous": false,
      "inputs": [
        {
          "indexed": false,
          "internalType": "uint256",
          "name": "_index",
          "type": "uint256"
        },
        {
          "indexed": false,
          "internalType": "bytes32",
          "name": "_name",
          "type": "bytes32"
        },
        {
          "indexed": false,
          "internalType": "enum SharedChain.ProjectStatus",
          "name": "_status",
          "type": "uint8"
        },
        {
          "indexed": false,
          "internalType": "string",
          "name": "_ipfsFileCID",
          "type": "string"
        },
        {
          "indexed": false,
          "internalType": "address",
          "name": "_projectAddress",
          "type": "address"
        },
        {
          "indexed": false,
          "internalType": "address",
          "name": "_userAddress",
          "type": "address"
        },
        {
          "indexed": false,
          "internalType": "uint256",
          "name": "_timestamp",
          "type": "uint256"
        }
      ],
      "name": "ProjectEvent",
      "type": "event"
    },
    {
      "anonymous": false,
      "inputs": [
        {
          "indexed": false,
          "internalType": "uint256",
          "name": "_index",
          "type": "uint256"
        },
        {
          "indexed": false,
          "internalType": "bytes32",
          "name": "_title",
          "type": "bytes32"
        },
        {
          "indexed": false,
          "internalType": "string",
          "name": "_comments",
          "type": "string"
        },
        {
          "indexed": false,
          "internalType": "enum SharedChain.ProjectStatus",
          "name": "_status",
          "type": "uint8"
        },
        {
          "indexed": false,
          "internalType": "enum SharedChain.RequestStatus",
          "name": "_requestStatus",
          "type": "uint8"
        },
        {
          "indexed": false,
          "internalType": "address",
          "name": "_projectAddress",
          "type": "address"
        },
        {
          "indexed": false,
          "internalType": "address",
          "name": "_userAddress",
          "type": "address"
        },
        {
          "indexed": false,
          "internalType": "uint256",
          "name": "_timestamp",
          "type": "uint256"
        }
      ],
      "name": "ProjectRequestEvent",
      "type": "event"
    },
    {
      "anonymous": false,
      "inputs": [
        {
          "indexed": false,
          "internalType": "uint256",
          "name": "_index",
          "type": "uint256"
        },
        {
          "indexed": false,
          "internalType": "uint256",
          "name": "_indexProjectRequest",
          "type": "uint256"
        },
        {
          "indexed": false,
          "internalType": "bytes32",
          "name": "_title",
          "type": "bytes32"
        },
        {
          "indexed": false,
          "internalType": "enum SharedChain.RequestStatus",
          "name": "_status",
          "type": "uint8"
        },
        {
          "indexed": false,
          "internalType": "enum SharedChain.ProjectStatus",
          "name": "_projectStatus",
          "type": "uint8"
        },
        {
          "indexed": false,
          "internalType": "address",
          "name": "_projectAddress",
          "type": "address"
        },
        {
          "indexed": false,
          "internalType": "address",
          "name": "_userAddress",
          "type": "address"
        },
        {
          "indexed": false,
          "internalType": "uint256",
          "name": "_timestamp",
          "type": "uint256"
        }
      ],
      "name": "RequestEvent",
      "type": "event"
    },
    {
      "inputs": [
        {
          "internalType": "uint256",
          "name": "",
          "type": "uint256"
        }
      ],
      "name": "allSupervisorRequests",
      "outputs": [
        {
          "internalType": "uint256",
          "name": "_index",
          "type": "uint256"
        },
        {
          "internalType": "uint256",
          "name": "_indexProjectRequest",
          "type": "uint256"
        },
        {
          "internalType": "bytes32",
          "name": "_title",
          "type": "bytes32"
        },
        {
          "internalType": "enum SharedChain.RequestStatus",
          "name": "_requestStatus",
          "type": "uint8"
        },
        {
          "internalType": "enum SharedChain.ProjectStatus",
          "name": "_projectStatus",
          "type": "uint8"
        },
        {
          "internalType": "address",
          "name": "_projectAddress",
          "type": "address"
        },
        {
          "internalType": "address",
          "name": "_userAddress",
          "type": "address"
        }
      ],
      "stateMutability": "view",
      "type": "function"
    },
    {
      "inputs": [
        {
          "internalType": "uint256",
          "name": "",
          "type": "uint256"
        }
      ],
      "name": "requestsSupervisor",
      "outputs": [
        {
          "internalType": "uint256",
          "name": "_index",
          "type": "uint256"
        },
        {
          "internalType": "uint256",
          "name": "_indexProjectRequest",
          "type": "uint256"
        },
        {
          "internalType": "bytes32",
          "name": "_title",
          "type": "bytes32"
        },
        {
          "internalType": "enum SharedChain.RequestStatus",
          "name": "_requestStatus",
          "type": "uint8"
        },
        {
          "internalType": "enum SharedChain.ProjectStatus",
          "name": "_projectStatus",
          "type": "uint8"
        },
        {
          "internalType": "address",
          "name": "_projectAddress",
          "type": "address"
        },
        {
          "internalType": "address",
          "name": "_userAddress",
          "type": "address"
        }
      ],
      "stateMutability": "view",
      "type": "function"
    },
    {
      "inputs": [],
      "name": "requestsSupervisorCounter",
      "outputs": [
        {
          "internalType": "uint256",
          "name": "",
          "type": "uint256"
        }
      ],
      "stateMutability": "view",
      "type": "function"
    }
  ],
  "bytecode": "0x6080604052600060025534801561001557600080fd5b50336000806101000a81548173ffffffffffffffffffffffffffffffffffffffff021916908373ffffffffffffffffffffffffffffffffffffffff16021790555061046e806100656000396000f3fe608060405234801561001057600080fd5b50600436106100415760003560e01c80638e2661bb1461004657806397b8295714610064578063c43dff531461009a575b600080fd5b61004e6100d0565b60405161005b9190610237565b60405180910390f35b61007e60048036038101906100799190610283565b6100d6565b60405161009197969594939291906103c9565b60405180910390f35b6100b460048036038101906100af9190610283565b610172565b6040516100c797969594939291906103c9565b60405180910390f35b60025481565b60016020528060005260406000206000915090508060000154908060010154908060020154908060030160009054906101000a900460ff16908060030160019054906101000a900460ff16908060030160029054906101000a900473ffffffffffffffffffffffffffffffffffffffff16908060040160009054906101000a900473ffffffffffffffffffffffffffffffffffffffff16905087565b6003818154811061018257600080fd5b90600052602060002090600502016000915090508060000154908060010154908060020154908060030160009054906101000a900460ff16908060030160019054906101000a900460ff16908060030160029054906101000a900473ffffffffffffffffffffffffffffffffffffffff16908060040160009054906101000a900473ffffffffffffffffffffffffffffffffffffffff16905087565b6000819050919050565b6102318161021e565b82525050565b600060208201905061024c6000830184610228565b92915050565b600080fd5b6102608161021e565b811461026b57600080fd5b50565b60008135905061027d81610257565b92915050565b60006020828403121561029957610298610252565b5b60006102a78482850161026e565b91505092915050565b6000819050919050565b6102c3816102b0565b82525050565b7f4e487b7100000000000000000000000000000000000000000000000000000000600052602160045260246000fd5b60038110610309576103086102c9565b5b50565b600081905061031a826102f8565b919050565b600061032a8261030c565b9050919050565b61033a8161031f565b82525050565b60058110610351576103506102c9565b5b50565b600081905061036282610340565b919050565b600061037282610354565b9050919050565b61038281610367565b82525050565b600073ffffffffffffffffffffffffffffffffffffffff82169050919050565b60006103b382610388565b9050919050565b6103c3816103a8565b82525050565b600060e0820190506103de600083018a610228565b6103eb6020830189610228565b6103f860408301886102ba565b6104056060830187610331565b6104126080830186610379565b61041f60a08301856103ba565b61042c60c08301846103ba565b9897505050505050505056fea2646970667358221220c4b92a034e60af12d1e5744648902a04d1004174c1ec1ceb741b52e70280ecd464736f6c634300080a0033",
  "immutableReferences": {},
  "source": "// SPDX-License-Identifier: MIT\r\npragma solidity >=0.8.0 <0.9.0;\r\n\r\nimport \"./SharedChain.sol\";\r\n\r\ncontract SupervisorChain is SharedChain {\r\n    address _supervisorAddress;\r\n\r\n    // They will be filter after the status of the requests\r\n    mapping(uint => Request) public requestsSupervisor;\r\n    uint public requestsSupervisorCounter = 0;\r\n    Request[] public allSupervisorRequests;\r\n\r\n    constructor() {\r\n        _supervisorAddress = msg.sender;\r\n    }\r\n\r\n    modifier onlySupervisor {\r\n        require(_supervisorAddress == msg.sender, \"You are not a supervisor\");\r\n        _;\r\n    }\r\n/*\r\n    function createRequestSupervisor(\r\n        bytes32 _title,\r\n        uint _requestStatus,\r\n        uint _projectStatus,\r\n        address _projectAddress\r\n    ) public {\r\n        requestsSupervisor[requestsSupervisorCounter]._index = requestsSupervisorCounter;\r\n        requestsSupervisor[requestsSupervisorCounter]._title = _title;\r\n        requestsSupervisor[requestsSupervisorCounter]._requestStatus = RequestStatus(_requestStatus);\r\n        requestsSupervisor[requestsSupervisorCounter]._projectStatus = ProjectStatus(_projectStatus);\r\n        requestsSupervisor[requestsSupervisorCounter]._projectAddress = _projectAddress;\r\n        // change to supervisorAddress\r\n        requestsSupervisor[requestsSupervisorCounter]._userAddress = _supervisorAddress;\r\n\r\n        emit RequestEvent(requestsSupervisorCounter, _title, RequestStatus(_requestStatus), ProjectStatus(_projectStatus), _projectAddress, _supervisorAddress, block.timestamp);\r\n        allSupervisorRequests.push(Request(requestsSupervisorCounter, _title,  RequestStatus(_requestStatus), ProjectStatus(_projectStatus), _projectAddress, _supervisorAddress));\r\n        requestsSupervisorCounter++;\r\n    }\r\n\r\n    function updateRequestSupervisor(uint _requestStatus, uint _index) public {\r\n        requestsSupervisor[_index]._requestStatus = RequestStatus(_requestStatus);\r\n        uint index = requestsSupervisor[_index]._index;\r\n        allSupervisorRequests[index]._requestStatus = RequestStatus(_requestStatus);\r\n    }\r\n\r\n    function getAllRequestsSupervisor() public view returns(Request[] memory) {\r\n        return allSupervisorRequests;\r\n    }\r\n*/\r\n}\r\n",
  "sourcePath": "/mnt/c/users/beniamin/source/repos/dissertationproject/contracts/SupervisorChain.sol",
  "compiler": {
    "name": "solc",
    "version": "0.8.10+commit.fc410830.Emscripten.clang"
  },
  "schemaVersion": "3.4.3",
  "updatedAt": "2021-11-21T16:47:47.733Z",
  "devdoc": {
    "kind": "dev",
    "methods": {},
    "version": 1
  },
  "userdoc": {
    "kind": "user",
    "methods": {},
    "version": 1
  }
}