{
  "contractName": "Supervisor",
  "abi": [
    {
      "inputs": [],
      "stateMutability": "nonpayable",
      "type": "constructor"
    },
    {
      "anonymous": false,
      "inputs": [
        {
          "indexed": false,
          "internalType": "enum Project.ProjectStatus",
          "name": "_status",
          "type": "uint8"
        },
        {
          "components": [
            {
              "internalType": "uint256",
              "name": "index",
              "type": "uint256"
            },
            {
              "internalType": "bytes32",
              "name": "identifier",
              "type": "bytes32"
            },
            {
              "internalType": "string",
              "name": "description",
              "type": "string"
            },
            {
              "internalType": "enum Project.ProjectStatus",
              "name": "projectStatus",
              "type": "uint8"
            }
          ],
          "indexed": false,
          "internalType": "struct Project.S_Project",
          "name": "_project",
          "type": "tuple"
        },
        {
          "indexed": false,
          "internalType": "address",
          "name": "_subjectAddress",
          "type": "address"
        }
      ],
      "name": "ApproveProjectRequestBySupervisor",
      "type": "event"
    },
    {
      "anonymous": false,
      "inputs": [
        {
          "indexed": false,
          "internalType": "enum Project.ProjectStatus",
          "name": "_status",
          "type": "uint8"
        },
        {
          "components": [
            {
              "internalType": "uint256",
              "name": "index",
              "type": "uint256"
            },
            {
              "internalType": "bytes32",
              "name": "identifier",
              "type": "bytes32"
            },
            {
              "internalType": "string",
              "name": "description",
              "type": "string"
            },
            {
              "internalType": "enum Project.ProjectStatus",
              "name": "projectStatus",
              "type": "uint8"
            }
          ],
          "indexed": false,
          "internalType": "struct Project.S_Project",
          "name": "_project",
          "type": "tuple"
        },
        {
          "indexed": false,
          "internalType": "address",
          "name": "_subjectAddress",
          "type": "address"
        }
      ],
      "name": "CompleteProjectRequestBySupervisor",
      "type": "event"
    },
    {
      "anonymous": false,
      "inputs": [
        {
          "indexed": false,
          "internalType": "uint256",
          "name": "_indexProject",
          "type": "uint256"
        },
        {
          "indexed": false,
          "internalType": "enum Project.ProjectStatus",
          "name": "_projectStatus",
          "type": "uint8"
        },
        {
          "indexed": false,
          "internalType": "address",
          "name": "_address",
          "type": "address"
        }
      ],
      "name": "CreateProject",
      "type": "event"
    },
    {
      "anonymous": false,
      "inputs": [
        {
          "indexed": false,
          "internalType": "string",
          "name": "_description",
          "type": "string"
        },
        {
          "indexed": false,
          "internalType": "enum Project.ProjectStatus",
          "name": "_status",
          "type": "uint8"
        },
        {
          "components": [
            {
              "internalType": "uint256",
              "name": "index",
              "type": "uint256"
            },
            {
              "internalType": "bytes32",
              "name": "identifier",
              "type": "bytes32"
            },
            {
              "internalType": "string",
              "name": "description",
              "type": "string"
            },
            {
              "internalType": "enum Project.ProjectStatus",
              "name": "projectStatus",
              "type": "uint8"
            }
          ],
          "indexed": false,
          "internalType": "struct Project.S_Project",
          "name": "_project",
          "type": "tuple"
        },
        {
          "indexed": false,
          "internalType": "address",
          "name": "_subjectAddress",
          "type": "address"
        }
      ],
      "name": "RejectProjectRequestBySupervisor",
      "type": "event"
    },
    {
      "anonymous": false,
      "inputs": [
        {
          "indexed": false,
          "internalType": "uint256",
          "name": "_indexRequest",
          "type": "uint256"
        },
        {
          "indexed": false,
          "internalType": "enum Project.RequestStatus",
          "name": "_status",
          "type": "uint8"
        },
        {
          "components": [
            {
              "internalType": "uint256",
              "name": "index",
              "type": "uint256"
            },
            {
              "internalType": "bytes32",
              "name": "identifier",
              "type": "bytes32"
            },
            {
              "internalType": "string",
              "name": "description",
              "type": "string"
            },
            {
              "internalType": "enum Project.ProjectStatus",
              "name": "projectStatus",
              "type": "uint8"
            }
          ],
          "indexed": false,
          "internalType": "struct Project.S_Project",
          "name": "_project",
          "type": "tuple"
        },
        {
          "indexed": false,
          "internalType": "enum Project.ProjectStatus",
          "name": "_projectStatus",
          "type": "uint8"
        },
        {
          "indexed": false,
          "internalType": "address",
          "name": "_subjectAddress",
          "type": "address"
        }
      ],
      "name": "UpdateCompanyRequestStatus",
      "type": "event"
    },
    {
      "anonymous": false,
      "inputs": [
        {
          "indexed": false,
          "internalType": "uint256",
          "name": "_indexRequest",
          "type": "uint256"
        },
        {
          "indexed": false,
          "internalType": "enum Project.RequestStatus",
          "name": "_status",
          "type": "uint8"
        },
        {
          "components": [
            {
              "internalType": "uint256",
              "name": "index",
              "type": "uint256"
            },
            {
              "internalType": "bytes32",
              "name": "identifier",
              "type": "bytes32"
            },
            {
              "internalType": "string",
              "name": "description",
              "type": "string"
            },
            {
              "internalType": "enum Project.ProjectStatus",
              "name": "projectStatus",
              "type": "uint8"
            }
          ],
          "indexed": false,
          "internalType": "struct Project.S_Project",
          "name": "_project",
          "type": "tuple"
        },
        {
          "indexed": false,
          "internalType": "enum Project.ProjectStatus",
          "name": "_projectStatus",
          "type": "uint8"
        },
        {
          "indexed": false,
          "internalType": "address",
          "name": "_subjectAddress",
          "type": "address"
        }
      ],
      "name": "UpdateSupervisorRequestStatus",
      "type": "event"
    },
    {
      "anonymous": false,
      "inputs": [
        {
          "indexed": true,
          "internalType": "address",
          "name": "_address",
          "type": "address"
        },
        {
          "indexed": false,
          "internalType": "string",
          "name": "_username",
          "type": "string"
        }
      ],
      "name": "UserRegistered",
      "type": "event"
    },
    {
      "inputs": [
        {
          "internalType": "uint256",
          "name": "_role",
          "type": "uint256"
        },
        {
          "internalType": "address",
          "name": "_userAddress",
          "type": "address"
        }
      ],
      "name": "changeUserRole",
      "outputs": [
        {
          "internalType": "string",
          "name": "",
          "type": "string"
        }
      ],
      "stateMutability": "nonpayable",
      "type": "function"
    },
    {
      "inputs": [
        {
          "internalType": "uint256",
          "name": "",
          "type": "uint256"
        }
      ],
      "name": "companyRequests",
      "outputs": [
        {
          "internalType": "uint256",
          "name": "index",
          "type": "uint256"
        },
        {
          "internalType": "string",
          "name": "description",
          "type": "string"
        },
        {
          "internalType": "enum Project.RequestStatus",
          "name": "status",
          "type": "uint8"
        },
        {
          "components": [
            {
              "internalType": "uint256",
              "name": "index",
              "type": "uint256"
            },
            {
              "internalType": "bytes32",
              "name": "identifier",
              "type": "bytes32"
            },
            {
              "internalType": "string",
              "name": "description",
              "type": "string"
            },
            {
              "internalType": "enum Project.ProjectStatus",
              "name": "projectStatus",
              "type": "uint8"
            }
          ],
          "internalType": "struct Project.S_Project",
          "name": "project",
          "type": "tuple"
        },
        {
          "internalType": "address",
          "name": "subjectAddress",
          "type": "address"
        }
      ],
      "stateMutability": "view",
      "type": "function"
    },
    {
      "inputs": [
        {
          "internalType": "uint256",
          "name": "_index",
          "type": "uint256"
        },
        {
          "internalType": "string",
          "name": "_description",
          "type": "string"
        },
        {
          "internalType": "enum Project.ProjectStatus",
          "name": "_status",
          "type": "uint8"
        },
        {
          "internalType": "string",
          "name": "_hashStringValue",
          "type": "string"
        }
      ],
      "name": "createProject",
      "outputs": [],
      "stateMutability": "nonpayable",
      "type": "function"
    },
    {
      "inputs": [
        {
          "internalType": "string",
          "name": "_text",
          "type": "string"
        },
        {
          "internalType": "address",
          "name": "_addr",
          "type": "address"
        }
      ],
      "name": "createUniqueIdentifier",
      "outputs": [
        {
          "internalType": "bytes32",
          "name": "",
          "type": "bytes32"
        }
      ],
      "stateMutability": "pure",
      "type": "function"
    },
    {
      "inputs": [],
      "name": "getUser",
      "outputs": [
        {
          "internalType": "string",
          "name": "",
          "type": "string"
        }
      ],
      "stateMutability": "view",
      "type": "function"
    },
    {
      "inputs": [
        {
          "internalType": "address",
          "name": "_userAddress",
          "type": "address"
        }
      ],
      "name": "getUserInfo",
      "outputs": [
        {
          "components": [
            {
              "internalType": "string",
              "name": "username",
              "type": "string"
            },
            {
              "internalType": "enum User.Roles",
              "name": "role",
              "type": "uint8"
            },
            {
              "internalType": "address",
              "name": "userAddress",
              "type": "address"
            }
          ],
          "internalType": "struct User.S_UserData",
          "name": "",
          "type": "tuple"
        }
      ],
      "stateMutability": "view",
      "type": "function"
    },
    {
      "inputs": [],
      "name": "owner",
      "outputs": [
        {
          "internalType": "address",
          "name": "",
          "type": "address"
        }
      ],
      "stateMutability": "view",
      "type": "function"
    },
    {
      "inputs": [
        {
          "internalType": "uint256",
          "name": "",
          "type": "uint256"
        }
      ],
      "name": "projects",
      "outputs": [
        {
          "internalType": "uint256",
          "name": "index",
          "type": "uint256"
        },
        {
          "internalType": "bytes32",
          "name": "identifier",
          "type": "bytes32"
        },
        {
          "internalType": "string",
          "name": "description",
          "type": "string"
        },
        {
          "internalType": "enum Project.ProjectStatus",
          "name": "projectStatus",
          "type": "uint8"
        }
      ],
      "stateMutability": "view",
      "type": "function"
    },
    {
      "inputs": [
        {
          "internalType": "string",
          "name": "_username",
          "type": "string"
        },
        {
          "internalType": "uint256",
          "name": "_role",
          "type": "uint256"
        },
        {
          "internalType": "address",
          "name": "_userAddress",
          "type": "address"
        }
      ],
      "name": "registerUser",
      "outputs": [],
      "stateMutability": "nonpayable",
      "type": "function"
    },
    {
      "inputs": [
        {
          "internalType": "string",
          "name": "_description",
          "type": "string"
        },
        {
          "components": [
            {
              "internalType": "uint256",
              "name": "index",
              "type": "uint256"
            },
            {
              "internalType": "bytes32",
              "name": "identifier",
              "type": "bytes32"
            },
            {
              "internalType": "string",
              "name": "description",
              "type": "string"
            },
            {
              "internalType": "enum Project.ProjectStatus",
              "name": "projectStatus",
              "type": "uint8"
            }
          ],
          "internalType": "struct Project.S_Project",
          "name": "_project",
          "type": "tuple"
        },
        {
          "internalType": "address",
          "name": "_subjectAddress",
          "type": "address"
        }
      ],
      "name": "requestProjectApprovalFromSupervisor",
      "outputs": [],
      "stateMutability": "nonpayable",
      "type": "function"
    },
    {
      "inputs": [
        {
          "internalType": "string",
          "name": "_description",
          "type": "string"
        },
        {
          "components": [
            {
              "internalType": "uint256",
              "name": "index",
              "type": "uint256"
            },
            {
              "internalType": "bytes32",
              "name": "identifier",
              "type": "bytes32"
            },
            {
              "internalType": "string",
              "name": "description",
              "type": "string"
            },
            {
              "internalType": "enum Project.ProjectStatus",
              "name": "projectStatus",
              "type": "uint8"
            }
          ],
          "internalType": "struct Project.S_Project",
          "name": "_project",
          "type": "tuple"
        },
        {
          "internalType": "address",
          "name": "_subjectAddress",
          "type": "address"
        }
      ],
      "name": "requestProjectCompleteFromSupervisor",
      "outputs": [],
      "stateMutability": "nonpayable",
      "type": "function"
    },
    {
      "inputs": [
        {
          "internalType": "string",
          "name": "_description",
          "type": "string"
        },
        {
          "components": [
            {
              "internalType": "uint256",
              "name": "index",
              "type": "uint256"
            },
            {
              "internalType": "bytes32",
              "name": "identifier",
              "type": "bytes32"
            },
            {
              "internalType": "string",
              "name": "description",
              "type": "string"
            },
            {
              "internalType": "enum Project.ProjectStatus",
              "name": "projectStatus",
              "type": "uint8"
            }
          ],
          "internalType": "struct Project.S_Project",
          "name": "_project",
          "type": "tuple"
        },
        {
          "internalType": "address",
          "name": "_subjectAddress",
          "type": "address"
        }
      ],
      "name": "requestStartProjectToCompanyBuilder",
      "outputs": [],
      "stateMutability": "nonpayable",
      "type": "function"
    },
    {
      "inputs": [
        {
          "internalType": "uint256",
          "name": "",
          "type": "uint256"
        }
      ],
      "name": "supervisorRequests",
      "outputs": [
        {
          "internalType": "uint256",
          "name": "index",
          "type": "uint256"
        },
        {
          "internalType": "string",
          "name": "description",
          "type": "string"
        },
        {
          "internalType": "enum Project.RequestStatus",
          "name": "status",
          "type": "uint8"
        },
        {
          "components": [
            {
              "internalType": "uint256",
              "name": "index",
              "type": "uint256"
            },
            {
              "internalType": "bytes32",
              "name": "identifier",
              "type": "bytes32"
            },
            {
              "internalType": "string",
              "name": "description",
              "type": "string"
            },
            {
              "internalType": "enum Project.ProjectStatus",
              "name": "projectStatus",
              "type": "uint8"
            }
          ],
          "internalType": "struct Project.S_Project",
          "name": "project",
          "type": "tuple"
        },
        {
          "internalType": "address",
          "name": "subjectAddress",
          "type": "address"
        }
      ],
      "stateMutability": "view",
      "type": "function"
    },
    {
      "inputs": [
        {
          "internalType": "address",
          "name": "",
          "type": "address"
        }
      ],
      "name": "userInfo",
      "outputs": [
        {
          "internalType": "string",
          "name": "username",
          "type": "string"
        },
        {
          "internalType": "enum User.Roles",
          "name": "role",
          "type": "uint8"
        },
        {
          "internalType": "address",
          "name": "userAddress",
          "type": "address"
        }
      ],
      "stateMutability": "view",
      "type": "function"
    },
    {
      "inputs": [
        {
          "components": [
            {
              "internalType": "uint256",
              "name": "index",
              "type": "uint256"
            },
            {
              "internalType": "bytes32",
              "name": "identifier",
              "type": "bytes32"
            },
            {
              "internalType": "string",
              "name": "description",
              "type": "string"
            },
            {
              "internalType": "enum Project.ProjectStatus",
              "name": "projectStatus",
              "type": "uint8"
            }
          ],
          "internalType": "struct Project.S_Project",
          "name": "_project",
          "type": "tuple"
        }
      ],
      "name": "setProjectRequestToApprovedStatus",
      "outputs": [],
      "stateMutability": "nonpayable",
      "type": "function"
    },
    {
      "inputs": [
        {
          "internalType": "string",
          "name": "_description",
          "type": "string"
        },
        {
          "components": [
            {
              "internalType": "uint256",
              "name": "index",
              "type": "uint256"
            },
            {
              "internalType": "bytes32",
              "name": "identifier",
              "type": "bytes32"
            },
            {
              "internalType": "string",
              "name": "description",
              "type": "string"
            },
            {
              "internalType": "enum Project.ProjectStatus",
              "name": "projectStatus",
              "type": "uint8"
            }
          ],
          "internalType": "struct Project.S_Project",
          "name": "_project",
          "type": "tuple"
        }
      ],
      "name": "setProjectRequestToRejectStatus",
      "outputs": [],
      "stateMutability": "nonpayable",
      "type": "function"
    },
    {
      "inputs": [
        {
          "components": [
            {
              "internalType": "uint256",
              "name": "index",
              "type": "uint256"
            },
            {
              "internalType": "bytes32",
              "name": "identifier",
              "type": "bytes32"
            },
            {
              "internalType": "string",
              "name": "description",
              "type": "string"
            },
            {
              "internalType": "enum Project.ProjectStatus",
              "name": "projectStatus",
              "type": "uint8"
            }
          ],
          "internalType": "struct Project.S_Project",
          "name": "_project",
          "type": "tuple"
        }
      ],
      "name": "setProjectRequestToCompletedStatus",
      "outputs": [],
      "stateMutability": "nonpayable",
      "type": "function"
    }
  ],
  "bytecode": "0x608060405234801561001057600080fd5b5033600160006101000a81548173ffffffffffffffffffffffffffffffffffffffff021916908373ffffffffffffffffffffffffffffffffffffffff16021790555033600260006101000a81548173ffffffffffffffffffffffffffffffffffffffff021916908373ffffffffffffffffffffffffffffffffffffffff16021790555033600960006101000a81548173ffffffffffffffffffffffffffffffffffffffff021916908373ffffffffffffffffffffffffffffffffffffffff16021790555061314a806100e36000396000f3fe608060405234801561001057600080fd5b506004361061010b5760003560e01c8063832880e7116100a2578063afb6da0e11610071578063afb6da0e146102e5578063b512559914610301578063d40d4a801461031d578063da2e15ab14610351578063e8fe9b4c1461036d5761010b565b8063832880e7146102455780638c86a1d7146102635780638da5cb5b1461029757806391009786146102b55761010b565b80634b4cfcc4116100de5780634b4cfcc4146101ad5780635502fc65146101c95780636132844f146101e55780636386c1c7146102155761010b565b8063065ea2d314610110578063107046bd1461012c5780631959a0021461015f578063332ba3cd14610191575b600080fd5b61012a600480360381019061012591906121d0565b610389565b005b6101466004803603810190610141919061226f565b610603565b60405161015694939291906123c3565b60405180910390f35b6101796004803603810190610174919061246d565b6106c8565b604051610188939291906124f1565b60405180910390f35b6101ab60048036038101906101a691906125f9565b6107a7565b005b6101c760048036038101906101c29190612671565b6108cc565b005b6101e360048036038101906101de91906126ba565b6109ee565b005b6101ff60048036038101906101fa9190612745565b610d2f565b60405161020c91906127a1565b60405180910390f35b61022f600480360381019061022a919061246d565b610d62565b60405161023c9190612874565b60405180910390f35b61024d610f6d565b60405161025a9190612896565b60405180910390f35b61027d6004803603810190610278919061226f565b61103a565b60405161028e959493929190612990565b60405180910390f35b61029f611210565b6040516102ac91906129f1565b60405180910390f35b6102cf60048036038101906102ca9190612a0c565b611236565b6040516102dc9190612896565b60405180910390f35b6102ff60048036038101906102fa91906126ba565b611381565b005b61031b600480360381019061031691906126ba565b6116c2565b005b6103376004803603810190610332919061226f565b611a03565b604051610348959493929190612990565b60405180910390f35b61036b60048036038101906103669190612a4c565b611bd9565b005b61038760048036038101906103829190612671565b611e0d565b005b6001600381111561039d5761039c61234c565b5b600080600260009054906101000a900473ffffffffffffffffffffffffffffffffffffffff1673ffffffffffffffffffffffffffffffffffffffff1673ffffffffffffffffffffffffffffffffffffffff16815260200190815260200160002060010160009054906101000a900460ff1660038111156104205761041f61234c565b5b14610460576040517f08c379a000000000000000000000000000000000000000000000000000000000815260040161045790612b2d565b60405180910390fd5b3373ffffffffffffffffffffffffffffffffffffffff16600260009054906101000a900473ffffffffffffffffffffffffffffffffffffffff1673ffffffffffffffffffffffffffffffffffffffff16146104f0576040517f08c379a00000000000000000000000000000000000000000000000000000000081526004016104e790612b99565b60405180910390fd5b60006104fd826000610d2f565b905084600360006006548152602001908152602001600020600001819055508060036000600654815260200190815260200160002060010181905550836003600060065481526020019081526020016000206002019080519060200190610565929190611f2f565b508260036000600654815260200190815260200160002060030160006101000a81548160ff021916908360058111156105a1576105a061234c565b5b02179055507fa33c40728c332bcc45ac23baebf405684a95db2bcea19967f32f1c59384c0e886006546000806040516105dc93929190612bb9565b60405180910390a1600660008154809291906105f790612c1f565b91905055505050505050565b600360205280600052604060002060009150905080600001549080600101549080600201805461063290612c97565b80601f016020809104026020016040519081016040528092919081815260200182805461065e90612c97565b80156106ab5780601f10610680576101008083540402835291602001916106ab565b820191906000526020600020905b81548152906001019060200180831161068e57829003601f168201915b5050505050908060030160009054906101000a900460ff16905084565b60006020528060005260406000206000915090508060000180546106eb90612c97565b80601f016020809104026020016040519081016040528092919081815260200182805461071790612c97565b80156107645780601f1061073957610100808354040283529160200191610764565b820191906000526020600020905b81548152906001019060200180831161074757829003601f168201915b5050505050908060010160009054906101000a900460ff16908060010160019054906101000a900473ffffffffffffffffffffffffffffffffffffffff16905083565b3373ffffffffffffffffffffffffffffffffffffffff16600960009054906101000a900473ffffffffffffffffffffffffffffffffffffffff1673ffffffffffffffffffffffffffffffffffffffff1614610837576040517f08c379a000000000000000000000000000000000000000000000000000000000815260040161082e90612d15565b60405180910390fd5b6002816060019060058111156108505761084f61234c565b5b908160058111156108645761086361234c565b5b815250507fc4b689a16e8112e6f13feb8eea449b5454dcf20828473428f7667fc0cbea972382600183600960009054906101000a900473ffffffffffffffffffffffffffffffffffffffff166040516108c09493929190612d35565b60405180910390a15050565b3373ffffffffffffffffffffffffffffffffffffffff16600960009054906101000a900473ffffffffffffffffffffffffffffffffffffffff1673ffffffffffffffffffffffffffffffffffffffff161461095c576040517f08c379a000000000000000000000000000000000000000000000000000000000815260040161095390612d15565b60405180910390fd5b6005816060019060058111156109755761097461234c565b5b908160058111156109895761098861234c565b5b815250507f5912cd873308018ce10fb720c10205f0722aab6699492bc905441326abc24cf3600582600960009054906101000a900473ffffffffffffffffffffffffffffffffffffffff166040516109e393929190612d88565b60405180910390a150565b60016003811115610a0257610a0161234c565b5b600080600260009054906101000a900473ffffffffffffffffffffffffffffffffffffffff1673ffffffffffffffffffffffffffffffffffffffff1673ffffffffffffffffffffffffffffffffffffffff16815260200190815260200160002060010160009054906101000a900460ff166003811115610a8557610a8461234c565b5b14610ac5576040517f08c379a0000000000000000000000000000000000000000000000000000000008152600401610abc90612b2d565b60405180910390fd5b3373ffffffffffffffffffffffffffffffffffffffff16600260009054906101000a900473ffffffffffffffffffffffffffffffffffffffff1673ffffffffffffffffffffffffffffffffffffffff1614610b55576040517f08c379a0000000000000000000000000000000000000000000000000000000008152600401610b4c90612b99565b60405180910390fd5b60016005811115610b6957610b6861234c565b5b82606001516005811115610b8057610b7f61234c565b5b14610bc0576040517f08c379a0000000000000000000000000000000000000000000000000000000008152600401610bb790612e38565b60405180910390fd5b6000600460006007548152602001908152602001600020905083816001019080519060200190610bf1929190611f2f565b5060008160020160006101000a81548160ff02191690836001811115610c1a57610c1961234c565b5b0217905550828160030160008201518160000155602082015181600101556040820151816002019080519060200190610c54929190611f2f565b5060608201518160030160006101000a81548160ff02191690836005811115610c8057610c7f61234c565b5b0217905550905050818160070160006101000a81548173ffffffffffffffffffffffffffffffffffffffff021916908373ffffffffffffffffffffffffffffffffffffffff1602179055507f7404f36b7a730bc20c8cc7e0e75c80d8d9af6bc8bca29829d01437c8f27e6415600754600085866060015186604051610d09959493929190612e58565b60405180910390a160076000815480929190610d2490612c1f565b919050555050505050565b60008282604051602001610d44929190612f36565b60405160208183030381529060405280519060200120905092915050565b610d6a611fb5565b3373ffffffffffffffffffffffffffffffffffffffff16600160009054906101000a900473ffffffffffffffffffffffffffffffffffffffff1673ffffffffffffffffffffffffffffffffffffffff1614610dfa576040517f08c379a0000000000000000000000000000000000000000000000000000000008152600401610df190612faa565b60405180910390fd5b6000808373ffffffffffffffffffffffffffffffffffffffff1673ffffffffffffffffffffffffffffffffffffffff168152602001908152602001600020604051806060016040529081600082018054610e5390612c97565b80601f0160208091040260200160405190810160405280929190818152602001828054610e7f90612c97565b8015610ecc5780601f10610ea157610100808354040283529160200191610ecc565b820191906000526020600020905b815481529060010190602001808311610eaf57829003601f168201915b505050505081526020016001820160009054906101000a900460ff166003811115610efa57610ef961234c565b5b6003811115610f0c57610f0b61234c565b5b81526020016001820160019054906101000a900473ffffffffffffffffffffffffffffffffffffffff1673ffffffffffffffffffffffffffffffffffffffff1673ffffffffffffffffffffffffffffffffffffffff16815250509050919050565b60603373ffffffffffffffffffffffffffffffffffffffff16600160009054906101000a900473ffffffffffffffffffffffffffffffffffffffff1673ffffffffffffffffffffffffffffffffffffffff1614610fff576040517f08c379a0000000000000000000000000000000000000000000000000000000008152600401610ff690612faa565b60405180910390fd5b6040518060400160405280600881526020017f42656e69616d696e000000000000000000000000000000000000000000000000815250905090565b600560205280600052604060002060009150905080600001549080600101805461106390612c97565b80601f016020809104026020016040519081016040528092919081815260200182805461108f90612c97565b80156110dc5780601f106110b1576101008083540402835291602001916110dc565b820191906000526020600020905b8154815290600101906020018083116110bf57829003601f168201915b5050505050908060020160009054906101000a900460ff169080600301604051806080016040529081600082015481526020016001820154815260200160028201805461112890612c97565b80601f016020809104026020016040519081016040528092919081815260200182805461115490612c97565b80156111a15780601f10611176576101008083540402835291602001916111a1565b820191906000526020600020905b81548152906001019060200180831161118457829003601f168201915b505050505081526020016003820160009054906101000a900460ff1660058111156111cf576111ce61234c565b5b60058111156111e1576111e061234c565b5b81525050908060070160009054906101000a900473ffffffffffffffffffffffffffffffffffffffff16905085565b600160009054906101000a900473ffffffffffffffffffffffffffffffffffffffff1681565b60603373ffffffffffffffffffffffffffffffffffffffff16600160009054906101000a900473ffffffffffffffffffffffffffffffffffffffff1673ffffffffffffffffffffffffffffffffffffffff16146112c8576040517f08c379a00000000000000000000000000000000000000000000000000000000081526004016112bf90612faa565b60405180910390fd5b8260038111156112db576112da61234c565b5b6000808473ffffffffffffffffffffffffffffffffffffffff1673ffffffffffffffffffffffffffffffffffffffff16815260200190815260200160002060010160006101000a81548160ff0219169083600381111561133e5761133d61234c565b5b02179055506040518060400160405280600d81526020017f526f6c6520557064617465642100000000000000000000000000000000000000815250905092915050565b600160038111156113955761139461234c565b5b600080600260009054906101000a900473ffffffffffffffffffffffffffffffffffffffff1673ffffffffffffffffffffffffffffffffffffffff1673ffffffffffffffffffffffffffffffffffffffff16815260200190815260200160002060010160009054906101000a900460ff1660038111156114185761141761234c565b5b14611458576040517f08c379a000000000000000000000000000000000000000000000000000000000815260040161144f90612b2d565b60405180910390fd5b3373ffffffffffffffffffffffffffffffffffffffff16600260009054906101000a900473ffffffffffffffffffffffffffffffffffffffff1673ffffffffffffffffffffffffffffffffffffffff16146114e8576040517f08c379a00000000000000000000000000000000000000000000000000000000081526004016114df90612b99565b60405180910390fd5b600060058111156114fc576114fb61234c565b5b826060015160058111156115135761151261234c565b5b14611553576040517f08c379a000000000000000000000000000000000000000000000000000000000815260040161154a9061303c565b60405180910390fd5b6000600560006008548152602001908152602001600020905083816001019080519060200190611584929190611f2f565b5060008160020160006101000a81548160ff021916908360018111156115ad576115ac61234c565b5b02179055508281600301600082015181600001556020820151816001015560408201518160020190805190602001906115e7929190611f2f565b5060608201518160030160006101000a81548160ff021916908360058111156116135761161261234c565b5b0217905550905050818160070160006101000a81548173ffffffffffffffffffffffffffffffffffffffff021916908373ffffffffffffffffffffffffffffffffffffffff1602179055507fea116f66bfca993e06ec3531e54d6fdd056bed479a873a351b5ff4c23124595b60085460008586606001518660405161169c959493929190612e58565b60405180910390a1600860008154809291906116b790612c1f565b919050555050505050565b600160038111156116d6576116d561234c565b5b600080600260009054906101000a900473ffffffffffffffffffffffffffffffffffffffff1673ffffffffffffffffffffffffffffffffffffffff1673ffffffffffffffffffffffffffffffffffffffff16815260200190815260200160002060010160009054906101000a900460ff1660038111156117595761175861234c565b5b14611799576040517f08c379a000000000000000000000000000000000000000000000000000000000815260040161179090612b2d565b60405180910390fd5b3373ffffffffffffffffffffffffffffffffffffffff16600260009054906101000a900473ffffffffffffffffffffffffffffffffffffffff1673ffffffffffffffffffffffffffffffffffffffff1614611829576040517f08c379a000000000000000000000000000000000000000000000000000000000815260040161182090612b99565b60405180910390fd5b6004600581111561183d5761183c61234c565b5b826060015160058111156118545761185361234c565b5b14611894576040517f08c379a000000000000000000000000000000000000000000000000000000000815260040161188b906130f4565b60405180910390fd5b60006005600060085481526020019081526020016000209050838160010190805190602001906118c5929190611f2f565b5060008160020160006101000a81548160ff021916908360018111156118ee576118ed61234c565b5b0217905550828160030160008201518160000155602082015181600101556040820151816002019080519060200190611928929190611f2f565b5060608201518160030160006101000a81548160ff021916908360058111156119545761195361234c565b5b0217905550905050818160070160006101000a81548173ffffffffffffffffffffffffffffffffffffffff021916908373ffffffffffffffffffffffffffffffffffffffff1602179055507fea116f66bfca993e06ec3531e54d6fdd056bed479a873a351b5ff4c23124595b6008546000858660600151866040516119dd959493929190612e58565b60405180910390a1600860008154809291906119f890612c1f565b919050555050505050565b6004602052806000526040600020600091509050806000015490806001018054611a2c90612c97565b80601f0160208091040260200160405190810160405280929190818152602001828054611a5890612c97565b8015611aa55780601f10611a7a57610100808354040283529160200191611aa5565b820191906000526020600020905b815481529060010190602001808311611a8857829003601f168201915b5050505050908060020160009054906101000a900460ff1690806003016040518060800160405290816000820154815260200160018201548152602001600282018054611af190612c97565b80601f0160208091040260200160405190810160405280929190818152602001828054611b1d90612c97565b8015611b6a5780601f10611b3f57610100808354040283529160200191611b6a565b820191906000526020600020905b815481529060010190602001808311611b4d57829003601f168201915b505050505081526020016003820160009054906101000a900460ff166005811115611b9857611b9761234c565b5b6005811115611baa57611ba961234c565b5b81525050908060070160009054906101000a900473ffffffffffffffffffffffffffffffffffffffff16905085565b3373ffffffffffffffffffffffffffffffffffffffff16600160009054906101000a900473ffffffffffffffffffffffffffffffffffffffff1673ffffffffffffffffffffffffffffffffffffffff1614611c69576040517f08c379a0000000000000000000000000000000000000000000000000000000008152600401611c6090612faa565b60405180910390fd5b826000808373ffffffffffffffffffffffffffffffffffffffff1673ffffffffffffffffffffffffffffffffffffffff1681526020019081526020016000206000019080519060200190611cbe929190611f2f565b50816003811115611cd257611cd161234c565b5b6000808373ffffffffffffffffffffffffffffffffffffffff1673ffffffffffffffffffffffffffffffffffffffff16815260200190815260200160002060010160006101000a81548160ff02191690836003811115611d3557611d3461234c565b5b0217905550806000808373ffffffffffffffffffffffffffffffffffffffff1673ffffffffffffffffffffffffffffffffffffffff16815260200190815260200160002060010160016101000a81548173ffffffffffffffffffffffffffffffffffffffff021916908373ffffffffffffffffffffffffffffffffffffffff1602179055508073ffffffffffffffffffffffffffffffffffffffff167f48cac28ad4dc618e15f4c2dd5e97751182f166de97b25618318b2112aa951a2f84604051611e009190612896565b60405180910390a2505050565b3373ffffffffffffffffffffffffffffffffffffffff16600960009054906101000a900473ffffffffffffffffffffffffffffffffffffffff1673ffffffffffffffffffffffffffffffffffffffff1614611e9d576040517f08c379a0000000000000000000000000000000000000000000000000000000008152600401611e9490612d15565b60405180910390fd5b600181606001906005811115611eb657611eb561234c565b5b90816005811115611eca57611ec961234c565b5b815250507f6b6f8a1a87764ae9b12ea8e40e09562deddff4f9efc0f0473968a694c5b9f5c3600182600960009054906101000a900473ffffffffffffffffffffffffffffffffffffffff16604051611f2493929190612d88565b60405180910390a150565b828054611f3b90612c97565b90600052602060002090601f016020900481019282611f5d5760008555611fa4565b82601f10611f7657805160ff1916838001178555611fa4565b82800160010185558215611fa4579182015b82811115611fa3578251825591602001919060010190611f88565b5b509050611fb19190611ffe565b5090565b60405180606001604052806060815260200160006003811115611fdb57611fda61234c565b5b8152602001600073ffffffffffffffffffffffffffffffffffffffff1681525090565b5b80821115612017576000816000905550600101611fff565b5090565b6000604051905090565b600080fd5b600080fd5b6000819050919050565b6120428161202f565b811461204d57600080fd5b50565b60008135905061205f81612039565b92915050565b600080fd5b600080fd5b6000601f19601f8301169050919050565b7f4e487b7100000000000000000000000000000000000000000000000000000000600052604160045260246000fd5b6120b88261206f565b810181811067ffffffffffffffff821117156120d7576120d6612080565b5b80604052505050565b60006120ea61201b565b90506120f682826120af565b919050565b600067ffffffffffffffff82111561211657612115612080565b5b61211f8261206f565b9050602081019050919050565b82818337600083830152505050565b600061214e612149846120fb565b6120e0565b90508281526020810184848401111561216a5761216961206a565b5b61217584828561212c565b509392505050565b600082601f83011261219257612191612065565b5b81356121a284826020860161213b565b91505092915050565b600681106121b857600080fd5b50565b6000813590506121ca816121ab565b92915050565b600080600080608085870312156121ea576121e9612025565b5b60006121f887828801612050565b945050602085013567ffffffffffffffff8111156122195761221861202a565b5b6122258782880161217d565b9350506040612236878288016121bb565b925050606085013567ffffffffffffffff8111156122575761225661202a565b5b6122638782880161217d565b91505092959194509250565b60006020828403121561228557612284612025565b5b600061229384828501612050565b91505092915050565b6122a58161202f565b82525050565b6000819050919050565b6122be816122ab565b82525050565b600081519050919050565b600082825260208201905092915050565b60005b838110156122fe5780820151818401526020810190506122e3565b8381111561230d576000848401525b50505050565b600061231e826122c4565b61232881856122cf565b93506123388185602086016122e0565b6123418161206f565b840191505092915050565b7f4e487b7100000000000000000000000000000000000000000000000000000000600052602160045260246000fd5b6006811061238c5761238b61234c565b5b50565b600081905061239d8261237b565b919050565b60006123ad8261238f565b9050919050565b6123bd816123a2565b82525050565b60006080820190506123d8600083018761229c565b6123e560208301866122b5565b81810360408301526123f78185612313565b905061240660608301846123b4565b95945050505050565b600073ffffffffffffffffffffffffffffffffffffffff82169050919050565b600061243a8261240f565b9050919050565b61244a8161242f565b811461245557600080fd5b50565b60008135905061246781612441565b92915050565b60006020828403121561248357612482612025565b5b600061249184828501612458565b91505092915050565b600481106124ab576124aa61234c565b5b50565b60008190506124bc8261249a565b919050565b60006124cc826124ae565b9050919050565b6124dc816124c1565b82525050565b6124eb8161242f565b82525050565b6000606082019050818103600083015261250b8186612313565b905061251a60208301856124d3565b61252760408301846124e2565b949350505050565b600080fd5b600080fd5b612542816122ab565b811461254d57600080fd5b50565b60008135905061255f81612539565b92915050565b60006080828403121561257b5761257a61252f565b5b61258560806120e0565b9050600061259584828501612050565b60008301525060206125a984828501612550565b602083015250604082013567ffffffffffffffff8111156125cd576125cc612534565b5b6125d98482850161217d565b60408301525060606125ed848285016121bb565b60608301525092915050565b600080604083850312156126105761260f612025565b5b600083013567ffffffffffffffff81111561262e5761262d61202a565b5b61263a8582860161217d565b925050602083013567ffffffffffffffff81111561265b5761265a61202a565b5b61266785828601612565565b9150509250929050565b60006020828403121561268757612686612025565b5b600082013567ffffffffffffffff8111156126a5576126a461202a565b5b6126b184828501612565565b91505092915050565b6000806000606084860312156126d3576126d2612025565b5b600084013567ffffffffffffffff8111156126f1576126f061202a565b5b6126fd8682870161217d565b935050602084013567ffffffffffffffff81111561271e5761271d61202a565b5b61272a86828701612565565b925050604061273b86828701612458565b9150509250925092565b6000806040838503121561275c5761275b612025565b5b600083013567ffffffffffffffff81111561277a5761277961202a565b5b6127868582860161217d565b925050602061279785828601612458565b9150509250929050565b60006020820190506127b660008301846122b5565b92915050565b600082825260208201905092915050565b60006127d8826122c4565b6127e281856127bc565b93506127f28185602086016122e0565b6127fb8161206f565b840191505092915050565b61280f816124c1565b82525050565b61281e8161242f565b82525050565b6000606083016000830151848203600086015261284182826127cd565b91505060208301516128566020860182612806565b5060408301516128696040860182612815565b508091505092915050565b6000602082019050818103600083015261288e8184612824565b905092915050565b600060208201905081810360008301526128b08184612313565b905092915050565b600281106128c9576128c861234c565b5b50565b60008190506128da826128b8565b919050565b60006128ea826128cc565b9050919050565b6128fa816128df565b82525050565b6129098161202f565b82525050565b612918816122ab565b82525050565b612927816123a2565b82525050565b60006080830160008301516129456000860182612900565b506020830151612958602086018261290f565b506040830151848203604086015261297082826127cd565b9150506060830151612985606086018261291e565b508091505092915050565b600060a0820190506129a5600083018861229c565b81810360208301526129b78187612313565b90506129c660408301866128f1565b81810360608301526129d8818561292d565b90506129e760808301846124e2565b9695505050505050565b6000602082019050612a0660008301846124e2565b92915050565b60008060408385031215612a2357612a22612025565b5b6000612a3185828601612050565b9250506020612a4285828601612458565b9150509250929050565b600080600060608486031215612a6557612a64612025565b5b600084013567ffffffffffffffff811115612a8357612a8261202a565b5b612a8f8682870161217d565b9350506020612aa086828701612050565b9250506040612ab186828701612458565b9150509250925092565b7f596f7520646f6e27742068617665207468652072696768747320666f7220746860008201527f6973207265736f75726365732e00000000000000000000000000000000000000602082015250565b6000612b17602d836122cf565b9150612b2282612abb565b604082019050919050565b60006020820190508181036000830152612b4681612b0a565b9050919050565b7f596f7520617265206e6f7420612070726f6a65637420696e69746961746f7200600082015250565b6000612b83601f836122cf565b9150612b8e82612b4d565b602082019050919050565b60006020820190508181036000830152612bb281612b76565b9050919050565b6000606082019050612bce600083018661229c565b612bdb60208301856123b4565b612be860408301846124e2565b949350505050565b7f4e487b7100000000000000000000000000000000000000000000000000000000600052601160045260246000fd5b6000612c2a8261202f565b91507fffffffffffffffffffffffffffffffffffffffffffffffffffffffffffffffff821415612c5d57612c5c612bf0565b5b600182019050919050565b7f4e487b7100000000000000000000000000000000000000000000000000000000600052602260045260246000fd5b60006002820490506001821680612caf57607f821691505b60208210811415612cc357612cc2612c68565b5b50919050565b7f596f7520617265206e6f7420612073757065727669736f720000000000000000600082015250565b6000612cff6018836122cf565b9150612d0a82612cc9565b602082019050919050565b60006020820190508181036000830152612d2e81612cf2565b9050919050565b60006080820190508181036000830152612d4f8187612313565b9050612d5e60208301866123b4565b8181036040830152612d70818561292d565b9050612d7f60608301846124e2565b95945050505050565b6000606082019050612d9d60008301866123b4565b8181036020830152612daf818561292d565b9050612dbe60408301846124e2565b949350505050565b7f5468652070726f6a656374206973206e6f7420617070726f7665642c2074686560008201527f206f7065726174696f6e2063616e6e6f7420626520646f6e652e000000000000602082015250565b6000612e22603a836122cf565b9150612e2d82612dc6565b604082019050919050565b60006020820190508181036000830152612e5181612e15565b9050919050565b600060a082019050612e6d600083018861229c565b612e7a60208301876128f1565b8181036040830152612e8c818661292d565b9050612e9b60608301856123b4565b612ea860808301846124e2565b9695505050505050565b600081905092915050565b6000612ec8826122c4565b612ed28185612eb2565b9350612ee28185602086016122e0565b80840191505092915050565b60008160601b9050919050565b6000612f0682612eee565b9050919050565b6000612f1882612efb565b9050919050565b612f30612f2b8261242f565b612f0d565b82525050565b6000612f428285612ebd565b9150612f4e8284612f1f565b6014820191508190509392505050565b7f596f7520617265206e6f7420616e206f776e6572000000000000000000000000600082015250565b6000612f946014836122cf565b9150612f9f82612f5e565b602082019050919050565b60006020820190508181036000830152612fc381612f87565b9050919050565b7f5468652070726f6a656374206973206e6f7420637265617465642c207468652060008201527f6f7065726174696f6e2063616e6e6f7420626520646f6e652e00000000000000602082015250565b60006130266039836122cf565b915061303182612fca565b604082019050919050565b6000602082019050818103600083015261305581613019565b9050919050565b7f5468652070726f6a656374206973206e6f7420696e2074686520274265666f7260008201527f6546696e616c697a6174696f6e436865636b27207374617475732c207468652060208201527f6f7065726174696f6e2063616e6e6f7420626520646f6e652e00000000000000604082015250565b60006130de6059836122cf565b91506130e98261305c565b606082019050919050565b6000602082019050818103600083015261310d816130d1565b905091905056fea2646970667358221220fef1c5fd995f68e6420aa3fd6f4e690ed085968d8bad060eaf100c3cb394fe9864736f6c63430008090033",
  "immutableReferences": {},
  "source": "// SPDX-License-Identifier: MIT\r\npragma solidity >=0.8.0 <0.9.0;\r\n\r\nimport \"./Project.sol\";\r\n\r\ncontract Supervisor is Project {\r\n\r\n    address _supervisorAddress;\r\n\r\n    event ApproveProjectRequestBySupervisor(ProjectStatus _status, S_Project _project, address _subjectAddress);\r\n    event RejectProjectRequestBySupervisor(string _description, ProjectStatus _status, S_Project _project, address _subjectAddress);\r\n    event CompleteProjectRequestBySupervisor(ProjectStatus _status, S_Project _project, address _subjectAddress);\r\n\r\n    constructor() {\r\n        _supervisorAddress = msg.sender;\r\n    }\r\n\r\n    modifier onlySupervisor {\r\n        require(_supervisorAddress == msg.sender, \"You are not a supervisor\");\r\n        _;\r\n    }\r\n\r\n    // Add some contrainst / verification TOOO DOOO -> LATER\r\n\r\n    function setProjectRequestToApprovedStatus(S_Project memory _project) public onlySupervisor {\r\n        _project.projectStatus = ProjectStatus.Approved;\r\n        emit ApproveProjectRequestBySupervisor(ProjectStatus.Approved, _project, _supervisorAddress);\r\n    }\r\n\r\n    function setProjectRequestToRejectStatus(string memory _description, S_Project memory _project) public onlySupervisor {\r\n        _project.projectStatus = ProjectStatus.Rejected;\r\n        emit RejectProjectRequestBySupervisor(_description, ProjectStatus.Approved, _project, _supervisorAddress);\r\n    }\r\n\r\n    function setProjectRequestToCompletedStatus(S_Project memory _project)  public onlySupervisor {\r\n        _project.projectStatus = ProjectStatus.Completed;\r\n        emit CompleteProjectRequestBySupervisor(ProjectStatus.Completed, _project, _supervisorAddress);\r\n    }\r\n}\r\n",
  "sourcePath": "/mnt/c/users/beniamin/source/repos/dissertationproject/contracts/Supervisor.sol",
  "compiler": {
    "name": "solc",
    "version": "0.8.9+commit.e5eed63a.Emscripten.clang"
  },
  "schemaVersion": "3.4.3",
  "updatedAt": "2021-11-05T20:41:04.076Z",
  "devdoc": {
    "kind": "dev",
    "methods": {},
    "version": 1
  },
  "userdoc": {
    "kind": "user",
    "methods": {},
    "version": 1
  }
}