{
  "contractName": "Supervisor",
  "abi": [
    {
      "inputs": [],
      "stateMutability": "nonpayable",
      "type": "constructor"
    },
    {
      "anonymous": false,
      "inputs": [
        {
          "indexed": false,
          "internalType": "enum ProjectChain.ProjectStatus",
          "name": "_status",
          "type": "uint8"
        },
        {
          "components": [
            {
              "internalType": "uint256",
              "name": "_index",
              "type": "uint256"
            },
            {
              "internalType": "string",
              "name": "_name",
              "type": "string"
            },
            {
              "internalType": "string",
              "name": "_description",
              "type": "string"
            },
            {
              "internalType": "enum ProjectChain.ProjectStatus",
              "name": "_status",
              "type": "uint8"
            },
            {
              "internalType": "string",
              "name": "_ipfsFileCID",
              "type": "string"
            },
            {
              "internalType": "address",
              "name": "_projectAddress",
              "type": "address"
            },
            {
              "internalType": "address",
              "name": "_projectInitiator",
              "type": "address"
            }
          ],
          "indexed": false,
          "internalType": "struct ProjectChain.Project",
          "name": "_project",
          "type": "tuple"
        },
        {
          "indexed": false,
          "internalType": "address",
          "name": "_subjectAddress",
          "type": "address"
        }
      ],
      "name": "ApproveProjectRequestBySupervisor",
      "type": "event"
    },
    {
      "anonymous": false,
      "inputs": [
        {
          "indexed": false,
          "internalType": "enum ProjectChain.ProjectStatus",
          "name": "_status",
          "type": "uint8"
        },
        {
          "components": [
            {
              "internalType": "uint256",
              "name": "_index",
              "type": "uint256"
            },
            {
              "internalType": "string",
              "name": "_name",
              "type": "string"
            },
            {
              "internalType": "string",
              "name": "_description",
              "type": "string"
            },
            {
              "internalType": "enum ProjectChain.ProjectStatus",
              "name": "_status",
              "type": "uint8"
            },
            {
              "internalType": "string",
              "name": "_ipfsFileCID",
              "type": "string"
            },
            {
              "internalType": "address",
              "name": "_projectAddress",
              "type": "address"
            },
            {
              "internalType": "address",
              "name": "_projectInitiator",
              "type": "address"
            }
          ],
          "indexed": false,
          "internalType": "struct ProjectChain.Project",
          "name": "_project",
          "type": "tuple"
        },
        {
          "indexed": false,
          "internalType": "address",
          "name": "_subjectAddress",
          "type": "address"
        }
      ],
      "name": "CompleteProjectRequestBySupervisor",
      "type": "event"
    },
    {
      "anonymous": false,
      "inputs": [
        {
          "indexed": false,
          "internalType": "uint256",
          "name": "_index",
          "type": "uint256"
        },
        {
          "indexed": false,
          "internalType": "string",
          "name": "_name",
          "type": "string"
        },
        {
          "indexed": false,
          "internalType": "string",
          "name": "_description",
          "type": "string"
        },
        {
          "indexed": false,
          "internalType": "enum ProjectChain.ProjectStatus",
          "name": "_status",
          "type": "uint8"
        },
        {
          "indexed": false,
          "internalType": "string",
          "name": "_ipfsFileCID",
          "type": "string"
        },
        {
          "indexed": false,
          "internalType": "address",
          "name": "_projectAddress",
          "type": "address"
        },
        {
          "indexed": false,
          "internalType": "address",
          "name": "_projectInitiator",
          "type": "address"
        }
      ],
      "name": "ProjectEvent",
      "type": "event"
    },
    {
      "anonymous": false,
      "inputs": [
        {
          "indexed": false,
          "internalType": "uint256",
          "name": "_index",
          "type": "uint256"
        },
        {
          "indexed": false,
          "internalType": "string",
          "name": "_name",
          "type": "string"
        },
        {
          "indexed": false,
          "internalType": "string",
          "name": "_description",
          "type": "string"
        },
        {
          "indexed": false,
          "internalType": "string",
          "name": "_comments",
          "type": "string"
        },
        {
          "indexed": false,
          "internalType": "enum ProjectChain.ProjectStatus",
          "name": "_status",
          "type": "uint8"
        },
        {
          "indexed": false,
          "internalType": "enum ProjectChain.ProjectRequestStatus",
          "name": "_requestStatus",
          "type": "uint8"
        },
        {
          "indexed": false,
          "internalType": "string",
          "name": "_ipfsFileCID",
          "type": "string"
        },
        {
          "indexed": false,
          "internalType": "address",
          "name": "_projectAddress",
          "type": "address"
        },
        {
          "indexed": false,
          "internalType": "address",
          "name": "_projectInitiator",
          "type": "address"
        },
        {
          "indexed": false,
          "internalType": "string",
          "name": "signature",
          "type": "string"
        }
      ],
      "name": "ProjectStatusEvent",
      "type": "event"
    },
    {
      "anonymous": false,
      "inputs": [
        {
          "indexed": false,
          "internalType": "string",
          "name": "_description",
          "type": "string"
        },
        {
          "indexed": false,
          "internalType": "enum ProjectChain.ProjectStatus",
          "name": "_status",
          "type": "uint8"
        },
        {
          "components": [
            {
              "internalType": "uint256",
              "name": "_index",
              "type": "uint256"
            },
            {
              "internalType": "string",
              "name": "_name",
              "type": "string"
            },
            {
              "internalType": "string",
              "name": "_description",
              "type": "string"
            },
            {
              "internalType": "enum ProjectChain.ProjectStatus",
              "name": "_status",
              "type": "uint8"
            },
            {
              "internalType": "string",
              "name": "_ipfsFileCID",
              "type": "string"
            },
            {
              "internalType": "address",
              "name": "_projectAddress",
              "type": "address"
            },
            {
              "internalType": "address",
              "name": "_projectInitiator",
              "type": "address"
            }
          ],
          "indexed": false,
          "internalType": "struct ProjectChain.Project",
          "name": "_project",
          "type": "tuple"
        },
        {
          "indexed": false,
          "internalType": "address",
          "name": "_subjectAddress",
          "type": "address"
        }
      ],
      "name": "RejectProjectRequestBySupervisor",
      "type": "event"
    },
    {
      "anonymous": false,
      "inputs": [
        {
          "indexed": false,
          "internalType": "uint256",
          "name": "_indexRequest",
          "type": "uint256"
        },
        {
          "indexed": false,
          "internalType": "enum ProjectChain.RequestStatus",
          "name": "_status",
          "type": "uint8"
        },
        {
          "components": [
            {
              "internalType": "uint256",
              "name": "_index",
              "type": "uint256"
            },
            {
              "internalType": "string",
              "name": "_name",
              "type": "string"
            },
            {
              "internalType": "string",
              "name": "_description",
              "type": "string"
            },
            {
              "internalType": "enum ProjectChain.ProjectStatus",
              "name": "_status",
              "type": "uint8"
            },
            {
              "internalType": "string",
              "name": "_ipfsFileCID",
              "type": "string"
            },
            {
              "internalType": "address",
              "name": "_projectAddress",
              "type": "address"
            },
            {
              "internalType": "address",
              "name": "_projectInitiator",
              "type": "address"
            }
          ],
          "indexed": false,
          "internalType": "struct ProjectChain.Project",
          "name": "_project",
          "type": "tuple"
        },
        {
          "indexed": false,
          "internalType": "enum ProjectChain.ProjectStatus",
          "name": "_projectStatus",
          "type": "uint8"
        },
        {
          "indexed": false,
          "internalType": "address",
          "name": "_subjectAddress",
          "type": "address"
        }
      ],
      "name": "UpdateCompanyRequestStatus",
      "type": "event"
    },
    {
      "anonymous": false,
      "inputs": [
        {
          "indexed": false,
          "internalType": "uint256",
          "name": "_indexRequest",
          "type": "uint256"
        },
        {
          "indexed": false,
          "internalType": "enum ProjectChain.RequestStatus",
          "name": "_status",
          "type": "uint8"
        },
        {
          "components": [
            {
              "internalType": "uint256",
              "name": "_index",
              "type": "uint256"
            },
            {
              "internalType": "string",
              "name": "_name",
              "type": "string"
            },
            {
              "internalType": "string",
              "name": "_description",
              "type": "string"
            },
            {
              "internalType": "enum ProjectChain.ProjectStatus",
              "name": "_status",
              "type": "uint8"
            },
            {
              "internalType": "string",
              "name": "_ipfsFileCID",
              "type": "string"
            },
            {
              "internalType": "address",
              "name": "_projectAddress",
              "type": "address"
            },
            {
              "internalType": "address",
              "name": "_projectInitiator",
              "type": "address"
            }
          ],
          "indexed": false,
          "internalType": "struct ProjectChain.Project",
          "name": "_project",
          "type": "tuple"
        },
        {
          "indexed": false,
          "internalType": "enum ProjectChain.ProjectStatus",
          "name": "_projectStatus",
          "type": "uint8"
        },
        {
          "indexed": false,
          "internalType": "address",
          "name": "_subjectAddress",
          "type": "address"
        }
      ],
      "name": "UpdateSupervisorRequestStatus",
      "type": "event"
    },
    {
      "anonymous": false,
      "inputs": [
        {
          "indexed": false,
          "internalType": "string",
          "name": "_username",
          "type": "string"
        },
        {
          "indexed": false,
          "internalType": "string",
          "name": "_firstname",
          "type": "string"
        },
        {
          "indexed": false,
          "internalType": "string",
          "name": "_lastname",
          "type": "string"
        },
        {
          "indexed": false,
          "internalType": "string",
          "name": "_email",
          "type": "string"
        },
        {
          "indexed": false,
          "internalType": "enum UserChain.Roles",
          "name": "_role",
          "type": "uint8"
        },
        {
          "indexed": false,
          "internalType": "address",
          "name": "_walletAddress",
          "type": "address"
        }
      ],
      "name": "UserChanges",
      "type": "event"
    },
    {
      "anonymous": false,
      "inputs": [
        {
          "indexed": true,
          "internalType": "address",
          "name": "_walletAddress",
          "type": "address"
        },
        {
          "indexed": true,
          "internalType": "string",
          "name": "_username",
          "type": "string"
        },
        {
          "indexed": false,
          "internalType": "string",
          "name": "_email",
          "type": "string"
        },
        {
          "indexed": false,
          "internalType": "string",
          "name": "_firstname",
          "type": "string"
        },
        {
          "indexed": false,
          "internalType": "string",
          "name": "_lastname",
          "type": "string"
        },
        {
          "indexed": true,
          "internalType": "enum UserChain.Roles",
          "name": "_role",
          "type": "uint8"
        }
      ],
      "name": "UserRegistered",
      "type": "event"
    },
    {
      "inputs": [
        {
          "internalType": "uint256",
          "name": "",
          "type": "uint256"
        }
      ],
      "name": "allProjects",
      "outputs": [
        {
          "internalType": "uint256",
          "name": "_index",
          "type": "uint256"
        },
        {
          "internalType": "string",
          "name": "_name",
          "type": "string"
        },
        {
          "internalType": "string",
          "name": "_description",
          "type": "string"
        },
        {
          "internalType": "enum ProjectChain.ProjectStatus",
          "name": "_status",
          "type": "uint8"
        },
        {
          "internalType": "string",
          "name": "_ipfsFileCID",
          "type": "string"
        },
        {
          "internalType": "address",
          "name": "_projectAddress",
          "type": "address"
        },
        {
          "internalType": "address",
          "name": "_projectInitiator",
          "type": "address"
        }
      ],
      "stateMutability": "view",
      "type": "function"
    },
    {
      "inputs": [
        {
          "internalType": "uint256",
          "name": "",
          "type": "uint256"
        }
      ],
      "name": "allUsers",
      "outputs": [
        {
          "internalType": "uint256",
          "name": "_index",
          "type": "uint256"
        },
        {
          "internalType": "string",
          "name": "_username",
          "type": "string"
        },
        {
          "internalType": "string",
          "name": "_email",
          "type": "string"
        },
        {
          "internalType": "string",
          "name": "_firstname",
          "type": "string"
        },
        {
          "internalType": "string",
          "name": "_lastname",
          "type": "string"
        },
        {
          "internalType": "enum UserChain.Roles",
          "name": "_role",
          "type": "uint8"
        },
        {
          "internalType": "address",
          "name": "_walletAddress",
          "type": "address"
        }
      ],
      "stateMutability": "view",
      "type": "function"
    },
    {
      "inputs": [
        {
          "internalType": "uint256",
          "name": "_role",
          "type": "uint256"
        },
        {
          "internalType": "address",
          "name": "_walletAddress",
          "type": "address"
        }
      ],
      "name": "changeUserRole",
      "outputs": [],
      "stateMutability": "nonpayable",
      "type": "function"
    },
    {
      "inputs": [
        {
          "internalType": "uint256",
          "name": "",
          "type": "uint256"
        }
      ],
      "name": "companyRequests",
      "outputs": [
        {
          "internalType": "uint256",
          "name": "index",
          "type": "uint256"
        },
        {
          "internalType": "string",
          "name": "description",
          "type": "string"
        },
        {
          "internalType": "enum ProjectChain.RequestStatus",
          "name": "status",
          "type": "uint8"
        },
        {
          "components": [
            {
              "internalType": "uint256",
              "name": "_index",
              "type": "uint256"
            },
            {
              "internalType": "string",
              "name": "_name",
              "type": "string"
            },
            {
              "internalType": "string",
              "name": "_description",
              "type": "string"
            },
            {
              "internalType": "enum ProjectChain.ProjectStatus",
              "name": "_status",
              "type": "uint8"
            },
            {
              "internalType": "string",
              "name": "_ipfsFileCID",
              "type": "string"
            },
            {
              "internalType": "address",
              "name": "_projectAddress",
              "type": "address"
            },
            {
              "internalType": "address",
              "name": "_projectInitiator",
              "type": "address"
            }
          ],
          "internalType": "struct ProjectChain.Project",
          "name": "project",
          "type": "tuple"
        },
        {
          "internalType": "address",
          "name": "subjectAddress",
          "type": "address"
        }
      ],
      "stateMutability": "view",
      "type": "function"
    },
    {
      "inputs": [
        {
          "internalType": "string",
          "name": "_name",
          "type": "string"
        },
        {
          "internalType": "string",
          "name": "_description",
          "type": "string"
        },
        {
          "internalType": "uint256",
          "name": "_status",
          "type": "uint256"
        },
        {
          "internalType": "string",
          "name": "_ipfsFileCID",
          "type": "string"
        }
      ],
      "name": "createProject",
      "outputs": [],
      "stateMutability": "nonpayable",
      "type": "function"
    },
    {
      "inputs": [
        {
          "internalType": "string",
          "name": "_text",
          "type": "string"
        }
      ],
      "name": "createUniqueHexAddress",
      "outputs": [
        {
          "internalType": "address",
          "name": "",
          "type": "address"
        }
      ],
      "stateMutability": "view",
      "type": "function"
    },
    {
      "inputs": [],
      "name": "getAllProjects",
      "outputs": [
        {
          "components": [
            {
              "internalType": "uint256",
              "name": "_index",
              "type": "uint256"
            },
            {
              "internalType": "string",
              "name": "_name",
              "type": "string"
            },
            {
              "internalType": "string",
              "name": "_description",
              "type": "string"
            },
            {
              "internalType": "enum ProjectChain.ProjectStatus",
              "name": "_status",
              "type": "uint8"
            },
            {
              "internalType": "string",
              "name": "_ipfsFileCID",
              "type": "string"
            },
            {
              "internalType": "address",
              "name": "_projectAddress",
              "type": "address"
            },
            {
              "internalType": "address",
              "name": "_projectInitiator",
              "type": "address"
            }
          ],
          "internalType": "struct ProjectChain.Project[]",
          "name": "",
          "type": "tuple[]"
        }
      ],
      "stateMutability": "view",
      "type": "function"
    },
    {
      "inputs": [],
      "name": "getAllUsers",
      "outputs": [
        {
          "components": [
            {
              "internalType": "uint256",
              "name": "_index",
              "type": "uint256"
            },
            {
              "internalType": "string",
              "name": "_username",
              "type": "string"
            },
            {
              "internalType": "string",
              "name": "_email",
              "type": "string"
            },
            {
              "internalType": "string",
              "name": "_firstname",
              "type": "string"
            },
            {
              "internalType": "string",
              "name": "_lastname",
              "type": "string"
            },
            {
              "internalType": "enum UserChain.Roles",
              "name": "_role",
              "type": "uint8"
            },
            {
              "internalType": "address",
              "name": "_walletAddress",
              "type": "address"
            }
          ],
          "internalType": "struct UserChain.User[]",
          "name": "",
          "type": "tuple[]"
        }
      ],
      "stateMutability": "view",
      "type": "function"
    },
    {
      "inputs": [
        {
          "internalType": "address",
          "name": "_address",
          "type": "address"
        }
      ],
      "name": "getProjectInfo",
      "outputs": [
        {
          "components": [
            {
              "internalType": "uint256",
              "name": "_index",
              "type": "uint256"
            },
            {
              "internalType": "string",
              "name": "_name",
              "type": "string"
            },
            {
              "internalType": "string",
              "name": "_description",
              "type": "string"
            },
            {
              "internalType": "enum ProjectChain.ProjectStatus",
              "name": "_status",
              "type": "uint8"
            },
            {
              "internalType": "string",
              "name": "_ipfsFileCID",
              "type": "string"
            },
            {
              "internalType": "address",
              "name": "_projectAddress",
              "type": "address"
            },
            {
              "internalType": "address",
              "name": "_projectInitiator",
              "type": "address"
            }
          ],
          "internalType": "struct ProjectChain.Project",
          "name": "",
          "type": "tuple"
        }
      ],
      "stateMutability": "view",
      "type": "function"
    },
    {
      "inputs": [
        {
          "internalType": "address",
          "name": "_walletAddress",
          "type": "address"
        }
      ],
      "name": "getUserInfo",
      "outputs": [
        {
          "components": [
            {
              "internalType": "uint256",
              "name": "_index",
              "type": "uint256"
            },
            {
              "internalType": "string",
              "name": "_username",
              "type": "string"
            },
            {
              "internalType": "string",
              "name": "_email",
              "type": "string"
            },
            {
              "internalType": "string",
              "name": "_firstname",
              "type": "string"
            },
            {
              "internalType": "string",
              "name": "_lastname",
              "type": "string"
            },
            {
              "internalType": "enum UserChain.Roles",
              "name": "_role",
              "type": "uint8"
            },
            {
              "internalType": "address",
              "name": "_walletAddress",
              "type": "address"
            }
          ],
          "internalType": "struct UserChain.User",
          "name": "",
          "type": "tuple"
        }
      ],
      "stateMutability": "view",
      "type": "function"
    },
    {
      "inputs": [],
      "name": "owner",
      "outputs": [
        {
          "internalType": "address",
          "name": "",
          "type": "address"
        }
      ],
      "stateMutability": "view",
      "type": "function"
    },
    {
      "inputs": [
        {
          "internalType": "address",
          "name": "",
          "type": "address"
        }
      ],
      "name": "projects",
      "outputs": [
        {
          "internalType": "uint256",
          "name": "_index",
          "type": "uint256"
        },
        {
          "internalType": "string",
          "name": "_name",
          "type": "string"
        },
        {
          "internalType": "string",
          "name": "_description",
          "type": "string"
        },
        {
          "internalType": "enum ProjectChain.ProjectStatus",
          "name": "_status",
          "type": "uint8"
        },
        {
          "internalType": "string",
          "name": "_ipfsFileCID",
          "type": "string"
        },
        {
          "internalType": "address",
          "name": "_projectAddress",
          "type": "address"
        },
        {
          "internalType": "address",
          "name": "_projectInitiator",
          "type": "address"
        }
      ],
      "stateMutability": "view",
      "type": "function"
    },
    {
      "inputs": [],
      "name": "projectsCounter",
      "outputs": [
        {
          "internalType": "uint256",
          "name": "",
          "type": "uint256"
        }
      ],
      "stateMutability": "view",
      "type": "function"
    },
    {
      "inputs": [
        {
          "internalType": "string",
          "name": "_username",
          "type": "string"
        },
        {
          "internalType": "string",
          "name": "_email",
          "type": "string"
        },
        {
          "internalType": "string",
          "name": "_firstname",
          "type": "string"
        },
        {
          "internalType": "string",
          "name": "_lastname",
          "type": "string"
        },
        {
          "internalType": "uint256",
          "name": "_role",
          "type": "uint256"
        },
        {
          "internalType": "address",
          "name": "_walletAddress",
          "type": "address"
        }
      ],
      "name": "registerUser",
      "outputs": [],
      "stateMutability": "nonpayable",
      "type": "function"
    },
    {
      "inputs": [
        {
          "internalType": "string",
          "name": "_description",
          "type": "string"
        },
        {
          "components": [
            {
              "internalType": "uint256",
              "name": "_index",
              "type": "uint256"
            },
            {
              "internalType": "string",
              "name": "_name",
              "type": "string"
            },
            {
              "internalType": "string",
              "name": "_description",
              "type": "string"
            },
            {
              "internalType": "enum ProjectChain.ProjectStatus",
              "name": "_status",
              "type": "uint8"
            },
            {
              "internalType": "string",
              "name": "_ipfsFileCID",
              "type": "string"
            },
            {
              "internalType": "address",
              "name": "_projectAddress",
              "type": "address"
            },
            {
              "internalType": "address",
              "name": "_projectInitiator",
              "type": "address"
            }
          ],
          "internalType": "struct ProjectChain.Project",
          "name": "_project",
          "type": "tuple"
        },
        {
          "internalType": "address",
          "name": "_subjectAddress",
          "type": "address"
        }
      ],
      "name": "requestProjectApprovalFromSupervisor",
      "outputs": [],
      "stateMutability": "nonpayable",
      "type": "function"
    },
    {
      "inputs": [
        {
          "internalType": "string",
          "name": "_description",
          "type": "string"
        },
        {
          "components": [
            {
              "internalType": "uint256",
              "name": "_index",
              "type": "uint256"
            },
            {
              "internalType": "string",
              "name": "_name",
              "type": "string"
            },
            {
              "internalType": "string",
              "name": "_description",
              "type": "string"
            },
            {
              "internalType": "enum ProjectChain.ProjectStatus",
              "name": "_status",
              "type": "uint8"
            },
            {
              "internalType": "string",
              "name": "_ipfsFileCID",
              "type": "string"
            },
            {
              "internalType": "address",
              "name": "_projectAddress",
              "type": "address"
            },
            {
              "internalType": "address",
              "name": "_projectInitiator",
              "type": "address"
            }
          ],
          "internalType": "struct ProjectChain.Project",
          "name": "_project",
          "type": "tuple"
        },
        {
          "internalType": "address",
          "name": "_subjectAddress",
          "type": "address"
        }
      ],
      "name": "requestProjectCompleteFromSupervisor",
      "outputs": [],
      "stateMutability": "nonpayable",
      "type": "function"
    },
    {
      "inputs": [
        {
          "internalType": "string",
          "name": "_description",
          "type": "string"
        },
        {
          "components": [
            {
              "internalType": "uint256",
              "name": "_index",
              "type": "uint256"
            },
            {
              "internalType": "string",
              "name": "_name",
              "type": "string"
            },
            {
              "internalType": "string",
              "name": "_description",
              "type": "string"
            },
            {
              "internalType": "enum ProjectChain.ProjectStatus",
              "name": "_status",
              "type": "uint8"
            },
            {
              "internalType": "string",
              "name": "_ipfsFileCID",
              "type": "string"
            },
            {
              "internalType": "address",
              "name": "_projectAddress",
              "type": "address"
            },
            {
              "internalType": "address",
              "name": "_projectInitiator",
              "type": "address"
            }
          ],
          "internalType": "struct ProjectChain.Project",
          "name": "_project",
          "type": "tuple"
        },
        {
          "internalType": "address",
          "name": "_subjectAddress",
          "type": "address"
        }
      ],
      "name": "requestStartProjectToCompanyBuilder",
      "outputs": [],
      "stateMutability": "nonpayable",
      "type": "function"
    },
    {
      "inputs": [
        {
          "internalType": "uint256",
          "name": "",
          "type": "uint256"
        }
      ],
      "name": "supervisorRequests",
      "outputs": [
        {
          "internalType": "uint256",
          "name": "index",
          "type": "uint256"
        },
        {
          "internalType": "string",
          "name": "description",
          "type": "string"
        },
        {
          "internalType": "enum ProjectChain.RequestStatus",
          "name": "status",
          "type": "uint8"
        },
        {
          "components": [
            {
              "internalType": "uint256",
              "name": "_index",
              "type": "uint256"
            },
            {
              "internalType": "string",
              "name": "_name",
              "type": "string"
            },
            {
              "internalType": "string",
              "name": "_description",
              "type": "string"
            },
            {
              "internalType": "enum ProjectChain.ProjectStatus",
              "name": "_status",
              "type": "uint8"
            },
            {
              "internalType": "string",
              "name": "_ipfsFileCID",
              "type": "string"
            },
            {
              "internalType": "address",
              "name": "_projectAddress",
              "type": "address"
            },
            {
              "internalType": "address",
              "name": "_projectInitiator",
              "type": "address"
            }
          ],
          "internalType": "struct ProjectChain.Project",
          "name": "project",
          "type": "tuple"
        },
        {
          "internalType": "address",
          "name": "subjectAddress",
          "type": "address"
        }
      ],
      "stateMutability": "view",
      "type": "function"
    },
    {
      "inputs": [
        {
          "internalType": "address",
          "name": "",
          "type": "address"
        }
      ],
      "name": "users",
      "outputs": [
        {
          "internalType": "uint256",
          "name": "_index",
          "type": "uint256"
        },
        {
          "internalType": "string",
          "name": "_username",
          "type": "string"
        },
        {
          "internalType": "string",
          "name": "_email",
          "type": "string"
        },
        {
          "internalType": "string",
          "name": "_firstname",
          "type": "string"
        },
        {
          "internalType": "string",
          "name": "_lastname",
          "type": "string"
        },
        {
          "internalType": "enum UserChain.Roles",
          "name": "_role",
          "type": "uint8"
        },
        {
          "internalType": "address",
          "name": "_walletAddress",
          "type": "address"
        }
      ],
      "stateMutability": "view",
      "type": "function"
    },
    {
      "inputs": [],
      "name": "usersCounter",
      "outputs": [
        {
          "internalType": "uint256",
          "name": "",
          "type": "uint256"
        }
      ],
      "stateMutability": "view",
      "type": "function"
    },
    {
      "inputs": [
        {
          "components": [
            {
              "internalType": "uint256",
              "name": "_index",
              "type": "uint256"
            },
            {
              "internalType": "string",
              "name": "_name",
              "type": "string"
            },
            {
              "internalType": "string",
              "name": "_description",
              "type": "string"
            },
            {
              "internalType": "enum ProjectChain.ProjectStatus",
              "name": "_status",
              "type": "uint8"
            },
            {
              "internalType": "string",
              "name": "_ipfsFileCID",
              "type": "string"
            },
            {
              "internalType": "address",
              "name": "_projectAddress",
              "type": "address"
            },
            {
              "internalType": "address",
              "name": "_projectInitiator",
              "type": "address"
            }
          ],
          "internalType": "struct ProjectChain.Project",
          "name": "_project",
          "type": "tuple"
        }
      ],
      "name": "setProjectRequestToApprovedStatus",
      "outputs": [],
      "stateMutability": "nonpayable",
      "type": "function"
    },
    {
      "inputs": [
        {
          "internalType": "string",
          "name": "_description",
          "type": "string"
        },
        {
          "components": [
            {
              "internalType": "uint256",
              "name": "_index",
              "type": "uint256"
            },
            {
              "internalType": "string",
              "name": "_name",
              "type": "string"
            },
            {
              "internalType": "string",
              "name": "_description",
              "type": "string"
            },
            {
              "internalType": "enum ProjectChain.ProjectStatus",
              "name": "_status",
              "type": "uint8"
            },
            {
              "internalType": "string",
              "name": "_ipfsFileCID",
              "type": "string"
            },
            {
              "internalType": "address",
              "name": "_projectAddress",
              "type": "address"
            },
            {
              "internalType": "address",
              "name": "_projectInitiator",
              "type": "address"
            }
          ],
          "internalType": "struct ProjectChain.Project",
          "name": "_project",
          "type": "tuple"
        }
      ],
      "name": "setProjectRequestToRejectStatus",
      "outputs": [],
      "stateMutability": "nonpayable",
      "type": "function"
    },
    {
      "inputs": [
        {
          "components": [
            {
              "internalType": "uint256",
              "name": "_index",
              "type": "uint256"
            },
            {
              "internalType": "string",
              "name": "_name",
              "type": "string"
            },
            {
              "internalType": "string",
              "name": "_description",
              "type": "string"
            },
            {
              "internalType": "enum ProjectChain.ProjectStatus",
              "name": "_status",
              "type": "uint8"
            },
            {
              "internalType": "string",
              "name": "_ipfsFileCID",
              "type": "string"
            },
            {
              "internalType": "address",
              "name": "_projectAddress",
              "type": "address"
            },
            {
              "internalType": "address",
              "name": "_projectInitiator",
              "type": "address"
            }
          ],
          "internalType": "struct ProjectChain.Project",
          "name": "_project",
          "type": "tuple"
        }
      ],
      "name": "setProjectRequestToCompletedStatus",
      "outputs": [],
      "stateMutability": "nonpayable",
      "type": "function"
    }
  ],
  "bytecode": "0x60806040526000600355600060065534801561001a57600080fd5b50336000806101000a81548173ffffffffffffffffffffffffffffffffffffffff021916908373ffffffffffffffffffffffffffffffffffffffff16021790555033600460006101000a81548173ffffffffffffffffffffffffffffffffffffffff021916908373ffffffffffffffffffffffffffffffffffffffff16021790555033600c60006101000a81548173ffffffffffffffffffffffffffffffffffffffff021916908373ffffffffffffffffffffffffffffffffffffffff16021790555061514e806100ec6000396000f3fe608060405234801561001057600080fd5b506004361061014d5760003560e01c806391009786116100c3578063c8daf7891161007c578063c8daf789146103ee578063d40d4a801461040a578063d67b1b991461043e578063e2842d791461045c578063fa9bd9a21461047a578063fe360ea5146104965761014d565b80639100978614610312578063911c29a61461032e578063a2bdedf41461034a578063a87430ba14610380578063b179e140146103b6578063bd41963a146103d25761014d565b806353b3194c1161011557806353b3194c146102065780636386c1c71461023c57806380d038291461026c578063840e78fd1461028a5780638c86a1d7146102c05780638da5cb5b146102f45761014d565b80630d2c16cb14610152578063382c21d714610182578063387b81f31461019e57806346575714146101ba57806347ee45b9146101d6575b600080fd5b61016c60048036038101906101679190613ce3565b6104b4565b6040516101799190613d6d565b60405180910390f35b61019c60048036038101906101979190613f21565b61050d565b005b6101b860048036038101906101b39190613f6a565b61062f565b005b6101d460048036038101906101cf9190613ff5565b6108c7565b005b6101f060048036038101906101eb91906140b0565b610e82565b6040516101fd91906142a4565b60405180910390f35b610220600480360381019061021b91906142c6565b611182565b604051610233979695949392919061435b565b60405180910390f35b610256600480360381019061025191906140b0565b6113b9565b60405161026391906144d8565b60405180910390f35b6102746116f5565b6040516102819190614666565b60405180910390f35b6102a4600480360381019061029f91906140b0565b6119fb565b6040516102b7979695949392919061435b565b60405180910390f35b6102da60048036038101906102d591906142c6565b611c22565b6040516102eb9594939291906146d0565b60405180910390f35b6102fc611fbe565b6040516103099190613d6d565b60405180910390f35b61032c60048036038101906103279190614731565b611fe2565b005b61034860048036038101906103439190614771565b612109565b005b610364600480360381019061035f91906142c6565b612677565b604051610377979695949392919061487d565b60405180910390f35b61039a600480360381019061039591906140b0565b612916565b6040516103ad979695949392919061487d565b60405180910390f35b6103d060048036038101906103cb9190613f6a565b612ba5565b005b6103ec60048036038101906103e79190613f21565b612e3d565b005b61040860048036038101906104039190614908565b612f5f565b005b610424600480360381019061041f91906142c6565b613084565b6040516104359594939291906146d0565b60405180910390f35b610446613420565b6040516104539190614980565b60405180910390f35b610464613426565b6040516104719190614b0e565b60405180910390f35b610494600480360381019061048f9190613f6a565b613768565b005b61049e613a00565b6040516104ab9190614980565b60405180910390f35b600081600460009054906101000a900473ffffffffffffffffffffffffffffffffffffffff16426040516020016104ed93929190614bd5565b6040516020818303038152906040528051906020012060001c9050919050565b3373ffffffffffffffffffffffffffffffffffffffff16600c60009054906101000a900473ffffffffffffffffffffffffffffffffffffffff1673ffffffffffffffffffffffffffffffffffffffff161461059d576040517f08c379a000000000000000000000000000000000000000000000000000000000815260040161059490614c5a565b60405180910390fd5b6001816060019060058111156105b6576105b5614174565b5b908160058111156105ca576105c9614174565b5b815250507f7802da79f4586113929d9f6deb51ae97e3ba37f823125cb84d244cadf89ffb2f600182600c60009054906101000a900473ffffffffffffffffffffffffffffffffffffffff1660405161062493929190614c7a565b60405180910390a150565b6000600581111561064357610642614174565b5b8260600151600581111561065a57610659614174565b5b1461069a576040517f08c379a000000000000000000000000000000000000000000000000000000000815260040161069190614d2a565b60405180910390fd5b600060096000600b5481526020019081526020016000209050838160010190805190602001906106cb929190613a06565b5060008160020160006101000a81548160ff021916908360018111156106f4576106f3614174565b5b02179055508281600301600082015181600001556020820151816001019080519060200190610724929190613a06565b506040820151816002019080519060200190610741929190613a06565b5060608201518160030160006101000a81548160ff0219169083600581111561076d5761076c614174565b5b0217905550608082015181600401908051906020019061078e929190613a06565b5060a08201518160050160006101000a81548173ffffffffffffffffffffffffffffffffffffffff021916908373ffffffffffffffffffffffffffffffffffffffff16021790555060c08201518160060160006101000a81548173ffffffffffffffffffffffffffffffffffffffff021916908373ffffffffffffffffffffffffffffffffffffffff1602179055509050508181600a0160006101000a81548173ffffffffffffffffffffffffffffffffffffffff021916908373ffffffffffffffffffffffffffffffffffffffff1602179055507f33c92d8d5321f326b7d8ea72d246102a87d3a90cd054dd73f9f838d15d563922600b546000858660600151866040516108a1959493929190614d4a565b60405180910390a1600b60008154809291906108bc90614dd3565b919050555050505050565b60006109076040518060400160405280601a81526020017f6373643f534073616c61733b646c413233345f442e3b735f61730000000000008152506104b4565b9050600654600560008373ffffffffffffffffffffffffffffffffffffffff1673ffffffffffffffffffffffffffffffffffffffff1681526020019081526020016000206000018190555084600560008373ffffffffffffffffffffffffffffffffffffffff1673ffffffffffffffffffffffffffffffffffffffff16815260200190815260200160002060010190805190602001906109a8929190613a06565b5083600560008373ffffffffffffffffffffffffffffffffffffffff1673ffffffffffffffffffffffffffffffffffffffff16815260200190815260200160002060020190805190602001906109ff929190613a06565b50826005811115610a1357610a12614174565b5b600560008373ffffffffffffffffffffffffffffffffffffffff1673ffffffffffffffffffffffffffffffffffffffff16815260200190815260200160002060030160006101000a81548160ff02191690836005811115610a7757610a76614174565b5b021790555081600560008373ffffffffffffffffffffffffffffffffffffffff1673ffffffffffffffffffffffffffffffffffffffff1681526020019081526020016000206004019080519060200190610ad2929190613a06565b5080600560008373ffffffffffffffffffffffffffffffffffffffff1673ffffffffffffffffffffffffffffffffffffffff16815260200190815260200160002060050160006101000a81548173ffffffffffffffffffffffffffffffffffffffff021916908373ffffffffffffffffffffffffffffffffffffffff160217905550600460009054906101000a900473ffffffffffffffffffffffffffffffffffffffff16600560008373ffffffffffffffffffffffffffffffffffffffff1673ffffffffffffffffffffffffffffffffffffffff16815260200190815260200160002060060160006101000a81548173ffffffffffffffffffffffffffffffffffffffff021916908373ffffffffffffffffffffffffffffffffffffffff1602179055507f26dcd90797c08da6e2f8f632e15a194aa091dfdbda0db17125d4ab5bece391d56006548686866005811115610c3057610c2f614174565b5b8686600460009054906101000a900473ffffffffffffffffffffffffffffffffffffffff16604051610c68979695949392919061435b565b60405180910390a160076040518060e001604052806006548152602001878152602001868152602001856005811115610ca457610ca3614174565b5b6005811115610cb657610cb5614174565b5b81526020018481526020018373ffffffffffffffffffffffffffffffffffffffff168152602001600460009054906101000a900473ffffffffffffffffffffffffffffffffffffffff1673ffffffffffffffffffffffffffffffffffffffff168152509080600181540180825580915050600190039060005260206000209060070201600090919091909150600082015181600001556020820151816001019080519060200190610d68929190613a06565b506040820151816002019080519060200190610d85929190613a06565b5060608201518160030160006101000a81548160ff02191690836005811115610db157610db0614174565b5b02179055506080820151816004019080519060200190610dd2929190613a06565b5060a08201518160050160006101000a81548173ffffffffffffffffffffffffffffffffffffffff021916908373ffffffffffffffffffffffffffffffffffffffff16021790555060c08201518160060160006101000a81548173ffffffffffffffffffffffffffffffffffffffff021916908373ffffffffffffffffffffffffffffffffffffffff160217905550505060066000815480929190610e7690614dd3565b91905055505050505050565b610e8a613a8c565b600560008373ffffffffffffffffffffffffffffffffffffffff1673ffffffffffffffffffffffffffffffffffffffff1681526020019081526020016000206040518060e001604052908160008201548152602001600182018054610eee90614e4b565b80601f0160208091040260200160405190810160405280929190818152602001828054610f1a90614e4b565b8015610f675780601f10610f3c57610100808354040283529160200191610f67565b820191906000526020600020905b815481529060010190602001808311610f4a57829003601f168201915b50505050508152602001600282018054610f8090614e4b565b80601f0160208091040260200160405190810160405280929190818152602001828054610fac90614e4b565b8015610ff95780601f10610fce57610100808354040283529160200191610ff9565b820191906000526020600020905b815481529060010190602001808311610fdc57829003601f168201915b505050505081526020016003820160009054906101000a900460ff16600581111561102757611026614174565b5b600581111561103957611038614174565b5b815260200160048201805461104d90614e4b565b80601f016020809104026020016040519081016040528092919081815260200182805461107990614e4b565b80156110c65780601f1061109b576101008083540402835291602001916110c6565b820191906000526020600020905b8154815290600101906020018083116110a957829003601f168201915b505050505081526020016005820160009054906101000a900473ffffffffffffffffffffffffffffffffffffffff1673ffffffffffffffffffffffffffffffffffffffff1673ffffffffffffffffffffffffffffffffffffffff1681526020016006820160009054906101000a900473ffffffffffffffffffffffffffffffffffffffff1673ffffffffffffffffffffffffffffffffffffffff1673ffffffffffffffffffffffffffffffffffffffff16815250509050919050565b6007818154811061119257600080fd5b90600052602060002090600702016000915090508060000154908060010180546111bb90614e4b565b80601f01602080910402602001604051908101604052809291908181526020018280546111e790614e4b565b80156112345780601f1061120957610100808354040283529160200191611234565b820191906000526020600020905b81548152906001019060200180831161121757829003601f168201915b50505050509080600201805461124990614e4b565b80601f016020809104026020016040519081016040528092919081815260200182805461127590614e4b565b80156112c25780601f10611297576101008083540402835291602001916112c2565b820191906000526020600020905b8154815290600101906020018083116112a557829003601f168201915b5050505050908060030160009054906101000a900460ff16908060040180546112ea90614e4b565b80601f016020809104026020016040519081016040528092919081815260200182805461131690614e4b565b80156113635780601f1061133857610100808354040283529160200191611363565b820191906000526020600020905b81548152906001019060200180831161134657829003601f168201915b5050505050908060050160009054906101000a900473ffffffffffffffffffffffffffffffffffffffff16908060060160009054906101000a900473ffffffffffffffffffffffffffffffffffffffff16905087565b6113c1613b07565b600160008373ffffffffffffffffffffffffffffffffffffffff1673ffffffffffffffffffffffffffffffffffffffff1681526020019081526020016000206040518060e00160405290816000820154815260200160018201805461142590614e4b565b80601f016020809104026020016040519081016040528092919081815260200182805461145190614e4b565b801561149e5780601f106114735761010080835404028352916020019161149e565b820191906000526020600020905b81548152906001019060200180831161148157829003601f168201915b505050505081526020016002820180546114b790614e4b565b80601f01602080910402602001604051908101604052809291908181526020018280546114e390614e4b565b80156115305780601f1061150557610100808354040283529160200191611530565b820191906000526020600020905b81548152906001019060200180831161151357829003601f168201915b5050505050815260200160038201805461154990614e4b565b80601f016020809104026020016040519081016040528092919081815260200182805461157590614e4b565b80156115c25780601f10611597576101008083540402835291602001916115c2565b820191906000526020600020905b8154815290600101906020018083116115a557829003601f168201915b505050505081526020016004820180546115db90614e4b565b80601f016020809104026020016040519081016040528092919081815260200182805461160790614e4b565b80156116545780601f1061162957610100808354040283529160200191611654565b820191906000526020600020905b81548152906001019060200180831161163757829003601f168201915b505050505081526020016005820160009054906101000a900460ff16600381111561168257611681614174565b5b600381111561169457611693614174565b5b81526020016005820160019054906101000a900473ffffffffffffffffffffffffffffffffffffffff1673ffffffffffffffffffffffffffffffffffffffff1673ffffffffffffffffffffffffffffffffffffffff16815250509050919050565b60606007805480602002602001604051908101604052809291908181526020016000905b828210156119f257838290600052602060002090600702016040518060e00160405290816000820154815260200160018201805461175690614e4b565b80601f016020809104026020016040519081016040528092919081815260200182805461178290614e4b565b80156117cf5780601f106117a4576101008083540402835291602001916117cf565b820191906000526020600020905b8154815290600101906020018083116117b257829003601f168201915b505050505081526020016002820180546117e890614e4b565b80601f016020809104026020016040519081016040528092919081815260200182805461181490614e4b565b80156118615780601f1061183657610100808354040283529160200191611861565b820191906000526020600020905b81548152906001019060200180831161184457829003601f168201915b505050505081526020016003820160009054906101000a900460ff16600581111561188f5761188e614174565b5b60058111156118a1576118a0614174565b5b81526020016004820180546118b590614e4b565b80601f01602080910402602001604051908101604052809291908181526020018280546118e190614e4b565b801561192e5780601f106119035761010080835404028352916020019161192e565b820191906000526020600020905b81548152906001019060200180831161191157829003601f168201915b505050505081526020016005820160009054906101000a900473ffffffffffffffffffffffffffffffffffffffff1673ffffffffffffffffffffffffffffffffffffffff1673ffffffffffffffffffffffffffffffffffffffff1681526020016006820160009054906101000a900473ffffffffffffffffffffffffffffffffffffffff1673ffffffffffffffffffffffffffffffffffffffff1673ffffffffffffffffffffffffffffffffffffffff168152505081526020019060010190611719565b50505050905090565b6005602052806000526040600020600091509050806000015490806001018054611a2490614e4b565b80601f0160208091040260200160405190810160405280929190818152602001828054611a5090614e4b565b8015611a9d5780601f10611a7257610100808354040283529160200191611a9d565b820191906000526020600020905b815481529060010190602001808311611a8057829003601f168201915b505050505090806002018054611ab290614e4b565b80601f0160208091040260200160405190810160405280929190818152602001828054611ade90614e4b565b8015611b2b5780601f10611b0057610100808354040283529160200191611b2b565b820191906000526020600020905b815481529060010190602001808311611b0e57829003601f168201915b5050505050908060030160009054906101000a900460ff1690806004018054611b5390614e4b565b80601f0160208091040260200160405190810160405280929190818152602001828054611b7f90614e4b565b8015611bcc5780601f10611ba157610100808354040283529160200191611bcc565b820191906000526020600020905b815481529060010190602001808311611baf57829003601f168201915b5050505050908060050160009054906101000a900473ffffffffffffffffffffffffffffffffffffffff16908060060160009054906101000a900473ffffffffffffffffffffffffffffffffffffffff16905087565b6009602052806000526040600020600091509050806000015490806001018054611c4b90614e4b565b80601f0160208091040260200160405190810160405280929190818152602001828054611c7790614e4b565b8015611cc45780601f10611c9957610100808354040283529160200191611cc4565b820191906000526020600020905b815481529060010190602001808311611ca757829003601f168201915b5050505050908060020160009054906101000a900460ff1690806003016040518060e001604052908160008201548152602001600182018054611d0690614e4b565b80601f0160208091040260200160405190810160405280929190818152602001828054611d3290614e4b565b8015611d7f5780601f10611d5457610100808354040283529160200191611d7f565b820191906000526020600020905b815481529060010190602001808311611d6257829003601f168201915b50505050508152602001600282018054611d9890614e4b565b80601f0160208091040260200160405190810160405280929190818152602001828054611dc490614e4b565b8015611e115780601f10611de657610100808354040283529160200191611e11565b820191906000526020600020905b815481529060010190602001808311611df457829003601f168201915b505050505081526020016003820160009054906101000a900460ff166005811115611e3f57611e3e614174565b5b6005811115611e5157611e50614174565b5b8152602001600482018054611e6590614e4b565b80601f0160208091040260200160405190810160405280929190818152602001828054611e9190614e4b565b8015611ede5780601f10611eb357610100808354040283529160200191611ede565b820191906000526020600020905b815481529060010190602001808311611ec157829003601f168201915b505050505081526020016005820160009054906101000a900473ffffffffffffffffffffffffffffffffffffffff1673ffffffffffffffffffffffffffffffffffffffff1673ffffffffffffffffffffffffffffffffffffffff1681526020016006820160009054906101000a900473ffffffffffffffffffffffffffffffffffffffff1673ffffffffffffffffffffffffffffffffffffffff1673ffffffffffffffffffffffffffffffffffffffff16815250509080600a0160009054906101000a900473ffffffffffffffffffffffffffffffffffffffff16905085565b60008054906101000a900473ffffffffffffffffffffffffffffffffffffffff1681565b816003811115611ff557611ff4614174565b5b600160008373ffffffffffffffffffffffffffffffffffffffff1673ffffffffffffffffffffffffffffffffffffffff16815260200190815260200160002060050160006101000a81548160ff0219169083600381111561205957612058614174565b5b02179055506000600160008373ffffffffffffffffffffffffffffffffffffffff1673ffffffffffffffffffffffffffffffffffffffff1681526020019081526020016000206000015490508260038111156120b8576120b7614174565b5b600282815481106120cc576120cb614e7d565b5b906000526020600020906006020160050160006101000a81548160ff021916908360038111156120ff576120fe614174565b5b0217905550505050565b3373ffffffffffffffffffffffffffffffffffffffff1660008054906101000a900473ffffffffffffffffffffffffffffffffffffffff1673ffffffffffffffffffffffffffffffffffffffff1614612197576040517f08c379a000000000000000000000000000000000000000000000000000000000815260040161218e90614ef8565b60405180910390fd5b600354600160008373ffffffffffffffffffffffffffffffffffffffff1673ffffffffffffffffffffffffffffffffffffffff1681526020019081526020016000206000018190555085600160008373ffffffffffffffffffffffffffffffffffffffff1673ffffffffffffffffffffffffffffffffffffffff1681526020019081526020016000206001019080519060200190612236929190613a06565b5084600160008373ffffffffffffffffffffffffffffffffffffffff1673ffffffffffffffffffffffffffffffffffffffff168152602001908152602001600020600201908051906020019061228d929190613a06565b5083600160008373ffffffffffffffffffffffffffffffffffffffff1673ffffffffffffffffffffffffffffffffffffffff16815260200190815260200160002060030190805190602001906122e4929190613a06565b5082600160008373ffffffffffffffffffffffffffffffffffffffff1673ffffffffffffffffffffffffffffffffffffffff168152602001908152602001600020600401908051906020019061233b929190613a06565b5081600381111561234f5761234e614174565b5b600160008373ffffffffffffffffffffffffffffffffffffffff1673ffffffffffffffffffffffffffffffffffffffff16815260200190815260200160002060050160006101000a81548160ff021916908360038111156123b3576123b2614174565b5b021790555080600160008373ffffffffffffffffffffffffffffffffffffffff1673ffffffffffffffffffffffffffffffffffffffff16815260200190815260200160002060050160016101000a81548173ffffffffffffffffffffffffffffffffffffffff021916908373ffffffffffffffffffffffffffffffffffffffff16021790555081600381111561244c5761244b614174565b5b600381111561245e5761245d614174565b5b8660405161246c9190614f18565b60405180910390208273ffffffffffffffffffffffffffffffffffffffff167fddb5d1667467713eb503e7e133811c91a231cb6b63f11930889c6004f36c35ee8888886040516124be93929190614f2f565b60405180910390a460026040518060e00160405280600354815260200188815260200187815260200186815260200185815260200184600381111561250657612505614174565b5b600381111561251857612517614174565b5b81526020018373ffffffffffffffffffffffffffffffffffffffff168152509080600181540180825580915050600190039060005260206000209060060201600090919091909150600082015181600001556020820151816001019080519060200190612586929190613a06565b5060408201518160020190805190602001906125a3929190613a06565b5060608201518160030190805190602001906125c0929190613a06565b5060808201518160040190805190602001906125dd929190613a06565b5060a08201518160050160006101000a81548160ff0219169083600381111561260957612608614174565b5b021790555060c08201518160050160016101000a81548173ffffffffffffffffffffffffffffffffffffffff021916908373ffffffffffffffffffffffffffffffffffffffff16021790555050506003600081548092919061266a90614dd3565b9190505550505050505050565b6002818154811061268757600080fd5b90600052602060002090600602016000915090508060000154908060010180546126b090614e4b565b80601f01602080910402602001604051908101604052809291908181526020018280546126dc90614e4b565b80156127295780601f106126fe57610100808354040283529160200191612729565b820191906000526020600020905b81548152906001019060200180831161270c57829003601f168201915b50505050509080600201805461273e90614e4b565b80601f016020809104026020016040519081016040528092919081815260200182805461276a90614e4b565b80156127b75780601f1061278c576101008083540402835291602001916127b7565b820191906000526020600020905b81548152906001019060200180831161279a57829003601f168201915b5050505050908060030180546127cc90614e4b565b80601f01602080910402602001604051908101604052809291908181526020018280546127f890614e4b565b80156128455780601f1061281a57610100808354040283529160200191612845565b820191906000526020600020905b81548152906001019060200180831161282857829003601f168201915b50505050509080600401805461285a90614e4b565b80601f016020809104026020016040519081016040528092919081815260200182805461288690614e4b565b80156128d35780601f106128a8576101008083540402835291602001916128d3565b820191906000526020600020905b8154815290600101906020018083116128b657829003601f168201915b5050505050908060050160009054906101000a900460ff16908060050160019054906101000a900473ffffffffffffffffffffffffffffffffffffffff16905087565b600160205280600052604060002060009150905080600001549080600101805461293f90614e4b565b80601f016020809104026020016040519081016040528092919081815260200182805461296b90614e4b565b80156129b85780601f1061298d576101008083540402835291602001916129b8565b820191906000526020600020905b81548152906001019060200180831161299b57829003601f168201915b5050505050908060020180546129cd90614e4b565b80601f01602080910402602001604051908101604052809291908181526020018280546129f990614e4b565b8015612a465780601f10612a1b57610100808354040283529160200191612a46565b820191906000526020600020905b815481529060010190602001808311612a2957829003601f168201915b505050505090806003018054612a5b90614e4b565b80601f0160208091040260200160405190810160405280929190818152602001828054612a8790614e4b565b8015612ad45780601f10612aa957610100808354040283529160200191612ad4565b820191906000526020600020905b815481529060010190602001808311612ab757829003601f168201915b505050505090806004018054612ae990614e4b565b80601f0160208091040260200160405190810160405280929190818152602001828054612b1590614e4b565b8015612b625780601f10612b3757610100808354040283529160200191612b62565b820191906000526020600020905b815481529060010190602001808311612b4557829003601f168201915b5050505050908060050160009054906101000a900460ff16908060050160019054906101000a900473ffffffffffffffffffffffffffffffffffffffff16905087565b60046005811115612bb957612bb8614174565b5b82606001516005811115612bd057612bcf614174565b5b14612c10576040517f08c379a0000000000000000000000000000000000000000000000000000000008152600401612c0790615013565b60405180910390fd5b600060096000600b548152602001908152602001600020905083816001019080519060200190612c41929190613a06565b5060008160020160006101000a81548160ff02191690836001811115612c6a57612c69614174565b5b02179055508281600301600082015181600001556020820151816001019080519060200190612c9a929190613a06565b506040820151816002019080519060200190612cb7929190613a06565b5060608201518160030160006101000a81548160ff02191690836005811115612ce357612ce2614174565b5b02179055506080820151816004019080519060200190612d04929190613a06565b5060a08201518160050160006101000a81548173ffffffffffffffffffffffffffffffffffffffff021916908373ffffffffffffffffffffffffffffffffffffffff16021790555060c08201518160060160006101000a81548173ffffffffffffffffffffffffffffffffffffffff021916908373ffffffffffffffffffffffffffffffffffffffff1602179055509050508181600a0160006101000a81548173ffffffffffffffffffffffffffffffffffffffff021916908373ffffffffffffffffffffffffffffffffffffffff1602179055507f33c92d8d5321f326b7d8ea72d246102a87d3a90cd054dd73f9f838d15d563922600b54600085866060015186604051612e17959493929190614d4a565b60405180910390a1600b6000815480929190612e3290614dd3565b919050555050505050565b3373ffffffffffffffffffffffffffffffffffffffff16600c60009054906101000a900473ffffffffffffffffffffffffffffffffffffffff1673ffffffffffffffffffffffffffffffffffffffff1614612ecd576040517f08c379a0000000000000000000000000000000000000000000000000000000008152600401612ec490614c5a565b60405180910390fd5b600581606001906005811115612ee657612ee5614174565b5b90816005811115612efa57612ef9614174565b5b815250507ffc406fc2b1da6d50c43c74c29104af32a48aa31b9d43da3a7542356b0ccd258f600582600c60009054906101000a900473ffffffffffffffffffffffffffffffffffffffff16604051612f5493929190614c7a565b60405180910390a150565b3373ffffffffffffffffffffffffffffffffffffffff16600c60009054906101000a900473ffffffffffffffffffffffffffffffffffffffff1673ffffffffffffffffffffffffffffffffffffffff1614612fef576040517f08c379a0000000000000000000000000000000000000000000000000000000008152600401612fe690614c5a565b60405180910390fd5b60028160600190600581111561300857613007614174565b5b9081600581111561301c5761301b614174565b5b815250507fb1b5da576c8f01a437b111e4b1b89cd913a2ef579be0df6ff04dc7433664e1e882600183600c60009054906101000a900473ffffffffffffffffffffffffffffffffffffffff166040516130789493929190615033565b60405180910390a15050565b60086020528060005260406000206000915090508060000154908060010180546130ad90614e4b565b80601f01602080910402602001604051908101604052809291908181526020018280546130d990614e4b565b80156131265780601f106130fb57610100808354040283529160200191613126565b820191906000526020600020905b81548152906001019060200180831161310957829003601f168201915b5050505050908060020160009054906101000a900460ff1690806003016040518060e00160405290816000820154815260200160018201805461316890614e4b565b80601f016020809104026020016040519081016040528092919081815260200182805461319490614e4b565b80156131e15780601f106131b6576101008083540402835291602001916131e1565b820191906000526020600020905b8154815290600101906020018083116131c457829003601f168201915b505050505081526020016002820180546131fa90614e4b565b80601f016020809104026020016040519081016040528092919081815260200182805461322690614e4b565b80156132735780601f1061324857610100808354040283529160200191613273565b820191906000526020600020905b81548152906001019060200180831161325657829003601f168201915b505050505081526020016003820160009054906101000a900460ff1660058111156132a1576132a0614174565b5b60058111156132b3576132b2614174565b5b81526020016004820180546132c790614e4b565b80601f01602080910402602001604051908101604052809291908181526020018280546132f390614e4b565b80156133405780601f1061331557610100808354040283529160200191613340565b820191906000526020600020905b81548152906001019060200180831161332357829003601f168201915b505050505081526020016005820160009054906101000a900473ffffffffffffffffffffffffffffffffffffffff1673ffffffffffffffffffffffffffffffffffffffff1673ffffffffffffffffffffffffffffffffffffffff1681526020016006820160009054906101000a900473ffffffffffffffffffffffffffffffffffffffff1673ffffffffffffffffffffffffffffffffffffffff1673ffffffffffffffffffffffffffffffffffffffff16815250509080600a0160009054906101000a900473ffffffffffffffffffffffffffffffffffffffff16905085565b60035481565b60606002805480602002602001604051908101604052809291908181526020016000905b8282101561375f57838290600052602060002090600602016040518060e00160405290816000820154815260200160018201805461348790614e4b565b80601f01602080910402602001604051908101604052809291908181526020018280546134b390614e4b565b80156135005780601f106134d557610100808354040283529160200191613500565b820191906000526020600020905b8154815290600101906020018083116134e357829003601f168201915b5050505050815260200160028201805461351990614e4b565b80601f016020809104026020016040519081016040528092919081815260200182805461354590614e4b565b80156135925780601f1061356757610100808354040283529160200191613592565b820191906000526020600020905b81548152906001019060200180831161357557829003601f168201915b505050505081526020016003820180546135ab90614e4b565b80601f01602080910402602001604051908101604052809291908181526020018280546135d790614e4b565b80156136245780601f106135f957610100808354040283529160200191613624565b820191906000526020600020905b81548152906001019060200180831161360757829003601f168201915b5050505050815260200160048201805461363d90614e4b565b80601f016020809104026020016040519081016040528092919081815260200182805461366990614e4b565b80156136b65780601f1061368b576101008083540402835291602001916136b6565b820191906000526020600020905b81548152906001019060200180831161369957829003601f168201915b505050505081526020016005820160009054906101000a900460ff1660038111156136e4576136e3614174565b5b60038111156136f6576136f5614174565b5b81526020016005820160019054906101000a900473ffffffffffffffffffffffffffffffffffffffff1673ffffffffffffffffffffffffffffffffffffffff1673ffffffffffffffffffffffffffffffffffffffff16815250508152602001906001019061344a565b50505050905090565b6001600581111561377c5761377b614174565b5b8260600151600581111561379357613792614174565b5b146137d3576040517f08c379a00000000000000000000000000000000000000000000000000000000081526004016137ca906150f8565b60405180910390fd5b600060086000600a548152602001908152602001600020905083816001019080519060200190613804929190613a06565b5060008160020160006101000a81548160ff0219169083600181111561382d5761382c614174565b5b0217905550828160030160008201518160000155602082015181600101908051906020019061385d929190613a06565b50604082015181600201908051906020019061387a929190613a06565b5060608201518160030160006101000a81548160ff021916908360058111156138a6576138a5614174565b5b021790555060808201518160040190805190602001906138c7929190613a06565b5060a08201518160050160006101000a81548173ffffffffffffffffffffffffffffffffffffffff021916908373ffffffffffffffffffffffffffffffffffffffff16021790555060c08201518160060160006101000a81548173ffffffffffffffffffffffffffffffffffffffff021916908373ffffffffffffffffffffffffffffffffffffffff1602179055509050508181600a0160006101000a81548173ffffffffffffffffffffffffffffffffffffffff021916908373ffffffffffffffffffffffffffffffffffffffff1602179055507fd1e03eeb3d8ec297426fd80db06effebb2b279248ffa875069c1dc83489c449b600a546000858660600151866040516139da959493929190614d4a565b60405180910390a1600a60008154809291906139f590614dd3565b919050555050505050565b60065481565b828054613a1290614e4b565b90600052602060002090601f016020900481019282613a345760008555613a7b565b82601f10613a4d57805160ff1916838001178555613a7b565b82800160010185558215613a7b579182015b82811115613a7a578251825591602001919060010190613a5f565b5b509050613a889190613b6c565b5090565b6040518060e0016040528060008152602001606081526020016060815260200160006005811115613ac057613abf614174565b5b815260200160608152602001600073ffffffffffffffffffffffffffffffffffffffff168152602001600073ffffffffffffffffffffffffffffffffffffffff1681525090565b6040518060e00160405280600081526020016060815260200160608152602001606081526020016060815260200160006003811115613b4957613b48614174565b5b8152602001600073ffffffffffffffffffffffffffffffffffffffff1681525090565b5b80821115613b85576000816000905550600101613b6d565b5090565b6000604051905090565b600080fd5b600080fd5b600080fd5b600080fd5b6000601f19601f8301169050919050565b7f4e487b7100000000000000000000000000000000000000000000000000000000600052604160045260246000fd5b613bf082613ba7565b810181811067ffffffffffffffff82111715613c0f57613c0e613bb8565b5b80604052505050565b6000613c22613b89565b9050613c2e8282613be7565b919050565b600067ffffffffffffffff821115613c4e57613c4d613bb8565b5b613c5782613ba7565b9050602081019050919050565b82818337600083830152505050565b6000613c86613c8184613c33565b613c18565b905082815260208101848484011115613ca257613ca1613ba2565b5b613cad848285613c64565b509392505050565b600082601f830112613cca57613cc9613b9d565b5b8135613cda848260208601613c73565b91505092915050565b600060208284031215613cf957613cf8613b93565b5b600082013567ffffffffffffffff811115613d1757613d16613b98565b5b613d2384828501613cb5565b91505092915050565b600073ffffffffffffffffffffffffffffffffffffffff82169050919050565b6000613d5782613d2c565b9050919050565b613d6781613d4c565b82525050565b6000602082019050613d826000830184613d5e565b92915050565b600080fd5b600080fd5b6000819050919050565b613da581613d92565b8114613db057600080fd5b50565b600081359050613dc281613d9c565b92915050565b60068110613dd557600080fd5b50565b600081359050613de781613dc8565b92915050565b613df681613d4c565b8114613e0157600080fd5b50565b600081359050613e1381613ded565b92915050565b600060e08284031215613e2f57613e2e613d88565b5b613e3960e0613c18565b90506000613e4984828501613db3565b600083015250602082013567ffffffffffffffff811115613e6d57613e6c613d8d565b5b613e7984828501613cb5565b602083015250604082013567ffffffffffffffff811115613e9d57613e9c613d8d565b5b613ea984828501613cb5565b6040830152506060613ebd84828501613dd8565b606083015250608082013567ffffffffffffffff811115613ee157613ee0613d8d565b5b613eed84828501613cb5565b60808301525060a0613f0184828501613e04565b60a08301525060c0613f1584828501613e04565b60c08301525092915050565b600060208284031215613f3757613f36613b93565b5b600082013567ffffffffffffffff811115613f5557613f54613b98565b5b613f6184828501613e19565b91505092915050565b600080600060608486031215613f8357613f82613b93565b5b600084013567ffffffffffffffff811115613fa157613fa0613b98565b5b613fad86828701613cb5565b935050602084013567ffffffffffffffff811115613fce57613fcd613b98565b5b613fda86828701613e19565b9250506040613feb86828701613e04565b9150509250925092565b6000806000806080858703121561400f5761400e613b93565b5b600085013567ffffffffffffffff81111561402d5761402c613b98565b5b61403987828801613cb5565b945050602085013567ffffffffffffffff81111561405a57614059613b98565b5b61406687828801613cb5565b935050604061407787828801613db3565b925050606085013567ffffffffffffffff81111561409857614097613b98565b5b6140a487828801613cb5565b91505092959194509250565b6000602082840312156140c6576140c5613b93565b5b60006140d484828501613e04565b91505092915050565b6140e681613d92565b82525050565b600081519050919050565b600082825260208201905092915050565b60005b8381101561412657808201518184015260208101905061410b565b83811115614135576000848401525b50505050565b6000614146826140ec565b61415081856140f7565b9350614160818560208601614108565b61416981613ba7565b840191505092915050565b7f4e487b7100000000000000000000000000000000000000000000000000000000600052602160045260246000fd5b600681106141b4576141b3614174565b5b50565b60008190506141c5826141a3565b919050565b60006141d5826141b7565b9050919050565b6141e5816141ca565b82525050565b6141f481613d4c565b82525050565b600060e08301600083015161421260008601826140dd565b506020830151848203602086015261422a828261413b565b91505060408301518482036040860152614244828261413b565b915050606083015161425960608601826141dc565b5060808301518482036080860152614271828261413b565b91505060a083015161428660a08601826141eb565b5060c083015161429960c08601826141eb565b508091505092915050565b600060208201905081810360008301526142be81846141fa565b905092915050565b6000602082840312156142dc576142db613b93565b5b60006142ea84828501613db3565b91505092915050565b6142fc81613d92565b82525050565b600082825260208201905092915050565b600061431e826140ec565b6143288185614302565b9350614338818560208601614108565b61434181613ba7565b840191505092915050565b614355816141ca565b82525050565b600060e082019050614370600083018a6142f3565b81810360208301526143828189614313565b905081810360408301526143968188614313565b90506143a5606083018761434c565b81810360808301526143b78186614313565b90506143c660a0830185613d5e565b6143d360c0830184613d5e565b98975050505050505050565b600481106143f0576143ef614174565b5b50565b6000819050614401826143df565b919050565b6000614411826143f3565b9050919050565b61442181614406565b82525050565b600060e08301600083015161443f60008601826140dd565b5060208301518482036020860152614457828261413b565b91505060408301518482036040860152614471828261413b565b9150506060830151848203606086015261448b828261413b565b915050608083015184820360808601526144a5828261413b565b91505060a08301516144ba60a0860182614418565b5060c08301516144cd60c08601826141eb565b508091505092915050565b600060208201905081810360008301526144f28184614427565b905092915050565b600081519050919050565b600082825260208201905092915050565b6000819050602082019050919050565b600060e08301600083015161453e60008601826140dd565b5060208301518482036020860152614556828261413b565b91505060408301518482036040860152614570828261413b565b915050606083015161458560608601826141dc565b506080830151848203608086015261459d828261413b565b91505060a08301516145b260a08601826141eb565b5060c08301516145c560c08601826141eb565b508091505092915050565b60006145dc8383614526565b905092915050565b6000602082019050919050565b60006145fc826144fa565b6146068185614505565b93508360208202850161461885614516565b8060005b85811015614654578484038952815161463585826145d0565b9450614640836145e4565b925060208a0199505060018101905061461c565b50829750879550505050505092915050565b6000602082019050818103600083015261468081846145f1565b905092915050565b6002811061469957614698614174565b5b50565b60008190506146aa82614688565b919050565b60006146ba8261469c565b9050919050565b6146ca816146af565b82525050565b600060a0820190506146e560008301886142f3565b81810360208301526146f78187614313565b905061470660408301866146c1565b818103606083015261471881856141fa565b90506147276080830184613d5e565b9695505050505050565b6000806040838503121561474857614747613b93565b5b600061475685828601613db3565b925050602061476785828601613e04565b9150509250929050565b60008060008060008060c0878903121561478e5761478d613b93565b5b600087013567ffffffffffffffff8111156147ac576147ab613b98565b5b6147b889828a01613cb5565b965050602087013567ffffffffffffffff8111156147d9576147d8613b98565b5b6147e589828a01613cb5565b955050604087013567ffffffffffffffff81111561480657614805613b98565b5b61481289828a01613cb5565b945050606087013567ffffffffffffffff81111561483357614832613b98565b5b61483f89828a01613cb5565b935050608061485089828a01613db3565b92505060a061486189828a01613e04565b9150509295509295509295565b61487781614406565b82525050565b600060e082019050614892600083018a6142f3565b81810360208301526148a48189614313565b905081810360408301526148b88188614313565b905081810360608301526148cc8187614313565b905081810360808301526148e08186614313565b90506148ef60a083018561486e565b6148fc60c0830184613d5e565b98975050505050505050565b6000806040838503121561491f5761491e613b93565b5b600083013567ffffffffffffffff81111561493d5761493c613b98565b5b61494985828601613cb5565b925050602083013567ffffffffffffffff81111561496a57614969613b98565b5b61497685828601613e19565b9150509250929050565b600060208201905061499560008301846142f3565b92915050565b600081519050919050565b600082825260208201905092915050565b6000819050602082019050919050565b600060e0830160008301516149df60008601826140dd565b50602083015184820360208601526149f7828261413b565b91505060408301518482036040860152614a11828261413b565b91505060608301518482036060860152614a2b828261413b565b91505060808301518482036080860152614a45828261413b565b91505060a0830151614a5a60a0860182614418565b5060c0830151614a6d60c08601826141eb565b508091505092915050565b6000614a8483836149c7565b905092915050565b6000602082019050919050565b6000614aa48261499b565b614aae81856149a6565b935083602082028501614ac0856149b7565b8060005b85811015614afc5784840389528151614add8582614a78565b9450614ae883614a8c565b925060208a01995050600181019050614ac4565b50829750879550505050505092915050565b60006020820190508181036000830152614b288184614a99565b905092915050565b600081905092915050565b6000614b46826140ec565b614b508185614b30565b9350614b60818560208601614108565b80840191505092915050565b60008160601b9050919050565b6000614b8482614b6c565b9050919050565b6000614b9682614b79565b9050919050565b614bae614ba982613d4c565b614b8b565b82525050565b6000819050919050565b614bcf614bca82613d92565b614bb4565b82525050565b6000614be18286614b3b565b9150614bed8285614b9d565b601482019150614bfd8284614bbe565b602082019150819050949350505050565b7f596f7520617265206e6f7420612073757065727669736f720000000000000000600082015250565b6000614c44601883614302565b9150614c4f82614c0e565b602082019050919050565b60006020820190508181036000830152614c7381614c37565b9050919050565b6000606082019050614c8f600083018661434c565b8181036020830152614ca181856141fa565b9050614cb06040830184613d5e565b949350505050565b7f5468652070726f6a656374206973206e6f7420637265617465642c207468652060008201527f6f7065726174696f6e2063616e6e6f7420626520646f6e652e00000000000000602082015250565b6000614d14603983614302565b9150614d1f82614cb8565b604082019050919050565b60006020820190508181036000830152614d4381614d07565b9050919050565b600060a082019050614d5f60008301886142f3565b614d6c60208301876146c1565b8181036040830152614d7e81866141fa565b9050614d8d606083018561434c565b614d9a6080830184613d5e565b9695505050505050565b7f4e487b7100000000000000000000000000000000000000000000000000000000600052601160045260246000fd5b6000614dde82613d92565b91507fffffffffffffffffffffffffffffffffffffffffffffffffffffffffffffffff821415614e1157614e10614da4565b5b600182019050919050565b7f4e487b7100000000000000000000000000000000000000000000000000000000600052602260045260246000fd5b60006002820490506001821680614e6357607f821691505b60208210811415614e7757614e76614e1c565b5b50919050565b7f4e487b7100000000000000000000000000000000000000000000000000000000600052603260045260246000fd5b7f596f7520617265206e6f7420616e206f776e6572000000000000000000000000600082015250565b6000614ee2601483614302565b9150614eed82614eac565b602082019050919050565b60006020820190508181036000830152614f1181614ed5565b9050919050565b6000614f248284614b3b565b915081905092915050565b60006060820190508181036000830152614f498186614313565b90508181036020830152614f5d8185614313565b90508181036040830152614f718184614313565b9050949350505050565b7f5468652070726f6a656374206973206e6f7420696e2074686520274265666f7260008201527f6546696e616c697a6174696f6e436865636b27207374617475732c207468652060208201527f6f7065726174696f6e2063616e6e6f7420626520646f6e652e00000000000000604082015250565b6000614ffd605983614302565b915061500882614f7b565b606082019050919050565b6000602082019050818103600083015261502c81614ff0565b9050919050565b6000608082019050818103600083015261504d8187614313565b905061505c602083018661434c565b818103604083015261506e81856141fa565b905061507d6060830184613d5e565b95945050505050565b7f5468652070726f6a656374206973206e6f7420617070726f7665642c2074686560008201527f206f7065726174696f6e2063616e6e6f7420626520646f6e652e000000000000602082015250565b60006150e2603a83614302565b91506150ed82615086565b604082019050919050565b60006020820190508181036000830152615111816150d5565b905091905056fea2646970667358221220ab0065e77d413a95772a60defc3f40dcac5fa98d79c9f76ac7549d048e9fef5864736f6c634300080a0033",
  "immutableReferences": {},
  "source": "// SPDX-License-Identifier: MIT\r\npragma solidity >=0.8.0 <0.9.0;\r\n\r\nimport \"./ProjectChain.sol\";\r\n\r\ncontract Supervisor is ProjectChain {\r\n\r\n    address _supervisorAddress;\r\n\r\n    event ApproveProjectRequestBySupervisor(ProjectStatus _status, Project _project, address _subjectAddress);\r\n    event RejectProjectRequestBySupervisor(string _description, ProjectStatus _status, Project _project, address _subjectAddress);\r\n    event CompleteProjectRequestBySupervisor(ProjectStatus _status, Project _project, address _subjectAddress);\r\n\r\n    constructor() {\r\n        _supervisorAddress = msg.sender;\r\n    }\r\n\r\n    modifier onlySupervisor {\r\n        require(_supervisorAddress == msg.sender, \"You are not a supervisor\");\r\n        _;\r\n    }\r\n\r\n    // Add some contrainst / verification TOOO DOOO -> LATER\r\n\r\n    function setProjectRequestToApprovedStatus(Project memory _project) public onlySupervisor {\r\n        _project._status = ProjectStatus.Approved;\r\n        emit ApproveProjectRequestBySupervisor(ProjectStatus.Approved, _project, _supervisorAddress);\r\n    }\r\n\r\n    function setProjectRequestToRejectStatus(string memory _description, Project memory _project) public onlySupervisor {\r\n        _project._status = ProjectStatus.Rejected;\r\n        emit RejectProjectRequestBySupervisor(_description, ProjectStatus.Approved, _project, _supervisorAddress);\r\n    }\r\n\r\n    function setProjectRequestToCompletedStatus(Project memory _project)  public onlySupervisor {\r\n        _project._status = ProjectStatus.Completed;\r\n        emit CompleteProjectRequestBySupervisor(ProjectStatus.Completed, _project, _supervisorAddress);\r\n    }\r\n}\r\n",
  "sourcePath": "/mnt/c/users/beniamin/source/repos/dissertationproject/contracts/SupervisorChain.sol",
  "compiler": {
    "name": "solc",
    "version": "0.8.10+commit.fc410830.Emscripten.clang"
  },
  "schemaVersion": "3.4.3",
  "updatedAt": "2021-11-20T05:59:28.671Z",
  "devdoc": {
    "kind": "dev",
    "methods": {},
    "version": 1
  },
  "userdoc": {
    "kind": "user",
    "methods": {},
    "version": 1
  }
}