{
  "contractName": "Supervisor",
  "abi": [
    {
      "inputs": [],
      "stateMutability": "nonpayable",
      "type": "constructor"
    },
    {
      "anonymous": false,
      "inputs": [
        {
          "indexed": false,
          "internalType": "enum Project.ProjectStatus",
          "name": "_status",
          "type": "uint8"
        },
        {
          "components": [
            {
              "internalType": "uint256",
              "name": "index",
              "type": "uint256"
            },
            {
              "internalType": "string",
              "name": "name",
              "type": "string"
            },
            {
              "internalType": "string",
              "name": "description",
              "type": "string"
            },
            {
              "internalType": "enum Project.ProjectStatus",
              "name": "projectStatus",
              "type": "uint8"
            },
            {
              "internalType": "string",
              "name": "ipfsFileCID",
              "type": "string"
            }
          ],
          "indexed": false,
          "internalType": "struct Project.S_Project",
          "name": "_project",
          "type": "tuple"
        },
        {
          "indexed": false,
          "internalType": "address",
          "name": "_subjectAddress",
          "type": "address"
        }
      ],
      "name": "ApproveProjectRequestBySupervisor",
      "type": "event"
    },
    {
      "anonymous": false,
      "inputs": [
        {
          "indexed": false,
          "internalType": "enum Project.ProjectStatus",
          "name": "_status",
          "type": "uint8"
        },
        {
          "components": [
            {
              "internalType": "uint256",
              "name": "index",
              "type": "uint256"
            },
            {
              "internalType": "string",
              "name": "name",
              "type": "string"
            },
            {
              "internalType": "string",
              "name": "description",
              "type": "string"
            },
            {
              "internalType": "enum Project.ProjectStatus",
              "name": "projectStatus",
              "type": "uint8"
            },
            {
              "internalType": "string",
              "name": "ipfsFileCID",
              "type": "string"
            }
          ],
          "indexed": false,
          "internalType": "struct Project.S_Project",
          "name": "_project",
          "type": "tuple"
        },
        {
          "indexed": false,
          "internalType": "address",
          "name": "_subjectAddress",
          "type": "address"
        }
      ],
      "name": "CompleteProjectRequestBySupervisor",
      "type": "event"
    },
    {
      "anonymous": false,
      "inputs": [
        {
          "indexed": false,
          "internalType": "string",
          "name": "_name",
          "type": "string"
        },
        {
          "indexed": false,
          "internalType": "string",
          "name": "_description",
          "type": "string"
        },
        {
          "indexed": false,
          "internalType": "enum Project.ProjectStatus",
          "name": "_status",
          "type": "uint8"
        }
      ],
      "name": "CreateProject",
      "type": "event"
    },
    {
      "anonymous": false,
      "inputs": [
        {
          "indexed": false,
          "internalType": "uint256",
          "name": "index",
          "type": "uint256"
        },
        {
          "indexed": true,
          "internalType": "enum Project.ProjectStatus",
          "name": "status",
          "type": "uint8"
        },
        {
          "indexed": true,
          "internalType": "address",
          "name": "projectAddress",
          "type": "address"
        }
      ],
      "name": "ProjectStatusChanged",
      "type": "event"
    },
    {
      "anonymous": false,
      "inputs": [
        {
          "indexed": false,
          "internalType": "string",
          "name": "_description",
          "type": "string"
        },
        {
          "indexed": false,
          "internalType": "enum Project.ProjectStatus",
          "name": "_status",
          "type": "uint8"
        },
        {
          "components": [
            {
              "internalType": "uint256",
              "name": "index",
              "type": "uint256"
            },
            {
              "internalType": "string",
              "name": "name",
              "type": "string"
            },
            {
              "internalType": "string",
              "name": "description",
              "type": "string"
            },
            {
              "internalType": "enum Project.ProjectStatus",
              "name": "projectStatus",
              "type": "uint8"
            },
            {
              "internalType": "string",
              "name": "ipfsFileCID",
              "type": "string"
            }
          ],
          "indexed": false,
          "internalType": "struct Project.S_Project",
          "name": "_project",
          "type": "tuple"
        },
        {
          "indexed": false,
          "internalType": "address",
          "name": "_subjectAddress",
          "type": "address"
        }
      ],
      "name": "RejectProjectRequestBySupervisor",
      "type": "event"
    },
    {
      "anonymous": false,
      "inputs": [
        {
          "indexed": false,
          "internalType": "uint256",
          "name": "_indexRequest",
          "type": "uint256"
        },
        {
          "indexed": false,
          "internalType": "enum Project.RequestStatus",
          "name": "_status",
          "type": "uint8"
        },
        {
          "components": [
            {
              "internalType": "uint256",
              "name": "index",
              "type": "uint256"
            },
            {
              "internalType": "string",
              "name": "name",
              "type": "string"
            },
            {
              "internalType": "string",
              "name": "description",
              "type": "string"
            },
            {
              "internalType": "enum Project.ProjectStatus",
              "name": "projectStatus",
              "type": "uint8"
            },
            {
              "internalType": "string",
              "name": "ipfsFileCID",
              "type": "string"
            }
          ],
          "indexed": false,
          "internalType": "struct Project.S_Project",
          "name": "_project",
          "type": "tuple"
        },
        {
          "indexed": false,
          "internalType": "enum Project.ProjectStatus",
          "name": "_projectStatus",
          "type": "uint8"
        },
        {
          "indexed": false,
          "internalType": "address",
          "name": "_subjectAddress",
          "type": "address"
        }
      ],
      "name": "UpdateCompanyRequestStatus",
      "type": "event"
    },
    {
      "anonymous": false,
      "inputs": [
        {
          "indexed": false,
          "internalType": "uint256",
          "name": "_indexRequest",
          "type": "uint256"
        },
        {
          "indexed": false,
          "internalType": "enum Project.RequestStatus",
          "name": "_status",
          "type": "uint8"
        },
        {
          "components": [
            {
              "internalType": "uint256",
              "name": "index",
              "type": "uint256"
            },
            {
              "internalType": "string",
              "name": "name",
              "type": "string"
            },
            {
              "internalType": "string",
              "name": "description",
              "type": "string"
            },
            {
              "internalType": "enum Project.ProjectStatus",
              "name": "projectStatus",
              "type": "uint8"
            },
            {
              "internalType": "string",
              "name": "ipfsFileCID",
              "type": "string"
            }
          ],
          "indexed": false,
          "internalType": "struct Project.S_Project",
          "name": "_project",
          "type": "tuple"
        },
        {
          "indexed": false,
          "internalType": "enum Project.ProjectStatus",
          "name": "_projectStatus",
          "type": "uint8"
        },
        {
          "indexed": false,
          "internalType": "address",
          "name": "_subjectAddress",
          "type": "address"
        }
      ],
      "name": "UpdateSupervisorRequestStatus",
      "type": "event"
    },
    {
      "anonymous": false,
      "inputs": [
        {
          "indexed": false,
          "internalType": "string",
          "name": "username",
          "type": "string"
        },
        {
          "indexed": false,
          "internalType": "string",
          "name": "firstname",
          "type": "string"
        },
        {
          "indexed": false,
          "internalType": "string",
          "name": "lastname",
          "type": "string"
        },
        {
          "indexed": false,
          "internalType": "string",
          "name": "email",
          "type": "string"
        },
        {
          "indexed": false,
          "internalType": "enum User.Roles",
          "name": "role",
          "type": "uint8"
        },
        {
          "indexed": false,
          "internalType": "address",
          "name": "walletAddress",
          "type": "address"
        }
      ],
      "name": "UserChanges",
      "type": "event"
    },
    {
      "anonymous": false,
      "inputs": [
        {
          "indexed": true,
          "internalType": "address",
          "name": "_walletAddress",
          "type": "address"
        },
        {
          "indexed": true,
          "internalType": "string",
          "name": "_username",
          "type": "string"
        },
        {
          "indexed": false,
          "internalType": "string",
          "name": "_email",
          "type": "string"
        },
        {
          "indexed": false,
          "internalType": "string",
          "name": "_firstname",
          "type": "string"
        },
        {
          "indexed": false,
          "internalType": "string",
          "name": "_lastname",
          "type": "string"
        },
        {
          "indexed": true,
          "internalType": "enum User.Roles",
          "name": "_role",
          "type": "uint8"
        }
      ],
      "name": "UserRegistered",
      "type": "event"
    },
    {
      "inputs": [
        {
          "internalType": "uint256",
          "name": "",
          "type": "uint256"
        }
      ],
      "name": "allProjects",
      "outputs": [
        {
          "internalType": "uint256",
          "name": "index",
          "type": "uint256"
        },
        {
          "internalType": "string",
          "name": "name",
          "type": "string"
        },
        {
          "internalType": "string",
          "name": "description",
          "type": "string"
        },
        {
          "internalType": "enum Project.ProjectStatus",
          "name": "projectStatus",
          "type": "uint8"
        },
        {
          "internalType": "string",
          "name": "ipfsFileCID",
          "type": "string"
        }
      ],
      "stateMutability": "view",
      "type": "function"
    },
    {
      "inputs": [
        {
          "internalType": "uint256",
          "name": "",
          "type": "uint256"
        }
      ],
      "name": "allUsers",
      "outputs": [
        {
          "internalType": "string",
          "name": "username",
          "type": "string"
        },
        {
          "internalType": "string",
          "name": "email",
          "type": "string"
        },
        {
          "internalType": "string",
          "name": "firstname",
          "type": "string"
        },
        {
          "internalType": "string",
          "name": "lastname",
          "type": "string"
        },
        {
          "internalType": "enum User.Roles",
          "name": "role",
          "type": "uint8"
        },
        {
          "internalType": "address",
          "name": "walletAddress",
          "type": "address"
        }
      ],
      "stateMutability": "view",
      "type": "function"
    },
    {
      "inputs": [
        {
          "internalType": "uint256",
          "name": "_status",
          "type": "uint256"
        },
        {
          "internalType": "address",
          "name": "_address",
          "type": "address"
        }
      ],
      "name": "changeProjectStatus",
      "outputs": [],
      "stateMutability": "nonpayable",
      "type": "function"
    },
    {
      "inputs": [
        {
          "internalType": "uint256",
          "name": "_role",
          "type": "uint256"
        },
        {
          "internalType": "address",
          "name": "_walletAddress",
          "type": "address"
        }
      ],
      "name": "changeUserRole",
      "outputs": [],
      "stateMutability": "nonpayable",
      "type": "function"
    },
    {
      "inputs": [
        {
          "internalType": "uint256",
          "name": "",
          "type": "uint256"
        }
      ],
      "name": "companyRequests",
      "outputs": [
        {
          "internalType": "uint256",
          "name": "index",
          "type": "uint256"
        },
        {
          "internalType": "string",
          "name": "description",
          "type": "string"
        },
        {
          "internalType": "enum Project.RequestStatus",
          "name": "status",
          "type": "uint8"
        },
        {
          "components": [
            {
              "internalType": "uint256",
              "name": "index",
              "type": "uint256"
            },
            {
              "internalType": "string",
              "name": "name",
              "type": "string"
            },
            {
              "internalType": "string",
              "name": "description",
              "type": "string"
            },
            {
              "internalType": "enum Project.ProjectStatus",
              "name": "projectStatus",
              "type": "uint8"
            },
            {
              "internalType": "string",
              "name": "ipfsFileCID",
              "type": "string"
            }
          ],
          "internalType": "struct Project.S_Project",
          "name": "project",
          "type": "tuple"
        },
        {
          "internalType": "address",
          "name": "subjectAddress",
          "type": "address"
        }
      ],
      "stateMutability": "view",
      "type": "function"
    },
    {
      "inputs": [
        {
          "internalType": "string",
          "name": "_name",
          "type": "string"
        },
        {
          "internalType": "string",
          "name": "_description",
          "type": "string"
        },
        {
          "internalType": "uint256",
          "name": "_status",
          "type": "uint256"
        },
        {
          "internalType": "string",
          "name": "_ipfsFileCID",
          "type": "string"
        }
      ],
      "name": "createProject",
      "outputs": [],
      "stateMutability": "nonpayable",
      "type": "function"
    },
    {
      "inputs": [
        {
          "internalType": "string",
          "name": "_text",
          "type": "string"
        },
        {
          "internalType": "address",
          "name": "_addr",
          "type": "address"
        }
      ],
      "name": "createUniqueHexAddress",
      "outputs": [
        {
          "internalType": "address",
          "name": "",
          "type": "address"
        }
      ],
      "stateMutability": "pure",
      "type": "function"
    },
    {
      "inputs": [
        {
          "internalType": "string",
          "name": "_text",
          "type": "string"
        },
        {
          "internalType": "address",
          "name": "_addr",
          "type": "address"
        }
      ],
      "name": "createUniqueIdentifier",
      "outputs": [
        {
          "internalType": "bytes32",
          "name": "",
          "type": "bytes32"
        }
      ],
      "stateMutability": "pure",
      "type": "function"
    },
    {
      "inputs": [],
      "name": "getAllProjects",
      "outputs": [
        {
          "components": [
            {
              "internalType": "uint256",
              "name": "index",
              "type": "uint256"
            },
            {
              "internalType": "string",
              "name": "name",
              "type": "string"
            },
            {
              "internalType": "string",
              "name": "description",
              "type": "string"
            },
            {
              "internalType": "enum Project.ProjectStatus",
              "name": "projectStatus",
              "type": "uint8"
            },
            {
              "internalType": "string",
              "name": "ipfsFileCID",
              "type": "string"
            }
          ],
          "internalType": "struct Project.S_Project[]",
          "name": "",
          "type": "tuple[]"
        }
      ],
      "stateMutability": "view",
      "type": "function"
    },
    {
      "inputs": [],
      "name": "getAllUsers",
      "outputs": [
        {
          "components": [
            {
              "internalType": "string",
              "name": "username",
              "type": "string"
            },
            {
              "internalType": "string",
              "name": "email",
              "type": "string"
            },
            {
              "internalType": "string",
              "name": "firstname",
              "type": "string"
            },
            {
              "internalType": "string",
              "name": "lastname",
              "type": "string"
            },
            {
              "internalType": "enum User.Roles",
              "name": "role",
              "type": "uint8"
            },
            {
              "internalType": "address",
              "name": "walletAddress",
              "type": "address"
            }
          ],
          "internalType": "struct User.S_UserData[]",
          "name": "",
          "type": "tuple[]"
        }
      ],
      "stateMutability": "view",
      "type": "function"
    },
    {
      "inputs": [],
      "name": "getProjectIds",
      "outputs": [
        {
          "internalType": "uint256[]",
          "name": "",
          "type": "uint256[]"
        }
      ],
      "stateMutability": "view",
      "type": "function"
    },
    {
      "inputs": [
        {
          "internalType": "uint256",
          "name": "_index",
          "type": "uint256"
        }
      ],
      "name": "getProjectInfo",
      "outputs": [
        {
          "components": [
            {
              "internalType": "uint256",
              "name": "index",
              "type": "uint256"
            },
            {
              "internalType": "string",
              "name": "name",
              "type": "string"
            },
            {
              "internalType": "string",
              "name": "description",
              "type": "string"
            },
            {
              "internalType": "enum Project.ProjectStatus",
              "name": "projectStatus",
              "type": "uint8"
            },
            {
              "internalType": "string",
              "name": "ipfsFileCID",
              "type": "string"
            }
          ],
          "internalType": "struct Project.S_Project",
          "name": "",
          "type": "tuple"
        }
      ],
      "stateMutability": "view",
      "type": "function"
    },
    {
      "inputs": [],
      "name": "getUserAddresses",
      "outputs": [
        {
          "internalType": "address[]",
          "name": "",
          "type": "address[]"
        }
      ],
      "stateMutability": "view",
      "type": "function"
    },
    {
      "inputs": [
        {
          "internalType": "address",
          "name": "_address",
          "type": "address"
        }
      ],
      "name": "getUserInfo",
      "outputs": [
        {
          "components": [
            {
              "internalType": "string",
              "name": "username",
              "type": "string"
            },
            {
              "internalType": "string",
              "name": "email",
              "type": "string"
            },
            {
              "internalType": "string",
              "name": "firstname",
              "type": "string"
            },
            {
              "internalType": "string",
              "name": "lastname",
              "type": "string"
            },
            {
              "internalType": "enum User.Roles",
              "name": "role",
              "type": "uint8"
            },
            {
              "internalType": "address",
              "name": "walletAddress",
              "type": "address"
            }
          ],
          "internalType": "struct User.S_UserData",
          "name": "",
          "type": "tuple"
        }
      ],
      "stateMutability": "view",
      "type": "function"
    },
    {
      "inputs": [],
      "name": "owner",
      "outputs": [
        {
          "internalType": "address",
          "name": "",
          "type": "address"
        }
      ],
      "stateMutability": "view",
      "type": "function"
    },
    {
      "inputs": [
        {
          "internalType": "uint256",
          "name": "",
          "type": "uint256"
        }
      ],
      "name": "projectIds",
      "outputs": [
        {
          "internalType": "uint256",
          "name": "",
          "type": "uint256"
        }
      ],
      "stateMutability": "view",
      "type": "function"
    },
    {
      "inputs": [
        {
          "internalType": "uint256",
          "name": "",
          "type": "uint256"
        }
      ],
      "name": "projects",
      "outputs": [
        {
          "internalType": "uint256",
          "name": "index",
          "type": "uint256"
        },
        {
          "internalType": "string",
          "name": "name",
          "type": "string"
        },
        {
          "internalType": "string",
          "name": "description",
          "type": "string"
        },
        {
          "internalType": "enum Project.ProjectStatus",
          "name": "projectStatus",
          "type": "uint8"
        },
        {
          "internalType": "string",
          "name": "ipfsFileCID",
          "type": "string"
        }
      ],
      "stateMutability": "view",
      "type": "function"
    },
    {
      "inputs": [],
      "name": "projectsCount",
      "outputs": [
        {
          "internalType": "uint256",
          "name": "",
          "type": "uint256"
        }
      ],
      "stateMutability": "view",
      "type": "function"
    },
    {
      "inputs": [
        {
          "internalType": "uint256",
          "name": "",
          "type": "uint256"
        }
      ],
      "name": "projectsStatus",
      "outputs": [
        {
          "internalType": "uint256",
          "name": "_index",
          "type": "uint256"
        },
        {
          "internalType": "enum Project.ProjectStatus",
          "name": "_status",
          "type": "uint8"
        },
        {
          "internalType": "address",
          "name": "_address",
          "type": "address"
        }
      ],
      "stateMutability": "view",
      "type": "function"
    },
    {
      "inputs": [
        {
          "internalType": "string",
          "name": "_username",
          "type": "string"
        },
        {
          "internalType": "string",
          "name": "_email",
          "type": "string"
        },
        {
          "internalType": "string",
          "name": "_firstname",
          "type": "string"
        },
        {
          "internalType": "string",
          "name": "_lastname",
          "type": "string"
        },
        {
          "internalType": "uint256",
          "name": "_role",
          "type": "uint256"
        },
        {
          "internalType": "address",
          "name": "_walletAddress",
          "type": "address"
        }
      ],
      "name": "registerUser",
      "outputs": [],
      "stateMutability": "nonpayable",
      "type": "function"
    },
    {
      "inputs": [
        {
          "internalType": "string",
          "name": "_description",
          "type": "string"
        },
        {
          "components": [
            {
              "internalType": "uint256",
              "name": "index",
              "type": "uint256"
            },
            {
              "internalType": "string",
              "name": "name",
              "type": "string"
            },
            {
              "internalType": "string",
              "name": "description",
              "type": "string"
            },
            {
              "internalType": "enum Project.ProjectStatus",
              "name": "projectStatus",
              "type": "uint8"
            },
            {
              "internalType": "string",
              "name": "ipfsFileCID",
              "type": "string"
            }
          ],
          "internalType": "struct Project.S_Project",
          "name": "_project",
          "type": "tuple"
        },
        {
          "internalType": "address",
          "name": "_subjectAddress",
          "type": "address"
        }
      ],
      "name": "requestProjectApprovalFromSupervisor",
      "outputs": [],
      "stateMutability": "nonpayable",
      "type": "function"
    },
    {
      "inputs": [
        {
          "internalType": "string",
          "name": "_description",
          "type": "string"
        },
        {
          "components": [
            {
              "internalType": "uint256",
              "name": "index",
              "type": "uint256"
            },
            {
              "internalType": "string",
              "name": "name",
              "type": "string"
            },
            {
              "internalType": "string",
              "name": "description",
              "type": "string"
            },
            {
              "internalType": "enum Project.ProjectStatus",
              "name": "projectStatus",
              "type": "uint8"
            },
            {
              "internalType": "string",
              "name": "ipfsFileCID",
              "type": "string"
            }
          ],
          "internalType": "struct Project.S_Project",
          "name": "_project",
          "type": "tuple"
        },
        {
          "internalType": "address",
          "name": "_subjectAddress",
          "type": "address"
        }
      ],
      "name": "requestProjectCompleteFromSupervisor",
      "outputs": [],
      "stateMutability": "nonpayable",
      "type": "function"
    },
    {
      "inputs": [
        {
          "internalType": "string",
          "name": "_description",
          "type": "string"
        },
        {
          "components": [
            {
              "internalType": "uint256",
              "name": "index",
              "type": "uint256"
            },
            {
              "internalType": "string",
              "name": "name",
              "type": "string"
            },
            {
              "internalType": "string",
              "name": "description",
              "type": "string"
            },
            {
              "internalType": "enum Project.ProjectStatus",
              "name": "projectStatus",
              "type": "uint8"
            },
            {
              "internalType": "string",
              "name": "ipfsFileCID",
              "type": "string"
            }
          ],
          "internalType": "struct Project.S_Project",
          "name": "_project",
          "type": "tuple"
        },
        {
          "internalType": "address",
          "name": "_subjectAddress",
          "type": "address"
        }
      ],
      "name": "requestStartProjectToCompanyBuilder",
      "outputs": [],
      "stateMutability": "nonpayable",
      "type": "function"
    },
    {
      "inputs": [],
      "name": "statusChangedIndex",
      "outputs": [
        {
          "internalType": "uint256",
          "name": "",
          "type": "uint256"
        }
      ],
      "stateMutability": "view",
      "type": "function"
    },
    {
      "inputs": [
        {
          "internalType": "uint256",
          "name": "",
          "type": "uint256"
        }
      ],
      "name": "supervisorRequests",
      "outputs": [
        {
          "internalType": "uint256",
          "name": "index",
          "type": "uint256"
        },
        {
          "internalType": "string",
          "name": "description",
          "type": "string"
        },
        {
          "internalType": "enum Project.RequestStatus",
          "name": "status",
          "type": "uint8"
        },
        {
          "components": [
            {
              "internalType": "uint256",
              "name": "index",
              "type": "uint256"
            },
            {
              "internalType": "string",
              "name": "name",
              "type": "string"
            },
            {
              "internalType": "string",
              "name": "description",
              "type": "string"
            },
            {
              "internalType": "enum Project.ProjectStatus",
              "name": "projectStatus",
              "type": "uint8"
            },
            {
              "internalType": "string",
              "name": "ipfsFileCID",
              "type": "string"
            }
          ],
          "internalType": "struct Project.S_Project",
          "name": "project",
          "type": "tuple"
        },
        {
          "internalType": "address",
          "name": "subjectAddress",
          "type": "address"
        }
      ],
      "stateMutability": "view",
      "type": "function"
    },
    {
      "inputs": [
        {
          "internalType": "uint256",
          "name": "",
          "type": "uint256"
        }
      ],
      "name": "userAddresses",
      "outputs": [
        {
          "internalType": "address",
          "name": "",
          "type": "address"
        }
      ],
      "stateMutability": "view",
      "type": "function"
    },
    {
      "inputs": [
        {
          "internalType": "address",
          "name": "",
          "type": "address"
        }
      ],
      "name": "userInfo",
      "outputs": [
        {
          "internalType": "string",
          "name": "username",
          "type": "string"
        },
        {
          "internalType": "string",
          "name": "email",
          "type": "string"
        },
        {
          "internalType": "string",
          "name": "firstname",
          "type": "string"
        },
        {
          "internalType": "string",
          "name": "lastname",
          "type": "string"
        },
        {
          "internalType": "enum User.Roles",
          "name": "role",
          "type": "uint8"
        },
        {
          "internalType": "address",
          "name": "walletAddress",
          "type": "address"
        }
      ],
      "stateMutability": "view",
      "type": "function"
    },
    {
      "inputs": [],
      "name": "usersCount",
      "outputs": [
        {
          "internalType": "uint256",
          "name": "",
          "type": "uint256"
        }
      ],
      "stateMutability": "view",
      "type": "function"
    },
    {
      "inputs": [
        {
          "components": [
            {
              "internalType": "uint256",
              "name": "index",
              "type": "uint256"
            },
            {
              "internalType": "string",
              "name": "name",
              "type": "string"
            },
            {
              "internalType": "string",
              "name": "description",
              "type": "string"
            },
            {
              "internalType": "enum Project.ProjectStatus",
              "name": "projectStatus",
              "type": "uint8"
            },
            {
              "internalType": "string",
              "name": "ipfsFileCID",
              "type": "string"
            }
          ],
          "internalType": "struct Project.S_Project",
          "name": "_project",
          "type": "tuple"
        }
      ],
      "name": "setProjectRequestToApprovedStatus",
      "outputs": [],
      "stateMutability": "nonpayable",
      "type": "function"
    },
    {
      "inputs": [
        {
          "internalType": "string",
          "name": "_description",
          "type": "string"
        },
        {
          "components": [
            {
              "internalType": "uint256",
              "name": "index",
              "type": "uint256"
            },
            {
              "internalType": "string",
              "name": "name",
              "type": "string"
            },
            {
              "internalType": "string",
              "name": "description",
              "type": "string"
            },
            {
              "internalType": "enum Project.ProjectStatus",
              "name": "projectStatus",
              "type": "uint8"
            },
            {
              "internalType": "string",
              "name": "ipfsFileCID",
              "type": "string"
            }
          ],
          "internalType": "struct Project.S_Project",
          "name": "_project",
          "type": "tuple"
        }
      ],
      "name": "setProjectRequestToRejectStatus",
      "outputs": [],
      "stateMutability": "nonpayable",
      "type": "function"
    },
    {
      "inputs": [
        {
          "components": [
            {
              "internalType": "uint256",
              "name": "index",
              "type": "uint256"
            },
            {
              "internalType": "string",
              "name": "name",
              "type": "string"
            },
            {
              "internalType": "string",
              "name": "description",
              "type": "string"
            },
            {
              "internalType": "enum Project.ProjectStatus",
              "name": "projectStatus",
              "type": "uint8"
            },
            {
              "internalType": "string",
              "name": "ipfsFileCID",
              "type": "string"
            }
          ],
          "internalType": "struct Project.S_Project",
          "name": "_project",
          "type": "tuple"
        }
      ],
      "name": "setProjectRequestToCompletedStatus",
      "outputs": [],
      "stateMutability": "nonpayable",
      "type": "function"
    }
  ],
  "bytecode": "0x6080604052600060025560006005556000600b5534801561001f57600080fd5b5033600160006101000a81548173ffffffffffffffffffffffffffffffffffffffff021916908373ffffffffffffffffffffffffffffffffffffffff16021790555033600760006101000a81548173ffffffffffffffffffffffffffffffffffffffff021916908373ffffffffffffffffffffffffffffffffffffffff16021790555033601060006101000a81548173ffffffffffffffffffffffffffffffffffffffff021916908373ffffffffffffffffffffffffffffffffffffffff160217905550614e5f806100f26000396000f3fe608060405234801561001057600080fd5b50600436106101e55760003560e01c80636fe3d1941161010f578063a2bdedf4116100a2578063cb2d316411610071578063cb2d3164146105e0578063d40d4a80146105fc578063e2842d7914610630578063fabf59681461064e576101e5565b8063a2bdedf41461053d578063a591efde14610572578063b42302a214610590578063c73b302e146105c2576101e5565b80638da5cb5b116100de5780638da5cb5b146104cb57806391009786146104e9578063911c29a614610505578063953dcd2a14610521576101e5565b80636fe3d194146104415780637748587f1461045d57806380d03829146104795780638c86a1d714610497576101e5565b806348c35ad4116101875780636132844f116101565780636132844f146103a75780636386c1c7146103d7578063644fa658146104075780636ba13a8214610423576101e5565b806348c35ad4146102f7578063502c9bd51461032757806353b3194c1461035757806358bb79ed1461038b576101e5565b80631a6cee2f116101c35780631a6cee2f1461028357806329a613b5146102a15780634007d03c146102bf57806346575714146102db576101e5565b8063107046bd146101ea57806313b4078f1461021e5780631959a0021461024e575b600080fd5b61020460048036038101906101ff91906137d8565b61067e565b604051610215959493929190613924565b60405180910390f35b61023860048036038101906102339190613b1f565b610859565b6040516102459190613b8a565b60405180910390f35b61026860048036038101906102639190613ba5565b61088f565b60405161027a96959493929190613c1a565b60405180910390f35b61028b610b18565b6040516102989190613c97565b60405180910390f35b6102a9610b1e565b6040516102b69190613d70565b60405180910390f35b6102d960048036038101906102d49190613ea1565b610b76565b005b6102f560048036038101906102f09190613eea565b610c98565b005b610311600480360381019061030c91906137d8565b610f31565b60405161031e9190613c97565b60405180910390f35b610341600480360381019061033c91906137d8565b610f55565b60405161034e9190613b8a565b60405180910390f35b610371600480360381019061036c91906137d8565b610f94565b604051610382959493929190613924565b60405180910390f35b6103a560048036038101906103a09190613ea1565b61117f565b005b6103c160048036038101906103bc9190613b1f565b6112a1565b6040516103ce9190613fbe565b60405180910390f35b6103f160048036038101906103ec9190613ba5565b6112d4565b6040516103fe91906140df565b60405180910390f35b610421600480360381019061041c9190614101565b611605565b005b61042b61175e565b6040516104389190613c97565b60405180910390f35b61045b60048036038101906104569190614141565b611764565b005b61047760048036038101906104729190614141565b61196e565b005b610481611b78565b60405161048e9190614321565b60405180910390f35b6104b160048036038101906104ac91906137d8565b611dd2565b6040516104c295949392919061440f565b60405180910390f35b6104d36120c2565b6040516104e09190613b8a565b60405180910390f35b61050360048036038101906104fe9190614101565b6120e8565b005b61051f600480360381019061051a9190614470565b612264565b005b61053b60048036038101906105369190614141565b612749565b005b610557600480360381019061055291906137d8565b612953565b60405161056996959493929190613c1a565b60405180910390f35b61057a612bec565b604051610587919061461c565b60405180910390f35b6105aa60048036038101906105a591906137d8565b612c7a565b6040516105b99392919061463e565b60405180910390f35b6105ca612cd1565b6040516105d79190613c97565b60405180910390f35b6105fa60048036038101906105f59190614675565b612cd7565b005b610616600480360381019061061191906137d8565b612dfc565b60405161062795949392919061440f565b60405180910390f35b6106386130ec565b604051610645919061484d565b60405180910390f35b610668600480360381019061066391906137d8565b613424565b604051610675919061486f565b60405180910390f35b60086020528060005260406000206000915090508060000154908060010180546106a7906148c0565b80601f01602080910402602001604051908101604052809291908181526020018280546106d3906148c0565b80156107205780601f106106f557610100808354040283529160200191610720565b820191906000526020600020905b81548152906001019060200180831161070357829003601f168201915b505050505090806002018054610735906148c0565b80601f0160208091040260200160405190810160405280929190818152602001828054610761906148c0565b80156107ae5780601f10610783576101008083540402835291602001916107ae565b820191906000526020600020905b81548152906001019060200180831161079157829003601f168201915b5050505050908060030160009054906101000a900460ff16908060040180546107d6906148c0565b80601f0160208091040260200160405190810160405280929190818152602001828054610802906148c0565b801561084f5780601f106108245761010080835404028352916020019161084f565b820191906000526020600020905b81548152906001019060200180831161083257829003601f168201915b5050505050905085565b6000828260405160200161086e929190614976565b6040516020818303038152906040528051906020012060001c905092915050565b60006020528060005260406000206000915090508060000180546108b2906148c0565b80601f01602080910402602001604051908101604052809291908181526020018280546108de906148c0565b801561092b5780601f106109005761010080835404028352916020019161092b565b820191906000526020600020905b81548152906001019060200180831161090e57829003601f168201915b505050505090806001018054610940906148c0565b80601f016020809104026020016040519081016040528092919081815260200182805461096c906148c0565b80156109b95780601f1061098e576101008083540402835291602001916109b9565b820191906000526020600020905b81548152906001019060200180831161099c57829003601f168201915b5050505050908060020180546109ce906148c0565b80601f01602080910402602001604051908101604052809291908181526020018280546109fa906148c0565b8015610a475780601f10610a1c57610100808354040283529160200191610a47565b820191906000526020600020905b815481529060010190602001808311610a2a57829003601f168201915b505050505090806003018054610a5c906148c0565b80601f0160208091040260200160405190810160405280929190818152602001828054610a88906148c0565b8015610ad55780601f10610aaa57610100808354040283529160200191610ad5565b820191906000526020600020905b815481529060010190602001808311610ab857829003601f168201915b5050505050908060040160009054906101000a900460ff16908060040160019054906101000a900473ffffffffffffffffffffffffffffffffffffffff16905086565b60055481565b6060600c805480602002602001604051908101604052809291908181526020018280548015610b6c57602002820191906000526020600020905b815481526020019060010190808311610b58575b5050505050905090565b3373ffffffffffffffffffffffffffffffffffffffff16601060009054906101000a900473ffffffffffffffffffffffffffffffffffffffff1673ffffffffffffffffffffffffffffffffffffffff1614610c06576040517f08c379a0000000000000000000000000000000000000000000000000000000008152600401610bfd906149ea565b60405180910390fd5b600581606001906005811115610c1f57610c1e6138ad565b5b90816005811115610c3357610c326138ad565b5b815250507fbe82ca8fde3d25c6c9aba92c7e9b013d607fd706aa1c37a30fcb8e45046c6025600582601060009054906101000a900473ffffffffffffffffffffffffffffffffffffffff16604051610c8d93929190614a0a565b60405180910390a150565b600b5460086000600b548152602001908152602001600020600001819055508360086000600b5481526020019081526020016000206001019080519060200190610ce392919061364c565b508260086000600b5481526020019081526020016000206002019080519060200190610d1092919061364c565b50816005811115610d2457610d236138ad565b5b60086000600b54815260200190815260200160002060030160006101000a81548160ff02191690836005811115610d5e57610d5d6138ad565b5b02179055508060086000600b5481526020019081526020016000206004019080519060200190610d8f92919061364c565b507f274f009187cb91dd70ef9fd455c66e7263b5fc9746490cba15a3be400f580fa88484846005811115610dc657610dc56138ad565b5b604051610dd593929190614a48565b60405180910390a1600c600b549080600181540180825580915050600190039060005260206000200160009091909190915055600d6040518060a00160405280600b548152602001868152602001858152602001846005811115610e3c57610e3b6138ad565b5b6005811115610e4e57610e4d6138ad565b5b8152602001838152509080600181540180825580915050600190039060005260206000209060050201600090919091909150600082015181600001556020820151816001019080519060200190610ea692919061364c565b506040820151816002019080519060200190610ec392919061364c565b5060608201518160030160006101000a81548160ff02191690836005811115610eef57610eee6138ad565b5b02179055506080820151816004019080519060200190610f1092919061364c565b505050600b6000815480929190610f2690614abc565b919050555050505050565b600c8181548110610f4157600080fd5b906000526020600020016000915090505481565b60038181548110610f6557600080fd5b906000526020600020016000915054906101000a900473ffffffffffffffffffffffffffffffffffffffff1681565b600d8181548110610fa457600080fd5b9060005260206000209060050201600091509050806000015490806001018054610fcd906148c0565b80601f0160208091040260200160405190810160405280929190818152602001828054610ff9906148c0565b80156110465780601f1061101b57610100808354040283529160200191611046565b820191906000526020600020905b81548152906001019060200180831161102957829003601f168201915b50505050509080600201805461105b906148c0565b80601f0160208091040260200160405190810160405280929190818152602001828054611087906148c0565b80156110d45780601f106110a9576101008083540402835291602001916110d4565b820191906000526020600020905b8154815290600101906020018083116110b757829003601f168201915b5050505050908060030160009054906101000a900460ff16908060040180546110fc906148c0565b80601f0160208091040260200160405190810160405280929190818152602001828054611128906148c0565b80156111755780601f1061114a57610100808354040283529160200191611175565b820191906000526020600020905b81548152906001019060200180831161115857829003601f168201915b5050505050905085565b3373ffffffffffffffffffffffffffffffffffffffff16601060009054906101000a900473ffffffffffffffffffffffffffffffffffffffff1673ffffffffffffffffffffffffffffffffffffffff161461120f576040517f08c379a0000000000000000000000000000000000000000000000000000000008152600401611206906149ea565b60405180910390fd5b600181606001906005811115611228576112276138ad565b5b9081600581111561123c5761123b6138ad565b5b815250507fb29047b297a20e1951f9cbdeacf32fc8cc042c1b66e9759022cec46ca6510df5600182601060009054906101000a900473ffffffffffffffffffffffffffffffffffffffff1660405161129693929190614a0a565b60405180910390a150565b600082826040516020016112b6929190614976565b60405160208183030381529060405280519060200120905092915050565b6112dc6136d2565b6000808373ffffffffffffffffffffffffffffffffffffffff1673ffffffffffffffffffffffffffffffffffffffff1681526020019081526020016000206040518060c0016040529081600082018054611335906148c0565b80601f0160208091040260200160405190810160405280929190818152602001828054611361906148c0565b80156113ae5780601f10611383576101008083540402835291602001916113ae565b820191906000526020600020905b81548152906001019060200180831161139157829003601f168201915b505050505081526020016001820180546113c7906148c0565b80601f01602080910402602001604051908101604052809291908181526020018280546113f3906148c0565b80156114405780601f1061141557610100808354040283529160200191611440565b820191906000526020600020905b81548152906001019060200180831161142357829003601f168201915b50505050508152602001600282018054611459906148c0565b80601f0160208091040260200160405190810160405280929190818152602001828054611485906148c0565b80156114d25780601f106114a7576101008083540402835291602001916114d2565b820191906000526020600020905b8154815290600101906020018083116114b557829003601f168201915b505050505081526020016003820180546114eb906148c0565b80601f0160208091040260200160405190810160405280929190818152602001828054611517906148c0565b80156115645780601f1061153957610100808354040283529160200191611564565b820191906000526020600020905b81548152906001019060200180831161154757829003601f168201915b505050505081526020016004820160009054906101000a900460ff166003811115611592576115916138ad565b5b60038111156115a4576115a36138ad565b5b81526020016004820160019054906101000a900473ffffffffffffffffffffffffffffffffffffffff1673ffffffffffffffffffffffffffffffffffffffff1673ffffffffffffffffffffffffffffffffffffffff16815250509050919050565b60055460066000600554815260200190815260200160002060000181905550816005811115611637576116366138ad565b5b60066000600554815260200190815260200160002060010160006101000a81548160ff02191690836005811115611671576116706138ad565b5b02179055508060066000600554815260200190815260200160002060010160016101000a81548173ffffffffffffffffffffffffffffffffffffffff021916908373ffffffffffffffffffffffffffffffffffffffff1602179055508073ffffffffffffffffffffffffffffffffffffffff168260058111156116f7576116f66138ad565b5b6005811115611709576117086138ad565b5b7f119b71e0e33421c153e29c9cf62d53667313969e57a1cffd506f579e87267d9260055460405161173a9190613c97565b60405180910390a36005600081548092919061175590614abc565b91905055505050565b60025481565b60046005811115611778576117776138ad565b5b8260600151600581111561178f5761178e6138ad565b5b146117cf576040517f08c379a00000000000000000000000000000000000000000000000000000000081526004016117c690614b9d565b60405180910390fd5b6000600a6000600f54815260200190815260200160002090508381600101908051906020019061180092919061364c565b5060008160020160006101000a81548160ff02191690836001811115611829576118286138ad565b5b0217905550828160030160008201518160000155602082015181600101908051906020019061185992919061364c565b50604082015181600201908051906020019061187692919061364c565b5060608201518160030160006101000a81548160ff021916908360058111156118a2576118a16138ad565b5b021790555060808201518160040190805190602001906118c392919061364c565b50905050818160080160006101000a81548173ffffffffffffffffffffffffffffffffffffffff021916908373ffffffffffffffffffffffffffffffffffffffff1602179055507fc0a7086e05590c8d9160aba8dc6a29b754eda15e93d2a2578429bc2fda6bdec3600f54600085866060015186604051611948959493929190614bbd565b60405180910390a1600f600081548092919061196390614abc565b919050555050505050565b60006005811115611982576119816138ad565b5b82606001516005811115611999576119986138ad565b5b146119d9576040517f08c379a00000000000000000000000000000000000000000000000000000000081526004016119d090614c89565b60405180910390fd5b6000600a6000600f548152602001908152602001600020905083816001019080519060200190611a0a92919061364c565b5060008160020160006101000a81548160ff02191690836001811115611a3357611a326138ad565b5b02179055508281600301600082015181600001556020820151816001019080519060200190611a6392919061364c565b506040820151816002019080519060200190611a8092919061364c565b5060608201518160030160006101000a81548160ff02191690836005811115611aac57611aab6138ad565b5b02179055506080820151816004019080519060200190611acd92919061364c565b50905050818160080160006101000a81548173ffffffffffffffffffffffffffffffffffffffff021916908373ffffffffffffffffffffffffffffffffffffffff1602179055507fc0a7086e05590c8d9160aba8dc6a29b754eda15e93d2a2578429bc2fda6bdec3600f54600085866060015186604051611b52959493929190614bbd565b60405180910390a1600f6000815480929190611b6d90614abc565b919050555050505050565b6060600d805480602002602001604051908101604052809291908181526020016000905b82821015611dc957838290600052602060002090600502016040518060a001604052908160008201548152602001600182018054611bd9906148c0565b80601f0160208091040260200160405190810160405280929190818152602001828054611c05906148c0565b8015611c525780601f10611c2757610100808354040283529160200191611c52565b820191906000526020600020905b815481529060010190602001808311611c3557829003601f168201915b50505050508152602001600282018054611c6b906148c0565b80601f0160208091040260200160405190810160405280929190818152602001828054611c97906148c0565b8015611ce45780601f10611cb957610100808354040283529160200191611ce4565b820191906000526020600020905b815481529060010190602001808311611cc757829003601f168201915b505050505081526020016003820160009054906101000a900460ff166005811115611d1257611d116138ad565b5b6005811115611d2457611d236138ad565b5b8152602001600482018054611d38906148c0565b80601f0160208091040260200160405190810160405280929190818152602001828054611d64906148c0565b8015611db15780601f10611d8657610100808354040283529160200191611db1565b820191906000526020600020905b815481529060010190602001808311611d9457829003601f168201915b50505050508152505081526020019060010190611b9c565b50505050905090565b600a602052806000526040600020600091509050806000015490806001018054611dfb906148c0565b80601f0160208091040260200160405190810160405280929190818152602001828054611e27906148c0565b8015611e745780601f10611e4957610100808354040283529160200191611e74565b820191906000526020600020905b815481529060010190602001808311611e5757829003601f168201915b5050505050908060020160009054906101000a900460ff1690806003016040518060a001604052908160008201548152602001600182018054611eb6906148c0565b80601f0160208091040260200160405190810160405280929190818152602001828054611ee2906148c0565b8015611f2f5780601f10611f0457610100808354040283529160200191611f2f565b820191906000526020600020905b815481529060010190602001808311611f1257829003601f168201915b50505050508152602001600282018054611f48906148c0565b80601f0160208091040260200160405190810160405280929190818152602001828054611f74906148c0565b8015611fc15780601f10611f9657610100808354040283529160200191611fc1565b820191906000526020600020905b815481529060010190602001808311611fa457829003601f168201915b505050505081526020016003820160009054906101000a900460ff166005811115611fef57611fee6138ad565b5b6005811115612001576120006138ad565b5b8152602001600482018054612015906148c0565b80601f0160208091040260200160405190810160405280929190818152602001828054612041906148c0565b801561208e5780601f106120635761010080835404028352916020019161208e565b820191906000526020600020905b81548152906001019060200180831161207157829003601f168201915b505050505081525050908060080160009054906101000a900473ffffffffffffffffffffffffffffffffffffffff16905085565b600160009054906101000a900473ffffffffffffffffffffffffffffffffffffffff1681565b8160038111156120fb576120fa6138ad565b5b6000808373ffffffffffffffffffffffffffffffffffffffff1673ffffffffffffffffffffffffffffffffffffffff16815260200190815260200160002060040160006101000a81548160ff0219169083600381111561215e5761215d6138ad565b5b021790555060005b60048054905081101561225f578173ffffffffffffffffffffffffffffffffffffffff166004828154811061219e5761219d614ca9565b5b906000526020600020906005020160040160019054906101000a900473ffffffffffffffffffffffffffffffffffffffff1673ffffffffffffffffffffffffffffffffffffffff16141561224c578260038111156121ff576121fe6138ad565b5b6004828154811061221357612212614ca9565b5b906000526020600020906005020160040160006101000a81548160ff02191690836003811115612246576122456138ad565b5b02179055505b808061225790614abc565b915050612166565b505050565b3373ffffffffffffffffffffffffffffffffffffffff16600160009054906101000a900473ffffffffffffffffffffffffffffffffffffffff1673ffffffffffffffffffffffffffffffffffffffff16146122f4576040517f08c379a00000000000000000000000000000000000000000000000000000000081526004016122eb90614d24565b60405180910390fd5b856000808373ffffffffffffffffffffffffffffffffffffffff1673ffffffffffffffffffffffffffffffffffffffff168152602001908152602001600020600001908051906020019061234992919061364c565b50846000808373ffffffffffffffffffffffffffffffffffffffff1673ffffffffffffffffffffffffffffffffffffffff168152602001908152602001600020600101908051906020019061239f92919061364c565b50836000808373ffffffffffffffffffffffffffffffffffffffff1673ffffffffffffffffffffffffffffffffffffffff16815260200190815260200160002060020190805190602001906123f592919061364c565b50826000808373ffffffffffffffffffffffffffffffffffffffff1673ffffffffffffffffffffffffffffffffffffffff168152602001908152602001600020600301908051906020019061244b92919061364c565b5081600381111561245f5761245e6138ad565b5b6000808373ffffffffffffffffffffffffffffffffffffffff1673ffffffffffffffffffffffffffffffffffffffff16815260200190815260200160002060040160006101000a81548160ff021916908360038111156124c2576124c16138ad565b5b0217905550806000808373ffffffffffffffffffffffffffffffffffffffff1673ffffffffffffffffffffffffffffffffffffffff16815260200190815260200160002060040160016101000a81548173ffffffffffffffffffffffffffffffffffffffff021916908373ffffffffffffffffffffffffffffffffffffffff1602179055506003819080600181540180825580915050600190039060005260206000200160009091909190916101000a81548173ffffffffffffffffffffffffffffffffffffffff021916908373ffffffffffffffffffffffffffffffffffffffff16021790555060046040518060c001604052808881526020018781526020018681526020018581526020018460038111156125e2576125e16138ad565b5b60038111156125f4576125f36138ad565b5b81526020018373ffffffffffffffffffffffffffffffffffffffff168152509080600181540180825580915050600190039060005260206000209060050201600090919091909150600082015181600001908051906020019061265892919061364c565b50602082015181600101908051906020019061267592919061364c565b50604082015181600201908051906020019061269292919061364c565b5060608201518160030190805190602001906126af92919061364c565b5060808201518160040160006101000a81548160ff021916908360038111156126db576126da6138ad565b5b021790555060a08201518160040160016101000a81548173ffffffffffffffffffffffffffffffffffffffff021916908373ffffffffffffffffffffffffffffffffffffffff16021790555050506002600081548092919061273c90614abc565b9190505550505050505050565b6001600581111561275d5761275c6138ad565b5b82606001516005811115612774576127736138ad565b5b146127b4576040517f08c379a00000000000000000000000000000000000000000000000000000000081526004016127ab90614db6565b60405180910390fd5b600060096000600e5481526020019081526020016000209050838160010190805190602001906127e592919061364c565b5060008160020160006101000a81548160ff0219169083600181111561280e5761280d6138ad565b5b0217905550828160030160008201518160000155602082015181600101908051906020019061283e92919061364c565b50604082015181600201908051906020019061285b92919061364c565b5060608201518160030160006101000a81548160ff02191690836005811115612887576128866138ad565b5b021790555060808201518160040190805190602001906128a892919061364c565b50905050818160080160006101000a81548173ffffffffffffffffffffffffffffffffffffffff021916908373ffffffffffffffffffffffffffffffffffffffff1602179055507f56cef5b605de75dde94390e0903b843a7c7203544ad094da5db5ecdafb897cb8600e5460008586606001518660405161292d959493929190614bbd565b60405180910390a1600e600081548092919061294890614abc565b919050555050505050565b6004818154811061296357600080fd5b9060005260206000209060050201600091509050806000018054612986906148c0565b80601f01602080910402602001604051908101604052809291908181526020018280546129b2906148c0565b80156129ff5780601f106129d4576101008083540402835291602001916129ff565b820191906000526020600020905b8154815290600101906020018083116129e257829003601f168201915b505050505090806001018054612a14906148c0565b80601f0160208091040260200160405190810160405280929190818152602001828054612a40906148c0565b8015612a8d5780601f10612a6257610100808354040283529160200191612a8d565b820191906000526020600020905b815481529060010190602001808311612a7057829003601f168201915b505050505090806002018054612aa2906148c0565b80601f0160208091040260200160405190810160405280929190818152602001828054612ace906148c0565b8015612b1b5780601f10612af057610100808354040283529160200191612b1b565b820191906000526020600020905b815481529060010190602001808311612afe57829003601f168201915b505050505090806003018054612b30906148c0565b80601f0160208091040260200160405190810160405280929190818152602001828054612b5c906148c0565b8015612ba95780601f10612b7e57610100808354040283529160200191612ba9565b820191906000526020600020905b815481529060010190602001808311612b8c57829003601f168201915b5050505050908060040160009054906101000a900460ff16908060040160019054906101000a900473ffffffffffffffffffffffffffffffffffffffff16905086565b60606003805480602002602001604051908101604052809291908181526020018280548015612c7057602002820191906000526020600020905b8160009054906101000a900473ffffffffffffffffffffffffffffffffffffffff1673ffffffffffffffffffffffffffffffffffffffff1681526020019060010190808311612c26575b5050505050905090565b60066020528060005260406000206000915090508060000154908060010160009054906101000a900460ff16908060010160019054906101000a900473ffffffffffffffffffffffffffffffffffffffff16905083565b600b5481565b3373ffffffffffffffffffffffffffffffffffffffff16601060009054906101000a900473ffffffffffffffffffffffffffffffffffffffff1673ffffffffffffffffffffffffffffffffffffffff1614612d67576040517f08c379a0000000000000000000000000000000000000000000000000000000008152600401612d5e906149ea565b60405180910390fd5b600281606001906005811115612d8057612d7f6138ad565b5b90816005811115612d9457612d936138ad565b5b815250507f78098fc38ddd770da2424e282946e2467768b02b8538a14f86ff7d8c9800c79482600183601060009054906101000a900473ffffffffffffffffffffffffffffffffffffffff16604051612df09493929190614dd6565b60405180910390a15050565b6009602052806000526040600020600091509050806000015490806001018054612e25906148c0565b80601f0160208091040260200160405190810160405280929190818152602001828054612e51906148c0565b8015612e9e5780601f10612e7357610100808354040283529160200191612e9e565b820191906000526020600020905b815481529060010190602001808311612e8157829003601f168201915b5050505050908060020160009054906101000a900460ff1690806003016040518060a001604052908160008201548152602001600182018054612ee0906148c0565b80601f0160208091040260200160405190810160405280929190818152602001828054612f0c906148c0565b8015612f595780601f10612f2e57610100808354040283529160200191612f59565b820191906000526020600020905b815481529060010190602001808311612f3c57829003601f168201915b50505050508152602001600282018054612f72906148c0565b80601f0160208091040260200160405190810160405280929190818152602001828054612f9e906148c0565b8015612feb5780601f10612fc057610100808354040283529160200191612feb565b820191906000526020600020905b815481529060010190602001808311612fce57829003601f168201915b505050505081526020016003820160009054906101000a900460ff166005811115613019576130186138ad565b5b600581111561302b5761302a6138ad565b5b815260200160048201805461303f906148c0565b80601f016020809104026020016040519081016040528092919081815260200182805461306b906148c0565b80156130b85780601f1061308d576101008083540402835291602001916130b8565b820191906000526020600020905b81548152906001019060200180831161309b57829003601f168201915b505050505081525050908060080160009054906101000a900473ffffffffffffffffffffffffffffffffffffffff16905085565b60606004805480602002602001604051908101604052809291908181526020016000905b8282101561341b57838290600052602060002090600502016040518060c0016040529081600082018054613143906148c0565b80601f016020809104026020016040519081016040528092919081815260200182805461316f906148c0565b80156131bc5780601f10613191576101008083540402835291602001916131bc565b820191906000526020600020905b81548152906001019060200180831161319f57829003601f168201915b505050505081526020016001820180546131d5906148c0565b80601f0160208091040260200160405190810160405280929190818152602001828054613201906148c0565b801561324e5780601f106132235761010080835404028352916020019161324e565b820191906000526020600020905b81548152906001019060200180831161323157829003601f168201915b50505050508152602001600282018054613267906148c0565b80601f0160208091040260200160405190810160405280929190818152602001828054613293906148c0565b80156132e05780601f106132b5576101008083540402835291602001916132e0565b820191906000526020600020905b8154815290600101906020018083116132c357829003601f168201915b505050505081526020016003820180546132f9906148c0565b80601f0160208091040260200160405190810160405280929190818152602001828054613325906148c0565b80156133725780601f1061334757610100808354040283529160200191613372565b820191906000526020600020905b81548152906001019060200180831161335557829003601f168201915b505050505081526020016004820160009054906101000a900460ff1660038111156133a05761339f6138ad565b5b60038111156133b2576133b16138ad565b5b81526020016004820160019054906101000a900473ffffffffffffffffffffffffffffffffffffffff1673ffffffffffffffffffffffffffffffffffffffff1673ffffffffffffffffffffffffffffffffffffffff168152505081526020019060010190613110565b50505050905090565b61342c613730565b600860008381526020019081526020016000206040518060a001604052908160008201548152602001600182018054613464906148c0565b80601f0160208091040260200160405190810160405280929190818152602001828054613490906148c0565b80156134dd5780601f106134b2576101008083540402835291602001916134dd565b820191906000526020600020905b8154815290600101906020018083116134c057829003601f168201915b505050505081526020016002820180546134f6906148c0565b80601f0160208091040260200160405190810160405280929190818152602001828054613522906148c0565b801561356f5780601f106135445761010080835404028352916020019161356f565b820191906000526020600020905b81548152906001019060200180831161355257829003601f168201915b505050505081526020016003820160009054906101000a900460ff16600581111561359d5761359c6138ad565b5b60058111156135af576135ae6138ad565b5b81526020016004820180546135c3906148c0565b80601f01602080910402602001604051908101604052809291908181526020018280546135ef906148c0565b801561363c5780601f106136115761010080835404028352916020019161363c565b820191906000526020600020905b81548152906001019060200180831161361f57829003601f168201915b5050505050815250509050919050565b828054613658906148c0565b90600052602060002090601f01602090048101928261367a57600085556136c1565b82601f1061369357805160ff19168380011785556136c1565b828001600101855582156136c1579182015b828111156136c05782518255916020019190600101906136a5565b5b5090506136ce9190613771565b5090565b6040518060c00160405280606081526020016060815260200160608152602001606081526020016000600381111561370d5761370c6138ad565b5b8152602001600073ffffffffffffffffffffffffffffffffffffffff1681525090565b6040518060a0016040528060008152602001606081526020016060815260200160006005811115613764576137636138ad565b5b8152602001606081525090565b5b8082111561378a576000816000905550600101613772565b5090565b6000604051905090565b600080fd5b600080fd5b6000819050919050565b6137b5816137a2565b81146137c057600080fd5b50565b6000813590506137d2816137ac565b92915050565b6000602082840312156137ee576137ed613798565b5b60006137fc848285016137c3565b91505092915050565b61380e816137a2565b82525050565b600081519050919050565b600082825260208201905092915050565b60005b8381101561384e578082015181840152602081019050613833565b8381111561385d576000848401525b50505050565b6000601f19601f8301169050919050565b600061387f82613814565b613889818561381f565b9350613899818560208601613830565b6138a281613863565b840191505092915050565b7f4e487b7100000000000000000000000000000000000000000000000000000000600052602160045260246000fd5b600681106138ed576138ec6138ad565b5b50565b60008190506138fe826138dc565b919050565b600061390e826138f0565b9050919050565b61391e81613903565b82525050565b600060a0820190506139396000830188613805565b818103602083015261394b8187613874565b9050818103604083015261395f8186613874565b905061396e6060830185613915565b81810360808301526139808184613874565b90509695505050505050565b600080fd5b600080fd5b7f4e487b7100000000000000000000000000000000000000000000000000000000600052604160045260246000fd5b6139ce82613863565b810181811067ffffffffffffffff821117156139ed576139ec613996565b5b80604052505050565b6000613a0061378e565b9050613a0c82826139c5565b919050565b600067ffffffffffffffff821115613a2c57613a2b613996565b5b613a3582613863565b9050602081019050919050565b82818337600083830152505050565b6000613a64613a5f84613a11565b6139f6565b905082815260208101848484011115613a8057613a7f613991565b5b613a8b848285613a42565b509392505050565b600082601f830112613aa857613aa761398c565b5b8135613ab8848260208601613a51565b91505092915050565b600073ffffffffffffffffffffffffffffffffffffffff82169050919050565b6000613aec82613ac1565b9050919050565b613afc81613ae1565b8114613b0757600080fd5b50565b600081359050613b1981613af3565b92915050565b60008060408385031215613b3657613b35613798565b5b600083013567ffffffffffffffff811115613b5457613b5361379d565b5b613b6085828601613a93565b9250506020613b7185828601613b0a565b9150509250929050565b613b8481613ae1565b82525050565b6000602082019050613b9f6000830184613b7b565b92915050565b600060208284031215613bbb57613bba613798565b5b6000613bc984828501613b0a565b91505092915050565b60048110613be357613be26138ad565b5b50565b6000819050613bf482613bd2565b919050565b6000613c0482613be6565b9050919050565b613c1481613bf9565b82525050565b600060c0820190508181036000830152613c348189613874565b90508181036020830152613c488188613874565b90508181036040830152613c5c8187613874565b90508181036060830152613c708186613874565b9050613c7f6080830185613c0b565b613c8c60a0830184613b7b565b979650505050505050565b6000602082019050613cac6000830184613805565b92915050565b600081519050919050565b600082825260208201905092915050565b6000819050602082019050919050565b613ce7816137a2565b82525050565b6000613cf98383613cde565b60208301905092915050565b6000602082019050919050565b6000613d1d82613cb2565b613d278185613cbd565b9350613d3283613cce565b8060005b83811015613d63578151613d4a8882613ced565b9750613d5583613d05565b925050600181019050613d36565b5085935050505092915050565b60006020820190508181036000830152613d8a8184613d12565b905092915050565b600080fd5b600080fd5b60068110613da957600080fd5b50565b600081359050613dbb81613d9c565b92915050565b600060a08284031215613dd757613dd6613d92565b5b613de160a06139f6565b90506000613df1848285016137c3565b600083015250602082013567ffffffffffffffff811115613e1557613e14613d97565b5b613e2184828501613a93565b602083015250604082013567ffffffffffffffff811115613e4557613e44613d97565b5b613e5184828501613a93565b6040830152506060613e6584828501613dac565b606083015250608082013567ffffffffffffffff811115613e8957613e88613d97565b5b613e9584828501613a93565b60808301525092915050565b600060208284031215613eb757613eb6613798565b5b600082013567ffffffffffffffff811115613ed557613ed461379d565b5b613ee184828501613dc1565b91505092915050565b60008060008060808587031215613f0457613f03613798565b5b600085013567ffffffffffffffff811115613f2257613f2161379d565b5b613f2e87828801613a93565b945050602085013567ffffffffffffffff811115613f4f57613f4e61379d565b5b613f5b87828801613a93565b9350506040613f6c878288016137c3565b925050606085013567ffffffffffffffff811115613f8d57613f8c61379d565b5b613f9987828801613a93565b91505092959194509250565b6000819050919050565b613fb881613fa5565b82525050565b6000602082019050613fd36000830184613faf565b92915050565b600082825260208201905092915050565b6000613ff582613814565b613fff8185613fd9565b935061400f818560208601613830565b61401881613863565b840191505092915050565b61402c81613bf9565b82525050565b61403b81613ae1565b82525050565b600060c083016000830151848203600086015261405e8282613fea565b915050602083015184820360208601526140788282613fea565b915050604083015184820360408601526140928282613fea565b915050606083015184820360608601526140ac8282613fea565b91505060808301516140c16080860182614023565b5060a08301516140d460a0860182614032565b508091505092915050565b600060208201905081810360008301526140f98184614041565b905092915050565b6000806040838503121561411857614117613798565b5b6000614126858286016137c3565b925050602061413785828601613b0a565b9150509250929050565b60008060006060848603121561415a57614159613798565b5b600084013567ffffffffffffffff8111156141785761417761379d565b5b61418486828701613a93565b935050602084013567ffffffffffffffff8111156141a5576141a461379d565b5b6141b186828701613dc1565b92505060406141c286828701613b0a565b9150509250925092565b600081519050919050565b600082825260208201905092915050565b6000819050602082019050919050565b61420181613903565b82525050565b600060a08301600083015161421f6000860182613cde565b50602083015184820360208601526142378282613fea565b915050604083015184820360408601526142518282613fea565b915050606083015161426660608601826141f8565b506080830151848203608086015261427e8282613fea565b9150508091505092915050565b60006142978383614207565b905092915050565b6000602082019050919050565b60006142b7826141cc565b6142c181856141d7565b9350836020820285016142d3856141e8565b8060005b8581101561430f57848403895281516142f0858261428b565b94506142fb8361429f565b925060208a019950506001810190506142d7565b50829750879550505050505092915050565b6000602082019050818103600083015261433b81846142ac565b905092915050565b60028110614354576143536138ad565b5b50565b600081905061436582614343565b919050565b600061437582614357565b9050919050565b6143858161436a565b82525050565b600060a0830160008301516143a36000860182613cde565b50602083015184820360208601526143bb8282613fea565b915050604083015184820360408601526143d58282613fea565b91505060608301516143ea60608601826141f8565b50608083015184820360808601526144028282613fea565b9150508091505092915050565b600060a0820190506144246000830188613805565b81810360208301526144368187613874565b9050614445604083018661437c565b8181036060830152614457818561438b565b90506144666080830184613b7b565b9695505050505050565b60008060008060008060c0878903121561448d5761448c613798565b5b600087013567ffffffffffffffff8111156144ab576144aa61379d565b5b6144b789828a01613a93565b965050602087013567ffffffffffffffff8111156144d8576144d761379d565b5b6144e489828a01613a93565b955050604087013567ffffffffffffffff8111156145055761450461379d565b5b61451189828a01613a93565b945050606087013567ffffffffffffffff8111156145325761453161379d565b5b61453e89828a01613a93565b935050608061454f89828a016137c3565b92505060a061456089828a01613b0a565b9150509295509295509295565b600081519050919050565b600082825260208201905092915050565b6000819050602082019050919050565b60006145a58383614032565b60208301905092915050565b6000602082019050919050565b60006145c98261456d565b6145d38185614578565b93506145de83614589565b8060005b8381101561460f5781516145f68882614599565b9750614601836145b1565b9250506001810190506145e2565b5085935050505092915050565b6000602082019050818103600083015261463681846145be565b905092915050565b60006060820190506146536000830186613805565b6146606020830185613915565b61466d6040830184613b7b565b949350505050565b6000806040838503121561468c5761468b613798565b5b600083013567ffffffffffffffff8111156146aa576146a961379d565b5b6146b685828601613a93565b925050602083013567ffffffffffffffff8111156146d7576146d661379d565b5b6146e385828601613dc1565b9150509250929050565b600081519050919050565b600082825260208201905092915050565b6000819050602082019050919050565b600060c08301600083015184820360008601526147368282613fea565b915050602083015184820360208601526147508282613fea565b9150506040830151848203604086015261476a8282613fea565b915050606083015184820360608601526147848282613fea565b91505060808301516147996080860182614023565b5060a08301516147ac60a0860182614032565b508091505092915050565b60006147c38383614719565b905092915050565b6000602082019050919050565b60006147e3826146ed565b6147ed81856146f8565b9350836020820285016147ff85614709565b8060005b8581101561483b578484038952815161481c85826147b7565b9450614827836147cb565b925060208a01995050600181019050614803565b50829750879550505050505092915050565b6000602082019050818103600083015261486781846147d8565b905092915050565b60006020820190508181036000830152614889818461438b565b905092915050565b7f4e487b7100000000000000000000000000000000000000000000000000000000600052602260045260246000fd5b600060028204905060018216806148d857607f821691505b602082108114156148ec576148eb614891565b5b50919050565b600081905092915050565b600061490882613814565b61491281856148f2565b9350614922818560208601613830565b80840191505092915050565b60008160601b9050919050565b60006149468261492e565b9050919050565b60006149588261493b565b9050919050565b61497061496b82613ae1565b61494d565b82525050565b600061498282856148fd565b915061498e828461495f565b6014820191508190509392505050565b7f596f7520617265206e6f7420612073757065727669736f720000000000000000600082015250565b60006149d460188361381f565b91506149df8261499e565b602082019050919050565b60006020820190508181036000830152614a03816149c7565b9050919050565b6000606082019050614a1f6000830186613915565b8181036020830152614a31818561438b565b9050614a406040830184613b7b565b949350505050565b60006060820190508181036000830152614a628186613874565b90508181036020830152614a768185613874565b9050614a856040830184613915565b949350505050565b7f4e487b7100000000000000000000000000000000000000000000000000000000600052601160045260246000fd5b6000614ac7826137a2565b91507fffffffffffffffffffffffffffffffffffffffffffffffffffffffffffffffff821415614afa57614af9614a8d565b5b600182019050919050565b7f5468652070726f6a656374206973206e6f7420696e2074686520274265666f7260008201527f6546696e616c697a6174696f6e436865636b27207374617475732c207468652060208201527f6f7065726174696f6e2063616e6e6f7420626520646f6e652e00000000000000604082015250565b6000614b8760598361381f565b9150614b9282614b05565b606082019050919050565b60006020820190508181036000830152614bb681614b7a565b9050919050565b600060a082019050614bd26000830188613805565b614bdf602083018761437c565b8181036040830152614bf1818661438b565b9050614c006060830185613915565b614c0d6080830184613b7b565b9695505050505050565b7f5468652070726f6a656374206973206e6f7420637265617465642c207468652060008201527f6f7065726174696f6e2063616e6e6f7420626520646f6e652e00000000000000602082015250565b6000614c7360398361381f565b9150614c7e82614c17565b604082019050919050565b60006020820190508181036000830152614ca281614c66565b9050919050565b7f4e487b7100000000000000000000000000000000000000000000000000000000600052603260045260246000fd5b7f596f7520617265206e6f7420616e206f776e6572000000000000000000000000600082015250565b6000614d0e60148361381f565b9150614d1982614cd8565b602082019050919050565b60006020820190508181036000830152614d3d81614d01565b9050919050565b7f5468652070726f6a656374206973206e6f7420617070726f7665642c2074686560008201527f206f7065726174696f6e2063616e6e6f7420626520646f6e652e000000000000602082015250565b6000614da0603a8361381f565b9150614dab82614d44565b604082019050919050565b60006020820190508181036000830152614dcf81614d93565b9050919050565b60006080820190508181036000830152614df08187613874565b9050614dff6020830186613915565b8181036040830152614e11818561438b565b9050614e206060830184613b7b565b9594505050505056fea26469706673582212206006f00eb87b8e6c4f6f0aced1cf0d4ad810b33ac6ef13ccdbaf1ad2982c046264736f6c634300080a0033",
  "immutableReferences": {},
  "source": "// SPDX-License-Identifier: MIT\r\npragma solidity >=0.8.0 <0.9.0;\r\n\r\nimport \"./Project.sol\";\r\n\r\ncontract Supervisor is Project {\r\n\r\n    address _supervisorAddress;\r\n\r\n    event ApproveProjectRequestBySupervisor(ProjectStatus _status, S_Project _project, address _subjectAddress);\r\n    event RejectProjectRequestBySupervisor(string _description, ProjectStatus _status, S_Project _project, address _subjectAddress);\r\n    event CompleteProjectRequestBySupervisor(ProjectStatus _status, S_Project _project, address _subjectAddress);\r\n\r\n    constructor() {\r\n        _supervisorAddress = msg.sender;\r\n    }\r\n\r\n    modifier onlySupervisor {\r\n        require(_supervisorAddress == msg.sender, \"You are not a supervisor\");\r\n        _;\r\n    }\r\n\r\n    // Add some contrainst / verification TOOO DOOO -> LATER\r\n\r\n    function setProjectRequestToApprovedStatus(S_Project memory _project) public onlySupervisor {\r\n        _project.projectStatus = ProjectStatus.Approved;\r\n        emit ApproveProjectRequestBySupervisor(ProjectStatus.Approved, _project, _supervisorAddress);\r\n    }\r\n\r\n    function setProjectRequestToRejectStatus(string memory _description, S_Project memory _project) public onlySupervisor {\r\n        _project.projectStatus = ProjectStatus.Rejected;\r\n        emit RejectProjectRequestBySupervisor(_description, ProjectStatus.Approved, _project, _supervisorAddress);\r\n    }\r\n\r\n    function setProjectRequestToCompletedStatus(S_Project memory _project)  public onlySupervisor {\r\n        _project.projectStatus = ProjectStatus.Completed;\r\n        emit CompleteProjectRequestBySupervisor(ProjectStatus.Completed, _project, _supervisorAddress);\r\n    }\r\n}\r\n",
  "sourcePath": "/mnt/c/users/beniamin/source/repos/dissertationproject/contracts/Supervisor.sol",
  "compiler": {
    "name": "solc",
    "version": "0.8.10+commit.fc410830.Emscripten.clang"
  },
  "schemaVersion": "3.4.3",
  "updatedAt": "2021-11-18T19:11:31.867Z",
  "devdoc": {
    "kind": "dev",
    "methods": {},
    "version": 1
  },
  "userdoc": {
    "kind": "user",
    "methods": {},
    "version": 1
  }
}