{
  "contractName": "Supervisor",
  "abi": [
    {
      "inputs": [],
      "stateMutability": "nonpayable",
      "type": "constructor"
    },
    {
      "anonymous": false,
      "inputs": [
        {
          "indexed": false,
          "internalType": "enum ProjectChain.ProjectStatus",
          "name": "_status",
          "type": "uint8"
        },
        {
          "components": [
            {
              "internalType": "uint256",
              "name": "_index",
              "type": "uint256"
            },
            {
              "internalType": "string",
              "name": "_name",
              "type": "string"
            },
            {
              "internalType": "string",
              "name": "_description",
              "type": "string"
            },
            {
              "internalType": "enum ProjectChain.ProjectStatus",
              "name": "_status",
              "type": "uint8"
            },
            {
              "internalType": "string",
              "name": "_ipfsFileCID",
              "type": "string"
            },
            {
              "internalType": "address",
              "name": "_projectAddress",
              "type": "address"
            },
            {
              "internalType": "address",
              "name": "_userAddress",
              "type": "address"
            }
          ],
          "indexed": false,
          "internalType": "struct ProjectChain.Project",
          "name": "_project",
          "type": "tuple"
        },
        {
          "indexed": false,
          "internalType": "address",
          "name": "_subjectAddress",
          "type": "address"
        }
      ],
      "name": "ApproveProjectRequestBySupervisor",
      "type": "event"
    },
    {
      "anonymous": false,
      "inputs": [
        {
          "indexed": false,
          "internalType": "enum ProjectChain.ProjectStatus",
          "name": "_status",
          "type": "uint8"
        },
        {
          "components": [
            {
              "internalType": "uint256",
              "name": "_index",
              "type": "uint256"
            },
            {
              "internalType": "string",
              "name": "_name",
              "type": "string"
            },
            {
              "internalType": "string",
              "name": "_description",
              "type": "string"
            },
            {
              "internalType": "enum ProjectChain.ProjectStatus",
              "name": "_status",
              "type": "uint8"
            },
            {
              "internalType": "string",
              "name": "_ipfsFileCID",
              "type": "string"
            },
            {
              "internalType": "address",
              "name": "_projectAddress",
              "type": "address"
            },
            {
              "internalType": "address",
              "name": "_userAddress",
              "type": "address"
            }
          ],
          "indexed": false,
          "internalType": "struct ProjectChain.Project",
          "name": "_project",
          "type": "tuple"
        },
        {
          "indexed": false,
          "internalType": "address",
          "name": "_subjectAddress",
          "type": "address"
        }
      ],
      "name": "CompleteProjectRequestBySupervisor",
      "type": "event"
    },
    {
      "anonymous": false,
      "inputs": [
        {
          "indexed": false,
          "internalType": "uint256",
          "name": "_index",
          "type": "uint256"
        },
        {
          "indexed": false,
          "internalType": "string",
          "name": "_name",
          "type": "string"
        },
        {
          "indexed": false,
          "internalType": "string",
          "name": "_description",
          "type": "string"
        },
        {
          "indexed": false,
          "internalType": "enum ProjectChain.ProjectStatus",
          "name": "_status",
          "type": "uint8"
        },
        {
          "indexed": false,
          "internalType": "string",
          "name": "_ipfsFileCID",
          "type": "string"
        },
        {
          "indexed": false,
          "internalType": "address",
          "name": "_projectAddress",
          "type": "address"
        },
        {
          "indexed": false,
          "internalType": "address",
          "name": "_userAddress",
          "type": "address"
        }
      ],
      "name": "ProjectEvent",
      "type": "event"
    },
    {
      "anonymous": false,
      "inputs": [
        {
          "indexed": false,
          "internalType": "uint256",
          "name": "_index",
          "type": "uint256"
        },
        {
          "indexed": false,
          "internalType": "string",
          "name": "_title",
          "type": "string"
        },
        {
          "indexed": false,
          "internalType": "string",
          "name": "_description",
          "type": "string"
        },
        {
          "indexed": false,
          "internalType": "string",
          "name": "_comments",
          "type": "string"
        },
        {
          "indexed": false,
          "internalType": "enum ProjectChain.ProjectStatus",
          "name": "_status",
          "type": "uint8"
        },
        {
          "indexed": false,
          "internalType": "enum ProjectChain.RequestStatus",
          "name": "_requestStatus",
          "type": "uint8"
        },
        {
          "indexed": false,
          "internalType": "address",
          "name": "_projectAddress",
          "type": "address"
        },
        {
          "indexed": false,
          "internalType": "address",
          "name": "_userAddress",
          "type": "address"
        }
      ],
      "name": "ProjectStatusEvent",
      "type": "event"
    },
    {
      "anonymous": false,
      "inputs": [
        {
          "indexed": false,
          "internalType": "string",
          "name": "_description",
          "type": "string"
        },
        {
          "indexed": false,
          "internalType": "enum ProjectChain.ProjectStatus",
          "name": "_status",
          "type": "uint8"
        },
        {
          "components": [
            {
              "internalType": "uint256",
              "name": "_index",
              "type": "uint256"
            },
            {
              "internalType": "string",
              "name": "_name",
              "type": "string"
            },
            {
              "internalType": "string",
              "name": "_description",
              "type": "string"
            },
            {
              "internalType": "enum ProjectChain.ProjectStatus",
              "name": "_status",
              "type": "uint8"
            },
            {
              "internalType": "string",
              "name": "_ipfsFileCID",
              "type": "string"
            },
            {
              "internalType": "address",
              "name": "_projectAddress",
              "type": "address"
            },
            {
              "internalType": "address",
              "name": "_userAddress",
              "type": "address"
            }
          ],
          "indexed": false,
          "internalType": "struct ProjectChain.Project",
          "name": "_project",
          "type": "tuple"
        },
        {
          "indexed": false,
          "internalType": "address",
          "name": "_subjectAddress",
          "type": "address"
        }
      ],
      "name": "RejectProjectRequestBySupervisor",
      "type": "event"
    },
    {
      "anonymous": false,
      "inputs": [
        {
          "indexed": false,
          "internalType": "uint256",
          "name": "_index",
          "type": "uint256"
        },
        {
          "indexed": false,
          "internalType": "string",
          "name": "_title",
          "type": "string"
        },
        {
          "indexed": false,
          "internalType": "string",
          "name": "_description",
          "type": "string"
        },
        {
          "indexed": false,
          "internalType": "enum ProjectChain.RequestStatus",
          "name": "_status",
          "type": "uint8"
        },
        {
          "indexed": false,
          "internalType": "enum ProjectChain.ProjectStatus",
          "name": "_projectStatus",
          "type": "uint8"
        },
        {
          "indexed": false,
          "internalType": "address",
          "name": "_projectAddress",
          "type": "address"
        },
        {
          "indexed": false,
          "internalType": "address",
          "name": "_userAddress",
          "type": "address"
        }
      ],
      "name": "RequestEvent",
      "type": "event"
    },
    {
      "anonymous": false,
      "inputs": [
        {
          "indexed": false,
          "internalType": "string",
          "name": "_username",
          "type": "string"
        },
        {
          "indexed": false,
          "internalType": "string",
          "name": "_firstname",
          "type": "string"
        },
        {
          "indexed": false,
          "internalType": "string",
          "name": "_lastname",
          "type": "string"
        },
        {
          "indexed": false,
          "internalType": "string",
          "name": "_email",
          "type": "string"
        },
        {
          "indexed": false,
          "internalType": "enum UserChain.Roles",
          "name": "_role",
          "type": "uint8"
        },
        {
          "indexed": false,
          "internalType": "address",
          "name": "_walletAddress",
          "type": "address"
        }
      ],
      "name": "UserChanges",
      "type": "event"
    },
    {
      "anonymous": false,
      "inputs": [
        {
          "indexed": true,
          "internalType": "address",
          "name": "_walletAddress",
          "type": "address"
        },
        {
          "indexed": true,
          "internalType": "string",
          "name": "_username",
          "type": "string"
        },
        {
          "indexed": false,
          "internalType": "string",
          "name": "_email",
          "type": "string"
        },
        {
          "indexed": false,
          "internalType": "string",
          "name": "_firstname",
          "type": "string"
        },
        {
          "indexed": false,
          "internalType": "string",
          "name": "_lastname",
          "type": "string"
        },
        {
          "indexed": true,
          "internalType": "enum UserChain.Roles",
          "name": "_role",
          "type": "uint8"
        }
      ],
      "name": "UserRegistered",
      "type": "event"
    },
    {
      "inputs": [
        {
          "internalType": "uint256",
          "name": "",
          "type": "uint256"
        }
      ],
      "name": "allCompanyRequests",
      "outputs": [
        {
          "internalType": "uint256",
          "name": "_index",
          "type": "uint256"
        },
        {
          "internalType": "string",
          "name": "_title",
          "type": "string"
        },
        {
          "internalType": "string",
          "name": "_description",
          "type": "string"
        },
        {
          "internalType": "enum ProjectChain.RequestStatus",
          "name": "_status",
          "type": "uint8"
        },
        {
          "internalType": "enum ProjectChain.ProjectStatus",
          "name": "_projectStatus",
          "type": "uint8"
        },
        {
          "internalType": "address",
          "name": "_projectAddress",
          "type": "address"
        },
        {
          "internalType": "address",
          "name": "_userAddress",
          "type": "address"
        }
      ],
      "stateMutability": "view",
      "type": "function"
    },
    {
      "inputs": [
        {
          "internalType": "uint256",
          "name": "",
          "type": "uint256"
        }
      ],
      "name": "allProjectRequests",
      "outputs": [
        {
          "internalType": "uint256",
          "name": "_index",
          "type": "uint256"
        },
        {
          "internalType": "string",
          "name": "_title",
          "type": "string"
        },
        {
          "internalType": "string",
          "name": "_description",
          "type": "string"
        },
        {
          "internalType": "string",
          "name": "_comments",
          "type": "string"
        },
        {
          "internalType": "enum ProjectChain.ProjectStatus",
          "name": "_status",
          "type": "uint8"
        },
        {
          "internalType": "enum ProjectChain.RequestStatus",
          "name": "_requestStatus",
          "type": "uint8"
        },
        {
          "internalType": "address",
          "name": "_projectAddress",
          "type": "address"
        },
        {
          "internalType": "address",
          "name": "_userAddress",
          "type": "address"
        }
      ],
      "stateMutability": "view",
      "type": "function"
    },
    {
      "inputs": [
        {
          "internalType": "uint256",
          "name": "",
          "type": "uint256"
        }
      ],
      "name": "allProjects",
      "outputs": [
        {
          "internalType": "uint256",
          "name": "_index",
          "type": "uint256"
        },
        {
          "internalType": "string",
          "name": "_name",
          "type": "string"
        },
        {
          "internalType": "string",
          "name": "_description",
          "type": "string"
        },
        {
          "internalType": "enum ProjectChain.ProjectStatus",
          "name": "_status",
          "type": "uint8"
        },
        {
          "internalType": "string",
          "name": "_ipfsFileCID",
          "type": "string"
        },
        {
          "internalType": "address",
          "name": "_projectAddress",
          "type": "address"
        },
        {
          "internalType": "address",
          "name": "_userAddress",
          "type": "address"
        }
      ],
      "stateMutability": "view",
      "type": "function"
    },
    {
      "inputs": [
        {
          "internalType": "uint256",
          "name": "",
          "type": "uint256"
        }
      ],
      "name": "allSupervisorRequests",
      "outputs": [
        {
          "internalType": "uint256",
          "name": "_index",
          "type": "uint256"
        },
        {
          "internalType": "string",
          "name": "_title",
          "type": "string"
        },
        {
          "internalType": "string",
          "name": "_description",
          "type": "string"
        },
        {
          "internalType": "enum ProjectChain.RequestStatus",
          "name": "_status",
          "type": "uint8"
        },
        {
          "internalType": "enum ProjectChain.ProjectStatus",
          "name": "_projectStatus",
          "type": "uint8"
        },
        {
          "internalType": "address",
          "name": "_projectAddress",
          "type": "address"
        },
        {
          "internalType": "address",
          "name": "_userAddress",
          "type": "address"
        }
      ],
      "stateMutability": "view",
      "type": "function"
    },
    {
      "inputs": [
        {
          "internalType": "uint256",
          "name": "",
          "type": "uint256"
        }
      ],
      "name": "allUsers",
      "outputs": [
        {
          "internalType": "uint256",
          "name": "_index",
          "type": "uint256"
        },
        {
          "internalType": "string",
          "name": "_username",
          "type": "string"
        },
        {
          "internalType": "string",
          "name": "_email",
          "type": "string"
        },
        {
          "internalType": "string",
          "name": "_firstname",
          "type": "string"
        },
        {
          "internalType": "string",
          "name": "_lastname",
          "type": "string"
        },
        {
          "internalType": "enum UserChain.Roles",
          "name": "_role",
          "type": "uint8"
        },
        {
          "internalType": "address",
          "name": "_walletAddress",
          "type": "address"
        }
      ],
      "stateMutability": "view",
      "type": "function"
    },
    {
      "inputs": [
        {
          "internalType": "uint256",
          "name": "_role",
          "type": "uint256"
        },
        {
          "internalType": "address",
          "name": "_walletAddress",
          "type": "address"
        }
      ],
      "name": "changeUserRole",
      "outputs": [],
      "stateMutability": "nonpayable",
      "type": "function"
    },
    {
      "inputs": [
        {
          "internalType": "string",
          "name": "_name",
          "type": "string"
        },
        {
          "internalType": "string",
          "name": "_description",
          "type": "string"
        },
        {
          "internalType": "uint256",
          "name": "_status",
          "type": "uint256"
        },
        {
          "internalType": "string",
          "name": "_ipfsFileCID",
          "type": "string"
        }
      ],
      "name": "createProject",
      "outputs": [],
      "stateMutability": "nonpayable",
      "type": "function"
    },
    {
      "inputs": [
        {
          "internalType": "string",
          "name": "_title",
          "type": "string"
        },
        {
          "internalType": "string",
          "name": "_description",
          "type": "string"
        },
        {
          "internalType": "uint256",
          "name": "_status",
          "type": "uint256"
        },
        {
          "internalType": "uint256",
          "name": "_requestStatus",
          "type": "uint256"
        },
        {
          "internalType": "address",
          "name": "_projectAddress",
          "type": "address"
        }
      ],
      "name": "createProjectRequest",
      "outputs": [],
      "stateMutability": "nonpayable",
      "type": "function"
    },
    {
      "inputs": [
        {
          "internalType": "string",
          "name": "_title",
          "type": "string"
        },
        {
          "internalType": "string",
          "name": "_description",
          "type": "string"
        },
        {
          "internalType": "uint256",
          "name": "_status",
          "type": "uint256"
        },
        {
          "internalType": "uint256",
          "name": "_projectStatus",
          "type": "uint256"
        },
        {
          "internalType": "address",
          "name": "_projectAddress",
          "type": "address"
        }
      ],
      "name": "createRequestCompany",
      "outputs": [],
      "stateMutability": "nonpayable",
      "type": "function"
    },
    {
      "inputs": [
        {
          "internalType": "string",
          "name": "_title",
          "type": "string"
        },
        {
          "internalType": "string",
          "name": "_description",
          "type": "string"
        },
        {
          "internalType": "uint256",
          "name": "_status",
          "type": "uint256"
        },
        {
          "internalType": "uint256",
          "name": "_projectStatus",
          "type": "uint256"
        },
        {
          "internalType": "address",
          "name": "_projectAddress",
          "type": "address"
        }
      ],
      "name": "createRequestSupervisor",
      "outputs": [],
      "stateMutability": "nonpayable",
      "type": "function"
    },
    {
      "inputs": [
        {
          "internalType": "string",
          "name": "_text",
          "type": "string"
        },
        {
          "internalType": "uint256",
          "name": "_index",
          "type": "uint256"
        }
      ],
      "name": "createUniqueHexAddress",
      "outputs": [
        {
          "internalType": "address",
          "name": "",
          "type": "address"
        }
      ],
      "stateMutability": "view",
      "type": "function"
    },
    {
      "inputs": [],
      "name": "getAllProjectRequests",
      "outputs": [
        {
          "components": [
            {
              "internalType": "uint256",
              "name": "_index",
              "type": "uint256"
            },
            {
              "internalType": "string",
              "name": "_title",
              "type": "string"
            },
            {
              "internalType": "string",
              "name": "_description",
              "type": "string"
            },
            {
              "internalType": "string",
              "name": "_comments",
              "type": "string"
            },
            {
              "internalType": "enum ProjectChain.ProjectStatus",
              "name": "_status",
              "type": "uint8"
            },
            {
              "internalType": "enum ProjectChain.RequestStatus",
              "name": "_requestStatus",
              "type": "uint8"
            },
            {
              "internalType": "address",
              "name": "_projectAddress",
              "type": "address"
            },
            {
              "internalType": "address",
              "name": "_userAddress",
              "type": "address"
            }
          ],
          "internalType": "struct ProjectChain.ProjectRequest[]",
          "name": "",
          "type": "tuple[]"
        }
      ],
      "stateMutability": "view",
      "type": "function"
    },
    {
      "inputs": [],
      "name": "getAllProjects",
      "outputs": [
        {
          "components": [
            {
              "internalType": "uint256",
              "name": "_index",
              "type": "uint256"
            },
            {
              "internalType": "string",
              "name": "_name",
              "type": "string"
            },
            {
              "internalType": "string",
              "name": "_description",
              "type": "string"
            },
            {
              "internalType": "enum ProjectChain.ProjectStatus",
              "name": "_status",
              "type": "uint8"
            },
            {
              "internalType": "string",
              "name": "_ipfsFileCID",
              "type": "string"
            },
            {
              "internalType": "address",
              "name": "_projectAddress",
              "type": "address"
            },
            {
              "internalType": "address",
              "name": "_userAddress",
              "type": "address"
            }
          ],
          "internalType": "struct ProjectChain.Project[]",
          "name": "",
          "type": "tuple[]"
        }
      ],
      "stateMutability": "view",
      "type": "function"
    },
    {
      "inputs": [],
      "name": "getAllRequestsCompany",
      "outputs": [
        {
          "components": [
            {
              "internalType": "uint256",
              "name": "_index",
              "type": "uint256"
            },
            {
              "internalType": "string",
              "name": "_title",
              "type": "string"
            },
            {
              "internalType": "string",
              "name": "_description",
              "type": "string"
            },
            {
              "internalType": "enum ProjectChain.RequestStatus",
              "name": "_status",
              "type": "uint8"
            },
            {
              "internalType": "enum ProjectChain.ProjectStatus",
              "name": "_projectStatus",
              "type": "uint8"
            },
            {
              "internalType": "address",
              "name": "_projectAddress",
              "type": "address"
            },
            {
              "internalType": "address",
              "name": "_userAddress",
              "type": "address"
            }
          ],
          "internalType": "struct ProjectChain.Request[]",
          "name": "",
          "type": "tuple[]"
        }
      ],
      "stateMutability": "view",
      "type": "function"
    },
    {
      "inputs": [],
      "name": "getAllRequestsSupervisor",
      "outputs": [
        {
          "components": [
            {
              "internalType": "uint256",
              "name": "_index",
              "type": "uint256"
            },
            {
              "internalType": "string",
              "name": "_title",
              "type": "string"
            },
            {
              "internalType": "string",
              "name": "_description",
              "type": "string"
            },
            {
              "internalType": "enum ProjectChain.RequestStatus",
              "name": "_status",
              "type": "uint8"
            },
            {
              "internalType": "enum ProjectChain.ProjectStatus",
              "name": "_projectStatus",
              "type": "uint8"
            },
            {
              "internalType": "address",
              "name": "_projectAddress",
              "type": "address"
            },
            {
              "internalType": "address",
              "name": "_userAddress",
              "type": "address"
            }
          ],
          "internalType": "struct ProjectChain.Request[]",
          "name": "",
          "type": "tuple[]"
        }
      ],
      "stateMutability": "view",
      "type": "function"
    },
    {
      "inputs": [],
      "name": "getAllUsers",
      "outputs": [
        {
          "components": [
            {
              "internalType": "uint256",
              "name": "_index",
              "type": "uint256"
            },
            {
              "internalType": "string",
              "name": "_username",
              "type": "string"
            },
            {
              "internalType": "string",
              "name": "_email",
              "type": "string"
            },
            {
              "internalType": "string",
              "name": "_firstname",
              "type": "string"
            },
            {
              "internalType": "string",
              "name": "_lastname",
              "type": "string"
            },
            {
              "internalType": "enum UserChain.Roles",
              "name": "_role",
              "type": "uint8"
            },
            {
              "internalType": "address",
              "name": "_walletAddress",
              "type": "address"
            }
          ],
          "internalType": "struct UserChain.User[]",
          "name": "",
          "type": "tuple[]"
        }
      ],
      "stateMutability": "view",
      "type": "function"
    },
    {
      "inputs": [
        {
          "internalType": "address",
          "name": "_address",
          "type": "address"
        }
      ],
      "name": "getProjectInfo",
      "outputs": [
        {
          "components": [
            {
              "internalType": "uint256",
              "name": "_index",
              "type": "uint256"
            },
            {
              "internalType": "string",
              "name": "_name",
              "type": "string"
            },
            {
              "internalType": "string",
              "name": "_description",
              "type": "string"
            },
            {
              "internalType": "enum ProjectChain.ProjectStatus",
              "name": "_status",
              "type": "uint8"
            },
            {
              "internalType": "string",
              "name": "_ipfsFileCID",
              "type": "string"
            },
            {
              "internalType": "address",
              "name": "_projectAddress",
              "type": "address"
            },
            {
              "internalType": "address",
              "name": "_userAddress",
              "type": "address"
            }
          ],
          "internalType": "struct ProjectChain.Project",
          "name": "",
          "type": "tuple"
        }
      ],
      "stateMutability": "view",
      "type": "function"
    },
    {
      "inputs": [
        {
          "internalType": "address",
          "name": "_walletAddress",
          "type": "address"
        }
      ],
      "name": "getUserInfo",
      "outputs": [
        {
          "components": [
            {
              "internalType": "uint256",
              "name": "_index",
              "type": "uint256"
            },
            {
              "internalType": "string",
              "name": "_username",
              "type": "string"
            },
            {
              "internalType": "string",
              "name": "_email",
              "type": "string"
            },
            {
              "internalType": "string",
              "name": "_firstname",
              "type": "string"
            },
            {
              "internalType": "string",
              "name": "_lastname",
              "type": "string"
            },
            {
              "internalType": "enum UserChain.Roles",
              "name": "_role",
              "type": "uint8"
            },
            {
              "internalType": "address",
              "name": "_walletAddress",
              "type": "address"
            }
          ],
          "internalType": "struct UserChain.User",
          "name": "",
          "type": "tuple"
        }
      ],
      "stateMutability": "view",
      "type": "function"
    },
    {
      "inputs": [],
      "name": "owner",
      "outputs": [
        {
          "internalType": "address",
          "name": "",
          "type": "address"
        }
      ],
      "stateMutability": "view",
      "type": "function"
    },
    {
      "inputs": [
        {
          "internalType": "address",
          "name": "",
          "type": "address"
        }
      ],
      "name": "projectRequests",
      "outputs": [
        {
          "internalType": "uint256",
          "name": "_index",
          "type": "uint256"
        },
        {
          "internalType": "string",
          "name": "_title",
          "type": "string"
        },
        {
          "internalType": "string",
          "name": "_description",
          "type": "string"
        },
        {
          "internalType": "string",
          "name": "_comments",
          "type": "string"
        },
        {
          "internalType": "enum ProjectChain.ProjectStatus",
          "name": "_status",
          "type": "uint8"
        },
        {
          "internalType": "enum ProjectChain.RequestStatus",
          "name": "_requestStatus",
          "type": "uint8"
        },
        {
          "internalType": "address",
          "name": "_projectAddress",
          "type": "address"
        },
        {
          "internalType": "address",
          "name": "_userAddress",
          "type": "address"
        }
      ],
      "stateMutability": "view",
      "type": "function"
    },
    {
      "inputs": [],
      "name": "projectRequestsCounter",
      "outputs": [
        {
          "internalType": "uint256",
          "name": "",
          "type": "uint256"
        }
      ],
      "stateMutability": "view",
      "type": "function"
    },
    {
      "inputs": [
        {
          "internalType": "address",
          "name": "",
          "type": "address"
        }
      ],
      "name": "projects",
      "outputs": [
        {
          "internalType": "uint256",
          "name": "_index",
          "type": "uint256"
        },
        {
          "internalType": "string",
          "name": "_name",
          "type": "string"
        },
        {
          "internalType": "string",
          "name": "_description",
          "type": "string"
        },
        {
          "internalType": "enum ProjectChain.ProjectStatus",
          "name": "_status",
          "type": "uint8"
        },
        {
          "internalType": "string",
          "name": "_ipfsFileCID",
          "type": "string"
        },
        {
          "internalType": "address",
          "name": "_projectAddress",
          "type": "address"
        },
        {
          "internalType": "address",
          "name": "_userAddress",
          "type": "address"
        }
      ],
      "stateMutability": "view",
      "type": "function"
    },
    {
      "inputs": [],
      "name": "projectsCounter",
      "outputs": [
        {
          "internalType": "uint256",
          "name": "",
          "type": "uint256"
        }
      ],
      "stateMutability": "view",
      "type": "function"
    },
    {
      "inputs": [
        {
          "internalType": "string",
          "name": "_username",
          "type": "string"
        },
        {
          "internalType": "string",
          "name": "_email",
          "type": "string"
        },
        {
          "internalType": "string",
          "name": "_firstname",
          "type": "string"
        },
        {
          "internalType": "string",
          "name": "_lastname",
          "type": "string"
        },
        {
          "internalType": "uint256",
          "name": "_role",
          "type": "uint256"
        },
        {
          "internalType": "address",
          "name": "_walletAddress",
          "type": "address"
        }
      ],
      "name": "registerUser",
      "outputs": [],
      "stateMutability": "nonpayable",
      "type": "function"
    },
    {
      "inputs": [
        {
          "internalType": "uint256",
          "name": "",
          "type": "uint256"
        }
      ],
      "name": "requestsCompany",
      "outputs": [
        {
          "internalType": "uint256",
          "name": "_index",
          "type": "uint256"
        },
        {
          "internalType": "string",
          "name": "_title",
          "type": "string"
        },
        {
          "internalType": "string",
          "name": "_description",
          "type": "string"
        },
        {
          "internalType": "enum ProjectChain.RequestStatus",
          "name": "_status",
          "type": "uint8"
        },
        {
          "internalType": "enum ProjectChain.ProjectStatus",
          "name": "_projectStatus",
          "type": "uint8"
        },
        {
          "internalType": "address",
          "name": "_projectAddress",
          "type": "address"
        },
        {
          "internalType": "address",
          "name": "_userAddress",
          "type": "address"
        }
      ],
      "stateMutability": "view",
      "type": "function"
    },
    {
      "inputs": [],
      "name": "requestsCompanyCounter",
      "outputs": [
        {
          "internalType": "uint256",
          "name": "",
          "type": "uint256"
        }
      ],
      "stateMutability": "view",
      "type": "function"
    },
    {
      "inputs": [
        {
          "internalType": "uint256",
          "name": "",
          "type": "uint256"
        }
      ],
      "name": "requestsSupervisor",
      "outputs": [
        {
          "internalType": "uint256",
          "name": "_index",
          "type": "uint256"
        },
        {
          "internalType": "string",
          "name": "_title",
          "type": "string"
        },
        {
          "internalType": "string",
          "name": "_description",
          "type": "string"
        },
        {
          "internalType": "enum ProjectChain.RequestStatus",
          "name": "_status",
          "type": "uint8"
        },
        {
          "internalType": "enum ProjectChain.ProjectStatus",
          "name": "_projectStatus",
          "type": "uint8"
        },
        {
          "internalType": "address",
          "name": "_projectAddress",
          "type": "address"
        },
        {
          "internalType": "address",
          "name": "_userAddress",
          "type": "address"
        }
      ],
      "stateMutability": "view",
      "type": "function"
    },
    {
      "inputs": [],
      "name": "requestsSupervisorCounter",
      "outputs": [
        {
          "internalType": "uint256",
          "name": "",
          "type": "uint256"
        }
      ],
      "stateMutability": "view",
      "type": "function"
    },
    {
      "inputs": [
        {
          "internalType": "uint256",
          "name": "_status",
          "type": "uint256"
        },
        {
          "internalType": "uint256",
          "name": "_index",
          "type": "uint256"
        }
      ],
      "name": "updateRequestCompany",
      "outputs": [],
      "stateMutability": "nonpayable",
      "type": "function"
    },
    {
      "inputs": [
        {
          "internalType": "uint256",
          "name": "_status",
          "type": "uint256"
        },
        {
          "internalType": "uint256",
          "name": "_index",
          "type": "uint256"
        }
      ],
      "name": "updateRequestSupervisor",
      "outputs": [],
      "stateMutability": "nonpayable",
      "type": "function"
    },
    {
      "inputs": [
        {
          "internalType": "address",
          "name": "",
          "type": "address"
        }
      ],
      "name": "users",
      "outputs": [
        {
          "internalType": "uint256",
          "name": "_index",
          "type": "uint256"
        },
        {
          "internalType": "string",
          "name": "_username",
          "type": "string"
        },
        {
          "internalType": "string",
          "name": "_email",
          "type": "string"
        },
        {
          "internalType": "string",
          "name": "_firstname",
          "type": "string"
        },
        {
          "internalType": "string",
          "name": "_lastname",
          "type": "string"
        },
        {
          "internalType": "enum UserChain.Roles",
          "name": "_role",
          "type": "uint8"
        },
        {
          "internalType": "address",
          "name": "_walletAddress",
          "type": "address"
        }
      ],
      "stateMutability": "view",
      "type": "function"
    },
    {
      "inputs": [],
      "name": "usersCounter",
      "outputs": [
        {
          "internalType": "uint256",
          "name": "",
          "type": "uint256"
        }
      ],
      "stateMutability": "view",
      "type": "function"
    }
  ],
  "bytecode": "0x60806040526000600355600060065560006009556000600c556000600f5534801561002957600080fd5b50336000806101000a81548173ffffffffffffffffffffffffffffffffffffffff021916908373ffffffffffffffffffffffffffffffffffffffff16021790555033600460006101000a81548173ffffffffffffffffffffffffffffffffffffffff021916908373ffffffffffffffffffffffffffffffffffffffff16021790555033601160006101000a81548173ffffffffffffffffffffffffffffffffffffffff021916908373ffffffffffffffffffffffffffffffffffffffff1602179055506166f380620000fc6000396000f3fe608060405234801561001057600080fd5b50600436106101f05760003560e01c806397b829571161010f578063cc1ee4db116100a2578063e7418dc211610071578063e7418dc214610627578063f9cf86491461065d578063fb7fe17a14610693578063fe360ea5146106af576101f0565b8063cc1ee4db146105b1578063d67b1b99146105cf578063e2842d79146105ed578063e30692951461060b576101f0565b8063af21684f116100de578063af21684f14610521578063b2423c1e1461053f578063bef8c4651461055d578063c43dff531461057b576101f0565b806397b82957146104635780639e0c89a814610499578063a2bdedf4146104b5578063a87430ba146104eb576101f0565b80637e571188116101875780638da5cb5b116101565780638da5cb5b146103ef5780638e2661bb1461040d578063910097861461042b578063911c29a614610447576101f0565b80637e5711881461033457806380d038291461036b578063840e78fd1461038957806384afb5bb146103bf576101f0565b806353b3194c116101c357806353b3194c1461027b578063542bec4a146102b15780636386c1c7146102cd57806363c163c4146102fd576101f0565b8063400003db146101f5578063465757141461021357806347ee45b91461022f578063503a3f9e1461025f575b600080fd5b6101fd6106cd565b60405161020a9190615472565b60405180910390f35b61022d60048036038101906102289190615609565b610a0f565b005b610249600480360381019061024491906156f0565b610fcd565b60405161025691906157c7565b60405180910390f35b610279600480360381019061027491906157e9565b6112cd565b005b61029560048036038101906102909190615829565b61139c565b6040516102a897969594939291906158cd565b60405180910390f35b6102cb60048036038101906102c69190615951565b6115d3565b005b6102e760048036038101906102e291906156f0565b611a94565b6040516102f49190615afd565b60405180910390f35b610317600480360381019061031291906156f0565b611dd0565b60405161032b989796959493929190615b2e565b60405180910390f35b61034e60048036038101906103499190615829565b61200a565b604051610362989796959493929190615b2e565b60405180910390f35b610373612254565b6040516103809190615d2d565b60405180910390f35b6103a3600480360381019061039e91906156f0565b61255a565b6040516103b697969594939291906158cd565b60405180910390f35b6103d960048036038101906103d49190615d4f565b612781565b6040516103e69190615dab565b60405180910390f35b6103f76127db565b6040516104049190615dab565b60405180910390f35b6104156127ff565b6040516104229190615dc6565b60405180910390f35b61044560048036038101906104409190615de1565b612805565b005b610461600480360381019061045c9190615e21565b61292c565b005b61047d60048036038101906104789190615829565b612e9a565b6040516104909796959493929190615f1e565b60405180910390f35b6104b360048036038101906104ae91906157e9565b613046565b005b6104cf60048036038101906104ca9190615829565b613115565b6040516104e29796959493929190615faa565b60405180910390f35b610505600480360381019061050091906156f0565b6133b4565b6040516105189796959493929190615faa565b60405180910390f35b610529613643565b6040516105369190615dc6565b60405180910390f35b610547613649565b604051610554919061619a565b60405180910390f35b6105656138f8565b604051610572919061619a565b60405180910390f35b61059560048036038101906105909190615829565b613ba7565b6040516105a89796959493929190615f1e565b60405180910390f35b6105b9613d63565b6040516105c69190615dc6565b60405180910390f35b6105d7613d69565b6040516105e49190615dc6565b60405180910390f35b6105f5613d6f565b604051610602919061632f565b60405180910390f35b61062560048036038101906106209190615951565b6140b1565b005b610641600480360381019061063c9190615829565b61473e565b6040516106549796959493929190615f1e565b60405180910390f35b61067760048036038101906106729190615829565b6148ea565b60405161068a9796959493929190615f1e565b60405180910390f35b6106ad60048036038101906106a89190615951565b614aa6565b005b6106b7614f67565b6040516106c49190615dc6565b60405180910390f35b6060600a805480602002602001604051908101604052809291908181526020016000905b82821015610a065783829060005260206000209060060201604051806101000160405290816000820154815260200160018201805461072f90616380565b80601f016020809104026020016040519081016040528092919081815260200182805461075b90616380565b80156107a85780601f1061077d576101008083540402835291602001916107a8565b820191906000526020600020905b81548152906001019060200180831161078b57829003601f168201915b505050505081526020016002820180546107c190616380565b80601f01602080910402602001604051908101604052809291908181526020018280546107ed90616380565b801561083a5780601f1061080f5761010080835404028352916020019161083a565b820191906000526020600020905b81548152906001019060200180831161081d57829003601f168201915b5050505050815260200160038201805461085390616380565b80601f016020809104026020016040519081016040528092919081815260200182805461087f90616380565b80156108cc5780601f106108a1576101008083540402835291602001916108cc565b820191906000526020600020905b8154815290600101906020018083116108af57829003601f168201915b505050505081526020016004820160009054906101000a900460ff1660048111156108fa576108f961521e565b5b600481111561090c5761090b61521e565b5b81526020016004820160019054906101000a900460ff1660028111156109355761093461521e565b5b60028111156109475761094661521e565b5b81526020016004820160029054906101000a900473ffffffffffffffffffffffffffffffffffffffff1673ffffffffffffffffffffffffffffffffffffffff1673ffffffffffffffffffffffffffffffffffffffff1681526020016005820160009054906101000a900473ffffffffffffffffffffffffffffffffffffffff1673ffffffffffffffffffffffffffffffffffffffff1673ffffffffffffffffffffffffffffffffffffffff1681525050815260200190600101906106f1565b50505050905090565b6000610a526040518060400160405280601a81526020017f6373643f534073616c61733b646c413233345f442e3b735f6173000000000000815250600654612781565b9050600654600560008373ffffffffffffffffffffffffffffffffffffffff1673ffffffffffffffffffffffffffffffffffffffff1681526020019081526020016000206000018190555084600560008373ffffffffffffffffffffffffffffffffffffffff1673ffffffffffffffffffffffffffffffffffffffff1681526020019081526020016000206001019080519060200190610af3929190614fbd565b5083600560008373ffffffffffffffffffffffffffffffffffffffff1673ffffffffffffffffffffffffffffffffffffffff1681526020019081526020016000206002019080519060200190610b4a929190614fbd565b50826004811115610b5e57610b5d61521e565b5b600560008373ffffffffffffffffffffffffffffffffffffffff1673ffffffffffffffffffffffffffffffffffffffff16815260200190815260200160002060030160006101000a81548160ff02191690836004811115610bc257610bc161521e565b5b021790555081600560008373ffffffffffffffffffffffffffffffffffffffff1673ffffffffffffffffffffffffffffffffffffffff1681526020019081526020016000206004019080519060200190610c1d929190614fbd565b5080600560008373ffffffffffffffffffffffffffffffffffffffff1673ffffffffffffffffffffffffffffffffffffffff16815260200190815260200160002060050160006101000a81548173ffffffffffffffffffffffffffffffffffffffff021916908373ffffffffffffffffffffffffffffffffffffffff160217905550600460009054906101000a900473ffffffffffffffffffffffffffffffffffffffff16600560008373ffffffffffffffffffffffffffffffffffffffff1673ffffffffffffffffffffffffffffffffffffffff16815260200190815260200160002060060160006101000a81548173ffffffffffffffffffffffffffffffffffffffff021916908373ffffffffffffffffffffffffffffffffffffffff1602179055507f26dcd90797c08da6e2f8f632e15a194aa091dfdbda0db17125d4ab5bece391d56006548686866004811115610d7b57610d7a61521e565b5b8686600460009054906101000a900473ffffffffffffffffffffffffffffffffffffffff16604051610db397969594939291906158cd565b60405180910390a160076040518060e001604052806006548152602001878152602001868152602001856004811115610def57610dee61521e565b5b6004811115610e0157610e0061521e565b5b81526020018481526020018373ffffffffffffffffffffffffffffffffffffffff168152602001600460009054906101000a900473ffffffffffffffffffffffffffffffffffffffff1673ffffffffffffffffffffffffffffffffffffffff168152509080600181540180825580915050600190039060005260206000209060070201600090919091909150600082015181600001556020820151816001019080519060200190610eb3929190614fbd565b506040820151816002019080519060200190610ed0929190614fbd565b5060608201518160030160006101000a81548160ff02191690836004811115610efc57610efb61521e565b5b02179055506080820151816004019080519060200190610f1d929190614fbd565b5060a08201518160050160006101000a81548173ffffffffffffffffffffffffffffffffffffffff021916908373ffffffffffffffffffffffffffffffffffffffff16021790555060c08201518160060160006101000a81548173ffffffffffffffffffffffffffffffffffffffff021916908373ffffffffffffffffffffffffffffffffffffffff160217905550505060066000815480929190610fc1906163e1565b91905055505050505050565b610fd5615043565b600560008373ffffffffffffffffffffffffffffffffffffffff1673ffffffffffffffffffffffffffffffffffffffff1681526020019081526020016000206040518060e00160405290816000820154815260200160018201805461103990616380565b80601f016020809104026020016040519081016040528092919081815260200182805461106590616380565b80156110b25780601f10611087576101008083540402835291602001916110b2565b820191906000526020600020905b81548152906001019060200180831161109557829003601f168201915b505050505081526020016002820180546110cb90616380565b80601f01602080910402602001604051908101604052809291908181526020018280546110f790616380565b80156111445780601f1061111957610100808354040283529160200191611144565b820191906000526020600020905b81548152906001019060200180831161112757829003601f168201915b505050505081526020016003820160009054906101000a900460ff1660048111156111725761117161521e565b5b60048111156111845761118361521e565b5b815260200160048201805461119890616380565b80601f01602080910402602001604051908101604052809291908181526020018280546111c490616380565b80156112115780601f106111e657610100808354040283529160200191611211565b820191906000526020600020905b8154815290600101906020018083116111f457829003601f168201915b505050505081526020016005820160009054906101000a900473ffffffffffffffffffffffffffffffffffffffff1673ffffffffffffffffffffffffffffffffffffffff1673ffffffffffffffffffffffffffffffffffffffff1681526020016006820160009054906101000a900473ffffffffffffffffffffffffffffffffffffffff1673ffffffffffffffffffffffffffffffffffffffff1673ffffffffffffffffffffffffffffffffffffffff16815250509050919050565b8160028111156112e0576112df61521e565b5b600e600083815260200190815260200160002060030160006101000a81548160ff021916908360028111156113185761131761521e565b5b02179055506000600e600083815260200190815260200160002060000154905082600281111561134b5761134a61521e565b5b6010828154811061135f5761135e61642a565b5b906000526020600020906005020160030160006101000a81548160ff021916908360028111156113925761139161521e565b5b0217905550505050565b600781815481106113ac57600080fd5b90600052602060002090600702016000915090508060000154908060010180546113d590616380565b80601f016020809104026020016040519081016040528092919081815260200182805461140190616380565b801561144e5780601f106114235761010080835404028352916020019161144e565b820191906000526020600020905b81548152906001019060200180831161143157829003601f168201915b50505050509080600201805461146390616380565b80601f016020809104026020016040519081016040528092919081815260200182805461148f90616380565b80156114dc5780601f106114b1576101008083540402835291602001916114dc565b820191906000526020600020905b8154815290600101906020018083116114bf57829003601f168201915b5050505050908060030160009054906101000a900460ff169080600401805461150490616380565b80601f016020809104026020016040519081016040528092919081815260200182805461153090616380565b801561157d5780601f106115525761010080835404028352916020019161157d565b820191906000526020600020905b81548152906001019060200180831161156057829003601f168201915b5050505050908060050160009054906101000a900473ffffffffffffffffffffffffffffffffffffffff16908060060160009054906101000a900473ffffffffffffffffffffffffffffffffffffffff16905087565b600f54600e6000600f5481526020019081526020016000206000018190555084600e6000600f548152602001908152602001600020600101908051906020019061161e929190614fbd565b5083600e6000600f548152602001908152602001600020600201908051906020019061164b929190614fbd565b5082600281111561165f5761165e61521e565b5b600e6000600f54815260200190815260200160002060030160006101000a81548160ff021916908360028111156116995761169861521e565b5b02179055508160048111156116b1576116b061521e565b5b600e6000600f54815260200190815260200160002060030160016101000a81548160ff021916908360048111156116eb576116ea61521e565b5b021790555080600e6000600f54815260200190815260200160002060030160026101000a81548173ffffffffffffffffffffffffffffffffffffffff021916908373ffffffffffffffffffffffffffffffffffffffff160217905550600460009054906101000a900473ffffffffffffffffffffffffffffffffffffffff16600e6000600f54815260200190815260200160002060040160006101000a81548173ffffffffffffffffffffffffffffffffffffffff021916908373ffffffffffffffffffffffffffffffffffffffff1602179055507fe9125983d774c70dfd0a9a547ef745a0dd861b444232a759f8e31adb72514045600f5486868660028111156117f9576117f861521e565b5b86600481111561180c5761180b61521e565b5b86600460009054906101000a900473ffffffffffffffffffffffffffffffffffffffff166040516118439796959493929190615f1e565b60405180910390a160106040518060e00160405280600f54815260200187815260200186815260200185600281111561187f5761187e61521e565b5b60028111156118915761189061521e565b5b81526020018460048111156118a9576118a861521e565b5b60048111156118bb576118ba61521e565b5b81526020018373ffffffffffffffffffffffffffffffffffffffff168152602001600460009054906101000a900473ffffffffffffffffffffffffffffffffffffffff1673ffffffffffffffffffffffffffffffffffffffff168152509080600181540180825580915050600190039060005260206000209060050201600090919091909150600082015181600001556020820151816001019080519060200190611967929190614fbd565b506040820151816002019080519060200190611984929190614fbd565b5060608201518160030160006101000a81548160ff021916908360028111156119b0576119af61521e565b5b021790555060808201518160030160016101000a81548160ff021916908360048111156119e0576119df61521e565b5b021790555060a08201518160030160026101000a81548173ffffffffffffffffffffffffffffffffffffffff021916908373ffffffffffffffffffffffffffffffffffffffff16021790555060c08201518160040160006101000a81548173ffffffffffffffffffffffffffffffffffffffff021916908373ffffffffffffffffffffffffffffffffffffffff1602179055505050600f6000815480929190611a88906163e1565b91905055505050505050565b611a9c6150be565b600160008373ffffffffffffffffffffffffffffffffffffffff1673ffffffffffffffffffffffffffffffffffffffff1681526020019081526020016000206040518060e001604052908160008201548152602001600182018054611b0090616380565b80601f0160208091040260200160405190810160405280929190818152602001828054611b2c90616380565b8015611b795780601f10611b4e57610100808354040283529160200191611b79565b820191906000526020600020905b815481529060010190602001808311611b5c57829003601f168201915b50505050508152602001600282018054611b9290616380565b80601f0160208091040260200160405190810160405280929190818152602001828054611bbe90616380565b8015611c0b5780601f10611be057610100808354040283529160200191611c0b565b820191906000526020600020905b815481529060010190602001808311611bee57829003601f168201915b50505050508152602001600382018054611c2490616380565b80601f0160208091040260200160405190810160405280929190818152602001828054611c5090616380565b8015611c9d5780601f10611c7257610100808354040283529160200191611c9d565b820191906000526020600020905b815481529060010190602001808311611c8057829003601f168201915b50505050508152602001600482018054611cb690616380565b80601f0160208091040260200160405190810160405280929190818152602001828054611ce290616380565b8015611d2f5780601f10611d0457610100808354040283529160200191611d2f565b820191906000526020600020905b815481529060010190602001808311611d1257829003601f168201915b505050505081526020016005820160009054906101000a900460ff166003811115611d5d57611d5c61521e565b5b6003811115611d6f57611d6e61521e565b5b81526020016005820160019054906101000a900473ffffffffffffffffffffffffffffffffffffffff1673ffffffffffffffffffffffffffffffffffffffff1673ffffffffffffffffffffffffffffffffffffffff16815250509050919050565b6008602052806000526040600020600091509050806000015490806001018054611df990616380565b80601f0160208091040260200160405190810160405280929190818152602001828054611e2590616380565b8015611e725780601f10611e4757610100808354040283529160200191611e72565b820191906000526020600020905b815481529060010190602001808311611e5557829003601f168201915b505050505090806002018054611e8790616380565b80601f0160208091040260200160405190810160405280929190818152602001828054611eb390616380565b8015611f005780601f10611ed557610100808354040283529160200191611f00565b820191906000526020600020905b815481529060010190602001808311611ee357829003601f168201915b505050505090806003018054611f1590616380565b80601f0160208091040260200160405190810160405280929190818152602001828054611f4190616380565b8015611f8e5780601f10611f6357610100808354040283529160200191611f8e565b820191906000526020600020905b815481529060010190602001808311611f7157829003601f168201915b5050505050908060040160009054906101000a900460ff16908060040160019054906101000a900460ff16908060040160029054906101000a900473ffffffffffffffffffffffffffffffffffffffff16908060050160009054906101000a900473ffffffffffffffffffffffffffffffffffffffff16905088565b600a818154811061201a57600080fd5b906000526020600020906006020160009150905080600001549080600101805461204390616380565b80601f016020809104026020016040519081016040528092919081815260200182805461206f90616380565b80156120bc5780601f10612091576101008083540402835291602001916120bc565b820191906000526020600020905b81548152906001019060200180831161209f57829003601f168201915b5050505050908060020180546120d190616380565b80601f01602080910402602001604051908101604052809291908181526020018280546120fd90616380565b801561214a5780601f1061211f5761010080835404028352916020019161214a565b820191906000526020600020905b81548152906001019060200180831161212d57829003601f168201915b50505050509080600301805461215f90616380565b80601f016020809104026020016040519081016040528092919081815260200182805461218b90616380565b80156121d85780601f106121ad576101008083540402835291602001916121d8565b820191906000526020600020905b8154815290600101906020018083116121bb57829003601f168201915b5050505050908060040160009054906101000a900460ff16908060040160019054906101000a900460ff16908060040160029054906101000a900473ffffffffffffffffffffffffffffffffffffffff16908060050160009054906101000a900473ffffffffffffffffffffffffffffffffffffffff16905088565b60606007805480602002602001604051908101604052809291908181526020016000905b8282101561255157838290600052602060002090600702016040518060e0016040529081600082015481526020016001820180546122b590616380565b80601f01602080910402602001604051908101604052809291908181526020018280546122e190616380565b801561232e5780601f106123035761010080835404028352916020019161232e565b820191906000526020600020905b81548152906001019060200180831161231157829003601f168201915b5050505050815260200160028201805461234790616380565b80601f016020809104026020016040519081016040528092919081815260200182805461237390616380565b80156123c05780601f10612395576101008083540402835291602001916123c0565b820191906000526020600020905b8154815290600101906020018083116123a357829003601f168201915b505050505081526020016003820160009054906101000a900460ff1660048111156123ee576123ed61521e565b5b6004811115612400576123ff61521e565b5b815260200160048201805461241490616380565b80601f016020809104026020016040519081016040528092919081815260200182805461244090616380565b801561248d5780601f106124625761010080835404028352916020019161248d565b820191906000526020600020905b81548152906001019060200180831161247057829003601f168201915b505050505081526020016005820160009054906101000a900473ffffffffffffffffffffffffffffffffffffffff1673ffffffffffffffffffffffffffffffffffffffff1673ffffffffffffffffffffffffffffffffffffffff1681526020016006820160009054906101000a900473ffffffffffffffffffffffffffffffffffffffff1673ffffffffffffffffffffffffffffffffffffffff1673ffffffffffffffffffffffffffffffffffffffff168152505081526020019060010190612278565b50505050905090565b600560205280600052604060002060009150905080600001549080600101805461258390616380565b80601f01602080910402602001604051908101604052809291908181526020018280546125af90616380565b80156125fc5780601f106125d1576101008083540402835291602001916125fc565b820191906000526020600020905b8154815290600101906020018083116125df57829003601f168201915b50505050509080600201805461261190616380565b80601f016020809104026020016040519081016040528092919081815260200182805461263d90616380565b801561268a5780601f1061265f5761010080835404028352916020019161268a565b820191906000526020600020905b81548152906001019060200180831161266d57829003601f168201915b5050505050908060030160009054906101000a900460ff16908060040180546126b290616380565b80601f01602080910402602001604051908101604052809291908181526020018280546126de90616380565b801561272b5780601f106127005761010080835404028352916020019161272b565b820191906000526020600020905b81548152906001019060200180831161270e57829003601f168201915b5050505050908060050160009054906101000a900473ffffffffffffffffffffffffffffffffffffffff16908060060160009054906101000a900473ffffffffffffffffffffffffffffffffffffffff16905087565b600082600460009054906101000a900473ffffffffffffffffffffffffffffffffffffffff16836040516020016127ba939291906164fe565b6040516020818303038152906040528051906020012060001c905092915050565b60008054906101000a900473ffffffffffffffffffffffffffffffffffffffff1681565b600c5481565b8160038111156128185761281761521e565b5b600160008373ffffffffffffffffffffffffffffffffffffffff1673ffffffffffffffffffffffffffffffffffffffff16815260200190815260200160002060050160006101000a81548160ff0219169083600381111561287c5761287b61521e565b5b02179055506000600160008373ffffffffffffffffffffffffffffffffffffffff1673ffffffffffffffffffffffffffffffffffffffff1681526020019081526020016000206000015490508260038111156128db576128da61521e565b5b600282815481106128ef576128ee61642a565b5b906000526020600020906006020160050160006101000a81548160ff021916908360038111156129225761292161521e565b5b0217905550505050565b3373ffffffffffffffffffffffffffffffffffffffff1660008054906101000a900473ffffffffffffffffffffffffffffffffffffffff1673ffffffffffffffffffffffffffffffffffffffff16146129ba576040517f08c379a00000000000000000000000000000000000000000000000000000000081526004016129b190616583565b60405180910390fd5b600354600160008373ffffffffffffffffffffffffffffffffffffffff1673ffffffffffffffffffffffffffffffffffffffff1681526020019081526020016000206000018190555085600160008373ffffffffffffffffffffffffffffffffffffffff1673ffffffffffffffffffffffffffffffffffffffff1681526020019081526020016000206001019080519060200190612a59929190614fbd565b5084600160008373ffffffffffffffffffffffffffffffffffffffff1673ffffffffffffffffffffffffffffffffffffffff1681526020019081526020016000206002019080519060200190612ab0929190614fbd565b5083600160008373ffffffffffffffffffffffffffffffffffffffff1673ffffffffffffffffffffffffffffffffffffffff1681526020019081526020016000206003019080519060200190612b07929190614fbd565b5082600160008373ffffffffffffffffffffffffffffffffffffffff1673ffffffffffffffffffffffffffffffffffffffff1681526020019081526020016000206004019080519060200190612b5e929190614fbd565b50816003811115612b7257612b7161521e565b5b600160008373ffffffffffffffffffffffffffffffffffffffff1673ffffffffffffffffffffffffffffffffffffffff16815260200190815260200160002060050160006101000a81548160ff02191690836003811115612bd657612bd561521e565b5b021790555080600160008373ffffffffffffffffffffffffffffffffffffffff1673ffffffffffffffffffffffffffffffffffffffff16815260200190815260200160002060050160016101000a81548173ffffffffffffffffffffffffffffffffffffffff021916908373ffffffffffffffffffffffffffffffffffffffff160217905550816003811115612c6f57612c6e61521e565b5b6003811115612c8157612c8061521e565b5b86604051612c8f91906165a3565b60405180910390208273ffffffffffffffffffffffffffffffffffffffff167fddb5d1667467713eb503e7e133811c91a231cb6b63f11930889c6004f36c35ee888888604051612ce1939291906165ba565b60405180910390a460026040518060e001604052806003548152602001888152602001878152602001868152602001858152602001846003811115612d2957612d2861521e565b5b6003811115612d3b57612d3a61521e565b5b81526020018373ffffffffffffffffffffffffffffffffffffffff168152509080600181540180825580915050600190039060005260206000209060060201600090919091909150600082015181600001556020820151816001019080519060200190612da9929190614fbd565b506040820151816002019080519060200190612dc6929190614fbd565b506060820151816003019080519060200190612de3929190614fbd565b506080820151816004019080519060200190612e00929190614fbd565b5060a08201518160050160006101000a81548160ff02191690836003811115612e2c57612e2b61521e565b5b021790555060c08201518160050160016101000a81548173ffffffffffffffffffffffffffffffffffffffff021916908373ffffffffffffffffffffffffffffffffffffffff160217905550505060036000815480929190612e8d906163e1565b9190505550505050505050565b600b602052806000526040600020600091509050806000015490806001018054612ec390616380565b80601f0160208091040260200160405190810160405280929190818152602001828054612eef90616380565b8015612f3c5780601f10612f1157610100808354040283529160200191612f3c565b820191906000526020600020905b815481529060010190602001808311612f1f57829003601f168201915b505050505090806002018054612f5190616380565b80601f0160208091040260200160405190810160405280929190818152602001828054612f7d90616380565b8015612fca5780601f10612f9f57610100808354040283529160200191612fca565b820191906000526020600020905b815481529060010190602001808311612fad57829003601f168201915b5050505050908060030160009054906101000a900460ff16908060030160019054906101000a900460ff16908060030160029054906101000a900473ffffffffffffffffffffffffffffffffffffffff16908060040160009054906101000a900473ffffffffffffffffffffffffffffffffffffffff16905087565b8160028111156130595761305861521e565b5b600b600083815260200190815260200160002060030160006101000a81548160ff021916908360028111156130915761309061521e565b5b02179055506000600b60008381526020019081526020016000206000015490508260028111156130c4576130c361521e565b5b600d82815481106130d8576130d761642a565b5b906000526020600020906005020160030160006101000a81548160ff0219169083600281111561310b5761310a61521e565b5b0217905550505050565b6002818154811061312557600080fd5b906000526020600020906006020160009150905080600001549080600101805461314e90616380565b80601f016020809104026020016040519081016040528092919081815260200182805461317a90616380565b80156131c75780601f1061319c576101008083540402835291602001916131c7565b820191906000526020600020905b8154815290600101906020018083116131aa57829003601f168201915b5050505050908060020180546131dc90616380565b80601f016020809104026020016040519081016040528092919081815260200182805461320890616380565b80156132555780601f1061322a57610100808354040283529160200191613255565b820191906000526020600020905b81548152906001019060200180831161323857829003601f168201915b50505050509080600301805461326a90616380565b80601f016020809104026020016040519081016040528092919081815260200182805461329690616380565b80156132e35780601f106132b8576101008083540402835291602001916132e3565b820191906000526020600020905b8154815290600101906020018083116132c657829003601f168201915b5050505050908060040180546132f890616380565b80601f016020809104026020016040519081016040528092919081815260200182805461332490616380565b80156133715780601f1061334657610100808354040283529160200191613371565b820191906000526020600020905b81548152906001019060200180831161335457829003601f168201915b5050505050908060050160009054906101000a900460ff16908060050160019054906101000a900473ffffffffffffffffffffffffffffffffffffffff16905087565b60016020528060005260406000206000915090508060000154908060010180546133dd90616380565b80601f016020809104026020016040519081016040528092919081815260200182805461340990616380565b80156134565780601f1061342b57610100808354040283529160200191613456565b820191906000526020600020905b81548152906001019060200180831161343957829003601f168201915b50505050509080600201805461346b90616380565b80601f016020809104026020016040519081016040528092919081815260200182805461349790616380565b80156134e45780601f106134b9576101008083540402835291602001916134e4565b820191906000526020600020905b8154815290600101906020018083116134c757829003601f168201915b5050505050908060030180546134f990616380565b80601f016020809104026020016040519081016040528092919081815260200182805461352590616380565b80156135725780601f1061354757610100808354040283529160200191613572565b820191906000526020600020905b81548152906001019060200180831161355557829003601f168201915b50505050509080600401805461358790616380565b80601f01602080910402602001604051908101604052809291908181526020018280546135b390616380565b80156136005780601f106135d557610100808354040283529160200191613600565b820191906000526020600020905b8154815290600101906020018083116135e357829003601f168201915b5050505050908060050160009054906101000a900460ff16908060050160019054906101000a900473ffffffffffffffffffffffffffffffffffffffff16905087565b600f5481565b60606010805480602002602001604051908101604052809291908181526020016000905b828210156138ef57838290600052602060002090600502016040518060e0016040529081600082015481526020016001820180546136aa90616380565b80601f01602080910402602001604051908101604052809291908181526020018280546136d690616380565b80156137235780601f106136f857610100808354040283529160200191613723565b820191906000526020600020905b81548152906001019060200180831161370657829003601f168201915b5050505050815260200160028201805461373c90616380565b80601f016020809104026020016040519081016040528092919081815260200182805461376890616380565b80156137b55780601f1061378a576101008083540402835291602001916137b5565b820191906000526020600020905b81548152906001019060200180831161379857829003601f168201915b505050505081526020016003820160009054906101000a900460ff1660028111156137e3576137e261521e565b5b60028111156137f5576137f461521e565b5b81526020016003820160019054906101000a900460ff16600481111561381e5761381d61521e565b5b60048111156138305761382f61521e565b5b81526020016003820160029054906101000a900473ffffffffffffffffffffffffffffffffffffffff1673ffffffffffffffffffffffffffffffffffffffff1673ffffffffffffffffffffffffffffffffffffffff1681526020016004820160009054906101000a900473ffffffffffffffffffffffffffffffffffffffff1673ffffffffffffffffffffffffffffffffffffffff1673ffffffffffffffffffffffffffffffffffffffff16815250508152602001906001019061366d565b50505050905090565b6060600d805480602002602001604051908101604052809291908181526020016000905b82821015613b9e57838290600052602060002090600502016040518060e00160405290816000820154815260200160018201805461395990616380565b80601f016020809104026020016040519081016040528092919081815260200182805461398590616380565b80156139d25780601f106139a7576101008083540402835291602001916139d2565b820191906000526020600020905b8154815290600101906020018083116139b557829003601f168201915b505050505081526020016002820180546139eb90616380565b80601f0160208091040260200160405190810160405280929190818152602001828054613a1790616380565b8015613a645780601f10613a3957610100808354040283529160200191613a64565b820191906000526020600020905b815481529060010190602001808311613a4757829003601f168201915b505050505081526020016003820160009054906101000a900460ff166002811115613a9257613a9161521e565b5b6002811115613aa457613aa361521e565b5b81526020016003820160019054906101000a900460ff166004811115613acd57613acc61521e565b5b6004811115613adf57613ade61521e565b5b81526020016003820160029054906101000a900473ffffffffffffffffffffffffffffffffffffffff1673ffffffffffffffffffffffffffffffffffffffff1673ffffffffffffffffffffffffffffffffffffffff1681526020016004820160009054906101000a900473ffffffffffffffffffffffffffffffffffffffff1673ffffffffffffffffffffffffffffffffffffffff1673ffffffffffffffffffffffffffffffffffffffff16815250508152602001906001019061391c565b50505050905090565b600d8181548110613bb757600080fd5b9060005260206000209060050201600091509050806000015490806001018054613be090616380565b80601f0160208091040260200160405190810160405280929190818152602001828054613c0c90616380565b8015613c595780601f10613c2e57610100808354040283529160200191613c59565b820191906000526020600020905b815481529060010190602001808311613c3c57829003601f168201915b505050505090806002018054613c6e90616380565b80601f0160208091040260200160405190810160405280929190818152602001828054613c9a90616380565b8015613ce75780601f10613cbc57610100808354040283529160200191613ce7565b820191906000526020600020905b815481529060010190602001808311613cca57829003601f168201915b5050505050908060030160009054906101000a900460ff16908060030160019054906101000a900460ff16908060030160029054906101000a900473ffffffffffffffffffffffffffffffffffffffff16908060040160009054906101000a900473ffffffffffffffffffffffffffffffffffffffff16905087565b60095481565b60035481565b60606002805480602002602001604051908101604052809291908181526020016000905b828210156140a857838290600052602060002090600602016040518060e001604052908160008201548152602001600182018054613dd090616380565b80601f0160208091040260200160405190810160405280929190818152602001828054613dfc90616380565b8015613e495780601f10613e1e57610100808354040283529160200191613e49565b820191906000526020600020905b815481529060010190602001808311613e2c57829003601f168201915b50505050508152602001600282018054613e6290616380565b80601f0160208091040260200160405190810160405280929190818152602001828054613e8e90616380565b8015613edb5780601f10613eb057610100808354040283529160200191613edb565b820191906000526020600020905b815481529060010190602001808311613ebe57829003601f168201915b50505050508152602001600382018054613ef490616380565b80601f0160208091040260200160405190810160405280929190818152602001828054613f2090616380565b8015613f6d5780601f10613f4257610100808354040283529160200191613f6d565b820191906000526020600020905b815481529060010190602001808311613f5057829003601f168201915b50505050508152602001600482018054613f8690616380565b80601f0160208091040260200160405190810160405280929190818152602001828054613fb290616380565b8015613fff5780601f10613fd457610100808354040283529160200191613fff565b820191906000526020600020905b815481529060010190602001808311613fe257829003601f168201915b505050505081526020016005820160009054906101000a900460ff16600381111561402d5761402c61521e565b5b600381111561403f5761403e61521e565b5b81526020016005820160019054906101000a900473ffffffffffffffffffffffffffffffffffffffff1673ffffffffffffffffffffffffffffffffffffffff1673ffffffffffffffffffffffffffffffffffffffff168152505081526020019060010190613d93565b50505050905090565b600954600860008373ffffffffffffffffffffffffffffffffffffffff1673ffffffffffffffffffffffffffffffffffffffff1681526020019081526020016000206000018190555084600860008373ffffffffffffffffffffffffffffffffffffffff1673ffffffffffffffffffffffffffffffffffffffff1681526020019081526020016000206001019080519060200190614150929190614fbd565b5083600860008373ffffffffffffffffffffffffffffffffffffffff1673ffffffffffffffffffffffffffffffffffffffff16815260200190815260200160002060020190805190602001906141a7929190614fbd565b5060405180602001604052806000815250600860008373ffffffffffffffffffffffffffffffffffffffff1673ffffffffffffffffffffffffffffffffffffffff168152602001908152602001600020600301908051906020019061420d929190614fbd565b508260048111156142215761422061521e565b5b600860008373ffffffffffffffffffffffffffffffffffffffff1673ffffffffffffffffffffffffffffffffffffffff16815260200190815260200160002060040160006101000a81548160ff021916908360048111156142855761428461521e565b5b021790555081600281111561429d5761429c61521e565b5b600860008373ffffffffffffffffffffffffffffffffffffffff1673ffffffffffffffffffffffffffffffffffffffff16815260200190815260200160002060040160016101000a81548160ff021916908360028111156143015761430061521e565b5b021790555080600860008373ffffffffffffffffffffffffffffffffffffffff1673ffffffffffffffffffffffffffffffffffffffff16815260200190815260200160002060040160026101000a81548173ffffffffffffffffffffffffffffffffffffffff021916908373ffffffffffffffffffffffffffffffffffffffff160217905550600460009054906101000a900473ffffffffffffffffffffffffffffffffffffffff16600860008373ffffffffffffffffffffffffffffffffffffffff1673ffffffffffffffffffffffffffffffffffffffff16815260200190815260200160002060050160006101000a81548173ffffffffffffffffffffffffffffffffffffffff021916908373ffffffffffffffffffffffffffffffffffffffff1602179055506144378585858585614f6d565b7f1e6759037abd29f5a329863e8d1eb53427efcbc5c8fd3c8091384640fc33929560095486868660048111156144705761446f61521e565b5b8660028111156144835761448261521e565b5b86600460009054906101000a900473ffffffffffffffffffffffffffffffffffffffff166040516144ba979695949392919061662c565b60405180910390a1600a604051806101000160405280600954815260200187815260200186815260200160405180602001604052806000815250815260200185600481111561450c5761450b61521e565b5b600481111561451e5761451d61521e565b5b81526020018460028111156145365761453561521e565b5b60028111156145485761454761521e565b5b81526020018373ffffffffffffffffffffffffffffffffffffffff168152602001600460009054906101000a900473ffffffffffffffffffffffffffffffffffffffff1673ffffffffffffffffffffffffffffffffffffffff1681525090806001815401808255809150506001900390600052602060002090600602016000909190919091506000820151816000015560208201518160010190805190602001906145f4929190614fbd565b506040820151816002019080519060200190614611929190614fbd565b50606082015181600301908051906020019061462e929190614fbd565b5060808201518160040160006101000a81548160ff0219169083600481111561465a5761465961521e565b5b021790555060a08201518160040160016101000a81548160ff0219169083600281111561468a5761468961521e565b5b021790555060c08201518160040160026101000a81548173ffffffffffffffffffffffffffffffffffffffff021916908373ffffffffffffffffffffffffffffffffffffffff16021790555060e08201518160050160006101000a81548173ffffffffffffffffffffffffffffffffffffffff021916908373ffffffffffffffffffffffffffffffffffffffff160217905550505060096000815480929190614732906163e1565b91905055505050505050565b600e60205280600052604060002060009150905080600001549080600101805461476790616380565b80601f016020809104026020016040519081016040528092919081815260200182805461479390616380565b80156147e05780601f106147b5576101008083540402835291602001916147e0565b820191906000526020600020905b8154815290600101906020018083116147c357829003601f168201915b5050505050908060020180546147f590616380565b80601f016020809104026020016040519081016040528092919081815260200182805461482190616380565b801561486e5780601f106148435761010080835404028352916020019161486e565b820191906000526020600020905b81548152906001019060200180831161485157829003601f168201915b5050505050908060030160009054906101000a900460ff16908060030160019054906101000a900460ff16908060030160029054906101000a900473ffffffffffffffffffffffffffffffffffffffff16908060040160009054906101000a900473ffffffffffffffffffffffffffffffffffffffff16905087565b601081815481106148fa57600080fd5b906000526020600020906005020160009150905080600001549080600101805461492390616380565b80601f016020809104026020016040519081016040528092919081815260200182805461494f90616380565b801561499c5780601f106149715761010080835404028352916020019161499c565b820191906000526020600020905b81548152906001019060200180831161497f57829003601f168201915b5050505050908060020180546149b190616380565b80601f01602080910402602001604051908101604052809291908181526020018280546149dd90616380565b8015614a2a5780601f106149ff57610100808354040283529160200191614a2a565b820191906000526020600020905b815481529060010190602001808311614a0d57829003601f168201915b5050505050908060030160009054906101000a900460ff16908060030160019054906101000a900460ff16908060030160029054906101000a900473ffffffffffffffffffffffffffffffffffffffff16908060040160009054906101000a900473ffffffffffffffffffffffffffffffffffffffff16905087565b600c54600b6000600c5481526020019081526020016000206000018190555084600b6000600c5481526020019081526020016000206001019080519060200190614af1929190614fbd565b5083600b6000600c5481526020019081526020016000206002019080519060200190614b1e929190614fbd565b50826002811115614b3257614b3161521e565b5b600b6000600c54815260200190815260200160002060030160006101000a81548160ff02191690836002811115614b6c57614b6b61521e565b5b0217905550816004811115614b8457614b8361521e565b5b600b6000600c54815260200190815260200160002060030160016101000a81548160ff02191690836004811115614bbe57614bbd61521e565b5b021790555080600b6000600c54815260200190815260200160002060030160026101000a81548173ffffffffffffffffffffffffffffffffffffffff021916908373ffffffffffffffffffffffffffffffffffffffff160217905550600460009054906101000a900473ffffffffffffffffffffffffffffffffffffffff16600b6000600c54815260200190815260200160002060040160006101000a81548173ffffffffffffffffffffffffffffffffffffffff021916908373ffffffffffffffffffffffffffffffffffffffff1602179055507fe9125983d774c70dfd0a9a547ef745a0dd861b444232a759f8e31adb72514045600c548686866002811115614ccc57614ccb61521e565b5b866004811115614cdf57614cde61521e565b5b86600460009054906101000a900473ffffffffffffffffffffffffffffffffffffffff16604051614d169796959493929190615f1e565b60405180910390a1600d6040518060e00160405280600c548152602001878152602001868152602001856002811115614d5257614d5161521e565b5b6002811115614d6457614d6361521e565b5b8152602001846004811115614d7c57614d7b61521e565b5b6004811115614d8e57614d8d61521e565b5b81526020018373ffffffffffffffffffffffffffffffffffffffff168152602001600460009054906101000a900473ffffffffffffffffffffffffffffffffffffffff1673ffffffffffffffffffffffffffffffffffffffff168152509080600181540180825580915050600190039060005260206000209060050201600090919091909150600082015181600001556020820151816001019080519060200190614e3a929190614fbd565b506040820151816002019080519060200190614e57929190614fbd565b5060608201518160030160006101000a81548160ff02191690836002811115614e8357614e8261521e565b5b021790555060808201518160030160016101000a81548160ff02191690836004811115614eb357614eb261521e565b5b021790555060a08201518160030160026101000a81548173ffffffffffffffffffffffffffffffffffffffff021916908373ffffffffffffffffffffffffffffffffffffffff16021790555060c08201518160040160006101000a81548173ffffffffffffffffffffffffffffffffffffffff021916908373ffffffffffffffffffffffffffffffffffffffff1602179055505050600c6000815480929190614f5b906163e1565b91905055505050505050565b60065481565b6001831480614f7c5750600383145b80614f875750600483145b15614f9e57614f998585858585614aa6565b614fb6565b6002831415614fb557614fb485858585856115d3565b5b5b5050505050565b828054614fc990616380565b90600052602060002090601f016020900481019282614feb5760008555615032565b82601f1061500457805160ff1916838001178555615032565b82800160010185558215615032579182015b82811115615031578251825591602001919060010190615016565b5b50905061503f9190615123565b5090565b6040518060e00160405280600081526020016060815260200160608152602001600060048111156150775761507661521e565b5b815260200160608152602001600073ffffffffffffffffffffffffffffffffffffffff168152602001600073ffffffffffffffffffffffffffffffffffffffff1681525090565b6040518060e00160405280600081526020016060815260200160608152602001606081526020016060815260200160006003811115615100576150ff61521e565b5b8152602001600073ffffffffffffffffffffffffffffffffffffffff1681525090565b5b8082111561513c576000816000905550600101615124565b5090565b600081519050919050565b600082825260208201905092915050565b6000819050602082019050919050565b6000819050919050565b61517f8161516c565b82525050565b600081519050919050565b600082825260208201905092915050565b60005b838110156151bf5780820151818401526020810190506151a4565b838111156151ce576000848401525b50505050565b6000601f19601f8301169050919050565b60006151f082615185565b6151fa8185615190565b935061520a8185602086016151a1565b615213816151d4565b840191505092915050565b7f4e487b7100000000000000000000000000000000000000000000000000000000600052602160045260246000fd5b6005811061525e5761525d61521e565b5b50565b600081905061526f8261524d565b919050565b600061527f82615261565b9050919050565b61528f81615274565b82525050565b600381106152a6576152a561521e565b5b50565b60008190506152b782615295565b919050565b60006152c7826152a9565b9050919050565b6152d7816152bc565b82525050565b600073ffffffffffffffffffffffffffffffffffffffff82169050919050565b6000615308826152dd565b9050919050565b615318816152fd565b82525050565b6000610100830160008301516153376000860182615176565b506020830151848203602086015261534f82826151e5565b9150506040830151848203604086015261536982826151e5565b9150506060830151848203606086015261538382826151e5565b91505060808301516153986080860182615286565b5060a08301516153ab60a08601826152ce565b5060c08301516153be60c086018261530f565b5060e08301516153d160e086018261530f565b508091505092915050565b60006153e8838361531e565b905092915050565b6000602082019050919050565b600061540882615140565b615412818561514b565b9350836020820285016154248561515c565b8060005b85811015615460578484038952815161544185826153dc565b945061544c836153f0565b925060208a01995050600181019050615428565b50829750879550505050505092915050565b6000602082019050818103600083015261548c81846153fd565b905092915050565b6000604051905090565b600080fd5b600080fd5b600080fd5b600080fd5b7f4e487b7100000000000000000000000000000000000000000000000000000000600052604160045260246000fd5b6154ea826151d4565b810181811067ffffffffffffffff82111715615509576155086154b2565b5b80604052505050565b600061551c615494565b905061552882826154e1565b919050565b600067ffffffffffffffff821115615548576155476154b2565b5b615551826151d4565b9050602081019050919050565b82818337600083830152505050565b600061558061557b8461552d565b615512565b90508281526020810184848401111561559c5761559b6154ad565b5b6155a784828561555e565b509392505050565b600082601f8301126155c4576155c36154a8565b5b81356155d484826020860161556d565b91505092915050565b6155e68161516c565b81146155f157600080fd5b50565b600081359050615603816155dd565b92915050565b600080600080608085870312156156235761562261549e565b5b600085013567ffffffffffffffff811115615641576156406154a3565b5b61564d878288016155af565b945050602085013567ffffffffffffffff81111561566e5761566d6154a3565b5b61567a878288016155af565b935050604061568b878288016155f4565b925050606085013567ffffffffffffffff8111156156ac576156ab6154a3565b5b6156b8878288016155af565b91505092959194509250565b6156cd816152fd565b81146156d857600080fd5b50565b6000813590506156ea816156c4565b92915050565b6000602082840312156157065761570561549e565b5b6000615714848285016156db565b91505092915050565b600060e0830160008301516157356000860182615176565b506020830151848203602086015261574d82826151e5565b9150506040830151848203604086015261576782826151e5565b915050606083015161577c6060860182615286565b506080830151848203608086015261579482826151e5565b91505060a08301516157a960a086018261530f565b5060c08301516157bc60c086018261530f565b508091505092915050565b600060208201905081810360008301526157e1818461571d565b905092915050565b60008060408385031215615800576157ff61549e565b5b600061580e858286016155f4565b925050602061581f858286016155f4565b9150509250929050565b60006020828403121561583f5761583e61549e565b5b600061584d848285016155f4565b91505092915050565b61585f8161516c565b82525050565b600082825260208201905092915050565b600061588182615185565b61588b8185615865565b935061589b8185602086016151a1565b6158a4816151d4565b840191505092915050565b6158b881615274565b82525050565b6158c7816152fd565b82525050565b600060e0820190506158e2600083018a615856565b81810360208301526158f48189615876565b905081810360408301526159088188615876565b905061591760608301876158af565b81810360808301526159298186615876565b905061593860a08301856158be565b61594560c08301846158be565b98975050505050505050565b600080600080600060a0868803121561596d5761596c61549e565b5b600086013567ffffffffffffffff81111561598b5761598a6154a3565b5b615997888289016155af565b955050602086013567ffffffffffffffff8111156159b8576159b76154a3565b5b6159c4888289016155af565b94505060406159d5888289016155f4565b93505060606159e6888289016155f4565b92505060806159f7888289016156db565b9150509295509295909350565b60048110615a1557615a1461521e565b5b50565b6000819050615a2682615a04565b919050565b6000615a3682615a18565b9050919050565b615a4681615a2b565b82525050565b600060e083016000830151615a646000860182615176565b5060208301518482036020860152615a7c82826151e5565b91505060408301518482036040860152615a9682826151e5565b91505060608301518482036060860152615ab082826151e5565b91505060808301518482036080860152615aca82826151e5565b91505060a0830151615adf60a0860182615a3d565b5060c0830151615af260c086018261530f565b508091505092915050565b60006020820190508181036000830152615b178184615a4c565b905092915050565b615b28816152bc565b82525050565b600061010082019050615b44600083018b615856565b8181036020830152615b56818a615876565b90508181036040830152615b6a8189615876565b90508181036060830152615b7e8188615876565b9050615b8d60808301876158af565b615b9a60a0830186615b1f565b615ba760c08301856158be565b615bb460e08301846158be565b9998505050505050505050565b600081519050919050565b600082825260208201905092915050565b6000819050602082019050919050565b600060e083016000830151615c056000860182615176565b5060208301518482036020860152615c1d82826151e5565b91505060408301518482036040860152615c3782826151e5565b9150506060830151615c4c6060860182615286565b5060808301518482036080860152615c6482826151e5565b91505060a0830151615c7960a086018261530f565b5060c0830151615c8c60c086018261530f565b508091505092915050565b6000615ca38383615bed565b905092915050565b6000602082019050919050565b6000615cc382615bc1565b615ccd8185615bcc565b935083602082028501615cdf85615bdd565b8060005b85811015615d1b5784840389528151615cfc8582615c97565b9450615d0783615cab565b925060208a01995050600181019050615ce3565b50829750879550505050505092915050565b60006020820190508181036000830152615d478184615cb8565b905092915050565b60008060408385031215615d6657615d6561549e565b5b600083013567ffffffffffffffff811115615d8457615d836154a3565b5b615d90858286016155af565b9250506020615da1858286016155f4565b9150509250929050565b6000602082019050615dc060008301846158be565b92915050565b6000602082019050615ddb6000830184615856565b92915050565b60008060408385031215615df857615df761549e565b5b6000615e06858286016155f4565b9250506020615e17858286016156db565b9150509250929050565b60008060008060008060c08789031215615e3e57615e3d61549e565b5b600087013567ffffffffffffffff811115615e5c57615e5b6154a3565b5b615e6889828a016155af565b965050602087013567ffffffffffffffff811115615e8957615e886154a3565b5b615e9589828a016155af565b955050604087013567ffffffffffffffff811115615eb657615eb56154a3565b5b615ec289828a016155af565b945050606087013567ffffffffffffffff811115615ee357615ee26154a3565b5b615eef89828a016155af565b9350506080615f0089828a016155f4565b92505060a0615f1189828a016156db565b9150509295509295509295565b600060e082019050615f33600083018a615856565b8181036020830152615f458189615876565b90508181036040830152615f598188615876565b9050615f686060830187615b1f565b615f7560808301866158af565b615f8260a08301856158be565b615f8f60c08301846158be565b98975050505050505050565b615fa481615a2b565b82525050565b600060e082019050615fbf600083018a615856565b8181036020830152615fd18189615876565b90508181036040830152615fe58188615876565b90508181036060830152615ff98187615876565b9050818103608083015261600d8186615876565b905061601c60a0830185615f9b565b61602960c08301846158be565b98975050505050505050565b600081519050919050565b600082825260208201905092915050565b6000819050602082019050919050565b600060e0830160008301516160796000860182615176565b506020830151848203602086015261609182826151e5565b915050604083015184820360408601526160ab82826151e5565b91505060608301516160c060608601826152ce565b5060808301516160d36080860182615286565b5060a08301516160e660a086018261530f565b5060c08301516160f960c086018261530f565b508091505092915050565b60006161108383616061565b905092915050565b6000602082019050919050565b600061613082616035565b61613a8185616040565b93508360208202850161614c85616051565b8060005b8581101561618857848403895281516161698582616104565b945061617483616118565b925060208a01995050600181019050616150565b50829750879550505050505092915050565b600060208201905081810360008301526161b48184616125565b905092915050565b600081519050919050565b600082825260208201905092915050565b6000819050602082019050919050565b600060e0830160008301516162006000860182615176565b506020830151848203602086015261621882826151e5565b9150506040830151848203604086015261623282826151e5565b9150506060830151848203606086015261624c82826151e5565b9150506080830151848203608086015261626682826151e5565b91505060a083015161627b60a0860182615a3d565b5060c083015161628e60c086018261530f565b508091505092915050565b60006162a583836161e8565b905092915050565b6000602082019050919050565b60006162c5826161bc565b6162cf81856161c7565b9350836020820285016162e1856161d8565b8060005b8581101561631d57848403895281516162fe8582616299565b9450616309836162ad565b925060208a019950506001810190506162e5565b50829750879550505050505092915050565b6000602082019050818103600083015261634981846162ba565b905092915050565b7f4e487b7100000000000000000000000000000000000000000000000000000000600052602260045260246000fd5b6000600282049050600182168061639857607f821691505b602082108114156163ac576163ab616351565b5b50919050565b7f4e487b7100000000000000000000000000000000000000000000000000000000600052601160045260246000fd5b60006163ec8261516c565b91507fffffffffffffffffffffffffffffffffffffffffffffffffffffffffffffffff82141561641f5761641e6163b2565b5b600182019050919050565b7f4e487b7100000000000000000000000000000000000000000000000000000000600052603260045260246000fd5b600081905092915050565b600061646f82615185565b6164798185616459565b93506164898185602086016151a1565b80840191505092915050565b60008160601b9050919050565b60006164ad82616495565b9050919050565b60006164bf826164a2565b9050919050565b6164d76164d2826152fd565b6164b4565b82525050565b6000819050919050565b6164f86164f38261516c565b6164dd565b82525050565b600061650a8286616464565b915061651682856164c6565b60148201915061652682846164e7565b602082019150819050949350505050565b7f596f7520617265206e6f7420616e206f776e6572000000000000000000000000600082015250565b600061656d601483615865565b915061657882616537565b602082019050919050565b6000602082019050818103600083015261659c81616560565b9050919050565b60006165af8284616464565b915081905092915050565b600060608201905081810360008301526165d48186615876565b905081810360208301526165e88185615876565b905081810360408301526165fc8184615876565b9050949350505050565b50565b6000616616600083615865565b915061662182616606565b600082019050919050565b600061010082019050616642600083018a615856565b81810360208301526166548189615876565b905081810360408301526166688188615876565b9050818103606083015261667b81616609565b905061668a60808301876158af565b61669760a0830186615b1f565b6166a460c08301856158be565b6166b160e08301846158be565b9897505050505050505056fea2646970667358221220a16bb88411781d1fc3e1b061a7a79d53c8d800a8eb2cb692744bc875a1acf31764736f6c634300080a0033",
  "immutableReferences": {},
  "source": "// SPDX-License-Identifier: MIT\r\npragma solidity >=0.8.0 <0.9.0;\r\n\r\nimport \"./ProjectChain.sol\";\r\n\r\ncontract Supervisor is ProjectChain {\r\n\r\n    address _supervisorAddress;\r\n\r\n    event ApproveProjectRequestBySupervisor(ProjectStatus _status, Project _project, address _subjectAddress);\r\n    event RejectProjectRequestBySupervisor(string _description, ProjectStatus _status, Project _project, address _subjectAddress);\r\n    event CompleteProjectRequestBySupervisor(ProjectStatus _status, Project _project, address _subjectAddress);\r\n\r\n    constructor() {\r\n        _supervisorAddress = msg.sender;\r\n    }\r\n\r\n    modifier onlySupervisor {\r\n        require(_supervisorAddress == msg.sender, \"You are not a supervisor\");\r\n        _;\r\n    }\r\n\r\n    // Add some contrainst / verification TOOO DOOO -> LATER\r\n\r\n/*\r\n    function setProjectRequestToApprovedStatus(Project memory _project) public onlySupervisor {\r\n        _project._status = ProjectStatus.Approved;\r\n        emit ApproveProjectRequestBySupervisor(ProjectStatus.Approved, _project, _supervisorAddress);\r\n    }\r\n\r\n    function setProjectRequestToRejectStatus(string memory _description, Project memory _project) public onlySupervisor {\r\n        _project._status = ProjectStatus.Rejected;\r\n        emit RejectProjectRequestBySupervisor(_description, ProjectStatus.Approved, _project, _supervisorAddress);\r\n    }\r\n\r\n    function setProjectRequestToCompletedStatus(Project memory _project)  public onlySupervisor {\r\n        _project._status = ProjectStatus.Completed;\r\n        emit CompleteProjectRequestBySupervisor(ProjectStatus.Completed, _project, _supervisorAddress);\r\n    }\r\n*/\r\n}\r\n",
  "sourcePath": "/mnt/c/users/beniamin/source/repos/dissertationproject/contracts/SupervisorChain.sol",
  "compiler": {
    "name": "solc",
    "version": "0.8.10+commit.fc410830.Emscripten.clang"
  },
  "schemaVersion": "3.4.3",
  "updatedAt": "2021-11-20T19:15:34.712Z",
  "devdoc": {
    "kind": "dev",
    "methods": {},
    "version": 1
  },
  "userdoc": {
    "kind": "user",
    "methods": {},
    "version": 1
  }
}