{
  "contractName": "Supervisor",
  "abi": [
    {
      "inputs": [],
      "stateMutability": "nonpayable",
      "type": "constructor"
    },
    {
      "anonymous": false,
      "inputs": [
        {
          "indexed": false,
          "internalType": "enum Project.ProjectStatus",
          "name": "_status",
          "type": "uint8"
        },
        {
          "components": [
            {
              "internalType": "uint256",
              "name": "index",
              "type": "uint256"
            },
            {
              "internalType": "string",
              "name": "name",
              "type": "string"
            },
            {
              "internalType": "string",
              "name": "description",
              "type": "string"
            },
            {
              "internalType": "enum Project.ProjectStatus",
              "name": "projectStatus",
              "type": "uint8"
            },
            {
              "internalType": "string",
              "name": "ipfsFileCID",
              "type": "string"
            }
          ],
          "indexed": false,
          "internalType": "struct Project.S_Project",
          "name": "_project",
          "type": "tuple"
        },
        {
          "indexed": false,
          "internalType": "address",
          "name": "_subjectAddress",
          "type": "address"
        }
      ],
      "name": "ApproveProjectRequestBySupervisor",
      "type": "event"
    },
    {
      "anonymous": false,
      "inputs": [
        {
          "indexed": false,
          "internalType": "enum Project.ProjectStatus",
          "name": "_status",
          "type": "uint8"
        },
        {
          "components": [
            {
              "internalType": "uint256",
              "name": "index",
              "type": "uint256"
            },
            {
              "internalType": "string",
              "name": "name",
              "type": "string"
            },
            {
              "internalType": "string",
              "name": "description",
              "type": "string"
            },
            {
              "internalType": "enum Project.ProjectStatus",
              "name": "projectStatus",
              "type": "uint8"
            },
            {
              "internalType": "string",
              "name": "ipfsFileCID",
              "type": "string"
            }
          ],
          "indexed": false,
          "internalType": "struct Project.S_Project",
          "name": "_project",
          "type": "tuple"
        },
        {
          "indexed": false,
          "internalType": "address",
          "name": "_subjectAddress",
          "type": "address"
        }
      ],
      "name": "CompleteProjectRequestBySupervisor",
      "type": "event"
    },
    {
      "anonymous": false,
      "inputs": [
        {
          "indexed": false,
          "internalType": "string",
          "name": "_name",
          "type": "string"
        },
        {
          "indexed": false,
          "internalType": "string",
          "name": "_description",
          "type": "string"
        },
        {
          "indexed": false,
          "internalType": "enum Project.ProjectStatus",
          "name": "_status",
          "type": "uint8"
        }
      ],
      "name": "CreateProject",
      "type": "event"
    },
    {
      "anonymous": false,
      "inputs": [
        {
          "indexed": false,
          "internalType": "uint256",
          "name": "index",
          "type": "uint256"
        },
        {
          "indexed": true,
          "internalType": "enum Project.ProjectStatus",
          "name": "status",
          "type": "uint8"
        },
        {
          "indexed": true,
          "internalType": "address",
          "name": "projectAddress",
          "type": "address"
        }
      ],
      "name": "ProjectStatusChanged",
      "type": "event"
    },
    {
      "anonymous": false,
      "inputs": [
        {
          "indexed": false,
          "internalType": "string",
          "name": "_description",
          "type": "string"
        },
        {
          "indexed": false,
          "internalType": "enum Project.ProjectStatus",
          "name": "_status",
          "type": "uint8"
        },
        {
          "components": [
            {
              "internalType": "uint256",
              "name": "index",
              "type": "uint256"
            },
            {
              "internalType": "string",
              "name": "name",
              "type": "string"
            },
            {
              "internalType": "string",
              "name": "description",
              "type": "string"
            },
            {
              "internalType": "enum Project.ProjectStatus",
              "name": "projectStatus",
              "type": "uint8"
            },
            {
              "internalType": "string",
              "name": "ipfsFileCID",
              "type": "string"
            }
          ],
          "indexed": false,
          "internalType": "struct Project.S_Project",
          "name": "_project",
          "type": "tuple"
        },
        {
          "indexed": false,
          "internalType": "address",
          "name": "_subjectAddress",
          "type": "address"
        }
      ],
      "name": "RejectProjectRequestBySupervisor",
      "type": "event"
    },
    {
      "anonymous": false,
      "inputs": [
        {
          "indexed": false,
          "internalType": "uint256",
          "name": "_indexRequest",
          "type": "uint256"
        },
        {
          "indexed": false,
          "internalType": "enum Project.RequestStatus",
          "name": "_status",
          "type": "uint8"
        },
        {
          "components": [
            {
              "internalType": "uint256",
              "name": "index",
              "type": "uint256"
            },
            {
              "internalType": "string",
              "name": "name",
              "type": "string"
            },
            {
              "internalType": "string",
              "name": "description",
              "type": "string"
            },
            {
              "internalType": "enum Project.ProjectStatus",
              "name": "projectStatus",
              "type": "uint8"
            },
            {
              "internalType": "string",
              "name": "ipfsFileCID",
              "type": "string"
            }
          ],
          "indexed": false,
          "internalType": "struct Project.S_Project",
          "name": "_project",
          "type": "tuple"
        },
        {
          "indexed": false,
          "internalType": "enum Project.ProjectStatus",
          "name": "_projectStatus",
          "type": "uint8"
        },
        {
          "indexed": false,
          "internalType": "address",
          "name": "_subjectAddress",
          "type": "address"
        }
      ],
      "name": "UpdateCompanyRequestStatus",
      "type": "event"
    },
    {
      "anonymous": false,
      "inputs": [
        {
          "indexed": false,
          "internalType": "uint256",
          "name": "_indexRequest",
          "type": "uint256"
        },
        {
          "indexed": false,
          "internalType": "enum Project.RequestStatus",
          "name": "_status",
          "type": "uint8"
        },
        {
          "components": [
            {
              "internalType": "uint256",
              "name": "index",
              "type": "uint256"
            },
            {
              "internalType": "string",
              "name": "name",
              "type": "string"
            },
            {
              "internalType": "string",
              "name": "description",
              "type": "string"
            },
            {
              "internalType": "enum Project.ProjectStatus",
              "name": "projectStatus",
              "type": "uint8"
            },
            {
              "internalType": "string",
              "name": "ipfsFileCID",
              "type": "string"
            }
          ],
          "indexed": false,
          "internalType": "struct Project.S_Project",
          "name": "_project",
          "type": "tuple"
        },
        {
          "indexed": false,
          "internalType": "enum Project.ProjectStatus",
          "name": "_projectStatus",
          "type": "uint8"
        },
        {
          "indexed": false,
          "internalType": "address",
          "name": "_subjectAddress",
          "type": "address"
        }
      ],
      "name": "UpdateSupervisorRequestStatus",
      "type": "event"
    },
    {
      "anonymous": false,
      "inputs": [
        {
          "indexed": false,
          "internalType": "string",
          "name": "username",
          "type": "string"
        },
        {
          "indexed": false,
          "internalType": "string",
          "name": "firstname",
          "type": "string"
        },
        {
          "indexed": false,
          "internalType": "string",
          "name": "lastname",
          "type": "string"
        },
        {
          "indexed": false,
          "internalType": "string",
          "name": "email",
          "type": "string"
        },
        {
          "indexed": false,
          "internalType": "enum User.Roles",
          "name": "role",
          "type": "uint8"
        },
        {
          "indexed": false,
          "internalType": "address",
          "name": "walletAddress",
          "type": "address"
        }
      ],
      "name": "UserChanges",
      "type": "event"
    },
    {
      "anonymous": false,
      "inputs": [
        {
          "indexed": true,
          "internalType": "address",
          "name": "_walletAddress",
          "type": "address"
        },
        {
          "indexed": true,
          "internalType": "string",
          "name": "_username",
          "type": "string"
        },
        {
          "indexed": false,
          "internalType": "string",
          "name": "_email",
          "type": "string"
        },
        {
          "indexed": false,
          "internalType": "string",
          "name": "_firstname",
          "type": "string"
        },
        {
          "indexed": false,
          "internalType": "string",
          "name": "_lastname",
          "type": "string"
        },
        {
          "indexed": true,
          "internalType": "enum User.Roles",
          "name": "_role",
          "type": "uint8"
        }
      ],
      "name": "UserRegistered",
      "type": "event"
    },
    {
      "inputs": [
        {
          "internalType": "uint256",
          "name": "",
          "type": "uint256"
        }
      ],
      "name": "allProjects",
      "outputs": [
        {
          "internalType": "uint256",
          "name": "index",
          "type": "uint256"
        },
        {
          "internalType": "string",
          "name": "name",
          "type": "string"
        },
        {
          "internalType": "string",
          "name": "description",
          "type": "string"
        },
        {
          "internalType": "enum Project.ProjectStatus",
          "name": "projectStatus",
          "type": "uint8"
        },
        {
          "internalType": "string",
          "name": "ipfsFileCID",
          "type": "string"
        }
      ],
      "stateMutability": "view",
      "type": "function"
    },
    {
      "inputs": [
        {
          "internalType": "uint256",
          "name": "",
          "type": "uint256"
        }
      ],
      "name": "allUsers",
      "outputs": [
        {
          "internalType": "string",
          "name": "username",
          "type": "string"
        },
        {
          "internalType": "string",
          "name": "email",
          "type": "string"
        },
        {
          "internalType": "string",
          "name": "firstname",
          "type": "string"
        },
        {
          "internalType": "string",
          "name": "lastname",
          "type": "string"
        },
        {
          "internalType": "enum User.Roles",
          "name": "role",
          "type": "uint8"
        },
        {
          "internalType": "address",
          "name": "walletAddress",
          "type": "address"
        }
      ],
      "stateMutability": "view",
      "type": "function"
    },
    {
      "inputs": [
        {
          "internalType": "uint256",
          "name": "_role",
          "type": "uint256"
        },
        {
          "internalType": "address",
          "name": "_walletAddress",
          "type": "address"
        }
      ],
      "name": "changeUserRole",
      "outputs": [],
      "stateMutability": "nonpayable",
      "type": "function"
    },
    {
      "inputs": [
        {
          "internalType": "uint256",
          "name": "",
          "type": "uint256"
        }
      ],
      "name": "companyRequests",
      "outputs": [
        {
          "internalType": "uint256",
          "name": "index",
          "type": "uint256"
        },
        {
          "internalType": "string",
          "name": "description",
          "type": "string"
        },
        {
          "internalType": "enum Project.RequestStatus",
          "name": "status",
          "type": "uint8"
        },
        {
          "components": [
            {
              "internalType": "uint256",
              "name": "index",
              "type": "uint256"
            },
            {
              "internalType": "string",
              "name": "name",
              "type": "string"
            },
            {
              "internalType": "string",
              "name": "description",
              "type": "string"
            },
            {
              "internalType": "enum Project.ProjectStatus",
              "name": "projectStatus",
              "type": "uint8"
            },
            {
              "internalType": "string",
              "name": "ipfsFileCID",
              "type": "string"
            }
          ],
          "internalType": "struct Project.S_Project",
          "name": "project",
          "type": "tuple"
        },
        {
          "internalType": "address",
          "name": "subjectAddress",
          "type": "address"
        }
      ],
      "stateMutability": "view",
      "type": "function"
    },
    {
      "inputs": [
        {
          "internalType": "string",
          "name": "_name",
          "type": "string"
        },
        {
          "internalType": "string",
          "name": "_description",
          "type": "string"
        },
        {
          "internalType": "uint256",
          "name": "_status",
          "type": "uint256"
        },
        {
          "internalType": "string",
          "name": "_ipfsFileCID",
          "type": "string"
        }
      ],
      "name": "createProject",
      "outputs": [],
      "stateMutability": "nonpayable",
      "type": "function"
    },
    {
      "inputs": [
        {
          "internalType": "string",
          "name": "_text",
          "type": "string"
        },
        {
          "internalType": "address",
          "name": "_addr",
          "type": "address"
        }
      ],
      "name": "createUniqueHexAddress",
      "outputs": [
        {
          "internalType": "address",
          "name": "",
          "type": "address"
        }
      ],
      "stateMutability": "pure",
      "type": "function"
    },
    {
      "inputs": [
        {
          "internalType": "string",
          "name": "_text",
          "type": "string"
        },
        {
          "internalType": "address",
          "name": "_addr",
          "type": "address"
        }
      ],
      "name": "createUniqueIdentifier",
      "outputs": [
        {
          "internalType": "bytes32",
          "name": "",
          "type": "bytes32"
        }
      ],
      "stateMutability": "pure",
      "type": "function"
    },
    {
      "inputs": [],
      "name": "getAllProjects",
      "outputs": [
        {
          "components": [
            {
              "internalType": "uint256",
              "name": "index",
              "type": "uint256"
            },
            {
              "internalType": "string",
              "name": "name",
              "type": "string"
            },
            {
              "internalType": "string",
              "name": "description",
              "type": "string"
            },
            {
              "internalType": "enum Project.ProjectStatus",
              "name": "projectStatus",
              "type": "uint8"
            },
            {
              "internalType": "string",
              "name": "ipfsFileCID",
              "type": "string"
            }
          ],
          "internalType": "struct Project.S_Project[]",
          "name": "",
          "type": "tuple[]"
        }
      ],
      "stateMutability": "view",
      "type": "function"
    },
    {
      "inputs": [],
      "name": "getAllUsers",
      "outputs": [
        {
          "components": [
            {
              "internalType": "string",
              "name": "username",
              "type": "string"
            },
            {
              "internalType": "string",
              "name": "email",
              "type": "string"
            },
            {
              "internalType": "string",
              "name": "firstname",
              "type": "string"
            },
            {
              "internalType": "string",
              "name": "lastname",
              "type": "string"
            },
            {
              "internalType": "enum User.Roles",
              "name": "role",
              "type": "uint8"
            },
            {
              "internalType": "address",
              "name": "walletAddress",
              "type": "address"
            }
          ],
          "internalType": "struct User.S_UserData[]",
          "name": "",
          "type": "tuple[]"
        }
      ],
      "stateMutability": "view",
      "type": "function"
    },
    {
      "inputs": [],
      "name": "getProjectIds",
      "outputs": [
        {
          "internalType": "uint256[]",
          "name": "",
          "type": "uint256[]"
        }
      ],
      "stateMutability": "view",
      "type": "function"
    },
    {
      "inputs": [
        {
          "internalType": "uint256",
          "name": "_index",
          "type": "uint256"
        }
      ],
      "name": "getProjectInfo",
      "outputs": [
        {
          "components": [
            {
              "internalType": "uint256",
              "name": "index",
              "type": "uint256"
            },
            {
              "internalType": "string",
              "name": "name",
              "type": "string"
            },
            {
              "internalType": "string",
              "name": "description",
              "type": "string"
            },
            {
              "internalType": "enum Project.ProjectStatus",
              "name": "projectStatus",
              "type": "uint8"
            },
            {
              "internalType": "string",
              "name": "ipfsFileCID",
              "type": "string"
            }
          ],
          "internalType": "struct Project.S_Project",
          "name": "",
          "type": "tuple"
        }
      ],
      "stateMutability": "view",
      "type": "function"
    },
    {
      "inputs": [
        {
          "internalType": "address",
          "name": "_address",
          "type": "address"
        }
      ],
      "name": "getUserInfo",
      "outputs": [
        {
          "components": [
            {
              "internalType": "string",
              "name": "username",
              "type": "string"
            },
            {
              "internalType": "string",
              "name": "email",
              "type": "string"
            },
            {
              "internalType": "string",
              "name": "firstname",
              "type": "string"
            },
            {
              "internalType": "string",
              "name": "lastname",
              "type": "string"
            },
            {
              "internalType": "enum User.Roles",
              "name": "role",
              "type": "uint8"
            },
            {
              "internalType": "address",
              "name": "walletAddress",
              "type": "address"
            }
          ],
          "internalType": "struct User.S_UserData",
          "name": "",
          "type": "tuple"
        }
      ],
      "stateMutability": "view",
      "type": "function"
    },
    {
      "inputs": [],
      "name": "owner",
      "outputs": [
        {
          "internalType": "address",
          "name": "",
          "type": "address"
        }
      ],
      "stateMutability": "view",
      "type": "function"
    },
    {
      "inputs": [
        {
          "internalType": "uint256",
          "name": "",
          "type": "uint256"
        }
      ],
      "name": "projectIds",
      "outputs": [
        {
          "internalType": "uint256",
          "name": "",
          "type": "uint256"
        }
      ],
      "stateMutability": "view",
      "type": "function"
    },
    {
      "inputs": [
        {
          "internalType": "uint256",
          "name": "",
          "type": "uint256"
        }
      ],
      "name": "projects",
      "outputs": [
        {
          "internalType": "uint256",
          "name": "index",
          "type": "uint256"
        },
        {
          "internalType": "string",
          "name": "name",
          "type": "string"
        },
        {
          "internalType": "string",
          "name": "description",
          "type": "string"
        },
        {
          "internalType": "enum Project.ProjectStatus",
          "name": "projectStatus",
          "type": "uint8"
        },
        {
          "internalType": "string",
          "name": "ipfsFileCID",
          "type": "string"
        }
      ],
      "stateMutability": "view",
      "type": "function"
    },
    {
      "inputs": [],
      "name": "projectsCount",
      "outputs": [
        {
          "internalType": "uint256",
          "name": "",
          "type": "uint256"
        }
      ],
      "stateMutability": "view",
      "type": "function"
    },
    {
      "inputs": [
        {
          "internalType": "string",
          "name": "_username",
          "type": "string"
        },
        {
          "internalType": "string",
          "name": "_email",
          "type": "string"
        },
        {
          "internalType": "string",
          "name": "_firstname",
          "type": "string"
        },
        {
          "internalType": "string",
          "name": "_lastname",
          "type": "string"
        },
        {
          "internalType": "uint256",
          "name": "_role",
          "type": "uint256"
        },
        {
          "internalType": "address",
          "name": "_walletAddress",
          "type": "address"
        }
      ],
      "name": "registerUser",
      "outputs": [],
      "stateMutability": "nonpayable",
      "type": "function"
    },
    {
      "inputs": [
        {
          "internalType": "string",
          "name": "_description",
          "type": "string"
        },
        {
          "components": [
            {
              "internalType": "uint256",
              "name": "index",
              "type": "uint256"
            },
            {
              "internalType": "string",
              "name": "name",
              "type": "string"
            },
            {
              "internalType": "string",
              "name": "description",
              "type": "string"
            },
            {
              "internalType": "enum Project.ProjectStatus",
              "name": "projectStatus",
              "type": "uint8"
            },
            {
              "internalType": "string",
              "name": "ipfsFileCID",
              "type": "string"
            }
          ],
          "internalType": "struct Project.S_Project",
          "name": "_project",
          "type": "tuple"
        },
        {
          "internalType": "address",
          "name": "_subjectAddress",
          "type": "address"
        }
      ],
      "name": "requestProjectApprovalFromSupervisor",
      "outputs": [],
      "stateMutability": "nonpayable",
      "type": "function"
    },
    {
      "inputs": [
        {
          "internalType": "string",
          "name": "_description",
          "type": "string"
        },
        {
          "components": [
            {
              "internalType": "uint256",
              "name": "index",
              "type": "uint256"
            },
            {
              "internalType": "string",
              "name": "name",
              "type": "string"
            },
            {
              "internalType": "string",
              "name": "description",
              "type": "string"
            },
            {
              "internalType": "enum Project.ProjectStatus",
              "name": "projectStatus",
              "type": "uint8"
            },
            {
              "internalType": "string",
              "name": "ipfsFileCID",
              "type": "string"
            }
          ],
          "internalType": "struct Project.S_Project",
          "name": "_project",
          "type": "tuple"
        },
        {
          "internalType": "address",
          "name": "_subjectAddress",
          "type": "address"
        }
      ],
      "name": "requestProjectCompleteFromSupervisor",
      "outputs": [],
      "stateMutability": "nonpayable",
      "type": "function"
    },
    {
      "inputs": [
        {
          "internalType": "string",
          "name": "_description",
          "type": "string"
        },
        {
          "components": [
            {
              "internalType": "uint256",
              "name": "index",
              "type": "uint256"
            },
            {
              "internalType": "string",
              "name": "name",
              "type": "string"
            },
            {
              "internalType": "string",
              "name": "description",
              "type": "string"
            },
            {
              "internalType": "enum Project.ProjectStatus",
              "name": "projectStatus",
              "type": "uint8"
            },
            {
              "internalType": "string",
              "name": "ipfsFileCID",
              "type": "string"
            }
          ],
          "internalType": "struct Project.S_Project",
          "name": "_project",
          "type": "tuple"
        },
        {
          "internalType": "address",
          "name": "_subjectAddress",
          "type": "address"
        }
      ],
      "name": "requestStartProjectToCompanyBuilder",
      "outputs": [],
      "stateMutability": "nonpayable",
      "type": "function"
    },
    {
      "inputs": [
        {
          "internalType": "uint256",
          "name": "",
          "type": "uint256"
        }
      ],
      "name": "supervisorRequests",
      "outputs": [
        {
          "internalType": "uint256",
          "name": "index",
          "type": "uint256"
        },
        {
          "internalType": "string",
          "name": "description",
          "type": "string"
        },
        {
          "internalType": "enum Project.RequestStatus",
          "name": "status",
          "type": "uint8"
        },
        {
          "components": [
            {
              "internalType": "uint256",
              "name": "index",
              "type": "uint256"
            },
            {
              "internalType": "string",
              "name": "name",
              "type": "string"
            },
            {
              "internalType": "string",
              "name": "description",
              "type": "string"
            },
            {
              "internalType": "enum Project.ProjectStatus",
              "name": "projectStatus",
              "type": "uint8"
            },
            {
              "internalType": "string",
              "name": "ipfsFileCID",
              "type": "string"
            }
          ],
          "internalType": "struct Project.S_Project",
          "name": "project",
          "type": "tuple"
        },
        {
          "internalType": "address",
          "name": "subjectAddress",
          "type": "address"
        }
      ],
      "stateMutability": "view",
      "type": "function"
    },
    {
      "inputs": [
        {
          "internalType": "address",
          "name": "",
          "type": "address"
        }
      ],
      "name": "userInfo",
      "outputs": [
        {
          "internalType": "string",
          "name": "username",
          "type": "string"
        },
        {
          "internalType": "string",
          "name": "email",
          "type": "string"
        },
        {
          "internalType": "string",
          "name": "firstname",
          "type": "string"
        },
        {
          "internalType": "string",
          "name": "lastname",
          "type": "string"
        },
        {
          "internalType": "enum User.Roles",
          "name": "role",
          "type": "uint8"
        },
        {
          "internalType": "address",
          "name": "walletAddress",
          "type": "address"
        }
      ],
      "stateMutability": "view",
      "type": "function"
    },
    {
      "inputs": [],
      "name": "usersCount",
      "outputs": [
        {
          "internalType": "uint256",
          "name": "",
          "type": "uint256"
        }
      ],
      "stateMutability": "view",
      "type": "function"
    },
    {
      "inputs": [
        {
          "components": [
            {
              "internalType": "uint256",
              "name": "index",
              "type": "uint256"
            },
            {
              "internalType": "string",
              "name": "name",
              "type": "string"
            },
            {
              "internalType": "string",
              "name": "description",
              "type": "string"
            },
            {
              "internalType": "enum Project.ProjectStatus",
              "name": "projectStatus",
              "type": "uint8"
            },
            {
              "internalType": "string",
              "name": "ipfsFileCID",
              "type": "string"
            }
          ],
          "internalType": "struct Project.S_Project",
          "name": "_project",
          "type": "tuple"
        }
      ],
      "name": "setProjectRequestToApprovedStatus",
      "outputs": [],
      "stateMutability": "nonpayable",
      "type": "function"
    },
    {
      "inputs": [
        {
          "internalType": "string",
          "name": "_description",
          "type": "string"
        },
        {
          "components": [
            {
              "internalType": "uint256",
              "name": "index",
              "type": "uint256"
            },
            {
              "internalType": "string",
              "name": "name",
              "type": "string"
            },
            {
              "internalType": "string",
              "name": "description",
              "type": "string"
            },
            {
              "internalType": "enum Project.ProjectStatus",
              "name": "projectStatus",
              "type": "uint8"
            },
            {
              "internalType": "string",
              "name": "ipfsFileCID",
              "type": "string"
            }
          ],
          "internalType": "struct Project.S_Project",
          "name": "_project",
          "type": "tuple"
        }
      ],
      "name": "setProjectRequestToRejectStatus",
      "outputs": [],
      "stateMutability": "nonpayable",
      "type": "function"
    },
    {
      "inputs": [
        {
          "components": [
            {
              "internalType": "uint256",
              "name": "index",
              "type": "uint256"
            },
            {
              "internalType": "string",
              "name": "name",
              "type": "string"
            },
            {
              "internalType": "string",
              "name": "description",
              "type": "string"
            },
            {
              "internalType": "enum Project.ProjectStatus",
              "name": "projectStatus",
              "type": "uint8"
            },
            {
              "internalType": "string",
              "name": "ipfsFileCID",
              "type": "string"
            }
          ],
          "internalType": "struct Project.S_Project",
          "name": "_project",
          "type": "tuple"
        }
      ],
      "name": "setProjectRequestToCompletedStatus",
      "outputs": [],
      "stateMutability": "nonpayable",
      "type": "function"
    }
  ],
  "bytecode": "0x60806040526000600255600060085534801561001a57600080fd5b5033600160006101000a81548173ffffffffffffffffffffffffffffffffffffffff021916908373ffffffffffffffffffffffffffffffffffffffff16021790555033600460006101000a81548173ffffffffffffffffffffffffffffffffffffffff021916908373ffffffffffffffffffffffffffffffffffffffff16021790555033600d60006101000a81548173ffffffffffffffffffffffffffffffffffffffff021916908373ffffffffffffffffffffffffffffffffffffffff160217905550614a50806100ed6000396000f3fe608060405234801561001057600080fd5b506004361061018e5760003560e01c80637748587f116100de578063953dcd2a11610097578063cb2d316411610071578063cb2d3164146104cf578063d40d4a80146104eb578063e2842d791461051f578063fabf59681461053d5761018e565b8063953dcd2a14610460578063a2bdedf41461047c578063c73b302e146104b15761018e565b80637748587f1461039c57806380d03829146103b85780638c86a1d7146103d65780638da5cb5b1461040a5780639100978614610428578063911c29a6146104445761018e565b806348c35ad41161014b5780636132844f116101255780636132844f146103025780636386c1c7146103325780636ba13a82146103625780636fe3d194146103805761018e565b806348c35ad41461028257806353b3194c146102b257806358bb79ed146102e65761018e565b8063107046bd1461019357806313b4078f146101c75780631959a002146101f757806329a613b51461022c5780634007d03c1461024a5780634657571414610266575b600080fd5b6101ad60048036038101906101a8919061346e565b61056d565b6040516101be9594939291906135ba565b60405180910390f35b6101e160048036038101906101dc91906137b5565b610748565b6040516101ee9190613820565b60405180910390f35b610211600480360381019061020c919061383b565b61077e565b604051610223969594939291906138b0565b60405180910390f35b610234610a07565b60405161024191906139eb565b60405180910390f35b610264600480360381019061025f9190613b1c565b610a5f565b005b610280600480360381019061027b9190613b65565b610b81565b005b61029c6004803603810190610297919061346e565b610e1a565b6040516102a99190613c20565b60405180910390f35b6102cc60048036038101906102c7919061346e565b610e3e565b6040516102dd9594939291906135ba565b60405180910390f35b61030060048036038101906102fb9190613b1c565b611029565b005b61031c600480360381019061031791906137b5565b61114b565b6040516103299190613c54565b60405180910390f35b61034c6004803603810190610347919061383b565b61117e565b6040516103599190613d75565b60405180910390f35b61036a6114af565b6040516103779190613c20565b60405180910390f35b61039a60048036038101906103959190613d97565b6114b5565b005b6103b660048036038101906103b19190613d97565b6116bf565b005b6103c06118c9565b6040516103cd9190613f77565b60405180910390f35b6103f060048036038101906103eb919061346e565b611b23565b604051610401959493929190614065565b60405180910390f35b610412611e13565b60405161041f9190613820565b60405180910390f35b610442600480360381019061043d91906140c6565b611e39565b005b61045e60048036038101906104599190614106565b611fb5565b005b61047a60048036038101906104759190613d97565b6124c4565b005b6104966004803603810190610491919061346e565b6126ce565b6040516104a8969594939291906138b0565b60405180910390f35b6104b9612967565b6040516104c69190613c20565b60405180910390f35b6104e960048036038101906104e49190614203565b61296d565b005b6105056004803603810190610500919061346e565b612a92565b604051610516959493929190614065565b60405180910390f35b610527612d82565b60405161053491906143db565b60405180910390f35b6105576004803603810190610552919061346e565b6130ba565b60405161056491906143fd565b60405180910390f35b60056020528060005260406000206000915090508060000154908060010180546105969061444e565b80601f01602080910402602001604051908101604052809291908181526020018280546105c29061444e565b801561060f5780601f106105e45761010080835404028352916020019161060f565b820191906000526020600020905b8154815290600101906020018083116105f257829003601f168201915b5050505050908060020180546106249061444e565b80601f01602080910402602001604051908101604052809291908181526020018280546106509061444e565b801561069d5780601f106106725761010080835404028352916020019161069d565b820191906000526020600020905b81548152906001019060200180831161068057829003601f168201915b5050505050908060030160009054906101000a900460ff16908060040180546106c59061444e565b80601f01602080910402602001604051908101604052809291908181526020018280546106f19061444e565b801561073e5780601f106107135761010080835404028352916020019161073e565b820191906000526020600020905b81548152906001019060200180831161072157829003601f168201915b5050505050905085565b6000828260405160200161075d929190614504565b6040516020818303038152906040528051906020012060001c905092915050565b60006020528060005260406000206000915090508060000180546107a19061444e565b80601f01602080910402602001604051908101604052809291908181526020018280546107cd9061444e565b801561081a5780601f106107ef5761010080835404028352916020019161081a565b820191906000526020600020905b8154815290600101906020018083116107fd57829003601f168201915b50505050509080600101805461082f9061444e565b80601f016020809104026020016040519081016040528092919081815260200182805461085b9061444e565b80156108a85780601f1061087d576101008083540402835291602001916108a8565b820191906000526020600020905b81548152906001019060200180831161088b57829003601f168201915b5050505050908060020180546108bd9061444e565b80601f01602080910402602001604051908101604052809291908181526020018280546108e99061444e565b80156109365780601f1061090b57610100808354040283529160200191610936565b820191906000526020600020905b81548152906001019060200180831161091957829003601f168201915b50505050509080600301805461094b9061444e565b80601f01602080910402602001604051908101604052809291908181526020018280546109779061444e565b80156109c45780601f10610999576101008083540402835291602001916109c4565b820191906000526020600020905b8154815290600101906020018083116109a757829003601f168201915b5050505050908060040160009054906101000a900460ff16908060040160019054906101000a900473ffffffffffffffffffffffffffffffffffffffff16905086565b60606009805480602002602001604051908101604052809291908181526020018280548015610a5557602002820191906000526020600020905b815481526020019060010190808311610a41575b5050505050905090565b3373ffffffffffffffffffffffffffffffffffffffff16600d60009054906101000a900473ffffffffffffffffffffffffffffffffffffffff1673ffffffffffffffffffffffffffffffffffffffff1614610aef576040517f08c379a0000000000000000000000000000000000000000000000000000000008152600401610ae690614578565b60405180910390fd5b600581606001906005811115610b0857610b07613543565b5b90816005811115610b1c57610b1b613543565b5b815250507fbe82ca8fde3d25c6c9aba92c7e9b013d607fd706aa1c37a30fcb8e45046c6025600582600d60009054906101000a900473ffffffffffffffffffffffffffffffffffffffff16604051610b7693929190614598565b60405180910390a150565b60085460056000600854815260200190815260200160002060000181905550836005600060085481526020019081526020016000206001019080519060200190610bcc9291906132e2565b50826005600060085481526020019081526020016000206002019080519060200190610bf99291906132e2565b50816005811115610c0d57610c0c613543565b5b60056000600854815260200190815260200160002060030160006101000a81548160ff02191690836005811115610c4757610c46613543565b5b0217905550806005600060085481526020019081526020016000206004019080519060200190610c789291906132e2565b507f274f009187cb91dd70ef9fd455c66e7263b5fc9746490cba15a3be400f580fa88484846005811115610caf57610cae613543565b5b604051610cbe939291906145d6565b60405180910390a160096008549080600181540180825580915050600190039060005260206000200160009091909190915055600a6040518060a001604052806008548152602001868152602001858152602001846005811115610d2557610d24613543565b5b6005811115610d3757610d36613543565b5b8152602001838152509080600181540180825580915050600190039060005260206000209060050201600090919091909150600082015181600001556020820151816001019080519060200190610d8f9291906132e2565b506040820151816002019080519060200190610dac9291906132e2565b5060608201518160030160006101000a81548160ff02191690836005811115610dd857610dd7613543565b5b02179055506080820151816004019080519060200190610df99291906132e2565b50505060086000815480929190610e0f9061464a565b919050555050505050565b60098181548110610e2a57600080fd5b906000526020600020016000915090505481565b600a8181548110610e4e57600080fd5b9060005260206000209060050201600091509050806000015490806001018054610e779061444e565b80601f0160208091040260200160405190810160405280929190818152602001828054610ea39061444e565b8015610ef05780601f10610ec557610100808354040283529160200191610ef0565b820191906000526020600020905b815481529060010190602001808311610ed357829003601f168201915b505050505090806002018054610f059061444e565b80601f0160208091040260200160405190810160405280929190818152602001828054610f319061444e565b8015610f7e5780601f10610f5357610100808354040283529160200191610f7e565b820191906000526020600020905b815481529060010190602001808311610f6157829003601f168201915b5050505050908060030160009054906101000a900460ff1690806004018054610fa69061444e565b80601f0160208091040260200160405190810160405280929190818152602001828054610fd29061444e565b801561101f5780601f10610ff45761010080835404028352916020019161101f565b820191906000526020600020905b81548152906001019060200180831161100257829003601f168201915b5050505050905085565b3373ffffffffffffffffffffffffffffffffffffffff16600d60009054906101000a900473ffffffffffffffffffffffffffffffffffffffff1673ffffffffffffffffffffffffffffffffffffffff16146110b9576040517f08c379a00000000000000000000000000000000000000000000000000000000081526004016110b090614578565b60405180910390fd5b6001816060019060058111156110d2576110d1613543565b5b908160058111156110e6576110e5613543565b5b815250507fb29047b297a20e1951f9cbdeacf32fc8cc042c1b66e9759022cec46ca6510df5600182600d60009054906101000a900473ffffffffffffffffffffffffffffffffffffffff1660405161114093929190614598565b60405180910390a150565b60008282604051602001611160929190614504565b60405160208183030381529060405280519060200120905092915050565b611186613368565b6000808373ffffffffffffffffffffffffffffffffffffffff1673ffffffffffffffffffffffffffffffffffffffff1681526020019081526020016000206040518060c00160405290816000820180546111df9061444e565b80601f016020809104026020016040519081016040528092919081815260200182805461120b9061444e565b80156112585780601f1061122d57610100808354040283529160200191611258565b820191906000526020600020905b81548152906001019060200180831161123b57829003601f168201915b505050505081526020016001820180546112719061444e565b80601f016020809104026020016040519081016040528092919081815260200182805461129d9061444e565b80156112ea5780601f106112bf576101008083540402835291602001916112ea565b820191906000526020600020905b8154815290600101906020018083116112cd57829003601f168201915b505050505081526020016002820180546113039061444e565b80601f016020809104026020016040519081016040528092919081815260200182805461132f9061444e565b801561137c5780601f106113515761010080835404028352916020019161137c565b820191906000526020600020905b81548152906001019060200180831161135f57829003601f168201915b505050505081526020016003820180546113959061444e565b80601f01602080910402602001604051908101604052809291908181526020018280546113c19061444e565b801561140e5780601f106113e35761010080835404028352916020019161140e565b820191906000526020600020905b8154815290600101906020018083116113f157829003601f168201915b505050505081526020016004820160009054906101000a900460ff16600381111561143c5761143b613543565b5b600381111561144e5761144d613543565b5b81526020016004820160019054906101000a900473ffffffffffffffffffffffffffffffffffffffff1673ffffffffffffffffffffffffffffffffffffffff1673ffffffffffffffffffffffffffffffffffffffff16815250509050919050565b60025481565b600460058111156114c9576114c8613543565b5b826060015160058111156114e0576114df613543565b5b14611520576040517f08c379a00000000000000000000000000000000000000000000000000000000081526004016115179061472b565b60405180910390fd5b600060076000600c5481526020019081526020016000209050838160010190805190602001906115519291906132e2565b5060008160020160006101000a81548160ff0219169083600181111561157a57611579613543565b5b021790555082816003016000820151816000015560208201518160010190805190602001906115aa9291906132e2565b5060408201518160020190805190602001906115c79291906132e2565b5060608201518160030160006101000a81548160ff021916908360058111156115f3576115f2613543565b5b021790555060808201518160040190805190602001906116149291906132e2565b50905050818160080160006101000a81548173ffffffffffffffffffffffffffffffffffffffff021916908373ffffffffffffffffffffffffffffffffffffffff1602179055507fc0a7086e05590c8d9160aba8dc6a29b754eda15e93d2a2578429bc2fda6bdec3600c5460008586606001518660405161169995949392919061474b565b60405180910390a1600c60008154809291906116b49061464a565b919050555050505050565b600060058111156116d3576116d2613543565b5b826060015160058111156116ea576116e9613543565b5b1461172a576040517f08c379a000000000000000000000000000000000000000000000000000000000815260040161172190614817565b60405180910390fd5b600060076000600c54815260200190815260200160002090508381600101908051906020019061175b9291906132e2565b5060008160020160006101000a81548160ff0219169083600181111561178457611783613543565b5b021790555082816003016000820151816000015560208201518160010190805190602001906117b49291906132e2565b5060408201518160020190805190602001906117d19291906132e2565b5060608201518160030160006101000a81548160ff021916908360058111156117fd576117fc613543565b5b0217905550608082015181600401908051906020019061181e9291906132e2565b50905050818160080160006101000a81548173ffffffffffffffffffffffffffffffffffffffff021916908373ffffffffffffffffffffffffffffffffffffffff1602179055507fc0a7086e05590c8d9160aba8dc6a29b754eda15e93d2a2578429bc2fda6bdec3600c546000858660600151866040516118a395949392919061474b565b60405180910390a1600c60008154809291906118be9061464a565b919050555050505050565b6060600a805480602002602001604051908101604052809291908181526020016000905b82821015611b1a57838290600052602060002090600502016040518060a00160405290816000820154815260200160018201805461192a9061444e565b80601f01602080910402602001604051908101604052809291908181526020018280546119569061444e565b80156119a35780601f10611978576101008083540402835291602001916119a3565b820191906000526020600020905b81548152906001019060200180831161198657829003601f168201915b505050505081526020016002820180546119bc9061444e565b80601f01602080910402602001604051908101604052809291908181526020018280546119e89061444e565b8015611a355780601f10611a0a57610100808354040283529160200191611a35565b820191906000526020600020905b815481529060010190602001808311611a1857829003601f168201915b505050505081526020016003820160009054906101000a900460ff166005811115611a6357611a62613543565b5b6005811115611a7557611a74613543565b5b8152602001600482018054611a899061444e565b80601f0160208091040260200160405190810160405280929190818152602001828054611ab59061444e565b8015611b025780601f10611ad757610100808354040283529160200191611b02565b820191906000526020600020905b815481529060010190602001808311611ae557829003601f168201915b505050505081525050815260200190600101906118ed565b50505050905090565b6007602052806000526040600020600091509050806000015490806001018054611b4c9061444e565b80601f0160208091040260200160405190810160405280929190818152602001828054611b789061444e565b8015611bc55780601f10611b9a57610100808354040283529160200191611bc5565b820191906000526020600020905b815481529060010190602001808311611ba857829003601f168201915b5050505050908060020160009054906101000a900460ff1690806003016040518060a001604052908160008201548152602001600182018054611c079061444e565b80601f0160208091040260200160405190810160405280929190818152602001828054611c339061444e565b8015611c805780601f10611c5557610100808354040283529160200191611c80565b820191906000526020600020905b815481529060010190602001808311611c6357829003601f168201915b50505050508152602001600282018054611c999061444e565b80601f0160208091040260200160405190810160405280929190818152602001828054611cc59061444e565b8015611d125780601f10611ce757610100808354040283529160200191611d12565b820191906000526020600020905b815481529060010190602001808311611cf557829003601f168201915b505050505081526020016003820160009054906101000a900460ff166005811115611d4057611d3f613543565b5b6005811115611d5257611d51613543565b5b8152602001600482018054611d669061444e565b80601f0160208091040260200160405190810160405280929190818152602001828054611d929061444e565b8015611ddf5780601f10611db457610100808354040283529160200191611ddf565b820191906000526020600020905b815481529060010190602001808311611dc257829003601f168201915b505050505081525050908060080160009054906101000a900473ffffffffffffffffffffffffffffffffffffffff16905085565b600160009054906101000a900473ffffffffffffffffffffffffffffffffffffffff1681565b816003811115611e4c57611e4b613543565b5b6000808373ffffffffffffffffffffffffffffffffffffffff1673ffffffffffffffffffffffffffffffffffffffff16815260200190815260200160002060040160006101000a81548160ff02191690836003811115611eaf57611eae613543565b5b021790555060005b600380549050811015611fb0578173ffffffffffffffffffffffffffffffffffffffff1660038281548110611eef57611eee614837565b5b906000526020600020906005020160040160019054906101000a900473ffffffffffffffffffffffffffffffffffffffff1673ffffffffffffffffffffffffffffffffffffffff161415611f9d57826003811115611f5057611f4f613543565b5b60038281548110611f6457611f63614837565b5b906000526020600020906005020160040160006101000a81548160ff02191690836003811115611f9757611f96613543565b5b02179055505b8080611fa89061464a565b915050611eb7565b505050565b3373ffffffffffffffffffffffffffffffffffffffff16600160009054906101000a900473ffffffffffffffffffffffffffffffffffffffff1673ffffffffffffffffffffffffffffffffffffffff1614612045576040517f08c379a000000000000000000000000000000000000000000000000000000000815260040161203c906148b2565b60405180910390fd5b856000808373ffffffffffffffffffffffffffffffffffffffff1673ffffffffffffffffffffffffffffffffffffffff168152602001908152602001600020600001908051906020019061209a9291906132e2565b50846000808373ffffffffffffffffffffffffffffffffffffffff1673ffffffffffffffffffffffffffffffffffffffff16815260200190815260200160002060010190805190602001906120f09291906132e2565b50836000808373ffffffffffffffffffffffffffffffffffffffff1673ffffffffffffffffffffffffffffffffffffffff16815260200190815260200160002060020190805190602001906121469291906132e2565b50826000808373ffffffffffffffffffffffffffffffffffffffff1673ffffffffffffffffffffffffffffffffffffffff168152602001908152602001600020600301908051906020019061219c9291906132e2565b508160038111156121b0576121af613543565b5b6000808373ffffffffffffffffffffffffffffffffffffffff1673ffffffffffffffffffffffffffffffffffffffff16815260200190815260200160002060040160006101000a81548160ff0219169083600381111561221357612212613543565b5b0217905550806000808373ffffffffffffffffffffffffffffffffffffffff1673ffffffffffffffffffffffffffffffffffffffff16815260200190815260200160002060040160016101000a81548173ffffffffffffffffffffffffffffffffffffffff021916908373ffffffffffffffffffffffffffffffffffffffff1602179055508160038111156122ab576122aa613543565b5b60038111156122bd576122bc613543565b5b866040516122cb91906148d2565b60405180910390208273ffffffffffffffffffffffffffffffffffffffff167fddb5d1667467713eb503e7e133811c91a231cb6b63f11930889c6004f36c35ee88888860405161231d939291906148e9565b60405180910390a460036040518060c0016040528088815260200187815260200186815260200185815260200184600381111561235d5761235c613543565b5b600381111561236f5761236e613543565b5b81526020018373ffffffffffffffffffffffffffffffffffffffff16815250908060018154018082558091505060019003906000526020600020906005020160009091909190915060008201518160000190805190602001906123d39291906132e2565b5060208201518160010190805190602001906123f09291906132e2565b50604082015181600201908051906020019061240d9291906132e2565b50606082015181600301908051906020019061242a9291906132e2565b5060808201518160040160006101000a81548160ff0219169083600381111561245657612455613543565b5b021790555060a08201518160040160016101000a81548173ffffffffffffffffffffffffffffffffffffffff021916908373ffffffffffffffffffffffffffffffffffffffff1602179055505050600260008154809291906124b79061464a565b9190505550505050505050565b600160058111156124d8576124d7613543565b5b826060015160058111156124ef576124ee613543565b5b1461252f576040517f08c379a0000000000000000000000000000000000000000000000000000000008152600401612526906149a7565b60405180910390fd5b600060066000600b5481526020019081526020016000209050838160010190805190602001906125609291906132e2565b5060008160020160006101000a81548160ff0219169083600181111561258957612588613543565b5b021790555082816003016000820151816000015560208201518160010190805190602001906125b99291906132e2565b5060408201518160020190805190602001906125d69291906132e2565b5060608201518160030160006101000a81548160ff0219169083600581111561260257612601613543565b5b021790555060808201518160040190805190602001906126239291906132e2565b50905050818160080160006101000a81548173ffffffffffffffffffffffffffffffffffffffff021916908373ffffffffffffffffffffffffffffffffffffffff1602179055507f56cef5b605de75dde94390e0903b843a7c7203544ad094da5db5ecdafb897cb8600b546000858660600151866040516126a895949392919061474b565b60405180910390a1600b60008154809291906126c39061464a565b919050555050505050565b600381815481106126de57600080fd5b90600052602060002090600502016000915090508060000180546127019061444e565b80601f016020809104026020016040519081016040528092919081815260200182805461272d9061444e565b801561277a5780601f1061274f5761010080835404028352916020019161277a565b820191906000526020600020905b81548152906001019060200180831161275d57829003601f168201915b50505050509080600101805461278f9061444e565b80601f01602080910402602001604051908101604052809291908181526020018280546127bb9061444e565b80156128085780601f106127dd57610100808354040283529160200191612808565b820191906000526020600020905b8154815290600101906020018083116127eb57829003601f168201915b50505050509080600201805461281d9061444e565b80601f01602080910402602001604051908101604052809291908181526020018280546128499061444e565b80156128965780601f1061286b57610100808354040283529160200191612896565b820191906000526020600020905b81548152906001019060200180831161287957829003601f168201915b5050505050908060030180546128ab9061444e565b80601f01602080910402602001604051908101604052809291908181526020018280546128d79061444e565b80156129245780601f106128f957610100808354040283529160200191612924565b820191906000526020600020905b81548152906001019060200180831161290757829003601f168201915b5050505050908060040160009054906101000a900460ff16908060040160019054906101000a900473ffffffffffffffffffffffffffffffffffffffff16905086565b60085481565b3373ffffffffffffffffffffffffffffffffffffffff16600d60009054906101000a900473ffffffffffffffffffffffffffffffffffffffff1673ffffffffffffffffffffffffffffffffffffffff16146129fd576040517f08c379a00000000000000000000000000000000000000000000000000000000081526004016129f490614578565b60405180910390fd5b600281606001906005811115612a1657612a15613543565b5b90816005811115612a2a57612a29613543565b5b815250507f78098fc38ddd770da2424e282946e2467768b02b8538a14f86ff7d8c9800c79482600183600d60009054906101000a900473ffffffffffffffffffffffffffffffffffffffff16604051612a8694939291906149c7565b60405180910390a15050565b6006602052806000526040600020600091509050806000015490806001018054612abb9061444e565b80601f0160208091040260200160405190810160405280929190818152602001828054612ae79061444e565b8015612b345780601f10612b0957610100808354040283529160200191612b34565b820191906000526020600020905b815481529060010190602001808311612b1757829003601f168201915b5050505050908060020160009054906101000a900460ff1690806003016040518060a001604052908160008201548152602001600182018054612b769061444e565b80601f0160208091040260200160405190810160405280929190818152602001828054612ba29061444e565b8015612bef5780601f10612bc457610100808354040283529160200191612bef565b820191906000526020600020905b815481529060010190602001808311612bd257829003601f168201915b50505050508152602001600282018054612c089061444e565b80601f0160208091040260200160405190810160405280929190818152602001828054612c349061444e565b8015612c815780601f10612c5657610100808354040283529160200191612c81565b820191906000526020600020905b815481529060010190602001808311612c6457829003601f168201915b505050505081526020016003820160009054906101000a900460ff166005811115612caf57612cae613543565b5b6005811115612cc157612cc0613543565b5b8152602001600482018054612cd59061444e565b80601f0160208091040260200160405190810160405280929190818152602001828054612d019061444e565b8015612d4e5780601f10612d2357610100808354040283529160200191612d4e565b820191906000526020600020905b815481529060010190602001808311612d3157829003601f168201915b505050505081525050908060080160009054906101000a900473ffffffffffffffffffffffffffffffffffffffff16905085565b60606003805480602002602001604051908101604052809291908181526020016000905b828210156130b157838290600052602060002090600502016040518060c0016040529081600082018054612dd99061444e565b80601f0160208091040260200160405190810160405280929190818152602001828054612e059061444e565b8015612e525780601f10612e2757610100808354040283529160200191612e52565b820191906000526020600020905b815481529060010190602001808311612e3557829003601f168201915b50505050508152602001600182018054612e6b9061444e565b80601f0160208091040260200160405190810160405280929190818152602001828054612e979061444e565b8015612ee45780601f10612eb957610100808354040283529160200191612ee4565b820191906000526020600020905b815481529060010190602001808311612ec757829003601f168201915b50505050508152602001600282018054612efd9061444e565b80601f0160208091040260200160405190810160405280929190818152602001828054612f299061444e565b8015612f765780601f10612f4b57610100808354040283529160200191612f76565b820191906000526020600020905b815481529060010190602001808311612f5957829003601f168201915b50505050508152602001600382018054612f8f9061444e565b80601f0160208091040260200160405190810160405280929190818152602001828054612fbb9061444e565b80156130085780601f10612fdd57610100808354040283529160200191613008565b820191906000526020600020905b815481529060010190602001808311612feb57829003601f168201915b505050505081526020016004820160009054906101000a900460ff16600381111561303657613035613543565b5b600381111561304857613047613543565b5b81526020016004820160019054906101000a900473ffffffffffffffffffffffffffffffffffffffff1673ffffffffffffffffffffffffffffffffffffffff1673ffffffffffffffffffffffffffffffffffffffff168152505081526020019060010190612da6565b50505050905090565b6130c26133c6565b600560008381526020019081526020016000206040518060a0016040529081600082015481526020016001820180546130fa9061444e565b80601f01602080910402602001604051908101604052809291908181526020018280546131269061444e565b80156131735780601f1061314857610100808354040283529160200191613173565b820191906000526020600020905b81548152906001019060200180831161315657829003601f168201915b5050505050815260200160028201805461318c9061444e565b80601f01602080910402602001604051908101604052809291908181526020018280546131b89061444e565b80156132055780601f106131da57610100808354040283529160200191613205565b820191906000526020600020905b8154815290600101906020018083116131e857829003601f168201915b505050505081526020016003820160009054906101000a900460ff16600581111561323357613232613543565b5b600581111561324557613244613543565b5b81526020016004820180546132599061444e565b80601f01602080910402602001604051908101604052809291908181526020018280546132859061444e565b80156132d25780601f106132a7576101008083540402835291602001916132d2565b820191906000526020600020905b8154815290600101906020018083116132b557829003601f168201915b5050505050815250509050919050565b8280546132ee9061444e565b90600052602060002090601f0160209004810192826133105760008555613357565b82601f1061332957805160ff1916838001178555613357565b82800160010185558215613357579182015b8281111561335657825182559160200191906001019061333b565b5b5090506133649190613407565b5090565b6040518060c0016040528060608152602001606081526020016060815260200160608152602001600060038111156133a3576133a2613543565b5b8152602001600073ffffffffffffffffffffffffffffffffffffffff1681525090565b6040518060a00160405280600081526020016060815260200160608152602001600060058111156133fa576133f9613543565b5b8152602001606081525090565b5b80821115613420576000816000905550600101613408565b5090565b6000604051905090565b600080fd5b600080fd5b6000819050919050565b61344b81613438565b811461345657600080fd5b50565b60008135905061346881613442565b92915050565b6000602082840312156134845761348361342e565b5b600061349284828501613459565b91505092915050565b6134a481613438565b82525050565b600081519050919050565b600082825260208201905092915050565b60005b838110156134e45780820151818401526020810190506134c9565b838111156134f3576000848401525b50505050565b6000601f19601f8301169050919050565b6000613515826134aa565b61351f81856134b5565b935061352f8185602086016134c6565b613538816134f9565b840191505092915050565b7f4e487b7100000000000000000000000000000000000000000000000000000000600052602160045260246000fd5b6006811061358357613582613543565b5b50565b600081905061359482613572565b919050565b60006135a482613586565b9050919050565b6135b481613599565b82525050565b600060a0820190506135cf600083018861349b565b81810360208301526135e1818761350a565b905081810360408301526135f5818661350a565b905061360460608301856135ab565b8181036080830152613616818461350a565b90509695505050505050565b600080fd5b600080fd5b7f4e487b7100000000000000000000000000000000000000000000000000000000600052604160045260246000fd5b613664826134f9565b810181811067ffffffffffffffff821117156136835761368261362c565b5b80604052505050565b6000613696613424565b90506136a2828261365b565b919050565b600067ffffffffffffffff8211156136c2576136c161362c565b5b6136cb826134f9565b9050602081019050919050565b82818337600083830152505050565b60006136fa6136f5846136a7565b61368c565b90508281526020810184848401111561371657613715613627565b5b6137218482856136d8565b509392505050565b600082601f83011261373e5761373d613622565b5b813561374e8482602086016136e7565b91505092915050565b600073ffffffffffffffffffffffffffffffffffffffff82169050919050565b600061378282613757565b9050919050565b61379281613777565b811461379d57600080fd5b50565b6000813590506137af81613789565b92915050565b600080604083850312156137cc576137cb61342e565b5b600083013567ffffffffffffffff8111156137ea576137e9613433565b5b6137f685828601613729565b9250506020613807858286016137a0565b9150509250929050565b61381a81613777565b82525050565b60006020820190506138356000830184613811565b92915050565b6000602082840312156138515761385061342e565b5b600061385f848285016137a0565b91505092915050565b6004811061387957613878613543565b5b50565b600081905061388a82613868565b919050565b600061389a8261387c565b9050919050565b6138aa8161388f565b82525050565b600060c08201905081810360008301526138ca818961350a565b905081810360208301526138de818861350a565b905081810360408301526138f2818761350a565b90508181036060830152613906818661350a565b905061391560808301856138a1565b61392260a0830184613811565b979650505050505050565b600081519050919050565b600082825260208201905092915050565b6000819050602082019050919050565b61396281613438565b82525050565b60006139748383613959565b60208301905092915050565b6000602082019050919050565b60006139988261392d565b6139a28185613938565b93506139ad83613949565b8060005b838110156139de5781516139c58882613968565b97506139d083613980565b9250506001810190506139b1565b5085935050505092915050565b60006020820190508181036000830152613a05818461398d565b905092915050565b600080fd5b600080fd5b60068110613a2457600080fd5b50565b600081359050613a3681613a17565b92915050565b600060a08284031215613a5257613a51613a0d565b5b613a5c60a061368c565b90506000613a6c84828501613459565b600083015250602082013567ffffffffffffffff811115613a9057613a8f613a12565b5b613a9c84828501613729565b602083015250604082013567ffffffffffffffff811115613ac057613abf613a12565b5b613acc84828501613729565b6040830152506060613ae084828501613a27565b606083015250608082013567ffffffffffffffff811115613b0457613b03613a12565b5b613b1084828501613729565b60808301525092915050565b600060208284031215613b3257613b3161342e565b5b600082013567ffffffffffffffff811115613b5057613b4f613433565b5b613b5c84828501613a3c565b91505092915050565b60008060008060808587031215613b7f57613b7e61342e565b5b600085013567ffffffffffffffff811115613b9d57613b9c613433565b5b613ba987828801613729565b945050602085013567ffffffffffffffff811115613bca57613bc9613433565b5b613bd687828801613729565b9350506040613be787828801613459565b925050606085013567ffffffffffffffff811115613c0857613c07613433565b5b613c1487828801613729565b91505092959194509250565b6000602082019050613c35600083018461349b565b92915050565b6000819050919050565b613c4e81613c3b565b82525050565b6000602082019050613c696000830184613c45565b92915050565b600082825260208201905092915050565b6000613c8b826134aa565b613c958185613c6f565b9350613ca58185602086016134c6565b613cae816134f9565b840191505092915050565b613cc28161388f565b82525050565b613cd181613777565b82525050565b600060c0830160008301518482036000860152613cf48282613c80565b91505060208301518482036020860152613d0e8282613c80565b91505060408301518482036040860152613d288282613c80565b91505060608301518482036060860152613d428282613c80565b9150506080830151613d576080860182613cb9565b5060a0830151613d6a60a0860182613cc8565b508091505092915050565b60006020820190508181036000830152613d8f8184613cd7565b905092915050565b600080600060608486031215613db057613daf61342e565b5b600084013567ffffffffffffffff811115613dce57613dcd613433565b5b613dda86828701613729565b935050602084013567ffffffffffffffff811115613dfb57613dfa613433565b5b613e0786828701613a3c565b9250506040613e18868287016137a0565b9150509250925092565b600081519050919050565b600082825260208201905092915050565b6000819050602082019050919050565b613e5781613599565b82525050565b600060a083016000830151613e756000860182613959565b5060208301518482036020860152613e8d8282613c80565b91505060408301518482036040860152613ea78282613c80565b9150506060830151613ebc6060860182613e4e565b5060808301518482036080860152613ed48282613c80565b9150508091505092915050565b6000613eed8383613e5d565b905092915050565b6000602082019050919050565b6000613f0d82613e22565b613f178185613e2d565b935083602082028501613f2985613e3e565b8060005b85811015613f655784840389528151613f468582613ee1565b9450613f5183613ef5565b925060208a01995050600181019050613f2d565b50829750879550505050505092915050565b60006020820190508181036000830152613f918184613f02565b905092915050565b60028110613faa57613fa9613543565b5b50565b6000819050613fbb82613f99565b919050565b6000613fcb82613fad565b9050919050565b613fdb81613fc0565b82525050565b600060a083016000830151613ff96000860182613959565b50602083015184820360208601526140118282613c80565b9150506040830151848203604086015261402b8282613c80565b91505060608301516140406060860182613e4e565b50608083015184820360808601526140588282613c80565b9150508091505092915050565b600060a08201905061407a600083018861349b565b818103602083015261408c818761350a565b905061409b6040830186613fd2565b81810360608301526140ad8185613fe1565b90506140bc6080830184613811565b9695505050505050565b600080604083850312156140dd576140dc61342e565b5b60006140eb85828601613459565b92505060206140fc858286016137a0565b9150509250929050565b60008060008060008060c087890312156141235761412261342e565b5b600087013567ffffffffffffffff81111561414157614140613433565b5b61414d89828a01613729565b965050602087013567ffffffffffffffff81111561416e5761416d613433565b5b61417a89828a01613729565b955050604087013567ffffffffffffffff81111561419b5761419a613433565b5b6141a789828a01613729565b945050606087013567ffffffffffffffff8111156141c8576141c7613433565b5b6141d489828a01613729565b93505060806141e589828a01613459565b92505060a06141f689828a016137a0565b9150509295509295509295565b6000806040838503121561421a5761421961342e565b5b600083013567ffffffffffffffff81111561423857614237613433565b5b61424485828601613729565b925050602083013567ffffffffffffffff81111561426557614264613433565b5b61427185828601613a3c565b9150509250929050565b600081519050919050565b600082825260208201905092915050565b6000819050602082019050919050565b600060c08301600083015184820360008601526142c48282613c80565b915050602083015184820360208601526142de8282613c80565b915050604083015184820360408601526142f88282613c80565b915050606083015184820360608601526143128282613c80565b91505060808301516143276080860182613cb9565b5060a083015161433a60a0860182613cc8565b508091505092915050565b600061435183836142a7565b905092915050565b6000602082019050919050565b60006143718261427b565b61437b8185614286565b93508360208202850161438d85614297565b8060005b858110156143c957848403895281516143aa8582614345565b94506143b583614359565b925060208a01995050600181019050614391565b50829750879550505050505092915050565b600060208201905081810360008301526143f58184614366565b905092915050565b600060208201905081810360008301526144178184613fe1565b905092915050565b7f4e487b7100000000000000000000000000000000000000000000000000000000600052602260045260246000fd5b6000600282049050600182168061446657607f821691505b6020821081141561447a5761447961441f565b5b50919050565b600081905092915050565b6000614496826134aa565b6144a08185614480565b93506144b08185602086016134c6565b80840191505092915050565b60008160601b9050919050565b60006144d4826144bc565b9050919050565b60006144e6826144c9565b9050919050565b6144fe6144f982613777565b6144db565b82525050565b6000614510828561448b565b915061451c82846144ed565b6014820191508190509392505050565b7f596f7520617265206e6f7420612073757065727669736f720000000000000000600082015250565b60006145626018836134b5565b915061456d8261452c565b602082019050919050565b6000602082019050818103600083015261459181614555565b9050919050565b60006060820190506145ad60008301866135ab565b81810360208301526145bf8185613fe1565b90506145ce6040830184613811565b949350505050565b600060608201905081810360008301526145f0818661350a565b90508181036020830152614604818561350a565b905061461360408301846135ab565b949350505050565b7f4e487b7100000000000000000000000000000000000000000000000000000000600052601160045260246000fd5b600061465582613438565b91507fffffffffffffffffffffffffffffffffffffffffffffffffffffffffffffffff8214156146885761468761461b565b5b600182019050919050565b7f5468652070726f6a656374206973206e6f7420696e2074686520274265666f7260008201527f6546696e616c697a6174696f6e436865636b27207374617475732c207468652060208201527f6f7065726174696f6e2063616e6e6f7420626520646f6e652e00000000000000604082015250565b60006147156059836134b5565b915061472082614693565b606082019050919050565b6000602082019050818103600083015261474481614708565b9050919050565b600060a082019050614760600083018861349b565b61476d6020830187613fd2565b818103604083015261477f8186613fe1565b905061478e60608301856135ab565b61479b6080830184613811565b9695505050505050565b7f5468652070726f6a656374206973206e6f7420637265617465642c207468652060008201527f6f7065726174696f6e2063616e6e6f7420626520646f6e652e00000000000000602082015250565b60006148016039836134b5565b915061480c826147a5565b604082019050919050565b60006020820190508181036000830152614830816147f4565b9050919050565b7f4e487b7100000000000000000000000000000000000000000000000000000000600052603260045260246000fd5b7f596f7520617265206e6f7420616e206f776e6572000000000000000000000000600082015250565b600061489c6014836134b5565b91506148a782614866565b602082019050919050565b600060208201905081810360008301526148cb8161488f565b9050919050565b60006148de828461448b565b915081905092915050565b60006060820190508181036000830152614903818661350a565b90508181036020830152614917818561350a565b9050818103604083015261492b818461350a565b9050949350505050565b7f5468652070726f6a656374206973206e6f7420617070726f7665642c2074686560008201527f206f7065726174696f6e2063616e6e6f7420626520646f6e652e000000000000602082015250565b6000614991603a836134b5565b915061499c82614935565b604082019050919050565b600060208201905081810360008301526149c081614984565b9050919050565b600060808201905081810360008301526149e1818761350a565b90506149f060208301866135ab565b8181036040830152614a028185613fe1565b9050614a116060830184613811565b9594505050505056fea264697066735822122088394add04a10120939c07a165c0e87818fffafb72376219feb65d8082a2520764736f6c634300080a0033",
  "immutableReferences": {},
  "source": "// SPDX-License-Identifier: MIT\r\npragma solidity >=0.8.0 <0.9.0;\r\n\r\nimport \"./Project.sol\";\r\n\r\ncontract Supervisor is Project {\r\n\r\n    address _supervisorAddress;\r\n\r\n    event ApproveProjectRequestBySupervisor(ProjectStatus _status, S_Project _project, address _subjectAddress);\r\n    event RejectProjectRequestBySupervisor(string _description, ProjectStatus _status, S_Project _project, address _subjectAddress);\r\n    event CompleteProjectRequestBySupervisor(ProjectStatus _status, S_Project _project, address _subjectAddress);\r\n\r\n    constructor() {\r\n        _supervisorAddress = msg.sender;\r\n    }\r\n\r\n    modifier onlySupervisor {\r\n        require(_supervisorAddress == msg.sender, \"You are not a supervisor\");\r\n        _;\r\n    }\r\n\r\n    // Add some contrainst / verification TOOO DOOO -> LATER\r\n\r\n    function setProjectRequestToApprovedStatus(S_Project memory _project) public onlySupervisor {\r\n        _project.projectStatus = ProjectStatus.Approved;\r\n        emit ApproveProjectRequestBySupervisor(ProjectStatus.Approved, _project, _supervisorAddress);\r\n    }\r\n\r\n    function setProjectRequestToRejectStatus(string memory _description, S_Project memory _project) public onlySupervisor {\r\n        _project.projectStatus = ProjectStatus.Rejected;\r\n        emit RejectProjectRequestBySupervisor(_description, ProjectStatus.Approved, _project, _supervisorAddress);\r\n    }\r\n\r\n    function setProjectRequestToCompletedStatus(S_Project memory _project)  public onlySupervisor {\r\n        _project.projectStatus = ProjectStatus.Completed;\r\n        emit CompleteProjectRequestBySupervisor(ProjectStatus.Completed, _project, _supervisorAddress);\r\n    }\r\n}\r\n",
  "sourcePath": "/mnt/c/users/beniamin/source/repos/dissertationproject/contracts/Supervisor.sol",
  "compiler": {
    "name": "solc",
    "version": "0.8.10+commit.fc410830.Emscripten.clang"
  },
  "schemaVersion": "3.4.3",
  "updatedAt": "2021-11-19T06:05:44.567Z",
  "devdoc": {
    "kind": "dev",
    "methods": {},
    "version": 1
  },
  "userdoc": {
    "kind": "user",
    "methods": {},
    "version": 1
  }
}