{
  "contractName": "Supervisor",
  "abi": [
    {
      "inputs": [],
      "stateMutability": "nonpayable",
      "type": "constructor"
    },
    {
      "anonymous": false,
      "inputs": [
        {
          "indexed": false,
          "internalType": "enum ProjectChain.ProjectStatus",
          "name": "_status",
          "type": "uint8"
        },
        {
          "components": [
            {
              "internalType": "uint256",
              "name": "_index",
              "type": "uint256"
            },
            {
              "internalType": "string",
              "name": "_name",
              "type": "string"
            },
            {
              "internalType": "string",
              "name": "_description",
              "type": "string"
            },
            {
              "internalType": "enum ProjectChain.ProjectStatus",
              "name": "_status",
              "type": "uint8"
            },
            {
              "internalType": "string",
              "name": "_ipfsFileCID",
              "type": "string"
            },
            {
              "internalType": "address",
              "name": "_projectAddress",
              "type": "address"
            },
            {
              "internalType": "address",
              "name": "_userAddress",
              "type": "address"
            }
          ],
          "indexed": false,
          "internalType": "struct ProjectChain.Project",
          "name": "_project",
          "type": "tuple"
        },
        {
          "indexed": false,
          "internalType": "address",
          "name": "_subjectAddress",
          "type": "address"
        }
      ],
      "name": "ApproveProjectRequestBySupervisor",
      "type": "event"
    },
    {
      "anonymous": false,
      "inputs": [
        {
          "indexed": false,
          "internalType": "enum ProjectChain.ProjectStatus",
          "name": "_status",
          "type": "uint8"
        },
        {
          "components": [
            {
              "internalType": "uint256",
              "name": "_index",
              "type": "uint256"
            },
            {
              "internalType": "string",
              "name": "_name",
              "type": "string"
            },
            {
              "internalType": "string",
              "name": "_description",
              "type": "string"
            },
            {
              "internalType": "enum ProjectChain.ProjectStatus",
              "name": "_status",
              "type": "uint8"
            },
            {
              "internalType": "string",
              "name": "_ipfsFileCID",
              "type": "string"
            },
            {
              "internalType": "address",
              "name": "_projectAddress",
              "type": "address"
            },
            {
              "internalType": "address",
              "name": "_userAddress",
              "type": "address"
            }
          ],
          "indexed": false,
          "internalType": "struct ProjectChain.Project",
          "name": "_project",
          "type": "tuple"
        },
        {
          "indexed": false,
          "internalType": "address",
          "name": "_subjectAddress",
          "type": "address"
        }
      ],
      "name": "CompleteProjectRequestBySupervisor",
      "type": "event"
    },
    {
      "anonymous": false,
      "inputs": [
        {
          "indexed": false,
          "internalType": "uint256",
          "name": "_index",
          "type": "uint256"
        },
        {
          "indexed": false,
          "internalType": "string",
          "name": "_name",
          "type": "string"
        },
        {
          "indexed": false,
          "internalType": "string",
          "name": "_description",
          "type": "string"
        },
        {
          "indexed": false,
          "internalType": "enum ProjectChain.ProjectStatus",
          "name": "_status",
          "type": "uint8"
        },
        {
          "indexed": false,
          "internalType": "string",
          "name": "_ipfsFileCID",
          "type": "string"
        },
        {
          "indexed": false,
          "internalType": "address",
          "name": "_projectAddress",
          "type": "address"
        },
        {
          "indexed": false,
          "internalType": "address",
          "name": "_userAddress",
          "type": "address"
        }
      ],
      "name": "ProjectEvent",
      "type": "event"
    },
    {
      "anonymous": false,
      "inputs": [
        {
          "indexed": false,
          "internalType": "uint256",
          "name": "_index",
          "type": "uint256"
        },
        {
          "indexed": false,
          "internalType": "string",
          "name": "_title",
          "type": "string"
        },
        {
          "indexed": false,
          "internalType": "string",
          "name": "_description",
          "type": "string"
        },
        {
          "indexed": false,
          "internalType": "string",
          "name": "_comments",
          "type": "string"
        },
        {
          "indexed": false,
          "internalType": "enum ProjectChain.ProjectStatus",
          "name": "_status",
          "type": "uint8"
        },
        {
          "indexed": false,
          "internalType": "enum ProjectChain.RequestStatus",
          "name": "_requestStatus",
          "type": "uint8"
        },
        {
          "indexed": false,
          "internalType": "address",
          "name": "_projectAddress",
          "type": "address"
        },
        {
          "indexed": false,
          "internalType": "address",
          "name": "_userAddress",
          "type": "address"
        }
      ],
      "name": "ProjectStatusEvent",
      "type": "event"
    },
    {
      "anonymous": false,
      "inputs": [
        {
          "indexed": false,
          "internalType": "string",
          "name": "_description",
          "type": "string"
        },
        {
          "indexed": false,
          "internalType": "enum ProjectChain.ProjectStatus",
          "name": "_status",
          "type": "uint8"
        },
        {
          "components": [
            {
              "internalType": "uint256",
              "name": "_index",
              "type": "uint256"
            },
            {
              "internalType": "string",
              "name": "_name",
              "type": "string"
            },
            {
              "internalType": "string",
              "name": "_description",
              "type": "string"
            },
            {
              "internalType": "enum ProjectChain.ProjectStatus",
              "name": "_status",
              "type": "uint8"
            },
            {
              "internalType": "string",
              "name": "_ipfsFileCID",
              "type": "string"
            },
            {
              "internalType": "address",
              "name": "_projectAddress",
              "type": "address"
            },
            {
              "internalType": "address",
              "name": "_userAddress",
              "type": "address"
            }
          ],
          "indexed": false,
          "internalType": "struct ProjectChain.Project",
          "name": "_project",
          "type": "tuple"
        },
        {
          "indexed": false,
          "internalType": "address",
          "name": "_subjectAddress",
          "type": "address"
        }
      ],
      "name": "RejectProjectRequestBySupervisor",
      "type": "event"
    },
    {
      "anonymous": false,
      "inputs": [
        {
          "indexed": false,
          "internalType": "string",
          "name": "_username",
          "type": "string"
        },
        {
          "indexed": false,
          "internalType": "string",
          "name": "_firstname",
          "type": "string"
        },
        {
          "indexed": false,
          "internalType": "string",
          "name": "_lastname",
          "type": "string"
        },
        {
          "indexed": false,
          "internalType": "string",
          "name": "_email",
          "type": "string"
        },
        {
          "indexed": false,
          "internalType": "enum UserChain.Roles",
          "name": "_role",
          "type": "uint8"
        },
        {
          "indexed": false,
          "internalType": "address",
          "name": "_walletAddress",
          "type": "address"
        }
      ],
      "name": "UserChanges",
      "type": "event"
    },
    {
      "anonymous": false,
      "inputs": [
        {
          "indexed": true,
          "internalType": "address",
          "name": "_walletAddress",
          "type": "address"
        },
        {
          "indexed": true,
          "internalType": "string",
          "name": "_username",
          "type": "string"
        },
        {
          "indexed": false,
          "internalType": "string",
          "name": "_email",
          "type": "string"
        },
        {
          "indexed": false,
          "internalType": "string",
          "name": "_firstname",
          "type": "string"
        },
        {
          "indexed": false,
          "internalType": "string",
          "name": "_lastname",
          "type": "string"
        },
        {
          "indexed": true,
          "internalType": "enum UserChain.Roles",
          "name": "_role",
          "type": "uint8"
        }
      ],
      "name": "UserRegistered",
      "type": "event"
    },
    {
      "inputs": [
        {
          "internalType": "uint256",
          "name": "",
          "type": "uint256"
        }
      ],
      "name": "allCompanyRequests",
      "outputs": [
        {
          "internalType": "uint256",
          "name": "index",
          "type": "uint256"
        },
        {
          "internalType": "string",
          "name": "description",
          "type": "string"
        },
        {
          "internalType": "enum ProjectChain.RequestStatus",
          "name": "status",
          "type": "uint8"
        },
        {
          "internalType": "enum ProjectChain.ProjectStatus",
          "name": "projectStatus",
          "type": "uint8"
        },
        {
          "internalType": "address",
          "name": "projectAddress",
          "type": "address"
        },
        {
          "internalType": "address",
          "name": "_userAddress",
          "type": "address"
        }
      ],
      "stateMutability": "view",
      "type": "function"
    },
    {
      "inputs": [
        {
          "internalType": "uint256",
          "name": "",
          "type": "uint256"
        }
      ],
      "name": "allProjectRequests",
      "outputs": [
        {
          "internalType": "uint256",
          "name": "_index",
          "type": "uint256"
        },
        {
          "internalType": "string",
          "name": "_title",
          "type": "string"
        },
        {
          "internalType": "string",
          "name": "_description",
          "type": "string"
        },
        {
          "internalType": "string",
          "name": "_comments",
          "type": "string"
        },
        {
          "internalType": "enum ProjectChain.ProjectStatus",
          "name": "_status",
          "type": "uint8"
        },
        {
          "internalType": "enum ProjectChain.RequestStatus",
          "name": "_requestStatus",
          "type": "uint8"
        },
        {
          "internalType": "address",
          "name": "_projectAddress",
          "type": "address"
        },
        {
          "internalType": "address",
          "name": "_userAddress",
          "type": "address"
        }
      ],
      "stateMutability": "view",
      "type": "function"
    },
    {
      "inputs": [
        {
          "internalType": "uint256",
          "name": "",
          "type": "uint256"
        }
      ],
      "name": "allProjects",
      "outputs": [
        {
          "internalType": "uint256",
          "name": "_index",
          "type": "uint256"
        },
        {
          "internalType": "string",
          "name": "_name",
          "type": "string"
        },
        {
          "internalType": "string",
          "name": "_description",
          "type": "string"
        },
        {
          "internalType": "enum ProjectChain.ProjectStatus",
          "name": "_status",
          "type": "uint8"
        },
        {
          "internalType": "string",
          "name": "_ipfsFileCID",
          "type": "string"
        },
        {
          "internalType": "address",
          "name": "_projectAddress",
          "type": "address"
        },
        {
          "internalType": "address",
          "name": "_userAddress",
          "type": "address"
        }
      ],
      "stateMutability": "view",
      "type": "function"
    },
    {
      "inputs": [
        {
          "internalType": "uint256",
          "name": "",
          "type": "uint256"
        }
      ],
      "name": "allSupervisorRequests",
      "outputs": [
        {
          "internalType": "uint256",
          "name": "index",
          "type": "uint256"
        },
        {
          "internalType": "string",
          "name": "description",
          "type": "string"
        },
        {
          "internalType": "enum ProjectChain.RequestStatus",
          "name": "status",
          "type": "uint8"
        },
        {
          "internalType": "enum ProjectChain.ProjectStatus",
          "name": "projectStatus",
          "type": "uint8"
        },
        {
          "internalType": "address",
          "name": "projectAddress",
          "type": "address"
        },
        {
          "internalType": "address",
          "name": "_userAddress",
          "type": "address"
        }
      ],
      "stateMutability": "view",
      "type": "function"
    },
    {
      "inputs": [
        {
          "internalType": "uint256",
          "name": "",
          "type": "uint256"
        }
      ],
      "name": "allUsers",
      "outputs": [
        {
          "internalType": "uint256",
          "name": "_index",
          "type": "uint256"
        },
        {
          "internalType": "string",
          "name": "_username",
          "type": "string"
        },
        {
          "internalType": "string",
          "name": "_email",
          "type": "string"
        },
        {
          "internalType": "string",
          "name": "_firstname",
          "type": "string"
        },
        {
          "internalType": "string",
          "name": "_lastname",
          "type": "string"
        },
        {
          "internalType": "enum UserChain.Roles",
          "name": "_role",
          "type": "uint8"
        },
        {
          "internalType": "address",
          "name": "_walletAddress",
          "type": "address"
        }
      ],
      "stateMutability": "view",
      "type": "function"
    },
    {
      "inputs": [
        {
          "internalType": "uint256",
          "name": "_role",
          "type": "uint256"
        },
        {
          "internalType": "address",
          "name": "_walletAddress",
          "type": "address"
        }
      ],
      "name": "changeUserRole",
      "outputs": [],
      "stateMutability": "nonpayable",
      "type": "function"
    },
    {
      "inputs": [
        {
          "internalType": "uint256",
          "name": "",
          "type": "uint256"
        }
      ],
      "name": "companyRequests",
      "outputs": [
        {
          "internalType": "uint256",
          "name": "index",
          "type": "uint256"
        },
        {
          "internalType": "string",
          "name": "description",
          "type": "string"
        },
        {
          "internalType": "enum ProjectChain.RequestStatus",
          "name": "status",
          "type": "uint8"
        },
        {
          "internalType": "enum ProjectChain.ProjectStatus",
          "name": "projectStatus",
          "type": "uint8"
        },
        {
          "internalType": "address",
          "name": "projectAddress",
          "type": "address"
        },
        {
          "internalType": "address",
          "name": "_userAddress",
          "type": "address"
        }
      ],
      "stateMutability": "view",
      "type": "function"
    },
    {
      "inputs": [
        {
          "internalType": "string",
          "name": "_text",
          "type": "string"
        },
        {
          "internalType": "address",
          "name": "_address",
          "type": "address"
        },
        {
          "internalType": "uint256",
          "name": "num",
          "type": "uint256"
        }
      ],
      "name": "create",
      "outputs": [
        {
          "internalType": "address",
          "name": "",
          "type": "address"
        }
      ],
      "stateMutability": "pure",
      "type": "function"
    },
    {
      "inputs": [
        {
          "internalType": "string",
          "name": "_name",
          "type": "string"
        },
        {
          "internalType": "string",
          "name": "_description",
          "type": "string"
        },
        {
          "internalType": "uint256",
          "name": "_status",
          "type": "uint256"
        },
        {
          "internalType": "string",
          "name": "_ipfsFileCID",
          "type": "string"
        }
      ],
      "name": "createProject",
      "outputs": [],
      "stateMutability": "nonpayable",
      "type": "function"
    },
    {
      "inputs": [
        {
          "internalType": "string",
          "name": "_title",
          "type": "string"
        },
        {
          "internalType": "string",
          "name": "_description",
          "type": "string"
        },
        {
          "internalType": "enum ProjectChain.ProjectStatus",
          "name": "_status",
          "type": "uint8"
        },
        {
          "internalType": "enum ProjectChain.RequestStatus",
          "name": "_requestStatus",
          "type": "uint8"
        },
        {
          "internalType": "address",
          "name": "_projectAddress",
          "type": "address"
        }
      ],
      "name": "createProjectRequest",
      "outputs": [],
      "stateMutability": "nonpayable",
      "type": "function"
    },
    {
      "inputs": [
        {
          "internalType": "string",
          "name": "_text",
          "type": "string"
        }
      ],
      "name": "createUniqueHexAddress",
      "outputs": [
        {
          "internalType": "address",
          "name": "",
          "type": "address"
        }
      ],
      "stateMutability": "view",
      "type": "function"
    },
    {
      "inputs": [],
      "name": "getAllProjects",
      "outputs": [
        {
          "components": [
            {
              "internalType": "uint256",
              "name": "_index",
              "type": "uint256"
            },
            {
              "internalType": "string",
              "name": "_name",
              "type": "string"
            },
            {
              "internalType": "string",
              "name": "_description",
              "type": "string"
            },
            {
              "internalType": "enum ProjectChain.ProjectStatus",
              "name": "_status",
              "type": "uint8"
            },
            {
              "internalType": "string",
              "name": "_ipfsFileCID",
              "type": "string"
            },
            {
              "internalType": "address",
              "name": "_projectAddress",
              "type": "address"
            },
            {
              "internalType": "address",
              "name": "_userAddress",
              "type": "address"
            }
          ],
          "internalType": "struct ProjectChain.Project[]",
          "name": "",
          "type": "tuple[]"
        }
      ],
      "stateMutability": "view",
      "type": "function"
    },
    {
      "inputs": [],
      "name": "getAllUsers",
      "outputs": [
        {
          "components": [
            {
              "internalType": "uint256",
              "name": "_index",
              "type": "uint256"
            },
            {
              "internalType": "string",
              "name": "_username",
              "type": "string"
            },
            {
              "internalType": "string",
              "name": "_email",
              "type": "string"
            },
            {
              "internalType": "string",
              "name": "_firstname",
              "type": "string"
            },
            {
              "internalType": "string",
              "name": "_lastname",
              "type": "string"
            },
            {
              "internalType": "enum UserChain.Roles",
              "name": "_role",
              "type": "uint8"
            },
            {
              "internalType": "address",
              "name": "_walletAddress",
              "type": "address"
            }
          ],
          "internalType": "struct UserChain.User[]",
          "name": "",
          "type": "tuple[]"
        }
      ],
      "stateMutability": "view",
      "type": "function"
    },
    {
      "inputs": [
        {
          "internalType": "address",
          "name": "_address",
          "type": "address"
        }
      ],
      "name": "getProjectInfo",
      "outputs": [
        {
          "components": [
            {
              "internalType": "uint256",
              "name": "_index",
              "type": "uint256"
            },
            {
              "internalType": "string",
              "name": "_name",
              "type": "string"
            },
            {
              "internalType": "string",
              "name": "_description",
              "type": "string"
            },
            {
              "internalType": "enum ProjectChain.ProjectStatus",
              "name": "_status",
              "type": "uint8"
            },
            {
              "internalType": "string",
              "name": "_ipfsFileCID",
              "type": "string"
            },
            {
              "internalType": "address",
              "name": "_projectAddress",
              "type": "address"
            },
            {
              "internalType": "address",
              "name": "_userAddress",
              "type": "address"
            }
          ],
          "internalType": "struct ProjectChain.Project",
          "name": "",
          "type": "tuple"
        }
      ],
      "stateMutability": "view",
      "type": "function"
    },
    {
      "inputs": [
        {
          "internalType": "address",
          "name": "_walletAddress",
          "type": "address"
        }
      ],
      "name": "getUserInfo",
      "outputs": [
        {
          "components": [
            {
              "internalType": "uint256",
              "name": "_index",
              "type": "uint256"
            },
            {
              "internalType": "string",
              "name": "_username",
              "type": "string"
            },
            {
              "internalType": "string",
              "name": "_email",
              "type": "string"
            },
            {
              "internalType": "string",
              "name": "_firstname",
              "type": "string"
            },
            {
              "internalType": "string",
              "name": "_lastname",
              "type": "string"
            },
            {
              "internalType": "enum UserChain.Roles",
              "name": "_role",
              "type": "uint8"
            },
            {
              "internalType": "address",
              "name": "_walletAddress",
              "type": "address"
            }
          ],
          "internalType": "struct UserChain.User",
          "name": "",
          "type": "tuple"
        }
      ],
      "stateMutability": "view",
      "type": "function"
    },
    {
      "inputs": [],
      "name": "owner",
      "outputs": [
        {
          "internalType": "address",
          "name": "",
          "type": "address"
        }
      ],
      "stateMutability": "view",
      "type": "function"
    },
    {
      "inputs": [
        {
          "internalType": "address",
          "name": "",
          "type": "address"
        }
      ],
      "name": "projectRequests",
      "outputs": [
        {
          "internalType": "uint256",
          "name": "_index",
          "type": "uint256"
        },
        {
          "internalType": "string",
          "name": "_title",
          "type": "string"
        },
        {
          "internalType": "string",
          "name": "_description",
          "type": "string"
        },
        {
          "internalType": "string",
          "name": "_comments",
          "type": "string"
        },
        {
          "internalType": "enum ProjectChain.ProjectStatus",
          "name": "_status",
          "type": "uint8"
        },
        {
          "internalType": "enum ProjectChain.RequestStatus",
          "name": "_requestStatus",
          "type": "uint8"
        },
        {
          "internalType": "address",
          "name": "_projectAddress",
          "type": "address"
        },
        {
          "internalType": "address",
          "name": "_userAddress",
          "type": "address"
        }
      ],
      "stateMutability": "view",
      "type": "function"
    },
    {
      "inputs": [],
      "name": "projectRequestsCounter",
      "outputs": [
        {
          "internalType": "uint256",
          "name": "",
          "type": "uint256"
        }
      ],
      "stateMutability": "view",
      "type": "function"
    },
    {
      "inputs": [
        {
          "internalType": "address",
          "name": "",
          "type": "address"
        }
      ],
      "name": "projects",
      "outputs": [
        {
          "internalType": "uint256",
          "name": "_index",
          "type": "uint256"
        },
        {
          "internalType": "string",
          "name": "_name",
          "type": "string"
        },
        {
          "internalType": "string",
          "name": "_description",
          "type": "string"
        },
        {
          "internalType": "enum ProjectChain.ProjectStatus",
          "name": "_status",
          "type": "uint8"
        },
        {
          "internalType": "string",
          "name": "_ipfsFileCID",
          "type": "string"
        },
        {
          "internalType": "address",
          "name": "_projectAddress",
          "type": "address"
        },
        {
          "internalType": "address",
          "name": "_userAddress",
          "type": "address"
        }
      ],
      "stateMutability": "view",
      "type": "function"
    },
    {
      "inputs": [],
      "name": "projectsCounter",
      "outputs": [
        {
          "internalType": "uint256",
          "name": "",
          "type": "uint256"
        }
      ],
      "stateMutability": "view",
      "type": "function"
    },
    {
      "inputs": [
        {
          "internalType": "string",
          "name": "_username",
          "type": "string"
        },
        {
          "internalType": "string",
          "name": "_email",
          "type": "string"
        },
        {
          "internalType": "string",
          "name": "_firstname",
          "type": "string"
        },
        {
          "internalType": "string",
          "name": "_lastname",
          "type": "string"
        },
        {
          "internalType": "uint256",
          "name": "_role",
          "type": "uint256"
        },
        {
          "internalType": "address",
          "name": "_walletAddress",
          "type": "address"
        }
      ],
      "name": "registerUser",
      "outputs": [],
      "stateMutability": "nonpayable",
      "type": "function"
    },
    {
      "inputs": [],
      "name": "requestsCompanyCounter",
      "outputs": [
        {
          "internalType": "uint256",
          "name": "",
          "type": "uint256"
        }
      ],
      "stateMutability": "view",
      "type": "function"
    },
    {
      "inputs": [
        {
          "internalType": "address",
          "name": "",
          "type": "address"
        }
      ],
      "name": "requestsForCompany",
      "outputs": [
        {
          "internalType": "uint256",
          "name": "index",
          "type": "uint256"
        },
        {
          "internalType": "string",
          "name": "description",
          "type": "string"
        },
        {
          "internalType": "enum ProjectChain.RequestStatus",
          "name": "status",
          "type": "uint8"
        },
        {
          "internalType": "enum ProjectChain.ProjectStatus",
          "name": "projectStatus",
          "type": "uint8"
        },
        {
          "internalType": "address",
          "name": "projectAddress",
          "type": "address"
        },
        {
          "internalType": "address",
          "name": "_userAddress",
          "type": "address"
        }
      ],
      "stateMutability": "view",
      "type": "function"
    },
    {
      "inputs": [
        {
          "internalType": "address",
          "name": "",
          "type": "address"
        }
      ],
      "name": "requestsForSupervisor",
      "outputs": [
        {
          "internalType": "uint256",
          "name": "index",
          "type": "uint256"
        },
        {
          "internalType": "string",
          "name": "description",
          "type": "string"
        },
        {
          "internalType": "enum ProjectChain.RequestStatus",
          "name": "status",
          "type": "uint8"
        },
        {
          "internalType": "enum ProjectChain.ProjectStatus",
          "name": "projectStatus",
          "type": "uint8"
        },
        {
          "internalType": "address",
          "name": "projectAddress",
          "type": "address"
        },
        {
          "internalType": "address",
          "name": "_userAddress",
          "type": "address"
        }
      ],
      "stateMutability": "view",
      "type": "function"
    },
    {
      "inputs": [],
      "name": "requestsSupervisorCounter",
      "outputs": [
        {
          "internalType": "uint256",
          "name": "",
          "type": "uint256"
        }
      ],
      "stateMutability": "view",
      "type": "function"
    },
    {
      "inputs": [
        {
          "internalType": "uint256",
          "name": "",
          "type": "uint256"
        }
      ],
      "name": "supervisorRequests",
      "outputs": [
        {
          "internalType": "uint256",
          "name": "index",
          "type": "uint256"
        },
        {
          "internalType": "string",
          "name": "description",
          "type": "string"
        },
        {
          "internalType": "enum ProjectChain.RequestStatus",
          "name": "status",
          "type": "uint8"
        },
        {
          "internalType": "enum ProjectChain.ProjectStatus",
          "name": "projectStatus",
          "type": "uint8"
        },
        {
          "internalType": "address",
          "name": "projectAddress",
          "type": "address"
        },
        {
          "internalType": "address",
          "name": "_userAddress",
          "type": "address"
        }
      ],
      "stateMutability": "view",
      "type": "function"
    },
    {
      "inputs": [
        {
          "internalType": "address",
          "name": "",
          "type": "address"
        }
      ],
      "name": "users",
      "outputs": [
        {
          "internalType": "uint256",
          "name": "_index",
          "type": "uint256"
        },
        {
          "internalType": "string",
          "name": "_username",
          "type": "string"
        },
        {
          "internalType": "string",
          "name": "_email",
          "type": "string"
        },
        {
          "internalType": "string",
          "name": "_firstname",
          "type": "string"
        },
        {
          "internalType": "string",
          "name": "_lastname",
          "type": "string"
        },
        {
          "internalType": "enum UserChain.Roles",
          "name": "_role",
          "type": "uint8"
        },
        {
          "internalType": "address",
          "name": "_walletAddress",
          "type": "address"
        }
      ],
      "stateMutability": "view",
      "type": "function"
    },
    {
      "inputs": [],
      "name": "usersCounter",
      "outputs": [
        {
          "internalType": "uint256",
          "name": "",
          "type": "uint256"
        }
      ],
      "stateMutability": "view",
      "type": "function"
    }
  ],
  "bytecode": "0x60806040526000600355600060065560006009556000600c556000600f5534801561002957600080fd5b50336000806101000a81548173ffffffffffffffffffffffffffffffffffffffff021916908373ffffffffffffffffffffffffffffffffffffffff16021790555033600460006101000a81548173ffffffffffffffffffffffffffffffffffffffff021916908373ffffffffffffffffffffffffffffffffffffffff16021790555033601360006101000a81548173ffffffffffffffffffffffffffffffffffffffff021916908373ffffffffffffffffffffffffffffffffffffffff160217905550614f5c806100fb6000396000f3fe608060405234801561001057600080fd5b50600436106101c45760003560e01c8063911c29a6116100f9578063c43dff5311610097578063d67b1b9911610071578063d67b1b99146105de578063e2842d79146105fc578063f9cf86491461061a578063fe360ea51461064f576101c4565b8063c43dff5314610556578063cc1ee4db1461058b578063d40d4a80146105a9576101c4565b8063a87430ba116100d3578063a87430ba146104b6578063af21684f146104ec578063b59173361461050a578063b664bb251461053a576101c4565b8063911c29a61461042f578063a2bdedf41461044b578063a5aef99714610481576101c4565b806380d03829116101665780638c86a1d7116101405780638c86a1d7146103a25780638da5cb5b146103d75780638e2661bb146103f55780639100978614610413576101c4565b806380d0382914610319578063840e78fd146103375780638a5ec6511461036d576101c4565b806353b3194c116101a257806353b3194c146102455780636386c1c71461027b57806363c163c4146102ab5780637e571188146102e2576101c4565b80630d2c16cb146101c957806346575714146101f957806347ee45b914610215575b600080fd5b6101e360048036038101906101de9190613dea565b61066d565b6040516101f09190613e74565b60405180910390f35b610213600480360381019061020e9190613ec5565b6106c6565b005b61022f600480360381019061022a9190613fac565b610c81565b60405161023c91906141a0565b60405180910390f35b61025f600480360381019061025a91906141c2565b610f81565b6040516102729796959493929190614257565b60405180910390f35b61029560048036038101906102909190613fac565b6111b8565b6040516102a291906143d4565b60405180910390f35b6102c560048036038101906102c09190613fac565b6114f4565b6040516102d998979695949392919061443e565b60405180910390f35b6102fc60048036038101906102f791906141c2565b61172e565b60405161031098979695949392919061443e565b60405180910390f35b610321611978565b60405161032e919061463d565b60405180910390f35b610351600480360381019061034c9190613fac565b611c7e565b6040516103649796959493929190614257565b60405180910390f35b61038760048036038101906103829190613fac565b611ea5565b6040516103999695949392919061465f565b60405180910390f35b6103bc60048036038101906103b791906141c2565b611fc3565b6040516103ce9695949392919061465f565b60405180910390f35b6103df6120e1565b6040516103ec9190613e74565b60405180910390f35b6103fd612105565b60405161040a91906146c7565b60405180910390f35b61042d600480360381019061042891906146e2565b61210b565b005b61044960048036038101906104449190614722565b612232565b005b610465600480360381019061046091906141c2565b6127a0565b604051610478979695949392919061482e565b60405180910390f35b61049b60048036038101906104969190613fac565b612a3f565b6040516104ad9695949392919061465f565b60405180910390f35b6104d060048036038101906104cb9190613fac565b612b5d565b6040516104e3979695949392919061482e565b60405180910390f35b6104f4612dec565b60405161050191906146c7565b60405180910390f35b610524600480360381019061051f91906148b9565b612df2565b6040516105319190613e74565b60405180910390f35b610554600480360381019061054f9190614972565b612e2b565b005b610570600480360381019061056b91906141c2565b61343f565b6040516105829695949392919061465f565b60405180910390f35b61059361356d565b6040516105a091906146c7565b60405180910390f35b6105c360048036038101906105be91906141c2565b613573565b6040516105d59695949392919061465f565b60405180910390f35b6105e6613691565b6040516105f391906146c7565b60405180910390f35b610604613697565b6040516106119190614b98565b60405180910390f35b610634600480360381019061062f91906141c2565b6139d9565b6040516106469695949392919061465f565b60405180910390f35b610657613b07565b60405161066491906146c7565b60405180910390f35b600081600460009054906101000a900473ffffffffffffffffffffffffffffffffffffffff16426040516020016106a693929190614c5f565b6040516020818303038152906040528051906020012060001c9050919050565b60006107066040518060400160405280601a81526020017f6373643f534073616c61733b646c413233345f442e3b735f617300000000000081525061066d565b9050600654600560008373ffffffffffffffffffffffffffffffffffffffff1673ffffffffffffffffffffffffffffffffffffffff1681526020019081526020016000206000018190555084600560008373ffffffffffffffffffffffffffffffffffffffff1673ffffffffffffffffffffffffffffffffffffffff16815260200190815260200160002060010190805190602001906107a7929190613b0d565b5083600560008373ffffffffffffffffffffffffffffffffffffffff1673ffffffffffffffffffffffffffffffffffffffff16815260200190815260200160002060020190805190602001906107fe929190613b0d565b5082600481111561081257610811614070565b5b600560008373ffffffffffffffffffffffffffffffffffffffff1673ffffffffffffffffffffffffffffffffffffffff16815260200190815260200160002060030160006101000a81548160ff0219169083600481111561087657610875614070565b5b021790555081600560008373ffffffffffffffffffffffffffffffffffffffff1673ffffffffffffffffffffffffffffffffffffffff16815260200190815260200160002060040190805190602001906108d1929190613b0d565b5080600560008373ffffffffffffffffffffffffffffffffffffffff1673ffffffffffffffffffffffffffffffffffffffff16815260200190815260200160002060050160006101000a81548173ffffffffffffffffffffffffffffffffffffffff021916908373ffffffffffffffffffffffffffffffffffffffff160217905550600460009054906101000a900473ffffffffffffffffffffffffffffffffffffffff16600560008373ffffffffffffffffffffffffffffffffffffffff1673ffffffffffffffffffffffffffffffffffffffff16815260200190815260200160002060060160006101000a81548173ffffffffffffffffffffffffffffffffffffffff021916908373ffffffffffffffffffffffffffffffffffffffff1602179055507f26dcd90797c08da6e2f8f632e15a194aa091dfdbda0db17125d4ab5bece391d56006548686866004811115610a2f57610a2e614070565b5b8686600460009054906101000a900473ffffffffffffffffffffffffffffffffffffffff16604051610a679796959493929190614257565b60405180910390a160076040518060e001604052806006548152602001878152602001868152602001856004811115610aa357610aa2614070565b5b6004811115610ab557610ab4614070565b5b81526020018481526020018373ffffffffffffffffffffffffffffffffffffffff168152602001600460009054906101000a900473ffffffffffffffffffffffffffffffffffffffff1673ffffffffffffffffffffffffffffffffffffffff168152509080600181540180825580915050600190039060005260206000209060070201600090919091909150600082015181600001556020820151816001019080519060200190610b67929190613b0d565b506040820151816002019080519060200190610b84929190613b0d565b5060608201518160030160006101000a81548160ff02191690836004811115610bb057610baf614070565b5b02179055506080820151816004019080519060200190610bd1929190613b0d565b5060a08201518160050160006101000a81548173ffffffffffffffffffffffffffffffffffffffff021916908373ffffffffffffffffffffffffffffffffffffffff16021790555060c08201518160060160006101000a81548173ffffffffffffffffffffffffffffffffffffffff021916908373ffffffffffffffffffffffffffffffffffffffff160217905550505060066000815480929190610c7590614cc7565b91905055505050505050565b610c89613b93565b600560008373ffffffffffffffffffffffffffffffffffffffff1673ffffffffffffffffffffffffffffffffffffffff1681526020019081526020016000206040518060e001604052908160008201548152602001600182018054610ced90614d3f565b80601f0160208091040260200160405190810160405280929190818152602001828054610d1990614d3f565b8015610d665780601f10610d3b57610100808354040283529160200191610d66565b820191906000526020600020905b815481529060010190602001808311610d4957829003601f168201915b50505050508152602001600282018054610d7f90614d3f565b80601f0160208091040260200160405190810160405280929190818152602001828054610dab90614d3f565b8015610df85780601f10610dcd57610100808354040283529160200191610df8565b820191906000526020600020905b815481529060010190602001808311610ddb57829003601f168201915b505050505081526020016003820160009054906101000a900460ff166004811115610e2657610e25614070565b5b6004811115610e3857610e37614070565b5b8152602001600482018054610e4c90614d3f565b80601f0160208091040260200160405190810160405280929190818152602001828054610e7890614d3f565b8015610ec55780601f10610e9a57610100808354040283529160200191610ec5565b820191906000526020600020905b815481529060010190602001808311610ea857829003601f168201915b505050505081526020016005820160009054906101000a900473ffffffffffffffffffffffffffffffffffffffff1673ffffffffffffffffffffffffffffffffffffffff1673ffffffffffffffffffffffffffffffffffffffff1681526020016006820160009054906101000a900473ffffffffffffffffffffffffffffffffffffffff1673ffffffffffffffffffffffffffffffffffffffff1673ffffffffffffffffffffffffffffffffffffffff16815250509050919050565b60078181548110610f9157600080fd5b9060005260206000209060070201600091509050806000015490806001018054610fba90614d3f565b80601f0160208091040260200160405190810160405280929190818152602001828054610fe690614d3f565b80156110335780601f1061100857610100808354040283529160200191611033565b820191906000526020600020905b81548152906001019060200180831161101657829003601f168201915b50505050509080600201805461104890614d3f565b80601f016020809104026020016040519081016040528092919081815260200182805461107490614d3f565b80156110c15780601f10611096576101008083540402835291602001916110c1565b820191906000526020600020905b8154815290600101906020018083116110a457829003601f168201915b5050505050908060030160009054906101000a900460ff16908060040180546110e990614d3f565b80601f016020809104026020016040519081016040528092919081815260200182805461111590614d3f565b80156111625780601f1061113757610100808354040283529160200191611162565b820191906000526020600020905b81548152906001019060200180831161114557829003601f168201915b5050505050908060050160009054906101000a900473ffffffffffffffffffffffffffffffffffffffff16908060060160009054906101000a900473ffffffffffffffffffffffffffffffffffffffff16905087565b6111c0613c0e565b600160008373ffffffffffffffffffffffffffffffffffffffff1673ffffffffffffffffffffffffffffffffffffffff1681526020019081526020016000206040518060e00160405290816000820154815260200160018201805461122490614d3f565b80601f016020809104026020016040519081016040528092919081815260200182805461125090614d3f565b801561129d5780601f106112725761010080835404028352916020019161129d565b820191906000526020600020905b81548152906001019060200180831161128057829003601f168201915b505050505081526020016002820180546112b690614d3f565b80601f01602080910402602001604051908101604052809291908181526020018280546112e290614d3f565b801561132f5780601f106113045761010080835404028352916020019161132f565b820191906000526020600020905b81548152906001019060200180831161131257829003601f168201915b5050505050815260200160038201805461134890614d3f565b80601f016020809104026020016040519081016040528092919081815260200182805461137490614d3f565b80156113c15780601f10611396576101008083540402835291602001916113c1565b820191906000526020600020905b8154815290600101906020018083116113a457829003601f168201915b505050505081526020016004820180546113da90614d3f565b80601f016020809104026020016040519081016040528092919081815260200182805461140690614d3f565b80156114535780601f1061142857610100808354040283529160200191611453565b820191906000526020600020905b81548152906001019060200180831161143657829003601f168201915b505050505081526020016005820160009054906101000a900460ff16600381111561148157611480614070565b5b600381111561149357611492614070565b5b81526020016005820160019054906101000a900473ffffffffffffffffffffffffffffffffffffffff1673ffffffffffffffffffffffffffffffffffffffff1673ffffffffffffffffffffffffffffffffffffffff16815250509050919050565b600860205280600052604060002060009150905080600001549080600101805461151d90614d3f565b80601f016020809104026020016040519081016040528092919081815260200182805461154990614d3f565b80156115965780601f1061156b57610100808354040283529160200191611596565b820191906000526020600020905b81548152906001019060200180831161157957829003601f168201915b5050505050908060020180546115ab90614d3f565b80601f01602080910402602001604051908101604052809291908181526020018280546115d790614d3f565b80156116245780601f106115f957610100808354040283529160200191611624565b820191906000526020600020905b81548152906001019060200180831161160757829003601f168201915b50505050509080600301805461163990614d3f565b80601f016020809104026020016040519081016040528092919081815260200182805461166590614d3f565b80156116b25780601f10611687576101008083540402835291602001916116b2565b820191906000526020600020905b81548152906001019060200180831161169557829003601f168201915b5050505050908060040160009054906101000a900460ff16908060040160019054906101000a900460ff16908060040160029054906101000a900473ffffffffffffffffffffffffffffffffffffffff16908060050160009054906101000a900473ffffffffffffffffffffffffffffffffffffffff16905088565b600a818154811061173e57600080fd5b906000526020600020906006020160009150905080600001549080600101805461176790614d3f565b80601f016020809104026020016040519081016040528092919081815260200182805461179390614d3f565b80156117e05780601f106117b5576101008083540402835291602001916117e0565b820191906000526020600020905b8154815290600101906020018083116117c357829003601f168201915b5050505050908060020180546117f590614d3f565b80601f016020809104026020016040519081016040528092919081815260200182805461182190614d3f565b801561186e5780601f106118435761010080835404028352916020019161186e565b820191906000526020600020905b81548152906001019060200180831161185157829003601f168201915b50505050509080600301805461188390614d3f565b80601f01602080910402602001604051908101604052809291908181526020018280546118af90614d3f565b80156118fc5780601f106118d1576101008083540402835291602001916118fc565b820191906000526020600020905b8154815290600101906020018083116118df57829003601f168201915b5050505050908060040160009054906101000a900460ff16908060040160019054906101000a900460ff16908060040160029054906101000a900473ffffffffffffffffffffffffffffffffffffffff16908060050160009054906101000a900473ffffffffffffffffffffffffffffffffffffffff16905088565b60606007805480602002602001604051908101604052809291908181526020016000905b82821015611c7557838290600052602060002090600702016040518060e0016040529081600082015481526020016001820180546119d990614d3f565b80601f0160208091040260200160405190810160405280929190818152602001828054611a0590614d3f565b8015611a525780601f10611a2757610100808354040283529160200191611a52565b820191906000526020600020905b815481529060010190602001808311611a3557829003601f168201915b50505050508152602001600282018054611a6b90614d3f565b80601f0160208091040260200160405190810160405280929190818152602001828054611a9790614d3f565b8015611ae45780601f10611ab957610100808354040283529160200191611ae4565b820191906000526020600020905b815481529060010190602001808311611ac757829003601f168201915b505050505081526020016003820160009054906101000a900460ff166004811115611b1257611b11614070565b5b6004811115611b2457611b23614070565b5b8152602001600482018054611b3890614d3f565b80601f0160208091040260200160405190810160405280929190818152602001828054611b6490614d3f565b8015611bb15780601f10611b8657610100808354040283529160200191611bb1565b820191906000526020600020905b815481529060010190602001808311611b9457829003601f168201915b505050505081526020016005820160009054906101000a900473ffffffffffffffffffffffffffffffffffffffff1673ffffffffffffffffffffffffffffffffffffffff1673ffffffffffffffffffffffffffffffffffffffff1681526020016006820160009054906101000a900473ffffffffffffffffffffffffffffffffffffffff1673ffffffffffffffffffffffffffffffffffffffff1673ffffffffffffffffffffffffffffffffffffffff16815250508152602001906001019061199c565b50505050905090565b6005602052806000526040600020600091509050806000015490806001018054611ca790614d3f565b80601f0160208091040260200160405190810160405280929190818152602001828054611cd390614d3f565b8015611d205780601f10611cf557610100808354040283529160200191611d20565b820191906000526020600020905b815481529060010190602001808311611d0357829003601f168201915b505050505090806002018054611d3590614d3f565b80601f0160208091040260200160405190810160405280929190818152602001828054611d6190614d3f565b8015611dae5780601f10611d8357610100808354040283529160200191611dae565b820191906000526020600020905b815481529060010190602001808311611d9157829003601f168201915b5050505050908060030160009054906101000a900460ff1690806004018054611dd690614d3f565b80601f0160208091040260200160405190810160405280929190818152602001828054611e0290614d3f565b8015611e4f5780601f10611e2457610100808354040283529160200191611e4f565b820191906000526020600020905b815481529060010190602001808311611e3257829003601f168201915b5050505050908060050160009054906101000a900473ffffffffffffffffffffffffffffffffffffffff16908060060160009054906101000a900473ffffffffffffffffffffffffffffffffffffffff16905087565b600b602052806000526040600020600091509050806000015490806001018054611ece90614d3f565b80601f0160208091040260200160405190810160405280929190818152602001828054611efa90614d3f565b8015611f475780601f10611f1c57610100808354040283529160200191611f47565b820191906000526020600020905b815481529060010190602001808311611f2a57829003601f168201915b5050505050908060020160009054906101000a900460ff16908060020160019054906101000a900460ff16908060020160029054906101000a900473ffffffffffffffffffffffffffffffffffffffff16908060030160009054906101000a900473ffffffffffffffffffffffffffffffffffffffff16905086565b6012602052806000526040600020600091509050806000015490806001018054611fec90614d3f565b80601f016020809104026020016040519081016040528092919081815260200182805461201890614d3f565b80156120655780601f1061203a57610100808354040283529160200191612065565b820191906000526020600020905b81548152906001019060200180831161204857829003601f168201915b5050505050908060020160009054906101000a900460ff16908060020160019054906101000a900460ff16908060020160029054906101000a900473ffffffffffffffffffffffffffffffffffffffff16908060030160009054906101000a900473ffffffffffffffffffffffffffffffffffffffff16905086565b60008054906101000a900473ffffffffffffffffffffffffffffffffffffffff1681565b600c5481565b81600381111561211e5761211d614070565b5b600160008373ffffffffffffffffffffffffffffffffffffffff1673ffffffffffffffffffffffffffffffffffffffff16815260200190815260200160002060050160006101000a81548160ff0219169083600381111561218257612181614070565b5b02179055506000600160008373ffffffffffffffffffffffffffffffffffffffff1673ffffffffffffffffffffffffffffffffffffffff1681526020019081526020016000206000015490508260038111156121e1576121e0614070565b5b600282815481106121f5576121f4614d71565b5b906000526020600020906006020160050160006101000a81548160ff0219169083600381111561222857612227614070565b5b0217905550505050565b3373ffffffffffffffffffffffffffffffffffffffff1660008054906101000a900473ffffffffffffffffffffffffffffffffffffffff1673ffffffffffffffffffffffffffffffffffffffff16146122c0576040517f08c379a00000000000000000000000000000000000000000000000000000000081526004016122b790614dec565b60405180910390fd5b600354600160008373ffffffffffffffffffffffffffffffffffffffff1673ffffffffffffffffffffffffffffffffffffffff1681526020019081526020016000206000018190555085600160008373ffffffffffffffffffffffffffffffffffffffff1673ffffffffffffffffffffffffffffffffffffffff168152602001908152602001600020600101908051906020019061235f929190613b0d565b5084600160008373ffffffffffffffffffffffffffffffffffffffff1673ffffffffffffffffffffffffffffffffffffffff16815260200190815260200160002060020190805190602001906123b6929190613b0d565b5083600160008373ffffffffffffffffffffffffffffffffffffffff1673ffffffffffffffffffffffffffffffffffffffff168152602001908152602001600020600301908051906020019061240d929190613b0d565b5082600160008373ffffffffffffffffffffffffffffffffffffffff1673ffffffffffffffffffffffffffffffffffffffff1681526020019081526020016000206004019080519060200190612464929190613b0d565b5081600381111561247857612477614070565b5b600160008373ffffffffffffffffffffffffffffffffffffffff1673ffffffffffffffffffffffffffffffffffffffff16815260200190815260200160002060050160006101000a81548160ff021916908360038111156124dc576124db614070565b5b021790555080600160008373ffffffffffffffffffffffffffffffffffffffff1673ffffffffffffffffffffffffffffffffffffffff16815260200190815260200160002060050160016101000a81548173ffffffffffffffffffffffffffffffffffffffff021916908373ffffffffffffffffffffffffffffffffffffffff16021790555081600381111561257557612574614070565b5b600381111561258757612586614070565b5b866040516125959190614e0c565b60405180910390208273ffffffffffffffffffffffffffffffffffffffff167fddb5d1667467713eb503e7e133811c91a231cb6b63f11930889c6004f36c35ee8888886040516125e793929190614e23565b60405180910390a460026040518060e00160405280600354815260200188815260200187815260200186815260200185815260200184600381111561262f5761262e614070565b5b600381111561264157612640614070565b5b81526020018373ffffffffffffffffffffffffffffffffffffffff1681525090806001815401808255809150506001900390600052602060002090600602016000909190919091506000820151816000015560208201518160010190805190602001906126af929190613b0d565b5060408201518160020190805190602001906126cc929190613b0d565b5060608201518160030190805190602001906126e9929190613b0d565b506080820151816004019080519060200190612706929190613b0d565b5060a08201518160050160006101000a81548160ff0219169083600381111561273257612731614070565b5b021790555060c08201518160050160016101000a81548173ffffffffffffffffffffffffffffffffffffffff021916908373ffffffffffffffffffffffffffffffffffffffff16021790555050506003600081548092919061279390614cc7565b9190505550505050505050565b600281815481106127b057600080fd5b90600052602060002090600602016000915090508060000154908060010180546127d990614d3f565b80601f016020809104026020016040519081016040528092919081815260200182805461280590614d3f565b80156128525780601f1061282757610100808354040283529160200191612852565b820191906000526020600020905b81548152906001019060200180831161283557829003601f168201915b50505050509080600201805461286790614d3f565b80601f016020809104026020016040519081016040528092919081815260200182805461289390614d3f565b80156128e05780601f106128b5576101008083540402835291602001916128e0565b820191906000526020600020905b8154815290600101906020018083116128c357829003601f168201915b5050505050908060030180546128f590614d3f565b80601f016020809104026020016040519081016040528092919081815260200182805461292190614d3f565b801561296e5780601f106129435761010080835404028352916020019161296e565b820191906000526020600020905b81548152906001019060200180831161295157829003601f168201915b50505050509080600401805461298390614d3f565b80601f01602080910402602001604051908101604052809291908181526020018280546129af90614d3f565b80156129fc5780601f106129d1576101008083540402835291602001916129fc565b820191906000526020600020905b8154815290600101906020018083116129df57829003601f168201915b5050505050908060050160009054906101000a900460ff16908060050160019054906101000a900473ffffffffffffffffffffffffffffffffffffffff16905087565b600e602052806000526040600020600091509050806000015490806001018054612a6890614d3f565b80601f0160208091040260200160405190810160405280929190818152602001828054612a9490614d3f565b8015612ae15780601f10612ab657610100808354040283529160200191612ae1565b820191906000526020600020905b815481529060010190602001808311612ac457829003601f168201915b5050505050908060020160009054906101000a900460ff16908060020160019054906101000a900460ff16908060020160029054906101000a900473ffffffffffffffffffffffffffffffffffffffff16908060030160009054906101000a900473ffffffffffffffffffffffffffffffffffffffff16905086565b6001602052806000526040600020600091509050806000015490806001018054612b8690614d3f565b80601f0160208091040260200160405190810160405280929190818152602001828054612bb290614d3f565b8015612bff5780601f10612bd457610100808354040283529160200191612bff565b820191906000526020600020905b815481529060010190602001808311612be257829003601f168201915b505050505090806002018054612c1490614d3f565b80601f0160208091040260200160405190810160405280929190818152602001828054612c4090614d3f565b8015612c8d5780601f10612c6257610100808354040283529160200191612c8d565b820191906000526020600020905b815481529060010190602001808311612c7057829003601f168201915b505050505090806003018054612ca290614d3f565b80601f0160208091040260200160405190810160405280929190818152602001828054612cce90614d3f565b8015612d1b5780601f10612cf057610100808354040283529160200191612d1b565b820191906000526020600020905b815481529060010190602001808311612cfe57829003601f168201915b505050505090806004018054612d3090614d3f565b80601f0160208091040260200160405190810160405280929190818152602001828054612d5c90614d3f565b8015612da95780601f10612d7e57610100808354040283529160200191612da9565b820191906000526020600020905b815481529060010190602001808311612d8c57829003601f168201915b5050505050908060050160009054906101000a900460ff16908060050160019054906101000a900473ffffffffffffffffffffffffffffffffffffffff16905087565b600f5481565b6000838383604051602001612e0993929190614c5f565b6040516020818303038152906040528051906020012060001c90509392505050565b600954600860008373ffffffffffffffffffffffffffffffffffffffff1673ffffffffffffffffffffffffffffffffffffffff1681526020019081526020016000206000018190555084600860008373ffffffffffffffffffffffffffffffffffffffff1673ffffffffffffffffffffffffffffffffffffffff1681526020019081526020016000206001019080519060200190612eca929190613b0d565b5083600860008373ffffffffffffffffffffffffffffffffffffffff1673ffffffffffffffffffffffffffffffffffffffff1681526020019081526020016000206002019080519060200190612f21929190613b0d565b5060405180602001604052806000815250600860008373ffffffffffffffffffffffffffffffffffffffff1673ffffffffffffffffffffffffffffffffffffffff1681526020019081526020016000206003019080519060200190612f87929190613b0d565b5082600860008373ffffffffffffffffffffffffffffffffffffffff1673ffffffffffffffffffffffffffffffffffffffff16815260200190815260200160002060040160006101000a81548160ff02191690836004811115612fed57612fec614070565b5b021790555081600860008373ffffffffffffffffffffffffffffffffffffffff1673ffffffffffffffffffffffffffffffffffffffff16815260200190815260200160002060040160016101000a81548160ff0219169083600281111561305757613056614070565b5b021790555080600860008373ffffffffffffffffffffffffffffffffffffffff1673ffffffffffffffffffffffffffffffffffffffff16815260200190815260200160002060040160026101000a81548173ffffffffffffffffffffffffffffffffffffffff021916908373ffffffffffffffffffffffffffffffffffffffff160217905550600460009054906101000a900473ffffffffffffffffffffffffffffffffffffffff16600860008373ffffffffffffffffffffffffffffffffffffffff1673ffffffffffffffffffffffffffffffffffffffff16815260200190815260200160002060050160006101000a81548173ffffffffffffffffffffffffffffffffffffffff021916908373ffffffffffffffffffffffffffffffffffffffff1602179055507f1e6759037abd29f5a329863e8d1eb53427efcbc5c8fd3c8091384640fc3392956009548686868686600460009054906101000a900473ffffffffffffffffffffffffffffffffffffffff166040516131df9796959493929190614e95565b60405180910390a1600a604051806101000160405280600954815260200187815260200186815260200160405180602001604052806000815250815260200185600481111561323157613230614070565b5b815260200184600281111561324957613248614070565b5b81526020018373ffffffffffffffffffffffffffffffffffffffff168152602001600460009054906101000a900473ffffffffffffffffffffffffffffffffffffffff1673ffffffffffffffffffffffffffffffffffffffff1681525090806001815401808255809150506001900390600052602060002090600602016000909190919091506000820151816000015560208201518160010190805190602001906132f5929190613b0d565b506040820151816002019080519060200190613312929190613b0d565b50606082015181600301908051906020019061332f929190613b0d565b5060808201518160040160006101000a81548160ff0219169083600481111561335b5761335a614070565b5b021790555060a08201518160040160016101000a81548160ff0219169083600281111561338b5761338a614070565b5b021790555060c08201518160040160026101000a81548173ffffffffffffffffffffffffffffffffffffffff021916908373ffffffffffffffffffffffffffffffffffffffff16021790555060e08201518160050160006101000a81548173ffffffffffffffffffffffffffffffffffffffff021916908373ffffffffffffffffffffffffffffffffffffffff16021790555050506009600081548092919061343390614cc7565b91905055505050505050565b600d818154811061344f57600080fd5b906000526020600020906004020160009150905080600001549080600101805461347890614d3f565b80601f01602080910402602001604051908101604052809291908181526020018280546134a490614d3f565b80156134f15780601f106134c6576101008083540402835291602001916134f1565b820191906000526020600020905b8154815290600101906020018083116134d457829003601f168201915b5050505050908060020160009054906101000a900460ff16908060020160019054906101000a900460ff16908060020160029054906101000a900473ffffffffffffffffffffffffffffffffffffffff16908060030160009054906101000a900473ffffffffffffffffffffffffffffffffffffffff16905086565b60095481565b601160205280600052604060002060009150905080600001549080600101805461359c90614d3f565b80601f01602080910402602001604051908101604052809291908181526020018280546135c890614d3f565b80156136155780601f106135ea57610100808354040283529160200191613615565b820191906000526020600020905b8154815290600101906020018083116135f857829003601f168201915b5050505050908060020160009054906101000a900460ff16908060020160019054906101000a900460ff16908060020160029054906101000a900473ffffffffffffffffffffffffffffffffffffffff16908060030160009054906101000a900473ffffffffffffffffffffffffffffffffffffffff16905086565b60035481565b60606002805480602002602001604051908101604052809291908181526020016000905b828210156139d057838290600052602060002090600602016040518060e0016040529081600082015481526020016001820180546136f890614d3f565b80601f016020809104026020016040519081016040528092919081815260200182805461372490614d3f565b80156137715780601f1061374657610100808354040283529160200191613771565b820191906000526020600020905b81548152906001019060200180831161375457829003601f168201915b5050505050815260200160028201805461378a90614d3f565b80601f01602080910402602001604051908101604052809291908181526020018280546137b690614d3f565b80156138035780601f106137d857610100808354040283529160200191613803565b820191906000526020600020905b8154815290600101906020018083116137e657829003601f168201915b5050505050815260200160038201805461381c90614d3f565b80601f016020809104026020016040519081016040528092919081815260200182805461384890614d3f565b80156138955780601f1061386a57610100808354040283529160200191613895565b820191906000526020600020905b81548152906001019060200180831161387857829003601f168201915b505050505081526020016004820180546138ae90614d3f565b80601f01602080910402602001604051908101604052809291908181526020018280546138da90614d3f565b80156139275780601f106138fc57610100808354040283529160200191613927565b820191906000526020600020905b81548152906001019060200180831161390a57829003601f168201915b505050505081526020016005820160009054906101000a900460ff16600381111561395557613954614070565b5b600381111561396757613966614070565b5b81526020016005820160019054906101000a900473ffffffffffffffffffffffffffffffffffffffff1673ffffffffffffffffffffffffffffffffffffffff1673ffffffffffffffffffffffffffffffffffffffff1681525050815260200190600101906136bb565b50505050905090565b601081815481106139e957600080fd5b9060005260206000209060040201600091509050806000015490806001018054613a1290614d3f565b80601f0160208091040260200160405190810160405280929190818152602001828054613a3e90614d3f565b8015613a8b5780601f10613a6057610100808354040283529160200191613a8b565b820191906000526020600020905b815481529060010190602001808311613a6e57829003601f168201915b5050505050908060020160009054906101000a900460ff16908060020160019054906101000a900460ff16908060020160029054906101000a900473ffffffffffffffffffffffffffffffffffffffff16908060030160009054906101000a900473ffffffffffffffffffffffffffffffffffffffff16905086565b60065481565b828054613b1990614d3f565b90600052602060002090601f016020900481019282613b3b5760008555613b82565b82601f10613b5457805160ff1916838001178555613b82565b82800160010185558215613b82579182015b82811115613b81578251825591602001919060010190613b66565b5b509050613b8f9190613c73565b5090565b6040518060e0016040528060008152602001606081526020016060815260200160006004811115613bc757613bc6614070565b5b815260200160608152602001600073ffffffffffffffffffffffffffffffffffffffff168152602001600073ffffffffffffffffffffffffffffffffffffffff1681525090565b6040518060e00160405280600081526020016060815260200160608152602001606081526020016060815260200160006003811115613c5057613c4f614070565b5b8152602001600073ffffffffffffffffffffffffffffffffffffffff1681525090565b5b80821115613c8c576000816000905550600101613c74565b5090565b6000604051905090565b600080fd5b600080fd5b600080fd5b600080fd5b6000601f19601f8301169050919050565b7f4e487b7100000000000000000000000000000000000000000000000000000000600052604160045260246000fd5b613cf782613cae565b810181811067ffffffffffffffff82111715613d1657613d15613cbf565b5b80604052505050565b6000613d29613c90565b9050613d358282613cee565b919050565b600067ffffffffffffffff821115613d5557613d54613cbf565b5b613d5e82613cae565b9050602081019050919050565b82818337600083830152505050565b6000613d8d613d8884613d3a565b613d1f565b905082815260208101848484011115613da957613da8613ca9565b5b613db4848285613d6b565b509392505050565b600082601f830112613dd157613dd0613ca4565b5b8135613de1848260208601613d7a565b91505092915050565b600060208284031215613e0057613dff613c9a565b5b600082013567ffffffffffffffff811115613e1e57613e1d613c9f565b5b613e2a84828501613dbc565b91505092915050565b600073ffffffffffffffffffffffffffffffffffffffff82169050919050565b6000613e5e82613e33565b9050919050565b613e6e81613e53565b82525050565b6000602082019050613e896000830184613e65565b92915050565b6000819050919050565b613ea281613e8f565b8114613ead57600080fd5b50565b600081359050613ebf81613e99565b92915050565b60008060008060808587031215613edf57613ede613c9a565b5b600085013567ffffffffffffffff811115613efd57613efc613c9f565b5b613f0987828801613dbc565b945050602085013567ffffffffffffffff811115613f2a57613f29613c9f565b5b613f3687828801613dbc565b9350506040613f4787828801613eb0565b925050606085013567ffffffffffffffff811115613f6857613f67613c9f565b5b613f7487828801613dbc565b91505092959194509250565b613f8981613e53565b8114613f9457600080fd5b50565b600081359050613fa681613f80565b92915050565b600060208284031215613fc257613fc1613c9a565b5b6000613fd084828501613f97565b91505092915050565b613fe281613e8f565b82525050565b600081519050919050565b600082825260208201905092915050565b60005b83811015614022578082015181840152602081019050614007565b83811115614031576000848401525b50505050565b600061404282613fe8565b61404c8185613ff3565b935061405c818560208601614004565b61406581613cae565b840191505092915050565b7f4e487b7100000000000000000000000000000000000000000000000000000000600052602160045260246000fd5b600581106140b0576140af614070565b5b50565b60008190506140c18261409f565b919050565b60006140d1826140b3565b9050919050565b6140e1816140c6565b82525050565b6140f081613e53565b82525050565b600060e08301600083015161410e6000860182613fd9565b50602083015184820360208601526141268282614037565b915050604083015184820360408601526141408282614037565b915050606083015161415560608601826140d8565b506080830151848203608086015261416d8282614037565b91505060a083015161418260a08601826140e7565b5060c083015161419560c08601826140e7565b508091505092915050565b600060208201905081810360008301526141ba81846140f6565b905092915050565b6000602082840312156141d8576141d7613c9a565b5b60006141e684828501613eb0565b91505092915050565b6141f881613e8f565b82525050565b600082825260208201905092915050565b600061421a82613fe8565b61422481856141fe565b9350614234818560208601614004565b61423d81613cae565b840191505092915050565b614251816140c6565b82525050565b600060e08201905061426c600083018a6141ef565b818103602083015261427e818961420f565b90508181036040830152614292818861420f565b90506142a16060830187614248565b81810360808301526142b3818661420f565b90506142c260a0830185613e65565b6142cf60c0830184613e65565b98975050505050505050565b600481106142ec576142eb614070565b5b50565b60008190506142fd826142db565b919050565b600061430d826142ef565b9050919050565b61431d81614302565b82525050565b600060e08301600083015161433b6000860182613fd9565b50602083015184820360208601526143538282614037565b9150506040830151848203604086015261436d8282614037565b915050606083015184820360608601526143878282614037565b915050608083015184820360808601526143a18282614037565b91505060a08301516143b660a0860182614314565b5060c08301516143c960c08601826140e7565b508091505092915050565b600060208201905081810360008301526143ee8184614323565b905092915050565b6003811061440757614406614070565b5b50565b6000819050614418826143f6565b919050565b60006144288261440a565b9050919050565b6144388161441d565b82525050565b600061010082019050614454600083018b6141ef565b8181036020830152614466818a61420f565b9050818103604083015261447a818961420f565b9050818103606083015261448e818861420f565b905061449d6080830187614248565b6144aa60a083018661442f565b6144b760c0830185613e65565b6144c460e0830184613e65565b9998505050505050505050565b600081519050919050565b600082825260208201905092915050565b6000819050602082019050919050565b600060e0830160008301516145156000860182613fd9565b506020830151848203602086015261452d8282614037565b915050604083015184820360408601526145478282614037565b915050606083015161455c60608601826140d8565b50608083015184820360808601526145748282614037565b91505060a083015161458960a08601826140e7565b5060c083015161459c60c08601826140e7565b508091505092915050565b60006145b383836144fd565b905092915050565b6000602082019050919050565b60006145d3826144d1565b6145dd81856144dc565b9350836020820285016145ef856144ed565b8060005b8581101561462b578484038952815161460c85826145a7565b9450614617836145bb565b925060208a019950506001810190506145f3565b50829750879550505050505092915050565b6000602082019050818103600083015261465781846145c8565b905092915050565b600060c08201905061467460008301896141ef565b8181036020830152614686818861420f565b9050614695604083018761442f565b6146a26060830186614248565b6146af6080830185613e65565b6146bc60a0830184613e65565b979650505050505050565b60006020820190506146dc60008301846141ef565b92915050565b600080604083850312156146f9576146f8613c9a565b5b600061470785828601613eb0565b925050602061471885828601613f97565b9150509250929050565b60008060008060008060c0878903121561473f5761473e613c9a565b5b600087013567ffffffffffffffff81111561475d5761475c613c9f565b5b61476989828a01613dbc565b965050602087013567ffffffffffffffff81111561478a57614789613c9f565b5b61479689828a01613dbc565b955050604087013567ffffffffffffffff8111156147b7576147b6613c9f565b5b6147c389828a01613dbc565b945050606087013567ffffffffffffffff8111156147e4576147e3613c9f565b5b6147f089828a01613dbc565b935050608061480189828a01613eb0565b92505060a061481289828a01613f97565b9150509295509295509295565b61482881614302565b82525050565b600060e082019050614843600083018a6141ef565b8181036020830152614855818961420f565b90508181036040830152614869818861420f565b9050818103606083015261487d818761420f565b90508181036080830152614891818661420f565b90506148a060a083018561481f565b6148ad60c0830184613e65565b98975050505050505050565b6000806000606084860312156148d2576148d1613c9a565b5b600084013567ffffffffffffffff8111156148f0576148ef613c9f565b5b6148fc86828701613dbc565b935050602061490d86828701613f97565b925050604061491e86828701613eb0565b9150509250925092565b6005811061493557600080fd5b50565b60008135905061494781614928565b92915050565b6003811061495a57600080fd5b50565b60008135905061496c8161494d565b92915050565b600080600080600060a0868803121561498e5761498d613c9a565b5b600086013567ffffffffffffffff8111156149ac576149ab613c9f565b5b6149b888828901613dbc565b955050602086013567ffffffffffffffff8111156149d9576149d8613c9f565b5b6149e588828901613dbc565b94505060406149f688828901614938565b9350506060614a078882890161495d565b9250506080614a1888828901613f97565b9150509295509295909350565b600081519050919050565b600082825260208201905092915050565b6000819050602082019050919050565b600060e083016000830151614a696000860182613fd9565b5060208301518482036020860152614a818282614037565b91505060408301518482036040860152614a9b8282614037565b91505060608301518482036060860152614ab58282614037565b91505060808301518482036080860152614acf8282614037565b91505060a0830151614ae460a0860182614314565b5060c0830151614af760c08601826140e7565b508091505092915050565b6000614b0e8383614a51565b905092915050565b6000602082019050919050565b6000614b2e82614a25565b614b388185614a30565b935083602082028501614b4a85614a41565b8060005b85811015614b865784840389528151614b678582614b02565b9450614b7283614b16565b925060208a01995050600181019050614b4e565b50829750879550505050505092915050565b60006020820190508181036000830152614bb28184614b23565b905092915050565b600081905092915050565b6000614bd082613fe8565b614bda8185614bba565b9350614bea818560208601614004565b80840191505092915050565b60008160601b9050919050565b6000614c0e82614bf6565b9050919050565b6000614c2082614c03565b9050919050565b614c38614c3382613e53565b614c15565b82525050565b6000819050919050565b614c59614c5482613e8f565b614c3e565b82525050565b6000614c6b8286614bc5565b9150614c778285614c27565b601482019150614c878284614c48565b602082019150819050949350505050565b7f4e487b7100000000000000000000000000000000000000000000000000000000600052601160045260246000fd5b6000614cd282613e8f565b91507fffffffffffffffffffffffffffffffffffffffffffffffffffffffffffffffff821415614d0557614d04614c98565b5b600182019050919050565b7f4e487b7100000000000000000000000000000000000000000000000000000000600052602260045260246000fd5b60006002820490506001821680614d5757607f821691505b60208210811415614d6b57614d6a614d10565b5b50919050565b7f4e487b7100000000000000000000000000000000000000000000000000000000600052603260045260246000fd5b7f596f7520617265206e6f7420616e206f776e6572000000000000000000000000600082015250565b6000614dd66014836141fe565b9150614de182614da0565b602082019050919050565b60006020820190508181036000830152614e0581614dc9565b9050919050565b6000614e188284614bc5565b915081905092915050565b60006060820190508181036000830152614e3d818661420f565b90508181036020830152614e51818561420f565b90508181036040830152614e65818461420f565b9050949350505050565b50565b6000614e7f6000836141fe565b9150614e8a82614e6f565b600082019050919050565b600061010082019050614eab600083018a6141ef565b8181036020830152614ebd818961420f565b90508181036040830152614ed1818861420f565b90508181036060830152614ee481614e72565b9050614ef36080830187614248565b614f0060a083018661442f565b614f0d60c0830185613e65565b614f1a60e0830184613e65565b9897505050505050505056fea26469706673582212203470fee213d167f8dd9dc3eb9e9dfd81ca5a4f4f553ec09e0a17d466ef6492c064736f6c634300080a0033",
  "immutableReferences": {},
  "source": "// SPDX-License-Identifier: MIT\r\npragma solidity >=0.8.0 <0.9.0;\r\n\r\nimport \"./ProjectChain.sol\";\r\n\r\ncontract Supervisor is ProjectChain {\r\n\r\n    address _supervisorAddress;\r\n\r\n    event ApproveProjectRequestBySupervisor(ProjectStatus _status, Project _project, address _subjectAddress);\r\n    event RejectProjectRequestBySupervisor(string _description, ProjectStatus _status, Project _project, address _subjectAddress);\r\n    event CompleteProjectRequestBySupervisor(ProjectStatus _status, Project _project, address _subjectAddress);\r\n\r\n    constructor() {\r\n        _supervisorAddress = msg.sender;\r\n    }\r\n\r\n    modifier onlySupervisor {\r\n        require(_supervisorAddress == msg.sender, \"You are not a supervisor\");\r\n        _;\r\n    }\r\n\r\n    // Add some contrainst / verification TOOO DOOO -> LATER\r\n\r\n/*\r\n    function setProjectRequestToApprovedStatus(Project memory _project) public onlySupervisor {\r\n        _project._status = ProjectStatus.Approved;\r\n        emit ApproveProjectRequestBySupervisor(ProjectStatus.Approved, _project, _supervisorAddress);\r\n    }\r\n\r\n    function setProjectRequestToRejectStatus(string memory _description, Project memory _project) public onlySupervisor {\r\n        _project._status = ProjectStatus.Rejected;\r\n        emit RejectProjectRequestBySupervisor(_description, ProjectStatus.Approved, _project, _supervisorAddress);\r\n    }\r\n\r\n    function setProjectRequestToCompletedStatus(Project memory _project)  public onlySupervisor {\r\n        _project._status = ProjectStatus.Completed;\r\n        emit CompleteProjectRequestBySupervisor(ProjectStatus.Completed, _project, _supervisorAddress);\r\n    }\r\n*/\r\n}\r\n",
  "sourcePath": "/mnt/c/users/beniamin/source/repos/dissertationproject/contracts/SupervisorChain.sol",
  "compiler": {
    "name": "solc",
    "version": "0.8.10+commit.fc410830.Emscripten.clang"
  },
  "schemaVersion": "3.4.3",
  "updatedAt": "2021-11-20T09:33:00.534Z",
  "devdoc": {
    "kind": "dev",
    "methods": {},
    "version": 1
  },
  "userdoc": {
    "kind": "user",
    "methods": {},
    "version": 1
  }
}