{
  "contractName": "SupervisorChain",
  "abi": [
    {
      "inputs": [],
      "stateMutability": "nonpayable",
      "type": "constructor"
    },
    {
      "anonymous": false,
      "inputs": [
        {
          "indexed": false,
          "internalType": "uint256",
          "name": "_index",
          "type": "uint256"
        },
        {
          "indexed": false,
          "internalType": "bytes32",
          "name": "_name",
          "type": "bytes32"
        },
        {
          "indexed": false,
          "internalType": "enum SharedChain.ProjectStatus",
          "name": "_status",
          "type": "uint8"
        },
        {
          "indexed": false,
          "internalType": "bytes32",
          "name": "_ipfsFileCID",
          "type": "bytes32"
        },
        {
          "indexed": false,
          "internalType": "address",
          "name": "_projectAddress",
          "type": "address"
        },
        {
          "indexed": false,
          "internalType": "address",
          "name": "_userAddress",
          "type": "address"
        },
        {
          "indexed": false,
          "internalType": "uint256",
          "name": "_timestamp",
          "type": "uint256"
        }
      ],
      "name": "ProjectEvent",
      "type": "event"
    },
    {
      "anonymous": false,
      "inputs": [
        {
          "indexed": false,
          "internalType": "uint256",
          "name": "_index",
          "type": "uint256"
        },
        {
          "indexed": false,
          "internalType": "bytes32",
          "name": "_title",
          "type": "bytes32"
        },
        {
          "indexed": false,
          "internalType": "bytes32",
          "name": "_comments",
          "type": "bytes32"
        },
        {
          "indexed": false,
          "internalType": "enum SharedChain.ProjectStatus",
          "name": "_status",
          "type": "uint8"
        },
        {
          "indexed": false,
          "internalType": "enum SharedChain.RequestStatus",
          "name": "_requestStatus",
          "type": "uint8"
        },
        {
          "indexed": false,
          "internalType": "address",
          "name": "_projectAddress",
          "type": "address"
        },
        {
          "indexed": false,
          "internalType": "address",
          "name": "_userAddress",
          "type": "address"
        },
        {
          "indexed": false,
          "internalType": "uint256",
          "name": "_timestamp",
          "type": "uint256"
        }
      ],
      "name": "ProjectRequestEvent",
      "type": "event"
    },
    {
      "anonymous": false,
      "inputs": [
        {
          "indexed": false,
          "internalType": "uint256",
          "name": "_index",
          "type": "uint256"
        },
        {
          "indexed": false,
          "internalType": "bytes32",
          "name": "_title",
          "type": "bytes32"
        },
        {
          "indexed": false,
          "internalType": "enum SharedChain.RequestStatus",
          "name": "_status",
          "type": "uint8"
        },
        {
          "indexed": false,
          "internalType": "enum SharedChain.ProjectStatus",
          "name": "_projectStatus",
          "type": "uint8"
        },
        {
          "indexed": false,
          "internalType": "address",
          "name": "_projectAddress",
          "type": "address"
        },
        {
          "indexed": false,
          "internalType": "address",
          "name": "_userAddress",
          "type": "address"
        },
        {
          "indexed": false,
          "internalType": "uint256",
          "name": "_timestamp",
          "type": "uint256"
        }
      ],
      "name": "RequestEvent",
      "type": "event"
    },
    {
      "inputs": [
        {
          "internalType": "uint256",
          "name": "",
          "type": "uint256"
        }
      ],
      "name": "allSupervisorRequests",
      "outputs": [
        {
          "internalType": "uint256",
          "name": "_index",
          "type": "uint256"
        },
        {
          "internalType": "bytes32",
          "name": "_title",
          "type": "bytes32"
        },
        {
          "internalType": "enum SharedChain.RequestStatus",
          "name": "_requestStatus",
          "type": "uint8"
        },
        {
          "internalType": "enum SharedChain.ProjectStatus",
          "name": "_projectStatus",
          "type": "uint8"
        },
        {
          "internalType": "address",
          "name": "_projectAddress",
          "type": "address"
        },
        {
          "internalType": "address",
          "name": "_userAddress",
          "type": "address"
        }
      ],
      "stateMutability": "view",
      "type": "function"
    },
    {
      "inputs": [
        {
          "internalType": "uint256",
          "name": "",
          "type": "uint256"
        }
      ],
      "name": "requestsSupervisor",
      "outputs": [
        {
          "internalType": "uint256",
          "name": "_index",
          "type": "uint256"
        },
        {
          "internalType": "bytes32",
          "name": "_title",
          "type": "bytes32"
        },
        {
          "internalType": "enum SharedChain.RequestStatus",
          "name": "_requestStatus",
          "type": "uint8"
        },
        {
          "internalType": "enum SharedChain.ProjectStatus",
          "name": "_projectStatus",
          "type": "uint8"
        },
        {
          "internalType": "address",
          "name": "_projectAddress",
          "type": "address"
        },
        {
          "internalType": "address",
          "name": "_userAddress",
          "type": "address"
        }
      ],
      "stateMutability": "view",
      "type": "function"
    },
    {
      "inputs": [],
      "name": "requestsSupervisorCounter",
      "outputs": [
        {
          "internalType": "uint256",
          "name": "",
          "type": "uint256"
        }
      ],
      "stateMutability": "view",
      "type": "function"
    },
    {
      "inputs": [
        {
          "internalType": "bytes32",
          "name": "_title",
          "type": "bytes32"
        },
        {
          "internalType": "uint256",
          "name": "_requestStatus",
          "type": "uint256"
        },
        {
          "internalType": "uint256",
          "name": "_projectStatus",
          "type": "uint256"
        },
        {
          "internalType": "address",
          "name": "_projectAddress",
          "type": "address"
        }
      ],
      "name": "createRequestSupervisor",
      "outputs": [],
      "stateMutability": "nonpayable",
      "type": "function"
    },
    {
      "inputs": [
        {
          "internalType": "uint256",
          "name": "_requestStatus",
          "type": "uint256"
        },
        {
          "internalType": "uint256",
          "name": "_index",
          "type": "uint256"
        }
      ],
      "name": "updateRequestSupervisor",
      "outputs": [],
      "stateMutability": "nonpayable",
      "type": "function"
    },
    {
      "inputs": [],
      "name": "getAllRequestsSupervisor",
      "outputs": [
        {
          "components": [
            {
              "internalType": "uint256",
              "name": "_index",
              "type": "uint256"
            },
            {
              "internalType": "bytes32",
              "name": "_title",
              "type": "bytes32"
            },
            {
              "internalType": "enum SharedChain.RequestStatus",
              "name": "_requestStatus",
              "type": "uint8"
            },
            {
              "internalType": "enum SharedChain.ProjectStatus",
              "name": "_projectStatus",
              "type": "uint8"
            },
            {
              "internalType": "address",
              "name": "_projectAddress",
              "type": "address"
            },
            {
              "internalType": "address",
              "name": "_userAddress",
              "type": "address"
            }
          ],
          "internalType": "struct SharedChain.Request[]",
          "name": "",
          "type": "tuple[]"
        }
      ],
      "stateMutability": "view",
      "type": "function"
    }
  ],
  "bytecode": "0x6080604052600060025534801561001557600080fd5b50336000806101000a81548173ffffffffffffffffffffffffffffffffffffffff021916908373ffffffffffffffffffffffffffffffffffffffff160217905550610f20806100656000396000f3fe608060405234801561001057600080fd5b50600436106100625760003560e01c80630702f71c146100675780638e2661bb1461008357806397b82957146100a15780639e0c89a8146100d6578063bef8c465146100f2578063c43dff5314610110575b600080fd5b610081600480360381019061007c9190610a01565b610145565b005b61008b61058c565b6040516100989190610a77565b60405180910390f35b6100bb60048036038101906100b69190610a92565b610592565b6040516100cd96959493929190610b9c565b60405180910390f35b6100f060048036038101906100eb9190610bfd565b610628565b005b6100fa6106f7565b6040516101079190610db2565b60405180910390f35b61012a60048036038101906101259190610a92565b61088c565b60405161013c96959493929190610b9c565b60405180910390f35b60025460016000600254815260200190815260200160002060000181905550836001600060025481526020019081526020016000206001018190555082600281111561019457610193610ace565b5b60016000600254815260200190815260200160002060020160006101000a81548160ff021916908360028111156101ce576101cd610ace565b5b02179055508160048111156101e6576101e5610ace565b5b60016000600254815260200190815260200160002060020160016101000a81548160ff021916908360048111156102205761021f610ace565b5b02179055508060016000600254815260200190815260200160002060020160026101000a81548173ffffffffffffffffffffffffffffffffffffffff021916908373ffffffffffffffffffffffffffffffffffffffff16021790555060008054906101000a900473ffffffffffffffffffffffffffffffffffffffff1660016000600254815260200190815260200160002060030160006101000a81548173ffffffffffffffffffffffffffffffffffffffff021916908373ffffffffffffffffffffffffffffffffffffffff1602179055507fa37382c33b9b24804052be2a7acff5b9a3825a23f2aa5762318ee66b171cf84d6002548585600281111561032b5761032a610ace565b5b85600481111561033e5761033d610ace565b5b8560008054906101000a900473ffffffffffffffffffffffffffffffffffffffff16426040516103749796959493929190610dd4565b60405180910390a160036040518060c0016040528060025481526020018681526020018560028111156103aa576103a9610ace565b5b60028111156103bc576103bb610ace565b5b81526020018460048111156103d4576103d3610ace565b5b60048111156103e6576103e5610ace565b5b81526020018373ffffffffffffffffffffffffffffffffffffffff16815260200160008054906101000a900473ffffffffffffffffffffffffffffffffffffffff1673ffffffffffffffffffffffffffffffffffffffff168152509080600181540180825580915050600190039060005260206000209060040201600090919091909150600082015181600001556020820151816001015560408201518160020160006101000a81548160ff021916908360028111156104a9576104a8610ace565b5b021790555060608201518160020160016101000a81548160ff021916908360048111156104d9576104d8610ace565b5b021790555060808201518160020160026101000a81548173ffffffffffffffffffffffffffffffffffffffff021916908373ffffffffffffffffffffffffffffffffffffffff16021790555060a08201518160030160006101000a81548173ffffffffffffffffffffffffffffffffffffffff021916908373ffffffffffffffffffffffffffffffffffffffff16021790555050506002600081548092919061058190610e72565b919050555050505050565b60025481565b60016020528060005260406000206000915090508060000154908060010154908060020160009054906101000a900460ff16908060020160019054906101000a900460ff16908060020160029054906101000a900473ffffffffffffffffffffffffffffffffffffffff16908060030160009054906101000a900473ffffffffffffffffffffffffffffffffffffffff16905086565b81600281111561063b5761063a610ace565b5b6001600083815260200190815260200160002060020160006101000a81548160ff0219169083600281111561067357610672610ace565b5b02179055506000600160008381526020019081526020016000206000015490508260028111156106a6576106a5610ace565b5b600382815481106106ba576106b9610ebb565b5b906000526020600020906004020160020160006101000a81548160ff021916908360028111156106ed576106ec610ace565b5b0217905550505050565b60606003805480602002602001604051908101604052809291908181526020016000905b8282101561088357838290600052602060002090600402016040518060c001604052908160008201548152602001600182015481526020016002820160009054906101000a900460ff16600281111561077757610776610ace565b5b600281111561078957610788610ace565b5b81526020016002820160019054906101000a900460ff1660048111156107b2576107b1610ace565b5b60048111156107c4576107c3610ace565b5b81526020016002820160029054906101000a900473ffffffffffffffffffffffffffffffffffffffff1673ffffffffffffffffffffffffffffffffffffffff1673ffffffffffffffffffffffffffffffffffffffff1681526020016003820160009054906101000a900473ffffffffffffffffffffffffffffffffffffffff1673ffffffffffffffffffffffffffffffffffffffff1673ffffffffffffffffffffffffffffffffffffffff16815250508152602001906001019061071b565b50505050905090565b6003818154811061089c57600080fd5b90600052602060002090600402016000915090508060000154908060010154908060020160009054906101000a900460ff16908060020160019054906101000a900460ff16908060020160029054906101000a900473ffffffffffffffffffffffffffffffffffffffff16908060030160009054906101000a900473ffffffffffffffffffffffffffffffffffffffff16905086565b600080fd5b6000819050919050565b61094a81610937565b811461095557600080fd5b50565b60008135905061096781610941565b92915050565b6000819050919050565b6109808161096d565b811461098b57600080fd5b50565b60008135905061099d81610977565b92915050565b600073ffffffffffffffffffffffffffffffffffffffff82169050919050565b60006109ce826109a3565b9050919050565b6109de816109c3565b81146109e957600080fd5b50565b6000813590506109fb816109d5565b92915050565b60008060008060808587031215610a1b57610a1a610932565b5b6000610a2987828801610958565b9450506020610a3a8782880161098e565b9350506040610a4b8782880161098e565b9250506060610a5c878288016109ec565b91505092959194509250565b610a718161096d565b82525050565b6000602082019050610a8c6000830184610a68565b92915050565b600060208284031215610aa857610aa7610932565b5b6000610ab68482850161098e565b91505092915050565b610ac881610937565b82525050565b7f4e487b7100000000000000000000000000000000000000000000000000000000600052602160045260246000fd5b60038110610b0e57610b0d610ace565b5b50565b6000819050610b1f82610afd565b919050565b6000610b2f82610b11565b9050919050565b610b3f81610b24565b82525050565b60058110610b5657610b55610ace565b5b50565b6000819050610b6782610b45565b919050565b6000610b7782610b59565b9050919050565b610b8781610b6c565b82525050565b610b96816109c3565b82525050565b600060c082019050610bb16000830189610a68565b610bbe6020830188610abf565b610bcb6040830187610b36565b610bd86060830186610b7e565b610be56080830185610b8d565b610bf260a0830184610b8d565b979650505050505050565b60008060408385031215610c1457610c13610932565b5b6000610c228582860161098e565b9250506020610c338582860161098e565b9150509250929050565b600081519050919050565b600082825260208201905092915050565b6000819050602082019050919050565b610c728161096d565b82525050565b610c8181610937565b82525050565b610c9081610b24565b82525050565b610c9f81610b6c565b82525050565b610cae816109c3565b82525050565b60c082016000820151610cca6000850182610c69565b506020820151610cdd6020850182610c78565b506040820151610cf06040850182610c87565b506060820151610d036060850182610c96565b506080820151610d166080850182610ca5565b5060a0820151610d2960a0850182610ca5565b50505050565b6000610d3b8383610cb4565b60c08301905092915050565b6000602082019050919050565b6000610d5f82610c3d565b610d698185610c48565b9350610d7483610c59565b8060005b83811015610da5578151610d8c8882610d2f565b9750610d9783610d47565b925050600181019050610d78565b5085935050505092915050565b60006020820190508181036000830152610dcc8184610d54565b905092915050565b600060e082019050610de9600083018a610a68565b610df66020830189610abf565b610e036040830188610b36565b610e106060830187610b7e565b610e1d6080830186610b8d565b610e2a60a0830185610b8d565b610e3760c0830184610a68565b98975050505050505050565b7f4e487b7100000000000000000000000000000000000000000000000000000000600052601160045260246000fd5b6000610e7d8261096d565b91507fffffffffffffffffffffffffffffffffffffffffffffffffffffffffffffffff821415610eb057610eaf610e43565b5b600182019050919050565b7f4e487b7100000000000000000000000000000000000000000000000000000000600052603260045260246000fdfea264697066735822122087174616393c0f6b0301301ccbde43f3076e25c5daa1b4d0066750aeb081e3dc64736f6c634300080a0033",
  "immutableReferences": {},
  "source": "// SPDX-License-Identifier: MIT\r\npragma solidity >=0.8.0 <0.9.0;\r\n\r\nimport \"./SharedChain.sol\";\r\n\r\ncontract SupervisorChain is SharedChain {\r\n    address _supervisorAddress;\r\n\r\n    // They will be filter after the status of the requests\r\n    mapping(uint => Request) public requestsSupervisor;\r\n    uint public requestsSupervisorCounter = 0;\r\n    Request[] public allSupervisorRequests;\r\n\r\n    constructor() {\r\n        _supervisorAddress = msg.sender;\r\n    }\r\n\r\n    modifier onlySupervisor {\r\n        require(_supervisorAddress == msg.sender, \"You are not a supervisor\");\r\n        _;\r\n    }\r\n\r\n    function createRequestSupervisor(\r\n        bytes32 _title,\r\n        uint _requestStatus,\r\n        uint _projectStatus,\r\n        address _projectAddress\r\n    ) public {\r\n        requestsSupervisor[requestsSupervisorCounter]._index = requestsSupervisorCounter;\r\n        requestsSupervisor[requestsSupervisorCounter]._title = _title;\r\n        requestsSupervisor[requestsSupervisorCounter]._requestStatus = RequestStatus(_requestStatus);\r\n        requestsSupervisor[requestsSupervisorCounter]._projectStatus = ProjectStatus(_projectStatus);\r\n        requestsSupervisor[requestsSupervisorCounter]._projectAddress = _projectAddress;\r\n        // change to supervisorAddress\r\n        requestsSupervisor[requestsSupervisorCounter]._userAddress = _supervisorAddress;\r\n\r\n        emit RequestEvent(requestsSupervisorCounter, _title, RequestStatus(_requestStatus), ProjectStatus(_projectStatus), _projectAddress, _supervisorAddress, block.timestamp);\r\n        allSupervisorRequests.push(Request(requestsSupervisorCounter, _title,  RequestStatus(_requestStatus), ProjectStatus(_projectStatus), _projectAddress, _supervisorAddress));\r\n        requestsSupervisorCounter++;\r\n    }\r\n\r\n    function updateRequestSupervisor(uint _requestStatus, uint _index) public {\r\n        requestsSupervisor[_index]._requestStatus = RequestStatus(_requestStatus);\r\n        uint index = requestsSupervisor[_index]._index;\r\n        allSupervisorRequests[index]._requestStatus = RequestStatus(_requestStatus);\r\n    }\r\n\r\n    function getAllRequestsSupervisor() public view returns(Request[] memory) {\r\n        return allSupervisorRequests;\r\n    }\r\n}\r\n",
  "sourcePath": "/mnt/c/users/beniamin/source/repos/dissertationproject/contracts/SupervisorChain.sol",
  "compiler": {
    "name": "solc",
    "version": "0.8.10+commit.fc410830.Emscripten.clang"
  },
  "schemaVersion": "3.4.3",
  "updatedAt": "2021-11-21T08:17:34.658Z",
  "devdoc": {
    "kind": "dev",
    "methods": {},
    "version": 1
  },
  "userdoc": {
    "kind": "user",
    "methods": {},
    "version": 1
  }
}