{
  "contractName": "UserChain",
  "abi": [
    {
      "inputs": [],
      "stateMutability": "nonpayable",
      "type": "constructor"
    },
    {
      "anonymous": false,
      "inputs": [
        {
          "components": [
            {
              "internalType": "uint256",
              "name": "_index",
              "type": "uint256"
            },
            {
              "internalType": "string",
              "name": "_name",
              "type": "string"
            },
            {
              "internalType": "enum SharedChain.ProjectStatus",
              "name": "_status",
              "type": "uint8"
            },
            {
              "internalType": "string",
              "name": "_ipfsFileCID",
              "type": "string"
            },
            {
              "internalType": "address",
              "name": "_projectAddress",
              "type": "address"
            },
            {
              "internalType": "address",
              "name": "_signerAddress",
              "type": "address"
            },
            {
              "internalType": "uint256",
              "name": "_timestamp",
              "type": "uint256"
            },
            {
              "internalType": "string",
              "name": "_signature",
              "type": "string"
            }
          ],
          "indexed": false,
          "internalType": "struct SharedChain.Project",
          "name": "_project",
          "type": "tuple"
        },
        {
          "indexed": true,
          "internalType": "address",
          "name": "_projectAddress",
          "type": "address"
        }
      ],
      "name": "ProjectEvent",
      "type": "event"
    },
    {
      "anonymous": false,
      "inputs": [
        {
          "components": [
            {
              "internalType": "uint256",
              "name": "_index",
              "type": "uint256"
            },
            {
              "internalType": "string",
              "name": "_title",
              "type": "string"
            },
            {
              "internalType": "string",
              "name": "_comments",
              "type": "string"
            },
            {
              "internalType": "enum SharedChain.ProjectStatus",
              "name": "_projectStatus",
              "type": "uint8"
            },
            {
              "internalType": "enum SharedChain.RequestStatus",
              "name": "_requestStatus",
              "type": "uint8"
            },
            {
              "internalType": "enum SharedChain.RequestType",
              "name": "_requestType",
              "type": "uint8"
            },
            {
              "internalType": "address",
              "name": "_projectAddress",
              "type": "address"
            },
            {
              "internalType": "address",
              "name": "_requestAddress",
              "type": "address"
            },
            {
              "internalType": "address",
              "name": "_signerAddress",
              "type": "address"
            },
            {
              "internalType": "uint256",
              "name": "_timestamp",
              "type": "uint256"
            },
            {
              "internalType": "string",
              "name": "_signature",
              "type": "string"
            }
          ],
          "indexed": false,
          "internalType": "struct SharedChain.Request",
          "name": "_request",
          "type": "tuple"
        },
        {
          "indexed": true,
          "internalType": "address",
          "name": "_requestAddress",
          "type": "address"
        },
        {
          "indexed": true,
          "internalType": "address",
          "name": "_projectAddress",
          "type": "address"
        }
      ],
      "name": "RequestEvent",
      "type": "event"
    },
    {
      "anonymous": false,
      "inputs": [
        {
          "components": [
            {
              "internalType": "uint256",
              "name": "_index",
              "type": "uint256"
            },
            {
              "internalType": "string",
              "name": "_username",
              "type": "string"
            },
            {
              "internalType": "bytes32",
              "name": "_email",
              "type": "bytes32"
            },
            {
              "internalType": "bytes32",
              "name": "_firstname",
              "type": "bytes32"
            },
            {
              "internalType": "bytes32",
              "name": "_lastname",
              "type": "bytes32"
            },
            {
              "internalType": "enum SharedChain.Roles",
              "name": "_role",
              "type": "uint8"
            },
            {
              "internalType": "address",
              "name": "_walletAddress",
              "type": "address"
            },
            {
              "internalType": "uint256",
              "name": "_timestamp",
              "type": "uint256"
            },
            {
              "internalType": "string",
              "name": "_signature",
              "type": "string"
            }
          ],
          "indexed": false,
          "internalType": "struct SharedChain.User",
          "name": "_user",
          "type": "tuple"
        },
        {
          "indexed": true,
          "internalType": "address",
          "name": "_walletAddress",
          "type": "address"
        }
      ],
      "name": "UserEvent",
      "type": "event"
    },
    {
      "inputs": [
        {
          "internalType": "address",
          "name": "",
          "type": "address"
        }
      ],
      "name": "users",
      "outputs": [
        {
          "internalType": "uint256",
          "name": "_index",
          "type": "uint256"
        },
        {
          "internalType": "string",
          "name": "_username",
          "type": "string"
        },
        {
          "internalType": "bytes32",
          "name": "_email",
          "type": "bytes32"
        },
        {
          "internalType": "bytes32",
          "name": "_firstname",
          "type": "bytes32"
        },
        {
          "internalType": "bytes32",
          "name": "_lastname",
          "type": "bytes32"
        },
        {
          "internalType": "enum SharedChain.Roles",
          "name": "_role",
          "type": "uint8"
        },
        {
          "internalType": "address",
          "name": "_walletAddress",
          "type": "address"
        },
        {
          "internalType": "uint256",
          "name": "_timestamp",
          "type": "uint256"
        },
        {
          "internalType": "string",
          "name": "_signature",
          "type": "string"
        }
      ],
      "stateMutability": "view",
      "type": "function",
      "constant": true
    },
    {
      "inputs": [
        {
          "internalType": "string",
          "name": "_username",
          "type": "string"
        },
        {
          "internalType": "bytes32",
          "name": "_email",
          "type": "bytes32"
        },
        {
          "internalType": "bytes32",
          "name": "_firstname",
          "type": "bytes32"
        },
        {
          "internalType": "bytes32",
          "name": "_lastname",
          "type": "bytes32"
        },
        {
          "internalType": "uint256",
          "name": "_role",
          "type": "uint256"
        },
        {
          "internalType": "address",
          "name": "_walletAddress",
          "type": "address"
        },
        {
          "internalType": "string",
          "name": "_signature",
          "type": "string"
        }
      ],
      "name": "registerUser",
      "outputs": [],
      "stateMutability": "nonpayable",
      "type": "function"
    },
    {
      "inputs": [
        {
          "internalType": "uint256",
          "name": "_role",
          "type": "uint256"
        },
        {
          "internalType": "address",
          "name": "_walletAddress",
          "type": "address"
        },
        {
          "internalType": "string",
          "name": "_signature",
          "type": "string"
        }
      ],
      "name": "changeUserRole",
      "outputs": [],
      "stateMutability": "nonpayable",
      "type": "function"
    },
    {
      "inputs": [],
      "name": "getAllUsers",
      "outputs": [
        {
          "components": [
            {
              "internalType": "uint256",
              "name": "_index",
              "type": "uint256"
            },
            {
              "internalType": "string",
              "name": "_username",
              "type": "string"
            },
            {
              "internalType": "bytes32",
              "name": "_email",
              "type": "bytes32"
            },
            {
              "internalType": "bytes32",
              "name": "_firstname",
              "type": "bytes32"
            },
            {
              "internalType": "bytes32",
              "name": "_lastname",
              "type": "bytes32"
            },
            {
              "internalType": "enum SharedChain.Roles",
              "name": "_role",
              "type": "uint8"
            },
            {
              "internalType": "address",
              "name": "_walletAddress",
              "type": "address"
            },
            {
              "internalType": "uint256",
              "name": "_timestamp",
              "type": "uint256"
            },
            {
              "internalType": "string",
              "name": "_signature",
              "type": "string"
            }
          ],
          "internalType": "struct SharedChain.User[]",
          "name": "",
          "type": "tuple[]"
        }
      ],
      "stateMutability": "view",
      "type": "function",
      "constant": true
    },
    {
      "inputs": [
        {
          "internalType": "address",
          "name": "_walletAddress",
          "type": "address"
        }
      ],
      "name": "getUserInfo",
      "outputs": [
        {
          "components": [
            {
              "internalType": "uint256",
              "name": "_index",
              "type": "uint256"
            },
            {
              "internalType": "string",
              "name": "_username",
              "type": "string"
            },
            {
              "internalType": "bytes32",
              "name": "_email",
              "type": "bytes32"
            },
            {
              "internalType": "bytes32",
              "name": "_firstname",
              "type": "bytes32"
            },
            {
              "internalType": "bytes32",
              "name": "_lastname",
              "type": "bytes32"
            },
            {
              "internalType": "enum SharedChain.Roles",
              "name": "_role",
              "type": "uint8"
            },
            {
              "internalType": "address",
              "name": "_walletAddress",
              "type": "address"
            },
            {
              "internalType": "uint256",
              "name": "_timestamp",
              "type": "uint256"
            },
            {
              "internalType": "string",
              "name": "_signature",
              "type": "string"
            }
          ],
          "internalType": "struct SharedChain.User",
          "name": "",
          "type": "tuple"
        }
      ],
      "stateMutability": "view",
      "type": "function",
      "constant": true
    }
  ],
  "bytecode": "0x6080604052600060035534801561001557600080fd5b50336000806101000a81548173ffffffffffffffffffffffffffffffffffffffff021916908373ffffffffffffffffffffffffffffffffffffffff1602179055506119cf806100656000396000f3fe608060405234801561001057600080fd5b50600436106100575760003560e01c80636386c1c71461005c578063a87430ba1461008c578063b2ddb907146100c4578063d6a69823146100e0578063e2842d79146100fc575b600080fd5b61007660048036038101906100719190610df3565b61011a565b604051610083919061103d565b60405180910390f35b6100a660048036038101906100a19190610df3565b61035b565b6040516100bb999897969594939291906110e5565b60405180910390f35b6100de60048036038101906100d991906112e1565b6104e6565b005b6100fa60048036038101906100f5919061137c565b610691565b005b610104610943565b60405161011191906115e4565b60405180910390f35b610122610c61565b600160008373ffffffffffffffffffffffffffffffffffffffff1673ffffffffffffffffffffffffffffffffffffffff168152602001908152602001600020604051806101200160405290816000820154815260200160018201805461018790611635565b80601f01602080910402602001604051908101604052809291908181526020018280546101b390611635565b80156102005780601f106101d557610100808354040283529160200191610200565b820191906000526020600020905b8154815290600101906020018083116101e357829003601f168201915b505050505081526020016002820154815260200160038201548152602001600482015481526020016005820160009054906101000a900460ff16600381111561024c5761024b610eeb565b5b600381111561025e5761025d610eeb565b5b81526020016005820160019054906101000a900473ffffffffffffffffffffffffffffffffffffffff1673ffffffffffffffffffffffffffffffffffffffff1673ffffffffffffffffffffffffffffffffffffffff168152602001600682015481526020016007820180546102d290611635565b80601f01602080910402602001604051908101604052809291908181526020018280546102fe90611635565b801561034b5780601f106103205761010080835404028352916020019161034b565b820191906000526020600020905b81548152906001019060200180831161032e57829003601f168201915b5050505050815250509050919050565b600160205280600052604060002060009150905080600001549080600101805461038490611635565b80601f01602080910402602001604051908101604052809291908181526020018280546103b090611635565b80156103fd5780601f106103d2576101008083540402835291602001916103fd565b820191906000526020600020905b8154815290600101906020018083116103e057829003601f168201915b5050505050908060020154908060030154908060040154908060050160009054906101000a900460ff16908060050160019054906101000a900473ffffffffffffffffffffffffffffffffffffffff169080600601549080600701805461046390611635565b80601f016020809104026020016040519081016040528092919081815260200182805461048f90611635565b80156104dc5780601f106104b1576101008083540402835291602001916104dc565b820191906000526020600020905b8154815290600101906020018083116104bf57829003601f168201915b5050505050905089565b8260038111156104f9576104f8610eeb565b5b600160008473ffffffffffffffffffffffffffffffffffffffff1673ffffffffffffffffffffffffffffffffffffffff16815260200190815260200160002060050160006101000a81548160ff0219169083600381111561055d5761055c610eeb565b5b021790555042600160008473ffffffffffffffffffffffffffffffffffffffff1673ffffffffffffffffffffffffffffffffffffffff1681526020019081526020016000206006018190555080600160008473ffffffffffffffffffffffffffffffffffffffff1673ffffffffffffffffffffffffffffffffffffffff16815260200190815260200160002060070190805190602001906105ff929190610cde565b508173ffffffffffffffffffffffffffffffffffffffff167fea397c4f2735f95720bbf4d2e061d639bec950d2f3e162d0b19e02a2354c7cca600160008573ffffffffffffffffffffffffffffffffffffffff1673ffffffffffffffffffffffffffffffffffffffff16815260200190815260200160002060405161068491906118d0565b60405180910390a2505050565b60405180610120016040528060035481526020018881526020018781526020018681526020018581526020018460038111156106d0576106cf610eeb565b5b60038111156106e2576106e1610eeb565b5b81526020018373ffffffffffffffffffffffffffffffffffffffff16815260200142815260200182815250600160008473ffffffffffffffffffffffffffffffffffffffff1673ffffffffffffffffffffffffffffffffffffffff168152602001908152602001600020600082015181600001556020820151816001019080519060200190610772929190610cde565b5060408201518160020155606082015181600301556080820151816004015560a08201518160050160006101000a81548160ff021916908360038111156107bc576107bb610eeb565b5b021790555060c08201518160050160016101000a81548173ffffffffffffffffffffffffffffffffffffffff021916908373ffffffffffffffffffffffffffffffffffffffff16021790555060e0820151816006015561010082015181600701908051906020019061082f929190610cde565b509050508173ffffffffffffffffffffffffffffffffffffffff167fea397c4f2735f95720bbf4d2e061d639bec950d2f3e162d0b19e02a2354c7cca600160008573ffffffffffffffffffffffffffffffffffffffff1673ffffffffffffffffffffffffffffffffffffffff1681526020019081526020016000206040516108b791906118d0565b60405180910390a26002829080600181540180825580915050600190039060005260206000200160009091909190916101000a81548173ffffffffffffffffffffffffffffffffffffffff021916908373ffffffffffffffffffffffffffffffffffffffff1602179055506003600081548092919061093590611921565b919050555050505050505050565b6060600060035467ffffffffffffffff811115610963576109626111b6565b5b60405190808252806020026020018201604052801561099c57816020015b610989610c61565b8152602001906001900390816109815790505b50905060005b600354811015610c59576000600282815481106109c2576109c161196a565b5b9060005260206000200160009054906101000a900473ffffffffffffffffffffffffffffffffffffffff1690506000600160008373ffffffffffffffffffffffffffffffffffffffff1673ffffffffffffffffffffffffffffffffffffffff1681526020019081526020016000209050806040518061012001604052908160008201548152602001600182018054610a5990611635565b80601f0160208091040260200160405190810160405280929190818152602001828054610a8590611635565b8015610ad25780601f10610aa757610100808354040283529160200191610ad2565b820191906000526020600020905b815481529060010190602001808311610ab557829003601f168201915b505050505081526020016002820154815260200160038201548152602001600482015481526020016005820160009054906101000a900460ff166003811115610b1e57610b1d610eeb565b5b6003811115610b3057610b2f610eeb565b5b81526020016005820160019054906101000a900473ffffffffffffffffffffffffffffffffffffffff1673ffffffffffffffffffffffffffffffffffffffff1673ffffffffffffffffffffffffffffffffffffffff16815260200160068201548152602001600782018054610ba490611635565b80601f0160208091040260200160405190810160405280929190818152602001828054610bd090611635565b8015610c1d5780601f10610bf257610100808354040283529160200191610c1d565b820191906000526020600020905b815481529060010190602001808311610c0057829003601f168201915b505050505081525050848481518110610c3957610c3861196a565b5b602002602001018190525050508080610c5190611921565b9150506109a2565b508091505090565b604051806101200160405280600081526020016060815260200160008019168152602001600080191681526020016000801916815260200160006003811115610cad57610cac610eeb565b5b8152602001600073ffffffffffffffffffffffffffffffffffffffff16815260200160008152602001606081525090565b828054610cea90611635565b90600052602060002090601f016020900481019282610d0c5760008555610d53565b82601f10610d2557805160ff1916838001178555610d53565b82800160010185558215610d53579182015b82811115610d52578251825591602001919060010190610d37565b5b509050610d609190610d64565b5090565b5b80821115610d7d576000816000905550600101610d65565b5090565b6000604051905090565b600080fd5b600080fd5b600073ffffffffffffffffffffffffffffffffffffffff82169050919050565b6000610dc082610d95565b9050919050565b610dd081610db5565b8114610ddb57600080fd5b50565b600081359050610ded81610dc7565b92915050565b600060208284031215610e0957610e08610d8b565b5b6000610e1784828501610dde565b91505092915050565b6000819050919050565b610e3381610e20565b82525050565b600081519050919050565b600082825260208201905092915050565b60005b83811015610e73578082015181840152602081019050610e58565b83811115610e82576000848401525b50505050565b6000601f19601f8301169050919050565b6000610ea482610e39565b610eae8185610e44565b9350610ebe818560208601610e55565b610ec781610e88565b840191505092915050565b6000819050919050565b610ee581610ed2565b82525050565b7f4e487b7100000000000000000000000000000000000000000000000000000000600052602160045260246000fd5b60048110610f2b57610f2a610eeb565b5b50565b6000819050610f3c82610f1a565b919050565b6000610f4c82610f2e565b9050919050565b610f5c81610f41565b82525050565b610f6b81610db5565b82525050565b600061012083016000830151610f8a6000860182610e2a565b5060208301518482036020860152610fa28282610e99565b9150506040830151610fb76040860182610edc565b506060830151610fca6060860182610edc565b506080830151610fdd6080860182610edc565b5060a0830151610ff060a0860182610f53565b5060c083015161100360c0860182610f62565b5060e083015161101660e0860182610e2a565b506101008301518482036101008601526110308282610e99565b9150508091505092915050565b600060208201905081810360008301526110578184610f71565b905092915050565b61106881610e20565b82525050565b600082825260208201905092915050565b600061108a82610e39565b611094818561106e565b93506110a4818560208601610e55565b6110ad81610e88565b840191505092915050565b6110c181610ed2565b82525050565b6110d081610f41565b82525050565b6110df81610db5565b82525050565b6000610120820190506110fb600083018c61105f565b818103602083015261110d818b61107f565b905061111c604083018a6110b8565b61112960608301896110b8565b61113660808301886110b8565b61114360a08301876110c7565b61115060c08301866110d6565b61115d60e083018561105f565b818103610100830152611170818461107f565b90509a9950505050505050505050565b61118981610e20565b811461119457600080fd5b50565b6000813590506111a681611180565b92915050565b600080fd5b600080fd5b7f4e487b7100000000000000000000000000000000000000000000000000000000600052604160045260246000fd5b6111ee82610e88565b810181811067ffffffffffffffff8211171561120d5761120c6111b6565b5b80604052505050565b6000611220610d81565b905061122c82826111e5565b919050565b600067ffffffffffffffff82111561124c5761124b6111b6565b5b61125582610e88565b9050602081019050919050565b82818337600083830152505050565b600061128461127f84611231565b611216565b9050828152602081018484840111156112a05761129f6111b1565b5b6112ab848285611262565b509392505050565b600082601f8301126112c8576112c76111ac565b5b81356112d8848260208601611271565b91505092915050565b6000806000606084860312156112fa576112f9610d8b565b5b600061130886828701611197565b935050602061131986828701610dde565b925050604084013567ffffffffffffffff81111561133a57611339610d90565b5b611346868287016112b3565b9150509250925092565b61135981610ed2565b811461136457600080fd5b50565b60008135905061137681611350565b92915050565b600080600080600080600060e0888a03121561139b5761139a610d8b565b5b600088013567ffffffffffffffff8111156113b9576113b8610d90565b5b6113c58a828b016112b3565b97505060206113d68a828b01611367565b96505060406113e78a828b01611367565b95505060606113f88a828b01611367565b94505060806114098a828b01611197565b93505060a061141a8a828b01610dde565b92505060c088013567ffffffffffffffff81111561143b5761143a610d90565b5b6114478a828b016112b3565b91505092959891949750929550565b600081519050919050565b600082825260208201905092915050565b6000819050602082019050919050565b60006101208301600083015161149b6000860182610e2a565b50602083015184820360208601526114b38282610e99565b91505060408301516114c86040860182610edc565b5060608301516114db6060860182610edc565b5060808301516114ee6080860182610edc565b5060a083015161150160a0860182610f53565b5060c083015161151460c0860182610f62565b5060e083015161152760e0860182610e2a565b506101008301518482036101008601526115418282610e99565b9150508091505092915050565b600061155a8383611482565b905092915050565b6000602082019050919050565b600061157a82611456565b6115848185611461565b93508360208202850161159685611472565b8060005b858110156115d257848403895281516115b3858261154e565b94506115be83611562565b925060208a0199505060018101905061159a565b50829750879550505050505092915050565b600060208201905081810360008301526115fe818461156f565b905092915050565b7f4e487b7100000000000000000000000000000000000000000000000000000000600052602260045260246000fd5b6000600282049050600182168061164d57607f821691505b6020821081141561166157611660611606565b5b50919050565b60008160001c9050919050565b6000819050919050565b600061169161168c83611667565b611674565b9050919050565b60008190508160005260206000209050919050565b600081546116ba81611635565b6116c48186610e44565b945060018216600081146116df57600181146116f157611724565b60ff1983168652602086019350611724565b6116fa85611698565b60005b8381101561171c578154818901526001820191506020810190506116fd565b808801955050505b50505092915050565b6000819050919050565b600061174a61174583611667565b61172d565b9050919050565b600060ff82169050919050565b600061177161176c83611667565b611751565b9050919050565b60008160081c9050919050565b600073ffffffffffffffffffffffffffffffffffffffff82169050919050565b60006117b86117b383611778565b611785565b9050919050565b6000610120830160008084015490506117d78161167e565b6117e46000870182610e2a565b506001840185830360208701526117fb83826116ad565b9250506002840154905061180e81611737565b61181b6040870182610edc565b506003840154905061182c81611737565b6118396060870182610edc565b506004840154905061184a81611737565b6118576080870182610edc565b50600584015490506118688161175e565b61187560a0870182610f53565b5061187f816117a5565b61188c60c0870182610f62565b506006840154905061189d8161167e565b6118aa60e0870182610e2a565b50600784018583036101008701526118c283826116ad565b925050819250505092915050565b600060208201905081810360008301526118ea81846117bf565b905092915050565b7f4e487b7100000000000000000000000000000000000000000000000000000000600052601160045260246000fd5b600061192c82610e20565b91507fffffffffffffffffffffffffffffffffffffffffffffffffffffffffffffffff82141561195f5761195e6118f2565b5b600182019050919050565b7f4e487b7100000000000000000000000000000000000000000000000000000000600052603260045260246000fdfea2646970667358221220bf4e2d0a2335ae1ef20c38fe14a5b65b153bef154738360cb1db26ba215520d864736f6c634300080a0033",
  "immutableReferences": {},
  "source": "// SPDX-License-Identifier: MIT\r\npragma solidity >=0.8.0 <0.9.0;\r\n\r\nimport './SharedChain.sol';\r\n\r\ncontract UserChain is SharedChain {\r\n    address owner;\r\n\r\n    mapping(address => User) public users;\r\n    address[] usersAddress;\r\n    uint256 usersCounter = 0;\r\n\r\n    constructor() {\r\n        owner = msg.sender;\r\n    }\r\n\r\n    modifier onlyOwner() {\r\n        //require(owner == msg.sender, \"You are not an owner.\");\r\n        _;\r\n    }\r\n\r\n    modifier checkUser(address _address) {\r\n        //require(_address == owner, \"You are not an owner.\");\r\n        _;\r\n    }\r\n\r\n    function registerUser(\r\n        string memory _username,\r\n        bytes32 _email,\r\n        bytes32 _firstname,\r\n        bytes32 _lastname,\r\n        uint256 _role,\r\n        address _walletAddress,\r\n        string memory _signature\r\n    ) public onlyOwner {\r\n        users[_walletAddress] = User(\r\n            usersCounter, _username, _email, _firstname, _lastname,\r\n            Roles(_role), _walletAddress, block.timestamp, _signature\r\n        );\r\n\r\n        emit UserEvent(users[_walletAddress], _walletAddress);\r\n        usersAddress.push(_walletAddress);\r\n        usersCounter++;\r\n    }\r\n\r\n    function changeUserRole(uint256 _role, address _walletAddress, string memory _signature) public onlyOwner {\r\n        users[_walletAddress]._role = Roles(_role);\r\n\r\n        users[_walletAddress]._timestamp = block.timestamp;\r\n        users[_walletAddress]._signature = _signature;\r\n        emit UserEvent(users[_walletAddress], _walletAddress);\r\n    }\r\n\r\n    function getAllUsers() public view onlyOwner returns(User[] memory) {\r\n        User[] memory allUsers = new User[](usersCounter);\r\n        for (uint256 index = 0; index < usersCounter; index++) {\r\n            address _walletAddress = usersAddress[index];\r\n            User storage user = users[_walletAddress];\r\n            allUsers[index] = user;\r\n        }\r\n        return allUsers;\r\n    }\r\n\r\n    function getUserInfo(address _walletAddress) public view returns (User memory) {\r\n        //require(msg.sender != address(0x0), \"Address is not valid.\");\r\n        return users[_walletAddress];\r\n    }\r\n}\r\n",
  "sourcePath": "/mnt/c/Users/Beniamin/source/repos/DissertationProject/contracts/UserChain.sol",
  "compiler": {
    "name": "solc",
    "version": "0.8.10+commit.fc410830.Emscripten.clang"
  },
  "schemaVersion": "3.4.3",
  "updatedAt": "2021-12-11T16:08:14.038Z",
  "networkType": "ethereum",
  "devdoc": {
    "kind": "dev",
    "methods": {},
    "version": 1
  },
  "userdoc": {
    "kind": "user",
    "methods": {},
    "version": 1
  }
}