{
  "contractName": "UserChain",
  "abi": [
    {
      "inputs": [],
      "stateMutability": "nonpayable",
      "type": "constructor"
    },
    {
      "anonymous": false,
      "inputs": [
        {
          "indexed": true,
          "internalType": "address",
          "name": "_walletAddress",
          "type": "address"
        },
        {
          "indexed": true,
          "internalType": "string",
          "name": "_username",
          "type": "string"
        },
        {
          "indexed": false,
          "internalType": "bytes32",
          "name": "_email",
          "type": "bytes32"
        },
        {
          "indexed": false,
          "internalType": "bytes32",
          "name": "_firstname",
          "type": "bytes32"
        },
        {
          "indexed": false,
          "internalType": "bytes32",
          "name": "_lastname",
          "type": "bytes32"
        },
        {
          "indexed": true,
          "internalType": "enum UserChain.Roles",
          "name": "_role",
          "type": "uint8"
        },
        {
          "indexed": false,
          "internalType": "uint256",
          "name": "_timestamp",
          "type": "uint256"
        }
      ],
      "name": "UserEvent",
      "type": "event"
    },
    {
      "inputs": [],
      "name": "owner",
      "outputs": [
        {
          "internalType": "address",
          "name": "",
          "type": "address"
        }
      ],
      "stateMutability": "view",
      "type": "function"
    },
    {
      "inputs": [
        {
          "internalType": "address",
          "name": "",
          "type": "address"
        }
      ],
      "name": "users",
      "outputs": [
        {
          "internalType": "uint256",
          "name": "_index",
          "type": "uint256"
        },
        {
          "internalType": "string",
          "name": "_username",
          "type": "string"
        },
        {
          "internalType": "bytes32",
          "name": "_email",
          "type": "bytes32"
        },
        {
          "internalType": "bytes32",
          "name": "_firstname",
          "type": "bytes32"
        },
        {
          "internalType": "bytes32",
          "name": "_lastname",
          "type": "bytes32"
        },
        {
          "internalType": "enum UserChain.Roles",
          "name": "_role",
          "type": "uint8"
        },
        {
          "internalType": "address",
          "name": "_walletAddress",
          "type": "address"
        },
        {
          "internalType": "uint256",
          "name": "_timestamp",
          "type": "uint256"
        }
      ],
      "stateMutability": "view",
      "type": "function"
    },
    {
      "inputs": [
        {
          "internalType": "uint256",
          "name": "",
          "type": "uint256"
        }
      ],
      "name": "usersAddress",
      "outputs": [
        {
          "internalType": "address",
          "name": "",
          "type": "address"
        }
      ],
      "stateMutability": "view",
      "type": "function"
    },
    {
      "inputs": [],
      "name": "usersCounter",
      "outputs": [
        {
          "internalType": "uint256",
          "name": "",
          "type": "uint256"
        }
      ],
      "stateMutability": "view",
      "type": "function"
    },
    {
      "inputs": [
        {
          "internalType": "string",
          "name": "_username",
          "type": "string"
        },
        {
          "internalType": "bytes32",
          "name": "_email",
          "type": "bytes32"
        },
        {
          "internalType": "bytes32",
          "name": "_firstname",
          "type": "bytes32"
        },
        {
          "internalType": "bytes32",
          "name": "_lastname",
          "type": "bytes32"
        },
        {
          "internalType": "uint256",
          "name": "_role",
          "type": "uint256"
        },
        {
          "internalType": "address",
          "name": "_walletAddress",
          "type": "address"
        }
      ],
      "name": "registerUser",
      "outputs": [],
      "stateMutability": "nonpayable",
      "type": "function"
    },
    {
      "inputs": [
        {
          "internalType": "uint256",
          "name": "_role",
          "type": "uint256"
        },
        {
          "internalType": "address",
          "name": "_walletAddress",
          "type": "address"
        }
      ],
      "name": "changeUserRole",
      "outputs": [],
      "stateMutability": "nonpayable",
      "type": "function"
    },
    {
      "inputs": [],
      "name": "getAllUsers",
      "outputs": [
        {
          "internalType": "address[]",
          "name": "",
          "type": "address[]"
        }
      ],
      "stateMutability": "view",
      "type": "function"
    },
    {
      "inputs": [
        {
          "internalType": "address",
          "name": "_walletAddress",
          "type": "address"
        }
      ],
      "name": "getUserInfo",
      "outputs": [
        {
          "components": [
            {
              "internalType": "uint256",
              "name": "_index",
              "type": "uint256"
            },
            {
              "internalType": "string",
              "name": "_username",
              "type": "string"
            },
            {
              "internalType": "bytes32",
              "name": "_email",
              "type": "bytes32"
            },
            {
              "internalType": "bytes32",
              "name": "_firstname",
              "type": "bytes32"
            },
            {
              "internalType": "bytes32",
              "name": "_lastname",
              "type": "bytes32"
            },
            {
              "internalType": "enum UserChain.Roles",
              "name": "_role",
              "type": "uint8"
            },
            {
              "internalType": "address",
              "name": "_walletAddress",
              "type": "address"
            },
            {
              "internalType": "uint256",
              "name": "_timestamp",
              "type": "uint256"
            }
          ],
          "internalType": "struct UserChain.User",
          "name": "",
          "type": "tuple"
        }
      ],
      "stateMutability": "view",
      "type": "function"
    }
  ],
  "bytecode": "0x6080604052600060035534801561001557600080fd5b50336000806101000a81548173ffffffffffffffffffffffffffffffffffffffff021916908373ffffffffffffffffffffffffffffffffffffffff160217905550611716806100656000396000f3fe608060405234801561001057600080fd5b50600436106100885760003560e01c8063a87430ba1161005b578063a87430ba14610127578063cf13f5d41461015e578063d67b1b991461017a578063e2842d791461019857610088565b80632c91324c1461008d5780636386c1c7146100bd5780638da5cb5b146100ed578063910097861461010b575b600080fd5b6100a760048036038101906100a29190610d2b565b6101b6565b6040516100b49190610d99565b60405180910390f35b6100d760048036038101906100d29190610de0565b6101f5565b6040516100e49190611004565b60405180910390f35b6100f56103a4565b6040516101029190610d99565b60405180910390f35b61012560048036038101906101209190611026565b6103c8565b005b610141600480360381019061013c9190610de0565b6105de565b6040516101559897969594939291906110dd565b60405180910390f35b610178600480360381019061017391906112c3565b6106db565b005b610182610b34565b60405161018f919061136c565b60405180910390f35b6101a0610b3a565b6040516101ad9190611436565b60405180910390f35b600281815481106101c657600080fd5b906000526020600020016000915054906101000a900473ffffffffffffffffffffffffffffffffffffffff1681565b6101fd610bc8565b600160008373ffffffffffffffffffffffffffffffffffffffff1673ffffffffffffffffffffffffffffffffffffffff168152602001908152602001600020604051806101000160405290816000820154815260200160018201805461026290611487565b80601f016020809104026020016040519081016040528092919081815260200182805461028e90611487565b80156102db5780601f106102b0576101008083540402835291602001916102db565b820191906000526020600020905b8154815290600101906020018083116102be57829003601f168201915b505050505081526020016002820154815260200160038201548152602001600482015481526020016005820160009054906101000a900460ff16600381111561032757610326610ece565b5b600381111561033957610338610ece565b5b81526020016005820160019054906101000a900473ffffffffffffffffffffffffffffffffffffffff1673ffffffffffffffffffffffffffffffffffffffff1673ffffffffffffffffffffffffffffffffffffffff1681526020016006820154815250509050919050565b60008054906101000a900473ffffffffffffffffffffffffffffffffffffffff1681565b8160038111156103db576103da610ece565b5b600160008373ffffffffffffffffffffffffffffffffffffffff1673ffffffffffffffffffffffffffffffffffffffff16815260200190815260200160002060050160006101000a81548160ff0219169083600381111561043f5761043e610ece565b5b021790555081600381111561045757610456610ece565b5b600381111561046957610468610ece565b5b600160008373ffffffffffffffffffffffffffffffffffffffff1673ffffffffffffffffffffffffffffffffffffffff1681526020019081526020016000206001016040516104b89190611558565b60405180910390208273ffffffffffffffffffffffffffffffffffffffff167f2ae7d1f3a516b67fe6248bb3ec44ca6a8e8d75492c92879f0e621a85954e984a600160008673ffffffffffffffffffffffffffffffffffffffff1673ffffffffffffffffffffffffffffffffffffffff16815260200190815260200160002060020154600160008773ffffffffffffffffffffffffffffffffffffffff1673ffffffffffffffffffffffffffffffffffffffff16815260200190815260200160002060030154600160008873ffffffffffffffffffffffffffffffffffffffff1673ffffffffffffffffffffffffffffffffffffffff16815260200190815260200160002060040154426040516105d2949392919061156f565b60405180910390a45050565b600160205280600052604060002060009150905080600001549080600101805461060790611487565b80601f016020809104026020016040519081016040528092919081815260200182805461063390611487565b80156106805780601f1061065557610100808354040283529160200191610680565b820191906000526020600020905b81548152906001019060200180831161066357829003601f168201915b5050505050908060020154908060030154908060040154908060050160009054906101000a900460ff16908060050160019054906101000a900473ffffffffffffffffffffffffffffffffffffffff16908060060154905088565b3373ffffffffffffffffffffffffffffffffffffffff1660008054906101000a900473ffffffffffffffffffffffffffffffffffffffff1673ffffffffffffffffffffffffffffffffffffffff1614610769576040517f08c379a000000000000000000000000000000000000000000000000000000000815260040161076090611600565b60405180910390fd5b600354600160008373ffffffffffffffffffffffffffffffffffffffff1673ffffffffffffffffffffffffffffffffffffffff1681526020019081526020016000206000018190555085600160008373ffffffffffffffffffffffffffffffffffffffff1673ffffffffffffffffffffffffffffffffffffffff1681526020019081526020016000206001019080519060200190610808929190610c3e565b5084600160008373ffffffffffffffffffffffffffffffffffffffff1673ffffffffffffffffffffffffffffffffffffffff1681526020019081526020016000206002018190555083600160008373ffffffffffffffffffffffffffffffffffffffff1673ffffffffffffffffffffffffffffffffffffffff1681526020019081526020016000206003018190555082600160008373ffffffffffffffffffffffffffffffffffffffff1673ffffffffffffffffffffffffffffffffffffffff168152602001908152602001600020600401819055508160038111156108f1576108f0610ece565b5b600160008373ffffffffffffffffffffffffffffffffffffffff1673ffffffffffffffffffffffffffffffffffffffff16815260200190815260200160002060050160006101000a81548160ff0219169083600381111561095557610954610ece565b5b021790555080600160008373ffffffffffffffffffffffffffffffffffffffff1673ffffffffffffffffffffffffffffffffffffffff16815260200190815260200160002060050160016101000a81548173ffffffffffffffffffffffffffffffffffffffff021916908373ffffffffffffffffffffffffffffffffffffffff16021790555042600160008373ffffffffffffffffffffffffffffffffffffffff1673ffffffffffffffffffffffffffffffffffffffff16815260200190815260200160002060060181905550816003811115610a3557610a34610ece565b5b6003811115610a4757610a46610ece565b5b86604051610a559190611651565b60405180910390208273ffffffffffffffffffffffffffffffffffffffff167f2ae7d1f3a516b67fe6248bb3ec44ca6a8e8d75492c92879f0e621a85954e984a88888842604051610aa9949392919061156f565b60405180910390a46002819080600181540180825580915050600190039060005260206000200160009091909190916101000a81548173ffffffffffffffffffffffffffffffffffffffff021916908373ffffffffffffffffffffffffffffffffffffffff16021790555060036000815480929190610b2790611697565b9190505550505050505050565b60035481565b60606002805480602002602001604051908101604052809291908181526020018280548015610bbe57602002820191906000526020600020905b8160009054906101000a900473ffffffffffffffffffffffffffffffffffffffff1673ffffffffffffffffffffffffffffffffffffffff1681526020019060010190808311610b74575b5050505050905090565b604051806101000160405280600081526020016060815260200160008019168152602001600080191681526020016000801916815260200160006003811115610c1457610c13610ece565b5b8152602001600073ffffffffffffffffffffffffffffffffffffffff168152602001600081525090565b828054610c4a90611487565b90600052602060002090601f016020900481019282610c6c5760008555610cb3565b82601f10610c8557805160ff1916838001178555610cb3565b82800160010185558215610cb3579182015b82811115610cb2578251825591602001919060010190610c97565b5b509050610cc09190610cc4565b5090565b5b80821115610cdd576000816000905550600101610cc5565b5090565b6000604051905090565b600080fd5b600080fd5b6000819050919050565b610d0881610cf5565b8114610d1357600080fd5b50565b600081359050610d2581610cff565b92915050565b600060208284031215610d4157610d40610ceb565b5b6000610d4f84828501610d16565b91505092915050565b600073ffffffffffffffffffffffffffffffffffffffff82169050919050565b6000610d8382610d58565b9050919050565b610d9381610d78565b82525050565b6000602082019050610dae6000830184610d8a565b92915050565b610dbd81610d78565b8114610dc857600080fd5b50565b600081359050610dda81610db4565b92915050565b600060208284031215610df657610df5610ceb565b5b6000610e0484828501610dcb565b91505092915050565b610e1681610cf5565b82525050565b600081519050919050565b600082825260208201905092915050565b60005b83811015610e56578082015181840152602081019050610e3b565b83811115610e65576000848401525b50505050565b6000601f19601f8301169050919050565b6000610e8782610e1c565b610e918185610e27565b9350610ea1818560208601610e38565b610eaa81610e6b565b840191505092915050565b6000819050919050565b610ec881610eb5565b82525050565b7f4e487b7100000000000000000000000000000000000000000000000000000000600052602160045260246000fd5b60048110610f0e57610f0d610ece565b5b50565b6000819050610f1f82610efd565b919050565b6000610f2f82610f11565b9050919050565b610f3f81610f24565b82525050565b610f4e81610d78565b82525050565b600061010083016000830151610f6d6000860182610e0d565b5060208301518482036020860152610f858282610e7c565b9150506040830151610f9a6040860182610ebf565b506060830151610fad6060860182610ebf565b506080830151610fc06080860182610ebf565b5060a0830151610fd360a0860182610f36565b5060c0830151610fe660c0860182610f45565b5060e0830151610ff960e0860182610e0d565b508091505092915050565b6000602082019050818103600083015261101e8184610f54565b905092915050565b6000806040838503121561103d5761103c610ceb565b5b600061104b85828601610d16565b925050602061105c85828601610dcb565b9150509250929050565b61106f81610cf5565b82525050565b600082825260208201905092915050565b600061109182610e1c565b61109b8185611075565b93506110ab818560208601610e38565b6110b481610e6b565b840191505092915050565b6110c881610eb5565b82525050565b6110d781610f24565b82525050565b6000610100820190506110f3600083018b611066565b8181036020830152611105818a611086565b905061111460408301896110bf565b61112160608301886110bf565b61112e60808301876110bf565b61113b60a08301866110ce565b61114860c0830185610d8a565b61115560e0830184611066565b9998505050505050505050565b600080fd5b600080fd5b7f4e487b7100000000000000000000000000000000000000000000000000000000600052604160045260246000fd5b6111a482610e6b565b810181811067ffffffffffffffff821117156111c3576111c261116c565b5b80604052505050565b60006111d6610ce1565b90506111e2828261119b565b919050565b600067ffffffffffffffff8211156112025761120161116c565b5b61120b82610e6b565b9050602081019050919050565b82818337600083830152505050565b600061123a611235846111e7565b6111cc565b90508281526020810184848401111561125657611255611167565b5b611261848285611218565b509392505050565b600082601f83011261127e5761127d611162565b5b813561128e848260208601611227565b91505092915050565b6112a081610eb5565b81146112ab57600080fd5b50565b6000813590506112bd81611297565b92915050565b60008060008060008060c087890312156112e0576112df610ceb565b5b600087013567ffffffffffffffff8111156112fe576112fd610cf0565b5b61130a89828a01611269565b965050602061131b89828a016112ae565b955050604061132c89828a016112ae565b945050606061133d89828a016112ae565b935050608061134e89828a01610d16565b92505060a061135f89828a01610dcb565b9150509295509295509295565b60006020820190506113816000830184611066565b92915050565b600081519050919050565b600082825260208201905092915050565b6000819050602082019050919050565b60006113bf8383610f45565b60208301905092915050565b6000602082019050919050565b60006113e382611387565b6113ed8185611392565b93506113f8836113a3565b8060005b8381101561142957815161141088826113b3565b975061141b836113cb565b9250506001810190506113fc565b5085935050505092915050565b6000602082019050818103600083015261145081846113d8565b905092915050565b7f4e487b7100000000000000000000000000000000000000000000000000000000600052602260045260246000fd5b6000600282049050600182168061149f57607f821691505b602082108114156114b3576114b2611458565b5b50919050565b600081905092915050565b60008190508160005260206000209050919050565b600081546114e681611487565b6114f081866114b9565b9450600182166000811461150b576001811461151c5761154f565b60ff1983168652818601935061154f565b611525856114c4565b60005b8381101561154757815481890152600182019150602081019050611528565b838801955050505b50505092915050565b600061156482846114d9565b915081905092915050565b600060808201905061158460008301876110bf565b61159160208301866110bf565b61159e60408301856110bf565b6115ab6060830184611066565b95945050505050565b7f596f7520617265206e6f7420616e206f776e6572000000000000000000000000600082015250565b60006115ea601483611075565b91506115f5826115b4565b602082019050919050565b60006020820190508181036000830152611619816115dd565b9050919050565b600061162b82610e1c565b61163581856114b9565b9350611645818560208601610e38565b80840191505092915050565b600061165d8284611620565b915081905092915050565b7f4e487b7100000000000000000000000000000000000000000000000000000000600052601160045260246000fd5b60006116a282610cf5565b91507fffffffffffffffffffffffffffffffffffffffffffffffffffffffffffffffff8214156116d5576116d4611668565b5b60018201905091905056fea2646970667358221220aa57c07d984b39e689b507baef239419301acc1dba64a6f5081a919709c4302a64736f6c634300080a0033",
  "immutableReferences": {},
  "source": "// SPDX-License-Identifier: MIT\r\npragma solidity >=0.8.0 <0.9.0;\r\n\r\ncontract UserChain {\r\n    address public owner;\r\n\r\n    mapping(address => User) public users;\r\n    address[] public usersAddress;\r\n    uint256 public usersCounter = 0;\r\n\r\n    enum Roles {\r\n        DefaultRole,\r\n        ProjectInitiator,\r\n        CompanyBuilder,\r\n        ProjectSupervisor\r\n    }\r\n\r\n    struct User {\r\n        uint _index;\r\n        string _username;\r\n        bytes32 _email;\r\n        bytes32 _firstname;\r\n        bytes32 _lastname;\r\n        Roles _role;\r\n        address _walletAddress;\r\n        uint _timestamp;\r\n    }\r\n    event UserEvent(\r\n        address indexed _walletAddress,\r\n        string indexed _username,\r\n        bytes32 _email,\r\n        bytes32 _firstname,\r\n        bytes32 _lastname,\r\n        Roles indexed _role,\r\n        uint _timestamp\r\n    );\r\n\r\n    constructor() {\r\n        owner = msg.sender;\r\n    }\r\n\r\n    modifier onlyOwner() {\r\n        require(owner == msg.sender, \"You are not an owner\");\r\n        _;\r\n    }\r\n\r\n    modifier checkUser(address _address) {\r\n        require(_address == msg.sender, \"Address\");\r\n        _;\r\n    }\r\n\r\n    function registerUser(\r\n        string memory _username,\r\n        bytes32 _email,\r\n        bytes32 _firstname,\r\n        bytes32 _lastname,\r\n        uint256 _role,\r\n        address _walletAddress\r\n    ) public onlyOwner {\r\n        users[_walletAddress]._index = usersCounter;\r\n        users[_walletAddress]._username = _username;\r\n        users[_walletAddress]._email = _email;\r\n        users[_walletAddress]._firstname = _firstname;\r\n        users[_walletAddress]._lastname = _lastname;\r\n        users[_walletAddress]._role = Roles(_role);\r\n        users[_walletAddress]._walletAddress = _walletAddress;\r\n        users[_walletAddress]._timestamp = block.timestamp;\r\n\r\n        emit UserEvent(\r\n            _walletAddress,\r\n            _username,\r\n            _email,\r\n            _firstname,\r\n            _lastname,\r\n            Roles(_role),\r\n            block.timestamp\r\n        );\r\n        usersAddress.push(_walletAddress);\r\n        usersCounter++;\r\n    }\r\n\r\n    function changeUserRole(uint _role, address _walletAddress) public {\r\n        users[_walletAddress]._role = Roles(_role);\r\n\r\n        emit UserEvent(\r\n            _walletAddress,\r\n            users[_walletAddress]._username,\r\n            users[_walletAddress]._email,\r\n            users[_walletAddress]._firstname,\r\n            users[_walletAddress]._lastname,\r\n            Roles(_role),\r\n            block.timestamp\r\n        );\r\n    }\r\n\r\n    function getAllUsers() public view returns (address[] memory) {\r\n        return usersAddress;\r\n    }\r\n\r\n    function getUserInfo(address _walletAddress) public view returns (User memory) {\r\n        return users[_walletAddress];\r\n    }\r\n}\r\n",
  "sourcePath": "/mnt/c/Users/Beniamin/source/repos/DissertationProject/contracts/UserChain.sol",
  "compiler": {
    "name": "solc",
    "version": "0.8.10+commit.fc410830.Emscripten.clang"
  },
  "schemaVersion": "3.4.3",
  "updatedAt": "2021-11-22T20:53:16.116Z",
  "devdoc": {
    "kind": "dev",
    "methods": {},
    "version": 1
  },
  "userdoc": {
    "kind": "user",
    "methods": {},
    "version": 1
  }
}