{
  "contractName": "UserChain",
  "abi": [
    {
      "inputs": [],
      "stateMutability": "nonpayable",
      "type": "constructor"
    },
    {
      "anonymous": false,
      "inputs": [
        {
          "indexed": false,
          "internalType": "uint256",
          "name": "_index",
          "type": "uint256"
        },
        {
          "indexed": true,
          "internalType": "string",
          "name": "_username",
          "type": "string"
        },
        {
          "indexed": false,
          "internalType": "bytes32",
          "name": "_email",
          "type": "bytes32"
        },
        {
          "indexed": false,
          "internalType": "bytes32",
          "name": "_firstname",
          "type": "bytes32"
        },
        {
          "indexed": false,
          "internalType": "bytes32",
          "name": "_lastname",
          "type": "bytes32"
        },
        {
          "indexed": true,
          "internalType": "enum UserChain.Roles",
          "name": "_role",
          "type": "uint8"
        },
        {
          "indexed": true,
          "internalType": "address",
          "name": "_walletAddress",
          "type": "address"
        },
        {
          "indexed": false,
          "internalType": "uint256",
          "name": "_timestamp",
          "type": "uint256"
        }
      ],
      "name": "UserEvent",
      "type": "event"
    },
    {
      "inputs": [],
      "name": "owner",
      "outputs": [
        {
          "internalType": "address",
          "name": "",
          "type": "address"
        }
      ],
      "stateMutability": "view",
      "type": "function"
    },
    {
      "inputs": [
        {
          "internalType": "address",
          "name": "",
          "type": "address"
        }
      ],
      "name": "users",
      "outputs": [
        {
          "internalType": "uint256",
          "name": "_index",
          "type": "uint256"
        },
        {
          "internalType": "string",
          "name": "_username",
          "type": "string"
        },
        {
          "internalType": "bytes32",
          "name": "_email",
          "type": "bytes32"
        },
        {
          "internalType": "bytes32",
          "name": "_firstname",
          "type": "bytes32"
        },
        {
          "internalType": "bytes32",
          "name": "_lastname",
          "type": "bytes32"
        },
        {
          "internalType": "enum UserChain.Roles",
          "name": "_role",
          "type": "uint8"
        },
        {
          "internalType": "address",
          "name": "_walletAddress",
          "type": "address"
        },
        {
          "internalType": "uint256",
          "name": "_timestamp",
          "type": "uint256"
        }
      ],
      "stateMutability": "view",
      "type": "function"
    },
    {
      "inputs": [
        {
          "internalType": "uint256",
          "name": "",
          "type": "uint256"
        }
      ],
      "name": "usersAddress",
      "outputs": [
        {
          "internalType": "address",
          "name": "",
          "type": "address"
        }
      ],
      "stateMutability": "view",
      "type": "function"
    },
    {
      "inputs": [],
      "name": "usersCounter",
      "outputs": [
        {
          "internalType": "uint256",
          "name": "",
          "type": "uint256"
        }
      ],
      "stateMutability": "view",
      "type": "function"
    },
    {
      "inputs": [
        {
          "internalType": "string",
          "name": "_username",
          "type": "string"
        },
        {
          "internalType": "bytes32",
          "name": "_email",
          "type": "bytes32"
        },
        {
          "internalType": "bytes32",
          "name": "_firstname",
          "type": "bytes32"
        },
        {
          "internalType": "bytes32",
          "name": "_lastname",
          "type": "bytes32"
        },
        {
          "internalType": "uint256",
          "name": "_role",
          "type": "uint256"
        },
        {
          "internalType": "address",
          "name": "_walletAddress",
          "type": "address"
        }
      ],
      "name": "registerUser",
      "outputs": [],
      "stateMutability": "nonpayable",
      "type": "function"
    },
    {
      "inputs": [
        {
          "internalType": "uint256",
          "name": "_role",
          "type": "uint256"
        },
        {
          "internalType": "address",
          "name": "_walletAddress",
          "type": "address"
        }
      ],
      "name": "changeUserRole",
      "outputs": [],
      "stateMutability": "nonpayable",
      "type": "function"
    },
    {
      "inputs": [],
      "name": "getAllUsers",
      "outputs": [
        {
          "components": [
            {
              "internalType": "uint256",
              "name": "_index",
              "type": "uint256"
            },
            {
              "internalType": "string",
              "name": "_username",
              "type": "string"
            },
            {
              "internalType": "bytes32",
              "name": "_email",
              "type": "bytes32"
            },
            {
              "internalType": "bytes32",
              "name": "_firstname",
              "type": "bytes32"
            },
            {
              "internalType": "bytes32",
              "name": "_lastname",
              "type": "bytes32"
            },
            {
              "internalType": "enum UserChain.Roles",
              "name": "_role",
              "type": "uint8"
            },
            {
              "internalType": "address",
              "name": "_walletAddress",
              "type": "address"
            },
            {
              "internalType": "uint256",
              "name": "_timestamp",
              "type": "uint256"
            }
          ],
          "internalType": "struct UserChain.User[]",
          "name": "",
          "type": "tuple[]"
        }
      ],
      "stateMutability": "view",
      "type": "function"
    },
    {
      "inputs": [
        {
          "internalType": "address",
          "name": "_walletAddress",
          "type": "address"
        }
      ],
      "name": "getUserInfo",
      "outputs": [
        {
          "components": [
            {
              "internalType": "uint256",
              "name": "_index",
              "type": "uint256"
            },
            {
              "internalType": "string",
              "name": "_username",
              "type": "string"
            },
            {
              "internalType": "bytes32",
              "name": "_email",
              "type": "bytes32"
            },
            {
              "internalType": "bytes32",
              "name": "_firstname",
              "type": "bytes32"
            },
            {
              "internalType": "bytes32",
              "name": "_lastname",
              "type": "bytes32"
            },
            {
              "internalType": "enum UserChain.Roles",
              "name": "_role",
              "type": "uint8"
            },
            {
              "internalType": "address",
              "name": "_walletAddress",
              "type": "address"
            },
            {
              "internalType": "uint256",
              "name": "_timestamp",
              "type": "uint256"
            }
          ],
          "internalType": "struct UserChain.User",
          "name": "",
          "type": "tuple"
        }
      ],
      "stateMutability": "view",
      "type": "function"
    }
  ],
  "bytecode": "0x6080604052600060035534801561001557600080fd5b50336000806101000a81548173ffffffffffffffffffffffffffffffffffffffff021916908373ffffffffffffffffffffffffffffffffffffffff160217905550611921806100656000396000f3fe608060405234801561001057600080fd5b50600436106100885760003560e01c8063a87430ba1161005b578063a87430ba14610127578063cf13f5d41461015e578063d67b1b991461017a578063e2842d791461019857610088565b80632c91324c1461008d5780636386c1c7146100bd5780638da5cb5b146100ed578063910097861461010b575b600080fd5b6100a760048036038101906100a29190610e36565b6101b6565b6040516100b49190610ea4565b60405180910390f35b6100d760048036038101906100d29190610eeb565b6101f5565b6040516100e4919061110f565b60405180910390f35b6100f56103a4565b6040516101029190610ea4565b60405180910390f35b61012560048036038101906101209190611131565b6103c8565b005b610141600480360381019061013c9190610eeb565b610622565b6040516101559897969594939291906111e8565b60405180910390f35b610178600480360381019061017391906113ce565b61071f565b005b610182610a41565b60405161018f9190611477565b60405180910390f35b6101a0610a47565b6040516101ad9190611604565b60405180910390f35b600281815481106101c657600080fd5b906000526020600020016000915054906101000a900473ffffffffffffffffffffffffffffffffffffffff1681565b6101fd610cd3565b600160008373ffffffffffffffffffffffffffffffffffffffff1673ffffffffffffffffffffffffffffffffffffffff168152602001908152602001600020604051806101000160405290816000820154815260200160018201805461026290611655565b80601f016020809104026020016040519081016040528092919081815260200182805461028e90611655565b80156102db5780601f106102b0576101008083540402835291602001916102db565b820191906000526020600020905b8154815290600101906020018083116102be57829003601f168201915b505050505081526020016002820154815260200160038201548152602001600482015481526020016005820160009054906101000a900460ff16600381111561032757610326610fd9565b5b600381111561033957610338610fd9565b5b81526020016005820160019054906101000a900473ffffffffffffffffffffffffffffffffffffffff1673ffffffffffffffffffffffffffffffffffffffff1673ffffffffffffffffffffffffffffffffffffffff1681526020016006820154815250509050919050565b60008054906101000a900473ffffffffffffffffffffffffffffffffffffffff1681565b8160038111156103db576103da610fd9565b5b600160008373ffffffffffffffffffffffffffffffffffffffff1673ffffffffffffffffffffffffffffffffffffffff16815260200190815260200160002060050160006101000a81548160ff0219169083600381111561043f5761043e610fd9565b5b02179055508073ffffffffffffffffffffffffffffffffffffffff1682600381111561046e5761046d610fd9565b5b60038111156104805761047f610fd9565b5b600160008473ffffffffffffffffffffffffffffffffffffffff1673ffffffffffffffffffffffffffffffffffffffff1681526020019081526020016000206001016040516104cf9190611726565b60405180910390207ff17f3effabbd51830c4ffa8b6910ac12573d210009e0aedb1a55ae5026192e9a600160008673ffffffffffffffffffffffffffffffffffffffff1673ffffffffffffffffffffffffffffffffffffffff16815260200190815260200160002060000154600160008773ffffffffffffffffffffffffffffffffffffffff1673ffffffffffffffffffffffffffffffffffffffff16815260200190815260200160002060020154600160008873ffffffffffffffffffffffffffffffffffffffff1673ffffffffffffffffffffffffffffffffffffffff16815260200190815260200160002060030154600160008973ffffffffffffffffffffffffffffffffffffffff1673ffffffffffffffffffffffffffffffffffffffff168152602001908152602001600020600401544260405161061695949392919061173d565b60405180910390a45050565b600160205280600052604060002060009150905080600001549080600101805461064b90611655565b80601f016020809104026020016040519081016040528092919081815260200182805461067790611655565b80156106c45780601f10610699576101008083540402835291602001916106c4565b820191906000526020600020905b8154815290600101906020018083116106a757829003601f168201915b5050505050908060020154908060030154908060040154908060050160009054906101000a900460ff16908060050160019054906101000a900473ffffffffffffffffffffffffffffffffffffffff16908060060154905088565b3373ffffffffffffffffffffffffffffffffffffffff1660008054906101000a900473ffffffffffffffffffffffffffffffffffffffff1673ffffffffffffffffffffffffffffffffffffffff16146107ad576040517f08c379a00000000000000000000000000000000000000000000000000000000081526004016107a4906117dc565b60405180910390fd5b60405180610100016040528060035481526020018781526020018681526020018581526020018481526020018360038111156107ec576107eb610fd9565b5b60038111156107fe576107fd610fd9565b5b81526020018273ffffffffffffffffffffffffffffffffffffffff16815260200142815250600160008373ffffffffffffffffffffffffffffffffffffffff1673ffffffffffffffffffffffffffffffffffffffff168152602001908152602001600020600082015181600001556020820151816001019080519060200190610888929190610d49565b5060408201518160020155606082015181600301556080820151816004015560a08201518160050160006101000a81548160ff021916908360038111156108d2576108d1610fd9565b5b021790555060c08201518160050160016101000a81548173ffffffffffffffffffffffffffffffffffffffff021916908373ffffffffffffffffffffffffffffffffffffffff16021790555060e082015181600601559050508073ffffffffffffffffffffffffffffffffffffffff1682600381111561095557610954610fd9565b5b600381111561096757610966610fd9565b5b87604051610975919061182d565b60405180910390207ff17f3effabbd51830c4ffa8b6910ac12573d210009e0aedb1a55ae5026192e9a600354898989426040516109b695949392919061173d565b60405180910390a46002819080600181540180825580915050600190039060005260206000200160009091909190916101000a81548173ffffffffffffffffffffffffffffffffffffffff021916908373ffffffffffffffffffffffffffffffffffffffff16021790555060036000815480929190610a3490611873565b9190505550505050505050565b60035481565b6060600060035467ffffffffffffffff811115610a6757610a66611277565b5b604051908082528060200260200182016040528015610aa057816020015b610a8d610cd3565b815260200190600190039081610a855790505b50905060005b600354811015610ccb57600060028281548110610ac657610ac56118bc565b5b9060005260206000200160009054906101000a900473ffffffffffffffffffffffffffffffffffffffff1690506000600160008373ffffffffffffffffffffffffffffffffffffffff1673ffffffffffffffffffffffffffffffffffffffff1681526020019081526020016000209050806040518061010001604052908160008201548152602001600182018054610b5d90611655565b80601f0160208091040260200160405190810160405280929190818152602001828054610b8990611655565b8015610bd65780601f10610bab57610100808354040283529160200191610bd6565b820191906000526020600020905b815481529060010190602001808311610bb957829003601f168201915b505050505081526020016002820154815260200160038201548152602001600482015481526020016005820160009054906101000a900460ff166003811115610c2257610c21610fd9565b5b6003811115610c3457610c33610fd9565b5b81526020016005820160019054906101000a900473ffffffffffffffffffffffffffffffffffffffff1673ffffffffffffffffffffffffffffffffffffffff1673ffffffffffffffffffffffffffffffffffffffff168152602001600682015481525050848481518110610cab57610caa6118bc565b5b602002602001018190525050508080610cc390611873565b915050610aa6565b508091505090565b604051806101000160405280600081526020016060815260200160008019168152602001600080191681526020016000801916815260200160006003811115610d1f57610d1e610fd9565b5b8152602001600073ffffffffffffffffffffffffffffffffffffffff168152602001600081525090565b828054610d5590611655565b90600052602060002090601f016020900481019282610d775760008555610dbe565b82601f10610d9057805160ff1916838001178555610dbe565b82800160010185558215610dbe579182015b82811115610dbd578251825591602001919060010190610da2565b5b509050610dcb9190610dcf565b5090565b5b80821115610de8576000816000905550600101610dd0565b5090565b6000604051905090565b600080fd5b600080fd5b6000819050919050565b610e1381610e00565b8114610e1e57600080fd5b50565b600081359050610e3081610e0a565b92915050565b600060208284031215610e4c57610e4b610df6565b5b6000610e5a84828501610e21565b91505092915050565b600073ffffffffffffffffffffffffffffffffffffffff82169050919050565b6000610e8e82610e63565b9050919050565b610e9e81610e83565b82525050565b6000602082019050610eb96000830184610e95565b92915050565b610ec881610e83565b8114610ed357600080fd5b50565b600081359050610ee581610ebf565b92915050565b600060208284031215610f0157610f00610df6565b5b6000610f0f84828501610ed6565b91505092915050565b610f2181610e00565b82525050565b600081519050919050565b600082825260208201905092915050565b60005b83811015610f61578082015181840152602081019050610f46565b83811115610f70576000848401525b50505050565b6000601f19601f8301169050919050565b6000610f9282610f27565b610f9c8185610f32565b9350610fac818560208601610f43565b610fb581610f76565b840191505092915050565b6000819050919050565b610fd381610fc0565b82525050565b7f4e487b7100000000000000000000000000000000000000000000000000000000600052602160045260246000fd5b6004811061101957611018610fd9565b5b50565b600081905061102a82611008565b919050565b600061103a8261101c565b9050919050565b61104a8161102f565b82525050565b61105981610e83565b82525050565b6000610100830160008301516110786000860182610f18565b50602083015184820360208601526110908282610f87565b91505060408301516110a56040860182610fca565b5060608301516110b86060860182610fca565b5060808301516110cb6080860182610fca565b5060a08301516110de60a0860182611041565b5060c08301516110f160c0860182611050565b5060e083015161110460e0860182610f18565b508091505092915050565b60006020820190508181036000830152611129818461105f565b905092915050565b6000806040838503121561114857611147610df6565b5b600061115685828601610e21565b925050602061116785828601610ed6565b9150509250929050565b61117a81610e00565b82525050565b600082825260208201905092915050565b600061119c82610f27565b6111a68185611180565b93506111b6818560208601610f43565b6111bf81610f76565b840191505092915050565b6111d381610fc0565b82525050565b6111e28161102f565b82525050565b6000610100820190506111fe600083018b611171565b8181036020830152611210818a611191565b905061121f60408301896111ca565b61122c60608301886111ca565b61123960808301876111ca565b61124660a08301866111d9565b61125360c0830185610e95565b61126060e0830184611171565b9998505050505050505050565b600080fd5b600080fd5b7f4e487b7100000000000000000000000000000000000000000000000000000000600052604160045260246000fd5b6112af82610f76565b810181811067ffffffffffffffff821117156112ce576112cd611277565b5b80604052505050565b60006112e1610dec565b90506112ed82826112a6565b919050565b600067ffffffffffffffff82111561130d5761130c611277565b5b61131682610f76565b9050602081019050919050565b82818337600083830152505050565b6000611345611340846112f2565b6112d7565b90508281526020810184848401111561136157611360611272565b5b61136c848285611323565b509392505050565b600082601f8301126113895761138861126d565b5b8135611399848260208601611332565b91505092915050565b6113ab81610fc0565b81146113b657600080fd5b50565b6000813590506113c8816113a2565b92915050565b60008060008060008060c087890312156113eb576113ea610df6565b5b600087013567ffffffffffffffff81111561140957611408610dfb565b5b61141589828a01611374565b965050602061142689828a016113b9565b955050604061143789828a016113b9565b945050606061144889828a016113b9565b935050608061145989828a01610e21565b92505060a061146a89828a01610ed6565b9150509295509295509295565b600060208201905061148c6000830184611171565b92915050565b600081519050919050565b600082825260208201905092915050565b6000819050602082019050919050565b6000610100830160008301516114d76000860182610f18565b50602083015184820360208601526114ef8282610f87565b91505060408301516115046040860182610fca565b5060608301516115176060860182610fca565b50608083015161152a6080860182610fca565b5060a083015161153d60a0860182611041565b5060c083015161155060c0860182611050565b5060e083015161156360e0860182610f18565b508091505092915050565b600061157a83836114be565b905092915050565b6000602082019050919050565b600061159a82611492565b6115a4818561149d565b9350836020820285016115b6856114ae565b8060005b858110156115f257848403895281516115d3858261156e565b94506115de83611582565b925060208a019950506001810190506115ba565b50829750879550505050505092915050565b6000602082019050818103600083015261161e818461158f565b905092915050565b7f4e487b7100000000000000000000000000000000000000000000000000000000600052602260045260246000fd5b6000600282049050600182168061166d57607f821691505b6020821081141561168157611680611626565b5b50919050565b600081905092915050565b60008190508160005260206000209050919050565b600081546116b481611655565b6116be8186611687565b945060018216600081146116d957600181146116ea5761171d565b60ff1983168652818601935061171d565b6116f385611692565b60005b83811015611715578154818901526001820191506020810190506116f6565b838801955050505b50505092915050565b600061173282846116a7565b915081905092915050565b600060a0820190506117526000830188611171565b61175f60208301876111ca565b61176c60408301866111ca565b61177960608301856111ca565b6117866080830184611171565b9695505050505050565b7f596f7520617265206e6f7420616e206f776e6572000000000000000000000000600082015250565b60006117c6601483611180565b91506117d182611790565b602082019050919050565b600060208201905081810360008301526117f5816117b9565b9050919050565b600061180782610f27565b6118118185611687565b9350611821818560208601610f43565b80840191505092915050565b600061183982846117fc565b915081905092915050565b7f4e487b7100000000000000000000000000000000000000000000000000000000600052601160045260246000fd5b600061187e82610e00565b91507fffffffffffffffffffffffffffffffffffffffffffffffffffffffffffffffff8214156118b1576118b0611844565b5b600182019050919050565b7f4e487b7100000000000000000000000000000000000000000000000000000000600052603260045260246000fdfea26469706673582212204202952b99b419e3a54b42892ecb34114324ab106614a6e32774af7d2ad592bd64736f6c634300080a0033",
  "immutableReferences": {},
  "source": "// SPDX-License-Identifier: MIT\r\npragma solidity >=0.8.0 <0.9.0;\r\n\r\ncontract UserChain {\r\n    address public owner;\r\n\r\n    mapping(address => User) public users;\r\n    address[] public usersAddress;\r\n    uint256 public usersCounter = 0;\r\n\r\n    enum Roles {\r\n        DefaultRole,\r\n        ProjectInitiator,\r\n        CompanyBuilder,\r\n        ProjectSupervisor\r\n    }\r\n\r\n    struct User {\r\n        uint _index;\r\n        string _username;\r\n        bytes32 _email;\r\n        bytes32 _firstname;\r\n        bytes32 _lastname;\r\n        Roles _role;\r\n        address _walletAddress;\r\n        uint _timestamp;\r\n    }\r\n    event UserEvent(\r\n        uint _index,\r\n        string indexed _username,\r\n        bytes32 _email,\r\n        bytes32 _firstname,\r\n        bytes32 _lastname,\r\n        Roles indexed _role,\r\n        address indexed _walletAddress,\r\n        uint _timestamp\r\n    );\r\n\r\n    constructor() {\r\n        owner = msg.sender;\r\n    }\r\n\r\n    modifier onlyOwner() {\r\n        require(owner == msg.sender, \"You are not an owner\");\r\n        _;\r\n    }\r\n\r\n    modifier checkUser(address _address) {\r\n        require(_address == msg.sender, \"Address\");\r\n        _;\r\n    }\r\n\r\n    function registerUser(\r\n        string memory _username,\r\n        bytes32 _email,\r\n        bytes32 _firstname,\r\n        bytes32 _lastname,\r\n        uint256 _role,\r\n        address _walletAddress\r\n    ) public onlyOwner {\r\n        users[_walletAddress] = User(\r\n            usersCounter, _username, _email, _firstname, _lastname,\r\n            Roles(_role), _walletAddress, block.timestamp\r\n        );\r\n\r\n        emit UserEvent(\r\n            usersCounter, _username, _email, _firstname,\r\n            _lastname, Roles(_role), _walletAddress, block.timestamp\r\n        );\r\n        usersAddress.push(_walletAddress);\r\n        usersCounter++;\r\n    }\r\n\r\n    function changeUserRole(uint _role, address _walletAddress) public {\r\n        users[_walletAddress]._role = Roles(_role);\r\n\r\n        emit UserEvent(\r\n            users[_walletAddress]._index, users[_walletAddress]._username,\r\n            users[_walletAddress]._email, users[_walletAddress]._firstname,\r\n            users[_walletAddress]._lastname, Roles(_role), _walletAddress, block.timestamp\r\n        );\r\n    }\r\n\r\n    function getAllUsers() public view returns(User[] memory) {\r\n        User[] memory allUsers = new User[](usersCounter);\r\n        for (uint index = 0; index < usersCounter; index++) {\r\n            address _userAddress = usersAddress[index];\r\n            User storage user = users[_userAddress];\r\n            allUsers[index] = user;\r\n        }\r\n        return allUsers;\r\n    }\r\n\r\n    function getUserInfo(address _walletAddress) public view returns (User memory) {\r\n        return users[_walletAddress];\r\n    }\r\n}\r\n",
  "sourcePath": "/mnt/c/Users/Beniamin/source/repos/DissertationProject/contracts/UserChain.sol",
  "compiler": {
    "name": "solc",
    "version": "0.8.10+commit.fc410830.Emscripten.clang"
  },
  "schemaVersion": "3.4.3",
  "updatedAt": "2021-11-24T09:17:43.035Z",
  "devdoc": {
    "kind": "dev",
    "methods": {},
    "version": 1
  },
  "userdoc": {
    "kind": "user",
    "methods": {},
    "version": 1
  }
}