{
  "contractName": "UserChain",
  "abi": [
    {
      "inputs": [],
      "stateMutability": "nonpayable",
      "type": "constructor"
    },
    {
      "anonymous": false,
      "inputs": [
        {
          "components": [
            {
              "internalType": "uint256",
              "name": "_index",
              "type": "uint256"
            },
            {
              "internalType": "string",
              "name": "_name",
              "type": "string"
            },
            {
              "internalType": "enum SharedChain.ProjectStatus",
              "name": "_status",
              "type": "uint8"
            },
            {
              "internalType": "string",
              "name": "_ipfsFileCID",
              "type": "string"
            },
            {
              "internalType": "address",
              "name": "_projectAddress",
              "type": "address"
            },
            {
              "internalType": "address",
              "name": "_signerAddress",
              "type": "address"
            },
            {
              "internalType": "address",
              "name": "_companyAddress",
              "type": "address"
            },
            {
              "internalType": "bool",
              "name": "_assigned",
              "type": "bool"
            },
            {
              "internalType": "uint256",
              "name": "_timestamp",
              "type": "uint256"
            },
            {
              "internalType": "string",
              "name": "_signature",
              "type": "string"
            }
          ],
          "indexed": false,
          "internalType": "struct SharedChain.Project",
          "name": "_project",
          "type": "tuple"
        },
        {
          "indexed": true,
          "internalType": "address",
          "name": "_projectAddress",
          "type": "address"
        },
        {
          "indexed": true,
          "internalType": "address",
          "name": "_companyAddress",
          "type": "address"
        }
      ],
      "name": "ProjectEvent",
      "type": "event"
    },
    {
      "anonymous": false,
      "inputs": [
        {
          "components": [
            {
              "internalType": "uint256",
              "name": "_index",
              "type": "uint256"
            },
            {
              "internalType": "string",
              "name": "_title",
              "type": "string"
            },
            {
              "internalType": "string",
              "name": "_comments",
              "type": "string"
            },
            {
              "internalType": "enum SharedChain.ProjectStatus",
              "name": "_projectStatus",
              "type": "uint8"
            },
            {
              "internalType": "enum SharedChain.RequestStatus",
              "name": "_requestStatus",
              "type": "uint8"
            },
            {
              "internalType": "enum SharedChain.RequestType",
              "name": "_requestType",
              "type": "uint8"
            },
            {
              "internalType": "address",
              "name": "_projectAddress",
              "type": "address"
            },
            {
              "internalType": "address",
              "name": "_requestAddress",
              "type": "address"
            },
            {
              "internalType": "address",
              "name": "_signerAddress",
              "type": "address"
            },
            {
              "internalType": "uint256",
              "name": "_timestamp",
              "type": "uint256"
            },
            {
              "internalType": "string",
              "name": "_signature",
              "type": "string"
            }
          ],
          "indexed": false,
          "internalType": "struct SharedChain.Request",
          "name": "_request",
          "type": "tuple"
        },
        {
          "indexed": true,
          "internalType": "address",
          "name": "_requestAddress",
          "type": "address"
        },
        {
          "indexed": true,
          "internalType": "address",
          "name": "_projectAddress",
          "type": "address"
        }
      ],
      "name": "RequestEvent",
      "type": "event"
    },
    {
      "anonymous": false,
      "inputs": [
        {
          "components": [
            {
              "internalType": "bytes32",
              "name": "_firstname",
              "type": "bytes32"
            },
            {
              "internalType": "bytes32",
              "name": "_lastname",
              "type": "bytes32"
            },
            {
              "internalType": "enum SharedChain.Roles",
              "name": "_role",
              "type": "uint8"
            },
            {
              "internalType": "address",
              "name": "_walletAddress",
              "type": "address"
            },
            {
              "internalType": "uint256",
              "name": "_timestamp",
              "type": "uint256"
            }
          ],
          "indexed": false,
          "internalType": "struct SharedChain.User",
          "name": "_user",
          "type": "tuple"
        },
        {
          "indexed": true,
          "internalType": "address",
          "name": "_walletAddress",
          "type": "address"
        }
      ],
      "name": "UserEvent",
      "type": "event"
    },
    {
      "inputs": [],
      "name": "owner",
      "outputs": [
        {
          "internalType": "address",
          "name": "",
          "type": "address"
        }
      ],
      "stateMutability": "view",
      "type": "function",
      "constant": true
    },
    {
      "inputs": [
        {
          "internalType": "address",
          "name": "",
          "type": "address"
        }
      ],
      "name": "users",
      "outputs": [
        {
          "internalType": "bytes32",
          "name": "_firstname",
          "type": "bytes32"
        },
        {
          "internalType": "bytes32",
          "name": "_lastname",
          "type": "bytes32"
        },
        {
          "internalType": "enum SharedChain.Roles",
          "name": "_role",
          "type": "uint8"
        },
        {
          "internalType": "address",
          "name": "_walletAddress",
          "type": "address"
        },
        {
          "internalType": "uint256",
          "name": "_timestamp",
          "type": "uint256"
        }
      ],
      "stateMutability": "view",
      "type": "function",
      "constant": true
    },
    {
      "inputs": [],
      "name": "usersCounter",
      "outputs": [
        {
          "internalType": "uint256",
          "name": "",
          "type": "uint256"
        }
      ],
      "stateMutability": "view",
      "type": "function",
      "constant": true
    },
    {
      "inputs": [
        {
          "internalType": "bytes32",
          "name": "_firstname",
          "type": "bytes32"
        },
        {
          "internalType": "bytes32",
          "name": "_lastname",
          "type": "bytes32"
        },
        {
          "internalType": "uint256",
          "name": "_role",
          "type": "uint256"
        },
        {
          "internalType": "address",
          "name": "_walletAddress",
          "type": "address"
        }
      ],
      "name": "registerUser",
      "outputs": [],
      "stateMutability": "nonpayable",
      "type": "function"
    },
    {
      "inputs": [
        {
          "internalType": "uint256",
          "name": "_role",
          "type": "uint256"
        },
        {
          "internalType": "address",
          "name": "_walletAddress",
          "type": "address"
        }
      ],
      "name": "changeUserRole",
      "outputs": [],
      "stateMutability": "nonpayable",
      "type": "function"
    },
    {
      "inputs": [],
      "name": "getAllUsers",
      "outputs": [
        {
          "components": [
            {
              "internalType": "bytes32",
              "name": "_firstname",
              "type": "bytes32"
            },
            {
              "internalType": "bytes32",
              "name": "_lastname",
              "type": "bytes32"
            },
            {
              "internalType": "enum SharedChain.Roles",
              "name": "_role",
              "type": "uint8"
            },
            {
              "internalType": "address",
              "name": "_walletAddress",
              "type": "address"
            },
            {
              "internalType": "uint256",
              "name": "_timestamp",
              "type": "uint256"
            }
          ],
          "internalType": "struct SharedChain.User[]",
          "name": "",
          "type": "tuple[]"
        }
      ],
      "stateMutability": "view",
      "type": "function",
      "constant": true
    },
    {
      "inputs": [
        {
          "internalType": "address",
          "name": "_walletAddress",
          "type": "address"
        }
      ],
      "name": "getUserInfo",
      "outputs": [
        {
          "components": [
            {
              "internalType": "bytes32",
              "name": "_firstname",
              "type": "bytes32"
            },
            {
              "internalType": "bytes32",
              "name": "_lastname",
              "type": "bytes32"
            },
            {
              "internalType": "enum SharedChain.Roles",
              "name": "_role",
              "type": "uint8"
            },
            {
              "internalType": "address",
              "name": "_walletAddress",
              "type": "address"
            },
            {
              "internalType": "uint256",
              "name": "_timestamp",
              "type": "uint256"
            }
          ],
          "internalType": "struct SharedChain.User",
          "name": "",
          "type": "tuple"
        }
      ],
      "stateMutability": "view",
      "type": "function",
      "constant": true
    }
  ],
  "bytecode": "0x6080604052336000806101000a81548173ffffffffffffffffffffffffffffffffffffffff021916908373ffffffffffffffffffffffffffffffffffffffff160217905550600060025534801561005557600080fd5b5061143f806100656000396000f3fe608060405234801561001057600080fd5b506004361061007d5760003560e01c8063910097861161005b57806391009786146100ec578063a87430ba14610108578063d67b1b991461013c578063e2842d791461015a5761007d565b80633000d7f9146100825780636386c1c71461009e5780638da5cb5b146100ce575b600080fd5b61009c60048036038101906100979190610cd9565b610178565b005b6100b860048036038101906100b39190610d40565b6104bb565b6040516100c59190610e79565b60405180910390f35b6100d6610693565b6040516100e39190610ea3565b60405180910390f35b61010660048036038101906101019190610ebe565b6106b7565b005b610122600480360381019061011d9190610d40565b610898565b604051610133959493929190610f2b565b60405180910390f35b6101446108fb565b6040516101519190610f7e565b60405180910390f35b610162610901565b60405161016f91906110b0565b60405180910390f35b8073ffffffffffffffffffffffffffffffffffffffff16600073ffffffffffffffffffffffffffffffffffffffff1614156101e8576040517f08c379a00000000000000000000000000000000000000000000000000000000081526004016101df9061112f565b60405180910390fd5b3373ffffffffffffffffffffffffffffffffffffffff1660008054906101000a900473ffffffffffffffffffffffffffffffffffffffff1673ffffffffffffffffffffffffffffffffffffffff1614610276576040517f08c379a000000000000000000000000000000000000000000000000000000000815260040161026d9061119b565b60405180910390fd5b6040518060a001604052808581526020018481526020018360038111156102a05761029f610d7c565b5b60038111156102b2576102b1610d7c565b5b81526020018273ffffffffffffffffffffffffffffffffffffffff16815260200142815250600160008373ffffffffffffffffffffffffffffffffffffffff1673ffffffffffffffffffffffffffffffffffffffff168152602001908152602001600020600082015181600001556020820151816001015560408201518160020160006101000a81548160ff0219169083600381111561035557610354610d7c565b5b021790555060608201518160020160016101000a81548173ffffffffffffffffffffffffffffffffffffffff021916908373ffffffffffffffffffffffffffffffffffffffff160217905550608082015181600301559050508073ffffffffffffffffffffffffffffffffffffffff167ff751778eb32087df58f173035147c2eac9aac89fdc2f83b1993a198606f56db1600160008473ffffffffffffffffffffffffffffffffffffffff1673ffffffffffffffffffffffffffffffffffffffff1681526020019081526020016000206040516104329190611318565b60405180910390a26003819080600181540180825580915050600190039060005260206000200160009091909190916101000a81548173ffffffffffffffffffffffffffffffffffffffff021916908373ffffffffffffffffffffffffffffffffffffffff160217905550600260008154809291906104b090611362565b919050555050505050565b6104c3610bad565b3373ffffffffffffffffffffffffffffffffffffffff16600160003373ffffffffffffffffffffffffffffffffffffffff1673ffffffffffffffffffffffffffffffffffffffff16815260200190815260200160002060020160019054906101000a900473ffffffffffffffffffffffffffffffffffffffff1673ffffffffffffffffffffffffffffffffffffffff1614610593576040517f08c379a000000000000000000000000000000000000000000000000000000000815260040161058a9061119b565b60405180910390fd5b600160008373ffffffffffffffffffffffffffffffffffffffff1673ffffffffffffffffffffffffffffffffffffffff1681526020019081526020016000206040518060a001604052908160008201548152602001600182015481526020016002820160009054906101000a900460ff16600381111561061657610615610d7c565b5b600381111561062857610627610d7c565b5b81526020016002820160019054906101000a900473ffffffffffffffffffffffffffffffffffffffff1673ffffffffffffffffffffffffffffffffffffffff1673ffffffffffffffffffffffffffffffffffffffff1681526020016003820154815250509050919050565b60008054906101000a900473ffffffffffffffffffffffffffffffffffffffff1681565b3373ffffffffffffffffffffffffffffffffffffffff1660008054906101000a900473ffffffffffffffffffffffffffffffffffffffff1673ffffffffffffffffffffffffffffffffffffffff1614610745576040517f08c379a000000000000000000000000000000000000000000000000000000000815260040161073c9061119b565b60405180910390fd5b81600381111561075857610757610d7c565b5b600160008373ffffffffffffffffffffffffffffffffffffffff1673ffffffffffffffffffffffffffffffffffffffff16815260200190815260200160002060020160006101000a81548160ff021916908360038111156107bc576107bb610d7c565b5b021790555042600160008373ffffffffffffffffffffffffffffffffffffffff1673ffffffffffffffffffffffffffffffffffffffff168152602001908152602001600020600301819055508073ffffffffffffffffffffffffffffffffffffffff167ff751778eb32087df58f173035147c2eac9aac89fdc2f83b1993a198606f56db1600160008473ffffffffffffffffffffffffffffffffffffffff1673ffffffffffffffffffffffffffffffffffffffff16815260200190815260200160002060405161088c9190611318565b60405180910390a25050565b60016020528060005260406000206000915090508060000154908060010154908060020160009054906101000a900460ff16908060020160019054906101000a900473ffffffffffffffffffffffffffffffffffffffff16908060030154905085565b60025481565b60603373ffffffffffffffffffffffffffffffffffffffff16600073ffffffffffffffffffffffffffffffffffffffff16148061098a57503373ffffffffffffffffffffffffffffffffffffffff1660008054906101000a900473ffffffffffffffffffffffffffffffffffffffff1673ffffffffffffffffffffffffffffffffffffffff1614155b156109ca576040517f08c379a00000000000000000000000000000000000000000000000000000000081526004016109c19061119b565b60405180910390fd5b600060025467ffffffffffffffff8111156109e8576109e76113ab565b5b604051908082528060200260200182016040528015610a2157816020015b610a0e610bad565b815260200190600190039081610a065790505b50905060005b600254811015610ba557600060038281548110610a4757610a466113da565b5b9060005260206000200160009054906101000a900473ffffffffffffffffffffffffffffffffffffffff1690506000600160008373ffffffffffffffffffffffffffffffffffffffff1673ffffffffffffffffffffffffffffffffffffffff1681526020019081526020016000209050806040518060a001604052908160008201548152602001600182015481526020016002820160009054906101000a900460ff166003811115610afc57610afb610d7c565b5b6003811115610b0e57610b0d610d7c565b5b81526020016002820160019054906101000a900473ffffffffffffffffffffffffffffffffffffffff1673ffffffffffffffffffffffffffffffffffffffff1673ffffffffffffffffffffffffffffffffffffffff168152602001600382015481525050848481518110610b8557610b846113da565b5b602002602001018190525050508080610b9d90611362565b915050610a27565b508091505090565b6040518060a00160405280600080191681526020016000801916815260200160006003811115610be057610bdf610d7c565b5b8152602001600073ffffffffffffffffffffffffffffffffffffffff168152602001600081525090565b600080fd5b6000819050919050565b610c2281610c0f565b8114610c2d57600080fd5b50565b600081359050610c3f81610c19565b92915050565b6000819050919050565b610c5881610c45565b8114610c6357600080fd5b50565b600081359050610c7581610c4f565b92915050565b600073ffffffffffffffffffffffffffffffffffffffff82169050919050565b6000610ca682610c7b565b9050919050565b610cb681610c9b565b8114610cc157600080fd5b50565b600081359050610cd381610cad565b92915050565b60008060008060808587031215610cf357610cf2610c0a565b5b6000610d0187828801610c30565b9450506020610d1287828801610c30565b9350506040610d2387828801610c66565b9250506060610d3487828801610cc4565b91505092959194509250565b600060208284031215610d5657610d55610c0a565b5b6000610d6484828501610cc4565b91505092915050565b610d7681610c0f565b82525050565b7f4e487b7100000000000000000000000000000000000000000000000000000000600052602160045260246000fd5b60048110610dbc57610dbb610d7c565b5b50565b6000819050610dcd82610dab565b919050565b6000610ddd82610dbf565b9050919050565b610ded81610dd2565b82525050565b610dfc81610c9b565b82525050565b610e0b81610c45565b82525050565b60a082016000820151610e276000850182610d6d565b506020820151610e3a6020850182610d6d565b506040820151610e4d6040850182610de4565b506060820151610e606060850182610df3565b506080820151610e736080850182610e02565b50505050565b600060a082019050610e8e6000830184610e11565b92915050565b610e9d81610c9b565b82525050565b6000602082019050610eb86000830184610e94565b92915050565b60008060408385031215610ed557610ed4610c0a565b5b6000610ee385828601610c66565b9250506020610ef485828601610cc4565b9150509250929050565b610f0781610c0f565b82525050565b610f1681610dd2565b82525050565b610f2581610c45565b82525050565b600060a082019050610f406000830188610efe565b610f4d6020830187610efe565b610f5a6040830186610f0d565b610f676060830185610e94565b610f746080830184610f1c565b9695505050505050565b6000602082019050610f936000830184610f1c565b92915050565b600081519050919050565b600082825260208201905092915050565b6000819050602082019050919050565b60a082016000820151610fdb6000850182610d6d565b506020820151610fee6020850182610d6d565b5060408201516110016040850182610de4565b5060608201516110146060850182610df3565b5060808201516110276080850182610e02565b50505050565b60006110398383610fc5565b60a08301905092915050565b6000602082019050919050565b600061105d82610f99565b6110678185610fa4565b935061107283610fb5565b8060005b838110156110a357815161108a888261102d565b975061109583611045565b925050600181019050611076565b5085935050505092915050565b600060208201905081810360008301526110ca8184611052565b905092915050565b600082825260208201905092915050565b7f41646472657373206973206e6f742076616c69642e0000000000000000000000600082015250565b60006111196015836110d2565b9150611124826110e3565b602082019050919050565b600060208201905081810360008301526111488161110c565b9050919050565b7f596f7520617265206e6f742074686520726967687420757365722e0000000000600082015250565b6000611185601b836110d2565b91506111908261114f565b602082019050919050565b600060208201905081810360008301526111b481611178565b9050919050565b60008160001c9050919050565b6000819050919050565b60006111e56111e0836111bb565b6111c8565b9050919050565b600060ff82169050919050565b600061120c611207836111bb565b6111ec565b9050919050565b60008160081c9050919050565b600073ffffffffffffffffffffffffffffffffffffffff82169050919050565b600061125361124e83611213565b611220565b9050919050565b6000819050919050565b6000611277611272836111bb565b61125a565b9050919050565b60a082016000808301549050611293816111d2565b6112a06000860182610d6d565b50600183015490506112b1816111d2565b6112be6020860182610d6d565b50600283015490506112cf816111f9565b6112dc6040860182610de4565b506112e681611240565b6112f36060860182610df3565b506003830154905061130481611264565b6113116080860182610e02565b5050505050565b600060a08201905061132d600083018461127e565b92915050565b7f4e487b7100000000000000000000000000000000000000000000000000000000600052601160045260246000fd5b600061136d82610c45565b91507fffffffffffffffffffffffffffffffffffffffffffffffffffffffffffffffff8214156113a05761139f611333565b5b600182019050919050565b7f4e487b7100000000000000000000000000000000000000000000000000000000600052604160045260246000fd5b7f4e487b7100000000000000000000000000000000000000000000000000000000600052603260045260246000fdfea2646970667358221220c485b2d5a9b3bca48745ed5666caf73de73141357052d1a80975cdabc40ffc4664736f6c634300080a0033",
  "immutableReferences": {},
  "source": "// SPDX-License-Identifier: MIT\r\npragma solidity >=0.8.0 <0.9.0;\r\n\r\nimport './SharedChain.sol';\r\n\r\ncontract UserChain is SharedChain {\r\n    address public owner = msg.sender;\r\n\r\n    mapping(address => User) public users;\r\n    uint256 public usersCounter = 0;\r\n    address[] usersAddress;\r\n\r\n    constructor() {}\r\n\r\n    function registerUser(\r\n        bytes32 _firstname,\r\n        bytes32 _lastname,\r\n        uint256 _role,\r\n        address _walletAddress\r\n    ) public {\r\n        require(address(0x0) != _walletAddress, \"Address is not valid.\");\r\n        if (owner != msg.sender) revert(\"You are not the right user.\");\r\n\r\n        users[_walletAddress] = User(\r\n            _firstname, _lastname,\r\n            Roles(_role), _walletAddress, block.timestamp\r\n        );\r\n\r\n        emit UserEvent(users[_walletAddress], _walletAddress);\r\n        usersAddress.push(_walletAddress);\r\n        usersCounter++;\r\n    }\r\n\r\n    function changeUserRole(uint256 _role, address _walletAddress) public {\r\n        if (owner != msg.sender) revert(\"You are not the right user.\");\r\n\r\n        users[_walletAddress]._role = Roles(_role);\r\n        users[_walletAddress]._timestamp = block.timestamp;\r\n        emit UserEvent(users[_walletAddress], _walletAddress);\r\n    }\r\n\r\n    function getAllUsers() public view returns(User[] memory) {\r\n        if (address(0x0) == msg.sender || owner != msg.sender) revert(\"You are not the right user.\");\r\n\r\n        User[] memory allUsers = new User[](usersCounter);\r\n        for (uint256 index = 0; index < usersCounter; index++) {\r\n            address _walletAddress = usersAddress[index];\r\n            User storage user = users[_walletAddress];\r\n            allUsers[index] = user;\r\n        }\r\n        return allUsers;\r\n    }\r\n\r\n    function getUserInfo(address _walletAddress) public view returns (User memory) {\r\n        if (users[msg.sender]._walletAddress != msg.sender) revert(\"You are not the right user.\");\r\n        return users[_walletAddress];\r\n    }\r\n}\r\n",
  "sourcePath": "/mnt/c/Users/Beniamin/source/repos/DissertationProject/contracts/UserChain.sol",
  "compiler": {
    "name": "solc",
    "version": "0.8.10+commit.fc410830.Emscripten.clang"
  },
  "schemaVersion": "3.4.3",
  "updatedAt": "2021-12-15T20:51:08.632Z",
  "networkType": "ethereum",
  "devdoc": {
    "kind": "dev",
    "methods": {},
    "version": 1
  },
  "userdoc": {
    "kind": "user",
    "methods": {},
    "version": 1
  }
}