{
  "contractName": "User",
  "abi": [
    {
      "inputs": [],
      "stateMutability": "nonpayable",
      "type": "constructor"
    },
    {
      "anonymous": false,
      "inputs": [
        {
          "indexed": true,
          "internalType": "address",
          "name": "_address",
          "type": "address"
        },
        {
          "indexed": false,
          "internalType": "string",
          "name": "_username",
          "type": "string"
        }
      ],
      "name": "UserRegistered",
      "type": "event"
    },
    {
      "inputs": [],
      "name": "owner",
      "outputs": [
        {
          "internalType": "address",
          "name": "",
          "type": "address"
        }
      ],
      "stateMutability": "view",
      "type": "function"
    },
    {
      "inputs": [
        {
          "internalType": "address",
          "name": "",
          "type": "address"
        }
      ],
      "name": "userInfo",
      "outputs": [
        {
          "internalType": "string",
          "name": "username",
          "type": "string"
        },
        {
          "internalType": "enum User.Roles",
          "name": "role",
          "type": "uint8"
        },
        {
          "internalType": "address",
          "name": "userAddress",
          "type": "address"
        }
      ],
      "stateMutability": "view",
      "type": "function"
    },
    {
      "inputs": [
        {
          "internalType": "string",
          "name": "_username",
          "type": "string"
        },
        {
          "internalType": "uint256",
          "name": "_role",
          "type": "uint256"
        },
        {
          "internalType": "address",
          "name": "_userAddress",
          "type": "address"
        }
      ],
      "name": "registerUser",
      "outputs": [],
      "stateMutability": "nonpayable",
      "type": "function"
    },
    {
      "inputs": [
        {
          "internalType": "uint256",
          "name": "_role",
          "type": "uint256"
        },
        {
          "internalType": "address",
          "name": "_userAddress",
          "type": "address"
        }
      ],
      "name": "changeUserRole",
      "outputs": [
        {
          "internalType": "string",
          "name": "",
          "type": "string"
        }
      ],
      "stateMutability": "nonpayable",
      "type": "function"
    },
    {
      "inputs": [
        {
          "internalType": "address",
          "name": "_userAddress",
          "type": "address"
        }
      ],
      "name": "getUserInfo",
      "outputs": [
        {
          "components": [
            {
              "internalType": "string",
              "name": "username",
              "type": "string"
            },
            {
              "internalType": "enum User.Roles",
              "name": "role",
              "type": "uint8"
            },
            {
              "internalType": "address",
              "name": "userAddress",
              "type": "address"
            }
          ],
          "internalType": "struct User.S_UserData",
          "name": "",
          "type": "tuple"
        }
      ],
      "stateMutability": "view",
      "type": "function"
    },
    {
      "inputs": [],
      "name": "getUser",
      "outputs": [
        {
          "internalType": "string",
          "name": "",
          "type": "string"
        }
      ],
      "stateMutability": "view",
      "type": "function"
    }
  ],
  "bytecode": "0x608060405234801561001057600080fd5b5033600160006101000a81548173ffffffffffffffffffffffffffffffffffffffff021916908373ffffffffffffffffffffffffffffffffffffffff160217905550610fc9806100616000396000f3fe608060405234801561001057600080fd5b50600436106100625760003560e01c80631959a002146100675780636386c1c714610099578063832880e7146100c95780638da5cb5b146100e75780639100978614610105578063da2e15ab14610135575b600080fd5b610081600480360381019061007c9190610a0b565b610151565b60405161009093929190610b57565b60405180910390f35b6100b360048036038101906100ae9190610a0b565b610230565b6040516100c09190610c4d565b60405180910390f35b6100d161043b565b6040516100de9190610c6f565b60405180910390f35b6100ef610508565b6040516100fc9190610c91565b60405180910390f35b61011f600480360381019061011a9190610ce2565b61052e565b60405161012c9190610c6f565b60405180910390f35b61014f600480360381019061014a9190610e57565b610679565b005b600060205280600052604060002060009150905080600001805461017490610ef5565b80601f01602080910402602001604051908101604052809291908181526020018280546101a090610ef5565b80156101ed5780601f106101c2576101008083540402835291602001916101ed565b820191906000526020600020905b8154815290600101906020018083116101d057829003601f168201915b5050505050908060010160009054906101000a900460ff16908060010160019054906101000a900473ffffffffffffffffffffffffffffffffffffffff16905083565b6102386108ad565b3373ffffffffffffffffffffffffffffffffffffffff16600160009054906101000a900473ffffffffffffffffffffffffffffffffffffffff1673ffffffffffffffffffffffffffffffffffffffff16146102c8576040517f08c379a00000000000000000000000000000000000000000000000000000000081526004016102bf90610f73565b60405180910390fd5b6000808373ffffffffffffffffffffffffffffffffffffffff1673ffffffffffffffffffffffffffffffffffffffff16815260200190815260200160002060405180606001604052908160008201805461032190610ef5565b80601f016020809104026020016040519081016040528092919081815260200182805461034d90610ef5565b801561039a5780601f1061036f5761010080835404028352916020019161039a565b820191906000526020600020905b81548152906001019060200180831161037d57829003601f168201915b505050505081526020016001820160009054906101000a900460ff1660038111156103c8576103c7610ad1565b5b60038111156103da576103d9610ad1565b5b81526020016001820160019054906101000a900473ffffffffffffffffffffffffffffffffffffffff1673ffffffffffffffffffffffffffffffffffffffff1673ffffffffffffffffffffffffffffffffffffffff16815250509050919050565b60603373ffffffffffffffffffffffffffffffffffffffff16600160009054906101000a900473ffffffffffffffffffffffffffffffffffffffff1673ffffffffffffffffffffffffffffffffffffffff16146104cd576040517f08c379a00000000000000000000000000000000000000000000000000000000081526004016104c490610f73565b60405180910390fd5b6040518060400160405280600881526020017f42656e69616d696e000000000000000000000000000000000000000000000000815250905090565b600160009054906101000a900473ffffffffffffffffffffffffffffffffffffffff1681565b60603373ffffffffffffffffffffffffffffffffffffffff16600160009054906101000a900473ffffffffffffffffffffffffffffffffffffffff1673ffffffffffffffffffffffffffffffffffffffff16146105c0576040517f08c379a00000000000000000000000000000000000000000000000000000000081526004016105b790610f73565b60405180910390fd5b8260038111156105d3576105d2610ad1565b5b6000808473ffffffffffffffffffffffffffffffffffffffff1673ffffffffffffffffffffffffffffffffffffffff16815260200190815260200160002060010160006101000a81548160ff0219169083600381111561063657610635610ad1565b5b02179055506040518060400160405280600d81526020017f526f6c6520557064617465642100000000000000000000000000000000000000815250905092915050565b3373ffffffffffffffffffffffffffffffffffffffff16600160009054906101000a900473ffffffffffffffffffffffffffffffffffffffff1673ffffffffffffffffffffffffffffffffffffffff1614610709576040517f08c379a000000000000000000000000000000000000000000000000000000000815260040161070090610f73565b60405180910390fd5b826000808373ffffffffffffffffffffffffffffffffffffffff1673ffffffffffffffffffffffffffffffffffffffff168152602001908152602001600020600001908051906020019061075e9291906108f6565b5081600381111561077257610771610ad1565b5b6000808373ffffffffffffffffffffffffffffffffffffffff1673ffffffffffffffffffffffffffffffffffffffff16815260200190815260200160002060010160006101000a81548160ff021916908360038111156107d5576107d4610ad1565b5b0217905550806000808373ffffffffffffffffffffffffffffffffffffffff1673ffffffffffffffffffffffffffffffffffffffff16815260200190815260200160002060010160016101000a81548173ffffffffffffffffffffffffffffffffffffffff021916908373ffffffffffffffffffffffffffffffffffffffff1602179055508073ffffffffffffffffffffffffffffffffffffffff167f48cac28ad4dc618e15f4c2dd5e97751182f166de97b25618318b2112aa951a2f846040516108a09190610c6f565b60405180910390a2505050565b604051806060016040528060608152602001600060038111156108d3576108d2610ad1565b5b8152602001600073ffffffffffffffffffffffffffffffffffffffff1681525090565b82805461090290610ef5565b90600052602060002090601f016020900481019282610924576000855561096b565b82601f1061093d57805160ff191683800117855561096b565b8280016001018555821561096b579182015b8281111561096a57825182559160200191906001019061094f565b5b509050610978919061097c565b5090565b5b8082111561099557600081600090555060010161097d565b5090565b6000604051905090565b600080fd5b600080fd5b600073ffffffffffffffffffffffffffffffffffffffff82169050919050565b60006109d8826109ad565b9050919050565b6109e8816109cd565b81146109f357600080fd5b50565b600081359050610a05816109df565b92915050565b600060208284031215610a2157610a206109a3565b5b6000610a2f848285016109f6565b91505092915050565b600081519050919050565b600082825260208201905092915050565b60005b83811015610a72578082015181840152602081019050610a57565b83811115610a81576000848401525b50505050565b6000601f19601f8301169050919050565b6000610aa382610a38565b610aad8185610a43565b9350610abd818560208601610a54565b610ac681610a87565b840191505092915050565b7f4e487b7100000000000000000000000000000000000000000000000000000000600052602160045260246000fd5b60048110610b1157610b10610ad1565b5b50565b6000819050610b2282610b00565b919050565b6000610b3282610b14565b9050919050565b610b4281610b27565b82525050565b610b51816109cd565b82525050565b60006060820190508181036000830152610b718186610a98565b9050610b806020830185610b39565b610b8d6040830184610b48565b949350505050565b600082825260208201905092915050565b6000610bb182610a38565b610bbb8185610b95565b9350610bcb818560208601610a54565b610bd481610a87565b840191505092915050565b610be881610b27565b82525050565b610bf7816109cd565b82525050565b60006060830160008301518482036000860152610c1a8282610ba6565b9150506020830151610c2f6020860182610bdf565b506040830151610c426040860182610bee565b508091505092915050565b60006020820190508181036000830152610c678184610bfd565b905092915050565b60006020820190508181036000830152610c898184610a98565b905092915050565b6000602082019050610ca66000830184610b48565b92915050565b6000819050919050565b610cbf81610cac565b8114610cca57600080fd5b50565b600081359050610cdc81610cb6565b92915050565b60008060408385031215610cf957610cf86109a3565b5b6000610d0785828601610ccd565b9250506020610d18858286016109f6565b9150509250929050565b600080fd5b600080fd5b7f4e487b7100000000000000000000000000000000000000000000000000000000600052604160045260246000fd5b610d6482610a87565b810181811067ffffffffffffffff82111715610d8357610d82610d2c565b5b80604052505050565b6000610d96610999565b9050610da28282610d5b565b919050565b600067ffffffffffffffff821115610dc257610dc1610d2c565b5b610dcb82610a87565b9050602081019050919050565b82818337600083830152505050565b6000610dfa610df584610da7565b610d8c565b905082815260208101848484011115610e1657610e15610d27565b5b610e21848285610dd8565b509392505050565b600082601f830112610e3e57610e3d610d22565b5b8135610e4e848260208601610de7565b91505092915050565b600080600060608486031215610e7057610e6f6109a3565b5b600084013567ffffffffffffffff811115610e8e57610e8d6109a8565b5b610e9a86828701610e29565b9350506020610eab86828701610ccd565b9250506040610ebc868287016109f6565b9150509250925092565b7f4e487b7100000000000000000000000000000000000000000000000000000000600052602260045260246000fd5b60006002820490506001821680610f0d57607f821691505b60208210811415610f2157610f20610ec6565b5b50919050565b7f596f7520617265206e6f7420616e206f776e6572000000000000000000000000600082015250565b6000610f5d601483610a43565b9150610f6882610f27565b602082019050919050565b60006020820190508181036000830152610f8c81610f50565b905091905056fea264697066735822122025441d2f2c7c2047084deeb9e42f419732fb23392bf59f493044f590a8c9cbc164736f6c63430008090033",
  "immutableReferences": {},
  "source": "// SPDX-License-Identifier: MIT\r\npragma solidity >=0.8.0 <0.9.0;\r\n\r\ncontract User {\r\n\r\n    mapping(address => S_UserData) public userInfo;\r\n    address public owner;\r\n\r\n    struct S_UserData {\r\n        string username;\r\n        Roles role;\r\n        address userAddress;\r\n    }\r\n\r\n    enum Roles {\r\n        DefaultRole,\r\n        ProjectInitiator,\r\n        CompanyBuilder,\r\n        ProjectSupervisor\r\n    }\r\n\r\n    event UserRegistered(address indexed _address, string _username);\r\n\r\n    constructor() {\r\n        owner = msg.sender;\r\n    }\r\n\r\n    modifier onlyOwner() {\r\n        require(owner == msg.sender, \"You are not an owner\");\r\n        _;\r\n    }\r\n\r\n    modifier checkUser(address _address) {\r\n        require(_address == msg.sender, \"Address\");\r\n        _;\r\n    }\r\n\r\n    function registerUser(string memory _username, uint _role, address _userAddress) public onlyOwner {\r\n        userInfo[_userAddress].username = _username;\r\n        userInfo[_userAddress].role = Roles(_role);\r\n        userInfo[_userAddress].userAddress = _userAddress;\r\n        emit UserRegistered(_userAddress, _username);\r\n    }\r\n\r\n    function changeUserRole(uint _role, address _userAddress) public onlyOwner returns(string memory) {\r\n        userInfo[_userAddress].role = Roles(_role);\r\n        return \"Role Updated!\";\r\n    }\r\n\r\n    function getUserInfo(address _userAddress) external view onlyOwner returns(S_UserData memory) {\r\n        return userInfo[_userAddress];\r\n    }\r\n\r\n    function getUser() public view onlyOwner returns(string memory) {\r\n        return \"Beniamin\";\r\n    }\r\n}\r\n",
  "sourcePath": "/mnt/c/users/beniamin/source/repos/dissertationproject/contracts/User.sol",
  "compiler": {
    "name": "solc",
    "version": "0.8.9+commit.e5eed63a.Emscripten.clang"
  },
  "schemaVersion": "3.4.3",
  "updatedAt": "2021-11-05T20:41:04.102Z",
  "devdoc": {
    "kind": "dev",
    "methods": {},
    "version": 1
  },
  "userdoc": {
    "kind": "user",
    "methods": {},
    "version": 1
  }
}