{
  "contractName": "UserChain",
  "abi": [
    {
      "inputs": [],
      "stateMutability": "nonpayable",
      "type": "constructor"
    },
    {
      "anonymous": false,
      "inputs": [
        {
          "indexed": true,
          "internalType": "address",
          "name": "_walletAddress",
          "type": "address"
        },
        {
          "indexed": true,
          "internalType": "string",
          "name": "_username",
          "type": "string"
        },
        {
          "indexed": false,
          "internalType": "bytes32",
          "name": "_email",
          "type": "bytes32"
        },
        {
          "indexed": false,
          "internalType": "bytes32",
          "name": "_firstname",
          "type": "bytes32"
        },
        {
          "indexed": false,
          "internalType": "bytes32",
          "name": "_lastname",
          "type": "bytes32"
        },
        {
          "indexed": true,
          "internalType": "enum UserChain.Roles",
          "name": "_role",
          "type": "uint8"
        }
      ],
      "name": "UserEvent",
      "type": "event"
    },
    {
      "inputs": [
        {
          "internalType": "uint256",
          "name": "",
          "type": "uint256"
        }
      ],
      "name": "allUsers",
      "outputs": [
        {
          "internalType": "uint256",
          "name": "_index",
          "type": "uint256"
        },
        {
          "internalType": "string",
          "name": "_username",
          "type": "string"
        },
        {
          "internalType": "bytes32",
          "name": "_email",
          "type": "bytes32"
        },
        {
          "internalType": "bytes32",
          "name": "_firstname",
          "type": "bytes32"
        },
        {
          "internalType": "bytes32",
          "name": "_lastname",
          "type": "bytes32"
        },
        {
          "internalType": "enum UserChain.Roles",
          "name": "_role",
          "type": "uint8"
        },
        {
          "internalType": "address",
          "name": "_walletAddress",
          "type": "address"
        }
      ],
      "stateMutability": "view",
      "type": "function"
    },
    {
      "inputs": [],
      "name": "owner",
      "outputs": [
        {
          "internalType": "address",
          "name": "",
          "type": "address"
        }
      ],
      "stateMutability": "view",
      "type": "function"
    },
    {
      "inputs": [
        {
          "internalType": "address",
          "name": "",
          "type": "address"
        }
      ],
      "name": "users",
      "outputs": [
        {
          "internalType": "uint256",
          "name": "_index",
          "type": "uint256"
        },
        {
          "internalType": "string",
          "name": "_username",
          "type": "string"
        },
        {
          "internalType": "bytes32",
          "name": "_email",
          "type": "bytes32"
        },
        {
          "internalType": "bytes32",
          "name": "_firstname",
          "type": "bytes32"
        },
        {
          "internalType": "bytes32",
          "name": "_lastname",
          "type": "bytes32"
        },
        {
          "internalType": "enum UserChain.Roles",
          "name": "_role",
          "type": "uint8"
        },
        {
          "internalType": "address",
          "name": "_walletAddress",
          "type": "address"
        }
      ],
      "stateMutability": "view",
      "type": "function"
    },
    {
      "inputs": [],
      "name": "usersCounter",
      "outputs": [
        {
          "internalType": "uint256",
          "name": "",
          "type": "uint256"
        }
      ],
      "stateMutability": "view",
      "type": "function"
    },
    {
      "inputs": [
        {
          "internalType": "string",
          "name": "_username",
          "type": "string"
        },
        {
          "internalType": "bytes32",
          "name": "_email",
          "type": "bytes32"
        },
        {
          "internalType": "bytes32",
          "name": "_firstname",
          "type": "bytes32"
        },
        {
          "internalType": "bytes32",
          "name": "_lastname",
          "type": "bytes32"
        },
        {
          "internalType": "uint256",
          "name": "_role",
          "type": "uint256"
        },
        {
          "internalType": "address",
          "name": "_walletAddress",
          "type": "address"
        }
      ],
      "name": "registerUser",
      "outputs": [],
      "stateMutability": "nonpayable",
      "type": "function"
    },
    {
      "inputs": [
        {
          "internalType": "uint256",
          "name": "_role",
          "type": "uint256"
        },
        {
          "internalType": "address",
          "name": "_walletAddress",
          "type": "address"
        }
      ],
      "name": "changeUserRole",
      "outputs": [],
      "stateMutability": "nonpayable",
      "type": "function"
    },
    {
      "inputs": [],
      "name": "getAllUsers",
      "outputs": [
        {
          "components": [
            {
              "internalType": "uint256",
              "name": "_index",
              "type": "uint256"
            },
            {
              "internalType": "string",
              "name": "_username",
              "type": "string"
            },
            {
              "internalType": "bytes32",
              "name": "_email",
              "type": "bytes32"
            },
            {
              "internalType": "bytes32",
              "name": "_firstname",
              "type": "bytes32"
            },
            {
              "internalType": "bytes32",
              "name": "_lastname",
              "type": "bytes32"
            },
            {
              "internalType": "enum UserChain.Roles",
              "name": "_role",
              "type": "uint8"
            },
            {
              "internalType": "address",
              "name": "_walletAddress",
              "type": "address"
            }
          ],
          "internalType": "struct UserChain.User[]",
          "name": "",
          "type": "tuple[]"
        }
      ],
      "stateMutability": "view",
      "type": "function"
    },
    {
      "inputs": [
        {
          "internalType": "address",
          "name": "_walletAddress",
          "type": "address"
        }
      ],
      "name": "getUserInfo",
      "outputs": [
        {
          "components": [
            {
              "internalType": "uint256",
              "name": "_index",
              "type": "uint256"
            },
            {
              "internalType": "string",
              "name": "_username",
              "type": "string"
            },
            {
              "internalType": "bytes32",
              "name": "_email",
              "type": "bytes32"
            },
            {
              "internalType": "bytes32",
              "name": "_firstname",
              "type": "bytes32"
            },
            {
              "internalType": "bytes32",
              "name": "_lastname",
              "type": "bytes32"
            },
            {
              "internalType": "enum UserChain.Roles",
              "name": "_role",
              "type": "uint8"
            },
            {
              "internalType": "address",
              "name": "_walletAddress",
              "type": "address"
            }
          ],
          "internalType": "struct UserChain.User",
          "name": "",
          "type": "tuple"
        }
      ],
      "stateMutability": "view",
      "type": "function"
    }
  ],
  "bytecode": "0x6080604052600060035534801561001557600080fd5b50336000806101000a81548173ffffffffffffffffffffffffffffffffffffffff021916908373ffffffffffffffffffffffffffffffffffffffff160217905550611ae4806100656000396000f3fe608060405234801561001057600080fd5b50600436106100885760003560e01c8063a87430ba1161005b578063a87430ba1461012d578063cf13f5d414610163578063d67b1b991461017f578063e2842d791461019d57610088565b80636386c1c71461008d5780638da5cb5b146100bd57806391009786146100db578063a2bdedf4146100f7575b600080fd5b6100a760048036038101906100a29190611074565b6101bb565b6040516100b4919061128e565b60405180910390f35b6100c561035f565b6040516100d291906112bf565b60405180910390f35b6100f560048036038101906100f09190611306565b610383565b005b610111600480360381019061010c9190611346565b61063e565b60405161012497969594939291906113ea565b60405180910390f35b61014760048036038101906101429190611074565b610745565b60405161015a97969594939291906113ea565b60405180910390f35b61017d600480360381019061017891906115c1565b61083c565b005b610187610d41565b604051610194919061166a565b60405180910390f35b6101a5610d47565b6040516101b291906117e3565b60405180910390f35b6101c3610ef1565b600160008373ffffffffffffffffffffffffffffffffffffffff1673ffffffffffffffffffffffffffffffffffffffff1681526020019081526020016000206040518060e00160405290816000820154815260200160018201805461022790611834565b80601f016020809104026020016040519081016040528092919081815260200182805461025390611834565b80156102a05780601f10610275576101008083540402835291602001916102a0565b820191906000526020600020905b81548152906001019060200180831161028357829003601f168201915b505050505081526020016002820154815260200160038201548152602001600482015481526020016005820160009054906101000a900460ff1660038111156102ec576102eb61116c565b5b60038111156102fe576102fd61116c565b5b81526020016005820160019054906101000a900473ffffffffffffffffffffffffffffffffffffffff1673ffffffffffffffffffffffffffffffffffffffff1673ffffffffffffffffffffffffffffffffffffffff16815250509050919050565b60008054906101000a900473ffffffffffffffffffffffffffffffffffffffff1681565b8160038111156103965761039561116c565b5b600160008373ffffffffffffffffffffffffffffffffffffffff1673ffffffffffffffffffffffffffffffffffffffff16815260200190815260200160002060050160006101000a81548160ff021916908360038111156103fa576103f961116c565b5b02179055506000600160008373ffffffffffffffffffffffffffffffffffffffff1673ffffffffffffffffffffffffffffffffffffffff1681526020019081526020016000206000015490508260038111156104595761045861116c565b5b6002828154811061046d5761046c611866565b5b906000526020600020906006020160050160006101000a81548160ff021916908360038111156104a05761049f61116c565b5b02179055508260038111156104b8576104b761116c565b5b60038111156104ca576104c961116c565b5b600160008473ffffffffffffffffffffffffffffffffffffffff1673ffffffffffffffffffffffffffffffffffffffff1681526020019081526020016000206001016040516105199190611934565b60405180910390208373ffffffffffffffffffffffffffffffffffffffff167f2a5f7967c96cddc740f1a8ce989263f3f3c239229941ff452b1b77f79e6a6d7d600160008773ffffffffffffffffffffffffffffffffffffffff1673ffffffffffffffffffffffffffffffffffffffff16815260200190815260200160002060020154600160008873ffffffffffffffffffffffffffffffffffffffff1673ffffffffffffffffffffffffffffffffffffffff16815260200190815260200160002060030154600160008973ffffffffffffffffffffffffffffffffffffffff1673ffffffffffffffffffffffffffffffffffffffff168152602001908152602001600020600401546040516106319392919061194b565b60405180910390a4505050565b6002818154811061064e57600080fd5b906000526020600020906006020160009150905080600001549080600101805461067790611834565b80601f01602080910402602001604051908101604052809291908181526020018280546106a390611834565b80156106f05780601f106106c5576101008083540402835291602001916106f0565b820191906000526020600020905b8154815290600101906020018083116106d357829003601f168201915b5050505050908060020154908060030154908060040154908060050160009054906101000a900460ff16908060050160019054906101000a900473ffffffffffffffffffffffffffffffffffffffff16905087565b600160205280600052604060002060009150905080600001549080600101805461076e90611834565b80601f016020809104026020016040519081016040528092919081815260200182805461079a90611834565b80156107e75780601f106107bc576101008083540402835291602001916107e7565b820191906000526020600020905b8154815290600101906020018083116107ca57829003601f168201915b5050505050908060020154908060030154908060040154908060050160009054906101000a900460ff16908060050160019054906101000a900473ffffffffffffffffffffffffffffffffffffffff16905087565b3373ffffffffffffffffffffffffffffffffffffffff1660008054906101000a900473ffffffffffffffffffffffffffffffffffffffff1673ffffffffffffffffffffffffffffffffffffffff16146108ca576040517f08c379a00000000000000000000000000000000000000000000000000000000081526004016108c1906119ce565b60405180910390fd5b600354600160008373ffffffffffffffffffffffffffffffffffffffff1673ffffffffffffffffffffffffffffffffffffffff1681526020019081526020016000206000018190555085600160008373ffffffffffffffffffffffffffffffffffffffff1673ffffffffffffffffffffffffffffffffffffffff1681526020019081526020016000206001019080519060200190610969929190610f5f565b5084600160008373ffffffffffffffffffffffffffffffffffffffff1673ffffffffffffffffffffffffffffffffffffffff1681526020019081526020016000206002018190555083600160008373ffffffffffffffffffffffffffffffffffffffff1673ffffffffffffffffffffffffffffffffffffffff1681526020019081526020016000206003018190555082600160008373ffffffffffffffffffffffffffffffffffffffff1673ffffffffffffffffffffffffffffffffffffffff16815260200190815260200160002060040181905550816003811115610a5257610a5161116c565b5b600160008373ffffffffffffffffffffffffffffffffffffffff1673ffffffffffffffffffffffffffffffffffffffff16815260200190815260200160002060050160006101000a81548160ff02191690836003811115610ab657610ab561116c565b5b021790555080600160008373ffffffffffffffffffffffffffffffffffffffff1673ffffffffffffffffffffffffffffffffffffffff16815260200190815260200160002060050160016101000a81548173ffffffffffffffffffffffffffffffffffffffff021916908373ffffffffffffffffffffffffffffffffffffffff160217905550816003811115610b4f57610b4e61116c565b5b6003811115610b6157610b6061116c565b5b86604051610b6f9190611a1f565b60405180910390208273ffffffffffffffffffffffffffffffffffffffff167f2a5f7967c96cddc740f1a8ce989263f3f3c239229941ff452b1b77f79e6a6d7d888888604051610bc19392919061194b565b60405180910390a460026040518060e001604052806003548152602001888152602001878152602001868152602001858152602001846003811115610c0957610c0861116c565b5b6003811115610c1b57610c1a61116c565b5b81526020018373ffffffffffffffffffffffffffffffffffffffff168152509080600181540180825580915050600190039060005260206000209060060201600090919091909150600082015181600001556020820151816001019080519060200190610c89929190610f5f565b5060408201518160020155606082015181600301556080820151816004015560a08201518160050160006101000a81548160ff02191690836003811115610cd357610cd261116c565b5b021790555060c08201518160050160016101000a81548173ffffffffffffffffffffffffffffffffffffffff021916908373ffffffffffffffffffffffffffffffffffffffff160217905550505060036000815480929190610d3490611a65565b9190505550505050505050565b60035481565b60606002805480602002602001604051908101604052809291908181526020016000905b82821015610ee857838290600052602060002090600602016040518060e001604052908160008201548152602001600182018054610da890611834565b80601f0160208091040260200160405190810160405280929190818152602001828054610dd490611834565b8015610e215780601f10610df657610100808354040283529160200191610e21565b820191906000526020600020905b815481529060010190602001808311610e0457829003601f168201915b505050505081526020016002820154815260200160038201548152602001600482015481526020016005820160009054906101000a900460ff166003811115610e6d57610e6c61116c565b5b6003811115610e7f57610e7e61116c565b5b81526020016005820160019054906101000a900473ffffffffffffffffffffffffffffffffffffffff1673ffffffffffffffffffffffffffffffffffffffff1673ffffffffffffffffffffffffffffffffffffffff168152505081526020019060010190610d6b565b50505050905090565b6040518060e00160405280600081526020016060815260200160008019168152602001600080191681526020016000801916815260200160006003811115610f3c57610f3b61116c565b5b8152602001600073ffffffffffffffffffffffffffffffffffffffff1681525090565b828054610f6b90611834565b90600052602060002090601f016020900481019282610f8d5760008555610fd4565b82601f10610fa657805160ff1916838001178555610fd4565b82800160010185558215610fd4579182015b82811115610fd3578251825591602001919060010190610fb8565b5b509050610fe19190610fe5565b5090565b5b80821115610ffe576000816000905550600101610fe6565b5090565b6000604051905090565b600080fd5b600080fd5b600073ffffffffffffffffffffffffffffffffffffffff82169050919050565b600061104182611016565b9050919050565b61105181611036565b811461105c57600080fd5b50565b60008135905061106e81611048565b92915050565b60006020828403121561108a5761108961100c565b5b60006110988482850161105f565b91505092915050565b6000819050919050565b6110b4816110a1565b82525050565b600081519050919050565b600082825260208201905092915050565b60005b838110156110f45780820151818401526020810190506110d9565b83811115611103576000848401525b50505050565b6000601f19601f8301169050919050565b6000611125826110ba565b61112f81856110c5565b935061113f8185602086016110d6565b61114881611109565b840191505092915050565b6000819050919050565b61116681611153565b82525050565b7f4e487b7100000000000000000000000000000000000000000000000000000000600052602160045260246000fd5b600481106111ac576111ab61116c565b5b50565b60008190506111bd8261119b565b919050565b60006111cd826111af565b9050919050565b6111dd816111c2565b82525050565b6111ec81611036565b82525050565b600060e08301600083015161120a60008601826110ab565b5060208301518482036020860152611222828261111a565b9150506040830151611237604086018261115d565b50606083015161124a606086018261115d565b50608083015161125d608086018261115d565b5060a083015161127060a08601826111d4565b5060c083015161128360c08601826111e3565b508091505092915050565b600060208201905081810360008301526112a881846111f2565b905092915050565b6112b981611036565b82525050565b60006020820190506112d460008301846112b0565b92915050565b6112e3816110a1565b81146112ee57600080fd5b50565b600081359050611300816112da565b92915050565b6000806040838503121561131d5761131c61100c565b5b600061132b858286016112f1565b925050602061133c8582860161105f565b9150509250929050565b60006020828403121561135c5761135b61100c565b5b600061136a848285016112f1565b91505092915050565b61137c816110a1565b82525050565b600082825260208201905092915050565b600061139e826110ba565b6113a88185611382565b93506113b88185602086016110d6565b6113c181611109565b840191505092915050565b6113d581611153565b82525050565b6113e4816111c2565b82525050565b600060e0820190506113ff600083018a611373565b81810360208301526114118189611393565b905061142060408301886113cc565b61142d60608301876113cc565b61143a60808301866113cc565b61144760a08301856113db565b61145460c08301846112b0565b98975050505050505050565b600080fd5b600080fd5b7f4e487b7100000000000000000000000000000000000000000000000000000000600052604160045260246000fd5b6114a282611109565b810181811067ffffffffffffffff821117156114c1576114c061146a565b5b80604052505050565b60006114d4611002565b90506114e08282611499565b919050565b600067ffffffffffffffff821115611500576114ff61146a565b5b61150982611109565b9050602081019050919050565b82818337600083830152505050565b6000611538611533846114e5565b6114ca565b90508281526020810184848401111561155457611553611465565b5b61155f848285611516565b509392505050565b600082601f83011261157c5761157b611460565b5b813561158c848260208601611525565b91505092915050565b61159e81611153565b81146115a957600080fd5b50565b6000813590506115bb81611595565b92915050565b60008060008060008060c087890312156115de576115dd61100c565b5b600087013567ffffffffffffffff8111156115fc576115fb611011565b5b61160889828a01611567565b965050602061161989828a016115ac565b955050604061162a89828a016115ac565b945050606061163b89828a016115ac565b935050608061164c89828a016112f1565b92505060a061165d89828a0161105f565b9150509295509295509295565b600060208201905061167f6000830184611373565b92915050565b600081519050919050565b600082825260208201905092915050565b6000819050602082019050919050565b600060e0830160008301516116c960008601826110ab565b50602083015184820360208601526116e1828261111a565b91505060408301516116f6604086018261115d565b506060830151611709606086018261115d565b50608083015161171c608086018261115d565b5060a083015161172f60a08601826111d4565b5060c083015161174260c08601826111e3565b508091505092915050565b600061175983836116b1565b905092915050565b6000602082019050919050565b600061177982611685565b6117838185611690565b935083602082028501611795856116a1565b8060005b858110156117d157848403895281516117b2858261174d565b94506117bd83611761565b925060208a01995050600181019050611799565b50829750879550505050505092915050565b600060208201905081810360008301526117fd818461176e565b905092915050565b7f4e487b7100000000000000000000000000000000000000000000000000000000600052602260045260246000fd5b6000600282049050600182168061184c57607f821691505b602082108114156118605761185f611805565b5b50919050565b7f4e487b7100000000000000000000000000000000000000000000000000000000600052603260045260246000fd5b600081905092915050565b60008190508160005260206000209050919050565b600081546118c281611834565b6118cc8186611895565b945060018216600081146118e757600181146118f85761192b565b60ff1983168652818601935061192b565b611901856118a0565b60005b8381101561192357815481890152600182019150602081019050611904565b838801955050505b50505092915050565b600061194082846118b5565b915081905092915050565b600060608201905061196060008301866113cc565b61196d60208301856113cc565b61197a60408301846113cc565b949350505050565b7f596f7520617265206e6f7420616e206f776e6572000000000000000000000000600082015250565b60006119b8601483611382565b91506119c382611982565b602082019050919050565b600060208201905081810360008301526119e7816119ab565b9050919050565b60006119f9826110ba565b611a038185611895565b9350611a138185602086016110d6565b80840191505092915050565b6000611a2b82846119ee565b915081905092915050565b7f4e487b7100000000000000000000000000000000000000000000000000000000600052601160045260246000fd5b6000611a70826110a1565b91507fffffffffffffffffffffffffffffffffffffffffffffffffffffffffffffffff821415611aa357611aa2611a36565b5b60018201905091905056fea2646970667358221220863510dbb8e7dc9b097bd102e29f3804a535c787741cf6d0c7693080e1446bf564736f6c634300080a0033",
  "immutableReferences": {},
  "source": "// SPDX-License-Identifier: MIT\r\npragma solidity >=0.8.0 <0.9.0;\r\n\r\ncontract UserChain {\r\n    address public owner;\r\n\r\n    mapping(address => User) public users;\r\n    User[] public allUsers;\r\n    uint256 public usersCounter = 0;\r\n\r\n    enum Roles {\r\n        DefaultRole,\r\n        ProjectInitiator,\r\n        CompanyBuilder,\r\n        ProjectSupervisor\r\n    }\r\n\r\n    struct User {\r\n        uint _index;\r\n        string _username;\r\n        bytes32 _email;\r\n        bytes32 _firstname;\r\n        bytes32 _lastname;\r\n        Roles _role;\r\n        address _walletAddress;\r\n    }\r\n\r\n    event UserEvent(\r\n        address indexed _walletAddress,\r\n        string indexed _username,\r\n        bytes32 _email,\r\n        bytes32 _firstname,\r\n        bytes32 _lastname,\r\n        Roles indexed _role\r\n    );\r\n\r\n    constructor() {\r\n        owner = msg.sender;\r\n    }\r\n\r\n    modifier onlyOwner() {\r\n        require(owner == msg.sender, \"You are not an owner\");\r\n        _;\r\n    }\r\n\r\n    modifier checkUser(address _address) {\r\n        require(_address == msg.sender, \"Address\");\r\n        _;\r\n    }\r\n\r\n    function registerUser(\r\n        string memory _username,\r\n        bytes32 _email,\r\n        bytes32 _firstname,\r\n        bytes32 _lastname,\r\n        uint256 _role,\r\n        address _walletAddress\r\n    ) public onlyOwner {\r\n        users[_walletAddress]._index = usersCounter;\r\n        users[_walletAddress]._username = _username;\r\n        users[_walletAddress]._email = _email;\r\n        users[_walletAddress]._firstname = _firstname;\r\n        users[_walletAddress]._lastname = _lastname;\r\n        users[_walletAddress]._role = Roles(_role);\r\n        users[_walletAddress]._walletAddress = _walletAddress;\r\n        emit UserEvent(\r\n            _walletAddress,\r\n            _username,\r\n            _email,\r\n            _firstname,\r\n            _lastname,\r\n            Roles(_role)\r\n        );\r\n        allUsers.push(User(usersCounter, _username, _email, _firstname, _lastname, Roles(_role), _walletAddress));\r\n        usersCounter++;\r\n    }\r\n\r\n    function changeUserRole(uint _role, address _walletAddress) public {\r\n        users[_walletAddress]._role = Roles(_role);\r\n        uint index = users[_walletAddress]._index;\r\n        allUsers[index]._role = Roles(_role);\r\n        emit UserEvent(\r\n            _walletAddress,\r\n            users[_walletAddress]._username,\r\n            users[_walletAddress]._email,\r\n            users[_walletAddress]._firstname,\r\n            users[_walletAddress]._lastname,\r\n            Roles(_role)\r\n        );\r\n    }\r\n\r\n    function getAllUsers() public view returns (User[] memory) {\r\n        return allUsers;\r\n    }\r\n\r\n    function getUserInfo(address _walletAddress) public view returns (User memory) {\r\n        return users[_walletAddress];\r\n    }\r\n}\r\n",
  "sourcePath": "/mnt/c/Users/Beniamin/source/repos/DissertationProject/contracts/UserChain.sol",
  "compiler": {
    "name": "solc",
    "version": "0.8.10+commit.fc410830.Emscripten.clang"
  },
  "schemaVersion": "3.4.3",
  "updatedAt": "2021-11-22T09:45:04.453Z",
  "devdoc": {
    "kind": "dev",
    "methods": {},
    "version": 1
  },
  "userdoc": {
    "kind": "user",
    "methods": {},
    "version": 1
  }
}