{
  "contractName": "UserChain",
  "abi": [
    {
      "inputs": [],
      "stateMutability": "nonpayable",
      "type": "constructor"
    },
    {
      "anonymous": false,
      "inputs": [
        {
          "indexed": false,
          "internalType": "string",
          "name": "username",
          "type": "string"
        },
        {
          "indexed": false,
          "internalType": "string",
          "name": "firstname",
          "type": "string"
        },
        {
          "indexed": false,
          "internalType": "string",
          "name": "lastname",
          "type": "string"
        },
        {
          "indexed": false,
          "internalType": "string",
          "name": "email",
          "type": "string"
        },
        {
          "indexed": false,
          "internalType": "enum UserChain.Roles",
          "name": "role",
          "type": "uint8"
        },
        {
          "indexed": false,
          "internalType": "address",
          "name": "walletAddress",
          "type": "address"
        }
      ],
      "name": "UserChanges",
      "type": "event"
    },
    {
      "anonymous": false,
      "inputs": [
        {
          "indexed": true,
          "internalType": "address",
          "name": "_walletAddress",
          "type": "address"
        },
        {
          "indexed": true,
          "internalType": "string",
          "name": "_username",
          "type": "string"
        },
        {
          "indexed": false,
          "internalType": "string",
          "name": "_email",
          "type": "string"
        },
        {
          "indexed": false,
          "internalType": "string",
          "name": "_firstname",
          "type": "string"
        },
        {
          "indexed": false,
          "internalType": "string",
          "name": "_lastname",
          "type": "string"
        },
        {
          "indexed": true,
          "internalType": "enum UserChain.Roles",
          "name": "_role",
          "type": "uint8"
        }
      ],
      "name": "UserRegistered",
      "type": "event"
    },
    {
      "inputs": [
        {
          "internalType": "uint256",
          "name": "",
          "type": "uint256"
        }
      ],
      "name": "allUsers",
      "outputs": [
        {
          "internalType": "string",
          "name": "username",
          "type": "string"
        },
        {
          "internalType": "string",
          "name": "email",
          "type": "string"
        },
        {
          "internalType": "string",
          "name": "firstname",
          "type": "string"
        },
        {
          "internalType": "string",
          "name": "lastname",
          "type": "string"
        },
        {
          "internalType": "enum UserChain.Roles",
          "name": "role",
          "type": "uint8"
        },
        {
          "internalType": "address",
          "name": "walletAddress",
          "type": "address"
        }
      ],
      "stateMutability": "view",
      "type": "function"
    },
    {
      "inputs": [],
      "name": "owner",
      "outputs": [
        {
          "internalType": "address",
          "name": "",
          "type": "address"
        }
      ],
      "stateMutability": "view",
      "type": "function"
    },
    {
      "inputs": [
        {
          "internalType": "address",
          "name": "",
          "type": "address"
        }
      ],
      "name": "userInfo",
      "outputs": [
        {
          "internalType": "string",
          "name": "username",
          "type": "string"
        },
        {
          "internalType": "string",
          "name": "email",
          "type": "string"
        },
        {
          "internalType": "string",
          "name": "firstname",
          "type": "string"
        },
        {
          "internalType": "string",
          "name": "lastname",
          "type": "string"
        },
        {
          "internalType": "enum UserChain.Roles",
          "name": "role",
          "type": "uint8"
        },
        {
          "internalType": "address",
          "name": "walletAddress",
          "type": "address"
        }
      ],
      "stateMutability": "view",
      "type": "function"
    },
    {
      "inputs": [],
      "name": "usersCount",
      "outputs": [
        {
          "internalType": "uint256",
          "name": "",
          "type": "uint256"
        }
      ],
      "stateMutability": "view",
      "type": "function"
    },
    {
      "inputs": [
        {
          "internalType": "string",
          "name": "_username",
          "type": "string"
        },
        {
          "internalType": "string",
          "name": "_email",
          "type": "string"
        },
        {
          "internalType": "string",
          "name": "_firstname",
          "type": "string"
        },
        {
          "internalType": "string",
          "name": "_lastname",
          "type": "string"
        },
        {
          "internalType": "uint256",
          "name": "_role",
          "type": "uint256"
        },
        {
          "internalType": "address",
          "name": "_walletAddress",
          "type": "address"
        }
      ],
      "name": "registerUser",
      "outputs": [],
      "stateMutability": "nonpayable",
      "type": "function"
    },
    {
      "inputs": [
        {
          "internalType": "uint256",
          "name": "_role",
          "type": "uint256"
        },
        {
          "internalType": "address",
          "name": "_walletAddress",
          "type": "address"
        }
      ],
      "name": "changeUserRole",
      "outputs": [],
      "stateMutability": "nonpayable",
      "type": "function"
    },
    {
      "inputs": [],
      "name": "getAllUsers",
      "outputs": [
        {
          "components": [
            {
              "internalType": "string",
              "name": "username",
              "type": "string"
            },
            {
              "internalType": "string",
              "name": "email",
              "type": "string"
            },
            {
              "internalType": "string",
              "name": "firstname",
              "type": "string"
            },
            {
              "internalType": "string",
              "name": "lastname",
              "type": "string"
            },
            {
              "internalType": "enum UserChain.Roles",
              "name": "role",
              "type": "uint8"
            },
            {
              "internalType": "address",
              "name": "walletAddress",
              "type": "address"
            }
          ],
          "internalType": "struct UserChain.S_UserData[]",
          "name": "",
          "type": "tuple[]"
        }
      ],
      "stateMutability": "view",
      "type": "function"
    },
    {
      "inputs": [
        {
          "internalType": "address",
          "name": "_address",
          "type": "address"
        }
      ],
      "name": "getUserInfo",
      "outputs": [
        {
          "components": [
            {
              "internalType": "string",
              "name": "username",
              "type": "string"
            },
            {
              "internalType": "string",
              "name": "email",
              "type": "string"
            },
            {
              "internalType": "string",
              "name": "firstname",
              "type": "string"
            },
            {
              "internalType": "string",
              "name": "lastname",
              "type": "string"
            },
            {
              "internalType": "enum UserChain.Roles",
              "name": "role",
              "type": "uint8"
            },
            {
              "internalType": "address",
              "name": "walletAddress",
              "type": "address"
            }
          ],
          "internalType": "struct UserChain.S_UserData",
          "name": "",
          "type": "tuple"
        }
      ],
      "stateMutability": "view",
      "type": "function"
    }
  ],
  "bytecode": "0x6080604052600060025534801561001557600080fd5b5033600160006101000a81548173ffffffffffffffffffffffffffffffffffffffff021916908373ffffffffffffffffffffffffffffffffffffffff160217905550611f44806100666000396000f3fe608060405234801561001057600080fd5b50600436106100885760003560e01c8063910097861161005b578063910097861461012e578063911c29a61461014a578063a2bdedf414610166578063e2842d791461019b57610088565b80631959a0021461008d5780636386c1c7146100c25780636ba13a82146100f25780638da5cb5b14610110575b600080fd5b6100a760048036038101906100a2919061156e565b6101b9565b6040516100b9969594939291906116ba565b60405180910390f35b6100dc60048036038101906100d7919061156e565b610442565b6040516100e9919061183d565b60405180910390f35b6100fa610773565b6040516101079190611878565b60405180910390f35b610118610779565b6040516101259190611893565b60405180910390f35b610148600480360381019061014391906118da565b61079f565b005b610164600480360381019061015f9190611a4f565b61091b565b005b610180600480360381019061017b9190611b4c565b610e2a565b604051610192969594939291906116ba565b60405180910390f35b6101a36110c3565b6040516101b09190611cd9565b60405180910390f35b60006020528060005260406000206000915090508060000180546101dc90611d2a565b80601f016020809104026020016040519081016040528092919081815260200182805461020890611d2a565b80156102555780601f1061022a57610100808354040283529160200191610255565b820191906000526020600020905b81548152906001019060200180831161023857829003601f168201915b50505050509080600101805461026a90611d2a565b80601f016020809104026020016040519081016040528092919081815260200182805461029690611d2a565b80156102e35780601f106102b8576101008083540402835291602001916102e3565b820191906000526020600020905b8154815290600101906020018083116102c657829003601f168201915b5050505050908060020180546102f890611d2a565b80601f016020809104026020016040519081016040528092919081815260200182805461032490611d2a565b80156103715780601f1061034657610100808354040283529160200191610371565b820191906000526020600020905b81548152906001019060200180831161035457829003601f168201915b50505050509080600301805461038690611d2a565b80601f01602080910402602001604051908101604052809291908181526020018280546103b290611d2a565b80156103ff5780601f106103d4576101008083540402835291602001916103ff565b820191906000526020600020905b8154815290600101906020018083116103e257829003601f168201915b5050505050908060040160009054906101000a900460ff16908060040160019054906101000a900473ffffffffffffffffffffffffffffffffffffffff16905086565b61044a6113fb565b6000808373ffffffffffffffffffffffffffffffffffffffff1673ffffffffffffffffffffffffffffffffffffffff1681526020019081526020016000206040518060c00160405290816000820180546104a390611d2a565b80601f01602080910402602001604051908101604052809291908181526020018280546104cf90611d2a565b801561051c5780601f106104f15761010080835404028352916020019161051c565b820191906000526020600020905b8154815290600101906020018083116104ff57829003601f168201915b5050505050815260200160018201805461053590611d2a565b80601f016020809104026020016040519081016040528092919081815260200182805461056190611d2a565b80156105ae5780601f10610583576101008083540402835291602001916105ae565b820191906000526020600020905b81548152906001019060200180831161059157829003601f168201915b505050505081526020016002820180546105c790611d2a565b80601f01602080910402602001604051908101604052809291908181526020018280546105f390611d2a565b80156106405780601f1061061557610100808354040283529160200191610640565b820191906000526020600020905b81548152906001019060200180831161062357829003601f168201915b5050505050815260200160038201805461065990611d2a565b80601f016020809104026020016040519081016040528092919081815260200182805461068590611d2a565b80156106d25780601f106106a7576101008083540402835291602001916106d2565b820191906000526020600020905b8154815290600101906020018083116106b557829003601f168201915b505050505081526020016004820160009054906101000a900460ff166003811115610700576106ff611634565b5b600381111561071257610711611634565b5b81526020016004820160019054906101000a900473ffffffffffffffffffffffffffffffffffffffff1673ffffffffffffffffffffffffffffffffffffffff1673ffffffffffffffffffffffffffffffffffffffff16815250509050919050565b60025481565b600160009054906101000a900473ffffffffffffffffffffffffffffffffffffffff1681565b8160038111156107b2576107b1611634565b5b6000808373ffffffffffffffffffffffffffffffffffffffff1673ffffffffffffffffffffffffffffffffffffffff16815260200190815260200160002060040160006101000a81548160ff0219169083600381111561081557610814611634565b5b021790555060005b600380549050811015610916578173ffffffffffffffffffffffffffffffffffffffff166003828154811061085557610854611d5c565b5b906000526020600020906005020160040160019054906101000a900473ffffffffffffffffffffffffffffffffffffffff1673ffffffffffffffffffffffffffffffffffffffff161415610903578260038111156108b6576108b5611634565b5b600382815481106108ca576108c9611d5c565b5b906000526020600020906005020160040160006101000a81548160ff021916908360038111156108fd576108fc611634565b5b02179055505b808061090e90611dba565b91505061081d565b505050565b3373ffffffffffffffffffffffffffffffffffffffff16600160009054906101000a900473ffffffffffffffffffffffffffffffffffffffff1673ffffffffffffffffffffffffffffffffffffffff16146109ab576040517f08c379a00000000000000000000000000000000000000000000000000000000081526004016109a290611e4f565b60405180910390fd5b856000808373ffffffffffffffffffffffffffffffffffffffff1673ffffffffffffffffffffffffffffffffffffffff1681526020019081526020016000206000019080519060200190610a00929190611459565b50846000808373ffffffffffffffffffffffffffffffffffffffff1673ffffffffffffffffffffffffffffffffffffffff1681526020019081526020016000206001019080519060200190610a56929190611459565b50836000808373ffffffffffffffffffffffffffffffffffffffff1673ffffffffffffffffffffffffffffffffffffffff1681526020019081526020016000206002019080519060200190610aac929190611459565b50826000808373ffffffffffffffffffffffffffffffffffffffff1673ffffffffffffffffffffffffffffffffffffffff1681526020019081526020016000206003019080519060200190610b02929190611459565b50816003811115610b1657610b15611634565b5b6000808373ffffffffffffffffffffffffffffffffffffffff1673ffffffffffffffffffffffffffffffffffffffff16815260200190815260200160002060040160006101000a81548160ff02191690836003811115610b7957610b78611634565b5b0217905550806000808373ffffffffffffffffffffffffffffffffffffffff1673ffffffffffffffffffffffffffffffffffffffff16815260200190815260200160002060040160016101000a81548173ffffffffffffffffffffffffffffffffffffffff021916908373ffffffffffffffffffffffffffffffffffffffff160217905550816003811115610c1157610c10611634565b5b6003811115610c2357610c22611634565b5b86604051610c319190611eab565b60405180910390208273ffffffffffffffffffffffffffffffffffffffff167fddb5d1667467713eb503e7e133811c91a231cb6b63f11930889c6004f36c35ee888888604051610c8393929190611ec2565b60405180910390a460036040518060c00160405280888152602001878152602001868152602001858152602001846003811115610cc357610cc2611634565b5b6003811115610cd557610cd4611634565b5b81526020018373ffffffffffffffffffffffffffffffffffffffff1681525090806001815401808255809150506001900390600052602060002090600502016000909190919091506000820151816000019080519060200190610d39929190611459565b506020820151816001019080519060200190610d56929190611459565b506040820151816002019080519060200190610d73929190611459565b506060820151816003019080519060200190610d90929190611459565b5060808201518160040160006101000a81548160ff02191690836003811115610dbc57610dbb611634565b5b021790555060a08201518160040160016101000a81548173ffffffffffffffffffffffffffffffffffffffff021916908373ffffffffffffffffffffffffffffffffffffffff160217905550505060026000815480929190610e1d90611dba565b9190505550505050505050565b60038181548110610e3a57600080fd5b9060005260206000209060050201600091509050806000018054610e5d90611d2a565b80601f0160208091040260200160405190810160405280929190818152602001828054610e8990611d2a565b8015610ed65780601f10610eab57610100808354040283529160200191610ed6565b820191906000526020600020905b815481529060010190602001808311610eb957829003601f168201915b505050505090806001018054610eeb90611d2a565b80601f0160208091040260200160405190810160405280929190818152602001828054610f1790611d2a565b8015610f645780601f10610f3957610100808354040283529160200191610f64565b820191906000526020600020905b815481529060010190602001808311610f4757829003601f168201915b505050505090806002018054610f7990611d2a565b80601f0160208091040260200160405190810160405280929190818152602001828054610fa590611d2a565b8015610ff25780601f10610fc757610100808354040283529160200191610ff2565b820191906000526020600020905b815481529060010190602001808311610fd557829003601f168201915b50505050509080600301805461100790611d2a565b80601f016020809104026020016040519081016040528092919081815260200182805461103390611d2a565b80156110805780601f1061105557610100808354040283529160200191611080565b820191906000526020600020905b81548152906001019060200180831161106357829003601f168201915b5050505050908060040160009054906101000a900460ff16908060040160019054906101000a900473ffffffffffffffffffffffffffffffffffffffff16905086565b60606003805480602002602001604051908101604052809291908181526020016000905b828210156113f257838290600052602060002090600502016040518060c001604052908160008201805461111a90611d2a565b80601f016020809104026020016040519081016040528092919081815260200182805461114690611d2a565b80156111935780601f1061116857610100808354040283529160200191611193565b820191906000526020600020905b81548152906001019060200180831161117657829003601f168201915b505050505081526020016001820180546111ac90611d2a565b80601f01602080910402602001604051908101604052809291908181526020018280546111d890611d2a565b80156112255780601f106111fa57610100808354040283529160200191611225565b820191906000526020600020905b81548152906001019060200180831161120857829003601f168201915b5050505050815260200160028201805461123e90611d2a565b80601f016020809104026020016040519081016040528092919081815260200182805461126a90611d2a565b80156112b75780601f1061128c576101008083540402835291602001916112b7565b820191906000526020600020905b81548152906001019060200180831161129a57829003601f168201915b505050505081526020016003820180546112d090611d2a565b80601f01602080910402602001604051908101604052809291908181526020018280546112fc90611d2a565b80156113495780601f1061131e57610100808354040283529160200191611349565b820191906000526020600020905b81548152906001019060200180831161132c57829003601f168201915b505050505081526020016004820160009054906101000a900460ff16600381111561137757611376611634565b5b600381111561138957611388611634565b5b81526020016004820160019054906101000a900473ffffffffffffffffffffffffffffffffffffffff1673ffffffffffffffffffffffffffffffffffffffff1673ffffffffffffffffffffffffffffffffffffffff1681525050815260200190600101906110e7565b50505050905090565b6040518060c00160405280606081526020016060815260200160608152602001606081526020016000600381111561143657611435611634565b5b8152602001600073ffffffffffffffffffffffffffffffffffffffff1681525090565b82805461146590611d2a565b90600052602060002090601f01602090048101928261148757600085556114ce565b82601f106114a057805160ff19168380011785556114ce565b828001600101855582156114ce579182015b828111156114cd5782518255916020019190600101906114b2565b5b5090506114db91906114df565b5090565b5b808211156114f85760008160009055506001016114e0565b5090565b6000604051905090565b600080fd5b600080fd5b600073ffffffffffffffffffffffffffffffffffffffff82169050919050565b600061153b82611510565b9050919050565b61154b81611530565b811461155657600080fd5b50565b60008135905061156881611542565b92915050565b60006020828403121561158457611583611506565b5b600061159284828501611559565b91505092915050565b600081519050919050565b600082825260208201905092915050565b60005b838110156115d55780820151818401526020810190506115ba565b838111156115e4576000848401525b50505050565b6000601f19601f8301169050919050565b60006116068261159b565b61161081856115a6565b93506116208185602086016115b7565b611629816115ea565b840191505092915050565b7f4e487b7100000000000000000000000000000000000000000000000000000000600052602160045260246000fd5b6004811061167457611673611634565b5b50565b600081905061168582611663565b919050565b600061169582611677565b9050919050565b6116a58161168a565b82525050565b6116b481611530565b82525050565b600060c08201905081810360008301526116d481896115fb565b905081810360208301526116e881886115fb565b905081810360408301526116fc81876115fb565b9050818103606083015261171081866115fb565b905061171f608083018561169c565b61172c60a08301846116ab565b979650505050505050565b600082825260208201905092915050565b60006117538261159b565b61175d8185611737565b935061176d8185602086016115b7565b611776816115ea565b840191505092915050565b61178a8161168a565b82525050565b61179981611530565b82525050565b600060c08301600083015184820360008601526117bc8282611748565b915050602083015184820360208601526117d68282611748565b915050604083015184820360408601526117f08282611748565b9150506060830151848203606086015261180a8282611748565b915050608083015161181f6080860182611781565b5060a083015161183260a0860182611790565b508091505092915050565b60006020820190508181036000830152611857818461179f565b905092915050565b6000819050919050565b6118728161185f565b82525050565b600060208201905061188d6000830184611869565b92915050565b60006020820190506118a860008301846116ab565b92915050565b6118b78161185f565b81146118c257600080fd5b50565b6000813590506118d4816118ae565b92915050565b600080604083850312156118f1576118f0611506565b5b60006118ff858286016118c5565b925050602061191085828601611559565b9150509250929050565b600080fd5b600080fd5b7f4e487b7100000000000000000000000000000000000000000000000000000000600052604160045260246000fd5b61195c826115ea565b810181811067ffffffffffffffff8211171561197b5761197a611924565b5b80604052505050565b600061198e6114fc565b905061199a8282611953565b919050565b600067ffffffffffffffff8211156119ba576119b9611924565b5b6119c3826115ea565b9050602081019050919050565b82818337600083830152505050565b60006119f26119ed8461199f565b611984565b905082815260208101848484011115611a0e57611a0d61191f565b5b611a198482856119d0565b509392505050565b600082601f830112611a3657611a3561191a565b5b8135611a468482602086016119df565b91505092915050565b60008060008060008060c08789031215611a6c57611a6b611506565b5b600087013567ffffffffffffffff811115611a8a57611a8961150b565b5b611a9689828a01611a21565b965050602087013567ffffffffffffffff811115611ab757611ab661150b565b5b611ac389828a01611a21565b955050604087013567ffffffffffffffff811115611ae457611ae361150b565b5b611af089828a01611a21565b945050606087013567ffffffffffffffff811115611b1157611b1061150b565b5b611b1d89828a01611a21565b9350506080611b2e89828a016118c5565b92505060a0611b3f89828a01611559565b9150509295509295509295565b600060208284031215611b6257611b61611506565b5b6000611b70848285016118c5565b91505092915050565b600081519050919050565b600082825260208201905092915050565b6000819050602082019050919050565b600060c0830160008301518482036000860152611bc28282611748565b91505060208301518482036020860152611bdc8282611748565b91505060408301518482036040860152611bf68282611748565b91505060608301518482036060860152611c108282611748565b9150506080830151611c256080860182611781565b5060a0830151611c3860a0860182611790565b508091505092915050565b6000611c4f8383611ba5565b905092915050565b6000602082019050919050565b6000611c6f82611b79565b611c798185611b84565b935083602082028501611c8b85611b95565b8060005b85811015611cc75784840389528151611ca88582611c43565b9450611cb383611c57565b925060208a01995050600181019050611c8f565b50829750879550505050505092915050565b60006020820190508181036000830152611cf38184611c64565b905092915050565b7f4e487b7100000000000000000000000000000000000000000000000000000000600052602260045260246000fd5b60006002820490506001821680611d4257607f821691505b60208210811415611d5657611d55611cfb565b5b50919050565b7f4e487b7100000000000000000000000000000000000000000000000000000000600052603260045260246000fd5b7f4e487b7100000000000000000000000000000000000000000000000000000000600052601160045260246000fd5b6000611dc58261185f565b91507fffffffffffffffffffffffffffffffffffffffffffffffffffffffffffffffff821415611df857611df7611d8b565b5b600182019050919050565b7f596f7520617265206e6f7420616e206f776e6572000000000000000000000000600082015250565b6000611e396014836115a6565b9150611e4482611e03565b602082019050919050565b60006020820190508181036000830152611e6881611e2c565b9050919050565b600081905092915050565b6000611e858261159b565b611e8f8185611e6f565b9350611e9f8185602086016115b7565b80840191505092915050565b6000611eb78284611e7a565b915081905092915050565b60006060820190508181036000830152611edc81866115fb565b90508181036020830152611ef081856115fb565b90508181036040830152611f0481846115fb565b905094935050505056fea2646970667358221220f2f6626514d42b5b08ac6dde691cb238a894321960741094d9652d119f85d7cb64736f6c634300080a0033",
  "immutableReferences": {},
  "source": "// SPDX-License-Identifier: MIT\r\npragma solidity >=0.8.0 <0.9.0;\r\n\r\ncontract UserChain {\r\n    mapping(address => S_UserData) public userInfo;\r\n    address public owner;\r\n    uint256 public usersCount = 0;\r\n    //address[] public userAddresses;\r\n\r\n    S_UserData[] public allUsers;\r\n\r\n    struct S_UserData {\r\n        string username;\r\n        string email;\r\n        string firstname;\r\n        string lastname;\r\n        Roles role;\r\n        address walletAddress;\r\n    }\r\n\r\n    enum Roles {\r\n        DefaultRole,\r\n        ProjectInitiator,\r\n        CompanyBuilder,\r\n        ProjectSupervisor\r\n    }\r\n\r\n    event UserRegistered(\r\n        address indexed _walletAddress,\r\n        string indexed _username,\r\n        string _email,\r\n        string _firstname,\r\n        string _lastname,\r\n        Roles indexed _role\r\n    );\r\n\r\n    event UserChanges(\r\n        string username,\r\n        string firstname,\r\n        string lastname,\r\n        string email,\r\n        Roles role,\r\n        address walletAddress\r\n    );\r\n\r\n    constructor() {\r\n        owner = msg.sender;\r\n    }\r\n\r\n    modifier onlyOwner() {\r\n        require(owner == msg.sender, \"You are not an owner\");\r\n        _;\r\n    }\r\n\r\n    modifier checkUser(address _address) {\r\n        require(_address == msg.sender, \"Address\");\r\n        _;\r\n    }\r\n\r\n    function registerUser(\r\n        string memory _username,\r\n        string memory _email,\r\n        string memory _firstname,\r\n        string memory _lastname,\r\n        uint256 _role,\r\n        address _walletAddress\r\n    ) public onlyOwner {\r\n        userInfo[_walletAddress].username = _username;\r\n        userInfo[_walletAddress].email = _email;\r\n        userInfo[_walletAddress].firstname = _firstname;\r\n        userInfo[_walletAddress].lastname = _lastname;\r\n        userInfo[_walletAddress].role = Roles(_role);\r\n        userInfo[_walletAddress].walletAddress = _walletAddress;\r\n        emit UserRegistered(\r\n            _walletAddress,\r\n            _username,\r\n            _email,\r\n            _firstname,\r\n            _lastname,\r\n            Roles(_role)\r\n        );\r\n        //userAddresses.push(_walletAddress);\r\n        allUsers.push(S_UserData(_username, _email, _firstname, _lastname, Roles(_role), _walletAddress));\r\n        usersCount++;\r\n    }\r\n\r\n    function changeUserRole(uint _role, address _walletAddress) external {\r\n        userInfo[_walletAddress].role = Roles(_role);\r\n\r\n        for (uint index = 0; index < allUsers.length; index++) {\r\n            if (allUsers[index].walletAddress == _walletAddress) {\r\n                allUsers[index].role = Roles(_role);\r\n            }\r\n        }\r\n    }\r\n\r\n    // function getUserAddresses() external view returns (address[] memory) {\r\n    //     return userAddresses;\r\n    // }\r\n\r\n    function getAllUsers() external view returns (S_UserData[] memory) {\r\n        return allUsers;\r\n    }\r\n\r\n    function getUserInfo(address _address)\r\n        external\r\n        view\r\n        returns (S_UserData memory)\r\n    {\r\n        return userInfo[_address];\r\n    }\r\n}\r\n",
  "sourcePath": "/mnt/c/users/beniamin/source/repos/dissertationproject/contracts/UserChain.sol",
  "compiler": {
    "name": "solc",
    "version": "0.8.10+commit.fc410830.Emscripten.clang"
  },
  "schemaVersion": "3.4.3",
  "updatedAt": "2021-11-19T10:04:54.937Z",
  "devdoc": {
    "kind": "dev",
    "methods": {},
    "version": 1
  },
  "userdoc": {
    "kind": "user",
    "methods": {},
    "version": 1
  }
}