{
  "contractName": "User",
  "abi": [
    {
      "inputs": [],
      "stateMutability": "nonpayable",
      "type": "constructor"
    },
    {
      "anonymous": false,
      "inputs": [
        {
          "indexed": true,
          "internalType": "address",
          "name": "_address",
          "type": "address"
        },
        {
          "indexed": false,
          "internalType": "bytes32",
          "name": "_username",
          "type": "bytes32"
        }
      ],
      "name": "UserRegistered",
      "type": "event"
    },
    {
      "inputs": [],
      "name": "owner",
      "outputs": [
        {
          "internalType": "address",
          "name": "",
          "type": "address"
        }
      ],
      "stateMutability": "view",
      "type": "function"
    },
    {
      "inputs": [
        {
          "internalType": "address",
          "name": "",
          "type": "address"
        }
      ],
      "name": "userInfo",
      "outputs": [
        {
          "internalType": "bytes32",
          "name": "username",
          "type": "bytes32"
        },
        {
          "internalType": "enum User.Roles",
          "name": "role",
          "type": "uint8"
        },
        {
          "internalType": "address",
          "name": "userAddress",
          "type": "address"
        }
      ],
      "stateMutability": "view",
      "type": "function"
    },
    {
      "inputs": [
        {
          "internalType": "bytes32",
          "name": "_username",
          "type": "bytes32"
        },
        {
          "internalType": "uint256",
          "name": "_role",
          "type": "uint256"
        },
        {
          "internalType": "address",
          "name": "_userAddress",
          "type": "address"
        }
      ],
      "name": "registerUser",
      "outputs": [],
      "stateMutability": "nonpayable",
      "type": "function"
    },
    {
      "inputs": [
        {
          "internalType": "uint256",
          "name": "_role",
          "type": "uint256"
        },
        {
          "internalType": "address",
          "name": "_userAddress",
          "type": "address"
        }
      ],
      "name": "changeUserRole",
      "outputs": [
        {
          "internalType": "string",
          "name": "",
          "type": "string"
        }
      ],
      "stateMutability": "nonpayable",
      "type": "function"
    },
    {
      "inputs": [
        {
          "internalType": "address",
          "name": "_userAddress",
          "type": "address"
        }
      ],
      "name": "getUserInfo",
      "outputs": [
        {
          "components": [
            {
              "internalType": "bytes32",
              "name": "username",
              "type": "bytes32"
            },
            {
              "internalType": "enum User.Roles",
              "name": "role",
              "type": "uint8"
            },
            {
              "internalType": "address",
              "name": "userAddress",
              "type": "address"
            }
          ],
          "internalType": "struct User.S_UserData",
          "name": "",
          "type": "tuple"
        }
      ],
      "stateMutability": "view",
      "type": "function"
    },
    {
      "inputs": [],
      "name": "getUser",
      "outputs": [
        {
          "internalType": "string",
          "name": "",
          "type": "string"
        }
      ],
      "stateMutability": "view",
      "type": "function"
    }
  ],
  "bytecode": "0x608060405234801561001057600080fd5b5033600160006101000a81548173ffffffffffffffffffffffffffffffffffffffff021916908373ffffffffffffffffffffffffffffffffffffffff160217905550610c51806100616000396000f3fe608060405234801561001057600080fd5b50600436106100625760003560e01c80631959a002146100675780636386c1c714610099578063832880e7146100c95780638da5cb5b146100e75780639100978614610105578063d3bca1d514610135575b600080fd5b610081600480360381019061007c919061083c565b610151565b60405161009093929190610908565b60405180910390f35b6100b360048036038101906100ae919061083c565b6101a8565b6040516100c091906109ae565b60405180910390f35b6100d161032b565b6040516100de9190610a62565b60405180910390f35b6100ef6103f8565b6040516100fc9190610a84565b60405180910390f35b61011f600480360381019061011a9190610ad5565b61041e565b60405161012c9190610a62565b60405180910390f35b61014f600480360381019061014a9190610b41565b610569565b005b60006020528060005260406000206000915090508060000154908060010160009054906101000a900460ff16908060010160019054906101000a900473ffffffffffffffffffffffffffffffffffffffff16905083565b6101b061078d565b3373ffffffffffffffffffffffffffffffffffffffff16600160009054906101000a900473ffffffffffffffffffffffffffffffffffffffff1673ffffffffffffffffffffffffffffffffffffffff1614610240576040517f08c379a000000000000000000000000000000000000000000000000000000000815260040161023790610be0565b60405180910390fd5b6000808373ffffffffffffffffffffffffffffffffffffffff1673ffffffffffffffffffffffffffffffffffffffff168152602001908152602001600020604051806060016040529081600082015481526020016001820160009054906101000a900460ff1660038111156102b8576102b7610882565b5b60038111156102ca576102c9610882565b5b81526020016001820160019054906101000a900473ffffffffffffffffffffffffffffffffffffffff1673ffffffffffffffffffffffffffffffffffffffff1673ffffffffffffffffffffffffffffffffffffffff16815250509050919050565b60603373ffffffffffffffffffffffffffffffffffffffff16600160009054906101000a900473ffffffffffffffffffffffffffffffffffffffff1673ffffffffffffffffffffffffffffffffffffffff16146103bd576040517f08c379a00000000000000000000000000000000000000000000000000000000081526004016103b490610be0565b60405180910390fd5b6040518060400160405280600881526020017f42656e69616d696e000000000000000000000000000000000000000000000000815250905090565b600160009054906101000a900473ffffffffffffffffffffffffffffffffffffffff1681565b60603373ffffffffffffffffffffffffffffffffffffffff16600160009054906101000a900473ffffffffffffffffffffffffffffffffffffffff1673ffffffffffffffffffffffffffffffffffffffff16146104b0576040517f08c379a00000000000000000000000000000000000000000000000000000000081526004016104a790610be0565b60405180910390fd5b8260038111156104c3576104c2610882565b5b6000808473ffffffffffffffffffffffffffffffffffffffff1673ffffffffffffffffffffffffffffffffffffffff16815260200190815260200160002060010160006101000a81548160ff0219169083600381111561052657610525610882565b5b02179055506040518060400160405280600d81526020017f526f6c6520557064617465642100000000000000000000000000000000000000815250905092915050565b3373ffffffffffffffffffffffffffffffffffffffff16600160009054906101000a900473ffffffffffffffffffffffffffffffffffffffff1673ffffffffffffffffffffffffffffffffffffffff16146105f9576040517f08c379a00000000000000000000000000000000000000000000000000000000081526004016105f090610be0565b60405180910390fd5b826000808373ffffffffffffffffffffffffffffffffffffffff1673ffffffffffffffffffffffffffffffffffffffff1681526020019081526020016000206000018190555081600381111561065257610651610882565b5b6000808373ffffffffffffffffffffffffffffffffffffffff1673ffffffffffffffffffffffffffffffffffffffff16815260200190815260200160002060010160006101000a81548160ff021916908360038111156106b5576106b4610882565b5b0217905550806000808373ffffffffffffffffffffffffffffffffffffffff1673ffffffffffffffffffffffffffffffffffffffff16815260200190815260200160002060010160016101000a81548173ffffffffffffffffffffffffffffffffffffffff021916908373ffffffffffffffffffffffffffffffffffffffff1602179055508073ffffffffffffffffffffffffffffffffffffffff167f4c5d15f5779ae1ecd7d55bd3283d898e29c35743d172bd7b83a16e17bc0afe2a846040516107809190610c00565b60405180910390a2505050565b604051806060016040528060008019168152602001600060038111156107b6576107b5610882565b5b8152602001600073ffffffffffffffffffffffffffffffffffffffff1681525090565b600080fd5b600073ffffffffffffffffffffffffffffffffffffffff82169050919050565b6000610809826107de565b9050919050565b610819816107fe565b811461082457600080fd5b50565b60008135905061083681610810565b92915050565b600060208284031215610852576108516107d9565b5b600061086084828501610827565b91505092915050565b6000819050919050565b61087c81610869565b82525050565b7f4e487b7100000000000000000000000000000000000000000000000000000000600052602160045260246000fd5b600481106108c2576108c1610882565b5b50565b60008190506108d3826108b1565b919050565b60006108e3826108c5565b9050919050565b6108f3816108d8565b82525050565b610902816107fe565b82525050565b600060608201905061091d6000830186610873565b61092a60208301856108ea565b61093760408301846108f9565b949350505050565b61094881610869565b82525050565b610957816108d8565b82525050565b610966816107fe565b82525050565b606082016000820151610982600085018261093f565b506020820151610995602085018261094e565b5060408201516109a8604085018261095d565b50505050565b60006060820190506109c3600083018461096c565b92915050565b600081519050919050565b600082825260208201905092915050565b60005b83811015610a035780820151818401526020810190506109e8565b83811115610a12576000848401525b50505050565b6000601f19601f8301169050919050565b6000610a34826109c9565b610a3e81856109d4565b9350610a4e8185602086016109e5565b610a5781610a18565b840191505092915050565b60006020820190508181036000830152610a7c8184610a29565b905092915050565b6000602082019050610a9960008301846108f9565b92915050565b6000819050919050565b610ab281610a9f565b8114610abd57600080fd5b50565b600081359050610acf81610aa9565b92915050565b60008060408385031215610aec57610aeb6107d9565b5b6000610afa85828601610ac0565b9250506020610b0b85828601610827565b9150509250929050565b610b1e81610869565b8114610b2957600080fd5b50565b600081359050610b3b81610b15565b92915050565b600080600060608486031215610b5a57610b596107d9565b5b6000610b6886828701610b2c565b9350506020610b7986828701610ac0565b9250506040610b8a86828701610827565b9150509250925092565b7f596f7520617265206e6f7420616e206f776e6572000000000000000000000000600082015250565b6000610bca6014836109d4565b9150610bd582610b94565b602082019050919050565b60006020820190508181036000830152610bf981610bbd565b9050919050565b6000602082019050610c156000830184610873565b9291505056fea2646970667358221220516806483e4d1a1e59d9795339a161e55c61748af5b03e83735bf07e08b1bcb364736f6c63430008090033",
  "immutableReferences": {},
  "source": "// SPDX-License-Identifier: MIT\r\npragma solidity >=0.8.0 <0.9.0;\r\n\r\ncontract User {\r\n\r\n    mapping(address => S_UserData) public userInfo;\r\n    address public owner;\r\n\r\n    struct S_UserData {\r\n        bytes32 username;\r\n        Roles role;\r\n        address userAddress;\r\n    }\r\n\r\n    enum Roles {\r\n        DefaultRole,\r\n        ProjectInitiator,\r\n        CompanyBuilder,\r\n        ProjectSupervisor\r\n    }\r\n\r\n    event UserRegistered(address indexed _address, bytes32 _username);\r\n\r\n    constructor() {\r\n        owner = msg.sender;\r\n    }\r\n\r\n    modifier onlyOwner() {\r\n        require(owner == msg.sender, \"You are not an owner\");\r\n        _;\r\n    }\r\n\r\n    modifier checkUser(address _address) {\r\n        require(_address == msg.sender, \"Address\");\r\n        _;\r\n    }\r\n\r\n    function registerUser(bytes32 _username, uint _role, address _userAddress) public onlyOwner {\r\n        userInfo[_userAddress].username = _username;\r\n        userInfo[_userAddress].role = Roles(_role);\r\n        userInfo[_userAddress].userAddress = _userAddress;\r\n        emit UserRegistered(_userAddress, _username);\r\n    }\r\n\r\n    function changeUserRole(uint _role, address _userAddress) public onlyOwner returns(string memory) {\r\n        userInfo[_userAddress].role = Roles(_role);\r\n        return \"Role Updated!\";\r\n    }\r\n\r\n    function getUserInfo(address _userAddress) external view onlyOwner returns(S_UserData memory) {\r\n        return userInfo[_userAddress];\r\n    }\r\n\r\n    function getUser() public view onlyOwner returns(string memory) {\r\n        return \"Beniamin\";\r\n    }\r\n}\r\n",
  "sourcePath": "/mnt/c/users/beniamin/source/repos/dissertationproject/contracts/User.sol",
  "compiler": {
    "name": "solc",
    "version": "0.8.9+commit.e5eed63a.Emscripten.clang"
  },
  "schemaVersion": "3.4.3",
  "updatedAt": "2021-10-27T09:36:40.425Z",
  "devdoc": {
    "kind": "dev",
    "methods": {},
    "version": 1
  },
  "userdoc": {
    "kind": "user",
    "methods": {},
    "version": 1
  }
}