{
  "contractName": "UserChain",
  "abi": [
    {
      "inputs": [],
      "stateMutability": "nonpayable",
      "type": "constructor"
    },
    {
      "anonymous": false,
      "inputs": [
        {
          "indexed": false,
          "internalType": "bytes32",
          "name": "_username",
          "type": "bytes32"
        },
        {
          "indexed": false,
          "internalType": "bytes32",
          "name": "_firstname",
          "type": "bytes32"
        },
        {
          "indexed": false,
          "internalType": "bytes32",
          "name": "_lastname",
          "type": "bytes32"
        },
        {
          "indexed": false,
          "internalType": "bytes32",
          "name": "_email",
          "type": "bytes32"
        },
        {
          "indexed": false,
          "internalType": "enum UserChain.Roles",
          "name": "_role",
          "type": "uint8"
        },
        {
          "indexed": false,
          "internalType": "address",
          "name": "_walletAddress",
          "type": "address"
        }
      ],
      "name": "UserChanges",
      "type": "event"
    },
    {
      "anonymous": false,
      "inputs": [
        {
          "indexed": true,
          "internalType": "address",
          "name": "_walletAddress",
          "type": "address"
        },
        {
          "indexed": true,
          "internalType": "bytes32",
          "name": "_username",
          "type": "bytes32"
        },
        {
          "indexed": false,
          "internalType": "bytes32",
          "name": "_email",
          "type": "bytes32"
        },
        {
          "indexed": false,
          "internalType": "bytes32",
          "name": "_firstname",
          "type": "bytes32"
        },
        {
          "indexed": false,
          "internalType": "bytes32",
          "name": "_lastname",
          "type": "bytes32"
        },
        {
          "indexed": true,
          "internalType": "enum UserChain.Roles",
          "name": "_role",
          "type": "uint8"
        }
      ],
      "name": "UserRegistered",
      "type": "event"
    },
    {
      "inputs": [
        {
          "internalType": "uint256",
          "name": "",
          "type": "uint256"
        }
      ],
      "name": "allUsers",
      "outputs": [
        {
          "internalType": "uint256",
          "name": "_index",
          "type": "uint256"
        },
        {
          "internalType": "bytes32",
          "name": "_username",
          "type": "bytes32"
        },
        {
          "internalType": "bytes32",
          "name": "_email",
          "type": "bytes32"
        },
        {
          "internalType": "bytes32",
          "name": "_firstname",
          "type": "bytes32"
        },
        {
          "internalType": "bytes32",
          "name": "_lastname",
          "type": "bytes32"
        },
        {
          "internalType": "enum UserChain.Roles",
          "name": "_role",
          "type": "uint8"
        },
        {
          "internalType": "address",
          "name": "_walletAddress",
          "type": "address"
        }
      ],
      "stateMutability": "view",
      "type": "function"
    },
    {
      "inputs": [],
      "name": "owner",
      "outputs": [
        {
          "internalType": "address",
          "name": "",
          "type": "address"
        }
      ],
      "stateMutability": "view",
      "type": "function"
    },
    {
      "inputs": [
        {
          "internalType": "address",
          "name": "",
          "type": "address"
        }
      ],
      "name": "users",
      "outputs": [
        {
          "internalType": "uint256",
          "name": "_index",
          "type": "uint256"
        },
        {
          "internalType": "bytes32",
          "name": "_username",
          "type": "bytes32"
        },
        {
          "internalType": "bytes32",
          "name": "_email",
          "type": "bytes32"
        },
        {
          "internalType": "bytes32",
          "name": "_firstname",
          "type": "bytes32"
        },
        {
          "internalType": "bytes32",
          "name": "_lastname",
          "type": "bytes32"
        },
        {
          "internalType": "enum UserChain.Roles",
          "name": "_role",
          "type": "uint8"
        },
        {
          "internalType": "address",
          "name": "_walletAddress",
          "type": "address"
        }
      ],
      "stateMutability": "view",
      "type": "function"
    },
    {
      "inputs": [],
      "name": "usersCounter",
      "outputs": [
        {
          "internalType": "uint256",
          "name": "",
          "type": "uint256"
        }
      ],
      "stateMutability": "view",
      "type": "function"
    },
    {
      "inputs": [
        {
          "internalType": "bytes32",
          "name": "_username",
          "type": "bytes32"
        },
        {
          "internalType": "bytes32",
          "name": "_email",
          "type": "bytes32"
        },
        {
          "internalType": "bytes32",
          "name": "_firstname",
          "type": "bytes32"
        },
        {
          "internalType": "bytes32",
          "name": "_lastname",
          "type": "bytes32"
        },
        {
          "internalType": "uint256",
          "name": "_role",
          "type": "uint256"
        },
        {
          "internalType": "address",
          "name": "_walletAddress",
          "type": "address"
        }
      ],
      "name": "registerUser",
      "outputs": [],
      "stateMutability": "nonpayable",
      "type": "function"
    },
    {
      "inputs": [
        {
          "internalType": "uint256",
          "name": "_role",
          "type": "uint256"
        },
        {
          "internalType": "address",
          "name": "_walletAddress",
          "type": "address"
        }
      ],
      "name": "changeUserRole",
      "outputs": [],
      "stateMutability": "nonpayable",
      "type": "function"
    },
    {
      "inputs": [],
      "name": "getAllUsers",
      "outputs": [
        {
          "components": [
            {
              "internalType": "uint256",
              "name": "_index",
              "type": "uint256"
            },
            {
              "internalType": "bytes32",
              "name": "_username",
              "type": "bytes32"
            },
            {
              "internalType": "bytes32",
              "name": "_email",
              "type": "bytes32"
            },
            {
              "internalType": "bytes32",
              "name": "_firstname",
              "type": "bytes32"
            },
            {
              "internalType": "bytes32",
              "name": "_lastname",
              "type": "bytes32"
            },
            {
              "internalType": "enum UserChain.Roles",
              "name": "_role",
              "type": "uint8"
            },
            {
              "internalType": "address",
              "name": "_walletAddress",
              "type": "address"
            }
          ],
          "internalType": "struct UserChain.User[]",
          "name": "",
          "type": "tuple[]"
        }
      ],
      "stateMutability": "view",
      "type": "function"
    },
    {
      "inputs": [
        {
          "internalType": "address",
          "name": "_walletAddress",
          "type": "address"
        }
      ],
      "name": "getUserInfo",
      "outputs": [
        {
          "components": [
            {
              "internalType": "uint256",
              "name": "_index",
              "type": "uint256"
            },
            {
              "internalType": "bytes32",
              "name": "_username",
              "type": "bytes32"
            },
            {
              "internalType": "bytes32",
              "name": "_email",
              "type": "bytes32"
            },
            {
              "internalType": "bytes32",
              "name": "_firstname",
              "type": "bytes32"
            },
            {
              "internalType": "bytes32",
              "name": "_lastname",
              "type": "bytes32"
            },
            {
              "internalType": "enum UserChain.Roles",
              "name": "_role",
              "type": "uint8"
            },
            {
              "internalType": "address",
              "name": "_walletAddress",
              "type": "address"
            }
          ],
          "internalType": "struct UserChain.User",
          "name": "",
          "type": "tuple"
        }
      ],
      "stateMutability": "view",
      "type": "function"
    }
  ],
  "bytecode": "0x6080604052600060035534801561001557600080fd5b50336000806101000a81548173ffffffffffffffffffffffffffffffffffffffff021916908373ffffffffffffffffffffffffffffffffffffffff16021790555061128a806100656000396000f3fe608060405234801561001057600080fd5b50600436106100885760003560e01c8063a87430ba1161005b578063a87430ba1461012d578063d67b1b9914610163578063d892e4c814610181578063e2842d791461019d57610088565b80636386c1c71461008d5780638da5cb5b146100bd57806391009786146100db578063a2bdedf4146100f7575b600080fd5b6100a760048036038101906100a29190610bd9565b6101bb565b6040516100b49190610d4c565b60405180910390f35b6100c56102d7565b6040516100d29190610d76565b60405180910390f35b6100f560048036038101906100f09190610dbd565b6102fb565b005b610111600480360381019061010c9190610dfd565b610422565b6040516101249796959493929190610e57565b60405180910390f35b61014760048036038101906101429190610bd9565b6104a1565b60405161015a9796959493929190610e57565b60405180910390f35b61016b610510565b6040516101789190610ec6565b60405180910390f35b61019b60048036038101906101969190610f0d565b610516565b005b6101a56109e3565b6040516101b291906110d7565b60405180910390f35b6101c3610b05565b600160008373ffffffffffffffffffffffffffffffffffffffff1673ffffffffffffffffffffffffffffffffffffffff1681526020019081526020016000206040518060e001604052908160008201548152602001600182015481526020016002820154815260200160038201548152602001600482015481526020016005820160009054906101000a900460ff16600381111561026457610263610c38565b5b600381111561027657610275610c38565b5b81526020016005820160019054906101000a900473ffffffffffffffffffffffffffffffffffffffff1673ffffffffffffffffffffffffffffffffffffffff1673ffffffffffffffffffffffffffffffffffffffff16815250509050919050565b60008054906101000a900473ffffffffffffffffffffffffffffffffffffffff1681565b81600381111561030e5761030d610c38565b5b600160008373ffffffffffffffffffffffffffffffffffffffff1673ffffffffffffffffffffffffffffffffffffffff16815260200190815260200160002060050160006101000a81548160ff0219169083600381111561037257610371610c38565b5b02179055506000600160008373ffffffffffffffffffffffffffffffffffffffff1673ffffffffffffffffffffffffffffffffffffffff1681526020019081526020016000206000015490508260038111156103d1576103d0610c38565b5b600282815481106103e5576103e46110f9565b5b906000526020600020906006020160050160006101000a81548160ff0219169083600381111561041857610417610c38565b5b0217905550505050565b6002818154811061043257600080fd5b90600052602060002090600602016000915090508060000154908060010154908060020154908060030154908060040154908060050160009054906101000a900460ff16908060050160019054906101000a900473ffffffffffffffffffffffffffffffffffffffff16905087565b60016020528060005260406000206000915090508060000154908060010154908060020154908060030154908060040154908060050160009054906101000a900460ff16908060050160019054906101000a900473ffffffffffffffffffffffffffffffffffffffff16905087565b60035481565b3373ffffffffffffffffffffffffffffffffffffffff1660008054906101000a900473ffffffffffffffffffffffffffffffffffffffff1673ffffffffffffffffffffffffffffffffffffffff16146105a4576040517f08c379a000000000000000000000000000000000000000000000000000000000815260040161059b90611185565b60405180910390fd5b600354600160008373ffffffffffffffffffffffffffffffffffffffff1673ffffffffffffffffffffffffffffffffffffffff1681526020019081526020016000206000018190555085600160008373ffffffffffffffffffffffffffffffffffffffff1673ffffffffffffffffffffffffffffffffffffffff1681526020019081526020016000206001018190555084600160008373ffffffffffffffffffffffffffffffffffffffff1673ffffffffffffffffffffffffffffffffffffffff1681526020019081526020016000206002018190555083600160008373ffffffffffffffffffffffffffffffffffffffff1673ffffffffffffffffffffffffffffffffffffffff1681526020019081526020016000206003018190555082600160008373ffffffffffffffffffffffffffffffffffffffff1673ffffffffffffffffffffffffffffffffffffffff1681526020019081526020016000206004018190555081600381111561071c5761071b610c38565b5b600160008373ffffffffffffffffffffffffffffffffffffffff1673ffffffffffffffffffffffffffffffffffffffff16815260200190815260200160002060050160006101000a81548160ff021916908360038111156107805761077f610c38565b5b021790555080600160008373ffffffffffffffffffffffffffffffffffffffff1673ffffffffffffffffffffffffffffffffffffffff16815260200190815260200160002060050160016101000a81548173ffffffffffffffffffffffffffffffffffffffff021916908373ffffffffffffffffffffffffffffffffffffffff16021790555081600381111561081957610818610c38565b5b600381111561082b5761082a610c38565b5b868273ffffffffffffffffffffffffffffffffffffffff167fbeea9d474a1b3ffdbc323f82fd679909c87968191b551f189f010d992cc34d95888888604051610876939291906111a5565b60405180910390a460026040518060e0016040528060035481526020018881526020018781526020018681526020018581526020018460038111156108be576108bd610c38565b5b60038111156108d0576108cf610c38565b5b81526020018373ffffffffffffffffffffffffffffffffffffffff168152509080600181540180825580915050600190039060005260206000209060060201600090919091909150600082015181600001556020820151816001015560408201518160020155606082015181600301556080820151816004015560a08201518160050160006101000a81548160ff0219169083600381111561097557610974610c38565b5b021790555060c08201518160050160016101000a81548173ffffffffffffffffffffffffffffffffffffffff021916908373ffffffffffffffffffffffffffffffffffffffff1602179055505050600360008154809291906109d69061120b565b9190505550505050505050565b60606002805480602002602001604051908101604052809291908181526020016000905b82821015610afc57838290600052602060002090600602016040518060e001604052908160008201548152602001600182015481526020016002820154815260200160038201548152602001600482015481526020016005820160009054906101000a900460ff166003811115610a8157610a80610c38565b5b6003811115610a9357610a92610c38565b5b81526020016005820160019054906101000a900473ffffffffffffffffffffffffffffffffffffffff1673ffffffffffffffffffffffffffffffffffffffff1673ffffffffffffffffffffffffffffffffffffffff168152505081526020019060010190610a07565b50505050905090565b6040518060e00160405280600081526020016000801916815260200160008019168152602001600080191681526020016000801916815260200160006003811115610b5357610b52610c38565b5b8152602001600073ffffffffffffffffffffffffffffffffffffffff1681525090565b600080fd5b600073ffffffffffffffffffffffffffffffffffffffff82169050919050565b6000610ba682610b7b565b9050919050565b610bb681610b9b565b8114610bc157600080fd5b50565b600081359050610bd381610bad565b92915050565b600060208284031215610bef57610bee610b76565b5b6000610bfd84828501610bc4565b91505092915050565b6000819050919050565b610c1981610c06565b82525050565b6000819050919050565b610c3281610c1f565b82525050565b7f4e487b7100000000000000000000000000000000000000000000000000000000600052602160045260246000fd5b60048110610c7857610c77610c38565b5b50565b6000819050610c8982610c67565b919050565b6000610c9982610c7b565b9050919050565b610ca981610c8e565b82525050565b610cb881610b9b565b82525050565b60e082016000820151610cd46000850182610c10565b506020820151610ce76020850182610c29565b506040820151610cfa6040850182610c29565b506060820151610d0d6060850182610c29565b506080820151610d206080850182610c29565b5060a0820151610d3360a0850182610ca0565b5060c0820151610d4660c0850182610caf565b50505050565b600060e082019050610d616000830184610cbe565b92915050565b610d7081610b9b565b82525050565b6000602082019050610d8b6000830184610d67565b92915050565b610d9a81610c06565b8114610da557600080fd5b50565b600081359050610db781610d91565b92915050565b60008060408385031215610dd457610dd3610b76565b5b6000610de285828601610da8565b9250506020610df385828601610bc4565b9150509250929050565b600060208284031215610e1357610e12610b76565b5b6000610e2184828501610da8565b91505092915050565b610e3381610c06565b82525050565b610e4281610c1f565b82525050565b610e5181610c8e565b82525050565b600060e082019050610e6c600083018a610e2a565b610e796020830189610e39565b610e866040830188610e39565b610e936060830187610e39565b610ea06080830186610e39565b610ead60a0830185610e48565b610eba60c0830184610d67565b98975050505050505050565b6000602082019050610edb6000830184610e2a565b92915050565b610eea81610c1f565b8114610ef557600080fd5b50565b600081359050610f0781610ee1565b92915050565b60008060008060008060c08789031215610f2a57610f29610b76565b5b6000610f3889828a01610ef8565b9650506020610f4989828a01610ef8565b9550506040610f5a89828a01610ef8565b9450506060610f6b89828a01610ef8565b9350506080610f7c89828a01610da8565b92505060a0610f8d89828a01610bc4565b9150509295509295509295565b600081519050919050565b600082825260208201905092915050565b6000819050602082019050919050565b60e082016000820151610fdc6000850182610c10565b506020820151610fef6020850182610c29565b5060408201516110026040850182610c29565b5060608201516110156060850182610c29565b5060808201516110286080850182610c29565b5060a082015161103b60a0850182610ca0565b5060c082015161104e60c0850182610caf565b50505050565b60006110608383610fc6565b60e08301905092915050565b6000602082019050919050565b600061108482610f9a565b61108e8185610fa5565b935061109983610fb6565b8060005b838110156110ca5781516110b18882611054565b97506110bc8361106c565b92505060018101905061109d565b5085935050505092915050565b600060208201905081810360008301526110f18184611079565b905092915050565b7f4e487b7100000000000000000000000000000000000000000000000000000000600052603260045260246000fd5b600082825260208201905092915050565b7f596f7520617265206e6f7420616e206f776e6572000000000000000000000000600082015250565b600061116f601483611128565b915061117a82611139565b602082019050919050565b6000602082019050818103600083015261119e81611162565b9050919050565b60006060820190506111ba6000830186610e39565b6111c76020830185610e39565b6111d46040830184610e39565b949350505050565b7f4e487b7100000000000000000000000000000000000000000000000000000000600052601160045260246000fd5b600061121682610c06565b91507fffffffffffffffffffffffffffffffffffffffffffffffffffffffffffffffff821415611249576112486111dc565b5b60018201905091905056fea2646970667358221220cb15635cbed28d56ce3c3394d315933f7d74f1a786faa460c61291eeb2cee27764736f6c634300080a0033",
  "immutableReferences": {},
  "source": "// SPDX-License-Identifier: MIT\r\npragma solidity >=0.8.0 <0.9.0;\r\n\r\ncontract UserChain {\r\n    address public owner;\r\n\r\n    mapping(address => User) public users;\r\n    User[] public allUsers;\r\n    uint256 public usersCounter = 0;\r\n\r\n    enum Roles {\r\n        DefaultRole,\r\n        ProjectInitiator,\r\n        CompanyBuilder,\r\n        ProjectSupervisor\r\n    }\r\n\r\n    struct User {\r\n        uint _index;\r\n        bytes32 _username;\r\n        bytes32 _email;\r\n        bytes32 _firstname;\r\n        bytes32 _lastname;\r\n        Roles _role;\r\n        address _walletAddress;\r\n    }\r\n\r\n    event UserRegistered(\r\n        address indexed _walletAddress,\r\n        bytes32 indexed _username,\r\n        bytes32 _email,\r\n        bytes32 _firstname,\r\n        bytes32 _lastname,\r\n        Roles indexed _role\r\n    );\r\n\r\n    event UserChanges(\r\n        bytes32 _username,\r\n        bytes32 _firstname,\r\n        bytes32 _lastname,\r\n        bytes32 _email,\r\n        Roles _role,\r\n        address _walletAddress\r\n    );\r\n\r\n    constructor() {\r\n        owner = msg.sender;\r\n    }\r\n\r\n    modifier onlyOwner() {\r\n        require(owner == msg.sender, \"You are not an owner\");\r\n        _;\r\n    }\r\n\r\n    modifier checkUser(address _address) {\r\n        require(_address == msg.sender, \"Address\");\r\n        _;\r\n    }\r\n\r\n    function registerUser(\r\n        bytes32 _username,\r\n        bytes32 _email,\r\n        bytes32 _firstname,\r\n        bytes32 _lastname,\r\n        uint256 _role,\r\n        address _walletAddress\r\n    ) public onlyOwner {\r\n        users[_walletAddress]._index = usersCounter;\r\n        users[_walletAddress]._username = _username;\r\n        users[_walletAddress]._email = _email;\r\n        users[_walletAddress]._firstname = _firstname;\r\n        users[_walletAddress]._lastname = _lastname;\r\n        users[_walletAddress]._role = Roles(_role);\r\n        users[_walletAddress]._walletAddress = _walletAddress;\r\n        emit UserRegistered(\r\n            _walletAddress,\r\n            _username,\r\n            _email,\r\n            _firstname,\r\n            _lastname,\r\n            Roles(_role)\r\n        );\r\n        allUsers.push(User(usersCounter, _username, _email, _firstname, _lastname, Roles(_role), _walletAddress));\r\n        usersCounter++;\r\n    }\r\n\r\n    function changeUserRole(uint _role, address _walletAddress) public {\r\n        users[_walletAddress]._role = Roles(_role);\r\n        uint index = users[_walletAddress]._index;\r\n        allUsers[index]._role = Roles(_role);\r\n        /*\r\n            for (uint index = 0; index < allUsers.length; index++) {\r\n                if (allUsers[index]._walletAddress == _walletAddress) {\r\n                    allUsers[index]._role = Roles(_role);\r\n                }\r\n            }\r\n        */\r\n    }\r\n\r\n    function getAllUsers() public view returns (User[] memory) {\r\n        return allUsers;\r\n    }\r\n\r\n    function getUserInfo(address _walletAddress) public view returns (User memory) {\r\n        return users[_walletAddress];\r\n    }\r\n}\r\n",
  "sourcePath": "/mnt/c/users/beniamin/source/repos/dissertationproject/contracts/UserChain.sol",
  "compiler": {
    "name": "solc",
    "version": "0.8.10+commit.fc410830.Emscripten.clang"
  },
  "schemaVersion": "3.4.3",
  "updatedAt": "2021-11-21T08:17:34.673Z",
  "devdoc": {
    "kind": "dev",
    "methods": {},
    "version": 1
  },
  "userdoc": {
    "kind": "user",
    "methods": {},
    "version": 1
  }
}