{
  "contractName": "User",
  "abi": [
    {
      "inputs": [],
      "stateMutability": "nonpayable",
      "type": "constructor"
    },
    {
      "anonymous": false,
      "inputs": [
        {
          "indexed": true,
          "internalType": "address",
          "name": "_walletAddress",
          "type": "address"
        },
        {
          "indexed": false,
          "internalType": "bytes32",
          "name": "_username",
          "type": "bytes32"
        },
        {
          "indexed": false,
          "internalType": "bytes32",
          "name": "_email",
          "type": "bytes32"
        },
        {
          "indexed": false,
          "internalType": "bytes32",
          "name": "_firstname",
          "type": "bytes32"
        },
        {
          "indexed": false,
          "internalType": "bytes32",
          "name": "_lastname",
          "type": "bytes32"
        },
        {
          "indexed": false,
          "internalType": "enum User.Roles",
          "name": "_role",
          "type": "uint8"
        }
      ],
      "name": "UserRegistered",
      "type": "event"
    },
    {
      "inputs": [],
      "name": "owner",
      "outputs": [
        {
          "internalType": "address",
          "name": "",
          "type": "address"
        }
      ],
      "stateMutability": "view",
      "type": "function"
    },
    {
      "inputs": [
        {
          "internalType": "uint256",
          "name": "",
          "type": "uint256"
        }
      ],
      "name": "userIds",
      "outputs": [
        {
          "internalType": "uint256",
          "name": "",
          "type": "uint256"
        }
      ],
      "stateMutability": "view",
      "type": "function"
    },
    {
      "inputs": [
        {
          "internalType": "uint256",
          "name": "",
          "type": "uint256"
        }
      ],
      "name": "userInfo",
      "outputs": [
        {
          "internalType": "uint256",
          "name": "index",
          "type": "uint256"
        },
        {
          "internalType": "bytes32",
          "name": "username",
          "type": "bytes32"
        },
        {
          "internalType": "bytes32",
          "name": "email",
          "type": "bytes32"
        },
        {
          "internalType": "bytes32",
          "name": "firstname",
          "type": "bytes32"
        },
        {
          "internalType": "bytes32",
          "name": "lastname",
          "type": "bytes32"
        },
        {
          "internalType": "enum User.Roles",
          "name": "role",
          "type": "uint8"
        },
        {
          "internalType": "address",
          "name": "walletAddress",
          "type": "address"
        }
      ],
      "stateMutability": "view",
      "type": "function"
    },
    {
      "inputs": [],
      "name": "usersCount",
      "outputs": [
        {
          "internalType": "uint256",
          "name": "",
          "type": "uint256"
        }
      ],
      "stateMutability": "view",
      "type": "function"
    },
    {
      "inputs": [
        {
          "internalType": "bytes32",
          "name": "_username",
          "type": "bytes32"
        },
        {
          "internalType": "bytes32",
          "name": "_email",
          "type": "bytes32"
        },
        {
          "internalType": "bytes32",
          "name": "_firstname",
          "type": "bytes32"
        },
        {
          "internalType": "bytes32",
          "name": "_lastname",
          "type": "bytes32"
        },
        {
          "internalType": "uint256",
          "name": "_role",
          "type": "uint256"
        },
        {
          "internalType": "address",
          "name": "_walletAddress",
          "type": "address"
        }
      ],
      "name": "registerUser",
      "outputs": [],
      "stateMutability": "nonpayable",
      "type": "function"
    },
    {
      "inputs": [],
      "name": "getUserIds",
      "outputs": [
        {
          "internalType": "uint256[]",
          "name": "",
          "type": "uint256[]"
        }
      ],
      "stateMutability": "view",
      "type": "function"
    },
    {
      "inputs": [
        {
          "internalType": "uint256",
          "name": "_index",
          "type": "uint256"
        }
      ],
      "name": "getUserInfo",
      "outputs": [
        {
          "components": [
            {
              "internalType": "uint256",
              "name": "index",
              "type": "uint256"
            },
            {
              "internalType": "bytes32",
              "name": "username",
              "type": "bytes32"
            },
            {
              "internalType": "bytes32",
              "name": "email",
              "type": "bytes32"
            },
            {
              "internalType": "bytes32",
              "name": "firstname",
              "type": "bytes32"
            },
            {
              "internalType": "bytes32",
              "name": "lastname",
              "type": "bytes32"
            },
            {
              "internalType": "enum User.Roles",
              "name": "role",
              "type": "uint8"
            },
            {
              "internalType": "address",
              "name": "walletAddress",
              "type": "address"
            }
          ],
          "internalType": "struct User.S_UserData",
          "name": "",
          "type": "tuple"
        }
      ],
      "stateMutability": "view",
      "type": "function"
    }
  ],
  "bytecode": "0x6080604052600060025534801561001557600080fd5b5033600160006101000a81548173ffffffffffffffffffffffffffffffffffffffff021916908373ffffffffffffffffffffffffffffffffffffffff160217905550610c9f806100666000396000f3fe608060405234801561001057600080fd5b506004361061007d5760003560e01c80638da5cb5b1161005b5780638da5cb5b14610106578063d379dadf14610124578063d892e4c814610154578063e01da11e146101705761007d565b80634635fd681461008257806351d70bc4146100b25780636ba13a82146100e8575b600080fd5b61009c600480360381019061009791906106d4565b61018e565b6040516100a99190610710565b60405180910390f35b6100cc60048036038101906100c791906106d4565b6101b2565b6040516100df97969594939291906107fc565b60405180910390f35b6100f0610221565b6040516100fd9190610710565b60405180910390f35b61010e610227565b60405161011b919061086b565b60405180910390f35b61013e600480360381019061013991906106d4565b61024d565b60405161014b9190610950565b60405180910390f35b61016e600480360381019061016991906109c3565b61033c565b005b6101786105d0565b6040516101859190610aff565b60405180910390f35b6003818154811061019e57600080fd5b906000526020600020016000915090505481565b60006020528060005260406000206000915090508060000154908060010154908060020154908060030154908060040154908060050160009054906101000a900460ff16908060050160019054906101000a900473ffffffffffffffffffffffffffffffffffffffff16905087565b60025481565b600160009054906101000a900473ffffffffffffffffffffffffffffffffffffffff1681565b610255610628565b6000808381526020019081526020016000206040518060e001604052908160008201548152602001600182015481526020016002820154815260200160038201548152602001600482015481526020016005820160009054906101000a900460ff1660038111156102c9576102c8610744565b5b60038111156102db576102da610744565b5b81526020016005820160019054906101000a900473ffffffffffffffffffffffffffffffffffffffff1673ffffffffffffffffffffffffffffffffffffffff1673ffffffffffffffffffffffffffffffffffffffff16815250509050919050565b3373ffffffffffffffffffffffffffffffffffffffff16600160009054906101000a900473ffffffffffffffffffffffffffffffffffffffff1673ffffffffffffffffffffffffffffffffffffffff16146103cc576040517f08c379a00000000000000000000000000000000000000000000000000000000081526004016103c390610b7e565b60405180910390fd5b600254600080600254815260200190815260200160002060000181905550856000806002548152602001908152602001600020600101819055508560008060025481526020019081526020016000206001018190555084600080600254815260200190815260200160002060020181905550836000806002548152602001908152602001600020600301819055508260008060025481526020019081526020016000206004018190555081600381111561048957610488610744565b5b600080600254815260200190815260200160002060050160006101000a81548160ff021916908360038111156104c2576104c1610744565b5b021790555080600080600254815260200190815260200160002060050160016101000a81548173ffffffffffffffffffffffffffffffffffffffff021916908373ffffffffffffffffffffffffffffffffffffffff1602179055508073ffffffffffffffffffffffffffffffffffffffff167fbeea9d474a1b3ffdbc323f82fd679909c87968191b551f189f010d992cc34d958787878787600381111561056c5761056b610744565b5b60405161057d959493929190610b9e565b60405180910390a260036002549080600181540180825580915050600190039060005260206000200160009091909190915055600260008154809291906105c390610c20565b9190505550505050505050565b6060600380548060200260200160405190810160405280929190818152602001828054801561061e57602002820191906000526020600020905b81548152602001906001019080831161060a575b5050505050905090565b6040518060e0016040528060008152602001600080191681526020016000801916815260200160008019168152602001600080191681526020016000600381111561067657610675610744565b5b8152602001600073ffffffffffffffffffffffffffffffffffffffff1681525090565b600080fd5b6000819050919050565b6106b18161069e565b81146106bc57600080fd5b50565b6000813590506106ce816106a8565b92915050565b6000602082840312156106ea576106e9610699565b5b60006106f8848285016106bf565b91505092915050565b61070a8161069e565b82525050565b60006020820190506107256000830184610701565b92915050565b6000819050919050565b61073e8161072b565b82525050565b7f4e487b7100000000000000000000000000000000000000000000000000000000600052602160045260246000fd5b6004811061078457610783610744565b5b50565b600081905061079582610773565b919050565b60006107a582610787565b9050919050565b6107b58161079a565b82525050565b600073ffffffffffffffffffffffffffffffffffffffff82169050919050565b60006107e6826107bb565b9050919050565b6107f6816107db565b82525050565b600060e082019050610811600083018a610701565b61081e6020830189610735565b61082b6040830188610735565b6108386060830187610735565b6108456080830186610735565b61085260a08301856107ac565b61085f60c08301846107ed565b98975050505050505050565b600060208201905061088060008301846107ed565b92915050565b61088f8161069e565b82525050565b61089e8161072b565b82525050565b6108ad8161079a565b82525050565b6108bc816107db565b82525050565b60e0820160008201516108d86000850182610886565b5060208201516108eb6020850182610895565b5060408201516108fe6040850182610895565b5060608201516109116060850182610895565b5060808201516109246080850182610895565b5060a082015161093760a08501826108a4565b5060c082015161094a60c08501826108b3565b50505050565b600060e08201905061096560008301846108c2565b92915050565b6109748161072b565b811461097f57600080fd5b50565b6000813590506109918161096b565b92915050565b6109a0816107db565b81146109ab57600080fd5b50565b6000813590506109bd81610997565b92915050565b60008060008060008060c087890312156109e0576109df610699565b5b60006109ee89828a01610982565b96505060206109ff89828a01610982565b9550506040610a1089828a01610982565b9450506060610a2189828a01610982565b9350506080610a3289828a016106bf565b92505060a0610a4389828a016109ae565b9150509295509295509295565b600081519050919050565b600082825260208201905092915050565b6000819050602082019050919050565b6000610a888383610886565b60208301905092915050565b6000602082019050919050565b6000610aac82610a50565b610ab68185610a5b565b9350610ac183610a6c565b8060005b83811015610af2578151610ad98882610a7c565b9750610ae483610a94565b925050600181019050610ac5565b5085935050505092915050565b60006020820190508181036000830152610b198184610aa1565b905092915050565b600082825260208201905092915050565b7f596f7520617265206e6f7420616e206f776e6572000000000000000000000000600082015250565b6000610b68601483610b21565b9150610b7382610b32565b602082019050919050565b60006020820190508181036000830152610b9781610b5b565b9050919050565b600060a082019050610bb36000830188610735565b610bc06020830187610735565b610bcd6040830186610735565b610bda6060830185610735565b610be760808301846107ac565b9695505050505050565b7f4e487b7100000000000000000000000000000000000000000000000000000000600052601160045260246000fd5b6000610c2b8261069e565b91507fffffffffffffffffffffffffffffffffffffffffffffffffffffffffffffffff821415610c5e57610c5d610bf1565b5b60018201905091905056fea2646970667358221220c5242c0ba5e493d8a698e54318ab4709698bfcb6c6d9ee3468ee7f8f2f6eee4064736f6c63430008090033",
  "immutableReferences": {},
  "source": "// SPDX-License-Identifier: MIT\r\npragma solidity >=0.8.0 <0.9.0;\r\n\r\ncontract User {\r\n    mapping(uint256 => S_UserData) public userInfo;\r\n    address public owner;\r\n    uint256 public usersCount = 0;\r\n    uint256[] public userIds;\r\n\r\n    struct S_UserData {\r\n        uint256 index;\r\n        bytes32 username;\r\n        bytes32 email;\r\n        bytes32 firstname;\r\n        bytes32 lastname;\r\n        Roles role;\r\n        address walletAddress;\r\n    }\r\n\r\n    enum Roles {\r\n        DefaultRole,\r\n        ProjectInitiator,\r\n        CompanyBuilder,\r\n        ProjectSupervisor\r\n    }\r\n\r\n    event UserRegistered(\r\n        address indexed _walletAddress,\r\n        bytes32 _username,\r\n        bytes32 _email,\r\n        bytes32 _firstname,\r\n        bytes32 _lastname,\r\n        Roles _role\r\n    );\r\n\r\n    constructor() {\r\n        owner = msg.sender;\r\n    }\r\n\r\n    modifier onlyOwner() {\r\n        require(owner == msg.sender, \"You are not an owner\");\r\n        _;\r\n    }\r\n\r\n    modifier checkUser(address _address) {\r\n        //require(_address == msg.sender, \"Address\");\r\n        _;\r\n    }\r\n\r\n    function registerUser(\r\n        bytes32 _username,\r\n        bytes32 _email,\r\n        bytes32 _firstname,\r\n        bytes32 _lastname,\r\n        uint256 _role,\r\n        address _walletAddress\r\n    ) public onlyOwner {\r\n        userInfo[usersCount].index = usersCount;\r\n        userInfo[usersCount].username = _username;\r\n        userInfo[usersCount].username = _username;\r\n        userInfo[usersCount].email = _email;\r\n        userInfo[usersCount].firstname = _firstname;\r\n        userInfo[usersCount].lastname = _lastname;\r\n        userInfo[usersCount].role = Roles(_role);\r\n        userInfo[usersCount].walletAddress = _walletAddress;\r\n        emit UserRegistered(\r\n            _walletAddress,\r\n            _username,\r\n            _email,\r\n            _firstname,\r\n            _lastname,\r\n            Roles(_role)\r\n        );\r\n        userIds.push(usersCount);\r\n        usersCount++;\r\n    }\r\n\r\n    // function changeUserRole(uint _role, address _walletAddress) public onlyOwner returns(string memory) {\r\n    //     userInfo[_walletAddress].role = Roles(_role);\r\n    //     return \"Role Updated!\";\r\n    // }\r\n\r\n    function getUserIds() external view returns (uint256[] memory) {\r\n        return userIds;\r\n    }\r\n\r\n    function getUserInfo(uint256 _index)\r\n        external\r\n        view\r\n        returns (S_UserData memory)\r\n    {\r\n        return userInfo[_index];\r\n    }\r\n}\r\n",
  "sourcePath": "/mnt/c/users/beniamin/source/repos/dissertationproject/contracts/User.sol",
  "compiler": {
    "name": "solc",
    "version": "0.8.9+commit.e5eed63a.Emscripten.clang"
  },
  "schemaVersion": "3.4.3",
  "updatedAt": "2021-11-06T21:04:58.169Z",
  "devdoc": {
    "kind": "dev",
    "methods": {},
    "version": 1
  },
  "userdoc": {
    "kind": "user",
    "methods": {},
    "version": 1
  }
}