{
  "contractName": "UserChain",
  "abi": [
    {
      "inputs": [],
      "stateMutability": "nonpayable",
      "type": "constructor"
    },
    {
      "anonymous": false,
      "inputs": [
        {
          "components": [
            {
              "internalType": "uint256",
              "name": "_index",
              "type": "uint256"
            },
            {
              "internalType": "string",
              "name": "_name",
              "type": "string"
            },
            {
              "internalType": "enum SharedChain.ProjectStatus",
              "name": "_status",
              "type": "uint8"
            },
            {
              "internalType": "string",
              "name": "_ipfsFileCID",
              "type": "string"
            },
            {
              "internalType": "address",
              "name": "_projectAddress",
              "type": "address"
            },
            {
              "internalType": "address",
              "name": "_signerAddress",
              "type": "address"
            },
            {
              "internalType": "address",
              "name": "_companyAddress",
              "type": "address"
            },
            {
              "internalType": "bool",
              "name": "_assigned",
              "type": "bool"
            },
            {
              "internalType": "uint256",
              "name": "_timestamp",
              "type": "uint256"
            },
            {
              "internalType": "string",
              "name": "_signature",
              "type": "string"
            }
          ],
          "indexed": false,
          "internalType": "struct SharedChain.Project",
          "name": "_project",
          "type": "tuple"
        },
        {
          "indexed": true,
          "internalType": "address",
          "name": "_projectAddress",
          "type": "address"
        },
        {
          "indexed": true,
          "internalType": "address",
          "name": "_companyAddress",
          "type": "address"
        }
      ],
      "name": "ProjectEvent",
      "type": "event"
    },
    {
      "anonymous": false,
      "inputs": [
        {
          "components": [
            {
              "internalType": "uint256",
              "name": "_index",
              "type": "uint256"
            },
            {
              "internalType": "string",
              "name": "_title",
              "type": "string"
            },
            {
              "internalType": "string",
              "name": "_comments",
              "type": "string"
            },
            {
              "internalType": "enum SharedChain.ProjectStatus",
              "name": "_projectStatus",
              "type": "uint8"
            },
            {
              "internalType": "enum SharedChain.RequestStatus",
              "name": "_requestStatus",
              "type": "uint8"
            },
            {
              "internalType": "enum SharedChain.RequestType",
              "name": "_requestType",
              "type": "uint8"
            },
            {
              "internalType": "address",
              "name": "_projectAddress",
              "type": "address"
            },
            {
              "internalType": "address",
              "name": "_requestAddress",
              "type": "address"
            },
            {
              "internalType": "address",
              "name": "_signerAddress",
              "type": "address"
            },
            {
              "internalType": "uint256",
              "name": "_timestamp",
              "type": "uint256"
            },
            {
              "internalType": "string",
              "name": "_signature",
              "type": "string"
            }
          ],
          "indexed": false,
          "internalType": "struct SharedChain.Request",
          "name": "_request",
          "type": "tuple"
        },
        {
          "indexed": true,
          "internalType": "address",
          "name": "_requestAddress",
          "type": "address"
        },
        {
          "indexed": true,
          "internalType": "address",
          "name": "_projectAddress",
          "type": "address"
        }
      ],
      "name": "RequestEvent",
      "type": "event"
    },
    {
      "anonymous": false,
      "inputs": [
        {
          "components": [
            {
              "internalType": "bytes32",
              "name": "_firstname",
              "type": "bytes32"
            },
            {
              "internalType": "bytes32",
              "name": "_lastname",
              "type": "bytes32"
            },
            {
              "internalType": "enum SharedChain.Roles",
              "name": "_role",
              "type": "uint8"
            },
            {
              "internalType": "address",
              "name": "_walletAddress",
              "type": "address"
            },
            {
              "internalType": "uint256",
              "name": "_timestamp",
              "type": "uint256"
            }
          ],
          "indexed": false,
          "internalType": "struct SharedChain.User",
          "name": "_user",
          "type": "tuple"
        },
        {
          "indexed": true,
          "internalType": "address",
          "name": "_walletAddress",
          "type": "address"
        }
      ],
      "name": "UserEvent",
      "type": "event"
    },
    {
      "inputs": [],
      "name": "owner",
      "outputs": [
        {
          "internalType": "address",
          "name": "",
          "type": "address"
        }
      ],
      "stateMutability": "view",
      "type": "function"
    },
    {
      "inputs": [
        {
          "internalType": "address",
          "name": "",
          "type": "address"
        }
      ],
      "name": "users",
      "outputs": [
        {
          "internalType": "bytes32",
          "name": "_firstname",
          "type": "bytes32"
        },
        {
          "internalType": "bytes32",
          "name": "_lastname",
          "type": "bytes32"
        },
        {
          "internalType": "enum SharedChain.Roles",
          "name": "_role",
          "type": "uint8"
        },
        {
          "internalType": "address",
          "name": "_walletAddress",
          "type": "address"
        },
        {
          "internalType": "uint256",
          "name": "_timestamp",
          "type": "uint256"
        }
      ],
      "stateMutability": "view",
      "type": "function"
    },
    {
      "inputs": [],
      "name": "usersCounter",
      "outputs": [
        {
          "internalType": "uint256",
          "name": "",
          "type": "uint256"
        }
      ],
      "stateMutability": "view",
      "type": "function"
    },
    {
      "inputs": [
        {
          "internalType": "bytes32",
          "name": "_firstname",
          "type": "bytes32"
        },
        {
          "internalType": "bytes32",
          "name": "_lastname",
          "type": "bytes32"
        },
        {
          "internalType": "uint256",
          "name": "_role",
          "type": "uint256"
        },
        {
          "internalType": "address",
          "name": "_walletAddress",
          "type": "address"
        }
      ],
      "name": "registerUser",
      "outputs": [],
      "stateMutability": "nonpayable",
      "type": "function"
    },
    {
      "inputs": [
        {
          "internalType": "uint256",
          "name": "_role",
          "type": "uint256"
        },
        {
          "internalType": "address",
          "name": "_walletAddress",
          "type": "address"
        }
      ],
      "name": "changeUserRole",
      "outputs": [],
      "stateMutability": "nonpayable",
      "type": "function"
    },
    {
      "inputs": [],
      "name": "getAllUsers",
      "outputs": [
        {
          "components": [
            {
              "internalType": "bytes32",
              "name": "_firstname",
              "type": "bytes32"
            },
            {
              "internalType": "bytes32",
              "name": "_lastname",
              "type": "bytes32"
            },
            {
              "internalType": "enum SharedChain.Roles",
              "name": "_role",
              "type": "uint8"
            },
            {
              "internalType": "address",
              "name": "_walletAddress",
              "type": "address"
            },
            {
              "internalType": "uint256",
              "name": "_timestamp",
              "type": "uint256"
            }
          ],
          "internalType": "struct SharedChain.User[]",
          "name": "",
          "type": "tuple[]"
        }
      ],
      "stateMutability": "view",
      "type": "function"
    },
    {
      "inputs": [
        {
          "internalType": "address",
          "name": "_walletAddress",
          "type": "address"
        }
      ],
      "name": "getUserInfo",
      "outputs": [
        {
          "components": [
            {
              "internalType": "bytes32",
              "name": "_firstname",
              "type": "bytes32"
            },
            {
              "internalType": "bytes32",
              "name": "_lastname",
              "type": "bytes32"
            },
            {
              "internalType": "enum SharedChain.Roles",
              "name": "_role",
              "type": "uint8"
            },
            {
              "internalType": "address",
              "name": "_walletAddress",
              "type": "address"
            },
            {
              "internalType": "uint256",
              "name": "_timestamp",
              "type": "uint256"
            }
          ],
          "internalType": "struct SharedChain.User",
          "name": "",
          "type": "tuple"
        }
      ],
      "stateMutability": "view",
      "type": "function"
    }
  ],
  "bytecode": "0x6080604052336000806101000a81548173ffffffffffffffffffffffffffffffffffffffff021916908373ffffffffffffffffffffffffffffffffffffffff160217905550600060025534801561005557600080fd5b50611406806100656000396000f3fe608060405234801561001057600080fd5b506004361061007d5760003560e01c8063910097861161005b57806391009786146100ec578063a87430ba14610108578063d67b1b991461013c578063e2842d791461015a5761007d565b80633000d7f9146100825780636386c1c71461009e5780638da5cb5b146100ce575b600080fd5b61009c60048036038101906100979190610ca0565b610178565b005b6100b860048036038101906100b39190610d07565b6104bb565b6040516100c59190610e40565b60405180910390f35b6100d6610693565b6040516100e39190610e6a565b60405180910390f35b61010660048036038101906101019190610e85565b6106b7565b005b610122600480360381019061011d9190610d07565b610898565b604051610133959493929190610ef2565b60405180910390f35b6101446108fb565b6040516101519190610f45565b60405180910390f35b610162610901565b60405161016f9190611077565b60405180910390f35b8073ffffffffffffffffffffffffffffffffffffffff16600073ffffffffffffffffffffffffffffffffffffffff1614156101e8576040517f08c379a00000000000000000000000000000000000000000000000000000000081526004016101df906110f6565b60405180910390fd5b3373ffffffffffffffffffffffffffffffffffffffff1660008054906101000a900473ffffffffffffffffffffffffffffffffffffffff1673ffffffffffffffffffffffffffffffffffffffff1614610276576040517f08c379a000000000000000000000000000000000000000000000000000000000815260040161026d90611162565b60405180910390fd5b6040518060a001604052808581526020018481526020018360038111156102a05761029f610d43565b5b60038111156102b2576102b1610d43565b5b81526020018273ffffffffffffffffffffffffffffffffffffffff16815260200142815250600160008373ffffffffffffffffffffffffffffffffffffffff1673ffffffffffffffffffffffffffffffffffffffff168152602001908152602001600020600082015181600001556020820151816001015560408201518160020160006101000a81548160ff0219169083600381111561035557610354610d43565b5b021790555060608201518160020160016101000a81548173ffffffffffffffffffffffffffffffffffffffff021916908373ffffffffffffffffffffffffffffffffffffffff160217905550608082015181600301559050508073ffffffffffffffffffffffffffffffffffffffff167ff751778eb32087df58f173035147c2eac9aac89fdc2f83b1993a198606f56db1600160008473ffffffffffffffffffffffffffffffffffffffff1673ffffffffffffffffffffffffffffffffffffffff16815260200190815260200160002060405161043291906112df565b60405180910390a26003819080600181540180825580915050600190039060005260206000200160009091909190916101000a81548173ffffffffffffffffffffffffffffffffffffffff021916908373ffffffffffffffffffffffffffffffffffffffff160217905550600260008154809291906104b090611329565b919050555050505050565b6104c3610b74565b3373ffffffffffffffffffffffffffffffffffffffff16600160003373ffffffffffffffffffffffffffffffffffffffff1673ffffffffffffffffffffffffffffffffffffffff16815260200190815260200160002060020160019054906101000a900473ffffffffffffffffffffffffffffffffffffffff1673ffffffffffffffffffffffffffffffffffffffff1614610593576040517f08c379a000000000000000000000000000000000000000000000000000000000815260040161058a90611162565b60405180910390fd5b600160008373ffffffffffffffffffffffffffffffffffffffff1673ffffffffffffffffffffffffffffffffffffffff1681526020019081526020016000206040518060a001604052908160008201548152602001600182015481526020016002820160009054906101000a900460ff16600381111561061657610615610d43565b5b600381111561062857610627610d43565b5b81526020016002820160019054906101000a900473ffffffffffffffffffffffffffffffffffffffff1673ffffffffffffffffffffffffffffffffffffffff1673ffffffffffffffffffffffffffffffffffffffff1681526020016003820154815250509050919050565b60008054906101000a900473ffffffffffffffffffffffffffffffffffffffff1681565b3373ffffffffffffffffffffffffffffffffffffffff1660008054906101000a900473ffffffffffffffffffffffffffffffffffffffff1673ffffffffffffffffffffffffffffffffffffffff1614610745576040517f08c379a000000000000000000000000000000000000000000000000000000000815260040161073c90611162565b60405180910390fd5b81600381111561075857610757610d43565b5b600160008373ffffffffffffffffffffffffffffffffffffffff1673ffffffffffffffffffffffffffffffffffffffff16815260200190815260200160002060020160006101000a81548160ff021916908360038111156107bc576107bb610d43565b5b021790555042600160008373ffffffffffffffffffffffffffffffffffffffff1673ffffffffffffffffffffffffffffffffffffffff168152602001908152602001600020600301819055508073ffffffffffffffffffffffffffffffffffffffff167ff751778eb32087df58f173035147c2eac9aac89fdc2f83b1993a198606f56db1600160008473ffffffffffffffffffffffffffffffffffffffff1673ffffffffffffffffffffffffffffffffffffffff16815260200190815260200160002060405161088c91906112df565b60405180910390a25050565b60016020528060005260406000206000915090508060000154908060010154908060020160009054906101000a900460ff16908060020160019054906101000a900473ffffffffffffffffffffffffffffffffffffffff16908060030154905085565b60025481565b60603373ffffffffffffffffffffffffffffffffffffffff1660008054906101000a900473ffffffffffffffffffffffffffffffffffffffff1673ffffffffffffffffffffffffffffffffffffffff1614610991576040517f08c379a000000000000000000000000000000000000000000000000000000000815260040161098890611162565b60405180910390fd5b600060025467ffffffffffffffff8111156109af576109ae611372565b5b6040519080825280602002602001820160405280156109e857816020015b6109d5610b74565b8152602001906001900390816109cd5790505b50905060005b600254811015610b6c57600060038281548110610a0e57610a0d6113a1565b5b9060005260206000200160009054906101000a900473ffffffffffffffffffffffffffffffffffffffff1690506000600160008373ffffffffffffffffffffffffffffffffffffffff1673ffffffffffffffffffffffffffffffffffffffff1681526020019081526020016000209050806040518060a001604052908160008201548152602001600182015481526020016002820160009054906101000a900460ff166003811115610ac357610ac2610d43565b5b6003811115610ad557610ad4610d43565b5b81526020016002820160019054906101000a900473ffffffffffffffffffffffffffffffffffffffff1673ffffffffffffffffffffffffffffffffffffffff1673ffffffffffffffffffffffffffffffffffffffff168152602001600382015481525050848481518110610b4c57610b4b6113a1565b5b602002602001018190525050508080610b6490611329565b9150506109ee565b508091505090565b6040518060a00160405280600080191681526020016000801916815260200160006003811115610ba757610ba6610d43565b5b8152602001600073ffffffffffffffffffffffffffffffffffffffff168152602001600081525090565b600080fd5b6000819050919050565b610be981610bd6565b8114610bf457600080fd5b50565b600081359050610c0681610be0565b92915050565b6000819050919050565b610c1f81610c0c565b8114610c2a57600080fd5b50565b600081359050610c3c81610c16565b92915050565b600073ffffffffffffffffffffffffffffffffffffffff82169050919050565b6000610c6d82610c42565b9050919050565b610c7d81610c62565b8114610c8857600080fd5b50565b600081359050610c9a81610c74565b92915050565b60008060008060808587031215610cba57610cb9610bd1565b5b6000610cc887828801610bf7565b9450506020610cd987828801610bf7565b9350506040610cea87828801610c2d565b9250506060610cfb87828801610c8b565b91505092959194509250565b600060208284031215610d1d57610d1c610bd1565b5b6000610d2b84828501610c8b565b91505092915050565b610d3d81610bd6565b82525050565b7f4e487b7100000000000000000000000000000000000000000000000000000000600052602160045260246000fd5b60048110610d8357610d82610d43565b5b50565b6000819050610d9482610d72565b919050565b6000610da482610d86565b9050919050565b610db481610d99565b82525050565b610dc381610c62565b82525050565b610dd281610c0c565b82525050565b60a082016000820151610dee6000850182610d34565b506020820151610e016020850182610d34565b506040820151610e146040850182610dab565b506060820151610e276060850182610dba565b506080820151610e3a6080850182610dc9565b50505050565b600060a082019050610e556000830184610dd8565b92915050565b610e6481610c62565b82525050565b6000602082019050610e7f6000830184610e5b565b92915050565b60008060408385031215610e9c57610e9b610bd1565b5b6000610eaa85828601610c2d565b9250506020610ebb85828601610c8b565b9150509250929050565b610ece81610bd6565b82525050565b610edd81610d99565b82525050565b610eec81610c0c565b82525050565b600060a082019050610f076000830188610ec5565b610f146020830187610ec5565b610f216040830186610ed4565b610f2e6060830185610e5b565b610f3b6080830184610ee3565b9695505050505050565b6000602082019050610f5a6000830184610ee3565b92915050565b600081519050919050565b600082825260208201905092915050565b6000819050602082019050919050565b60a082016000820151610fa26000850182610d34565b506020820151610fb56020850182610d34565b506040820151610fc86040850182610dab565b506060820151610fdb6060850182610dba565b506080820151610fee6080850182610dc9565b50505050565b60006110008383610f8c565b60a08301905092915050565b6000602082019050919050565b600061102482610f60565b61102e8185610f6b565b935061103983610f7c565b8060005b8381101561106a5781516110518882610ff4565b975061105c8361100c565b92505060018101905061103d565b5085935050505092915050565b600060208201905081810360008301526110918184611019565b905092915050565b600082825260208201905092915050565b7f41646472657373206973206e6f742076616c69642e0000000000000000000000600082015250565b60006110e0601583611099565b91506110eb826110aa565b602082019050919050565b6000602082019050818103600083015261110f816110d3565b9050919050565b7f596f7520617265206e6f742074686520726967687420757365722e0000000000600082015250565b600061114c601b83611099565b915061115782611116565b602082019050919050565b6000602082019050818103600083015261117b8161113f565b9050919050565b60008160001c9050919050565b6000819050919050565b60006111ac6111a783611182565b61118f565b9050919050565b600060ff82169050919050565b60006111d36111ce83611182565b6111b3565b9050919050565b60008160081c9050919050565b600073ffffffffffffffffffffffffffffffffffffffff82169050919050565b600061121a611215836111da565b6111e7565b9050919050565b6000819050919050565b600061123e61123983611182565b611221565b9050919050565b60a08201600080830154905061125a81611199565b6112676000860182610d34565b506001830154905061127881611199565b6112856020860182610d34565b5060028301549050611296816111c0565b6112a36040860182610dab565b506112ad81611207565b6112ba6060860182610dba565b50600383015490506112cb8161122b565b6112d86080860182610dc9565b5050505050565b600060a0820190506112f46000830184611245565b92915050565b7f4e487b7100000000000000000000000000000000000000000000000000000000600052601160045260246000fd5b600061133482610c0c565b91507fffffffffffffffffffffffffffffffffffffffffffffffffffffffffffffffff821415611367576113666112fa565b5b600182019050919050565b7f4e487b7100000000000000000000000000000000000000000000000000000000600052604160045260246000fd5b7f4e487b7100000000000000000000000000000000000000000000000000000000600052603260045260246000fdfea26469706673582212205993418e64be71984ad8456be49b5c8cef9fc7a64cdd3e5b3aa1c0d0219fc60d64736f6c634300080a0033",
  "immutableReferences": {},
  "source": "// SPDX-License-Identifier: MIT\r\npragma solidity >=0.8.0 <0.9.0;\r\n\r\nimport './SharedChain.sol';\r\n\r\ncontract UserChain is SharedChain {\r\n    address public owner = msg.sender;\r\n\r\n    mapping(address => User) public users;\r\n    uint256 public usersCounter = 0;\r\n    address[] usersAddress;\r\n\r\n    constructor() {}\r\n\r\n    function registerUser(\r\n        bytes32 _firstname,\r\n        bytes32 _lastname,\r\n        uint256 _role,\r\n        address _walletAddress\r\n    ) public {\r\n        require(address(0x0) != _walletAddress, \"Address is not valid.\");\r\n        if (owner != msg.sender) revert(\"You are not the right user.\");\r\n\r\n        users[_walletAddress] = User(\r\n            _firstname, _lastname,\r\n            Roles(_role), _walletAddress, block.timestamp\r\n        );\r\n\r\n        emit UserEvent(users[_walletAddress], _walletAddress);\r\n        usersAddress.push(_walletAddress);\r\n        usersCounter++;\r\n    }\r\n\r\n    function changeUserRole(uint256 _role, address _walletAddress) public {\r\n        if (owner != msg.sender) revert(\"You are not the right user.\");\r\n\r\n        users[_walletAddress]._role = Roles(_role);\r\n        users[_walletAddress]._timestamp = block.timestamp;\r\n        emit UserEvent(users[_walletAddress], _walletAddress);\r\n    }\r\n\r\n    function getAllUsers() public view returns(User[] memory) {\r\n        if (owner != msg.sender) revert(\"You are not the right user.\");\r\n\r\n        User[] memory allUsers = new User[](usersCounter);\r\n        for (uint256 index = 0; index < usersCounter; index++) {\r\n            address _walletAddress = usersAddress[index];\r\n            User storage user = users[_walletAddress];\r\n            allUsers[index] = user;\r\n        }\r\n        return allUsers;\r\n    }\r\n\r\n    function getUserInfo(address _walletAddress) public view returns (User memory) {\r\n        if (users[msg.sender]._walletAddress != msg.sender) revert(\"You are not the right user.\");\r\n        return users[_walletAddress];\r\n    }\r\n}\r\n",
  "sourcePath": "/mnt/c/Users/Beniamin/source/repos/DissertationProject/contracts/UserChain.sol",
  "compiler": {
    "name": "solc",
    "version": "0.8.10+commit.fc410830.Emscripten.clang"
  },
  "schemaVersion": "3.4.3",
  "updatedAt": "2021-12-18T07:45:55.985Z",
  "devdoc": {
    "kind": "dev",
    "methods": {},
    "version": 1
  },
  "userdoc": {
    "kind": "user",
    "methods": {},
    "version": 1
  }
}