{
  "contractName": "UserChain",
  "abi": [
    {
      "inputs": [],
      "stateMutability": "nonpayable",
      "type": "constructor"
    },
    {
      "anonymous": false,
      "inputs": [
        {
          "indexed": false,
          "internalType": "string",
          "name": "_username",
          "type": "string"
        },
        {
          "indexed": false,
          "internalType": "string",
          "name": "_firstname",
          "type": "string"
        },
        {
          "indexed": false,
          "internalType": "string",
          "name": "_lastname",
          "type": "string"
        },
        {
          "indexed": false,
          "internalType": "string",
          "name": "_email",
          "type": "string"
        },
        {
          "indexed": false,
          "internalType": "enum UserChain.Roles",
          "name": "_role",
          "type": "uint8"
        },
        {
          "indexed": false,
          "internalType": "address",
          "name": "_walletAddress",
          "type": "address"
        }
      ],
      "name": "UserChanges",
      "type": "event"
    },
    {
      "anonymous": false,
      "inputs": [
        {
          "indexed": true,
          "internalType": "address",
          "name": "_walletAddress",
          "type": "address"
        },
        {
          "indexed": true,
          "internalType": "string",
          "name": "_username",
          "type": "string"
        },
        {
          "indexed": false,
          "internalType": "string",
          "name": "_email",
          "type": "string"
        },
        {
          "indexed": false,
          "internalType": "string",
          "name": "_firstname",
          "type": "string"
        },
        {
          "indexed": false,
          "internalType": "string",
          "name": "_lastname",
          "type": "string"
        },
        {
          "indexed": true,
          "internalType": "enum UserChain.Roles",
          "name": "_role",
          "type": "uint8"
        }
      ],
      "name": "UserRegistered",
      "type": "event"
    },
    {
      "inputs": [
        {
          "internalType": "uint256",
          "name": "",
          "type": "uint256"
        }
      ],
      "name": "allUsers",
      "outputs": [
        {
          "internalType": "uint256",
          "name": "_index",
          "type": "uint256"
        },
        {
          "internalType": "string",
          "name": "_username",
          "type": "string"
        },
        {
          "internalType": "string",
          "name": "_email",
          "type": "string"
        },
        {
          "internalType": "string",
          "name": "_firstname",
          "type": "string"
        },
        {
          "internalType": "string",
          "name": "_lastname",
          "type": "string"
        },
        {
          "internalType": "enum UserChain.Roles",
          "name": "_role",
          "type": "uint8"
        },
        {
          "internalType": "address",
          "name": "_walletAddress",
          "type": "address"
        }
      ],
      "stateMutability": "view",
      "type": "function"
    },
    {
      "inputs": [],
      "name": "owner",
      "outputs": [
        {
          "internalType": "address",
          "name": "",
          "type": "address"
        }
      ],
      "stateMutability": "view",
      "type": "function"
    },
    {
      "inputs": [
        {
          "internalType": "address",
          "name": "",
          "type": "address"
        }
      ],
      "name": "users",
      "outputs": [
        {
          "internalType": "uint256",
          "name": "_index",
          "type": "uint256"
        },
        {
          "internalType": "string",
          "name": "_username",
          "type": "string"
        },
        {
          "internalType": "string",
          "name": "_email",
          "type": "string"
        },
        {
          "internalType": "string",
          "name": "_firstname",
          "type": "string"
        },
        {
          "internalType": "string",
          "name": "_lastname",
          "type": "string"
        },
        {
          "internalType": "enum UserChain.Roles",
          "name": "_role",
          "type": "uint8"
        },
        {
          "internalType": "address",
          "name": "_walletAddress",
          "type": "address"
        }
      ],
      "stateMutability": "view",
      "type": "function"
    },
    {
      "inputs": [],
      "name": "usersCounter",
      "outputs": [
        {
          "internalType": "uint256",
          "name": "",
          "type": "uint256"
        }
      ],
      "stateMutability": "view",
      "type": "function"
    },
    {
      "inputs": [
        {
          "internalType": "string",
          "name": "_username",
          "type": "string"
        },
        {
          "internalType": "string",
          "name": "_email",
          "type": "string"
        },
        {
          "internalType": "string",
          "name": "_firstname",
          "type": "string"
        },
        {
          "internalType": "string",
          "name": "_lastname",
          "type": "string"
        },
        {
          "internalType": "uint256",
          "name": "_role",
          "type": "uint256"
        },
        {
          "internalType": "address",
          "name": "_walletAddress",
          "type": "address"
        }
      ],
      "name": "registerUser",
      "outputs": [],
      "stateMutability": "nonpayable",
      "type": "function"
    },
    {
      "inputs": [
        {
          "internalType": "uint256",
          "name": "_role",
          "type": "uint256"
        },
        {
          "internalType": "address",
          "name": "_walletAddress",
          "type": "address"
        }
      ],
      "name": "changeUserRole",
      "outputs": [],
      "stateMutability": "nonpayable",
      "type": "function"
    },
    {
      "inputs": [],
      "name": "getAllUsers",
      "outputs": [
        {
          "components": [
            {
              "internalType": "uint256",
              "name": "_index",
              "type": "uint256"
            },
            {
              "internalType": "string",
              "name": "_username",
              "type": "string"
            },
            {
              "internalType": "string",
              "name": "_email",
              "type": "string"
            },
            {
              "internalType": "string",
              "name": "_firstname",
              "type": "string"
            },
            {
              "internalType": "string",
              "name": "_lastname",
              "type": "string"
            },
            {
              "internalType": "enum UserChain.Roles",
              "name": "_role",
              "type": "uint8"
            },
            {
              "internalType": "address",
              "name": "_walletAddress",
              "type": "address"
            }
          ],
          "internalType": "struct UserChain.User[]",
          "name": "",
          "type": "tuple[]"
        }
      ],
      "stateMutability": "view",
      "type": "function"
    },
    {
      "inputs": [
        {
          "internalType": "address",
          "name": "_walletAddress",
          "type": "address"
        }
      ],
      "name": "getUserInfo",
      "outputs": [
        {
          "components": [
            {
              "internalType": "uint256",
              "name": "_index",
              "type": "uint256"
            },
            {
              "internalType": "string",
              "name": "_username",
              "type": "string"
            },
            {
              "internalType": "string",
              "name": "_email",
              "type": "string"
            },
            {
              "internalType": "string",
              "name": "_firstname",
              "type": "string"
            },
            {
              "internalType": "string",
              "name": "_lastname",
              "type": "string"
            },
            {
              "internalType": "enum UserChain.Roles",
              "name": "_role",
              "type": "uint8"
            },
            {
              "internalType": "address",
              "name": "_walletAddress",
              "type": "address"
            }
          ],
          "internalType": "struct UserChain.User",
          "name": "",
          "type": "tuple"
        }
      ],
      "stateMutability": "view",
      "type": "function"
    }
  ],
  "bytecode": "0x6080604052600060035534801561001557600080fd5b50336000806101000a81548173ffffffffffffffffffffffffffffffffffffffff021916908373ffffffffffffffffffffffffffffffffffffffff160217905550611fb9806100656000396000f3fe608060405234801561001057600080fd5b50600436106100885760003560e01c8063a2bdedf41161005b578063a2bdedf414610113578063a87430ba14610149578063d67b1b991461017f578063e2842d791461019d57610088565b80636386c1c71461008d5780638da5cb5b146100bd57806391009786146100db578063911c29a6146100f7575b600080fd5b6100a760048036038101906100a291906115a0565b6101bb565b6040516100b491906117b6565b60405180910390f35b6100c56104f7565b6040516100d291906117e7565b60405180910390f35b6100f560048036038101906100f0919061182e565b61051b565b005b610111600480360381019061010c91906119a3565b610642565b005b61012d60048036038101906101289190611aa0565b610bb0565b6040516101409796959493929190611b35565b60405180910390f35b610163600480360381019061015e91906115a0565b610e4f565b6040516101769796959493929190611b35565b60405180910390f35b6101876110de565b6040516101949190611bc0565b60405180910390f35b6101a56110e4565b6040516101b29190611d4e565b60405180910390f35b6101c3611426565b600160008373ffffffffffffffffffffffffffffffffffffffff1673ffffffffffffffffffffffffffffffffffffffff1681526020019081526020016000206040518060e00160405290816000820154815260200160018201805461022790611d9f565b80601f016020809104026020016040519081016040528092919081815260200182805461025390611d9f565b80156102a05780601f10610275576101008083540402835291602001916102a0565b820191906000526020600020905b81548152906001019060200180831161028357829003601f168201915b505050505081526020016002820180546102b990611d9f565b80601f01602080910402602001604051908101604052809291908181526020018280546102e590611d9f565b80156103325780601f1061030757610100808354040283529160200191610332565b820191906000526020600020905b81548152906001019060200180831161031557829003601f168201915b5050505050815260200160038201805461034b90611d9f565b80601f016020809104026020016040519081016040528092919081815260200182805461037790611d9f565b80156103c45780601f10610399576101008083540402835291602001916103c4565b820191906000526020600020905b8154815290600101906020018083116103a757829003601f168201915b505050505081526020016004820180546103dd90611d9f565b80601f016020809104026020016040519081016040528092919081815260200182805461040990611d9f565b80156104565780601f1061042b57610100808354040283529160200191610456565b820191906000526020600020905b81548152906001019060200180831161043957829003601f168201915b505050505081526020016005820160009054906101000a900460ff1660038111156104845761048361167f565b5b60038111156104965761049561167f565b5b81526020016005820160019054906101000a900473ffffffffffffffffffffffffffffffffffffffff1673ffffffffffffffffffffffffffffffffffffffff1673ffffffffffffffffffffffffffffffffffffffff16815250509050919050565b60008054906101000a900473ffffffffffffffffffffffffffffffffffffffff1681565b81600381111561052e5761052d61167f565b5b600160008373ffffffffffffffffffffffffffffffffffffffff1673ffffffffffffffffffffffffffffffffffffffff16815260200190815260200160002060050160006101000a81548160ff021916908360038111156105925761059161167f565b5b02179055506000600160008373ffffffffffffffffffffffffffffffffffffffff1673ffffffffffffffffffffffffffffffffffffffff1681526020019081526020016000206000015490508260038111156105f1576105f061167f565b5b6002828154811061060557610604611dd1565b5b906000526020600020906006020160050160006101000a81548160ff021916908360038111156106385761063761167f565b5b0217905550505050565b3373ffffffffffffffffffffffffffffffffffffffff1660008054906101000a900473ffffffffffffffffffffffffffffffffffffffff1673ffffffffffffffffffffffffffffffffffffffff16146106d0576040517f08c379a00000000000000000000000000000000000000000000000000000000081526004016106c790611e4c565b60405180910390fd5b600354600160008373ffffffffffffffffffffffffffffffffffffffff1673ffffffffffffffffffffffffffffffffffffffff1681526020019081526020016000206000018190555085600160008373ffffffffffffffffffffffffffffffffffffffff1673ffffffffffffffffffffffffffffffffffffffff168152602001908152602001600020600101908051906020019061076f92919061148b565b5084600160008373ffffffffffffffffffffffffffffffffffffffff1673ffffffffffffffffffffffffffffffffffffffff16815260200190815260200160002060020190805190602001906107c692919061148b565b5083600160008373ffffffffffffffffffffffffffffffffffffffff1673ffffffffffffffffffffffffffffffffffffffff168152602001908152602001600020600301908051906020019061081d92919061148b565b5082600160008373ffffffffffffffffffffffffffffffffffffffff1673ffffffffffffffffffffffffffffffffffffffff168152602001908152602001600020600401908051906020019061087492919061148b565b508160038111156108885761088761167f565b5b600160008373ffffffffffffffffffffffffffffffffffffffff1673ffffffffffffffffffffffffffffffffffffffff16815260200190815260200160002060050160006101000a81548160ff021916908360038111156108ec576108eb61167f565b5b021790555080600160008373ffffffffffffffffffffffffffffffffffffffff1673ffffffffffffffffffffffffffffffffffffffff16815260200190815260200160002060050160016101000a81548173ffffffffffffffffffffffffffffffffffffffff021916908373ffffffffffffffffffffffffffffffffffffffff1602179055508160038111156109855761098461167f565b5b60038111156109975761099661167f565b5b866040516109a59190611ea8565b60405180910390208273ffffffffffffffffffffffffffffffffffffffff167fddb5d1667467713eb503e7e133811c91a231cb6b63f11930889c6004f36c35ee8888886040516109f793929190611ebf565b60405180910390a460026040518060e001604052806003548152602001888152602001878152602001868152602001858152602001846003811115610a3f57610a3e61167f565b5b6003811115610a5157610a5061167f565b5b81526020018373ffffffffffffffffffffffffffffffffffffffff168152509080600181540180825580915050600190039060005260206000209060060201600090919091909150600082015181600001556020820151816001019080519060200190610abf92919061148b565b506040820151816002019080519060200190610adc92919061148b565b506060820151816003019080519060200190610af992919061148b565b506080820151816004019080519060200190610b1692919061148b565b5060a08201518160050160006101000a81548160ff02191690836003811115610b4257610b4161167f565b5b021790555060c08201518160050160016101000a81548173ffffffffffffffffffffffffffffffffffffffff021916908373ffffffffffffffffffffffffffffffffffffffff160217905550505060036000815480929190610ba390611f3a565b9190505550505050505050565b60028181548110610bc057600080fd5b9060005260206000209060060201600091509050806000015490806001018054610be990611d9f565b80601f0160208091040260200160405190810160405280929190818152602001828054610c1590611d9f565b8015610c625780601f10610c3757610100808354040283529160200191610c62565b820191906000526020600020905b815481529060010190602001808311610c4557829003601f168201915b505050505090806002018054610c7790611d9f565b80601f0160208091040260200160405190810160405280929190818152602001828054610ca390611d9f565b8015610cf05780601f10610cc557610100808354040283529160200191610cf0565b820191906000526020600020905b815481529060010190602001808311610cd357829003601f168201915b505050505090806003018054610d0590611d9f565b80601f0160208091040260200160405190810160405280929190818152602001828054610d3190611d9f565b8015610d7e5780601f10610d5357610100808354040283529160200191610d7e565b820191906000526020600020905b815481529060010190602001808311610d6157829003601f168201915b505050505090806004018054610d9390611d9f565b80601f0160208091040260200160405190810160405280929190818152602001828054610dbf90611d9f565b8015610e0c5780601f10610de157610100808354040283529160200191610e0c565b820191906000526020600020905b815481529060010190602001808311610def57829003601f168201915b5050505050908060050160009054906101000a900460ff16908060050160019054906101000a900473ffffffffffffffffffffffffffffffffffffffff16905087565b6001602052806000526040600020600091509050806000015490806001018054610e7890611d9f565b80601f0160208091040260200160405190810160405280929190818152602001828054610ea490611d9f565b8015610ef15780601f10610ec657610100808354040283529160200191610ef1565b820191906000526020600020905b815481529060010190602001808311610ed457829003601f168201915b505050505090806002018054610f0690611d9f565b80601f0160208091040260200160405190810160405280929190818152602001828054610f3290611d9f565b8015610f7f5780601f10610f5457610100808354040283529160200191610f7f565b820191906000526020600020905b815481529060010190602001808311610f6257829003601f168201915b505050505090806003018054610f9490611d9f565b80601f0160208091040260200160405190810160405280929190818152602001828054610fc090611d9f565b801561100d5780601f10610fe25761010080835404028352916020019161100d565b820191906000526020600020905b815481529060010190602001808311610ff057829003601f168201915b50505050509080600401805461102290611d9f565b80601f016020809104026020016040519081016040528092919081815260200182805461104e90611d9f565b801561109b5780601f106110705761010080835404028352916020019161109b565b820191906000526020600020905b81548152906001019060200180831161107e57829003601f168201915b5050505050908060050160009054906101000a900460ff16908060050160019054906101000a900473ffffffffffffffffffffffffffffffffffffffff16905087565b60035481565b60606002805480602002602001604051908101604052809291908181526020016000905b8282101561141d57838290600052602060002090600602016040518060e00160405290816000820154815260200160018201805461114590611d9f565b80601f016020809104026020016040519081016040528092919081815260200182805461117190611d9f565b80156111be5780601f10611193576101008083540402835291602001916111be565b820191906000526020600020905b8154815290600101906020018083116111a157829003601f168201915b505050505081526020016002820180546111d790611d9f565b80601f016020809104026020016040519081016040528092919081815260200182805461120390611d9f565b80156112505780601f1061122557610100808354040283529160200191611250565b820191906000526020600020905b81548152906001019060200180831161123357829003601f168201915b5050505050815260200160038201805461126990611d9f565b80601f016020809104026020016040519081016040528092919081815260200182805461129590611d9f565b80156112e25780601f106112b7576101008083540402835291602001916112e2565b820191906000526020600020905b8154815290600101906020018083116112c557829003601f168201915b505050505081526020016004820180546112fb90611d9f565b80601f016020809104026020016040519081016040528092919081815260200182805461132790611d9f565b80156113745780601f1061134957610100808354040283529160200191611374565b820191906000526020600020905b81548152906001019060200180831161135757829003601f168201915b505050505081526020016005820160009054906101000a900460ff1660038111156113a2576113a161167f565b5b60038111156113b4576113b361167f565b5b81526020016005820160019054906101000a900473ffffffffffffffffffffffffffffffffffffffff1673ffffffffffffffffffffffffffffffffffffffff1673ffffffffffffffffffffffffffffffffffffffff168152505081526020019060010190611108565b50505050905090565b6040518060e001604052806000815260200160608152602001606081526020016060815260200160608152602001600060038111156114685761146761167f565b5b8152602001600073ffffffffffffffffffffffffffffffffffffffff1681525090565b82805461149790611d9f565b90600052602060002090601f0160209004810192826114b95760008555611500565b82601f106114d257805160ff1916838001178555611500565b82800160010185558215611500579182015b828111156114ff5782518255916020019190600101906114e4565b5b50905061150d9190611511565b5090565b5b8082111561152a576000816000905550600101611512565b5090565b6000604051905090565b600080fd5b600080fd5b600073ffffffffffffffffffffffffffffffffffffffff82169050919050565b600061156d82611542565b9050919050565b61157d81611562565b811461158857600080fd5b50565b60008135905061159a81611574565b92915050565b6000602082840312156115b6576115b5611538565b5b60006115c48482850161158b565b91505092915050565b6000819050919050565b6115e0816115cd565b82525050565b600081519050919050565b600082825260208201905092915050565b60005b83811015611620578082015181840152602081019050611605565b8381111561162f576000848401525b50505050565b6000601f19601f8301169050919050565b6000611651826115e6565b61165b81856115f1565b935061166b818560208601611602565b61167481611635565b840191505092915050565b7f4e487b7100000000000000000000000000000000000000000000000000000000600052602160045260246000fd5b600481106116bf576116be61167f565b5b50565b60008190506116d0826116ae565b919050565b60006116e0826116c2565b9050919050565b6116f0816116d5565b82525050565b6116ff81611562565b82525050565b600060e08301600083015161171d60008601826115d7565b50602083015184820360208601526117358282611646565b9150506040830151848203604086015261174f8282611646565b915050606083015184820360608601526117698282611646565b915050608083015184820360808601526117838282611646565b91505060a083015161179860a08601826116e7565b5060c08301516117ab60c08601826116f6565b508091505092915050565b600060208201905081810360008301526117d08184611705565b905092915050565b6117e181611562565b82525050565b60006020820190506117fc60008301846117d8565b92915050565b61180b816115cd565b811461181657600080fd5b50565b60008135905061182881611802565b92915050565b6000806040838503121561184557611844611538565b5b600061185385828601611819565b92505060206118648582860161158b565b9150509250929050565b600080fd5b600080fd5b7f4e487b7100000000000000000000000000000000000000000000000000000000600052604160045260246000fd5b6118b082611635565b810181811067ffffffffffffffff821117156118cf576118ce611878565b5b80604052505050565b60006118e261152e565b90506118ee82826118a7565b919050565b600067ffffffffffffffff82111561190e5761190d611878565b5b61191782611635565b9050602081019050919050565b82818337600083830152505050565b6000611946611941846118f3565b6118d8565b90508281526020810184848401111561196257611961611873565b5b61196d848285611924565b509392505050565b600082601f83011261198a5761198961186e565b5b813561199a848260208601611933565b91505092915050565b60008060008060008060c087890312156119c0576119bf611538565b5b600087013567ffffffffffffffff8111156119de576119dd61153d565b5b6119ea89828a01611975565b965050602087013567ffffffffffffffff811115611a0b57611a0a61153d565b5b611a1789828a01611975565b955050604087013567ffffffffffffffff811115611a3857611a3761153d565b5b611a4489828a01611975565b945050606087013567ffffffffffffffff811115611a6557611a6461153d565b5b611a7189828a01611975565b9350506080611a8289828a01611819565b92505060a0611a9389828a0161158b565b9150509295509295509295565b600060208284031215611ab657611ab5611538565b5b6000611ac484828501611819565b91505092915050565b611ad6816115cd565b82525050565b600082825260208201905092915050565b6000611af8826115e6565b611b028185611adc565b9350611b12818560208601611602565b611b1b81611635565b840191505092915050565b611b2f816116d5565b82525050565b600060e082019050611b4a600083018a611acd565b8181036020830152611b5c8189611aed565b90508181036040830152611b708188611aed565b90508181036060830152611b848187611aed565b90508181036080830152611b988186611aed565b9050611ba760a0830185611b26565b611bb460c08301846117d8565b98975050505050505050565b6000602082019050611bd56000830184611acd565b92915050565b600081519050919050565b600082825260208201905092915050565b6000819050602082019050919050565b600060e083016000830151611c1f60008601826115d7565b5060208301518482036020860152611c378282611646565b91505060408301518482036040860152611c518282611646565b91505060608301518482036060860152611c6b8282611646565b91505060808301518482036080860152611c858282611646565b91505060a0830151611c9a60a08601826116e7565b5060c0830151611cad60c08601826116f6565b508091505092915050565b6000611cc48383611c07565b905092915050565b6000602082019050919050565b6000611ce482611bdb565b611cee8185611be6565b935083602082028501611d0085611bf7565b8060005b85811015611d3c5784840389528151611d1d8582611cb8565b9450611d2883611ccc565b925060208a01995050600181019050611d04565b50829750879550505050505092915050565b60006020820190508181036000830152611d688184611cd9565b905092915050565b7f4e487b7100000000000000000000000000000000000000000000000000000000600052602260045260246000fd5b60006002820490506001821680611db757607f821691505b60208210811415611dcb57611dca611d70565b5b50919050565b7f4e487b7100000000000000000000000000000000000000000000000000000000600052603260045260246000fd5b7f596f7520617265206e6f7420616e206f776e6572000000000000000000000000600082015250565b6000611e36601483611adc565b9150611e4182611e00565b602082019050919050565b60006020820190508181036000830152611e6581611e29565b9050919050565b600081905092915050565b6000611e82826115e6565b611e8c8185611e6c565b9350611e9c818560208601611602565b80840191505092915050565b6000611eb48284611e77565b915081905092915050565b60006060820190508181036000830152611ed98186611aed565b90508181036020830152611eed8185611aed565b90508181036040830152611f018184611aed565b9050949350505050565b7f4e487b7100000000000000000000000000000000000000000000000000000000600052601160045260246000fd5b6000611f45826115cd565b91507fffffffffffffffffffffffffffffffffffffffffffffffffffffffffffffffff821415611f7857611f77611f0b565b5b60018201905091905056fea264697066735822122007f179e01d408e6ae73bf8f2619d9d066c8acdbdc259efd394ab6b86744c508e64736f6c634300080a0033",
  "immutableReferences": {},
  "source": "// SPDX-License-Identifier: MIT\r\npragma solidity >=0.8.0 <0.9.0;\r\n\r\ncontract UserChain {\r\n    address public owner;\r\n\r\n    mapping(address => User) public users;\r\n    User[] public allUsers;\r\n    uint256 public usersCounter = 0;\r\n\r\n    enum Roles {\r\n        DefaultRole,\r\n        ProjectInitiator,\r\n        CompanyBuilder,\r\n        ProjectSupervisor\r\n    }\r\n\r\n    struct User {\r\n        uint _index;\r\n        string _username;\r\n        string _email;\r\n        string _firstname;\r\n        string _lastname;\r\n        Roles _role;\r\n        address _walletAddress;\r\n    }\r\n\r\n    event UserRegistered(\r\n        address indexed _walletAddress,\r\n        string indexed _username,\r\n        string _email,\r\n        string _firstname,\r\n        string _lastname,\r\n        Roles indexed _role\r\n    );\r\n\r\n    event UserChanges(\r\n        string _username,\r\n        string _firstname,\r\n        string _lastname,\r\n        string _email,\r\n        Roles _role,\r\n        address _walletAddress\r\n    );\r\n\r\n    constructor() {\r\n        owner = msg.sender;\r\n    }\r\n\r\n    modifier onlyOwner() {\r\n        require(owner == msg.sender, \"You are not an owner\");\r\n        _;\r\n    }\r\n\r\n    modifier checkUser(address _address) {\r\n        require(_address == msg.sender, \"Address\");\r\n        _;\r\n    }\r\n\r\n    function registerUser(\r\n        string memory _username,\r\n        string memory _email,\r\n        string memory _firstname,\r\n        string memory _lastname,\r\n        uint256 _role,\r\n        address _walletAddress\r\n    ) public onlyOwner {\r\n        users[_walletAddress]._index = usersCounter;\r\n        users[_walletAddress]._username = _username;\r\n        users[_walletAddress]._email = _email;\r\n        users[_walletAddress]._firstname = _firstname;\r\n        users[_walletAddress]._lastname = _lastname;\r\n        users[_walletAddress]._role = Roles(_role);\r\n        users[_walletAddress]._walletAddress = _walletAddress;\r\n        emit UserRegistered(\r\n            _walletAddress,\r\n            _username,\r\n            _email,\r\n            _firstname,\r\n            _lastname,\r\n            Roles(_role)\r\n        );\r\n        allUsers.push(User(usersCounter, _username, _email, _firstname, _lastname, Roles(_role), _walletAddress));\r\n        usersCounter++;\r\n    }\r\n\r\n    function changeUserRole(uint _role, address _walletAddress) external {\r\n        users[_walletAddress]._role = Roles(_role);\r\n        uint index = users[_walletAddress]._index;\r\n        allUsers[index]._role = Roles(_role);\r\n        /*\r\n            for (uint index = 0; index < allUsers.length; index++) {\r\n                if (allUsers[index]._walletAddress == _walletAddress) {\r\n                    allUsers[index]._role = Roles(_role);\r\n                }\r\n            }\r\n        */\r\n    }\r\n\r\n    function getAllUsers() external view returns (User[] memory) {\r\n        return allUsers;\r\n    }\r\n\r\n    function getUserInfo(address _walletAddress) external view returns (User memory) {\r\n        return users[_walletAddress];\r\n    }\r\n}\r\n",
  "sourcePath": "/mnt/c/users/beniamin/source/repos/dissertationproject/contracts/UserChain.sol",
  "compiler": {
    "name": "solc",
    "version": "0.8.10+commit.fc410830.Emscripten.clang"
  },
  "schemaVersion": "3.4.3",
  "updatedAt": "2021-11-20T20:39:22.278Z",
  "devdoc": {
    "kind": "dev",
    "methods": {},
    "version": 1
  },
  "userdoc": {
    "kind": "user",
    "methods": {},
    "version": 1
  }
}