{
  "contractName": "User",
  "abi": [
    {
      "inputs": [],
      "stateMutability": "nonpayable",
      "type": "constructor"
    },
    {
      "anonymous": false,
      "inputs": [
        {
          "indexed": true,
          "internalType": "address",
          "name": "_address",
          "type": "address"
        },
        {
          "indexed": false,
          "internalType": "bytes32",
          "name": "username",
          "type": "bytes32"
        }
      ],
      "name": "UserRegistered",
      "type": "event"
    },
    {
      "inputs": [],
      "name": "owner",
      "outputs": [
        {
          "internalType": "address",
          "name": "",
          "type": "address"
        }
      ],
      "stateMutability": "view",
      "type": "function"
    },
    {
      "inputs": [
        {
          "internalType": "address",
          "name": "",
          "type": "address"
        }
      ],
      "name": "userInfo",
      "outputs": [
        {
          "internalType": "bytes32",
          "name": "_username",
          "type": "bytes32"
        },
        {
          "internalType": "enum User.Roles",
          "name": "_role",
          "type": "uint8"
        },
        {
          "internalType": "address",
          "name": "_userAddress",
          "type": "address"
        }
      ],
      "stateMutability": "view",
      "type": "function"
    },
    {
      "inputs": [
        {
          "internalType": "bytes32",
          "name": "_username",
          "type": "bytes32"
        },
        {
          "internalType": "uint256",
          "name": "_role",
          "type": "uint256"
        },
        {
          "internalType": "address",
          "name": "_userAddress",
          "type": "address"
        }
      ],
      "name": "registerUser",
      "outputs": [],
      "stateMutability": "nonpayable",
      "type": "function"
    },
    {
      "inputs": [
        {
          "internalType": "uint256",
          "name": "_role",
          "type": "uint256"
        },
        {
          "internalType": "address",
          "name": "_userAddress",
          "type": "address"
        }
      ],
      "name": "changeUserRole",
      "outputs": [
        {
          "internalType": "string",
          "name": "",
          "type": "string"
        }
      ],
      "stateMutability": "nonpayable",
      "type": "function"
    },
    {
      "inputs": [
        {
          "internalType": "address",
          "name": "_userAddress",
          "type": "address"
        }
      ],
      "name": "getUserInfo",
      "outputs": [
        {
          "components": [
            {
              "internalType": "bytes32",
              "name": "_username",
              "type": "bytes32"
            },
            {
              "internalType": "enum User.Roles",
              "name": "_role",
              "type": "uint8"
            },
            {
              "internalType": "address",
              "name": "_userAddress",
              "type": "address"
            }
          ],
          "internalType": "struct User.UserData",
          "name": "",
          "type": "tuple"
        }
      ],
      "stateMutability": "view",
      "type": "function"
    }
  ],
  "bytecode": "0x608060405234801561001057600080fd5b50336000806101000a81548173ffffffffffffffffffffffffffffffffffffffff021916908373ffffffffffffffffffffffffffffffffffffffff160217905550610b58806100606000396000f3fe608060405234801561001057600080fd5b50600436106100575760003560e01c80631959a0021461005c5780636386c1c71461008e5780638da5cb5b146100be57806391009786146100dc578063d3bca1d51461010c575b600080fd5b61007660048036038101906100719190610743565b610128565b6040516100859392919061080f565b60405180910390f35b6100a860048036038101906100a39190610743565b61017f565b6040516100b591906108b5565b60405180910390f35b6100c6610301565b6040516100d391906108d0565b60405180910390f35b6100f660048036038101906100f19190610921565b610325565b60405161010391906109fa565b60405180910390f35b61012660048036038101906101219190610a48565b61046f565b005b60016020528060005260406000206000915090508060000154908060010160009054906101000a900460ff16908060010160019054906101000a900473ffffffffffffffffffffffffffffffffffffffff16905083565b610187610694565b3373ffffffffffffffffffffffffffffffffffffffff1660008054906101000a900473ffffffffffffffffffffffffffffffffffffffff1673ffffffffffffffffffffffffffffffffffffffff1614610215576040517f08c379a000000000000000000000000000000000000000000000000000000000815260040161020c90610ae7565b60405180910390fd5b600160008373ffffffffffffffffffffffffffffffffffffffff1673ffffffffffffffffffffffffffffffffffffffff168152602001908152602001600020604051806060016040529081600082015481526020016001820160009054906101000a900460ff16600381111561028e5761028d610789565b5b60038111156102a05761029f610789565b5b81526020016001820160019054906101000a900473ffffffffffffffffffffffffffffffffffffffff1673ffffffffffffffffffffffffffffffffffffffff1673ffffffffffffffffffffffffffffffffffffffff16815250509050919050565b60008054906101000a900473ffffffffffffffffffffffffffffffffffffffff1681565b60603373ffffffffffffffffffffffffffffffffffffffff1660008054906101000a900473ffffffffffffffffffffffffffffffffffffffff1673ffffffffffffffffffffffffffffffffffffffff16146103b5576040517f08c379a00000000000000000000000000000000000000000000000000000000081526004016103ac90610ae7565b60405180910390fd5b8260038111156103c8576103c7610789565b5b600160008473ffffffffffffffffffffffffffffffffffffffff1673ffffffffffffffffffffffffffffffffffffffff16815260200190815260200160002060010160006101000a81548160ff0219169083600381111561042c5761042b610789565b5b02179055506040518060400160405280600d81526020017f526f6c6520557064617465642100000000000000000000000000000000000000815250905092915050565b3373ffffffffffffffffffffffffffffffffffffffff1660008054906101000a900473ffffffffffffffffffffffffffffffffffffffff1673ffffffffffffffffffffffffffffffffffffffff16146104fd576040517f08c379a00000000000000000000000000000000000000000000000000000000081526004016104f490610ae7565b60405180910390fd5b82600160008373ffffffffffffffffffffffffffffffffffffffff1673ffffffffffffffffffffffffffffffffffffffff1681526020019081526020016000206000018190555081600381111561055757610556610789565b5b600160008373ffffffffffffffffffffffffffffffffffffffff1673ffffffffffffffffffffffffffffffffffffffff16815260200190815260200160002060010160006101000a81548160ff021916908360038111156105bb576105ba610789565b5b021790555080600160008373ffffffffffffffffffffffffffffffffffffffff1673ffffffffffffffffffffffffffffffffffffffff16815260200190815260200160002060010160016101000a81548173ffffffffffffffffffffffffffffffffffffffff021916908373ffffffffffffffffffffffffffffffffffffffff1602179055508073ffffffffffffffffffffffffffffffffffffffff167f4c5d15f5779ae1ecd7d55bd3283d898e29c35743d172bd7b83a16e17bc0afe2a846040516106879190610b07565b60405180910390a2505050565b604051806060016040528060008019168152602001600060038111156106bd576106bc610789565b5b8152602001600073ffffffffffffffffffffffffffffffffffffffff1681525090565b600080fd5b600073ffffffffffffffffffffffffffffffffffffffff82169050919050565b6000610710826106e5565b9050919050565b61072081610705565b811461072b57600080fd5b50565b60008135905061073d81610717565b92915050565b600060208284031215610759576107586106e0565b5b60006107678482850161072e565b91505092915050565b6000819050919050565b61078381610770565b82525050565b7f4e487b7100000000000000000000000000000000000000000000000000000000600052602160045260246000fd5b600481106107c9576107c8610789565b5b50565b60008190506107da826107b8565b919050565b60006107ea826107cc565b9050919050565b6107fa816107df565b82525050565b61080981610705565b82525050565b6000606082019050610824600083018661077a565b61083160208301856107f1565b61083e6040830184610800565b949350505050565b61084f81610770565b82525050565b61085e816107df565b82525050565b61086d81610705565b82525050565b6060820160008201516108896000850182610846565b50602082015161089c6020850182610855565b5060408201516108af6040850182610864565b50505050565b60006060820190506108ca6000830184610873565b92915050565b60006020820190506108e56000830184610800565b92915050565b6000819050919050565b6108fe816108eb565b811461090957600080fd5b50565b60008135905061091b816108f5565b92915050565b60008060408385031215610938576109376106e0565b5b60006109468582860161090c565b92505060206109578582860161072e565b9150509250929050565b600081519050919050565b600082825260208201905092915050565b60005b8381101561099b578082015181840152602081019050610980565b838111156109aa576000848401525b50505050565b6000601f19601f8301169050919050565b60006109cc82610961565b6109d6818561096c565b93506109e681856020860161097d565b6109ef816109b0565b840191505092915050565b60006020820190508181036000830152610a1481846109c1565b905092915050565b610a2581610770565b8114610a3057600080fd5b50565b600081359050610a4281610a1c565b92915050565b600080600060608486031215610a6157610a606106e0565b5b6000610a6f86828701610a33565b9350506020610a808682870161090c565b9250506040610a918682870161072e565b9150509250925092565b7f4164647265737300000000000000000000000000000000000000000000000000600082015250565b6000610ad160078361096c565b9150610adc82610a9b565b602082019050919050565b60006020820190508181036000830152610b0081610ac4565b9050919050565b6000602082019050610b1c600083018461077a565b9291505056fea2646970667358221220de708e657d95fe8b3a2ada739e3b7c9c0e60bdb278e28630e9942620fbeafb6164736f6c63430008090033",
  "immutableReferences": {},
  "source": "// SPDX-License-Identifier: MIT\r\npragma solidity >=0.8.0 <0.9.0;\r\n\r\ncontract User {\r\n\r\n    address public owner;\r\n    mapping(address => UserData) public userInfo;\r\n\r\n    constructor() {\r\n        owner = msg.sender;\r\n    }\r\n\r\n    enum Roles {\r\n        DefaultRole,\r\n        ProjectInitiator,\r\n        CompanyBuilder,\r\n        ProjectSupervisor\r\n    }\r\n\r\n    struct UserData {\r\n        bytes32 _username;\r\n        Roles _role;\r\n        address _userAddress;\r\n    }\r\n\r\n    modifier onlyOwner() {\r\n        require(owner == msg.sender, \"Address\");\r\n        _;\r\n    }\r\n\r\n    modifier checkUser(address _address) {\r\n        require(_address == msg.sender, \"Address\");\r\n        _;\r\n    }\r\n\r\n    event UserRegistered(address indexed _address, bytes32 username);\r\n\r\n    function registerUser(bytes32 _username, uint _role, address _userAddress) public onlyOwner {\r\n        userInfo[_userAddress]._username = _username;\r\n        userInfo[_userAddress]._role = Roles(_role);\r\n        userInfo[_userAddress]._userAddress = _userAddress;\r\n        emit UserRegistered(_userAddress, _username);\r\n    }\r\n\r\n    function changeUserRole(uint _role, address _userAddress) public onlyOwner returns(string memory) {\r\n        userInfo[_userAddress]._role = Roles(_role);\r\n        return \"Role Updated!\";\r\n    }\r\n\r\n    function getUserInfo(address _userAddress) public view onlyOwner returns(UserData memory) {\r\n        return userInfo[_userAddress];\r\n    }\r\n}\r\n",
  "sourcePath": "/mnt/c/users/beniamin/source/repos/dissertationproject/contracts/User.sol",
  "compiler": {
    "name": "solc",
    "version": "0.8.9+commit.e5eed63a.Emscripten.clang"
  },
  "schemaVersion": "3.4.3",
  "updatedAt": "2021-10-22T05:55:10.282Z",
  "devdoc": {
    "kind": "dev",
    "methods": {},
    "version": 1
  },
  "userdoc": {
    "kind": "user",
    "methods": {},
    "version": 1
  }
}