{
  "contractName": "User",
  "abi": [
    {
      "inputs": [],
      "stateMutability": "nonpayable",
      "type": "constructor"
    },
    {
      "anonymous": false,
      "inputs": [
        {
          "indexed": false,
          "internalType": "string",
          "name": "username",
          "type": "string"
        },
        {
          "indexed": false,
          "internalType": "string",
          "name": "firstname",
          "type": "string"
        },
        {
          "indexed": false,
          "internalType": "string",
          "name": "lastname",
          "type": "string"
        },
        {
          "indexed": false,
          "internalType": "string",
          "name": "email",
          "type": "string"
        },
        {
          "indexed": false,
          "internalType": "enum User.Roles",
          "name": "role",
          "type": "uint8"
        },
        {
          "indexed": false,
          "internalType": "address",
          "name": "walletAddress",
          "type": "address"
        }
      ],
      "name": "UserChanges",
      "type": "event"
    },
    {
      "anonymous": false,
      "inputs": [
        {
          "indexed": true,
          "internalType": "address",
          "name": "_walletAddress",
          "type": "address"
        },
        {
          "indexed": true,
          "internalType": "string",
          "name": "_username",
          "type": "string"
        },
        {
          "indexed": false,
          "internalType": "string",
          "name": "_email",
          "type": "string"
        },
        {
          "indexed": false,
          "internalType": "string",
          "name": "_firstname",
          "type": "string"
        },
        {
          "indexed": false,
          "internalType": "string",
          "name": "_lastname",
          "type": "string"
        },
        {
          "indexed": true,
          "internalType": "enum User.Roles",
          "name": "_role",
          "type": "uint8"
        }
      ],
      "name": "UserRegistered",
      "type": "event"
    },
    {
      "inputs": [
        {
          "internalType": "uint256",
          "name": "",
          "type": "uint256"
        }
      ],
      "name": "allUsers",
      "outputs": [
        {
          "internalType": "string",
          "name": "username",
          "type": "string"
        },
        {
          "internalType": "string",
          "name": "email",
          "type": "string"
        },
        {
          "internalType": "string",
          "name": "firstname",
          "type": "string"
        },
        {
          "internalType": "string",
          "name": "lastname",
          "type": "string"
        },
        {
          "internalType": "enum User.Roles",
          "name": "role",
          "type": "uint8"
        },
        {
          "internalType": "address",
          "name": "walletAddress",
          "type": "address"
        }
      ],
      "stateMutability": "view",
      "type": "function"
    },
    {
      "inputs": [],
      "name": "owner",
      "outputs": [
        {
          "internalType": "address",
          "name": "",
          "type": "address"
        }
      ],
      "stateMutability": "view",
      "type": "function"
    },
    {
      "inputs": [
        {
          "internalType": "uint256",
          "name": "",
          "type": "uint256"
        }
      ],
      "name": "userAddresses",
      "outputs": [
        {
          "internalType": "address",
          "name": "",
          "type": "address"
        }
      ],
      "stateMutability": "view",
      "type": "function"
    },
    {
      "inputs": [
        {
          "internalType": "address",
          "name": "",
          "type": "address"
        }
      ],
      "name": "userInfo",
      "outputs": [
        {
          "internalType": "string",
          "name": "username",
          "type": "string"
        },
        {
          "internalType": "string",
          "name": "email",
          "type": "string"
        },
        {
          "internalType": "string",
          "name": "firstname",
          "type": "string"
        },
        {
          "internalType": "string",
          "name": "lastname",
          "type": "string"
        },
        {
          "internalType": "enum User.Roles",
          "name": "role",
          "type": "uint8"
        },
        {
          "internalType": "address",
          "name": "walletAddress",
          "type": "address"
        }
      ],
      "stateMutability": "view",
      "type": "function"
    },
    {
      "inputs": [],
      "name": "usersCount",
      "outputs": [
        {
          "internalType": "uint256",
          "name": "",
          "type": "uint256"
        }
      ],
      "stateMutability": "view",
      "type": "function"
    },
    {
      "inputs": [
        {
          "internalType": "string",
          "name": "_username",
          "type": "string"
        },
        {
          "internalType": "string",
          "name": "_email",
          "type": "string"
        },
        {
          "internalType": "string",
          "name": "_firstname",
          "type": "string"
        },
        {
          "internalType": "string",
          "name": "_lastname",
          "type": "string"
        },
        {
          "internalType": "uint256",
          "name": "_role",
          "type": "uint256"
        },
        {
          "internalType": "address",
          "name": "_walletAddress",
          "type": "address"
        }
      ],
      "name": "registerUser",
      "outputs": [],
      "stateMutability": "nonpayable",
      "type": "function"
    },
    {
      "inputs": [
        {
          "internalType": "uint256",
          "name": "_role",
          "type": "uint256"
        },
        {
          "internalType": "address",
          "name": "_walletAddress",
          "type": "address"
        }
      ],
      "name": "changeUserRole",
      "outputs": [
        {
          "internalType": "string",
          "name": "",
          "type": "string"
        }
      ],
      "stateMutability": "nonpayable",
      "type": "function"
    },
    {
      "inputs": [],
      "name": "getUserAddresses",
      "outputs": [
        {
          "internalType": "address[]",
          "name": "",
          "type": "address[]"
        }
      ],
      "stateMutability": "view",
      "type": "function"
    },
    {
      "inputs": [],
      "name": "getAllUsers",
      "outputs": [
        {
          "components": [
            {
              "internalType": "string",
              "name": "username",
              "type": "string"
            },
            {
              "internalType": "string",
              "name": "email",
              "type": "string"
            },
            {
              "internalType": "string",
              "name": "firstname",
              "type": "string"
            },
            {
              "internalType": "string",
              "name": "lastname",
              "type": "string"
            },
            {
              "internalType": "enum User.Roles",
              "name": "role",
              "type": "uint8"
            },
            {
              "internalType": "address",
              "name": "walletAddress",
              "type": "address"
            }
          ],
          "internalType": "struct User.S_UserData[]",
          "name": "",
          "type": "tuple[]"
        }
      ],
      "stateMutability": "view",
      "type": "function"
    },
    {
      "inputs": [
        {
          "internalType": "address",
          "name": "_address",
          "type": "address"
        }
      ],
      "name": "getUserInfo",
      "outputs": [
        {
          "components": [
            {
              "internalType": "string",
              "name": "username",
              "type": "string"
            },
            {
              "internalType": "string",
              "name": "email",
              "type": "string"
            },
            {
              "internalType": "string",
              "name": "firstname",
              "type": "string"
            },
            {
              "internalType": "string",
              "name": "lastname",
              "type": "string"
            },
            {
              "internalType": "enum User.Roles",
              "name": "role",
              "type": "uint8"
            },
            {
              "internalType": "address",
              "name": "walletAddress",
              "type": "address"
            }
          ],
          "internalType": "struct User.S_UserData",
          "name": "",
          "type": "tuple"
        }
      ],
      "stateMutability": "view",
      "type": "function"
    }
  ],
  "bytecode": "0x6080604052600060025534801561001557600080fd5b5033600160006101000a81548173ffffffffffffffffffffffffffffffffffffffff021916908373ffffffffffffffffffffffffffffffffffffffff1602179055506123f1806100666000396000f3fe608060405234801561001057600080fd5b506004361061009e5760003560e01c806391009786116100665780639100978614610174578063911c29a6146101a4578063a2bdedf4146101c0578063a591efde146101f5578063e2842d79146102135761009e565b80631959a002146100a3578063502c9bd5146100d85780636386c1c7146101085780636ba13a82146101385780638da5cb5b14610156575b600080fd5b6100bd60048036038101906100b89190611845565b610231565b6040516100cf96959493929190611991565b60405180910390f35b6100f260048036038101906100ed9190611a44565b6104ba565b6040516100ff9190611a71565b60405180910390f35b610122600480360381019061011d9190611845565b6104f9565b60405161012f9190611b92565b60405180910390f35b61014061082a565b60405161014d9190611bc3565b60405180910390f35b61015e610830565b60405161016b9190611a71565b60405180910390f35b61018e60048036038101906101899190611bde565b610856565b60405161019b9190611c1e565b60405180910390f35b6101be60048036038101906101b99190611d75565b610b01565b005b6101da60048036038101906101d59190611a44565b611073565b6040516101ec96959493929190611991565b60405180910390f35b6101fd61130c565b60405161020a9190611f21565b60405180910390f35b61021b61139a565b60405161022891906120a3565b60405180910390f35b6000602052806000526040600020600091509050806000018054610254906120f4565b80601f0160208091040260200160405190810160405280929190818152602001828054610280906120f4565b80156102cd5780601f106102a2576101008083540402835291602001916102cd565b820191906000526020600020905b8154815290600101906020018083116102b057829003601f168201915b5050505050908060010180546102e2906120f4565b80601f016020809104026020016040519081016040528092919081815260200182805461030e906120f4565b801561035b5780601f106103305761010080835404028352916020019161035b565b820191906000526020600020905b81548152906001019060200180831161033e57829003601f168201915b505050505090806002018054610370906120f4565b80601f016020809104026020016040519081016040528092919081815260200182805461039c906120f4565b80156103e95780601f106103be576101008083540402835291602001916103e9565b820191906000526020600020905b8154815290600101906020018083116103cc57829003601f168201915b5050505050908060030180546103fe906120f4565b80601f016020809104026020016040519081016040528092919081815260200182805461042a906120f4565b80156104775780601f1061044c57610100808354040283529160200191610477565b820191906000526020600020905b81548152906001019060200180831161045a57829003601f168201915b5050505050908060040160009054906101000a900460ff16908060040160019054906101000a900473ffffffffffffffffffffffffffffffffffffffff16905086565b600381815481106104ca57600080fd5b906000526020600020016000915054906101000a900473ffffffffffffffffffffffffffffffffffffffff1681565b6105016116d2565b6000808373ffffffffffffffffffffffffffffffffffffffff1673ffffffffffffffffffffffffffffffffffffffff1681526020019081526020016000206040518060c001604052908160008201805461055a906120f4565b80601f0160208091040260200160405190810160405280929190818152602001828054610586906120f4565b80156105d35780601f106105a8576101008083540402835291602001916105d3565b820191906000526020600020905b8154815290600101906020018083116105b657829003601f168201915b505050505081526020016001820180546105ec906120f4565b80601f0160208091040260200160405190810160405280929190818152602001828054610618906120f4565b80156106655780601f1061063a57610100808354040283529160200191610665565b820191906000526020600020905b81548152906001019060200180831161064857829003601f168201915b5050505050815260200160028201805461067e906120f4565b80601f01602080910402602001604051908101604052809291908181526020018280546106aa906120f4565b80156106f75780601f106106cc576101008083540402835291602001916106f7565b820191906000526020600020905b8154815290600101906020018083116106da57829003601f168201915b50505050508152602001600382018054610710906120f4565b80601f016020809104026020016040519081016040528092919081815260200182805461073c906120f4565b80156107895780601f1061075e57610100808354040283529160200191610789565b820191906000526020600020905b81548152906001019060200180831161076c57829003601f168201915b505050505081526020016004820160009054906101000a900460ff1660038111156107b7576107b661190b565b5b60038111156107c9576107c861190b565b5b81526020016004820160019054906101000a900473ffffffffffffffffffffffffffffffffffffffff1673ffffffffffffffffffffffffffffffffffffffff1673ffffffffffffffffffffffffffffffffffffffff16815250509050919050565b60025481565b600160009054906101000a900473ffffffffffffffffffffffffffffffffffffffff1681565b606082600381111561086b5761086a61190b565b5b6000808473ffffffffffffffffffffffffffffffffffffffff1673ffffffffffffffffffffffffffffffffffffffff16815260200190815260200160002060040160006101000a81548160ff021916908360038111156108ce576108cd61190b565b5b02179055507f1a3c779520e15f878f9eff134a72cf200f4361dde45a0d32a7eb989665bbfb286000808473ffffffffffffffffffffffffffffffffffffffff1673ffffffffffffffffffffffffffffffffffffffff1681526020019081526020016000206000016000808573ffffffffffffffffffffffffffffffffffffffff1673ffffffffffffffffffffffffffffffffffffffff1681526020019081526020016000206002016000808673ffffffffffffffffffffffffffffffffffffffff1673ffffffffffffffffffffffffffffffffffffffff1681526020019081526020016000206003016000808773ffffffffffffffffffffffffffffffffffffffff1673ffffffffffffffffffffffffffffffffffffffff1681526020019081526020016000206001016000808873ffffffffffffffffffffffffffffffffffffffff1673ffffffffffffffffffffffffffffffffffffffff16815260200190815260200160002060040160009054906101000a900460ff166000808973ffffffffffffffffffffffffffffffffffffffff1673ffffffffffffffffffffffffffffffffffffffff16815260200190815260200160002060040160019054906101000a900473ffffffffffffffffffffffffffffffffffffffff16604051610abb969594939291906121bb565b60405180910390a16040518060400160405280600d81526020017f526f6c6520557064617465642100000000000000000000000000000000000000815250905092915050565b3373ffffffffffffffffffffffffffffffffffffffff16600160009054906101000a900473ffffffffffffffffffffffffffffffffffffffff1673ffffffffffffffffffffffffffffffffffffffff1614610b91576040517f08c379a0000000000000000000000000000000000000000000000000000000008152600401610b8890612284565b60405180910390fd5b856000808373ffffffffffffffffffffffffffffffffffffffff1673ffffffffffffffffffffffffffffffffffffffff1681526020019081526020016000206000019080519060200190610be6929190611730565b50846000808373ffffffffffffffffffffffffffffffffffffffff1673ffffffffffffffffffffffffffffffffffffffff1681526020019081526020016000206001019080519060200190610c3c929190611730565b50836000808373ffffffffffffffffffffffffffffffffffffffff1673ffffffffffffffffffffffffffffffffffffffff1681526020019081526020016000206002019080519060200190610c92929190611730565b50826000808373ffffffffffffffffffffffffffffffffffffffff1673ffffffffffffffffffffffffffffffffffffffff1681526020019081526020016000206003019080519060200190610ce8929190611730565b50816003811115610cfc57610cfb61190b565b5b6000808373ffffffffffffffffffffffffffffffffffffffff1673ffffffffffffffffffffffffffffffffffffffff16815260200190815260200160002060040160006101000a81548160ff02191690836003811115610d5f57610d5e61190b565b5b0217905550806000808373ffffffffffffffffffffffffffffffffffffffff1673ffffffffffffffffffffffffffffffffffffffff16815260200190815260200160002060040160016101000a81548173ffffffffffffffffffffffffffffffffffffffff021916908373ffffffffffffffffffffffffffffffffffffffff160217905550816003811115610df757610df661190b565b5b6003811115610e0957610e0861190b565b5b86604051610e1791906122e0565b60405180910390208273ffffffffffffffffffffffffffffffffffffffff167fddb5d1667467713eb503e7e133811c91a231cb6b63f11930889c6004f36c35ee888888604051610e69939291906122f7565b60405180910390a46003819080600181540180825580915050600190039060005260206000200160009091909190916101000a81548173ffffffffffffffffffffffffffffffffffffffff021916908373ffffffffffffffffffffffffffffffffffffffff16021790555060046040518060c00160405280888152602001878152602001868152602001858152602001846003811115610f0c57610f0b61190b565b5b6003811115610f1e57610f1d61190b565b5b81526020018373ffffffffffffffffffffffffffffffffffffffff1681525090806001815401808255809150506001900390600052602060002090600502016000909190919091506000820151816000019080519060200190610f82929190611730565b506020820151816001019080519060200190610f9f929190611730565b506040820151816002019080519060200190610fbc929190611730565b506060820151816003019080519060200190610fd9929190611730565b5060808201518160040160006101000a81548160ff021916908360038111156110055761100461190b565b5b021790555060a08201518160040160016101000a81548173ffffffffffffffffffffffffffffffffffffffff021916908373ffffffffffffffffffffffffffffffffffffffff16021790555050506002600081548092919061106690612372565b9190505550505050505050565b6004818154811061108357600080fd5b90600052602060002090600502016000915090508060000180546110a6906120f4565b80601f01602080910402602001604051908101604052809291908181526020018280546110d2906120f4565b801561111f5780601f106110f45761010080835404028352916020019161111f565b820191906000526020600020905b81548152906001019060200180831161110257829003601f168201915b505050505090806001018054611134906120f4565b80601f0160208091040260200160405190810160405280929190818152602001828054611160906120f4565b80156111ad5780601f10611182576101008083540402835291602001916111ad565b820191906000526020600020905b81548152906001019060200180831161119057829003601f168201915b5050505050908060020180546111c2906120f4565b80601f01602080910402602001604051908101604052809291908181526020018280546111ee906120f4565b801561123b5780601f106112105761010080835404028352916020019161123b565b820191906000526020600020905b81548152906001019060200180831161121e57829003601f168201915b505050505090806003018054611250906120f4565b80601f016020809104026020016040519081016040528092919081815260200182805461127c906120f4565b80156112c95780601f1061129e576101008083540402835291602001916112c9565b820191906000526020600020905b8154815290600101906020018083116112ac57829003601f168201915b5050505050908060040160009054906101000a900460ff16908060040160019054906101000a900473ffffffffffffffffffffffffffffffffffffffff16905086565b6060600380548060200260200160405190810160405280929190818152602001828054801561139057602002820191906000526020600020905b8160009054906101000a900473ffffffffffffffffffffffffffffffffffffffff1673ffffffffffffffffffffffffffffffffffffffff1681526020019060010190808311611346575b5050505050905090565b60606004805480602002602001604051908101604052809291908181526020016000905b828210156116c957838290600052602060002090600502016040518060c00160405290816000820180546113f1906120f4565b80601f016020809104026020016040519081016040528092919081815260200182805461141d906120f4565b801561146a5780601f1061143f5761010080835404028352916020019161146a565b820191906000526020600020905b81548152906001019060200180831161144d57829003601f168201915b50505050508152602001600182018054611483906120f4565b80601f01602080910402602001604051908101604052809291908181526020018280546114af906120f4565b80156114fc5780601f106114d1576101008083540402835291602001916114fc565b820191906000526020600020905b8154815290600101906020018083116114df57829003601f168201915b50505050508152602001600282018054611515906120f4565b80601f0160208091040260200160405190810160405280929190818152602001828054611541906120f4565b801561158e5780601f106115635761010080835404028352916020019161158e565b820191906000526020600020905b81548152906001019060200180831161157157829003601f168201915b505050505081526020016003820180546115a7906120f4565b80601f01602080910402602001604051908101604052809291908181526020018280546115d3906120f4565b80156116205780601f106115f557610100808354040283529160200191611620565b820191906000526020600020905b81548152906001019060200180831161160357829003601f168201915b505050505081526020016004820160009054906101000a900460ff16600381111561164e5761164d61190b565b5b60038111156116605761165f61190b565b5b81526020016004820160019054906101000a900473ffffffffffffffffffffffffffffffffffffffff1673ffffffffffffffffffffffffffffffffffffffff1673ffffffffffffffffffffffffffffffffffffffff1681525050815260200190600101906113be565b50505050905090565b6040518060c00160405280606081526020016060815260200160608152602001606081526020016000600381111561170d5761170c61190b565b5b8152602001600073ffffffffffffffffffffffffffffffffffffffff1681525090565b82805461173c906120f4565b90600052602060002090601f01602090048101928261175e57600085556117a5565b82601f1061177757805160ff19168380011785556117a5565b828001600101855582156117a5579182015b828111156117a4578251825591602001919060010190611789565b5b5090506117b291906117b6565b5090565b5b808211156117cf5760008160009055506001016117b7565b5090565b6000604051905090565b600080fd5b600080fd5b600073ffffffffffffffffffffffffffffffffffffffff82169050919050565b6000611812826117e7565b9050919050565b61182281611807565b811461182d57600080fd5b50565b60008135905061183f81611819565b92915050565b60006020828403121561185b5761185a6117dd565b5b600061186984828501611830565b91505092915050565b600081519050919050565b600082825260208201905092915050565b60005b838110156118ac578082015181840152602081019050611891565b838111156118bb576000848401525b50505050565b6000601f19601f8301169050919050565b60006118dd82611872565b6118e7818561187d565b93506118f781856020860161188e565b611900816118c1565b840191505092915050565b7f4e487b7100000000000000000000000000000000000000000000000000000000600052602160045260246000fd5b6004811061194b5761194a61190b565b5b50565b600081905061195c8261193a565b919050565b600061196c8261194e565b9050919050565b61197c81611961565b82525050565b61198b81611807565b82525050565b600060c08201905081810360008301526119ab81896118d2565b905081810360208301526119bf81886118d2565b905081810360408301526119d381876118d2565b905081810360608301526119e781866118d2565b90506119f66080830185611973565b611a0360a0830184611982565b979650505050505050565b6000819050919050565b611a2181611a0e565b8114611a2c57600080fd5b50565b600081359050611a3e81611a18565b92915050565b600060208284031215611a5a57611a596117dd565b5b6000611a6884828501611a2f565b91505092915050565b6000602082019050611a866000830184611982565b92915050565b600082825260208201905092915050565b6000611aa882611872565b611ab28185611a8c565b9350611ac281856020860161188e565b611acb816118c1565b840191505092915050565b611adf81611961565b82525050565b611aee81611807565b82525050565b600060c0830160008301518482036000860152611b118282611a9d565b91505060208301518482036020860152611b2b8282611a9d565b91505060408301518482036040860152611b458282611a9d565b91505060608301518482036060860152611b5f8282611a9d565b9150506080830151611b746080860182611ad6565b5060a0830151611b8760a0860182611ae5565b508091505092915050565b60006020820190508181036000830152611bac8184611af4565b905092915050565b611bbd81611a0e565b82525050565b6000602082019050611bd86000830184611bb4565b92915050565b60008060408385031215611bf557611bf46117dd565b5b6000611c0385828601611a2f565b9250506020611c1485828601611830565b9150509250929050565b60006020820190508181036000830152611c3881846118d2565b905092915050565b600080fd5b600080fd5b7f4e487b7100000000000000000000000000000000000000000000000000000000600052604160045260246000fd5b611c82826118c1565b810181811067ffffffffffffffff82111715611ca157611ca0611c4a565b5b80604052505050565b6000611cb46117d3565b9050611cc08282611c79565b919050565b600067ffffffffffffffff821115611ce057611cdf611c4a565b5b611ce9826118c1565b9050602081019050919050565b82818337600083830152505050565b6000611d18611d1384611cc5565b611caa565b905082815260208101848484011115611d3457611d33611c45565b5b611d3f848285611cf6565b509392505050565b600082601f830112611d5c57611d5b611c40565b5b8135611d6c848260208601611d05565b91505092915050565b60008060008060008060c08789031215611d9257611d916117dd565b5b600087013567ffffffffffffffff811115611db057611daf6117e2565b5b611dbc89828a01611d47565b965050602087013567ffffffffffffffff811115611ddd57611ddc6117e2565b5b611de989828a01611d47565b955050604087013567ffffffffffffffff811115611e0a57611e096117e2565b5b611e1689828a01611d47565b945050606087013567ffffffffffffffff811115611e3757611e366117e2565b5b611e4389828a01611d47565b9350506080611e5489828a01611a2f565b92505060a0611e6589828a01611830565b9150509295509295509295565b600081519050919050565b600082825260208201905092915050565b6000819050602082019050919050565b6000611eaa8383611ae5565b60208301905092915050565b6000602082019050919050565b6000611ece82611e72565b611ed88185611e7d565b9350611ee383611e8e565b8060005b83811015611f14578151611efb8882611e9e565b9750611f0683611eb6565b925050600181019050611ee7565b5085935050505092915050565b60006020820190508181036000830152611f3b8184611ec3565b905092915050565b600081519050919050565b600082825260208201905092915050565b6000819050602082019050919050565b600060c0830160008301518482036000860152611f8c8282611a9d565b91505060208301518482036020860152611fa68282611a9d565b91505060408301518482036040860152611fc08282611a9d565b91505060608301518482036060860152611fda8282611a9d565b9150506080830151611fef6080860182611ad6565b5060a083015161200260a0860182611ae5565b508091505092915050565b60006120198383611f6f565b905092915050565b6000602082019050919050565b600061203982611f43565b6120438185611f4e565b93508360208202850161205585611f5f565b8060005b858110156120915784840389528151612072858261200d565b945061207d83612021565b925060208a01995050600181019050612059565b50829750879550505050505092915050565b600060208201905081810360008301526120bd818461202e565b905092915050565b7f4e487b7100000000000000000000000000000000000000000000000000000000600052602260045260246000fd5b6000600282049050600182168061210c57607f821691505b602082108114156121205761211f6120c5565b5b50919050565b60008190508160005260206000209050919050565b60008154612148816120f4565b612152818661187d565b9450600182166000811461216d576001811461217f576121b2565b60ff19831686526020860193506121b2565b61218885612126565b60005b838110156121aa5781548189015260018201915060208101905061218b565b808801955050505b50505092915050565b600060c08201905081810360008301526121d5818961213b565b905081810360208301526121e9818861213b565b905081810360408301526121fd818761213b565b90508181036060830152612211818661213b565b90506122206080830185611973565b61222d60a0830184611982565b979650505050505050565b7f596f7520617265206e6f7420616e206f776e6572000000000000000000000000600082015250565b600061226e60148361187d565b915061227982612238565b602082019050919050565b6000602082019050818103600083015261229d81612261565b9050919050565b600081905092915050565b60006122ba82611872565b6122c481856122a4565b93506122d481856020860161188e565b80840191505092915050565b60006122ec82846122af565b915081905092915050565b6000606082019050818103600083015261231181866118d2565b9050818103602083015261232581856118d2565b9050818103604083015261233981846118d2565b9050949350505050565b7f4e487b7100000000000000000000000000000000000000000000000000000000600052601160045260246000fd5b600061237d82611a0e565b91507fffffffffffffffffffffffffffffffffffffffffffffffffffffffffffffffff8214156123b0576123af612343565b5b60018201905091905056fea2646970667358221220d98b4889423a6c768b550d4668ea4c216380c5d7dac6177d05b251f23bbcf1f464736f6c634300080a0033",
  "immutableReferences": {},
  "source": "// SPDX-License-Identifier: MIT\r\npragma solidity >=0.8.0 <0.9.0;\r\n\r\ncontract User {\r\n    mapping(address => S_UserData) public userInfo;\r\n    address public owner;\r\n    uint256 public usersCount = 0;\r\n    address[] public userAddresses;\r\n\r\n    S_UserData[] public allUsers;\r\n\r\n    struct S_UserData {\r\n        string username;\r\n        string email;\r\n        string firstname;\r\n        string lastname;\r\n        Roles role;\r\n        address walletAddress;\r\n    }\r\n\r\n    enum Roles {\r\n        DefaultRole,\r\n        ProjectInitiator,\r\n        CompanyBuilder,\r\n        ProjectSupervisor\r\n    }\r\n\r\n    event UserRegistered(\r\n        address indexed _walletAddress,\r\n        string indexed _username,\r\n        string _email,\r\n        string _firstname,\r\n        string _lastname,\r\n        Roles indexed _role\r\n    );\r\n\r\n    event UserChanges(\r\n        string username,\r\n        string firstname,\r\n        string lastname,\r\n        string email,\r\n        Roles role,\r\n        address walletAddress\r\n    );\r\n\r\n    constructor() {\r\n        owner = msg.sender;\r\n    }\r\n\r\n    modifier onlyOwner() {\r\n        require(owner == msg.sender, \"You are not an owner\");\r\n        _;\r\n    }\r\n\r\n    modifier checkUser(address _address) {\r\n        require(_address == msg.sender, \"Address\");\r\n        _;\r\n    }\r\n\r\n    function registerUser(\r\n        string memory _username,\r\n        string memory _email,\r\n        string memory _firstname,\r\n        string memory _lastname,\r\n        uint256 _role,\r\n        address _walletAddress\r\n    ) public onlyOwner {\r\n        userInfo[_walletAddress].username = _username;\r\n        userInfo[_walletAddress].email = _email;\r\n        userInfo[_walletAddress].firstname = _firstname;\r\n        userInfo[_walletAddress].lastname = _lastname;\r\n        userInfo[_walletAddress].role = Roles(_role);\r\n        userInfo[_walletAddress].walletAddress = _walletAddress;\r\n        emit UserRegistered(\r\n            _walletAddress,\r\n            _username,\r\n            _email,\r\n            _firstname,\r\n            _lastname,\r\n            Roles(_role)\r\n        );\r\n        userAddresses.push(_walletAddress);\r\n        allUsers.push(S_UserData(_username, _email, _firstname, _lastname, Roles(_role), _walletAddress));\r\n        usersCount++;\r\n    }\r\n\r\n    function changeUserRole(uint _role, address _walletAddress) public returns(string memory) {\r\n        userInfo[_walletAddress].role = Roles(_role);\r\n        emit UserChanges(\r\n            userInfo[_walletAddress].username,\r\n            userInfo[_walletAddress].firstname,\r\n            userInfo[_walletAddress].lastname,\r\n            userInfo[_walletAddress].email,\r\n            userInfo[_walletAddress].role,\r\n            userInfo[_walletAddress].walletAddress\r\n        );\r\n        return \"Role Updated!\";\r\n    }\r\n\r\n    function getUserAddresses() external view returns (address[] memory) {\r\n        return userAddresses;\r\n    }\r\n\r\n    function getAllUsers() external view returns (S_UserData[] memory) {\r\n        return allUsers;\r\n    }\r\n\r\n    function getUserInfo(address _address)\r\n        external\r\n        view\r\n        returns (S_UserData memory)\r\n    {\r\n        return userInfo[_address];\r\n    }\r\n}\r\n",
  "sourcePath": "/mnt/c/users/beniamin/source/repos/dissertationproject/contracts/User.sol",
  "compiler": {
    "name": "solc",
    "version": "0.8.10+commit.fc410830.Emscripten.clang"
  },
  "schemaVersion": "3.4.3",
  "updatedAt": "2021-11-17T11:02:04.462Z",
  "devdoc": {
    "kind": "dev",
    "methods": {},
    "version": 1
  },
  "userdoc": {
    "kind": "user",
    "methods": {},
    "version": 1
  }
}