{
  "contractName": "User",
  "abi": [
    {
      "inputs": [],
      "stateMutability": "nonpayable",
      "type": "constructor"
    },
    {
      "anonymous": false,
      "inputs": [
        {
          "indexed": true,
          "internalType": "address",
          "name": "_walletAddress",
          "type": "address"
        },
        {
          "indexed": true,
          "internalType": "string",
          "name": "_username",
          "type": "string"
        },
        {
          "indexed": false,
          "internalType": "string",
          "name": "_email",
          "type": "string"
        },
        {
          "indexed": false,
          "internalType": "string",
          "name": "_firstname",
          "type": "string"
        },
        {
          "indexed": false,
          "internalType": "string",
          "name": "_lastname",
          "type": "string"
        },
        {
          "indexed": true,
          "internalType": "enum User.Roles",
          "name": "_role",
          "type": "uint8"
        }
      ],
      "name": "UserRegistered",
      "type": "event"
    },
    {
      "inputs": [],
      "name": "owner",
      "outputs": [
        {
          "internalType": "address",
          "name": "",
          "type": "address"
        }
      ],
      "stateMutability": "view",
      "type": "function"
    },
    {
      "inputs": [
        {
          "internalType": "uint256",
          "name": "",
          "type": "uint256"
        }
      ],
      "name": "userAddresses",
      "outputs": [
        {
          "internalType": "address",
          "name": "",
          "type": "address"
        }
      ],
      "stateMutability": "view",
      "type": "function"
    },
    {
      "inputs": [
        {
          "internalType": "address",
          "name": "",
          "type": "address"
        }
      ],
      "name": "userInfo",
      "outputs": [
        {
          "internalType": "string",
          "name": "username",
          "type": "string"
        },
        {
          "internalType": "string",
          "name": "email",
          "type": "string"
        },
        {
          "internalType": "string",
          "name": "firstname",
          "type": "string"
        },
        {
          "internalType": "string",
          "name": "lastname",
          "type": "string"
        },
        {
          "internalType": "enum User.Roles",
          "name": "role",
          "type": "uint8"
        },
        {
          "internalType": "address",
          "name": "walletAddress",
          "type": "address"
        }
      ],
      "stateMutability": "view",
      "type": "function"
    },
    {
      "inputs": [],
      "name": "usersCount",
      "outputs": [
        {
          "internalType": "uint256",
          "name": "",
          "type": "uint256"
        }
      ],
      "stateMutability": "view",
      "type": "function"
    },
    {
      "inputs": [
        {
          "internalType": "string",
          "name": "_username",
          "type": "string"
        },
        {
          "internalType": "string",
          "name": "_email",
          "type": "string"
        },
        {
          "internalType": "string",
          "name": "_firstname",
          "type": "string"
        },
        {
          "internalType": "string",
          "name": "_lastname",
          "type": "string"
        },
        {
          "internalType": "uint256",
          "name": "_role",
          "type": "uint256"
        },
        {
          "internalType": "address",
          "name": "_walletAddress",
          "type": "address"
        }
      ],
      "name": "registerUser",
      "outputs": [],
      "stateMutability": "nonpayable",
      "type": "function"
    },
    {
      "inputs": [
        {
          "internalType": "uint256",
          "name": "_role",
          "type": "uint256"
        },
        {
          "internalType": "address",
          "name": "_walletAddress",
          "type": "address"
        }
      ],
      "name": "changeUserRole",
      "outputs": [
        {
          "internalType": "string",
          "name": "",
          "type": "string"
        }
      ],
      "stateMutability": "nonpayable",
      "type": "function"
    },
    {
      "inputs": [],
      "name": "getUserAddresses",
      "outputs": [
        {
          "internalType": "address[]",
          "name": "",
          "type": "address[]"
        }
      ],
      "stateMutability": "view",
      "type": "function"
    },
    {
      "inputs": [
        {
          "internalType": "address",
          "name": "_address",
          "type": "address"
        }
      ],
      "name": "getUserInfo",
      "outputs": [
        {
          "components": [
            {
              "internalType": "string",
              "name": "username",
              "type": "string"
            },
            {
              "internalType": "string",
              "name": "email",
              "type": "string"
            },
            {
              "internalType": "string",
              "name": "firstname",
              "type": "string"
            },
            {
              "internalType": "string",
              "name": "lastname",
              "type": "string"
            },
            {
              "internalType": "enum User.Roles",
              "name": "role",
              "type": "uint8"
            },
            {
              "internalType": "address",
              "name": "walletAddress",
              "type": "address"
            }
          ],
          "internalType": "struct User.S_UserData",
          "name": "",
          "type": "tuple"
        }
      ],
      "stateMutability": "view",
      "type": "function"
    }
  ],
  "bytecode": "0x6080604052600060025534801561001557600080fd5b5033600160006101000a81548173ffffffffffffffffffffffffffffffffffffffff021916908373ffffffffffffffffffffffffffffffffffffffff16021790555061189a806100666000396000f3fe608060405234801561001057600080fd5b50600436106100885760003560e01c80638da5cb5b1161005b5780638da5cb5b14610140578063910097861461015e578063911c29a61461018e578063a591efde146101aa57610088565b80631959a0021461008d578063502c9bd5146100c25780636386c1c7146100f25780636ba13a8214610122575b600080fd5b6100a760048036038101906100a29190610f82565b6101c8565b6040516100b9969594939291906110ce565b60405180910390f35b6100dc60048036038101906100d79190611181565b610451565b6040516100e991906111ae565b60405180910390f35b61010c60048036038101906101079190610f82565b610490565b60405161011991906112cf565b60405180910390f35b61012a6107c1565b6040516101379190611300565b60405180910390f35b6101486107c7565b60405161015591906111ae565b60405180910390f35b6101786004803603810190610173919061131b565b6107ed565b604051610185919061135b565b60405180910390f35b6101a860048036038101906101a391906114b2565b610938565b005b6101b2610d81565b6040516101bf919061165e565b60405180910390f35b60006020528060005260406000206000915090508060000180546101eb906116af565b80601f0160208091040260200160405190810160405280929190818152602001828054610217906116af565b80156102645780601f1061023957610100808354040283529160200191610264565b820191906000526020600020905b81548152906001019060200180831161024757829003601f168201915b505050505090806001018054610279906116af565b80601f01602080910402602001604051908101604052809291908181526020018280546102a5906116af565b80156102f25780601f106102c7576101008083540402835291602001916102f2565b820191906000526020600020905b8154815290600101906020018083116102d557829003601f168201915b505050505090806002018054610307906116af565b80601f0160208091040260200160405190810160405280929190818152602001828054610333906116af565b80156103805780601f1061035557610100808354040283529160200191610380565b820191906000526020600020905b81548152906001019060200180831161036357829003601f168201915b505050505090806003018054610395906116af565b80601f01602080910402602001604051908101604052809291908181526020018280546103c1906116af565b801561040e5780601f106103e35761010080835404028352916020019161040e565b820191906000526020600020905b8154815290600101906020018083116103f157829003601f168201915b5050505050908060040160009054906101000a900460ff16908060040160019054906101000a900473ffffffffffffffffffffffffffffffffffffffff16905086565b6003818154811061046157600080fd5b906000526020600020016000915054906101000a900473ffffffffffffffffffffffffffffffffffffffff1681565b610498610e0f565b6000808373ffffffffffffffffffffffffffffffffffffffff1673ffffffffffffffffffffffffffffffffffffffff1681526020019081526020016000206040518060c00160405290816000820180546104f1906116af565b80601f016020809104026020016040519081016040528092919081815260200182805461051d906116af565b801561056a5780601f1061053f5761010080835404028352916020019161056a565b820191906000526020600020905b81548152906001019060200180831161054d57829003601f168201915b50505050508152602001600182018054610583906116af565b80601f01602080910402602001604051908101604052809291908181526020018280546105af906116af565b80156105fc5780601f106105d1576101008083540402835291602001916105fc565b820191906000526020600020905b8154815290600101906020018083116105df57829003601f168201915b50505050508152602001600282018054610615906116af565b80601f0160208091040260200160405190810160405280929190818152602001828054610641906116af565b801561068e5780601f106106635761010080835404028352916020019161068e565b820191906000526020600020905b81548152906001019060200180831161067157829003601f168201915b505050505081526020016003820180546106a7906116af565b80601f01602080910402602001604051908101604052809291908181526020018280546106d3906116af565b80156107205780601f106106f557610100808354040283529160200191610720565b820191906000526020600020905b81548152906001019060200180831161070357829003601f168201915b505050505081526020016004820160009054906101000a900460ff16600381111561074e5761074d611048565b5b60038111156107605761075f611048565b5b81526020016004820160019054906101000a900473ffffffffffffffffffffffffffffffffffffffff1673ffffffffffffffffffffffffffffffffffffffff1673ffffffffffffffffffffffffffffffffffffffff16815250509050919050565b60025481565b600160009054906101000a900473ffffffffffffffffffffffffffffffffffffffff1681565b60603373ffffffffffffffffffffffffffffffffffffffff16600160009054906101000a900473ffffffffffffffffffffffffffffffffffffffff1673ffffffffffffffffffffffffffffffffffffffff161461087f576040517f08c379a00000000000000000000000000000000000000000000000000000000081526004016108769061172d565b60405180910390fd5b82600381111561089257610891611048565b5b6000808473ffffffffffffffffffffffffffffffffffffffff1673ffffffffffffffffffffffffffffffffffffffff16815260200190815260200160002060040160006101000a81548160ff021916908360038111156108f5576108f4611048565b5b02179055506040518060400160405280600d81526020017f526f6c6520557064617465642100000000000000000000000000000000000000815250905092915050565b3373ffffffffffffffffffffffffffffffffffffffff16600160009054906101000a900473ffffffffffffffffffffffffffffffffffffffff1673ffffffffffffffffffffffffffffffffffffffff16146109c8576040517f08c379a00000000000000000000000000000000000000000000000000000000081526004016109bf9061172d565b60405180910390fd5b856000808373ffffffffffffffffffffffffffffffffffffffff1673ffffffffffffffffffffffffffffffffffffffff1681526020019081526020016000206000019080519060200190610a1d929190610e6d565b50856000808373ffffffffffffffffffffffffffffffffffffffff1673ffffffffffffffffffffffffffffffffffffffff1681526020019081526020016000206000019080519060200190610a73929190610e6d565b50846000808373ffffffffffffffffffffffffffffffffffffffff1673ffffffffffffffffffffffffffffffffffffffff1681526020019081526020016000206001019080519060200190610ac9929190610e6d565b50836000808373ffffffffffffffffffffffffffffffffffffffff1673ffffffffffffffffffffffffffffffffffffffff1681526020019081526020016000206002019080519060200190610b1f929190610e6d565b50826000808373ffffffffffffffffffffffffffffffffffffffff1673ffffffffffffffffffffffffffffffffffffffff1681526020019081526020016000206003019080519060200190610b75929190610e6d565b50816003811115610b8957610b88611048565b5b6000808373ffffffffffffffffffffffffffffffffffffffff1673ffffffffffffffffffffffffffffffffffffffff16815260200190815260200160002060040160006101000a81548160ff02191690836003811115610bec57610beb611048565b5b0217905550806000808373ffffffffffffffffffffffffffffffffffffffff1673ffffffffffffffffffffffffffffffffffffffff16815260200190815260200160002060040160016101000a81548173ffffffffffffffffffffffffffffffffffffffff021916908373ffffffffffffffffffffffffffffffffffffffff160217905550816003811115610c8457610c83611048565b5b6003811115610c9657610c95611048565b5b86604051610ca49190611789565b60405180910390208273ffffffffffffffffffffffffffffffffffffffff167fddb5d1667467713eb503e7e133811c91a231cb6b63f11930889c6004f36c35ee888888604051610cf6939291906117a0565b60405180910390a46003819080600181540180825580915050600190039060005260206000200160009091909190916101000a81548173ffffffffffffffffffffffffffffffffffffffff021916908373ffffffffffffffffffffffffffffffffffffffff16021790555060026000815480929190610d749061181b565b9190505550505050505050565b60606003805480602002602001604051908101604052809291908181526020018280548015610e0557602002820191906000526020600020905b8160009054906101000a900473ffffffffffffffffffffffffffffffffffffffff1673ffffffffffffffffffffffffffffffffffffffff1681526020019060010190808311610dbb575b5050505050905090565b6040518060c001604052806060815260200160608152602001606081526020016060815260200160006003811115610e4a57610e49611048565b5b8152602001600073ffffffffffffffffffffffffffffffffffffffff1681525090565b828054610e79906116af565b90600052602060002090601f016020900481019282610e9b5760008555610ee2565b82601f10610eb457805160ff1916838001178555610ee2565b82800160010185558215610ee2579182015b82811115610ee1578251825591602001919060010190610ec6565b5b509050610eef9190610ef3565b5090565b5b80821115610f0c576000816000905550600101610ef4565b5090565b6000604051905090565b600080fd5b600080fd5b600073ffffffffffffffffffffffffffffffffffffffff82169050919050565b6000610f4f82610f24565b9050919050565b610f5f81610f44565b8114610f6a57600080fd5b50565b600081359050610f7c81610f56565b92915050565b600060208284031215610f9857610f97610f1a565b5b6000610fa684828501610f6d565b91505092915050565b600081519050919050565b600082825260208201905092915050565b60005b83811015610fe9578082015181840152602081019050610fce565b83811115610ff8576000848401525b50505050565b6000601f19601f8301169050919050565b600061101a82610faf565b6110248185610fba565b9350611034818560208601610fcb565b61103d81610ffe565b840191505092915050565b7f4e487b7100000000000000000000000000000000000000000000000000000000600052602160045260246000fd5b6004811061108857611087611048565b5b50565b600081905061109982611077565b919050565b60006110a98261108b565b9050919050565b6110b98161109e565b82525050565b6110c881610f44565b82525050565b600060c08201905081810360008301526110e8818961100f565b905081810360208301526110fc818861100f565b90508181036040830152611110818761100f565b90508181036060830152611124818661100f565b905061113360808301856110b0565b61114060a08301846110bf565b979650505050505050565b6000819050919050565b61115e8161114b565b811461116957600080fd5b50565b60008135905061117b81611155565b92915050565b60006020828403121561119757611196610f1a565b5b60006111a58482850161116c565b91505092915050565b60006020820190506111c360008301846110bf565b92915050565b600082825260208201905092915050565b60006111e582610faf565b6111ef81856111c9565b93506111ff818560208601610fcb565b61120881610ffe565b840191505092915050565b61121c8161109e565b82525050565b61122b81610f44565b82525050565b600060c083016000830151848203600086015261124e82826111da565b9150506020830151848203602086015261126882826111da565b9150506040830151848203604086015261128282826111da565b9150506060830151848203606086015261129c82826111da565b91505060808301516112b16080860182611213565b5060a08301516112c460a0860182611222565b508091505092915050565b600060208201905081810360008301526112e98184611231565b905092915050565b6112fa8161114b565b82525050565b600060208201905061131560008301846112f1565b92915050565b6000806040838503121561133257611331610f1a565b5b60006113408582860161116c565b925050602061135185828601610f6d565b9150509250929050565b60006020820190508181036000830152611375818461100f565b905092915050565b600080fd5b600080fd5b7f4e487b7100000000000000000000000000000000000000000000000000000000600052604160045260246000fd5b6113bf82610ffe565b810181811067ffffffffffffffff821117156113de576113dd611387565b5b80604052505050565b60006113f1610f10565b90506113fd82826113b6565b919050565b600067ffffffffffffffff82111561141d5761141c611387565b5b61142682610ffe565b9050602081019050919050565b82818337600083830152505050565b600061145561145084611402565b6113e7565b90508281526020810184848401111561147157611470611382565b5b61147c848285611433565b509392505050565b600082601f8301126114995761149861137d565b5b81356114a9848260208601611442565b91505092915050565b60008060008060008060c087890312156114cf576114ce610f1a565b5b600087013567ffffffffffffffff8111156114ed576114ec610f1f565b5b6114f989828a01611484565b965050602087013567ffffffffffffffff81111561151a57611519610f1f565b5b61152689828a01611484565b955050604087013567ffffffffffffffff81111561154757611546610f1f565b5b61155389828a01611484565b945050606087013567ffffffffffffffff81111561157457611573610f1f565b5b61158089828a01611484565b935050608061159189828a0161116c565b92505060a06115a289828a01610f6d565b9150509295509295509295565b600081519050919050565b600082825260208201905092915050565b6000819050602082019050919050565b60006115e78383611222565b60208301905092915050565b6000602082019050919050565b600061160b826115af565b61161581856115ba565b9350611620836115cb565b8060005b8381101561165157815161163888826115db565b9750611643836115f3565b925050600181019050611624565b5085935050505092915050565b600060208201905081810360008301526116788184611600565b905092915050565b7f4e487b7100000000000000000000000000000000000000000000000000000000600052602260045260246000fd5b600060028204905060018216806116c757607f821691505b602082108114156116db576116da611680565b5b50919050565b7f596f7520617265206e6f7420616e206f776e6572000000000000000000000000600082015250565b6000611717601483610fba565b9150611722826116e1565b602082019050919050565b600060208201905081810360008301526117468161170a565b9050919050565b600081905092915050565b600061176382610faf565b61176d818561174d565b935061177d818560208601610fcb565b80840191505092915050565b60006117958284611758565b915081905092915050565b600060608201905081810360008301526117ba818661100f565b905081810360208301526117ce818561100f565b905081810360408301526117e2818461100f565b9050949350505050565b7f4e487b7100000000000000000000000000000000000000000000000000000000600052601160045260246000fd5b60006118268261114b565b91507fffffffffffffffffffffffffffffffffffffffffffffffffffffffffffffffff821415611859576118586117ec565b5b60018201905091905056fea2646970667358221220c86673e940417d18be6c7bdb1fc64c3e657156ede7d9b633e0601506e980181464736f6c634300080a0033",
  "immutableReferences": {},
  "source": "// SPDX-License-Identifier: MIT\r\npragma solidity >=0.8.0 <0.9.0;\r\n\r\ncontract User {\r\n    mapping(address => S_UserData) public userInfo;\r\n    address public owner;\r\n    uint256 public usersCount = 0;\r\n    address[] public userAddresses;\r\n\r\n    struct S_UserData {\r\n        string username;\r\n        string email;\r\n        string firstname;\r\n        string lastname;\r\n        Roles role;\r\n        address walletAddress;\r\n    }\r\n\r\n    enum Roles {\r\n        DefaultRole,\r\n        ProjectInitiator,\r\n        CompanyBuilder,\r\n        ProjectSupervisor\r\n    }\r\n\r\n    event UserRegistered(\r\n        address indexed _walletAddress,\r\n        string indexed _username,\r\n        string _email,\r\n        string _firstname,\r\n        string _lastname,\r\n        Roles indexed _role\r\n    );\r\n\r\n    constructor() {\r\n        owner = msg.sender;\r\n    }\r\n\r\n    modifier onlyOwner() {\r\n        require(owner == msg.sender, \"You are not an owner\");\r\n        _;\r\n    }\r\n\r\n    modifier checkUser(address _address) {\r\n        require(_address == msg.sender, \"Address\");\r\n        _;\r\n    }\r\n\r\n    function registerUser(\r\n        string memory _username,\r\n        string memory _email,\r\n        string memory _firstname,\r\n        string memory _lastname,\r\n        uint256 _role,\r\n        address _walletAddress\r\n    ) public onlyOwner {\r\n        userInfo[_walletAddress].username = _username;\r\n        userInfo[_walletAddress].username = _username;\r\n        userInfo[_walletAddress].email = _email;\r\n        userInfo[_walletAddress].firstname = _firstname;\r\n        userInfo[_walletAddress].lastname = _lastname;\r\n        userInfo[_walletAddress].role = Roles(_role);\r\n        userInfo[_walletAddress].walletAddress = _walletAddress;\r\n        emit UserRegistered(\r\n            _walletAddress,\r\n            _username,\r\n            _email,\r\n            _firstname,\r\n            _lastname,\r\n            Roles(_role)\r\n        );\r\n        userAddresses.push(_walletAddress);\r\n        usersCount++;\r\n    }\r\n\r\n    function changeUserRole(uint _role, address _walletAddress) public onlyOwner returns(string memory) {\r\n        userInfo[_walletAddress].role = Roles(_role);\r\n        return \"Role Updated!\";\r\n    }\r\n\r\n    function getUserAddresses() external view returns (address[] memory) {\r\n        return userAddresses;\r\n    }\r\n\r\n    function getUserInfo(address _address)\r\n        external\r\n        view\r\n        returns (S_UserData memory)\r\n    {\r\n        return userInfo[_address];\r\n    }\r\n}\r\n",
  "sourcePath": "/mnt/c/users/beniamin/source/repos/dissertationproject/contracts/User.sol",
  "compiler": {
    "name": "solc",
    "version": "0.8.10+commit.fc410830.Emscripten.clang"
  },
  "schemaVersion": "3.4.3",
  "updatedAt": "2021-11-13T09:43:03.367Z",
  "devdoc": {
    "kind": "dev",
    "methods": {},
    "version": 1
  },
  "userdoc": {
    "kind": "user",
    "methods": {},
    "version": 1
  }
}