{
  "contractName": "UserChain",
  "abi": [
    {
      "inputs": [],
      "stateMutability": "nonpayable",
      "type": "constructor"
    },
    {
      "anonymous": false,
      "inputs": [
        {
          "components": [
            {
              "internalType": "uint256",
              "name": "_index",
              "type": "uint256"
            },
            {
              "internalType": "string",
              "name": "_name",
              "type": "string"
            },
            {
              "internalType": "enum SharedChain.ProjectStatus",
              "name": "_status",
              "type": "uint8"
            },
            {
              "internalType": "string",
              "name": "_ipfsFileCID",
              "type": "string"
            },
            {
              "internalType": "address",
              "name": "_projectAddress",
              "type": "address"
            },
            {
              "internalType": "address",
              "name": "_signerAddress",
              "type": "address"
            },
            {
              "internalType": "uint256",
              "name": "_timestamp",
              "type": "uint256"
            },
            {
              "internalType": "string",
              "name": "_signature",
              "type": "string"
            }
          ],
          "indexed": false,
          "internalType": "struct SharedChain.Project",
          "name": "_project",
          "type": "tuple"
        },
        {
          "indexed": true,
          "internalType": "address",
          "name": "_projectAddress",
          "type": "address"
        }
      ],
      "name": "ProjectEvent",
      "type": "event"
    },
    {
      "anonymous": false,
      "inputs": [
        {
          "components": [
            {
              "internalType": "uint256",
              "name": "_index",
              "type": "uint256"
            },
            {
              "internalType": "string",
              "name": "_title",
              "type": "string"
            },
            {
              "internalType": "string",
              "name": "_comments",
              "type": "string"
            },
            {
              "internalType": "enum SharedChain.ProjectStatus",
              "name": "_projectStatus",
              "type": "uint8"
            },
            {
              "internalType": "enum SharedChain.RequestStatus",
              "name": "_requestStatus",
              "type": "uint8"
            },
            {
              "internalType": "enum SharedChain.RequestType",
              "name": "_requestType",
              "type": "uint8"
            },
            {
              "internalType": "address",
              "name": "_projectAddress",
              "type": "address"
            },
            {
              "internalType": "address",
              "name": "_requestAddress",
              "type": "address"
            },
            {
              "internalType": "address",
              "name": "_signerAddress",
              "type": "address"
            },
            {
              "internalType": "uint256",
              "name": "_timestamp",
              "type": "uint256"
            },
            {
              "internalType": "string",
              "name": "_signature",
              "type": "string"
            }
          ],
          "indexed": false,
          "internalType": "struct SharedChain.Request",
          "name": "_request",
          "type": "tuple"
        },
        {
          "indexed": true,
          "internalType": "address",
          "name": "_requestAddress",
          "type": "address"
        },
        {
          "indexed": true,
          "internalType": "address",
          "name": "_projectAddress",
          "type": "address"
        }
      ],
      "name": "RequestEvent",
      "type": "event"
    },
    {
      "anonymous": false,
      "inputs": [
        {
          "components": [
            {
              "internalType": "uint256",
              "name": "_index",
              "type": "uint256"
            },
            {
              "internalType": "string",
              "name": "_username",
              "type": "string"
            },
            {
              "internalType": "bytes32",
              "name": "_email",
              "type": "bytes32"
            },
            {
              "internalType": "bytes32",
              "name": "_firstname",
              "type": "bytes32"
            },
            {
              "internalType": "bytes32",
              "name": "_lastname",
              "type": "bytes32"
            },
            {
              "internalType": "enum SharedChain.Roles",
              "name": "_role",
              "type": "uint8"
            },
            {
              "internalType": "address",
              "name": "_walletAddress",
              "type": "address"
            },
            {
              "internalType": "uint256",
              "name": "_timestamp",
              "type": "uint256"
            },
            {
              "internalType": "string",
              "name": "_signature",
              "type": "string"
            }
          ],
          "indexed": false,
          "internalType": "struct SharedChain.User",
          "name": "_user",
          "type": "tuple"
        },
        {
          "indexed": true,
          "internalType": "address",
          "name": "_walletAddress",
          "type": "address"
        }
      ],
      "name": "UserEvent",
      "type": "event"
    },
    {
      "inputs": [
        {
          "internalType": "address",
          "name": "",
          "type": "address"
        }
      ],
      "name": "users",
      "outputs": [
        {
          "internalType": "uint256",
          "name": "_index",
          "type": "uint256"
        },
        {
          "internalType": "string",
          "name": "_username",
          "type": "string"
        },
        {
          "internalType": "bytes32",
          "name": "_email",
          "type": "bytes32"
        },
        {
          "internalType": "bytes32",
          "name": "_firstname",
          "type": "bytes32"
        },
        {
          "internalType": "bytes32",
          "name": "_lastname",
          "type": "bytes32"
        },
        {
          "internalType": "enum SharedChain.Roles",
          "name": "_role",
          "type": "uint8"
        },
        {
          "internalType": "address",
          "name": "_walletAddress",
          "type": "address"
        },
        {
          "internalType": "uint256",
          "name": "_timestamp",
          "type": "uint256"
        },
        {
          "internalType": "string",
          "name": "_signature",
          "type": "string"
        }
      ],
      "stateMutability": "view",
      "type": "function",
      "constant": true
    },
    {
      "inputs": [
        {
          "internalType": "string",
          "name": "_username",
          "type": "string"
        },
        {
          "internalType": "bytes32",
          "name": "_email",
          "type": "bytes32"
        },
        {
          "internalType": "bytes32",
          "name": "_firstname",
          "type": "bytes32"
        },
        {
          "internalType": "bytes32",
          "name": "_lastname",
          "type": "bytes32"
        },
        {
          "internalType": "uint256",
          "name": "_role",
          "type": "uint256"
        },
        {
          "internalType": "address",
          "name": "_walletAddress",
          "type": "address"
        },
        {
          "internalType": "string",
          "name": "_signature",
          "type": "string"
        }
      ],
      "name": "registerUser",
      "outputs": [],
      "stateMutability": "nonpayable",
      "type": "function"
    },
    {
      "inputs": [
        {
          "internalType": "uint256",
          "name": "_role",
          "type": "uint256"
        },
        {
          "internalType": "address",
          "name": "_walletAddress",
          "type": "address"
        },
        {
          "internalType": "string",
          "name": "_signature",
          "type": "string"
        }
      ],
      "name": "changeUserRole",
      "outputs": [],
      "stateMutability": "nonpayable",
      "type": "function"
    },
    {
      "inputs": [],
      "name": "getAllUsers",
      "outputs": [
        {
          "components": [
            {
              "internalType": "uint256",
              "name": "_index",
              "type": "uint256"
            },
            {
              "internalType": "string",
              "name": "_username",
              "type": "string"
            },
            {
              "internalType": "bytes32",
              "name": "_email",
              "type": "bytes32"
            },
            {
              "internalType": "bytes32",
              "name": "_firstname",
              "type": "bytes32"
            },
            {
              "internalType": "bytes32",
              "name": "_lastname",
              "type": "bytes32"
            },
            {
              "internalType": "enum SharedChain.Roles",
              "name": "_role",
              "type": "uint8"
            },
            {
              "internalType": "address",
              "name": "_walletAddress",
              "type": "address"
            },
            {
              "internalType": "uint256",
              "name": "_timestamp",
              "type": "uint256"
            },
            {
              "internalType": "string",
              "name": "_signature",
              "type": "string"
            }
          ],
          "internalType": "struct SharedChain.User[]",
          "name": "",
          "type": "tuple[]"
        }
      ],
      "stateMutability": "view",
      "type": "function",
      "constant": true
    },
    {
      "inputs": [
        {
          "internalType": "address",
          "name": "_walletAddress",
          "type": "address"
        }
      ],
      "name": "getUserInfo",
      "outputs": [
        {
          "components": [
            {
              "internalType": "uint256",
              "name": "_index",
              "type": "uint256"
            },
            {
              "internalType": "string",
              "name": "_username",
              "type": "string"
            },
            {
              "internalType": "bytes32",
              "name": "_email",
              "type": "bytes32"
            },
            {
              "internalType": "bytes32",
              "name": "_firstname",
              "type": "bytes32"
            },
            {
              "internalType": "bytes32",
              "name": "_lastname",
              "type": "bytes32"
            },
            {
              "internalType": "enum SharedChain.Roles",
              "name": "_role",
              "type": "uint8"
            },
            {
              "internalType": "address",
              "name": "_walletAddress",
              "type": "address"
            },
            {
              "internalType": "uint256",
              "name": "_timestamp",
              "type": "uint256"
            },
            {
              "internalType": "string",
              "name": "_signature",
              "type": "string"
            }
          ],
          "internalType": "struct SharedChain.User",
          "name": "",
          "type": "tuple"
        }
      ],
      "stateMutability": "view",
      "type": "function",
      "constant": true
    }
  ],
  "bytecode": "0x6080604052600060035534801561001557600080fd5b50336000806101000a81548173ffffffffffffffffffffffffffffffffffffffff021916908373ffffffffffffffffffffffffffffffffffffffff160217905550611cc1806100656000396000f3fe608060405234801561001057600080fd5b50600436106100575760003560e01c80636386c1c71461005c578063a87430ba1461008c578063b2ddb907146100c4578063d6a69823146100e0578063e2842d79146100fc575b600080fd5b6100766004803603810190610071919061100d565b61011a565b6040516100839190611257565b60405180910390f35b6100a660048036038101906100a1919061100d565b6103cb565b6040516100bb999897969594939291906112ff565b60405180910390f35b6100de60048036038101906100d991906114fb565b610556565b005b6100fa60048036038101906100f59190611596565b61078f565b005b610104610acf565b60405161011191906117fe565b60405180910390f35b610122610e7b565b600073ffffffffffffffffffffffffffffffffffffffff163373ffffffffffffffffffffffffffffffffffffffff161415610192576040517f08c379a00000000000000000000000000000000000000000000000000000000081526004016101899061186c565b60405180910390fd5b600160008373ffffffffffffffffffffffffffffffffffffffff1673ffffffffffffffffffffffffffffffffffffffff16815260200190815260200160002060405180610120016040529081600082015481526020016001820180546101f7906118bb565b80601f0160208091040260200160405190810160405280929190818152602001828054610223906118bb565b80156102705780601f1061024557610100808354040283529160200191610270565b820191906000526020600020905b81548152906001019060200180831161025357829003601f168201915b505050505081526020016002820154815260200160038201548152602001600482015481526020016005820160009054906101000a900460ff1660038111156102bc576102bb611105565b5b60038111156102ce576102cd611105565b5b81526020016005820160019054906101000a900473ffffffffffffffffffffffffffffffffffffffff1673ffffffffffffffffffffffffffffffffffffffff1673ffffffffffffffffffffffffffffffffffffffff16815260200160068201548152602001600782018054610342906118bb565b80601f016020809104026020016040519081016040528092919081815260200182805461036e906118bb565b80156103bb5780601f10610390576101008083540402835291602001916103bb565b820191906000526020600020905b81548152906001019060200180831161039e57829003601f168201915b5050505050815250509050919050565b60016020528060005260406000206000915090508060000154908060010180546103f4906118bb565b80601f0160208091040260200160405190810160405280929190818152602001828054610420906118bb565b801561046d5780601f106104425761010080835404028352916020019161046d565b820191906000526020600020905b81548152906001019060200180831161045057829003601f168201915b5050505050908060020154908060030154908060040154908060050160009054906101000a900460ff16908060050160019054906101000a900473ffffffffffffffffffffffffffffffffffffffff16908060060154908060070180546104d3906118bb565b80601f01602080910402602001604051908101604052809291908181526020018280546104ff906118bb565b801561054c5780601f106105215761010080835404028352916020019161054c565b820191906000526020600020905b81548152906001019060200180831161052f57829003601f168201915b5050505050905089565b3373ffffffffffffffffffffffffffffffffffffffff1660008054906101000a900473ffffffffffffffffffffffffffffffffffffffff1673ffffffffffffffffffffffffffffffffffffffff16146105e4576040517f08c379a00000000000000000000000000000000000000000000000000000000081526004016105db90611939565b60405180910390fd5b8260038111156105f7576105f6611105565b5b600160008473ffffffffffffffffffffffffffffffffffffffff1673ffffffffffffffffffffffffffffffffffffffff16815260200190815260200160002060050160006101000a81548160ff0219169083600381111561065b5761065a611105565b5b021790555042600160008473ffffffffffffffffffffffffffffffffffffffff1673ffffffffffffffffffffffffffffffffffffffff1681526020019081526020016000206006018190555080600160008473ffffffffffffffffffffffffffffffffffffffff1673ffffffffffffffffffffffffffffffffffffffff16815260200190815260200160002060070190805190602001906106fd929190610ef8565b508173ffffffffffffffffffffffffffffffffffffffff167fea397c4f2735f95720bbf4d2e061d639bec950d2f3e162d0b19e02a2354c7cca600160008573ffffffffffffffffffffffffffffffffffffffff1673ffffffffffffffffffffffffffffffffffffffff1681526020019081526020016000206040516107829190611bc2565b60405180910390a2505050565b3373ffffffffffffffffffffffffffffffffffffffff1660008054906101000a900473ffffffffffffffffffffffffffffffffffffffff1673ffffffffffffffffffffffffffffffffffffffff161461081d576040517f08c379a000000000000000000000000000000000000000000000000000000000815260040161081490611939565b60405180910390fd5b604051806101200160405280600354815260200188815260200187815260200186815260200185815260200184600381111561085c5761085b611105565b5b600381111561086e5761086d611105565b5b81526020018373ffffffffffffffffffffffffffffffffffffffff16815260200142815260200182815250600160008473ffffffffffffffffffffffffffffffffffffffff1673ffffffffffffffffffffffffffffffffffffffff1681526020019081526020016000206000820151816000015560208201518160010190805190602001906108fe929190610ef8565b5060408201518160020155606082015181600301556080820151816004015560a08201518160050160006101000a81548160ff0219169083600381111561094857610947611105565b5b021790555060c08201518160050160016101000a81548173ffffffffffffffffffffffffffffffffffffffff021916908373ffffffffffffffffffffffffffffffffffffffff16021790555060e082015181600601556101008201518160070190805190602001906109bb929190610ef8565b509050508173ffffffffffffffffffffffffffffffffffffffff167fea397c4f2735f95720bbf4d2e061d639bec950d2f3e162d0b19e02a2354c7cca600160008573ffffffffffffffffffffffffffffffffffffffff1673ffffffffffffffffffffffffffffffffffffffff168152602001908152602001600020604051610a439190611bc2565b60405180910390a26002829080600181540180825580915050600190039060005260206000200160009091909190916101000a81548173ffffffffffffffffffffffffffffffffffffffff021916908373ffffffffffffffffffffffffffffffffffffffff16021790555060036000815480929190610ac190611c13565b919050555050505050505050565b60603373ffffffffffffffffffffffffffffffffffffffff1660008054906101000a900473ffffffffffffffffffffffffffffffffffffffff1673ffffffffffffffffffffffffffffffffffffffff1614610b5f576040517f08c379a0000000000000000000000000000000000000000000000000000000008152600401610b5690611939565b60405180910390fd5b600060035467ffffffffffffffff811115610b7d57610b7c6113d0565b5b604051908082528060200260200182016040528015610bb657816020015b610ba3610e7b565b815260200190600190039081610b9b5790505b50905060005b600354811015610e7357600060028281548110610bdc57610bdb611c5c565b5b9060005260206000200160009054906101000a900473ffffffffffffffffffffffffffffffffffffffff1690506000600160008373ffffffffffffffffffffffffffffffffffffffff1673ffffffffffffffffffffffffffffffffffffffff1681526020019081526020016000209050806040518061012001604052908160008201548152602001600182018054610c73906118bb565b80601f0160208091040260200160405190810160405280929190818152602001828054610c9f906118bb565b8015610cec5780601f10610cc157610100808354040283529160200191610cec565b820191906000526020600020905b815481529060010190602001808311610ccf57829003601f168201915b505050505081526020016002820154815260200160038201548152602001600482015481526020016005820160009054906101000a900460ff166003811115610d3857610d37611105565b5b6003811115610d4a57610d49611105565b5b81526020016005820160019054906101000a900473ffffffffffffffffffffffffffffffffffffffff1673ffffffffffffffffffffffffffffffffffffffff1673ffffffffffffffffffffffffffffffffffffffff16815260200160068201548152602001600782018054610dbe906118bb565b80601f0160208091040260200160405190810160405280929190818152602001828054610dea906118bb565b8015610e375780601f10610e0c57610100808354040283529160200191610e37565b820191906000526020600020905b815481529060010190602001808311610e1a57829003601f168201915b505050505081525050848481518110610e5357610e52611c5c565b5b602002602001018190525050508080610e6b90611c13565b915050610bbc565b508091505090565b604051806101200160405280600081526020016060815260200160008019168152602001600080191681526020016000801916815260200160006003811115610ec757610ec6611105565b5b8152602001600073ffffffffffffffffffffffffffffffffffffffff16815260200160008152602001606081525090565b828054610f04906118bb565b90600052602060002090601f016020900481019282610f265760008555610f6d565b82601f10610f3f57805160ff1916838001178555610f6d565b82800160010185558215610f6d579182015b82811115610f6c578251825591602001919060010190610f51565b5b509050610f7a9190610f7e565b5090565b5b80821115610f97576000816000905550600101610f7f565b5090565b6000604051905090565b600080fd5b600080fd5b600073ffffffffffffffffffffffffffffffffffffffff82169050919050565b6000610fda82610faf565b9050919050565b610fea81610fcf565b8114610ff557600080fd5b50565b60008135905061100781610fe1565b92915050565b60006020828403121561102357611022610fa5565b5b600061103184828501610ff8565b91505092915050565b6000819050919050565b61104d8161103a565b82525050565b600081519050919050565b600082825260208201905092915050565b60005b8381101561108d578082015181840152602081019050611072565b8381111561109c576000848401525b50505050565b6000601f19601f8301169050919050565b60006110be82611053565b6110c8818561105e565b93506110d881856020860161106f565b6110e1816110a2565b840191505092915050565b6000819050919050565b6110ff816110ec565b82525050565b7f4e487b7100000000000000000000000000000000000000000000000000000000600052602160045260246000fd5b6004811061114557611144611105565b5b50565b600081905061115682611134565b919050565b600061116682611148565b9050919050565b6111768161115b565b82525050565b61118581610fcf565b82525050565b6000610120830160008301516111a46000860182611044565b50602083015184820360208601526111bc82826110b3565b91505060408301516111d160408601826110f6565b5060608301516111e460608601826110f6565b5060808301516111f760808601826110f6565b5060a083015161120a60a086018261116d565b5060c083015161121d60c086018261117c565b5060e083015161123060e0860182611044565b5061010083015184820361010086015261124a82826110b3565b9150508091505092915050565b60006020820190508181036000830152611271818461118b565b905092915050565b6112828161103a565b82525050565b600082825260208201905092915050565b60006112a482611053565b6112ae8185611288565b93506112be81856020860161106f565b6112c7816110a2565b840191505092915050565b6112db816110ec565b82525050565b6112ea8161115b565b82525050565b6112f981610fcf565b82525050565b600061012082019050611315600083018c611279565b8181036020830152611327818b611299565b9050611336604083018a6112d2565b61134360608301896112d2565b61135060808301886112d2565b61135d60a08301876112e1565b61136a60c08301866112f0565b61137760e0830185611279565b81810361010083015261138a8184611299565b90509a9950505050505050505050565b6113a38161103a565b81146113ae57600080fd5b50565b6000813590506113c08161139a565b92915050565b600080fd5b600080fd5b7f4e487b7100000000000000000000000000000000000000000000000000000000600052604160045260246000fd5b611408826110a2565b810181811067ffffffffffffffff82111715611427576114266113d0565b5b80604052505050565b600061143a610f9b565b905061144682826113ff565b919050565b600067ffffffffffffffff821115611466576114656113d0565b5b61146f826110a2565b9050602081019050919050565b82818337600083830152505050565b600061149e6114998461144b565b611430565b9050828152602081018484840111156114ba576114b96113cb565b5b6114c584828561147c565b509392505050565b600082601f8301126114e2576114e16113c6565b5b81356114f284826020860161148b565b91505092915050565b60008060006060848603121561151457611513610fa5565b5b6000611522868287016113b1565b935050602061153386828701610ff8565b925050604084013567ffffffffffffffff81111561155457611553610faa565b5b611560868287016114cd565b9150509250925092565b611573816110ec565b811461157e57600080fd5b50565b6000813590506115908161156a565b92915050565b600080600080600080600060e0888a0312156115b5576115b4610fa5565b5b600088013567ffffffffffffffff8111156115d3576115d2610faa565b5b6115df8a828b016114cd565b97505060206115f08a828b01611581565b96505060406116018a828b01611581565b95505060606116128a828b01611581565b94505060806116238a828b016113b1565b93505060a06116348a828b01610ff8565b92505060c088013567ffffffffffffffff81111561165557611654610faa565b5b6116618a828b016114cd565b91505092959891949750929550565b600081519050919050565b600082825260208201905092915050565b6000819050602082019050919050565b6000610120830160008301516116b56000860182611044565b50602083015184820360208601526116cd82826110b3565b91505060408301516116e260408601826110f6565b5060608301516116f560608601826110f6565b50608083015161170860808601826110f6565b5060a083015161171b60a086018261116d565b5060c083015161172e60c086018261117c565b5060e083015161174160e0860182611044565b5061010083015184820361010086015261175b82826110b3565b9150508091505092915050565b6000611774838361169c565b905092915050565b6000602082019050919050565b600061179482611670565b61179e818561167b565b9350836020820285016117b08561168c565b8060005b858110156117ec57848403895281516117cd8582611768565b94506117d88361177c565b925060208a019950506001810190506117b4565b50829750879550505050505092915050565b600060208201905081810360008301526118188184611789565b905092915050565b7f41646472657373206973206e6f742076616c69642e0000000000000000000000600082015250565b6000611856601583611288565b915061186182611820565b602082019050919050565b6000602082019050818103600083015261188581611849565b9050919050565b7f4e487b7100000000000000000000000000000000000000000000000000000000600052602260045260246000fd5b600060028204905060018216806118d357607f821691505b602082108114156118e7576118e661188c565b5b50919050565b7f596f7520617265206e6f7420616e206f776e65722e0000000000000000000000600082015250565b6000611923601583611288565b915061192e826118ed565b602082019050919050565b6000602082019050818103600083015261195281611916565b9050919050565b60008160001c9050919050565b6000819050919050565b600061198361197e83611959565b611966565b9050919050565b60008190508160005260206000209050919050565b600081546119ac816118bb565b6119b6818661105e565b945060018216600081146119d157600181146119e357611a16565b60ff1983168652602086019350611a16565b6119ec8561198a565b60005b83811015611a0e578154818901526001820191506020810190506119ef565b808801955050505b50505092915050565b6000819050919050565b6000611a3c611a3783611959565b611a1f565b9050919050565b600060ff82169050919050565b6000611a63611a5e83611959565b611a43565b9050919050565b60008160081c9050919050565b600073ffffffffffffffffffffffffffffffffffffffff82169050919050565b6000611aaa611aa583611a6a565b611a77565b9050919050565b600061012083016000808401549050611ac981611970565b611ad66000870182611044565b50600184018583036020870152611aed838261199f565b92505060028401549050611b0081611a29565b611b0d60408701826110f6565b5060038401549050611b1e81611a29565b611b2b60608701826110f6565b5060048401549050611b3c81611a29565b611b4960808701826110f6565b5060058401549050611b5a81611a50565b611b6760a087018261116d565b50611b7181611a97565b611b7e60c087018261117c565b5060068401549050611b8f81611970565b611b9c60e0870182611044565b5060078401858303610100870152611bb4838261199f565b925050819250505092915050565b60006020820190508181036000830152611bdc8184611ab1565b905092915050565b7f4e487b7100000000000000000000000000000000000000000000000000000000600052601160045260246000fd5b6000611c1e8261103a565b91507fffffffffffffffffffffffffffffffffffffffffffffffffffffffffffffffff821415611c5157611c50611be4565b5b600182019050919050565b7f4e487b7100000000000000000000000000000000000000000000000000000000600052603260045260246000fdfea2646970667358221220a983c096da65544fdeaac9c03843b2773424861e99bfbcd1da5c03a57750882f64736f6c634300080a0033",
  "immutableReferences": {},
  "source": "// SPDX-License-Identifier: MIT\r\npragma solidity >=0.8.0 <0.9.0;\r\n\r\nimport './SharedChain.sol';\r\n\r\ncontract UserChain is SharedChain {\r\n    address owner;\r\n\r\n    mapping(address => User) public users;\r\n    address[] usersAddress;\r\n    uint256 usersCounter = 0;\r\n\r\n    constructor() {\r\n        owner = msg.sender;\r\n    }\r\n\r\n    modifier onlyOwner() {\r\n        require(owner == msg.sender, \"You are not an owner.\");\r\n        _;\r\n    }\r\n\r\n    modifier checkUser(address _address) {\r\n        require(_address == owner, \"You are not an owner.\");\r\n        _;\r\n    }\r\n\r\n    function registerUser(\r\n        string memory _username,\r\n        bytes32 _email,\r\n        bytes32 _firstname,\r\n        bytes32 _lastname,\r\n        uint256 _role,\r\n        address _walletAddress,\r\n        string memory _signature\r\n    ) public onlyOwner {\r\n        users[_walletAddress] = User(\r\n            usersCounter, _username, _email, _firstname, _lastname,\r\n            Roles(_role), _walletAddress, block.timestamp, _signature\r\n        );\r\n\r\n        emit UserEvent(users[_walletAddress], _walletAddress);\r\n        usersAddress.push(_walletAddress);\r\n        usersCounter++;\r\n    }\r\n\r\n    function changeUserRole(uint _role, address _walletAddress, string memory _signature) public onlyOwner {\r\n        users[_walletAddress]._role = Roles(_role);\r\n\r\n        users[_walletAddress]._timestamp = block.timestamp;\r\n        users[_walletAddress]._signature = _signature;\r\n        emit UserEvent(users[_walletAddress], _walletAddress);\r\n    }\r\n\r\n    function getAllUsers() public view onlyOwner returns(User[] memory) {\r\n        User[] memory allUsers = new User[](usersCounter);\r\n        for (uint index = 0; index < usersCounter; index++) {\r\n            address _walletAddress = usersAddress[index];\r\n            User storage user = users[_walletAddress];\r\n            allUsers[index] = user;\r\n        }\r\n        return allUsers;\r\n    }\r\n\r\n    function getUserInfo(address _walletAddress) public view returns (User memory) {\r\n        require(msg.sender != address(0x0), \"Address is not valid.\");\r\n        return users[_walletAddress];\r\n    }\r\n}\r\n",
  "sourcePath": "/mnt/c/Users/Beniamin/source/repos/DissertationProject/contracts/UserChain.sol",
  "compiler": {
    "name": "solc",
    "version": "0.8.10+commit.fc410830.Emscripten.clang"
  },
  "schemaVersion": "3.4.3",
  "updatedAt": "2021-12-11T11:17:42.093Z",
  "networkType": "ethereum",
  "devdoc": {
    "kind": "dev",
    "methods": {},
    "version": 1
  },
  "userdoc": {
    "kind": "user",
    "methods": {},
    "version": 1
  }
}