{
  "contractName": "UserChain",
  "abi": [
    {
      "inputs": [],
      "stateMutability": "nonpayable",
      "type": "constructor"
    },
    {
      "anonymous": false,
      "inputs": [
        {
          "components": [
            {
              "internalType": "uint256",
              "name": "_index",
              "type": "uint256"
            },
            {
              "internalType": "string",
              "name": "_name",
              "type": "string"
            },
            {
              "internalType": "enum SharedChain.ProjectStatus",
              "name": "_status",
              "type": "uint8"
            },
            {
              "internalType": "string",
              "name": "_ipfsFileCID",
              "type": "string"
            },
            {
              "internalType": "address",
              "name": "_projectAddress",
              "type": "address"
            },
            {
              "internalType": "address",
              "name": "_signerAddress",
              "type": "address"
            },
            {
              "internalType": "address",
              "name": "_companyAddress",
              "type": "address"
            },
            {
              "internalType": "bool",
              "name": "_assigned",
              "type": "bool"
            },
            {
              "internalType": "uint256",
              "name": "_timestamp",
              "type": "uint256"
            },
            {
              "internalType": "string",
              "name": "_signature",
              "type": "string"
            }
          ],
          "indexed": false,
          "internalType": "struct SharedChain.Project",
          "name": "_project",
          "type": "tuple"
        },
        {
          "indexed": true,
          "internalType": "address",
          "name": "_projectAddress",
          "type": "address"
        },
        {
          "indexed": true,
          "internalType": "address",
          "name": "_companyAddress",
          "type": "address"
        }
      ],
      "name": "ProjectEvent",
      "type": "event"
    },
    {
      "anonymous": false,
      "inputs": [
        {
          "components": [
            {
              "internalType": "uint256",
              "name": "_index",
              "type": "uint256"
            },
            {
              "internalType": "string",
              "name": "_title",
              "type": "string"
            },
            {
              "internalType": "string",
              "name": "_comments",
              "type": "string"
            },
            {
              "internalType": "enum SharedChain.ProjectStatus",
              "name": "_projectStatus",
              "type": "uint8"
            },
            {
              "internalType": "enum SharedChain.RequestStatus",
              "name": "_requestStatus",
              "type": "uint8"
            },
            {
              "internalType": "enum SharedChain.RequestType",
              "name": "_requestType",
              "type": "uint8"
            },
            {
              "internalType": "address",
              "name": "_projectAddress",
              "type": "address"
            },
            {
              "internalType": "address",
              "name": "_requestAddress",
              "type": "address"
            },
            {
              "internalType": "address",
              "name": "_signerAddress",
              "type": "address"
            },
            {
              "internalType": "uint256",
              "name": "_timestamp",
              "type": "uint256"
            },
            {
              "internalType": "string",
              "name": "_signature",
              "type": "string"
            }
          ],
          "indexed": false,
          "internalType": "struct SharedChain.Request",
          "name": "_request",
          "type": "tuple"
        },
        {
          "indexed": true,
          "internalType": "address",
          "name": "_requestAddress",
          "type": "address"
        },
        {
          "indexed": true,
          "internalType": "address",
          "name": "_projectAddress",
          "type": "address"
        }
      ],
      "name": "RequestEvent",
      "type": "event"
    },
    {
      "anonymous": false,
      "inputs": [
        {
          "components": [
            {
              "internalType": "bytes32",
              "name": "_firstname",
              "type": "bytes32"
            },
            {
              "internalType": "bytes32",
              "name": "_lastname",
              "type": "bytes32"
            },
            {
              "internalType": "enum SharedChain.Roles",
              "name": "_role",
              "type": "uint8"
            },
            {
              "internalType": "address",
              "name": "_walletAddress",
              "type": "address"
            },
            {
              "internalType": "uint256",
              "name": "_timestamp",
              "type": "uint256"
            }
          ],
          "indexed": false,
          "internalType": "struct SharedChain.User",
          "name": "_user",
          "type": "tuple"
        },
        {
          "indexed": true,
          "internalType": "address",
          "name": "_walletAddress",
          "type": "address"
        }
      ],
      "name": "UserEvent",
      "type": "event"
    },
    {
      "inputs": [
        {
          "internalType": "address",
          "name": "",
          "type": "address"
        }
      ],
      "name": "users",
      "outputs": [
        {
          "internalType": "bytes32",
          "name": "_firstname",
          "type": "bytes32"
        },
        {
          "internalType": "bytes32",
          "name": "_lastname",
          "type": "bytes32"
        },
        {
          "internalType": "enum SharedChain.Roles",
          "name": "_role",
          "type": "uint8"
        },
        {
          "internalType": "address",
          "name": "_walletAddress",
          "type": "address"
        },
        {
          "internalType": "uint256",
          "name": "_timestamp",
          "type": "uint256"
        }
      ],
      "stateMutability": "view",
      "type": "function",
      "constant": true
    },
    {
      "inputs": [
        {
          "internalType": "bytes32",
          "name": "_firstname",
          "type": "bytes32"
        },
        {
          "internalType": "bytes32",
          "name": "_lastname",
          "type": "bytes32"
        },
        {
          "internalType": "uint256",
          "name": "_role",
          "type": "uint256"
        },
        {
          "internalType": "address",
          "name": "_walletAddress",
          "type": "address"
        }
      ],
      "name": "registerUser",
      "outputs": [],
      "stateMutability": "nonpayable",
      "type": "function"
    },
    {
      "inputs": [
        {
          "internalType": "uint256",
          "name": "_role",
          "type": "uint256"
        },
        {
          "internalType": "address",
          "name": "_walletAddress",
          "type": "address"
        }
      ],
      "name": "changeUserRole",
      "outputs": [],
      "stateMutability": "nonpayable",
      "type": "function"
    },
    {
      "inputs": [
        {
          "internalType": "address",
          "name": "_walletAddress",
          "type": "address"
        }
      ],
      "name": "getUserInfo",
      "outputs": [
        {
          "components": [
            {
              "internalType": "bytes32",
              "name": "_firstname",
              "type": "bytes32"
            },
            {
              "internalType": "bytes32",
              "name": "_lastname",
              "type": "bytes32"
            },
            {
              "internalType": "enum SharedChain.Roles",
              "name": "_role",
              "type": "uint8"
            },
            {
              "internalType": "address",
              "name": "_walletAddress",
              "type": "address"
            },
            {
              "internalType": "uint256",
              "name": "_timestamp",
              "type": "uint256"
            }
          ],
          "internalType": "struct SharedChain.User",
          "name": "",
          "type": "tuple"
        }
      ],
      "stateMutability": "view",
      "type": "function",
      "constant": true
    }
  ],
  "bytecode": "0x608060405234801561001057600080fd5b50336000806101000a81548173ffffffffffffffffffffffffffffffffffffffff021916908373ffffffffffffffffffffffffffffffffffffffff160217905550610c72806100606000396000f3fe608060405234801561001057600080fd5b506004361061004c5760003560e01c80633000d7f9146100515780636386c1c71461006d578063910097861461009d578063a87430ba146100b9575b600080fd5b61006b600480360381019061006691906107bd565b6100ed565b005b61008760048036038101906100829190610824565b610345565b604051610094919061095d565b60405180910390f35b6100b760048036038101906100b29190610978565b61044d565b005b6100d360048036038101906100ce9190610824565b61062e565b6040516100e49594939291906109f4565b60405180910390f35b3373ffffffffffffffffffffffffffffffffffffffff1660008054906101000a900473ffffffffffffffffffffffffffffffffffffffff1673ffffffffffffffffffffffffffffffffffffffff161461017b576040517f08c379a000000000000000000000000000000000000000000000000000000000815260040161017290610aa4565b60405180910390fd5b6040518060a001604052808581526020018481526020018360038111156101a5576101a4610860565b5b60038111156101b7576101b6610860565b5b81526020018273ffffffffffffffffffffffffffffffffffffffff16815260200142815250600160008373ffffffffffffffffffffffffffffffffffffffff1673ffffffffffffffffffffffffffffffffffffffff168152602001908152602001600020600082015181600001556020820151816001015560408201518160020160006101000a81548160ff0219169083600381111561025a57610259610860565b5b021790555060608201518160020160016101000a81548173ffffffffffffffffffffffffffffffffffffffff021916908373ffffffffffffffffffffffffffffffffffffffff160217905550608082015181600301559050508073ffffffffffffffffffffffffffffffffffffffff167ff751778eb32087df58f173035147c2eac9aac89fdc2f83b1993a198606f56db1600160008473ffffffffffffffffffffffffffffffffffffffff1673ffffffffffffffffffffffffffffffffffffffff1681526020019081526020016000206040516103379190610c21565b60405180910390a250505050565b61034d610691565b600160008373ffffffffffffffffffffffffffffffffffffffff1673ffffffffffffffffffffffffffffffffffffffff1681526020019081526020016000206040518060a001604052908160008201548152602001600182015481526020016002820160009054906101000a900460ff1660038111156103d0576103cf610860565b5b60038111156103e2576103e1610860565b5b81526020016002820160019054906101000a900473ffffffffffffffffffffffffffffffffffffffff1673ffffffffffffffffffffffffffffffffffffffff1673ffffffffffffffffffffffffffffffffffffffff1681526020016003820154815250509050919050565b3373ffffffffffffffffffffffffffffffffffffffff1660008054906101000a900473ffffffffffffffffffffffffffffffffffffffff1673ffffffffffffffffffffffffffffffffffffffff16146104db576040517f08c379a00000000000000000000000000000000000000000000000000000000081526004016104d290610aa4565b60405180910390fd5b8160038111156104ee576104ed610860565b5b600160008373ffffffffffffffffffffffffffffffffffffffff1673ffffffffffffffffffffffffffffffffffffffff16815260200190815260200160002060020160006101000a81548160ff0219169083600381111561055257610551610860565b5b021790555042600160008373ffffffffffffffffffffffffffffffffffffffff1673ffffffffffffffffffffffffffffffffffffffff168152602001908152602001600020600301819055508073ffffffffffffffffffffffffffffffffffffffff167ff751778eb32087df58f173035147c2eac9aac89fdc2f83b1993a198606f56db1600160008473ffffffffffffffffffffffffffffffffffffffff1673ffffffffffffffffffffffffffffffffffffffff1681526020019081526020016000206040516106229190610c21565b60405180910390a25050565b60016020528060005260406000206000915090508060000154908060010154908060020160009054906101000a900460ff16908060020160019054906101000a900473ffffffffffffffffffffffffffffffffffffffff16908060030154905085565b6040518060a001604052806000801916815260200160008019168152602001600060038111156106c4576106c3610860565b5b8152602001600073ffffffffffffffffffffffffffffffffffffffff168152602001600081525090565b600080fd5b6000819050919050565b610706816106f3565b811461071157600080fd5b50565b600081359050610723816106fd565b92915050565b6000819050919050565b61073c81610729565b811461074757600080fd5b50565b60008135905061075981610733565b92915050565b600073ffffffffffffffffffffffffffffffffffffffff82169050919050565b600061078a8261075f565b9050919050565b61079a8161077f565b81146107a557600080fd5b50565b6000813590506107b781610791565b92915050565b600080600080608085870312156107d7576107d66106ee565b5b60006107e587828801610714565b94505060206107f687828801610714565b93505060406108078782880161074a565b9250506060610818878288016107a8565b91505092959194509250565b60006020828403121561083a576108396106ee565b5b6000610848848285016107a8565b91505092915050565b61085a816106f3565b82525050565b7f4e487b7100000000000000000000000000000000000000000000000000000000600052602160045260246000fd5b600481106108a05761089f610860565b5b50565b60008190506108b18261088f565b919050565b60006108c1826108a3565b9050919050565b6108d1816108b6565b82525050565b6108e08161077f565b82525050565b6108ef81610729565b82525050565b60a08201600082015161090b6000850182610851565b50602082015161091e6020850182610851565b50604082015161093160408501826108c8565b50606082015161094460608501826108d7565b50608082015161095760808501826108e6565b50505050565b600060a08201905061097260008301846108f5565b92915050565b6000806040838503121561098f5761098e6106ee565b5b600061099d8582860161074a565b92505060206109ae858286016107a8565b9150509250929050565b6109c1816106f3565b82525050565b6109d0816108b6565b82525050565b6109df8161077f565b82525050565b6109ee81610729565b82525050565b600060a082019050610a0960008301886109b8565b610a1660208301876109b8565b610a2360408301866109c7565b610a3060608301856109d6565b610a3d60808301846109e5565b9695505050505050565b600082825260208201905092915050565b7f596f7520617265206e6f7420616e206f776e65722e0000000000000000000000600082015250565b6000610a8e601583610a47565b9150610a9982610a58565b602082019050919050565b60006020820190508181036000830152610abd81610a81565b9050919050565b60008160001c9050919050565b6000819050919050565b6000610aee610ae983610ac4565b610ad1565b9050919050565b600060ff82169050919050565b6000610b15610b1083610ac4565b610af5565b9050919050565b60008160081c9050919050565b600073ffffffffffffffffffffffffffffffffffffffff82169050919050565b6000610b5c610b5783610b1c565b610b29565b9050919050565b6000819050919050565b6000610b80610b7b83610ac4565b610b63565b9050919050565b60a082016000808301549050610b9c81610adb565b610ba96000860182610851565b5060018301549050610bba81610adb565b610bc76020860182610851565b5060028301549050610bd881610b02565b610be560408601826108c8565b50610bef81610b49565b610bfc60608601826108d7565b5060038301549050610c0d81610b6d565b610c1a60808601826108e6565b5050505050565b600060a082019050610c366000830184610b87565b9291505056fea264697066735822122084c244148c77fd507447305b726de6135ace340c041bd0e4a40f4584952ddbca64736f6c634300080a0033",
  "immutableReferences": {},
  "source": "// SPDX-License-Identifier: MIT\r\npragma solidity >=0.8.0 <0.9.0;\r\n\r\nimport './SharedChain.sol';\r\n\r\ncontract UserChain is SharedChain {\r\n    address owner;\r\n\r\n    mapping(address => User) public users;\r\n    address[] usersAddress;\r\n\r\n    constructor() {\r\n        owner = msg.sender;\r\n    }\r\n\r\n    modifier onlyOwner() {\r\n        require(owner == msg.sender, \"You are not an owner.\");\r\n        _;\r\n    }\r\n\r\n    modifier checkUser(address _address) {\r\n        require(_address == owner, \"You are not an owner.\");\r\n        _;\r\n    }\r\n\r\n    function registerUser(\r\n        bytes32 _firstname,\r\n        bytes32 _lastname,\r\n        uint256 _role,\r\n        address _walletAddress\r\n    ) public onlyOwner {\r\n        users[_walletAddress] = User(\r\n            _firstname, _lastname,\r\n            Roles(_role), _walletAddress, block.timestamp\r\n        );\r\n\r\n        emit UserEvent(users[_walletAddress], _walletAddress);\r\n    }\r\n\r\n    function changeUserRole(uint256 _role, address _walletAddress) public onlyOwner {\r\n        users[_walletAddress]._role = Roles(_role);\r\n        users[_walletAddress]._timestamp = block.timestamp;\r\n        emit UserEvent(users[_walletAddress], _walletAddress);\r\n    }\r\n\r\n    function getUserInfo(address _walletAddress) public view returns (User memory) {\r\n        //require(msg.sender != address(0x0), \"Address is not valid.\");\r\n        return users[_walletAddress];\r\n    }\r\n}\r\n",
  "sourcePath": "/mnt/c/Users/Beniamin/source/repos/DissertationProject/contracts/UserChain.sol",
  "compiler": {
    "name": "solc",
    "version": "0.8.10+commit.fc410830.Emscripten.clang"
  },
  "schemaVersion": "3.4.3",
  "updatedAt": "2021-12-11T18:27:43.541Z",
  "networkType": "ethereum",
  "devdoc": {
    "kind": "dev",
    "methods": {},
    "version": 1
  },
  "userdoc": {
    "kind": "user",
    "methods": {},
    "version": 1
  }
}