{
  "contractName": "User",
  "abi": [
    {
      "inputs": [],
      "stateMutability": "nonpayable",
      "type": "constructor"
    },
    {
      "anonymous": false,
      "inputs": [
        {
          "indexed": true,
          "internalType": "address",
          "name": "_walletAddress",
          "type": "address"
        },
        {
          "indexed": true,
          "internalType": "string",
          "name": "_username",
          "type": "string"
        },
        {
          "indexed": false,
          "internalType": "string",
          "name": "_email",
          "type": "string"
        },
        {
          "indexed": false,
          "internalType": "string",
          "name": "_firstname",
          "type": "string"
        },
        {
          "indexed": false,
          "internalType": "string",
          "name": "_lastname",
          "type": "string"
        },
        {
          "indexed": true,
          "internalType": "enum User.Roles",
          "name": "_role",
          "type": "uint8"
        }
      ],
      "name": "UserRegistered",
      "type": "event"
    },
    {
      "inputs": [
        {
          "internalType": "uint256",
          "name": "",
          "type": "uint256"
        }
      ],
      "name": "allUsers",
      "outputs": [
        {
          "internalType": "string",
          "name": "username",
          "type": "string"
        },
        {
          "internalType": "string",
          "name": "email",
          "type": "string"
        },
        {
          "internalType": "string",
          "name": "firstname",
          "type": "string"
        },
        {
          "internalType": "string",
          "name": "lastname",
          "type": "string"
        },
        {
          "internalType": "enum User.Roles",
          "name": "role",
          "type": "uint8"
        },
        {
          "internalType": "address",
          "name": "walletAddress",
          "type": "address"
        }
      ],
      "stateMutability": "view",
      "type": "function"
    },
    {
      "inputs": [],
      "name": "owner",
      "outputs": [
        {
          "internalType": "address",
          "name": "",
          "type": "address"
        }
      ],
      "stateMutability": "view",
      "type": "function"
    },
    {
      "inputs": [
        {
          "internalType": "uint256",
          "name": "",
          "type": "uint256"
        }
      ],
      "name": "userAddresses",
      "outputs": [
        {
          "internalType": "address",
          "name": "",
          "type": "address"
        }
      ],
      "stateMutability": "view",
      "type": "function"
    },
    {
      "inputs": [
        {
          "internalType": "address",
          "name": "",
          "type": "address"
        }
      ],
      "name": "userInfo",
      "outputs": [
        {
          "internalType": "string",
          "name": "username",
          "type": "string"
        },
        {
          "internalType": "string",
          "name": "email",
          "type": "string"
        },
        {
          "internalType": "string",
          "name": "firstname",
          "type": "string"
        },
        {
          "internalType": "string",
          "name": "lastname",
          "type": "string"
        },
        {
          "internalType": "enum User.Roles",
          "name": "role",
          "type": "uint8"
        },
        {
          "internalType": "address",
          "name": "walletAddress",
          "type": "address"
        }
      ],
      "stateMutability": "view",
      "type": "function"
    },
    {
      "inputs": [],
      "name": "usersCount",
      "outputs": [
        {
          "internalType": "uint256",
          "name": "",
          "type": "uint256"
        }
      ],
      "stateMutability": "view",
      "type": "function"
    },
    {
      "inputs": [
        {
          "internalType": "string",
          "name": "_username",
          "type": "string"
        },
        {
          "internalType": "string",
          "name": "_email",
          "type": "string"
        },
        {
          "internalType": "string",
          "name": "_firstname",
          "type": "string"
        },
        {
          "internalType": "string",
          "name": "_lastname",
          "type": "string"
        },
        {
          "internalType": "uint256",
          "name": "_role",
          "type": "uint256"
        },
        {
          "internalType": "address",
          "name": "_walletAddress",
          "type": "address"
        }
      ],
      "name": "registerUser",
      "outputs": [],
      "stateMutability": "nonpayable",
      "type": "function"
    },
    {
      "inputs": [
        {
          "internalType": "uint256",
          "name": "_role",
          "type": "uint256"
        },
        {
          "internalType": "address",
          "name": "_walletAddress",
          "type": "address"
        }
      ],
      "name": "changeUserRole",
      "outputs": [
        {
          "internalType": "string",
          "name": "",
          "type": "string"
        }
      ],
      "stateMutability": "nonpayable",
      "type": "function"
    },
    {
      "inputs": [],
      "name": "getUserAddresses",
      "outputs": [
        {
          "internalType": "address[]",
          "name": "",
          "type": "address[]"
        }
      ],
      "stateMutability": "view",
      "type": "function"
    },
    {
      "inputs": [],
      "name": "getAllUsers",
      "outputs": [
        {
          "components": [
            {
              "internalType": "string",
              "name": "username",
              "type": "string"
            },
            {
              "internalType": "string",
              "name": "email",
              "type": "string"
            },
            {
              "internalType": "string",
              "name": "firstname",
              "type": "string"
            },
            {
              "internalType": "string",
              "name": "lastname",
              "type": "string"
            },
            {
              "internalType": "enum User.Roles",
              "name": "role",
              "type": "uint8"
            },
            {
              "internalType": "address",
              "name": "walletAddress",
              "type": "address"
            }
          ],
          "internalType": "struct User.S_UserData[]",
          "name": "",
          "type": "tuple[]"
        }
      ],
      "stateMutability": "view",
      "type": "function"
    },
    {
      "inputs": [
        {
          "internalType": "address",
          "name": "_address",
          "type": "address"
        }
      ],
      "name": "getUserInfo",
      "outputs": [
        {
          "components": [
            {
              "internalType": "string",
              "name": "username",
              "type": "string"
            },
            {
              "internalType": "string",
              "name": "email",
              "type": "string"
            },
            {
              "internalType": "string",
              "name": "firstname",
              "type": "string"
            },
            {
              "internalType": "string",
              "name": "lastname",
              "type": "string"
            },
            {
              "internalType": "enum User.Roles",
              "name": "role",
              "type": "uint8"
            },
            {
              "internalType": "address",
              "name": "walletAddress",
              "type": "address"
            }
          ],
          "internalType": "struct User.S_UserData",
          "name": "",
          "type": "tuple"
        }
      ],
      "stateMutability": "view",
      "type": "function"
    }
  ],
  "bytecode": "0x6080604052600060025534801561001557600080fd5b5033600160006101000a81548173ffffffffffffffffffffffffffffffffffffffff021916908373ffffffffffffffffffffffffffffffffffffffff16021790555061217f806100666000396000f3fe608060405234801561001057600080fd5b506004361061009e5760003560e01c806391009786116100665780639100978614610174578063911c29a6146101a4578063a2bdedf4146101c0578063a591efde146101f5578063e2842d79146102135761009e565b80631959a002146100a3578063502c9bd5146100d85780636386c1c7146101085780636ba13a82146101385780638da5cb5b14610156575b600080fd5b6100bd60048036038101906100b891906116e5565b610231565b6040516100cf96959493929190611831565b60405180910390f35b6100f260048036038101906100ed91906118e4565b6104ba565b6040516100ff9190611911565b60405180910390f35b610122600480360381019061011d91906116e5565b6104f9565b60405161012f9190611a32565b60405180910390f35b61014061082a565b60405161014d9190611a63565b60405180910390f35b61015e610830565b60405161016b9190611911565b60405180910390f35b61018e60048036038101906101899190611a7e565b610856565b60405161019b9190611abe565b60405180910390f35b6101be60048036038101906101b99190611c15565b6109a1565b005b6101da60048036038101906101d591906118e4565b610f13565b6040516101ec96959493929190611831565b60405180910390f35b6101fd6111ac565b60405161020a9190611dc1565b60405180910390f35b61021b61123a565b6040516102289190611f43565b60405180910390f35b600060205280600052604060002060009150905080600001805461025490611f94565b80601f016020809104026020016040519081016040528092919081815260200182805461028090611f94565b80156102cd5780601f106102a2576101008083540402835291602001916102cd565b820191906000526020600020905b8154815290600101906020018083116102b057829003601f168201915b5050505050908060010180546102e290611f94565b80601f016020809104026020016040519081016040528092919081815260200182805461030e90611f94565b801561035b5780601f106103305761010080835404028352916020019161035b565b820191906000526020600020905b81548152906001019060200180831161033e57829003601f168201915b50505050509080600201805461037090611f94565b80601f016020809104026020016040519081016040528092919081815260200182805461039c90611f94565b80156103e95780601f106103be576101008083540402835291602001916103e9565b820191906000526020600020905b8154815290600101906020018083116103cc57829003601f168201915b5050505050908060030180546103fe90611f94565b80601f016020809104026020016040519081016040528092919081815260200182805461042a90611f94565b80156104775780601f1061044c57610100808354040283529160200191610477565b820191906000526020600020905b81548152906001019060200180831161045a57829003601f168201915b5050505050908060040160009054906101000a900460ff16908060040160019054906101000a900473ffffffffffffffffffffffffffffffffffffffff16905086565b600381815481106104ca57600080fd5b906000526020600020016000915054906101000a900473ffffffffffffffffffffffffffffffffffffffff1681565b610501611572565b6000808373ffffffffffffffffffffffffffffffffffffffff1673ffffffffffffffffffffffffffffffffffffffff1681526020019081526020016000206040518060c001604052908160008201805461055a90611f94565b80601f016020809104026020016040519081016040528092919081815260200182805461058690611f94565b80156105d35780601f106105a8576101008083540402835291602001916105d3565b820191906000526020600020905b8154815290600101906020018083116105b657829003601f168201915b505050505081526020016001820180546105ec90611f94565b80601f016020809104026020016040519081016040528092919081815260200182805461061890611f94565b80156106655780601f1061063a57610100808354040283529160200191610665565b820191906000526020600020905b81548152906001019060200180831161064857829003601f168201915b5050505050815260200160028201805461067e90611f94565b80601f01602080910402602001604051908101604052809291908181526020018280546106aa90611f94565b80156106f75780601f106106cc576101008083540402835291602001916106f7565b820191906000526020600020905b8154815290600101906020018083116106da57829003601f168201915b5050505050815260200160038201805461071090611f94565b80601f016020809104026020016040519081016040528092919081815260200182805461073c90611f94565b80156107895780601f1061075e57610100808354040283529160200191610789565b820191906000526020600020905b81548152906001019060200180831161076c57829003601f168201915b505050505081526020016004820160009054906101000a900460ff1660038111156107b7576107b66117ab565b5b60038111156107c9576107c86117ab565b5b81526020016004820160019054906101000a900473ffffffffffffffffffffffffffffffffffffffff1673ffffffffffffffffffffffffffffffffffffffff1673ffffffffffffffffffffffffffffffffffffffff16815250509050919050565b60025481565b600160009054906101000a900473ffffffffffffffffffffffffffffffffffffffff1681565b60603373ffffffffffffffffffffffffffffffffffffffff16600160009054906101000a900473ffffffffffffffffffffffffffffffffffffffff1673ffffffffffffffffffffffffffffffffffffffff16146108e8576040517f08c379a00000000000000000000000000000000000000000000000000000000081526004016108df90612012565b60405180910390fd5b8260038111156108fb576108fa6117ab565b5b6000808473ffffffffffffffffffffffffffffffffffffffff1673ffffffffffffffffffffffffffffffffffffffff16815260200190815260200160002060040160006101000a81548160ff0219169083600381111561095e5761095d6117ab565b5b02179055506040518060400160405280600d81526020017f526f6c6520557064617465642100000000000000000000000000000000000000815250905092915050565b3373ffffffffffffffffffffffffffffffffffffffff16600160009054906101000a900473ffffffffffffffffffffffffffffffffffffffff1673ffffffffffffffffffffffffffffffffffffffff1614610a31576040517f08c379a0000000000000000000000000000000000000000000000000000000008152600401610a2890612012565b60405180910390fd5b856000808373ffffffffffffffffffffffffffffffffffffffff1673ffffffffffffffffffffffffffffffffffffffff1681526020019081526020016000206000019080519060200190610a869291906115d0565b50846000808373ffffffffffffffffffffffffffffffffffffffff1673ffffffffffffffffffffffffffffffffffffffff1681526020019081526020016000206001019080519060200190610adc9291906115d0565b50836000808373ffffffffffffffffffffffffffffffffffffffff1673ffffffffffffffffffffffffffffffffffffffff1681526020019081526020016000206002019080519060200190610b329291906115d0565b50826000808373ffffffffffffffffffffffffffffffffffffffff1673ffffffffffffffffffffffffffffffffffffffff1681526020019081526020016000206003019080519060200190610b889291906115d0565b50816003811115610b9c57610b9b6117ab565b5b6000808373ffffffffffffffffffffffffffffffffffffffff1673ffffffffffffffffffffffffffffffffffffffff16815260200190815260200160002060040160006101000a81548160ff02191690836003811115610bff57610bfe6117ab565b5b0217905550806000808373ffffffffffffffffffffffffffffffffffffffff1673ffffffffffffffffffffffffffffffffffffffff16815260200190815260200160002060040160016101000a81548173ffffffffffffffffffffffffffffffffffffffff021916908373ffffffffffffffffffffffffffffffffffffffff160217905550816003811115610c9757610c966117ab565b5b6003811115610ca957610ca86117ab565b5b86604051610cb7919061206e565b60405180910390208273ffffffffffffffffffffffffffffffffffffffff167fddb5d1667467713eb503e7e133811c91a231cb6b63f11930889c6004f36c35ee888888604051610d0993929190612085565b60405180910390a46003819080600181540180825580915050600190039060005260206000200160009091909190916101000a81548173ffffffffffffffffffffffffffffffffffffffff021916908373ffffffffffffffffffffffffffffffffffffffff16021790555060046040518060c00160405280888152602001878152602001868152602001858152602001846003811115610dac57610dab6117ab565b5b6003811115610dbe57610dbd6117ab565b5b81526020018373ffffffffffffffffffffffffffffffffffffffff1681525090806001815401808255809150506001900390600052602060002090600502016000909190919091506000820151816000019080519060200190610e229291906115d0565b506020820151816001019080519060200190610e3f9291906115d0565b506040820151816002019080519060200190610e5c9291906115d0565b506060820151816003019080519060200190610e799291906115d0565b5060808201518160040160006101000a81548160ff02191690836003811115610ea557610ea46117ab565b5b021790555060a08201518160040160016101000a81548173ffffffffffffffffffffffffffffffffffffffff021916908373ffffffffffffffffffffffffffffffffffffffff160217905550505060026000815480929190610f0690612100565b9190505550505050505050565b60048181548110610f2357600080fd5b9060005260206000209060050201600091509050806000018054610f4690611f94565b80601f0160208091040260200160405190810160405280929190818152602001828054610f7290611f94565b8015610fbf5780601f10610f9457610100808354040283529160200191610fbf565b820191906000526020600020905b815481529060010190602001808311610fa257829003601f168201915b505050505090806001018054610fd490611f94565b80601f016020809104026020016040519081016040528092919081815260200182805461100090611f94565b801561104d5780601f106110225761010080835404028352916020019161104d565b820191906000526020600020905b81548152906001019060200180831161103057829003601f168201915b50505050509080600201805461106290611f94565b80601f016020809104026020016040519081016040528092919081815260200182805461108e90611f94565b80156110db5780601f106110b0576101008083540402835291602001916110db565b820191906000526020600020905b8154815290600101906020018083116110be57829003601f168201915b5050505050908060030180546110f090611f94565b80601f016020809104026020016040519081016040528092919081815260200182805461111c90611f94565b80156111695780601f1061113e57610100808354040283529160200191611169565b820191906000526020600020905b81548152906001019060200180831161114c57829003601f168201915b5050505050908060040160009054906101000a900460ff16908060040160019054906101000a900473ffffffffffffffffffffffffffffffffffffffff16905086565b6060600380548060200260200160405190810160405280929190818152602001828054801561123057602002820191906000526020600020905b8160009054906101000a900473ffffffffffffffffffffffffffffffffffffffff1673ffffffffffffffffffffffffffffffffffffffff16815260200190600101908083116111e6575b5050505050905090565b60606004805480602002602001604051908101604052809291908181526020016000905b8282101561156957838290600052602060002090600502016040518060c001604052908160008201805461129190611f94565b80601f01602080910402602001604051908101604052809291908181526020018280546112bd90611f94565b801561130a5780601f106112df5761010080835404028352916020019161130a565b820191906000526020600020905b8154815290600101906020018083116112ed57829003601f168201915b5050505050815260200160018201805461132390611f94565b80601f016020809104026020016040519081016040528092919081815260200182805461134f90611f94565b801561139c5780601f106113715761010080835404028352916020019161139c565b820191906000526020600020905b81548152906001019060200180831161137f57829003601f168201915b505050505081526020016002820180546113b590611f94565b80601f01602080910402602001604051908101604052809291908181526020018280546113e190611f94565b801561142e5780601f106114035761010080835404028352916020019161142e565b820191906000526020600020905b81548152906001019060200180831161141157829003601f168201915b5050505050815260200160038201805461144790611f94565b80601f016020809104026020016040519081016040528092919081815260200182805461147390611f94565b80156114c05780601f10611495576101008083540402835291602001916114c0565b820191906000526020600020905b8154815290600101906020018083116114a357829003601f168201915b505050505081526020016004820160009054906101000a900460ff1660038111156114ee576114ed6117ab565b5b6003811115611500576114ff6117ab565b5b81526020016004820160019054906101000a900473ffffffffffffffffffffffffffffffffffffffff1673ffffffffffffffffffffffffffffffffffffffff1673ffffffffffffffffffffffffffffffffffffffff16815250508152602001906001019061125e565b50505050905090565b6040518060c0016040528060608152602001606081526020016060815260200160608152602001600060038111156115ad576115ac6117ab565b5b8152602001600073ffffffffffffffffffffffffffffffffffffffff1681525090565b8280546115dc90611f94565b90600052602060002090601f0160209004810192826115fe5760008555611645565b82601f1061161757805160ff1916838001178555611645565b82800160010185558215611645579182015b82811115611644578251825591602001919060010190611629565b5b5090506116529190611656565b5090565b5b8082111561166f576000816000905550600101611657565b5090565b6000604051905090565b600080fd5b600080fd5b600073ffffffffffffffffffffffffffffffffffffffff82169050919050565b60006116b282611687565b9050919050565b6116c2816116a7565b81146116cd57600080fd5b50565b6000813590506116df816116b9565b92915050565b6000602082840312156116fb576116fa61167d565b5b6000611709848285016116d0565b91505092915050565b600081519050919050565b600082825260208201905092915050565b60005b8381101561174c578082015181840152602081019050611731565b8381111561175b576000848401525b50505050565b6000601f19601f8301169050919050565b600061177d82611712565b611787818561171d565b935061179781856020860161172e565b6117a081611761565b840191505092915050565b7f4e487b7100000000000000000000000000000000000000000000000000000000600052602160045260246000fd5b600481106117eb576117ea6117ab565b5b50565b60008190506117fc826117da565b919050565b600061180c826117ee565b9050919050565b61181c81611801565b82525050565b61182b816116a7565b82525050565b600060c082019050818103600083015261184b8189611772565b9050818103602083015261185f8188611772565b905081810360408301526118738187611772565b905081810360608301526118878186611772565b90506118966080830185611813565b6118a360a0830184611822565b979650505050505050565b6000819050919050565b6118c1816118ae565b81146118cc57600080fd5b50565b6000813590506118de816118b8565b92915050565b6000602082840312156118fa576118f961167d565b5b6000611908848285016118cf565b91505092915050565b60006020820190506119266000830184611822565b92915050565b600082825260208201905092915050565b600061194882611712565b611952818561192c565b935061196281856020860161172e565b61196b81611761565b840191505092915050565b61197f81611801565b82525050565b61198e816116a7565b82525050565b600060c08301600083015184820360008601526119b1828261193d565b915050602083015184820360208601526119cb828261193d565b915050604083015184820360408601526119e5828261193d565b915050606083015184820360608601526119ff828261193d565b9150506080830151611a146080860182611976565b5060a0830151611a2760a0860182611985565b508091505092915050565b60006020820190508181036000830152611a4c8184611994565b905092915050565b611a5d816118ae565b82525050565b6000602082019050611a786000830184611a54565b92915050565b60008060408385031215611a9557611a9461167d565b5b6000611aa3858286016118cf565b9250506020611ab4858286016116d0565b9150509250929050565b60006020820190508181036000830152611ad88184611772565b905092915050565b600080fd5b600080fd5b7f4e487b7100000000000000000000000000000000000000000000000000000000600052604160045260246000fd5b611b2282611761565b810181811067ffffffffffffffff82111715611b4157611b40611aea565b5b80604052505050565b6000611b54611673565b9050611b608282611b19565b919050565b600067ffffffffffffffff821115611b8057611b7f611aea565b5b611b8982611761565b9050602081019050919050565b82818337600083830152505050565b6000611bb8611bb384611b65565b611b4a565b905082815260208101848484011115611bd457611bd3611ae5565b5b611bdf848285611b96565b509392505050565b600082601f830112611bfc57611bfb611ae0565b5b8135611c0c848260208601611ba5565b91505092915050565b60008060008060008060c08789031215611c3257611c3161167d565b5b600087013567ffffffffffffffff811115611c5057611c4f611682565b5b611c5c89828a01611be7565b965050602087013567ffffffffffffffff811115611c7d57611c7c611682565b5b611c8989828a01611be7565b955050604087013567ffffffffffffffff811115611caa57611ca9611682565b5b611cb689828a01611be7565b945050606087013567ffffffffffffffff811115611cd757611cd6611682565b5b611ce389828a01611be7565b9350506080611cf489828a016118cf565b92505060a0611d0589828a016116d0565b9150509295509295509295565b600081519050919050565b600082825260208201905092915050565b6000819050602082019050919050565b6000611d4a8383611985565b60208301905092915050565b6000602082019050919050565b6000611d6e82611d12565b611d788185611d1d565b9350611d8383611d2e565b8060005b83811015611db4578151611d9b8882611d3e565b9750611da683611d56565b925050600181019050611d87565b5085935050505092915050565b60006020820190508181036000830152611ddb8184611d63565b905092915050565b600081519050919050565b600082825260208201905092915050565b6000819050602082019050919050565b600060c0830160008301518482036000860152611e2c828261193d565b91505060208301518482036020860152611e46828261193d565b91505060408301518482036040860152611e60828261193d565b91505060608301518482036060860152611e7a828261193d565b9150506080830151611e8f6080860182611976565b5060a0830151611ea260a0860182611985565b508091505092915050565b6000611eb98383611e0f565b905092915050565b6000602082019050919050565b6000611ed982611de3565b611ee38185611dee565b935083602082028501611ef585611dff565b8060005b85811015611f315784840389528151611f128582611ead565b9450611f1d83611ec1565b925060208a01995050600181019050611ef9565b50829750879550505050505092915050565b60006020820190508181036000830152611f5d8184611ece565b905092915050565b7f4e487b7100000000000000000000000000000000000000000000000000000000600052602260045260246000fd5b60006002820490506001821680611fac57607f821691505b60208210811415611fc057611fbf611f65565b5b50919050565b7f596f7520617265206e6f7420616e206f776e6572000000000000000000000000600082015250565b6000611ffc60148361171d565b915061200782611fc6565b602082019050919050565b6000602082019050818103600083015261202b81611fef565b9050919050565b600081905092915050565b600061204882611712565b6120528185612032565b935061206281856020860161172e565b80840191505092915050565b600061207a828461203d565b915081905092915050565b6000606082019050818103600083015261209f8186611772565b905081810360208301526120b38185611772565b905081810360408301526120c78184611772565b9050949350505050565b7f4e487b7100000000000000000000000000000000000000000000000000000000600052601160045260246000fd5b600061210b826118ae565b91507fffffffffffffffffffffffffffffffffffffffffffffffffffffffffffffffff82141561213e5761213d6120d1565b5b60018201905091905056fea264697066735822122017c6662f112622af2977e025f21835eaed0361d5266626d9e3f9aa943e3baf1664736f6c634300080a0033",
  "immutableReferences": {},
  "source": "// SPDX-License-Identifier: MIT\r\npragma solidity >=0.8.0 <0.9.0;\r\n\r\ncontract User {\r\n    mapping(address => S_UserData) public userInfo;\r\n    address public owner;\r\n    uint256 public usersCount = 0;\r\n    address[] public userAddresses;\r\n\r\n    S_UserData[] public allUsers;\r\n\r\n    struct S_UserData {\r\n        string username;\r\n        string email;\r\n        string firstname;\r\n        string lastname;\r\n        Roles role;\r\n        address walletAddress;\r\n    }\r\n\r\n    enum Roles {\r\n        DefaultRole,\r\n        ProjectInitiator,\r\n        CompanyBuilder,\r\n        ProjectSupervisor\r\n    }\r\n\r\n    event UserRegistered(\r\n        address indexed _walletAddress,\r\n        string indexed _username,\r\n        string _email,\r\n        string _firstname,\r\n        string _lastname,\r\n        Roles indexed _role\r\n    );\r\n\r\n    constructor() {\r\n        owner = msg.sender;\r\n    }\r\n\r\n    modifier onlyOwner() {\r\n        require(owner == msg.sender, \"You are not an owner\");\r\n        _;\r\n    }\r\n\r\n    modifier checkUser(address _address) {\r\n        require(_address == msg.sender, \"Address\");\r\n        _;\r\n    }\r\n\r\n    function registerUser(\r\n        string memory _username,\r\n        string memory _email,\r\n        string memory _firstname,\r\n        string memory _lastname,\r\n        uint256 _role,\r\n        address _walletAddress\r\n    ) public onlyOwner {\r\n        userInfo[_walletAddress].username = _username;\r\n        userInfo[_walletAddress].email = _email;\r\n        userInfo[_walletAddress].firstname = _firstname;\r\n        userInfo[_walletAddress].lastname = _lastname;\r\n        userInfo[_walletAddress].role = Roles(_role);\r\n        userInfo[_walletAddress].walletAddress = _walletAddress;\r\n        emit UserRegistered(\r\n            _walletAddress,\r\n            _username,\r\n            _email,\r\n            _firstname,\r\n            _lastname,\r\n            Roles(_role)\r\n        );\r\n        userAddresses.push(_walletAddress);\r\n        allUsers.push(S_UserData(_username, _email, _firstname, _lastname, Roles(_role), _walletAddress));\r\n        usersCount++;\r\n    }\r\n\r\n    function changeUserRole(uint _role, address _walletAddress) public onlyOwner returns(string memory) {\r\n        userInfo[_walletAddress].role = Roles(_role);\r\n        return \"Role Updated!\";\r\n    }\r\n\r\n    function getUserAddresses() external view returns (address[] memory) {\r\n        return userAddresses;\r\n    }\r\n\r\n    function getAllUsers() external view returns (S_UserData[] memory) {\r\n        return allUsers;\r\n    }\r\n\r\n    function getUserInfo(address _address)\r\n        external\r\n        view\r\n        returns (S_UserData memory)\r\n    {\r\n        return userInfo[_address];\r\n    }\r\n}\r\n",
  "sourcePath": "/mnt/c/users/beniamin/source/repos/dissertationproject/contracts/User.sol",
  "compiler": {
    "name": "solc",
    "version": "0.8.10+commit.fc410830.Emscripten.clang"
  },
  "schemaVersion": "3.4.3",
  "updatedAt": "2021-11-17T08:53:55.345Z",
  "devdoc": {
    "kind": "dev",
    "methods": {},
    "version": 1
  },
  "userdoc": {
    "kind": "user",
    "methods": {},
    "version": 1
  }
}