{
  "contractName": "UserChain",
  "abi": [
    {
      "inputs": [],
      "stateMutability": "nonpayable",
      "type": "constructor"
    },
    {
      "anonymous": false,
      "inputs": [
        {
          "indexed": true,
          "internalType": "address",
          "name": "_walletAddress",
          "type": "address"
        },
        {
          "indexed": true,
          "internalType": "string",
          "name": "_username",
          "type": "string"
        },
        {
          "indexed": false,
          "internalType": "bytes32",
          "name": "_email",
          "type": "bytes32"
        },
        {
          "indexed": false,
          "internalType": "bytes32",
          "name": "_firstname",
          "type": "bytes32"
        },
        {
          "indexed": false,
          "internalType": "bytes32",
          "name": "_lastname",
          "type": "bytes32"
        },
        {
          "indexed": true,
          "internalType": "enum UserChain.Roles",
          "name": "_role",
          "type": "uint8"
        },
        {
          "indexed": false,
          "internalType": "uint256",
          "name": "_timestamp",
          "type": "uint256"
        }
      ],
      "name": "UserEvent",
      "type": "event"
    },
    {
      "inputs": [
        {
          "internalType": "uint256",
          "name": "",
          "type": "uint256"
        }
      ],
      "name": "allUsers",
      "outputs": [
        {
          "internalType": "uint256",
          "name": "_index",
          "type": "uint256"
        },
        {
          "internalType": "string",
          "name": "_username",
          "type": "string"
        },
        {
          "internalType": "bytes32",
          "name": "_email",
          "type": "bytes32"
        },
        {
          "internalType": "bytes32",
          "name": "_firstname",
          "type": "bytes32"
        },
        {
          "internalType": "bytes32",
          "name": "_lastname",
          "type": "bytes32"
        },
        {
          "internalType": "enum UserChain.Roles",
          "name": "_role",
          "type": "uint8"
        },
        {
          "internalType": "address",
          "name": "_walletAddress",
          "type": "address"
        },
        {
          "internalType": "uint256",
          "name": "_timestamp",
          "type": "uint256"
        }
      ],
      "stateMutability": "view",
      "type": "function"
    },
    {
      "inputs": [],
      "name": "owner",
      "outputs": [
        {
          "internalType": "address",
          "name": "",
          "type": "address"
        }
      ],
      "stateMutability": "view",
      "type": "function"
    },
    {
      "inputs": [
        {
          "internalType": "address",
          "name": "",
          "type": "address"
        }
      ],
      "name": "users",
      "outputs": [
        {
          "internalType": "uint256",
          "name": "_index",
          "type": "uint256"
        },
        {
          "internalType": "string",
          "name": "_username",
          "type": "string"
        },
        {
          "internalType": "bytes32",
          "name": "_email",
          "type": "bytes32"
        },
        {
          "internalType": "bytes32",
          "name": "_firstname",
          "type": "bytes32"
        },
        {
          "internalType": "bytes32",
          "name": "_lastname",
          "type": "bytes32"
        },
        {
          "internalType": "enum UserChain.Roles",
          "name": "_role",
          "type": "uint8"
        },
        {
          "internalType": "address",
          "name": "_walletAddress",
          "type": "address"
        },
        {
          "internalType": "uint256",
          "name": "_timestamp",
          "type": "uint256"
        }
      ],
      "stateMutability": "view",
      "type": "function"
    },
    {
      "inputs": [],
      "name": "usersCounter",
      "outputs": [
        {
          "internalType": "uint256",
          "name": "",
          "type": "uint256"
        }
      ],
      "stateMutability": "view",
      "type": "function"
    },
    {
      "inputs": [
        {
          "internalType": "string",
          "name": "_username",
          "type": "string"
        },
        {
          "internalType": "bytes32",
          "name": "_email",
          "type": "bytes32"
        },
        {
          "internalType": "bytes32",
          "name": "_firstname",
          "type": "bytes32"
        },
        {
          "internalType": "bytes32",
          "name": "_lastname",
          "type": "bytes32"
        },
        {
          "internalType": "uint256",
          "name": "_role",
          "type": "uint256"
        },
        {
          "internalType": "address",
          "name": "_walletAddress",
          "type": "address"
        }
      ],
      "name": "registerUser",
      "outputs": [],
      "stateMutability": "nonpayable",
      "type": "function"
    },
    {
      "inputs": [
        {
          "internalType": "uint256",
          "name": "_role",
          "type": "uint256"
        },
        {
          "internalType": "address",
          "name": "_walletAddress",
          "type": "address"
        }
      ],
      "name": "changeUserRole",
      "outputs": [],
      "stateMutability": "nonpayable",
      "type": "function"
    },
    {
      "inputs": [],
      "name": "getAllUsers",
      "outputs": [
        {
          "components": [
            {
              "internalType": "uint256",
              "name": "_index",
              "type": "uint256"
            },
            {
              "internalType": "string",
              "name": "_username",
              "type": "string"
            },
            {
              "internalType": "bytes32",
              "name": "_email",
              "type": "bytes32"
            },
            {
              "internalType": "bytes32",
              "name": "_firstname",
              "type": "bytes32"
            },
            {
              "internalType": "bytes32",
              "name": "_lastname",
              "type": "bytes32"
            },
            {
              "internalType": "enum UserChain.Roles",
              "name": "_role",
              "type": "uint8"
            },
            {
              "internalType": "address",
              "name": "_walletAddress",
              "type": "address"
            },
            {
              "internalType": "uint256",
              "name": "_timestamp",
              "type": "uint256"
            }
          ],
          "internalType": "struct UserChain.User[]",
          "name": "",
          "type": "tuple[]"
        }
      ],
      "stateMutability": "view",
      "type": "function"
    },
    {
      "inputs": [
        {
          "internalType": "address",
          "name": "_walletAddress",
          "type": "address"
        }
      ],
      "name": "getUserInfo",
      "outputs": [
        {
          "components": [
            {
              "internalType": "uint256",
              "name": "_index",
              "type": "uint256"
            },
            {
              "internalType": "string",
              "name": "_username",
              "type": "string"
            },
            {
              "internalType": "bytes32",
              "name": "_email",
              "type": "bytes32"
            },
            {
              "internalType": "bytes32",
              "name": "_firstname",
              "type": "bytes32"
            },
            {
              "internalType": "bytes32",
              "name": "_lastname",
              "type": "bytes32"
            },
            {
              "internalType": "enum UserChain.Roles",
              "name": "_role",
              "type": "uint8"
            },
            {
              "internalType": "address",
              "name": "_walletAddress",
              "type": "address"
            },
            {
              "internalType": "uint256",
              "name": "_timestamp",
              "type": "uint256"
            }
          ],
          "internalType": "struct UserChain.User",
          "name": "",
          "type": "tuple"
        }
      ],
      "stateMutability": "view",
      "type": "function"
    }
  ],
  "bytecode": "0x6080604052600060035534801561001557600080fd5b50336000806101000a81548173ffffffffffffffffffffffffffffffffffffffff021916908373ffffffffffffffffffffffffffffffffffffffff160217905550611bb1806100656000396000f3fe608060405234801561001057600080fd5b50600436106100885760003560e01c8063a87430ba1161005b578063a87430ba1461012e578063cf13f5d414610165578063d67b1b9914610181578063e2842d791461019f57610088565b80636386c1c71461008d5780638da5cb5b146100bd57806391009786146100db578063a2bdedf4146100f7575b600080fd5b6100a760048036038101906100a291906110fc565b6101bd565b6040516100b4919061132a565b60405180910390f35b6100c561036c565b6040516100d2919061135b565b60405180910390f35b6100f560048036038101906100f091906113a2565b610390565b005b610111600480360381019061010c91906113e2565b61064d565b604051610125989796959493929190611486565b60405180910390f35b610148600480360381019061014391906110fc565b61075a565b60405161015c989796959493929190611486565b60405180910390f35b61017f600480360381019061017a919061166c565b610857565b005b610189610db6565b6040516101969190611715565b60405180910390f35b6101a7610dbc565b6040516101b491906118a2565b60405180910390f35b6101c5610f71565b600160008373ffffffffffffffffffffffffffffffffffffffff1673ffffffffffffffffffffffffffffffffffffffff168152602001908152602001600020604051806101000160405290816000820154815260200160018201805461022a906118f3565b80601f0160208091040260200160405190810160405280929190818152602001828054610256906118f3565b80156102a35780601f10610278576101008083540402835291602001916102a3565b820191906000526020600020905b81548152906001019060200180831161028657829003601f168201915b505050505081526020016002820154815260200160038201548152602001600482015481526020016005820160009054906101000a900460ff1660038111156102ef576102ee6111f4565b5b6003811115610301576103006111f4565b5b81526020016005820160019054906101000a900473ffffffffffffffffffffffffffffffffffffffff1673ffffffffffffffffffffffffffffffffffffffff1673ffffffffffffffffffffffffffffffffffffffff1681526020016006820154815250509050919050565b60008054906101000a900473ffffffffffffffffffffffffffffffffffffffff1681565b8160038111156103a3576103a26111f4565b5b600160008373ffffffffffffffffffffffffffffffffffffffff1673ffffffffffffffffffffffffffffffffffffffff16815260200190815260200160002060050160006101000a81548160ff02191690836003811115610407576104066111f4565b5b02179055506000600160008373ffffffffffffffffffffffffffffffffffffffff1673ffffffffffffffffffffffffffffffffffffffff168152602001908152602001600020600001549050826003811115610466576104656111f4565b5b6002828154811061047a57610479611925565b5b906000526020600020906007020160050160006101000a81548160ff021916908360038111156104ad576104ac6111f4565b5b02179055508260038111156104c5576104c46111f4565b5b60038111156104d7576104d66111f4565b5b600160008473ffffffffffffffffffffffffffffffffffffffff1673ffffffffffffffffffffffffffffffffffffffff16815260200190815260200160002060010160405161052691906119f3565b60405180910390208373ffffffffffffffffffffffffffffffffffffffff167f2ae7d1f3a516b67fe6248bb3ec44ca6a8e8d75492c92879f0e621a85954e984a600160008773ffffffffffffffffffffffffffffffffffffffff1673ffffffffffffffffffffffffffffffffffffffff16815260200190815260200160002060020154600160008873ffffffffffffffffffffffffffffffffffffffff1673ffffffffffffffffffffffffffffffffffffffff16815260200190815260200160002060030154600160008973ffffffffffffffffffffffffffffffffffffffff1673ffffffffffffffffffffffffffffffffffffffff16815260200190815260200160002060040154426040516106409493929190611a0a565b60405180910390a4505050565b6002818154811061065d57600080fd5b9060005260206000209060070201600091509050806000015490806001018054610686906118f3565b80601f01602080910402602001604051908101604052809291908181526020018280546106b2906118f3565b80156106ff5780601f106106d4576101008083540402835291602001916106ff565b820191906000526020600020905b8154815290600101906020018083116106e257829003601f168201915b5050505050908060020154908060030154908060040154908060050160009054906101000a900460ff16908060050160019054906101000a900473ffffffffffffffffffffffffffffffffffffffff16908060060154905088565b6001602052806000526040600020600091509050806000015490806001018054610783906118f3565b80601f01602080910402602001604051908101604052809291908181526020018280546107af906118f3565b80156107fc5780601f106107d1576101008083540402835291602001916107fc565b820191906000526020600020905b8154815290600101906020018083116107df57829003601f168201915b5050505050908060020154908060030154908060040154908060050160009054906101000a900460ff16908060050160019054906101000a900473ffffffffffffffffffffffffffffffffffffffff16908060060154905088565b3373ffffffffffffffffffffffffffffffffffffffff1660008054906101000a900473ffffffffffffffffffffffffffffffffffffffff1673ffffffffffffffffffffffffffffffffffffffff16146108e5576040517f08c379a00000000000000000000000000000000000000000000000000000000081526004016108dc90611a9b565b60405180910390fd5b600354600160008373ffffffffffffffffffffffffffffffffffffffff1673ffffffffffffffffffffffffffffffffffffffff1681526020019081526020016000206000018190555085600160008373ffffffffffffffffffffffffffffffffffffffff1673ffffffffffffffffffffffffffffffffffffffff1681526020019081526020016000206001019080519060200190610984929190610fe7565b5084600160008373ffffffffffffffffffffffffffffffffffffffff1673ffffffffffffffffffffffffffffffffffffffff1681526020019081526020016000206002018190555083600160008373ffffffffffffffffffffffffffffffffffffffff1673ffffffffffffffffffffffffffffffffffffffff1681526020019081526020016000206003018190555082600160008373ffffffffffffffffffffffffffffffffffffffff1673ffffffffffffffffffffffffffffffffffffffff16815260200190815260200160002060040181905550816003811115610a6d57610a6c6111f4565b5b600160008373ffffffffffffffffffffffffffffffffffffffff1673ffffffffffffffffffffffffffffffffffffffff16815260200190815260200160002060050160006101000a81548160ff02191690836003811115610ad157610ad06111f4565b5b021790555080600160008373ffffffffffffffffffffffffffffffffffffffff1673ffffffffffffffffffffffffffffffffffffffff16815260200190815260200160002060050160016101000a81548173ffffffffffffffffffffffffffffffffffffffff021916908373ffffffffffffffffffffffffffffffffffffffff16021790555042600160008373ffffffffffffffffffffffffffffffffffffffff1673ffffffffffffffffffffffffffffffffffffffff16815260200190815260200160002060060181905550816003811115610bb157610bb06111f4565b5b6003811115610bc357610bc26111f4565b5b86604051610bd19190611aec565b60405180910390208273ffffffffffffffffffffffffffffffffffffffff167f2ae7d1f3a516b67fe6248bb3ec44ca6a8e8d75492c92879f0e621a85954e984a88888842604051610c259493929190611a0a565b60405180910390a460026040518061010001604052806003548152602001888152602001878152602001868152602001858152602001846003811115610c6e57610c6d6111f4565b5b6003811115610c8057610c7f6111f4565b5b81526020018373ffffffffffffffffffffffffffffffffffffffff168152602001428152509080600181540180825580915050600190039060005260206000209060070201600090919091909150600082015181600001556020820151816001019080519060200190610cf4929190610fe7565b5060408201518160020155606082015181600301556080820151816004015560a08201518160050160006101000a81548160ff02191690836003811115610d3e57610d3d6111f4565b5b021790555060c08201518160050160016101000a81548173ffffffffffffffffffffffffffffffffffffffff021916908373ffffffffffffffffffffffffffffffffffffffff16021790555060e08201518160060155505060036000815480929190610da990611b32565b9190505550505050505050565b60035481565b60606002805480602002602001604051908101604052809291908181526020016000905b82821015610f6857838290600052602060002090600702016040518061010001604052908160008201548152602001600182018054610e1e906118f3565b80601f0160208091040260200160405190810160405280929190818152602001828054610e4a906118f3565b8015610e975780601f10610e6c57610100808354040283529160200191610e97565b820191906000526020600020905b815481529060010190602001808311610e7a57829003601f168201915b505050505081526020016002820154815260200160038201548152602001600482015481526020016005820160009054906101000a900460ff166003811115610ee357610ee26111f4565b5b6003811115610ef557610ef46111f4565b5b81526020016005820160019054906101000a900473ffffffffffffffffffffffffffffffffffffffff1673ffffffffffffffffffffffffffffffffffffffff1673ffffffffffffffffffffffffffffffffffffffff16815260200160068201548152505081526020019060010190610de0565b50505050905090565b604051806101000160405280600081526020016060815260200160008019168152602001600080191681526020016000801916815260200160006003811115610fbd57610fbc6111f4565b5b8152602001600073ffffffffffffffffffffffffffffffffffffffff168152602001600081525090565b828054610ff3906118f3565b90600052602060002090601f016020900481019282611015576000855561105c565b82601f1061102e57805160ff191683800117855561105c565b8280016001018555821561105c579182015b8281111561105b578251825591602001919060010190611040565b5b509050611069919061106d565b5090565b5b8082111561108657600081600090555060010161106e565b5090565b6000604051905090565b600080fd5b600080fd5b600073ffffffffffffffffffffffffffffffffffffffff82169050919050565b60006110c98261109e565b9050919050565b6110d9816110be565b81146110e457600080fd5b50565b6000813590506110f6816110d0565b92915050565b60006020828403121561111257611111611094565b5b6000611120848285016110e7565b91505092915050565b6000819050919050565b61113c81611129565b82525050565b600081519050919050565b600082825260208201905092915050565b60005b8381101561117c578082015181840152602081019050611161565b8381111561118b576000848401525b50505050565b6000601f19601f8301169050919050565b60006111ad82611142565b6111b7818561114d565b93506111c781856020860161115e565b6111d081611191565b840191505092915050565b6000819050919050565b6111ee816111db565b82525050565b7f4e487b7100000000000000000000000000000000000000000000000000000000600052602160045260246000fd5b60048110611234576112336111f4565b5b50565b600081905061124582611223565b919050565b600061125582611237565b9050919050565b6112658161124a565b82525050565b611274816110be565b82525050565b6000610100830160008301516112936000860182611133565b50602083015184820360208601526112ab82826111a2565b91505060408301516112c060408601826111e5565b5060608301516112d360608601826111e5565b5060808301516112e660808601826111e5565b5060a08301516112f960a086018261125c565b5060c083015161130c60c086018261126b565b5060e083015161131f60e0860182611133565b508091505092915050565b60006020820190508181036000830152611344818461127a565b905092915050565b611355816110be565b82525050565b6000602082019050611370600083018461134c565b92915050565b61137f81611129565b811461138a57600080fd5b50565b60008135905061139c81611376565b92915050565b600080604083850312156113b9576113b8611094565b5b60006113c78582860161138d565b92505060206113d8858286016110e7565b9150509250929050565b6000602082840312156113f8576113f7611094565b5b60006114068482850161138d565b91505092915050565b61141881611129565b82525050565b600082825260208201905092915050565b600061143a82611142565b611444818561141e565b935061145481856020860161115e565b61145d81611191565b840191505092915050565b611471816111db565b82525050565b6114808161124a565b82525050565b60006101008201905061149c600083018b61140f565b81810360208301526114ae818a61142f565b90506114bd6040830189611468565b6114ca6060830188611468565b6114d76080830187611468565b6114e460a0830186611477565b6114f160c083018561134c565b6114fe60e083018461140f565b9998505050505050505050565b600080fd5b600080fd5b7f4e487b7100000000000000000000000000000000000000000000000000000000600052604160045260246000fd5b61154d82611191565b810181811067ffffffffffffffff8211171561156c5761156b611515565b5b80604052505050565b600061157f61108a565b905061158b8282611544565b919050565b600067ffffffffffffffff8211156115ab576115aa611515565b5b6115b482611191565b9050602081019050919050565b82818337600083830152505050565b60006115e36115de84611590565b611575565b9050828152602081018484840111156115ff576115fe611510565b5b61160a8482856115c1565b509392505050565b600082601f8301126116275761162661150b565b5b81356116378482602086016115d0565b91505092915050565b611649816111db565b811461165457600080fd5b50565b60008135905061166681611640565b92915050565b60008060008060008060c0878903121561168957611688611094565b5b600087013567ffffffffffffffff8111156116a7576116a6611099565b5b6116b389828a01611612565b96505060206116c489828a01611657565b95505060406116d589828a01611657565b94505060606116e689828a01611657565b93505060806116f789828a0161138d565b92505060a061170889828a016110e7565b9150509295509295509295565b600060208201905061172a600083018461140f565b92915050565b600081519050919050565b600082825260208201905092915050565b6000819050602082019050919050565b6000610100830160008301516117756000860182611133565b506020830151848203602086015261178d82826111a2565b91505060408301516117a260408601826111e5565b5060608301516117b560608601826111e5565b5060808301516117c860808601826111e5565b5060a08301516117db60a086018261125c565b5060c08301516117ee60c086018261126b565b5060e083015161180160e0860182611133565b508091505092915050565b6000611818838361175c565b905092915050565b6000602082019050919050565b600061183882611730565b611842818561173b565b9350836020820285016118548561174c565b8060005b858110156118905784840389528151611871858261180c565b945061187c83611820565b925060208a01995050600181019050611858565b50829750879550505050505092915050565b600060208201905081810360008301526118bc818461182d565b905092915050565b7f4e487b7100000000000000000000000000000000000000000000000000000000600052602260045260246000fd5b6000600282049050600182168061190b57607f821691505b6020821081141561191f5761191e6118c4565b5b50919050565b7f4e487b7100000000000000000000000000000000000000000000000000000000600052603260045260246000fd5b600081905092915050565b60008190508160005260206000209050919050565b60008154611981816118f3565b61198b8186611954565b945060018216600081146119a657600181146119b7576119ea565b60ff198316865281860193506119ea565b6119c08561195f565b60005b838110156119e2578154818901526001820191506020810190506119c3565b838801955050505b50505092915050565b60006119ff8284611974565b915081905092915050565b6000608082019050611a1f6000830187611468565b611a2c6020830186611468565b611a396040830185611468565b611a46606083018461140f565b95945050505050565b7f596f7520617265206e6f7420616e206f776e6572000000000000000000000000600082015250565b6000611a8560148361141e565b9150611a9082611a4f565b602082019050919050565b60006020820190508181036000830152611ab481611a78565b9050919050565b6000611ac682611142565b611ad08185611954565b9350611ae081856020860161115e565b80840191505092915050565b6000611af88284611abb565b915081905092915050565b7f4e487b7100000000000000000000000000000000000000000000000000000000600052601160045260246000fd5b6000611b3d82611129565b91507fffffffffffffffffffffffffffffffffffffffffffffffffffffffffffffffff821415611b7057611b6f611b03565b5b60018201905091905056fea264697066735822122027be47033ac8e76072049e10191eb8123fbb8f7befae9adb106159882607d82164736f6c634300080a0033",
  "immutableReferences": {},
  "source": "// SPDX-License-Identifier: MIT\r\npragma solidity >=0.8.0 <0.9.0;\r\n\r\ncontract UserChain {\r\n    address public owner;\r\n\r\n    mapping(address => User) public users;\r\n    User[] public allUsers;\r\n    uint256 public usersCounter = 0;\r\n\r\n    enum Roles {\r\n        DefaultRole,\r\n        ProjectInitiator,\r\n        CompanyBuilder,\r\n        ProjectSupervisor\r\n    }\r\n\r\n    struct User {\r\n        uint _index;\r\n        string _username;\r\n        bytes32 _email;\r\n        bytes32 _firstname;\r\n        bytes32 _lastname;\r\n        Roles _role;\r\n        address _walletAddress;\r\n        uint _timestamp;\r\n    }\r\n    event UserEvent(\r\n        address indexed _walletAddress,\r\n        string indexed _username,\r\n        bytes32 _email,\r\n        bytes32 _firstname,\r\n        bytes32 _lastname,\r\n        Roles indexed _role,\r\n        uint _timestamp\r\n    );\r\n\r\n    constructor() {\r\n        owner = msg.sender;\r\n    }\r\n\r\n    modifier onlyOwner() {\r\n        require(owner == msg.sender, \"You are not an owner\");\r\n        _;\r\n    }\r\n\r\n    modifier checkUser(address _address) {\r\n        require(_address == msg.sender, \"Address\");\r\n        _;\r\n    }\r\n\r\n    function registerUser(\r\n        string memory _username,\r\n        bytes32 _email,\r\n        bytes32 _firstname,\r\n        bytes32 _lastname,\r\n        uint256 _role,\r\n        address _walletAddress\r\n    ) public onlyOwner {\r\n        users[_walletAddress]._index = usersCounter;\r\n        users[_walletAddress]._username = _username;\r\n        users[_walletAddress]._email = _email;\r\n        users[_walletAddress]._firstname = _firstname;\r\n        users[_walletAddress]._lastname = _lastname;\r\n        users[_walletAddress]._role = Roles(_role);\r\n        users[_walletAddress]._walletAddress = _walletAddress;\r\n        users[_walletAddress]._timestamp = block.timestamp;\r\n\r\n        emit UserEvent(\r\n            _walletAddress,\r\n            _username,\r\n            _email,\r\n            _firstname,\r\n            _lastname,\r\n            Roles(_role),\r\n            block.timestamp\r\n        );\r\n        allUsers.push(User(usersCounter, _username, _email, _firstname, _lastname, Roles(_role), _walletAddress, block.timestamp));\r\n        usersCounter++;\r\n    }\r\n\r\n    function changeUserRole(uint _role, address _walletAddress) public {\r\n        users[_walletAddress]._role = Roles(_role);\r\n        uint index = users[_walletAddress]._index;\r\n        allUsers[index]._role = Roles(_role);\r\n\r\n        emit UserEvent(\r\n            _walletAddress,\r\n            users[_walletAddress]._username,\r\n            users[_walletAddress]._email,\r\n            users[_walletAddress]._firstname,\r\n            users[_walletAddress]._lastname,\r\n            Roles(_role),\r\n            block.timestamp\r\n        );\r\n    }\r\n\r\n    function getAllUsers() public view returns (User[] memory) {\r\n        return allUsers;\r\n    }\r\n\r\n    function getUserInfo(address _walletAddress) public view returns (User memory) {\r\n        return users[_walletAddress];\r\n    }\r\n}\r\n",
  "sourcePath": "/mnt/c/Users/Beniamin/source/repos/DissertationProject/contracts/UserChain.sol",
  "compiler": {
    "name": "solc",
    "version": "0.8.10+commit.fc410830.Emscripten.clang"
  },
  "schemaVersion": "3.4.3",
  "updatedAt": "2021-11-22T20:28:40.053Z",
  "devdoc": {
    "kind": "dev",
    "methods": {},
    "version": 1
  },
  "userdoc": {
    "kind": "user",
    "methods": {},
    "version": 1
  }
}