{
  "contractName": "UserChain",
  "abi": [
    {
      "inputs": [],
      "stateMutability": "nonpayable",
      "type": "constructor"
    },
    {
      "anonymous": false,
      "inputs": [
        {
          "components": [
            {
              "internalType": "uint256",
              "name": "_index",
              "type": "uint256"
            },
            {
              "internalType": "string",
              "name": "_name",
              "type": "string"
            },
            {
              "internalType": "enum SharedChain.ProjectStatus",
              "name": "_status",
              "type": "uint8"
            },
            {
              "internalType": "string",
              "name": "_ipfsFileCID",
              "type": "string"
            },
            {
              "internalType": "address",
              "name": "_projectAddress",
              "type": "address"
            },
            {
              "internalType": "address",
              "name": "_signerAddress",
              "type": "address"
            },
            {
              "internalType": "address",
              "name": "_companyAddress",
              "type": "address"
            },
            {
              "internalType": "bool",
              "name": "_assigned",
              "type": "bool"
            },
            {
              "internalType": "uint256",
              "name": "_timestamp",
              "type": "uint256"
            },
            {
              "internalType": "string",
              "name": "_signature",
              "type": "string"
            }
          ],
          "indexed": false,
          "internalType": "struct SharedChain.Project",
          "name": "_project",
          "type": "tuple"
        },
        {
          "indexed": true,
          "internalType": "address",
          "name": "_projectAddress",
          "type": "address"
        },
        {
          "indexed": true,
          "internalType": "address",
          "name": "_companyAddress",
          "type": "address"
        }
      ],
      "name": "ProjectEvent",
      "type": "event"
    },
    {
      "anonymous": false,
      "inputs": [
        {
          "components": [
            {
              "internalType": "uint256",
              "name": "_index",
              "type": "uint256"
            },
            {
              "internalType": "string",
              "name": "_title",
              "type": "string"
            },
            {
              "internalType": "string",
              "name": "_comments",
              "type": "string"
            },
            {
              "internalType": "enum SharedChain.ProjectStatus",
              "name": "_projectStatus",
              "type": "uint8"
            },
            {
              "internalType": "enum SharedChain.RequestStatus",
              "name": "_requestStatus",
              "type": "uint8"
            },
            {
              "internalType": "enum SharedChain.RequestType",
              "name": "_requestType",
              "type": "uint8"
            },
            {
              "internalType": "address",
              "name": "_projectAddress",
              "type": "address"
            },
            {
              "internalType": "address",
              "name": "_requestAddress",
              "type": "address"
            },
            {
              "internalType": "address",
              "name": "_signerAddress",
              "type": "address"
            },
            {
              "internalType": "uint256",
              "name": "_timestamp",
              "type": "uint256"
            },
            {
              "internalType": "string",
              "name": "_signature",
              "type": "string"
            }
          ],
          "indexed": false,
          "internalType": "struct SharedChain.Request",
          "name": "_request",
          "type": "tuple"
        },
        {
          "indexed": true,
          "internalType": "address",
          "name": "_requestAddress",
          "type": "address"
        },
        {
          "indexed": true,
          "internalType": "address",
          "name": "_projectAddress",
          "type": "address"
        }
      ],
      "name": "RequestEvent",
      "type": "event"
    },
    {
      "anonymous": false,
      "inputs": [
        {
          "components": [
            {
              "internalType": "bytes32",
              "name": "_firstname",
              "type": "bytes32"
            },
            {
              "internalType": "bytes32",
              "name": "_lastname",
              "type": "bytes32"
            },
            {
              "internalType": "enum SharedChain.Roles",
              "name": "_role",
              "type": "uint8"
            },
            {
              "internalType": "address",
              "name": "_walletAddress",
              "type": "address"
            },
            {
              "internalType": "uint256",
              "name": "_timestamp",
              "type": "uint256"
            }
          ],
          "indexed": false,
          "internalType": "struct SharedChain.User",
          "name": "_user",
          "type": "tuple"
        },
        {
          "indexed": true,
          "internalType": "address",
          "name": "_walletAddress",
          "type": "address"
        }
      ],
      "name": "UserEvent",
      "type": "event"
    },
    {
      "inputs": [
        {
          "internalType": "address",
          "name": "",
          "type": "address"
        }
      ],
      "name": "users",
      "outputs": [
        {
          "internalType": "bytes32",
          "name": "_firstname",
          "type": "bytes32"
        },
        {
          "internalType": "bytes32",
          "name": "_lastname",
          "type": "bytes32"
        },
        {
          "internalType": "enum SharedChain.Roles",
          "name": "_role",
          "type": "uint8"
        },
        {
          "internalType": "address",
          "name": "_walletAddress",
          "type": "address"
        },
        {
          "internalType": "uint256",
          "name": "_timestamp",
          "type": "uint256"
        }
      ],
      "stateMutability": "view",
      "type": "function",
      "constant": true
    },
    {
      "inputs": [],
      "name": "usersCounter",
      "outputs": [
        {
          "internalType": "uint256",
          "name": "",
          "type": "uint256"
        }
      ],
      "stateMutability": "view",
      "type": "function",
      "constant": true
    },
    {
      "inputs": [
        {
          "internalType": "bytes32",
          "name": "_firstname",
          "type": "bytes32"
        },
        {
          "internalType": "bytes32",
          "name": "_lastname",
          "type": "bytes32"
        },
        {
          "internalType": "uint256",
          "name": "_role",
          "type": "uint256"
        },
        {
          "internalType": "address",
          "name": "_walletAddress",
          "type": "address"
        }
      ],
      "name": "registerUser",
      "outputs": [],
      "stateMutability": "nonpayable",
      "type": "function"
    },
    {
      "inputs": [
        {
          "internalType": "uint256",
          "name": "_role",
          "type": "uint256"
        },
        {
          "internalType": "address",
          "name": "_walletAddress",
          "type": "address"
        }
      ],
      "name": "changeUserRole",
      "outputs": [],
      "stateMutability": "nonpayable",
      "type": "function"
    },
    {
      "inputs": [],
      "name": "getAllUsers",
      "outputs": [
        {
          "components": [
            {
              "internalType": "bytes32",
              "name": "_firstname",
              "type": "bytes32"
            },
            {
              "internalType": "bytes32",
              "name": "_lastname",
              "type": "bytes32"
            },
            {
              "internalType": "enum SharedChain.Roles",
              "name": "_role",
              "type": "uint8"
            },
            {
              "internalType": "address",
              "name": "_walletAddress",
              "type": "address"
            },
            {
              "internalType": "uint256",
              "name": "_timestamp",
              "type": "uint256"
            }
          ],
          "internalType": "struct SharedChain.User[]",
          "name": "",
          "type": "tuple[]"
        }
      ],
      "stateMutability": "view",
      "type": "function",
      "constant": true
    },
    {
      "inputs": [
        {
          "internalType": "address",
          "name": "_walletAddress",
          "type": "address"
        }
      ],
      "name": "getUserInfo",
      "outputs": [
        {
          "components": [
            {
              "internalType": "bytes32",
              "name": "_firstname",
              "type": "bytes32"
            },
            {
              "internalType": "bytes32",
              "name": "_lastname",
              "type": "bytes32"
            },
            {
              "internalType": "enum SharedChain.Roles",
              "name": "_role",
              "type": "uint8"
            },
            {
              "internalType": "address",
              "name": "_walletAddress",
              "type": "address"
            },
            {
              "internalType": "uint256",
              "name": "_timestamp",
              "type": "uint256"
            }
          ],
          "internalType": "struct SharedChain.User",
          "name": "",
          "type": "tuple"
        }
      ],
      "stateMutability": "view",
      "type": "function",
      "constant": true
    }
  ],
  "bytecode": "0x6080604052600060025534801561001557600080fd5b50336000806101000a81548173ffffffffffffffffffffffffffffffffffffffff021916908373ffffffffffffffffffffffffffffffffffffffff160217905550611154806100656000396000f3fe608060405234801561001057600080fd5b50600436106100625760003560e01c80633000d7f9146100675780636386c1c71461008357806391009786146100b3578063a87430ba146100cf578063d67b1b9914610103578063e2842d7914610121575b600080fd5b610081600480360381019061007c9190610a75565b61013f565b005b61009d60048036038101906100989190610adc565b610412565b6040516100aa9190610c15565b60405180910390f35b6100cd60048036038101906100c89190610c30565b61051a565b005b6100e960048036038101906100e49190610adc565b6106fb565b6040516100fa959493929190610cac565b60405180910390f35b61010b61075e565b6040516101189190610cff565b60405180910390f35b610129610764565b6040516101369190610e31565b60405180910390f35b3373ffffffffffffffffffffffffffffffffffffffff1660008054906101000a900473ffffffffffffffffffffffffffffffffffffffff1673ffffffffffffffffffffffffffffffffffffffff16146101cd576040517f08c379a00000000000000000000000000000000000000000000000000000000081526004016101c490610eb0565b60405180910390fd5b6040518060a001604052808581526020018481526020018360038111156101f7576101f6610b18565b5b600381111561020957610208610b18565b5b81526020018273ffffffffffffffffffffffffffffffffffffffff16815260200142815250600160008373ffffffffffffffffffffffffffffffffffffffff1673ffffffffffffffffffffffffffffffffffffffff168152602001908152602001600020600082015181600001556020820151816001015560408201518160020160006101000a81548160ff021916908360038111156102ac576102ab610b18565b5b021790555060608201518160020160016101000a81548173ffffffffffffffffffffffffffffffffffffffff021916908373ffffffffffffffffffffffffffffffffffffffff160217905550608082015181600301559050508073ffffffffffffffffffffffffffffffffffffffff167ff751778eb32087df58f173035147c2eac9aac89fdc2f83b1993a198606f56db1600160008473ffffffffffffffffffffffffffffffffffffffff1673ffffffffffffffffffffffffffffffffffffffff168152602001908152602001600020604051610389919061102d565b60405180910390a26003819080600181540180825580915050600190039060005260206000200160009091909190916101000a81548173ffffffffffffffffffffffffffffffffffffffff021916908373ffffffffffffffffffffffffffffffffffffffff1602179055506002600081548092919061040790611077565b919050555050505050565b61041a610949565b600160008373ffffffffffffffffffffffffffffffffffffffff1673ffffffffffffffffffffffffffffffffffffffff1681526020019081526020016000206040518060a001604052908160008201548152602001600182015481526020016002820160009054906101000a900460ff16600381111561049d5761049c610b18565b5b60038111156104af576104ae610b18565b5b81526020016002820160019054906101000a900473ffffffffffffffffffffffffffffffffffffffff1673ffffffffffffffffffffffffffffffffffffffff1673ffffffffffffffffffffffffffffffffffffffff1681526020016003820154815250509050919050565b3373ffffffffffffffffffffffffffffffffffffffff1660008054906101000a900473ffffffffffffffffffffffffffffffffffffffff1673ffffffffffffffffffffffffffffffffffffffff16146105a8576040517f08c379a000000000000000000000000000000000000000000000000000000000815260040161059f90610eb0565b60405180910390fd5b8160038111156105bb576105ba610b18565b5b600160008373ffffffffffffffffffffffffffffffffffffffff1673ffffffffffffffffffffffffffffffffffffffff16815260200190815260200160002060020160006101000a81548160ff0219169083600381111561061f5761061e610b18565b5b021790555042600160008373ffffffffffffffffffffffffffffffffffffffff1673ffffffffffffffffffffffffffffffffffffffff168152602001908152602001600020600301819055508073ffffffffffffffffffffffffffffffffffffffff167ff751778eb32087df58f173035147c2eac9aac89fdc2f83b1993a198606f56db1600160008473ffffffffffffffffffffffffffffffffffffffff1673ffffffffffffffffffffffffffffffffffffffff1681526020019081526020016000206040516106ef919061102d565b60405180910390a25050565b60016020528060005260406000206000915090508060000154908060010154908060020160009054906101000a900460ff16908060020160019054906101000a900473ffffffffffffffffffffffffffffffffffffffff16908060030154905085565b60025481565b6060600060025467ffffffffffffffff811115610784576107836110c0565b5b6040519080825280602002602001820160405280156107bd57816020015b6107aa610949565b8152602001906001900390816107a25790505b50905060005b600254811015610941576000600382815481106107e3576107e26110ef565b5b9060005260206000200160009054906101000a900473ffffffffffffffffffffffffffffffffffffffff1690506000600160008373ffffffffffffffffffffffffffffffffffffffff1673ffffffffffffffffffffffffffffffffffffffff1681526020019081526020016000209050806040518060a001604052908160008201548152602001600182015481526020016002820160009054906101000a900460ff16600381111561089857610897610b18565b5b60038111156108aa576108a9610b18565b5b81526020016002820160019054906101000a900473ffffffffffffffffffffffffffffffffffffffff1673ffffffffffffffffffffffffffffffffffffffff1673ffffffffffffffffffffffffffffffffffffffff168152602001600382015481525050848481518110610921576109206110ef565b5b60200260200101819052505050808061093990611077565b9150506107c3565b508091505090565b6040518060a0016040528060008019168152602001600080191681526020016000600381111561097c5761097b610b18565b5b8152602001600073ffffffffffffffffffffffffffffffffffffffff168152602001600081525090565b600080fd5b6000819050919050565b6109be816109ab565b81146109c957600080fd5b50565b6000813590506109db816109b5565b92915050565b6000819050919050565b6109f4816109e1565b81146109ff57600080fd5b50565b600081359050610a11816109eb565b92915050565b600073ffffffffffffffffffffffffffffffffffffffff82169050919050565b6000610a4282610a17565b9050919050565b610a5281610a37565b8114610a5d57600080fd5b50565b600081359050610a6f81610a49565b92915050565b60008060008060808587031215610a8f57610a8e6109a6565b5b6000610a9d878288016109cc565b9450506020610aae878288016109cc565b9350506040610abf87828801610a02565b9250506060610ad087828801610a60565b91505092959194509250565b600060208284031215610af257610af16109a6565b5b6000610b0084828501610a60565b91505092915050565b610b12816109ab565b82525050565b7f4e487b7100000000000000000000000000000000000000000000000000000000600052602160045260246000fd5b60048110610b5857610b57610b18565b5b50565b6000819050610b6982610b47565b919050565b6000610b7982610b5b565b9050919050565b610b8981610b6e565b82525050565b610b9881610a37565b82525050565b610ba7816109e1565b82525050565b60a082016000820151610bc36000850182610b09565b506020820151610bd66020850182610b09565b506040820151610be96040850182610b80565b506060820151610bfc6060850182610b8f565b506080820151610c0f6080850182610b9e565b50505050565b600060a082019050610c2a6000830184610bad565b92915050565b60008060408385031215610c4757610c466109a6565b5b6000610c5585828601610a02565b9250506020610c6685828601610a60565b9150509250929050565b610c79816109ab565b82525050565b610c8881610b6e565b82525050565b610c9781610a37565b82525050565b610ca6816109e1565b82525050565b600060a082019050610cc16000830188610c70565b610cce6020830187610c70565b610cdb6040830186610c7f565b610ce86060830185610c8e565b610cf56080830184610c9d565b9695505050505050565b6000602082019050610d146000830184610c9d565b92915050565b600081519050919050565b600082825260208201905092915050565b6000819050602082019050919050565b60a082016000820151610d5c6000850182610b09565b506020820151610d6f6020850182610b09565b506040820151610d826040850182610b80565b506060820151610d956060850182610b8f565b506080820151610da86080850182610b9e565b50505050565b6000610dba8383610d46565b60a08301905092915050565b6000602082019050919050565b6000610dde82610d1a565b610de88185610d25565b9350610df383610d36565b8060005b83811015610e24578151610e0b8882610dae565b9750610e1683610dc6565b925050600181019050610df7565b5085935050505092915050565b60006020820190508181036000830152610e4b8184610dd3565b905092915050565b600082825260208201905092915050565b7f596f7520617265206e6f7420616e206f776e65722e0000000000000000000000600082015250565b6000610e9a601583610e53565b9150610ea582610e64565b602082019050919050565b60006020820190508181036000830152610ec981610e8d565b9050919050565b60008160001c9050919050565b6000819050919050565b6000610efa610ef583610ed0565b610edd565b9050919050565b600060ff82169050919050565b6000610f21610f1c83610ed0565b610f01565b9050919050565b60008160081c9050919050565b600073ffffffffffffffffffffffffffffffffffffffff82169050919050565b6000610f68610f6383610f28565b610f35565b9050919050565b6000819050919050565b6000610f8c610f8783610ed0565b610f6f565b9050919050565b60a082016000808301549050610fa881610ee7565b610fb56000860182610b09565b5060018301549050610fc681610ee7565b610fd36020860182610b09565b5060028301549050610fe481610f0e565b610ff16040860182610b80565b50610ffb81610f55565b6110086060860182610b8f565b506003830154905061101981610f79565b6110266080860182610b9e565b5050505050565b600060a0820190506110426000830184610f93565b92915050565b7f4e487b7100000000000000000000000000000000000000000000000000000000600052601160045260246000fd5b6000611082826109e1565b91507fffffffffffffffffffffffffffffffffffffffffffffffffffffffffffffffff8214156110b5576110b4611048565b5b600182019050919050565b7f4e487b7100000000000000000000000000000000000000000000000000000000600052604160045260246000fd5b7f4e487b7100000000000000000000000000000000000000000000000000000000600052603260045260246000fdfea26469706673582212201b7a440f9388593b9a1f75816e4bd5cfb6eeba984784d3a2a756f85205ed70a364736f6c634300080a0033",
  "immutableReferences": {},
  "source": "// SPDX-License-Identifier: MIT\r\npragma solidity >=0.8.0 <0.9.0;\r\n\r\nimport './SharedChain.sol';\r\n\r\ncontract UserChain is SharedChain {\r\n    address owner;\r\n\r\n    mapping(address => User) public users;\r\n    uint256 public usersCounter = 0;\r\n    address[] usersAddress;\r\n\r\n    constructor() {\r\n        owner = msg.sender;\r\n    }\r\n\r\n    modifier onlyOwner() {\r\n        require(owner == msg.sender, \"You are not an owner.\");\r\n        _;\r\n    }\r\n\r\n    modifier checkUser(address _address) {\r\n        require(_address == owner, \"You are not an owner.\");\r\n        _;\r\n    }\r\n\r\n    function registerUser(\r\n        bytes32 _firstname,\r\n        bytes32 _lastname,\r\n        uint256 _role,\r\n        address _walletAddress\r\n    ) public onlyOwner {\r\n        users[_walletAddress] = User(\r\n            _firstname, _lastname,\r\n            Roles(_role), _walletAddress, block.timestamp\r\n        );\r\n\r\n        emit UserEvent(users[_walletAddress], _walletAddress);\r\n        usersAddress.push(_walletAddress);\r\n        usersCounter++;\r\n    }\r\n\r\n    function changeUserRole(uint256 _role, address _walletAddress) public onlyOwner {\r\n        users[_walletAddress]._role = Roles(_role);\r\n        users[_walletAddress]._timestamp = block.timestamp;\r\n        emit UserEvent(users[_walletAddress], _walletAddress);\r\n    }\r\n\r\n    function getAllUsers() public view returns(User[] memory) {\r\n        User[] memory allUsers = new User[](usersCounter);\r\n        for (uint256 index = 0; index < usersCounter; index++) {\r\n            address _walletAddress = usersAddress[index];\r\n            User storage user = users[_walletAddress];\r\n            allUsers[index] = user;\r\n        }\r\n        return allUsers;\r\n    }\r\n\r\n    function getUserInfo(address _walletAddress) public view returns (User memory) {\r\n        //require(msg.sender != address(0x0), \"Address is not valid.\");\r\n        return users[_walletAddress];\r\n    }\r\n}\r\n",
  "sourcePath": "/mnt/c/Users/Beniamin/source/repos/DissertationProject/contracts/UserChain.sol",
  "compiler": {
    "name": "solc",
    "version": "0.8.10+commit.fc410830.Emscripten.clang"
  },
  "schemaVersion": "3.4.3",
  "updatedAt": "2021-12-13T06:29:53.371Z",
  "networkType": "ethereum",
  "devdoc": {
    "kind": "dev",
    "methods": {},
    "version": 1
  },
  "userdoc": {
    "kind": "user",
    "methods": {},
    "version": 1
  }
}