{
  "contractName": "UserChain",
  "abi": [
    {
      "inputs": [],
      "stateMutability": "nonpayable",
      "type": "constructor"
    },
    {
      "anonymous": false,
      "inputs": [
        {
          "indexed": false,
          "internalType": "string",
          "name": "_name",
          "type": "string"
        },
        {
          "indexed": false,
          "internalType": "address",
          "name": "_uAddress",
          "type": "address"
        },
        {
          "indexed": false,
          "internalType": "string",
          "name": "_comment",
          "type": "string"
        }
      ],
      "name": "InformationEvent",
      "type": "event"
    },
    {
      "anonymous": false,
      "inputs": [
        {
          "components": [
            {
              "internalType": "uint256",
              "name": "_index",
              "type": "uint256"
            },
            {
              "internalType": "string",
              "name": "_name",
              "type": "string"
            },
            {
              "internalType": "enum SharedChain.ProjectStatus",
              "name": "_status",
              "type": "uint8"
            },
            {
              "internalType": "string",
              "name": "_ipfsFileCID",
              "type": "string"
            },
            {
              "internalType": "address",
              "name": "_projectAddress",
              "type": "address"
            },
            {
              "internalType": "address",
              "name": "_signerAddress",
              "type": "address"
            },
            {
              "internalType": "uint256",
              "name": "_timestamp",
              "type": "uint256"
            },
            {
              "internalType": "string",
              "name": "_signature",
              "type": "string"
            }
          ],
          "indexed": false,
          "internalType": "struct SharedChain.Project",
          "name": "_project",
          "type": "tuple"
        },
        {
          "indexed": true,
          "internalType": "address",
          "name": "_projectAddress",
          "type": "address"
        }
      ],
      "name": "ProjectEvent",
      "type": "event"
    },
    {
      "anonymous": false,
      "inputs": [
        {
          "components": [
            {
              "internalType": "uint256",
              "name": "_index",
              "type": "uint256"
            },
            {
              "internalType": "string",
              "name": "_title",
              "type": "string"
            },
            {
              "internalType": "string",
              "name": "_comments",
              "type": "string"
            },
            {
              "internalType": "enum SharedChain.ProjectStatus",
              "name": "_status",
              "type": "uint8"
            },
            {
              "internalType": "enum SharedChain.RequestStatus",
              "name": "_requestStatus",
              "type": "uint8"
            },
            {
              "internalType": "address",
              "name": "_projectAddress",
              "type": "address"
            },
            {
              "internalType": "address",
              "name": "_signerAddress",
              "type": "address"
            },
            {
              "internalType": "address",
              "name": "_requestAddress",
              "type": "address"
            },
            {
              "internalType": "uint256",
              "name": "_timestamp",
              "type": "uint256"
            },
            {
              "internalType": "string",
              "name": "_signature",
              "type": "string"
            }
          ],
          "indexed": false,
          "internalType": "struct SharedChain.ProjectRequest",
          "name": "_projectRequest",
          "type": "tuple"
        },
        {
          "indexed": true,
          "internalType": "address",
          "name": "_projectAddress",
          "type": "address"
        }
      ],
      "name": "ProjectRequestEvent",
      "type": "event"
    },
    {
      "anonymous": false,
      "inputs": [
        {
          "components": [
            {
              "internalType": "uint256",
              "name": "_index",
              "type": "uint256"
            },
            {
              "internalType": "uint256",
              "name": "_indexProjectRequest",
              "type": "uint256"
            },
            {
              "internalType": "string",
              "name": "_title",
              "type": "string"
            },
            {
              "internalType": "enum SharedChain.RequestStatus",
              "name": "_requestStatus",
              "type": "uint8"
            },
            {
              "internalType": "enum SharedChain.ProjectStatus",
              "name": "_projectStatus",
              "type": "uint8"
            },
            {
              "internalType": "enum SharedChain.RequestType",
              "name": "_requestType",
              "type": "uint8"
            },
            {
              "internalType": "address",
              "name": "_projectAddress",
              "type": "address"
            },
            {
              "internalType": "address",
              "name": "_signerAddress",
              "type": "address"
            },
            {
              "internalType": "address",
              "name": "_requestAddress",
              "type": "address"
            },
            {
              "internalType": "uint256",
              "name": "_timestamp",
              "type": "uint256"
            },
            {
              "internalType": "string",
              "name": "_signature",
              "type": "string"
            }
          ],
          "indexed": false,
          "internalType": "struct SharedChain.Request",
          "name": "_request",
          "type": "tuple"
        },
        {
          "indexed": true,
          "internalType": "address",
          "name": "_requestAddress",
          "type": "address"
        }
      ],
      "name": "RequestEvent",
      "type": "event"
    },
    {
      "anonymous": false,
      "inputs": [
        {
          "components": [
            {
              "internalType": "uint256",
              "name": "_index",
              "type": "uint256"
            },
            {
              "internalType": "string",
              "name": "_username",
              "type": "string"
            },
            {
              "internalType": "bytes32",
              "name": "_email",
              "type": "bytes32"
            },
            {
              "internalType": "bytes32",
              "name": "_firstname",
              "type": "bytes32"
            },
            {
              "internalType": "bytes32",
              "name": "_lastname",
              "type": "bytes32"
            },
            {
              "internalType": "enum SharedChain.Roles",
              "name": "_role",
              "type": "uint8"
            },
            {
              "internalType": "address",
              "name": "_walletAddress",
              "type": "address"
            },
            {
              "internalType": "uint256",
              "name": "_timestamp",
              "type": "uint256"
            },
            {
              "internalType": "string",
              "name": "_signature",
              "type": "string"
            }
          ],
          "indexed": false,
          "internalType": "struct SharedChain.User",
          "name": "_user",
          "type": "tuple"
        },
        {
          "indexed": true,
          "internalType": "address",
          "name": "_walletAddress",
          "type": "address"
        }
      ],
      "name": "UserEvent",
      "type": "event"
    },
    {
      "inputs": [
        {
          "internalType": "uint256",
          "name": "",
          "type": "uint256"
        }
      ],
      "name": "infos",
      "outputs": [
        {
          "internalType": "string",
          "name": "_name",
          "type": "string"
        },
        {
          "internalType": "address",
          "name": "_uAddress",
          "type": "address"
        },
        {
          "internalType": "string",
          "name": "_comment",
          "type": "string"
        }
      ],
      "stateMutability": "view",
      "type": "function",
      "constant": true
    },
    {
      "inputs": [
        {
          "internalType": "address",
          "name": "",
          "type": "address"
        }
      ],
      "name": "users",
      "outputs": [
        {
          "internalType": "uint256",
          "name": "_index",
          "type": "uint256"
        },
        {
          "internalType": "string",
          "name": "_username",
          "type": "string"
        },
        {
          "internalType": "bytes32",
          "name": "_email",
          "type": "bytes32"
        },
        {
          "internalType": "bytes32",
          "name": "_firstname",
          "type": "bytes32"
        },
        {
          "internalType": "bytes32",
          "name": "_lastname",
          "type": "bytes32"
        },
        {
          "internalType": "enum SharedChain.Roles",
          "name": "_role",
          "type": "uint8"
        },
        {
          "internalType": "address",
          "name": "_walletAddress",
          "type": "address"
        },
        {
          "internalType": "uint256",
          "name": "_timestamp",
          "type": "uint256"
        },
        {
          "internalType": "string",
          "name": "_signature",
          "type": "string"
        }
      ],
      "stateMutability": "view",
      "type": "function",
      "constant": true
    },
    {
      "inputs": [
        {
          "internalType": "string",
          "name": "_username",
          "type": "string"
        },
        {
          "internalType": "bytes32",
          "name": "_email",
          "type": "bytes32"
        },
        {
          "internalType": "bytes32",
          "name": "_firstname",
          "type": "bytes32"
        },
        {
          "internalType": "bytes32",
          "name": "_lastname",
          "type": "bytes32"
        },
        {
          "internalType": "uint256",
          "name": "_role",
          "type": "uint256"
        },
        {
          "internalType": "address",
          "name": "_walletAddress",
          "type": "address"
        },
        {
          "internalType": "string",
          "name": "_signature",
          "type": "string"
        }
      ],
      "name": "registerUser",
      "outputs": [],
      "stateMutability": "nonpayable",
      "type": "function"
    },
    {
      "inputs": [
        {
          "internalType": "uint256",
          "name": "_role",
          "type": "uint256"
        },
        {
          "internalType": "address",
          "name": "_walletAddress",
          "type": "address"
        },
        {
          "internalType": "string",
          "name": "_signature",
          "type": "string"
        }
      ],
      "name": "changeUserRole",
      "outputs": [],
      "stateMutability": "nonpayable",
      "type": "function"
    },
    {
      "inputs": [],
      "name": "getAllUsers",
      "outputs": [
        {
          "components": [
            {
              "internalType": "uint256",
              "name": "_index",
              "type": "uint256"
            },
            {
              "internalType": "string",
              "name": "_username",
              "type": "string"
            },
            {
              "internalType": "bytes32",
              "name": "_email",
              "type": "bytes32"
            },
            {
              "internalType": "bytes32",
              "name": "_firstname",
              "type": "bytes32"
            },
            {
              "internalType": "bytes32",
              "name": "_lastname",
              "type": "bytes32"
            },
            {
              "internalType": "enum SharedChain.Roles",
              "name": "_role",
              "type": "uint8"
            },
            {
              "internalType": "address",
              "name": "_walletAddress",
              "type": "address"
            },
            {
              "internalType": "uint256",
              "name": "_timestamp",
              "type": "uint256"
            },
            {
              "internalType": "string",
              "name": "_signature",
              "type": "string"
            }
          ],
          "internalType": "struct SharedChain.User[]",
          "name": "",
          "type": "tuple[]"
        }
      ],
      "stateMutability": "view",
      "type": "function",
      "constant": true
    },
    {
      "inputs": [
        {
          "internalType": "address",
          "name": "_walletAddress",
          "type": "address"
        }
      ],
      "name": "getUserInfo",
      "outputs": [
        {
          "components": [
            {
              "internalType": "uint256",
              "name": "_index",
              "type": "uint256"
            },
            {
              "internalType": "string",
              "name": "_username",
              "type": "string"
            },
            {
              "internalType": "bytes32",
              "name": "_email",
              "type": "bytes32"
            },
            {
              "internalType": "bytes32",
              "name": "_firstname",
              "type": "bytes32"
            },
            {
              "internalType": "bytes32",
              "name": "_lastname",
              "type": "bytes32"
            },
            {
              "internalType": "enum SharedChain.Roles",
              "name": "_role",
              "type": "uint8"
            },
            {
              "internalType": "address",
              "name": "_walletAddress",
              "type": "address"
            },
            {
              "internalType": "uint256",
              "name": "_timestamp",
              "type": "uint256"
            },
            {
              "internalType": "string",
              "name": "_signature",
              "type": "string"
            }
          ],
          "internalType": "struct SharedChain.User",
          "name": "",
          "type": "tuple"
        }
      ],
      "stateMutability": "view",
      "type": "function",
      "constant": true
    },
    {
      "inputs": [
        {
          "internalType": "string",
          "name": "_name",
          "type": "string"
        },
        {
          "internalType": "string",
          "name": "_comment",
          "type": "string"
        }
      ],
      "name": "setAdd",
      "outputs": [],
      "stateMutability": "nonpayable",
      "type": "function"
    },
    {
      "inputs": [],
      "name": "getAddressValue",
      "outputs": [
        {
          "internalType": "address",
          "name": "",
          "type": "address"
        }
      ],
      "stateMutability": "view",
      "type": "function",
      "constant": true
    }
  ],
  "bytecode": "0x6080604052600060035534801561001557600080fd5b50336000806101000a81548173ffffffffffffffffffffffffffffffffffffffff021916908373ffffffffffffffffffffffffffffffffffffffff1602179055506120f3806100656000396000f3fe608060405234801561001057600080fd5b50600436106100885760003560e01c8063a87430ba1161005b578063a87430ba14610129578063b2ddb90714610161578063d6a698231461017d578063e2842d791461019957610088565b806328de3c9b1461008d57806359b45882146100bf5780636386c1c7146100dd5780636707dee31461010d575b600080fd5b6100a760048036038101906100a29190611312565b6101b7565b6040516100b693929190611419565b60405180910390f35b6100c7610321565b6040516100d4919061145e565b60405180910390f35b6100f760048036038101906100f291906114a5565b610329565b6040516101049190611696565b60405180910390f35b610127600480360381019061012291906117ed565b6105da565b005b610143600480360381019061013e91906114a5565b6106f8565b60405161015899989796959493929190611892565b60405180910390f35b61017b6004803603810190610176919061192d565b610883565b005b610197600480360381019061019291906119c8565b610abc565b005b6101a1610dfc565b6040516101ae9190611c30565b60405180910390f35b600481815481106101c757600080fd5b90600052602060002090600302016000915090508060000180546101ea90611c81565b80601f016020809104026020016040519081016040528092919081815260200182805461021690611c81565b80156102635780601f1061023857610100808354040283529160200191610263565b820191906000526020600020905b81548152906001019060200180831161024657829003601f168201915b5050505050908060010160009054906101000a900473ffffffffffffffffffffffffffffffffffffffff169080600201805461029e90611c81565b80601f01602080910402602001604051908101604052809291908181526020018280546102ca90611c81565b80156103175780601f106102ec57610100808354040283529160200191610317565b820191906000526020600020905b8154815290600101906020018083116102fa57829003601f168201915b5050505050905083565b600033905090565b6103316111a8565b600073ffffffffffffffffffffffffffffffffffffffff163373ffffffffffffffffffffffffffffffffffffffff1614156103a1576040517f08c379a000000000000000000000000000000000000000000000000000000000815260040161039890611cff565b60405180910390fd5b600160008373ffffffffffffffffffffffffffffffffffffffff1673ffffffffffffffffffffffffffffffffffffffff168152602001908152602001600020604051806101200160405290816000820154815260200160018201805461040690611c81565b80601f016020809104026020016040519081016040528092919081815260200182805461043290611c81565b801561047f5780601f106104545761010080835404028352916020019161047f565b820191906000526020600020905b81548152906001019060200180831161046257829003601f168201915b505050505081526020016002820154815260200160038201548152602001600482015481526020016005820160009054906101000a900460ff1660038111156104cb576104ca611544565b5b60038111156104dd576104dc611544565b5b81526020016005820160019054906101000a900473ffffffffffffffffffffffffffffffffffffffff1673ffffffffffffffffffffffffffffffffffffffff1673ffffffffffffffffffffffffffffffffffffffff1681526020016006820154815260200160078201805461055190611c81565b80601f016020809104026020016040519081016040528092919081815260200182805461057d90611c81565b80156105ca5780601f1061059f576101008083540402835291602001916105ca565b820191906000526020600020905b8154815290600101906020018083116105ad57829003601f168201915b5050505050815250509050919050565b600460405180606001604052808481526020013373ffffffffffffffffffffffffffffffffffffffff1681526020018381525090806001815401808255809150506001900390600052602060002090600302016000909190919091506000820151816000019080519060200190610652929190611225565b5060208201518160010160006101000a81548173ffffffffffffffffffffffffffffffffffffffff021916908373ffffffffffffffffffffffffffffffffffffffff16021790555060408201518160020190805190602001906106b6929190611225565b5050507fbb887e17c228dea23096fbb71831fa2885ab7b1178e3f7bcc55d5319802ccc858233836040516106ec93929190611419565b60405180910390a15050565b600160205280600052604060002060009150905080600001549080600101805461072190611c81565b80601f016020809104026020016040519081016040528092919081815260200182805461074d90611c81565b801561079a5780601f1061076f5761010080835404028352916020019161079a565b820191906000526020600020905b81548152906001019060200180831161077d57829003601f168201915b5050505050908060020154908060030154908060040154908060050160009054906101000a900460ff16908060050160019054906101000a900473ffffffffffffffffffffffffffffffffffffffff169080600601549080600701805461080090611c81565b80601f016020809104026020016040519081016040528092919081815260200182805461082c90611c81565b80156108795780601f1061084e57610100808354040283529160200191610879565b820191906000526020600020905b81548152906001019060200180831161085c57829003601f168201915b5050505050905089565b3373ffffffffffffffffffffffffffffffffffffffff1660008054906101000a900473ffffffffffffffffffffffffffffffffffffffff1673ffffffffffffffffffffffffffffffffffffffff1614610911576040517f08c379a000000000000000000000000000000000000000000000000000000000815260040161090890611d6b565b60405180910390fd5b82600381111561092457610923611544565b5b600160008473ffffffffffffffffffffffffffffffffffffffff1673ffffffffffffffffffffffffffffffffffffffff16815260200190815260200160002060050160006101000a81548160ff0219169083600381111561098857610987611544565b5b021790555042600160008473ffffffffffffffffffffffffffffffffffffffff1673ffffffffffffffffffffffffffffffffffffffff1681526020019081526020016000206006018190555080600160008473ffffffffffffffffffffffffffffffffffffffff1673ffffffffffffffffffffffffffffffffffffffff1681526020019081526020016000206007019080519060200190610a2a929190611225565b508173ffffffffffffffffffffffffffffffffffffffff167fea397c4f2735f95720bbf4d2e061d639bec950d2f3e162d0b19e02a2354c7cca600160008573ffffffffffffffffffffffffffffffffffffffff1673ffffffffffffffffffffffffffffffffffffffff168152602001908152602001600020604051610aaf9190611ff4565b60405180910390a2505050565b3373ffffffffffffffffffffffffffffffffffffffff1660008054906101000a900473ffffffffffffffffffffffffffffffffffffffff1673ffffffffffffffffffffffffffffffffffffffff1614610b4a576040517f08c379a0000000000000000000000000000000000000000000000000000000008152600401610b4190611d6b565b60405180910390fd5b6040518061012001604052806003548152602001888152602001878152602001868152602001858152602001846003811115610b8957610b88611544565b5b6003811115610b9b57610b9a611544565b5b81526020018373ffffffffffffffffffffffffffffffffffffffff16815260200142815260200182815250600160008473ffffffffffffffffffffffffffffffffffffffff1673ffffffffffffffffffffffffffffffffffffffff168152602001908152602001600020600082015181600001556020820151816001019080519060200190610c2b929190611225565b5060408201518160020155606082015181600301556080820151816004015560a08201518160050160006101000a81548160ff02191690836003811115610c7557610c74611544565b5b021790555060c08201518160050160016101000a81548173ffffffffffffffffffffffffffffffffffffffff021916908373ffffffffffffffffffffffffffffffffffffffff16021790555060e08201518160060155610100820151816007019080519060200190610ce8929190611225565b509050508173ffffffffffffffffffffffffffffffffffffffff167fea397c4f2735f95720bbf4d2e061d639bec950d2f3e162d0b19e02a2354c7cca600160008573ffffffffffffffffffffffffffffffffffffffff1673ffffffffffffffffffffffffffffffffffffffff168152602001908152602001600020604051610d709190611ff4565b60405180910390a26002829080600181540180825580915050600190039060005260206000200160009091909190916101000a81548173ffffffffffffffffffffffffffffffffffffffff021916908373ffffffffffffffffffffffffffffffffffffffff16021790555060036000815480929190610dee90612045565b919050555050505050505050565b60603373ffffffffffffffffffffffffffffffffffffffff1660008054906101000a900473ffffffffffffffffffffffffffffffffffffffff1673ffffffffffffffffffffffffffffffffffffffff1614610e8c576040517f08c379a0000000000000000000000000000000000000000000000000000000008152600401610e8390611d6b565b60405180910390fd5b600060035467ffffffffffffffff811115610eaa57610ea96116c2565b5b604051908082528060200260200182016040528015610ee357816020015b610ed06111a8565b815260200190600190039081610ec85790505b50905060005b6003548110156111a057600060028281548110610f0957610f0861208e565b5b9060005260206000200160009054906101000a900473ffffffffffffffffffffffffffffffffffffffff1690506000600160008373ffffffffffffffffffffffffffffffffffffffff1673ffffffffffffffffffffffffffffffffffffffff1681526020019081526020016000209050806040518061012001604052908160008201548152602001600182018054610fa090611c81565b80601f0160208091040260200160405190810160405280929190818152602001828054610fcc90611c81565b80156110195780601f10610fee57610100808354040283529160200191611019565b820191906000526020600020905b815481529060010190602001808311610ffc57829003601f168201915b505050505081526020016002820154815260200160038201548152602001600482015481526020016005820160009054906101000a900460ff16600381111561106557611064611544565b5b600381111561107757611076611544565b5b81526020016005820160019054906101000a900473ffffffffffffffffffffffffffffffffffffffff1673ffffffffffffffffffffffffffffffffffffffff1673ffffffffffffffffffffffffffffffffffffffff168152602001600682015481526020016007820180546110eb90611c81565b80601f016020809104026020016040519081016040528092919081815260200182805461111790611c81565b80156111645780601f1061113957610100808354040283529160200191611164565b820191906000526020600020905b81548152906001019060200180831161114757829003601f168201915b5050505050815250508484815181106111805761117f61208e565b5b60200260200101819052505050808061119890612045565b915050610ee9565b508091505090565b6040518061012001604052806000815260200160608152602001600080191681526020016000801916815260200160008019168152602001600060038111156111f4576111f3611544565b5b8152602001600073ffffffffffffffffffffffffffffffffffffffff16815260200160008152602001606081525090565b82805461123190611c81565b90600052602060002090601f016020900481019282611253576000855561129a565b82601f1061126c57805160ff191683800117855561129a565b8280016001018555821561129a579182015b8281111561129957825182559160200191906001019061127e565b5b5090506112a791906112ab565b5090565b5b808211156112c45760008160009055506001016112ac565b5090565b6000604051905090565b600080fd5b600080fd5b6000819050919050565b6112ef816112dc565b81146112fa57600080fd5b50565b60008135905061130c816112e6565b92915050565b600060208284031215611328576113276112d2565b5b6000611336848285016112fd565b91505092915050565b600081519050919050565b600082825260208201905092915050565b60005b8381101561137957808201518184015260208101905061135e565b83811115611388576000848401525b50505050565b6000601f19601f8301169050919050565b60006113aa8261133f565b6113b4818561134a565b93506113c481856020860161135b565b6113cd8161138e565b840191505092915050565b600073ffffffffffffffffffffffffffffffffffffffff82169050919050565b6000611403826113d8565b9050919050565b611413816113f8565b82525050565b60006060820190508181036000830152611433818661139f565b9050611442602083018561140a565b8181036040830152611454818461139f565b9050949350505050565b6000602082019050611473600083018461140a565b92915050565b611482816113f8565b811461148d57600080fd5b50565b60008135905061149f81611479565b92915050565b6000602082840312156114bb576114ba6112d2565b5b60006114c984828501611490565b91505092915050565b6114db816112dc565b82525050565b600082825260208201905092915050565b60006114fd8261133f565b61150781856114e1565b935061151781856020860161135b565b6115208161138e565b840191505092915050565b6000819050919050565b61153e8161152b565b82525050565b7f4e487b7100000000000000000000000000000000000000000000000000000000600052602160045260246000fd5b6004811061158457611583611544565b5b50565b600081905061159582611573565b919050565b60006115a582611587565b9050919050565b6115b58161159a565b82525050565b6115c4816113f8565b82525050565b6000610120830160008301516115e360008601826114d2565b50602083015184820360208601526115fb82826114f2565b91505060408301516116106040860182611535565b5060608301516116236060860182611535565b5060808301516116366080860182611535565b5060a083015161164960a08601826115ac565b5060c083015161165c60c08601826115bb565b5060e083015161166f60e08601826114d2565b5061010083015184820361010086015261168982826114f2565b9150508091505092915050565b600060208201905081810360008301526116b081846115ca565b905092915050565b600080fd5b600080fd5b7f4e487b7100000000000000000000000000000000000000000000000000000000600052604160045260246000fd5b6116fa8261138e565b810181811067ffffffffffffffff82111715611719576117186116c2565b5b80604052505050565b600061172c6112c8565b905061173882826116f1565b919050565b600067ffffffffffffffff821115611758576117576116c2565b5b6117618261138e565b9050602081019050919050565b82818337600083830152505050565b600061179061178b8461173d565b611722565b9050828152602081018484840111156117ac576117ab6116bd565b5b6117b784828561176e565b509392505050565b600082601f8301126117d4576117d36116b8565b5b81356117e484826020860161177d565b91505092915050565b60008060408385031215611804576118036112d2565b5b600083013567ffffffffffffffff811115611822576118216112d7565b5b61182e858286016117bf565b925050602083013567ffffffffffffffff81111561184f5761184e6112d7565b5b61185b858286016117bf565b9150509250929050565b61186e816112dc565b82525050565b61187d8161152b565b82525050565b61188c8161159a565b82525050565b6000610120820190506118a8600083018c611865565b81810360208301526118ba818b61139f565b90506118c9604083018a611874565b6118d66060830189611874565b6118e36080830188611874565b6118f060a0830187611883565b6118fd60c083018661140a565b61190a60e0830185611865565b81810361010083015261191d818461139f565b90509a9950505050505050505050565b600080600060608486031215611946576119456112d2565b5b6000611954868287016112fd565b935050602061196586828701611490565b925050604084013567ffffffffffffffff811115611986576119856112d7565b5b611992868287016117bf565b9150509250925092565b6119a58161152b565b81146119b057600080fd5b50565b6000813590506119c28161199c565b92915050565b600080600080600080600060e0888a0312156119e7576119e66112d2565b5b600088013567ffffffffffffffff811115611a0557611a046112d7565b5b611a118a828b016117bf565b9750506020611a228a828b016119b3565b9650506040611a338a828b016119b3565b9550506060611a448a828b016119b3565b9450506080611a558a828b016112fd565b93505060a0611a668a828b01611490565b92505060c088013567ffffffffffffffff811115611a8757611a866112d7565b5b611a938a828b016117bf565b91505092959891949750929550565b600081519050919050565b600082825260208201905092915050565b6000819050602082019050919050565b600061012083016000830151611ae760008601826114d2565b5060208301518482036020860152611aff82826114f2565b9150506040830151611b146040860182611535565b506060830151611b276060860182611535565b506080830151611b3a6080860182611535565b5060a0830151611b4d60a08601826115ac565b5060c0830151611b6060c08601826115bb565b5060e0830151611b7360e08601826114d2565b50610100830151848203610100860152611b8d82826114f2565b9150508091505092915050565b6000611ba68383611ace565b905092915050565b6000602082019050919050565b6000611bc682611aa2565b611bd08185611aad565b935083602082028501611be285611abe565b8060005b85811015611c1e5784840389528151611bff8582611b9a565b9450611c0a83611bae565b925060208a01995050600181019050611be6565b50829750879550505050505092915050565b60006020820190508181036000830152611c4a8184611bbb565b905092915050565b7f4e487b7100000000000000000000000000000000000000000000000000000000600052602260045260246000fd5b60006002820490506001821680611c9957607f821691505b60208210811415611cad57611cac611c52565b5b50919050565b7f41646472657373206973206e6f742076616c69642e0000000000000000000000600082015250565b6000611ce960158361134a565b9150611cf482611cb3565b602082019050919050565b60006020820190508181036000830152611d1881611cdc565b9050919050565b7f596f7520617265206e6f7420616e206f776e65722e0000000000000000000000600082015250565b6000611d5560158361134a565b9150611d6082611d1f565b602082019050919050565b60006020820190508181036000830152611d8481611d48565b9050919050565b60008160001c9050919050565b6000819050919050565b6000611db5611db083611d8b565b611d98565b9050919050565b60008190508160005260206000209050919050565b60008154611dde81611c81565b611de881866114e1565b94506001821660008114611e035760018114611e1557611e48565b60ff1983168652602086019350611e48565b611e1e85611dbc565b60005b83811015611e4057815481890152600182019150602081019050611e21565b808801955050505b50505092915050565b6000819050919050565b6000611e6e611e6983611d8b565b611e51565b9050919050565b600060ff82169050919050565b6000611e95611e9083611d8b565b611e75565b9050919050565b60008160081c9050919050565b600073ffffffffffffffffffffffffffffffffffffffff82169050919050565b6000611edc611ed783611e9c565b611ea9565b9050919050565b600061012083016000808401549050611efb81611da2565b611f0860008701826114d2565b50600184018583036020870152611f1f8382611dd1565b92505060028401549050611f3281611e5b565b611f3f6040870182611535565b5060038401549050611f5081611e5b565b611f5d6060870182611535565b5060048401549050611f6e81611e5b565b611f7b6080870182611535565b5060058401549050611f8c81611e82565b611f9960a08701826115ac565b50611fa381611ec9565b611fb060c08701826115bb565b5060068401549050611fc181611da2565b611fce60e08701826114d2565b5060078401858303610100870152611fe68382611dd1565b925050819250505092915050565b6000602082019050818103600083015261200e8184611ee3565b905092915050565b7f4e487b7100000000000000000000000000000000000000000000000000000000600052601160045260246000fd5b6000612050826112dc565b91507fffffffffffffffffffffffffffffffffffffffffffffffffffffffffffffffff82141561208357612082612016565b5b600182019050919050565b7f4e487b7100000000000000000000000000000000000000000000000000000000600052603260045260246000fdfea26469706673582212204a86e4cc7b99bada1ecf850de782cba152158c5acafa3a567e8d456a337cb45264736f6c634300080a0033",
  "immutableReferences": {},
  "source": "// SPDX-License-Identifier: MIT\r\npragma solidity >=0.8.0 <0.9.0;\r\n\r\nimport './SharedChain.sol';\r\n\r\ncontract UserChain is SharedChain {\r\n    address owner;\r\n\r\n    mapping(address => User) public users;\r\n    address[] usersAddress;\r\n    uint256 usersCounter = 0;\r\n\r\n    constructor() {\r\n        owner = msg.sender;\r\n    }\r\n\r\n    modifier onlyOwner() {\r\n        require(owner == msg.sender, \"You are not an owner.\");\r\n        _;\r\n    }\r\n\r\n    modifier checkUser(address _address) {\r\n        require(_address == owner, \"You are not an owner.\");\r\n        _;\r\n    }\r\n\r\n    function registerUser(\r\n        string memory _username,\r\n        bytes32 _email,\r\n        bytes32 _firstname,\r\n        bytes32 _lastname,\r\n        uint256 _role,\r\n        address _walletAddress,\r\n        string memory _signature\r\n    ) public onlyOwner {\r\n        users[_walletAddress] = User(\r\n            usersCounter, _username, _email, _firstname, _lastname,\r\n            Roles(_role), _walletAddress, block.timestamp, _signature\r\n        );\r\n\r\n        emit UserEvent(users[_walletAddress], _walletAddress);\r\n        usersAddress.push(_walletAddress);\r\n        usersCounter++;\r\n    }\r\n\r\n    function changeUserRole(uint _role, address _walletAddress, string memory _signature) public onlyOwner {\r\n        users[_walletAddress]._role = Roles(_role);\r\n\r\n        users[_walletAddress]._timestamp = block.timestamp;\r\n        users[_walletAddress]._signature = _signature;\r\n        emit UserEvent(users[_walletAddress], _walletAddress);\r\n    }\r\n\r\n    function getAllUsers() public view onlyOwner returns(User[] memory) {\r\n        User[] memory allUsers = new User[](usersCounter);\r\n        for (uint index = 0; index < usersCounter; index++) {\r\n            address _walletAddress = usersAddress[index];\r\n            User storage user = users[_walletAddress];\r\n            allUsers[index] = user;\r\n        }\r\n        return allUsers;\r\n    }\r\n\r\n    function getUserInfo(address _walletAddress) public view returns (User memory) {\r\n        require(msg.sender != address(0x0), \"Address is not valid.\");\r\n        return users[_walletAddress];\r\n    }\r\n\r\n\r\n\r\n\r\n    event InformationEvent (string _name, address _uAddress, string _comment);\r\n    struct Information {\r\n        string _name; address _uAddress; string _comment;\r\n    }\r\n    Information[] public infos;\r\n\r\n    function setAdd(string memory _name, string memory _comment) public {\r\n        infos.push(Information(_name, msg.sender, _comment));\r\n        emit InformationEvent(_name, msg.sender, _comment);\r\n    }\r\n\r\n\r\n    function getAddressValue() public view returns (address) {\r\n        return msg.sender;\r\n    }\r\n\r\n\r\n\r\n}\r\n\r\n",
  "sourcePath": "/mnt/c/Users/Beniamin/source/repos/DissertationProject/contracts/UserChain.sol",
  "compiler": {
    "name": "solc",
    "version": "0.8.10+commit.fc410830.Emscripten.clang"
  },
  "schemaVersion": "3.4.3",
  "updatedAt": "2021-12-10T20:10:25.257Z",
  "networkType": "ethereum",
  "devdoc": {
    "kind": "dev",
    "methods": {},
    "version": 1
  },
  "userdoc": {
    "kind": "user",
    "methods": {},
    "version": 1
  }
}