{
  "contractName": "UserChain",
  "abi": [
    {
      "inputs": [],
      "stateMutability": "nonpayable",
      "type": "constructor"
    },
    {
      "anonymous": false,
      "inputs": [
        {
          "components": [
            {
              "internalType": "uint256",
              "name": "_index",
              "type": "uint256"
            },
            {
              "internalType": "string",
              "name": "_name",
              "type": "string"
            },
            {
              "internalType": "enum SharedChain.ProjectStatus",
              "name": "_status",
              "type": "uint8"
            },
            {
              "internalType": "string",
              "name": "_ipfsFileCID",
              "type": "string"
            },
            {
              "internalType": "address",
              "name": "_projectAddress",
              "type": "address"
            },
            {
              "internalType": "address",
              "name": "_signerAddress",
              "type": "address"
            },
            {
              "internalType": "uint256",
              "name": "_timestamp",
              "type": "uint256"
            },
            {
              "internalType": "string",
              "name": "_signature",
              "type": "string"
            }
          ],
          "indexed": false,
          "internalType": "struct SharedChain.Project",
          "name": "_project",
          "type": "tuple"
        },
        {
          "indexed": true,
          "internalType": "address",
          "name": "_projectAddress",
          "type": "address"
        }
      ],
      "name": "ProjectEvent",
      "type": "event"
    },
    {
      "anonymous": false,
      "inputs": [
        {
          "components": [
            {
              "internalType": "uint256",
              "name": "_index",
              "type": "uint256"
            },
            {
              "internalType": "string",
              "name": "_title",
              "type": "string"
            },
            {
              "internalType": "string",
              "name": "_comments",
              "type": "string"
            },
            {
              "internalType": "enum SharedChain.ProjectStatus",
              "name": "_status",
              "type": "uint8"
            },
            {
              "internalType": "enum SharedChain.RequestStatus",
              "name": "_requestStatus",
              "type": "uint8"
            },
            {
              "internalType": "address",
              "name": "_projectAddress",
              "type": "address"
            },
            {
              "internalType": "address",
              "name": "_signerAddress",
              "type": "address"
            },
            {
              "internalType": "address",
              "name": "_requestAddress",
              "type": "address"
            },
            {
              "internalType": "uint256",
              "name": "_timestamp",
              "type": "uint256"
            },
            {
              "internalType": "string",
              "name": "_signature",
              "type": "string"
            }
          ],
          "indexed": false,
          "internalType": "struct SharedChain.ProjectRequest",
          "name": "_projectRequest",
          "type": "tuple"
        },
        {
          "indexed": true,
          "internalType": "address",
          "name": "_projectAddress",
          "type": "address"
        }
      ],
      "name": "ProjectRequestEvent",
      "type": "event"
    },
    {
      "anonymous": false,
      "inputs": [
        {
          "components": [
            {
              "internalType": "uint256",
              "name": "_index",
              "type": "uint256"
            },
            {
              "internalType": "uint256",
              "name": "_indexProjectRequest",
              "type": "uint256"
            },
            {
              "internalType": "string",
              "name": "_title",
              "type": "string"
            },
            {
              "internalType": "enum SharedChain.RequestStatus",
              "name": "_requestStatus",
              "type": "uint8"
            },
            {
              "internalType": "enum SharedChain.ProjectStatus",
              "name": "_projectStatus",
              "type": "uint8"
            },
            {
              "internalType": "enum SharedChain.RequestType",
              "name": "_requestType",
              "type": "uint8"
            },
            {
              "internalType": "address",
              "name": "_projectAddress",
              "type": "address"
            },
            {
              "internalType": "address",
              "name": "_signerAddress",
              "type": "address"
            },
            {
              "internalType": "address",
              "name": "_requestAddress",
              "type": "address"
            },
            {
              "internalType": "uint256",
              "name": "_timestamp",
              "type": "uint256"
            },
            {
              "internalType": "string",
              "name": "_signature",
              "type": "string"
            }
          ],
          "indexed": false,
          "internalType": "struct SharedChain.Request",
          "name": "_request",
          "type": "tuple"
        },
        {
          "indexed": true,
          "internalType": "address",
          "name": "_requestAddress",
          "type": "address"
        }
      ],
      "name": "RequestEvent",
      "type": "event"
    },
    {
      "anonymous": false,
      "inputs": [
        {
          "components": [
            {
              "internalType": "uint256",
              "name": "_index",
              "type": "uint256"
            },
            {
              "internalType": "string",
              "name": "_username",
              "type": "string"
            },
            {
              "internalType": "bytes32",
              "name": "_email",
              "type": "bytes32"
            },
            {
              "internalType": "bytes32",
              "name": "_firstname",
              "type": "bytes32"
            },
            {
              "internalType": "bytes32",
              "name": "_lastname",
              "type": "bytes32"
            },
            {
              "internalType": "enum SharedChain.Roles",
              "name": "_role",
              "type": "uint8"
            },
            {
              "internalType": "address",
              "name": "_walletAddress",
              "type": "address"
            },
            {
              "internalType": "uint256",
              "name": "_timestamp",
              "type": "uint256"
            },
            {
              "internalType": "string",
              "name": "_signature",
              "type": "string"
            }
          ],
          "indexed": false,
          "internalType": "struct SharedChain.User",
          "name": "_user",
          "type": "tuple"
        },
        {
          "indexed": true,
          "internalType": "address",
          "name": "_walletAddress",
          "type": "address"
        }
      ],
      "name": "UserEvent",
      "type": "event"
    },
    {
      "inputs": [],
      "name": "valueTrend",
      "outputs": [
        {
          "internalType": "uint256",
          "name": "",
          "type": "uint256"
        }
      ],
      "stateMutability": "view",
      "type": "function",
      "constant": true
    },
    {
      "inputs": [
        {
          "internalType": "string",
          "name": "_username",
          "type": "string"
        },
        {
          "internalType": "bytes32",
          "name": "_email",
          "type": "bytes32"
        },
        {
          "internalType": "bytes32",
          "name": "_firstname",
          "type": "bytes32"
        },
        {
          "internalType": "bytes32",
          "name": "_lastname",
          "type": "bytes32"
        },
        {
          "internalType": "uint256",
          "name": "_role",
          "type": "uint256"
        },
        {
          "internalType": "address",
          "name": "_walletAddress",
          "type": "address"
        },
        {
          "internalType": "string",
          "name": "_signature",
          "type": "string"
        }
      ],
      "name": "registerUser",
      "outputs": [],
      "stateMutability": "nonpayable",
      "type": "function"
    },
    {
      "inputs": [
        {
          "internalType": "uint256",
          "name": "_role",
          "type": "uint256"
        },
        {
          "internalType": "address",
          "name": "_walletAddress",
          "type": "address"
        },
        {
          "internalType": "string",
          "name": "_signature",
          "type": "string"
        }
      ],
      "name": "changeUserRole",
      "outputs": [],
      "stateMutability": "nonpayable",
      "type": "function"
    },
    {
      "inputs": [],
      "name": "getAllUsers",
      "outputs": [
        {
          "components": [
            {
              "internalType": "uint256",
              "name": "_index",
              "type": "uint256"
            },
            {
              "internalType": "string",
              "name": "_username",
              "type": "string"
            },
            {
              "internalType": "bytes32",
              "name": "_email",
              "type": "bytes32"
            },
            {
              "internalType": "bytes32",
              "name": "_firstname",
              "type": "bytes32"
            },
            {
              "internalType": "bytes32",
              "name": "_lastname",
              "type": "bytes32"
            },
            {
              "internalType": "enum SharedChain.Roles",
              "name": "_role",
              "type": "uint8"
            },
            {
              "internalType": "address",
              "name": "_walletAddress",
              "type": "address"
            },
            {
              "internalType": "uint256",
              "name": "_timestamp",
              "type": "uint256"
            },
            {
              "internalType": "string",
              "name": "_signature",
              "type": "string"
            }
          ],
          "internalType": "struct SharedChain.User[]",
          "name": "",
          "type": "tuple[]"
        }
      ],
      "stateMutability": "view",
      "type": "function",
      "constant": true
    },
    {
      "inputs": [
        {
          "internalType": "address",
          "name": "_walletAddress",
          "type": "address"
        }
      ],
      "name": "getUserInfo",
      "outputs": [
        {
          "components": [
            {
              "internalType": "uint256",
              "name": "_index",
              "type": "uint256"
            },
            {
              "internalType": "string",
              "name": "_username",
              "type": "string"
            },
            {
              "internalType": "bytes32",
              "name": "_email",
              "type": "bytes32"
            },
            {
              "internalType": "bytes32",
              "name": "_firstname",
              "type": "bytes32"
            },
            {
              "internalType": "bytes32",
              "name": "_lastname",
              "type": "bytes32"
            },
            {
              "internalType": "enum SharedChain.Roles",
              "name": "_role",
              "type": "uint8"
            },
            {
              "internalType": "address",
              "name": "_walletAddress",
              "type": "address"
            },
            {
              "internalType": "uint256",
              "name": "_timestamp",
              "type": "uint256"
            },
            {
              "internalType": "string",
              "name": "_signature",
              "type": "string"
            }
          ],
          "internalType": "struct SharedChain.User",
          "name": "",
          "type": "tuple"
        }
      ],
      "stateMutability": "view",
      "type": "function",
      "constant": true
    },
    {
      "inputs": [],
      "name": "getA",
      "outputs": [
        {
          "internalType": "uint256",
          "name": "",
          "type": "uint256"
        }
      ],
      "stateMutability": "view",
      "type": "function",
      "constant": true
    }
  ],
  "bytecode": "0x60806040526000600355607d60045534801561001a57600080fd5b50336000806101000a81548173ffffffffffffffffffffffffffffffffffffffff021916908373ffffffffffffffffffffffffffffffffffffffff1602179055506118778061006a6000396000f3fe608060405234801561001057600080fd5b50600436106100625760003560e01c80636386c1c714610067578063b2ddb90714610097578063d46300fd146100b3578063d699bc8c146100d1578063d6a69823146100ef578063e2842d791461010b575b600080fd5b610081600480360381019061007c9190610d15565b610129565b60405161008e9190610f5f565b60405180910390f35b6100b160048036038101906100ac91906110e2565b61036a565b005b6100bb610515565b6040516100c89190611160565b60405180910390f35b6100d961051f565b6040516100e69190611160565b60405180910390f35b610109600480360381019061010491906111a7565b610525565b005b610113610865565b604051610120919061140f565b60405180910390f35b610131610b83565b600160008373ffffffffffffffffffffffffffffffffffffffff1673ffffffffffffffffffffffffffffffffffffffff168152602001908152602001600020604051806101200160405290816000820154815260200160018201805461019690611460565b80601f01602080910402602001604051908101604052809291908181526020018280546101c290611460565b801561020f5780601f106101e45761010080835404028352916020019161020f565b820191906000526020600020905b8154815290600101906020018083116101f257829003601f168201915b505050505081526020016002820154815260200160038201548152602001600482015481526020016005820160009054906101000a900460ff16600381111561025b5761025a610e0d565b5b600381111561026d5761026c610e0d565b5b81526020016005820160019054906101000a900473ffffffffffffffffffffffffffffffffffffffff1673ffffffffffffffffffffffffffffffffffffffff1673ffffffffffffffffffffffffffffffffffffffff168152602001600682015481526020016007820180546102e190611460565b80601f016020809104026020016040519081016040528092919081815260200182805461030d90611460565b801561035a5780601f1061032f5761010080835404028352916020019161035a565b820191906000526020600020905b81548152906001019060200180831161033d57829003601f168201915b5050505050815250509050919050565b82600381111561037d5761037c610e0d565b5b600160008473ffffffffffffffffffffffffffffffffffffffff1673ffffffffffffffffffffffffffffffffffffffff16815260200190815260200160002060050160006101000a81548160ff021916908360038111156103e1576103e0610e0d565b5b021790555042600160008473ffffffffffffffffffffffffffffffffffffffff1673ffffffffffffffffffffffffffffffffffffffff1681526020019081526020016000206006018190555080600160008473ffffffffffffffffffffffffffffffffffffffff1673ffffffffffffffffffffffffffffffffffffffff1681526020019081526020016000206007019080519060200190610483929190610c00565b508173ffffffffffffffffffffffffffffffffffffffff167fea397c4f2735f95720bbf4d2e061d639bec950d2f3e162d0b19e02a2354c7cca600160008573ffffffffffffffffffffffffffffffffffffffff1673ffffffffffffffffffffffffffffffffffffffff16815260200190815260200160002060405161050891906116fb565b60405180910390a2505050565b6000600354905090565b60045481565b3373ffffffffffffffffffffffffffffffffffffffff1660008054906101000a900473ffffffffffffffffffffffffffffffffffffffff1673ffffffffffffffffffffffffffffffffffffffff16146105b3576040517f08c379a00000000000000000000000000000000000000000000000000000000081526004016105aa9061177a565b60405180910390fd5b60405180610120016040528060035481526020018881526020018781526020018681526020018581526020018460038111156105f2576105f1610e0d565b5b600381111561060457610603610e0d565b5b81526020018373ffffffffffffffffffffffffffffffffffffffff16815260200142815260200182815250600160008473ffffffffffffffffffffffffffffffffffffffff1673ffffffffffffffffffffffffffffffffffffffff168152602001908152602001600020600082015181600001556020820151816001019080519060200190610694929190610c00565b5060408201518160020155606082015181600301556080820151816004015560a08201518160050160006101000a81548160ff021916908360038111156106de576106dd610e0d565b5b021790555060c08201518160050160016101000a81548173ffffffffffffffffffffffffffffffffffffffff021916908373ffffffffffffffffffffffffffffffffffffffff16021790555060e08201518160060155610100820151816007019080519060200190610751929190610c00565b509050508173ffffffffffffffffffffffffffffffffffffffff167fea397c4f2735f95720bbf4d2e061d639bec950d2f3e162d0b19e02a2354c7cca600160008573ffffffffffffffffffffffffffffffffffffffff1673ffffffffffffffffffffffffffffffffffffffff1681526020019081526020016000206040516107d991906116fb565b60405180910390a26002829080600181540180825580915050600190039060005260206000200160009091909190916101000a81548173ffffffffffffffffffffffffffffffffffffffff021916908373ffffffffffffffffffffffffffffffffffffffff16021790555060036000815480929190610857906117c9565b919050555050505050505050565b6060600060035467ffffffffffffffff81111561088557610884610fb7565b5b6040519080825280602002602001820160405280156108be57816020015b6108ab610b83565b8152602001906001900390816108a35790505b50905060005b600354811015610b7b576000600282815481106108e4576108e3611812565b5b9060005260206000200160009054906101000a900473ffffffffffffffffffffffffffffffffffffffff1690506000600160008373ffffffffffffffffffffffffffffffffffffffff1673ffffffffffffffffffffffffffffffffffffffff168152602001908152602001600020905080604051806101200160405290816000820154815260200160018201805461097b90611460565b80601f01602080910402602001604051908101604052809291908181526020018280546109a790611460565b80156109f45780601f106109c9576101008083540402835291602001916109f4565b820191906000526020600020905b8154815290600101906020018083116109d757829003601f168201915b505050505081526020016002820154815260200160038201548152602001600482015481526020016005820160009054906101000a900460ff166003811115610a4057610a3f610e0d565b5b6003811115610a5257610a51610e0d565b5b81526020016005820160019054906101000a900473ffffffffffffffffffffffffffffffffffffffff1673ffffffffffffffffffffffffffffffffffffffff1673ffffffffffffffffffffffffffffffffffffffff16815260200160068201548152602001600782018054610ac690611460565b80601f0160208091040260200160405190810160405280929190818152602001828054610af290611460565b8015610b3f5780601f10610b1457610100808354040283529160200191610b3f565b820191906000526020600020905b815481529060010190602001808311610b2257829003601f168201915b505050505081525050848481518110610b5b57610b5a611812565b5b602002602001018190525050508080610b73906117c9565b9150506108c4565b508091505090565b604051806101200160405280600081526020016060815260200160008019168152602001600080191681526020016000801916815260200160006003811115610bcf57610bce610e0d565b5b8152602001600073ffffffffffffffffffffffffffffffffffffffff16815260200160008152602001606081525090565b828054610c0c90611460565b90600052602060002090601f016020900481019282610c2e5760008555610c75565b82601f10610c4757805160ff1916838001178555610c75565b82800160010185558215610c75579182015b82811115610c74578251825591602001919060010190610c59565b5b509050610c829190610c86565b5090565b5b80821115610c9f576000816000905550600101610c87565b5090565b6000604051905090565b600080fd5b600080fd5b600073ffffffffffffffffffffffffffffffffffffffff82169050919050565b6000610ce282610cb7565b9050919050565b610cf281610cd7565b8114610cfd57600080fd5b50565b600081359050610d0f81610ce9565b92915050565b600060208284031215610d2b57610d2a610cad565b5b6000610d3984828501610d00565b91505092915050565b6000819050919050565b610d5581610d42565b82525050565b600081519050919050565b600082825260208201905092915050565b60005b83811015610d95578082015181840152602081019050610d7a565b83811115610da4576000848401525b50505050565b6000601f19601f8301169050919050565b6000610dc682610d5b565b610dd08185610d66565b9350610de0818560208601610d77565b610de981610daa565b840191505092915050565b6000819050919050565b610e0781610df4565b82525050565b7f4e487b7100000000000000000000000000000000000000000000000000000000600052602160045260246000fd5b60048110610e4d57610e4c610e0d565b5b50565b6000819050610e5e82610e3c565b919050565b6000610e6e82610e50565b9050919050565b610e7e81610e63565b82525050565b610e8d81610cd7565b82525050565b600061012083016000830151610eac6000860182610d4c565b5060208301518482036020860152610ec48282610dbb565b9150506040830151610ed96040860182610dfe565b506060830151610eec6060860182610dfe565b506080830151610eff6080860182610dfe565b5060a0830151610f1260a0860182610e75565b5060c0830151610f2560c0860182610e84565b5060e0830151610f3860e0860182610d4c565b50610100830151848203610100860152610f528282610dbb565b9150508091505092915050565b60006020820190508181036000830152610f798184610e93565b905092915050565b610f8a81610d42565b8114610f9557600080fd5b50565b600081359050610fa781610f81565b92915050565b600080fd5b600080fd5b7f4e487b7100000000000000000000000000000000000000000000000000000000600052604160045260246000fd5b610fef82610daa565b810181811067ffffffffffffffff8211171561100e5761100d610fb7565b5b80604052505050565b6000611021610ca3565b905061102d8282610fe6565b919050565b600067ffffffffffffffff82111561104d5761104c610fb7565b5b61105682610daa565b9050602081019050919050565b82818337600083830152505050565b600061108561108084611032565b611017565b9050828152602081018484840111156110a1576110a0610fb2565b5b6110ac848285611063565b509392505050565b600082601f8301126110c9576110c8610fad565b5b81356110d9848260208601611072565b91505092915050565b6000806000606084860312156110fb576110fa610cad565b5b600061110986828701610f98565b935050602061111a86828701610d00565b925050604084013567ffffffffffffffff81111561113b5761113a610cb2565b5b611147868287016110b4565b9150509250925092565b61115a81610d42565b82525050565b60006020820190506111756000830184611151565b92915050565b61118481610df4565b811461118f57600080fd5b50565b6000813590506111a18161117b565b92915050565b600080600080600080600060e0888a0312156111c6576111c5610cad565b5b600088013567ffffffffffffffff8111156111e4576111e3610cb2565b5b6111f08a828b016110b4565b97505060206112018a828b01611192565b96505060406112128a828b01611192565b95505060606112238a828b01611192565b94505060806112348a828b01610f98565b93505060a06112458a828b01610d00565b92505060c088013567ffffffffffffffff81111561126657611265610cb2565b5b6112728a828b016110b4565b91505092959891949750929550565b600081519050919050565b600082825260208201905092915050565b6000819050602082019050919050565b6000610120830160008301516112c66000860182610d4c565b50602083015184820360208601526112de8282610dbb565b91505060408301516112f36040860182610dfe565b5060608301516113066060860182610dfe565b5060808301516113196080860182610dfe565b5060a083015161132c60a0860182610e75565b5060c083015161133f60c0860182610e84565b5060e083015161135260e0860182610d4c565b5061010083015184820361010086015261136c8282610dbb565b9150508091505092915050565b600061138583836112ad565b905092915050565b6000602082019050919050565b60006113a582611281565b6113af818561128c565b9350836020820285016113c18561129d565b8060005b858110156113fd57848403895281516113de8582611379565b94506113e98361138d565b925060208a019950506001810190506113c5565b50829750879550505050505092915050565b60006020820190508181036000830152611429818461139a565b905092915050565b7f4e487b7100000000000000000000000000000000000000000000000000000000600052602260045260246000fd5b6000600282049050600182168061147857607f821691505b6020821081141561148c5761148b611431565b5b50919050565b60008160001c9050919050565b6000819050919050565b60006114bc6114b783611492565b61149f565b9050919050565b60008190508160005260206000209050919050565b600081546114e581611460565b6114ef8186610d66565b9450600182166000811461150a576001811461151c5761154f565b60ff198316865260208601935061154f565b611525856114c3565b60005b8381101561154757815481890152600182019150602081019050611528565b808801955050505b50505092915050565b6000819050919050565b600061157561157083611492565b611558565b9050919050565b600060ff82169050919050565b600061159c61159783611492565b61157c565b9050919050565b60008160081c9050919050565b600073ffffffffffffffffffffffffffffffffffffffff82169050919050565b60006115e36115de836115a3565b6115b0565b9050919050565b600061012083016000808401549050611602816114a9565b61160f6000870182610d4c565b5060018401858303602087015261162683826114d8565b9250506002840154905061163981611562565b6116466040870182610dfe565b506003840154905061165781611562565b6116646060870182610dfe565b506004840154905061167581611562565b6116826080870182610dfe565b506005840154905061169381611589565b6116a060a0870182610e75565b506116aa816115d0565b6116b760c0870182610e84565b50600684015490506116c8816114a9565b6116d560e0870182610d4c565b50600784018583036101008701526116ed83826114d8565b925050819250505092915050565b6000602082019050818103600083015261171581846115ea565b905092915050565b600082825260208201905092915050565b7f596f7520617265206e6f7420616e206f776e6572000000000000000000000000600082015250565b600061176460148361171d565b915061176f8261172e565b602082019050919050565b6000602082019050818103600083015261179381611757565b9050919050565b7f4e487b7100000000000000000000000000000000000000000000000000000000600052601160045260246000fd5b60006117d482610d42565b91507fffffffffffffffffffffffffffffffffffffffffffffffffffffffffffffffff8214156118075761180661179a565b5b600182019050919050565b7f4e487b7100000000000000000000000000000000000000000000000000000000600052603260045260246000fdfea2646970667358221220661c44d9b64eec279d2951602c40fb9bcc0cbcaa3686e5896c1f99ae7d75fa5464736f6c634300080a0033",
  "immutableReferences": {},
  "source": "// SPDX-License-Identifier: MIT\r\npragma solidity >=0.8.0 <0.9.0;\r\n\r\nimport './SharedChain.sol';\r\n\r\ncontract UserChain is SharedChain {\r\n    address owner;\r\n\r\n    mapping(address => User) users;\r\n    address[] usersAddress;\r\n    uint256 usersCounter = 0;\r\n\r\n    uint public valueTrend = 125;\r\n\r\n\r\n    constructor() {\r\n        owner = msg.sender;\r\n    }\r\n\r\n    modifier onlyOwner() {\r\n        require(owner == msg.sender, \"You are not an owner\");\r\n        _;\r\n    }\r\n\r\n    modifier checkUser(address _address) {\r\n        require(_address == msg.sender, \"Address\");\r\n        _;\r\n    }\r\n\r\n    function registerUser(\r\n        string memory _username,\r\n        bytes32 _email,\r\n        bytes32 _firstname,\r\n        bytes32 _lastname,\r\n        uint256 _role,\r\n        address _walletAddress,\r\n        string memory _signature\r\n    ) public onlyOwner {\r\n        users[_walletAddress] = User(\r\n            usersCounter, _username, _email, _firstname, _lastname,\r\n            Roles(_role), _walletAddress, block.timestamp, _signature\r\n        );\r\n\r\n        emit UserEvent(users[_walletAddress], _walletAddress);\r\n        usersAddress.push(_walletAddress);\r\n        usersCounter++;\r\n    }\r\n\r\n    function changeUserRole(uint _role, address _walletAddress, string memory _signature) public {\r\n        users[_walletAddress]._role = Roles(_role);\r\n\r\n        users[_walletAddress]._timestamp = block.timestamp;\r\n        users[_walletAddress]._signature = _signature;\r\n        emit UserEvent(users[_walletAddress], _walletAddress);\r\n    }\r\n\r\n    function getAllUsers() public view returns(User[] memory) {\r\n        User[] memory allUsers = new User[](usersCounter);\r\n        for (uint index = 0; index < usersCounter; index++) {\r\n            address _walletAddress = usersAddress[index];\r\n            User storage user = users[_walletAddress];\r\n            allUsers[index] = user;\r\n        }\r\n        return allUsers;\r\n    }\r\n\r\n    function getUserInfo(address _walletAddress) public view returns (User memory) {\r\n        return users[_walletAddress];\r\n    }\r\n\r\n    function getA() public view returns (uint256) {\r\n        return usersCounter;\r\n    }\r\n}\r\n",
  "sourcePath": "/mnt/c/Users/Beniamin/source/repos/DissertationProject/contracts/UserChain.sol",
  "compiler": {
    "name": "solc",
    "version": "0.8.10+commit.fc410830.Emscripten.clang"
  },
  "schemaVersion": "3.4.3",
  "updatedAt": "2021-12-09T15:18:42.464Z",
  "networkType": "ethereum",
  "devdoc": {
    "kind": "dev",
    "methods": {},
    "version": 1
  },
  "userdoc": {
    "kind": "user",
    "methods": {},
    "version": 1
  }
}