{
  "contractName": "VerifySignature",
  "abi": [
    {
      "inputs": [
        {
          "internalType": "address",
          "name": "_projectAddress",
          "type": "address"
        }
      ],
      "name": "getMessageHash",
      "outputs": [
        {
          "internalType": "bytes32",
          "name": "",
          "type": "bytes32"
        }
      ],
      "stateMutability": "pure",
      "type": "function"
    },
    {
      "inputs": [
        {
          "internalType": "bytes32",
          "name": "_messageHash",
          "type": "bytes32"
        }
      ],
      "name": "getEthSignedMessageHash",
      "outputs": [
        {
          "internalType": "bytes32",
          "name": "",
          "type": "bytes32"
        }
      ],
      "stateMutability": "pure",
      "type": "function"
    },
    {
      "inputs": [
        {
          "internalType": "address",
          "name": "_projectAddress",
          "type": "address"
        },
        {
          "internalType": "string",
          "name": "signature",
          "type": "string"
        }
      ],
      "name": "verify",
      "outputs": [
        {
          "internalType": "bool",
          "name": "",
          "type": "bool"
        }
      ],
      "stateMutability": "pure",
      "type": "function"
    },
    {
      "inputs": [
        {
          "internalType": "bytes32",
          "name": "_ethSignedMessageHash",
          "type": "bytes32"
        },
        {
          "internalType": "string",
          "name": "_signature",
          "type": "string"
        }
      ],
      "name": "recoverSigner",
      "outputs": [
        {
          "internalType": "address",
          "name": "",
          "type": "address"
        }
      ],
      "stateMutability": "pure",
      "type": "function"
    },
    {
      "inputs": [
        {
          "internalType": "string",
          "name": "sig",
          "type": "string"
        }
      ],
      "name": "splitSignature",
      "outputs": [
        {
          "internalType": "bytes32",
          "name": "r",
          "type": "bytes32"
        },
        {
          "internalType": "bytes32",
          "name": "s",
          "type": "bytes32"
        },
        {
          "internalType": "uint8",
          "name": "v",
          "type": "uint8"
        }
      ],
      "stateMutability": "pure",
      "type": "function"
    }
  ],
  "bytecode": "0x608060405234801561001057600080fd5b50610901806100206000396000f3fe608060405234801561001057600080fd5b50600436106100575760003560e01c80631f5ac1b21461005c5780634cb49f291461008c578063dca95419146100be578063e8fc9273146100ee578063fa5408011461011e575b600080fd5b61007660048036038101906100719190610354565b61014e565b604051610083919061039a565b60405180910390f35b6100a660048036038101906100a191906104fb565b61017e565b6040516100b593929190610560565b60405180910390f35b6100d860048036038101906100d391906105c3565b6101e6565b6040516100e5919061062e565b60405180910390f35b61010860048036038101906101039190610649565b610255565b60405161011591906106c0565b60405180910390f35b610138600480360381019061013391906106db565b6102b2565b604051610145919061039a565b60405180910390f35b6000816040516020016101619190610750565b604051602081830303815290604052805190602001209050919050565b600080600060418451146101c7576040517f08c379a00000000000000000000000000000000000000000000000000000000081526004016101be906107c8565b60405180910390fd5b6020840151925060408401519150606084015160001a90509193909250565b6000806000806101f58561017e565b9250925092506001868285856040516000815260200160405260405161021e94939291906107e8565b6020604051602081039080840390855afa158015610240573d6000803e3d6000fd5b50505060206040510351935050505092915050565b6000806102618461014e565b9050600061026e826102b2565b90508473ffffffffffffffffffffffffffffffffffffffff1661029182866101e6565b73ffffffffffffffffffffffffffffffffffffffff16149250505092915050565b6000816040516020016102c591906108a5565b604051602081830303815290604052805190602001209050919050565b6000604051905090565b600080fd5b600080fd5b600073ffffffffffffffffffffffffffffffffffffffff82169050919050565b6000610321826102f6565b9050919050565b61033181610316565b811461033c57600080fd5b50565b60008135905061034e81610328565b92915050565b60006020828403121561036a576103696102ec565b5b60006103788482850161033f565b91505092915050565b6000819050919050565b61039481610381565b82525050565b60006020820190506103af600083018461038b565b92915050565b600080fd5b600080fd5b6000601f19601f8301169050919050565b7f4e487b7100000000000000000000000000000000000000000000000000000000600052604160045260246000fd5b610408826103bf565b810181811067ffffffffffffffff82111715610427576104266103d0565b5b80604052505050565b600061043a6102e2565b905061044682826103ff565b919050565b600067ffffffffffffffff821115610466576104656103d0565b5b61046f826103bf565b9050602081019050919050565b82818337600083830152505050565b600061049e6104998461044b565b610430565b9050828152602081018484840111156104ba576104b96103ba565b5b6104c584828561047c565b509392505050565b600082601f8301126104e2576104e16103b5565b5b81356104f284826020860161048b565b91505092915050565b600060208284031215610511576105106102ec565b5b600082013567ffffffffffffffff81111561052f5761052e6102f1565b5b61053b848285016104cd565b91505092915050565b600060ff82169050919050565b61055a81610544565b82525050565b6000606082019050610575600083018661038b565b610582602083018561038b565b61058f6040830184610551565b949350505050565b6105a081610381565b81146105ab57600080fd5b50565b6000813590506105bd81610597565b92915050565b600080604083850312156105da576105d96102ec565b5b60006105e8858286016105ae565b925050602083013567ffffffffffffffff811115610609576106086102f1565b5b610615858286016104cd565b9150509250929050565b61062881610316565b82525050565b6000602082019050610643600083018461061f565b92915050565b600080604083850312156106605761065f6102ec565b5b600061066e8582860161033f565b925050602083013567ffffffffffffffff81111561068f5761068e6102f1565b5b61069b858286016104cd565b9150509250929050565b60008115159050919050565b6106ba816106a5565b82525050565b60006020820190506106d560008301846106b1565b92915050565b6000602082840312156106f1576106f06102ec565b5b60006106ff848285016105ae565b91505092915050565b60008160601b9050919050565b600061072082610708565b9050919050565b600061073282610715565b9050919050565b61074a61074582610316565b610727565b82525050565b600061075c8284610739565b60148201915081905092915050565b600082825260208201905092915050565b7f696e76616c6964207369676e6174757265206c656e6774680000000000000000600082015250565b60006107b260188361076b565b91506107bd8261077c565b602082019050919050565b600060208201905081810360008301526107e1816107a5565b9050919050565b60006080820190506107fd600083018761038b565b61080a6020830186610551565b610817604083018561038b565b610824606083018461038b565b95945050505050565b600081905092915050565b7f19457468657265756d205369676e6564204d6573736167653a0a333200000000600082015250565b600061086e601c8361082d565b915061087982610838565b601c82019050919050565b6000819050919050565b61089f61089a82610381565b610884565b82525050565b60006108b082610861565b91506108bc828461088e565b6020820191508190509291505056fea2646970667358221220ed45863bdefdc560a2298d909792a5a096fc2a50dd9e75082d32b5837f4db4fc64736f6c634300080a0033",
  "immutableReferences": {},
  "source": "// SPDX-License-Identifier: MIT\r\npragma solidity ^0.8.3 < 0.9.0;\r\n\r\ncontract VerifySignature {\r\n\r\n    function getMessageHash(\r\n        address _projectAddress\r\n    ) public pure returns (bytes32) {\r\n        return keccak256(abi.encodePacked(_projectAddress));\r\n    }\r\n\r\n    function getEthSignedMessageHash(bytes32 _messageHash)\r\n        public\r\n        pure\r\n        returns (bytes32)\r\n    {\r\n        return keccak256(abi.encodePacked(\"\\x19Ethereum Signed Message:\\n32\", _messageHash));\r\n    }\r\n\r\n    function verify(\r\n        address _projectAddress,\r\n        string memory signature\r\n    ) public pure returns (bool) {\r\n        bytes32 messageHash = getMessageHash(_projectAddress);\r\n        bytes32 ethSignedMessageHash = getEthSignedMessageHash(messageHash);\r\n\r\n        return recoverSigner(ethSignedMessageHash, signature) == _projectAddress;\r\n    }\r\n\r\n    function recoverSigner(bytes32 _ethSignedMessageHash, string memory _signature)\r\n        public\r\n        pure\r\n        returns (address)\r\n    {\r\n        (bytes32 r, bytes32 s, uint8 v) = splitSignature(_signature);\r\n\r\n        return ecrecover(_ethSignedMessageHash, v, r, s);\r\n    }\r\n\r\n    function splitSignature(string memory sig)\r\n        public\r\n        pure\r\n        returns (\r\n            bytes32 r,\r\n            bytes32 s,\r\n            uint8 v\r\n        )\r\n    {\r\n        require(bytes(sig).length == 65, \"invalid signature length\");\r\n\r\n        assembly {\r\n            /*\r\n            First 32 bytes stores the length of the signature\r\n\r\n            add(sig, 32) = pointer of sig + 32\r\n            effectively, skips first 32 bytes of signature\r\n\r\n            mload(p) loads next 32 bytes starting at the memory address p into memory\r\n            */\r\n\r\n            // first 32 bytes, after the length prefix\r\n            r := mload(add(sig, 32))\r\n            // second 32 bytes\r\n            s := mload(add(sig, 64))\r\n            // final byte (first byte of the next 32 bytes)\r\n            v := byte(0, mload(add(sig, 96)))\r\n        }\r\n\r\n        // implicitly return (r, s, v)\r\n    }\r\n}\r\n",
  "sourcePath": "/mnt/c/Users/Beniamin/source/repos/DissertationProject/contracts/VerifyingSignature.sol",
  "compiler": {
    "name": "solc",
    "version": "0.8.10+commit.fc410830.Emscripten.clang"
  },
  "schemaVersion": "3.4.3",
  "updatedAt": "2021-12-04T09:08:17.145Z",
  "devdoc": {
    "kind": "dev",
    "methods": {},
    "version": 1
  },
  "userdoc": {
    "kind": "user",
    "methods": {},
    "version": 1
  }
}