{
  "contractName": "VerifySignature",
  "abi": [
    {
      "inputs": [
        {
          "internalType": "address",
          "name": "_to",
          "type": "address"
        },
        {
          "internalType": "uint256",
          "name": "_amount",
          "type": "uint256"
        },
        {
          "internalType": "bytes32",
          "name": "_message",
          "type": "bytes32"
        },
        {
          "internalType": "uint256",
          "name": "_nonce",
          "type": "uint256"
        }
      ],
      "name": "getMessageHash",
      "outputs": [
        {
          "internalType": "bytes32",
          "name": "",
          "type": "bytes32"
        }
      ],
      "stateMutability": "pure",
      "type": "function"
    },
    {
      "inputs": [
        {
          "internalType": "bytes32",
          "name": "_messageHash",
          "type": "bytes32"
        }
      ],
      "name": "getEthSignedMessageHash",
      "outputs": [
        {
          "internalType": "bytes32",
          "name": "",
          "type": "bytes32"
        }
      ],
      "stateMutability": "pure",
      "type": "function"
    },
    {
      "inputs": [
        {
          "internalType": "address",
          "name": "_signer",
          "type": "address"
        },
        {
          "internalType": "address",
          "name": "_to",
          "type": "address"
        },
        {
          "internalType": "uint256",
          "name": "_amount",
          "type": "uint256"
        },
        {
          "internalType": "bytes32",
          "name": "_message",
          "type": "bytes32"
        },
        {
          "internalType": "uint256",
          "name": "_nonce",
          "type": "uint256"
        },
        {
          "internalType": "bytes",
          "name": "signature",
          "type": "bytes"
        }
      ],
      "name": "verify",
      "outputs": [
        {
          "internalType": "bool",
          "name": "",
          "type": "bool"
        }
      ],
      "stateMutability": "pure",
      "type": "function"
    },
    {
      "inputs": [
        {
          "internalType": "bytes32",
          "name": "_ethSignedMessageHash",
          "type": "bytes32"
        },
        {
          "internalType": "bytes",
          "name": "_signature",
          "type": "bytes"
        }
      ],
      "name": "recoverSigner",
      "outputs": [
        {
          "internalType": "address",
          "name": "",
          "type": "address"
        }
      ],
      "stateMutability": "pure",
      "type": "function"
    },
    {
      "inputs": [
        {
          "internalType": "bytes",
          "name": "sig",
          "type": "bytes"
        }
      ],
      "name": "splitSignature",
      "outputs": [
        {
          "internalType": "bytes32",
          "name": "r",
          "type": "bytes32"
        },
        {
          "internalType": "bytes32",
          "name": "s",
          "type": "bytes32"
        },
        {
          "internalType": "uint8",
          "name": "v",
          "type": "uint8"
        }
      ],
      "stateMutability": "pure",
      "type": "function"
    }
  ],
  "bytecode": "0x608060405234801561001057600080fd5b50610a22806100206000396000f3fe608060405234801561001057600080fd5b50600436106100575760003560e01c80633a24e4201461005c57806397aba7f91461008c578063a7bb5803146100bc578063fa540801146100ee578063fe680fa31461011e575b600080fd5b61007660048036038101906100719190610516565b61014e565b60405161008391906105da565b60405180910390f35b6100a660048036038101906100a191906105f5565b6101b2565b6040516100b39190610660565b60405180910390f35b6100d660048036038101906100d1919061067b565b610221565b6040516100e5939291906106ef565b60405180910390f35b61010860048036038101906101039190610726565b610289565b6040516101159190610753565b60405180910390f35b6101386004803603810190610133919061076e565b6102b9565b6040516101459190610753565b60405180910390f35b60008061015d878787876102b9565b9050600061016a82610289565b90508873ffffffffffffffffffffffffffffffffffffffff1661018d82866101b2565b73ffffffffffffffffffffffffffffffffffffffff1614925050509695505050505050565b6000806000806101c185610221565b925092509250600186828585604051600081526020016040526040516101ea94939291906107d5565b6020604051602081039080840390855afa15801561020c573d6000803e3d6000fd5b50505060206040510351935050505092915050565b6000806000604184511461026a576040517f08c379a000000000000000000000000000000000000000000000000000000000815260040161026190610877565b60405180910390fd5b6020840151925060408401519150606084015160001a90509193909250565b60008160405160200161029c919061090f565b604051602081830303815290604052805190602001209050919050565b6000848484846040516020016102d2949392919061099e565b604051602081830303815290604052805190602001209050949350505050565b6000604051905090565b600080fd5b600080fd5b600073ffffffffffffffffffffffffffffffffffffffff82169050919050565b600061033182610306565b9050919050565b61034181610326565b811461034c57600080fd5b50565b60008135905061035e81610338565b92915050565b6000819050919050565b61037781610364565b811461038257600080fd5b50565b6000813590506103948161036e565b92915050565b6000819050919050565b6103ad8161039a565b81146103b857600080fd5b50565b6000813590506103ca816103a4565b92915050565b600080fd5b600080fd5b6000601f19601f8301169050919050565b7f4e487b7100000000000000000000000000000000000000000000000000000000600052604160045260246000fd5b610423826103da565b810181811067ffffffffffffffff82111715610442576104416103eb565b5b80604052505050565b60006104556102f2565b9050610461828261041a565b919050565b600067ffffffffffffffff821115610481576104806103eb565b5b61048a826103da565b9050602081019050919050565b82818337600083830152505050565b60006104b96104b484610466565b61044b565b9050828152602081018484840111156104d5576104d46103d5565b5b6104e0848285610497565b509392505050565b600082601f8301126104fd576104fc6103d0565b5b813561050d8482602086016104a6565b91505092915050565b60008060008060008060c08789031215610533576105326102fc565b5b600061054189828a0161034f565b965050602061055289828a0161034f565b955050604061056389828a01610385565b945050606061057489828a016103bb565b935050608061058589828a01610385565b92505060a087013567ffffffffffffffff8111156105a6576105a5610301565b5b6105b289828a016104e8565b9150509295509295509295565b60008115159050919050565b6105d4816105bf565b82525050565b60006020820190506105ef60008301846105cb565b92915050565b6000806040838503121561060c5761060b6102fc565b5b600061061a858286016103bb565b925050602083013567ffffffffffffffff81111561063b5761063a610301565b5b610647858286016104e8565b9150509250929050565b61065a81610326565b82525050565b60006020820190506106756000830184610651565b92915050565b600060208284031215610691576106906102fc565b5b600082013567ffffffffffffffff8111156106af576106ae610301565b5b6106bb848285016104e8565b91505092915050565b6106cd8161039a565b82525050565b600060ff82169050919050565b6106e9816106d3565b82525050565b600060608201905061070460008301866106c4565b61071160208301856106c4565b61071e60408301846106e0565b949350505050565b60006020828403121561073c5761073b6102fc565b5b600061074a848285016103bb565b91505092915050565b600060208201905061076860008301846106c4565b92915050565b60008060008060808587031215610788576107876102fc565b5b60006107968782880161034f565b94505060206107a787828801610385565b93505060406107b8878288016103bb565b92505060606107c987828801610385565b91505092959194509250565b60006080820190506107ea60008301876106c4565b6107f760208301866106e0565b61080460408301856106c4565b61081160608301846106c4565b95945050505050565b600082825260208201905092915050565b7f696e76616c6964207369676e6174757265206c656e6774680000000000000000600082015250565b600061086160188361081a565b915061086c8261082b565b602082019050919050565b6000602082019050818103600083015261089081610854565b9050919050565b600081905092915050565b7f19457468657265756d205369676e6564204d6573736167653a0a333200000000600082015250565b60006108d8601c83610897565b91506108e3826108a2565b601c82019050919050565b6000819050919050565b6109096109048261039a565b6108ee565b82525050565b600061091a826108cb565b915061092682846108f8565b60208201915081905092915050565b60008160601b9050919050565b600061094d82610935565b9050919050565b600061095f82610942565b9050919050565b61097761097282610326565b610954565b82525050565b6000819050919050565b61099861099382610364565b61097d565b82525050565b60006109aa8287610966565b6014820191506109ba8286610987565b6020820191506109ca82856108f8565b6020820191506109da8284610987565b6020820191508190509594505050505056fea26469706673582212204c232b7b6445226fe603473a5299cfdf623aefd50a0cd64bc83fc578cd35f73d64736f6c634300080a0033",
  "immutableReferences": {},
  "source": "// SPDX-License-Identifier: MIT\r\npragma solidity ^0.8.3;\r\n\r\n/* Signature Verification\r\n\r\nHow to Sign and Verify\r\n# Signing\r\n1. Create message to sign\r\n2. Hash the message\r\n3. Sign the hash (off chain, keep your private key secret)\r\n\r\n# Verify\r\n1. Recreate hash from the original message\r\n2. Recover signer from signature and hash\r\n3. Compare recovered signer to claimed signer\r\n*/\r\n\r\ncontract VerifySignature {\r\n    /* 1. Unlock MetaMask account\r\n    ethereum.enable()\r\n    */\r\n\r\n    /* 2. Get message hash to sign\r\n    getMessageHash(\r\n        0x14723A09ACff6D2A60DcdF7aA4AFf308FDDC160C,\r\n        123,\r\n        \"coffee and donuts\",\r\n        1\r\n    )\r\n\r\n    hash = \"0xcf36ac4f97dc10d91fc2cbb20d718e94a8cbfe0f82eaedc6a4aa38946fb797cd\"\r\n    */\r\n    function getMessageHash(\r\n        address _to,\r\n        uint _amount,\r\n        bytes32 _message,\r\n        uint _nonce\r\n    ) public pure returns (bytes32) {\r\n        return keccak256(abi.encodePacked(_to, _amount, _message, _nonce));\r\n    }\r\n\r\n    /* 3. Sign message hash\r\n    # using browser\r\n    account = \"copy paste account of signer here\"\r\n    ethereum.request({ method: \"personal_sign\", params: [account, hash]}).then(console.log)\r\n\r\n    # using web3\r\n    web3.personal.sign(hash, web3.eth.defaultAccount, console.log)\r\n\r\n    Signature will be different for different accounts\r\n    0x993dab3dd91f5c6dc28e17439be475478f5635c92a56e17e82349d3fb2f166196f466c0b4e0c146f285204f0dcb13e5ae67bc33f4b888ec32dfe0a063e8f3f781b\r\n    */\r\n    function getEthSignedMessageHash(bytes32 _messageHash)\r\n        public\r\n        pure\r\n        returns (bytes32)\r\n    {\r\n        /*\r\n        Signature is produced by signing a keccak256 hash with the following format:\r\n        \"\\x19Ethereum Signed Message\\n\" + len(msg) + msg\r\n        */\r\n        return\r\n            keccak256(\r\n                abi.encodePacked(\"\\x19Ethereum Signed Message:\\n32\", _messageHash)\r\n            );\r\n    }\r\n\r\n    /* 4. Verify signature\r\n    signer = 0xB273216C05A8c0D4F0a4Dd0d7Bae1D2EfFE636dd\r\n    to = 0x14723A09ACff6D2A60DcdF7aA4AFf308FDDC160C\r\n    amount = 123\r\n    message = \"coffee and donuts\"\r\n    nonce = 1\r\n    signature =\r\n        0x993dab3dd91f5c6dc28e17439be475478f5635c92a56e17e82349d3fb2f166196f466c0b4e0c146f285204f0dcb13e5ae67bc33f4b888ec32dfe0a063e8f3f781b\r\n    */\r\n    function verify(\r\n        address _signer,\r\n        address _to,\r\n        uint _amount,\r\n        bytes32 _message,\r\n        uint _nonce,\r\n        bytes memory signature\r\n    ) public pure returns (bool) {\r\n        bytes32 messageHash = getMessageHash(_to, _amount, _message, _nonce);\r\n        bytes32 ethSignedMessageHash = getEthSignedMessageHash(messageHash);\r\n\r\n        return recoverSigner(ethSignedMessageHash, signature) == _signer;\r\n    }\r\n\r\n    function recoverSigner(bytes32 _ethSignedMessageHash, bytes memory _signature)\r\n        public\r\n        pure\r\n        returns (address)\r\n    {\r\n        (bytes32 r, bytes32 s, uint8 v) = splitSignature(_signature);\r\n\r\n        return ecrecover(_ethSignedMessageHash, v, r, s);\r\n    }\r\n\r\n    function splitSignature(bytes memory sig)\r\n        public\r\n        pure\r\n        returns (\r\n            bytes32 r,\r\n            bytes32 s,\r\n            uint8 v\r\n        )\r\n    {\r\n        require(sig.length == 65, \"invalid signature length\");\r\n\r\n        assembly {\r\n            /*\r\n            First 32 bytes stores the length of the signature\r\n\r\n            add(sig, 32) = pointer of sig + 32\r\n            effectively, skips first 32 bytes of signature\r\n\r\n            mload(p) loads next 32 bytes starting at the memory address p into memory\r\n            */\r\n\r\n            // first 32 bytes, after the length prefix\r\n            r := mload(add(sig, 32))\r\n            // second 32 bytes\r\n            s := mload(add(sig, 64))\r\n            // final byte (first byte of the next 32 bytes)\r\n            v := byte(0, mload(add(sig, 96)))\r\n        }\r\n\r\n        // implicitly return (r, s, v)\r\n    }\r\n}\r\n",
  "sourcePath": "/mnt/c/users/beniamin/source/repos/dissertationproject/contracts/others/VerifySignature.sol",
  "compiler": {
    "name": "solc",
    "version": "0.8.10+commit.fc410830.Emscripten.clang"
  },
  "schemaVersion": "3.4.3",
  "updatedAt": "2021-11-21T08:17:34.688Z",
  "devdoc": {
    "kind": "dev",
    "methods": {},
    "version": 1
  },
  "userdoc": {
    "kind": "user",
    "methods": {},
    "version": 1
  }
}